{
	"schemaVersion": "2.0.0",
	"contractName": "ASelfCustody",
	"compilerOutput": {
		"abi": [
			{
				"constant": false,
				"inputs": [
					{
						"name": "selfCustodyAccount",
						"type": "address"
					},
					{
						"name": "token",
						"type": "address"
					},
					{
						"name": "amount",
						"type": "uint256"
					}
				],
				"name": "transferToSelfCustody",
				"outputs": [
					{
						"name": "",
						"type": "bool"
					},
					{
						"name": "",
						"type": "uint256"
					}
				],
				"payable": false,
				"stateMutability": "nonpayable",
				"type": "function"
			},
			{
				"constant": true,
				"inputs": [
					{
						"name": "grgToken",
						"type": "address"
					},
					{
						"name": "token",
						"type": "address"
					},
					{
						"name": "amount",
						"type": "uint256"
					}
				],
				"name": "operatorGRGminimumSatisfiedExternal",
				"outputs": [
					{
						"name": "satisfied",
						"type": "bool"
					},
					{
						"name": "shortfall",
						"type": "uint256"
					}
				],
				"payable": false,
				"stateMutability": "view",
				"type": "function"
			}
		],
		"devdoc": {
			"author": "Gabriele Rigo - <gab@rigoblock.com>",
			"methods": {
				"operatorGRGminimumSatisfiedExternal(address,address,uint256)": {
					"details": "external check if minimum pool operator GRG amount requirement satisfied.",
					"params": {
						"amount": "Number of tokens to be transferred.",
						"grgToken": "Address of the Rigo token.",
						"token": "Address of the token to be transferred."
					},
					"return": "Bool the transaction was successful.Number of GRG pool operator shortfall."
				},
				"transferToSelfCustody(address,address,uint256)": {
					"details": "transfers ETH or tokens to self custody.",
					"params": {
						"amount": "Number of tokens.",
						"selfCustodyAccount": "Address of the target account.",
						"token": "Address of the target token."
					},
					"return": "Bool the transaction was successful.Number of GRG pool operator shortfall."
				}
			},
			"title": "Self Custody adapter - A helper contract for self custody."
		},
		"evm": {
			"bytecode": {
				"linkReferences": {},
				"object": "0x608060405234801561001057600080fd5b50610be5806100206000396000f30060806040526004361061004b5763ffffffff7c0100000000000000000000000000000000000000000000000000000000600035041663318698a78114610050578063a49f27a5146100a2575b600080fd5b34801561005c57600080fd5b5061008773ffffffffffffffffffffffffffffffffffffffff600435811690602435166044356100d9565b60408051921515835260208301919091528051918290030190f35b3480156100ae57600080fd5b5061008773ffffffffffffffffffffffffffffffffffffffff6004358116906024351660443561048e565b60008060008060003373ffffffffffffffffffffffffffffffffffffffff163073ffffffffffffffffffffffffffffffffffffffff16638da5cb5b6040518163ffffffff167c0100000000000000000000000000000000000000000000000000000000028152600401602060405180830381600087803b15801561015c57600080fd5b505af1158015610170573d6000803e3d6000fd5b505050506040513d602081101561018657600080fd5b505173ffffffffffffffffffffffffffffffffffffffff161461020a57604080517f08c379a000000000000000000000000000000000000000000000000000000000815260206004820152601060248201527f4641494c5f4f574e45525f434845434b00000000000000000000000000000000604482015290519081900360640190fd5b3073ffffffffffffffffffffffffffffffffffffffff1663c112c7136040518163ffffffff167c0100000000000000000000000000000000000000000000000000000000028152600401602060405180830381600087803b15801561026e57600080fd5b505af1158015610282573d6000803e3d6000fd5b505050506040513d602081101561029857600080fd5b5051604080517f2314d79c000000000000000000000000000000000000000000000000000000008152905173ffffffffffffffffffffffffffffffffffffffff90921691632314d79c916004808201926020929091908290030181600087803b15801561030457600080fd5b505af1158015610318573d6000803e3d6000fd5b505050506040513d602081101561032e57600080fd5b5051925085151561033e57600080fd5b6103498388886104a8565b90925090506001821515141561047b576103648888886106cc565b15156103f757604080517f08c379a000000000000000000000000000000000000000000000000000000000815260206004820152602560248201527f5452414e534645525f4641494c5f4752475f5245515f5341544953464945445f60448201527f4552524f52000000000000000000000000000000000000000000000000000000606482015290519081900360840190fd5b610402888888610813565b151561046f57604080517f08c379a000000000000000000000000000000000000000000000000000000000815260206004820181905260248201527f4c4f475f4641494c5f4752475f5245515f5341544953464945445f4552524f52604482015290519081900360640190fd5b60018194509450610483565b600081945094505b505050935093915050565b60008061049c8585856104a8565b91509150935093915050565b6000806012602482806104c387670de0b6b3a7640000610a4f565b604080517f70a082310000000000000000000000000000000000000000000000000000000081523360048201529051919350858503600a0a9173ffffffffffffffffffffffffffffffffffffffff8c16916370a082319160248083019260209291908290030181600087803b15801561053b57600080fd5b505af115801561054f573d6000803e3d6000fd5b505050506040513d602081101561056557600080fd5b505102905073ffffffffffffffffffffffffffffffffffffffff8816156105935760019550600094506106c0565b61059b610a73565b8210156105af5760019550600094506106c0565b6105b7610a87565b8210156105fe576105c6610a9b565b8110156105f057600095506105e9816105dd610a9b565b03858503600a0a610aaf565b94506105f9565b60019550600094505b6106c0565b610606610ae3565b82101561062c57610615610af7565b8110156105f057600095506105e9816105dd610af7565b610634610ae3565b821061065957610642610b0b565b8110156105f057600095506105e9816105dd610b0b565b604080517f08c379a000000000000000000000000000000000000000000000000000000000815260206004820152601960248201527f554e4b4e4f574e5f4752475f4d494e494d554d5f4552524f5200000000000000604482015290519081900360640190fd5b50505050935093915050565b600073ffffffffffffffffffffffffffffffffffffffff831615156107385760405173ffffffffffffffffffffffffffffffffffffffff85169083156108fc029084906000818181858888f1935050505015801561072e573d6000803e3d6000fd5b506001905061080c565b8273ffffffffffffffffffffffffffffffffffffffff1663a9059cbb85846040518363ffffffff167c0100000000000000000000000000000000000000000000000000000000028152600401808373ffffffffffffffffffffffffffffffffffffffff1673ffffffffffffffffffffffffffffffffffffffff16815260200182815260200192505050602060405180830381600087803b1580156107db57600080fd5b505af11580156107ef573d6000803e3d6000fd5b505050506040513d602081101561080557600080fd5b5060019150505b9392505050565b60008060006060610822610b20565b604080517f7472616e73666572546f53656c66437573746f647928616464726573732c616481527f64726573732c75696e7432353629000000000000000000000000000000000000602080830191909152825191829003602e018220308383015273ffffffffffffffffffffffffffffffffffffffff808d1684860152808c16606085015260808085018c90528551808603909101815260a085018087527f587fef540000000000000000000000000000000000000000000000000000000090527fffffffff00000000000000000000000000000000000000000000000000000000831660a4860190815260c48601968752815160e48701528151979a50929850965088169463587fef54948894889491926101049091019185019080838360005b8381101561095c578181015183820152602001610944565b50505050905090810190601f1680156109895780820380516001836020036101000a031916815260200191505b509350505050602060405180830381600087803b1580156109a957600080fd5b505af11580156109bd573d6000803e3d6000fd5b505050506040513d60208110156109d357600080fd5b50511515610a4257604080517f08c379a000000000000000000000000000000000000000000000000000000000815260206004820152601160248201527f49535355455f494e5f4556454e5446554c000000000000000000000000000000604482015290519081900360640190fd5b5060019695505050505050565b6000828202831580610a6b5750828482811515610a6857fe5b04145b151561080c57fe5b6f025d0c71be47b0fa4ac82f660000000090565b6f076cd0dd28cc461a0856f22e4000000090565b6f49484afc8987318fca49ded7c100000090565b600080808311610abb57fe5b8284811515610ac657fe5b0490508284811515610ad457fe5b06818402018414151561080c57fe5b6f17539683937c350e881115585800000090565b6fe6392fa705581654a7198be6e460000090565b7002d34497ad3c590da96e284e6ae424000090565b6000803073ffffffffffffffffffffffffffffffffffffffff1663837929b66040518163ffffffff167c0100000000000000000000000000000000000000000000000000000000028152600401602060405180830381600087803b158015610b8757600080fd5b505af1158015610b9b573d6000803e3d6000fd5b505050506040513d6020811015610bb157600080fd5b5051929150505600a165627a7a72305820cf7023938821e436cac002660ceb4165f5db4da6bc6d852b3781f6450641c40c0029",
				"opcodes": "PUSH1 0x80 PUSH1 0x40 MSTORE CALLVALUE DUP1 ISZERO PUSH2 0x10 JUMPI PUSH1 0x0 DUP1 REVERT JUMPDEST POP PUSH2 0xBE5 DUP1 PUSH2 0x20 PUSH1 0x0 CODECOPY PUSH1 0x0 RETURN STOP PUSH1 0x80 PUSH1 0x40 MSTORE PUSH1 0x4 CALLDATASIZE LT PUSH2 0x4B JUMPI PUSH4 0xFFFFFFFF PUSH29 0x100000000000000000000000000000000000000000000000000000000 PUSH1 0x0 CALLDATALOAD DIV AND PUSH4 0x318698A7 DUP2 EQ PUSH2 0x50 JUMPI DUP1 PUSH4 0xA49F27A5 EQ PUSH2 0xA2 JUMPI JUMPDEST PUSH1 0x0 DUP1 REVERT JUMPDEST CALLVALUE DUP1 ISZERO PUSH2 0x5C JUMPI PUSH1 0x0 DUP1 REVERT JUMPDEST POP PUSH2 0x87 PUSH20 0xFFFFFFFFFFFFFFFFFFFFFFFFFFFFFFFFFFFFFFFF PUSH1 0x4 CALLDATALOAD DUP2 AND SWAP1 PUSH1 0x24 CALLDATALOAD AND PUSH1 0x44 CALLDATALOAD PUSH2 0xD9 JUMP JUMPDEST PUSH1 0x40 DUP1 MLOAD SWAP3 ISZERO ISZERO DUP4 MSTORE PUSH1 0x20 DUP4 ADD SWAP2 SWAP1 SWAP2 MSTORE DUP1 MLOAD SWAP2 DUP3 SWAP1 SUB ADD SWAP1 RETURN JUMPDEST CALLVALUE DUP1 ISZERO PUSH2 0xAE JUMPI PUSH1 0x0 DUP1 REVERT JUMPDEST POP PUSH2 0x87 PUSH20 0xFFFFFFFFFFFFFFFFFFFFFFFFFFFFFFFFFFFFFFFF PUSH1 0x4 CALLDATALOAD DUP2 AND SWAP1 PUSH1 0x24 CALLDATALOAD AND PUSH1 0x44 CALLDATALOAD PUSH2 0x48E JUMP JUMPDEST PUSH1 0x0 DUP1 PUSH1 0x0 DUP1 PUSH1 0x0 CALLER PUSH20 0xFFFFFFFFFFFFFFFFFFFFFFFFFFFFFFFFFFFFFFFF AND ADDRESS PUSH20 0xFFFFFFFFFFFFFFFFFFFFFFFFFFFFFFFFFFFFFFFF AND PUSH4 0x8DA5CB5B PUSH1 0x40 MLOAD DUP2 PUSH4 0xFFFFFFFF AND PUSH29 0x100000000000000000000000000000000000000000000000000000000 MUL DUP2 MSTORE PUSH1 0x4 ADD PUSH1 0x20 PUSH1 0x40 MLOAD DUP1 DUP4 SUB DUP2 PUSH1 0x0 DUP8 DUP1 EXTCODESIZE ISZERO DUP1 ISZERO PUSH2 0x15C JUMPI PUSH1 0x0 DUP1 REVERT JUMPDEST POP GAS CALL ISZERO DUP1 ISZERO PUSH2 0x170 JUMPI RETURNDATASIZE PUSH1 0x0 DUP1 RETURNDATACOPY RETURNDATASIZE PUSH1 0x0 REVERT JUMPDEST POP POP POP POP PUSH1 0x40 MLOAD RETURNDATASIZE PUSH1 0x20 DUP2 LT ISZERO PUSH2 0x186 JUMPI PUSH1 0x0 DUP1 REVERT JUMPDEST POP MLOAD PUSH20 0xFFFFFFFFFFFFFFFFFFFFFFFFFFFFFFFFFFFFFFFF AND EQ PUSH2 0x20A JUMPI PUSH1 0x40 DUP1 MLOAD PUSH32 0x8C379A000000000000000000000000000000000000000000000000000000000 DUP2 MSTORE PUSH1 0x20 PUSH1 0x4 DUP3 ADD MSTORE PUSH1 0x10 PUSH1 0x24 DUP3 ADD MSTORE PUSH32 0x4641494C5F4F574E45525F434845434B00000000000000000000000000000000 PUSH1 0x44 DUP3 ADD MSTORE SWAP1 MLOAD SWAP1 DUP2 SWAP1 SUB PUSH1 0x64 ADD SWAP1 REVERT JUMPDEST ADDRESS PUSH20 0xFFFFFFFFFFFFFFFFFFFFFFFFFFFFFFFFFFFFFFFF AND PUSH4 0xC112C713 PUSH1 0x40 MLOAD DUP2 PUSH4 0xFFFFFFFF AND PUSH29 0x100000000000000000000000000000000000000000000000000000000 MUL DUP2 MSTORE PUSH1 0x4 ADD PUSH1 0x20 PUSH1 0x40 MLOAD DUP1 DUP4 SUB DUP2 PUSH1 0x0 DUP8 DUP1 EXTCODESIZE ISZERO DUP1 ISZERO PUSH2 0x26E JUMPI PUSH1 0x0 DUP1 REVERT JUMPDEST POP GAS CALL ISZERO DUP1 ISZERO PUSH2 0x282 JUMPI RETURNDATASIZE PUSH1 0x0 DUP1 RETURNDATACOPY RETURNDATASIZE PUSH1 0x0 REVERT JUMPDEST POP POP POP POP PUSH1 0x40 MLOAD RETURNDATASIZE PUSH1 0x20 DUP2 LT ISZERO PUSH2 0x298 JUMPI PUSH1 0x0 DUP1 REVERT JUMPDEST POP MLOAD PUSH1 0x40 DUP1 MLOAD PUSH32 0x2314D79C00000000000000000000000000000000000000000000000000000000 DUP2 MSTORE SWAP1 MLOAD PUSH20 0xFFFFFFFFFFFFFFFFFFFFFFFFFFFFFFFFFFFFFFFF SWAP1 SWAP3 AND SWAP2 PUSH4 0x2314D79C SWAP2 PUSH1 0x4 DUP1 DUP3 ADD SWAP3 PUSH1 0x20 SWAP3 SWAP1 SWAP2 SWAP1 DUP3 SWAP1 SUB ADD DUP2 PUSH1 0x0 DUP8 DUP1 EXTCODESIZE ISZERO DUP1 ISZERO PUSH2 0x304 JUMPI PUSH1 0x0 DUP1 REVERT JUMPDEST POP GAS CALL ISZERO DUP1 ISZERO PUSH2 0x318 JUMPI RETURNDATASIZE PUSH1 0x0 DUP1 RETURNDATACOPY RETURNDATASIZE PUSH1 0x0 REVERT JUMPDEST POP POP POP POP PUSH1 0x40 MLOAD RETURNDATASIZE PUSH1 0x20 DUP2 LT ISZERO PUSH2 0x32E JUMPI PUSH1 0x0 DUP1 REVERT JUMPDEST POP MLOAD SWAP3 POP DUP6 ISZERO ISZERO PUSH2 0x33E JUMPI PUSH1 0x0 DUP1 REVERT JUMPDEST PUSH2 0x349 DUP4 DUP9 DUP9 PUSH2 0x4A8 JUMP JUMPDEST SWAP1 SWAP3 POP SWAP1 POP PUSH1 0x1 DUP3 ISZERO ISZERO EQ ISZERO PUSH2 0x47B JUMPI PUSH2 0x364 DUP9 DUP9 DUP9 PUSH2 0x6CC JUMP JUMPDEST ISZERO ISZERO PUSH2 0x3F7 JUMPI PUSH1 0x40 DUP1 MLOAD PUSH32 0x8C379A000000000000000000000000000000000000000000000000000000000 DUP2 MSTORE PUSH1 0x20 PUSH1 0x4 DUP3 ADD MSTORE PUSH1 0x25 PUSH1 0x24 DUP3 ADD MSTORE PUSH32 0x5452414E534645525F4641494C5F4752475F5245515F5341544953464945445F PUSH1 0x44 DUP3 ADD MSTORE PUSH32 0x4552524F52000000000000000000000000000000000000000000000000000000 PUSH1 0x64 DUP3 ADD MSTORE SWAP1 MLOAD SWAP1 DUP2 SWAP1 SUB PUSH1 0x84 ADD SWAP1 REVERT JUMPDEST PUSH2 0x402 DUP9 DUP9 DUP9 PUSH2 0x813 JUMP JUMPDEST ISZERO ISZERO PUSH2 0x46F JUMPI PUSH1 0x40 DUP1 MLOAD PUSH32 0x8C379A000000000000000000000000000000000000000000000000000000000 DUP2 MSTORE PUSH1 0x20 PUSH1 0x4 DUP3 ADD DUP2 SWAP1 MSTORE PUSH1 0x24 DUP3 ADD MSTORE PUSH32 0x4C4F475F4641494C5F4752475F5245515F5341544953464945445F4552524F52 PUSH1 0x44 DUP3 ADD MSTORE SWAP1 MLOAD SWAP1 DUP2 SWAP1 SUB PUSH1 0x64 ADD SWAP1 REVERT JUMPDEST PUSH1 0x1 DUP2 SWAP5 POP SWAP5 POP PUSH2 0x483 JUMP JUMPDEST PUSH1 0x0 DUP2 SWAP5 POP SWAP5 POP JUMPDEST POP POP POP SWAP4 POP SWAP4 SWAP2 POP POP JUMP JUMPDEST PUSH1 0x0 DUP1 PUSH2 0x49C DUP6 DUP6 DUP6 PUSH2 0x4A8 JUMP JUMPDEST SWAP2 POP SWAP2 POP SWAP4 POP SWAP4 SWAP2 POP POP JUMP JUMPDEST PUSH1 0x0 DUP1 PUSH1 0x12 PUSH1 0x24 DUP3 DUP1 PUSH2 0x4C3 DUP8 PUSH8 0xDE0B6B3A7640000 PUSH2 0xA4F JUMP JUMPDEST PUSH1 0x40 DUP1 MLOAD PUSH32 0x70A0823100000000000000000000000000000000000000000000000000000000 DUP2 MSTORE CALLER PUSH1 0x4 DUP3 ADD MSTORE SWAP1 MLOAD SWAP2 SWAP4 POP DUP6 DUP6 SUB PUSH1 0xA EXP SWAP2 PUSH20 0xFFFFFFFFFFFFFFFFFFFFFFFFFFFFFFFFFFFFFFFF DUP13 AND SWAP2 PUSH4 0x70A08231 SWAP2 PUSH1 0x24 DUP1 DUP4 ADD SWAP3 PUSH1 0x20 SWAP3 SWAP2 SWAP1 DUP3 SWAP1 SUB ADD DUP2 PUSH1 0x0 DUP8 DUP1 EXTCODESIZE ISZERO DUP1 ISZERO PUSH2 0x53B JUMPI PUSH1 0x0 DUP1 REVERT JUMPDEST POP GAS CALL ISZERO DUP1 ISZERO PUSH2 0x54F JUMPI RETURNDATASIZE PUSH1 0x0 DUP1 RETURNDATACOPY RETURNDATASIZE PUSH1 0x0 REVERT JUMPDEST POP POP POP POP PUSH1 0x40 MLOAD RETURNDATASIZE PUSH1 0x20 DUP2 LT ISZERO PUSH2 0x565 JUMPI PUSH1 0x0 DUP1 REVERT JUMPDEST POP MLOAD MUL SWAP1 POP PUSH20 0xFFFFFFFFFFFFFFFFFFFFFFFFFFFFFFFFFFFFFFFF DUP9 AND ISZERO PUSH2 0x593 JUMPI PUSH1 0x1 SWAP6 POP PUSH1 0x0 SWAP5 POP PUSH2 0x6C0 JUMP JUMPDEST PUSH2 0x59B PUSH2 0xA73 JUMP JUMPDEST DUP3 LT ISZERO PUSH2 0x5AF JUMPI PUSH1 0x1 SWAP6 POP PUSH1 0x0 SWAP5 POP PUSH2 0x6C0 JUMP JUMPDEST PUSH2 0x5B7 PUSH2 0xA87 JUMP JUMPDEST DUP3 LT ISZERO PUSH2 0x5FE JUMPI PUSH2 0x5C6 PUSH2 0xA9B JUMP JUMPDEST DUP2 LT ISZERO PUSH2 0x5F0 JUMPI PUSH1 0x0 SWAP6 POP PUSH2 0x5E9 DUP2 PUSH2 0x5DD PUSH2 0xA9B JUMP JUMPDEST SUB DUP6 DUP6 SUB PUSH1 0xA EXP PUSH2 0xAAF JUMP JUMPDEST SWAP5 POP PUSH2 0x5F9 JUMP JUMPDEST PUSH1 0x1 SWAP6 POP PUSH1 0x0 SWAP5 POP JUMPDEST PUSH2 0x6C0 JUMP JUMPDEST PUSH2 0x606 PUSH2 0xAE3 JUMP JUMPDEST DUP3 LT ISZERO PUSH2 0x62C JUMPI PUSH2 0x615 PUSH2 0xAF7 JUMP JUMPDEST DUP2 LT ISZERO PUSH2 0x5F0 JUMPI PUSH1 0x0 SWAP6 POP PUSH2 0x5E9 DUP2 PUSH2 0x5DD PUSH2 0xAF7 JUMP JUMPDEST PUSH2 0x634 PUSH2 0xAE3 JUMP JUMPDEST DUP3 LT PUSH2 0x659 JUMPI PUSH2 0x642 PUSH2 0xB0B JUMP JUMPDEST DUP2 LT ISZERO PUSH2 0x5F0 JUMPI PUSH1 0x0 SWAP6 POP PUSH2 0x5E9 DUP2 PUSH2 0x5DD PUSH2 0xB0B JUMP JUMPDEST PUSH1 0x40 DUP1 MLOAD PUSH32 0x8C379A000000000000000000000000000000000000000000000000000000000 DUP2 MSTORE PUSH1 0x20 PUSH1 0x4 DUP3 ADD MSTORE PUSH1 0x19 PUSH1 0x24 DUP3 ADD MSTORE PUSH32 0x554E4B4E4F574E5F4752475F4D494E494D554D5F4552524F5200000000000000 PUSH1 0x44 DUP3 ADD MSTORE SWAP1 MLOAD SWAP1 DUP2 SWAP1 SUB PUSH1 0x64 ADD SWAP1 REVERT JUMPDEST POP POP POP POP SWAP4 POP SWAP4 SWAP2 POP POP JUMP JUMPDEST PUSH1 0x0 PUSH20 0xFFFFFFFFFFFFFFFFFFFFFFFFFFFFFFFFFFFFFFFF DUP4 AND ISZERO ISZERO PUSH2 0x738 JUMPI PUSH1 0x40 MLOAD PUSH20 0xFFFFFFFFFFFFFFFFFFFFFFFFFFFFFFFFFFFFFFFF DUP6 AND SWAP1 DUP4 ISZERO PUSH2 0x8FC MUL SWAP1 DUP5 SWAP1 PUSH1 0x0 DUP2 DUP2 DUP2 DUP6 DUP9 DUP9 CALL SWAP4 POP POP POP POP ISZERO DUP1 ISZERO PUSH2 0x72E JUMPI RETURNDATASIZE PUSH1 0x0 DUP1 RETURNDATACOPY RETURNDATASIZE PUSH1 0x0 REVERT JUMPDEST POP PUSH1 0x1 SWAP1 POP PUSH2 0x80C JUMP JUMPDEST DUP3 PUSH20 0xFFFFFFFFFFFFFFFFFFFFFFFFFFFFFFFFFFFFFFFF AND PUSH4 0xA9059CBB DUP6 DUP5 PUSH1 0x40 MLOAD DUP4 PUSH4 0xFFFFFFFF AND PUSH29 0x100000000000000000000000000000000000000000000000000000000 MUL DUP2 MSTORE PUSH1 0x4 ADD DUP1 DUP4 PUSH20 0xFFFFFFFFFFFFFFFFFFFFFFFFFFFFFFFFFFFFFFFF AND PUSH20 0xFFFFFFFFFFFFFFFFFFFFFFFFFFFFFFFFFFFFFFFF AND DUP2 MSTORE PUSH1 0x20 ADD DUP3 DUP2 MSTORE PUSH1 0x20 ADD SWAP3 POP POP POP PUSH1 0x20 PUSH1 0x40 MLOAD DUP1 DUP4 SUB DUP2 PUSH1 0x0 DUP8 DUP1 EXTCODESIZE ISZERO DUP1 ISZERO PUSH2 0x7DB JUMPI PUSH1 0x0 DUP1 REVERT JUMPDEST POP GAS CALL ISZERO DUP1 ISZERO PUSH2 0x7EF JUMPI RETURNDATASIZE PUSH1 0x0 DUP1 RETURNDATACOPY RETURNDATASIZE PUSH1 0x0 REVERT JUMPDEST POP POP POP POP PUSH1 0x40 MLOAD RETURNDATASIZE PUSH1 0x20 DUP2 LT ISZERO PUSH2 0x805 JUMPI PUSH1 0x0 DUP1 REVERT JUMPDEST POP PUSH1 0x1 SWAP2 POP POP JUMPDEST SWAP4 SWAP3 POP POP POP JUMP JUMPDEST PUSH1 0x0 DUP1 PUSH1 0x0 PUSH1 0x60 PUSH2 0x822 PUSH2 0xB20 JUMP JUMPDEST PUSH1 0x40 DUP1 MLOAD PUSH32 0x7472616E73666572546F53656C66437573746F647928616464726573732C6164 DUP2 MSTORE PUSH32 0x64726573732C75696E7432353629000000000000000000000000000000000000 PUSH1 0x20 DUP1 DUP4 ADD SWAP2 SWAP1 SWAP2 MSTORE DUP3 MLOAD SWAP2 DUP3 SWAP1 SUB PUSH1 0x2E ADD DUP3 KECCAK256 ADDRESS DUP4 DUP4 ADD MSTORE PUSH20 0xFFFFFFFFFFFFFFFFFFFFFFFFFFFFFFFFFFFFFFFF DUP1 DUP14 AND DUP5 DUP7 ADD MSTORE DUP1 DUP13 AND PUSH1 0x60 DUP6 ADD MSTORE PUSH1 0x80 DUP1 DUP6 ADD DUP13 SWAP1 MSTORE DUP6 MLOAD DUP1 DUP7 SUB SWAP1 SWAP2 ADD DUP2 MSTORE PUSH1 0xA0 DUP6 ADD DUP1 DUP8 MSTORE PUSH32 0x587FEF5400000000000000000000000000000000000000000000000000000000 SWAP1 MSTORE PUSH32 0xFFFFFFFF00000000000000000000000000000000000000000000000000000000 DUP4 AND PUSH1 0xA4 DUP7 ADD SWAP1 DUP2 MSTORE PUSH1 0xC4 DUP7 ADD SWAP7 DUP8 MSTORE DUP2 MLOAD PUSH1 0xE4 DUP8 ADD MSTORE DUP2 MLOAD SWAP8 SWAP11 POP SWAP3 SWAP9 POP SWAP7 POP DUP9 AND SWAP5 PUSH4 0x587FEF54 SWAP5 DUP9 SWAP5 DUP9 SWAP5 SWAP2 SWAP3 PUSH2 0x104 SWAP1 SWAP2 ADD SWAP2 DUP6 ADD SWAP1 DUP1 DUP4 DUP4 PUSH1 0x0 JUMPDEST DUP4 DUP2 LT ISZERO PUSH2 0x95C JUMPI DUP2 DUP2 ADD MLOAD DUP4 DUP3 ADD MSTORE PUSH1 0x20 ADD PUSH2 0x944 JUMP JUMPDEST POP POP POP POP SWAP1 POP SWAP1 DUP2 ADD SWAP1 PUSH1 0x1F AND DUP1 ISZERO PUSH2 0x989 JUMPI DUP1 DUP3 SUB DUP1 MLOAD PUSH1 0x1 DUP4 PUSH1 0x20 SUB PUSH2 0x100 EXP SUB NOT AND DUP2 MSTORE PUSH1 0x20 ADD SWAP2 POP JUMPDEST POP SWAP4 POP POP POP POP PUSH1 0x20 PUSH1 0x40 MLOAD DUP1 DUP4 SUB DUP2 PUSH1 0x0 DUP8 DUP1 EXTCODESIZE ISZERO DUP1 ISZERO PUSH2 0x9A9 JUMPI PUSH1 0x0 DUP1 REVERT JUMPDEST POP GAS CALL ISZERO DUP1 ISZERO PUSH2 0x9BD JUMPI RETURNDATASIZE PUSH1 0x0 DUP1 RETURNDATACOPY RETURNDATASIZE PUSH1 0x0 REVERT JUMPDEST POP POP POP POP PUSH1 0x40 MLOAD RETURNDATASIZE PUSH1 0x20 DUP2 LT ISZERO PUSH2 0x9D3 JUMPI PUSH1 0x0 DUP1 REVERT JUMPDEST POP MLOAD ISZERO ISZERO PUSH2 0xA42 JUMPI PUSH1 0x40 DUP1 MLOAD PUSH32 0x8C379A000000000000000000000000000000000000000000000000000000000 DUP2 MSTORE PUSH1 0x20 PUSH1 0x4 DUP3 ADD MSTORE PUSH1 0x11 PUSH1 0x24 DUP3 ADD MSTORE PUSH32 0x49535355455F494E5F4556454E5446554C000000000000000000000000000000 PUSH1 0x44 DUP3 ADD MSTORE SWAP1 MLOAD SWAP1 DUP2 SWAP1 SUB PUSH1 0x64 ADD SWAP1 REVERT JUMPDEST POP PUSH1 0x1 SWAP7 SWAP6 POP POP POP POP POP POP JUMP JUMPDEST PUSH1 0x0 DUP3 DUP3 MUL DUP4 ISZERO DUP1 PUSH2 0xA6B JUMPI POP DUP3 DUP5 DUP3 DUP2 ISZERO ISZERO PUSH2 0xA68 JUMPI INVALID JUMPDEST DIV EQ JUMPDEST ISZERO ISZERO PUSH2 0x80C JUMPI INVALID JUMPDEST PUSH16 0x25D0C71BE47B0FA4AC82F6600000000 SWAP1 JUMP JUMPDEST PUSH16 0x76CD0DD28CC461A0856F22E40000000 SWAP1 JUMP JUMPDEST PUSH16 0x49484AFC8987318FCA49DED7C1000000 SWAP1 JUMP JUMPDEST PUSH1 0x0 DUP1 DUP1 DUP4 GT PUSH2 0xABB JUMPI INVALID JUMPDEST DUP3 DUP5 DUP2 ISZERO ISZERO PUSH2 0xAC6 JUMPI INVALID JUMPDEST DIV SWAP1 POP DUP3 DUP5 DUP2 ISZERO ISZERO PUSH2 0xAD4 JUMPI INVALID JUMPDEST MOD DUP2 DUP5 MUL ADD DUP5 EQ ISZERO ISZERO PUSH2 0x80C JUMPI INVALID JUMPDEST PUSH16 0x17539683937C350E8811155858000000 SWAP1 JUMP JUMPDEST PUSH16 0xE6392FA705581654A7198BE6E4600000 SWAP1 JUMP JUMPDEST PUSH17 0x2D34497AD3C590DA96E284E6AE4240000 SWAP1 JUMP JUMPDEST PUSH1 0x0 DUP1 ADDRESS PUSH20 0xFFFFFFFFFFFFFFFFFFFFFFFFFFFFFFFFFFFFFFFF AND PUSH4 0x837929B6 PUSH1 0x40 MLOAD DUP2 PUSH4 0xFFFFFFFF AND PUSH29 0x100000000000000000000000000000000000000000000000000000000 MUL DUP2 MSTORE PUSH1 0x4 ADD PUSH1 0x20 PUSH1 0x40 MLOAD DUP1 DUP4 SUB DUP2 PUSH1 0x0 DUP8 DUP1 EXTCODESIZE ISZERO DUP1 ISZERO PUSH2 0xB87 JUMPI PUSH1 0x0 DUP1 REVERT JUMPDEST POP GAS CALL ISZERO DUP1 ISZERO PUSH2 0xB9B JUMPI RETURNDATASIZE PUSH1 0x0 DUP1 RETURNDATACOPY RETURNDATASIZE PUSH1 0x0 REVERT JUMPDEST POP POP POP POP PUSH1 0x40 MLOAD RETURNDATASIZE PUSH1 0x20 DUP2 LT ISZERO PUSH2 0xBB1 JUMPI PUSH1 0x0 DUP1 REVERT JUMPDEST POP MLOAD SWAP3 SWAP2 POP POP JUMP STOP LOG1 PUSH6 0x627A7A723058 KECCAK256 0xcf PUSH17 0x23938821E436CAC002660CEB4165F5DB4D 0xa6 0xbc PUSH14 0x852B3781F6450641C40C00290000 "
			}
		}
	},
	"sourceTreeHashHex": "0xfbbc339a0247cf7aac59debb4c26ac928e7f4c9a1b209e62926658479b8f52dd",
	"compiler": {
		"name": "solc",
		"version": "0.4.25+commit.59dbf8f1",
		"settings": {
			"remappings": [],
			"optimizer": {
				"enabled": true,
				"runs": 1000000
			},
			"outputSelection": {
				"*": {
					"*": [
						"abi",
						"devdoc",
						"evm.bytecode.object",
						"evm.bytecode.sourceMap",
						"evm.deployedBytecode.object",
						"evm.deployedBytecode.sourceMap"
					]
				}
			}
		}
	},
	"chains": {}
}