{
	"schemaVersion": "2.0.0",
	"contractName": "ASelfCustody",
	"compilerOutput": {
		"abi": [
			{
				"constant": false,
				"inputs": [
					{
						"name": "selfCustodyAccount",
						"type": "address"
					},
					{
						"name": "token",
						"type": "address"
					},
					{
						"name": "amount",
						"type": "uint256"
					}
				],
				"name": "transferToSelfCustody",
				"outputs": [
					{
						"name": "",
						"type": "bool"
					},
					{
						"name": "",
						"type": "uint256"
					}
				],
				"payable": false,
				"stateMutability": "nonpayable",
				"type": "function"
			},
			{
				"constant": true,
				"inputs": [
					{
						"name": "grgToken",
						"type": "address"
					},
					{
						"name": "token",
						"type": "address"
					},
					{
						"name": "amount",
						"type": "uint256"
					}
				],
				"name": "operatorGRGminimumSatisfiedExternal",
				"outputs": [
					{
						"name": "satisfied",
						"type": "bool"
					},
					{
						"name": "shortfall",
						"type": "uint256"
					}
				],
				"payable": false,
				"stateMutability": "view",
				"type": "function"
			}
		],
		"devdoc": {
			"author": "Gabriele Rigo - <gab@rigoblock.com>",
			"methods": {
				"operatorGRGminimumSatisfiedExternal(address,address,uint256)": {
					"details": "external check if minimum pool operator GRG amount requirement satisfied.",
					"params": {
						"amount": "Number of tokens to be transferred.",
						"grgToken": "Address of the Rigo token.",
						"token": "Address of the token to be transferred."
					},
					"return": "Bool the transaction was successful.Number of GRG pool operator shortfall."
				},
				"transferToSelfCustody(address,address,uint256)": {
					"details": "transfers ETH or tokens to self custody.",
					"params": {
						"amount": "Number of tokens.",
						"selfCustodyAccount": "Address of the target account.",
						"token": "Address of the target token."
					},
					"return": "Bool the transaction was successful.Number of GRG pool operator shortfall."
				}
			},
			"title": "Self Custody adapter - A helper contract for self custody."
		},
		"evm": {
			"bytecode": {
				"linkReferences": {},
				"object": "0x608060405234801561001057600080fd5b50610a25806100206000396000f3006080604052600436106100325763ffffffff60e060020a600035041663318698a78114610037578063a49f27a51461007c575b600080fd5b34801561004357600080fd5b50610061600160a060020a03600435811690602435166044356100a6565b60408051921515835260208301919091528051918290030190f35b34801561008857600080fd5b50610061600160a060020a03600435811690602435166044356103a3565b600080600080600033600160a060020a031630600160a060020a0316638da5cb5b6040518163ffffffff1660e060020a028152600401602060405180830381600087803b1580156100f657600080fd5b505af115801561010a573d6000803e3d6000fd5b505050506040513d602081101561012057600080fd5b5051600160a060020a031614610180576040805160e560020a62461bcd02815260206004820152601060248201527f4641494c5f4f574e45525f434845434b00000000000000000000000000000000604482015290519081900360640190fd5b30600160a060020a031663c112c7136040518163ffffffff1660e060020a028152600401602060405180830381600087803b1580156101be57600080fd5b505af11580156101d2573d6000803e3d6000fd5b505050506040513d60208110156101e857600080fd5b5051604080517f2314d79c0000000000000000000000000000000000000000000000000000000081529051600160a060020a0390921691632314d79c916004808201926020929091908290030181600087803b15801561024757600080fd5b505af115801561025b573d6000803e3d6000fd5b505050506040513d602081101561027157600080fd5b5051925085151561028157600080fd5b61028c8388886103bd565b909250905060018215151415610390576102a78888886105b0565b1515610323576040805160e560020a62461bcd02815260206004820152602560248201527f5452414e534645525f4641494c5f4752475f5245515f5341544953464945445f60448201527f4552524f52000000000000000000000000000000000000000000000000000000606482015290519081900360840190fd5b61032e88888861069d565b1515610384576040805160e560020a62461bcd02815260206004820181905260248201527f4c4f475f4641494c5f4752475f5245515f5341544953464945445f4552524f52604482015290519081900360640190fd5b60018194509450610398565b600081945094505b505050935093915050565b6000806103b18585856103bd565b91509150935093915050565b6000806012602482806103d887670de0b6b3a76400006108b5565b604080517f70a082310000000000000000000000000000000000000000000000000000000081523360048201529051919350858503600a0a91600160a060020a038c16916370a082319160248083019260209291908290030181600087803b15801561044357600080fd5b505af1158015610457573d6000803e3d6000fd5b505050506040513d602081101561046d57600080fd5b5051029050600160a060020a0388161561048e5760019550600094506105a4565b6104966108d9565b8210156104aa5760019550600094506105a4565b6104b26108ed565b8210156104f9576104c1610901565b8110156104eb57600095506104e4816104d8610901565b03858503600a0a610915565b94506104f4565b60019550600094505b6105a4565b610501610949565b8210156105275761051061095d565b8110156104eb57600095506104e4816104d861095d565b61052f610949565b82106105545761053d610971565b8110156104eb57600095506104e4816104d8610971565b6040805160e560020a62461bcd02815260206004820152601960248201527f554e4b4e4f574e5f4752475f4d494e494d554d5f4552524f5200000000000000604482015290519081900360640190fd5b50505050935093915050565b6000600160a060020a038316151561060257604051600160a060020a0385169083156108fc029084906000818181858888f193505050501580156105f8573d6000803e3d6000fd5b5060019050610696565b82600160a060020a031663a9059cbb85846040518363ffffffff1660e060020a0281526004018083600160a060020a0316600160a060020a0316815260200182815260200192505050602060405180830381600087803b15801561066557600080fd5b505af1158015610679573d6000803e3d6000fd5b505050506040513d602081101561068f57600080fd5b5060019150505b9392505050565b600080600060606106ac610986565b604080517f7472616e73666572546f53656c66437573746f647928616464726573732c616481527f64726573732c75696e7432353629000000000000000000000000000000000000602080830191909152825191829003602e0182203083830152600160a060020a03808d1684860152808c16606085015260808085018c90528551808603909101815260a085018087527f587fef540000000000000000000000000000000000000000000000000000000090527fffffffff00000000000000000000000000000000000000000000000000000000831660a4860190815260c48601968752815160e48701528151979a50929850965088169463587fef54948894889491926101049091019185019080838360005b838110156107d95781810151838201526020016107c1565b50505050905090810190601f1680156108065780820380516001836020036101000a031916815260200191505b509350505050602060405180830381600087803b15801561082657600080fd5b505af115801561083a573d6000803e3d6000fd5b505050506040513d602081101561085057600080fd5b505115156108a8576040805160e560020a62461bcd02815260206004820152601160248201527f49535355455f494e5f4556454e5446554c000000000000000000000000000000604482015290519081900360640190fd5b5060019695505050505050565b60008282028315806108d157508284828115156108ce57fe5b04145b151561069657fe5b6f025d0c71be47b0fa4ac82f660000000090565b6f076cd0dd28cc461a0856f22e4000000090565b6f49484afc8987318fca49ded7c100000090565b60008080831161092157fe5b828481151561092c57fe5b049050828481151561093a57fe5b06818402018414151561069657fe5b6f17539683937c350e881115585800000090565b6fe6392fa705581654a7198be6e460000090565b7002d34497ad3c590da96e284e6ae424000090565b60008030600160a060020a031663837929b66040518163ffffffff1660e060020a028152600401602060405180830381600087803b1580156109c757600080fd5b505af11580156109db573d6000803e3d6000fd5b505050506040513d60208110156109f157600080fd5b5051929150505600a165627a7a72305820d8835649e7004e1cf2f42e68eb328217303c3aabf7065ddac4b62f76b3fd25fd0029",
				"opcodes": "PUSH1 0x80 PUSH1 0x40 MSTORE CALLVALUE DUP1 ISZERO PUSH2 0x10 JUMPI PUSH1 0x0 DUP1 REVERT JUMPDEST POP PUSH2 0xA25 DUP1 PUSH2 0x20 PUSH1 0x0 CODECOPY PUSH1 0x0 RETURN STOP PUSH1 0x80 PUSH1 0x40 MSTORE PUSH1 0x4 CALLDATASIZE LT PUSH2 0x32 JUMPI PUSH4 0xFFFFFFFF PUSH1 0xE0 PUSH1 0x2 EXP PUSH1 0x0 CALLDATALOAD DIV AND PUSH4 0x318698A7 DUP2 EQ PUSH2 0x37 JUMPI DUP1 PUSH4 0xA49F27A5 EQ PUSH2 0x7C JUMPI JUMPDEST PUSH1 0x0 DUP1 REVERT JUMPDEST CALLVALUE DUP1 ISZERO PUSH2 0x43 JUMPI PUSH1 0x0 DUP1 REVERT JUMPDEST POP PUSH2 0x61 PUSH1 0x1 PUSH1 0xA0 PUSH1 0x2 EXP SUB PUSH1 0x4 CALLDATALOAD DUP2 AND SWAP1 PUSH1 0x24 CALLDATALOAD AND PUSH1 0x44 CALLDATALOAD PUSH2 0xA6 JUMP JUMPDEST PUSH1 0x40 DUP1 MLOAD SWAP3 ISZERO ISZERO DUP4 MSTORE PUSH1 0x20 DUP4 ADD SWAP2 SWAP1 SWAP2 MSTORE DUP1 MLOAD SWAP2 DUP3 SWAP1 SUB ADD SWAP1 RETURN JUMPDEST CALLVALUE DUP1 ISZERO PUSH2 0x88 JUMPI PUSH1 0x0 DUP1 REVERT JUMPDEST POP PUSH2 0x61 PUSH1 0x1 PUSH1 0xA0 PUSH1 0x2 EXP SUB PUSH1 0x4 CALLDATALOAD DUP2 AND SWAP1 PUSH1 0x24 CALLDATALOAD AND PUSH1 0x44 CALLDATALOAD PUSH2 0x3A3 JUMP JUMPDEST PUSH1 0x0 DUP1 PUSH1 0x0 DUP1 PUSH1 0x0 CALLER PUSH1 0x1 PUSH1 0xA0 PUSH1 0x2 EXP SUB AND ADDRESS PUSH1 0x1 PUSH1 0xA0 PUSH1 0x2 EXP SUB AND PUSH4 0x8DA5CB5B PUSH1 0x40 MLOAD DUP2 PUSH4 0xFFFFFFFF AND PUSH1 0xE0 PUSH1 0x2 EXP MUL DUP2 MSTORE PUSH1 0x4 ADD PUSH1 0x20 PUSH1 0x40 MLOAD DUP1 DUP4 SUB DUP2 PUSH1 0x0 DUP8 DUP1 EXTCODESIZE ISZERO DUP1 ISZERO PUSH2 0xF6 JUMPI PUSH1 0x0 DUP1 REVERT JUMPDEST POP GAS CALL ISZERO DUP1 ISZERO PUSH2 0x10A JUMPI RETURNDATASIZE PUSH1 0x0 DUP1 RETURNDATACOPY RETURNDATASIZE PUSH1 0x0 REVERT JUMPDEST POP POP POP POP PUSH1 0x40 MLOAD RETURNDATASIZE PUSH1 0x20 DUP2 LT ISZERO PUSH2 0x120 JUMPI PUSH1 0x0 DUP1 REVERT JUMPDEST POP MLOAD PUSH1 0x1 PUSH1 0xA0 PUSH1 0x2 EXP SUB AND EQ PUSH2 0x180 JUMPI PUSH1 0x40 DUP1 MLOAD PUSH1 0xE5 PUSH1 0x2 EXP PUSH3 0x461BCD MUL DUP2 MSTORE PUSH1 0x20 PUSH1 0x4 DUP3 ADD MSTORE PUSH1 0x10 PUSH1 0x24 DUP3 ADD MSTORE PUSH32 0x4641494C5F4F574E45525F434845434B00000000000000000000000000000000 PUSH1 0x44 DUP3 ADD MSTORE SWAP1 MLOAD SWAP1 DUP2 SWAP1 SUB PUSH1 0x64 ADD SWAP1 REVERT JUMPDEST ADDRESS PUSH1 0x1 PUSH1 0xA0 PUSH1 0x2 EXP SUB AND PUSH4 0xC112C713 PUSH1 0x40 MLOAD DUP2 PUSH4 0xFFFFFFFF AND PUSH1 0xE0 PUSH1 0x2 EXP MUL DUP2 MSTORE PUSH1 0x4 ADD PUSH1 0x20 PUSH1 0x40 MLOAD DUP1 DUP4 SUB DUP2 PUSH1 0x0 DUP8 DUP1 EXTCODESIZE ISZERO DUP1 ISZERO PUSH2 0x1BE JUMPI PUSH1 0x0 DUP1 REVERT JUMPDEST POP GAS CALL ISZERO DUP1 ISZERO PUSH2 0x1D2 JUMPI RETURNDATASIZE PUSH1 0x0 DUP1 RETURNDATACOPY RETURNDATASIZE PUSH1 0x0 REVERT JUMPDEST POP POP POP POP PUSH1 0x40 MLOAD RETURNDATASIZE PUSH1 0x20 DUP2 LT ISZERO PUSH2 0x1E8 JUMPI PUSH1 0x0 DUP1 REVERT JUMPDEST POP MLOAD PUSH1 0x40 DUP1 MLOAD PUSH32 0x2314D79C00000000000000000000000000000000000000000000000000000000 DUP2 MSTORE SWAP1 MLOAD PUSH1 0x1 PUSH1 0xA0 PUSH1 0x2 EXP SUB SWAP1 SWAP3 AND SWAP2 PUSH4 0x2314D79C SWAP2 PUSH1 0x4 DUP1 DUP3 ADD SWAP3 PUSH1 0x20 SWAP3 SWAP1 SWAP2 SWAP1 DUP3 SWAP1 SUB ADD DUP2 PUSH1 0x0 DUP8 DUP1 EXTCODESIZE ISZERO DUP1 ISZERO PUSH2 0x247 JUMPI PUSH1 0x0 DUP1 REVERT JUMPDEST POP GAS CALL ISZERO DUP1 ISZERO PUSH2 0x25B JUMPI RETURNDATASIZE PUSH1 0x0 DUP1 RETURNDATACOPY RETURNDATASIZE PUSH1 0x0 REVERT JUMPDEST POP POP POP POP PUSH1 0x40 MLOAD RETURNDATASIZE PUSH1 0x20 DUP2 LT ISZERO PUSH2 0x271 JUMPI PUSH1 0x0 DUP1 REVERT JUMPDEST POP MLOAD SWAP3 POP DUP6 ISZERO ISZERO PUSH2 0x281 JUMPI PUSH1 0x0 DUP1 REVERT JUMPDEST PUSH2 0x28C DUP4 DUP9 DUP9 PUSH2 0x3BD JUMP JUMPDEST SWAP1 SWAP3 POP SWAP1 POP PUSH1 0x1 DUP3 ISZERO ISZERO EQ ISZERO PUSH2 0x390 JUMPI PUSH2 0x2A7 DUP9 DUP9 DUP9 PUSH2 0x5B0 JUMP JUMPDEST ISZERO ISZERO PUSH2 0x323 JUMPI PUSH1 0x40 DUP1 MLOAD PUSH1 0xE5 PUSH1 0x2 EXP PUSH3 0x461BCD MUL DUP2 MSTORE PUSH1 0x20 PUSH1 0x4 DUP3 ADD MSTORE PUSH1 0x25 PUSH1 0x24 DUP3 ADD MSTORE PUSH32 0x5452414E534645525F4641494C5F4752475F5245515F5341544953464945445F PUSH1 0x44 DUP3 ADD MSTORE PUSH32 0x4552524F52000000000000000000000000000000000000000000000000000000 PUSH1 0x64 DUP3 ADD MSTORE SWAP1 MLOAD SWAP1 DUP2 SWAP1 SUB PUSH1 0x84 ADD SWAP1 REVERT JUMPDEST PUSH2 0x32E DUP9 DUP9 DUP9 PUSH2 0x69D JUMP JUMPDEST ISZERO ISZERO PUSH2 0x384 JUMPI PUSH1 0x40 DUP1 MLOAD PUSH1 0xE5 PUSH1 0x2 EXP PUSH3 0x461BCD MUL DUP2 MSTORE PUSH1 0x20 PUSH1 0x4 DUP3 ADD DUP2 SWAP1 MSTORE PUSH1 0x24 DUP3 ADD MSTORE PUSH32 0x4C4F475F4641494C5F4752475F5245515F5341544953464945445F4552524F52 PUSH1 0x44 DUP3 ADD MSTORE SWAP1 MLOAD SWAP1 DUP2 SWAP1 SUB PUSH1 0x64 ADD SWAP1 REVERT JUMPDEST PUSH1 0x1 DUP2 SWAP5 POP SWAP5 POP PUSH2 0x398 JUMP JUMPDEST PUSH1 0x0 DUP2 SWAP5 POP SWAP5 POP JUMPDEST POP POP POP SWAP4 POP SWAP4 SWAP2 POP POP JUMP JUMPDEST PUSH1 0x0 DUP1 PUSH2 0x3B1 DUP6 DUP6 DUP6 PUSH2 0x3BD JUMP JUMPDEST SWAP2 POP SWAP2 POP SWAP4 POP SWAP4 SWAP2 POP POP JUMP JUMPDEST PUSH1 0x0 DUP1 PUSH1 0x12 PUSH1 0x24 DUP3 DUP1 PUSH2 0x3D8 DUP8 PUSH8 0xDE0B6B3A7640000 PUSH2 0x8B5 JUMP JUMPDEST PUSH1 0x40 DUP1 MLOAD PUSH32 0x70A0823100000000000000000000000000000000000000000000000000000000 DUP2 MSTORE CALLER PUSH1 0x4 DUP3 ADD MSTORE SWAP1 MLOAD SWAP2 SWAP4 POP DUP6 DUP6 SUB PUSH1 0xA EXP SWAP2 PUSH1 0x1 PUSH1 0xA0 PUSH1 0x2 EXP SUB DUP13 AND SWAP2 PUSH4 0x70A08231 SWAP2 PUSH1 0x24 DUP1 DUP4 ADD SWAP3 PUSH1 0x20 SWAP3 SWAP2 SWAP1 DUP3 SWAP1 SUB ADD DUP2 PUSH1 0x0 DUP8 DUP1 EXTCODESIZE ISZERO DUP1 ISZERO PUSH2 0x443 JUMPI PUSH1 0x0 DUP1 REVERT JUMPDEST POP GAS CALL ISZERO DUP1 ISZERO PUSH2 0x457 JUMPI RETURNDATASIZE PUSH1 0x0 DUP1 RETURNDATACOPY RETURNDATASIZE PUSH1 0x0 REVERT JUMPDEST POP POP POP POP PUSH1 0x40 MLOAD RETURNDATASIZE PUSH1 0x20 DUP2 LT ISZERO PUSH2 0x46D JUMPI PUSH1 0x0 DUP1 REVERT JUMPDEST POP MLOAD MUL SWAP1 POP PUSH1 0x1 PUSH1 0xA0 PUSH1 0x2 EXP SUB DUP9 AND ISZERO PUSH2 0x48E JUMPI PUSH1 0x1 SWAP6 POP PUSH1 0x0 SWAP5 POP PUSH2 0x5A4 JUMP JUMPDEST PUSH2 0x496 PUSH2 0x8D9 JUMP JUMPDEST DUP3 LT ISZERO PUSH2 0x4AA JUMPI PUSH1 0x1 SWAP6 POP PUSH1 0x0 SWAP5 POP PUSH2 0x5A4 JUMP JUMPDEST PUSH2 0x4B2 PUSH2 0x8ED JUMP JUMPDEST DUP3 LT ISZERO PUSH2 0x4F9 JUMPI PUSH2 0x4C1 PUSH2 0x901 JUMP JUMPDEST DUP2 LT ISZERO PUSH2 0x4EB JUMPI PUSH1 0x0 SWAP6 POP PUSH2 0x4E4 DUP2 PUSH2 0x4D8 PUSH2 0x901 JUMP JUMPDEST SUB DUP6 DUP6 SUB PUSH1 0xA EXP PUSH2 0x915 JUMP JUMPDEST SWAP5 POP PUSH2 0x4F4 JUMP JUMPDEST PUSH1 0x1 SWAP6 POP PUSH1 0x0 SWAP5 POP JUMPDEST PUSH2 0x5A4 JUMP JUMPDEST PUSH2 0x501 PUSH2 0x949 JUMP JUMPDEST DUP3 LT ISZERO PUSH2 0x527 JUMPI PUSH2 0x510 PUSH2 0x95D JUMP JUMPDEST DUP2 LT ISZERO PUSH2 0x4EB JUMPI PUSH1 0x0 SWAP6 POP PUSH2 0x4E4 DUP2 PUSH2 0x4D8 PUSH2 0x95D JUMP JUMPDEST PUSH2 0x52F PUSH2 0x949 JUMP JUMPDEST DUP3 LT PUSH2 0x554 JUMPI PUSH2 0x53D PUSH2 0x971 JUMP JUMPDEST DUP2 LT ISZERO PUSH2 0x4EB JUMPI PUSH1 0x0 SWAP6 POP PUSH2 0x4E4 DUP2 PUSH2 0x4D8 PUSH2 0x971 JUMP JUMPDEST PUSH1 0x40 DUP1 MLOAD PUSH1 0xE5 PUSH1 0x2 EXP PUSH3 0x461BCD MUL DUP2 MSTORE PUSH1 0x20 PUSH1 0x4 DUP3 ADD MSTORE PUSH1 0x19 PUSH1 0x24 DUP3 ADD MSTORE PUSH32 0x554E4B4E4F574E5F4752475F4D494E494D554D5F4552524F5200000000000000 PUSH1 0x44 DUP3 ADD MSTORE SWAP1 MLOAD SWAP1 DUP2 SWAP1 SUB PUSH1 0x64 ADD SWAP1 REVERT JUMPDEST POP POP POP POP SWAP4 POP SWAP4 SWAP2 POP POP JUMP JUMPDEST PUSH1 0x0 PUSH1 0x1 PUSH1 0xA0 PUSH1 0x2 EXP SUB DUP4 AND ISZERO ISZERO PUSH2 0x602 JUMPI PUSH1 0x40 MLOAD PUSH1 0x1 PUSH1 0xA0 PUSH1 0x2 EXP SUB DUP6 AND SWAP1 DUP4 ISZERO PUSH2 0x8FC MUL SWAP1 DUP5 SWAP1 PUSH1 0x0 DUP2 DUP2 DUP2 DUP6 DUP9 DUP9 CALL SWAP4 POP POP POP POP ISZERO DUP1 ISZERO PUSH2 0x5F8 JUMPI RETURNDATASIZE PUSH1 0x0 DUP1 RETURNDATACOPY RETURNDATASIZE PUSH1 0x0 REVERT JUMPDEST POP PUSH1 0x1 SWAP1 POP PUSH2 0x696 JUMP JUMPDEST DUP3 PUSH1 0x1 PUSH1 0xA0 PUSH1 0x2 EXP SUB AND PUSH4 0xA9059CBB DUP6 DUP5 PUSH1 0x40 MLOAD DUP4 PUSH4 0xFFFFFFFF AND PUSH1 0xE0 PUSH1 0x2 EXP MUL DUP2 MSTORE PUSH1 0x4 ADD DUP1 DUP4 PUSH1 0x1 PUSH1 0xA0 PUSH1 0x2 EXP SUB AND PUSH1 0x1 PUSH1 0xA0 PUSH1 0x2 EXP SUB AND DUP2 MSTORE PUSH1 0x20 ADD DUP3 DUP2 MSTORE PUSH1 0x20 ADD SWAP3 POP POP POP PUSH1 0x20 PUSH1 0x40 MLOAD DUP1 DUP4 SUB DUP2 PUSH1 0x0 DUP8 DUP1 EXTCODESIZE ISZERO DUP1 ISZERO PUSH2 0x665 JUMPI PUSH1 0x0 DUP1 REVERT JUMPDEST POP GAS CALL ISZERO DUP1 ISZERO PUSH2 0x679 JUMPI RETURNDATASIZE PUSH1 0x0 DUP1 RETURNDATACOPY RETURNDATASIZE PUSH1 0x0 REVERT JUMPDEST POP POP POP POP PUSH1 0x40 MLOAD RETURNDATASIZE PUSH1 0x20 DUP2 LT ISZERO PUSH2 0x68F JUMPI PUSH1 0x0 DUP1 REVERT JUMPDEST POP PUSH1 0x1 SWAP2 POP POP JUMPDEST SWAP4 SWAP3 POP POP POP JUMP JUMPDEST PUSH1 0x0 DUP1 PUSH1 0x0 PUSH1 0x60 PUSH2 0x6AC PUSH2 0x986 JUMP JUMPDEST PUSH1 0x40 DUP1 MLOAD PUSH32 0x7472616E73666572546F53656C66437573746F647928616464726573732C6164 DUP2 MSTORE PUSH32 0x64726573732C75696E7432353629000000000000000000000000000000000000 PUSH1 0x20 DUP1 DUP4 ADD SWAP2 SWAP1 SWAP2 MSTORE DUP3 MLOAD SWAP2 DUP3 SWAP1 SUB PUSH1 0x2E ADD DUP3 KECCAK256 ADDRESS DUP4 DUP4 ADD MSTORE PUSH1 0x1 PUSH1 0xA0 PUSH1 0x2 EXP SUB DUP1 DUP14 AND DUP5 DUP7 ADD MSTORE DUP1 DUP13 AND PUSH1 0x60 DUP6 ADD MSTORE PUSH1 0x80 DUP1 DUP6 ADD DUP13 SWAP1 MSTORE DUP6 MLOAD DUP1 DUP7 SUB SWAP1 SWAP2 ADD DUP2 MSTORE PUSH1 0xA0 DUP6 ADD DUP1 DUP8 MSTORE PUSH32 0x587FEF5400000000000000000000000000000000000000000000000000000000 SWAP1 MSTORE PUSH32 0xFFFFFFFF00000000000000000000000000000000000000000000000000000000 DUP4 AND PUSH1 0xA4 DUP7 ADD SWAP1 DUP2 MSTORE PUSH1 0xC4 DUP7 ADD SWAP7 DUP8 MSTORE DUP2 MLOAD PUSH1 0xE4 DUP8 ADD MSTORE DUP2 MLOAD SWAP8 SWAP11 POP SWAP3 SWAP9 POP SWAP7 POP DUP9 AND SWAP5 PUSH4 0x587FEF54 SWAP5 DUP9 SWAP5 DUP9 SWAP5 SWAP2 SWAP3 PUSH2 0x104 SWAP1 SWAP2 ADD SWAP2 DUP6 ADD SWAP1 DUP1 DUP4 DUP4 PUSH1 0x0 JUMPDEST DUP4 DUP2 LT ISZERO PUSH2 0x7D9 JUMPI DUP2 DUP2 ADD MLOAD DUP4 DUP3 ADD MSTORE PUSH1 0x20 ADD PUSH2 0x7C1 JUMP JUMPDEST POP POP POP POP SWAP1 POP SWAP1 DUP2 ADD SWAP1 PUSH1 0x1F AND DUP1 ISZERO PUSH2 0x806 JUMPI DUP1 DUP3 SUB DUP1 MLOAD PUSH1 0x1 DUP4 PUSH1 0x20 SUB PUSH2 0x100 EXP SUB NOT AND DUP2 MSTORE PUSH1 0x20 ADD SWAP2 POP JUMPDEST POP SWAP4 POP POP POP POP PUSH1 0x20 PUSH1 0x40 MLOAD DUP1 DUP4 SUB DUP2 PUSH1 0x0 DUP8 DUP1 EXTCODESIZE ISZERO DUP1 ISZERO PUSH2 0x826 JUMPI PUSH1 0x0 DUP1 REVERT JUMPDEST POP GAS CALL ISZERO DUP1 ISZERO PUSH2 0x83A JUMPI RETURNDATASIZE PUSH1 0x0 DUP1 RETURNDATACOPY RETURNDATASIZE PUSH1 0x0 REVERT JUMPDEST POP POP POP POP PUSH1 0x40 MLOAD RETURNDATASIZE PUSH1 0x20 DUP2 LT ISZERO PUSH2 0x850 JUMPI PUSH1 0x0 DUP1 REVERT JUMPDEST POP MLOAD ISZERO ISZERO PUSH2 0x8A8 JUMPI PUSH1 0x40 DUP1 MLOAD PUSH1 0xE5 PUSH1 0x2 EXP PUSH3 0x461BCD MUL DUP2 MSTORE PUSH1 0x20 PUSH1 0x4 DUP3 ADD MSTORE PUSH1 0x11 PUSH1 0x24 DUP3 ADD MSTORE PUSH32 0x49535355455F494E5F4556454E5446554C000000000000000000000000000000 PUSH1 0x44 DUP3 ADD MSTORE SWAP1 MLOAD SWAP1 DUP2 SWAP1 SUB PUSH1 0x64 ADD SWAP1 REVERT JUMPDEST POP PUSH1 0x1 SWAP7 SWAP6 POP POP POP POP POP POP JUMP JUMPDEST PUSH1 0x0 DUP3 DUP3 MUL DUP4 ISZERO DUP1 PUSH2 0x8D1 JUMPI POP DUP3 DUP5 DUP3 DUP2 ISZERO ISZERO PUSH2 0x8CE JUMPI INVALID JUMPDEST DIV EQ JUMPDEST ISZERO ISZERO PUSH2 0x696 JUMPI INVALID JUMPDEST PUSH16 0x25D0C71BE47B0FA4AC82F6600000000 SWAP1 JUMP JUMPDEST PUSH16 0x76CD0DD28CC461A0856F22E40000000 SWAP1 JUMP JUMPDEST PUSH16 0x49484AFC8987318FCA49DED7C1000000 SWAP1 JUMP JUMPDEST PUSH1 0x0 DUP1 DUP1 DUP4 GT PUSH2 0x921 JUMPI INVALID JUMPDEST DUP3 DUP5 DUP2 ISZERO ISZERO PUSH2 0x92C JUMPI INVALID JUMPDEST DIV SWAP1 POP DUP3 DUP5 DUP2 ISZERO ISZERO PUSH2 0x93A JUMPI INVALID JUMPDEST MOD DUP2 DUP5 MUL ADD DUP5 EQ ISZERO ISZERO PUSH2 0x696 JUMPI INVALID JUMPDEST PUSH16 0x17539683937C350E8811155858000000 SWAP1 JUMP JUMPDEST PUSH16 0xE6392FA705581654A7198BE6E4600000 SWAP1 JUMP JUMPDEST PUSH17 0x2D34497AD3C590DA96E284E6AE4240000 SWAP1 JUMP JUMPDEST PUSH1 0x0 DUP1 ADDRESS PUSH1 0x1 PUSH1 0xA0 PUSH1 0x2 EXP SUB AND PUSH4 0x837929B6 PUSH1 0x40 MLOAD DUP2 PUSH4 0xFFFFFFFF AND PUSH1 0xE0 PUSH1 0x2 EXP MUL DUP2 MSTORE PUSH1 0x4 ADD PUSH1 0x20 PUSH1 0x40 MLOAD DUP1 DUP4 SUB DUP2 PUSH1 0x0 DUP8 DUP1 EXTCODESIZE ISZERO DUP1 ISZERO PUSH2 0x9C7 JUMPI PUSH1 0x0 DUP1 REVERT JUMPDEST POP GAS CALL ISZERO DUP1 ISZERO PUSH2 0x9DB JUMPI RETURNDATASIZE PUSH1 0x0 DUP1 RETURNDATACOPY RETURNDATASIZE PUSH1 0x0 REVERT JUMPDEST POP POP POP POP PUSH1 0x40 MLOAD RETURNDATASIZE PUSH1 0x20 DUP2 LT ISZERO PUSH2 0x9F1 JUMPI PUSH1 0x0 DUP1 REVERT JUMPDEST POP MLOAD SWAP3 SWAP2 POP POP JUMP STOP LOG1 PUSH6 0x627A7A723058 KECCAK256 0xd8 DUP4 JUMP 0x49 0xe7 STOP 0x4e SHR CALLCODE DELEGATECALL 0x2e PUSH9 0xEB328217303C3AABF7 MOD 0x5d 0xda 0xc4 0xb6 0x2f PUSH23 0xB3FD25FD00290000000000000000000000000000000000 "
			}
		}
	},
	"sourceTreeHashHex": "0xfbbc339a0247cf7aac59debb4c26ac928e7f4c9a1b209e62926658479b8f52dd",
	"compiler": {
		"name": "solc",
		"version": "0.4.25+commit.59dbf8f1",
		"settings": {
			"remappings": [],
			"optimizer": {
				"enabled": true,
				"runs": 200
			},
			"outputSelection": {
				"*": {
					"*": [
						"abi",
						"devdoc",
						"evm.bytecode.object",
						"evm.bytecode.sourceMap",
						"evm.deployedBytecode.object",
						"evm.deployedBytecode.sourceMap"
					]
				}
			}
		}
	},
	"chains": {}
}