{
	"schemaVersion": "2.0.0",
	"contractName": "Authority",
	"compilerOutput": {
		"abi": [
			{
				"constant": true,
				"inputs": [],
				"name": "getVaultEventful",
				"outputs": [
					{
						"name": "",
						"type": "address"
					}
				],
				"payable": false,
				"stateMutability": "view",
				"type": "function"
			},
			{
				"constant": false,
				"inputs": [
					{
						"name": "_new",
						"type": "address"
					}
				],
				"name": "setOwner",
				"outputs": [],
				"payable": false,
				"stateMutability": "nonpayable",
				"type": "function"
			},
			{
				"constant": false,
				"inputs": [
					{
						"name": "_vaultEventful",
						"type": "address"
					}
				],
				"name": "setVaultEventful",
				"outputs": [],
				"payable": false,
				"stateMutability": "nonpayable",
				"type": "function"
			},
			{
				"constant": true,
				"inputs": [
					{
						"name": "_authority",
						"type": "address"
					}
				],
				"name": "isAuthority",
				"outputs": [
					{
						"name": "",
						"type": "bool"
					}
				],
				"payable": false,
				"stateMutability": "view",
				"type": "function"
			},
			{
				"constant": true,
				"inputs": [],
				"name": "getDragoEventful",
				"outputs": [
					{
						"name": "",
						"type": "address"
					}
				],
				"payable": false,
				"stateMutability": "view",
				"type": "function"
			},
			{
				"constant": true,
				"inputs": [
					{
						"name": "_drago",
						"type": "address"
					}
				],
				"name": "isWhitelistedDrago",
				"outputs": [
					{
						"name": "",
						"type": "bool"
					}
				],
				"payable": false,
				"stateMutability": "view",
				"type": "function"
			},
			{
				"constant": true,
				"inputs": [
					{
						"name": "",
						"type": "address"
					}
				],
				"name": "accounts",
				"outputs": [
					{
						"name": "account",
						"type": "address"
					},
					{
						"name": "authorized",
						"type": "bool"
					}
				],
				"payable": false,
				"stateMutability": "view",
				"type": "function"
			},
			{
				"constant": false,
				"inputs": [
					{
						"name": "_registry",
						"type": "address"
					},
					{
						"name": "_isWhitelisted",
						"type": "bool"
					}
				],
				"name": "whitelistRegistry",
				"outputs": [],
				"payable": false,
				"stateMutability": "nonpayable",
				"type": "function"
			},
			{
				"constant": false,
				"inputs": [
					{
						"name": "_dragoEventful",
						"type": "address"
					}
				],
				"name": "setDragoEventful",
				"outputs": [],
				"payable": false,
				"stateMutability": "nonpayable",
				"type": "function"
			},
			{
				"constant": false,
				"inputs": [
					{
						"name": "_factory",
						"type": "address"
					},
					{
						"name": "_isWhitelisted",
						"type": "bool"
					}
				],
				"name": "whitelistFactory",
				"outputs": [],
				"payable": false,
				"stateMutability": "nonpayable",
				"type": "function"
			},
			{
				"constant": true,
				"inputs": [],
				"name": "getExchangesAuthority",
				"outputs": [
					{
						"name": "",
						"type": "address"
					}
				],
				"payable": false,
				"stateMutability": "view",
				"type": "function"
			},
			{
				"constant": false,
				"inputs": [
					{
						"name": "_navVerifier",
						"type": "address"
					}
				],
				"name": "setNavVerifier",
				"outputs": [],
				"payable": false,
				"stateMutability": "nonpayable",
				"type": "function"
			},
			{
				"constant": false,
				"inputs": [
					{
						"name": "_exchangesAuthority",
						"type": "address"
					}
				],
				"name": "setExchangesAuthority",
				"outputs": [],
				"payable": false,
				"stateMutability": "nonpayable",
				"type": "function"
			},
			{
				"constant": true,
				"inputs": [],
				"name": "owner",
				"outputs": [
					{
						"name": "",
						"type": "address"
					}
				],
				"payable": false,
				"stateMutability": "view",
				"type": "function"
			},
			{
				"constant": true,
				"inputs": [],
				"name": "blocks",
				"outputs": [
					{
						"name": "dragoEventful",
						"type": "address"
					},
					{
						"name": "vaultEventful",
						"type": "address"
					},
					{
						"name": "navVerifier",
						"type": "address"
					},
					{
						"name": "exchangesAuthority",
						"type": "address"
					},
					{
						"name": "casper",
						"type": "address"
					}
				],
				"payable": false,
				"stateMutability": "view",
				"type": "function"
			},
			{
				"constant": true,
				"inputs": [
					{
						"name": "_registry",
						"type": "address"
					}
				],
				"name": "isWhitelistedRegistry",
				"outputs": [
					{
						"name": "",
						"type": "bool"
					}
				],
				"payable": false,
				"stateMutability": "view",
				"type": "function"
			},
			{
				"constant": false,
				"inputs": [
					{
						"name": "_target",
						"type": "address"
					},
					{
						"name": "_isWhitelisted",
						"type": "bool"
					}
				],
				"name": "whitelistUser",
				"outputs": [],
				"payable": false,
				"stateMutability": "nonpayable",
				"type": "function"
			},
			{
				"constant": true,
				"inputs": [
					{
						"name": "_vault",
						"type": "address"
					}
				],
				"name": "isWhitelistedVault",
				"outputs": [
					{
						"name": "",
						"type": "bool"
					}
				],
				"payable": false,
				"stateMutability": "view",
				"type": "function"
			},
			{
				"constant": false,
				"inputs": [
					{
						"name": "_drago",
						"type": "address"
					},
					{
						"name": "_isWhitelisted",
						"type": "bool"
					}
				],
				"name": "whitelistDrago",
				"outputs": [],
				"payable": false,
				"stateMutability": "nonpayable",
				"type": "function"
			},
			{
				"constant": false,
				"inputs": [
					{
						"name": "_authority",
						"type": "address"
					},
					{
						"name": "_isWhitelisted",
						"type": "bool"
					}
				],
				"name": "setAuthority",
				"outputs": [],
				"payable": false,
				"stateMutability": "nonpayable",
				"type": "function"
			},
			{
				"constant": true,
				"inputs": [],
				"name": "getNavVerifier",
				"outputs": [
					{
						"name": "",
						"type": "address"
					}
				],
				"payable": false,
				"stateMutability": "view",
				"type": "function"
			},
			{
				"constant": false,
				"inputs": [
					{
						"name": "_whitelister",
						"type": "address"
					},
					{
						"name": "_isWhitelisted",
						"type": "bool"
					}
				],
				"name": "setWhitelister",
				"outputs": [],
				"payable": false,
				"stateMutability": "nonpayable",
				"type": "function"
			},
			{
				"constant": true,
				"inputs": [],
				"name": "types",
				"outputs": [
					{
						"name": "types",
						"type": "string"
					}
				],
				"payable": false,
				"stateMutability": "view",
				"type": "function"
			},
			{
				"constant": true,
				"inputs": [
					{
						"name": "_target",
						"type": "address"
					}
				],
				"name": "isWhitelistedUser",
				"outputs": [
					{
						"name": "",
						"type": "bool"
					}
				],
				"payable": false,
				"stateMutability": "view",
				"type": "function"
			},
			{
				"constant": true,
				"inputs": [
					{
						"name": "_factory",
						"type": "address"
					}
				],
				"name": "isWhitelistedFactory",
				"outputs": [
					{
						"name": "",
						"type": "bool"
					}
				],
				"payable": false,
				"stateMutability": "view",
				"type": "function"
			},
			{
				"constant": false,
				"inputs": [
					{
						"name": "_vault",
						"type": "address"
					},
					{
						"name": "_isWhitelisted",
						"type": "bool"
					}
				],
				"name": "whitelistVault",
				"outputs": [],
				"payable": false,
				"stateMutability": "nonpayable",
				"type": "function"
			},
			{
				"anonymous": false,
				"inputs": [
					{
						"indexed": true,
						"name": "authority",
						"type": "address"
					}
				],
				"name": "AuthoritySet",
				"type": "event"
			},
			{
				"anonymous": false,
				"inputs": [
					{
						"indexed": true,
						"name": "whitelister",
						"type": "address"
					}
				],
				"name": "WhitelisterSet",
				"type": "event"
			},
			{
				"anonymous": false,
				"inputs": [
					{
						"indexed": true,
						"name": "target",
						"type": "address"
					},
					{
						"indexed": false,
						"name": "approved",
						"type": "bool"
					}
				],
				"name": "WhitelistedUser",
				"type": "event"
			},
			{
				"anonymous": false,
				"inputs": [
					{
						"indexed": true,
						"name": "registry",
						"type": "address"
					},
					{
						"indexed": false,
						"name": "approved",
						"type": "bool"
					}
				],
				"name": "WhitelistedRegistry",
				"type": "event"
			},
			{
				"anonymous": false,
				"inputs": [
					{
						"indexed": true,
						"name": "factory",
						"type": "address"
					},
					{
						"indexed": false,
						"name": "approved",
						"type": "bool"
					}
				],
				"name": "WhitelistedFactory",
				"type": "event"
			},
			{
				"anonymous": false,
				"inputs": [
					{
						"indexed": true,
						"name": "vault",
						"type": "address"
					},
					{
						"indexed": false,
						"name": "approved",
						"type": "bool"
					}
				],
				"name": "WhitelistedVault",
				"type": "event"
			},
			{
				"anonymous": false,
				"inputs": [
					{
						"indexed": true,
						"name": "drago",
						"type": "address"
					},
					{
						"indexed": false,
						"name": "isWhitelisted",
						"type": "bool"
					}
				],
				"name": "WhitelistedDrago",
				"type": "event"
			},
			{
				"anonymous": false,
				"inputs": [
					{
						"indexed": true,
						"name": "dragoEventful",
						"type": "address"
					}
				],
				"name": "NewDragoEventful",
				"type": "event"
			},
			{
				"anonymous": false,
				"inputs": [
					{
						"indexed": true,
						"name": "vaultEventful",
						"type": "address"
					}
				],
				"name": "NewVaultEventful",
				"type": "event"
			},
			{
				"anonymous": false,
				"inputs": [
					{
						"indexed": true,
						"name": "navVerifier",
						"type": "address"
					}
				],
				"name": "NewNavVerifier",
				"type": "event"
			},
			{
				"anonymous": false,
				"inputs": [
					{
						"indexed": true,
						"name": "exchangesAuthority",
						"type": "address"
					}
				],
				"name": "NewExchangesAuthority",
				"type": "event"
			},
			{
				"anonymous": false,
				"inputs": [
					{
						"indexed": true,
						"name": "old",
						"type": "address"
					},
					{
						"indexed": true,
						"name": "current",
						"type": "address"
					}
				],
				"name": "NewOwner",
				"type": "event"
			}
		],
		"devdoc": {
			"author": "Gabriele Rigo - <gab@rigoblock.com>",
			"methods": {
				"getDragoEventful()": {
					"details": "Provides the address of the drago logs contract",
					"return": "Address of the drago logs contract"
				},
				"getExchangesAuthority()": {
					"details": "Provides the address of the exchangee authority",
					"return": "Address of the adapter"
				},
				"getNavVerifier()": {
					"details": "Provides the address of the nav verifier",
					"return": "Address of the verifier"
				},
				"getVaultEventful()": {
					"details": "Provides the address of the vault logs contract",
					"return": "Address of the vault logs contract"
				},
				"isAuthority(address)": {
					"details": "Provides whether an address is an authority",
					"params": {
						"_authority": "Address of the target authority"
					},
					"return": "Bool is whitelisted"
				},
				"isWhitelistedDrago(address)": {
					"details": "Provides whether a drago is whitelisted",
					"params": {
						"_drago": "Address of the target drago"
					},
					"return": "Bool is whitelisted"
				},
				"isWhitelistedFactory(address)": {
					"details": "Provides whether a factory is whitelisted",
					"params": {
						"_factory": "Address of the target factory"
					},
					"return": "Bool is whitelisted"
				},
				"isWhitelistedRegistry(address)": {
					"details": "Provides whether a registry is whitelisted",
					"params": {
						"_registry": "Address of the target registry"
					},
					"return": "Bool is whitelisted"
				},
				"isWhitelistedUser(address)": {
					"details": "Provides whether a user is whitelisted",
					"params": {
						"_target": "Address of the target user"
					},
					"return": "Bool is whitelisted"
				},
				"isWhitelistedVault(address)": {
					"details": "Provides whether a vault is whitelisted",
					"params": {
						"_vault": "Address of the target vault"
					},
					"return": "Bool is whitelisted"
				},
				"setAuthority(address,bool)": {
					"details": "Allows the owner to whitelist an authority",
					"params": {
						"_authority": "Address of the authority",
						"_isWhitelisted": "Bool whitelisted"
					}
				},
				"setDragoEventful(address)": {
					"details": "Allows the owner to set the drago eventful",
					"params": {
						"_dragoEventful": "Address of the logs contract"
					}
				},
				"setExchangesAuthority(address)": {
					"details": "Allows the owner to set the exchanges authority",
					"params": {
						"_exchangesAuthority": "Address of the exchanges authority"
					}
				},
				"setNavVerifier(address)": {
					"details": "Allows the owner to set the nav verifier",
					"params": {
						"_navVerifier": "Address of the verifier"
					}
				},
				"setVaultEventful(address)": {
					"details": "Allows the owner to set the vault eventful",
					"params": {
						"_vaultEventful": "Address of the vault logs contract"
					}
				},
				"setWhitelister(address,bool)": {
					"details": "Allows the owner to whitelist a whitelister",
					"params": {
						"_isWhitelisted": "Bool whitelisted",
						"_whitelister": "Address of the whitelister"
					}
				},
				"whitelistDrago(address,bool)": {
					"details": "Allows an admin to whitelist a drago",
					"params": {
						"_drago": "Address of the target drago",
						"_isWhitelisted": "Bool whitelisted"
					}
				},
				"whitelistFactory(address,bool)": {
					"details": "Allows an admin to whitelist a factory",
					"params": {
						"_factory": "Address of the target factory",
						"_isWhitelisted": "Bool whitelisted"
					}
				},
				"whitelistRegistry(address,bool)": {
					"details": "Allows an admin to whitelist a registry",
					"params": {
						"_isWhitelisted": "Bool whitelisted",
						"_registry": "Address of the target registry"
					}
				},
				"whitelistUser(address,bool)": {
					"details": "Allows a whitelister to whitelist a user",
					"params": {
						"_isWhitelisted": "Bool whitelisted",
						"_target": "Address of the target user"
					}
				},
				"whitelistVault(address,bool)": {
					"details": "Allows an admin to whitelist a vault",
					"params": {
						"_isWhitelisted": "Bool whitelisted",
						"_vault": "Address of the target vault"
					}
				}
			},
			"title": "Authority - Allows to set up the base rules of the protocol."
		},
		"evm": {
			"bytecode": {
				"linkReferences": {},
				"object": "0x608060405260008054600160a060020a03191633179055611258806100256000396000f3fe6080604052600436106101535763ffffffff7c0100000000000000000000000000000000000000000000000000000000600035041663088f47ee811461015857806313af4035146101895780631610ac4d146101be5780632330f247146101f157806326c7a0de14610238578063449389001461024d5780635e5c06e2146102805780636e571167146102d6578063770f434f146103115780637b9d4d261461034457806384987e831461037f57806389ad16fc146103945780638abba186146103c75780638da5cb5b146103fa578063967ff23e1461040f5780639e2de32d14610460578063a0ca3ee114610493578063a2ce2773146104ce578063ad562f4014610501578063b5f0d35c1461053c578063b74508d114610577578063c91b01491461058c578063ccbff979146105c7578063d88c271e14610651578063dcb7a3e014610460578063e6e66c6814610684575b600080fd5b34801561016457600080fd5b5061016d6106bf565b60408051600160a060020a039092168252519081900360200190f35b34801561019557600080fd5b506101bc600480360360208110156101ac57600080fd5b5035600160a060020a03166106ce565b005b3480156101ca57600080fd5b506101bc600480360360208110156101e157600080fd5b5035600160a060020a0316610748565b3480156101fd57600080fd5b506102246004803603602081101561021457600080fd5b5035600160a060020a03166107af565b604080519115158252519081900360200190f35b34801561024457600080fd5b5061016d6107e5565b34801561025957600080fd5b506102246004803603602081101561027057600080fd5b5035600160a060020a03166107f4565b34801561028c57600080fd5b506102b3600480360360208110156102a357600080fd5b5035600160a060020a0316610825565b60408051600160a060020a03909316835290151560208301528051918290030190f35b3480156102e257600080fd5b506101bc600480360360408110156102f957600080fd5b50600160a060020a038135169060200135151561084c565b34801561031d57600080fd5b506101bc6004803603602081101561033457600080fd5b5035600160a060020a0316610947565b34801561035057600080fd5b506101bc6004803603604081101561036757600080fd5b50600160a060020a03813516906020013515156109ae565b34801561038b57600080fd5b5061016d610ac5565b3480156103a057600080fd5b506101bc600480360360208110156103b757600080fd5b5035600160a060020a0316610ad4565b3480156103d357600080fd5b506101bc600480360360208110156103ea57600080fd5b5035600160a060020a0316610b3b565b34801561040657600080fd5b5061016d610ba2565b34801561041b57600080fd5b50610424610bb1565b60408051600160a060020a0396871681529486166020860152928516848401529084166060840152909216608082015290519081900360a00190f35b34801561046c57600080fd5b506102246004803603602081101561048357600080fd5b5035600160a060020a0316610bdc565b34801561049f57600080fd5b506101bc600480360360408110156104b657600080fd5b50600160a060020a0381351690602001351515610c10565b3480156104da57600080fd5b50610224600480360360208110156104f157600080fd5b5035600160a060020a0316610cf5565b34801561050d57600080fd5b506101bc6004803603604081101561052457600080fd5b50600160a060020a0381351690602001351515610d27565b34801561054857600080fd5b506101bc6004803603604081101561055f57600080fd5b50600160a060020a0381351690602001351515610e1c565b34801561058357600080fd5b5061016d610e41565b34801561059857600080fd5b506101bc600480360360408110156105af57600080fd5b50600160a060020a0381351690602001351515610e50565b3480156105d357600080fd5b506105dc610e71565b6040805160208082528351818301528351919283929083019185019080838360005b838110156106165781810151838201526020016105fe565b50505050905090810190601f1680156106435780820380516001836020036101000a031916815260200191505b509250505060405180910390f35b34801561065d57600080fd5b506102246004803603602081101561067457600080fd5b5035600160a060020a0316610f03565b34801561069057600080fd5b506101bc600480360360408110156106a757600080fd5b50600160a060020a0381351690602001351515610f36565b600254600160a060020a031690565b600054600160a060020a031633146106e557600080fd5b600160a060020a03811615156106fa57600080fd5b60008054600160a060020a031916600160a060020a0383811691821780845560405192939116917f70aea8d848e8a90fb7661b227dc522eb6395c3dac71b63cb59edd5c9899b23649190a350565b600054600160a060020a0316331461075f57600080fd5b60028054600160a060020a031916600160a060020a0383811691909117918290556040519116907f37d58d4deca971056abaac97f609a16f360952edc136fdf5a48f81cfaf80b6b090600090a250565b600160a060020a031660009081526009602090815260408083206001808552019091529020546601000000000000900460ff1690565b600154600160a060020a031690565b600160a060020a03166000908152600960209081526040808320600180855201909152902054610100900460ff1690565b600960205260009081526040902054600160a060020a0381169060a060020a900460ff1682565b600054600160a060020a031633148061086957506108693361102d565b151561087457600080fd5b600160a060020a038083166000818152600960209081526040808320805487151560a060020a810260a060020a60ff0219600160a060020a0319938416891716178355808652600192830185528386208054640100000000830264ff000000001990911617905583518086018552878152600880549485018155909652945160008051602061120d8339815191529092018054929097169116179094558351918252925191927fc433d92e44d10de63551410275cfea397c5b0c0a921dc8fb929d73c284ecb37992918290030190a25050565b600054600160a060020a0316331461095e57600080fd5b60018054600160a060020a031916600160a060020a0383811691909117918290556040519116907fdb21a20ff3dcd8554e0c246ba9b9c22c3b9c49bc2c0c08382d0934c863398ef490600090a250565b600054600160a060020a03163314806109cb57506109cb3361102d565b15156109d657600080fd5b600160a060020a038083166000818152600960209081526040808320805487151560a060020a810260a060020a60ff0219600160a060020a031993841689171617835580865260019283018552838620805464010000000090920264ff000000001990921691909117905582519384019092529382526008805494850181559092525160008051602061120d8339815191529092018054929093169116179055610a808282611059565b6040805182151581529051600160a060020a038416917f65bedaa378abbf394977612180c7726f9ed88d11f75847c5a609ded0afdbc9d3919081900360200190a25050565b600454600160a060020a031690565b600054600160a060020a03163314610aeb57600080fd5b60038054600160a060020a031916600160a060020a0383811691909117918290556040519116907f24db5e4c30ecd3d4b7c9093ade653cc9e9f6c80f3cd8d742f86659aacf22350a90600090a250565b600054600160a060020a03163314610b5257600080fd5b60048054600160a060020a031916600160a060020a0383811691909117918290556040519116907fe676e61cfcd862928829a8f35dc6398f19d20fd509648eb9c4299d9e1a8a839890600090a250565b600054600160a060020a031681565b600154600254600354600454600554600160a060020a03948516949384169392831692918216911685565b600160a060020a03166000908152600960209081526040808320600180855201909152902054640100000000900460ff1690565b610c193361102d565b1515610c2457600080fd5b600160a060020a038083166000818152600960209081526040808320805487151560a060020a810260a060020a60ff0219600160a060020a03199384168917161783558086526001928301855283862080546301000000830263ff0000001990911617905583518086018552878152600880549485018155909652945160008051602061120d8339815191529092018054929097169116179094558351918252925191927f79ece9769f2bf951b895b98f1611bef27aad2da0a868bc16a81e9d11ddfd4ff192918290030190a25050565b600160a060020a0316600090815260096020908152604080832060018085520190915290205462010000900460ff1690565b600054600160a060020a0316331480610d445750610d443361102d565b1515610d4f57600080fd5b600160a060020a038083166000818152600960209081526040808320805487151560a060020a810260a060020a60ff0219600160a060020a0319938416891716178355808652600192830185528386208054610100830261ff001990911617905583518086018552878152600880549485018155909652945160008051602061120d8339815191529092018054929097169116179094558351918252925191927ff89e34cb19e9c7d8c84fdaaafb2dce1db4b2e19031ff02be22622530dd80605b92918290030190a25050565b600054600160a060020a03163314610e3357600080fd5b610e3d8282611059565b5050565b600354600160a060020a031690565b600054600160a060020a03163314610e6757600080fd5b610e3d828261114e565b60078054604080516020601f60026000196101006001881615020190951694909404938401819004810282018101909252828152918391830182828015610ef95780601f10610ece57610100808354040283529160200191610ef9565b820191906000526020600020905b815481529060010190602001808311610edc57829003601f168201915b5050505050905081565b600160a060020a031660009081526009602090815260408083206001808552019091529020546301000000900460ff1690565b600054600160a060020a0316331480610f535750610f533361102d565b1515610f5e57600080fd5b600160a060020a038083166000818152600960209081526040808320805487151560a060020a810260a060020a60ff0219600160a060020a031993841689171617835580865260019283018552838620805462010000830262ff00001990911617905583518086018552878152600880549485018155909652945160008051602061120d8339815191529092018054929097169116179094558351918252925191927f535a127f1000c5fa3267e0a84f04d11295bf38e2ad4d65355edfc9718a661e6592918290030190a25050565b600160a060020a0316600090815260096020908152604080832060018085520190915290205460ff1690565b600160a060020a03821660008181526009602090815260408083208054600160a060020a03191690941760a060020a60ff02191660a060020a86151590810291909117855580845260019094019091529020805466ff000000000000191666010000000000009092029190911790556110d2828261114e565b60408051602081018252600160a060020a03848116808352600880546001810182556000918252935160008051602061120d8339815191529094018054600160a060020a031916949093169390931790915591517f17898fd7375ca5152626d6fdd4ceb2bce6cc033c9b61e254dd0087d5f8b474309190a25050565b600160a060020a038083166000818152600960209081526040808320805487151560a060020a810260a060020a60ff0219600160a060020a031993841689171617835580865260019283018552838620805460ff19169091179055825193840183528584526008805492830181558552925160008051602061120d833981519152909101805491909616921691909117909355915190917f0a9327c1e2b316c1e4412bc43a5bc2b0c629ecde4f1c9e21911d02ac8b3ad42d91a2505056fef3f7a9fe364faab93b216da50a3214154f22a0a2b415b23a84c8169e8b636ee3a165627a7a7230582064f4358c99bf418a637333a7973b2a7e861181a4f53d30703650b07713930a3d0029",
				"opcodes": "PUSH1 0x80 PUSH1 0x40 MSTORE PUSH1 0x0 DUP1 SLOAD PUSH1 0x1 PUSH1 0xA0 PUSH1 0x2 EXP SUB NOT AND CALLER OR SWAP1 SSTORE PUSH2 0x1258 DUP1 PUSH2 0x25 PUSH1 0x0 CODECOPY PUSH1 0x0 RETURN INVALID PUSH1 0x80 PUSH1 0x40 MSTORE PUSH1 0x4 CALLDATASIZE LT PUSH2 0x153 JUMPI PUSH4 0xFFFFFFFF PUSH29 0x100000000000000000000000000000000000000000000000000000000 PUSH1 0x0 CALLDATALOAD DIV AND PUSH4 0x88F47EE DUP2 EQ PUSH2 0x158 JUMPI DUP1 PUSH4 0x13AF4035 EQ PUSH2 0x189 JUMPI DUP1 PUSH4 0x1610AC4D EQ PUSH2 0x1BE JUMPI DUP1 PUSH4 0x2330F247 EQ PUSH2 0x1F1 JUMPI DUP1 PUSH4 0x26C7A0DE EQ PUSH2 0x238 JUMPI DUP1 PUSH4 0x44938900 EQ PUSH2 0x24D JUMPI DUP1 PUSH4 0x5E5C06E2 EQ PUSH2 0x280 JUMPI DUP1 PUSH4 0x6E571167 EQ PUSH2 0x2D6 JUMPI DUP1 PUSH4 0x770F434F EQ PUSH2 0x311 JUMPI DUP1 PUSH4 0x7B9D4D26 EQ PUSH2 0x344 JUMPI DUP1 PUSH4 0x84987E83 EQ PUSH2 0x37F JUMPI DUP1 PUSH4 0x89AD16FC EQ PUSH2 0x394 JUMPI DUP1 PUSH4 0x8ABBA186 EQ PUSH2 0x3C7 JUMPI DUP1 PUSH4 0x8DA5CB5B EQ PUSH2 0x3FA JUMPI DUP1 PUSH4 0x967FF23E EQ PUSH2 0x40F JUMPI DUP1 PUSH4 0x9E2DE32D EQ PUSH2 0x460 JUMPI DUP1 PUSH4 0xA0CA3EE1 EQ PUSH2 0x493 JUMPI DUP1 PUSH4 0xA2CE2773 EQ PUSH2 0x4CE JUMPI DUP1 PUSH4 0xAD562F40 EQ PUSH2 0x501 JUMPI DUP1 PUSH4 0xB5F0D35C EQ PUSH2 0x53C JUMPI DUP1 PUSH4 0xB74508D1 EQ PUSH2 0x577 JUMPI DUP1 PUSH4 0xC91B0149 EQ PUSH2 0x58C JUMPI DUP1 PUSH4 0xCCBFF979 EQ PUSH2 0x5C7 JUMPI DUP1 PUSH4 0xD88C271E EQ PUSH2 0x651 JUMPI DUP1 PUSH4 0xDCB7A3E0 EQ PUSH2 0x460 JUMPI DUP1 PUSH4 0xE6E66C68 EQ PUSH2 0x684 JUMPI JUMPDEST PUSH1 0x0 DUP1 REVERT JUMPDEST CALLVALUE DUP1 ISZERO PUSH2 0x164 JUMPI PUSH1 0x0 DUP1 REVERT JUMPDEST POP PUSH2 0x16D PUSH2 0x6BF JUMP JUMPDEST PUSH1 0x40 DUP1 MLOAD PUSH1 0x1 PUSH1 0xA0 PUSH1 0x2 EXP SUB SWAP1 SWAP3 AND DUP3 MSTORE MLOAD SWAP1 DUP2 SWAP1 SUB PUSH1 0x20 ADD SWAP1 RETURN JUMPDEST CALLVALUE DUP1 ISZERO PUSH2 0x195 JUMPI PUSH1 0x0 DUP1 REVERT JUMPDEST POP PUSH2 0x1BC PUSH1 0x4 DUP1 CALLDATASIZE SUB PUSH1 0x20 DUP2 LT ISZERO PUSH2 0x1AC JUMPI PUSH1 0x0 DUP1 REVERT JUMPDEST POP CALLDATALOAD PUSH1 0x1 PUSH1 0xA0 PUSH1 0x2 EXP SUB AND PUSH2 0x6CE JUMP JUMPDEST STOP JUMPDEST CALLVALUE DUP1 ISZERO PUSH2 0x1CA JUMPI PUSH1 0x0 DUP1 REVERT JUMPDEST POP PUSH2 0x1BC PUSH1 0x4 DUP1 CALLDATASIZE SUB PUSH1 0x20 DUP2 LT ISZERO PUSH2 0x1E1 JUMPI PUSH1 0x0 DUP1 REVERT JUMPDEST POP CALLDATALOAD PUSH1 0x1 PUSH1 0xA0 PUSH1 0x2 EXP SUB AND PUSH2 0x748 JUMP JUMPDEST CALLVALUE DUP1 ISZERO PUSH2 0x1FD JUMPI PUSH1 0x0 DUP1 REVERT JUMPDEST POP PUSH2 0x224 PUSH1 0x4 DUP1 CALLDATASIZE SUB PUSH1 0x20 DUP2 LT ISZERO PUSH2 0x214 JUMPI PUSH1 0x0 DUP1 REVERT JUMPDEST POP CALLDATALOAD PUSH1 0x1 PUSH1 0xA0 PUSH1 0x2 EXP SUB AND PUSH2 0x7AF JUMP JUMPDEST PUSH1 0x40 DUP1 MLOAD SWAP2 ISZERO ISZERO DUP3 MSTORE MLOAD SWAP1 DUP2 SWAP1 SUB PUSH1 0x20 ADD SWAP1 RETURN JUMPDEST CALLVALUE DUP1 ISZERO PUSH2 0x244 JUMPI PUSH1 0x0 DUP1 REVERT JUMPDEST POP PUSH2 0x16D PUSH2 0x7E5 JUMP JUMPDEST CALLVALUE DUP1 ISZERO PUSH2 0x259 JUMPI PUSH1 0x0 DUP1 REVERT JUMPDEST POP PUSH2 0x224 PUSH1 0x4 DUP1 CALLDATASIZE SUB PUSH1 0x20 DUP2 LT ISZERO PUSH2 0x270 JUMPI PUSH1 0x0 DUP1 REVERT JUMPDEST POP CALLDATALOAD PUSH1 0x1 PUSH1 0xA0 PUSH1 0x2 EXP SUB AND PUSH2 0x7F4 JUMP JUMPDEST CALLVALUE DUP1 ISZERO PUSH2 0x28C JUMPI PUSH1 0x0 DUP1 REVERT JUMPDEST POP PUSH2 0x2B3 PUSH1 0x4 DUP1 CALLDATASIZE SUB PUSH1 0x20 DUP2 LT ISZERO PUSH2 0x2A3 JUMPI PUSH1 0x0 DUP1 REVERT JUMPDEST POP CALLDATALOAD PUSH1 0x1 PUSH1 0xA0 PUSH1 0x2 EXP SUB AND PUSH2 0x825 JUMP JUMPDEST PUSH1 0x40 DUP1 MLOAD PUSH1 0x1 PUSH1 0xA0 PUSH1 0x2 EXP SUB SWAP1 SWAP4 AND DUP4 MSTORE SWAP1 ISZERO ISZERO PUSH1 0x20 DUP4 ADD MSTORE DUP1 MLOAD SWAP2 DUP3 SWAP1 SUB ADD SWAP1 RETURN JUMPDEST CALLVALUE DUP1 ISZERO PUSH2 0x2E2 JUMPI PUSH1 0x0 DUP1 REVERT JUMPDEST POP PUSH2 0x1BC PUSH1 0x4 DUP1 CALLDATASIZE SUB PUSH1 0x40 DUP2 LT ISZERO PUSH2 0x2F9 JUMPI PUSH1 0x0 DUP1 REVERT JUMPDEST POP PUSH1 0x1 PUSH1 0xA0 PUSH1 0x2 EXP SUB DUP2 CALLDATALOAD AND SWAP1 PUSH1 0x20 ADD CALLDATALOAD ISZERO ISZERO PUSH2 0x84C JUMP JUMPDEST CALLVALUE DUP1 ISZERO PUSH2 0x31D JUMPI PUSH1 0x0 DUP1 REVERT JUMPDEST POP PUSH2 0x1BC PUSH1 0x4 DUP1 CALLDATASIZE SUB PUSH1 0x20 DUP2 LT ISZERO PUSH2 0x334 JUMPI PUSH1 0x0 DUP1 REVERT JUMPDEST POP CALLDATALOAD PUSH1 0x1 PUSH1 0xA0 PUSH1 0x2 EXP SUB AND PUSH2 0x947 JUMP JUMPDEST CALLVALUE DUP1 ISZERO PUSH2 0x350 JUMPI PUSH1 0x0 DUP1 REVERT JUMPDEST POP PUSH2 0x1BC PUSH1 0x4 DUP1 CALLDATASIZE SUB PUSH1 0x40 DUP2 LT ISZERO PUSH2 0x367 JUMPI PUSH1 0x0 DUP1 REVERT JUMPDEST POP PUSH1 0x1 PUSH1 0xA0 PUSH1 0x2 EXP SUB DUP2 CALLDATALOAD AND SWAP1 PUSH1 0x20 ADD CALLDATALOAD ISZERO ISZERO PUSH2 0x9AE JUMP JUMPDEST CALLVALUE DUP1 ISZERO PUSH2 0x38B JUMPI PUSH1 0x0 DUP1 REVERT JUMPDEST POP PUSH2 0x16D PUSH2 0xAC5 JUMP JUMPDEST CALLVALUE DUP1 ISZERO PUSH2 0x3A0 JUMPI PUSH1 0x0 DUP1 REVERT JUMPDEST POP PUSH2 0x1BC PUSH1 0x4 DUP1 CALLDATASIZE SUB PUSH1 0x20 DUP2 LT ISZERO PUSH2 0x3B7 JUMPI PUSH1 0x0 DUP1 REVERT JUMPDEST POP CALLDATALOAD PUSH1 0x1 PUSH1 0xA0 PUSH1 0x2 EXP SUB AND PUSH2 0xAD4 JUMP JUMPDEST CALLVALUE DUP1 ISZERO PUSH2 0x3D3 JUMPI PUSH1 0x0 DUP1 REVERT JUMPDEST POP PUSH2 0x1BC PUSH1 0x4 DUP1 CALLDATASIZE SUB PUSH1 0x20 DUP2 LT ISZERO PUSH2 0x3EA JUMPI PUSH1 0x0 DUP1 REVERT JUMPDEST POP CALLDATALOAD PUSH1 0x1 PUSH1 0xA0 PUSH1 0x2 EXP SUB AND PUSH2 0xB3B JUMP JUMPDEST CALLVALUE DUP1 ISZERO PUSH2 0x406 JUMPI PUSH1 0x0 DUP1 REVERT JUMPDEST POP PUSH2 0x16D PUSH2 0xBA2 JUMP JUMPDEST CALLVALUE DUP1 ISZERO PUSH2 0x41B JUMPI PUSH1 0x0 DUP1 REVERT JUMPDEST POP PUSH2 0x424 PUSH2 0xBB1 JUMP JUMPDEST PUSH1 0x40 DUP1 MLOAD PUSH1 0x1 PUSH1 0xA0 PUSH1 0x2 EXP SUB SWAP7 DUP8 AND DUP2 MSTORE SWAP5 DUP7 AND PUSH1 0x20 DUP7 ADD MSTORE SWAP3 DUP6 AND DUP5 DUP5 ADD MSTORE SWAP1 DUP5 AND PUSH1 0x60 DUP5 ADD MSTORE SWAP1 SWAP3 AND PUSH1 0x80 DUP3 ADD MSTORE SWAP1 MLOAD SWAP1 DUP2 SWAP1 SUB PUSH1 0xA0 ADD SWAP1 RETURN JUMPDEST CALLVALUE DUP1 ISZERO PUSH2 0x46C JUMPI PUSH1 0x0 DUP1 REVERT JUMPDEST POP PUSH2 0x224 PUSH1 0x4 DUP1 CALLDATASIZE SUB PUSH1 0x20 DUP2 LT ISZERO PUSH2 0x483 JUMPI PUSH1 0x0 DUP1 REVERT JUMPDEST POP CALLDATALOAD PUSH1 0x1 PUSH1 0xA0 PUSH1 0x2 EXP SUB AND PUSH2 0xBDC JUMP JUMPDEST CALLVALUE DUP1 ISZERO PUSH2 0x49F JUMPI PUSH1 0x0 DUP1 REVERT JUMPDEST POP PUSH2 0x1BC PUSH1 0x4 DUP1 CALLDATASIZE SUB PUSH1 0x40 DUP2 LT ISZERO PUSH2 0x4B6 JUMPI PUSH1 0x0 DUP1 REVERT JUMPDEST POP PUSH1 0x1 PUSH1 0xA0 PUSH1 0x2 EXP SUB DUP2 CALLDATALOAD AND SWAP1 PUSH1 0x20 ADD CALLDATALOAD ISZERO ISZERO PUSH2 0xC10 JUMP JUMPDEST CALLVALUE DUP1 ISZERO PUSH2 0x4DA JUMPI PUSH1 0x0 DUP1 REVERT JUMPDEST POP PUSH2 0x224 PUSH1 0x4 DUP1 CALLDATASIZE SUB PUSH1 0x20 DUP2 LT ISZERO PUSH2 0x4F1 JUMPI PUSH1 0x0 DUP1 REVERT JUMPDEST POP CALLDATALOAD PUSH1 0x1 PUSH1 0xA0 PUSH1 0x2 EXP SUB AND PUSH2 0xCF5 JUMP JUMPDEST CALLVALUE DUP1 ISZERO PUSH2 0x50D JUMPI PUSH1 0x0 DUP1 REVERT JUMPDEST POP PUSH2 0x1BC PUSH1 0x4 DUP1 CALLDATASIZE SUB PUSH1 0x40 DUP2 LT ISZERO PUSH2 0x524 JUMPI PUSH1 0x0 DUP1 REVERT JUMPDEST POP PUSH1 0x1 PUSH1 0xA0 PUSH1 0x2 EXP SUB DUP2 CALLDATALOAD AND SWAP1 PUSH1 0x20 ADD CALLDATALOAD ISZERO ISZERO PUSH2 0xD27 JUMP JUMPDEST CALLVALUE DUP1 ISZERO PUSH2 0x548 JUMPI PUSH1 0x0 DUP1 REVERT JUMPDEST POP PUSH2 0x1BC PUSH1 0x4 DUP1 CALLDATASIZE SUB PUSH1 0x40 DUP2 LT ISZERO PUSH2 0x55F JUMPI PUSH1 0x0 DUP1 REVERT JUMPDEST POP PUSH1 0x1 PUSH1 0xA0 PUSH1 0x2 EXP SUB DUP2 CALLDATALOAD AND SWAP1 PUSH1 0x20 ADD CALLDATALOAD ISZERO ISZERO PUSH2 0xE1C JUMP JUMPDEST CALLVALUE DUP1 ISZERO PUSH2 0x583 JUMPI PUSH1 0x0 DUP1 REVERT JUMPDEST POP PUSH2 0x16D PUSH2 0xE41 JUMP JUMPDEST CALLVALUE DUP1 ISZERO PUSH2 0x598 JUMPI PUSH1 0x0 DUP1 REVERT JUMPDEST POP PUSH2 0x1BC PUSH1 0x4 DUP1 CALLDATASIZE SUB PUSH1 0x40 DUP2 LT ISZERO PUSH2 0x5AF JUMPI PUSH1 0x0 DUP1 REVERT JUMPDEST POP PUSH1 0x1 PUSH1 0xA0 PUSH1 0x2 EXP SUB DUP2 CALLDATALOAD AND SWAP1 PUSH1 0x20 ADD CALLDATALOAD ISZERO ISZERO PUSH2 0xE50 JUMP JUMPDEST CALLVALUE DUP1 ISZERO PUSH2 0x5D3 JUMPI PUSH1 0x0 DUP1 REVERT JUMPDEST POP PUSH2 0x5DC PUSH2 0xE71 JUMP JUMPDEST PUSH1 0x40 DUP1 MLOAD PUSH1 0x20 DUP1 DUP3 MSTORE DUP4 MLOAD DUP2 DUP4 ADD MSTORE DUP4 MLOAD SWAP2 SWAP3 DUP4 SWAP3 SWAP1 DUP4 ADD SWAP2 DUP6 ADD SWAP1 DUP1 DUP4 DUP4 PUSH1 0x0 JUMPDEST DUP4 DUP2 LT ISZERO PUSH2 0x616 JUMPI DUP2 DUP2 ADD MLOAD DUP4 DUP3 ADD MSTORE PUSH1 0x20 ADD PUSH2 0x5FE JUMP JUMPDEST POP POP POP POP SWAP1 POP SWAP1 DUP2 ADD SWAP1 PUSH1 0x1F AND DUP1 ISZERO PUSH2 0x643 JUMPI DUP1 DUP3 SUB DUP1 MLOAD PUSH1 0x1 DUP4 PUSH1 0x20 SUB PUSH2 0x100 EXP SUB NOT AND DUP2 MSTORE PUSH1 0x20 ADD SWAP2 POP JUMPDEST POP SWAP3 POP POP POP PUSH1 0x40 MLOAD DUP1 SWAP2 SUB SWAP1 RETURN JUMPDEST CALLVALUE DUP1 ISZERO PUSH2 0x65D JUMPI PUSH1 0x0 DUP1 REVERT JUMPDEST POP PUSH2 0x224 PUSH1 0x4 DUP1 CALLDATASIZE SUB PUSH1 0x20 DUP2 LT ISZERO PUSH2 0x674 JUMPI PUSH1 0x0 DUP1 REVERT JUMPDEST POP CALLDATALOAD PUSH1 0x1 PUSH1 0xA0 PUSH1 0x2 EXP SUB AND PUSH2 0xF03 JUMP JUMPDEST CALLVALUE DUP1 ISZERO PUSH2 0x690 JUMPI PUSH1 0x0 DUP1 REVERT JUMPDEST POP PUSH2 0x1BC PUSH1 0x4 DUP1 CALLDATASIZE SUB PUSH1 0x40 DUP2 LT ISZERO PUSH2 0x6A7 JUMPI PUSH1 0x0 DUP1 REVERT JUMPDEST POP PUSH1 0x1 PUSH1 0xA0 PUSH1 0x2 EXP SUB DUP2 CALLDATALOAD AND SWAP1 PUSH1 0x20 ADD CALLDATALOAD ISZERO ISZERO PUSH2 0xF36 JUMP JUMPDEST PUSH1 0x2 SLOAD PUSH1 0x1 PUSH1 0xA0 PUSH1 0x2 EXP SUB AND SWAP1 JUMP JUMPDEST PUSH1 0x0 SLOAD PUSH1 0x1 PUSH1 0xA0 PUSH1 0x2 EXP SUB AND CALLER EQ PUSH2 0x6E5 JUMPI PUSH1 0x0 DUP1 REVERT JUMPDEST PUSH1 0x1 PUSH1 0xA0 PUSH1 0x2 EXP SUB DUP2 AND ISZERO ISZERO PUSH2 0x6FA JUMPI PUSH1 0x0 DUP1 REVERT JUMPDEST PUSH1 0x0 DUP1 SLOAD PUSH1 0x1 PUSH1 0xA0 PUSH1 0x2 EXP SUB NOT AND PUSH1 0x1 PUSH1 0xA0 PUSH1 0x2 EXP SUB DUP4 DUP2 AND SWAP2 DUP3 OR DUP1 DUP5 SSTORE PUSH1 0x40 MLOAD SWAP3 SWAP4 SWAP2 AND SWAP2 PUSH32 0x70AEA8D848E8A90FB7661B227DC522EB6395C3DAC71B63CB59EDD5C9899B2364 SWAP2 SWAP1 LOG3 POP JUMP JUMPDEST PUSH1 0x0 SLOAD PUSH1 0x1 PUSH1 0xA0 PUSH1 0x2 EXP SUB AND CALLER EQ PUSH2 0x75F JUMPI PUSH1 0x0 DUP1 REVERT JUMPDEST PUSH1 0x2 DUP1 SLOAD PUSH1 0x1 PUSH1 0xA0 PUSH1 0x2 EXP SUB NOT AND PUSH1 0x1 PUSH1 0xA0 PUSH1 0x2 EXP SUB DUP4 DUP2 AND SWAP2 SWAP1 SWAP2 OR SWAP2 DUP3 SWAP1 SSTORE PUSH1 0x40 MLOAD SWAP2 AND SWAP1 PUSH32 0x37D58D4DECA971056ABAAC97F609A16F360952EDC136FDF5A48F81CFAF80B6B0 SWAP1 PUSH1 0x0 SWAP1 LOG2 POP JUMP JUMPDEST PUSH1 0x1 PUSH1 0xA0 PUSH1 0x2 EXP SUB AND PUSH1 0x0 SWAP1 DUP2 MSTORE PUSH1 0x9 PUSH1 0x20 SWAP1 DUP2 MSTORE PUSH1 0x40 DUP1 DUP4 KECCAK256 PUSH1 0x1 DUP1 DUP6 MSTORE ADD SWAP1 SWAP2 MSTORE SWAP1 KECCAK256 SLOAD PUSH7 0x1000000000000 SWAP1 DIV PUSH1 0xFF AND SWAP1 JUMP JUMPDEST PUSH1 0x1 SLOAD PUSH1 0x1 PUSH1 0xA0 PUSH1 0x2 EXP SUB AND SWAP1 JUMP JUMPDEST PUSH1 0x1 PUSH1 0xA0 PUSH1 0x2 EXP SUB AND PUSH1 0x0 SWAP1 DUP2 MSTORE PUSH1 0x9 PUSH1 0x20 SWAP1 DUP2 MSTORE PUSH1 0x40 DUP1 DUP4 KECCAK256 PUSH1 0x1 DUP1 DUP6 MSTORE ADD SWAP1 SWAP2 MSTORE SWAP1 KECCAK256 SLOAD PUSH2 0x100 SWAP1 DIV PUSH1 0xFF AND SWAP1 JUMP JUMPDEST PUSH1 0x9 PUSH1 0x20 MSTORE PUSH1 0x0 SWAP1 DUP2 MSTORE PUSH1 0x40 SWAP1 KECCAK256 SLOAD PUSH1 0x1 PUSH1 0xA0 PUSH1 0x2 EXP SUB DUP2 AND SWAP1 PUSH1 0xA0 PUSH1 0x2 EXP SWAP1 DIV PUSH1 0xFF AND DUP3 JUMP JUMPDEST PUSH1 0x0 SLOAD PUSH1 0x1 PUSH1 0xA0 PUSH1 0x2 EXP SUB AND CALLER EQ DUP1 PUSH2 0x869 JUMPI POP PUSH2 0x869 CALLER PUSH2 0x102D JUMP JUMPDEST ISZERO ISZERO PUSH2 0x874 JUMPI PUSH1 0x0 DUP1 REVERT JUMPDEST PUSH1 0x1 PUSH1 0xA0 PUSH1 0x2 EXP SUB DUP1 DUP4 AND PUSH1 0x0 DUP2 DUP2 MSTORE PUSH1 0x9 PUSH1 0x20 SWAP1 DUP2 MSTORE PUSH1 0x40 DUP1 DUP4 KECCAK256 DUP1 SLOAD DUP8 ISZERO ISZERO PUSH1 0xA0 PUSH1 0x2 EXP DUP2 MUL PUSH1 0xA0 PUSH1 0x2 EXP PUSH1 0xFF MUL NOT PUSH1 0x1 PUSH1 0xA0 PUSH1 0x2 EXP SUB NOT SWAP4 DUP5 AND DUP10 OR AND OR DUP4 SSTORE DUP1 DUP7 MSTORE PUSH1 0x1 SWAP3 DUP4 ADD DUP6 MSTORE DUP4 DUP7 KECCAK256 DUP1 SLOAD PUSH5 0x100000000 DUP4 MUL PUSH5 0xFF00000000 NOT SWAP1 SWAP2 AND OR SWAP1 SSTORE DUP4 MLOAD DUP1 DUP7 ADD DUP6 MSTORE DUP8 DUP2 MSTORE PUSH1 0x8 DUP1 SLOAD SWAP5 DUP6 ADD DUP2 SSTORE SWAP1 SWAP7 MSTORE SWAP5 MLOAD PUSH1 0x0 DUP1 MLOAD PUSH1 0x20 PUSH2 0x120D DUP4 CODECOPY DUP2 MLOAD SWAP2 MSTORE SWAP1 SWAP3 ADD DUP1 SLOAD SWAP3 SWAP1 SWAP8 AND SWAP2 AND OR SWAP1 SWAP5 SSTORE DUP4 MLOAD SWAP2 DUP3 MSTORE SWAP3 MLOAD SWAP2 SWAP3 PUSH32 0xC433D92E44D10DE63551410275CFEA397C5B0C0A921DC8FB929D73C284ECB379 SWAP3 SWAP2 DUP3 SWAP1 SUB ADD SWAP1 LOG2 POP POP JUMP JUMPDEST PUSH1 0x0 SLOAD PUSH1 0x1 PUSH1 0xA0 PUSH1 0x2 EXP SUB AND CALLER EQ PUSH2 0x95E JUMPI PUSH1 0x0 DUP1 REVERT JUMPDEST PUSH1 0x1 DUP1 SLOAD PUSH1 0x1 PUSH1 0xA0 PUSH1 0x2 EXP SUB NOT AND PUSH1 0x1 PUSH1 0xA0 PUSH1 0x2 EXP SUB DUP4 DUP2 AND SWAP2 SWAP1 SWAP2 OR SWAP2 DUP3 SWAP1 SSTORE PUSH1 0x40 MLOAD SWAP2 AND SWAP1 PUSH32 0xDB21A20FF3DCD8554E0C246BA9B9C22C3B9C49BC2C0C08382D0934C863398EF4 SWAP1 PUSH1 0x0 SWAP1 LOG2 POP JUMP JUMPDEST PUSH1 0x0 SLOAD PUSH1 0x1 PUSH1 0xA0 PUSH1 0x2 EXP SUB AND CALLER EQ DUP1 PUSH2 0x9CB JUMPI POP PUSH2 0x9CB CALLER PUSH2 0x102D JUMP JUMPDEST ISZERO ISZERO PUSH2 0x9D6 JUMPI PUSH1 0x0 DUP1 REVERT JUMPDEST PUSH1 0x1 PUSH1 0xA0 PUSH1 0x2 EXP SUB DUP1 DUP4 AND PUSH1 0x0 DUP2 DUP2 MSTORE PUSH1 0x9 PUSH1 0x20 SWAP1 DUP2 MSTORE PUSH1 0x40 DUP1 DUP4 KECCAK256 DUP1 SLOAD DUP8 ISZERO ISZERO PUSH1 0xA0 PUSH1 0x2 EXP DUP2 MUL PUSH1 0xA0 PUSH1 0x2 EXP PUSH1 0xFF MUL NOT PUSH1 0x1 PUSH1 0xA0 PUSH1 0x2 EXP SUB NOT SWAP4 DUP5 AND DUP10 OR AND OR DUP4 SSTORE DUP1 DUP7 MSTORE PUSH1 0x1 SWAP3 DUP4 ADD DUP6 MSTORE DUP4 DUP7 KECCAK256 DUP1 SLOAD PUSH5 0x100000000 SWAP1 SWAP3 MUL PUSH5 0xFF00000000 NOT SWAP1 SWAP3 AND SWAP2 SWAP1 SWAP2 OR SWAP1 SSTORE DUP3 MLOAD SWAP4 DUP5 ADD SWAP1 SWAP3 MSTORE SWAP4 DUP3 MSTORE PUSH1 0x8 DUP1 SLOAD SWAP5 DUP6 ADD DUP2 SSTORE SWAP1 SWAP3 MSTORE MLOAD PUSH1 0x0 DUP1 MLOAD PUSH1 0x20 PUSH2 0x120D DUP4 CODECOPY DUP2 MLOAD SWAP2 MSTORE SWAP1 SWAP3 ADD DUP1 SLOAD SWAP3 SWAP1 SWAP4 AND SWAP2 AND OR SWAP1 SSTORE PUSH2 0xA80 DUP3 DUP3 PUSH2 0x1059 JUMP JUMPDEST PUSH1 0x40 DUP1 MLOAD DUP3 ISZERO ISZERO DUP2 MSTORE SWAP1 MLOAD PUSH1 0x1 PUSH1 0xA0 PUSH1 0x2 EXP SUB DUP5 AND SWAP2 PUSH32 0x65BEDAA378ABBF394977612180C7726F9ED88D11F75847C5A609DED0AFDBC9D3 SWAP2 SWAP1 DUP2 SWAP1 SUB PUSH1 0x20 ADD SWAP1 LOG2 POP POP JUMP JUMPDEST PUSH1 0x4 SLOAD PUSH1 0x1 PUSH1 0xA0 PUSH1 0x2 EXP SUB AND SWAP1 JUMP JUMPDEST PUSH1 0x0 SLOAD PUSH1 0x1 PUSH1 0xA0 PUSH1 0x2 EXP SUB AND CALLER EQ PUSH2 0xAEB JUMPI PUSH1 0x0 DUP1 REVERT JUMPDEST PUSH1 0x3 DUP1 SLOAD PUSH1 0x1 PUSH1 0xA0 PUSH1 0x2 EXP SUB NOT AND PUSH1 0x1 PUSH1 0xA0 PUSH1 0x2 EXP SUB DUP4 DUP2 AND SWAP2 SWAP1 SWAP2 OR SWAP2 DUP3 SWAP1 SSTORE PUSH1 0x40 MLOAD SWAP2 AND SWAP1 PUSH32 0x24DB5E4C30ECD3D4B7C9093ADE653CC9E9F6C80F3CD8D742F86659AACF22350A SWAP1 PUSH1 0x0 SWAP1 LOG2 POP JUMP JUMPDEST PUSH1 0x0 SLOAD PUSH1 0x1 PUSH1 0xA0 PUSH1 0x2 EXP SUB AND CALLER EQ PUSH2 0xB52 JUMPI PUSH1 0x0 DUP1 REVERT JUMPDEST PUSH1 0x4 DUP1 SLOAD PUSH1 0x1 PUSH1 0xA0 PUSH1 0x2 EXP SUB NOT AND PUSH1 0x1 PUSH1 0xA0 PUSH1 0x2 EXP SUB DUP4 DUP2 AND SWAP2 SWAP1 SWAP2 OR SWAP2 DUP3 SWAP1 SSTORE PUSH1 0x40 MLOAD SWAP2 AND SWAP1 PUSH32 0xE676E61CFCD862928829A8F35DC6398F19D20FD509648EB9C4299D9E1A8A8398 SWAP1 PUSH1 0x0 SWAP1 LOG2 POP JUMP JUMPDEST PUSH1 0x0 SLOAD PUSH1 0x1 PUSH1 0xA0 PUSH1 0x2 EXP SUB AND DUP2 JUMP JUMPDEST PUSH1 0x1 SLOAD PUSH1 0x2 SLOAD PUSH1 0x3 SLOAD PUSH1 0x4 SLOAD PUSH1 0x5 SLOAD PUSH1 0x1 PUSH1 0xA0 PUSH1 0x2 EXP SUB SWAP5 DUP6 AND SWAP5 SWAP4 DUP5 AND SWAP4 SWAP3 DUP4 AND SWAP3 SWAP2 DUP3 AND SWAP2 AND DUP6 JUMP JUMPDEST PUSH1 0x1 PUSH1 0xA0 PUSH1 0x2 EXP SUB AND PUSH1 0x0 SWAP1 DUP2 MSTORE PUSH1 0x9 PUSH1 0x20 SWAP1 DUP2 MSTORE PUSH1 0x40 DUP1 DUP4 KECCAK256 PUSH1 0x1 DUP1 DUP6 MSTORE ADD SWAP1 SWAP2 MSTORE SWAP1 KECCAK256 SLOAD PUSH5 0x100000000 SWAP1 DIV PUSH1 0xFF AND SWAP1 JUMP JUMPDEST PUSH2 0xC19 CALLER PUSH2 0x102D JUMP JUMPDEST ISZERO ISZERO PUSH2 0xC24 JUMPI PUSH1 0x0 DUP1 REVERT JUMPDEST PUSH1 0x1 PUSH1 0xA0 PUSH1 0x2 EXP SUB DUP1 DUP4 AND PUSH1 0x0 DUP2 DUP2 MSTORE PUSH1 0x9 PUSH1 0x20 SWAP1 DUP2 MSTORE PUSH1 0x40 DUP1 DUP4 KECCAK256 DUP1 SLOAD DUP8 ISZERO ISZERO PUSH1 0xA0 PUSH1 0x2 EXP DUP2 MUL PUSH1 0xA0 PUSH1 0x2 EXP PUSH1 0xFF MUL NOT PUSH1 0x1 PUSH1 0xA0 PUSH1 0x2 EXP SUB NOT SWAP4 DUP5 AND DUP10 OR AND OR DUP4 SSTORE DUP1 DUP7 MSTORE PUSH1 0x1 SWAP3 DUP4 ADD DUP6 MSTORE DUP4 DUP7 KECCAK256 DUP1 SLOAD PUSH4 0x1000000 DUP4 MUL PUSH4 0xFF000000 NOT SWAP1 SWAP2 AND OR SWAP1 SSTORE DUP4 MLOAD DUP1 DUP7 ADD DUP6 MSTORE DUP8 DUP2 MSTORE PUSH1 0x8 DUP1 SLOAD SWAP5 DUP6 ADD DUP2 SSTORE SWAP1 SWAP7 MSTORE SWAP5 MLOAD PUSH1 0x0 DUP1 MLOAD PUSH1 0x20 PUSH2 0x120D DUP4 CODECOPY DUP2 MLOAD SWAP2 MSTORE SWAP1 SWAP3 ADD DUP1 SLOAD SWAP3 SWAP1 SWAP8 AND SWAP2 AND OR SWAP1 SWAP5 SSTORE DUP4 MLOAD SWAP2 DUP3 MSTORE SWAP3 MLOAD SWAP2 SWAP3 PUSH32 0x79ECE9769F2BF951B895B98F1611BEF27AAD2DA0A868BC16A81E9D11DDFD4FF1 SWAP3 SWAP2 DUP3 SWAP1 SUB ADD SWAP1 LOG2 POP POP JUMP JUMPDEST PUSH1 0x1 PUSH1 0xA0 PUSH1 0x2 EXP SUB AND PUSH1 0x0 SWAP1 DUP2 MSTORE PUSH1 0x9 PUSH1 0x20 SWAP1 DUP2 MSTORE PUSH1 0x40 DUP1 DUP4 KECCAK256 PUSH1 0x1 DUP1 DUP6 MSTORE ADD SWAP1 SWAP2 MSTORE SWAP1 KECCAK256 SLOAD PUSH3 0x10000 SWAP1 DIV PUSH1 0xFF AND SWAP1 JUMP JUMPDEST PUSH1 0x0 SLOAD PUSH1 0x1 PUSH1 0xA0 PUSH1 0x2 EXP SUB AND CALLER EQ DUP1 PUSH2 0xD44 JUMPI POP PUSH2 0xD44 CALLER PUSH2 0x102D JUMP JUMPDEST ISZERO ISZERO PUSH2 0xD4F JUMPI PUSH1 0x0 DUP1 REVERT JUMPDEST PUSH1 0x1 PUSH1 0xA0 PUSH1 0x2 EXP SUB DUP1 DUP4 AND PUSH1 0x0 DUP2 DUP2 MSTORE PUSH1 0x9 PUSH1 0x20 SWAP1 DUP2 MSTORE PUSH1 0x40 DUP1 DUP4 KECCAK256 DUP1 SLOAD DUP8 ISZERO ISZERO PUSH1 0xA0 PUSH1 0x2 EXP DUP2 MUL PUSH1 0xA0 PUSH1 0x2 EXP PUSH1 0xFF MUL NOT PUSH1 0x1 PUSH1 0xA0 PUSH1 0x2 EXP SUB NOT SWAP4 DUP5 AND DUP10 OR AND OR DUP4 SSTORE DUP1 DUP7 MSTORE PUSH1 0x1 SWAP3 DUP4 ADD DUP6 MSTORE DUP4 DUP7 KECCAK256 DUP1 SLOAD PUSH2 0x100 DUP4 MUL PUSH2 0xFF00 NOT SWAP1 SWAP2 AND OR SWAP1 SSTORE DUP4 MLOAD DUP1 DUP7 ADD DUP6 MSTORE DUP8 DUP2 MSTORE PUSH1 0x8 DUP1 SLOAD SWAP5 DUP6 ADD DUP2 SSTORE SWAP1 SWAP7 MSTORE SWAP5 MLOAD PUSH1 0x0 DUP1 MLOAD PUSH1 0x20 PUSH2 0x120D DUP4 CODECOPY DUP2 MLOAD SWAP2 MSTORE SWAP1 SWAP3 ADD DUP1 SLOAD SWAP3 SWAP1 SWAP8 AND SWAP2 AND OR SWAP1 SWAP5 SSTORE DUP4 MLOAD SWAP2 DUP3 MSTORE SWAP3 MLOAD SWAP2 SWAP3 PUSH32 0xF89E34CB19E9C7D8C84FDAAAFB2DCE1DB4B2E19031FF02BE22622530DD80605B SWAP3 SWAP2 DUP3 SWAP1 SUB ADD SWAP1 LOG2 POP POP JUMP JUMPDEST PUSH1 0x0 SLOAD PUSH1 0x1 PUSH1 0xA0 PUSH1 0x2 EXP SUB AND CALLER EQ PUSH2 0xE33 JUMPI PUSH1 0x0 DUP1 REVERT JUMPDEST PUSH2 0xE3D DUP3 DUP3 PUSH2 0x1059 JUMP JUMPDEST POP POP JUMP JUMPDEST PUSH1 0x3 SLOAD PUSH1 0x1 PUSH1 0xA0 PUSH1 0x2 EXP SUB AND SWAP1 JUMP JUMPDEST PUSH1 0x0 SLOAD PUSH1 0x1 PUSH1 0xA0 PUSH1 0x2 EXP SUB AND CALLER EQ PUSH2 0xE67 JUMPI PUSH1 0x0 DUP1 REVERT JUMPDEST PUSH2 0xE3D DUP3 DUP3 PUSH2 0x114E JUMP JUMPDEST PUSH1 0x7 DUP1 SLOAD PUSH1 0x40 DUP1 MLOAD PUSH1 0x20 PUSH1 0x1F PUSH1 0x2 PUSH1 0x0 NOT PUSH2 0x100 PUSH1 0x1 DUP9 AND ISZERO MUL ADD SWAP1 SWAP6 AND SWAP5 SWAP1 SWAP5 DIV SWAP4 DUP5 ADD DUP2 SWAP1 DIV DUP2 MUL DUP3 ADD DUP2 ADD SWAP1 SWAP3 MSTORE DUP3 DUP2 MSTORE SWAP2 DUP4 SWAP2 DUP4 ADD DUP3 DUP3 DUP1 ISZERO PUSH2 0xEF9 JUMPI DUP1 PUSH1 0x1F LT PUSH2 0xECE JUMPI PUSH2 0x100 DUP1 DUP4 SLOAD DIV MUL DUP4 MSTORE SWAP2 PUSH1 0x20 ADD SWAP2 PUSH2 0xEF9 JUMP JUMPDEST DUP3 ADD SWAP2 SWAP1 PUSH1 0x0 MSTORE PUSH1 0x20 PUSH1 0x0 KECCAK256 SWAP1 JUMPDEST DUP2 SLOAD DUP2 MSTORE SWAP1 PUSH1 0x1 ADD SWAP1 PUSH1 0x20 ADD DUP1 DUP4 GT PUSH2 0xEDC JUMPI DUP3 SWAP1 SUB PUSH1 0x1F AND DUP3 ADD SWAP2 JUMPDEST POP POP POP POP POP SWAP1 POP DUP2 JUMP JUMPDEST PUSH1 0x1 PUSH1 0xA0 PUSH1 0x2 EXP SUB AND PUSH1 0x0 SWAP1 DUP2 MSTORE PUSH1 0x9 PUSH1 0x20 SWAP1 DUP2 MSTORE PUSH1 0x40 DUP1 DUP4 KECCAK256 PUSH1 0x1 DUP1 DUP6 MSTORE ADD SWAP1 SWAP2 MSTORE SWAP1 KECCAK256 SLOAD PUSH4 0x1000000 SWAP1 DIV PUSH1 0xFF AND SWAP1 JUMP JUMPDEST PUSH1 0x0 SLOAD PUSH1 0x1 PUSH1 0xA0 PUSH1 0x2 EXP SUB AND CALLER EQ DUP1 PUSH2 0xF53 JUMPI POP PUSH2 0xF53 CALLER PUSH2 0x102D JUMP JUMPDEST ISZERO ISZERO PUSH2 0xF5E JUMPI PUSH1 0x0 DUP1 REVERT JUMPDEST PUSH1 0x1 PUSH1 0xA0 PUSH1 0x2 EXP SUB DUP1 DUP4 AND PUSH1 0x0 DUP2 DUP2 MSTORE PUSH1 0x9 PUSH1 0x20 SWAP1 DUP2 MSTORE PUSH1 0x40 DUP1 DUP4 KECCAK256 DUP1 SLOAD DUP8 ISZERO ISZERO PUSH1 0xA0 PUSH1 0x2 EXP DUP2 MUL PUSH1 0xA0 PUSH1 0x2 EXP PUSH1 0xFF MUL NOT PUSH1 0x1 PUSH1 0xA0 PUSH1 0x2 EXP SUB NOT SWAP4 DUP5 AND DUP10 OR AND OR DUP4 SSTORE DUP1 DUP7 MSTORE PUSH1 0x1 SWAP3 DUP4 ADD DUP6 MSTORE DUP4 DUP7 KECCAK256 DUP1 SLOAD PUSH3 0x10000 DUP4 MUL PUSH3 0xFF0000 NOT SWAP1 SWAP2 AND OR SWAP1 SSTORE DUP4 MLOAD DUP1 DUP7 ADD DUP6 MSTORE DUP8 DUP2 MSTORE PUSH1 0x8 DUP1 SLOAD SWAP5 DUP6 ADD DUP2 SSTORE SWAP1 SWAP7 MSTORE SWAP5 MLOAD PUSH1 0x0 DUP1 MLOAD PUSH1 0x20 PUSH2 0x120D DUP4 CODECOPY DUP2 MLOAD SWAP2 MSTORE SWAP1 SWAP3 ADD DUP1 SLOAD SWAP3 SWAP1 SWAP8 AND SWAP2 AND OR SWAP1 SWAP5 SSTORE DUP4 MLOAD SWAP2 DUP3 MSTORE SWAP3 MLOAD SWAP2 SWAP3 PUSH32 0x535A127F1000C5FA3267E0A84F04D11295BF38E2AD4D65355EDFC9718A661E65 SWAP3 SWAP2 DUP3 SWAP1 SUB ADD SWAP1 LOG2 POP POP JUMP JUMPDEST PUSH1 0x1 PUSH1 0xA0 PUSH1 0x2 EXP SUB AND PUSH1 0x0 SWAP1 DUP2 MSTORE PUSH1 0x9 PUSH1 0x20 SWAP1 DUP2 MSTORE PUSH1 0x40 DUP1 DUP4 KECCAK256 PUSH1 0x1 DUP1 DUP6 MSTORE ADD SWAP1 SWAP2 MSTORE SWAP1 KECCAK256 SLOAD PUSH1 0xFF AND SWAP1 JUMP JUMPDEST PUSH1 0x1 PUSH1 0xA0 PUSH1 0x2 EXP SUB DUP3 AND PUSH1 0x0 DUP2 DUP2 MSTORE PUSH1 0x9 PUSH1 0x20 SWAP1 DUP2 MSTORE PUSH1 0x40 DUP1 DUP4 KECCAK256 DUP1 SLOAD PUSH1 0x1 PUSH1 0xA0 PUSH1 0x2 EXP SUB NOT AND SWAP1 SWAP5 OR PUSH1 0xA0 PUSH1 0x2 EXP PUSH1 0xFF MUL NOT AND PUSH1 0xA0 PUSH1 0x2 EXP DUP7 ISZERO ISZERO SWAP1 DUP2 MUL SWAP2 SWAP1 SWAP2 OR DUP6 SSTORE DUP1 DUP5 MSTORE PUSH1 0x1 SWAP1 SWAP5 ADD SWAP1 SWAP2 MSTORE SWAP1 KECCAK256 DUP1 SLOAD PUSH7 0xFF000000000000 NOT AND PUSH7 0x1000000000000 SWAP1 SWAP3 MUL SWAP2 SWAP1 SWAP2 OR SWAP1 SSTORE PUSH2 0x10D2 DUP3 DUP3 PUSH2 0x114E JUMP JUMPDEST PUSH1 0x40 DUP1 MLOAD PUSH1 0x20 DUP2 ADD DUP3 MSTORE PUSH1 0x1 PUSH1 0xA0 PUSH1 0x2 EXP SUB DUP5 DUP2 AND DUP1 DUP4 MSTORE PUSH1 0x8 DUP1 SLOAD PUSH1 0x1 DUP2 ADD DUP3 SSTORE PUSH1 0x0 SWAP2 DUP3 MSTORE SWAP4 MLOAD PUSH1 0x0 DUP1 MLOAD PUSH1 0x20 PUSH2 0x120D DUP4 CODECOPY DUP2 MLOAD SWAP2 MSTORE SWAP1 SWAP5 ADD DUP1 SLOAD PUSH1 0x1 PUSH1 0xA0 PUSH1 0x2 EXP SUB NOT AND SWAP5 SWAP1 SWAP4 AND SWAP4 SWAP1 SWAP4 OR SWAP1 SWAP2 SSTORE SWAP2 MLOAD PUSH32 0x17898FD7375CA5152626D6FDD4CEB2BCE6CC033C9B61E254DD0087D5F8B47430 SWAP2 SWAP1 LOG2 POP POP JUMP JUMPDEST PUSH1 0x1 PUSH1 0xA0 PUSH1 0x2 EXP SUB DUP1 DUP4 AND PUSH1 0x0 DUP2 DUP2 MSTORE PUSH1 0x9 PUSH1 0x20 SWAP1 DUP2 MSTORE PUSH1 0x40 DUP1 DUP4 KECCAK256 DUP1 SLOAD DUP8 ISZERO ISZERO PUSH1 0xA0 PUSH1 0x2 EXP DUP2 MUL PUSH1 0xA0 PUSH1 0x2 EXP PUSH1 0xFF MUL NOT PUSH1 0x1 PUSH1 0xA0 PUSH1 0x2 EXP SUB NOT SWAP4 DUP5 AND DUP10 OR AND OR DUP4 SSTORE DUP1 DUP7 MSTORE PUSH1 0x1 SWAP3 DUP4 ADD DUP6 MSTORE DUP4 DUP7 KECCAK256 DUP1 SLOAD PUSH1 0xFF NOT AND SWAP1 SWAP2 OR SWAP1 SSTORE DUP3 MLOAD SWAP4 DUP5 ADD DUP4 MSTORE DUP6 DUP5 MSTORE PUSH1 0x8 DUP1 SLOAD SWAP3 DUP4 ADD DUP2 SSTORE DUP6 MSTORE SWAP3 MLOAD PUSH1 0x0 DUP1 MLOAD PUSH1 0x20 PUSH2 0x120D DUP4 CODECOPY DUP2 MLOAD SWAP2 MSTORE SWAP1 SWAP2 ADD DUP1 SLOAD SWAP2 SWAP1 SWAP7 AND SWAP3 AND SWAP2 SWAP1 SWAP2 OR SWAP1 SWAP4 SSTORE SWAP2 MLOAD SWAP1 SWAP2 PUSH32 0xA9327C1E2B316C1E4412BC43A5BC2B0C629ECDE4F1C9E21911D02AC8B3AD42D SWAP2 LOG2 POP POP JUMP INVALID RETURN 0xf7 0xa9 INVALID CALLDATASIZE 0x4f 0xaa 0xb9 EXTCODESIZE 0x21 PUSH14 0xA50A3214154F22A0A2B415B23A84 0xc8 AND SWAP15 DUP12 PUSH4 0x6EE3A165 PUSH3 0x7A7A72 ADDRESS PC KECCAK256 PUSH5 0xF4358C99BF COINBASE DUP11 PUSH4 0x7333A797 EXTCODESIZE 0x2a PUSH31 0x861181A4F53D30703650B07713930A3D002900000000000000000000000000 "
			}
		}
	},
	"sourceTreeHashHex": "0x00aa60c262dacc8bbf276526d7c6b6a4c9facdfc89d1f47fc290d6ca360ea1d1",
	"compiler": {
		"name": "solc",
		"version": "0.5.0+commit.1d4f565a",
		"settings": {
			"remappings": [],
			"optimizer": {
				"enabled": true,
				"runs": 200
			},
			"outputSelection": {
				"*": {
					"*": [
						"abi",
						"devdoc",
						"evm.bytecode.object",
						"evm.bytecode.sourceMap",
						"evm.deployedBytecode.object",
						"evm.deployedBytecode.sourceMap"
					]
				}
			}
		}
	},
	"chains": {}
}