{
	"schemaVersion": "2.0.0",
	"contractName": "Distribution",
	"compilerOutput": {
		"abi": [
			{
				"constant": false,
				"inputs": [
					{
						"name": "_fee",
						"type": "uint256"
					},
					{
						"name": "_distributor",
						"type": "address"
					}
				],
				"name": "setFee",
				"outputs": [],
				"payable": false,
				"stateMutability": "nonpayable",
				"type": "function"
			},
			{
				"constant": true,
				"inputs": [
					{
						"name": "_distributor",
						"type": "address"
					}
				],
				"name": "getFee",
				"outputs": [
					{
						"name": "",
						"type": "uint256"
					}
				],
				"payable": false,
				"stateMutability": "view",
				"type": "function"
			},
			{
				"constant": false,
				"inputs": [
					{
						"name": "_pool",
						"type": "address"
					},
					{
						"name": "_distributor",
						"type": "address"
					},
					{
						"name": "_buyer",
						"type": "address"
					}
				],
				"name": "subscribe",
				"outputs": [],
				"payable": true,
				"stateMutability": "payable",
				"type": "function"
			},
			{
				"anonymous": false,
				"inputs": [
					{
						"indexed": true,
						"name": "buyer",
						"type": "address"
					},
					{
						"indexed": true,
						"name": "distributor",
						"type": "address"
					},
					{
						"indexed": false,
						"name": "amount",
						"type": "uint256"
					}
				],
				"name": "Subscription",
				"type": "event"
			}
		],
		"devdoc": {
			"author": "Gabriele Rigo - <gab@rigoblock.com>",
			"methods": {},
			"title": "Distribution - Allows to collect subscription fees on vaults."
		},
		"evm": {
			"bytecode": {
				"linkReferences": {},
				"object": "0x608060405234801561001057600080fd5b506103c4806100206000396000f3fe6080604052600436106100565763ffffffff7c0100000000000000000000000000000000000000000000000000000000600035041663b4f2e8b8811461005b578063b88c914814610096578063e487721a146100db575b600080fd5b34801561006757600080fd5b506100946004803603604081101561007e57600080fd5b5080359060200135600160a060020a0316610113565b005b3480156100a257600080fd5b506100c9600480360360208110156100b957600080fd5b5035600160a060020a031661016a565b60408051918252519081900360200190f35b610094600480360360608110156100f157600080fd5b50600160a060020a038135811691602081013582169160409091013516610185565b600160a060020a03811660009081526020819052604090205481901561013857600080fd5b81600160a060020a038116151561014e57600080fd5b5050600160a060020a0316600090815260208190526040902055565b600160a060020a031660009081526020819052604090205490565b82600160a060020a031663af41cec0826040518263ffffffff167c01000000000000000000000000000000000000000000000000000000000281526004018082600160a060020a0316600160a060020a03168152602001915050602060405180830381600087803b1580156101f957600080fd5b505af115801561020d573d6000803e3d6000fd5b505050506040513d602081101561022357600080fd5b5050600160a060020a0382166000908152602081905260408120546102559061024d903490610326565b612710610351565b905060006102633483610386565b604051909150600160a060020a0386169082156108fc029083906000818181858888f1935050505015801561029c573d6000803e3d6000fd5b50604051600160a060020a0385169083156108fc029084906000818181858888f193505050501580156102d3573d6000803e3d6000fd5b5083600160a060020a031683600160a060020a03167f4d1db39debc799df6a6a3bad1c8809c46cbe6eb3b784df03f50a061c487994c6836040518082815260200191505060405180910390a35050505050565b6000828202831580610342575082848281151561033f57fe5b04145b151561034a57fe5b9392505050565b600080821161035c57fe5b6000828481151561036957fe5b049050828481151561037757fe5b06818402018414151561034a57fe5b60008282111561039257fe5b5090039056fea165627a7a723058205ee9a6dafa856c3b9397d9034e45de70a0b2529b86e2c1068be56515ce97d60d0029",
				"opcodes": "PUSH1 0x80 PUSH1 0x40 MSTORE CALLVALUE DUP1 ISZERO PUSH2 0x10 JUMPI PUSH1 0x0 DUP1 REVERT JUMPDEST POP PUSH2 0x3C4 DUP1 PUSH2 0x20 PUSH1 0x0 CODECOPY PUSH1 0x0 RETURN INVALID PUSH1 0x80 PUSH1 0x40 MSTORE PUSH1 0x4 CALLDATASIZE LT PUSH2 0x56 JUMPI PUSH4 0xFFFFFFFF PUSH29 0x100000000000000000000000000000000000000000000000000000000 PUSH1 0x0 CALLDATALOAD DIV AND PUSH4 0xB4F2E8B8 DUP2 EQ PUSH2 0x5B JUMPI DUP1 PUSH4 0xB88C9148 EQ PUSH2 0x96 JUMPI DUP1 PUSH4 0xE487721A EQ PUSH2 0xDB JUMPI JUMPDEST PUSH1 0x0 DUP1 REVERT JUMPDEST CALLVALUE DUP1 ISZERO PUSH2 0x67 JUMPI PUSH1 0x0 DUP1 REVERT JUMPDEST POP PUSH2 0x94 PUSH1 0x4 DUP1 CALLDATASIZE SUB PUSH1 0x40 DUP2 LT ISZERO PUSH2 0x7E JUMPI PUSH1 0x0 DUP1 REVERT JUMPDEST POP DUP1 CALLDATALOAD SWAP1 PUSH1 0x20 ADD CALLDATALOAD PUSH1 0x1 PUSH1 0xA0 PUSH1 0x2 EXP SUB AND PUSH2 0x113 JUMP JUMPDEST STOP JUMPDEST CALLVALUE DUP1 ISZERO PUSH2 0xA2 JUMPI PUSH1 0x0 DUP1 REVERT JUMPDEST POP PUSH2 0xC9 PUSH1 0x4 DUP1 CALLDATASIZE SUB PUSH1 0x20 DUP2 LT ISZERO PUSH2 0xB9 JUMPI PUSH1 0x0 DUP1 REVERT JUMPDEST POP CALLDATALOAD PUSH1 0x1 PUSH1 0xA0 PUSH1 0x2 EXP SUB AND PUSH2 0x16A JUMP JUMPDEST PUSH1 0x40 DUP1 MLOAD SWAP2 DUP3 MSTORE MLOAD SWAP1 DUP2 SWAP1 SUB PUSH1 0x20 ADD SWAP1 RETURN JUMPDEST PUSH2 0x94 PUSH1 0x4 DUP1 CALLDATASIZE SUB PUSH1 0x60 DUP2 LT ISZERO PUSH2 0xF1 JUMPI PUSH1 0x0 DUP1 REVERT JUMPDEST POP PUSH1 0x1 PUSH1 0xA0 PUSH1 0x2 EXP SUB DUP2 CALLDATALOAD DUP2 AND SWAP2 PUSH1 0x20 DUP2 ADD CALLDATALOAD DUP3 AND SWAP2 PUSH1 0x40 SWAP1 SWAP2 ADD CALLDATALOAD AND PUSH2 0x185 JUMP JUMPDEST PUSH1 0x1 PUSH1 0xA0 PUSH1 0x2 EXP SUB DUP2 AND PUSH1 0x0 SWAP1 DUP2 MSTORE PUSH1 0x20 DUP2 SWAP1 MSTORE PUSH1 0x40 SWAP1 KECCAK256 SLOAD DUP2 SWAP1 ISZERO PUSH2 0x138 JUMPI PUSH1 0x0 DUP1 REVERT JUMPDEST DUP2 PUSH1 0x1 PUSH1 0xA0 PUSH1 0x2 EXP SUB DUP2 AND ISZERO ISZERO PUSH2 0x14E JUMPI PUSH1 0x0 DUP1 REVERT JUMPDEST POP POP PUSH1 0x1 PUSH1 0xA0 PUSH1 0x2 EXP SUB AND PUSH1 0x0 SWAP1 DUP2 MSTORE PUSH1 0x20 DUP2 SWAP1 MSTORE PUSH1 0x40 SWAP1 KECCAK256 SSTORE JUMP JUMPDEST PUSH1 0x1 PUSH1 0xA0 PUSH1 0x2 EXP SUB AND PUSH1 0x0 SWAP1 DUP2 MSTORE PUSH1 0x20 DUP2 SWAP1 MSTORE PUSH1 0x40 SWAP1 KECCAK256 SLOAD SWAP1 JUMP JUMPDEST DUP3 PUSH1 0x1 PUSH1 0xA0 PUSH1 0x2 EXP SUB AND PUSH4 0xAF41CEC0 DUP3 PUSH1 0x40 MLOAD DUP3 PUSH4 0xFFFFFFFF AND PUSH29 0x100000000000000000000000000000000000000000000000000000000 MUL DUP2 MSTORE PUSH1 0x4 ADD DUP1 DUP3 PUSH1 0x1 PUSH1 0xA0 PUSH1 0x2 EXP SUB AND PUSH1 0x1 PUSH1 0xA0 PUSH1 0x2 EXP SUB AND DUP2 MSTORE PUSH1 0x20 ADD SWAP2 POP POP PUSH1 0x20 PUSH1 0x40 MLOAD DUP1 DUP4 SUB DUP2 PUSH1 0x0 DUP8 DUP1 EXTCODESIZE ISZERO DUP1 ISZERO PUSH2 0x1F9 JUMPI PUSH1 0x0 DUP1 REVERT JUMPDEST POP GAS CALL ISZERO DUP1 ISZERO PUSH2 0x20D JUMPI RETURNDATASIZE PUSH1 0x0 DUP1 RETURNDATACOPY RETURNDATASIZE PUSH1 0x0 REVERT JUMPDEST POP POP POP POP PUSH1 0x40 MLOAD RETURNDATASIZE PUSH1 0x20 DUP2 LT ISZERO PUSH2 0x223 JUMPI PUSH1 0x0 DUP1 REVERT JUMPDEST POP POP PUSH1 0x1 PUSH1 0xA0 PUSH1 0x2 EXP SUB DUP3 AND PUSH1 0x0 SWAP1 DUP2 MSTORE PUSH1 0x20 DUP2 SWAP1 MSTORE PUSH1 0x40 DUP2 KECCAK256 SLOAD PUSH2 0x255 SWAP1 PUSH2 0x24D SWAP1 CALLVALUE SWAP1 PUSH2 0x326 JUMP JUMPDEST PUSH2 0x2710 PUSH2 0x351 JUMP JUMPDEST SWAP1 POP PUSH1 0x0 PUSH2 0x263 CALLVALUE DUP4 PUSH2 0x386 JUMP JUMPDEST PUSH1 0x40 MLOAD SWAP1 SWAP2 POP PUSH1 0x1 PUSH1 0xA0 PUSH1 0x2 EXP SUB DUP7 AND SWAP1 DUP3 ISZERO PUSH2 0x8FC MUL SWAP1 DUP4 SWAP1 PUSH1 0x0 DUP2 DUP2 DUP2 DUP6 DUP9 DUP9 CALL SWAP4 POP POP POP POP ISZERO DUP1 ISZERO PUSH2 0x29C JUMPI RETURNDATASIZE PUSH1 0x0 DUP1 RETURNDATACOPY RETURNDATASIZE PUSH1 0x0 REVERT JUMPDEST POP PUSH1 0x40 MLOAD PUSH1 0x1 PUSH1 0xA0 PUSH1 0x2 EXP SUB DUP6 AND SWAP1 DUP4 ISZERO PUSH2 0x8FC MUL SWAP1 DUP5 SWAP1 PUSH1 0x0 DUP2 DUP2 DUP2 DUP6 DUP9 DUP9 CALL SWAP4 POP POP POP POP ISZERO DUP1 ISZERO PUSH2 0x2D3 JUMPI RETURNDATASIZE PUSH1 0x0 DUP1 RETURNDATACOPY RETURNDATASIZE PUSH1 0x0 REVERT JUMPDEST POP DUP4 PUSH1 0x1 PUSH1 0xA0 PUSH1 0x2 EXP SUB AND DUP4 PUSH1 0x1 PUSH1 0xA0 PUSH1 0x2 EXP SUB AND PUSH32 0x4D1DB39DEBC799DF6A6A3BAD1C8809C46CBE6EB3B784DF03F50A061C487994C6 DUP4 PUSH1 0x40 MLOAD DUP1 DUP3 DUP2 MSTORE PUSH1 0x20 ADD SWAP2 POP POP PUSH1 0x40 MLOAD DUP1 SWAP2 SUB SWAP1 LOG3 POP POP POP POP POP JUMP JUMPDEST PUSH1 0x0 DUP3 DUP3 MUL DUP4 ISZERO DUP1 PUSH2 0x342 JUMPI POP DUP3 DUP5 DUP3 DUP2 ISZERO ISZERO PUSH2 0x33F JUMPI INVALID JUMPDEST DIV EQ JUMPDEST ISZERO ISZERO PUSH2 0x34A JUMPI INVALID JUMPDEST SWAP4 SWAP3 POP POP POP JUMP JUMPDEST PUSH1 0x0 DUP1 DUP3 GT PUSH2 0x35C JUMPI INVALID JUMPDEST PUSH1 0x0 DUP3 DUP5 DUP2 ISZERO ISZERO PUSH2 0x369 JUMPI INVALID JUMPDEST DIV SWAP1 POP DUP3 DUP5 DUP2 ISZERO ISZERO PUSH2 0x377 JUMPI INVALID JUMPDEST MOD DUP2 DUP5 MUL ADD DUP5 EQ ISZERO ISZERO PUSH2 0x34A JUMPI INVALID JUMPDEST PUSH1 0x0 DUP3 DUP3 GT ISZERO PUSH2 0x392 JUMPI INVALID JUMPDEST POP SWAP1 SUB SWAP1 JUMP INVALID LOG1 PUSH6 0x627A7A723058 KECCAK256 0x5e 0xe9 0xa6 0xda STATICCALL DUP6 PUSH13 0x3B9397D9034E45DE70A0B2529B DUP7 0xe2 0xc1 MOD DUP12 0xe5 PUSH6 0x15CE97D60D00 0x29 "
			}
		}
	},
	"sourceTreeHashHex": "0xb5e25d0b8f5ac9198efebef469720fcd75f8a1f16216fa5f39b30dd953f1a233",
	"compiler": {
		"name": "solc",
		"version": "0.5.0+commit.1d4f565a",
		"settings": {
			"remappings": [],
			"optimizer": {
				"enabled": true,
				"runs": 200
			},
			"outputSelection": {
				"*": {
					"*": [
						"abi",
						"devdoc",
						"evm.bytecode.object",
						"evm.bytecode.sourceMap",
						"evm.deployedBytecode.object",
						"evm.deployedBytecode.sourceMap"
					]
				}
			}
		}
	},
	"chains": {}
}