{
	"schemaVersion": "2.0.0",
	"contractName": "DragoEventful",
	"compilerOutput": {
		"abi": [
			{
				"constant": false,
				"inputs": [
					{
						"name": "_methodHash",
						"type": "bytes4"
					},
					{
						"name": "_encodedParams",
						"type": "bytes"
					}
				],
				"name": "customExchangeLog",
				"outputs": [
					{
						"name": "success",
						"type": "bool"
					}
				],
				"payable": false,
				"stateMutability": "nonpayable",
				"type": "function"
			},
			{
				"constant": false,
				"inputs": [
					{
						"name": "_who",
						"type": "address"
					},
					{
						"name": "_targetDrago",
						"type": "address"
					},
					{
						"name": "_dragoDao",
						"type": "address"
					}
				],
				"name": "changeDragoDao",
				"outputs": [
					{
						"name": "success",
						"type": "bool"
					}
				],
				"payable": false,
				"stateMutability": "nonpayable",
				"type": "function"
			},
			{
				"constant": false,
				"inputs": [
					{
						"name": "_who",
						"type": "address"
					},
					{
						"name": "_targetDrago",
						"type": "address"
					},
					{
						"name": "_value",
						"type": "uint256"
					},
					{
						"name": "_amount",
						"type": "uint256"
					},
					{
						"name": "_name",
						"type": "bytes"
					},
					{
						"name": "_symbol",
						"type": "bytes"
					}
				],
				"name": "buyDrago",
				"outputs": [
					{
						"name": "success",
						"type": "bool"
					}
				],
				"payable": false,
				"stateMutability": "nonpayable",
				"type": "function"
			},
			{
				"constant": false,
				"inputs": [
					{
						"name": "_who",
						"type": "address"
					},
					{
						"name": "_targetDrago",
						"type": "address"
					},
					{
						"name": "_amount",
						"type": "uint256"
					},
					{
						"name": "_revenue",
						"type": "uint256"
					},
					{
						"name": "_name",
						"type": "bytes"
					},
					{
						"name": "_symbol",
						"type": "bytes"
					}
				],
				"name": "sellDrago",
				"outputs": [
					{
						"name": "success",
						"type": "bool"
					}
				],
				"payable": false,
				"stateMutability": "nonpayable",
				"type": "function"
			},
			{
				"constant": false,
				"inputs": [
					{
						"name": "_who",
						"type": "address"
					},
					{
						"name": "_newDrago",
						"type": "address"
					},
					{
						"name": "_name",
						"type": "string"
					},
					{
						"name": "_symbol",
						"type": "string"
					},
					{
						"name": "_dragoId",
						"type": "uint256"
					}
				],
				"name": "createDrago",
				"outputs": [
					{
						"name": "success",
						"type": "bool"
					}
				],
				"payable": false,
				"stateMutability": "nonpayable",
				"type": "function"
			},
			{
				"constant": false,
				"inputs": [
					{
						"name": "_who",
						"type": "address"
					},
					{
						"name": "_targetDrago",
						"type": "address"
					},
					{
						"name": "_exchange",
						"type": "address"
					},
					{
						"name": "_token",
						"type": "address"
					},
					{
						"name": "_value",
						"type": "uint256"
					}
				],
				"name": "withdrawFromExchange",
				"outputs": [
					{
						"name": "success",
						"type": "bool"
					}
				],
				"payable": false,
				"stateMutability": "nonpayable",
				"type": "function"
			},
			{
				"constant": false,
				"inputs": [
					{
						"name": "_methodHash",
						"type": "bytes4"
					},
					{
						"name": "topic2",
						"type": "bytes32"
					},
					{
						"name": "topic3",
						"type": "bytes32"
					},
					{
						"name": "_encodedParams",
						"type": "bytes"
					}
				],
				"name": "customExchangeLog2",
				"outputs": [
					{
						"name": "success",
						"type": "bool"
					}
				],
				"payable": false,
				"stateMutability": "nonpayable",
				"type": "function"
			},
			{
				"constant": false,
				"inputs": [
					{
						"name": "_who",
						"type": "address"
					},
					{
						"name": "_targetDrago",
						"type": "address"
					},
					{
						"name": "_sellPrice",
						"type": "uint256"
					},
					{
						"name": "_buyPrice",
						"type": "uint256"
					}
				],
				"name": "setDragoPrice",
				"outputs": [
					{
						"name": "success",
						"type": "bool"
					}
				],
				"payable": false,
				"stateMutability": "nonpayable",
				"type": "function"
			},
			{
				"constant": false,
				"inputs": [
					{
						"name": "_methodHash",
						"type": "bytes4"
					},
					{
						"name": "_encodedParams",
						"type": "bytes"
					}
				],
				"name": "customDragoLog",
				"outputs": [
					{
						"name": "success",
						"type": "bool"
					}
				],
				"payable": false,
				"stateMutability": "nonpayable",
				"type": "function"
			},
			{
				"constant": true,
				"inputs": [],
				"name": "AUTHORITY",
				"outputs": [
					{
						"name": "",
						"type": "address"
					}
				],
				"payable": false,
				"stateMutability": "view",
				"type": "function"
			},
			{
				"constant": false,
				"inputs": [
					{
						"name": "_who",
						"type": "address"
					},
					{
						"name": "_targetDrago",
						"type": "address"
					},
					{
						"name": "_ratio",
						"type": "uint256"
					}
				],
				"name": "changeRatio",
				"outputs": [
					{
						"name": "success",
						"type": "bool"
					}
				],
				"payable": false,
				"stateMutability": "nonpayable",
				"type": "function"
			},
			{
				"constant": false,
				"inputs": [
					{
						"name": "_who",
						"type": "address"
					},
					{
						"name": "_targetDrago",
						"type": "address"
					},
					{
						"name": "_transactionFee",
						"type": "uint256"
					}
				],
				"name": "setTransactionFee",
				"outputs": [
					{
						"name": "success",
						"type": "bool"
					}
				],
				"payable": false,
				"stateMutability": "nonpayable",
				"type": "function"
			},
			{
				"constant": false,
				"inputs": [
					{
						"name": "_methodHash",
						"type": "bytes4"
					},
					{
						"name": "topic2",
						"type": "bytes32"
					},
					{
						"name": "topic3",
						"type": "bytes32"
					},
					{
						"name": "_encodedParams",
						"type": "bytes"
					}
				],
				"name": "customDragoLog2",
				"outputs": [
					{
						"name": "success",
						"type": "bool"
					}
				],
				"payable": false,
				"stateMutability": "nonpayable",
				"type": "function"
			},
			{
				"constant": false,
				"inputs": [
					{
						"name": "_who",
						"type": "address"
					},
					{
						"name": "_targetDrago",
						"type": "address"
					},
					{
						"name": "_feeCollector",
						"type": "address"
					}
				],
				"name": "changeFeeCollector",
				"outputs": [
					{
						"name": "success",
						"type": "bool"
					}
				],
				"payable": false,
				"stateMutability": "nonpayable",
				"type": "function"
			},
			{
				"constant": false,
				"inputs": [
					{
						"name": "_who",
						"type": "address"
					},
					{
						"name": "_targetDrago",
						"type": "address"
					},
					{
						"name": "_exchange",
						"type": "address"
					},
					{
						"name": "_token",
						"type": "address"
					},
					{
						"name": "_value",
						"type": "uint256"
					}
				],
				"name": "depositToExchange",
				"outputs": [
					{
						"name": "success",
						"type": "bool"
					}
				],
				"payable": false,
				"stateMutability": "nonpayable",
				"type": "function"
			},
			{
				"constant": true,
				"inputs": [],
				"name": "VERSION",
				"outputs": [
					{
						"name": "",
						"type": "string"
					}
				],
				"payable": false,
				"stateMutability": "view",
				"type": "function"
			},
			{
				"inputs": [
					{
						"name": "_authority",
						"type": "address"
					}
				],
				"payable": false,
				"stateMutability": "nonpayable",
				"type": "constructor"
			},
			{
				"anonymous": false,
				"inputs": [
					{
						"indexed": true,
						"name": "drago",
						"type": "address"
					},
					{
						"indexed": true,
						"name": "from",
						"type": "address"
					},
					{
						"indexed": true,
						"name": "to",
						"type": "address"
					},
					{
						"indexed": false,
						"name": "amount",
						"type": "uint256"
					},
					{
						"indexed": false,
						"name": "revenue",
						"type": "uint256"
					},
					{
						"indexed": false,
						"name": "name",
						"type": "bytes"
					},
					{
						"indexed": false,
						"name": "symbol",
						"type": "bytes"
					}
				],
				"name": "BuyDrago",
				"type": "event"
			},
			{
				"anonymous": false,
				"inputs": [
					{
						"indexed": true,
						"name": "drago",
						"type": "address"
					},
					{
						"indexed": true,
						"name": "from",
						"type": "address"
					},
					{
						"indexed": true,
						"name": "to",
						"type": "address"
					},
					{
						"indexed": false,
						"name": "amount",
						"type": "uint256"
					},
					{
						"indexed": false,
						"name": "revenue",
						"type": "uint256"
					},
					{
						"indexed": false,
						"name": "name",
						"type": "bytes"
					},
					{
						"indexed": false,
						"name": "symbol",
						"type": "bytes"
					}
				],
				"name": "SellDrago",
				"type": "event"
			},
			{
				"anonymous": false,
				"inputs": [
					{
						"indexed": true,
						"name": "drago",
						"type": "address"
					},
					{
						"indexed": true,
						"name": "from",
						"type": "address"
					},
					{
						"indexed": false,
						"name": "newRatio",
						"type": "uint256"
					}
				],
				"name": "NewRatio",
				"type": "event"
			},
			{
				"anonymous": false,
				"inputs": [
					{
						"indexed": true,
						"name": "drago",
						"type": "address"
					},
					{
						"indexed": true,
						"name": "from",
						"type": "address"
					},
					{
						"indexed": true,
						"name": "to",
						"type": "address"
					},
					{
						"indexed": false,
						"name": "sellPrice",
						"type": "uint256"
					},
					{
						"indexed": false,
						"name": "buyPrice",
						"type": "uint256"
					}
				],
				"name": "NewNAV",
				"type": "event"
			},
			{
				"anonymous": false,
				"inputs": [
					{
						"indexed": true,
						"name": "drago",
						"type": "address"
					},
					{
						"indexed": true,
						"name": "group",
						"type": "address"
					},
					{
						"indexed": true,
						"name": "who",
						"type": "address"
					},
					{
						"indexed": false,
						"name": "transactionFee",
						"type": "uint256"
					}
				],
				"name": "NewFee",
				"type": "event"
			},
			{
				"anonymous": false,
				"inputs": [
					{
						"indexed": true,
						"name": "drago",
						"type": "address"
					},
					{
						"indexed": true,
						"name": "group",
						"type": "address"
					},
					{
						"indexed": true,
						"name": "who",
						"type": "address"
					},
					{
						"indexed": false,
						"name": "feeCollector",
						"type": "address"
					}
				],
				"name": "NewCollector",
				"type": "event"
			},
			{
				"anonymous": false,
				"inputs": [
					{
						"indexed": true,
						"name": "drago",
						"type": "address"
					},
					{
						"indexed": true,
						"name": "from",
						"type": "address"
					},
					{
						"indexed": true,
						"name": "to",
						"type": "address"
					},
					{
						"indexed": false,
						"name": "dragoDao",
						"type": "address"
					}
				],
				"name": "DragoDao",
				"type": "event"
			},
			{
				"anonymous": false,
				"inputs": [
					{
						"indexed": true,
						"name": "drago",
						"type": "address"
					},
					{
						"indexed": true,
						"name": "exchange",
						"type": "address"
					},
					{
						"indexed": true,
						"name": "token",
						"type": "address"
					},
					{
						"indexed": false,
						"name": "value",
						"type": "uint256"
					},
					{
						"indexed": false,
						"name": "amount",
						"type": "uint256"
					}
				],
				"name": "DepositExchange",
				"type": "event"
			},
			{
				"anonymous": false,
				"inputs": [
					{
						"indexed": true,
						"name": "drago",
						"type": "address"
					},
					{
						"indexed": true,
						"name": "exchange",
						"type": "address"
					},
					{
						"indexed": true,
						"name": "token",
						"type": "address"
					},
					{
						"indexed": false,
						"name": "value",
						"type": "uint256"
					},
					{
						"indexed": false,
						"name": "amount",
						"type": "uint256"
					}
				],
				"name": "WithdrawExchange",
				"type": "event"
			},
			{
				"anonymous": false,
				"inputs": [
					{
						"indexed": true,
						"name": "drago",
						"type": "address"
					},
					{
						"indexed": true,
						"name": "exchange",
						"type": "address"
					},
					{
						"indexed": true,
						"name": "cfd",
						"type": "address"
					},
					{
						"indexed": false,
						"name": "value",
						"type": "uint256"
					},
					{
						"indexed": false,
						"name": "revenue",
						"type": "uint256"
					}
				],
				"name": "OrderExchange",
				"type": "event"
			},
			{
				"anonymous": false,
				"inputs": [
					{
						"indexed": true,
						"name": "drago",
						"type": "address"
					},
					{
						"indexed": true,
						"name": "exchange",
						"type": "address"
					},
					{
						"indexed": false,
						"name": "tokenGet",
						"type": "address"
					},
					{
						"indexed": false,
						"name": "tokenGive",
						"type": "address"
					},
					{
						"indexed": false,
						"name": "amountGet",
						"type": "uint256"
					},
					{
						"indexed": false,
						"name": "amountGive",
						"type": "uint256"
					},
					{
						"indexed": false,
						"name": "get",
						"type": "address"
					}
				],
				"name": "TradeExchange",
				"type": "event"
			},
			{
				"anonymous": false,
				"inputs": [
					{
						"indexed": true,
						"name": "drago",
						"type": "address"
					},
					{
						"indexed": true,
						"name": "exchange",
						"type": "address"
					},
					{
						"indexed": true,
						"name": "cfd",
						"type": "address"
					},
					{
						"indexed": false,
						"name": "value",
						"type": "uint256"
					},
					{
						"indexed": false,
						"name": "id",
						"type": "uint256"
					}
				],
				"name": "CancelOrder",
				"type": "event"
			},
			{
				"anonymous": false,
				"inputs": [
					{
						"indexed": true,
						"name": "drago",
						"type": "address"
					},
					{
						"indexed": true,
						"name": "exchange",
						"type": "address"
					},
					{
						"indexed": true,
						"name": "cfd",
						"type": "address"
					},
					{
						"indexed": false,
						"name": "value",
						"type": "uint256"
					},
					{
						"indexed": false,
						"name": "id",
						"type": "uint256"
					}
				],
				"name": "DealFinalized",
				"type": "event"
			},
			{
				"anonymous": false,
				"inputs": [
					{
						"indexed": true,
						"name": "method",
						"type": "bytes4"
					},
					{
						"indexed": false,
						"name": "encodedParams",
						"type": "bytes"
					}
				],
				"name": "CustomDragoLog",
				"type": "event"
			},
			{
				"anonymous": false,
				"inputs": [
					{
						"indexed": true,
						"name": "methodHash",
						"type": "bytes4"
					},
					{
						"indexed": true,
						"name": "topic2",
						"type": "bytes32"
					},
					{
						"indexed": true,
						"name": "topic3",
						"type": "bytes32"
					},
					{
						"indexed": false,
						"name": "encodedParams",
						"type": "bytes"
					}
				],
				"name": "CustomDragoLog2",
				"type": "event"
			},
			{
				"anonymous": false,
				"inputs": [
					{
						"indexed": true,
						"name": "drago",
						"type": "address"
					},
					{
						"indexed": true,
						"name": "group",
						"type": "address"
					},
					{
						"indexed": true,
						"name": "owner",
						"type": "address"
					},
					{
						"indexed": false,
						"name": "dragoId",
						"type": "uint256"
					},
					{
						"indexed": false,
						"name": "name",
						"type": "string"
					},
					{
						"indexed": false,
						"name": "symbol",
						"type": "string"
					}
				],
				"name": "DragoCreated",
				"type": "event"
			}
		],
		"devdoc": {
			"author": "Gabriele Rigo - <gab@rigoblock.com>",
			"methods": {
				"buyDrago(address,address,uint256,uint256,bytes,bytes)": {
					"details": "Logs a Buy Drago event.",
					"params": {
						"_amount": "Number of shares purchased",
						"_targetDrago": "Address of the target drago",
						"_value": "Value of the transaction in Ether",
						"_who": "Address of who is buying"
					},
					"return": "Bool the transaction executed successfully"
				},
				"changeDragoDao(address,address,address)": {
					"details": "Logs a change in the drago dao of an approved vault",
					"params": {
						"_dragoDao": "Address of the new drago dao",
						"_targetDrago": "Address of the drago",
						"_who": "Address of the caller"
					},
					"return": "Bool the transaction executed successfully"
				},
				"changeFeeCollector(address,address,address)": {
					"details": "Logs when wizard changes fee collector address",
					"params": {
						"_feeCollector": "Address of the new fee collector",
						"_targetDrago": "Address of the target Drago",
						"_who": "Address of the caller"
					},
					"return": "Bool the transaction executed successfully"
				},
				"changeRatio(address,address,uint256)": {
					"details": "Logswhen rigoblock dao changes fee split.",
					"params": {
						"_ratio": "Ratio number from 0 to 100",
						"_targetDrago": "Address of the target drago",
						"_who": "Address of the caller"
					},
					"return": "Bool the transaction executed successfully"
				},
				"createDrago(address,address,string,string,uint256)": {
					"details": "Logs a new Drago creation by factory",
					"params": {
						"_dragoId": "Number of the new drago Id",
						"_name": "String of the name of the new drago",
						"_newDrago": "Address of the new Drago",
						"_symbol": "String of the symbol of the new drago",
						"_who": "Address of the caller"
					},
					"return": "Bool the transaction executed successfully"
				},
				"customDragoLog(bytes4,bytes)": {
					"details": "Logs an event sent from a drago",
					"params": {
						"_encodedParams": "the arbitrary data array",
						"_methodHash": "the method of the call"
					},
					"return": "Bool the transaction executed successfully"
				},
				"customDragoLog2(bytes4,bytes32,bytes32,bytes)": {
					"details": "Logs an event sent from a drago",
					"params": {
						"_encodedParams": "the arbitrary data array",
						"_methodHash": "the method of the call"
					},
					"return": "Bool the transaction executed successfully"
				},
				"customExchangeLog(bytes4,bytes)": {
					"details": "Logs an event sent from an approved exchange",
					"params": {
						"_encodedParams": "the arbitrary data array",
						"_methodHash": "the method of the call"
					},
					"return": "Bool the transaction executed successfully"
				},
				"customExchangeLog2(bytes4,bytes32,bytes32,bytes)": {
					"details": "Logs an event sent from an approved exchange",
					"params": {
						"_encodedParams": "the arbitrary data array",
						"_methodHash": "the method of the call"
					},
					"return": "Bool the transaction executed successfully"
				},
				"depositToExchange(address,address,address,address,uint256)": {
					"details": "Logs a Drago Deposit To Exchange event",
					"params": {
						"_exchange": "Address of the exchange",
						"_targetDrago": "Address of the target Drago",
						"_token": "Address of the deposited token",
						"_value": "Number of deposited tokens",
						"_who": "Address of the caller"
					},
					"return": "Bool the transaction executed successfully"
				},
				"sellDrago(address,address,uint256,uint256,bytes,bytes)": {
					"details": "Logs a Sell Drago event.",
					"params": {
						"_amount": "Number of shares purchased",
						"_revenue": "Value of the transaction in Ether",
						"_targetDrago": "Address of the target drago",
						"_who": "Address of who is selling"
					},
					"return": "Bool the transaction executed successfully"
				},
				"setDragoPrice(address,address,uint256,uint256)": {
					"details": "Logs a Set Drago Price event",
					"params": {
						"_buyPrice": "Value of the price of one share in wei",
						"_sellPrice": "Value of the price of one share in wei",
						"_targetDrago": "Address of the target Drago",
						"_who": "Address of the caller"
					},
					"return": "Bool the transaction executed successfully"
				},
				"setTransactionFee(address,address,uint256)": {
					"details": "Logs a modification of the transaction fee event",
					"params": {
						"_targetDrago": "Address of the target Drago",
						"_transactionFee": "Value of the transaction fee in basis points",
						"_who": "Address of the caller"
					},
					"return": "Bool the transaction executed successfully"
				},
				"withdrawFromExchange(address,address,address,address,uint256)": {
					"details": "Logs a Drago Withdraw From Exchange event",
					"params": {
						"_exchange": "Address of the exchange",
						"_targetDrago": "Address of the target Drago",
						"_token": "Address of the withdrawn token",
						"_value": "Number of withdrawn tokens",
						"_who": "Address of the caller"
					},
					"return": "Bool the transaction executed successfully"
				}
			},
			"title": "Drago Eventful contract."
		},
		"evm": {
			"bytecode": {
				"linkReferences": {},
				"object": "0x608060405234801561001057600080fd5b506040516020806124988339810180604052602081101561003057600080fd5b505160008054600160a060020a03909216600160a060020a0319909216919091179055612436806100626000396000f3fe6080604052600436106100e55763ffffffff7c01000000000000000000000000000000000000000000000000000000006000350416631981e64581146100ea5780632a44fba5146101a45780632cc4e4b6146101f65780632ec57612146102f75780632f82aff3146103f857806341167aa9146104ed57806352005fcc1461054d578063554a7818146105ff578063587fef541461065557806389fcd796146106fb57806391f1df8414610739578063d5aaa73a14610789578063e42a1787146107d9578063f39ba9321461088b578063f78e518f146108dd578063ffa1ad741461093d575b600080fd5b3480156100f657600080fd5b506101906004803603604081101561010d57600080fd5b7fffffffff00000000000000000000000000000000000000000000000000000000823516919081019060408101602082013564010000000081111561015157600080fd5b82018360208201111561016357600080fd5b8035906020019184600183028401116401000000008311171561018557600080fd5b5090925090506109c7565b604080519115158252519081900360200190f35b3480156101b057600080fd5b50610190600480360360608110156101c757600080fd5b5073ffffffffffffffffffffffffffffffffffffffff8135811691602081013582169160409091013516610bb2565b34801561020257600080fd5b50610190600480360360c081101561021957600080fd5b73ffffffffffffffffffffffffffffffffffffffff823581169260208101359091169160408201359160608101359181019060a08101608082013564010000000081111561026657600080fd5b82018360208201111561027857600080fd5b8035906020019184600183028401116401000000008311171561029a57600080fd5b9193909290916020810190356401000000008111156102b857600080fd5b8201836020820111156102ca57600080fd5b803590602001918460018302840111640100000000831117156102ec57600080fd5b509092509050610d6e565b34801561030357600080fd5b50610190600480360360c081101561031a57600080fd5b73ffffffffffffffffffffffffffffffffffffffff823581169260208101359091169160408201359160608101359181019060a08101608082013564010000000081111561036757600080fd5b82018360208201111561037957600080fd5b8035906020019184600183028401116401000000008311171561039b57600080fd5b9193909290916020810190356401000000008111156103b957600080fd5b8201836020820111156103cb57600080fd5b803590602001918460018302840111640100000000831117156103ed57600080fd5b509092509050610eb4565b34801561040457600080fd5b50610190600480360360a081101561041b57600080fd5b73ffffffffffffffffffffffffffffffffffffffff823581169260208101359091169181019060608101604082013564010000000081111561045c57600080fd5b82018360208201111561046e57600080fd5b8035906020019184600183028401116401000000008311171561049057600080fd5b9193909290916020810190356401000000008111156104ae57600080fd5b8201836020820111156104c057600080fd5b803590602001918460018302840111640100000000831117156104e257600080fd5b919350915035610ff6565b3480156104f957600080fd5b50610190600480360360a081101561051057600080fd5b5073ffffffffffffffffffffffffffffffffffffffff8135811691602081013582169160408201358116916060810135909116906080013561113a565b34801561055957600080fd5b506101906004803603608081101561057057600080fd5b7fffffffff0000000000000000000000000000000000000000000000000000000082351691602081013591604082013591908101906080810160608201356401000000008111156105c057600080fd5b8201836020820111156105d257600080fd5b803590602001918460018302840111640100000000831117156105f457600080fd5b50909250905061146b565b34801561060b57600080fd5b506101906004803603608081101561062257600080fd5b5073ffffffffffffffffffffffffffffffffffffffff81358116916020810135909116906040810135906060013561165a565b34801561066157600080fd5b506101906004803603604081101561067857600080fd5b7fffffffff0000000000000000000000000000000000000000000000000000000082351691908101906040810160208201356401000000008111156106bc57600080fd5b8201836020820111156106ce57600080fd5b803590602001918460018302840111640100000000831117156106f057600080fd5b509092509050611793565b34801561070757600080fd5b50610710611808565b6040805173ffffffffffffffffffffffffffffffffffffffff9092168252519081900360200190f35b34801561074557600080fd5b506101906004803603606081101561075c57600080fd5b5073ffffffffffffffffffffffffffffffffffffffff813581169160208101359091169060400135611824565b34801561079557600080fd5b50610190600480360360608110156107ac57600080fd5b5073ffffffffffffffffffffffffffffffffffffffff81358116916020810135909116906040013561194e565b3480156107e557600080fd5b50610190600480360360808110156107fc57600080fd5b7fffffffff00000000000000000000000000000000000000000000000000000000823516916020810135916040820135919081019060808101606082013564010000000081111561084c57600080fd5b82018360208201111561085e57600080fd5b8035906020019184600183028401116401000000008311171561088057600080fd5b509092509050611b08565b34801561089757600080fd5b50610190600480360360608110156108ae57600080fd5b5073ffffffffffffffffffffffffffffffffffffffff8135811691602081013582169160409091013516611b7d565b3480156108e957600080fd5b50610190600480360360a081101561090057600080fd5b5073ffffffffffffffffffffffffffffffffffffffff81358116916020810135821691604082013581169160608101359091169060800135611d39565b34801561094957600080fd5b5061095261206a565b6040805160208082528351818301528351919283929083019185019080838360005b8381101561098c578181015183820152602001610974565b50505050905090810190601f1680156109b95780820380516001836020036101000a031916815260200191505b509250505060405180910390f35b60008054604080517f84987e830000000000000000000000000000000000000000000000000000000081529051339273ffffffffffffffffffffffffffffffffffffffff169182916384987e8391600480820192602092909190829003018186803b158015610a3557600080fd5b505afa158015610a49573d6000803e3d6000fd5b505050506040513d6020811015610a5f57600080fd5b5051604080517f9aa4d0a000000000000000000000000000000000000000000000000000000000815273ffffffffffffffffffffffffffffffffffffffff858116600483015291519190921691639aa4d0a0916024808301926020929190829003018186803b158015610ad157600080fd5b505afa158015610ae5573d6000803e3d6000fd5b505050506040513d6020811015610afb57600080fd5b50511515610b0857600080fd5b857bffffffffffffffffffffffffffffffffffffffffffffffffffffffff19167f1ab924023585fae2457efd7f78b659da2c6909e8f8c5785dc553cca95ab5bac2868660405180806020018281038252848482818152602001925080828437600083820152604051601f9091017fffffffffffffffffffffffffffffffffffffffffffffffffffffffffffffffe0169092018290039550909350505050a250600195945050505050565b60008054604080517f4493890000000000000000000000000000000000000000000000000000000000815233600482018190529151919273ffffffffffffffffffffffffffffffffffffffff169182916344938900916024808301926020929190829003018186803b158015610c2757600080fd5b505afa158015610c3b573d6000803e3d6000fd5b505050506040513d6020811015610c5157600080fd5b50511515610c5e57600080fd5b600054604080517fd88c271e00000000000000000000000000000000000000000000000000000000815273ffffffffffffffffffffffffffffffffffffffff808a166004830152915189939290921691829163d88c271e916024808301926020929190829003018186803b158015610cd557600080fd5b505afa158015610ce9573d6000803e3d6000fd5b505050506040513d6020811015610cff57600080fd5b50511515610d0c57600080fd5b6040805173ffffffffffffffffffffffffffffffffffffffff88811682529151828b16923392908b16917ff8de16a318d247acac1cd974965154d35f0f1fe9b5869f64c5bb299ece9cb5759181900360200190a4506001979650505050505050565b60008054604080517f4493890000000000000000000000000000000000000000000000000000000000815233600482018190529151919273ffffffffffffffffffffffffffffffffffffffff169182916344938900916024808301926020929190829003018186803b158015610de357600080fd5b505afa158015610df7573d6000803e3d6000fd5b505050506040513d6020811015610e0d57600080fd5b50511515610e1a57600080fd5b610ea38a8c338c8c8c8c8080601f016020809104026020016040519081016040528093929190818152602001838380828437600081840152601f19601f820116905080830192505050505050508b8b8080601f0160208091040260200160405190810160405280939291908181526020018383808284376000920191909152506120a192505050565b5060019a9950505050505050505050565b60008054604080517f4493890000000000000000000000000000000000000000000000000000000000815233600482018190529151919273ffffffffffffffffffffffffffffffffffffffff169182916344938900916024808301926020929190829003018186803b158015610f2957600080fd5b505afa158015610f3d573d6000803e3d6000fd5b505050506040513d6020811015610f5357600080fd5b50511515610f6057600080fd5b60008911610f6d57600080fd5b610ea38a8c338c8c8c8c8080601f016020809104026020016040519081016040528093929190818152602001838380828437600081840152601f19601f820116905080830192505050505050508b8b8080601f0160208091040260200160405190810160405280939291908181526020018383808284376000920191909152506121ff92505050565b60008054604080517fdcb7a3e000000000000000000000000000000000000000000000000000000000815233600482018190529151919273ffffffffffffffffffffffffffffffffffffffff1691829163dcb7a3e0916024808301926020929190829003018186803b15801561106b57600080fd5b505afa15801561107f573d6000803e3d6000fd5b505050506040513d602081101561109557600080fd5b505115156110a257600080fd5b61112a89338c878c8c8080601f016020809104026020016040519081016040528093929190818152602001838380828437600081840152601f19601f820116905080830192505050505050508b8b8080601f0160208091040260200160405190810160405280939291908181526020018383808284376000920191909152506122b592505050565b5060019998505050505050505050565b60008054604080517fd88c271e00000000000000000000000000000000000000000000000000000000815273ffffffffffffffffffffffffffffffffffffffff808a166004830152915189939290921691829163d88c271e916024808301926020929190829003018186803b1580156111b257600080fd5b505afa1580156111c6573d6000803e3d6000fd5b505050506040513d60208110156111dc57600080fd5b505115156111e957600080fd5b600054604080517f4493890000000000000000000000000000000000000000000000000000000000815233600482018190529151919273ffffffffffffffffffffffffffffffffffffffff169182916344938900916024808301926020929190829003018186803b15801561125d57600080fd5b505afa158015611271573d6000803e3d6000fd5b505050506040513d602081101561128757600080fd5b5051151561129457600080fd5b600054604080517f84987e8300000000000000000000000000000000000000000000000000000000815290518a9273ffffffffffffffffffffffffffffffffffffffff169182916384987e8391600480820192602092909190829003018186803b15801561130157600080fd5b505afa158015611315573d6000803e3d6000fd5b505050506040513d602081101561132b57600080fd5b5051604080517f9aa4d0a000000000000000000000000000000000000000000000000000000000815273ffffffffffffffffffffffffffffffffffffffff858116600483015291519190921691639aa4d0a0916024808301926020929190829003018186803b15801561139d57600080fd5b505afa1580156113b1573d6000803e3d6000fd5b505050506040513d60208110156113c757600080fd5b505115156113d457600080fd5b8873ffffffffffffffffffffffffffffffffffffffff168a73ffffffffffffffffffffffffffffffffffffffff168c73ffffffffffffffffffffffffffffffffffffffff167fee9a3802dc92f9753e3cbbb9e5fbbd7558b180539f8104d522584f17cf9c65b78b6000604051808381526020018281526020019250505060405180910390a45060019b9a5050505050505050505050565b60008054604080517f84987e830000000000000000000000000000000000000000000000000000000081529051339273ffffffffffffffffffffffffffffffffffffffff169182916384987e8391600480820192602092909190829003018186803b1580156114d957600080fd5b505afa1580156114ed573d6000803e3d6000fd5b505050506040513d602081101561150357600080fd5b5051604080517f9aa4d0a000000000000000000000000000000000000000000000000000000000815273ffffffffffffffffffffffffffffffffffffffff858116600483015291519190921691639aa4d0a0916024808301926020929190829003018186803b15801561157557600080fd5b505afa158015611589573d6000803e3d6000fd5b505050506040513d602081101561159f57600080fd5b505115156115ac57600080fd5b8587897bffffffffffffffffffffffffffffffffffffffffffffffffffffffff19167f4d9ccf95253dcc539b9d04b5c324b347def71d219e832a9b868988365c747f23888860405180806020018281038252848482818152602001925080828437600083820152604051601f9091017fffffffffffffffffffffffffffffffffffffffffffffffffffffffffffffffe0169092018290039550909350505050a4506001979650505050505050565b60008054604080517f4493890000000000000000000000000000000000000000000000000000000000815233600482018190529151919273ffffffffffffffffffffffffffffffffffffffff169182916344938900916024808301926020929190829003018186803b1580156116cf57600080fd5b505afa1580156116e3573d6000803e3d6000fd5b505050506040513d60208110156116f957600080fd5b5051151561170657600080fd5b662386f26fc10000851180156117225750662386f26fc1000084115b151561172d57600080fd5b6040805186815260208101869052815173ffffffffffffffffffffffffffffffffffffffff808b16933393918b16927f5a96ba7d7f2705b8c0e85b7b0f2a707fc9a711e97b1c5fed2f475839867489549281900390910190a45060019695505050505050565b60008054604080517f4493890000000000000000000000000000000000000000000000000000000000815233600482018190529151919273ffffffffffffffffffffffffffffffffffffffff169182916344938900916024808301926020929190829003018186803b158015610ad157600080fd5b60005473ffffffffffffffffffffffffffffffffffffffff1681565b60008054604080517f4493890000000000000000000000000000000000000000000000000000000000815233600482018190529151919273ffffffffffffffffffffffffffffffffffffffff169182916344938900916024808301926020929190829003018186803b15801561189957600080fd5b505afa1580156118ad573d6000803e3d6000fd5b505050506040513d60208110156118c357600080fd5b505115156118d057600080fd5b600084116118dd57600080fd5b8573ffffffffffffffffffffffffffffffffffffffff168573ffffffffffffffffffffffffffffffffffffffff167f3b2429646ab0dd9a6002c77159344aa6dd3e6fdfc7c685513c2583d782e13f88866040518082815260200191505060405180910390a350600195945050505050565b60008054604080517f4493890000000000000000000000000000000000000000000000000000000000815233600482018190529151919273ffffffffffffffffffffffffffffffffffffffff169182916344938900916024808301926020929190829003018186803b1580156119c357600080fd5b505afa1580156119d7573d6000803e3d6000fd5b505050506040513d60208110156119ed57600080fd5b505115156119fa57600080fd5b600054604080517fd88c271e00000000000000000000000000000000000000000000000000000000815273ffffffffffffffffffffffffffffffffffffffff808a166004830152915189939290921691829163d88c271e916024808301926020929190829003018186803b158015611a7157600080fd5b505afa158015611a85573d6000803e3d6000fd5b505050506040513d6020811015611a9b57600080fd5b50511515611aa857600080fd5b60408051878152905173ffffffffffffffffffffffffffffffffffffffff808b16923392918b16917f93d0111deb3c3657374f0dc73b64ff5ae0111e1e4e4d0b5860b0d799599d0a419181900360200190a4506001979650505050505050565b60008054604080517f4493890000000000000000000000000000000000000000000000000000000000815233600482018190529151919273ffffffffffffffffffffffffffffffffffffffff169182916344938900916024808301926020929190829003018186803b15801561157557600080fd5b60008054604080517f4493890000000000000000000000000000000000000000000000000000000000815233600482018190529151919273ffffffffffffffffffffffffffffffffffffffff169182916344938900916024808301926020929190829003018186803b158015611bf257600080fd5b505afa158015611c06573d6000803e3d6000fd5b505050506040513d6020811015611c1c57600080fd5b50511515611c2957600080fd5b600054604080517fd88c271e00000000000000000000000000000000000000000000000000000000815273ffffffffffffffffffffffffffffffffffffffff808a166004830152915189939290921691829163d88c271e916024808301926020929190829003018186803b158015611ca057600080fd5b505afa158015611cb4573d6000803e3d6000fd5b505050506040513d6020811015611cca57600080fd5b50511515611cd757600080fd5b6040805173ffffffffffffffffffffffffffffffffffffffff88811682529151828b16923392908b16917fefe40f758cd182716682db7a4bcd9dd6b9fba7e0bcc9fb0096282108db6f02ef9181900360200190a4506001979650505050505050565b60008054604080517fd88c271e00000000000000000000000000000000000000000000000000000000815273ffffffffffffffffffffffffffffffffffffffff808a166004830152915189939290921691829163d88c271e916024808301926020929190829003018186803b158015611db157600080fd5b505afa158015611dc5573d6000803e3d6000fd5b505050506040513d6020811015611ddb57600080fd5b50511515611de857600080fd5b600054604080517f4493890000000000000000000000000000000000000000000000000000000000815233600482018190529151919273ffffffffffffffffffffffffffffffffffffffff169182916344938900916024808301926020929190829003018186803b158015611e5c57600080fd5b505afa158015611e70573d6000803e3d6000fd5b505050506040513d6020811015611e8657600080fd5b50511515611e9357600080fd5b600054604080517f84987e8300000000000000000000000000000000000000000000000000000000815290518a9273ffffffffffffffffffffffffffffffffffffffff169182916384987e8391600480820192602092909190829003018186803b158015611f0057600080fd5b505afa158015611f14573d6000803e3d6000fd5b505050506040513d6020811015611f2a57600080fd5b5051604080517f9aa4d0a000000000000000000000000000000000000000000000000000000000815273ffffffffffffffffffffffffffffffffffffffff858116600483015291519190921691639aa4d0a0916024808301926020929190829003018186803b158015611f9c57600080fd5b505afa158015611fb0573d6000803e3d6000fd5b505050506040513d6020811015611fc657600080fd5b50511515611fd357600080fd5b8873ffffffffffffffffffffffffffffffffffffffff168a73ffffffffffffffffffffffffffffffffffffffff168c73ffffffffffffffffffffffffffffffffffffffff167f79208b3906a9bac6a824d21010a6e14b6afc4abe7f84bc4ce19c82d0f2dfa2088b6000604051808381526020018281526020019250505060405180910390a45060019b9a5050505050505050505050565b60408051808201909152600781527f4448302e342e3200000000000000000000000000000000000000000000000000602082015281565b8473ffffffffffffffffffffffffffffffffffffffff168673ffffffffffffffffffffffffffffffffffffffff168873ffffffffffffffffffffffffffffffffffffffff167fcad98ce2f54320f9a3cbfcabd750461d8fbc469076324d37907488ff1d45c29087878787604051808581526020018481526020018060200180602001838103835285818151815260200191508051906020019080838360005b83811015612158578181015183820152602001612140565b50505050905090810190601f1680156121855780820380516001836020036101000a031916815260200191505b50838103825284518152845160209182019186019080838360005b838110156121b85781810151838201526020016121a0565b50505050905090810190601f1680156121e55780820380516001836020036101000a031916815260200191505b50965050505050505060405180910390a450505050505050565b8473ffffffffffffffffffffffffffffffffffffffff168673ffffffffffffffffffffffffffffffffffffffff168873ffffffffffffffffffffffffffffffffffffffff167f44fdc18a9b8ed853260ec560ccf070691dcfa501b4a806b5b5e31eed8bc88b93878787876040518085815260200184815260200180602001806020018381038352858181518152602001915080519060200190808383600083811015612158578181015183820152602001612140565b8373ffffffffffffffffffffffffffffffffffffffff168573ffffffffffffffffffffffffffffffffffffffff168773ffffffffffffffffffffffffffffffffffffffff167f19b85c898cf6ac07e2cd8c5e44f84c9146263ac6861bfef2ed01d419b37c2c36868686604051808481526020018060200180602001838103835285818151815260200191508051906020019080838360005b8381101561236557818101518382015260200161234d565b50505050905090810190601f1680156123925780820380516001836020036101000a031916815260200191505b50838103825284518152845160209182019186019080838360005b838110156123c55781810151838201526020016123ad565b50505050905090810190601f1680156123f25780820380516001836020036101000a031916815260200191505b509550505050505060405180910390a450505050505056fea165627a7a723058209c571af525ade80827c6956435b0ee6e0c23e895d9a346f40cef96267bd878370029",
				"opcodes": "PUSH1 0x80 PUSH1 0x40 MSTORE CALLVALUE DUP1 ISZERO PUSH2 0x10 JUMPI PUSH1 0x0 DUP1 REVERT JUMPDEST POP PUSH1 0x40 MLOAD PUSH1 0x20 DUP1 PUSH2 0x2498 DUP4 CODECOPY DUP2 ADD DUP1 PUSH1 0x40 MSTORE PUSH1 0x20 DUP2 LT ISZERO PUSH2 0x30 JUMPI PUSH1 0x0 DUP1 REVERT JUMPDEST POP MLOAD PUSH1 0x0 DUP1 SLOAD PUSH1 0x1 PUSH1 0xA0 PUSH1 0x2 EXP SUB SWAP1 SWAP3 AND PUSH1 0x1 PUSH1 0xA0 PUSH1 0x2 EXP SUB NOT SWAP1 SWAP3 AND SWAP2 SWAP1 SWAP2 OR SWAP1 SSTORE PUSH2 0x2436 DUP1 PUSH2 0x62 PUSH1 0x0 CODECOPY PUSH1 0x0 RETURN INVALID PUSH1 0x80 PUSH1 0x40 MSTORE PUSH1 0x4 CALLDATASIZE LT PUSH2 0xE5 JUMPI PUSH4 0xFFFFFFFF PUSH29 0x100000000000000000000000000000000000000000000000000000000 PUSH1 0x0 CALLDATALOAD DIV AND PUSH4 0x1981E645 DUP2 EQ PUSH2 0xEA JUMPI DUP1 PUSH4 0x2A44FBA5 EQ PUSH2 0x1A4 JUMPI DUP1 PUSH4 0x2CC4E4B6 EQ PUSH2 0x1F6 JUMPI DUP1 PUSH4 0x2EC57612 EQ PUSH2 0x2F7 JUMPI DUP1 PUSH4 0x2F82AFF3 EQ PUSH2 0x3F8 JUMPI DUP1 PUSH4 0x41167AA9 EQ PUSH2 0x4ED JUMPI DUP1 PUSH4 0x52005FCC EQ PUSH2 0x54D JUMPI DUP1 PUSH4 0x554A7818 EQ PUSH2 0x5FF JUMPI DUP1 PUSH4 0x587FEF54 EQ PUSH2 0x655 JUMPI DUP1 PUSH4 0x89FCD796 EQ PUSH2 0x6FB JUMPI DUP1 PUSH4 0x91F1DF84 EQ PUSH2 0x739 JUMPI DUP1 PUSH4 0xD5AAA73A EQ PUSH2 0x789 JUMPI DUP1 PUSH4 0xE42A1787 EQ PUSH2 0x7D9 JUMPI DUP1 PUSH4 0xF39BA932 EQ PUSH2 0x88B JUMPI DUP1 PUSH4 0xF78E518F EQ PUSH2 0x8DD JUMPI DUP1 PUSH4 0xFFA1AD74 EQ PUSH2 0x93D JUMPI JUMPDEST PUSH1 0x0 DUP1 REVERT JUMPDEST CALLVALUE DUP1 ISZERO PUSH2 0xF6 JUMPI PUSH1 0x0 DUP1 REVERT JUMPDEST POP PUSH2 0x190 PUSH1 0x4 DUP1 CALLDATASIZE SUB PUSH1 0x40 DUP2 LT ISZERO PUSH2 0x10D JUMPI PUSH1 0x0 DUP1 REVERT JUMPDEST PUSH32 0xFFFFFFFF00000000000000000000000000000000000000000000000000000000 DUP3 CALLDATALOAD AND SWAP2 SWAP1 DUP2 ADD SWAP1 PUSH1 0x40 DUP2 ADD PUSH1 0x20 DUP3 ADD CALLDATALOAD PUSH5 0x100000000 DUP2 GT ISZERO PUSH2 0x151 JUMPI PUSH1 0x0 DUP1 REVERT JUMPDEST DUP3 ADD DUP4 PUSH1 0x20 DUP3 ADD GT ISZERO PUSH2 0x163 JUMPI PUSH1 0x0 DUP1 REVERT JUMPDEST DUP1 CALLDATALOAD SWAP1 PUSH1 0x20 ADD SWAP2 DUP5 PUSH1 0x1 DUP4 MUL DUP5 ADD GT PUSH5 0x100000000 DUP4 GT OR ISZERO PUSH2 0x185 JUMPI PUSH1 0x0 DUP1 REVERT JUMPDEST POP SWAP1 SWAP3 POP SWAP1 POP PUSH2 0x9C7 JUMP JUMPDEST PUSH1 0x40 DUP1 MLOAD SWAP2 ISZERO ISZERO DUP3 MSTORE MLOAD SWAP1 DUP2 SWAP1 SUB PUSH1 0x20 ADD SWAP1 RETURN JUMPDEST CALLVALUE DUP1 ISZERO PUSH2 0x1B0 JUMPI PUSH1 0x0 DUP1 REVERT JUMPDEST POP PUSH2 0x190 PUSH1 0x4 DUP1 CALLDATASIZE SUB PUSH1 0x60 DUP2 LT ISZERO PUSH2 0x1C7 JUMPI PUSH1 0x0 DUP1 REVERT JUMPDEST POP PUSH20 0xFFFFFFFFFFFFFFFFFFFFFFFFFFFFFFFFFFFFFFFF DUP2 CALLDATALOAD DUP2 AND SWAP2 PUSH1 0x20 DUP2 ADD CALLDATALOAD DUP3 AND SWAP2 PUSH1 0x40 SWAP1 SWAP2 ADD CALLDATALOAD AND PUSH2 0xBB2 JUMP JUMPDEST CALLVALUE DUP1 ISZERO PUSH2 0x202 JUMPI PUSH1 0x0 DUP1 REVERT JUMPDEST POP PUSH2 0x190 PUSH1 0x4 DUP1 CALLDATASIZE SUB PUSH1 0xC0 DUP2 LT ISZERO PUSH2 0x219 JUMPI PUSH1 0x0 DUP1 REVERT JUMPDEST PUSH20 0xFFFFFFFFFFFFFFFFFFFFFFFFFFFFFFFFFFFFFFFF DUP3 CALLDATALOAD DUP2 AND SWAP3 PUSH1 0x20 DUP2 ADD CALLDATALOAD SWAP1 SWAP2 AND SWAP2 PUSH1 0x40 DUP3 ADD CALLDATALOAD SWAP2 PUSH1 0x60 DUP2 ADD CALLDATALOAD SWAP2 DUP2 ADD SWAP1 PUSH1 0xA0 DUP2 ADD PUSH1 0x80 DUP3 ADD CALLDATALOAD PUSH5 0x100000000 DUP2 GT ISZERO PUSH2 0x266 JUMPI PUSH1 0x0 DUP1 REVERT JUMPDEST DUP3 ADD DUP4 PUSH1 0x20 DUP3 ADD GT ISZERO PUSH2 0x278 JUMPI PUSH1 0x0 DUP1 REVERT JUMPDEST DUP1 CALLDATALOAD SWAP1 PUSH1 0x20 ADD SWAP2 DUP5 PUSH1 0x1 DUP4 MUL DUP5 ADD GT PUSH5 0x100000000 DUP4 GT OR ISZERO PUSH2 0x29A JUMPI PUSH1 0x0 DUP1 REVERT JUMPDEST SWAP2 SWAP4 SWAP1 SWAP3 SWAP1 SWAP2 PUSH1 0x20 DUP2 ADD SWAP1 CALLDATALOAD PUSH5 0x100000000 DUP2 GT ISZERO PUSH2 0x2B8 JUMPI PUSH1 0x0 DUP1 REVERT JUMPDEST DUP3 ADD DUP4 PUSH1 0x20 DUP3 ADD GT ISZERO PUSH2 0x2CA JUMPI PUSH1 0x0 DUP1 REVERT JUMPDEST DUP1 CALLDATALOAD SWAP1 PUSH1 0x20 ADD SWAP2 DUP5 PUSH1 0x1 DUP4 MUL DUP5 ADD GT PUSH5 0x100000000 DUP4 GT OR ISZERO PUSH2 0x2EC JUMPI PUSH1 0x0 DUP1 REVERT JUMPDEST POP SWAP1 SWAP3 POP SWAP1 POP PUSH2 0xD6E JUMP JUMPDEST CALLVALUE DUP1 ISZERO PUSH2 0x303 JUMPI PUSH1 0x0 DUP1 REVERT JUMPDEST POP PUSH2 0x190 PUSH1 0x4 DUP1 CALLDATASIZE SUB PUSH1 0xC0 DUP2 LT ISZERO PUSH2 0x31A JUMPI PUSH1 0x0 DUP1 REVERT JUMPDEST PUSH20 0xFFFFFFFFFFFFFFFFFFFFFFFFFFFFFFFFFFFFFFFF DUP3 CALLDATALOAD DUP2 AND SWAP3 PUSH1 0x20 DUP2 ADD CALLDATALOAD SWAP1 SWAP2 AND SWAP2 PUSH1 0x40 DUP3 ADD CALLDATALOAD SWAP2 PUSH1 0x60 DUP2 ADD CALLDATALOAD SWAP2 DUP2 ADD SWAP1 PUSH1 0xA0 DUP2 ADD PUSH1 0x80 DUP3 ADD CALLDATALOAD PUSH5 0x100000000 DUP2 GT ISZERO PUSH2 0x367 JUMPI PUSH1 0x0 DUP1 REVERT JUMPDEST DUP3 ADD DUP4 PUSH1 0x20 DUP3 ADD GT ISZERO PUSH2 0x379 JUMPI PUSH1 0x0 DUP1 REVERT JUMPDEST DUP1 CALLDATALOAD SWAP1 PUSH1 0x20 ADD SWAP2 DUP5 PUSH1 0x1 DUP4 MUL DUP5 ADD GT PUSH5 0x100000000 DUP4 GT OR ISZERO PUSH2 0x39B JUMPI PUSH1 0x0 DUP1 REVERT JUMPDEST SWAP2 SWAP4 SWAP1 SWAP3 SWAP1 SWAP2 PUSH1 0x20 DUP2 ADD SWAP1 CALLDATALOAD PUSH5 0x100000000 DUP2 GT ISZERO PUSH2 0x3B9 JUMPI PUSH1 0x0 DUP1 REVERT JUMPDEST DUP3 ADD DUP4 PUSH1 0x20 DUP3 ADD GT ISZERO PUSH2 0x3CB JUMPI PUSH1 0x0 DUP1 REVERT JUMPDEST DUP1 CALLDATALOAD SWAP1 PUSH1 0x20 ADD SWAP2 DUP5 PUSH1 0x1 DUP4 MUL DUP5 ADD GT PUSH5 0x100000000 DUP4 GT OR ISZERO PUSH2 0x3ED JUMPI PUSH1 0x0 DUP1 REVERT JUMPDEST POP SWAP1 SWAP3 POP SWAP1 POP PUSH2 0xEB4 JUMP JUMPDEST CALLVALUE DUP1 ISZERO PUSH2 0x404 JUMPI PUSH1 0x0 DUP1 REVERT JUMPDEST POP PUSH2 0x190 PUSH1 0x4 DUP1 CALLDATASIZE SUB PUSH1 0xA0 DUP2 LT ISZERO PUSH2 0x41B JUMPI PUSH1 0x0 DUP1 REVERT JUMPDEST PUSH20 0xFFFFFFFFFFFFFFFFFFFFFFFFFFFFFFFFFFFFFFFF DUP3 CALLDATALOAD DUP2 AND SWAP3 PUSH1 0x20 DUP2 ADD CALLDATALOAD SWAP1 SWAP2 AND SWAP2 DUP2 ADD SWAP1 PUSH1 0x60 DUP2 ADD PUSH1 0x40 DUP3 ADD CALLDATALOAD PUSH5 0x100000000 DUP2 GT ISZERO PUSH2 0x45C JUMPI PUSH1 0x0 DUP1 REVERT JUMPDEST DUP3 ADD DUP4 PUSH1 0x20 DUP3 ADD GT ISZERO PUSH2 0x46E JUMPI PUSH1 0x0 DUP1 REVERT JUMPDEST DUP1 CALLDATALOAD SWAP1 PUSH1 0x20 ADD SWAP2 DUP5 PUSH1 0x1 DUP4 MUL DUP5 ADD GT PUSH5 0x100000000 DUP4 GT OR ISZERO PUSH2 0x490 JUMPI PUSH1 0x0 DUP1 REVERT JUMPDEST SWAP2 SWAP4 SWAP1 SWAP3 SWAP1 SWAP2 PUSH1 0x20 DUP2 ADD SWAP1 CALLDATALOAD PUSH5 0x100000000 DUP2 GT ISZERO PUSH2 0x4AE JUMPI PUSH1 0x0 DUP1 REVERT JUMPDEST DUP3 ADD DUP4 PUSH1 0x20 DUP3 ADD GT ISZERO PUSH2 0x4C0 JUMPI PUSH1 0x0 DUP1 REVERT JUMPDEST DUP1 CALLDATALOAD SWAP1 PUSH1 0x20 ADD SWAP2 DUP5 PUSH1 0x1 DUP4 MUL DUP5 ADD GT PUSH5 0x100000000 DUP4 GT OR ISZERO PUSH2 0x4E2 JUMPI PUSH1 0x0 DUP1 REVERT JUMPDEST SWAP2 SWAP4 POP SWAP2 POP CALLDATALOAD PUSH2 0xFF6 JUMP JUMPDEST CALLVALUE DUP1 ISZERO PUSH2 0x4F9 JUMPI PUSH1 0x0 DUP1 REVERT JUMPDEST POP PUSH2 0x190 PUSH1 0x4 DUP1 CALLDATASIZE SUB PUSH1 0xA0 DUP2 LT ISZERO PUSH2 0x510 JUMPI PUSH1 0x0 DUP1 REVERT JUMPDEST POP PUSH20 0xFFFFFFFFFFFFFFFFFFFFFFFFFFFFFFFFFFFFFFFF DUP2 CALLDATALOAD DUP2 AND SWAP2 PUSH1 0x20 DUP2 ADD CALLDATALOAD DUP3 AND SWAP2 PUSH1 0x40 DUP3 ADD CALLDATALOAD DUP2 AND SWAP2 PUSH1 0x60 DUP2 ADD CALLDATALOAD SWAP1 SWAP2 AND SWAP1 PUSH1 0x80 ADD CALLDATALOAD PUSH2 0x113A JUMP JUMPDEST CALLVALUE DUP1 ISZERO PUSH2 0x559 JUMPI PUSH1 0x0 DUP1 REVERT JUMPDEST POP PUSH2 0x190 PUSH1 0x4 DUP1 CALLDATASIZE SUB PUSH1 0x80 DUP2 LT ISZERO PUSH2 0x570 JUMPI PUSH1 0x0 DUP1 REVERT JUMPDEST PUSH32 0xFFFFFFFF00000000000000000000000000000000000000000000000000000000 DUP3 CALLDATALOAD AND SWAP2 PUSH1 0x20 DUP2 ADD CALLDATALOAD SWAP2 PUSH1 0x40 DUP3 ADD CALLDATALOAD SWAP2 SWAP1 DUP2 ADD SWAP1 PUSH1 0x80 DUP2 ADD PUSH1 0x60 DUP3 ADD CALLDATALOAD PUSH5 0x100000000 DUP2 GT ISZERO PUSH2 0x5C0 JUMPI PUSH1 0x0 DUP1 REVERT JUMPDEST DUP3 ADD DUP4 PUSH1 0x20 DUP3 ADD GT ISZERO PUSH2 0x5D2 JUMPI PUSH1 0x0 DUP1 REVERT JUMPDEST DUP1 CALLDATALOAD SWAP1 PUSH1 0x20 ADD SWAP2 DUP5 PUSH1 0x1 DUP4 MUL DUP5 ADD GT PUSH5 0x100000000 DUP4 GT OR ISZERO PUSH2 0x5F4 JUMPI PUSH1 0x0 DUP1 REVERT JUMPDEST POP SWAP1 SWAP3 POP SWAP1 POP PUSH2 0x146B JUMP JUMPDEST CALLVALUE DUP1 ISZERO PUSH2 0x60B JUMPI PUSH1 0x0 DUP1 REVERT JUMPDEST POP PUSH2 0x190 PUSH1 0x4 DUP1 CALLDATASIZE SUB PUSH1 0x80 DUP2 LT ISZERO PUSH2 0x622 JUMPI PUSH1 0x0 DUP1 REVERT JUMPDEST POP PUSH20 0xFFFFFFFFFFFFFFFFFFFFFFFFFFFFFFFFFFFFFFFF DUP2 CALLDATALOAD DUP2 AND SWAP2 PUSH1 0x20 DUP2 ADD CALLDATALOAD SWAP1 SWAP2 AND SWAP1 PUSH1 0x40 DUP2 ADD CALLDATALOAD SWAP1 PUSH1 0x60 ADD CALLDATALOAD PUSH2 0x165A JUMP JUMPDEST CALLVALUE DUP1 ISZERO PUSH2 0x661 JUMPI PUSH1 0x0 DUP1 REVERT JUMPDEST POP PUSH2 0x190 PUSH1 0x4 DUP1 CALLDATASIZE SUB PUSH1 0x40 DUP2 LT ISZERO PUSH2 0x678 JUMPI PUSH1 0x0 DUP1 REVERT JUMPDEST PUSH32 0xFFFFFFFF00000000000000000000000000000000000000000000000000000000 DUP3 CALLDATALOAD AND SWAP2 SWAP1 DUP2 ADD SWAP1 PUSH1 0x40 DUP2 ADD PUSH1 0x20 DUP3 ADD CALLDATALOAD PUSH5 0x100000000 DUP2 GT ISZERO PUSH2 0x6BC JUMPI PUSH1 0x0 DUP1 REVERT JUMPDEST DUP3 ADD DUP4 PUSH1 0x20 DUP3 ADD GT ISZERO PUSH2 0x6CE JUMPI PUSH1 0x0 DUP1 REVERT JUMPDEST DUP1 CALLDATALOAD SWAP1 PUSH1 0x20 ADD SWAP2 DUP5 PUSH1 0x1 DUP4 MUL DUP5 ADD GT PUSH5 0x100000000 DUP4 GT OR ISZERO PUSH2 0x6F0 JUMPI PUSH1 0x0 DUP1 REVERT JUMPDEST POP SWAP1 SWAP3 POP SWAP1 POP PUSH2 0x1793 JUMP JUMPDEST CALLVALUE DUP1 ISZERO PUSH2 0x707 JUMPI PUSH1 0x0 DUP1 REVERT JUMPDEST POP PUSH2 0x710 PUSH2 0x1808 JUMP JUMPDEST PUSH1 0x40 DUP1 MLOAD PUSH20 0xFFFFFFFFFFFFFFFFFFFFFFFFFFFFFFFFFFFFFFFF SWAP1 SWAP3 AND DUP3 MSTORE MLOAD SWAP1 DUP2 SWAP1 SUB PUSH1 0x20 ADD SWAP1 RETURN JUMPDEST CALLVALUE DUP1 ISZERO PUSH2 0x745 JUMPI PUSH1 0x0 DUP1 REVERT JUMPDEST POP PUSH2 0x190 PUSH1 0x4 DUP1 CALLDATASIZE SUB PUSH1 0x60 DUP2 LT ISZERO PUSH2 0x75C JUMPI PUSH1 0x0 DUP1 REVERT JUMPDEST POP PUSH20 0xFFFFFFFFFFFFFFFFFFFFFFFFFFFFFFFFFFFFFFFF DUP2 CALLDATALOAD DUP2 AND SWAP2 PUSH1 0x20 DUP2 ADD CALLDATALOAD SWAP1 SWAP2 AND SWAP1 PUSH1 0x40 ADD CALLDATALOAD PUSH2 0x1824 JUMP JUMPDEST CALLVALUE DUP1 ISZERO PUSH2 0x795 JUMPI PUSH1 0x0 DUP1 REVERT JUMPDEST POP PUSH2 0x190 PUSH1 0x4 DUP1 CALLDATASIZE SUB PUSH1 0x60 DUP2 LT ISZERO PUSH2 0x7AC JUMPI PUSH1 0x0 DUP1 REVERT JUMPDEST POP PUSH20 0xFFFFFFFFFFFFFFFFFFFFFFFFFFFFFFFFFFFFFFFF DUP2 CALLDATALOAD DUP2 AND SWAP2 PUSH1 0x20 DUP2 ADD CALLDATALOAD SWAP1 SWAP2 AND SWAP1 PUSH1 0x40 ADD CALLDATALOAD PUSH2 0x194E JUMP JUMPDEST CALLVALUE DUP1 ISZERO PUSH2 0x7E5 JUMPI PUSH1 0x0 DUP1 REVERT JUMPDEST POP PUSH2 0x190 PUSH1 0x4 DUP1 CALLDATASIZE SUB PUSH1 0x80 DUP2 LT ISZERO PUSH2 0x7FC JUMPI PUSH1 0x0 DUP1 REVERT JUMPDEST PUSH32 0xFFFFFFFF00000000000000000000000000000000000000000000000000000000 DUP3 CALLDATALOAD AND SWAP2 PUSH1 0x20 DUP2 ADD CALLDATALOAD SWAP2 PUSH1 0x40 DUP3 ADD CALLDATALOAD SWAP2 SWAP1 DUP2 ADD SWAP1 PUSH1 0x80 DUP2 ADD PUSH1 0x60 DUP3 ADD CALLDATALOAD PUSH5 0x100000000 DUP2 GT ISZERO PUSH2 0x84C JUMPI PUSH1 0x0 DUP1 REVERT JUMPDEST DUP3 ADD DUP4 PUSH1 0x20 DUP3 ADD GT ISZERO PUSH2 0x85E JUMPI PUSH1 0x0 DUP1 REVERT JUMPDEST DUP1 CALLDATALOAD SWAP1 PUSH1 0x20 ADD SWAP2 DUP5 PUSH1 0x1 DUP4 MUL DUP5 ADD GT PUSH5 0x100000000 DUP4 GT OR ISZERO PUSH2 0x880 JUMPI PUSH1 0x0 DUP1 REVERT JUMPDEST POP SWAP1 SWAP3 POP SWAP1 POP PUSH2 0x1B08 JUMP JUMPDEST CALLVALUE DUP1 ISZERO PUSH2 0x897 JUMPI PUSH1 0x0 DUP1 REVERT JUMPDEST POP PUSH2 0x190 PUSH1 0x4 DUP1 CALLDATASIZE SUB PUSH1 0x60 DUP2 LT ISZERO PUSH2 0x8AE JUMPI PUSH1 0x0 DUP1 REVERT JUMPDEST POP PUSH20 0xFFFFFFFFFFFFFFFFFFFFFFFFFFFFFFFFFFFFFFFF DUP2 CALLDATALOAD DUP2 AND SWAP2 PUSH1 0x20 DUP2 ADD CALLDATALOAD DUP3 AND SWAP2 PUSH1 0x40 SWAP1 SWAP2 ADD CALLDATALOAD AND PUSH2 0x1B7D JUMP JUMPDEST CALLVALUE DUP1 ISZERO PUSH2 0x8E9 JUMPI PUSH1 0x0 DUP1 REVERT JUMPDEST POP PUSH2 0x190 PUSH1 0x4 DUP1 CALLDATASIZE SUB PUSH1 0xA0 DUP2 LT ISZERO PUSH2 0x900 JUMPI PUSH1 0x0 DUP1 REVERT JUMPDEST POP PUSH20 0xFFFFFFFFFFFFFFFFFFFFFFFFFFFFFFFFFFFFFFFF DUP2 CALLDATALOAD DUP2 AND SWAP2 PUSH1 0x20 DUP2 ADD CALLDATALOAD DUP3 AND SWAP2 PUSH1 0x40 DUP3 ADD CALLDATALOAD DUP2 AND SWAP2 PUSH1 0x60 DUP2 ADD CALLDATALOAD SWAP1 SWAP2 AND SWAP1 PUSH1 0x80 ADD CALLDATALOAD PUSH2 0x1D39 JUMP JUMPDEST CALLVALUE DUP1 ISZERO PUSH2 0x949 JUMPI PUSH1 0x0 DUP1 REVERT JUMPDEST POP PUSH2 0x952 PUSH2 0x206A JUMP JUMPDEST PUSH1 0x40 DUP1 MLOAD PUSH1 0x20 DUP1 DUP3 MSTORE DUP4 MLOAD DUP2 DUP4 ADD MSTORE DUP4 MLOAD SWAP2 SWAP3 DUP4 SWAP3 SWAP1 DUP4 ADD SWAP2 DUP6 ADD SWAP1 DUP1 DUP4 DUP4 PUSH1 0x0 JUMPDEST DUP4 DUP2 LT ISZERO PUSH2 0x98C JUMPI DUP2 DUP2 ADD MLOAD DUP4 DUP3 ADD MSTORE PUSH1 0x20 ADD PUSH2 0x974 JUMP JUMPDEST POP POP POP POP SWAP1 POP SWAP1 DUP2 ADD SWAP1 PUSH1 0x1F AND DUP1 ISZERO PUSH2 0x9B9 JUMPI DUP1 DUP3 SUB DUP1 MLOAD PUSH1 0x1 DUP4 PUSH1 0x20 SUB PUSH2 0x100 EXP SUB NOT AND DUP2 MSTORE PUSH1 0x20 ADD SWAP2 POP JUMPDEST POP SWAP3 POP POP POP PUSH1 0x40 MLOAD DUP1 SWAP2 SUB SWAP1 RETURN JUMPDEST PUSH1 0x0 DUP1 SLOAD PUSH1 0x40 DUP1 MLOAD PUSH32 0x84987E8300000000000000000000000000000000000000000000000000000000 DUP2 MSTORE SWAP1 MLOAD CALLER SWAP3 PUSH20 0xFFFFFFFFFFFFFFFFFFFFFFFFFFFFFFFFFFFFFFFF AND SWAP2 DUP3 SWAP2 PUSH4 0x84987E83 SWAP2 PUSH1 0x4 DUP1 DUP3 ADD SWAP3 PUSH1 0x20 SWAP3 SWAP1 SWAP2 SWAP1 DUP3 SWAP1 SUB ADD DUP2 DUP7 DUP1 EXTCODESIZE ISZERO DUP1 ISZERO PUSH2 0xA35 JUMPI PUSH1 0x0 DUP1 REVERT JUMPDEST POP GAS STATICCALL ISZERO DUP1 ISZERO PUSH2 0xA49 JUMPI RETURNDATASIZE PUSH1 0x0 DUP1 RETURNDATACOPY RETURNDATASIZE PUSH1 0x0 REVERT JUMPDEST POP POP POP POP PUSH1 0x40 MLOAD RETURNDATASIZE PUSH1 0x20 DUP2 LT ISZERO PUSH2 0xA5F JUMPI PUSH1 0x0 DUP1 REVERT JUMPDEST POP MLOAD PUSH1 0x40 DUP1 MLOAD PUSH32 0x9AA4D0A000000000000000000000000000000000000000000000000000000000 DUP2 MSTORE PUSH20 0xFFFFFFFFFFFFFFFFFFFFFFFFFFFFFFFFFFFFFFFF DUP6 DUP2 AND PUSH1 0x4 DUP4 ADD MSTORE SWAP2 MLOAD SWAP2 SWAP1 SWAP3 AND SWAP2 PUSH4 0x9AA4D0A0 SWAP2 PUSH1 0x24 DUP1 DUP4 ADD SWAP3 PUSH1 0x20 SWAP3 SWAP2 SWAP1 DUP3 SWAP1 SUB ADD DUP2 DUP7 DUP1 EXTCODESIZE ISZERO DUP1 ISZERO PUSH2 0xAD1 JUMPI PUSH1 0x0 DUP1 REVERT JUMPDEST POP GAS STATICCALL ISZERO DUP1 ISZERO PUSH2 0xAE5 JUMPI RETURNDATASIZE PUSH1 0x0 DUP1 RETURNDATACOPY RETURNDATASIZE PUSH1 0x0 REVERT JUMPDEST POP POP POP POP PUSH1 0x40 MLOAD RETURNDATASIZE PUSH1 0x20 DUP2 LT ISZERO PUSH2 0xAFB JUMPI PUSH1 0x0 DUP1 REVERT JUMPDEST POP MLOAD ISZERO ISZERO PUSH2 0xB08 JUMPI PUSH1 0x0 DUP1 REVERT JUMPDEST DUP6 PUSH28 0xFFFFFFFFFFFFFFFFFFFFFFFFFFFFFFFFFFFFFFFFFFFFFFFFFFFFFFFF NOT AND PUSH32 0x1AB924023585FAE2457EFD7F78B659DA2C6909E8F8C5785DC553CCA95AB5BAC2 DUP7 DUP7 PUSH1 0x40 MLOAD DUP1 DUP1 PUSH1 0x20 ADD DUP3 DUP2 SUB DUP3 MSTORE DUP5 DUP5 DUP3 DUP2 DUP2 MSTORE PUSH1 0x20 ADD SWAP3 POP DUP1 DUP3 DUP5 CALLDATACOPY PUSH1 0x0 DUP4 DUP3 ADD MSTORE PUSH1 0x40 MLOAD PUSH1 0x1F SWAP1 SWAP2 ADD PUSH32 0xFFFFFFFFFFFFFFFFFFFFFFFFFFFFFFFFFFFFFFFFFFFFFFFFFFFFFFFFFFFFFFE0 AND SWAP1 SWAP3 ADD DUP3 SWAP1 SUB SWAP6 POP SWAP1 SWAP4 POP POP POP POP LOG2 POP PUSH1 0x1 SWAP6 SWAP5 POP POP POP POP POP JUMP JUMPDEST PUSH1 0x0 DUP1 SLOAD PUSH1 0x40 DUP1 MLOAD PUSH32 0x4493890000000000000000000000000000000000000000000000000000000000 DUP2 MSTORE CALLER PUSH1 0x4 DUP3 ADD DUP2 SWAP1 MSTORE SWAP2 MLOAD SWAP2 SWAP3 PUSH20 0xFFFFFFFFFFFFFFFFFFFFFFFFFFFFFFFFFFFFFFFF AND SWAP2 DUP3 SWAP2 PUSH4 0x44938900 SWAP2 PUSH1 0x24 DUP1 DUP4 ADD SWAP3 PUSH1 0x20 SWAP3 SWAP2 SWAP1 DUP3 SWAP1 SUB ADD DUP2 DUP7 DUP1 EXTCODESIZE ISZERO DUP1 ISZERO PUSH2 0xC27 JUMPI PUSH1 0x0 DUP1 REVERT JUMPDEST POP GAS STATICCALL ISZERO DUP1 ISZERO PUSH2 0xC3B JUMPI RETURNDATASIZE PUSH1 0x0 DUP1 RETURNDATACOPY RETURNDATASIZE PUSH1 0x0 REVERT JUMPDEST POP POP POP POP PUSH1 0x40 MLOAD RETURNDATASIZE PUSH1 0x20 DUP2 LT ISZERO PUSH2 0xC51 JUMPI PUSH1 0x0 DUP1 REVERT JUMPDEST POP MLOAD ISZERO ISZERO PUSH2 0xC5E JUMPI PUSH1 0x0 DUP1 REVERT JUMPDEST PUSH1 0x0 SLOAD PUSH1 0x40 DUP1 MLOAD PUSH32 0xD88C271E00000000000000000000000000000000000000000000000000000000 DUP2 MSTORE PUSH20 0xFFFFFFFFFFFFFFFFFFFFFFFFFFFFFFFFFFFFFFFF DUP1 DUP11 AND PUSH1 0x4 DUP4 ADD MSTORE SWAP2 MLOAD DUP10 SWAP4 SWAP3 SWAP1 SWAP3 AND SWAP2 DUP3 SWAP2 PUSH4 0xD88C271E SWAP2 PUSH1 0x24 DUP1 DUP4 ADD SWAP3 PUSH1 0x20 SWAP3 SWAP2 SWAP1 DUP3 SWAP1 SUB ADD DUP2 DUP7 DUP1 EXTCODESIZE ISZERO DUP1 ISZERO PUSH2 0xCD5 JUMPI PUSH1 0x0 DUP1 REVERT JUMPDEST POP GAS STATICCALL ISZERO DUP1 ISZERO PUSH2 0xCE9 JUMPI RETURNDATASIZE PUSH1 0x0 DUP1 RETURNDATACOPY RETURNDATASIZE PUSH1 0x0 REVERT JUMPDEST POP POP POP POP PUSH1 0x40 MLOAD RETURNDATASIZE PUSH1 0x20 DUP2 LT ISZERO PUSH2 0xCFF JUMPI PUSH1 0x0 DUP1 REVERT JUMPDEST POP MLOAD ISZERO ISZERO PUSH2 0xD0C JUMPI PUSH1 0x0 DUP1 REVERT JUMPDEST PUSH1 0x40 DUP1 MLOAD PUSH20 0xFFFFFFFFFFFFFFFFFFFFFFFFFFFFFFFFFFFFFFFF DUP9 DUP2 AND DUP3 MSTORE SWAP2 MLOAD DUP3 DUP12 AND SWAP3 CALLER SWAP3 SWAP1 DUP12 AND SWAP2 PUSH32 0xF8DE16A318D247ACAC1CD974965154D35F0F1FE9B5869F64C5BB299ECE9CB575 SWAP2 DUP2 SWAP1 SUB PUSH1 0x20 ADD SWAP1 LOG4 POP PUSH1 0x1 SWAP8 SWAP7 POP POP POP POP POP POP POP JUMP JUMPDEST PUSH1 0x0 DUP1 SLOAD PUSH1 0x40 DUP1 MLOAD PUSH32 0x4493890000000000000000000000000000000000000000000000000000000000 DUP2 MSTORE CALLER PUSH1 0x4 DUP3 ADD DUP2 SWAP1 MSTORE SWAP2 MLOAD SWAP2 SWAP3 PUSH20 0xFFFFFFFFFFFFFFFFFFFFFFFFFFFFFFFFFFFFFFFF AND SWAP2 DUP3 SWAP2 PUSH4 0x44938900 SWAP2 PUSH1 0x24 DUP1 DUP4 ADD SWAP3 PUSH1 0x20 SWAP3 SWAP2 SWAP1 DUP3 SWAP1 SUB ADD DUP2 DUP7 DUP1 EXTCODESIZE ISZERO DUP1 ISZERO PUSH2 0xDE3 JUMPI PUSH1 0x0 DUP1 REVERT JUMPDEST POP GAS STATICCALL ISZERO DUP1 ISZERO PUSH2 0xDF7 JUMPI RETURNDATASIZE PUSH1 0x0 DUP1 RETURNDATACOPY RETURNDATASIZE PUSH1 0x0 REVERT JUMPDEST POP POP POP POP PUSH1 0x40 MLOAD RETURNDATASIZE PUSH1 0x20 DUP2 LT ISZERO PUSH2 0xE0D JUMPI PUSH1 0x0 DUP1 REVERT JUMPDEST POP MLOAD ISZERO ISZERO PUSH2 0xE1A JUMPI PUSH1 0x0 DUP1 REVERT JUMPDEST PUSH2 0xEA3 DUP11 DUP13 CALLER DUP13 DUP13 DUP13 DUP13 DUP1 DUP1 PUSH1 0x1F ADD PUSH1 0x20 DUP1 SWAP2 DIV MUL PUSH1 0x20 ADD PUSH1 0x40 MLOAD SWAP1 DUP2 ADD PUSH1 0x40 MSTORE DUP1 SWAP4 SWAP3 SWAP2 SWAP1 DUP2 DUP2 MSTORE PUSH1 0x20 ADD DUP4 DUP4 DUP1 DUP3 DUP5 CALLDATACOPY PUSH1 0x0 DUP2 DUP5 ADD MSTORE PUSH1 0x1F NOT PUSH1 0x1F DUP3 ADD AND SWAP1 POP DUP1 DUP4 ADD SWAP3 POP POP POP POP POP POP POP DUP12 DUP12 DUP1 DUP1 PUSH1 0x1F ADD PUSH1 0x20 DUP1 SWAP2 DIV MUL PUSH1 0x20 ADD PUSH1 0x40 MLOAD SWAP1 DUP2 ADD PUSH1 0x40 MSTORE DUP1 SWAP4 SWAP3 SWAP2 SWAP1 DUP2 DUP2 MSTORE PUSH1 0x20 ADD DUP4 DUP4 DUP1 DUP3 DUP5 CALLDATACOPY PUSH1 0x0 SWAP3 ADD SWAP2 SWAP1 SWAP2 MSTORE POP PUSH2 0x20A1 SWAP3 POP POP POP JUMP JUMPDEST POP PUSH1 0x1 SWAP11 SWAP10 POP POP POP POP POP POP POP POP POP POP JUMP JUMPDEST PUSH1 0x0 DUP1 SLOAD PUSH1 0x40 DUP1 MLOAD PUSH32 0x4493890000000000000000000000000000000000000000000000000000000000 DUP2 MSTORE CALLER PUSH1 0x4 DUP3 ADD DUP2 SWAP1 MSTORE SWAP2 MLOAD SWAP2 SWAP3 PUSH20 0xFFFFFFFFFFFFFFFFFFFFFFFFFFFFFFFFFFFFFFFF AND SWAP2 DUP3 SWAP2 PUSH4 0x44938900 SWAP2 PUSH1 0x24 DUP1 DUP4 ADD SWAP3 PUSH1 0x20 SWAP3 SWAP2 SWAP1 DUP3 SWAP1 SUB ADD DUP2 DUP7 DUP1 EXTCODESIZE ISZERO DUP1 ISZERO PUSH2 0xF29 JUMPI PUSH1 0x0 DUP1 REVERT JUMPDEST POP GAS STATICCALL ISZERO DUP1 ISZERO PUSH2 0xF3D JUMPI RETURNDATASIZE PUSH1 0x0 DUP1 RETURNDATACOPY RETURNDATASIZE PUSH1 0x0 REVERT JUMPDEST POP POP POP POP PUSH1 0x40 MLOAD RETURNDATASIZE PUSH1 0x20 DUP2 LT ISZERO PUSH2 0xF53 JUMPI PUSH1 0x0 DUP1 REVERT JUMPDEST POP MLOAD ISZERO ISZERO PUSH2 0xF60 JUMPI PUSH1 0x0 DUP1 REVERT JUMPDEST PUSH1 0x0 DUP10 GT PUSH2 0xF6D JUMPI PUSH1 0x0 DUP1 REVERT JUMPDEST PUSH2 0xEA3 DUP11 DUP13 CALLER DUP13 DUP13 DUP13 DUP13 DUP1 DUP1 PUSH1 0x1F ADD PUSH1 0x20 DUP1 SWAP2 DIV MUL PUSH1 0x20 ADD PUSH1 0x40 MLOAD SWAP1 DUP2 ADD PUSH1 0x40 MSTORE DUP1 SWAP4 SWAP3 SWAP2 SWAP1 DUP2 DUP2 MSTORE PUSH1 0x20 ADD DUP4 DUP4 DUP1 DUP3 DUP5 CALLDATACOPY PUSH1 0x0 DUP2 DUP5 ADD MSTORE PUSH1 0x1F NOT PUSH1 0x1F DUP3 ADD AND SWAP1 POP DUP1 DUP4 ADD SWAP3 POP POP POP POP POP POP POP DUP12 DUP12 DUP1 DUP1 PUSH1 0x1F ADD PUSH1 0x20 DUP1 SWAP2 DIV MUL PUSH1 0x20 ADD PUSH1 0x40 MLOAD SWAP1 DUP2 ADD PUSH1 0x40 MSTORE DUP1 SWAP4 SWAP3 SWAP2 SWAP1 DUP2 DUP2 MSTORE PUSH1 0x20 ADD DUP4 DUP4 DUP1 DUP3 DUP5 CALLDATACOPY PUSH1 0x0 SWAP3 ADD SWAP2 SWAP1 SWAP2 MSTORE POP PUSH2 0x21FF SWAP3 POP POP POP JUMP JUMPDEST PUSH1 0x0 DUP1 SLOAD PUSH1 0x40 DUP1 MLOAD PUSH32 0xDCB7A3E000000000000000000000000000000000000000000000000000000000 DUP2 MSTORE CALLER PUSH1 0x4 DUP3 ADD DUP2 SWAP1 MSTORE SWAP2 MLOAD SWAP2 SWAP3 PUSH20 0xFFFFFFFFFFFFFFFFFFFFFFFFFFFFFFFFFFFFFFFF AND SWAP2 DUP3 SWAP2 PUSH4 0xDCB7A3E0 SWAP2 PUSH1 0x24 DUP1 DUP4 ADD SWAP3 PUSH1 0x20 SWAP3 SWAP2 SWAP1 DUP3 SWAP1 SUB ADD DUP2 DUP7 DUP1 EXTCODESIZE ISZERO DUP1 ISZERO PUSH2 0x106B JUMPI PUSH1 0x0 DUP1 REVERT JUMPDEST POP GAS STATICCALL ISZERO DUP1 ISZERO PUSH2 0x107F JUMPI RETURNDATASIZE PUSH1 0x0 DUP1 RETURNDATACOPY RETURNDATASIZE PUSH1 0x0 REVERT JUMPDEST POP POP POP POP PUSH1 0x40 MLOAD RETURNDATASIZE PUSH1 0x20 DUP2 LT ISZERO PUSH2 0x1095 JUMPI PUSH1 0x0 DUP1 REVERT JUMPDEST POP MLOAD ISZERO ISZERO PUSH2 0x10A2 JUMPI PUSH1 0x0 DUP1 REVERT JUMPDEST PUSH2 0x112A DUP10 CALLER DUP13 DUP8 DUP13 DUP13 DUP1 DUP1 PUSH1 0x1F ADD PUSH1 0x20 DUP1 SWAP2 DIV MUL PUSH1 0x20 ADD PUSH1 0x40 MLOAD SWAP1 DUP2 ADD PUSH1 0x40 MSTORE DUP1 SWAP4 SWAP3 SWAP2 SWAP1 DUP2 DUP2 MSTORE PUSH1 0x20 ADD DUP4 DUP4 DUP1 DUP3 DUP5 CALLDATACOPY PUSH1 0x0 DUP2 DUP5 ADD MSTORE PUSH1 0x1F NOT PUSH1 0x1F DUP3 ADD AND SWAP1 POP DUP1 DUP4 ADD SWAP3 POP POP POP POP POP POP POP DUP12 DUP12 DUP1 DUP1 PUSH1 0x1F ADD PUSH1 0x20 DUP1 SWAP2 DIV MUL PUSH1 0x20 ADD PUSH1 0x40 MLOAD SWAP1 DUP2 ADD PUSH1 0x40 MSTORE DUP1 SWAP4 SWAP3 SWAP2 SWAP1 DUP2 DUP2 MSTORE PUSH1 0x20 ADD DUP4 DUP4 DUP1 DUP3 DUP5 CALLDATACOPY PUSH1 0x0 SWAP3 ADD SWAP2 SWAP1 SWAP2 MSTORE POP PUSH2 0x22B5 SWAP3 POP POP POP JUMP JUMPDEST POP PUSH1 0x1 SWAP10 SWAP9 POP POP POP POP POP POP POP POP POP JUMP JUMPDEST PUSH1 0x0 DUP1 SLOAD PUSH1 0x40 DUP1 MLOAD PUSH32 0xD88C271E00000000000000000000000000000000000000000000000000000000 DUP2 MSTORE PUSH20 0xFFFFFFFFFFFFFFFFFFFFFFFFFFFFFFFFFFFFFFFF DUP1 DUP11 AND PUSH1 0x4 DUP4 ADD MSTORE SWAP2 MLOAD DUP10 SWAP4 SWAP3 SWAP1 SWAP3 AND SWAP2 DUP3 SWAP2 PUSH4 0xD88C271E SWAP2 PUSH1 0x24 DUP1 DUP4 ADD SWAP3 PUSH1 0x20 SWAP3 SWAP2 SWAP1 DUP3 SWAP1 SUB ADD DUP2 DUP7 DUP1 EXTCODESIZE ISZERO DUP1 ISZERO PUSH2 0x11B2 JUMPI PUSH1 0x0 DUP1 REVERT JUMPDEST POP GAS STATICCALL ISZERO DUP1 ISZERO PUSH2 0x11C6 JUMPI RETURNDATASIZE PUSH1 0x0 DUP1 RETURNDATACOPY RETURNDATASIZE PUSH1 0x0 REVERT JUMPDEST POP POP POP POP PUSH1 0x40 MLOAD RETURNDATASIZE PUSH1 0x20 DUP2 LT ISZERO PUSH2 0x11DC JUMPI PUSH1 0x0 DUP1 REVERT JUMPDEST POP MLOAD ISZERO ISZERO PUSH2 0x11E9 JUMPI PUSH1 0x0 DUP1 REVERT JUMPDEST PUSH1 0x0 SLOAD PUSH1 0x40 DUP1 MLOAD PUSH32 0x4493890000000000000000000000000000000000000000000000000000000000 DUP2 MSTORE CALLER PUSH1 0x4 DUP3 ADD DUP2 SWAP1 MSTORE SWAP2 MLOAD SWAP2 SWAP3 PUSH20 0xFFFFFFFFFFFFFFFFFFFFFFFFFFFFFFFFFFFFFFFF AND SWAP2 DUP3 SWAP2 PUSH4 0x44938900 SWAP2 PUSH1 0x24 DUP1 DUP4 ADD SWAP3 PUSH1 0x20 SWAP3 SWAP2 SWAP1 DUP3 SWAP1 SUB ADD DUP2 DUP7 DUP1 EXTCODESIZE ISZERO DUP1 ISZERO PUSH2 0x125D JUMPI PUSH1 0x0 DUP1 REVERT JUMPDEST POP GAS STATICCALL ISZERO DUP1 ISZERO PUSH2 0x1271 JUMPI RETURNDATASIZE PUSH1 0x0 DUP1 RETURNDATACOPY RETURNDATASIZE PUSH1 0x0 REVERT JUMPDEST POP POP POP POP PUSH1 0x40 MLOAD RETURNDATASIZE PUSH1 0x20 DUP2 LT ISZERO PUSH2 0x1287 JUMPI PUSH1 0x0 DUP1 REVERT JUMPDEST POP MLOAD ISZERO ISZERO PUSH2 0x1294 JUMPI PUSH1 0x0 DUP1 REVERT JUMPDEST PUSH1 0x0 SLOAD PUSH1 0x40 DUP1 MLOAD PUSH32 0x84987E8300000000000000000000000000000000000000000000000000000000 DUP2 MSTORE SWAP1 MLOAD DUP11 SWAP3 PUSH20 0xFFFFFFFFFFFFFFFFFFFFFFFFFFFFFFFFFFFFFFFF AND SWAP2 DUP3 SWAP2 PUSH4 0x84987E83 SWAP2 PUSH1 0x4 DUP1 DUP3 ADD SWAP3 PUSH1 0x20 SWAP3 SWAP1 SWAP2 SWAP1 DUP3 SWAP1 SUB ADD DUP2 DUP7 DUP1 EXTCODESIZE ISZERO DUP1 ISZERO PUSH2 0x1301 JUMPI PUSH1 0x0 DUP1 REVERT JUMPDEST POP GAS STATICCALL ISZERO DUP1 ISZERO PUSH2 0x1315 JUMPI RETURNDATASIZE PUSH1 0x0 DUP1 RETURNDATACOPY RETURNDATASIZE PUSH1 0x0 REVERT JUMPDEST POP POP POP POP PUSH1 0x40 MLOAD RETURNDATASIZE PUSH1 0x20 DUP2 LT ISZERO PUSH2 0x132B JUMPI PUSH1 0x0 DUP1 REVERT JUMPDEST POP MLOAD PUSH1 0x40 DUP1 MLOAD PUSH32 0x9AA4D0A000000000000000000000000000000000000000000000000000000000 DUP2 MSTORE PUSH20 0xFFFFFFFFFFFFFFFFFFFFFFFFFFFFFFFFFFFFFFFF DUP6 DUP2 AND PUSH1 0x4 DUP4 ADD MSTORE SWAP2 MLOAD SWAP2 SWAP1 SWAP3 AND SWAP2 PUSH4 0x9AA4D0A0 SWAP2 PUSH1 0x24 DUP1 DUP4 ADD SWAP3 PUSH1 0x20 SWAP3 SWAP2 SWAP1 DUP3 SWAP1 SUB ADD DUP2 DUP7 DUP1 EXTCODESIZE ISZERO DUP1 ISZERO PUSH2 0x139D JUMPI PUSH1 0x0 DUP1 REVERT JUMPDEST POP GAS STATICCALL ISZERO DUP1 ISZERO PUSH2 0x13B1 JUMPI RETURNDATASIZE PUSH1 0x0 DUP1 RETURNDATACOPY RETURNDATASIZE PUSH1 0x0 REVERT JUMPDEST POP POP POP POP PUSH1 0x40 MLOAD RETURNDATASIZE PUSH1 0x20 DUP2 LT ISZERO PUSH2 0x13C7 JUMPI PUSH1 0x0 DUP1 REVERT JUMPDEST POP MLOAD ISZERO ISZERO PUSH2 0x13D4 JUMPI PUSH1 0x0 DUP1 REVERT JUMPDEST DUP9 PUSH20 0xFFFFFFFFFFFFFFFFFFFFFFFFFFFFFFFFFFFFFFFF AND DUP11 PUSH20 0xFFFFFFFFFFFFFFFFFFFFFFFFFFFFFFFFFFFFFFFF AND DUP13 PUSH20 0xFFFFFFFFFFFFFFFFFFFFFFFFFFFFFFFFFFFFFFFF AND PUSH32 0xEE9A3802DC92F9753E3CBBB9E5FBBD7558B180539F8104D522584F17CF9C65B7 DUP12 PUSH1 0x0 PUSH1 0x40 MLOAD DUP1 DUP4 DUP2 MSTORE PUSH1 0x20 ADD DUP3 DUP2 MSTORE PUSH1 0x20 ADD SWAP3 POP POP POP PUSH1 0x40 MLOAD DUP1 SWAP2 SUB SWAP1 LOG4 POP PUSH1 0x1 SWAP12 SWAP11 POP POP POP POP POP POP POP POP POP POP POP JUMP JUMPDEST PUSH1 0x0 DUP1 SLOAD PUSH1 0x40 DUP1 MLOAD PUSH32 0x84987E8300000000000000000000000000000000000000000000000000000000 DUP2 MSTORE SWAP1 MLOAD CALLER SWAP3 PUSH20 0xFFFFFFFFFFFFFFFFFFFFFFFFFFFFFFFFFFFFFFFF AND SWAP2 DUP3 SWAP2 PUSH4 0x84987E83 SWAP2 PUSH1 0x4 DUP1 DUP3 ADD SWAP3 PUSH1 0x20 SWAP3 SWAP1 SWAP2 SWAP1 DUP3 SWAP1 SUB ADD DUP2 DUP7 DUP1 EXTCODESIZE ISZERO DUP1 ISZERO PUSH2 0x14D9 JUMPI PUSH1 0x0 DUP1 REVERT JUMPDEST POP GAS STATICCALL ISZERO DUP1 ISZERO PUSH2 0x14ED JUMPI RETURNDATASIZE PUSH1 0x0 DUP1 RETURNDATACOPY RETURNDATASIZE PUSH1 0x0 REVERT JUMPDEST POP POP POP POP PUSH1 0x40 MLOAD RETURNDATASIZE PUSH1 0x20 DUP2 LT ISZERO PUSH2 0x1503 JUMPI PUSH1 0x0 DUP1 REVERT JUMPDEST POP MLOAD PUSH1 0x40 DUP1 MLOAD PUSH32 0x9AA4D0A000000000000000000000000000000000000000000000000000000000 DUP2 MSTORE PUSH20 0xFFFFFFFFFFFFFFFFFFFFFFFFFFFFFFFFFFFFFFFF DUP6 DUP2 AND PUSH1 0x4 DUP4 ADD MSTORE SWAP2 MLOAD SWAP2 SWAP1 SWAP3 AND SWAP2 PUSH4 0x9AA4D0A0 SWAP2 PUSH1 0x24 DUP1 DUP4 ADD SWAP3 PUSH1 0x20 SWAP3 SWAP2 SWAP1 DUP3 SWAP1 SUB ADD DUP2 DUP7 DUP1 EXTCODESIZE ISZERO DUP1 ISZERO PUSH2 0x1575 JUMPI PUSH1 0x0 DUP1 REVERT JUMPDEST POP GAS STATICCALL ISZERO DUP1 ISZERO PUSH2 0x1589 JUMPI RETURNDATASIZE PUSH1 0x0 DUP1 RETURNDATACOPY RETURNDATASIZE PUSH1 0x0 REVERT JUMPDEST POP POP POP POP PUSH1 0x40 MLOAD RETURNDATASIZE PUSH1 0x20 DUP2 LT ISZERO PUSH2 0x159F JUMPI PUSH1 0x0 DUP1 REVERT JUMPDEST POP MLOAD ISZERO ISZERO PUSH2 0x15AC JUMPI PUSH1 0x0 DUP1 REVERT JUMPDEST DUP6 DUP8 DUP10 PUSH28 0xFFFFFFFFFFFFFFFFFFFFFFFFFFFFFFFFFFFFFFFFFFFFFFFFFFFFFFFF NOT AND PUSH32 0x4D9CCF95253DCC539B9D04B5C324B347DEF71D219E832A9B868988365C747F23 DUP9 DUP9 PUSH1 0x40 MLOAD DUP1 DUP1 PUSH1 0x20 ADD DUP3 DUP2 SUB DUP3 MSTORE DUP5 DUP5 DUP3 DUP2 DUP2 MSTORE PUSH1 0x20 ADD SWAP3 POP DUP1 DUP3 DUP5 CALLDATACOPY PUSH1 0x0 DUP4 DUP3 ADD MSTORE PUSH1 0x40 MLOAD PUSH1 0x1F SWAP1 SWAP2 ADD PUSH32 0xFFFFFFFFFFFFFFFFFFFFFFFFFFFFFFFFFFFFFFFFFFFFFFFFFFFFFFFFFFFFFFE0 AND SWAP1 SWAP3 ADD DUP3 SWAP1 SUB SWAP6 POP SWAP1 SWAP4 POP POP POP POP LOG4 POP PUSH1 0x1 SWAP8 SWAP7 POP POP POP POP POP POP POP JUMP JUMPDEST PUSH1 0x0 DUP1 SLOAD PUSH1 0x40 DUP1 MLOAD PUSH32 0x4493890000000000000000000000000000000000000000000000000000000000 DUP2 MSTORE CALLER PUSH1 0x4 DUP3 ADD DUP2 SWAP1 MSTORE SWAP2 MLOAD SWAP2 SWAP3 PUSH20 0xFFFFFFFFFFFFFFFFFFFFFFFFFFFFFFFFFFFFFFFF AND SWAP2 DUP3 SWAP2 PUSH4 0x44938900 SWAP2 PUSH1 0x24 DUP1 DUP4 ADD SWAP3 PUSH1 0x20 SWAP3 SWAP2 SWAP1 DUP3 SWAP1 SUB ADD DUP2 DUP7 DUP1 EXTCODESIZE ISZERO DUP1 ISZERO PUSH2 0x16CF JUMPI PUSH1 0x0 DUP1 REVERT JUMPDEST POP GAS STATICCALL ISZERO DUP1 ISZERO PUSH2 0x16E3 JUMPI RETURNDATASIZE PUSH1 0x0 DUP1 RETURNDATACOPY RETURNDATASIZE PUSH1 0x0 REVERT JUMPDEST POP POP POP POP PUSH1 0x40 MLOAD RETURNDATASIZE PUSH1 0x20 DUP2 LT ISZERO PUSH2 0x16F9 JUMPI PUSH1 0x0 DUP1 REVERT JUMPDEST POP MLOAD ISZERO ISZERO PUSH2 0x1706 JUMPI PUSH1 0x0 DUP1 REVERT JUMPDEST PUSH7 0x2386F26FC10000 DUP6 GT DUP1 ISZERO PUSH2 0x1722 JUMPI POP PUSH7 0x2386F26FC10000 DUP5 GT JUMPDEST ISZERO ISZERO PUSH2 0x172D JUMPI PUSH1 0x0 DUP1 REVERT JUMPDEST PUSH1 0x40 DUP1 MLOAD DUP7 DUP2 MSTORE PUSH1 0x20 DUP2 ADD DUP7 SWAP1 MSTORE DUP2 MLOAD PUSH20 0xFFFFFFFFFFFFFFFFFFFFFFFFFFFFFFFFFFFFFFFF DUP1 DUP12 AND SWAP4 CALLER SWAP4 SWAP2 DUP12 AND SWAP3 PUSH32 0x5A96BA7D7F2705B8C0E85B7B0F2A707FC9A711E97B1C5FED2F47583986748954 SWAP3 DUP2 SWAP1 SUB SWAP1 SWAP2 ADD SWAP1 LOG4 POP PUSH1 0x1 SWAP7 SWAP6 POP POP POP POP POP POP JUMP JUMPDEST PUSH1 0x0 DUP1 SLOAD PUSH1 0x40 DUP1 MLOAD PUSH32 0x4493890000000000000000000000000000000000000000000000000000000000 DUP2 MSTORE CALLER PUSH1 0x4 DUP3 ADD DUP2 SWAP1 MSTORE SWAP2 MLOAD SWAP2 SWAP3 PUSH20 0xFFFFFFFFFFFFFFFFFFFFFFFFFFFFFFFFFFFFFFFF AND SWAP2 DUP3 SWAP2 PUSH4 0x44938900 SWAP2 PUSH1 0x24 DUP1 DUP4 ADD SWAP3 PUSH1 0x20 SWAP3 SWAP2 SWAP1 DUP3 SWAP1 SUB ADD DUP2 DUP7 DUP1 EXTCODESIZE ISZERO DUP1 ISZERO PUSH2 0xAD1 JUMPI PUSH1 0x0 DUP1 REVERT JUMPDEST PUSH1 0x0 SLOAD PUSH20 0xFFFFFFFFFFFFFFFFFFFFFFFFFFFFFFFFFFFFFFFF AND DUP2 JUMP JUMPDEST PUSH1 0x0 DUP1 SLOAD PUSH1 0x40 DUP1 MLOAD PUSH32 0x4493890000000000000000000000000000000000000000000000000000000000 DUP2 MSTORE CALLER PUSH1 0x4 DUP3 ADD DUP2 SWAP1 MSTORE SWAP2 MLOAD SWAP2 SWAP3 PUSH20 0xFFFFFFFFFFFFFFFFFFFFFFFFFFFFFFFFFFFFFFFF AND SWAP2 DUP3 SWAP2 PUSH4 0x44938900 SWAP2 PUSH1 0x24 DUP1 DUP4 ADD SWAP3 PUSH1 0x20 SWAP3 SWAP2 SWAP1 DUP3 SWAP1 SUB ADD DUP2 DUP7 DUP1 EXTCODESIZE ISZERO DUP1 ISZERO PUSH2 0x1899 JUMPI PUSH1 0x0 DUP1 REVERT JUMPDEST POP GAS STATICCALL ISZERO DUP1 ISZERO PUSH2 0x18AD JUMPI RETURNDATASIZE PUSH1 0x0 DUP1 RETURNDATACOPY RETURNDATASIZE PUSH1 0x0 REVERT JUMPDEST POP POP POP POP PUSH1 0x40 MLOAD RETURNDATASIZE PUSH1 0x20 DUP2 LT ISZERO PUSH2 0x18C3 JUMPI PUSH1 0x0 DUP1 REVERT JUMPDEST POP MLOAD ISZERO ISZERO PUSH2 0x18D0 JUMPI PUSH1 0x0 DUP1 REVERT JUMPDEST PUSH1 0x0 DUP5 GT PUSH2 0x18DD JUMPI PUSH1 0x0 DUP1 REVERT JUMPDEST DUP6 PUSH20 0xFFFFFFFFFFFFFFFFFFFFFFFFFFFFFFFFFFFFFFFF AND DUP6 PUSH20 0xFFFFFFFFFFFFFFFFFFFFFFFFFFFFFFFFFFFFFFFF AND PUSH32 0x3B2429646AB0DD9A6002C77159344AA6DD3E6FDFC7C685513C2583D782E13F88 DUP7 PUSH1 0x40 MLOAD DUP1 DUP3 DUP2 MSTORE PUSH1 0x20 ADD SWAP2 POP POP PUSH1 0x40 MLOAD DUP1 SWAP2 SUB SWAP1 LOG3 POP PUSH1 0x1 SWAP6 SWAP5 POP POP POP POP POP JUMP JUMPDEST PUSH1 0x0 DUP1 SLOAD PUSH1 0x40 DUP1 MLOAD PUSH32 0x4493890000000000000000000000000000000000000000000000000000000000 DUP2 MSTORE CALLER PUSH1 0x4 DUP3 ADD DUP2 SWAP1 MSTORE SWAP2 MLOAD SWAP2 SWAP3 PUSH20 0xFFFFFFFFFFFFFFFFFFFFFFFFFFFFFFFFFFFFFFFF AND SWAP2 DUP3 SWAP2 PUSH4 0x44938900 SWAP2 PUSH1 0x24 DUP1 DUP4 ADD SWAP3 PUSH1 0x20 SWAP3 SWAP2 SWAP1 DUP3 SWAP1 SUB ADD DUP2 DUP7 DUP1 EXTCODESIZE ISZERO DUP1 ISZERO PUSH2 0x19C3 JUMPI PUSH1 0x0 DUP1 REVERT JUMPDEST POP GAS STATICCALL ISZERO DUP1 ISZERO PUSH2 0x19D7 JUMPI RETURNDATASIZE PUSH1 0x0 DUP1 RETURNDATACOPY RETURNDATASIZE PUSH1 0x0 REVERT JUMPDEST POP POP POP POP PUSH1 0x40 MLOAD RETURNDATASIZE PUSH1 0x20 DUP2 LT ISZERO PUSH2 0x19ED JUMPI PUSH1 0x0 DUP1 REVERT JUMPDEST POP MLOAD ISZERO ISZERO PUSH2 0x19FA JUMPI PUSH1 0x0 DUP1 REVERT JUMPDEST PUSH1 0x0 SLOAD PUSH1 0x40 DUP1 MLOAD PUSH32 0xD88C271E00000000000000000000000000000000000000000000000000000000 DUP2 MSTORE PUSH20 0xFFFFFFFFFFFFFFFFFFFFFFFFFFFFFFFFFFFFFFFF DUP1 DUP11 AND PUSH1 0x4 DUP4 ADD MSTORE SWAP2 MLOAD DUP10 SWAP4 SWAP3 SWAP1 SWAP3 AND SWAP2 DUP3 SWAP2 PUSH4 0xD88C271E SWAP2 PUSH1 0x24 DUP1 DUP4 ADD SWAP3 PUSH1 0x20 SWAP3 SWAP2 SWAP1 DUP3 SWAP1 SUB ADD DUP2 DUP7 DUP1 EXTCODESIZE ISZERO DUP1 ISZERO PUSH2 0x1A71 JUMPI PUSH1 0x0 DUP1 REVERT JUMPDEST POP GAS STATICCALL ISZERO DUP1 ISZERO PUSH2 0x1A85 JUMPI RETURNDATASIZE PUSH1 0x0 DUP1 RETURNDATACOPY RETURNDATASIZE PUSH1 0x0 REVERT JUMPDEST POP POP POP POP PUSH1 0x40 MLOAD RETURNDATASIZE PUSH1 0x20 DUP2 LT ISZERO PUSH2 0x1A9B JUMPI PUSH1 0x0 DUP1 REVERT JUMPDEST POP MLOAD ISZERO ISZERO PUSH2 0x1AA8 JUMPI PUSH1 0x0 DUP1 REVERT JUMPDEST PUSH1 0x40 DUP1 MLOAD DUP8 DUP2 MSTORE SWAP1 MLOAD PUSH20 0xFFFFFFFFFFFFFFFFFFFFFFFFFFFFFFFFFFFFFFFF DUP1 DUP12 AND SWAP3 CALLER SWAP3 SWAP2 DUP12 AND SWAP2 PUSH32 0x93D0111DEB3C3657374F0DC73B64FF5AE0111E1E4E4D0B5860B0D799599D0A41 SWAP2 DUP2 SWAP1 SUB PUSH1 0x20 ADD SWAP1 LOG4 POP PUSH1 0x1 SWAP8 SWAP7 POP POP POP POP POP POP POP JUMP JUMPDEST PUSH1 0x0 DUP1 SLOAD PUSH1 0x40 DUP1 MLOAD PUSH32 0x4493890000000000000000000000000000000000000000000000000000000000 DUP2 MSTORE CALLER PUSH1 0x4 DUP3 ADD DUP2 SWAP1 MSTORE SWAP2 MLOAD SWAP2 SWAP3 PUSH20 0xFFFFFFFFFFFFFFFFFFFFFFFFFFFFFFFFFFFFFFFF AND SWAP2 DUP3 SWAP2 PUSH4 0x44938900 SWAP2 PUSH1 0x24 DUP1 DUP4 ADD SWAP3 PUSH1 0x20 SWAP3 SWAP2 SWAP1 DUP3 SWAP1 SUB ADD DUP2 DUP7 DUP1 EXTCODESIZE ISZERO DUP1 ISZERO PUSH2 0x1575 JUMPI PUSH1 0x0 DUP1 REVERT JUMPDEST PUSH1 0x0 DUP1 SLOAD PUSH1 0x40 DUP1 MLOAD PUSH32 0x4493890000000000000000000000000000000000000000000000000000000000 DUP2 MSTORE CALLER PUSH1 0x4 DUP3 ADD DUP2 SWAP1 MSTORE SWAP2 MLOAD SWAP2 SWAP3 PUSH20 0xFFFFFFFFFFFFFFFFFFFFFFFFFFFFFFFFFFFFFFFF AND SWAP2 DUP3 SWAP2 PUSH4 0x44938900 SWAP2 PUSH1 0x24 DUP1 DUP4 ADD SWAP3 PUSH1 0x20 SWAP3 SWAP2 SWAP1 DUP3 SWAP1 SUB ADD DUP2 DUP7 DUP1 EXTCODESIZE ISZERO DUP1 ISZERO PUSH2 0x1BF2 JUMPI PUSH1 0x0 DUP1 REVERT JUMPDEST POP GAS STATICCALL ISZERO DUP1 ISZERO PUSH2 0x1C06 JUMPI RETURNDATASIZE PUSH1 0x0 DUP1 RETURNDATACOPY RETURNDATASIZE PUSH1 0x0 REVERT JUMPDEST POP POP POP POP PUSH1 0x40 MLOAD RETURNDATASIZE PUSH1 0x20 DUP2 LT ISZERO PUSH2 0x1C1C JUMPI PUSH1 0x0 DUP1 REVERT JUMPDEST POP MLOAD ISZERO ISZERO PUSH2 0x1C29 JUMPI PUSH1 0x0 DUP1 REVERT JUMPDEST PUSH1 0x0 SLOAD PUSH1 0x40 DUP1 MLOAD PUSH32 0xD88C271E00000000000000000000000000000000000000000000000000000000 DUP2 MSTORE PUSH20 0xFFFFFFFFFFFFFFFFFFFFFFFFFFFFFFFFFFFFFFFF DUP1 DUP11 AND PUSH1 0x4 DUP4 ADD MSTORE SWAP2 MLOAD DUP10 SWAP4 SWAP3 SWAP1 SWAP3 AND SWAP2 DUP3 SWAP2 PUSH4 0xD88C271E SWAP2 PUSH1 0x24 DUP1 DUP4 ADD SWAP3 PUSH1 0x20 SWAP3 SWAP2 SWAP1 DUP3 SWAP1 SUB ADD DUP2 DUP7 DUP1 EXTCODESIZE ISZERO DUP1 ISZERO PUSH2 0x1CA0 JUMPI PUSH1 0x0 DUP1 REVERT JUMPDEST POP GAS STATICCALL ISZERO DUP1 ISZERO PUSH2 0x1CB4 JUMPI RETURNDATASIZE PUSH1 0x0 DUP1 RETURNDATACOPY RETURNDATASIZE PUSH1 0x0 REVERT JUMPDEST POP POP POP POP PUSH1 0x40 MLOAD RETURNDATASIZE PUSH1 0x20 DUP2 LT ISZERO PUSH2 0x1CCA JUMPI PUSH1 0x0 DUP1 REVERT JUMPDEST POP MLOAD ISZERO ISZERO PUSH2 0x1CD7 JUMPI PUSH1 0x0 DUP1 REVERT JUMPDEST PUSH1 0x40 DUP1 MLOAD PUSH20 0xFFFFFFFFFFFFFFFFFFFFFFFFFFFFFFFFFFFFFFFF DUP9 DUP2 AND DUP3 MSTORE SWAP2 MLOAD DUP3 DUP12 AND SWAP3 CALLER SWAP3 SWAP1 DUP12 AND SWAP2 PUSH32 0xEFE40F758CD182716682DB7A4BCD9DD6B9FBA7E0BCC9FB0096282108DB6F02EF SWAP2 DUP2 SWAP1 SUB PUSH1 0x20 ADD SWAP1 LOG4 POP PUSH1 0x1 SWAP8 SWAP7 POP POP POP POP POP POP POP JUMP JUMPDEST PUSH1 0x0 DUP1 SLOAD PUSH1 0x40 DUP1 MLOAD PUSH32 0xD88C271E00000000000000000000000000000000000000000000000000000000 DUP2 MSTORE PUSH20 0xFFFFFFFFFFFFFFFFFFFFFFFFFFFFFFFFFFFFFFFF DUP1 DUP11 AND PUSH1 0x4 DUP4 ADD MSTORE SWAP2 MLOAD DUP10 SWAP4 SWAP3 SWAP1 SWAP3 AND SWAP2 DUP3 SWAP2 PUSH4 0xD88C271E SWAP2 PUSH1 0x24 DUP1 DUP4 ADD SWAP3 PUSH1 0x20 SWAP3 SWAP2 SWAP1 DUP3 SWAP1 SUB ADD DUP2 DUP7 DUP1 EXTCODESIZE ISZERO DUP1 ISZERO PUSH2 0x1DB1 JUMPI PUSH1 0x0 DUP1 REVERT JUMPDEST POP GAS STATICCALL ISZERO DUP1 ISZERO PUSH2 0x1DC5 JUMPI RETURNDATASIZE PUSH1 0x0 DUP1 RETURNDATACOPY RETURNDATASIZE PUSH1 0x0 REVERT JUMPDEST POP POP POP POP PUSH1 0x40 MLOAD RETURNDATASIZE PUSH1 0x20 DUP2 LT ISZERO PUSH2 0x1DDB JUMPI PUSH1 0x0 DUP1 REVERT JUMPDEST POP MLOAD ISZERO ISZERO PUSH2 0x1DE8 JUMPI PUSH1 0x0 DUP1 REVERT JUMPDEST PUSH1 0x0 SLOAD PUSH1 0x40 DUP1 MLOAD PUSH32 0x4493890000000000000000000000000000000000000000000000000000000000 DUP2 MSTORE CALLER PUSH1 0x4 DUP3 ADD DUP2 SWAP1 MSTORE SWAP2 MLOAD SWAP2 SWAP3 PUSH20 0xFFFFFFFFFFFFFFFFFFFFFFFFFFFFFFFFFFFFFFFF AND SWAP2 DUP3 SWAP2 PUSH4 0x44938900 SWAP2 PUSH1 0x24 DUP1 DUP4 ADD SWAP3 PUSH1 0x20 SWAP3 SWAP2 SWAP1 DUP3 SWAP1 SUB ADD DUP2 DUP7 DUP1 EXTCODESIZE ISZERO DUP1 ISZERO PUSH2 0x1E5C JUMPI PUSH1 0x0 DUP1 REVERT JUMPDEST POP GAS STATICCALL ISZERO DUP1 ISZERO PUSH2 0x1E70 JUMPI RETURNDATASIZE PUSH1 0x0 DUP1 RETURNDATACOPY RETURNDATASIZE PUSH1 0x0 REVERT JUMPDEST POP POP POP POP PUSH1 0x40 MLOAD RETURNDATASIZE PUSH1 0x20 DUP2 LT ISZERO PUSH2 0x1E86 JUMPI PUSH1 0x0 DUP1 REVERT JUMPDEST POP MLOAD ISZERO ISZERO PUSH2 0x1E93 JUMPI PUSH1 0x0 DUP1 REVERT JUMPDEST PUSH1 0x0 SLOAD PUSH1 0x40 DUP1 MLOAD PUSH32 0x84987E8300000000000000000000000000000000000000000000000000000000 DUP2 MSTORE SWAP1 MLOAD DUP11 SWAP3 PUSH20 0xFFFFFFFFFFFFFFFFFFFFFFFFFFFFFFFFFFFFFFFF AND SWAP2 DUP3 SWAP2 PUSH4 0x84987E83 SWAP2 PUSH1 0x4 DUP1 DUP3 ADD SWAP3 PUSH1 0x20 SWAP3 SWAP1 SWAP2 SWAP1 DUP3 SWAP1 SUB ADD DUP2 DUP7 DUP1 EXTCODESIZE ISZERO DUP1 ISZERO PUSH2 0x1F00 JUMPI PUSH1 0x0 DUP1 REVERT JUMPDEST POP GAS STATICCALL ISZERO DUP1 ISZERO PUSH2 0x1F14 JUMPI RETURNDATASIZE PUSH1 0x0 DUP1 RETURNDATACOPY RETURNDATASIZE PUSH1 0x0 REVERT JUMPDEST POP POP POP POP PUSH1 0x40 MLOAD RETURNDATASIZE PUSH1 0x20 DUP2 LT ISZERO PUSH2 0x1F2A JUMPI PUSH1 0x0 DUP1 REVERT JUMPDEST POP MLOAD PUSH1 0x40 DUP1 MLOAD PUSH32 0x9AA4D0A000000000000000000000000000000000000000000000000000000000 DUP2 MSTORE PUSH20 0xFFFFFFFFFFFFFFFFFFFFFFFFFFFFFFFFFFFFFFFF DUP6 DUP2 AND PUSH1 0x4 DUP4 ADD MSTORE SWAP2 MLOAD SWAP2 SWAP1 SWAP3 AND SWAP2 PUSH4 0x9AA4D0A0 SWAP2 PUSH1 0x24 DUP1 DUP4 ADD SWAP3 PUSH1 0x20 SWAP3 SWAP2 SWAP1 DUP3 SWAP1 SUB ADD DUP2 DUP7 DUP1 EXTCODESIZE ISZERO DUP1 ISZERO PUSH2 0x1F9C JUMPI PUSH1 0x0 DUP1 REVERT JUMPDEST POP GAS STATICCALL ISZERO DUP1 ISZERO PUSH2 0x1FB0 JUMPI RETURNDATASIZE PUSH1 0x0 DUP1 RETURNDATACOPY RETURNDATASIZE PUSH1 0x0 REVERT JUMPDEST POP POP POP POP PUSH1 0x40 MLOAD RETURNDATASIZE PUSH1 0x20 DUP2 LT ISZERO PUSH2 0x1FC6 JUMPI PUSH1 0x0 DUP1 REVERT JUMPDEST POP MLOAD ISZERO ISZERO PUSH2 0x1FD3 JUMPI PUSH1 0x0 DUP1 REVERT JUMPDEST DUP9 PUSH20 0xFFFFFFFFFFFFFFFFFFFFFFFFFFFFFFFFFFFFFFFF AND DUP11 PUSH20 0xFFFFFFFFFFFFFFFFFFFFFFFFFFFFFFFFFFFFFFFF AND DUP13 PUSH20 0xFFFFFFFFFFFFFFFFFFFFFFFFFFFFFFFFFFFFFFFF AND PUSH32 0x79208B3906A9BAC6A824D21010A6E14B6AFC4ABE7F84BC4CE19C82D0F2DFA208 DUP12 PUSH1 0x0 PUSH1 0x40 MLOAD DUP1 DUP4 DUP2 MSTORE PUSH1 0x20 ADD DUP3 DUP2 MSTORE PUSH1 0x20 ADD SWAP3 POP POP POP PUSH1 0x40 MLOAD DUP1 SWAP2 SUB SWAP1 LOG4 POP PUSH1 0x1 SWAP12 SWAP11 POP POP POP POP POP POP POP POP POP POP POP JUMP JUMPDEST PUSH1 0x40 DUP1 MLOAD DUP1 DUP3 ADD SWAP1 SWAP2 MSTORE PUSH1 0x7 DUP2 MSTORE PUSH32 0x4448302E342E3200000000000000000000000000000000000000000000000000 PUSH1 0x20 DUP3 ADD MSTORE DUP2 JUMP JUMPDEST DUP5 PUSH20 0xFFFFFFFFFFFFFFFFFFFFFFFFFFFFFFFFFFFFFFFF AND DUP7 PUSH20 0xFFFFFFFFFFFFFFFFFFFFFFFFFFFFFFFFFFFFFFFF AND DUP9 PUSH20 0xFFFFFFFFFFFFFFFFFFFFFFFFFFFFFFFFFFFFFFFF AND PUSH32 0xCAD98CE2F54320F9A3CBFCABD750461D8FBC469076324D37907488FF1D45C290 DUP8 DUP8 DUP8 DUP8 PUSH1 0x40 MLOAD DUP1 DUP6 DUP2 MSTORE PUSH1 0x20 ADD DUP5 DUP2 MSTORE PUSH1 0x20 ADD DUP1 PUSH1 0x20 ADD DUP1 PUSH1 0x20 ADD DUP4 DUP2 SUB DUP4 MSTORE DUP6 DUP2 DUP2 MLOAD DUP2 MSTORE PUSH1 0x20 ADD SWAP2 POP DUP1 MLOAD SWAP1 PUSH1 0x20 ADD SWAP1 DUP1 DUP4 DUP4 PUSH1 0x0 JUMPDEST DUP4 DUP2 LT ISZERO PUSH2 0x2158 JUMPI DUP2 DUP2 ADD MLOAD DUP4 DUP3 ADD MSTORE PUSH1 0x20 ADD PUSH2 0x2140 JUMP JUMPDEST POP POP POP POP SWAP1 POP SWAP1 DUP2 ADD SWAP1 PUSH1 0x1F AND DUP1 ISZERO PUSH2 0x2185 JUMPI DUP1 DUP3 SUB DUP1 MLOAD PUSH1 0x1 DUP4 PUSH1 0x20 SUB PUSH2 0x100 EXP SUB NOT AND DUP2 MSTORE PUSH1 0x20 ADD SWAP2 POP JUMPDEST POP DUP4 DUP2 SUB DUP3 MSTORE DUP5 MLOAD DUP2 MSTORE DUP5 MLOAD PUSH1 0x20 SWAP2 DUP3 ADD SWAP2 DUP7 ADD SWAP1 DUP1 DUP4 DUP4 PUSH1 0x0 JUMPDEST DUP4 DUP2 LT ISZERO PUSH2 0x21B8 JUMPI DUP2 DUP2 ADD MLOAD DUP4 DUP3 ADD MSTORE PUSH1 0x20 ADD PUSH2 0x21A0 JUMP JUMPDEST POP POP POP POP SWAP1 POP SWAP1 DUP2 ADD SWAP1 PUSH1 0x1F AND DUP1 ISZERO PUSH2 0x21E5 JUMPI DUP1 DUP3 SUB DUP1 MLOAD PUSH1 0x1 DUP4 PUSH1 0x20 SUB PUSH2 0x100 EXP SUB NOT AND DUP2 MSTORE PUSH1 0x20 ADD SWAP2 POP JUMPDEST POP SWAP7 POP POP POP POP POP POP POP PUSH1 0x40 MLOAD DUP1 SWAP2 SUB SWAP1 LOG4 POP POP POP POP POP POP POP JUMP JUMPDEST DUP5 PUSH20 0xFFFFFFFFFFFFFFFFFFFFFFFFFFFFFFFFFFFFFFFF AND DUP7 PUSH20 0xFFFFFFFFFFFFFFFFFFFFFFFFFFFFFFFFFFFFFFFF AND DUP9 PUSH20 0xFFFFFFFFFFFFFFFFFFFFFFFFFFFFFFFFFFFFFFFF AND PUSH32 0x44FDC18A9B8ED853260EC560CCF070691DCFA501B4A806B5B5E31EED8BC88B93 DUP8 DUP8 DUP8 DUP8 PUSH1 0x40 MLOAD DUP1 DUP6 DUP2 MSTORE PUSH1 0x20 ADD DUP5 DUP2 MSTORE PUSH1 0x20 ADD DUP1 PUSH1 0x20 ADD DUP1 PUSH1 0x20 ADD DUP4 DUP2 SUB DUP4 MSTORE DUP6 DUP2 DUP2 MLOAD DUP2 MSTORE PUSH1 0x20 ADD SWAP2 POP DUP1 MLOAD SWAP1 PUSH1 0x20 ADD SWAP1 DUP1 DUP4 DUP4 PUSH1 0x0 DUP4 DUP2 LT ISZERO PUSH2 0x2158 JUMPI DUP2 DUP2 ADD MLOAD DUP4 DUP3 ADD MSTORE PUSH1 0x20 ADD PUSH2 0x2140 JUMP JUMPDEST DUP4 PUSH20 0xFFFFFFFFFFFFFFFFFFFFFFFFFFFFFFFFFFFFFFFF AND DUP6 PUSH20 0xFFFFFFFFFFFFFFFFFFFFFFFFFFFFFFFFFFFFFFFF AND DUP8 PUSH20 0xFFFFFFFFFFFFFFFFFFFFFFFFFFFFFFFFFFFFFFFF AND PUSH32 0x19B85C898CF6AC07E2CD8C5E44F84C9146263AC6861BFEF2ED01D419B37C2C36 DUP7 DUP7 DUP7 PUSH1 0x40 MLOAD DUP1 DUP5 DUP2 MSTORE PUSH1 0x20 ADD DUP1 PUSH1 0x20 ADD DUP1 PUSH1 0x20 ADD DUP4 DUP2 SUB DUP4 MSTORE DUP6 DUP2 DUP2 MLOAD DUP2 MSTORE PUSH1 0x20 ADD SWAP2 POP DUP1 MLOAD SWAP1 PUSH1 0x20 ADD SWAP1 DUP1 DUP4 DUP4 PUSH1 0x0 JUMPDEST DUP4 DUP2 LT ISZERO PUSH2 0x2365 JUMPI DUP2 DUP2 ADD MLOAD DUP4 DUP3 ADD MSTORE PUSH1 0x20 ADD PUSH2 0x234D JUMP JUMPDEST POP POP POP POP SWAP1 POP SWAP1 DUP2 ADD SWAP1 PUSH1 0x1F AND DUP1 ISZERO PUSH2 0x2392 JUMPI DUP1 DUP3 SUB DUP1 MLOAD PUSH1 0x1 DUP4 PUSH1 0x20 SUB PUSH2 0x100 EXP SUB NOT AND DUP2 MSTORE PUSH1 0x20 ADD SWAP2 POP JUMPDEST POP DUP4 DUP2 SUB DUP3 MSTORE DUP5 MLOAD DUP2 MSTORE DUP5 MLOAD PUSH1 0x20 SWAP2 DUP3 ADD SWAP2 DUP7 ADD SWAP1 DUP1 DUP4 DUP4 PUSH1 0x0 JUMPDEST DUP4 DUP2 LT ISZERO PUSH2 0x23C5 JUMPI DUP2 DUP2 ADD MLOAD DUP4 DUP3 ADD MSTORE PUSH1 0x20 ADD PUSH2 0x23AD JUMP JUMPDEST POP POP POP POP SWAP1 POP SWAP1 DUP2 ADD SWAP1 PUSH1 0x1F AND DUP1 ISZERO PUSH2 0x23F2 JUMPI DUP1 DUP3 SUB DUP1 MLOAD PUSH1 0x1 DUP4 PUSH1 0x20 SUB PUSH2 0x100 EXP SUB NOT AND DUP2 MSTORE PUSH1 0x20 ADD SWAP2 POP JUMPDEST POP SWAP6 POP POP POP POP POP POP PUSH1 0x40 MLOAD DUP1 SWAP2 SUB SWAP1 LOG4 POP POP POP POP POP POP JUMP INVALID LOG1 PUSH6 0x627A7A723058 KECCAK256 SWAP13 JUMPI BYTE CREATE2 0x25 0xad 0xe8 ADDMOD 0x27 0xc6 SWAP6 PUSH5 0x35B0EE6E0C 0x23 0xe8 SWAP6 0xd9 LOG3 0x46 DELEGATECALL 0xc 0xef SWAP7 0x26 PUSH28 0xD8783700290000000000000000000000000000000000000000000000 "
			}
		}
	},
	"sourceTreeHashHex": "0x79601ddc86417962fc0b4fe01e5ef5cec9fb83b811d491bd794c42dca36ac15e",
	"compiler": {
		"name": "solc",
		"version": "0.5.0+commit.1d4f565a",
		"settings": {
			"remappings": [],
			"optimizer": {
				"enabled": true,
				"runs": 1000000
			},
			"outputSelection": {
				"*": {
					"*": [
						"abi",
						"devdoc",
						"evm.bytecode.object",
						"evm.bytecode.sourceMap",
						"evm.deployedBytecode.object",
						"evm.deployedBytecode.sourceMap"
					]
				}
			}
		}
	},
	"chains": {}
}