{
	"schemaVersion": "2.0.0",
	"contractName": "DragoFactory",
	"compilerOutput": {
		"abi": [
			{
				"constant": false,
				"inputs": [
					{
						"name": "_new",
						"type": "address"
					}
				],
				"name": "setOwner",
				"outputs": [],
				"payable": false,
				"stateMutability": "nonpayable",
				"type": "function"
			},
			{
				"constant": false,
				"inputs": [
					{
						"name": "_dragoDao",
						"type": "address"
					}
				],
				"name": "setBeneficiary",
				"outputs": [],
				"payable": false,
				"stateMutability": "nonpayable",
				"type": "function"
			},
			{
				"constant": true,
				"inputs": [],
				"name": "getStorage",
				"outputs": [
					{
						"name": "dragoDao",
						"type": "address"
					},
					{
						"name": "version",
						"type": "string"
					},
					{
						"name": "nextDragoId",
						"type": "uint256"
					}
				],
				"payable": false,
				"stateMutability": "view",
				"type": "function"
			},
			{
				"constant": false,
				"inputs": [
					{
						"name": "_targetDrago",
						"type": "address"
					},
					{
						"name": "_dragoDao",
						"type": "address"
					}
				],
				"name": "setTargetDragoDao",
				"outputs": [],
				"payable": false,
				"stateMutability": "nonpayable",
				"type": "function"
			},
			{
				"constant": true,
				"inputs": [],
				"name": "getRegistry",
				"outputs": [
					{
						"name": "",
						"type": "address"
					}
				],
				"payable": false,
				"stateMutability": "view",
				"type": "function"
			},
			{
				"constant": false,
				"inputs": [
					{
						"name": "_fee",
						"type": "uint256"
					}
				],
				"name": "setFee",
				"outputs": [],
				"payable": false,
				"stateMutability": "nonpayable",
				"type": "function"
			},
			{
				"constant": true,
				"inputs": [],
				"name": "getEventful",
				"outputs": [
					{
						"name": "",
						"type": "address"
					}
				],
				"payable": false,
				"stateMutability": "view",
				"type": "function"
			},
			{
				"constant": true,
				"inputs": [],
				"name": "owner",
				"outputs": [
					{
						"name": "",
						"type": "address"
					}
				],
				"payable": false,
				"stateMutability": "view",
				"type": "function"
			},
			{
				"constant": false,
				"inputs": [],
				"name": "drain",
				"outputs": [],
				"payable": false,
				"stateMutability": "nonpayable",
				"type": "function"
			},
			{
				"constant": false,
				"inputs": [
					{
						"name": "_newRegistry",
						"type": "address"
					}
				],
				"name": "setRegistry",
				"outputs": [],
				"payable": false,
				"stateMutability": "nonpayable",
				"type": "function"
			},
			{
				"constant": true,
				"inputs": [
					{
						"name": "_owner",
						"type": "address"
					}
				],
				"name": "getDragosByAddress",
				"outputs": [
					{
						"name": "",
						"type": "address[]"
					}
				],
				"payable": false,
				"stateMutability": "view",
				"type": "function"
			},
			{
				"constant": false,
				"inputs": [
					{
						"name": "_newDragoDao",
						"type": "address"
					}
				],
				"name": "changeDragoDao",
				"outputs": [],
				"payable": false,
				"stateMutability": "nonpayable",
				"type": "function"
			},
			{
				"constant": false,
				"inputs": [
					{
						"name": "_name",
						"type": "string"
					},
					{
						"name": "_symbol",
						"type": "string"
					}
				],
				"name": "createDrago",
				"outputs": [
					{
						"name": "success",
						"type": "bool"
					}
				],
				"payable": true,
				"stateMutability": "payable",
				"type": "function"
			},
			{
				"constant": true,
				"inputs": [],
				"name": "VERSION",
				"outputs": [
					{
						"name": "",
						"type": "string"
					}
				],
				"payable": false,
				"stateMutability": "view",
				"type": "function"
			},
			{
				"inputs": [
					{
						"name": "_registry",
						"type": "address"
					},
					{
						"name": "_dragoDao",
						"type": "address"
					},
					{
						"name": "_authority",
						"type": "address"
					}
				],
				"payable": false,
				"stateMutability": "nonpayable",
				"type": "constructor"
			},
			{
				"anonymous": false,
				"inputs": [
					{
						"indexed": false,
						"name": "name",
						"type": "string"
					},
					{
						"indexed": false,
						"name": "symbol",
						"type": "string"
					},
					{
						"indexed": true,
						"name": "drago",
						"type": "address"
					},
					{
						"indexed": true,
						"name": "owner",
						"type": "address"
					},
					{
						"indexed": false,
						"name": "dragoId",
						"type": "uint256"
					}
				],
				"name": "DragoCreated",
				"type": "event"
			},
			{
				"anonymous": false,
				"inputs": [
					{
						"indexed": true,
						"name": "old",
						"type": "address"
					},
					{
						"indexed": true,
						"name": "current",
						"type": "address"
					}
				],
				"name": "NewOwner",
				"type": "event"
			}
		],
		"devdoc": {
			"author": "Gabriele Rigo - <gab@rigoblock.com>",
			"methods": {
				"changeDragoDao(address)": {
					"details": "Allows drago dao/factory to update its addressCreates internal record",
					"params": {
						"_newDragoDao": "Address of the drago dao"
					}
				},
				"createDrago(string,string)": {
					"details": "allows creation of a new drago",
					"params": {
						"_name": "String of the name",
						"_symbol": "String of the symbol"
					},
					"return": "Bool the transaction executed correctly"
				},
				"drain()": {
					"details": "Allows owner to collect fees"
				},
				"getDragosByAddress(address)": {
					"details": "Returns an array of dragos the owner has created",
					"params": {
						"_owner": "Address of the queried owner"
					},
					"return": "Array of drago addresses"
				},
				"getEventful()": {
					"details": "Returns the address of the logger contractQueries from authority contract",
					"return": "Address of the eventful contract"
				},
				"getRegistry()": {
					"details": "Returns the address of the pool registry",
					"return": "Address of the registry"
				},
				"getStorage()": {
					"details": "Returns administrative data for this factory",
					"return": "Address of the drago daoString of the versionNumber of the next drago from the registry"
				},
				"setBeneficiary(address)": {
					"details": "Allows owner to set the address which can collect creation fees",
					"params": {
						"_dragoDao": "Address of the new drago dao/factory"
					}
				},
				"setFee(uint256)": {
					"details": "Allows owner to set the drago creation fee",
					"params": {
						"_fee": "Value of the fee in wei"
					}
				},
				"setRegistry(address)": {
					"details": "Allows owner to update the registry",
					"params": {
						"_newRegistry": "Address of the new registry"
					}
				},
				"setTargetDragoDao(address,address)": {
					"details": "Allows factory owner to update the address of the dao/factoryEnables manual update of dao for single dragos",
					"params": {
						"_dragoDao": "Address of the new drago dao",
						"_targetDrago": "Address of the target drago"
					}
				}
			},
			"title": "Drago Factory contract - allows creation of new dragos."
		},
		"evm": {
			"bytecode": {
				"linkReferences": {},
				"object": "0x608060405234801561001057600080fd5b5060405160608061444c8339810180604052606081101561003057600080fd5b508051602082015160409092015160078054600160a060020a03938416600160a060020a0319918216179091556008805494841694821694909417909355600980549290911691831691909117905560008054909116331790556143b3806100996000396000f3fe608060405260043610620000de5763ffffffff7c010000000000000000000000000000000000000000000000000000000060003504166313af40358114620000e35780631c31f710146200011c5780633408f73a14620001535780633dcc8b8914620001fc5780635ab1bd53146200023b57806369fe0e2d146200026f578063837929b6146200029d5780638da5cb5b14620002b55780639890220b14620002cd578063a91ee0dc14620002e5578063c1bf130d146200031c578063c8c3b92614620003a5578063f08d29d514620003dc578063ffa1ad7414620004bb575b600080fd5b348015620000f057600080fd5b506200011a600480360360208110156200010957600080fd5b5035600160a060020a03166200054b565b005b3480156200012957600080fd5b506200011a600480360360208110156200014257600080fd5b5035600160a060020a0316620005d4565b3480156200016057600080fd5b506200016b6200061b565b60408051600160a060020a0385168152908101829052606060208083018281528551928401929092528451608084019186019080838360005b83811015620001be578181015183820152602001620001a4565b50505050905090810190601f168015620001ec5780820380516001836020036101000a031916815260200191505b5094505050505060405180910390f35b3480156200020957600080fd5b506200011a600480360360408110156200022257600080fd5b50600160a060020a038135811691602001351662000676565b3480156200024857600080fd5b506200025362000711565b60408051600160a060020a039092168252519081900360200190f35b3480156200027c57600080fd5b506200011a600480360360208110156200029557600080fd5b503562000721565b348015620002aa57600080fd5b50620002536200073e565b348015620002c257600080fd5b5062000253620007d4565b348015620002da57600080fd5b506200011a620007e3565b348015620002f257600080fd5b506200011a600480360360208110156200030b57600080fd5b5035600160a060020a031662000839565b3480156200032957600080fd5b5062000353600480360360208110156200034257600080fd5b5035600160a060020a031662000880565b60408051602080825283518183015283519192839290830191858101910280838360005b838110156200039157818101518382015260200162000377565b505050509050019250505060405180910390f35b348015620003b257600080fd5b506200011a60048036036020811015620003cb57600080fd5b5035600160a060020a0316620008f8565b620004a760048036036040811015620003f457600080fd5b8101906020810181356401000000008111156200041057600080fd5b8201836020820111156200042357600080fd5b803590602001918460018302840111640100000000831117156200044657600080fd5b9193909290916020810190356401000000008111156200046557600080fd5b8201836020820111156200047857600080fd5b803590602001918460018302840111640100000000831117156200049b57600080fd5b50909250905062000910565b604080519115158252519081900360200190f35b348015620004c857600080fd5b50620004d362000bf1565b6040805160208082528351818301528351919283929083019185019080838360005b838110156200050f578181015183820152602001620004f5565b50505050905090810190601f1680156200053d5780820380516001836020036101000a031916815260200191505b509250505060405180910390f35b600054600160a060020a031633146200056357600080fd5b600160a060020a03811615156200057957600080fd5b6000805473ffffffffffffffffffffffffffffffffffffffff1916600160a060020a0383811691821780845560405192939116917f70aea8d848e8a90fb7661b227dc522eb6395c3dac71b63cb59edd5c9899b23649190a350565b600054600160a060020a03163314620005ec57600080fd5b6008805473ffffffffffffffffffffffffffffffffffffffff1916600160a060020a0392909216919091179055565b60088054604080518082019091529182527f444620302e352e320000000000000000000000000000000000000000000000006020830152600160a060020a031690600082826200066a62000c28565b91945092509050909192565b600054600160a060020a031633146200068e57600080fd5b604080517fc8c3b926000000000000000000000000000000000000000000000000000000008152600160a060020a0383811660048301529151849283169163c8c3b92691602480830192600092919082900301818387803b158015620006f357600080fd5b505af115801562000708573d6000803e3d6000fd5b50505050505050565b600754600160a060020a03165b90565b600054600160a060020a031633146200073957600080fd5b600655565b600954604080517f26c7a0de0000000000000000000000000000000000000000000000000000000081529051600092600160a060020a03169182916326c7a0de91600480820192602092909190829003018186803b158015620007a057600080fd5b505afa158015620007b5573d6000803e3d6000fd5b505050506040513d6020811015620007cc57600080fd5b505191505090565b600054600160a060020a031681565b600054600160a060020a03163314620007fb57600080fd5b600854604051600160a060020a0390911690303180156108fc02916000818181858888f1935050505015801562000836573d6000803e3d6000fd5b50565b600054600160a060020a031633146200085157600080fd5b6007805473ffffffffffffffffffffffffffffffffffffffff1916600160a060020a0392909216919091179055565b600160a060020a0381166000908152600a6020908152604091829020805483518184028101840190945280845260609392830182828015620008ec57602002820191906000526020600020905b8154600160a060020a03168152600190910190602001808311620008cd575b50505050509050919050565b600854600160a060020a03163314620005ec57600080fd5b6006546000903410156200092357600080fd5b600754604080517fced72f870000000000000000000000000000000000000000000000000000000081529051600160a060020a0390921691600091839163ced72f8791600480820192602092909190829003018186803b1580156200098757600080fd5b505afa1580156200099c573d6000803e3d6000fd5b505050506040513d6020811015620009b357600080fd5b5051604080517fcd6f4e0d0000000000000000000000000000000000000000000000000000000081529051919250600091600160a060020a0385169163cd6f4e0d916004808301926020929190829003018186803b15801562000a1557600080fd5b505afa15801562000a2a573d6000803e3d6000fd5b505050506040513d602081101562000a4157600080fd5b5051604080516020601f8b0181900481028201810190925289815291925062000abe91908a908a908190840183828082843760009201919091525050604080516020601f8c018190048102820181019092528a815292508a915089908190840183828082843760009201919091525033925086915062000c8a9050565b151562000aca57600080fd5b6005546040517f3fa7d3e3000000000000000000000000000000000000000000000000000000008152600160a060020a039182166004820181815260648301859052336084840181905260a06024850190815260a485018d905294881694633fa7d3e3948894938f938f938f938f938c93929091604481019060c401898980828437600083820152601f01601f191690910184810383528781526020019050878780828437600081840152601f19601f82011690508083019250505099505050505050505050506020604051808303818588803b15801562000bab57600080fd5b505af115801562000bc0573d6000803e3d6000fd5b50505050506040513d602081101562000bd857600080fd5b5051151562000be357fe5b506001979650505050505050565b60408051808201909152600881527f444620302e352e32000000000000000000000000000000000000000000000000602082015281565b600754604080517fcd6f4e0d0000000000000000000000000000000000000000000000000000000081529051600092600160a060020a031691829163cd6f4e0d91600480820192602092909190829003018186803b158015620007a057600080fd5b600954600090600160a060020a031662000caa600187878787866200115b565b151562000cb657600080fd5b600160a060020a038085166000908152600a602090815260408083206005548154600181018355918552838520909101805473ffffffffffffffffffffffffffffffffffffffff191691861691909117905580517f26c7a0de000000000000000000000000000000000000000000000000000000008152905192938516926326c7a0de92600483810193919291829003018186803b15801562000d5857600080fd5b505afa15801562000d6d573d6000803e3d6000fd5b505050506040513d602081101562000d8457600080fd5b50516005546040517f2f82aff3000000000000000000000000000000000000000000000000000000008152600160a060020a0388811660048301908152928116602483018190526084830189905260a0604484019081528c5160a48501528c5195965091861694632f82aff3948b9492938e938e938d939291606481019160c490910190602088019080838360005b8381101562000e2d57818101518382015260200162000e13565b50505050905090810190601f16801562000e5b5780820380516001836020036101000a031916815260200191505b50838103825285518152855160209182019187019080838360005b8381101562000e9057818101518382015260200162000e76565b50505050905090810190601f16801562000ebe5780820380516001836020036101000a031916815260200191505b50975050505050505050602060405180830381600087803b15801562000ee357600080fd5b505af115801562000ef8573d6000803e3d6000fd5b505050506040513d602081101562000f0f57600080fd5b5051151562000f1d57600080fd5b600554604080517fad562f40000000000000000000000000000000000000000000000000000000008152600160a060020a0392831660048201526001602482015290519184169163ad562f409160448082019260009290919082900301818387803b15801562000f8c57600080fd5b505af115801562000fa1573d6000803e3d6000fd5b5050604080517fa0ca3ee1000000000000000000000000000000000000000000000000000000008152600160a060020a038981166004830152600160248301529151918616935063a0ca3ee1925060448082019260009290919082900301818387803b1580156200101157600080fd5b505af115801562001026573d6000803e3d6000fd5b50506005546040805190810188905260608082528b51908201528a51600160a060020a038a8116955090921692507fa4e8b2abe2ee98767456a805d0c502689ad4042e5d5209a8302b77fc16ba88d5918b918b918a91908190602080830191608084019188019080838360005b83811015620010ad57818101518382015260200162001093565b50505050905090810190601f168015620010db5780820380516001836020036101000a031916815260200191505b50838103825285518152855160209182019187019080838360005b8381101562001110578181015183820152602001620010f6565b50505050905090810190601f1680156200113e5780820380516001836020036101000a031916815260200191505b509550505050505060405180910390a35060019695505050505050565b845160009081906200117490899060208a019062001346565b86516200118b9060018b019060208a019062001346565b60028a0186905560038a01805473ffffffffffffffffffffffffffffffffffffffff1916600160a060020a038916179055858786620011c9620013cb565b60408101849052600160a060020a0380841660608301528216608082015260a08082528654600260001961010060018416150201909116049082018190528190602082019060c083019089908015620012665780601f106200123a5761010080835404028352916020019162001266565b820191906000526020600020905b8154815290600101906020018083116200124857829003601f168201915b5050838103825287546002600019610100600184161502019091160480825260209091019088908015620012de5780601f10620012b257610100808354040283529160200191620012de565b820191906000526020600020905b815481529060010190602001808311620012c057829003601f168201915b5050975050505050505050604051809103906000f08015801562001306573d6000803e3d6000fd5b50600489018054600160a060020a0390921673ffffffffffffffffffffffffffffffffffffffff1990921691909117905550600190509695505050505050565b828054600181600116156101000203166002900490600052602060002090601f016020900481019282601f106200138957805160ff1916838001178555620013b9565b82800160010185558215620013b9579182015b82811115620013b95782518255916020019190600101906200139c565b50620013c7929150620013dc565b5090565b604051612f8e80620013fa83390190565b6200071e91905b80821115620013c75760008155600101620013e356fe60806040526000805460a060020a60ff02191690553480156200002157600080fd5b5060405162002f8e38038062002f8e83398101806040526200004791908101906200020c565b84516200005c906002906020880190620000e8565b50835162000072906003906020870190620000e8565b50600492909255670de0b6b3a7640000600681905560075560008054600160a060020a03928316600160a060020a03199182168117909255600a80549490931693811693909317909155600b805483163317905566038d7ea4c68000600e55600c805490921617905550506050600f556200035c565b828054600181600116156101000203166002900490600052602060002090601f016020900481019282601f106200012b57805160ff19168380011785556200015b565b828001600101855582156200015b579182015b828111156200015b5782518255916020019190600101906200013e565b50620001699291506200016d565b5090565b6200018a91905b8082111562000169576000815560010162000174565b90565b60006200019b825162000316565b9392505050565b6000601f82018313620001b457600080fd5b8151620001cb620001c582620002e2565b620002bb565b91508082526020830160208301858383011115620001e857600080fd5b620001f583828462000329565b50505092915050565b60006200019b82516200018a565b600080600080600060a086880312156200022557600080fd5b85516001604060020a038111156200023c57600080fd5b6200024a88828901620001a2565b95505060208601516001604060020a038111156200026757600080fd5b6200027588828901620001a2565b94505060406200028888828901620001fe565b93505060606200029b888289016200018d565b9250506080620002ae888289016200018d565b9150509295509295909350565b6040518181016001604060020a0381118282101715620002da57600080fd5b604052919050565b60006001604060020a03821115620002f957600080fd5b506020601f91909101601f19160190565b600160a060020a031690565b600062000323826200030a565b92915050565b60005b83811015620003465781810151838201526020016200032c565b8381111562000356576000848401525b50505050565b612c22806200036c6000396000f3fe60806040526004361061012f5763ffffffff60e060020a60003504166301e6e549811461013d578063096a8ab71461015d5780630e91206b1461017d5780631118069c146101b357806313af4035146101d35780631626ba7e146101f357806318160ddd146102135780632fbbde2d1461023557806330958a981461023d5780633bc5de301461025d57806354bdbd4d1461028257806354ea1538146102a25780636854f668146102c257806370a08231146102d5578063837929b6146102f55780638da5cb5b146103175780638f7a844b1461032c5780639245290d146103535780639489fa8414610373578063c112c71314610388578063c67f72e11461039d578063c8c3b926146103bd578063da46098c146103dd578063e4e985a8146103fd578063f6a3325314610412575b34151561013b57600080fd5b005b34801561014957600080fd5b5061013b61015836600461259f565b610432565b34801561016957600080fd5b5061013b6101783660046126dd565b61060b565b34801561018957600080fd5b5061019d6101983660046125f1565b6106e9565b6040516101aa91906129f0565b60405180910390f35b3480156101bf57600080fd5b5061013b6101ce366004612657565b6108f0565b3480156101df57600080fd5b5061013b6101ee366004612487565b61094d565b3480156101ff57600080fd5b5061019d61020e366004612687565b6109d4565b34801561021f57600080fd5b50610228610a6a565b6040516101aa9190612a7e565b61019d610a71565b34801561024957600080fd5b5061013b6102583660046126fb565b610aa1565b34801561026957600080fd5b50610272610ceb565b6040516101aa9493929190612a3a565b34801561028e57600080fd5b5061013b61029d36600461278b565b610e22565b3480156102ae57600080fd5b5061019d6102bd3660046126dd565b610e55565b61019d6102d0366004612487565b610f83565b3480156102e157600080fd5b506102286102f0366004612487565b610fb4565b34801561030157600080fd5b5061030a610fcf565b6040516101aa9190612873565b34801561032357600080fd5b5061030a61106e565b34801561033857600080fd5b5061034161107d565b6040516101aa9695949392919061297b565b34801561035f57600080fd5b5061013b61036e366004612487565b6110b2565b34801561037f57600080fd5b506102286111a2565b34801561039457600080fd5b5061030a6111a8565b3480156103a957600080fd5b5061013b6103b8366004612518565b6111b7565b3480156103c957600080fd5b5061013b6103d8366004612487565b61120d565b3480156103e957600080fd5b5061013b6103f83660046124cb565b611307565b34801561040957600080fd5b5061030a6113d2565b34801561041e57600080fd5b5061013b61042d3660046126dd565b6113f9565b600054600160a060020a0316331461044957600080fd5b60005460a060020a900460ff161561047f5760405160e560020a62461bcd02815260040161047690612a6e565b60405180910390fd5b6000805460a060020a60ff02191660a060020a178155829061049f6114c9565b600160a060020a0316639aa4d0a0836040518263ffffffff1660e060020a0281526004016104cd9190612873565b60206040518083038186803b1580156104e557600080fd5b505afa1580156104f9573d6000803e3d6000fd5b505050506040513d601f19601f8201168201806040525061051d9190810190612639565b905060006105296114c9565b600160a060020a031663f3229cda846040518263ffffffff1660e060020a0281526004016105579190612873565b60206040518083038186803b15801561056f57600080fd5b505afa158015610583573d6000803e3d6000fd5b505050506040513d601f19601f820116820180604052506105a79190810190612639565b905080806105b25750815b15156105bd57600080fd5b60005b84518110156105f3576105ea8686838151811015156105db57fe5b906020019060200201516106e9565b506001016105c0565b50506000805460a060020a60ff021916905550505050565b600054600160a060020a0316331461062257600080fd5b606481111561063057600080fd5b600061063a610fcf565b6040517fd5aaa73a000000000000000000000000000000000000000000000000000000008152909150600160a060020a0382169063d5aaa73a90610686903390309087906004016128b7565b602060405180830381600087803b1580156106a057600080fd5b505af11580156106b4573d6000803e3d6000fd5b505050506040513d601f19601f820116820180604052506106d89190810190612639565b15156106e357600080fd5b50600855565b60008054600160a060020a0316331461070157600080fd5b60005460a060020a900460ff161561072e5760405160e560020a62461bcd02815260040161047690612a6e565b6000805460a060020a60ff02191660a060020a178155839061074e6114c9565b600160a060020a0316639aa4d0a0836040518263ffffffff1660e060020a02815260040161077c9190612873565b60206040518083038186803b15801561079457600080fd5b505afa1580156107a8573d6000803e3d6000fd5b505050506040513d601f19601f820116820180604052506107cc9190810190612639565b905060006107d86114c9565b600160a060020a031663f3229cda846040518263ffffffff1660e060020a0281526004016108069190612873565b60206040518083038186803b15801561081e57600080fd5b505afa158015610832573d6000803e3d6000fd5b505050506040513d601f19601f820116820180604052506108569190810190612639565b905080806108615750815b151561086c57600080fd5b600061087787611549565b865190915061088e6108888261164d565b83611658565b151561089957600080fd5b606060006001905060206000845160208601876113885a03f460005192508015915081600181146108c9576108ce565b600080fd5b50506000805460a060020a60ff02191690555060019998505050505050505050565b600054600160a060020a0316331461090757600080fd5b600d805460a060020a60ff02191660a060020a931515939093029290921773ffffffffffffffffffffffffffffffffffffffff1916600160a060020a0391909116179055565b600054600160a060020a0316331461096457600080fd5b600160a060020a038116151561097957600080fd5b6000805473ffffffffffffffffffffffffffffffffffffffff1916600160a060020a0383811691821780845560405192939116917f70aea8d848e8a90fb7661b227dc522eb6395c3dac71b63cb59edd5c9899b23649190a350565b60006109de611758565b600160a060020a0316631626ba7e8585856040518463ffffffff1660e060020a028152600401610a10939291906129fe565b60206040518083038186803b158015610a2857600080fd5b505afa158015610a3c573d6000803e3d6000fd5b505050506040513d601f19601f82011682018060405250610a609190810190612639565b90505b9392505050565b6005545b90565b600e546000903490811015610a8557600080fd5b610a8e33611813565b1515610a9957600080fd5b600191505090565b60005460a060020a900460ff1615610ace5760405160e560020a62461bcd02815260040161047690612a6e565b6000805460a060020a60ff02191660a060020a179055600a546040517f2330f247000000000000000000000000000000000000000000000000000000008152600160a060020a03909116908190632330f24790610b2f903390600401612881565b60206040518083038186803b158015610b4757600080fd5b505afa158015610b5b573d6000803e3d6000fd5b505050506040513d601f19601f82011682018060405250610b7f9190810190612639565b80610b945750600054600160a060020a031633145b1515610b9f57600080fd5b868680821115610bae57600080fd5b60065489908990600a900482111580610bcc5750600754600a028110155b15610bd657610cce565b610c198b8b8b8b8b8b8080601f01602080910402602001604051908101604052809392919081815260200183838082843760009201919091525061191492505050565b1515610c2457600080fd5b6000610c2e610fcf565b905080600160a060020a031663554a781833308f8f6040518563ffffffff1660e060020a028152600401610c6594939291906128df565b602060405180830381600087803b158015610c7f57600080fd5b505af1158015610c93573d6000803e3d6000fd5b505050506040513d601f19601f82011682018060405250610cb79190810190612639565b1515610cc257600080fd5b5060068b905560078a90555b50506000805460a060020a60ff0219169055505050505050505050565b6002805460408051602060018416156101000260001901909316849004601f8101849004840282018401909252818152606093849360009384939291830182828015610d785780601f10610d4d57610100808354040283529160200191610d78565b820191906000526020600020905b815481529060010190602001808311610d5b57829003601f168201915b505060038054604080516020601f60026000196101006001881615020190951694909404938401819004810282018101909252828152969a5091945092508401905082828015610e095780601f10610dde57610100808354040283529160200191610e09565b820191906000526020600020905b815481529060010190602001808311610dec57829003601f168201915b5050600654600754989994989097509550929350505050565b600b54600160a060020a03163314610e3957600080fd5b6009805463ffffffff191663ffffffff92909216919091179055565b6000805460a060020a900460ff1615610e835760405160e560020a62461bcd02815260040161047690612a6e565b6000805460a060020a60ff02191660a060020a178155338152600160205260409020548290811115610eb457600080fd5b33600090815260016020526040902054839080820111610ed357600080fd5b3360009081526001602052604090206002015463ffffffff16421015610ef857600080fd5b600080600080610f07886119b0565b92965090945092509050610f1b8882611a3d565b610f2733898686611cab565b600554610f349083611d56565b600555604051339082156108fc029083906000818181858888f19350505050158015610f64573d6000803e3d6000fd5b50506000805460a060020a60ff02191690555060019695505050505050565b600e546000903490811015610f9757600080fd5b610fa083611813565b1515610fab57600080fd5b50600192915050565b600160a060020a031660009081526001602052604090205490565b600a54604080517f26c7a0de0000000000000000000000000000000000000000000000000000000081529051600092600160a060020a03169182916326c7a0de91600480820192602092909190829003018186803b15801561103057600080fd5b505afa158015611044573d6000803e3d6000fd5b505050506040513d601f19601f8201168201806040525061106891908101906124ad565b91505090565b600054600160a060020a031681565b600054600c54600b54600f54600854600954600160a060020a039586169594851694939093169263ffffffff16909192939495565b600054600160a060020a031633146110c957600080fd5b60006110d3610fcf565b6040517ff39ba932000000000000000000000000000000000000000000000000000000008152909150600160a060020a0382169063f39ba9329061111f9033903090879060040161288f565b602060405180830381600087803b15801561113957600080fd5b505af115801561114d573d6000803e3d6000fd5b505050506040513d601f19601f820116820180604052506111719190810190612639565b5050600c805473ffffffffffffffffffffffffffffffffffffffff1916600160a060020a0392909216919091179055565b60065490565b60006111b26114c9565b905090565b60005b83811015611205576111fc868686848181106111d257fe5b90506020020135600160a060020a031685858581811015156111f057fe5b90506020020135611d68565b506001016111ba565b505050505050565b600b54600160a060020a0316331461122457600080fd5b600061122e610fcf565b6040517f2a44fba5000000000000000000000000000000000000000000000000000000008152909150600160a060020a03821690632a44fba59061127a9033903090879060040161288f565b602060405180830381600087803b15801561129457600080fd5b505af11580156112a8573d6000803e3d6000fd5b505050506040513d601f19601f820116820180604052506112cc9190810190612639565b15156112d757600080fd5b50600b805473ffffffffffffffffffffffffffffffffffffffff1916600160a060020a0392909216919091179055565b600054600160a060020a0316331461131e57600080fd5b8260006113296114c9565b600160a060020a03166358c860f9836040518263ffffffff1660e060020a0281526004016113579190612873565b60206040518083038186803b15801561136f57600080fd5b505afa158015611383573d6000803e3d6000fd5b505050506040513d601f19601f820116820180604052506113a79190810190612639565b90508015156113b557600080fd5b6113c0858585611d68565b15156113cb57600080fd5b5050505050565b600d5460009060a060020a900460ff1615610a6e5750600d54600160a060020a0316610a6e565b600b54600160a060020a0316331461141057600080fd5b600061141a610fcf565b6040517f91f1df84000000000000000000000000000000000000000000000000000000008152909150600160a060020a038216906391f1df8490611466903390309087906004016128b7565b602060405180830381600087803b15801561148057600080fd5b505af1158015611494573d6000803e3d6000fd5b505050506040513d601f19601f820116820180604052506114b89190810190612639565b15156114c357600080fd5b50600f55565b600a546040805160e060020a6384987e830281529051600092600160a060020a0316916384987e83916004808301926020929190829003018186803b15801561151157600080fd5b505afa158015611525573d6000803e3d6000fd5b505050506040513d601f19601f820116820180604052506111b291908101906124ad565b600a546040805160e060020a6384987e830281529051600092600160a060020a0316916384987e83916004808301926020929190829003018186803b15801561159157600080fd5b505afa1580156115a5573d6000803e3d6000fd5b505050506040513d601f19601f820116820180604052506115c991908101906124ad565b600160a060020a031663485ff697836040518263ffffffff1660e060020a0281526004016115f79190612873565b60206040518083038186803b15801561160f57600080fd5b505afa158015611623573d6000803e3d6000fd5b505050506040513d601f19601f8201168201806040525061164791908101906124ad565b92915050565b600061164782611e19565b600a546040805160e060020a6384987e830281529051600092600160a060020a0316916384987e83916004808301926020929190829003018186803b1580156116a057600080fd5b505afa1580156116b4573d6000803e3d6000fd5b505050506040513d601f19601f820116820180604052506116d891908101906124ad565b600160a060020a0316637ecf2c2f84846040518363ffffffff1660e060020a028152600401611708929190612a1f565b60206040518083038186803b15801561172057600080fd5b505afa158015611734573d6000803e3d6000fd5b505050506040513d601f19601f82011682018060405250610a639190810190612639565b600a546040805160e060020a6384987e830281529051600092600160a060020a0316916384987e83916004808301926020929190829003018186803b1580156117a057600080fd5b505afa1580156117b4573d6000803e3d6000fd5b505050506040513d601f19601f820116820180604052506117d891908101906124ad565b600160a060020a0316635b28556d6040518163ffffffff1660e060020a02815260040160206040518083038186803b15801561151157600080fd5b600d54600090600160a060020a0316156118cb57600d546040517fd88c271e000000000000000000000000000000000000000000000000000000008152600160a060020a039091169063d88c271e90611870908590600401612873565b60206040518083038186803b15801561188857600080fd5b505afa15801561189c573d6000803e3d6000fd5b505050506040513d601f19601f820116820180604052506118c09190810190612639565b15156118cb57600080fd5b6000806000806118d9611e20565b929650909450925090506118ec81611ea1565b6118f886828585612104565b60055461190590856121de565b60055550600195945050505050565b600061191e6121fb565b600160a060020a031663802af84087878787876040518663ffffffff1660e060020a028152600401611954959493929190612a8c565b60206040518083038186803b15801561196c57600080fd5b505afa158015611980573d6000803e3d6000fd5b505050506040513d601f19601f820116820180604052506119a49190810190612639565b90505b95945050505050565b60008060008060006127106119ca87600260060154612259565b8115156119d357fe5b04905060646119e782600a60050154612259565b8115156119f057fe5b049450846119fe8286611d56565b945084611a0b8884611d56565b945084620f4240611a2187600260040154612259565b811515611a2a57fe5b939a929950909750909104945092505050565b60028054604080516020601f6000196101006001871615020190941685900493840181900481028201810190925282815260609390929091830182828015611ac65780601f10611a9b57610100808354040283529160200191611ac6565b820191906000526020600020905b815481529060010190602001808311611aa957829003601f168201915b505060038054604080516020601f6002600019610100600188161502019095169490940493840181900481028201810190925282815296975060609695509193509150830182828015611b5a5780601f10611b2f57610100808354040283529160200191611b5a565b820191906000526020600020905b815481529060010190602001808311611b3d57829003601f168201915b5050600a54604080517f26c7a0de0000000000000000000000000000000000000000000000000000000081529051959650600160a060020a0390911694600094508593506326c7a0de92506004808301926020929190829003018186803b158015611bc457600080fd5b505afa158015611bd8573d6000803e3d6000fd5b505050506040513d601f19601f82011682018060405250611bfc91908101906124ad565b6040517f2ec57612000000000000000000000000000000000000000000000000000000008152909150600160a060020a03821690632ec5761290611c4e90339030908b908b908b908b90600401612914565b602060405180830381600087803b158015611c6857600080fd5b505af1158015611c7c573d6000803e3d6000fd5b505050506040513d601f19601f82011682018060405250611ca09190810190612639565b151561120557600080fd5b600160a060020a038416600090815260016020526040902054611cce9084611d56565b600160a060020a0380861660009081526001602052604080822093909355600c5490911681522054611d0090836121de565b600c54600160a060020a0390811660009081526001602052604080822093909355600b5490911681522054611d3590826121de565b600b54600160a060020a031660009081526001602052604090205550505050565b600082821115611d6257fe5b50900390565b6040517f095ea7b3000000000000000000000000000000000000000000000000000000008152600090600160a060020a0384169063095ea7b390611db290879086906004016129d5565b602060405180830381600087803b158015611dcc57600080fd5b505af1158015611de0573d6000803e3d6000fd5b505050506040513d601f19601f82011682018060405250611e049190810190612639565b1515611e0f57600080fd5b5060019392505050565b6020015190565b600080600080611e3a620f4240340260026005015461227a565b93506000612710611e5086600260060154612259565b811515611e5957fe5b049050846064611e6e83600a60050154612259565b811515611e7757fe5b04945084611e858387611d56565b945084611e928885611d56565b92989197509550909350915050565b60028054604080516020601f6000196101006001871615020190941685900493840181900481028201810190925282815260609390929091830182828015611f2a5780601f10611eff57610100808354040283529160200191611f2a565b820191906000526020600020905b815481529060010190602001808311611f0d57829003601f168201915b505060038054604080516020601f6002600019610100600188161502019095169490940493840181900481028201810190925282815296975060609695509193509150830182828015611fbe5780601f10611f9357610100808354040283529160200191611fbe565b820191906000526020600020905b815481529060010190602001808311611fa157829003601f168201915b5050600a54604080517f26c7a0de0000000000000000000000000000000000000000000000000000000081529051959650600160a060020a0390911694600094508593506326c7a0de92506004808301926020929190829003018186803b15801561202857600080fd5b505afa15801561203c573d6000803e3d6000fd5b505050506040513d601f19601f8201168201806040525061206091908101906124ad565b6040517f2cc4e4b6000000000000000000000000000000000000000000000000000000008152909150600160a060020a03821690632cc4e4b6906120b2903390309034908b908b908b90600401612914565b602060405180830381600087803b1580156120cc57600080fd5b505af11580156120e0573d6000803e3d6000fd5b505050506040513d601f19601f820116820180604052506113c09190810190612639565b600160a060020a03841660009081526001602052604090205461212790846121de565b600160a060020a0380861660009081526001602052604080822093909355600c549091168152205461215990836121de565b600c54600160a060020a0390811660009081526001602052604080822093909355600b549091168152205461218e90826121de565b600b54600160a060020a039081166000908152600160205260408082209390935560095496909116815220600201805463ffffffff191663ffffffff958616420190951694909417909355505050565b60008282018381108015906121f35750828110155b1515610a6357fe5b600a54604080517fb74508d10000000000000000000000000000000000000000000000000000000081529051600092600160a060020a03169163b74508d1916004808301926020929190829003018186803b15801561151157600080fd5b60008282028315806121f3575082848281151561227257fe5b0414610a6357fe5b600080821161228557fe5b6000828481151561229257fe5b04905082848115156122a057fe5b068184020184141515610a6357fe5b6000610a638235612b47565b6000610a638251612b47565b600080601f830184136122d957600080fd5b50813567ffffffffffffffff8111156122f157600080fd5b60208301915083602082028301111561230957600080fd5b9250929050565b6000601f8201831361232157600080fd5b813561233461232f82612afa565b612ad3565b81815260209384019390925082018360005b83811015612372578135860161235c8882612431565b8452506020928301929190910190600101612346565b5050505092915050565b6000610a638235612b52565b6000610a638251612b52565b6000610a638235610a6e565b600080601f830184136123b257600080fd5b50813567ffffffffffffffff8111156123ca57600080fd5b60208301915083600182028301111561230957600080fd5b6000601f820183136123f357600080fd5b813561240161232f82612b1b565b9150808252602083016020830185838301111561241d57600080fd5b612428838284612ba2565b50505092915050565b60006020828403121561244357600080fd5b61244d6020612ad3565b9050813567ffffffffffffffff81111561246657600080fd5b612472848285016123e2565b82525092915050565b6000610a638235612b88565b60006020828403121561249957600080fd5b60006124a584846122af565b949350505050565b6000602082840312156124bf57600080fd5b60006124a584846122bb565b6000806000606084860312156124e057600080fd5b60006124ec86866122af565b93505060206124fd868287016122af565b925050604061250e86828701612394565b9150509250925092565b60008060008060006060868803121561253057600080fd5b600061253c88886122af565b955050602086013567ffffffffffffffff81111561255957600080fd5b612565888289016122c7565b9450945050604086013567ffffffffffffffff81111561258457600080fd5b612590888289016122c7565b92509250509295509295909350565b600080604083850312156125b257600080fd5b60006125be85856122af565b925050602083013567ffffffffffffffff8111156125db57600080fd5b6125e785828601612310565b9150509250929050565b6000806040838503121561260457600080fd5b600061261085856122af565b925050602083013567ffffffffffffffff81111561262d57600080fd5b6125e785828601612431565b60006020828403121561264b57600080fd5b60006124a58484612388565b6000806040838503121561266a57600080fd5b6000612676858561237c565b92505060206125e7858286016122af565b60008060006040848603121561269c57600080fd5b60006126a88686612394565b935050602084013567ffffffffffffffff8111156126c557600080fd5b6126d1868287016123a0565b92509250509250925092565b6000602082840312156126ef57600080fd5b60006124a58484612394565b60008060008060008060a0878903121561271457600080fd5b60006127208989612394565b965050602061273189828a01612394565b955050604061274289828a01612394565b945050606061275389828a01612394565b935050608087013567ffffffffffffffff81111561277057600080fd5b61277c89828a016123a0565b92509250509295509295509295565b60006020828403121561279d57600080fd5b60006124a5848461247b565b6127b281612b91565b82525050565b6127b281612b47565b6127b281612b52565b6127b281610a6e565b6127b281612b57565b60008284526020840193506127f2838584612ba2565b6127fb83612bde565b9093019392505050565b600061281082612b43565b808452612824816020860160208601612bae565b61282d81612bde565b9093016020019392505050565b601281527f5245454e5452414e43595f494c4c4547414c0000000000000000000000000000602082015260400190565b6127b281612b88565b6020810161164782846127b8565b6020810161164782846127a9565b6060810161289d82866127a9565b6128aa60208301856127a9565b6124a560408301846127b8565b606081016128c582866127a9565b6128d260208301856127a9565b6124a560408301846127ca565b608081016128ed82876127a9565b6128fa60208301866127a9565b61290760408301856127ca565b6119a760608301846127ca565b60c0810161292282896127a9565b61292f60208301886127a9565b61293c60408301876127ca565b61294960608301866127ca565b818103608083015261295b8185612805565b905081810360a083015261296f8184612805565b98975050505050505050565b60c0810161298982896127b8565b61299660208301886127b8565b6129a360408301876127b8565b6129b060608301866127ca565b6129bd60808301856127ca565b6129ca60a083018461286a565b979650505050505050565b604081016129e382856127b8565b610a6360208301846127ca565b6020810161164782846127c1565b60408101612a0c82866127ca565b81810360208301526119a78184866127dc565b60408101612a2d82856127d3565b610a6360208301846127b8565b60808082528101612a4b8187612805565b90508181036020830152612a5f8186612805565b905061290760408301856127ca565b602080825281016116478161283a565b6020810161164782846127ca565b60a08101612a9a82886127ca565b612aa760208301876127ca565b612ab460408301866127ca565b612ac160608301856127ca565b81810360808301526129ca8184612805565b60405181810167ffffffffffffffff81118282101715612af257600080fd5b604052919050565b600067ffffffffffffffff821115612b1157600080fd5b5060209081020190565b600067ffffffffffffffff821115612b3257600080fd5b506020601f91909101601f19160190565b5190565b600061164782612b7c565b151590565b7fffffffff000000000000000000000000000000000000000000000000000000001690565b600160a060020a031690565b63ffffffff1690565b600061164782600061164782612b47565b82818337506000910152565b60005b83811015612bc9578181015183820152602001612bb1565b83811115612bd8576000848401525b50505050565b601f01601f19169056fea265627a7a72305820818d36351a882f65d54069584ccd1643dfeaa907b64f1974a0bb2a57d198b2686c6578706572696d656e74616cf50037a165627a7a72305820e2e7b0a4250b8d5e421b0d476f6dbad2cdc54bf66751dd0274fdc29b30a343fd0029",
				"opcodes": "PUSH1 0x80 PUSH1 0x40 MSTORE CALLVALUE DUP1 ISZERO PUSH2 0x10 JUMPI PUSH1 0x0 DUP1 REVERT JUMPDEST POP PUSH1 0x40 MLOAD PUSH1 0x60 DUP1 PUSH2 0x444C DUP4 CODECOPY DUP2 ADD DUP1 PUSH1 0x40 MSTORE PUSH1 0x60 DUP2 LT ISZERO PUSH2 0x30 JUMPI PUSH1 0x0 DUP1 REVERT JUMPDEST POP DUP1 MLOAD PUSH1 0x20 DUP3 ADD MLOAD PUSH1 0x40 SWAP1 SWAP3 ADD MLOAD PUSH1 0x7 DUP1 SLOAD PUSH1 0x1 PUSH1 0xA0 PUSH1 0x2 EXP SUB SWAP4 DUP5 AND PUSH1 0x1 PUSH1 0xA0 PUSH1 0x2 EXP SUB NOT SWAP2 DUP3 AND OR SWAP1 SWAP2 SSTORE PUSH1 0x8 DUP1 SLOAD SWAP5 DUP5 AND SWAP5 DUP3 AND SWAP5 SWAP1 SWAP5 OR SWAP1 SWAP4 SSTORE PUSH1 0x9 DUP1 SLOAD SWAP3 SWAP1 SWAP2 AND SWAP2 DUP4 AND SWAP2 SWAP1 SWAP2 OR SWAP1 SSTORE PUSH1 0x0 DUP1 SLOAD SWAP1 SWAP2 AND CALLER OR SWAP1 SSTORE PUSH2 0x43B3 DUP1 PUSH2 0x99 PUSH1 0x0 CODECOPY PUSH1 0x0 RETURN INVALID PUSH1 0x80 PUSH1 0x40 MSTORE PUSH1 0x4 CALLDATASIZE LT PUSH3 0xDE JUMPI PUSH4 0xFFFFFFFF PUSH29 0x100000000000000000000000000000000000000000000000000000000 PUSH1 0x0 CALLDATALOAD DIV AND PUSH4 0x13AF4035 DUP2 EQ PUSH3 0xE3 JUMPI DUP1 PUSH4 0x1C31F710 EQ PUSH3 0x11C JUMPI DUP1 PUSH4 0x3408F73A EQ PUSH3 0x153 JUMPI DUP1 PUSH4 0x3DCC8B89 EQ PUSH3 0x1FC JUMPI DUP1 PUSH4 0x5AB1BD53 EQ PUSH3 0x23B JUMPI DUP1 PUSH4 0x69FE0E2D EQ PUSH3 0x26F JUMPI DUP1 PUSH4 0x837929B6 EQ PUSH3 0x29D JUMPI DUP1 PUSH4 0x8DA5CB5B EQ PUSH3 0x2B5 JUMPI DUP1 PUSH4 0x9890220B EQ PUSH3 0x2CD JUMPI DUP1 PUSH4 0xA91EE0DC EQ PUSH3 0x2E5 JUMPI DUP1 PUSH4 0xC1BF130D EQ PUSH3 0x31C JUMPI DUP1 PUSH4 0xC8C3B926 EQ PUSH3 0x3A5 JUMPI DUP1 PUSH4 0xF08D29D5 EQ PUSH3 0x3DC JUMPI DUP1 PUSH4 0xFFA1AD74 EQ PUSH3 0x4BB JUMPI JUMPDEST PUSH1 0x0 DUP1 REVERT JUMPDEST CALLVALUE DUP1 ISZERO PUSH3 0xF0 JUMPI PUSH1 0x0 DUP1 REVERT JUMPDEST POP PUSH3 0x11A PUSH1 0x4 DUP1 CALLDATASIZE SUB PUSH1 0x20 DUP2 LT ISZERO PUSH3 0x109 JUMPI PUSH1 0x0 DUP1 REVERT JUMPDEST POP CALLDATALOAD PUSH1 0x1 PUSH1 0xA0 PUSH1 0x2 EXP SUB AND PUSH3 0x54B JUMP JUMPDEST STOP JUMPDEST CALLVALUE DUP1 ISZERO PUSH3 0x129 JUMPI PUSH1 0x0 DUP1 REVERT JUMPDEST POP PUSH3 0x11A PUSH1 0x4 DUP1 CALLDATASIZE SUB PUSH1 0x20 DUP2 LT ISZERO PUSH3 0x142 JUMPI PUSH1 0x0 DUP1 REVERT JUMPDEST POP CALLDATALOAD PUSH1 0x1 PUSH1 0xA0 PUSH1 0x2 EXP SUB AND PUSH3 0x5D4 JUMP JUMPDEST CALLVALUE DUP1 ISZERO PUSH3 0x160 JUMPI PUSH1 0x0 DUP1 REVERT JUMPDEST POP PUSH3 0x16B PUSH3 0x61B JUMP JUMPDEST PUSH1 0x40 DUP1 MLOAD PUSH1 0x1 PUSH1 0xA0 PUSH1 0x2 EXP SUB DUP6 AND DUP2 MSTORE SWAP1 DUP2 ADD DUP3 SWAP1 MSTORE PUSH1 0x60 PUSH1 0x20 DUP1 DUP4 ADD DUP3 DUP2 MSTORE DUP6 MLOAD SWAP3 DUP5 ADD SWAP3 SWAP1 SWAP3 MSTORE DUP5 MLOAD PUSH1 0x80 DUP5 ADD SWAP2 DUP7 ADD SWAP1 DUP1 DUP4 DUP4 PUSH1 0x0 JUMPDEST DUP4 DUP2 LT ISZERO PUSH3 0x1BE JUMPI DUP2 DUP2 ADD MLOAD DUP4 DUP3 ADD MSTORE PUSH1 0x20 ADD PUSH3 0x1A4 JUMP JUMPDEST POP POP POP POP SWAP1 POP SWAP1 DUP2 ADD SWAP1 PUSH1 0x1F AND DUP1 ISZERO PUSH3 0x1EC JUMPI DUP1 DUP3 SUB DUP1 MLOAD PUSH1 0x1 DUP4 PUSH1 0x20 SUB PUSH2 0x100 EXP SUB NOT AND DUP2 MSTORE PUSH1 0x20 ADD SWAP2 POP JUMPDEST POP SWAP5 POP POP POP POP POP PUSH1 0x40 MLOAD DUP1 SWAP2 SUB SWAP1 RETURN JUMPDEST CALLVALUE DUP1 ISZERO PUSH3 0x209 JUMPI PUSH1 0x0 DUP1 REVERT JUMPDEST POP PUSH3 0x11A PUSH1 0x4 DUP1 CALLDATASIZE SUB PUSH1 0x40 DUP2 LT ISZERO PUSH3 0x222 JUMPI PUSH1 0x0 DUP1 REVERT JUMPDEST POP PUSH1 0x1 PUSH1 0xA0 PUSH1 0x2 EXP SUB DUP2 CALLDATALOAD DUP2 AND SWAP2 PUSH1 0x20 ADD CALLDATALOAD AND PUSH3 0x676 JUMP JUMPDEST CALLVALUE DUP1 ISZERO PUSH3 0x248 JUMPI PUSH1 0x0 DUP1 REVERT JUMPDEST POP PUSH3 0x253 PUSH3 0x711 JUMP JUMPDEST PUSH1 0x40 DUP1 MLOAD PUSH1 0x1 PUSH1 0xA0 PUSH1 0x2 EXP SUB SWAP1 SWAP3 AND DUP3 MSTORE MLOAD SWAP1 DUP2 SWAP1 SUB PUSH1 0x20 ADD SWAP1 RETURN JUMPDEST CALLVALUE DUP1 ISZERO PUSH3 0x27C JUMPI PUSH1 0x0 DUP1 REVERT JUMPDEST POP PUSH3 0x11A PUSH1 0x4 DUP1 CALLDATASIZE SUB PUSH1 0x20 DUP2 LT ISZERO PUSH3 0x295 JUMPI PUSH1 0x0 DUP1 REVERT JUMPDEST POP CALLDATALOAD PUSH3 0x721 JUMP JUMPDEST CALLVALUE DUP1 ISZERO PUSH3 0x2AA JUMPI PUSH1 0x0 DUP1 REVERT JUMPDEST POP PUSH3 0x253 PUSH3 0x73E JUMP JUMPDEST CALLVALUE DUP1 ISZERO PUSH3 0x2C2 JUMPI PUSH1 0x0 DUP1 REVERT JUMPDEST POP PUSH3 0x253 PUSH3 0x7D4 JUMP JUMPDEST CALLVALUE DUP1 ISZERO PUSH3 0x2DA JUMPI PUSH1 0x0 DUP1 REVERT JUMPDEST POP PUSH3 0x11A PUSH3 0x7E3 JUMP JUMPDEST CALLVALUE DUP1 ISZERO PUSH3 0x2F2 JUMPI PUSH1 0x0 DUP1 REVERT JUMPDEST POP PUSH3 0x11A PUSH1 0x4 DUP1 CALLDATASIZE SUB PUSH1 0x20 DUP2 LT ISZERO PUSH3 0x30B JUMPI PUSH1 0x0 DUP1 REVERT JUMPDEST POP CALLDATALOAD PUSH1 0x1 PUSH1 0xA0 PUSH1 0x2 EXP SUB AND PUSH3 0x839 JUMP JUMPDEST CALLVALUE DUP1 ISZERO PUSH3 0x329 JUMPI PUSH1 0x0 DUP1 REVERT JUMPDEST POP PUSH3 0x353 PUSH1 0x4 DUP1 CALLDATASIZE SUB PUSH1 0x20 DUP2 LT ISZERO PUSH3 0x342 JUMPI PUSH1 0x0 DUP1 REVERT JUMPDEST POP CALLDATALOAD PUSH1 0x1 PUSH1 0xA0 PUSH1 0x2 EXP SUB AND PUSH3 0x880 JUMP JUMPDEST PUSH1 0x40 DUP1 MLOAD PUSH1 0x20 DUP1 DUP3 MSTORE DUP4 MLOAD DUP2 DUP4 ADD MSTORE DUP4 MLOAD SWAP2 SWAP3 DUP4 SWAP3 SWAP1 DUP4 ADD SWAP2 DUP6 DUP2 ADD SWAP2 MUL DUP1 DUP4 DUP4 PUSH1 0x0 JUMPDEST DUP4 DUP2 LT ISZERO PUSH3 0x391 JUMPI DUP2 DUP2 ADD MLOAD DUP4 DUP3 ADD MSTORE PUSH1 0x20 ADD PUSH3 0x377 JUMP JUMPDEST POP POP POP POP SWAP1 POP ADD SWAP3 POP POP POP PUSH1 0x40 MLOAD DUP1 SWAP2 SUB SWAP1 RETURN JUMPDEST CALLVALUE DUP1 ISZERO PUSH3 0x3B2 JUMPI PUSH1 0x0 DUP1 REVERT JUMPDEST POP PUSH3 0x11A PUSH1 0x4 DUP1 CALLDATASIZE SUB PUSH1 0x20 DUP2 LT ISZERO PUSH3 0x3CB JUMPI PUSH1 0x0 DUP1 REVERT JUMPDEST POP CALLDATALOAD PUSH1 0x1 PUSH1 0xA0 PUSH1 0x2 EXP SUB AND PUSH3 0x8F8 JUMP JUMPDEST PUSH3 0x4A7 PUSH1 0x4 DUP1 CALLDATASIZE SUB PUSH1 0x40 DUP2 LT ISZERO PUSH3 0x3F4 JUMPI PUSH1 0x0 DUP1 REVERT JUMPDEST DUP2 ADD SWAP1 PUSH1 0x20 DUP2 ADD DUP2 CALLDATALOAD PUSH5 0x100000000 DUP2 GT ISZERO PUSH3 0x410 JUMPI PUSH1 0x0 DUP1 REVERT JUMPDEST DUP3 ADD DUP4 PUSH1 0x20 DUP3 ADD GT ISZERO PUSH3 0x423 JUMPI PUSH1 0x0 DUP1 REVERT JUMPDEST DUP1 CALLDATALOAD SWAP1 PUSH1 0x20 ADD SWAP2 DUP5 PUSH1 0x1 DUP4 MUL DUP5 ADD GT PUSH5 0x100000000 DUP4 GT OR ISZERO PUSH3 0x446 JUMPI PUSH1 0x0 DUP1 REVERT JUMPDEST SWAP2 SWAP4 SWAP1 SWAP3 SWAP1 SWAP2 PUSH1 0x20 DUP2 ADD SWAP1 CALLDATALOAD PUSH5 0x100000000 DUP2 GT ISZERO PUSH3 0x465 JUMPI PUSH1 0x0 DUP1 REVERT JUMPDEST DUP3 ADD DUP4 PUSH1 0x20 DUP3 ADD GT ISZERO PUSH3 0x478 JUMPI PUSH1 0x0 DUP1 REVERT JUMPDEST DUP1 CALLDATALOAD SWAP1 PUSH1 0x20 ADD SWAP2 DUP5 PUSH1 0x1 DUP4 MUL DUP5 ADD GT PUSH5 0x100000000 DUP4 GT OR ISZERO PUSH3 0x49B JUMPI PUSH1 0x0 DUP1 REVERT JUMPDEST POP SWAP1 SWAP3 POP SWAP1 POP PUSH3 0x910 JUMP JUMPDEST PUSH1 0x40 DUP1 MLOAD SWAP2 ISZERO ISZERO DUP3 MSTORE MLOAD SWAP1 DUP2 SWAP1 SUB PUSH1 0x20 ADD SWAP1 RETURN JUMPDEST CALLVALUE DUP1 ISZERO PUSH3 0x4C8 JUMPI PUSH1 0x0 DUP1 REVERT JUMPDEST POP PUSH3 0x4D3 PUSH3 0xBF1 JUMP JUMPDEST PUSH1 0x40 DUP1 MLOAD PUSH1 0x20 DUP1 DUP3 MSTORE DUP4 MLOAD DUP2 DUP4 ADD MSTORE DUP4 MLOAD SWAP2 SWAP3 DUP4 SWAP3 SWAP1 DUP4 ADD SWAP2 DUP6 ADD SWAP1 DUP1 DUP4 DUP4 PUSH1 0x0 JUMPDEST DUP4 DUP2 LT ISZERO PUSH3 0x50F JUMPI DUP2 DUP2 ADD MLOAD DUP4 DUP3 ADD MSTORE PUSH1 0x20 ADD PUSH3 0x4F5 JUMP JUMPDEST POP POP POP POP SWAP1 POP SWAP1 DUP2 ADD SWAP1 PUSH1 0x1F AND DUP1 ISZERO PUSH3 0x53D JUMPI DUP1 DUP3 SUB DUP1 MLOAD PUSH1 0x1 DUP4 PUSH1 0x20 SUB PUSH2 0x100 EXP SUB NOT AND DUP2 MSTORE PUSH1 0x20 ADD SWAP2 POP JUMPDEST POP SWAP3 POP POP POP PUSH1 0x40 MLOAD DUP1 SWAP2 SUB SWAP1 RETURN JUMPDEST PUSH1 0x0 SLOAD PUSH1 0x1 PUSH1 0xA0 PUSH1 0x2 EXP SUB AND CALLER EQ PUSH3 0x563 JUMPI PUSH1 0x0 DUP1 REVERT JUMPDEST PUSH1 0x1 PUSH1 0xA0 PUSH1 0x2 EXP SUB DUP2 AND ISZERO ISZERO PUSH3 0x579 JUMPI PUSH1 0x0 DUP1 REVERT JUMPDEST PUSH1 0x0 DUP1 SLOAD PUSH20 0xFFFFFFFFFFFFFFFFFFFFFFFFFFFFFFFFFFFFFFFF NOT AND PUSH1 0x1 PUSH1 0xA0 PUSH1 0x2 EXP SUB DUP4 DUP2 AND SWAP2 DUP3 OR DUP1 DUP5 SSTORE PUSH1 0x40 MLOAD SWAP3 SWAP4 SWAP2 AND SWAP2 PUSH32 0x70AEA8D848E8A90FB7661B227DC522EB6395C3DAC71B63CB59EDD5C9899B2364 SWAP2 SWAP1 LOG3 POP JUMP JUMPDEST PUSH1 0x0 SLOAD PUSH1 0x1 PUSH1 0xA0 PUSH1 0x2 EXP SUB AND CALLER EQ PUSH3 0x5EC JUMPI PUSH1 0x0 DUP1 REVERT JUMPDEST PUSH1 0x8 DUP1 SLOAD PUSH20 0xFFFFFFFFFFFFFFFFFFFFFFFFFFFFFFFFFFFFFFFF NOT AND PUSH1 0x1 PUSH1 0xA0 PUSH1 0x2 EXP SUB SWAP3 SWAP1 SWAP3 AND SWAP2 SWAP1 SWAP2 OR SWAP1 SSTORE JUMP JUMPDEST PUSH1 0x8 DUP1 SLOAD PUSH1 0x40 DUP1 MLOAD DUP1 DUP3 ADD SWAP1 SWAP2 MSTORE SWAP2 DUP3 MSTORE PUSH32 0x444620302E352E32000000000000000000000000000000000000000000000000 PUSH1 0x20 DUP4 ADD MSTORE PUSH1 0x1 PUSH1 0xA0 PUSH1 0x2 EXP SUB AND SWAP1 PUSH1 0x0 DUP3 DUP3 PUSH3 0x66A PUSH3 0xC28 JUMP JUMPDEST SWAP2 SWAP5 POP SWAP3 POP SWAP1 POP SWAP1 SWAP2 SWAP3 JUMP JUMPDEST PUSH1 0x0 SLOAD PUSH1 0x1 PUSH1 0xA0 PUSH1 0x2 EXP SUB AND CALLER EQ PUSH3 0x68E JUMPI PUSH1 0x0 DUP1 REVERT JUMPDEST PUSH1 0x40 DUP1 MLOAD PUSH32 0xC8C3B92600000000000000000000000000000000000000000000000000000000 DUP2 MSTORE PUSH1 0x1 PUSH1 0xA0 PUSH1 0x2 EXP SUB DUP4 DUP2 AND PUSH1 0x4 DUP4 ADD MSTORE SWAP2 MLOAD DUP5 SWAP3 DUP4 AND SWAP2 PUSH4 0xC8C3B926 SWAP2 PUSH1 0x24 DUP1 DUP4 ADD SWAP3 PUSH1 0x0 SWAP3 SWAP2 SWAP1 DUP3 SWAP1 SUB ADD DUP2 DUP4 DUP8 DUP1 EXTCODESIZE ISZERO DUP1 ISZERO PUSH3 0x6F3 JUMPI PUSH1 0x0 DUP1 REVERT JUMPDEST POP GAS CALL ISZERO DUP1 ISZERO PUSH3 0x708 JUMPI RETURNDATASIZE PUSH1 0x0 DUP1 RETURNDATACOPY RETURNDATASIZE PUSH1 0x0 REVERT JUMPDEST POP POP POP POP POP POP POP JUMP JUMPDEST PUSH1 0x7 SLOAD PUSH1 0x1 PUSH1 0xA0 PUSH1 0x2 EXP SUB AND JUMPDEST SWAP1 JUMP JUMPDEST PUSH1 0x0 SLOAD PUSH1 0x1 PUSH1 0xA0 PUSH1 0x2 EXP SUB AND CALLER EQ PUSH3 0x739 JUMPI PUSH1 0x0 DUP1 REVERT JUMPDEST PUSH1 0x6 SSTORE JUMP JUMPDEST PUSH1 0x9 SLOAD PUSH1 0x40 DUP1 MLOAD PUSH32 0x26C7A0DE00000000000000000000000000000000000000000000000000000000 DUP2 MSTORE SWAP1 MLOAD PUSH1 0x0 SWAP3 PUSH1 0x1 PUSH1 0xA0 PUSH1 0x2 EXP SUB AND SWAP2 DUP3 SWAP2 PUSH4 0x26C7A0DE SWAP2 PUSH1 0x4 DUP1 DUP3 ADD SWAP3 PUSH1 0x20 SWAP3 SWAP1 SWAP2 SWAP1 DUP3 SWAP1 SUB ADD DUP2 DUP7 DUP1 EXTCODESIZE ISZERO DUP1 ISZERO PUSH3 0x7A0 JUMPI PUSH1 0x0 DUP1 REVERT JUMPDEST POP GAS STATICCALL ISZERO DUP1 ISZERO PUSH3 0x7B5 JUMPI RETURNDATASIZE PUSH1 0x0 DUP1 RETURNDATACOPY RETURNDATASIZE PUSH1 0x0 REVERT JUMPDEST POP POP POP POP PUSH1 0x40 MLOAD RETURNDATASIZE PUSH1 0x20 DUP2 LT ISZERO PUSH3 0x7CC JUMPI PUSH1 0x0 DUP1 REVERT JUMPDEST POP MLOAD SWAP2 POP POP SWAP1 JUMP JUMPDEST PUSH1 0x0 SLOAD PUSH1 0x1 PUSH1 0xA0 PUSH1 0x2 EXP SUB AND DUP2 JUMP JUMPDEST PUSH1 0x0 SLOAD PUSH1 0x1 PUSH1 0xA0 PUSH1 0x2 EXP SUB AND CALLER EQ PUSH3 0x7FB JUMPI PUSH1 0x0 DUP1 REVERT JUMPDEST PUSH1 0x8 SLOAD PUSH1 0x40 MLOAD PUSH1 0x1 PUSH1 0xA0 PUSH1 0x2 EXP SUB SWAP1 SWAP2 AND SWAP1 ADDRESS BALANCE DUP1 ISZERO PUSH2 0x8FC MUL SWAP2 PUSH1 0x0 DUP2 DUP2 DUP2 DUP6 DUP9 DUP9 CALL SWAP4 POP POP POP POP ISZERO DUP1 ISZERO PUSH3 0x836 JUMPI RETURNDATASIZE PUSH1 0x0 DUP1 RETURNDATACOPY RETURNDATASIZE PUSH1 0x0 REVERT JUMPDEST POP JUMP JUMPDEST PUSH1 0x0 SLOAD PUSH1 0x1 PUSH1 0xA0 PUSH1 0x2 EXP SUB AND CALLER EQ PUSH3 0x851 JUMPI PUSH1 0x0 DUP1 REVERT JUMPDEST PUSH1 0x7 DUP1 SLOAD PUSH20 0xFFFFFFFFFFFFFFFFFFFFFFFFFFFFFFFFFFFFFFFF NOT AND PUSH1 0x1 PUSH1 0xA0 PUSH1 0x2 EXP SUB SWAP3 SWAP1 SWAP3 AND SWAP2 SWAP1 SWAP2 OR SWAP1 SSTORE JUMP JUMPDEST PUSH1 0x1 PUSH1 0xA0 PUSH1 0x2 EXP SUB DUP2 AND PUSH1 0x0 SWAP1 DUP2 MSTORE PUSH1 0xA PUSH1 0x20 SWAP1 DUP2 MSTORE PUSH1 0x40 SWAP2 DUP3 SWAP1 KECCAK256 DUP1 SLOAD DUP4 MLOAD DUP2 DUP5 MUL DUP2 ADD DUP5 ADD SWAP1 SWAP5 MSTORE DUP1 DUP5 MSTORE PUSH1 0x60 SWAP4 SWAP3 DUP4 ADD DUP3 DUP3 DUP1 ISZERO PUSH3 0x8EC JUMPI PUSH1 0x20 MUL DUP3 ADD SWAP2 SWAP1 PUSH1 0x0 MSTORE PUSH1 0x20 PUSH1 0x0 KECCAK256 SWAP1 JUMPDEST DUP2 SLOAD PUSH1 0x1 PUSH1 0xA0 PUSH1 0x2 EXP SUB AND DUP2 MSTORE PUSH1 0x1 SWAP1 SWAP2 ADD SWAP1 PUSH1 0x20 ADD DUP1 DUP4 GT PUSH3 0x8CD JUMPI JUMPDEST POP POP POP POP POP SWAP1 POP SWAP2 SWAP1 POP JUMP JUMPDEST PUSH1 0x8 SLOAD PUSH1 0x1 PUSH1 0xA0 PUSH1 0x2 EXP SUB AND CALLER EQ PUSH3 0x5EC JUMPI PUSH1 0x0 DUP1 REVERT JUMPDEST PUSH1 0x6 SLOAD PUSH1 0x0 SWAP1 CALLVALUE LT ISZERO PUSH3 0x923 JUMPI PUSH1 0x0 DUP1 REVERT JUMPDEST PUSH1 0x7 SLOAD PUSH1 0x40 DUP1 MLOAD PUSH32 0xCED72F8700000000000000000000000000000000000000000000000000000000 DUP2 MSTORE SWAP1 MLOAD PUSH1 0x1 PUSH1 0xA0 PUSH1 0x2 EXP SUB SWAP1 SWAP3 AND SWAP2 PUSH1 0x0 SWAP2 DUP4 SWAP2 PUSH4 0xCED72F87 SWAP2 PUSH1 0x4 DUP1 DUP3 ADD SWAP3 PUSH1 0x20 SWAP3 SWAP1 SWAP2 SWAP1 DUP3 SWAP1 SUB ADD DUP2 DUP7 DUP1 EXTCODESIZE ISZERO DUP1 ISZERO PUSH3 0x987 JUMPI PUSH1 0x0 DUP1 REVERT JUMPDEST POP GAS STATICCALL ISZERO DUP1 ISZERO PUSH3 0x99C JUMPI RETURNDATASIZE PUSH1 0x0 DUP1 RETURNDATACOPY RETURNDATASIZE PUSH1 0x0 REVERT JUMPDEST POP POP POP POP PUSH1 0x40 MLOAD RETURNDATASIZE PUSH1 0x20 DUP2 LT ISZERO PUSH3 0x9B3 JUMPI PUSH1 0x0 DUP1 REVERT JUMPDEST POP MLOAD PUSH1 0x40 DUP1 MLOAD PUSH32 0xCD6F4E0D00000000000000000000000000000000000000000000000000000000 DUP2 MSTORE SWAP1 MLOAD SWAP2 SWAP3 POP PUSH1 0x0 SWAP2 PUSH1 0x1 PUSH1 0xA0 PUSH1 0x2 EXP SUB DUP6 AND SWAP2 PUSH4 0xCD6F4E0D SWAP2 PUSH1 0x4 DUP1 DUP4 ADD SWAP3 PUSH1 0x20 SWAP3 SWAP2 SWAP1 DUP3 SWAP1 SUB ADD DUP2 DUP7 DUP1 EXTCODESIZE ISZERO DUP1 ISZERO PUSH3 0xA15 JUMPI PUSH1 0x0 DUP1 REVERT JUMPDEST POP GAS STATICCALL ISZERO DUP1 ISZERO PUSH3 0xA2A JUMPI RETURNDATASIZE PUSH1 0x0 DUP1 RETURNDATACOPY RETURNDATASIZE PUSH1 0x0 REVERT JUMPDEST POP POP POP POP PUSH1 0x40 MLOAD RETURNDATASIZE PUSH1 0x20 DUP2 LT ISZERO PUSH3 0xA41 JUMPI PUSH1 0x0 DUP1 REVERT JUMPDEST POP MLOAD PUSH1 0x40 DUP1 MLOAD PUSH1 0x20 PUSH1 0x1F DUP12 ADD DUP2 SWAP1 DIV DUP2 MUL DUP3 ADD DUP2 ADD SWAP1 SWAP3 MSTORE DUP10 DUP2 MSTORE SWAP2 SWAP3 POP PUSH3 0xABE SWAP2 SWAP1 DUP11 SWAP1 DUP11 SWAP1 DUP2 SWAP1 DUP5 ADD DUP4 DUP3 DUP1 DUP3 DUP5 CALLDATACOPY PUSH1 0x0 SWAP3 ADD SWAP2 SWAP1 SWAP2 MSTORE POP POP PUSH1 0x40 DUP1 MLOAD PUSH1 0x20 PUSH1 0x1F DUP13 ADD DUP2 SWAP1 DIV DUP2 MUL DUP3 ADD DUP2 ADD SWAP1 SWAP3 MSTORE DUP11 DUP2 MSTORE SWAP3 POP DUP11 SWAP2 POP DUP10 SWAP1 DUP2 SWAP1 DUP5 ADD DUP4 DUP3 DUP1 DUP3 DUP5 CALLDATACOPY PUSH1 0x0 SWAP3 ADD SWAP2 SWAP1 SWAP2 MSTORE POP CALLER SWAP3 POP DUP7 SWAP2 POP PUSH3 0xC8A SWAP1 POP JUMP JUMPDEST ISZERO ISZERO PUSH3 0xACA JUMPI PUSH1 0x0 DUP1 REVERT JUMPDEST PUSH1 0x5 SLOAD PUSH1 0x40 MLOAD PUSH32 0x3FA7D3E300000000000000000000000000000000000000000000000000000000 DUP2 MSTORE PUSH1 0x1 PUSH1 0xA0 PUSH1 0x2 EXP SUB SWAP2 DUP3 AND PUSH1 0x4 DUP3 ADD DUP2 DUP2 MSTORE PUSH1 0x64 DUP4 ADD DUP6 SWAP1 MSTORE CALLER PUSH1 0x84 DUP5 ADD DUP2 SWAP1 MSTORE PUSH1 0xA0 PUSH1 0x24 DUP6 ADD SWAP1 DUP2 MSTORE PUSH1 0xA4 DUP6 ADD DUP14 SWAP1 MSTORE SWAP5 DUP9 AND SWAP5 PUSH4 0x3FA7D3E3 SWAP5 DUP9 SWAP5 SWAP4 DUP16 SWAP4 DUP16 SWAP4 DUP16 SWAP4 DUP16 SWAP4 DUP13 SWAP4 SWAP3 SWAP1 SWAP2 PUSH1 0x44 DUP2 ADD SWAP1 PUSH1 0xC4 ADD DUP10 DUP10 DUP1 DUP3 DUP5 CALLDATACOPY PUSH1 0x0 DUP4 DUP3 ADD MSTORE PUSH1 0x1F ADD PUSH1 0x1F NOT AND SWAP1 SWAP2 ADD DUP5 DUP2 SUB DUP4 MSTORE DUP8 DUP2 MSTORE PUSH1 0x20 ADD SWAP1 POP DUP8 DUP8 DUP1 DUP3 DUP5 CALLDATACOPY PUSH1 0x0 DUP2 DUP5 ADD MSTORE PUSH1 0x1F NOT PUSH1 0x1F DUP3 ADD AND SWAP1 POP DUP1 DUP4 ADD SWAP3 POP POP POP SWAP10 POP POP POP POP POP POP POP POP POP POP PUSH1 0x20 PUSH1 0x40 MLOAD DUP1 DUP4 SUB DUP2 DUP6 DUP9 DUP1 EXTCODESIZE ISZERO DUP1 ISZERO PUSH3 0xBAB JUMPI PUSH1 0x0 DUP1 REVERT JUMPDEST POP GAS CALL ISZERO DUP1 ISZERO PUSH3 0xBC0 JUMPI RETURNDATASIZE PUSH1 0x0 DUP1 RETURNDATACOPY RETURNDATASIZE PUSH1 0x0 REVERT JUMPDEST POP POP POP POP POP PUSH1 0x40 MLOAD RETURNDATASIZE PUSH1 0x20 DUP2 LT ISZERO PUSH3 0xBD8 JUMPI PUSH1 0x0 DUP1 REVERT JUMPDEST POP MLOAD ISZERO ISZERO PUSH3 0xBE3 JUMPI INVALID JUMPDEST POP PUSH1 0x1 SWAP8 SWAP7 POP POP POP POP POP POP POP JUMP JUMPDEST PUSH1 0x40 DUP1 MLOAD DUP1 DUP3 ADD SWAP1 SWAP2 MSTORE PUSH1 0x8 DUP2 MSTORE PUSH32 0x444620302E352E32000000000000000000000000000000000000000000000000 PUSH1 0x20 DUP3 ADD MSTORE DUP2 JUMP JUMPDEST PUSH1 0x7 SLOAD PUSH1 0x40 DUP1 MLOAD PUSH32 0xCD6F4E0D00000000000000000000000000000000000000000000000000000000 DUP2 MSTORE SWAP1 MLOAD PUSH1 0x0 SWAP3 PUSH1 0x1 PUSH1 0xA0 PUSH1 0x2 EXP SUB AND SWAP2 DUP3 SWAP2 PUSH4 0xCD6F4E0D SWAP2 PUSH1 0x4 DUP1 DUP3 ADD SWAP3 PUSH1 0x20 SWAP3 SWAP1 SWAP2 SWAP1 DUP3 SWAP1 SUB ADD DUP2 DUP7 DUP1 EXTCODESIZE ISZERO DUP1 ISZERO PUSH3 0x7A0 JUMPI PUSH1 0x0 DUP1 REVERT JUMPDEST PUSH1 0x9 SLOAD PUSH1 0x0 SWAP1 PUSH1 0x1 PUSH1 0xA0 PUSH1 0x2 EXP SUB AND PUSH3 0xCAA PUSH1 0x1 DUP8 DUP8 DUP8 DUP8 DUP7 PUSH3 0x115B JUMP JUMPDEST ISZERO ISZERO PUSH3 0xCB6 JUMPI PUSH1 0x0 DUP1 REVERT JUMPDEST PUSH1 0x1 PUSH1 0xA0 PUSH1 0x2 EXP SUB DUP1 DUP6 AND PUSH1 0x0 SWAP1 DUP2 MSTORE PUSH1 0xA PUSH1 0x20 SWAP1 DUP2 MSTORE PUSH1 0x40 DUP1 DUP4 KECCAK256 PUSH1 0x5 SLOAD DUP2 SLOAD PUSH1 0x1 DUP2 ADD DUP4 SSTORE SWAP2 DUP6 MSTORE DUP4 DUP6 KECCAK256 SWAP1 SWAP2 ADD DUP1 SLOAD PUSH20 0xFFFFFFFFFFFFFFFFFFFFFFFFFFFFFFFFFFFFFFFF NOT AND SWAP2 DUP7 AND SWAP2 SWAP1 SWAP2 OR SWAP1 SSTORE DUP1 MLOAD PUSH32 0x26C7A0DE00000000000000000000000000000000000000000000000000000000 DUP2 MSTORE SWAP1 MLOAD SWAP3 SWAP4 DUP6 AND SWAP3 PUSH4 0x26C7A0DE SWAP3 PUSH1 0x4 DUP4 DUP2 ADD SWAP4 SWAP2 SWAP3 SWAP2 DUP3 SWAP1 SUB ADD DUP2 DUP7 DUP1 EXTCODESIZE ISZERO DUP1 ISZERO PUSH3 0xD58 JUMPI PUSH1 0x0 DUP1 REVERT JUMPDEST POP GAS STATICCALL ISZERO DUP1 ISZERO PUSH3 0xD6D JUMPI RETURNDATASIZE PUSH1 0x0 DUP1 RETURNDATACOPY RETURNDATASIZE PUSH1 0x0 REVERT JUMPDEST POP POP POP POP PUSH1 0x40 MLOAD RETURNDATASIZE PUSH1 0x20 DUP2 LT ISZERO PUSH3 0xD84 JUMPI PUSH1 0x0 DUP1 REVERT JUMPDEST POP MLOAD PUSH1 0x5 SLOAD PUSH1 0x40 MLOAD PUSH32 0x2F82AFF300000000000000000000000000000000000000000000000000000000 DUP2 MSTORE PUSH1 0x1 PUSH1 0xA0 PUSH1 0x2 EXP SUB DUP9 DUP2 AND PUSH1 0x4 DUP4 ADD SWAP1 DUP2 MSTORE SWAP3 DUP2 AND PUSH1 0x24 DUP4 ADD DUP2 SWAP1 MSTORE PUSH1 0x84 DUP4 ADD DUP10 SWAP1 MSTORE PUSH1 0xA0 PUSH1 0x44 DUP5 ADD SWAP1 DUP2 MSTORE DUP13 MLOAD PUSH1 0xA4 DUP6 ADD MSTORE DUP13 MLOAD SWAP6 SWAP7 POP SWAP2 DUP7 AND SWAP5 PUSH4 0x2F82AFF3 SWAP5 DUP12 SWAP5 SWAP3 SWAP4 DUP15 SWAP4 DUP15 SWAP4 DUP14 SWAP4 SWAP3 SWAP2 PUSH1 0x64 DUP2 ADD SWAP2 PUSH1 0xC4 SWAP1 SWAP2 ADD SWAP1 PUSH1 0x20 DUP9 ADD SWAP1 DUP1 DUP4 DUP4 PUSH1 0x0 JUMPDEST DUP4 DUP2 LT ISZERO PUSH3 0xE2D JUMPI DUP2 DUP2 ADD MLOAD DUP4 DUP3 ADD MSTORE PUSH1 0x20 ADD PUSH3 0xE13 JUMP JUMPDEST POP POP POP POP SWAP1 POP SWAP1 DUP2 ADD SWAP1 PUSH1 0x1F AND DUP1 ISZERO PUSH3 0xE5B JUMPI DUP1 DUP3 SUB DUP1 MLOAD PUSH1 0x1 DUP4 PUSH1 0x20 SUB PUSH2 0x100 EXP SUB NOT AND DUP2 MSTORE PUSH1 0x20 ADD SWAP2 POP JUMPDEST POP DUP4 DUP2 SUB DUP3 MSTORE DUP6 MLOAD DUP2 MSTORE DUP6 MLOAD PUSH1 0x20 SWAP2 DUP3 ADD SWAP2 DUP8 ADD SWAP1 DUP1 DUP4 DUP4 PUSH1 0x0 JUMPDEST DUP4 DUP2 LT ISZERO PUSH3 0xE90 JUMPI DUP2 DUP2 ADD MLOAD DUP4 DUP3 ADD MSTORE PUSH1 0x20 ADD PUSH3 0xE76 JUMP JUMPDEST POP POP POP POP SWAP1 POP SWAP1 DUP2 ADD SWAP1 PUSH1 0x1F AND DUP1 ISZERO PUSH3 0xEBE JUMPI DUP1 DUP3 SUB DUP1 MLOAD PUSH1 0x1 DUP4 PUSH1 0x20 SUB PUSH2 0x100 EXP SUB NOT AND DUP2 MSTORE PUSH1 0x20 ADD SWAP2 POP JUMPDEST POP SWAP8 POP POP POP POP POP POP POP POP PUSH1 0x20 PUSH1 0x40 MLOAD DUP1 DUP4 SUB DUP2 PUSH1 0x0 DUP8 DUP1 EXTCODESIZE ISZERO DUP1 ISZERO PUSH3 0xEE3 JUMPI PUSH1 0x0 DUP1 REVERT JUMPDEST POP GAS CALL ISZERO DUP1 ISZERO PUSH3 0xEF8 JUMPI RETURNDATASIZE PUSH1 0x0 DUP1 RETURNDATACOPY RETURNDATASIZE PUSH1 0x0 REVERT JUMPDEST POP POP POP POP PUSH1 0x40 MLOAD RETURNDATASIZE PUSH1 0x20 DUP2 LT ISZERO PUSH3 0xF0F JUMPI PUSH1 0x0 DUP1 REVERT JUMPDEST POP MLOAD ISZERO ISZERO PUSH3 0xF1D JUMPI PUSH1 0x0 DUP1 REVERT JUMPDEST PUSH1 0x5 SLOAD PUSH1 0x40 DUP1 MLOAD PUSH32 0xAD562F4000000000000000000000000000000000000000000000000000000000 DUP2 MSTORE PUSH1 0x1 PUSH1 0xA0 PUSH1 0x2 EXP SUB SWAP3 DUP4 AND PUSH1 0x4 DUP3 ADD MSTORE PUSH1 0x1 PUSH1 0x24 DUP3 ADD MSTORE SWAP1 MLOAD SWAP2 DUP5 AND SWAP2 PUSH4 0xAD562F40 SWAP2 PUSH1 0x44 DUP1 DUP3 ADD SWAP3 PUSH1 0x0 SWAP3 SWAP1 SWAP2 SWAP1 DUP3 SWAP1 SUB ADD DUP2 DUP4 DUP8 DUP1 EXTCODESIZE ISZERO DUP1 ISZERO PUSH3 0xF8C JUMPI PUSH1 0x0 DUP1 REVERT JUMPDEST POP GAS CALL ISZERO DUP1 ISZERO PUSH3 0xFA1 JUMPI RETURNDATASIZE PUSH1 0x0 DUP1 RETURNDATACOPY RETURNDATASIZE PUSH1 0x0 REVERT JUMPDEST POP POP PUSH1 0x40 DUP1 MLOAD PUSH32 0xA0CA3EE100000000000000000000000000000000000000000000000000000000 DUP2 MSTORE PUSH1 0x1 PUSH1 0xA0 PUSH1 0x2 EXP SUB DUP10 DUP2 AND PUSH1 0x4 DUP4 ADD MSTORE PUSH1 0x1 PUSH1 0x24 DUP4 ADD MSTORE SWAP2 MLOAD SWAP2 DUP7 AND SWAP4 POP PUSH4 0xA0CA3EE1 SWAP3 POP PUSH1 0x44 DUP1 DUP3 ADD SWAP3 PUSH1 0x0 SWAP3 SWAP1 SWAP2 SWAP1 DUP3 SWAP1 SUB ADD DUP2 DUP4 DUP8 DUP1 EXTCODESIZE ISZERO DUP1 ISZERO PUSH3 0x1011 JUMPI PUSH1 0x0 DUP1 REVERT JUMPDEST POP GAS CALL ISZERO DUP1 ISZERO PUSH3 0x1026 JUMPI RETURNDATASIZE PUSH1 0x0 DUP1 RETURNDATACOPY RETURNDATASIZE PUSH1 0x0 REVERT JUMPDEST POP POP PUSH1 0x5 SLOAD PUSH1 0x40 DUP1 MLOAD SWAP1 DUP2 ADD DUP9 SWAP1 MSTORE PUSH1 0x60 DUP1 DUP3 MSTORE DUP12 MLOAD SWAP1 DUP3 ADD MSTORE DUP11 MLOAD PUSH1 0x1 PUSH1 0xA0 PUSH1 0x2 EXP SUB DUP11 DUP2 AND SWAP6 POP SWAP1 SWAP3 AND SWAP3 POP PUSH32 0xA4E8B2ABE2EE98767456A805D0C502689AD4042E5D5209A8302B77FC16BA88D5 SWAP2 DUP12 SWAP2 DUP12 SWAP2 DUP11 SWAP2 SWAP1 DUP2 SWAP1 PUSH1 0x20 DUP1 DUP4 ADD SWAP2 PUSH1 0x80 DUP5 ADD SWAP2 DUP9 ADD SWAP1 DUP1 DUP4 DUP4 PUSH1 0x0 JUMPDEST DUP4 DUP2 LT ISZERO PUSH3 0x10AD JUMPI DUP2 DUP2 ADD MLOAD DUP4 DUP3 ADD MSTORE PUSH1 0x20 ADD PUSH3 0x1093 JUMP JUMPDEST POP POP POP POP SWAP1 POP SWAP1 DUP2 ADD SWAP1 PUSH1 0x1F AND DUP1 ISZERO PUSH3 0x10DB JUMPI DUP1 DUP3 SUB DUP1 MLOAD PUSH1 0x1 DUP4 PUSH1 0x20 SUB PUSH2 0x100 EXP SUB NOT AND DUP2 MSTORE PUSH1 0x20 ADD SWAP2 POP JUMPDEST POP DUP4 DUP2 SUB DUP3 MSTORE DUP6 MLOAD DUP2 MSTORE DUP6 MLOAD PUSH1 0x20 SWAP2 DUP3 ADD SWAP2 DUP8 ADD SWAP1 DUP1 DUP4 DUP4 PUSH1 0x0 JUMPDEST DUP4 DUP2 LT ISZERO PUSH3 0x1110 JUMPI DUP2 DUP2 ADD MLOAD DUP4 DUP3 ADD MSTORE PUSH1 0x20 ADD PUSH3 0x10F6 JUMP JUMPDEST POP POP POP POP SWAP1 POP SWAP1 DUP2 ADD SWAP1 PUSH1 0x1F AND DUP1 ISZERO PUSH3 0x113E JUMPI DUP1 DUP3 SUB DUP1 MLOAD PUSH1 0x1 DUP4 PUSH1 0x20 SUB PUSH2 0x100 EXP SUB NOT AND DUP2 MSTORE PUSH1 0x20 ADD SWAP2 POP JUMPDEST POP SWAP6 POP POP POP POP POP POP PUSH1 0x40 MLOAD DUP1 SWAP2 SUB SWAP1 LOG3 POP PUSH1 0x1 SWAP7 SWAP6 POP POP POP POP POP POP JUMP JUMPDEST DUP5 MLOAD PUSH1 0x0 SWAP1 DUP2 SWAP1 PUSH3 0x1174 SWAP1 DUP10 SWAP1 PUSH1 0x20 DUP11 ADD SWAP1 PUSH3 0x1346 JUMP JUMPDEST DUP7 MLOAD PUSH3 0x118B SWAP1 PUSH1 0x1 DUP12 ADD SWAP1 PUSH1 0x20 DUP11 ADD SWAP1 PUSH3 0x1346 JUMP JUMPDEST PUSH1 0x2 DUP11 ADD DUP7 SWAP1 SSTORE PUSH1 0x3 DUP11 ADD DUP1 SLOAD PUSH20 0xFFFFFFFFFFFFFFFFFFFFFFFFFFFFFFFFFFFFFFFF NOT AND PUSH1 0x1 PUSH1 0xA0 PUSH1 0x2 EXP SUB DUP10 AND OR SWAP1 SSTORE DUP6 DUP8 DUP7 PUSH3 0x11C9 PUSH3 0x13CB JUMP JUMPDEST PUSH1 0x40 DUP2 ADD DUP5 SWAP1 MSTORE PUSH1 0x1 PUSH1 0xA0 PUSH1 0x2 EXP SUB DUP1 DUP5 AND PUSH1 0x60 DUP4 ADD MSTORE DUP3 AND PUSH1 0x80 DUP3 ADD MSTORE PUSH1 0xA0 DUP1 DUP3 MSTORE DUP7 SLOAD PUSH1 0x2 PUSH1 0x0 NOT PUSH2 0x100 PUSH1 0x1 DUP5 AND ISZERO MUL ADD SWAP1 SWAP2 AND DIV SWAP1 DUP3 ADD DUP2 SWAP1 MSTORE DUP2 SWAP1 PUSH1 0x20 DUP3 ADD SWAP1 PUSH1 0xC0 DUP4 ADD SWAP1 DUP10 SWAP1 DUP1 ISZERO PUSH3 0x1266 JUMPI DUP1 PUSH1 0x1F LT PUSH3 0x123A JUMPI PUSH2 0x100 DUP1 DUP4 SLOAD DIV MUL DUP4 MSTORE SWAP2 PUSH1 0x20 ADD SWAP2 PUSH3 0x1266 JUMP JUMPDEST DUP3 ADD SWAP2 SWAP1 PUSH1 0x0 MSTORE PUSH1 0x20 PUSH1 0x0 KECCAK256 SWAP1 JUMPDEST DUP2 SLOAD DUP2 MSTORE SWAP1 PUSH1 0x1 ADD SWAP1 PUSH1 0x20 ADD DUP1 DUP4 GT PUSH3 0x1248 JUMPI DUP3 SWAP1 SUB PUSH1 0x1F AND DUP3 ADD SWAP2 JUMPDEST POP POP DUP4 DUP2 SUB DUP3 MSTORE DUP8 SLOAD PUSH1 0x2 PUSH1 0x0 NOT PUSH2 0x100 PUSH1 0x1 DUP5 AND ISZERO MUL ADD SWAP1 SWAP2 AND DIV DUP1 DUP3 MSTORE PUSH1 0x20 SWAP1 SWAP2 ADD SWAP1 DUP9 SWAP1 DUP1 ISZERO PUSH3 0x12DE JUMPI DUP1 PUSH1 0x1F LT PUSH3 0x12B2 JUMPI PUSH2 0x100 DUP1 DUP4 SLOAD DIV MUL DUP4 MSTORE SWAP2 PUSH1 0x20 ADD SWAP2 PUSH3 0x12DE JUMP JUMPDEST DUP3 ADD SWAP2 SWAP1 PUSH1 0x0 MSTORE PUSH1 0x20 PUSH1 0x0 KECCAK256 SWAP1 JUMPDEST DUP2 SLOAD DUP2 MSTORE SWAP1 PUSH1 0x1 ADD SWAP1 PUSH1 0x20 ADD DUP1 DUP4 GT PUSH3 0x12C0 JUMPI DUP3 SWAP1 SUB PUSH1 0x1F AND DUP3 ADD SWAP2 JUMPDEST POP POP SWAP8 POP POP POP POP POP POP POP POP PUSH1 0x40 MLOAD DUP1 SWAP2 SUB SWAP1 PUSH1 0x0 CREATE DUP1 ISZERO DUP1 ISZERO PUSH3 0x1306 JUMPI RETURNDATASIZE PUSH1 0x0 DUP1 RETURNDATACOPY RETURNDATASIZE PUSH1 0x0 REVERT JUMPDEST POP PUSH1 0x4 DUP10 ADD DUP1 SLOAD PUSH1 0x1 PUSH1 0xA0 PUSH1 0x2 EXP SUB SWAP1 SWAP3 AND PUSH20 0xFFFFFFFFFFFFFFFFFFFFFFFFFFFFFFFFFFFFFFFF NOT SWAP1 SWAP3 AND SWAP2 SWAP1 SWAP2 OR SWAP1 SSTORE POP PUSH1 0x1 SWAP1 POP SWAP7 SWAP6 POP POP POP POP POP POP JUMP JUMPDEST DUP3 DUP1 SLOAD PUSH1 0x1 DUP2 PUSH1 0x1 AND ISZERO PUSH2 0x100 MUL SUB AND PUSH1 0x2 SWAP1 DIV SWAP1 PUSH1 0x0 MSTORE PUSH1 0x20 PUSH1 0x0 KECCAK256 SWAP1 PUSH1 0x1F ADD PUSH1 0x20 SWAP1 DIV DUP2 ADD SWAP3 DUP3 PUSH1 0x1F LT PUSH3 0x1389 JUMPI DUP1 MLOAD PUSH1 0xFF NOT AND DUP4 DUP1 ADD OR DUP6 SSTORE PUSH3 0x13B9 JUMP JUMPDEST DUP3 DUP1 ADD PUSH1 0x1 ADD DUP6 SSTORE DUP3 ISZERO PUSH3 0x13B9 JUMPI SWAP2 DUP3 ADD JUMPDEST DUP3 DUP2 GT ISZERO PUSH3 0x13B9 JUMPI DUP3 MLOAD DUP3 SSTORE SWAP2 PUSH1 0x20 ADD SWAP2 SWAP1 PUSH1 0x1 ADD SWAP1 PUSH3 0x139C JUMP JUMPDEST POP PUSH3 0x13C7 SWAP3 SWAP2 POP PUSH3 0x13DC JUMP JUMPDEST POP SWAP1 JUMP JUMPDEST PUSH1 0x40 MLOAD PUSH2 0x2F8E DUP1 PUSH3 0x13FA DUP4 CODECOPY ADD SWAP1 JUMP JUMPDEST PUSH3 0x71E SWAP2 SWAP1 JUMPDEST DUP1 DUP3 GT ISZERO PUSH3 0x13C7 JUMPI PUSH1 0x0 DUP2 SSTORE PUSH1 0x1 ADD PUSH3 0x13E3 JUMP INVALID PUSH1 0x80 PUSH1 0x40 MSTORE PUSH1 0x0 DUP1 SLOAD PUSH1 0xA0 PUSH1 0x2 EXP PUSH1 0xFF MUL NOT AND SWAP1 SSTORE CALLVALUE DUP1 ISZERO PUSH3 0x21 JUMPI PUSH1 0x0 DUP1 REVERT JUMPDEST POP PUSH1 0x40 MLOAD PUSH3 0x2F8E CODESIZE SUB DUP1 PUSH3 0x2F8E DUP4 CODECOPY DUP2 ADD DUP1 PUSH1 0x40 MSTORE PUSH3 0x47 SWAP2 SWAP1 DUP2 ADD SWAP1 PUSH3 0x20C JUMP JUMPDEST DUP5 MLOAD PUSH3 0x5C SWAP1 PUSH1 0x2 SWAP1 PUSH1 0x20 DUP9 ADD SWAP1 PUSH3 0xE8 JUMP JUMPDEST POP DUP4 MLOAD PUSH3 0x72 SWAP1 PUSH1 0x3 SWAP1 PUSH1 0x20 DUP8 ADD SWAP1 PUSH3 0xE8 JUMP JUMPDEST POP PUSH1 0x4 SWAP3 SWAP1 SWAP3 SSTORE PUSH8 0xDE0B6B3A7640000 PUSH1 0x6 DUP2 SWAP1 SSTORE PUSH1 0x7 SSTORE PUSH1 0x0 DUP1 SLOAD PUSH1 0x1 PUSH1 0xA0 PUSH1 0x2 EXP SUB SWAP3 DUP4 AND PUSH1 0x1 PUSH1 0xA0 PUSH1 0x2 EXP SUB NOT SWAP2 DUP3 AND DUP2 OR SWAP1 SWAP3 SSTORE PUSH1 0xA DUP1 SLOAD SWAP5 SWAP1 SWAP4 AND SWAP4 DUP2 AND SWAP4 SWAP1 SWAP4 OR SWAP1 SWAP2 SSTORE PUSH1 0xB DUP1 SLOAD DUP4 AND CALLER OR SWAP1 SSTORE PUSH7 0x38D7EA4C68000 PUSH1 0xE SSTORE PUSH1 0xC DUP1 SLOAD SWAP1 SWAP3 AND OR SWAP1 SSTORE POP POP PUSH1 0x50 PUSH1 0xF SSTORE PUSH3 0x35C JUMP JUMPDEST DUP3 DUP1 SLOAD PUSH1 0x1 DUP2 PUSH1 0x1 AND ISZERO PUSH2 0x100 MUL SUB AND PUSH1 0x2 SWAP1 DIV SWAP1 PUSH1 0x0 MSTORE PUSH1 0x20 PUSH1 0x0 KECCAK256 SWAP1 PUSH1 0x1F ADD PUSH1 0x20 SWAP1 DIV DUP2 ADD SWAP3 DUP3 PUSH1 0x1F LT PUSH3 0x12B JUMPI DUP1 MLOAD PUSH1 0xFF NOT AND DUP4 DUP1 ADD OR DUP6 SSTORE PUSH3 0x15B JUMP JUMPDEST DUP3 DUP1 ADD PUSH1 0x1 ADD DUP6 SSTORE DUP3 ISZERO PUSH3 0x15B JUMPI SWAP2 DUP3 ADD JUMPDEST DUP3 DUP2 GT ISZERO PUSH3 0x15B JUMPI DUP3 MLOAD DUP3 SSTORE SWAP2 PUSH1 0x20 ADD SWAP2 SWAP1 PUSH1 0x1 ADD SWAP1 PUSH3 0x13E JUMP JUMPDEST POP PUSH3 0x169 SWAP3 SWAP2 POP PUSH3 0x16D JUMP JUMPDEST POP SWAP1 JUMP JUMPDEST PUSH3 0x18A SWAP2 SWAP1 JUMPDEST DUP1 DUP3 GT ISZERO PUSH3 0x169 JUMPI PUSH1 0x0 DUP2 SSTORE PUSH1 0x1 ADD PUSH3 0x174 JUMP JUMPDEST SWAP1 JUMP JUMPDEST PUSH1 0x0 PUSH3 0x19B DUP3 MLOAD PUSH3 0x316 JUMP JUMPDEST SWAP4 SWAP3 POP POP POP JUMP JUMPDEST PUSH1 0x0 PUSH1 0x1F DUP3 ADD DUP4 SGT PUSH3 0x1B4 JUMPI PUSH1 0x0 DUP1 REVERT JUMPDEST DUP2 MLOAD PUSH3 0x1CB PUSH3 0x1C5 DUP3 PUSH3 0x2E2 JUMP JUMPDEST PUSH3 0x2BB JUMP JUMPDEST SWAP2 POP DUP1 DUP3 MSTORE PUSH1 0x20 DUP4 ADD PUSH1 0x20 DUP4 ADD DUP6 DUP4 DUP4 ADD GT ISZERO PUSH3 0x1E8 JUMPI PUSH1 0x0 DUP1 REVERT JUMPDEST PUSH3 0x1F5 DUP4 DUP3 DUP5 PUSH3 0x329 JUMP JUMPDEST POP POP POP SWAP3 SWAP2 POP POP JUMP JUMPDEST PUSH1 0x0 PUSH3 0x19B DUP3 MLOAD PUSH3 0x18A JUMP JUMPDEST PUSH1 0x0 DUP1 PUSH1 0x0 DUP1 PUSH1 0x0 PUSH1 0xA0 DUP7 DUP9 SUB SLT ISZERO PUSH3 0x225 JUMPI PUSH1 0x0 DUP1 REVERT JUMPDEST DUP6 MLOAD PUSH1 0x1 PUSH1 0x40 PUSH1 0x2 EXP SUB DUP2 GT ISZERO PUSH3 0x23C JUMPI PUSH1 0x0 DUP1 REVERT JUMPDEST PUSH3 0x24A DUP9 DUP3 DUP10 ADD PUSH3 0x1A2 JUMP JUMPDEST SWAP6 POP POP PUSH1 0x20 DUP7 ADD MLOAD PUSH1 0x1 PUSH1 0x40 PUSH1 0x2 EXP SUB DUP2 GT ISZERO PUSH3 0x267 JUMPI PUSH1 0x0 DUP1 REVERT JUMPDEST PUSH3 0x275 DUP9 DUP3 DUP10 ADD PUSH3 0x1A2 JUMP JUMPDEST SWAP5 POP POP PUSH1 0x40 PUSH3 0x288 DUP9 DUP3 DUP10 ADD PUSH3 0x1FE JUMP JUMPDEST SWAP4 POP POP PUSH1 0x60 PUSH3 0x29B DUP9 DUP3 DUP10 ADD PUSH3 0x18D JUMP JUMPDEST SWAP3 POP POP PUSH1 0x80 PUSH3 0x2AE DUP9 DUP3 DUP10 ADD PUSH3 0x18D JUMP JUMPDEST SWAP2 POP POP SWAP3 SWAP6 POP SWAP3 SWAP6 SWAP1 SWAP4 POP JUMP JUMPDEST PUSH1 0x40 MLOAD DUP2 DUP2 ADD PUSH1 0x1 PUSH1 0x40 PUSH1 0x2 EXP SUB DUP2 GT DUP3 DUP3 LT OR ISZERO PUSH3 0x2DA JUMPI PUSH1 0x0 DUP1 REVERT JUMPDEST PUSH1 0x40 MSTORE SWAP2 SWAP1 POP JUMP JUMPDEST PUSH1 0x0 PUSH1 0x1 PUSH1 0x40 PUSH1 0x2 EXP SUB DUP3 GT ISZERO PUSH3 0x2F9 JUMPI PUSH1 0x0 DUP1 REVERT JUMPDEST POP PUSH1 0x20 PUSH1 0x1F SWAP2 SWAP1 SWAP2 ADD PUSH1 0x1F NOT AND ADD SWAP1 JUMP JUMPDEST PUSH1 0x1 PUSH1 0xA0 PUSH1 0x2 EXP SUB AND SWAP1 JUMP JUMPDEST PUSH1 0x0 PUSH3 0x323 DUP3 PUSH3 0x30A JUMP JUMPDEST SWAP3 SWAP2 POP POP JUMP JUMPDEST PUSH1 0x0 JUMPDEST DUP4 DUP2 LT ISZERO PUSH3 0x346 JUMPI DUP2 DUP2 ADD MLOAD DUP4 DUP3 ADD MSTORE PUSH1 0x20 ADD PUSH3 0x32C JUMP JUMPDEST DUP4 DUP2 GT ISZERO PUSH3 0x356 JUMPI PUSH1 0x0 DUP5 DUP5 ADD MSTORE JUMPDEST POP POP POP POP JUMP JUMPDEST PUSH2 0x2C22 DUP1 PUSH3 0x36C PUSH1 0x0 CODECOPY PUSH1 0x0 RETURN INVALID PUSH1 0x80 PUSH1 0x40 MSTORE PUSH1 0x4 CALLDATASIZE LT PUSH2 0x12F JUMPI PUSH4 0xFFFFFFFF PUSH1 0xE0 PUSH1 0x2 EXP PUSH1 0x0 CALLDATALOAD DIV AND PUSH4 0x1E6E549 DUP2 EQ PUSH2 0x13D JUMPI DUP1 PUSH4 0x96A8AB7 EQ PUSH2 0x15D JUMPI DUP1 PUSH4 0xE91206B EQ PUSH2 0x17D JUMPI DUP1 PUSH4 0x1118069C EQ PUSH2 0x1B3 JUMPI DUP1 PUSH4 0x13AF4035 EQ PUSH2 0x1D3 JUMPI DUP1 PUSH4 0x1626BA7E EQ PUSH2 0x1F3 JUMPI DUP1 PUSH4 0x18160DDD EQ PUSH2 0x213 JUMPI DUP1 PUSH4 0x2FBBDE2D EQ PUSH2 0x235 JUMPI DUP1 PUSH4 0x30958A98 EQ PUSH2 0x23D JUMPI DUP1 PUSH4 0x3BC5DE30 EQ PUSH2 0x25D JUMPI DUP1 PUSH4 0x54BDBD4D EQ PUSH2 0x282 JUMPI DUP1 PUSH4 0x54EA1538 EQ PUSH2 0x2A2 JUMPI DUP1 PUSH4 0x6854F668 EQ PUSH2 0x2C2 JUMPI DUP1 PUSH4 0x70A08231 EQ PUSH2 0x2D5 JUMPI DUP1 PUSH4 0x837929B6 EQ PUSH2 0x2F5 JUMPI DUP1 PUSH4 0x8DA5CB5B EQ PUSH2 0x317 JUMPI DUP1 PUSH4 0x8F7A844B EQ PUSH2 0x32C JUMPI DUP1 PUSH4 0x9245290D EQ PUSH2 0x353 JUMPI DUP1 PUSH4 0x9489FA84 EQ PUSH2 0x373 JUMPI DUP1 PUSH4 0xC112C713 EQ PUSH2 0x388 JUMPI DUP1 PUSH4 0xC67F72E1 EQ PUSH2 0x39D JUMPI DUP1 PUSH4 0xC8C3B926 EQ PUSH2 0x3BD JUMPI DUP1 PUSH4 0xDA46098C EQ PUSH2 0x3DD JUMPI DUP1 PUSH4 0xE4E985A8 EQ PUSH2 0x3FD JUMPI DUP1 PUSH4 0xF6A33253 EQ PUSH2 0x412 JUMPI JUMPDEST CALLVALUE ISZERO ISZERO PUSH2 0x13B JUMPI PUSH1 0x0 DUP1 REVERT JUMPDEST STOP JUMPDEST CALLVALUE DUP1 ISZERO PUSH2 0x149 JUMPI PUSH1 0x0 DUP1 REVERT JUMPDEST POP PUSH2 0x13B PUSH2 0x158 CALLDATASIZE PUSH1 0x4 PUSH2 0x259F JUMP JUMPDEST PUSH2 0x432 JUMP JUMPDEST CALLVALUE DUP1 ISZERO PUSH2 0x169 JUMPI PUSH1 0x0 DUP1 REVERT JUMPDEST POP PUSH2 0x13B PUSH2 0x178 CALLDATASIZE PUSH1 0x4 PUSH2 0x26DD JUMP JUMPDEST PUSH2 0x60B JUMP JUMPDEST CALLVALUE DUP1 ISZERO PUSH2 0x189 JUMPI PUSH1 0x0 DUP1 REVERT JUMPDEST POP PUSH2 0x19D PUSH2 0x198 CALLDATASIZE PUSH1 0x4 PUSH2 0x25F1 JUMP JUMPDEST PUSH2 0x6E9 JUMP JUMPDEST PUSH1 0x40 MLOAD PUSH2 0x1AA SWAP2 SWAP1 PUSH2 0x29F0 JUMP JUMPDEST PUSH1 0x40 MLOAD DUP1 SWAP2 SUB SWAP1 RETURN JUMPDEST CALLVALUE DUP1 ISZERO PUSH2 0x1BF JUMPI PUSH1 0x0 DUP1 REVERT JUMPDEST POP PUSH2 0x13B PUSH2 0x1CE CALLDATASIZE PUSH1 0x4 PUSH2 0x2657 JUMP JUMPDEST PUSH2 0x8F0 JUMP JUMPDEST CALLVALUE DUP1 ISZERO PUSH2 0x1DF JUMPI PUSH1 0x0 DUP1 REVERT JUMPDEST POP PUSH2 0x13B PUSH2 0x1EE CALLDATASIZE PUSH1 0x4 PUSH2 0x2487 JUMP JUMPDEST PUSH2 0x94D JUMP JUMPDEST CALLVALUE DUP1 ISZERO PUSH2 0x1FF JUMPI PUSH1 0x0 DUP1 REVERT JUMPDEST POP PUSH2 0x19D PUSH2 0x20E CALLDATASIZE PUSH1 0x4 PUSH2 0x2687 JUMP JUMPDEST PUSH2 0x9D4 JUMP JUMPDEST CALLVALUE DUP1 ISZERO PUSH2 0x21F JUMPI PUSH1 0x0 DUP1 REVERT JUMPDEST POP PUSH2 0x228 PUSH2 0xA6A JUMP JUMPDEST PUSH1 0x40 MLOAD PUSH2 0x1AA SWAP2 SWAP1 PUSH2 0x2A7E JUMP JUMPDEST PUSH2 0x19D PUSH2 0xA71 JUMP JUMPDEST CALLVALUE DUP1 ISZERO PUSH2 0x249 JUMPI PUSH1 0x0 DUP1 REVERT JUMPDEST POP PUSH2 0x13B PUSH2 0x258 CALLDATASIZE PUSH1 0x4 PUSH2 0x26FB JUMP JUMPDEST PUSH2 0xAA1 JUMP JUMPDEST CALLVALUE DUP1 ISZERO PUSH2 0x269 JUMPI PUSH1 0x0 DUP1 REVERT JUMPDEST POP PUSH2 0x272 PUSH2 0xCEB JUMP JUMPDEST PUSH1 0x40 MLOAD PUSH2 0x1AA SWAP5 SWAP4 SWAP3 SWAP2 SWAP1 PUSH2 0x2A3A JUMP JUMPDEST CALLVALUE DUP1 ISZERO PUSH2 0x28E JUMPI PUSH1 0x0 DUP1 REVERT JUMPDEST POP PUSH2 0x13B PUSH2 0x29D CALLDATASIZE PUSH1 0x4 PUSH2 0x278B JUMP JUMPDEST PUSH2 0xE22 JUMP JUMPDEST CALLVALUE DUP1 ISZERO PUSH2 0x2AE JUMPI PUSH1 0x0 DUP1 REVERT JUMPDEST POP PUSH2 0x19D PUSH2 0x2BD CALLDATASIZE PUSH1 0x4 PUSH2 0x26DD JUMP JUMPDEST PUSH2 0xE55 JUMP JUMPDEST PUSH2 0x19D PUSH2 0x2D0 CALLDATASIZE PUSH1 0x4 PUSH2 0x2487 JUMP JUMPDEST PUSH2 0xF83 JUMP JUMPDEST CALLVALUE DUP1 ISZERO PUSH2 0x2E1 JUMPI PUSH1 0x0 DUP1 REVERT JUMPDEST POP PUSH2 0x228 PUSH2 0x2F0 CALLDATASIZE PUSH1 0x4 PUSH2 0x2487 JUMP JUMPDEST PUSH2 0xFB4 JUMP JUMPDEST CALLVALUE DUP1 ISZERO PUSH2 0x301 JUMPI PUSH1 0x0 DUP1 REVERT JUMPDEST POP PUSH2 0x30A PUSH2 0xFCF JUMP JUMPDEST PUSH1 0x40 MLOAD PUSH2 0x1AA SWAP2 SWAP1 PUSH2 0x2873 JUMP JUMPDEST CALLVALUE DUP1 ISZERO PUSH2 0x323 JUMPI PUSH1 0x0 DUP1 REVERT JUMPDEST POP PUSH2 0x30A PUSH2 0x106E JUMP JUMPDEST CALLVALUE DUP1 ISZERO PUSH2 0x338 JUMPI PUSH1 0x0 DUP1 REVERT JUMPDEST POP PUSH2 0x341 PUSH2 0x107D JUMP JUMPDEST PUSH1 0x40 MLOAD PUSH2 0x1AA SWAP7 SWAP6 SWAP5 SWAP4 SWAP3 SWAP2 SWAP1 PUSH2 0x297B JUMP JUMPDEST CALLVALUE DUP1 ISZERO PUSH2 0x35F JUMPI PUSH1 0x0 DUP1 REVERT JUMPDEST POP PUSH2 0x13B PUSH2 0x36E CALLDATASIZE PUSH1 0x4 PUSH2 0x2487 JUMP JUMPDEST PUSH2 0x10B2 JUMP JUMPDEST CALLVALUE DUP1 ISZERO PUSH2 0x37F JUMPI PUSH1 0x0 DUP1 REVERT JUMPDEST POP PUSH2 0x228 PUSH2 0x11A2 JUMP JUMPDEST CALLVALUE DUP1 ISZERO PUSH2 0x394 JUMPI PUSH1 0x0 DUP1 REVERT JUMPDEST POP PUSH2 0x30A PUSH2 0x11A8 JUMP JUMPDEST CALLVALUE DUP1 ISZERO PUSH2 0x3A9 JUMPI PUSH1 0x0 DUP1 REVERT JUMPDEST POP PUSH2 0x13B PUSH2 0x3B8 CALLDATASIZE PUSH1 0x4 PUSH2 0x2518 JUMP JUMPDEST PUSH2 0x11B7 JUMP JUMPDEST CALLVALUE DUP1 ISZERO PUSH2 0x3C9 JUMPI PUSH1 0x0 DUP1 REVERT JUMPDEST POP PUSH2 0x13B PUSH2 0x3D8 CALLDATASIZE PUSH1 0x4 PUSH2 0x2487 JUMP JUMPDEST PUSH2 0x120D JUMP JUMPDEST CALLVALUE DUP1 ISZERO PUSH2 0x3E9 JUMPI PUSH1 0x0 DUP1 REVERT JUMPDEST POP PUSH2 0x13B PUSH2 0x3F8 CALLDATASIZE PUSH1 0x4 PUSH2 0x24CB JUMP JUMPDEST PUSH2 0x1307 JUMP JUMPDEST CALLVALUE DUP1 ISZERO PUSH2 0x409 JUMPI PUSH1 0x0 DUP1 REVERT JUMPDEST POP PUSH2 0x30A PUSH2 0x13D2 JUMP JUMPDEST CALLVALUE DUP1 ISZERO PUSH2 0x41E JUMPI PUSH1 0x0 DUP1 REVERT JUMPDEST POP PUSH2 0x13B PUSH2 0x42D CALLDATASIZE PUSH1 0x4 PUSH2 0x26DD JUMP JUMPDEST PUSH2 0x13F9 JUMP JUMPDEST PUSH1 0x0 SLOAD PUSH1 0x1 PUSH1 0xA0 PUSH1 0x2 EXP SUB AND CALLER EQ PUSH2 0x449 JUMPI PUSH1 0x0 DUP1 REVERT JUMPDEST PUSH1 0x0 SLOAD PUSH1 0xA0 PUSH1 0x2 EXP SWAP1 DIV PUSH1 0xFF AND ISZERO PUSH2 0x47F JUMPI PUSH1 0x40 MLOAD PUSH1 0xE5 PUSH1 0x2 EXP PUSH3 0x461BCD MUL DUP2 MSTORE PUSH1 0x4 ADD PUSH2 0x476 SWAP1 PUSH2 0x2A6E JUMP JUMPDEST PUSH1 0x40 MLOAD DUP1 SWAP2 SUB SWAP1 REVERT JUMPDEST PUSH1 0x0 DUP1 SLOAD PUSH1 0xA0 PUSH1 0x2 EXP PUSH1 0xFF MUL NOT AND PUSH1 0xA0 PUSH1 0x2 EXP OR DUP2 SSTORE DUP3 SWAP1 PUSH2 0x49F PUSH2 0x14C9 JUMP JUMPDEST PUSH1 0x1 PUSH1 0xA0 PUSH1 0x2 EXP SUB AND PUSH4 0x9AA4D0A0 DUP4 PUSH1 0x40 MLOAD DUP3 PUSH4 0xFFFFFFFF AND PUSH1 0xE0 PUSH1 0x2 EXP MUL DUP2 MSTORE PUSH1 0x4 ADD PUSH2 0x4CD SWAP2 SWAP1 PUSH2 0x2873 JUMP JUMPDEST PUSH1 0x20 PUSH1 0x40 MLOAD DUP1 DUP4 SUB DUP2 DUP7 DUP1 EXTCODESIZE ISZERO DUP1 ISZERO PUSH2 0x4E5 JUMPI PUSH1 0x0 DUP1 REVERT JUMPDEST POP GAS STATICCALL ISZERO DUP1 ISZERO PUSH2 0x4F9 JUMPI RETURNDATASIZE PUSH1 0x0 DUP1 RETURNDATACOPY RETURNDATASIZE PUSH1 0x0 REVERT JUMPDEST POP POP POP POP PUSH1 0x40 MLOAD RETURNDATASIZE PUSH1 0x1F NOT PUSH1 0x1F DUP3 ADD AND DUP3 ADD DUP1 PUSH1 0x40 MSTORE POP PUSH2 0x51D SWAP2 SWAP1 DUP2 ADD SWAP1 PUSH2 0x2639 JUMP JUMPDEST SWAP1 POP PUSH1 0x0 PUSH2 0x529 PUSH2 0x14C9 JUMP JUMPDEST PUSH1 0x1 PUSH1 0xA0 PUSH1 0x2 EXP SUB AND PUSH4 0xF3229CDA DUP5 PUSH1 0x40 MLOAD DUP3 PUSH4 0xFFFFFFFF AND PUSH1 0xE0 PUSH1 0x2 EXP MUL DUP2 MSTORE PUSH1 0x4 ADD PUSH2 0x557 SWAP2 SWAP1 PUSH2 0x2873 JUMP JUMPDEST PUSH1 0x20 PUSH1 0x40 MLOAD DUP1 DUP4 SUB DUP2 DUP7 DUP1 EXTCODESIZE ISZERO DUP1 ISZERO PUSH2 0x56F JUMPI PUSH1 0x0 DUP1 REVERT JUMPDEST POP GAS STATICCALL ISZERO DUP1 ISZERO PUSH2 0x583 JUMPI RETURNDATASIZE PUSH1 0x0 DUP1 RETURNDATACOPY RETURNDATASIZE PUSH1 0x0 REVERT JUMPDEST POP POP POP POP PUSH1 0x40 MLOAD RETURNDATASIZE PUSH1 0x1F NOT PUSH1 0x1F DUP3 ADD AND DUP3 ADD DUP1 PUSH1 0x40 MSTORE POP PUSH2 0x5A7 SWAP2 SWAP1 DUP2 ADD SWAP1 PUSH2 0x2639 JUMP JUMPDEST SWAP1 POP DUP1 DUP1 PUSH2 0x5B2 JUMPI POP DUP2 JUMPDEST ISZERO ISZERO PUSH2 0x5BD JUMPI PUSH1 0x0 DUP1 REVERT JUMPDEST PUSH1 0x0 JUMPDEST DUP5 MLOAD DUP2 LT ISZERO PUSH2 0x5F3 JUMPI PUSH2 0x5EA DUP7 DUP7 DUP4 DUP2 MLOAD DUP2 LT ISZERO ISZERO PUSH2 0x5DB JUMPI INVALID JUMPDEST SWAP1 PUSH1 0x20 ADD SWAP1 PUSH1 0x20 MUL ADD MLOAD PUSH2 0x6E9 JUMP JUMPDEST POP PUSH1 0x1 ADD PUSH2 0x5C0 JUMP JUMPDEST POP POP PUSH1 0x0 DUP1 SLOAD PUSH1 0xA0 PUSH1 0x2 EXP PUSH1 0xFF MUL NOT AND SWAP1 SSTORE POP POP POP POP JUMP JUMPDEST PUSH1 0x0 SLOAD PUSH1 0x1 PUSH1 0xA0 PUSH1 0x2 EXP SUB AND CALLER EQ PUSH2 0x622 JUMPI PUSH1 0x0 DUP1 REVERT JUMPDEST PUSH1 0x64 DUP2 GT ISZERO PUSH2 0x630 JUMPI PUSH1 0x0 DUP1 REVERT JUMPDEST PUSH1 0x0 PUSH2 0x63A PUSH2 0xFCF JUMP JUMPDEST PUSH1 0x40 MLOAD PUSH32 0xD5AAA73A00000000000000000000000000000000000000000000000000000000 DUP2 MSTORE SWAP1 SWAP2 POP PUSH1 0x1 PUSH1 0xA0 PUSH1 0x2 EXP SUB DUP3 AND SWAP1 PUSH4 0xD5AAA73A SWAP1 PUSH2 0x686 SWAP1 CALLER SWAP1 ADDRESS SWAP1 DUP8 SWAP1 PUSH1 0x4 ADD PUSH2 0x28B7 JUMP JUMPDEST PUSH1 0x20 PUSH1 0x40 MLOAD DUP1 DUP4 SUB DUP2 PUSH1 0x0 DUP8 DUP1 EXTCODESIZE ISZERO DUP1 ISZERO PUSH2 0x6A0 JUMPI PUSH1 0x0 DUP1 REVERT JUMPDEST POP GAS CALL ISZERO DUP1 ISZERO PUSH2 0x6B4 JUMPI RETURNDATASIZE PUSH1 0x0 DUP1 RETURNDATACOPY RETURNDATASIZE PUSH1 0x0 REVERT JUMPDEST POP POP POP POP PUSH1 0x40 MLOAD RETURNDATASIZE PUSH1 0x1F NOT PUSH1 0x1F DUP3 ADD AND DUP3 ADD DUP1 PUSH1 0x40 MSTORE POP PUSH2 0x6D8 SWAP2 SWAP1 DUP2 ADD SWAP1 PUSH2 0x2639 JUMP JUMPDEST ISZERO ISZERO PUSH2 0x6E3 JUMPI PUSH1 0x0 DUP1 REVERT JUMPDEST POP PUSH1 0x8 SSTORE JUMP JUMPDEST PUSH1 0x0 DUP1 SLOAD PUSH1 0x1 PUSH1 0xA0 PUSH1 0x2 EXP SUB AND CALLER EQ PUSH2 0x701 JUMPI PUSH1 0x0 DUP1 REVERT JUMPDEST PUSH1 0x0 SLOAD PUSH1 0xA0 PUSH1 0x2 EXP SWAP1 DIV PUSH1 0xFF AND ISZERO PUSH2 0x72E JUMPI PUSH1 0x40 MLOAD PUSH1 0xE5 PUSH1 0x2 EXP PUSH3 0x461BCD MUL DUP2 MSTORE PUSH1 0x4 ADD PUSH2 0x476 SWAP1 PUSH2 0x2A6E JUMP JUMPDEST PUSH1 0x0 DUP1 SLOAD PUSH1 0xA0 PUSH1 0x2 EXP PUSH1 0xFF MUL NOT AND PUSH1 0xA0 PUSH1 0x2 EXP OR DUP2 SSTORE DUP4 SWAP1 PUSH2 0x74E PUSH2 0x14C9 JUMP JUMPDEST PUSH1 0x1 PUSH1 0xA0 PUSH1 0x2 EXP SUB AND PUSH4 0x9AA4D0A0 DUP4 PUSH1 0x40 MLOAD DUP3 PUSH4 0xFFFFFFFF AND PUSH1 0xE0 PUSH1 0x2 EXP MUL DUP2 MSTORE PUSH1 0x4 ADD PUSH2 0x77C SWAP2 SWAP1 PUSH2 0x2873 JUMP JUMPDEST PUSH1 0x20 PUSH1 0x40 MLOAD DUP1 DUP4 SUB DUP2 DUP7 DUP1 EXTCODESIZE ISZERO DUP1 ISZERO PUSH2 0x794 JUMPI PUSH1 0x0 DUP1 REVERT JUMPDEST POP GAS STATICCALL ISZERO DUP1 ISZERO PUSH2 0x7A8 JUMPI RETURNDATASIZE PUSH1 0x0 DUP1 RETURNDATACOPY RETURNDATASIZE PUSH1 0x0 REVERT JUMPDEST POP POP POP POP PUSH1 0x40 MLOAD RETURNDATASIZE PUSH1 0x1F NOT PUSH1 0x1F DUP3 ADD AND DUP3 ADD DUP1 PUSH1 0x40 MSTORE POP PUSH2 0x7CC SWAP2 SWAP1 DUP2 ADD SWAP1 PUSH2 0x2639 JUMP JUMPDEST SWAP1 POP PUSH1 0x0 PUSH2 0x7D8 PUSH2 0x14C9 JUMP JUMPDEST PUSH1 0x1 PUSH1 0xA0 PUSH1 0x2 EXP SUB AND PUSH4 0xF3229CDA DUP5 PUSH1 0x40 MLOAD DUP3 PUSH4 0xFFFFFFFF AND PUSH1 0xE0 PUSH1 0x2 EXP MUL DUP2 MSTORE PUSH1 0x4 ADD PUSH2 0x806 SWAP2 SWAP1 PUSH2 0x2873 JUMP JUMPDEST PUSH1 0x20 PUSH1 0x40 MLOAD DUP1 DUP4 SUB DUP2 DUP7 DUP1 EXTCODESIZE ISZERO DUP1 ISZERO PUSH2 0x81E JUMPI PUSH1 0x0 DUP1 REVERT JUMPDEST POP GAS STATICCALL ISZERO DUP1 ISZERO PUSH2 0x832 JUMPI RETURNDATASIZE PUSH1 0x0 DUP1 RETURNDATACOPY RETURNDATASIZE PUSH1 0x0 REVERT JUMPDEST POP POP POP POP PUSH1 0x40 MLOAD RETURNDATASIZE PUSH1 0x1F NOT PUSH1 0x1F DUP3 ADD AND DUP3 ADD DUP1 PUSH1 0x40 MSTORE POP PUSH2 0x856 SWAP2 SWAP1 DUP2 ADD SWAP1 PUSH2 0x2639 JUMP JUMPDEST SWAP1 POP DUP1 DUP1 PUSH2 0x861 JUMPI POP DUP2 JUMPDEST ISZERO ISZERO PUSH2 0x86C JUMPI PUSH1 0x0 DUP1 REVERT JUMPDEST PUSH1 0x0 PUSH2 0x877 DUP8 PUSH2 0x1549 JUMP JUMPDEST DUP7 MLOAD SWAP1 SWAP2 POP PUSH2 0x88E PUSH2 0x888 DUP3 PUSH2 0x164D JUMP JUMPDEST DUP4 PUSH2 0x1658 JUMP JUMPDEST ISZERO ISZERO PUSH2 0x899 JUMPI PUSH1 0x0 DUP1 REVERT JUMPDEST PUSH1 0x60 PUSH1 0x0 PUSH1 0x1 SWAP1 POP PUSH1 0x20 PUSH1 0x0 DUP5 MLOAD PUSH1 0x20 DUP7 ADD DUP8 PUSH2 0x1388 GAS SUB DELEGATECALL PUSH1 0x0 MLOAD SWAP3 POP DUP1 ISZERO SWAP2 POP DUP2 PUSH1 0x1 DUP2 EQ PUSH2 0x8C9 JUMPI PUSH2 0x8CE JUMP JUMPDEST PUSH1 0x0 DUP1 REVERT JUMPDEST POP POP PUSH1 0x0 DUP1 SLOAD PUSH1 0xA0 PUSH1 0x2 EXP PUSH1 0xFF MUL NOT AND SWAP1 SSTORE POP PUSH1 0x1 SWAP10 SWAP9 POP POP POP POP POP POP POP POP POP JUMP JUMPDEST PUSH1 0x0 SLOAD PUSH1 0x1 PUSH1 0xA0 PUSH1 0x2 EXP SUB AND CALLER EQ PUSH2 0x907 JUMPI PUSH1 0x0 DUP1 REVERT JUMPDEST PUSH1 0xD DUP1 SLOAD PUSH1 0xA0 PUSH1 0x2 EXP PUSH1 0xFF MUL NOT AND PUSH1 0xA0 PUSH1 0x2 EXP SWAP4 ISZERO ISZERO SWAP4 SWAP1 SWAP4 MUL SWAP3 SWAP1 SWAP3 OR PUSH20 0xFFFFFFFFFFFFFFFFFFFFFFFFFFFFFFFFFFFFFFFF NOT AND PUSH1 0x1 PUSH1 0xA0 PUSH1 0x2 EXP SUB SWAP2 SWAP1 SWAP2 AND OR SWAP1 SSTORE JUMP JUMPDEST PUSH1 0x0 SLOAD PUSH1 0x1 PUSH1 0xA0 PUSH1 0x2 EXP SUB AND CALLER EQ PUSH2 0x964 JUMPI PUSH1 0x0 DUP1 REVERT JUMPDEST PUSH1 0x1 PUSH1 0xA0 PUSH1 0x2 EXP SUB DUP2 AND ISZERO ISZERO PUSH2 0x979 JUMPI PUSH1 0x0 DUP1 REVERT JUMPDEST PUSH1 0x0 DUP1 SLOAD PUSH20 0xFFFFFFFFFFFFFFFFFFFFFFFFFFFFFFFFFFFFFFFF NOT AND PUSH1 0x1 PUSH1 0xA0 PUSH1 0x2 EXP SUB DUP4 DUP2 AND SWAP2 DUP3 OR DUP1 DUP5 SSTORE PUSH1 0x40 MLOAD SWAP3 SWAP4 SWAP2 AND SWAP2 PUSH32 0x70AEA8D848E8A90FB7661B227DC522EB6395C3DAC71B63CB59EDD5C9899B2364 SWAP2 SWAP1 LOG3 POP JUMP JUMPDEST PUSH1 0x0 PUSH2 0x9DE PUSH2 0x1758 JUMP JUMPDEST PUSH1 0x1 PUSH1 0xA0 PUSH1 0x2 EXP SUB AND PUSH4 0x1626BA7E DUP6 DUP6 DUP6 PUSH1 0x40 MLOAD DUP5 PUSH4 0xFFFFFFFF AND PUSH1 0xE0 PUSH1 0x2 EXP MUL DUP2 MSTORE PUSH1 0x4 ADD PUSH2 0xA10 SWAP4 SWAP3 SWAP2 SWAP1 PUSH2 0x29FE JUMP JUMPDEST PUSH1 0x20 PUSH1 0x40 MLOAD DUP1 DUP4 SUB DUP2 DUP7 DUP1 EXTCODESIZE ISZERO DUP1 ISZERO PUSH2 0xA28 JUMPI PUSH1 0x0 DUP1 REVERT JUMPDEST POP GAS STATICCALL ISZERO DUP1 ISZERO PUSH2 0xA3C JUMPI RETURNDATASIZE PUSH1 0x0 DUP1 RETURNDATACOPY RETURNDATASIZE PUSH1 0x0 REVERT JUMPDEST POP POP POP POP PUSH1 0x40 MLOAD RETURNDATASIZE PUSH1 0x1F NOT PUSH1 0x1F DUP3 ADD AND DUP3 ADD DUP1 PUSH1 0x40 MSTORE POP PUSH2 0xA60 SWAP2 SWAP1 DUP2 ADD SWAP1 PUSH2 0x2639 JUMP JUMPDEST SWAP1 POP JUMPDEST SWAP4 SWAP3 POP POP POP JUMP JUMPDEST PUSH1 0x5 SLOAD JUMPDEST SWAP1 JUMP JUMPDEST PUSH1 0xE SLOAD PUSH1 0x0 SWAP1 CALLVALUE SWAP1 DUP2 LT ISZERO PUSH2 0xA85 JUMPI PUSH1 0x0 DUP1 REVERT JUMPDEST PUSH2 0xA8E CALLER PUSH2 0x1813 JUMP JUMPDEST ISZERO ISZERO PUSH2 0xA99 JUMPI PUSH1 0x0 DUP1 REVERT JUMPDEST PUSH1 0x1 SWAP2 POP POP SWAP1 JUMP JUMPDEST PUSH1 0x0 SLOAD PUSH1 0xA0 PUSH1 0x2 EXP SWAP1 DIV PUSH1 0xFF AND ISZERO PUSH2 0xACE JUMPI PUSH1 0x40 MLOAD PUSH1 0xE5 PUSH1 0x2 EXP PUSH3 0x461BCD MUL DUP2 MSTORE PUSH1 0x4 ADD PUSH2 0x476 SWAP1 PUSH2 0x2A6E JUMP JUMPDEST PUSH1 0x0 DUP1 SLOAD PUSH1 0xA0 PUSH1 0x2 EXP PUSH1 0xFF MUL NOT AND PUSH1 0xA0 PUSH1 0x2 EXP OR SWAP1 SSTORE PUSH1 0xA SLOAD PUSH1 0x40 MLOAD PUSH32 0x2330F24700000000000000000000000000000000000000000000000000000000 DUP2 MSTORE PUSH1 0x1 PUSH1 0xA0 PUSH1 0x2 EXP SUB SWAP1 SWAP2 AND SWAP1 DUP2 SWAP1 PUSH4 0x2330F247 SWAP1 PUSH2 0xB2F SWAP1 CALLER SWAP1 PUSH1 0x4 ADD PUSH2 0x2881 JUMP JUMPDEST PUSH1 0x20 PUSH1 0x40 MLOAD DUP1 DUP4 SUB DUP2 DUP7 DUP1 EXTCODESIZE ISZERO DUP1 ISZERO PUSH2 0xB47 JUMPI PUSH1 0x0 DUP1 REVERT JUMPDEST POP GAS STATICCALL ISZERO DUP1 ISZERO PUSH2 0xB5B JUMPI RETURNDATASIZE PUSH1 0x0 DUP1 RETURNDATACOPY RETURNDATASIZE PUSH1 0x0 REVERT JUMPDEST POP POP POP POP PUSH1 0x40 MLOAD RETURNDATASIZE PUSH1 0x1F NOT PUSH1 0x1F DUP3 ADD AND DUP3 ADD DUP1 PUSH1 0x40 MSTORE POP PUSH2 0xB7F SWAP2 SWAP1 DUP2 ADD SWAP1 PUSH2 0x2639 JUMP JUMPDEST DUP1 PUSH2 0xB94 JUMPI POP PUSH1 0x0 SLOAD PUSH1 0x1 PUSH1 0xA0 PUSH1 0x2 EXP SUB AND CALLER EQ JUMPDEST ISZERO ISZERO PUSH2 0xB9F JUMPI PUSH1 0x0 DUP1 REVERT JUMPDEST DUP7 DUP7 DUP1 DUP3 GT ISZERO PUSH2 0xBAE JUMPI PUSH1 0x0 DUP1 REVERT JUMPDEST PUSH1 0x6 SLOAD DUP10 SWAP1 DUP10 SWAP1 PUSH1 0xA SWAP1 DIV DUP3 GT ISZERO DUP1 PUSH2 0xBCC JUMPI POP PUSH1 0x7 SLOAD PUSH1 0xA MUL DUP2 LT ISZERO JUMPDEST ISZERO PUSH2 0xBD6 JUMPI PUSH2 0xCCE JUMP JUMPDEST PUSH2 0xC19 DUP12 DUP12 DUP12 DUP12 DUP12 DUP12 DUP1 DUP1 PUSH1 0x1F ADD PUSH1 0x20 DUP1 SWAP2 DIV MUL PUSH1 0x20 ADD PUSH1 0x40 MLOAD SWAP1 DUP2 ADD PUSH1 0x40 MSTORE DUP1 SWAP4 SWAP3 SWAP2 SWAP1 DUP2 DUP2 MSTORE PUSH1 0x20 ADD DUP4 DUP4 DUP1 DUP3 DUP5 CALLDATACOPY PUSH1 0x0 SWAP3 ADD SWAP2 SWAP1 SWAP2 MSTORE POP PUSH2 0x1914 SWAP3 POP POP POP JUMP JUMPDEST ISZERO ISZERO PUSH2 0xC24 JUMPI PUSH1 0x0 DUP1 REVERT JUMPDEST PUSH1 0x0 PUSH2 0xC2E PUSH2 0xFCF JUMP JUMPDEST SWAP1 POP DUP1 PUSH1 0x1 PUSH1 0xA0 PUSH1 0x2 EXP SUB AND PUSH4 0x554A7818 CALLER ADDRESS DUP16 DUP16 PUSH1 0x40 MLOAD DUP6 PUSH4 0xFFFFFFFF AND PUSH1 0xE0 PUSH1 0x2 EXP MUL DUP2 MSTORE PUSH1 0x4 ADD PUSH2 0xC65 SWAP5 SWAP4 SWAP3 SWAP2 SWAP1 PUSH2 0x28DF JUMP JUMPDEST PUSH1 0x20 PUSH1 0x40 MLOAD DUP1 DUP4 SUB DUP2 PUSH1 0x0 DUP8 DUP1 EXTCODESIZE ISZERO DUP1 ISZERO PUSH2 0xC7F JUMPI PUSH1 0x0 DUP1 REVERT JUMPDEST POP GAS CALL ISZERO DUP1 ISZERO PUSH2 0xC93 JUMPI RETURNDATASIZE PUSH1 0x0 DUP1 RETURNDATACOPY RETURNDATASIZE PUSH1 0x0 REVERT JUMPDEST POP POP POP POP PUSH1 0x40 MLOAD RETURNDATASIZE PUSH1 0x1F NOT PUSH1 0x1F DUP3 ADD AND DUP3 ADD DUP1 PUSH1 0x40 MSTORE POP PUSH2 0xCB7 SWAP2 SWAP1 DUP2 ADD SWAP1 PUSH2 0x2639 JUMP JUMPDEST ISZERO ISZERO PUSH2 0xCC2 JUMPI PUSH1 0x0 DUP1 REVERT JUMPDEST POP PUSH1 0x6 DUP12 SWAP1 SSTORE PUSH1 0x7 DUP11 SWAP1 SSTORE JUMPDEST POP POP PUSH1 0x0 DUP1 SLOAD PUSH1 0xA0 PUSH1 0x2 EXP PUSH1 0xFF MUL NOT AND SWAP1 SSTORE POP POP POP POP POP POP POP POP POP JUMP JUMPDEST PUSH1 0x2 DUP1 SLOAD PUSH1 0x40 DUP1 MLOAD PUSH1 0x20 PUSH1 0x1 DUP5 AND ISZERO PUSH2 0x100 MUL PUSH1 0x0 NOT ADD SWAP1 SWAP4 AND DUP5 SWAP1 DIV PUSH1 0x1F DUP2 ADD DUP5 SWAP1 DIV DUP5 MUL DUP3 ADD DUP5 ADD SWAP1 SWAP3 MSTORE DUP2 DUP2 MSTORE PUSH1 0x60 SWAP4 DUP5 SWAP4 PUSH1 0x0 SWAP4 DUP5 SWAP4 SWAP3 SWAP2 DUP4 ADD DUP3 DUP3 DUP1 ISZERO PUSH2 0xD78 JUMPI DUP1 PUSH1 0x1F LT PUSH2 0xD4D JUMPI PUSH2 0x100 DUP1 DUP4 SLOAD DIV MUL DUP4 MSTORE SWAP2 PUSH1 0x20 ADD SWAP2 PUSH2 0xD78 JUMP JUMPDEST DUP3 ADD SWAP2 SWAP1 PUSH1 0x0 MSTORE PUSH1 0x20 PUSH1 0x0 KECCAK256 SWAP1 JUMPDEST DUP2 SLOAD DUP2 MSTORE SWAP1 PUSH1 0x1 ADD SWAP1 PUSH1 0x20 ADD DUP1 DUP4 GT PUSH2 0xD5B JUMPI DUP3 SWAP1 SUB PUSH1 0x1F AND DUP3 ADD SWAP2 JUMPDEST POP POP PUSH1 0x3 DUP1 SLOAD PUSH1 0x40 DUP1 MLOAD PUSH1 0x20 PUSH1 0x1F PUSH1 0x2 PUSH1 0x0 NOT PUSH2 0x100 PUSH1 0x1 DUP9 AND ISZERO MUL ADD SWAP1 SWAP6 AND SWAP5 SWAP1 SWAP5 DIV SWAP4 DUP5 ADD DUP2 SWAP1 DIV DUP2 MUL DUP3 ADD DUP2 ADD SWAP1 SWAP3 MSTORE DUP3 DUP2 MSTORE SWAP7 SWAP11 POP SWAP2 SWAP5 POP SWAP3 POP DUP5 ADD SWAP1 POP DUP3 DUP3 DUP1 ISZERO PUSH2 0xE09 JUMPI DUP1 PUSH1 0x1F LT PUSH2 0xDDE JUMPI PUSH2 0x100 DUP1 DUP4 SLOAD DIV MUL DUP4 MSTORE SWAP2 PUSH1 0x20 ADD SWAP2 PUSH2 0xE09 JUMP JUMPDEST DUP3 ADD SWAP2 SWAP1 PUSH1 0x0 MSTORE PUSH1 0x20 PUSH1 0x0 KECCAK256 SWAP1 JUMPDEST DUP2 SLOAD DUP2 MSTORE SWAP1 PUSH1 0x1 ADD SWAP1 PUSH1 0x20 ADD DUP1 DUP4 GT PUSH2 0xDEC JUMPI DUP3 SWAP1 SUB PUSH1 0x1F AND DUP3 ADD SWAP2 JUMPDEST POP POP PUSH1 0x6 SLOAD PUSH1 0x7 SLOAD SWAP9 SWAP10 SWAP5 SWAP9 SWAP1 SWAP8 POP SWAP6 POP SWAP3 SWAP4 POP POP POP POP JUMP JUMPDEST PUSH1 0xB SLOAD PUSH1 0x1 PUSH1 0xA0 PUSH1 0x2 EXP SUB AND CALLER EQ PUSH2 0xE39 JUMPI PUSH1 0x0 DUP1 REVERT JUMPDEST PUSH1 0x9 DUP1 SLOAD PUSH4 0xFFFFFFFF NOT AND PUSH4 0xFFFFFFFF SWAP3 SWAP1 SWAP3 AND SWAP2 SWAP1 SWAP2 OR SWAP1 SSTORE JUMP JUMPDEST PUSH1 0x0 DUP1 SLOAD PUSH1 0xA0 PUSH1 0x2 EXP SWAP1 DIV PUSH1 0xFF AND ISZERO PUSH2 0xE83 JUMPI PUSH1 0x40 MLOAD PUSH1 0xE5 PUSH1 0x2 EXP PUSH3 0x461BCD MUL DUP2 MSTORE PUSH1 0x4 ADD PUSH2 0x476 SWAP1 PUSH2 0x2A6E JUMP JUMPDEST PUSH1 0x0 DUP1 SLOAD PUSH1 0xA0 PUSH1 0x2 EXP PUSH1 0xFF MUL NOT AND PUSH1 0xA0 PUSH1 0x2 EXP OR DUP2 SSTORE CALLER DUP2 MSTORE PUSH1 0x1 PUSH1 0x20 MSTORE PUSH1 0x40 SWAP1 KECCAK256 SLOAD DUP3 SWAP1 DUP2 GT ISZERO PUSH2 0xEB4 JUMPI PUSH1 0x0 DUP1 REVERT JUMPDEST CALLER PUSH1 0x0 SWAP1 DUP2 MSTORE PUSH1 0x1 PUSH1 0x20 MSTORE PUSH1 0x40 SWAP1 KECCAK256 SLOAD DUP4 SWAP1 DUP1 DUP3 ADD GT PUSH2 0xED3 JUMPI PUSH1 0x0 DUP1 REVERT JUMPDEST CALLER PUSH1 0x0 SWAP1 DUP2 MSTORE PUSH1 0x1 PUSH1 0x20 MSTORE PUSH1 0x40 SWAP1 KECCAK256 PUSH1 0x2 ADD SLOAD PUSH4 0xFFFFFFFF AND TIMESTAMP LT ISZERO PUSH2 0xEF8 JUMPI PUSH1 0x0 DUP1 REVERT JUMPDEST PUSH1 0x0 DUP1 PUSH1 0x0 DUP1 PUSH2 0xF07 DUP9 PUSH2 0x19B0 JUMP JUMPDEST SWAP3 SWAP7 POP SWAP1 SWAP5 POP SWAP3 POP SWAP1 POP PUSH2 0xF1B DUP9 DUP3 PUSH2 0x1A3D JUMP JUMPDEST PUSH2 0xF27 CALLER DUP10 DUP7 DUP7 PUSH2 0x1CAB JUMP JUMPDEST PUSH1 0x5 SLOAD PUSH2 0xF34 SWAP1 DUP4 PUSH2 0x1D56 JUMP JUMPDEST PUSH1 0x5 SSTORE PUSH1 0x40 MLOAD CALLER SWAP1 DUP3 ISZERO PUSH2 0x8FC MUL SWAP1 DUP4 SWAP1 PUSH1 0x0 DUP2 DUP2 DUP2 DUP6 DUP9 DUP9 CALL SWAP4 POP POP POP POP ISZERO DUP1 ISZERO PUSH2 0xF64 JUMPI RETURNDATASIZE PUSH1 0x0 DUP1 RETURNDATACOPY RETURNDATASIZE PUSH1 0x0 REVERT JUMPDEST POP POP PUSH1 0x0 DUP1 SLOAD PUSH1 0xA0 PUSH1 0x2 EXP PUSH1 0xFF MUL NOT AND SWAP1 SSTORE POP PUSH1 0x1 SWAP7 SWAP6 POP POP POP POP POP POP JUMP JUMPDEST PUSH1 0xE SLOAD PUSH1 0x0 SWAP1 CALLVALUE SWAP1 DUP2 LT ISZERO PUSH2 0xF97 JUMPI PUSH1 0x0 DUP1 REVERT JUMPDEST PUSH2 0xFA0 DUP4 PUSH2 0x1813 JUMP JUMPDEST ISZERO ISZERO PUSH2 0xFAB JUMPI PUSH1 0x0 DUP1 REVERT JUMPDEST POP PUSH1 0x1 SWAP3 SWAP2 POP POP JUMP JUMPDEST PUSH1 0x1 PUSH1 0xA0 PUSH1 0x2 EXP SUB AND PUSH1 0x0 SWAP1 DUP2 MSTORE PUSH1 0x1 PUSH1 0x20 MSTORE PUSH1 0x40 SWAP1 KECCAK256 SLOAD SWAP1 JUMP JUMPDEST PUSH1 0xA SLOAD PUSH1 0x40 DUP1 MLOAD PUSH32 0x26C7A0DE00000000000000000000000000000000000000000000000000000000 DUP2 MSTORE SWAP1 MLOAD PUSH1 0x0 SWAP3 PUSH1 0x1 PUSH1 0xA0 PUSH1 0x2 EXP SUB AND SWAP2 DUP3 SWAP2 PUSH4 0x26C7A0DE SWAP2 PUSH1 0x4 DUP1 DUP3 ADD SWAP3 PUSH1 0x20 SWAP3 SWAP1 SWAP2 SWAP1 DUP3 SWAP1 SUB ADD DUP2 DUP7 DUP1 EXTCODESIZE ISZERO DUP1 ISZERO PUSH2 0x1030 JUMPI PUSH1 0x0 DUP1 REVERT JUMPDEST POP GAS STATICCALL ISZERO DUP1 ISZERO PUSH2 0x1044 JUMPI RETURNDATASIZE PUSH1 0x0 DUP1 RETURNDATACOPY RETURNDATASIZE PUSH1 0x0 REVERT JUMPDEST POP POP POP POP PUSH1 0x40 MLOAD RETURNDATASIZE PUSH1 0x1F NOT PUSH1 0x1F DUP3 ADD AND DUP3 ADD DUP1 PUSH1 0x40 MSTORE POP PUSH2 0x1068 SWAP2 SWAP1 DUP2 ADD SWAP1 PUSH2 0x24AD JUMP JUMPDEST SWAP2 POP POP SWAP1 JUMP JUMPDEST PUSH1 0x0 SLOAD PUSH1 0x1 PUSH1 0xA0 PUSH1 0x2 EXP SUB AND DUP2 JUMP JUMPDEST PUSH1 0x0 SLOAD PUSH1 0xC SLOAD PUSH1 0xB SLOAD PUSH1 0xF SLOAD PUSH1 0x8 SLOAD PUSH1 0x9 SLOAD PUSH1 0x1 PUSH1 0xA0 PUSH1 0x2 EXP SUB SWAP6 DUP7 AND SWAP6 SWAP5 DUP6 AND SWAP5 SWAP4 SWAP1 SWAP4 AND SWAP3 PUSH4 0xFFFFFFFF AND SWAP1 SWAP2 SWAP3 SWAP4 SWAP5 SWAP6 JUMP JUMPDEST PUSH1 0x0 SLOAD PUSH1 0x1 PUSH1 0xA0 PUSH1 0x2 EXP SUB AND CALLER EQ PUSH2 0x10C9 JUMPI PUSH1 0x0 DUP1 REVERT JUMPDEST PUSH1 0x0 PUSH2 0x10D3 PUSH2 0xFCF JUMP JUMPDEST PUSH1 0x40 MLOAD PUSH32 0xF39BA93200000000000000000000000000000000000000000000000000000000 DUP2 MSTORE SWAP1 SWAP2 POP PUSH1 0x1 PUSH1 0xA0 PUSH1 0x2 EXP SUB DUP3 AND SWAP1 PUSH4 0xF39BA932 SWAP1 PUSH2 0x111F SWAP1 CALLER SWAP1 ADDRESS SWAP1 DUP8 SWAP1 PUSH1 0x4 ADD PUSH2 0x288F JUMP JUMPDEST PUSH1 0x20 PUSH1 0x40 MLOAD DUP1 DUP4 SUB DUP2 PUSH1 0x0 DUP8 DUP1 EXTCODESIZE ISZERO DUP1 ISZERO PUSH2 0x1139 JUMPI PUSH1 0x0 DUP1 REVERT JUMPDEST POP GAS CALL ISZERO DUP1 ISZERO PUSH2 0x114D JUMPI RETURNDATASIZE PUSH1 0x0 DUP1 RETURNDATACOPY RETURNDATASIZE PUSH1 0x0 REVERT JUMPDEST POP POP POP POP PUSH1 0x40 MLOAD RETURNDATASIZE PUSH1 0x1F NOT PUSH1 0x1F DUP3 ADD AND DUP3 ADD DUP1 PUSH1 0x40 MSTORE POP PUSH2 0x1171 SWAP2 SWAP1 DUP2 ADD SWAP1 PUSH2 0x2639 JUMP JUMPDEST POP POP PUSH1 0xC DUP1 SLOAD PUSH20 0xFFFFFFFFFFFFFFFFFFFFFFFFFFFFFFFFFFFFFFFF NOT AND PUSH1 0x1 PUSH1 0xA0 PUSH1 0x2 EXP SUB SWAP3 SWAP1 SWAP3 AND SWAP2 SWAP1 SWAP2 OR SWAP1 SSTORE JUMP JUMPDEST PUSH1 0x6 SLOAD SWAP1 JUMP JUMPDEST PUSH1 0x0 PUSH2 0x11B2 PUSH2 0x14C9 JUMP JUMPDEST SWAP1 POP SWAP1 JUMP JUMPDEST PUSH1 0x0 JUMPDEST DUP4 DUP2 LT ISZERO PUSH2 0x1205 JUMPI PUSH2 0x11FC DUP7 DUP7 DUP7 DUP5 DUP2 DUP2 LT PUSH2 0x11D2 JUMPI INVALID JUMPDEST SWAP1 POP PUSH1 0x20 MUL ADD CALLDATALOAD PUSH1 0x1 PUSH1 0xA0 PUSH1 0x2 EXP SUB AND DUP6 DUP6 DUP6 DUP2 DUP2 LT ISZERO ISZERO PUSH2 0x11F0 JUMPI INVALID JUMPDEST SWAP1 POP PUSH1 0x20 MUL ADD CALLDATALOAD PUSH2 0x1D68 JUMP JUMPDEST POP PUSH1 0x1 ADD PUSH2 0x11BA JUMP JUMPDEST POP POP POP POP POP POP JUMP JUMPDEST PUSH1 0xB SLOAD PUSH1 0x1 PUSH1 0xA0 PUSH1 0x2 EXP SUB AND CALLER EQ PUSH2 0x1224 JUMPI PUSH1 0x0 DUP1 REVERT JUMPDEST PUSH1 0x0 PUSH2 0x122E PUSH2 0xFCF JUMP JUMPDEST PUSH1 0x40 MLOAD PUSH32 0x2A44FBA500000000000000000000000000000000000000000000000000000000 DUP2 MSTORE SWAP1 SWAP2 POP PUSH1 0x1 PUSH1 0xA0 PUSH1 0x2 EXP SUB DUP3 AND SWAP1 PUSH4 0x2A44FBA5 SWAP1 PUSH2 0x127A SWAP1 CALLER SWAP1 ADDRESS SWAP1 DUP8 SWAP1 PUSH1 0x4 ADD PUSH2 0x288F JUMP JUMPDEST PUSH1 0x20 PUSH1 0x40 MLOAD DUP1 DUP4 SUB DUP2 PUSH1 0x0 DUP8 DUP1 EXTCODESIZE ISZERO DUP1 ISZERO PUSH2 0x1294 JUMPI PUSH1 0x0 DUP1 REVERT JUMPDEST POP GAS CALL ISZERO DUP1 ISZERO PUSH2 0x12A8 JUMPI RETURNDATASIZE PUSH1 0x0 DUP1 RETURNDATACOPY RETURNDATASIZE PUSH1 0x0 REVERT JUMPDEST POP POP POP POP PUSH1 0x40 MLOAD RETURNDATASIZE PUSH1 0x1F NOT PUSH1 0x1F DUP3 ADD AND DUP3 ADD DUP1 PUSH1 0x40 MSTORE POP PUSH2 0x12CC SWAP2 SWAP1 DUP2 ADD SWAP1 PUSH2 0x2639 JUMP JUMPDEST ISZERO ISZERO PUSH2 0x12D7 JUMPI PUSH1 0x0 DUP1 REVERT JUMPDEST POP PUSH1 0xB DUP1 SLOAD PUSH20 0xFFFFFFFFFFFFFFFFFFFFFFFFFFFFFFFFFFFFFFFF NOT AND PUSH1 0x1 PUSH1 0xA0 PUSH1 0x2 EXP SUB SWAP3 SWAP1 SWAP3 AND SWAP2 SWAP1 SWAP2 OR SWAP1 SSTORE JUMP JUMPDEST PUSH1 0x0 SLOAD PUSH1 0x1 PUSH1 0xA0 PUSH1 0x2 EXP SUB AND CALLER EQ PUSH2 0x131E JUMPI PUSH1 0x0 DUP1 REVERT JUMPDEST DUP3 PUSH1 0x0 PUSH2 0x1329 PUSH2 0x14C9 JUMP JUMPDEST PUSH1 0x1 PUSH1 0xA0 PUSH1 0x2 EXP SUB AND PUSH4 0x58C860F9 DUP4 PUSH1 0x40 MLOAD DUP3 PUSH4 0xFFFFFFFF AND PUSH1 0xE0 PUSH1 0x2 EXP MUL DUP2 MSTORE PUSH1 0x4 ADD PUSH2 0x1357 SWAP2 SWAP1 PUSH2 0x2873 JUMP JUMPDEST PUSH1 0x20 PUSH1 0x40 MLOAD DUP1 DUP4 SUB DUP2 DUP7 DUP1 EXTCODESIZE ISZERO DUP1 ISZERO PUSH2 0x136F JUMPI PUSH1 0x0 DUP1 REVERT JUMPDEST POP GAS STATICCALL ISZERO DUP1 ISZERO PUSH2 0x1383 JUMPI RETURNDATASIZE PUSH1 0x0 DUP1 RETURNDATACOPY RETURNDATASIZE PUSH1 0x0 REVERT JUMPDEST POP POP POP POP PUSH1 0x40 MLOAD RETURNDATASIZE PUSH1 0x1F NOT PUSH1 0x1F DUP3 ADD AND DUP3 ADD DUP1 PUSH1 0x40 MSTORE POP PUSH2 0x13A7 SWAP2 SWAP1 DUP2 ADD SWAP1 PUSH2 0x2639 JUMP JUMPDEST SWAP1 POP DUP1 ISZERO ISZERO PUSH2 0x13B5 JUMPI PUSH1 0x0 DUP1 REVERT JUMPDEST PUSH2 0x13C0 DUP6 DUP6 DUP6 PUSH2 0x1D68 JUMP JUMPDEST ISZERO ISZERO PUSH2 0x13CB JUMPI PUSH1 0x0 DUP1 REVERT JUMPDEST POP POP POP POP POP JUMP JUMPDEST PUSH1 0xD SLOAD PUSH1 0x0 SWAP1 PUSH1 0xA0 PUSH1 0x2 EXP SWAP1 DIV PUSH1 0xFF AND ISZERO PUSH2 0xA6E JUMPI POP PUSH1 0xD SLOAD PUSH1 0x1 PUSH1 0xA0 PUSH1 0x2 EXP SUB AND PUSH2 0xA6E JUMP JUMPDEST PUSH1 0xB SLOAD PUSH1 0x1 PUSH1 0xA0 PUSH1 0x2 EXP SUB AND CALLER EQ PUSH2 0x1410 JUMPI PUSH1 0x0 DUP1 REVERT JUMPDEST PUSH1 0x0 PUSH2 0x141A PUSH2 0xFCF JUMP JUMPDEST PUSH1 0x40 MLOAD PUSH32 0x91F1DF8400000000000000000000000000000000000000000000000000000000 DUP2 MSTORE SWAP1 SWAP2 POP PUSH1 0x1 PUSH1 0xA0 PUSH1 0x2 EXP SUB DUP3 AND SWAP1 PUSH4 0x91F1DF84 SWAP1 PUSH2 0x1466 SWAP1 CALLER SWAP1 ADDRESS SWAP1 DUP8 SWAP1 PUSH1 0x4 ADD PUSH2 0x28B7 JUMP JUMPDEST PUSH1 0x20 PUSH1 0x40 MLOAD DUP1 DUP4 SUB DUP2 PUSH1 0x0 DUP8 DUP1 EXTCODESIZE ISZERO DUP1 ISZERO PUSH2 0x1480 JUMPI PUSH1 0x0 DUP1 REVERT JUMPDEST POP GAS CALL ISZERO DUP1 ISZERO PUSH2 0x1494 JUMPI RETURNDATASIZE PUSH1 0x0 DUP1 RETURNDATACOPY RETURNDATASIZE PUSH1 0x0 REVERT JUMPDEST POP POP POP POP PUSH1 0x40 MLOAD RETURNDATASIZE PUSH1 0x1F NOT PUSH1 0x1F DUP3 ADD AND DUP3 ADD DUP1 PUSH1 0x40 MSTORE POP PUSH2 0x14B8 SWAP2 SWAP1 DUP2 ADD SWAP1 PUSH2 0x2639 JUMP JUMPDEST ISZERO ISZERO PUSH2 0x14C3 JUMPI PUSH1 0x0 DUP1 REVERT JUMPDEST POP PUSH1 0xF SSTORE JUMP JUMPDEST PUSH1 0xA SLOAD PUSH1 0x40 DUP1 MLOAD PUSH1 0xE0 PUSH1 0x2 EXP PUSH4 0x84987E83 MUL DUP2 MSTORE SWAP1 MLOAD PUSH1 0x0 SWAP3 PUSH1 0x1 PUSH1 0xA0 PUSH1 0x2 EXP SUB AND SWAP2 PUSH4 0x84987E83 SWAP2 PUSH1 0x4 DUP1 DUP4 ADD SWAP3 PUSH1 0x20 SWAP3 SWAP2 SWAP1 DUP3 SWAP1 SUB ADD DUP2 DUP7 DUP1 EXTCODESIZE ISZERO DUP1 ISZERO PUSH2 0x1511 JUMPI PUSH1 0x0 DUP1 REVERT JUMPDEST POP GAS STATICCALL ISZERO DUP1 ISZERO PUSH2 0x1525 JUMPI RETURNDATASIZE PUSH1 0x0 DUP1 RETURNDATACOPY RETURNDATASIZE PUSH1 0x0 REVERT JUMPDEST POP POP POP POP PUSH1 0x40 MLOAD RETURNDATASIZE PUSH1 0x1F NOT PUSH1 0x1F DUP3 ADD AND DUP3 ADD DUP1 PUSH1 0x40 MSTORE POP PUSH2 0x11B2 SWAP2 SWAP1 DUP2 ADD SWAP1 PUSH2 0x24AD JUMP JUMPDEST PUSH1 0xA SLOAD PUSH1 0x40 DUP1 MLOAD PUSH1 0xE0 PUSH1 0x2 EXP PUSH4 0x84987E83 MUL DUP2 MSTORE SWAP1 MLOAD PUSH1 0x0 SWAP3 PUSH1 0x1 PUSH1 0xA0 PUSH1 0x2 EXP SUB AND SWAP2 PUSH4 0x84987E83 SWAP2 PUSH1 0x4 DUP1 DUP4 ADD SWAP3 PUSH1 0x20 SWAP3 SWAP2 SWAP1 DUP3 SWAP1 SUB ADD DUP2 DUP7 DUP1 EXTCODESIZE ISZERO DUP1 ISZERO PUSH2 0x1591 JUMPI PUSH1 0x0 DUP1 REVERT JUMPDEST POP GAS STATICCALL ISZERO DUP1 ISZERO PUSH2 0x15A5 JUMPI RETURNDATASIZE PUSH1 0x0 DUP1 RETURNDATACOPY RETURNDATASIZE PUSH1 0x0 REVERT JUMPDEST POP POP POP POP PUSH1 0x40 MLOAD RETURNDATASIZE PUSH1 0x1F NOT PUSH1 0x1F DUP3 ADD AND DUP3 ADD DUP1 PUSH1 0x40 MSTORE POP PUSH2 0x15C9 SWAP2 SWAP1 DUP2 ADD SWAP1 PUSH2 0x24AD JUMP JUMPDEST PUSH1 0x1 PUSH1 0xA0 PUSH1 0x2 EXP SUB AND PUSH4 0x485FF697 DUP4 PUSH1 0x40 MLOAD DUP3 PUSH4 0xFFFFFFFF AND PUSH1 0xE0 PUSH1 0x2 EXP MUL DUP2 MSTORE PUSH1 0x4 ADD PUSH2 0x15F7 SWAP2 SWAP1 PUSH2 0x2873 JUMP JUMPDEST PUSH1 0x20 PUSH1 0x40 MLOAD DUP1 DUP4 SUB DUP2 DUP7 DUP1 EXTCODESIZE ISZERO DUP1 ISZERO PUSH2 0x160F JUMPI PUSH1 0x0 DUP1 REVERT JUMPDEST POP GAS STATICCALL ISZERO DUP1 ISZERO PUSH2 0x1623 JUMPI RETURNDATASIZE PUSH1 0x0 DUP1 RETURNDATACOPY RETURNDATASIZE PUSH1 0x0 REVERT JUMPDEST POP POP POP POP PUSH1 0x40 MLOAD RETURNDATASIZE PUSH1 0x1F NOT PUSH1 0x1F DUP3 ADD AND DUP3 ADD DUP1 PUSH1 0x40 MSTORE POP PUSH2 0x1647 SWAP2 SWAP1 DUP2 ADD SWAP1 PUSH2 0x24AD JUMP JUMPDEST SWAP3 SWAP2 POP POP JUMP JUMPDEST PUSH1 0x0 PUSH2 0x1647 DUP3 PUSH2 0x1E19 JUMP JUMPDEST PUSH1 0xA SLOAD PUSH1 0x40 DUP1 MLOAD PUSH1 0xE0 PUSH1 0x2 EXP PUSH4 0x84987E83 MUL DUP2 MSTORE SWAP1 MLOAD PUSH1 0x0 SWAP3 PUSH1 0x1 PUSH1 0xA0 PUSH1 0x2 EXP SUB AND SWAP2 PUSH4 0x84987E83 SWAP2 PUSH1 0x4 DUP1 DUP4 ADD SWAP3 PUSH1 0x20 SWAP3 SWAP2 SWAP1 DUP3 SWAP1 SUB ADD DUP2 DUP7 DUP1 EXTCODESIZE ISZERO DUP1 ISZERO PUSH2 0x16A0 JUMPI PUSH1 0x0 DUP1 REVERT JUMPDEST POP GAS STATICCALL ISZERO DUP1 ISZERO PUSH2 0x16B4 JUMPI RETURNDATASIZE PUSH1 0x0 DUP1 RETURNDATACOPY RETURNDATASIZE PUSH1 0x0 REVERT JUMPDEST POP POP POP POP PUSH1 0x40 MLOAD RETURNDATASIZE PUSH1 0x1F NOT PUSH1 0x1F DUP3 ADD AND DUP3 ADD DUP1 PUSH1 0x40 MSTORE POP PUSH2 0x16D8 SWAP2 SWAP1 DUP2 ADD SWAP1 PUSH2 0x24AD JUMP JUMPDEST PUSH1 0x1 PUSH1 0xA0 PUSH1 0x2 EXP SUB AND PUSH4 0x7ECF2C2F DUP5 DUP5 PUSH1 0x40 MLOAD DUP4 PUSH4 0xFFFFFFFF AND PUSH1 0xE0 PUSH1 0x2 EXP MUL DUP2 MSTORE PUSH1 0x4 ADD PUSH2 0x1708 SWAP3 SWAP2 SWAP1 PUSH2 0x2A1F JUMP JUMPDEST PUSH1 0x20 PUSH1 0x40 MLOAD DUP1 DUP4 SUB DUP2 DUP7 DUP1 EXTCODESIZE ISZERO DUP1 ISZERO PUSH2 0x1720 JUMPI PUSH1 0x0 DUP1 REVERT JUMPDEST POP GAS STATICCALL ISZERO DUP1 ISZERO PUSH2 0x1734 JUMPI RETURNDATASIZE PUSH1 0x0 DUP1 RETURNDATACOPY RETURNDATASIZE PUSH1 0x0 REVERT JUMPDEST POP POP POP POP PUSH1 0x40 MLOAD RETURNDATASIZE PUSH1 0x1F NOT PUSH1 0x1F DUP3 ADD AND DUP3 ADD DUP1 PUSH1 0x40 MSTORE POP PUSH2 0xA63 SWAP2 SWAP1 DUP2 ADD SWAP1 PUSH2 0x2639 JUMP JUMPDEST PUSH1 0xA SLOAD PUSH1 0x40 DUP1 MLOAD PUSH1 0xE0 PUSH1 0x2 EXP PUSH4 0x84987E83 MUL DUP2 MSTORE SWAP1 MLOAD PUSH1 0x0 SWAP3 PUSH1 0x1 PUSH1 0xA0 PUSH1 0x2 EXP SUB AND SWAP2 PUSH4 0x84987E83 SWAP2 PUSH1 0x4 DUP1 DUP4 ADD SWAP3 PUSH1 0x20 SWAP3 SWAP2 SWAP1 DUP3 SWAP1 SUB ADD DUP2 DUP7 DUP1 EXTCODESIZE ISZERO DUP1 ISZERO PUSH2 0x17A0 JUMPI PUSH1 0x0 DUP1 REVERT JUMPDEST POP GAS STATICCALL ISZERO DUP1 ISZERO PUSH2 0x17B4 JUMPI RETURNDATASIZE PUSH1 0x0 DUP1 RETURNDATACOPY RETURNDATASIZE PUSH1 0x0 REVERT JUMPDEST POP POP POP POP PUSH1 0x40 MLOAD RETURNDATASIZE PUSH1 0x1F NOT PUSH1 0x1F DUP3 ADD AND DUP3 ADD DUP1 PUSH1 0x40 MSTORE POP PUSH2 0x17D8 SWAP2 SWAP1 DUP2 ADD SWAP1 PUSH2 0x24AD JUMP JUMPDEST PUSH1 0x1 PUSH1 0xA0 PUSH1 0x2 EXP SUB AND PUSH4 0x5B28556D PUSH1 0x40 MLOAD DUP2 PUSH4 0xFFFFFFFF AND PUSH1 0xE0 PUSH1 0x2 EXP MUL DUP2 MSTORE PUSH1 0x4 ADD PUSH1 0x20 PUSH1 0x40 MLOAD DUP1 DUP4 SUB DUP2 DUP7 DUP1 EXTCODESIZE ISZERO DUP1 ISZERO PUSH2 0x1511 JUMPI PUSH1 0x0 DUP1 REVERT JUMPDEST PUSH1 0xD SLOAD PUSH1 0x0 SWAP1 PUSH1 0x1 PUSH1 0xA0 PUSH1 0x2 EXP SUB AND ISZERO PUSH2 0x18CB JUMPI PUSH1 0xD SLOAD PUSH1 0x40 MLOAD PUSH32 0xD88C271E00000000000000000000000000000000000000000000000000000000 DUP2 MSTORE PUSH1 0x1 PUSH1 0xA0 PUSH1 0x2 EXP SUB SWAP1 SWAP2 AND SWAP1 PUSH4 0xD88C271E SWAP1 PUSH2 0x1870 SWAP1 DUP6 SWAP1 PUSH1 0x4 ADD PUSH2 0x2873 JUMP JUMPDEST PUSH1 0x20 PUSH1 0x40 MLOAD DUP1 DUP4 SUB DUP2 DUP7 DUP1 EXTCODESIZE ISZERO DUP1 ISZERO PUSH2 0x1888 JUMPI PUSH1 0x0 DUP1 REVERT JUMPDEST POP GAS STATICCALL ISZERO DUP1 ISZERO PUSH2 0x189C JUMPI RETURNDATASIZE PUSH1 0x0 DUP1 RETURNDATACOPY RETURNDATASIZE PUSH1 0x0 REVERT JUMPDEST POP POP POP POP PUSH1 0x40 MLOAD RETURNDATASIZE PUSH1 0x1F NOT PUSH1 0x1F DUP3 ADD AND DUP3 ADD DUP1 PUSH1 0x40 MSTORE POP PUSH2 0x18C0 SWAP2 SWAP1 DUP2 ADD SWAP1 PUSH2 0x2639 JUMP JUMPDEST ISZERO ISZERO PUSH2 0x18CB JUMPI PUSH1 0x0 DUP1 REVERT JUMPDEST PUSH1 0x0 DUP1 PUSH1 0x0 DUP1 PUSH2 0x18D9 PUSH2 0x1E20 JUMP JUMPDEST SWAP3 SWAP7 POP SWAP1 SWAP5 POP SWAP3 POP SWAP1 POP PUSH2 0x18EC DUP2 PUSH2 0x1EA1 JUMP JUMPDEST PUSH2 0x18F8 DUP7 DUP3 DUP6 DUP6 PUSH2 0x2104 JUMP JUMPDEST PUSH1 0x5 SLOAD PUSH2 0x1905 SWAP1 DUP6 PUSH2 0x21DE JUMP JUMPDEST PUSH1 0x5 SSTORE POP PUSH1 0x1 SWAP6 SWAP5 POP POP POP POP POP JUMP JUMPDEST PUSH1 0x0 PUSH2 0x191E PUSH2 0x21FB JUMP JUMPDEST PUSH1 0x1 PUSH1 0xA0 PUSH1 0x2 EXP SUB AND PUSH4 0x802AF840 DUP8 DUP8 DUP8 DUP8 DUP8 PUSH1 0x40 MLOAD DUP7 PUSH4 0xFFFFFFFF AND PUSH1 0xE0 PUSH1 0x2 EXP MUL DUP2 MSTORE PUSH1 0x4 ADD PUSH2 0x1954 SWAP6 SWAP5 SWAP4 SWAP3 SWAP2 SWAP1 PUSH2 0x2A8C JUMP JUMPDEST PUSH1 0x20 PUSH1 0x40 MLOAD DUP1 DUP4 SUB DUP2 DUP7 DUP1 EXTCODESIZE ISZERO DUP1 ISZERO PUSH2 0x196C JUMPI PUSH1 0x0 DUP1 REVERT JUMPDEST POP GAS STATICCALL ISZERO DUP1 ISZERO PUSH2 0x1980 JUMPI RETURNDATASIZE PUSH1 0x0 DUP1 RETURNDATACOPY RETURNDATASIZE PUSH1 0x0 REVERT JUMPDEST POP POP POP POP PUSH1 0x40 MLOAD RETURNDATASIZE PUSH1 0x1F NOT PUSH1 0x1F DUP3 ADD AND DUP3 ADD DUP1 PUSH1 0x40 MSTORE POP PUSH2 0x19A4 SWAP2 SWAP1 DUP2 ADD SWAP1 PUSH2 0x2639 JUMP JUMPDEST SWAP1 POP JUMPDEST SWAP6 SWAP5 POP POP POP POP POP JUMP JUMPDEST PUSH1 0x0 DUP1 PUSH1 0x0 DUP1 PUSH1 0x0 PUSH2 0x2710 PUSH2 0x19CA DUP8 PUSH1 0x2 PUSH1 0x6 ADD SLOAD PUSH2 0x2259 JUMP JUMPDEST DUP2 ISZERO ISZERO PUSH2 0x19D3 JUMPI INVALID JUMPDEST DIV SWAP1 POP PUSH1 0x64 PUSH2 0x19E7 DUP3 PUSH1 0xA PUSH1 0x5 ADD SLOAD PUSH2 0x2259 JUMP JUMPDEST DUP2 ISZERO ISZERO PUSH2 0x19F0 JUMPI INVALID JUMPDEST DIV SWAP5 POP DUP5 PUSH2 0x19FE DUP3 DUP7 PUSH2 0x1D56 JUMP JUMPDEST SWAP5 POP DUP5 PUSH2 0x1A0B DUP9 DUP5 PUSH2 0x1D56 JUMP JUMPDEST SWAP5 POP DUP5 PUSH3 0xF4240 PUSH2 0x1A21 DUP8 PUSH1 0x2 PUSH1 0x4 ADD SLOAD PUSH2 0x2259 JUMP JUMPDEST DUP2 ISZERO ISZERO PUSH2 0x1A2A JUMPI INVALID JUMPDEST SWAP4 SWAP11 SWAP3 SWAP10 POP SWAP1 SWAP8 POP SWAP1 SWAP2 DIV SWAP5 POP SWAP3 POP POP POP JUMP JUMPDEST PUSH1 0x2 DUP1 SLOAD PUSH1 0x40 DUP1 MLOAD PUSH1 0x20 PUSH1 0x1F PUSH1 0x0 NOT PUSH2 0x100 PUSH1 0x1 DUP8 AND ISZERO MUL ADD SWAP1 SWAP5 AND DUP6 SWAP1 DIV SWAP4 DUP5 ADD DUP2 SWAP1 DIV DUP2 MUL DUP3 ADD DUP2 ADD SWAP1 SWAP3 MSTORE DUP3 DUP2 MSTORE PUSH1 0x60 SWAP4 SWAP1 SWAP3 SWAP1 SWAP2 DUP4 ADD DUP3 DUP3 DUP1 ISZERO PUSH2 0x1AC6 JUMPI DUP1 PUSH1 0x1F LT PUSH2 0x1A9B JUMPI PUSH2 0x100 DUP1 DUP4 SLOAD DIV MUL DUP4 MSTORE SWAP2 PUSH1 0x20 ADD SWAP2 PUSH2 0x1AC6 JUMP JUMPDEST DUP3 ADD SWAP2 SWAP1 PUSH1 0x0 MSTORE PUSH1 0x20 PUSH1 0x0 KECCAK256 SWAP1 JUMPDEST DUP2 SLOAD DUP2 MSTORE SWAP1 PUSH1 0x1 ADD SWAP1 PUSH1 0x20 ADD DUP1 DUP4 GT PUSH2 0x1AA9 JUMPI DUP3 SWAP1 SUB PUSH1 0x1F AND DUP3 ADD SWAP2 JUMPDEST POP POP PUSH1 0x3 DUP1 SLOAD PUSH1 0x40 DUP1 MLOAD PUSH1 0x20 PUSH1 0x1F PUSH1 0x2 PUSH1 0x0 NOT PUSH2 0x100 PUSH1 0x1 DUP9 AND ISZERO MUL ADD SWAP1 SWAP6 AND SWAP5 SWAP1 SWAP5 DIV SWAP4 DUP5 ADD DUP2 SWAP1 DIV DUP2 MUL DUP3 ADD DUP2 ADD SWAP1 SWAP3 MSTORE DUP3 DUP2 MSTORE SWAP7 SWAP8 POP PUSH1 0x60 SWAP7 SWAP6 POP SWAP2 SWAP4 POP SWAP2 POP DUP4 ADD DUP3 DUP3 DUP1 ISZERO PUSH2 0x1B5A JUMPI DUP1 PUSH1 0x1F LT PUSH2 0x1B2F JUMPI PUSH2 0x100 DUP1 DUP4 SLOAD DIV MUL DUP4 MSTORE SWAP2 PUSH1 0x20 ADD SWAP2 PUSH2 0x1B5A JUMP JUMPDEST DUP3 ADD SWAP2 SWAP1 PUSH1 0x0 MSTORE PUSH1 0x20 PUSH1 0x0 KECCAK256 SWAP1 JUMPDEST DUP2 SLOAD DUP2 MSTORE SWAP1 PUSH1 0x1 ADD SWAP1 PUSH1 0x20 ADD DUP1 DUP4 GT PUSH2 0x1B3D JUMPI DUP3 SWAP1 SUB PUSH1 0x1F AND DUP3 ADD SWAP2 JUMPDEST POP POP PUSH1 0xA SLOAD PUSH1 0x40 DUP1 MLOAD PUSH32 0x26C7A0DE00000000000000000000000000000000000000000000000000000000 DUP2 MSTORE SWAP1 MLOAD SWAP6 SWAP7 POP PUSH1 0x1 PUSH1 0xA0 PUSH1 0x2 EXP SUB SWAP1 SWAP2 AND SWAP5 PUSH1 0x0 SWAP5 POP DUP6 SWAP4 POP PUSH4 0x26C7A0DE SWAP3 POP PUSH1 0x4 DUP1 DUP4 ADD SWAP3 PUSH1 0x20 SWAP3 SWAP2 SWAP1 DUP3 SWAP1 SUB ADD DUP2 DUP7 DUP1 EXTCODESIZE ISZERO DUP1 ISZERO PUSH2 0x1BC4 JUMPI PUSH1 0x0 DUP1 REVERT JUMPDEST POP GAS STATICCALL ISZERO DUP1 ISZERO PUSH2 0x1BD8 JUMPI RETURNDATASIZE PUSH1 0x0 DUP1 RETURNDATACOPY RETURNDATASIZE PUSH1 0x0 REVERT JUMPDEST POP POP POP POP PUSH1 0x40 MLOAD RETURNDATASIZE PUSH1 0x1F NOT PUSH1 0x1F DUP3 ADD AND DUP3 ADD DUP1 PUSH1 0x40 MSTORE POP PUSH2 0x1BFC SWAP2 SWAP1 DUP2 ADD SWAP1 PUSH2 0x24AD JUMP JUMPDEST PUSH1 0x40 MLOAD PUSH32 0x2EC5761200000000000000000000000000000000000000000000000000000000 DUP2 MSTORE SWAP1 SWAP2 POP PUSH1 0x1 PUSH1 0xA0 PUSH1 0x2 EXP SUB DUP3 AND SWAP1 PUSH4 0x2EC57612 SWAP1 PUSH2 0x1C4E SWAP1 CALLER SWAP1 ADDRESS SWAP1 DUP12 SWAP1 DUP12 SWAP1 DUP12 SWAP1 DUP12 SWAP1 PUSH1 0x4 ADD PUSH2 0x2914 JUMP JUMPDEST PUSH1 0x20 PUSH1 0x40 MLOAD DUP1 DUP4 SUB DUP2 PUSH1 0x0 DUP8 DUP1 EXTCODESIZE ISZERO DUP1 ISZERO PUSH2 0x1C68 JUMPI PUSH1 0x0 DUP1 REVERT JUMPDEST POP GAS CALL ISZERO DUP1 ISZERO PUSH2 0x1C7C JUMPI RETURNDATASIZE PUSH1 0x0 DUP1 RETURNDATACOPY RETURNDATASIZE PUSH1 0x0 REVERT JUMPDEST POP POP POP POP PUSH1 0x40 MLOAD RETURNDATASIZE PUSH1 0x1F NOT PUSH1 0x1F DUP3 ADD AND DUP3 ADD DUP1 PUSH1 0x40 MSTORE POP PUSH2 0x1CA0 SWAP2 SWAP1 DUP2 ADD SWAP1 PUSH2 0x2639 JUMP JUMPDEST ISZERO ISZERO PUSH2 0x1205 JUMPI PUSH1 0x0 DUP1 REVERT JUMPDEST PUSH1 0x1 PUSH1 0xA0 PUSH1 0x2 EXP SUB DUP5 AND PUSH1 0x0 SWAP1 DUP2 MSTORE PUSH1 0x1 PUSH1 0x20 MSTORE PUSH1 0x40 SWAP1 KECCAK256 SLOAD PUSH2 0x1CCE SWAP1 DUP5 PUSH2 0x1D56 JUMP JUMPDEST PUSH1 0x1 PUSH1 0xA0 PUSH1 0x2 EXP SUB DUP1 DUP7 AND PUSH1 0x0 SWAP1 DUP2 MSTORE PUSH1 0x1 PUSH1 0x20 MSTORE PUSH1 0x40 DUP1 DUP3 KECCAK256 SWAP4 SWAP1 SWAP4 SSTORE PUSH1 0xC SLOAD SWAP1 SWAP2 AND DUP2 MSTORE KECCAK256 SLOAD PUSH2 0x1D00 SWAP1 DUP4 PUSH2 0x21DE JUMP JUMPDEST PUSH1 0xC SLOAD PUSH1 0x1 PUSH1 0xA0 PUSH1 0x2 EXP SUB SWAP1 DUP2 AND PUSH1 0x0 SWAP1 DUP2 MSTORE PUSH1 0x1 PUSH1 0x20 MSTORE PUSH1 0x40 DUP1 DUP3 KECCAK256 SWAP4 SWAP1 SWAP4 SSTORE PUSH1 0xB SLOAD SWAP1 SWAP2 AND DUP2 MSTORE KECCAK256 SLOAD PUSH2 0x1D35 SWAP1 DUP3 PUSH2 0x21DE JUMP JUMPDEST PUSH1 0xB SLOAD PUSH1 0x1 PUSH1 0xA0 PUSH1 0x2 EXP SUB AND PUSH1 0x0 SWAP1 DUP2 MSTORE PUSH1 0x1 PUSH1 0x20 MSTORE PUSH1 0x40 SWAP1 KECCAK256 SSTORE POP POP POP POP JUMP JUMPDEST PUSH1 0x0 DUP3 DUP3 GT ISZERO PUSH2 0x1D62 JUMPI INVALID JUMPDEST POP SWAP1 SUB SWAP1 JUMP JUMPDEST PUSH1 0x40 MLOAD PUSH32 0x95EA7B300000000000000000000000000000000000000000000000000000000 DUP2 MSTORE PUSH1 0x0 SWAP1 PUSH1 0x1 PUSH1 0xA0 PUSH1 0x2 EXP SUB DUP5 AND SWAP1 PUSH4 0x95EA7B3 SWAP1 PUSH2 0x1DB2 SWAP1 DUP8 SWAP1 DUP7 SWAP1 PUSH1 0x4 ADD PUSH2 0x29D5 JUMP JUMPDEST PUSH1 0x20 PUSH1 0x40 MLOAD DUP1 DUP4 SUB DUP2 PUSH1 0x0 DUP8 DUP1 EXTCODESIZE ISZERO DUP1 ISZERO PUSH2 0x1DCC JUMPI PUSH1 0x0 DUP1 REVERT JUMPDEST POP GAS CALL ISZERO DUP1 ISZERO PUSH2 0x1DE0 JUMPI RETURNDATASIZE PUSH1 0x0 DUP1 RETURNDATACOPY RETURNDATASIZE PUSH1 0x0 REVERT JUMPDEST POP POP POP POP PUSH1 0x40 MLOAD RETURNDATASIZE PUSH1 0x1F NOT PUSH1 0x1F DUP3 ADD AND DUP3 ADD DUP1 PUSH1 0x40 MSTORE POP PUSH2 0x1E04 SWAP2 SWAP1 DUP2 ADD SWAP1 PUSH2 0x2639 JUMP JUMPDEST ISZERO ISZERO PUSH2 0x1E0F JUMPI PUSH1 0x0 DUP1 REVERT JUMPDEST POP PUSH1 0x1 SWAP4 SWAP3 POP POP POP JUMP JUMPDEST PUSH1 0x20 ADD MLOAD SWAP1 JUMP JUMPDEST PUSH1 0x0 DUP1 PUSH1 0x0 DUP1 PUSH2 0x1E3A PUSH3 0xF4240 CALLVALUE MUL PUSH1 0x2 PUSH1 0x5 ADD SLOAD PUSH2 0x227A JUMP JUMPDEST SWAP4 POP PUSH1 0x0 PUSH2 0x2710 PUSH2 0x1E50 DUP7 PUSH1 0x2 PUSH1 0x6 ADD SLOAD PUSH2 0x2259 JUMP JUMPDEST DUP2 ISZERO ISZERO PUSH2 0x1E59 JUMPI INVALID JUMPDEST DIV SWAP1 POP DUP5 PUSH1 0x64 PUSH2 0x1E6E DUP4 PUSH1 0xA PUSH1 0x5 ADD SLOAD PUSH2 0x2259 JUMP JUMPDEST DUP2 ISZERO ISZERO PUSH2 0x1E77 JUMPI INVALID JUMPDEST DIV SWAP5 POP DUP5 PUSH2 0x1E85 DUP4 DUP8 PUSH2 0x1D56 JUMP JUMPDEST SWAP5 POP DUP5 PUSH2 0x1E92 DUP9 DUP6 PUSH2 0x1D56 JUMP JUMPDEST SWAP3 SWAP9 SWAP2 SWAP8 POP SWAP6 POP SWAP1 SWAP4 POP SWAP2 POP POP JUMP JUMPDEST PUSH1 0x2 DUP1 SLOAD PUSH1 0x40 DUP1 MLOAD PUSH1 0x20 PUSH1 0x1F PUSH1 0x0 NOT PUSH2 0x100 PUSH1 0x1 DUP8 AND ISZERO MUL ADD SWAP1 SWAP5 AND DUP6 SWAP1 DIV SWAP4 DUP5 ADD DUP2 SWAP1 DIV DUP2 MUL DUP3 ADD DUP2 ADD SWAP1 SWAP3 MSTORE DUP3 DUP2 MSTORE PUSH1 0x60 SWAP4 SWAP1 SWAP3 SWAP1 SWAP2 DUP4 ADD DUP3 DUP3 DUP1 ISZERO PUSH2 0x1F2A JUMPI DUP1 PUSH1 0x1F LT PUSH2 0x1EFF JUMPI PUSH2 0x100 DUP1 DUP4 SLOAD DIV MUL DUP4 MSTORE SWAP2 PUSH1 0x20 ADD SWAP2 PUSH2 0x1F2A JUMP JUMPDEST DUP3 ADD SWAP2 SWAP1 PUSH1 0x0 MSTORE PUSH1 0x20 PUSH1 0x0 KECCAK256 SWAP1 JUMPDEST DUP2 SLOAD DUP2 MSTORE SWAP1 PUSH1 0x1 ADD SWAP1 PUSH1 0x20 ADD DUP1 DUP4 GT PUSH2 0x1F0D JUMPI DUP3 SWAP1 SUB PUSH1 0x1F AND DUP3 ADD SWAP2 JUMPDEST POP POP PUSH1 0x3 DUP1 SLOAD PUSH1 0x40 DUP1 MLOAD PUSH1 0x20 PUSH1 0x1F PUSH1 0x2 PUSH1 0x0 NOT PUSH2 0x100 PUSH1 0x1 DUP9 AND ISZERO MUL ADD SWAP1 SWAP6 AND SWAP5 SWAP1 SWAP5 DIV SWAP4 DUP5 ADD DUP2 SWAP1 DIV DUP2 MUL DUP3 ADD DUP2 ADD SWAP1 SWAP3 MSTORE DUP3 DUP2 MSTORE SWAP7 SWAP8 POP PUSH1 0x60 SWAP7 SWAP6 POP SWAP2 SWAP4 POP SWAP2 POP DUP4 ADD DUP3 DUP3 DUP1 ISZERO PUSH2 0x1FBE JUMPI DUP1 PUSH1 0x1F LT PUSH2 0x1F93 JUMPI PUSH2 0x100 DUP1 DUP4 SLOAD DIV MUL DUP4 MSTORE SWAP2 PUSH1 0x20 ADD SWAP2 PUSH2 0x1FBE JUMP JUMPDEST DUP3 ADD SWAP2 SWAP1 PUSH1 0x0 MSTORE PUSH1 0x20 PUSH1 0x0 KECCAK256 SWAP1 JUMPDEST DUP2 SLOAD DUP2 MSTORE SWAP1 PUSH1 0x1 ADD SWAP1 PUSH1 0x20 ADD DUP1 DUP4 GT PUSH2 0x1FA1 JUMPI DUP3 SWAP1 SUB PUSH1 0x1F AND DUP3 ADD SWAP2 JUMPDEST POP POP PUSH1 0xA SLOAD PUSH1 0x40 DUP1 MLOAD PUSH32 0x26C7A0DE00000000000000000000000000000000000000000000000000000000 DUP2 MSTORE SWAP1 MLOAD SWAP6 SWAP7 POP PUSH1 0x1 PUSH1 0xA0 PUSH1 0x2 EXP SUB SWAP1 SWAP2 AND SWAP5 PUSH1 0x0 SWAP5 POP DUP6 SWAP4 POP PUSH4 0x26C7A0DE SWAP3 POP PUSH1 0x4 DUP1 DUP4 ADD SWAP3 PUSH1 0x20 SWAP3 SWAP2 SWAP1 DUP3 SWAP1 SUB ADD DUP2 DUP7 DUP1 EXTCODESIZE ISZERO DUP1 ISZERO PUSH2 0x2028 JUMPI PUSH1 0x0 DUP1 REVERT JUMPDEST POP GAS STATICCALL ISZERO DUP1 ISZERO PUSH2 0x203C JUMPI RETURNDATASIZE PUSH1 0x0 DUP1 RETURNDATACOPY RETURNDATASIZE PUSH1 0x0 REVERT JUMPDEST POP POP POP POP PUSH1 0x40 MLOAD RETURNDATASIZE PUSH1 0x1F NOT PUSH1 0x1F DUP3 ADD AND DUP3 ADD DUP1 PUSH1 0x40 MSTORE POP PUSH2 0x2060 SWAP2 SWAP1 DUP2 ADD SWAP1 PUSH2 0x24AD JUMP JUMPDEST PUSH1 0x40 MLOAD PUSH32 0x2CC4E4B600000000000000000000000000000000000000000000000000000000 DUP2 MSTORE SWAP1 SWAP2 POP PUSH1 0x1 PUSH1 0xA0 PUSH1 0x2 EXP SUB DUP3 AND SWAP1 PUSH4 0x2CC4E4B6 SWAP1 PUSH2 0x20B2 SWAP1 CALLER SWAP1 ADDRESS SWAP1 CALLVALUE SWAP1 DUP12 SWAP1 DUP12 SWAP1 DUP12 SWAP1 PUSH1 0x4 ADD PUSH2 0x2914 JUMP JUMPDEST PUSH1 0x20 PUSH1 0x40 MLOAD DUP1 DUP4 SUB DUP2 PUSH1 0x0 DUP8 DUP1 EXTCODESIZE ISZERO DUP1 ISZERO PUSH2 0x20CC JUMPI PUSH1 0x0 DUP1 REVERT JUMPDEST POP GAS CALL ISZERO DUP1 ISZERO PUSH2 0x20E0 JUMPI RETURNDATASIZE PUSH1 0x0 DUP1 RETURNDATACOPY RETURNDATASIZE PUSH1 0x0 REVERT JUMPDEST POP POP POP POP PUSH1 0x40 MLOAD RETURNDATASIZE PUSH1 0x1F NOT PUSH1 0x1F DUP3 ADD AND DUP3 ADD DUP1 PUSH1 0x40 MSTORE POP PUSH2 0x13C0 SWAP2 SWAP1 DUP2 ADD SWAP1 PUSH2 0x2639 JUMP JUMPDEST PUSH1 0x1 PUSH1 0xA0 PUSH1 0x2 EXP SUB DUP5 AND PUSH1 0x0 SWAP1 DUP2 MSTORE PUSH1 0x1 PUSH1 0x20 MSTORE PUSH1 0x40 SWAP1 KECCAK256 SLOAD PUSH2 0x2127 SWAP1 DUP5 PUSH2 0x21DE JUMP JUMPDEST PUSH1 0x1 PUSH1 0xA0 PUSH1 0x2 EXP SUB DUP1 DUP7 AND PUSH1 0x0 SWAP1 DUP2 MSTORE PUSH1 0x1 PUSH1 0x20 MSTORE PUSH1 0x40 DUP1 DUP3 KECCAK256 SWAP4 SWAP1 SWAP4 SSTORE PUSH1 0xC SLOAD SWAP1 SWAP2 AND DUP2 MSTORE KECCAK256 SLOAD PUSH2 0x2159 SWAP1 DUP4 PUSH2 0x21DE JUMP JUMPDEST PUSH1 0xC SLOAD PUSH1 0x1 PUSH1 0xA0 PUSH1 0x2 EXP SUB SWAP1 DUP2 AND PUSH1 0x0 SWAP1 DUP2 MSTORE PUSH1 0x1 PUSH1 0x20 MSTORE PUSH1 0x40 DUP1 DUP3 KECCAK256 SWAP4 SWAP1 SWAP4 SSTORE PUSH1 0xB SLOAD SWAP1 SWAP2 AND DUP2 MSTORE KECCAK256 SLOAD PUSH2 0x218E SWAP1 DUP3 PUSH2 0x21DE JUMP JUMPDEST PUSH1 0xB SLOAD PUSH1 0x1 PUSH1 0xA0 PUSH1 0x2 EXP SUB SWAP1 DUP2 AND PUSH1 0x0 SWAP1 DUP2 MSTORE PUSH1 0x1 PUSH1 0x20 MSTORE PUSH1 0x40 DUP1 DUP3 KECCAK256 SWAP4 SWAP1 SWAP4 SSTORE PUSH1 0x9 SLOAD SWAP7 SWAP1 SWAP2 AND DUP2 MSTORE KECCAK256 PUSH1 0x2 ADD DUP1 SLOAD PUSH4 0xFFFFFFFF NOT AND PUSH4 0xFFFFFFFF SWAP6 DUP7 AND TIMESTAMP ADD SWAP1 SWAP6 AND SWAP5 SWAP1 SWAP5 OR SWAP1 SWAP4 SSTORE POP POP POP JUMP JUMPDEST PUSH1 0x0 DUP3 DUP3 ADD DUP4 DUP2 LT DUP1 ISZERO SWAP1 PUSH2 0x21F3 JUMPI POP DUP3 DUP2 LT ISZERO JUMPDEST ISZERO ISZERO PUSH2 0xA63 JUMPI INVALID JUMPDEST PUSH1 0xA SLOAD PUSH1 0x40 DUP1 MLOAD PUSH32 0xB74508D100000000000000000000000000000000000000000000000000000000 DUP2 MSTORE SWAP1 MLOAD PUSH1 0x0 SWAP3 PUSH1 0x1 PUSH1 0xA0 PUSH1 0x2 EXP SUB AND SWAP2 PUSH4 0xB74508D1 SWAP2 PUSH1 0x4 DUP1 DUP4 ADD SWAP3 PUSH1 0x20 SWAP3 SWAP2 SWAP1 DUP3 SWAP1 SUB ADD DUP2 DUP7 DUP1 EXTCODESIZE ISZERO DUP1 ISZERO PUSH2 0x1511 JUMPI PUSH1 0x0 DUP1 REVERT JUMPDEST PUSH1 0x0 DUP3 DUP3 MUL DUP4 ISZERO DUP1 PUSH2 0x21F3 JUMPI POP DUP3 DUP5 DUP3 DUP2 ISZERO ISZERO PUSH2 0x2272 JUMPI INVALID JUMPDEST DIV EQ PUSH2 0xA63 JUMPI INVALID JUMPDEST PUSH1 0x0 DUP1 DUP3 GT PUSH2 0x2285 JUMPI INVALID JUMPDEST PUSH1 0x0 DUP3 DUP5 DUP2 ISZERO ISZERO PUSH2 0x2292 JUMPI INVALID JUMPDEST DIV SWAP1 POP DUP3 DUP5 DUP2 ISZERO ISZERO PUSH2 0x22A0 JUMPI INVALID JUMPDEST MOD DUP2 DUP5 MUL ADD DUP5 EQ ISZERO ISZERO PUSH2 0xA63 JUMPI INVALID JUMPDEST PUSH1 0x0 PUSH2 0xA63 DUP3 CALLDATALOAD PUSH2 0x2B47 JUMP JUMPDEST PUSH1 0x0 PUSH2 0xA63 DUP3 MLOAD PUSH2 0x2B47 JUMP JUMPDEST PUSH1 0x0 DUP1 PUSH1 0x1F DUP4 ADD DUP5 SGT PUSH2 0x22D9 JUMPI PUSH1 0x0 DUP1 REVERT JUMPDEST POP DUP2 CALLDATALOAD PUSH8 0xFFFFFFFFFFFFFFFF DUP2 GT ISZERO PUSH2 0x22F1 JUMPI PUSH1 0x0 DUP1 REVERT JUMPDEST PUSH1 0x20 DUP4 ADD SWAP2 POP DUP4 PUSH1 0x20 DUP3 MUL DUP4 ADD GT ISZERO PUSH2 0x2309 JUMPI PUSH1 0x0 DUP1 REVERT JUMPDEST SWAP3 POP SWAP3 SWAP1 POP JUMP JUMPDEST PUSH1 0x0 PUSH1 0x1F DUP3 ADD DUP4 SGT PUSH2 0x2321 JUMPI PUSH1 0x0 DUP1 REVERT JUMPDEST DUP2 CALLDATALOAD PUSH2 0x2334 PUSH2 0x232F DUP3 PUSH2 0x2AFA JUMP JUMPDEST PUSH2 0x2AD3 JUMP JUMPDEST DUP2 DUP2 MSTORE PUSH1 0x20 SWAP4 DUP5 ADD SWAP4 SWAP1 SWAP3 POP DUP3 ADD DUP4 PUSH1 0x0 JUMPDEST DUP4 DUP2 LT ISZERO PUSH2 0x2372 JUMPI DUP2 CALLDATALOAD DUP7 ADD PUSH2 0x235C DUP9 DUP3 PUSH2 0x2431 JUMP JUMPDEST DUP5 MSTORE POP PUSH1 0x20 SWAP3 DUP4 ADD SWAP3 SWAP2 SWAP1 SWAP2 ADD SWAP1 PUSH1 0x1 ADD PUSH2 0x2346 JUMP JUMPDEST POP POP POP POP SWAP3 SWAP2 POP POP JUMP JUMPDEST PUSH1 0x0 PUSH2 0xA63 DUP3 CALLDATALOAD PUSH2 0x2B52 JUMP JUMPDEST PUSH1 0x0 PUSH2 0xA63 DUP3 MLOAD PUSH2 0x2B52 JUMP JUMPDEST PUSH1 0x0 PUSH2 0xA63 DUP3 CALLDATALOAD PUSH2 0xA6E JUMP JUMPDEST PUSH1 0x0 DUP1 PUSH1 0x1F DUP4 ADD DUP5 SGT PUSH2 0x23B2 JUMPI PUSH1 0x0 DUP1 REVERT JUMPDEST POP DUP2 CALLDATALOAD PUSH8 0xFFFFFFFFFFFFFFFF DUP2 GT ISZERO PUSH2 0x23CA JUMPI PUSH1 0x0 DUP1 REVERT JUMPDEST PUSH1 0x20 DUP4 ADD SWAP2 POP DUP4 PUSH1 0x1 DUP3 MUL DUP4 ADD GT ISZERO PUSH2 0x2309 JUMPI PUSH1 0x0 DUP1 REVERT JUMPDEST PUSH1 0x0 PUSH1 0x1F DUP3 ADD DUP4 SGT PUSH2 0x23F3 JUMPI PUSH1 0x0 DUP1 REVERT JUMPDEST DUP2 CALLDATALOAD PUSH2 0x2401 PUSH2 0x232F DUP3 PUSH2 0x2B1B JUMP JUMPDEST SWAP2 POP DUP1 DUP3 MSTORE PUSH1 0x20 DUP4 ADD PUSH1 0x20 DUP4 ADD DUP6 DUP4 DUP4 ADD GT ISZERO PUSH2 0x241D JUMPI PUSH1 0x0 DUP1 REVERT JUMPDEST PUSH2 0x2428 DUP4 DUP3 DUP5 PUSH2 0x2BA2 JUMP JUMPDEST POP POP POP SWAP3 SWAP2 POP POP JUMP JUMPDEST PUSH1 0x0 PUSH1 0x20 DUP3 DUP5 SUB SLT ISZERO PUSH2 0x2443 JUMPI PUSH1 0x0 DUP1 REVERT JUMPDEST PUSH2 0x244D PUSH1 0x20 PUSH2 0x2AD3 JUMP JUMPDEST SWAP1 POP DUP2 CALLDATALOAD PUSH8 0xFFFFFFFFFFFFFFFF DUP2 GT ISZERO PUSH2 0x2466 JUMPI PUSH1 0x0 DUP1 REVERT JUMPDEST PUSH2 0x2472 DUP5 DUP3 DUP6 ADD PUSH2 0x23E2 JUMP JUMPDEST DUP3 MSTORE POP SWAP3 SWAP2 POP POP JUMP JUMPDEST PUSH1 0x0 PUSH2 0xA63 DUP3 CALLDATALOAD PUSH2 0x2B88 JUMP JUMPDEST PUSH1 0x0 PUSH1 0x20 DUP3 DUP5 SUB SLT ISZERO PUSH2 0x2499 JUMPI PUSH1 0x0 DUP1 REVERT JUMPDEST PUSH1 0x0 PUSH2 0x24A5 DUP5 DUP5 PUSH2 0x22AF JUMP JUMPDEST SWAP5 SWAP4 POP POP POP POP JUMP JUMPDEST PUSH1 0x0 PUSH1 0x20 DUP3 DUP5 SUB SLT ISZERO PUSH2 0x24BF JUMPI PUSH1 0x0 DUP1 REVERT JUMPDEST PUSH1 0x0 PUSH2 0x24A5 DUP5 DUP5 PUSH2 0x22BB JUMP JUMPDEST PUSH1 0x0 DUP1 PUSH1 0x0 PUSH1 0x60 DUP5 DUP7 SUB SLT ISZERO PUSH2 0x24E0 JUMPI PUSH1 0x0 DUP1 REVERT JUMPDEST PUSH1 0x0 PUSH2 0x24EC DUP7 DUP7 PUSH2 0x22AF JUMP JUMPDEST SWAP4 POP POP PUSH1 0x20 PUSH2 0x24FD DUP7 DUP3 DUP8 ADD PUSH2 0x22AF JUMP JUMPDEST SWAP3 POP POP PUSH1 0x40 PUSH2 0x250E DUP7 DUP3 DUP8 ADD PUSH2 0x2394 JUMP JUMPDEST SWAP2 POP POP SWAP3 POP SWAP3 POP SWAP3 JUMP JUMPDEST PUSH1 0x0 DUP1 PUSH1 0x0 DUP1 PUSH1 0x0 PUSH1 0x60 DUP7 DUP9 SUB SLT ISZERO PUSH2 0x2530 JUMPI PUSH1 0x0 DUP1 REVERT JUMPDEST PUSH1 0x0 PUSH2 0x253C DUP9 DUP9 PUSH2 0x22AF JUMP JUMPDEST SWAP6 POP POP PUSH1 0x20 DUP7 ADD CALLDATALOAD PUSH8 0xFFFFFFFFFFFFFFFF DUP2 GT ISZERO PUSH2 0x2559 JUMPI PUSH1 0x0 DUP1 REVERT JUMPDEST PUSH2 0x2565 DUP9 DUP3 DUP10 ADD PUSH2 0x22C7 JUMP JUMPDEST SWAP5 POP SWAP5 POP POP PUSH1 0x40 DUP7 ADD CALLDATALOAD PUSH8 0xFFFFFFFFFFFFFFFF DUP2 GT ISZERO PUSH2 0x2584 JUMPI PUSH1 0x0 DUP1 REVERT JUMPDEST PUSH2 0x2590 DUP9 DUP3 DUP10 ADD PUSH2 0x22C7 JUMP JUMPDEST SWAP3 POP SWAP3 POP POP SWAP3 SWAP6 POP SWAP3 SWAP6 SWAP1 SWAP4 POP JUMP JUMPDEST PUSH1 0x0 DUP1 PUSH1 0x40 DUP4 DUP6 SUB SLT ISZERO PUSH2 0x25B2 JUMPI PUSH1 0x0 DUP1 REVERT JUMPDEST PUSH1 0x0 PUSH2 0x25BE DUP6 DUP6 PUSH2 0x22AF JUMP JUMPDEST SWAP3 POP POP PUSH1 0x20 DUP4 ADD CALLDATALOAD PUSH8 0xFFFFFFFFFFFFFFFF DUP2 GT ISZERO PUSH2 0x25DB JUMPI PUSH1 0x0 DUP1 REVERT JUMPDEST PUSH2 0x25E7 DUP6 DUP3 DUP7 ADD PUSH2 0x2310 JUMP JUMPDEST SWAP2 POP POP SWAP3 POP SWAP3 SWAP1 POP JUMP JUMPDEST PUSH1 0x0 DUP1 PUSH1 0x40 DUP4 DUP6 SUB SLT ISZERO PUSH2 0x2604 JUMPI PUSH1 0x0 DUP1 REVERT JUMPDEST PUSH1 0x0 PUSH2 0x2610 DUP6 DUP6 PUSH2 0x22AF JUMP JUMPDEST SWAP3 POP POP PUSH1 0x20 DUP4 ADD CALLDATALOAD PUSH8 0xFFFFFFFFFFFFFFFF DUP2 GT ISZERO PUSH2 0x262D JUMPI PUSH1 0x0 DUP1 REVERT JUMPDEST PUSH2 0x25E7 DUP6 DUP3 DUP7 ADD PUSH2 0x2431 JUMP JUMPDEST PUSH1 0x0 PUSH1 0x20 DUP3 DUP5 SUB SLT ISZERO PUSH2 0x264B JUMPI PUSH1 0x0 DUP1 REVERT JUMPDEST PUSH1 0x0 PUSH2 0x24A5 DUP5 DUP5 PUSH2 0x2388 JUMP JUMPDEST PUSH1 0x0 DUP1 PUSH1 0x40 DUP4 DUP6 SUB SLT ISZERO PUSH2 0x266A JUMPI PUSH1 0x0 DUP1 REVERT JUMPDEST PUSH1 0x0 PUSH2 0x2676 DUP6 DUP6 PUSH2 0x237C JUMP JUMPDEST SWAP3 POP POP PUSH1 0x20 PUSH2 0x25E7 DUP6 DUP3 DUP7 ADD PUSH2 0x22AF JUMP JUMPDEST PUSH1 0x0 DUP1 PUSH1 0x0 PUSH1 0x40 DUP5 DUP7 SUB SLT ISZERO PUSH2 0x269C JUMPI PUSH1 0x0 DUP1 REVERT JUMPDEST PUSH1 0x0 PUSH2 0x26A8 DUP7 DUP7 PUSH2 0x2394 JUMP JUMPDEST SWAP4 POP POP PUSH1 0x20 DUP5 ADD CALLDATALOAD PUSH8 0xFFFFFFFFFFFFFFFF DUP2 GT ISZERO PUSH2 0x26C5 JUMPI PUSH1 0x0 DUP1 REVERT JUMPDEST PUSH2 0x26D1 DUP7 DUP3 DUP8 ADD PUSH2 0x23A0 JUMP JUMPDEST SWAP3 POP SWAP3 POP POP SWAP3 POP SWAP3 POP SWAP3 JUMP JUMPDEST PUSH1 0x0 PUSH1 0x20 DUP3 DUP5 SUB SLT ISZERO PUSH2 0x26EF JUMPI PUSH1 0x0 DUP1 REVERT JUMPDEST PUSH1 0x0 PUSH2 0x24A5 DUP5 DUP5 PUSH2 0x2394 JUMP JUMPDEST PUSH1 0x0 DUP1 PUSH1 0x0 DUP1 PUSH1 0x0 DUP1 PUSH1 0xA0 DUP8 DUP10 SUB SLT ISZERO PUSH2 0x2714 JUMPI PUSH1 0x0 DUP1 REVERT JUMPDEST PUSH1 0x0 PUSH2 0x2720 DUP10 DUP10 PUSH2 0x2394 JUMP JUMPDEST SWAP7 POP POP PUSH1 0x20 PUSH2 0x2731 DUP10 DUP3 DUP11 ADD PUSH2 0x2394 JUMP JUMPDEST SWAP6 POP POP PUSH1 0x40 PUSH2 0x2742 DUP10 DUP3 DUP11 ADD PUSH2 0x2394 JUMP JUMPDEST SWAP5 POP POP PUSH1 0x60 PUSH2 0x2753 DUP10 DUP3 DUP11 ADD PUSH2 0x2394 JUMP JUMPDEST SWAP4 POP POP PUSH1 0x80 DUP8 ADD CALLDATALOAD PUSH8 0xFFFFFFFFFFFFFFFF DUP2 GT ISZERO PUSH2 0x2770 JUMPI PUSH1 0x0 DUP1 REVERT JUMPDEST PUSH2 0x277C DUP10 DUP3 DUP11 ADD PUSH2 0x23A0 JUMP JUMPDEST SWAP3 POP SWAP3 POP POP SWAP3 SWAP6 POP SWAP3 SWAP6 POP SWAP3 SWAP6 JUMP JUMPDEST PUSH1 0x0 PUSH1 0x20 DUP3 DUP5 SUB SLT ISZERO PUSH2 0x279D JUMPI PUSH1 0x0 DUP1 REVERT JUMPDEST PUSH1 0x0 PUSH2 0x24A5 DUP5 DUP5 PUSH2 0x247B JUMP JUMPDEST PUSH2 0x27B2 DUP2 PUSH2 0x2B91 JUMP JUMPDEST DUP3 MSTORE POP POP JUMP JUMPDEST PUSH2 0x27B2 DUP2 PUSH2 0x2B47 JUMP JUMPDEST PUSH2 0x27B2 DUP2 PUSH2 0x2B52 JUMP JUMPDEST PUSH2 0x27B2 DUP2 PUSH2 0xA6E JUMP JUMPDEST PUSH2 0x27B2 DUP2 PUSH2 0x2B57 JUMP JUMPDEST PUSH1 0x0 DUP3 DUP5 MSTORE PUSH1 0x20 DUP5 ADD SWAP4 POP PUSH2 0x27F2 DUP4 DUP6 DUP5 PUSH2 0x2BA2 JUMP JUMPDEST PUSH2 0x27FB DUP4 PUSH2 0x2BDE JUMP JUMPDEST SWAP1 SWAP4 ADD SWAP4 SWAP3 POP POP POP JUMP JUMPDEST PUSH1 0x0 PUSH2 0x2810 DUP3 PUSH2 0x2B43 JUMP JUMPDEST DUP1 DUP5 MSTORE PUSH2 0x2824 DUP2 PUSH1 0x20 DUP7 ADD PUSH1 0x20 DUP7 ADD PUSH2 0x2BAE JUMP JUMPDEST PUSH2 0x282D DUP2 PUSH2 0x2BDE JUMP JUMPDEST SWAP1 SWAP4 ADD PUSH1 0x20 ADD SWAP4 SWAP3 POP POP POP JUMP JUMPDEST PUSH1 0x12 DUP2 MSTORE PUSH32 0x5245454E5452414E43595F494C4C4547414C0000000000000000000000000000 PUSH1 0x20 DUP3 ADD MSTORE PUSH1 0x40 ADD SWAP1 JUMP JUMPDEST PUSH2 0x27B2 DUP2 PUSH2 0x2B88 JUMP JUMPDEST PUSH1 0x20 DUP2 ADD PUSH2 0x1647 DUP3 DUP5 PUSH2 0x27B8 JUMP JUMPDEST PUSH1 0x20 DUP2 ADD PUSH2 0x1647 DUP3 DUP5 PUSH2 0x27A9 JUMP JUMPDEST PUSH1 0x60 DUP2 ADD PUSH2 0x289D DUP3 DUP7 PUSH2 0x27A9 JUMP JUMPDEST PUSH2 0x28AA PUSH1 0x20 DUP4 ADD DUP6 PUSH2 0x27A9 JUMP JUMPDEST PUSH2 0x24A5 PUSH1 0x40 DUP4 ADD DUP5 PUSH2 0x27B8 JUMP JUMPDEST PUSH1 0x60 DUP2 ADD PUSH2 0x28C5 DUP3 DUP7 PUSH2 0x27A9 JUMP JUMPDEST PUSH2 0x28D2 PUSH1 0x20 DUP4 ADD DUP6 PUSH2 0x27A9 JUMP JUMPDEST PUSH2 0x24A5 PUSH1 0x40 DUP4 ADD DUP5 PUSH2 0x27CA JUMP JUMPDEST PUSH1 0x80 DUP2 ADD PUSH2 0x28ED DUP3 DUP8 PUSH2 0x27A9 JUMP JUMPDEST PUSH2 0x28FA PUSH1 0x20 DUP4 ADD DUP7 PUSH2 0x27A9 JUMP JUMPDEST PUSH2 0x2907 PUSH1 0x40 DUP4 ADD DUP6 PUSH2 0x27CA JUMP JUMPDEST PUSH2 0x19A7 PUSH1 0x60 DUP4 ADD DUP5 PUSH2 0x27CA JUMP JUMPDEST PUSH1 0xC0 DUP2 ADD PUSH2 0x2922 DUP3 DUP10 PUSH2 0x27A9 JUMP JUMPDEST PUSH2 0x292F PUSH1 0x20 DUP4 ADD DUP9 PUSH2 0x27A9 JUMP JUMPDEST PUSH2 0x293C PUSH1 0x40 DUP4 ADD DUP8 PUSH2 0x27CA JUMP JUMPDEST PUSH2 0x2949 PUSH1 0x60 DUP4 ADD DUP7 PUSH2 0x27CA JUMP JUMPDEST DUP2 DUP2 SUB PUSH1 0x80 DUP4 ADD MSTORE PUSH2 0x295B DUP2 DUP6 PUSH2 0x2805 JUMP JUMPDEST SWAP1 POP DUP2 DUP2 SUB PUSH1 0xA0 DUP4 ADD MSTORE PUSH2 0x296F DUP2 DUP5 PUSH2 0x2805 JUMP JUMPDEST SWAP9 SWAP8 POP POP POP POP POP POP POP POP JUMP JUMPDEST PUSH1 0xC0 DUP2 ADD PUSH2 0x2989 DUP3 DUP10 PUSH2 0x27B8 JUMP JUMPDEST PUSH2 0x2996 PUSH1 0x20 DUP4 ADD DUP9 PUSH2 0x27B8 JUMP JUMPDEST PUSH2 0x29A3 PUSH1 0x40 DUP4 ADD DUP8 PUSH2 0x27B8 JUMP JUMPDEST PUSH2 0x29B0 PUSH1 0x60 DUP4 ADD DUP7 PUSH2 0x27CA JUMP JUMPDEST PUSH2 0x29BD PUSH1 0x80 DUP4 ADD DUP6 PUSH2 0x27CA JUMP JUMPDEST PUSH2 0x29CA PUSH1 0xA0 DUP4 ADD DUP5 PUSH2 0x286A JUMP JUMPDEST SWAP8 SWAP7 POP POP POP POP POP POP POP JUMP JUMPDEST PUSH1 0x40 DUP2 ADD PUSH2 0x29E3 DUP3 DUP6 PUSH2 0x27B8 JUMP JUMPDEST PUSH2 0xA63 PUSH1 0x20 DUP4 ADD DUP5 PUSH2 0x27CA JUMP JUMPDEST PUSH1 0x20 DUP2 ADD PUSH2 0x1647 DUP3 DUP5 PUSH2 0x27C1 JUMP JUMPDEST PUSH1 0x40 DUP2 ADD PUSH2 0x2A0C DUP3 DUP7 PUSH2 0x27CA JUMP JUMPDEST DUP2 DUP2 SUB PUSH1 0x20 DUP4 ADD MSTORE PUSH2 0x19A7 DUP2 DUP5 DUP7 PUSH2 0x27DC JUMP JUMPDEST PUSH1 0x40 DUP2 ADD PUSH2 0x2A2D DUP3 DUP6 PUSH2 0x27D3 JUMP JUMPDEST PUSH2 0xA63 PUSH1 0x20 DUP4 ADD DUP5 PUSH2 0x27B8 JUMP JUMPDEST PUSH1 0x80 DUP1 DUP3 MSTORE DUP2 ADD PUSH2 0x2A4B DUP2 DUP8 PUSH2 0x2805 JUMP JUMPDEST SWAP1 POP DUP2 DUP2 SUB PUSH1 0x20 DUP4 ADD MSTORE PUSH2 0x2A5F DUP2 DUP7 PUSH2 0x2805 JUMP JUMPDEST SWAP1 POP PUSH2 0x2907 PUSH1 0x40 DUP4 ADD DUP6 PUSH2 0x27CA JUMP JUMPDEST PUSH1 0x20 DUP1 DUP3 MSTORE DUP2 ADD PUSH2 0x1647 DUP2 PUSH2 0x283A JUMP JUMPDEST PUSH1 0x20 DUP2 ADD PUSH2 0x1647 DUP3 DUP5 PUSH2 0x27CA JUMP JUMPDEST PUSH1 0xA0 DUP2 ADD PUSH2 0x2A9A DUP3 DUP9 PUSH2 0x27CA JUMP JUMPDEST PUSH2 0x2AA7 PUSH1 0x20 DUP4 ADD DUP8 PUSH2 0x27CA JUMP JUMPDEST PUSH2 0x2AB4 PUSH1 0x40 DUP4 ADD DUP7 PUSH2 0x27CA JUMP JUMPDEST PUSH2 0x2AC1 PUSH1 0x60 DUP4 ADD DUP6 PUSH2 0x27CA JUMP JUMPDEST DUP2 DUP2 SUB PUSH1 0x80 DUP4 ADD MSTORE PUSH2 0x29CA DUP2 DUP5 PUSH2 0x2805 JUMP JUMPDEST PUSH1 0x40 MLOAD DUP2 DUP2 ADD PUSH8 0xFFFFFFFFFFFFFFFF DUP2 GT DUP3 DUP3 LT OR ISZERO PUSH2 0x2AF2 JUMPI PUSH1 0x0 DUP1 REVERT JUMPDEST PUSH1 0x40 MSTORE SWAP2 SWAP1 POP JUMP JUMPDEST PUSH1 0x0 PUSH8 0xFFFFFFFFFFFFFFFF DUP3 GT ISZERO PUSH2 0x2B11 JUMPI PUSH1 0x0 DUP1 REVERT JUMPDEST POP PUSH1 0x20 SWAP1 DUP2 MUL ADD SWAP1 JUMP JUMPDEST PUSH1 0x0 PUSH8 0xFFFFFFFFFFFFFFFF DUP3 GT ISZERO PUSH2 0x2B32 JUMPI PUSH1 0x0 DUP1 REVERT JUMPDEST POP PUSH1 0x20 PUSH1 0x1F SWAP2 SWAP1 SWAP2 ADD PUSH1 0x1F NOT AND ADD SWAP1 JUMP JUMPDEST MLOAD SWAP1 JUMP JUMPDEST PUSH1 0x0 PUSH2 0x1647 DUP3 PUSH2 0x2B7C JUMP JUMPDEST ISZERO ISZERO SWAP1 JUMP JUMPDEST PUSH32 0xFFFFFFFF00000000000000000000000000000000000000000000000000000000 AND SWAP1 JUMP JUMPDEST PUSH1 0x1 PUSH1 0xA0 PUSH1 0x2 EXP SUB AND SWAP1 JUMP JUMPDEST PUSH4 0xFFFFFFFF AND SWAP1 JUMP JUMPDEST PUSH1 0x0 PUSH2 0x1647 DUP3 PUSH1 0x0 PUSH2 0x1647 DUP3 PUSH2 0x2B47 JUMP JUMPDEST DUP3 DUP2 DUP4 CALLDATACOPY POP PUSH1 0x0 SWAP2 ADD MSTORE JUMP JUMPDEST PUSH1 0x0 JUMPDEST DUP4 DUP2 LT ISZERO PUSH2 0x2BC9 JUMPI DUP2 DUP2 ADD MLOAD DUP4 DUP3 ADD MSTORE PUSH1 0x20 ADD PUSH2 0x2BB1 JUMP JUMPDEST DUP4 DUP2 GT ISZERO PUSH2 0x2BD8 JUMPI PUSH1 0x0 DUP5 DUP5 ADD MSTORE JUMPDEST POP POP POP POP JUMP JUMPDEST PUSH1 0x1F ADD PUSH1 0x1F NOT AND SWAP1 JUMP INVALID LOG2 PUSH6 0x627A7A723058 KECCAK256 DUP2 DUP14 CALLDATASIZE CALLDATALOAD BYTE DUP9 0x2f PUSH6 0xD54069584CCD AND NUMBER 0xdf 0xea 0xa9 SMOD 0xb6 0x4f NOT PUSH21 0xA0BB2A57D198B2686C6578706572696D656E74616C CREATE2 STOP CALLDATACOPY LOG1 PUSH6 0x627A7A723058 KECCAK256 0xe2 0xe7 0xb0 LOG4 0x25 SIGNEXTEND DUP14 0x5e TIMESTAMP SHL 0xd 0x47 PUSH16 0x6DBAD2CDC54BF66751DD0274FDC29B30 LOG3 NUMBER REVERT STOP 0x29 "
			}
		}
	},
	"sourceTreeHashHex": "0x7433ba0ed9e1d4cf8aed85c87f7690d23128008a63303d2e1c0af4c70ebc2281",
	"compiler": {
		"name": "solc",
		"version": "0.5.0+commit.1d4f565a",
		"settings": {
			"remappings": [],
			"optimizer": {
				"enabled": true,
				"runs": 200
			},
			"outputSelection": {
				"*": {
					"*": [
						"abi",
						"devdoc",
						"evm.bytecode.object",
						"evm.bytecode.sourceMap",
						"evm.deployedBytecode.object",
						"evm.deployedBytecode.sourceMap"
					]
				}
			}
		}
	},
	"chains": {}
}