{
	"schemaVersion": "2.0.0",
	"contractName": "Drago",
	"compilerOutput": {
		"abi": [
			{
				"constant": false,
				"inputs": [
					{
						"name": "_exchange",
						"type": "address"
					},
					{
						"components": [
							{
								"name": "assembledData",
								"type": "bytes"
							}
						],
						"name": "transactions",
						"type": "tuple[]"
					}
				],
				"name": "batchOperateOnExchange",
				"outputs": [],
				"payable": false,
				"stateMutability": "nonpayable",
				"type": "function"
			},
			{
				"constant": false,
				"inputs": [
					{
						"name": "_transactionFee",
						"type": "uint256"
					}
				],
				"name": "setTransactionFee",
				"outputs": [],
				"payable": false,
				"stateMutability": "nonpayable",
				"type": "function"
			},
			{
				"constant": false,
				"inputs": [
					{
						"name": "_exchange",
						"type": "address"
					},
					{
						"components": [
							{
								"name": "assembledData",
								"type": "bytes"
							}
						],
						"name": "transaction",
						"type": "tuple"
					}
				],
				"name": "operateOnExchange",
				"outputs": [
					{
						"name": "success",
						"type": "bool"
					}
				],
				"payable": false,
				"stateMutability": "nonpayable",
				"type": "function"
			},
			{
				"constant": false,
				"inputs": [
					{
						"name": "_enforced",
						"type": "bool"
					},
					{
						"name": "_kycProvider",
						"type": "address"
					}
				],
				"name": "enforceKyc",
				"outputs": [],
				"payable": false,
				"stateMutability": "nonpayable",
				"type": "function"
			},
			{
				"constant": false,
				"inputs": [
					{
						"name": "_new",
						"type": "address"
					}
				],
				"name": "setOwner",
				"outputs": [],
				"payable": false,
				"stateMutability": "nonpayable",
				"type": "function"
			},
			{
				"constant": true,
				"inputs": [
					{
						"name": "hash",
						"type": "bytes32"
					},
					{
						"name": "signature",
						"type": "bytes"
					}
				],
				"name": "isValidSignature",
				"outputs": [
					{
						"name": "isValid",
						"type": "bool"
					}
				],
				"payable": false,
				"stateMutability": "view",
				"type": "function"
			},
			{
				"constant": true,
				"inputs": [],
				"name": "totalSupply",
				"outputs": [
					{
						"name": "",
						"type": "uint256"
					}
				],
				"payable": false,
				"stateMutability": "view",
				"type": "function"
			},
			{
				"constant": false,
				"inputs": [],
				"name": "buyDrago",
				"outputs": [
					{
						"name": "success",
						"type": "bool"
					}
				],
				"payable": true,
				"stateMutability": "payable",
				"type": "function"
			},
			{
				"constant": false,
				"inputs": [
					{
						"name": "_newSellPrice",
						"type": "uint256"
					},
					{
						"name": "_newBuyPrice",
						"type": "uint256"
					},
					{
						"name": "_signaturevaliduntilBlock",
						"type": "uint256"
					},
					{
						"name": "_hash",
						"type": "bytes32"
					},
					{
						"name": "_signedData",
						"type": "bytes"
					}
				],
				"name": "setPrices",
				"outputs": [],
				"payable": false,
				"stateMutability": "nonpayable",
				"type": "function"
			},
			{
				"constant": true,
				"inputs": [],
				"name": "getData",
				"outputs": [
					{
						"name": "name",
						"type": "string"
					},
					{
						"name": "symbol",
						"type": "string"
					},
					{
						"name": "sellPrice",
						"type": "uint256"
					},
					{
						"name": "buyPrice",
						"type": "uint256"
					}
				],
				"payable": false,
				"stateMutability": "view",
				"type": "function"
			},
			{
				"constant": false,
				"inputs": [
					{
						"name": "_minPeriod",
						"type": "uint32"
					}
				],
				"name": "changeMinPeriod",
				"outputs": [],
				"payable": false,
				"stateMutability": "nonpayable",
				"type": "function"
			},
			{
				"constant": false,
				"inputs": [
					{
						"name": "_amount",
						"type": "uint256"
					}
				],
				"name": "sellDrago",
				"outputs": [
					{
						"name": "success",
						"type": "bool"
					}
				],
				"payable": false,
				"stateMutability": "nonpayable",
				"type": "function"
			},
			{
				"constant": false,
				"inputs": [
					{
						"name": "_hodler",
						"type": "address"
					}
				],
				"name": "buyDragoOnBehalf",
				"outputs": [
					{
						"name": "success",
						"type": "bool"
					}
				],
				"payable": true,
				"stateMutability": "payable",
				"type": "function"
			},
			{
				"constant": true,
				"inputs": [
					{
						"name": "_who",
						"type": "address"
					}
				],
				"name": "balanceOf",
				"outputs": [
					{
						"name": "",
						"type": "uint256"
					}
				],
				"payable": false,
				"stateMutability": "view",
				"type": "function"
			},
			{
				"constant": true,
				"inputs": [],
				"name": "getEventful",
				"outputs": [
					{
						"name": "",
						"type": "address"
					}
				],
				"payable": false,
				"stateMutability": "view",
				"type": "function"
			},
			{
				"constant": true,
				"inputs": [],
				"name": "owner",
				"outputs": [
					{
						"name": "",
						"type": "address"
					}
				],
				"payable": false,
				"stateMutability": "view",
				"type": "function"
			},
			{
				"constant": true,
				"inputs": [],
				"name": "getAdminData",
				"outputs": [
					{
						"name": "",
						"type": "address"
					},
					{
						"name": "feeCollector",
						"type": "address"
					},
					{
						"name": "dragoDao",
						"type": "address"
					},
					{
						"name": "ratio",
						"type": "uint256"
					},
					{
						"name": "transactionFee",
						"type": "uint256"
					},
					{
						"name": "minPeriod",
						"type": "uint32"
					}
				],
				"payable": false,
				"stateMutability": "view",
				"type": "function"
			},
			{
				"constant": false,
				"inputs": [
					{
						"name": "_feeCollector",
						"type": "address"
					}
				],
				"name": "changeFeeCollector",
				"outputs": [],
				"payable": false,
				"stateMutability": "nonpayable",
				"type": "function"
			},
			{
				"constant": true,
				"inputs": [],
				"name": "calcSharePrice",
				"outputs": [
					{
						"name": "",
						"type": "uint256"
					}
				],
				"payable": false,
				"stateMutability": "view",
				"type": "function"
			},
			{
				"constant": true,
				"inputs": [],
				"name": "getExchangesAuth",
				"outputs": [
					{
						"name": "",
						"type": "address"
					}
				],
				"payable": false,
				"stateMutability": "view",
				"type": "function"
			},
			{
				"constant": false,
				"inputs": [
					{
						"name": "_tokenTransferProxy",
						"type": "address"
					},
					{
						"name": "_tokens",
						"type": "address[]"
					},
					{
						"name": "_amounts",
						"type": "uint256[]"
					}
				],
				"name": "setMultipleAllowances",
				"outputs": [],
				"payable": false,
				"stateMutability": "nonpayable",
				"type": "function"
			},
			{
				"constant": false,
				"inputs": [
					{
						"name": "_dragoDao",
						"type": "address"
					}
				],
				"name": "changeDragoDao",
				"outputs": [],
				"payable": false,
				"stateMutability": "nonpayable",
				"type": "function"
			},
			{
				"constant": false,
				"inputs": [
					{
						"name": "_tokenTransferProxy",
						"type": "address"
					},
					{
						"name": "_token",
						"type": "address"
					},
					{
						"name": "_amount",
						"type": "uint256"
					}
				],
				"name": "setAllowance",
				"outputs": [],
				"payable": false,
				"stateMutability": "nonpayable",
				"type": "function"
			},
			{
				"constant": true,
				"inputs": [],
				"name": "getKycProvider",
				"outputs": [
					{
						"name": "",
						"type": "address"
					}
				],
				"payable": false,
				"stateMutability": "view",
				"type": "function"
			},
			{
				"constant": false,
				"inputs": [
					{
						"name": "_ratio",
						"type": "uint256"
					}
				],
				"name": "changeRatio",
				"outputs": [],
				"payable": false,
				"stateMutability": "nonpayable",
				"type": "function"
			},
			{
				"inputs": [
					{
						"name": "_dragoName",
						"type": "string"
					},
					{
						"name": "_dragoSymbol",
						"type": "string"
					},
					{
						"name": "_dragoId",
						"type": "uint256"
					},
					{
						"name": "_owner",
						"type": "address"
					},
					{
						"name": "_authority",
						"type": "address"
					}
				],
				"payable": false,
				"stateMutability": "nonpayable",
				"type": "constructor"
			},
			{
				"payable": true,
				"stateMutability": "payable",
				"type": "fallback"
			},
			{
				"anonymous": false,
				"inputs": [
					{
						"indexed": true,
						"name": "old",
						"type": "address"
					},
					{
						"indexed": true,
						"name": "current",
						"type": "address"
					}
				],
				"name": "NewOwner",
				"type": "event"
			}
		],
		"devdoc": {
			"author": "Gabriele Rigo - <gab@rigoblock.com>",
			"methods": {
				"balanceOf(address)": {
					"details": "Calculates how many shares a user holds.",
					"params": {
						"_who": "Address of the target account."
					},
					"return": "Number of shares."
				},
				"batchOperateOnExchange(address,(bytes)[])": {
					"details": "Allows owner or approved exchange to send a transaction to exchangeWith data of signed/unsigned transaction",
					"params": {
						"_exchange": "Address of the exchange",
						"transactions": "Array of ABI encoded transactions"
					}
				},
				"buyDrago()": {
					"details": "Allows a user to buy into a drago.",
					"return": "Bool the function executed correctly."
				},
				"buyDragoOnBehalf(address)": {
					"details": "Allows a user to buy into a drago on behalf of an address.",
					"params": {
						"_hodler": "Address of the target user."
					},
					"return": "Bool the function executed correctly."
				},
				"calcSharePrice()": {
					"details": "Returns the price of a pool.",
					"return": "Value of the share price in wei."
				},
				"changeDragoDao(address)": {
					"details": "Allows drago dao/factory to upgrade its address.",
					"params": {
						"_dragoDao": "Address of the new drago dao."
					}
				},
				"changeFeeCollector(address)": {
					"details": "Allows owner to decide where to receive the fee.",
					"params": {
						"_feeCollector": "Address of the fee receiver."
					}
				},
				"changeMinPeriod(uint32)": {
					"details": "Allows drago dao/factory to change the minimum holding period.",
					"params": {
						"_minPeriod": "Time in seconds."
					}
				},
				"changeRatio(uint256)": {
					"details": "Allows drago dao/factory to change fee split ratio.",
					"params": {
						"_ratio": "Number of ratio for wizard, from 0 to 100."
					}
				},
				"getAdminData()": {
					"details": "Finds the administrative data of the pool.",
					"return": "Address of the account where a user collects fees.Address of the drago dao/factory.Number of the fee split ratio.Value of the transaction fee in basis points.Number of the minimum holding period for shares."
				},
				"getData()": {
					"details": "Finds details of a drago pool.",
					"return": "String name of a drago.String symbol of a drago.Value of the share price in wei.Value of the share price in wei."
				},
				"getEventful()": {
					"details": "Gets the address of the logger contract.",
					"return": "Address of the logger contrac."
				},
				"getExchangesAuth()": {
					"details": "Finds the exchanges authority.",
					"return": "Address of the exchanges authority."
				},
				"isValidSignature(bytes32,bytes)": {
					"details": "Verifies that a signature is valid.",
					"params": {
						"hash": "Message hash that is signed.",
						"signature": "Proof of signing."
					},
					"return": "Validity of order signature."
				},
				"operateOnExchange(address,(bytes))": {
					"details": "Allows owner to operate on exchange through extension.",
					"params": {
						"_exchange": "Address of the target exchange.",
						"transaction": "ABIencoded transaction."
					}
				},
				"sellDrago(uint256)": {
					"details": "Allows a user to sell from a drago.",
					"params": {
						"_amount": "Number of shares to sell."
					},
					"return": "Bool the function executed correctly."
				},
				"setAllowance(address,address,uint256)": {
					"details": "Allows owner to set an allowance to an approved token transfer proxy.",
					"params": {
						"_amount": "Number of tokens approved for spending.",
						"_token": "Address of the token to receive allowance for.",
						"_tokenTransferProxy": "Address of the proxy to be approved."
					}
				},
				"setMultipleAllowances(address,address[],uint256[])": {
					"details": "Allows owner to set allowances to multiple approved tokens with one call.",
					"params": {
						"_amounts": "Array of number of tokens to be approved.",
						"_tokenTransferProxy": "Address of the proxy to be approved.",
						"_tokens": "Address of the token to receive allowance for."
					}
				},
				"setPrices(uint256,uint256,uint256,bytes32,bytes)": {
					"details": "Allows drago owner or authority to set the price for a drago.",
					"params": {
						"_hash": "Bytes32 of the transaction hash.",
						"_newBuyPrice": "Price in wei.",
						"_newSellPrice": "Price in wei.",
						"_signaturevaliduntilBlock": "Number of blocks till expiry of new data.",
						"_signedData": "Bytes of extradata and signature."
					}
				},
				"setTransactionFee(uint256)": {
					"details": "Allows drago owner to set the transaction fee.",
					"params": {
						"_transactionFee": "Value of the transaction fee in basis points."
					}
				},
				"totalSupply()": {
					"details": "Returns the total amount of issued tokens for this drago.",
					"return": "Number of shares."
				}
			},
			"title": "Drago - A set of rules for a drago."
		},
		"evm": {
			"bytecode": {
				"linkReferences": {},
				"object": "0x60806040526000805460a060020a60ff02191690553480156200002157600080fd5b50604051620037413803806200374183398101806040526200004791908101906200020c565b84516200005c906002906020880190620000e8565b50835162000072906003906020870190620000e8565b50600492909255670de0b6b3a7640000600681905560075560008054600160a060020a03928316600160a060020a03199182168117909255600a80549490931693811693909317909155600b805483163317905566038d7ea4c68000600e55600c805490921617905550506050600f556200035c565b828054600181600116156101000203166002900490600052602060002090601f016020900481019282601f106200012b57805160ff19168380011785556200015b565b828001600101855582156200015b579182015b828111156200015b5782518255916020019190600101906200013e565b50620001699291506200016d565b5090565b6200018a91905b8082111562000169576000815560010162000174565b90565b60006200019b825162000316565b9392505050565b6000601f82018313620001b457600080fd5b8151620001cb620001c582620002e2565b620002bb565b91508082526020830160208301858383011115620001e857600080fd5b620001f583828462000329565b50505092915050565b60006200019b82516200018a565b600080600080600060a086880312156200022557600080fd5b85516001604060020a038111156200023c57600080fd5b6200024a88828901620001a2565b95505060208601516001604060020a038111156200026757600080fd5b6200027588828901620001a2565b94505060406200028888828901620001fe565b93505060606200029b888289016200018d565b9250506080620002ae888289016200018d565b9150509295509295909350565b6040518181016001604060020a0381118282101715620002da57600080fd5b604052919050565b60006001604060020a03821115620002f957600080fd5b506020601f91909101601f19160190565b600160a060020a031690565b600062000323826200030a565b92915050565b60005b83811015620003465781810151838201526020016200032c565b8381111562000356576000848401525b50505050565b6133d5806200036c6000396000f3fe6080604052600436106101485763ffffffff7c010000000000000000000000000000000000000000000000000000000060003504166301e6e5498114610156578063096a8ab7146101765780630e91206b146101965780631118069c146101cc57806313af4035146101ec5780631626ba7e1461020c57806318160ddd1461022c5780632fbbde2d1461024e57806330958a98146102565780633bc5de301461027657806354bdbd4d1461029b57806354ea1538146102bb5780636854f668146102db57806370a08231146102ee578063837929b61461030e5780638da5cb5b146103305780638f7a844b146103455780639245290d1461036c5780639489fa841461038c578063c112c713146103a1578063c67f72e1146103b6578063c8c3b926146103d6578063da46098c146103f6578063e4e985a814610416578063f6a332531461042b575b34151561015457600080fd5b005b34801561016257600080fd5b50610154610171366004612d09565b61044b565b34801561018257600080fd5b50610154610191366004612e47565b6106e6565b3480156101a257600080fd5b506101b66101b1366004612d5b565b6107de565b6040516101c3919061315a565b60405180910390f35b3480156101d857600080fd5b506101546101e7366004612dc1565b610aa7565b3480156101f857600080fd5b50610154610207366004612bf1565b610b52565b34801561021857600080fd5b506101b6610227366004612df1565b610c0b565b34801561023857600080fd5b50610241610cc7565b6040516101c391906131e8565b6101b6610cce565b34801561026257600080fd5b50610154610271366004612e65565b610cfe565b34801561028257600080fd5b5061028b610ff1565b6040516101c394939291906131a4565b3480156102a757600080fd5b506101546102b6366004612ef5565b611164565b3480156102c757600080fd5b506101b66102d6366004612e47565b6111bf565b6101b66102e9366004612bf1565b611356565b3480156102fa57600080fd5b50610241610309366004612bf1565b611387565b34801561031a57600080fd5b506103236113af565b6040516101c39190612fdd565b34801561033c57600080fd5b5061032361145b565b34801561035157600080fd5b5061035a611477565b6040516101c3969594939291906130e5565b34801561037857600080fd5b50610154610387366004612bf1565b6114b9565b34801561039857600080fd5b506102416115db565b3480156103ad57600080fd5b506103236115e1565b3480156103c257600080fd5b506101546103d1366004612c82565b6115f0565b3480156103e257600080fd5b506101546103f1366004612bf1565b611653565b34801561040257600080fd5b50610154610411366004612c35565b61177f565b34801561042257600080fd5b5061032361187d565b34801561043757600080fd5b50610154610446366004612e47565b6118c2565b60005473ffffffffffffffffffffffffffffffffffffffff16331461046f57600080fd5b60005474010000000000000000000000000000000000000000900460ff16156104cd576040517f08c379a00000000000000000000000000000000000000000000000000000000081526004016104c4906131d8565b60405180910390fd5b600080547fffffffffffffffffffffff00ffffffffffffffffffffffffffffffffffffffff167401000000000000000000000000000000000000000017815582906105166119ac565b73ffffffffffffffffffffffffffffffffffffffff16639aa4d0a0836040518263ffffffff167c010000000000000000000000000000000000000000000000000000000002815260040161056a9190612fdd565b60206040518083038186803b15801561058257600080fd5b505afa158015610596573d6000803e3d6000fd5b505050506040513d601f19601f820116820180604052506105ba9190810190612da3565b905060006105c66119ac565b73ffffffffffffffffffffffffffffffffffffffff1663f3229cda846040518263ffffffff167c010000000000000000000000000000000000000000000000000000000002815260040161061a9190612fdd565b60206040518083038186803b15801561063257600080fd5b505afa158015610646573d6000803e3d6000fd5b505050506040513d601f19601f8201168201806040525061066a9190810190612da3565b905080806106755750815b151561068057600080fd5b60005b84518110156106b6576106ad86868381518110151561069e57fe5b906020019060200201516107de565b50600101610683565b5050600080547fffffffffffffffffffffff00ffffffffffffffffffffffffffffffffffffffff16905550505050565b60005473ffffffffffffffffffffffffffffffffffffffff16331461070a57600080fd5b606481111561071857600080fd5b60006107226113af565b6040517fd5aaa73a00000000000000000000000000000000000000000000000000000000815290915073ffffffffffffffffffffffffffffffffffffffff82169063d5aaa73a9061077b90339030908790600401613021565b602060405180830381600087803b15801561079557600080fd5b505af11580156107a9573d6000803e3d6000fd5b505050506040513d601f19601f820116820180604052506107cd9190810190612da3565b15156107d857600080fd5b50600855565b6000805473ffffffffffffffffffffffffffffffffffffffff16331461080357600080fd5b60005474010000000000000000000000000000000000000000900460ff1615610858576040517f08c379a00000000000000000000000000000000000000000000000000000000081526004016104c4906131d8565b600080547fffffffffffffffffffffff00ffffffffffffffffffffffffffffffffffffffff167401000000000000000000000000000000000000000017815583906108a16119ac565b73ffffffffffffffffffffffffffffffffffffffff16639aa4d0a0836040518263ffffffff167c01000000000000000000000000000000000000000000000000000000000281526004016108f59190612fdd565b60206040518083038186803b15801561090d57600080fd5b505afa158015610921573d6000803e3d6000fd5b505050506040513d601f19601f820116820180604052506109459190810190612da3565b905060006109516119ac565b73ffffffffffffffffffffffffffffffffffffffff1663f3229cda846040518263ffffffff167c01000000000000000000000000000000000000000000000000000000000281526004016109a59190612fdd565b60206040518083038186803b1580156109bd57600080fd5b505afa1580156109d1573d6000803e3d6000fd5b505050506040513d601f19601f820116820180604052506109f59190810190612da3565b90508080610a005750815b1515610a0b57600080fd5b6000610a1687611a4f565b8651909150610a2d610a2782611b9c565b83611ba7565b1515610a3857600080fd5b606060006001905060206000845160208601876113885a03f46000519250801591508160018114610a6857610a6d565b600080fd5b5050600080547fffffffffffffffffffffff00ffffffffffffffffffffffffffffffffffffffff1690555060019998505050505050505050565b60005473ffffffffffffffffffffffffffffffffffffffff163314610acb57600080fd5b600d80547fffffffffffffffffffffff00ffffffffffffffffffffffffffffffffffffffff167401000000000000000000000000000000000000000093151593909302929092177fffffffffffffffffffffffff00000000000000000000000000000000000000001673ffffffffffffffffffffffffffffffffffffffff91909116179055565b60005473ffffffffffffffffffffffffffffffffffffffff163314610b7657600080fd5b73ffffffffffffffffffffffffffffffffffffffff81161515610b9857600080fd5b600080547fffffffffffffffffffffffff00000000000000000000000000000000000000001673ffffffffffffffffffffffffffffffffffffffff83811691821780845560405192939116917f70aea8d848e8a90fb7661b227dc522eb6395c3dac71b63cb59edd5c9899b23649190a350565b6000610c15611cf0565b73ffffffffffffffffffffffffffffffffffffffff16631626ba7e8585856040518463ffffffff167c0100000000000000000000000000000000000000000000000000000000028152600401610c6d93929190613168565b60206040518083038186803b158015610c8557600080fd5b505afa158015610c99573d6000803e3d6000fd5b505050506040513d601f19601f82011682018060405250610cbd9190810190612da3565b90505b9392505050565b6005545b90565b600e546000903490811015610ce257600080fd5b610ceb33611df4565b1515610cf657600080fd5b600191505090565b60005474010000000000000000000000000000000000000000900460ff1615610d53576040517f08c379a00000000000000000000000000000000000000000000000000000000081526004016104c4906131d8565b600080547fffffffffffffffffffffff00ffffffffffffffffffffffffffffffffffffffff1674010000000000000000000000000000000000000000179055600a546040517f2330f24700000000000000000000000000000000000000000000000000000000815273ffffffffffffffffffffffffffffffffffffffff909116908190632330f24790610dea903390600401612feb565b60206040518083038186803b158015610e0257600080fd5b505afa158015610e16573d6000803e3d6000fd5b505050506040513d601f19601f82011682018060405250610e3a9190810190612da3565b80610e5c575060005473ffffffffffffffffffffffffffffffffffffffff1633145b1515610e6757600080fd5b868680821115610e7657600080fd5b60065489908990600a900482111580610e945750600754600a028110155b15610e9e57610fbc565b610ee18b8b8b8b8b8b8080601f016020809104026020016040519081016040528093929190818152602001838380828437600092019190915250611f0f92505050565b1515610eec57600080fd5b6000610ef66113af565b90508073ffffffffffffffffffffffffffffffffffffffff1663554a781833308f8f6040518563ffffffff167c0100000000000000000000000000000000000000000000000000000000028152600401610f539493929190613049565b602060405180830381600087803b158015610f6d57600080fd5b505af1158015610f81573d6000803e3d6000fd5b505050506040513d601f19601f82011682018060405250610fa59190810190612da3565b1515610fb057600080fd5b5060068b905560078a90555b5050600080547fffffffffffffffffffffff00ffffffffffffffffffffffffffffffffffffffff169055505050505050505050565b600280546040805160206001841615610100027fffffffffffffffffffffffffffffffffffffffffffffffffffffffffffffffff01909316849004601f810184900484028201840190925281815260609384936000938493929183018282801561109c5780601f106110715761010080835404028352916020019161109c565b820191906000526020600020905b81548152906001019060200180831161107f57829003601f168201915b505060038054604080516020601f60027fffffffffffffffffffffffffffffffffffffffffffffffffffffffffffffffff6101006001881615020190951694909404938401819004810282018101909252828152969a509194509250840190508282801561114b5780601f106111205761010080835404028352916020019161114b565b820191906000526020600020905b81548152906001019060200180831161112e57829003601f168201915b5050600654600754989994989097509550929350505050565b600b5473ffffffffffffffffffffffffffffffffffffffff16331461118857600080fd5b600980547fffffffffffffffffffffffffffffffffffffffffffffffffffffffff000000001663ffffffff92909216919091179055565b6000805474010000000000000000000000000000000000000000900460ff1615611215576040517f08c379a00000000000000000000000000000000000000000000000000000000081526004016104c4906131d8565b600080547fffffffffffffffffffffff00ffffffffffffffffffffffffffffffffffffffff167401000000000000000000000000000000000000000017815533815260016020526040902054829081111561126f57600080fd5b3360009081526001602052604090205483908082011161128e57600080fd5b3360009081526001602052604090206002015463ffffffff164210156112b357600080fd5b6000806000806112c288611fd1565b929650909450925090506112d6888261205e565b6112e233898686612322565b6005546112ef9083612401565b600555604051339082156108fc029083906000818181858888f1935050505015801561131f573d6000803e3d6000fd5b5050600080547fffffffffffffffffffffff00ffffffffffffffffffffffffffffffffffffffff1690555060019695505050505050565b600e54600090349081101561136a57600080fd5b61137383611df4565b151561137e57600080fd5b50600192915050565b73ffffffffffffffffffffffffffffffffffffffff1660009081526001602052604090205490565b600a54604080517f26c7a0de000000000000000000000000000000000000000000000000000000008152905160009273ffffffffffffffffffffffffffffffffffffffff169182916326c7a0de91600480820192602092909190829003018186803b15801561141d57600080fd5b505afa158015611431573d6000803e3d6000fd5b505050506040513d601f19601f820116820180604052506114559190810190612c17565b91505090565b60005473ffffffffffffffffffffffffffffffffffffffff1681565b600054600c54600b54600f5460085460095473ffffffffffffffffffffffffffffffffffffffff9586169594851694939093169263ffffffff16909192939495565b60005473ffffffffffffffffffffffffffffffffffffffff1633146114dd57600080fd5b60006114e76113af565b6040517ff39ba93200000000000000000000000000000000000000000000000000000000815290915073ffffffffffffffffffffffffffffffffffffffff82169063f39ba9329061154090339030908790600401612ff9565b602060405180830381600087803b15801561155a57600080fd5b505af115801561156e573d6000803e3d6000fd5b505050506040513d601f19601f820116820180604052506115929190810190612da3565b5050600c80547fffffffffffffffffffffffff00000000000000000000000000000000000000001673ffffffffffffffffffffffffffffffffffffffff92909216919091179055565b60065490565b60006115eb6119ac565b905090565b60005b8381101561164b576116428686868481811061160b57fe5b9050602002013573ffffffffffffffffffffffffffffffffffffffff16858585818110151561163657fe5b90506020020135612413565b506001016115f3565b505050505050565b600b5473ffffffffffffffffffffffffffffffffffffffff16331461167757600080fd5b60006116816113af565b6040517f2a44fba500000000000000000000000000000000000000000000000000000000815290915073ffffffffffffffffffffffffffffffffffffffff821690632a44fba5906116da90339030908790600401612ff9565b602060405180830381600087803b1580156116f457600080fd5b505af1158015611708573d6000803e3d6000fd5b505050506040513d601f19601f8201168201806040525061172c9190810190612da3565b151561173757600080fd5b50600b80547fffffffffffffffffffffffff00000000000000000000000000000000000000001673ffffffffffffffffffffffffffffffffffffffff92909216919091179055565b60005473ffffffffffffffffffffffffffffffffffffffff1633146117a357600080fd5b8260006117ae6119ac565b73ffffffffffffffffffffffffffffffffffffffff166358c860f9836040518263ffffffff167c01000000000000000000000000000000000000000000000000000000000281526004016118029190612fdd565b60206040518083038186803b15801561181a57600080fd5b505afa15801561182e573d6000803e3d6000fd5b505050506040513d601f19601f820116820180604052506118529190810190612da3565b905080151561186057600080fd5b61186b858585612413565b151561187657600080fd5b5050505050565b600d5460009074010000000000000000000000000000000000000000900460ff1615610ccb5750600d5473ffffffffffffffffffffffffffffffffffffffff16610ccb565b600b5473ffffffffffffffffffffffffffffffffffffffff1633146118e657600080fd5b60006118f06113af565b6040517f91f1df8400000000000000000000000000000000000000000000000000000000815290915073ffffffffffffffffffffffffffffffffffffffff8216906391f1df849061194990339030908790600401613021565b602060405180830381600087803b15801561196357600080fd5b505af1158015611977573d6000803e3d6000fd5b505050506040513d601f19601f8201168201806040525061199b9190810190612da3565b15156119a657600080fd5b50600f55565b600a54604080517f84987e83000000000000000000000000000000000000000000000000000000008152905160009273ffffffffffffffffffffffffffffffffffffffff16916384987e83916004808301926020929190829003018186803b158015611a1757600080fd5b505afa158015611a2b573d6000803e3d6000fd5b505050506040513d601f19601f820116820180604052506115eb9190810190612c17565b600a54604080517f84987e83000000000000000000000000000000000000000000000000000000008152905160009273ffffffffffffffffffffffffffffffffffffffff16916384987e83916004808301926020929190829003018186803b158015611aba57600080fd5b505afa158015611ace573d6000803e3d6000fd5b505050506040513d601f19601f82011682018060405250611af29190810190612c17565b73ffffffffffffffffffffffffffffffffffffffff1663485ff697836040518263ffffffff167c0100000000000000000000000000000000000000000000000000000000028152600401611b469190612fdd565b60206040518083038186803b158015611b5e57600080fd5b505afa158015611b72573d6000803e3d6000fd5b505050506040513d601f19601f82011682018060405250611b969190810190612c17565b92915050565b6000611b96826124d1565b600a54604080517f84987e83000000000000000000000000000000000000000000000000000000008152905160009273ffffffffffffffffffffffffffffffffffffffff16916384987e83916004808301926020929190829003018186803b158015611c1257600080fd5b505afa158015611c26573d6000803e3d6000fd5b505050506040513d601f19601f82011682018060405250611c4a9190810190612c17565b73ffffffffffffffffffffffffffffffffffffffff16637ecf2c2f84846040518363ffffffff167c0100000000000000000000000000000000000000000000000000000000028152600401611ca0929190613189565b60206040518083038186803b158015611cb857600080fd5b505afa158015611ccc573d6000803e3d6000fd5b505050506040513d601f19601f82011682018060405250610cc09190810190612da3565b600a54604080517f84987e83000000000000000000000000000000000000000000000000000000008152905160009273ffffffffffffffffffffffffffffffffffffffff16916384987e83916004808301926020929190829003018186803b158015611d5b57600080fd5b505afa158015611d6f573d6000803e3d6000fd5b505050506040513d601f19601f82011682018060405250611d939190810190612c17565b73ffffffffffffffffffffffffffffffffffffffff16635b28556d6040518163ffffffff167c010000000000000000000000000000000000000000000000000000000002815260040160206040518083038186803b158015611a1757600080fd5b600d5460009073ffffffffffffffffffffffffffffffffffffffff1615611ec657600d546040517fd88c271e00000000000000000000000000000000000000000000000000000000815273ffffffffffffffffffffffffffffffffffffffff9091169063d88c271e90611e6b908590600401612fdd565b60206040518083038186803b158015611e8357600080fd5b505afa158015611e97573d6000803e3d6000fd5b505050506040513d601f19601f82011682018060405250611ebb9190810190612da3565b1515611ec657600080fd5b600080600080611ed46124d8565b92965090945092509050611ee781612559565b611ef386828585612812565b600554611f00908561293b565b60055550600195945050505050565b6000611f19612958565b73ffffffffffffffffffffffffffffffffffffffff1663802af84087878787876040518663ffffffff167c0100000000000000000000000000000000000000000000000000000000028152600401611f759594939291906131f6565b60206040518083038186803b158015611f8d57600080fd5b505afa158015611fa1573d6000803e3d6000fd5b505050506040513d601f19601f82011682018060405250611fc59190810190612da3565b90505b95945050505050565b6000806000806000612710611feb876002600601546129c3565b811515611ff457fe5b049050606461200882600a600501546129c3565b81151561201157fe5b0494508461201f8286612401565b94508461202c8884612401565b945084620f4240612042876002600401546129c3565b81151561204b57fe5b939a929950909750909104945092505050565b60028054604080516020601f7fffffffffffffffffffffffffffffffffffffffffffffffffffffffffffffffff61010060018716150201909416859004938401819004810282018101909252828152606093909290918301828280156121055780601f106120da57610100808354040283529160200191612105565b820191906000526020600020905b8154815290600101906020018083116120e857829003601f168201915b505060038054604080516020601f60027fffffffffffffffffffffffffffffffffffffffffffffffffffffffffffffffff6101006001881615020190951694909404938401819004810282018101909252828152969750606096955091935091508301828280156121b75780601f1061218c576101008083540402835291602001916121b7565b820191906000526020600020905b81548152906001019060200180831161219a57829003601f168201915b5050600a54604080517f26c7a0de000000000000000000000000000000000000000000000000000000008152905195965073ffffffffffffffffffffffffffffffffffffffff90911694600094508593506326c7a0de92506004808301926020929190829003018186803b15801561222e57600080fd5b505afa158015612242573d6000803e3d6000fd5b505050506040513d601f19601f820116820180604052506122669190810190612c17565b6040517f2ec5761200000000000000000000000000000000000000000000000000000000815290915073ffffffffffffffffffffffffffffffffffffffff821690632ec57612906122c590339030908b908b908b908b9060040161307e565b602060405180830381600087803b1580156122df57600080fd5b505af11580156122f3573d6000803e3d6000fd5b505050506040513d601f19601f820116820180604052506123179190810190612da3565b151561164b57600080fd5b73ffffffffffffffffffffffffffffffffffffffff84166000908152600160205260409020546123529084612401565b73ffffffffffffffffffffffffffffffffffffffff80861660009081526001602052604080822093909355600c5490911681522054612391908361293b565b600c5473ffffffffffffffffffffffffffffffffffffffff90811660009081526001602052604080822093909355600b54909116815220546123d3908261293b565b600b5473ffffffffffffffffffffffffffffffffffffffff1660009081526001602052604090205550505050565b60008282111561240d57fe5b50900390565b6040517f095ea7b300000000000000000000000000000000000000000000000000000000815260009073ffffffffffffffffffffffffffffffffffffffff84169063095ea7b39061246a908790869060040161313f565b602060405180830381600087803b15801561248457600080fd5b505af1158015612498573d6000803e3d6000fd5b505050506040513d601f19601f820116820180604052506124bc9190810190612da3565b15156124c757600080fd5b5060019392505050565b6020015190565b6000806000806124f2620f424034026002600501546129e4565b93506000612710612508866002600601546129c3565b81151561251157fe5b04905084606461252683600a600501546129c3565b81151561252f57fe5b0494508461253d8387612401565b94508461254a8885612401565b92989197509550909350915050565b60028054604080516020601f7fffffffffffffffffffffffffffffffffffffffffffffffffffffffffffffffff61010060018716150201909416859004938401819004810282018101909252828152606093909290918301828280156126005780601f106125d557610100808354040283529160200191612600565b820191906000526020600020905b8154815290600101906020018083116125e357829003601f168201915b505060038054604080516020601f60027fffffffffffffffffffffffffffffffffffffffffffffffffffffffffffffffff6101006001881615020190951694909404938401819004810282018101909252828152969750606096955091935091508301828280156126b25780601f10612687576101008083540402835291602001916126b2565b820191906000526020600020905b81548152906001019060200180831161269557829003601f168201915b5050600a54604080517f26c7a0de000000000000000000000000000000000000000000000000000000008152905195965073ffffffffffffffffffffffffffffffffffffffff90911694600094508593506326c7a0de92506004808301926020929190829003018186803b15801561272957600080fd5b505afa15801561273d573d6000803e3d6000fd5b505050506040513d601f19601f820116820180604052506127619190810190612c17565b6040517f2cc4e4b600000000000000000000000000000000000000000000000000000000815290915073ffffffffffffffffffffffffffffffffffffffff821690632cc4e4b6906127c0903390309034908b908b908b9060040161307e565b602060405180830381600087803b1580156127da57600080fd5b505af11580156127ee573d6000803e3d6000fd5b505050506040513d601f19601f8201168201806040525061186b9190810190612da3565b73ffffffffffffffffffffffffffffffffffffffff8416600090815260016020526040902054612842908461293b565b73ffffffffffffffffffffffffffffffffffffffff80861660009081526001602052604080822093909355600c5490911681522054612881908361293b565b600c5473ffffffffffffffffffffffffffffffffffffffff90811660009081526001602052604080822093909355600b54909116815220546128c3908261293b565b600b5473ffffffffffffffffffffffffffffffffffffffff908116600090815260016020526040808220939093556009549690911681522060020180547fffffffffffffffffffffffffffffffffffffffffffffffffffffffff000000001663ffffffff958616420190951694909417909355505050565b60008282018381108015906129505750828110155b1515610cc057fe5b600a54604080517fb74508d1000000000000000000000000000000000000000000000000000000008152905160009273ffffffffffffffffffffffffffffffffffffffff169163b74508d1916004808301926020929190829003018186803b158015611a1757600080fd5b600082820283158061295057508284828115156129dc57fe5b0414610cc057fe5b60008082116129ef57fe5b600082848115156129fc57fe5b0490508284811515612a0a57fe5b068184020184141515610cc057fe5b6000610cc082356132cf565b6000610cc082516132cf565b600080601f83018413612a4357600080fd5b50813567ffffffffffffffff811115612a5b57600080fd5b602083019150836020820283011115612a7357600080fd5b9250929050565b6000601f82018313612a8b57600080fd5b8135612a9e612a9982613264565b61323d565b81815260209384019390925082018360005b83811015612adc5781358601612ac68882612b9b565b8452506020928301929190910190600101612ab0565b5050505092915050565b6000610cc082356132da565b6000610cc082516132da565b6000610cc08235610ccb565b600080601f83018413612b1c57600080fd5b50813567ffffffffffffffff811115612b3457600080fd5b602083019150836001820283011115612a7357600080fd5b6000601f82018313612b5d57600080fd5b8135612b6b612a9982613285565b91508082526020830160208301858383011115612b8757600080fd5b612b92838284613337565b50505092915050565b600060208284031215612bad57600080fd5b612bb7602061323d565b9050813567ffffffffffffffff811115612bd057600080fd5b612bdc84828501612b4c565b82525092915050565b6000610cc0823561331d565b600060208284031215612c0357600080fd5b6000612c0f8484612a19565b949350505050565b600060208284031215612c2957600080fd5b6000612c0f8484612a25565b600080600060608486031215612c4a57600080fd5b6000612c568686612a19565b9350506020612c6786828701612a19565b9250506040612c7886828701612afe565b9150509250925092565b600080600080600060608688031215612c9a57600080fd5b6000612ca68888612a19565b955050602086013567ffffffffffffffff811115612cc357600080fd5b612ccf88828901612a31565b9450945050604086013567ffffffffffffffff811115612cee57600080fd5b612cfa88828901612a31565b92509250509295509295909350565b60008060408385031215612d1c57600080fd5b6000612d288585612a19565b925050602083013567ffffffffffffffff811115612d4557600080fd5b612d5185828601612a7a565b9150509250929050565b60008060408385031215612d6e57600080fd5b6000612d7a8585612a19565b925050602083013567ffffffffffffffff811115612d9757600080fd5b612d5185828601612b9b565b600060208284031215612db557600080fd5b6000612c0f8484612af2565b60008060408385031215612dd457600080fd5b6000612de08585612ae6565b9250506020612d5185828601612a19565b600080600060408486031215612e0657600080fd5b6000612e128686612afe565b935050602084013567ffffffffffffffff811115612e2f57600080fd5b612e3b86828701612b0a565b92509250509250925092565b600060208284031215612e5957600080fd5b6000612c0f8484612afe565b60008060008060008060a08789031215612e7e57600080fd5b6000612e8a8989612afe565b9650506020612e9b89828a01612afe565b9550506040612eac89828a01612afe565b9450506060612ebd89828a01612afe565b935050608087013567ffffffffffffffff811115612eda57600080fd5b612ee689828a01612b0a565b92509250509295509295509295565b600060208284031215612f0757600080fd5b6000612c0f8484612be5565b612f1c81613326565b82525050565b612f1c816132cf565b612f1c816132da565b612f1c81610ccb565b612f1c816132df565b6000828452602084019350612f5c838584613337565b612f6583613373565b9093019392505050565b6000612f7a826132cb565b808452612f8e816020860160208601613343565b612f9781613373565b9093016020019392505050565b601281527f5245454e5452414e43595f494c4c4547414c0000000000000000000000000000602082015260400190565b612f1c8161331d565b60208101611b968284612f22565b60208101611b968284612f13565b606081016130078286612f13565b6130146020830185612f13565b612c0f6040830184612f22565b6060810161302f8286612f13565b61303c6020830185612f13565b612c0f6040830184612f34565b608081016130578287612f13565b6130646020830186612f13565b6130716040830185612f34565b611fc86060830184612f34565b60c0810161308c8289612f13565b6130996020830188612f13565b6130a66040830187612f34565b6130b36060830186612f34565b81810360808301526130c58185612f6f565b905081810360a08301526130d98184612f6f565b98975050505050505050565b60c081016130f38289612f22565b6131006020830188612f22565b61310d6040830187612f22565b61311a6060830186612f34565b6131276080830185612f34565b61313460a0830184612fd4565b979650505050505050565b6040810161314d8285612f22565b610cc06020830184612f34565b60208101611b968284612f2b565b604081016131768286612f34565b8181036020830152611fc8818486612f46565b604081016131978285612f3d565b610cc06020830184612f22565b608080825281016131b58187612f6f565b905081810360208301526131c98186612f6f565b90506130716040830185612f34565b60208082528101611b9681612fa4565b60208101611b968284612f34565b60a081016132048288612f34565b6132116020830187612f34565b61321e6040830186612f34565b61322b6060830185612f34565b81810360808301526131348184612f6f565b60405181810167ffffffffffffffff8111828210171561325c57600080fd5b604052919050565b600067ffffffffffffffff82111561327b57600080fd5b5060209081020190565b600067ffffffffffffffff82111561329c57600080fd5b506020601f919091017fffffffffffffffffffffffffffffffffffffffffffffffffffffffffffffffe0160190565b5190565b6000611b9682613304565b151590565b7fffffffff000000000000000000000000000000000000000000000000000000001690565b73ffffffffffffffffffffffffffffffffffffffff1690565b63ffffffff1690565b6000611b96826000611b96826132cf565b82818337506000910152565b60005b8381101561335e578181015183820152602001613346565b8381111561336d576000848401525b50505050565b601f017fffffffffffffffffffffffffffffffffffffffffffffffffffffffffffffffe0169056fea265627a7a723058205d3ac59f9284ed249a7a6ba1f0af0fa5625b4b6dab1a2b62514caf43ae3b682a6c6578706572696d656e74616cf50037",
				"opcodes": "PUSH1 0x80 PUSH1 0x40 MSTORE PUSH1 0x0 DUP1 SLOAD PUSH1 0xA0 PUSH1 0x2 EXP PUSH1 0xFF MUL NOT AND SWAP1 SSTORE CALLVALUE DUP1 ISZERO PUSH3 0x21 JUMPI PUSH1 0x0 DUP1 REVERT JUMPDEST POP PUSH1 0x40 MLOAD PUSH3 0x3741 CODESIZE SUB DUP1 PUSH3 0x3741 DUP4 CODECOPY DUP2 ADD DUP1 PUSH1 0x40 MSTORE PUSH3 0x47 SWAP2 SWAP1 DUP2 ADD SWAP1 PUSH3 0x20C JUMP JUMPDEST DUP5 MLOAD PUSH3 0x5C SWAP1 PUSH1 0x2 SWAP1 PUSH1 0x20 DUP9 ADD SWAP1 PUSH3 0xE8 JUMP JUMPDEST POP DUP4 MLOAD PUSH3 0x72 SWAP1 PUSH1 0x3 SWAP1 PUSH1 0x20 DUP8 ADD SWAP1 PUSH3 0xE8 JUMP JUMPDEST POP PUSH1 0x4 SWAP3 SWAP1 SWAP3 SSTORE PUSH8 0xDE0B6B3A7640000 PUSH1 0x6 DUP2 SWAP1 SSTORE PUSH1 0x7 SSTORE PUSH1 0x0 DUP1 SLOAD PUSH1 0x1 PUSH1 0xA0 PUSH1 0x2 EXP SUB SWAP3 DUP4 AND PUSH1 0x1 PUSH1 0xA0 PUSH1 0x2 EXP SUB NOT SWAP2 DUP3 AND DUP2 OR SWAP1 SWAP3 SSTORE PUSH1 0xA DUP1 SLOAD SWAP5 SWAP1 SWAP4 AND SWAP4 DUP2 AND SWAP4 SWAP1 SWAP4 OR SWAP1 SWAP2 SSTORE PUSH1 0xB DUP1 SLOAD DUP4 AND CALLER OR SWAP1 SSTORE PUSH7 0x38D7EA4C68000 PUSH1 0xE SSTORE PUSH1 0xC DUP1 SLOAD SWAP1 SWAP3 AND OR SWAP1 SSTORE POP POP PUSH1 0x50 PUSH1 0xF SSTORE PUSH3 0x35C JUMP JUMPDEST DUP3 DUP1 SLOAD PUSH1 0x1 DUP2 PUSH1 0x1 AND ISZERO PUSH2 0x100 MUL SUB AND PUSH1 0x2 SWAP1 DIV SWAP1 PUSH1 0x0 MSTORE PUSH1 0x20 PUSH1 0x0 KECCAK256 SWAP1 PUSH1 0x1F ADD PUSH1 0x20 SWAP1 DIV DUP2 ADD SWAP3 DUP3 PUSH1 0x1F LT PUSH3 0x12B JUMPI DUP1 MLOAD PUSH1 0xFF NOT AND DUP4 DUP1 ADD OR DUP6 SSTORE PUSH3 0x15B JUMP JUMPDEST DUP3 DUP1 ADD PUSH1 0x1 ADD DUP6 SSTORE DUP3 ISZERO PUSH3 0x15B JUMPI SWAP2 DUP3 ADD JUMPDEST DUP3 DUP2 GT ISZERO PUSH3 0x15B JUMPI DUP3 MLOAD DUP3 SSTORE SWAP2 PUSH1 0x20 ADD SWAP2 SWAP1 PUSH1 0x1 ADD SWAP1 PUSH3 0x13E JUMP JUMPDEST POP PUSH3 0x169 SWAP3 SWAP2 POP PUSH3 0x16D JUMP JUMPDEST POP SWAP1 JUMP JUMPDEST PUSH3 0x18A SWAP2 SWAP1 JUMPDEST DUP1 DUP3 GT ISZERO PUSH3 0x169 JUMPI PUSH1 0x0 DUP2 SSTORE PUSH1 0x1 ADD PUSH3 0x174 JUMP JUMPDEST SWAP1 JUMP JUMPDEST PUSH1 0x0 PUSH3 0x19B DUP3 MLOAD PUSH3 0x316 JUMP JUMPDEST SWAP4 SWAP3 POP POP POP JUMP JUMPDEST PUSH1 0x0 PUSH1 0x1F DUP3 ADD DUP4 SGT PUSH3 0x1B4 JUMPI PUSH1 0x0 DUP1 REVERT JUMPDEST DUP2 MLOAD PUSH3 0x1CB PUSH3 0x1C5 DUP3 PUSH3 0x2E2 JUMP JUMPDEST PUSH3 0x2BB JUMP JUMPDEST SWAP2 POP DUP1 DUP3 MSTORE PUSH1 0x20 DUP4 ADD PUSH1 0x20 DUP4 ADD DUP6 DUP4 DUP4 ADD GT ISZERO PUSH3 0x1E8 JUMPI PUSH1 0x0 DUP1 REVERT JUMPDEST PUSH3 0x1F5 DUP4 DUP3 DUP5 PUSH3 0x329 JUMP JUMPDEST POP POP POP SWAP3 SWAP2 POP POP JUMP JUMPDEST PUSH1 0x0 PUSH3 0x19B DUP3 MLOAD PUSH3 0x18A JUMP JUMPDEST PUSH1 0x0 DUP1 PUSH1 0x0 DUP1 PUSH1 0x0 PUSH1 0xA0 DUP7 DUP9 SUB SLT ISZERO PUSH3 0x225 JUMPI PUSH1 0x0 DUP1 REVERT JUMPDEST DUP6 MLOAD PUSH1 0x1 PUSH1 0x40 PUSH1 0x2 EXP SUB DUP2 GT ISZERO PUSH3 0x23C JUMPI PUSH1 0x0 DUP1 REVERT JUMPDEST PUSH3 0x24A DUP9 DUP3 DUP10 ADD PUSH3 0x1A2 JUMP JUMPDEST SWAP6 POP POP PUSH1 0x20 DUP7 ADD MLOAD PUSH1 0x1 PUSH1 0x40 PUSH1 0x2 EXP SUB DUP2 GT ISZERO PUSH3 0x267 JUMPI PUSH1 0x0 DUP1 REVERT JUMPDEST PUSH3 0x275 DUP9 DUP3 DUP10 ADD PUSH3 0x1A2 JUMP JUMPDEST SWAP5 POP POP PUSH1 0x40 PUSH3 0x288 DUP9 DUP3 DUP10 ADD PUSH3 0x1FE JUMP JUMPDEST SWAP4 POP POP PUSH1 0x60 PUSH3 0x29B DUP9 DUP3 DUP10 ADD PUSH3 0x18D JUMP JUMPDEST SWAP3 POP POP PUSH1 0x80 PUSH3 0x2AE DUP9 DUP3 DUP10 ADD PUSH3 0x18D JUMP JUMPDEST SWAP2 POP POP SWAP3 SWAP6 POP SWAP3 SWAP6 SWAP1 SWAP4 POP JUMP JUMPDEST PUSH1 0x40 MLOAD DUP2 DUP2 ADD PUSH1 0x1 PUSH1 0x40 PUSH1 0x2 EXP SUB DUP2 GT DUP3 DUP3 LT OR ISZERO PUSH3 0x2DA JUMPI PUSH1 0x0 DUP1 REVERT JUMPDEST PUSH1 0x40 MSTORE SWAP2 SWAP1 POP JUMP JUMPDEST PUSH1 0x0 PUSH1 0x1 PUSH1 0x40 PUSH1 0x2 EXP SUB DUP3 GT ISZERO PUSH3 0x2F9 JUMPI PUSH1 0x0 DUP1 REVERT JUMPDEST POP PUSH1 0x20 PUSH1 0x1F SWAP2 SWAP1 SWAP2 ADD PUSH1 0x1F NOT AND ADD SWAP1 JUMP JUMPDEST PUSH1 0x1 PUSH1 0xA0 PUSH1 0x2 EXP SUB AND SWAP1 JUMP JUMPDEST PUSH1 0x0 PUSH3 0x323 DUP3 PUSH3 0x30A JUMP JUMPDEST SWAP3 SWAP2 POP POP JUMP JUMPDEST PUSH1 0x0 JUMPDEST DUP4 DUP2 LT ISZERO PUSH3 0x346 JUMPI DUP2 DUP2 ADD MLOAD DUP4 DUP3 ADD MSTORE PUSH1 0x20 ADD PUSH3 0x32C JUMP JUMPDEST DUP4 DUP2 GT ISZERO PUSH3 0x356 JUMPI PUSH1 0x0 DUP5 DUP5 ADD MSTORE JUMPDEST POP POP POP POP JUMP JUMPDEST PUSH2 0x33D5 DUP1 PUSH3 0x36C PUSH1 0x0 CODECOPY PUSH1 0x0 RETURN INVALID PUSH1 0x80 PUSH1 0x40 MSTORE PUSH1 0x4 CALLDATASIZE LT PUSH2 0x148 JUMPI PUSH4 0xFFFFFFFF PUSH29 0x100000000000000000000000000000000000000000000000000000000 PUSH1 0x0 CALLDATALOAD DIV AND PUSH4 0x1E6E549 DUP2 EQ PUSH2 0x156 JUMPI DUP1 PUSH4 0x96A8AB7 EQ PUSH2 0x176 JUMPI DUP1 PUSH4 0xE91206B EQ PUSH2 0x196 JUMPI DUP1 PUSH4 0x1118069C EQ PUSH2 0x1CC JUMPI DUP1 PUSH4 0x13AF4035 EQ PUSH2 0x1EC JUMPI DUP1 PUSH4 0x1626BA7E EQ PUSH2 0x20C JUMPI DUP1 PUSH4 0x18160DDD EQ PUSH2 0x22C JUMPI DUP1 PUSH4 0x2FBBDE2D EQ PUSH2 0x24E JUMPI DUP1 PUSH4 0x30958A98 EQ PUSH2 0x256 JUMPI DUP1 PUSH4 0x3BC5DE30 EQ PUSH2 0x276 JUMPI DUP1 PUSH4 0x54BDBD4D EQ PUSH2 0x29B JUMPI DUP1 PUSH4 0x54EA1538 EQ PUSH2 0x2BB JUMPI DUP1 PUSH4 0x6854F668 EQ PUSH2 0x2DB JUMPI DUP1 PUSH4 0x70A08231 EQ PUSH2 0x2EE JUMPI DUP1 PUSH4 0x837929B6 EQ PUSH2 0x30E JUMPI DUP1 PUSH4 0x8DA5CB5B EQ PUSH2 0x330 JUMPI DUP1 PUSH4 0x8F7A844B EQ PUSH2 0x345 JUMPI DUP1 PUSH4 0x9245290D EQ PUSH2 0x36C JUMPI DUP1 PUSH4 0x9489FA84 EQ PUSH2 0x38C JUMPI DUP1 PUSH4 0xC112C713 EQ PUSH2 0x3A1 JUMPI DUP1 PUSH4 0xC67F72E1 EQ PUSH2 0x3B6 JUMPI DUP1 PUSH4 0xC8C3B926 EQ PUSH2 0x3D6 JUMPI DUP1 PUSH4 0xDA46098C EQ PUSH2 0x3F6 JUMPI DUP1 PUSH4 0xE4E985A8 EQ PUSH2 0x416 JUMPI DUP1 PUSH4 0xF6A33253 EQ PUSH2 0x42B JUMPI JUMPDEST CALLVALUE ISZERO ISZERO PUSH2 0x154 JUMPI PUSH1 0x0 DUP1 REVERT JUMPDEST STOP JUMPDEST CALLVALUE DUP1 ISZERO PUSH2 0x162 JUMPI PUSH1 0x0 DUP1 REVERT JUMPDEST POP PUSH2 0x154 PUSH2 0x171 CALLDATASIZE PUSH1 0x4 PUSH2 0x2D09 JUMP JUMPDEST PUSH2 0x44B JUMP JUMPDEST CALLVALUE DUP1 ISZERO PUSH2 0x182 JUMPI PUSH1 0x0 DUP1 REVERT JUMPDEST POP PUSH2 0x154 PUSH2 0x191 CALLDATASIZE PUSH1 0x4 PUSH2 0x2E47 JUMP JUMPDEST PUSH2 0x6E6 JUMP JUMPDEST CALLVALUE DUP1 ISZERO PUSH2 0x1A2 JUMPI PUSH1 0x0 DUP1 REVERT JUMPDEST POP PUSH2 0x1B6 PUSH2 0x1B1 CALLDATASIZE PUSH1 0x4 PUSH2 0x2D5B JUMP JUMPDEST PUSH2 0x7DE JUMP JUMPDEST PUSH1 0x40 MLOAD PUSH2 0x1C3 SWAP2 SWAP1 PUSH2 0x315A JUMP JUMPDEST PUSH1 0x40 MLOAD DUP1 SWAP2 SUB SWAP1 RETURN JUMPDEST CALLVALUE DUP1 ISZERO PUSH2 0x1D8 JUMPI PUSH1 0x0 DUP1 REVERT JUMPDEST POP PUSH2 0x154 PUSH2 0x1E7 CALLDATASIZE PUSH1 0x4 PUSH2 0x2DC1 JUMP JUMPDEST PUSH2 0xAA7 JUMP JUMPDEST CALLVALUE DUP1 ISZERO PUSH2 0x1F8 JUMPI PUSH1 0x0 DUP1 REVERT JUMPDEST POP PUSH2 0x154 PUSH2 0x207 CALLDATASIZE PUSH1 0x4 PUSH2 0x2BF1 JUMP JUMPDEST PUSH2 0xB52 JUMP JUMPDEST CALLVALUE DUP1 ISZERO PUSH2 0x218 JUMPI PUSH1 0x0 DUP1 REVERT JUMPDEST POP PUSH2 0x1B6 PUSH2 0x227 CALLDATASIZE PUSH1 0x4 PUSH2 0x2DF1 JUMP JUMPDEST PUSH2 0xC0B JUMP JUMPDEST CALLVALUE DUP1 ISZERO PUSH2 0x238 JUMPI PUSH1 0x0 DUP1 REVERT JUMPDEST POP PUSH2 0x241 PUSH2 0xCC7 JUMP JUMPDEST PUSH1 0x40 MLOAD PUSH2 0x1C3 SWAP2 SWAP1 PUSH2 0x31E8 JUMP JUMPDEST PUSH2 0x1B6 PUSH2 0xCCE JUMP JUMPDEST CALLVALUE DUP1 ISZERO PUSH2 0x262 JUMPI PUSH1 0x0 DUP1 REVERT JUMPDEST POP PUSH2 0x154 PUSH2 0x271 CALLDATASIZE PUSH1 0x4 PUSH2 0x2E65 JUMP JUMPDEST PUSH2 0xCFE JUMP JUMPDEST CALLVALUE DUP1 ISZERO PUSH2 0x282 JUMPI PUSH1 0x0 DUP1 REVERT JUMPDEST POP PUSH2 0x28B PUSH2 0xFF1 JUMP JUMPDEST PUSH1 0x40 MLOAD PUSH2 0x1C3 SWAP5 SWAP4 SWAP3 SWAP2 SWAP1 PUSH2 0x31A4 JUMP JUMPDEST CALLVALUE DUP1 ISZERO PUSH2 0x2A7 JUMPI PUSH1 0x0 DUP1 REVERT JUMPDEST POP PUSH2 0x154 PUSH2 0x2B6 CALLDATASIZE PUSH1 0x4 PUSH2 0x2EF5 JUMP JUMPDEST PUSH2 0x1164 JUMP JUMPDEST CALLVALUE DUP1 ISZERO PUSH2 0x2C7 JUMPI PUSH1 0x0 DUP1 REVERT JUMPDEST POP PUSH2 0x1B6 PUSH2 0x2D6 CALLDATASIZE PUSH1 0x4 PUSH2 0x2E47 JUMP JUMPDEST PUSH2 0x11BF JUMP JUMPDEST PUSH2 0x1B6 PUSH2 0x2E9 CALLDATASIZE PUSH1 0x4 PUSH2 0x2BF1 JUMP JUMPDEST PUSH2 0x1356 JUMP JUMPDEST CALLVALUE DUP1 ISZERO PUSH2 0x2FA JUMPI PUSH1 0x0 DUP1 REVERT JUMPDEST POP PUSH2 0x241 PUSH2 0x309 CALLDATASIZE PUSH1 0x4 PUSH2 0x2BF1 JUMP JUMPDEST PUSH2 0x1387 JUMP JUMPDEST CALLVALUE DUP1 ISZERO PUSH2 0x31A JUMPI PUSH1 0x0 DUP1 REVERT JUMPDEST POP PUSH2 0x323 PUSH2 0x13AF JUMP JUMPDEST PUSH1 0x40 MLOAD PUSH2 0x1C3 SWAP2 SWAP1 PUSH2 0x2FDD JUMP JUMPDEST CALLVALUE DUP1 ISZERO PUSH2 0x33C JUMPI PUSH1 0x0 DUP1 REVERT JUMPDEST POP PUSH2 0x323 PUSH2 0x145B JUMP JUMPDEST CALLVALUE DUP1 ISZERO PUSH2 0x351 JUMPI PUSH1 0x0 DUP1 REVERT JUMPDEST POP PUSH2 0x35A PUSH2 0x1477 JUMP JUMPDEST PUSH1 0x40 MLOAD PUSH2 0x1C3 SWAP7 SWAP6 SWAP5 SWAP4 SWAP3 SWAP2 SWAP1 PUSH2 0x30E5 JUMP JUMPDEST CALLVALUE DUP1 ISZERO PUSH2 0x378 JUMPI PUSH1 0x0 DUP1 REVERT JUMPDEST POP PUSH2 0x154 PUSH2 0x387 CALLDATASIZE PUSH1 0x4 PUSH2 0x2BF1 JUMP JUMPDEST PUSH2 0x14B9 JUMP JUMPDEST CALLVALUE DUP1 ISZERO PUSH2 0x398 JUMPI PUSH1 0x0 DUP1 REVERT JUMPDEST POP PUSH2 0x241 PUSH2 0x15DB JUMP JUMPDEST CALLVALUE DUP1 ISZERO PUSH2 0x3AD JUMPI PUSH1 0x0 DUP1 REVERT JUMPDEST POP PUSH2 0x323 PUSH2 0x15E1 JUMP JUMPDEST CALLVALUE DUP1 ISZERO PUSH2 0x3C2 JUMPI PUSH1 0x0 DUP1 REVERT JUMPDEST POP PUSH2 0x154 PUSH2 0x3D1 CALLDATASIZE PUSH1 0x4 PUSH2 0x2C82 JUMP JUMPDEST PUSH2 0x15F0 JUMP JUMPDEST CALLVALUE DUP1 ISZERO PUSH2 0x3E2 JUMPI PUSH1 0x0 DUP1 REVERT JUMPDEST POP PUSH2 0x154 PUSH2 0x3F1 CALLDATASIZE PUSH1 0x4 PUSH2 0x2BF1 JUMP JUMPDEST PUSH2 0x1653 JUMP JUMPDEST CALLVALUE DUP1 ISZERO PUSH2 0x402 JUMPI PUSH1 0x0 DUP1 REVERT JUMPDEST POP PUSH2 0x154 PUSH2 0x411 CALLDATASIZE PUSH1 0x4 PUSH2 0x2C35 JUMP JUMPDEST PUSH2 0x177F JUMP JUMPDEST CALLVALUE DUP1 ISZERO PUSH2 0x422 JUMPI PUSH1 0x0 DUP1 REVERT JUMPDEST POP PUSH2 0x323 PUSH2 0x187D JUMP JUMPDEST CALLVALUE DUP1 ISZERO PUSH2 0x437 JUMPI PUSH1 0x0 DUP1 REVERT JUMPDEST POP PUSH2 0x154 PUSH2 0x446 CALLDATASIZE PUSH1 0x4 PUSH2 0x2E47 JUMP JUMPDEST PUSH2 0x18C2 JUMP JUMPDEST PUSH1 0x0 SLOAD PUSH20 0xFFFFFFFFFFFFFFFFFFFFFFFFFFFFFFFFFFFFFFFF AND CALLER EQ PUSH2 0x46F JUMPI PUSH1 0x0 DUP1 REVERT JUMPDEST PUSH1 0x0 SLOAD PUSH21 0x10000000000000000000000000000000000000000 SWAP1 DIV PUSH1 0xFF AND ISZERO PUSH2 0x4CD JUMPI PUSH1 0x40 MLOAD PUSH32 0x8C379A000000000000000000000000000000000000000000000000000000000 DUP2 MSTORE PUSH1 0x4 ADD PUSH2 0x4C4 SWAP1 PUSH2 0x31D8 JUMP JUMPDEST PUSH1 0x40 MLOAD DUP1 SWAP2 SUB SWAP1 REVERT JUMPDEST PUSH1 0x0 DUP1 SLOAD PUSH32 0xFFFFFFFFFFFFFFFFFFFFFF00FFFFFFFFFFFFFFFFFFFFFFFFFFFFFFFFFFFFFFFF AND PUSH21 0x10000000000000000000000000000000000000000 OR DUP2 SSTORE DUP3 SWAP1 PUSH2 0x516 PUSH2 0x19AC JUMP JUMPDEST PUSH20 0xFFFFFFFFFFFFFFFFFFFFFFFFFFFFFFFFFFFFFFFF AND PUSH4 0x9AA4D0A0 DUP4 PUSH1 0x40 MLOAD DUP3 PUSH4 0xFFFFFFFF AND PUSH29 0x100000000000000000000000000000000000000000000000000000000 MUL DUP2 MSTORE PUSH1 0x4 ADD PUSH2 0x56A SWAP2 SWAP1 PUSH2 0x2FDD JUMP JUMPDEST PUSH1 0x20 PUSH1 0x40 MLOAD DUP1 DUP4 SUB DUP2 DUP7 DUP1 EXTCODESIZE ISZERO DUP1 ISZERO PUSH2 0x582 JUMPI PUSH1 0x0 DUP1 REVERT JUMPDEST POP GAS STATICCALL ISZERO DUP1 ISZERO PUSH2 0x596 JUMPI RETURNDATASIZE PUSH1 0x0 DUP1 RETURNDATACOPY RETURNDATASIZE PUSH1 0x0 REVERT JUMPDEST POP POP POP POP PUSH1 0x40 MLOAD RETURNDATASIZE PUSH1 0x1F NOT PUSH1 0x1F DUP3 ADD AND DUP3 ADD DUP1 PUSH1 0x40 MSTORE POP PUSH2 0x5BA SWAP2 SWAP1 DUP2 ADD SWAP1 PUSH2 0x2DA3 JUMP JUMPDEST SWAP1 POP PUSH1 0x0 PUSH2 0x5C6 PUSH2 0x19AC JUMP JUMPDEST PUSH20 0xFFFFFFFFFFFFFFFFFFFFFFFFFFFFFFFFFFFFFFFF AND PUSH4 0xF3229CDA DUP5 PUSH1 0x40 MLOAD DUP3 PUSH4 0xFFFFFFFF AND PUSH29 0x100000000000000000000000000000000000000000000000000000000 MUL DUP2 MSTORE PUSH1 0x4 ADD PUSH2 0x61A SWAP2 SWAP1 PUSH2 0x2FDD JUMP JUMPDEST PUSH1 0x20 PUSH1 0x40 MLOAD DUP1 DUP4 SUB DUP2 DUP7 DUP1 EXTCODESIZE ISZERO DUP1 ISZERO PUSH2 0x632 JUMPI PUSH1 0x0 DUP1 REVERT JUMPDEST POP GAS STATICCALL ISZERO DUP1 ISZERO PUSH2 0x646 JUMPI RETURNDATASIZE PUSH1 0x0 DUP1 RETURNDATACOPY RETURNDATASIZE PUSH1 0x0 REVERT JUMPDEST POP POP POP POP PUSH1 0x40 MLOAD RETURNDATASIZE PUSH1 0x1F NOT PUSH1 0x1F DUP3 ADD AND DUP3 ADD DUP1 PUSH1 0x40 MSTORE POP PUSH2 0x66A SWAP2 SWAP1 DUP2 ADD SWAP1 PUSH2 0x2DA3 JUMP JUMPDEST SWAP1 POP DUP1 DUP1 PUSH2 0x675 JUMPI POP DUP2 JUMPDEST ISZERO ISZERO PUSH2 0x680 JUMPI PUSH1 0x0 DUP1 REVERT JUMPDEST PUSH1 0x0 JUMPDEST DUP5 MLOAD DUP2 LT ISZERO PUSH2 0x6B6 JUMPI PUSH2 0x6AD DUP7 DUP7 DUP4 DUP2 MLOAD DUP2 LT ISZERO ISZERO PUSH2 0x69E JUMPI INVALID JUMPDEST SWAP1 PUSH1 0x20 ADD SWAP1 PUSH1 0x20 MUL ADD MLOAD PUSH2 0x7DE JUMP JUMPDEST POP PUSH1 0x1 ADD PUSH2 0x683 JUMP JUMPDEST POP POP PUSH1 0x0 DUP1 SLOAD PUSH32 0xFFFFFFFFFFFFFFFFFFFFFF00FFFFFFFFFFFFFFFFFFFFFFFFFFFFFFFFFFFFFFFF AND SWAP1 SSTORE POP POP POP POP JUMP JUMPDEST PUSH1 0x0 SLOAD PUSH20 0xFFFFFFFFFFFFFFFFFFFFFFFFFFFFFFFFFFFFFFFF AND CALLER EQ PUSH2 0x70A JUMPI PUSH1 0x0 DUP1 REVERT JUMPDEST PUSH1 0x64 DUP2 GT ISZERO PUSH2 0x718 JUMPI PUSH1 0x0 DUP1 REVERT JUMPDEST PUSH1 0x0 PUSH2 0x722 PUSH2 0x13AF JUMP JUMPDEST PUSH1 0x40 MLOAD PUSH32 0xD5AAA73A00000000000000000000000000000000000000000000000000000000 DUP2 MSTORE SWAP1 SWAP2 POP PUSH20 0xFFFFFFFFFFFFFFFFFFFFFFFFFFFFFFFFFFFFFFFF DUP3 AND SWAP1 PUSH4 0xD5AAA73A SWAP1 PUSH2 0x77B SWAP1 CALLER SWAP1 ADDRESS SWAP1 DUP8 SWAP1 PUSH1 0x4 ADD PUSH2 0x3021 JUMP JUMPDEST PUSH1 0x20 PUSH1 0x40 MLOAD DUP1 DUP4 SUB DUP2 PUSH1 0x0 DUP8 DUP1 EXTCODESIZE ISZERO DUP1 ISZERO PUSH2 0x795 JUMPI PUSH1 0x0 DUP1 REVERT JUMPDEST POP GAS CALL ISZERO DUP1 ISZERO PUSH2 0x7A9 JUMPI RETURNDATASIZE PUSH1 0x0 DUP1 RETURNDATACOPY RETURNDATASIZE PUSH1 0x0 REVERT JUMPDEST POP POP POP POP PUSH1 0x40 MLOAD RETURNDATASIZE PUSH1 0x1F NOT PUSH1 0x1F DUP3 ADD AND DUP3 ADD DUP1 PUSH1 0x40 MSTORE POP PUSH2 0x7CD SWAP2 SWAP1 DUP2 ADD SWAP1 PUSH2 0x2DA3 JUMP JUMPDEST ISZERO ISZERO PUSH2 0x7D8 JUMPI PUSH1 0x0 DUP1 REVERT JUMPDEST POP PUSH1 0x8 SSTORE JUMP JUMPDEST PUSH1 0x0 DUP1 SLOAD PUSH20 0xFFFFFFFFFFFFFFFFFFFFFFFFFFFFFFFFFFFFFFFF AND CALLER EQ PUSH2 0x803 JUMPI PUSH1 0x0 DUP1 REVERT JUMPDEST PUSH1 0x0 SLOAD PUSH21 0x10000000000000000000000000000000000000000 SWAP1 DIV PUSH1 0xFF AND ISZERO PUSH2 0x858 JUMPI PUSH1 0x40 MLOAD PUSH32 0x8C379A000000000000000000000000000000000000000000000000000000000 DUP2 MSTORE PUSH1 0x4 ADD PUSH2 0x4C4 SWAP1 PUSH2 0x31D8 JUMP JUMPDEST PUSH1 0x0 DUP1 SLOAD PUSH32 0xFFFFFFFFFFFFFFFFFFFFFF00FFFFFFFFFFFFFFFFFFFFFFFFFFFFFFFFFFFFFFFF AND PUSH21 0x10000000000000000000000000000000000000000 OR DUP2 SSTORE DUP4 SWAP1 PUSH2 0x8A1 PUSH2 0x19AC JUMP JUMPDEST PUSH20 0xFFFFFFFFFFFFFFFFFFFFFFFFFFFFFFFFFFFFFFFF AND PUSH4 0x9AA4D0A0 DUP4 PUSH1 0x40 MLOAD DUP3 PUSH4 0xFFFFFFFF AND PUSH29 0x100000000000000000000000000000000000000000000000000000000 MUL DUP2 MSTORE PUSH1 0x4 ADD PUSH2 0x8F5 SWAP2 SWAP1 PUSH2 0x2FDD JUMP JUMPDEST PUSH1 0x20 PUSH1 0x40 MLOAD DUP1 DUP4 SUB DUP2 DUP7 DUP1 EXTCODESIZE ISZERO DUP1 ISZERO PUSH2 0x90D JUMPI PUSH1 0x0 DUP1 REVERT JUMPDEST POP GAS STATICCALL ISZERO DUP1 ISZERO PUSH2 0x921 JUMPI RETURNDATASIZE PUSH1 0x0 DUP1 RETURNDATACOPY RETURNDATASIZE PUSH1 0x0 REVERT JUMPDEST POP POP POP POP PUSH1 0x40 MLOAD RETURNDATASIZE PUSH1 0x1F NOT PUSH1 0x1F DUP3 ADD AND DUP3 ADD DUP1 PUSH1 0x40 MSTORE POP PUSH2 0x945 SWAP2 SWAP1 DUP2 ADD SWAP1 PUSH2 0x2DA3 JUMP JUMPDEST SWAP1 POP PUSH1 0x0 PUSH2 0x951 PUSH2 0x19AC JUMP JUMPDEST PUSH20 0xFFFFFFFFFFFFFFFFFFFFFFFFFFFFFFFFFFFFFFFF AND PUSH4 0xF3229CDA DUP5 PUSH1 0x40 MLOAD DUP3 PUSH4 0xFFFFFFFF AND PUSH29 0x100000000000000000000000000000000000000000000000000000000 MUL DUP2 MSTORE PUSH1 0x4 ADD PUSH2 0x9A5 SWAP2 SWAP1 PUSH2 0x2FDD JUMP JUMPDEST PUSH1 0x20 PUSH1 0x40 MLOAD DUP1 DUP4 SUB DUP2 DUP7 DUP1 EXTCODESIZE ISZERO DUP1 ISZERO PUSH2 0x9BD JUMPI PUSH1 0x0 DUP1 REVERT JUMPDEST POP GAS STATICCALL ISZERO DUP1 ISZERO PUSH2 0x9D1 JUMPI RETURNDATASIZE PUSH1 0x0 DUP1 RETURNDATACOPY RETURNDATASIZE PUSH1 0x0 REVERT JUMPDEST POP POP POP POP PUSH1 0x40 MLOAD RETURNDATASIZE PUSH1 0x1F NOT PUSH1 0x1F DUP3 ADD AND DUP3 ADD DUP1 PUSH1 0x40 MSTORE POP PUSH2 0x9F5 SWAP2 SWAP1 DUP2 ADD SWAP1 PUSH2 0x2DA3 JUMP JUMPDEST SWAP1 POP DUP1 DUP1 PUSH2 0xA00 JUMPI POP DUP2 JUMPDEST ISZERO ISZERO PUSH2 0xA0B JUMPI PUSH1 0x0 DUP1 REVERT JUMPDEST PUSH1 0x0 PUSH2 0xA16 DUP8 PUSH2 0x1A4F JUMP JUMPDEST DUP7 MLOAD SWAP1 SWAP2 POP PUSH2 0xA2D PUSH2 0xA27 DUP3 PUSH2 0x1B9C JUMP JUMPDEST DUP4 PUSH2 0x1BA7 JUMP JUMPDEST ISZERO ISZERO PUSH2 0xA38 JUMPI PUSH1 0x0 DUP1 REVERT JUMPDEST PUSH1 0x60 PUSH1 0x0 PUSH1 0x1 SWAP1 POP PUSH1 0x20 PUSH1 0x0 DUP5 MLOAD PUSH1 0x20 DUP7 ADD DUP8 PUSH2 0x1388 GAS SUB DELEGATECALL PUSH1 0x0 MLOAD SWAP3 POP DUP1 ISZERO SWAP2 POP DUP2 PUSH1 0x1 DUP2 EQ PUSH2 0xA68 JUMPI PUSH2 0xA6D JUMP JUMPDEST PUSH1 0x0 DUP1 REVERT JUMPDEST POP POP PUSH1 0x0 DUP1 SLOAD PUSH32 0xFFFFFFFFFFFFFFFFFFFFFF00FFFFFFFFFFFFFFFFFFFFFFFFFFFFFFFFFFFFFFFF AND SWAP1 SSTORE POP PUSH1 0x1 SWAP10 SWAP9 POP POP POP POP POP POP POP POP POP JUMP JUMPDEST PUSH1 0x0 SLOAD PUSH20 0xFFFFFFFFFFFFFFFFFFFFFFFFFFFFFFFFFFFFFFFF AND CALLER EQ PUSH2 0xACB JUMPI PUSH1 0x0 DUP1 REVERT JUMPDEST PUSH1 0xD DUP1 SLOAD PUSH32 0xFFFFFFFFFFFFFFFFFFFFFF00FFFFFFFFFFFFFFFFFFFFFFFFFFFFFFFFFFFFFFFF AND PUSH21 0x10000000000000000000000000000000000000000 SWAP4 ISZERO ISZERO SWAP4 SWAP1 SWAP4 MUL SWAP3 SWAP1 SWAP3 OR PUSH32 0xFFFFFFFFFFFFFFFFFFFFFFFF0000000000000000000000000000000000000000 AND PUSH20 0xFFFFFFFFFFFFFFFFFFFFFFFFFFFFFFFFFFFFFFFF SWAP2 SWAP1 SWAP2 AND OR SWAP1 SSTORE JUMP JUMPDEST PUSH1 0x0 SLOAD PUSH20 0xFFFFFFFFFFFFFFFFFFFFFFFFFFFFFFFFFFFFFFFF AND CALLER EQ PUSH2 0xB76 JUMPI PUSH1 0x0 DUP1 REVERT JUMPDEST PUSH20 0xFFFFFFFFFFFFFFFFFFFFFFFFFFFFFFFFFFFFFFFF DUP2 AND ISZERO ISZERO PUSH2 0xB98 JUMPI PUSH1 0x0 DUP1 REVERT JUMPDEST PUSH1 0x0 DUP1 SLOAD PUSH32 0xFFFFFFFFFFFFFFFFFFFFFFFF0000000000000000000000000000000000000000 AND PUSH20 0xFFFFFFFFFFFFFFFFFFFFFFFFFFFFFFFFFFFFFFFF DUP4 DUP2 AND SWAP2 DUP3 OR DUP1 DUP5 SSTORE PUSH1 0x40 MLOAD SWAP3 SWAP4 SWAP2 AND SWAP2 PUSH32 0x70AEA8D848E8A90FB7661B227DC522EB6395C3DAC71B63CB59EDD5C9899B2364 SWAP2 SWAP1 LOG3 POP JUMP JUMPDEST PUSH1 0x0 PUSH2 0xC15 PUSH2 0x1CF0 JUMP JUMPDEST PUSH20 0xFFFFFFFFFFFFFFFFFFFFFFFFFFFFFFFFFFFFFFFF AND PUSH4 0x1626BA7E DUP6 DUP6 DUP6 PUSH1 0x40 MLOAD DUP5 PUSH4 0xFFFFFFFF AND PUSH29 0x100000000000000000000000000000000000000000000000000000000 MUL DUP2 MSTORE PUSH1 0x4 ADD PUSH2 0xC6D SWAP4 SWAP3 SWAP2 SWAP1 PUSH2 0x3168 JUMP JUMPDEST PUSH1 0x20 PUSH1 0x40 MLOAD DUP1 DUP4 SUB DUP2 DUP7 DUP1 EXTCODESIZE ISZERO DUP1 ISZERO PUSH2 0xC85 JUMPI PUSH1 0x0 DUP1 REVERT JUMPDEST POP GAS STATICCALL ISZERO DUP1 ISZERO PUSH2 0xC99 JUMPI RETURNDATASIZE PUSH1 0x0 DUP1 RETURNDATACOPY RETURNDATASIZE PUSH1 0x0 REVERT JUMPDEST POP POP POP POP PUSH1 0x40 MLOAD RETURNDATASIZE PUSH1 0x1F NOT PUSH1 0x1F DUP3 ADD AND DUP3 ADD DUP1 PUSH1 0x40 MSTORE POP PUSH2 0xCBD SWAP2 SWAP1 DUP2 ADD SWAP1 PUSH2 0x2DA3 JUMP JUMPDEST SWAP1 POP JUMPDEST SWAP4 SWAP3 POP POP POP JUMP JUMPDEST PUSH1 0x5 SLOAD JUMPDEST SWAP1 JUMP JUMPDEST PUSH1 0xE SLOAD PUSH1 0x0 SWAP1 CALLVALUE SWAP1 DUP2 LT ISZERO PUSH2 0xCE2 JUMPI PUSH1 0x0 DUP1 REVERT JUMPDEST PUSH2 0xCEB CALLER PUSH2 0x1DF4 JUMP JUMPDEST ISZERO ISZERO PUSH2 0xCF6 JUMPI PUSH1 0x0 DUP1 REVERT JUMPDEST PUSH1 0x1 SWAP2 POP POP SWAP1 JUMP JUMPDEST PUSH1 0x0 SLOAD PUSH21 0x10000000000000000000000000000000000000000 SWAP1 DIV PUSH1 0xFF AND ISZERO PUSH2 0xD53 JUMPI PUSH1 0x40 MLOAD PUSH32 0x8C379A000000000000000000000000000000000000000000000000000000000 DUP2 MSTORE PUSH1 0x4 ADD PUSH2 0x4C4 SWAP1 PUSH2 0x31D8 JUMP JUMPDEST PUSH1 0x0 DUP1 SLOAD PUSH32 0xFFFFFFFFFFFFFFFFFFFFFF00FFFFFFFFFFFFFFFFFFFFFFFFFFFFFFFFFFFFFFFF AND PUSH21 0x10000000000000000000000000000000000000000 OR SWAP1 SSTORE PUSH1 0xA SLOAD PUSH1 0x40 MLOAD PUSH32 0x2330F24700000000000000000000000000000000000000000000000000000000 DUP2 MSTORE PUSH20 0xFFFFFFFFFFFFFFFFFFFFFFFFFFFFFFFFFFFFFFFF SWAP1 SWAP2 AND SWAP1 DUP2 SWAP1 PUSH4 0x2330F247 SWAP1 PUSH2 0xDEA SWAP1 CALLER SWAP1 PUSH1 0x4 ADD PUSH2 0x2FEB JUMP JUMPDEST PUSH1 0x20 PUSH1 0x40 MLOAD DUP1 DUP4 SUB DUP2 DUP7 DUP1 EXTCODESIZE ISZERO DUP1 ISZERO PUSH2 0xE02 JUMPI PUSH1 0x0 DUP1 REVERT JUMPDEST POP GAS STATICCALL ISZERO DUP1 ISZERO PUSH2 0xE16 JUMPI RETURNDATASIZE PUSH1 0x0 DUP1 RETURNDATACOPY RETURNDATASIZE PUSH1 0x0 REVERT JUMPDEST POP POP POP POP PUSH1 0x40 MLOAD RETURNDATASIZE PUSH1 0x1F NOT PUSH1 0x1F DUP3 ADD AND DUP3 ADD DUP1 PUSH1 0x40 MSTORE POP PUSH2 0xE3A SWAP2 SWAP1 DUP2 ADD SWAP1 PUSH2 0x2DA3 JUMP JUMPDEST DUP1 PUSH2 0xE5C JUMPI POP PUSH1 0x0 SLOAD PUSH20 0xFFFFFFFFFFFFFFFFFFFFFFFFFFFFFFFFFFFFFFFF AND CALLER EQ JUMPDEST ISZERO ISZERO PUSH2 0xE67 JUMPI PUSH1 0x0 DUP1 REVERT JUMPDEST DUP7 DUP7 DUP1 DUP3 GT ISZERO PUSH2 0xE76 JUMPI PUSH1 0x0 DUP1 REVERT JUMPDEST PUSH1 0x6 SLOAD DUP10 SWAP1 DUP10 SWAP1 PUSH1 0xA SWAP1 DIV DUP3 GT ISZERO DUP1 PUSH2 0xE94 JUMPI POP PUSH1 0x7 SLOAD PUSH1 0xA MUL DUP2 LT ISZERO JUMPDEST ISZERO PUSH2 0xE9E JUMPI PUSH2 0xFBC JUMP JUMPDEST PUSH2 0xEE1 DUP12 DUP12 DUP12 DUP12 DUP12 DUP12 DUP1 DUP1 PUSH1 0x1F ADD PUSH1 0x20 DUP1 SWAP2 DIV MUL PUSH1 0x20 ADD PUSH1 0x40 MLOAD SWAP1 DUP2 ADD PUSH1 0x40 MSTORE DUP1 SWAP4 SWAP3 SWAP2 SWAP1 DUP2 DUP2 MSTORE PUSH1 0x20 ADD DUP4 DUP4 DUP1 DUP3 DUP5 CALLDATACOPY PUSH1 0x0 SWAP3 ADD SWAP2 SWAP1 SWAP2 MSTORE POP PUSH2 0x1F0F SWAP3 POP POP POP JUMP JUMPDEST ISZERO ISZERO PUSH2 0xEEC JUMPI PUSH1 0x0 DUP1 REVERT JUMPDEST PUSH1 0x0 PUSH2 0xEF6 PUSH2 0x13AF JUMP JUMPDEST SWAP1 POP DUP1 PUSH20 0xFFFFFFFFFFFFFFFFFFFFFFFFFFFFFFFFFFFFFFFF AND PUSH4 0x554A7818 CALLER ADDRESS DUP16 DUP16 PUSH1 0x40 MLOAD DUP6 PUSH4 0xFFFFFFFF AND PUSH29 0x100000000000000000000000000000000000000000000000000000000 MUL DUP2 MSTORE PUSH1 0x4 ADD PUSH2 0xF53 SWAP5 SWAP4 SWAP3 SWAP2 SWAP1 PUSH2 0x3049 JUMP JUMPDEST PUSH1 0x20 PUSH1 0x40 MLOAD DUP1 DUP4 SUB DUP2 PUSH1 0x0 DUP8 DUP1 EXTCODESIZE ISZERO DUP1 ISZERO PUSH2 0xF6D JUMPI PUSH1 0x0 DUP1 REVERT JUMPDEST POP GAS CALL ISZERO DUP1 ISZERO PUSH2 0xF81 JUMPI RETURNDATASIZE PUSH1 0x0 DUP1 RETURNDATACOPY RETURNDATASIZE PUSH1 0x0 REVERT JUMPDEST POP POP POP POP PUSH1 0x40 MLOAD RETURNDATASIZE PUSH1 0x1F NOT PUSH1 0x1F DUP3 ADD AND DUP3 ADD DUP1 PUSH1 0x40 MSTORE POP PUSH2 0xFA5 SWAP2 SWAP1 DUP2 ADD SWAP1 PUSH2 0x2DA3 JUMP JUMPDEST ISZERO ISZERO PUSH2 0xFB0 JUMPI PUSH1 0x0 DUP1 REVERT JUMPDEST POP PUSH1 0x6 DUP12 SWAP1 SSTORE PUSH1 0x7 DUP11 SWAP1 SSTORE JUMPDEST POP POP PUSH1 0x0 DUP1 SLOAD PUSH32 0xFFFFFFFFFFFFFFFFFFFFFF00FFFFFFFFFFFFFFFFFFFFFFFFFFFFFFFFFFFFFFFF AND SWAP1 SSTORE POP POP POP POP POP POP POP POP POP JUMP JUMPDEST PUSH1 0x2 DUP1 SLOAD PUSH1 0x40 DUP1 MLOAD PUSH1 0x20 PUSH1 0x1 DUP5 AND ISZERO PUSH2 0x100 MUL PUSH32 0xFFFFFFFFFFFFFFFFFFFFFFFFFFFFFFFFFFFFFFFFFFFFFFFFFFFFFFFFFFFFFFFF ADD SWAP1 SWAP4 AND DUP5 SWAP1 DIV PUSH1 0x1F DUP2 ADD DUP5 SWAP1 DIV DUP5 MUL DUP3 ADD DUP5 ADD SWAP1 SWAP3 MSTORE DUP2 DUP2 MSTORE PUSH1 0x60 SWAP4 DUP5 SWAP4 PUSH1 0x0 SWAP4 DUP5 SWAP4 SWAP3 SWAP2 DUP4 ADD DUP3 DUP3 DUP1 ISZERO PUSH2 0x109C JUMPI DUP1 PUSH1 0x1F LT PUSH2 0x1071 JUMPI PUSH2 0x100 DUP1 DUP4 SLOAD DIV MUL DUP4 MSTORE SWAP2 PUSH1 0x20 ADD SWAP2 PUSH2 0x109C JUMP JUMPDEST DUP3 ADD SWAP2 SWAP1 PUSH1 0x0 MSTORE PUSH1 0x20 PUSH1 0x0 KECCAK256 SWAP1 JUMPDEST DUP2 SLOAD DUP2 MSTORE SWAP1 PUSH1 0x1 ADD SWAP1 PUSH1 0x20 ADD DUP1 DUP4 GT PUSH2 0x107F JUMPI DUP3 SWAP1 SUB PUSH1 0x1F AND DUP3 ADD SWAP2 JUMPDEST POP POP PUSH1 0x3 DUP1 SLOAD PUSH1 0x40 DUP1 MLOAD PUSH1 0x20 PUSH1 0x1F PUSH1 0x2 PUSH32 0xFFFFFFFFFFFFFFFFFFFFFFFFFFFFFFFFFFFFFFFFFFFFFFFFFFFFFFFFFFFFFFFF PUSH2 0x100 PUSH1 0x1 DUP9 AND ISZERO MUL ADD SWAP1 SWAP6 AND SWAP5 SWAP1 SWAP5 DIV SWAP4 DUP5 ADD DUP2 SWAP1 DIV DUP2 MUL DUP3 ADD DUP2 ADD SWAP1 SWAP3 MSTORE DUP3 DUP2 MSTORE SWAP7 SWAP11 POP SWAP2 SWAP5 POP SWAP3 POP DUP5 ADD SWAP1 POP DUP3 DUP3 DUP1 ISZERO PUSH2 0x114B JUMPI DUP1 PUSH1 0x1F LT PUSH2 0x1120 JUMPI PUSH2 0x100 DUP1 DUP4 SLOAD DIV MUL DUP4 MSTORE SWAP2 PUSH1 0x20 ADD SWAP2 PUSH2 0x114B JUMP JUMPDEST DUP3 ADD SWAP2 SWAP1 PUSH1 0x0 MSTORE PUSH1 0x20 PUSH1 0x0 KECCAK256 SWAP1 JUMPDEST DUP2 SLOAD DUP2 MSTORE SWAP1 PUSH1 0x1 ADD SWAP1 PUSH1 0x20 ADD DUP1 DUP4 GT PUSH2 0x112E JUMPI DUP3 SWAP1 SUB PUSH1 0x1F AND DUP3 ADD SWAP2 JUMPDEST POP POP PUSH1 0x6 SLOAD PUSH1 0x7 SLOAD SWAP9 SWAP10 SWAP5 SWAP9 SWAP1 SWAP8 POP SWAP6 POP SWAP3 SWAP4 POP POP POP POP JUMP JUMPDEST PUSH1 0xB SLOAD PUSH20 0xFFFFFFFFFFFFFFFFFFFFFFFFFFFFFFFFFFFFFFFF AND CALLER EQ PUSH2 0x1188 JUMPI PUSH1 0x0 DUP1 REVERT JUMPDEST PUSH1 0x9 DUP1 SLOAD PUSH32 0xFFFFFFFFFFFFFFFFFFFFFFFFFFFFFFFFFFFFFFFFFFFFFFFFFFFFFFFF00000000 AND PUSH4 0xFFFFFFFF SWAP3 SWAP1 SWAP3 AND SWAP2 SWAP1 SWAP2 OR SWAP1 SSTORE JUMP JUMPDEST PUSH1 0x0 DUP1 SLOAD PUSH21 0x10000000000000000000000000000000000000000 SWAP1 DIV PUSH1 0xFF AND ISZERO PUSH2 0x1215 JUMPI PUSH1 0x40 MLOAD PUSH32 0x8C379A000000000000000000000000000000000000000000000000000000000 DUP2 MSTORE PUSH1 0x4 ADD PUSH2 0x4C4 SWAP1 PUSH2 0x31D8 JUMP JUMPDEST PUSH1 0x0 DUP1 SLOAD PUSH32 0xFFFFFFFFFFFFFFFFFFFFFF00FFFFFFFFFFFFFFFFFFFFFFFFFFFFFFFFFFFFFFFF AND PUSH21 0x10000000000000000000000000000000000000000 OR DUP2 SSTORE CALLER DUP2 MSTORE PUSH1 0x1 PUSH1 0x20 MSTORE PUSH1 0x40 SWAP1 KECCAK256 SLOAD DUP3 SWAP1 DUP2 GT ISZERO PUSH2 0x126F JUMPI PUSH1 0x0 DUP1 REVERT JUMPDEST CALLER PUSH1 0x0 SWAP1 DUP2 MSTORE PUSH1 0x1 PUSH1 0x20 MSTORE PUSH1 0x40 SWAP1 KECCAK256 SLOAD DUP4 SWAP1 DUP1 DUP3 ADD GT PUSH2 0x128E JUMPI PUSH1 0x0 DUP1 REVERT JUMPDEST CALLER PUSH1 0x0 SWAP1 DUP2 MSTORE PUSH1 0x1 PUSH1 0x20 MSTORE PUSH1 0x40 SWAP1 KECCAK256 PUSH1 0x2 ADD SLOAD PUSH4 0xFFFFFFFF AND TIMESTAMP LT ISZERO PUSH2 0x12B3 JUMPI PUSH1 0x0 DUP1 REVERT JUMPDEST PUSH1 0x0 DUP1 PUSH1 0x0 DUP1 PUSH2 0x12C2 DUP9 PUSH2 0x1FD1 JUMP JUMPDEST SWAP3 SWAP7 POP SWAP1 SWAP5 POP SWAP3 POP SWAP1 POP PUSH2 0x12D6 DUP9 DUP3 PUSH2 0x205E JUMP JUMPDEST PUSH2 0x12E2 CALLER DUP10 DUP7 DUP7 PUSH2 0x2322 JUMP JUMPDEST PUSH1 0x5 SLOAD PUSH2 0x12EF SWAP1 DUP4 PUSH2 0x2401 JUMP JUMPDEST PUSH1 0x5 SSTORE PUSH1 0x40 MLOAD CALLER SWAP1 DUP3 ISZERO PUSH2 0x8FC MUL SWAP1 DUP4 SWAP1 PUSH1 0x0 DUP2 DUP2 DUP2 DUP6 DUP9 DUP9 CALL SWAP4 POP POP POP POP ISZERO DUP1 ISZERO PUSH2 0x131F JUMPI RETURNDATASIZE PUSH1 0x0 DUP1 RETURNDATACOPY RETURNDATASIZE PUSH1 0x0 REVERT JUMPDEST POP POP PUSH1 0x0 DUP1 SLOAD PUSH32 0xFFFFFFFFFFFFFFFFFFFFFF00FFFFFFFFFFFFFFFFFFFFFFFFFFFFFFFFFFFFFFFF AND SWAP1 SSTORE POP PUSH1 0x1 SWAP7 SWAP6 POP POP POP POP POP POP JUMP JUMPDEST PUSH1 0xE SLOAD PUSH1 0x0 SWAP1 CALLVALUE SWAP1 DUP2 LT ISZERO PUSH2 0x136A JUMPI PUSH1 0x0 DUP1 REVERT JUMPDEST PUSH2 0x1373 DUP4 PUSH2 0x1DF4 JUMP JUMPDEST ISZERO ISZERO PUSH2 0x137E JUMPI PUSH1 0x0 DUP1 REVERT JUMPDEST POP PUSH1 0x1 SWAP3 SWAP2 POP POP JUMP JUMPDEST PUSH20 0xFFFFFFFFFFFFFFFFFFFFFFFFFFFFFFFFFFFFFFFF AND PUSH1 0x0 SWAP1 DUP2 MSTORE PUSH1 0x1 PUSH1 0x20 MSTORE PUSH1 0x40 SWAP1 KECCAK256 SLOAD SWAP1 JUMP JUMPDEST PUSH1 0xA SLOAD PUSH1 0x40 DUP1 MLOAD PUSH32 0x26C7A0DE00000000000000000000000000000000000000000000000000000000 DUP2 MSTORE SWAP1 MLOAD PUSH1 0x0 SWAP3 PUSH20 0xFFFFFFFFFFFFFFFFFFFFFFFFFFFFFFFFFFFFFFFF AND SWAP2 DUP3 SWAP2 PUSH4 0x26C7A0DE SWAP2 PUSH1 0x4 DUP1 DUP3 ADD SWAP3 PUSH1 0x20 SWAP3 SWAP1 SWAP2 SWAP1 DUP3 SWAP1 SUB ADD DUP2 DUP7 DUP1 EXTCODESIZE ISZERO DUP1 ISZERO PUSH2 0x141D JUMPI PUSH1 0x0 DUP1 REVERT JUMPDEST POP GAS STATICCALL ISZERO DUP1 ISZERO PUSH2 0x1431 JUMPI RETURNDATASIZE PUSH1 0x0 DUP1 RETURNDATACOPY RETURNDATASIZE PUSH1 0x0 REVERT JUMPDEST POP POP POP POP PUSH1 0x40 MLOAD RETURNDATASIZE PUSH1 0x1F NOT PUSH1 0x1F DUP3 ADD AND DUP3 ADD DUP1 PUSH1 0x40 MSTORE POP PUSH2 0x1455 SWAP2 SWAP1 DUP2 ADD SWAP1 PUSH2 0x2C17 JUMP JUMPDEST SWAP2 POP POP SWAP1 JUMP JUMPDEST PUSH1 0x0 SLOAD PUSH20 0xFFFFFFFFFFFFFFFFFFFFFFFFFFFFFFFFFFFFFFFF AND DUP2 JUMP JUMPDEST PUSH1 0x0 SLOAD PUSH1 0xC SLOAD PUSH1 0xB SLOAD PUSH1 0xF SLOAD PUSH1 0x8 SLOAD PUSH1 0x9 SLOAD PUSH20 0xFFFFFFFFFFFFFFFFFFFFFFFFFFFFFFFFFFFFFFFF SWAP6 DUP7 AND SWAP6 SWAP5 DUP6 AND SWAP5 SWAP4 SWAP1 SWAP4 AND SWAP3 PUSH4 0xFFFFFFFF AND SWAP1 SWAP2 SWAP3 SWAP4 SWAP5 SWAP6 JUMP JUMPDEST PUSH1 0x0 SLOAD PUSH20 0xFFFFFFFFFFFFFFFFFFFFFFFFFFFFFFFFFFFFFFFF AND CALLER EQ PUSH2 0x14DD JUMPI PUSH1 0x0 DUP1 REVERT JUMPDEST PUSH1 0x0 PUSH2 0x14E7 PUSH2 0x13AF JUMP JUMPDEST PUSH1 0x40 MLOAD PUSH32 0xF39BA93200000000000000000000000000000000000000000000000000000000 DUP2 MSTORE SWAP1 SWAP2 POP PUSH20 0xFFFFFFFFFFFFFFFFFFFFFFFFFFFFFFFFFFFFFFFF DUP3 AND SWAP1 PUSH4 0xF39BA932 SWAP1 PUSH2 0x1540 SWAP1 CALLER SWAP1 ADDRESS SWAP1 DUP8 SWAP1 PUSH1 0x4 ADD PUSH2 0x2FF9 JUMP JUMPDEST PUSH1 0x20 PUSH1 0x40 MLOAD DUP1 DUP4 SUB DUP2 PUSH1 0x0 DUP8 DUP1 EXTCODESIZE ISZERO DUP1 ISZERO PUSH2 0x155A JUMPI PUSH1 0x0 DUP1 REVERT JUMPDEST POP GAS CALL ISZERO DUP1 ISZERO PUSH2 0x156E JUMPI RETURNDATASIZE PUSH1 0x0 DUP1 RETURNDATACOPY RETURNDATASIZE PUSH1 0x0 REVERT JUMPDEST POP POP POP POP PUSH1 0x40 MLOAD RETURNDATASIZE PUSH1 0x1F NOT PUSH1 0x1F DUP3 ADD AND DUP3 ADD DUP1 PUSH1 0x40 MSTORE POP PUSH2 0x1592 SWAP2 SWAP1 DUP2 ADD SWAP1 PUSH2 0x2DA3 JUMP JUMPDEST POP POP PUSH1 0xC DUP1 SLOAD PUSH32 0xFFFFFFFFFFFFFFFFFFFFFFFF0000000000000000000000000000000000000000 AND PUSH20 0xFFFFFFFFFFFFFFFFFFFFFFFFFFFFFFFFFFFFFFFF SWAP3 SWAP1 SWAP3 AND SWAP2 SWAP1 SWAP2 OR SWAP1 SSTORE JUMP JUMPDEST PUSH1 0x6 SLOAD SWAP1 JUMP JUMPDEST PUSH1 0x0 PUSH2 0x15EB PUSH2 0x19AC JUMP JUMPDEST SWAP1 POP SWAP1 JUMP JUMPDEST PUSH1 0x0 JUMPDEST DUP4 DUP2 LT ISZERO PUSH2 0x164B JUMPI PUSH2 0x1642 DUP7 DUP7 DUP7 DUP5 DUP2 DUP2 LT PUSH2 0x160B JUMPI INVALID JUMPDEST SWAP1 POP PUSH1 0x20 MUL ADD CALLDATALOAD PUSH20 0xFFFFFFFFFFFFFFFFFFFFFFFFFFFFFFFFFFFFFFFF AND DUP6 DUP6 DUP6 DUP2 DUP2 LT ISZERO ISZERO PUSH2 0x1636 JUMPI INVALID JUMPDEST SWAP1 POP PUSH1 0x20 MUL ADD CALLDATALOAD PUSH2 0x2413 JUMP JUMPDEST POP PUSH1 0x1 ADD PUSH2 0x15F3 JUMP JUMPDEST POP POP POP POP POP POP JUMP JUMPDEST PUSH1 0xB SLOAD PUSH20 0xFFFFFFFFFFFFFFFFFFFFFFFFFFFFFFFFFFFFFFFF AND CALLER EQ PUSH2 0x1677 JUMPI PUSH1 0x0 DUP1 REVERT JUMPDEST PUSH1 0x0 PUSH2 0x1681 PUSH2 0x13AF JUMP JUMPDEST PUSH1 0x40 MLOAD PUSH32 0x2A44FBA500000000000000000000000000000000000000000000000000000000 DUP2 MSTORE SWAP1 SWAP2 POP PUSH20 0xFFFFFFFFFFFFFFFFFFFFFFFFFFFFFFFFFFFFFFFF DUP3 AND SWAP1 PUSH4 0x2A44FBA5 SWAP1 PUSH2 0x16DA SWAP1 CALLER SWAP1 ADDRESS SWAP1 DUP8 SWAP1 PUSH1 0x4 ADD PUSH2 0x2FF9 JUMP JUMPDEST PUSH1 0x20 PUSH1 0x40 MLOAD DUP1 DUP4 SUB DUP2 PUSH1 0x0 DUP8 DUP1 EXTCODESIZE ISZERO DUP1 ISZERO PUSH2 0x16F4 JUMPI PUSH1 0x0 DUP1 REVERT JUMPDEST POP GAS CALL ISZERO DUP1 ISZERO PUSH2 0x1708 JUMPI RETURNDATASIZE PUSH1 0x0 DUP1 RETURNDATACOPY RETURNDATASIZE PUSH1 0x0 REVERT JUMPDEST POP POP POP POP PUSH1 0x40 MLOAD RETURNDATASIZE PUSH1 0x1F NOT PUSH1 0x1F DUP3 ADD AND DUP3 ADD DUP1 PUSH1 0x40 MSTORE POP PUSH2 0x172C SWAP2 SWAP1 DUP2 ADD SWAP1 PUSH2 0x2DA3 JUMP JUMPDEST ISZERO ISZERO PUSH2 0x1737 JUMPI PUSH1 0x0 DUP1 REVERT JUMPDEST POP PUSH1 0xB DUP1 SLOAD PUSH32 0xFFFFFFFFFFFFFFFFFFFFFFFF0000000000000000000000000000000000000000 AND PUSH20 0xFFFFFFFFFFFFFFFFFFFFFFFFFFFFFFFFFFFFFFFF SWAP3 SWAP1 SWAP3 AND SWAP2 SWAP1 SWAP2 OR SWAP1 SSTORE JUMP JUMPDEST PUSH1 0x0 SLOAD PUSH20 0xFFFFFFFFFFFFFFFFFFFFFFFFFFFFFFFFFFFFFFFF AND CALLER EQ PUSH2 0x17A3 JUMPI PUSH1 0x0 DUP1 REVERT JUMPDEST DUP3 PUSH1 0x0 PUSH2 0x17AE PUSH2 0x19AC JUMP JUMPDEST PUSH20 0xFFFFFFFFFFFFFFFFFFFFFFFFFFFFFFFFFFFFFFFF AND PUSH4 0x58C860F9 DUP4 PUSH1 0x40 MLOAD DUP3 PUSH4 0xFFFFFFFF AND PUSH29 0x100000000000000000000000000000000000000000000000000000000 MUL DUP2 MSTORE PUSH1 0x4 ADD PUSH2 0x1802 SWAP2 SWAP1 PUSH2 0x2FDD JUMP JUMPDEST PUSH1 0x20 PUSH1 0x40 MLOAD DUP1 DUP4 SUB DUP2 DUP7 DUP1 EXTCODESIZE ISZERO DUP1 ISZERO PUSH2 0x181A JUMPI PUSH1 0x0 DUP1 REVERT JUMPDEST POP GAS STATICCALL ISZERO DUP1 ISZERO PUSH2 0x182E JUMPI RETURNDATASIZE PUSH1 0x0 DUP1 RETURNDATACOPY RETURNDATASIZE PUSH1 0x0 REVERT JUMPDEST POP POP POP POP PUSH1 0x40 MLOAD RETURNDATASIZE PUSH1 0x1F NOT PUSH1 0x1F DUP3 ADD AND DUP3 ADD DUP1 PUSH1 0x40 MSTORE POP PUSH2 0x1852 SWAP2 SWAP1 DUP2 ADD SWAP1 PUSH2 0x2DA3 JUMP JUMPDEST SWAP1 POP DUP1 ISZERO ISZERO PUSH2 0x1860 JUMPI PUSH1 0x0 DUP1 REVERT JUMPDEST PUSH2 0x186B DUP6 DUP6 DUP6 PUSH2 0x2413 JUMP JUMPDEST ISZERO ISZERO PUSH2 0x1876 JUMPI PUSH1 0x0 DUP1 REVERT JUMPDEST POP POP POP POP POP JUMP JUMPDEST PUSH1 0xD SLOAD PUSH1 0x0 SWAP1 PUSH21 0x10000000000000000000000000000000000000000 SWAP1 DIV PUSH1 0xFF AND ISZERO PUSH2 0xCCB JUMPI POP PUSH1 0xD SLOAD PUSH20 0xFFFFFFFFFFFFFFFFFFFFFFFFFFFFFFFFFFFFFFFF AND PUSH2 0xCCB JUMP JUMPDEST PUSH1 0xB SLOAD PUSH20 0xFFFFFFFFFFFFFFFFFFFFFFFFFFFFFFFFFFFFFFFF AND CALLER EQ PUSH2 0x18E6 JUMPI PUSH1 0x0 DUP1 REVERT JUMPDEST PUSH1 0x0 PUSH2 0x18F0 PUSH2 0x13AF JUMP JUMPDEST PUSH1 0x40 MLOAD PUSH32 0x91F1DF8400000000000000000000000000000000000000000000000000000000 DUP2 MSTORE SWAP1 SWAP2 POP PUSH20 0xFFFFFFFFFFFFFFFFFFFFFFFFFFFFFFFFFFFFFFFF DUP3 AND SWAP1 PUSH4 0x91F1DF84 SWAP1 PUSH2 0x1949 SWAP1 CALLER SWAP1 ADDRESS SWAP1 DUP8 SWAP1 PUSH1 0x4 ADD PUSH2 0x3021 JUMP JUMPDEST PUSH1 0x20 PUSH1 0x40 MLOAD DUP1 DUP4 SUB DUP2 PUSH1 0x0 DUP8 DUP1 EXTCODESIZE ISZERO DUP1 ISZERO PUSH2 0x1963 JUMPI PUSH1 0x0 DUP1 REVERT JUMPDEST POP GAS CALL ISZERO DUP1 ISZERO PUSH2 0x1977 JUMPI RETURNDATASIZE PUSH1 0x0 DUP1 RETURNDATACOPY RETURNDATASIZE PUSH1 0x0 REVERT JUMPDEST POP POP POP POP PUSH1 0x40 MLOAD RETURNDATASIZE PUSH1 0x1F NOT PUSH1 0x1F DUP3 ADD AND DUP3 ADD DUP1 PUSH1 0x40 MSTORE POP PUSH2 0x199B SWAP2 SWAP1 DUP2 ADD SWAP1 PUSH2 0x2DA3 JUMP JUMPDEST ISZERO ISZERO PUSH2 0x19A6 JUMPI PUSH1 0x0 DUP1 REVERT JUMPDEST POP PUSH1 0xF SSTORE JUMP JUMPDEST PUSH1 0xA SLOAD PUSH1 0x40 DUP1 MLOAD PUSH32 0x84987E8300000000000000000000000000000000000000000000000000000000 DUP2 MSTORE SWAP1 MLOAD PUSH1 0x0 SWAP3 PUSH20 0xFFFFFFFFFFFFFFFFFFFFFFFFFFFFFFFFFFFFFFFF AND SWAP2 PUSH4 0x84987E83 SWAP2 PUSH1 0x4 DUP1 DUP4 ADD SWAP3 PUSH1 0x20 SWAP3 SWAP2 SWAP1 DUP3 SWAP1 SUB ADD DUP2 DUP7 DUP1 EXTCODESIZE ISZERO DUP1 ISZERO PUSH2 0x1A17 JUMPI PUSH1 0x0 DUP1 REVERT JUMPDEST POP GAS STATICCALL ISZERO DUP1 ISZERO PUSH2 0x1A2B JUMPI RETURNDATASIZE PUSH1 0x0 DUP1 RETURNDATACOPY RETURNDATASIZE PUSH1 0x0 REVERT JUMPDEST POP POP POP POP PUSH1 0x40 MLOAD RETURNDATASIZE PUSH1 0x1F NOT PUSH1 0x1F DUP3 ADD AND DUP3 ADD DUP1 PUSH1 0x40 MSTORE POP PUSH2 0x15EB SWAP2 SWAP1 DUP2 ADD SWAP1 PUSH2 0x2C17 JUMP JUMPDEST PUSH1 0xA SLOAD PUSH1 0x40 DUP1 MLOAD PUSH32 0x84987E8300000000000000000000000000000000000000000000000000000000 DUP2 MSTORE SWAP1 MLOAD PUSH1 0x0 SWAP3 PUSH20 0xFFFFFFFFFFFFFFFFFFFFFFFFFFFFFFFFFFFFFFFF AND SWAP2 PUSH4 0x84987E83 SWAP2 PUSH1 0x4 DUP1 DUP4 ADD SWAP3 PUSH1 0x20 SWAP3 SWAP2 SWAP1 DUP3 SWAP1 SUB ADD DUP2 DUP7 DUP1 EXTCODESIZE ISZERO DUP1 ISZERO PUSH2 0x1ABA JUMPI PUSH1 0x0 DUP1 REVERT JUMPDEST POP GAS STATICCALL ISZERO DUP1 ISZERO PUSH2 0x1ACE JUMPI RETURNDATASIZE PUSH1 0x0 DUP1 RETURNDATACOPY RETURNDATASIZE PUSH1 0x0 REVERT JUMPDEST POP POP POP POP PUSH1 0x40 MLOAD RETURNDATASIZE PUSH1 0x1F NOT PUSH1 0x1F DUP3 ADD AND DUP3 ADD DUP1 PUSH1 0x40 MSTORE POP PUSH2 0x1AF2 SWAP2 SWAP1 DUP2 ADD SWAP1 PUSH2 0x2C17 JUMP JUMPDEST PUSH20 0xFFFFFFFFFFFFFFFFFFFFFFFFFFFFFFFFFFFFFFFF AND PUSH4 0x485FF697 DUP4 PUSH1 0x40 MLOAD DUP3 PUSH4 0xFFFFFFFF AND PUSH29 0x100000000000000000000000000000000000000000000000000000000 MUL DUP2 MSTORE PUSH1 0x4 ADD PUSH2 0x1B46 SWAP2 SWAP1 PUSH2 0x2FDD JUMP JUMPDEST PUSH1 0x20 PUSH1 0x40 MLOAD DUP1 DUP4 SUB DUP2 DUP7 DUP1 EXTCODESIZE ISZERO DUP1 ISZERO PUSH2 0x1B5E JUMPI PUSH1 0x0 DUP1 REVERT JUMPDEST POP GAS STATICCALL ISZERO DUP1 ISZERO PUSH2 0x1B72 JUMPI RETURNDATASIZE PUSH1 0x0 DUP1 RETURNDATACOPY RETURNDATASIZE PUSH1 0x0 REVERT JUMPDEST POP POP POP POP PUSH1 0x40 MLOAD RETURNDATASIZE PUSH1 0x1F NOT PUSH1 0x1F DUP3 ADD AND DUP3 ADD DUP1 PUSH1 0x40 MSTORE POP PUSH2 0x1B96 SWAP2 SWAP1 DUP2 ADD SWAP1 PUSH2 0x2C17 JUMP JUMPDEST SWAP3 SWAP2 POP POP JUMP JUMPDEST PUSH1 0x0 PUSH2 0x1B96 DUP3 PUSH2 0x24D1 JUMP JUMPDEST PUSH1 0xA SLOAD PUSH1 0x40 DUP1 MLOAD PUSH32 0x84987E8300000000000000000000000000000000000000000000000000000000 DUP2 MSTORE SWAP1 MLOAD PUSH1 0x0 SWAP3 PUSH20 0xFFFFFFFFFFFFFFFFFFFFFFFFFFFFFFFFFFFFFFFF AND SWAP2 PUSH4 0x84987E83 SWAP2 PUSH1 0x4 DUP1 DUP4 ADD SWAP3 PUSH1 0x20 SWAP3 SWAP2 SWAP1 DUP3 SWAP1 SUB ADD DUP2 DUP7 DUP1 EXTCODESIZE ISZERO DUP1 ISZERO PUSH2 0x1C12 JUMPI PUSH1 0x0 DUP1 REVERT JUMPDEST POP GAS STATICCALL ISZERO DUP1 ISZERO PUSH2 0x1C26 JUMPI RETURNDATASIZE PUSH1 0x0 DUP1 RETURNDATACOPY RETURNDATASIZE PUSH1 0x0 REVERT JUMPDEST POP POP POP POP PUSH1 0x40 MLOAD RETURNDATASIZE PUSH1 0x1F NOT PUSH1 0x1F DUP3 ADD AND DUP3 ADD DUP1 PUSH1 0x40 MSTORE POP PUSH2 0x1C4A SWAP2 SWAP1 DUP2 ADD SWAP1 PUSH2 0x2C17 JUMP JUMPDEST PUSH20 0xFFFFFFFFFFFFFFFFFFFFFFFFFFFFFFFFFFFFFFFF AND PUSH4 0x7ECF2C2F DUP5 DUP5 PUSH1 0x40 MLOAD DUP4 PUSH4 0xFFFFFFFF AND PUSH29 0x100000000000000000000000000000000000000000000000000000000 MUL DUP2 MSTORE PUSH1 0x4 ADD PUSH2 0x1CA0 SWAP3 SWAP2 SWAP1 PUSH2 0x3189 JUMP JUMPDEST PUSH1 0x20 PUSH1 0x40 MLOAD DUP1 DUP4 SUB DUP2 DUP7 DUP1 EXTCODESIZE ISZERO DUP1 ISZERO PUSH2 0x1CB8 JUMPI PUSH1 0x0 DUP1 REVERT JUMPDEST POP GAS STATICCALL ISZERO DUP1 ISZERO PUSH2 0x1CCC JUMPI RETURNDATASIZE PUSH1 0x0 DUP1 RETURNDATACOPY RETURNDATASIZE PUSH1 0x0 REVERT JUMPDEST POP POP POP POP PUSH1 0x40 MLOAD RETURNDATASIZE PUSH1 0x1F NOT PUSH1 0x1F DUP3 ADD AND DUP3 ADD DUP1 PUSH1 0x40 MSTORE POP PUSH2 0xCC0 SWAP2 SWAP1 DUP2 ADD SWAP1 PUSH2 0x2DA3 JUMP JUMPDEST PUSH1 0xA SLOAD PUSH1 0x40 DUP1 MLOAD PUSH32 0x84987E8300000000000000000000000000000000000000000000000000000000 DUP2 MSTORE SWAP1 MLOAD PUSH1 0x0 SWAP3 PUSH20 0xFFFFFFFFFFFFFFFFFFFFFFFFFFFFFFFFFFFFFFFF AND SWAP2 PUSH4 0x84987E83 SWAP2 PUSH1 0x4 DUP1 DUP4 ADD SWAP3 PUSH1 0x20 SWAP3 SWAP2 SWAP1 DUP3 SWAP1 SUB ADD DUP2 DUP7 DUP1 EXTCODESIZE ISZERO DUP1 ISZERO PUSH2 0x1D5B JUMPI PUSH1 0x0 DUP1 REVERT JUMPDEST POP GAS STATICCALL ISZERO DUP1 ISZERO PUSH2 0x1D6F JUMPI RETURNDATASIZE PUSH1 0x0 DUP1 RETURNDATACOPY RETURNDATASIZE PUSH1 0x0 REVERT JUMPDEST POP POP POP POP PUSH1 0x40 MLOAD RETURNDATASIZE PUSH1 0x1F NOT PUSH1 0x1F DUP3 ADD AND DUP3 ADD DUP1 PUSH1 0x40 MSTORE POP PUSH2 0x1D93 SWAP2 SWAP1 DUP2 ADD SWAP1 PUSH2 0x2C17 JUMP JUMPDEST PUSH20 0xFFFFFFFFFFFFFFFFFFFFFFFFFFFFFFFFFFFFFFFF AND PUSH4 0x5B28556D PUSH1 0x40 MLOAD DUP2 PUSH4 0xFFFFFFFF AND PUSH29 0x100000000000000000000000000000000000000000000000000000000 MUL DUP2 MSTORE PUSH1 0x4 ADD PUSH1 0x20 PUSH1 0x40 MLOAD DUP1 DUP4 SUB DUP2 DUP7 DUP1 EXTCODESIZE ISZERO DUP1 ISZERO PUSH2 0x1A17 JUMPI PUSH1 0x0 DUP1 REVERT JUMPDEST PUSH1 0xD SLOAD PUSH1 0x0 SWAP1 PUSH20 0xFFFFFFFFFFFFFFFFFFFFFFFFFFFFFFFFFFFFFFFF AND ISZERO PUSH2 0x1EC6 JUMPI PUSH1 0xD SLOAD PUSH1 0x40 MLOAD PUSH32 0xD88C271E00000000000000000000000000000000000000000000000000000000 DUP2 MSTORE PUSH20 0xFFFFFFFFFFFFFFFFFFFFFFFFFFFFFFFFFFFFFFFF SWAP1 SWAP2 AND SWAP1 PUSH4 0xD88C271E SWAP1 PUSH2 0x1E6B SWAP1 DUP6 SWAP1 PUSH1 0x4 ADD PUSH2 0x2FDD JUMP JUMPDEST PUSH1 0x20 PUSH1 0x40 MLOAD DUP1 DUP4 SUB DUP2 DUP7 DUP1 EXTCODESIZE ISZERO DUP1 ISZERO PUSH2 0x1E83 JUMPI PUSH1 0x0 DUP1 REVERT JUMPDEST POP GAS STATICCALL ISZERO DUP1 ISZERO PUSH2 0x1E97 JUMPI RETURNDATASIZE PUSH1 0x0 DUP1 RETURNDATACOPY RETURNDATASIZE PUSH1 0x0 REVERT JUMPDEST POP POP POP POP PUSH1 0x40 MLOAD RETURNDATASIZE PUSH1 0x1F NOT PUSH1 0x1F DUP3 ADD AND DUP3 ADD DUP1 PUSH1 0x40 MSTORE POP PUSH2 0x1EBB SWAP2 SWAP1 DUP2 ADD SWAP1 PUSH2 0x2DA3 JUMP JUMPDEST ISZERO ISZERO PUSH2 0x1EC6 JUMPI PUSH1 0x0 DUP1 REVERT JUMPDEST PUSH1 0x0 DUP1 PUSH1 0x0 DUP1 PUSH2 0x1ED4 PUSH2 0x24D8 JUMP JUMPDEST SWAP3 SWAP7 POP SWAP1 SWAP5 POP SWAP3 POP SWAP1 POP PUSH2 0x1EE7 DUP2 PUSH2 0x2559 JUMP JUMPDEST PUSH2 0x1EF3 DUP7 DUP3 DUP6 DUP6 PUSH2 0x2812 JUMP JUMPDEST PUSH1 0x5 SLOAD PUSH2 0x1F00 SWAP1 DUP6 PUSH2 0x293B JUMP JUMPDEST PUSH1 0x5 SSTORE POP PUSH1 0x1 SWAP6 SWAP5 POP POP POP POP POP JUMP JUMPDEST PUSH1 0x0 PUSH2 0x1F19 PUSH2 0x2958 JUMP JUMPDEST PUSH20 0xFFFFFFFFFFFFFFFFFFFFFFFFFFFFFFFFFFFFFFFF AND PUSH4 0x802AF840 DUP8 DUP8 DUP8 DUP8 DUP8 PUSH1 0x40 MLOAD DUP7 PUSH4 0xFFFFFFFF AND PUSH29 0x100000000000000000000000000000000000000000000000000000000 MUL DUP2 MSTORE PUSH1 0x4 ADD PUSH2 0x1F75 SWAP6 SWAP5 SWAP4 SWAP3 SWAP2 SWAP1 PUSH2 0x31F6 JUMP JUMPDEST PUSH1 0x20 PUSH1 0x40 MLOAD DUP1 DUP4 SUB DUP2 DUP7 DUP1 EXTCODESIZE ISZERO DUP1 ISZERO PUSH2 0x1F8D JUMPI PUSH1 0x0 DUP1 REVERT JUMPDEST POP GAS STATICCALL ISZERO DUP1 ISZERO PUSH2 0x1FA1 JUMPI RETURNDATASIZE PUSH1 0x0 DUP1 RETURNDATACOPY RETURNDATASIZE PUSH1 0x0 REVERT JUMPDEST POP POP POP POP PUSH1 0x40 MLOAD RETURNDATASIZE PUSH1 0x1F NOT PUSH1 0x1F DUP3 ADD AND DUP3 ADD DUP1 PUSH1 0x40 MSTORE POP PUSH2 0x1FC5 SWAP2 SWAP1 DUP2 ADD SWAP1 PUSH2 0x2DA3 JUMP JUMPDEST SWAP1 POP JUMPDEST SWAP6 SWAP5 POP POP POP POP POP JUMP JUMPDEST PUSH1 0x0 DUP1 PUSH1 0x0 DUP1 PUSH1 0x0 PUSH2 0x2710 PUSH2 0x1FEB DUP8 PUSH1 0x2 PUSH1 0x6 ADD SLOAD PUSH2 0x29C3 JUMP JUMPDEST DUP2 ISZERO ISZERO PUSH2 0x1FF4 JUMPI INVALID JUMPDEST DIV SWAP1 POP PUSH1 0x64 PUSH2 0x2008 DUP3 PUSH1 0xA PUSH1 0x5 ADD SLOAD PUSH2 0x29C3 JUMP JUMPDEST DUP2 ISZERO ISZERO PUSH2 0x2011 JUMPI INVALID JUMPDEST DIV SWAP5 POP DUP5 PUSH2 0x201F DUP3 DUP7 PUSH2 0x2401 JUMP JUMPDEST SWAP5 POP DUP5 PUSH2 0x202C DUP9 DUP5 PUSH2 0x2401 JUMP JUMPDEST SWAP5 POP DUP5 PUSH3 0xF4240 PUSH2 0x2042 DUP8 PUSH1 0x2 PUSH1 0x4 ADD SLOAD PUSH2 0x29C3 JUMP JUMPDEST DUP2 ISZERO ISZERO PUSH2 0x204B JUMPI INVALID JUMPDEST SWAP4 SWAP11 SWAP3 SWAP10 POP SWAP1 SWAP8 POP SWAP1 SWAP2 DIV SWAP5 POP SWAP3 POP POP POP JUMP JUMPDEST PUSH1 0x2 DUP1 SLOAD PUSH1 0x40 DUP1 MLOAD PUSH1 0x20 PUSH1 0x1F PUSH32 0xFFFFFFFFFFFFFFFFFFFFFFFFFFFFFFFFFFFFFFFFFFFFFFFFFFFFFFFFFFFFFFFF PUSH2 0x100 PUSH1 0x1 DUP8 AND ISZERO MUL ADD SWAP1 SWAP5 AND DUP6 SWAP1 DIV SWAP4 DUP5 ADD DUP2 SWAP1 DIV DUP2 MUL DUP3 ADD DUP2 ADD SWAP1 SWAP3 MSTORE DUP3 DUP2 MSTORE PUSH1 0x60 SWAP4 SWAP1 SWAP3 SWAP1 SWAP2 DUP4 ADD DUP3 DUP3 DUP1 ISZERO PUSH2 0x2105 JUMPI DUP1 PUSH1 0x1F LT PUSH2 0x20DA JUMPI PUSH2 0x100 DUP1 DUP4 SLOAD DIV MUL DUP4 MSTORE SWAP2 PUSH1 0x20 ADD SWAP2 PUSH2 0x2105 JUMP JUMPDEST DUP3 ADD SWAP2 SWAP1 PUSH1 0x0 MSTORE PUSH1 0x20 PUSH1 0x0 KECCAK256 SWAP1 JUMPDEST DUP2 SLOAD DUP2 MSTORE SWAP1 PUSH1 0x1 ADD SWAP1 PUSH1 0x20 ADD DUP1 DUP4 GT PUSH2 0x20E8 JUMPI DUP3 SWAP1 SUB PUSH1 0x1F AND DUP3 ADD SWAP2 JUMPDEST POP POP PUSH1 0x3 DUP1 SLOAD PUSH1 0x40 DUP1 MLOAD PUSH1 0x20 PUSH1 0x1F PUSH1 0x2 PUSH32 0xFFFFFFFFFFFFFFFFFFFFFFFFFFFFFFFFFFFFFFFFFFFFFFFFFFFFFFFFFFFFFFFF PUSH2 0x100 PUSH1 0x1 DUP9 AND ISZERO MUL ADD SWAP1 SWAP6 AND SWAP5 SWAP1 SWAP5 DIV SWAP4 DUP5 ADD DUP2 SWAP1 DIV DUP2 MUL DUP3 ADD DUP2 ADD SWAP1 SWAP3 MSTORE DUP3 DUP2 MSTORE SWAP7 SWAP8 POP PUSH1 0x60 SWAP7 SWAP6 POP SWAP2 SWAP4 POP SWAP2 POP DUP4 ADD DUP3 DUP3 DUP1 ISZERO PUSH2 0x21B7 JUMPI DUP1 PUSH1 0x1F LT PUSH2 0x218C JUMPI PUSH2 0x100 DUP1 DUP4 SLOAD DIV MUL DUP4 MSTORE SWAP2 PUSH1 0x20 ADD SWAP2 PUSH2 0x21B7 JUMP JUMPDEST DUP3 ADD SWAP2 SWAP1 PUSH1 0x0 MSTORE PUSH1 0x20 PUSH1 0x0 KECCAK256 SWAP1 JUMPDEST DUP2 SLOAD DUP2 MSTORE SWAP1 PUSH1 0x1 ADD SWAP1 PUSH1 0x20 ADD DUP1 DUP4 GT PUSH2 0x219A JUMPI DUP3 SWAP1 SUB PUSH1 0x1F AND DUP3 ADD SWAP2 JUMPDEST POP POP PUSH1 0xA SLOAD PUSH1 0x40 DUP1 MLOAD PUSH32 0x26C7A0DE00000000000000000000000000000000000000000000000000000000 DUP2 MSTORE SWAP1 MLOAD SWAP6 SWAP7 POP PUSH20 0xFFFFFFFFFFFFFFFFFFFFFFFFFFFFFFFFFFFFFFFF SWAP1 SWAP2 AND SWAP5 PUSH1 0x0 SWAP5 POP DUP6 SWAP4 POP PUSH4 0x26C7A0DE SWAP3 POP PUSH1 0x4 DUP1 DUP4 ADD SWAP3 PUSH1 0x20 SWAP3 SWAP2 SWAP1 DUP3 SWAP1 SUB ADD DUP2 DUP7 DUP1 EXTCODESIZE ISZERO DUP1 ISZERO PUSH2 0x222E JUMPI PUSH1 0x0 DUP1 REVERT JUMPDEST POP GAS STATICCALL ISZERO DUP1 ISZERO PUSH2 0x2242 JUMPI RETURNDATASIZE PUSH1 0x0 DUP1 RETURNDATACOPY RETURNDATASIZE PUSH1 0x0 REVERT JUMPDEST POP POP POP POP PUSH1 0x40 MLOAD RETURNDATASIZE PUSH1 0x1F NOT PUSH1 0x1F DUP3 ADD AND DUP3 ADD DUP1 PUSH1 0x40 MSTORE POP PUSH2 0x2266 SWAP2 SWAP1 DUP2 ADD SWAP1 PUSH2 0x2C17 JUMP JUMPDEST PUSH1 0x40 MLOAD PUSH32 0x2EC5761200000000000000000000000000000000000000000000000000000000 DUP2 MSTORE SWAP1 SWAP2 POP PUSH20 0xFFFFFFFFFFFFFFFFFFFFFFFFFFFFFFFFFFFFFFFF DUP3 AND SWAP1 PUSH4 0x2EC57612 SWAP1 PUSH2 0x22C5 SWAP1 CALLER SWAP1 ADDRESS SWAP1 DUP12 SWAP1 DUP12 SWAP1 DUP12 SWAP1 DUP12 SWAP1 PUSH1 0x4 ADD PUSH2 0x307E JUMP JUMPDEST PUSH1 0x20 PUSH1 0x40 MLOAD DUP1 DUP4 SUB DUP2 PUSH1 0x0 DUP8 DUP1 EXTCODESIZE ISZERO DUP1 ISZERO PUSH2 0x22DF JUMPI PUSH1 0x0 DUP1 REVERT JUMPDEST POP GAS CALL ISZERO DUP1 ISZERO PUSH2 0x22F3 JUMPI RETURNDATASIZE PUSH1 0x0 DUP1 RETURNDATACOPY RETURNDATASIZE PUSH1 0x0 REVERT JUMPDEST POP POP POP POP PUSH1 0x40 MLOAD RETURNDATASIZE PUSH1 0x1F NOT PUSH1 0x1F DUP3 ADD AND DUP3 ADD DUP1 PUSH1 0x40 MSTORE POP PUSH2 0x2317 SWAP2 SWAP1 DUP2 ADD SWAP1 PUSH2 0x2DA3 JUMP JUMPDEST ISZERO ISZERO PUSH2 0x164B JUMPI PUSH1 0x0 DUP1 REVERT JUMPDEST PUSH20 0xFFFFFFFFFFFFFFFFFFFFFFFFFFFFFFFFFFFFFFFF DUP5 AND PUSH1 0x0 SWAP1 DUP2 MSTORE PUSH1 0x1 PUSH1 0x20 MSTORE PUSH1 0x40 SWAP1 KECCAK256 SLOAD PUSH2 0x2352 SWAP1 DUP5 PUSH2 0x2401 JUMP JUMPDEST PUSH20 0xFFFFFFFFFFFFFFFFFFFFFFFFFFFFFFFFFFFFFFFF DUP1 DUP7 AND PUSH1 0x0 SWAP1 DUP2 MSTORE PUSH1 0x1 PUSH1 0x20 MSTORE PUSH1 0x40 DUP1 DUP3 KECCAK256 SWAP4 SWAP1 SWAP4 SSTORE PUSH1 0xC SLOAD SWAP1 SWAP2 AND DUP2 MSTORE KECCAK256 SLOAD PUSH2 0x2391 SWAP1 DUP4 PUSH2 0x293B JUMP JUMPDEST PUSH1 0xC SLOAD PUSH20 0xFFFFFFFFFFFFFFFFFFFFFFFFFFFFFFFFFFFFFFFF SWAP1 DUP2 AND PUSH1 0x0 SWAP1 DUP2 MSTORE PUSH1 0x1 PUSH1 0x20 MSTORE PUSH1 0x40 DUP1 DUP3 KECCAK256 SWAP4 SWAP1 SWAP4 SSTORE PUSH1 0xB SLOAD SWAP1 SWAP2 AND DUP2 MSTORE KECCAK256 SLOAD PUSH2 0x23D3 SWAP1 DUP3 PUSH2 0x293B JUMP JUMPDEST PUSH1 0xB SLOAD PUSH20 0xFFFFFFFFFFFFFFFFFFFFFFFFFFFFFFFFFFFFFFFF AND PUSH1 0x0 SWAP1 DUP2 MSTORE PUSH1 0x1 PUSH1 0x20 MSTORE PUSH1 0x40 SWAP1 KECCAK256 SSTORE POP POP POP POP JUMP JUMPDEST PUSH1 0x0 DUP3 DUP3 GT ISZERO PUSH2 0x240D JUMPI INVALID JUMPDEST POP SWAP1 SUB SWAP1 JUMP JUMPDEST PUSH1 0x40 MLOAD PUSH32 0x95EA7B300000000000000000000000000000000000000000000000000000000 DUP2 MSTORE PUSH1 0x0 SWAP1 PUSH20 0xFFFFFFFFFFFFFFFFFFFFFFFFFFFFFFFFFFFFFFFF DUP5 AND SWAP1 PUSH4 0x95EA7B3 SWAP1 PUSH2 0x246A SWAP1 DUP8 SWAP1 DUP7 SWAP1 PUSH1 0x4 ADD PUSH2 0x313F JUMP JUMPDEST PUSH1 0x20 PUSH1 0x40 MLOAD DUP1 DUP4 SUB DUP2 PUSH1 0x0 DUP8 DUP1 EXTCODESIZE ISZERO DUP1 ISZERO PUSH2 0x2484 JUMPI PUSH1 0x0 DUP1 REVERT JUMPDEST POP GAS CALL ISZERO DUP1 ISZERO PUSH2 0x2498 JUMPI RETURNDATASIZE PUSH1 0x0 DUP1 RETURNDATACOPY RETURNDATASIZE PUSH1 0x0 REVERT JUMPDEST POP POP POP POP PUSH1 0x40 MLOAD RETURNDATASIZE PUSH1 0x1F NOT PUSH1 0x1F DUP3 ADD AND DUP3 ADD DUP1 PUSH1 0x40 MSTORE POP PUSH2 0x24BC SWAP2 SWAP1 DUP2 ADD SWAP1 PUSH2 0x2DA3 JUMP JUMPDEST ISZERO ISZERO PUSH2 0x24C7 JUMPI PUSH1 0x0 DUP1 REVERT JUMPDEST POP PUSH1 0x1 SWAP4 SWAP3 POP POP POP JUMP JUMPDEST PUSH1 0x20 ADD MLOAD SWAP1 JUMP JUMPDEST PUSH1 0x0 DUP1 PUSH1 0x0 DUP1 PUSH2 0x24F2 PUSH3 0xF4240 CALLVALUE MUL PUSH1 0x2 PUSH1 0x5 ADD SLOAD PUSH2 0x29E4 JUMP JUMPDEST SWAP4 POP PUSH1 0x0 PUSH2 0x2710 PUSH2 0x2508 DUP7 PUSH1 0x2 PUSH1 0x6 ADD SLOAD PUSH2 0x29C3 JUMP JUMPDEST DUP2 ISZERO ISZERO PUSH2 0x2511 JUMPI INVALID JUMPDEST DIV SWAP1 POP DUP5 PUSH1 0x64 PUSH2 0x2526 DUP4 PUSH1 0xA PUSH1 0x5 ADD SLOAD PUSH2 0x29C3 JUMP JUMPDEST DUP2 ISZERO ISZERO PUSH2 0x252F JUMPI INVALID JUMPDEST DIV SWAP5 POP DUP5 PUSH2 0x253D DUP4 DUP8 PUSH2 0x2401 JUMP JUMPDEST SWAP5 POP DUP5 PUSH2 0x254A DUP9 DUP6 PUSH2 0x2401 JUMP JUMPDEST SWAP3 SWAP9 SWAP2 SWAP8 POP SWAP6 POP SWAP1 SWAP4 POP SWAP2 POP POP JUMP JUMPDEST PUSH1 0x2 DUP1 SLOAD PUSH1 0x40 DUP1 MLOAD PUSH1 0x20 PUSH1 0x1F PUSH32 0xFFFFFFFFFFFFFFFFFFFFFFFFFFFFFFFFFFFFFFFFFFFFFFFFFFFFFFFFFFFFFFFF PUSH2 0x100 PUSH1 0x1 DUP8 AND ISZERO MUL ADD SWAP1 SWAP5 AND DUP6 SWAP1 DIV SWAP4 DUP5 ADD DUP2 SWAP1 DIV DUP2 MUL DUP3 ADD DUP2 ADD SWAP1 SWAP3 MSTORE DUP3 DUP2 MSTORE PUSH1 0x60 SWAP4 SWAP1 SWAP3 SWAP1 SWAP2 DUP4 ADD DUP3 DUP3 DUP1 ISZERO PUSH2 0x2600 JUMPI DUP1 PUSH1 0x1F LT PUSH2 0x25D5 JUMPI PUSH2 0x100 DUP1 DUP4 SLOAD DIV MUL DUP4 MSTORE SWAP2 PUSH1 0x20 ADD SWAP2 PUSH2 0x2600 JUMP JUMPDEST DUP3 ADD SWAP2 SWAP1 PUSH1 0x0 MSTORE PUSH1 0x20 PUSH1 0x0 KECCAK256 SWAP1 JUMPDEST DUP2 SLOAD DUP2 MSTORE SWAP1 PUSH1 0x1 ADD SWAP1 PUSH1 0x20 ADD DUP1 DUP4 GT PUSH2 0x25E3 JUMPI DUP3 SWAP1 SUB PUSH1 0x1F AND DUP3 ADD SWAP2 JUMPDEST POP POP PUSH1 0x3 DUP1 SLOAD PUSH1 0x40 DUP1 MLOAD PUSH1 0x20 PUSH1 0x1F PUSH1 0x2 PUSH32 0xFFFFFFFFFFFFFFFFFFFFFFFFFFFFFFFFFFFFFFFFFFFFFFFFFFFFFFFFFFFFFFFF PUSH2 0x100 PUSH1 0x1 DUP9 AND ISZERO MUL ADD SWAP1 SWAP6 AND SWAP5 SWAP1 SWAP5 DIV SWAP4 DUP5 ADD DUP2 SWAP1 DIV DUP2 MUL DUP3 ADD DUP2 ADD SWAP1 SWAP3 MSTORE DUP3 DUP2 MSTORE SWAP7 SWAP8 POP PUSH1 0x60 SWAP7 SWAP6 POP SWAP2 SWAP4 POP SWAP2 POP DUP4 ADD DUP3 DUP3 DUP1 ISZERO PUSH2 0x26B2 JUMPI DUP1 PUSH1 0x1F LT PUSH2 0x2687 JUMPI PUSH2 0x100 DUP1 DUP4 SLOAD DIV MUL DUP4 MSTORE SWAP2 PUSH1 0x20 ADD SWAP2 PUSH2 0x26B2 JUMP JUMPDEST DUP3 ADD SWAP2 SWAP1 PUSH1 0x0 MSTORE PUSH1 0x20 PUSH1 0x0 KECCAK256 SWAP1 JUMPDEST DUP2 SLOAD DUP2 MSTORE SWAP1 PUSH1 0x1 ADD SWAP1 PUSH1 0x20 ADD DUP1 DUP4 GT PUSH2 0x2695 JUMPI DUP3 SWAP1 SUB PUSH1 0x1F AND DUP3 ADD SWAP2 JUMPDEST POP POP PUSH1 0xA SLOAD PUSH1 0x40 DUP1 MLOAD PUSH32 0x26C7A0DE00000000000000000000000000000000000000000000000000000000 DUP2 MSTORE SWAP1 MLOAD SWAP6 SWAP7 POP PUSH20 0xFFFFFFFFFFFFFFFFFFFFFFFFFFFFFFFFFFFFFFFF SWAP1 SWAP2 AND SWAP5 PUSH1 0x0 SWAP5 POP DUP6 SWAP4 POP PUSH4 0x26C7A0DE SWAP3 POP PUSH1 0x4 DUP1 DUP4 ADD SWAP3 PUSH1 0x20 SWAP3 SWAP2 SWAP1 DUP3 SWAP1 SUB ADD DUP2 DUP7 DUP1 EXTCODESIZE ISZERO DUP1 ISZERO PUSH2 0x2729 JUMPI PUSH1 0x0 DUP1 REVERT JUMPDEST POP GAS STATICCALL ISZERO DUP1 ISZERO PUSH2 0x273D JUMPI RETURNDATASIZE PUSH1 0x0 DUP1 RETURNDATACOPY RETURNDATASIZE PUSH1 0x0 REVERT JUMPDEST POP POP POP POP PUSH1 0x40 MLOAD RETURNDATASIZE PUSH1 0x1F NOT PUSH1 0x1F DUP3 ADD AND DUP3 ADD DUP1 PUSH1 0x40 MSTORE POP PUSH2 0x2761 SWAP2 SWAP1 DUP2 ADD SWAP1 PUSH2 0x2C17 JUMP JUMPDEST PUSH1 0x40 MLOAD PUSH32 0x2CC4E4B600000000000000000000000000000000000000000000000000000000 DUP2 MSTORE SWAP1 SWAP2 POP PUSH20 0xFFFFFFFFFFFFFFFFFFFFFFFFFFFFFFFFFFFFFFFF DUP3 AND SWAP1 PUSH4 0x2CC4E4B6 SWAP1 PUSH2 0x27C0 SWAP1 CALLER SWAP1 ADDRESS SWAP1 CALLVALUE SWAP1 DUP12 SWAP1 DUP12 SWAP1 DUP12 SWAP1 PUSH1 0x4 ADD PUSH2 0x307E JUMP JUMPDEST PUSH1 0x20 PUSH1 0x40 MLOAD DUP1 DUP4 SUB DUP2 PUSH1 0x0 DUP8 DUP1 EXTCODESIZE ISZERO DUP1 ISZERO PUSH2 0x27DA JUMPI PUSH1 0x0 DUP1 REVERT JUMPDEST POP GAS CALL ISZERO DUP1 ISZERO PUSH2 0x27EE JUMPI RETURNDATASIZE PUSH1 0x0 DUP1 RETURNDATACOPY RETURNDATASIZE PUSH1 0x0 REVERT JUMPDEST POP POP POP POP PUSH1 0x40 MLOAD RETURNDATASIZE PUSH1 0x1F NOT PUSH1 0x1F DUP3 ADD AND DUP3 ADD DUP1 PUSH1 0x40 MSTORE POP PUSH2 0x186B SWAP2 SWAP1 DUP2 ADD SWAP1 PUSH2 0x2DA3 JUMP JUMPDEST PUSH20 0xFFFFFFFFFFFFFFFFFFFFFFFFFFFFFFFFFFFFFFFF DUP5 AND PUSH1 0x0 SWAP1 DUP2 MSTORE PUSH1 0x1 PUSH1 0x20 MSTORE PUSH1 0x40 SWAP1 KECCAK256 SLOAD PUSH2 0x2842 SWAP1 DUP5 PUSH2 0x293B JUMP JUMPDEST PUSH20 0xFFFFFFFFFFFFFFFFFFFFFFFFFFFFFFFFFFFFFFFF DUP1 DUP7 AND PUSH1 0x0 SWAP1 DUP2 MSTORE PUSH1 0x1 PUSH1 0x20 MSTORE PUSH1 0x40 DUP1 DUP3 KECCAK256 SWAP4 SWAP1 SWAP4 SSTORE PUSH1 0xC SLOAD SWAP1 SWAP2 AND DUP2 MSTORE KECCAK256 SLOAD PUSH2 0x2881 SWAP1 DUP4 PUSH2 0x293B JUMP JUMPDEST PUSH1 0xC SLOAD PUSH20 0xFFFFFFFFFFFFFFFFFFFFFFFFFFFFFFFFFFFFFFFF SWAP1 DUP2 AND PUSH1 0x0 SWAP1 DUP2 MSTORE PUSH1 0x1 PUSH1 0x20 MSTORE PUSH1 0x40 DUP1 DUP3 KECCAK256 SWAP4 SWAP1 SWAP4 SSTORE PUSH1 0xB SLOAD SWAP1 SWAP2 AND DUP2 MSTORE KECCAK256 SLOAD PUSH2 0x28C3 SWAP1 DUP3 PUSH2 0x293B JUMP JUMPDEST PUSH1 0xB SLOAD PUSH20 0xFFFFFFFFFFFFFFFFFFFFFFFFFFFFFFFFFFFFFFFF SWAP1 DUP2 AND PUSH1 0x0 SWAP1 DUP2 MSTORE PUSH1 0x1 PUSH1 0x20 MSTORE PUSH1 0x40 DUP1 DUP3 KECCAK256 SWAP4 SWAP1 SWAP4 SSTORE PUSH1 0x9 SLOAD SWAP7 SWAP1 SWAP2 AND DUP2 MSTORE KECCAK256 PUSH1 0x2 ADD DUP1 SLOAD PUSH32 0xFFFFFFFFFFFFFFFFFFFFFFFFFFFFFFFFFFFFFFFFFFFFFFFFFFFFFFFF00000000 AND PUSH4 0xFFFFFFFF SWAP6 DUP7 AND TIMESTAMP ADD SWAP1 SWAP6 AND SWAP5 SWAP1 SWAP5 OR SWAP1 SWAP4 SSTORE POP POP POP JUMP JUMPDEST PUSH1 0x0 DUP3 DUP3 ADD DUP4 DUP2 LT DUP1 ISZERO SWAP1 PUSH2 0x2950 JUMPI POP DUP3 DUP2 LT ISZERO JUMPDEST ISZERO ISZERO PUSH2 0xCC0 JUMPI INVALID JUMPDEST PUSH1 0xA SLOAD PUSH1 0x40 DUP1 MLOAD PUSH32 0xB74508D100000000000000000000000000000000000000000000000000000000 DUP2 MSTORE SWAP1 MLOAD PUSH1 0x0 SWAP3 PUSH20 0xFFFFFFFFFFFFFFFFFFFFFFFFFFFFFFFFFFFFFFFF AND SWAP2 PUSH4 0xB74508D1 SWAP2 PUSH1 0x4 DUP1 DUP4 ADD SWAP3 PUSH1 0x20 SWAP3 SWAP2 SWAP1 DUP3 SWAP1 SUB ADD DUP2 DUP7 DUP1 EXTCODESIZE ISZERO DUP1 ISZERO PUSH2 0x1A17 JUMPI PUSH1 0x0 DUP1 REVERT JUMPDEST PUSH1 0x0 DUP3 DUP3 MUL DUP4 ISZERO DUP1 PUSH2 0x2950 JUMPI POP DUP3 DUP5 DUP3 DUP2 ISZERO ISZERO PUSH2 0x29DC JUMPI INVALID JUMPDEST DIV EQ PUSH2 0xCC0 JUMPI INVALID JUMPDEST PUSH1 0x0 DUP1 DUP3 GT PUSH2 0x29EF JUMPI INVALID JUMPDEST PUSH1 0x0 DUP3 DUP5 DUP2 ISZERO ISZERO PUSH2 0x29FC JUMPI INVALID JUMPDEST DIV SWAP1 POP DUP3 DUP5 DUP2 ISZERO ISZERO PUSH2 0x2A0A JUMPI INVALID JUMPDEST MOD DUP2 DUP5 MUL ADD DUP5 EQ ISZERO ISZERO PUSH2 0xCC0 JUMPI INVALID JUMPDEST PUSH1 0x0 PUSH2 0xCC0 DUP3 CALLDATALOAD PUSH2 0x32CF JUMP JUMPDEST PUSH1 0x0 PUSH2 0xCC0 DUP3 MLOAD PUSH2 0x32CF JUMP JUMPDEST PUSH1 0x0 DUP1 PUSH1 0x1F DUP4 ADD DUP5 SGT PUSH2 0x2A43 JUMPI PUSH1 0x0 DUP1 REVERT JUMPDEST POP DUP2 CALLDATALOAD PUSH8 0xFFFFFFFFFFFFFFFF DUP2 GT ISZERO PUSH2 0x2A5B JUMPI PUSH1 0x0 DUP1 REVERT JUMPDEST PUSH1 0x20 DUP4 ADD SWAP2 POP DUP4 PUSH1 0x20 DUP3 MUL DUP4 ADD GT ISZERO PUSH2 0x2A73 JUMPI PUSH1 0x0 DUP1 REVERT JUMPDEST SWAP3 POP SWAP3 SWAP1 POP JUMP JUMPDEST PUSH1 0x0 PUSH1 0x1F DUP3 ADD DUP4 SGT PUSH2 0x2A8B JUMPI PUSH1 0x0 DUP1 REVERT JUMPDEST DUP2 CALLDATALOAD PUSH2 0x2A9E PUSH2 0x2A99 DUP3 PUSH2 0x3264 JUMP JUMPDEST PUSH2 0x323D JUMP JUMPDEST DUP2 DUP2 MSTORE PUSH1 0x20 SWAP4 DUP5 ADD SWAP4 SWAP1 SWAP3 POP DUP3 ADD DUP4 PUSH1 0x0 JUMPDEST DUP4 DUP2 LT ISZERO PUSH2 0x2ADC JUMPI DUP2 CALLDATALOAD DUP7 ADD PUSH2 0x2AC6 DUP9 DUP3 PUSH2 0x2B9B JUMP JUMPDEST DUP5 MSTORE POP PUSH1 0x20 SWAP3 DUP4 ADD SWAP3 SWAP2 SWAP1 SWAP2 ADD SWAP1 PUSH1 0x1 ADD PUSH2 0x2AB0 JUMP JUMPDEST POP POP POP POP SWAP3 SWAP2 POP POP JUMP JUMPDEST PUSH1 0x0 PUSH2 0xCC0 DUP3 CALLDATALOAD PUSH2 0x32DA JUMP JUMPDEST PUSH1 0x0 PUSH2 0xCC0 DUP3 MLOAD PUSH2 0x32DA JUMP JUMPDEST PUSH1 0x0 PUSH2 0xCC0 DUP3 CALLDATALOAD PUSH2 0xCCB JUMP JUMPDEST PUSH1 0x0 DUP1 PUSH1 0x1F DUP4 ADD DUP5 SGT PUSH2 0x2B1C JUMPI PUSH1 0x0 DUP1 REVERT JUMPDEST POP DUP2 CALLDATALOAD PUSH8 0xFFFFFFFFFFFFFFFF DUP2 GT ISZERO PUSH2 0x2B34 JUMPI PUSH1 0x0 DUP1 REVERT JUMPDEST PUSH1 0x20 DUP4 ADD SWAP2 POP DUP4 PUSH1 0x1 DUP3 MUL DUP4 ADD GT ISZERO PUSH2 0x2A73 JUMPI PUSH1 0x0 DUP1 REVERT JUMPDEST PUSH1 0x0 PUSH1 0x1F DUP3 ADD DUP4 SGT PUSH2 0x2B5D JUMPI PUSH1 0x0 DUP1 REVERT JUMPDEST DUP2 CALLDATALOAD PUSH2 0x2B6B PUSH2 0x2A99 DUP3 PUSH2 0x3285 JUMP JUMPDEST SWAP2 POP DUP1 DUP3 MSTORE PUSH1 0x20 DUP4 ADD PUSH1 0x20 DUP4 ADD DUP6 DUP4 DUP4 ADD GT ISZERO PUSH2 0x2B87 JUMPI PUSH1 0x0 DUP1 REVERT JUMPDEST PUSH2 0x2B92 DUP4 DUP3 DUP5 PUSH2 0x3337 JUMP JUMPDEST POP POP POP SWAP3 SWAP2 POP POP JUMP JUMPDEST PUSH1 0x0 PUSH1 0x20 DUP3 DUP5 SUB SLT ISZERO PUSH2 0x2BAD JUMPI PUSH1 0x0 DUP1 REVERT JUMPDEST PUSH2 0x2BB7 PUSH1 0x20 PUSH2 0x323D JUMP JUMPDEST SWAP1 POP DUP2 CALLDATALOAD PUSH8 0xFFFFFFFFFFFFFFFF DUP2 GT ISZERO PUSH2 0x2BD0 JUMPI PUSH1 0x0 DUP1 REVERT JUMPDEST PUSH2 0x2BDC DUP5 DUP3 DUP6 ADD PUSH2 0x2B4C JUMP JUMPDEST DUP3 MSTORE POP SWAP3 SWAP2 POP POP JUMP JUMPDEST PUSH1 0x0 PUSH2 0xCC0 DUP3 CALLDATALOAD PUSH2 0x331D JUMP JUMPDEST PUSH1 0x0 PUSH1 0x20 DUP3 DUP5 SUB SLT ISZERO PUSH2 0x2C03 JUMPI PUSH1 0x0 DUP1 REVERT JUMPDEST PUSH1 0x0 PUSH2 0x2C0F DUP5 DUP5 PUSH2 0x2A19 JUMP JUMPDEST SWAP5 SWAP4 POP POP POP POP JUMP JUMPDEST PUSH1 0x0 PUSH1 0x20 DUP3 DUP5 SUB SLT ISZERO PUSH2 0x2C29 JUMPI PUSH1 0x0 DUP1 REVERT JUMPDEST PUSH1 0x0 PUSH2 0x2C0F DUP5 DUP5 PUSH2 0x2A25 JUMP JUMPDEST PUSH1 0x0 DUP1 PUSH1 0x0 PUSH1 0x60 DUP5 DUP7 SUB SLT ISZERO PUSH2 0x2C4A JUMPI PUSH1 0x0 DUP1 REVERT JUMPDEST PUSH1 0x0 PUSH2 0x2C56 DUP7 DUP7 PUSH2 0x2A19 JUMP JUMPDEST SWAP4 POP POP PUSH1 0x20 PUSH2 0x2C67 DUP7 DUP3 DUP8 ADD PUSH2 0x2A19 JUMP JUMPDEST SWAP3 POP POP PUSH1 0x40 PUSH2 0x2C78 DUP7 DUP3 DUP8 ADD PUSH2 0x2AFE JUMP JUMPDEST SWAP2 POP POP SWAP3 POP SWAP3 POP SWAP3 JUMP JUMPDEST PUSH1 0x0 DUP1 PUSH1 0x0 DUP1 PUSH1 0x0 PUSH1 0x60 DUP7 DUP9 SUB SLT ISZERO PUSH2 0x2C9A JUMPI PUSH1 0x0 DUP1 REVERT JUMPDEST PUSH1 0x0 PUSH2 0x2CA6 DUP9 DUP9 PUSH2 0x2A19 JUMP JUMPDEST SWAP6 POP POP PUSH1 0x20 DUP7 ADD CALLDATALOAD PUSH8 0xFFFFFFFFFFFFFFFF DUP2 GT ISZERO PUSH2 0x2CC3 JUMPI PUSH1 0x0 DUP1 REVERT JUMPDEST PUSH2 0x2CCF DUP9 DUP3 DUP10 ADD PUSH2 0x2A31 JUMP JUMPDEST SWAP5 POP SWAP5 POP POP PUSH1 0x40 DUP7 ADD CALLDATALOAD PUSH8 0xFFFFFFFFFFFFFFFF DUP2 GT ISZERO PUSH2 0x2CEE JUMPI PUSH1 0x0 DUP1 REVERT JUMPDEST PUSH2 0x2CFA DUP9 DUP3 DUP10 ADD PUSH2 0x2A31 JUMP JUMPDEST SWAP3 POP SWAP3 POP POP SWAP3 SWAP6 POP SWAP3 SWAP6 SWAP1 SWAP4 POP JUMP JUMPDEST PUSH1 0x0 DUP1 PUSH1 0x40 DUP4 DUP6 SUB SLT ISZERO PUSH2 0x2D1C JUMPI PUSH1 0x0 DUP1 REVERT JUMPDEST PUSH1 0x0 PUSH2 0x2D28 DUP6 DUP6 PUSH2 0x2A19 JUMP JUMPDEST SWAP3 POP POP PUSH1 0x20 DUP4 ADD CALLDATALOAD PUSH8 0xFFFFFFFFFFFFFFFF DUP2 GT ISZERO PUSH2 0x2D45 JUMPI PUSH1 0x0 DUP1 REVERT JUMPDEST PUSH2 0x2D51 DUP6 DUP3 DUP7 ADD PUSH2 0x2A7A JUMP JUMPDEST SWAP2 POP POP SWAP3 POP SWAP3 SWAP1 POP JUMP JUMPDEST PUSH1 0x0 DUP1 PUSH1 0x40 DUP4 DUP6 SUB SLT ISZERO PUSH2 0x2D6E JUMPI PUSH1 0x0 DUP1 REVERT JUMPDEST PUSH1 0x0 PUSH2 0x2D7A DUP6 DUP6 PUSH2 0x2A19 JUMP JUMPDEST SWAP3 POP POP PUSH1 0x20 DUP4 ADD CALLDATALOAD PUSH8 0xFFFFFFFFFFFFFFFF DUP2 GT ISZERO PUSH2 0x2D97 JUMPI PUSH1 0x0 DUP1 REVERT JUMPDEST PUSH2 0x2D51 DUP6 DUP3 DUP7 ADD PUSH2 0x2B9B JUMP JUMPDEST PUSH1 0x0 PUSH1 0x20 DUP3 DUP5 SUB SLT ISZERO PUSH2 0x2DB5 JUMPI PUSH1 0x0 DUP1 REVERT JUMPDEST PUSH1 0x0 PUSH2 0x2C0F DUP5 DUP5 PUSH2 0x2AF2 JUMP JUMPDEST PUSH1 0x0 DUP1 PUSH1 0x40 DUP4 DUP6 SUB SLT ISZERO PUSH2 0x2DD4 JUMPI PUSH1 0x0 DUP1 REVERT JUMPDEST PUSH1 0x0 PUSH2 0x2DE0 DUP6 DUP6 PUSH2 0x2AE6 JUMP JUMPDEST SWAP3 POP POP PUSH1 0x20 PUSH2 0x2D51 DUP6 DUP3 DUP7 ADD PUSH2 0x2A19 JUMP JUMPDEST PUSH1 0x0 DUP1 PUSH1 0x0 PUSH1 0x40 DUP5 DUP7 SUB SLT ISZERO PUSH2 0x2E06 JUMPI PUSH1 0x0 DUP1 REVERT JUMPDEST PUSH1 0x0 PUSH2 0x2E12 DUP7 DUP7 PUSH2 0x2AFE JUMP JUMPDEST SWAP4 POP POP PUSH1 0x20 DUP5 ADD CALLDATALOAD PUSH8 0xFFFFFFFFFFFFFFFF DUP2 GT ISZERO PUSH2 0x2E2F JUMPI PUSH1 0x0 DUP1 REVERT JUMPDEST PUSH2 0x2E3B DUP7 DUP3 DUP8 ADD PUSH2 0x2B0A JUMP JUMPDEST SWAP3 POP SWAP3 POP POP SWAP3 POP SWAP3 POP SWAP3 JUMP JUMPDEST PUSH1 0x0 PUSH1 0x20 DUP3 DUP5 SUB SLT ISZERO PUSH2 0x2E59 JUMPI PUSH1 0x0 DUP1 REVERT JUMPDEST PUSH1 0x0 PUSH2 0x2C0F DUP5 DUP5 PUSH2 0x2AFE JUMP JUMPDEST PUSH1 0x0 DUP1 PUSH1 0x0 DUP1 PUSH1 0x0 DUP1 PUSH1 0xA0 DUP8 DUP10 SUB SLT ISZERO PUSH2 0x2E7E JUMPI PUSH1 0x0 DUP1 REVERT JUMPDEST PUSH1 0x0 PUSH2 0x2E8A DUP10 DUP10 PUSH2 0x2AFE JUMP JUMPDEST SWAP7 POP POP PUSH1 0x20 PUSH2 0x2E9B DUP10 DUP3 DUP11 ADD PUSH2 0x2AFE JUMP JUMPDEST SWAP6 POP POP PUSH1 0x40 PUSH2 0x2EAC DUP10 DUP3 DUP11 ADD PUSH2 0x2AFE JUMP JUMPDEST SWAP5 POP POP PUSH1 0x60 PUSH2 0x2EBD DUP10 DUP3 DUP11 ADD PUSH2 0x2AFE JUMP JUMPDEST SWAP4 POP POP PUSH1 0x80 DUP8 ADD CALLDATALOAD PUSH8 0xFFFFFFFFFFFFFFFF DUP2 GT ISZERO PUSH2 0x2EDA JUMPI PUSH1 0x0 DUP1 REVERT JUMPDEST PUSH2 0x2EE6 DUP10 DUP3 DUP11 ADD PUSH2 0x2B0A JUMP JUMPDEST SWAP3 POP SWAP3 POP POP SWAP3 SWAP6 POP SWAP3 SWAP6 POP SWAP3 SWAP6 JUMP JUMPDEST PUSH1 0x0 PUSH1 0x20 DUP3 DUP5 SUB SLT ISZERO PUSH2 0x2F07 JUMPI PUSH1 0x0 DUP1 REVERT JUMPDEST PUSH1 0x0 PUSH2 0x2C0F DUP5 DUP5 PUSH2 0x2BE5 JUMP JUMPDEST PUSH2 0x2F1C DUP2 PUSH2 0x3326 JUMP JUMPDEST DUP3 MSTORE POP POP JUMP JUMPDEST PUSH2 0x2F1C DUP2 PUSH2 0x32CF JUMP JUMPDEST PUSH2 0x2F1C DUP2 PUSH2 0x32DA JUMP JUMPDEST PUSH2 0x2F1C DUP2 PUSH2 0xCCB JUMP JUMPDEST PUSH2 0x2F1C DUP2 PUSH2 0x32DF JUMP JUMPDEST PUSH1 0x0 DUP3 DUP5 MSTORE PUSH1 0x20 DUP5 ADD SWAP4 POP PUSH2 0x2F5C DUP4 DUP6 DUP5 PUSH2 0x3337 JUMP JUMPDEST PUSH2 0x2F65 DUP4 PUSH2 0x3373 JUMP JUMPDEST SWAP1 SWAP4 ADD SWAP4 SWAP3 POP POP POP JUMP JUMPDEST PUSH1 0x0 PUSH2 0x2F7A DUP3 PUSH2 0x32CB JUMP JUMPDEST DUP1 DUP5 MSTORE PUSH2 0x2F8E DUP2 PUSH1 0x20 DUP7 ADD PUSH1 0x20 DUP7 ADD PUSH2 0x3343 JUMP JUMPDEST PUSH2 0x2F97 DUP2 PUSH2 0x3373 JUMP JUMPDEST SWAP1 SWAP4 ADD PUSH1 0x20 ADD SWAP4 SWAP3 POP POP POP JUMP JUMPDEST PUSH1 0x12 DUP2 MSTORE PUSH32 0x5245454E5452414E43595F494C4C4547414C0000000000000000000000000000 PUSH1 0x20 DUP3 ADD MSTORE PUSH1 0x40 ADD SWAP1 JUMP JUMPDEST PUSH2 0x2F1C DUP2 PUSH2 0x331D JUMP JUMPDEST PUSH1 0x20 DUP2 ADD PUSH2 0x1B96 DUP3 DUP5 PUSH2 0x2F22 JUMP JUMPDEST PUSH1 0x20 DUP2 ADD PUSH2 0x1B96 DUP3 DUP5 PUSH2 0x2F13 JUMP JUMPDEST PUSH1 0x60 DUP2 ADD PUSH2 0x3007 DUP3 DUP7 PUSH2 0x2F13 JUMP JUMPDEST PUSH2 0x3014 PUSH1 0x20 DUP4 ADD DUP6 PUSH2 0x2F13 JUMP JUMPDEST PUSH2 0x2C0F PUSH1 0x40 DUP4 ADD DUP5 PUSH2 0x2F22 JUMP JUMPDEST PUSH1 0x60 DUP2 ADD PUSH2 0x302F DUP3 DUP7 PUSH2 0x2F13 JUMP JUMPDEST PUSH2 0x303C PUSH1 0x20 DUP4 ADD DUP6 PUSH2 0x2F13 JUMP JUMPDEST PUSH2 0x2C0F PUSH1 0x40 DUP4 ADD DUP5 PUSH2 0x2F34 JUMP JUMPDEST PUSH1 0x80 DUP2 ADD PUSH2 0x3057 DUP3 DUP8 PUSH2 0x2F13 JUMP JUMPDEST PUSH2 0x3064 PUSH1 0x20 DUP4 ADD DUP7 PUSH2 0x2F13 JUMP JUMPDEST PUSH2 0x3071 PUSH1 0x40 DUP4 ADD DUP6 PUSH2 0x2F34 JUMP JUMPDEST PUSH2 0x1FC8 PUSH1 0x60 DUP4 ADD DUP5 PUSH2 0x2F34 JUMP JUMPDEST PUSH1 0xC0 DUP2 ADD PUSH2 0x308C DUP3 DUP10 PUSH2 0x2F13 JUMP JUMPDEST PUSH2 0x3099 PUSH1 0x20 DUP4 ADD DUP9 PUSH2 0x2F13 JUMP JUMPDEST PUSH2 0x30A6 PUSH1 0x40 DUP4 ADD DUP8 PUSH2 0x2F34 JUMP JUMPDEST PUSH2 0x30B3 PUSH1 0x60 DUP4 ADD DUP7 PUSH2 0x2F34 JUMP JUMPDEST DUP2 DUP2 SUB PUSH1 0x80 DUP4 ADD MSTORE PUSH2 0x30C5 DUP2 DUP6 PUSH2 0x2F6F JUMP JUMPDEST SWAP1 POP DUP2 DUP2 SUB PUSH1 0xA0 DUP4 ADD MSTORE PUSH2 0x30D9 DUP2 DUP5 PUSH2 0x2F6F JUMP JUMPDEST SWAP9 SWAP8 POP POP POP POP POP POP POP POP JUMP JUMPDEST PUSH1 0xC0 DUP2 ADD PUSH2 0x30F3 DUP3 DUP10 PUSH2 0x2F22 JUMP JUMPDEST PUSH2 0x3100 PUSH1 0x20 DUP4 ADD DUP9 PUSH2 0x2F22 JUMP JUMPDEST PUSH2 0x310D PUSH1 0x40 DUP4 ADD DUP8 PUSH2 0x2F22 JUMP JUMPDEST PUSH2 0x311A PUSH1 0x60 DUP4 ADD DUP7 PUSH2 0x2F34 JUMP JUMPDEST PUSH2 0x3127 PUSH1 0x80 DUP4 ADD DUP6 PUSH2 0x2F34 JUMP JUMPDEST PUSH2 0x3134 PUSH1 0xA0 DUP4 ADD DUP5 PUSH2 0x2FD4 JUMP JUMPDEST SWAP8 SWAP7 POP POP POP POP POP POP POP JUMP JUMPDEST PUSH1 0x40 DUP2 ADD PUSH2 0x314D DUP3 DUP6 PUSH2 0x2F22 JUMP JUMPDEST PUSH2 0xCC0 PUSH1 0x20 DUP4 ADD DUP5 PUSH2 0x2F34 JUMP JUMPDEST PUSH1 0x20 DUP2 ADD PUSH2 0x1B96 DUP3 DUP5 PUSH2 0x2F2B JUMP JUMPDEST PUSH1 0x40 DUP2 ADD PUSH2 0x3176 DUP3 DUP7 PUSH2 0x2F34 JUMP JUMPDEST DUP2 DUP2 SUB PUSH1 0x20 DUP4 ADD MSTORE PUSH2 0x1FC8 DUP2 DUP5 DUP7 PUSH2 0x2F46 JUMP JUMPDEST PUSH1 0x40 DUP2 ADD PUSH2 0x3197 DUP3 DUP6 PUSH2 0x2F3D JUMP JUMPDEST PUSH2 0xCC0 PUSH1 0x20 DUP4 ADD DUP5 PUSH2 0x2F22 JUMP JUMPDEST PUSH1 0x80 DUP1 DUP3 MSTORE DUP2 ADD PUSH2 0x31B5 DUP2 DUP8 PUSH2 0x2F6F JUMP JUMPDEST SWAP1 POP DUP2 DUP2 SUB PUSH1 0x20 DUP4 ADD MSTORE PUSH2 0x31C9 DUP2 DUP7 PUSH2 0x2F6F JUMP JUMPDEST SWAP1 POP PUSH2 0x3071 PUSH1 0x40 DUP4 ADD DUP6 PUSH2 0x2F34 JUMP JUMPDEST PUSH1 0x20 DUP1 DUP3 MSTORE DUP2 ADD PUSH2 0x1B96 DUP2 PUSH2 0x2FA4 JUMP JUMPDEST PUSH1 0x20 DUP2 ADD PUSH2 0x1B96 DUP3 DUP5 PUSH2 0x2F34 JUMP JUMPDEST PUSH1 0xA0 DUP2 ADD PUSH2 0x3204 DUP3 DUP9 PUSH2 0x2F34 JUMP JUMPDEST PUSH2 0x3211 PUSH1 0x20 DUP4 ADD DUP8 PUSH2 0x2F34 JUMP JUMPDEST PUSH2 0x321E PUSH1 0x40 DUP4 ADD DUP7 PUSH2 0x2F34 JUMP JUMPDEST PUSH2 0x322B PUSH1 0x60 DUP4 ADD DUP6 PUSH2 0x2F34 JUMP JUMPDEST DUP2 DUP2 SUB PUSH1 0x80 DUP4 ADD MSTORE PUSH2 0x3134 DUP2 DUP5 PUSH2 0x2F6F JUMP JUMPDEST PUSH1 0x40 MLOAD DUP2 DUP2 ADD PUSH8 0xFFFFFFFFFFFFFFFF DUP2 GT DUP3 DUP3 LT OR ISZERO PUSH2 0x325C JUMPI PUSH1 0x0 DUP1 REVERT JUMPDEST PUSH1 0x40 MSTORE SWAP2 SWAP1 POP JUMP JUMPDEST PUSH1 0x0 PUSH8 0xFFFFFFFFFFFFFFFF DUP3 GT ISZERO PUSH2 0x327B JUMPI PUSH1 0x0 DUP1 REVERT JUMPDEST POP PUSH1 0x20 SWAP1 DUP2 MUL ADD SWAP1 JUMP JUMPDEST PUSH1 0x0 PUSH8 0xFFFFFFFFFFFFFFFF DUP3 GT ISZERO PUSH2 0x329C JUMPI PUSH1 0x0 DUP1 REVERT JUMPDEST POP PUSH1 0x20 PUSH1 0x1F SWAP2 SWAP1 SWAP2 ADD PUSH32 0xFFFFFFFFFFFFFFFFFFFFFFFFFFFFFFFFFFFFFFFFFFFFFFFFFFFFFFFFFFFFFFE0 AND ADD SWAP1 JUMP JUMPDEST MLOAD SWAP1 JUMP JUMPDEST PUSH1 0x0 PUSH2 0x1B96 DUP3 PUSH2 0x3304 JUMP JUMPDEST ISZERO ISZERO SWAP1 JUMP JUMPDEST PUSH32 0xFFFFFFFF00000000000000000000000000000000000000000000000000000000 AND SWAP1 JUMP JUMPDEST PUSH20 0xFFFFFFFFFFFFFFFFFFFFFFFFFFFFFFFFFFFFFFFF AND SWAP1 JUMP JUMPDEST PUSH4 0xFFFFFFFF AND SWAP1 JUMP JUMPDEST PUSH1 0x0 PUSH2 0x1B96 DUP3 PUSH1 0x0 PUSH2 0x1B96 DUP3 PUSH2 0x32CF JUMP JUMPDEST DUP3 DUP2 DUP4 CALLDATACOPY POP PUSH1 0x0 SWAP2 ADD MSTORE JUMP JUMPDEST PUSH1 0x0 JUMPDEST DUP4 DUP2 LT ISZERO PUSH2 0x335E JUMPI DUP2 DUP2 ADD MLOAD DUP4 DUP3 ADD MSTORE PUSH1 0x20 ADD PUSH2 0x3346 JUMP JUMPDEST DUP4 DUP2 GT ISZERO PUSH2 0x336D JUMPI PUSH1 0x0 DUP5 DUP5 ADD MSTORE JUMPDEST POP POP POP POP JUMP JUMPDEST PUSH1 0x1F ADD PUSH32 0xFFFFFFFFFFFFFFFFFFFFFFFFFFFFFFFFFFFFFFFFFFFFFFFFFFFFFFFFFFFFFFE0 AND SWAP1 JUMP INVALID LOG2 PUSH6 0x627A7A723058 KECCAK256 0x5d GASPRICE 0xc5 SWAP16 SWAP3 DUP5 0xed 0x24 SWAP11 PUSH27 0x6BA1F0AF0FA5625B4B6DAB1A2B62514CAF43AE3B682A6C65787065 PUSH19 0x696D656E74616CF50037000000000000000000 "
			}
		}
	},
	"sourceTreeHashHex": "0x12e18aac75c9619ef89d140cf904853369bfb5b589a369bd741df124ac4a8338",
	"compiler": {
		"name": "solc",
		"version": "0.5.0+commit.1d4f565a",
		"settings": {
			"remappings": [],
			"optimizer": {
				"enabled": true,
				"runs": 1000000
			},
			"outputSelection": {
				"*": {
					"*": [
						"abi",
						"devdoc",
						"evm.bytecode.object",
						"evm.bytecode.sourceMap",
						"evm.deployedBytecode.object",
						"evm.deployedBytecode.sourceMap"
					]
				}
			}
		}
	},
	"chains": {}
}