{
	"schemaVersion": "2.0.0",
	"contractName": "Exchange",
	"compilerOutput": {
		"abi": [
			{
				"constant": true,
				"inputs": [
					{
						"name": "",
						"type": "bytes32"
					}
				],
				"name": "filled",
				"outputs": [
					{
						"name": "",
						"type": "uint256"
					}
				],
				"payable": false,
				"stateMutability": "view",
				"type": "function"
			},
			{
				"constant": false,
				"inputs": [
					{
						"components": [
							{
								"name": "makerAddress",
								"type": "address"
							},
							{
								"name": "takerAddress",
								"type": "address"
							},
							{
								"name": "feeRecipientAddress",
								"type": "address"
							},
							{
								"name": "senderAddress",
								"type": "address"
							},
							{
								"name": "makerAssetAmount",
								"type": "uint256"
							},
							{
								"name": "takerAssetAmount",
								"type": "uint256"
							},
							{
								"name": "makerFee",
								"type": "uint256"
							},
							{
								"name": "takerFee",
								"type": "uint256"
							},
							{
								"name": "expirationTimeSeconds",
								"type": "uint256"
							},
							{
								"name": "salt",
								"type": "uint256"
							},
							{
								"name": "makerAssetData",
								"type": "bytes"
							},
							{
								"name": "takerAssetData",
								"type": "bytes"
							}
						],
						"name": "orders",
						"type": "tuple[]"
					},
					{
						"name": "takerAssetFillAmounts",
						"type": "uint256[]"
					},
					{
						"name": "signatures",
						"type": "bytes[]"
					}
				],
				"name": "batchFillOrders",
				"outputs": [
					{
						"components": [
							{
								"name": "makerAssetFilledAmount",
								"type": "uint256"
							},
							{
								"name": "takerAssetFilledAmount",
								"type": "uint256"
							},
							{
								"name": "makerFeePaid",
								"type": "uint256"
							},
							{
								"name": "takerFeePaid",
								"type": "uint256"
							}
						],
						"name": "totalFillResults",
						"type": "tuple"
					}
				],
				"payable": false,
				"stateMutability": "nonpayable",
				"type": "function"
			},
			{
				"constant": true,
				"inputs": [
					{
						"name": "",
						"type": "bytes32"
					}
				],
				"name": "cancelled",
				"outputs": [
					{
						"name": "",
						"type": "bool"
					}
				],
				"payable": false,
				"stateMutability": "view",
				"type": "function"
			},
			{
				"constant": false,
				"inputs": [
					{
						"name": "hash",
						"type": "bytes32"
					},
					{
						"name": "signerAddress",
						"type": "address"
					},
					{
						"name": "signature",
						"type": "bytes"
					}
				],
				"name": "preSign",
				"outputs": [],
				"payable": false,
				"stateMutability": "nonpayable",
				"type": "function"
			},
			{
				"constant": false,
				"inputs": [
					{
						"components": [
							{
								"name": "makerAddress",
								"type": "address"
							},
							{
								"name": "takerAddress",
								"type": "address"
							},
							{
								"name": "feeRecipientAddress",
								"type": "address"
							},
							{
								"name": "senderAddress",
								"type": "address"
							},
							{
								"name": "makerAssetAmount",
								"type": "uint256"
							},
							{
								"name": "takerAssetAmount",
								"type": "uint256"
							},
							{
								"name": "makerFee",
								"type": "uint256"
							},
							{
								"name": "takerFee",
								"type": "uint256"
							},
							{
								"name": "expirationTimeSeconds",
								"type": "uint256"
							},
							{
								"name": "salt",
								"type": "uint256"
							},
							{
								"name": "makerAssetData",
								"type": "bytes"
							},
							{
								"name": "takerAssetData",
								"type": "bytes"
							}
						],
						"name": "leftOrder",
						"type": "tuple"
					},
					{
						"components": [
							{
								"name": "makerAddress",
								"type": "address"
							},
							{
								"name": "takerAddress",
								"type": "address"
							},
							{
								"name": "feeRecipientAddress",
								"type": "address"
							},
							{
								"name": "senderAddress",
								"type": "address"
							},
							{
								"name": "makerAssetAmount",
								"type": "uint256"
							},
							{
								"name": "takerAssetAmount",
								"type": "uint256"
							},
							{
								"name": "makerFee",
								"type": "uint256"
							},
							{
								"name": "takerFee",
								"type": "uint256"
							},
							{
								"name": "expirationTimeSeconds",
								"type": "uint256"
							},
							{
								"name": "salt",
								"type": "uint256"
							},
							{
								"name": "makerAssetData",
								"type": "bytes"
							},
							{
								"name": "takerAssetData",
								"type": "bytes"
							}
						],
						"name": "rightOrder",
						"type": "tuple"
					},
					{
						"name": "leftSignature",
						"type": "bytes"
					},
					{
						"name": "rightSignature",
						"type": "bytes"
					}
				],
				"name": "matchOrders",
				"outputs": [
					{
						"components": [
							{
								"components": [
									{
										"name": "makerAssetFilledAmount",
										"type": "uint256"
									},
									{
										"name": "takerAssetFilledAmount",
										"type": "uint256"
									},
									{
										"name": "makerFeePaid",
										"type": "uint256"
									},
									{
										"name": "takerFeePaid",
										"type": "uint256"
									}
								],
								"name": "left",
								"type": "tuple"
							},
							{
								"components": [
									{
										"name": "makerAssetFilledAmount",
										"type": "uint256"
									},
									{
										"name": "takerAssetFilledAmount",
										"type": "uint256"
									},
									{
										"name": "makerFeePaid",
										"type": "uint256"
									},
									{
										"name": "takerFeePaid",
										"type": "uint256"
									}
								],
								"name": "right",
								"type": "tuple"
							},
							{
								"name": "leftMakerAssetSpreadAmount",
								"type": "uint256"
							}
						],
						"name": "matchedFillResults",
						"type": "tuple"
					}
				],
				"payable": false,
				"stateMutability": "nonpayable",
				"type": "function"
			},
			{
				"constant": false,
				"inputs": [
					{
						"components": [
							{
								"name": "makerAddress",
								"type": "address"
							},
							{
								"name": "takerAddress",
								"type": "address"
							},
							{
								"name": "feeRecipientAddress",
								"type": "address"
							},
							{
								"name": "senderAddress",
								"type": "address"
							},
							{
								"name": "makerAssetAmount",
								"type": "uint256"
							},
							{
								"name": "takerAssetAmount",
								"type": "uint256"
							},
							{
								"name": "makerFee",
								"type": "uint256"
							},
							{
								"name": "takerFee",
								"type": "uint256"
							},
							{
								"name": "expirationTimeSeconds",
								"type": "uint256"
							},
							{
								"name": "salt",
								"type": "uint256"
							},
							{
								"name": "makerAssetData",
								"type": "bytes"
							},
							{
								"name": "takerAssetData",
								"type": "bytes"
							}
						],
						"name": "order",
						"type": "tuple"
					},
					{
						"name": "takerAssetFillAmount",
						"type": "uint256"
					},
					{
						"name": "signature",
						"type": "bytes"
					}
				],
				"name": "fillOrderNoThrow",
				"outputs": [
					{
						"components": [
							{
								"name": "makerAssetFilledAmount",
								"type": "uint256"
							},
							{
								"name": "takerAssetFilledAmount",
								"type": "uint256"
							},
							{
								"name": "makerFeePaid",
								"type": "uint256"
							},
							{
								"name": "takerFeePaid",
								"type": "uint256"
							}
						],
						"name": "fillResults",
						"type": "tuple"
					}
				],
				"payable": false,
				"stateMutability": "nonpayable",
				"type": "function"
			},
			{
				"constant": true,
				"inputs": [
					{
						"name": "",
						"type": "bytes4"
					}
				],
				"name": "assetProxies",
				"outputs": [
					{
						"name": "",
						"type": "address"
					}
				],
				"payable": false,
				"stateMutability": "view",
				"type": "function"
			},
			{
				"constant": false,
				"inputs": [
					{
						"components": [
							{
								"name": "makerAddress",
								"type": "address"
							},
							{
								"name": "takerAddress",
								"type": "address"
							},
							{
								"name": "feeRecipientAddress",
								"type": "address"
							},
							{
								"name": "senderAddress",
								"type": "address"
							},
							{
								"name": "makerAssetAmount",
								"type": "uint256"
							},
							{
								"name": "takerAssetAmount",
								"type": "uint256"
							},
							{
								"name": "makerFee",
								"type": "uint256"
							},
							{
								"name": "takerFee",
								"type": "uint256"
							},
							{
								"name": "expirationTimeSeconds",
								"type": "uint256"
							},
							{
								"name": "salt",
								"type": "uint256"
							},
							{
								"name": "makerAssetData",
								"type": "bytes"
							},
							{
								"name": "takerAssetData",
								"type": "bytes"
							}
						],
						"name": "orders",
						"type": "tuple[]"
					}
				],
				"name": "batchCancelOrders",
				"outputs": [],
				"payable": false,
				"stateMutability": "nonpayable",
				"type": "function"
			},
			{
				"constant": false,
				"inputs": [
					{
						"components": [
							{
								"name": "makerAddress",
								"type": "address"
							},
							{
								"name": "takerAddress",
								"type": "address"
							},
							{
								"name": "feeRecipientAddress",
								"type": "address"
							},
							{
								"name": "senderAddress",
								"type": "address"
							},
							{
								"name": "makerAssetAmount",
								"type": "uint256"
							},
							{
								"name": "takerAssetAmount",
								"type": "uint256"
							},
							{
								"name": "makerFee",
								"type": "uint256"
							},
							{
								"name": "takerFee",
								"type": "uint256"
							},
							{
								"name": "expirationTimeSeconds",
								"type": "uint256"
							},
							{
								"name": "salt",
								"type": "uint256"
							},
							{
								"name": "makerAssetData",
								"type": "bytes"
							},
							{
								"name": "takerAssetData",
								"type": "bytes"
							}
						],
						"name": "orders",
						"type": "tuple[]"
					},
					{
						"name": "takerAssetFillAmounts",
						"type": "uint256[]"
					},
					{
						"name": "signatures",
						"type": "bytes[]"
					}
				],
				"name": "batchFillOrKillOrders",
				"outputs": [
					{
						"components": [
							{
								"name": "makerAssetFilledAmount",
								"type": "uint256"
							},
							{
								"name": "takerAssetFilledAmount",
								"type": "uint256"
							},
							{
								"name": "makerFeePaid",
								"type": "uint256"
							},
							{
								"name": "takerFeePaid",
								"type": "uint256"
							}
						],
						"name": "totalFillResults",
						"type": "tuple"
					}
				],
				"payable": false,
				"stateMutability": "nonpayable",
				"type": "function"
			},
			{
				"constant": false,
				"inputs": [
					{
						"name": "targetOrderEpoch",
						"type": "uint256"
					}
				],
				"name": "cancelOrdersUpTo",
				"outputs": [],
				"payable": false,
				"stateMutability": "nonpayable",
				"type": "function"
			},
			{
				"constant": false,
				"inputs": [
					{
						"components": [
							{
								"name": "makerAddress",
								"type": "address"
							},
							{
								"name": "takerAddress",
								"type": "address"
							},
							{
								"name": "feeRecipientAddress",
								"type": "address"
							},
							{
								"name": "senderAddress",
								"type": "address"
							},
							{
								"name": "makerAssetAmount",
								"type": "uint256"
							},
							{
								"name": "takerAssetAmount",
								"type": "uint256"
							},
							{
								"name": "makerFee",
								"type": "uint256"
							},
							{
								"name": "takerFee",
								"type": "uint256"
							},
							{
								"name": "expirationTimeSeconds",
								"type": "uint256"
							},
							{
								"name": "salt",
								"type": "uint256"
							},
							{
								"name": "makerAssetData",
								"type": "bytes"
							},
							{
								"name": "takerAssetData",
								"type": "bytes"
							}
						],
						"name": "orders",
						"type": "tuple[]"
					},
					{
						"name": "takerAssetFillAmounts",
						"type": "uint256[]"
					},
					{
						"name": "signatures",
						"type": "bytes[]"
					}
				],
				"name": "batchFillOrdersNoThrow",
				"outputs": [
					{
						"components": [
							{
								"name": "makerAssetFilledAmount",
								"type": "uint256"
							},
							{
								"name": "takerAssetFilledAmount",
								"type": "uint256"
							},
							{
								"name": "makerFeePaid",
								"type": "uint256"
							},
							{
								"name": "takerFeePaid",
								"type": "uint256"
							}
						],
						"name": "totalFillResults",
						"type": "tuple"
					}
				],
				"payable": false,
				"stateMutability": "nonpayable",
				"type": "function"
			},
			{
				"constant": true,
				"inputs": [
					{
						"name": "assetProxyId",
						"type": "bytes4"
					}
				],
				"name": "getAssetProxy",
				"outputs": [
					{
						"name": "",
						"type": "address"
					}
				],
				"payable": false,
				"stateMutability": "view",
				"type": "function"
			},
			{
				"constant": true,
				"inputs": [
					{
						"name": "",
						"type": "bytes32"
					}
				],
				"name": "transactions",
				"outputs": [
					{
						"name": "",
						"type": "bool"
					}
				],
				"payable": false,
				"stateMutability": "view",
				"type": "function"
			},
			{
				"constant": false,
				"inputs": [
					{
						"components": [
							{
								"name": "makerAddress",
								"type": "address"
							},
							{
								"name": "takerAddress",
								"type": "address"
							},
							{
								"name": "feeRecipientAddress",
								"type": "address"
							},
							{
								"name": "senderAddress",
								"type": "address"
							},
							{
								"name": "makerAssetAmount",
								"type": "uint256"
							},
							{
								"name": "takerAssetAmount",
								"type": "uint256"
							},
							{
								"name": "makerFee",
								"type": "uint256"
							},
							{
								"name": "takerFee",
								"type": "uint256"
							},
							{
								"name": "expirationTimeSeconds",
								"type": "uint256"
							},
							{
								"name": "salt",
								"type": "uint256"
							},
							{
								"name": "makerAssetData",
								"type": "bytes"
							},
							{
								"name": "takerAssetData",
								"type": "bytes"
							}
						],
						"name": "order",
						"type": "tuple"
					},
					{
						"name": "takerAssetFillAmount",
						"type": "uint256"
					},
					{
						"name": "signature",
						"type": "bytes"
					}
				],
				"name": "fillOrKillOrder",
				"outputs": [
					{
						"components": [
							{
								"name": "makerAssetFilledAmount",
								"type": "uint256"
							},
							{
								"name": "takerAssetFilledAmount",
								"type": "uint256"
							},
							{
								"name": "makerFeePaid",
								"type": "uint256"
							},
							{
								"name": "takerFeePaid",
								"type": "uint256"
							}
						],
						"name": "fillResults",
						"type": "tuple"
					}
				],
				"payable": false,
				"stateMutability": "nonpayable",
				"type": "function"
			},
			{
				"constant": false,
				"inputs": [
					{
						"name": "validatorAddress",
						"type": "address"
					},
					{
						"name": "approval",
						"type": "bool"
					}
				],
				"name": "setSignatureValidatorApproval",
				"outputs": [],
				"payable": false,
				"stateMutability": "nonpayable",
				"type": "function"
			},
			{
				"constant": true,
				"inputs": [
					{
						"name": "",
						"type": "address"
					},
					{
						"name": "",
						"type": "address"
					}
				],
				"name": "allowedValidators",
				"outputs": [
					{
						"name": "",
						"type": "bool"
					}
				],
				"payable": false,
				"stateMutability": "view",
				"type": "function"
			},
			{
				"constant": false,
				"inputs": [
					{
						"components": [
							{
								"name": "makerAddress",
								"type": "address"
							},
							{
								"name": "takerAddress",
								"type": "address"
							},
							{
								"name": "feeRecipientAddress",
								"type": "address"
							},
							{
								"name": "senderAddress",
								"type": "address"
							},
							{
								"name": "makerAssetAmount",
								"type": "uint256"
							},
							{
								"name": "takerAssetAmount",
								"type": "uint256"
							},
							{
								"name": "makerFee",
								"type": "uint256"
							},
							{
								"name": "takerFee",
								"type": "uint256"
							},
							{
								"name": "expirationTimeSeconds",
								"type": "uint256"
							},
							{
								"name": "salt",
								"type": "uint256"
							},
							{
								"name": "makerAssetData",
								"type": "bytes"
							},
							{
								"name": "takerAssetData",
								"type": "bytes"
							}
						],
						"name": "orders",
						"type": "tuple[]"
					},
					{
						"name": "takerAssetFillAmount",
						"type": "uint256"
					},
					{
						"name": "signatures",
						"type": "bytes[]"
					}
				],
				"name": "marketSellOrders",
				"outputs": [
					{
						"components": [
							{
								"name": "makerAssetFilledAmount",
								"type": "uint256"
							},
							{
								"name": "takerAssetFilledAmount",
								"type": "uint256"
							},
							{
								"name": "makerFeePaid",
								"type": "uint256"
							},
							{
								"name": "takerFeePaid",
								"type": "uint256"
							}
						],
						"name": "totalFillResults",
						"type": "tuple"
					}
				],
				"payable": false,
				"stateMutability": "nonpayable",
				"type": "function"
			},
			{
				"constant": true,
				"inputs": [
					{
						"components": [
							{
								"name": "makerAddress",
								"type": "address"
							},
							{
								"name": "takerAddress",
								"type": "address"
							},
							{
								"name": "feeRecipientAddress",
								"type": "address"
							},
							{
								"name": "senderAddress",
								"type": "address"
							},
							{
								"name": "makerAssetAmount",
								"type": "uint256"
							},
							{
								"name": "takerAssetAmount",
								"type": "uint256"
							},
							{
								"name": "makerFee",
								"type": "uint256"
							},
							{
								"name": "takerFee",
								"type": "uint256"
							},
							{
								"name": "expirationTimeSeconds",
								"type": "uint256"
							},
							{
								"name": "salt",
								"type": "uint256"
							},
							{
								"name": "makerAssetData",
								"type": "bytes"
							},
							{
								"name": "takerAssetData",
								"type": "bytes"
							}
						],
						"name": "orders",
						"type": "tuple[]"
					}
				],
				"name": "getOrdersInfo",
				"outputs": [
					{
						"components": [
							{
								"name": "orderStatus",
								"type": "uint8"
							},
							{
								"name": "orderHash",
								"type": "bytes32"
							},
							{
								"name": "orderTakerAssetFilledAmount",
								"type": "uint256"
							}
						],
						"name": "",
						"type": "tuple[]"
					}
				],
				"payable": false,
				"stateMutability": "view",
				"type": "function"
			},
			{
				"constant": true,
				"inputs": [
					{
						"name": "",
						"type": "bytes32"
					},
					{
						"name": "",
						"type": "address"
					}
				],
				"name": "preSigned",
				"outputs": [
					{
						"name": "",
						"type": "bool"
					}
				],
				"payable": false,
				"stateMutability": "view",
				"type": "function"
			},
			{
				"constant": true,
				"inputs": [],
				"name": "owner",
				"outputs": [
					{
						"name": "",
						"type": "address"
					}
				],
				"payable": false,
				"stateMutability": "view",
				"type": "function"
			},
			{
				"constant": true,
				"inputs": [
					{
						"name": "hash",
						"type": "bytes32"
					},
					{
						"name": "signerAddress",
						"type": "address"
					},
					{
						"name": "signature",
						"type": "bytes"
					}
				],
				"name": "isValidSignature",
				"outputs": [
					{
						"name": "isValid",
						"type": "bool"
					}
				],
				"payable": false,
				"stateMutability": "view",
				"type": "function"
			},
			{
				"constant": false,
				"inputs": [
					{
						"components": [
							{
								"name": "makerAddress",
								"type": "address"
							},
							{
								"name": "takerAddress",
								"type": "address"
							},
							{
								"name": "feeRecipientAddress",
								"type": "address"
							},
							{
								"name": "senderAddress",
								"type": "address"
							},
							{
								"name": "makerAssetAmount",
								"type": "uint256"
							},
							{
								"name": "takerAssetAmount",
								"type": "uint256"
							},
							{
								"name": "makerFee",
								"type": "uint256"
							},
							{
								"name": "takerFee",
								"type": "uint256"
							},
							{
								"name": "expirationTimeSeconds",
								"type": "uint256"
							},
							{
								"name": "salt",
								"type": "uint256"
							},
							{
								"name": "makerAssetData",
								"type": "bytes"
							},
							{
								"name": "takerAssetData",
								"type": "bytes"
							}
						],
						"name": "orders",
						"type": "tuple[]"
					},
					{
						"name": "makerAssetFillAmount",
						"type": "uint256"
					},
					{
						"name": "signatures",
						"type": "bytes[]"
					}
				],
				"name": "marketBuyOrdersNoThrow",
				"outputs": [
					{
						"components": [
							{
								"name": "makerAssetFilledAmount",
								"type": "uint256"
							},
							{
								"name": "takerAssetFilledAmount",
								"type": "uint256"
							},
							{
								"name": "makerFeePaid",
								"type": "uint256"
							},
							{
								"name": "takerFeePaid",
								"type": "uint256"
							}
						],
						"name": "totalFillResults",
						"type": "tuple"
					}
				],
				"payable": false,
				"stateMutability": "nonpayable",
				"type": "function"
			},
			{
				"constant": false,
				"inputs": [
					{
						"components": [
							{
								"name": "makerAddress",
								"type": "address"
							},
							{
								"name": "takerAddress",
								"type": "address"
							},
							{
								"name": "feeRecipientAddress",
								"type": "address"
							},
							{
								"name": "senderAddress",
								"type": "address"
							},
							{
								"name": "makerAssetAmount",
								"type": "uint256"
							},
							{
								"name": "takerAssetAmount",
								"type": "uint256"
							},
							{
								"name": "makerFee",
								"type": "uint256"
							},
							{
								"name": "takerFee",
								"type": "uint256"
							},
							{
								"name": "expirationTimeSeconds",
								"type": "uint256"
							},
							{
								"name": "salt",
								"type": "uint256"
							},
							{
								"name": "makerAssetData",
								"type": "bytes"
							},
							{
								"name": "takerAssetData",
								"type": "bytes"
							}
						],
						"name": "order",
						"type": "tuple"
					},
					{
						"name": "takerAssetFillAmount",
						"type": "uint256"
					},
					{
						"name": "signature",
						"type": "bytes"
					}
				],
				"name": "fillOrder",
				"outputs": [
					{
						"components": [
							{
								"name": "makerAssetFilledAmount",
								"type": "uint256"
							},
							{
								"name": "takerAssetFilledAmount",
								"type": "uint256"
							},
							{
								"name": "makerFeePaid",
								"type": "uint256"
							},
							{
								"name": "takerFeePaid",
								"type": "uint256"
							}
						],
						"name": "fillResults",
						"type": "tuple"
					}
				],
				"payable": false,
				"stateMutability": "nonpayable",
				"type": "function"
			},
			{
				"constant": false,
				"inputs": [
					{
						"name": "salt",
						"type": "uint256"
					},
					{
						"name": "signerAddress",
						"type": "address"
					},
					{
						"name": "data",
						"type": "bytes"
					},
					{
						"name": "signature",
						"type": "bytes"
					}
				],
				"name": "executeTransaction",
				"outputs": [],
				"payable": false,
				"stateMutability": "nonpayable",
				"type": "function"
			},
			{
				"constant": false,
				"inputs": [
					{
						"name": "assetProxy",
						"type": "address"
					}
				],
				"name": "registerAssetProxy",
				"outputs": [],
				"payable": false,
				"stateMutability": "nonpayable",
				"type": "function"
			},
			{
				"constant": true,
				"inputs": [
					{
						"components": [
							{
								"name": "makerAddress",
								"type": "address"
							},
							{
								"name": "takerAddress",
								"type": "address"
							},
							{
								"name": "feeRecipientAddress",
								"type": "address"
							},
							{
								"name": "senderAddress",
								"type": "address"
							},
							{
								"name": "makerAssetAmount",
								"type": "uint256"
							},
							{
								"name": "takerAssetAmount",
								"type": "uint256"
							},
							{
								"name": "makerFee",
								"type": "uint256"
							},
							{
								"name": "takerFee",
								"type": "uint256"
							},
							{
								"name": "expirationTimeSeconds",
								"type": "uint256"
							},
							{
								"name": "salt",
								"type": "uint256"
							},
							{
								"name": "makerAssetData",
								"type": "bytes"
							},
							{
								"name": "takerAssetData",
								"type": "bytes"
							}
						],
						"name": "order",
						"type": "tuple"
					}
				],
				"name": "getOrderInfo",
				"outputs": [
					{
						"components": [
							{
								"name": "orderStatus",
								"type": "uint8"
							},
							{
								"name": "orderHash",
								"type": "bytes32"
							},
							{
								"name": "orderTakerAssetFilledAmount",
								"type": "uint256"
							}
						],
						"name": "orderInfo",
						"type": "tuple"
					}
				],
				"payable": false,
				"stateMutability": "view",
				"type": "function"
			},
			{
				"constant": false,
				"inputs": [
					{
						"components": [
							{
								"name": "makerAddress",
								"type": "address"
							},
							{
								"name": "takerAddress",
								"type": "address"
							},
							{
								"name": "feeRecipientAddress",
								"type": "address"
							},
							{
								"name": "senderAddress",
								"type": "address"
							},
							{
								"name": "makerAssetAmount",
								"type": "uint256"
							},
							{
								"name": "takerAssetAmount",
								"type": "uint256"
							},
							{
								"name": "makerFee",
								"type": "uint256"
							},
							{
								"name": "takerFee",
								"type": "uint256"
							},
							{
								"name": "expirationTimeSeconds",
								"type": "uint256"
							},
							{
								"name": "salt",
								"type": "uint256"
							},
							{
								"name": "makerAssetData",
								"type": "bytes"
							},
							{
								"name": "takerAssetData",
								"type": "bytes"
							}
						],
						"name": "order",
						"type": "tuple"
					}
				],
				"name": "cancelOrder",
				"outputs": [],
				"payable": false,
				"stateMutability": "nonpayable",
				"type": "function"
			},
			{
				"constant": true,
				"inputs": [
					{
						"name": "",
						"type": "address"
					},
					{
						"name": "",
						"type": "address"
					}
				],
				"name": "orderEpoch",
				"outputs": [
					{
						"name": "",
						"type": "uint256"
					}
				],
				"payable": false,
				"stateMutability": "view",
				"type": "function"
			},
			{
				"constant": true,
				"inputs": [],
				"name": "ZRX_ASSET_DATA",
				"outputs": [
					{
						"name": "",
						"type": "bytes"
					}
				],
				"payable": false,
				"stateMutability": "view",
				"type": "function"
			},
			{
				"constant": false,
				"inputs": [
					{
						"components": [
							{
								"name": "makerAddress",
								"type": "address"
							},
							{
								"name": "takerAddress",
								"type": "address"
							},
							{
								"name": "feeRecipientAddress",
								"type": "address"
							},
							{
								"name": "senderAddress",
								"type": "address"
							},
							{
								"name": "makerAssetAmount",
								"type": "uint256"
							},
							{
								"name": "takerAssetAmount",
								"type": "uint256"
							},
							{
								"name": "makerFee",
								"type": "uint256"
							},
							{
								"name": "takerFee",
								"type": "uint256"
							},
							{
								"name": "expirationTimeSeconds",
								"type": "uint256"
							},
							{
								"name": "salt",
								"type": "uint256"
							},
							{
								"name": "makerAssetData",
								"type": "bytes"
							},
							{
								"name": "takerAssetData",
								"type": "bytes"
							}
						],
						"name": "orders",
						"type": "tuple[]"
					},
					{
						"name": "takerAssetFillAmount",
						"type": "uint256"
					},
					{
						"name": "signatures",
						"type": "bytes[]"
					}
				],
				"name": "marketSellOrdersNoThrow",
				"outputs": [
					{
						"components": [
							{
								"name": "makerAssetFilledAmount",
								"type": "uint256"
							},
							{
								"name": "takerAssetFilledAmount",
								"type": "uint256"
							},
							{
								"name": "makerFeePaid",
								"type": "uint256"
							},
							{
								"name": "takerFeePaid",
								"type": "uint256"
							}
						],
						"name": "totalFillResults",
						"type": "tuple"
					}
				],
				"payable": false,
				"stateMutability": "nonpayable",
				"type": "function"
			},
			{
				"constant": true,
				"inputs": [],
				"name": "EIP712_DOMAIN_HASH",
				"outputs": [
					{
						"name": "",
						"type": "bytes32"
					}
				],
				"payable": false,
				"stateMutability": "view",
				"type": "function"
			},
			{
				"constant": false,
				"inputs": [
					{
						"components": [
							{
								"name": "makerAddress",
								"type": "address"
							},
							{
								"name": "takerAddress",
								"type": "address"
							},
							{
								"name": "feeRecipientAddress",
								"type": "address"
							},
							{
								"name": "senderAddress",
								"type": "address"
							},
							{
								"name": "makerAssetAmount",
								"type": "uint256"
							},
							{
								"name": "takerAssetAmount",
								"type": "uint256"
							},
							{
								"name": "makerFee",
								"type": "uint256"
							},
							{
								"name": "takerFee",
								"type": "uint256"
							},
							{
								"name": "expirationTimeSeconds",
								"type": "uint256"
							},
							{
								"name": "salt",
								"type": "uint256"
							},
							{
								"name": "makerAssetData",
								"type": "bytes"
							},
							{
								"name": "takerAssetData",
								"type": "bytes"
							}
						],
						"name": "orders",
						"type": "tuple[]"
					},
					{
						"name": "makerAssetFillAmount",
						"type": "uint256"
					},
					{
						"name": "signatures",
						"type": "bytes[]"
					}
				],
				"name": "marketBuyOrders",
				"outputs": [
					{
						"components": [
							{
								"name": "makerAssetFilledAmount",
								"type": "uint256"
							},
							{
								"name": "takerAssetFilledAmount",
								"type": "uint256"
							},
							{
								"name": "makerFeePaid",
								"type": "uint256"
							},
							{
								"name": "takerFeePaid",
								"type": "uint256"
							}
						],
						"name": "totalFillResults",
						"type": "tuple"
					}
				],
				"payable": false,
				"stateMutability": "nonpayable",
				"type": "function"
			},
			{
				"constant": true,
				"inputs": [],
				"name": "currentContextAddress",
				"outputs": [
					{
						"name": "",
						"type": "address"
					}
				],
				"payable": false,
				"stateMutability": "view",
				"type": "function"
			},
			{
				"constant": false,
				"inputs": [
					{
						"name": "newOwner",
						"type": "address"
					}
				],
				"name": "transferOwnership",
				"outputs": [],
				"payable": false,
				"stateMutability": "nonpayable",
				"type": "function"
			},
			{
				"constant": true,
				"inputs": [],
				"name": "VERSION",
				"outputs": [
					{
						"name": "",
						"type": "string"
					}
				],
				"payable": false,
				"stateMutability": "view",
				"type": "function"
			},
			{
				"inputs": [],
				"payable": false,
				"stateMutability": "nonpayable",
				"type": "constructor"
			},
			{
				"anonymous": false,
				"inputs": [
					{
						"indexed": true,
						"name": "signerAddress",
						"type": "address"
					},
					{
						"indexed": true,
						"name": "validatorAddress",
						"type": "address"
					},
					{
						"indexed": false,
						"name": "approved",
						"type": "bool"
					}
				],
				"name": "SignatureValidatorApproval",
				"type": "event"
			},
			{
				"anonymous": false,
				"inputs": [
					{
						"indexed": true,
						"name": "makerAddress",
						"type": "address"
					},
					{
						"indexed": true,
						"name": "feeRecipientAddress",
						"type": "address"
					},
					{
						"indexed": false,
						"name": "takerAddress",
						"type": "address"
					},
					{
						"indexed": false,
						"name": "senderAddress",
						"type": "address"
					},
					{
						"indexed": false,
						"name": "makerAssetFilledAmount",
						"type": "uint256"
					},
					{
						"indexed": false,
						"name": "takerAssetFilledAmount",
						"type": "uint256"
					},
					{
						"indexed": false,
						"name": "makerFeePaid",
						"type": "uint256"
					},
					{
						"indexed": false,
						"name": "takerFeePaid",
						"type": "uint256"
					},
					{
						"indexed": true,
						"name": "orderHash",
						"type": "bytes32"
					},
					{
						"indexed": false,
						"name": "makerAssetData",
						"type": "bytes"
					},
					{
						"indexed": false,
						"name": "takerAssetData",
						"type": "bytes"
					}
				],
				"name": "Fill",
				"type": "event"
			},
			{
				"anonymous": false,
				"inputs": [
					{
						"indexed": true,
						"name": "makerAddress",
						"type": "address"
					},
					{
						"indexed": true,
						"name": "feeRecipientAddress",
						"type": "address"
					},
					{
						"indexed": false,
						"name": "senderAddress",
						"type": "address"
					},
					{
						"indexed": true,
						"name": "orderHash",
						"type": "bytes32"
					},
					{
						"indexed": false,
						"name": "makerAssetData",
						"type": "bytes"
					},
					{
						"indexed": false,
						"name": "takerAssetData",
						"type": "bytes"
					}
				],
				"name": "Cancel",
				"type": "event"
			},
			{
				"anonymous": false,
				"inputs": [
					{
						"indexed": true,
						"name": "makerAddress",
						"type": "address"
					},
					{
						"indexed": true,
						"name": "senderAddress",
						"type": "address"
					},
					{
						"indexed": false,
						"name": "orderEpoch",
						"type": "uint256"
					}
				],
				"name": "CancelUpTo",
				"type": "event"
			},
			{
				"anonymous": false,
				"inputs": [
					{
						"indexed": false,
						"name": "id",
						"type": "bytes4"
					},
					{
						"indexed": false,
						"name": "assetProxy",
						"type": "address"
					}
				],
				"name": "AssetProxyRegistered",
				"type": "event"
			}
		],
		"devdoc": {
			"methods": {
				"batchCancelOrders((address,address,address,address,uint256,uint256,uint256,uint256,uint256,uint256,bytes,bytes)[])": {
					"details": "Synchronously cancels multiple orders in a single transaction.",
					"params": {
						"orders": "Array of order specifications."
					}
				},
				"batchFillOrKillOrders((address,address,address,address,uint256,uint256,uint256,uint256,uint256,uint256,bytes,bytes)[],uint256[],bytes[])": {
					"details": "Synchronously executes multiple calls of fillOrKill.",
					"params": {
						"orders": "Array of order specifications.",
						"signatures": "Proofs that orders have been created by makers.",
						"takerAssetFillAmounts": "Array of desired amounts of takerAsset to sell in orders."
					},
					"return": "Amounts filled and fees paid by makers and taker.         NOTE: makerAssetFilledAmount and takerAssetFilledAmount may include amounts filled of different assets."
				},
				"batchFillOrders((address,address,address,address,uint256,uint256,uint256,uint256,uint256,uint256,bytes,bytes)[],uint256[],bytes[])": {
					"details": "Synchronously executes multiple calls of fillOrder.",
					"params": {
						"orders": "Array of order specifications.",
						"signatures": "Proofs that orders have been created by makers.",
						"takerAssetFillAmounts": "Array of desired amounts of takerAsset to sell in orders."
					},
					"return": "Amounts filled and fees paid by makers and taker.         NOTE: makerAssetFilledAmount and takerAssetFilledAmount may include amounts filled of different assets."
				},
				"batchFillOrdersNoThrow((address,address,address,address,uint256,uint256,uint256,uint256,uint256,uint256,bytes,bytes)[],uint256[],bytes[])": {
					"details": "Fills an order with specified parameters and ECDSA signature.      Returns false if the transaction would otherwise revert.",
					"params": {
						"orders": "Array of order specifications.",
						"signatures": "Proofs that orders have been created by makers.",
						"takerAssetFillAmounts": "Array of desired amounts of takerAsset to sell in orders."
					},
					"return": "Amounts filled and fees paid by makers and taker.         NOTE: makerAssetFilledAmount and takerAssetFilledAmount may include amounts filled of different assets."
				},
				"cancelOrder((address,address,address,address,uint256,uint256,uint256,uint256,uint256,uint256,bytes,bytes))": {
					"details": "After calling, the order can not be filled anymore.      Throws if order is invalid or sender does not have permission to cancel.",
					"params": {
						"order": "Order to cancel. Order must be OrderStatus.FILLABLE."
					}
				},
				"cancelOrdersUpTo(uint256)": {
					"details": "Cancels all orders created by makerAddress with a salt less than or equal to the targetOrderEpoch      and senderAddress equal to msg.sender (or null address if msg.sender == makerAddress).",
					"params": {
						"targetOrderEpoch": "Orders created with a salt less or equal to this value will be cancelled."
					}
				},
				"executeTransaction(uint256,address,bytes,bytes)": {
					"details": "Executes an exchange method call in the context of signer.",
					"params": {
						"data": "AbiV2 encoded calldata.",
						"salt": "Arbitrary number to ensure uniqueness of transaction hash.",
						"signature": "Proof of signer transaction by signer.",
						"signerAddress": "Address of transaction signer."
					}
				},
				"fillOrKillOrder((address,address,address,address,uint256,uint256,uint256,uint256,uint256,uint256,bytes,bytes),uint256,bytes)": {
					"details": "Fills the input order. Reverts if exact takerAssetFillAmount not filled.",
					"params": {
						"order": "Order struct containing order specifications.",
						"signature": "Proof that order has been created by maker.",
						"takerAssetFillAmount": "Desired amount of takerAsset to sell."
					}
				},
				"fillOrder((address,address,address,address,uint256,uint256,uint256,uint256,uint256,uint256,bytes,bytes),uint256,bytes)": {
					"details": "Fills the input order.",
					"params": {
						"order": "Order struct containing order specifications.",
						"signature": "Proof that order has been created by maker.",
						"takerAssetFillAmount": "Desired amount of takerAsset to sell."
					},
					"return": "Amounts filled and fees paid by maker and taker."
				},
				"fillOrderNoThrow((address,address,address,address,uint256,uint256,uint256,uint256,uint256,uint256,bytes,bytes),uint256,bytes)": {
					"details": "Fills the input order.      Returns false if the transaction would otherwise revert.",
					"params": {
						"order": "Order struct containing order specifications.",
						"signature": "Proof that order has been created by maker.",
						"takerAssetFillAmount": "Desired amount of takerAsset to sell."
					},
					"return": "Amounts filled and fees paid by maker and taker."
				},
				"getAssetProxy(bytes4)": {
					"details": "Gets an asset proxy.",
					"params": {
						"assetProxyId": "Id of the asset proxy."
					},
					"return": "The asset proxy registered to assetProxyId. Returns 0x0 if no proxy is registered."
				},
				"getOrderInfo((address,address,address,address,uint256,uint256,uint256,uint256,uint256,uint256,bytes,bytes))": {
					"details": "Gets information about an order: status, hash, and amount filled.",
					"params": {
						"order": "Order to gather information on."
					},
					"return": "OrderInfo Information about the order and its state.         See LibOrder.OrderInfo for a complete description."
				},
				"getOrdersInfo((address,address,address,address,uint256,uint256,uint256,uint256,uint256,uint256,bytes,bytes)[])": {
					"details": "Fetches information for all passed in orders.",
					"params": {
						"orders": "Array of order specifications."
					},
					"return": "Array of OrderInfo instances that correspond to each order."
				},
				"isValidSignature(bytes32,address,bytes)": {
					"details": "Verifies that a hash has been signed by the given signer.",
					"params": {
						"hash": "Any 32 byte hash.",
						"signature": "Proof that the hash has been signed by signer.",
						"signerAddress": "Address that should have signed the given hash."
					},
					"return": "True if the address recovered from the provided signature matches the input signer address."
				},
				"marketBuyOrders((address,address,address,address,uint256,uint256,uint256,uint256,uint256,uint256,bytes,bytes)[],uint256,bytes[])": {
					"details": "Synchronously executes multiple calls of fillOrder until total amount of makerAsset is bought by taker.",
					"params": {
						"makerAssetFillAmount": "Desired amount of makerAsset to buy.",
						"orders": "Array of order specifications.",
						"signatures": "Proofs that orders have been signed by makers."
					},
					"return": "Amounts filled and fees paid by makers and taker."
				},
				"marketBuyOrdersNoThrow((address,address,address,address,uint256,uint256,uint256,uint256,uint256,uint256,bytes,bytes)[],uint256,bytes[])": {
					"details": "Synchronously executes multiple fill orders in a single transaction until total amount is bought by taker.      Returns false if the transaction would otherwise revert.",
					"params": {
						"makerAssetFillAmount": "Desired amount of makerAsset to buy.",
						"orders": "Array of order specifications.",
						"signatures": "Proofs that orders have been signed by makers."
					},
					"return": "Amounts filled and fees paid by makers and taker."
				},
				"marketSellOrders((address,address,address,address,uint256,uint256,uint256,uint256,uint256,uint256,bytes,bytes)[],uint256,bytes[])": {
					"details": "Synchronously executes multiple calls of fillOrder until total amount of takerAsset is sold by taker.",
					"params": {
						"orders": "Array of order specifications.",
						"signatures": "Proofs that orders have been created by makers.",
						"takerAssetFillAmount": "Desired amount of takerAsset to sell."
					},
					"return": "Amounts filled and fees paid by makers and taker."
				},
				"marketSellOrdersNoThrow((address,address,address,address,uint256,uint256,uint256,uint256,uint256,uint256,bytes,bytes)[],uint256,bytes[])": {
					"details": "Synchronously executes multiple calls of fillOrder until total amount of takerAsset is sold by taker.      Returns false if the transaction would otherwise revert.",
					"params": {
						"orders": "Array of order specifications.",
						"signatures": "Proofs that orders have been signed by makers.",
						"takerAssetFillAmount": "Desired amount of takerAsset to sell."
					},
					"return": "Amounts filled and fees paid by makers and taker."
				},
				"matchOrders((address,address,address,address,uint256,uint256,uint256,uint256,uint256,uint256,bytes,bytes),(address,address,address,address,uint256,uint256,uint256,uint256,uint256,uint256,bytes,bytes),bytes,bytes)": {
					"details": "Match two complementary orders that have a profitable spread.      Each order is filled at their respective price point. However, the calculations are      carried out as though the orders are both being filled at the right order's price point.      The profit made by the left order goes to the taker (who matched the two orders).",
					"params": {
						"leftOrder": "First order to match.",
						"leftSignature": "Proof that order was created by the left maker.",
						"rightOrder": "Second order to match.",
						"rightSignature": "Proof that order was created by the right maker."
					},
					"return": "matchedFillResults Amounts filled and fees paid by maker and taker of matched orders."
				},
				"preSign(bytes32,address,bytes)": {
					"details": "Approves a hash on-chain using any valid signature type.      After presigning a hash, the preSign signature type will become valid for that hash and signer.",
					"params": {
						"signature": "Proof that the hash has been signed by signer.",
						"signerAddress": "Address that should have signed the given hash."
					}
				},
				"registerAssetProxy(address)": {
					"details": "Registers an asset proxy to its asset proxy id.      Once an asset proxy is registered, it cannot be unregistered.",
					"params": {
						"assetProxy": "Address of new asset proxy to register."
					}
				},
				"setSignatureValidatorApproval(address,bool)": {
					"details": "Approves/unnapproves a Validator contract to verify signatures on signer's behalf.",
					"params": {
						"approval": "Approval or disapproval of  Validator contract.",
						"validatorAddress": "Address of Validator contract."
					}
				}
			}
		},
		"evm": {
			"bytecode": {
				"linkReferences": {},
				"object": "0x60806040526000805460ff191690553480156200001b57600080fd5b50604080517f454950373132446f6d61696e28000000000000000000000000000000000000006020808301919091527f737472696e67206e616d652c0000000000000000000000000000000000000000602d8301527f737472696e672076657273696f6e2c000000000000000000000000000000000060398301527f6164647265737320766572696679696e67436f6e74726163740000000000000060488301527f2900000000000000000000000000000000000000000000000000000000000000606183015282516042818403018152606290920192839052815191929182918401908083835b60208310620001245780518252601f19909201916020918201910162000103565b51815160209384036101000a6000190180199092169116179052604080519290940182900382208285018552600b8084527f30782050726f746f636f6c000000000000000000000000000000000000000000928401928352945190965091945090928392508083835b60208310620001ae5780518252601f1990920191602091820191016200018d565b51815160209384036101000a600019018019909216911617905260408051929094018290038220828501855260018084527f3200000000000000000000000000000000000000000000000000000000000000928401928352945190965091945090928392508083835b60208310620002385780518252601f19909201916020918201910162000217565b51815160209384036101000a6000190180199092169116179052604080519290940182900382208282019890985281840196909652606081019690965250306080808701919091528151808703909101815260a09095019081905284519093849350850191508083835b60208310620002c35780518252601f199092019160209182019101620002a2565b5181516000196020949094036101000a939093019283169219169190911790526040519201829003909120600155505060028054600160a060020a0319163317905550614a7f80620003166000396000f3006080604052600436106101b65763ffffffff7c0100000000000000000000000000000000000000000000000000000000600035041663288cdc9181146101bb578063297bb70b146101f15780632ac126221461021e5780633683ef8e1461024b5780633c28d8611461026d5780633e228bae1461029a5780633fd3c997146102ba5780634ac14782146102e75780634d0ae546146103075780634f9559b11461032757806350dde190146103475780636070410814610367578063642f2eaf1461039457806364a3bc15146103b457806377fcce68146103d45780637b8e3514146103f45780637e1d9808146104145780637e9d74dc1461043457806382c174d0146104615780638da5cb5b146104815780639363470214610496578063a3e20380146104b6578063b4be83d5146104d6578063bfc8bfce146104f6578063c585bb9314610516578063c75e0a8114610536578063d46b02c314610563578063d9bfa73e14610583578063db123b1a146105a3578063dd1c7d18146105c5578063e306f779146105e5578063e5fa431b146105fa578063eea086ba1461061a578063f2fde38b1461062f578063ffa1ad741461064f575b600080fd5b3480156101c757600080fd5b506101db6101d6366004613a2d565b610664565b6040516101e89190614652565b60405180910390f35b3480156101fd57600080fd5b5061021161020c366004613950565b610676565b6040516101e8919061492c565b34801561022a57600080fd5b5061023e610239366004613a2d565b61074e565b6040516101e89190614644565b34801561025757600080fd5b5061026b610266366004613a6a565b610763565b005b34801561027957600080fd5b5061028d610288366004613b9e565b610801565b6040516101e8919061493a565b3480156102a657600080fd5b506102116102b5366004613c5e565b610945565b3480156102c657600080fd5b506102da6102d5366004613b2d565b61099b565b6040516101e8919061470e565b3480156102f357600080fd5b5061026b61030236600461391b565b6109b6565b34801561031357600080fd5b50610211610322366004613950565b610a30565b34801561033357600080fd5b5061026b610342366004613a2d565b610aeb565b34801561035357600080fd5b50610211610362366004613950565b610c0f565b34801561037357600080fd5b50610387610382366004613b2d565b610ca3565b6040516101e89190614564565b3480156103a057600080fd5b5061023e6103af366004613a2d565b610ccc565b3480156103c057600080fd5b506102116103cf366004613c5e565b610ce1565b3480156103e057600080fd5b5061026b6103ef3660046138eb565b610d39565b34801561040057600080fd5b5061023e61040f3660046138b1565b610df5565b34801561042057600080fd5b5061021161042f3660046139e4565b610e15565b34801561044057600080fd5b5061045461044f36600461391b565b610f26565b6040516101e89190614633565b34801561046d57600080fd5b5061023e61047c366004613a4b565b610fbb565b34801561048d57600080fd5b50610387610fdb565b3480156104a257600080fd5b5061023e6104b1366004613ad2565b610fea565b3480156104c257600080fd5b506102116104d13660046139e4565b6113f7565b3480156104e257600080fd5b506102116104f1366004613c5e565b61150a565b34801561050257600080fd5b5061026b610511366004613ca7565b611550565b34801561052257600080fd5b5061026b610531366004613893565b611725565b34801561054257600080fd5b50610556610551366004613b69565b6118b3565b6040516101e89190614949565b34801561056f57600080fd5b5061026b61057e366004613b69565b6119a0565b34801561058f57600080fd5b506101db61059e3660046138b1565b6119e9565b3480156105af57600080fd5b506105b8611a06565b6040516101e891906146fd565b3480156105d157600080fd5b506102116105e03660046139e4565b611a66565b3480156105f157600080fd5b506101db611b3b565b34801561060657600080fd5b506102116106153660046139e4565b611b41565b34801561062657600080fd5b50610387611c60565b34801561063b57600080fd5b5061026b61064a366004613893565b611c6f565b34801561065b57600080fd5b506105b8611cd7565b60036020526000908152604090205481565b61067e6134c5565b6000806106896134c5565b60005460ff16156106b85760405160e560020a62461bcd0281526004016106af906148ac565b60405180910390fd5b6000805460ff191660011781558751935091505b81831461073a5761072387838151811015156106e457fe5b9060200190602002015187848151811015156106fc57fe5b90602001906020020151878581518110151561071457fe5b90602001906020020151611d0e565b905061072f8482611dac565b6001909101906106cc565b50506000805460ff19169055509392505050565b60046020526000908152604090205460ff1681565b600160a060020a03831633146107cf576107ae848484848080601f01602080910402602001604051908101604052809392919081815260200183838082843750610fea945050505050565b15156107cf5760405160e560020a62461bcd0281526004016106af906147dc565b50506000918252600660209081526040808420600160a060020a0390931684529190529020805460ff19166001179055565b6108096134ee565b61081161351d565b61081961351d565b6000805460ff16156108405760405160e560020a62461bcd0281526004016106af906148ac565b6000805460ff1916600117905561016080890151610140808a01919091528901519088015261086e886118b3565b9250610879876118b3565b9150610883611e0e565b905061089188848389611e33565b61089d87838388611e33565b6108a78888611f2e565b6108bb888885604001518560400151611f77565b8051602081015190519195506108d6918a91869181906120fe565b6020808501519081015190516108f291899185919081906120fe565b61090b88828560200151866040015188600001516121bb565b61092487828460200151856040015188602001516121bb565b6109308888838761225a565b50506000805460ff1916905550949350505050565b61094d6134c5565b606061095a8585856123c8565b9050608081825160208401305af4801561099157815183526020820151602084015260408201516040840152606082015160608401525b505b509392505050565b600a60205260009081526040902054600160a060020a031681565b60008054819060ff16156109df5760405160e560020a62461bcd0281526004016106af906148ac565b50506000805460ff191660011781558151905b808214610a2157610a198382815181101515610a0a57fe5b9060200190602002015161257c565b6001016109f2565b50506000805460ff1916905550565b610a386134c5565b600080610a436134c5565b60005460ff1615610a695760405160e560020a62461bcd0281526004016106af906148ac565b6000805460ff191660011781558751935091505b81831461073a57610ad48783815181101515610a9557fe5b906020019060200201518784815181101515610aad57fe5b906020019060200201518785815181101515610ac557fe5b906020019060200201516125a7565b9050610ae08482611dac565b600190910190610a7d565b6000805481908190819060ff1615610b185760405160e560020a62461bcd0281526004016106af906148ac565b6000805460ff19166001179055610b2d611e0e565b9350600160a060020a0384163314610b455733610b48565b60005b600160a060020a038086166000908152600560209081526040808320938516835292905220549093506001860192509050808211610b9b5760405160e560020a62461bcd0281526004016106af9061486c565b600160a060020a0380851660008181526005602090815260408083209488168084529490915290819020859055517f82af639571738f4ebd4268fb0363d8957ebe1bbb9e78dba5ebd69eed39b154f090610bf6908690614652565b60405180910390a350506000805460ff19169055505050565b610c176134c5565b600080610c226134c5565b86519250600091505b818314610c9957610c828783815181101515610c4357fe5b906020019060200201518784815181101515610c5b57fe5b906020019060200201518785815181101515610c7357fe5b90602001906020020151610945565b9050610c8e8482611dac565b600190910190610c2b565b5050509392505050565b600160e060020a031981166000908152600a6020526040902054600160a060020a03165b919050565b60086020526000908152604090205460ff1681565b610ce96134c5565b60005460ff1615610d0f5760405160e560020a62461bcd0281526004016106af906148ac565b6000805460ff19166001179055610d278484846125a7565b6000805460ff19169055949350505050565b6000805460ff1615610d605760405160e560020a62461bcd0281526004016106af906148ac565b6000805460ff19166001179055610d75611e0e565b600160a060020a0381811660008181526007602090815260408083209489168084529490915290819020805460ff19168715151790555192935090917fa8656e308026eeabce8f0bc18048433252318ab80ac79da0b3d3d8697dfba89190610dde908690614644565b60405180910390a350506000805460ff1916905550565b600760209081526000928352604080842090915290825290205460ff1681565b610e1d6134c5565b60606000806000610e2c6134c5565b60005460ff1615610e525760405160e560020a62461bcd0281526004016106af906148ac565b6000805460ff1916600117815589518a91908110610e6c57fe5b906020019060200201516101600151945088519350600092505b828414610f0f57848984815181101515610e9c57fe5b906020019060200201516101600181905250610ebc8887602001516125e3565b9150610ee88984815181101515610ecf57fe5b9060200190602002015183898681518110151561071457fe5b9050610ef48682611dac565b60208601518811610f0457610f0f565b600190920191610e86565b50506000805460ff19169055509195945050505050565b60606000606060008451925082604051908082528060200260200182016040528015610f6c57816020015b610f5961351d565b815260200190600190039081610f515790505b509150600090505b80831461099357610f9b8582815181101515610f8c57fe5b906020019060200201516118b3565b8282815181101515610fa957fe5b60209081029091010152600101610f74565b600660209081526000928352604080842090915290825290205460ff1681565b600254600160a060020a031681565b6000806000806000806000806000895111151561101c5760405160e560020a62461bcd0281526004016106af9061485c565b61102589612613565b60f860020a90049650600760ff8816106110545760405160e560020a62461bcd0281526004016106af9061477c565b8660ff16600781111561106357fe5b9550600086600781111561107357fe5b14156110945760405160e560020a62461bcd0281526004016106af9061484c565b60018660078111156110a257fe5b14156110d3578851156110ca5760405160e560020a62461bcd0281526004016106af9061491c565b600097506113e9565b60028660078111156110e157fe5b14156111be57885160411461110b5760405160e560020a62461bcd0281526004016106af9061471c565b88600081518110151561111a57fe5b016020015160f860020a90819004810204945061113e89600163ffffffff61266816565b935061115189602163ffffffff61266816565b925060018b8686866040516000815260200160405260405161117694939291906146ad565b60206040516020810390808403906000865af115801561119a573d6000803e3d6000fd5b5050604051601f190151600160a060020a038c811690821614995092506113e99050565b60038660078111156111cc57fe5b14156113035788516041146111f65760405160e560020a62461bcd0281526004016106af9061471c565b88600081518110151561120557fe5b016020015160f860020a90819004810204945061122989600163ffffffff61266816565b935061123c89602163ffffffff61266816565b925060018b60405160200180807f19457468657265756d205369676e6564204d6573736167653a0a333200000000815250601c0182600019166000191681526020019150506040516020818303038152906040526040518082805190602001908083835b602083106112bf5780518252601f1990920191602091820191016112a0565b51815160209384036101000a6000190180199092169116179052604080519290940182900382206000835291019283905261117694509250899189915088906146ad565b600486600781111561131157fe5b1415611329576113228b8b8b61269c565b97506113e9565b600586600781111561133757fe5b141561138d57611346896127a4565b600160a060020a03808c1660009081526007602090815260408083209385168352929052205490915060ff16151561138157600097506113e9565b611322818c8c8c6127e8565b600686600781111561139b57fe5b14156113ce5760008b8152600660209081526040808320600160a060020a038e16845290915290205460ff1697506113e9565b60405160e560020a62461bcd0281526004016106af9061477c565b505050505050509392505050565b6113ff6134c5565b606060008060008061140f6134c5565b89600081518110151561141e57fe5b906020019060200201516101400151955089519450600093505b8385146114fd57858a8581518110151561144e57fe5b602090810290910101516101400152865161146a908a906125e3565b92506114ad8a8581518110151561147d57fe5b9060200190602002015160a001518b8681518110151561149957fe5b9060200190602002015160800151856128f7565b91506114d98a858151811015156114c057fe5b90602001906020020151838a87815181101515610c7357fe5b90506114e58782611dac565b865189116114f2576114fd565b600190930192611438565b5050505050509392505050565b6115126134c5565b60005460ff16156115385760405160e560020a62461bcd0281526004016106af906148ac565b6000805460ff19166001179055610d27848484611d0e565b600954600090600160a060020a03161561157f5760405160e560020a62461bcd0281526004016106af906148ac565b6115c26115bd888888888080601f01602080910402602001604051908101604052809392919081815260200183838082843750612936945050505050565b612af2565b60008181526008602052604090205490915060ff16156115f75760405160e560020a62461bcd0281526004016106af906147cc565b600160a060020a038616331461168c57611642818785858080601f01602080910402602001604051908101604052809392919081815260200183838082843750610fea945050505050565b15156116635760405160e560020a62461bcd0281526004016106af9061490c565b6009805473ffffffffffffffffffffffffffffffffffffffff1916600160a060020a0388161790555b60008181526008602052604090819020805460ff191660011790555130908690869080838380828437820191505092505050600060405180830381855af491505015156116ee5760405160e560020a62461bcd0281526004016106af906147fc565b600160a060020a038616331461171c576009805473ffffffffffffffffffffffffffffffffffffffff191690555b50505050505050565b60025460009081908190600160a060020a031633146117595760405160e560020a62461bcd0281526004016106af906148bc565b83925082600160a060020a031663ae25532e6040518163ffffffff167c0100000000000000000000000000000000000000000000000000000000028152600401602060405180830381600087803b1580156117b357600080fd5b505af11580156117c7573d6000803e3d6000fd5b505050506040513d601f19601f820116820180604052506117eb9190810190613b4b565b600160e060020a031981166000908152600a6020526040902054909250600160a060020a0316905080156118345760405160e560020a62461bcd0281526004016106af9061475c565b600160e060020a031982166000908152600a602052604090819020805473ffffffffffffffffffffffffffffffffffffffff1916600160a060020a038616179055517fd2c6b762299c609bdb96520b58a49bfb80186934d4f71a86a367571a15c03194906118a590849087906146e2565b60405180910390a150505050565b6118bb61351d565b6118c482612b32565b60208083018290526000918252600390526040908190205490820152608082015115156118f85760015b60ff168152610cc7565b60a0820151151561190a5760026118ee565b60a08201516040820151106119205760056118ee565b61010082015142106119335760046118ee565b60208082015160009081526004909152604090205460ff16156119575760066118ee565b6101208201518251600160a060020a03908116600090815260056020908152604080832060608801519094168352929052205411156119975760066118ee565b60038152919050565b60005460ff16156119c65760405160e560020a62461bcd0281526004016106af906148ac565b6000805460ff191660011790556119dc8161257c565b506000805460ff19169055565b600560209081526000928352604080842090915290825290205481565b606060405190810160405280602481526020017ff47261b0000000000000000000000000e41d2489571d322189246dafa5ebde1f81526020017f4699f4980000000000000000000000000000000000000000000000000000000081525081565b611a6e6134c5565b60606000806000611a7d6134c5565b886000815181101515611a8c57fe5b906020019060200201516101600151945088519350600092505b828414611b2f57848984815181101515611abc57fe5b906020019060200201516101600181905250611adc8887602001516125e3565b9150611b088984815181101515611aef57fe5b90602001906020020151838986815181101515610c7357fe5b9050611b148682611dac565b60208601518811611b2457611b2f565b600190920191611aa6565b50505050509392505050565b60015481565b611b496134c5565b6060600080600080611b596134c5565b60005460ff1615611b7f5760405160e560020a62461bcd0281526004016106af906148ac565b6000805460ff191660011781558a518b91908110611b9957fe5b906020019060200201516101400151955089519450600093505b838514611c4857858a85815181101515611bc957fe5b6020908102909101015161014001528651611be5908a906125e3565b9250611bf88a8581518110151561147d57fe5b9150611c248a85815181101515611c0b57fe5b90602001906020020151838a8781518110151561071457fe5b9050611c308782611dac565b86518911611c3d57611c48565b600190930192611bb3565b50506000805460ff1916905550929695505050505050565b600954600160a060020a031681565b600254600160a060020a03163314611c9c5760405160e560020a62461bcd0281526004016106af906148bc565b600160a060020a03811615611cd4576002805473ffffffffffffffffffffffffffffffffffffffff1916600160a060020a0383161790555b50565b60408051808201909152600581527f322e302e30000000000000000000000000000000000000000000000000000000602082015281565b611d166134c5565b611d1e61351d565b6000806000611d2c886118b3565b9350611d36611e0e565b9250611d4488858589611e33565b611d568860a0015185604001516125e3565b9150611d628783612b40565b9050611d758885898489600001516120fe565b611d7f8882612b56565b9450611d96888486602001518760400151896121bb565b611da1888487612bb7565b505050509392505050565b81518151611dba9190612c6f565b825260208083015190820151611dd09190612c6f565b602083015260408083015190820151611de99190612c6f565b604083015260608083015190820151611e029190612c6f565b60609092019190915250565b600954600090600160a060020a0316818115611e2a5781611e2c565b335b9392505050565b825160ff16600314611e5a5760405160e560020a62461bcd0281526004016106af906148dc565b6060840151600160a060020a031615611e9c576060840151600160a060020a03163314611e9c5760405160e560020a62461bcd0281526004016106af906148ec565b6020840151600160a060020a031615611ee95781600160a060020a03168460200151600160a060020a0316141515611ee95760405160e560020a62461bcd0281526004016106af9061472c565b60408301511515611f2857611f078360200151856000015183610fea565b1515611f285760405160e560020a62461bcd0281526004016106af9061479c565b50505050565b611f408260a001518260a00151612ca2565b611f5283608001518360800151612ca2565b1015611f735760405160e560020a62461bcd0281526004016106af906148fc565b5050565b611f7f6134ee565b600080600080611f938960a00151886125e3565b9350611fa889608001518a60a0015186612ce6565b9250611fb88860a00151876125e3565b9150611fcd88608001518960a0015184612ce6565b90508084106120105760208086018051839052805182018490525151865182015260808a015160a08b01518751909201516120089290612ce6565b85515261204d565b845183905284516020908101859052855181015190860180519190915260a089015160808a01519151516120449290612d35565b60208087015101525b845151602080870151015161206291906125e3565b604086015284515160808a015160c08b015161207f929190612ce6565b85516040015284516020015160a08a015160e08b01516120a0929190612ce6565b855160600152602085015151608089015160c08a01516120c1929190612ce6565b856020015160400181815250506120e98560200151602001518960a001518a60e00151612ce6565b60208601516060015250505050949350505050565b8215156121205760405160e560020a62461bcd0281526004016106af9061481c565b828211156121435760405160e560020a62461bcd0281526004016106af9061480c565b8460a00151612156856040015184612c6f565b11156121775760405160e560020a62461bcd0281526004016106af9061473c565b612185856080015183612ca2565b612193828760a00151612ca2565b11156121b45760405160e560020a62461bcd0281526004016106af9061489c565b5050505050565b6121c9828260200151612c6f565b600084815260036020908152604091829020929092558681015187518451938501518584015160608701516101408c01516101608d015196518b98600160a060020a039788169897909616967f0bcc4c97732e47d9946f229edb95f5b6323f601300e4690de719993f3c3711299661224b968f96339692959194909390614572565b60405180910390a45050505050565b60608060405190810160405280602481526020017ff47261b0000000000000000000000000e41d2489571d322189246dafa5ebde1f81526020017f4699f4980000000000000000000000000000000000000000000000000000000081525090506122db85610140015186600001518660000151856020015160200151612da4565b610140840151845186518451602001516122f793929190612da4565b6123108561014001518660000151858560400151612da4565b61232c8186600001518760400151856000015160400151612da4565b6123488185600001518660400151856020015160400151612da4565b8360400151600160a060020a03168560400151600160a060020a03161415612398576123938184876040015161238e866000015160600151876020015160600151612c6f565b612da4565b6121b4565b6123b081848760400151856000015160600151612da4565b6121b481848660400151856020015160600151612da4565b604080517fb4be83d5000000000000000000000000000000000000000000000000000000006020808301919091526060602483018181528751608485019081528884015160a48601529488015160c48501529087015160e4840152608087015161010484015260a087015161012484015260c087015161014484015260e08701516101648401526101008701516101848401526101208701516101a4840152610140870180516101c485019081526101608901516101e4860152610180905251805161020485018190529394919384936044870192849261022489019291820191601f82010460005b818110156124cf5783518552602094850194909301926001016124b1565b50505050818103610160808401919091528a0151805180835260209283019291820191601f82010460005b818110156125185783518552602094850194909301926001016124fa565b50505089845250848103602093840190815288518083529093918201918981019190601f82010460005b81811015612560578351855260209485019490930192600101612542565b505050601f198883030188525060405250505050509392505050565b61258461351d565b61258d826118b3565b90506125998282612ee7565b611f73828260200151612f92565b6125af6134c5565b6125ba848484611d0e565b60208101519091508314611e2c5760405160e560020a62461bcd0281526004016106af9061488c565b6000828211156126085760405160e560020a62461bcd0281526004016106af9061474c565b508082035b92915050565b600080825111151561263a5760405160e560020a62461bcd0281526004016106af9061483c565b81518290600019810190811061264c57fe5b01602001518251600019019092525060f860020a908190040290565b6000816020018351101515156126935760405160e560020a62461bcd0281526004016106af9061476c565b50016020015190565b6040516000906060907f1626ba7e00000000000000000000000000000000000000000000000000000000906126d7908790869060240161468d565b60408051601f19818403018152919052602080820180517bffffffffffffffffffffffffffffffffffffffffffffffffffffffff16600160e060020a0319909416939093178352815191935090829081885afa80801561273e576001811461279857611da1565b60e560020a62461bcd026000527c20000000000000000000000000000000000000000000000000000000006020527c0c57414c4c45545f4552524f5200000000000000000000000000000000604052600060605260646000fd5b50505195945050505050565b600060148251101515156127cd5760405160e560020a62461bcd0281526004016106af906148cc565b6127db82601484510361300e565b8251601319019092525090565b6040516000906060907f93634702000000000000000000000000000000000000000000000000000000009061282590879087908790602401614660565b60408051601f19818403018152919052602080820180517bffffffffffffffffffffffffffffffffffffffffffffffffffffffff16600160e060020a03199094169390931783528151919350908290818a5afa80801561288c57600181146128e6576128eb565b60e560020a62461bcd026000527c20000000000000000000000000000000000000000000000000000000006020527c0f56414c494441544f525f4552524f5200000000000000000000000000604052600060605260646000fd5b825194505b50505050949350505050565b600080831161291b5760405160e560020a62461bcd0281526004016106af9061478c565b61292e6129288584612ca2565b8461304b565b949350505050565b604080517f5a65726f45785472616e73616374696f6e2800000000000000000000000000006020808301919091527f75696e743235362073616c742c0000000000000000000000000000000000000060328301527f61646472657373207369676e6572416464726573732c00000000000000000000603f8301527f627974657320646174610000000000000000000000000000000000000000000060558301527f2900000000000000000000000000000000000000000000000000000000000000605f830152825180830384018152606090920192839052815160009384938493909282918401908083835b60208310612a415780518252601f199092019160209182019101612a22565b51815160209384036101000a600019018019909216911617905260405191909301819003812089519097508995509093508392850191508083835b60208310612a9b5780518252601f199092019160209182019101612a7c565b51815160209384036101000a60001901801990921691161790526040805192909401829003822097825281019a909a5250600160a060020a0397909716968801969096525050606085015250506080909120919050565b6001546040517f19010000000000000000000000000000000000000000000000000000000000008152600281019190915260228101919091526042902090565b600061260d6115bd83613062565b6000818310612b4f5781611e2c565b5090919050565b612b5e6134c5565b6020810182905260a08301516080840151612b7a918491612ce6565b808252608084015160c0850151612b92929190612ce6565b604082015260a083015160e0840151612bac918491612ce6565b606082015292915050565b60408051606081018252602481527ff47261b0000000000000000000000000e41d2489571d322189246dafa5ebde1f60208201527f4699f498000000000000000000000000000000000000000000000000000000009181019190915261014084015184518351612c2a9291908690612da4565b612c438461016001518486600001518560200151612da4565b612c5b81856000015186604001518560400151612da4565b611f28818486604001518560600151612da4565b600082820183811015612c975760405160e560020a62461bcd0281526004016106af906147bc565b8091505b5092915050565b600080831515612cb55760009150612c9b565b50828202828482811515612cc557fe5b0414612c975760405160e560020a62461bcd0281526004016106af906147bc565b6000808311612d0a5760405160e560020a62461bcd0281526004016106af9061478c565b612d158484846133e9565b1561291b5760405160e560020a62461bcd0281526004016106af906147ec565b6000808311612d595760405160e560020a62461bcd0281526004016106af9061478c565b612d64848484613457565b15612d845760405160e560020a62461bcd0281526004016106af906147ec565b61292e612928612d948685612ca2565b612d9f8660016125e3565b612c6f565b600080600083118015612dc9575083600160a060020a031685600160a060020a031614155b15612edf578551600310612df25760405160e560020a62461bcd0281526004016106af9061487c565b5050602084810151600160e060020a0319166000818152600a909252604090912054600160a060020a0316801515612e3f5760405160e560020a62461bcd0281526004016106af9061482c565b604051660fffffffffffe0603f885101168060840182017fa85e59e400000000000000000000000000000000000000000000000000000000835260806004840152600160a060020a0388166024840152600160a060020a0387166044840152856064840152608483015b81811015612ec157895181526020998a019901612ea9565b61020084858403866000895af1801515612ed9573d85fd5b50505050505b505050505050565b805160009060ff16600314612f115760405160e560020a62461bcd0281526004016106af906148dc565b6060830151600160a060020a031615612f53576060830151600160a060020a03163314612f535760405160e560020a62461bcd0281526004016106af906148ec565b612f5b611e0e565b8351909150600160a060020a03808316911614612f8d5760405160e560020a62461bcd0281526004016106af906147ac565b505050565b60008181526004602052604090819020805460ff1916600117905582810151835161014085015161016086015193518594600160a060020a039485169493909316927fdc47b3613d9fe400085f6dbdc99453462279057e6207385042827ed6b1a62cf792613002923392906145f6565b60405180910390a45050565b6000816014018351101515156130395760405160e560020a62461bcd0281526004016106af906148cc565b500160140151600160a060020a031690565b600080828481151561305957fe5b04949350505050565b604080517f4f726465722800000000000000000000000000000000000000000000000000006020808301919091527f61646472657373206d616b6572416464726573732c000000000000000000000060268301527f616464726573732074616b6572416464726573732c0000000000000000000000603b8301527f6164647265737320666565526563697069656e74416464726573732c0000000060508301527f616464726573732073656e646572416464726573732c00000000000000000000606c8301527f75696e74323536206d616b65724173736574416d6f756e742c0000000000000060828301527f75696e743235362074616b65724173736574416d6f756e742c00000000000000609b8301527f75696e74323536206d616b65724665652c00000000000000000000000000000060b48301527f75696e743235362074616b65724665652c00000000000000000000000000000060c58301527f75696e743235362065787069726174696f6e54696d655365636f6e64732c000060d68301527f75696e743235362073616c742c0000000000000000000000000000000000000060f48301527f6279746573206d616b65724173736574446174612c00000000000000000000006101018301527f62797465732074616b65724173736574446174610000000000000000000000006101168301527f290000000000000000000000000000000000000000000000000000000000000061012a830152825161010b81840301815261012b90920192839052815160009384938493849391929182918401908083835b602083106132cc5780518252601f1990920191602091820191016132ad565b51815160209384036101000a60001901801990921691161790526040519190930181900381206101408b0151805191995095509093508392850191508083835b6020831061332b5780518252601f19909201916020918201910161330c565b51815160209384036101000a60001901801990921691161790526040519190930181900381206101608b0151805191985095509093508392850191508083835b6020831061338a5780518252601f19909201916020918201910161336b565b5181516020939093036101000a60001901801990911692169190911790526040519201829003909120601f19890180516101408b018051610160909c0180519a84529881529288526101a0822091529890525050509190525090919050565b60008080841161340e5760405160e560020a62461bcd0281526004016106af9061478c565b821580613419575084155b156134275760009150610993565b8380151561343157fe5b85840990506134408584612ca2565b61344c6103e883612ca2565b101595945050505050565b60008080841161347c5760405160e560020a62461bcd0281526004016106af9061478c565b821580613487575084155b156134955760009150610993565b8380151561349f57fe5b8584099050836134af85836125e3565b8115156134b857fe5b0690506134408584612ca2565b608060405190810160405280600081526020016000815260200160008152602001600081525090565b610120604051908101604052806135036134c5565b81526020016135106134c5565b8152602001600081525090565b604080516060810182526000808252602082018190529181019190915290565b6000611e2c82356149d1565b6000601f8201831361355a57600080fd5b813561356d6135688261497e565b614957565b81815260209384019390925082018360005b838110156135ab578135860161359588826136fb565b845250602092830192919091019060010161357f565b5050505092915050565b6000601f820183136135c657600080fd5b81356135d46135688261497e565b81815260209384019390925082018360005b838110156135ab57813586016135fc888261374a565b84525060209283019291909101906001016135e6565b6000601f8201831361362357600080fd5b81356136316135688261497e565b9150818183526020840193506020810190508385602084028201111561365657600080fd5b60005b838110156135ab578161366c888261368e565b8452506020928301929190910190600101613659565b6000611e2c82356149dd565b6000611e2c82356149e2565b6000611e2c82356149e5565b6000611e2c82516149e5565b600080601f830184136136c457600080fd5b50813567ffffffffffffffff8111156136dc57600080fd5b6020830191508360018202830111156136f457600080fd5b9250929050565b6000601f8201831361370c57600080fd5b813561371a6135688261499f565b9150808252602083016020830185838301111561373657600080fd5b613741838284614a03565b50505092915050565b6000610180828403121561375d57600080fd5b613768610180614957565b90506000613776848461353d565b82525060206137878484830161353d565b602083015250604061379b8482850161353d565b60408301525060606137af8482850161353d565b60608301525060806137c38482850161368e565b60808301525060a06137d78482850161368e565b60a08301525060c06137eb8482850161368e565b60c08301525060e06137ff8482850161368e565b60e0830152506101006138148482850161368e565b6101008301525061012061382a8482850161368e565b6101208301525061014082013567ffffffffffffffff81111561384c57600080fd5b613858848285016136fb565b6101408301525061016082013567ffffffffffffffff81111561387a57600080fd5b613886848285016136fb565b6101608301525092915050565b6000602082840312156138a557600080fd5b600061292e848461353d565b600080604083850312156138c457600080fd5b60006138d0858561353d565b92505060206138e18582860161353d565b9150509250929050565b600080604083850312156138fe57600080fd5b600061390a858561353d565b92505060206138e185828601613682565b60006020828403121561392d57600080fd5b813567ffffffffffffffff81111561394457600080fd5b61292e848285016135b5565b60008060006060848603121561396557600080fd5b833567ffffffffffffffff81111561397c57600080fd5b613988868287016135b5565b935050602084013567ffffffffffffffff8111156139a557600080fd5b6139b186828701613612565b925050604084013567ffffffffffffffff8111156139ce57600080fd5b6139da86828701613549565b9150509250925092565b6000806000606084860312156139f957600080fd5b833567ffffffffffffffff811115613a1057600080fd5b613a1c868287016135b5565b93505060206139b18682870161368e565b600060208284031215613a3f57600080fd5b600061292e848461368e565b60008060408385031215613a5e57600080fd5b60006138d0858561368e565b60008060008060608587031215613a8057600080fd5b6000613a8c878761368e565b9450506020613a9d8782880161353d565b935050604085013567ffffffffffffffff811115613aba57600080fd5b613ac6878288016136b2565b95989497509550505050565b600080600060608486031215613ae757600080fd5b6000613af3868661368e565b9350506020613b048682870161353d565b925050604084013567ffffffffffffffff811115613b2157600080fd5b6139da868287016136fb565b600060208284031215613b3f57600080fd5b600061292e848461369a565b600060208284031215613b5d57600080fd5b600061292e84846136a6565b600060208284031215613b7b57600080fd5b813567ffffffffffffffff811115613b9257600080fd5b61292e8482850161374a565b60008060008060808587031215613bb457600080fd5b843567ffffffffffffffff811115613bcb57600080fd5b613bd78782880161374a565b945050602085013567ffffffffffffffff811115613bf457600080fd5b613c008782880161374a565b935050604085013567ffffffffffffffff811115613c1d57600080fd5b613c29878288016136fb565b925050606085013567ffffffffffffffff811115613c4657600080fd5b613c52878288016136fb565b91505092959194509250565b600080600060608486031215613c7357600080fd5b833567ffffffffffffffff811115613c8a57600080fd5b613c968682870161374a565b9350506020613b048682870161368e565b60008060008060008060808789031215613cc057600080fd5b6000613ccc898961368e565b9650506020613cdd89828a0161353d565b955050604087013567ffffffffffffffff811115613cfa57600080fd5b613d0689828a016136b2565b9450945050606087013567ffffffffffffffff811115613d2557600080fd5b613d3189828a016136b2565b92509250509295509295509295565b613d49816149d1565b82525050565b6000613d5a826149cd565b808452602084019350613d6c836149c7565b60005b82811015613d9c57613d82868351614524565b613d8b826149c7565b606096909601959150600101613d6f565b5093949350505050565b613d49816149dd565b613d49816149e2565b613d49816149e5565b6000613dcc826149cd565b808452613de0816020860160208601614a0f565b613de981614a3b565b9093016020019392505050565b613d49816149f8565b601281527f4c454e4754485f36355f52455155495245440000000000000000000000000000602082015260400190565b600d81527f494e56414c49445f54414b455200000000000000000000000000000000000000602082015260400190565b600e81527f4f524445525f4f56455246494c4c000000000000000000000000000000000000602082015260400190565b601181527f55494e543235365f554e444552464c4f57000000000000000000000000000000602082015260400190565b601a81527f41535345545f50524f58595f414c52454144595f455849535453000000000000602082015260400190565b602681527f475245415445525f4f525f455155414c5f544f5f33325f4c454e4754485f524560208201527f5155495245440000000000000000000000000000000000000000000000000000604082015260600190565b601581527f5349474e41545552455f554e535550504f525445440000000000000000000000602082015260400190565b601081527f4449564953494f4e5f42595f5a45524f00000000000000000000000000000000602082015260400190565b601781527f494e56414c49445f4f524445525f5349474e4154555245000000000000000000602082015260400190565b600d81527f494e56414c49445f4d414b455200000000000000000000000000000000000000602082015260400190565b601081527f55494e543235365f4f564552464c4f5700000000000000000000000000000000602082015260400190565b600f81527f494e56414c49445f54585f484153480000000000000000000000000000000000602082015260400190565b601181527f494e56414c49445f5349474e4154555245000000000000000000000000000000602082015260400190565b600e81527f524f554e44494e475f4552524f52000000000000000000000000000000000000602082015260400190565b601081527f4641494c45445f455845435554494f4e00000000000000000000000000000000602082015260400190565b600d81527f54414b45525f4f56455250415900000000000000000000000000000000000000602082015260400190565b601481527f494e56414c49445f54414b45525f414d4f554e54000000000000000000000000602082015260400190565b601a81527f41535345545f50524f58595f444f45535f4e4f545f4558495354000000000000602082015260400190565b602181527f475245415445525f5448414e5f5a45524f5f4c454e4754485f5245515549524560208201527f4400000000000000000000000000000000000000000000000000000000000000604082015260600190565b601181527f5349474e41545552455f494c4c4547414c000000000000000000000000000000602082015260400190565b601e81527f4c454e4754485f475245415445525f5448414e5f305f52455155495245440000602082015260400190565b601781527f494e56414c49445f4e45575f4f524445525f45504f4348000000000000000000602082015260400190565b601e81527f4c454e4754485f475245415445525f5448414e5f335f52455155495245440000602082015260400190565b601481527f434f4d504c4554455f46494c4c5f4641494c4544000000000000000000000000602082015260400190565b601281527f494e56414c49445f46494c4c5f50524943450000000000000000000000000000602082015260400190565b601281527f5245454e5452414e43595f494c4c4547414c0000000000000000000000000000602082015260400190565b601381527f4f4e4c595f434f4e54524143545f4f574e455200000000000000000000000000602082015260400190565b602681527f475245415445525f4f525f455155414c5f544f5f32305f4c454e4754485f524560208201527f5155495245440000000000000000000000000000000000000000000000000000604082015260600190565b601081527f4f524445525f554e46494c4c41424c4500000000000000000000000000000000602082015260400190565b600e81527f494e56414c49445f53454e444552000000000000000000000000000000000000602082015260400190565b601881527f4e454741544956455f5350524541445f52455155495245440000000000000000602082015260400190565b601481527f494e56414c49445f54585f5349474e4154555245000000000000000000000000602082015260400190565b601181527f4c454e4754485f305f5245515549524544000000000000000000000000000000602082015260400190565b805160808301906144b28482613daf565b5060208201516144c56020850182613daf565b5060408201516144d86040850182613daf565b506060820151611f286060850182613daf565b80516101208301906144fd84826144a1565b50602082015161451060808501826144a1565b506040820151611f28610100850182613daf565b80516060830190614535848261455b565b5060208201516145486020850182613daf565b506040820151611f286040850182613daf565b613d49816149f2565b6020810161260d8284613d40565b6101008101614581828b613d40565b61458e602083018a613d40565b61459b6040830189613daf565b6145a86060830188613daf565b6145b56080830187613daf565b6145c260a0830186613daf565b81810360c08301526145d48185613dc1565b905081810360e08301526145e88184613dc1565b9a9950505050505050505050565b606081016146048286613d40565b81810360208301526146168185613dc1565b9050818103604083015261462a8184613dc1565b95945050505050565b60208082528101611e2c8184613d4f565b6020810161260d8284613da6565b6020810161260d8284613daf565b6060810161466e8286613daf565b61467b6020830185613d40565b818103604083015261462a8184613dc1565b6040810161469b8285613daf565b818103602083015261292e8184613dc1565b608081016146bb8287613daf565b6146c8602083018661455b565b6146d56040830185613daf565b61462a6060830184613daf565b604081016146f08285613db8565b611e2c6020830184613d40565b60208082528101611e2c8184613dc1565b6020810161260d8284613df6565b6020808252810161260d81613dff565b6020808252810161260d81613e2f565b6020808252810161260d81613e5f565b6020808252810161260d81613e8f565b6020808252810161260d81613ebf565b6020808252810161260d81613eef565b6020808252810161260d81613f45565b6020808252810161260d81613f75565b6020808252810161260d81613fa5565b6020808252810161260d81613fd5565b6020808252810161260d81614005565b6020808252810161260d81614035565b6020808252810161260d81614065565b6020808252810161260d81614095565b6020808252810161260d816140c5565b6020808252810161260d816140f5565b6020808252810161260d81614125565b6020808252810161260d81614155565b6020808252810161260d81614185565b6020808252810161260d816141db565b6020808252810161260d8161420b565b6020808252810161260d8161423b565b6020808252810161260d8161426b565b6020808252810161260d8161429b565b6020808252810161260d816142cb565b6020808252810161260d816142fb565b6020808252810161260d8161432b565b6020808252810161260d8161435b565b6020808252810161260d816143b1565b6020808252810161260d816143e1565b6020808252810161260d81614411565b6020808252810161260d81614441565b6020808252810161260d81614471565b6080810161260d82846144a1565b610120810161260d82846144eb565b6060810161260d8284614524565b60405181810167ffffffffffffffff8111828210171561497657600080fd5b604052919050565b600067ffffffffffffffff82111561499557600080fd5b5060209081020190565b600067ffffffffffffffff8211156149b657600080fd5b506020601f91909101601f19160190565b60200190565b5190565b600160a060020a031690565b151590565b90565b600160e060020a03191690565b60ff1690565b600061260d826149d1565b82818337506000910152565b60005b83811015614a2a578181015183820152602001614a12565b83811115611f285750506000910152565b601f01601f1916905600a265627a7a723058209219d554eb931cb835892b8c5e0b1b54523849eccd20d59c3876634aa7a242346c6578706572696d656e74616cf50037",
				"opcodes": "PUSH1 0x80 PUSH1 0x40 MSTORE PUSH1 0x0 DUP1 SLOAD PUSH1 0xFF NOT AND SWAP1 SSTORE CALLVALUE DUP1 ISZERO PUSH3 0x1B JUMPI PUSH1 0x0 DUP1 REVERT JUMPDEST POP PUSH1 0x40 DUP1 MLOAD PUSH32 0x454950373132446F6D61696E2800000000000000000000000000000000000000 PUSH1 0x20 DUP1 DUP4 ADD SWAP2 SWAP1 SWAP2 MSTORE PUSH32 0x737472696E67206E616D652C0000000000000000000000000000000000000000 PUSH1 0x2D DUP4 ADD MSTORE PUSH32 0x737472696E672076657273696F6E2C0000000000000000000000000000000000 PUSH1 0x39 DUP4 ADD MSTORE PUSH32 0x6164647265737320766572696679696E67436F6E747261637400000000000000 PUSH1 0x48 DUP4 ADD MSTORE PUSH32 0x2900000000000000000000000000000000000000000000000000000000000000 PUSH1 0x61 DUP4 ADD MSTORE DUP3 MLOAD PUSH1 0x42 DUP2 DUP5 SUB ADD DUP2 MSTORE PUSH1 0x62 SWAP1 SWAP3 ADD SWAP3 DUP4 SWAP1 MSTORE DUP2 MLOAD SWAP2 SWAP3 SWAP2 DUP3 SWAP2 DUP5 ADD SWAP1 DUP1 DUP4 DUP4 JUMPDEST PUSH1 0x20 DUP4 LT PUSH3 0x124 JUMPI DUP1 MLOAD DUP3 MSTORE PUSH1 0x1F NOT SWAP1 SWAP3 ADD SWAP2 PUSH1 0x20 SWAP2 DUP3 ADD SWAP2 ADD PUSH3 0x103 JUMP JUMPDEST MLOAD DUP2 MLOAD PUSH1 0x20 SWAP4 DUP5 SUB PUSH2 0x100 EXP PUSH1 0x0 NOT ADD DUP1 NOT SWAP1 SWAP3 AND SWAP2 AND OR SWAP1 MSTORE PUSH1 0x40 DUP1 MLOAD SWAP3 SWAP1 SWAP5 ADD DUP3 SWAP1 SUB DUP3 KECCAK256 DUP3 DUP6 ADD DUP6 MSTORE PUSH1 0xB DUP1 DUP5 MSTORE PUSH32 0x30782050726F746F636F6C000000000000000000000000000000000000000000 SWAP3 DUP5 ADD SWAP3 DUP4 MSTORE SWAP5 MLOAD SWAP1 SWAP7 POP SWAP2 SWAP5 POP SWAP1 SWAP3 DUP4 SWAP3 POP DUP1 DUP4 DUP4 JUMPDEST PUSH1 0x20 DUP4 LT PUSH3 0x1AE JUMPI DUP1 MLOAD DUP3 MSTORE PUSH1 0x1F NOT SWAP1 SWAP3 ADD SWAP2 PUSH1 0x20 SWAP2 DUP3 ADD SWAP2 ADD PUSH3 0x18D JUMP JUMPDEST MLOAD DUP2 MLOAD PUSH1 0x20 SWAP4 DUP5 SUB PUSH2 0x100 EXP PUSH1 0x0 NOT ADD DUP1 NOT SWAP1 SWAP3 AND SWAP2 AND OR SWAP1 MSTORE PUSH1 0x40 DUP1 MLOAD SWAP3 SWAP1 SWAP5 ADD DUP3 SWAP1 SUB DUP3 KECCAK256 DUP3 DUP6 ADD DUP6 MSTORE PUSH1 0x1 DUP1 DUP5 MSTORE PUSH32 0x3200000000000000000000000000000000000000000000000000000000000000 SWAP3 DUP5 ADD SWAP3 DUP4 MSTORE SWAP5 MLOAD SWAP1 SWAP7 POP SWAP2 SWAP5 POP SWAP1 SWAP3 DUP4 SWAP3 POP DUP1 DUP4 DUP4 JUMPDEST PUSH1 0x20 DUP4 LT PUSH3 0x238 JUMPI DUP1 MLOAD DUP3 MSTORE PUSH1 0x1F NOT SWAP1 SWAP3 ADD SWAP2 PUSH1 0x20 SWAP2 DUP3 ADD SWAP2 ADD PUSH3 0x217 JUMP JUMPDEST MLOAD DUP2 MLOAD PUSH1 0x20 SWAP4 DUP5 SUB PUSH2 0x100 EXP PUSH1 0x0 NOT ADD DUP1 NOT SWAP1 SWAP3 AND SWAP2 AND OR SWAP1 MSTORE PUSH1 0x40 DUP1 MLOAD SWAP3 SWAP1 SWAP5 ADD DUP3 SWAP1 SUB DUP3 KECCAK256 DUP3 DUP3 ADD SWAP9 SWAP1 SWAP9 MSTORE DUP2 DUP5 ADD SWAP7 SWAP1 SWAP7 MSTORE PUSH1 0x60 DUP2 ADD SWAP7 SWAP1 SWAP7 MSTORE POP ADDRESS PUSH1 0x80 DUP1 DUP8 ADD SWAP2 SWAP1 SWAP2 MSTORE DUP2 MLOAD DUP1 DUP8 SUB SWAP1 SWAP2 ADD DUP2 MSTORE PUSH1 0xA0 SWAP1 SWAP6 ADD SWAP1 DUP2 SWAP1 MSTORE DUP5 MLOAD SWAP1 SWAP4 DUP5 SWAP4 POP DUP6 ADD SWAP2 POP DUP1 DUP4 DUP4 JUMPDEST PUSH1 0x20 DUP4 LT PUSH3 0x2C3 JUMPI DUP1 MLOAD DUP3 MSTORE PUSH1 0x1F NOT SWAP1 SWAP3 ADD SWAP2 PUSH1 0x20 SWAP2 DUP3 ADD SWAP2 ADD PUSH3 0x2A2 JUMP JUMPDEST MLOAD DUP2 MLOAD PUSH1 0x0 NOT PUSH1 0x20 SWAP5 SWAP1 SWAP5 SUB PUSH2 0x100 EXP SWAP4 SWAP1 SWAP4 ADD SWAP3 DUP4 AND SWAP3 NOT AND SWAP2 SWAP1 SWAP2 OR SWAP1 MSTORE PUSH1 0x40 MLOAD SWAP3 ADD DUP3 SWAP1 SUB SWAP1 SWAP2 KECCAK256 PUSH1 0x1 SSTORE POP POP PUSH1 0x2 DUP1 SLOAD PUSH1 0x1 PUSH1 0xA0 PUSH1 0x2 EXP SUB NOT AND CALLER OR SWAP1 SSTORE POP PUSH2 0x4A7F DUP1 PUSH3 0x316 PUSH1 0x0 CODECOPY PUSH1 0x0 RETURN STOP PUSH1 0x80 PUSH1 0x40 MSTORE PUSH1 0x4 CALLDATASIZE LT PUSH2 0x1B6 JUMPI PUSH4 0xFFFFFFFF PUSH29 0x100000000000000000000000000000000000000000000000000000000 PUSH1 0x0 CALLDATALOAD DIV AND PUSH4 0x288CDC91 DUP2 EQ PUSH2 0x1BB JUMPI DUP1 PUSH4 0x297BB70B EQ PUSH2 0x1F1 JUMPI DUP1 PUSH4 0x2AC12622 EQ PUSH2 0x21E JUMPI DUP1 PUSH4 0x3683EF8E EQ PUSH2 0x24B JUMPI DUP1 PUSH4 0x3C28D861 EQ PUSH2 0x26D JUMPI DUP1 PUSH4 0x3E228BAE EQ PUSH2 0x29A JUMPI DUP1 PUSH4 0x3FD3C997 EQ PUSH2 0x2BA JUMPI DUP1 PUSH4 0x4AC14782 EQ PUSH2 0x2E7 JUMPI DUP1 PUSH4 0x4D0AE546 EQ PUSH2 0x307 JUMPI DUP1 PUSH4 0x4F9559B1 EQ PUSH2 0x327 JUMPI DUP1 PUSH4 0x50DDE190 EQ PUSH2 0x347 JUMPI DUP1 PUSH4 0x60704108 EQ PUSH2 0x367 JUMPI DUP1 PUSH4 0x642F2EAF EQ PUSH2 0x394 JUMPI DUP1 PUSH4 0x64A3BC15 EQ PUSH2 0x3B4 JUMPI DUP1 PUSH4 0x77FCCE68 EQ PUSH2 0x3D4 JUMPI DUP1 PUSH4 0x7B8E3514 EQ PUSH2 0x3F4 JUMPI DUP1 PUSH4 0x7E1D9808 EQ PUSH2 0x414 JUMPI DUP1 PUSH4 0x7E9D74DC EQ PUSH2 0x434 JUMPI DUP1 PUSH4 0x82C174D0 EQ PUSH2 0x461 JUMPI DUP1 PUSH4 0x8DA5CB5B EQ PUSH2 0x481 JUMPI DUP1 PUSH4 0x93634702 EQ PUSH2 0x496 JUMPI DUP1 PUSH4 0xA3E20380 EQ PUSH2 0x4B6 JUMPI DUP1 PUSH4 0xB4BE83D5 EQ PUSH2 0x4D6 JUMPI DUP1 PUSH4 0xBFC8BFCE EQ PUSH2 0x4F6 JUMPI DUP1 PUSH4 0xC585BB93 EQ PUSH2 0x516 JUMPI DUP1 PUSH4 0xC75E0A81 EQ PUSH2 0x536 JUMPI DUP1 PUSH4 0xD46B02C3 EQ PUSH2 0x563 JUMPI DUP1 PUSH4 0xD9BFA73E EQ PUSH2 0x583 JUMPI DUP1 PUSH4 0xDB123B1A EQ PUSH2 0x5A3 JUMPI DUP1 PUSH4 0xDD1C7D18 EQ PUSH2 0x5C5 JUMPI DUP1 PUSH4 0xE306F779 EQ PUSH2 0x5E5 JUMPI DUP1 PUSH4 0xE5FA431B EQ PUSH2 0x5FA JUMPI DUP1 PUSH4 0xEEA086BA EQ PUSH2 0x61A JUMPI DUP1 PUSH4 0xF2FDE38B EQ PUSH2 0x62F JUMPI DUP1 PUSH4 0xFFA1AD74 EQ PUSH2 0x64F JUMPI JUMPDEST PUSH1 0x0 DUP1 REVERT JUMPDEST CALLVALUE DUP1 ISZERO PUSH2 0x1C7 JUMPI PUSH1 0x0 DUP1 REVERT JUMPDEST POP PUSH2 0x1DB PUSH2 0x1D6 CALLDATASIZE PUSH1 0x4 PUSH2 0x3A2D JUMP JUMPDEST PUSH2 0x664 JUMP JUMPDEST PUSH1 0x40 MLOAD PUSH2 0x1E8 SWAP2 SWAP1 PUSH2 0x4652 JUMP JUMPDEST PUSH1 0x40 MLOAD DUP1 SWAP2 SUB SWAP1 RETURN JUMPDEST CALLVALUE DUP1 ISZERO PUSH2 0x1FD JUMPI PUSH1 0x0 DUP1 REVERT JUMPDEST POP PUSH2 0x211 PUSH2 0x20C CALLDATASIZE PUSH1 0x4 PUSH2 0x3950 JUMP JUMPDEST PUSH2 0x676 JUMP JUMPDEST PUSH1 0x40 MLOAD PUSH2 0x1E8 SWAP2 SWAP1 PUSH2 0x492C JUMP JUMPDEST CALLVALUE DUP1 ISZERO PUSH2 0x22A JUMPI PUSH1 0x0 DUP1 REVERT JUMPDEST POP PUSH2 0x23E PUSH2 0x239 CALLDATASIZE PUSH1 0x4 PUSH2 0x3A2D JUMP JUMPDEST PUSH2 0x74E JUMP JUMPDEST PUSH1 0x40 MLOAD PUSH2 0x1E8 SWAP2 SWAP1 PUSH2 0x4644 JUMP JUMPDEST CALLVALUE DUP1 ISZERO PUSH2 0x257 JUMPI PUSH1 0x0 DUP1 REVERT JUMPDEST POP PUSH2 0x26B PUSH2 0x266 CALLDATASIZE PUSH1 0x4 PUSH2 0x3A6A JUMP JUMPDEST PUSH2 0x763 JUMP JUMPDEST STOP JUMPDEST CALLVALUE DUP1 ISZERO PUSH2 0x279 JUMPI PUSH1 0x0 DUP1 REVERT JUMPDEST POP PUSH2 0x28D PUSH2 0x288 CALLDATASIZE PUSH1 0x4 PUSH2 0x3B9E JUMP JUMPDEST PUSH2 0x801 JUMP JUMPDEST PUSH1 0x40 MLOAD PUSH2 0x1E8 SWAP2 SWAP1 PUSH2 0x493A JUMP JUMPDEST CALLVALUE DUP1 ISZERO PUSH2 0x2A6 JUMPI PUSH1 0x0 DUP1 REVERT JUMPDEST POP PUSH2 0x211 PUSH2 0x2B5 CALLDATASIZE PUSH1 0x4 PUSH2 0x3C5E JUMP JUMPDEST PUSH2 0x945 JUMP JUMPDEST CALLVALUE DUP1 ISZERO PUSH2 0x2C6 JUMPI PUSH1 0x0 DUP1 REVERT JUMPDEST POP PUSH2 0x2DA PUSH2 0x2D5 CALLDATASIZE PUSH1 0x4 PUSH2 0x3B2D JUMP JUMPDEST PUSH2 0x99B JUMP JUMPDEST PUSH1 0x40 MLOAD PUSH2 0x1E8 SWAP2 SWAP1 PUSH2 0x470E JUMP JUMPDEST CALLVALUE DUP1 ISZERO PUSH2 0x2F3 JUMPI PUSH1 0x0 DUP1 REVERT JUMPDEST POP PUSH2 0x26B PUSH2 0x302 CALLDATASIZE PUSH1 0x4 PUSH2 0x391B JUMP JUMPDEST PUSH2 0x9B6 JUMP JUMPDEST CALLVALUE DUP1 ISZERO PUSH2 0x313 JUMPI PUSH1 0x0 DUP1 REVERT JUMPDEST POP PUSH2 0x211 PUSH2 0x322 CALLDATASIZE PUSH1 0x4 PUSH2 0x3950 JUMP JUMPDEST PUSH2 0xA30 JUMP JUMPDEST CALLVALUE DUP1 ISZERO PUSH2 0x333 JUMPI PUSH1 0x0 DUP1 REVERT JUMPDEST POP PUSH2 0x26B PUSH2 0x342 CALLDATASIZE PUSH1 0x4 PUSH2 0x3A2D JUMP JUMPDEST PUSH2 0xAEB JUMP JUMPDEST CALLVALUE DUP1 ISZERO PUSH2 0x353 JUMPI PUSH1 0x0 DUP1 REVERT JUMPDEST POP PUSH2 0x211 PUSH2 0x362 CALLDATASIZE PUSH1 0x4 PUSH2 0x3950 JUMP JUMPDEST PUSH2 0xC0F JUMP JUMPDEST CALLVALUE DUP1 ISZERO PUSH2 0x373 JUMPI PUSH1 0x0 DUP1 REVERT JUMPDEST POP PUSH2 0x387 PUSH2 0x382 CALLDATASIZE PUSH1 0x4 PUSH2 0x3B2D JUMP JUMPDEST PUSH2 0xCA3 JUMP JUMPDEST PUSH1 0x40 MLOAD PUSH2 0x1E8 SWAP2 SWAP1 PUSH2 0x4564 JUMP JUMPDEST CALLVALUE DUP1 ISZERO PUSH2 0x3A0 JUMPI PUSH1 0x0 DUP1 REVERT JUMPDEST POP PUSH2 0x23E PUSH2 0x3AF CALLDATASIZE PUSH1 0x4 PUSH2 0x3A2D JUMP JUMPDEST PUSH2 0xCCC JUMP JUMPDEST CALLVALUE DUP1 ISZERO PUSH2 0x3C0 JUMPI PUSH1 0x0 DUP1 REVERT JUMPDEST POP PUSH2 0x211 PUSH2 0x3CF CALLDATASIZE PUSH1 0x4 PUSH2 0x3C5E JUMP JUMPDEST PUSH2 0xCE1 JUMP JUMPDEST CALLVALUE DUP1 ISZERO PUSH2 0x3E0 JUMPI PUSH1 0x0 DUP1 REVERT JUMPDEST POP PUSH2 0x26B PUSH2 0x3EF CALLDATASIZE PUSH1 0x4 PUSH2 0x38EB JUMP JUMPDEST PUSH2 0xD39 JUMP JUMPDEST CALLVALUE DUP1 ISZERO PUSH2 0x400 JUMPI PUSH1 0x0 DUP1 REVERT JUMPDEST POP PUSH2 0x23E PUSH2 0x40F CALLDATASIZE PUSH1 0x4 PUSH2 0x38B1 JUMP JUMPDEST PUSH2 0xDF5 JUMP JUMPDEST CALLVALUE DUP1 ISZERO PUSH2 0x420 JUMPI PUSH1 0x0 DUP1 REVERT JUMPDEST POP PUSH2 0x211 PUSH2 0x42F CALLDATASIZE PUSH1 0x4 PUSH2 0x39E4 JUMP JUMPDEST PUSH2 0xE15 JUMP JUMPDEST CALLVALUE DUP1 ISZERO PUSH2 0x440 JUMPI PUSH1 0x0 DUP1 REVERT JUMPDEST POP PUSH2 0x454 PUSH2 0x44F CALLDATASIZE PUSH1 0x4 PUSH2 0x391B JUMP JUMPDEST PUSH2 0xF26 JUMP JUMPDEST PUSH1 0x40 MLOAD PUSH2 0x1E8 SWAP2 SWAP1 PUSH2 0x4633 JUMP JUMPDEST CALLVALUE DUP1 ISZERO PUSH2 0x46D JUMPI PUSH1 0x0 DUP1 REVERT JUMPDEST POP PUSH2 0x23E PUSH2 0x47C CALLDATASIZE PUSH1 0x4 PUSH2 0x3A4B JUMP JUMPDEST PUSH2 0xFBB JUMP JUMPDEST CALLVALUE DUP1 ISZERO PUSH2 0x48D JUMPI PUSH1 0x0 DUP1 REVERT JUMPDEST POP PUSH2 0x387 PUSH2 0xFDB JUMP JUMPDEST CALLVALUE DUP1 ISZERO PUSH2 0x4A2 JUMPI PUSH1 0x0 DUP1 REVERT JUMPDEST POP PUSH2 0x23E PUSH2 0x4B1 CALLDATASIZE PUSH1 0x4 PUSH2 0x3AD2 JUMP JUMPDEST PUSH2 0xFEA JUMP JUMPDEST CALLVALUE DUP1 ISZERO PUSH2 0x4C2 JUMPI PUSH1 0x0 DUP1 REVERT JUMPDEST POP PUSH2 0x211 PUSH2 0x4D1 CALLDATASIZE PUSH1 0x4 PUSH2 0x39E4 JUMP JUMPDEST PUSH2 0x13F7 JUMP JUMPDEST CALLVALUE DUP1 ISZERO PUSH2 0x4E2 JUMPI PUSH1 0x0 DUP1 REVERT JUMPDEST POP PUSH2 0x211 PUSH2 0x4F1 CALLDATASIZE PUSH1 0x4 PUSH2 0x3C5E JUMP JUMPDEST PUSH2 0x150A JUMP JUMPDEST CALLVALUE DUP1 ISZERO PUSH2 0x502 JUMPI PUSH1 0x0 DUP1 REVERT JUMPDEST POP PUSH2 0x26B PUSH2 0x511 CALLDATASIZE PUSH1 0x4 PUSH2 0x3CA7 JUMP JUMPDEST PUSH2 0x1550 JUMP JUMPDEST CALLVALUE DUP1 ISZERO PUSH2 0x522 JUMPI PUSH1 0x0 DUP1 REVERT JUMPDEST POP PUSH2 0x26B PUSH2 0x531 CALLDATASIZE PUSH1 0x4 PUSH2 0x3893 JUMP JUMPDEST PUSH2 0x1725 JUMP JUMPDEST CALLVALUE DUP1 ISZERO PUSH2 0x542 JUMPI PUSH1 0x0 DUP1 REVERT JUMPDEST POP PUSH2 0x556 PUSH2 0x551 CALLDATASIZE PUSH1 0x4 PUSH2 0x3B69 JUMP JUMPDEST PUSH2 0x18B3 JUMP JUMPDEST PUSH1 0x40 MLOAD PUSH2 0x1E8 SWAP2 SWAP1 PUSH2 0x4949 JUMP JUMPDEST CALLVALUE DUP1 ISZERO PUSH2 0x56F JUMPI PUSH1 0x0 DUP1 REVERT JUMPDEST POP PUSH2 0x26B PUSH2 0x57E CALLDATASIZE PUSH1 0x4 PUSH2 0x3B69 JUMP JUMPDEST PUSH2 0x19A0 JUMP JUMPDEST CALLVALUE DUP1 ISZERO PUSH2 0x58F JUMPI PUSH1 0x0 DUP1 REVERT JUMPDEST POP PUSH2 0x1DB PUSH2 0x59E CALLDATASIZE PUSH1 0x4 PUSH2 0x38B1 JUMP JUMPDEST PUSH2 0x19E9 JUMP JUMPDEST CALLVALUE DUP1 ISZERO PUSH2 0x5AF JUMPI PUSH1 0x0 DUP1 REVERT JUMPDEST POP PUSH2 0x5B8 PUSH2 0x1A06 JUMP JUMPDEST PUSH1 0x40 MLOAD PUSH2 0x1E8 SWAP2 SWAP1 PUSH2 0x46FD JUMP JUMPDEST CALLVALUE DUP1 ISZERO PUSH2 0x5D1 JUMPI PUSH1 0x0 DUP1 REVERT JUMPDEST POP PUSH2 0x211 PUSH2 0x5E0 CALLDATASIZE PUSH1 0x4 PUSH2 0x39E4 JUMP JUMPDEST PUSH2 0x1A66 JUMP JUMPDEST CALLVALUE DUP1 ISZERO PUSH2 0x5F1 JUMPI PUSH1 0x0 DUP1 REVERT JUMPDEST POP PUSH2 0x1DB PUSH2 0x1B3B JUMP JUMPDEST CALLVALUE DUP1 ISZERO PUSH2 0x606 JUMPI PUSH1 0x0 DUP1 REVERT JUMPDEST POP PUSH2 0x211 PUSH2 0x615 CALLDATASIZE PUSH1 0x4 PUSH2 0x39E4 JUMP JUMPDEST PUSH2 0x1B41 JUMP JUMPDEST CALLVALUE DUP1 ISZERO PUSH2 0x626 JUMPI PUSH1 0x0 DUP1 REVERT JUMPDEST POP PUSH2 0x387 PUSH2 0x1C60 JUMP JUMPDEST CALLVALUE DUP1 ISZERO PUSH2 0x63B JUMPI PUSH1 0x0 DUP1 REVERT JUMPDEST POP PUSH2 0x26B PUSH2 0x64A CALLDATASIZE PUSH1 0x4 PUSH2 0x3893 JUMP JUMPDEST PUSH2 0x1C6F JUMP JUMPDEST CALLVALUE DUP1 ISZERO PUSH2 0x65B JUMPI PUSH1 0x0 DUP1 REVERT JUMPDEST POP PUSH2 0x5B8 PUSH2 0x1CD7 JUMP JUMPDEST PUSH1 0x3 PUSH1 0x20 MSTORE PUSH1 0x0 SWAP1 DUP2 MSTORE PUSH1 0x40 SWAP1 KECCAK256 SLOAD DUP2 JUMP JUMPDEST PUSH2 0x67E PUSH2 0x34C5 JUMP JUMPDEST PUSH1 0x0 DUP1 PUSH2 0x689 PUSH2 0x34C5 JUMP JUMPDEST PUSH1 0x0 SLOAD PUSH1 0xFF AND ISZERO PUSH2 0x6B8 JUMPI PUSH1 0x40 MLOAD PUSH1 0xE5 PUSH1 0x2 EXP PUSH3 0x461BCD MUL DUP2 MSTORE PUSH1 0x4 ADD PUSH2 0x6AF SWAP1 PUSH2 0x48AC JUMP JUMPDEST PUSH1 0x40 MLOAD DUP1 SWAP2 SUB SWAP1 REVERT JUMPDEST PUSH1 0x0 DUP1 SLOAD PUSH1 0xFF NOT AND PUSH1 0x1 OR DUP2 SSTORE DUP8 MLOAD SWAP4 POP SWAP2 POP JUMPDEST DUP2 DUP4 EQ PUSH2 0x73A JUMPI PUSH2 0x723 DUP8 DUP4 DUP2 MLOAD DUP2 LT ISZERO ISZERO PUSH2 0x6E4 JUMPI INVALID JUMPDEST SWAP1 PUSH1 0x20 ADD SWAP1 PUSH1 0x20 MUL ADD MLOAD DUP8 DUP5 DUP2 MLOAD DUP2 LT ISZERO ISZERO PUSH2 0x6FC JUMPI INVALID JUMPDEST SWAP1 PUSH1 0x20 ADD SWAP1 PUSH1 0x20 MUL ADD MLOAD DUP8 DUP6 DUP2 MLOAD DUP2 LT ISZERO ISZERO PUSH2 0x714 JUMPI INVALID JUMPDEST SWAP1 PUSH1 0x20 ADD SWAP1 PUSH1 0x20 MUL ADD MLOAD PUSH2 0x1D0E JUMP JUMPDEST SWAP1 POP PUSH2 0x72F DUP5 DUP3 PUSH2 0x1DAC JUMP JUMPDEST PUSH1 0x1 SWAP1 SWAP2 ADD SWAP1 PUSH2 0x6CC JUMP JUMPDEST POP POP PUSH1 0x0 DUP1 SLOAD PUSH1 0xFF NOT AND SWAP1 SSTORE POP SWAP4 SWAP3 POP POP POP JUMP JUMPDEST PUSH1 0x4 PUSH1 0x20 MSTORE PUSH1 0x0 SWAP1 DUP2 MSTORE PUSH1 0x40 SWAP1 KECCAK256 SLOAD PUSH1 0xFF AND DUP2 JUMP JUMPDEST PUSH1 0x1 PUSH1 0xA0 PUSH1 0x2 EXP SUB DUP4 AND CALLER EQ PUSH2 0x7CF JUMPI PUSH2 0x7AE DUP5 DUP5 DUP5 DUP5 DUP1 DUP1 PUSH1 0x1F ADD PUSH1 0x20 DUP1 SWAP2 DIV MUL PUSH1 0x20 ADD PUSH1 0x40 MLOAD SWAP1 DUP2 ADD PUSH1 0x40 MSTORE DUP1 SWAP4 SWAP3 SWAP2 SWAP1 DUP2 DUP2 MSTORE PUSH1 0x20 ADD DUP4 DUP4 DUP1 DUP3 DUP5 CALLDATACOPY POP PUSH2 0xFEA SWAP5 POP POP POP POP POP JUMP JUMPDEST ISZERO ISZERO PUSH2 0x7CF JUMPI PUSH1 0x40 MLOAD PUSH1 0xE5 PUSH1 0x2 EXP PUSH3 0x461BCD MUL DUP2 MSTORE PUSH1 0x4 ADD PUSH2 0x6AF SWAP1 PUSH2 0x47DC JUMP JUMPDEST POP POP PUSH1 0x0 SWAP2 DUP3 MSTORE PUSH1 0x6 PUSH1 0x20 SWAP1 DUP2 MSTORE PUSH1 0x40 DUP1 DUP5 KECCAK256 PUSH1 0x1 PUSH1 0xA0 PUSH1 0x2 EXP SUB SWAP1 SWAP4 AND DUP5 MSTORE SWAP2 SWAP1 MSTORE SWAP1 KECCAK256 DUP1 SLOAD PUSH1 0xFF NOT AND PUSH1 0x1 OR SWAP1 SSTORE JUMP JUMPDEST PUSH2 0x809 PUSH2 0x34EE JUMP JUMPDEST PUSH2 0x811 PUSH2 0x351D JUMP JUMPDEST PUSH2 0x819 PUSH2 0x351D JUMP JUMPDEST PUSH1 0x0 DUP1 SLOAD PUSH1 0xFF AND ISZERO PUSH2 0x840 JUMPI PUSH1 0x40 MLOAD PUSH1 0xE5 PUSH1 0x2 EXP PUSH3 0x461BCD MUL DUP2 MSTORE PUSH1 0x4 ADD PUSH2 0x6AF SWAP1 PUSH2 0x48AC JUMP JUMPDEST PUSH1 0x0 DUP1 SLOAD PUSH1 0xFF NOT AND PUSH1 0x1 OR SWAP1 SSTORE PUSH2 0x160 DUP1 DUP10 ADD MLOAD PUSH2 0x140 DUP1 DUP11 ADD SWAP2 SWAP1 SWAP2 MSTORE DUP10 ADD MLOAD SWAP1 DUP9 ADD MSTORE PUSH2 0x86E DUP9 PUSH2 0x18B3 JUMP JUMPDEST SWAP3 POP PUSH2 0x879 DUP8 PUSH2 0x18B3 JUMP JUMPDEST SWAP2 POP PUSH2 0x883 PUSH2 0x1E0E JUMP JUMPDEST SWAP1 POP PUSH2 0x891 DUP9 DUP5 DUP4 DUP10 PUSH2 0x1E33 JUMP JUMPDEST PUSH2 0x89D DUP8 DUP4 DUP4 DUP9 PUSH2 0x1E33 JUMP JUMPDEST PUSH2 0x8A7 DUP9 DUP9 PUSH2 0x1F2E JUMP JUMPDEST PUSH2 0x8BB DUP9 DUP9 DUP6 PUSH1 0x40 ADD MLOAD DUP6 PUSH1 0x40 ADD MLOAD PUSH2 0x1F77 JUMP JUMPDEST DUP1 MLOAD PUSH1 0x20 DUP2 ADD MLOAD SWAP1 MLOAD SWAP2 SWAP6 POP PUSH2 0x8D6 SWAP2 DUP11 SWAP2 DUP7 SWAP2 DUP2 SWAP1 PUSH2 0x20FE JUMP JUMPDEST PUSH1 0x20 DUP1 DUP6 ADD MLOAD SWAP1 DUP2 ADD MLOAD SWAP1 MLOAD PUSH2 0x8F2 SWAP2 DUP10 SWAP2 DUP6 SWAP2 SWAP1 DUP2 SWAP1 PUSH2 0x20FE JUMP JUMPDEST PUSH2 0x90B DUP9 DUP3 DUP6 PUSH1 0x20 ADD MLOAD DUP7 PUSH1 0x40 ADD MLOAD DUP9 PUSH1 0x0 ADD MLOAD PUSH2 0x21BB JUMP JUMPDEST PUSH2 0x924 DUP8 DUP3 DUP5 PUSH1 0x20 ADD MLOAD DUP6 PUSH1 0x40 ADD MLOAD DUP9 PUSH1 0x20 ADD MLOAD PUSH2 0x21BB JUMP JUMPDEST PUSH2 0x930 DUP9 DUP9 DUP4 DUP8 PUSH2 0x225A JUMP JUMPDEST POP POP PUSH1 0x0 DUP1 SLOAD PUSH1 0xFF NOT AND SWAP1 SSTORE POP SWAP5 SWAP4 POP POP POP POP JUMP JUMPDEST PUSH2 0x94D PUSH2 0x34C5 JUMP JUMPDEST PUSH1 0x60 PUSH2 0x95A DUP6 DUP6 DUP6 PUSH2 0x23C8 JUMP JUMPDEST SWAP1 POP PUSH1 0x80 DUP2 DUP3 MLOAD PUSH1 0x20 DUP5 ADD ADDRESS GAS DELEGATECALL DUP1 ISZERO PUSH2 0x991 JUMPI DUP2 MLOAD DUP4 MSTORE PUSH1 0x20 DUP3 ADD MLOAD PUSH1 0x20 DUP5 ADD MSTORE PUSH1 0x40 DUP3 ADD MLOAD PUSH1 0x40 DUP5 ADD MSTORE PUSH1 0x60 DUP3 ADD MLOAD PUSH1 0x60 DUP5 ADD MSTORE JUMPDEST POP JUMPDEST POP SWAP4 SWAP3 POP POP POP JUMP JUMPDEST PUSH1 0xA PUSH1 0x20 MSTORE PUSH1 0x0 SWAP1 DUP2 MSTORE PUSH1 0x40 SWAP1 KECCAK256 SLOAD PUSH1 0x1 PUSH1 0xA0 PUSH1 0x2 EXP SUB AND DUP2 JUMP JUMPDEST PUSH1 0x0 DUP1 SLOAD DUP2 SWAP1 PUSH1 0xFF AND ISZERO PUSH2 0x9DF JUMPI PUSH1 0x40 MLOAD PUSH1 0xE5 PUSH1 0x2 EXP PUSH3 0x461BCD MUL DUP2 MSTORE PUSH1 0x4 ADD PUSH2 0x6AF SWAP1 PUSH2 0x48AC JUMP JUMPDEST POP POP PUSH1 0x0 DUP1 SLOAD PUSH1 0xFF NOT AND PUSH1 0x1 OR DUP2 SSTORE DUP2 MLOAD SWAP1 JUMPDEST DUP1 DUP3 EQ PUSH2 0xA21 JUMPI PUSH2 0xA19 DUP4 DUP3 DUP2 MLOAD DUP2 LT ISZERO ISZERO PUSH2 0xA0A JUMPI INVALID JUMPDEST SWAP1 PUSH1 0x20 ADD SWAP1 PUSH1 0x20 MUL ADD MLOAD PUSH2 0x257C JUMP JUMPDEST PUSH1 0x1 ADD PUSH2 0x9F2 JUMP JUMPDEST POP POP PUSH1 0x0 DUP1 SLOAD PUSH1 0xFF NOT AND SWAP1 SSTORE POP JUMP JUMPDEST PUSH2 0xA38 PUSH2 0x34C5 JUMP JUMPDEST PUSH1 0x0 DUP1 PUSH2 0xA43 PUSH2 0x34C5 JUMP JUMPDEST PUSH1 0x0 SLOAD PUSH1 0xFF AND ISZERO PUSH2 0xA69 JUMPI PUSH1 0x40 MLOAD PUSH1 0xE5 PUSH1 0x2 EXP PUSH3 0x461BCD MUL DUP2 MSTORE PUSH1 0x4 ADD PUSH2 0x6AF SWAP1 PUSH2 0x48AC JUMP JUMPDEST PUSH1 0x0 DUP1 SLOAD PUSH1 0xFF NOT AND PUSH1 0x1 OR DUP2 SSTORE DUP8 MLOAD SWAP4 POP SWAP2 POP JUMPDEST DUP2 DUP4 EQ PUSH2 0x73A JUMPI PUSH2 0xAD4 DUP8 DUP4 DUP2 MLOAD DUP2 LT ISZERO ISZERO PUSH2 0xA95 JUMPI INVALID JUMPDEST SWAP1 PUSH1 0x20 ADD SWAP1 PUSH1 0x20 MUL ADD MLOAD DUP8 DUP5 DUP2 MLOAD DUP2 LT ISZERO ISZERO PUSH2 0xAAD JUMPI INVALID JUMPDEST SWAP1 PUSH1 0x20 ADD SWAP1 PUSH1 0x20 MUL ADD MLOAD DUP8 DUP6 DUP2 MLOAD DUP2 LT ISZERO ISZERO PUSH2 0xAC5 JUMPI INVALID JUMPDEST SWAP1 PUSH1 0x20 ADD SWAP1 PUSH1 0x20 MUL ADD MLOAD PUSH2 0x25A7 JUMP JUMPDEST SWAP1 POP PUSH2 0xAE0 DUP5 DUP3 PUSH2 0x1DAC JUMP JUMPDEST PUSH1 0x1 SWAP1 SWAP2 ADD SWAP1 PUSH2 0xA7D JUMP JUMPDEST PUSH1 0x0 DUP1 SLOAD DUP2 SWAP1 DUP2 SWAP1 DUP2 SWAP1 PUSH1 0xFF AND ISZERO PUSH2 0xB18 JUMPI PUSH1 0x40 MLOAD PUSH1 0xE5 PUSH1 0x2 EXP PUSH3 0x461BCD MUL DUP2 MSTORE PUSH1 0x4 ADD PUSH2 0x6AF SWAP1 PUSH2 0x48AC JUMP JUMPDEST PUSH1 0x0 DUP1 SLOAD PUSH1 0xFF NOT AND PUSH1 0x1 OR SWAP1 SSTORE PUSH2 0xB2D PUSH2 0x1E0E JUMP JUMPDEST SWAP4 POP PUSH1 0x1 PUSH1 0xA0 PUSH1 0x2 EXP SUB DUP5 AND CALLER EQ PUSH2 0xB45 JUMPI CALLER PUSH2 0xB48 JUMP JUMPDEST PUSH1 0x0 JUMPDEST PUSH1 0x1 PUSH1 0xA0 PUSH1 0x2 EXP SUB DUP1 DUP7 AND PUSH1 0x0 SWAP1 DUP2 MSTORE PUSH1 0x5 PUSH1 0x20 SWAP1 DUP2 MSTORE PUSH1 0x40 DUP1 DUP4 KECCAK256 SWAP4 DUP6 AND DUP4 MSTORE SWAP3 SWAP1 MSTORE KECCAK256 SLOAD SWAP1 SWAP4 POP PUSH1 0x1 DUP7 ADD SWAP3 POP SWAP1 POP DUP1 DUP3 GT PUSH2 0xB9B JUMPI PUSH1 0x40 MLOAD PUSH1 0xE5 PUSH1 0x2 EXP PUSH3 0x461BCD MUL DUP2 MSTORE PUSH1 0x4 ADD PUSH2 0x6AF SWAP1 PUSH2 0x486C JUMP JUMPDEST PUSH1 0x1 PUSH1 0xA0 PUSH1 0x2 EXP SUB DUP1 DUP6 AND PUSH1 0x0 DUP2 DUP2 MSTORE PUSH1 0x5 PUSH1 0x20 SWAP1 DUP2 MSTORE PUSH1 0x40 DUP1 DUP4 KECCAK256 SWAP5 DUP9 AND DUP1 DUP5 MSTORE SWAP5 SWAP1 SWAP2 MSTORE SWAP1 DUP2 SWAP1 KECCAK256 DUP6 SWAP1 SSTORE MLOAD PUSH32 0x82AF639571738F4EBD4268FB0363D8957EBE1BBB9E78DBA5EBD69EED39B154F0 SWAP1 PUSH2 0xBF6 SWAP1 DUP7 SWAP1 PUSH2 0x4652 JUMP JUMPDEST PUSH1 0x40 MLOAD DUP1 SWAP2 SUB SWAP1 LOG3 POP POP PUSH1 0x0 DUP1 SLOAD PUSH1 0xFF NOT AND SWAP1 SSTORE POP POP POP JUMP JUMPDEST PUSH2 0xC17 PUSH2 0x34C5 JUMP JUMPDEST PUSH1 0x0 DUP1 PUSH2 0xC22 PUSH2 0x34C5 JUMP JUMPDEST DUP7 MLOAD SWAP3 POP PUSH1 0x0 SWAP2 POP JUMPDEST DUP2 DUP4 EQ PUSH2 0xC99 JUMPI PUSH2 0xC82 DUP8 DUP4 DUP2 MLOAD DUP2 LT ISZERO ISZERO PUSH2 0xC43 JUMPI INVALID JUMPDEST SWAP1 PUSH1 0x20 ADD SWAP1 PUSH1 0x20 MUL ADD MLOAD DUP8 DUP5 DUP2 MLOAD DUP2 LT ISZERO ISZERO PUSH2 0xC5B JUMPI INVALID JUMPDEST SWAP1 PUSH1 0x20 ADD SWAP1 PUSH1 0x20 MUL ADD MLOAD DUP8 DUP6 DUP2 MLOAD DUP2 LT ISZERO ISZERO PUSH2 0xC73 JUMPI INVALID JUMPDEST SWAP1 PUSH1 0x20 ADD SWAP1 PUSH1 0x20 MUL ADD MLOAD PUSH2 0x945 JUMP JUMPDEST SWAP1 POP PUSH2 0xC8E DUP5 DUP3 PUSH2 0x1DAC JUMP JUMPDEST PUSH1 0x1 SWAP1 SWAP2 ADD SWAP1 PUSH2 0xC2B JUMP JUMPDEST POP POP POP SWAP4 SWAP3 POP POP POP JUMP JUMPDEST PUSH1 0x1 PUSH1 0xE0 PUSH1 0x2 EXP SUB NOT DUP2 AND PUSH1 0x0 SWAP1 DUP2 MSTORE PUSH1 0xA PUSH1 0x20 MSTORE PUSH1 0x40 SWAP1 KECCAK256 SLOAD PUSH1 0x1 PUSH1 0xA0 PUSH1 0x2 EXP SUB AND JUMPDEST SWAP2 SWAP1 POP JUMP JUMPDEST PUSH1 0x8 PUSH1 0x20 MSTORE PUSH1 0x0 SWAP1 DUP2 MSTORE PUSH1 0x40 SWAP1 KECCAK256 SLOAD PUSH1 0xFF AND DUP2 JUMP JUMPDEST PUSH2 0xCE9 PUSH2 0x34C5 JUMP JUMPDEST PUSH1 0x0 SLOAD PUSH1 0xFF AND ISZERO PUSH2 0xD0F JUMPI PUSH1 0x40 MLOAD PUSH1 0xE5 PUSH1 0x2 EXP PUSH3 0x461BCD MUL DUP2 MSTORE PUSH1 0x4 ADD PUSH2 0x6AF SWAP1 PUSH2 0x48AC JUMP JUMPDEST PUSH1 0x0 DUP1 SLOAD PUSH1 0xFF NOT AND PUSH1 0x1 OR SWAP1 SSTORE PUSH2 0xD27 DUP5 DUP5 DUP5 PUSH2 0x25A7 JUMP JUMPDEST PUSH1 0x0 DUP1 SLOAD PUSH1 0xFF NOT AND SWAP1 SSTORE SWAP5 SWAP4 POP POP POP POP JUMP JUMPDEST PUSH1 0x0 DUP1 SLOAD PUSH1 0xFF AND ISZERO PUSH2 0xD60 JUMPI PUSH1 0x40 MLOAD PUSH1 0xE5 PUSH1 0x2 EXP PUSH3 0x461BCD MUL DUP2 MSTORE PUSH1 0x4 ADD PUSH2 0x6AF SWAP1 PUSH2 0x48AC JUMP JUMPDEST PUSH1 0x0 DUP1 SLOAD PUSH1 0xFF NOT AND PUSH1 0x1 OR SWAP1 SSTORE PUSH2 0xD75 PUSH2 0x1E0E JUMP JUMPDEST PUSH1 0x1 PUSH1 0xA0 PUSH1 0x2 EXP SUB DUP2 DUP2 AND PUSH1 0x0 DUP2 DUP2 MSTORE PUSH1 0x7 PUSH1 0x20 SWAP1 DUP2 MSTORE PUSH1 0x40 DUP1 DUP4 KECCAK256 SWAP5 DUP10 AND DUP1 DUP5 MSTORE SWAP5 SWAP1 SWAP2 MSTORE SWAP1 DUP2 SWAP1 KECCAK256 DUP1 SLOAD PUSH1 0xFF NOT AND DUP8 ISZERO ISZERO OR SWAP1 SSTORE MLOAD SWAP3 SWAP4 POP SWAP1 SWAP2 PUSH32 0xA8656E308026EEABCE8F0BC18048433252318AB80AC79DA0B3D3D8697DFBA891 SWAP1 PUSH2 0xDDE SWAP1 DUP7 SWAP1 PUSH2 0x4644 JUMP JUMPDEST PUSH1 0x40 MLOAD DUP1 SWAP2 SUB SWAP1 LOG3 POP POP PUSH1 0x0 DUP1 SLOAD PUSH1 0xFF NOT AND SWAP1 SSTORE POP JUMP JUMPDEST PUSH1 0x7 PUSH1 0x20 SWAP1 DUP2 MSTORE PUSH1 0x0 SWAP3 DUP4 MSTORE PUSH1 0x40 DUP1 DUP5 KECCAK256 SWAP1 SWAP2 MSTORE SWAP1 DUP3 MSTORE SWAP1 KECCAK256 SLOAD PUSH1 0xFF AND DUP2 JUMP JUMPDEST PUSH2 0xE1D PUSH2 0x34C5 JUMP JUMPDEST PUSH1 0x60 PUSH1 0x0 DUP1 PUSH1 0x0 PUSH2 0xE2C PUSH2 0x34C5 JUMP JUMPDEST PUSH1 0x0 SLOAD PUSH1 0xFF AND ISZERO PUSH2 0xE52 JUMPI PUSH1 0x40 MLOAD PUSH1 0xE5 PUSH1 0x2 EXP PUSH3 0x461BCD MUL DUP2 MSTORE PUSH1 0x4 ADD PUSH2 0x6AF SWAP1 PUSH2 0x48AC JUMP JUMPDEST PUSH1 0x0 DUP1 SLOAD PUSH1 0xFF NOT AND PUSH1 0x1 OR DUP2 SSTORE DUP10 MLOAD DUP11 SWAP2 SWAP1 DUP2 LT PUSH2 0xE6C JUMPI INVALID JUMPDEST SWAP1 PUSH1 0x20 ADD SWAP1 PUSH1 0x20 MUL ADD MLOAD PUSH2 0x160 ADD MLOAD SWAP5 POP DUP9 MLOAD SWAP4 POP PUSH1 0x0 SWAP3 POP JUMPDEST DUP3 DUP5 EQ PUSH2 0xF0F JUMPI DUP5 DUP10 DUP5 DUP2 MLOAD DUP2 LT ISZERO ISZERO PUSH2 0xE9C JUMPI INVALID JUMPDEST SWAP1 PUSH1 0x20 ADD SWAP1 PUSH1 0x20 MUL ADD MLOAD PUSH2 0x160 ADD DUP2 SWAP1 MSTORE POP PUSH2 0xEBC DUP9 DUP8 PUSH1 0x20 ADD MLOAD PUSH2 0x25E3 JUMP JUMPDEST SWAP2 POP PUSH2 0xEE8 DUP10 DUP5 DUP2 MLOAD DUP2 LT ISZERO ISZERO PUSH2 0xECF JUMPI INVALID JUMPDEST SWAP1 PUSH1 0x20 ADD SWAP1 PUSH1 0x20 MUL ADD MLOAD DUP4 DUP10 DUP7 DUP2 MLOAD DUP2 LT ISZERO ISZERO PUSH2 0x714 JUMPI INVALID JUMPDEST SWAP1 POP PUSH2 0xEF4 DUP7 DUP3 PUSH2 0x1DAC JUMP JUMPDEST PUSH1 0x20 DUP7 ADD MLOAD DUP9 GT PUSH2 0xF04 JUMPI PUSH2 0xF0F JUMP JUMPDEST PUSH1 0x1 SWAP1 SWAP3 ADD SWAP2 PUSH2 0xE86 JUMP JUMPDEST POP POP PUSH1 0x0 DUP1 SLOAD PUSH1 0xFF NOT AND SWAP1 SSTORE POP SWAP2 SWAP6 SWAP5 POP POP POP POP POP JUMP JUMPDEST PUSH1 0x60 PUSH1 0x0 PUSH1 0x60 PUSH1 0x0 DUP5 MLOAD SWAP3 POP DUP3 PUSH1 0x40 MLOAD SWAP1 DUP1 DUP3 MSTORE DUP1 PUSH1 0x20 MUL PUSH1 0x20 ADD DUP3 ADD PUSH1 0x40 MSTORE DUP1 ISZERO PUSH2 0xF6C JUMPI DUP2 PUSH1 0x20 ADD JUMPDEST PUSH2 0xF59 PUSH2 0x351D JUMP JUMPDEST DUP2 MSTORE PUSH1 0x20 ADD SWAP1 PUSH1 0x1 SWAP1 SUB SWAP1 DUP2 PUSH2 0xF51 JUMPI SWAP1 POP JUMPDEST POP SWAP2 POP PUSH1 0x0 SWAP1 POP JUMPDEST DUP1 DUP4 EQ PUSH2 0x993 JUMPI PUSH2 0xF9B DUP6 DUP3 DUP2 MLOAD DUP2 LT ISZERO ISZERO PUSH2 0xF8C JUMPI INVALID JUMPDEST SWAP1 PUSH1 0x20 ADD SWAP1 PUSH1 0x20 MUL ADD MLOAD PUSH2 0x18B3 JUMP JUMPDEST DUP3 DUP3 DUP2 MLOAD DUP2 LT ISZERO ISZERO PUSH2 0xFA9 JUMPI INVALID JUMPDEST PUSH1 0x20 SWAP1 DUP2 MUL SWAP1 SWAP2 ADD ADD MSTORE PUSH1 0x1 ADD PUSH2 0xF74 JUMP JUMPDEST PUSH1 0x6 PUSH1 0x20 SWAP1 DUP2 MSTORE PUSH1 0x0 SWAP3 DUP4 MSTORE PUSH1 0x40 DUP1 DUP5 KECCAK256 SWAP1 SWAP2 MSTORE SWAP1 DUP3 MSTORE SWAP1 KECCAK256 SLOAD PUSH1 0xFF AND DUP2 JUMP JUMPDEST PUSH1 0x2 SLOAD PUSH1 0x1 PUSH1 0xA0 PUSH1 0x2 EXP SUB AND DUP2 JUMP JUMPDEST PUSH1 0x0 DUP1 PUSH1 0x0 DUP1 PUSH1 0x0 DUP1 PUSH1 0x0 DUP1 PUSH1 0x0 DUP10 MLOAD GT ISZERO ISZERO PUSH2 0x101C JUMPI PUSH1 0x40 MLOAD PUSH1 0xE5 PUSH1 0x2 EXP PUSH3 0x461BCD MUL DUP2 MSTORE PUSH1 0x4 ADD PUSH2 0x6AF SWAP1 PUSH2 0x485C JUMP JUMPDEST PUSH2 0x1025 DUP10 PUSH2 0x2613 JUMP JUMPDEST PUSH1 0xF8 PUSH1 0x2 EXP SWAP1 DIV SWAP7 POP PUSH1 0x7 PUSH1 0xFF DUP9 AND LT PUSH2 0x1054 JUMPI PUSH1 0x40 MLOAD PUSH1 0xE5 PUSH1 0x2 EXP PUSH3 0x461BCD MUL DUP2 MSTORE PUSH1 0x4 ADD PUSH2 0x6AF SWAP1 PUSH2 0x477C JUMP JUMPDEST DUP7 PUSH1 0xFF AND PUSH1 0x7 DUP2 GT ISZERO PUSH2 0x1063 JUMPI INVALID JUMPDEST SWAP6 POP PUSH1 0x0 DUP7 PUSH1 0x7 DUP2 GT ISZERO PUSH2 0x1073 JUMPI INVALID JUMPDEST EQ ISZERO PUSH2 0x1094 JUMPI PUSH1 0x40 MLOAD PUSH1 0xE5 PUSH1 0x2 EXP PUSH3 0x461BCD MUL DUP2 MSTORE PUSH1 0x4 ADD PUSH2 0x6AF SWAP1 PUSH2 0x484C JUMP JUMPDEST PUSH1 0x1 DUP7 PUSH1 0x7 DUP2 GT ISZERO PUSH2 0x10A2 JUMPI INVALID JUMPDEST EQ ISZERO PUSH2 0x10D3 JUMPI DUP9 MLOAD ISZERO PUSH2 0x10CA JUMPI PUSH1 0x40 MLOAD PUSH1 0xE5 PUSH1 0x2 EXP PUSH3 0x461BCD MUL DUP2 MSTORE PUSH1 0x4 ADD PUSH2 0x6AF SWAP1 PUSH2 0x491C JUMP JUMPDEST PUSH1 0x0 SWAP8 POP PUSH2 0x13E9 JUMP JUMPDEST PUSH1 0x2 DUP7 PUSH1 0x7 DUP2 GT ISZERO PUSH2 0x10E1 JUMPI INVALID JUMPDEST EQ ISZERO PUSH2 0x11BE JUMPI DUP9 MLOAD PUSH1 0x41 EQ PUSH2 0x110B JUMPI PUSH1 0x40 MLOAD PUSH1 0xE5 PUSH1 0x2 EXP PUSH3 0x461BCD MUL DUP2 MSTORE PUSH1 0x4 ADD PUSH2 0x6AF SWAP1 PUSH2 0x471C JUMP JUMPDEST DUP9 PUSH1 0x0 DUP2 MLOAD DUP2 LT ISZERO ISZERO PUSH2 0x111A JUMPI INVALID JUMPDEST ADD PUSH1 0x20 ADD MLOAD PUSH1 0xF8 PUSH1 0x2 EXP SWAP1 DUP2 SWAP1 DIV DUP2 MUL DIV SWAP5 POP PUSH2 0x113E DUP10 PUSH1 0x1 PUSH4 0xFFFFFFFF PUSH2 0x2668 AND JUMP JUMPDEST SWAP4 POP PUSH2 0x1151 DUP10 PUSH1 0x21 PUSH4 0xFFFFFFFF PUSH2 0x2668 AND JUMP JUMPDEST SWAP3 POP PUSH1 0x1 DUP12 DUP7 DUP7 DUP7 PUSH1 0x40 MLOAD PUSH1 0x0 DUP2 MSTORE PUSH1 0x20 ADD PUSH1 0x40 MSTORE PUSH1 0x40 MLOAD PUSH2 0x1176 SWAP5 SWAP4 SWAP3 SWAP2 SWAP1 PUSH2 0x46AD JUMP JUMPDEST PUSH1 0x20 PUSH1 0x40 MLOAD PUSH1 0x20 DUP2 SUB SWAP1 DUP1 DUP5 SUB SWAP1 PUSH1 0x0 DUP7 GAS CALL ISZERO DUP1 ISZERO PUSH2 0x119A JUMPI RETURNDATASIZE PUSH1 0x0 DUP1 RETURNDATACOPY RETURNDATASIZE PUSH1 0x0 REVERT JUMPDEST POP POP PUSH1 0x40 MLOAD PUSH1 0x1F NOT ADD MLOAD PUSH1 0x1 PUSH1 0xA0 PUSH1 0x2 EXP SUB DUP13 DUP2 AND SWAP1 DUP3 AND EQ SWAP10 POP SWAP3 POP PUSH2 0x13E9 SWAP1 POP JUMP JUMPDEST PUSH1 0x3 DUP7 PUSH1 0x7 DUP2 GT ISZERO PUSH2 0x11CC JUMPI INVALID JUMPDEST EQ ISZERO PUSH2 0x1303 JUMPI DUP9 MLOAD PUSH1 0x41 EQ PUSH2 0x11F6 JUMPI PUSH1 0x40 MLOAD PUSH1 0xE5 PUSH1 0x2 EXP PUSH3 0x461BCD MUL DUP2 MSTORE PUSH1 0x4 ADD PUSH2 0x6AF SWAP1 PUSH2 0x471C JUMP JUMPDEST DUP9 PUSH1 0x0 DUP2 MLOAD DUP2 LT ISZERO ISZERO PUSH2 0x1205 JUMPI INVALID JUMPDEST ADD PUSH1 0x20 ADD MLOAD PUSH1 0xF8 PUSH1 0x2 EXP SWAP1 DUP2 SWAP1 DIV DUP2 MUL DIV SWAP5 POP PUSH2 0x1229 DUP10 PUSH1 0x1 PUSH4 0xFFFFFFFF PUSH2 0x2668 AND JUMP JUMPDEST SWAP4 POP PUSH2 0x123C DUP10 PUSH1 0x21 PUSH4 0xFFFFFFFF PUSH2 0x2668 AND JUMP JUMPDEST SWAP3 POP PUSH1 0x1 DUP12 PUSH1 0x40 MLOAD PUSH1 0x20 ADD DUP1 DUP1 PUSH32 0x19457468657265756D205369676E6564204D6573736167653A0A333200000000 DUP2 MSTORE POP PUSH1 0x1C ADD DUP3 PUSH1 0x0 NOT AND PUSH1 0x0 NOT AND DUP2 MSTORE PUSH1 0x20 ADD SWAP2 POP POP PUSH1 0x40 MLOAD PUSH1 0x20 DUP2 DUP4 SUB SUB DUP2 MSTORE SWAP1 PUSH1 0x40 MSTORE PUSH1 0x40 MLOAD DUP1 DUP3 DUP1 MLOAD SWAP1 PUSH1 0x20 ADD SWAP1 DUP1 DUP4 DUP4 JUMPDEST PUSH1 0x20 DUP4 LT PUSH2 0x12BF JUMPI DUP1 MLOAD DUP3 MSTORE PUSH1 0x1F NOT SWAP1 SWAP3 ADD SWAP2 PUSH1 0x20 SWAP2 DUP3 ADD SWAP2 ADD PUSH2 0x12A0 JUMP JUMPDEST MLOAD DUP2 MLOAD PUSH1 0x20 SWAP4 DUP5 SUB PUSH2 0x100 EXP PUSH1 0x0 NOT ADD DUP1 NOT SWAP1 SWAP3 AND SWAP2 AND OR SWAP1 MSTORE PUSH1 0x40 DUP1 MLOAD SWAP3 SWAP1 SWAP5 ADD DUP3 SWAP1 SUB DUP3 KECCAK256 PUSH1 0x0 DUP4 MSTORE SWAP2 ADD SWAP3 DUP4 SWAP1 MSTORE PUSH2 0x1176 SWAP5 POP SWAP3 POP DUP10 SWAP2 DUP10 SWAP2 POP DUP9 SWAP1 PUSH2 0x46AD JUMP JUMPDEST PUSH1 0x4 DUP7 PUSH1 0x7 DUP2 GT ISZERO PUSH2 0x1311 JUMPI INVALID JUMPDEST EQ ISZERO PUSH2 0x1329 JUMPI PUSH2 0x1322 DUP12 DUP12 DUP12 PUSH2 0x269C JUMP JUMPDEST SWAP8 POP PUSH2 0x13E9 JUMP JUMPDEST PUSH1 0x5 DUP7 PUSH1 0x7 DUP2 GT ISZERO PUSH2 0x1337 JUMPI INVALID JUMPDEST EQ ISZERO PUSH2 0x138D JUMPI PUSH2 0x1346 DUP10 PUSH2 0x27A4 JUMP JUMPDEST PUSH1 0x1 PUSH1 0xA0 PUSH1 0x2 EXP SUB DUP1 DUP13 AND PUSH1 0x0 SWAP1 DUP2 MSTORE PUSH1 0x7 PUSH1 0x20 SWAP1 DUP2 MSTORE PUSH1 0x40 DUP1 DUP4 KECCAK256 SWAP4 DUP6 AND DUP4 MSTORE SWAP3 SWAP1 MSTORE KECCAK256 SLOAD SWAP1 SWAP2 POP PUSH1 0xFF AND ISZERO ISZERO PUSH2 0x1381 JUMPI PUSH1 0x0 SWAP8 POP PUSH2 0x13E9 JUMP JUMPDEST PUSH2 0x1322 DUP2 DUP13 DUP13 DUP13 PUSH2 0x27E8 JUMP JUMPDEST PUSH1 0x6 DUP7 PUSH1 0x7 DUP2 GT ISZERO PUSH2 0x139B JUMPI INVALID JUMPDEST EQ ISZERO PUSH2 0x13CE JUMPI PUSH1 0x0 DUP12 DUP2 MSTORE PUSH1 0x6 PUSH1 0x20 SWAP1 DUP2 MSTORE PUSH1 0x40 DUP1 DUP4 KECCAK256 PUSH1 0x1 PUSH1 0xA0 PUSH1 0x2 EXP SUB DUP15 AND DUP5 MSTORE SWAP1 SWAP2 MSTORE SWAP1 KECCAK256 SLOAD PUSH1 0xFF AND SWAP8 POP PUSH2 0x13E9 JUMP JUMPDEST PUSH1 0x40 MLOAD PUSH1 0xE5 PUSH1 0x2 EXP PUSH3 0x461BCD MUL DUP2 MSTORE PUSH1 0x4 ADD PUSH2 0x6AF SWAP1 PUSH2 0x477C JUMP JUMPDEST POP POP POP POP POP POP POP SWAP4 SWAP3 POP POP POP JUMP JUMPDEST PUSH2 0x13FF PUSH2 0x34C5 JUMP JUMPDEST PUSH1 0x60 PUSH1 0x0 DUP1 PUSH1 0x0 DUP1 PUSH2 0x140F PUSH2 0x34C5 JUMP JUMPDEST DUP10 PUSH1 0x0 DUP2 MLOAD DUP2 LT ISZERO ISZERO PUSH2 0x141E JUMPI INVALID JUMPDEST SWAP1 PUSH1 0x20 ADD SWAP1 PUSH1 0x20 MUL ADD MLOAD PUSH2 0x140 ADD MLOAD SWAP6 POP DUP10 MLOAD SWAP5 POP PUSH1 0x0 SWAP4 POP JUMPDEST DUP4 DUP6 EQ PUSH2 0x14FD JUMPI DUP6 DUP11 DUP6 DUP2 MLOAD DUP2 LT ISZERO ISZERO PUSH2 0x144E JUMPI INVALID JUMPDEST PUSH1 0x20 SWAP1 DUP2 MUL SWAP1 SWAP2 ADD ADD MLOAD PUSH2 0x140 ADD MSTORE DUP7 MLOAD PUSH2 0x146A SWAP1 DUP11 SWAP1 PUSH2 0x25E3 JUMP JUMPDEST SWAP3 POP PUSH2 0x14AD DUP11 DUP6 DUP2 MLOAD DUP2 LT ISZERO ISZERO PUSH2 0x147D JUMPI INVALID JUMPDEST SWAP1 PUSH1 0x20 ADD SWAP1 PUSH1 0x20 MUL ADD MLOAD PUSH1 0xA0 ADD MLOAD DUP12 DUP7 DUP2 MLOAD DUP2 LT ISZERO ISZERO PUSH2 0x1499 JUMPI INVALID JUMPDEST SWAP1 PUSH1 0x20 ADD SWAP1 PUSH1 0x20 MUL ADD MLOAD PUSH1 0x80 ADD MLOAD DUP6 PUSH2 0x28F7 JUMP JUMPDEST SWAP2 POP PUSH2 0x14D9 DUP11 DUP6 DUP2 MLOAD DUP2 LT ISZERO ISZERO PUSH2 0x14C0 JUMPI INVALID JUMPDEST SWAP1 PUSH1 0x20 ADD SWAP1 PUSH1 0x20 MUL ADD MLOAD DUP4 DUP11 DUP8 DUP2 MLOAD DUP2 LT ISZERO ISZERO PUSH2 0xC73 JUMPI INVALID JUMPDEST SWAP1 POP PUSH2 0x14E5 DUP8 DUP3 PUSH2 0x1DAC JUMP JUMPDEST DUP7 MLOAD DUP10 GT PUSH2 0x14F2 JUMPI PUSH2 0x14FD JUMP JUMPDEST PUSH1 0x1 SWAP1 SWAP4 ADD SWAP3 PUSH2 0x1438 JUMP JUMPDEST POP POP POP POP POP POP SWAP4 SWAP3 POP POP POP JUMP JUMPDEST PUSH2 0x1512 PUSH2 0x34C5 JUMP JUMPDEST PUSH1 0x0 SLOAD PUSH1 0xFF AND ISZERO PUSH2 0x1538 JUMPI PUSH1 0x40 MLOAD PUSH1 0xE5 PUSH1 0x2 EXP PUSH3 0x461BCD MUL DUP2 MSTORE PUSH1 0x4 ADD PUSH2 0x6AF SWAP1 PUSH2 0x48AC JUMP JUMPDEST PUSH1 0x0 DUP1 SLOAD PUSH1 0xFF NOT AND PUSH1 0x1 OR SWAP1 SSTORE PUSH2 0xD27 DUP5 DUP5 DUP5 PUSH2 0x1D0E JUMP JUMPDEST PUSH1 0x9 SLOAD PUSH1 0x0 SWAP1 PUSH1 0x1 PUSH1 0xA0 PUSH1 0x2 EXP SUB AND ISZERO PUSH2 0x157F JUMPI PUSH1 0x40 MLOAD PUSH1 0xE5 PUSH1 0x2 EXP PUSH3 0x461BCD MUL DUP2 MSTORE PUSH1 0x4 ADD PUSH2 0x6AF SWAP1 PUSH2 0x48AC JUMP JUMPDEST PUSH2 0x15C2 PUSH2 0x15BD DUP9 DUP9 DUP9 DUP9 DUP1 DUP1 PUSH1 0x1F ADD PUSH1 0x20 DUP1 SWAP2 DIV MUL PUSH1 0x20 ADD PUSH1 0x40 MLOAD SWAP1 DUP2 ADD PUSH1 0x40 MSTORE DUP1 SWAP4 SWAP3 SWAP2 SWAP1 DUP2 DUP2 MSTORE PUSH1 0x20 ADD DUP4 DUP4 DUP1 DUP3 DUP5 CALLDATACOPY POP PUSH2 0x2936 SWAP5 POP POP POP POP POP JUMP JUMPDEST PUSH2 0x2AF2 JUMP JUMPDEST PUSH1 0x0 DUP2 DUP2 MSTORE PUSH1 0x8 PUSH1 0x20 MSTORE PUSH1 0x40 SWAP1 KECCAK256 SLOAD SWAP1 SWAP2 POP PUSH1 0xFF AND ISZERO PUSH2 0x15F7 JUMPI PUSH1 0x40 MLOAD PUSH1 0xE5 PUSH1 0x2 EXP PUSH3 0x461BCD MUL DUP2 MSTORE PUSH1 0x4 ADD PUSH2 0x6AF SWAP1 PUSH2 0x47CC JUMP JUMPDEST PUSH1 0x1 PUSH1 0xA0 PUSH1 0x2 EXP SUB DUP7 AND CALLER EQ PUSH2 0x168C JUMPI PUSH2 0x1642 DUP2 DUP8 DUP6 DUP6 DUP1 DUP1 PUSH1 0x1F ADD PUSH1 0x20 DUP1 SWAP2 DIV MUL PUSH1 0x20 ADD PUSH1 0x40 MLOAD SWAP1 DUP2 ADD PUSH1 0x40 MSTORE DUP1 SWAP4 SWAP3 SWAP2 SWAP1 DUP2 DUP2 MSTORE PUSH1 0x20 ADD DUP4 DUP4 DUP1 DUP3 DUP5 CALLDATACOPY POP PUSH2 0xFEA SWAP5 POP POP POP POP POP JUMP JUMPDEST ISZERO ISZERO PUSH2 0x1663 JUMPI PUSH1 0x40 MLOAD PUSH1 0xE5 PUSH1 0x2 EXP PUSH3 0x461BCD MUL DUP2 MSTORE PUSH1 0x4 ADD PUSH2 0x6AF SWAP1 PUSH2 0x490C JUMP JUMPDEST PUSH1 0x9 DUP1 SLOAD PUSH20 0xFFFFFFFFFFFFFFFFFFFFFFFFFFFFFFFFFFFFFFFF NOT AND PUSH1 0x1 PUSH1 0xA0 PUSH1 0x2 EXP SUB DUP9 AND OR SWAP1 SSTORE JUMPDEST PUSH1 0x0 DUP2 DUP2 MSTORE PUSH1 0x8 PUSH1 0x20 MSTORE PUSH1 0x40 SWAP1 DUP2 SWAP1 KECCAK256 DUP1 SLOAD PUSH1 0xFF NOT AND PUSH1 0x1 OR SWAP1 SSTORE MLOAD ADDRESS SWAP1 DUP7 SWAP1 DUP7 SWAP1 DUP1 DUP4 DUP4 DUP1 DUP3 DUP5 CALLDATACOPY DUP3 ADD SWAP2 POP POP SWAP3 POP POP POP PUSH1 0x0 PUSH1 0x40 MLOAD DUP1 DUP4 SUB DUP2 DUP6 GAS DELEGATECALL SWAP2 POP POP ISZERO ISZERO PUSH2 0x16EE JUMPI PUSH1 0x40 MLOAD PUSH1 0xE5 PUSH1 0x2 EXP PUSH3 0x461BCD MUL DUP2 MSTORE PUSH1 0x4 ADD PUSH2 0x6AF SWAP1 PUSH2 0x47FC JUMP JUMPDEST PUSH1 0x1 PUSH1 0xA0 PUSH1 0x2 EXP SUB DUP7 AND CALLER EQ PUSH2 0x171C JUMPI PUSH1 0x9 DUP1 SLOAD PUSH20 0xFFFFFFFFFFFFFFFFFFFFFFFFFFFFFFFFFFFFFFFF NOT AND SWAP1 SSTORE JUMPDEST POP POP POP POP POP POP POP JUMP JUMPDEST PUSH1 0x2 SLOAD PUSH1 0x0 SWAP1 DUP2 SWAP1 DUP2 SWAP1 PUSH1 0x1 PUSH1 0xA0 PUSH1 0x2 EXP SUB AND CALLER EQ PUSH2 0x1759 JUMPI PUSH1 0x40 MLOAD PUSH1 0xE5 PUSH1 0x2 EXP PUSH3 0x461BCD MUL DUP2 MSTORE PUSH1 0x4 ADD PUSH2 0x6AF SWAP1 PUSH2 0x48BC JUMP JUMPDEST DUP4 SWAP3 POP DUP3 PUSH1 0x1 PUSH1 0xA0 PUSH1 0x2 EXP SUB AND PUSH4 0xAE25532E PUSH1 0x40 MLOAD DUP2 PUSH4 0xFFFFFFFF AND PUSH29 0x100000000000000000000000000000000000000000000000000000000 MUL DUP2 MSTORE PUSH1 0x4 ADD PUSH1 0x20 PUSH1 0x40 MLOAD DUP1 DUP4 SUB DUP2 PUSH1 0x0 DUP8 DUP1 EXTCODESIZE ISZERO DUP1 ISZERO PUSH2 0x17B3 JUMPI PUSH1 0x0 DUP1 REVERT JUMPDEST POP GAS CALL ISZERO DUP1 ISZERO PUSH2 0x17C7 JUMPI RETURNDATASIZE PUSH1 0x0 DUP1 RETURNDATACOPY RETURNDATASIZE PUSH1 0x0 REVERT JUMPDEST POP POP POP POP PUSH1 0x40 MLOAD RETURNDATASIZE PUSH1 0x1F NOT PUSH1 0x1F DUP3 ADD AND DUP3 ADD DUP1 PUSH1 0x40 MSTORE POP PUSH2 0x17EB SWAP2 SWAP1 DUP2 ADD SWAP1 PUSH2 0x3B4B JUMP JUMPDEST PUSH1 0x1 PUSH1 0xE0 PUSH1 0x2 EXP SUB NOT DUP2 AND PUSH1 0x0 SWAP1 DUP2 MSTORE PUSH1 0xA PUSH1 0x20 MSTORE PUSH1 0x40 SWAP1 KECCAK256 SLOAD SWAP1 SWAP3 POP PUSH1 0x1 PUSH1 0xA0 PUSH1 0x2 EXP SUB AND SWAP1 POP DUP1 ISZERO PUSH2 0x1834 JUMPI PUSH1 0x40 MLOAD PUSH1 0xE5 PUSH1 0x2 EXP PUSH3 0x461BCD MUL DUP2 MSTORE PUSH1 0x4 ADD PUSH2 0x6AF SWAP1 PUSH2 0x475C JUMP JUMPDEST PUSH1 0x1 PUSH1 0xE0 PUSH1 0x2 EXP SUB NOT DUP3 AND PUSH1 0x0 SWAP1 DUP2 MSTORE PUSH1 0xA PUSH1 0x20 MSTORE PUSH1 0x40 SWAP1 DUP2 SWAP1 KECCAK256 DUP1 SLOAD PUSH20 0xFFFFFFFFFFFFFFFFFFFFFFFFFFFFFFFFFFFFFFFF NOT AND PUSH1 0x1 PUSH1 0xA0 PUSH1 0x2 EXP SUB DUP7 AND OR SWAP1 SSTORE MLOAD PUSH32 0xD2C6B762299C609BDB96520B58A49BFB80186934D4F71A86A367571A15C03194 SWAP1 PUSH2 0x18A5 SWAP1 DUP5 SWAP1 DUP8 SWAP1 PUSH2 0x46E2 JUMP JUMPDEST PUSH1 0x40 MLOAD DUP1 SWAP2 SUB SWAP1 LOG1 POP POP POP POP JUMP JUMPDEST PUSH2 0x18BB PUSH2 0x351D JUMP JUMPDEST PUSH2 0x18C4 DUP3 PUSH2 0x2B32 JUMP JUMPDEST PUSH1 0x20 DUP1 DUP4 ADD DUP3 SWAP1 MSTORE PUSH1 0x0 SWAP2 DUP3 MSTORE PUSH1 0x3 SWAP1 MSTORE PUSH1 0x40 SWAP1 DUP2 SWAP1 KECCAK256 SLOAD SWAP1 DUP3 ADD MSTORE PUSH1 0x80 DUP3 ADD MLOAD ISZERO ISZERO PUSH2 0x18F8 JUMPI PUSH1 0x1 JUMPDEST PUSH1 0xFF AND DUP2 MSTORE PUSH2 0xCC7 JUMP JUMPDEST PUSH1 0xA0 DUP3 ADD MLOAD ISZERO ISZERO PUSH2 0x190A JUMPI PUSH1 0x2 PUSH2 0x18EE JUMP JUMPDEST PUSH1 0xA0 DUP3 ADD MLOAD PUSH1 0x40 DUP3 ADD MLOAD LT PUSH2 0x1920 JUMPI PUSH1 0x5 PUSH2 0x18EE JUMP JUMPDEST PUSH2 0x100 DUP3 ADD MLOAD TIMESTAMP LT PUSH2 0x1933 JUMPI PUSH1 0x4 PUSH2 0x18EE JUMP JUMPDEST PUSH1 0x20 DUP1 DUP3 ADD MLOAD PUSH1 0x0 SWAP1 DUP2 MSTORE PUSH1 0x4 SWAP1 SWAP2 MSTORE PUSH1 0x40 SWAP1 KECCAK256 SLOAD PUSH1 0xFF AND ISZERO PUSH2 0x1957 JUMPI PUSH1 0x6 PUSH2 0x18EE JUMP JUMPDEST PUSH2 0x120 DUP3 ADD MLOAD DUP3 MLOAD PUSH1 0x1 PUSH1 0xA0 PUSH1 0x2 EXP SUB SWAP1 DUP2 AND PUSH1 0x0 SWAP1 DUP2 MSTORE PUSH1 0x5 PUSH1 0x20 SWAP1 DUP2 MSTORE PUSH1 0x40 DUP1 DUP4 KECCAK256 PUSH1 0x60 DUP9 ADD MLOAD SWAP1 SWAP5 AND DUP4 MSTORE SWAP3 SWAP1 MSTORE KECCAK256 SLOAD GT ISZERO PUSH2 0x1997 JUMPI PUSH1 0x6 PUSH2 0x18EE JUMP JUMPDEST PUSH1 0x3 DUP2 MSTORE SWAP2 SWAP1 POP JUMP JUMPDEST PUSH1 0x0 SLOAD PUSH1 0xFF AND ISZERO PUSH2 0x19C6 JUMPI PUSH1 0x40 MLOAD PUSH1 0xE5 PUSH1 0x2 EXP PUSH3 0x461BCD MUL DUP2 MSTORE PUSH1 0x4 ADD PUSH2 0x6AF SWAP1 PUSH2 0x48AC JUMP JUMPDEST PUSH1 0x0 DUP1 SLOAD PUSH1 0xFF NOT AND PUSH1 0x1 OR SWAP1 SSTORE PUSH2 0x19DC DUP2 PUSH2 0x257C JUMP JUMPDEST POP PUSH1 0x0 DUP1 SLOAD PUSH1 0xFF NOT AND SWAP1 SSTORE JUMP JUMPDEST PUSH1 0x5 PUSH1 0x20 SWAP1 DUP2 MSTORE PUSH1 0x0 SWAP3 DUP4 MSTORE PUSH1 0x40 DUP1 DUP5 KECCAK256 SWAP1 SWAP2 MSTORE SWAP1 DUP3 MSTORE SWAP1 KECCAK256 SLOAD DUP2 JUMP JUMPDEST PUSH1 0x60 PUSH1 0x40 MLOAD SWAP1 DUP2 ADD PUSH1 0x40 MSTORE DUP1 PUSH1 0x24 DUP2 MSTORE PUSH1 0x20 ADD PUSH32 0xF47261B0000000000000000000000000E41D2489571D322189246DAFA5EBDE1F DUP2 MSTORE PUSH1 0x20 ADD PUSH32 0x4699F49800000000000000000000000000000000000000000000000000000000 DUP2 MSTORE POP DUP2 JUMP JUMPDEST PUSH2 0x1A6E PUSH2 0x34C5 JUMP JUMPDEST PUSH1 0x60 PUSH1 0x0 DUP1 PUSH1 0x0 PUSH2 0x1A7D PUSH2 0x34C5 JUMP JUMPDEST DUP9 PUSH1 0x0 DUP2 MLOAD DUP2 LT ISZERO ISZERO PUSH2 0x1A8C JUMPI INVALID JUMPDEST SWAP1 PUSH1 0x20 ADD SWAP1 PUSH1 0x20 MUL ADD MLOAD PUSH2 0x160 ADD MLOAD SWAP5 POP DUP9 MLOAD SWAP4 POP PUSH1 0x0 SWAP3 POP JUMPDEST DUP3 DUP5 EQ PUSH2 0x1B2F JUMPI DUP5 DUP10 DUP5 DUP2 MLOAD DUP2 LT ISZERO ISZERO PUSH2 0x1ABC JUMPI INVALID JUMPDEST SWAP1 PUSH1 0x20 ADD SWAP1 PUSH1 0x20 MUL ADD MLOAD PUSH2 0x160 ADD DUP2 SWAP1 MSTORE POP PUSH2 0x1ADC DUP9 DUP8 PUSH1 0x20 ADD MLOAD PUSH2 0x25E3 JUMP JUMPDEST SWAP2 POP PUSH2 0x1B08 DUP10 DUP5 DUP2 MLOAD DUP2 LT ISZERO ISZERO PUSH2 0x1AEF JUMPI INVALID JUMPDEST SWAP1 PUSH1 0x20 ADD SWAP1 PUSH1 0x20 MUL ADD MLOAD DUP4 DUP10 DUP7 DUP2 MLOAD DUP2 LT ISZERO ISZERO PUSH2 0xC73 JUMPI INVALID JUMPDEST SWAP1 POP PUSH2 0x1B14 DUP7 DUP3 PUSH2 0x1DAC JUMP JUMPDEST PUSH1 0x20 DUP7 ADD MLOAD DUP9 GT PUSH2 0x1B24 JUMPI PUSH2 0x1B2F JUMP JUMPDEST PUSH1 0x1 SWAP1 SWAP3 ADD SWAP2 PUSH2 0x1AA6 JUMP JUMPDEST POP POP POP POP POP SWAP4 SWAP3 POP POP POP JUMP JUMPDEST PUSH1 0x1 SLOAD DUP2 JUMP JUMPDEST PUSH2 0x1B49 PUSH2 0x34C5 JUMP JUMPDEST PUSH1 0x60 PUSH1 0x0 DUP1 PUSH1 0x0 DUP1 PUSH2 0x1B59 PUSH2 0x34C5 JUMP JUMPDEST PUSH1 0x0 SLOAD PUSH1 0xFF AND ISZERO PUSH2 0x1B7F JUMPI PUSH1 0x40 MLOAD PUSH1 0xE5 PUSH1 0x2 EXP PUSH3 0x461BCD MUL DUP2 MSTORE PUSH1 0x4 ADD PUSH2 0x6AF SWAP1 PUSH2 0x48AC JUMP JUMPDEST PUSH1 0x0 DUP1 SLOAD PUSH1 0xFF NOT AND PUSH1 0x1 OR DUP2 SSTORE DUP11 MLOAD DUP12 SWAP2 SWAP1 DUP2 LT PUSH2 0x1B99 JUMPI INVALID JUMPDEST SWAP1 PUSH1 0x20 ADD SWAP1 PUSH1 0x20 MUL ADD MLOAD PUSH2 0x140 ADD MLOAD SWAP6 POP DUP10 MLOAD SWAP5 POP PUSH1 0x0 SWAP4 POP JUMPDEST DUP4 DUP6 EQ PUSH2 0x1C48 JUMPI DUP6 DUP11 DUP6 DUP2 MLOAD DUP2 LT ISZERO ISZERO PUSH2 0x1BC9 JUMPI INVALID JUMPDEST PUSH1 0x20 SWAP1 DUP2 MUL SWAP1 SWAP2 ADD ADD MLOAD PUSH2 0x140 ADD MSTORE DUP7 MLOAD PUSH2 0x1BE5 SWAP1 DUP11 SWAP1 PUSH2 0x25E3 JUMP JUMPDEST SWAP3 POP PUSH2 0x1BF8 DUP11 DUP6 DUP2 MLOAD DUP2 LT ISZERO ISZERO PUSH2 0x147D JUMPI INVALID JUMPDEST SWAP2 POP PUSH2 0x1C24 DUP11 DUP6 DUP2 MLOAD DUP2 LT ISZERO ISZERO PUSH2 0x1C0B JUMPI INVALID JUMPDEST SWAP1 PUSH1 0x20 ADD SWAP1 PUSH1 0x20 MUL ADD MLOAD DUP4 DUP11 DUP8 DUP2 MLOAD DUP2 LT ISZERO ISZERO PUSH2 0x714 JUMPI INVALID JUMPDEST SWAP1 POP PUSH2 0x1C30 DUP8 DUP3 PUSH2 0x1DAC JUMP JUMPDEST DUP7 MLOAD DUP10 GT PUSH2 0x1C3D JUMPI PUSH2 0x1C48 JUMP JUMPDEST PUSH1 0x1 SWAP1 SWAP4 ADD SWAP3 PUSH2 0x1BB3 JUMP JUMPDEST POP POP PUSH1 0x0 DUP1 SLOAD PUSH1 0xFF NOT AND SWAP1 SSTORE POP SWAP3 SWAP7 SWAP6 POP POP POP POP POP POP JUMP JUMPDEST PUSH1 0x9 SLOAD PUSH1 0x1 PUSH1 0xA0 PUSH1 0x2 EXP SUB AND DUP2 JUMP JUMPDEST PUSH1 0x2 SLOAD PUSH1 0x1 PUSH1 0xA0 PUSH1 0x2 EXP SUB AND CALLER EQ PUSH2 0x1C9C JUMPI PUSH1 0x40 MLOAD PUSH1 0xE5 PUSH1 0x2 EXP PUSH3 0x461BCD MUL DUP2 MSTORE PUSH1 0x4 ADD PUSH2 0x6AF SWAP1 PUSH2 0x48BC JUMP JUMPDEST PUSH1 0x1 PUSH1 0xA0 PUSH1 0x2 EXP SUB DUP2 AND ISZERO PUSH2 0x1CD4 JUMPI PUSH1 0x2 DUP1 SLOAD PUSH20 0xFFFFFFFFFFFFFFFFFFFFFFFFFFFFFFFFFFFFFFFF NOT AND PUSH1 0x1 PUSH1 0xA0 PUSH1 0x2 EXP SUB DUP4 AND OR SWAP1 SSTORE JUMPDEST POP JUMP JUMPDEST PUSH1 0x40 DUP1 MLOAD DUP1 DUP3 ADD SWAP1 SWAP2 MSTORE PUSH1 0x5 DUP2 MSTORE PUSH32 0x322E302E30000000000000000000000000000000000000000000000000000000 PUSH1 0x20 DUP3 ADD MSTORE DUP2 JUMP JUMPDEST PUSH2 0x1D16 PUSH2 0x34C5 JUMP JUMPDEST PUSH2 0x1D1E PUSH2 0x351D JUMP JUMPDEST PUSH1 0x0 DUP1 PUSH1 0x0 PUSH2 0x1D2C DUP9 PUSH2 0x18B3 JUMP JUMPDEST SWAP4 POP PUSH2 0x1D36 PUSH2 0x1E0E JUMP JUMPDEST SWAP3 POP PUSH2 0x1D44 DUP9 DUP6 DUP6 DUP10 PUSH2 0x1E33 JUMP JUMPDEST PUSH2 0x1D56 DUP9 PUSH1 0xA0 ADD MLOAD DUP6 PUSH1 0x40 ADD MLOAD PUSH2 0x25E3 JUMP JUMPDEST SWAP2 POP PUSH2 0x1D62 DUP8 DUP4 PUSH2 0x2B40 JUMP JUMPDEST SWAP1 POP PUSH2 0x1D75 DUP9 DUP6 DUP10 DUP5 DUP10 PUSH1 0x0 ADD MLOAD PUSH2 0x20FE JUMP JUMPDEST PUSH2 0x1D7F DUP9 DUP3 PUSH2 0x2B56 JUMP JUMPDEST SWAP5 POP PUSH2 0x1D96 DUP9 DUP5 DUP7 PUSH1 0x20 ADD MLOAD DUP8 PUSH1 0x40 ADD MLOAD DUP10 PUSH2 0x21BB JUMP JUMPDEST PUSH2 0x1DA1 DUP9 DUP5 DUP8 PUSH2 0x2BB7 JUMP JUMPDEST POP POP POP POP SWAP4 SWAP3 POP POP POP JUMP JUMPDEST DUP2 MLOAD DUP2 MLOAD PUSH2 0x1DBA SWAP2 SWAP1 PUSH2 0x2C6F JUMP JUMPDEST DUP3 MSTORE PUSH1 0x20 DUP1 DUP4 ADD MLOAD SWAP1 DUP3 ADD MLOAD PUSH2 0x1DD0 SWAP2 SWAP1 PUSH2 0x2C6F JUMP JUMPDEST PUSH1 0x20 DUP4 ADD MSTORE PUSH1 0x40 DUP1 DUP4 ADD MLOAD SWAP1 DUP3 ADD MLOAD PUSH2 0x1DE9 SWAP2 SWAP1 PUSH2 0x2C6F JUMP JUMPDEST PUSH1 0x40 DUP4 ADD MSTORE PUSH1 0x60 DUP1 DUP4 ADD MLOAD SWAP1 DUP3 ADD MLOAD PUSH2 0x1E02 SWAP2 SWAP1 PUSH2 0x2C6F JUMP JUMPDEST PUSH1 0x60 SWAP1 SWAP3 ADD SWAP2 SWAP1 SWAP2 MSTORE POP JUMP JUMPDEST PUSH1 0x9 SLOAD PUSH1 0x0 SWAP1 PUSH1 0x1 PUSH1 0xA0 PUSH1 0x2 EXP SUB AND DUP2 DUP2 ISZERO PUSH2 0x1E2A JUMPI DUP2 PUSH2 0x1E2C JUMP JUMPDEST CALLER JUMPDEST SWAP4 SWAP3 POP POP POP JUMP JUMPDEST DUP3 MLOAD PUSH1 0xFF AND PUSH1 0x3 EQ PUSH2 0x1E5A JUMPI PUSH1 0x40 MLOAD PUSH1 0xE5 PUSH1 0x2 EXP PUSH3 0x461BCD MUL DUP2 MSTORE PUSH1 0x4 ADD PUSH2 0x6AF SWAP1 PUSH2 0x48DC JUMP JUMPDEST PUSH1 0x60 DUP5 ADD MLOAD PUSH1 0x1 PUSH1 0xA0 PUSH1 0x2 EXP SUB AND ISZERO PUSH2 0x1E9C JUMPI PUSH1 0x60 DUP5 ADD MLOAD PUSH1 0x1 PUSH1 0xA0 PUSH1 0x2 EXP SUB AND CALLER EQ PUSH2 0x1E9C JUMPI PUSH1 0x40 MLOAD PUSH1 0xE5 PUSH1 0x2 EXP PUSH3 0x461BCD MUL DUP2 MSTORE PUSH1 0x4 ADD PUSH2 0x6AF SWAP1 PUSH2 0x48EC JUMP JUMPDEST PUSH1 0x20 DUP5 ADD MLOAD PUSH1 0x1 PUSH1 0xA0 PUSH1 0x2 EXP SUB AND ISZERO PUSH2 0x1EE9 JUMPI DUP2 PUSH1 0x1 PUSH1 0xA0 PUSH1 0x2 EXP SUB AND DUP5 PUSH1 0x20 ADD MLOAD PUSH1 0x1 PUSH1 0xA0 PUSH1 0x2 EXP SUB AND EQ ISZERO ISZERO PUSH2 0x1EE9 JUMPI PUSH1 0x40 MLOAD PUSH1 0xE5 PUSH1 0x2 EXP PUSH3 0x461BCD MUL DUP2 MSTORE PUSH1 0x4 ADD PUSH2 0x6AF SWAP1 PUSH2 0x472C JUMP JUMPDEST PUSH1 0x40 DUP4 ADD MLOAD ISZERO ISZERO PUSH2 0x1F28 JUMPI PUSH2 0x1F07 DUP4 PUSH1 0x20 ADD MLOAD DUP6 PUSH1 0x0 ADD MLOAD DUP4 PUSH2 0xFEA JUMP JUMPDEST ISZERO ISZERO PUSH2 0x1F28 JUMPI PUSH1 0x40 MLOAD PUSH1 0xE5 PUSH1 0x2 EXP PUSH3 0x461BCD MUL DUP2 MSTORE PUSH1 0x4 ADD PUSH2 0x6AF SWAP1 PUSH2 0x479C JUMP JUMPDEST POP POP POP POP JUMP JUMPDEST PUSH2 0x1F40 DUP3 PUSH1 0xA0 ADD MLOAD DUP3 PUSH1 0xA0 ADD MLOAD PUSH2 0x2CA2 JUMP JUMPDEST PUSH2 0x1F52 DUP4 PUSH1 0x80 ADD MLOAD DUP4 PUSH1 0x80 ADD MLOAD PUSH2 0x2CA2 JUMP JUMPDEST LT ISZERO PUSH2 0x1F73 JUMPI PUSH1 0x40 MLOAD PUSH1 0xE5 PUSH1 0x2 EXP PUSH3 0x461BCD MUL DUP2 MSTORE PUSH1 0x4 ADD PUSH2 0x6AF SWAP1 PUSH2 0x48FC JUMP JUMPDEST POP POP JUMP JUMPDEST PUSH2 0x1F7F PUSH2 0x34EE JUMP JUMPDEST PUSH1 0x0 DUP1 PUSH1 0x0 DUP1 PUSH2 0x1F93 DUP10 PUSH1 0xA0 ADD MLOAD DUP9 PUSH2 0x25E3 JUMP JUMPDEST SWAP4 POP PUSH2 0x1FA8 DUP10 PUSH1 0x80 ADD MLOAD DUP11 PUSH1 0xA0 ADD MLOAD DUP7 PUSH2 0x2CE6 JUMP JUMPDEST SWAP3 POP PUSH2 0x1FB8 DUP9 PUSH1 0xA0 ADD MLOAD DUP8 PUSH2 0x25E3 JUMP JUMPDEST SWAP2 POP PUSH2 0x1FCD DUP9 PUSH1 0x80 ADD MLOAD DUP10 PUSH1 0xA0 ADD MLOAD DUP5 PUSH2 0x2CE6 JUMP JUMPDEST SWAP1 POP DUP1 DUP5 LT PUSH2 0x2010 JUMPI PUSH1 0x20 DUP1 DUP7 ADD DUP1 MLOAD DUP4 SWAP1 MSTORE DUP1 MLOAD DUP3 ADD DUP5 SWAP1 MSTORE MLOAD MLOAD DUP7 MLOAD DUP3 ADD MSTORE PUSH1 0x80 DUP11 ADD MLOAD PUSH1 0xA0 DUP12 ADD MLOAD DUP8 MLOAD SWAP1 SWAP3 ADD MLOAD PUSH2 0x2008 SWAP3 SWAP1 PUSH2 0x2CE6 JUMP JUMPDEST DUP6 MLOAD MSTORE PUSH2 0x204D JUMP JUMPDEST DUP5 MLOAD DUP4 SWAP1 MSTORE DUP5 MLOAD PUSH1 0x20 SWAP1 DUP2 ADD DUP6 SWAP1 MSTORE DUP6 MLOAD DUP2 ADD MLOAD SWAP1 DUP7 ADD DUP1 MLOAD SWAP2 SWAP1 SWAP2 MSTORE PUSH1 0xA0 DUP10 ADD MLOAD PUSH1 0x80 DUP11 ADD MLOAD SWAP2 MLOAD MLOAD PUSH2 0x2044 SWAP3 SWAP1 PUSH2 0x2D35 JUMP JUMPDEST PUSH1 0x20 DUP1 DUP8 ADD MLOAD ADD MSTORE JUMPDEST DUP5 MLOAD MLOAD PUSH1 0x20 DUP1 DUP8 ADD MLOAD ADD MLOAD PUSH2 0x2062 SWAP2 SWAP1 PUSH2 0x25E3 JUMP JUMPDEST PUSH1 0x40 DUP7 ADD MSTORE DUP5 MLOAD MLOAD PUSH1 0x80 DUP11 ADD MLOAD PUSH1 0xC0 DUP12 ADD MLOAD PUSH2 0x207F SWAP3 SWAP2 SWAP1 PUSH2 0x2CE6 JUMP JUMPDEST DUP6 MLOAD PUSH1 0x40 ADD MSTORE DUP5 MLOAD PUSH1 0x20 ADD MLOAD PUSH1 0xA0 DUP11 ADD MLOAD PUSH1 0xE0 DUP12 ADD MLOAD PUSH2 0x20A0 SWAP3 SWAP2 SWAP1 PUSH2 0x2CE6 JUMP JUMPDEST DUP6 MLOAD PUSH1 0x60 ADD MSTORE PUSH1 0x20 DUP6 ADD MLOAD MLOAD PUSH1 0x80 DUP10 ADD MLOAD PUSH1 0xC0 DUP11 ADD MLOAD PUSH2 0x20C1 SWAP3 SWAP2 SWAP1 PUSH2 0x2CE6 JUMP JUMPDEST DUP6 PUSH1 0x20 ADD MLOAD PUSH1 0x40 ADD DUP2 DUP2 MSTORE POP POP PUSH2 0x20E9 DUP6 PUSH1 0x20 ADD MLOAD PUSH1 0x20 ADD MLOAD DUP10 PUSH1 0xA0 ADD MLOAD DUP11 PUSH1 0xE0 ADD MLOAD PUSH2 0x2CE6 JUMP JUMPDEST PUSH1 0x20 DUP7 ADD MLOAD PUSH1 0x60 ADD MSTORE POP POP POP POP SWAP5 SWAP4 POP POP POP POP JUMP JUMPDEST DUP3 ISZERO ISZERO PUSH2 0x2120 JUMPI PUSH1 0x40 MLOAD PUSH1 0xE5 PUSH1 0x2 EXP PUSH3 0x461BCD MUL DUP2 MSTORE PUSH1 0x4 ADD PUSH2 0x6AF SWAP1 PUSH2 0x481C JUMP JUMPDEST DUP3 DUP3 GT ISZERO PUSH2 0x2143 JUMPI PUSH1 0x40 MLOAD PUSH1 0xE5 PUSH1 0x2 EXP PUSH3 0x461BCD MUL DUP2 MSTORE PUSH1 0x4 ADD PUSH2 0x6AF SWAP1 PUSH2 0x480C JUMP JUMPDEST DUP5 PUSH1 0xA0 ADD MLOAD PUSH2 0x2156 DUP6 PUSH1 0x40 ADD MLOAD DUP5 PUSH2 0x2C6F JUMP JUMPDEST GT ISZERO PUSH2 0x2177 JUMPI PUSH1 0x40 MLOAD PUSH1 0xE5 PUSH1 0x2 EXP PUSH3 0x461BCD MUL DUP2 MSTORE PUSH1 0x4 ADD PUSH2 0x6AF SWAP1 PUSH2 0x473C JUMP JUMPDEST PUSH2 0x2185 DUP6 PUSH1 0x80 ADD MLOAD DUP4 PUSH2 0x2CA2 JUMP JUMPDEST PUSH2 0x2193 DUP3 DUP8 PUSH1 0xA0 ADD MLOAD PUSH2 0x2CA2 JUMP JUMPDEST GT ISZERO PUSH2 0x21B4 JUMPI PUSH1 0x40 MLOAD PUSH1 0xE5 PUSH1 0x2 EXP PUSH3 0x461BCD MUL DUP2 MSTORE PUSH1 0x4 ADD PUSH2 0x6AF SWAP1 PUSH2 0x489C JUMP JUMPDEST POP POP POP POP POP JUMP JUMPDEST PUSH2 0x21C9 DUP3 DUP3 PUSH1 0x20 ADD MLOAD PUSH2 0x2C6F JUMP JUMPDEST PUSH1 0x0 DUP5 DUP2 MSTORE PUSH1 0x3 PUSH1 0x20 SWAP1 DUP2 MSTORE PUSH1 0x40 SWAP2 DUP3 SWAP1 KECCAK256 SWAP3 SWAP1 SWAP3 SSTORE DUP7 DUP2 ADD MLOAD DUP8 MLOAD DUP5 MLOAD SWAP4 DUP6 ADD MLOAD DUP6 DUP5 ADD MLOAD PUSH1 0x60 DUP8 ADD MLOAD PUSH2 0x140 DUP13 ADD MLOAD PUSH2 0x160 DUP14 ADD MLOAD SWAP7 MLOAD DUP12 SWAP9 PUSH1 0x1 PUSH1 0xA0 PUSH1 0x2 EXP SUB SWAP8 DUP9 AND SWAP9 SWAP8 SWAP1 SWAP7 AND SWAP7 PUSH32 0xBCC4C97732E47D9946F229EDB95F5B6323F601300E4690DE719993F3C371129 SWAP7 PUSH2 0x224B SWAP7 DUP16 SWAP7 CALLER SWAP7 SWAP3 SWAP6 SWAP2 SWAP5 SWAP1 SWAP4 SWAP1 PUSH2 0x4572 JUMP JUMPDEST PUSH1 0x40 MLOAD DUP1 SWAP2 SUB SWAP1 LOG4 POP POP POP POP POP JUMP JUMPDEST PUSH1 0x60 DUP1 PUSH1 0x40 MLOAD SWAP1 DUP2 ADD PUSH1 0x40 MSTORE DUP1 PUSH1 0x24 DUP2 MSTORE PUSH1 0x20 ADD PUSH32 0xF47261B0000000000000000000000000E41D2489571D322189246DAFA5EBDE1F DUP2 MSTORE PUSH1 0x20 ADD PUSH32 0x4699F49800000000000000000000000000000000000000000000000000000000 DUP2 MSTORE POP SWAP1 POP PUSH2 0x22DB DUP6 PUSH2 0x140 ADD MLOAD DUP7 PUSH1 0x0 ADD MLOAD DUP7 PUSH1 0x0 ADD MLOAD DUP6 PUSH1 0x20 ADD MLOAD PUSH1 0x20 ADD MLOAD PUSH2 0x2DA4 JUMP JUMPDEST PUSH2 0x140 DUP5 ADD MLOAD DUP5 MLOAD DUP7 MLOAD DUP5 MLOAD PUSH1 0x20 ADD MLOAD PUSH2 0x22F7 SWAP4 SWAP3 SWAP2 SWAP1 PUSH2 0x2DA4 JUMP JUMPDEST PUSH2 0x2310 DUP6 PUSH2 0x140 ADD MLOAD DUP7 PUSH1 0x0 ADD MLOAD DUP6 DUP6 PUSH1 0x40 ADD MLOAD PUSH2 0x2DA4 JUMP JUMPDEST PUSH2 0x232C DUP2 DUP7 PUSH1 0x0 ADD MLOAD DUP8 PUSH1 0x40 ADD MLOAD DUP6 PUSH1 0x0 ADD MLOAD PUSH1 0x40 ADD MLOAD PUSH2 0x2DA4 JUMP JUMPDEST PUSH2 0x2348 DUP2 DUP6 PUSH1 0x0 ADD MLOAD DUP7 PUSH1 0x40 ADD MLOAD DUP6 PUSH1 0x20 ADD MLOAD PUSH1 0x40 ADD MLOAD PUSH2 0x2DA4 JUMP JUMPDEST DUP4 PUSH1 0x40 ADD MLOAD PUSH1 0x1 PUSH1 0xA0 PUSH1 0x2 EXP SUB AND DUP6 PUSH1 0x40 ADD MLOAD PUSH1 0x1 PUSH1 0xA0 PUSH1 0x2 EXP SUB AND EQ ISZERO PUSH2 0x2398 JUMPI PUSH2 0x2393 DUP2 DUP5 DUP8 PUSH1 0x40 ADD MLOAD PUSH2 0x238E DUP7 PUSH1 0x0 ADD MLOAD PUSH1 0x60 ADD MLOAD DUP8 PUSH1 0x20 ADD MLOAD PUSH1 0x60 ADD MLOAD PUSH2 0x2C6F JUMP JUMPDEST PUSH2 0x2DA4 JUMP JUMPDEST PUSH2 0x21B4 JUMP JUMPDEST PUSH2 0x23B0 DUP2 DUP5 DUP8 PUSH1 0x40 ADD MLOAD DUP6 PUSH1 0x0 ADD MLOAD PUSH1 0x60 ADD MLOAD PUSH2 0x2DA4 JUMP JUMPDEST PUSH2 0x21B4 DUP2 DUP5 DUP7 PUSH1 0x40 ADD MLOAD DUP6 PUSH1 0x20 ADD MLOAD PUSH1 0x60 ADD MLOAD PUSH2 0x2DA4 JUMP JUMPDEST PUSH1 0x40 DUP1 MLOAD PUSH32 0xB4BE83D500000000000000000000000000000000000000000000000000000000 PUSH1 0x20 DUP1 DUP4 ADD SWAP2 SWAP1 SWAP2 MSTORE PUSH1 0x60 PUSH1 0x24 DUP4 ADD DUP2 DUP2 MSTORE DUP8 MLOAD PUSH1 0x84 DUP6 ADD SWAP1 DUP2 MSTORE DUP9 DUP5 ADD MLOAD PUSH1 0xA4 DUP7 ADD MSTORE SWAP5 DUP9 ADD MLOAD PUSH1 0xC4 DUP6 ADD MSTORE SWAP1 DUP8 ADD MLOAD PUSH1 0xE4 DUP5 ADD MSTORE PUSH1 0x80 DUP8 ADD MLOAD PUSH2 0x104 DUP5 ADD MSTORE PUSH1 0xA0 DUP8 ADD MLOAD PUSH2 0x124 DUP5 ADD MSTORE PUSH1 0xC0 DUP8 ADD MLOAD PUSH2 0x144 DUP5 ADD MSTORE PUSH1 0xE0 DUP8 ADD MLOAD PUSH2 0x164 DUP5 ADD MSTORE PUSH2 0x100 DUP8 ADD MLOAD PUSH2 0x184 DUP5 ADD MSTORE PUSH2 0x120 DUP8 ADD MLOAD PUSH2 0x1A4 DUP5 ADD MSTORE PUSH2 0x140 DUP8 ADD DUP1 MLOAD PUSH2 0x1C4 DUP6 ADD SWAP1 DUP2 MSTORE PUSH2 0x160 DUP10 ADD MLOAD PUSH2 0x1E4 DUP7 ADD MSTORE PUSH2 0x180 SWAP1 MSTORE MLOAD DUP1 MLOAD PUSH2 0x204 DUP6 ADD DUP2 SWAP1 MSTORE SWAP4 SWAP5 SWAP2 SWAP4 DUP5 SWAP4 PUSH1 0x44 DUP8 ADD SWAP3 DUP5 SWAP3 PUSH2 0x224 DUP10 ADD SWAP3 SWAP2 DUP3 ADD SWAP2 PUSH1 0x1F DUP3 ADD DIV PUSH1 0x0 JUMPDEST DUP2 DUP2 LT ISZERO PUSH2 0x24CF JUMPI DUP4 MLOAD DUP6 MSTORE PUSH1 0x20 SWAP5 DUP6 ADD SWAP5 SWAP1 SWAP4 ADD SWAP3 PUSH1 0x1 ADD PUSH2 0x24B1 JUMP JUMPDEST POP POP POP POP DUP2 DUP2 SUB PUSH2 0x160 DUP1 DUP5 ADD SWAP2 SWAP1 SWAP2 MSTORE DUP11 ADD MLOAD DUP1 MLOAD DUP1 DUP4 MSTORE PUSH1 0x20 SWAP3 DUP4 ADD SWAP3 SWAP2 DUP3 ADD SWAP2 PUSH1 0x1F DUP3 ADD DIV PUSH1 0x0 JUMPDEST DUP2 DUP2 LT ISZERO PUSH2 0x2518 JUMPI DUP4 MLOAD DUP6 MSTORE PUSH1 0x20 SWAP5 DUP6 ADD SWAP5 SWAP1 SWAP4 ADD SWAP3 PUSH1 0x1 ADD PUSH2 0x24FA JUMP JUMPDEST POP POP POP DUP10 DUP5 MSTORE POP DUP5 DUP2 SUB PUSH1 0x20 SWAP4 DUP5 ADD SWAP1 DUP2 MSTORE DUP9 MLOAD DUP1 DUP4 MSTORE SWAP1 SWAP4 SWAP2 DUP3 ADD SWAP2 DUP10 DUP2 ADD SWAP2 SWAP1 PUSH1 0x1F DUP3 ADD DIV PUSH1 0x0 JUMPDEST DUP2 DUP2 LT ISZERO PUSH2 0x2560 JUMPI DUP4 MLOAD DUP6 MSTORE PUSH1 0x20 SWAP5 DUP6 ADD SWAP5 SWAP1 SWAP4 ADD SWAP3 PUSH1 0x1 ADD PUSH2 0x2542 JUMP JUMPDEST POP POP POP PUSH1 0x1F NOT DUP9 DUP4 SUB ADD DUP9 MSTORE POP PUSH1 0x40 MSTORE POP POP POP POP POP SWAP4 SWAP3 POP POP POP JUMP JUMPDEST PUSH2 0x2584 PUSH2 0x351D JUMP JUMPDEST PUSH2 0x258D DUP3 PUSH2 0x18B3 JUMP JUMPDEST SWAP1 POP PUSH2 0x2599 DUP3 DUP3 PUSH2 0x2EE7 JUMP JUMPDEST PUSH2 0x1F73 DUP3 DUP3 PUSH1 0x20 ADD MLOAD PUSH2 0x2F92 JUMP JUMPDEST PUSH2 0x25AF PUSH2 0x34C5 JUMP JUMPDEST PUSH2 0x25BA DUP5 DUP5 DUP5 PUSH2 0x1D0E JUMP JUMPDEST PUSH1 0x20 DUP2 ADD MLOAD SWAP1 SWAP2 POP DUP4 EQ PUSH2 0x1E2C JUMPI PUSH1 0x40 MLOAD PUSH1 0xE5 PUSH1 0x2 EXP PUSH3 0x461BCD MUL DUP2 MSTORE PUSH1 0x4 ADD PUSH2 0x6AF SWAP1 PUSH2 0x488C JUMP JUMPDEST PUSH1 0x0 DUP3 DUP3 GT ISZERO PUSH2 0x2608 JUMPI PUSH1 0x40 MLOAD PUSH1 0xE5 PUSH1 0x2 EXP PUSH3 0x461BCD MUL DUP2 MSTORE PUSH1 0x4 ADD PUSH2 0x6AF SWAP1 PUSH2 0x474C JUMP JUMPDEST POP DUP1 DUP3 SUB JUMPDEST SWAP3 SWAP2 POP POP JUMP JUMPDEST PUSH1 0x0 DUP1 DUP3 MLOAD GT ISZERO ISZERO PUSH2 0x263A JUMPI PUSH1 0x40 MLOAD PUSH1 0xE5 PUSH1 0x2 EXP PUSH3 0x461BCD MUL DUP2 MSTORE PUSH1 0x4 ADD PUSH2 0x6AF SWAP1 PUSH2 0x483C JUMP JUMPDEST DUP2 MLOAD DUP3 SWAP1 PUSH1 0x0 NOT DUP2 ADD SWAP1 DUP2 LT PUSH2 0x264C JUMPI INVALID JUMPDEST ADD PUSH1 0x20 ADD MLOAD DUP3 MLOAD PUSH1 0x0 NOT ADD SWAP1 SWAP3 MSTORE POP PUSH1 0xF8 PUSH1 0x2 EXP SWAP1 DUP2 SWAP1 DIV MUL SWAP1 JUMP JUMPDEST PUSH1 0x0 DUP2 PUSH1 0x20 ADD DUP4 MLOAD LT ISZERO ISZERO ISZERO PUSH2 0x2693 JUMPI PUSH1 0x40 MLOAD PUSH1 0xE5 PUSH1 0x2 EXP PUSH3 0x461BCD MUL DUP2 MSTORE PUSH1 0x4 ADD PUSH2 0x6AF SWAP1 PUSH2 0x476C JUMP JUMPDEST POP ADD PUSH1 0x20 ADD MLOAD SWAP1 JUMP JUMPDEST PUSH1 0x40 MLOAD PUSH1 0x0 SWAP1 PUSH1 0x60 SWAP1 PUSH32 0x1626BA7E00000000000000000000000000000000000000000000000000000000 SWAP1 PUSH2 0x26D7 SWAP1 DUP8 SWAP1 DUP7 SWAP1 PUSH1 0x24 ADD PUSH2 0x468D JUMP JUMPDEST PUSH1 0x40 DUP1 MLOAD PUSH1 0x1F NOT DUP2 DUP5 SUB ADD DUP2 MSTORE SWAP2 SWAP1 MSTORE PUSH1 0x20 DUP1 DUP3 ADD DUP1 MLOAD PUSH28 0xFFFFFFFFFFFFFFFFFFFFFFFFFFFFFFFFFFFFFFFFFFFFFFFFFFFFFFFF AND PUSH1 0x1 PUSH1 0xE0 PUSH1 0x2 EXP SUB NOT SWAP1 SWAP5 AND SWAP4 SWAP1 SWAP4 OR DUP4 MSTORE DUP2 MLOAD SWAP2 SWAP4 POP SWAP1 DUP3 SWAP1 DUP2 DUP9 GAS STATICCALL DUP1 DUP1 ISZERO PUSH2 0x273E JUMPI PUSH1 0x1 DUP2 EQ PUSH2 0x2798 JUMPI PUSH2 0x1DA1 JUMP JUMPDEST PUSH1 0xE5 PUSH1 0x2 EXP PUSH3 0x461BCD MUL PUSH1 0x0 MSTORE PUSH29 0x2000000000000000000000000000000000000000000000000000000000 PUSH1 0x20 MSTORE PUSH29 0xC57414C4C45545F4552524F5200000000000000000000000000000000 PUSH1 0x40 MSTORE PUSH1 0x0 PUSH1 0x60 MSTORE PUSH1 0x64 PUSH1 0x0 REVERT JUMPDEST POP POP MLOAD SWAP6 SWAP5 POP POP POP POP POP JUMP JUMPDEST PUSH1 0x0 PUSH1 0x14 DUP3 MLOAD LT ISZERO ISZERO ISZERO PUSH2 0x27CD JUMPI PUSH1 0x40 MLOAD PUSH1 0xE5 PUSH1 0x2 EXP PUSH3 0x461BCD MUL DUP2 MSTORE PUSH1 0x4 ADD PUSH2 0x6AF SWAP1 PUSH2 0x48CC JUMP JUMPDEST PUSH2 0x27DB DUP3 PUSH1 0x14 DUP5 MLOAD SUB PUSH2 0x300E JUMP JUMPDEST DUP3 MLOAD PUSH1 0x13 NOT ADD SWAP1 SWAP3 MSTORE POP SWAP1 JUMP JUMPDEST PUSH1 0x40 MLOAD PUSH1 0x0 SWAP1 PUSH1 0x60 SWAP1 PUSH32 0x9363470200000000000000000000000000000000000000000000000000000000 SWAP1 PUSH2 0x2825 SWAP1 DUP8 SWAP1 DUP8 SWAP1 DUP8 SWAP1 PUSH1 0x24 ADD PUSH2 0x4660 JUMP JUMPDEST PUSH1 0x40 DUP1 MLOAD PUSH1 0x1F NOT DUP2 DUP5 SUB ADD DUP2 MSTORE SWAP2 SWAP1 MSTORE PUSH1 0x20 DUP1 DUP3 ADD DUP1 MLOAD PUSH28 0xFFFFFFFFFFFFFFFFFFFFFFFFFFFFFFFFFFFFFFFFFFFFFFFFFFFFFFFF AND PUSH1 0x1 PUSH1 0xE0 PUSH1 0x2 EXP SUB NOT SWAP1 SWAP5 AND SWAP4 SWAP1 SWAP4 OR DUP4 MSTORE DUP2 MLOAD SWAP2 SWAP4 POP SWAP1 DUP3 SWAP1 DUP2 DUP11 GAS STATICCALL DUP1 DUP1 ISZERO PUSH2 0x288C JUMPI PUSH1 0x1 DUP2 EQ PUSH2 0x28E6 JUMPI PUSH2 0x28EB JUMP JUMPDEST PUSH1 0xE5 PUSH1 0x2 EXP PUSH3 0x461BCD MUL PUSH1 0x0 MSTORE PUSH29 0x2000000000000000000000000000000000000000000000000000000000 PUSH1 0x20 MSTORE PUSH29 0xF56414C494441544F525F4552524F5200000000000000000000000000 PUSH1 0x40 MSTORE PUSH1 0x0 PUSH1 0x60 MSTORE PUSH1 0x64 PUSH1 0x0 REVERT JUMPDEST DUP3 MLOAD SWAP5 POP JUMPDEST POP POP POP POP SWAP5 SWAP4 POP POP POP POP JUMP JUMPDEST PUSH1 0x0 DUP1 DUP4 GT PUSH2 0x291B JUMPI PUSH1 0x40 MLOAD PUSH1 0xE5 PUSH1 0x2 EXP PUSH3 0x461BCD MUL DUP2 MSTORE PUSH1 0x4 ADD PUSH2 0x6AF SWAP1 PUSH2 0x478C JUMP JUMPDEST PUSH2 0x292E PUSH2 0x2928 DUP6 DUP5 PUSH2 0x2CA2 JUMP JUMPDEST DUP5 PUSH2 0x304B JUMP JUMPDEST SWAP5 SWAP4 POP POP POP POP JUMP JUMPDEST PUSH1 0x40 DUP1 MLOAD PUSH32 0x5A65726F45785472616E73616374696F6E280000000000000000000000000000 PUSH1 0x20 DUP1 DUP4 ADD SWAP2 SWAP1 SWAP2 MSTORE PUSH32 0x75696E743235362073616C742C00000000000000000000000000000000000000 PUSH1 0x32 DUP4 ADD MSTORE PUSH32 0x61646472657373207369676E6572416464726573732C00000000000000000000 PUSH1 0x3F DUP4 ADD MSTORE PUSH32 0x6279746573206461746100000000000000000000000000000000000000000000 PUSH1 0x55 DUP4 ADD MSTORE PUSH32 0x2900000000000000000000000000000000000000000000000000000000000000 PUSH1 0x5F DUP4 ADD MSTORE DUP3 MLOAD DUP1 DUP4 SUB DUP5 ADD DUP2 MSTORE PUSH1 0x60 SWAP1 SWAP3 ADD SWAP3 DUP4 SWAP1 MSTORE DUP2 MLOAD PUSH1 0x0 SWAP4 DUP5 SWAP4 DUP5 SWAP4 SWAP1 SWAP3 DUP3 SWAP2 DUP5 ADD SWAP1 DUP1 DUP4 DUP4 JUMPDEST PUSH1 0x20 DUP4 LT PUSH2 0x2A41 JUMPI DUP1 MLOAD DUP3 MSTORE PUSH1 0x1F NOT SWAP1 SWAP3 ADD SWAP2 PUSH1 0x20 SWAP2 DUP3 ADD SWAP2 ADD PUSH2 0x2A22 JUMP JUMPDEST MLOAD DUP2 MLOAD PUSH1 0x20 SWAP4 DUP5 SUB PUSH2 0x100 EXP PUSH1 0x0 NOT ADD DUP1 NOT SWAP1 SWAP3 AND SWAP2 AND OR SWAP1 MSTORE PUSH1 0x40 MLOAD SWAP2 SWAP1 SWAP4 ADD DUP2 SWAP1 SUB DUP2 KECCAK256 DUP10 MLOAD SWAP1 SWAP8 POP DUP10 SWAP6 POP SWAP1 SWAP4 POP DUP4 SWAP3 DUP6 ADD SWAP2 POP DUP1 DUP4 DUP4 JUMPDEST PUSH1 0x20 DUP4 LT PUSH2 0x2A9B JUMPI DUP1 MLOAD DUP3 MSTORE PUSH1 0x1F NOT SWAP1 SWAP3 ADD SWAP2 PUSH1 0x20 SWAP2 DUP3 ADD SWAP2 ADD PUSH2 0x2A7C JUMP JUMPDEST MLOAD DUP2 MLOAD PUSH1 0x20 SWAP4 DUP5 SUB PUSH2 0x100 EXP PUSH1 0x0 NOT ADD DUP1 NOT SWAP1 SWAP3 AND SWAP2 AND OR SWAP1 MSTORE PUSH1 0x40 DUP1 MLOAD SWAP3 SWAP1 SWAP5 ADD DUP3 SWAP1 SUB DUP3 KECCAK256 SWAP8 DUP3 MSTORE DUP2 ADD SWAP11 SWAP1 SWAP11 MSTORE POP PUSH1 0x1 PUSH1 0xA0 PUSH1 0x2 EXP SUB SWAP8 SWAP1 SWAP8 AND SWAP7 DUP9 ADD SWAP7 SWAP1 SWAP7 MSTORE POP POP PUSH1 0x60 DUP6 ADD MSTORE POP POP PUSH1 0x80 SWAP1 SWAP2 KECCAK256 SWAP2 SWAP1 POP JUMP JUMPDEST PUSH1 0x1 SLOAD PUSH1 0x40 MLOAD PUSH32 0x1901000000000000000000000000000000000000000000000000000000000000 DUP2 MSTORE PUSH1 0x2 DUP2 ADD SWAP2 SWAP1 SWAP2 MSTORE PUSH1 0x22 DUP2 ADD SWAP2 SWAP1 SWAP2 MSTORE PUSH1 0x42 SWAP1 KECCAK256 SWAP1 JUMP JUMPDEST PUSH1 0x0 PUSH2 0x260D PUSH2 0x15BD DUP4 PUSH2 0x3062 JUMP JUMPDEST PUSH1 0x0 DUP2 DUP4 LT PUSH2 0x2B4F JUMPI DUP2 PUSH2 0x1E2C JUMP JUMPDEST POP SWAP1 SWAP2 SWAP1 POP JUMP JUMPDEST PUSH2 0x2B5E PUSH2 0x34C5 JUMP JUMPDEST PUSH1 0x20 DUP2 ADD DUP3 SWAP1 MSTORE PUSH1 0xA0 DUP4 ADD MLOAD PUSH1 0x80 DUP5 ADD MLOAD PUSH2 0x2B7A SWAP2 DUP5 SWAP2 PUSH2 0x2CE6 JUMP JUMPDEST DUP1 DUP3 MSTORE PUSH1 0x80 DUP5 ADD MLOAD PUSH1 0xC0 DUP6 ADD MLOAD PUSH2 0x2B92 SWAP3 SWAP2 SWAP1 PUSH2 0x2CE6 JUMP JUMPDEST PUSH1 0x40 DUP3 ADD MSTORE PUSH1 0xA0 DUP4 ADD MLOAD PUSH1 0xE0 DUP5 ADD MLOAD PUSH2 0x2BAC SWAP2 DUP5 SWAP2 PUSH2 0x2CE6 JUMP JUMPDEST PUSH1 0x60 DUP3 ADD MSTORE SWAP3 SWAP2 POP POP JUMP JUMPDEST PUSH1 0x40 DUP1 MLOAD PUSH1 0x60 DUP2 ADD DUP3 MSTORE PUSH1 0x24 DUP2 MSTORE PUSH32 0xF47261B0000000000000000000000000E41D2489571D322189246DAFA5EBDE1F PUSH1 0x20 DUP3 ADD MSTORE PUSH32 0x4699F49800000000000000000000000000000000000000000000000000000000 SWAP2 DUP2 ADD SWAP2 SWAP1 SWAP2 MSTORE PUSH2 0x140 DUP5 ADD MLOAD DUP5 MLOAD DUP4 MLOAD PUSH2 0x2C2A SWAP3 SWAP2 SWAP1 DUP7 SWAP1 PUSH2 0x2DA4 JUMP JUMPDEST PUSH2 0x2C43 DUP5 PUSH2 0x160 ADD MLOAD DUP5 DUP7 PUSH1 0x0 ADD MLOAD DUP6 PUSH1 0x20 ADD MLOAD PUSH2 0x2DA4 JUMP JUMPDEST PUSH2 0x2C5B DUP2 DUP6 PUSH1 0x0 ADD MLOAD DUP7 PUSH1 0x40 ADD MLOAD DUP6 PUSH1 0x40 ADD MLOAD PUSH2 0x2DA4 JUMP JUMPDEST PUSH2 0x1F28 DUP2 DUP5 DUP7 PUSH1 0x40 ADD MLOAD DUP6 PUSH1 0x60 ADD MLOAD PUSH2 0x2DA4 JUMP JUMPDEST PUSH1 0x0 DUP3 DUP3 ADD DUP4 DUP2 LT ISZERO PUSH2 0x2C97 JUMPI PUSH1 0x40 MLOAD PUSH1 0xE5 PUSH1 0x2 EXP PUSH3 0x461BCD MUL DUP2 MSTORE PUSH1 0x4 ADD PUSH2 0x6AF SWAP1 PUSH2 0x47BC JUMP JUMPDEST DUP1 SWAP2 POP JUMPDEST POP SWAP3 SWAP2 POP POP JUMP JUMPDEST PUSH1 0x0 DUP1 DUP4 ISZERO ISZERO PUSH2 0x2CB5 JUMPI PUSH1 0x0 SWAP2 POP PUSH2 0x2C9B JUMP JUMPDEST POP DUP3 DUP3 MUL DUP3 DUP5 DUP3 DUP2 ISZERO ISZERO PUSH2 0x2CC5 JUMPI INVALID JUMPDEST DIV EQ PUSH2 0x2C97 JUMPI PUSH1 0x40 MLOAD PUSH1 0xE5 PUSH1 0x2 EXP PUSH3 0x461BCD MUL DUP2 MSTORE PUSH1 0x4 ADD PUSH2 0x6AF SWAP1 PUSH2 0x47BC JUMP JUMPDEST PUSH1 0x0 DUP1 DUP4 GT PUSH2 0x2D0A JUMPI PUSH1 0x40 MLOAD PUSH1 0xE5 PUSH1 0x2 EXP PUSH3 0x461BCD MUL DUP2 MSTORE PUSH1 0x4 ADD PUSH2 0x6AF SWAP1 PUSH2 0x478C JUMP JUMPDEST PUSH2 0x2D15 DUP5 DUP5 DUP5 PUSH2 0x33E9 JUMP JUMPDEST ISZERO PUSH2 0x291B JUMPI PUSH1 0x40 MLOAD PUSH1 0xE5 PUSH1 0x2 EXP PUSH3 0x461BCD MUL DUP2 MSTORE PUSH1 0x4 ADD PUSH2 0x6AF SWAP1 PUSH2 0x47EC JUMP JUMPDEST PUSH1 0x0 DUP1 DUP4 GT PUSH2 0x2D59 JUMPI PUSH1 0x40 MLOAD PUSH1 0xE5 PUSH1 0x2 EXP PUSH3 0x461BCD MUL DUP2 MSTORE PUSH1 0x4 ADD PUSH2 0x6AF SWAP1 PUSH2 0x478C JUMP JUMPDEST PUSH2 0x2D64 DUP5 DUP5 DUP5 PUSH2 0x3457 JUMP JUMPDEST ISZERO PUSH2 0x2D84 JUMPI PUSH1 0x40 MLOAD PUSH1 0xE5 PUSH1 0x2 EXP PUSH3 0x461BCD MUL DUP2 MSTORE PUSH1 0x4 ADD PUSH2 0x6AF SWAP1 PUSH2 0x47EC JUMP JUMPDEST PUSH2 0x292E PUSH2 0x2928 PUSH2 0x2D94 DUP7 DUP6 PUSH2 0x2CA2 JUMP JUMPDEST PUSH2 0x2D9F DUP7 PUSH1 0x1 PUSH2 0x25E3 JUMP JUMPDEST PUSH2 0x2C6F JUMP JUMPDEST PUSH1 0x0 DUP1 PUSH1 0x0 DUP4 GT DUP1 ISZERO PUSH2 0x2DC9 JUMPI POP DUP4 PUSH1 0x1 PUSH1 0xA0 PUSH1 0x2 EXP SUB AND DUP6 PUSH1 0x1 PUSH1 0xA0 PUSH1 0x2 EXP SUB AND EQ ISZERO JUMPDEST ISZERO PUSH2 0x2EDF JUMPI DUP6 MLOAD PUSH1 0x3 LT PUSH2 0x2DF2 JUMPI PUSH1 0x40 MLOAD PUSH1 0xE5 PUSH1 0x2 EXP PUSH3 0x461BCD MUL DUP2 MSTORE PUSH1 0x4 ADD PUSH2 0x6AF SWAP1 PUSH2 0x487C JUMP JUMPDEST POP POP PUSH1 0x20 DUP5 DUP2 ADD MLOAD PUSH1 0x1 PUSH1 0xE0 PUSH1 0x2 EXP SUB NOT AND PUSH1 0x0 DUP2 DUP2 MSTORE PUSH1 0xA SWAP1 SWAP3 MSTORE PUSH1 0x40 SWAP1 SWAP2 KECCAK256 SLOAD PUSH1 0x1 PUSH1 0xA0 PUSH1 0x2 EXP SUB AND DUP1 ISZERO ISZERO PUSH2 0x2E3F JUMPI PUSH1 0x40 MLOAD PUSH1 0xE5 PUSH1 0x2 EXP PUSH3 0x461BCD MUL DUP2 MSTORE PUSH1 0x4 ADD PUSH2 0x6AF SWAP1 PUSH2 0x482C JUMP JUMPDEST PUSH1 0x40 MLOAD PUSH7 0xFFFFFFFFFFFE0 PUSH1 0x3F DUP9 MLOAD ADD AND DUP1 PUSH1 0x84 ADD DUP3 ADD PUSH32 0xA85E59E400000000000000000000000000000000000000000000000000000000 DUP4 MSTORE PUSH1 0x80 PUSH1 0x4 DUP5 ADD MSTORE PUSH1 0x1 PUSH1 0xA0 PUSH1 0x2 EXP SUB DUP9 AND PUSH1 0x24 DUP5 ADD MSTORE PUSH1 0x1 PUSH1 0xA0 PUSH1 0x2 EXP SUB DUP8 AND PUSH1 0x44 DUP5 ADD MSTORE DUP6 PUSH1 0x64 DUP5 ADD MSTORE PUSH1 0x84 DUP4 ADD JUMPDEST DUP2 DUP2 LT ISZERO PUSH2 0x2EC1 JUMPI DUP10 MLOAD DUP2 MSTORE PUSH1 0x20 SWAP10 DUP11 ADD SWAP10 ADD PUSH2 0x2EA9 JUMP JUMPDEST PUSH2 0x200 DUP5 DUP6 DUP5 SUB DUP7 PUSH1 0x0 DUP10 GAS CALL DUP1 ISZERO ISZERO PUSH2 0x2ED9 JUMPI RETURNDATASIZE DUP6 REVERT JUMPDEST POP POP POP POP POP JUMPDEST POP POP POP POP POP POP JUMP JUMPDEST DUP1 MLOAD PUSH1 0x0 SWAP1 PUSH1 0xFF AND PUSH1 0x3 EQ PUSH2 0x2F11 JUMPI PUSH1 0x40 MLOAD PUSH1 0xE5 PUSH1 0x2 EXP PUSH3 0x461BCD MUL DUP2 MSTORE PUSH1 0x4 ADD PUSH2 0x6AF SWAP1 PUSH2 0x48DC JUMP JUMPDEST PUSH1 0x60 DUP4 ADD MLOAD PUSH1 0x1 PUSH1 0xA0 PUSH1 0x2 EXP SUB AND ISZERO PUSH2 0x2F53 JUMPI PUSH1 0x60 DUP4 ADD MLOAD PUSH1 0x1 PUSH1 0xA0 PUSH1 0x2 EXP SUB AND CALLER EQ PUSH2 0x2F53 JUMPI PUSH1 0x40 MLOAD PUSH1 0xE5 PUSH1 0x2 EXP PUSH3 0x461BCD MUL DUP2 MSTORE PUSH1 0x4 ADD PUSH2 0x6AF SWAP1 PUSH2 0x48EC JUMP JUMPDEST PUSH2 0x2F5B PUSH2 0x1E0E JUMP JUMPDEST DUP4 MLOAD SWAP1 SWAP2 POP PUSH1 0x1 PUSH1 0xA0 PUSH1 0x2 EXP SUB DUP1 DUP4 AND SWAP2 AND EQ PUSH2 0x2F8D JUMPI PUSH1 0x40 MLOAD PUSH1 0xE5 PUSH1 0x2 EXP PUSH3 0x461BCD MUL DUP2 MSTORE PUSH1 0x4 ADD PUSH2 0x6AF SWAP1 PUSH2 0x47AC JUMP JUMPDEST POP POP POP JUMP JUMPDEST PUSH1 0x0 DUP2 DUP2 MSTORE PUSH1 0x4 PUSH1 0x20 MSTORE PUSH1 0x40 SWAP1 DUP2 SWAP1 KECCAK256 DUP1 SLOAD PUSH1 0xFF NOT AND PUSH1 0x1 OR SWAP1 SSTORE DUP3 DUP2 ADD MLOAD DUP4 MLOAD PUSH2 0x140 DUP6 ADD MLOAD PUSH2 0x160 DUP7 ADD MLOAD SWAP4 MLOAD DUP6 SWAP5 PUSH1 0x1 PUSH1 0xA0 PUSH1 0x2 EXP SUB SWAP5 DUP6 AND SWAP5 SWAP4 SWAP1 SWAP4 AND SWAP3 PUSH32 0xDC47B3613D9FE400085F6DBDC99453462279057E6207385042827ED6B1A62CF7 SWAP3 PUSH2 0x3002 SWAP3 CALLER SWAP3 SWAP1 PUSH2 0x45F6 JUMP JUMPDEST PUSH1 0x40 MLOAD DUP1 SWAP2 SUB SWAP1 LOG4 POP POP JUMP JUMPDEST PUSH1 0x0 DUP2 PUSH1 0x14 ADD DUP4 MLOAD LT ISZERO ISZERO ISZERO PUSH2 0x3039 JUMPI PUSH1 0x40 MLOAD PUSH1 0xE5 PUSH1 0x2 EXP PUSH3 0x461BCD MUL DUP2 MSTORE PUSH1 0x4 ADD PUSH2 0x6AF SWAP1 PUSH2 0x48CC JUMP JUMPDEST POP ADD PUSH1 0x14 ADD MLOAD PUSH1 0x1 PUSH1 0xA0 PUSH1 0x2 EXP SUB AND SWAP1 JUMP JUMPDEST PUSH1 0x0 DUP1 DUP3 DUP5 DUP2 ISZERO ISZERO PUSH2 0x3059 JUMPI INVALID JUMPDEST DIV SWAP5 SWAP4 POP POP POP POP JUMP JUMPDEST PUSH1 0x40 DUP1 MLOAD PUSH32 0x4F72646572280000000000000000000000000000000000000000000000000000 PUSH1 0x20 DUP1 DUP4 ADD SWAP2 SWAP1 SWAP2 MSTORE PUSH32 0x61646472657373206D616B6572416464726573732C0000000000000000000000 PUSH1 0x26 DUP4 ADD MSTORE PUSH32 0x616464726573732074616B6572416464726573732C0000000000000000000000 PUSH1 0x3B DUP4 ADD MSTORE PUSH32 0x6164647265737320666565526563697069656E74416464726573732C00000000 PUSH1 0x50 DUP4 ADD MSTORE PUSH32 0x616464726573732073656E646572416464726573732C00000000000000000000 PUSH1 0x6C DUP4 ADD MSTORE PUSH32 0x75696E74323536206D616B65724173736574416D6F756E742C00000000000000 PUSH1 0x82 DUP4 ADD MSTORE PUSH32 0x75696E743235362074616B65724173736574416D6F756E742C00000000000000 PUSH1 0x9B DUP4 ADD MSTORE PUSH32 0x75696E74323536206D616B65724665652C000000000000000000000000000000 PUSH1 0xB4 DUP4 ADD MSTORE PUSH32 0x75696E743235362074616B65724665652C000000000000000000000000000000 PUSH1 0xC5 DUP4 ADD MSTORE PUSH32 0x75696E743235362065787069726174696F6E54696D655365636F6E64732C0000 PUSH1 0xD6 DUP4 ADD MSTORE PUSH32 0x75696E743235362073616C742C00000000000000000000000000000000000000 PUSH1 0xF4 DUP4 ADD MSTORE PUSH32 0x6279746573206D616B65724173736574446174612C0000000000000000000000 PUSH2 0x101 DUP4 ADD MSTORE PUSH32 0x62797465732074616B6572417373657444617461000000000000000000000000 PUSH2 0x116 DUP4 ADD MSTORE PUSH32 0x2900000000000000000000000000000000000000000000000000000000000000 PUSH2 0x12A DUP4 ADD MSTORE DUP3 MLOAD PUSH2 0x10B DUP2 DUP5 SUB ADD DUP2 MSTORE PUSH2 0x12B SWAP1 SWAP3 ADD SWAP3 DUP4 SWAP1 MSTORE DUP2 MLOAD PUSH1 0x0 SWAP4 DUP5 SWAP4 DUP5 SWAP4 DUP5 SWAP4 SWAP2 SWAP3 SWAP2 DUP3 SWAP2 DUP5 ADD SWAP1 DUP1 DUP4 DUP4 JUMPDEST PUSH1 0x20 DUP4 LT PUSH2 0x32CC JUMPI DUP1 MLOAD DUP3 MSTORE PUSH1 0x1F NOT SWAP1 SWAP3 ADD SWAP2 PUSH1 0x20 SWAP2 DUP3 ADD SWAP2 ADD PUSH2 0x32AD JUMP JUMPDEST MLOAD DUP2 MLOAD PUSH1 0x20 SWAP4 DUP5 SUB PUSH2 0x100 EXP PUSH1 0x0 NOT ADD DUP1 NOT SWAP1 SWAP3 AND SWAP2 AND OR SWAP1 MSTORE PUSH1 0x40 MLOAD SWAP2 SWAP1 SWAP4 ADD DUP2 SWAP1 SUB DUP2 KECCAK256 PUSH2 0x140 DUP12 ADD MLOAD DUP1 MLOAD SWAP2 SWAP10 POP SWAP6 POP SWAP1 SWAP4 POP DUP4 SWAP3 DUP6 ADD SWAP2 POP DUP1 DUP4 DUP4 JUMPDEST PUSH1 0x20 DUP4 LT PUSH2 0x332B JUMPI DUP1 MLOAD DUP3 MSTORE PUSH1 0x1F NOT SWAP1 SWAP3 ADD SWAP2 PUSH1 0x20 SWAP2 DUP3 ADD SWAP2 ADD PUSH2 0x330C JUMP JUMPDEST MLOAD DUP2 MLOAD PUSH1 0x20 SWAP4 DUP5 SUB PUSH2 0x100 EXP PUSH1 0x0 NOT ADD DUP1 NOT SWAP1 SWAP3 AND SWAP2 AND OR SWAP1 MSTORE PUSH1 0x40 MLOAD SWAP2 SWAP1 SWAP4 ADD DUP2 SWAP1 SUB DUP2 KECCAK256 PUSH2 0x160 DUP12 ADD MLOAD DUP1 MLOAD SWAP2 SWAP9 POP SWAP6 POP SWAP1 SWAP4 POP DUP4 SWAP3 DUP6 ADD SWAP2 POP DUP1 DUP4 DUP4 JUMPDEST PUSH1 0x20 DUP4 LT PUSH2 0x338A JUMPI DUP1 MLOAD DUP3 MSTORE PUSH1 0x1F NOT SWAP1 SWAP3 ADD SWAP2 PUSH1 0x20 SWAP2 DUP3 ADD SWAP2 ADD PUSH2 0x336B JUMP JUMPDEST MLOAD DUP2 MLOAD PUSH1 0x20 SWAP4 SWAP1 SWAP4 SUB PUSH2 0x100 EXP PUSH1 0x0 NOT ADD DUP1 NOT SWAP1 SWAP2 AND SWAP3 AND SWAP2 SWAP1 SWAP2 OR SWAP1 MSTORE PUSH1 0x40 MLOAD SWAP3 ADD DUP3 SWAP1 SUB SWAP1 SWAP2 KECCAK256 PUSH1 0x1F NOT DUP10 ADD DUP1 MLOAD PUSH2 0x140 DUP12 ADD DUP1 MLOAD PUSH2 0x160 SWAP1 SWAP13 ADD DUP1 MLOAD SWAP11 DUP5 MSTORE SWAP9 DUP2 MSTORE SWAP3 DUP9 MSTORE PUSH2 0x1A0 DUP3 KECCAK256 SWAP2 MSTORE SWAP9 SWAP1 MSTORE POP POP POP SWAP2 SWAP1 MSTORE POP SWAP1 SWAP2 SWAP1 POP JUMP JUMPDEST PUSH1 0x0 DUP1 DUP1 DUP5 GT PUSH2 0x340E JUMPI PUSH1 0x40 MLOAD PUSH1 0xE5 PUSH1 0x2 EXP PUSH3 0x461BCD MUL DUP2 MSTORE PUSH1 0x4 ADD PUSH2 0x6AF SWAP1 PUSH2 0x478C JUMP JUMPDEST DUP3 ISZERO DUP1 PUSH2 0x3419 JUMPI POP DUP5 ISZERO JUMPDEST ISZERO PUSH2 0x3427 JUMPI PUSH1 0x0 SWAP2 POP PUSH2 0x993 JUMP JUMPDEST DUP4 DUP1 ISZERO ISZERO PUSH2 0x3431 JUMPI INVALID JUMPDEST DUP6 DUP5 MULMOD SWAP1 POP PUSH2 0x3440 DUP6 DUP5 PUSH2 0x2CA2 JUMP JUMPDEST PUSH2 0x344C PUSH2 0x3E8 DUP4 PUSH2 0x2CA2 JUMP JUMPDEST LT ISZERO SWAP6 SWAP5 POP POP POP POP POP JUMP JUMPDEST PUSH1 0x0 DUP1 DUP1 DUP5 GT PUSH2 0x347C JUMPI PUSH1 0x40 MLOAD PUSH1 0xE5 PUSH1 0x2 EXP PUSH3 0x461BCD MUL DUP2 MSTORE PUSH1 0x4 ADD PUSH2 0x6AF SWAP1 PUSH2 0x478C JUMP JUMPDEST DUP3 ISZERO DUP1 PUSH2 0x3487 JUMPI POP DUP5 ISZERO JUMPDEST ISZERO PUSH2 0x3495 JUMPI PUSH1 0x0 SWAP2 POP PUSH2 0x993 JUMP JUMPDEST DUP4 DUP1 ISZERO ISZERO PUSH2 0x349F JUMPI INVALID JUMPDEST DUP6 DUP5 MULMOD SWAP1 POP DUP4 PUSH2 0x34AF DUP6 DUP4 PUSH2 0x25E3 JUMP JUMPDEST DUP2 ISZERO ISZERO PUSH2 0x34B8 JUMPI INVALID JUMPDEST MOD SWAP1 POP PUSH2 0x3440 DUP6 DUP5 PUSH2 0x2CA2 JUMP JUMPDEST PUSH1 0x80 PUSH1 0x40 MLOAD SWAP1 DUP2 ADD PUSH1 0x40 MSTORE DUP1 PUSH1 0x0 DUP2 MSTORE PUSH1 0x20 ADD PUSH1 0x0 DUP2 MSTORE PUSH1 0x20 ADD PUSH1 0x0 DUP2 MSTORE PUSH1 0x20 ADD PUSH1 0x0 DUP2 MSTORE POP SWAP1 JUMP JUMPDEST PUSH2 0x120 PUSH1 0x40 MLOAD SWAP1 DUP2 ADD PUSH1 0x40 MSTORE DUP1 PUSH2 0x3503 PUSH2 0x34C5 JUMP JUMPDEST DUP2 MSTORE PUSH1 0x20 ADD PUSH2 0x3510 PUSH2 0x34C5 JUMP JUMPDEST DUP2 MSTORE PUSH1 0x20 ADD PUSH1 0x0 DUP2 MSTORE POP SWAP1 JUMP JUMPDEST PUSH1 0x40 DUP1 MLOAD PUSH1 0x60 DUP2 ADD DUP3 MSTORE PUSH1 0x0 DUP1 DUP3 MSTORE PUSH1 0x20 DUP3 ADD DUP2 SWAP1 MSTORE SWAP2 DUP2 ADD SWAP2 SWAP1 SWAP2 MSTORE SWAP1 JUMP JUMPDEST PUSH1 0x0 PUSH2 0x1E2C DUP3 CALLDATALOAD PUSH2 0x49D1 JUMP JUMPDEST PUSH1 0x0 PUSH1 0x1F DUP3 ADD DUP4 SGT PUSH2 0x355A JUMPI PUSH1 0x0 DUP1 REVERT JUMPDEST DUP2 CALLDATALOAD PUSH2 0x356D PUSH2 0x3568 DUP3 PUSH2 0x497E JUMP JUMPDEST PUSH2 0x4957 JUMP JUMPDEST DUP2 DUP2 MSTORE PUSH1 0x20 SWAP4 DUP5 ADD SWAP4 SWAP1 SWAP3 POP DUP3 ADD DUP4 PUSH1 0x0 JUMPDEST DUP4 DUP2 LT ISZERO PUSH2 0x35AB JUMPI DUP2 CALLDATALOAD DUP7 ADD PUSH2 0x3595 DUP9 DUP3 PUSH2 0x36FB JUMP JUMPDEST DUP5 MSTORE POP PUSH1 0x20 SWAP3 DUP4 ADD SWAP3 SWAP2 SWAP1 SWAP2 ADD SWAP1 PUSH1 0x1 ADD PUSH2 0x357F JUMP JUMPDEST POP POP POP POP SWAP3 SWAP2 POP POP JUMP JUMPDEST PUSH1 0x0 PUSH1 0x1F DUP3 ADD DUP4 SGT PUSH2 0x35C6 JUMPI PUSH1 0x0 DUP1 REVERT JUMPDEST DUP2 CALLDATALOAD PUSH2 0x35D4 PUSH2 0x3568 DUP3 PUSH2 0x497E JUMP JUMPDEST DUP2 DUP2 MSTORE PUSH1 0x20 SWAP4 DUP5 ADD SWAP4 SWAP1 SWAP3 POP DUP3 ADD DUP4 PUSH1 0x0 JUMPDEST DUP4 DUP2 LT ISZERO PUSH2 0x35AB JUMPI DUP2 CALLDATALOAD DUP7 ADD PUSH2 0x35FC DUP9 DUP3 PUSH2 0x374A JUMP JUMPDEST DUP5 MSTORE POP PUSH1 0x20 SWAP3 DUP4 ADD SWAP3 SWAP2 SWAP1 SWAP2 ADD SWAP1 PUSH1 0x1 ADD PUSH2 0x35E6 JUMP JUMPDEST PUSH1 0x0 PUSH1 0x1F DUP3 ADD DUP4 SGT PUSH2 0x3623 JUMPI PUSH1 0x0 DUP1 REVERT JUMPDEST DUP2 CALLDATALOAD PUSH2 0x3631 PUSH2 0x3568 DUP3 PUSH2 0x497E JUMP JUMPDEST SWAP2 POP DUP2 DUP2 DUP4 MSTORE PUSH1 0x20 DUP5 ADD SWAP4 POP PUSH1 0x20 DUP2 ADD SWAP1 POP DUP4 DUP6 PUSH1 0x20 DUP5 MUL DUP3 ADD GT ISZERO PUSH2 0x3656 JUMPI PUSH1 0x0 DUP1 REVERT JUMPDEST PUSH1 0x0 JUMPDEST DUP4 DUP2 LT ISZERO PUSH2 0x35AB JUMPI DUP2 PUSH2 0x366C DUP9 DUP3 PUSH2 0x368E JUMP JUMPDEST DUP5 MSTORE POP PUSH1 0x20 SWAP3 DUP4 ADD SWAP3 SWAP2 SWAP1 SWAP2 ADD SWAP1 PUSH1 0x1 ADD PUSH2 0x3659 JUMP JUMPDEST PUSH1 0x0 PUSH2 0x1E2C DUP3 CALLDATALOAD PUSH2 0x49DD JUMP JUMPDEST PUSH1 0x0 PUSH2 0x1E2C DUP3 CALLDATALOAD PUSH2 0x49E2 JUMP JUMPDEST PUSH1 0x0 PUSH2 0x1E2C DUP3 CALLDATALOAD PUSH2 0x49E5 JUMP JUMPDEST PUSH1 0x0 PUSH2 0x1E2C DUP3 MLOAD PUSH2 0x49E5 JUMP JUMPDEST PUSH1 0x0 DUP1 PUSH1 0x1F DUP4 ADD DUP5 SGT PUSH2 0x36C4 JUMPI PUSH1 0x0 DUP1 REVERT JUMPDEST POP DUP2 CALLDATALOAD PUSH8 0xFFFFFFFFFFFFFFFF DUP2 GT ISZERO PUSH2 0x36DC JUMPI PUSH1 0x0 DUP1 REVERT JUMPDEST PUSH1 0x20 DUP4 ADD SWAP2 POP DUP4 PUSH1 0x1 DUP3 MUL DUP4 ADD GT ISZERO PUSH2 0x36F4 JUMPI PUSH1 0x0 DUP1 REVERT JUMPDEST SWAP3 POP SWAP3 SWAP1 POP JUMP JUMPDEST PUSH1 0x0 PUSH1 0x1F DUP3 ADD DUP4 SGT PUSH2 0x370C JUMPI PUSH1 0x0 DUP1 REVERT JUMPDEST DUP2 CALLDATALOAD PUSH2 0x371A PUSH2 0x3568 DUP3 PUSH2 0x499F JUMP JUMPDEST SWAP2 POP DUP1 DUP3 MSTORE PUSH1 0x20 DUP4 ADD PUSH1 0x20 DUP4 ADD DUP6 DUP4 DUP4 ADD GT ISZERO PUSH2 0x3736 JUMPI PUSH1 0x0 DUP1 REVERT JUMPDEST PUSH2 0x3741 DUP4 DUP3 DUP5 PUSH2 0x4A03 JUMP JUMPDEST POP POP POP SWAP3 SWAP2 POP POP JUMP JUMPDEST PUSH1 0x0 PUSH2 0x180 DUP3 DUP5 SUB SLT ISZERO PUSH2 0x375D JUMPI PUSH1 0x0 DUP1 REVERT JUMPDEST PUSH2 0x3768 PUSH2 0x180 PUSH2 0x4957 JUMP JUMPDEST SWAP1 POP PUSH1 0x0 PUSH2 0x3776 DUP5 DUP5 PUSH2 0x353D JUMP JUMPDEST DUP3 MSTORE POP PUSH1 0x20 PUSH2 0x3787 DUP5 DUP5 DUP4 ADD PUSH2 0x353D JUMP JUMPDEST PUSH1 0x20 DUP4 ADD MSTORE POP PUSH1 0x40 PUSH2 0x379B DUP5 DUP3 DUP6 ADD PUSH2 0x353D JUMP JUMPDEST PUSH1 0x40 DUP4 ADD MSTORE POP PUSH1 0x60 PUSH2 0x37AF DUP5 DUP3 DUP6 ADD PUSH2 0x353D JUMP JUMPDEST PUSH1 0x60 DUP4 ADD MSTORE POP PUSH1 0x80 PUSH2 0x37C3 DUP5 DUP3 DUP6 ADD PUSH2 0x368E JUMP JUMPDEST PUSH1 0x80 DUP4 ADD MSTORE POP PUSH1 0xA0 PUSH2 0x37D7 DUP5 DUP3 DUP6 ADD PUSH2 0x368E JUMP JUMPDEST PUSH1 0xA0 DUP4 ADD MSTORE POP PUSH1 0xC0 PUSH2 0x37EB DUP5 DUP3 DUP6 ADD PUSH2 0x368E JUMP JUMPDEST PUSH1 0xC0 DUP4 ADD MSTORE POP PUSH1 0xE0 PUSH2 0x37FF DUP5 DUP3 DUP6 ADD PUSH2 0x368E JUMP JUMPDEST PUSH1 0xE0 DUP4 ADD MSTORE POP PUSH2 0x100 PUSH2 0x3814 DUP5 DUP3 DUP6 ADD PUSH2 0x368E JUMP JUMPDEST PUSH2 0x100 DUP4 ADD MSTORE POP PUSH2 0x120 PUSH2 0x382A DUP5 DUP3 DUP6 ADD PUSH2 0x368E JUMP JUMPDEST PUSH2 0x120 DUP4 ADD MSTORE POP PUSH2 0x140 DUP3 ADD CALLDATALOAD PUSH8 0xFFFFFFFFFFFFFFFF DUP2 GT ISZERO PUSH2 0x384C JUMPI PUSH1 0x0 DUP1 REVERT JUMPDEST PUSH2 0x3858 DUP5 DUP3 DUP6 ADD PUSH2 0x36FB JUMP JUMPDEST PUSH2 0x140 DUP4 ADD MSTORE POP PUSH2 0x160 DUP3 ADD CALLDATALOAD PUSH8 0xFFFFFFFFFFFFFFFF DUP2 GT ISZERO PUSH2 0x387A JUMPI PUSH1 0x0 DUP1 REVERT JUMPDEST PUSH2 0x3886 DUP5 DUP3 DUP6 ADD PUSH2 0x36FB JUMP JUMPDEST PUSH2 0x160 DUP4 ADD MSTORE POP SWAP3 SWAP2 POP POP JUMP JUMPDEST PUSH1 0x0 PUSH1 0x20 DUP3 DUP5 SUB SLT ISZERO PUSH2 0x38A5 JUMPI PUSH1 0x0 DUP1 REVERT JUMPDEST PUSH1 0x0 PUSH2 0x292E DUP5 DUP5 PUSH2 0x353D JUMP JUMPDEST PUSH1 0x0 DUP1 PUSH1 0x40 DUP4 DUP6 SUB SLT ISZERO PUSH2 0x38C4 JUMPI PUSH1 0x0 DUP1 REVERT JUMPDEST PUSH1 0x0 PUSH2 0x38D0 DUP6 DUP6 PUSH2 0x353D JUMP JUMPDEST SWAP3 POP POP PUSH1 0x20 PUSH2 0x38E1 DUP6 DUP3 DUP7 ADD PUSH2 0x353D JUMP JUMPDEST SWAP2 POP POP SWAP3 POP SWAP3 SWAP1 POP JUMP JUMPDEST PUSH1 0x0 DUP1 PUSH1 0x40 DUP4 DUP6 SUB SLT ISZERO PUSH2 0x38FE JUMPI PUSH1 0x0 DUP1 REVERT JUMPDEST PUSH1 0x0 PUSH2 0x390A DUP6 DUP6 PUSH2 0x353D JUMP JUMPDEST SWAP3 POP POP PUSH1 0x20 PUSH2 0x38E1 DUP6 DUP3 DUP7 ADD PUSH2 0x3682 JUMP JUMPDEST PUSH1 0x0 PUSH1 0x20 DUP3 DUP5 SUB SLT ISZERO PUSH2 0x392D JUMPI PUSH1 0x0 DUP1 REVERT JUMPDEST DUP2 CALLDATALOAD PUSH8 0xFFFFFFFFFFFFFFFF DUP2 GT ISZERO PUSH2 0x3944 JUMPI PUSH1 0x0 DUP1 REVERT JUMPDEST PUSH2 0x292E DUP5 DUP3 DUP6 ADD PUSH2 0x35B5 JUMP JUMPDEST PUSH1 0x0 DUP1 PUSH1 0x0 PUSH1 0x60 DUP5 DUP7 SUB SLT ISZERO PUSH2 0x3965 JUMPI PUSH1 0x0 DUP1 REVERT JUMPDEST DUP4 CALLDATALOAD PUSH8 0xFFFFFFFFFFFFFFFF DUP2 GT ISZERO PUSH2 0x397C JUMPI PUSH1 0x0 DUP1 REVERT JUMPDEST PUSH2 0x3988 DUP7 DUP3 DUP8 ADD PUSH2 0x35B5 JUMP JUMPDEST SWAP4 POP POP PUSH1 0x20 DUP5 ADD CALLDATALOAD PUSH8 0xFFFFFFFFFFFFFFFF DUP2 GT ISZERO PUSH2 0x39A5 JUMPI PUSH1 0x0 DUP1 REVERT JUMPDEST PUSH2 0x39B1 DUP7 DUP3 DUP8 ADD PUSH2 0x3612 JUMP JUMPDEST SWAP3 POP POP PUSH1 0x40 DUP5 ADD CALLDATALOAD PUSH8 0xFFFFFFFFFFFFFFFF DUP2 GT ISZERO PUSH2 0x39CE JUMPI PUSH1 0x0 DUP1 REVERT JUMPDEST PUSH2 0x39DA DUP7 DUP3 DUP8 ADD PUSH2 0x3549 JUMP JUMPDEST SWAP2 POP POP SWAP3 POP SWAP3 POP SWAP3 JUMP JUMPDEST PUSH1 0x0 DUP1 PUSH1 0x0 PUSH1 0x60 DUP5 DUP7 SUB SLT ISZERO PUSH2 0x39F9 JUMPI PUSH1 0x0 DUP1 REVERT JUMPDEST DUP4 CALLDATALOAD PUSH8 0xFFFFFFFFFFFFFFFF DUP2 GT ISZERO PUSH2 0x3A10 JUMPI PUSH1 0x0 DUP1 REVERT JUMPDEST PUSH2 0x3A1C DUP7 DUP3 DUP8 ADD PUSH2 0x35B5 JUMP JUMPDEST SWAP4 POP POP PUSH1 0x20 PUSH2 0x39B1 DUP7 DUP3 DUP8 ADD PUSH2 0x368E JUMP JUMPDEST PUSH1 0x0 PUSH1 0x20 DUP3 DUP5 SUB SLT ISZERO PUSH2 0x3A3F JUMPI PUSH1 0x0 DUP1 REVERT JUMPDEST PUSH1 0x0 PUSH2 0x292E DUP5 DUP5 PUSH2 0x368E JUMP JUMPDEST PUSH1 0x0 DUP1 PUSH1 0x40 DUP4 DUP6 SUB SLT ISZERO PUSH2 0x3A5E JUMPI PUSH1 0x0 DUP1 REVERT JUMPDEST PUSH1 0x0 PUSH2 0x38D0 DUP6 DUP6 PUSH2 0x368E JUMP JUMPDEST PUSH1 0x0 DUP1 PUSH1 0x0 DUP1 PUSH1 0x60 DUP6 DUP8 SUB SLT ISZERO PUSH2 0x3A80 JUMPI PUSH1 0x0 DUP1 REVERT JUMPDEST PUSH1 0x0 PUSH2 0x3A8C DUP8 DUP8 PUSH2 0x368E JUMP JUMPDEST SWAP5 POP POP PUSH1 0x20 PUSH2 0x3A9D DUP8 DUP3 DUP9 ADD PUSH2 0x353D JUMP JUMPDEST SWAP4 POP POP PUSH1 0x40 DUP6 ADD CALLDATALOAD PUSH8 0xFFFFFFFFFFFFFFFF DUP2 GT ISZERO PUSH2 0x3ABA JUMPI PUSH1 0x0 DUP1 REVERT JUMPDEST PUSH2 0x3AC6 DUP8 DUP3 DUP9 ADD PUSH2 0x36B2 JUMP JUMPDEST SWAP6 SWAP9 SWAP5 SWAP8 POP SWAP6 POP POP POP POP JUMP JUMPDEST PUSH1 0x0 DUP1 PUSH1 0x0 PUSH1 0x60 DUP5 DUP7 SUB SLT ISZERO PUSH2 0x3AE7 JUMPI PUSH1 0x0 DUP1 REVERT JUMPDEST PUSH1 0x0 PUSH2 0x3AF3 DUP7 DUP7 PUSH2 0x368E JUMP JUMPDEST SWAP4 POP POP PUSH1 0x20 PUSH2 0x3B04 DUP7 DUP3 DUP8 ADD PUSH2 0x353D JUMP JUMPDEST SWAP3 POP POP PUSH1 0x40 DUP5 ADD CALLDATALOAD PUSH8 0xFFFFFFFFFFFFFFFF DUP2 GT ISZERO PUSH2 0x3B21 JUMPI PUSH1 0x0 DUP1 REVERT JUMPDEST PUSH2 0x39DA DUP7 DUP3 DUP8 ADD PUSH2 0x36FB JUMP JUMPDEST PUSH1 0x0 PUSH1 0x20 DUP3 DUP5 SUB SLT ISZERO PUSH2 0x3B3F JUMPI PUSH1 0x0 DUP1 REVERT JUMPDEST PUSH1 0x0 PUSH2 0x292E DUP5 DUP5 PUSH2 0x369A JUMP JUMPDEST PUSH1 0x0 PUSH1 0x20 DUP3 DUP5 SUB SLT ISZERO PUSH2 0x3B5D JUMPI PUSH1 0x0 DUP1 REVERT JUMPDEST PUSH1 0x0 PUSH2 0x292E DUP5 DUP5 PUSH2 0x36A6 JUMP JUMPDEST PUSH1 0x0 PUSH1 0x20 DUP3 DUP5 SUB SLT ISZERO PUSH2 0x3B7B JUMPI PUSH1 0x0 DUP1 REVERT JUMPDEST DUP2 CALLDATALOAD PUSH8 0xFFFFFFFFFFFFFFFF DUP2 GT ISZERO PUSH2 0x3B92 JUMPI PUSH1 0x0 DUP1 REVERT JUMPDEST PUSH2 0x292E DUP5 DUP3 DUP6 ADD PUSH2 0x374A JUMP JUMPDEST PUSH1 0x0 DUP1 PUSH1 0x0 DUP1 PUSH1 0x80 DUP6 DUP8 SUB SLT ISZERO PUSH2 0x3BB4 JUMPI PUSH1 0x0 DUP1 REVERT JUMPDEST DUP5 CALLDATALOAD PUSH8 0xFFFFFFFFFFFFFFFF DUP2 GT ISZERO PUSH2 0x3BCB JUMPI PUSH1 0x0 DUP1 REVERT JUMPDEST PUSH2 0x3BD7 DUP8 DUP3 DUP9 ADD PUSH2 0x374A JUMP JUMPDEST SWAP5 POP POP PUSH1 0x20 DUP6 ADD CALLDATALOAD PUSH8 0xFFFFFFFFFFFFFFFF DUP2 GT ISZERO PUSH2 0x3BF4 JUMPI PUSH1 0x0 DUP1 REVERT JUMPDEST PUSH2 0x3C00 DUP8 DUP3 DUP9 ADD PUSH2 0x374A JUMP JUMPDEST SWAP4 POP POP PUSH1 0x40 DUP6 ADD CALLDATALOAD PUSH8 0xFFFFFFFFFFFFFFFF DUP2 GT ISZERO PUSH2 0x3C1D JUMPI PUSH1 0x0 DUP1 REVERT JUMPDEST PUSH2 0x3C29 DUP8 DUP3 DUP9 ADD PUSH2 0x36FB JUMP JUMPDEST SWAP3 POP POP PUSH1 0x60 DUP6 ADD CALLDATALOAD PUSH8 0xFFFFFFFFFFFFFFFF DUP2 GT ISZERO PUSH2 0x3C46 JUMPI PUSH1 0x0 DUP1 REVERT JUMPDEST PUSH2 0x3C52 DUP8 DUP3 DUP9 ADD PUSH2 0x36FB JUMP JUMPDEST SWAP2 POP POP SWAP3 SWAP6 SWAP2 SWAP5 POP SWAP3 POP JUMP JUMPDEST PUSH1 0x0 DUP1 PUSH1 0x0 PUSH1 0x60 DUP5 DUP7 SUB SLT ISZERO PUSH2 0x3C73 JUMPI PUSH1 0x0 DUP1 REVERT JUMPDEST DUP4 CALLDATALOAD PUSH8 0xFFFFFFFFFFFFFFFF DUP2 GT ISZERO PUSH2 0x3C8A JUMPI PUSH1 0x0 DUP1 REVERT JUMPDEST PUSH2 0x3C96 DUP7 DUP3 DUP8 ADD PUSH2 0x374A JUMP JUMPDEST SWAP4 POP POP PUSH1 0x20 PUSH2 0x3B04 DUP7 DUP3 DUP8 ADD PUSH2 0x368E JUMP JUMPDEST PUSH1 0x0 DUP1 PUSH1 0x0 DUP1 PUSH1 0x0 DUP1 PUSH1 0x80 DUP8 DUP10 SUB SLT ISZERO PUSH2 0x3CC0 JUMPI PUSH1 0x0 DUP1 REVERT JUMPDEST PUSH1 0x0 PUSH2 0x3CCC DUP10 DUP10 PUSH2 0x368E JUMP JUMPDEST SWAP7 POP POP PUSH1 0x20 PUSH2 0x3CDD DUP10 DUP3 DUP11 ADD PUSH2 0x353D JUMP JUMPDEST SWAP6 POP POP PUSH1 0x40 DUP8 ADD CALLDATALOAD PUSH8 0xFFFFFFFFFFFFFFFF DUP2 GT ISZERO PUSH2 0x3CFA JUMPI PUSH1 0x0 DUP1 REVERT JUMPDEST PUSH2 0x3D06 DUP10 DUP3 DUP11 ADD PUSH2 0x36B2 JUMP JUMPDEST SWAP5 POP SWAP5 POP POP PUSH1 0x60 DUP8 ADD CALLDATALOAD PUSH8 0xFFFFFFFFFFFFFFFF DUP2 GT ISZERO PUSH2 0x3D25 JUMPI PUSH1 0x0 DUP1 REVERT JUMPDEST PUSH2 0x3D31 DUP10 DUP3 DUP11 ADD PUSH2 0x36B2 JUMP JUMPDEST SWAP3 POP SWAP3 POP POP SWAP3 SWAP6 POP SWAP3 SWAP6 POP SWAP3 SWAP6 JUMP JUMPDEST PUSH2 0x3D49 DUP2 PUSH2 0x49D1 JUMP JUMPDEST DUP3 MSTORE POP POP JUMP JUMPDEST PUSH1 0x0 PUSH2 0x3D5A DUP3 PUSH2 0x49CD JUMP JUMPDEST DUP1 DUP5 MSTORE PUSH1 0x20 DUP5 ADD SWAP4 POP PUSH2 0x3D6C DUP4 PUSH2 0x49C7 JUMP JUMPDEST PUSH1 0x0 JUMPDEST DUP3 DUP2 LT ISZERO PUSH2 0x3D9C JUMPI PUSH2 0x3D82 DUP7 DUP4 MLOAD PUSH2 0x4524 JUMP JUMPDEST PUSH2 0x3D8B DUP3 PUSH2 0x49C7 JUMP JUMPDEST PUSH1 0x60 SWAP7 SWAP1 SWAP7 ADD SWAP6 SWAP2 POP PUSH1 0x1 ADD PUSH2 0x3D6F JUMP JUMPDEST POP SWAP4 SWAP5 SWAP4 POP POP POP POP JUMP JUMPDEST PUSH2 0x3D49 DUP2 PUSH2 0x49DD JUMP JUMPDEST PUSH2 0x3D49 DUP2 PUSH2 0x49E2 JUMP JUMPDEST PUSH2 0x3D49 DUP2 PUSH2 0x49E5 JUMP JUMPDEST PUSH1 0x0 PUSH2 0x3DCC DUP3 PUSH2 0x49CD JUMP JUMPDEST DUP1 DUP5 MSTORE PUSH2 0x3DE0 DUP2 PUSH1 0x20 DUP7 ADD PUSH1 0x20 DUP7 ADD PUSH2 0x4A0F JUMP JUMPDEST PUSH2 0x3DE9 DUP2 PUSH2 0x4A3B JUMP JUMPDEST SWAP1 SWAP4 ADD PUSH1 0x20 ADD SWAP4 SWAP3 POP POP POP JUMP JUMPDEST PUSH2 0x3D49 DUP2 PUSH2 0x49F8 JUMP JUMPDEST PUSH1 0x12 DUP2 MSTORE PUSH32 0x4C454E4754485F36355F52455155495245440000000000000000000000000000 PUSH1 0x20 DUP3 ADD MSTORE PUSH1 0x40 ADD SWAP1 JUMP JUMPDEST PUSH1 0xD DUP2 MSTORE PUSH32 0x494E56414C49445F54414B455200000000000000000000000000000000000000 PUSH1 0x20 DUP3 ADD MSTORE PUSH1 0x40 ADD SWAP1 JUMP JUMPDEST PUSH1 0xE DUP2 MSTORE PUSH32 0x4F524445525F4F56455246494C4C000000000000000000000000000000000000 PUSH1 0x20 DUP3 ADD MSTORE PUSH1 0x40 ADD SWAP1 JUMP JUMPDEST PUSH1 0x11 DUP2 MSTORE PUSH32 0x55494E543235365F554E444552464C4F57000000000000000000000000000000 PUSH1 0x20 DUP3 ADD MSTORE PUSH1 0x40 ADD SWAP1 JUMP JUMPDEST PUSH1 0x1A DUP2 MSTORE PUSH32 0x41535345545F50524F58595F414C52454144595F455849535453000000000000 PUSH1 0x20 DUP3 ADD MSTORE PUSH1 0x40 ADD SWAP1 JUMP JUMPDEST PUSH1 0x26 DUP2 MSTORE PUSH32 0x475245415445525F4F525F455155414C5F544F5F33325F4C454E4754485F5245 PUSH1 0x20 DUP3 ADD MSTORE PUSH32 0x5155495245440000000000000000000000000000000000000000000000000000 PUSH1 0x40 DUP3 ADD MSTORE PUSH1 0x60 ADD SWAP1 JUMP JUMPDEST PUSH1 0x15 DUP2 MSTORE PUSH32 0x5349474E41545552455F554E535550504F525445440000000000000000000000 PUSH1 0x20 DUP3 ADD MSTORE PUSH1 0x40 ADD SWAP1 JUMP JUMPDEST PUSH1 0x10 DUP2 MSTORE PUSH32 0x4449564953494F4E5F42595F5A45524F00000000000000000000000000000000 PUSH1 0x20 DUP3 ADD MSTORE PUSH1 0x40 ADD SWAP1 JUMP JUMPDEST PUSH1 0x17 DUP2 MSTORE PUSH32 0x494E56414C49445F4F524445525F5349474E4154555245000000000000000000 PUSH1 0x20 DUP3 ADD MSTORE PUSH1 0x40 ADD SWAP1 JUMP JUMPDEST PUSH1 0xD DUP2 MSTORE PUSH32 0x494E56414C49445F4D414B455200000000000000000000000000000000000000 PUSH1 0x20 DUP3 ADD MSTORE PUSH1 0x40 ADD SWAP1 JUMP JUMPDEST PUSH1 0x10 DUP2 MSTORE PUSH32 0x55494E543235365F4F564552464C4F5700000000000000000000000000000000 PUSH1 0x20 DUP3 ADD MSTORE PUSH1 0x40 ADD SWAP1 JUMP JUMPDEST PUSH1 0xF DUP2 MSTORE PUSH32 0x494E56414C49445F54585F484153480000000000000000000000000000000000 PUSH1 0x20 DUP3 ADD MSTORE PUSH1 0x40 ADD SWAP1 JUMP JUMPDEST PUSH1 0x11 DUP2 MSTORE PUSH32 0x494E56414C49445F5349474E4154555245000000000000000000000000000000 PUSH1 0x20 DUP3 ADD MSTORE PUSH1 0x40 ADD SWAP1 JUMP JUMPDEST PUSH1 0xE DUP2 MSTORE PUSH32 0x524F554E44494E475F4552524F52000000000000000000000000000000000000 PUSH1 0x20 DUP3 ADD MSTORE PUSH1 0x40 ADD SWAP1 JUMP JUMPDEST PUSH1 0x10 DUP2 MSTORE PUSH32 0x4641494C45445F455845435554494F4E00000000000000000000000000000000 PUSH1 0x20 DUP3 ADD MSTORE PUSH1 0x40 ADD SWAP1 JUMP JUMPDEST PUSH1 0xD DUP2 MSTORE PUSH32 0x54414B45525F4F56455250415900000000000000000000000000000000000000 PUSH1 0x20 DUP3 ADD MSTORE PUSH1 0x40 ADD SWAP1 JUMP JUMPDEST PUSH1 0x14 DUP2 MSTORE PUSH32 0x494E56414C49445F54414B45525F414D4F554E54000000000000000000000000 PUSH1 0x20 DUP3 ADD MSTORE PUSH1 0x40 ADD SWAP1 JUMP JUMPDEST PUSH1 0x1A DUP2 MSTORE PUSH32 0x41535345545F50524F58595F444F45535F4E4F545F4558495354000000000000 PUSH1 0x20 DUP3 ADD MSTORE PUSH1 0x40 ADD SWAP1 JUMP JUMPDEST PUSH1 0x21 DUP2 MSTORE PUSH32 0x475245415445525F5448414E5F5A45524F5F4C454E4754485F52455155495245 PUSH1 0x20 DUP3 ADD MSTORE PUSH32 0x4400000000000000000000000000000000000000000000000000000000000000 PUSH1 0x40 DUP3 ADD MSTORE PUSH1 0x60 ADD SWAP1 JUMP JUMPDEST PUSH1 0x11 DUP2 MSTORE PUSH32 0x5349474E41545552455F494C4C4547414C000000000000000000000000000000 PUSH1 0x20 DUP3 ADD MSTORE PUSH1 0x40 ADD SWAP1 JUMP JUMPDEST PUSH1 0x1E DUP2 MSTORE PUSH32 0x4C454E4754485F475245415445525F5448414E5F305F52455155495245440000 PUSH1 0x20 DUP3 ADD MSTORE PUSH1 0x40 ADD SWAP1 JUMP JUMPDEST PUSH1 0x17 DUP2 MSTORE PUSH32 0x494E56414C49445F4E45575F4F524445525F45504F4348000000000000000000 PUSH1 0x20 DUP3 ADD MSTORE PUSH1 0x40 ADD SWAP1 JUMP JUMPDEST PUSH1 0x1E DUP2 MSTORE PUSH32 0x4C454E4754485F475245415445525F5448414E5F335F52455155495245440000 PUSH1 0x20 DUP3 ADD MSTORE PUSH1 0x40 ADD SWAP1 JUMP JUMPDEST PUSH1 0x14 DUP2 MSTORE PUSH32 0x434F4D504C4554455F46494C4C5F4641494C4544000000000000000000000000 PUSH1 0x20 DUP3 ADD MSTORE PUSH1 0x40 ADD SWAP1 JUMP JUMPDEST PUSH1 0x12 DUP2 MSTORE PUSH32 0x494E56414C49445F46494C4C5F50524943450000000000000000000000000000 PUSH1 0x20 DUP3 ADD MSTORE PUSH1 0x40 ADD SWAP1 JUMP JUMPDEST PUSH1 0x12 DUP2 MSTORE PUSH32 0x5245454E5452414E43595F494C4C4547414C0000000000000000000000000000 PUSH1 0x20 DUP3 ADD MSTORE PUSH1 0x40 ADD SWAP1 JUMP JUMPDEST PUSH1 0x13 DUP2 MSTORE PUSH32 0x4F4E4C595F434F4E54524143545F4F574E455200000000000000000000000000 PUSH1 0x20 DUP3 ADD MSTORE PUSH1 0x40 ADD SWAP1 JUMP JUMPDEST PUSH1 0x26 DUP2 MSTORE PUSH32 0x475245415445525F4F525F455155414C5F544F5F32305F4C454E4754485F5245 PUSH1 0x20 DUP3 ADD MSTORE PUSH32 0x5155495245440000000000000000000000000000000000000000000000000000 PUSH1 0x40 DUP3 ADD MSTORE PUSH1 0x60 ADD SWAP1 JUMP JUMPDEST PUSH1 0x10 DUP2 MSTORE PUSH32 0x4F524445525F554E46494C4C41424C4500000000000000000000000000000000 PUSH1 0x20 DUP3 ADD MSTORE PUSH1 0x40 ADD SWAP1 JUMP JUMPDEST PUSH1 0xE DUP2 MSTORE PUSH32 0x494E56414C49445F53454E444552000000000000000000000000000000000000 PUSH1 0x20 DUP3 ADD MSTORE PUSH1 0x40 ADD SWAP1 JUMP JUMPDEST PUSH1 0x18 DUP2 MSTORE PUSH32 0x4E454741544956455F5350524541445F52455155495245440000000000000000 PUSH1 0x20 DUP3 ADD MSTORE PUSH1 0x40 ADD SWAP1 JUMP JUMPDEST PUSH1 0x14 DUP2 MSTORE PUSH32 0x494E56414C49445F54585F5349474E4154555245000000000000000000000000 PUSH1 0x20 DUP3 ADD MSTORE PUSH1 0x40 ADD SWAP1 JUMP JUMPDEST PUSH1 0x11 DUP2 MSTORE PUSH32 0x4C454E4754485F305F5245515549524544000000000000000000000000000000 PUSH1 0x20 DUP3 ADD MSTORE PUSH1 0x40 ADD SWAP1 JUMP JUMPDEST DUP1 MLOAD PUSH1 0x80 DUP4 ADD SWAP1 PUSH2 0x44B2 DUP5 DUP3 PUSH2 0x3DAF JUMP JUMPDEST POP PUSH1 0x20 DUP3 ADD MLOAD PUSH2 0x44C5 PUSH1 0x20 DUP6 ADD DUP3 PUSH2 0x3DAF JUMP JUMPDEST POP PUSH1 0x40 DUP3 ADD MLOAD PUSH2 0x44D8 PUSH1 0x40 DUP6 ADD DUP3 PUSH2 0x3DAF JUMP JUMPDEST POP PUSH1 0x60 DUP3 ADD MLOAD PUSH2 0x1F28 PUSH1 0x60 DUP6 ADD DUP3 PUSH2 0x3DAF JUMP JUMPDEST DUP1 MLOAD PUSH2 0x120 DUP4 ADD SWAP1 PUSH2 0x44FD DUP5 DUP3 PUSH2 0x44A1 JUMP JUMPDEST POP PUSH1 0x20 DUP3 ADD MLOAD PUSH2 0x4510 PUSH1 0x80 DUP6 ADD DUP3 PUSH2 0x44A1 JUMP JUMPDEST POP PUSH1 0x40 DUP3 ADD MLOAD PUSH2 0x1F28 PUSH2 0x100 DUP6 ADD DUP3 PUSH2 0x3DAF JUMP JUMPDEST DUP1 MLOAD PUSH1 0x60 DUP4 ADD SWAP1 PUSH2 0x4535 DUP5 DUP3 PUSH2 0x455B JUMP JUMPDEST POP PUSH1 0x20 DUP3 ADD MLOAD PUSH2 0x4548 PUSH1 0x20 DUP6 ADD DUP3 PUSH2 0x3DAF JUMP JUMPDEST POP PUSH1 0x40 DUP3 ADD MLOAD PUSH2 0x1F28 PUSH1 0x40 DUP6 ADD DUP3 PUSH2 0x3DAF JUMP JUMPDEST PUSH2 0x3D49 DUP2 PUSH2 0x49F2 JUMP JUMPDEST PUSH1 0x20 DUP2 ADD PUSH2 0x260D DUP3 DUP5 PUSH2 0x3D40 JUMP JUMPDEST PUSH2 0x100 DUP2 ADD PUSH2 0x4581 DUP3 DUP12 PUSH2 0x3D40 JUMP JUMPDEST PUSH2 0x458E PUSH1 0x20 DUP4 ADD DUP11 PUSH2 0x3D40 JUMP JUMPDEST PUSH2 0x459B PUSH1 0x40 DUP4 ADD DUP10 PUSH2 0x3DAF JUMP JUMPDEST PUSH2 0x45A8 PUSH1 0x60 DUP4 ADD DUP9 PUSH2 0x3DAF JUMP JUMPDEST PUSH2 0x45B5 PUSH1 0x80 DUP4 ADD DUP8 PUSH2 0x3DAF JUMP JUMPDEST PUSH2 0x45C2 PUSH1 0xA0 DUP4 ADD DUP7 PUSH2 0x3DAF JUMP JUMPDEST DUP2 DUP2 SUB PUSH1 0xC0 DUP4 ADD MSTORE PUSH2 0x45D4 DUP2 DUP6 PUSH2 0x3DC1 JUMP JUMPDEST SWAP1 POP DUP2 DUP2 SUB PUSH1 0xE0 DUP4 ADD MSTORE PUSH2 0x45E8 DUP2 DUP5 PUSH2 0x3DC1 JUMP JUMPDEST SWAP11 SWAP10 POP POP POP POP POP POP POP POP POP POP JUMP JUMPDEST PUSH1 0x60 DUP2 ADD PUSH2 0x4604 DUP3 DUP7 PUSH2 0x3D40 JUMP JUMPDEST DUP2 DUP2 SUB PUSH1 0x20 DUP4 ADD MSTORE PUSH2 0x4616 DUP2 DUP6 PUSH2 0x3DC1 JUMP JUMPDEST SWAP1 POP DUP2 DUP2 SUB PUSH1 0x40 DUP4 ADD MSTORE PUSH2 0x462A DUP2 DUP5 PUSH2 0x3DC1 JUMP JUMPDEST SWAP6 SWAP5 POP POP POP POP POP JUMP JUMPDEST PUSH1 0x20 DUP1 DUP3 MSTORE DUP2 ADD PUSH2 0x1E2C DUP2 DUP5 PUSH2 0x3D4F JUMP JUMPDEST PUSH1 0x20 DUP2 ADD PUSH2 0x260D DUP3 DUP5 PUSH2 0x3DA6 JUMP JUMPDEST PUSH1 0x20 DUP2 ADD PUSH2 0x260D DUP3 DUP5 PUSH2 0x3DAF JUMP JUMPDEST PUSH1 0x60 DUP2 ADD PUSH2 0x466E DUP3 DUP7 PUSH2 0x3DAF JUMP JUMPDEST PUSH2 0x467B PUSH1 0x20 DUP4 ADD DUP6 PUSH2 0x3D40 JUMP JUMPDEST DUP2 DUP2 SUB PUSH1 0x40 DUP4 ADD MSTORE PUSH2 0x462A DUP2 DUP5 PUSH2 0x3DC1 JUMP JUMPDEST PUSH1 0x40 DUP2 ADD PUSH2 0x469B DUP3 DUP6 PUSH2 0x3DAF JUMP JUMPDEST DUP2 DUP2 SUB PUSH1 0x20 DUP4 ADD MSTORE PUSH2 0x292E DUP2 DUP5 PUSH2 0x3DC1 JUMP JUMPDEST PUSH1 0x80 DUP2 ADD PUSH2 0x46BB DUP3 DUP8 PUSH2 0x3DAF JUMP JUMPDEST PUSH2 0x46C8 PUSH1 0x20 DUP4 ADD DUP7 PUSH2 0x455B JUMP JUMPDEST PUSH2 0x46D5 PUSH1 0x40 DUP4 ADD DUP6 PUSH2 0x3DAF JUMP JUMPDEST PUSH2 0x462A PUSH1 0x60 DUP4 ADD DUP5 PUSH2 0x3DAF JUMP JUMPDEST PUSH1 0x40 DUP2 ADD PUSH2 0x46F0 DUP3 DUP6 PUSH2 0x3DB8 JUMP JUMPDEST PUSH2 0x1E2C PUSH1 0x20 DUP4 ADD DUP5 PUSH2 0x3D40 JUMP JUMPDEST PUSH1 0x20 DUP1 DUP3 MSTORE DUP2 ADD PUSH2 0x1E2C DUP2 DUP5 PUSH2 0x3DC1 JUMP JUMPDEST PUSH1 0x20 DUP2 ADD PUSH2 0x260D DUP3 DUP5 PUSH2 0x3DF6 JUMP JUMPDEST PUSH1 0x20 DUP1 DUP3 MSTORE DUP2 ADD PUSH2 0x260D DUP2 PUSH2 0x3DFF JUMP JUMPDEST PUSH1 0x20 DUP1 DUP3 MSTORE DUP2 ADD PUSH2 0x260D DUP2 PUSH2 0x3E2F JUMP JUMPDEST PUSH1 0x20 DUP1 DUP3 MSTORE DUP2 ADD PUSH2 0x260D DUP2 PUSH2 0x3E5F JUMP JUMPDEST PUSH1 0x20 DUP1 DUP3 MSTORE DUP2 ADD PUSH2 0x260D DUP2 PUSH2 0x3E8F JUMP JUMPDEST PUSH1 0x20 DUP1 DUP3 MSTORE DUP2 ADD PUSH2 0x260D DUP2 PUSH2 0x3EBF JUMP JUMPDEST PUSH1 0x20 DUP1 DUP3 MSTORE DUP2 ADD PUSH2 0x260D DUP2 PUSH2 0x3EEF JUMP JUMPDEST PUSH1 0x20 DUP1 DUP3 MSTORE DUP2 ADD PUSH2 0x260D DUP2 PUSH2 0x3F45 JUMP JUMPDEST PUSH1 0x20 DUP1 DUP3 MSTORE DUP2 ADD PUSH2 0x260D DUP2 PUSH2 0x3F75 JUMP JUMPDEST PUSH1 0x20 DUP1 DUP3 MSTORE DUP2 ADD PUSH2 0x260D DUP2 PUSH2 0x3FA5 JUMP JUMPDEST PUSH1 0x20 DUP1 DUP3 MSTORE DUP2 ADD PUSH2 0x260D DUP2 PUSH2 0x3FD5 JUMP JUMPDEST PUSH1 0x20 DUP1 DUP3 MSTORE DUP2 ADD PUSH2 0x260D DUP2 PUSH2 0x4005 JUMP JUMPDEST PUSH1 0x20 DUP1 DUP3 MSTORE DUP2 ADD PUSH2 0x260D DUP2 PUSH2 0x4035 JUMP JUMPDEST PUSH1 0x20 DUP1 DUP3 MSTORE DUP2 ADD PUSH2 0x260D DUP2 PUSH2 0x4065 JUMP JUMPDEST PUSH1 0x20 DUP1 DUP3 MSTORE DUP2 ADD PUSH2 0x260D DUP2 PUSH2 0x4095 JUMP JUMPDEST PUSH1 0x20 DUP1 DUP3 MSTORE DUP2 ADD PUSH2 0x260D DUP2 PUSH2 0x40C5 JUMP JUMPDEST PUSH1 0x20 DUP1 DUP3 MSTORE DUP2 ADD PUSH2 0x260D DUP2 PUSH2 0x40F5 JUMP JUMPDEST PUSH1 0x20 DUP1 DUP3 MSTORE DUP2 ADD PUSH2 0x260D DUP2 PUSH2 0x4125 JUMP JUMPDEST PUSH1 0x20 DUP1 DUP3 MSTORE DUP2 ADD PUSH2 0x260D DUP2 PUSH2 0x4155 JUMP JUMPDEST PUSH1 0x20 DUP1 DUP3 MSTORE DUP2 ADD PUSH2 0x260D DUP2 PUSH2 0x4185 JUMP JUMPDEST PUSH1 0x20 DUP1 DUP3 MSTORE DUP2 ADD PUSH2 0x260D DUP2 PUSH2 0x41DB JUMP JUMPDEST PUSH1 0x20 DUP1 DUP3 MSTORE DUP2 ADD PUSH2 0x260D DUP2 PUSH2 0x420B JUMP JUMPDEST PUSH1 0x20 DUP1 DUP3 MSTORE DUP2 ADD PUSH2 0x260D DUP2 PUSH2 0x423B JUMP JUMPDEST PUSH1 0x20 DUP1 DUP3 MSTORE DUP2 ADD PUSH2 0x260D DUP2 PUSH2 0x426B JUMP JUMPDEST PUSH1 0x20 DUP1 DUP3 MSTORE DUP2 ADD PUSH2 0x260D DUP2 PUSH2 0x429B JUMP JUMPDEST PUSH1 0x20 DUP1 DUP3 MSTORE DUP2 ADD PUSH2 0x260D DUP2 PUSH2 0x42CB JUMP JUMPDEST PUSH1 0x20 DUP1 DUP3 MSTORE DUP2 ADD PUSH2 0x260D DUP2 PUSH2 0x42FB JUMP JUMPDEST PUSH1 0x20 DUP1 DUP3 MSTORE DUP2 ADD PUSH2 0x260D DUP2 PUSH2 0x432B JUMP JUMPDEST PUSH1 0x20 DUP1 DUP3 MSTORE DUP2 ADD PUSH2 0x260D DUP2 PUSH2 0x435B JUMP JUMPDEST PUSH1 0x20 DUP1 DUP3 MSTORE DUP2 ADD PUSH2 0x260D DUP2 PUSH2 0x43B1 JUMP JUMPDEST PUSH1 0x20 DUP1 DUP3 MSTORE DUP2 ADD PUSH2 0x260D DUP2 PUSH2 0x43E1 JUMP JUMPDEST PUSH1 0x20 DUP1 DUP3 MSTORE DUP2 ADD PUSH2 0x260D DUP2 PUSH2 0x4411 JUMP JUMPDEST PUSH1 0x20 DUP1 DUP3 MSTORE DUP2 ADD PUSH2 0x260D DUP2 PUSH2 0x4441 JUMP JUMPDEST PUSH1 0x20 DUP1 DUP3 MSTORE DUP2 ADD PUSH2 0x260D DUP2 PUSH2 0x4471 JUMP JUMPDEST PUSH1 0x80 DUP2 ADD PUSH2 0x260D DUP3 DUP5 PUSH2 0x44A1 JUMP JUMPDEST PUSH2 0x120 DUP2 ADD PUSH2 0x260D DUP3 DUP5 PUSH2 0x44EB JUMP JUMPDEST PUSH1 0x60 DUP2 ADD PUSH2 0x260D DUP3 DUP5 PUSH2 0x4524 JUMP JUMPDEST PUSH1 0x40 MLOAD DUP2 DUP2 ADD PUSH8 0xFFFFFFFFFFFFFFFF DUP2 GT DUP3 DUP3 LT OR ISZERO PUSH2 0x4976 JUMPI PUSH1 0x0 DUP1 REVERT JUMPDEST PUSH1 0x40 MSTORE SWAP2 SWAP1 POP JUMP JUMPDEST PUSH1 0x0 PUSH8 0xFFFFFFFFFFFFFFFF DUP3 GT ISZERO PUSH2 0x4995 JUMPI PUSH1 0x0 DUP1 REVERT JUMPDEST POP PUSH1 0x20 SWAP1 DUP2 MUL ADD SWAP1 JUMP JUMPDEST PUSH1 0x0 PUSH8 0xFFFFFFFFFFFFFFFF DUP3 GT ISZERO PUSH2 0x49B6 JUMPI PUSH1 0x0 DUP1 REVERT JUMPDEST POP PUSH1 0x20 PUSH1 0x1F SWAP2 SWAP1 SWAP2 ADD PUSH1 0x1F NOT AND ADD SWAP1 JUMP JUMPDEST PUSH1 0x20 ADD SWAP1 JUMP JUMPDEST MLOAD SWAP1 JUMP JUMPDEST PUSH1 0x1 PUSH1 0xA0 PUSH1 0x2 EXP SUB AND SWAP1 JUMP JUMPDEST ISZERO ISZERO SWAP1 JUMP JUMPDEST SWAP1 JUMP JUMPDEST PUSH1 0x1 PUSH1 0xE0 PUSH1 0x2 EXP SUB NOT AND SWAP1 JUMP JUMPDEST PUSH1 0xFF AND SWAP1 JUMP JUMPDEST PUSH1 0x0 PUSH2 0x260D DUP3 PUSH2 0x49D1 JUMP JUMPDEST DUP3 DUP2 DUP4 CALLDATACOPY POP PUSH1 0x0 SWAP2 ADD MSTORE JUMP JUMPDEST PUSH1 0x0 JUMPDEST DUP4 DUP2 LT ISZERO PUSH2 0x4A2A JUMPI DUP2 DUP2 ADD MLOAD DUP4 DUP3 ADD MSTORE PUSH1 0x20 ADD PUSH2 0x4A12 JUMP JUMPDEST DUP4 DUP2 GT ISZERO PUSH2 0x1F28 JUMPI POP POP PUSH1 0x0 SWAP2 ADD MSTORE JUMP JUMPDEST PUSH1 0x1F ADD PUSH1 0x1F NOT AND SWAP1 JUMP STOP LOG2 PUSH6 0x627A7A723058 KECCAK256 SWAP3 NOT 0xd5 SLOAD 0xeb SWAP4 SHR 0xb8 CALLDATALOAD DUP10 0x2b DUP13 0x5e SIGNEXTEND SHL SLOAD MSTORE CODESIZE 0x49 0xec 0xcd KECCAK256 0xd5 SWAP13 CODESIZE PUSH23 0x634AA7A242346C6578706572696D656E74616CF5003700 "
			}
		}
	},
	"sourceTreeHashHex": "0x865cd00c08be8c510cbfc8e5209fc65449723b8b5c4dc39d57fe75392f34b4d9",
	"compiler": {
		"name": "solc",
		"version": "0.4.24+commit.e67f0147",
		"settings": {
			"remappings": [],
			"optimizer": {
				"enabled": true,
				"runs": 200
			},
			"outputSelection": {
				"*": {
					"*": [
						"abi",
						"devdoc",
						"evm.bytecode.object",
						"evm.bytecode.sourceMap",
						"evm.deployedBytecode.object",
						"evm.deployedBytecode.sourceMap"
					]
				}
			}
		}
	},
	"chains": {}
}