{
	"schemaVersion": "2.0.0",
	"contractName": "ExchangesAuthority",
	"compilerOutput": {
		"abi": [
			{
				"constant": false,
				"inputs": [
					{
						"name": "_new",
						"type": "address"
					}
				],
				"name": "setOwner",
				"outputs": [],
				"payable": false,
				"stateMutability": "nonpayable",
				"type": "function"
			},
			{
				"constant": true,
				"inputs": [],
				"name": "isCasperInitialized",
				"outputs": [
					{
						"name": "",
						"type": "bool"
					}
				],
				"payable": false,
				"stateMutability": "view",
				"type": "function"
			},
			{
				"constant": true,
				"inputs": [],
				"name": "getCasper",
				"outputs": [
					{
						"name": "",
						"type": "address"
					}
				],
				"payable": false,
				"stateMutability": "view",
				"type": "function"
			},
			{
				"constant": true,
				"inputs": [
					{
						"name": "_authority",
						"type": "address"
					}
				],
				"name": "isAuthority",
				"outputs": [
					{
						"name": "",
						"type": "bool"
					}
				],
				"payable": false,
				"stateMutability": "view",
				"type": "function"
			},
			{
				"constant": false,
				"inputs": [
					{
						"name": "_wrapper",
						"type": "address"
					},
					{
						"name": "_isWhitelisted",
						"type": "bool"
					}
				],
				"name": "whitelistWrapper",
				"outputs": [],
				"payable": false,
				"stateMutability": "nonpayable",
				"type": "function"
			},
			{
				"constant": false,
				"inputs": [
					{
						"name": "_casper",
						"type": "address"
					}
				],
				"name": "setCasper",
				"outputs": [],
				"payable": false,
				"stateMutability": "nonpayable",
				"type": "function"
			},
			{
				"constant": false,
				"inputs": [
					{
						"name": "_token",
						"type": "address"
					},
					{
						"name": "_wrapper",
						"type": "address"
					},
					{
						"name": "_isWhitelisted",
						"type": "bool"
					}
				],
				"name": "whitelistTokenOnWrapper",
				"outputs": [],
				"payable": false,
				"stateMutability": "nonpayable",
				"type": "function"
			},
			{
				"constant": true,
				"inputs": [
					{
						"name": "_exchange",
						"type": "address"
					}
				],
				"name": "getExchangeAdapter",
				"outputs": [
					{
						"name": "",
						"type": "address"
					}
				],
				"payable": false,
				"stateMutability": "view",
				"type": "function"
			},
			{
				"constant": true,
				"inputs": [
					{
						"name": "_token",
						"type": "address"
					},
					{
						"name": "_wrapper",
						"type": "address"
					}
				],
				"name": "canWrapTokenOnWrapper",
				"outputs": [
					{
						"name": "",
						"type": "bool"
					}
				],
				"payable": false,
				"stateMutability": "view",
				"type": "function"
			},
			{
				"constant": true,
				"inputs": [
					{
						"name": "_tokenTransferProxy",
						"type": "address"
					}
				],
				"name": "isWhitelistedProxy",
				"outputs": [
					{
						"name": "",
						"type": "bool"
					}
				],
				"payable": false,
				"stateMutability": "view",
				"type": "function"
			},
			{
				"constant": true,
				"inputs": [],
				"name": "getSigVerifier",
				"outputs": [
					{
						"name": "",
						"type": "address"
					}
				],
				"payable": false,
				"stateMutability": "view",
				"type": "function"
			},
			{
				"constant": true,
				"inputs": [
					{
						"name": "",
						"type": "address"
					}
				],
				"name": "accounts",
				"outputs": [
					{
						"name": "account",
						"type": "address"
					},
					{
						"name": "authorized",
						"type": "bool"
					}
				],
				"payable": false,
				"stateMutability": "view",
				"type": "function"
			},
			{
				"constant": true,
				"inputs": [
					{
						"name": "_method",
						"type": "bytes4"
					},
					{
						"name": "_adapter",
						"type": "address"
					}
				],
				"name": "isMethodAllowed",
				"outputs": [
					{
						"name": "",
						"type": "bool"
					}
				],
				"payable": false,
				"stateMutability": "view",
				"type": "function"
			},
			{
				"constant": true,
				"inputs": [],
				"name": "owner",
				"outputs": [
					{
						"name": "",
						"type": "address"
					}
				],
				"payable": false,
				"stateMutability": "view",
				"type": "function"
			},
			{
				"constant": true,
				"inputs": [],
				"name": "blocks",
				"outputs": [
					{
						"name": "exchangeEventful",
						"type": "address"
					},
					{
						"name": "sigVerifier",
						"type": "address"
					},
					{
						"name": "casper",
						"type": "address"
					}
				],
				"payable": false,
				"stateMutability": "view",
				"type": "function"
			},
			{
				"constant": true,
				"inputs": [
					{
						"name": "_exchange",
						"type": "address"
					}
				],
				"name": "isWhitelistedExchange",
				"outputs": [
					{
						"name": "",
						"type": "bool"
					}
				],
				"payable": false,
				"stateMutability": "view",
				"type": "function"
			},
			{
				"constant": false,
				"inputs": [
					{
						"name": "_exchange",
						"type": "address"
					},
					{
						"name": "_isWhitelisted",
						"type": "bool"
					}
				],
				"name": "whitelistExchange",
				"outputs": [],
				"payable": false,
				"stateMutability": "nonpayable",
				"type": "function"
			},
			{
				"constant": true,
				"inputs": [
					{
						"name": "_asset",
						"type": "address"
					}
				],
				"name": "isWhitelistedAsset",
				"outputs": [
					{
						"name": "",
						"type": "bool"
					}
				],
				"payable": false,
				"stateMutability": "view",
				"type": "function"
			},
			{
				"constant": false,
				"inputs": [
					{
						"name": "_asset",
						"type": "address"
					},
					{
						"name": "_exchange",
						"type": "address"
					},
					{
						"name": "_isWhitelisted",
						"type": "bool"
					}
				],
				"name": "whitelistAssetOnExchange",
				"outputs": [],
				"payable": false,
				"stateMutability": "nonpayable",
				"type": "function"
			},
			{
				"constant": false,
				"inputs": [
					{
						"name": "_exchangeEventful",
						"type": "address"
					}
				],
				"name": "setExchangeEventful",
				"outputs": [],
				"payable": false,
				"stateMutability": "nonpayable",
				"type": "function"
			},
			{
				"constant": false,
				"inputs": [
					{
						"name": "_authority",
						"type": "address"
					},
					{
						"name": "_isWhitelisted",
						"type": "bool"
					}
				],
				"name": "setAuthority",
				"outputs": [],
				"payable": false,
				"stateMutability": "nonpayable",
				"type": "function"
			},
			{
				"constant": false,
				"inputs": [
					{
						"name": "_tokenTransferProxy",
						"type": "address"
					},
					{
						"name": "_isWhitelisted",
						"type": "bool"
					}
				],
				"name": "whitelistTokenTransferProxy",
				"outputs": [],
				"payable": false,
				"stateMutability": "nonpayable",
				"type": "function"
			},
			{
				"constant": false,
				"inputs": [
					{
						"name": "_exchange",
						"type": "address"
					},
					{
						"name": "_adapter",
						"type": "address"
					}
				],
				"name": "setExchangeAdapter",
				"outputs": [],
				"payable": false,
				"stateMutability": "nonpayable",
				"type": "function"
			},
			{
				"constant": false,
				"inputs": [
					{
						"name": "_whitelister",
						"type": "address"
					},
					{
						"name": "_isWhitelisted",
						"type": "bool"
					}
				],
				"name": "setWhitelister",
				"outputs": [],
				"payable": false,
				"stateMutability": "nonpayable",
				"type": "function"
			},
			{
				"constant": false,
				"inputs": [
					{
						"name": "_asset",
						"type": "address"
					},
					{
						"name": "_isWhitelisted",
						"type": "bool"
					}
				],
				"name": "whitelistAsset",
				"outputs": [],
				"payable": false,
				"stateMutability": "nonpayable",
				"type": "function"
			},
			{
				"constant": true,
				"inputs": [],
				"name": "types",
				"outputs": [
					{
						"name": "types",
						"type": "string"
					}
				],
				"payable": false,
				"stateMutability": "view",
				"type": "function"
			},
			{
				"constant": false,
				"inputs": [
					{
						"name": "_sigVerifier",
						"type": "address"
					}
				],
				"name": "setSignatureVerifier",
				"outputs": [],
				"payable": false,
				"stateMutability": "nonpayable",
				"type": "function"
			},
			{
				"constant": true,
				"inputs": [
					{
						"name": "_token",
						"type": "address"
					},
					{
						"name": "_exchange",
						"type": "address"
					}
				],
				"name": "canTradeTokenOnExchange",
				"outputs": [
					{
						"name": "",
						"type": "bool"
					}
				],
				"payable": false,
				"stateMutability": "view",
				"type": "function"
			},
			{
				"constant": true,
				"inputs": [
					{
						"name": "_wrapper",
						"type": "address"
					}
				],
				"name": "isWhitelistedWrapper",
				"outputs": [
					{
						"name": "",
						"type": "bool"
					}
				],
				"payable": false,
				"stateMutability": "view",
				"type": "function"
			},
			{
				"constant": false,
				"inputs": [
					{
						"name": "_method",
						"type": "bytes4"
					},
					{
						"name": "_adapter",
						"type": "address"
					},
					{
						"name": "_isWhitelisted",
						"type": "bool"
					}
				],
				"name": "whitelistMethod",
				"outputs": [],
				"payable": false,
				"stateMutability": "nonpayable",
				"type": "function"
			},
			{
				"anonymous": false,
				"inputs": [
					{
						"indexed": true,
						"name": "authority",
						"type": "address"
					}
				],
				"name": "AuthoritySet",
				"type": "event"
			},
			{
				"anonymous": false,
				"inputs": [
					{
						"indexed": true,
						"name": "whitelister",
						"type": "address"
					}
				],
				"name": "WhitelisterSet",
				"type": "event"
			},
			{
				"anonymous": false,
				"inputs": [
					{
						"indexed": true,
						"name": "asset",
						"type": "address"
					},
					{
						"indexed": false,
						"name": "approved",
						"type": "bool"
					}
				],
				"name": "WhitelistedAsset",
				"type": "event"
			},
			{
				"anonymous": false,
				"inputs": [
					{
						"indexed": true,
						"name": "exchange",
						"type": "address"
					},
					{
						"indexed": false,
						"name": "approved",
						"type": "bool"
					}
				],
				"name": "WhitelistedExchange",
				"type": "event"
			},
			{
				"anonymous": false,
				"inputs": [
					{
						"indexed": true,
						"name": "wrapper",
						"type": "address"
					},
					{
						"indexed": false,
						"name": "approved",
						"type": "bool"
					}
				],
				"name": "WhitelistedWrapper",
				"type": "event"
			},
			{
				"anonymous": false,
				"inputs": [
					{
						"indexed": true,
						"name": "proxy",
						"type": "address"
					},
					{
						"indexed": false,
						"name": "approved",
						"type": "bool"
					}
				],
				"name": "WhitelistedProxy",
				"type": "event"
			},
			{
				"anonymous": false,
				"inputs": [
					{
						"indexed": true,
						"name": "method",
						"type": "bytes4"
					},
					{
						"indexed": true,
						"name": "adapter",
						"type": "address"
					},
					{
						"indexed": false,
						"name": "approved",
						"type": "bool"
					}
				],
				"name": "WhitelistedMethod",
				"type": "event"
			},
			{
				"anonymous": false,
				"inputs": [
					{
						"indexed": true,
						"name": "sigVerifier",
						"type": "address"
					}
				],
				"name": "NewSigVerifier",
				"type": "event"
			},
			{
				"anonymous": false,
				"inputs": [
					{
						"indexed": true,
						"name": "exchangeEventful",
						"type": "address"
					}
				],
				"name": "NewExchangeEventful",
				"type": "event"
			},
			{
				"anonymous": false,
				"inputs": [
					{
						"indexed": true,
						"name": "casper",
						"type": "address"
					}
				],
				"name": "NewCasper",
				"type": "event"
			},
			{
				"anonymous": false,
				"inputs": [
					{
						"indexed": true,
						"name": "old",
						"type": "address"
					},
					{
						"indexed": true,
						"name": "current",
						"type": "address"
					}
				],
				"name": "NewOwner",
				"type": "event"
			}
		],
		"devdoc": {
			"author": "Gabriele Rigo - <gab@rigoblock.com>",
			"methods": {
				"canTradeTokenOnExchange(address,address)": {
					"details": "Checkes whether a token is allowed on an exchange",
					"params": {
						"_exchange": "Address of the exchange",
						"_token": "Address of the token"
					},
					"return": "Bool the token is whitelisted on the exchange"
				},
				"canWrapTokenOnWrapper(address,address)": {
					"details": "Checkes whether a token is allowed on a wrapper",
					"params": {
						"_token": "Address of the token",
						"_wrapper": "Address of the token wrapper"
					},
					"return": "Bool the token is whitelisted on the exchange"
				},
				"getCasper()": {
					"details": "Provides the address of the casper contract",
					"return": "Address of the casper contract"
				},
				"getExchangeAdapter(address)": {
					"details": "Provides the address of the exchange adapter",
					"params": {
						"_exchange": "Address of the exchange"
					},
					"return": "Address of the adapter"
				},
				"getSigVerifier()": {
					"details": "Provides the address of the signature verifier",
					"return": "Address of the verifier"
				},
				"isAuthority(address)": {
					"details": "Provides whether an address is an authority",
					"params": {
						"_authority": "Address of the target authority"
					},
					"return": "Bool is whitelisted"
				},
				"isCasperInitialized()": {
					"details": "Checkes whether casper has been inizialized",
					"return": "Bool the casper contract has been initialized"
				},
				"isMethodAllowed(bytes4,address)": {
					"details": "Checkes whether a method is allowed on an exchange",
					"params": {
						"_adapter": "Address of the exchange",
						"_method": "Bytes of the function signature"
					},
					"return": "Bool the method is allowed"
				},
				"isWhitelistedAsset(address)": {
					"details": "Provides whether an asset is whitelisted",
					"params": {
						"_asset": "Address of the target asset"
					},
					"return": "Bool is whitelisted"
				},
				"isWhitelistedExchange(address)": {
					"details": "Provides whether an exchange is whitelisted",
					"params": {
						"_exchange": "Address of the target exchange"
					},
					"return": "Bool is whitelisted"
				},
				"isWhitelistedProxy(address)": {
					"details": "Provides whether a proxy is whitelisted",
					"params": {
						"_tokenTransferProxy": "Address of the proxy"
					},
					"return": "Bool is whitelisted"
				},
				"isWhitelistedWrapper(address)": {
					"details": "Provides whether a token wrapper is whitelisted",
					"params": {
						"_wrapper": "Address of the target exchange"
					},
					"return": "Bool is whitelisted"
				},
				"setAuthority(address,bool)": {
					"details": "Allows the owner to whitelist an authority",
					"params": {
						"_authority": "Address of the authority",
						"_isWhitelisted": "Bool whitelisted"
					}
				},
				"setCasper(address)": {
					"details": "Allows the owner to set the casper contract",
					"params": {
						"_casper": "Address of the casper contract"
					}
				},
				"setExchangeAdapter(address,address)": {
					"details": "Allows the owner to associate an exchange to its adapter",
					"params": {
						"_adapter": "Address of the adapter",
						"_exchange": "Address of the exchange"
					}
				},
				"setExchangeEventful(address)": {
					"details": "Allows the owner to set the exchange eventful",
					"params": {
						"_exchangeEventful": "Address of the exchange logs contract"
					}
				},
				"setSignatureVerifier(address)": {
					"details": "Allows the owner to set the signature verifier",
					"params": {
						"_sigVerifier": "Address of the verifier contract"
					}
				},
				"setWhitelister(address,bool)": {
					"details": "Allows the owner to whitelist a whitelister",
					"params": {
						"_isWhitelisted": "Bool whitelisted",
						"_whitelister": "Address of the whitelister"
					}
				},
				"whitelistAsset(address,bool)": {
					"details": "Allows a whitelister to whitelist an asset",
					"params": {
						"_asset": "Address of the token",
						"_isWhitelisted": "Bool whitelisted"
					}
				},
				"whitelistAssetOnExchange(address,address,bool)": {
					"details": "Allows a whitelister to enable trading on a particular exchange",
					"params": {
						"_asset": "Address of the token",
						"_exchange": "Address of the exchange",
						"_isWhitelisted": "Bool whitelisted"
					}
				},
				"whitelistExchange(address,bool)": {
					"details": "Allows a whitelister to whitelist an exchange",
					"params": {
						"_exchange": "Address of the target exchange",
						"_isWhitelisted": "Bool whitelisted"
					}
				},
				"whitelistMethod(bytes4,address,bool)": {
					"details": "Allows an admin to whitelist a factory",
					"params": {
						"_isWhitelisted": "Bool whitelisted",
						"_method": "Hex of the function ABI"
					}
				},
				"whitelistTokenOnWrapper(address,address,bool)": {
					"details": "Allows a whitelister to enable assiciate wrappers to a token",
					"params": {
						"_isWhitelisted": "Bool whitelisted",
						"_token": "Address of the token",
						"_wrapper": "Address of the exchange"
					}
				},
				"whitelistTokenTransferProxy(address,bool)": {
					"details": "Allows a whitelister to whitelist a tokenTransferProxy",
					"params": {
						"_isWhitelisted": "Bool whitelisted",
						"_tokenTransferProxy": "Address of the proxy"
					}
				},
				"whitelistWrapper(address,bool)": {
					"details": "Allows a whitelister to whitelist an token wrapper",
					"params": {
						"_isWhitelisted": "Bool whitelisted",
						"_wrapper": "Address of the target token wrapper"
					}
				}
			},
			"title": "Exchanges Authority - A helper contract for the exchange adapters."
		},
		"evm": {
			"bytecode": {
				"linkReferences": {},
				"object": "0x608060405260008054600160a060020a03191633179055611512806100256000396000f3fe60806040526004361061017f5763ffffffff7c010000000000000000000000000000000000000000000000000000000060003504166313af403581146101845780631a68f034146101b95780632314d79c146101e25780632330f247146102135780633bd89497146102465780633f7532e214610281578063418a56e4146102b4578063485ff697146102f95780634da07da31461032c57806358c860f9146103675780635b28556d1461039a5780635e5c06e2146103af5780637ecf2c2f146104055780638da5cb5b14610448578063967ff23e1461045d5780639aa4d0a01461049d578063a3254102146104d0578063ab1dc4271461050b578063abda23711461053e578063b191f13b14610583578063b5f0d35c146105b6578063bdcc542f146105f1578063c4ef5c851461062c578063c91b014914610667578063cba91dd2146106a2578063ccbff979146106dd578063e08a660514610767578063f1915b171461079a578063f3229cda146107d5578063fb34c29014610808575b600080fd5b34801561019057600080fd5b506101b7600480360360208110156101a757600080fd5b5035600160a060020a0316610853565b005b3480156101c557600080fd5b506101ce6108cd565b604080519115158252519081900360200190f35b3480156101ee57600080fd5b506101f76108ee565b60408051600160a060020a039092168252519081900360200190f35b34801561021f57600080fd5b506101ce6004803603602081101561023657600080fd5b5035600160a060020a03166108fd565b34801561025257600080fd5b506101b76004803603604081101561026957600080fd5b50600160a060020a0381351690602001351515610930565b34801561028d57600080fd5b506101b7600480360360208110156102a457600080fd5b5035600160a060020a0316610a17565b3480156102c057600080fd5b506101b7600480360360608110156102d757600080fd5b50600160a060020a038135811691602081013590911690604001351515610a94565b34801561030557600080fd5b506101f76004803603602081101561031c57600080fd5b5035600160a060020a0316610b2a565b34801561033857600080fd5b506101ce6004803603604081101561034f57600080fd5b50600160a060020a0381358116916020013516610b48565b34801561037357600080fd5b506101ce6004803603602081101561038a57600080fd5b5035600160a060020a0316610b77565b3480156103a657600080fd5b506101f7610bac565b3480156103bb57600080fd5b506103e2600480360360208110156103d257600080fd5b5035600160a060020a0316610bbb565b60408051600160a060020a03909316835290151560208301528051918290030190f35b34801561041157600080fd5b506101ce6004803603604081101561042857600080fd5b508035600160e060020a0319169060200135600160a060020a0316610be2565b34801561045457600080fd5b506101f7610c16565b34801561046957600080fd5b50610472610c25565b60408051600160a060020a039485168152928416602084015292168183015290519081900360600190f35b3480156104a957600080fd5b506101ce600480360360208110156104c057600080fd5b5035600160a060020a0316610c42565b3480156104dc57600080fd5b506101b7600480360360408110156104f357600080fd5b50600160a060020a0381351690602001351515610c73565b34801561051757600080fd5b506101ce6004803603602081101561052e57600080fd5b5035600160a060020a0316610d54565b34801561054a57600080fd5b506101b76004803603606081101561056157600080fd5b50600160a060020a038135811691602081013590911690604001351515610d86565b34801561058f57600080fd5b506101b7600480360360208110156105a657600080fd5b5035600160a060020a0316610e1c565b3480156105c257600080fd5b506101b7600480360360408110156105d957600080fd5b50600160a060020a0381351690602001351515610e83565b3480156105fd57600080fd5b506101b76004803603604081101561061457600080fd5b50600160a060020a0381351690602001351515610ea8565b34801561063857600080fd5b506101b76004803603604081101561064f57600080fd5b50600160a060020a0381358116916020013516610f91565b34801561067357600080fd5b506101b76004803603604081101561068a57600080fd5b50600160a060020a0381351690602001351515610fef565b3480156106ae57600080fd5b506101b7600480360360408110156106c557600080fd5b50600160a060020a0381351690602001351515611010565b3480156106e957600080fd5b506106f26110f3565b6040805160208082528351818301528351919283929083019185019080838360005b8381101561072c578181015183820152602001610714565b50505050905090810190601f1680156107595780820380516001836020036101000a031916815260200191505b509250505060405180910390f35b34801561077357600080fd5b506101b76004803603602081101561078a57600080fd5b5035600160a060020a0316611185565b3480156107a657600080fd5b506101ce600480360360408110156107bd57600080fd5b50600160a060020a03813581169160200135166111ec565b3480156107e157600080fd5b506101ce600480360360208110156107f857600080fd5b5035600160a060020a031661121b565b34801561081457600080fd5b506101b76004803603606081101561082b57600080fd5b50600160e060020a031981351690600160a060020a036020820135169060400135151561124f565b600054600160a060020a0316331461086a57600080fd5b600160a060020a038116151561087f57600080fd5b60008054600160a060020a031916600160a060020a0383811691821780845560405192939116917f70aea8d848e8a90fb7661b227dc522eb6395c3dac71b63cb59edd5c9899b23649190a350565b600354600160a060020a031660009081526004602052604090205460ff1690565b600354600160a060020a031690565b600160a060020a03166000908152600b602090815260408083206001808552019091529020546301000000900460ff1690565b610939336112ed565b151561094457600080fd5b600160a060020a038083166000818152600b60209081526040808320805487151560a060020a810260a060020a60ff0219600160a060020a0319938416891716178355808652600192830185528386208054640100000000830264ff000000001990911617905583518086018552878152600a8054948501815590965294516000805160206114c78339815191529092018054929097169116179094558351918252925191927f7aef30a25ce3716a35bed040cbe56c5c3634c99fd57f50fd37a8b9187af04c9d92918290030190a25050565b600054600160a060020a03163314610a2e57600080fd5b60038054600160a060020a031916600160a060020a038381169182178355600091825260046020526040808320805460ff19166001179055925492519216917ff62b7326bb5f6084a70482a099d3ded86de8cfbbfcea28e4f5b04ad693bf55ce9190a250565b600054600160a060020a0316331480610ab15750610ab1336112ed565b1515610abc57600080fd5b600160a060020a03828116600090815260086020908152604080832093871680845293825291829020805460ff1916851515908117909155825190815291517fb4e51190ac09d88100031de9d538eda33e031ff4ea0598f973dcb1531ce12eb19281900390910190a2505050565b600160a060020a039081166000908152600560205260409020541690565b600160a060020a0380821660009081526008602090815260408083209386168352929052205460ff1692915050565b600160a060020a03166000908152600b6020908152604080832060018085520190915290205465010000000000900460ff1690565b600254600160a060020a031690565b600b60205260009081526040902054600160a060020a0381169060a060020a900460ff1682565b600160a060020a03166000908152600660209081526040808320600160e060020a0319949094168352929052205460ff1690565b600054600160a060020a031681565b600154600254600354600160a060020a0392831692918216911683565b600160a060020a03166000908152600b60209081526040808320600180855201909152902054610100900460ff1690565b610c7c336112ed565b1515610c8757600080fd5b600160a060020a038083166000818152600b60209081526040808320805487151560a060020a810260a060020a60ff0219600160a060020a0319938416891716178355808652600192830185528386208054610100830261ff001990911617905583518086018552878152600a8054948501815590965294516000805160206114c78339815191529092018054929097169116179094558351918252925191927fb541b66aaab15841e9f8a3a40fc50b777ddd85dc6378cfc6389a973d2117c7d592918290030190a25050565b600160a060020a03166000908152600b6020908152604080832060018085520190915290205462010000900460ff1690565b600054600160a060020a0316331480610da35750610da3336112ed565b1515610dae57600080fd5b600160a060020a03828116600090815260076020908152604080832093871680845293825291829020805460ff1916851515908117909155825190815291517fb4e51190ac09d88100031de9d538eda33e031ff4ea0598f973dcb1531ce12eb19281900390910190a2505050565b600054600160a060020a03163314610e3357600080fd5b60018054600160a060020a031916600160a060020a0383811691909117918290556040519116907f357d1ba45e9ef3fb937f4b33a26a6efed1b2f40114460d16fbfce82aca41575590600090a250565b600054600160a060020a03163314610e9a57600080fd5b610ea48282611319565b5050565b610eb1336112ed565b1515610ebc57600080fd5b600160a060020a038083166000818152600b60209081526040808320805487151560a060020a810260a060020a60ff0219600160a060020a031993841689171617835580865260019283018552838620805465010000000000830265ff00000000001990911617905583518086018552878152600a8054948501815590965294516000805160206114c78339815191529092018054929097169116179094558351918252925191927f3f3eed7eaae83dc29780651cd8137dff8325c81eea4c1091ac034a5572e1e2ef92918290030190a25050565b600054600160a060020a03163314610fa857600080fd5b600160a060020a038281169082161415610fc157600080fd5b600160a060020a0391821660009081526005602052604090208054600160a060020a03191691909216179055565b600054600160a060020a0316331461100657600080fd5b610ea48282611408565b611019336112ed565b151561102457600080fd5b600160a060020a038083166000818152600b60209081526040808320805487151560a060020a810260a060020a60ff0219600160a060020a031993841689171617835580865260019283018552838620805462010000830262ff00001990911617905583518086018552878152600a8054948501815590965294516000805160206114c78339815191529092018054929097169116179094558351918252925191927fb4e51190ac09d88100031de9d538eda33e031ff4ea0598f973dcb1531ce12eb192918290030190a25050565b60098054604080516020601f6002600019610100600188161502019095169490940493840181900481028201810190925282815291839183018282801561117b5780601f106111505761010080835404028352916020019161117b565b820191906000526020600020905b81548152906001019060200180831161115e57829003601f168201915b5050505050905081565b600054600160a060020a0316331461119c57600080fd5b60028054600160a060020a031916600160a060020a0383811691909117918290556040519116907f95dcb20e52ed37833185c8b850bf9fa7990bdb0f232209c82b0a97a0a3a602e190600090a250565b600160a060020a0380821660009081526007602090815260408083209386168352929052205460ff1692915050565b600160a060020a03166000908152600b60209081526040808320600180855201909152902054640100000000900460ff1690565b600054600160a060020a031633148061126c575061126c336112ed565b151561127757600080fd5b600160a060020a0382166000818152600660209081526040808320600160e060020a0319881680855290835292819020805460ff1916861515908117909155815190815290517f3f8a1234a535cf651c4bcc3d4c56b68d7ff3264d0c4c8a3675245853f7851a11929181900390910190a3505050565b600160a060020a03166000908152600b6020908152604080832060018085520190915290205460ff1690565b600160a060020a0382166000818152600b602090815260408083208054600160a060020a03191690941760a060020a60ff02191660a060020a86151590810291909117855580845260019094019091529020805463ff0000001916630100000090920291909117905561138c8282611408565b60408051602081018252600160a060020a03848116808352600a8054600181018255600091825293516000805160206114c78339815191529094018054600160a060020a031916949093169390931790915591517f17898fd7375ca5152626d6fdd4ceb2bce6cc033c9b61e254dd0087d5f8b474309190a25050565b600160a060020a038083166000818152600b60209081526040808320805487151560a060020a810260a060020a60ff0219600160a060020a031993841689171617835580865260019283018552838620805460ff1916909117905582519384018352858452600a80549283018155855292516000805160206114c7833981519152909101805491909616921691909117909355915190917f0a9327c1e2b316c1e4412bc43a5bc2b0c629ecde4f1c9e21911d02ac8b3ad42d91a2505056fec65a7bb8d6351c1cf70c95a316cc6a92839c986682d98bc35f958f4883f9d2a8a165627a7a7230582032a454b0474fb87e231d15fc7ac10059c51864e0ea82582b5f42e17f54cd36d30029",
				"opcodes": "PUSH1 0x80 PUSH1 0x40 MSTORE PUSH1 0x0 DUP1 SLOAD PUSH1 0x1 PUSH1 0xA0 PUSH1 0x2 EXP SUB NOT AND CALLER OR SWAP1 SSTORE PUSH2 0x1512 DUP1 PUSH2 0x25 PUSH1 0x0 CODECOPY PUSH1 0x0 RETURN INVALID PUSH1 0x80 PUSH1 0x40 MSTORE PUSH1 0x4 CALLDATASIZE LT PUSH2 0x17F JUMPI PUSH4 0xFFFFFFFF PUSH29 0x100000000000000000000000000000000000000000000000000000000 PUSH1 0x0 CALLDATALOAD DIV AND PUSH4 0x13AF4035 DUP2 EQ PUSH2 0x184 JUMPI DUP1 PUSH4 0x1A68F034 EQ PUSH2 0x1B9 JUMPI DUP1 PUSH4 0x2314D79C EQ PUSH2 0x1E2 JUMPI DUP1 PUSH4 0x2330F247 EQ PUSH2 0x213 JUMPI DUP1 PUSH4 0x3BD89497 EQ PUSH2 0x246 JUMPI DUP1 PUSH4 0x3F7532E2 EQ PUSH2 0x281 JUMPI DUP1 PUSH4 0x418A56E4 EQ PUSH2 0x2B4 JUMPI DUP1 PUSH4 0x485FF697 EQ PUSH2 0x2F9 JUMPI DUP1 PUSH4 0x4DA07DA3 EQ PUSH2 0x32C JUMPI DUP1 PUSH4 0x58C860F9 EQ PUSH2 0x367 JUMPI DUP1 PUSH4 0x5B28556D EQ PUSH2 0x39A JUMPI DUP1 PUSH4 0x5E5C06E2 EQ PUSH2 0x3AF JUMPI DUP1 PUSH4 0x7ECF2C2F EQ PUSH2 0x405 JUMPI DUP1 PUSH4 0x8DA5CB5B EQ PUSH2 0x448 JUMPI DUP1 PUSH4 0x967FF23E EQ PUSH2 0x45D JUMPI DUP1 PUSH4 0x9AA4D0A0 EQ PUSH2 0x49D JUMPI DUP1 PUSH4 0xA3254102 EQ PUSH2 0x4D0 JUMPI DUP1 PUSH4 0xAB1DC427 EQ PUSH2 0x50B JUMPI DUP1 PUSH4 0xABDA2371 EQ PUSH2 0x53E JUMPI DUP1 PUSH4 0xB191F13B EQ PUSH2 0x583 JUMPI DUP1 PUSH4 0xB5F0D35C EQ PUSH2 0x5B6 JUMPI DUP1 PUSH4 0xBDCC542F EQ PUSH2 0x5F1 JUMPI DUP1 PUSH4 0xC4EF5C85 EQ PUSH2 0x62C JUMPI DUP1 PUSH4 0xC91B0149 EQ PUSH2 0x667 JUMPI DUP1 PUSH4 0xCBA91DD2 EQ PUSH2 0x6A2 JUMPI DUP1 PUSH4 0xCCBFF979 EQ PUSH2 0x6DD JUMPI DUP1 PUSH4 0xE08A6605 EQ PUSH2 0x767 JUMPI DUP1 PUSH4 0xF1915B17 EQ PUSH2 0x79A JUMPI DUP1 PUSH4 0xF3229CDA EQ PUSH2 0x7D5 JUMPI DUP1 PUSH4 0xFB34C290 EQ PUSH2 0x808 JUMPI JUMPDEST PUSH1 0x0 DUP1 REVERT JUMPDEST CALLVALUE DUP1 ISZERO PUSH2 0x190 JUMPI PUSH1 0x0 DUP1 REVERT JUMPDEST POP PUSH2 0x1B7 PUSH1 0x4 DUP1 CALLDATASIZE SUB PUSH1 0x20 DUP2 LT ISZERO PUSH2 0x1A7 JUMPI PUSH1 0x0 DUP1 REVERT JUMPDEST POP CALLDATALOAD PUSH1 0x1 PUSH1 0xA0 PUSH1 0x2 EXP SUB AND PUSH2 0x853 JUMP JUMPDEST STOP JUMPDEST CALLVALUE DUP1 ISZERO PUSH2 0x1C5 JUMPI PUSH1 0x0 DUP1 REVERT JUMPDEST POP PUSH2 0x1CE PUSH2 0x8CD JUMP JUMPDEST PUSH1 0x40 DUP1 MLOAD SWAP2 ISZERO ISZERO DUP3 MSTORE MLOAD SWAP1 DUP2 SWAP1 SUB PUSH1 0x20 ADD SWAP1 RETURN JUMPDEST CALLVALUE DUP1 ISZERO PUSH2 0x1EE JUMPI PUSH1 0x0 DUP1 REVERT JUMPDEST POP PUSH2 0x1F7 PUSH2 0x8EE JUMP JUMPDEST PUSH1 0x40 DUP1 MLOAD PUSH1 0x1 PUSH1 0xA0 PUSH1 0x2 EXP SUB SWAP1 SWAP3 AND DUP3 MSTORE MLOAD SWAP1 DUP2 SWAP1 SUB PUSH1 0x20 ADD SWAP1 RETURN JUMPDEST CALLVALUE DUP1 ISZERO PUSH2 0x21F JUMPI PUSH1 0x0 DUP1 REVERT JUMPDEST POP PUSH2 0x1CE PUSH1 0x4 DUP1 CALLDATASIZE SUB PUSH1 0x20 DUP2 LT ISZERO PUSH2 0x236 JUMPI PUSH1 0x0 DUP1 REVERT JUMPDEST POP CALLDATALOAD PUSH1 0x1 PUSH1 0xA0 PUSH1 0x2 EXP SUB AND PUSH2 0x8FD JUMP JUMPDEST CALLVALUE DUP1 ISZERO PUSH2 0x252 JUMPI PUSH1 0x0 DUP1 REVERT JUMPDEST POP PUSH2 0x1B7 PUSH1 0x4 DUP1 CALLDATASIZE SUB PUSH1 0x40 DUP2 LT ISZERO PUSH2 0x269 JUMPI PUSH1 0x0 DUP1 REVERT JUMPDEST POP PUSH1 0x1 PUSH1 0xA0 PUSH1 0x2 EXP SUB DUP2 CALLDATALOAD AND SWAP1 PUSH1 0x20 ADD CALLDATALOAD ISZERO ISZERO PUSH2 0x930 JUMP JUMPDEST CALLVALUE DUP1 ISZERO PUSH2 0x28D JUMPI PUSH1 0x0 DUP1 REVERT JUMPDEST POP PUSH2 0x1B7 PUSH1 0x4 DUP1 CALLDATASIZE SUB PUSH1 0x20 DUP2 LT ISZERO PUSH2 0x2A4 JUMPI PUSH1 0x0 DUP1 REVERT JUMPDEST POP CALLDATALOAD PUSH1 0x1 PUSH1 0xA0 PUSH1 0x2 EXP SUB AND PUSH2 0xA17 JUMP JUMPDEST CALLVALUE DUP1 ISZERO PUSH2 0x2C0 JUMPI PUSH1 0x0 DUP1 REVERT JUMPDEST POP PUSH2 0x1B7 PUSH1 0x4 DUP1 CALLDATASIZE SUB PUSH1 0x60 DUP2 LT ISZERO PUSH2 0x2D7 JUMPI PUSH1 0x0 DUP1 REVERT JUMPDEST POP PUSH1 0x1 PUSH1 0xA0 PUSH1 0x2 EXP SUB DUP2 CALLDATALOAD DUP2 AND SWAP2 PUSH1 0x20 DUP2 ADD CALLDATALOAD SWAP1 SWAP2 AND SWAP1 PUSH1 0x40 ADD CALLDATALOAD ISZERO ISZERO PUSH2 0xA94 JUMP JUMPDEST CALLVALUE DUP1 ISZERO PUSH2 0x305 JUMPI PUSH1 0x0 DUP1 REVERT JUMPDEST POP PUSH2 0x1F7 PUSH1 0x4 DUP1 CALLDATASIZE SUB PUSH1 0x20 DUP2 LT ISZERO PUSH2 0x31C JUMPI PUSH1 0x0 DUP1 REVERT JUMPDEST POP CALLDATALOAD PUSH1 0x1 PUSH1 0xA0 PUSH1 0x2 EXP SUB AND PUSH2 0xB2A JUMP JUMPDEST CALLVALUE DUP1 ISZERO PUSH2 0x338 JUMPI PUSH1 0x0 DUP1 REVERT JUMPDEST POP PUSH2 0x1CE PUSH1 0x4 DUP1 CALLDATASIZE SUB PUSH1 0x40 DUP2 LT ISZERO PUSH2 0x34F JUMPI PUSH1 0x0 DUP1 REVERT JUMPDEST POP PUSH1 0x1 PUSH1 0xA0 PUSH1 0x2 EXP SUB DUP2 CALLDATALOAD DUP2 AND SWAP2 PUSH1 0x20 ADD CALLDATALOAD AND PUSH2 0xB48 JUMP JUMPDEST CALLVALUE DUP1 ISZERO PUSH2 0x373 JUMPI PUSH1 0x0 DUP1 REVERT JUMPDEST POP PUSH2 0x1CE PUSH1 0x4 DUP1 CALLDATASIZE SUB PUSH1 0x20 DUP2 LT ISZERO PUSH2 0x38A JUMPI PUSH1 0x0 DUP1 REVERT JUMPDEST POP CALLDATALOAD PUSH1 0x1 PUSH1 0xA0 PUSH1 0x2 EXP SUB AND PUSH2 0xB77 JUMP JUMPDEST CALLVALUE DUP1 ISZERO PUSH2 0x3A6 JUMPI PUSH1 0x0 DUP1 REVERT JUMPDEST POP PUSH2 0x1F7 PUSH2 0xBAC JUMP JUMPDEST CALLVALUE DUP1 ISZERO PUSH2 0x3BB JUMPI PUSH1 0x0 DUP1 REVERT JUMPDEST POP PUSH2 0x3E2 PUSH1 0x4 DUP1 CALLDATASIZE SUB PUSH1 0x20 DUP2 LT ISZERO PUSH2 0x3D2 JUMPI PUSH1 0x0 DUP1 REVERT JUMPDEST POP CALLDATALOAD PUSH1 0x1 PUSH1 0xA0 PUSH1 0x2 EXP SUB AND PUSH2 0xBBB JUMP JUMPDEST PUSH1 0x40 DUP1 MLOAD PUSH1 0x1 PUSH1 0xA0 PUSH1 0x2 EXP SUB SWAP1 SWAP4 AND DUP4 MSTORE SWAP1 ISZERO ISZERO PUSH1 0x20 DUP4 ADD MSTORE DUP1 MLOAD SWAP2 DUP3 SWAP1 SUB ADD SWAP1 RETURN JUMPDEST CALLVALUE DUP1 ISZERO PUSH2 0x411 JUMPI PUSH1 0x0 DUP1 REVERT JUMPDEST POP PUSH2 0x1CE PUSH1 0x4 DUP1 CALLDATASIZE SUB PUSH1 0x40 DUP2 LT ISZERO PUSH2 0x428 JUMPI PUSH1 0x0 DUP1 REVERT JUMPDEST POP DUP1 CALLDATALOAD PUSH1 0x1 PUSH1 0xE0 PUSH1 0x2 EXP SUB NOT AND SWAP1 PUSH1 0x20 ADD CALLDATALOAD PUSH1 0x1 PUSH1 0xA0 PUSH1 0x2 EXP SUB AND PUSH2 0xBE2 JUMP JUMPDEST CALLVALUE DUP1 ISZERO PUSH2 0x454 JUMPI PUSH1 0x0 DUP1 REVERT JUMPDEST POP PUSH2 0x1F7 PUSH2 0xC16 JUMP JUMPDEST CALLVALUE DUP1 ISZERO PUSH2 0x469 JUMPI PUSH1 0x0 DUP1 REVERT JUMPDEST POP PUSH2 0x472 PUSH2 0xC25 JUMP JUMPDEST PUSH1 0x40 DUP1 MLOAD PUSH1 0x1 PUSH1 0xA0 PUSH1 0x2 EXP SUB SWAP5 DUP6 AND DUP2 MSTORE SWAP3 DUP5 AND PUSH1 0x20 DUP5 ADD MSTORE SWAP3 AND DUP2 DUP4 ADD MSTORE SWAP1 MLOAD SWAP1 DUP2 SWAP1 SUB PUSH1 0x60 ADD SWAP1 RETURN JUMPDEST CALLVALUE DUP1 ISZERO PUSH2 0x4A9 JUMPI PUSH1 0x0 DUP1 REVERT JUMPDEST POP PUSH2 0x1CE PUSH1 0x4 DUP1 CALLDATASIZE SUB PUSH1 0x20 DUP2 LT ISZERO PUSH2 0x4C0 JUMPI PUSH1 0x0 DUP1 REVERT JUMPDEST POP CALLDATALOAD PUSH1 0x1 PUSH1 0xA0 PUSH1 0x2 EXP SUB AND PUSH2 0xC42 JUMP JUMPDEST CALLVALUE DUP1 ISZERO PUSH2 0x4DC JUMPI PUSH1 0x0 DUP1 REVERT JUMPDEST POP PUSH2 0x1B7 PUSH1 0x4 DUP1 CALLDATASIZE SUB PUSH1 0x40 DUP2 LT ISZERO PUSH2 0x4F3 JUMPI PUSH1 0x0 DUP1 REVERT JUMPDEST POP PUSH1 0x1 PUSH1 0xA0 PUSH1 0x2 EXP SUB DUP2 CALLDATALOAD AND SWAP1 PUSH1 0x20 ADD CALLDATALOAD ISZERO ISZERO PUSH2 0xC73 JUMP JUMPDEST CALLVALUE DUP1 ISZERO PUSH2 0x517 JUMPI PUSH1 0x0 DUP1 REVERT JUMPDEST POP PUSH2 0x1CE PUSH1 0x4 DUP1 CALLDATASIZE SUB PUSH1 0x20 DUP2 LT ISZERO PUSH2 0x52E JUMPI PUSH1 0x0 DUP1 REVERT JUMPDEST POP CALLDATALOAD PUSH1 0x1 PUSH1 0xA0 PUSH1 0x2 EXP SUB AND PUSH2 0xD54 JUMP JUMPDEST CALLVALUE DUP1 ISZERO PUSH2 0x54A JUMPI PUSH1 0x0 DUP1 REVERT JUMPDEST POP PUSH2 0x1B7 PUSH1 0x4 DUP1 CALLDATASIZE SUB PUSH1 0x60 DUP2 LT ISZERO PUSH2 0x561 JUMPI PUSH1 0x0 DUP1 REVERT JUMPDEST POP PUSH1 0x1 PUSH1 0xA0 PUSH1 0x2 EXP SUB DUP2 CALLDATALOAD DUP2 AND SWAP2 PUSH1 0x20 DUP2 ADD CALLDATALOAD SWAP1 SWAP2 AND SWAP1 PUSH1 0x40 ADD CALLDATALOAD ISZERO ISZERO PUSH2 0xD86 JUMP JUMPDEST CALLVALUE DUP1 ISZERO PUSH2 0x58F JUMPI PUSH1 0x0 DUP1 REVERT JUMPDEST POP PUSH2 0x1B7 PUSH1 0x4 DUP1 CALLDATASIZE SUB PUSH1 0x20 DUP2 LT ISZERO PUSH2 0x5A6 JUMPI PUSH1 0x0 DUP1 REVERT JUMPDEST POP CALLDATALOAD PUSH1 0x1 PUSH1 0xA0 PUSH1 0x2 EXP SUB AND PUSH2 0xE1C JUMP JUMPDEST CALLVALUE DUP1 ISZERO PUSH2 0x5C2 JUMPI PUSH1 0x0 DUP1 REVERT JUMPDEST POP PUSH2 0x1B7 PUSH1 0x4 DUP1 CALLDATASIZE SUB PUSH1 0x40 DUP2 LT ISZERO PUSH2 0x5D9 JUMPI PUSH1 0x0 DUP1 REVERT JUMPDEST POP PUSH1 0x1 PUSH1 0xA0 PUSH1 0x2 EXP SUB DUP2 CALLDATALOAD AND SWAP1 PUSH1 0x20 ADD CALLDATALOAD ISZERO ISZERO PUSH2 0xE83 JUMP JUMPDEST CALLVALUE DUP1 ISZERO PUSH2 0x5FD JUMPI PUSH1 0x0 DUP1 REVERT JUMPDEST POP PUSH2 0x1B7 PUSH1 0x4 DUP1 CALLDATASIZE SUB PUSH1 0x40 DUP2 LT ISZERO PUSH2 0x614 JUMPI PUSH1 0x0 DUP1 REVERT JUMPDEST POP PUSH1 0x1 PUSH1 0xA0 PUSH1 0x2 EXP SUB DUP2 CALLDATALOAD AND SWAP1 PUSH1 0x20 ADD CALLDATALOAD ISZERO ISZERO PUSH2 0xEA8 JUMP JUMPDEST CALLVALUE DUP1 ISZERO PUSH2 0x638 JUMPI PUSH1 0x0 DUP1 REVERT JUMPDEST POP PUSH2 0x1B7 PUSH1 0x4 DUP1 CALLDATASIZE SUB PUSH1 0x40 DUP2 LT ISZERO PUSH2 0x64F JUMPI PUSH1 0x0 DUP1 REVERT JUMPDEST POP PUSH1 0x1 PUSH1 0xA0 PUSH1 0x2 EXP SUB DUP2 CALLDATALOAD DUP2 AND SWAP2 PUSH1 0x20 ADD CALLDATALOAD AND PUSH2 0xF91 JUMP JUMPDEST CALLVALUE DUP1 ISZERO PUSH2 0x673 JUMPI PUSH1 0x0 DUP1 REVERT JUMPDEST POP PUSH2 0x1B7 PUSH1 0x4 DUP1 CALLDATASIZE SUB PUSH1 0x40 DUP2 LT ISZERO PUSH2 0x68A JUMPI PUSH1 0x0 DUP1 REVERT JUMPDEST POP PUSH1 0x1 PUSH1 0xA0 PUSH1 0x2 EXP SUB DUP2 CALLDATALOAD AND SWAP1 PUSH1 0x20 ADD CALLDATALOAD ISZERO ISZERO PUSH2 0xFEF JUMP JUMPDEST CALLVALUE DUP1 ISZERO PUSH2 0x6AE JUMPI PUSH1 0x0 DUP1 REVERT JUMPDEST POP PUSH2 0x1B7 PUSH1 0x4 DUP1 CALLDATASIZE SUB PUSH1 0x40 DUP2 LT ISZERO PUSH2 0x6C5 JUMPI PUSH1 0x0 DUP1 REVERT JUMPDEST POP PUSH1 0x1 PUSH1 0xA0 PUSH1 0x2 EXP SUB DUP2 CALLDATALOAD AND SWAP1 PUSH1 0x20 ADD CALLDATALOAD ISZERO ISZERO PUSH2 0x1010 JUMP JUMPDEST CALLVALUE DUP1 ISZERO PUSH2 0x6E9 JUMPI PUSH1 0x0 DUP1 REVERT JUMPDEST POP PUSH2 0x6F2 PUSH2 0x10F3 JUMP JUMPDEST PUSH1 0x40 DUP1 MLOAD PUSH1 0x20 DUP1 DUP3 MSTORE DUP4 MLOAD DUP2 DUP4 ADD MSTORE DUP4 MLOAD SWAP2 SWAP3 DUP4 SWAP3 SWAP1 DUP4 ADD SWAP2 DUP6 ADD SWAP1 DUP1 DUP4 DUP4 PUSH1 0x0 JUMPDEST DUP4 DUP2 LT ISZERO PUSH2 0x72C JUMPI DUP2 DUP2 ADD MLOAD DUP4 DUP3 ADD MSTORE PUSH1 0x20 ADD PUSH2 0x714 JUMP JUMPDEST POP POP POP POP SWAP1 POP SWAP1 DUP2 ADD SWAP1 PUSH1 0x1F AND DUP1 ISZERO PUSH2 0x759 JUMPI DUP1 DUP3 SUB DUP1 MLOAD PUSH1 0x1 DUP4 PUSH1 0x20 SUB PUSH2 0x100 EXP SUB NOT AND DUP2 MSTORE PUSH1 0x20 ADD SWAP2 POP JUMPDEST POP SWAP3 POP POP POP PUSH1 0x40 MLOAD DUP1 SWAP2 SUB SWAP1 RETURN JUMPDEST CALLVALUE DUP1 ISZERO PUSH2 0x773 JUMPI PUSH1 0x0 DUP1 REVERT JUMPDEST POP PUSH2 0x1B7 PUSH1 0x4 DUP1 CALLDATASIZE SUB PUSH1 0x20 DUP2 LT ISZERO PUSH2 0x78A JUMPI PUSH1 0x0 DUP1 REVERT JUMPDEST POP CALLDATALOAD PUSH1 0x1 PUSH1 0xA0 PUSH1 0x2 EXP SUB AND PUSH2 0x1185 JUMP JUMPDEST CALLVALUE DUP1 ISZERO PUSH2 0x7A6 JUMPI PUSH1 0x0 DUP1 REVERT JUMPDEST POP PUSH2 0x1CE PUSH1 0x4 DUP1 CALLDATASIZE SUB PUSH1 0x40 DUP2 LT ISZERO PUSH2 0x7BD JUMPI PUSH1 0x0 DUP1 REVERT JUMPDEST POP PUSH1 0x1 PUSH1 0xA0 PUSH1 0x2 EXP SUB DUP2 CALLDATALOAD DUP2 AND SWAP2 PUSH1 0x20 ADD CALLDATALOAD AND PUSH2 0x11EC JUMP JUMPDEST CALLVALUE DUP1 ISZERO PUSH2 0x7E1 JUMPI PUSH1 0x0 DUP1 REVERT JUMPDEST POP PUSH2 0x1CE PUSH1 0x4 DUP1 CALLDATASIZE SUB PUSH1 0x20 DUP2 LT ISZERO PUSH2 0x7F8 JUMPI PUSH1 0x0 DUP1 REVERT JUMPDEST POP CALLDATALOAD PUSH1 0x1 PUSH1 0xA0 PUSH1 0x2 EXP SUB AND PUSH2 0x121B JUMP JUMPDEST CALLVALUE DUP1 ISZERO PUSH2 0x814 JUMPI PUSH1 0x0 DUP1 REVERT JUMPDEST POP PUSH2 0x1B7 PUSH1 0x4 DUP1 CALLDATASIZE SUB PUSH1 0x60 DUP2 LT ISZERO PUSH2 0x82B JUMPI PUSH1 0x0 DUP1 REVERT JUMPDEST POP PUSH1 0x1 PUSH1 0xE0 PUSH1 0x2 EXP SUB NOT DUP2 CALLDATALOAD AND SWAP1 PUSH1 0x1 PUSH1 0xA0 PUSH1 0x2 EXP SUB PUSH1 0x20 DUP3 ADD CALLDATALOAD AND SWAP1 PUSH1 0x40 ADD CALLDATALOAD ISZERO ISZERO PUSH2 0x124F JUMP JUMPDEST PUSH1 0x0 SLOAD PUSH1 0x1 PUSH1 0xA0 PUSH1 0x2 EXP SUB AND CALLER EQ PUSH2 0x86A JUMPI PUSH1 0x0 DUP1 REVERT JUMPDEST PUSH1 0x1 PUSH1 0xA0 PUSH1 0x2 EXP SUB DUP2 AND ISZERO ISZERO PUSH2 0x87F JUMPI PUSH1 0x0 DUP1 REVERT JUMPDEST PUSH1 0x0 DUP1 SLOAD PUSH1 0x1 PUSH1 0xA0 PUSH1 0x2 EXP SUB NOT AND PUSH1 0x1 PUSH1 0xA0 PUSH1 0x2 EXP SUB DUP4 DUP2 AND SWAP2 DUP3 OR DUP1 DUP5 SSTORE PUSH1 0x40 MLOAD SWAP3 SWAP4 SWAP2 AND SWAP2 PUSH32 0x70AEA8D848E8A90FB7661B227DC522EB6395C3DAC71B63CB59EDD5C9899B2364 SWAP2 SWAP1 LOG3 POP JUMP JUMPDEST PUSH1 0x3 SLOAD PUSH1 0x1 PUSH1 0xA0 PUSH1 0x2 EXP SUB AND PUSH1 0x0 SWAP1 DUP2 MSTORE PUSH1 0x4 PUSH1 0x20 MSTORE PUSH1 0x40 SWAP1 KECCAK256 SLOAD PUSH1 0xFF AND SWAP1 JUMP JUMPDEST PUSH1 0x3 SLOAD PUSH1 0x1 PUSH1 0xA0 PUSH1 0x2 EXP SUB AND SWAP1 JUMP JUMPDEST PUSH1 0x1 PUSH1 0xA0 PUSH1 0x2 EXP SUB AND PUSH1 0x0 SWAP1 DUP2 MSTORE PUSH1 0xB PUSH1 0x20 SWAP1 DUP2 MSTORE PUSH1 0x40 DUP1 DUP4 KECCAK256 PUSH1 0x1 DUP1 DUP6 MSTORE ADD SWAP1 SWAP2 MSTORE SWAP1 KECCAK256 SLOAD PUSH4 0x1000000 SWAP1 DIV PUSH1 0xFF AND SWAP1 JUMP JUMPDEST PUSH2 0x939 CALLER PUSH2 0x12ED JUMP JUMPDEST ISZERO ISZERO PUSH2 0x944 JUMPI PUSH1 0x0 DUP1 REVERT JUMPDEST PUSH1 0x1 PUSH1 0xA0 PUSH1 0x2 EXP SUB DUP1 DUP4 AND PUSH1 0x0 DUP2 DUP2 MSTORE PUSH1 0xB PUSH1 0x20 SWAP1 DUP2 MSTORE PUSH1 0x40 DUP1 DUP4 KECCAK256 DUP1 SLOAD DUP8 ISZERO ISZERO PUSH1 0xA0 PUSH1 0x2 EXP DUP2 MUL PUSH1 0xA0 PUSH1 0x2 EXP PUSH1 0xFF MUL NOT PUSH1 0x1 PUSH1 0xA0 PUSH1 0x2 EXP SUB NOT SWAP4 DUP5 AND DUP10 OR AND OR DUP4 SSTORE DUP1 DUP7 MSTORE PUSH1 0x1 SWAP3 DUP4 ADD DUP6 MSTORE DUP4 DUP7 KECCAK256 DUP1 SLOAD PUSH5 0x100000000 DUP4 MUL PUSH5 0xFF00000000 NOT SWAP1 SWAP2 AND OR SWAP1 SSTORE DUP4 MLOAD DUP1 DUP7 ADD DUP6 MSTORE DUP8 DUP2 MSTORE PUSH1 0xA DUP1 SLOAD SWAP5 DUP6 ADD DUP2 SSTORE SWAP1 SWAP7 MSTORE SWAP5 MLOAD PUSH1 0x0 DUP1 MLOAD PUSH1 0x20 PUSH2 0x14C7 DUP4 CODECOPY DUP2 MLOAD SWAP2 MSTORE SWAP1 SWAP3 ADD DUP1 SLOAD SWAP3 SWAP1 SWAP8 AND SWAP2 AND OR SWAP1 SWAP5 SSTORE DUP4 MLOAD SWAP2 DUP3 MSTORE SWAP3 MLOAD SWAP2 SWAP3 PUSH32 0x7AEF30A25CE3716A35BED040CBE56C5C3634C99FD57F50FD37A8B9187AF04C9D SWAP3 SWAP2 DUP3 SWAP1 SUB ADD SWAP1 LOG2 POP POP JUMP JUMPDEST PUSH1 0x0 SLOAD PUSH1 0x1 PUSH1 0xA0 PUSH1 0x2 EXP SUB AND CALLER EQ PUSH2 0xA2E JUMPI PUSH1 0x0 DUP1 REVERT JUMPDEST PUSH1 0x3 DUP1 SLOAD PUSH1 0x1 PUSH1 0xA0 PUSH1 0x2 EXP SUB NOT AND PUSH1 0x1 PUSH1 0xA0 PUSH1 0x2 EXP SUB DUP4 DUP2 AND SWAP2 DUP3 OR DUP4 SSTORE PUSH1 0x0 SWAP2 DUP3 MSTORE PUSH1 0x4 PUSH1 0x20 MSTORE PUSH1 0x40 DUP1 DUP4 KECCAK256 DUP1 SLOAD PUSH1 0xFF NOT AND PUSH1 0x1 OR SWAP1 SSTORE SWAP3 SLOAD SWAP3 MLOAD SWAP3 AND SWAP2 PUSH32 0xF62B7326BB5F6084A70482A099D3DED86DE8CFBBFCEA28E4F5B04AD693BF55CE SWAP2 SWAP1 LOG2 POP JUMP JUMPDEST PUSH1 0x0 SLOAD PUSH1 0x1 PUSH1 0xA0 PUSH1 0x2 EXP SUB AND CALLER EQ DUP1 PUSH2 0xAB1 JUMPI POP PUSH2 0xAB1 CALLER PUSH2 0x12ED JUMP JUMPDEST ISZERO ISZERO PUSH2 0xABC JUMPI PUSH1 0x0 DUP1 REVERT JUMPDEST PUSH1 0x1 PUSH1 0xA0 PUSH1 0x2 EXP SUB DUP3 DUP2 AND PUSH1 0x0 SWAP1 DUP2 MSTORE PUSH1 0x8 PUSH1 0x20 SWAP1 DUP2 MSTORE PUSH1 0x40 DUP1 DUP4 KECCAK256 SWAP4 DUP8 AND DUP1 DUP5 MSTORE SWAP4 DUP3 MSTORE SWAP2 DUP3 SWAP1 KECCAK256 DUP1 SLOAD PUSH1 0xFF NOT AND DUP6 ISZERO ISZERO SWAP1 DUP2 OR SWAP1 SWAP2 SSTORE DUP3 MLOAD SWAP1 DUP2 MSTORE SWAP2 MLOAD PUSH32 0xB4E51190AC09D88100031DE9D538EDA33E031FF4EA0598F973DCB1531CE12EB1 SWAP3 DUP2 SWAP1 SUB SWAP1 SWAP2 ADD SWAP1 LOG2 POP POP POP JUMP JUMPDEST PUSH1 0x1 PUSH1 0xA0 PUSH1 0x2 EXP SUB SWAP1 DUP2 AND PUSH1 0x0 SWAP1 DUP2 MSTORE PUSH1 0x5 PUSH1 0x20 MSTORE PUSH1 0x40 SWAP1 KECCAK256 SLOAD AND SWAP1 JUMP JUMPDEST PUSH1 0x1 PUSH1 0xA0 PUSH1 0x2 EXP SUB DUP1 DUP3 AND PUSH1 0x0 SWAP1 DUP2 MSTORE PUSH1 0x8 PUSH1 0x20 SWAP1 DUP2 MSTORE PUSH1 0x40 DUP1 DUP4 KECCAK256 SWAP4 DUP7 AND DUP4 MSTORE SWAP3 SWAP1 MSTORE KECCAK256 SLOAD PUSH1 0xFF AND SWAP3 SWAP2 POP POP JUMP JUMPDEST PUSH1 0x1 PUSH1 0xA0 PUSH1 0x2 EXP SUB AND PUSH1 0x0 SWAP1 DUP2 MSTORE PUSH1 0xB PUSH1 0x20 SWAP1 DUP2 MSTORE PUSH1 0x40 DUP1 DUP4 KECCAK256 PUSH1 0x1 DUP1 DUP6 MSTORE ADD SWAP1 SWAP2 MSTORE SWAP1 KECCAK256 SLOAD PUSH6 0x10000000000 SWAP1 DIV PUSH1 0xFF AND SWAP1 JUMP JUMPDEST PUSH1 0x2 SLOAD PUSH1 0x1 PUSH1 0xA0 PUSH1 0x2 EXP SUB AND SWAP1 JUMP JUMPDEST PUSH1 0xB PUSH1 0x20 MSTORE PUSH1 0x0 SWAP1 DUP2 MSTORE PUSH1 0x40 SWAP1 KECCAK256 SLOAD PUSH1 0x1 PUSH1 0xA0 PUSH1 0x2 EXP SUB DUP2 AND SWAP1 PUSH1 0xA0 PUSH1 0x2 EXP SWAP1 DIV PUSH1 0xFF AND DUP3 JUMP JUMPDEST PUSH1 0x1 PUSH1 0xA0 PUSH1 0x2 EXP SUB AND PUSH1 0x0 SWAP1 DUP2 MSTORE PUSH1 0x6 PUSH1 0x20 SWAP1 DUP2 MSTORE PUSH1 0x40 DUP1 DUP4 KECCAK256 PUSH1 0x1 PUSH1 0xE0 PUSH1 0x2 EXP SUB NOT SWAP5 SWAP1 SWAP5 AND DUP4 MSTORE SWAP3 SWAP1 MSTORE KECCAK256 SLOAD PUSH1 0xFF AND SWAP1 JUMP JUMPDEST PUSH1 0x0 SLOAD PUSH1 0x1 PUSH1 0xA0 PUSH1 0x2 EXP SUB AND DUP2 JUMP JUMPDEST PUSH1 0x1 SLOAD PUSH1 0x2 SLOAD PUSH1 0x3 SLOAD PUSH1 0x1 PUSH1 0xA0 PUSH1 0x2 EXP SUB SWAP3 DUP4 AND SWAP3 SWAP2 DUP3 AND SWAP2 AND DUP4 JUMP JUMPDEST PUSH1 0x1 PUSH1 0xA0 PUSH1 0x2 EXP SUB AND PUSH1 0x0 SWAP1 DUP2 MSTORE PUSH1 0xB PUSH1 0x20 SWAP1 DUP2 MSTORE PUSH1 0x40 DUP1 DUP4 KECCAK256 PUSH1 0x1 DUP1 DUP6 MSTORE ADD SWAP1 SWAP2 MSTORE SWAP1 KECCAK256 SLOAD PUSH2 0x100 SWAP1 DIV PUSH1 0xFF AND SWAP1 JUMP JUMPDEST PUSH2 0xC7C CALLER PUSH2 0x12ED JUMP JUMPDEST ISZERO ISZERO PUSH2 0xC87 JUMPI PUSH1 0x0 DUP1 REVERT JUMPDEST PUSH1 0x1 PUSH1 0xA0 PUSH1 0x2 EXP SUB DUP1 DUP4 AND PUSH1 0x0 DUP2 DUP2 MSTORE PUSH1 0xB PUSH1 0x20 SWAP1 DUP2 MSTORE PUSH1 0x40 DUP1 DUP4 KECCAK256 DUP1 SLOAD DUP8 ISZERO ISZERO PUSH1 0xA0 PUSH1 0x2 EXP DUP2 MUL PUSH1 0xA0 PUSH1 0x2 EXP PUSH1 0xFF MUL NOT PUSH1 0x1 PUSH1 0xA0 PUSH1 0x2 EXP SUB NOT SWAP4 DUP5 AND DUP10 OR AND OR DUP4 SSTORE DUP1 DUP7 MSTORE PUSH1 0x1 SWAP3 DUP4 ADD DUP6 MSTORE DUP4 DUP7 KECCAK256 DUP1 SLOAD PUSH2 0x100 DUP4 MUL PUSH2 0xFF00 NOT SWAP1 SWAP2 AND OR SWAP1 SSTORE DUP4 MLOAD DUP1 DUP7 ADD DUP6 MSTORE DUP8 DUP2 MSTORE PUSH1 0xA DUP1 SLOAD SWAP5 DUP6 ADD DUP2 SSTORE SWAP1 SWAP7 MSTORE SWAP5 MLOAD PUSH1 0x0 DUP1 MLOAD PUSH1 0x20 PUSH2 0x14C7 DUP4 CODECOPY DUP2 MLOAD SWAP2 MSTORE SWAP1 SWAP3 ADD DUP1 SLOAD SWAP3 SWAP1 SWAP8 AND SWAP2 AND OR SWAP1 SWAP5 SSTORE DUP4 MLOAD SWAP2 DUP3 MSTORE SWAP3 MLOAD SWAP2 SWAP3 PUSH32 0xB541B66AAAB15841E9F8A3A40FC50B777DDD85DC6378CFC6389A973D2117C7D5 SWAP3 SWAP2 DUP3 SWAP1 SUB ADD SWAP1 LOG2 POP POP JUMP JUMPDEST PUSH1 0x1 PUSH1 0xA0 PUSH1 0x2 EXP SUB AND PUSH1 0x0 SWAP1 DUP2 MSTORE PUSH1 0xB PUSH1 0x20 SWAP1 DUP2 MSTORE PUSH1 0x40 DUP1 DUP4 KECCAK256 PUSH1 0x1 DUP1 DUP6 MSTORE ADD SWAP1 SWAP2 MSTORE SWAP1 KECCAK256 SLOAD PUSH3 0x10000 SWAP1 DIV PUSH1 0xFF AND SWAP1 JUMP JUMPDEST PUSH1 0x0 SLOAD PUSH1 0x1 PUSH1 0xA0 PUSH1 0x2 EXP SUB AND CALLER EQ DUP1 PUSH2 0xDA3 JUMPI POP PUSH2 0xDA3 CALLER PUSH2 0x12ED JUMP JUMPDEST ISZERO ISZERO PUSH2 0xDAE JUMPI PUSH1 0x0 DUP1 REVERT JUMPDEST PUSH1 0x1 PUSH1 0xA0 PUSH1 0x2 EXP SUB DUP3 DUP2 AND PUSH1 0x0 SWAP1 DUP2 MSTORE PUSH1 0x7 PUSH1 0x20 SWAP1 DUP2 MSTORE PUSH1 0x40 DUP1 DUP4 KECCAK256 SWAP4 DUP8 AND DUP1 DUP5 MSTORE SWAP4 DUP3 MSTORE SWAP2 DUP3 SWAP1 KECCAK256 DUP1 SLOAD PUSH1 0xFF NOT AND DUP6 ISZERO ISZERO SWAP1 DUP2 OR SWAP1 SWAP2 SSTORE DUP3 MLOAD SWAP1 DUP2 MSTORE SWAP2 MLOAD PUSH32 0xB4E51190AC09D88100031DE9D538EDA33E031FF4EA0598F973DCB1531CE12EB1 SWAP3 DUP2 SWAP1 SUB SWAP1 SWAP2 ADD SWAP1 LOG2 POP POP POP JUMP JUMPDEST PUSH1 0x0 SLOAD PUSH1 0x1 PUSH1 0xA0 PUSH1 0x2 EXP SUB AND CALLER EQ PUSH2 0xE33 JUMPI PUSH1 0x0 DUP1 REVERT JUMPDEST PUSH1 0x1 DUP1 SLOAD PUSH1 0x1 PUSH1 0xA0 PUSH1 0x2 EXP SUB NOT AND PUSH1 0x1 PUSH1 0xA0 PUSH1 0x2 EXP SUB DUP4 DUP2 AND SWAP2 SWAP1 SWAP2 OR SWAP2 DUP3 SWAP1 SSTORE PUSH1 0x40 MLOAD SWAP2 AND SWAP1 PUSH32 0x357D1BA45E9EF3FB937F4B33A26A6EFED1B2F40114460D16FBFCE82ACA415755 SWAP1 PUSH1 0x0 SWAP1 LOG2 POP JUMP JUMPDEST PUSH1 0x0 SLOAD PUSH1 0x1 PUSH1 0xA0 PUSH1 0x2 EXP SUB AND CALLER EQ PUSH2 0xE9A JUMPI PUSH1 0x0 DUP1 REVERT JUMPDEST PUSH2 0xEA4 DUP3 DUP3 PUSH2 0x1319 JUMP JUMPDEST POP POP JUMP JUMPDEST PUSH2 0xEB1 CALLER PUSH2 0x12ED JUMP JUMPDEST ISZERO ISZERO PUSH2 0xEBC JUMPI PUSH1 0x0 DUP1 REVERT JUMPDEST PUSH1 0x1 PUSH1 0xA0 PUSH1 0x2 EXP SUB DUP1 DUP4 AND PUSH1 0x0 DUP2 DUP2 MSTORE PUSH1 0xB PUSH1 0x20 SWAP1 DUP2 MSTORE PUSH1 0x40 DUP1 DUP4 KECCAK256 DUP1 SLOAD DUP8 ISZERO ISZERO PUSH1 0xA0 PUSH1 0x2 EXP DUP2 MUL PUSH1 0xA0 PUSH1 0x2 EXP PUSH1 0xFF MUL NOT PUSH1 0x1 PUSH1 0xA0 PUSH1 0x2 EXP SUB NOT SWAP4 DUP5 AND DUP10 OR AND OR DUP4 SSTORE DUP1 DUP7 MSTORE PUSH1 0x1 SWAP3 DUP4 ADD DUP6 MSTORE DUP4 DUP7 KECCAK256 DUP1 SLOAD PUSH6 0x10000000000 DUP4 MUL PUSH6 0xFF0000000000 NOT SWAP1 SWAP2 AND OR SWAP1 SSTORE DUP4 MLOAD DUP1 DUP7 ADD DUP6 MSTORE DUP8 DUP2 MSTORE PUSH1 0xA DUP1 SLOAD SWAP5 DUP6 ADD DUP2 SSTORE SWAP1 SWAP7 MSTORE SWAP5 MLOAD PUSH1 0x0 DUP1 MLOAD PUSH1 0x20 PUSH2 0x14C7 DUP4 CODECOPY DUP2 MLOAD SWAP2 MSTORE SWAP1 SWAP3 ADD DUP1 SLOAD SWAP3 SWAP1 SWAP8 AND SWAP2 AND OR SWAP1 SWAP5 SSTORE DUP4 MLOAD SWAP2 DUP3 MSTORE SWAP3 MLOAD SWAP2 SWAP3 PUSH32 0x3F3EED7EAAE83DC29780651CD8137DFF8325C81EEA4C1091AC034A5572E1E2EF SWAP3 SWAP2 DUP3 SWAP1 SUB ADD SWAP1 LOG2 POP POP JUMP JUMPDEST PUSH1 0x0 SLOAD PUSH1 0x1 PUSH1 0xA0 PUSH1 0x2 EXP SUB AND CALLER EQ PUSH2 0xFA8 JUMPI PUSH1 0x0 DUP1 REVERT JUMPDEST PUSH1 0x1 PUSH1 0xA0 PUSH1 0x2 EXP SUB DUP3 DUP2 AND SWAP1 DUP3 AND EQ ISZERO PUSH2 0xFC1 JUMPI PUSH1 0x0 DUP1 REVERT JUMPDEST PUSH1 0x1 PUSH1 0xA0 PUSH1 0x2 EXP SUB SWAP2 DUP3 AND PUSH1 0x0 SWAP1 DUP2 MSTORE PUSH1 0x5 PUSH1 0x20 MSTORE PUSH1 0x40 SWAP1 KECCAK256 DUP1 SLOAD PUSH1 0x1 PUSH1 0xA0 PUSH1 0x2 EXP SUB NOT AND SWAP2 SWAP1 SWAP3 AND OR SWAP1 SSTORE JUMP JUMPDEST PUSH1 0x0 SLOAD PUSH1 0x1 PUSH1 0xA0 PUSH1 0x2 EXP SUB AND CALLER EQ PUSH2 0x1006 JUMPI PUSH1 0x0 DUP1 REVERT JUMPDEST PUSH2 0xEA4 DUP3 DUP3 PUSH2 0x1408 JUMP JUMPDEST PUSH2 0x1019 CALLER PUSH2 0x12ED JUMP JUMPDEST ISZERO ISZERO PUSH2 0x1024 JUMPI PUSH1 0x0 DUP1 REVERT JUMPDEST PUSH1 0x1 PUSH1 0xA0 PUSH1 0x2 EXP SUB DUP1 DUP4 AND PUSH1 0x0 DUP2 DUP2 MSTORE PUSH1 0xB PUSH1 0x20 SWAP1 DUP2 MSTORE PUSH1 0x40 DUP1 DUP4 KECCAK256 DUP1 SLOAD DUP8 ISZERO ISZERO PUSH1 0xA0 PUSH1 0x2 EXP DUP2 MUL PUSH1 0xA0 PUSH1 0x2 EXP PUSH1 0xFF MUL NOT PUSH1 0x1 PUSH1 0xA0 PUSH1 0x2 EXP SUB NOT SWAP4 DUP5 AND DUP10 OR AND OR DUP4 SSTORE DUP1 DUP7 MSTORE PUSH1 0x1 SWAP3 DUP4 ADD DUP6 MSTORE DUP4 DUP7 KECCAK256 DUP1 SLOAD PUSH3 0x10000 DUP4 MUL PUSH3 0xFF0000 NOT SWAP1 SWAP2 AND OR SWAP1 SSTORE DUP4 MLOAD DUP1 DUP7 ADD DUP6 MSTORE DUP8 DUP2 MSTORE PUSH1 0xA DUP1 SLOAD SWAP5 DUP6 ADD DUP2 SSTORE SWAP1 SWAP7 MSTORE SWAP5 MLOAD PUSH1 0x0 DUP1 MLOAD PUSH1 0x20 PUSH2 0x14C7 DUP4 CODECOPY DUP2 MLOAD SWAP2 MSTORE SWAP1 SWAP3 ADD DUP1 SLOAD SWAP3 SWAP1 SWAP8 AND SWAP2 AND OR SWAP1 SWAP5 SSTORE DUP4 MLOAD SWAP2 DUP3 MSTORE SWAP3 MLOAD SWAP2 SWAP3 PUSH32 0xB4E51190AC09D88100031DE9D538EDA33E031FF4EA0598F973DCB1531CE12EB1 SWAP3 SWAP2 DUP3 SWAP1 SUB ADD SWAP1 LOG2 POP POP JUMP JUMPDEST PUSH1 0x9 DUP1 SLOAD PUSH1 0x40 DUP1 MLOAD PUSH1 0x20 PUSH1 0x1F PUSH1 0x2 PUSH1 0x0 NOT PUSH2 0x100 PUSH1 0x1 DUP9 AND ISZERO MUL ADD SWAP1 SWAP6 AND SWAP5 SWAP1 SWAP5 DIV SWAP4 DUP5 ADD DUP2 SWAP1 DIV DUP2 MUL DUP3 ADD DUP2 ADD SWAP1 SWAP3 MSTORE DUP3 DUP2 MSTORE SWAP2 DUP4 SWAP2 DUP4 ADD DUP3 DUP3 DUP1 ISZERO PUSH2 0x117B JUMPI DUP1 PUSH1 0x1F LT PUSH2 0x1150 JUMPI PUSH2 0x100 DUP1 DUP4 SLOAD DIV MUL DUP4 MSTORE SWAP2 PUSH1 0x20 ADD SWAP2 PUSH2 0x117B JUMP JUMPDEST DUP3 ADD SWAP2 SWAP1 PUSH1 0x0 MSTORE PUSH1 0x20 PUSH1 0x0 KECCAK256 SWAP1 JUMPDEST DUP2 SLOAD DUP2 MSTORE SWAP1 PUSH1 0x1 ADD SWAP1 PUSH1 0x20 ADD DUP1 DUP4 GT PUSH2 0x115E JUMPI DUP3 SWAP1 SUB PUSH1 0x1F AND DUP3 ADD SWAP2 JUMPDEST POP POP POP POP POP SWAP1 POP DUP2 JUMP JUMPDEST PUSH1 0x0 SLOAD PUSH1 0x1 PUSH1 0xA0 PUSH1 0x2 EXP SUB AND CALLER EQ PUSH2 0x119C JUMPI PUSH1 0x0 DUP1 REVERT JUMPDEST PUSH1 0x2 DUP1 SLOAD PUSH1 0x1 PUSH1 0xA0 PUSH1 0x2 EXP SUB NOT AND PUSH1 0x1 PUSH1 0xA0 PUSH1 0x2 EXP SUB DUP4 DUP2 AND SWAP2 SWAP1 SWAP2 OR SWAP2 DUP3 SWAP1 SSTORE PUSH1 0x40 MLOAD SWAP2 AND SWAP1 PUSH32 0x95DCB20E52ED37833185C8B850BF9FA7990BDB0F232209C82B0A97A0A3A602E1 SWAP1 PUSH1 0x0 SWAP1 LOG2 POP JUMP JUMPDEST PUSH1 0x1 PUSH1 0xA0 PUSH1 0x2 EXP SUB DUP1 DUP3 AND PUSH1 0x0 SWAP1 DUP2 MSTORE PUSH1 0x7 PUSH1 0x20 SWAP1 DUP2 MSTORE PUSH1 0x40 DUP1 DUP4 KECCAK256 SWAP4 DUP7 AND DUP4 MSTORE SWAP3 SWAP1 MSTORE KECCAK256 SLOAD PUSH1 0xFF AND SWAP3 SWAP2 POP POP JUMP JUMPDEST PUSH1 0x1 PUSH1 0xA0 PUSH1 0x2 EXP SUB AND PUSH1 0x0 SWAP1 DUP2 MSTORE PUSH1 0xB PUSH1 0x20 SWAP1 DUP2 MSTORE PUSH1 0x40 DUP1 DUP4 KECCAK256 PUSH1 0x1 DUP1 DUP6 MSTORE ADD SWAP1 SWAP2 MSTORE SWAP1 KECCAK256 SLOAD PUSH5 0x100000000 SWAP1 DIV PUSH1 0xFF AND SWAP1 JUMP JUMPDEST PUSH1 0x0 SLOAD PUSH1 0x1 PUSH1 0xA0 PUSH1 0x2 EXP SUB AND CALLER EQ DUP1 PUSH2 0x126C JUMPI POP PUSH2 0x126C CALLER PUSH2 0x12ED JUMP JUMPDEST ISZERO ISZERO PUSH2 0x1277 JUMPI PUSH1 0x0 DUP1 REVERT JUMPDEST PUSH1 0x1 PUSH1 0xA0 PUSH1 0x2 EXP SUB DUP3 AND PUSH1 0x0 DUP2 DUP2 MSTORE PUSH1 0x6 PUSH1 0x20 SWAP1 DUP2 MSTORE PUSH1 0x40 DUP1 DUP4 KECCAK256 PUSH1 0x1 PUSH1 0xE0 PUSH1 0x2 EXP SUB NOT DUP9 AND DUP1 DUP6 MSTORE SWAP1 DUP4 MSTORE SWAP3 DUP2 SWAP1 KECCAK256 DUP1 SLOAD PUSH1 0xFF NOT AND DUP7 ISZERO ISZERO SWAP1 DUP2 OR SWAP1 SWAP2 SSTORE DUP2 MLOAD SWAP1 DUP2 MSTORE SWAP1 MLOAD PUSH32 0x3F8A1234A535CF651C4BCC3D4C56B68D7FF3264D0C4C8A3675245853F7851A11 SWAP3 SWAP2 DUP2 SWAP1 SUB SWAP1 SWAP2 ADD SWAP1 LOG3 POP POP POP JUMP JUMPDEST PUSH1 0x1 PUSH1 0xA0 PUSH1 0x2 EXP SUB AND PUSH1 0x0 SWAP1 DUP2 MSTORE PUSH1 0xB PUSH1 0x20 SWAP1 DUP2 MSTORE PUSH1 0x40 DUP1 DUP4 KECCAK256 PUSH1 0x1 DUP1 DUP6 MSTORE ADD SWAP1 SWAP2 MSTORE SWAP1 KECCAK256 SLOAD PUSH1 0xFF AND SWAP1 JUMP JUMPDEST PUSH1 0x1 PUSH1 0xA0 PUSH1 0x2 EXP SUB DUP3 AND PUSH1 0x0 DUP2 DUP2 MSTORE PUSH1 0xB PUSH1 0x20 SWAP1 DUP2 MSTORE PUSH1 0x40 DUP1 DUP4 KECCAK256 DUP1 SLOAD PUSH1 0x1 PUSH1 0xA0 PUSH1 0x2 EXP SUB NOT AND SWAP1 SWAP5 OR PUSH1 0xA0 PUSH1 0x2 EXP PUSH1 0xFF MUL NOT AND PUSH1 0xA0 PUSH1 0x2 EXP DUP7 ISZERO ISZERO SWAP1 DUP2 MUL SWAP2 SWAP1 SWAP2 OR DUP6 SSTORE DUP1 DUP5 MSTORE PUSH1 0x1 SWAP1 SWAP5 ADD SWAP1 SWAP2 MSTORE SWAP1 KECCAK256 DUP1 SLOAD PUSH4 0xFF000000 NOT AND PUSH4 0x1000000 SWAP1 SWAP3 MUL SWAP2 SWAP1 SWAP2 OR SWAP1 SSTORE PUSH2 0x138C DUP3 DUP3 PUSH2 0x1408 JUMP JUMPDEST PUSH1 0x40 DUP1 MLOAD PUSH1 0x20 DUP2 ADD DUP3 MSTORE PUSH1 0x1 PUSH1 0xA0 PUSH1 0x2 EXP SUB DUP5 DUP2 AND DUP1 DUP4 MSTORE PUSH1 0xA DUP1 SLOAD PUSH1 0x1 DUP2 ADD DUP3 SSTORE PUSH1 0x0 SWAP2 DUP3 MSTORE SWAP4 MLOAD PUSH1 0x0 DUP1 MLOAD PUSH1 0x20 PUSH2 0x14C7 DUP4 CODECOPY DUP2 MLOAD SWAP2 MSTORE SWAP1 SWAP5 ADD DUP1 SLOAD PUSH1 0x1 PUSH1 0xA0 PUSH1 0x2 EXP SUB NOT AND SWAP5 SWAP1 SWAP4 AND SWAP4 SWAP1 SWAP4 OR SWAP1 SWAP2 SSTORE SWAP2 MLOAD PUSH32 0x17898FD7375CA5152626D6FDD4CEB2BCE6CC033C9B61E254DD0087D5F8B47430 SWAP2 SWAP1 LOG2 POP POP JUMP JUMPDEST PUSH1 0x1 PUSH1 0xA0 PUSH1 0x2 EXP SUB DUP1 DUP4 AND PUSH1 0x0 DUP2 DUP2 MSTORE PUSH1 0xB PUSH1 0x20 SWAP1 DUP2 MSTORE PUSH1 0x40 DUP1 DUP4 KECCAK256 DUP1 SLOAD DUP8 ISZERO ISZERO PUSH1 0xA0 PUSH1 0x2 EXP DUP2 MUL PUSH1 0xA0 PUSH1 0x2 EXP PUSH1 0xFF MUL NOT PUSH1 0x1 PUSH1 0xA0 PUSH1 0x2 EXP SUB NOT SWAP4 DUP5 AND DUP10 OR AND OR DUP4 SSTORE DUP1 DUP7 MSTORE PUSH1 0x1 SWAP3 DUP4 ADD DUP6 MSTORE DUP4 DUP7 KECCAK256 DUP1 SLOAD PUSH1 0xFF NOT AND SWAP1 SWAP2 OR SWAP1 SSTORE DUP3 MLOAD SWAP4 DUP5 ADD DUP4 MSTORE DUP6 DUP5 MSTORE PUSH1 0xA DUP1 SLOAD SWAP3 DUP4 ADD DUP2 SSTORE DUP6 MSTORE SWAP3 MLOAD PUSH1 0x0 DUP1 MLOAD PUSH1 0x20 PUSH2 0x14C7 DUP4 CODECOPY DUP2 MLOAD SWAP2 MSTORE SWAP1 SWAP2 ADD DUP1 SLOAD SWAP2 SWAP1 SWAP7 AND SWAP3 AND SWAP2 SWAP1 SWAP2 OR SWAP1 SWAP4 SSTORE SWAP2 MLOAD SWAP1 SWAP2 PUSH32 0xA9327C1E2B316C1E4412BC43A5BC2B0C629ECDE4F1C9E21911D02AC8B3AD42D SWAP2 LOG2 POP POP JUMP INVALID 0xc6 GAS PUSH28 0xB8D6351C1CF70C95A316CC6A92839C986682D98BC35F958F4883F9D2 0xa8 LOG1 PUSH6 0x627A7A723058 KECCAK256 ORIGIN LOG4 SLOAD 0xb0 0x47 0x4f 0xb8 PUSH31 0x231D15FC7AC10059C51864E0EA82582B5F42E17F54CD36D300290000000000 "
			}
		}
	},
	"sourceTreeHashHex": "0x3ef3f30b3c0636388a17287778e5a3819fa400fab44d54a1551d49e75b59a622",
	"compiler": {
		"name": "solc",
		"version": "0.5.0+commit.1d4f565a",
		"settings": {
			"remappings": [],
			"optimizer": {
				"enabled": true,
				"runs": 200
			},
			"outputSelection": {
				"*": {
					"*": [
						"abi",
						"devdoc",
						"evm.bytecode.object",
						"evm.bytecode.sourceMap",
						"evm.deployedBytecode.object",
						"evm.deployedBytecode.sourceMap"
					]
				}
			}
		}
	},
	"chains": {}
}