{
	"schemaVersion": "2.0.0",
	"contractName": "ExchangesAuthority",
	"compilerOutput": {
		"abi": [
			{
				"constant": false,
				"inputs": [
					{
						"name": "_new",
						"type": "address"
					}
				],
				"name": "setOwner",
				"outputs": [],
				"payable": false,
				"stateMutability": "nonpayable",
				"type": "function"
			},
			{
				"constant": true,
				"inputs": [],
				"name": "isCasperInitialized",
				"outputs": [
					{
						"name": "",
						"type": "bool"
					}
				],
				"payable": false,
				"stateMutability": "view",
				"type": "function"
			},
			{
				"constant": true,
				"inputs": [],
				"name": "getCasper",
				"outputs": [
					{
						"name": "",
						"type": "address"
					}
				],
				"payable": false,
				"stateMutability": "view",
				"type": "function"
			},
			{
				"constant": true,
				"inputs": [
					{
						"name": "_authority",
						"type": "address"
					}
				],
				"name": "isAuthority",
				"outputs": [
					{
						"name": "",
						"type": "bool"
					}
				],
				"payable": false,
				"stateMutability": "view",
				"type": "function"
			},
			{
				"constant": false,
				"inputs": [
					{
						"name": "_wrapper",
						"type": "address"
					},
					{
						"name": "_isWhitelisted",
						"type": "bool"
					}
				],
				"name": "whitelistWrapper",
				"outputs": [],
				"payable": false,
				"stateMutability": "nonpayable",
				"type": "function"
			},
			{
				"constant": false,
				"inputs": [
					{
						"name": "_casper",
						"type": "address"
					}
				],
				"name": "setCasper",
				"outputs": [],
				"payable": false,
				"stateMutability": "nonpayable",
				"type": "function"
			},
			{
				"constant": false,
				"inputs": [
					{
						"name": "_token",
						"type": "address"
					},
					{
						"name": "_wrapper",
						"type": "address"
					},
					{
						"name": "_isWhitelisted",
						"type": "bool"
					}
				],
				"name": "whitelistTokenOnWrapper",
				"outputs": [],
				"payable": false,
				"stateMutability": "nonpayable",
				"type": "function"
			},
			{
				"constant": true,
				"inputs": [
					{
						"name": "_exchange",
						"type": "address"
					}
				],
				"name": "getExchangeAdapter",
				"outputs": [
					{
						"name": "",
						"type": "address"
					}
				],
				"payable": false,
				"stateMutability": "view",
				"type": "function"
			},
			{
				"constant": true,
				"inputs": [
					{
						"name": "_token",
						"type": "address"
					},
					{
						"name": "_wrapper",
						"type": "address"
					}
				],
				"name": "canWrapTokenOnWrapper",
				"outputs": [
					{
						"name": "",
						"type": "bool"
					}
				],
				"payable": false,
				"stateMutability": "view",
				"type": "function"
			},
			{
				"constant": true,
				"inputs": [
					{
						"name": "_tokenTransferProxy",
						"type": "address"
					}
				],
				"name": "isWhitelistedProxy",
				"outputs": [
					{
						"name": "",
						"type": "bool"
					}
				],
				"payable": false,
				"stateMutability": "view",
				"type": "function"
			},
			{
				"constant": true,
				"inputs": [],
				"name": "getSigVerifier",
				"outputs": [
					{
						"name": "",
						"type": "address"
					}
				],
				"payable": false,
				"stateMutability": "view",
				"type": "function"
			},
			{
				"constant": true,
				"inputs": [
					{
						"name": "",
						"type": "address"
					}
				],
				"name": "accounts",
				"outputs": [
					{
						"name": "account",
						"type": "address"
					},
					{
						"name": "authorized",
						"type": "bool"
					}
				],
				"payable": false,
				"stateMutability": "view",
				"type": "function"
			},
			{
				"constant": true,
				"inputs": [
					{
						"name": "_method",
						"type": "bytes4"
					},
					{
						"name": "_adapter",
						"type": "address"
					}
				],
				"name": "isMethodAllowed",
				"outputs": [
					{
						"name": "",
						"type": "bool"
					}
				],
				"payable": false,
				"stateMutability": "view",
				"type": "function"
			},
			{
				"constant": true,
				"inputs": [],
				"name": "owner",
				"outputs": [
					{
						"name": "",
						"type": "address"
					}
				],
				"payable": false,
				"stateMutability": "view",
				"type": "function"
			},
			{
				"constant": true,
				"inputs": [],
				"name": "blocks",
				"outputs": [
					{
						"name": "exchangeEventful",
						"type": "address"
					},
					{
						"name": "sigVerifier",
						"type": "address"
					},
					{
						"name": "casper",
						"type": "address"
					}
				],
				"payable": false,
				"stateMutability": "view",
				"type": "function"
			},
			{
				"constant": true,
				"inputs": [
					{
						"name": "_exchange",
						"type": "address"
					}
				],
				"name": "isWhitelistedExchange",
				"outputs": [
					{
						"name": "",
						"type": "bool"
					}
				],
				"payable": false,
				"stateMutability": "view",
				"type": "function"
			},
			{
				"constant": false,
				"inputs": [
					{
						"name": "_exchange",
						"type": "address"
					},
					{
						"name": "_isWhitelisted",
						"type": "bool"
					}
				],
				"name": "whitelistExchange",
				"outputs": [],
				"payable": false,
				"stateMutability": "nonpayable",
				"type": "function"
			},
			{
				"constant": true,
				"inputs": [
					{
						"name": "_asset",
						"type": "address"
					}
				],
				"name": "isWhitelistedAsset",
				"outputs": [
					{
						"name": "",
						"type": "bool"
					}
				],
				"payable": false,
				"stateMutability": "view",
				"type": "function"
			},
			{
				"constant": false,
				"inputs": [
					{
						"name": "_asset",
						"type": "address"
					},
					{
						"name": "_exchange",
						"type": "address"
					},
					{
						"name": "_isWhitelisted",
						"type": "bool"
					}
				],
				"name": "whitelistAssetOnExchange",
				"outputs": [],
				"payable": false,
				"stateMutability": "nonpayable",
				"type": "function"
			},
			{
				"constant": false,
				"inputs": [
					{
						"name": "_exchangeEventful",
						"type": "address"
					}
				],
				"name": "setExchangeEventful",
				"outputs": [],
				"payable": false,
				"stateMutability": "nonpayable",
				"type": "function"
			},
			{
				"constant": false,
				"inputs": [
					{
						"name": "_authority",
						"type": "address"
					},
					{
						"name": "_isWhitelisted",
						"type": "bool"
					}
				],
				"name": "setAuthority",
				"outputs": [],
				"payable": false,
				"stateMutability": "nonpayable",
				"type": "function"
			},
			{
				"constant": false,
				"inputs": [
					{
						"name": "_tokenTransferProxy",
						"type": "address"
					},
					{
						"name": "_isWhitelisted",
						"type": "bool"
					}
				],
				"name": "whitelistTokenTransferProxy",
				"outputs": [],
				"payable": false,
				"stateMutability": "nonpayable",
				"type": "function"
			},
			{
				"constant": false,
				"inputs": [
					{
						"name": "_exchange",
						"type": "address"
					},
					{
						"name": "_adapter",
						"type": "address"
					}
				],
				"name": "setExchangeAdapter",
				"outputs": [],
				"payable": false,
				"stateMutability": "nonpayable",
				"type": "function"
			},
			{
				"constant": false,
				"inputs": [
					{
						"name": "_whitelister",
						"type": "address"
					},
					{
						"name": "_isWhitelisted",
						"type": "bool"
					}
				],
				"name": "setWhitelister",
				"outputs": [],
				"payable": false,
				"stateMutability": "nonpayable",
				"type": "function"
			},
			{
				"constant": false,
				"inputs": [
					{
						"name": "_asset",
						"type": "address"
					},
					{
						"name": "_isWhitelisted",
						"type": "bool"
					}
				],
				"name": "whitelistAsset",
				"outputs": [],
				"payable": false,
				"stateMutability": "nonpayable",
				"type": "function"
			},
			{
				"constant": true,
				"inputs": [],
				"name": "types",
				"outputs": [
					{
						"name": "types",
						"type": "string"
					}
				],
				"payable": false,
				"stateMutability": "view",
				"type": "function"
			},
			{
				"constant": false,
				"inputs": [
					{
						"name": "_sigVerifier",
						"type": "address"
					}
				],
				"name": "setSignatureVerifier",
				"outputs": [],
				"payable": false,
				"stateMutability": "nonpayable",
				"type": "function"
			},
			{
				"constant": true,
				"inputs": [
					{
						"name": "_token",
						"type": "address"
					},
					{
						"name": "_exchange",
						"type": "address"
					}
				],
				"name": "canTradeTokenOnExchange",
				"outputs": [
					{
						"name": "",
						"type": "bool"
					}
				],
				"payable": false,
				"stateMutability": "view",
				"type": "function"
			},
			{
				"constant": true,
				"inputs": [
					{
						"name": "_wrapper",
						"type": "address"
					}
				],
				"name": "isWhitelistedWrapper",
				"outputs": [
					{
						"name": "",
						"type": "bool"
					}
				],
				"payable": false,
				"stateMutability": "view",
				"type": "function"
			},
			{
				"constant": false,
				"inputs": [
					{
						"name": "_method",
						"type": "bytes4"
					},
					{
						"name": "_adapter",
						"type": "address"
					},
					{
						"name": "_isWhitelisted",
						"type": "bool"
					}
				],
				"name": "whitelistMethod",
				"outputs": [],
				"payable": false,
				"stateMutability": "nonpayable",
				"type": "function"
			},
			{
				"anonymous": false,
				"inputs": [
					{
						"indexed": true,
						"name": "authority",
						"type": "address"
					}
				],
				"name": "AuthoritySet",
				"type": "event"
			},
			{
				"anonymous": false,
				"inputs": [
					{
						"indexed": true,
						"name": "whitelister",
						"type": "address"
					}
				],
				"name": "WhitelisterSet",
				"type": "event"
			},
			{
				"anonymous": false,
				"inputs": [
					{
						"indexed": true,
						"name": "asset",
						"type": "address"
					},
					{
						"indexed": false,
						"name": "approved",
						"type": "bool"
					}
				],
				"name": "WhitelistedAsset",
				"type": "event"
			},
			{
				"anonymous": false,
				"inputs": [
					{
						"indexed": true,
						"name": "exchange",
						"type": "address"
					},
					{
						"indexed": false,
						"name": "approved",
						"type": "bool"
					}
				],
				"name": "WhitelistedExchange",
				"type": "event"
			},
			{
				"anonymous": false,
				"inputs": [
					{
						"indexed": true,
						"name": "wrapper",
						"type": "address"
					},
					{
						"indexed": false,
						"name": "approved",
						"type": "bool"
					}
				],
				"name": "WhitelistedWrapper",
				"type": "event"
			},
			{
				"anonymous": false,
				"inputs": [
					{
						"indexed": true,
						"name": "proxy",
						"type": "address"
					},
					{
						"indexed": false,
						"name": "approved",
						"type": "bool"
					}
				],
				"name": "WhitelistedProxy",
				"type": "event"
			},
			{
				"anonymous": false,
				"inputs": [
					{
						"indexed": true,
						"name": "method",
						"type": "bytes4"
					},
					{
						"indexed": true,
						"name": "adapter",
						"type": "address"
					},
					{
						"indexed": false,
						"name": "approved",
						"type": "bool"
					}
				],
				"name": "WhitelistedMethod",
				"type": "event"
			},
			{
				"anonymous": false,
				"inputs": [
					{
						"indexed": true,
						"name": "sigVerifier",
						"type": "address"
					}
				],
				"name": "NewSigVerifier",
				"type": "event"
			},
			{
				"anonymous": false,
				"inputs": [
					{
						"indexed": true,
						"name": "exchangeEventful",
						"type": "address"
					}
				],
				"name": "NewExchangeEventful",
				"type": "event"
			},
			{
				"anonymous": false,
				"inputs": [
					{
						"indexed": true,
						"name": "casper",
						"type": "address"
					}
				],
				"name": "NewCasper",
				"type": "event"
			},
			{
				"anonymous": false,
				"inputs": [
					{
						"indexed": true,
						"name": "old",
						"type": "address"
					},
					{
						"indexed": true,
						"name": "current",
						"type": "address"
					}
				],
				"name": "NewOwner",
				"type": "event"
			}
		],
		"devdoc": {
			"author": "Gabriele Rigo - <gab@rigoblock.com>",
			"methods": {
				"canTradeTokenOnExchange(address,address)": {
					"details": "Checkes whether a token is allowed on an exchange",
					"params": {
						"_exchange": "Address of the exchange",
						"_token": "Address of the token"
					},
					"return": "Bool the token is whitelisted on the exchange"
				},
				"canWrapTokenOnWrapper(address,address)": {
					"details": "Checkes whether a token is allowed on a wrapper",
					"params": {
						"_token": "Address of the token",
						"_wrapper": "Address of the token wrapper"
					},
					"return": "Bool the token is whitelisted on the exchange"
				},
				"getCasper()": {
					"details": "Provides the address of the casper contract",
					"return": "Address of the casper contract"
				},
				"getExchangeAdapter(address)": {
					"details": "Provides the address of the exchange adapter",
					"params": {
						"_exchange": "Address of the exchange"
					},
					"return": "Address of the adapter"
				},
				"getSigVerifier()": {
					"details": "Provides the address of the signature verifier",
					"return": "Address of the verifier"
				},
				"isAuthority(address)": {
					"details": "Provides whether an address is an authority",
					"params": {
						"_authority": "Address of the target authority"
					},
					"return": "Bool is whitelisted"
				},
				"isCasperInitialized()": {
					"details": "Checkes whether casper has been inizialized",
					"return": "Bool the casper contract has been initialized"
				},
				"isMethodAllowed(bytes4,address)": {
					"details": "Checkes whether a method is allowed on an exchange",
					"params": {
						"_adapter": "Address of the exchange",
						"_method": "Bytes of the function signature"
					},
					"return": "Bool the method is allowed"
				},
				"isWhitelistedAsset(address)": {
					"details": "Provides whether an asset is whitelisted",
					"params": {
						"_asset": "Address of the target asset"
					},
					"return": "Bool is whitelisted"
				},
				"isWhitelistedExchange(address)": {
					"details": "Provides whether an exchange is whitelisted",
					"params": {
						"_exchange": "Address of the target exchange"
					},
					"return": "Bool is whitelisted"
				},
				"isWhitelistedProxy(address)": {
					"details": "Provides whether a proxy is whitelisted",
					"params": {
						"_tokenTransferProxy": "Address of the proxy"
					},
					"return": "Bool is whitelisted"
				},
				"isWhitelistedWrapper(address)": {
					"details": "Provides whether a token wrapper is whitelisted",
					"params": {
						"_wrapper": "Address of the target exchange"
					},
					"return": "Bool is whitelisted"
				},
				"setAuthority(address,bool)": {
					"details": "Allows the owner to whitelist an authority",
					"params": {
						"_authority": "Address of the authority",
						"_isWhitelisted": "Bool whitelisted"
					}
				},
				"setCasper(address)": {
					"details": "Allows the owner to set the casper contract",
					"params": {
						"_casper": "Address of the casper contract"
					}
				},
				"setExchangeAdapter(address,address)": {
					"details": "Allows the owner to associate an exchange to its adapter",
					"params": {
						"_adapter": "Address of the adapter",
						"_exchange": "Address of the exchange"
					}
				},
				"setExchangeEventful(address)": {
					"details": "Allows the owner to set the exchange eventful",
					"params": {
						"_exchangeEventful": "Address of the exchange logs contract"
					}
				},
				"setSignatureVerifier(address)": {
					"details": "Allows the owner to set the signature verifier",
					"params": {
						"_sigVerifier": "Address of the verifier contract"
					}
				},
				"setWhitelister(address,bool)": {
					"details": "Allows the owner to whitelist a whitelister",
					"params": {
						"_isWhitelisted": "Bool whitelisted",
						"_whitelister": "Address of the whitelister"
					}
				},
				"whitelistAsset(address,bool)": {
					"details": "Allows a whitelister to whitelist an asset",
					"params": {
						"_asset": "Address of the token",
						"_isWhitelisted": "Bool whitelisted"
					}
				},
				"whitelistAssetOnExchange(address,address,bool)": {
					"details": "Allows a whitelister to enable trading on a particular exchange",
					"params": {
						"_asset": "Address of the token",
						"_exchange": "Address of the exchange",
						"_isWhitelisted": "Bool whitelisted"
					}
				},
				"whitelistExchange(address,bool)": {
					"details": "Allows a whitelister to whitelist an exchange",
					"params": {
						"_exchange": "Address of the target exchange",
						"_isWhitelisted": "Bool whitelisted"
					}
				},
				"whitelistMethod(bytes4,address,bool)": {
					"details": "Allows an admin to whitelist a factory",
					"params": {
						"_isWhitelisted": "Bool whitelisted",
						"_method": "Hex of the function ABI"
					}
				},
				"whitelistTokenOnWrapper(address,address,bool)": {
					"details": "Allows a whitelister to enable assiciate wrappers to a token",
					"params": {
						"_isWhitelisted": "Bool whitelisted",
						"_token": "Address of the token",
						"_wrapper": "Address of the exchange"
					}
				},
				"whitelistTokenTransferProxy(address,bool)": {
					"details": "Allows a whitelister to whitelist a tokenTransferProxy",
					"params": {
						"_isWhitelisted": "Bool whitelisted",
						"_tokenTransferProxy": "Address of the proxy"
					}
				},
				"whitelistWrapper(address,bool)": {
					"details": "Allows a whitelister to whitelist an token wrapper",
					"params": {
						"_isWhitelisted": "Bool whitelisted",
						"_wrapper": "Address of the target token wrapper"
					}
				}
			},
			"title": "Exchanges Authority - A helper contract for the exchange adapters."
		},
		"evm": {
			"bytecode": {
				"linkReferences": {},
				"object": "0x608060405260008054600160a060020a03191633179055611cae806100256000396000f3fe60806040526004361061017f5763ffffffff7c010000000000000000000000000000000000000000000000000000000060003504166313af403581146101845780631a68f034146101c65780632314d79c146101ef5780632330f2471461022d5780633bd894971461026d5780633f7532e2146102b5578063418a56e4146102f5578063485ff697146103475780634da07da31461038757806358c860f9146103cf5780635b28556d1461040f5780635e5c06e2146104245780637ecf2c2f146104945780638da5cb5b146104fc578063967ff23e146105115780639aa4d0a01461055e578063a32541021461059e578063ab1dc427146105e6578063abda237114610626578063b191f13b14610678578063b5f0d35c146106b8578063bdcc542f14610700578063c4ef5c8514610748578063c91b014914610790578063cba91dd2146107d8578063ccbff97914610820578063e08a6605146108aa578063f1915b17146108ea578063f3229cda14610932578063fb34c29014610972575b600080fd5b34801561019057600080fd5b506101c4600480360360208110156101a757600080fd5b503573ffffffffffffffffffffffffffffffffffffffff166109e2565b005b3480156101d257600080fd5b506101db610a9b565b604080519115158252519081900360200190f35b3480156101fb57600080fd5b50610204610ac9565b6040805173ffffffffffffffffffffffffffffffffffffffff9092168252519081900360200190f35b34801561023957600080fd5b506101db6004803603602081101561025057600080fd5b503573ffffffffffffffffffffffffffffffffffffffff16610ae5565b34801561027957600080fd5b506101c46004803603604081101561029057600080fd5b5073ffffffffffffffffffffffffffffffffffffffff81351690602001351515610b25565b3480156102c157600080fd5b506101c4600480360360208110156102d857600080fd5b503573ffffffffffffffffffffffffffffffffffffffff16610c86565b34801561030157600080fd5b506101c46004803603606081101561031857600080fd5b5073ffffffffffffffffffffffffffffffffffffffff8135811691602081013590911690604001351515610d53565b34801561035357600080fd5b506102046004803603602081101561036a57600080fd5b503573ffffffffffffffffffffffffffffffffffffffff16610e21565b34801561039357600080fd5b506101db600480360360408110156103aa57600080fd5b5073ffffffffffffffffffffffffffffffffffffffff81358116916020013516610e4c565b3480156103db57600080fd5b506101db600480360360208110156103f257600080fd5b503573ffffffffffffffffffffffffffffffffffffffff16610e88565b34801561041b57600080fd5b50610204610eca565b34801561043057600080fd5b506104646004803603602081101561044757600080fd5b503573ffffffffffffffffffffffffffffffffffffffff16610ee6565b6040805173ffffffffffffffffffffffffffffffffffffffff909316835290151560208301528051918290030190f35b3480156104a057600080fd5b506101db600480360360408110156104b757600080fd5b5080357fffffffff0000000000000000000000000000000000000000000000000000000016906020013573ffffffffffffffffffffffffffffffffffffffff16610f2b565b34801561050857600080fd5b50610204610f84565b34801561051d57600080fd5b50610526610fa0565b6040805173ffffffffffffffffffffffffffffffffffffffff9485168152928416602084015292168183015290519081900360600190f35b34801561056a57600080fd5b506101db6004803603602081101561058157600080fd5b503573ffffffffffffffffffffffffffffffffffffffff16610fca565b3480156105aa57600080fd5b506101c4600480360360408110156105c157600080fd5b5073ffffffffffffffffffffffffffffffffffffffff81351690602001351515611008565b3480156105f257600080fd5b506101db6004803603602081101561060957600080fd5b503573ffffffffffffffffffffffffffffffffffffffff16611166565b34801561063257600080fd5b506101c46004803603606081101561064957600080fd5b5073ffffffffffffffffffffffffffffffffffffffff81358116916020810135909116906040013515156111a5565b34801561068457600080fd5b506101c46004803603602081101561069b57600080fd5b503573ffffffffffffffffffffffffffffffffffffffff16611273565b3480156106c457600080fd5b506101c4600480360360408110156106db57600080fd5b5073ffffffffffffffffffffffffffffffffffffffff8135169060200135151561130c565b34801561070c57600080fd5b506101c46004803603604081101561072357600080fd5b5073ffffffffffffffffffffffffffffffffffffffff8135169060200135151561133e565b34801561075457600080fd5b506101c46004803603604081101561076b57600080fd5b5073ffffffffffffffffffffffffffffffffffffffff813581169160200135166114a0565b34801561079c57600080fd5b506101c4600480360360408110156107b357600080fd5b5073ffffffffffffffffffffffffffffffffffffffff8135169060200135151561153d565b3480156107e457600080fd5b506101c4600480360360408110156107fb57600080fd5b5073ffffffffffffffffffffffffffffffffffffffff8135169060200135151561156b565b34801561082c57600080fd5b506108356116ca565b6040805160208082528351818301528351919283929083019185019080838360005b8381101561086f578181015183820152602001610857565b50505050905090810190601f16801561089c5780820380516001836020036101000a031916815260200191505b509250505060405180910390f35b3480156108b657600080fd5b506101c4600480360360208110156108cd57600080fd5b503573ffffffffffffffffffffffffffffffffffffffff1661177a565b3480156108f657600080fd5b506101db6004803603604081101561090d57600080fd5b5073ffffffffffffffffffffffffffffffffffffffff81358116916020013516611813565b34801561093e57600080fd5b506101db6004803603602081101561095557600080fd5b503573ffffffffffffffffffffffffffffffffffffffff1661184f565b34801561097e57600080fd5b506101c46004803603606081101561099557600080fd5b507fffffffff000000000000000000000000000000000000000000000000000000008135169073ffffffffffffffffffffffffffffffffffffffff60208201351690604001351515611890565b60005473ffffffffffffffffffffffffffffffffffffffff163314610a0657600080fd5b73ffffffffffffffffffffffffffffffffffffffff81161515610a2857600080fd5b600080547fffffffffffffffffffffffff00000000000000000000000000000000000000001673ffffffffffffffffffffffffffffffffffffffff83811691821780845560405192939116917f70aea8d848e8a90fb7661b227dc522eb6395c3dac71b63cb59edd5c9899b23649190a350565b60035473ffffffffffffffffffffffffffffffffffffffff1660009081526004602052604090205460ff1690565b60035473ffffffffffffffffffffffffffffffffffffffff1690565b73ffffffffffffffffffffffffffffffffffffffff166000908152600b602090815260408083206001808552019091529020546301000000900460ff1690565b610b2e3361197e565b1515610b3957600080fd5b73ffffffffffffffffffffffffffffffffffffffff8083166000818152600b6020908152604080832080548715157401000000000000000000000000000000000000000081027fffffffffffffffffffffff00ffffffffffffffffffffffffffffffffffffffff7fffffffffffffffffffffffff000000000000000000000000000000000000000093841689171617835580865260019283018552838620805464010000000083027fffffffffffffffffffffffffffffffffffffffffffffffffffffff00ffffffff90911617905583518086018552878152600a8054948501815590965294517fc65a7bb8d6351c1cf70c95a316cc6a92839c986682d98bc35f958f4883f9d2a89092018054929097169116179094558351918252925191927f7aef30a25ce3716a35bed040cbe56c5c3634c99fd57f50fd37a8b9187af04c9d92918290030190a25050565b60005473ffffffffffffffffffffffffffffffffffffffff163314610caa57600080fd5b600380547fffffffffffffffffffffffff00000000000000000000000000000000000000001673ffffffffffffffffffffffffffffffffffffffff838116918217835560009182526004602052604080832080547fffffffffffffffffffffffffffffffffffffffffffffffffffffffffffffff00166001179055925492519216917ff62b7326bb5f6084a70482a099d3ded86de8cfbbfcea28e4f5b04ad693bf55ce9190a250565b60005473ffffffffffffffffffffffffffffffffffffffff16331480610d7d5750610d7d3361197e565b1515610d8857600080fd5b73ffffffffffffffffffffffffffffffffffffffff82811660009081526008602090815260408083209387168084529382529182902080547fffffffffffffffffffffffffffffffffffffffffffffffffffffffffffffff0016851515908117909155825190815291517fb4e51190ac09d88100031de9d538eda33e031ff4ea0598f973dcb1531ce12eb19281900390910190a2505050565b73ffffffffffffffffffffffffffffffffffffffff9081166000908152600560205260409020541690565b73ffffffffffffffffffffffffffffffffffffffff80821660009081526008602090815260408083209386168352929052205460ff1692915050565b73ffffffffffffffffffffffffffffffffffffffff166000908152600b6020908152604080832060018085520190915290205465010000000000900460ff1690565b60025473ffffffffffffffffffffffffffffffffffffffff1690565b600b6020526000908152604090205473ffffffffffffffffffffffffffffffffffffffff81169074010000000000000000000000000000000000000000900460ff1682565b73ffffffffffffffffffffffffffffffffffffffff1660009081526006602090815260408083207fffffffff00000000000000000000000000000000000000000000000000000000949094168352929052205460ff1690565b60005473ffffffffffffffffffffffffffffffffffffffff1681565b60015460025460035473ffffffffffffffffffffffffffffffffffffffff92831692918216911683565b73ffffffffffffffffffffffffffffffffffffffff166000908152600b60209081526040808320600180855201909152902054610100900460ff1690565b6110113361197e565b151561101c57600080fd5b73ffffffffffffffffffffffffffffffffffffffff8083166000818152600b6020908152604080832080548715157401000000000000000000000000000000000000000081027fffffffffffffffffffffff00ffffffffffffffffffffffffffffffffffffffff7fffffffffffffffffffffffff000000000000000000000000000000000000000093841689171617835580865260019283018552838620805461010083027fffffffffffffffffffffffffffffffffffffffffffffffffffffffffffff00ff90911617905583518086018552878152600a8054948501815590965294517fc65a7bb8d6351c1cf70c95a316cc6a92839c986682d98bc35f958f4883f9d2a89092018054929097169116179094558351918252925191927fb541b66aaab15841e9f8a3a40fc50b777ddd85dc6378cfc6389a973d2117c7d592918290030190a25050565b73ffffffffffffffffffffffffffffffffffffffff166000908152600b6020908152604080832060018085520190915290205462010000900460ff1690565b60005473ffffffffffffffffffffffffffffffffffffffff163314806111cf57506111cf3361197e565b15156111da57600080fd5b73ffffffffffffffffffffffffffffffffffffffff82811660009081526007602090815260408083209387168084529382529182902080547fffffffffffffffffffffffffffffffffffffffffffffffffffffffffffffff0016851515908117909155825190815291517fb4e51190ac09d88100031de9d538eda33e031ff4ea0598f973dcb1531ce12eb19281900390910190a2505050565b60005473ffffffffffffffffffffffffffffffffffffffff16331461129757600080fd5b600180547fffffffffffffffffffffffff00000000000000000000000000000000000000001673ffffffffffffffffffffffffffffffffffffffff83811691909117918290556040519116907f357d1ba45e9ef3fb937f4b33a26a6efed1b2f40114460d16fbfce82aca41575590600090a250565b60005473ffffffffffffffffffffffffffffffffffffffff16331461133057600080fd5b61133a82826119b7565b5050565b6113473361197e565b151561135257600080fd5b73ffffffffffffffffffffffffffffffffffffffff8083166000818152600b6020908152604080832080548715157401000000000000000000000000000000000000000081027fffffffffffffffffffffff00ffffffffffffffffffffffffffffffffffffffff7fffffffffffffffffffffffff00000000000000000000000000000000000000009384168917161783558086526001928301855283862080546501000000000083027fffffffffffffffffffffffffffffffffffffffffffffffffffff00ffffffffff90911617905583518086018552878152600a8054948501815590965294517fc65a7bb8d6351c1cf70c95a316cc6a92839c986682d98bc35f958f4883f9d2a89092018054929097169116179094558351918252925191927f3f3eed7eaae83dc29780651cd8137dff8325c81eea4c1091ac034a5572e1e2ef92918290030190a25050565b60005473ffffffffffffffffffffffffffffffffffffffff1633146114c457600080fd5b73ffffffffffffffffffffffffffffffffffffffff82811690821614156114ea57600080fd5b73ffffffffffffffffffffffffffffffffffffffff918216600090815260056020526040902080547fffffffffffffffffffffffff00000000000000000000000000000000000000001691909216179055565b60005473ffffffffffffffffffffffffffffffffffffffff16331461156157600080fd5b61133a8282611b46565b6115743361197e565b151561157f57600080fd5b73ffffffffffffffffffffffffffffffffffffffff8083166000818152600b6020908152604080832080548715157401000000000000000000000000000000000000000081027fffffffffffffffffffffff00ffffffffffffffffffffffffffffffffffffffff7fffffffffffffffffffffffff00000000000000000000000000000000000000009384168917161783558086526001928301855283862080546201000083027fffffffffffffffffffffffffffffffffffffffffffffffffffffffffff00ffff90911617905583518086018552878152600a8054948501815590965294517fc65a7bb8d6351c1cf70c95a316cc6a92839c986682d98bc35f958f4883f9d2a89092018054929097169116179094558351918252925191927fb4e51190ac09d88100031de9d538eda33e031ff4ea0598f973dcb1531ce12eb192918290030190a25050565b60098054604080516020601f60027fffffffffffffffffffffffffffffffffffffffffffffffffffffffffffffffff61010060018816150201909516949094049384018190048102820181019092528281529183918301828280156117705780601f1061174557610100808354040283529160200191611770565b820191906000526020600020905b81548152906001019060200180831161175357829003601f168201915b5050505050905081565b60005473ffffffffffffffffffffffffffffffffffffffff16331461179e57600080fd5b600280547fffffffffffffffffffffffff00000000000000000000000000000000000000001673ffffffffffffffffffffffffffffffffffffffff83811691909117918290556040519116907f95dcb20e52ed37833185c8b850bf9fa7990bdb0f232209c82b0a97a0a3a602e190600090a250565b73ffffffffffffffffffffffffffffffffffffffff80821660009081526007602090815260408083209386168352929052205460ff1692915050565b73ffffffffffffffffffffffffffffffffffffffff166000908152600b60209081526040808320600180855201909152902054640100000000900460ff1690565b60005473ffffffffffffffffffffffffffffffffffffffff163314806118ba57506118ba3361197e565b15156118c557600080fd5b73ffffffffffffffffffffffffffffffffffffffff821660008181526006602090815260408083207fffffffff0000000000000000000000000000000000000000000000000000000088168085529083529281902080547fffffffffffffffffffffffffffffffffffffffffffffffffffffffffffffff0016861515908117909155815190815290517f3f8a1234a535cf651c4bcc3d4c56b68d7ff3264d0c4c8a3675245853f7851a11929181900390910190a3505050565b73ffffffffffffffffffffffffffffffffffffffff166000908152600b6020908152604080832060018085520190915290205460ff1690565b73ffffffffffffffffffffffffffffffffffffffff82166000818152600b6020908152604080832080547fffffffffffffffffffffffff0000000000000000000000000000000000000000169094177fffffffffffffffffffffff00ffffffffffffffffffffffffffffffffffffffff16740100000000000000000000000000000000000000008615159081029190911785558084526001909401909152902080547fffffffffffffffffffffffffffffffffffffffffffffffffffffffff00ffffff166301000000909202919091179055611a938282611b46565b6040805160208101825273ffffffffffffffffffffffffffffffffffffffff848116808352600a8054600181018255600091825293517fc65a7bb8d6351c1cf70c95a316cc6a92839c986682d98bc35f958f4883f9d2a890940180547fffffffffffffffffffffffff000000000000000000000000000000000000000016949093169390931790915591517f17898fd7375ca5152626d6fdd4ceb2bce6cc033c9b61e254dd0087d5f8b474309190a25050565b73ffffffffffffffffffffffffffffffffffffffff8083166000818152600b6020908152604080832080548715157401000000000000000000000000000000000000000081027fffffffffffffffffffffff00ffffffffffffffffffffffffffffffffffffffff7fffffffffffffffffffffffff00000000000000000000000000000000000000009384168917161783558086526001928301855283862080547fffffffffffffffffffffffffffffffffffffffffffffffffffffffffffffff0016909117905582519384018352858452600a80549283018155855292517fc65a7bb8d6351c1cf70c95a316cc6a92839c986682d98bc35f958f4883f9d2a8909101805491909616921691909117909355915190917f0a9327c1e2b316c1e4412bc43a5bc2b0c629ecde4f1c9e21911d02ac8b3ad42d91a2505056fea165627a7a7230582039cc8d09dda75a3a40fc51fb98c818b8a039c494dbb103d349a8c86b6bfd9e3f0029",
				"opcodes": "PUSH1 0x80 PUSH1 0x40 MSTORE PUSH1 0x0 DUP1 SLOAD PUSH1 0x1 PUSH1 0xA0 PUSH1 0x2 EXP SUB NOT AND CALLER OR SWAP1 SSTORE PUSH2 0x1CAE DUP1 PUSH2 0x25 PUSH1 0x0 CODECOPY PUSH1 0x0 RETURN INVALID PUSH1 0x80 PUSH1 0x40 MSTORE PUSH1 0x4 CALLDATASIZE LT PUSH2 0x17F JUMPI PUSH4 0xFFFFFFFF PUSH29 0x100000000000000000000000000000000000000000000000000000000 PUSH1 0x0 CALLDATALOAD DIV AND PUSH4 0x13AF4035 DUP2 EQ PUSH2 0x184 JUMPI DUP1 PUSH4 0x1A68F034 EQ PUSH2 0x1C6 JUMPI DUP1 PUSH4 0x2314D79C EQ PUSH2 0x1EF JUMPI DUP1 PUSH4 0x2330F247 EQ PUSH2 0x22D JUMPI DUP1 PUSH4 0x3BD89497 EQ PUSH2 0x26D JUMPI DUP1 PUSH4 0x3F7532E2 EQ PUSH2 0x2B5 JUMPI DUP1 PUSH4 0x418A56E4 EQ PUSH2 0x2F5 JUMPI DUP1 PUSH4 0x485FF697 EQ PUSH2 0x347 JUMPI DUP1 PUSH4 0x4DA07DA3 EQ PUSH2 0x387 JUMPI DUP1 PUSH4 0x58C860F9 EQ PUSH2 0x3CF JUMPI DUP1 PUSH4 0x5B28556D EQ PUSH2 0x40F JUMPI DUP1 PUSH4 0x5E5C06E2 EQ PUSH2 0x424 JUMPI DUP1 PUSH4 0x7ECF2C2F EQ PUSH2 0x494 JUMPI DUP1 PUSH4 0x8DA5CB5B EQ PUSH2 0x4FC JUMPI DUP1 PUSH4 0x967FF23E EQ PUSH2 0x511 JUMPI DUP1 PUSH4 0x9AA4D0A0 EQ PUSH2 0x55E JUMPI DUP1 PUSH4 0xA3254102 EQ PUSH2 0x59E JUMPI DUP1 PUSH4 0xAB1DC427 EQ PUSH2 0x5E6 JUMPI DUP1 PUSH4 0xABDA2371 EQ PUSH2 0x626 JUMPI DUP1 PUSH4 0xB191F13B EQ PUSH2 0x678 JUMPI DUP1 PUSH4 0xB5F0D35C EQ PUSH2 0x6B8 JUMPI DUP1 PUSH4 0xBDCC542F EQ PUSH2 0x700 JUMPI DUP1 PUSH4 0xC4EF5C85 EQ PUSH2 0x748 JUMPI DUP1 PUSH4 0xC91B0149 EQ PUSH2 0x790 JUMPI DUP1 PUSH4 0xCBA91DD2 EQ PUSH2 0x7D8 JUMPI DUP1 PUSH4 0xCCBFF979 EQ PUSH2 0x820 JUMPI DUP1 PUSH4 0xE08A6605 EQ PUSH2 0x8AA JUMPI DUP1 PUSH4 0xF1915B17 EQ PUSH2 0x8EA JUMPI DUP1 PUSH4 0xF3229CDA EQ PUSH2 0x932 JUMPI DUP1 PUSH4 0xFB34C290 EQ PUSH2 0x972 JUMPI JUMPDEST PUSH1 0x0 DUP1 REVERT JUMPDEST CALLVALUE DUP1 ISZERO PUSH2 0x190 JUMPI PUSH1 0x0 DUP1 REVERT JUMPDEST POP PUSH2 0x1C4 PUSH1 0x4 DUP1 CALLDATASIZE SUB PUSH1 0x20 DUP2 LT ISZERO PUSH2 0x1A7 JUMPI PUSH1 0x0 DUP1 REVERT JUMPDEST POP CALLDATALOAD PUSH20 0xFFFFFFFFFFFFFFFFFFFFFFFFFFFFFFFFFFFFFFFF AND PUSH2 0x9E2 JUMP JUMPDEST STOP JUMPDEST CALLVALUE DUP1 ISZERO PUSH2 0x1D2 JUMPI PUSH1 0x0 DUP1 REVERT JUMPDEST POP PUSH2 0x1DB PUSH2 0xA9B JUMP JUMPDEST PUSH1 0x40 DUP1 MLOAD SWAP2 ISZERO ISZERO DUP3 MSTORE MLOAD SWAP1 DUP2 SWAP1 SUB PUSH1 0x20 ADD SWAP1 RETURN JUMPDEST CALLVALUE DUP1 ISZERO PUSH2 0x1FB JUMPI PUSH1 0x0 DUP1 REVERT JUMPDEST POP PUSH2 0x204 PUSH2 0xAC9 JUMP JUMPDEST PUSH1 0x40 DUP1 MLOAD PUSH20 0xFFFFFFFFFFFFFFFFFFFFFFFFFFFFFFFFFFFFFFFF SWAP1 SWAP3 AND DUP3 MSTORE MLOAD SWAP1 DUP2 SWAP1 SUB PUSH1 0x20 ADD SWAP1 RETURN JUMPDEST CALLVALUE DUP1 ISZERO PUSH2 0x239 JUMPI PUSH1 0x0 DUP1 REVERT JUMPDEST POP PUSH2 0x1DB PUSH1 0x4 DUP1 CALLDATASIZE SUB PUSH1 0x20 DUP2 LT ISZERO PUSH2 0x250 JUMPI PUSH1 0x0 DUP1 REVERT JUMPDEST POP CALLDATALOAD PUSH20 0xFFFFFFFFFFFFFFFFFFFFFFFFFFFFFFFFFFFFFFFF AND PUSH2 0xAE5 JUMP JUMPDEST CALLVALUE DUP1 ISZERO PUSH2 0x279 JUMPI PUSH1 0x0 DUP1 REVERT JUMPDEST POP PUSH2 0x1C4 PUSH1 0x4 DUP1 CALLDATASIZE SUB PUSH1 0x40 DUP2 LT ISZERO PUSH2 0x290 JUMPI PUSH1 0x0 DUP1 REVERT JUMPDEST POP PUSH20 0xFFFFFFFFFFFFFFFFFFFFFFFFFFFFFFFFFFFFFFFF DUP2 CALLDATALOAD AND SWAP1 PUSH1 0x20 ADD CALLDATALOAD ISZERO ISZERO PUSH2 0xB25 JUMP JUMPDEST CALLVALUE DUP1 ISZERO PUSH2 0x2C1 JUMPI PUSH1 0x0 DUP1 REVERT JUMPDEST POP PUSH2 0x1C4 PUSH1 0x4 DUP1 CALLDATASIZE SUB PUSH1 0x20 DUP2 LT ISZERO PUSH2 0x2D8 JUMPI PUSH1 0x0 DUP1 REVERT JUMPDEST POP CALLDATALOAD PUSH20 0xFFFFFFFFFFFFFFFFFFFFFFFFFFFFFFFFFFFFFFFF AND PUSH2 0xC86 JUMP JUMPDEST CALLVALUE DUP1 ISZERO PUSH2 0x301 JUMPI PUSH1 0x0 DUP1 REVERT JUMPDEST POP PUSH2 0x1C4 PUSH1 0x4 DUP1 CALLDATASIZE SUB PUSH1 0x60 DUP2 LT ISZERO PUSH2 0x318 JUMPI PUSH1 0x0 DUP1 REVERT JUMPDEST POP PUSH20 0xFFFFFFFFFFFFFFFFFFFFFFFFFFFFFFFFFFFFFFFF DUP2 CALLDATALOAD DUP2 AND SWAP2 PUSH1 0x20 DUP2 ADD CALLDATALOAD SWAP1 SWAP2 AND SWAP1 PUSH1 0x40 ADD CALLDATALOAD ISZERO ISZERO PUSH2 0xD53 JUMP JUMPDEST CALLVALUE DUP1 ISZERO PUSH2 0x353 JUMPI PUSH1 0x0 DUP1 REVERT JUMPDEST POP PUSH2 0x204 PUSH1 0x4 DUP1 CALLDATASIZE SUB PUSH1 0x20 DUP2 LT ISZERO PUSH2 0x36A JUMPI PUSH1 0x0 DUP1 REVERT JUMPDEST POP CALLDATALOAD PUSH20 0xFFFFFFFFFFFFFFFFFFFFFFFFFFFFFFFFFFFFFFFF AND PUSH2 0xE21 JUMP JUMPDEST CALLVALUE DUP1 ISZERO PUSH2 0x393 JUMPI PUSH1 0x0 DUP1 REVERT JUMPDEST POP PUSH2 0x1DB PUSH1 0x4 DUP1 CALLDATASIZE SUB PUSH1 0x40 DUP2 LT ISZERO PUSH2 0x3AA JUMPI PUSH1 0x0 DUP1 REVERT JUMPDEST POP PUSH20 0xFFFFFFFFFFFFFFFFFFFFFFFFFFFFFFFFFFFFFFFF DUP2 CALLDATALOAD DUP2 AND SWAP2 PUSH1 0x20 ADD CALLDATALOAD AND PUSH2 0xE4C JUMP JUMPDEST CALLVALUE DUP1 ISZERO PUSH2 0x3DB JUMPI PUSH1 0x0 DUP1 REVERT JUMPDEST POP PUSH2 0x1DB PUSH1 0x4 DUP1 CALLDATASIZE SUB PUSH1 0x20 DUP2 LT ISZERO PUSH2 0x3F2 JUMPI PUSH1 0x0 DUP1 REVERT JUMPDEST POP CALLDATALOAD PUSH20 0xFFFFFFFFFFFFFFFFFFFFFFFFFFFFFFFFFFFFFFFF AND PUSH2 0xE88 JUMP JUMPDEST CALLVALUE DUP1 ISZERO PUSH2 0x41B JUMPI PUSH1 0x0 DUP1 REVERT JUMPDEST POP PUSH2 0x204 PUSH2 0xECA JUMP JUMPDEST CALLVALUE DUP1 ISZERO PUSH2 0x430 JUMPI PUSH1 0x0 DUP1 REVERT JUMPDEST POP PUSH2 0x464 PUSH1 0x4 DUP1 CALLDATASIZE SUB PUSH1 0x20 DUP2 LT ISZERO PUSH2 0x447 JUMPI PUSH1 0x0 DUP1 REVERT JUMPDEST POP CALLDATALOAD PUSH20 0xFFFFFFFFFFFFFFFFFFFFFFFFFFFFFFFFFFFFFFFF AND PUSH2 0xEE6 JUMP JUMPDEST PUSH1 0x40 DUP1 MLOAD PUSH20 0xFFFFFFFFFFFFFFFFFFFFFFFFFFFFFFFFFFFFFFFF SWAP1 SWAP4 AND DUP4 MSTORE SWAP1 ISZERO ISZERO PUSH1 0x20 DUP4 ADD MSTORE DUP1 MLOAD SWAP2 DUP3 SWAP1 SUB ADD SWAP1 RETURN JUMPDEST CALLVALUE DUP1 ISZERO PUSH2 0x4A0 JUMPI PUSH1 0x0 DUP1 REVERT JUMPDEST POP PUSH2 0x1DB PUSH1 0x4 DUP1 CALLDATASIZE SUB PUSH1 0x40 DUP2 LT ISZERO PUSH2 0x4B7 JUMPI PUSH1 0x0 DUP1 REVERT JUMPDEST POP DUP1 CALLDATALOAD PUSH32 0xFFFFFFFF00000000000000000000000000000000000000000000000000000000 AND SWAP1 PUSH1 0x20 ADD CALLDATALOAD PUSH20 0xFFFFFFFFFFFFFFFFFFFFFFFFFFFFFFFFFFFFFFFF AND PUSH2 0xF2B JUMP JUMPDEST CALLVALUE DUP1 ISZERO PUSH2 0x508 JUMPI PUSH1 0x0 DUP1 REVERT JUMPDEST POP PUSH2 0x204 PUSH2 0xF84 JUMP JUMPDEST CALLVALUE DUP1 ISZERO PUSH2 0x51D JUMPI PUSH1 0x0 DUP1 REVERT JUMPDEST POP PUSH2 0x526 PUSH2 0xFA0 JUMP JUMPDEST PUSH1 0x40 DUP1 MLOAD PUSH20 0xFFFFFFFFFFFFFFFFFFFFFFFFFFFFFFFFFFFFFFFF SWAP5 DUP6 AND DUP2 MSTORE SWAP3 DUP5 AND PUSH1 0x20 DUP5 ADD MSTORE SWAP3 AND DUP2 DUP4 ADD MSTORE SWAP1 MLOAD SWAP1 DUP2 SWAP1 SUB PUSH1 0x60 ADD SWAP1 RETURN JUMPDEST CALLVALUE DUP1 ISZERO PUSH2 0x56A JUMPI PUSH1 0x0 DUP1 REVERT JUMPDEST POP PUSH2 0x1DB PUSH1 0x4 DUP1 CALLDATASIZE SUB PUSH1 0x20 DUP2 LT ISZERO PUSH2 0x581 JUMPI PUSH1 0x0 DUP1 REVERT JUMPDEST POP CALLDATALOAD PUSH20 0xFFFFFFFFFFFFFFFFFFFFFFFFFFFFFFFFFFFFFFFF AND PUSH2 0xFCA JUMP JUMPDEST CALLVALUE DUP1 ISZERO PUSH2 0x5AA JUMPI PUSH1 0x0 DUP1 REVERT JUMPDEST POP PUSH2 0x1C4 PUSH1 0x4 DUP1 CALLDATASIZE SUB PUSH1 0x40 DUP2 LT ISZERO PUSH2 0x5C1 JUMPI PUSH1 0x0 DUP1 REVERT JUMPDEST POP PUSH20 0xFFFFFFFFFFFFFFFFFFFFFFFFFFFFFFFFFFFFFFFF DUP2 CALLDATALOAD AND SWAP1 PUSH1 0x20 ADD CALLDATALOAD ISZERO ISZERO PUSH2 0x1008 JUMP JUMPDEST CALLVALUE DUP1 ISZERO PUSH2 0x5F2 JUMPI PUSH1 0x0 DUP1 REVERT JUMPDEST POP PUSH2 0x1DB PUSH1 0x4 DUP1 CALLDATASIZE SUB PUSH1 0x20 DUP2 LT ISZERO PUSH2 0x609 JUMPI PUSH1 0x0 DUP1 REVERT JUMPDEST POP CALLDATALOAD PUSH20 0xFFFFFFFFFFFFFFFFFFFFFFFFFFFFFFFFFFFFFFFF AND PUSH2 0x1166 JUMP JUMPDEST CALLVALUE DUP1 ISZERO PUSH2 0x632 JUMPI PUSH1 0x0 DUP1 REVERT JUMPDEST POP PUSH2 0x1C4 PUSH1 0x4 DUP1 CALLDATASIZE SUB PUSH1 0x60 DUP2 LT ISZERO PUSH2 0x649 JUMPI PUSH1 0x0 DUP1 REVERT JUMPDEST POP PUSH20 0xFFFFFFFFFFFFFFFFFFFFFFFFFFFFFFFFFFFFFFFF DUP2 CALLDATALOAD DUP2 AND SWAP2 PUSH1 0x20 DUP2 ADD CALLDATALOAD SWAP1 SWAP2 AND SWAP1 PUSH1 0x40 ADD CALLDATALOAD ISZERO ISZERO PUSH2 0x11A5 JUMP JUMPDEST CALLVALUE DUP1 ISZERO PUSH2 0x684 JUMPI PUSH1 0x0 DUP1 REVERT JUMPDEST POP PUSH2 0x1C4 PUSH1 0x4 DUP1 CALLDATASIZE SUB PUSH1 0x20 DUP2 LT ISZERO PUSH2 0x69B JUMPI PUSH1 0x0 DUP1 REVERT JUMPDEST POP CALLDATALOAD PUSH20 0xFFFFFFFFFFFFFFFFFFFFFFFFFFFFFFFFFFFFFFFF AND PUSH2 0x1273 JUMP JUMPDEST CALLVALUE DUP1 ISZERO PUSH2 0x6C4 JUMPI PUSH1 0x0 DUP1 REVERT JUMPDEST POP PUSH2 0x1C4 PUSH1 0x4 DUP1 CALLDATASIZE SUB PUSH1 0x40 DUP2 LT ISZERO PUSH2 0x6DB JUMPI PUSH1 0x0 DUP1 REVERT JUMPDEST POP PUSH20 0xFFFFFFFFFFFFFFFFFFFFFFFFFFFFFFFFFFFFFFFF DUP2 CALLDATALOAD AND SWAP1 PUSH1 0x20 ADD CALLDATALOAD ISZERO ISZERO PUSH2 0x130C JUMP JUMPDEST CALLVALUE DUP1 ISZERO PUSH2 0x70C JUMPI PUSH1 0x0 DUP1 REVERT JUMPDEST POP PUSH2 0x1C4 PUSH1 0x4 DUP1 CALLDATASIZE SUB PUSH1 0x40 DUP2 LT ISZERO PUSH2 0x723 JUMPI PUSH1 0x0 DUP1 REVERT JUMPDEST POP PUSH20 0xFFFFFFFFFFFFFFFFFFFFFFFFFFFFFFFFFFFFFFFF DUP2 CALLDATALOAD AND SWAP1 PUSH1 0x20 ADD CALLDATALOAD ISZERO ISZERO PUSH2 0x133E JUMP JUMPDEST CALLVALUE DUP1 ISZERO PUSH2 0x754 JUMPI PUSH1 0x0 DUP1 REVERT JUMPDEST POP PUSH2 0x1C4 PUSH1 0x4 DUP1 CALLDATASIZE SUB PUSH1 0x40 DUP2 LT ISZERO PUSH2 0x76B JUMPI PUSH1 0x0 DUP1 REVERT JUMPDEST POP PUSH20 0xFFFFFFFFFFFFFFFFFFFFFFFFFFFFFFFFFFFFFFFF DUP2 CALLDATALOAD DUP2 AND SWAP2 PUSH1 0x20 ADD CALLDATALOAD AND PUSH2 0x14A0 JUMP JUMPDEST CALLVALUE DUP1 ISZERO PUSH2 0x79C JUMPI PUSH1 0x0 DUP1 REVERT JUMPDEST POP PUSH2 0x1C4 PUSH1 0x4 DUP1 CALLDATASIZE SUB PUSH1 0x40 DUP2 LT ISZERO PUSH2 0x7B3 JUMPI PUSH1 0x0 DUP1 REVERT JUMPDEST POP PUSH20 0xFFFFFFFFFFFFFFFFFFFFFFFFFFFFFFFFFFFFFFFF DUP2 CALLDATALOAD AND SWAP1 PUSH1 0x20 ADD CALLDATALOAD ISZERO ISZERO PUSH2 0x153D JUMP JUMPDEST CALLVALUE DUP1 ISZERO PUSH2 0x7E4 JUMPI PUSH1 0x0 DUP1 REVERT JUMPDEST POP PUSH2 0x1C4 PUSH1 0x4 DUP1 CALLDATASIZE SUB PUSH1 0x40 DUP2 LT ISZERO PUSH2 0x7FB JUMPI PUSH1 0x0 DUP1 REVERT JUMPDEST POP PUSH20 0xFFFFFFFFFFFFFFFFFFFFFFFFFFFFFFFFFFFFFFFF DUP2 CALLDATALOAD AND SWAP1 PUSH1 0x20 ADD CALLDATALOAD ISZERO ISZERO PUSH2 0x156B JUMP JUMPDEST CALLVALUE DUP1 ISZERO PUSH2 0x82C JUMPI PUSH1 0x0 DUP1 REVERT JUMPDEST POP PUSH2 0x835 PUSH2 0x16CA JUMP JUMPDEST PUSH1 0x40 DUP1 MLOAD PUSH1 0x20 DUP1 DUP3 MSTORE DUP4 MLOAD DUP2 DUP4 ADD MSTORE DUP4 MLOAD SWAP2 SWAP3 DUP4 SWAP3 SWAP1 DUP4 ADD SWAP2 DUP6 ADD SWAP1 DUP1 DUP4 DUP4 PUSH1 0x0 JUMPDEST DUP4 DUP2 LT ISZERO PUSH2 0x86F JUMPI DUP2 DUP2 ADD MLOAD DUP4 DUP3 ADD MSTORE PUSH1 0x20 ADD PUSH2 0x857 JUMP JUMPDEST POP POP POP POP SWAP1 POP SWAP1 DUP2 ADD SWAP1 PUSH1 0x1F AND DUP1 ISZERO PUSH2 0x89C JUMPI DUP1 DUP3 SUB DUP1 MLOAD PUSH1 0x1 DUP4 PUSH1 0x20 SUB PUSH2 0x100 EXP SUB NOT AND DUP2 MSTORE PUSH1 0x20 ADD SWAP2 POP JUMPDEST POP SWAP3 POP POP POP PUSH1 0x40 MLOAD DUP1 SWAP2 SUB SWAP1 RETURN JUMPDEST CALLVALUE DUP1 ISZERO PUSH2 0x8B6 JUMPI PUSH1 0x0 DUP1 REVERT JUMPDEST POP PUSH2 0x1C4 PUSH1 0x4 DUP1 CALLDATASIZE SUB PUSH1 0x20 DUP2 LT ISZERO PUSH2 0x8CD JUMPI PUSH1 0x0 DUP1 REVERT JUMPDEST POP CALLDATALOAD PUSH20 0xFFFFFFFFFFFFFFFFFFFFFFFFFFFFFFFFFFFFFFFF AND PUSH2 0x177A JUMP JUMPDEST CALLVALUE DUP1 ISZERO PUSH2 0x8F6 JUMPI PUSH1 0x0 DUP1 REVERT JUMPDEST POP PUSH2 0x1DB PUSH1 0x4 DUP1 CALLDATASIZE SUB PUSH1 0x40 DUP2 LT ISZERO PUSH2 0x90D JUMPI PUSH1 0x0 DUP1 REVERT JUMPDEST POP PUSH20 0xFFFFFFFFFFFFFFFFFFFFFFFFFFFFFFFFFFFFFFFF DUP2 CALLDATALOAD DUP2 AND SWAP2 PUSH1 0x20 ADD CALLDATALOAD AND PUSH2 0x1813 JUMP JUMPDEST CALLVALUE DUP1 ISZERO PUSH2 0x93E JUMPI PUSH1 0x0 DUP1 REVERT JUMPDEST POP PUSH2 0x1DB PUSH1 0x4 DUP1 CALLDATASIZE SUB PUSH1 0x20 DUP2 LT ISZERO PUSH2 0x955 JUMPI PUSH1 0x0 DUP1 REVERT JUMPDEST POP CALLDATALOAD PUSH20 0xFFFFFFFFFFFFFFFFFFFFFFFFFFFFFFFFFFFFFFFF AND PUSH2 0x184F JUMP JUMPDEST CALLVALUE DUP1 ISZERO PUSH2 0x97E JUMPI PUSH1 0x0 DUP1 REVERT JUMPDEST POP PUSH2 0x1C4 PUSH1 0x4 DUP1 CALLDATASIZE SUB PUSH1 0x60 DUP2 LT ISZERO PUSH2 0x995 JUMPI PUSH1 0x0 DUP1 REVERT JUMPDEST POP PUSH32 0xFFFFFFFF00000000000000000000000000000000000000000000000000000000 DUP2 CALLDATALOAD AND SWAP1 PUSH20 0xFFFFFFFFFFFFFFFFFFFFFFFFFFFFFFFFFFFFFFFF PUSH1 0x20 DUP3 ADD CALLDATALOAD AND SWAP1 PUSH1 0x40 ADD CALLDATALOAD ISZERO ISZERO PUSH2 0x1890 JUMP JUMPDEST PUSH1 0x0 SLOAD PUSH20 0xFFFFFFFFFFFFFFFFFFFFFFFFFFFFFFFFFFFFFFFF AND CALLER EQ PUSH2 0xA06 JUMPI PUSH1 0x0 DUP1 REVERT JUMPDEST PUSH20 0xFFFFFFFFFFFFFFFFFFFFFFFFFFFFFFFFFFFFFFFF DUP2 AND ISZERO ISZERO PUSH2 0xA28 JUMPI PUSH1 0x0 DUP1 REVERT JUMPDEST PUSH1 0x0 DUP1 SLOAD PUSH32 0xFFFFFFFFFFFFFFFFFFFFFFFF0000000000000000000000000000000000000000 AND PUSH20 0xFFFFFFFFFFFFFFFFFFFFFFFFFFFFFFFFFFFFFFFF DUP4 DUP2 AND SWAP2 DUP3 OR DUP1 DUP5 SSTORE PUSH1 0x40 MLOAD SWAP3 SWAP4 SWAP2 AND SWAP2 PUSH32 0x70AEA8D848E8A90FB7661B227DC522EB6395C3DAC71B63CB59EDD5C9899B2364 SWAP2 SWAP1 LOG3 POP JUMP JUMPDEST PUSH1 0x3 SLOAD PUSH20 0xFFFFFFFFFFFFFFFFFFFFFFFFFFFFFFFFFFFFFFFF AND PUSH1 0x0 SWAP1 DUP2 MSTORE PUSH1 0x4 PUSH1 0x20 MSTORE PUSH1 0x40 SWAP1 KECCAK256 SLOAD PUSH1 0xFF AND SWAP1 JUMP JUMPDEST PUSH1 0x3 SLOAD PUSH20 0xFFFFFFFFFFFFFFFFFFFFFFFFFFFFFFFFFFFFFFFF AND SWAP1 JUMP JUMPDEST PUSH20 0xFFFFFFFFFFFFFFFFFFFFFFFFFFFFFFFFFFFFFFFF AND PUSH1 0x0 SWAP1 DUP2 MSTORE PUSH1 0xB PUSH1 0x20 SWAP1 DUP2 MSTORE PUSH1 0x40 DUP1 DUP4 KECCAK256 PUSH1 0x1 DUP1 DUP6 MSTORE ADD SWAP1 SWAP2 MSTORE SWAP1 KECCAK256 SLOAD PUSH4 0x1000000 SWAP1 DIV PUSH1 0xFF AND SWAP1 JUMP JUMPDEST PUSH2 0xB2E CALLER PUSH2 0x197E JUMP JUMPDEST ISZERO ISZERO PUSH2 0xB39 JUMPI PUSH1 0x0 DUP1 REVERT JUMPDEST PUSH20 0xFFFFFFFFFFFFFFFFFFFFFFFFFFFFFFFFFFFFFFFF DUP1 DUP4 AND PUSH1 0x0 DUP2 DUP2 MSTORE PUSH1 0xB PUSH1 0x20 SWAP1 DUP2 MSTORE PUSH1 0x40 DUP1 DUP4 KECCAK256 DUP1 SLOAD DUP8 ISZERO ISZERO PUSH21 0x10000000000000000000000000000000000000000 DUP2 MUL PUSH32 0xFFFFFFFFFFFFFFFFFFFFFF00FFFFFFFFFFFFFFFFFFFFFFFFFFFFFFFFFFFFFFFF PUSH32 0xFFFFFFFFFFFFFFFFFFFFFFFF0000000000000000000000000000000000000000 SWAP4 DUP5 AND DUP10 OR AND OR DUP4 SSTORE DUP1 DUP7 MSTORE PUSH1 0x1 SWAP3 DUP4 ADD DUP6 MSTORE DUP4 DUP7 KECCAK256 DUP1 SLOAD PUSH5 0x100000000 DUP4 MUL PUSH32 0xFFFFFFFFFFFFFFFFFFFFFFFFFFFFFFFFFFFFFFFFFFFFFFFFFFFFFF00FFFFFFFF SWAP1 SWAP2 AND OR SWAP1 SSTORE DUP4 MLOAD DUP1 DUP7 ADD DUP6 MSTORE DUP8 DUP2 MSTORE PUSH1 0xA DUP1 SLOAD SWAP5 DUP6 ADD DUP2 SSTORE SWAP1 SWAP7 MSTORE SWAP5 MLOAD PUSH32 0xC65A7BB8D6351C1CF70C95A316CC6A92839C986682D98BC35F958F4883F9D2A8 SWAP1 SWAP3 ADD DUP1 SLOAD SWAP3 SWAP1 SWAP8 AND SWAP2 AND OR SWAP1 SWAP5 SSTORE DUP4 MLOAD SWAP2 DUP3 MSTORE SWAP3 MLOAD SWAP2 SWAP3 PUSH32 0x7AEF30A25CE3716A35BED040CBE56C5C3634C99FD57F50FD37A8B9187AF04C9D SWAP3 SWAP2 DUP3 SWAP1 SUB ADD SWAP1 LOG2 POP POP JUMP JUMPDEST PUSH1 0x0 SLOAD PUSH20 0xFFFFFFFFFFFFFFFFFFFFFFFFFFFFFFFFFFFFFFFF AND CALLER EQ PUSH2 0xCAA JUMPI PUSH1 0x0 DUP1 REVERT JUMPDEST PUSH1 0x3 DUP1 SLOAD PUSH32 0xFFFFFFFFFFFFFFFFFFFFFFFF0000000000000000000000000000000000000000 AND PUSH20 0xFFFFFFFFFFFFFFFFFFFFFFFFFFFFFFFFFFFFFFFF DUP4 DUP2 AND SWAP2 DUP3 OR DUP4 SSTORE PUSH1 0x0 SWAP2 DUP3 MSTORE PUSH1 0x4 PUSH1 0x20 MSTORE PUSH1 0x40 DUP1 DUP4 KECCAK256 DUP1 SLOAD PUSH32 0xFFFFFFFFFFFFFFFFFFFFFFFFFFFFFFFFFFFFFFFFFFFFFFFFFFFFFFFFFFFFFF00 AND PUSH1 0x1 OR SWAP1 SSTORE SWAP3 SLOAD SWAP3 MLOAD SWAP3 AND SWAP2 PUSH32 0xF62B7326BB5F6084A70482A099D3DED86DE8CFBBFCEA28E4F5B04AD693BF55CE SWAP2 SWAP1 LOG2 POP JUMP JUMPDEST PUSH1 0x0 SLOAD PUSH20 0xFFFFFFFFFFFFFFFFFFFFFFFFFFFFFFFFFFFFFFFF AND CALLER EQ DUP1 PUSH2 0xD7D JUMPI POP PUSH2 0xD7D CALLER PUSH2 0x197E JUMP JUMPDEST ISZERO ISZERO PUSH2 0xD88 JUMPI PUSH1 0x0 DUP1 REVERT JUMPDEST PUSH20 0xFFFFFFFFFFFFFFFFFFFFFFFFFFFFFFFFFFFFFFFF DUP3 DUP2 AND PUSH1 0x0 SWAP1 DUP2 MSTORE PUSH1 0x8 PUSH1 0x20 SWAP1 DUP2 MSTORE PUSH1 0x40 DUP1 DUP4 KECCAK256 SWAP4 DUP8 AND DUP1 DUP5 MSTORE SWAP4 DUP3 MSTORE SWAP2 DUP3 SWAP1 KECCAK256 DUP1 SLOAD PUSH32 0xFFFFFFFFFFFFFFFFFFFFFFFFFFFFFFFFFFFFFFFFFFFFFFFFFFFFFFFFFFFFFF00 AND DUP6 ISZERO ISZERO SWAP1 DUP2 OR SWAP1 SWAP2 SSTORE DUP3 MLOAD SWAP1 DUP2 MSTORE SWAP2 MLOAD PUSH32 0xB4E51190AC09D88100031DE9D538EDA33E031FF4EA0598F973DCB1531CE12EB1 SWAP3 DUP2 SWAP1 SUB SWAP1 SWAP2 ADD SWAP1 LOG2 POP POP POP JUMP JUMPDEST PUSH20 0xFFFFFFFFFFFFFFFFFFFFFFFFFFFFFFFFFFFFFFFF SWAP1 DUP2 AND PUSH1 0x0 SWAP1 DUP2 MSTORE PUSH1 0x5 PUSH1 0x20 MSTORE PUSH1 0x40 SWAP1 KECCAK256 SLOAD AND SWAP1 JUMP JUMPDEST PUSH20 0xFFFFFFFFFFFFFFFFFFFFFFFFFFFFFFFFFFFFFFFF DUP1 DUP3 AND PUSH1 0x0 SWAP1 DUP2 MSTORE PUSH1 0x8 PUSH1 0x20 SWAP1 DUP2 MSTORE PUSH1 0x40 DUP1 DUP4 KECCAK256 SWAP4 DUP7 AND DUP4 MSTORE SWAP3 SWAP1 MSTORE KECCAK256 SLOAD PUSH1 0xFF AND SWAP3 SWAP2 POP POP JUMP JUMPDEST PUSH20 0xFFFFFFFFFFFFFFFFFFFFFFFFFFFFFFFFFFFFFFFF AND PUSH1 0x0 SWAP1 DUP2 MSTORE PUSH1 0xB PUSH1 0x20 SWAP1 DUP2 MSTORE PUSH1 0x40 DUP1 DUP4 KECCAK256 PUSH1 0x1 DUP1 DUP6 MSTORE ADD SWAP1 SWAP2 MSTORE SWAP1 KECCAK256 SLOAD PUSH6 0x10000000000 SWAP1 DIV PUSH1 0xFF AND SWAP1 JUMP JUMPDEST PUSH1 0x2 SLOAD PUSH20 0xFFFFFFFFFFFFFFFFFFFFFFFFFFFFFFFFFFFFFFFF AND SWAP1 JUMP JUMPDEST PUSH1 0xB PUSH1 0x20 MSTORE PUSH1 0x0 SWAP1 DUP2 MSTORE PUSH1 0x40 SWAP1 KECCAK256 SLOAD PUSH20 0xFFFFFFFFFFFFFFFFFFFFFFFFFFFFFFFFFFFFFFFF DUP2 AND SWAP1 PUSH21 0x10000000000000000000000000000000000000000 SWAP1 DIV PUSH1 0xFF AND DUP3 JUMP JUMPDEST PUSH20 0xFFFFFFFFFFFFFFFFFFFFFFFFFFFFFFFFFFFFFFFF AND PUSH1 0x0 SWAP1 DUP2 MSTORE PUSH1 0x6 PUSH1 0x20 SWAP1 DUP2 MSTORE PUSH1 0x40 DUP1 DUP4 KECCAK256 PUSH32 0xFFFFFFFF00000000000000000000000000000000000000000000000000000000 SWAP5 SWAP1 SWAP5 AND DUP4 MSTORE SWAP3 SWAP1 MSTORE KECCAK256 SLOAD PUSH1 0xFF AND SWAP1 JUMP JUMPDEST PUSH1 0x0 SLOAD PUSH20 0xFFFFFFFFFFFFFFFFFFFFFFFFFFFFFFFFFFFFFFFF AND DUP2 JUMP JUMPDEST PUSH1 0x1 SLOAD PUSH1 0x2 SLOAD PUSH1 0x3 SLOAD PUSH20 0xFFFFFFFFFFFFFFFFFFFFFFFFFFFFFFFFFFFFFFFF SWAP3 DUP4 AND SWAP3 SWAP2 DUP3 AND SWAP2 AND DUP4 JUMP JUMPDEST PUSH20 0xFFFFFFFFFFFFFFFFFFFFFFFFFFFFFFFFFFFFFFFF AND PUSH1 0x0 SWAP1 DUP2 MSTORE PUSH1 0xB PUSH1 0x20 SWAP1 DUP2 MSTORE PUSH1 0x40 DUP1 DUP4 KECCAK256 PUSH1 0x1 DUP1 DUP6 MSTORE ADD SWAP1 SWAP2 MSTORE SWAP1 KECCAK256 SLOAD PUSH2 0x100 SWAP1 DIV PUSH1 0xFF AND SWAP1 JUMP JUMPDEST PUSH2 0x1011 CALLER PUSH2 0x197E JUMP JUMPDEST ISZERO ISZERO PUSH2 0x101C JUMPI PUSH1 0x0 DUP1 REVERT JUMPDEST PUSH20 0xFFFFFFFFFFFFFFFFFFFFFFFFFFFFFFFFFFFFFFFF DUP1 DUP4 AND PUSH1 0x0 DUP2 DUP2 MSTORE PUSH1 0xB PUSH1 0x20 SWAP1 DUP2 MSTORE PUSH1 0x40 DUP1 DUP4 KECCAK256 DUP1 SLOAD DUP8 ISZERO ISZERO PUSH21 0x10000000000000000000000000000000000000000 DUP2 MUL PUSH32 0xFFFFFFFFFFFFFFFFFFFFFF00FFFFFFFFFFFFFFFFFFFFFFFFFFFFFFFFFFFFFFFF PUSH32 0xFFFFFFFFFFFFFFFFFFFFFFFF0000000000000000000000000000000000000000 SWAP4 DUP5 AND DUP10 OR AND OR DUP4 SSTORE DUP1 DUP7 MSTORE PUSH1 0x1 SWAP3 DUP4 ADD DUP6 MSTORE DUP4 DUP7 KECCAK256 DUP1 SLOAD PUSH2 0x100 DUP4 MUL PUSH32 0xFFFFFFFFFFFFFFFFFFFFFFFFFFFFFFFFFFFFFFFFFFFFFFFFFFFFFFFFFFFF00FF SWAP1 SWAP2 AND OR SWAP1 SSTORE DUP4 MLOAD DUP1 DUP7 ADD DUP6 MSTORE DUP8 DUP2 MSTORE PUSH1 0xA DUP1 SLOAD SWAP5 DUP6 ADD DUP2 SSTORE SWAP1 SWAP7 MSTORE SWAP5 MLOAD PUSH32 0xC65A7BB8D6351C1CF70C95A316CC6A92839C986682D98BC35F958F4883F9D2A8 SWAP1 SWAP3 ADD DUP1 SLOAD SWAP3 SWAP1 SWAP8 AND SWAP2 AND OR SWAP1 SWAP5 SSTORE DUP4 MLOAD SWAP2 DUP3 MSTORE SWAP3 MLOAD SWAP2 SWAP3 PUSH32 0xB541B66AAAB15841E9F8A3A40FC50B777DDD85DC6378CFC6389A973D2117C7D5 SWAP3 SWAP2 DUP3 SWAP1 SUB ADD SWAP1 LOG2 POP POP JUMP JUMPDEST PUSH20 0xFFFFFFFFFFFFFFFFFFFFFFFFFFFFFFFFFFFFFFFF AND PUSH1 0x0 SWAP1 DUP2 MSTORE PUSH1 0xB PUSH1 0x20 SWAP1 DUP2 MSTORE PUSH1 0x40 DUP1 DUP4 KECCAK256 PUSH1 0x1 DUP1 DUP6 MSTORE ADD SWAP1 SWAP2 MSTORE SWAP1 KECCAK256 SLOAD PUSH3 0x10000 SWAP1 DIV PUSH1 0xFF AND SWAP1 JUMP JUMPDEST PUSH1 0x0 SLOAD PUSH20 0xFFFFFFFFFFFFFFFFFFFFFFFFFFFFFFFFFFFFFFFF AND CALLER EQ DUP1 PUSH2 0x11CF JUMPI POP PUSH2 0x11CF CALLER PUSH2 0x197E JUMP JUMPDEST ISZERO ISZERO PUSH2 0x11DA JUMPI PUSH1 0x0 DUP1 REVERT JUMPDEST PUSH20 0xFFFFFFFFFFFFFFFFFFFFFFFFFFFFFFFFFFFFFFFF DUP3 DUP2 AND PUSH1 0x0 SWAP1 DUP2 MSTORE PUSH1 0x7 PUSH1 0x20 SWAP1 DUP2 MSTORE PUSH1 0x40 DUP1 DUP4 KECCAK256 SWAP4 DUP8 AND DUP1 DUP5 MSTORE SWAP4 DUP3 MSTORE SWAP2 DUP3 SWAP1 KECCAK256 DUP1 SLOAD PUSH32 0xFFFFFFFFFFFFFFFFFFFFFFFFFFFFFFFFFFFFFFFFFFFFFFFFFFFFFFFFFFFFFF00 AND DUP6 ISZERO ISZERO SWAP1 DUP2 OR SWAP1 SWAP2 SSTORE DUP3 MLOAD SWAP1 DUP2 MSTORE SWAP2 MLOAD PUSH32 0xB4E51190AC09D88100031DE9D538EDA33E031FF4EA0598F973DCB1531CE12EB1 SWAP3 DUP2 SWAP1 SUB SWAP1 SWAP2 ADD SWAP1 LOG2 POP POP POP JUMP JUMPDEST PUSH1 0x0 SLOAD PUSH20 0xFFFFFFFFFFFFFFFFFFFFFFFFFFFFFFFFFFFFFFFF AND CALLER EQ PUSH2 0x1297 JUMPI PUSH1 0x0 DUP1 REVERT JUMPDEST PUSH1 0x1 DUP1 SLOAD PUSH32 0xFFFFFFFFFFFFFFFFFFFFFFFF0000000000000000000000000000000000000000 AND PUSH20 0xFFFFFFFFFFFFFFFFFFFFFFFFFFFFFFFFFFFFFFFF DUP4 DUP2 AND SWAP2 SWAP1 SWAP2 OR SWAP2 DUP3 SWAP1 SSTORE PUSH1 0x40 MLOAD SWAP2 AND SWAP1 PUSH32 0x357D1BA45E9EF3FB937F4B33A26A6EFED1B2F40114460D16FBFCE82ACA415755 SWAP1 PUSH1 0x0 SWAP1 LOG2 POP JUMP JUMPDEST PUSH1 0x0 SLOAD PUSH20 0xFFFFFFFFFFFFFFFFFFFFFFFFFFFFFFFFFFFFFFFF AND CALLER EQ PUSH2 0x1330 JUMPI PUSH1 0x0 DUP1 REVERT JUMPDEST PUSH2 0x133A DUP3 DUP3 PUSH2 0x19B7 JUMP JUMPDEST POP POP JUMP JUMPDEST PUSH2 0x1347 CALLER PUSH2 0x197E JUMP JUMPDEST ISZERO ISZERO PUSH2 0x1352 JUMPI PUSH1 0x0 DUP1 REVERT JUMPDEST PUSH20 0xFFFFFFFFFFFFFFFFFFFFFFFFFFFFFFFFFFFFFFFF DUP1 DUP4 AND PUSH1 0x0 DUP2 DUP2 MSTORE PUSH1 0xB PUSH1 0x20 SWAP1 DUP2 MSTORE PUSH1 0x40 DUP1 DUP4 KECCAK256 DUP1 SLOAD DUP8 ISZERO ISZERO PUSH21 0x10000000000000000000000000000000000000000 DUP2 MUL PUSH32 0xFFFFFFFFFFFFFFFFFFFFFF00FFFFFFFFFFFFFFFFFFFFFFFFFFFFFFFFFFFFFFFF PUSH32 0xFFFFFFFFFFFFFFFFFFFFFFFF0000000000000000000000000000000000000000 SWAP4 DUP5 AND DUP10 OR AND OR DUP4 SSTORE DUP1 DUP7 MSTORE PUSH1 0x1 SWAP3 DUP4 ADD DUP6 MSTORE DUP4 DUP7 KECCAK256 DUP1 SLOAD PUSH6 0x10000000000 DUP4 MUL PUSH32 0xFFFFFFFFFFFFFFFFFFFFFFFFFFFFFFFFFFFFFFFFFFFFFFFFFFFF00FFFFFFFFFF SWAP1 SWAP2 AND OR SWAP1 SSTORE DUP4 MLOAD DUP1 DUP7 ADD DUP6 MSTORE DUP8 DUP2 MSTORE PUSH1 0xA DUP1 SLOAD SWAP5 DUP6 ADD DUP2 SSTORE SWAP1 SWAP7 MSTORE SWAP5 MLOAD PUSH32 0xC65A7BB8D6351C1CF70C95A316CC6A92839C986682D98BC35F958F4883F9D2A8 SWAP1 SWAP3 ADD DUP1 SLOAD SWAP3 SWAP1 SWAP8 AND SWAP2 AND OR SWAP1 SWAP5 SSTORE DUP4 MLOAD SWAP2 DUP3 MSTORE SWAP3 MLOAD SWAP2 SWAP3 PUSH32 0x3F3EED7EAAE83DC29780651CD8137DFF8325C81EEA4C1091AC034A5572E1E2EF SWAP3 SWAP2 DUP3 SWAP1 SUB ADD SWAP1 LOG2 POP POP JUMP JUMPDEST PUSH1 0x0 SLOAD PUSH20 0xFFFFFFFFFFFFFFFFFFFFFFFFFFFFFFFFFFFFFFFF AND CALLER EQ PUSH2 0x14C4 JUMPI PUSH1 0x0 DUP1 REVERT JUMPDEST PUSH20 0xFFFFFFFFFFFFFFFFFFFFFFFFFFFFFFFFFFFFFFFF DUP3 DUP2 AND SWAP1 DUP3 AND EQ ISZERO PUSH2 0x14EA JUMPI PUSH1 0x0 DUP1 REVERT JUMPDEST PUSH20 0xFFFFFFFFFFFFFFFFFFFFFFFFFFFFFFFFFFFFFFFF SWAP2 DUP3 AND PUSH1 0x0 SWAP1 DUP2 MSTORE PUSH1 0x5 PUSH1 0x20 MSTORE PUSH1 0x40 SWAP1 KECCAK256 DUP1 SLOAD PUSH32 0xFFFFFFFFFFFFFFFFFFFFFFFF0000000000000000000000000000000000000000 AND SWAP2 SWAP1 SWAP3 AND OR SWAP1 SSTORE JUMP JUMPDEST PUSH1 0x0 SLOAD PUSH20 0xFFFFFFFFFFFFFFFFFFFFFFFFFFFFFFFFFFFFFFFF AND CALLER EQ PUSH2 0x1561 JUMPI PUSH1 0x0 DUP1 REVERT JUMPDEST PUSH2 0x133A DUP3 DUP3 PUSH2 0x1B46 JUMP JUMPDEST PUSH2 0x1574 CALLER PUSH2 0x197E JUMP JUMPDEST ISZERO ISZERO PUSH2 0x157F JUMPI PUSH1 0x0 DUP1 REVERT JUMPDEST PUSH20 0xFFFFFFFFFFFFFFFFFFFFFFFFFFFFFFFFFFFFFFFF DUP1 DUP4 AND PUSH1 0x0 DUP2 DUP2 MSTORE PUSH1 0xB PUSH1 0x20 SWAP1 DUP2 MSTORE PUSH1 0x40 DUP1 DUP4 KECCAK256 DUP1 SLOAD DUP8 ISZERO ISZERO PUSH21 0x10000000000000000000000000000000000000000 DUP2 MUL PUSH32 0xFFFFFFFFFFFFFFFFFFFFFF00FFFFFFFFFFFFFFFFFFFFFFFFFFFFFFFFFFFFFFFF PUSH32 0xFFFFFFFFFFFFFFFFFFFFFFFF0000000000000000000000000000000000000000 SWAP4 DUP5 AND DUP10 OR AND OR DUP4 SSTORE DUP1 DUP7 MSTORE PUSH1 0x1 SWAP3 DUP4 ADD DUP6 MSTORE DUP4 DUP7 KECCAK256 DUP1 SLOAD PUSH3 0x10000 DUP4 MUL PUSH32 0xFFFFFFFFFFFFFFFFFFFFFFFFFFFFFFFFFFFFFFFFFFFFFFFFFFFFFFFFFF00FFFF SWAP1 SWAP2 AND OR SWAP1 SSTORE DUP4 MLOAD DUP1 DUP7 ADD DUP6 MSTORE DUP8 DUP2 MSTORE PUSH1 0xA DUP1 SLOAD SWAP5 DUP6 ADD DUP2 SSTORE SWAP1 SWAP7 MSTORE SWAP5 MLOAD PUSH32 0xC65A7BB8D6351C1CF70C95A316CC6A92839C986682D98BC35F958F4883F9D2A8 SWAP1 SWAP3 ADD DUP1 SLOAD SWAP3 SWAP1 SWAP8 AND SWAP2 AND OR SWAP1 SWAP5 SSTORE DUP4 MLOAD SWAP2 DUP3 MSTORE SWAP3 MLOAD SWAP2 SWAP3 PUSH32 0xB4E51190AC09D88100031DE9D538EDA33E031FF4EA0598F973DCB1531CE12EB1 SWAP3 SWAP2 DUP3 SWAP1 SUB ADD SWAP1 LOG2 POP POP JUMP JUMPDEST PUSH1 0x9 DUP1 SLOAD PUSH1 0x40 DUP1 MLOAD PUSH1 0x20 PUSH1 0x1F PUSH1 0x2 PUSH32 0xFFFFFFFFFFFFFFFFFFFFFFFFFFFFFFFFFFFFFFFFFFFFFFFFFFFFFFFFFFFFFFFF PUSH2 0x100 PUSH1 0x1 DUP9 AND ISZERO MUL ADD SWAP1 SWAP6 AND SWAP5 SWAP1 SWAP5 DIV SWAP4 DUP5 ADD DUP2 SWAP1 DIV DUP2 MUL DUP3 ADD DUP2 ADD SWAP1 SWAP3 MSTORE DUP3 DUP2 MSTORE SWAP2 DUP4 SWAP2 DUP4 ADD DUP3 DUP3 DUP1 ISZERO PUSH2 0x1770 JUMPI DUP1 PUSH1 0x1F LT PUSH2 0x1745 JUMPI PUSH2 0x100 DUP1 DUP4 SLOAD DIV MUL DUP4 MSTORE SWAP2 PUSH1 0x20 ADD SWAP2 PUSH2 0x1770 JUMP JUMPDEST DUP3 ADD SWAP2 SWAP1 PUSH1 0x0 MSTORE PUSH1 0x20 PUSH1 0x0 KECCAK256 SWAP1 JUMPDEST DUP2 SLOAD DUP2 MSTORE SWAP1 PUSH1 0x1 ADD SWAP1 PUSH1 0x20 ADD DUP1 DUP4 GT PUSH2 0x1753 JUMPI DUP3 SWAP1 SUB PUSH1 0x1F AND DUP3 ADD SWAP2 JUMPDEST POP POP POP POP POP SWAP1 POP DUP2 JUMP JUMPDEST PUSH1 0x0 SLOAD PUSH20 0xFFFFFFFFFFFFFFFFFFFFFFFFFFFFFFFFFFFFFFFF AND CALLER EQ PUSH2 0x179E JUMPI PUSH1 0x0 DUP1 REVERT JUMPDEST PUSH1 0x2 DUP1 SLOAD PUSH32 0xFFFFFFFFFFFFFFFFFFFFFFFF0000000000000000000000000000000000000000 AND PUSH20 0xFFFFFFFFFFFFFFFFFFFFFFFFFFFFFFFFFFFFFFFF DUP4 DUP2 AND SWAP2 SWAP1 SWAP2 OR SWAP2 DUP3 SWAP1 SSTORE PUSH1 0x40 MLOAD SWAP2 AND SWAP1 PUSH32 0x95DCB20E52ED37833185C8B850BF9FA7990BDB0F232209C82B0A97A0A3A602E1 SWAP1 PUSH1 0x0 SWAP1 LOG2 POP JUMP JUMPDEST PUSH20 0xFFFFFFFFFFFFFFFFFFFFFFFFFFFFFFFFFFFFFFFF DUP1 DUP3 AND PUSH1 0x0 SWAP1 DUP2 MSTORE PUSH1 0x7 PUSH1 0x20 SWAP1 DUP2 MSTORE PUSH1 0x40 DUP1 DUP4 KECCAK256 SWAP4 DUP7 AND DUP4 MSTORE SWAP3 SWAP1 MSTORE KECCAK256 SLOAD PUSH1 0xFF AND SWAP3 SWAP2 POP POP JUMP JUMPDEST PUSH20 0xFFFFFFFFFFFFFFFFFFFFFFFFFFFFFFFFFFFFFFFF AND PUSH1 0x0 SWAP1 DUP2 MSTORE PUSH1 0xB PUSH1 0x20 SWAP1 DUP2 MSTORE PUSH1 0x40 DUP1 DUP4 KECCAK256 PUSH1 0x1 DUP1 DUP6 MSTORE ADD SWAP1 SWAP2 MSTORE SWAP1 KECCAK256 SLOAD PUSH5 0x100000000 SWAP1 DIV PUSH1 0xFF AND SWAP1 JUMP JUMPDEST PUSH1 0x0 SLOAD PUSH20 0xFFFFFFFFFFFFFFFFFFFFFFFFFFFFFFFFFFFFFFFF AND CALLER EQ DUP1 PUSH2 0x18BA JUMPI POP PUSH2 0x18BA CALLER PUSH2 0x197E JUMP JUMPDEST ISZERO ISZERO PUSH2 0x18C5 JUMPI PUSH1 0x0 DUP1 REVERT JUMPDEST PUSH20 0xFFFFFFFFFFFFFFFFFFFFFFFFFFFFFFFFFFFFFFFF DUP3 AND PUSH1 0x0 DUP2 DUP2 MSTORE PUSH1 0x6 PUSH1 0x20 SWAP1 DUP2 MSTORE PUSH1 0x40 DUP1 DUP4 KECCAK256 PUSH32 0xFFFFFFFF00000000000000000000000000000000000000000000000000000000 DUP9 AND DUP1 DUP6 MSTORE SWAP1 DUP4 MSTORE SWAP3 DUP2 SWAP1 KECCAK256 DUP1 SLOAD PUSH32 0xFFFFFFFFFFFFFFFFFFFFFFFFFFFFFFFFFFFFFFFFFFFFFFFFFFFFFFFFFFFFFF00 AND DUP7 ISZERO ISZERO SWAP1 DUP2 OR SWAP1 SWAP2 SSTORE DUP2 MLOAD SWAP1 DUP2 MSTORE SWAP1 MLOAD PUSH32 0x3F8A1234A535CF651C4BCC3D4C56B68D7FF3264D0C4C8A3675245853F7851A11 SWAP3 SWAP2 DUP2 SWAP1 SUB SWAP1 SWAP2 ADD SWAP1 LOG3 POP POP POP JUMP JUMPDEST PUSH20 0xFFFFFFFFFFFFFFFFFFFFFFFFFFFFFFFFFFFFFFFF AND PUSH1 0x0 SWAP1 DUP2 MSTORE PUSH1 0xB PUSH1 0x20 SWAP1 DUP2 MSTORE PUSH1 0x40 DUP1 DUP4 KECCAK256 PUSH1 0x1 DUP1 DUP6 MSTORE ADD SWAP1 SWAP2 MSTORE SWAP1 KECCAK256 SLOAD PUSH1 0xFF AND SWAP1 JUMP JUMPDEST PUSH20 0xFFFFFFFFFFFFFFFFFFFFFFFFFFFFFFFFFFFFFFFF DUP3 AND PUSH1 0x0 DUP2 DUP2 MSTORE PUSH1 0xB PUSH1 0x20 SWAP1 DUP2 MSTORE PUSH1 0x40 DUP1 DUP4 KECCAK256 DUP1 SLOAD PUSH32 0xFFFFFFFFFFFFFFFFFFFFFFFF0000000000000000000000000000000000000000 AND SWAP1 SWAP5 OR PUSH32 0xFFFFFFFFFFFFFFFFFFFFFF00FFFFFFFFFFFFFFFFFFFFFFFFFFFFFFFFFFFFFFFF AND PUSH21 0x10000000000000000000000000000000000000000 DUP7 ISZERO ISZERO SWAP1 DUP2 MUL SWAP2 SWAP1 SWAP2 OR DUP6 SSTORE DUP1 DUP5 MSTORE PUSH1 0x1 SWAP1 SWAP5 ADD SWAP1 SWAP2 MSTORE SWAP1 KECCAK256 DUP1 SLOAD PUSH32 0xFFFFFFFFFFFFFFFFFFFFFFFFFFFFFFFFFFFFFFFFFFFFFFFFFFFFFFFF00FFFFFF AND PUSH4 0x1000000 SWAP1 SWAP3 MUL SWAP2 SWAP1 SWAP2 OR SWAP1 SSTORE PUSH2 0x1A93 DUP3 DUP3 PUSH2 0x1B46 JUMP JUMPDEST PUSH1 0x40 DUP1 MLOAD PUSH1 0x20 DUP2 ADD DUP3 MSTORE PUSH20 0xFFFFFFFFFFFFFFFFFFFFFFFFFFFFFFFFFFFFFFFF DUP5 DUP2 AND DUP1 DUP4 MSTORE PUSH1 0xA DUP1 SLOAD PUSH1 0x1 DUP2 ADD DUP3 SSTORE PUSH1 0x0 SWAP2 DUP3 MSTORE SWAP4 MLOAD PUSH32 0xC65A7BB8D6351C1CF70C95A316CC6A92839C986682D98BC35F958F4883F9D2A8 SWAP1 SWAP5 ADD DUP1 SLOAD PUSH32 0xFFFFFFFFFFFFFFFFFFFFFFFF0000000000000000000000000000000000000000 AND SWAP5 SWAP1 SWAP4 AND SWAP4 SWAP1 SWAP4 OR SWAP1 SWAP2 SSTORE SWAP2 MLOAD PUSH32 0x17898FD7375CA5152626D6FDD4CEB2BCE6CC033C9B61E254DD0087D5F8B47430 SWAP2 SWAP1 LOG2 POP POP JUMP JUMPDEST PUSH20 0xFFFFFFFFFFFFFFFFFFFFFFFFFFFFFFFFFFFFFFFF DUP1 DUP4 AND PUSH1 0x0 DUP2 DUP2 MSTORE PUSH1 0xB PUSH1 0x20 SWAP1 DUP2 MSTORE PUSH1 0x40 DUP1 DUP4 KECCAK256 DUP1 SLOAD DUP8 ISZERO ISZERO PUSH21 0x10000000000000000000000000000000000000000 DUP2 MUL PUSH32 0xFFFFFFFFFFFFFFFFFFFFFF00FFFFFFFFFFFFFFFFFFFFFFFFFFFFFFFFFFFFFFFF PUSH32 0xFFFFFFFFFFFFFFFFFFFFFFFF0000000000000000000000000000000000000000 SWAP4 DUP5 AND DUP10 OR AND OR DUP4 SSTORE DUP1 DUP7 MSTORE PUSH1 0x1 SWAP3 DUP4 ADD DUP6 MSTORE DUP4 DUP7 KECCAK256 DUP1 SLOAD PUSH32 0xFFFFFFFFFFFFFFFFFFFFFFFFFFFFFFFFFFFFFFFFFFFFFFFFFFFFFFFFFFFFFF00 AND SWAP1 SWAP2 OR SWAP1 SSTORE DUP3 MLOAD SWAP4 DUP5 ADD DUP4 MSTORE DUP6 DUP5 MSTORE PUSH1 0xA DUP1 SLOAD SWAP3 DUP4 ADD DUP2 SSTORE DUP6 MSTORE SWAP3 MLOAD PUSH32 0xC65A7BB8D6351C1CF70C95A316CC6A92839C986682D98BC35F958F4883F9D2A8 SWAP1 SWAP2 ADD DUP1 SLOAD SWAP2 SWAP1 SWAP7 AND SWAP3 AND SWAP2 SWAP1 SWAP2 OR SWAP1 SWAP4 SSTORE SWAP2 MLOAD SWAP1 SWAP2 PUSH32 0xA9327C1E2B316C1E4412BC43A5BC2B0C629ECDE4F1C9E21911D02AC8B3AD42D SWAP2 LOG2 POP POP JUMP INVALID LOG1 PUSH6 0x627A7A723058 KECCAK256 CODECOPY 0xcc DUP14 MULMOD 0xdd 0xa7 GAS GASPRICE BLOCKHASH 0xfc MLOAD 0xfb SWAP9 0xc8 XOR 0xb8 LOG0 CODECOPY 0xc4 SWAP5 0xdb 0xb1 SUB 0xd3 0x49 0xa8 0xc8 PUSH12 0x6BFD9E3F0029000000000000 "
			}
		}
	},
	"sourceTreeHashHex": "0x3ef3f30b3c0636388a17287778e5a3819fa400fab44d54a1551d49e75b59a622",
	"compiler": {
		"name": "solc",
		"version": "0.5.0+commit.1d4f565a",
		"settings": {
			"remappings": [],
			"optimizer": {
				"enabled": true,
				"runs": 1000000
			},
			"outputSelection": {
				"*": {
					"*": [
						"abi",
						"devdoc",
						"evm.bytecode.object",
						"evm.bytecode.sourceMap",
						"evm.deployedBytecode.object",
						"evm.deployedBytecode.sourceMap"
					]
				}
			}
		}
	},
	"chains": {}
}