{
	"schemaVersion": "2.0.0",
	"contractName": "Faucet",
	"compilerOutput": {
		"abi": [
			{
				"constant": true,
				"inputs": [],
				"name": "faucetStatus",
				"outputs": [
					{
						"name": "",
						"type": "bool"
					}
				],
				"payable": false,
				"stateMutability": "view",
				"type": "function"
			},
			{
				"constant": false,
				"inputs": [
					{
						"name": "_new",
						"type": "address"
					}
				],
				"name": "setOwner",
				"outputs": [],
				"payable": false,
				"stateMutability": "nonpayable",
				"type": "function"
			},
			{
				"constant": false,
				"inputs": [
					{
						"name": "_value",
						"type": "uint256"
					}
				],
				"name": "withdraw",
				"outputs": [
					{
						"name": "success",
						"type": "bool"
					}
				],
				"payable": false,
				"stateMutability": "nonpayable",
				"type": "function"
			},
			{
				"constant": true,
				"inputs": [],
				"name": "faucetName",
				"outputs": [
					{
						"name": "",
						"type": "string"
					}
				],
				"payable": false,
				"stateMutability": "view",
				"type": "function"
			},
			{
				"constant": true,
				"inputs": [],
				"name": "tokenInstance",
				"outputs": [
					{
						"name": "",
						"type": "address"
					}
				],
				"payable": false,
				"stateMutability": "view",
				"type": "function"
			},
			{
				"constant": false,
				"inputs": [],
				"name": "drip1Token",
				"outputs": [
					{
						"name": "success",
						"type": "bool"
					}
				],
				"payable": false,
				"stateMutability": "nonpayable",
				"type": "function"
			},
			{
				"constant": true,
				"inputs": [],
				"name": "owner",
				"outputs": [
					{
						"name": "",
						"type": "address"
					}
				],
				"payable": false,
				"stateMutability": "view",
				"type": "function"
			},
			{
				"constant": false,
				"inputs": [],
				"name": "turnFaucetOff",
				"outputs": [
					{
						"name": "success",
						"type": "bool"
					}
				],
				"payable": false,
				"stateMutability": "nonpayable",
				"type": "function"
			},
			{
				"constant": false,
				"inputs": [],
				"name": "turnFaucetOn",
				"outputs": [
					{
						"name": "success",
						"type": "bool"
					}
				],
				"payable": false,
				"stateMutability": "nonpayable",
				"type": "function"
			},
			{
				"inputs": [
					{
						"name": "_tokenInstance",
						"type": "address"
					},
					{
						"name": "_faucetName",
						"type": "string"
					}
				],
				"payable": false,
				"stateMutability": "nonpayable",
				"type": "constructor"
			},
			{
				"anonymous": false,
				"inputs": [
					{
						"indexed": true,
						"name": "sender",
						"type": "address"
					},
					{
						"indexed": false,
						"name": "value",
						"type": "uint256"
					}
				],
				"name": "Deposit",
				"type": "event"
			},
			{
				"anonymous": false,
				"inputs": [
					{
						"indexed": true,
						"name": "receiver",
						"type": "address"
					}
				],
				"name": "OneTokenSent",
				"type": "event"
			},
			{
				"anonymous": false,
				"inputs": [
					{
						"indexed": false,
						"name": "status",
						"type": "bool"
					}
				],
				"name": "FaucetOn",
				"type": "event"
			},
			{
				"anonymous": false,
				"inputs": [
					{
						"indexed": false,
						"name": "status",
						"type": "bool"
					}
				],
				"name": "FaucetOff",
				"type": "event"
			},
			{
				"anonymous": false,
				"inputs": [
					{
						"indexed": true,
						"name": "old",
						"type": "address"
					},
					{
						"indexed": true,
						"name": "current",
						"type": "address"
					}
				],
				"name": "NewOwner",
				"type": "event"
			}
		],
		"devdoc": {
			"author": "David Fava - <david@rigoblock.com>",
			"methods": {
				"constructor": {
					"details": "Contract constructor",
					"params": {
						"_faucetName": "sets the name for the faucet",
						"_tokenInstance": "address of ERC20Basic token"
					}
				},
				"drip1Token()": {
					"details": "send 1000 Token with a minimum time lock of 1 hour",
					"return": "bool on success"
				},
				"turnFaucetOff()": {
					"details": "turn faucet off",
					"return": "bool on success"
				},
				"turnFaucetOn()": {
					"details": "turn faucet on",
					"return": "bool on success"
				},
				"withdraw(uint256)": {
					"details": "allow withdrawal from the owner",
					"return": "bool on success"
				}
			},
			"title": "Faucet - Allows to automatically distribute GRGs."
		},
		"evm": {
			"bytecode": {
				"linkReferences": {},
				"object": "0x608060405234801561001057600080fd5b50604051610c47380380610c478339810180604052604081101561003357600080fd5b81516020830180519193928301929164010000000081111561005457600080fd5b8201602081018481111561006757600080fd5b815164010000000081118282018710171561008157600080fd5b50506000805433600160a060020a03199182161790915560028054909116600160a060020a03871617905580519093506100c49250600191506020840190610132565b506002805460a060020a60ff0219167401000000000000000000000000000000000000000090811791829055604080519190920460ff161515815290517fd2a3a2d721c242e2bb5894f541c2a05972d28379a5ae20423a5419a42da3bf639181900360200190a150506101cd565b828054600181600116156101000203166002900490600052602060002090601f016020900481019282601f1061017357805160ff19168380011785556101a0565b828001600101855582156101a0579182015b828111156101a0578251825591602001919060010190610185565b506101ac9291506101b0565b5090565b6101ca91905b808211156101ac57600081556001016101b6565b90565b610a6b806101dc6000396000f3fe6080604052600436106100985763ffffffff7c01000000000000000000000000000000000000000000000000000000006000350416630dfec796811461009d57806313af4035146100c65780632e1a7d4d146101085780634002070714610132578063658030b3146101bc578063832fa91b146101fa5780638da5cb5b1461020f578063b412506b14610224578063ee8734d014610239575b600080fd5b3480156100a957600080fd5b506100b261024e565b604080519115158252519081900360200190f35b3480156100d257600080fd5b50610106600480360360208110156100e957600080fd5b503573ffffffffffffffffffffffffffffffffffffffff1661026f565b005b34801561011457600080fd5b506100b26004803603602081101561012b57600080fd5b5035610328565b34801561013e57600080fd5b50610147610469565b6040805160208082528351818301528351919283929083019185019080838360005b83811015610181578181015183820152602001610169565b50505050905090810190601f1680156101ae5780820380516001836020036101000a031916815260200191505b509250505060405180910390f35b3480156101c857600080fd5b506101d1610514565b6040805173ffffffffffffffffffffffffffffffffffffffff9092168252519081900360200190f35b34801561020657600080fd5b506100b2610530565b34801561021b57600080fd5b506101d161071f565b34801561023057600080fd5b506100b261073b565b34801561024557600080fd5b506100b261086a565b60025474010000000000000000000000000000000000000000900460ff1681565b60005473ffffffffffffffffffffffffffffffffffffffff16331461029357600080fd5b73ffffffffffffffffffffffffffffffffffffffff811615156102b557600080fd5b600080547fffffffffffffffffffffffff00000000000000000000000000000000000000001673ffffffffffffffffffffffffffffffffffffffff83811691821780845560405192939116917f70aea8d848e8a90fb7661b227dc522eb6395c3dac71b63cb59edd5c9899b23649190a350565b6000805473ffffffffffffffffffffffffffffffffffffffff16331461034d57600080fd5b600254604080517fa9059cbb00000000000000000000000000000000000000000000000000000000815233600482015260248101859052905173ffffffffffffffffffffffffffffffffffffffff9092169163a9059cbb916044808201926020929091908290030181600087803b1580156103c757600080fd5b505af11580156103db573d6000803e3d6000fd5b505050506040513d60208110156103f157600080fd5b5051151561046057604080517f08c379a000000000000000000000000000000000000000000000000000000000815260206004820152601060248201527f43616e6e6f742077697468647261772e00000000000000000000000000000000604482015290519081900360640190fd5b5060015b919050565b60018054604080516020600284861615610100027fffffffffffffffffffffffffffffffffffffffffffffffffffffffffffffffff0190941693909304601f8101849004840282018401909252818152929183018282801561050c5780601f106104e15761010080835404028352916020019161050c565b820191906000526020600020905b8154815290600101906020018083116104ef57829003601f168201915b505050505081565b60025473ffffffffffffffffffffffffffffffffffffffff1681565b60025460009074010000000000000000000000000000000000000000900460ff1615156105be57604080517f08c379a000000000000000000000000000000000000000000000000000000000815260206004820152601360248201527f4661756365742068617320746f206265206f6e00000000000000000000000000604482015290519081900360640190fd5b6105c73361099d565b1561063357604080517f08c379a000000000000000000000000000000000000000000000000000000000815260206004820152601360248201527f526571756972656420746f6f206561726c792e00000000000000000000000000604482015290519081900360640190fd5b6106403362015180610a0d565b50600254604080517fa9059cbb000000000000000000000000000000000000000000000000000000008152336004820152670de0b6b3a76400006024820152905173ffffffffffffffffffffffffffffffffffffffff9092169163a9059cbb916044808201926020929091908290030181600087803b1580156106c257600080fd5b505af11580156106d6573d6000803e3d6000fd5b505050506040513d60208110156106ec57600080fd5b505060405133907f8ff1a32a2712026b472e0533b7255db42112d5f6793ec803bc7044d3b190e99b90600090a250600190565b60005473ffffffffffffffffffffffffffffffffffffffff1681565b6000805473ffffffffffffffffffffffffffffffffffffffff16331461076057600080fd5b60025474010000000000000000000000000000000000000000900460ff1615156107eb57604080517f08c379a000000000000000000000000000000000000000000000000000000000815260206004820152601360248201527f4661756365742068617320746f206265206f6e00000000000000000000000000604482015290519081900360640190fd5b600280547fffffffffffffffffffffff00ffffffffffffffffffffffffffffffffffffffff1690819055604080517401000000000000000000000000000000000000000090920460ff1615158252517f1f2881e73120325370afe6da38205f10340d474ae88deced4da5b739ca650bcf9181900360200190a150600190565b6000805473ffffffffffffffffffffffffffffffffffffffff16331461088f57600080fd5b60025474010000000000000000000000000000000000000000900460ff161561091957604080517f08c379a000000000000000000000000000000000000000000000000000000000815260206004820152601460248201527f4661756365742068617320746f206265206f6666000000000000000000000000604482015290519081900360640190fd5b600280547fffffffffffffffffffffff00ffffffffffffffffffffffffffffffffffffffff167401000000000000000000000000000000000000000090811791829055604080519190920460ff161515815290517fd2a3a2d721c242e2bb5894f541c2a05972d28379a5ae20423a5419a42da3bf639181900360200190a150600190565b73ffffffffffffffffffffffffffffffffffffffff811660009081526003602052604081205415156109d157506000610464565b73ffffffffffffffffffffffffffffffffffffffff82166000908152600360205260409020544210610a0557506000610464565b506001610464565b73ffffffffffffffffffffffffffffffffffffffff82166000908152600360205260409020428201905560019291505056fea165627a7a72305820495678d9d77dc5f35f0e82fd650f1286f8bd98c82e5e9a143533465db4db22670029",
				"opcodes": "PUSH1 0x80 PUSH1 0x40 MSTORE CALLVALUE DUP1 ISZERO PUSH2 0x10 JUMPI PUSH1 0x0 DUP1 REVERT JUMPDEST POP PUSH1 0x40 MLOAD PUSH2 0xC47 CODESIZE SUB DUP1 PUSH2 0xC47 DUP4 CODECOPY DUP2 ADD DUP1 PUSH1 0x40 MSTORE PUSH1 0x40 DUP2 LT ISZERO PUSH2 0x33 JUMPI PUSH1 0x0 DUP1 REVERT JUMPDEST DUP2 MLOAD PUSH1 0x20 DUP4 ADD DUP1 MLOAD SWAP2 SWAP4 SWAP3 DUP4 ADD SWAP3 SWAP2 PUSH5 0x100000000 DUP2 GT ISZERO PUSH2 0x54 JUMPI PUSH1 0x0 DUP1 REVERT JUMPDEST DUP3 ADD PUSH1 0x20 DUP2 ADD DUP5 DUP2 GT ISZERO PUSH2 0x67 JUMPI PUSH1 0x0 DUP1 REVERT JUMPDEST DUP2 MLOAD PUSH5 0x100000000 DUP2 GT DUP3 DUP3 ADD DUP8 LT OR ISZERO PUSH2 0x81 JUMPI PUSH1 0x0 DUP1 REVERT JUMPDEST POP POP PUSH1 0x0 DUP1 SLOAD CALLER PUSH1 0x1 PUSH1 0xA0 PUSH1 0x2 EXP SUB NOT SWAP2 DUP3 AND OR SWAP1 SWAP2 SSTORE PUSH1 0x2 DUP1 SLOAD SWAP1 SWAP2 AND PUSH1 0x1 PUSH1 0xA0 PUSH1 0x2 EXP SUB DUP8 AND OR SWAP1 SSTORE DUP1 MLOAD SWAP1 SWAP4 POP PUSH2 0xC4 SWAP3 POP PUSH1 0x1 SWAP2 POP PUSH1 0x20 DUP5 ADD SWAP1 PUSH2 0x132 JUMP JUMPDEST POP PUSH1 0x2 DUP1 SLOAD PUSH1 0xA0 PUSH1 0x2 EXP PUSH1 0xFF MUL NOT AND PUSH21 0x10000000000000000000000000000000000000000 SWAP1 DUP2 OR SWAP2 DUP3 SWAP1 SSTORE PUSH1 0x40 DUP1 MLOAD SWAP2 SWAP1 SWAP3 DIV PUSH1 0xFF AND ISZERO ISZERO DUP2 MSTORE SWAP1 MLOAD PUSH32 0xD2A3A2D721C242E2BB5894F541C2A05972D28379A5AE20423A5419A42DA3BF63 SWAP2 DUP2 SWAP1 SUB PUSH1 0x20 ADD SWAP1 LOG1 POP POP PUSH2 0x1CD JUMP JUMPDEST DUP3 DUP1 SLOAD PUSH1 0x1 DUP2 PUSH1 0x1 AND ISZERO PUSH2 0x100 MUL SUB AND PUSH1 0x2 SWAP1 DIV SWAP1 PUSH1 0x0 MSTORE PUSH1 0x20 PUSH1 0x0 KECCAK256 SWAP1 PUSH1 0x1F ADD PUSH1 0x20 SWAP1 DIV DUP2 ADD SWAP3 DUP3 PUSH1 0x1F LT PUSH2 0x173 JUMPI DUP1 MLOAD PUSH1 0xFF NOT AND DUP4 DUP1 ADD OR DUP6 SSTORE PUSH2 0x1A0 JUMP JUMPDEST DUP3 DUP1 ADD PUSH1 0x1 ADD DUP6 SSTORE DUP3 ISZERO PUSH2 0x1A0 JUMPI SWAP2 DUP3 ADD JUMPDEST DUP3 DUP2 GT ISZERO PUSH2 0x1A0 JUMPI DUP3 MLOAD DUP3 SSTORE SWAP2 PUSH1 0x20 ADD SWAP2 SWAP1 PUSH1 0x1 ADD SWAP1 PUSH2 0x185 JUMP JUMPDEST POP PUSH2 0x1AC SWAP3 SWAP2 POP PUSH2 0x1B0 JUMP JUMPDEST POP SWAP1 JUMP JUMPDEST PUSH2 0x1CA SWAP2 SWAP1 JUMPDEST DUP1 DUP3 GT ISZERO PUSH2 0x1AC JUMPI PUSH1 0x0 DUP2 SSTORE PUSH1 0x1 ADD PUSH2 0x1B6 JUMP JUMPDEST SWAP1 JUMP JUMPDEST PUSH2 0xA6B DUP1 PUSH2 0x1DC PUSH1 0x0 CODECOPY PUSH1 0x0 RETURN INVALID PUSH1 0x80 PUSH1 0x40 MSTORE PUSH1 0x4 CALLDATASIZE LT PUSH2 0x98 JUMPI PUSH4 0xFFFFFFFF PUSH29 0x100000000000000000000000000000000000000000000000000000000 PUSH1 0x0 CALLDATALOAD DIV AND PUSH4 0xDFEC796 DUP2 EQ PUSH2 0x9D JUMPI DUP1 PUSH4 0x13AF4035 EQ PUSH2 0xC6 JUMPI DUP1 PUSH4 0x2E1A7D4D EQ PUSH2 0x108 JUMPI DUP1 PUSH4 0x40020707 EQ PUSH2 0x132 JUMPI DUP1 PUSH4 0x658030B3 EQ PUSH2 0x1BC JUMPI DUP1 PUSH4 0x832FA91B EQ PUSH2 0x1FA JUMPI DUP1 PUSH4 0x8DA5CB5B EQ PUSH2 0x20F JUMPI DUP1 PUSH4 0xB412506B EQ PUSH2 0x224 JUMPI DUP1 PUSH4 0xEE8734D0 EQ PUSH2 0x239 JUMPI JUMPDEST PUSH1 0x0 DUP1 REVERT JUMPDEST CALLVALUE DUP1 ISZERO PUSH2 0xA9 JUMPI PUSH1 0x0 DUP1 REVERT JUMPDEST POP PUSH2 0xB2 PUSH2 0x24E JUMP JUMPDEST PUSH1 0x40 DUP1 MLOAD SWAP2 ISZERO ISZERO DUP3 MSTORE MLOAD SWAP1 DUP2 SWAP1 SUB PUSH1 0x20 ADD SWAP1 RETURN JUMPDEST CALLVALUE DUP1 ISZERO PUSH2 0xD2 JUMPI PUSH1 0x0 DUP1 REVERT JUMPDEST POP PUSH2 0x106 PUSH1 0x4 DUP1 CALLDATASIZE SUB PUSH1 0x20 DUP2 LT ISZERO PUSH2 0xE9 JUMPI PUSH1 0x0 DUP1 REVERT JUMPDEST POP CALLDATALOAD PUSH20 0xFFFFFFFFFFFFFFFFFFFFFFFFFFFFFFFFFFFFFFFF AND PUSH2 0x26F JUMP JUMPDEST STOP JUMPDEST CALLVALUE DUP1 ISZERO PUSH2 0x114 JUMPI PUSH1 0x0 DUP1 REVERT JUMPDEST POP PUSH2 0xB2 PUSH1 0x4 DUP1 CALLDATASIZE SUB PUSH1 0x20 DUP2 LT ISZERO PUSH2 0x12B JUMPI PUSH1 0x0 DUP1 REVERT JUMPDEST POP CALLDATALOAD PUSH2 0x328 JUMP JUMPDEST CALLVALUE DUP1 ISZERO PUSH2 0x13E JUMPI PUSH1 0x0 DUP1 REVERT JUMPDEST POP PUSH2 0x147 PUSH2 0x469 JUMP JUMPDEST PUSH1 0x40 DUP1 MLOAD PUSH1 0x20 DUP1 DUP3 MSTORE DUP4 MLOAD DUP2 DUP4 ADD MSTORE DUP4 MLOAD SWAP2 SWAP3 DUP4 SWAP3 SWAP1 DUP4 ADD SWAP2 DUP6 ADD SWAP1 DUP1 DUP4 DUP4 PUSH1 0x0 JUMPDEST DUP4 DUP2 LT ISZERO PUSH2 0x181 JUMPI DUP2 DUP2 ADD MLOAD DUP4 DUP3 ADD MSTORE PUSH1 0x20 ADD PUSH2 0x169 JUMP JUMPDEST POP POP POP POP SWAP1 POP SWAP1 DUP2 ADD SWAP1 PUSH1 0x1F AND DUP1 ISZERO PUSH2 0x1AE JUMPI DUP1 DUP3 SUB DUP1 MLOAD PUSH1 0x1 DUP4 PUSH1 0x20 SUB PUSH2 0x100 EXP SUB NOT AND DUP2 MSTORE PUSH1 0x20 ADD SWAP2 POP JUMPDEST POP SWAP3 POP POP POP PUSH1 0x40 MLOAD DUP1 SWAP2 SUB SWAP1 RETURN JUMPDEST CALLVALUE DUP1 ISZERO PUSH2 0x1C8 JUMPI PUSH1 0x0 DUP1 REVERT JUMPDEST POP PUSH2 0x1D1 PUSH2 0x514 JUMP JUMPDEST PUSH1 0x40 DUP1 MLOAD PUSH20 0xFFFFFFFFFFFFFFFFFFFFFFFFFFFFFFFFFFFFFFFF SWAP1 SWAP3 AND DUP3 MSTORE MLOAD SWAP1 DUP2 SWAP1 SUB PUSH1 0x20 ADD SWAP1 RETURN JUMPDEST CALLVALUE DUP1 ISZERO PUSH2 0x206 JUMPI PUSH1 0x0 DUP1 REVERT JUMPDEST POP PUSH2 0xB2 PUSH2 0x530 JUMP JUMPDEST CALLVALUE DUP1 ISZERO PUSH2 0x21B JUMPI PUSH1 0x0 DUP1 REVERT JUMPDEST POP PUSH2 0x1D1 PUSH2 0x71F JUMP JUMPDEST CALLVALUE DUP1 ISZERO PUSH2 0x230 JUMPI PUSH1 0x0 DUP1 REVERT JUMPDEST POP PUSH2 0xB2 PUSH2 0x73B JUMP JUMPDEST CALLVALUE DUP1 ISZERO PUSH2 0x245 JUMPI PUSH1 0x0 DUP1 REVERT JUMPDEST POP PUSH2 0xB2 PUSH2 0x86A JUMP JUMPDEST PUSH1 0x2 SLOAD PUSH21 0x10000000000000000000000000000000000000000 SWAP1 DIV PUSH1 0xFF AND DUP2 JUMP JUMPDEST PUSH1 0x0 SLOAD PUSH20 0xFFFFFFFFFFFFFFFFFFFFFFFFFFFFFFFFFFFFFFFF AND CALLER EQ PUSH2 0x293 JUMPI PUSH1 0x0 DUP1 REVERT JUMPDEST PUSH20 0xFFFFFFFFFFFFFFFFFFFFFFFFFFFFFFFFFFFFFFFF DUP2 AND ISZERO ISZERO PUSH2 0x2B5 JUMPI PUSH1 0x0 DUP1 REVERT JUMPDEST PUSH1 0x0 DUP1 SLOAD PUSH32 0xFFFFFFFFFFFFFFFFFFFFFFFF0000000000000000000000000000000000000000 AND PUSH20 0xFFFFFFFFFFFFFFFFFFFFFFFFFFFFFFFFFFFFFFFF DUP4 DUP2 AND SWAP2 DUP3 OR DUP1 DUP5 SSTORE PUSH1 0x40 MLOAD SWAP3 SWAP4 SWAP2 AND SWAP2 PUSH32 0x70AEA8D848E8A90FB7661B227DC522EB6395C3DAC71B63CB59EDD5C9899B2364 SWAP2 SWAP1 LOG3 POP JUMP JUMPDEST PUSH1 0x0 DUP1 SLOAD PUSH20 0xFFFFFFFFFFFFFFFFFFFFFFFFFFFFFFFFFFFFFFFF AND CALLER EQ PUSH2 0x34D JUMPI PUSH1 0x0 DUP1 REVERT JUMPDEST PUSH1 0x2 SLOAD PUSH1 0x40 DUP1 MLOAD PUSH32 0xA9059CBB00000000000000000000000000000000000000000000000000000000 DUP2 MSTORE CALLER PUSH1 0x4 DUP3 ADD MSTORE PUSH1 0x24 DUP2 ADD DUP6 SWAP1 MSTORE SWAP1 MLOAD PUSH20 0xFFFFFFFFFFFFFFFFFFFFFFFFFFFFFFFFFFFFFFFF SWAP1 SWAP3 AND SWAP2 PUSH4 0xA9059CBB SWAP2 PUSH1 0x44 DUP1 DUP3 ADD SWAP3 PUSH1 0x20 SWAP3 SWAP1 SWAP2 SWAP1 DUP3 SWAP1 SUB ADD DUP2 PUSH1 0x0 DUP8 DUP1 EXTCODESIZE ISZERO DUP1 ISZERO PUSH2 0x3C7 JUMPI PUSH1 0x0 DUP1 REVERT JUMPDEST POP GAS CALL ISZERO DUP1 ISZERO PUSH2 0x3DB JUMPI RETURNDATASIZE PUSH1 0x0 DUP1 RETURNDATACOPY RETURNDATASIZE PUSH1 0x0 REVERT JUMPDEST POP POP POP POP PUSH1 0x40 MLOAD RETURNDATASIZE PUSH1 0x20 DUP2 LT ISZERO PUSH2 0x3F1 JUMPI PUSH1 0x0 DUP1 REVERT JUMPDEST POP MLOAD ISZERO ISZERO PUSH2 0x460 JUMPI PUSH1 0x40 DUP1 MLOAD PUSH32 0x8C379A000000000000000000000000000000000000000000000000000000000 DUP2 MSTORE PUSH1 0x20 PUSH1 0x4 DUP3 ADD MSTORE PUSH1 0x10 PUSH1 0x24 DUP3 ADD MSTORE PUSH32 0x43616E6E6F742077697468647261772E00000000000000000000000000000000 PUSH1 0x44 DUP3 ADD MSTORE SWAP1 MLOAD SWAP1 DUP2 SWAP1 SUB PUSH1 0x64 ADD SWAP1 REVERT JUMPDEST POP PUSH1 0x1 JUMPDEST SWAP2 SWAP1 POP JUMP JUMPDEST PUSH1 0x1 DUP1 SLOAD PUSH1 0x40 DUP1 MLOAD PUSH1 0x20 PUSH1 0x2 DUP5 DUP7 AND ISZERO PUSH2 0x100 MUL PUSH32 0xFFFFFFFFFFFFFFFFFFFFFFFFFFFFFFFFFFFFFFFFFFFFFFFFFFFFFFFFFFFFFFFF ADD SWAP1 SWAP5 AND SWAP4 SWAP1 SWAP4 DIV PUSH1 0x1F DUP2 ADD DUP5 SWAP1 DIV DUP5 MUL DUP3 ADD DUP5 ADD SWAP1 SWAP3 MSTORE DUP2 DUP2 MSTORE SWAP3 SWAP2 DUP4 ADD DUP3 DUP3 DUP1 ISZERO PUSH2 0x50C JUMPI DUP1 PUSH1 0x1F LT PUSH2 0x4E1 JUMPI PUSH2 0x100 DUP1 DUP4 SLOAD DIV MUL DUP4 MSTORE SWAP2 PUSH1 0x20 ADD SWAP2 PUSH2 0x50C JUMP JUMPDEST DUP3 ADD SWAP2 SWAP1 PUSH1 0x0 MSTORE PUSH1 0x20 PUSH1 0x0 KECCAK256 SWAP1 JUMPDEST DUP2 SLOAD DUP2 MSTORE SWAP1 PUSH1 0x1 ADD SWAP1 PUSH1 0x20 ADD DUP1 DUP4 GT PUSH2 0x4EF JUMPI DUP3 SWAP1 SUB PUSH1 0x1F AND DUP3 ADD SWAP2 JUMPDEST POP POP POP POP POP DUP2 JUMP JUMPDEST PUSH1 0x2 SLOAD PUSH20 0xFFFFFFFFFFFFFFFFFFFFFFFFFFFFFFFFFFFFFFFF AND DUP2 JUMP JUMPDEST PUSH1 0x2 SLOAD PUSH1 0x0 SWAP1 PUSH21 0x10000000000000000000000000000000000000000 SWAP1 DIV PUSH1 0xFF AND ISZERO ISZERO PUSH2 0x5BE JUMPI PUSH1 0x40 DUP1 MLOAD PUSH32 0x8C379A000000000000000000000000000000000000000000000000000000000 DUP2 MSTORE PUSH1 0x20 PUSH1 0x4 DUP3 ADD MSTORE PUSH1 0x13 PUSH1 0x24 DUP3 ADD MSTORE PUSH32 0x4661756365742068617320746F206265206F6E00000000000000000000000000 PUSH1 0x44 DUP3 ADD MSTORE SWAP1 MLOAD SWAP1 DUP2 SWAP1 SUB PUSH1 0x64 ADD SWAP1 REVERT JUMPDEST PUSH2 0x5C7 CALLER PUSH2 0x99D JUMP JUMPDEST ISZERO PUSH2 0x633 JUMPI PUSH1 0x40 DUP1 MLOAD PUSH32 0x8C379A000000000000000000000000000000000000000000000000000000000 DUP2 MSTORE PUSH1 0x20 PUSH1 0x4 DUP3 ADD MSTORE PUSH1 0x13 PUSH1 0x24 DUP3 ADD MSTORE PUSH32 0x526571756972656420746F6F206561726C792E00000000000000000000000000 PUSH1 0x44 DUP3 ADD MSTORE SWAP1 MLOAD SWAP1 DUP2 SWAP1 SUB PUSH1 0x64 ADD SWAP1 REVERT JUMPDEST PUSH2 0x640 CALLER PUSH3 0x15180 PUSH2 0xA0D JUMP JUMPDEST POP PUSH1 0x2 SLOAD PUSH1 0x40 DUP1 MLOAD PUSH32 0xA9059CBB00000000000000000000000000000000000000000000000000000000 DUP2 MSTORE CALLER PUSH1 0x4 DUP3 ADD MSTORE PUSH8 0xDE0B6B3A7640000 PUSH1 0x24 DUP3 ADD MSTORE SWAP1 MLOAD PUSH20 0xFFFFFFFFFFFFFFFFFFFFFFFFFFFFFFFFFFFFFFFF SWAP1 SWAP3 AND SWAP2 PUSH4 0xA9059CBB SWAP2 PUSH1 0x44 DUP1 DUP3 ADD SWAP3 PUSH1 0x20 SWAP3 SWAP1 SWAP2 SWAP1 DUP3 SWAP1 SUB ADD DUP2 PUSH1 0x0 DUP8 DUP1 EXTCODESIZE ISZERO DUP1 ISZERO PUSH2 0x6C2 JUMPI PUSH1 0x0 DUP1 REVERT JUMPDEST POP GAS CALL ISZERO DUP1 ISZERO PUSH2 0x6D6 JUMPI RETURNDATASIZE PUSH1 0x0 DUP1 RETURNDATACOPY RETURNDATASIZE PUSH1 0x0 REVERT JUMPDEST POP POP POP POP PUSH1 0x40 MLOAD RETURNDATASIZE PUSH1 0x20 DUP2 LT ISZERO PUSH2 0x6EC JUMPI PUSH1 0x0 DUP1 REVERT JUMPDEST POP POP PUSH1 0x40 MLOAD CALLER SWAP1 PUSH32 0x8FF1A32A2712026B472E0533B7255DB42112D5F6793EC803BC7044D3B190E99B SWAP1 PUSH1 0x0 SWAP1 LOG2 POP PUSH1 0x1 SWAP1 JUMP JUMPDEST PUSH1 0x0 SLOAD PUSH20 0xFFFFFFFFFFFFFFFFFFFFFFFFFFFFFFFFFFFFFFFF AND DUP2 JUMP JUMPDEST PUSH1 0x0 DUP1 SLOAD PUSH20 0xFFFFFFFFFFFFFFFFFFFFFFFFFFFFFFFFFFFFFFFF AND CALLER EQ PUSH2 0x760 JUMPI PUSH1 0x0 DUP1 REVERT JUMPDEST PUSH1 0x2 SLOAD PUSH21 0x10000000000000000000000000000000000000000 SWAP1 DIV PUSH1 0xFF AND ISZERO ISZERO PUSH2 0x7EB JUMPI PUSH1 0x40 DUP1 MLOAD PUSH32 0x8C379A000000000000000000000000000000000000000000000000000000000 DUP2 MSTORE PUSH1 0x20 PUSH1 0x4 DUP3 ADD MSTORE PUSH1 0x13 PUSH1 0x24 DUP3 ADD MSTORE PUSH32 0x4661756365742068617320746F206265206F6E00000000000000000000000000 PUSH1 0x44 DUP3 ADD MSTORE SWAP1 MLOAD SWAP1 DUP2 SWAP1 SUB PUSH1 0x64 ADD SWAP1 REVERT JUMPDEST PUSH1 0x2 DUP1 SLOAD PUSH32 0xFFFFFFFFFFFFFFFFFFFFFF00FFFFFFFFFFFFFFFFFFFFFFFFFFFFFFFFFFFFFFFF AND SWAP1 DUP2 SWAP1 SSTORE PUSH1 0x40 DUP1 MLOAD PUSH21 0x10000000000000000000000000000000000000000 SWAP1 SWAP3 DIV PUSH1 0xFF AND ISZERO ISZERO DUP3 MSTORE MLOAD PUSH32 0x1F2881E73120325370AFE6DA38205F10340D474AE88DECED4DA5B739CA650BCF SWAP2 DUP2 SWAP1 SUB PUSH1 0x20 ADD SWAP1 LOG1 POP PUSH1 0x1 SWAP1 JUMP JUMPDEST PUSH1 0x0 DUP1 SLOAD PUSH20 0xFFFFFFFFFFFFFFFFFFFFFFFFFFFFFFFFFFFFFFFF AND CALLER EQ PUSH2 0x88F JUMPI PUSH1 0x0 DUP1 REVERT JUMPDEST PUSH1 0x2 SLOAD PUSH21 0x10000000000000000000000000000000000000000 SWAP1 DIV PUSH1 0xFF AND ISZERO PUSH2 0x919 JUMPI PUSH1 0x40 DUP1 MLOAD PUSH32 0x8C379A000000000000000000000000000000000000000000000000000000000 DUP2 MSTORE PUSH1 0x20 PUSH1 0x4 DUP3 ADD MSTORE PUSH1 0x14 PUSH1 0x24 DUP3 ADD MSTORE PUSH32 0x4661756365742068617320746F206265206F6666000000000000000000000000 PUSH1 0x44 DUP3 ADD MSTORE SWAP1 MLOAD SWAP1 DUP2 SWAP1 SUB PUSH1 0x64 ADD SWAP1 REVERT JUMPDEST PUSH1 0x2 DUP1 SLOAD PUSH32 0xFFFFFFFFFFFFFFFFFFFFFF00FFFFFFFFFFFFFFFFFFFFFFFFFFFFFFFFFFFFFFFF AND PUSH21 0x10000000000000000000000000000000000000000 SWAP1 DUP2 OR SWAP2 DUP3 SWAP1 SSTORE PUSH1 0x40 DUP1 MLOAD SWAP2 SWAP1 SWAP3 DIV PUSH1 0xFF AND ISZERO ISZERO DUP2 MSTORE SWAP1 MLOAD PUSH32 0xD2A3A2D721C242E2BB5894F541C2A05972D28379A5AE20423A5419A42DA3BF63 SWAP2 DUP2 SWAP1 SUB PUSH1 0x20 ADD SWAP1 LOG1 POP PUSH1 0x1 SWAP1 JUMP JUMPDEST PUSH20 0xFFFFFFFFFFFFFFFFFFFFFFFFFFFFFFFFFFFFFFFF DUP2 AND PUSH1 0x0 SWAP1 DUP2 MSTORE PUSH1 0x3 PUSH1 0x20 MSTORE PUSH1 0x40 DUP2 KECCAK256 SLOAD ISZERO ISZERO PUSH2 0x9D1 JUMPI POP PUSH1 0x0 PUSH2 0x464 JUMP JUMPDEST PUSH20 0xFFFFFFFFFFFFFFFFFFFFFFFFFFFFFFFFFFFFFFFF DUP3 AND PUSH1 0x0 SWAP1 DUP2 MSTORE PUSH1 0x3 PUSH1 0x20 MSTORE PUSH1 0x40 SWAP1 KECCAK256 SLOAD TIMESTAMP LT PUSH2 0xA05 JUMPI POP PUSH1 0x0 PUSH2 0x464 JUMP JUMPDEST POP PUSH1 0x1 PUSH2 0x464 JUMP JUMPDEST PUSH20 0xFFFFFFFFFFFFFFFFFFFFFFFFFFFFFFFFFFFFFFFF DUP3 AND PUSH1 0x0 SWAP1 DUP2 MSTORE PUSH1 0x3 PUSH1 0x20 MSTORE PUSH1 0x40 SWAP1 KECCAK256 TIMESTAMP DUP3 ADD SWAP1 SSTORE PUSH1 0x1 SWAP3 SWAP2 POP POP JUMP INVALID LOG1 PUSH6 0x627A7A723058 KECCAK256 0x49 JUMP PUSH25 0xD9D77DC5F35F0E82FD650F1286F8BD98C82E5E9A143533465D 0xb4 0xdb 0x22 PUSH8 0x29000000000000 "
			}
		}
	},
	"sourceTreeHashHex": "0x46db3a3a0d7b7dd8f200b1af8ab6172dcdf0086cbd8a2aeb62e45e1e161d2ac3",
	"compiler": {
		"name": "solc",
		"version": "0.5.0+commit.1d4f565a",
		"settings": {
			"remappings": [],
			"optimizer": {
				"enabled": true,
				"runs": 1000000
			},
			"outputSelection": {
				"*": {
					"*": [
						"abi",
						"devdoc",
						"evm.bytecode.object",
						"evm.bytecode.sourceMap",
						"evm.deployedBytecode.object",
						"evm.deployedBytecode.sourceMap"
					]
				}
			}
		}
	},
	"chains": {}
}