{
	"schemaVersion": "2.0.0",
	"contractName": "GrgVault",
	"compilerOutput": {
		"abi": [
			{
				"constant": false,
				"inputs": [
					{
						"name": "staker",
						"type": "address"
					},
					{
						"name": "amount",
						"type": "uint256"
					}
				],
				"name": "depositFrom",
				"outputs": [],
				"payable": false,
				"stateMutability": "nonpayable",
				"type": "function"
			},
			{
				"constant": true,
				"inputs": [],
				"name": "isInCatastrophicFailure",
				"outputs": [
					{
						"name": "",
						"type": "bool"
					}
				],
				"payable": false,
				"stateMutability": "view",
				"type": "function"
			},
			{
				"constant": false,
				"inputs": [
					{
						"name": "target",
						"type": "address"
					}
				],
				"name": "addAuthorizedAddress",
				"outputs": [],
				"payable": false,
				"stateMutability": "nonpayable",
				"type": "function"
			},
			{
				"constant": true,
				"inputs": [
					{
						"name": "",
						"type": "uint256"
					}
				],
				"name": "authorities",
				"outputs": [
					{
						"name": "",
						"type": "address"
					}
				],
				"payable": false,
				"stateMutability": "view",
				"type": "function"
			},
			{
				"constant": true,
				"inputs": [],
				"name": "grgAssetProxy",
				"outputs": [
					{
						"name": "",
						"type": "address"
					}
				],
				"payable": false,
				"stateMutability": "view",
				"type": "function"
			},
			{
				"constant": true,
				"inputs": [],
				"name": "balanceOfGrgVault",
				"outputs": [
					{
						"name": "",
						"type": "uint256"
					}
				],
				"payable": false,
				"stateMutability": "view",
				"type": "function"
			},
			{
				"constant": false,
				"inputs": [
					{
						"name": "_stakingProxyAddress",
						"type": "address"
					}
				],
				"name": "setStakingProxy",
				"outputs": [],
				"payable": false,
				"stateMutability": "nonpayable",
				"type": "function"
			},
			{
				"constant": false,
				"inputs": [
					{
						"name": "target",
						"type": "address"
					}
				],
				"name": "removeAuthorizedAddress",
				"outputs": [],
				"payable": false,
				"stateMutability": "nonpayable",
				"type": "function"
			},
			{
				"constant": true,
				"inputs": [
					{
						"name": "staker",
						"type": "address"
					}
				],
				"name": "balanceOf",
				"outputs": [
					{
						"name": "",
						"type": "uint256"
					}
				],
				"payable": false,
				"stateMutability": "view",
				"type": "function"
			},
			{
				"constant": true,
				"inputs": [],
				"name": "owner",
				"outputs": [
					{
						"name": "",
						"type": "address"
					}
				],
				"payable": false,
				"stateMutability": "view",
				"type": "function"
			},
			{
				"constant": false,
				"inputs": [
					{
						"name": "staker",
						"type": "address"
					},
					{
						"name": "amount",
						"type": "uint256"
					}
				],
				"name": "withdrawFrom",
				"outputs": [],
				"payable": false,
				"stateMutability": "nonpayable",
				"type": "function"
			},
			{
				"constant": false,
				"inputs": [
					{
						"name": "target",
						"type": "address"
					},
					{
						"name": "index",
						"type": "uint256"
					}
				],
				"name": "removeAuthorizedAddressAtIndex",
				"outputs": [],
				"payable": false,
				"stateMutability": "nonpayable",
				"type": "function"
			},
			{
				"constant": true,
				"inputs": [
					{
						"name": "",
						"type": "address"
					}
				],
				"name": "authorized",
				"outputs": [
					{
						"name": "",
						"type": "bool"
					}
				],
				"payable": false,
				"stateMutability": "view",
				"type": "function"
			},
			{
				"constant": false,
				"inputs": [],
				"name": "enterCatastrophicFailure",
				"outputs": [],
				"payable": false,
				"stateMutability": "nonpayable",
				"type": "function"
			},
			{
				"constant": true,
				"inputs": [],
				"name": "stakingProxyAddress",
				"outputs": [
					{
						"name": "",
						"type": "address"
					}
				],
				"payable": false,
				"stateMutability": "view",
				"type": "function"
			},
			{
				"constant": true,
				"inputs": [],
				"name": "getAuthorizedAddresses",
				"outputs": [
					{
						"name": "",
						"type": "address[]"
					}
				],
				"payable": false,
				"stateMutability": "view",
				"type": "function"
			},
			{
				"constant": false,
				"inputs": [
					{
						"name": "_grgProxyAddress",
						"type": "address"
					}
				],
				"name": "setGrgProxy",
				"outputs": [],
				"payable": false,
				"stateMutability": "nonpayable",
				"type": "function"
			},
			{
				"constant": false,
				"inputs": [
					{
						"name": "newOwner",
						"type": "address"
					}
				],
				"name": "transferOwnership",
				"outputs": [],
				"payable": false,
				"stateMutability": "nonpayable",
				"type": "function"
			},
			{
				"constant": false,
				"inputs": [
					{
						"name": "staker",
						"type": "address"
					}
				],
				"name": "withdrawAllFrom",
				"outputs": [
					{
						"name": "",
						"type": "uint256"
					}
				],
				"payable": false,
				"stateMutability": "nonpayable",
				"type": "function"
			},
			{
				"inputs": [
					{
						"name": "_grgProxyAddress",
						"type": "address"
					},
					{
						"name": "_grgTokenAddress",
						"type": "address"
					}
				],
				"payable": false,
				"stateMutability": "nonpayable",
				"type": "constructor"
			},
			{
				"anonymous": false,
				"inputs": [
					{
						"indexed": false,
						"name": "stakingProxyAddress",
						"type": "address"
					}
				],
				"name": "StakingProxySet",
				"type": "event"
			},
			{
				"anonymous": false,
				"inputs": [
					{
						"indexed": false,
						"name": "sender",
						"type": "address"
					}
				],
				"name": "InCatastrophicFailureMode",
				"type": "event"
			},
			{
				"anonymous": false,
				"inputs": [
					{
						"indexed": true,
						"name": "staker",
						"type": "address"
					},
					{
						"indexed": false,
						"name": "amount",
						"type": "uint256"
					}
				],
				"name": "Deposit",
				"type": "event"
			},
			{
				"anonymous": false,
				"inputs": [
					{
						"indexed": true,
						"name": "staker",
						"type": "address"
					},
					{
						"indexed": false,
						"name": "amount",
						"type": "uint256"
					}
				],
				"name": "Withdraw",
				"type": "event"
			},
			{
				"anonymous": false,
				"inputs": [
					{
						"indexed": false,
						"name": "grgProxyAddress",
						"type": "address"
					}
				],
				"name": "GrgProxySet",
				"type": "event"
			},
			{
				"anonymous": false,
				"inputs": [
					{
						"indexed": true,
						"name": "target",
						"type": "address"
					},
					{
						"indexed": true,
						"name": "caller",
						"type": "address"
					}
				],
				"name": "AuthorizedAddressAdded",
				"type": "event"
			},
			{
				"anonymous": false,
				"inputs": [
					{
						"indexed": true,
						"name": "target",
						"type": "address"
					},
					{
						"indexed": true,
						"name": "caller",
						"type": "address"
					}
				],
				"name": "AuthorizedAddressRemoved",
				"type": "event"
			},
			{
				"anonymous": false,
				"inputs": [
					{
						"indexed": true,
						"name": "previousOwner",
						"type": "address"
					},
					{
						"indexed": true,
						"name": "newOwner",
						"type": "address"
					}
				],
				"name": "OwnershipTransferred",
				"type": "event"
			}
		],
		"devdoc": {
			"methods": {
				"addAuthorizedAddress(address)": {
					"details": "Authorizes an address.",
					"params": {
						"target": "Address to authorize."
					}
				},
				"balanceOf(address)": {
					"details": "Returns the balance in Grg Tokens of the `staker`",
					"return": "Balance in Grg."
				},
				"balanceOfGrgVault()": {
					"details": "Returns the entire balance of Grg tokens in the vault."
				},
				"constructor": {
					"details": "Constructor.",
					"params": {
						"_grgProxyAddress": "Address of the RigoBlock Grg Proxy.",
						"_grgTokenAddress": "Address of the Grg Token."
					}
				},
				"depositFrom(address,uint256)": {
					"details": "Deposit an `amount` of Grg Tokens from `staker` into the vault. Note that only the Staking contract can call this. Note that this can only be called when *not* in Catastrophic Failure mode.",
					"params": {
						"amount": "of Grg Tokens to deposit.",
						"staker": "of Grg Tokens."
					}
				},
				"enterCatastrophicFailure()": {
					"details": "Vault enters into Catastrophic Failure Mode. *** WARNING - ONCE IN CATOSTROPHIC FAILURE MODE, YOU CAN NEVER GO BACK! *** Note that only the contract owner can call this function."
				},
				"getAuthorizedAddresses()": {
					"details": "Gets all authorized addresses.",
					"return": "Array of authorized addresses."
				},
				"removeAuthorizedAddress(address)": {
					"details": "Removes authorizion of an address.",
					"params": {
						"target": "Address to remove authorization from."
					}
				},
				"removeAuthorizedAddressAtIndex(address,uint256)": {
					"details": "Removes authorizion of an address.",
					"params": {
						"index": "Index of target in authorities array.",
						"target": "Address to remove authorization from."
					}
				},
				"setGrgProxy(address)": {
					"details": "Sets the Grg proxy. Note that only an authorized address can call this function. Note that this can only be called when *not* in Catastrophic Failure mode.",
					"params": {
						"_grgProxyAddress": "Address of the RigoBlock Grg Proxy."
					}
				},
				"setStakingProxy(address)": {
					"details": "Sets the address of the StakingProxy contract. Note that only the contract owner can call this function.",
					"params": {
						"_stakingProxyAddress": "Address of Staking proxy contract."
					}
				},
				"transferOwnership(address)": {
					"details": "Change the owner of this contract.",
					"params": {
						"newOwner": "New owner address."
					}
				},
				"withdrawAllFrom(address)": {
					"details": "Withdraw ALL Grg Tokens to `staker` from the vault. Note that this can only be called when *in* Catastrophic Failure mode.",
					"params": {
						"staker": "of Grg Tokens."
					}
				},
				"withdrawFrom(address,uint256)": {
					"details": "Withdraw an `amount` of Grg Tokens to `staker` from the vault. Note that only the Staking contract can call this. Note that this can only be called when *not* in Catastrophic Failure mode.",
					"params": {
						"amount": "of Grg Tokens to withdraw.",
						"staker": "of Grg Tokens."
					}
				}
			}
		},
		"evm": {
			"bytecode": {
				"linkReferences": {},
				"object": "0x60806040523480156200001157600080fd5b506040516200190238038062001902833981810160405260408110156200003757600080fd5b508051602091820151600080546001600160a01b03199081163317909155600580546001600160a01b0380861691841691909117909155600680549184169190921681179091556040805160248082019390935281518082039093018352604401905292830180516001600160e01b03167ff47261b000000000000000000000000000000000000000000000000000000000178152925191929091620000e091600791620000e9565b5050506200018e565b828054600181600116156101000203166002900490600052602060002090601f016020900481019282601f106200012c57805160ff19168380011785556200015c565b828001600101855582156200015c579182015b828111156200015c5782518255916020019190600101906200013f565b506200016a9291506200016e565b5090565b6200018b91905b808211156200016a576000815560010162000175565b90565b611764806200019e6000396000f3fe608060405234801561001057600080fd5b50600436106101515760003560e01c80638da5cb5b116100cd578063c4d8f23711610081578063db8e54bd11610066578063db8e54bd146103f6578063f2fde38b14610429578063f957ddba1461045c57610151565b8063c4d8f23714610396578063d39de6e91461039e57610151565b80639ad26744116100b25780639ad2674414610322578063b91816111461035b578063c02e5a7f1461038e57610151565b80638da5cb5b146102e15780639470b0bd146102e957610151565b806363e17553116101245780636bf3f9e5116101095780636bf3f9e514610248578063707129391461027b57806370a08231146102ae57610151565b806363e17553146102265780636b6df5aa1461022e57610151565b806315cc36f214610156578063266df27c1461019157806342f1181e146101ad578063494503d4146101e0575b600080fd5b61018f6004803603604081101561016c57600080fd5b5073ffffffffffffffffffffffffffffffffffffffff813516906020013561048f565b005b610199610676565b604080519115158252519081900360200190f35b61018f600480360360208110156101c357600080fd5b503573ffffffffffffffffffffffffffffffffffffffff16610697565b6101fd600480360360208110156101f657600080fd5b50356106ab565b6040805173ffffffffffffffffffffffffffffffffffffffff9092168252519081900360200190f35b6101fd6106df565b6102366106fb565b60408051918252519081900360200190f35b61018f6004803603602081101561025e57600080fd5b503573ffffffffffffffffffffffffffffffffffffffff1661079e565b61018f6004803603602081101561029157600080fd5b503573ffffffffffffffffffffffffffffffffffffffff1661081f565b610236600480360360208110156102c457600080fd5b503573ffffffffffffffffffffffffffffffffffffffff166108d9565b6101fd610901565b61018f600480360360408110156102ff57600080fd5b5073ffffffffffffffffffffffffffffffffffffffff813516906020013561091d565b61018f6004803603604081101561033857600080fd5b5073ffffffffffffffffffffffffffffffffffffffff8135169060200135610937565b6101996004803603602081101561037157600080fd5b503573ffffffffffffffffffffffffffffffffffffffff16610949565b61018f61095e565b6101fd6109e2565b6103a66109fe565b60408051602080825283518183015283519192839290830191858101910280838360005b838110156103e25781810151838201526020016103ca565b505050509050019250505060405180910390f35b61018f6004803603602081101561040c57600080fd5b503573ffffffffffffffffffffffffffffffffffffffff16610a6d565b61018f6004803603602081101561043f57600080fd5b503573ffffffffffffffffffffffffffffffffffffffff16610af6565b6102366004803603602081101561047257600080fd5b503573ffffffffffffffffffffffffffffffffffffffff16610b99565b610497610bd9565b61049f610c06565b73ffffffffffffffffffffffffffffffffffffffff82166000908152600460205260409020546104d5908263ffffffff610c3416565b73ffffffffffffffffffffffffffffffffffffffff8316600081815260046020908152604091829020939093558051848152905191927fe1fffcc4923d04b559f4d29a8bfc6cda04eb5b0d3c460751c2402c5c5cc9109c92918290030190a26005546040517fa85e59e400000000000000000000000000000000000000000000000000000000815273ffffffffffffffffffffffffffffffffffffffff84811660248301523060448301819052606483018590526080600484019081526007805460027fffffffffffffffffffffffffffffffffffffffffffffffffffffffffffffffff600183161561010002019091160460848601819052939095169463a85e59e494909388939288929091829160a40190879080156106375780601f1061060c57610100808354040283529160200191610637565b820191906000526020600020905b81548152906001019060200180831161061a57829003601f168201915b505095505050505050600060405180830381600087803b15801561065a57600080fd5b505af115801561066e573d6000803e3d6000fd5b505050505050565b60035474010000000000000000000000000000000000000000900460ff1681565b61069f610c57565b6106a881610c9e565b50565b600281815481106106b857fe5b60009182526020909120015473ffffffffffffffffffffffffffffffffffffffff16905081565b60055473ffffffffffffffffffffffffffffffffffffffff1681565b600654604080517f70a08231000000000000000000000000000000000000000000000000000000008152306004820152905160009273ffffffffffffffffffffffffffffffffffffffff16916370a08231916024808301926020929190829003018186803b15801561076c57600080fd5b505afa158015610780573d6000803e3d6000fd5b505050506040513d602081101561079657600080fd5b505190505b90565b6107a6610dcf565b6003805473ffffffffffffffffffffffffffffffffffffffff83167fffffffffffffffffffffffff0000000000000000000000000000000000000000909116811790915560408051918252517fb72b2a9919ffd08bc0d415d8a38b1395a40377207a9867cac2e3c10b1aa560fc9181900360200190a150565b610827610c57565b73ffffffffffffffffffffffffffffffffffffffff811660009081526001602052604090205460ff166108655761086561086082610df2565b610e75565b60005b6002548110156108d5578173ffffffffffffffffffffffffffffffffffffffff166002828154811061089657fe5b60009182526020909120015473ffffffffffffffffffffffffffffffffffffffff1614156108cd576108c88282610e7d565b6108d5565b600101610868565b5050565b73ffffffffffffffffffffffffffffffffffffffff1660009081526004602052604090205490565b60005473ffffffffffffffffffffffffffffffffffffffff1681565b610925610bd9565b61092d610c06565b6108d582826110cc565b61093f610c57565b6108d58282610e7d565b60016020526000908152604090205460ff1681565b610966610dcf565b61096e610c06565b600380547fffffffffffffffffffffff00ffffffffffffffffffffffffffffffffffffffff16740100000000000000000000000000000000000000001790556040805133815290517fdc2ba7cd6b8e3bf6f27f665a737e34fb7f72f480a597b51686332c539fab04489181900360200190a1565b60035473ffffffffffffffffffffffffffffffffffffffff1681565b60606002805480602002602001604051908101604052809291908181526020018280548015610a6357602002820191906000526020600020905b815473ffffffffffffffffffffffffffffffffffffffff168152600190910190602001808311610a38575b5050505050905090565b610a75610dcf565b610a7d610c06565b6005805473ffffffffffffffffffffffffffffffffffffffff83167fffffffffffffffffffffffff0000000000000000000000000000000000000000909116811790915560408051918252517f879c7a1bd9d1f1c5b50ae7282977dff1e2c9af679317df596df768664f22d68c9181900360200190a150565b610afe610c57565b73ffffffffffffffffffffffffffffffffffffffff8116610b2957610b2461086061120d565b6106a8565b600080547fffffffffffffffffffffffff00000000000000000000000000000000000000001673ffffffffffffffffffffffffffffffffffffffff83169081178255604051909133917f8be0079c531659141344cd1fd0a4f28419497f9722a3daafe3b4186f6b6457e09190a350565b6000610ba3611244565b73ffffffffffffffffffffffffffffffffffffffff8216600090815260046020526040902054610bd383826110cc565b92915050565b60035473ffffffffffffffffffffffffffffffffffffffff163314610c0457610c0461086033611271565b565b60035474010000000000000000000000000000000000000000900460ff1615610c0457610c046108606112f4565b600082820183811015610c5057610c506108606000868661132b565b9392505050565b60005473ffffffffffffffffffffffffffffffffffffffff163314610c0457600054610c049061086090339073ffffffffffffffffffffffffffffffffffffffff166113ca565b73ffffffffffffffffffffffffffffffffffffffff8116610cc457610cc4610860611456565b73ffffffffffffffffffffffffffffffffffffffff811660009081526001602052604090205460ff1615610cfe57610cfe6108608261148d565b73ffffffffffffffffffffffffffffffffffffffff8116600081815260016020819052604080832080547fffffffffffffffffffffffffffffffffffffffffffffffffffffffffffffff00168317905560028054928301815583527f405787fa12a823e0f2b7631cc41b3ba8828b3321ca811111fa75cd3aa3bb5ace90910180547fffffffffffffffffffffffff00000000000000000000000000000000000000001684179055513392917f3147867c59d17e8fa9d522465651d44aae0a9e38f902f3475b97e58072f0ed4c91a350565b3360009081526001602052604090205460ff16610c0457610c0461086033611510565b6040805173ffffffffffffffffffffffffffffffffffffffff83166024808301919091528251808303909101815260449091019091526020810180517bffffffffffffffffffffffffffffffffffffffffffffffffffffffff167feb5108a200000000000000000000000000000000000000000000000000000000179052919050565b805160208201fd5b73ffffffffffffffffffffffffffffffffffffffff821660009081526001602052604090205460ff16610eb657610eb661086083610df2565b6002548110610ed157610ed161086082600280549050611593565b8173ffffffffffffffffffffffffffffffffffffffff1660028281548110610ef557fe5b60009182526020909120015473ffffffffffffffffffffffffffffffffffffffff1614610f5757610f5761086060028381548110610f2f57fe5b60009182526020909120015473ffffffffffffffffffffffffffffffffffffffff1684611606565b73ffffffffffffffffffffffffffffffffffffffff8216600090815260016020526040902080547fffffffffffffffffffffffffffffffffffffffffffffffffffffffffffffff00169055600280547fffffffffffffffffffffffffffffffffffffffffffffffffffffffffffffffff8101908110610fd257fe5b6000918252602090912001546002805473ffffffffffffffffffffffffffffffffffffffff909216918390811061100557fe5b600091825260209091200180547fffffffffffffffffffffffff00000000000000000000000000000000000000001673ffffffffffffffffffffffffffffffffffffffff92909216919091179055600280547fffffffffffffffffffffffffffffffffffffffffffffffffffffffffffffffff019061108490826116e8565b50604051339073ffffffffffffffffffffffffffffffffffffffff8416907f1f32c1b084e2de0713b8fb16bd46bb9df710a3dbeae2f3ca93af46e016dcc6b090600090a35050565b73ffffffffffffffffffffffffffffffffffffffff8216600090815260046020526040902054611102908263ffffffff61169216565b73ffffffffffffffffffffffffffffffffffffffff8316600081815260046020908152604091829020939093558051848152905191927f884edad9ce6fa2440d8a54cc123490eb96d2768479d49ff9c7366125a942436492918290030190a2600654604080517fa9059cbb00000000000000000000000000000000000000000000000000000000815273ffffffffffffffffffffffffffffffffffffffff8581166004830152602482018590529151919092169163a9059cbb9160448083019260209291908290030181600087803b1580156111dd57600080fd5b505af11580156111f1573d6000803e3d6000fd5b505050506040513d602081101561120757600080fd5b50505050565b60408051808201909152600481527fe69edc3e00000000000000000000000000000000000000000000000000000000602082015290565b60035474010000000000000000000000000000000000000000900460ff16610c0457610c046108606116b1565b6040805173ffffffffffffffffffffffffffffffffffffffff83166024808301919091528251808303909101815260449091019091526020810180517bffffffffffffffffffffffffffffffffffffffffffffffffffffffff167fca1d07a200000000000000000000000000000000000000000000000000000000179052919050565b60408051808201909152600481527f7dd020ce00000000000000000000000000000000000000000000000000000000602082015290565b606063e946c1bb60e01b8484846040516024018084600381111561134b57fe5b60ff1681526020018381526020018281526020019350505050604051602081830303815290604052907bffffffffffffffffffffffffffffffffffffffffffffffffffffffff19166020820180517bffffffffffffffffffffffffffffffffffffffffffffffffffffffff838183161783525050505090509392505050565b6040805173ffffffffffffffffffffffffffffffffffffffff808516602483015283166044808301919091528251808303909101815260649091019091526020810180517bffffffffffffffffffffffffffffffffffffffffffffffffffffffff167f1de45ad10000000000000000000000000000000000000000000000000000000017905292915050565b60408051808201909152600481527f57654fe400000000000000000000000000000000000000000000000000000000602082015290565b6040805173ffffffffffffffffffffffffffffffffffffffff83166024808301919091528251808303909101815260449091019091526020810180517bffffffffffffffffffffffffffffffffffffffffffffffffffffffff167fde16f1a000000000000000000000000000000000000000000000000000000000179052919050565b6040805173ffffffffffffffffffffffffffffffffffffffff83166024808301919091528251808303909101815260449091019091526020810180517bffffffffffffffffffffffffffffffffffffffffffffffffffffffff167fb65a25b900000000000000000000000000000000000000000000000000000000179052919050565b604080516024810184905260448082018490528251808303909101815260649091019091526020810180517bffffffffffffffffffffffffffffffffffffffffffffffffffffffff167fe9f837710000000000000000000000000000000000000000000000000000000017905292915050565b6040805173ffffffffffffffffffffffffffffffffffffffff808516602483015283166044808301919091528251808303909101815260649091019091526020810180517bffffffffffffffffffffffffffffffffffffffffffffffffffffffff167f140a84db0000000000000000000000000000000000000000000000000000000017905292915050565b6000828211156116ab576116ab6108606002858561132b565b50900390565b60408051808201909152600481527f3ef081cc00000000000000000000000000000000000000000000000000000000602082015290565b81548183558181111561170c5760008381526020902061170c918101908301611711565b505050565b61079b91905b8082111561172b5760008155600101611717565b509056fea265627a7a7230582025b1656316fe7320582c694e11c1be63dd5e6db89f71957e9211abe739242d0964736f6c63430005090032",
				"opcodes": "PUSH1 0x80 PUSH1 0x40 MSTORE CALLVALUE DUP1 ISZERO PUSH3 0x11 JUMPI PUSH1 0x0 DUP1 REVERT JUMPDEST POP PUSH1 0x40 MLOAD PUSH3 0x1902 CODESIZE SUB DUP1 PUSH3 0x1902 DUP4 CODECOPY DUP2 DUP2 ADD PUSH1 0x40 MSTORE PUSH1 0x40 DUP2 LT ISZERO PUSH3 0x37 JUMPI PUSH1 0x0 DUP1 REVERT JUMPDEST POP DUP1 MLOAD PUSH1 0x20 SWAP2 DUP3 ADD MLOAD PUSH1 0x0 DUP1 SLOAD PUSH1 0x1 PUSH1 0x1 PUSH1 0xA0 SHL SUB NOT SWAP1 DUP2 AND CALLER OR SWAP1 SWAP2 SSTORE PUSH1 0x5 DUP1 SLOAD PUSH1 0x1 PUSH1 0x1 PUSH1 0xA0 SHL SUB DUP1 DUP7 AND SWAP2 DUP5 AND SWAP2 SWAP1 SWAP2 OR SWAP1 SWAP2 SSTORE PUSH1 0x6 DUP1 SLOAD SWAP2 DUP5 AND SWAP2 SWAP1 SWAP3 AND DUP2 OR SWAP1 SWAP2 SSTORE PUSH1 0x40 DUP1 MLOAD PUSH1 0x24 DUP1 DUP3 ADD SWAP4 SWAP1 SWAP4 MSTORE DUP2 MLOAD DUP1 DUP3 SUB SWAP1 SWAP4 ADD DUP4 MSTORE PUSH1 0x44 ADD SWAP1 MSTORE SWAP3 DUP4 ADD DUP1 MLOAD PUSH1 0x1 PUSH1 0x1 PUSH1 0xE0 SHL SUB AND PUSH32 0xF47261B000000000000000000000000000000000000000000000000000000000 OR DUP2 MSTORE SWAP3 MLOAD SWAP2 SWAP3 SWAP1 SWAP2 PUSH3 0xE0 SWAP2 PUSH1 0x7 SWAP2 PUSH3 0xE9 JUMP JUMPDEST POP POP POP PUSH3 0x18E JUMP JUMPDEST DUP3 DUP1 SLOAD PUSH1 0x1 DUP2 PUSH1 0x1 AND ISZERO PUSH2 0x100 MUL SUB AND PUSH1 0x2 SWAP1 DIV SWAP1 PUSH1 0x0 MSTORE PUSH1 0x20 PUSH1 0x0 KECCAK256 SWAP1 PUSH1 0x1F ADD PUSH1 0x20 SWAP1 DIV DUP2 ADD SWAP3 DUP3 PUSH1 0x1F LT PUSH3 0x12C JUMPI DUP1 MLOAD PUSH1 0xFF NOT AND DUP4 DUP1 ADD OR DUP6 SSTORE PUSH3 0x15C JUMP JUMPDEST DUP3 DUP1 ADD PUSH1 0x1 ADD DUP6 SSTORE DUP3 ISZERO PUSH3 0x15C JUMPI SWAP2 DUP3 ADD JUMPDEST DUP3 DUP2 GT ISZERO PUSH3 0x15C JUMPI DUP3 MLOAD DUP3 SSTORE SWAP2 PUSH1 0x20 ADD SWAP2 SWAP1 PUSH1 0x1 ADD SWAP1 PUSH3 0x13F JUMP JUMPDEST POP PUSH3 0x16A SWAP3 SWAP2 POP PUSH3 0x16E JUMP JUMPDEST POP SWAP1 JUMP JUMPDEST PUSH3 0x18B SWAP2 SWAP1 JUMPDEST DUP1 DUP3 GT ISZERO PUSH3 0x16A JUMPI PUSH1 0x0 DUP2 SSTORE PUSH1 0x1 ADD PUSH3 0x175 JUMP JUMPDEST SWAP1 JUMP JUMPDEST PUSH2 0x1764 DUP1 PUSH3 0x19E PUSH1 0x0 CODECOPY PUSH1 0x0 RETURN INVALID PUSH1 0x80 PUSH1 0x40 MSTORE CALLVALUE DUP1 ISZERO PUSH2 0x10 JUMPI PUSH1 0x0 DUP1 REVERT JUMPDEST POP PUSH1 0x4 CALLDATASIZE LT PUSH2 0x151 JUMPI PUSH1 0x0 CALLDATALOAD PUSH1 0xE0 SHR DUP1 PUSH4 0x8DA5CB5B GT PUSH2 0xCD JUMPI DUP1 PUSH4 0xC4D8F237 GT PUSH2 0x81 JUMPI DUP1 PUSH4 0xDB8E54BD GT PUSH2 0x66 JUMPI DUP1 PUSH4 0xDB8E54BD EQ PUSH2 0x3F6 JUMPI DUP1 PUSH4 0xF2FDE38B EQ PUSH2 0x429 JUMPI DUP1 PUSH4 0xF957DDBA EQ PUSH2 0x45C JUMPI PUSH2 0x151 JUMP JUMPDEST DUP1 PUSH4 0xC4D8F237 EQ PUSH2 0x396 JUMPI DUP1 PUSH4 0xD39DE6E9 EQ PUSH2 0x39E JUMPI PUSH2 0x151 JUMP JUMPDEST DUP1 PUSH4 0x9AD26744 GT PUSH2 0xB2 JUMPI DUP1 PUSH4 0x9AD26744 EQ PUSH2 0x322 JUMPI DUP1 PUSH4 0xB9181611 EQ PUSH2 0x35B JUMPI DUP1 PUSH4 0xC02E5A7F EQ PUSH2 0x38E JUMPI PUSH2 0x151 JUMP JUMPDEST DUP1 PUSH4 0x8DA5CB5B EQ PUSH2 0x2E1 JUMPI DUP1 PUSH4 0x9470B0BD EQ PUSH2 0x2E9 JUMPI PUSH2 0x151 JUMP JUMPDEST DUP1 PUSH4 0x63E17553 GT PUSH2 0x124 JUMPI DUP1 PUSH4 0x6BF3F9E5 GT PUSH2 0x109 JUMPI DUP1 PUSH4 0x6BF3F9E5 EQ PUSH2 0x248 JUMPI DUP1 PUSH4 0x70712939 EQ PUSH2 0x27B JUMPI DUP1 PUSH4 0x70A08231 EQ PUSH2 0x2AE JUMPI PUSH2 0x151 JUMP JUMPDEST DUP1 PUSH4 0x63E17553 EQ PUSH2 0x226 JUMPI DUP1 PUSH4 0x6B6DF5AA EQ PUSH2 0x22E JUMPI PUSH2 0x151 JUMP JUMPDEST DUP1 PUSH4 0x15CC36F2 EQ PUSH2 0x156 JUMPI DUP1 PUSH4 0x266DF27C EQ PUSH2 0x191 JUMPI DUP1 PUSH4 0x42F1181E EQ PUSH2 0x1AD JUMPI DUP1 PUSH4 0x494503D4 EQ PUSH2 0x1E0 JUMPI JUMPDEST PUSH1 0x0 DUP1 REVERT JUMPDEST PUSH2 0x18F PUSH1 0x4 DUP1 CALLDATASIZE SUB PUSH1 0x40 DUP2 LT ISZERO PUSH2 0x16C JUMPI PUSH1 0x0 DUP1 REVERT JUMPDEST POP PUSH20 0xFFFFFFFFFFFFFFFFFFFFFFFFFFFFFFFFFFFFFFFF DUP2 CALLDATALOAD AND SWAP1 PUSH1 0x20 ADD CALLDATALOAD PUSH2 0x48F JUMP JUMPDEST STOP JUMPDEST PUSH2 0x199 PUSH2 0x676 JUMP JUMPDEST PUSH1 0x40 DUP1 MLOAD SWAP2 ISZERO ISZERO DUP3 MSTORE MLOAD SWAP1 DUP2 SWAP1 SUB PUSH1 0x20 ADD SWAP1 RETURN JUMPDEST PUSH2 0x18F PUSH1 0x4 DUP1 CALLDATASIZE SUB PUSH1 0x20 DUP2 LT ISZERO PUSH2 0x1C3 JUMPI PUSH1 0x0 DUP1 REVERT JUMPDEST POP CALLDATALOAD PUSH20 0xFFFFFFFFFFFFFFFFFFFFFFFFFFFFFFFFFFFFFFFF AND PUSH2 0x697 JUMP JUMPDEST PUSH2 0x1FD PUSH1 0x4 DUP1 CALLDATASIZE SUB PUSH1 0x20 DUP2 LT ISZERO PUSH2 0x1F6 JUMPI PUSH1 0x0 DUP1 REVERT JUMPDEST POP CALLDATALOAD PUSH2 0x6AB JUMP JUMPDEST PUSH1 0x40 DUP1 MLOAD PUSH20 0xFFFFFFFFFFFFFFFFFFFFFFFFFFFFFFFFFFFFFFFF SWAP1 SWAP3 AND DUP3 MSTORE MLOAD SWAP1 DUP2 SWAP1 SUB PUSH1 0x20 ADD SWAP1 RETURN JUMPDEST PUSH2 0x1FD PUSH2 0x6DF JUMP JUMPDEST PUSH2 0x236 PUSH2 0x6FB JUMP JUMPDEST PUSH1 0x40 DUP1 MLOAD SWAP2 DUP3 MSTORE MLOAD SWAP1 DUP2 SWAP1 SUB PUSH1 0x20 ADD SWAP1 RETURN JUMPDEST PUSH2 0x18F PUSH1 0x4 DUP1 CALLDATASIZE SUB PUSH1 0x20 DUP2 LT ISZERO PUSH2 0x25E JUMPI PUSH1 0x0 DUP1 REVERT JUMPDEST POP CALLDATALOAD PUSH20 0xFFFFFFFFFFFFFFFFFFFFFFFFFFFFFFFFFFFFFFFF AND PUSH2 0x79E JUMP JUMPDEST PUSH2 0x18F PUSH1 0x4 DUP1 CALLDATASIZE SUB PUSH1 0x20 DUP2 LT ISZERO PUSH2 0x291 JUMPI PUSH1 0x0 DUP1 REVERT JUMPDEST POP CALLDATALOAD PUSH20 0xFFFFFFFFFFFFFFFFFFFFFFFFFFFFFFFFFFFFFFFF AND PUSH2 0x81F JUMP JUMPDEST PUSH2 0x236 PUSH1 0x4 DUP1 CALLDATASIZE SUB PUSH1 0x20 DUP2 LT ISZERO PUSH2 0x2C4 JUMPI PUSH1 0x0 DUP1 REVERT JUMPDEST POP CALLDATALOAD PUSH20 0xFFFFFFFFFFFFFFFFFFFFFFFFFFFFFFFFFFFFFFFF AND PUSH2 0x8D9 JUMP JUMPDEST PUSH2 0x1FD PUSH2 0x901 JUMP JUMPDEST PUSH2 0x18F PUSH1 0x4 DUP1 CALLDATASIZE SUB PUSH1 0x40 DUP2 LT ISZERO PUSH2 0x2FF JUMPI PUSH1 0x0 DUP1 REVERT JUMPDEST POP PUSH20 0xFFFFFFFFFFFFFFFFFFFFFFFFFFFFFFFFFFFFFFFF DUP2 CALLDATALOAD AND SWAP1 PUSH1 0x20 ADD CALLDATALOAD PUSH2 0x91D JUMP JUMPDEST PUSH2 0x18F PUSH1 0x4 DUP1 CALLDATASIZE SUB PUSH1 0x40 DUP2 LT ISZERO PUSH2 0x338 JUMPI PUSH1 0x0 DUP1 REVERT JUMPDEST POP PUSH20 0xFFFFFFFFFFFFFFFFFFFFFFFFFFFFFFFFFFFFFFFF DUP2 CALLDATALOAD AND SWAP1 PUSH1 0x20 ADD CALLDATALOAD PUSH2 0x937 JUMP JUMPDEST PUSH2 0x199 PUSH1 0x4 DUP1 CALLDATASIZE SUB PUSH1 0x20 DUP2 LT ISZERO PUSH2 0x371 JUMPI PUSH1 0x0 DUP1 REVERT JUMPDEST POP CALLDATALOAD PUSH20 0xFFFFFFFFFFFFFFFFFFFFFFFFFFFFFFFFFFFFFFFF AND PUSH2 0x949 JUMP JUMPDEST PUSH2 0x18F PUSH2 0x95E JUMP JUMPDEST PUSH2 0x1FD PUSH2 0x9E2 JUMP JUMPDEST PUSH2 0x3A6 PUSH2 0x9FE JUMP JUMPDEST PUSH1 0x40 DUP1 MLOAD PUSH1 0x20 DUP1 DUP3 MSTORE DUP4 MLOAD DUP2 DUP4 ADD MSTORE DUP4 MLOAD SWAP2 SWAP3 DUP4 SWAP3 SWAP1 DUP4 ADD SWAP2 DUP6 DUP2 ADD SWAP2 MUL DUP1 DUP4 DUP4 PUSH1 0x0 JUMPDEST DUP4 DUP2 LT ISZERO PUSH2 0x3E2 JUMPI DUP2 DUP2 ADD MLOAD DUP4 DUP3 ADD MSTORE PUSH1 0x20 ADD PUSH2 0x3CA JUMP JUMPDEST POP POP POP POP SWAP1 POP ADD SWAP3 POP POP POP PUSH1 0x40 MLOAD DUP1 SWAP2 SUB SWAP1 RETURN JUMPDEST PUSH2 0x18F PUSH1 0x4 DUP1 CALLDATASIZE SUB PUSH1 0x20 DUP2 LT ISZERO PUSH2 0x40C JUMPI PUSH1 0x0 DUP1 REVERT JUMPDEST POP CALLDATALOAD PUSH20 0xFFFFFFFFFFFFFFFFFFFFFFFFFFFFFFFFFFFFFFFF AND PUSH2 0xA6D JUMP JUMPDEST PUSH2 0x18F PUSH1 0x4 DUP1 CALLDATASIZE SUB PUSH1 0x20 DUP2 LT ISZERO PUSH2 0x43F JUMPI PUSH1 0x0 DUP1 REVERT JUMPDEST POP CALLDATALOAD PUSH20 0xFFFFFFFFFFFFFFFFFFFFFFFFFFFFFFFFFFFFFFFF AND PUSH2 0xAF6 JUMP JUMPDEST PUSH2 0x236 PUSH1 0x4 DUP1 CALLDATASIZE SUB PUSH1 0x20 DUP2 LT ISZERO PUSH2 0x472 JUMPI PUSH1 0x0 DUP1 REVERT JUMPDEST POP CALLDATALOAD PUSH20 0xFFFFFFFFFFFFFFFFFFFFFFFFFFFFFFFFFFFFFFFF AND PUSH2 0xB99 JUMP JUMPDEST PUSH2 0x497 PUSH2 0xBD9 JUMP JUMPDEST PUSH2 0x49F PUSH2 0xC06 JUMP JUMPDEST PUSH20 0xFFFFFFFFFFFFFFFFFFFFFFFFFFFFFFFFFFFFFFFF DUP3 AND PUSH1 0x0 SWAP1 DUP2 MSTORE PUSH1 0x4 PUSH1 0x20 MSTORE PUSH1 0x40 SWAP1 KECCAK256 SLOAD PUSH2 0x4D5 SWAP1 DUP3 PUSH4 0xFFFFFFFF PUSH2 0xC34 AND JUMP JUMPDEST PUSH20 0xFFFFFFFFFFFFFFFFFFFFFFFFFFFFFFFFFFFFFFFF DUP4 AND PUSH1 0x0 DUP2 DUP2 MSTORE PUSH1 0x4 PUSH1 0x20 SWAP1 DUP2 MSTORE PUSH1 0x40 SWAP2 DUP3 SWAP1 KECCAK256 SWAP4 SWAP1 SWAP4 SSTORE DUP1 MLOAD DUP5 DUP2 MSTORE SWAP1 MLOAD SWAP2 SWAP3 PUSH32 0xE1FFFCC4923D04B559F4D29A8BFC6CDA04EB5B0D3C460751C2402C5C5CC9109C SWAP3 SWAP2 DUP3 SWAP1 SUB ADD SWAP1 LOG2 PUSH1 0x5 SLOAD PUSH1 0x40 MLOAD PUSH32 0xA85E59E400000000000000000000000000000000000000000000000000000000 DUP2 MSTORE PUSH20 0xFFFFFFFFFFFFFFFFFFFFFFFFFFFFFFFFFFFFFFFF DUP5 DUP2 AND PUSH1 0x24 DUP4 ADD MSTORE ADDRESS PUSH1 0x44 DUP4 ADD DUP2 SWAP1 MSTORE PUSH1 0x64 DUP4 ADD DUP6 SWAP1 MSTORE PUSH1 0x80 PUSH1 0x4 DUP5 ADD SWAP1 DUP2 MSTORE PUSH1 0x7 DUP1 SLOAD PUSH1 0x2 PUSH32 0xFFFFFFFFFFFFFFFFFFFFFFFFFFFFFFFFFFFFFFFFFFFFFFFFFFFFFFFFFFFFFFFF PUSH1 0x1 DUP4 AND ISZERO PUSH2 0x100 MUL ADD SWAP1 SWAP2 AND DIV PUSH1 0x84 DUP7 ADD DUP2 SWAP1 MSTORE SWAP4 SWAP1 SWAP6 AND SWAP5 PUSH4 0xA85E59E4 SWAP5 SWAP1 SWAP4 DUP9 SWAP4 SWAP3 DUP9 SWAP3 SWAP1 SWAP2 DUP3 SWAP2 PUSH1 0xA4 ADD SWAP1 DUP8 SWAP1 DUP1 ISZERO PUSH2 0x637 JUMPI DUP1 PUSH1 0x1F LT PUSH2 0x60C JUMPI PUSH2 0x100 DUP1 DUP4 SLOAD DIV MUL DUP4 MSTORE SWAP2 PUSH1 0x20 ADD SWAP2 PUSH2 0x637 JUMP JUMPDEST DUP3 ADD SWAP2 SWAP1 PUSH1 0x0 MSTORE PUSH1 0x20 PUSH1 0x0 KECCAK256 SWAP1 JUMPDEST DUP2 SLOAD DUP2 MSTORE SWAP1 PUSH1 0x1 ADD SWAP1 PUSH1 0x20 ADD DUP1 DUP4 GT PUSH2 0x61A JUMPI DUP3 SWAP1 SUB PUSH1 0x1F AND DUP3 ADD SWAP2 JUMPDEST POP POP SWAP6 POP POP POP POP POP POP PUSH1 0x0 PUSH1 0x40 MLOAD DUP1 DUP4 SUB DUP2 PUSH1 0x0 DUP8 DUP1 EXTCODESIZE ISZERO DUP1 ISZERO PUSH2 0x65A JUMPI PUSH1 0x0 DUP1 REVERT JUMPDEST POP GAS CALL ISZERO DUP1 ISZERO PUSH2 0x66E JUMPI RETURNDATASIZE PUSH1 0x0 DUP1 RETURNDATACOPY RETURNDATASIZE PUSH1 0x0 REVERT JUMPDEST POP POP POP POP POP POP JUMP JUMPDEST PUSH1 0x3 SLOAD PUSH21 0x10000000000000000000000000000000000000000 SWAP1 DIV PUSH1 0xFF AND DUP2 JUMP JUMPDEST PUSH2 0x69F PUSH2 0xC57 JUMP JUMPDEST PUSH2 0x6A8 DUP2 PUSH2 0xC9E JUMP JUMPDEST POP JUMP JUMPDEST PUSH1 0x2 DUP2 DUP2 SLOAD DUP2 LT PUSH2 0x6B8 JUMPI INVALID JUMPDEST PUSH1 0x0 SWAP2 DUP3 MSTORE PUSH1 0x20 SWAP1 SWAP2 KECCAK256 ADD SLOAD PUSH20 0xFFFFFFFFFFFFFFFFFFFFFFFFFFFFFFFFFFFFFFFF AND SWAP1 POP DUP2 JUMP JUMPDEST PUSH1 0x5 SLOAD PUSH20 0xFFFFFFFFFFFFFFFFFFFFFFFFFFFFFFFFFFFFFFFF AND DUP2 JUMP JUMPDEST PUSH1 0x6 SLOAD PUSH1 0x40 DUP1 MLOAD PUSH32 0x70A0823100000000000000000000000000000000000000000000000000000000 DUP2 MSTORE ADDRESS PUSH1 0x4 DUP3 ADD MSTORE SWAP1 MLOAD PUSH1 0x0 SWAP3 PUSH20 0xFFFFFFFFFFFFFFFFFFFFFFFFFFFFFFFFFFFFFFFF AND SWAP2 PUSH4 0x70A08231 SWAP2 PUSH1 0x24 DUP1 DUP4 ADD SWAP3 PUSH1 0x20 SWAP3 SWAP2 SWAP1 DUP3 SWAP1 SUB ADD DUP2 DUP7 DUP1 EXTCODESIZE ISZERO DUP1 ISZERO PUSH2 0x76C JUMPI PUSH1 0x0 DUP1 REVERT JUMPDEST POP GAS STATICCALL ISZERO DUP1 ISZERO PUSH2 0x780 JUMPI RETURNDATASIZE PUSH1 0x0 DUP1 RETURNDATACOPY RETURNDATASIZE PUSH1 0x0 REVERT JUMPDEST POP POP POP POP PUSH1 0x40 MLOAD RETURNDATASIZE PUSH1 0x20 DUP2 LT ISZERO PUSH2 0x796 JUMPI PUSH1 0x0 DUP1 REVERT JUMPDEST POP MLOAD SWAP1 POP JUMPDEST SWAP1 JUMP JUMPDEST PUSH2 0x7A6 PUSH2 0xDCF JUMP JUMPDEST PUSH1 0x3 DUP1 SLOAD PUSH20 0xFFFFFFFFFFFFFFFFFFFFFFFFFFFFFFFFFFFFFFFF DUP4 AND PUSH32 0xFFFFFFFFFFFFFFFFFFFFFFFF0000000000000000000000000000000000000000 SWAP1 SWAP2 AND DUP2 OR SWAP1 SWAP2 SSTORE PUSH1 0x40 DUP1 MLOAD SWAP2 DUP3 MSTORE MLOAD PUSH32 0xB72B2A9919FFD08BC0D415D8A38B1395A40377207A9867CAC2E3C10B1AA560FC SWAP2 DUP2 SWAP1 SUB PUSH1 0x20 ADD SWAP1 LOG1 POP JUMP JUMPDEST PUSH2 0x827 PUSH2 0xC57 JUMP JUMPDEST PUSH20 0xFFFFFFFFFFFFFFFFFFFFFFFFFFFFFFFFFFFFFFFF DUP2 AND PUSH1 0x0 SWAP1 DUP2 MSTORE PUSH1 0x1 PUSH1 0x20 MSTORE PUSH1 0x40 SWAP1 KECCAK256 SLOAD PUSH1 0xFF AND PUSH2 0x865 JUMPI PUSH2 0x865 PUSH2 0x860 DUP3 PUSH2 0xDF2 JUMP JUMPDEST PUSH2 0xE75 JUMP JUMPDEST PUSH1 0x0 JUMPDEST PUSH1 0x2 SLOAD DUP2 LT ISZERO PUSH2 0x8D5 JUMPI DUP2 PUSH20 0xFFFFFFFFFFFFFFFFFFFFFFFFFFFFFFFFFFFFFFFF AND PUSH1 0x2 DUP3 DUP2 SLOAD DUP2 LT PUSH2 0x896 JUMPI INVALID JUMPDEST PUSH1 0x0 SWAP2 DUP3 MSTORE PUSH1 0x20 SWAP1 SWAP2 KECCAK256 ADD SLOAD PUSH20 0xFFFFFFFFFFFFFFFFFFFFFFFFFFFFFFFFFFFFFFFF AND EQ ISZERO PUSH2 0x8CD JUMPI PUSH2 0x8C8 DUP3 DUP3 PUSH2 0xE7D JUMP JUMPDEST PUSH2 0x8D5 JUMP JUMPDEST PUSH1 0x1 ADD PUSH2 0x868 JUMP JUMPDEST POP POP JUMP JUMPDEST PUSH20 0xFFFFFFFFFFFFFFFFFFFFFFFFFFFFFFFFFFFFFFFF AND PUSH1 0x0 SWAP1 DUP2 MSTORE PUSH1 0x4 PUSH1 0x20 MSTORE PUSH1 0x40 SWAP1 KECCAK256 SLOAD SWAP1 JUMP JUMPDEST PUSH1 0x0 SLOAD PUSH20 0xFFFFFFFFFFFFFFFFFFFFFFFFFFFFFFFFFFFFFFFF AND DUP2 JUMP JUMPDEST PUSH2 0x925 PUSH2 0xBD9 JUMP JUMPDEST PUSH2 0x92D PUSH2 0xC06 JUMP JUMPDEST PUSH2 0x8D5 DUP3 DUP3 PUSH2 0x10CC JUMP JUMPDEST PUSH2 0x93F PUSH2 0xC57 JUMP JUMPDEST PUSH2 0x8D5 DUP3 DUP3 PUSH2 0xE7D JUMP JUMPDEST PUSH1 0x1 PUSH1 0x20 MSTORE PUSH1 0x0 SWAP1 DUP2 MSTORE PUSH1 0x40 SWAP1 KECCAK256 SLOAD PUSH1 0xFF AND DUP2 JUMP JUMPDEST PUSH2 0x966 PUSH2 0xDCF JUMP JUMPDEST PUSH2 0x96E PUSH2 0xC06 JUMP JUMPDEST PUSH1 0x3 DUP1 SLOAD PUSH32 0xFFFFFFFFFFFFFFFFFFFFFF00FFFFFFFFFFFFFFFFFFFFFFFFFFFFFFFFFFFFFFFF AND PUSH21 0x10000000000000000000000000000000000000000 OR SWAP1 SSTORE PUSH1 0x40 DUP1 MLOAD CALLER DUP2 MSTORE SWAP1 MLOAD PUSH32 0xDC2BA7CD6B8E3BF6F27F665A737E34FB7F72F480A597B51686332C539FAB0448 SWAP2 DUP2 SWAP1 SUB PUSH1 0x20 ADD SWAP1 LOG1 JUMP JUMPDEST PUSH1 0x3 SLOAD PUSH20 0xFFFFFFFFFFFFFFFFFFFFFFFFFFFFFFFFFFFFFFFF AND DUP2 JUMP JUMPDEST PUSH1 0x60 PUSH1 0x2 DUP1 SLOAD DUP1 PUSH1 0x20 MUL PUSH1 0x20 ADD PUSH1 0x40 MLOAD SWAP1 DUP2 ADD PUSH1 0x40 MSTORE DUP1 SWAP3 SWAP2 SWAP1 DUP2 DUP2 MSTORE PUSH1 0x20 ADD DUP3 DUP1 SLOAD DUP1 ISZERO PUSH2 0xA63 JUMPI PUSH1 0x20 MUL DUP3 ADD SWAP2 SWAP1 PUSH1 0x0 MSTORE PUSH1 0x20 PUSH1 0x0 KECCAK256 SWAP1 JUMPDEST DUP2 SLOAD PUSH20 0xFFFFFFFFFFFFFFFFFFFFFFFFFFFFFFFFFFFFFFFF AND DUP2 MSTORE PUSH1 0x1 SWAP1 SWAP2 ADD SWAP1 PUSH1 0x20 ADD DUP1 DUP4 GT PUSH2 0xA38 JUMPI JUMPDEST POP POP POP POP POP SWAP1 POP SWAP1 JUMP JUMPDEST PUSH2 0xA75 PUSH2 0xDCF JUMP JUMPDEST PUSH2 0xA7D PUSH2 0xC06 JUMP JUMPDEST PUSH1 0x5 DUP1 SLOAD PUSH20 0xFFFFFFFFFFFFFFFFFFFFFFFFFFFFFFFFFFFFFFFF DUP4 AND PUSH32 0xFFFFFFFFFFFFFFFFFFFFFFFF0000000000000000000000000000000000000000 SWAP1 SWAP2 AND DUP2 OR SWAP1 SWAP2 SSTORE PUSH1 0x40 DUP1 MLOAD SWAP2 DUP3 MSTORE MLOAD PUSH32 0x879C7A1BD9D1F1C5B50AE7282977DFF1E2C9AF679317DF596DF768664F22D68C SWAP2 DUP2 SWAP1 SUB PUSH1 0x20 ADD SWAP1 LOG1 POP JUMP JUMPDEST PUSH2 0xAFE PUSH2 0xC57 JUMP JUMPDEST PUSH20 0xFFFFFFFFFFFFFFFFFFFFFFFFFFFFFFFFFFFFFFFF DUP2 AND PUSH2 0xB29 JUMPI PUSH2 0xB24 PUSH2 0x860 PUSH2 0x120D JUMP JUMPDEST PUSH2 0x6A8 JUMP JUMPDEST PUSH1 0x0 DUP1 SLOAD PUSH32 0xFFFFFFFFFFFFFFFFFFFFFFFF0000000000000000000000000000000000000000 AND PUSH20 0xFFFFFFFFFFFFFFFFFFFFFFFFFFFFFFFFFFFFFFFF DUP4 AND SWAP1 DUP2 OR DUP3 SSTORE PUSH1 0x40 MLOAD SWAP1 SWAP2 CALLER SWAP2 PUSH32 0x8BE0079C531659141344CD1FD0A4F28419497F9722A3DAAFE3B4186F6B6457E0 SWAP2 SWAP1 LOG3 POP JUMP JUMPDEST PUSH1 0x0 PUSH2 0xBA3 PUSH2 0x1244 JUMP JUMPDEST PUSH20 0xFFFFFFFFFFFFFFFFFFFFFFFFFFFFFFFFFFFFFFFF DUP3 AND PUSH1 0x0 SWAP1 DUP2 MSTORE PUSH1 0x4 PUSH1 0x20 MSTORE PUSH1 0x40 SWAP1 KECCAK256 SLOAD PUSH2 0xBD3 DUP4 DUP3 PUSH2 0x10CC JUMP JUMPDEST SWAP3 SWAP2 POP POP JUMP JUMPDEST PUSH1 0x3 SLOAD PUSH20 0xFFFFFFFFFFFFFFFFFFFFFFFFFFFFFFFFFFFFFFFF AND CALLER EQ PUSH2 0xC04 JUMPI PUSH2 0xC04 PUSH2 0x860 CALLER PUSH2 0x1271 JUMP JUMPDEST JUMP JUMPDEST PUSH1 0x3 SLOAD PUSH21 0x10000000000000000000000000000000000000000 SWAP1 DIV PUSH1 0xFF AND ISZERO PUSH2 0xC04 JUMPI PUSH2 0xC04 PUSH2 0x860 PUSH2 0x12F4 JUMP JUMPDEST PUSH1 0x0 DUP3 DUP3 ADD DUP4 DUP2 LT ISZERO PUSH2 0xC50 JUMPI PUSH2 0xC50 PUSH2 0x860 PUSH1 0x0 DUP7 DUP7 PUSH2 0x132B JUMP JUMPDEST SWAP4 SWAP3 POP POP POP JUMP JUMPDEST PUSH1 0x0 SLOAD PUSH20 0xFFFFFFFFFFFFFFFFFFFFFFFFFFFFFFFFFFFFFFFF AND CALLER EQ PUSH2 0xC04 JUMPI PUSH1 0x0 SLOAD PUSH2 0xC04 SWAP1 PUSH2 0x860 SWAP1 CALLER SWAP1 PUSH20 0xFFFFFFFFFFFFFFFFFFFFFFFFFFFFFFFFFFFFFFFF AND PUSH2 0x13CA JUMP JUMPDEST PUSH20 0xFFFFFFFFFFFFFFFFFFFFFFFFFFFFFFFFFFFFFFFF DUP2 AND PUSH2 0xCC4 JUMPI PUSH2 0xCC4 PUSH2 0x860 PUSH2 0x1456 JUMP JUMPDEST PUSH20 0xFFFFFFFFFFFFFFFFFFFFFFFFFFFFFFFFFFFFFFFF DUP2 AND PUSH1 0x0 SWAP1 DUP2 MSTORE PUSH1 0x1 PUSH1 0x20 MSTORE PUSH1 0x40 SWAP1 KECCAK256 SLOAD PUSH1 0xFF AND ISZERO PUSH2 0xCFE JUMPI PUSH2 0xCFE PUSH2 0x860 DUP3 PUSH2 0x148D JUMP JUMPDEST PUSH20 0xFFFFFFFFFFFFFFFFFFFFFFFFFFFFFFFFFFFFFFFF DUP2 AND PUSH1 0x0 DUP2 DUP2 MSTORE PUSH1 0x1 PUSH1 0x20 DUP2 SWAP1 MSTORE PUSH1 0x40 DUP1 DUP4 KECCAK256 DUP1 SLOAD PUSH32 0xFFFFFFFFFFFFFFFFFFFFFFFFFFFFFFFFFFFFFFFFFFFFFFFFFFFFFFFFFFFFFF00 AND DUP4 OR SWAP1 SSTORE PUSH1 0x2 DUP1 SLOAD SWAP3 DUP4 ADD DUP2 SSTORE DUP4 MSTORE PUSH32 0x405787FA12A823E0F2B7631CC41B3BA8828B3321CA811111FA75CD3AA3BB5ACE SWAP1 SWAP2 ADD DUP1 SLOAD PUSH32 0xFFFFFFFFFFFFFFFFFFFFFFFF0000000000000000000000000000000000000000 AND DUP5 OR SWAP1 SSTORE MLOAD CALLER SWAP3 SWAP2 PUSH32 0x3147867C59D17E8FA9D522465651D44AAE0A9E38F902F3475B97E58072F0ED4C SWAP2 LOG3 POP JUMP JUMPDEST CALLER PUSH1 0x0 SWAP1 DUP2 MSTORE PUSH1 0x1 PUSH1 0x20 MSTORE PUSH1 0x40 SWAP1 KECCAK256 SLOAD PUSH1 0xFF AND PUSH2 0xC04 JUMPI PUSH2 0xC04 PUSH2 0x860 CALLER PUSH2 0x1510 JUMP JUMPDEST PUSH1 0x40 DUP1 MLOAD PUSH20 0xFFFFFFFFFFFFFFFFFFFFFFFFFFFFFFFFFFFFFFFF DUP4 AND PUSH1 0x24 DUP1 DUP4 ADD SWAP2 SWAP1 SWAP2 MSTORE DUP3 MLOAD DUP1 DUP4 SUB SWAP1 SWAP2 ADD DUP2 MSTORE PUSH1 0x44 SWAP1 SWAP2 ADD SWAP1 SWAP2 MSTORE PUSH1 0x20 DUP2 ADD DUP1 MLOAD PUSH28 0xFFFFFFFFFFFFFFFFFFFFFFFFFFFFFFFFFFFFFFFFFFFFFFFFFFFFFFFF AND PUSH32 0xEB5108A200000000000000000000000000000000000000000000000000000000 OR SWAP1 MSTORE SWAP2 SWAP1 POP JUMP JUMPDEST DUP1 MLOAD PUSH1 0x20 DUP3 ADD REVERT JUMPDEST PUSH20 0xFFFFFFFFFFFFFFFFFFFFFFFFFFFFFFFFFFFFFFFF DUP3 AND PUSH1 0x0 SWAP1 DUP2 MSTORE PUSH1 0x1 PUSH1 0x20 MSTORE PUSH1 0x40 SWAP1 KECCAK256 SLOAD PUSH1 0xFF AND PUSH2 0xEB6 JUMPI PUSH2 0xEB6 PUSH2 0x860 DUP4 PUSH2 0xDF2 JUMP JUMPDEST PUSH1 0x2 SLOAD DUP2 LT PUSH2 0xED1 JUMPI PUSH2 0xED1 PUSH2 0x860 DUP3 PUSH1 0x2 DUP1 SLOAD SWAP1 POP PUSH2 0x1593 JUMP JUMPDEST DUP2 PUSH20 0xFFFFFFFFFFFFFFFFFFFFFFFFFFFFFFFFFFFFFFFF AND PUSH1 0x2 DUP3 DUP2 SLOAD DUP2 LT PUSH2 0xEF5 JUMPI INVALID JUMPDEST PUSH1 0x0 SWAP2 DUP3 MSTORE PUSH1 0x20 SWAP1 SWAP2 KECCAK256 ADD SLOAD PUSH20 0xFFFFFFFFFFFFFFFFFFFFFFFFFFFFFFFFFFFFFFFF AND EQ PUSH2 0xF57 JUMPI PUSH2 0xF57 PUSH2 0x860 PUSH1 0x2 DUP4 DUP2 SLOAD DUP2 LT PUSH2 0xF2F JUMPI INVALID JUMPDEST PUSH1 0x0 SWAP2 DUP3 MSTORE PUSH1 0x20 SWAP1 SWAP2 KECCAK256 ADD SLOAD PUSH20 0xFFFFFFFFFFFFFFFFFFFFFFFFFFFFFFFFFFFFFFFF AND DUP5 PUSH2 0x1606 JUMP JUMPDEST PUSH20 0xFFFFFFFFFFFFFFFFFFFFFFFFFFFFFFFFFFFFFFFF DUP3 AND PUSH1 0x0 SWAP1 DUP2 MSTORE PUSH1 0x1 PUSH1 0x20 MSTORE PUSH1 0x40 SWAP1 KECCAK256 DUP1 SLOAD PUSH32 0xFFFFFFFFFFFFFFFFFFFFFFFFFFFFFFFFFFFFFFFFFFFFFFFFFFFFFFFFFFFFFF00 AND SWAP1 SSTORE PUSH1 0x2 DUP1 SLOAD PUSH32 0xFFFFFFFFFFFFFFFFFFFFFFFFFFFFFFFFFFFFFFFFFFFFFFFFFFFFFFFFFFFFFFFF DUP2 ADD SWAP1 DUP2 LT PUSH2 0xFD2 JUMPI INVALID JUMPDEST PUSH1 0x0 SWAP2 DUP3 MSTORE PUSH1 0x20 SWAP1 SWAP2 KECCAK256 ADD SLOAD PUSH1 0x2 DUP1 SLOAD PUSH20 0xFFFFFFFFFFFFFFFFFFFFFFFFFFFFFFFFFFFFFFFF SWAP1 SWAP3 AND SWAP2 DUP4 SWAP1 DUP2 LT PUSH2 0x1005 JUMPI INVALID JUMPDEST PUSH1 0x0 SWAP2 DUP3 MSTORE PUSH1 0x20 SWAP1 SWAP2 KECCAK256 ADD DUP1 SLOAD PUSH32 0xFFFFFFFFFFFFFFFFFFFFFFFF0000000000000000000000000000000000000000 AND PUSH20 0xFFFFFFFFFFFFFFFFFFFFFFFFFFFFFFFFFFFFFFFF SWAP3 SWAP1 SWAP3 AND SWAP2 SWAP1 SWAP2 OR SWAP1 SSTORE PUSH1 0x2 DUP1 SLOAD PUSH32 0xFFFFFFFFFFFFFFFFFFFFFFFFFFFFFFFFFFFFFFFFFFFFFFFFFFFFFFFFFFFFFFFF ADD SWAP1 PUSH2 0x1084 SWAP1 DUP3 PUSH2 0x16E8 JUMP JUMPDEST POP PUSH1 0x40 MLOAD CALLER SWAP1 PUSH20 0xFFFFFFFFFFFFFFFFFFFFFFFFFFFFFFFFFFFFFFFF DUP5 AND SWAP1 PUSH32 0x1F32C1B084E2DE0713B8FB16BD46BB9DF710A3DBEAE2F3CA93AF46E016DCC6B0 SWAP1 PUSH1 0x0 SWAP1 LOG3 POP POP JUMP JUMPDEST PUSH20 0xFFFFFFFFFFFFFFFFFFFFFFFFFFFFFFFFFFFFFFFF DUP3 AND PUSH1 0x0 SWAP1 DUP2 MSTORE PUSH1 0x4 PUSH1 0x20 MSTORE PUSH1 0x40 SWAP1 KECCAK256 SLOAD PUSH2 0x1102 SWAP1 DUP3 PUSH4 0xFFFFFFFF PUSH2 0x1692 AND JUMP JUMPDEST PUSH20 0xFFFFFFFFFFFFFFFFFFFFFFFFFFFFFFFFFFFFFFFF DUP4 AND PUSH1 0x0 DUP2 DUP2 MSTORE PUSH1 0x4 PUSH1 0x20 SWAP1 DUP2 MSTORE PUSH1 0x40 SWAP2 DUP3 SWAP1 KECCAK256 SWAP4 SWAP1 SWAP4 SSTORE DUP1 MLOAD DUP5 DUP2 MSTORE SWAP1 MLOAD SWAP2 SWAP3 PUSH32 0x884EDAD9CE6FA2440D8A54CC123490EB96D2768479D49FF9C7366125A9424364 SWAP3 SWAP2 DUP3 SWAP1 SUB ADD SWAP1 LOG2 PUSH1 0x6 SLOAD PUSH1 0x40 DUP1 MLOAD PUSH32 0xA9059CBB00000000000000000000000000000000000000000000000000000000 DUP2 MSTORE PUSH20 0xFFFFFFFFFFFFFFFFFFFFFFFFFFFFFFFFFFFFFFFF DUP6 DUP2 AND PUSH1 0x4 DUP4 ADD MSTORE PUSH1 0x24 DUP3 ADD DUP6 SWAP1 MSTORE SWAP2 MLOAD SWAP2 SWAP1 SWAP3 AND SWAP2 PUSH4 0xA9059CBB SWAP2 PUSH1 0x44 DUP1 DUP4 ADD SWAP3 PUSH1 0x20 SWAP3 SWAP2 SWAP1 DUP3 SWAP1 SUB ADD DUP2 PUSH1 0x0 DUP8 DUP1 EXTCODESIZE ISZERO DUP1 ISZERO PUSH2 0x11DD JUMPI PUSH1 0x0 DUP1 REVERT JUMPDEST POP GAS CALL ISZERO DUP1 ISZERO PUSH2 0x11F1 JUMPI RETURNDATASIZE PUSH1 0x0 DUP1 RETURNDATACOPY RETURNDATASIZE PUSH1 0x0 REVERT JUMPDEST POP POP POP POP PUSH1 0x40 MLOAD RETURNDATASIZE PUSH1 0x20 DUP2 LT ISZERO PUSH2 0x1207 JUMPI PUSH1 0x0 DUP1 REVERT JUMPDEST POP POP POP POP JUMP JUMPDEST PUSH1 0x40 DUP1 MLOAD DUP1 DUP3 ADD SWAP1 SWAP2 MSTORE PUSH1 0x4 DUP2 MSTORE PUSH32 0xE69EDC3E00000000000000000000000000000000000000000000000000000000 PUSH1 0x20 DUP3 ADD MSTORE SWAP1 JUMP JUMPDEST PUSH1 0x3 SLOAD PUSH21 0x10000000000000000000000000000000000000000 SWAP1 DIV PUSH1 0xFF AND PUSH2 0xC04 JUMPI PUSH2 0xC04 PUSH2 0x860 PUSH2 0x16B1 JUMP JUMPDEST PUSH1 0x40 DUP1 MLOAD PUSH20 0xFFFFFFFFFFFFFFFFFFFFFFFFFFFFFFFFFFFFFFFF DUP4 AND PUSH1 0x24 DUP1 DUP4 ADD SWAP2 SWAP1 SWAP2 MSTORE DUP3 MLOAD DUP1 DUP4 SUB SWAP1 SWAP2 ADD DUP2 MSTORE PUSH1 0x44 SWAP1 SWAP2 ADD SWAP1 SWAP2 MSTORE PUSH1 0x20 DUP2 ADD DUP1 MLOAD PUSH28 0xFFFFFFFFFFFFFFFFFFFFFFFFFFFFFFFFFFFFFFFFFFFFFFFFFFFFFFFF AND PUSH32 0xCA1D07A200000000000000000000000000000000000000000000000000000000 OR SWAP1 MSTORE SWAP2 SWAP1 POP JUMP JUMPDEST PUSH1 0x40 DUP1 MLOAD DUP1 DUP3 ADD SWAP1 SWAP2 MSTORE PUSH1 0x4 DUP2 MSTORE PUSH32 0x7DD020CE00000000000000000000000000000000000000000000000000000000 PUSH1 0x20 DUP3 ADD MSTORE SWAP1 JUMP JUMPDEST PUSH1 0x60 PUSH4 0xE946C1BB PUSH1 0xE0 SHL DUP5 DUP5 DUP5 PUSH1 0x40 MLOAD PUSH1 0x24 ADD DUP1 DUP5 PUSH1 0x3 DUP2 GT ISZERO PUSH2 0x134B JUMPI INVALID JUMPDEST PUSH1 0xFF AND DUP2 MSTORE PUSH1 0x20 ADD DUP4 DUP2 MSTORE PUSH1 0x20 ADD DUP3 DUP2 MSTORE PUSH1 0x20 ADD SWAP4 POP POP POP POP PUSH1 0x40 MLOAD PUSH1 0x20 DUP2 DUP4 SUB SUB DUP2 MSTORE SWAP1 PUSH1 0x40 MSTORE SWAP1 PUSH28 0xFFFFFFFFFFFFFFFFFFFFFFFFFFFFFFFFFFFFFFFFFFFFFFFFFFFFFFFF NOT AND PUSH1 0x20 DUP3 ADD DUP1 MLOAD PUSH28 0xFFFFFFFFFFFFFFFFFFFFFFFFFFFFFFFFFFFFFFFFFFFFFFFFFFFFFFFF DUP4 DUP2 DUP4 AND OR DUP4 MSTORE POP POP POP POP SWAP1 POP SWAP4 SWAP3 POP POP POP JUMP JUMPDEST PUSH1 0x40 DUP1 MLOAD PUSH20 0xFFFFFFFFFFFFFFFFFFFFFFFFFFFFFFFFFFFFFFFF DUP1 DUP6 AND PUSH1 0x24 DUP4 ADD MSTORE DUP4 AND PUSH1 0x44 DUP1 DUP4 ADD SWAP2 SWAP1 SWAP2 MSTORE DUP3 MLOAD DUP1 DUP4 SUB SWAP1 SWAP2 ADD DUP2 MSTORE PUSH1 0x64 SWAP1 SWAP2 ADD SWAP1 SWAP2 MSTORE PUSH1 0x20 DUP2 ADD DUP1 MLOAD PUSH28 0xFFFFFFFFFFFFFFFFFFFFFFFFFFFFFFFFFFFFFFFFFFFFFFFFFFFFFFFF AND PUSH32 0x1DE45AD100000000000000000000000000000000000000000000000000000000 OR SWAP1 MSTORE SWAP3 SWAP2 POP POP JUMP JUMPDEST PUSH1 0x40 DUP1 MLOAD DUP1 DUP3 ADD SWAP1 SWAP2 MSTORE PUSH1 0x4 DUP2 MSTORE PUSH32 0x57654FE400000000000000000000000000000000000000000000000000000000 PUSH1 0x20 DUP3 ADD MSTORE SWAP1 JUMP JUMPDEST PUSH1 0x40 DUP1 MLOAD PUSH20 0xFFFFFFFFFFFFFFFFFFFFFFFFFFFFFFFFFFFFFFFF DUP4 AND PUSH1 0x24 DUP1 DUP4 ADD SWAP2 SWAP1 SWAP2 MSTORE DUP3 MLOAD DUP1 DUP4 SUB SWAP1 SWAP2 ADD DUP2 MSTORE PUSH1 0x44 SWAP1 SWAP2 ADD SWAP1 SWAP2 MSTORE PUSH1 0x20 DUP2 ADD DUP1 MLOAD PUSH28 0xFFFFFFFFFFFFFFFFFFFFFFFFFFFFFFFFFFFFFFFFFFFFFFFFFFFFFFFF AND PUSH32 0xDE16F1A000000000000000000000000000000000000000000000000000000000 OR SWAP1 MSTORE SWAP2 SWAP1 POP JUMP JUMPDEST PUSH1 0x40 DUP1 MLOAD PUSH20 0xFFFFFFFFFFFFFFFFFFFFFFFFFFFFFFFFFFFFFFFF DUP4 AND PUSH1 0x24 DUP1 DUP4 ADD SWAP2 SWAP1 SWAP2 MSTORE DUP3 MLOAD DUP1 DUP4 SUB SWAP1 SWAP2 ADD DUP2 MSTORE PUSH1 0x44 SWAP1 SWAP2 ADD SWAP1 SWAP2 MSTORE PUSH1 0x20 DUP2 ADD DUP1 MLOAD PUSH28 0xFFFFFFFFFFFFFFFFFFFFFFFFFFFFFFFFFFFFFFFFFFFFFFFFFFFFFFFF AND PUSH32 0xB65A25B900000000000000000000000000000000000000000000000000000000 OR SWAP1 MSTORE SWAP2 SWAP1 POP JUMP JUMPDEST PUSH1 0x40 DUP1 MLOAD PUSH1 0x24 DUP2 ADD DUP5 SWAP1 MSTORE PUSH1 0x44 DUP1 DUP3 ADD DUP5 SWAP1 MSTORE DUP3 MLOAD DUP1 DUP4 SUB SWAP1 SWAP2 ADD DUP2 MSTORE PUSH1 0x64 SWAP1 SWAP2 ADD SWAP1 SWAP2 MSTORE PUSH1 0x20 DUP2 ADD DUP1 MLOAD PUSH28 0xFFFFFFFFFFFFFFFFFFFFFFFFFFFFFFFFFFFFFFFFFFFFFFFFFFFFFFFF AND PUSH32 0xE9F8377100000000000000000000000000000000000000000000000000000000 OR SWAP1 MSTORE SWAP3 SWAP2 POP POP JUMP JUMPDEST PUSH1 0x40 DUP1 MLOAD PUSH20 0xFFFFFFFFFFFFFFFFFFFFFFFFFFFFFFFFFFFFFFFF DUP1 DUP6 AND PUSH1 0x24 DUP4 ADD MSTORE DUP4 AND PUSH1 0x44 DUP1 DUP4 ADD SWAP2 SWAP1 SWAP2 MSTORE DUP3 MLOAD DUP1 DUP4 SUB SWAP1 SWAP2 ADD DUP2 MSTORE PUSH1 0x64 SWAP1 SWAP2 ADD SWAP1 SWAP2 MSTORE PUSH1 0x20 DUP2 ADD DUP1 MLOAD PUSH28 0xFFFFFFFFFFFFFFFFFFFFFFFFFFFFFFFFFFFFFFFFFFFFFFFFFFFFFFFF AND PUSH32 0x140A84DB00000000000000000000000000000000000000000000000000000000 OR SWAP1 MSTORE SWAP3 SWAP2 POP POP JUMP JUMPDEST PUSH1 0x0 DUP3 DUP3 GT ISZERO PUSH2 0x16AB JUMPI PUSH2 0x16AB PUSH2 0x860 PUSH1 0x2 DUP6 DUP6 PUSH2 0x132B JUMP JUMPDEST POP SWAP1 SUB SWAP1 JUMP JUMPDEST PUSH1 0x40 DUP1 MLOAD DUP1 DUP3 ADD SWAP1 SWAP2 MSTORE PUSH1 0x4 DUP2 MSTORE PUSH32 0x3EF081CC00000000000000000000000000000000000000000000000000000000 PUSH1 0x20 DUP3 ADD MSTORE SWAP1 JUMP JUMPDEST DUP2 SLOAD DUP2 DUP4 SSTORE DUP2 DUP2 GT ISZERO PUSH2 0x170C JUMPI PUSH1 0x0 DUP4 DUP2 MSTORE PUSH1 0x20 SWAP1 KECCAK256 PUSH2 0x170C SWAP2 DUP2 ADD SWAP1 DUP4 ADD PUSH2 0x1711 JUMP JUMPDEST POP POP POP JUMP JUMPDEST PUSH2 0x79B SWAP2 SWAP1 JUMPDEST DUP1 DUP3 GT ISZERO PUSH2 0x172B JUMPI PUSH1 0x0 DUP2 SSTORE PUSH1 0x1 ADD PUSH2 0x1717 JUMP JUMPDEST POP SWAP1 JUMP INVALID LOG2 PUSH6 0x627A7A723058 KECCAK256 0x25 0xb1 PUSH6 0x6316FE732058 0x2c PUSH10 0x4E11C1BE63DD5E6DB89F PUSH18 0x957E9211ABE739242D0964736F6C63430005 MULMOD STOP ORIGIN "
			}
		}
	},
	"sourceTreeHashHex": "0x338c5152c923b7d72364c7e3a1185a81091d282f16c58acae76fb9dbc88fd078",
	"compiler": {
		"name": "solc",
		"version": "0.5.9+commit.e560f70d",
		"settings": {
			"remappings": [],
			"optimizer": {
				"enabled": true,
				"runs": 1000000
			},
			"outputSelection": {
				"*": {
					"*": [
						"abi",
						"devdoc",
						"evm.bytecode.object",
						"evm.bytecode.sourceMap",
						"evm.deployedBytecode.object",
						"evm.deployedBytecode.sourceMap"
					]
				}
			}
		}
	},
	"chains": {}
}