{
	"schemaVersion": "2.0.0",
	"contractName": "HGetDragoData",
	"compilerOutput": {
		"abi": [
			{
				"inputs": [
					{
						"internalType": "address",
						"name": "_dragoRegistry",
						"type": "address"
					},
					{
						"internalType": "address",
						"name": "_dragoAddress",
						"type": "address"
					}
				],
				"name": "queryDataFromAddress",
				"outputs": [
					{
						"components": [
							{
								"internalType": "string",
								"name": "name",
								"type": "string"
							},
							{
								"internalType": "string",
								"name": "symbol",
								"type": "string"
							},
							{
								"internalType": "uint256",
								"name": "sellPrice",
								"type": "uint256"
							},
							{
								"internalType": "uint256",
								"name": "buyPrice",
								"type": "uint256"
							},
							{
								"internalType": "address",
								"name": "owner",
								"type": "address"
							},
							{
								"internalType": "address",
								"name": "feeCollector",
								"type": "address"
							},
							{
								"internalType": "address",
								"name": "dragoDao",
								"type": "address"
							},
							{
								"internalType": "uint256",
								"name": "ratio",
								"type": "uint256"
							},
							{
								"internalType": "uint256",
								"name": "transactionFee",
								"type": "uint256"
							},
							{
								"internalType": "uint256",
								"name": "totalSupply",
								"type": "uint256"
							},
							{
								"internalType": "uint256",
								"name": "ethBalance",
								"type": "uint256"
							},
							{
								"internalType": "uint32",
								"name": "minPeriod",
								"type": "uint32"
							},
							{
								"internalType": "uint256",
								"name": "id",
								"type": "uint256"
							},
							{
								"internalType": "address",
								"name": "drago",
								"type": "address"
							}
						],
						"internalType": "struct HGetDragoData.DragoData",
						"name": "dragoData",
						"type": "tuple"
					}
				],
				"stateMutability": "view",
				"type": "function"
			},
			{
				"inputs": [
					{
						"internalType": "address",
						"name": "_dragoRegistry",
						"type": "address"
					},
					{
						"internalType": "uint256",
						"name": "_dragoId",
						"type": "uint256"
					}
				],
				"name": "queryDataFromId",
				"outputs": [
					{
						"components": [
							{
								"internalType": "string",
								"name": "name",
								"type": "string"
							},
							{
								"internalType": "string",
								"name": "symbol",
								"type": "string"
							},
							{
								"internalType": "uint256",
								"name": "sellPrice",
								"type": "uint256"
							},
							{
								"internalType": "uint256",
								"name": "buyPrice",
								"type": "uint256"
							},
							{
								"internalType": "address",
								"name": "owner",
								"type": "address"
							},
							{
								"internalType": "address",
								"name": "feeCollector",
								"type": "address"
							},
							{
								"internalType": "address",
								"name": "dragoDao",
								"type": "address"
							},
							{
								"internalType": "uint256",
								"name": "ratio",
								"type": "uint256"
							},
							{
								"internalType": "uint256",
								"name": "transactionFee",
								"type": "uint256"
							},
							{
								"internalType": "uint256",
								"name": "totalSupply",
								"type": "uint256"
							},
							{
								"internalType": "uint256",
								"name": "ethBalance",
								"type": "uint256"
							},
							{
								"internalType": "uint32",
								"name": "minPeriod",
								"type": "uint32"
							},
							{
								"internalType": "uint256",
								"name": "id",
								"type": "uint256"
							},
							{
								"internalType": "address",
								"name": "drago",
								"type": "address"
							}
						],
						"internalType": "struct HGetDragoData.DragoData",
						"name": "dragoData",
						"type": "tuple"
					}
				],
				"stateMutability": "view",
				"type": "function"
			},
			{
				"inputs": [
					{
						"internalType": "address",
						"name": "_dragoRegistry",
						"type": "address"
					},
					{
						"internalType": "address[]",
						"name": "_dragoAddresses",
						"type": "address[]"
					}
				],
				"name": "queryMultiDataFromAddress",
				"outputs": [
					{
						"components": [
							{
								"internalType": "string",
								"name": "name",
								"type": "string"
							},
							{
								"internalType": "string",
								"name": "symbol",
								"type": "string"
							},
							{
								"internalType": "uint256",
								"name": "sellPrice",
								"type": "uint256"
							},
							{
								"internalType": "uint256",
								"name": "buyPrice",
								"type": "uint256"
							},
							{
								"internalType": "address",
								"name": "owner",
								"type": "address"
							},
							{
								"internalType": "address",
								"name": "feeCollector",
								"type": "address"
							},
							{
								"internalType": "address",
								"name": "dragoDao",
								"type": "address"
							},
							{
								"internalType": "uint256",
								"name": "ratio",
								"type": "uint256"
							},
							{
								"internalType": "uint256",
								"name": "transactionFee",
								"type": "uint256"
							},
							{
								"internalType": "uint256",
								"name": "totalSupply",
								"type": "uint256"
							},
							{
								"internalType": "uint256",
								"name": "ethBalance",
								"type": "uint256"
							},
							{
								"internalType": "uint32",
								"name": "minPeriod",
								"type": "uint32"
							},
							{
								"internalType": "uint256",
								"name": "id",
								"type": "uint256"
							},
							{
								"internalType": "address",
								"name": "drago",
								"type": "address"
							}
						],
						"internalType": "struct HGetDragoData.DragoData[]",
						"name": "",
						"type": "tuple[]"
					}
				],
				"stateMutability": "view",
				"type": "function"
			},
			{
				"inputs": [
					{
						"internalType": "address",
						"name": "_dragoRegistry",
						"type": "address"
					},
					{
						"internalType": "uint256[]",
						"name": "_dragoIds",
						"type": "uint256[]"
					}
				],
				"name": "queryMultiDataFromId",
				"outputs": [
					{
						"components": [
							{
								"internalType": "string",
								"name": "name",
								"type": "string"
							},
							{
								"internalType": "string",
								"name": "symbol",
								"type": "string"
							},
							{
								"internalType": "uint256",
								"name": "sellPrice",
								"type": "uint256"
							},
							{
								"internalType": "uint256",
								"name": "buyPrice",
								"type": "uint256"
							},
							{
								"internalType": "address",
								"name": "owner",
								"type": "address"
							},
							{
								"internalType": "address",
								"name": "feeCollector",
								"type": "address"
							},
							{
								"internalType": "address",
								"name": "dragoDao",
								"type": "address"
							},
							{
								"internalType": "uint256",
								"name": "ratio",
								"type": "uint256"
							},
							{
								"internalType": "uint256",
								"name": "transactionFee",
								"type": "uint256"
							},
							{
								"internalType": "uint256",
								"name": "totalSupply",
								"type": "uint256"
							},
							{
								"internalType": "uint256",
								"name": "ethBalance",
								"type": "uint256"
							},
							{
								"internalType": "uint32",
								"name": "minPeriod",
								"type": "uint32"
							},
							{
								"internalType": "uint256",
								"name": "id",
								"type": "uint256"
							},
							{
								"internalType": "address",
								"name": "drago",
								"type": "address"
							}
						],
						"internalType": "struct HGetDragoData.DragoData[]",
						"name": "",
						"type": "tuple[]"
					}
				],
				"stateMutability": "view",
				"type": "function"
			}
		],
		"devdoc": {
			"author": "Gabriele Rigo - <gab@rigoblock.com>",
			"kind": "dev",
			"methods": {
				"queryDataFromAddress(address,address)": {
					"details": "Returns structs of infos on a drago from its address.",
					"params": {
						"_dragoAddress": "Array of addresses of the target drago.",
						"_dragoRegistry": "Address of the pools registry."
					},
					"returns": {
						"dragoData": "Arrays of structs of data."
					}
				},
				"queryDataFromId(address,uint256)": {
					"details": "Returns structs of infos on a drago from its ID.",
					"params": {
						"_dragoId": "Number of the target drago ID.",
						"_dragoRegistry": "Address of the pools registry."
					},
					"returns": {
						"dragoData": "Structs of data."
					}
				},
				"queryMultiDataFromAddress(address,address[])": {
					"details": "Returns structs of infos on a drago from its address.",
					"params": {
						"_dragoAddresses": "Array of addresses of the target dragos.",
						"_dragoRegistry": "Address of the pools registry."
					},
					"returns": {
						"_0": "Arrays of structs of data and related address of a drago."
					}
				},
				"queryMultiDataFromId(address,uint256[])": {
					"details": "Returns structs of infos on a drago from its ID.",
					"params": {
						"_dragoIds": "Array of IDs of the target dragos.",
						"_dragoRegistry": "Address of the drago registry."
					},
					"returns": {
						"_0": "Arrays of structs of data and related address of a drago."
					}
				}
			},
			"title": "Drago Data Helper - Allows to query multiple data of a drago at once.",
			"version": 1
		},
		"evm": {
			"bytecode": {
				"linkReferences": {},
				"object": "0x608060405234801561001057600080fd5b50610e99806100206000396000f3fe608060405234801561001057600080fd5b506004361061004c5760003560e01c806301a3158514610051578063bc24e2981461007a578063c593dfbf1461009a578063ccffe434146100ad575b600080fd5b61006461005f366004610a85565b6100c0565b6040516100719190610d98565b60405180910390f35b61008d6100883660046109d2565b610314565b6040516100719190610df8565b61008d6100a8366004610b6f565b6103d6565b6100646100bb366004610a85565b610496565b606081818167ffffffffffffffff811180156100db57600080fd5b5060405190808252806020026020018201604052801561011557816020015b610102610878565b8152602001906001900390816100fa5790505b50905060608267ffffffffffffffff8111801561013157600080fd5b5060405190808252806020026020018201604052801561015b578160200160208202803683370190505b509050606086868080602002602001604051908101604052809392919081815260200183836020028082843760009201829052509394508b938493509150505b868110156103055760008482815181106101b157fe5b60200260200101519050826001600160a01b031663b72e717d826040518263ffffffff1660e01b81526004016101e79190610d84565b60006040518083038186803b1580156101ff57600080fd5b505afa158015610213573d6000803e3d6000fd5b505050506040513d6000823e601f3d908101601f1916820160405261023b9190810190610c23565b505089518a93508692508210905061024f57fe5b60200260200101818152505061027785838151811061026a57fe5b60200260200101516106a2565b87838151811061028357fe5b602002602001018190525085828151811061029a57fe5b60200260200101518783815181106102ae57fe5b60200260200101516101800181815250508482815181106102cb57fe5b60200260200101518783815181106102df57fe5b60209081029190910101516001600160a01b039091166101a0909101525060010161019b565b50939998505050505050505050565b61031c610878565b60405163b72e717d60e01b815260009084906001600160a01b0382169063b72e717d9061034d908790600401610d84565b60006040518083038186803b15801561036557600080fd5b505afa158015610379573d6000803e3d6000fd5b505050506040513d6000823e601f3d908101601f191682016040526103a19190810190610c23565b509395506103b593508792506106a2915050565b610180810192909252506001600160a01b039092166101a083015250919050565b6103de610878565b60405163309dfc6b60e21b815260009084906001600160a01b0382169063c277f1ac9061040f908790600401610e12565b60006040518083038186803b15801561042757600080fd5b505afa15801561043b573d6000803e3d6000fd5b505050506040513d6000823e601f3d908101601f191682016040526104639190810190610ad8565b5093955061047793508592506106a2915050565b610180810194909452506001600160a01b03166101a083015250919050565b606081818167ffffffffffffffff811180156104b157600080fd5b506040519080825280602002602001820160405280156104eb57816020015b6104d8610878565b8152602001906001900390816104d05790505b50905060608267ffffffffffffffff8111801561050757600080fd5b50604051908082528060200260200182016040528015610531578160200160208202803683370190505b509050868060005b8581101561069457600089898381811061054f57fe5b905060200201359050826001600160a01b031663c277f1ac826040518263ffffffff1660e01b81526004016105849190610e12565b60006040518083038186803b15801561059c57600080fd5b505afa1580156105b0573d6000803e3d6000fd5b505050506040513d6000823e601f3d908101601f191682016040526105d89190810190610ad8565b50508851899350869250821090506105ec57fe5b60200260200101816001600160a01b03166001600160a01b03168152505061061985838151811061026a57fe5b86838151811061062557fe5b60200260200101819052508086838151811061063d57fe5b602002602001015161018001818152505084828151811061065a57fe5b602002602001015186838151811061066e57fe5b60209081029190910101516001600160a01b039091166101a09091015250600101610539565b509298975050505050505050565b6106aa610878565b6000829050806001600160a01b0316633bc5de306040518163ffffffff1660e01b815260040160006040518083038186803b1580156106e857600080fd5b505afa1580156106fc573d6000803e3d6000fd5b505050506040513d6000823e601f3d908101601f191682016040526107249190810190610b9a565b606086015260408086019190915260208501919091529083528051638f7a844b60e01b815290516001600160a01b03831691638f7a844b9160048083019260c0929190829003018186803b15801561077b57600080fd5b505afa15801561078f573d6000803e3d6000fd5b505050506040513d601f19601f820116820180604052508101906107b39190610a0a565b63ffffffff1661016088015261010087015260e08601526001600160a01b0390811660c086015290811660a08501529081166080840152604080516318160ddd60e01b81529051918316916318160ddd91600480820192602092909190829003018186803b15801561082457600080fd5b505afa158015610838573d6000803e3d6000fd5b505050506040513d601f19601f8201168201806040525081019061085c9190610c0b565b610120830152506001600160a01b039091163161014082015290565b604051806101c001604052806060815260200160608152602001600081526020016000815260200160006001600160a01b0316815260200160006001600160a01b0316815260200160006001600160a01b0316815260200160008152602001600081526020016000815260200160008152602001600063ffffffff1681526020016000815260200160006001600160a01b031681525090565b60008083601f840112610922578182fd5b50813567ffffffffffffffff811115610939578182fd5b602083019150836020808302850101111561095357600080fd5b9250929050565b600082601f83011261096a578081fd5b815167ffffffffffffffff8082111561097f57fe5b604051601f8301601f19168101602001828111828210171561099d57fe5b6040528281529250828483016020018610156109b857600080fd5b6109c9836020830160208801610e1b565b50505092915050565b600080604083850312156109e4578182fd5b82356109ef81610e4b565b915060208301356109ff81610e4b565b809150509250929050565b60008060008060008060c08789031215610a22578182fd5b8651610a2d81610e4b565b6020880151909650610a3e81610e4b565b6040880151909550610a4f81610e4b565b80945050606087015192506080870151915060a087015163ffffffff81168114610a77578182fd5b809150509295509295509295565b600080600060408486031215610a99578283fd5b8335610aa481610e4b565b9250602084013567ffffffffffffffff811115610abf578283fd5b610acb86828701610911565b9497909650939450505050565b60008060008060008060c08789031215610af0578182fd5b8651610afb81610e4b565b602088015190965067ffffffffffffffff80821115610b18578384fd5b610b248a838b0161095a565b96506040890151915080821115610b39578384fd5b50610b4689828a0161095a565b945050606087015192506080870151610b5e81610e4b565b60a0880151909250610a7781610e4b565b60008060408385031215610b81578182fd5b8235610b8c81610e4b565b946020939093013593505050565b60008060008060808587031215610baf578384fd5b845167ffffffffffffffff80821115610bc6578586fd5b610bd28883890161095a565b95506020870151915080821115610be7578485fd5b50610bf48782880161095a565b604087015160609097015195989097509350505050565b600060208284031215610c1c578081fd5b5051919050565b60008060008060008060c08789031215610c3b578182fd5b86519550602087015167ffffffffffffffff80821115610b18578384fd5b6001600160a01b03169052565b60008151808452610c7e816020860160208601610e1b565b601f01601f19169290920160200192915050565b60006101c08251818552610ca882860182610c66565b91505060208301518482036020860152610cc28282610c66565b91505060408301516040850152606083015160608501526080830151610ceb6080860182610c59565b5060a0830151610cfe60a0860182610c59565b5060c0830151610d1160c0860182610c59565b5060e0838101519085015261010080840151908501526101208084015190850152610140808401519085015261016080840151610d5082870182610d7a565b505061018083810151908501526101a080840151610d7082870182610c59565b5090949350505050565b63ffffffff169052565b6001600160a01b0391909116815260200190565b6000602080830181845280855180835260408601915060408482028701019250838701855b82811015610deb57603f19888603018452610dd9858351610c92565b94509285019290850190600101610dbd565b5092979650505050505050565b600060208252610e0b6020830184610c92565b9392505050565b90815260200190565b60005b83811015610e36578181015183820152602001610e1e565b83811115610e45576000848401525b50505050565b6001600160a01b0381168114610e6057600080fd5b5056fea26469706673582212202c06ef65719ba4e0c5e7589a4f8fd6b98fa2ae3b631abcd8a897884ed822ccbc64736f6c63430007040033",
				"opcodes": "PUSH1 0x80 PUSH1 0x40 MSTORE CALLVALUE DUP1 ISZERO PUSH2 0x10 JUMPI PUSH1 0x0 DUP1 REVERT JUMPDEST POP PUSH2 0xE99 DUP1 PUSH2 0x20 PUSH1 0x0 CODECOPY PUSH1 0x0 RETURN INVALID PUSH1 0x80 PUSH1 0x40 MSTORE CALLVALUE DUP1 ISZERO PUSH2 0x10 JUMPI PUSH1 0x0 DUP1 REVERT JUMPDEST POP PUSH1 0x4 CALLDATASIZE LT PUSH2 0x4C JUMPI PUSH1 0x0 CALLDATALOAD PUSH1 0xE0 SHR DUP1 PUSH4 0x1A31585 EQ PUSH2 0x51 JUMPI DUP1 PUSH4 0xBC24E298 EQ PUSH2 0x7A JUMPI DUP1 PUSH4 0xC593DFBF EQ PUSH2 0x9A JUMPI DUP1 PUSH4 0xCCFFE434 EQ PUSH2 0xAD JUMPI JUMPDEST PUSH1 0x0 DUP1 REVERT JUMPDEST PUSH2 0x64 PUSH2 0x5F CALLDATASIZE PUSH1 0x4 PUSH2 0xA85 JUMP JUMPDEST PUSH2 0xC0 JUMP JUMPDEST PUSH1 0x40 MLOAD PUSH2 0x71 SWAP2 SWAP1 PUSH2 0xD98 JUMP JUMPDEST PUSH1 0x40 MLOAD DUP1 SWAP2 SUB SWAP1 RETURN JUMPDEST PUSH2 0x8D PUSH2 0x88 CALLDATASIZE PUSH1 0x4 PUSH2 0x9D2 JUMP JUMPDEST PUSH2 0x314 JUMP JUMPDEST PUSH1 0x40 MLOAD PUSH2 0x71 SWAP2 SWAP1 PUSH2 0xDF8 JUMP JUMPDEST PUSH2 0x8D PUSH2 0xA8 CALLDATASIZE PUSH1 0x4 PUSH2 0xB6F JUMP JUMPDEST PUSH2 0x3D6 JUMP JUMPDEST PUSH2 0x64 PUSH2 0xBB CALLDATASIZE PUSH1 0x4 PUSH2 0xA85 JUMP JUMPDEST PUSH2 0x496 JUMP JUMPDEST PUSH1 0x60 DUP2 DUP2 DUP2 PUSH8 0xFFFFFFFFFFFFFFFF DUP2 GT DUP1 ISZERO PUSH2 0xDB JUMPI PUSH1 0x0 DUP1 REVERT JUMPDEST POP PUSH1 0x40 MLOAD SWAP1 DUP1 DUP3 MSTORE DUP1 PUSH1 0x20 MUL PUSH1 0x20 ADD DUP3 ADD PUSH1 0x40 MSTORE DUP1 ISZERO PUSH2 0x115 JUMPI DUP2 PUSH1 0x20 ADD JUMPDEST PUSH2 0x102 PUSH2 0x878 JUMP JUMPDEST DUP2 MSTORE PUSH1 0x20 ADD SWAP1 PUSH1 0x1 SWAP1 SUB SWAP1 DUP2 PUSH2 0xFA JUMPI SWAP1 POP JUMPDEST POP SWAP1 POP PUSH1 0x60 DUP3 PUSH8 0xFFFFFFFFFFFFFFFF DUP2 GT DUP1 ISZERO PUSH2 0x131 JUMPI PUSH1 0x0 DUP1 REVERT JUMPDEST POP PUSH1 0x40 MLOAD SWAP1 DUP1 DUP3 MSTORE DUP1 PUSH1 0x20 MUL PUSH1 0x20 ADD DUP3 ADD PUSH1 0x40 MSTORE DUP1 ISZERO PUSH2 0x15B JUMPI DUP2 PUSH1 0x20 ADD PUSH1 0x20 DUP3 MUL DUP1 CALLDATASIZE DUP4 CALLDATACOPY ADD SWAP1 POP JUMPDEST POP SWAP1 POP PUSH1 0x60 DUP7 DUP7 DUP1 DUP1 PUSH1 0x20 MUL PUSH1 0x20 ADD PUSH1 0x40 MLOAD SWAP1 DUP2 ADD PUSH1 0x40 MSTORE DUP1 SWAP4 SWAP3 SWAP2 SWAP1 DUP2 DUP2 MSTORE PUSH1 0x20 ADD DUP4 DUP4 PUSH1 0x20 MUL DUP1 DUP3 DUP5 CALLDATACOPY PUSH1 0x0 SWAP3 ADD DUP3 SWAP1 MSTORE POP SWAP4 SWAP5 POP DUP12 SWAP4 DUP5 SWAP4 POP SWAP2 POP POP JUMPDEST DUP7 DUP2 LT ISZERO PUSH2 0x305 JUMPI PUSH1 0x0 DUP5 DUP3 DUP2 MLOAD DUP2 LT PUSH2 0x1B1 JUMPI INVALID JUMPDEST PUSH1 0x20 MUL PUSH1 0x20 ADD ADD MLOAD SWAP1 POP DUP3 PUSH1 0x1 PUSH1 0x1 PUSH1 0xA0 SHL SUB AND PUSH4 0xB72E717D DUP3 PUSH1 0x40 MLOAD DUP3 PUSH4 0xFFFFFFFF AND PUSH1 0xE0 SHL DUP2 MSTORE PUSH1 0x4 ADD PUSH2 0x1E7 SWAP2 SWAP1 PUSH2 0xD84 JUMP JUMPDEST PUSH1 0x0 PUSH1 0x40 MLOAD DUP1 DUP4 SUB DUP2 DUP7 DUP1 EXTCODESIZE ISZERO DUP1 ISZERO PUSH2 0x1FF JUMPI PUSH1 0x0 DUP1 REVERT JUMPDEST POP GAS STATICCALL ISZERO DUP1 ISZERO PUSH2 0x213 JUMPI RETURNDATASIZE PUSH1 0x0 DUP1 RETURNDATACOPY RETURNDATASIZE PUSH1 0x0 REVERT JUMPDEST POP POP POP POP PUSH1 0x40 MLOAD RETURNDATASIZE PUSH1 0x0 DUP3 RETURNDATACOPY PUSH1 0x1F RETURNDATASIZE SWAP1 DUP2 ADD PUSH1 0x1F NOT AND DUP3 ADD PUSH1 0x40 MSTORE PUSH2 0x23B SWAP2 SWAP1 DUP2 ADD SWAP1 PUSH2 0xC23 JUMP JUMPDEST POP POP DUP10 MLOAD DUP11 SWAP4 POP DUP7 SWAP3 POP DUP3 LT SWAP1 POP PUSH2 0x24F JUMPI INVALID JUMPDEST PUSH1 0x20 MUL PUSH1 0x20 ADD ADD DUP2 DUP2 MSTORE POP POP PUSH2 0x277 DUP6 DUP4 DUP2 MLOAD DUP2 LT PUSH2 0x26A JUMPI INVALID JUMPDEST PUSH1 0x20 MUL PUSH1 0x20 ADD ADD MLOAD PUSH2 0x6A2 JUMP JUMPDEST DUP8 DUP4 DUP2 MLOAD DUP2 LT PUSH2 0x283 JUMPI INVALID JUMPDEST PUSH1 0x20 MUL PUSH1 0x20 ADD ADD DUP2 SWAP1 MSTORE POP DUP6 DUP3 DUP2 MLOAD DUP2 LT PUSH2 0x29A JUMPI INVALID JUMPDEST PUSH1 0x20 MUL PUSH1 0x20 ADD ADD MLOAD DUP8 DUP4 DUP2 MLOAD DUP2 LT PUSH2 0x2AE JUMPI INVALID JUMPDEST PUSH1 0x20 MUL PUSH1 0x20 ADD ADD MLOAD PUSH2 0x180 ADD DUP2 DUP2 MSTORE POP POP DUP5 DUP3 DUP2 MLOAD DUP2 LT PUSH2 0x2CB JUMPI INVALID JUMPDEST PUSH1 0x20 MUL PUSH1 0x20 ADD ADD MLOAD DUP8 DUP4 DUP2 MLOAD DUP2 LT PUSH2 0x2DF JUMPI INVALID JUMPDEST PUSH1 0x20 SWAP1 DUP2 MUL SWAP2 SWAP1 SWAP2 ADD ADD MLOAD PUSH1 0x1 PUSH1 0x1 PUSH1 0xA0 SHL SUB SWAP1 SWAP2 AND PUSH2 0x1A0 SWAP1 SWAP2 ADD MSTORE POP PUSH1 0x1 ADD PUSH2 0x19B JUMP JUMPDEST POP SWAP4 SWAP10 SWAP9 POP POP POP POP POP POP POP POP POP JUMP JUMPDEST PUSH2 0x31C PUSH2 0x878 JUMP JUMPDEST PUSH1 0x40 MLOAD PUSH4 0xB72E717D PUSH1 0xE0 SHL DUP2 MSTORE PUSH1 0x0 SWAP1 DUP5 SWAP1 PUSH1 0x1 PUSH1 0x1 PUSH1 0xA0 SHL SUB DUP3 AND SWAP1 PUSH4 0xB72E717D SWAP1 PUSH2 0x34D SWAP1 DUP8 SWAP1 PUSH1 0x4 ADD PUSH2 0xD84 JUMP JUMPDEST PUSH1 0x0 PUSH1 0x40 MLOAD DUP1 DUP4 SUB DUP2 DUP7 DUP1 EXTCODESIZE ISZERO DUP1 ISZERO PUSH2 0x365 JUMPI PUSH1 0x0 DUP1 REVERT JUMPDEST POP GAS STATICCALL ISZERO DUP1 ISZERO PUSH2 0x379 JUMPI RETURNDATASIZE PUSH1 0x0 DUP1 RETURNDATACOPY RETURNDATASIZE PUSH1 0x0 REVERT JUMPDEST POP POP POP POP PUSH1 0x40 MLOAD RETURNDATASIZE PUSH1 0x0 DUP3 RETURNDATACOPY PUSH1 0x1F RETURNDATASIZE SWAP1 DUP2 ADD PUSH1 0x1F NOT AND DUP3 ADD PUSH1 0x40 MSTORE PUSH2 0x3A1 SWAP2 SWAP1 DUP2 ADD SWAP1 PUSH2 0xC23 JUMP JUMPDEST POP SWAP4 SWAP6 POP PUSH2 0x3B5 SWAP4 POP DUP8 SWAP3 POP PUSH2 0x6A2 SWAP2 POP POP JUMP JUMPDEST PUSH2 0x180 DUP2 ADD SWAP3 SWAP1 SWAP3 MSTORE POP PUSH1 0x1 PUSH1 0x1 PUSH1 0xA0 SHL SUB SWAP1 SWAP3 AND PUSH2 0x1A0 DUP4 ADD MSTORE POP SWAP2 SWAP1 POP JUMP JUMPDEST PUSH2 0x3DE PUSH2 0x878 JUMP JUMPDEST PUSH1 0x40 MLOAD PUSH4 0x309DFC6B PUSH1 0xE2 SHL DUP2 MSTORE PUSH1 0x0 SWAP1 DUP5 SWAP1 PUSH1 0x1 PUSH1 0x1 PUSH1 0xA0 SHL SUB DUP3 AND SWAP1 PUSH4 0xC277F1AC SWAP1 PUSH2 0x40F SWAP1 DUP8 SWAP1 PUSH1 0x4 ADD PUSH2 0xE12 JUMP JUMPDEST PUSH1 0x0 PUSH1 0x40 MLOAD DUP1 DUP4 SUB DUP2 DUP7 DUP1 EXTCODESIZE ISZERO DUP1 ISZERO PUSH2 0x427 JUMPI PUSH1 0x0 DUP1 REVERT JUMPDEST POP GAS STATICCALL ISZERO DUP1 ISZERO PUSH2 0x43B JUMPI RETURNDATASIZE PUSH1 0x0 DUP1 RETURNDATACOPY RETURNDATASIZE PUSH1 0x0 REVERT JUMPDEST POP POP POP POP PUSH1 0x40 MLOAD RETURNDATASIZE PUSH1 0x0 DUP3 RETURNDATACOPY PUSH1 0x1F RETURNDATASIZE SWAP1 DUP2 ADD PUSH1 0x1F NOT AND DUP3 ADD PUSH1 0x40 MSTORE PUSH2 0x463 SWAP2 SWAP1 DUP2 ADD SWAP1 PUSH2 0xAD8 JUMP JUMPDEST POP SWAP4 SWAP6 POP PUSH2 0x477 SWAP4 POP DUP6 SWAP3 POP PUSH2 0x6A2 SWAP2 POP POP JUMP JUMPDEST PUSH2 0x180 DUP2 ADD SWAP5 SWAP1 SWAP5 MSTORE POP PUSH1 0x1 PUSH1 0x1 PUSH1 0xA0 SHL SUB AND PUSH2 0x1A0 DUP4 ADD MSTORE POP SWAP2 SWAP1 POP JUMP JUMPDEST PUSH1 0x60 DUP2 DUP2 DUP2 PUSH8 0xFFFFFFFFFFFFFFFF DUP2 GT DUP1 ISZERO PUSH2 0x4B1 JUMPI PUSH1 0x0 DUP1 REVERT JUMPDEST POP PUSH1 0x40 MLOAD SWAP1 DUP1 DUP3 MSTORE DUP1 PUSH1 0x20 MUL PUSH1 0x20 ADD DUP3 ADD PUSH1 0x40 MSTORE DUP1 ISZERO PUSH2 0x4EB JUMPI DUP2 PUSH1 0x20 ADD JUMPDEST PUSH2 0x4D8 PUSH2 0x878 JUMP JUMPDEST DUP2 MSTORE PUSH1 0x20 ADD SWAP1 PUSH1 0x1 SWAP1 SUB SWAP1 DUP2 PUSH2 0x4D0 JUMPI SWAP1 POP JUMPDEST POP SWAP1 POP PUSH1 0x60 DUP3 PUSH8 0xFFFFFFFFFFFFFFFF DUP2 GT DUP1 ISZERO PUSH2 0x507 JUMPI PUSH1 0x0 DUP1 REVERT JUMPDEST POP PUSH1 0x40 MLOAD SWAP1 DUP1 DUP3 MSTORE DUP1 PUSH1 0x20 MUL PUSH1 0x20 ADD DUP3 ADD PUSH1 0x40 MSTORE DUP1 ISZERO PUSH2 0x531 JUMPI DUP2 PUSH1 0x20 ADD PUSH1 0x20 DUP3 MUL DUP1 CALLDATASIZE DUP4 CALLDATACOPY ADD SWAP1 POP JUMPDEST POP SWAP1 POP DUP7 DUP1 PUSH1 0x0 JUMPDEST DUP6 DUP2 LT ISZERO PUSH2 0x694 JUMPI PUSH1 0x0 DUP10 DUP10 DUP4 DUP2 DUP2 LT PUSH2 0x54F JUMPI INVALID JUMPDEST SWAP1 POP PUSH1 0x20 MUL ADD CALLDATALOAD SWAP1 POP DUP3 PUSH1 0x1 PUSH1 0x1 PUSH1 0xA0 SHL SUB AND PUSH4 0xC277F1AC DUP3 PUSH1 0x40 MLOAD DUP3 PUSH4 0xFFFFFFFF AND PUSH1 0xE0 SHL DUP2 MSTORE PUSH1 0x4 ADD PUSH2 0x584 SWAP2 SWAP1 PUSH2 0xE12 JUMP JUMPDEST PUSH1 0x0 PUSH1 0x40 MLOAD DUP1 DUP4 SUB DUP2 DUP7 DUP1 EXTCODESIZE ISZERO DUP1 ISZERO PUSH2 0x59C JUMPI PUSH1 0x0 DUP1 REVERT JUMPDEST POP GAS STATICCALL ISZERO DUP1 ISZERO PUSH2 0x5B0 JUMPI RETURNDATASIZE PUSH1 0x0 DUP1 RETURNDATACOPY RETURNDATASIZE PUSH1 0x0 REVERT JUMPDEST POP POP POP POP PUSH1 0x40 MLOAD RETURNDATASIZE PUSH1 0x0 DUP3 RETURNDATACOPY PUSH1 0x1F RETURNDATASIZE SWAP1 DUP2 ADD PUSH1 0x1F NOT AND DUP3 ADD PUSH1 0x40 MSTORE PUSH2 0x5D8 SWAP2 SWAP1 DUP2 ADD SWAP1 PUSH2 0xAD8 JUMP JUMPDEST POP POP DUP9 MLOAD DUP10 SWAP4 POP DUP7 SWAP3 POP DUP3 LT SWAP1 POP PUSH2 0x5EC JUMPI INVALID JUMPDEST PUSH1 0x20 MUL PUSH1 0x20 ADD ADD DUP2 PUSH1 0x1 PUSH1 0x1 PUSH1 0xA0 SHL SUB AND PUSH1 0x1 PUSH1 0x1 PUSH1 0xA0 SHL SUB AND DUP2 MSTORE POP POP PUSH2 0x619 DUP6 DUP4 DUP2 MLOAD DUP2 LT PUSH2 0x26A JUMPI INVALID JUMPDEST DUP7 DUP4 DUP2 MLOAD DUP2 LT PUSH2 0x625 JUMPI INVALID JUMPDEST PUSH1 0x20 MUL PUSH1 0x20 ADD ADD DUP2 SWAP1 MSTORE POP DUP1 DUP7 DUP4 DUP2 MLOAD DUP2 LT PUSH2 0x63D JUMPI INVALID JUMPDEST PUSH1 0x20 MUL PUSH1 0x20 ADD ADD MLOAD PUSH2 0x180 ADD DUP2 DUP2 MSTORE POP POP DUP5 DUP3 DUP2 MLOAD DUP2 LT PUSH2 0x65A JUMPI INVALID JUMPDEST PUSH1 0x20 MUL PUSH1 0x20 ADD ADD MLOAD DUP7 DUP4 DUP2 MLOAD DUP2 LT PUSH2 0x66E JUMPI INVALID JUMPDEST PUSH1 0x20 SWAP1 DUP2 MUL SWAP2 SWAP1 SWAP2 ADD ADD MLOAD PUSH1 0x1 PUSH1 0x1 PUSH1 0xA0 SHL SUB SWAP1 SWAP2 AND PUSH2 0x1A0 SWAP1 SWAP2 ADD MSTORE POP PUSH1 0x1 ADD PUSH2 0x539 JUMP JUMPDEST POP SWAP3 SWAP9 SWAP8 POP POP POP POP POP POP POP POP JUMP JUMPDEST PUSH2 0x6AA PUSH2 0x878 JUMP JUMPDEST PUSH1 0x0 DUP3 SWAP1 POP DUP1 PUSH1 0x1 PUSH1 0x1 PUSH1 0xA0 SHL SUB AND PUSH4 0x3BC5DE30 PUSH1 0x40 MLOAD DUP2 PUSH4 0xFFFFFFFF AND PUSH1 0xE0 SHL DUP2 MSTORE PUSH1 0x4 ADD PUSH1 0x0 PUSH1 0x40 MLOAD DUP1 DUP4 SUB DUP2 DUP7 DUP1 EXTCODESIZE ISZERO DUP1 ISZERO PUSH2 0x6E8 JUMPI PUSH1 0x0 DUP1 REVERT JUMPDEST POP GAS STATICCALL ISZERO DUP1 ISZERO PUSH2 0x6FC JUMPI RETURNDATASIZE PUSH1 0x0 DUP1 RETURNDATACOPY RETURNDATASIZE PUSH1 0x0 REVERT JUMPDEST POP POP POP POP PUSH1 0x40 MLOAD RETURNDATASIZE PUSH1 0x0 DUP3 RETURNDATACOPY PUSH1 0x1F RETURNDATASIZE SWAP1 DUP2 ADD PUSH1 0x1F NOT AND DUP3 ADD PUSH1 0x40 MSTORE PUSH2 0x724 SWAP2 SWAP1 DUP2 ADD SWAP1 PUSH2 0xB9A JUMP JUMPDEST PUSH1 0x60 DUP7 ADD MSTORE PUSH1 0x40 DUP1 DUP7 ADD SWAP2 SWAP1 SWAP2 MSTORE PUSH1 0x20 DUP6 ADD SWAP2 SWAP1 SWAP2 MSTORE SWAP1 DUP4 MSTORE DUP1 MLOAD PUSH4 0x8F7A844B PUSH1 0xE0 SHL DUP2 MSTORE SWAP1 MLOAD PUSH1 0x1 PUSH1 0x1 PUSH1 0xA0 SHL SUB DUP4 AND SWAP2 PUSH4 0x8F7A844B SWAP2 PUSH1 0x4 DUP1 DUP4 ADD SWAP3 PUSH1 0xC0 SWAP3 SWAP2 SWAP1 DUP3 SWAP1 SUB ADD DUP2 DUP7 DUP1 EXTCODESIZE ISZERO DUP1 ISZERO PUSH2 0x77B JUMPI PUSH1 0x0 DUP1 REVERT JUMPDEST POP GAS STATICCALL ISZERO DUP1 ISZERO PUSH2 0x78F JUMPI RETURNDATASIZE PUSH1 0x0 DUP1 RETURNDATACOPY RETURNDATASIZE PUSH1 0x0 REVERT JUMPDEST POP POP POP POP PUSH1 0x40 MLOAD RETURNDATASIZE PUSH1 0x1F NOT PUSH1 0x1F DUP3 ADD AND DUP3 ADD DUP1 PUSH1 0x40 MSTORE POP DUP2 ADD SWAP1 PUSH2 0x7B3 SWAP2 SWAP1 PUSH2 0xA0A JUMP JUMPDEST PUSH4 0xFFFFFFFF AND PUSH2 0x160 DUP9 ADD MSTORE PUSH2 0x100 DUP8 ADD MSTORE PUSH1 0xE0 DUP7 ADD MSTORE PUSH1 0x1 PUSH1 0x1 PUSH1 0xA0 SHL SUB SWAP1 DUP2 AND PUSH1 0xC0 DUP7 ADD MSTORE SWAP1 DUP2 AND PUSH1 0xA0 DUP6 ADD MSTORE SWAP1 DUP2 AND PUSH1 0x80 DUP5 ADD MSTORE PUSH1 0x40 DUP1 MLOAD PUSH4 0x18160DDD PUSH1 0xE0 SHL DUP2 MSTORE SWAP1 MLOAD SWAP2 DUP4 AND SWAP2 PUSH4 0x18160DDD SWAP2 PUSH1 0x4 DUP1 DUP3 ADD SWAP3 PUSH1 0x20 SWAP3 SWAP1 SWAP2 SWAP1 DUP3 SWAP1 SUB ADD DUP2 DUP7 DUP1 EXTCODESIZE ISZERO DUP1 ISZERO PUSH2 0x824 JUMPI PUSH1 0x0 DUP1 REVERT JUMPDEST POP GAS STATICCALL ISZERO DUP1 ISZERO PUSH2 0x838 JUMPI RETURNDATASIZE PUSH1 0x0 DUP1 RETURNDATACOPY RETURNDATASIZE PUSH1 0x0 REVERT JUMPDEST POP POP POP POP PUSH1 0x40 MLOAD RETURNDATASIZE PUSH1 0x1F NOT PUSH1 0x1F DUP3 ADD AND DUP3 ADD DUP1 PUSH1 0x40 MSTORE POP DUP2 ADD SWAP1 PUSH2 0x85C SWAP2 SWAP1 PUSH2 0xC0B JUMP JUMPDEST PUSH2 0x120 DUP4 ADD MSTORE POP PUSH1 0x1 PUSH1 0x1 PUSH1 0xA0 SHL SUB SWAP1 SWAP2 AND BALANCE PUSH2 0x140 DUP3 ADD MSTORE SWAP1 JUMP JUMPDEST PUSH1 0x40 MLOAD DUP1 PUSH2 0x1C0 ADD PUSH1 0x40 MSTORE DUP1 PUSH1 0x60 DUP2 MSTORE PUSH1 0x20 ADD PUSH1 0x60 DUP2 MSTORE PUSH1 0x20 ADD PUSH1 0x0 DUP2 MSTORE PUSH1 0x20 ADD PUSH1 0x0 DUP2 MSTORE PUSH1 0x20 ADD PUSH1 0x0 PUSH1 0x1 PUSH1 0x1 PUSH1 0xA0 SHL SUB AND DUP2 MSTORE PUSH1 0x20 ADD PUSH1 0x0 PUSH1 0x1 PUSH1 0x1 PUSH1 0xA0 SHL SUB AND DUP2 MSTORE PUSH1 0x20 ADD PUSH1 0x0 PUSH1 0x1 PUSH1 0x1 PUSH1 0xA0 SHL SUB AND DUP2 MSTORE PUSH1 0x20 ADD PUSH1 0x0 DUP2 MSTORE PUSH1 0x20 ADD PUSH1 0x0 DUP2 MSTORE PUSH1 0x20 ADD PUSH1 0x0 DUP2 MSTORE PUSH1 0x20 ADD PUSH1 0x0 DUP2 MSTORE PUSH1 0x20 ADD PUSH1 0x0 PUSH4 0xFFFFFFFF AND DUP2 MSTORE PUSH1 0x20 ADD PUSH1 0x0 DUP2 MSTORE PUSH1 0x20 ADD PUSH1 0x0 PUSH1 0x1 PUSH1 0x1 PUSH1 0xA0 SHL SUB AND DUP2 MSTORE POP SWAP1 JUMP JUMPDEST PUSH1 0x0 DUP1 DUP4 PUSH1 0x1F DUP5 ADD SLT PUSH2 0x922 JUMPI DUP2 DUP3 REVERT JUMPDEST POP DUP2 CALLDATALOAD PUSH8 0xFFFFFFFFFFFFFFFF DUP2 GT ISZERO PUSH2 0x939 JUMPI DUP2 DUP3 REVERT JUMPDEST PUSH1 0x20 DUP4 ADD SWAP2 POP DUP4 PUSH1 0x20 DUP1 DUP4 MUL DUP6 ADD ADD GT ISZERO PUSH2 0x953 JUMPI PUSH1 0x0 DUP1 REVERT JUMPDEST SWAP3 POP SWAP3 SWAP1 POP JUMP JUMPDEST PUSH1 0x0 DUP3 PUSH1 0x1F DUP4 ADD SLT PUSH2 0x96A JUMPI DUP1 DUP2 REVERT JUMPDEST DUP2 MLOAD PUSH8 0xFFFFFFFFFFFFFFFF DUP1 DUP3 GT ISZERO PUSH2 0x97F JUMPI INVALID JUMPDEST PUSH1 0x40 MLOAD PUSH1 0x1F DUP4 ADD PUSH1 0x1F NOT AND DUP2 ADD PUSH1 0x20 ADD DUP3 DUP2 GT DUP3 DUP3 LT OR ISZERO PUSH2 0x99D JUMPI INVALID JUMPDEST PUSH1 0x40 MSTORE DUP3 DUP2 MSTORE SWAP3 POP DUP3 DUP5 DUP4 ADD PUSH1 0x20 ADD DUP7 LT ISZERO PUSH2 0x9B8 JUMPI PUSH1 0x0 DUP1 REVERT JUMPDEST PUSH2 0x9C9 DUP4 PUSH1 0x20 DUP4 ADD PUSH1 0x20 DUP9 ADD PUSH2 0xE1B JUMP JUMPDEST POP POP POP SWAP3 SWAP2 POP POP JUMP JUMPDEST PUSH1 0x0 DUP1 PUSH1 0x40 DUP4 DUP6 SUB SLT ISZERO PUSH2 0x9E4 JUMPI DUP2 DUP3 REVERT JUMPDEST DUP3 CALLDATALOAD PUSH2 0x9EF DUP2 PUSH2 0xE4B JUMP JUMPDEST SWAP2 POP PUSH1 0x20 DUP4 ADD CALLDATALOAD PUSH2 0x9FF DUP2 PUSH2 0xE4B JUMP JUMPDEST DUP1 SWAP2 POP POP SWAP3 POP SWAP3 SWAP1 POP JUMP JUMPDEST PUSH1 0x0 DUP1 PUSH1 0x0 DUP1 PUSH1 0x0 DUP1 PUSH1 0xC0 DUP8 DUP10 SUB SLT ISZERO PUSH2 0xA22 JUMPI DUP2 DUP3 REVERT JUMPDEST DUP7 MLOAD PUSH2 0xA2D DUP2 PUSH2 0xE4B JUMP JUMPDEST PUSH1 0x20 DUP9 ADD MLOAD SWAP1 SWAP7 POP PUSH2 0xA3E DUP2 PUSH2 0xE4B JUMP JUMPDEST PUSH1 0x40 DUP9 ADD MLOAD SWAP1 SWAP6 POP PUSH2 0xA4F DUP2 PUSH2 0xE4B JUMP JUMPDEST DUP1 SWAP5 POP POP PUSH1 0x60 DUP8 ADD MLOAD SWAP3 POP PUSH1 0x80 DUP8 ADD MLOAD SWAP2 POP PUSH1 0xA0 DUP8 ADD MLOAD PUSH4 0xFFFFFFFF DUP2 AND DUP2 EQ PUSH2 0xA77 JUMPI DUP2 DUP3 REVERT JUMPDEST DUP1 SWAP2 POP POP SWAP3 SWAP6 POP SWAP3 SWAP6 POP SWAP3 SWAP6 JUMP JUMPDEST PUSH1 0x0 DUP1 PUSH1 0x0 PUSH1 0x40 DUP5 DUP7 SUB SLT ISZERO PUSH2 0xA99 JUMPI DUP3 DUP4 REVERT JUMPDEST DUP4 CALLDATALOAD PUSH2 0xAA4 DUP2 PUSH2 0xE4B JUMP JUMPDEST SWAP3 POP PUSH1 0x20 DUP5 ADD CALLDATALOAD PUSH8 0xFFFFFFFFFFFFFFFF DUP2 GT ISZERO PUSH2 0xABF JUMPI DUP3 DUP4 REVERT JUMPDEST PUSH2 0xACB DUP7 DUP3 DUP8 ADD PUSH2 0x911 JUMP JUMPDEST SWAP5 SWAP8 SWAP1 SWAP7 POP SWAP4 SWAP5 POP POP POP POP JUMP JUMPDEST PUSH1 0x0 DUP1 PUSH1 0x0 DUP1 PUSH1 0x0 DUP1 PUSH1 0xC0 DUP8 DUP10 SUB SLT ISZERO PUSH2 0xAF0 JUMPI DUP2 DUP3 REVERT JUMPDEST DUP7 MLOAD PUSH2 0xAFB DUP2 PUSH2 0xE4B JUMP JUMPDEST PUSH1 0x20 DUP9 ADD MLOAD SWAP1 SWAP7 POP PUSH8 0xFFFFFFFFFFFFFFFF DUP1 DUP3 GT ISZERO PUSH2 0xB18 JUMPI DUP4 DUP5 REVERT JUMPDEST PUSH2 0xB24 DUP11 DUP4 DUP12 ADD PUSH2 0x95A JUMP JUMPDEST SWAP7 POP PUSH1 0x40 DUP10 ADD MLOAD SWAP2 POP DUP1 DUP3 GT ISZERO PUSH2 0xB39 JUMPI DUP4 DUP5 REVERT JUMPDEST POP PUSH2 0xB46 DUP10 DUP3 DUP11 ADD PUSH2 0x95A JUMP JUMPDEST SWAP5 POP POP PUSH1 0x60 DUP8 ADD MLOAD SWAP3 POP PUSH1 0x80 DUP8 ADD MLOAD PUSH2 0xB5E DUP2 PUSH2 0xE4B JUMP JUMPDEST PUSH1 0xA0 DUP9 ADD MLOAD SWAP1 SWAP3 POP PUSH2 0xA77 DUP2 PUSH2 0xE4B JUMP JUMPDEST PUSH1 0x0 DUP1 PUSH1 0x40 DUP4 DUP6 SUB SLT ISZERO PUSH2 0xB81 JUMPI DUP2 DUP3 REVERT JUMPDEST DUP3 CALLDATALOAD PUSH2 0xB8C DUP2 PUSH2 0xE4B JUMP JUMPDEST SWAP5 PUSH1 0x20 SWAP4 SWAP1 SWAP4 ADD CALLDATALOAD SWAP4 POP POP POP JUMP JUMPDEST PUSH1 0x0 DUP1 PUSH1 0x0 DUP1 PUSH1 0x80 DUP6 DUP8 SUB SLT ISZERO PUSH2 0xBAF JUMPI DUP4 DUP5 REVERT JUMPDEST DUP5 MLOAD PUSH8 0xFFFFFFFFFFFFFFFF DUP1 DUP3 GT ISZERO PUSH2 0xBC6 JUMPI DUP6 DUP7 REVERT JUMPDEST PUSH2 0xBD2 DUP9 DUP4 DUP10 ADD PUSH2 0x95A JUMP JUMPDEST SWAP6 POP PUSH1 0x20 DUP8 ADD MLOAD SWAP2 POP DUP1 DUP3 GT ISZERO PUSH2 0xBE7 JUMPI DUP5 DUP6 REVERT JUMPDEST POP PUSH2 0xBF4 DUP8 DUP3 DUP9 ADD PUSH2 0x95A JUMP JUMPDEST PUSH1 0x40 DUP8 ADD MLOAD PUSH1 0x60 SWAP1 SWAP8 ADD MLOAD SWAP6 SWAP9 SWAP1 SWAP8 POP SWAP4 POP POP POP POP JUMP JUMPDEST PUSH1 0x0 PUSH1 0x20 DUP3 DUP5 SUB SLT ISZERO PUSH2 0xC1C JUMPI DUP1 DUP2 REVERT JUMPDEST POP MLOAD SWAP2 SWAP1 POP JUMP JUMPDEST PUSH1 0x0 DUP1 PUSH1 0x0 DUP1 PUSH1 0x0 DUP1 PUSH1 0xC0 DUP8 DUP10 SUB SLT ISZERO PUSH2 0xC3B JUMPI DUP2 DUP3 REVERT JUMPDEST DUP7 MLOAD SWAP6 POP PUSH1 0x20 DUP8 ADD MLOAD PUSH8 0xFFFFFFFFFFFFFFFF DUP1 DUP3 GT ISZERO PUSH2 0xB18 JUMPI DUP4 DUP5 REVERT JUMPDEST PUSH1 0x1 PUSH1 0x1 PUSH1 0xA0 SHL SUB AND SWAP1 MSTORE JUMP JUMPDEST PUSH1 0x0 DUP2 MLOAD DUP1 DUP5 MSTORE PUSH2 0xC7E DUP2 PUSH1 0x20 DUP7 ADD PUSH1 0x20 DUP7 ADD PUSH2 0xE1B JUMP JUMPDEST PUSH1 0x1F ADD PUSH1 0x1F NOT AND SWAP3 SWAP1 SWAP3 ADD PUSH1 0x20 ADD SWAP3 SWAP2 POP POP JUMP JUMPDEST PUSH1 0x0 PUSH2 0x1C0 DUP3 MLOAD DUP2 DUP6 MSTORE PUSH2 0xCA8 DUP3 DUP7 ADD DUP3 PUSH2 0xC66 JUMP JUMPDEST SWAP2 POP POP PUSH1 0x20 DUP4 ADD MLOAD DUP5 DUP3 SUB PUSH1 0x20 DUP7 ADD MSTORE PUSH2 0xCC2 DUP3 DUP3 PUSH2 0xC66 JUMP JUMPDEST SWAP2 POP POP PUSH1 0x40 DUP4 ADD MLOAD PUSH1 0x40 DUP6 ADD MSTORE PUSH1 0x60 DUP4 ADD MLOAD PUSH1 0x60 DUP6 ADD MSTORE PUSH1 0x80 DUP4 ADD MLOAD PUSH2 0xCEB PUSH1 0x80 DUP7 ADD DUP3 PUSH2 0xC59 JUMP JUMPDEST POP PUSH1 0xA0 DUP4 ADD MLOAD PUSH2 0xCFE PUSH1 0xA0 DUP7 ADD DUP3 PUSH2 0xC59 JUMP JUMPDEST POP PUSH1 0xC0 DUP4 ADD MLOAD PUSH2 0xD11 PUSH1 0xC0 DUP7 ADD DUP3 PUSH2 0xC59 JUMP JUMPDEST POP PUSH1 0xE0 DUP4 DUP2 ADD MLOAD SWAP1 DUP6 ADD MSTORE PUSH2 0x100 DUP1 DUP5 ADD MLOAD SWAP1 DUP6 ADD MSTORE PUSH2 0x120 DUP1 DUP5 ADD MLOAD SWAP1 DUP6 ADD MSTORE PUSH2 0x140 DUP1 DUP5 ADD MLOAD SWAP1 DUP6 ADD MSTORE PUSH2 0x160 DUP1 DUP5 ADD MLOAD PUSH2 0xD50 DUP3 DUP8 ADD DUP3 PUSH2 0xD7A JUMP JUMPDEST POP POP PUSH2 0x180 DUP4 DUP2 ADD MLOAD SWAP1 DUP6 ADD MSTORE PUSH2 0x1A0 DUP1 DUP5 ADD MLOAD PUSH2 0xD70 DUP3 DUP8 ADD DUP3 PUSH2 0xC59 JUMP JUMPDEST POP SWAP1 SWAP5 SWAP4 POP POP POP POP JUMP JUMPDEST PUSH4 0xFFFFFFFF AND SWAP1 MSTORE JUMP JUMPDEST PUSH1 0x1 PUSH1 0x1 PUSH1 0xA0 SHL SUB SWAP2 SWAP1 SWAP2 AND DUP2 MSTORE PUSH1 0x20 ADD SWAP1 JUMP JUMPDEST PUSH1 0x0 PUSH1 0x20 DUP1 DUP4 ADD DUP2 DUP5 MSTORE DUP1 DUP6 MLOAD DUP1 DUP4 MSTORE PUSH1 0x40 DUP7 ADD SWAP2 POP PUSH1 0x40 DUP5 DUP3 MUL DUP8 ADD ADD SWAP3 POP DUP4 DUP8 ADD DUP6 JUMPDEST DUP3 DUP2 LT ISZERO PUSH2 0xDEB JUMPI PUSH1 0x3F NOT DUP9 DUP7 SUB ADD DUP5 MSTORE PUSH2 0xDD9 DUP6 DUP4 MLOAD PUSH2 0xC92 JUMP JUMPDEST SWAP5 POP SWAP3 DUP6 ADD SWAP3 SWAP1 DUP6 ADD SWAP1 PUSH1 0x1 ADD PUSH2 0xDBD JUMP JUMPDEST POP SWAP3 SWAP8 SWAP7 POP POP POP POP POP POP POP JUMP JUMPDEST PUSH1 0x0 PUSH1 0x20 DUP3 MSTORE PUSH2 0xE0B PUSH1 0x20 DUP4 ADD DUP5 PUSH2 0xC92 JUMP JUMPDEST SWAP4 SWAP3 POP POP POP JUMP JUMPDEST SWAP1 DUP2 MSTORE PUSH1 0x20 ADD SWAP1 JUMP JUMPDEST PUSH1 0x0 JUMPDEST DUP4 DUP2 LT ISZERO PUSH2 0xE36 JUMPI DUP2 DUP2 ADD MLOAD DUP4 DUP3 ADD MSTORE PUSH1 0x20 ADD PUSH2 0xE1E JUMP JUMPDEST DUP4 DUP2 GT ISZERO PUSH2 0xE45 JUMPI PUSH1 0x0 DUP5 DUP5 ADD MSTORE JUMPDEST POP POP POP POP JUMP JUMPDEST PUSH1 0x1 PUSH1 0x1 PUSH1 0xA0 SHL SUB DUP2 AND DUP2 EQ PUSH2 0xE60 JUMPI PUSH1 0x0 DUP1 REVERT JUMPDEST POP JUMP INVALID LOG2 PUSH5 0x6970667358 0x22 SLT KECCAK256 0x2C MOD 0xEF PUSH6 0x719BA4E0C5E7 PC SWAP11 0x4F DUP16 0xD6 0xB9 DUP16 LOG2 0xAE EXTCODESIZE PUSH4 0x1ABCD8A8 SWAP8 DUP9 0x4E 0xD8 0x22 0xCC 0xBC PUSH5 0x736F6C6343 STOP SMOD DIV STOP CALLER "
			}
		}
	},
	"sourceTreeHashHex": "0x791d8b7112b17541a85f4353931304fe0cdaf3ce2571fec8fcaca0dfe5a038a5",
	"compiler": {
		"name": "solc",
		"version": "0.7.4+commit.3f05b770",
		"settings": {
			"remappings": [],
			"optimizer": {
				"enabled": true,
				"runs": 200
			},
			"outputSelection": {
				"*": {
					"*": [
						"abi",
						"devdoc",
						"evm.bytecode.object",
						"evm.bytecode.sourceMap",
						"evm.deployedBytecode.object",
						"evm.deployedBytecode.sourceMap"
					]
				}
			}
		}
	},
	"chains": {}
}