{
	"schemaVersion": "2.0.0",
	"contractName": "Inflation",
	"compilerOutput": {
		"abi": [
			{
				"inputs": [
					{
						"internalType": "address",
						"name": "_rigoTokenAddress",
						"type": "address"
					},
					{
						"internalType": "address",
						"name": "_stakingProxyAddress",
						"type": "address"
					},
					{
						"internalType": "address",
						"name": "_authorityAddress",
						"type": "address"
					}
				],
				"stateMutability": "nonpayable",
				"type": "constructor"
			},
			{
				"inputs": [],
				"name": "INFLATIONRATE",
				"outputs": [
					{
						"internalType": "uint256",
						"name": "",
						"type": "uint256"
					}
				],
				"stateMutability": "view",
				"type": "function"
			},
			{
				"inputs": [],
				"name": "RIGOTOKENADDRESS",
				"outputs": [
					{
						"internalType": "address",
						"name": "",
						"type": "address"
					}
				],
				"stateMutability": "view",
				"type": "function"
			},
			{
				"inputs": [],
				"name": "STAKINGPROXYADDRESS",
				"outputs": [
					{
						"internalType": "address",
						"name": "",
						"type": "address"
					}
				],
				"stateMutability": "view",
				"type": "function"
			},
			{
				"inputs": [],
				"name": "authorityAddress",
				"outputs": [
					{
						"internalType": "address",
						"name": "",
						"type": "address"
					}
				],
				"stateMutability": "view",
				"type": "function"
			},
			{
				"inputs": [],
				"name": "epochEnded",
				"outputs": [
					{
						"internalType": "bool",
						"name": "",
						"type": "bool"
					}
				],
				"stateMutability": "view",
				"type": "function"
			},
			{
				"inputs": [],
				"name": "epochLength",
				"outputs": [
					{
						"internalType": "uint256",
						"name": "",
						"type": "uint256"
					}
				],
				"stateMutability": "view",
				"type": "function"
			},
			{
				"inputs": [],
				"name": "getEpochReward",
				"outputs": [
					{
						"internalType": "uint256",
						"name": "",
						"type": "uint256"
					}
				],
				"stateMutability": "view",
				"type": "function"
			},
			{
				"inputs": [
					{
						"internalType": "address",
						"name": "groupAddress",
						"type": "address"
					}
				],
				"name": "getInflationFactor",
				"outputs": [
					{
						"internalType": "uint256",
						"name": "",
						"type": "uint256"
					}
				],
				"stateMutability": "view",
				"type": "function"
			},
			{
				"inputs": [
					{
						"internalType": "address",
						"name": "",
						"type": "address"
					}
				],
				"name": "groupByAddress",
				"outputs": [
					{
						"internalType": "uint256",
						"name": "epochReward",
						"type": "uint256"
					}
				],
				"stateMutability": "view",
				"type": "function"
			},
			{
				"inputs": [],
				"name": "mintInflation",
				"outputs": [
					{
						"internalType": "uint256",
						"name": "mintedReward",
						"type": "uint256"
					}
				],
				"stateMutability": "nonpayable",
				"type": "function"
			},
			{
				"inputs": [],
				"name": "rigoblockDaoAddress",
				"outputs": [
					{
						"internalType": "address",
						"name": "",
						"type": "address"
					}
				],
				"stateMutability": "view",
				"type": "function"
			},
			{
				"inputs": [
					{
						"internalType": "address",
						"name": "newAuthorityAddress",
						"type": "address"
					}
				],
				"name": "setAuthority",
				"outputs": [],
				"stateMutability": "nonpayable",
				"type": "function"
			},
			{
				"inputs": [
					{
						"internalType": "address",
						"name": "groupAddress",
						"type": "address"
					},
					{
						"internalType": "uint256",
						"name": "inflationFactor",
						"type": "uint256"
					}
				],
				"name": "setInflationFactor",
				"outputs": [],
				"stateMutability": "nonpayable",
				"type": "function"
			},
			{
				"inputs": [
					{
						"internalType": "address",
						"name": "newRigoblockDaoAddress",
						"type": "address"
					}
				],
				"name": "setRigoblock",
				"outputs": [],
				"stateMutability": "nonpayable",
				"type": "function"
			},
			{
				"inputs": [],
				"name": "slot",
				"outputs": [
					{
						"internalType": "uint256",
						"name": "",
						"type": "uint256"
					}
				],
				"stateMutability": "view",
				"type": "function"
			},
			{
				"inputs": [],
				"name": "timeUntilNextClaim",
				"outputs": [
					{
						"internalType": "uint256",
						"name": "",
						"type": "uint256"
					}
				],
				"stateMutability": "view",
				"type": "function"
			}
		],
		"devdoc": {
			"author": "Gabriele Rigo - <gab@rigoblock.com>",
			"kind": "dev",
			"methods": {
				"epochEnded()": {
					"details": "Returns whether an epoch has ended.",
					"returns": {
						"_0": "Bool the wizard can claim."
					}
				},
				"getEpochReward()": {
					"details": "Returns the max epoch reward of a pool.",
					"returns": {
						"_0": "Value of the maximum pool reward."
					}
				},
				"getInflationFactor(address)": {
					"details": "Return the reward factor for a group.",
					"params": {
						"groupAddress": "Address of the group."
					},
					"returns": {
						"_0": "Value of the reward factor."
					}
				},
				"mintInflation()": {
					"details": "Allows staking proxy to mint rewards.",
					"returns": {
						"mintedReward": "Number of allocated reward."
					}
				},
				"setAuthority(address)": {
					"details": "Allows rigoblock dao to update the authority.",
					"params": {
						"newAuthorityAddress": "Address of the authority."
					}
				},
				"setInflationFactor(address,uint256)": {
					"details": "Allows rigoblock dao to set the inflation factor for a group.",
					"params": {
						"groupAddress": "Address of the group/factory.",
						"inflationFactor": "Value of the reward factor."
					}
				},
				"setRigoblock(address)": {
					"details": "Allows rigoblock dao to upgrade its address.",
					"params": {
						"newRigoblockDaoAddress": "Address of the new rigoblock dao."
					}
				},
				"timeUntilNextClaim()": {
					"details": "Returns how much time needed until next claim.",
					"returns": {
						"_0": "Number in seconds."
					}
				}
			},
			"title": "Inflation - Allows ProofOfPerformance to mint tokens.",
			"version": 1
		},
		"evm": {
			"bytecode": {
				"linkReferences": {},
				"object": "0x60e060405260c86080526212750060015534801561001c57600080fd5b50604051610d04380380610d0483398101604081905261003b916100a5565b606092831b6001600160601b031990811660a0529190921b1660c05260038054336001600160a01b031991821617909155600280549091166001600160a01b039092169190911790556100e7565b80516001600160a01b03811681146100a057600080fd5b919050565b6000806000606084860312156100b9578283fd5b6100c284610089565b92506100d060208501610089565b91506100de60408501610089565b90509250925092565b60805160a05160601c60c05160601c610bcd6101376000398061038452806104ef528061067652806108a3525080610266528061047a5280610649525080610307528061035a5250610bcd6000f3fe608060405234801561001057600080fd5b50600436106101005760003560e01c8063663b64f7116100975780637f8be859116100665780637f8be859146101c3578063a6c9c443146101cb578063c551a2f9146101d3578063d410e0c2146101db57610100565b8063663b64f71461018d5780636dd73944146101955780637802815c1461019d5780637a9e5e4b146101b057610100565b80631b3d00b3116100d35780631b3d00b3146101605780633c695d4e146101685780633d980c8c1461017d57806357d775f81461018557610100565b8063020e0cdb14610105578063029834701461011a578063175db3c4146101435780631a88bc6614610158575b600080fd5b61011861011336600461094c565b6101ee565b005b61012d610128366004610932565b61022a565b60405161013a9190610b8e565b60405180910390f35b61014b61023c565b60405161013a9190610a4a565b61012d610256565b61012d61025c565b61017061033c565b60405161013a9190610a03565b61012d610358565b61012d61037c565b610170610382565b61012d6103a6565b6101186101ab366004610932565b6103be565b6101186101be366004610932565b61040d565b61017061045c565b610170610478565b61012d61049c565b61012d6101e9366004610932565b6106d7565b6101f6610703565b8161020081610756565b5073ffffffffffffffffffffffffffffffffffffffff909116600090815260056020526040902055565b60056020526000908152604090205481565b6000600454421061024f57506001610253565b5060005b90565b60005481565b600061033761032c7f000000000000000000000000000000000000000000000000000000000000000073ffffffffffffffffffffffffffffffffffffffff166318160ddd6040518163ffffffff1660e01b815260040160206040518083038186803b1580156102ca57600080fd5b505afa1580156102de573d6000803e3d6000fd5b505050506040513d601f19601f820116820180604052508101906103029190610995565b6001547f000000000000000000000000000000000000000000000000000000000000000002610835565b64496cebb80061085c565b905090565b60025473ffffffffffffffffffffffffffffffffffffffff1681565b7f000000000000000000000000000000000000000000000000000000000000000081565b60015481565b7f000000000000000000000000000000000000000000000000000000000000000081565b600060045442101561024f5742600454039050610253565b6103c6610703565b600380547fffffffffffffffffffffffff00000000000000000000000000000000000000001673ffffffffffffffffffffffffffffffffffffffff92909216919091179055565b610415610703565b600280547fffffffffffffffffffffffff00000000000000000000000000000000000000001673ffffffffffffffffffffffffffffffffffffffff92909216919091179055565b60035473ffffffffffffffffffffffffffffffffffffffff1681565b7f000000000000000000000000000000000000000000000000000000000000000081565b60006104a661088b565b6004544210156104eb576040517f08c379a00000000000000000000000000000000000000000000000000000000081526004016104e290610a55565b60405180910390fd5b60007f000000000000000000000000000000000000000000000000000000000000000073ffffffffffffffffffffffffffffffffffffffff16635e615a6b6040518163ffffffff1660e01b815260040160a06040518083038186803b15801561055357600080fd5b505afa158015610567573d6000803e3d6000fd5b505050506040513d601f19601f8201168201806040525081019061058b91906109ad565b50505050905080600154146105ea57620697808110806105ad57506276a70081115b156105e4576040517f08c379a00000000000000000000000000000000000000000000000000000000081526004016104e290610b31565b60018190555b60006105f461025c565b6001805442016004908155600080549092019091556040517f79c6506800000000000000000000000000000000000000000000000000000000815291925073ffffffffffffffffffffffffffffffffffffffff7f000000000000000000000000000000000000000000000000000000000000000016916379c650689161069e917f000000000000000000000000000000000000000000000000000000000000000091869101610a24565b600060405180830381600087803b1580156106b857600080fd5b505af11580156106cc573d6000803e3d6000fd5b509294505050505090565b73ffffffffffffffffffffffffffffffffffffffff81166000908152600560205260409020545b919050565b60035473ffffffffffffffffffffffffffffffffffffffff163314610754576040517f08c379a00000000000000000000000000000000000000000000000000000000081526004016104e290610ac3565b565b6002546040517fdcb7a3e000000000000000000000000000000000000000000000000000000000815273ffffffffffffffffffffffffffffffffffffffff9091169063dcb7a3e0906107ac908490600401610a03565b60206040518083038186803b1580156107c457600080fd5b505afa1580156107d8573d6000803e3d6000fd5b505050506040513d601f19601f820116820180604052508101906107fc9190610975565b610832576040517f08c379a00000000000000000000000000000000000000000000000000000000081526004016104e290610a8c565b50565b600082820283158061084f57508284828161084c57fe5b04145b61085557fe5b9392505050565b600080821161086757fe5b600082848161087257fe5b04905082848161087e57fe5b0681840201841461085557fe5b3373ffffffffffffffffffffffffffffffffffffffff7f00000000000000000000000000000000000000000000000000000000000000001614610754576040517f08c379a00000000000000000000000000000000000000000000000000000000081526004016104e290610afa565b803573ffffffffffffffffffffffffffffffffffffffff811681146106fe57600080fd5b805163ffffffff811681146106fe57600080fd5b600060208284031215610943578081fd5b610855826108fa565b6000806040838503121561095e578081fd5b610967836108fa565b946020939093013593505050565b600060208284031215610986578081fd5b81518015158114610855578182fd5b6000602082840312156109a6578081fd5b5051919050565b600080600080600060a086880312156109c4578081fd5b855194506109d46020870161091e565b9350604086015192506109e96060870161091e565b91506109f76080870161091e565b90509295509295909350565b73ffffffffffffffffffffffffffffffffffffffff91909116815260200190565b73ffffffffffffffffffffffffffffffffffffffff929092168252602082015260400190565b901515815260200190565b60208082526015908201527f4e4f545f454e4f5547485f54494d455f4552524f520000000000000000000000604082015260600190565b6020808252601c908201527f4e4f545f415050524f5645445f415554484f524954595f4552524f5200000000604082015260600190565b6020808252601e908201527f43414c4c45525f4e4f545f5249474f424c4f434b5f44414f5f4552524f520000604082015260600190565b6020808252601e908201527f43414c4c45525f4e4f545f5354414b494e475f50524f58595f4552524f520000604082015260600190565b60208082526029908201527f5354414b494e475f45504f43485f54494d455f414e4f4d414c595f444554454360408201527f5445445f4552524f520000000000000000000000000000000000000000000000606082015260800190565b9081526020019056fea26469706673582212206bf7915642431a950990d19aa842b004f5c03336d116c42321695db97455993564736f6c63430007040033",
				"opcodes": "PUSH1 0xE0 PUSH1 0x40 MSTORE PUSH1 0xC8 PUSH1 0x80 MSTORE PUSH3 0x127500 PUSH1 0x1 SSTORE CALLVALUE DUP1 ISZERO PUSH2 0x1C JUMPI PUSH1 0x0 DUP1 REVERT JUMPDEST POP PUSH1 0x40 MLOAD PUSH2 0xD04 CODESIZE SUB DUP1 PUSH2 0xD04 DUP4 CODECOPY DUP2 ADD PUSH1 0x40 DUP2 SWAP1 MSTORE PUSH2 0x3B SWAP2 PUSH2 0xA5 JUMP JUMPDEST PUSH1 0x60 SWAP3 DUP4 SHL PUSH1 0x1 PUSH1 0x1 PUSH1 0x60 SHL SUB NOT SWAP1 DUP2 AND PUSH1 0xA0 MSTORE SWAP2 SWAP1 SWAP3 SHL AND PUSH1 0xC0 MSTORE PUSH1 0x3 DUP1 SLOAD CALLER PUSH1 0x1 PUSH1 0x1 PUSH1 0xA0 SHL SUB NOT SWAP2 DUP3 AND OR SWAP1 SWAP2 SSTORE PUSH1 0x2 DUP1 SLOAD SWAP1 SWAP2 AND PUSH1 0x1 PUSH1 0x1 PUSH1 0xA0 SHL SUB SWAP1 SWAP3 AND SWAP2 SWAP1 SWAP2 OR SWAP1 SSTORE PUSH2 0xE7 JUMP JUMPDEST DUP1 MLOAD PUSH1 0x1 PUSH1 0x1 PUSH1 0xA0 SHL SUB DUP2 AND DUP2 EQ PUSH2 0xA0 JUMPI PUSH1 0x0 DUP1 REVERT JUMPDEST SWAP2 SWAP1 POP JUMP JUMPDEST PUSH1 0x0 DUP1 PUSH1 0x0 PUSH1 0x60 DUP5 DUP7 SUB SLT ISZERO PUSH2 0xB9 JUMPI DUP3 DUP4 REVERT JUMPDEST PUSH2 0xC2 DUP5 PUSH2 0x89 JUMP JUMPDEST SWAP3 POP PUSH2 0xD0 PUSH1 0x20 DUP6 ADD PUSH2 0x89 JUMP JUMPDEST SWAP2 POP PUSH2 0xDE PUSH1 0x40 DUP6 ADD PUSH2 0x89 JUMP JUMPDEST SWAP1 POP SWAP3 POP SWAP3 POP SWAP3 JUMP JUMPDEST PUSH1 0x80 MLOAD PUSH1 0xA0 MLOAD PUSH1 0x60 SHR PUSH1 0xC0 MLOAD PUSH1 0x60 SHR PUSH2 0xBCD PUSH2 0x137 PUSH1 0x0 CODECOPY DUP1 PUSH2 0x384 MSTORE DUP1 PUSH2 0x4EF MSTORE DUP1 PUSH2 0x676 MSTORE DUP1 PUSH2 0x8A3 MSTORE POP DUP1 PUSH2 0x266 MSTORE DUP1 PUSH2 0x47A MSTORE DUP1 PUSH2 0x649 MSTORE POP DUP1 PUSH2 0x307 MSTORE DUP1 PUSH2 0x35A MSTORE POP PUSH2 0xBCD PUSH1 0x0 RETURN INVALID PUSH1 0x80 PUSH1 0x40 MSTORE CALLVALUE DUP1 ISZERO PUSH2 0x10 JUMPI PUSH1 0x0 DUP1 REVERT JUMPDEST POP PUSH1 0x4 CALLDATASIZE LT PUSH2 0x100 JUMPI PUSH1 0x0 CALLDATALOAD PUSH1 0xE0 SHR DUP1 PUSH4 0x663B64F7 GT PUSH2 0x97 JUMPI DUP1 PUSH4 0x7F8BE859 GT PUSH2 0x66 JUMPI DUP1 PUSH4 0x7F8BE859 EQ PUSH2 0x1C3 JUMPI DUP1 PUSH4 0xA6C9C443 EQ PUSH2 0x1CB JUMPI DUP1 PUSH4 0xC551A2F9 EQ PUSH2 0x1D3 JUMPI DUP1 PUSH4 0xD410E0C2 EQ PUSH2 0x1DB JUMPI PUSH2 0x100 JUMP JUMPDEST DUP1 PUSH4 0x663B64F7 EQ PUSH2 0x18D JUMPI DUP1 PUSH4 0x6DD73944 EQ PUSH2 0x195 JUMPI DUP1 PUSH4 0x7802815C EQ PUSH2 0x19D JUMPI DUP1 PUSH4 0x7A9E5E4B EQ PUSH2 0x1B0 JUMPI PUSH2 0x100 JUMP JUMPDEST DUP1 PUSH4 0x1B3D00B3 GT PUSH2 0xD3 JUMPI DUP1 PUSH4 0x1B3D00B3 EQ PUSH2 0x160 JUMPI DUP1 PUSH4 0x3C695D4E EQ PUSH2 0x168 JUMPI DUP1 PUSH4 0x3D980C8C EQ PUSH2 0x17D JUMPI DUP1 PUSH4 0x57D775F8 EQ PUSH2 0x185 JUMPI PUSH2 0x100 JUMP JUMPDEST DUP1 PUSH4 0x20E0CDB EQ PUSH2 0x105 JUMPI DUP1 PUSH4 0x2983470 EQ PUSH2 0x11A JUMPI DUP1 PUSH4 0x175DB3C4 EQ PUSH2 0x143 JUMPI DUP1 PUSH4 0x1A88BC66 EQ PUSH2 0x158 JUMPI JUMPDEST PUSH1 0x0 DUP1 REVERT JUMPDEST PUSH2 0x118 PUSH2 0x113 CALLDATASIZE PUSH1 0x4 PUSH2 0x94C JUMP JUMPDEST PUSH2 0x1EE JUMP JUMPDEST STOP JUMPDEST PUSH2 0x12D PUSH2 0x128 CALLDATASIZE PUSH1 0x4 PUSH2 0x932 JUMP JUMPDEST PUSH2 0x22A JUMP JUMPDEST PUSH1 0x40 MLOAD PUSH2 0x13A SWAP2 SWAP1 PUSH2 0xB8E JUMP JUMPDEST PUSH1 0x40 MLOAD DUP1 SWAP2 SUB SWAP1 RETURN JUMPDEST PUSH2 0x14B PUSH2 0x23C JUMP JUMPDEST PUSH1 0x40 MLOAD PUSH2 0x13A SWAP2 SWAP1 PUSH2 0xA4A JUMP JUMPDEST PUSH2 0x12D PUSH2 0x256 JUMP JUMPDEST PUSH2 0x12D PUSH2 0x25C JUMP JUMPDEST PUSH2 0x170 PUSH2 0x33C JUMP JUMPDEST PUSH1 0x40 MLOAD PUSH2 0x13A SWAP2 SWAP1 PUSH2 0xA03 JUMP JUMPDEST PUSH2 0x12D PUSH2 0x358 JUMP JUMPDEST PUSH2 0x12D PUSH2 0x37C JUMP JUMPDEST PUSH2 0x170 PUSH2 0x382 JUMP JUMPDEST PUSH2 0x12D PUSH2 0x3A6 JUMP JUMPDEST PUSH2 0x118 PUSH2 0x1AB CALLDATASIZE PUSH1 0x4 PUSH2 0x932 JUMP JUMPDEST PUSH2 0x3BE JUMP JUMPDEST PUSH2 0x118 PUSH2 0x1BE CALLDATASIZE PUSH1 0x4 PUSH2 0x932 JUMP JUMPDEST PUSH2 0x40D JUMP JUMPDEST PUSH2 0x170 PUSH2 0x45C JUMP JUMPDEST PUSH2 0x170 PUSH2 0x478 JUMP JUMPDEST PUSH2 0x12D PUSH2 0x49C JUMP JUMPDEST PUSH2 0x12D PUSH2 0x1E9 CALLDATASIZE PUSH1 0x4 PUSH2 0x932 JUMP JUMPDEST PUSH2 0x6D7 JUMP JUMPDEST PUSH2 0x1F6 PUSH2 0x703 JUMP JUMPDEST DUP2 PUSH2 0x200 DUP2 PUSH2 0x756 JUMP JUMPDEST POP PUSH20 0xFFFFFFFFFFFFFFFFFFFFFFFFFFFFFFFFFFFFFFFF SWAP1 SWAP2 AND PUSH1 0x0 SWAP1 DUP2 MSTORE PUSH1 0x5 PUSH1 0x20 MSTORE PUSH1 0x40 SWAP1 KECCAK256 SSTORE JUMP JUMPDEST PUSH1 0x5 PUSH1 0x20 MSTORE PUSH1 0x0 SWAP1 DUP2 MSTORE PUSH1 0x40 SWAP1 KECCAK256 SLOAD DUP2 JUMP JUMPDEST PUSH1 0x0 PUSH1 0x4 SLOAD TIMESTAMP LT PUSH2 0x24F JUMPI POP PUSH1 0x1 PUSH2 0x253 JUMP JUMPDEST POP PUSH1 0x0 JUMPDEST SWAP1 JUMP JUMPDEST PUSH1 0x0 SLOAD DUP2 JUMP JUMPDEST PUSH1 0x0 PUSH2 0x337 PUSH2 0x32C PUSH32 0x0 PUSH20 0xFFFFFFFFFFFFFFFFFFFFFFFFFFFFFFFFFFFFFFFF AND PUSH4 0x18160DDD PUSH1 0x40 MLOAD DUP2 PUSH4 0xFFFFFFFF AND PUSH1 0xE0 SHL DUP2 MSTORE PUSH1 0x4 ADD PUSH1 0x20 PUSH1 0x40 MLOAD DUP1 DUP4 SUB DUP2 DUP7 DUP1 EXTCODESIZE ISZERO DUP1 ISZERO PUSH2 0x2CA JUMPI PUSH1 0x0 DUP1 REVERT JUMPDEST POP GAS STATICCALL ISZERO DUP1 ISZERO PUSH2 0x2DE JUMPI RETURNDATASIZE PUSH1 0x0 DUP1 RETURNDATACOPY RETURNDATASIZE PUSH1 0x0 REVERT JUMPDEST POP POP POP POP PUSH1 0x40 MLOAD RETURNDATASIZE PUSH1 0x1F NOT PUSH1 0x1F DUP3 ADD AND DUP3 ADD DUP1 PUSH1 0x40 MSTORE POP DUP2 ADD SWAP1 PUSH2 0x302 SWAP2 SWAP1 PUSH2 0x995 JUMP JUMPDEST PUSH1 0x1 SLOAD PUSH32 0x0 MUL PUSH2 0x835 JUMP JUMPDEST PUSH5 0x496CEBB800 PUSH2 0x85C JUMP JUMPDEST SWAP1 POP SWAP1 JUMP JUMPDEST PUSH1 0x2 SLOAD PUSH20 0xFFFFFFFFFFFFFFFFFFFFFFFFFFFFFFFFFFFFFFFF AND DUP2 JUMP JUMPDEST PUSH32 0x0 DUP2 JUMP JUMPDEST PUSH1 0x1 SLOAD DUP2 JUMP JUMPDEST PUSH32 0x0 DUP2 JUMP JUMPDEST PUSH1 0x0 PUSH1 0x4 SLOAD TIMESTAMP LT ISZERO PUSH2 0x24F JUMPI TIMESTAMP PUSH1 0x4 SLOAD SUB SWAP1 POP PUSH2 0x253 JUMP JUMPDEST PUSH2 0x3C6 PUSH2 0x703 JUMP JUMPDEST PUSH1 0x3 DUP1 SLOAD PUSH32 0xFFFFFFFFFFFFFFFFFFFFFFFF0000000000000000000000000000000000000000 AND PUSH20 0xFFFFFFFFFFFFFFFFFFFFFFFFFFFFFFFFFFFFFFFF SWAP3 SWAP1 SWAP3 AND SWAP2 SWAP1 SWAP2 OR SWAP1 SSTORE JUMP JUMPDEST PUSH2 0x415 PUSH2 0x703 JUMP JUMPDEST PUSH1 0x2 DUP1 SLOAD PUSH32 0xFFFFFFFFFFFFFFFFFFFFFFFF0000000000000000000000000000000000000000 AND PUSH20 0xFFFFFFFFFFFFFFFFFFFFFFFFFFFFFFFFFFFFFFFF SWAP3 SWAP1 SWAP3 AND SWAP2 SWAP1 SWAP2 OR SWAP1 SSTORE JUMP JUMPDEST PUSH1 0x3 SLOAD PUSH20 0xFFFFFFFFFFFFFFFFFFFFFFFFFFFFFFFFFFFFFFFF AND DUP2 JUMP JUMPDEST PUSH32 0x0 DUP2 JUMP JUMPDEST PUSH1 0x0 PUSH2 0x4A6 PUSH2 0x88B JUMP JUMPDEST PUSH1 0x4 SLOAD TIMESTAMP LT ISZERO PUSH2 0x4EB JUMPI PUSH1 0x40 MLOAD PUSH32 0x8C379A000000000000000000000000000000000000000000000000000000000 DUP2 MSTORE PUSH1 0x4 ADD PUSH2 0x4E2 SWAP1 PUSH2 0xA55 JUMP JUMPDEST PUSH1 0x40 MLOAD DUP1 SWAP2 SUB SWAP1 REVERT JUMPDEST PUSH1 0x0 PUSH32 0x0 PUSH20 0xFFFFFFFFFFFFFFFFFFFFFFFFFFFFFFFFFFFFFFFF AND PUSH4 0x5E615A6B PUSH1 0x40 MLOAD DUP2 PUSH4 0xFFFFFFFF AND PUSH1 0xE0 SHL DUP2 MSTORE PUSH1 0x4 ADD PUSH1 0xA0 PUSH1 0x40 MLOAD DUP1 DUP4 SUB DUP2 DUP7 DUP1 EXTCODESIZE ISZERO DUP1 ISZERO PUSH2 0x553 JUMPI PUSH1 0x0 DUP1 REVERT JUMPDEST POP GAS STATICCALL ISZERO DUP1 ISZERO PUSH2 0x567 JUMPI RETURNDATASIZE PUSH1 0x0 DUP1 RETURNDATACOPY RETURNDATASIZE PUSH1 0x0 REVERT JUMPDEST POP POP POP POP PUSH1 0x40 MLOAD RETURNDATASIZE PUSH1 0x1F NOT PUSH1 0x1F DUP3 ADD AND DUP3 ADD DUP1 PUSH1 0x40 MSTORE POP DUP2 ADD SWAP1 PUSH2 0x58B SWAP2 SWAP1 PUSH2 0x9AD JUMP JUMPDEST POP POP POP POP SWAP1 POP DUP1 PUSH1 0x1 SLOAD EQ PUSH2 0x5EA JUMPI PUSH3 0x69780 DUP2 LT DUP1 PUSH2 0x5AD JUMPI POP PUSH3 0x76A700 DUP2 GT JUMPDEST ISZERO PUSH2 0x5E4 JUMPI PUSH1 0x40 MLOAD PUSH32 0x8C379A000000000000000000000000000000000000000000000000000000000 DUP2 MSTORE PUSH1 0x4 ADD PUSH2 0x4E2 SWAP1 PUSH2 0xB31 JUMP JUMPDEST PUSH1 0x1 DUP2 SWAP1 SSTORE JUMPDEST PUSH1 0x0 PUSH2 0x5F4 PUSH2 0x25C JUMP JUMPDEST PUSH1 0x1 DUP1 SLOAD TIMESTAMP ADD PUSH1 0x4 SWAP1 DUP2 SSTORE PUSH1 0x0 DUP1 SLOAD SWAP1 SWAP3 ADD SWAP1 SWAP2 SSTORE PUSH1 0x40 MLOAD PUSH32 0x79C6506800000000000000000000000000000000000000000000000000000000 DUP2 MSTORE SWAP2 SWAP3 POP PUSH20 0xFFFFFFFFFFFFFFFFFFFFFFFFFFFFFFFFFFFFFFFF PUSH32 0x0 AND SWAP2 PUSH4 0x79C65068 SWAP2 PUSH2 0x69E SWAP2 PUSH32 0x0 SWAP2 DUP7 SWAP2 ADD PUSH2 0xA24 JUMP JUMPDEST PUSH1 0x0 PUSH1 0x40 MLOAD DUP1 DUP4 SUB DUP2 PUSH1 0x0 DUP8 DUP1 EXTCODESIZE ISZERO DUP1 ISZERO PUSH2 0x6B8 JUMPI PUSH1 0x0 DUP1 REVERT JUMPDEST POP GAS CALL ISZERO DUP1 ISZERO PUSH2 0x6CC JUMPI RETURNDATASIZE PUSH1 0x0 DUP1 RETURNDATACOPY RETURNDATASIZE PUSH1 0x0 REVERT JUMPDEST POP SWAP3 SWAP5 POP POP POP POP POP SWAP1 JUMP JUMPDEST PUSH20 0xFFFFFFFFFFFFFFFFFFFFFFFFFFFFFFFFFFFFFFFF DUP2 AND PUSH1 0x0 SWAP1 DUP2 MSTORE PUSH1 0x5 PUSH1 0x20 MSTORE PUSH1 0x40 SWAP1 KECCAK256 SLOAD JUMPDEST SWAP2 SWAP1 POP JUMP JUMPDEST PUSH1 0x3 SLOAD PUSH20 0xFFFFFFFFFFFFFFFFFFFFFFFFFFFFFFFFFFFFFFFF AND CALLER EQ PUSH2 0x754 JUMPI PUSH1 0x40 MLOAD PUSH32 0x8C379A000000000000000000000000000000000000000000000000000000000 DUP2 MSTORE PUSH1 0x4 ADD PUSH2 0x4E2 SWAP1 PUSH2 0xAC3 JUMP JUMPDEST JUMP JUMPDEST PUSH1 0x2 SLOAD PUSH1 0x40 MLOAD PUSH32 0xDCB7A3E000000000000000000000000000000000000000000000000000000000 DUP2 MSTORE PUSH20 0xFFFFFFFFFFFFFFFFFFFFFFFFFFFFFFFFFFFFFFFF SWAP1 SWAP2 AND SWAP1 PUSH4 0xDCB7A3E0 SWAP1 PUSH2 0x7AC SWAP1 DUP5 SWAP1 PUSH1 0x4 ADD PUSH2 0xA03 JUMP JUMPDEST PUSH1 0x20 PUSH1 0x40 MLOAD DUP1 DUP4 SUB DUP2 DUP7 DUP1 EXTCODESIZE ISZERO DUP1 ISZERO PUSH2 0x7C4 JUMPI PUSH1 0x0 DUP1 REVERT JUMPDEST POP GAS STATICCALL ISZERO DUP1 ISZERO PUSH2 0x7D8 JUMPI RETURNDATASIZE PUSH1 0x0 DUP1 RETURNDATACOPY RETURNDATASIZE PUSH1 0x0 REVERT JUMPDEST POP POP POP POP PUSH1 0x40 MLOAD RETURNDATASIZE PUSH1 0x1F NOT PUSH1 0x1F DUP3 ADD AND DUP3 ADD DUP1 PUSH1 0x40 MSTORE POP DUP2 ADD SWAP1 PUSH2 0x7FC SWAP2 SWAP1 PUSH2 0x975 JUMP JUMPDEST PUSH2 0x832 JUMPI PUSH1 0x40 MLOAD PUSH32 0x8C379A000000000000000000000000000000000000000000000000000000000 DUP2 MSTORE PUSH1 0x4 ADD PUSH2 0x4E2 SWAP1 PUSH2 0xA8C JUMP JUMPDEST POP JUMP JUMPDEST PUSH1 0x0 DUP3 DUP3 MUL DUP4 ISZERO DUP1 PUSH2 0x84F JUMPI POP DUP3 DUP5 DUP3 DUP2 PUSH2 0x84C JUMPI INVALID JUMPDEST DIV EQ JUMPDEST PUSH2 0x855 JUMPI INVALID JUMPDEST SWAP4 SWAP3 POP POP POP JUMP JUMPDEST PUSH1 0x0 DUP1 DUP3 GT PUSH2 0x867 JUMPI INVALID JUMPDEST PUSH1 0x0 DUP3 DUP5 DUP2 PUSH2 0x872 JUMPI INVALID JUMPDEST DIV SWAP1 POP DUP3 DUP5 DUP2 PUSH2 0x87E JUMPI INVALID JUMPDEST MOD DUP2 DUP5 MUL ADD DUP5 EQ PUSH2 0x855 JUMPI INVALID JUMPDEST CALLER PUSH20 0xFFFFFFFFFFFFFFFFFFFFFFFFFFFFFFFFFFFFFFFF PUSH32 0x0 AND EQ PUSH2 0x754 JUMPI PUSH1 0x40 MLOAD PUSH32 0x8C379A000000000000000000000000000000000000000000000000000000000 DUP2 MSTORE PUSH1 0x4 ADD PUSH2 0x4E2 SWAP1 PUSH2 0xAFA JUMP JUMPDEST DUP1 CALLDATALOAD PUSH20 0xFFFFFFFFFFFFFFFFFFFFFFFFFFFFFFFFFFFFFFFF DUP2 AND DUP2 EQ PUSH2 0x6FE JUMPI PUSH1 0x0 DUP1 REVERT JUMPDEST DUP1 MLOAD PUSH4 0xFFFFFFFF DUP2 AND DUP2 EQ PUSH2 0x6FE JUMPI PUSH1 0x0 DUP1 REVERT JUMPDEST PUSH1 0x0 PUSH1 0x20 DUP3 DUP5 SUB SLT ISZERO PUSH2 0x943 JUMPI DUP1 DUP2 REVERT JUMPDEST PUSH2 0x855 DUP3 PUSH2 0x8FA JUMP JUMPDEST PUSH1 0x0 DUP1 PUSH1 0x40 DUP4 DUP6 SUB SLT ISZERO PUSH2 0x95E JUMPI DUP1 DUP2 REVERT JUMPDEST PUSH2 0x967 DUP4 PUSH2 0x8FA JUMP JUMPDEST SWAP5 PUSH1 0x20 SWAP4 SWAP1 SWAP4 ADD CALLDATALOAD SWAP4 POP POP POP JUMP JUMPDEST PUSH1 0x0 PUSH1 0x20 DUP3 DUP5 SUB SLT ISZERO PUSH2 0x986 JUMPI DUP1 DUP2 REVERT JUMPDEST DUP2 MLOAD DUP1 ISZERO ISZERO DUP2 EQ PUSH2 0x855 JUMPI DUP2 DUP3 REVERT JUMPDEST PUSH1 0x0 PUSH1 0x20 DUP3 DUP5 SUB SLT ISZERO PUSH2 0x9A6 JUMPI DUP1 DUP2 REVERT JUMPDEST POP MLOAD SWAP2 SWAP1 POP JUMP JUMPDEST PUSH1 0x0 DUP1 PUSH1 0x0 DUP1 PUSH1 0x0 PUSH1 0xA0 DUP7 DUP9 SUB SLT ISZERO PUSH2 0x9C4 JUMPI DUP1 DUP2 REVERT JUMPDEST DUP6 MLOAD SWAP5 POP PUSH2 0x9D4 PUSH1 0x20 DUP8 ADD PUSH2 0x91E JUMP JUMPDEST SWAP4 POP PUSH1 0x40 DUP7 ADD MLOAD SWAP3 POP PUSH2 0x9E9 PUSH1 0x60 DUP8 ADD PUSH2 0x91E JUMP JUMPDEST SWAP2 POP PUSH2 0x9F7 PUSH1 0x80 DUP8 ADD PUSH2 0x91E JUMP JUMPDEST SWAP1 POP SWAP3 SWAP6 POP SWAP3 SWAP6 SWAP1 SWAP4 POP JUMP JUMPDEST PUSH20 0xFFFFFFFFFFFFFFFFFFFFFFFFFFFFFFFFFFFFFFFF SWAP2 SWAP1 SWAP2 AND DUP2 MSTORE PUSH1 0x20 ADD SWAP1 JUMP JUMPDEST PUSH20 0xFFFFFFFFFFFFFFFFFFFFFFFFFFFFFFFFFFFFFFFF SWAP3 SWAP1 SWAP3 AND DUP3 MSTORE PUSH1 0x20 DUP3 ADD MSTORE PUSH1 0x40 ADD SWAP1 JUMP JUMPDEST SWAP1 ISZERO ISZERO DUP2 MSTORE PUSH1 0x20 ADD SWAP1 JUMP JUMPDEST PUSH1 0x20 DUP1 DUP3 MSTORE PUSH1 0x15 SWAP1 DUP3 ADD MSTORE PUSH32 0x4E4F545F454E4F5547485F54494D455F4552524F520000000000000000000000 PUSH1 0x40 DUP3 ADD MSTORE PUSH1 0x60 ADD SWAP1 JUMP JUMPDEST PUSH1 0x20 DUP1 DUP3 MSTORE PUSH1 0x1C SWAP1 DUP3 ADD MSTORE PUSH32 0x4E4F545F415050524F5645445F415554484F524954595F4552524F5200000000 PUSH1 0x40 DUP3 ADD MSTORE PUSH1 0x60 ADD SWAP1 JUMP JUMPDEST PUSH1 0x20 DUP1 DUP3 MSTORE PUSH1 0x1E SWAP1 DUP3 ADD MSTORE PUSH32 0x43414C4C45525F4E4F545F5249474F424C4F434B5F44414F5F4552524F520000 PUSH1 0x40 DUP3 ADD MSTORE PUSH1 0x60 ADD SWAP1 JUMP JUMPDEST PUSH1 0x20 DUP1 DUP3 MSTORE PUSH1 0x1E SWAP1 DUP3 ADD MSTORE PUSH32 0x43414C4C45525F4E4F545F5354414B494E475F50524F58595F4552524F520000 PUSH1 0x40 DUP3 ADD MSTORE PUSH1 0x60 ADD SWAP1 JUMP JUMPDEST PUSH1 0x20 DUP1 DUP3 MSTORE PUSH1 0x29 SWAP1 DUP3 ADD MSTORE PUSH32 0x5354414B494E475F45504F43485F54494D455F414E4F4D414C595F4445544543 PUSH1 0x40 DUP3 ADD MSTORE PUSH32 0x5445445F4552524F520000000000000000000000000000000000000000000000 PUSH1 0x60 DUP3 ADD MSTORE PUSH1 0x80 ADD SWAP1 JUMP JUMPDEST SWAP1 DUP2 MSTORE PUSH1 0x20 ADD SWAP1 JUMP INVALID LOG2 PUSH5 0x6970667358 0x22 SLT KECCAK256 PUSH12 0xF7915642431A950990D19AA8 TIMESTAMP 0xB0 DIV CREATE2 0xC0 CALLER CALLDATASIZE 0xD1 AND 0xC4 0x23 0x21 PUSH10 0x5DB97455993564736F6C PUSH4 0x43000704 STOP CALLER "
			}
		}
	},
	"sourceTreeHashHex": "0xa2f454a01e6f864887df913e9a339227e11ec9362fd9c04b76e6de5adffef863",
	"compiler": {
		"name": "solc",
		"version": "0.7.4+commit.3f05b770",
		"settings": {
			"remappings": [],
			"optimizer": {
				"enabled": true,
				"runs": 1000000
			},
			"outputSelection": {
				"*": {
					"*": [
						"abi",
						"devdoc",
						"evm.bytecode.object",
						"evm.bytecode.sourceMap",
						"evm.deployedBytecode.object",
						"evm.deployedBytecode.sourceMap"
					]
				}
			}
		}
	},
	"chains": {}
}