{
	"schemaVersion": "2.0.0",
	"contractName": "Inflation",
	"compilerOutput": {
		"abi": [
			{
				"inputs": [
					{
						"internalType": "address",
						"name": "_rigoTokenAddress",
						"type": "address"
					},
					{
						"internalType": "address",
						"name": "_stakingProxyAddress",
						"type": "address"
					},
					{
						"internalType": "address",
						"name": "_authorityAddress",
						"type": "address"
					}
				],
				"stateMutability": "nonpayable",
				"type": "constructor"
			},
			{
				"inputs": [],
				"name": "RIGOTOKENADDRESS",
				"outputs": [
					{
						"internalType": "address",
						"name": "",
						"type": "address"
					}
				],
				"stateMutability": "view",
				"type": "function"
			},
			{
				"inputs": [],
				"name": "STAKINGPROXYADDRESS",
				"outputs": [
					{
						"internalType": "address",
						"name": "",
						"type": "address"
					}
				],
				"stateMutability": "view",
				"type": "function"
			},
			{
				"inputs": [],
				"name": "authorityAddress",
				"outputs": [
					{
						"internalType": "address",
						"name": "",
						"type": "address"
					}
				],
				"stateMutability": "view",
				"type": "function"
			},
			{
				"inputs": [
					{
						"internalType": "bytes32",
						"name": "stakingPoolId",
						"type": "bytes32"
					}
				],
				"name": "canWithdraw",
				"outputs": [
					{
						"internalType": "bool",
						"name": "",
						"type": "bool"
					}
				],
				"stateMutability": "view",
				"type": "function"
			},
			{
				"inputs": [
					{
						"internalType": "address",
						"name": "groupAddress",
						"type": "address"
					}
				],
				"name": "getInflationFactor",
				"outputs": [
					{
						"internalType": "uint256",
						"name": "",
						"type": "uint256"
					}
				],
				"stateMutability": "view",
				"type": "function"
			},
			{
				"inputs": [
					{
						"internalType": "uint256",
						"name": "totalGrgDelegatedToPool",
						"type": "uint256"
					}
				],
				"name": "getMaxEpochReward",
				"outputs": [
					{
						"internalType": "uint256",
						"name": "",
						"type": "uint256"
					}
				],
				"stateMutability": "view",
				"type": "function"
			},
			{
				"inputs": [
					{
						"internalType": "address",
						"name": "",
						"type": "address"
					}
				],
				"name": "groups",
				"outputs": [
					{
						"internalType": "uint256",
						"name": "epochReward",
						"type": "uint256"
					}
				],
				"stateMutability": "view",
				"type": "function"
			},
			{
				"inputs": [
					{
						"internalType": "bytes32",
						"name": "stakingPoolId",
						"type": "bytes32"
					},
					{
						"internalType": "uint256",
						"name": "reward",
						"type": "uint256"
					}
				],
				"name": "mintInflation",
				"outputs": [
					{
						"internalType": "uint256",
						"name": "",
						"type": "uint256"
					}
				],
				"stateMutability": "nonpayable",
				"type": "function"
			},
			{
				"inputs": [
					{
						"internalType": "bytes32",
						"name": "",
						"type": "bytes32"
					}
				],
				"name": "performers",
				"outputs": [
					{
						"internalType": "uint256",
						"name": "claimedTokens",
						"type": "uint256"
					},
					{
						"internalType": "uint256",
						"name": "startTime",
						"type": "uint256"
					},
					{
						"internalType": "uint256",
						"name": "endTime",
						"type": "uint256"
					}
				],
				"stateMutability": "view",
				"type": "function"
			},
			{
				"inputs": [],
				"name": "rigoblockDaoAddress",
				"outputs": [
					{
						"internalType": "address",
						"name": "",
						"type": "address"
					}
				],
				"stateMutability": "view",
				"type": "function"
			},
			{
				"inputs": [
					{
						"internalType": "address",
						"name": "newAuthorityAddress",
						"type": "address"
					}
				],
				"name": "setAuthority",
				"outputs": [],
				"stateMutability": "nonpayable",
				"type": "function"
			},
			{
				"inputs": [
					{
						"internalType": "address",
						"name": "groupAddress",
						"type": "address"
					},
					{
						"internalType": "uint256",
						"name": "inflationFactor",
						"type": "uint256"
					}
				],
				"name": "setInflationFactor",
				"outputs": [],
				"stateMutability": "nonpayable",
				"type": "function"
			},
			{
				"inputs": [
					{
						"internalType": "address",
						"name": "newRigoblockDaoAddress",
						"type": "address"
					}
				],
				"name": "setRigoblock",
				"outputs": [],
				"stateMutability": "nonpayable",
				"type": "function"
			},
			{
				"inputs": [],
				"name": "slot",
				"outputs": [
					{
						"internalType": "uint256",
						"name": "",
						"type": "uint256"
					}
				],
				"stateMutability": "view",
				"type": "function"
			},
			{
				"inputs": [
					{
						"internalType": "bytes32",
						"name": "stakingPoolId",
						"type": "bytes32"
					}
				],
				"name": "timeUntilClaim",
				"outputs": [
					{
						"internalType": "uint256",
						"name": "",
						"type": "uint256"
					}
				],
				"stateMutability": "view",
				"type": "function"
			}
		],
		"devdoc": {
			"author": "Gabriele Rigo - <gab@rigoblock.com>",
			"kind": "dev",
			"methods": {
				"canWithdraw(bytes32)": {
					"details": "Returns whether a staking pool's reward can be claimed.",
					"params": {
						"stakingPoolId": "Address of the target pool."
					},
					"returns": {
						"_0": "Bool the wizard can claim."
					}
				},
				"getInflationFactor(address)": {
					"details": "Return the reward factor for a group.",
					"params": {
						"groupAddress": "Address of the group."
					},
					"returns": {
						"_0": "Value of the reward factor."
					}
				},
				"getMaxEpochReward(uint256)": {
					"details": "Returns the max epoch reward of a pool.",
					"params": {
						"totalGrgDelegatedToPool": "Total amount of GRG delegated to the pool."
					},
					"returns": {
						"_0": "Value of the maximum pool reward."
					}
				},
				"mintInflation(bytes32,uint256)": {
					"details": "Allows ProofOfPerformance to mint rewards.",
					"params": {
						"reward": "Number of reward in Rigo tokens.",
						"stakingPoolId": "String of the staking pool."
					},
					"returns": {
						"_0": "Number of allocated reward."
					}
				},
				"setAuthority(address)": {
					"details": "Allows rigoblock dao to update the authority.",
					"params": {
						"newAuthorityAddress": "Address of the authority."
					}
				},
				"setInflationFactor(address,uint256)": {
					"details": "Allows rigoblock dao to set the inflation factor for a group.",
					"params": {
						"groupAddress": "Address of the group/factory.",
						"inflationFactor": "Value of the reward factor."
					}
				},
				"setRigoblock(address)": {
					"details": "Allows rigoblock dao to upgrade its address.",
					"params": {
						"newRigoblockDaoAddress": "Address of the new rigoblock dao."
					}
				},
				"timeUntilClaim(bytes32)": {
					"details": "Returns how much time needed until next claim.",
					"params": {
						"stakingPoolId": "Address of the target pool."
					},
					"returns": {
						"_0": "Number in seconds."
					}
				}
			},
			"title": "Inflation - Allows ProofOfPerformance to mint tokens.",
			"version": 1
		},
		"evm": {
			"bytecode": {
				"linkReferences": {},
				"object": "0x608060405234801561001057600080fd5b50604051610d9a380380610d9a83398101604081905261002f91610097565b600080546001600160a01b039485166001600160a01b031991821617909155600180549385169382169390931790925560048054831633179055600380549190931691161790556100d9565b80516001600160a01b038116811461009257600080fd5b919050565b6000806000606084860312156100ab578283fd5b6100b48461007b565b92506100c26020850161007b565b91506100d06040850161007b565b90509250925092565b610cb2806100e86000396000f3fe608060405234801561001057600080fd5b50600436106100f55760003560e01c80636fb70c76116100975780637fa36e40116100665780637fa36e40146101d1578063a6c9c443146101e4578063d410e0c2146101ec578063d736d1eb146101ff576100f5565b80636fb70c76146101835780637802815c146101a35780637a9e5e4b146101b65780637f8be859146101c9576100f5565b806342a86d65116100d357806342a86d651461014257806357a15c031461015557806363d5e44d14610168578063663b64f71461017b576100f5565b8063020e0cdb146100fa5780631a88bc661461010f5780633c695d4e1461012d575b600080fd5b61010d610108366004610a5c565b610221565b005b61011761025d565b6040516101249190610bb8565b60405180910390f35b610135610263565b6040516101249190610b66565b610117610150366004610aa5565b61027f565b610117610163366004610aa5565b6102bc565b610117610176366004610a42565b61037c565b61013561038e565b610196610191366004610aa5565b6103aa565b6040516101249190610bad565b61010d6101b1366004610a42565b6103ca565b61010d6101c4366004610a42565b610419565b610135610468565b6101176101df366004610abd565b610484565b6101356106e2565b6101176101fa366004610a42565b6106fe565b61021261020d366004610aa5565b610726565b60405161012493929190610c66565b610229610747565b81610233816107a3565b5073ffffffffffffffffffffffffffffffffffffffff909116600090815260066020526040902055565b60025481565b60035473ffffffffffffffffffffffffffffffffffffffff1681565b6000818152600560205260408120600301544210156102b357506000818152600560205260409020600301544290036102b7565b5060005b919050565b6000610376600160009054906101000a900473ffffffffffffffffffffffffffffffffffffffff1673ffffffffffffffffffffffffffffffffffffffff1663634038016040518163ffffffff1660e01b815260040160206040518083038186803b15801561032957600080fd5b505afa15801561033d573d6000803e3d6000fd5b505050506040513d601f19601f820116820180604052508101906103619190610b4e565b830261036b610882565b6301e13380026108bc565b92915050565b60066020526000908152604090205481565b60015473ffffffffffffffffffffffffffffffffffffffff1681565b60008181526005602052604081206003015442106102b3575060016102b7565b6103d2610747565b600480547fffffffffffffffffffffffff00000000000000000000000000000000000000001673ffffffffffffffffffffffffffffffffffffffff92909216919091179055565b610421610747565b600380547fffffffffffffffffffffffff00000000000000000000000000000000000000001673ffffffffffffffffffffffffffffffffffffffff92909216919091179055565b60045473ffffffffffffffffffffffffffffffffffffffff1681565b600061048e6108f2565b6000838152600560205260409020600301544210156104af57506000610376565b60006104ba84610943565b90506104c5816102bc565b8311156104d6576000915050610376565b6000848152600560209081526040918290204260029091015560015482517f63403801000000000000000000000000000000000000000000000000000000008152925173ffffffffffffffffffffffffffffffffffffffff909116926363403801926004808301939192829003018186803b15801561055457600080fd5b505afa158015610568573d6000803e3d6000fd5b505050506040513d601f19601f8201168201806040525081019061058c9190610b4e565b600085815260056020819052604082204293909301600390930192909255600280546001019055906064908502600054600480546040517f79c6506800000000000000000000000000000000000000000000000000000000815294909304945073ffffffffffffffffffffffffffffffffffffffff9182169384936379c650689361061c93911691879101610b87565b600060405180830381600087803b15801561063657600080fd5b505af115801561064a573d6000803e3d6000fd5b50506001546040517f79c6506800000000000000000000000000000000000000000000000000000000815273ffffffffffffffffffffffffffffffffffffffff80861694506379c6506893506106a69216908990600401610b87565b600060405180830381600087803b1580156106c057600080fd5b505af11580156106d4573d6000803e3d6000fd5b509698975050505050505050565b60005473ffffffffffffffffffffffffffffffffffffffff1681565b73ffffffffffffffffffffffffffffffffffffffff1660009081526006602052604090205490565b60056020526000908152604090208054600282015460039092015490919083565b60045473ffffffffffffffffffffffffffffffffffffffff1633146107a1576040517f08c379a000000000000000000000000000000000000000000000000000000000815260040161079890610bf8565b60405180910390fd5b565b6003546040517fdcb7a3e000000000000000000000000000000000000000000000000000000000815273ffffffffffffffffffffffffffffffffffffffff9091169063dcb7a3e0906107f9908490600401610b66565b60206040518083038186803b15801561081157600080fd5b505afa158015610825573d6000803e3d6000fd5b505050506040513d601f19601f820116820180604052508101906108499190610a85565b61087f576040517f08c379a000000000000000000000000000000000000000000000000000000000815260040161079890610bc1565b50565b60006361b325204281111561089b5760019150506108b9565b806301dfe200014210156108b35760029150506108b9565b60049150505b90565b60008082116108c757fe5b60008284816108d257fe5b0490508284816108de57fe5b068184020184146108eb57fe5b9392505050565b60015473ffffffffffffffffffffffffffffffffffffffff1633146107a1576040517f08c379a000000000000000000000000000000000000000000000000000000000815260040161079890610c2f565b6001546040517f3e4ad73200000000000000000000000000000000000000000000000000000000815260009173ffffffffffffffffffffffffffffffffffffffff1690633e4ad7329061099a908590600401610bb8565b60606040518083038186803b1580156109b257600080fd5b505afa1580156109c6573d6000803e3d6000fd5b505050506040513d601f19601f820116820180604052508101906109ea9190610ade565b602001516bffffffffffffffffffffffff1692915050565b803573ffffffffffffffffffffffffffffffffffffffff811681146102b757600080fd5b80516bffffffffffffffffffffffff811681146102b757600080fd5b600060208284031215610a53578081fd5b6108eb82610a02565b60008060408385031215610a6e578081fd5b610a7783610a02565b946020939093013593505050565b600060208284031215610a96578081fd5b815180151581146108eb578182fd5b600060208284031215610ab6578081fd5b5035919050565b60008060408385031215610acf578182fd5b50508035926020909101359150565b600060608284031215610aef578081fd5b6040516060810167ffffffffffffffff8282108183111715610b0d57fe5b81604052845191508082168214610b22578384fd5b508152610b3160208401610a26565b6020820152610b4260408401610a26565b60408201529392505050565b600060208284031215610b5f578081fd5b5051919050565b73ffffffffffffffffffffffffffffffffffffffff91909116815260200190565b73ffffffffffffffffffffffffffffffffffffffff929092168252602082015260400190565b901515815260200190565b90815260200190565b6020808252601c908201527f4e4f545f415050524f5645445f415554484f524954595f4552524f5200000000604082015260600190565b6020808252601e908201527f43414c4c45525f4e4f545f5249474f424c4f434b5f44414f5f4552524f520000604082015260600190565b6020808252601e908201527f43414c4c45525f4e4f545f5354414b494e475f50524f58595f4552524f520000604082015260600190565b928352602083019190915260408201526060019056fea2646970667358221220cc49eca3edadaa5be5593b28acc14e24290c80e13375214803102fb6f797f65164736f6c63430007040033",
				"opcodes": "PUSH1 0x80 PUSH1 0x40 MSTORE CALLVALUE DUP1 ISZERO PUSH2 0x10 JUMPI PUSH1 0x0 DUP1 REVERT JUMPDEST POP PUSH1 0x40 MLOAD PUSH2 0xD9A CODESIZE SUB DUP1 PUSH2 0xD9A DUP4 CODECOPY DUP2 ADD PUSH1 0x40 DUP2 SWAP1 MSTORE PUSH2 0x2F SWAP2 PUSH2 0x97 JUMP JUMPDEST PUSH1 0x0 DUP1 SLOAD PUSH1 0x1 PUSH1 0x1 PUSH1 0xA0 SHL SUB SWAP5 DUP6 AND PUSH1 0x1 PUSH1 0x1 PUSH1 0xA0 SHL SUB NOT SWAP2 DUP3 AND OR SWAP1 SWAP2 SSTORE PUSH1 0x1 DUP1 SLOAD SWAP4 DUP6 AND SWAP4 DUP3 AND SWAP4 SWAP1 SWAP4 OR SWAP1 SWAP3 SSTORE PUSH1 0x4 DUP1 SLOAD DUP4 AND CALLER OR SWAP1 SSTORE PUSH1 0x3 DUP1 SLOAD SWAP2 SWAP1 SWAP4 AND SWAP2 AND OR SWAP1 SSTORE PUSH2 0xD9 JUMP JUMPDEST DUP1 MLOAD PUSH1 0x1 PUSH1 0x1 PUSH1 0xA0 SHL SUB DUP2 AND DUP2 EQ PUSH2 0x92 JUMPI PUSH1 0x0 DUP1 REVERT JUMPDEST SWAP2 SWAP1 POP JUMP JUMPDEST PUSH1 0x0 DUP1 PUSH1 0x0 PUSH1 0x60 DUP5 DUP7 SUB SLT ISZERO PUSH2 0xAB JUMPI DUP3 DUP4 REVERT JUMPDEST PUSH2 0xB4 DUP5 PUSH2 0x7B JUMP JUMPDEST SWAP3 POP PUSH2 0xC2 PUSH1 0x20 DUP6 ADD PUSH2 0x7B JUMP JUMPDEST SWAP2 POP PUSH2 0xD0 PUSH1 0x40 DUP6 ADD PUSH2 0x7B JUMP JUMPDEST SWAP1 POP SWAP3 POP SWAP3 POP SWAP3 JUMP JUMPDEST PUSH2 0xCB2 DUP1 PUSH2 0xE8 PUSH1 0x0 CODECOPY PUSH1 0x0 RETURN INVALID PUSH1 0x80 PUSH1 0x40 MSTORE CALLVALUE DUP1 ISZERO PUSH2 0x10 JUMPI PUSH1 0x0 DUP1 REVERT JUMPDEST POP PUSH1 0x4 CALLDATASIZE LT PUSH2 0xF5 JUMPI PUSH1 0x0 CALLDATALOAD PUSH1 0xE0 SHR DUP1 PUSH4 0x6FB70C76 GT PUSH2 0x97 JUMPI DUP1 PUSH4 0x7FA36E40 GT PUSH2 0x66 JUMPI DUP1 PUSH4 0x7FA36E40 EQ PUSH2 0x1D1 JUMPI DUP1 PUSH4 0xA6C9C443 EQ PUSH2 0x1E4 JUMPI DUP1 PUSH4 0xD410E0C2 EQ PUSH2 0x1EC JUMPI DUP1 PUSH4 0xD736D1EB EQ PUSH2 0x1FF JUMPI PUSH2 0xF5 JUMP JUMPDEST DUP1 PUSH4 0x6FB70C76 EQ PUSH2 0x183 JUMPI DUP1 PUSH4 0x7802815C EQ PUSH2 0x1A3 JUMPI DUP1 PUSH4 0x7A9E5E4B EQ PUSH2 0x1B6 JUMPI DUP1 PUSH4 0x7F8BE859 EQ PUSH2 0x1C9 JUMPI PUSH2 0xF5 JUMP JUMPDEST DUP1 PUSH4 0x42A86D65 GT PUSH2 0xD3 JUMPI DUP1 PUSH4 0x42A86D65 EQ PUSH2 0x142 JUMPI DUP1 PUSH4 0x57A15C03 EQ PUSH2 0x155 JUMPI DUP1 PUSH4 0x63D5E44D EQ PUSH2 0x168 JUMPI DUP1 PUSH4 0x663B64F7 EQ PUSH2 0x17B JUMPI PUSH2 0xF5 JUMP JUMPDEST DUP1 PUSH4 0x20E0CDB EQ PUSH2 0xFA JUMPI DUP1 PUSH4 0x1A88BC66 EQ PUSH2 0x10F JUMPI DUP1 PUSH4 0x3C695D4E EQ PUSH2 0x12D JUMPI JUMPDEST PUSH1 0x0 DUP1 REVERT JUMPDEST PUSH2 0x10D PUSH2 0x108 CALLDATASIZE PUSH1 0x4 PUSH2 0xA5C JUMP JUMPDEST PUSH2 0x221 JUMP JUMPDEST STOP JUMPDEST PUSH2 0x117 PUSH2 0x25D JUMP JUMPDEST PUSH1 0x40 MLOAD PUSH2 0x124 SWAP2 SWAP1 PUSH2 0xBB8 JUMP JUMPDEST PUSH1 0x40 MLOAD DUP1 SWAP2 SUB SWAP1 RETURN JUMPDEST PUSH2 0x135 PUSH2 0x263 JUMP JUMPDEST PUSH1 0x40 MLOAD PUSH2 0x124 SWAP2 SWAP1 PUSH2 0xB66 JUMP JUMPDEST PUSH2 0x117 PUSH2 0x150 CALLDATASIZE PUSH1 0x4 PUSH2 0xAA5 JUMP JUMPDEST PUSH2 0x27F JUMP JUMPDEST PUSH2 0x117 PUSH2 0x163 CALLDATASIZE PUSH1 0x4 PUSH2 0xAA5 JUMP JUMPDEST PUSH2 0x2BC JUMP JUMPDEST PUSH2 0x117 PUSH2 0x176 CALLDATASIZE PUSH1 0x4 PUSH2 0xA42 JUMP JUMPDEST PUSH2 0x37C JUMP JUMPDEST PUSH2 0x135 PUSH2 0x38E JUMP JUMPDEST PUSH2 0x196 PUSH2 0x191 CALLDATASIZE PUSH1 0x4 PUSH2 0xAA5 JUMP JUMPDEST PUSH2 0x3AA JUMP JUMPDEST PUSH1 0x40 MLOAD PUSH2 0x124 SWAP2 SWAP1 PUSH2 0xBAD JUMP JUMPDEST PUSH2 0x10D PUSH2 0x1B1 CALLDATASIZE PUSH1 0x4 PUSH2 0xA42 JUMP JUMPDEST PUSH2 0x3CA JUMP JUMPDEST PUSH2 0x10D PUSH2 0x1C4 CALLDATASIZE PUSH1 0x4 PUSH2 0xA42 JUMP JUMPDEST PUSH2 0x419 JUMP JUMPDEST PUSH2 0x135 PUSH2 0x468 JUMP JUMPDEST PUSH2 0x117 PUSH2 0x1DF CALLDATASIZE PUSH1 0x4 PUSH2 0xABD JUMP JUMPDEST PUSH2 0x484 JUMP JUMPDEST PUSH2 0x135 PUSH2 0x6E2 JUMP JUMPDEST PUSH2 0x117 PUSH2 0x1FA CALLDATASIZE PUSH1 0x4 PUSH2 0xA42 JUMP JUMPDEST PUSH2 0x6FE JUMP JUMPDEST PUSH2 0x212 PUSH2 0x20D CALLDATASIZE PUSH1 0x4 PUSH2 0xAA5 JUMP JUMPDEST PUSH2 0x726 JUMP JUMPDEST PUSH1 0x40 MLOAD PUSH2 0x124 SWAP4 SWAP3 SWAP2 SWAP1 PUSH2 0xC66 JUMP JUMPDEST PUSH2 0x229 PUSH2 0x747 JUMP JUMPDEST DUP2 PUSH2 0x233 DUP2 PUSH2 0x7A3 JUMP JUMPDEST POP PUSH20 0xFFFFFFFFFFFFFFFFFFFFFFFFFFFFFFFFFFFFFFFF SWAP1 SWAP2 AND PUSH1 0x0 SWAP1 DUP2 MSTORE PUSH1 0x6 PUSH1 0x20 MSTORE PUSH1 0x40 SWAP1 KECCAK256 SSTORE JUMP JUMPDEST PUSH1 0x2 SLOAD DUP2 JUMP JUMPDEST PUSH1 0x3 SLOAD PUSH20 0xFFFFFFFFFFFFFFFFFFFFFFFFFFFFFFFFFFFFFFFF AND DUP2 JUMP JUMPDEST PUSH1 0x0 DUP2 DUP2 MSTORE PUSH1 0x5 PUSH1 0x20 MSTORE PUSH1 0x40 DUP2 KECCAK256 PUSH1 0x3 ADD SLOAD TIMESTAMP LT ISZERO PUSH2 0x2B3 JUMPI POP PUSH1 0x0 DUP2 DUP2 MSTORE PUSH1 0x5 PUSH1 0x20 MSTORE PUSH1 0x40 SWAP1 KECCAK256 PUSH1 0x3 ADD SLOAD TIMESTAMP SWAP1 SUB PUSH2 0x2B7 JUMP JUMPDEST POP PUSH1 0x0 JUMPDEST SWAP2 SWAP1 POP JUMP JUMPDEST PUSH1 0x0 PUSH2 0x376 PUSH1 0x1 PUSH1 0x0 SWAP1 SLOAD SWAP1 PUSH2 0x100 EXP SWAP1 DIV PUSH20 0xFFFFFFFFFFFFFFFFFFFFFFFFFFFFFFFFFFFFFFFF AND PUSH20 0xFFFFFFFFFFFFFFFFFFFFFFFFFFFFFFFFFFFFFFFF AND PUSH4 0x63403801 PUSH1 0x40 MLOAD DUP2 PUSH4 0xFFFFFFFF AND PUSH1 0xE0 SHL DUP2 MSTORE PUSH1 0x4 ADD PUSH1 0x20 PUSH1 0x40 MLOAD DUP1 DUP4 SUB DUP2 DUP7 DUP1 EXTCODESIZE ISZERO DUP1 ISZERO PUSH2 0x329 JUMPI PUSH1 0x0 DUP1 REVERT JUMPDEST POP GAS STATICCALL ISZERO DUP1 ISZERO PUSH2 0x33D JUMPI RETURNDATASIZE PUSH1 0x0 DUP1 RETURNDATACOPY RETURNDATASIZE PUSH1 0x0 REVERT JUMPDEST POP POP POP POP PUSH1 0x40 MLOAD RETURNDATASIZE PUSH1 0x1F NOT PUSH1 0x1F DUP3 ADD AND DUP3 ADD DUP1 PUSH1 0x40 MSTORE POP DUP2 ADD SWAP1 PUSH2 0x361 SWAP2 SWAP1 PUSH2 0xB4E JUMP JUMPDEST DUP4 MUL PUSH2 0x36B PUSH2 0x882 JUMP JUMPDEST PUSH4 0x1E13380 MUL PUSH2 0x8BC JUMP JUMPDEST SWAP3 SWAP2 POP POP JUMP JUMPDEST PUSH1 0x6 PUSH1 0x20 MSTORE PUSH1 0x0 SWAP1 DUP2 MSTORE PUSH1 0x40 SWAP1 KECCAK256 SLOAD DUP2 JUMP JUMPDEST PUSH1 0x1 SLOAD PUSH20 0xFFFFFFFFFFFFFFFFFFFFFFFFFFFFFFFFFFFFFFFF AND DUP2 JUMP JUMPDEST PUSH1 0x0 DUP2 DUP2 MSTORE PUSH1 0x5 PUSH1 0x20 MSTORE PUSH1 0x40 DUP2 KECCAK256 PUSH1 0x3 ADD SLOAD TIMESTAMP LT PUSH2 0x2B3 JUMPI POP PUSH1 0x1 PUSH2 0x2B7 JUMP JUMPDEST PUSH2 0x3D2 PUSH2 0x747 JUMP JUMPDEST PUSH1 0x4 DUP1 SLOAD PUSH32 0xFFFFFFFFFFFFFFFFFFFFFFFF0000000000000000000000000000000000000000 AND PUSH20 0xFFFFFFFFFFFFFFFFFFFFFFFFFFFFFFFFFFFFFFFF SWAP3 SWAP1 SWAP3 AND SWAP2 SWAP1 SWAP2 OR SWAP1 SSTORE JUMP JUMPDEST PUSH2 0x421 PUSH2 0x747 JUMP JUMPDEST PUSH1 0x3 DUP1 SLOAD PUSH32 0xFFFFFFFFFFFFFFFFFFFFFFFF0000000000000000000000000000000000000000 AND PUSH20 0xFFFFFFFFFFFFFFFFFFFFFFFFFFFFFFFFFFFFFFFF SWAP3 SWAP1 SWAP3 AND SWAP2 SWAP1 SWAP2 OR SWAP1 SSTORE JUMP JUMPDEST PUSH1 0x4 SLOAD PUSH20 0xFFFFFFFFFFFFFFFFFFFFFFFFFFFFFFFFFFFFFFFF AND DUP2 JUMP JUMPDEST PUSH1 0x0 PUSH2 0x48E PUSH2 0x8F2 JUMP JUMPDEST PUSH1 0x0 DUP4 DUP2 MSTORE PUSH1 0x5 PUSH1 0x20 MSTORE PUSH1 0x40 SWAP1 KECCAK256 PUSH1 0x3 ADD SLOAD TIMESTAMP LT ISZERO PUSH2 0x4AF JUMPI POP PUSH1 0x0 PUSH2 0x376 JUMP JUMPDEST PUSH1 0x0 PUSH2 0x4BA DUP5 PUSH2 0x943 JUMP JUMPDEST SWAP1 POP PUSH2 0x4C5 DUP2 PUSH2 0x2BC JUMP JUMPDEST DUP4 GT ISZERO PUSH2 0x4D6 JUMPI PUSH1 0x0 SWAP2 POP POP PUSH2 0x376 JUMP JUMPDEST PUSH1 0x0 DUP5 DUP2 MSTORE PUSH1 0x5 PUSH1 0x20 SWAP1 DUP2 MSTORE PUSH1 0x40 SWAP2 DUP3 SWAP1 KECCAK256 TIMESTAMP PUSH1 0x2 SWAP1 SWAP2 ADD SSTORE PUSH1 0x1 SLOAD DUP3 MLOAD PUSH32 0x6340380100000000000000000000000000000000000000000000000000000000 DUP2 MSTORE SWAP3 MLOAD PUSH20 0xFFFFFFFFFFFFFFFFFFFFFFFFFFFFFFFFFFFFFFFF SWAP1 SWAP2 AND SWAP3 PUSH4 0x63403801 SWAP3 PUSH1 0x4 DUP1 DUP4 ADD SWAP4 SWAP2 SWAP3 DUP3 SWAP1 SUB ADD DUP2 DUP7 DUP1 EXTCODESIZE ISZERO DUP1 ISZERO PUSH2 0x554 JUMPI PUSH1 0x0 DUP1 REVERT JUMPDEST POP GAS STATICCALL ISZERO DUP1 ISZERO PUSH2 0x568 JUMPI RETURNDATASIZE PUSH1 0x0 DUP1 RETURNDATACOPY RETURNDATASIZE PUSH1 0x0 REVERT JUMPDEST POP POP POP POP PUSH1 0x40 MLOAD RETURNDATASIZE PUSH1 0x1F NOT PUSH1 0x1F DUP3 ADD AND DUP3 ADD DUP1 PUSH1 0x40 MSTORE POP DUP2 ADD SWAP1 PUSH2 0x58C SWAP2 SWAP1 PUSH2 0xB4E JUMP JUMPDEST PUSH1 0x0 DUP6 DUP2 MSTORE PUSH1 0x5 PUSH1 0x20 DUP2 SWAP1 MSTORE PUSH1 0x40 DUP3 KECCAK256 TIMESTAMP SWAP4 SWAP1 SWAP4 ADD PUSH1 0x3 SWAP1 SWAP4 ADD SWAP3 SWAP1 SWAP3 SSTORE PUSH1 0x2 DUP1 SLOAD PUSH1 0x1 ADD SWAP1 SSTORE SWAP1 PUSH1 0x64 SWAP1 DUP6 MUL PUSH1 0x0 SLOAD PUSH1 0x4 DUP1 SLOAD PUSH1 0x40 MLOAD PUSH32 0x79C6506800000000000000000000000000000000000000000000000000000000 DUP2 MSTORE SWAP5 SWAP1 SWAP4 DIV SWAP5 POP PUSH20 0xFFFFFFFFFFFFFFFFFFFFFFFFFFFFFFFFFFFFFFFF SWAP2 DUP3 AND SWAP4 DUP5 SWAP4 PUSH4 0x79C65068 SWAP4 PUSH2 0x61C SWAP4 SWAP2 AND SWAP2 DUP8 SWAP2 ADD PUSH2 0xB87 JUMP JUMPDEST PUSH1 0x0 PUSH1 0x40 MLOAD DUP1 DUP4 SUB DUP2 PUSH1 0x0 DUP8 DUP1 EXTCODESIZE ISZERO DUP1 ISZERO PUSH2 0x636 JUMPI PUSH1 0x0 DUP1 REVERT JUMPDEST POP GAS CALL ISZERO DUP1 ISZERO PUSH2 0x64A JUMPI RETURNDATASIZE PUSH1 0x0 DUP1 RETURNDATACOPY RETURNDATASIZE PUSH1 0x0 REVERT JUMPDEST POP POP PUSH1 0x1 SLOAD PUSH1 0x40 MLOAD PUSH32 0x79C6506800000000000000000000000000000000000000000000000000000000 DUP2 MSTORE PUSH20 0xFFFFFFFFFFFFFFFFFFFFFFFFFFFFFFFFFFFFFFFF DUP1 DUP7 AND SWAP5 POP PUSH4 0x79C65068 SWAP4 POP PUSH2 0x6A6 SWAP3 AND SWAP1 DUP10 SWAP1 PUSH1 0x4 ADD PUSH2 0xB87 JUMP JUMPDEST PUSH1 0x0 PUSH1 0x40 MLOAD DUP1 DUP4 SUB DUP2 PUSH1 0x0 DUP8 DUP1 EXTCODESIZE ISZERO DUP1 ISZERO PUSH2 0x6C0 JUMPI PUSH1 0x0 DUP1 REVERT JUMPDEST POP GAS CALL ISZERO DUP1 ISZERO PUSH2 0x6D4 JUMPI RETURNDATASIZE PUSH1 0x0 DUP1 RETURNDATACOPY RETURNDATASIZE PUSH1 0x0 REVERT JUMPDEST POP SWAP7 SWAP9 SWAP8 POP POP POP POP POP POP POP POP JUMP JUMPDEST PUSH1 0x0 SLOAD PUSH20 0xFFFFFFFFFFFFFFFFFFFFFFFFFFFFFFFFFFFFFFFF AND DUP2 JUMP JUMPDEST PUSH20 0xFFFFFFFFFFFFFFFFFFFFFFFFFFFFFFFFFFFFFFFF AND PUSH1 0x0 SWAP1 DUP2 MSTORE PUSH1 0x6 PUSH1 0x20 MSTORE PUSH1 0x40 SWAP1 KECCAK256 SLOAD SWAP1 JUMP JUMPDEST PUSH1 0x5 PUSH1 0x20 MSTORE PUSH1 0x0 SWAP1 DUP2 MSTORE PUSH1 0x40 SWAP1 KECCAK256 DUP1 SLOAD PUSH1 0x2 DUP3 ADD SLOAD PUSH1 0x3 SWAP1 SWAP3 ADD SLOAD SWAP1 SWAP2 SWAP1 DUP4 JUMP JUMPDEST PUSH1 0x4 SLOAD PUSH20 0xFFFFFFFFFFFFFFFFFFFFFFFFFFFFFFFFFFFFFFFF AND CALLER EQ PUSH2 0x7A1 JUMPI PUSH1 0x40 MLOAD PUSH32 0x8C379A000000000000000000000000000000000000000000000000000000000 DUP2 MSTORE PUSH1 0x4 ADD PUSH2 0x798 SWAP1 PUSH2 0xBF8 JUMP JUMPDEST PUSH1 0x40 MLOAD DUP1 SWAP2 SUB SWAP1 REVERT JUMPDEST JUMP JUMPDEST PUSH1 0x3 SLOAD PUSH1 0x40 MLOAD PUSH32 0xDCB7A3E000000000000000000000000000000000000000000000000000000000 DUP2 MSTORE PUSH20 0xFFFFFFFFFFFFFFFFFFFFFFFFFFFFFFFFFFFFFFFF SWAP1 SWAP2 AND SWAP1 PUSH4 0xDCB7A3E0 SWAP1 PUSH2 0x7F9 SWAP1 DUP5 SWAP1 PUSH1 0x4 ADD PUSH2 0xB66 JUMP JUMPDEST PUSH1 0x20 PUSH1 0x40 MLOAD DUP1 DUP4 SUB DUP2 DUP7 DUP1 EXTCODESIZE ISZERO DUP1 ISZERO PUSH2 0x811 JUMPI PUSH1 0x0 DUP1 REVERT JUMPDEST POP GAS STATICCALL ISZERO DUP1 ISZERO PUSH2 0x825 JUMPI RETURNDATASIZE PUSH1 0x0 DUP1 RETURNDATACOPY RETURNDATASIZE PUSH1 0x0 REVERT JUMPDEST POP POP POP POP PUSH1 0x40 MLOAD RETURNDATASIZE PUSH1 0x1F NOT PUSH1 0x1F DUP3 ADD AND DUP3 ADD DUP1 PUSH1 0x40 MSTORE POP DUP2 ADD SWAP1 PUSH2 0x849 SWAP2 SWAP1 PUSH2 0xA85 JUMP JUMPDEST PUSH2 0x87F JUMPI PUSH1 0x40 MLOAD PUSH32 0x8C379A000000000000000000000000000000000000000000000000000000000 DUP2 MSTORE PUSH1 0x4 ADD PUSH2 0x798 SWAP1 PUSH2 0xBC1 JUMP JUMPDEST POP JUMP JUMPDEST PUSH1 0x0 PUSH4 0x61B32520 TIMESTAMP DUP2 GT ISZERO PUSH2 0x89B JUMPI PUSH1 0x1 SWAP2 POP POP PUSH2 0x8B9 JUMP JUMPDEST DUP1 PUSH4 0x1DFE200 ADD TIMESTAMP LT ISZERO PUSH2 0x8B3 JUMPI PUSH1 0x2 SWAP2 POP POP PUSH2 0x8B9 JUMP JUMPDEST PUSH1 0x4 SWAP2 POP POP JUMPDEST SWAP1 JUMP JUMPDEST PUSH1 0x0 DUP1 DUP3 GT PUSH2 0x8C7 JUMPI INVALID JUMPDEST PUSH1 0x0 DUP3 DUP5 DUP2 PUSH2 0x8D2 JUMPI INVALID JUMPDEST DIV SWAP1 POP DUP3 DUP5 DUP2 PUSH2 0x8DE JUMPI INVALID JUMPDEST MOD DUP2 DUP5 MUL ADD DUP5 EQ PUSH2 0x8EB JUMPI INVALID JUMPDEST SWAP4 SWAP3 POP POP POP JUMP JUMPDEST PUSH1 0x1 SLOAD PUSH20 0xFFFFFFFFFFFFFFFFFFFFFFFFFFFFFFFFFFFFFFFF AND CALLER EQ PUSH2 0x7A1 JUMPI PUSH1 0x40 MLOAD PUSH32 0x8C379A000000000000000000000000000000000000000000000000000000000 DUP2 MSTORE PUSH1 0x4 ADD PUSH2 0x798 SWAP1 PUSH2 0xC2F JUMP JUMPDEST PUSH1 0x1 SLOAD PUSH1 0x40 MLOAD PUSH32 0x3E4AD73200000000000000000000000000000000000000000000000000000000 DUP2 MSTORE PUSH1 0x0 SWAP2 PUSH20 0xFFFFFFFFFFFFFFFFFFFFFFFFFFFFFFFFFFFFFFFF AND SWAP1 PUSH4 0x3E4AD732 SWAP1 PUSH2 0x99A SWAP1 DUP6 SWAP1 PUSH1 0x4 ADD PUSH2 0xBB8 JUMP JUMPDEST PUSH1 0x60 PUSH1 0x40 MLOAD DUP1 DUP4 SUB DUP2 DUP7 DUP1 EXTCODESIZE ISZERO DUP1 ISZERO PUSH2 0x9B2 JUMPI PUSH1 0x0 DUP1 REVERT JUMPDEST POP GAS STATICCALL ISZERO DUP1 ISZERO PUSH2 0x9C6 JUMPI RETURNDATASIZE PUSH1 0x0 DUP1 RETURNDATACOPY RETURNDATASIZE PUSH1 0x0 REVERT JUMPDEST POP POP POP POP PUSH1 0x40 MLOAD RETURNDATASIZE PUSH1 0x1F NOT PUSH1 0x1F DUP3 ADD AND DUP3 ADD DUP1 PUSH1 0x40 MSTORE POP DUP2 ADD SWAP1 PUSH2 0x9EA SWAP2 SWAP1 PUSH2 0xADE JUMP JUMPDEST PUSH1 0x20 ADD MLOAD PUSH12 0xFFFFFFFFFFFFFFFFFFFFFFFF AND SWAP3 SWAP2 POP POP JUMP JUMPDEST DUP1 CALLDATALOAD PUSH20 0xFFFFFFFFFFFFFFFFFFFFFFFFFFFFFFFFFFFFFFFF DUP2 AND DUP2 EQ PUSH2 0x2B7 JUMPI PUSH1 0x0 DUP1 REVERT JUMPDEST DUP1 MLOAD PUSH12 0xFFFFFFFFFFFFFFFFFFFFFFFF DUP2 AND DUP2 EQ PUSH2 0x2B7 JUMPI PUSH1 0x0 DUP1 REVERT JUMPDEST PUSH1 0x0 PUSH1 0x20 DUP3 DUP5 SUB SLT ISZERO PUSH2 0xA53 JUMPI DUP1 DUP2 REVERT JUMPDEST PUSH2 0x8EB DUP3 PUSH2 0xA02 JUMP JUMPDEST PUSH1 0x0 DUP1 PUSH1 0x40 DUP4 DUP6 SUB SLT ISZERO PUSH2 0xA6E JUMPI DUP1 DUP2 REVERT JUMPDEST PUSH2 0xA77 DUP4 PUSH2 0xA02 JUMP JUMPDEST SWAP5 PUSH1 0x20 SWAP4 SWAP1 SWAP4 ADD CALLDATALOAD SWAP4 POP POP POP JUMP JUMPDEST PUSH1 0x0 PUSH1 0x20 DUP3 DUP5 SUB SLT ISZERO PUSH2 0xA96 JUMPI DUP1 DUP2 REVERT JUMPDEST DUP2 MLOAD DUP1 ISZERO ISZERO DUP2 EQ PUSH2 0x8EB JUMPI DUP2 DUP3 REVERT JUMPDEST PUSH1 0x0 PUSH1 0x20 DUP3 DUP5 SUB SLT ISZERO PUSH2 0xAB6 JUMPI DUP1 DUP2 REVERT JUMPDEST POP CALLDATALOAD SWAP2 SWAP1 POP JUMP JUMPDEST PUSH1 0x0 DUP1 PUSH1 0x40 DUP4 DUP6 SUB SLT ISZERO PUSH2 0xACF JUMPI DUP2 DUP3 REVERT JUMPDEST POP POP DUP1 CALLDATALOAD SWAP3 PUSH1 0x20 SWAP1 SWAP2 ADD CALLDATALOAD SWAP2 POP JUMP JUMPDEST PUSH1 0x0 PUSH1 0x60 DUP3 DUP5 SUB SLT ISZERO PUSH2 0xAEF JUMPI DUP1 DUP2 REVERT JUMPDEST PUSH1 0x40 MLOAD PUSH1 0x60 DUP2 ADD PUSH8 0xFFFFFFFFFFFFFFFF DUP3 DUP3 LT DUP2 DUP4 GT OR ISZERO PUSH2 0xB0D JUMPI INVALID JUMPDEST DUP2 PUSH1 0x40 MSTORE DUP5 MLOAD SWAP2 POP DUP1 DUP3 AND DUP3 EQ PUSH2 0xB22 JUMPI DUP4 DUP5 REVERT JUMPDEST POP DUP2 MSTORE PUSH2 0xB31 PUSH1 0x20 DUP5 ADD PUSH2 0xA26 JUMP JUMPDEST PUSH1 0x20 DUP3 ADD MSTORE PUSH2 0xB42 PUSH1 0x40 DUP5 ADD PUSH2 0xA26 JUMP JUMPDEST PUSH1 0x40 DUP3 ADD MSTORE SWAP4 SWAP3 POP POP POP JUMP JUMPDEST PUSH1 0x0 PUSH1 0x20 DUP3 DUP5 SUB SLT ISZERO PUSH2 0xB5F JUMPI DUP1 DUP2 REVERT JUMPDEST POP MLOAD SWAP2 SWAP1 POP JUMP JUMPDEST PUSH20 0xFFFFFFFFFFFFFFFFFFFFFFFFFFFFFFFFFFFFFFFF SWAP2 SWAP1 SWAP2 AND DUP2 MSTORE PUSH1 0x20 ADD SWAP1 JUMP JUMPDEST PUSH20 0xFFFFFFFFFFFFFFFFFFFFFFFFFFFFFFFFFFFFFFFF SWAP3 SWAP1 SWAP3 AND DUP3 MSTORE PUSH1 0x20 DUP3 ADD MSTORE PUSH1 0x40 ADD SWAP1 JUMP JUMPDEST SWAP1 ISZERO ISZERO DUP2 MSTORE PUSH1 0x20 ADD SWAP1 JUMP JUMPDEST SWAP1 DUP2 MSTORE PUSH1 0x20 ADD SWAP1 JUMP JUMPDEST PUSH1 0x20 DUP1 DUP3 MSTORE PUSH1 0x1C SWAP1 DUP3 ADD MSTORE PUSH32 0x4E4F545F415050524F5645445F415554484F524954595F4552524F5200000000 PUSH1 0x40 DUP3 ADD MSTORE PUSH1 0x60 ADD SWAP1 JUMP JUMPDEST PUSH1 0x20 DUP1 DUP3 MSTORE PUSH1 0x1E SWAP1 DUP3 ADD MSTORE PUSH32 0x43414C4C45525F4E4F545F5249474F424C4F434B5F44414F5F4552524F520000 PUSH1 0x40 DUP3 ADD MSTORE PUSH1 0x60 ADD SWAP1 JUMP JUMPDEST PUSH1 0x20 DUP1 DUP3 MSTORE PUSH1 0x1E SWAP1 DUP3 ADD MSTORE PUSH32 0x43414C4C45525F4E4F545F5354414B494E475F50524F58595F4552524F520000 PUSH1 0x40 DUP3 ADD MSTORE PUSH1 0x60 ADD SWAP1 JUMP JUMPDEST SWAP3 DUP4 MSTORE PUSH1 0x20 DUP4 ADD SWAP2 SWAP1 SWAP2 MSTORE PUSH1 0x40 DUP3 ADD MSTORE PUSH1 0x60 ADD SWAP1 JUMP INVALID LOG2 PUSH5 0x6970667358 0x22 SLT KECCAK256 0xCC 0x49 0xEC LOG3 0xED 0xAD 0xAA JUMPDEST 0xE5 MSIZE EXTCODESIZE 0x28 0xAC 0xC1 0x4E 0x24 0x29 0xC DUP1 0xE1 CALLER PUSH22 0x214803102FB6F797F65164736F6C6343000704003300 "
			}
		}
	},
	"sourceTreeHashHex": "0x11a77a9ea7b0d30ba3cee6033bc471cfdea932d15b3de16f3ce99b5fc5da425b",
	"compiler": {
		"name": "solc",
		"version": "0.7.4+commit.3f05b770",
		"settings": {
			"remappings": [],
			"optimizer": {
				"enabled": true,
				"runs": 1000000
			},
			"outputSelection": {
				"*": {
					"*": [
						"abi",
						"devdoc",
						"evm.bytecode.object",
						"evm.bytecode.sourceMap",
						"evm.deployedBytecode.object",
						"evm.deployedBytecode.sourceMap"
					]
				}
			}
		}
	},
	"chains": {}
}