{
	"schemaVersion": "2.0.0",
	"contractName": "Inflation",
	"compilerOutput": {
		"abi": [
			{
				"inputs": [
					{
						"internalType": "address",
						"name": "_rigoTokenAddress",
						"type": "address"
					},
					{
						"internalType": "address",
						"name": "_stakingProxyAddress",
						"type": "address"
					}
				],
				"stateMutability": "nonpayable",
				"type": "constructor"
			},
			{
				"inputs": [],
				"name": "RIGO_TOKEN_ADDRESS",
				"outputs": [
					{
						"internalType": "address",
						"name": "",
						"type": "address"
					}
				],
				"stateMutability": "view",
				"type": "function"
			},
			{
				"inputs": [],
				"name": "STAKING_PROXY_ADDRESS",
				"outputs": [
					{
						"internalType": "address",
						"name": "",
						"type": "address"
					}
				],
				"stateMutability": "view",
				"type": "function"
			},
			{
				"inputs": [],
				"name": "epochEnded",
				"outputs": [
					{
						"internalType": "bool",
						"name": "",
						"type": "bool"
					}
				],
				"stateMutability": "view",
				"type": "function"
			},
			{
				"inputs": [],
				"name": "epochLength",
				"outputs": [
					{
						"internalType": "uint256",
						"name": "",
						"type": "uint256"
					}
				],
				"stateMutability": "view",
				"type": "function"
			},
			{
				"inputs": [],
				"name": "getEpochInflation",
				"outputs": [
					{
						"internalType": "uint256",
						"name": "",
						"type": "uint256"
					}
				],
				"stateMutability": "view",
				"type": "function"
			},
			{
				"inputs": [],
				"name": "mintInflation",
				"outputs": [
					{
						"internalType": "uint256",
						"name": "mintedInflation",
						"type": "uint256"
					}
				],
				"stateMutability": "nonpayable",
				"type": "function"
			},
			{
				"inputs": [],
				"name": "slot",
				"outputs": [
					{
						"internalType": "uint256",
						"name": "",
						"type": "uint256"
					}
				],
				"stateMutability": "view",
				"type": "function"
			},
			{
				"inputs": [],
				"name": "timeUntilNextClaim",
				"outputs": [
					{
						"internalType": "uint256",
						"name": "",
						"type": "uint256"
					}
				],
				"stateMutability": "view",
				"type": "function"
			}
		],
		"devdoc": {
			"author": "Gabriele Rigo - <gab@rigoblock.com>",
			"kind": "dev",
			"methods": {
				"epochEnded()": {
					"details": "Returns whether an epoch has ended.",
					"returns": {
						"_0": "Bool the epoch has ended."
					}
				},
				"getEpochInflation()": {
					"details": "Returns the epoch inflation.",
					"returns": {
						"_0": "Value of units of GRG minted in an epoch."
					}
				},
				"mintInflation()": {
					"details": "Allows staking proxy to mint rewards.",
					"returns": {
						"mintedInflation": "Number of allocated tokens."
					}
				},
				"timeUntilNextClaim()": {
					"details": "Returns how long until next claim.",
					"returns": {
						"_0": "Number in seconds."
					}
				}
			},
			"title": "Inflation - Allows ProofOfPerformance to mint tokens.",
			"version": 1
		},
		"evm": {
			"bytecode": {
				"linkReferences": {},
				"object": "0x610100604052613d0960e61b60c052614e2060e0526212750060015534801561002757600080fd5b5060405161089838038061089883398101604081905261004691610080565b6001600160601b0319606092831b8116608052911b1660a0526100b2565b80516001600160a01b038116811461007b57600080fd5b919050565b60008060408385031215610092578182fd5b61009b83610064565b91506100a960208401610064565b90509250929050565b60805160601c60a05160601c60c05160e01c60e051610790610108600039806104705250806104975250806101b2528061033e52806103a352806104e452508060ff528061031152806103cf52506107906000f3fe608060405234801561001057600080fd5b50600436106100885760003560e01c80636dd739441161005b5780636dd73944146100dd578063c551a2f9146100e5578063c9b185cc146100ed578063e9a0bae7146100f557610088565b80630846a5411461008d578063175db3c4146100ab5780631a88bc66146100c057806357d775f8146100d5575b600080fd5b6100956100fd565b6040516100a29190610634565b60405180910390f35b6100b3610121565b6040516100a2919061067b565b6100c861013b565b6040516100a29190610751565b6100c8610141565b6100c8610147565b6100c861015f565b6100956103a1565b6100c86103c5565b7f000000000000000000000000000000000000000000000000000000000000000081565b6000600254421061013457506001610138565b5060005b90565b60005481565b60015481565b60006002544210156101345742600254039050610138565b60006101696104cc565b6002544210156101ae576040517f08c379a00000000000000000000000000000000000000000000000000000000081526004016101a590610686565b60405180910390fd5b60007f000000000000000000000000000000000000000000000000000000000000000073ffffffffffffffffffffffffffffffffffffffff16635e615a6b6040518163ffffffff1660e01b815260040160a06040518083038186803b15801561021657600080fd5b505afa15801561022a573d6000803e3d6000fd5b505050506040513d601f19601f8201168201806040525081019061024e91906105de565b50505050905080600154146102ad576206978081108061027057506276a70081115b156102a7576040517f08c379a00000000000000000000000000000000000000000000000000000000081526004016101a5906106f4565b60018190555b60006102b76103c5565b905060015442016002819055506102d1600054600161053d565b6000556040517f79c6506800000000000000000000000000000000000000000000000000000000815273ffffffffffffffffffffffffffffffffffffffff7f000000000000000000000000000000000000000000000000000000000000000016906379c6506890610368907f0000000000000000000000000000000000000000000000000000000000000000908590600401610655565b600060405180830381600087803b15801561038257600080fd5b505af1158015610396573d6000803e3d6000fd5b509294505050505090565b7f000000000000000000000000000000000000000000000000000000000000000081565b60006104c76104957f000000000000000000000000000000000000000000000000000000000000000073ffffffffffffffffffffffffffffffffffffffff166318160ddd6040518163ffffffff1660e01b815260040160206040518083038186803b15801561043357600080fd5b505afa158015610447573d6000803e3d6000fd5b505050506040513d601f19601f8201168201806040525081019061046b91906105c6565b6001547f00000000000000000000000000000000000000000000000000000000000000000261055f565b7f00000000000000000000000000000000000000000000000000000000000000006301e133800263ffffffff1661057e565b905090565b3373ffffffffffffffffffffffffffffffffffffffff7f0000000000000000000000000000000000000000000000000000000000000000161461053b576040517f08c379a00000000000000000000000000000000000000000000000000000000081526004016101a5906106bd565b565b60008282018381108015906105525750828110155b61055857fe5b9392505050565b600082820283158061055257508284828161057657fe5b041461055857fe5b600080821161058957fe5b600082848161059457fe5b0490508284816105a057fe5b0681840201841461055857fe5b805163ffffffff811681146105c157600080fd5b919050565b6000602082840312156105d7578081fd5b5051919050565b600080600080600060a086880312156105f5578081fd5b85519450610605602087016105ad565b93506040860151925061061a606087016105ad565b9150610628608087016105ad565b90509295509295909350565b73ffffffffffffffffffffffffffffffffffffffff91909116815260200190565b73ffffffffffffffffffffffffffffffffffffffff929092168252602082015260400190565b901515815260200190565b60208082526015908201527f4e4f545f454e4f5547485f54494d455f4552524f520000000000000000000000604082015260600190565b6020808252601e908201527f43414c4c45525f4e4f545f5354414b494e475f50524f58595f4552524f520000604082015260600190565b60208082526029908201527f5354414b494e475f45504f43485f54494d455f414e4f4d414c595f444554454360408201527f5445445f4552524f520000000000000000000000000000000000000000000000606082015260800190565b9081526020019056fea2646970667358221220025cec8c01326d99d31577bf8bc375151f492c0494126831e67bdbf8ce9a930d64736f6c63430007040033",
				"opcodes": "PUSH2 0x100 PUSH1 0x40 MSTORE PUSH2 0x3D09 PUSH1 0xE6 SHL PUSH1 0xC0 MSTORE PUSH2 0x4E20 PUSH1 0xE0 MSTORE PUSH3 0x127500 PUSH1 0x1 SSTORE CALLVALUE DUP1 ISZERO PUSH2 0x27 JUMPI PUSH1 0x0 DUP1 REVERT JUMPDEST POP PUSH1 0x40 MLOAD PUSH2 0x898 CODESIZE SUB DUP1 PUSH2 0x898 DUP4 CODECOPY DUP2 ADD PUSH1 0x40 DUP2 SWAP1 MSTORE PUSH2 0x46 SWAP2 PUSH2 0x80 JUMP JUMPDEST PUSH1 0x1 PUSH1 0x1 PUSH1 0x60 SHL SUB NOT PUSH1 0x60 SWAP3 DUP4 SHL DUP2 AND PUSH1 0x80 MSTORE SWAP2 SHL AND PUSH1 0xA0 MSTORE PUSH2 0xB2 JUMP JUMPDEST DUP1 MLOAD PUSH1 0x1 PUSH1 0x1 PUSH1 0xA0 SHL SUB DUP2 AND DUP2 EQ PUSH2 0x7B JUMPI PUSH1 0x0 DUP1 REVERT JUMPDEST SWAP2 SWAP1 POP JUMP JUMPDEST PUSH1 0x0 DUP1 PUSH1 0x40 DUP4 DUP6 SUB SLT ISZERO PUSH2 0x92 JUMPI DUP2 DUP3 REVERT JUMPDEST PUSH2 0x9B DUP4 PUSH2 0x64 JUMP JUMPDEST SWAP2 POP PUSH2 0xA9 PUSH1 0x20 DUP5 ADD PUSH2 0x64 JUMP JUMPDEST SWAP1 POP SWAP3 POP SWAP3 SWAP1 POP JUMP JUMPDEST PUSH1 0x80 MLOAD PUSH1 0x60 SHR PUSH1 0xA0 MLOAD PUSH1 0x60 SHR PUSH1 0xC0 MLOAD PUSH1 0xE0 SHR PUSH1 0xE0 MLOAD PUSH2 0x790 PUSH2 0x108 PUSH1 0x0 CODECOPY DUP1 PUSH2 0x470 MSTORE POP DUP1 PUSH2 0x497 MSTORE POP DUP1 PUSH2 0x1B2 MSTORE DUP1 PUSH2 0x33E MSTORE DUP1 PUSH2 0x3A3 MSTORE DUP1 PUSH2 0x4E4 MSTORE POP DUP1 PUSH1 0xFF MSTORE DUP1 PUSH2 0x311 MSTORE DUP1 PUSH2 0x3CF MSTORE POP PUSH2 0x790 PUSH1 0x0 RETURN INVALID PUSH1 0x80 PUSH1 0x40 MSTORE CALLVALUE DUP1 ISZERO PUSH2 0x10 JUMPI PUSH1 0x0 DUP1 REVERT JUMPDEST POP PUSH1 0x4 CALLDATASIZE LT PUSH2 0x88 JUMPI PUSH1 0x0 CALLDATALOAD PUSH1 0xE0 SHR DUP1 PUSH4 0x6DD73944 GT PUSH2 0x5B JUMPI DUP1 PUSH4 0x6DD73944 EQ PUSH2 0xDD JUMPI DUP1 PUSH4 0xC551A2F9 EQ PUSH2 0xE5 JUMPI DUP1 PUSH4 0xC9B185CC EQ PUSH2 0xED JUMPI DUP1 PUSH4 0xE9A0BAE7 EQ PUSH2 0xF5 JUMPI PUSH2 0x88 JUMP JUMPDEST DUP1 PUSH4 0x846A541 EQ PUSH2 0x8D JUMPI DUP1 PUSH4 0x175DB3C4 EQ PUSH2 0xAB JUMPI DUP1 PUSH4 0x1A88BC66 EQ PUSH2 0xC0 JUMPI DUP1 PUSH4 0x57D775F8 EQ PUSH2 0xD5 JUMPI JUMPDEST PUSH1 0x0 DUP1 REVERT JUMPDEST PUSH2 0x95 PUSH2 0xFD JUMP JUMPDEST PUSH1 0x40 MLOAD PUSH2 0xA2 SWAP2 SWAP1 PUSH2 0x634 JUMP JUMPDEST PUSH1 0x40 MLOAD DUP1 SWAP2 SUB SWAP1 RETURN JUMPDEST PUSH2 0xB3 PUSH2 0x121 JUMP JUMPDEST PUSH1 0x40 MLOAD PUSH2 0xA2 SWAP2 SWAP1 PUSH2 0x67B JUMP JUMPDEST PUSH2 0xC8 PUSH2 0x13B JUMP JUMPDEST PUSH1 0x40 MLOAD PUSH2 0xA2 SWAP2 SWAP1 PUSH2 0x751 JUMP JUMPDEST PUSH2 0xC8 PUSH2 0x141 JUMP JUMPDEST PUSH2 0xC8 PUSH2 0x147 JUMP JUMPDEST PUSH2 0xC8 PUSH2 0x15F JUMP JUMPDEST PUSH2 0x95 PUSH2 0x3A1 JUMP JUMPDEST PUSH2 0xC8 PUSH2 0x3C5 JUMP JUMPDEST PUSH32 0x0 DUP2 JUMP JUMPDEST PUSH1 0x0 PUSH1 0x2 SLOAD TIMESTAMP LT PUSH2 0x134 JUMPI POP PUSH1 0x1 PUSH2 0x138 JUMP JUMPDEST POP PUSH1 0x0 JUMPDEST SWAP1 JUMP JUMPDEST PUSH1 0x0 SLOAD DUP2 JUMP JUMPDEST PUSH1 0x1 SLOAD DUP2 JUMP JUMPDEST PUSH1 0x0 PUSH1 0x2 SLOAD TIMESTAMP LT ISZERO PUSH2 0x134 JUMPI TIMESTAMP PUSH1 0x2 SLOAD SUB SWAP1 POP PUSH2 0x138 JUMP JUMPDEST PUSH1 0x0 PUSH2 0x169 PUSH2 0x4CC JUMP JUMPDEST PUSH1 0x2 SLOAD TIMESTAMP LT ISZERO PUSH2 0x1AE JUMPI PUSH1 0x40 MLOAD PUSH32 0x8C379A000000000000000000000000000000000000000000000000000000000 DUP2 MSTORE PUSH1 0x4 ADD PUSH2 0x1A5 SWAP1 PUSH2 0x686 JUMP JUMPDEST PUSH1 0x40 MLOAD DUP1 SWAP2 SUB SWAP1 REVERT JUMPDEST PUSH1 0x0 PUSH32 0x0 PUSH20 0xFFFFFFFFFFFFFFFFFFFFFFFFFFFFFFFFFFFFFFFF AND PUSH4 0x5E615A6B PUSH1 0x40 MLOAD DUP2 PUSH4 0xFFFFFFFF AND PUSH1 0xE0 SHL DUP2 MSTORE PUSH1 0x4 ADD PUSH1 0xA0 PUSH1 0x40 MLOAD DUP1 DUP4 SUB DUP2 DUP7 DUP1 EXTCODESIZE ISZERO DUP1 ISZERO PUSH2 0x216 JUMPI PUSH1 0x0 DUP1 REVERT JUMPDEST POP GAS STATICCALL ISZERO DUP1 ISZERO PUSH2 0x22A JUMPI RETURNDATASIZE PUSH1 0x0 DUP1 RETURNDATACOPY RETURNDATASIZE PUSH1 0x0 REVERT JUMPDEST POP POP POP POP PUSH1 0x40 MLOAD RETURNDATASIZE PUSH1 0x1F NOT PUSH1 0x1F DUP3 ADD AND DUP3 ADD DUP1 PUSH1 0x40 MSTORE POP DUP2 ADD SWAP1 PUSH2 0x24E SWAP2 SWAP1 PUSH2 0x5DE JUMP JUMPDEST POP POP POP POP SWAP1 POP DUP1 PUSH1 0x1 SLOAD EQ PUSH2 0x2AD JUMPI PUSH3 0x69780 DUP2 LT DUP1 PUSH2 0x270 JUMPI POP PUSH3 0x76A700 DUP2 GT JUMPDEST ISZERO PUSH2 0x2A7 JUMPI PUSH1 0x40 MLOAD PUSH32 0x8C379A000000000000000000000000000000000000000000000000000000000 DUP2 MSTORE PUSH1 0x4 ADD PUSH2 0x1A5 SWAP1 PUSH2 0x6F4 JUMP JUMPDEST PUSH1 0x1 DUP2 SWAP1 SSTORE JUMPDEST PUSH1 0x0 PUSH2 0x2B7 PUSH2 0x3C5 JUMP JUMPDEST SWAP1 POP PUSH1 0x1 SLOAD TIMESTAMP ADD PUSH1 0x2 DUP2 SWAP1 SSTORE POP PUSH2 0x2D1 PUSH1 0x0 SLOAD PUSH1 0x1 PUSH2 0x53D JUMP JUMPDEST PUSH1 0x0 SSTORE PUSH1 0x40 MLOAD PUSH32 0x79C6506800000000000000000000000000000000000000000000000000000000 DUP2 MSTORE PUSH20 0xFFFFFFFFFFFFFFFFFFFFFFFFFFFFFFFFFFFFFFFF PUSH32 0x0 AND SWAP1 PUSH4 0x79C65068 SWAP1 PUSH2 0x368 SWAP1 PUSH32 0x0 SWAP1 DUP6 SWAP1 PUSH1 0x4 ADD PUSH2 0x655 JUMP JUMPDEST PUSH1 0x0 PUSH1 0x40 MLOAD DUP1 DUP4 SUB DUP2 PUSH1 0x0 DUP8 DUP1 EXTCODESIZE ISZERO DUP1 ISZERO PUSH2 0x382 JUMPI PUSH1 0x0 DUP1 REVERT JUMPDEST POP GAS CALL ISZERO DUP1 ISZERO PUSH2 0x396 JUMPI RETURNDATASIZE PUSH1 0x0 DUP1 RETURNDATACOPY RETURNDATASIZE PUSH1 0x0 REVERT JUMPDEST POP SWAP3 SWAP5 POP POP POP POP POP SWAP1 JUMP JUMPDEST PUSH32 0x0 DUP2 JUMP JUMPDEST PUSH1 0x0 PUSH2 0x4C7 PUSH2 0x495 PUSH32 0x0 PUSH20 0xFFFFFFFFFFFFFFFFFFFFFFFFFFFFFFFFFFFFFFFF AND PUSH4 0x18160DDD PUSH1 0x40 MLOAD DUP2 PUSH4 0xFFFFFFFF AND PUSH1 0xE0 SHL DUP2 MSTORE PUSH1 0x4 ADD PUSH1 0x20 PUSH1 0x40 MLOAD DUP1 DUP4 SUB DUP2 DUP7 DUP1 EXTCODESIZE ISZERO DUP1 ISZERO PUSH2 0x433 JUMPI PUSH1 0x0 DUP1 REVERT JUMPDEST POP GAS STATICCALL ISZERO DUP1 ISZERO PUSH2 0x447 JUMPI RETURNDATASIZE PUSH1 0x0 DUP1 RETURNDATACOPY RETURNDATASIZE PUSH1 0x0 REVERT JUMPDEST POP POP POP POP PUSH1 0x40 MLOAD RETURNDATASIZE PUSH1 0x1F NOT PUSH1 0x1F DUP3 ADD AND DUP3 ADD DUP1 PUSH1 0x40 MSTORE POP DUP2 ADD SWAP1 PUSH2 0x46B SWAP2 SWAP1 PUSH2 0x5C6 JUMP JUMPDEST PUSH1 0x1 SLOAD PUSH32 0x0 MUL PUSH2 0x55F JUMP JUMPDEST PUSH32 0x0 PUSH4 0x1E13380 MUL PUSH4 0xFFFFFFFF AND PUSH2 0x57E JUMP JUMPDEST SWAP1 POP SWAP1 JUMP JUMPDEST CALLER PUSH20 0xFFFFFFFFFFFFFFFFFFFFFFFFFFFFFFFFFFFFFFFF PUSH32 0x0 AND EQ PUSH2 0x53B JUMPI PUSH1 0x40 MLOAD PUSH32 0x8C379A000000000000000000000000000000000000000000000000000000000 DUP2 MSTORE PUSH1 0x4 ADD PUSH2 0x1A5 SWAP1 PUSH2 0x6BD JUMP JUMPDEST JUMP JUMPDEST PUSH1 0x0 DUP3 DUP3 ADD DUP4 DUP2 LT DUP1 ISZERO SWAP1 PUSH2 0x552 JUMPI POP DUP3 DUP2 LT ISZERO JUMPDEST PUSH2 0x558 JUMPI INVALID JUMPDEST SWAP4 SWAP3 POP POP POP JUMP JUMPDEST PUSH1 0x0 DUP3 DUP3 MUL DUP4 ISZERO DUP1 PUSH2 0x552 JUMPI POP DUP3 DUP5 DUP3 DUP2 PUSH2 0x576 JUMPI INVALID JUMPDEST DIV EQ PUSH2 0x558 JUMPI INVALID JUMPDEST PUSH1 0x0 DUP1 DUP3 GT PUSH2 0x589 JUMPI INVALID JUMPDEST PUSH1 0x0 DUP3 DUP5 DUP2 PUSH2 0x594 JUMPI INVALID JUMPDEST DIV SWAP1 POP DUP3 DUP5 DUP2 PUSH2 0x5A0 JUMPI INVALID JUMPDEST MOD DUP2 DUP5 MUL ADD DUP5 EQ PUSH2 0x558 JUMPI INVALID JUMPDEST DUP1 MLOAD PUSH4 0xFFFFFFFF DUP2 AND DUP2 EQ PUSH2 0x5C1 JUMPI PUSH1 0x0 DUP1 REVERT JUMPDEST SWAP2 SWAP1 POP JUMP JUMPDEST PUSH1 0x0 PUSH1 0x20 DUP3 DUP5 SUB SLT ISZERO PUSH2 0x5D7 JUMPI DUP1 DUP2 REVERT JUMPDEST POP MLOAD SWAP2 SWAP1 POP JUMP JUMPDEST PUSH1 0x0 DUP1 PUSH1 0x0 DUP1 PUSH1 0x0 PUSH1 0xA0 DUP7 DUP9 SUB SLT ISZERO PUSH2 0x5F5 JUMPI DUP1 DUP2 REVERT JUMPDEST DUP6 MLOAD SWAP5 POP PUSH2 0x605 PUSH1 0x20 DUP8 ADD PUSH2 0x5AD JUMP JUMPDEST SWAP4 POP PUSH1 0x40 DUP7 ADD MLOAD SWAP3 POP PUSH2 0x61A PUSH1 0x60 DUP8 ADD PUSH2 0x5AD JUMP JUMPDEST SWAP2 POP PUSH2 0x628 PUSH1 0x80 DUP8 ADD PUSH2 0x5AD JUMP JUMPDEST SWAP1 POP SWAP3 SWAP6 POP SWAP3 SWAP6 SWAP1 SWAP4 POP JUMP JUMPDEST PUSH20 0xFFFFFFFFFFFFFFFFFFFFFFFFFFFFFFFFFFFFFFFF SWAP2 SWAP1 SWAP2 AND DUP2 MSTORE PUSH1 0x20 ADD SWAP1 JUMP JUMPDEST PUSH20 0xFFFFFFFFFFFFFFFFFFFFFFFFFFFFFFFFFFFFFFFF SWAP3 SWAP1 SWAP3 AND DUP3 MSTORE PUSH1 0x20 DUP3 ADD MSTORE PUSH1 0x40 ADD SWAP1 JUMP JUMPDEST SWAP1 ISZERO ISZERO DUP2 MSTORE PUSH1 0x20 ADD SWAP1 JUMP JUMPDEST PUSH1 0x20 DUP1 DUP3 MSTORE PUSH1 0x15 SWAP1 DUP3 ADD MSTORE PUSH32 0x4E4F545F454E4F5547485F54494D455F4552524F520000000000000000000000 PUSH1 0x40 DUP3 ADD MSTORE PUSH1 0x60 ADD SWAP1 JUMP JUMPDEST PUSH1 0x20 DUP1 DUP3 MSTORE PUSH1 0x1E SWAP1 DUP3 ADD MSTORE PUSH32 0x43414C4C45525F4E4F545F5354414B494E475F50524F58595F4552524F520000 PUSH1 0x40 DUP3 ADD MSTORE PUSH1 0x60 ADD SWAP1 JUMP JUMPDEST PUSH1 0x20 DUP1 DUP3 MSTORE PUSH1 0x29 SWAP1 DUP3 ADD MSTORE PUSH32 0x5354414B494E475F45504F43485F54494D455F414E4F4D414C595F4445544543 PUSH1 0x40 DUP3 ADD MSTORE PUSH32 0x5445445F4552524F520000000000000000000000000000000000000000000000 PUSH1 0x60 DUP3 ADD MSTORE PUSH1 0x80 ADD SWAP1 JUMP JUMPDEST SWAP1 DUP2 MSTORE PUSH1 0x20 ADD SWAP1 JUMP INVALID LOG2 PUSH5 0x6970667358 0x22 SLT KECCAK256 MUL 0x5C 0xEC DUP13 ADD ORIGIN PUSH14 0x99D31577BF8BC375151F492C0494 SLT PUSH9 0x31E67BDBF8CE9A930D PUSH5 0x736F6C6343 STOP SMOD DIV STOP CALLER "
			}
		}
	},
	"sourceTreeHashHex": "0xa73e92620d4242acc93fd9558c28ed0def2034905236e272e17c8a9b082b3a4e",
	"compiler": {
		"name": "solc",
		"version": "0.7.4+commit.3f05b770",
		"settings": {
			"remappings": [],
			"optimizer": {
				"enabled": true,
				"runs": 1000000
			},
			"outputSelection": {
				"*": {
					"*": [
						"abi",
						"devdoc",
						"evm.bytecode.object",
						"evm.bytecode.sourceMap",
						"evm.deployedBytecode.object",
						"evm.deployedBytecode.sourceMap"
					]
				}
			}
		}
	},
	"chains": {}
}