{
	"schemaVersion": "2.0.0",
	"contractName": "Inflation",
	"compilerOutput": {
		"abi": [
			{
				"inputs": [
					{
						"internalType": "address",
						"name": "_rigoTokenAddress",
						"type": "address"
					},
					{
						"internalType": "address",
						"name": "_stakingProxyAddress",
						"type": "address"
					},
					{
						"internalType": "address",
						"name": "_authorityAddress",
						"type": "address"
					}
				],
				"stateMutability": "nonpayable",
				"type": "constructor"
			},
			{
				"inputs": [],
				"name": "RIGOTOKENADDRESS",
				"outputs": [
					{
						"internalType": "address",
						"name": "",
						"type": "address"
					}
				],
				"stateMutability": "view",
				"type": "function"
			},
			{
				"inputs": [],
				"name": "STAKINGPROXYADDRESS",
				"outputs": [
					{
						"internalType": "address",
						"name": "",
						"type": "address"
					}
				],
				"stateMutability": "view",
				"type": "function"
			},
			{
				"inputs": [],
				"name": "authorityAddress",
				"outputs": [
					{
						"internalType": "address",
						"name": "",
						"type": "address"
					}
				],
				"stateMutability": "view",
				"type": "function"
			},
			{
				"inputs": [
					{
						"internalType": "bytes32",
						"name": "stakingPoolId",
						"type": "bytes32"
					}
				],
				"name": "canWithdraw",
				"outputs": [
					{
						"internalType": "bool",
						"name": "",
						"type": "bool"
					}
				],
				"stateMutability": "view",
				"type": "function"
			},
			{
				"inputs": [
					{
						"internalType": "address",
						"name": "groupAddress",
						"type": "address"
					}
				],
				"name": "getInflationFactor",
				"outputs": [
					{
						"internalType": "uint256",
						"name": "",
						"type": "uint256"
					}
				],
				"stateMutability": "view",
				"type": "function"
			},
			{
				"inputs": [
					{
						"internalType": "uint256",
						"name": "totalGrgDelegatedToPool",
						"type": "uint256"
					}
				],
				"name": "getMaxEpochReward",
				"outputs": [
					{
						"internalType": "uint256",
						"name": "",
						"type": "uint256"
					}
				],
				"stateMutability": "view",
				"type": "function"
			},
			{
				"inputs": [
					{
						"internalType": "address",
						"name": "",
						"type": "address"
					}
				],
				"name": "groups",
				"outputs": [
					{
						"internalType": "uint256",
						"name": "epochReward",
						"type": "uint256"
					}
				],
				"stateMutability": "view",
				"type": "function"
			},
			{
				"inputs": [
					{
						"internalType": "bytes32",
						"name": "stakingPoolId",
						"type": "bytes32"
					},
					{
						"internalType": "uint256",
						"name": "reward",
						"type": "uint256"
					}
				],
				"name": "mintInflation",
				"outputs": [
					{
						"internalType": "uint256",
						"name": "",
						"type": "uint256"
					}
				],
				"stateMutability": "nonpayable",
				"type": "function"
			},
			{
				"inputs": [
					{
						"internalType": "bytes32",
						"name": "",
						"type": "bytes32"
					}
				],
				"name": "performers",
				"outputs": [
					{
						"internalType": "uint256",
						"name": "claimedTokens",
						"type": "uint256"
					},
					{
						"internalType": "uint256",
						"name": "startTime",
						"type": "uint256"
					},
					{
						"internalType": "uint256",
						"name": "endTime",
						"type": "uint256"
					}
				],
				"stateMutability": "view",
				"type": "function"
			},
			{
				"inputs": [],
				"name": "rigoblockDaoAddress",
				"outputs": [
					{
						"internalType": "address",
						"name": "",
						"type": "address"
					}
				],
				"stateMutability": "view",
				"type": "function"
			},
			{
				"inputs": [
					{
						"internalType": "address",
						"name": "newAuthorityAddress",
						"type": "address"
					}
				],
				"name": "setAuthority",
				"outputs": [],
				"stateMutability": "nonpayable",
				"type": "function"
			},
			{
				"inputs": [
					{
						"internalType": "address",
						"name": "groupAddress",
						"type": "address"
					},
					{
						"internalType": "uint256",
						"name": "inflationFactor",
						"type": "uint256"
					}
				],
				"name": "setInflationFactor",
				"outputs": [],
				"stateMutability": "nonpayable",
				"type": "function"
			},
			{
				"inputs": [
					{
						"internalType": "address",
						"name": "newRigoblockDaoAddress",
						"type": "address"
					}
				],
				"name": "setRigoblock",
				"outputs": [],
				"stateMutability": "nonpayable",
				"type": "function"
			},
			{
				"inputs": [],
				"name": "slot",
				"outputs": [
					{
						"internalType": "uint256",
						"name": "",
						"type": "uint256"
					}
				],
				"stateMutability": "view",
				"type": "function"
			},
			{
				"inputs": [
					{
						"internalType": "bytes32",
						"name": "stakingPoolId",
						"type": "bytes32"
					}
				],
				"name": "timeUntilClaim",
				"outputs": [
					{
						"internalType": "uint256",
						"name": "",
						"type": "uint256"
					}
				],
				"stateMutability": "view",
				"type": "function"
			}
		],
		"devdoc": {
			"author": "Gabriele Rigo - <gab@rigoblock.com>",
			"kind": "dev",
			"methods": {
				"canWithdraw(bytes32)": {
					"details": "Returns whether a staking pool's reward can be claimed.",
					"params": {
						"stakingPoolId": "Address of the target pool."
					},
					"returns": {
						"_0": "Bool the wizard can claim."
					}
				},
				"getInflationFactor(address)": {
					"details": "Return the reward factor for a group.",
					"params": {
						"groupAddress": "Address of the group."
					},
					"returns": {
						"_0": "Value of the reward factor."
					}
				},
				"getMaxEpochReward(uint256)": {
					"details": "Returns the max epoch reward of a pool.",
					"params": {
						"totalGrgDelegatedToPool": "Total amount of GRG delegated to the pool."
					},
					"returns": {
						"_0": "Value of the maximum pool reward."
					}
				},
				"mintInflation(bytes32,uint256)": {
					"details": "Allows ProofOfPerformance to mint rewards.",
					"params": {
						"reward": "Number of reward in Rigo tokens.",
						"stakingPoolId": "String of the staking pool."
					},
					"returns": {
						"_0": "Number of allocated reward."
					}
				},
				"setAuthority(address)": {
					"details": "Allows rigoblock dao to update the authority.",
					"params": {
						"newAuthorityAddress": "Address of the authority."
					}
				},
				"setInflationFactor(address,uint256)": {
					"details": "Allows rigoblock dao to set the inflation factor for a group.",
					"params": {
						"groupAddress": "Address of the group/factory.",
						"inflationFactor": "Value of the reward factor."
					}
				},
				"setRigoblock(address)": {
					"details": "Allows rigoblock dao to upgrade its address.",
					"params": {
						"newRigoblockDaoAddress": "Address of the new rigoblock dao."
					}
				},
				"timeUntilClaim(bytes32)": {
					"details": "Returns how much time needed until next claim.",
					"params": {
						"stakingPoolId": "Address of the target pool."
					},
					"returns": {
						"_0": "Number in seconds."
					}
				}
			},
			"title": "Inflation - Allows ProofOfPerformance to mint tokens.",
			"version": 1
		},
		"evm": {
			"bytecode": {
				"linkReferences": {},
				"object": "0x608060405234801561001057600080fd5b50604051610deb380380610deb83398101604081905261002f91610097565b600080546001600160a01b039485166001600160a01b031991821617909155600180549385169382169390931790925560048054831633179055600380549190931691161790556100d9565b80516001600160a01b038116811461009257600080fd5b919050565b6000806000606084860312156100ab578283fd5b6100b48461007b565b92506100c26020850161007b565b91506100d06040850161007b565b90509250925092565b610d03806100e86000396000f3fe608060405234801561001057600080fd5b50600436106100f55760003560e01c80636fb70c76116100975780637fa36e40116100665780637fa36e40146101d1578063a6c9c443146101e4578063d410e0c2146101ec578063d736d1eb146101ff576100f5565b80636fb70c76146101835780637802815c146101a35780637a9e5e4b146101b65780637f8be859146101c9576100f5565b806342a86d65116100d357806342a86d651461014257806357a15c031461015557806363d5e44d14610168578063663b64f71461017b576100f5565b8063020e0cdb146100fa5780631a88bc661461010f5780633c695d4e1461012d575b600080fd5b61010d610108366004610a6f565b610221565b005b61011761025d565b6040516101249190610c09565b60405180910390f35b610135610263565b6040516101249190610bb7565b610117610150366004610ab8565b61027f565b610117610163366004610ab8565b6102bc565b610117610176366004610a55565b610385565b610135610397565b610196610191366004610ab8565b6103b3565b6040516101249190610bfe565b61010d6101b1366004610a55565b6103d3565b61010d6101c4366004610a55565b610422565b610135610471565b6101176101df366004610ad0565b61048d565b6101356106e8565b6101176101fa366004610a55565b610704565b61021261020d366004610ab8565b61072c565b60405161012493929190610cb7565b61022961074d565b81610233816107a9565b5073ffffffffffffffffffffffffffffffffffffffff909116600090815260066020526040902055565b60025481565b60035473ffffffffffffffffffffffffffffffffffffffff1681565b6000818152600560205260408120600301544210156102b357506000818152600560205260409020600301544290036102b7565b5060005b919050565b600080600160009054906101000a900473ffffffffffffffffffffffffffffffffffffffff1673ffffffffffffffffffffffffffffffffffffffff16635e615a6b6040518163ffffffff1660e01b815260040160a06040518083038186803b15801561032757600080fd5b505afa15801561033b573d6000803e3d6000fd5b505050506040513d601f19601f8201168201806040525081019061035f9190610b61565b50505050905061037e818402610373610888565b6301e13380026108c2565b9392505050565b60066020526000908152604090205481565b60015473ffffffffffffffffffffffffffffffffffffffff1681565b60008181526005602052604081206003015442106102b3575060016102b7565b6103db61074d565b600480547fffffffffffffffffffffffff00000000000000000000000000000000000000001673ffffffffffffffffffffffffffffffffffffffff92909216919091179055565b61042a61074d565b600380547fffffffffffffffffffffffff00000000000000000000000000000000000000001673ffffffffffffffffffffffffffffffffffffffff92909216919091179055565b60045473ffffffffffffffffffffffffffffffffffffffff1681565b60006104976108f1565b6000838152600560205260409020600301544210156104b8575060006106e2565b60006104c384610942565b90506104ce816102bc565b8311156104df5760009150506106e2565b600154604080517f5e615a6b000000000000000000000000000000000000000000000000000000008152905160009273ffffffffffffffffffffffffffffffffffffffff1691635e615a6b9160048083019260a0929190829003018186803b15801561054a57600080fd5b505afa15801561055e573d6000803e3d6000fd5b505050506040513d601f19601f820116820180604052508101906105829190610b61565b505050600087815260056020819052604082204260028083018290559086016003909201919091558054600101905592935091606491508602600054600480546040517f79c6506800000000000000000000000000000000000000000000000000000000815294909304945073ffffffffffffffffffffffffffffffffffffffff9182169384936379c650689361061e93911691879101610bd8565b600060405180830381600087803b15801561063857600080fd5b505af115801561064c573d6000803e3d6000fd5b50506001546040517f79c6506800000000000000000000000000000000000000000000000000000000815273ffffffffffffffffffffffffffffffffffffffff80861694506379c6506893506106a89216908a90600401610bd8565b600060405180830381600087803b1580156106c257600080fd5b505af11580156106d6573d6000803e3d6000fd5b50505050859450505050505b92915050565b60005473ffffffffffffffffffffffffffffffffffffffff1681565b73ffffffffffffffffffffffffffffffffffffffff1660009081526006602052604090205490565b60056020526000908152604090208054600282015460039092015490919083565b60045473ffffffffffffffffffffffffffffffffffffffff1633146107a7576040517f08c379a000000000000000000000000000000000000000000000000000000000815260040161079e90610c49565b60405180910390fd5b565b6003546040517fdcb7a3e000000000000000000000000000000000000000000000000000000000815273ffffffffffffffffffffffffffffffffffffffff9091169063dcb7a3e0906107ff908490600401610bb7565b60206040518083038186803b15801561081757600080fd5b505afa15801561082b573d6000803e3d6000fd5b505050506040513d601f19601f8201168201806040525081019061084f9190610a98565b610885576040517f08c379a000000000000000000000000000000000000000000000000000000000815260040161079e90610c12565b50565b60006361b32520428111156108a15760019150506108bf565b806301dfe200014210156108b95760029150506108bf565b60049150505b90565b60008082116108cd57fe5b60008284816108d857fe5b0490508284816108e457fe5b0681840201841461037e57fe5b60015473ffffffffffffffffffffffffffffffffffffffff1633146107a7576040517f08c379a000000000000000000000000000000000000000000000000000000000815260040161079e90610c80565b6001546040517f3e4ad73200000000000000000000000000000000000000000000000000000000815260009173ffffffffffffffffffffffffffffffffffffffff1690633e4ad73290610999908590600401610c09565b60606040518083038186803b1580156109b157600080fd5b505afa1580156109c5573d6000803e3d6000fd5b505050506040513d601f19601f820116820180604052508101906109e99190610af1565b602001516bffffffffffffffffffffffff1692915050565b803573ffffffffffffffffffffffffffffffffffffffff811681146102b757600080fd5b805163ffffffff811681146102b757600080fd5b80516bffffffffffffffffffffffff811681146102b757600080fd5b600060208284031215610a66578081fd5b61037e82610a01565b60008060408385031215610a81578081fd5b610a8a83610a01565b946020939093013593505050565b600060208284031215610aa9578081fd5b8151801515811461037e578182fd5b600060208284031215610ac9578081fd5b5035919050565b60008060408385031215610ae2578182fd5b50508035926020909101359150565b600060608284031215610b02578081fd5b6040516060810167ffffffffffffffff8282108183111715610b2057fe5b81604052845191508082168214610b35578384fd5b508152610b4460208401610a39565b6020820152610b5560408401610a39565b60408201529392505050565b600080600080600060a08688031215610b78578081fd5b85519450610b8860208701610a25565b935060408601519250610b9d60608701610a25565b9150610bab60808701610a25565b90509295509295909350565b73ffffffffffffffffffffffffffffffffffffffff91909116815260200190565b73ffffffffffffffffffffffffffffffffffffffff929092168252602082015260400190565b901515815260200190565b90815260200190565b6020808252601c908201527f4e4f545f415050524f5645445f415554484f524954595f4552524f5200000000604082015260600190565b6020808252601e908201527f43414c4c45525f4e4f545f5249474f424c4f434b5f44414f5f4552524f520000604082015260600190565b6020808252601e908201527f43414c4c45525f4e4f545f5354414b494e475f50524f58595f4552524f520000604082015260600190565b928352602083019190915260408201526060019056fea2646970667358221220641bdd9e960eaa3875611d87f4223eb4f9cb1ba864efce107557057c011fa39c64736f6c63430007040033",
				"opcodes": "PUSH1 0x80 PUSH1 0x40 MSTORE CALLVALUE DUP1 ISZERO PUSH2 0x10 JUMPI PUSH1 0x0 DUP1 REVERT JUMPDEST POP PUSH1 0x40 MLOAD PUSH2 0xDEB CODESIZE SUB DUP1 PUSH2 0xDEB DUP4 CODECOPY DUP2 ADD PUSH1 0x40 DUP2 SWAP1 MSTORE PUSH2 0x2F SWAP2 PUSH2 0x97 JUMP JUMPDEST PUSH1 0x0 DUP1 SLOAD PUSH1 0x1 PUSH1 0x1 PUSH1 0xA0 SHL SUB SWAP5 DUP6 AND PUSH1 0x1 PUSH1 0x1 PUSH1 0xA0 SHL SUB NOT SWAP2 DUP3 AND OR SWAP1 SWAP2 SSTORE PUSH1 0x1 DUP1 SLOAD SWAP4 DUP6 AND SWAP4 DUP3 AND SWAP4 SWAP1 SWAP4 OR SWAP1 SWAP3 SSTORE PUSH1 0x4 DUP1 SLOAD DUP4 AND CALLER OR SWAP1 SSTORE PUSH1 0x3 DUP1 SLOAD SWAP2 SWAP1 SWAP4 AND SWAP2 AND OR SWAP1 SSTORE PUSH2 0xD9 JUMP JUMPDEST DUP1 MLOAD PUSH1 0x1 PUSH1 0x1 PUSH1 0xA0 SHL SUB DUP2 AND DUP2 EQ PUSH2 0x92 JUMPI PUSH1 0x0 DUP1 REVERT JUMPDEST SWAP2 SWAP1 POP JUMP JUMPDEST PUSH1 0x0 DUP1 PUSH1 0x0 PUSH1 0x60 DUP5 DUP7 SUB SLT ISZERO PUSH2 0xAB JUMPI DUP3 DUP4 REVERT JUMPDEST PUSH2 0xB4 DUP5 PUSH2 0x7B JUMP JUMPDEST SWAP3 POP PUSH2 0xC2 PUSH1 0x20 DUP6 ADD PUSH2 0x7B JUMP JUMPDEST SWAP2 POP PUSH2 0xD0 PUSH1 0x40 DUP6 ADD PUSH2 0x7B JUMP JUMPDEST SWAP1 POP SWAP3 POP SWAP3 POP SWAP3 JUMP JUMPDEST PUSH2 0xD03 DUP1 PUSH2 0xE8 PUSH1 0x0 CODECOPY PUSH1 0x0 RETURN INVALID PUSH1 0x80 PUSH1 0x40 MSTORE CALLVALUE DUP1 ISZERO PUSH2 0x10 JUMPI PUSH1 0x0 DUP1 REVERT JUMPDEST POP PUSH1 0x4 CALLDATASIZE LT PUSH2 0xF5 JUMPI PUSH1 0x0 CALLDATALOAD PUSH1 0xE0 SHR DUP1 PUSH4 0x6FB70C76 GT PUSH2 0x97 JUMPI DUP1 PUSH4 0x7FA36E40 GT PUSH2 0x66 JUMPI DUP1 PUSH4 0x7FA36E40 EQ PUSH2 0x1D1 JUMPI DUP1 PUSH4 0xA6C9C443 EQ PUSH2 0x1E4 JUMPI DUP1 PUSH4 0xD410E0C2 EQ PUSH2 0x1EC JUMPI DUP1 PUSH4 0xD736D1EB EQ PUSH2 0x1FF JUMPI PUSH2 0xF5 JUMP JUMPDEST DUP1 PUSH4 0x6FB70C76 EQ PUSH2 0x183 JUMPI DUP1 PUSH4 0x7802815C EQ PUSH2 0x1A3 JUMPI DUP1 PUSH4 0x7A9E5E4B EQ PUSH2 0x1B6 JUMPI DUP1 PUSH4 0x7F8BE859 EQ PUSH2 0x1C9 JUMPI PUSH2 0xF5 JUMP JUMPDEST DUP1 PUSH4 0x42A86D65 GT PUSH2 0xD3 JUMPI DUP1 PUSH4 0x42A86D65 EQ PUSH2 0x142 JUMPI DUP1 PUSH4 0x57A15C03 EQ PUSH2 0x155 JUMPI DUP1 PUSH4 0x63D5E44D EQ PUSH2 0x168 JUMPI DUP1 PUSH4 0x663B64F7 EQ PUSH2 0x17B JUMPI PUSH2 0xF5 JUMP JUMPDEST DUP1 PUSH4 0x20E0CDB EQ PUSH2 0xFA JUMPI DUP1 PUSH4 0x1A88BC66 EQ PUSH2 0x10F JUMPI DUP1 PUSH4 0x3C695D4E EQ PUSH2 0x12D JUMPI JUMPDEST PUSH1 0x0 DUP1 REVERT JUMPDEST PUSH2 0x10D PUSH2 0x108 CALLDATASIZE PUSH1 0x4 PUSH2 0xA6F JUMP JUMPDEST PUSH2 0x221 JUMP JUMPDEST STOP JUMPDEST PUSH2 0x117 PUSH2 0x25D JUMP JUMPDEST PUSH1 0x40 MLOAD PUSH2 0x124 SWAP2 SWAP1 PUSH2 0xC09 JUMP JUMPDEST PUSH1 0x40 MLOAD DUP1 SWAP2 SUB SWAP1 RETURN JUMPDEST PUSH2 0x135 PUSH2 0x263 JUMP JUMPDEST PUSH1 0x40 MLOAD PUSH2 0x124 SWAP2 SWAP1 PUSH2 0xBB7 JUMP JUMPDEST PUSH2 0x117 PUSH2 0x150 CALLDATASIZE PUSH1 0x4 PUSH2 0xAB8 JUMP JUMPDEST PUSH2 0x27F JUMP JUMPDEST PUSH2 0x117 PUSH2 0x163 CALLDATASIZE PUSH1 0x4 PUSH2 0xAB8 JUMP JUMPDEST PUSH2 0x2BC JUMP JUMPDEST PUSH2 0x117 PUSH2 0x176 CALLDATASIZE PUSH1 0x4 PUSH2 0xA55 JUMP JUMPDEST PUSH2 0x385 JUMP JUMPDEST PUSH2 0x135 PUSH2 0x397 JUMP JUMPDEST PUSH2 0x196 PUSH2 0x191 CALLDATASIZE PUSH1 0x4 PUSH2 0xAB8 JUMP JUMPDEST PUSH2 0x3B3 JUMP JUMPDEST PUSH1 0x40 MLOAD PUSH2 0x124 SWAP2 SWAP1 PUSH2 0xBFE JUMP JUMPDEST PUSH2 0x10D PUSH2 0x1B1 CALLDATASIZE PUSH1 0x4 PUSH2 0xA55 JUMP JUMPDEST PUSH2 0x3D3 JUMP JUMPDEST PUSH2 0x10D PUSH2 0x1C4 CALLDATASIZE PUSH1 0x4 PUSH2 0xA55 JUMP JUMPDEST PUSH2 0x422 JUMP JUMPDEST PUSH2 0x135 PUSH2 0x471 JUMP JUMPDEST PUSH2 0x117 PUSH2 0x1DF CALLDATASIZE PUSH1 0x4 PUSH2 0xAD0 JUMP JUMPDEST PUSH2 0x48D JUMP JUMPDEST PUSH2 0x135 PUSH2 0x6E8 JUMP JUMPDEST PUSH2 0x117 PUSH2 0x1FA CALLDATASIZE PUSH1 0x4 PUSH2 0xA55 JUMP JUMPDEST PUSH2 0x704 JUMP JUMPDEST PUSH2 0x212 PUSH2 0x20D CALLDATASIZE PUSH1 0x4 PUSH2 0xAB8 JUMP JUMPDEST PUSH2 0x72C JUMP JUMPDEST PUSH1 0x40 MLOAD PUSH2 0x124 SWAP4 SWAP3 SWAP2 SWAP1 PUSH2 0xCB7 JUMP JUMPDEST PUSH2 0x229 PUSH2 0x74D JUMP JUMPDEST DUP2 PUSH2 0x233 DUP2 PUSH2 0x7A9 JUMP JUMPDEST POP PUSH20 0xFFFFFFFFFFFFFFFFFFFFFFFFFFFFFFFFFFFFFFFF SWAP1 SWAP2 AND PUSH1 0x0 SWAP1 DUP2 MSTORE PUSH1 0x6 PUSH1 0x20 MSTORE PUSH1 0x40 SWAP1 KECCAK256 SSTORE JUMP JUMPDEST PUSH1 0x2 SLOAD DUP2 JUMP JUMPDEST PUSH1 0x3 SLOAD PUSH20 0xFFFFFFFFFFFFFFFFFFFFFFFFFFFFFFFFFFFFFFFF AND DUP2 JUMP JUMPDEST PUSH1 0x0 DUP2 DUP2 MSTORE PUSH1 0x5 PUSH1 0x20 MSTORE PUSH1 0x40 DUP2 KECCAK256 PUSH1 0x3 ADD SLOAD TIMESTAMP LT ISZERO PUSH2 0x2B3 JUMPI POP PUSH1 0x0 DUP2 DUP2 MSTORE PUSH1 0x5 PUSH1 0x20 MSTORE PUSH1 0x40 SWAP1 KECCAK256 PUSH1 0x3 ADD SLOAD TIMESTAMP SWAP1 SUB PUSH2 0x2B7 JUMP JUMPDEST POP PUSH1 0x0 JUMPDEST SWAP2 SWAP1 POP JUMP JUMPDEST PUSH1 0x0 DUP1 PUSH1 0x1 PUSH1 0x0 SWAP1 SLOAD SWAP1 PUSH2 0x100 EXP SWAP1 DIV PUSH20 0xFFFFFFFFFFFFFFFFFFFFFFFFFFFFFFFFFFFFFFFF AND PUSH20 0xFFFFFFFFFFFFFFFFFFFFFFFFFFFFFFFFFFFFFFFF AND PUSH4 0x5E615A6B PUSH1 0x40 MLOAD DUP2 PUSH4 0xFFFFFFFF AND PUSH1 0xE0 SHL DUP2 MSTORE PUSH1 0x4 ADD PUSH1 0xA0 PUSH1 0x40 MLOAD DUP1 DUP4 SUB DUP2 DUP7 DUP1 EXTCODESIZE ISZERO DUP1 ISZERO PUSH2 0x327 JUMPI PUSH1 0x0 DUP1 REVERT JUMPDEST POP GAS STATICCALL ISZERO DUP1 ISZERO PUSH2 0x33B JUMPI RETURNDATASIZE PUSH1 0x0 DUP1 RETURNDATACOPY RETURNDATASIZE PUSH1 0x0 REVERT JUMPDEST POP POP POP POP PUSH1 0x40 MLOAD RETURNDATASIZE PUSH1 0x1F NOT PUSH1 0x1F DUP3 ADD AND DUP3 ADD DUP1 PUSH1 0x40 MSTORE POP DUP2 ADD SWAP1 PUSH2 0x35F SWAP2 SWAP1 PUSH2 0xB61 JUMP JUMPDEST POP POP POP POP SWAP1 POP PUSH2 0x37E DUP2 DUP5 MUL PUSH2 0x373 PUSH2 0x888 JUMP JUMPDEST PUSH4 0x1E13380 MUL PUSH2 0x8C2 JUMP JUMPDEST SWAP4 SWAP3 POP POP POP JUMP JUMPDEST PUSH1 0x6 PUSH1 0x20 MSTORE PUSH1 0x0 SWAP1 DUP2 MSTORE PUSH1 0x40 SWAP1 KECCAK256 SLOAD DUP2 JUMP JUMPDEST PUSH1 0x1 SLOAD PUSH20 0xFFFFFFFFFFFFFFFFFFFFFFFFFFFFFFFFFFFFFFFF AND DUP2 JUMP JUMPDEST PUSH1 0x0 DUP2 DUP2 MSTORE PUSH1 0x5 PUSH1 0x20 MSTORE PUSH1 0x40 DUP2 KECCAK256 PUSH1 0x3 ADD SLOAD TIMESTAMP LT PUSH2 0x2B3 JUMPI POP PUSH1 0x1 PUSH2 0x2B7 JUMP JUMPDEST PUSH2 0x3DB PUSH2 0x74D JUMP JUMPDEST PUSH1 0x4 DUP1 SLOAD PUSH32 0xFFFFFFFFFFFFFFFFFFFFFFFF0000000000000000000000000000000000000000 AND PUSH20 0xFFFFFFFFFFFFFFFFFFFFFFFFFFFFFFFFFFFFFFFF SWAP3 SWAP1 SWAP3 AND SWAP2 SWAP1 SWAP2 OR SWAP1 SSTORE JUMP JUMPDEST PUSH2 0x42A PUSH2 0x74D JUMP JUMPDEST PUSH1 0x3 DUP1 SLOAD PUSH32 0xFFFFFFFFFFFFFFFFFFFFFFFF0000000000000000000000000000000000000000 AND PUSH20 0xFFFFFFFFFFFFFFFFFFFFFFFFFFFFFFFFFFFFFFFF SWAP3 SWAP1 SWAP3 AND SWAP2 SWAP1 SWAP2 OR SWAP1 SSTORE JUMP JUMPDEST PUSH1 0x4 SLOAD PUSH20 0xFFFFFFFFFFFFFFFFFFFFFFFFFFFFFFFFFFFFFFFF AND DUP2 JUMP JUMPDEST PUSH1 0x0 PUSH2 0x497 PUSH2 0x8F1 JUMP JUMPDEST PUSH1 0x0 DUP4 DUP2 MSTORE PUSH1 0x5 PUSH1 0x20 MSTORE PUSH1 0x40 SWAP1 KECCAK256 PUSH1 0x3 ADD SLOAD TIMESTAMP LT ISZERO PUSH2 0x4B8 JUMPI POP PUSH1 0x0 PUSH2 0x6E2 JUMP JUMPDEST PUSH1 0x0 PUSH2 0x4C3 DUP5 PUSH2 0x942 JUMP JUMPDEST SWAP1 POP PUSH2 0x4CE DUP2 PUSH2 0x2BC JUMP JUMPDEST DUP4 GT ISZERO PUSH2 0x4DF JUMPI PUSH1 0x0 SWAP2 POP POP PUSH2 0x6E2 JUMP JUMPDEST PUSH1 0x1 SLOAD PUSH1 0x40 DUP1 MLOAD PUSH32 0x5E615A6B00000000000000000000000000000000000000000000000000000000 DUP2 MSTORE SWAP1 MLOAD PUSH1 0x0 SWAP3 PUSH20 0xFFFFFFFFFFFFFFFFFFFFFFFFFFFFFFFFFFFFFFFF AND SWAP2 PUSH4 0x5E615A6B SWAP2 PUSH1 0x4 DUP1 DUP4 ADD SWAP3 PUSH1 0xA0 SWAP3 SWAP2 SWAP1 DUP3 SWAP1 SUB ADD DUP2 DUP7 DUP1 EXTCODESIZE ISZERO DUP1 ISZERO PUSH2 0x54A JUMPI PUSH1 0x0 DUP1 REVERT JUMPDEST POP GAS STATICCALL ISZERO DUP1 ISZERO PUSH2 0x55E JUMPI RETURNDATASIZE PUSH1 0x0 DUP1 RETURNDATACOPY RETURNDATASIZE PUSH1 0x0 REVERT JUMPDEST POP POP POP POP PUSH1 0x40 MLOAD RETURNDATASIZE PUSH1 0x1F NOT PUSH1 0x1F DUP3 ADD AND DUP3 ADD DUP1 PUSH1 0x40 MSTORE POP DUP2 ADD SWAP1 PUSH2 0x582 SWAP2 SWAP1 PUSH2 0xB61 JUMP JUMPDEST POP POP POP PUSH1 0x0 DUP8 DUP2 MSTORE PUSH1 0x5 PUSH1 0x20 DUP2 SWAP1 MSTORE PUSH1 0x40 DUP3 KECCAK256 TIMESTAMP PUSH1 0x2 DUP1 DUP4 ADD DUP3 SWAP1 SSTORE SWAP1 DUP7 ADD PUSH1 0x3 SWAP1 SWAP3 ADD SWAP2 SWAP1 SWAP2 SSTORE DUP1 SLOAD PUSH1 0x1 ADD SWAP1 SSTORE SWAP3 SWAP4 POP SWAP2 PUSH1 0x64 SWAP2 POP DUP7 MUL PUSH1 0x0 SLOAD PUSH1 0x4 DUP1 SLOAD PUSH1 0x40 MLOAD PUSH32 0x79C6506800000000000000000000000000000000000000000000000000000000 DUP2 MSTORE SWAP5 SWAP1 SWAP4 DIV SWAP5 POP PUSH20 0xFFFFFFFFFFFFFFFFFFFFFFFFFFFFFFFFFFFFFFFF SWAP2 DUP3 AND SWAP4 DUP5 SWAP4 PUSH4 0x79C65068 SWAP4 PUSH2 0x61E SWAP4 SWAP2 AND SWAP2 DUP8 SWAP2 ADD PUSH2 0xBD8 JUMP JUMPDEST PUSH1 0x0 PUSH1 0x40 MLOAD DUP1 DUP4 SUB DUP2 PUSH1 0x0 DUP8 DUP1 EXTCODESIZE ISZERO DUP1 ISZERO PUSH2 0x638 JUMPI PUSH1 0x0 DUP1 REVERT JUMPDEST POP GAS CALL ISZERO DUP1 ISZERO PUSH2 0x64C JUMPI RETURNDATASIZE PUSH1 0x0 DUP1 RETURNDATACOPY RETURNDATASIZE PUSH1 0x0 REVERT JUMPDEST POP POP PUSH1 0x1 SLOAD PUSH1 0x40 MLOAD PUSH32 0x79C6506800000000000000000000000000000000000000000000000000000000 DUP2 MSTORE PUSH20 0xFFFFFFFFFFFFFFFFFFFFFFFFFFFFFFFFFFFFFFFF DUP1 DUP7 AND SWAP5 POP PUSH4 0x79C65068 SWAP4 POP PUSH2 0x6A8 SWAP3 AND SWAP1 DUP11 SWAP1 PUSH1 0x4 ADD PUSH2 0xBD8 JUMP JUMPDEST PUSH1 0x0 PUSH1 0x40 MLOAD DUP1 DUP4 SUB DUP2 PUSH1 0x0 DUP8 DUP1 EXTCODESIZE ISZERO DUP1 ISZERO PUSH2 0x6C2 JUMPI PUSH1 0x0 DUP1 REVERT JUMPDEST POP GAS CALL ISZERO DUP1 ISZERO PUSH2 0x6D6 JUMPI RETURNDATASIZE PUSH1 0x0 DUP1 RETURNDATACOPY RETURNDATASIZE PUSH1 0x0 REVERT JUMPDEST POP POP POP POP DUP6 SWAP5 POP POP POP POP POP JUMPDEST SWAP3 SWAP2 POP POP JUMP JUMPDEST PUSH1 0x0 SLOAD PUSH20 0xFFFFFFFFFFFFFFFFFFFFFFFFFFFFFFFFFFFFFFFF AND DUP2 JUMP JUMPDEST PUSH20 0xFFFFFFFFFFFFFFFFFFFFFFFFFFFFFFFFFFFFFFFF AND PUSH1 0x0 SWAP1 DUP2 MSTORE PUSH1 0x6 PUSH1 0x20 MSTORE PUSH1 0x40 SWAP1 KECCAK256 SLOAD SWAP1 JUMP JUMPDEST PUSH1 0x5 PUSH1 0x20 MSTORE PUSH1 0x0 SWAP1 DUP2 MSTORE PUSH1 0x40 SWAP1 KECCAK256 DUP1 SLOAD PUSH1 0x2 DUP3 ADD SLOAD PUSH1 0x3 SWAP1 SWAP3 ADD SLOAD SWAP1 SWAP2 SWAP1 DUP4 JUMP JUMPDEST PUSH1 0x4 SLOAD PUSH20 0xFFFFFFFFFFFFFFFFFFFFFFFFFFFFFFFFFFFFFFFF AND CALLER EQ PUSH2 0x7A7 JUMPI PUSH1 0x40 MLOAD PUSH32 0x8C379A000000000000000000000000000000000000000000000000000000000 DUP2 MSTORE PUSH1 0x4 ADD PUSH2 0x79E SWAP1 PUSH2 0xC49 JUMP JUMPDEST PUSH1 0x40 MLOAD DUP1 SWAP2 SUB SWAP1 REVERT JUMPDEST JUMP JUMPDEST PUSH1 0x3 SLOAD PUSH1 0x40 MLOAD PUSH32 0xDCB7A3E000000000000000000000000000000000000000000000000000000000 DUP2 MSTORE PUSH20 0xFFFFFFFFFFFFFFFFFFFFFFFFFFFFFFFFFFFFFFFF SWAP1 SWAP2 AND SWAP1 PUSH4 0xDCB7A3E0 SWAP1 PUSH2 0x7FF SWAP1 DUP5 SWAP1 PUSH1 0x4 ADD PUSH2 0xBB7 JUMP JUMPDEST PUSH1 0x20 PUSH1 0x40 MLOAD DUP1 DUP4 SUB DUP2 DUP7 DUP1 EXTCODESIZE ISZERO DUP1 ISZERO PUSH2 0x817 JUMPI PUSH1 0x0 DUP1 REVERT JUMPDEST POP GAS STATICCALL ISZERO DUP1 ISZERO PUSH2 0x82B JUMPI RETURNDATASIZE PUSH1 0x0 DUP1 RETURNDATACOPY RETURNDATASIZE PUSH1 0x0 REVERT JUMPDEST POP POP POP POP PUSH1 0x40 MLOAD RETURNDATASIZE PUSH1 0x1F NOT PUSH1 0x1F DUP3 ADD AND DUP3 ADD DUP1 PUSH1 0x40 MSTORE POP DUP2 ADD SWAP1 PUSH2 0x84F SWAP2 SWAP1 PUSH2 0xA98 JUMP JUMPDEST PUSH2 0x885 JUMPI PUSH1 0x40 MLOAD PUSH32 0x8C379A000000000000000000000000000000000000000000000000000000000 DUP2 MSTORE PUSH1 0x4 ADD PUSH2 0x79E SWAP1 PUSH2 0xC12 JUMP JUMPDEST POP JUMP JUMPDEST PUSH1 0x0 PUSH4 0x61B32520 TIMESTAMP DUP2 GT ISZERO PUSH2 0x8A1 JUMPI PUSH1 0x1 SWAP2 POP POP PUSH2 0x8BF JUMP JUMPDEST DUP1 PUSH4 0x1DFE200 ADD TIMESTAMP LT ISZERO PUSH2 0x8B9 JUMPI PUSH1 0x2 SWAP2 POP POP PUSH2 0x8BF JUMP JUMPDEST PUSH1 0x4 SWAP2 POP POP JUMPDEST SWAP1 JUMP JUMPDEST PUSH1 0x0 DUP1 DUP3 GT PUSH2 0x8CD JUMPI INVALID JUMPDEST PUSH1 0x0 DUP3 DUP5 DUP2 PUSH2 0x8D8 JUMPI INVALID JUMPDEST DIV SWAP1 POP DUP3 DUP5 DUP2 PUSH2 0x8E4 JUMPI INVALID JUMPDEST MOD DUP2 DUP5 MUL ADD DUP5 EQ PUSH2 0x37E JUMPI INVALID JUMPDEST PUSH1 0x1 SLOAD PUSH20 0xFFFFFFFFFFFFFFFFFFFFFFFFFFFFFFFFFFFFFFFF AND CALLER EQ PUSH2 0x7A7 JUMPI PUSH1 0x40 MLOAD PUSH32 0x8C379A000000000000000000000000000000000000000000000000000000000 DUP2 MSTORE PUSH1 0x4 ADD PUSH2 0x79E SWAP1 PUSH2 0xC80 JUMP JUMPDEST PUSH1 0x1 SLOAD PUSH1 0x40 MLOAD PUSH32 0x3E4AD73200000000000000000000000000000000000000000000000000000000 DUP2 MSTORE PUSH1 0x0 SWAP2 PUSH20 0xFFFFFFFFFFFFFFFFFFFFFFFFFFFFFFFFFFFFFFFF AND SWAP1 PUSH4 0x3E4AD732 SWAP1 PUSH2 0x999 SWAP1 DUP6 SWAP1 PUSH1 0x4 ADD PUSH2 0xC09 JUMP JUMPDEST PUSH1 0x60 PUSH1 0x40 MLOAD DUP1 DUP4 SUB DUP2 DUP7 DUP1 EXTCODESIZE ISZERO DUP1 ISZERO PUSH2 0x9B1 JUMPI PUSH1 0x0 DUP1 REVERT JUMPDEST POP GAS STATICCALL ISZERO DUP1 ISZERO PUSH2 0x9C5 JUMPI RETURNDATASIZE PUSH1 0x0 DUP1 RETURNDATACOPY RETURNDATASIZE PUSH1 0x0 REVERT JUMPDEST POP POP POP POP PUSH1 0x40 MLOAD RETURNDATASIZE PUSH1 0x1F NOT PUSH1 0x1F DUP3 ADD AND DUP3 ADD DUP1 PUSH1 0x40 MSTORE POP DUP2 ADD SWAP1 PUSH2 0x9E9 SWAP2 SWAP1 PUSH2 0xAF1 JUMP JUMPDEST PUSH1 0x20 ADD MLOAD PUSH12 0xFFFFFFFFFFFFFFFFFFFFFFFF AND SWAP3 SWAP2 POP POP JUMP JUMPDEST DUP1 CALLDATALOAD PUSH20 0xFFFFFFFFFFFFFFFFFFFFFFFFFFFFFFFFFFFFFFFF DUP2 AND DUP2 EQ PUSH2 0x2B7 JUMPI PUSH1 0x0 DUP1 REVERT JUMPDEST DUP1 MLOAD PUSH4 0xFFFFFFFF DUP2 AND DUP2 EQ PUSH2 0x2B7 JUMPI PUSH1 0x0 DUP1 REVERT JUMPDEST DUP1 MLOAD PUSH12 0xFFFFFFFFFFFFFFFFFFFFFFFF DUP2 AND DUP2 EQ PUSH2 0x2B7 JUMPI PUSH1 0x0 DUP1 REVERT JUMPDEST PUSH1 0x0 PUSH1 0x20 DUP3 DUP5 SUB SLT ISZERO PUSH2 0xA66 JUMPI DUP1 DUP2 REVERT JUMPDEST PUSH2 0x37E DUP3 PUSH2 0xA01 JUMP JUMPDEST PUSH1 0x0 DUP1 PUSH1 0x40 DUP4 DUP6 SUB SLT ISZERO PUSH2 0xA81 JUMPI DUP1 DUP2 REVERT JUMPDEST PUSH2 0xA8A DUP4 PUSH2 0xA01 JUMP JUMPDEST SWAP5 PUSH1 0x20 SWAP4 SWAP1 SWAP4 ADD CALLDATALOAD SWAP4 POP POP POP JUMP JUMPDEST PUSH1 0x0 PUSH1 0x20 DUP3 DUP5 SUB SLT ISZERO PUSH2 0xAA9 JUMPI DUP1 DUP2 REVERT JUMPDEST DUP2 MLOAD DUP1 ISZERO ISZERO DUP2 EQ PUSH2 0x37E JUMPI DUP2 DUP3 REVERT JUMPDEST PUSH1 0x0 PUSH1 0x20 DUP3 DUP5 SUB SLT ISZERO PUSH2 0xAC9 JUMPI DUP1 DUP2 REVERT JUMPDEST POP CALLDATALOAD SWAP2 SWAP1 POP JUMP JUMPDEST PUSH1 0x0 DUP1 PUSH1 0x40 DUP4 DUP6 SUB SLT ISZERO PUSH2 0xAE2 JUMPI DUP2 DUP3 REVERT JUMPDEST POP POP DUP1 CALLDATALOAD SWAP3 PUSH1 0x20 SWAP1 SWAP2 ADD CALLDATALOAD SWAP2 POP JUMP JUMPDEST PUSH1 0x0 PUSH1 0x60 DUP3 DUP5 SUB SLT ISZERO PUSH2 0xB02 JUMPI DUP1 DUP2 REVERT JUMPDEST PUSH1 0x40 MLOAD PUSH1 0x60 DUP2 ADD PUSH8 0xFFFFFFFFFFFFFFFF DUP3 DUP3 LT DUP2 DUP4 GT OR ISZERO PUSH2 0xB20 JUMPI INVALID JUMPDEST DUP2 PUSH1 0x40 MSTORE DUP5 MLOAD SWAP2 POP DUP1 DUP3 AND DUP3 EQ PUSH2 0xB35 JUMPI DUP4 DUP5 REVERT JUMPDEST POP DUP2 MSTORE PUSH2 0xB44 PUSH1 0x20 DUP5 ADD PUSH2 0xA39 JUMP JUMPDEST PUSH1 0x20 DUP3 ADD MSTORE PUSH2 0xB55 PUSH1 0x40 DUP5 ADD PUSH2 0xA39 JUMP JUMPDEST PUSH1 0x40 DUP3 ADD MSTORE SWAP4 SWAP3 POP POP POP JUMP JUMPDEST PUSH1 0x0 DUP1 PUSH1 0x0 DUP1 PUSH1 0x0 PUSH1 0xA0 DUP7 DUP9 SUB SLT ISZERO PUSH2 0xB78 JUMPI DUP1 DUP2 REVERT JUMPDEST DUP6 MLOAD SWAP5 POP PUSH2 0xB88 PUSH1 0x20 DUP8 ADD PUSH2 0xA25 JUMP JUMPDEST SWAP4 POP PUSH1 0x40 DUP7 ADD MLOAD SWAP3 POP PUSH2 0xB9D PUSH1 0x60 DUP8 ADD PUSH2 0xA25 JUMP JUMPDEST SWAP2 POP PUSH2 0xBAB PUSH1 0x80 DUP8 ADD PUSH2 0xA25 JUMP JUMPDEST SWAP1 POP SWAP3 SWAP6 POP SWAP3 SWAP6 SWAP1 SWAP4 POP JUMP JUMPDEST PUSH20 0xFFFFFFFFFFFFFFFFFFFFFFFFFFFFFFFFFFFFFFFF SWAP2 SWAP1 SWAP2 AND DUP2 MSTORE PUSH1 0x20 ADD SWAP1 JUMP JUMPDEST PUSH20 0xFFFFFFFFFFFFFFFFFFFFFFFFFFFFFFFFFFFFFFFF SWAP3 SWAP1 SWAP3 AND DUP3 MSTORE PUSH1 0x20 DUP3 ADD MSTORE PUSH1 0x40 ADD SWAP1 JUMP JUMPDEST SWAP1 ISZERO ISZERO DUP2 MSTORE PUSH1 0x20 ADD SWAP1 JUMP JUMPDEST SWAP1 DUP2 MSTORE PUSH1 0x20 ADD SWAP1 JUMP JUMPDEST PUSH1 0x20 DUP1 DUP3 MSTORE PUSH1 0x1C SWAP1 DUP3 ADD MSTORE PUSH32 0x4E4F545F415050524F5645445F415554484F524954595F4552524F5200000000 PUSH1 0x40 DUP3 ADD MSTORE PUSH1 0x60 ADD SWAP1 JUMP JUMPDEST PUSH1 0x20 DUP1 DUP3 MSTORE PUSH1 0x1E SWAP1 DUP3 ADD MSTORE PUSH32 0x43414C4C45525F4E4F545F5249474F424C4F434B5F44414F5F4552524F520000 PUSH1 0x40 DUP3 ADD MSTORE PUSH1 0x60 ADD SWAP1 JUMP JUMPDEST PUSH1 0x20 DUP1 DUP3 MSTORE PUSH1 0x1E SWAP1 DUP3 ADD MSTORE PUSH32 0x43414C4C45525F4E4F545F5354414B494E475F50524F58595F4552524F520000 PUSH1 0x40 DUP3 ADD MSTORE PUSH1 0x60 ADD SWAP1 JUMP JUMPDEST SWAP3 DUP4 MSTORE PUSH1 0x20 DUP4 ADD SWAP2 SWAP1 SWAP2 MSTORE PUSH1 0x40 DUP3 ADD MSTORE PUSH1 0x60 ADD SWAP1 JUMP INVALID LOG2 PUSH5 0x6970667358 0x22 SLT KECCAK256 PUSH5 0x1BDD9E960E 0xAA CODESIZE PUSH22 0x611D87F4223EB4F9CB1BA864EFCE107557057C011FA3 SWAP13 PUSH5 0x736F6C6343 STOP SMOD DIV STOP CALLER "
			}
		}
	},
	"sourceTreeHashHex": "0xe897475bf6febbcdec2e19a8f63e552f0f761a260f8889f5c65ae14335d8118c",
	"compiler": {
		"name": "solc",
		"version": "0.7.4+commit.3f05b770",
		"settings": {
			"remappings": [],
			"optimizer": {
				"enabled": true,
				"runs": 1000000
			},
			"outputSelection": {
				"*": {
					"*": [
						"abi",
						"devdoc",
						"evm.bytecode.object",
						"evm.bytecode.sourceMap",
						"evm.deployedBytecode.object",
						"evm.deployedBytecode.sourceMap"
					]
				}
			}
		}
	},
	"chains": {}
}