{
	"schemaVersion": "2.0.0",
	"contractName": "Inflation",
	"compilerOutput": {
		"abi": [
			{
				"constant": false,
				"inputs": [
					{
						"name": "groupAddress",
						"type": "address"
					},
					{
						"name": "inflationFactor",
						"type": "uint256"
					}
				],
				"name": "setInflationFactor",
				"outputs": [],
				"payable": false,
				"stateMutability": "nonpayable",
				"type": "function"
			},
			{
				"constant": false,
				"inputs": [
					{
						"name": "newPeriod",
						"type": "uint256"
					}
				],
				"name": "setPeriod",
				"outputs": [],
				"payable": false,
				"stateMutability": "nonpayable",
				"type": "function"
			},
			{
				"constant": true,
				"inputs": [],
				"name": "slot",
				"outputs": [
					{
						"name": "",
						"type": "uint256"
					}
				],
				"payable": false,
				"stateMutability": "view",
				"type": "function"
			},
			{
				"constant": true,
				"inputs": [],
				"name": "rigoblockDao",
				"outputs": [
					{
						"name": "",
						"type": "address"
					}
				],
				"payable": false,
				"stateMutability": "view",
				"type": "function"
			},
			{
				"constant": true,
				"inputs": [
					{
						"name": "stakingPoolId",
						"type": "bytes32"
					}
				],
				"name": "timeUntilClaim",
				"outputs": [
					{
						"name": "",
						"type": "uint256"
					}
				],
				"payable": false,
				"stateMutability": "view",
				"type": "function"
			},
			{
				"constant": true,
				"inputs": [],
				"name": "GRG_VAULT_ADDRESS",
				"outputs": [
					{
						"name": "",
						"type": "address"
					}
				],
				"payable": false,
				"stateMutability": "view",
				"type": "function"
			},
			{
				"constant": true,
				"inputs": [
					{
						"name": "stakingPoolId",
						"type": "bytes32"
					}
				],
				"name": "canWithdraw",
				"outputs": [
					{
						"name": "",
						"type": "bool"
					}
				],
				"payable": false,
				"stateMutability": "view",
				"type": "function"
			},
			{
				"constant": false,
				"inputs": [
					{
						"name": "minimum",
						"type": "uint256"
					}
				],
				"name": "setMinimumRigo",
				"outputs": [],
				"payable": false,
				"stateMutability": "nonpayable",
				"type": "function"
			},
			{
				"constant": false,
				"inputs": [
					{
						"name": "newRigoblockDaoAddress",
						"type": "address"
					}
				],
				"name": "setRigoblock",
				"outputs": [],
				"payable": false,
				"stateMutability": "nonpayable",
				"type": "function"
			},
			{
				"constant": false,
				"inputs": [
					{
						"name": "authorityAddress",
						"type": "address"
					}
				],
				"name": "setAuthority",
				"outputs": [],
				"payable": false,
				"stateMutability": "nonpayable",
				"type": "function"
			},
			{
				"constant": false,
				"inputs": [
					{
						"name": "stakingPoolId",
						"type": "bytes32"
					},
					{
						"name": "reward",
						"type": "uint256"
					}
				],
				"name": "mintInflation",
				"outputs": [
					{
						"name": "",
						"type": "bool"
					}
				],
				"payable": false,
				"stateMutability": "nonpayable",
				"type": "function"
			},
			{
				"constant": true,
				"inputs": [],
				"name": "RIGOTOKENADDRESS",
				"outputs": [
					{
						"name": "",
						"type": "address"
					}
				],
				"payable": false,
				"stateMutability": "view",
				"type": "function"
			},
			{
				"constant": true,
				"inputs": [],
				"name": "authority",
				"outputs": [
					{
						"name": "",
						"type": "address"
					}
				],
				"payable": false,
				"stateMutability": "view",
				"type": "function"
			},
			{
				"constant": true,
				"inputs": [
					{
						"name": "groupAddress",
						"type": "address"
					}
				],
				"name": "getInflationFactor",
				"outputs": [
					{
						"name": "",
						"type": "uint256"
					}
				],
				"payable": false,
				"stateMutability": "view",
				"type": "function"
			},
			{
				"constant": false,
				"inputs": [
					{
						"name": "popAddress",
						"type": "address"
					}
				],
				"name": "setProofOfPerformance",
				"outputs": [],
				"payable": false,
				"stateMutability": "nonpayable",
				"type": "function"
			},
			{
				"constant": true,
				"inputs": [],
				"name": "proofOfPerformance",
				"outputs": [
					{
						"name": "",
						"type": "address"
					}
				],
				"payable": false,
				"stateMutability": "view",
				"type": "function"
			},
			{
				"constant": true,
				"inputs": [],
				"name": "period",
				"outputs": [
					{
						"name": "",
						"type": "uint256"
					}
				],
				"payable": false,
				"stateMutability": "view",
				"type": "function"
			},
			{
				"constant": true,
				"inputs": [],
				"name": "minimumGRG",
				"outputs": [
					{
						"name": "",
						"type": "uint256"
					}
				],
				"payable": false,
				"stateMutability": "view",
				"type": "function"
			},
			{
				"inputs": [
					{
						"name": "_rigoTokenAddress",
						"type": "address"
					},
					{
						"name": "_grgVaultAddress",
						"type": "address"
					},
					{
						"name": "_proofOfPerformance",
						"type": "address"
					},
					{
						"name": "_authority",
						"type": "address"
					}
				],
				"payable": false,
				"stateMutability": "nonpayable",
				"type": "constructor"
			}
		],
		"devdoc": {
			"author": "Gabriele Rigo - <gab@rigoblock.com>",
			"methods": {
				"canWithdraw(bytes32)": {
					"details": "Returns whether a staking pool's reward can be claimed.",
					"params": {
						"stakingPoolId": "Address of the target pool."
					},
					"return": "Bool the wizard can claim."
				},
				"getInflationFactor(address)": {
					"details": "Return the reward factor for a group.",
					"params": {
						"groupAddress": "Address of the group."
					},
					"return": "Value of the reward factor."
				},
				"mintInflation(bytes32,uint256)": {
					"details": "Allows ProofOfPerformance to mint rewards.",
					"params": {
						"reward": "Number of reward in Rigo tokens.",
						"stakingPoolId": "String of the staking pool."
					},
					"return": "Bool the transaction executed correctly."
				},
				"setAuthority(address)": {
					"details": "Allows rigoblock dao to update the authority.",
					"params": {
						"authorityAddress": "Address of the authority."
					}
				},
				"setInflationFactor(address,uint256)": {
					"details": "Allows rigoblock dao to set the inflation factor for a group.",
					"params": {
						"groupAddress": "Address of the group/factory.",
						"inflationFactor": "Value of the reward factor."
					}
				},
				"setMinimumRigo(uint256)": {
					"details": "Allows rigoblock dao to set the minimum number of required tokens.",
					"params": {
						"minimum": "Number of minimum tokens."
					}
				},
				"setPeriod(uint256)": {
					"details": "Allows rigoblock dao to set the minimum time between reward collection.",
					"params": {
						"newPeriod": "Number of seconds between 2 rewards."
					}
				},
				"setProofOfPerformance(address)": {
					"details": "Allows rigoblock dao to update proof of performance.",
					"params": {
						"popAddress": "Address of the Proof of Performance contract."
					}
				},
				"setRigoblock(address)": {
					"details": "Allows rigoblock dao to upgrade its address.",
					"params": {
						"newRigoblockDaoAddress": "Address of the new rigoblock dao."
					}
				},
				"timeUntilClaim(bytes32)": {
					"details": "Returns how much time needed until next claim.",
					"params": {
						"stakingPoolId": "Address of the target pool."
					},
					"return": "Number in seconds."
				}
			},
			"title": "Inflation - Allows ProofOfPerformance to mint tokens."
		},
		"evm": {
			"bytecode": {
				"linkReferences": {},
				"object": "0x60806040526212750060025568056bc75e2d631000006003553480156200002557600080fd5b50604051608080620012d38339810180604052620000479190810190620000ba565b60008054600160a060020a03958616600160a060020a03199182161790915560018054948616948216949094179093556007805484163317905560058054928516928416929092179091556006805491909316911617905562000143565b6000620000b3825162000124565b9392505050565b60008060008060808587031215620000d157600080fd5b6000620000df8787620000a5565b9450506020620000f287828801620000a5565b93505060406200010587828801620000a5565b92505060606200011887828801620000a5565b91505092959194509250565b6000620001318262000137565b92915050565b600160a060020a031690565b61118080620001536000396000f3fe608060405234801561001057600080fd5b5060043610610153576000357c0100000000000000000000000000000000000000000000000000000000900480637a9e5e4b116100cf578063d410e0c21161009e578063e70eadc011610083578063e70eadc014610270578063ef78d4fd14610278578063ff54a8e01461028057610153565b8063d410e0c21461024a578063d9ed29aa1461025d57610153565b80637a9e5e4b146102145780637fa36e4014610227578063a6c9c4431461023a578063bf7e214f1461024257610153565b806342a86d65116101265780636fb70c761161010b5780636fb70c76146101ce57806374bab550146101ee5780637802815c1461020157610153565b806342a86d65146101b35780636ac91666146101c657610153565b8063020e0cdb146101585780630f3a9f651461016d5780631a88bc66146101805780633edd80c31461019e575b600080fd5b61016b610166366004610cf9565b610288565b005b61016b61017b366004610d51565b6103ed565b610188610492565b604051610195919061103e565b60405180910390f35b6101a6610498565b6040516101959190611007565b6101886101c1366004610d51565b6104b4565b6101a66104e6565b6101e16101dc366004610d51565b610502565b6040516101959190611030565b61016b6101fc366004610d51565b610522565b61016b61020f366004610cb5565b6105bb565b61016b610222366004610cb5565b610653565b6101e1610235366004610d6f565b6106eb565b6101a6610ad4565b6101a6610af0565b610188610258366004610cb5565b610b0c565b61016b61026b366004610cb5565b610b34565b6101a6610bcc565b610188610be8565b610188610bee565b60075473ffffffffffffffffffffffffffffffffffffffff1633146102e2576040517f08c379a00000000000000000000000000000000000000000000000000000000081526004016102d9906110bc565b60405180910390fd5b6006546040517fdcb7a3e0000000000000000000000000000000000000000000000000000000008152839173ffffffffffffffffffffffffffffffffffffffff1690819063dcb7a3e09061033a908590600401611007565b60206040518083038186803b15801561035257600080fd5b505afa158015610366573d6000803e3d6000fd5b505050506040513d601f19601f8201168201806040525061038a9190810190610d33565b15156103c2576040517f08c379a00000000000000000000000000000000000000000000000000000000081526004016102d99061107c565b505073ffffffffffffffffffffffffffffffffffffffff909116600090815260096020526040902055565b60075473ffffffffffffffffffffffffffffffffffffffff16331461043e576040517f08c379a00000000000000000000000000000000000000000000000000000000081526004016102d9906110bc565b62015180811015801561045557506301e133808111155b151561048d576040517f08c379a00000000000000000000000000000000000000000000000000000000081526004016102d99061108c565b600255565b60045481565b60075473ffffffffffffffffffffffffffffffffffffffff1681565b6000818152600860205260408120600301544210156104e157506000818152600860205260409020600301545b919050565b60015473ffffffffffffffffffffffffffffffffffffffff1681565b60008181526008602052604081206003015442106104e1575060016104e1565b60075473ffffffffffffffffffffffffffffffffffffffff163314610573576040517f08c379a00000000000000000000000000000000000000000000000000000000081526004016102d9906110bc565b68056bc75e2d631000008110156105b6576040517f08c379a00000000000000000000000000000000000000000000000000000000081526004016102d99061105c565b600355565b60075473ffffffffffffffffffffffffffffffffffffffff16331461060c576040517f08c379a00000000000000000000000000000000000000000000000000000000081526004016102d9906110bc565b600780547fffffffffffffffffffffffff00000000000000000000000000000000000000001673ffffffffffffffffffffffffffffffffffffffff92909216919091179055565b60075473ffffffffffffffffffffffffffffffffffffffff1633146106a4576040517f08c379a00000000000000000000000000000000000000000000000000000000081526004016102d9906110bc565b600680547fffffffffffffffffffffffff00000000000000000000000000000000000000001673ffffffffffffffffffffffffffffffffffffffff92909216919091179055565b60055460009073ffffffffffffffffffffffffffffffffffffffff16331461073f576040517f08c379a00000000000000000000000000000000000000000000000000000000081526004016102d99061104c565b600083815260086020526040902060030154839042101561078c576040517f08c379a00000000000000000000000000000000000000000000000000000000081526004016102d9906110ac565b600154604080517fc4d8f237000000000000000000000000000000000000000000000000000000008152905160009273ffffffffffffffffffffffffffffffffffffffff169163c4d8f237916004808301926020929190829003018186803b1580156107f757600080fd5b505afa15801561080b573d6000803e3d6000fd5b505050506040513d601f19601f8201168201806040525061082f9190810190610cdb565b905060008173ffffffffffffffffffffffffffffffffffffffff16633e4ad732876040518263ffffffff167c0100000000000000000000000000000000000000000000000000000000028152600401610888919061103e565b60606040518083038186803b1580156108a057600080fd5b505afa1580156108b4573d6000803e3d6000fd5b505050506040513d601f19601f820116820180604052506108d89190810190610d8e565b602001516bffffffffffffffffffffffff169050600354811015610928576040517f08c379a00000000000000000000000000000000000000000000000000000000081526004016102d99061109c565b6002546301e13380908202048086111561096e576040517f08c379a00000000000000000000000000000000000000000000000000000000081526004016102d99061106c565b6000878152600860205260408082204260028083018290555401600390910155600480546001018155915460075491517f79c65068000000000000000000000000000000000000000000000000000000008152606460058b02049373ffffffffffffffffffffffffffffffffffffffff9283169384936379c65068936109fb939190921691879101611015565b600060405180830381600087803b158015610a1557600080fd5b505af1158015610a29573d6000803e3d6000fd5b505060015473ffffffffffffffffffffffffffffffffffffffff80851693506379c65068925016610a5a8b86610bf4565b6040518363ffffffff167c0100000000000000000000000000000000000000000000000000000000028152600401610a93929190611015565b600060405180830381600087803b158015610aad57600080fd5b505af1158015610ac1573d6000803e3d6000fd5b5060019c9b505050505050505050505050565b60005473ffffffffffffffffffffffffffffffffffffffff1681565b60065473ffffffffffffffffffffffffffffffffffffffff1681565b73ffffffffffffffffffffffffffffffffffffffff1660009081526009602052604090205490565b60075473ffffffffffffffffffffffffffffffffffffffff163314610b85576040517f08c379a00000000000000000000000000000000000000000000000000000000081526004016102d9906110bc565b600580547fffffffffffffffffffffffff00000000000000000000000000000000000000001673ffffffffffffffffffffffffffffffffffffffff92909216919091179055565b60055473ffffffffffffffffffffffffffffffffffffffff1681565b60025481565b60035481565b600082821115610c0057fe5b508082035b92915050565b6000610c1782356110fc565b9392505050565b6000610c1782516110fc565b6000610c178251611107565b6000610c17823561110c565b600060608284031215610c5457600080fd5b610c5e60606110cc565b90506000610c6c8484610c9d565b8252506020610c7d84848301610ca9565b6020830152506040610c9184828501610ca9565b60408301525092915050565b6000610c178251611128565b6000610c178251611135565b600060208284031215610cc757600080fd5b6000610cd38484610c0b565b949350505050565b600060208284031215610ced57600080fd5b6000610cd38484610c1e565b60008060408385031215610d0c57600080fd5b6000610d188585610c0b565b9250506020610d2985828601610c36565b9150509250929050565b600060208284031215610d4557600080fd5b6000610cd38484610c2a565b600060208284031215610d6357600080fd5b6000610cd38484610c36565b60008060408385031215610d8257600080fd5b6000610d188585610c36565b600060608284031215610da057600080fd5b6000610cd38484610c42565b610db5816110fc565b82525050565b610db581611107565b610db58161110c565b6000610dda6019836110f3565b7f4f4e4c595f50524f4f465f4f465f504552464f524d414e434500000000000000815260200192915050565b6000610e13601b836110f3565b7f4d494e494d554d5f4752475f42454c4f575f3130305f4552524f520000000000815260200192915050565b6000610e4c602e836110f3565b7f5245574152445f48494745525f5448414e5f5354414b455f524542415345445f81527f4f4e5f45504f43485f4552524f52000000000000000000000000000000000000602082015260400192915050565b6000610eab6016836110f3565b7f4e4f545f415050524f5645445f415554484f5249545900000000000000000000815260200192915050565b6000610ee46022836110f3565b7f504552494f445f544f4f5f4c4f4e475f4f525f544f4f5f53484f52545f45525281527f4f52000000000000000000000000000000000000000000000000000000000000602082015260400192915050565b6000610f436025836110f3565b7f5354414b45445f4752475f414d4f554e545f42454c4f575f4d494e494d554d5f81527f4552524f52000000000000000000000000000000000000000000000000000000602082015260400192915050565b6000610fa2600f836110f3565b7f54494d455f4e4f545f454e4f5547480000000000000000000000000000000000815260200192915050565b6000610fdb6012836110f3565b7f4f4e4c595f5249474f424c4f434b5f44414f0000000000000000000000000000815260200192915050565b60208101610c058284610dac565b604081016110238285610dac565b610c176020830184610dc4565b60208101610c058284610dbb565b60208101610c058284610dc4565b60208082528101610c0581610dcd565b60208082528101610c0581610e06565b60208082528101610c0581610e3f565b60208082528101610c0581610e9e565b60208082528101610c0581610ed7565b60208082528101610c0581610f36565b60208082528101610c0581610f95565b60208082528101610c0581610fce565b60405181810167ffffffffffffffff811182821017156110eb57600080fd5b604052919050565b90815260200190565b6000610c058261110f565b151590565b90565b73ffffffffffffffffffffffffffffffffffffffff1690565b67ffffffffffffffff1690565b6bffffffffffffffffffffffff169056fea265627a7a723058201ef2e4d8446b536704c2f19c817bd0aca23c82bf606225980112e3d7969d7e3e6c6578706572696d656e74616cf50037",
				"opcodes": "PUSH1 0x80 PUSH1 0x40 MSTORE PUSH3 0x127500 PUSH1 0x2 SSTORE PUSH9 0x56BC75E2D63100000 PUSH1 0x3 SSTORE CALLVALUE DUP1 ISZERO PUSH3 0x25 JUMPI PUSH1 0x0 DUP1 REVERT JUMPDEST POP PUSH1 0x40 MLOAD PUSH1 0x80 DUP1 PUSH3 0x12D3 DUP4 CODECOPY DUP2 ADD DUP1 PUSH1 0x40 MSTORE PUSH3 0x47 SWAP2 SWAP1 DUP2 ADD SWAP1 PUSH3 0xBA JUMP JUMPDEST PUSH1 0x0 DUP1 SLOAD PUSH1 0x1 PUSH1 0xA0 PUSH1 0x2 EXP SUB SWAP6 DUP7 AND PUSH1 0x1 PUSH1 0xA0 PUSH1 0x2 EXP SUB NOT SWAP2 DUP3 AND OR SWAP1 SWAP2 SSTORE PUSH1 0x1 DUP1 SLOAD SWAP5 DUP7 AND SWAP5 DUP3 AND SWAP5 SWAP1 SWAP5 OR SWAP1 SWAP4 SSTORE PUSH1 0x7 DUP1 SLOAD DUP5 AND CALLER OR SWAP1 SSTORE PUSH1 0x5 DUP1 SLOAD SWAP3 DUP6 AND SWAP3 DUP5 AND SWAP3 SWAP1 SWAP3 OR SWAP1 SWAP2 SSTORE PUSH1 0x6 DUP1 SLOAD SWAP2 SWAP1 SWAP4 AND SWAP2 AND OR SWAP1 SSTORE PUSH3 0x143 JUMP JUMPDEST PUSH1 0x0 PUSH3 0xB3 DUP3 MLOAD PUSH3 0x124 JUMP JUMPDEST SWAP4 SWAP3 POP POP POP JUMP JUMPDEST PUSH1 0x0 DUP1 PUSH1 0x0 DUP1 PUSH1 0x80 DUP6 DUP8 SUB SLT ISZERO PUSH3 0xD1 JUMPI PUSH1 0x0 DUP1 REVERT JUMPDEST PUSH1 0x0 PUSH3 0xDF DUP8 DUP8 PUSH3 0xA5 JUMP JUMPDEST SWAP5 POP POP PUSH1 0x20 PUSH3 0xF2 DUP8 DUP3 DUP9 ADD PUSH3 0xA5 JUMP JUMPDEST SWAP4 POP POP PUSH1 0x40 PUSH3 0x105 DUP8 DUP3 DUP9 ADD PUSH3 0xA5 JUMP JUMPDEST SWAP3 POP POP PUSH1 0x60 PUSH3 0x118 DUP8 DUP3 DUP9 ADD PUSH3 0xA5 JUMP JUMPDEST SWAP2 POP POP SWAP3 SWAP6 SWAP2 SWAP5 POP SWAP3 POP JUMP JUMPDEST PUSH1 0x0 PUSH3 0x131 DUP3 PUSH3 0x137 JUMP JUMPDEST SWAP3 SWAP2 POP POP JUMP JUMPDEST PUSH1 0x1 PUSH1 0xA0 PUSH1 0x2 EXP SUB AND SWAP1 JUMP JUMPDEST PUSH2 0x1180 DUP1 PUSH3 0x153 PUSH1 0x0 CODECOPY PUSH1 0x0 RETURN INVALID PUSH1 0x80 PUSH1 0x40 MSTORE CALLVALUE DUP1 ISZERO PUSH2 0x10 JUMPI PUSH1 0x0 DUP1 REVERT JUMPDEST POP PUSH1 0x4 CALLDATASIZE LT PUSH2 0x153 JUMPI PUSH1 0x0 CALLDATALOAD PUSH29 0x100000000000000000000000000000000000000000000000000000000 SWAP1 DIV DUP1 PUSH4 0x7A9E5E4B GT PUSH2 0xCF JUMPI DUP1 PUSH4 0xD410E0C2 GT PUSH2 0x9E JUMPI DUP1 PUSH4 0xE70EADC0 GT PUSH2 0x83 JUMPI DUP1 PUSH4 0xE70EADC0 EQ PUSH2 0x270 JUMPI DUP1 PUSH4 0xEF78D4FD EQ PUSH2 0x278 JUMPI DUP1 PUSH4 0xFF54A8E0 EQ PUSH2 0x280 JUMPI PUSH2 0x153 JUMP JUMPDEST DUP1 PUSH4 0xD410E0C2 EQ PUSH2 0x24A JUMPI DUP1 PUSH4 0xD9ED29AA EQ PUSH2 0x25D JUMPI PUSH2 0x153 JUMP JUMPDEST DUP1 PUSH4 0x7A9E5E4B EQ PUSH2 0x214 JUMPI DUP1 PUSH4 0x7FA36E40 EQ PUSH2 0x227 JUMPI DUP1 PUSH4 0xA6C9C443 EQ PUSH2 0x23A JUMPI DUP1 PUSH4 0xBF7E214F EQ PUSH2 0x242 JUMPI PUSH2 0x153 JUMP JUMPDEST DUP1 PUSH4 0x42A86D65 GT PUSH2 0x126 JUMPI DUP1 PUSH4 0x6FB70C76 GT PUSH2 0x10B JUMPI DUP1 PUSH4 0x6FB70C76 EQ PUSH2 0x1CE JUMPI DUP1 PUSH4 0x74BAB550 EQ PUSH2 0x1EE JUMPI DUP1 PUSH4 0x7802815C EQ PUSH2 0x201 JUMPI PUSH2 0x153 JUMP JUMPDEST DUP1 PUSH4 0x42A86D65 EQ PUSH2 0x1B3 JUMPI DUP1 PUSH4 0x6AC91666 EQ PUSH2 0x1C6 JUMPI PUSH2 0x153 JUMP JUMPDEST DUP1 PUSH4 0x20E0CDB EQ PUSH2 0x158 JUMPI DUP1 PUSH4 0xF3A9F65 EQ PUSH2 0x16D JUMPI DUP1 PUSH4 0x1A88BC66 EQ PUSH2 0x180 JUMPI DUP1 PUSH4 0x3EDD80C3 EQ PUSH2 0x19E JUMPI JUMPDEST PUSH1 0x0 DUP1 REVERT JUMPDEST PUSH2 0x16B PUSH2 0x166 CALLDATASIZE PUSH1 0x4 PUSH2 0xCF9 JUMP JUMPDEST PUSH2 0x288 JUMP JUMPDEST STOP JUMPDEST PUSH2 0x16B PUSH2 0x17B CALLDATASIZE PUSH1 0x4 PUSH2 0xD51 JUMP JUMPDEST PUSH2 0x3ED JUMP JUMPDEST PUSH2 0x188 PUSH2 0x492 JUMP JUMPDEST PUSH1 0x40 MLOAD PUSH2 0x195 SWAP2 SWAP1 PUSH2 0x103E JUMP JUMPDEST PUSH1 0x40 MLOAD DUP1 SWAP2 SUB SWAP1 RETURN JUMPDEST PUSH2 0x1A6 PUSH2 0x498 JUMP JUMPDEST PUSH1 0x40 MLOAD PUSH2 0x195 SWAP2 SWAP1 PUSH2 0x1007 JUMP JUMPDEST PUSH2 0x188 PUSH2 0x1C1 CALLDATASIZE PUSH1 0x4 PUSH2 0xD51 JUMP JUMPDEST PUSH2 0x4B4 JUMP JUMPDEST PUSH2 0x1A6 PUSH2 0x4E6 JUMP JUMPDEST PUSH2 0x1E1 PUSH2 0x1DC CALLDATASIZE PUSH1 0x4 PUSH2 0xD51 JUMP JUMPDEST PUSH2 0x502 JUMP JUMPDEST PUSH1 0x40 MLOAD PUSH2 0x195 SWAP2 SWAP1 PUSH2 0x1030 JUMP JUMPDEST PUSH2 0x16B PUSH2 0x1FC CALLDATASIZE PUSH1 0x4 PUSH2 0xD51 JUMP JUMPDEST PUSH2 0x522 JUMP JUMPDEST PUSH2 0x16B PUSH2 0x20F CALLDATASIZE PUSH1 0x4 PUSH2 0xCB5 JUMP JUMPDEST PUSH2 0x5BB JUMP JUMPDEST PUSH2 0x16B PUSH2 0x222 CALLDATASIZE PUSH1 0x4 PUSH2 0xCB5 JUMP JUMPDEST PUSH2 0x653 JUMP JUMPDEST PUSH2 0x1E1 PUSH2 0x235 CALLDATASIZE PUSH1 0x4 PUSH2 0xD6F JUMP JUMPDEST PUSH2 0x6EB JUMP JUMPDEST PUSH2 0x1A6 PUSH2 0xAD4 JUMP JUMPDEST PUSH2 0x1A6 PUSH2 0xAF0 JUMP JUMPDEST PUSH2 0x188 PUSH2 0x258 CALLDATASIZE PUSH1 0x4 PUSH2 0xCB5 JUMP JUMPDEST PUSH2 0xB0C JUMP JUMPDEST PUSH2 0x16B PUSH2 0x26B CALLDATASIZE PUSH1 0x4 PUSH2 0xCB5 JUMP JUMPDEST PUSH2 0xB34 JUMP JUMPDEST PUSH2 0x1A6 PUSH2 0xBCC JUMP JUMPDEST PUSH2 0x188 PUSH2 0xBE8 JUMP JUMPDEST PUSH2 0x188 PUSH2 0xBEE JUMP JUMPDEST PUSH1 0x7 SLOAD PUSH20 0xFFFFFFFFFFFFFFFFFFFFFFFFFFFFFFFFFFFFFFFF AND CALLER EQ PUSH2 0x2E2 JUMPI PUSH1 0x40 MLOAD PUSH32 0x8C379A000000000000000000000000000000000000000000000000000000000 DUP2 MSTORE PUSH1 0x4 ADD PUSH2 0x2D9 SWAP1 PUSH2 0x10BC JUMP JUMPDEST PUSH1 0x40 MLOAD DUP1 SWAP2 SUB SWAP1 REVERT JUMPDEST PUSH1 0x6 SLOAD PUSH1 0x40 MLOAD PUSH32 0xDCB7A3E000000000000000000000000000000000000000000000000000000000 DUP2 MSTORE DUP4 SWAP2 PUSH20 0xFFFFFFFFFFFFFFFFFFFFFFFFFFFFFFFFFFFFFFFF AND SWAP1 DUP2 SWAP1 PUSH4 0xDCB7A3E0 SWAP1 PUSH2 0x33A SWAP1 DUP6 SWAP1 PUSH1 0x4 ADD PUSH2 0x1007 JUMP JUMPDEST PUSH1 0x20 PUSH1 0x40 MLOAD DUP1 DUP4 SUB DUP2 DUP7 DUP1 EXTCODESIZE ISZERO DUP1 ISZERO PUSH2 0x352 JUMPI PUSH1 0x0 DUP1 REVERT JUMPDEST POP GAS STATICCALL ISZERO DUP1 ISZERO PUSH2 0x366 JUMPI RETURNDATASIZE PUSH1 0x0 DUP1 RETURNDATACOPY RETURNDATASIZE PUSH1 0x0 REVERT JUMPDEST POP POP POP POP PUSH1 0x40 MLOAD RETURNDATASIZE PUSH1 0x1F NOT PUSH1 0x1F DUP3 ADD AND DUP3 ADD DUP1 PUSH1 0x40 MSTORE POP PUSH2 0x38A SWAP2 SWAP1 DUP2 ADD SWAP1 PUSH2 0xD33 JUMP JUMPDEST ISZERO ISZERO PUSH2 0x3C2 JUMPI PUSH1 0x40 MLOAD PUSH32 0x8C379A000000000000000000000000000000000000000000000000000000000 DUP2 MSTORE PUSH1 0x4 ADD PUSH2 0x2D9 SWAP1 PUSH2 0x107C JUMP JUMPDEST POP POP PUSH20 0xFFFFFFFFFFFFFFFFFFFFFFFFFFFFFFFFFFFFFFFF SWAP1 SWAP2 AND PUSH1 0x0 SWAP1 DUP2 MSTORE PUSH1 0x9 PUSH1 0x20 MSTORE PUSH1 0x40 SWAP1 KECCAK256 SSTORE JUMP JUMPDEST PUSH1 0x7 SLOAD PUSH20 0xFFFFFFFFFFFFFFFFFFFFFFFFFFFFFFFFFFFFFFFF AND CALLER EQ PUSH2 0x43E JUMPI PUSH1 0x40 MLOAD PUSH32 0x8C379A000000000000000000000000000000000000000000000000000000000 DUP2 MSTORE PUSH1 0x4 ADD PUSH2 0x2D9 SWAP1 PUSH2 0x10BC JUMP JUMPDEST PUSH3 0x15180 DUP2 LT ISZERO DUP1 ISZERO PUSH2 0x455 JUMPI POP PUSH4 0x1E13380 DUP2 GT ISZERO JUMPDEST ISZERO ISZERO PUSH2 0x48D JUMPI PUSH1 0x40 MLOAD PUSH32 0x8C379A000000000000000000000000000000000000000000000000000000000 DUP2 MSTORE PUSH1 0x4 ADD PUSH2 0x2D9 SWAP1 PUSH2 0x108C JUMP JUMPDEST PUSH1 0x2 SSTORE JUMP JUMPDEST PUSH1 0x4 SLOAD DUP2 JUMP JUMPDEST PUSH1 0x7 SLOAD PUSH20 0xFFFFFFFFFFFFFFFFFFFFFFFFFFFFFFFFFFFFFFFF AND DUP2 JUMP JUMPDEST PUSH1 0x0 DUP2 DUP2 MSTORE PUSH1 0x8 PUSH1 0x20 MSTORE PUSH1 0x40 DUP2 KECCAK256 PUSH1 0x3 ADD SLOAD TIMESTAMP LT ISZERO PUSH2 0x4E1 JUMPI POP PUSH1 0x0 DUP2 DUP2 MSTORE PUSH1 0x8 PUSH1 0x20 MSTORE PUSH1 0x40 SWAP1 KECCAK256 PUSH1 0x3 ADD SLOAD JUMPDEST SWAP2 SWAP1 POP JUMP JUMPDEST PUSH1 0x1 SLOAD PUSH20 0xFFFFFFFFFFFFFFFFFFFFFFFFFFFFFFFFFFFFFFFF AND DUP2 JUMP JUMPDEST PUSH1 0x0 DUP2 DUP2 MSTORE PUSH1 0x8 PUSH1 0x20 MSTORE PUSH1 0x40 DUP2 KECCAK256 PUSH1 0x3 ADD SLOAD TIMESTAMP LT PUSH2 0x4E1 JUMPI POP PUSH1 0x1 PUSH2 0x4E1 JUMP JUMPDEST PUSH1 0x7 SLOAD PUSH20 0xFFFFFFFFFFFFFFFFFFFFFFFFFFFFFFFFFFFFFFFF AND CALLER EQ PUSH2 0x573 JUMPI PUSH1 0x40 MLOAD PUSH32 0x8C379A000000000000000000000000000000000000000000000000000000000 DUP2 MSTORE PUSH1 0x4 ADD PUSH2 0x2D9 SWAP1 PUSH2 0x10BC JUMP JUMPDEST PUSH9 0x56BC75E2D63100000 DUP2 LT ISZERO PUSH2 0x5B6 JUMPI PUSH1 0x40 MLOAD PUSH32 0x8C379A000000000000000000000000000000000000000000000000000000000 DUP2 MSTORE PUSH1 0x4 ADD PUSH2 0x2D9 SWAP1 PUSH2 0x105C JUMP JUMPDEST PUSH1 0x3 SSTORE JUMP JUMPDEST PUSH1 0x7 SLOAD PUSH20 0xFFFFFFFFFFFFFFFFFFFFFFFFFFFFFFFFFFFFFFFF AND CALLER EQ PUSH2 0x60C JUMPI PUSH1 0x40 MLOAD PUSH32 0x8C379A000000000000000000000000000000000000000000000000000000000 DUP2 MSTORE PUSH1 0x4 ADD PUSH2 0x2D9 SWAP1 PUSH2 0x10BC JUMP JUMPDEST PUSH1 0x7 DUP1 SLOAD PUSH32 0xFFFFFFFFFFFFFFFFFFFFFFFF0000000000000000000000000000000000000000 AND PUSH20 0xFFFFFFFFFFFFFFFFFFFFFFFFFFFFFFFFFFFFFFFF SWAP3 SWAP1 SWAP3 AND SWAP2 SWAP1 SWAP2 OR SWAP1 SSTORE JUMP JUMPDEST PUSH1 0x7 SLOAD PUSH20 0xFFFFFFFFFFFFFFFFFFFFFFFFFFFFFFFFFFFFFFFF AND CALLER EQ PUSH2 0x6A4 JUMPI PUSH1 0x40 MLOAD PUSH32 0x8C379A000000000000000000000000000000000000000000000000000000000 DUP2 MSTORE PUSH1 0x4 ADD PUSH2 0x2D9 SWAP1 PUSH2 0x10BC JUMP JUMPDEST PUSH1 0x6 DUP1 SLOAD PUSH32 0xFFFFFFFFFFFFFFFFFFFFFFFF0000000000000000000000000000000000000000 AND PUSH20 0xFFFFFFFFFFFFFFFFFFFFFFFFFFFFFFFFFFFFFFFF SWAP3 SWAP1 SWAP3 AND SWAP2 SWAP1 SWAP2 OR SWAP1 SSTORE JUMP JUMPDEST PUSH1 0x5 SLOAD PUSH1 0x0 SWAP1 PUSH20 0xFFFFFFFFFFFFFFFFFFFFFFFFFFFFFFFFFFFFFFFF AND CALLER EQ PUSH2 0x73F JUMPI PUSH1 0x40 MLOAD PUSH32 0x8C379A000000000000000000000000000000000000000000000000000000000 DUP2 MSTORE PUSH1 0x4 ADD PUSH2 0x2D9 SWAP1 PUSH2 0x104C JUMP JUMPDEST PUSH1 0x0 DUP4 DUP2 MSTORE PUSH1 0x8 PUSH1 0x20 MSTORE PUSH1 0x40 SWAP1 KECCAK256 PUSH1 0x3 ADD SLOAD DUP4 SWAP1 TIMESTAMP LT ISZERO PUSH2 0x78C JUMPI PUSH1 0x40 MLOAD PUSH32 0x8C379A000000000000000000000000000000000000000000000000000000000 DUP2 MSTORE PUSH1 0x4 ADD PUSH2 0x2D9 SWAP1 PUSH2 0x10AC JUMP JUMPDEST PUSH1 0x1 SLOAD PUSH1 0x40 DUP1 MLOAD PUSH32 0xC4D8F23700000000000000000000000000000000000000000000000000000000 DUP2 MSTORE SWAP1 MLOAD PUSH1 0x0 SWAP3 PUSH20 0xFFFFFFFFFFFFFFFFFFFFFFFFFFFFFFFFFFFFFFFF AND SWAP2 PUSH4 0xC4D8F237 SWAP2 PUSH1 0x4 DUP1 DUP4 ADD SWAP3 PUSH1 0x20 SWAP3 SWAP2 SWAP1 DUP3 SWAP1 SUB ADD DUP2 DUP7 DUP1 EXTCODESIZE ISZERO DUP1 ISZERO PUSH2 0x7F7 JUMPI PUSH1 0x0 DUP1 REVERT JUMPDEST POP GAS STATICCALL ISZERO DUP1 ISZERO PUSH2 0x80B JUMPI RETURNDATASIZE PUSH1 0x0 DUP1 RETURNDATACOPY RETURNDATASIZE PUSH1 0x0 REVERT JUMPDEST POP POP POP POP PUSH1 0x40 MLOAD RETURNDATASIZE PUSH1 0x1F NOT PUSH1 0x1F DUP3 ADD AND DUP3 ADD DUP1 PUSH1 0x40 MSTORE POP PUSH2 0x82F SWAP2 SWAP1 DUP2 ADD SWAP1 PUSH2 0xCDB JUMP JUMPDEST SWAP1 POP PUSH1 0x0 DUP2 PUSH20 0xFFFFFFFFFFFFFFFFFFFFFFFFFFFFFFFFFFFFFFFF AND PUSH4 0x3E4AD732 DUP8 PUSH1 0x40 MLOAD DUP3 PUSH4 0xFFFFFFFF AND PUSH29 0x100000000000000000000000000000000000000000000000000000000 MUL DUP2 MSTORE PUSH1 0x4 ADD PUSH2 0x888 SWAP2 SWAP1 PUSH2 0x103E JUMP JUMPDEST PUSH1 0x60 PUSH1 0x40 MLOAD DUP1 DUP4 SUB DUP2 DUP7 DUP1 EXTCODESIZE ISZERO DUP1 ISZERO PUSH2 0x8A0 JUMPI PUSH1 0x0 DUP1 REVERT JUMPDEST POP GAS STATICCALL ISZERO DUP1 ISZERO PUSH2 0x8B4 JUMPI RETURNDATASIZE PUSH1 0x0 DUP1 RETURNDATACOPY RETURNDATASIZE PUSH1 0x0 REVERT JUMPDEST POP POP POP POP PUSH1 0x40 MLOAD RETURNDATASIZE PUSH1 0x1F NOT PUSH1 0x1F DUP3 ADD AND DUP3 ADD DUP1 PUSH1 0x40 MSTORE POP PUSH2 0x8D8 SWAP2 SWAP1 DUP2 ADD SWAP1 PUSH2 0xD8E JUMP JUMPDEST PUSH1 0x20 ADD MLOAD PUSH12 0xFFFFFFFFFFFFFFFFFFFFFFFF AND SWAP1 POP PUSH1 0x3 SLOAD DUP2 LT ISZERO PUSH2 0x928 JUMPI PUSH1 0x40 MLOAD PUSH32 0x8C379A000000000000000000000000000000000000000000000000000000000 DUP2 MSTORE PUSH1 0x4 ADD PUSH2 0x2D9 SWAP1 PUSH2 0x109C JUMP JUMPDEST PUSH1 0x2 SLOAD PUSH4 0x1E13380 SWAP1 DUP3 MUL DIV DUP1 DUP7 GT ISZERO PUSH2 0x96E JUMPI PUSH1 0x40 MLOAD PUSH32 0x8C379A000000000000000000000000000000000000000000000000000000000 DUP2 MSTORE PUSH1 0x4 ADD PUSH2 0x2D9 SWAP1 PUSH2 0x106C JUMP JUMPDEST PUSH1 0x0 DUP8 DUP2 MSTORE PUSH1 0x8 PUSH1 0x20 MSTORE PUSH1 0x40 DUP1 DUP3 KECCAK256 TIMESTAMP PUSH1 0x2 DUP1 DUP4 ADD DUP3 SWAP1 SSTORE SLOAD ADD PUSH1 0x3 SWAP1 SWAP2 ADD SSTORE PUSH1 0x4 DUP1 SLOAD PUSH1 0x1 ADD DUP2 SSTORE SWAP2 SLOAD PUSH1 0x7 SLOAD SWAP2 MLOAD PUSH32 0x79C6506800000000000000000000000000000000000000000000000000000000 DUP2 MSTORE PUSH1 0x64 PUSH1 0x5 DUP12 MUL DIV SWAP4 PUSH20 0xFFFFFFFFFFFFFFFFFFFFFFFFFFFFFFFFFFFFFFFF SWAP3 DUP4 AND SWAP4 DUP5 SWAP4 PUSH4 0x79C65068 SWAP4 PUSH2 0x9FB SWAP4 SWAP2 SWAP1 SWAP3 AND SWAP2 DUP8 SWAP2 ADD PUSH2 0x1015 JUMP JUMPDEST PUSH1 0x0 PUSH1 0x40 MLOAD DUP1 DUP4 SUB DUP2 PUSH1 0x0 DUP8 DUP1 EXTCODESIZE ISZERO DUP1 ISZERO PUSH2 0xA15 JUMPI PUSH1 0x0 DUP1 REVERT JUMPDEST POP GAS CALL ISZERO DUP1 ISZERO PUSH2 0xA29 JUMPI RETURNDATASIZE PUSH1 0x0 DUP1 RETURNDATACOPY RETURNDATASIZE PUSH1 0x0 REVERT JUMPDEST POP POP PUSH1 0x1 SLOAD PUSH20 0xFFFFFFFFFFFFFFFFFFFFFFFFFFFFFFFFFFFFFFFF DUP1 DUP6 AND SWAP4 POP PUSH4 0x79C65068 SWAP3 POP AND PUSH2 0xA5A DUP12 DUP7 PUSH2 0xBF4 JUMP JUMPDEST PUSH1 0x40 MLOAD DUP4 PUSH4 0xFFFFFFFF AND PUSH29 0x100000000000000000000000000000000000000000000000000000000 MUL DUP2 MSTORE PUSH1 0x4 ADD PUSH2 0xA93 SWAP3 SWAP2 SWAP1 PUSH2 0x1015 JUMP JUMPDEST PUSH1 0x0 PUSH1 0x40 MLOAD DUP1 DUP4 SUB DUP2 PUSH1 0x0 DUP8 DUP1 EXTCODESIZE ISZERO DUP1 ISZERO PUSH2 0xAAD JUMPI PUSH1 0x0 DUP1 REVERT JUMPDEST POP GAS CALL ISZERO DUP1 ISZERO PUSH2 0xAC1 JUMPI RETURNDATASIZE PUSH1 0x0 DUP1 RETURNDATACOPY RETURNDATASIZE PUSH1 0x0 REVERT JUMPDEST POP PUSH1 0x1 SWAP13 SWAP12 POP POP POP POP POP POP POP POP POP POP POP POP JUMP JUMPDEST PUSH1 0x0 SLOAD PUSH20 0xFFFFFFFFFFFFFFFFFFFFFFFFFFFFFFFFFFFFFFFF AND DUP2 JUMP JUMPDEST PUSH1 0x6 SLOAD PUSH20 0xFFFFFFFFFFFFFFFFFFFFFFFFFFFFFFFFFFFFFFFF AND DUP2 JUMP JUMPDEST PUSH20 0xFFFFFFFFFFFFFFFFFFFFFFFFFFFFFFFFFFFFFFFF AND PUSH1 0x0 SWAP1 DUP2 MSTORE PUSH1 0x9 PUSH1 0x20 MSTORE PUSH1 0x40 SWAP1 KECCAK256 SLOAD SWAP1 JUMP JUMPDEST PUSH1 0x7 SLOAD PUSH20 0xFFFFFFFFFFFFFFFFFFFFFFFFFFFFFFFFFFFFFFFF AND CALLER EQ PUSH2 0xB85 JUMPI PUSH1 0x40 MLOAD PUSH32 0x8C379A000000000000000000000000000000000000000000000000000000000 DUP2 MSTORE PUSH1 0x4 ADD PUSH2 0x2D9 SWAP1 PUSH2 0x10BC JUMP JUMPDEST PUSH1 0x5 DUP1 SLOAD PUSH32 0xFFFFFFFFFFFFFFFFFFFFFFFF0000000000000000000000000000000000000000 AND PUSH20 0xFFFFFFFFFFFFFFFFFFFFFFFFFFFFFFFFFFFFFFFF SWAP3 SWAP1 SWAP3 AND SWAP2 SWAP1 SWAP2 OR SWAP1 SSTORE JUMP JUMPDEST PUSH1 0x5 SLOAD PUSH20 0xFFFFFFFFFFFFFFFFFFFFFFFFFFFFFFFFFFFFFFFF AND DUP2 JUMP JUMPDEST PUSH1 0x2 SLOAD DUP2 JUMP JUMPDEST PUSH1 0x3 SLOAD DUP2 JUMP JUMPDEST PUSH1 0x0 DUP3 DUP3 GT ISZERO PUSH2 0xC00 JUMPI INVALID JUMPDEST POP DUP1 DUP3 SUB JUMPDEST SWAP3 SWAP2 POP POP JUMP JUMPDEST PUSH1 0x0 PUSH2 0xC17 DUP3 CALLDATALOAD PUSH2 0x10FC JUMP JUMPDEST SWAP4 SWAP3 POP POP POP JUMP JUMPDEST PUSH1 0x0 PUSH2 0xC17 DUP3 MLOAD PUSH2 0x10FC JUMP JUMPDEST PUSH1 0x0 PUSH2 0xC17 DUP3 MLOAD PUSH2 0x1107 JUMP JUMPDEST PUSH1 0x0 PUSH2 0xC17 DUP3 CALLDATALOAD PUSH2 0x110C JUMP JUMPDEST PUSH1 0x0 PUSH1 0x60 DUP3 DUP5 SUB SLT ISZERO PUSH2 0xC54 JUMPI PUSH1 0x0 DUP1 REVERT JUMPDEST PUSH2 0xC5E PUSH1 0x60 PUSH2 0x10CC JUMP JUMPDEST SWAP1 POP PUSH1 0x0 PUSH2 0xC6C DUP5 DUP5 PUSH2 0xC9D JUMP JUMPDEST DUP3 MSTORE POP PUSH1 0x20 PUSH2 0xC7D DUP5 DUP5 DUP4 ADD PUSH2 0xCA9 JUMP JUMPDEST PUSH1 0x20 DUP4 ADD MSTORE POP PUSH1 0x40 PUSH2 0xC91 DUP5 DUP3 DUP6 ADD PUSH2 0xCA9 JUMP JUMPDEST PUSH1 0x40 DUP4 ADD MSTORE POP SWAP3 SWAP2 POP POP JUMP JUMPDEST PUSH1 0x0 PUSH2 0xC17 DUP3 MLOAD PUSH2 0x1128 JUMP JUMPDEST PUSH1 0x0 PUSH2 0xC17 DUP3 MLOAD PUSH2 0x1135 JUMP JUMPDEST PUSH1 0x0 PUSH1 0x20 DUP3 DUP5 SUB SLT ISZERO PUSH2 0xCC7 JUMPI PUSH1 0x0 DUP1 REVERT JUMPDEST PUSH1 0x0 PUSH2 0xCD3 DUP5 DUP5 PUSH2 0xC0B JUMP JUMPDEST SWAP5 SWAP4 POP POP POP POP JUMP JUMPDEST PUSH1 0x0 PUSH1 0x20 DUP3 DUP5 SUB SLT ISZERO PUSH2 0xCED JUMPI PUSH1 0x0 DUP1 REVERT JUMPDEST PUSH1 0x0 PUSH2 0xCD3 DUP5 DUP5 PUSH2 0xC1E JUMP JUMPDEST PUSH1 0x0 DUP1 PUSH1 0x40 DUP4 DUP6 SUB SLT ISZERO PUSH2 0xD0C JUMPI PUSH1 0x0 DUP1 REVERT JUMPDEST PUSH1 0x0 PUSH2 0xD18 DUP6 DUP6 PUSH2 0xC0B JUMP JUMPDEST SWAP3 POP POP PUSH1 0x20 PUSH2 0xD29 DUP6 DUP3 DUP7 ADD PUSH2 0xC36 JUMP JUMPDEST SWAP2 POP POP SWAP3 POP SWAP3 SWAP1 POP JUMP JUMPDEST PUSH1 0x0 PUSH1 0x20 DUP3 DUP5 SUB SLT ISZERO PUSH2 0xD45 JUMPI PUSH1 0x0 DUP1 REVERT JUMPDEST PUSH1 0x0 PUSH2 0xCD3 DUP5 DUP5 PUSH2 0xC2A JUMP JUMPDEST PUSH1 0x0 PUSH1 0x20 DUP3 DUP5 SUB SLT ISZERO PUSH2 0xD63 JUMPI PUSH1 0x0 DUP1 REVERT JUMPDEST PUSH1 0x0 PUSH2 0xCD3 DUP5 DUP5 PUSH2 0xC36 JUMP JUMPDEST PUSH1 0x0 DUP1 PUSH1 0x40 DUP4 DUP6 SUB SLT ISZERO PUSH2 0xD82 JUMPI PUSH1 0x0 DUP1 REVERT JUMPDEST PUSH1 0x0 PUSH2 0xD18 DUP6 DUP6 PUSH2 0xC36 JUMP JUMPDEST PUSH1 0x0 PUSH1 0x60 DUP3 DUP5 SUB SLT ISZERO PUSH2 0xDA0 JUMPI PUSH1 0x0 DUP1 REVERT JUMPDEST PUSH1 0x0 PUSH2 0xCD3 DUP5 DUP5 PUSH2 0xC42 JUMP JUMPDEST PUSH2 0xDB5 DUP2 PUSH2 0x10FC JUMP JUMPDEST DUP3 MSTORE POP POP JUMP JUMPDEST PUSH2 0xDB5 DUP2 PUSH2 0x1107 JUMP JUMPDEST PUSH2 0xDB5 DUP2 PUSH2 0x110C JUMP JUMPDEST PUSH1 0x0 PUSH2 0xDDA PUSH1 0x19 DUP4 PUSH2 0x10F3 JUMP JUMPDEST PUSH32 0x4F4E4C595F50524F4F465F4F465F504552464F524D414E434500000000000000 DUP2 MSTORE PUSH1 0x20 ADD SWAP3 SWAP2 POP POP JUMP JUMPDEST PUSH1 0x0 PUSH2 0xE13 PUSH1 0x1B DUP4 PUSH2 0x10F3 JUMP JUMPDEST PUSH32 0x4D494E494D554D5F4752475F42454C4F575F3130305F4552524F520000000000 DUP2 MSTORE PUSH1 0x20 ADD SWAP3 SWAP2 POP POP JUMP JUMPDEST PUSH1 0x0 PUSH2 0xE4C PUSH1 0x2E DUP4 PUSH2 0x10F3 JUMP JUMPDEST PUSH32 0x5245574152445F48494745525F5448414E5F5354414B455F524542415345445F DUP2 MSTORE PUSH32 0x4F4E5F45504F43485F4552524F52000000000000000000000000000000000000 PUSH1 0x20 DUP3 ADD MSTORE PUSH1 0x40 ADD SWAP3 SWAP2 POP POP JUMP JUMPDEST PUSH1 0x0 PUSH2 0xEAB PUSH1 0x16 DUP4 PUSH2 0x10F3 JUMP JUMPDEST PUSH32 0x4E4F545F415050524F5645445F415554484F5249545900000000000000000000 DUP2 MSTORE PUSH1 0x20 ADD SWAP3 SWAP2 POP POP JUMP JUMPDEST PUSH1 0x0 PUSH2 0xEE4 PUSH1 0x22 DUP4 PUSH2 0x10F3 JUMP JUMPDEST PUSH32 0x504552494F445F544F4F5F4C4F4E475F4F525F544F4F5F53484F52545F455252 DUP2 MSTORE PUSH32 0x4F52000000000000000000000000000000000000000000000000000000000000 PUSH1 0x20 DUP3 ADD MSTORE PUSH1 0x40 ADD SWAP3 SWAP2 POP POP JUMP JUMPDEST PUSH1 0x0 PUSH2 0xF43 PUSH1 0x25 DUP4 PUSH2 0x10F3 JUMP JUMPDEST PUSH32 0x5354414B45445F4752475F414D4F554E545F42454C4F575F4D494E494D554D5F DUP2 MSTORE PUSH32 0x4552524F52000000000000000000000000000000000000000000000000000000 PUSH1 0x20 DUP3 ADD MSTORE PUSH1 0x40 ADD SWAP3 SWAP2 POP POP JUMP JUMPDEST PUSH1 0x0 PUSH2 0xFA2 PUSH1 0xF DUP4 PUSH2 0x10F3 JUMP JUMPDEST PUSH32 0x54494D455F4E4F545F454E4F5547480000000000000000000000000000000000 DUP2 MSTORE PUSH1 0x20 ADD SWAP3 SWAP2 POP POP JUMP JUMPDEST PUSH1 0x0 PUSH2 0xFDB PUSH1 0x12 DUP4 PUSH2 0x10F3 JUMP JUMPDEST PUSH32 0x4F4E4C595F5249474F424C4F434B5F44414F0000000000000000000000000000 DUP2 MSTORE PUSH1 0x20 ADD SWAP3 SWAP2 POP POP JUMP JUMPDEST PUSH1 0x20 DUP2 ADD PUSH2 0xC05 DUP3 DUP5 PUSH2 0xDAC JUMP JUMPDEST PUSH1 0x40 DUP2 ADD PUSH2 0x1023 DUP3 DUP6 PUSH2 0xDAC JUMP JUMPDEST PUSH2 0xC17 PUSH1 0x20 DUP4 ADD DUP5 PUSH2 0xDC4 JUMP JUMPDEST PUSH1 0x20 DUP2 ADD PUSH2 0xC05 DUP3 DUP5 PUSH2 0xDBB JUMP JUMPDEST PUSH1 0x20 DUP2 ADD PUSH2 0xC05 DUP3 DUP5 PUSH2 0xDC4 JUMP JUMPDEST PUSH1 0x20 DUP1 DUP3 MSTORE DUP2 ADD PUSH2 0xC05 DUP2 PUSH2 0xDCD JUMP JUMPDEST PUSH1 0x20 DUP1 DUP3 MSTORE DUP2 ADD PUSH2 0xC05 DUP2 PUSH2 0xE06 JUMP JUMPDEST PUSH1 0x20 DUP1 DUP3 MSTORE DUP2 ADD PUSH2 0xC05 DUP2 PUSH2 0xE3F JUMP JUMPDEST PUSH1 0x20 DUP1 DUP3 MSTORE DUP2 ADD PUSH2 0xC05 DUP2 PUSH2 0xE9E JUMP JUMPDEST PUSH1 0x20 DUP1 DUP3 MSTORE DUP2 ADD PUSH2 0xC05 DUP2 PUSH2 0xED7 JUMP JUMPDEST PUSH1 0x20 DUP1 DUP3 MSTORE DUP2 ADD PUSH2 0xC05 DUP2 PUSH2 0xF36 JUMP JUMPDEST PUSH1 0x20 DUP1 DUP3 MSTORE DUP2 ADD PUSH2 0xC05 DUP2 PUSH2 0xF95 JUMP JUMPDEST PUSH1 0x20 DUP1 DUP3 MSTORE DUP2 ADD PUSH2 0xC05 DUP2 PUSH2 0xFCE JUMP JUMPDEST PUSH1 0x40 MLOAD DUP2 DUP2 ADD PUSH8 0xFFFFFFFFFFFFFFFF DUP2 GT DUP3 DUP3 LT OR ISZERO PUSH2 0x10EB JUMPI PUSH1 0x0 DUP1 REVERT JUMPDEST PUSH1 0x40 MSTORE SWAP2 SWAP1 POP JUMP JUMPDEST SWAP1 DUP2 MSTORE PUSH1 0x20 ADD SWAP1 JUMP JUMPDEST PUSH1 0x0 PUSH2 0xC05 DUP3 PUSH2 0x110F JUMP JUMPDEST ISZERO ISZERO SWAP1 JUMP JUMPDEST SWAP1 JUMP JUMPDEST PUSH20 0xFFFFFFFFFFFFFFFFFFFFFFFFFFFFFFFFFFFFFFFF AND SWAP1 JUMP JUMPDEST PUSH8 0xFFFFFFFFFFFFFFFF AND SWAP1 JUMP JUMPDEST PUSH12 0xFFFFFFFFFFFFFFFFFFFFFFFF AND SWAP1 JUMP INVALID LOG2 PUSH6 0x627A7A723058 KECCAK256 0x1e CALLCODE 0xe4 0xd8 DIFFICULTY PUSH12 0x536704C2F19C817BD0ACA23C DUP3 0xbf PUSH1 0x62 0x25 SWAP9 ADD SLT 0xe3 0xd7 SWAP7 SWAP14 PUSH31 0x3E6C6578706572696D656E74616CF500370000000000000000000000000000 "
			}
		}
	},
	"sourceTreeHashHex": "0x3eed47d248c3af6f4c4d1707fd02eaa43980468988adf2e23f049110c765983d",
	"compiler": {
		"name": "solc",
		"version": "0.5.4+commit.9549d8ff",
		"settings": {
			"remappings": [],
			"optimizer": {
				"enabled": true,
				"runs": 1000000
			},
			"outputSelection": {
				"*": {
					"*": [
						"abi",
						"devdoc",
						"evm.bytecode.object",
						"evm.bytecode.sourceMap",
						"evm.deployedBytecode.object",
						"evm.deployedBytecode.sourceMap"
					]
				}
			}
		}
	},
	"chains": {}
}