{
	"schemaVersion": "2.0.0",
	"contractName": "Inflation",
	"compilerOutput": {
		"abi": [
			{
				"constant": false,
				"inputs": [
					{
						"name": "groupAddress",
						"type": "address"
					},
					{
						"name": "inflationFactor",
						"type": "uint256"
					}
				],
				"name": "setInflationFactor",
				"outputs": [],
				"payable": false,
				"stateMutability": "nonpayable",
				"type": "function"
			},
			{
				"constant": false,
				"inputs": [
					{
						"name": "newPeriod",
						"type": "uint256"
					}
				],
				"name": "setPeriod",
				"outputs": [],
				"payable": false,
				"stateMutability": "nonpayable",
				"type": "function"
			},
			{
				"constant": true,
				"inputs": [],
				"name": "slot",
				"outputs": [
					{
						"name": "",
						"type": "uint256"
					}
				],
				"payable": false,
				"stateMutability": "view",
				"type": "function"
			},
			{
				"constant": true,
				"inputs": [],
				"name": "rigoblockDao",
				"outputs": [
					{
						"name": "",
						"type": "address"
					}
				],
				"payable": false,
				"stateMutability": "view",
				"type": "function"
			},
			{
				"constant": true,
				"inputs": [
					{
						"name": "stakingPoolId",
						"type": "bytes32"
					}
				],
				"name": "timeUntilClaim",
				"outputs": [
					{
						"name": "",
						"type": "uint256"
					}
				],
				"payable": false,
				"stateMutability": "view",
				"type": "function"
			},
			{
				"constant": true,
				"inputs": [
					{
						"name": "totalGrgDelegatedToPool",
						"type": "uint256"
					}
				],
				"name": "getMaxEpochReward",
				"outputs": [
					{
						"name": "",
						"type": "uint256"
					}
				],
				"payable": false,
				"stateMutability": "view",
				"type": "function"
			},
			{
				"constant": true,
				"inputs": [],
				"name": "GRG_VAULT_ADDRESS",
				"outputs": [
					{
						"name": "",
						"type": "address"
					}
				],
				"payable": false,
				"stateMutability": "view",
				"type": "function"
			},
			{
				"constant": true,
				"inputs": [
					{
						"name": "stakingPoolId",
						"type": "bytes32"
					}
				],
				"name": "canWithdraw",
				"outputs": [
					{
						"name": "",
						"type": "bool"
					}
				],
				"payable": false,
				"stateMutability": "view",
				"type": "function"
			},
			{
				"constant": false,
				"inputs": [
					{
						"name": "minimum",
						"type": "uint256"
					}
				],
				"name": "setMinimumRigo",
				"outputs": [],
				"payable": false,
				"stateMutability": "nonpayable",
				"type": "function"
			},
			{
				"constant": false,
				"inputs": [
					{
						"name": "newRigoblockDaoAddress",
						"type": "address"
					}
				],
				"name": "setRigoblock",
				"outputs": [],
				"payable": false,
				"stateMutability": "nonpayable",
				"type": "function"
			},
			{
				"constant": false,
				"inputs": [
					{
						"name": "authorityAddress",
						"type": "address"
					}
				],
				"name": "setAuthority",
				"outputs": [],
				"payable": false,
				"stateMutability": "nonpayable",
				"type": "function"
			},
			{
				"constant": false,
				"inputs": [
					{
						"name": "stakingPoolId",
						"type": "bytes32"
					},
					{
						"name": "reward",
						"type": "uint256"
					}
				],
				"name": "mintInflation",
				"outputs": [
					{
						"name": "",
						"type": "bool"
					}
				],
				"payable": false,
				"stateMutability": "nonpayable",
				"type": "function"
			},
			{
				"constant": true,
				"inputs": [],
				"name": "RIGOTOKENADDRESS",
				"outputs": [
					{
						"name": "",
						"type": "address"
					}
				],
				"payable": false,
				"stateMutability": "view",
				"type": "function"
			},
			{
				"constant": true,
				"inputs": [],
				"name": "authority",
				"outputs": [
					{
						"name": "",
						"type": "address"
					}
				],
				"payable": false,
				"stateMutability": "view",
				"type": "function"
			},
			{
				"constant": true,
				"inputs": [
					{
						"name": "groupAddress",
						"type": "address"
					}
				],
				"name": "getInflationFactor",
				"outputs": [
					{
						"name": "",
						"type": "uint256"
					}
				],
				"payable": false,
				"stateMutability": "view",
				"type": "function"
			},
			{
				"constant": false,
				"inputs": [
					{
						"name": "popAddress",
						"type": "address"
					}
				],
				"name": "setProofOfPerformance",
				"outputs": [],
				"payable": false,
				"stateMutability": "nonpayable",
				"type": "function"
			},
			{
				"constant": true,
				"inputs": [],
				"name": "proofOfPerformance",
				"outputs": [
					{
						"name": "",
						"type": "address"
					}
				],
				"payable": false,
				"stateMutability": "view",
				"type": "function"
			},
			{
				"constant": true,
				"inputs": [],
				"name": "period",
				"outputs": [
					{
						"name": "",
						"type": "uint256"
					}
				],
				"payable": false,
				"stateMutability": "view",
				"type": "function"
			},
			{
				"constant": true,
				"inputs": [],
				"name": "minimumGRG",
				"outputs": [
					{
						"name": "",
						"type": "uint256"
					}
				],
				"payable": false,
				"stateMutability": "view",
				"type": "function"
			},
			{
				"inputs": [
					{
						"name": "_rigoTokenAddress",
						"type": "address"
					},
					{
						"name": "_grgVaultAddress",
						"type": "address"
					},
					{
						"name": "_proofOfPerformance",
						"type": "address"
					},
					{
						"name": "_authority",
						"type": "address"
					}
				],
				"payable": false,
				"stateMutability": "nonpayable",
				"type": "constructor"
			}
		],
		"devdoc": {
			"author": "Gabriele Rigo - <gab@rigoblock.com>",
			"methods": {
				"canWithdraw(bytes32)": {
					"details": "Returns whether a staking pool's reward can be claimed.",
					"params": {
						"stakingPoolId": "Address of the target pool."
					},
					"return": "Bool the wizard can claim."
				},
				"getInflationFactor(address)": {
					"details": "Return the reward factor for a group.",
					"params": {
						"groupAddress": "Address of the group."
					},
					"return": "Value of the reward factor."
				},
				"mintInflation(bytes32,uint256)": {
					"details": "Allows ProofOfPerformance to mint rewards.",
					"params": {
						"reward": "Number of reward in Rigo tokens.",
						"stakingPoolId": "String of the staking pool."
					},
					"return": "Bool the transaction executed correctly."
				},
				"setAuthority(address)": {
					"details": "Allows rigoblock dao to update the authority.",
					"params": {
						"authorityAddress": "Address of the authority."
					}
				},
				"setInflationFactor(address,uint256)": {
					"details": "Allows rigoblock dao to set the inflation factor for a group.",
					"params": {
						"groupAddress": "Address of the group/factory.",
						"inflationFactor": "Value of the reward factor."
					}
				},
				"setMinimumRigo(uint256)": {
					"details": "Allows rigoblock dao to set the minimum number of required tokens.",
					"params": {
						"minimum": "Number of minimum tokens."
					}
				},
				"setPeriod(uint256)": {
					"details": "Allows rigoblock dao to set the minimum time between reward collection.",
					"params": {
						"newPeriod": "Number of seconds between 2 rewards."
					}
				},
				"setProofOfPerformance(address)": {
					"details": "Allows rigoblock dao to update proof of performance.",
					"params": {
						"popAddress": "Address of the Proof of Performance contract."
					}
				},
				"setRigoblock(address)": {
					"details": "Allows rigoblock dao to upgrade its address.",
					"params": {
						"newRigoblockDaoAddress": "Address of the new rigoblock dao."
					}
				},
				"timeUntilClaim(bytes32)": {
					"details": "Returns how much time needed until next claim.",
					"params": {
						"stakingPoolId": "Address of the target pool."
					},
					"return": "Number in seconds."
				}
			},
			"title": "Inflation - Allows ProofOfPerformance to mint tokens."
		},
		"evm": {
			"bytecode": {
				"linkReferences": {},
				"object": "0x60806040526212750060025568056bc75e2d631000006003553480156200002557600080fd5b50604051608080620013c98339810180604052620000479190810190620000ba565b60008054600160a060020a03958616600160a060020a03199182161790915560018054948616948216949094179093556007805484163317905560058054928516928416929092179091556006805491909316911617905562000143565b6000620000b3825162000124565b9392505050565b60008060008060808587031215620000d157600080fd5b6000620000df8787620000a5565b9450506020620000f287828801620000a5565b93505060406200010587828801620000a5565b92505060606200011887828801620000a5565b91505092959194509250565b6000620001318262000137565b92915050565b600160a060020a031690565b61127680620001536000396000f3fe608060405234801561001057600080fd5b506004361061016e576000357c0100000000000000000000000000000000000000000000000000000000900480637802815c116100ea578063d410e0c21161009e578063e70eadc011610083578063e70eadc01461029e578063ef78d4fd146102a6578063ff54a8e0146102ae5761016e565b8063d410e0c214610278578063d9ed29aa1461028b5761016e565b80637fa36e40116100cf5780637fa36e4014610255578063a6c9c44314610268578063bf7e214f146102705761016e565b80637802815c1461022f5780637a9e5e4b146102425761016e565b806342a86d65116101415780636ac91666116101265780636ac91666146101f45780636fb70c76146101fc57806374bab5501461021c5761016e565b806342a86d65146101ce57806357a15c03146101e15761016e565b8063020e0cdb146101735780630f3a9f65146101885780631a88bc661461019b5780633edd80c3146101b9575b600080fd5b610186610181366004610df2565b6102b6565b005b610186610196366004610e4a565b61041b565b6101a36104c0565b6040516101b09190611137565b60405180910390f35b6101c16104c6565b6040516101b09190611100565b6101a36101dc366004610e4a565b6104e2565b6101a36101ef366004610e4a565b610514565b6101c1610537565b61020f61020a366004610e4a565b610553565b6040516101b09190611129565b61018661022a366004610e4a565b610573565b61018661023d366004610dae565b61060c565b610186610250366004610dae565b6106a4565b61020f610263366004610e68565b61073c565b6101c1610961565b6101c161097d565b6101a3610286366004610dae565b610999565b610186610299366004610dae565b6109c1565b6101c1610a59565b6101a3610a75565b6101a3610a7b565b60075473ffffffffffffffffffffffffffffffffffffffff163314610310576040517f08c379a0000000000000000000000000000000000000000000000000000000008152600401610307906111a5565b60405180910390fd5b6006546040517fdcb7a3e0000000000000000000000000000000000000000000000000000000008152839173ffffffffffffffffffffffffffffffffffffffff1690819063dcb7a3e090610368908590600401611100565b60206040518083038186803b15801561038057600080fd5b505afa158015610394573d6000803e3d6000fd5b505050506040513d601f19601f820116820180604052506103b89190810190610e2c565b15156103f0576040517f08c379a000000000000000000000000000000000000000000000000000000000815260040161030790611165565b505073ffffffffffffffffffffffffffffffffffffffff909116600090815260096020526040902055565b60075473ffffffffffffffffffffffffffffffffffffffff16331461046c576040517f08c379a0000000000000000000000000000000000000000000000000000000008152600401610307906111a5565b62015180811015801561048357506301e133808111155b15156104bb576040517f08c379a000000000000000000000000000000000000000000000000000000000815260040161030790611175565b600255565b60045481565b60075473ffffffffffffffffffffffffffffffffffffffff1681565b60008181526008602052604081206003015442101561050f57506000818152600860205260409020600301545b919050565b60006105316002548302610526610a81565b6301e1338002610abb565b92915050565b60015473ffffffffffffffffffffffffffffffffffffffff1681565b600081815260086020526040812060030154421061050f5750600161050f565b60075473ffffffffffffffffffffffffffffffffffffffff1633146105c4576040517f08c379a0000000000000000000000000000000000000000000000000000000008152600401610307906111a5565b68056bc75e2d63100000811015610607576040517f08c379a000000000000000000000000000000000000000000000000000000000815260040161030790611155565b600355565b60075473ffffffffffffffffffffffffffffffffffffffff16331461065d576040517f08c379a0000000000000000000000000000000000000000000000000000000008152600401610307906111a5565b600780547fffffffffffffffffffffffff00000000000000000000000000000000000000001673ffffffffffffffffffffffffffffffffffffffff92909216919091179055565b60075473ffffffffffffffffffffffffffffffffffffffff1633146106f5576040517f08c379a0000000000000000000000000000000000000000000000000000000008152600401610307906111a5565b600680547fffffffffffffffffffffffff00000000000000000000000000000000000000001673ffffffffffffffffffffffffffffffffffffffff92909216919091179055565b60055460009073ffffffffffffffffffffffffffffffffffffffff163314610790576040517f08c379a000000000000000000000000000000000000000000000000000000000815260040161030790611145565b60008381526008602052604090206003015483904210156107dd576040517f08c379a000000000000000000000000000000000000000000000000000000000815260040161030790611195565b60006107e885610af7565b90506107f381610c74565b6107fd8482610cb3565b6000858152600860205260408082204260028083018290555401600390910155600480546001018155915460075491517f79c65068000000000000000000000000000000000000000000000000000000008152606460058902049373ffffffffffffffffffffffffffffffffffffffff9283169384936379c650689361088a93919092169187910161110e565b600060405180830381600087803b1580156108a457600080fd5b505af11580156108b8573d6000803e3d6000fd5b505060015473ffffffffffffffffffffffffffffffffffffffff80851693506379c650689250166108e98986610cf9565b6040518363ffffffff167c010000000000000000000000000000000000000000000000000000000002815260040161092292919061110e565b600060405180830381600087803b15801561093c57600080fd5b505af1158015610950573d6000803e3d6000fd5b5060019a9950505050505050505050565b60005473ffffffffffffffffffffffffffffffffffffffff1681565b60065473ffffffffffffffffffffffffffffffffffffffff1681565b73ffffffffffffffffffffffffffffffffffffffff1660009081526009602052604090205490565b60075473ffffffffffffffffffffffffffffffffffffffff163314610a12576040517f08c379a0000000000000000000000000000000000000000000000000000000008152600401610307906111a5565b600580547fffffffffffffffffffffffff00000000000000000000000000000000000000001673ffffffffffffffffffffffffffffffffffffffff92909216919091179055565b60055473ffffffffffffffffffffffffffffffffffffffff1681565b60025481565b60035481565b600063618c40e042811115610a9a576001915050610ab8565b806301dfe20001421015610ab2576002915050610ab8565b60049150505b90565b6000808211610ac657fe5b60008284811515610ad357fe5b0490508284811515610ae157fe5b068184020184141515610af057fe5b9392505050565b600080600160009054906101000a900473ffffffffffffffffffffffffffffffffffffffff1673ffffffffffffffffffffffffffffffffffffffff1663c4d8f2376040518163ffffffff167c010000000000000000000000000000000000000000000000000000000002815260040160206040518083038186803b158015610b7e57600080fd5b505afa158015610b92573d6000803e3d6000fd5b505050506040513d601f19601f82011682018060405250610bb69190810190610dd4565b6040517f3e4ad73200000000000000000000000000000000000000000000000000000000815290915073ffffffffffffffffffffffffffffffffffffffff821690633e4ad73290610c0b908690600401611137565b60606040518083038186803b158015610c2357600080fd5b505afa158015610c37573d6000803e3d6000fd5b505050506040513d601f19601f82011682018060405250610c5b9190810190610e87565b602001516bffffffffffffffffffffffff169392505050565b600354811015610cb0576040517f08c379a000000000000000000000000000000000000000000000000000000000815260040161030790611185565b50565b610cbc81610514565b821115610cf5576040517f08c379a0000000000000000000000000000000000000000000000000000000008152600401610307906111b5565b5050565b600082821115610d0557fe5b50900390565b6000610af082356111f5565b6000610af082516111f5565b6000610af08251611200565b6000610af08235610ab8565b600060608284031215610d4d57600080fd5b610d5760606111c5565b90506000610d658484610d96565b8252506020610d7684848301610da2565b6020830152506040610d8a84828501610da2565b60408301525092915050565b6000610af0825161121e565b6000610af0825161122b565b600060208284031215610dc057600080fd5b6000610dcc8484610d0b565b949350505050565b600060208284031215610de657600080fd5b6000610dcc8484610d17565b60008060408385031215610e0557600080fd5b6000610e118585610d0b565b9250506020610e2285828601610d2f565b9150509250929050565b600060208284031215610e3e57600080fd5b6000610dcc8484610d23565b600060208284031215610e5c57600080fd5b6000610dcc8484610d2f565b60008060408385031215610e7b57600080fd5b6000610e118585610d2f565b600060608284031215610e9957600080fd5b6000610dcc8484610d3b565b610eae816111f5565b82525050565b610eae81611200565b610eae81610ab8565b6000610ed36019836111ec565b7f4f4e4c595f50524f4f465f4f465f504552464f524d414e434500000000000000815260200192915050565b6000610f0c601b836111ec565b7f4d494e494d554d5f4752475f42454c4f575f3130305f4552524f520000000000815260200192915050565b6000610f456016836111ec565b7f4e4f545f415050524f5645445f415554484f5249545900000000000000000000815260200192915050565b6000610f7e6022836111ec565b7f504552494f445f544f4f5f4c4f4e475f4f525f544f4f5f53484f52545f45525281527f4f52000000000000000000000000000000000000000000000000000000000000602082015260400192915050565b6000610fdd6025836111ec565b7f5354414b45445f4752475f414d4f554e545f42454c4f575f4d494e494d554d5f81527f4552524f52000000000000000000000000000000000000000000000000000000602082015260400192915050565b600061103c600f836111ec565b7f54494d455f4e4f545f454e4f5547480000000000000000000000000000000000815260200192915050565b60006110756012836111ec565b7f4f4e4c595f5249474f424c4f434b5f44414f0000000000000000000000000000815260200192915050565b60006110ae6023836111ec565b7f5245574152445f41424f56455f4d41585f45504f43485f5245574152445f455281527f524f520000000000000000000000000000000000000000000000000000000000602082015260400192915050565b602081016105318284610ea5565b6040810161111c8285610ea5565b610af06020830184610ebd565b602081016105318284610eb4565b602081016105318284610ebd565b6020808252810161053181610ec6565b6020808252810161053181610eff565b6020808252810161053181610f38565b6020808252810161053181610f71565b6020808252810161053181610fd0565b602080825281016105318161102f565b6020808252810161053181611068565b60208082528101610531816110a1565b60405181810167ffffffffffffffff811182821017156111e457600080fd5b604052919050565b90815260200190565b600061053182611205565b151590565b73ffffffffffffffffffffffffffffffffffffffff1690565b67ffffffffffffffff1690565b6bffffffffffffffffffffffff169056fea265627a7a72305820dd7c1b3bd7d7b63b0716d5dbbddac999ce5c40f0d89c1c957f27f23daf3012a46c6578706572696d656e74616cf50037",
				"opcodes": "PUSH1 0x80 PUSH1 0x40 MSTORE PUSH3 0x127500 PUSH1 0x2 SSTORE PUSH9 0x56BC75E2D63100000 PUSH1 0x3 SSTORE CALLVALUE DUP1 ISZERO PUSH3 0x25 JUMPI PUSH1 0x0 DUP1 REVERT JUMPDEST POP PUSH1 0x40 MLOAD PUSH1 0x80 DUP1 PUSH3 0x13C9 DUP4 CODECOPY DUP2 ADD DUP1 PUSH1 0x40 MSTORE PUSH3 0x47 SWAP2 SWAP1 DUP2 ADD SWAP1 PUSH3 0xBA JUMP JUMPDEST PUSH1 0x0 DUP1 SLOAD PUSH1 0x1 PUSH1 0xA0 PUSH1 0x2 EXP SUB SWAP6 DUP7 AND PUSH1 0x1 PUSH1 0xA0 PUSH1 0x2 EXP SUB NOT SWAP2 DUP3 AND OR SWAP1 SWAP2 SSTORE PUSH1 0x1 DUP1 SLOAD SWAP5 DUP7 AND SWAP5 DUP3 AND SWAP5 SWAP1 SWAP5 OR SWAP1 SWAP4 SSTORE PUSH1 0x7 DUP1 SLOAD DUP5 AND CALLER OR SWAP1 SSTORE PUSH1 0x5 DUP1 SLOAD SWAP3 DUP6 AND SWAP3 DUP5 AND SWAP3 SWAP1 SWAP3 OR SWAP1 SWAP2 SSTORE PUSH1 0x6 DUP1 SLOAD SWAP2 SWAP1 SWAP4 AND SWAP2 AND OR SWAP1 SSTORE PUSH3 0x143 JUMP JUMPDEST PUSH1 0x0 PUSH3 0xB3 DUP3 MLOAD PUSH3 0x124 JUMP JUMPDEST SWAP4 SWAP3 POP POP POP JUMP JUMPDEST PUSH1 0x0 DUP1 PUSH1 0x0 DUP1 PUSH1 0x80 DUP6 DUP8 SUB SLT ISZERO PUSH3 0xD1 JUMPI PUSH1 0x0 DUP1 REVERT JUMPDEST PUSH1 0x0 PUSH3 0xDF DUP8 DUP8 PUSH3 0xA5 JUMP JUMPDEST SWAP5 POP POP PUSH1 0x20 PUSH3 0xF2 DUP8 DUP3 DUP9 ADD PUSH3 0xA5 JUMP JUMPDEST SWAP4 POP POP PUSH1 0x40 PUSH3 0x105 DUP8 DUP3 DUP9 ADD PUSH3 0xA5 JUMP JUMPDEST SWAP3 POP POP PUSH1 0x60 PUSH3 0x118 DUP8 DUP3 DUP9 ADD PUSH3 0xA5 JUMP JUMPDEST SWAP2 POP POP SWAP3 SWAP6 SWAP2 SWAP5 POP SWAP3 POP JUMP JUMPDEST PUSH1 0x0 PUSH3 0x131 DUP3 PUSH3 0x137 JUMP JUMPDEST SWAP3 SWAP2 POP POP JUMP JUMPDEST PUSH1 0x1 PUSH1 0xA0 PUSH1 0x2 EXP SUB AND SWAP1 JUMP JUMPDEST PUSH2 0x1276 DUP1 PUSH3 0x153 PUSH1 0x0 CODECOPY PUSH1 0x0 RETURN INVALID PUSH1 0x80 PUSH1 0x40 MSTORE CALLVALUE DUP1 ISZERO PUSH2 0x10 JUMPI PUSH1 0x0 DUP1 REVERT JUMPDEST POP PUSH1 0x4 CALLDATASIZE LT PUSH2 0x16E JUMPI PUSH1 0x0 CALLDATALOAD PUSH29 0x100000000000000000000000000000000000000000000000000000000 SWAP1 DIV DUP1 PUSH4 0x7802815C GT PUSH2 0xEA JUMPI DUP1 PUSH4 0xD410E0C2 GT PUSH2 0x9E JUMPI DUP1 PUSH4 0xE70EADC0 GT PUSH2 0x83 JUMPI DUP1 PUSH4 0xE70EADC0 EQ PUSH2 0x29E JUMPI DUP1 PUSH4 0xEF78D4FD EQ PUSH2 0x2A6 JUMPI DUP1 PUSH4 0xFF54A8E0 EQ PUSH2 0x2AE JUMPI PUSH2 0x16E JUMP JUMPDEST DUP1 PUSH4 0xD410E0C2 EQ PUSH2 0x278 JUMPI DUP1 PUSH4 0xD9ED29AA EQ PUSH2 0x28B JUMPI PUSH2 0x16E JUMP JUMPDEST DUP1 PUSH4 0x7FA36E40 GT PUSH2 0xCF JUMPI DUP1 PUSH4 0x7FA36E40 EQ PUSH2 0x255 JUMPI DUP1 PUSH4 0xA6C9C443 EQ PUSH2 0x268 JUMPI DUP1 PUSH4 0xBF7E214F EQ PUSH2 0x270 JUMPI PUSH2 0x16E JUMP JUMPDEST DUP1 PUSH4 0x7802815C EQ PUSH2 0x22F JUMPI DUP1 PUSH4 0x7A9E5E4B EQ PUSH2 0x242 JUMPI PUSH2 0x16E JUMP JUMPDEST DUP1 PUSH4 0x42A86D65 GT PUSH2 0x141 JUMPI DUP1 PUSH4 0x6AC91666 GT PUSH2 0x126 JUMPI DUP1 PUSH4 0x6AC91666 EQ PUSH2 0x1F4 JUMPI DUP1 PUSH4 0x6FB70C76 EQ PUSH2 0x1FC JUMPI DUP1 PUSH4 0x74BAB550 EQ PUSH2 0x21C JUMPI PUSH2 0x16E JUMP JUMPDEST DUP1 PUSH4 0x42A86D65 EQ PUSH2 0x1CE JUMPI DUP1 PUSH4 0x57A15C03 EQ PUSH2 0x1E1 JUMPI PUSH2 0x16E JUMP JUMPDEST DUP1 PUSH4 0x20E0CDB EQ PUSH2 0x173 JUMPI DUP1 PUSH4 0xF3A9F65 EQ PUSH2 0x188 JUMPI DUP1 PUSH4 0x1A88BC66 EQ PUSH2 0x19B JUMPI DUP1 PUSH4 0x3EDD80C3 EQ PUSH2 0x1B9 JUMPI JUMPDEST PUSH1 0x0 DUP1 REVERT JUMPDEST PUSH2 0x186 PUSH2 0x181 CALLDATASIZE PUSH1 0x4 PUSH2 0xDF2 JUMP JUMPDEST PUSH2 0x2B6 JUMP JUMPDEST STOP JUMPDEST PUSH2 0x186 PUSH2 0x196 CALLDATASIZE PUSH1 0x4 PUSH2 0xE4A JUMP JUMPDEST PUSH2 0x41B JUMP JUMPDEST PUSH2 0x1A3 PUSH2 0x4C0 JUMP JUMPDEST PUSH1 0x40 MLOAD PUSH2 0x1B0 SWAP2 SWAP1 PUSH2 0x1137 JUMP JUMPDEST PUSH1 0x40 MLOAD DUP1 SWAP2 SUB SWAP1 RETURN JUMPDEST PUSH2 0x1C1 PUSH2 0x4C6 JUMP JUMPDEST PUSH1 0x40 MLOAD PUSH2 0x1B0 SWAP2 SWAP1 PUSH2 0x1100 JUMP JUMPDEST PUSH2 0x1A3 PUSH2 0x1DC CALLDATASIZE PUSH1 0x4 PUSH2 0xE4A JUMP JUMPDEST PUSH2 0x4E2 JUMP JUMPDEST PUSH2 0x1A3 PUSH2 0x1EF CALLDATASIZE PUSH1 0x4 PUSH2 0xE4A JUMP JUMPDEST PUSH2 0x514 JUMP JUMPDEST PUSH2 0x1C1 PUSH2 0x537 JUMP JUMPDEST PUSH2 0x20F PUSH2 0x20A CALLDATASIZE PUSH1 0x4 PUSH2 0xE4A JUMP JUMPDEST PUSH2 0x553 JUMP JUMPDEST PUSH1 0x40 MLOAD PUSH2 0x1B0 SWAP2 SWAP1 PUSH2 0x1129 JUMP JUMPDEST PUSH2 0x186 PUSH2 0x22A CALLDATASIZE PUSH1 0x4 PUSH2 0xE4A JUMP JUMPDEST PUSH2 0x573 JUMP JUMPDEST PUSH2 0x186 PUSH2 0x23D CALLDATASIZE PUSH1 0x4 PUSH2 0xDAE JUMP JUMPDEST PUSH2 0x60C JUMP JUMPDEST PUSH2 0x186 PUSH2 0x250 CALLDATASIZE PUSH1 0x4 PUSH2 0xDAE JUMP JUMPDEST PUSH2 0x6A4 JUMP JUMPDEST PUSH2 0x20F PUSH2 0x263 CALLDATASIZE PUSH1 0x4 PUSH2 0xE68 JUMP JUMPDEST PUSH2 0x73C JUMP JUMPDEST PUSH2 0x1C1 PUSH2 0x961 JUMP JUMPDEST PUSH2 0x1C1 PUSH2 0x97D JUMP JUMPDEST PUSH2 0x1A3 PUSH2 0x286 CALLDATASIZE PUSH1 0x4 PUSH2 0xDAE JUMP JUMPDEST PUSH2 0x999 JUMP JUMPDEST PUSH2 0x186 PUSH2 0x299 CALLDATASIZE PUSH1 0x4 PUSH2 0xDAE JUMP JUMPDEST PUSH2 0x9C1 JUMP JUMPDEST PUSH2 0x1C1 PUSH2 0xA59 JUMP JUMPDEST PUSH2 0x1A3 PUSH2 0xA75 JUMP JUMPDEST PUSH2 0x1A3 PUSH2 0xA7B JUMP JUMPDEST PUSH1 0x7 SLOAD PUSH20 0xFFFFFFFFFFFFFFFFFFFFFFFFFFFFFFFFFFFFFFFF AND CALLER EQ PUSH2 0x310 JUMPI PUSH1 0x40 MLOAD PUSH32 0x8C379A000000000000000000000000000000000000000000000000000000000 DUP2 MSTORE PUSH1 0x4 ADD PUSH2 0x307 SWAP1 PUSH2 0x11A5 JUMP JUMPDEST PUSH1 0x40 MLOAD DUP1 SWAP2 SUB SWAP1 REVERT JUMPDEST PUSH1 0x6 SLOAD PUSH1 0x40 MLOAD PUSH32 0xDCB7A3E000000000000000000000000000000000000000000000000000000000 DUP2 MSTORE DUP4 SWAP2 PUSH20 0xFFFFFFFFFFFFFFFFFFFFFFFFFFFFFFFFFFFFFFFF AND SWAP1 DUP2 SWAP1 PUSH4 0xDCB7A3E0 SWAP1 PUSH2 0x368 SWAP1 DUP6 SWAP1 PUSH1 0x4 ADD PUSH2 0x1100 JUMP JUMPDEST PUSH1 0x20 PUSH1 0x40 MLOAD DUP1 DUP4 SUB DUP2 DUP7 DUP1 EXTCODESIZE ISZERO DUP1 ISZERO PUSH2 0x380 JUMPI PUSH1 0x0 DUP1 REVERT JUMPDEST POP GAS STATICCALL ISZERO DUP1 ISZERO PUSH2 0x394 JUMPI RETURNDATASIZE PUSH1 0x0 DUP1 RETURNDATACOPY RETURNDATASIZE PUSH1 0x0 REVERT JUMPDEST POP POP POP POP PUSH1 0x40 MLOAD RETURNDATASIZE PUSH1 0x1F NOT PUSH1 0x1F DUP3 ADD AND DUP3 ADD DUP1 PUSH1 0x40 MSTORE POP PUSH2 0x3B8 SWAP2 SWAP1 DUP2 ADD SWAP1 PUSH2 0xE2C JUMP JUMPDEST ISZERO ISZERO PUSH2 0x3F0 JUMPI PUSH1 0x40 MLOAD PUSH32 0x8C379A000000000000000000000000000000000000000000000000000000000 DUP2 MSTORE PUSH1 0x4 ADD PUSH2 0x307 SWAP1 PUSH2 0x1165 JUMP JUMPDEST POP POP PUSH20 0xFFFFFFFFFFFFFFFFFFFFFFFFFFFFFFFFFFFFFFFF SWAP1 SWAP2 AND PUSH1 0x0 SWAP1 DUP2 MSTORE PUSH1 0x9 PUSH1 0x20 MSTORE PUSH1 0x40 SWAP1 KECCAK256 SSTORE JUMP JUMPDEST PUSH1 0x7 SLOAD PUSH20 0xFFFFFFFFFFFFFFFFFFFFFFFFFFFFFFFFFFFFFFFF AND CALLER EQ PUSH2 0x46C JUMPI PUSH1 0x40 MLOAD PUSH32 0x8C379A000000000000000000000000000000000000000000000000000000000 DUP2 MSTORE PUSH1 0x4 ADD PUSH2 0x307 SWAP1 PUSH2 0x11A5 JUMP JUMPDEST PUSH3 0x15180 DUP2 LT ISZERO DUP1 ISZERO PUSH2 0x483 JUMPI POP PUSH4 0x1E13380 DUP2 GT ISZERO JUMPDEST ISZERO ISZERO PUSH2 0x4BB JUMPI PUSH1 0x40 MLOAD PUSH32 0x8C379A000000000000000000000000000000000000000000000000000000000 DUP2 MSTORE PUSH1 0x4 ADD PUSH2 0x307 SWAP1 PUSH2 0x1175 JUMP JUMPDEST PUSH1 0x2 SSTORE JUMP JUMPDEST PUSH1 0x4 SLOAD DUP2 JUMP JUMPDEST PUSH1 0x7 SLOAD PUSH20 0xFFFFFFFFFFFFFFFFFFFFFFFFFFFFFFFFFFFFFFFF AND DUP2 JUMP JUMPDEST PUSH1 0x0 DUP2 DUP2 MSTORE PUSH1 0x8 PUSH1 0x20 MSTORE PUSH1 0x40 DUP2 KECCAK256 PUSH1 0x3 ADD SLOAD TIMESTAMP LT ISZERO PUSH2 0x50F JUMPI POP PUSH1 0x0 DUP2 DUP2 MSTORE PUSH1 0x8 PUSH1 0x20 MSTORE PUSH1 0x40 SWAP1 KECCAK256 PUSH1 0x3 ADD SLOAD JUMPDEST SWAP2 SWAP1 POP JUMP JUMPDEST PUSH1 0x0 PUSH2 0x531 PUSH1 0x2 SLOAD DUP4 MUL PUSH2 0x526 PUSH2 0xA81 JUMP JUMPDEST PUSH4 0x1E13380 MUL PUSH2 0xABB JUMP JUMPDEST SWAP3 SWAP2 POP POP JUMP JUMPDEST PUSH1 0x1 SLOAD PUSH20 0xFFFFFFFFFFFFFFFFFFFFFFFFFFFFFFFFFFFFFFFF AND DUP2 JUMP JUMPDEST PUSH1 0x0 DUP2 DUP2 MSTORE PUSH1 0x8 PUSH1 0x20 MSTORE PUSH1 0x40 DUP2 KECCAK256 PUSH1 0x3 ADD SLOAD TIMESTAMP LT PUSH2 0x50F JUMPI POP PUSH1 0x1 PUSH2 0x50F JUMP JUMPDEST PUSH1 0x7 SLOAD PUSH20 0xFFFFFFFFFFFFFFFFFFFFFFFFFFFFFFFFFFFFFFFF AND CALLER EQ PUSH2 0x5C4 JUMPI PUSH1 0x40 MLOAD PUSH32 0x8C379A000000000000000000000000000000000000000000000000000000000 DUP2 MSTORE PUSH1 0x4 ADD PUSH2 0x307 SWAP1 PUSH2 0x11A5 JUMP JUMPDEST PUSH9 0x56BC75E2D63100000 DUP2 LT ISZERO PUSH2 0x607 JUMPI PUSH1 0x40 MLOAD PUSH32 0x8C379A000000000000000000000000000000000000000000000000000000000 DUP2 MSTORE PUSH1 0x4 ADD PUSH2 0x307 SWAP1 PUSH2 0x1155 JUMP JUMPDEST PUSH1 0x3 SSTORE JUMP JUMPDEST PUSH1 0x7 SLOAD PUSH20 0xFFFFFFFFFFFFFFFFFFFFFFFFFFFFFFFFFFFFFFFF AND CALLER EQ PUSH2 0x65D JUMPI PUSH1 0x40 MLOAD PUSH32 0x8C379A000000000000000000000000000000000000000000000000000000000 DUP2 MSTORE PUSH1 0x4 ADD PUSH2 0x307 SWAP1 PUSH2 0x11A5 JUMP JUMPDEST PUSH1 0x7 DUP1 SLOAD PUSH32 0xFFFFFFFFFFFFFFFFFFFFFFFF0000000000000000000000000000000000000000 AND PUSH20 0xFFFFFFFFFFFFFFFFFFFFFFFFFFFFFFFFFFFFFFFF SWAP3 SWAP1 SWAP3 AND SWAP2 SWAP1 SWAP2 OR SWAP1 SSTORE JUMP JUMPDEST PUSH1 0x7 SLOAD PUSH20 0xFFFFFFFFFFFFFFFFFFFFFFFFFFFFFFFFFFFFFFFF AND CALLER EQ PUSH2 0x6F5 JUMPI PUSH1 0x40 MLOAD PUSH32 0x8C379A000000000000000000000000000000000000000000000000000000000 DUP2 MSTORE PUSH1 0x4 ADD PUSH2 0x307 SWAP1 PUSH2 0x11A5 JUMP JUMPDEST PUSH1 0x6 DUP1 SLOAD PUSH32 0xFFFFFFFFFFFFFFFFFFFFFFFF0000000000000000000000000000000000000000 AND PUSH20 0xFFFFFFFFFFFFFFFFFFFFFFFFFFFFFFFFFFFFFFFF SWAP3 SWAP1 SWAP3 AND SWAP2 SWAP1 SWAP2 OR SWAP1 SSTORE JUMP JUMPDEST PUSH1 0x5 SLOAD PUSH1 0x0 SWAP1 PUSH20 0xFFFFFFFFFFFFFFFFFFFFFFFFFFFFFFFFFFFFFFFF AND CALLER EQ PUSH2 0x790 JUMPI PUSH1 0x40 MLOAD PUSH32 0x8C379A000000000000000000000000000000000000000000000000000000000 DUP2 MSTORE PUSH1 0x4 ADD PUSH2 0x307 SWAP1 PUSH2 0x1145 JUMP JUMPDEST PUSH1 0x0 DUP4 DUP2 MSTORE PUSH1 0x8 PUSH1 0x20 MSTORE PUSH1 0x40 SWAP1 KECCAK256 PUSH1 0x3 ADD SLOAD DUP4 SWAP1 TIMESTAMP LT ISZERO PUSH2 0x7DD JUMPI PUSH1 0x40 MLOAD PUSH32 0x8C379A000000000000000000000000000000000000000000000000000000000 DUP2 MSTORE PUSH1 0x4 ADD PUSH2 0x307 SWAP1 PUSH2 0x1195 JUMP JUMPDEST PUSH1 0x0 PUSH2 0x7E8 DUP6 PUSH2 0xAF7 JUMP JUMPDEST SWAP1 POP PUSH2 0x7F3 DUP2 PUSH2 0xC74 JUMP JUMPDEST PUSH2 0x7FD DUP5 DUP3 PUSH2 0xCB3 JUMP JUMPDEST PUSH1 0x0 DUP6 DUP2 MSTORE PUSH1 0x8 PUSH1 0x20 MSTORE PUSH1 0x40 DUP1 DUP3 KECCAK256 TIMESTAMP PUSH1 0x2 DUP1 DUP4 ADD DUP3 SWAP1 SSTORE SLOAD ADD PUSH1 0x3 SWAP1 SWAP2 ADD SSTORE PUSH1 0x4 DUP1 SLOAD PUSH1 0x1 ADD DUP2 SSTORE SWAP2 SLOAD PUSH1 0x7 SLOAD SWAP2 MLOAD PUSH32 0x79C6506800000000000000000000000000000000000000000000000000000000 DUP2 MSTORE PUSH1 0x64 PUSH1 0x5 DUP10 MUL DIV SWAP4 PUSH20 0xFFFFFFFFFFFFFFFFFFFFFFFFFFFFFFFFFFFFFFFF SWAP3 DUP4 AND SWAP4 DUP5 SWAP4 PUSH4 0x79C65068 SWAP4 PUSH2 0x88A SWAP4 SWAP2 SWAP1 SWAP3 AND SWAP2 DUP8 SWAP2 ADD PUSH2 0x110E JUMP JUMPDEST PUSH1 0x0 PUSH1 0x40 MLOAD DUP1 DUP4 SUB DUP2 PUSH1 0x0 DUP8 DUP1 EXTCODESIZE ISZERO DUP1 ISZERO PUSH2 0x8A4 JUMPI PUSH1 0x0 DUP1 REVERT JUMPDEST POP GAS CALL ISZERO DUP1 ISZERO PUSH2 0x8B8 JUMPI RETURNDATASIZE PUSH1 0x0 DUP1 RETURNDATACOPY RETURNDATASIZE PUSH1 0x0 REVERT JUMPDEST POP POP PUSH1 0x1 SLOAD PUSH20 0xFFFFFFFFFFFFFFFFFFFFFFFFFFFFFFFFFFFFFFFF DUP1 DUP6 AND SWAP4 POP PUSH4 0x79C65068 SWAP3 POP AND PUSH2 0x8E9 DUP10 DUP7 PUSH2 0xCF9 JUMP JUMPDEST PUSH1 0x40 MLOAD DUP4 PUSH4 0xFFFFFFFF AND PUSH29 0x100000000000000000000000000000000000000000000000000000000 MUL DUP2 MSTORE PUSH1 0x4 ADD PUSH2 0x922 SWAP3 SWAP2 SWAP1 PUSH2 0x110E JUMP JUMPDEST PUSH1 0x0 PUSH1 0x40 MLOAD DUP1 DUP4 SUB DUP2 PUSH1 0x0 DUP8 DUP1 EXTCODESIZE ISZERO DUP1 ISZERO PUSH2 0x93C JUMPI PUSH1 0x0 DUP1 REVERT JUMPDEST POP GAS CALL ISZERO DUP1 ISZERO PUSH2 0x950 JUMPI RETURNDATASIZE PUSH1 0x0 DUP1 RETURNDATACOPY RETURNDATASIZE PUSH1 0x0 REVERT JUMPDEST POP PUSH1 0x1 SWAP11 SWAP10 POP POP POP POP POP POP POP POP POP POP JUMP JUMPDEST PUSH1 0x0 SLOAD PUSH20 0xFFFFFFFFFFFFFFFFFFFFFFFFFFFFFFFFFFFFFFFF AND DUP2 JUMP JUMPDEST PUSH1 0x6 SLOAD PUSH20 0xFFFFFFFFFFFFFFFFFFFFFFFFFFFFFFFFFFFFFFFF AND DUP2 JUMP JUMPDEST PUSH20 0xFFFFFFFFFFFFFFFFFFFFFFFFFFFFFFFFFFFFFFFF AND PUSH1 0x0 SWAP1 DUP2 MSTORE PUSH1 0x9 PUSH1 0x20 MSTORE PUSH1 0x40 SWAP1 KECCAK256 SLOAD SWAP1 JUMP JUMPDEST PUSH1 0x7 SLOAD PUSH20 0xFFFFFFFFFFFFFFFFFFFFFFFFFFFFFFFFFFFFFFFF AND CALLER EQ PUSH2 0xA12 JUMPI PUSH1 0x40 MLOAD PUSH32 0x8C379A000000000000000000000000000000000000000000000000000000000 DUP2 MSTORE PUSH1 0x4 ADD PUSH2 0x307 SWAP1 PUSH2 0x11A5 JUMP JUMPDEST PUSH1 0x5 DUP1 SLOAD PUSH32 0xFFFFFFFFFFFFFFFFFFFFFFFF0000000000000000000000000000000000000000 AND PUSH20 0xFFFFFFFFFFFFFFFFFFFFFFFFFFFFFFFFFFFFFFFF SWAP3 SWAP1 SWAP3 AND SWAP2 SWAP1 SWAP2 OR SWAP1 SSTORE JUMP JUMPDEST PUSH1 0x5 SLOAD PUSH20 0xFFFFFFFFFFFFFFFFFFFFFFFFFFFFFFFFFFFFFFFF AND DUP2 JUMP JUMPDEST PUSH1 0x2 SLOAD DUP2 JUMP JUMPDEST PUSH1 0x3 SLOAD DUP2 JUMP JUMPDEST PUSH1 0x0 PUSH4 0x618C40E0 TIMESTAMP DUP2 GT ISZERO PUSH2 0xA9A JUMPI PUSH1 0x1 SWAP2 POP POP PUSH2 0xAB8 JUMP JUMPDEST DUP1 PUSH4 0x1DFE200 ADD TIMESTAMP LT ISZERO PUSH2 0xAB2 JUMPI PUSH1 0x2 SWAP2 POP POP PUSH2 0xAB8 JUMP JUMPDEST PUSH1 0x4 SWAP2 POP POP JUMPDEST SWAP1 JUMP JUMPDEST PUSH1 0x0 DUP1 DUP3 GT PUSH2 0xAC6 JUMPI INVALID JUMPDEST PUSH1 0x0 DUP3 DUP5 DUP2 ISZERO ISZERO PUSH2 0xAD3 JUMPI INVALID JUMPDEST DIV SWAP1 POP DUP3 DUP5 DUP2 ISZERO ISZERO PUSH2 0xAE1 JUMPI INVALID JUMPDEST MOD DUP2 DUP5 MUL ADD DUP5 EQ ISZERO ISZERO PUSH2 0xAF0 JUMPI INVALID JUMPDEST SWAP4 SWAP3 POP POP POP JUMP JUMPDEST PUSH1 0x0 DUP1 PUSH1 0x1 PUSH1 0x0 SWAP1 SLOAD SWAP1 PUSH2 0x100 EXP SWAP1 DIV PUSH20 0xFFFFFFFFFFFFFFFFFFFFFFFFFFFFFFFFFFFFFFFF AND PUSH20 0xFFFFFFFFFFFFFFFFFFFFFFFFFFFFFFFFFFFFFFFF AND PUSH4 0xC4D8F237 PUSH1 0x40 MLOAD DUP2 PUSH4 0xFFFFFFFF AND PUSH29 0x100000000000000000000000000000000000000000000000000000000 MUL DUP2 MSTORE PUSH1 0x4 ADD PUSH1 0x20 PUSH1 0x40 MLOAD DUP1 DUP4 SUB DUP2 DUP7 DUP1 EXTCODESIZE ISZERO DUP1 ISZERO PUSH2 0xB7E JUMPI PUSH1 0x0 DUP1 REVERT JUMPDEST POP GAS STATICCALL ISZERO DUP1 ISZERO PUSH2 0xB92 JUMPI RETURNDATASIZE PUSH1 0x0 DUP1 RETURNDATACOPY RETURNDATASIZE PUSH1 0x0 REVERT JUMPDEST POP POP POP POP PUSH1 0x40 MLOAD RETURNDATASIZE PUSH1 0x1F NOT PUSH1 0x1F DUP3 ADD AND DUP3 ADD DUP1 PUSH1 0x40 MSTORE POP PUSH2 0xBB6 SWAP2 SWAP1 DUP2 ADD SWAP1 PUSH2 0xDD4 JUMP JUMPDEST PUSH1 0x40 MLOAD PUSH32 0x3E4AD73200000000000000000000000000000000000000000000000000000000 DUP2 MSTORE SWAP1 SWAP2 POP PUSH20 0xFFFFFFFFFFFFFFFFFFFFFFFFFFFFFFFFFFFFFFFF DUP3 AND SWAP1 PUSH4 0x3E4AD732 SWAP1 PUSH2 0xC0B SWAP1 DUP7 SWAP1 PUSH1 0x4 ADD PUSH2 0x1137 JUMP JUMPDEST PUSH1 0x60 PUSH1 0x40 MLOAD DUP1 DUP4 SUB DUP2 DUP7 DUP1 EXTCODESIZE ISZERO DUP1 ISZERO PUSH2 0xC23 JUMPI PUSH1 0x0 DUP1 REVERT JUMPDEST POP GAS STATICCALL ISZERO DUP1 ISZERO PUSH2 0xC37 JUMPI RETURNDATASIZE PUSH1 0x0 DUP1 RETURNDATACOPY RETURNDATASIZE PUSH1 0x0 REVERT JUMPDEST POP POP POP POP PUSH1 0x40 MLOAD RETURNDATASIZE PUSH1 0x1F NOT PUSH1 0x1F DUP3 ADD AND DUP3 ADD DUP1 PUSH1 0x40 MSTORE POP PUSH2 0xC5B SWAP2 SWAP1 DUP2 ADD SWAP1 PUSH2 0xE87 JUMP JUMPDEST PUSH1 0x20 ADD MLOAD PUSH12 0xFFFFFFFFFFFFFFFFFFFFFFFF AND SWAP4 SWAP3 POP POP POP JUMP JUMPDEST PUSH1 0x3 SLOAD DUP2 LT ISZERO PUSH2 0xCB0 JUMPI PUSH1 0x40 MLOAD PUSH32 0x8C379A000000000000000000000000000000000000000000000000000000000 DUP2 MSTORE PUSH1 0x4 ADD PUSH2 0x307 SWAP1 PUSH2 0x1185 JUMP JUMPDEST POP JUMP JUMPDEST PUSH2 0xCBC DUP2 PUSH2 0x514 JUMP JUMPDEST DUP3 GT ISZERO PUSH2 0xCF5 JUMPI PUSH1 0x40 MLOAD PUSH32 0x8C379A000000000000000000000000000000000000000000000000000000000 DUP2 MSTORE PUSH1 0x4 ADD PUSH2 0x307 SWAP1 PUSH2 0x11B5 JUMP JUMPDEST POP POP JUMP JUMPDEST PUSH1 0x0 DUP3 DUP3 GT ISZERO PUSH2 0xD05 JUMPI INVALID JUMPDEST POP SWAP1 SUB SWAP1 JUMP JUMPDEST PUSH1 0x0 PUSH2 0xAF0 DUP3 CALLDATALOAD PUSH2 0x11F5 JUMP JUMPDEST PUSH1 0x0 PUSH2 0xAF0 DUP3 MLOAD PUSH2 0x11F5 JUMP JUMPDEST PUSH1 0x0 PUSH2 0xAF0 DUP3 MLOAD PUSH2 0x1200 JUMP JUMPDEST PUSH1 0x0 PUSH2 0xAF0 DUP3 CALLDATALOAD PUSH2 0xAB8 JUMP JUMPDEST PUSH1 0x0 PUSH1 0x60 DUP3 DUP5 SUB SLT ISZERO PUSH2 0xD4D JUMPI PUSH1 0x0 DUP1 REVERT JUMPDEST PUSH2 0xD57 PUSH1 0x60 PUSH2 0x11C5 JUMP JUMPDEST SWAP1 POP PUSH1 0x0 PUSH2 0xD65 DUP5 DUP5 PUSH2 0xD96 JUMP JUMPDEST DUP3 MSTORE POP PUSH1 0x20 PUSH2 0xD76 DUP5 DUP5 DUP4 ADD PUSH2 0xDA2 JUMP JUMPDEST PUSH1 0x20 DUP4 ADD MSTORE POP PUSH1 0x40 PUSH2 0xD8A DUP5 DUP3 DUP6 ADD PUSH2 0xDA2 JUMP JUMPDEST PUSH1 0x40 DUP4 ADD MSTORE POP SWAP3 SWAP2 POP POP JUMP JUMPDEST PUSH1 0x0 PUSH2 0xAF0 DUP3 MLOAD PUSH2 0x121E JUMP JUMPDEST PUSH1 0x0 PUSH2 0xAF0 DUP3 MLOAD PUSH2 0x122B JUMP JUMPDEST PUSH1 0x0 PUSH1 0x20 DUP3 DUP5 SUB SLT ISZERO PUSH2 0xDC0 JUMPI PUSH1 0x0 DUP1 REVERT JUMPDEST PUSH1 0x0 PUSH2 0xDCC DUP5 DUP5 PUSH2 0xD0B JUMP JUMPDEST SWAP5 SWAP4 POP POP POP POP JUMP JUMPDEST PUSH1 0x0 PUSH1 0x20 DUP3 DUP5 SUB SLT ISZERO PUSH2 0xDE6 JUMPI PUSH1 0x0 DUP1 REVERT JUMPDEST PUSH1 0x0 PUSH2 0xDCC DUP5 DUP5 PUSH2 0xD17 JUMP JUMPDEST PUSH1 0x0 DUP1 PUSH1 0x40 DUP4 DUP6 SUB SLT ISZERO PUSH2 0xE05 JUMPI PUSH1 0x0 DUP1 REVERT JUMPDEST PUSH1 0x0 PUSH2 0xE11 DUP6 DUP6 PUSH2 0xD0B JUMP JUMPDEST SWAP3 POP POP PUSH1 0x20 PUSH2 0xE22 DUP6 DUP3 DUP7 ADD PUSH2 0xD2F JUMP JUMPDEST SWAP2 POP POP SWAP3 POP SWAP3 SWAP1 POP JUMP JUMPDEST PUSH1 0x0 PUSH1 0x20 DUP3 DUP5 SUB SLT ISZERO PUSH2 0xE3E JUMPI PUSH1 0x0 DUP1 REVERT JUMPDEST PUSH1 0x0 PUSH2 0xDCC DUP5 DUP5 PUSH2 0xD23 JUMP JUMPDEST PUSH1 0x0 PUSH1 0x20 DUP3 DUP5 SUB SLT ISZERO PUSH2 0xE5C JUMPI PUSH1 0x0 DUP1 REVERT JUMPDEST PUSH1 0x0 PUSH2 0xDCC DUP5 DUP5 PUSH2 0xD2F JUMP JUMPDEST PUSH1 0x0 DUP1 PUSH1 0x40 DUP4 DUP6 SUB SLT ISZERO PUSH2 0xE7B JUMPI PUSH1 0x0 DUP1 REVERT JUMPDEST PUSH1 0x0 PUSH2 0xE11 DUP6 DUP6 PUSH2 0xD2F JUMP JUMPDEST PUSH1 0x0 PUSH1 0x60 DUP3 DUP5 SUB SLT ISZERO PUSH2 0xE99 JUMPI PUSH1 0x0 DUP1 REVERT JUMPDEST PUSH1 0x0 PUSH2 0xDCC DUP5 DUP5 PUSH2 0xD3B JUMP JUMPDEST PUSH2 0xEAE DUP2 PUSH2 0x11F5 JUMP JUMPDEST DUP3 MSTORE POP POP JUMP JUMPDEST PUSH2 0xEAE DUP2 PUSH2 0x1200 JUMP JUMPDEST PUSH2 0xEAE DUP2 PUSH2 0xAB8 JUMP JUMPDEST PUSH1 0x0 PUSH2 0xED3 PUSH1 0x19 DUP4 PUSH2 0x11EC JUMP JUMPDEST PUSH32 0x4F4E4C595F50524F4F465F4F465F504552464F524D414E434500000000000000 DUP2 MSTORE PUSH1 0x20 ADD SWAP3 SWAP2 POP POP JUMP JUMPDEST PUSH1 0x0 PUSH2 0xF0C PUSH1 0x1B DUP4 PUSH2 0x11EC JUMP JUMPDEST PUSH32 0x4D494E494D554D5F4752475F42454C4F575F3130305F4552524F520000000000 DUP2 MSTORE PUSH1 0x20 ADD SWAP3 SWAP2 POP POP JUMP JUMPDEST PUSH1 0x0 PUSH2 0xF45 PUSH1 0x16 DUP4 PUSH2 0x11EC JUMP JUMPDEST PUSH32 0x4E4F545F415050524F5645445F415554484F5249545900000000000000000000 DUP2 MSTORE PUSH1 0x20 ADD SWAP3 SWAP2 POP POP JUMP JUMPDEST PUSH1 0x0 PUSH2 0xF7E PUSH1 0x22 DUP4 PUSH2 0x11EC JUMP JUMPDEST PUSH32 0x504552494F445F544F4F5F4C4F4E475F4F525F544F4F5F53484F52545F455252 DUP2 MSTORE PUSH32 0x4F52000000000000000000000000000000000000000000000000000000000000 PUSH1 0x20 DUP3 ADD MSTORE PUSH1 0x40 ADD SWAP3 SWAP2 POP POP JUMP JUMPDEST PUSH1 0x0 PUSH2 0xFDD PUSH1 0x25 DUP4 PUSH2 0x11EC JUMP JUMPDEST PUSH32 0x5354414B45445F4752475F414D4F554E545F42454C4F575F4D494E494D554D5F DUP2 MSTORE PUSH32 0x4552524F52000000000000000000000000000000000000000000000000000000 PUSH1 0x20 DUP3 ADD MSTORE PUSH1 0x40 ADD SWAP3 SWAP2 POP POP JUMP JUMPDEST PUSH1 0x0 PUSH2 0x103C PUSH1 0xF DUP4 PUSH2 0x11EC JUMP JUMPDEST PUSH32 0x54494D455F4E4F545F454E4F5547480000000000000000000000000000000000 DUP2 MSTORE PUSH1 0x20 ADD SWAP3 SWAP2 POP POP JUMP JUMPDEST PUSH1 0x0 PUSH2 0x1075 PUSH1 0x12 DUP4 PUSH2 0x11EC JUMP JUMPDEST PUSH32 0x4F4E4C595F5249474F424C4F434B5F44414F0000000000000000000000000000 DUP2 MSTORE PUSH1 0x20 ADD SWAP3 SWAP2 POP POP JUMP JUMPDEST PUSH1 0x0 PUSH2 0x10AE PUSH1 0x23 DUP4 PUSH2 0x11EC JUMP JUMPDEST PUSH32 0x5245574152445F41424F56455F4D41585F45504F43485F5245574152445F4552 DUP2 MSTORE PUSH32 0x524F520000000000000000000000000000000000000000000000000000000000 PUSH1 0x20 DUP3 ADD MSTORE PUSH1 0x40 ADD SWAP3 SWAP2 POP POP JUMP JUMPDEST PUSH1 0x20 DUP2 ADD PUSH2 0x531 DUP3 DUP5 PUSH2 0xEA5 JUMP JUMPDEST PUSH1 0x40 DUP2 ADD PUSH2 0x111C DUP3 DUP6 PUSH2 0xEA5 JUMP JUMPDEST PUSH2 0xAF0 PUSH1 0x20 DUP4 ADD DUP5 PUSH2 0xEBD JUMP JUMPDEST PUSH1 0x20 DUP2 ADD PUSH2 0x531 DUP3 DUP5 PUSH2 0xEB4 JUMP JUMPDEST PUSH1 0x20 DUP2 ADD PUSH2 0x531 DUP3 DUP5 PUSH2 0xEBD JUMP JUMPDEST PUSH1 0x20 DUP1 DUP3 MSTORE DUP2 ADD PUSH2 0x531 DUP2 PUSH2 0xEC6 JUMP JUMPDEST PUSH1 0x20 DUP1 DUP3 MSTORE DUP2 ADD PUSH2 0x531 DUP2 PUSH2 0xEFF JUMP JUMPDEST PUSH1 0x20 DUP1 DUP3 MSTORE DUP2 ADD PUSH2 0x531 DUP2 PUSH2 0xF38 JUMP JUMPDEST PUSH1 0x20 DUP1 DUP3 MSTORE DUP2 ADD PUSH2 0x531 DUP2 PUSH2 0xF71 JUMP JUMPDEST PUSH1 0x20 DUP1 DUP3 MSTORE DUP2 ADD PUSH2 0x531 DUP2 PUSH2 0xFD0 JUMP JUMPDEST PUSH1 0x20 DUP1 DUP3 MSTORE DUP2 ADD PUSH2 0x531 DUP2 PUSH2 0x102F JUMP JUMPDEST PUSH1 0x20 DUP1 DUP3 MSTORE DUP2 ADD PUSH2 0x531 DUP2 PUSH2 0x1068 JUMP JUMPDEST PUSH1 0x20 DUP1 DUP3 MSTORE DUP2 ADD PUSH2 0x531 DUP2 PUSH2 0x10A1 JUMP JUMPDEST PUSH1 0x40 MLOAD DUP2 DUP2 ADD PUSH8 0xFFFFFFFFFFFFFFFF DUP2 GT DUP3 DUP3 LT OR ISZERO PUSH2 0x11E4 JUMPI PUSH1 0x0 DUP1 REVERT JUMPDEST PUSH1 0x40 MSTORE SWAP2 SWAP1 POP JUMP JUMPDEST SWAP1 DUP2 MSTORE PUSH1 0x20 ADD SWAP1 JUMP JUMPDEST PUSH1 0x0 PUSH2 0x531 DUP3 PUSH2 0x1205 JUMP JUMPDEST ISZERO ISZERO SWAP1 JUMP JUMPDEST PUSH20 0xFFFFFFFFFFFFFFFFFFFFFFFFFFFFFFFFFFFFFFFF AND SWAP1 JUMP JUMPDEST PUSH8 0xFFFFFFFFFFFFFFFF AND SWAP1 JUMP JUMPDEST PUSH12 0xFFFFFFFFFFFFFFFFFFFFFFFF AND SWAP1 JUMP INVALID LOG2 PUSH6 0x627A7A723058 KECCAK256 0xdd PUSH29 0x1B3BD7D7B63B0716D5DBBDDAC999CE5C40F0D89C1C957F27F23DAF3012 LOG4 PUSH13 0x6578706572696D656E74616CF5 STOP CALLDATACOPY "
			}
		}
	},
	"sourceTreeHashHex": "0xa22054d14be6ef8e15be8fa3077c57fb027e98f1bc9a4449c14d3aea12d5b7ec",
	"compiler": {
		"name": "solc",
		"version": "0.5.4+commit.9549d8ff",
		"settings": {
			"remappings": [],
			"optimizer": {
				"enabled": true,
				"runs": 1000000
			},
			"outputSelection": {
				"*": {
					"*": [
						"abi",
						"devdoc",
						"evm.bytecode.object",
						"evm.bytecode.sourceMap",
						"evm.deployedBytecode.object",
						"evm.deployedBytecode.sourceMap"
					]
				}
			}
		}
	},
	"chains": {}
}