{
	"schemaVersion": "2.0.0",
	"contractName": "ProofOfPerformance",
	"compilerOutput": {
		"abi": [
			{
				"inputs": [
					{
						"internalType": "address",
						"name": "_rigoTokenAddress",
						"type": "address"
					},
					{
						"internalType": "address",
						"name": "_rigoblockDao",
						"type": "address"
					},
					{
						"internalType": "address",
						"name": "_dragoRegistry",
						"type": "address"
					},
					{
						"internalType": "address",
						"name": "_stakingProxyAddress",
						"type": "address"
					}
				],
				"stateMutability": "nonpayable",
				"type": "constructor"
			},
			{
				"inputs": [],
				"name": "RIGOTOKENADDRESS",
				"outputs": [
					{
						"internalType": "address",
						"name": "",
						"type": "address"
					}
				],
				"stateMutability": "view",
				"type": "function"
			},
			{
				"inputs": [],
				"name": "STAKINGPROXYADDRESS",
				"outputs": [
					{
						"internalType": "address",
						"name": "",
						"type": "address"
					}
				],
				"stateMutability": "view",
				"type": "function"
			},
			{
				"inputs": [
					{
						"internalType": "uint256",
						"name": "poolId",
						"type": "uint256"
					}
				],
				"name": "addressFromId",
				"outputs": [
					{
						"internalType": "address",
						"name": "pool",
						"type": "address"
					},
					{
						"internalType": "address",
						"name": "group",
						"type": "address"
					}
				],
				"stateMutability": "view",
				"type": "function"
			},
			{
				"inputs": [
					{
						"internalType": "uint256",
						"name": "poolId",
						"type": "uint256"
					}
				],
				"name": "calcPoolValue",
				"outputs": [
					{
						"internalType": "uint256",
						"name": "aum",
						"type": "uint256"
					}
				],
				"stateMutability": "view",
				"type": "function"
			},
			{
				"inputs": [
					{
						"internalType": "uint256",
						"name": "poolId",
						"type": "uint256"
					}
				],
				"name": "creditPopRewardToStakingProxy",
				"outputs": [],
				"stateMutability": "nonpayable",
				"type": "function"
			},
			{
				"inputs": [],
				"name": "dragoRegistryAddress",
				"outputs": [
					{
						"internalType": "address",
						"name": "",
						"type": "address"
					}
				],
				"stateMutability": "view",
				"type": "function"
			},
			{
				"inputs": [
					{
						"internalType": "uint256",
						"name": "poolId",
						"type": "uint256"
					}
				],
				"name": "getEpochReward",
				"outputs": [
					{
						"internalType": "uint256",
						"name": "",
						"type": "uint256"
					}
				],
				"stateMutability": "view",
				"type": "function"
			},
			{
				"inputs": [
					{
						"internalType": "uint256",
						"name": "poolId",
						"type": "uint256"
					}
				],
				"name": "getHwm",
				"outputs": [
					{
						"internalType": "uint256",
						"name": "",
						"type": "uint256"
					}
				],
				"stateMutability": "view",
				"type": "function"
			},
			{
				"inputs": [
					{
						"internalType": "uint256",
						"name": "poolId",
						"type": "uint256"
					}
				],
				"name": "getPoolData",
				"outputs": [
					{
						"internalType": "bool",
						"name": "active",
						"type": "bool"
					},
					{
						"internalType": "address",
						"name": "poolAddress",
						"type": "address"
					},
					{
						"internalType": "address",
						"name": "poolGroup",
						"type": "address"
					},
					{
						"internalType": "uint256",
						"name": "poolPrice",
						"type": "uint256"
					},
					{
						"internalType": "uint256",
						"name": "poolSupply",
						"type": "uint256"
					},
					{
						"internalType": "uint256",
						"name": "poolValue",
						"type": "uint256"
					},
					{
						"internalType": "uint256",
						"name": "epochReward",
						"type": "uint256"
					},
					{
						"internalType": "uint256",
						"name": "ratio",
						"type": "uint256"
					},
					{
						"internalType": "uint256",
						"name": "pop",
						"type": "uint256"
					}
				],
				"stateMutability": "view",
				"type": "function"
			},
			{
				"inputs": [
					{
						"internalType": "uint256",
						"name": "poolId",
						"type": "uint256"
					}
				],
				"name": "getPoolPrice",
				"outputs": [
					{
						"internalType": "uint256",
						"name": "poolPrice",
						"type": "uint256"
					},
					{
						"internalType": "uint256",
						"name": "totalTokens",
						"type": "uint256"
					}
				],
				"stateMutability": "view",
				"type": "function"
			},
			{
				"inputs": [
					{
						"internalType": "uint256",
						"name": "poolId",
						"type": "uint256"
					}
				],
				"name": "getRatio",
				"outputs": [
					{
						"internalType": "uint256",
						"name": "",
						"type": "uint256"
					}
				],
				"stateMutability": "view",
				"type": "function"
			},
			{
				"inputs": [
					{
						"internalType": "address",
						"name": "",
						"type": "address"
					}
				],
				"name": "groups",
				"outputs": [
					{
						"internalType": "uint256",
						"name": "rewardRatio",
						"type": "uint256"
					}
				],
				"stateMutability": "view",
				"type": "function"
			},
			{
				"inputs": [
					{
						"internalType": "uint256",
						"name": "poolId",
						"type": "uint256"
					}
				],
				"name": "isActive",
				"outputs": [
					{
						"internalType": "bool",
						"name": "",
						"type": "bool"
					}
				],
				"stateMutability": "view",
				"type": "function"
			},
			{
				"inputs": [
					{
						"internalType": "uint256",
						"name": "poolId",
						"type": "uint256"
					}
				],
				"name": "proofOfPerformance",
				"outputs": [
					{
						"internalType": "uint256",
						"name": "popReward",
						"type": "uint256"
					},
					{
						"internalType": "uint256",
						"name": "performanceReward",
						"type": "uint256"
					}
				],
				"stateMutability": "view",
				"type": "function"
			},
			{
				"inputs": [],
				"name": "rigoblockDaoAddress",
				"outputs": [
					{
						"internalType": "address",
						"name": "",
						"type": "address"
					}
				],
				"stateMutability": "view",
				"type": "function"
			},
			{
				"inputs": [
					{
						"internalType": "address",
						"name": "groupAddress",
						"type": "address"
					},
					{
						"internalType": "uint256",
						"name": "newRatio",
						"type": "uint256"
					}
				],
				"name": "setRatio",
				"outputs": [],
				"stateMutability": "nonpayable",
				"type": "function"
			},
			{
				"inputs": [
					{
						"internalType": "address",
						"name": "newDragoRegistryAddress",
						"type": "address"
					}
				],
				"name": "setRegistry",
				"outputs": [],
				"stateMutability": "nonpayable",
				"type": "function"
			},
			{
				"inputs": [
					{
						"internalType": "address",
						"name": "newRigoblockDaoAddress",
						"type": "address"
					}
				],
				"name": "setRigoblockDao",
				"outputs": [],
				"stateMutability": "nonpayable",
				"type": "function"
			}
		],
		"devdoc": {
			"author": "Gabriele Rigo - <gab@rigoblock.com>",
			"kind": "dev",
			"methods": {
				"addressFromId(uint256)": {
					"details": "Returns the address and the group of a pool from its id.",
					"params": {
						"poolId": "Id of the pool."
					},
					"returns": {
						"group": "Address of the pool's group.",
						"pool": "Address of the target pool."
					}
				},
				"calcPoolValue(uint256)": {
					"details": "Returns the value of a pool from its id.",
					"params": {
						"poolId": "Id of the pool."
					},
					"returns": {
						"aum": "Total value of the pool in ETH."
					}
				},
				"creditPopRewardToStakingProxy(uint256)": {
					"details": "Credits the pop reward to the Staking Proxy contract.",
					"params": {
						"poolId": "Number of the pool Id in registry."
					}
				},
				"getEpochReward(uint256)": {
					"details": "Returns the reward factor for a pool.",
					"params": {
						"poolId": "Id of the pool."
					},
					"returns": {
						"_0": "Value of the reward factor."
					}
				},
				"getHwm(uint256)": {
					"details": "Returns the highwatermark of a pool.",
					"params": {
						"poolId": "Id of the pool."
					},
					"returns": {
						"_0": "Value of the all-time-high pool nav."
					}
				},
				"getPoolData(uint256)": {
					"details": "Gets data of a pool.",
					"params": {
						"poolId": "Id of the pool."
					},
					"returns": {
						"active": "Bool the pool is active.",
						"epochReward": "value of the reward factor or said pool.",
						"poolAddress": "address of the pool.",
						"poolGroup": "address of the pool factory.",
						"poolPrice": "price of the pool in wei.",
						"poolSupply": "total supply of the pool in units.",
						"poolValue": "total value of the pool in wei.",
						"pop": "value of the pop reward to be claimed in GRGs.",
						"ratio": "of assets/performance reward (from 0 to 10000)."
					}
				},
				"getPoolPrice(uint256)": {
					"details": "Returns the price a pool from its id.",
					"params": {
						"poolId": "Id of the pool."
					},
					"returns": {
						"poolPrice": "Price of the pool in wei.",
						"totalTokens": "Number of tokens of a pool (totalSupply)."
					}
				},
				"getRatio(uint256)": {
					"details": "Returns the split ratio of asset and performance reward.",
					"params": {
						"poolId": "Id of the pool."
					},
					"returns": {
						"_0": "Value of the ratio from 1 to 100."
					}
				},
				"isActive(uint256)": {
					"details": "Checks whether a pool is registered and active.",
					"params": {
						"poolId": "Id of the pool."
					},
					"returns": {
						"_0": "Bool the pool is active."
					}
				},
				"proofOfPerformance(uint256)": {
					"details": "Returns the proof of performance reward for a pool.",
					"params": {
						"poolId": "Id of the pool."
					},
					"returns": {
						"performanceReward": "Split of the performance reward in Rigo tokens.",
						"popReward": "Value of the pop reward in Rigo tokens."
					}
				},
				"setRatio(address,uint256)": {
					"details": "Allows RigoBlock Dao to set the ratio between assets and performance reward for a group.",
					"params": {
						"groupAddress": "Address of the pool's group.",
						"newRatio": "Value of the new ratio."
					}
				},
				"setRegistry(address)": {
					"details": "Allows RigoBlock Dao to update the pools registry.",
					"params": {
						"newDragoRegistryAddress": "Address of new registry."
					}
				},
				"setRigoblockDao(address)": {
					"details": "Allows RigoBlock Dao to update its address.",
					"params": {
						"newRigoblockDaoAddress": "Address of new dao."
					}
				}
			},
			"title": "Proof of Performance - Controls parameters of inflation.",
			"version": 1
		},
		"evm": {
			"bytecode": {
				"linkReferences": {},
				"object": "0x60c060405234801561001057600080fd5b50604051611b2a380380611b2a8339818101604052608081101561003357600080fd5b508051602082015160408301516060938401516001600160601b031993851b8416608052600180546001600160a01b039485166001600160a01b0319918216179091556000805494909316931692909217905590911b1660a05260805160601c60a05160601c611a656100c56000398061059252806108bd52806110725250806109ab52806115b35250611a656000f3fe608060405234801561001057600080fd5b50600436106101365760003560e01c80637d0107cf116100b2578063a6c9c44311610081578063b516e6e111610066578063b516e6e114610395578063d21c87ad146103c8578063d418634a1461044757610136565b8063a6c9c4431461035a578063a91ee0dc1461036257610136565b80637d0107cf146102e75780637f8be8591461030457806382afd23b1461030c5780639af94f301461033d57610136565b8063427fdc0c116101095780634d749e43116100ee5780634d749e431461027657806363d5e44d146102ac578063663b64f7146102df57610136565b8063427fdc0c1461023c57806346a62eaf1461025957610136565b8063025796771461013b578063057520471461016c578063249d9123146101a7578063360dafa0146101d6575b600080fd5b610143610464565b6040805173ffffffffffffffffffffffffffffffffffffffff9092168252519081900360200190f35b6101a56004803603604081101561018257600080fd5b5073ffffffffffffffffffffffffffffffffffffffff8135169060200135610480565b005b6101c4600480360360208110156101bd57600080fd5b5035610522565b60408051918252519081900360200190f35b6101f3600480360360208110156101ec57600080fd5b5035610535565b604051808373ffffffffffffffffffffffffffffffffffffffff1681526020018273ffffffffffffffffffffffffffffffffffffffff1681526020019250505060405180910390f35b6101c46004803603602081101561025257600080fd5b503561054a565b6101c46004803603602081101561026f57600080fd5b503561055d565b6102936004803603602081101561028c57600080fd5b5035610572565b6040805192835260208301919091528051918290030190f35b6101c4600480360360208110156102c257600080fd5b503573ffffffffffffffffffffffffffffffffffffffff1661057e565b610143610590565b6101a5600480360360208110156102fd57600080fd5b50356105b4565b61014361096b565b6103296004803603602081101561032257600080fd5b5035610987565b604080519115158252519081900360200190f35b6102936004803603602081101561035357600080fd5b5035610992565b6101436109a9565b6101a56004803603602081101561037857600080fd5b503573ffffffffffffffffffffffffffffffffffffffff166109cd565b6101a5600480360360208110156103ab57600080fd5b503573ffffffffffffffffffffffffffffffffffffffff16610a1c565b6103e5600480360360208110156103de57600080fd5b5035610a6b565b604080519915158a5273ffffffffffffffffffffffffffffffffffffffff98891660208b015296909716888701526060880194909452608087019290925260a086015260c085015260e084015261010083019190915251908190036101200190f35b6101c46004803603602081101561045d57600080fd5b5035610acc565b60005473ffffffffffffffffffffffffffffffffffffffff1681565b610488610ae2565b6127108111156104f957604080517f08c379a000000000000000000000000000000000000000000000000000000000815260206004820152601760248201527f524154494f5f4249474745525f5448414e5f3130303030000000000000000000604482015290519081900360640190fd5b73ffffffffffffffffffffffffffffffffffffffff909116600090815260026020526040902055565b600061052d82610b6a565b90505b919050565b60008061054183610ba1565b91509150915091565b600061055582610de0565b949350505050565b60008061056983610f83565b95945050505050565b60008061054183611116565b60026020526000908152604090205481565b7f000000000000000000000000000000000000000000000000000000000000000081565b60008054604080517fc277f1ac00000000000000000000000000000000000000000000000000000000815260048101859052905173ffffffffffffffffffffffffffffffffffffffff9092169163c277f1ac916024808201928692909190829003018186803b15801561062657600080fd5b505afa15801561063a573d6000803e3d6000fd5b505050506040513d6000823e601f3d9081017fffffffffffffffffffffffffffffffffffffffffffffffffffffffffffffffe016820160405260c081101561068157600080fd5b8151602083018051604051929492938301929190846401000000008211156106a857600080fd5b9083019060208201858111156106bd57600080fd5b82516401000000008111828201881017156106d757600080fd5b82525081516020918201929091019080838360005b838110156107045781810151838201526020016106ec565b50505050905090810190601f1680156107315780820380516001836020036101000a031916815260200191505b506040526020018051604051939291908464010000000082111561075457600080fd5b90830190602082018581111561076957600080fd5b825164010000000081118282018810171561078357600080fd5b82525081516020918201929091019080838360005b838110156107b0578181015183820152602001610798565b50505050905090810190601f1680156107dd5780820380516001836020036101000a031916815260200191505b506040525093945050505073ffffffffffffffffffffffffffffffffffffffff82161515905061080d5750610968565b60008173ffffffffffffffffffffffffffffffffffffffff16639489fa846040518163ffffffff1660e01b815260040160206040518083038186803b15801561085557600080fd5b505afa158015610869573d6000803e3d6000fd5b505050506040513d602081101561087f57600080fd5b5051905061088c33611252565b1561089a5761089a82611258565b6108a3836112c6565b60006108ae84611116565b5090506108bb82856112f4565b7f000000000000000000000000000000000000000000000000000000000000000073ffffffffffffffffffffffffffffffffffffffff1663ecc128f284836040518363ffffffff1660e01b8152600401808373ffffffffffffffffffffffffffffffffffffffff16815260200182815260200192505050600060405180830381600087803b15801561094c57600080fd5b505af1158015610960573d6000803e3d6000fd5b505050505050505b50565b60015473ffffffffffffffffffffffffffffffffffffffff1681565b600061052d82611320565b60008061099e83610de0565b509094909350915050565b7f000000000000000000000000000000000000000000000000000000000000000081565b6109d5610ae2565b600080547fffffffffffffffffffffffff00000000000000000000000000000000000000001673ffffffffffffffffffffffffffffffffffffffff92909216919091179055565b610a24610ae2565b600180547fffffffffffffffffffffffff00000000000000000000000000000000000000001673ffffffffffffffffffffffffffffffffffffffff92909216919091179055565b6000806000806000806000806000610a828a611320565b9850610a8d8a610ba1565b9098509650610a9b8a610de0565b91975095509350610aab8a610f83565b919450909250610abc90508a611116565b5090509193959799909294969850565b600080610ad883610f83565b5090949350505050565b60015473ffffffffffffffffffffffffffffffffffffffff163314610b6857604080517f08c379a000000000000000000000000000000000000000000000000000000000815260206004820152601e60248201527f43414c4c45525f4e4f545f5249474f424c4f434b5f44414f5f4552524f520000604482015290519081900360640190fd5b565b600081815260036020526040812054610b8c5750670de0b6b3a7640000610530565b50600081815260036020526040902054610530565b60008054604080517fc277f1ac000000000000000000000000000000000000000000000000000000008152600481018590529051839273ffffffffffffffffffffffffffffffffffffffff169163c277f1ac9160248083019286929190829003018186803b158015610c1257600080fd5b505afa158015610c26573d6000803e3d6000fd5b505050506040513d6000823e601f3d9081017fffffffffffffffffffffffffffffffffffffffffffffffffffffffffffffffe016820160405260c0811015610c6d57600080fd5b815160208301805160405192949293830192919084640100000000821115610c9457600080fd5b908301906020820185811115610ca957600080fd5b8251640100000000811182820188101715610cc357600080fd5b82525081516020918201929091019080838360005b83811015610cf0578181015183820152602001610cd8565b50505050905090810190601f168015610d1d5780820380516001836020036101000a031916815260200191505b5060405260200180516040519392919084640100000000821115610d4057600080fd5b908301906020820185811115610d5557600080fd5b8251640100000000811182820188101715610d6f57600080fd5b82525081516020918201929091019080838360005b83811015610d9c578181015183820152602001610d84565b50505050905090810190601f168015610dc95780820380516001836020036101000a031916815260200191505b506040526060015194965093945050505050915091565b600080600080610def85610ba1565b50905060008190508073ffffffffffffffffffffffffffffffffffffffff16639489fa846040518163ffffffff1660e01b815260040160206040518083038186803b158015610e3d57600080fd5b505afa158015610e51573d6000803e3d6000fd5b505050506040513d6020811015610e6757600080fd5b5051604080517f18160ddd000000000000000000000000000000000000000000000000000000008152905191965073ffffffffffffffffffffffffffffffffffffffff8316916318160ddd91600480820192602092909190829003018186803b158015610ed357600080fd5b505afa158015610ee7573d6000803e3d6000fd5b505050506040513d6020811015610efd57600080fd5b50519350841580610f0c575083155b15610f62576040517f08c379a00000000000000000000000000000000000000000000000000000000081526004018080602001828103825260258152602001806119e46025913960400191505060405180910390fd5b620f4240610f708686611586565b81610f7757fe5b04925050509193909250565b600080600080610f9285610ba1565b915050610f9d6115af565b73ffffffffffffffffffffffffffffffffffffffff1663d410e0c2826040518263ffffffff1660e01b8152600401808273ffffffffffffffffffffffffffffffffffffffff16815260200191505060206040518083038186803b15801561100357600080fd5b505afa158015611017573d6000803e3d6000fd5b505050506040513d602081101561102d57600080fd5b5051604080517f5e615a6b000000000000000000000000000000000000000000000000000000008152905191955073ffffffffffffffffffffffffffffffffffffffff7f00000000000000000000000000000000000000000000000000000000000000001691635e615a6b9160048082019260a092909190829003018186803b1580156110b957600080fd5b505afa1580156110cd573d6000803e3d6000fd5b505050506040513d60a08110156110e357600080fd5b505173ffffffffffffffffffffffffffffffffffffffff9091166000908152600260205260409020549395909450915050565b600080600080600061112786610de0565b925092509250600061113887610ba1565b50905060008060006111498a610f83565b925092509250600062015180836111608887611586565b028161116857fe5b04905060006111768c610b6a565b8911156111af576111a6620f42406111986111908f610b6a565b8c038b611586565b8161119f57fe5b0486611586565b61016d026111b2565b60005b90506000670de0b6b3a76400006111c9888a611648565b69021e19e0c9bab24000006111e9866111e46127108a611988565b611586565b816111f057fe5b0402816111f957fe5b049050670de0b6b3a764000061120f888a611648565b61122c61121c8588611586565b69021e19e0c9bab240000061199a565b028161123457fe5b049a506112418b826119c9565b9b5050505050505050505050915091565b3b151590565b3373ffffffffffffffffffffffffffffffffffffffff821614610968576040517f08c379a0000000000000000000000000000000000000000000000000000000008152600401808060200182810382526027815260200180611a096027913960400191505060405180910390fd5b600081815260036020526040902054610968576000908152600360205260409020670de0b6b3a76400009055565b60008181526003602052604090205482111561131c5760008181526003602052604090208290555b5050565b60008054604080517fc277f1ac000000000000000000000000000000000000000000000000000000008152600481018590529051839273ffffffffffffffffffffffffffffffffffffffff169163c277f1ac9160248083019286929190829003018186803b15801561139157600080fd5b505afa1580156113a5573d6000803e3d6000fd5b505050506040513d6000823e601f3d9081017fffffffffffffffffffffffffffffffffffffffffffffffffffffffffffffffe016820160405260c08110156113ec57600080fd5b81516020830180516040519294929383019291908464010000000082111561141357600080fd5b90830190602082018581111561142857600080fd5b825164010000000081118282018810171561144257600080fd5b82525081516020918201929091019080838360005b8381101561146f578181015183820152602001611457565b50505050905090810190601f16801561149c5780820380516001836020036101000a031916815260200191505b50604052602001805160405193929190846401000000008211156114bf57600080fd5b9083019060208201858111156114d457600080fd5b82516401000000008111828201881017156114ee57600080fd5b82525081516020918201929091019080838360005b8381101561151b578181015183820152602001611503565b50505050905090810190601f1680156115485780820380516001836020036101000a031916815260200191505b5060405250939450505073ffffffffffffffffffffffffffffffffffffffff831615915061157c9050576001915050610530565b6000915050610530565b60008282028315806115a057508284828161159d57fe5b04145b6115a657fe5b90505b92915050565b60007f000000000000000000000000000000000000000000000000000000000000000073ffffffffffffffffffffffffffffffffffffffff1663075461726040518163ffffffff1660e01b815260040160206040518083038186803b15801561161757600080fd5b505afa15801561162b573d6000803e3d6000fd5b505050506040513d602081101561164157600080fd5b5051905090565b600073ffffffffffffffffffffffffffffffffffffffff83163182811180611676575066038d7ea4c6800081105b806116875750662386f26fc1000083105b156116f357604080517f08c379a000000000000000000000000000000000000000000000000000000000815260206004820152601b60248201527f4554485f41424f56455f41554d5f4f525f445553545f4552524f520000000000604482015290519081900360640190fd5b670b1a2bc2ec5000008382670de0b6b3a7640000028161170f57fe5b041061172657670de0b6b3a76400009150506115a9565b670853a0d2313c00008382670de0b6b3a7640000028161174257fe5b041061175957670d163580f73180009150506115a9565b6706f05b59d3b200008382670de0b6b3a7640000028161177557fe5b041061178c57670c39f0d50f1e80009150506115a9565b67058d15e1762800008382670de0b6b3a764000002816117a857fe5b04106117bf57670aac096cf84680009150506115a9565b670429d069189e00008382670de0b6b3a764000002816117db57fe5b04106117f25767085013538c7580009150506115a9565b6702c68af0bb1400008382670de0b6b3a7640000028161180e57fe5b041061182557670590a3601aee80009150506115a9565b67016345785d8a00008382670de0b6b3a7640000028161184157fe5b041061185857670334ad46af1d80009150506115a9565b67010a741a462780008382670de0b6b3a7640000028161187457fe5b041061188b576702bf6ff3718700009150506115a9565b66b1a2bc2ec500008382670de0b6b3a764000002816118a657fe5b04106118bd57670254db1c224400009150506115a9565b668700cc757700008382670de0b6b3a764000002816118d857fe5b04106118ef57670226abadc42f80009150506115a9565b6658d15e176280008382670de0b6b3a7640000028161190a57fe5b0410611921576701f87c3f661b00009150506115a9565b604080517f08c379a000000000000000000000000000000000000000000000000000000000815260206004820152601f60248201527f4554485f42454c4f575f322e355f50455243454e545f41554d5f4552524f5200604482015290519081900360640190fd5b60008282111561199457fe5b50900390565b60008082116119a557fe5b60008284816119b057fe5b0490508284816119bc57fe5b068184020184146115a657fe5b60008282018381108015906115a05750828110156115a657fefe504f4f4c5f50524943455f4f525f544f54414c5f535550504c595f4e554c4c5f4552524f52534d4152545f434f4e54524143545f43414c4c45525f49535f4e4f545f504f4f4c5f4552524f52a26469706673582212207aa9392eb50ed7e1f409e1801ef80824ec3885f0eaec483ce247eec02c147cd564736f6c63430007040033",
				"opcodes": "PUSH1 0xC0 PUSH1 0x40 MSTORE CALLVALUE DUP1 ISZERO PUSH2 0x10 JUMPI PUSH1 0x0 DUP1 REVERT JUMPDEST POP PUSH1 0x40 MLOAD PUSH2 0x1B2A CODESIZE SUB DUP1 PUSH2 0x1B2A DUP4 CODECOPY DUP2 DUP2 ADD PUSH1 0x40 MSTORE PUSH1 0x80 DUP2 LT ISZERO PUSH2 0x33 JUMPI PUSH1 0x0 DUP1 REVERT JUMPDEST POP DUP1 MLOAD PUSH1 0x20 DUP3 ADD MLOAD PUSH1 0x40 DUP4 ADD MLOAD PUSH1 0x60 SWAP4 DUP5 ADD MLOAD PUSH1 0x1 PUSH1 0x1 PUSH1 0x60 SHL SUB NOT SWAP4 DUP6 SHL DUP5 AND PUSH1 0x80 MSTORE PUSH1 0x1 DUP1 SLOAD PUSH1 0x1 PUSH1 0x1 PUSH1 0xA0 SHL SUB SWAP5 DUP6 AND PUSH1 0x1 PUSH1 0x1 PUSH1 0xA0 SHL SUB NOT SWAP2 DUP3 AND OR SWAP1 SWAP2 SSTORE PUSH1 0x0 DUP1 SLOAD SWAP5 SWAP1 SWAP4 AND SWAP4 AND SWAP3 SWAP1 SWAP3 OR SWAP1 SSTORE SWAP1 SWAP2 SHL AND PUSH1 0xA0 MSTORE PUSH1 0x80 MLOAD PUSH1 0x60 SHR PUSH1 0xA0 MLOAD PUSH1 0x60 SHR PUSH2 0x1A65 PUSH2 0xC5 PUSH1 0x0 CODECOPY DUP1 PUSH2 0x592 MSTORE DUP1 PUSH2 0x8BD MSTORE DUP1 PUSH2 0x1072 MSTORE POP DUP1 PUSH2 0x9AB MSTORE DUP1 PUSH2 0x15B3 MSTORE POP PUSH2 0x1A65 PUSH1 0x0 RETURN INVALID PUSH1 0x80 PUSH1 0x40 MSTORE CALLVALUE DUP1 ISZERO PUSH2 0x10 JUMPI PUSH1 0x0 DUP1 REVERT JUMPDEST POP PUSH1 0x4 CALLDATASIZE LT PUSH2 0x136 JUMPI PUSH1 0x0 CALLDATALOAD PUSH1 0xE0 SHR DUP1 PUSH4 0x7D0107CF GT PUSH2 0xB2 JUMPI DUP1 PUSH4 0xA6C9C443 GT PUSH2 0x81 JUMPI DUP1 PUSH4 0xB516E6E1 GT PUSH2 0x66 JUMPI DUP1 PUSH4 0xB516E6E1 EQ PUSH2 0x395 JUMPI DUP1 PUSH4 0xD21C87AD EQ PUSH2 0x3C8 JUMPI DUP1 PUSH4 0xD418634A EQ PUSH2 0x447 JUMPI PUSH2 0x136 JUMP JUMPDEST DUP1 PUSH4 0xA6C9C443 EQ PUSH2 0x35A JUMPI DUP1 PUSH4 0xA91EE0DC EQ PUSH2 0x362 JUMPI PUSH2 0x136 JUMP JUMPDEST DUP1 PUSH4 0x7D0107CF EQ PUSH2 0x2E7 JUMPI DUP1 PUSH4 0x7F8BE859 EQ PUSH2 0x304 JUMPI DUP1 PUSH4 0x82AFD23B EQ PUSH2 0x30C JUMPI DUP1 PUSH4 0x9AF94F30 EQ PUSH2 0x33D JUMPI PUSH2 0x136 JUMP JUMPDEST DUP1 PUSH4 0x427FDC0C GT PUSH2 0x109 JUMPI DUP1 PUSH4 0x4D749E43 GT PUSH2 0xEE JUMPI DUP1 PUSH4 0x4D749E43 EQ PUSH2 0x276 JUMPI DUP1 PUSH4 0x63D5E44D EQ PUSH2 0x2AC JUMPI DUP1 PUSH4 0x663B64F7 EQ PUSH2 0x2DF JUMPI PUSH2 0x136 JUMP JUMPDEST DUP1 PUSH4 0x427FDC0C EQ PUSH2 0x23C JUMPI DUP1 PUSH4 0x46A62EAF EQ PUSH2 0x259 JUMPI PUSH2 0x136 JUMP JUMPDEST DUP1 PUSH4 0x2579677 EQ PUSH2 0x13B JUMPI DUP1 PUSH4 0x5752047 EQ PUSH2 0x16C JUMPI DUP1 PUSH4 0x249D9123 EQ PUSH2 0x1A7 JUMPI DUP1 PUSH4 0x360DAFA0 EQ PUSH2 0x1D6 JUMPI JUMPDEST PUSH1 0x0 DUP1 REVERT JUMPDEST PUSH2 0x143 PUSH2 0x464 JUMP JUMPDEST PUSH1 0x40 DUP1 MLOAD PUSH20 0xFFFFFFFFFFFFFFFFFFFFFFFFFFFFFFFFFFFFFFFF SWAP1 SWAP3 AND DUP3 MSTORE MLOAD SWAP1 DUP2 SWAP1 SUB PUSH1 0x20 ADD SWAP1 RETURN JUMPDEST PUSH2 0x1A5 PUSH1 0x4 DUP1 CALLDATASIZE SUB PUSH1 0x40 DUP2 LT ISZERO PUSH2 0x182 JUMPI PUSH1 0x0 DUP1 REVERT JUMPDEST POP PUSH20 0xFFFFFFFFFFFFFFFFFFFFFFFFFFFFFFFFFFFFFFFF DUP2 CALLDATALOAD AND SWAP1 PUSH1 0x20 ADD CALLDATALOAD PUSH2 0x480 JUMP JUMPDEST STOP JUMPDEST PUSH2 0x1C4 PUSH1 0x4 DUP1 CALLDATASIZE SUB PUSH1 0x20 DUP2 LT ISZERO PUSH2 0x1BD JUMPI PUSH1 0x0 DUP1 REVERT JUMPDEST POP CALLDATALOAD PUSH2 0x522 JUMP JUMPDEST PUSH1 0x40 DUP1 MLOAD SWAP2 DUP3 MSTORE MLOAD SWAP1 DUP2 SWAP1 SUB PUSH1 0x20 ADD SWAP1 RETURN JUMPDEST PUSH2 0x1F3 PUSH1 0x4 DUP1 CALLDATASIZE SUB PUSH1 0x20 DUP2 LT ISZERO PUSH2 0x1EC JUMPI PUSH1 0x0 DUP1 REVERT JUMPDEST POP CALLDATALOAD PUSH2 0x535 JUMP JUMPDEST PUSH1 0x40 MLOAD DUP1 DUP4 PUSH20 0xFFFFFFFFFFFFFFFFFFFFFFFFFFFFFFFFFFFFFFFF AND DUP2 MSTORE PUSH1 0x20 ADD DUP3 PUSH20 0xFFFFFFFFFFFFFFFFFFFFFFFFFFFFFFFFFFFFFFFF AND DUP2 MSTORE PUSH1 0x20 ADD SWAP3 POP POP POP PUSH1 0x40 MLOAD DUP1 SWAP2 SUB SWAP1 RETURN JUMPDEST PUSH2 0x1C4 PUSH1 0x4 DUP1 CALLDATASIZE SUB PUSH1 0x20 DUP2 LT ISZERO PUSH2 0x252 JUMPI PUSH1 0x0 DUP1 REVERT JUMPDEST POP CALLDATALOAD PUSH2 0x54A JUMP JUMPDEST PUSH2 0x1C4 PUSH1 0x4 DUP1 CALLDATASIZE SUB PUSH1 0x20 DUP2 LT ISZERO PUSH2 0x26F JUMPI PUSH1 0x0 DUP1 REVERT JUMPDEST POP CALLDATALOAD PUSH2 0x55D JUMP JUMPDEST PUSH2 0x293 PUSH1 0x4 DUP1 CALLDATASIZE SUB PUSH1 0x20 DUP2 LT ISZERO PUSH2 0x28C JUMPI PUSH1 0x0 DUP1 REVERT JUMPDEST POP CALLDATALOAD PUSH2 0x572 JUMP JUMPDEST PUSH1 0x40 DUP1 MLOAD SWAP3 DUP4 MSTORE PUSH1 0x20 DUP4 ADD SWAP2 SWAP1 SWAP2 MSTORE DUP1 MLOAD SWAP2 DUP3 SWAP1 SUB ADD SWAP1 RETURN JUMPDEST PUSH2 0x1C4 PUSH1 0x4 DUP1 CALLDATASIZE SUB PUSH1 0x20 DUP2 LT ISZERO PUSH2 0x2C2 JUMPI PUSH1 0x0 DUP1 REVERT JUMPDEST POP CALLDATALOAD PUSH20 0xFFFFFFFFFFFFFFFFFFFFFFFFFFFFFFFFFFFFFFFF AND PUSH2 0x57E JUMP JUMPDEST PUSH2 0x143 PUSH2 0x590 JUMP JUMPDEST PUSH2 0x1A5 PUSH1 0x4 DUP1 CALLDATASIZE SUB PUSH1 0x20 DUP2 LT ISZERO PUSH2 0x2FD JUMPI PUSH1 0x0 DUP1 REVERT JUMPDEST POP CALLDATALOAD PUSH2 0x5B4 JUMP JUMPDEST PUSH2 0x143 PUSH2 0x96B JUMP JUMPDEST PUSH2 0x329 PUSH1 0x4 DUP1 CALLDATASIZE SUB PUSH1 0x20 DUP2 LT ISZERO PUSH2 0x322 JUMPI PUSH1 0x0 DUP1 REVERT JUMPDEST POP CALLDATALOAD PUSH2 0x987 JUMP JUMPDEST PUSH1 0x40 DUP1 MLOAD SWAP2 ISZERO ISZERO DUP3 MSTORE MLOAD SWAP1 DUP2 SWAP1 SUB PUSH1 0x20 ADD SWAP1 RETURN JUMPDEST PUSH2 0x293 PUSH1 0x4 DUP1 CALLDATASIZE SUB PUSH1 0x20 DUP2 LT ISZERO PUSH2 0x353 JUMPI PUSH1 0x0 DUP1 REVERT JUMPDEST POP CALLDATALOAD PUSH2 0x992 JUMP JUMPDEST PUSH2 0x143 PUSH2 0x9A9 JUMP JUMPDEST PUSH2 0x1A5 PUSH1 0x4 DUP1 CALLDATASIZE SUB PUSH1 0x20 DUP2 LT ISZERO PUSH2 0x378 JUMPI PUSH1 0x0 DUP1 REVERT JUMPDEST POP CALLDATALOAD PUSH20 0xFFFFFFFFFFFFFFFFFFFFFFFFFFFFFFFFFFFFFFFF AND PUSH2 0x9CD JUMP JUMPDEST PUSH2 0x1A5 PUSH1 0x4 DUP1 CALLDATASIZE SUB PUSH1 0x20 DUP2 LT ISZERO PUSH2 0x3AB JUMPI PUSH1 0x0 DUP1 REVERT JUMPDEST POP CALLDATALOAD PUSH20 0xFFFFFFFFFFFFFFFFFFFFFFFFFFFFFFFFFFFFFFFF AND PUSH2 0xA1C JUMP JUMPDEST PUSH2 0x3E5 PUSH1 0x4 DUP1 CALLDATASIZE SUB PUSH1 0x20 DUP2 LT ISZERO PUSH2 0x3DE JUMPI PUSH1 0x0 DUP1 REVERT JUMPDEST POP CALLDATALOAD PUSH2 0xA6B JUMP JUMPDEST PUSH1 0x40 DUP1 MLOAD SWAP10 ISZERO ISZERO DUP11 MSTORE PUSH20 0xFFFFFFFFFFFFFFFFFFFFFFFFFFFFFFFFFFFFFFFF SWAP9 DUP10 AND PUSH1 0x20 DUP12 ADD MSTORE SWAP7 SWAP1 SWAP8 AND DUP9 DUP8 ADD MSTORE PUSH1 0x60 DUP9 ADD SWAP5 SWAP1 SWAP5 MSTORE PUSH1 0x80 DUP8 ADD SWAP3 SWAP1 SWAP3 MSTORE PUSH1 0xA0 DUP7 ADD MSTORE PUSH1 0xC0 DUP6 ADD MSTORE PUSH1 0xE0 DUP5 ADD MSTORE PUSH2 0x100 DUP4 ADD SWAP2 SWAP1 SWAP2 MSTORE MLOAD SWAP1 DUP2 SWAP1 SUB PUSH2 0x120 ADD SWAP1 RETURN JUMPDEST PUSH2 0x1C4 PUSH1 0x4 DUP1 CALLDATASIZE SUB PUSH1 0x20 DUP2 LT ISZERO PUSH2 0x45D JUMPI PUSH1 0x0 DUP1 REVERT JUMPDEST POP CALLDATALOAD PUSH2 0xACC JUMP JUMPDEST PUSH1 0x0 SLOAD PUSH20 0xFFFFFFFFFFFFFFFFFFFFFFFFFFFFFFFFFFFFFFFF AND DUP2 JUMP JUMPDEST PUSH2 0x488 PUSH2 0xAE2 JUMP JUMPDEST PUSH2 0x2710 DUP2 GT ISZERO PUSH2 0x4F9 JUMPI PUSH1 0x40 DUP1 MLOAD PUSH32 0x8C379A000000000000000000000000000000000000000000000000000000000 DUP2 MSTORE PUSH1 0x20 PUSH1 0x4 DUP3 ADD MSTORE PUSH1 0x17 PUSH1 0x24 DUP3 ADD MSTORE PUSH32 0x524154494F5F4249474745525F5448414E5F3130303030000000000000000000 PUSH1 0x44 DUP3 ADD MSTORE SWAP1 MLOAD SWAP1 DUP2 SWAP1 SUB PUSH1 0x64 ADD SWAP1 REVERT JUMPDEST PUSH20 0xFFFFFFFFFFFFFFFFFFFFFFFFFFFFFFFFFFFFFFFF SWAP1 SWAP2 AND PUSH1 0x0 SWAP1 DUP2 MSTORE PUSH1 0x2 PUSH1 0x20 MSTORE PUSH1 0x40 SWAP1 KECCAK256 SSTORE JUMP JUMPDEST PUSH1 0x0 PUSH2 0x52D DUP3 PUSH2 0xB6A JUMP JUMPDEST SWAP1 POP JUMPDEST SWAP2 SWAP1 POP JUMP JUMPDEST PUSH1 0x0 DUP1 PUSH2 0x541 DUP4 PUSH2 0xBA1 JUMP JUMPDEST SWAP2 POP SWAP2 POP SWAP2 POP SWAP2 JUMP JUMPDEST PUSH1 0x0 PUSH2 0x555 DUP3 PUSH2 0xDE0 JUMP JUMPDEST SWAP5 SWAP4 POP POP POP POP JUMP JUMPDEST PUSH1 0x0 DUP1 PUSH2 0x569 DUP4 PUSH2 0xF83 JUMP JUMPDEST SWAP6 SWAP5 POP POP POP POP POP JUMP JUMPDEST PUSH1 0x0 DUP1 PUSH2 0x541 DUP4 PUSH2 0x1116 JUMP JUMPDEST PUSH1 0x2 PUSH1 0x20 MSTORE PUSH1 0x0 SWAP1 DUP2 MSTORE PUSH1 0x40 SWAP1 KECCAK256 SLOAD DUP2 JUMP JUMPDEST PUSH32 0x0 DUP2 JUMP JUMPDEST PUSH1 0x0 DUP1 SLOAD PUSH1 0x40 DUP1 MLOAD PUSH32 0xC277F1AC00000000000000000000000000000000000000000000000000000000 DUP2 MSTORE PUSH1 0x4 DUP2 ADD DUP6 SWAP1 MSTORE SWAP1 MLOAD PUSH20 0xFFFFFFFFFFFFFFFFFFFFFFFFFFFFFFFFFFFFFFFF SWAP1 SWAP3 AND SWAP2 PUSH4 0xC277F1AC SWAP2 PUSH1 0x24 DUP1 DUP3 ADD SWAP3 DUP7 SWAP3 SWAP1 SWAP2 SWAP1 DUP3 SWAP1 SUB ADD DUP2 DUP7 DUP1 EXTCODESIZE ISZERO DUP1 ISZERO PUSH2 0x626 JUMPI PUSH1 0x0 DUP1 REVERT JUMPDEST POP GAS STATICCALL ISZERO DUP1 ISZERO PUSH2 0x63A JUMPI RETURNDATASIZE PUSH1 0x0 DUP1 RETURNDATACOPY RETURNDATASIZE PUSH1 0x0 REVERT JUMPDEST POP POP POP POP PUSH1 0x40 MLOAD RETURNDATASIZE PUSH1 0x0 DUP3 RETURNDATACOPY PUSH1 0x1F RETURNDATASIZE SWAP1 DUP2 ADD PUSH32 0xFFFFFFFFFFFFFFFFFFFFFFFFFFFFFFFFFFFFFFFFFFFFFFFFFFFFFFFFFFFFFFE0 AND DUP3 ADD PUSH1 0x40 MSTORE PUSH1 0xC0 DUP2 LT ISZERO PUSH2 0x681 JUMPI PUSH1 0x0 DUP1 REVERT JUMPDEST DUP2 MLOAD PUSH1 0x20 DUP4 ADD DUP1 MLOAD PUSH1 0x40 MLOAD SWAP3 SWAP5 SWAP3 SWAP4 DUP4 ADD SWAP3 SWAP2 SWAP1 DUP5 PUSH5 0x100000000 DUP3 GT ISZERO PUSH2 0x6A8 JUMPI PUSH1 0x0 DUP1 REVERT JUMPDEST SWAP1 DUP4 ADD SWAP1 PUSH1 0x20 DUP3 ADD DUP6 DUP2 GT ISZERO PUSH2 0x6BD JUMPI PUSH1 0x0 DUP1 REVERT JUMPDEST DUP3 MLOAD PUSH5 0x100000000 DUP2 GT DUP3 DUP3 ADD DUP9 LT OR ISZERO PUSH2 0x6D7 JUMPI PUSH1 0x0 DUP1 REVERT JUMPDEST DUP3 MSTORE POP DUP2 MLOAD PUSH1 0x20 SWAP2 DUP3 ADD SWAP3 SWAP1 SWAP2 ADD SWAP1 DUP1 DUP4 DUP4 PUSH1 0x0 JUMPDEST DUP4 DUP2 LT ISZERO PUSH2 0x704 JUMPI DUP2 DUP2 ADD MLOAD DUP4 DUP3 ADD MSTORE PUSH1 0x20 ADD PUSH2 0x6EC JUMP JUMPDEST POP POP POP POP SWAP1 POP SWAP1 DUP2 ADD SWAP1 PUSH1 0x1F AND DUP1 ISZERO PUSH2 0x731 JUMPI DUP1 DUP3 SUB DUP1 MLOAD PUSH1 0x1 DUP4 PUSH1 0x20 SUB PUSH2 0x100 EXP SUB NOT AND DUP2 MSTORE PUSH1 0x20 ADD SWAP2 POP JUMPDEST POP PUSH1 0x40 MSTORE PUSH1 0x20 ADD DUP1 MLOAD PUSH1 0x40 MLOAD SWAP4 SWAP3 SWAP2 SWAP1 DUP5 PUSH5 0x100000000 DUP3 GT ISZERO PUSH2 0x754 JUMPI PUSH1 0x0 DUP1 REVERT JUMPDEST SWAP1 DUP4 ADD SWAP1 PUSH1 0x20 DUP3 ADD DUP6 DUP2 GT ISZERO PUSH2 0x769 JUMPI PUSH1 0x0 DUP1 REVERT JUMPDEST DUP3 MLOAD PUSH5 0x100000000 DUP2 GT DUP3 DUP3 ADD DUP9 LT OR ISZERO PUSH2 0x783 JUMPI PUSH1 0x0 DUP1 REVERT JUMPDEST DUP3 MSTORE POP DUP2 MLOAD PUSH1 0x20 SWAP2 DUP3 ADD SWAP3 SWAP1 SWAP2 ADD SWAP1 DUP1 DUP4 DUP4 PUSH1 0x0 JUMPDEST DUP4 DUP2 LT ISZERO PUSH2 0x7B0 JUMPI DUP2 DUP2 ADD MLOAD DUP4 DUP3 ADD MSTORE PUSH1 0x20 ADD PUSH2 0x798 JUMP JUMPDEST POP POP POP POP SWAP1 POP SWAP1 DUP2 ADD SWAP1 PUSH1 0x1F AND DUP1 ISZERO PUSH2 0x7DD JUMPI DUP1 DUP3 SUB DUP1 MLOAD PUSH1 0x1 DUP4 PUSH1 0x20 SUB PUSH2 0x100 EXP SUB NOT AND DUP2 MSTORE PUSH1 0x20 ADD SWAP2 POP JUMPDEST POP PUSH1 0x40 MSTORE POP SWAP4 SWAP5 POP POP POP POP PUSH20 0xFFFFFFFFFFFFFFFFFFFFFFFFFFFFFFFFFFFFFFFF DUP3 AND ISZERO ISZERO SWAP1 POP PUSH2 0x80D JUMPI POP PUSH2 0x968 JUMP JUMPDEST PUSH1 0x0 DUP2 PUSH20 0xFFFFFFFFFFFFFFFFFFFFFFFFFFFFFFFFFFFFFFFF AND PUSH4 0x9489FA84 PUSH1 0x40 MLOAD DUP2 PUSH4 0xFFFFFFFF AND PUSH1 0xE0 SHL DUP2 MSTORE PUSH1 0x4 ADD PUSH1 0x20 PUSH1 0x40 MLOAD DUP1 DUP4 SUB DUP2 DUP7 DUP1 EXTCODESIZE ISZERO DUP1 ISZERO PUSH2 0x855 JUMPI PUSH1 0x0 DUP1 REVERT JUMPDEST POP GAS STATICCALL ISZERO DUP1 ISZERO PUSH2 0x869 JUMPI RETURNDATASIZE PUSH1 0x0 DUP1 RETURNDATACOPY RETURNDATASIZE PUSH1 0x0 REVERT JUMPDEST POP POP POP POP PUSH1 0x40 MLOAD RETURNDATASIZE PUSH1 0x20 DUP2 LT ISZERO PUSH2 0x87F JUMPI PUSH1 0x0 DUP1 REVERT JUMPDEST POP MLOAD SWAP1 POP PUSH2 0x88C CALLER PUSH2 0x1252 JUMP JUMPDEST ISZERO PUSH2 0x89A JUMPI PUSH2 0x89A DUP3 PUSH2 0x1258 JUMP JUMPDEST PUSH2 0x8A3 DUP4 PUSH2 0x12C6 JUMP JUMPDEST PUSH1 0x0 PUSH2 0x8AE DUP5 PUSH2 0x1116 JUMP JUMPDEST POP SWAP1 POP PUSH2 0x8BB DUP3 DUP6 PUSH2 0x12F4 JUMP JUMPDEST PUSH32 0x0 PUSH20 0xFFFFFFFFFFFFFFFFFFFFFFFFFFFFFFFFFFFFFFFF AND PUSH4 0xECC128F2 DUP5 DUP4 PUSH1 0x40 MLOAD DUP4 PUSH4 0xFFFFFFFF AND PUSH1 0xE0 SHL DUP2 MSTORE PUSH1 0x4 ADD DUP1 DUP4 PUSH20 0xFFFFFFFFFFFFFFFFFFFFFFFFFFFFFFFFFFFFFFFF AND DUP2 MSTORE PUSH1 0x20 ADD DUP3 DUP2 MSTORE PUSH1 0x20 ADD SWAP3 POP POP POP PUSH1 0x0 PUSH1 0x40 MLOAD DUP1 DUP4 SUB DUP2 PUSH1 0x0 DUP8 DUP1 EXTCODESIZE ISZERO DUP1 ISZERO PUSH2 0x94C JUMPI PUSH1 0x0 DUP1 REVERT JUMPDEST POP GAS CALL ISZERO DUP1 ISZERO PUSH2 0x960 JUMPI RETURNDATASIZE PUSH1 0x0 DUP1 RETURNDATACOPY RETURNDATASIZE PUSH1 0x0 REVERT JUMPDEST POP POP POP POP POP POP POP JUMPDEST POP JUMP JUMPDEST PUSH1 0x1 SLOAD PUSH20 0xFFFFFFFFFFFFFFFFFFFFFFFFFFFFFFFFFFFFFFFF AND DUP2 JUMP JUMPDEST PUSH1 0x0 PUSH2 0x52D DUP3 PUSH2 0x1320 JUMP JUMPDEST PUSH1 0x0 DUP1 PUSH2 0x99E DUP4 PUSH2 0xDE0 JUMP JUMPDEST POP SWAP1 SWAP5 SWAP1 SWAP4 POP SWAP2 POP POP JUMP JUMPDEST PUSH32 0x0 DUP2 JUMP JUMPDEST PUSH2 0x9D5 PUSH2 0xAE2 JUMP JUMPDEST PUSH1 0x0 DUP1 SLOAD PUSH32 0xFFFFFFFFFFFFFFFFFFFFFFFF0000000000000000000000000000000000000000 AND PUSH20 0xFFFFFFFFFFFFFFFFFFFFFFFFFFFFFFFFFFFFFFFF SWAP3 SWAP1 SWAP3 AND SWAP2 SWAP1 SWAP2 OR SWAP1 SSTORE JUMP JUMPDEST PUSH2 0xA24 PUSH2 0xAE2 JUMP JUMPDEST PUSH1 0x1 DUP1 SLOAD PUSH32 0xFFFFFFFFFFFFFFFFFFFFFFFF0000000000000000000000000000000000000000 AND PUSH20 0xFFFFFFFFFFFFFFFFFFFFFFFFFFFFFFFFFFFFFFFF SWAP3 SWAP1 SWAP3 AND SWAP2 SWAP1 SWAP2 OR SWAP1 SSTORE JUMP JUMPDEST PUSH1 0x0 DUP1 PUSH1 0x0 DUP1 PUSH1 0x0 DUP1 PUSH1 0x0 DUP1 PUSH1 0x0 PUSH2 0xA82 DUP11 PUSH2 0x1320 JUMP JUMPDEST SWAP9 POP PUSH2 0xA8D DUP11 PUSH2 0xBA1 JUMP JUMPDEST SWAP1 SWAP9 POP SWAP7 POP PUSH2 0xA9B DUP11 PUSH2 0xDE0 JUMP JUMPDEST SWAP2 SWAP8 POP SWAP6 POP SWAP4 POP PUSH2 0xAAB DUP11 PUSH2 0xF83 JUMP JUMPDEST SWAP2 SWAP5 POP SWAP1 SWAP3 POP PUSH2 0xABC SWAP1 POP DUP11 PUSH2 0x1116 JUMP JUMPDEST POP SWAP1 POP SWAP2 SWAP4 SWAP6 SWAP8 SWAP10 SWAP1 SWAP3 SWAP5 SWAP7 SWAP9 POP JUMP JUMPDEST PUSH1 0x0 DUP1 PUSH2 0xAD8 DUP4 PUSH2 0xF83 JUMP JUMPDEST POP SWAP1 SWAP5 SWAP4 POP POP POP POP JUMP JUMPDEST PUSH1 0x1 SLOAD PUSH20 0xFFFFFFFFFFFFFFFFFFFFFFFFFFFFFFFFFFFFFFFF AND CALLER EQ PUSH2 0xB68 JUMPI PUSH1 0x40 DUP1 MLOAD PUSH32 0x8C379A000000000000000000000000000000000000000000000000000000000 DUP2 MSTORE PUSH1 0x20 PUSH1 0x4 DUP3 ADD MSTORE PUSH1 0x1E PUSH1 0x24 DUP3 ADD MSTORE PUSH32 0x43414C4C45525F4E4F545F5249474F424C4F434B5F44414F5F4552524F520000 PUSH1 0x44 DUP3 ADD MSTORE SWAP1 MLOAD SWAP1 DUP2 SWAP1 SUB PUSH1 0x64 ADD SWAP1 REVERT JUMPDEST JUMP JUMPDEST PUSH1 0x0 DUP2 DUP2 MSTORE PUSH1 0x3 PUSH1 0x20 MSTORE PUSH1 0x40 DUP2 KECCAK256 SLOAD PUSH2 0xB8C JUMPI POP PUSH8 0xDE0B6B3A7640000 PUSH2 0x530 JUMP JUMPDEST POP PUSH1 0x0 DUP2 DUP2 MSTORE PUSH1 0x3 PUSH1 0x20 MSTORE PUSH1 0x40 SWAP1 KECCAK256 SLOAD PUSH2 0x530 JUMP JUMPDEST PUSH1 0x0 DUP1 SLOAD PUSH1 0x40 DUP1 MLOAD PUSH32 0xC277F1AC00000000000000000000000000000000000000000000000000000000 DUP2 MSTORE PUSH1 0x4 DUP2 ADD DUP6 SWAP1 MSTORE SWAP1 MLOAD DUP4 SWAP3 PUSH20 0xFFFFFFFFFFFFFFFFFFFFFFFFFFFFFFFFFFFFFFFF AND SWAP2 PUSH4 0xC277F1AC SWAP2 PUSH1 0x24 DUP1 DUP4 ADD SWAP3 DUP7 SWAP3 SWAP2 SWAP1 DUP3 SWAP1 SUB ADD DUP2 DUP7 DUP1 EXTCODESIZE ISZERO DUP1 ISZERO PUSH2 0xC12 JUMPI PUSH1 0x0 DUP1 REVERT JUMPDEST POP GAS STATICCALL ISZERO DUP1 ISZERO PUSH2 0xC26 JUMPI RETURNDATASIZE PUSH1 0x0 DUP1 RETURNDATACOPY RETURNDATASIZE PUSH1 0x0 REVERT JUMPDEST POP POP POP POP PUSH1 0x40 MLOAD RETURNDATASIZE PUSH1 0x0 DUP3 RETURNDATACOPY PUSH1 0x1F RETURNDATASIZE SWAP1 DUP2 ADD PUSH32 0xFFFFFFFFFFFFFFFFFFFFFFFFFFFFFFFFFFFFFFFFFFFFFFFFFFFFFFFFFFFFFFE0 AND DUP3 ADD PUSH1 0x40 MSTORE PUSH1 0xC0 DUP2 LT ISZERO PUSH2 0xC6D JUMPI PUSH1 0x0 DUP1 REVERT JUMPDEST DUP2 MLOAD PUSH1 0x20 DUP4 ADD DUP1 MLOAD PUSH1 0x40 MLOAD SWAP3 SWAP5 SWAP3 SWAP4 DUP4 ADD SWAP3 SWAP2 SWAP1 DUP5 PUSH5 0x100000000 DUP3 GT ISZERO PUSH2 0xC94 JUMPI PUSH1 0x0 DUP1 REVERT JUMPDEST SWAP1 DUP4 ADD SWAP1 PUSH1 0x20 DUP3 ADD DUP6 DUP2 GT ISZERO PUSH2 0xCA9 JUMPI PUSH1 0x0 DUP1 REVERT JUMPDEST DUP3 MLOAD PUSH5 0x100000000 DUP2 GT DUP3 DUP3 ADD DUP9 LT OR ISZERO PUSH2 0xCC3 JUMPI PUSH1 0x0 DUP1 REVERT JUMPDEST DUP3 MSTORE POP DUP2 MLOAD PUSH1 0x20 SWAP2 DUP3 ADD SWAP3 SWAP1 SWAP2 ADD SWAP1 DUP1 DUP4 DUP4 PUSH1 0x0 JUMPDEST DUP4 DUP2 LT ISZERO PUSH2 0xCF0 JUMPI DUP2 DUP2 ADD MLOAD DUP4 DUP3 ADD MSTORE PUSH1 0x20 ADD PUSH2 0xCD8 JUMP JUMPDEST POP POP POP POP SWAP1 POP SWAP1 DUP2 ADD SWAP1 PUSH1 0x1F AND DUP1 ISZERO PUSH2 0xD1D JUMPI DUP1 DUP3 SUB DUP1 MLOAD PUSH1 0x1 DUP4 PUSH1 0x20 SUB PUSH2 0x100 EXP SUB NOT AND DUP2 MSTORE PUSH1 0x20 ADD SWAP2 POP JUMPDEST POP PUSH1 0x40 MSTORE PUSH1 0x20 ADD DUP1 MLOAD PUSH1 0x40 MLOAD SWAP4 SWAP3 SWAP2 SWAP1 DUP5 PUSH5 0x100000000 DUP3 GT ISZERO PUSH2 0xD40 JUMPI PUSH1 0x0 DUP1 REVERT JUMPDEST SWAP1 DUP4 ADD SWAP1 PUSH1 0x20 DUP3 ADD DUP6 DUP2 GT ISZERO PUSH2 0xD55 JUMPI PUSH1 0x0 DUP1 REVERT JUMPDEST DUP3 MLOAD PUSH5 0x100000000 DUP2 GT DUP3 DUP3 ADD DUP9 LT OR ISZERO PUSH2 0xD6F JUMPI PUSH1 0x0 DUP1 REVERT JUMPDEST DUP3 MSTORE POP DUP2 MLOAD PUSH1 0x20 SWAP2 DUP3 ADD SWAP3 SWAP1 SWAP2 ADD SWAP1 DUP1 DUP4 DUP4 PUSH1 0x0 JUMPDEST DUP4 DUP2 LT ISZERO PUSH2 0xD9C JUMPI DUP2 DUP2 ADD MLOAD DUP4 DUP3 ADD MSTORE PUSH1 0x20 ADD PUSH2 0xD84 JUMP JUMPDEST POP POP POP POP SWAP1 POP SWAP1 DUP2 ADD SWAP1 PUSH1 0x1F AND DUP1 ISZERO PUSH2 0xDC9 JUMPI DUP1 DUP3 SUB DUP1 MLOAD PUSH1 0x1 DUP4 PUSH1 0x20 SUB PUSH2 0x100 EXP SUB NOT AND DUP2 MSTORE PUSH1 0x20 ADD SWAP2 POP JUMPDEST POP PUSH1 0x40 MSTORE PUSH1 0x60 ADD MLOAD SWAP5 SWAP7 POP SWAP4 SWAP5 POP POP POP POP POP SWAP2 POP SWAP2 JUMP JUMPDEST PUSH1 0x0 DUP1 PUSH1 0x0 DUP1 PUSH2 0xDEF DUP6 PUSH2 0xBA1 JUMP JUMPDEST POP SWAP1 POP PUSH1 0x0 DUP2 SWAP1 POP DUP1 PUSH20 0xFFFFFFFFFFFFFFFFFFFFFFFFFFFFFFFFFFFFFFFF AND PUSH4 0x9489FA84 PUSH1 0x40 MLOAD DUP2 PUSH4 0xFFFFFFFF AND PUSH1 0xE0 SHL DUP2 MSTORE PUSH1 0x4 ADD PUSH1 0x20 PUSH1 0x40 MLOAD DUP1 DUP4 SUB DUP2 DUP7 DUP1 EXTCODESIZE ISZERO DUP1 ISZERO PUSH2 0xE3D JUMPI PUSH1 0x0 DUP1 REVERT JUMPDEST POP GAS STATICCALL ISZERO DUP1 ISZERO PUSH2 0xE51 JUMPI RETURNDATASIZE PUSH1 0x0 DUP1 RETURNDATACOPY RETURNDATASIZE PUSH1 0x0 REVERT JUMPDEST POP POP POP POP PUSH1 0x40 MLOAD RETURNDATASIZE PUSH1 0x20 DUP2 LT ISZERO PUSH2 0xE67 JUMPI PUSH1 0x0 DUP1 REVERT JUMPDEST POP MLOAD PUSH1 0x40 DUP1 MLOAD PUSH32 0x18160DDD00000000000000000000000000000000000000000000000000000000 DUP2 MSTORE SWAP1 MLOAD SWAP2 SWAP7 POP PUSH20 0xFFFFFFFFFFFFFFFFFFFFFFFFFFFFFFFFFFFFFFFF DUP4 AND SWAP2 PUSH4 0x18160DDD SWAP2 PUSH1 0x4 DUP1 DUP3 ADD SWAP3 PUSH1 0x20 SWAP3 SWAP1 SWAP2 SWAP1 DUP3 SWAP1 SUB ADD DUP2 DUP7 DUP1 EXTCODESIZE ISZERO DUP1 ISZERO PUSH2 0xED3 JUMPI PUSH1 0x0 DUP1 REVERT JUMPDEST POP GAS STATICCALL ISZERO DUP1 ISZERO PUSH2 0xEE7 JUMPI RETURNDATASIZE PUSH1 0x0 DUP1 RETURNDATACOPY RETURNDATASIZE PUSH1 0x0 REVERT JUMPDEST POP POP POP POP PUSH1 0x40 MLOAD RETURNDATASIZE PUSH1 0x20 DUP2 LT ISZERO PUSH2 0xEFD JUMPI PUSH1 0x0 DUP1 REVERT JUMPDEST POP MLOAD SWAP4 POP DUP5 ISZERO DUP1 PUSH2 0xF0C JUMPI POP DUP4 ISZERO JUMPDEST ISZERO PUSH2 0xF62 JUMPI PUSH1 0x40 MLOAD PUSH32 0x8C379A000000000000000000000000000000000000000000000000000000000 DUP2 MSTORE PUSH1 0x4 ADD DUP1 DUP1 PUSH1 0x20 ADD DUP3 DUP2 SUB DUP3 MSTORE PUSH1 0x25 DUP2 MSTORE PUSH1 0x20 ADD DUP1 PUSH2 0x19E4 PUSH1 0x25 SWAP2 CODECOPY PUSH1 0x40 ADD SWAP2 POP POP PUSH1 0x40 MLOAD DUP1 SWAP2 SUB SWAP1 REVERT JUMPDEST PUSH3 0xF4240 PUSH2 0xF70 DUP7 DUP7 PUSH2 0x1586 JUMP JUMPDEST DUP2 PUSH2 0xF77 JUMPI INVALID JUMPDEST DIV SWAP3 POP POP POP SWAP2 SWAP4 SWAP1 SWAP3 POP JUMP JUMPDEST PUSH1 0x0 DUP1 PUSH1 0x0 DUP1 PUSH2 0xF92 DUP6 PUSH2 0xBA1 JUMP JUMPDEST SWAP2 POP POP PUSH2 0xF9D PUSH2 0x15AF JUMP JUMPDEST PUSH20 0xFFFFFFFFFFFFFFFFFFFFFFFFFFFFFFFFFFFFFFFF AND PUSH4 0xD410E0C2 DUP3 PUSH1 0x40 MLOAD DUP3 PUSH4 0xFFFFFFFF AND PUSH1 0xE0 SHL DUP2 MSTORE PUSH1 0x4 ADD DUP1 DUP3 PUSH20 0xFFFFFFFFFFFFFFFFFFFFFFFFFFFFFFFFFFFFFFFF AND DUP2 MSTORE PUSH1 0x20 ADD SWAP2 POP POP PUSH1 0x20 PUSH1 0x40 MLOAD DUP1 DUP4 SUB DUP2 DUP7 DUP1 EXTCODESIZE ISZERO DUP1 ISZERO PUSH2 0x1003 JUMPI PUSH1 0x0 DUP1 REVERT JUMPDEST POP GAS STATICCALL ISZERO DUP1 ISZERO PUSH2 0x1017 JUMPI RETURNDATASIZE PUSH1 0x0 DUP1 RETURNDATACOPY RETURNDATASIZE PUSH1 0x0 REVERT JUMPDEST POP POP POP POP PUSH1 0x40 MLOAD RETURNDATASIZE PUSH1 0x20 DUP2 LT ISZERO PUSH2 0x102D JUMPI PUSH1 0x0 DUP1 REVERT JUMPDEST POP MLOAD PUSH1 0x40 DUP1 MLOAD PUSH32 0x5E615A6B00000000000000000000000000000000000000000000000000000000 DUP2 MSTORE SWAP1 MLOAD SWAP2 SWAP6 POP PUSH20 0xFFFFFFFFFFFFFFFFFFFFFFFFFFFFFFFFFFFFFFFF PUSH32 0x0 AND SWAP2 PUSH4 0x5E615A6B SWAP2 PUSH1 0x4 DUP1 DUP3 ADD SWAP3 PUSH1 0xA0 SWAP3 SWAP1 SWAP2 SWAP1 DUP3 SWAP1 SUB ADD DUP2 DUP7 DUP1 EXTCODESIZE ISZERO DUP1 ISZERO PUSH2 0x10B9 JUMPI PUSH1 0x0 DUP1 REVERT JUMPDEST POP GAS STATICCALL ISZERO DUP1 ISZERO PUSH2 0x10CD JUMPI RETURNDATASIZE PUSH1 0x0 DUP1 RETURNDATACOPY RETURNDATASIZE PUSH1 0x0 REVERT JUMPDEST POP POP POP POP PUSH1 0x40 MLOAD RETURNDATASIZE PUSH1 0xA0 DUP2 LT ISZERO PUSH2 0x10E3 JUMPI PUSH1 0x0 DUP1 REVERT JUMPDEST POP MLOAD PUSH20 0xFFFFFFFFFFFFFFFFFFFFFFFFFFFFFFFFFFFFFFFF SWAP1 SWAP2 AND PUSH1 0x0 SWAP1 DUP2 MSTORE PUSH1 0x2 PUSH1 0x20 MSTORE PUSH1 0x40 SWAP1 KECCAK256 SLOAD SWAP4 SWAP6 SWAP1 SWAP5 POP SWAP2 POP POP JUMP JUMPDEST PUSH1 0x0 DUP1 PUSH1 0x0 DUP1 PUSH1 0x0 PUSH2 0x1127 DUP7 PUSH2 0xDE0 JUMP JUMPDEST SWAP3 POP SWAP3 POP SWAP3 POP PUSH1 0x0 PUSH2 0x1138 DUP8 PUSH2 0xBA1 JUMP JUMPDEST POP SWAP1 POP PUSH1 0x0 DUP1 PUSH1 0x0 PUSH2 0x1149 DUP11 PUSH2 0xF83 JUMP JUMPDEST SWAP3 POP SWAP3 POP SWAP3 POP PUSH1 0x0 PUSH3 0x15180 DUP4 PUSH2 0x1160 DUP9 DUP8 PUSH2 0x1586 JUMP JUMPDEST MUL DUP2 PUSH2 0x1168 JUMPI INVALID JUMPDEST DIV SWAP1 POP PUSH1 0x0 PUSH2 0x1176 DUP13 PUSH2 0xB6A JUMP JUMPDEST DUP10 GT ISZERO PUSH2 0x11AF JUMPI PUSH2 0x11A6 PUSH3 0xF4240 PUSH2 0x1198 PUSH2 0x1190 DUP16 PUSH2 0xB6A JUMP JUMPDEST DUP13 SUB DUP12 PUSH2 0x1586 JUMP JUMPDEST DUP2 PUSH2 0x119F JUMPI INVALID JUMPDEST DIV DUP7 PUSH2 0x1586 JUMP JUMPDEST PUSH2 0x16D MUL PUSH2 0x11B2 JUMP JUMPDEST PUSH1 0x0 JUMPDEST SWAP1 POP PUSH1 0x0 PUSH8 0xDE0B6B3A7640000 PUSH2 0x11C9 DUP9 DUP11 PUSH2 0x1648 JUMP JUMPDEST PUSH10 0x21E19E0C9BAB2400000 PUSH2 0x11E9 DUP7 PUSH2 0x11E4 PUSH2 0x2710 DUP11 PUSH2 0x1988 JUMP JUMPDEST PUSH2 0x1586 JUMP JUMPDEST DUP2 PUSH2 0x11F0 JUMPI INVALID JUMPDEST DIV MUL DUP2 PUSH2 0x11F9 JUMPI INVALID JUMPDEST DIV SWAP1 POP PUSH8 0xDE0B6B3A7640000 PUSH2 0x120F DUP9 DUP11 PUSH2 0x1648 JUMP JUMPDEST PUSH2 0x122C PUSH2 0x121C DUP6 DUP9 PUSH2 0x1586 JUMP JUMPDEST PUSH10 0x21E19E0C9BAB2400000 PUSH2 0x199A JUMP JUMPDEST MUL DUP2 PUSH2 0x1234 JUMPI INVALID JUMPDEST DIV SWAP11 POP PUSH2 0x1241 DUP12 DUP3 PUSH2 0x19C9 JUMP JUMPDEST SWAP12 POP POP POP POP POP POP POP POP POP POP POP SWAP2 POP SWAP2 JUMP JUMPDEST EXTCODESIZE ISZERO ISZERO SWAP1 JUMP JUMPDEST CALLER PUSH20 0xFFFFFFFFFFFFFFFFFFFFFFFFFFFFFFFFFFFFFFFF DUP3 AND EQ PUSH2 0x968 JUMPI PUSH1 0x40 MLOAD PUSH32 0x8C379A000000000000000000000000000000000000000000000000000000000 DUP2 MSTORE PUSH1 0x4 ADD DUP1 DUP1 PUSH1 0x20 ADD DUP3 DUP2 SUB DUP3 MSTORE PUSH1 0x27 DUP2 MSTORE PUSH1 0x20 ADD DUP1 PUSH2 0x1A09 PUSH1 0x27 SWAP2 CODECOPY PUSH1 0x40 ADD SWAP2 POP POP PUSH1 0x40 MLOAD DUP1 SWAP2 SUB SWAP1 REVERT JUMPDEST PUSH1 0x0 DUP2 DUP2 MSTORE PUSH1 0x3 PUSH1 0x20 MSTORE PUSH1 0x40 SWAP1 KECCAK256 SLOAD PUSH2 0x968 JUMPI PUSH1 0x0 SWAP1 DUP2 MSTORE PUSH1 0x3 PUSH1 0x20 MSTORE PUSH1 0x40 SWAP1 KECCAK256 PUSH8 0xDE0B6B3A7640000 SWAP1 SSTORE JUMP JUMPDEST PUSH1 0x0 DUP2 DUP2 MSTORE PUSH1 0x3 PUSH1 0x20 MSTORE PUSH1 0x40 SWAP1 KECCAK256 SLOAD DUP3 GT ISZERO PUSH2 0x131C JUMPI PUSH1 0x0 DUP2 DUP2 MSTORE PUSH1 0x3 PUSH1 0x20 MSTORE PUSH1 0x40 SWAP1 KECCAK256 DUP3 SWAP1 SSTORE JUMPDEST POP POP JUMP JUMPDEST PUSH1 0x0 DUP1 SLOAD PUSH1 0x40 DUP1 MLOAD PUSH32 0xC277F1AC00000000000000000000000000000000000000000000000000000000 DUP2 MSTORE PUSH1 0x4 DUP2 ADD DUP6 SWAP1 MSTORE SWAP1 MLOAD DUP4 SWAP3 PUSH20 0xFFFFFFFFFFFFFFFFFFFFFFFFFFFFFFFFFFFFFFFF AND SWAP2 PUSH4 0xC277F1AC SWAP2 PUSH1 0x24 DUP1 DUP4 ADD SWAP3 DUP7 SWAP3 SWAP2 SWAP1 DUP3 SWAP1 SUB ADD DUP2 DUP7 DUP1 EXTCODESIZE ISZERO DUP1 ISZERO PUSH2 0x1391 JUMPI PUSH1 0x0 DUP1 REVERT JUMPDEST POP GAS STATICCALL ISZERO DUP1 ISZERO PUSH2 0x13A5 JUMPI RETURNDATASIZE PUSH1 0x0 DUP1 RETURNDATACOPY RETURNDATASIZE PUSH1 0x0 REVERT JUMPDEST POP POP POP POP PUSH1 0x40 MLOAD RETURNDATASIZE PUSH1 0x0 DUP3 RETURNDATACOPY PUSH1 0x1F RETURNDATASIZE SWAP1 DUP2 ADD PUSH32 0xFFFFFFFFFFFFFFFFFFFFFFFFFFFFFFFFFFFFFFFFFFFFFFFFFFFFFFFFFFFFFFE0 AND DUP3 ADD PUSH1 0x40 MSTORE PUSH1 0xC0 DUP2 LT ISZERO PUSH2 0x13EC JUMPI PUSH1 0x0 DUP1 REVERT JUMPDEST DUP2 MLOAD PUSH1 0x20 DUP4 ADD DUP1 MLOAD PUSH1 0x40 MLOAD SWAP3 SWAP5 SWAP3 SWAP4 DUP4 ADD SWAP3 SWAP2 SWAP1 DUP5 PUSH5 0x100000000 DUP3 GT ISZERO PUSH2 0x1413 JUMPI PUSH1 0x0 DUP1 REVERT JUMPDEST SWAP1 DUP4 ADD SWAP1 PUSH1 0x20 DUP3 ADD DUP6 DUP2 GT ISZERO PUSH2 0x1428 JUMPI PUSH1 0x0 DUP1 REVERT JUMPDEST DUP3 MLOAD PUSH5 0x100000000 DUP2 GT DUP3 DUP3 ADD DUP9 LT OR ISZERO PUSH2 0x1442 JUMPI PUSH1 0x0 DUP1 REVERT JUMPDEST DUP3 MSTORE POP DUP2 MLOAD PUSH1 0x20 SWAP2 DUP3 ADD SWAP3 SWAP1 SWAP2 ADD SWAP1 DUP1 DUP4 DUP4 PUSH1 0x0 JUMPDEST DUP4 DUP2 LT ISZERO PUSH2 0x146F JUMPI DUP2 DUP2 ADD MLOAD DUP4 DUP3 ADD MSTORE PUSH1 0x20 ADD PUSH2 0x1457 JUMP JUMPDEST POP POP POP POP SWAP1 POP SWAP1 DUP2 ADD SWAP1 PUSH1 0x1F AND DUP1 ISZERO PUSH2 0x149C JUMPI DUP1 DUP3 SUB DUP1 MLOAD PUSH1 0x1 DUP4 PUSH1 0x20 SUB PUSH2 0x100 EXP SUB NOT AND DUP2 MSTORE PUSH1 0x20 ADD SWAP2 POP JUMPDEST POP PUSH1 0x40 MSTORE PUSH1 0x20 ADD DUP1 MLOAD PUSH1 0x40 MLOAD SWAP4 SWAP3 SWAP2 SWAP1 DUP5 PUSH5 0x100000000 DUP3 GT ISZERO PUSH2 0x14BF JUMPI PUSH1 0x0 DUP1 REVERT JUMPDEST SWAP1 DUP4 ADD SWAP1 PUSH1 0x20 DUP3 ADD DUP6 DUP2 GT ISZERO PUSH2 0x14D4 JUMPI PUSH1 0x0 DUP1 REVERT JUMPDEST DUP3 MLOAD PUSH5 0x100000000 DUP2 GT DUP3 DUP3 ADD DUP9 LT OR ISZERO PUSH2 0x14EE JUMPI PUSH1 0x0 DUP1 REVERT JUMPDEST DUP3 MSTORE POP DUP2 MLOAD PUSH1 0x20 SWAP2 DUP3 ADD SWAP3 SWAP1 SWAP2 ADD SWAP1 DUP1 DUP4 DUP4 PUSH1 0x0 JUMPDEST DUP4 DUP2 LT ISZERO PUSH2 0x151B JUMPI DUP2 DUP2 ADD MLOAD DUP4 DUP3 ADD MSTORE PUSH1 0x20 ADD PUSH2 0x1503 JUMP JUMPDEST POP POP POP POP SWAP1 POP SWAP1 DUP2 ADD SWAP1 PUSH1 0x1F AND DUP1 ISZERO PUSH2 0x1548 JUMPI DUP1 DUP3 SUB DUP1 MLOAD PUSH1 0x1 DUP4 PUSH1 0x20 SUB PUSH2 0x100 EXP SUB NOT AND DUP2 MSTORE PUSH1 0x20 ADD SWAP2 POP JUMPDEST POP PUSH1 0x40 MSTORE POP SWAP4 SWAP5 POP POP POP PUSH20 0xFFFFFFFFFFFFFFFFFFFFFFFFFFFFFFFFFFFFFFFF DUP4 AND ISZERO SWAP2 POP PUSH2 0x157C SWAP1 POP JUMPI PUSH1 0x1 SWAP2 POP POP PUSH2 0x530 JUMP JUMPDEST PUSH1 0x0 SWAP2 POP POP PUSH2 0x530 JUMP JUMPDEST PUSH1 0x0 DUP3 DUP3 MUL DUP4 ISZERO DUP1 PUSH2 0x15A0 JUMPI POP DUP3 DUP5 DUP3 DUP2 PUSH2 0x159D JUMPI INVALID JUMPDEST DIV EQ JUMPDEST PUSH2 0x15A6 JUMPI INVALID JUMPDEST SWAP1 POP JUMPDEST SWAP3 SWAP2 POP POP JUMP JUMPDEST PUSH1 0x0 PUSH32 0x0 PUSH20 0xFFFFFFFFFFFFFFFFFFFFFFFFFFFFFFFFFFFFFFFF AND PUSH4 0x7546172 PUSH1 0x40 MLOAD DUP2 PUSH4 0xFFFFFFFF AND PUSH1 0xE0 SHL DUP2 MSTORE PUSH1 0x4 ADD PUSH1 0x20 PUSH1 0x40 MLOAD DUP1 DUP4 SUB DUP2 DUP7 DUP1 EXTCODESIZE ISZERO DUP1 ISZERO PUSH2 0x1617 JUMPI PUSH1 0x0 DUP1 REVERT JUMPDEST POP GAS STATICCALL ISZERO DUP1 ISZERO PUSH2 0x162B JUMPI RETURNDATASIZE PUSH1 0x0 DUP1 RETURNDATACOPY RETURNDATASIZE PUSH1 0x0 REVERT JUMPDEST POP POP POP POP PUSH1 0x40 MLOAD RETURNDATASIZE PUSH1 0x20 DUP2 LT ISZERO PUSH2 0x1641 JUMPI PUSH1 0x0 DUP1 REVERT JUMPDEST POP MLOAD SWAP1 POP SWAP1 JUMP JUMPDEST PUSH1 0x0 PUSH20 0xFFFFFFFFFFFFFFFFFFFFFFFFFFFFFFFFFFFFFFFF DUP4 AND BALANCE DUP3 DUP2 GT DUP1 PUSH2 0x1676 JUMPI POP PUSH7 0x38D7EA4C68000 DUP2 LT JUMPDEST DUP1 PUSH2 0x1687 JUMPI POP PUSH7 0x2386F26FC10000 DUP4 LT JUMPDEST ISZERO PUSH2 0x16F3 JUMPI PUSH1 0x40 DUP1 MLOAD PUSH32 0x8C379A000000000000000000000000000000000000000000000000000000000 DUP2 MSTORE PUSH1 0x20 PUSH1 0x4 DUP3 ADD MSTORE PUSH1 0x1B PUSH1 0x24 DUP3 ADD MSTORE PUSH32 0x4554485F41424F56455F41554D5F4F525F445553545F4552524F520000000000 PUSH1 0x44 DUP3 ADD MSTORE SWAP1 MLOAD SWAP1 DUP2 SWAP1 SUB PUSH1 0x64 ADD SWAP1 REVERT JUMPDEST PUSH8 0xB1A2BC2EC500000 DUP4 DUP3 PUSH8 0xDE0B6B3A7640000 MUL DUP2 PUSH2 0x170F JUMPI INVALID JUMPDEST DIV LT PUSH2 0x1726 JUMPI PUSH8 0xDE0B6B3A7640000 SWAP2 POP POP PUSH2 0x15A9 JUMP JUMPDEST PUSH8 0x853A0D2313C0000 DUP4 DUP3 PUSH8 0xDE0B6B3A7640000 MUL DUP2 PUSH2 0x1742 JUMPI INVALID JUMPDEST DIV LT PUSH2 0x1759 JUMPI PUSH8 0xD163580F7318000 SWAP2 POP POP PUSH2 0x15A9 JUMP JUMPDEST PUSH8 0x6F05B59D3B20000 DUP4 DUP3 PUSH8 0xDE0B6B3A7640000 MUL DUP2 PUSH2 0x1775 JUMPI INVALID JUMPDEST DIV LT PUSH2 0x178C JUMPI PUSH8 0xC39F0D50F1E8000 SWAP2 POP POP PUSH2 0x15A9 JUMP JUMPDEST PUSH8 0x58D15E176280000 DUP4 DUP3 PUSH8 0xDE0B6B3A7640000 MUL DUP2 PUSH2 0x17A8 JUMPI INVALID JUMPDEST DIV LT PUSH2 0x17BF JUMPI PUSH8 0xAAC096CF8468000 SWAP2 POP POP PUSH2 0x15A9 JUMP JUMPDEST PUSH8 0x429D069189E0000 DUP4 DUP3 PUSH8 0xDE0B6B3A7640000 MUL DUP2 PUSH2 0x17DB JUMPI INVALID JUMPDEST DIV LT PUSH2 0x17F2 JUMPI PUSH8 0x85013538C758000 SWAP2 POP POP PUSH2 0x15A9 JUMP JUMPDEST PUSH8 0x2C68AF0BB140000 DUP4 DUP3 PUSH8 0xDE0B6B3A7640000 MUL DUP2 PUSH2 0x180E JUMPI INVALID JUMPDEST DIV LT PUSH2 0x1825 JUMPI PUSH8 0x590A3601AEE8000 SWAP2 POP POP PUSH2 0x15A9 JUMP JUMPDEST PUSH8 0x16345785D8A0000 DUP4 DUP3 PUSH8 0xDE0B6B3A7640000 MUL DUP2 PUSH2 0x1841 JUMPI INVALID JUMPDEST DIV LT PUSH2 0x1858 JUMPI PUSH8 0x334AD46AF1D8000 SWAP2 POP POP PUSH2 0x15A9 JUMP JUMPDEST PUSH8 0x10A741A46278000 DUP4 DUP3 PUSH8 0xDE0B6B3A7640000 MUL DUP2 PUSH2 0x1874 JUMPI INVALID JUMPDEST DIV LT PUSH2 0x188B JUMPI PUSH8 0x2BF6FF371870000 SWAP2 POP POP PUSH2 0x15A9 JUMP JUMPDEST PUSH7 0xB1A2BC2EC50000 DUP4 DUP3 PUSH8 0xDE0B6B3A7640000 MUL DUP2 PUSH2 0x18A6 JUMPI INVALID JUMPDEST DIV LT PUSH2 0x18BD JUMPI PUSH8 0x254DB1C22440000 SWAP2 POP POP PUSH2 0x15A9 JUMP JUMPDEST PUSH7 0x8700CC75770000 DUP4 DUP3 PUSH8 0xDE0B6B3A7640000 MUL DUP2 PUSH2 0x18D8 JUMPI INVALID JUMPDEST DIV LT PUSH2 0x18EF JUMPI PUSH8 0x226ABADC42F8000 SWAP2 POP POP PUSH2 0x15A9 JUMP JUMPDEST PUSH7 0x58D15E17628000 DUP4 DUP3 PUSH8 0xDE0B6B3A7640000 MUL DUP2 PUSH2 0x190A JUMPI INVALID JUMPDEST DIV LT PUSH2 0x1921 JUMPI PUSH8 0x1F87C3F661B0000 SWAP2 POP POP PUSH2 0x15A9 JUMP JUMPDEST PUSH1 0x40 DUP1 MLOAD PUSH32 0x8C379A000000000000000000000000000000000000000000000000000000000 DUP2 MSTORE PUSH1 0x20 PUSH1 0x4 DUP3 ADD MSTORE PUSH1 0x1F PUSH1 0x24 DUP3 ADD MSTORE PUSH32 0x4554485F42454C4F575F322E355F50455243454E545F41554D5F4552524F5200 PUSH1 0x44 DUP3 ADD MSTORE SWAP1 MLOAD SWAP1 DUP2 SWAP1 SUB PUSH1 0x64 ADD SWAP1 REVERT JUMPDEST PUSH1 0x0 DUP3 DUP3 GT ISZERO PUSH2 0x1994 JUMPI INVALID JUMPDEST POP SWAP1 SUB SWAP1 JUMP JUMPDEST PUSH1 0x0 DUP1 DUP3 GT PUSH2 0x19A5 JUMPI INVALID JUMPDEST PUSH1 0x0 DUP3 DUP5 DUP2 PUSH2 0x19B0 JUMPI INVALID JUMPDEST DIV SWAP1 POP DUP3 DUP5 DUP2 PUSH2 0x19BC JUMPI INVALID JUMPDEST MOD DUP2 DUP5 MUL ADD DUP5 EQ PUSH2 0x15A6 JUMPI INVALID JUMPDEST PUSH1 0x0 DUP3 DUP3 ADD DUP4 DUP2 LT DUP1 ISZERO SWAP1 PUSH2 0x15A0 JUMPI POP DUP3 DUP2 LT ISZERO PUSH2 0x15A6 JUMPI INVALID INVALID POP 0x4F 0x4F 0x4C 0x5F POP MSTORE 0x49 NUMBER GASLIMIT 0x5F 0x4F MSTORE 0x5F SLOAD 0x4F SLOAD COINBASE 0x4C 0x5F MSTORE8 SSTORE POP POP 0x4C MSIZE 0x5F 0x4E SSTORE 0x4C 0x4C 0x5F GASLIMIT MSTORE MSTORE 0x4F MSTORE MSTORE8 0x4D COINBASE MSTORE SLOAD 0x5F NUMBER 0x4F 0x4E SLOAD MSTORE COINBASE NUMBER SLOAD 0x5F NUMBER COINBASE 0x4C 0x4C GASLIMIT MSTORE 0x5F 0x49 MSTORE8 0x5F 0x4E 0x4F SLOAD 0x5F POP 0x4F 0x4F 0x4C 0x5F GASLIMIT MSTORE MSTORE 0x4F MSTORE LOG2 PUSH5 0x6970667358 0x22 SLT KECCAK256 PUSH27 0xA9392EB50ED7E1F409E1801EF80824EC3885F0EAEC483CE247EEC0 0x2C EQ PUSH29 0xD564736F6C634300070400330000000000000000000000000000000000 "
			}
		}
	},
	"sourceTreeHashHex": "0xd80db00305e722e607ffe2d8974195fdc69d68cf68cdb2621f546bae91507926",
	"compiler": {
		"name": "solc",
		"version": "0.7.4+commit.3f05b770",
		"settings": {
			"remappings": [],
			"optimizer": {
				"enabled": true,
				"runs": 1000000
			},
			"outputSelection": {
				"*": {
					"*": [
						"abi",
						"devdoc",
						"evm.bytecode.object",
						"evm.bytecode.sourceMap",
						"evm.deployedBytecode.object",
						"evm.deployedBytecode.sourceMap"
					]
				}
			}
		}
	},
	"chains": {}
}