{
	"schemaVersion": "2.0.0",
	"contractName": "ProofOfPerformance",
	"compilerOutput": {
		"abi": [
			{
				"inputs": [
					{
						"internalType": "address",
						"name": "_stakingProxyAddress",
						"type": "address"
					},
					{
						"internalType": "address",
						"name": "_rigoblockDao",
						"type": "address"
					},
					{
						"internalType": "address",
						"name": "_dragoRegistry",
						"type": "address"
					},
					{
						"internalType": "address",
						"name": "_authorityAddress",
						"type": "address"
					}
				],
				"stateMutability": "nonpayable",
				"type": "constructor"
			},
			{
				"inputs": [
					{
						"internalType": "uint256",
						"name": "poolId",
						"type": "uint256"
					}
				],
				"name": "addressFromId",
				"outputs": [
					{
						"internalType": "address",
						"name": "pool",
						"type": "address"
					},
					{
						"internalType": "address",
						"name": "group",
						"type": "address"
					}
				],
				"stateMutability": "view",
				"type": "function"
			},
			{
				"inputs": [],
				"name": "authorityAddress",
				"outputs": [
					{
						"internalType": "address",
						"name": "",
						"type": "address"
					}
				],
				"stateMutability": "view",
				"type": "function"
			},
			{
				"inputs": [
					{
						"internalType": "uint256",
						"name": "poolId",
						"type": "uint256"
					}
				],
				"name": "calcPoolValue",
				"outputs": [
					{
						"internalType": "uint256",
						"name": "aum",
						"type": "uint256"
					}
				],
				"stateMutability": "view",
				"type": "function"
			},
			{
				"inputs": [
					{
						"internalType": "uint256",
						"name": "poolId",
						"type": "uint256"
					}
				],
				"name": "creditPopRewardToStakingProxy",
				"outputs": [],
				"stateMutability": "nonpayable",
				"type": "function"
			},
			{
				"inputs": [],
				"name": "dragoRegistryAddress",
				"outputs": [
					{
						"internalType": "address",
						"name": "",
						"type": "address"
					}
				],
				"stateMutability": "view",
				"type": "function"
			},
			{
				"inputs": [
					{
						"internalType": "uint256",
						"name": "poolId",
						"type": "uint256"
					}
				],
				"name": "getHwm",
				"outputs": [
					{
						"internalType": "uint256",
						"name": "",
						"type": "uint256"
					}
				],
				"stateMutability": "view",
				"type": "function"
			},
			{
				"inputs": [
					{
						"internalType": "uint256",
						"name": "poolId",
						"type": "uint256"
					}
				],
				"name": "getPoolData",
				"outputs": [
					{
						"internalType": "bool",
						"name": "active",
						"type": "bool"
					},
					{
						"internalType": "address",
						"name": "poolAddress",
						"type": "address"
					},
					{
						"internalType": "address",
						"name": "poolGroup",
						"type": "address"
					},
					{
						"internalType": "uint256",
						"name": "poolPrice",
						"type": "uint256"
					},
					{
						"internalType": "uint256",
						"name": "poolSupply",
						"type": "uint256"
					},
					{
						"internalType": "uint256",
						"name": "poolValue",
						"type": "uint256"
					},
					{
						"internalType": "uint256",
						"name": "epochReward",
						"type": "uint256"
					},
					{
						"internalType": "uint256",
						"name": "ratio",
						"type": "uint256"
					},
					{
						"internalType": "uint256",
						"name": "pop",
						"type": "uint256"
					}
				],
				"stateMutability": "view",
				"type": "function"
			},
			{
				"inputs": [
					{
						"internalType": "uint256",
						"name": "poolId",
						"type": "uint256"
					}
				],
				"name": "getPoolPrice",
				"outputs": [
					{
						"internalType": "uint256",
						"name": "poolPrice",
						"type": "uint256"
					},
					{
						"internalType": "uint256",
						"name": "totalTokens",
						"type": "uint256"
					}
				],
				"stateMutability": "view",
				"type": "function"
			},
			{
				"inputs": [
					{
						"internalType": "uint256",
						"name": "poolId",
						"type": "uint256"
					}
				],
				"name": "getRewardParameters",
				"outputs": [
					{
						"internalType": "uint256",
						"name": "epochReward",
						"type": "uint256"
					},
					{
						"internalType": "uint256",
						"name": "epochTime",
						"type": "uint256"
					},
					{
						"internalType": "uint256",
						"name": "ratio",
						"type": "uint256"
					}
				],
				"stateMutability": "view",
				"type": "function"
			},
			{
				"inputs": [
					{
						"internalType": "address",
						"name": "",
						"type": "address"
					}
				],
				"name": "groupByAddress",
				"outputs": [
					{
						"internalType": "uint256",
						"name": "epochReward",
						"type": "uint256"
					},
					{
						"internalType": "uint256",
						"name": "rewardRatio",
						"type": "uint256"
					}
				],
				"stateMutability": "view",
				"type": "function"
			},
			{
				"inputs": [
					{
						"internalType": "uint256",
						"name": "poolId",
						"type": "uint256"
					}
				],
				"name": "isActive",
				"outputs": [
					{
						"internalType": "bool",
						"name": "",
						"type": "bool"
					}
				],
				"stateMutability": "view",
				"type": "function"
			},
			{
				"inputs": [
					{
						"internalType": "uint256",
						"name": "poolId",
						"type": "uint256"
					}
				],
				"name": "proofOfPerformance",
				"outputs": [
					{
						"internalType": "uint256",
						"name": "popReward",
						"type": "uint256"
					},
					{
						"internalType": "uint256",
						"name": "performanceReward",
						"type": "uint256"
					}
				],
				"stateMutability": "view",
				"type": "function"
			},
			{
				"inputs": [],
				"name": "rigoblockDaoAddress",
				"outputs": [
					{
						"internalType": "address",
						"name": "",
						"type": "address"
					}
				],
				"stateMutability": "view",
				"type": "function"
			},
			{
				"inputs": [
					{
						"internalType": "address",
						"name": "newAuthorityAddress",
						"type": "address"
					}
				],
				"name": "setAuthority",
				"outputs": [],
				"stateMutability": "nonpayable",
				"type": "function"
			},
			{
				"inputs": [
					{
						"internalType": "address",
						"name": "groupAddress",
						"type": "address"
					},
					{
						"internalType": "uint256",
						"name": "inflationFactor",
						"type": "uint256"
					}
				],
				"name": "setInflationFactor",
				"outputs": [],
				"stateMutability": "nonpayable",
				"type": "function"
			},
			{
				"inputs": [
					{
						"internalType": "address",
						"name": "groupAddress",
						"type": "address"
					},
					{
						"internalType": "uint256",
						"name": "newRatio",
						"type": "uint256"
					}
				],
				"name": "setRatio",
				"outputs": [],
				"stateMutability": "nonpayable",
				"type": "function"
			},
			{
				"inputs": [
					{
						"internalType": "address",
						"name": "newDragoRegistryAddress",
						"type": "address"
					}
				],
				"name": "setRegistry",
				"outputs": [],
				"stateMutability": "nonpayable",
				"type": "function"
			},
			{
				"inputs": [
					{
						"internalType": "address",
						"name": "newRigoblockDaoAddress",
						"type": "address"
					}
				],
				"name": "setRigoblockDao",
				"outputs": [],
				"stateMutability": "nonpayable",
				"type": "function"
			}
		],
		"devdoc": {
			"author": "Gabriele Rigo - <gab@rigoblock.com>",
			"kind": "dev",
			"methods": {
				"addressFromId(uint256)": {
					"details": "Returns the address and the group of a pool from its id.",
					"params": {
						"poolId": "Id of the pool."
					},
					"returns": {
						"group": "Address of the pool's group.",
						"pool": "Address of the target pool."
					}
				},
				"calcPoolValue(uint256)": {
					"details": "Returns the value of a pool from its id.",
					"params": {
						"poolId": "Id of the pool."
					},
					"returns": {
						"aum": "Total value of the pool in ETH."
					}
				},
				"creditPopRewardToStakingProxy(uint256)": {
					"details": "Credits the pop reward to the Staking Proxy contract.",
					"params": {
						"poolId": "Number of the pool Id in registry."
					}
				},
				"getHwm(uint256)": {
					"details": "Returns the highwatermark of a pool.",
					"params": {
						"poolId": "Id of the pool."
					},
					"returns": {
						"_0": "Value of the all-time-high pool nav."
					}
				},
				"getPoolData(uint256)": {
					"details": "Gets data of a pool.",
					"params": {
						"poolId": "Id of the pool."
					},
					"returns": {
						"active": "Bool the pool is active.",
						"epochReward": "value of the reward factor or said pool.",
						"poolAddress": "address of the pool.",
						"poolGroup": "address of the pool factory.",
						"poolPrice": "price of the pool in wei.",
						"poolSupply": "total supply of the pool in units.",
						"poolValue": "total value of the pool in wei.",
						"pop": "value of the pop reward to be claimed in GRGs.",
						"ratio": "of assets/performance reward (from 0 to 10000)."
					}
				},
				"getPoolPrice(uint256)": {
					"details": "Returns the price a pool from its id.",
					"params": {
						"poolId": "Id of the pool."
					},
					"returns": {
						"poolPrice": "Price of the pool in wei.",
						"totalTokens": "Number of tokens of a pool (totalSupply)."
					}
				},
				"getRewardParameters(uint256)": {
					"details": "Returns the split ratio of asset and performance reward.",
					"params": {
						"poolId": "Id of the pool."
					},
					"returns": {
						"epochReward": "Value of the reward factor.",
						"epochTime": "Value of epoch time.",
						"ratio": "Value of the ratio from 1 to 100."
					}
				},
				"isActive(uint256)": {
					"details": "Checks whether a pool is registered and active.",
					"params": {
						"poolId": "Id of the pool."
					},
					"returns": {
						"_0": "Bool the pool is active."
					}
				},
				"proofOfPerformance(uint256)": {
					"details": "Returns the proof of performance reward for a pool.",
					"params": {
						"poolId": "Id of the pool."
					},
					"returns": {
						"performanceReward": "Split of the performance reward in Rigo tokens.",
						"popReward": "Value of the pop reward in Rigo tokens."
					}
				},
				"setAuthority(address)": {
					"details": "Allows rigoblock dao to update the authority.",
					"params": {
						"newAuthorityAddress": "Address of the authority."
					}
				},
				"setInflationFactor(address,uint256)": {
					"details": "Allows rigoblock dao to set the inflation factor for a group.",
					"params": {
						"groupAddress": "Address of the group/factory.",
						"inflationFactor": "Value of the reward factor."
					}
				},
				"setRatio(address,uint256)": {
					"details": "Allows RigoBlock Dao to set the ratio between assets and performance reward for a group.",
					"params": {
						"groupAddress": "Address of the pool's group.",
						"newRatio": "Value of the new ratio."
					}
				},
				"setRegistry(address)": {
					"details": "Allows RigoBlock Dao to update the pools registry.",
					"params": {
						"newDragoRegistryAddress": "Address of new registry."
					}
				},
				"setRigoblockDao(address)": {
					"details": "Allows RigoBlock Dao to update its address.",
					"params": {
						"newRigoblockDaoAddress": "Address of new dao."
					}
				}
			},
			"title": "Proof of Performance - Controls parameters of inflation.",
			"version": 1
		},
		"evm": {
			"bytecode": {
				"linkReferences": {},
				"object": "0x60a060405234801561001057600080fd5b506040516117e23803806117e28339818101604052608081101561003357600080fd5b508051602082015160408301516060938401519383901b6001600160601b031916608052600180546001600160a01b03199081166001600160a01b03948516179091556000805482169284169290921782556002805490911694831694909417909355169061172e906100b4903980610823528061097b525061172e6000f3fe608060405234801561001057600080fd5b50600436106101165760003560e01c80637a9e5e4b116100a25780639af94f30116100715780639af94f3014610311578063a91ee0dc1461032e578063b516e6e114610354578063c1acd1a71461037a578063d21c87ad146103b557610116565b80637a9e5e4b146102955780637d0107cf146102bb5780637f8be859146102d857806382afd23b146102e057610116565b8063249d9123116100e9578063249d9123146101d8578063360dafa0146102075780633c695d4e14610253578063427fdc0c1461025b5780634d749e431461027857610116565b8063020e0cdb1461011b5780630257967714610149578063029834701461016d57806305752047146101ac575b600080fd5b6101476004803603604081101561013157600080fd5b506001600160a01b038135169060200135610427565b005b610151610456565b604080516001600160a01b039092168252519081900360200190f35b6101936004803603602081101561018357600080fd5b50356001600160a01b0316610465565b6040805192835260208301919091528051918290030190f35b610147600480360360408110156101c257600080fd5b506001600160a01b03813516906020013561047e565b6101f5600480360360208110156101ee57600080fd5b50356104fc565b60408051918252519081900360200190f35b6102246004803603602081101561021d57600080fd5b503561050f565b60405180836001600160a01b03168152602001826001600160a01b031681526020019250505060405180910390f35b610151610524565b6101f56004803603602081101561027157600080fd5b5035610533565b6101936004803603602081101561028e57600080fd5b5035610546565b610147600480360360208110156102ab57600080fd5b50356001600160a01b0316610552565b610147600480360360208110156102d157600080fd5b503561057c565b6101516108b7565b6102fd600480360360208110156102f657600080fd5b50356108c6565b604080519115158252519081900360200190f35b6101936004803603602081101561032757600080fd5b50356108d1565b6101476004803603602081101561034457600080fd5b50356001600160a01b03166108e8565b6101476004803603602081101561036a57600080fd5b50356001600160a01b0316610912565b6103976004803603602081101561039057600080fd5b503561093c565b60408051938452602084019290925282820152519081900360600190f35b6103d2600480360360208110156103cb57600080fd5b5035610a25565b604080519915158a526001600160a01b0398891660208b015296909716888701526060880194909452608087019290925260a086015260c085015260e084015261010083019190915251908190036101200190f35b61042f610a86565b8161043981610ae7565b506001600160a01b03909116600090815260036020526040902055565b6000546001600160a01b031681565b6003602052600090815260409020805460019091015482565b610486610a86565b6127108111156104dd576040805162461bcd60e51b815260206004820152601760248201527f524154494f5f4249474745525f5448414e5f3130303030000000000000000000604482015290519081900360640190fd5b6001600160a01b03909116600090815260036020526040902060010155565b600061050782610bb1565b90505b919050565b60008061051b83610be8565b91509150915091565b6002546001600160a01b031681565b600061053e82610ddf565b949350505050565b60008061051b83610f35565b61055a610a86565b600280546001600160a01b0319166001600160a01b0392909216919091179055565b600080546040805163309dfc6b60e21b81526004810185905290516001600160a01b039092169163c277f1ac916024808201928692909190829003018186803b1580156105c857600080fd5b505afa1580156105dc573d6000803e3d6000fd5b505050506040513d6000823e601f3d908101601f1916820160405260c081101561060557600080fd5b815160208301805160405192949293830192919084600160201b82111561062b57600080fd5b90830190602082018581111561064057600080fd5b8251600160201b81118282018810171561065957600080fd5b82525081516020918201929091019080838360005b8381101561068657818101518382015260200161066e565b50505050905090810190601f1680156106b35780820380516001836020036101000a031916815260200191505b5060405260200180516040519392919084600160201b8211156106d557600080fd5b9083019060208201858111156106ea57600080fd5b8251600160201b81118282018810171561070357600080fd5b82525081516020918201929091019080838360005b83811015610730578181015183820152602001610718565b50505050905090810190601f16801561075d5780820380516001836020036101000a031916815260200191505b50604052509394505050506001600160a01b0382161515905061078057506108b4565b6000816001600160a01b0316639489fa846040518163ffffffff1660e01b815260040160206040518083038186803b1580156107bb57600080fd5b505afa1580156107cf573d6000803e3d6000fd5b505050506040513d60208110156107e557600080fd5b505190506107f233611071565b156108005761080082611077565b610809836110be565b600061081484610f35565b50905061082182856110ec565b7f00000000000000000000000000000000000000000000000000000000000000006001600160a01b031663ecc128f284836040518363ffffffff1660e01b815260040180836001600160a01b0316815260200182815260200192505050600060405180830381600087803b15801561089857600080fd5b505af11580156108ac573d6000803e3d6000fd5b505050505050505b50565b6001546001600160a01b031681565b600061050782611118565b6000806108dd83610ddf565b509094909350915050565b6108f0610a86565b600080546001600160a01b0319166001600160a01b0392909216919091179055565b61091a610a86565b600180546001600160a01b0319166001600160a01b0392909216919091179055565b60008060008061094b85610be8565b91505060036000826001600160a01b03166001600160a01b031681526020019081526020016000206000015493507f00000000000000000000000000000000000000000000000000000000000000006001600160a01b0316635e615a6b6040518163ffffffff1660e01b815260040160a06040518083038186803b1580156109d257600080fd5b505afa1580156109e6573d6000803e3d6000fd5b505050506040513d60a08110156109fc57600080fd5b50516001600160a01b039091166000908152600360205260409020600101549395909450915050565b6000806000806000806000806000610a3c8a611118565b9850610a478a610be8565b9098509650610a558a610ddf565b91975095509350610a658a61093c565b919450909250610a7690508a610f35565b5090509193959799909294969850565b6001546001600160a01b03163314610ae5576040805162461bcd60e51b815260206004820152601e60248201527f43414c4c45525f4e4f545f5249474f424c4f434b5f44414f5f4552524f520000604482015290519081900360640190fd5b565b600254604080516306e5bd1f60e51b81526001600160a01b0384811660048301529151919092169163dcb7a3e0916024808301926020929190829003018186803b158015610b3457600080fd5b505afa158015610b48573d6000803e3d6000fd5b505050506040513d6020811015610b5e57600080fd5b50516108b4576040805162461bcd60e51b815260206004820152601c60248201527f4e4f545f415050524f5645445f415554484f524954595f4552524f5200000000604482015290519081900360640190fd5b600081815260046020526040812054610bd35750670de0b6b3a764000061050a565b5060008181526004602052604090205461050a565b600080546040805163309dfc6b60e21b815260048101859052905183926001600160a01b03169163c277f1ac9160248083019286929190829003018186803b158015610c3357600080fd5b505afa158015610c47573d6000803e3d6000fd5b505050506040513d6000823e601f3d908101601f1916820160405260c0811015610c7057600080fd5b815160208301805160405192949293830192919084600160201b821115610c9657600080fd5b908301906020820185811115610cab57600080fd5b8251600160201b811182820188101715610cc457600080fd5b82525081516020918201929091019080838360005b83811015610cf1578181015183820152602001610cd9565b50505050905090810190601f168015610d1e5780820380516001836020036101000a031916815260200191505b5060405260200180516040519392919084600160201b821115610d4057600080fd5b908301906020820185811115610d5557600080fd5b8251600160201b811182820188101715610d6e57600080fd5b82525081516020918201929091019080838360005b83811015610d9b578181015183820152602001610d83565b50505050905090810190601f168015610dc85780820380516001836020036101000a031916815260200191505b506040526060015194965093945050505050915091565b600080600080610dee85610be8565b5090506000819050806001600160a01b0316639489fa846040518163ffffffff1660e01b815260040160206040518083038186803b158015610e2f57600080fd5b505afa158015610e43573d6000803e3d6000fd5b505050506040513d6020811015610e5957600080fd5b5051604080516318160ddd60e01b815290519196506001600160a01b038316916318160ddd91600480820192602092909190829003018186803b158015610e9f57600080fd5b505afa158015610eb3573d6000803e3d6000fd5b505050506040513d6020811015610ec957600080fd5b50519350841580610ed8575083155b15610f145760405162461bcd60e51b81526004018080602001828103825260258152602001806116ad6025913960400191505060405180910390fd5b620f4240610f228686611329565b81610f2957fe5b04925050509193909250565b6000806000806000610f4686610ddf565b9250925092506000610f5787610be8565b5090506000806000610f688a61093c565b92509250925060006201518083610f7f8887611329565b0281610f8757fe5b0490506000610f958c610bb1565b891115610fce57610fc5620f4240610fb7610faf8f610bb1565b8c038b611329565b81610fbe57fe5b0486611329565b61016d02610fd1565b60005b90506000670de0b6b3a7640000610fe8888a611352565b69021e19e0c9bab2400000611008866110036127108a611651565b611329565b8161100f57fe5b04028161101857fe5b049050670de0b6b3a764000061102e888a611352565b61104b61103b8588611329565b69021e19e0c9bab2400000611663565b028161105357fe5b049a506110608b82611692565b9b5050505050505050505050915091565b3b151590565b336001600160a01b038216146108b45760405162461bcd60e51b81526004018080602001828103825260278152602001806116d26027913960400191505060405180910390fd5b6000818152600460205260409020546108b4576000908152600460205260409020670de0b6b3a76400009055565b6000818152600460205260409020548211156111145760008181526004602052604090208290555b5050565b600080546040805163309dfc6b60e21b815260048101859052905183926001600160a01b03169163c277f1ac9160248083019286929190829003018186803b15801561116357600080fd5b505afa158015611177573d6000803e3d6000fd5b505050506040513d6000823e601f3d908101601f1916820160405260c08110156111a057600080fd5b815160208301805160405192949293830192919084600160201b8211156111c657600080fd5b9083019060208201858111156111db57600080fd5b8251600160201b8111828201881017156111f457600080fd5b82525081516020918201929091019080838360005b83811015611221578181015183820152602001611209565b50505050905090810190601f16801561124e5780820380516001836020036101000a031916815260200191505b5060405260200180516040519392919084600160201b82111561127057600080fd5b90830190602082018581111561128557600080fd5b8251600160201b81118282018810171561129e57600080fd5b82525081516020918201929091019080838360005b838110156112cb5781810151838201526020016112b3565b50505050905090810190601f1680156112f85780820380516001836020036101000a031916815260200191505b506040525093945050506001600160a01b03831615915061131f905057600191505061050a565b600091505061050a565b600082820283158061134357508284828161134057fe5b04145b61134957fe5b90505b92915050565b60006001600160a01b0383163182811180611373575066038d7ea4c6800081105b806113845750662386f26fc1000083105b156113d6576040805162461bcd60e51b815260206004820152601b60248201527f4554485f41424f56455f41554d5f4f525f445553545f4552524f520000000000604482015290519081900360640190fd5b670b1a2bc2ec5000008382670de0b6b3a764000002816113f257fe5b041061140957670de0b6b3a764000091505061134c565b670853a0d2313c00008382670de0b6b3a7640000028161142557fe5b041061143c57670d163580f731800091505061134c565b6706f05b59d3b200008382670de0b6b3a7640000028161145857fe5b041061146f57670c39f0d50f1e800091505061134c565b67058d15e1762800008382670de0b6b3a7640000028161148b57fe5b04106114a257670aac096cf846800091505061134c565b670429d069189e00008382670de0b6b3a764000002816114be57fe5b04106114d55767085013538c75800091505061134c565b6702c68af0bb1400008382670de0b6b3a764000002816114f157fe5b041061150857670590a3601aee800091505061134c565b67016345785d8a00008382670de0b6b3a7640000028161152457fe5b041061153b57670334ad46af1d800091505061134c565b67010a741a462780008382670de0b6b3a7640000028161155757fe5b041061156e576702bf6ff37187000091505061134c565b66b1a2bc2ec500008382670de0b6b3a7640000028161158957fe5b04106115a057670254db1c2244000091505061134c565b668700cc757700008382670de0b6b3a764000002816115bb57fe5b04106115d257670226abadc42f800091505061134c565b6658d15e176280008382670de0b6b3a764000002816115ed57fe5b0410611604576701f87c3f661b000091505061134c565b6040805162461bcd60e51b815260206004820152601f60248201527f4554485f42454c4f575f322e355f50455243454e545f41554d5f4552524f5200604482015290519081900360640190fd5b60008282111561165d57fe5b50900390565b600080821161166e57fe5b600082848161167957fe5b04905082848161168557fe5b0681840201841461134957fe5b600082820183811080159061134357508281101561134957fefe504f4f4c5f50524943455f4f525f544f54414c5f535550504c595f4e554c4c5f4552524f52534d4152545f434f4e54524143545f43414c4c45525f49535f4e4f545f504f4f4c5f4552524f52a26469706673582212204e44fc57b1a06d989282cfb501ccf5dc270ee365aa31ac0be37adf41bf3b740764736f6c63430007040033",
				"opcodes": "PUSH1 0xA0 PUSH1 0x40 MSTORE CALLVALUE DUP1 ISZERO PUSH2 0x10 JUMPI PUSH1 0x0 DUP1 REVERT JUMPDEST POP PUSH1 0x40 MLOAD PUSH2 0x17E2 CODESIZE SUB DUP1 PUSH2 0x17E2 DUP4 CODECOPY DUP2 DUP2 ADD PUSH1 0x40 MSTORE PUSH1 0x80 DUP2 LT ISZERO PUSH2 0x33 JUMPI PUSH1 0x0 DUP1 REVERT JUMPDEST POP DUP1 MLOAD PUSH1 0x20 DUP3 ADD MLOAD PUSH1 0x40 DUP4 ADD MLOAD PUSH1 0x60 SWAP4 DUP5 ADD MLOAD SWAP4 DUP4 SWAP1 SHL PUSH1 0x1 PUSH1 0x1 PUSH1 0x60 SHL SUB NOT AND PUSH1 0x80 MSTORE PUSH1 0x1 DUP1 SLOAD PUSH1 0x1 PUSH1 0x1 PUSH1 0xA0 SHL SUB NOT SWAP1 DUP2 AND PUSH1 0x1 PUSH1 0x1 PUSH1 0xA0 SHL SUB SWAP5 DUP6 AND OR SWAP1 SWAP2 SSTORE PUSH1 0x0 DUP1 SLOAD DUP3 AND SWAP3 DUP5 AND SWAP3 SWAP1 SWAP3 OR DUP3 SSTORE PUSH1 0x2 DUP1 SLOAD SWAP1 SWAP2 AND SWAP5 DUP4 AND SWAP5 SWAP1 SWAP5 OR SWAP1 SWAP4 SSTORE AND SWAP1 PUSH2 0x172E SWAP1 PUSH2 0xB4 SWAP1 CODECOPY DUP1 PUSH2 0x823 MSTORE DUP1 PUSH2 0x97B MSTORE POP PUSH2 0x172E PUSH1 0x0 RETURN INVALID PUSH1 0x80 PUSH1 0x40 MSTORE CALLVALUE DUP1 ISZERO PUSH2 0x10 JUMPI PUSH1 0x0 DUP1 REVERT JUMPDEST POP PUSH1 0x4 CALLDATASIZE LT PUSH2 0x116 JUMPI PUSH1 0x0 CALLDATALOAD PUSH1 0xE0 SHR DUP1 PUSH4 0x7A9E5E4B GT PUSH2 0xA2 JUMPI DUP1 PUSH4 0x9AF94F30 GT PUSH2 0x71 JUMPI DUP1 PUSH4 0x9AF94F30 EQ PUSH2 0x311 JUMPI DUP1 PUSH4 0xA91EE0DC EQ PUSH2 0x32E JUMPI DUP1 PUSH4 0xB516E6E1 EQ PUSH2 0x354 JUMPI DUP1 PUSH4 0xC1ACD1A7 EQ PUSH2 0x37A JUMPI DUP1 PUSH4 0xD21C87AD EQ PUSH2 0x3B5 JUMPI PUSH2 0x116 JUMP JUMPDEST DUP1 PUSH4 0x7A9E5E4B EQ PUSH2 0x295 JUMPI DUP1 PUSH4 0x7D0107CF EQ PUSH2 0x2BB JUMPI DUP1 PUSH4 0x7F8BE859 EQ PUSH2 0x2D8 JUMPI DUP1 PUSH4 0x82AFD23B EQ PUSH2 0x2E0 JUMPI PUSH2 0x116 JUMP JUMPDEST DUP1 PUSH4 0x249D9123 GT PUSH2 0xE9 JUMPI DUP1 PUSH4 0x249D9123 EQ PUSH2 0x1D8 JUMPI DUP1 PUSH4 0x360DAFA0 EQ PUSH2 0x207 JUMPI DUP1 PUSH4 0x3C695D4E EQ PUSH2 0x253 JUMPI DUP1 PUSH4 0x427FDC0C EQ PUSH2 0x25B JUMPI DUP1 PUSH4 0x4D749E43 EQ PUSH2 0x278 JUMPI PUSH2 0x116 JUMP JUMPDEST DUP1 PUSH4 0x20E0CDB EQ PUSH2 0x11B JUMPI DUP1 PUSH4 0x2579677 EQ PUSH2 0x149 JUMPI DUP1 PUSH4 0x2983470 EQ PUSH2 0x16D JUMPI DUP1 PUSH4 0x5752047 EQ PUSH2 0x1AC JUMPI JUMPDEST PUSH1 0x0 DUP1 REVERT JUMPDEST PUSH2 0x147 PUSH1 0x4 DUP1 CALLDATASIZE SUB PUSH1 0x40 DUP2 LT ISZERO PUSH2 0x131 JUMPI PUSH1 0x0 DUP1 REVERT JUMPDEST POP PUSH1 0x1 PUSH1 0x1 PUSH1 0xA0 SHL SUB DUP2 CALLDATALOAD AND SWAP1 PUSH1 0x20 ADD CALLDATALOAD PUSH2 0x427 JUMP JUMPDEST STOP JUMPDEST PUSH2 0x151 PUSH2 0x456 JUMP JUMPDEST PUSH1 0x40 DUP1 MLOAD PUSH1 0x1 PUSH1 0x1 PUSH1 0xA0 SHL SUB SWAP1 SWAP3 AND DUP3 MSTORE MLOAD SWAP1 DUP2 SWAP1 SUB PUSH1 0x20 ADD SWAP1 RETURN JUMPDEST PUSH2 0x193 PUSH1 0x4 DUP1 CALLDATASIZE SUB PUSH1 0x20 DUP2 LT ISZERO PUSH2 0x183 JUMPI PUSH1 0x0 DUP1 REVERT JUMPDEST POP CALLDATALOAD PUSH1 0x1 PUSH1 0x1 PUSH1 0xA0 SHL SUB AND PUSH2 0x465 JUMP JUMPDEST PUSH1 0x40 DUP1 MLOAD SWAP3 DUP4 MSTORE PUSH1 0x20 DUP4 ADD SWAP2 SWAP1 SWAP2 MSTORE DUP1 MLOAD SWAP2 DUP3 SWAP1 SUB ADD SWAP1 RETURN JUMPDEST PUSH2 0x147 PUSH1 0x4 DUP1 CALLDATASIZE SUB PUSH1 0x40 DUP2 LT ISZERO PUSH2 0x1C2 JUMPI PUSH1 0x0 DUP1 REVERT JUMPDEST POP PUSH1 0x1 PUSH1 0x1 PUSH1 0xA0 SHL SUB DUP2 CALLDATALOAD AND SWAP1 PUSH1 0x20 ADD CALLDATALOAD PUSH2 0x47E JUMP JUMPDEST PUSH2 0x1F5 PUSH1 0x4 DUP1 CALLDATASIZE SUB PUSH1 0x20 DUP2 LT ISZERO PUSH2 0x1EE JUMPI PUSH1 0x0 DUP1 REVERT JUMPDEST POP CALLDATALOAD PUSH2 0x4FC JUMP JUMPDEST PUSH1 0x40 DUP1 MLOAD SWAP2 DUP3 MSTORE MLOAD SWAP1 DUP2 SWAP1 SUB PUSH1 0x20 ADD SWAP1 RETURN JUMPDEST PUSH2 0x224 PUSH1 0x4 DUP1 CALLDATASIZE SUB PUSH1 0x20 DUP2 LT ISZERO PUSH2 0x21D JUMPI PUSH1 0x0 DUP1 REVERT JUMPDEST POP CALLDATALOAD PUSH2 0x50F JUMP JUMPDEST PUSH1 0x40 MLOAD DUP1 DUP4 PUSH1 0x1 PUSH1 0x1 PUSH1 0xA0 SHL SUB AND DUP2 MSTORE PUSH1 0x20 ADD DUP3 PUSH1 0x1 PUSH1 0x1 PUSH1 0xA0 SHL SUB AND DUP2 MSTORE PUSH1 0x20 ADD SWAP3 POP POP POP PUSH1 0x40 MLOAD DUP1 SWAP2 SUB SWAP1 RETURN JUMPDEST PUSH2 0x151 PUSH2 0x524 JUMP JUMPDEST PUSH2 0x1F5 PUSH1 0x4 DUP1 CALLDATASIZE SUB PUSH1 0x20 DUP2 LT ISZERO PUSH2 0x271 JUMPI PUSH1 0x0 DUP1 REVERT JUMPDEST POP CALLDATALOAD PUSH2 0x533 JUMP JUMPDEST PUSH2 0x193 PUSH1 0x4 DUP1 CALLDATASIZE SUB PUSH1 0x20 DUP2 LT ISZERO PUSH2 0x28E JUMPI PUSH1 0x0 DUP1 REVERT JUMPDEST POP CALLDATALOAD PUSH2 0x546 JUMP JUMPDEST PUSH2 0x147 PUSH1 0x4 DUP1 CALLDATASIZE SUB PUSH1 0x20 DUP2 LT ISZERO PUSH2 0x2AB JUMPI PUSH1 0x0 DUP1 REVERT JUMPDEST POP CALLDATALOAD PUSH1 0x1 PUSH1 0x1 PUSH1 0xA0 SHL SUB AND PUSH2 0x552 JUMP JUMPDEST PUSH2 0x147 PUSH1 0x4 DUP1 CALLDATASIZE SUB PUSH1 0x20 DUP2 LT ISZERO PUSH2 0x2D1 JUMPI PUSH1 0x0 DUP1 REVERT JUMPDEST POP CALLDATALOAD PUSH2 0x57C JUMP JUMPDEST PUSH2 0x151 PUSH2 0x8B7 JUMP JUMPDEST PUSH2 0x2FD PUSH1 0x4 DUP1 CALLDATASIZE SUB PUSH1 0x20 DUP2 LT ISZERO PUSH2 0x2F6 JUMPI PUSH1 0x0 DUP1 REVERT JUMPDEST POP CALLDATALOAD PUSH2 0x8C6 JUMP JUMPDEST PUSH1 0x40 DUP1 MLOAD SWAP2 ISZERO ISZERO DUP3 MSTORE MLOAD SWAP1 DUP2 SWAP1 SUB PUSH1 0x20 ADD SWAP1 RETURN JUMPDEST PUSH2 0x193 PUSH1 0x4 DUP1 CALLDATASIZE SUB PUSH1 0x20 DUP2 LT ISZERO PUSH2 0x327 JUMPI PUSH1 0x0 DUP1 REVERT JUMPDEST POP CALLDATALOAD PUSH2 0x8D1 JUMP JUMPDEST PUSH2 0x147 PUSH1 0x4 DUP1 CALLDATASIZE SUB PUSH1 0x20 DUP2 LT ISZERO PUSH2 0x344 JUMPI PUSH1 0x0 DUP1 REVERT JUMPDEST POP CALLDATALOAD PUSH1 0x1 PUSH1 0x1 PUSH1 0xA0 SHL SUB AND PUSH2 0x8E8 JUMP JUMPDEST PUSH2 0x147 PUSH1 0x4 DUP1 CALLDATASIZE SUB PUSH1 0x20 DUP2 LT ISZERO PUSH2 0x36A JUMPI PUSH1 0x0 DUP1 REVERT JUMPDEST POP CALLDATALOAD PUSH1 0x1 PUSH1 0x1 PUSH1 0xA0 SHL SUB AND PUSH2 0x912 JUMP JUMPDEST PUSH2 0x397 PUSH1 0x4 DUP1 CALLDATASIZE SUB PUSH1 0x20 DUP2 LT ISZERO PUSH2 0x390 JUMPI PUSH1 0x0 DUP1 REVERT JUMPDEST POP CALLDATALOAD PUSH2 0x93C JUMP JUMPDEST PUSH1 0x40 DUP1 MLOAD SWAP4 DUP5 MSTORE PUSH1 0x20 DUP5 ADD SWAP3 SWAP1 SWAP3 MSTORE DUP3 DUP3 ADD MSTORE MLOAD SWAP1 DUP2 SWAP1 SUB PUSH1 0x60 ADD SWAP1 RETURN JUMPDEST PUSH2 0x3D2 PUSH1 0x4 DUP1 CALLDATASIZE SUB PUSH1 0x20 DUP2 LT ISZERO PUSH2 0x3CB JUMPI PUSH1 0x0 DUP1 REVERT JUMPDEST POP CALLDATALOAD PUSH2 0xA25 JUMP JUMPDEST PUSH1 0x40 DUP1 MLOAD SWAP10 ISZERO ISZERO DUP11 MSTORE PUSH1 0x1 PUSH1 0x1 PUSH1 0xA0 SHL SUB SWAP9 DUP10 AND PUSH1 0x20 DUP12 ADD MSTORE SWAP7 SWAP1 SWAP8 AND DUP9 DUP8 ADD MSTORE PUSH1 0x60 DUP9 ADD SWAP5 SWAP1 SWAP5 MSTORE PUSH1 0x80 DUP8 ADD SWAP3 SWAP1 SWAP3 MSTORE PUSH1 0xA0 DUP7 ADD MSTORE PUSH1 0xC0 DUP6 ADD MSTORE PUSH1 0xE0 DUP5 ADD MSTORE PUSH2 0x100 DUP4 ADD SWAP2 SWAP1 SWAP2 MSTORE MLOAD SWAP1 DUP2 SWAP1 SUB PUSH2 0x120 ADD SWAP1 RETURN JUMPDEST PUSH2 0x42F PUSH2 0xA86 JUMP JUMPDEST DUP2 PUSH2 0x439 DUP2 PUSH2 0xAE7 JUMP JUMPDEST POP PUSH1 0x1 PUSH1 0x1 PUSH1 0xA0 SHL SUB SWAP1 SWAP2 AND PUSH1 0x0 SWAP1 DUP2 MSTORE PUSH1 0x3 PUSH1 0x20 MSTORE PUSH1 0x40 SWAP1 KECCAK256 SSTORE JUMP JUMPDEST PUSH1 0x0 SLOAD PUSH1 0x1 PUSH1 0x1 PUSH1 0xA0 SHL SUB AND DUP2 JUMP JUMPDEST PUSH1 0x3 PUSH1 0x20 MSTORE PUSH1 0x0 SWAP1 DUP2 MSTORE PUSH1 0x40 SWAP1 KECCAK256 DUP1 SLOAD PUSH1 0x1 SWAP1 SWAP2 ADD SLOAD DUP3 JUMP JUMPDEST PUSH2 0x486 PUSH2 0xA86 JUMP JUMPDEST PUSH2 0x2710 DUP2 GT ISZERO PUSH2 0x4DD JUMPI PUSH1 0x40 DUP1 MLOAD PUSH3 0x461BCD PUSH1 0xE5 SHL DUP2 MSTORE PUSH1 0x20 PUSH1 0x4 DUP3 ADD MSTORE PUSH1 0x17 PUSH1 0x24 DUP3 ADD MSTORE PUSH32 0x524154494F5F4249474745525F5448414E5F3130303030000000000000000000 PUSH1 0x44 DUP3 ADD MSTORE SWAP1 MLOAD SWAP1 DUP2 SWAP1 SUB PUSH1 0x64 ADD SWAP1 REVERT JUMPDEST PUSH1 0x1 PUSH1 0x1 PUSH1 0xA0 SHL SUB SWAP1 SWAP2 AND PUSH1 0x0 SWAP1 DUP2 MSTORE PUSH1 0x3 PUSH1 0x20 MSTORE PUSH1 0x40 SWAP1 KECCAK256 PUSH1 0x1 ADD SSTORE JUMP JUMPDEST PUSH1 0x0 PUSH2 0x507 DUP3 PUSH2 0xBB1 JUMP JUMPDEST SWAP1 POP JUMPDEST SWAP2 SWAP1 POP JUMP JUMPDEST PUSH1 0x0 DUP1 PUSH2 0x51B DUP4 PUSH2 0xBE8 JUMP JUMPDEST SWAP2 POP SWAP2 POP SWAP2 POP SWAP2 JUMP JUMPDEST PUSH1 0x2 SLOAD PUSH1 0x1 PUSH1 0x1 PUSH1 0xA0 SHL SUB AND DUP2 JUMP JUMPDEST PUSH1 0x0 PUSH2 0x53E DUP3 PUSH2 0xDDF JUMP JUMPDEST SWAP5 SWAP4 POP POP POP POP JUMP JUMPDEST PUSH1 0x0 DUP1 PUSH2 0x51B DUP4 PUSH2 0xF35 JUMP JUMPDEST PUSH2 0x55A PUSH2 0xA86 JUMP JUMPDEST PUSH1 0x2 DUP1 SLOAD PUSH1 0x1 PUSH1 0x1 PUSH1 0xA0 SHL SUB NOT AND PUSH1 0x1 PUSH1 0x1 PUSH1 0xA0 SHL SUB SWAP3 SWAP1 SWAP3 AND SWAP2 SWAP1 SWAP2 OR SWAP1 SSTORE JUMP JUMPDEST PUSH1 0x0 DUP1 SLOAD PUSH1 0x40 DUP1 MLOAD PUSH4 0x309DFC6B PUSH1 0xE2 SHL DUP2 MSTORE PUSH1 0x4 DUP2 ADD DUP6 SWAP1 MSTORE SWAP1 MLOAD PUSH1 0x1 PUSH1 0x1 PUSH1 0xA0 SHL SUB SWAP1 SWAP3 AND SWAP2 PUSH4 0xC277F1AC SWAP2 PUSH1 0x24 DUP1 DUP3 ADD SWAP3 DUP7 SWAP3 SWAP1 SWAP2 SWAP1 DUP3 SWAP1 SUB ADD DUP2 DUP7 DUP1 EXTCODESIZE ISZERO DUP1 ISZERO PUSH2 0x5C8 JUMPI PUSH1 0x0 DUP1 REVERT JUMPDEST POP GAS STATICCALL ISZERO DUP1 ISZERO PUSH2 0x5DC JUMPI RETURNDATASIZE PUSH1 0x0 DUP1 RETURNDATACOPY RETURNDATASIZE PUSH1 0x0 REVERT JUMPDEST POP POP POP POP PUSH1 0x40 MLOAD RETURNDATASIZE PUSH1 0x0 DUP3 RETURNDATACOPY PUSH1 0x1F RETURNDATASIZE SWAP1 DUP2 ADD PUSH1 0x1F NOT AND DUP3 ADD PUSH1 0x40 MSTORE PUSH1 0xC0 DUP2 LT ISZERO PUSH2 0x605 JUMPI PUSH1 0x0 DUP1 REVERT JUMPDEST DUP2 MLOAD PUSH1 0x20 DUP4 ADD DUP1 MLOAD PUSH1 0x40 MLOAD SWAP3 SWAP5 SWAP3 SWAP4 DUP4 ADD SWAP3 SWAP2 SWAP1 DUP5 PUSH1 0x1 PUSH1 0x20 SHL DUP3 GT ISZERO PUSH2 0x62B JUMPI PUSH1 0x0 DUP1 REVERT JUMPDEST SWAP1 DUP4 ADD SWAP1 PUSH1 0x20 DUP3 ADD DUP6 DUP2 GT ISZERO PUSH2 0x640 JUMPI PUSH1 0x0 DUP1 REVERT JUMPDEST DUP3 MLOAD PUSH1 0x1 PUSH1 0x20 SHL DUP2 GT DUP3 DUP3 ADD DUP9 LT OR ISZERO PUSH2 0x659 JUMPI PUSH1 0x0 DUP1 REVERT JUMPDEST DUP3 MSTORE POP DUP2 MLOAD PUSH1 0x20 SWAP2 DUP3 ADD SWAP3 SWAP1 SWAP2 ADD SWAP1 DUP1 DUP4 DUP4 PUSH1 0x0 JUMPDEST DUP4 DUP2 LT ISZERO PUSH2 0x686 JUMPI DUP2 DUP2 ADD MLOAD DUP4 DUP3 ADD MSTORE PUSH1 0x20 ADD PUSH2 0x66E JUMP JUMPDEST POP POP POP POP SWAP1 POP SWAP1 DUP2 ADD SWAP1 PUSH1 0x1F AND DUP1 ISZERO PUSH2 0x6B3 JUMPI DUP1 DUP3 SUB DUP1 MLOAD PUSH1 0x1 DUP4 PUSH1 0x20 SUB PUSH2 0x100 EXP SUB NOT AND DUP2 MSTORE PUSH1 0x20 ADD SWAP2 POP JUMPDEST POP PUSH1 0x40 MSTORE PUSH1 0x20 ADD DUP1 MLOAD PUSH1 0x40 MLOAD SWAP4 SWAP3 SWAP2 SWAP1 DUP5 PUSH1 0x1 PUSH1 0x20 SHL DUP3 GT ISZERO PUSH2 0x6D5 JUMPI PUSH1 0x0 DUP1 REVERT JUMPDEST SWAP1 DUP4 ADD SWAP1 PUSH1 0x20 DUP3 ADD DUP6 DUP2 GT ISZERO PUSH2 0x6EA JUMPI PUSH1 0x0 DUP1 REVERT JUMPDEST DUP3 MLOAD PUSH1 0x1 PUSH1 0x20 SHL DUP2 GT DUP3 DUP3 ADD DUP9 LT OR ISZERO PUSH2 0x703 JUMPI PUSH1 0x0 DUP1 REVERT JUMPDEST DUP3 MSTORE POP DUP2 MLOAD PUSH1 0x20 SWAP2 DUP3 ADD SWAP3 SWAP1 SWAP2 ADD SWAP1 DUP1 DUP4 DUP4 PUSH1 0x0 JUMPDEST DUP4 DUP2 LT ISZERO PUSH2 0x730 JUMPI DUP2 DUP2 ADD MLOAD DUP4 DUP3 ADD MSTORE PUSH1 0x20 ADD PUSH2 0x718 JUMP JUMPDEST POP POP POP POP SWAP1 POP SWAP1 DUP2 ADD SWAP1 PUSH1 0x1F AND DUP1 ISZERO PUSH2 0x75D JUMPI DUP1 DUP3 SUB DUP1 MLOAD PUSH1 0x1 DUP4 PUSH1 0x20 SUB PUSH2 0x100 EXP SUB NOT AND DUP2 MSTORE PUSH1 0x20 ADD SWAP2 POP JUMPDEST POP PUSH1 0x40 MSTORE POP SWAP4 SWAP5 POP POP POP POP PUSH1 0x1 PUSH1 0x1 PUSH1 0xA0 SHL SUB DUP3 AND ISZERO ISZERO SWAP1 POP PUSH2 0x780 JUMPI POP PUSH2 0x8B4 JUMP JUMPDEST PUSH1 0x0 DUP2 PUSH1 0x1 PUSH1 0x1 PUSH1 0xA0 SHL SUB AND PUSH4 0x9489FA84 PUSH1 0x40 MLOAD DUP2 PUSH4 0xFFFFFFFF AND PUSH1 0xE0 SHL DUP2 MSTORE PUSH1 0x4 ADD PUSH1 0x20 PUSH1 0x40 MLOAD DUP1 DUP4 SUB DUP2 DUP7 DUP1 EXTCODESIZE ISZERO DUP1 ISZERO PUSH2 0x7BB JUMPI PUSH1 0x0 DUP1 REVERT JUMPDEST POP GAS STATICCALL ISZERO DUP1 ISZERO PUSH2 0x7CF JUMPI RETURNDATASIZE PUSH1 0x0 DUP1 RETURNDATACOPY RETURNDATASIZE PUSH1 0x0 REVERT JUMPDEST POP POP POP POP PUSH1 0x40 MLOAD RETURNDATASIZE PUSH1 0x20 DUP2 LT ISZERO PUSH2 0x7E5 JUMPI PUSH1 0x0 DUP1 REVERT JUMPDEST POP MLOAD SWAP1 POP PUSH2 0x7F2 CALLER PUSH2 0x1071 JUMP JUMPDEST ISZERO PUSH2 0x800 JUMPI PUSH2 0x800 DUP3 PUSH2 0x1077 JUMP JUMPDEST PUSH2 0x809 DUP4 PUSH2 0x10BE JUMP JUMPDEST PUSH1 0x0 PUSH2 0x814 DUP5 PUSH2 0xF35 JUMP JUMPDEST POP SWAP1 POP PUSH2 0x821 DUP3 DUP6 PUSH2 0x10EC JUMP JUMPDEST PUSH32 0x0 PUSH1 0x1 PUSH1 0x1 PUSH1 0xA0 SHL SUB AND PUSH4 0xECC128F2 DUP5 DUP4 PUSH1 0x40 MLOAD DUP4 PUSH4 0xFFFFFFFF AND PUSH1 0xE0 SHL DUP2 MSTORE PUSH1 0x4 ADD DUP1 DUP4 PUSH1 0x1 PUSH1 0x1 PUSH1 0xA0 SHL SUB AND DUP2 MSTORE PUSH1 0x20 ADD DUP3 DUP2 MSTORE PUSH1 0x20 ADD SWAP3 POP POP POP PUSH1 0x0 PUSH1 0x40 MLOAD DUP1 DUP4 SUB DUP2 PUSH1 0x0 DUP8 DUP1 EXTCODESIZE ISZERO DUP1 ISZERO PUSH2 0x898 JUMPI PUSH1 0x0 DUP1 REVERT JUMPDEST POP GAS CALL ISZERO DUP1 ISZERO PUSH2 0x8AC JUMPI RETURNDATASIZE PUSH1 0x0 DUP1 RETURNDATACOPY RETURNDATASIZE PUSH1 0x0 REVERT JUMPDEST POP POP POP POP POP POP POP JUMPDEST POP JUMP JUMPDEST PUSH1 0x1 SLOAD PUSH1 0x1 PUSH1 0x1 PUSH1 0xA0 SHL SUB AND DUP2 JUMP JUMPDEST PUSH1 0x0 PUSH2 0x507 DUP3 PUSH2 0x1118 JUMP JUMPDEST PUSH1 0x0 DUP1 PUSH2 0x8DD DUP4 PUSH2 0xDDF JUMP JUMPDEST POP SWAP1 SWAP5 SWAP1 SWAP4 POP SWAP2 POP POP JUMP JUMPDEST PUSH2 0x8F0 PUSH2 0xA86 JUMP JUMPDEST PUSH1 0x0 DUP1 SLOAD PUSH1 0x1 PUSH1 0x1 PUSH1 0xA0 SHL SUB NOT AND PUSH1 0x1 PUSH1 0x1 PUSH1 0xA0 SHL SUB SWAP3 SWAP1 SWAP3 AND SWAP2 SWAP1 SWAP2 OR SWAP1 SSTORE JUMP JUMPDEST PUSH2 0x91A PUSH2 0xA86 JUMP JUMPDEST PUSH1 0x1 DUP1 SLOAD PUSH1 0x1 PUSH1 0x1 PUSH1 0xA0 SHL SUB NOT AND PUSH1 0x1 PUSH1 0x1 PUSH1 0xA0 SHL SUB SWAP3 SWAP1 SWAP3 AND SWAP2 SWAP1 SWAP2 OR SWAP1 SSTORE JUMP JUMPDEST PUSH1 0x0 DUP1 PUSH1 0x0 DUP1 PUSH2 0x94B DUP6 PUSH2 0xBE8 JUMP JUMPDEST SWAP2 POP POP PUSH1 0x3 PUSH1 0x0 DUP3 PUSH1 0x1 PUSH1 0x1 PUSH1 0xA0 SHL SUB AND PUSH1 0x1 PUSH1 0x1 PUSH1 0xA0 SHL SUB AND DUP2 MSTORE PUSH1 0x20 ADD SWAP1 DUP2 MSTORE PUSH1 0x20 ADD PUSH1 0x0 KECCAK256 PUSH1 0x0 ADD SLOAD SWAP4 POP PUSH32 0x0 PUSH1 0x1 PUSH1 0x1 PUSH1 0xA0 SHL SUB AND PUSH4 0x5E615A6B PUSH1 0x40 MLOAD DUP2 PUSH4 0xFFFFFFFF AND PUSH1 0xE0 SHL DUP2 MSTORE PUSH1 0x4 ADD PUSH1 0xA0 PUSH1 0x40 MLOAD DUP1 DUP4 SUB DUP2 DUP7 DUP1 EXTCODESIZE ISZERO DUP1 ISZERO PUSH2 0x9D2 JUMPI PUSH1 0x0 DUP1 REVERT JUMPDEST POP GAS STATICCALL ISZERO DUP1 ISZERO PUSH2 0x9E6 JUMPI RETURNDATASIZE PUSH1 0x0 DUP1 RETURNDATACOPY RETURNDATASIZE PUSH1 0x0 REVERT JUMPDEST POP POP POP POP PUSH1 0x40 MLOAD RETURNDATASIZE PUSH1 0xA0 DUP2 LT ISZERO PUSH2 0x9FC JUMPI PUSH1 0x0 DUP1 REVERT JUMPDEST POP MLOAD PUSH1 0x1 PUSH1 0x1 PUSH1 0xA0 SHL SUB SWAP1 SWAP2 AND PUSH1 0x0 SWAP1 DUP2 MSTORE PUSH1 0x3 PUSH1 0x20 MSTORE PUSH1 0x40 SWAP1 KECCAK256 PUSH1 0x1 ADD SLOAD SWAP4 SWAP6 SWAP1 SWAP5 POP SWAP2 POP POP JUMP JUMPDEST PUSH1 0x0 DUP1 PUSH1 0x0 DUP1 PUSH1 0x0 DUP1 PUSH1 0x0 DUP1 PUSH1 0x0 PUSH2 0xA3C DUP11 PUSH2 0x1118 JUMP JUMPDEST SWAP9 POP PUSH2 0xA47 DUP11 PUSH2 0xBE8 JUMP JUMPDEST SWAP1 SWAP9 POP SWAP7 POP PUSH2 0xA55 DUP11 PUSH2 0xDDF JUMP JUMPDEST SWAP2 SWAP8 POP SWAP6 POP SWAP4 POP PUSH2 0xA65 DUP11 PUSH2 0x93C JUMP JUMPDEST SWAP2 SWAP5 POP SWAP1 SWAP3 POP PUSH2 0xA76 SWAP1 POP DUP11 PUSH2 0xF35 JUMP JUMPDEST POP SWAP1 POP SWAP2 SWAP4 SWAP6 SWAP8 SWAP10 SWAP1 SWAP3 SWAP5 SWAP7 SWAP9 POP JUMP JUMPDEST PUSH1 0x1 SLOAD PUSH1 0x1 PUSH1 0x1 PUSH1 0xA0 SHL SUB AND CALLER EQ PUSH2 0xAE5 JUMPI PUSH1 0x40 DUP1 MLOAD PUSH3 0x461BCD PUSH1 0xE5 SHL DUP2 MSTORE PUSH1 0x20 PUSH1 0x4 DUP3 ADD MSTORE PUSH1 0x1E PUSH1 0x24 DUP3 ADD MSTORE PUSH32 0x43414C4C45525F4E4F545F5249474F424C4F434B5F44414F5F4552524F520000 PUSH1 0x44 DUP3 ADD MSTORE SWAP1 MLOAD SWAP1 DUP2 SWAP1 SUB PUSH1 0x64 ADD SWAP1 REVERT JUMPDEST JUMP JUMPDEST PUSH1 0x2 SLOAD PUSH1 0x40 DUP1 MLOAD PUSH4 0x6E5BD1F PUSH1 0xE5 SHL DUP2 MSTORE PUSH1 0x1 PUSH1 0x1 PUSH1 0xA0 SHL SUB DUP5 DUP2 AND PUSH1 0x4 DUP4 ADD MSTORE SWAP2 MLOAD SWAP2 SWAP1 SWAP3 AND SWAP2 PUSH4 0xDCB7A3E0 SWAP2 PUSH1 0x24 DUP1 DUP4 ADD SWAP3 PUSH1 0x20 SWAP3 SWAP2 SWAP1 DUP3 SWAP1 SUB ADD DUP2 DUP7 DUP1 EXTCODESIZE ISZERO DUP1 ISZERO PUSH2 0xB34 JUMPI PUSH1 0x0 DUP1 REVERT JUMPDEST POP GAS STATICCALL ISZERO DUP1 ISZERO PUSH2 0xB48 JUMPI RETURNDATASIZE PUSH1 0x0 DUP1 RETURNDATACOPY RETURNDATASIZE PUSH1 0x0 REVERT JUMPDEST POP POP POP POP PUSH1 0x40 MLOAD RETURNDATASIZE PUSH1 0x20 DUP2 LT ISZERO PUSH2 0xB5E JUMPI PUSH1 0x0 DUP1 REVERT JUMPDEST POP MLOAD PUSH2 0x8B4 JUMPI PUSH1 0x40 DUP1 MLOAD PUSH3 0x461BCD PUSH1 0xE5 SHL DUP2 MSTORE PUSH1 0x20 PUSH1 0x4 DUP3 ADD MSTORE PUSH1 0x1C PUSH1 0x24 DUP3 ADD MSTORE PUSH32 0x4E4F545F415050524F5645445F415554484F524954595F4552524F5200000000 PUSH1 0x44 DUP3 ADD MSTORE SWAP1 MLOAD SWAP1 DUP2 SWAP1 SUB PUSH1 0x64 ADD SWAP1 REVERT JUMPDEST PUSH1 0x0 DUP2 DUP2 MSTORE PUSH1 0x4 PUSH1 0x20 MSTORE PUSH1 0x40 DUP2 KECCAK256 SLOAD PUSH2 0xBD3 JUMPI POP PUSH8 0xDE0B6B3A7640000 PUSH2 0x50A JUMP JUMPDEST POP PUSH1 0x0 DUP2 DUP2 MSTORE PUSH1 0x4 PUSH1 0x20 MSTORE PUSH1 0x40 SWAP1 KECCAK256 SLOAD PUSH2 0x50A JUMP JUMPDEST PUSH1 0x0 DUP1 SLOAD PUSH1 0x40 DUP1 MLOAD PUSH4 0x309DFC6B PUSH1 0xE2 SHL DUP2 MSTORE PUSH1 0x4 DUP2 ADD DUP6 SWAP1 MSTORE SWAP1 MLOAD DUP4 SWAP3 PUSH1 0x1 PUSH1 0x1 PUSH1 0xA0 SHL SUB AND SWAP2 PUSH4 0xC277F1AC SWAP2 PUSH1 0x24 DUP1 DUP4 ADD SWAP3 DUP7 SWAP3 SWAP2 SWAP1 DUP3 SWAP1 SUB ADD DUP2 DUP7 DUP1 EXTCODESIZE ISZERO DUP1 ISZERO PUSH2 0xC33 JUMPI PUSH1 0x0 DUP1 REVERT JUMPDEST POP GAS STATICCALL ISZERO DUP1 ISZERO PUSH2 0xC47 JUMPI RETURNDATASIZE PUSH1 0x0 DUP1 RETURNDATACOPY RETURNDATASIZE PUSH1 0x0 REVERT JUMPDEST POP POP POP POP PUSH1 0x40 MLOAD RETURNDATASIZE PUSH1 0x0 DUP3 RETURNDATACOPY PUSH1 0x1F RETURNDATASIZE SWAP1 DUP2 ADD PUSH1 0x1F NOT AND DUP3 ADD PUSH1 0x40 MSTORE PUSH1 0xC0 DUP2 LT ISZERO PUSH2 0xC70 JUMPI PUSH1 0x0 DUP1 REVERT JUMPDEST DUP2 MLOAD PUSH1 0x20 DUP4 ADD DUP1 MLOAD PUSH1 0x40 MLOAD SWAP3 SWAP5 SWAP3 SWAP4 DUP4 ADD SWAP3 SWAP2 SWAP1 DUP5 PUSH1 0x1 PUSH1 0x20 SHL DUP3 GT ISZERO PUSH2 0xC96 JUMPI PUSH1 0x0 DUP1 REVERT JUMPDEST SWAP1 DUP4 ADD SWAP1 PUSH1 0x20 DUP3 ADD DUP6 DUP2 GT ISZERO PUSH2 0xCAB JUMPI PUSH1 0x0 DUP1 REVERT JUMPDEST DUP3 MLOAD PUSH1 0x1 PUSH1 0x20 SHL DUP2 GT DUP3 DUP3 ADD DUP9 LT OR ISZERO PUSH2 0xCC4 JUMPI PUSH1 0x0 DUP1 REVERT JUMPDEST DUP3 MSTORE POP DUP2 MLOAD PUSH1 0x20 SWAP2 DUP3 ADD SWAP3 SWAP1 SWAP2 ADD SWAP1 DUP1 DUP4 DUP4 PUSH1 0x0 JUMPDEST DUP4 DUP2 LT ISZERO PUSH2 0xCF1 JUMPI DUP2 DUP2 ADD MLOAD DUP4 DUP3 ADD MSTORE PUSH1 0x20 ADD PUSH2 0xCD9 JUMP JUMPDEST POP POP POP POP SWAP1 POP SWAP1 DUP2 ADD SWAP1 PUSH1 0x1F AND DUP1 ISZERO PUSH2 0xD1E JUMPI DUP1 DUP3 SUB DUP1 MLOAD PUSH1 0x1 DUP4 PUSH1 0x20 SUB PUSH2 0x100 EXP SUB NOT AND DUP2 MSTORE PUSH1 0x20 ADD SWAP2 POP JUMPDEST POP PUSH1 0x40 MSTORE PUSH1 0x20 ADD DUP1 MLOAD PUSH1 0x40 MLOAD SWAP4 SWAP3 SWAP2 SWAP1 DUP5 PUSH1 0x1 PUSH1 0x20 SHL DUP3 GT ISZERO PUSH2 0xD40 JUMPI PUSH1 0x0 DUP1 REVERT JUMPDEST SWAP1 DUP4 ADD SWAP1 PUSH1 0x20 DUP3 ADD DUP6 DUP2 GT ISZERO PUSH2 0xD55 JUMPI PUSH1 0x0 DUP1 REVERT JUMPDEST DUP3 MLOAD PUSH1 0x1 PUSH1 0x20 SHL DUP2 GT DUP3 DUP3 ADD DUP9 LT OR ISZERO PUSH2 0xD6E JUMPI PUSH1 0x0 DUP1 REVERT JUMPDEST DUP3 MSTORE POP DUP2 MLOAD PUSH1 0x20 SWAP2 DUP3 ADD SWAP3 SWAP1 SWAP2 ADD SWAP1 DUP1 DUP4 DUP4 PUSH1 0x0 JUMPDEST DUP4 DUP2 LT ISZERO PUSH2 0xD9B JUMPI DUP2 DUP2 ADD MLOAD DUP4 DUP3 ADD MSTORE PUSH1 0x20 ADD PUSH2 0xD83 JUMP JUMPDEST POP POP POP POP SWAP1 POP SWAP1 DUP2 ADD SWAP1 PUSH1 0x1F AND DUP1 ISZERO PUSH2 0xDC8 JUMPI DUP1 DUP3 SUB DUP1 MLOAD PUSH1 0x1 DUP4 PUSH1 0x20 SUB PUSH2 0x100 EXP SUB NOT AND DUP2 MSTORE PUSH1 0x20 ADD SWAP2 POP JUMPDEST POP PUSH1 0x40 MSTORE PUSH1 0x60 ADD MLOAD SWAP5 SWAP7 POP SWAP4 SWAP5 POP POP POP POP POP SWAP2 POP SWAP2 JUMP JUMPDEST PUSH1 0x0 DUP1 PUSH1 0x0 DUP1 PUSH2 0xDEE DUP6 PUSH2 0xBE8 JUMP JUMPDEST POP SWAP1 POP PUSH1 0x0 DUP2 SWAP1 POP DUP1 PUSH1 0x1 PUSH1 0x1 PUSH1 0xA0 SHL SUB AND PUSH4 0x9489FA84 PUSH1 0x40 MLOAD DUP2 PUSH4 0xFFFFFFFF AND PUSH1 0xE0 SHL DUP2 MSTORE PUSH1 0x4 ADD PUSH1 0x20 PUSH1 0x40 MLOAD DUP1 DUP4 SUB DUP2 DUP7 DUP1 EXTCODESIZE ISZERO DUP1 ISZERO PUSH2 0xE2F JUMPI PUSH1 0x0 DUP1 REVERT JUMPDEST POP GAS STATICCALL ISZERO DUP1 ISZERO PUSH2 0xE43 JUMPI RETURNDATASIZE PUSH1 0x0 DUP1 RETURNDATACOPY RETURNDATASIZE PUSH1 0x0 REVERT JUMPDEST POP POP POP POP PUSH1 0x40 MLOAD RETURNDATASIZE PUSH1 0x20 DUP2 LT ISZERO PUSH2 0xE59 JUMPI PUSH1 0x0 DUP1 REVERT JUMPDEST POP MLOAD PUSH1 0x40 DUP1 MLOAD PUSH4 0x18160DDD PUSH1 0xE0 SHL DUP2 MSTORE SWAP1 MLOAD SWAP2 SWAP7 POP PUSH1 0x1 PUSH1 0x1 PUSH1 0xA0 SHL SUB DUP4 AND SWAP2 PUSH4 0x18160DDD SWAP2 PUSH1 0x4 DUP1 DUP3 ADD SWAP3 PUSH1 0x20 SWAP3 SWAP1 SWAP2 SWAP1 DUP3 SWAP1 SUB ADD DUP2 DUP7 DUP1 EXTCODESIZE ISZERO DUP1 ISZERO PUSH2 0xE9F JUMPI PUSH1 0x0 DUP1 REVERT JUMPDEST POP GAS STATICCALL ISZERO DUP1 ISZERO PUSH2 0xEB3 JUMPI RETURNDATASIZE PUSH1 0x0 DUP1 RETURNDATACOPY RETURNDATASIZE PUSH1 0x0 REVERT JUMPDEST POP POP POP POP PUSH1 0x40 MLOAD RETURNDATASIZE PUSH1 0x20 DUP2 LT ISZERO PUSH2 0xEC9 JUMPI PUSH1 0x0 DUP1 REVERT JUMPDEST POP MLOAD SWAP4 POP DUP5 ISZERO DUP1 PUSH2 0xED8 JUMPI POP DUP4 ISZERO JUMPDEST ISZERO PUSH2 0xF14 JUMPI PUSH1 0x40 MLOAD PUSH3 0x461BCD PUSH1 0xE5 SHL DUP2 MSTORE PUSH1 0x4 ADD DUP1 DUP1 PUSH1 0x20 ADD DUP3 DUP2 SUB DUP3 MSTORE PUSH1 0x25 DUP2 MSTORE PUSH1 0x20 ADD DUP1 PUSH2 0x16AD PUSH1 0x25 SWAP2 CODECOPY PUSH1 0x40 ADD SWAP2 POP POP PUSH1 0x40 MLOAD DUP1 SWAP2 SUB SWAP1 REVERT JUMPDEST PUSH3 0xF4240 PUSH2 0xF22 DUP7 DUP7 PUSH2 0x1329 JUMP JUMPDEST DUP2 PUSH2 0xF29 JUMPI INVALID JUMPDEST DIV SWAP3 POP POP POP SWAP2 SWAP4 SWAP1 SWAP3 POP JUMP JUMPDEST PUSH1 0x0 DUP1 PUSH1 0x0 DUP1 PUSH1 0x0 PUSH2 0xF46 DUP7 PUSH2 0xDDF JUMP JUMPDEST SWAP3 POP SWAP3 POP SWAP3 POP PUSH1 0x0 PUSH2 0xF57 DUP8 PUSH2 0xBE8 JUMP JUMPDEST POP SWAP1 POP PUSH1 0x0 DUP1 PUSH1 0x0 PUSH2 0xF68 DUP11 PUSH2 0x93C JUMP JUMPDEST SWAP3 POP SWAP3 POP SWAP3 POP PUSH1 0x0 PUSH3 0x15180 DUP4 PUSH2 0xF7F DUP9 DUP8 PUSH2 0x1329 JUMP JUMPDEST MUL DUP2 PUSH2 0xF87 JUMPI INVALID JUMPDEST DIV SWAP1 POP PUSH1 0x0 PUSH2 0xF95 DUP13 PUSH2 0xBB1 JUMP JUMPDEST DUP10 GT ISZERO PUSH2 0xFCE JUMPI PUSH2 0xFC5 PUSH3 0xF4240 PUSH2 0xFB7 PUSH2 0xFAF DUP16 PUSH2 0xBB1 JUMP JUMPDEST DUP13 SUB DUP12 PUSH2 0x1329 JUMP JUMPDEST DUP2 PUSH2 0xFBE JUMPI INVALID JUMPDEST DIV DUP7 PUSH2 0x1329 JUMP JUMPDEST PUSH2 0x16D MUL PUSH2 0xFD1 JUMP JUMPDEST PUSH1 0x0 JUMPDEST SWAP1 POP PUSH1 0x0 PUSH8 0xDE0B6B3A7640000 PUSH2 0xFE8 DUP9 DUP11 PUSH2 0x1352 JUMP JUMPDEST PUSH10 0x21E19E0C9BAB2400000 PUSH2 0x1008 DUP7 PUSH2 0x1003 PUSH2 0x2710 DUP11 PUSH2 0x1651 JUMP JUMPDEST PUSH2 0x1329 JUMP JUMPDEST DUP2 PUSH2 0x100F JUMPI INVALID JUMPDEST DIV MUL DUP2 PUSH2 0x1018 JUMPI INVALID JUMPDEST DIV SWAP1 POP PUSH8 0xDE0B6B3A7640000 PUSH2 0x102E DUP9 DUP11 PUSH2 0x1352 JUMP JUMPDEST PUSH2 0x104B PUSH2 0x103B DUP6 DUP9 PUSH2 0x1329 JUMP JUMPDEST PUSH10 0x21E19E0C9BAB2400000 PUSH2 0x1663 JUMP JUMPDEST MUL DUP2 PUSH2 0x1053 JUMPI INVALID JUMPDEST DIV SWAP11 POP PUSH2 0x1060 DUP12 DUP3 PUSH2 0x1692 JUMP JUMPDEST SWAP12 POP POP POP POP POP POP POP POP POP POP POP SWAP2 POP SWAP2 JUMP JUMPDEST EXTCODESIZE ISZERO ISZERO SWAP1 JUMP JUMPDEST CALLER PUSH1 0x1 PUSH1 0x1 PUSH1 0xA0 SHL SUB DUP3 AND EQ PUSH2 0x8B4 JUMPI PUSH1 0x40 MLOAD PUSH3 0x461BCD PUSH1 0xE5 SHL DUP2 MSTORE PUSH1 0x4 ADD DUP1 DUP1 PUSH1 0x20 ADD DUP3 DUP2 SUB DUP3 MSTORE PUSH1 0x27 DUP2 MSTORE PUSH1 0x20 ADD DUP1 PUSH2 0x16D2 PUSH1 0x27 SWAP2 CODECOPY PUSH1 0x40 ADD SWAP2 POP POP PUSH1 0x40 MLOAD DUP1 SWAP2 SUB SWAP1 REVERT JUMPDEST PUSH1 0x0 DUP2 DUP2 MSTORE PUSH1 0x4 PUSH1 0x20 MSTORE PUSH1 0x40 SWAP1 KECCAK256 SLOAD PUSH2 0x8B4 JUMPI PUSH1 0x0 SWAP1 DUP2 MSTORE PUSH1 0x4 PUSH1 0x20 MSTORE PUSH1 0x40 SWAP1 KECCAK256 PUSH8 0xDE0B6B3A7640000 SWAP1 SSTORE JUMP JUMPDEST PUSH1 0x0 DUP2 DUP2 MSTORE PUSH1 0x4 PUSH1 0x20 MSTORE PUSH1 0x40 SWAP1 KECCAK256 SLOAD DUP3 GT ISZERO PUSH2 0x1114 JUMPI PUSH1 0x0 DUP2 DUP2 MSTORE PUSH1 0x4 PUSH1 0x20 MSTORE PUSH1 0x40 SWAP1 KECCAK256 DUP3 SWAP1 SSTORE JUMPDEST POP POP JUMP JUMPDEST PUSH1 0x0 DUP1 SLOAD PUSH1 0x40 DUP1 MLOAD PUSH4 0x309DFC6B PUSH1 0xE2 SHL DUP2 MSTORE PUSH1 0x4 DUP2 ADD DUP6 SWAP1 MSTORE SWAP1 MLOAD DUP4 SWAP3 PUSH1 0x1 PUSH1 0x1 PUSH1 0xA0 SHL SUB AND SWAP2 PUSH4 0xC277F1AC SWAP2 PUSH1 0x24 DUP1 DUP4 ADD SWAP3 DUP7 SWAP3 SWAP2 SWAP1 DUP3 SWAP1 SUB ADD DUP2 DUP7 DUP1 EXTCODESIZE ISZERO DUP1 ISZERO PUSH2 0x1163 JUMPI PUSH1 0x0 DUP1 REVERT JUMPDEST POP GAS STATICCALL ISZERO DUP1 ISZERO PUSH2 0x1177 JUMPI RETURNDATASIZE PUSH1 0x0 DUP1 RETURNDATACOPY RETURNDATASIZE PUSH1 0x0 REVERT JUMPDEST POP POP POP POP PUSH1 0x40 MLOAD RETURNDATASIZE PUSH1 0x0 DUP3 RETURNDATACOPY PUSH1 0x1F RETURNDATASIZE SWAP1 DUP2 ADD PUSH1 0x1F NOT AND DUP3 ADD PUSH1 0x40 MSTORE PUSH1 0xC0 DUP2 LT ISZERO PUSH2 0x11A0 JUMPI PUSH1 0x0 DUP1 REVERT JUMPDEST DUP2 MLOAD PUSH1 0x20 DUP4 ADD DUP1 MLOAD PUSH1 0x40 MLOAD SWAP3 SWAP5 SWAP3 SWAP4 DUP4 ADD SWAP3 SWAP2 SWAP1 DUP5 PUSH1 0x1 PUSH1 0x20 SHL DUP3 GT ISZERO PUSH2 0x11C6 JUMPI PUSH1 0x0 DUP1 REVERT JUMPDEST SWAP1 DUP4 ADD SWAP1 PUSH1 0x20 DUP3 ADD DUP6 DUP2 GT ISZERO PUSH2 0x11DB JUMPI PUSH1 0x0 DUP1 REVERT JUMPDEST DUP3 MLOAD PUSH1 0x1 PUSH1 0x20 SHL DUP2 GT DUP3 DUP3 ADD DUP9 LT OR ISZERO PUSH2 0x11F4 JUMPI PUSH1 0x0 DUP1 REVERT JUMPDEST DUP3 MSTORE POP DUP2 MLOAD PUSH1 0x20 SWAP2 DUP3 ADD SWAP3 SWAP1 SWAP2 ADD SWAP1 DUP1 DUP4 DUP4 PUSH1 0x0 JUMPDEST DUP4 DUP2 LT ISZERO PUSH2 0x1221 JUMPI DUP2 DUP2 ADD MLOAD DUP4 DUP3 ADD MSTORE PUSH1 0x20 ADD PUSH2 0x1209 JUMP JUMPDEST POP POP POP POP SWAP1 POP SWAP1 DUP2 ADD SWAP1 PUSH1 0x1F AND DUP1 ISZERO PUSH2 0x124E JUMPI DUP1 DUP3 SUB DUP1 MLOAD PUSH1 0x1 DUP4 PUSH1 0x20 SUB PUSH2 0x100 EXP SUB NOT AND DUP2 MSTORE PUSH1 0x20 ADD SWAP2 POP JUMPDEST POP PUSH1 0x40 MSTORE PUSH1 0x20 ADD DUP1 MLOAD PUSH1 0x40 MLOAD SWAP4 SWAP3 SWAP2 SWAP1 DUP5 PUSH1 0x1 PUSH1 0x20 SHL DUP3 GT ISZERO PUSH2 0x1270 JUMPI PUSH1 0x0 DUP1 REVERT JUMPDEST SWAP1 DUP4 ADD SWAP1 PUSH1 0x20 DUP3 ADD DUP6 DUP2 GT ISZERO PUSH2 0x1285 JUMPI PUSH1 0x0 DUP1 REVERT JUMPDEST DUP3 MLOAD PUSH1 0x1 PUSH1 0x20 SHL DUP2 GT DUP3 DUP3 ADD DUP9 LT OR ISZERO PUSH2 0x129E JUMPI PUSH1 0x0 DUP1 REVERT JUMPDEST DUP3 MSTORE POP DUP2 MLOAD PUSH1 0x20 SWAP2 DUP3 ADD SWAP3 SWAP1 SWAP2 ADD SWAP1 DUP1 DUP4 DUP4 PUSH1 0x0 JUMPDEST DUP4 DUP2 LT ISZERO PUSH2 0x12CB JUMPI DUP2 DUP2 ADD MLOAD DUP4 DUP3 ADD MSTORE PUSH1 0x20 ADD PUSH2 0x12B3 JUMP JUMPDEST POP POP POP POP SWAP1 POP SWAP1 DUP2 ADD SWAP1 PUSH1 0x1F AND DUP1 ISZERO PUSH2 0x12F8 JUMPI DUP1 DUP3 SUB DUP1 MLOAD PUSH1 0x1 DUP4 PUSH1 0x20 SUB PUSH2 0x100 EXP SUB NOT AND DUP2 MSTORE PUSH1 0x20 ADD SWAP2 POP JUMPDEST POP PUSH1 0x40 MSTORE POP SWAP4 SWAP5 POP POP POP PUSH1 0x1 PUSH1 0x1 PUSH1 0xA0 SHL SUB DUP4 AND ISZERO SWAP2 POP PUSH2 0x131F SWAP1 POP JUMPI PUSH1 0x1 SWAP2 POP POP PUSH2 0x50A JUMP JUMPDEST PUSH1 0x0 SWAP2 POP POP PUSH2 0x50A JUMP JUMPDEST PUSH1 0x0 DUP3 DUP3 MUL DUP4 ISZERO DUP1 PUSH2 0x1343 JUMPI POP DUP3 DUP5 DUP3 DUP2 PUSH2 0x1340 JUMPI INVALID JUMPDEST DIV EQ JUMPDEST PUSH2 0x1349 JUMPI INVALID JUMPDEST SWAP1 POP JUMPDEST SWAP3 SWAP2 POP POP JUMP JUMPDEST PUSH1 0x0 PUSH1 0x1 PUSH1 0x1 PUSH1 0xA0 SHL SUB DUP4 AND BALANCE DUP3 DUP2 GT DUP1 PUSH2 0x1373 JUMPI POP PUSH7 0x38D7EA4C68000 DUP2 LT JUMPDEST DUP1 PUSH2 0x1384 JUMPI POP PUSH7 0x2386F26FC10000 DUP4 LT JUMPDEST ISZERO PUSH2 0x13D6 JUMPI PUSH1 0x40 DUP1 MLOAD PUSH3 0x461BCD PUSH1 0xE5 SHL DUP2 MSTORE PUSH1 0x20 PUSH1 0x4 DUP3 ADD MSTORE PUSH1 0x1B PUSH1 0x24 DUP3 ADD MSTORE PUSH32 0x4554485F41424F56455F41554D5F4F525F445553545F4552524F520000000000 PUSH1 0x44 DUP3 ADD MSTORE SWAP1 MLOAD SWAP1 DUP2 SWAP1 SUB PUSH1 0x64 ADD SWAP1 REVERT JUMPDEST PUSH8 0xB1A2BC2EC500000 DUP4 DUP3 PUSH8 0xDE0B6B3A7640000 MUL DUP2 PUSH2 0x13F2 JUMPI INVALID JUMPDEST DIV LT PUSH2 0x1409 JUMPI PUSH8 0xDE0B6B3A7640000 SWAP2 POP POP PUSH2 0x134C JUMP JUMPDEST PUSH8 0x853A0D2313C0000 DUP4 DUP3 PUSH8 0xDE0B6B3A7640000 MUL DUP2 PUSH2 0x1425 JUMPI INVALID JUMPDEST DIV LT PUSH2 0x143C JUMPI PUSH8 0xD163580F7318000 SWAP2 POP POP PUSH2 0x134C JUMP JUMPDEST PUSH8 0x6F05B59D3B20000 DUP4 DUP3 PUSH8 0xDE0B6B3A7640000 MUL DUP2 PUSH2 0x1458 JUMPI INVALID JUMPDEST DIV LT PUSH2 0x146F JUMPI PUSH8 0xC39F0D50F1E8000 SWAP2 POP POP PUSH2 0x134C JUMP JUMPDEST PUSH8 0x58D15E176280000 DUP4 DUP3 PUSH8 0xDE0B6B3A7640000 MUL DUP2 PUSH2 0x148B JUMPI INVALID JUMPDEST DIV LT PUSH2 0x14A2 JUMPI PUSH8 0xAAC096CF8468000 SWAP2 POP POP PUSH2 0x134C JUMP JUMPDEST PUSH8 0x429D069189E0000 DUP4 DUP3 PUSH8 0xDE0B6B3A7640000 MUL DUP2 PUSH2 0x14BE JUMPI INVALID JUMPDEST DIV LT PUSH2 0x14D5 JUMPI PUSH8 0x85013538C758000 SWAP2 POP POP PUSH2 0x134C JUMP JUMPDEST PUSH8 0x2C68AF0BB140000 DUP4 DUP3 PUSH8 0xDE0B6B3A7640000 MUL DUP2 PUSH2 0x14F1 JUMPI INVALID JUMPDEST DIV LT PUSH2 0x1508 JUMPI PUSH8 0x590A3601AEE8000 SWAP2 POP POP PUSH2 0x134C JUMP JUMPDEST PUSH8 0x16345785D8A0000 DUP4 DUP3 PUSH8 0xDE0B6B3A7640000 MUL DUP2 PUSH2 0x1524 JUMPI INVALID JUMPDEST DIV LT PUSH2 0x153B JUMPI PUSH8 0x334AD46AF1D8000 SWAP2 POP POP PUSH2 0x134C JUMP JUMPDEST PUSH8 0x10A741A46278000 DUP4 DUP3 PUSH8 0xDE0B6B3A7640000 MUL DUP2 PUSH2 0x1557 JUMPI INVALID JUMPDEST DIV LT PUSH2 0x156E JUMPI PUSH8 0x2BF6FF371870000 SWAP2 POP POP PUSH2 0x134C JUMP JUMPDEST PUSH7 0xB1A2BC2EC50000 DUP4 DUP3 PUSH8 0xDE0B6B3A7640000 MUL DUP2 PUSH2 0x1589 JUMPI INVALID JUMPDEST DIV LT PUSH2 0x15A0 JUMPI PUSH8 0x254DB1C22440000 SWAP2 POP POP PUSH2 0x134C JUMP JUMPDEST PUSH7 0x8700CC75770000 DUP4 DUP3 PUSH8 0xDE0B6B3A7640000 MUL DUP2 PUSH2 0x15BB JUMPI INVALID JUMPDEST DIV LT PUSH2 0x15D2 JUMPI PUSH8 0x226ABADC42F8000 SWAP2 POP POP PUSH2 0x134C JUMP JUMPDEST PUSH7 0x58D15E17628000 DUP4 DUP3 PUSH8 0xDE0B6B3A7640000 MUL DUP2 PUSH2 0x15ED JUMPI INVALID JUMPDEST DIV LT PUSH2 0x1604 JUMPI PUSH8 0x1F87C3F661B0000 SWAP2 POP POP PUSH2 0x134C JUMP JUMPDEST PUSH1 0x40 DUP1 MLOAD PUSH3 0x461BCD PUSH1 0xE5 SHL DUP2 MSTORE PUSH1 0x20 PUSH1 0x4 DUP3 ADD MSTORE PUSH1 0x1F PUSH1 0x24 DUP3 ADD MSTORE PUSH32 0x4554485F42454C4F575F322E355F50455243454E545F41554D5F4552524F5200 PUSH1 0x44 DUP3 ADD MSTORE SWAP1 MLOAD SWAP1 DUP2 SWAP1 SUB PUSH1 0x64 ADD SWAP1 REVERT JUMPDEST PUSH1 0x0 DUP3 DUP3 GT ISZERO PUSH2 0x165D JUMPI INVALID JUMPDEST POP SWAP1 SUB SWAP1 JUMP JUMPDEST PUSH1 0x0 DUP1 DUP3 GT PUSH2 0x166E JUMPI INVALID JUMPDEST PUSH1 0x0 DUP3 DUP5 DUP2 PUSH2 0x1679 JUMPI INVALID JUMPDEST DIV SWAP1 POP DUP3 DUP5 DUP2 PUSH2 0x1685 JUMPI INVALID JUMPDEST MOD DUP2 DUP5 MUL ADD DUP5 EQ PUSH2 0x1349 JUMPI INVALID JUMPDEST PUSH1 0x0 DUP3 DUP3 ADD DUP4 DUP2 LT DUP1 ISZERO SWAP1 PUSH2 0x1343 JUMPI POP DUP3 DUP2 LT ISZERO PUSH2 0x1349 JUMPI INVALID INVALID POP 0x4F 0x4F 0x4C 0x5F POP MSTORE 0x49 NUMBER GASLIMIT 0x5F 0x4F MSTORE 0x5F SLOAD 0x4F SLOAD COINBASE 0x4C 0x5F MSTORE8 SSTORE POP POP 0x4C MSIZE 0x5F 0x4E SSTORE 0x4C 0x4C 0x5F GASLIMIT MSTORE MSTORE 0x4F MSTORE MSTORE8 0x4D COINBASE MSTORE SLOAD 0x5F NUMBER 0x4F 0x4E SLOAD MSTORE COINBASE NUMBER SLOAD 0x5F NUMBER COINBASE 0x4C 0x4C GASLIMIT MSTORE 0x5F 0x49 MSTORE8 0x5F 0x4E 0x4F SLOAD 0x5F POP 0x4F 0x4F 0x4C 0x5F GASLIMIT MSTORE MSTORE 0x4F MSTORE LOG2 PUSH5 0x6970667358 0x22 SLT KECCAK256 0x4E DIFFICULTY 0xFC JUMPI 0xB1 LOG0 PUSH14 0x989282CFB501CCF5DC270EE365AA BALANCE 0xAC SIGNEXTEND 0xE3 PUSH27 0xDF41BF3B740764736F6C6343000704003300000000000000000000 "
			}
		}
	},
	"sourceTreeHashHex": "0x497bd4fb68f59d78c1ce6a227c715cfaade01d2e4804ae94b879edb767902b1c",
	"compiler": {
		"name": "solc",
		"version": "0.7.4+commit.3f05b770",
		"settings": {
			"remappings": [],
			"optimizer": {
				"enabled": true,
				"runs": 200
			},
			"outputSelection": {
				"*": {
					"*": [
						"abi",
						"devdoc",
						"evm.bytecode.object",
						"evm.bytecode.sourceMap",
						"evm.deployedBytecode.object",
						"evm.deployedBytecode.sourceMap"
					]
				}
			}
		}
	},
	"chains": {}
}