{
	"schemaVersion": "2.0.0",
	"contractName": "ProofOfPerformance",
	"compilerOutput": {
		"abi": [
			{
				"constant": false,
				"inputs": [
					{
						"name": "_ofGroup",
						"type": "address"
					},
					{
						"name": "_ratio",
						"type": "uint256"
					}
				],
				"name": "setRatio",
				"outputs": [],
				"payable": false,
				"stateMutability": "nonpayable",
				"type": "function"
			},
			{
				"constant": true,
				"inputs": [
					{
						"name": "_ofPool",
						"type": "uint256"
					}
				],
				"name": "getHwm",
				"outputs": [
					{
						"name": "",
						"type": "uint256"
					}
				],
				"payable": false,
				"stateMutability": "view",
				"type": "function"
			},
			{
				"constant": true,
				"inputs": [
					{
						"name": "_ofPool",
						"type": "uint256"
					}
				],
				"name": "addressFromId",
				"outputs": [
					{
						"name": "pool",
						"type": "address"
					},
					{
						"name": "group",
						"type": "address"
					}
				],
				"payable": false,
				"stateMutability": "view",
				"type": "function"
			},
			{
				"constant": true,
				"inputs": [],
				"name": "rigoblockDao",
				"outputs": [
					{
						"name": "",
						"type": "address"
					}
				],
				"payable": false,
				"stateMutability": "view",
				"type": "function"
			},
			{
				"constant": true,
				"inputs": [
					{
						"name": "_ofPool",
						"type": "uint256"
					}
				],
				"name": "calcPoolValue",
				"outputs": [
					{
						"name": "aum",
						"type": "uint256"
					}
				],
				"payable": false,
				"stateMutability": "view",
				"type": "function"
			},
			{
				"constant": true,
				"inputs": [
					{
						"name": "_ofPool",
						"type": "uint256"
					}
				],
				"name": "getRatio",
				"outputs": [
					{
						"name": "",
						"type": "uint256"
					}
				],
				"payable": false,
				"stateMutability": "view",
				"type": "function"
			},
			{
				"constant": true,
				"inputs": [
					{
						"name": "_ofPool",
						"type": "uint256"
					}
				],
				"name": "proofOfPerformance",
				"outputs": [
					{
						"name": "popReward",
						"type": "uint256"
					},
					{
						"name": "performanceReward",
						"type": "uint256"
					}
				],
				"payable": false,
				"stateMutability": "view",
				"type": "function"
			},
			{
				"constant": true,
				"inputs": [
					{
						"name": "_ofPool",
						"type": "uint256"
					}
				],
				"name": "isActive",
				"outputs": [
					{
						"name": "",
						"type": "bool"
					}
				],
				"payable": false,
				"stateMutability": "view",
				"type": "function"
			},
			{
				"constant": true,
				"inputs": [
					{
						"name": "_ofPool",
						"type": "uint256"
					}
				],
				"name": "getPoolPrice",
				"outputs": [
					{
						"name": "thePoolPrice",
						"type": "uint256"
					},
					{
						"name": "totalTokens",
						"type": "uint256"
					}
				],
				"payable": false,
				"stateMutability": "view",
				"type": "function"
			},
			{
				"constant": true,
				"inputs": [],
				"name": "RIGOTOKENADDRESS",
				"outputs": [
					{
						"name": "",
						"type": "address"
					}
				],
				"payable": false,
				"stateMutability": "view",
				"type": "function"
			},
			{
				"constant": false,
				"inputs": [
					{
						"name": "_dragoRegistry",
						"type": "address"
					}
				],
				"name": "setRegistry",
				"outputs": [],
				"payable": false,
				"stateMutability": "nonpayable",
				"type": "function"
			},
			{
				"constant": false,
				"inputs": [
					{
						"name": "_rigoblockDao",
						"type": "address"
					}
				],
				"name": "setRigoblockDao",
				"outputs": [],
				"payable": false,
				"stateMutability": "nonpayable",
				"type": "function"
			},
			{
				"constant": true,
				"inputs": [],
				"name": "dragoRegistry",
				"outputs": [
					{
						"name": "",
						"type": "address"
					}
				],
				"payable": false,
				"stateMutability": "view",
				"type": "function"
			},
			{
				"constant": true,
				"inputs": [
					{
						"name": "_ofPool",
						"type": "uint256"
					}
				],
				"name": "getPoolData",
				"outputs": [
					{
						"name": "active",
						"type": "bool"
					},
					{
						"name": "thePoolAddress",
						"type": "address"
					},
					{
						"name": "thePoolGroup",
						"type": "address"
					},
					{
						"name": "thePoolPrice",
						"type": "uint256"
					},
					{
						"name": "thePoolSupply",
						"type": "uint256"
					},
					{
						"name": "poolValue",
						"type": "uint256"
					},
					{
						"name": "epochReward",
						"type": "uint256"
					},
					{
						"name": "ratio",
						"type": "uint256"
					},
					{
						"name": "pop",
						"type": "uint256"
					}
				],
				"payable": false,
				"stateMutability": "view",
				"type": "function"
			},
			{
				"constant": true,
				"inputs": [
					{
						"name": "_ofPool",
						"type": "uint256"
					}
				],
				"name": "getEpochReward",
				"outputs": [
					{
						"name": "",
						"type": "uint256"
					}
				],
				"payable": false,
				"stateMutability": "view",
				"type": "function"
			},
			{
				"constant": false,
				"inputs": [
					{
						"name": "_ofPool",
						"type": "uint256"
					}
				],
				"name": "claimPop",
				"outputs": [],
				"payable": false,
				"stateMutability": "nonpayable",
				"type": "function"
			},
			{
				"inputs": [
					{
						"name": "_rigoTokenAddress",
						"type": "address"
					},
					{
						"name": "_rigoblockDao",
						"type": "address"
					},
					{
						"name": "_dragoRegistry",
						"type": "address"
					}
				],
				"payable": false,
				"stateMutability": "nonpayable",
				"type": "constructor"
			}
		],
		"devdoc": {
			"author": "Gabriele Rigo - <gab@rigoblock.com>",
			"methods": {
				"addressFromId(uint256)": {
					"details": "Returns the address and the group of a pool from its id.",
					"params": {
						"_ofPool": "Id of the pool."
					},
					"return": "Address of the target pool.Address of the pool's group."
				},
				"calcPoolValue(uint256)": {
					"details": "Returns the address and the group of a pool from its id.",
					"params": {
						"_ofPool": "Id of the pool."
					},
					"return": "Address of the target pool.Address of the pool's group."
				},
				"claimPop(uint256)": {
					"details": "Allows anyone to allocate the pop reward to pool wizards.",
					"params": {
						"_ofPool": "Number of pool id in registry."
					}
				},
				"getEpochReward(uint256)": {
					"details": "Returns the reward factor for a pool.",
					"params": {
						"_ofPool": "Id of the pool."
					},
					"return": "Value of the reward factor."
				},
				"getHwm(uint256)": {
					"details": "Returns the highwatermark of a pool.",
					"params": {
						"_ofPool": "Id of the pool."
					},
					"return": "Value of the all-time-high pool nav."
				},
				"getPoolData(uint256)": {
					"details": "Gets data of a pool.",
					"params": {
						"_ofPool": "Id of the pool."
					},
					"return": "Bool the pool is active.address of the pool.address of the pool factory.price of the pool in wei.total supply of the pool in units.total value of the pool in wei.value of the reward factor or said pool.ratio of assets/performance reward (from 0 to 10000).value of the pop reward to be claimed in GRGs."
				},
				"getPoolPrice(uint256)": {
					"details": "Returns the price a pool from its id.",
					"params": {
						"_ofPool": "Id of the pool."
					},
					"return": "Price of the pool in wei.Number of tokens of a pool (totalSupply)."
				},
				"getRatio(uint256)": {
					"details": "Returns the split ratio of asset and performance reward.",
					"params": {
						"_ofPool": "Id of the pool."
					},
					"return": "Value of the ratio from 1 to 100."
				},
				"isActive(uint256)": {
					"details": "Checks whether a pool is registered and active.",
					"params": {
						"_ofPool": "Id of the pool."
					},
					"return": "Bool the pool is active."
				},
				"proofOfPerformance(uint256)": {
					"details": "Returns the proof of performance reward for a pool.",
					"params": {
						"_ofPool": "Id of the pool."
					},
					"return": "popReward Value of the pop reward in Rigo tokens.performanceReward Split of the performance reward in Rigo tokens."
				},
				"setRatio(address,uint256)": {
					"details": "Allows RigoBlock Dao to set the ratio between assets and performance reward for a group.",
					"params": {
						"_ofGroup": "Id of the pool.",
						"_ratio": "Id of the pool."
					}
				},
				"setRegistry(address)": {
					"details": "Allows RigoBlock Dao to update the pools registry.",
					"params": {
						"_dragoRegistry": "Address of new registry."
					}
				},
				"setRigoblockDao(address)": {
					"details": "Allows RigoBlock Dao to update its address.",
					"params": {
						"_rigoblockDao": "Address of new dao."
					}
				}
			},
			"title": "Proof of Performance - Controls parameters of inflation."
		},
		"evm": {
			"bytecode": {
				"linkReferences": {},
				"object": "0x60806040526000805460ff1916905534801561001a57600080fd5b50604051606080611d038339810180604052606081101561003a57600080fd5b508051602082015160409092015160008054600160a060020a039384166101000261010060a860020a031990911617905560028054938316600160a060020a0319948516179055600180549290911691909216179055611c648061009f6000396000f3fe608060405234801561001057600080fd5b506004361061011d576000357c0100000000000000000000000000000000000000000000000000000000900480639af94f30116100b4578063bb76bd2911610083578063bb76bd2914610339578063d21c87ad14610341578063d418634a146103c0578063dc5d2799146103dd5761011d565b80639af94f30146102ae578063a6c9c443146102cb578063a91ee0dc146102d3578063b516e6e1146103065761011d565b8063427fdc0c116100f0578063427fdc0c1461020d57806346a62eaf1461022a5780634d749e431461024757806382afd23b1461027d5761011d565b80630575204714610122578063249d91231461015d578063360dafa01461018c5780633edd80c3146101dc575b600080fd5b61015b6004803603604081101561013857600080fd5b5073ffffffffffffffffffffffffffffffffffffffff81351690602001356103fa565b005b61017a6004803603602081101561017357600080fd5b503561051a565b60408051918252519081900360200190f35b6101a9600480360360208110156101a257600080fd5b503561052d565b6040805173ffffffffffffffffffffffffffffffffffffffff938416815291909216602082015281519081900390910190f35b6101e4610542565b6040805173ffffffffffffffffffffffffffffffffffffffff9092168252519081900360200190f35b61017a6004803603602081101561022357600080fd5b503561055e565b61017a6004803603602081101561024057600080fd5b5035610571565b6102646004803603602081101561025d57600080fd5b5035610586565b6040805192835260208301919091528051918290030190f35b61029a6004803603602081101561029357600080fd5b5035610592565b604080519115158252519081900360200190f35b610264600480360360208110156102c457600080fd5b503561059d565b6101e46105b4565b61015b600480360360208110156102e957600080fd5b503573ffffffffffffffffffffffffffffffffffffffff166105d5565b61015b6004803603602081101561031c57600080fd5b503573ffffffffffffffffffffffffffffffffffffffff166106a2565b6101e461076f565b61035e6004803603602081101561035757600080fd5b503561078b565b604080519915158a5273ffffffffffffffffffffffffffffffffffffffff98891660208b015296909716888701526060880194909452608087019290925260a086015260c085015260e084015261010083019190915251908190036101200190f35b61017a600480360360208110156103d657600080fd5b50356107ec565b61015b600480360360208110156103f357600080fd5b5035610802565b60025473ffffffffffffffffffffffffffffffffffffffff16331461048057604080517f08c379a000000000000000000000000000000000000000000000000000000000815260206004820152601260248201527f4f4e4c595f5249474f424c4f434b5f44414f0000000000000000000000000000604482015290519081900360640190fd5b6127108111156104f157604080517f08c379a000000000000000000000000000000000000000000000000000000000815260206004820152601760248201527f524154494f5f4249474745525f5448414e5f3130303030000000000000000000604482015290519081900360640190fd5b73ffffffffffffffffffffffffffffffffffffffff909116600090815260046020526040902055565b600061052582610ca4565b90505b919050565b60008061053983610cdd565b91509150915091565b60025473ffffffffffffffffffffffffffffffffffffffff1681565b600061056982610e5c565b949350505050565b60008061057d83611021565b95945050505050565b600080610539836111c7565b6000610525826113a2565b6000806105a983610e5c565b509094909350915050565b600054610100900473ffffffffffffffffffffffffffffffffffffffff1681565b60025473ffffffffffffffffffffffffffffffffffffffff16331461065b57604080517f08c379a000000000000000000000000000000000000000000000000000000000815260206004820152601260248201527f4f4e4c595f5249474f424c4f434b5f44414f0000000000000000000000000000604482015290519081900360640190fd5b600180547fffffffffffffffffffffffff00000000000000000000000000000000000000001673ffffffffffffffffffffffffffffffffffffffff92909216919091179055565b60025473ffffffffffffffffffffffffffffffffffffffff16331461072857604080517f08c379a000000000000000000000000000000000000000000000000000000000815260206004820152601260248201527f4f4e4c595f5249474f424c4f434b5f44414f0000000000000000000000000000604482015290519081900360640190fd5b600280547fffffffffffffffffffffffff00000000000000000000000000000000000000001673ffffffffffffffffffffffffffffffffffffffff92909216919091179055565b60015473ffffffffffffffffffffffffffffffffffffffff1681565b60008060008060008060008060006107a28a6113a2565b98506107ad8a610cdd565b90985096506107bb8a610e5c565b919750955093506107cb8a611021565b9194509092506107dc90508a6111c7565b5090509193959799909294969850565b6000806107f883611021565b5090949350505050565b60005460ff161561087457604080517f08c379a000000000000000000000000000000000000000000000000000000000815260206004820152601260248201527f5245454e5452414e43595f494c4c4547414c0000000000000000000000000000604482015290519081900360640190fd5b600080547fffffffffffffffffffffffffffffffffffffffffffffffffffffffffffffff00166001908117825554604080517fc277f1ac00000000000000000000000000000000000000000000000000000000815260048101859052905173ffffffffffffffffffffffffffffffffffffffff9092169291839163c277f1ac9160248083019286929190829003018186803b15801561091257600080fd5b505afa158015610926573d6000803e3d6000fd5b505050506040513d6000823e601f3d9081017fffffffffffffffffffffffffffffffffffffffffffffffffffffffffffffffe016820160405260c081101561096d57600080fd5b81516020830180519193928301929164010000000081111561098e57600080fd5b820160208101848111156109a157600080fd5b81516401000000008111828201871017156109bb57600080fd5b505092919060200180516401000000008111156109d757600080fd5b820160208101848111156109ea57600080fd5b8151640100000000811182820187101715610a0457600080fd5b5095965060009550610a1d94508893506111c792505050565b50905060008111610a8f57604080517f08c379a000000000000000000000000000000000000000000000000000000000815260206004820152601260248201527f504f505f5245574152445f49535f4e554c4c0000000000000000000000000000604482015290519081900360640190fd5b60008273ffffffffffffffffffffffffffffffffffffffff16639489fa846040518163ffffffff167c010000000000000000000000000000000000000000000000000000000002815260040160206040518083038186803b158015610af357600080fd5b505afa158015610b07573d6000803e3d6000fd5b505050506040513d6020811015610b1d57600080fd5b505160008681526003602052604090208190559050610b3a611543565b73ffffffffffffffffffffffffffffffffffffffff1663be5ddb9984846040518363ffffffff167c0100000000000000000000000000000000000000000000000000000000028152600401808373ffffffffffffffffffffffffffffffffffffffff1673ffffffffffffffffffffffffffffffffffffffff16815260200182815260200192505050602060405180830381600087803b158015610bdc57600080fd5b505af1158015610bf0573d6000803e3d6000fd5b505050506040513d6020811015610c0657600080fd5b50511515610c7557604080517f08c379a000000000000000000000000000000000000000000000000000000000815260206004820152601460248201527f4d494e545f494e464c4154494f4e5f4552524f52000000000000000000000000604482015290519081900360640190fd5b5050600080547fffffffffffffffffffffffffffffffffffffffffffffffffffffffffffffff00169055505050565b6000818152600360205260408120541515610cc85750670de0b6b3a7640000610528565b50600081815260036020526040902054610528565b600154604080517fc277f1ac000000000000000000000000000000000000000000000000000000008152600481018490529051600092839273ffffffffffffffffffffffffffffffffffffffff90911691829163c277f1ac9160248083019287929190829003018186803b158015610d5457600080fd5b505afa158015610d68573d6000803e3d6000fd5b505050506040513d6000823e601f3d9081017fffffffffffffffffffffffffffffffffffffffffffffffffffffffffffffffe016820160405260c0811015610daf57600080fd5b815160208301805191939283019291640100000000811115610dd057600080fd5b82016020810184811115610de357600080fd5b8151640100000000811182820187101715610dfd57600080fd5b50509291906020018051640100000000811115610e1957600080fd5b82016020810184811115610e2c57600080fd5b8151640100000000811182820187101715610e4657600080fd5b5050506060015193965092945050505050915091565b600080600080610e6b85610cdd565b50905060008190508073ffffffffffffffffffffffffffffffffffffffff16639489fa846040518163ffffffff167c010000000000000000000000000000000000000000000000000000000002815260040160206040518083038186803b158015610ed557600080fd5b505afa158015610ee9573d6000803e3d6000fd5b505050506040513d6020811015610eff57600080fd5b5051604080517f18160ddd000000000000000000000000000000000000000000000000000000008152905191965073ffffffffffffffffffffffffffffffffffffffff8316916318160ddd91600480820192602092909190829003018186803b158015610f6b57600080fd5b505afa158015610f7f573d6000803e3d6000fd5b505050506040513d6020811015610f9557600080fd5b505193508415801590610fa757508315155b1515610ffe576040517f08c379a0000000000000000000000000000000000000000000000000000000008152600401808060200182810382526025815260200180611be66025913960400191505060405180910390fd5b620f424061100c86866115ff565b81151561101557fe5b04925050509193909250565b60008060008061103085610cdd565b91505061103b611543565b73ffffffffffffffffffffffffffffffffffffffff1663d410e0c2826040518263ffffffff167c0100000000000000000000000000000000000000000000000000000000028152600401808273ffffffffffffffffffffffffffffffffffffffff1673ffffffffffffffffffffffffffffffffffffffff16815260200191505060206040518083038186803b1580156110d357600080fd5b505afa1580156110e7573d6000803e3d6000fd5b505050506040513d60208110156110fd57600080fd5b50519350611109611543565b73ffffffffffffffffffffffffffffffffffffffff1663ef78d4fd6040518163ffffffff167c010000000000000000000000000000000000000000000000000000000002815260040160206040518083038186803b15801561116a57600080fd5b505afa15801561117e573d6000803e3d6000fd5b505050506040513d602081101561119457600080fd5b505173ffffffffffffffffffffffffffffffffffffffff9091166000908152600460205260409020549395909450915050565b60008060006111d584610ca4565b905060008060006111e587610e5c565b919450925090508383101561125b57604080517f08c379a000000000000000000000000000000000000000000000000000000000815260206004820152601a60248201527f50524943455f4c4f5745525f5448414e5f48574d5f4552524f52000000000000604482015290519081900360640190fd5b600061126688610cdd565b50905060008060006112778b611021565b9250925092506000620151808361128e88876115ff565b0281151561129857fe5b0490506000620151806112c4620f42406112b48d8d038c6115ff565b8115156112bd57fe5b04876115ff565b6301e13380028115156112d357fe5b0490506000670de0b6b3a76400006112eb888a61162c565b69021e19e0c9bab240000061130b866113066127108a611882565b6115ff565b81151561131457fe5b040281151561131f57fe5b049050670de0b6b3a7640000611335888a61162c565b61135261134285886115ff565b69021e19e0c9bab2400000611894565b0281151561135c57fe5b049b506113728761136d8e846118c9565b6118e3565b9c50683635c9adc5dea000008d111561139257683635c9adc5dea000009c505b5050505050505050505050915091565b600154604080517fc277f1ac00000000000000000000000000000000000000000000000000000000815260048101849052905160009273ffffffffffffffffffffffffffffffffffffffff16918391839163c277f1ac9160248083019286929190829003018186803b15801561141757600080fd5b505afa15801561142b573d6000803e3d6000fd5b505050506040513d6000823e601f3d9081017fffffffffffffffffffffffffffffffffffffffffffffffffffffffffffffffe016820160405260c081101561147257600080fd5b81516020830180519193928301929164010000000081111561149357600080fd5b820160208101848111156114a657600080fd5b81516401000000008111828201871017156114c057600080fd5b505092919060200180516401000000008111156114dc57600080fd5b820160208101848111156114ef57600080fd5b815164010000000081118282018710171561150957600080fd5b50959650505073ffffffffffffffffffffffffffffffffffffffff851615935061153c9250505057600192505050610528565b5050919050565b600080600060019054906101000a900473ffffffffffffffffffffffffffffffffffffffff1690508073ffffffffffffffffffffffffffffffffffffffff1663075461726040518163ffffffff167c010000000000000000000000000000000000000000000000000000000002815260040160206040518083038186803b1580156115cd57600080fd5b505afa1580156115e1573d6000803e3d6000fd5b505050506040513d60208110156115f757600080fd5b505191505090565b600082820283158061161b575082848281151561161857fe5b04145b151561162357fe5b90505b92915050565b600073ffffffffffffffffffffffffffffffffffffffff83163182811180159061165d575066038d7ea4c680008110155b15156116b4576040517f08c379a000000000000000000000000000000000000000000000000000000000815260040180806020018281038252602e815260200180611c0b602e913960400191505060405180910390fd5b670b1a2bc2ec5000008382670de0b6b3a7640000028115156116d257fe5b04106116f6578281670de0b6b3a7640000028115156116ed57fe5b04915050611626565b670853a0d2313c00008382670de0b6b3a76400000281151561171457fe5b0410611740576103e88382670de0b6b3a76400000281151561173257fe5b04610334028115156116ed57fe5b67058d15e1762800008382670de0b6b3a76400000281151561175e57fe5b0410611789576103e88382670de0b6b3a76400000281151561177c57fe5b0460c9028115156116ed57fe5b6702c68af0bb1400008382670de0b6b3a7640000028115156117a757fe5b04106117d2576103e88382670de0b6b3a7640000028115156117c557fe5b04601d028115156116ed57fe5b67016345785d8a00008382670de0b6b3a7640000028115156117f057fe5b041061181b576103e88382670de0b6b3a76400000281151561180e57fe5b046005028115156116ed57fe5b604080517f08c379a000000000000000000000000000000000000000000000000000000000815260206004820152601e60248201527f4554485f42454c4f575f31305f50455243454e545f41554d5f4552524f520000604482015290519081900360640190fd5b60008282111561188e57fe5b50900390565b600080821161189f57fe5b600082848115156118ac57fe5b04905082848115156118ba57fe5b06818402018414151561162357fe5b600082820183811080159061161b57508281101561162357fe5b600080600060019054906101000a900473ffffffffffffffffffffffffffffffffffffffff1673ffffffffffffffffffffffffffffffffffffffff166370a082318573ffffffffffffffffffffffffffffffffffffffff16638da5cb5b6040518163ffffffff167c010000000000000000000000000000000000000000000000000000000002815260040160206040518083038186803b15801561198657600080fd5b505afa15801561199a573d6000803e3d6000fd5b505050506040513d60208110156119b057600080fd5b5051604080517c010000000000000000000000000000000000000000000000000000000063ffffffff851602815273ffffffffffffffffffffffffffffffffffffffff9092166004830152516024808301926020929190829003018186803b158015611a1b57600080fd5b505afa158015611a2f573d6000803e3d6000fd5b505050506040513d6020811015611a4557600080fd5b505160008054604080517f18160ddd0000000000000000000000000000000000000000000000000000000081529051939450919261010090910473ffffffffffffffffffffffffffffffffffffffff16916318160ddd916004808301926020929190829003018186803b158015611abb57600080fd5b505afa158015611acf573d6000803e3d6000fd5b505050506040513d6020811015611ae557600080fd5b505190506611c37937e0800081678ac7230489e800008402811515611b0657fe5b0410611b16578392505050611626565b660e35fa931a00008183678ac7230489e8000002811515611b3357fe5b0410611b4c576103e861033485025b0492505050611626565b660aa87bee5380008183678ac7230489e8000002811515611b6957fe5b0410611b7b576103e860c98502611b42565b66071afd498d00008183678ac7230489e8000002811515611b9857fe5b0410611baa576103e8601d8502611b42565b66038d7ea4c680008183678ac7230489e8000002811515611bc757fe5b0410611bd9576103e860058502611b42565b6103e860028502611b4256fe504f4f4c5f50524943455f4f525f544f54414c5f535550504c595f4e554c4c5f4552524f524554485f42414c414e43455f4849474845525f5448414e5f41554d5f4f525f544f4f5f534d414c4c5f4552524f52a165627a7a72305820a8a57bbf2542aa0fdb8c2fe9fd7e4f237708ae89d64ef06318a533fd087fc85c0029",
				"opcodes": "PUSH1 0x80 PUSH1 0x40 MSTORE PUSH1 0x0 DUP1 SLOAD PUSH1 0xFF NOT AND SWAP1 SSTORE CALLVALUE DUP1 ISZERO PUSH2 0x1A JUMPI PUSH1 0x0 DUP1 REVERT JUMPDEST POP PUSH1 0x40 MLOAD PUSH1 0x60 DUP1 PUSH2 0x1D03 DUP4 CODECOPY DUP2 ADD DUP1 PUSH1 0x40 MSTORE PUSH1 0x60 DUP2 LT ISZERO PUSH2 0x3A JUMPI PUSH1 0x0 DUP1 REVERT JUMPDEST POP DUP1 MLOAD PUSH1 0x20 DUP3 ADD MLOAD PUSH1 0x40 SWAP1 SWAP3 ADD MLOAD PUSH1 0x0 DUP1 SLOAD PUSH1 0x1 PUSH1 0xA0 PUSH1 0x2 EXP SUB SWAP4 DUP5 AND PUSH2 0x100 MUL PUSH2 0x100 PUSH1 0xA8 PUSH1 0x2 EXP SUB NOT SWAP1 SWAP2 AND OR SWAP1 SSTORE PUSH1 0x2 DUP1 SLOAD SWAP4 DUP4 AND PUSH1 0x1 PUSH1 0xA0 PUSH1 0x2 EXP SUB NOT SWAP5 DUP6 AND OR SWAP1 SSTORE PUSH1 0x1 DUP1 SLOAD SWAP3 SWAP1 SWAP2 AND SWAP2 SWAP1 SWAP3 AND OR SWAP1 SSTORE PUSH2 0x1C64 DUP1 PUSH2 0x9F PUSH1 0x0 CODECOPY PUSH1 0x0 RETURN INVALID PUSH1 0x80 PUSH1 0x40 MSTORE CALLVALUE DUP1 ISZERO PUSH2 0x10 JUMPI PUSH1 0x0 DUP1 REVERT JUMPDEST POP PUSH1 0x4 CALLDATASIZE LT PUSH2 0x11D JUMPI PUSH1 0x0 CALLDATALOAD PUSH29 0x100000000000000000000000000000000000000000000000000000000 SWAP1 DIV DUP1 PUSH4 0x9AF94F30 GT PUSH2 0xB4 JUMPI DUP1 PUSH4 0xBB76BD29 GT PUSH2 0x83 JUMPI DUP1 PUSH4 0xBB76BD29 EQ PUSH2 0x339 JUMPI DUP1 PUSH4 0xD21C87AD EQ PUSH2 0x341 JUMPI DUP1 PUSH4 0xD418634A EQ PUSH2 0x3C0 JUMPI DUP1 PUSH4 0xDC5D2799 EQ PUSH2 0x3DD JUMPI PUSH2 0x11D JUMP JUMPDEST DUP1 PUSH4 0x9AF94F30 EQ PUSH2 0x2AE JUMPI DUP1 PUSH4 0xA6C9C443 EQ PUSH2 0x2CB JUMPI DUP1 PUSH4 0xA91EE0DC EQ PUSH2 0x2D3 JUMPI DUP1 PUSH4 0xB516E6E1 EQ PUSH2 0x306 JUMPI PUSH2 0x11D JUMP JUMPDEST DUP1 PUSH4 0x427FDC0C GT PUSH2 0xF0 JUMPI DUP1 PUSH4 0x427FDC0C EQ PUSH2 0x20D JUMPI DUP1 PUSH4 0x46A62EAF EQ PUSH2 0x22A JUMPI DUP1 PUSH4 0x4D749E43 EQ PUSH2 0x247 JUMPI DUP1 PUSH4 0x82AFD23B EQ PUSH2 0x27D JUMPI PUSH2 0x11D JUMP JUMPDEST DUP1 PUSH4 0x5752047 EQ PUSH2 0x122 JUMPI DUP1 PUSH4 0x249D9123 EQ PUSH2 0x15D JUMPI DUP1 PUSH4 0x360DAFA0 EQ PUSH2 0x18C JUMPI DUP1 PUSH4 0x3EDD80C3 EQ PUSH2 0x1DC JUMPI JUMPDEST PUSH1 0x0 DUP1 REVERT JUMPDEST PUSH2 0x15B PUSH1 0x4 DUP1 CALLDATASIZE SUB PUSH1 0x40 DUP2 LT ISZERO PUSH2 0x138 JUMPI PUSH1 0x0 DUP1 REVERT JUMPDEST POP PUSH20 0xFFFFFFFFFFFFFFFFFFFFFFFFFFFFFFFFFFFFFFFF DUP2 CALLDATALOAD AND SWAP1 PUSH1 0x20 ADD CALLDATALOAD PUSH2 0x3FA JUMP JUMPDEST STOP JUMPDEST PUSH2 0x17A PUSH1 0x4 DUP1 CALLDATASIZE SUB PUSH1 0x20 DUP2 LT ISZERO PUSH2 0x173 JUMPI PUSH1 0x0 DUP1 REVERT JUMPDEST POP CALLDATALOAD PUSH2 0x51A JUMP JUMPDEST PUSH1 0x40 DUP1 MLOAD SWAP2 DUP3 MSTORE MLOAD SWAP1 DUP2 SWAP1 SUB PUSH1 0x20 ADD SWAP1 RETURN JUMPDEST PUSH2 0x1A9 PUSH1 0x4 DUP1 CALLDATASIZE SUB PUSH1 0x20 DUP2 LT ISZERO PUSH2 0x1A2 JUMPI PUSH1 0x0 DUP1 REVERT JUMPDEST POP CALLDATALOAD PUSH2 0x52D JUMP JUMPDEST PUSH1 0x40 DUP1 MLOAD PUSH20 0xFFFFFFFFFFFFFFFFFFFFFFFFFFFFFFFFFFFFFFFF SWAP4 DUP5 AND DUP2 MSTORE SWAP2 SWAP1 SWAP3 AND PUSH1 0x20 DUP3 ADD MSTORE DUP2 MLOAD SWAP1 DUP2 SWAP1 SUB SWAP1 SWAP2 ADD SWAP1 RETURN JUMPDEST PUSH2 0x1E4 PUSH2 0x542 JUMP JUMPDEST PUSH1 0x40 DUP1 MLOAD PUSH20 0xFFFFFFFFFFFFFFFFFFFFFFFFFFFFFFFFFFFFFFFF SWAP1 SWAP3 AND DUP3 MSTORE MLOAD SWAP1 DUP2 SWAP1 SUB PUSH1 0x20 ADD SWAP1 RETURN JUMPDEST PUSH2 0x17A PUSH1 0x4 DUP1 CALLDATASIZE SUB PUSH1 0x20 DUP2 LT ISZERO PUSH2 0x223 JUMPI PUSH1 0x0 DUP1 REVERT JUMPDEST POP CALLDATALOAD PUSH2 0x55E JUMP JUMPDEST PUSH2 0x17A PUSH1 0x4 DUP1 CALLDATASIZE SUB PUSH1 0x20 DUP2 LT ISZERO PUSH2 0x240 JUMPI PUSH1 0x0 DUP1 REVERT JUMPDEST POP CALLDATALOAD PUSH2 0x571 JUMP JUMPDEST PUSH2 0x264 PUSH1 0x4 DUP1 CALLDATASIZE SUB PUSH1 0x20 DUP2 LT ISZERO PUSH2 0x25D JUMPI PUSH1 0x0 DUP1 REVERT JUMPDEST POP CALLDATALOAD PUSH2 0x586 JUMP JUMPDEST PUSH1 0x40 DUP1 MLOAD SWAP3 DUP4 MSTORE PUSH1 0x20 DUP4 ADD SWAP2 SWAP1 SWAP2 MSTORE DUP1 MLOAD SWAP2 DUP3 SWAP1 SUB ADD SWAP1 RETURN JUMPDEST PUSH2 0x29A PUSH1 0x4 DUP1 CALLDATASIZE SUB PUSH1 0x20 DUP2 LT ISZERO PUSH2 0x293 JUMPI PUSH1 0x0 DUP1 REVERT JUMPDEST POP CALLDATALOAD PUSH2 0x592 JUMP JUMPDEST PUSH1 0x40 DUP1 MLOAD SWAP2 ISZERO ISZERO DUP3 MSTORE MLOAD SWAP1 DUP2 SWAP1 SUB PUSH1 0x20 ADD SWAP1 RETURN JUMPDEST PUSH2 0x264 PUSH1 0x4 DUP1 CALLDATASIZE SUB PUSH1 0x20 DUP2 LT ISZERO PUSH2 0x2C4 JUMPI PUSH1 0x0 DUP1 REVERT JUMPDEST POP CALLDATALOAD PUSH2 0x59D JUMP JUMPDEST PUSH2 0x1E4 PUSH2 0x5B4 JUMP JUMPDEST PUSH2 0x15B PUSH1 0x4 DUP1 CALLDATASIZE SUB PUSH1 0x20 DUP2 LT ISZERO PUSH2 0x2E9 JUMPI PUSH1 0x0 DUP1 REVERT JUMPDEST POP CALLDATALOAD PUSH20 0xFFFFFFFFFFFFFFFFFFFFFFFFFFFFFFFFFFFFFFFF AND PUSH2 0x5D5 JUMP JUMPDEST PUSH2 0x15B PUSH1 0x4 DUP1 CALLDATASIZE SUB PUSH1 0x20 DUP2 LT ISZERO PUSH2 0x31C JUMPI PUSH1 0x0 DUP1 REVERT JUMPDEST POP CALLDATALOAD PUSH20 0xFFFFFFFFFFFFFFFFFFFFFFFFFFFFFFFFFFFFFFFF AND PUSH2 0x6A2 JUMP JUMPDEST PUSH2 0x1E4 PUSH2 0x76F JUMP JUMPDEST PUSH2 0x35E PUSH1 0x4 DUP1 CALLDATASIZE SUB PUSH1 0x20 DUP2 LT ISZERO PUSH2 0x357 JUMPI PUSH1 0x0 DUP1 REVERT JUMPDEST POP CALLDATALOAD PUSH2 0x78B JUMP JUMPDEST PUSH1 0x40 DUP1 MLOAD SWAP10 ISZERO ISZERO DUP11 MSTORE PUSH20 0xFFFFFFFFFFFFFFFFFFFFFFFFFFFFFFFFFFFFFFFF SWAP9 DUP10 AND PUSH1 0x20 DUP12 ADD MSTORE SWAP7 SWAP1 SWAP8 AND DUP9 DUP8 ADD MSTORE PUSH1 0x60 DUP9 ADD SWAP5 SWAP1 SWAP5 MSTORE PUSH1 0x80 DUP8 ADD SWAP3 SWAP1 SWAP3 MSTORE PUSH1 0xA0 DUP7 ADD MSTORE PUSH1 0xC0 DUP6 ADD MSTORE PUSH1 0xE0 DUP5 ADD MSTORE PUSH2 0x100 DUP4 ADD SWAP2 SWAP1 SWAP2 MSTORE MLOAD SWAP1 DUP2 SWAP1 SUB PUSH2 0x120 ADD SWAP1 RETURN JUMPDEST PUSH2 0x17A PUSH1 0x4 DUP1 CALLDATASIZE SUB PUSH1 0x20 DUP2 LT ISZERO PUSH2 0x3D6 JUMPI PUSH1 0x0 DUP1 REVERT JUMPDEST POP CALLDATALOAD PUSH2 0x7EC JUMP JUMPDEST PUSH2 0x15B PUSH1 0x4 DUP1 CALLDATASIZE SUB PUSH1 0x20 DUP2 LT ISZERO PUSH2 0x3F3 JUMPI PUSH1 0x0 DUP1 REVERT JUMPDEST POP CALLDATALOAD PUSH2 0x802 JUMP JUMPDEST PUSH1 0x2 SLOAD PUSH20 0xFFFFFFFFFFFFFFFFFFFFFFFFFFFFFFFFFFFFFFFF AND CALLER EQ PUSH2 0x480 JUMPI PUSH1 0x40 DUP1 MLOAD PUSH32 0x8C379A000000000000000000000000000000000000000000000000000000000 DUP2 MSTORE PUSH1 0x20 PUSH1 0x4 DUP3 ADD MSTORE PUSH1 0x12 PUSH1 0x24 DUP3 ADD MSTORE PUSH32 0x4F4E4C595F5249474F424C4F434B5F44414F0000000000000000000000000000 PUSH1 0x44 DUP3 ADD MSTORE SWAP1 MLOAD SWAP1 DUP2 SWAP1 SUB PUSH1 0x64 ADD SWAP1 REVERT JUMPDEST PUSH2 0x2710 DUP2 GT ISZERO PUSH2 0x4F1 JUMPI PUSH1 0x40 DUP1 MLOAD PUSH32 0x8C379A000000000000000000000000000000000000000000000000000000000 DUP2 MSTORE PUSH1 0x20 PUSH1 0x4 DUP3 ADD MSTORE PUSH1 0x17 PUSH1 0x24 DUP3 ADD MSTORE PUSH32 0x524154494F5F4249474745525F5448414E5F3130303030000000000000000000 PUSH1 0x44 DUP3 ADD MSTORE SWAP1 MLOAD SWAP1 DUP2 SWAP1 SUB PUSH1 0x64 ADD SWAP1 REVERT JUMPDEST PUSH20 0xFFFFFFFFFFFFFFFFFFFFFFFFFFFFFFFFFFFFFFFF SWAP1 SWAP2 AND PUSH1 0x0 SWAP1 DUP2 MSTORE PUSH1 0x4 PUSH1 0x20 MSTORE PUSH1 0x40 SWAP1 KECCAK256 SSTORE JUMP JUMPDEST PUSH1 0x0 PUSH2 0x525 DUP3 PUSH2 0xCA4 JUMP JUMPDEST SWAP1 POP JUMPDEST SWAP2 SWAP1 POP JUMP JUMPDEST PUSH1 0x0 DUP1 PUSH2 0x539 DUP4 PUSH2 0xCDD JUMP JUMPDEST SWAP2 POP SWAP2 POP SWAP2 POP SWAP2 JUMP JUMPDEST PUSH1 0x2 SLOAD PUSH20 0xFFFFFFFFFFFFFFFFFFFFFFFFFFFFFFFFFFFFFFFF AND DUP2 JUMP JUMPDEST PUSH1 0x0 PUSH2 0x569 DUP3 PUSH2 0xE5C JUMP JUMPDEST SWAP5 SWAP4 POP POP POP POP JUMP JUMPDEST PUSH1 0x0 DUP1 PUSH2 0x57D DUP4 PUSH2 0x1021 JUMP JUMPDEST SWAP6 SWAP5 POP POP POP POP POP JUMP JUMPDEST PUSH1 0x0 DUP1 PUSH2 0x539 DUP4 PUSH2 0x11C7 JUMP JUMPDEST PUSH1 0x0 PUSH2 0x525 DUP3 PUSH2 0x13A2 JUMP JUMPDEST PUSH1 0x0 DUP1 PUSH2 0x5A9 DUP4 PUSH2 0xE5C JUMP JUMPDEST POP SWAP1 SWAP5 SWAP1 SWAP4 POP SWAP2 POP POP JUMP JUMPDEST PUSH1 0x0 SLOAD PUSH2 0x100 SWAP1 DIV PUSH20 0xFFFFFFFFFFFFFFFFFFFFFFFFFFFFFFFFFFFFFFFF AND DUP2 JUMP JUMPDEST PUSH1 0x2 SLOAD PUSH20 0xFFFFFFFFFFFFFFFFFFFFFFFFFFFFFFFFFFFFFFFF AND CALLER EQ PUSH2 0x65B JUMPI PUSH1 0x40 DUP1 MLOAD PUSH32 0x8C379A000000000000000000000000000000000000000000000000000000000 DUP2 MSTORE PUSH1 0x20 PUSH1 0x4 DUP3 ADD MSTORE PUSH1 0x12 PUSH1 0x24 DUP3 ADD MSTORE PUSH32 0x4F4E4C595F5249474F424C4F434B5F44414F0000000000000000000000000000 PUSH1 0x44 DUP3 ADD MSTORE SWAP1 MLOAD SWAP1 DUP2 SWAP1 SUB PUSH1 0x64 ADD SWAP1 REVERT JUMPDEST PUSH1 0x1 DUP1 SLOAD PUSH32 0xFFFFFFFFFFFFFFFFFFFFFFFF0000000000000000000000000000000000000000 AND PUSH20 0xFFFFFFFFFFFFFFFFFFFFFFFFFFFFFFFFFFFFFFFF SWAP3 SWAP1 SWAP3 AND SWAP2 SWAP1 SWAP2 OR SWAP1 SSTORE JUMP JUMPDEST PUSH1 0x2 SLOAD PUSH20 0xFFFFFFFFFFFFFFFFFFFFFFFFFFFFFFFFFFFFFFFF AND CALLER EQ PUSH2 0x728 JUMPI PUSH1 0x40 DUP1 MLOAD PUSH32 0x8C379A000000000000000000000000000000000000000000000000000000000 DUP2 MSTORE PUSH1 0x20 PUSH1 0x4 DUP3 ADD MSTORE PUSH1 0x12 PUSH1 0x24 DUP3 ADD MSTORE PUSH32 0x4F4E4C595F5249474F424C4F434B5F44414F0000000000000000000000000000 PUSH1 0x44 DUP3 ADD MSTORE SWAP1 MLOAD SWAP1 DUP2 SWAP1 SUB PUSH1 0x64 ADD SWAP1 REVERT JUMPDEST PUSH1 0x2 DUP1 SLOAD PUSH32 0xFFFFFFFFFFFFFFFFFFFFFFFF0000000000000000000000000000000000000000 AND PUSH20 0xFFFFFFFFFFFFFFFFFFFFFFFFFFFFFFFFFFFFFFFF SWAP3 SWAP1 SWAP3 AND SWAP2 SWAP1 SWAP2 OR SWAP1 SSTORE JUMP JUMPDEST PUSH1 0x1 SLOAD PUSH20 0xFFFFFFFFFFFFFFFFFFFFFFFFFFFFFFFFFFFFFFFF AND DUP2 JUMP JUMPDEST PUSH1 0x0 DUP1 PUSH1 0x0 DUP1 PUSH1 0x0 DUP1 PUSH1 0x0 DUP1 PUSH1 0x0 PUSH2 0x7A2 DUP11 PUSH2 0x13A2 JUMP JUMPDEST SWAP9 POP PUSH2 0x7AD DUP11 PUSH2 0xCDD JUMP JUMPDEST SWAP1 SWAP9 POP SWAP7 POP PUSH2 0x7BB DUP11 PUSH2 0xE5C JUMP JUMPDEST SWAP2 SWAP8 POP SWAP6 POP SWAP4 POP PUSH2 0x7CB DUP11 PUSH2 0x1021 JUMP JUMPDEST SWAP2 SWAP5 POP SWAP1 SWAP3 POP PUSH2 0x7DC SWAP1 POP DUP11 PUSH2 0x11C7 JUMP JUMPDEST POP SWAP1 POP SWAP2 SWAP4 SWAP6 SWAP8 SWAP10 SWAP1 SWAP3 SWAP5 SWAP7 SWAP9 POP JUMP JUMPDEST PUSH1 0x0 DUP1 PUSH2 0x7F8 DUP4 PUSH2 0x1021 JUMP JUMPDEST POP SWAP1 SWAP5 SWAP4 POP POP POP POP JUMP JUMPDEST PUSH1 0x0 SLOAD PUSH1 0xFF AND ISZERO PUSH2 0x874 JUMPI PUSH1 0x40 DUP1 MLOAD PUSH32 0x8C379A000000000000000000000000000000000000000000000000000000000 DUP2 MSTORE PUSH1 0x20 PUSH1 0x4 DUP3 ADD MSTORE PUSH1 0x12 PUSH1 0x24 DUP3 ADD MSTORE PUSH32 0x5245454E5452414E43595F494C4C4547414C0000000000000000000000000000 PUSH1 0x44 DUP3 ADD MSTORE SWAP1 MLOAD SWAP1 DUP2 SWAP1 SUB PUSH1 0x64 ADD SWAP1 REVERT JUMPDEST PUSH1 0x0 DUP1 SLOAD PUSH32 0xFFFFFFFFFFFFFFFFFFFFFFFFFFFFFFFFFFFFFFFFFFFFFFFFFFFFFFFFFFFFFF00 AND PUSH1 0x1 SWAP1 DUP2 OR DUP3 SSTORE SLOAD PUSH1 0x40 DUP1 MLOAD PUSH32 0xC277F1AC00000000000000000000000000000000000000000000000000000000 DUP2 MSTORE PUSH1 0x4 DUP2 ADD DUP6 SWAP1 MSTORE SWAP1 MLOAD PUSH20 0xFFFFFFFFFFFFFFFFFFFFFFFFFFFFFFFFFFFFFFFF SWAP1 SWAP3 AND SWAP3 SWAP2 DUP4 SWAP2 PUSH4 0xC277F1AC SWAP2 PUSH1 0x24 DUP1 DUP4 ADD SWAP3 DUP7 SWAP3 SWAP2 SWAP1 DUP3 SWAP1 SUB ADD DUP2 DUP7 DUP1 EXTCODESIZE ISZERO DUP1 ISZERO PUSH2 0x912 JUMPI PUSH1 0x0 DUP1 REVERT JUMPDEST POP GAS STATICCALL ISZERO DUP1 ISZERO PUSH2 0x926 JUMPI RETURNDATASIZE PUSH1 0x0 DUP1 RETURNDATACOPY RETURNDATASIZE PUSH1 0x0 REVERT JUMPDEST POP POP POP POP PUSH1 0x40 MLOAD RETURNDATASIZE PUSH1 0x0 DUP3 RETURNDATACOPY PUSH1 0x1F RETURNDATASIZE SWAP1 DUP2 ADD PUSH32 0xFFFFFFFFFFFFFFFFFFFFFFFFFFFFFFFFFFFFFFFFFFFFFFFFFFFFFFFFFFFFFFE0 AND DUP3 ADD PUSH1 0x40 MSTORE PUSH1 0xC0 DUP2 LT ISZERO PUSH2 0x96D JUMPI PUSH1 0x0 DUP1 REVERT JUMPDEST DUP2 MLOAD PUSH1 0x20 DUP4 ADD DUP1 MLOAD SWAP2 SWAP4 SWAP3 DUP4 ADD SWAP3 SWAP2 PUSH5 0x100000000 DUP2 GT ISZERO PUSH2 0x98E JUMPI PUSH1 0x0 DUP1 REVERT JUMPDEST DUP3 ADD PUSH1 0x20 DUP2 ADD DUP5 DUP2 GT ISZERO PUSH2 0x9A1 JUMPI PUSH1 0x0 DUP1 REVERT JUMPDEST DUP2 MLOAD PUSH5 0x100000000 DUP2 GT DUP3 DUP3 ADD DUP8 LT OR ISZERO PUSH2 0x9BB JUMPI PUSH1 0x0 DUP1 REVERT JUMPDEST POP POP SWAP3 SWAP2 SWAP1 PUSH1 0x20 ADD DUP1 MLOAD PUSH5 0x100000000 DUP2 GT ISZERO PUSH2 0x9D7 JUMPI PUSH1 0x0 DUP1 REVERT JUMPDEST DUP3 ADD PUSH1 0x20 DUP2 ADD DUP5 DUP2 GT ISZERO PUSH2 0x9EA JUMPI PUSH1 0x0 DUP1 REVERT JUMPDEST DUP2 MLOAD PUSH5 0x100000000 DUP2 GT DUP3 DUP3 ADD DUP8 LT OR ISZERO PUSH2 0xA04 JUMPI PUSH1 0x0 DUP1 REVERT JUMPDEST POP SWAP6 SWAP7 POP PUSH1 0x0 SWAP6 POP PUSH2 0xA1D SWAP5 POP DUP9 SWAP4 POP PUSH2 0x11C7 SWAP3 POP POP POP JUMP JUMPDEST POP SWAP1 POP PUSH1 0x0 DUP2 GT PUSH2 0xA8F JUMPI PUSH1 0x40 DUP1 MLOAD PUSH32 0x8C379A000000000000000000000000000000000000000000000000000000000 DUP2 MSTORE PUSH1 0x20 PUSH1 0x4 DUP3 ADD MSTORE PUSH1 0x12 PUSH1 0x24 DUP3 ADD MSTORE PUSH32 0x504F505F5245574152445F49535F4E554C4C0000000000000000000000000000 PUSH1 0x44 DUP3 ADD MSTORE SWAP1 MLOAD SWAP1 DUP2 SWAP1 SUB PUSH1 0x64 ADD SWAP1 REVERT JUMPDEST PUSH1 0x0 DUP3 PUSH20 0xFFFFFFFFFFFFFFFFFFFFFFFFFFFFFFFFFFFFFFFF AND PUSH4 0x9489FA84 PUSH1 0x40 MLOAD DUP2 PUSH4 0xFFFFFFFF AND PUSH29 0x100000000000000000000000000000000000000000000000000000000 MUL DUP2 MSTORE PUSH1 0x4 ADD PUSH1 0x20 PUSH1 0x40 MLOAD DUP1 DUP4 SUB DUP2 DUP7 DUP1 EXTCODESIZE ISZERO DUP1 ISZERO PUSH2 0xAF3 JUMPI PUSH1 0x0 DUP1 REVERT JUMPDEST POP GAS STATICCALL ISZERO DUP1 ISZERO PUSH2 0xB07 JUMPI RETURNDATASIZE PUSH1 0x0 DUP1 RETURNDATACOPY RETURNDATASIZE PUSH1 0x0 REVERT JUMPDEST POP POP POP POP PUSH1 0x40 MLOAD RETURNDATASIZE PUSH1 0x20 DUP2 LT ISZERO PUSH2 0xB1D JUMPI PUSH1 0x0 DUP1 REVERT JUMPDEST POP MLOAD PUSH1 0x0 DUP7 DUP2 MSTORE PUSH1 0x3 PUSH1 0x20 MSTORE PUSH1 0x40 SWAP1 KECCAK256 DUP2 SWAP1 SSTORE SWAP1 POP PUSH2 0xB3A PUSH2 0x1543 JUMP JUMPDEST PUSH20 0xFFFFFFFFFFFFFFFFFFFFFFFFFFFFFFFFFFFFFFFF AND PUSH4 0xBE5DDB99 DUP5 DUP5 PUSH1 0x40 MLOAD DUP4 PUSH4 0xFFFFFFFF AND PUSH29 0x100000000000000000000000000000000000000000000000000000000 MUL DUP2 MSTORE PUSH1 0x4 ADD DUP1 DUP4 PUSH20 0xFFFFFFFFFFFFFFFFFFFFFFFFFFFFFFFFFFFFFFFF AND PUSH20 0xFFFFFFFFFFFFFFFFFFFFFFFFFFFFFFFFFFFFFFFF AND DUP2 MSTORE PUSH1 0x20 ADD DUP3 DUP2 MSTORE PUSH1 0x20 ADD SWAP3 POP POP POP PUSH1 0x20 PUSH1 0x40 MLOAD DUP1 DUP4 SUB DUP2 PUSH1 0x0 DUP8 DUP1 EXTCODESIZE ISZERO DUP1 ISZERO PUSH2 0xBDC JUMPI PUSH1 0x0 DUP1 REVERT JUMPDEST POP GAS CALL ISZERO DUP1 ISZERO PUSH2 0xBF0 JUMPI RETURNDATASIZE PUSH1 0x0 DUP1 RETURNDATACOPY RETURNDATASIZE PUSH1 0x0 REVERT JUMPDEST POP POP POP POP PUSH1 0x40 MLOAD RETURNDATASIZE PUSH1 0x20 DUP2 LT ISZERO PUSH2 0xC06 JUMPI PUSH1 0x0 DUP1 REVERT JUMPDEST POP MLOAD ISZERO ISZERO PUSH2 0xC75 JUMPI PUSH1 0x40 DUP1 MLOAD PUSH32 0x8C379A000000000000000000000000000000000000000000000000000000000 DUP2 MSTORE PUSH1 0x20 PUSH1 0x4 DUP3 ADD MSTORE PUSH1 0x14 PUSH1 0x24 DUP3 ADD MSTORE PUSH32 0x4D494E545F494E464C4154494F4E5F4552524F52000000000000000000000000 PUSH1 0x44 DUP3 ADD MSTORE SWAP1 MLOAD SWAP1 DUP2 SWAP1 SUB PUSH1 0x64 ADD SWAP1 REVERT JUMPDEST POP POP PUSH1 0x0 DUP1 SLOAD PUSH32 0xFFFFFFFFFFFFFFFFFFFFFFFFFFFFFFFFFFFFFFFFFFFFFFFFFFFFFFFFFFFFFF00 AND SWAP1 SSTORE POP POP POP JUMP JUMPDEST PUSH1 0x0 DUP2 DUP2 MSTORE PUSH1 0x3 PUSH1 0x20 MSTORE PUSH1 0x40 DUP2 KECCAK256 SLOAD ISZERO ISZERO PUSH2 0xCC8 JUMPI POP PUSH8 0xDE0B6B3A7640000 PUSH2 0x528 JUMP JUMPDEST POP PUSH1 0x0 DUP2 DUP2 MSTORE PUSH1 0x3 PUSH1 0x20 MSTORE PUSH1 0x40 SWAP1 KECCAK256 SLOAD PUSH2 0x528 JUMP JUMPDEST PUSH1 0x1 SLOAD PUSH1 0x40 DUP1 MLOAD PUSH32 0xC277F1AC00000000000000000000000000000000000000000000000000000000 DUP2 MSTORE PUSH1 0x4 DUP2 ADD DUP5 SWAP1 MSTORE SWAP1 MLOAD PUSH1 0x0 SWAP3 DUP4 SWAP3 PUSH20 0xFFFFFFFFFFFFFFFFFFFFFFFFFFFFFFFFFFFFFFFF SWAP1 SWAP2 AND SWAP2 DUP3 SWAP2 PUSH4 0xC277F1AC SWAP2 PUSH1 0x24 DUP1 DUP4 ADD SWAP3 DUP8 SWAP3 SWAP2 SWAP1 DUP3 SWAP1 SUB ADD DUP2 DUP7 DUP1 EXTCODESIZE ISZERO DUP1 ISZERO PUSH2 0xD54 JUMPI PUSH1 0x0 DUP1 REVERT JUMPDEST POP GAS STATICCALL ISZERO DUP1 ISZERO PUSH2 0xD68 JUMPI RETURNDATASIZE PUSH1 0x0 DUP1 RETURNDATACOPY RETURNDATASIZE PUSH1 0x0 REVERT JUMPDEST POP POP POP POP PUSH1 0x40 MLOAD RETURNDATASIZE PUSH1 0x0 DUP3 RETURNDATACOPY PUSH1 0x1F RETURNDATASIZE SWAP1 DUP2 ADD PUSH32 0xFFFFFFFFFFFFFFFFFFFFFFFFFFFFFFFFFFFFFFFFFFFFFFFFFFFFFFFFFFFFFFE0 AND DUP3 ADD PUSH1 0x40 MSTORE PUSH1 0xC0 DUP2 LT ISZERO PUSH2 0xDAF JUMPI PUSH1 0x0 DUP1 REVERT JUMPDEST DUP2 MLOAD PUSH1 0x20 DUP4 ADD DUP1 MLOAD SWAP2 SWAP4 SWAP3 DUP4 ADD SWAP3 SWAP2 PUSH5 0x100000000 DUP2 GT ISZERO PUSH2 0xDD0 JUMPI PUSH1 0x0 DUP1 REVERT JUMPDEST DUP3 ADD PUSH1 0x20 DUP2 ADD DUP5 DUP2 GT ISZERO PUSH2 0xDE3 JUMPI PUSH1 0x0 DUP1 REVERT JUMPDEST DUP2 MLOAD PUSH5 0x100000000 DUP2 GT DUP3 DUP3 ADD DUP8 LT OR ISZERO PUSH2 0xDFD JUMPI PUSH1 0x0 DUP1 REVERT JUMPDEST POP POP SWAP3 SWAP2 SWAP1 PUSH1 0x20 ADD DUP1 MLOAD PUSH5 0x100000000 DUP2 GT ISZERO PUSH2 0xE19 JUMPI PUSH1 0x0 DUP1 REVERT JUMPDEST DUP3 ADD PUSH1 0x20 DUP2 ADD DUP5 DUP2 GT ISZERO PUSH2 0xE2C JUMPI PUSH1 0x0 DUP1 REVERT JUMPDEST DUP2 MLOAD PUSH5 0x100000000 DUP2 GT DUP3 DUP3 ADD DUP8 LT OR ISZERO PUSH2 0xE46 JUMPI PUSH1 0x0 DUP1 REVERT JUMPDEST POP POP POP PUSH1 0x60 ADD MLOAD SWAP4 SWAP7 POP SWAP3 SWAP5 POP POP POP POP POP SWAP2 POP SWAP2 JUMP JUMPDEST PUSH1 0x0 DUP1 PUSH1 0x0 DUP1 PUSH2 0xE6B DUP6 PUSH2 0xCDD JUMP JUMPDEST POP SWAP1 POP PUSH1 0x0 DUP2 SWAP1 POP DUP1 PUSH20 0xFFFFFFFFFFFFFFFFFFFFFFFFFFFFFFFFFFFFFFFF AND PUSH4 0x9489FA84 PUSH1 0x40 MLOAD DUP2 PUSH4 0xFFFFFFFF AND PUSH29 0x100000000000000000000000000000000000000000000000000000000 MUL DUP2 MSTORE PUSH1 0x4 ADD PUSH1 0x20 PUSH1 0x40 MLOAD DUP1 DUP4 SUB DUP2 DUP7 DUP1 EXTCODESIZE ISZERO DUP1 ISZERO PUSH2 0xED5 JUMPI PUSH1 0x0 DUP1 REVERT JUMPDEST POP GAS STATICCALL ISZERO DUP1 ISZERO PUSH2 0xEE9 JUMPI RETURNDATASIZE PUSH1 0x0 DUP1 RETURNDATACOPY RETURNDATASIZE PUSH1 0x0 REVERT JUMPDEST POP POP POP POP PUSH1 0x40 MLOAD RETURNDATASIZE PUSH1 0x20 DUP2 LT ISZERO PUSH2 0xEFF JUMPI PUSH1 0x0 DUP1 REVERT JUMPDEST POP MLOAD PUSH1 0x40 DUP1 MLOAD PUSH32 0x18160DDD00000000000000000000000000000000000000000000000000000000 DUP2 MSTORE SWAP1 MLOAD SWAP2 SWAP7 POP PUSH20 0xFFFFFFFFFFFFFFFFFFFFFFFFFFFFFFFFFFFFFFFF DUP4 AND SWAP2 PUSH4 0x18160DDD SWAP2 PUSH1 0x4 DUP1 DUP3 ADD SWAP3 PUSH1 0x20 SWAP3 SWAP1 SWAP2 SWAP1 DUP3 SWAP1 SUB ADD DUP2 DUP7 DUP1 EXTCODESIZE ISZERO DUP1 ISZERO PUSH2 0xF6B JUMPI PUSH1 0x0 DUP1 REVERT JUMPDEST POP GAS STATICCALL ISZERO DUP1 ISZERO PUSH2 0xF7F JUMPI RETURNDATASIZE PUSH1 0x0 DUP1 RETURNDATACOPY RETURNDATASIZE PUSH1 0x0 REVERT JUMPDEST POP POP POP POP PUSH1 0x40 MLOAD RETURNDATASIZE PUSH1 0x20 DUP2 LT ISZERO PUSH2 0xF95 JUMPI PUSH1 0x0 DUP1 REVERT JUMPDEST POP MLOAD SWAP4 POP DUP5 ISZERO DUP1 ISZERO SWAP1 PUSH2 0xFA7 JUMPI POP DUP4 ISZERO ISZERO JUMPDEST ISZERO ISZERO PUSH2 0xFFE JUMPI PUSH1 0x40 MLOAD PUSH32 0x8C379A000000000000000000000000000000000000000000000000000000000 DUP2 MSTORE PUSH1 0x4 ADD DUP1 DUP1 PUSH1 0x20 ADD DUP3 DUP2 SUB DUP3 MSTORE PUSH1 0x25 DUP2 MSTORE PUSH1 0x20 ADD DUP1 PUSH2 0x1BE6 PUSH1 0x25 SWAP2 CODECOPY PUSH1 0x40 ADD SWAP2 POP POP PUSH1 0x40 MLOAD DUP1 SWAP2 SUB SWAP1 REVERT JUMPDEST PUSH3 0xF4240 PUSH2 0x100C DUP7 DUP7 PUSH2 0x15FF JUMP JUMPDEST DUP2 ISZERO ISZERO PUSH2 0x1015 JUMPI INVALID JUMPDEST DIV SWAP3 POP POP POP SWAP2 SWAP4 SWAP1 SWAP3 POP JUMP JUMPDEST PUSH1 0x0 DUP1 PUSH1 0x0 DUP1 PUSH2 0x1030 DUP6 PUSH2 0xCDD JUMP JUMPDEST SWAP2 POP POP PUSH2 0x103B PUSH2 0x1543 JUMP JUMPDEST PUSH20 0xFFFFFFFFFFFFFFFFFFFFFFFFFFFFFFFFFFFFFFFF AND PUSH4 0xD410E0C2 DUP3 PUSH1 0x40 MLOAD DUP3 PUSH4 0xFFFFFFFF AND PUSH29 0x100000000000000000000000000000000000000000000000000000000 MUL DUP2 MSTORE PUSH1 0x4 ADD DUP1 DUP3 PUSH20 0xFFFFFFFFFFFFFFFFFFFFFFFFFFFFFFFFFFFFFFFF AND PUSH20 0xFFFFFFFFFFFFFFFFFFFFFFFFFFFFFFFFFFFFFFFF AND DUP2 MSTORE PUSH1 0x20 ADD SWAP2 POP POP PUSH1 0x20 PUSH1 0x40 MLOAD DUP1 DUP4 SUB DUP2 DUP7 DUP1 EXTCODESIZE ISZERO DUP1 ISZERO PUSH2 0x10D3 JUMPI PUSH1 0x0 DUP1 REVERT JUMPDEST POP GAS STATICCALL ISZERO DUP1 ISZERO PUSH2 0x10E7 JUMPI RETURNDATASIZE PUSH1 0x0 DUP1 RETURNDATACOPY RETURNDATASIZE PUSH1 0x0 REVERT JUMPDEST POP POP POP POP PUSH1 0x40 MLOAD RETURNDATASIZE PUSH1 0x20 DUP2 LT ISZERO PUSH2 0x10FD JUMPI PUSH1 0x0 DUP1 REVERT JUMPDEST POP MLOAD SWAP4 POP PUSH2 0x1109 PUSH2 0x1543 JUMP JUMPDEST PUSH20 0xFFFFFFFFFFFFFFFFFFFFFFFFFFFFFFFFFFFFFFFF AND PUSH4 0xEF78D4FD PUSH1 0x40 MLOAD DUP2 PUSH4 0xFFFFFFFF AND PUSH29 0x100000000000000000000000000000000000000000000000000000000 MUL DUP2 MSTORE PUSH1 0x4 ADD PUSH1 0x20 PUSH1 0x40 MLOAD DUP1 DUP4 SUB DUP2 DUP7 DUP1 EXTCODESIZE ISZERO DUP1 ISZERO PUSH2 0x116A JUMPI PUSH1 0x0 DUP1 REVERT JUMPDEST POP GAS STATICCALL ISZERO DUP1 ISZERO PUSH2 0x117E JUMPI RETURNDATASIZE PUSH1 0x0 DUP1 RETURNDATACOPY RETURNDATASIZE PUSH1 0x0 REVERT JUMPDEST POP POP POP POP PUSH1 0x40 MLOAD RETURNDATASIZE PUSH1 0x20 DUP2 LT ISZERO PUSH2 0x1194 JUMPI PUSH1 0x0 DUP1 REVERT JUMPDEST POP MLOAD PUSH20 0xFFFFFFFFFFFFFFFFFFFFFFFFFFFFFFFFFFFFFFFF SWAP1 SWAP2 AND PUSH1 0x0 SWAP1 DUP2 MSTORE PUSH1 0x4 PUSH1 0x20 MSTORE PUSH1 0x40 SWAP1 KECCAK256 SLOAD SWAP4 SWAP6 SWAP1 SWAP5 POP SWAP2 POP POP JUMP JUMPDEST PUSH1 0x0 DUP1 PUSH1 0x0 PUSH2 0x11D5 DUP5 PUSH2 0xCA4 JUMP JUMPDEST SWAP1 POP PUSH1 0x0 DUP1 PUSH1 0x0 PUSH2 0x11E5 DUP8 PUSH2 0xE5C JUMP JUMPDEST SWAP2 SWAP5 POP SWAP3 POP SWAP1 POP DUP4 DUP4 LT ISZERO PUSH2 0x125B JUMPI PUSH1 0x40 DUP1 MLOAD PUSH32 0x8C379A000000000000000000000000000000000000000000000000000000000 DUP2 MSTORE PUSH1 0x20 PUSH1 0x4 DUP3 ADD MSTORE PUSH1 0x1A PUSH1 0x24 DUP3 ADD MSTORE PUSH32 0x50524943455F4C4F5745525F5448414E5F48574D5F4552524F52000000000000 PUSH1 0x44 DUP3 ADD MSTORE SWAP1 MLOAD SWAP1 DUP2 SWAP1 SUB PUSH1 0x64 ADD SWAP1 REVERT JUMPDEST PUSH1 0x0 PUSH2 0x1266 DUP9 PUSH2 0xCDD JUMP JUMPDEST POP SWAP1 POP PUSH1 0x0 DUP1 PUSH1 0x0 PUSH2 0x1277 DUP12 PUSH2 0x1021 JUMP JUMPDEST SWAP3 POP SWAP3 POP SWAP3 POP PUSH1 0x0 PUSH3 0x15180 DUP4 PUSH2 0x128E DUP9 DUP8 PUSH2 0x15FF JUMP JUMPDEST MUL DUP2 ISZERO ISZERO PUSH2 0x1298 JUMPI INVALID JUMPDEST DIV SWAP1 POP PUSH1 0x0 PUSH3 0x15180 PUSH2 0x12C4 PUSH3 0xF4240 PUSH2 0x12B4 DUP14 DUP14 SUB DUP13 PUSH2 0x15FF JUMP JUMPDEST DUP2 ISZERO ISZERO PUSH2 0x12BD JUMPI INVALID JUMPDEST DIV DUP8 PUSH2 0x15FF JUMP JUMPDEST PUSH4 0x1E13380 MUL DUP2 ISZERO ISZERO PUSH2 0x12D3 JUMPI INVALID JUMPDEST DIV SWAP1 POP PUSH1 0x0 PUSH8 0xDE0B6B3A7640000 PUSH2 0x12EB DUP9 DUP11 PUSH2 0x162C JUMP JUMPDEST PUSH10 0x21E19E0C9BAB2400000 PUSH2 0x130B DUP7 PUSH2 0x1306 PUSH2 0x2710 DUP11 PUSH2 0x1882 JUMP JUMPDEST PUSH2 0x15FF JUMP JUMPDEST DUP2 ISZERO ISZERO PUSH2 0x1314 JUMPI INVALID JUMPDEST DIV MUL DUP2 ISZERO ISZERO PUSH2 0x131F JUMPI INVALID JUMPDEST DIV SWAP1 POP PUSH8 0xDE0B6B3A7640000 PUSH2 0x1335 DUP9 DUP11 PUSH2 0x162C JUMP JUMPDEST PUSH2 0x1352 PUSH2 0x1342 DUP6 DUP9 PUSH2 0x15FF JUMP JUMPDEST PUSH10 0x21E19E0C9BAB2400000 PUSH2 0x1894 JUMP JUMPDEST MUL DUP2 ISZERO ISZERO PUSH2 0x135C JUMPI INVALID JUMPDEST DIV SWAP12 POP PUSH2 0x1372 DUP8 PUSH2 0x136D DUP15 DUP5 PUSH2 0x18C9 JUMP JUMPDEST PUSH2 0x18E3 JUMP JUMPDEST SWAP13 POP PUSH9 0x3635C9ADC5DEA00000 DUP14 GT ISZERO PUSH2 0x1392 JUMPI PUSH9 0x3635C9ADC5DEA00000 SWAP13 POP JUMPDEST POP POP POP POP POP POP POP POP POP POP POP SWAP2 POP SWAP2 JUMP JUMPDEST PUSH1 0x1 SLOAD PUSH1 0x40 DUP1 MLOAD PUSH32 0xC277F1AC00000000000000000000000000000000000000000000000000000000 DUP2 MSTORE PUSH1 0x4 DUP2 ADD DUP5 SWAP1 MSTORE SWAP1 MLOAD PUSH1 0x0 SWAP3 PUSH20 0xFFFFFFFFFFFFFFFFFFFFFFFFFFFFFFFFFFFFFFFF AND SWAP2 DUP4 SWAP2 DUP4 SWAP2 PUSH4 0xC277F1AC SWAP2 PUSH1 0x24 DUP1 DUP4 ADD SWAP3 DUP7 SWAP3 SWAP2 SWAP1 DUP3 SWAP1 SUB ADD DUP2 DUP7 DUP1 EXTCODESIZE ISZERO DUP1 ISZERO PUSH2 0x1417 JUMPI PUSH1 0x0 DUP1 REVERT JUMPDEST POP GAS STATICCALL ISZERO DUP1 ISZERO PUSH2 0x142B JUMPI RETURNDATASIZE PUSH1 0x0 DUP1 RETURNDATACOPY RETURNDATASIZE PUSH1 0x0 REVERT JUMPDEST POP POP POP POP PUSH1 0x40 MLOAD RETURNDATASIZE PUSH1 0x0 DUP3 RETURNDATACOPY PUSH1 0x1F RETURNDATASIZE SWAP1 DUP2 ADD PUSH32 0xFFFFFFFFFFFFFFFFFFFFFFFFFFFFFFFFFFFFFFFFFFFFFFFFFFFFFFFFFFFFFFE0 AND DUP3 ADD PUSH1 0x40 MSTORE PUSH1 0xC0 DUP2 LT ISZERO PUSH2 0x1472 JUMPI PUSH1 0x0 DUP1 REVERT JUMPDEST DUP2 MLOAD PUSH1 0x20 DUP4 ADD DUP1 MLOAD SWAP2 SWAP4 SWAP3 DUP4 ADD SWAP3 SWAP2 PUSH5 0x100000000 DUP2 GT ISZERO PUSH2 0x1493 JUMPI PUSH1 0x0 DUP1 REVERT JUMPDEST DUP3 ADD PUSH1 0x20 DUP2 ADD DUP5 DUP2 GT ISZERO PUSH2 0x14A6 JUMPI PUSH1 0x0 DUP1 REVERT JUMPDEST DUP2 MLOAD PUSH5 0x100000000 DUP2 GT DUP3 DUP3 ADD DUP8 LT OR ISZERO PUSH2 0x14C0 JUMPI PUSH1 0x0 DUP1 REVERT JUMPDEST POP POP SWAP3 SWAP2 SWAP1 PUSH1 0x20 ADD DUP1 MLOAD PUSH5 0x100000000 DUP2 GT ISZERO PUSH2 0x14DC JUMPI PUSH1 0x0 DUP1 REVERT JUMPDEST DUP3 ADD PUSH1 0x20 DUP2 ADD DUP5 DUP2 GT ISZERO PUSH2 0x14EF JUMPI PUSH1 0x0 DUP1 REVERT JUMPDEST DUP2 MLOAD PUSH5 0x100000000 DUP2 GT DUP3 DUP3 ADD DUP8 LT OR ISZERO PUSH2 0x1509 JUMPI PUSH1 0x0 DUP1 REVERT JUMPDEST POP SWAP6 SWAP7 POP POP POP PUSH20 0xFFFFFFFFFFFFFFFFFFFFFFFFFFFFFFFFFFFFFFFF DUP6 AND ISZERO SWAP4 POP PUSH2 0x153C SWAP3 POP POP POP JUMPI PUSH1 0x1 SWAP3 POP POP POP PUSH2 0x528 JUMP JUMPDEST POP POP SWAP2 SWAP1 POP JUMP JUMPDEST PUSH1 0x0 DUP1 PUSH1 0x0 PUSH1 0x1 SWAP1 SLOAD SWAP1 PUSH2 0x100 EXP SWAP1 DIV PUSH20 0xFFFFFFFFFFFFFFFFFFFFFFFFFFFFFFFFFFFFFFFF AND SWAP1 POP DUP1 PUSH20 0xFFFFFFFFFFFFFFFFFFFFFFFFFFFFFFFFFFFFFFFF AND PUSH4 0x7546172 PUSH1 0x40 MLOAD DUP2 PUSH4 0xFFFFFFFF AND PUSH29 0x100000000000000000000000000000000000000000000000000000000 MUL DUP2 MSTORE PUSH1 0x4 ADD PUSH1 0x20 PUSH1 0x40 MLOAD DUP1 DUP4 SUB DUP2 DUP7 DUP1 EXTCODESIZE ISZERO DUP1 ISZERO PUSH2 0x15CD JUMPI PUSH1 0x0 DUP1 REVERT JUMPDEST POP GAS STATICCALL ISZERO DUP1 ISZERO PUSH2 0x15E1 JUMPI RETURNDATASIZE PUSH1 0x0 DUP1 RETURNDATACOPY RETURNDATASIZE PUSH1 0x0 REVERT JUMPDEST POP POP POP POP PUSH1 0x40 MLOAD RETURNDATASIZE PUSH1 0x20 DUP2 LT ISZERO PUSH2 0x15F7 JUMPI PUSH1 0x0 DUP1 REVERT JUMPDEST POP MLOAD SWAP2 POP POP SWAP1 JUMP JUMPDEST PUSH1 0x0 DUP3 DUP3 MUL DUP4 ISZERO DUP1 PUSH2 0x161B JUMPI POP DUP3 DUP5 DUP3 DUP2 ISZERO ISZERO PUSH2 0x1618 JUMPI INVALID JUMPDEST DIV EQ JUMPDEST ISZERO ISZERO PUSH2 0x1623 JUMPI INVALID JUMPDEST SWAP1 POP JUMPDEST SWAP3 SWAP2 POP POP JUMP JUMPDEST PUSH1 0x0 PUSH20 0xFFFFFFFFFFFFFFFFFFFFFFFFFFFFFFFFFFFFFFFF DUP4 AND BALANCE DUP3 DUP2 GT DUP1 ISZERO SWAP1 PUSH2 0x165D JUMPI POP PUSH7 0x38D7EA4C68000 DUP2 LT ISZERO JUMPDEST ISZERO ISZERO PUSH2 0x16B4 JUMPI PUSH1 0x40 MLOAD PUSH32 0x8C379A000000000000000000000000000000000000000000000000000000000 DUP2 MSTORE PUSH1 0x4 ADD DUP1 DUP1 PUSH1 0x20 ADD DUP3 DUP2 SUB DUP3 MSTORE PUSH1 0x2E DUP2 MSTORE PUSH1 0x20 ADD DUP1 PUSH2 0x1C0B PUSH1 0x2E SWAP2 CODECOPY PUSH1 0x40 ADD SWAP2 POP POP PUSH1 0x40 MLOAD DUP1 SWAP2 SUB SWAP1 REVERT JUMPDEST PUSH8 0xB1A2BC2EC500000 DUP4 DUP3 PUSH8 0xDE0B6B3A7640000 MUL DUP2 ISZERO ISZERO PUSH2 0x16D2 JUMPI INVALID JUMPDEST DIV LT PUSH2 0x16F6 JUMPI DUP3 DUP2 PUSH8 0xDE0B6B3A7640000 MUL DUP2 ISZERO ISZERO PUSH2 0x16ED JUMPI INVALID JUMPDEST DIV SWAP2 POP POP PUSH2 0x1626 JUMP JUMPDEST PUSH8 0x853A0D2313C0000 DUP4 DUP3 PUSH8 0xDE0B6B3A7640000 MUL DUP2 ISZERO ISZERO PUSH2 0x1714 JUMPI INVALID JUMPDEST DIV LT PUSH2 0x1740 JUMPI PUSH2 0x3E8 DUP4 DUP3 PUSH8 0xDE0B6B3A7640000 MUL DUP2 ISZERO ISZERO PUSH2 0x1732 JUMPI INVALID JUMPDEST DIV PUSH2 0x334 MUL DUP2 ISZERO ISZERO PUSH2 0x16ED JUMPI INVALID JUMPDEST PUSH8 0x58D15E176280000 DUP4 DUP3 PUSH8 0xDE0B6B3A7640000 MUL DUP2 ISZERO ISZERO PUSH2 0x175E JUMPI INVALID JUMPDEST DIV LT PUSH2 0x1789 JUMPI PUSH2 0x3E8 DUP4 DUP3 PUSH8 0xDE0B6B3A7640000 MUL DUP2 ISZERO ISZERO PUSH2 0x177C JUMPI INVALID JUMPDEST DIV PUSH1 0xC9 MUL DUP2 ISZERO ISZERO PUSH2 0x16ED JUMPI INVALID JUMPDEST PUSH8 0x2C68AF0BB140000 DUP4 DUP3 PUSH8 0xDE0B6B3A7640000 MUL DUP2 ISZERO ISZERO PUSH2 0x17A7 JUMPI INVALID JUMPDEST DIV LT PUSH2 0x17D2 JUMPI PUSH2 0x3E8 DUP4 DUP3 PUSH8 0xDE0B6B3A7640000 MUL DUP2 ISZERO ISZERO PUSH2 0x17C5 JUMPI INVALID JUMPDEST DIV PUSH1 0x1D MUL DUP2 ISZERO ISZERO PUSH2 0x16ED JUMPI INVALID JUMPDEST PUSH8 0x16345785D8A0000 DUP4 DUP3 PUSH8 0xDE0B6B3A7640000 MUL DUP2 ISZERO ISZERO PUSH2 0x17F0 JUMPI INVALID JUMPDEST DIV LT PUSH2 0x181B JUMPI PUSH2 0x3E8 DUP4 DUP3 PUSH8 0xDE0B6B3A7640000 MUL DUP2 ISZERO ISZERO PUSH2 0x180E JUMPI INVALID JUMPDEST DIV PUSH1 0x5 MUL DUP2 ISZERO ISZERO PUSH2 0x16ED JUMPI INVALID JUMPDEST PUSH1 0x40 DUP1 MLOAD PUSH32 0x8C379A000000000000000000000000000000000000000000000000000000000 DUP2 MSTORE PUSH1 0x20 PUSH1 0x4 DUP3 ADD MSTORE PUSH1 0x1E PUSH1 0x24 DUP3 ADD MSTORE PUSH32 0x4554485F42454C4F575F31305F50455243454E545F41554D5F4552524F520000 PUSH1 0x44 DUP3 ADD MSTORE SWAP1 MLOAD SWAP1 DUP2 SWAP1 SUB PUSH1 0x64 ADD SWAP1 REVERT JUMPDEST PUSH1 0x0 DUP3 DUP3 GT ISZERO PUSH2 0x188E JUMPI INVALID JUMPDEST POP SWAP1 SUB SWAP1 JUMP JUMPDEST PUSH1 0x0 DUP1 DUP3 GT PUSH2 0x189F JUMPI INVALID JUMPDEST PUSH1 0x0 DUP3 DUP5 DUP2 ISZERO ISZERO PUSH2 0x18AC JUMPI INVALID JUMPDEST DIV SWAP1 POP DUP3 DUP5 DUP2 ISZERO ISZERO PUSH2 0x18BA JUMPI INVALID JUMPDEST MOD DUP2 DUP5 MUL ADD DUP5 EQ ISZERO ISZERO PUSH2 0x1623 JUMPI INVALID JUMPDEST PUSH1 0x0 DUP3 DUP3 ADD DUP4 DUP2 LT DUP1 ISZERO SWAP1 PUSH2 0x161B JUMPI POP DUP3 DUP2 LT ISZERO PUSH2 0x1623 JUMPI INVALID JUMPDEST PUSH1 0x0 DUP1 PUSH1 0x0 PUSH1 0x1 SWAP1 SLOAD SWAP1 PUSH2 0x100 EXP SWAP1 DIV PUSH20 0xFFFFFFFFFFFFFFFFFFFFFFFFFFFFFFFFFFFFFFFF AND PUSH20 0xFFFFFFFFFFFFFFFFFFFFFFFFFFFFFFFFFFFFFFFF AND PUSH4 0x70A08231 DUP6 PUSH20 0xFFFFFFFFFFFFFFFFFFFFFFFFFFFFFFFFFFFFFFFF AND PUSH4 0x8DA5CB5B PUSH1 0x40 MLOAD DUP2 PUSH4 0xFFFFFFFF AND PUSH29 0x100000000000000000000000000000000000000000000000000000000 MUL DUP2 MSTORE PUSH1 0x4 ADD PUSH1 0x20 PUSH1 0x40 MLOAD DUP1 DUP4 SUB DUP2 DUP7 DUP1 EXTCODESIZE ISZERO DUP1 ISZERO PUSH2 0x1986 JUMPI PUSH1 0x0 DUP1 REVERT JUMPDEST POP GAS STATICCALL ISZERO DUP1 ISZERO PUSH2 0x199A JUMPI RETURNDATASIZE PUSH1 0x0 DUP1 RETURNDATACOPY RETURNDATASIZE PUSH1 0x0 REVERT JUMPDEST POP POP POP POP PUSH1 0x40 MLOAD RETURNDATASIZE PUSH1 0x20 DUP2 LT ISZERO PUSH2 0x19B0 JUMPI PUSH1 0x0 DUP1 REVERT JUMPDEST POP MLOAD PUSH1 0x40 DUP1 MLOAD PUSH29 0x100000000000000000000000000000000000000000000000000000000 PUSH4 0xFFFFFFFF DUP6 AND MUL DUP2 MSTORE PUSH20 0xFFFFFFFFFFFFFFFFFFFFFFFFFFFFFFFFFFFFFFFF SWAP1 SWAP3 AND PUSH1 0x4 DUP4 ADD MSTORE MLOAD PUSH1 0x24 DUP1 DUP4 ADD SWAP3 PUSH1 0x20 SWAP3 SWAP2 SWAP1 DUP3 SWAP1 SUB ADD DUP2 DUP7 DUP1 EXTCODESIZE ISZERO DUP1 ISZERO PUSH2 0x1A1B JUMPI PUSH1 0x0 DUP1 REVERT JUMPDEST POP GAS STATICCALL ISZERO DUP1 ISZERO PUSH2 0x1A2F JUMPI RETURNDATASIZE PUSH1 0x0 DUP1 RETURNDATACOPY RETURNDATASIZE PUSH1 0x0 REVERT JUMPDEST POP POP POP POP PUSH1 0x40 MLOAD RETURNDATASIZE PUSH1 0x20 DUP2 LT ISZERO PUSH2 0x1A45 JUMPI PUSH1 0x0 DUP1 REVERT JUMPDEST POP MLOAD PUSH1 0x0 DUP1 SLOAD PUSH1 0x40 DUP1 MLOAD PUSH32 0x18160DDD00000000000000000000000000000000000000000000000000000000 DUP2 MSTORE SWAP1 MLOAD SWAP4 SWAP5 POP SWAP2 SWAP3 PUSH2 0x100 SWAP1 SWAP2 DIV PUSH20 0xFFFFFFFFFFFFFFFFFFFFFFFFFFFFFFFFFFFFFFFF AND SWAP2 PUSH4 0x18160DDD SWAP2 PUSH1 0x4 DUP1 DUP4 ADD SWAP3 PUSH1 0x20 SWAP3 SWAP2 SWAP1 DUP3 SWAP1 SUB ADD DUP2 DUP7 DUP1 EXTCODESIZE ISZERO DUP1 ISZERO PUSH2 0x1ABB JUMPI PUSH1 0x0 DUP1 REVERT JUMPDEST POP GAS STATICCALL ISZERO DUP1 ISZERO PUSH2 0x1ACF JUMPI RETURNDATASIZE PUSH1 0x0 DUP1 RETURNDATACOPY RETURNDATASIZE PUSH1 0x0 REVERT JUMPDEST POP POP POP POP PUSH1 0x40 MLOAD RETURNDATASIZE PUSH1 0x20 DUP2 LT ISZERO PUSH2 0x1AE5 JUMPI PUSH1 0x0 DUP1 REVERT JUMPDEST POP MLOAD SWAP1 POP PUSH7 0x11C37937E08000 DUP2 PUSH8 0x8AC7230489E80000 DUP5 MUL DUP2 ISZERO ISZERO PUSH2 0x1B06 JUMPI INVALID JUMPDEST DIV LT PUSH2 0x1B16 JUMPI DUP4 SWAP3 POP POP POP PUSH2 0x1626 JUMP JUMPDEST PUSH7 0xE35FA931A0000 DUP2 DUP4 PUSH8 0x8AC7230489E80000 MUL DUP2 ISZERO ISZERO PUSH2 0x1B33 JUMPI INVALID JUMPDEST DIV LT PUSH2 0x1B4C JUMPI PUSH2 0x3E8 PUSH2 0x334 DUP6 MUL JUMPDEST DIV SWAP3 POP POP POP PUSH2 0x1626 JUMP JUMPDEST PUSH7 0xAA87BEE538000 DUP2 DUP4 PUSH8 0x8AC7230489E80000 MUL DUP2 ISZERO ISZERO PUSH2 0x1B69 JUMPI INVALID JUMPDEST DIV LT PUSH2 0x1B7B JUMPI PUSH2 0x3E8 PUSH1 0xC9 DUP6 MUL PUSH2 0x1B42 JUMP JUMPDEST PUSH7 0x71AFD498D0000 DUP2 DUP4 PUSH8 0x8AC7230489E80000 MUL DUP2 ISZERO ISZERO PUSH2 0x1B98 JUMPI INVALID JUMPDEST DIV LT PUSH2 0x1BAA JUMPI PUSH2 0x3E8 PUSH1 0x1D DUP6 MUL PUSH2 0x1B42 JUMP JUMPDEST PUSH7 0x38D7EA4C68000 DUP2 DUP4 PUSH8 0x8AC7230489E80000 MUL DUP2 ISZERO ISZERO PUSH2 0x1BC7 JUMPI INVALID JUMPDEST DIV LT PUSH2 0x1BD9 JUMPI PUSH2 0x3E8 PUSH1 0x5 DUP6 MUL PUSH2 0x1B42 JUMP JUMPDEST PUSH2 0x3E8 PUSH1 0x2 DUP6 MUL PUSH2 0x1B42 JUMP INVALID POP 0x4f 0x4f 0x4c 0x5f POP MSTORE 0x49 NUMBER GASLIMIT 0x5f 0x4f MSTORE 0x5f SLOAD 0x4f SLOAD COINBASE 0x4c 0x5f MSTORE8 SSTORE POP POP 0x4c MSIZE 0x5f 0x4e SSTORE 0x4c 0x4c 0x5f GASLIMIT MSTORE MSTORE 0x4f MSTORE GASLIMIT SLOAD 0x48 0x5f TIMESTAMP COINBASE 0x4c COINBASE 0x4e NUMBER GASLIMIT 0x5f 0x48 0x49 0x47 0x48 GASLIMIT MSTORE 0x5f SLOAD 0x48 COINBASE 0x4e 0x5f COINBASE SSTORE 0x4d 0x5f 0x4f MSTORE 0x5f SLOAD 0x4f 0x4f 0x5f MSTORE8 0x4d COINBASE 0x4c 0x4c 0x5f GASLIMIT MSTORE MSTORE 0x4f MSTORE LOG1 PUSH6 0x627A7A723058 KECCAK256 0xa8 0xa5 PUSH28 0xBF2542AA0FDB8C2FE9FD7E4F237708AE89D64EF06318A533FD087FC8 0x5c STOP 0x29 "
			}
		}
	},
	"sourceTreeHashHex": "0x3c2a54890db3c01c17001dc59695a768a64b4e59feda6ab4a16770d4265fa613",
	"compiler": {
		"name": "solc",
		"version": "0.5.4+commit.9549d8ff",
		"settings": {
			"remappings": [],
			"optimizer": {
				"enabled": true,
				"runs": 1000000
			},
			"outputSelection": {
				"*": {
					"*": [
						"abi",
						"devdoc",
						"evm.bytecode.object",
						"evm.bytecode.sourceMap",
						"evm.deployedBytecode.object",
						"evm.deployedBytecode.sourceMap"
					]
				}
			}
		}
	},
	"chains": {}
}