{
	"schemaVersion": "2.0.0",
	"contractName": "ProofOfPerformance",
	"compilerOutput": {
		"abi": [
			{
				"constant": false,
				"inputs": [
					{
						"name": "_ofGroup",
						"type": "address"
					},
					{
						"name": "_ratio",
						"type": "uint256"
					}
				],
				"name": "setRatio",
				"outputs": [],
				"payable": false,
				"stateMutability": "nonpayable",
				"type": "function"
			},
			{
				"constant": true,
				"inputs": [
					{
						"name": "poolId",
						"type": "uint256"
					}
				],
				"name": "getHwm",
				"outputs": [
					{
						"name": "",
						"type": "uint256"
					}
				],
				"payable": false,
				"stateMutability": "view",
				"type": "function"
			},
			{
				"constant": true,
				"inputs": [
					{
						"name": "poolId",
						"type": "uint256"
					}
				],
				"name": "addressFromId",
				"outputs": [
					{
						"name": "pool",
						"type": "address"
					},
					{
						"name": "group",
						"type": "address"
					}
				],
				"payable": false,
				"stateMutability": "view",
				"type": "function"
			},
			{
				"constant": true,
				"inputs": [],
				"name": "rigoblockDao",
				"outputs": [
					{
						"name": "",
						"type": "address"
					}
				],
				"payable": false,
				"stateMutability": "view",
				"type": "function"
			},
			{
				"constant": true,
				"inputs": [
					{
						"name": "poolId",
						"type": "uint256"
					}
				],
				"name": "calcPoolValue",
				"outputs": [
					{
						"name": "aum",
						"type": "uint256"
					}
				],
				"payable": false,
				"stateMutability": "view",
				"type": "function"
			},
			{
				"constant": true,
				"inputs": [
					{
						"name": "poolId",
						"type": "uint256"
					}
				],
				"name": "getRatio",
				"outputs": [
					{
						"name": "",
						"type": "uint256"
					}
				],
				"payable": false,
				"stateMutability": "view",
				"type": "function"
			},
			{
				"constant": true,
				"inputs": [
					{
						"name": "poolId",
						"type": "uint256"
					}
				],
				"name": "proofOfPerformance",
				"outputs": [
					{
						"name": "popReward",
						"type": "uint256"
					},
					{
						"name": "performanceReward",
						"type": "uint256"
					}
				],
				"payable": false,
				"stateMutability": "view",
				"type": "function"
			},
			{
				"constant": true,
				"inputs": [
					{
						"name": "poolId",
						"type": "uint256"
					}
				],
				"name": "isActive",
				"outputs": [
					{
						"name": "",
						"type": "bool"
					}
				],
				"payable": false,
				"stateMutability": "view",
				"type": "function"
			},
			{
				"constant": true,
				"inputs": [
					{
						"name": "poolId",
						"type": "uint256"
					}
				],
				"name": "getPoolPrice",
				"outputs": [
					{
						"name": "thePoolPrice",
						"type": "uint256"
					},
					{
						"name": "totalTokens",
						"type": "uint256"
					}
				],
				"payable": false,
				"stateMutability": "view",
				"type": "function"
			},
			{
				"constant": true,
				"inputs": [],
				"name": "RIGOTOKENADDRESS",
				"outputs": [
					{
						"name": "",
						"type": "address"
					}
				],
				"payable": false,
				"stateMutability": "view",
				"type": "function"
			},
			{
				"constant": false,
				"inputs": [
					{
						"name": "_dragoRegistry",
						"type": "address"
					}
				],
				"name": "setRegistry",
				"outputs": [],
				"payable": false,
				"stateMutability": "nonpayable",
				"type": "function"
			},
			{
				"constant": false,
				"inputs": [
					{
						"name": "_rigoblockDao",
						"type": "address"
					}
				],
				"name": "setRigoblockDao",
				"outputs": [],
				"payable": false,
				"stateMutability": "nonpayable",
				"type": "function"
			},
			{
				"constant": true,
				"inputs": [],
				"name": "dragoRegistry",
				"outputs": [
					{
						"name": "",
						"type": "address"
					}
				],
				"payable": false,
				"stateMutability": "view",
				"type": "function"
			},
			{
				"constant": true,
				"inputs": [
					{
						"name": "poolId",
						"type": "uint256"
					}
				],
				"name": "getPoolData",
				"outputs": [
					{
						"name": "active",
						"type": "bool"
					},
					{
						"name": "thePoolAddress",
						"type": "address"
					},
					{
						"name": "thePoolGroup",
						"type": "address"
					},
					{
						"name": "thePoolPrice",
						"type": "uint256"
					},
					{
						"name": "thePoolSupply",
						"type": "uint256"
					},
					{
						"name": "poolValue",
						"type": "uint256"
					},
					{
						"name": "epochReward",
						"type": "uint256"
					},
					{
						"name": "ratio",
						"type": "uint256"
					},
					{
						"name": "pop",
						"type": "uint256"
					}
				],
				"payable": false,
				"stateMutability": "view",
				"type": "function"
			},
			{
				"constant": true,
				"inputs": [
					{
						"name": "poolId",
						"type": "uint256"
					}
				],
				"name": "getEpochReward",
				"outputs": [
					{
						"name": "",
						"type": "uint256"
					}
				],
				"payable": false,
				"stateMutability": "view",
				"type": "function"
			},
			{
				"constant": false,
				"inputs": [
					{
						"name": "poolId",
						"type": "uint256"
					}
				],
				"name": "claimPop",
				"outputs": [],
				"payable": false,
				"stateMutability": "nonpayable",
				"type": "function"
			},
			{
				"inputs": [
					{
						"name": "_rigoTokenAddress",
						"type": "address"
					},
					{
						"name": "_rigoblockDao",
						"type": "address"
					},
					{
						"name": "_dragoRegistry",
						"type": "address"
					}
				],
				"payable": false,
				"stateMutability": "nonpayable",
				"type": "constructor"
			}
		],
		"devdoc": {
			"author": "Gabriele Rigo - <gab@rigoblock.com>",
			"methods": {
				"addressFromId(uint256)": {
					"details": "Returns the address and the group of a pool from its id.",
					"params": {
						"poolId": "Id of the pool."
					},
					"return": "pool Address of the target pool.group Address of the pool's group."
				},
				"calcPoolValue(uint256)": {
					"details": "Returns the value of a pool from its id.",
					"params": {
						"poolId": "Id of the pool."
					},
					"return": "aum Total value of the pool in ETH."
				},
				"claimPop(uint256)": {
					"details": "Allows anyone to allocate the pop reward to pool wizards.",
					"params": {
						"poolId": "Number of pool id in registry."
					}
				},
				"getEpochReward(uint256)": {
					"details": "Returns the reward factor for a pool.",
					"params": {
						"poolId": "Id of the pool."
					},
					"return": "Value of the reward factor."
				},
				"getHwm(uint256)": {
					"details": "Returns the highwatermark of a pool.",
					"params": {
						"poolId": "Id of the pool."
					},
					"return": "Value of the all-time-high pool nav."
				},
				"getPoolData(uint256)": {
					"details": "Gets data of a pool.",
					"params": {
						"poolId": "Id of the pool."
					},
					"return": "active Bool the pool is active.thePoolAddress address of the pool.thePoolGroup address of the pool factory.thePoolPrice price of the pool in wei.thePoolSupply total supply of the pool in units.poolValue total value of the pool in wei.epochReward value of the reward factor or said pool.ratio of assets/performance reward (from 0 to 10000).pop value of the pop reward to be claimed in GRGs."
				},
				"getPoolPrice(uint256)": {
					"details": "Returns the price a pool from its id.",
					"params": {
						"poolId": "Id of the pool."
					},
					"return": "thePoolPrice Price of the pool in wei.totalTokens Number of tokens of a pool (totalSupply)."
				},
				"getRatio(uint256)": {
					"details": "Returns the split ratio of asset and performance reward.",
					"params": {
						"poolId": "Id of the pool."
					},
					"return": "Value of the ratio from 1 to 100."
				},
				"isActive(uint256)": {
					"details": "Checks whether a pool is registered and active.",
					"params": {
						"poolId": "Id of the pool."
					},
					"return": "Bool the pool is active."
				},
				"proofOfPerformance(uint256)": {
					"details": "Returns the proof of performance reward for a pool.",
					"params": {
						"poolId": "Id of the pool."
					},
					"return": "popReward Value of the pop reward in Rigo tokens.performanceReward Split of the performance reward in Rigo tokens."
				},
				"setRatio(address,uint256)": {
					"details": "Allows RigoBlock Dao to set the ratio between assets and performance reward for a group.",
					"params": {
						"_ofGroup": "Id of the pool.",
						"_ratio": "Id of the pool."
					}
				},
				"setRegistry(address)": {
					"details": "Allows RigoBlock Dao to update the pools registry.",
					"params": {
						"_dragoRegistry": "Address of new registry."
					}
				},
				"setRigoblockDao(address)": {
					"details": "Allows RigoBlock Dao to update its address.",
					"params": {
						"_rigoblockDao": "Address of new dao."
					}
				}
			},
			"title": "Proof of Performance - Controls parameters of inflation."
		},
		"evm": {
			"bytecode": {
				"linkReferences": {},
				"object": "0x60806040526000805460ff1916905534801561001a57600080fd5b5060405160608061209f8339810180604052606081101561003a57600080fd5b508051602082015160409092015160008054600160a060020a039384166101000261010060a860020a031990911617905560028054938316600160a060020a03199485161790556001805492909116919092161790556120008061009f6000396000f3fe608060405234801561001057600080fd5b506004361061011d576000357c0100000000000000000000000000000000000000000000000000000000900480639af94f30116100b4578063bb76bd2911610083578063bb76bd2914610339578063d21c87ad14610341578063d418634a146103c0578063dc5d2799146103dd5761011d565b80639af94f30146102ae578063a6c9c443146102cb578063a91ee0dc146102d3578063b516e6e1146103065761011d565b8063427fdc0c116100f0578063427fdc0c1461020d57806346a62eaf1461022a5780634d749e431461024757806382afd23b1461027d5761011d565b80630575204714610122578063249d91231461015d578063360dafa01461018c5780633edd80c3146101dc575b600080fd5b61015b6004803603604081101561013857600080fd5b5073ffffffffffffffffffffffffffffffffffffffff81351690602001356103fa565b005b61017a6004803603602081101561017357600080fd5b503561051a565b60408051918252519081900360200190f35b6101a9600480360360208110156101a257600080fd5b503561052d565b6040805173ffffffffffffffffffffffffffffffffffffffff938416815291909216602082015281519081900390910190f35b6101e4610542565b6040805173ffffffffffffffffffffffffffffffffffffffff9092168252519081900360200190f35b61017a6004803603602081101561022357600080fd5b503561055e565b61017a6004803603602081101561024057600080fd5b5035610571565b6102646004803603602081101561025d57600080fd5b5035610586565b6040805192835260208301919091528051918290030190f35b61029a6004803603602081101561029357600080fd5b5035610592565b604080519115158252519081900360200190f35b610264600480360360208110156102c457600080fd5b503561059d565b6101e46105b4565b61015b600480360360208110156102e957600080fd5b503573ffffffffffffffffffffffffffffffffffffffff166105d5565b61015b6004803603602081101561031c57600080fd5b503573ffffffffffffffffffffffffffffffffffffffff166106a2565b6101e461076f565b61035e6004803603602081101561035757600080fd5b503561078b565b604080519915158a5273ffffffffffffffffffffffffffffffffffffffff98891660208b015296909716888701526060880194909452608087019290925260a086015260c085015260e084015261010083019190915251908190036101200190f35b61017a600480360360208110156103d657600080fd5b50356107ec565b61015b600480360360208110156103f357600080fd5b5035610802565b60025473ffffffffffffffffffffffffffffffffffffffff16331461048057604080517f08c379a000000000000000000000000000000000000000000000000000000000815260206004820152601260248201527f4f4e4c595f5249474f424c4f434b5f44414f0000000000000000000000000000604482015290519081900360640190fd5b6127108111156104f157604080517f08c379a000000000000000000000000000000000000000000000000000000000815260206004820152601760248201527f524154494f5f4249474745525f5448414e5f3130303030000000000000000000604482015290519081900360640190fd5b73ffffffffffffffffffffffffffffffffffffffff909116600090815260046020526040902055565b600061052582610ca4565b90505b919050565b60008061053983610cdd565b91509150915091565b60025473ffffffffffffffffffffffffffffffffffffffff1681565b600061056982610e5c565b949350505050565b60008061057d83611021565b95945050505050565b600080610539836111c7565b600061052582611324565b6000806105a983610e5c565b509094909350915050565b600054610100900473ffffffffffffffffffffffffffffffffffffffff1681565b60025473ffffffffffffffffffffffffffffffffffffffff16331461065b57604080517f08c379a000000000000000000000000000000000000000000000000000000000815260206004820152601260248201527f4f4e4c595f5249474f424c4f434b5f44414f0000000000000000000000000000604482015290519081900360640190fd5b600180547fffffffffffffffffffffffff00000000000000000000000000000000000000001673ffffffffffffffffffffffffffffffffffffffff92909216919091179055565b60025473ffffffffffffffffffffffffffffffffffffffff16331461072857604080517f08c379a000000000000000000000000000000000000000000000000000000000815260206004820152601260248201527f4f4e4c595f5249474f424c4f434b5f44414f0000000000000000000000000000604482015290519081900360640190fd5b600280547fffffffffffffffffffffffff00000000000000000000000000000000000000001673ffffffffffffffffffffffffffffffffffffffff92909216919091179055565b60015473ffffffffffffffffffffffffffffffffffffffff1681565b60008060008060008060008060006107a28a611324565b98506107ad8a610cdd565b90985096506107bb8a610e5c565b919750955093506107cb8a611021565b9194509092506107dc90508a6111c7565b5090509193959799909294969850565b6000806107f883611021565b5090949350505050565b60005460ff161561087457604080517f08c379a000000000000000000000000000000000000000000000000000000000815260206004820152601260248201527f5245454e5452414e43595f494c4c4547414c0000000000000000000000000000604482015290519081900360640190fd5b600080547fffffffffffffffffffffffffffffffffffffffffffffffffffffffffffffff00166001908117825554604080517fc277f1ac00000000000000000000000000000000000000000000000000000000815260048101859052905173ffffffffffffffffffffffffffffffffffffffff9092169291839163c277f1ac9160248083019286929190829003018186803b15801561091257600080fd5b505afa158015610926573d6000803e3d6000fd5b505050506040513d6000823e601f3d9081017fffffffffffffffffffffffffffffffffffffffffffffffffffffffffffffffe016820160405260c081101561096d57600080fd5b81516020830180519193928301929164010000000081111561098e57600080fd5b820160208101848111156109a157600080fd5b81516401000000008111828201871017156109bb57600080fd5b505092919060200180516401000000008111156109d757600080fd5b820160208101848111156109ea57600080fd5b8151640100000000811182820187101715610a0457600080fd5b5095965060009550610a1d94508893506111c792505050565b50905060008111610a8f57604080517f08c379a000000000000000000000000000000000000000000000000000000000815260206004820152601260248201527f504f505f5245574152445f49535f4e554c4c0000000000000000000000000000604482015290519081900360640190fd5b60008273ffffffffffffffffffffffffffffffffffffffff16639489fa846040518163ffffffff167c010000000000000000000000000000000000000000000000000000000002815260040160206040518083038186803b158015610af357600080fd5b505afa158015610b07573d6000803e3d6000fd5b505050506040513d6020811015610b1d57600080fd5b505160008681526003602052604090208190559050610b3a6114c5565b73ffffffffffffffffffffffffffffffffffffffff1663be5ddb9984846040518363ffffffff167c0100000000000000000000000000000000000000000000000000000000028152600401808373ffffffffffffffffffffffffffffffffffffffff1673ffffffffffffffffffffffffffffffffffffffff16815260200182815260200192505050602060405180830381600087803b158015610bdc57600080fd5b505af1158015610bf0573d6000803e3d6000fd5b505050506040513d6020811015610c0657600080fd5b50511515610c7557604080517f08c379a000000000000000000000000000000000000000000000000000000000815260206004820152601460248201527f4d494e545f494e464c4154494f4e5f4552524f52000000000000000000000000604482015290519081900360640190fd5b5050600080547fffffffffffffffffffffffffffffffffffffffffffffffffffffffffffffff00169055505050565b6000818152600360205260408120541515610cc85750670de0b6b3a7640000610528565b50600081815260036020526040902054610528565b600154604080517fc277f1ac000000000000000000000000000000000000000000000000000000008152600481018490529051600092839273ffffffffffffffffffffffffffffffffffffffff90911691829163c277f1ac9160248083019287929190829003018186803b158015610d5457600080fd5b505afa158015610d68573d6000803e3d6000fd5b505050506040513d6000823e601f3d9081017fffffffffffffffffffffffffffffffffffffffffffffffffffffffffffffffe016820160405260c0811015610daf57600080fd5b815160208301805191939283019291640100000000811115610dd057600080fd5b82016020810184811115610de357600080fd5b8151640100000000811182820187101715610dfd57600080fd5b50509291906020018051640100000000811115610e1957600080fd5b82016020810184811115610e2c57600080fd5b8151640100000000811182820187101715610e4657600080fd5b5050506060015193965092945050505050915091565b600080600080610e6b85610cdd565b50905060008190508073ffffffffffffffffffffffffffffffffffffffff16639489fa846040518163ffffffff167c010000000000000000000000000000000000000000000000000000000002815260040160206040518083038186803b158015610ed557600080fd5b505afa158015610ee9573d6000803e3d6000fd5b505050506040513d6020811015610eff57600080fd5b5051604080517f18160ddd000000000000000000000000000000000000000000000000000000008152905191965073ffffffffffffffffffffffffffffffffffffffff8316916318160ddd91600480820192602092909190829003018186803b158015610f6b57600080fd5b505afa158015610f7f573d6000803e3d6000fd5b505050506040513d6020811015610f9557600080fd5b505193508415801590610fa757508315155b1515610ffe576040517f08c379a0000000000000000000000000000000000000000000000000000000008152600401808060200182810382526025815260200180611fb06025913960400191505060405180910390fd5b620f424061100c8686611581565b81151561101557fe5b04925050509193909250565b60008060008061103085610cdd565b91505061103b6114c5565b73ffffffffffffffffffffffffffffffffffffffff1663d410e0c2826040518263ffffffff167c0100000000000000000000000000000000000000000000000000000000028152600401808273ffffffffffffffffffffffffffffffffffffffff1673ffffffffffffffffffffffffffffffffffffffff16815260200191505060206040518083038186803b1580156110d357600080fd5b505afa1580156110e7573d6000803e3d6000fd5b505050506040513d60208110156110fd57600080fd5b505193506111096114c5565b73ffffffffffffffffffffffffffffffffffffffff1663ef78d4fd6040518163ffffffff167c010000000000000000000000000000000000000000000000000000000002815260040160206040518083038186803b15801561116a57600080fd5b505afa15801561117e573d6000803e3d6000fd5b505050506040513d602081101561119457600080fd5b505173ffffffffffffffffffffffffffffffffffffffff9091166000908152600460205260409020549395909450915050565b60008060006111d584610ca4565b905060008060006111e587610e5c565b92509250925060006111f688610cdd565b50905060008060006112078b611021565b9194509250905060008062015180846112208988611581565b0281151561122a57fe5b049150898910611270576201518061125b620f424061124b8d8d038c611581565b81151561125457fe5b0487611581565b6301e133800281151561126a57fe5b04611273565b60005b90506000670de0b6b3a764000061128a888a6115ae565b69021e19e0c9bab24000006112aa866112a56127108a6119b9565b611581565b8115156112b357fe5b04028115156112be57fe5b049050670de0b6b3a76400006112d4888a6115ae565b6112f16112e18588611581565b69021e19e0c9bab24000006119cb565b028115156112fb57fe5b049b506113128e8661130d8f85611a00565b611a1a565b9c505050505050505050505050915091565b600154604080517fc277f1ac00000000000000000000000000000000000000000000000000000000815260048101849052905160009273ffffffffffffffffffffffffffffffffffffffff16918391839163c277f1ac9160248083019286929190829003018186803b15801561139957600080fd5b505afa1580156113ad573d6000803e3d6000fd5b505050506040513d6000823e601f3d9081017fffffffffffffffffffffffffffffffffffffffffffffffffffffffffffffffe016820160405260c08110156113f457600080fd5b81516020830180519193928301929164010000000081111561141557600080fd5b8201602081018481111561142857600080fd5b815164010000000081118282018710171561144257600080fd5b5050929190602001805164010000000081111561145e57600080fd5b8201602081018481111561147157600080fd5b815164010000000081118282018710171561148b57600080fd5b50959650505073ffffffffffffffffffffffffffffffffffffffff85161593506114be9250505057600192505050610528565b5050919050565b600080600060019054906101000a900473ffffffffffffffffffffffffffffffffffffffff1690508073ffffffffffffffffffffffffffffffffffffffff1663075461726040518163ffffffff167c010000000000000000000000000000000000000000000000000000000002815260040160206040518083038186803b15801561154f57600080fd5b505afa158015611563573d6000803e3d6000fd5b505050506040513d602081101561157957600080fd5b505191505090565b600082820283158061159d575082848281151561159a57fe5b04145b15156115a557fe5b90505b92915050565b600073ffffffffffffffffffffffffffffffffffffffff83163182811015806115de575066038d7ea4c680008111155b15611634576040517f08c379a0000000000000000000000000000000000000000000000000000000008152600401808060200182810382526029815260200180611f876029913960400191505060405180910390fd5b670b1a2bc2ec5000008382670de0b6b3a76400000281151561165257fe5b0410611676578281670de0b6b3a76400000281151561166d57fe5b049150506115a8565b670853a0d2313c00008382670de0b6b3a76400000281151561169457fe5b04106116c0576103e88382670de0b6b3a7640000028115156116b257fe5b046103af0281151561166d57fe5b6706f05b59d3b200008382670de0b6b3a7640000028115156116de57fe5b041061170a576103e88382670de0b6b3a7640000028115156116fc57fe5b046103710281151561166d57fe5b67058d15e1762800008382670de0b6b3a76400000281151561172857fe5b0410611754576103e88382670de0b6b3a76400000281151561174657fe5b046103010281151561166d57fe5b670429d069189e00008382670de0b6b3a76400000281151561177257fe5b041061179e576103e88382670de0b6b3a76400000281151561179057fe5b046102570281151561166d57fe5b6702c68af0bb1400008382670de0b6b3a7640000028115156117bc57fe5b04106117e8576103e88382670de0b6b3a7640000028115156117da57fe5b046101910281151561166d57fe5b67016345785d8a00008382670de0b6b3a76400000281151561180657fe5b0410611831576103e88382670de0b6b3a76400000281151561182457fe5b0460e70281151561166d57fe5b67010a741a462780008382670de0b6b3a76400000281151561184f57fe5b041061187a576103e88382670de0b6b3a76400000281151561186d57fe5b0460c60281151561166d57fe5b66b1a2bc2ec500008382670de0b6b3a76400000281151561189757fe5b04106118c2576103e88382670de0b6b3a7640000028115156118b557fe5b0460a80281151561166d57fe5b668700cc757700008382670de0b6b3a7640000028115156118df57fe5b041061190a576103e88382670de0b6b3a7640000028115156118fd57fe5b04609b0281151561166d57fe5b6658d15e176280008382670de0b6b3a76400000281151561192757fe5b0410611952576103e88382670de0b6b3a76400000281151561194557fe5b04608e0281151561166d57fe5b604080517f08c379a000000000000000000000000000000000000000000000000000000000815260206004820152601f60248201527f4554485f42454c4f575f322e355f50455243454e545f41554d5f4552524f5200604482015290519081900360640190fd5b6000828211156119c557fe5b50900390565b60008082116119d657fe5b600082848115156119e357fe5b04905082848115156119f157fe5b0681840201841415156115a557fe5b600082820183811080159061159d5750828110156115a557fe5b600154604080517fc277f1ac000000000000000000000000000000000000000000000000000000008152600481018690529051600092839273ffffffffffffffffffffffffffffffffffffffff9091169163c277f1ac916024808201928692909190829003018186803b158015611a9057600080fd5b505afa158015611aa4573d6000803e3d6000fd5b505050506040513d6000823e601f3d9081017fffffffffffffffffffffffffffffffffffffffffffffffffffffffffffffffe016820160405260c0811015611aeb57600080fd5b815160208301805191939283019291640100000000811115611b0c57600080fd5b82016020810184811115611b1f57600080fd5b8151640100000000811182820187101715611b3957600080fd5b50509291906020018051640100000000811115611b5557600080fd5b82016020810184811115611b6857600080fd5b8151640100000000811182820187101715611b8257600080fd5b505060008054604080517f8da5cb5b000000000000000000000000000000000000000000000000000000008152905198995091976301e1338097508c965073ffffffffffffffffffffffffffffffffffffffff610100909204821695506370a0823194509089169250638da5cb5b91600480820192602092909190829003018186803b158015611c1157600080fd5b505afa158015611c25573d6000803e3d6000fd5b505050506040513d6020811015611c3b57600080fd5b5051604080517c010000000000000000000000000000000000000000000000000000000063ffffffff851602815273ffffffffffffffffffffffffffffffffffffffff9092166004830152516024808301926020929190829003018186803b158015611ca657600080fd5b505afa158015611cba573d6000803e3d6000fd5b505050506040513d6020811015611cd057600080fd5b505102811515611cdc57fe5b049050611ce76114c5565b73ffffffffffffffffffffffffffffffffffffffff1663ff54a8e06040518163ffffffff167c010000000000000000000000000000000000000000000000000000000002815260040160206040518083038186803b158015611d4857600080fd5b505afa158015611d5c573d6000803e3d6000fd5b505050506040513d6020811015611d7257600080fd5b5051811015611de257604080517f08c379a000000000000000000000000000000000000000000000000000000000815260206004820152601860248201527f5354414b45445f4752475f42454c4f575f4d494e494d554d0000000000000000604482015290519081900360640190fd5b808410611df2579150611f7f9050565b670b1a2bc2ec5000008185670de0b6b3a764000002811515611e1057fe5b0410611e29576103e861035e82025b0492505050611f7f565b670853a0d2313c00008185670de0b6b3a764000002811515611e4757fe5b0410611e5a576103e86102c78202611e1f565b670429d069189e00008185670de0b6b3a764000002811515611e7857fe5b0410611e8b576103e86101c08202611e1f565b6702c68af0bb1400008185670de0b6b3a764000002811515611ea957fe5b0410611ebc576103e86101568202611e1f565b67016345785d8a00008185670de0b6b3a764000002811515611eda57fe5b0410611eec576103e860d78202611e1f565b662386f26fc100008185670de0b6b3a764000002811515611f0957fe5b0410611f1b576103e8602e8202611e1f565b6611c37937e080008185670de0b6b3a764000002811515611f3857fe5b0410611f4a576103e8601d8202611e1f565b6611c37937e080008185678ac7230489e8000002811515611f6757fe5b0410611f79576103e860068202611e1f565b83925050505b939250505056fe4554485f42414c414e43455f4849474845525f5448414e5f41554d5f4f525f445553545f4552524f52504f4f4c5f50524943455f4f525f544f54414c5f535550504c595f4e554c4c5f4552524f52a165627a7a7230582063bed387b33b61391ea4bd9b0acb983c9ac5d61daa9a43964512b1c08007d5e30029",
				"opcodes": "PUSH1 0x80 PUSH1 0x40 MSTORE PUSH1 0x0 DUP1 SLOAD PUSH1 0xFF NOT AND SWAP1 SSTORE CALLVALUE DUP1 ISZERO PUSH2 0x1A JUMPI PUSH1 0x0 DUP1 REVERT JUMPDEST POP PUSH1 0x40 MLOAD PUSH1 0x60 DUP1 PUSH2 0x209F DUP4 CODECOPY DUP2 ADD DUP1 PUSH1 0x40 MSTORE PUSH1 0x60 DUP2 LT ISZERO PUSH2 0x3A JUMPI PUSH1 0x0 DUP1 REVERT JUMPDEST POP DUP1 MLOAD PUSH1 0x20 DUP3 ADD MLOAD PUSH1 0x40 SWAP1 SWAP3 ADD MLOAD PUSH1 0x0 DUP1 SLOAD PUSH1 0x1 PUSH1 0xA0 PUSH1 0x2 EXP SUB SWAP4 DUP5 AND PUSH2 0x100 MUL PUSH2 0x100 PUSH1 0xA8 PUSH1 0x2 EXP SUB NOT SWAP1 SWAP2 AND OR SWAP1 SSTORE PUSH1 0x2 DUP1 SLOAD SWAP4 DUP4 AND PUSH1 0x1 PUSH1 0xA0 PUSH1 0x2 EXP SUB NOT SWAP5 DUP6 AND OR SWAP1 SSTORE PUSH1 0x1 DUP1 SLOAD SWAP3 SWAP1 SWAP2 AND SWAP2 SWAP1 SWAP3 AND OR SWAP1 SSTORE PUSH2 0x2000 DUP1 PUSH2 0x9F PUSH1 0x0 CODECOPY PUSH1 0x0 RETURN INVALID PUSH1 0x80 PUSH1 0x40 MSTORE CALLVALUE DUP1 ISZERO PUSH2 0x10 JUMPI PUSH1 0x0 DUP1 REVERT JUMPDEST POP PUSH1 0x4 CALLDATASIZE LT PUSH2 0x11D JUMPI PUSH1 0x0 CALLDATALOAD PUSH29 0x100000000000000000000000000000000000000000000000000000000 SWAP1 DIV DUP1 PUSH4 0x9AF94F30 GT PUSH2 0xB4 JUMPI DUP1 PUSH4 0xBB76BD29 GT PUSH2 0x83 JUMPI DUP1 PUSH4 0xBB76BD29 EQ PUSH2 0x339 JUMPI DUP1 PUSH4 0xD21C87AD EQ PUSH2 0x341 JUMPI DUP1 PUSH4 0xD418634A EQ PUSH2 0x3C0 JUMPI DUP1 PUSH4 0xDC5D2799 EQ PUSH2 0x3DD JUMPI PUSH2 0x11D JUMP JUMPDEST DUP1 PUSH4 0x9AF94F30 EQ PUSH2 0x2AE JUMPI DUP1 PUSH4 0xA6C9C443 EQ PUSH2 0x2CB JUMPI DUP1 PUSH4 0xA91EE0DC EQ PUSH2 0x2D3 JUMPI DUP1 PUSH4 0xB516E6E1 EQ PUSH2 0x306 JUMPI PUSH2 0x11D JUMP JUMPDEST DUP1 PUSH4 0x427FDC0C GT PUSH2 0xF0 JUMPI DUP1 PUSH4 0x427FDC0C EQ PUSH2 0x20D JUMPI DUP1 PUSH4 0x46A62EAF EQ PUSH2 0x22A JUMPI DUP1 PUSH4 0x4D749E43 EQ PUSH2 0x247 JUMPI DUP1 PUSH4 0x82AFD23B EQ PUSH2 0x27D JUMPI PUSH2 0x11D JUMP JUMPDEST DUP1 PUSH4 0x5752047 EQ PUSH2 0x122 JUMPI DUP1 PUSH4 0x249D9123 EQ PUSH2 0x15D JUMPI DUP1 PUSH4 0x360DAFA0 EQ PUSH2 0x18C JUMPI DUP1 PUSH4 0x3EDD80C3 EQ PUSH2 0x1DC JUMPI JUMPDEST PUSH1 0x0 DUP1 REVERT JUMPDEST PUSH2 0x15B PUSH1 0x4 DUP1 CALLDATASIZE SUB PUSH1 0x40 DUP2 LT ISZERO PUSH2 0x138 JUMPI PUSH1 0x0 DUP1 REVERT JUMPDEST POP PUSH20 0xFFFFFFFFFFFFFFFFFFFFFFFFFFFFFFFFFFFFFFFF DUP2 CALLDATALOAD AND SWAP1 PUSH1 0x20 ADD CALLDATALOAD PUSH2 0x3FA JUMP JUMPDEST STOP JUMPDEST PUSH2 0x17A PUSH1 0x4 DUP1 CALLDATASIZE SUB PUSH1 0x20 DUP2 LT ISZERO PUSH2 0x173 JUMPI PUSH1 0x0 DUP1 REVERT JUMPDEST POP CALLDATALOAD PUSH2 0x51A JUMP JUMPDEST PUSH1 0x40 DUP1 MLOAD SWAP2 DUP3 MSTORE MLOAD SWAP1 DUP2 SWAP1 SUB PUSH1 0x20 ADD SWAP1 RETURN JUMPDEST PUSH2 0x1A9 PUSH1 0x4 DUP1 CALLDATASIZE SUB PUSH1 0x20 DUP2 LT ISZERO PUSH2 0x1A2 JUMPI PUSH1 0x0 DUP1 REVERT JUMPDEST POP CALLDATALOAD PUSH2 0x52D JUMP JUMPDEST PUSH1 0x40 DUP1 MLOAD PUSH20 0xFFFFFFFFFFFFFFFFFFFFFFFFFFFFFFFFFFFFFFFF SWAP4 DUP5 AND DUP2 MSTORE SWAP2 SWAP1 SWAP3 AND PUSH1 0x20 DUP3 ADD MSTORE DUP2 MLOAD SWAP1 DUP2 SWAP1 SUB SWAP1 SWAP2 ADD SWAP1 RETURN JUMPDEST PUSH2 0x1E4 PUSH2 0x542 JUMP JUMPDEST PUSH1 0x40 DUP1 MLOAD PUSH20 0xFFFFFFFFFFFFFFFFFFFFFFFFFFFFFFFFFFFFFFFF SWAP1 SWAP3 AND DUP3 MSTORE MLOAD SWAP1 DUP2 SWAP1 SUB PUSH1 0x20 ADD SWAP1 RETURN JUMPDEST PUSH2 0x17A PUSH1 0x4 DUP1 CALLDATASIZE SUB PUSH1 0x20 DUP2 LT ISZERO PUSH2 0x223 JUMPI PUSH1 0x0 DUP1 REVERT JUMPDEST POP CALLDATALOAD PUSH2 0x55E JUMP JUMPDEST PUSH2 0x17A PUSH1 0x4 DUP1 CALLDATASIZE SUB PUSH1 0x20 DUP2 LT ISZERO PUSH2 0x240 JUMPI PUSH1 0x0 DUP1 REVERT JUMPDEST POP CALLDATALOAD PUSH2 0x571 JUMP JUMPDEST PUSH2 0x264 PUSH1 0x4 DUP1 CALLDATASIZE SUB PUSH1 0x20 DUP2 LT ISZERO PUSH2 0x25D JUMPI PUSH1 0x0 DUP1 REVERT JUMPDEST POP CALLDATALOAD PUSH2 0x586 JUMP JUMPDEST PUSH1 0x40 DUP1 MLOAD SWAP3 DUP4 MSTORE PUSH1 0x20 DUP4 ADD SWAP2 SWAP1 SWAP2 MSTORE DUP1 MLOAD SWAP2 DUP3 SWAP1 SUB ADD SWAP1 RETURN JUMPDEST PUSH2 0x29A PUSH1 0x4 DUP1 CALLDATASIZE SUB PUSH1 0x20 DUP2 LT ISZERO PUSH2 0x293 JUMPI PUSH1 0x0 DUP1 REVERT JUMPDEST POP CALLDATALOAD PUSH2 0x592 JUMP JUMPDEST PUSH1 0x40 DUP1 MLOAD SWAP2 ISZERO ISZERO DUP3 MSTORE MLOAD SWAP1 DUP2 SWAP1 SUB PUSH1 0x20 ADD SWAP1 RETURN JUMPDEST PUSH2 0x264 PUSH1 0x4 DUP1 CALLDATASIZE SUB PUSH1 0x20 DUP2 LT ISZERO PUSH2 0x2C4 JUMPI PUSH1 0x0 DUP1 REVERT JUMPDEST POP CALLDATALOAD PUSH2 0x59D JUMP JUMPDEST PUSH2 0x1E4 PUSH2 0x5B4 JUMP JUMPDEST PUSH2 0x15B PUSH1 0x4 DUP1 CALLDATASIZE SUB PUSH1 0x20 DUP2 LT ISZERO PUSH2 0x2E9 JUMPI PUSH1 0x0 DUP1 REVERT JUMPDEST POP CALLDATALOAD PUSH20 0xFFFFFFFFFFFFFFFFFFFFFFFFFFFFFFFFFFFFFFFF AND PUSH2 0x5D5 JUMP JUMPDEST PUSH2 0x15B PUSH1 0x4 DUP1 CALLDATASIZE SUB PUSH1 0x20 DUP2 LT ISZERO PUSH2 0x31C JUMPI PUSH1 0x0 DUP1 REVERT JUMPDEST POP CALLDATALOAD PUSH20 0xFFFFFFFFFFFFFFFFFFFFFFFFFFFFFFFFFFFFFFFF AND PUSH2 0x6A2 JUMP JUMPDEST PUSH2 0x1E4 PUSH2 0x76F JUMP JUMPDEST PUSH2 0x35E PUSH1 0x4 DUP1 CALLDATASIZE SUB PUSH1 0x20 DUP2 LT ISZERO PUSH2 0x357 JUMPI PUSH1 0x0 DUP1 REVERT JUMPDEST POP CALLDATALOAD PUSH2 0x78B JUMP JUMPDEST PUSH1 0x40 DUP1 MLOAD SWAP10 ISZERO ISZERO DUP11 MSTORE PUSH20 0xFFFFFFFFFFFFFFFFFFFFFFFFFFFFFFFFFFFFFFFF SWAP9 DUP10 AND PUSH1 0x20 DUP12 ADD MSTORE SWAP7 SWAP1 SWAP8 AND DUP9 DUP8 ADD MSTORE PUSH1 0x60 DUP9 ADD SWAP5 SWAP1 SWAP5 MSTORE PUSH1 0x80 DUP8 ADD SWAP3 SWAP1 SWAP3 MSTORE PUSH1 0xA0 DUP7 ADD MSTORE PUSH1 0xC0 DUP6 ADD MSTORE PUSH1 0xE0 DUP5 ADD MSTORE PUSH2 0x100 DUP4 ADD SWAP2 SWAP1 SWAP2 MSTORE MLOAD SWAP1 DUP2 SWAP1 SUB PUSH2 0x120 ADD SWAP1 RETURN JUMPDEST PUSH2 0x17A PUSH1 0x4 DUP1 CALLDATASIZE SUB PUSH1 0x20 DUP2 LT ISZERO PUSH2 0x3D6 JUMPI PUSH1 0x0 DUP1 REVERT JUMPDEST POP CALLDATALOAD PUSH2 0x7EC JUMP JUMPDEST PUSH2 0x15B PUSH1 0x4 DUP1 CALLDATASIZE SUB PUSH1 0x20 DUP2 LT ISZERO PUSH2 0x3F3 JUMPI PUSH1 0x0 DUP1 REVERT JUMPDEST POP CALLDATALOAD PUSH2 0x802 JUMP JUMPDEST PUSH1 0x2 SLOAD PUSH20 0xFFFFFFFFFFFFFFFFFFFFFFFFFFFFFFFFFFFFFFFF AND CALLER EQ PUSH2 0x480 JUMPI PUSH1 0x40 DUP1 MLOAD PUSH32 0x8C379A000000000000000000000000000000000000000000000000000000000 DUP2 MSTORE PUSH1 0x20 PUSH1 0x4 DUP3 ADD MSTORE PUSH1 0x12 PUSH1 0x24 DUP3 ADD MSTORE PUSH32 0x4F4E4C595F5249474F424C4F434B5F44414F0000000000000000000000000000 PUSH1 0x44 DUP3 ADD MSTORE SWAP1 MLOAD SWAP1 DUP2 SWAP1 SUB PUSH1 0x64 ADD SWAP1 REVERT JUMPDEST PUSH2 0x2710 DUP2 GT ISZERO PUSH2 0x4F1 JUMPI PUSH1 0x40 DUP1 MLOAD PUSH32 0x8C379A000000000000000000000000000000000000000000000000000000000 DUP2 MSTORE PUSH1 0x20 PUSH1 0x4 DUP3 ADD MSTORE PUSH1 0x17 PUSH1 0x24 DUP3 ADD MSTORE PUSH32 0x524154494F5F4249474745525F5448414E5F3130303030000000000000000000 PUSH1 0x44 DUP3 ADD MSTORE SWAP1 MLOAD SWAP1 DUP2 SWAP1 SUB PUSH1 0x64 ADD SWAP1 REVERT JUMPDEST PUSH20 0xFFFFFFFFFFFFFFFFFFFFFFFFFFFFFFFFFFFFFFFF SWAP1 SWAP2 AND PUSH1 0x0 SWAP1 DUP2 MSTORE PUSH1 0x4 PUSH1 0x20 MSTORE PUSH1 0x40 SWAP1 KECCAK256 SSTORE JUMP JUMPDEST PUSH1 0x0 PUSH2 0x525 DUP3 PUSH2 0xCA4 JUMP JUMPDEST SWAP1 POP JUMPDEST SWAP2 SWAP1 POP JUMP JUMPDEST PUSH1 0x0 DUP1 PUSH2 0x539 DUP4 PUSH2 0xCDD JUMP JUMPDEST SWAP2 POP SWAP2 POP SWAP2 POP SWAP2 JUMP JUMPDEST PUSH1 0x2 SLOAD PUSH20 0xFFFFFFFFFFFFFFFFFFFFFFFFFFFFFFFFFFFFFFFF AND DUP2 JUMP JUMPDEST PUSH1 0x0 PUSH2 0x569 DUP3 PUSH2 0xE5C JUMP JUMPDEST SWAP5 SWAP4 POP POP POP POP JUMP JUMPDEST PUSH1 0x0 DUP1 PUSH2 0x57D DUP4 PUSH2 0x1021 JUMP JUMPDEST SWAP6 SWAP5 POP POP POP POP POP JUMP JUMPDEST PUSH1 0x0 DUP1 PUSH2 0x539 DUP4 PUSH2 0x11C7 JUMP JUMPDEST PUSH1 0x0 PUSH2 0x525 DUP3 PUSH2 0x1324 JUMP JUMPDEST PUSH1 0x0 DUP1 PUSH2 0x5A9 DUP4 PUSH2 0xE5C JUMP JUMPDEST POP SWAP1 SWAP5 SWAP1 SWAP4 POP SWAP2 POP POP JUMP JUMPDEST PUSH1 0x0 SLOAD PUSH2 0x100 SWAP1 DIV PUSH20 0xFFFFFFFFFFFFFFFFFFFFFFFFFFFFFFFFFFFFFFFF AND DUP2 JUMP JUMPDEST PUSH1 0x2 SLOAD PUSH20 0xFFFFFFFFFFFFFFFFFFFFFFFFFFFFFFFFFFFFFFFF AND CALLER EQ PUSH2 0x65B JUMPI PUSH1 0x40 DUP1 MLOAD PUSH32 0x8C379A000000000000000000000000000000000000000000000000000000000 DUP2 MSTORE PUSH1 0x20 PUSH1 0x4 DUP3 ADD MSTORE PUSH1 0x12 PUSH1 0x24 DUP3 ADD MSTORE PUSH32 0x4F4E4C595F5249474F424C4F434B5F44414F0000000000000000000000000000 PUSH1 0x44 DUP3 ADD MSTORE SWAP1 MLOAD SWAP1 DUP2 SWAP1 SUB PUSH1 0x64 ADD SWAP1 REVERT JUMPDEST PUSH1 0x1 DUP1 SLOAD PUSH32 0xFFFFFFFFFFFFFFFFFFFFFFFF0000000000000000000000000000000000000000 AND PUSH20 0xFFFFFFFFFFFFFFFFFFFFFFFFFFFFFFFFFFFFFFFF SWAP3 SWAP1 SWAP3 AND SWAP2 SWAP1 SWAP2 OR SWAP1 SSTORE JUMP JUMPDEST PUSH1 0x2 SLOAD PUSH20 0xFFFFFFFFFFFFFFFFFFFFFFFFFFFFFFFFFFFFFFFF AND CALLER EQ PUSH2 0x728 JUMPI PUSH1 0x40 DUP1 MLOAD PUSH32 0x8C379A000000000000000000000000000000000000000000000000000000000 DUP2 MSTORE PUSH1 0x20 PUSH1 0x4 DUP3 ADD MSTORE PUSH1 0x12 PUSH1 0x24 DUP3 ADD MSTORE PUSH32 0x4F4E4C595F5249474F424C4F434B5F44414F0000000000000000000000000000 PUSH1 0x44 DUP3 ADD MSTORE SWAP1 MLOAD SWAP1 DUP2 SWAP1 SUB PUSH1 0x64 ADD SWAP1 REVERT JUMPDEST PUSH1 0x2 DUP1 SLOAD PUSH32 0xFFFFFFFFFFFFFFFFFFFFFFFF0000000000000000000000000000000000000000 AND PUSH20 0xFFFFFFFFFFFFFFFFFFFFFFFFFFFFFFFFFFFFFFFF SWAP3 SWAP1 SWAP3 AND SWAP2 SWAP1 SWAP2 OR SWAP1 SSTORE JUMP JUMPDEST PUSH1 0x1 SLOAD PUSH20 0xFFFFFFFFFFFFFFFFFFFFFFFFFFFFFFFFFFFFFFFF AND DUP2 JUMP JUMPDEST PUSH1 0x0 DUP1 PUSH1 0x0 DUP1 PUSH1 0x0 DUP1 PUSH1 0x0 DUP1 PUSH1 0x0 PUSH2 0x7A2 DUP11 PUSH2 0x1324 JUMP JUMPDEST SWAP9 POP PUSH2 0x7AD DUP11 PUSH2 0xCDD JUMP JUMPDEST SWAP1 SWAP9 POP SWAP7 POP PUSH2 0x7BB DUP11 PUSH2 0xE5C JUMP JUMPDEST SWAP2 SWAP8 POP SWAP6 POP SWAP4 POP PUSH2 0x7CB DUP11 PUSH2 0x1021 JUMP JUMPDEST SWAP2 SWAP5 POP SWAP1 SWAP3 POP PUSH2 0x7DC SWAP1 POP DUP11 PUSH2 0x11C7 JUMP JUMPDEST POP SWAP1 POP SWAP2 SWAP4 SWAP6 SWAP8 SWAP10 SWAP1 SWAP3 SWAP5 SWAP7 SWAP9 POP JUMP JUMPDEST PUSH1 0x0 DUP1 PUSH2 0x7F8 DUP4 PUSH2 0x1021 JUMP JUMPDEST POP SWAP1 SWAP5 SWAP4 POP POP POP POP JUMP JUMPDEST PUSH1 0x0 SLOAD PUSH1 0xFF AND ISZERO PUSH2 0x874 JUMPI PUSH1 0x40 DUP1 MLOAD PUSH32 0x8C379A000000000000000000000000000000000000000000000000000000000 DUP2 MSTORE PUSH1 0x20 PUSH1 0x4 DUP3 ADD MSTORE PUSH1 0x12 PUSH1 0x24 DUP3 ADD MSTORE PUSH32 0x5245454E5452414E43595F494C4C4547414C0000000000000000000000000000 PUSH1 0x44 DUP3 ADD MSTORE SWAP1 MLOAD SWAP1 DUP2 SWAP1 SUB PUSH1 0x64 ADD SWAP1 REVERT JUMPDEST PUSH1 0x0 DUP1 SLOAD PUSH32 0xFFFFFFFFFFFFFFFFFFFFFFFFFFFFFFFFFFFFFFFFFFFFFFFFFFFFFFFFFFFFFF00 AND PUSH1 0x1 SWAP1 DUP2 OR DUP3 SSTORE SLOAD PUSH1 0x40 DUP1 MLOAD PUSH32 0xC277F1AC00000000000000000000000000000000000000000000000000000000 DUP2 MSTORE PUSH1 0x4 DUP2 ADD DUP6 SWAP1 MSTORE SWAP1 MLOAD PUSH20 0xFFFFFFFFFFFFFFFFFFFFFFFFFFFFFFFFFFFFFFFF SWAP1 SWAP3 AND SWAP3 SWAP2 DUP4 SWAP2 PUSH4 0xC277F1AC SWAP2 PUSH1 0x24 DUP1 DUP4 ADD SWAP3 DUP7 SWAP3 SWAP2 SWAP1 DUP3 SWAP1 SUB ADD DUP2 DUP7 DUP1 EXTCODESIZE ISZERO DUP1 ISZERO PUSH2 0x912 JUMPI PUSH1 0x0 DUP1 REVERT JUMPDEST POP GAS STATICCALL ISZERO DUP1 ISZERO PUSH2 0x926 JUMPI RETURNDATASIZE PUSH1 0x0 DUP1 RETURNDATACOPY RETURNDATASIZE PUSH1 0x0 REVERT JUMPDEST POP POP POP POP PUSH1 0x40 MLOAD RETURNDATASIZE PUSH1 0x0 DUP3 RETURNDATACOPY PUSH1 0x1F RETURNDATASIZE SWAP1 DUP2 ADD PUSH32 0xFFFFFFFFFFFFFFFFFFFFFFFFFFFFFFFFFFFFFFFFFFFFFFFFFFFFFFFFFFFFFFE0 AND DUP3 ADD PUSH1 0x40 MSTORE PUSH1 0xC0 DUP2 LT ISZERO PUSH2 0x96D JUMPI PUSH1 0x0 DUP1 REVERT JUMPDEST DUP2 MLOAD PUSH1 0x20 DUP4 ADD DUP1 MLOAD SWAP2 SWAP4 SWAP3 DUP4 ADD SWAP3 SWAP2 PUSH5 0x100000000 DUP2 GT ISZERO PUSH2 0x98E JUMPI PUSH1 0x0 DUP1 REVERT JUMPDEST DUP3 ADD PUSH1 0x20 DUP2 ADD DUP5 DUP2 GT ISZERO PUSH2 0x9A1 JUMPI PUSH1 0x0 DUP1 REVERT JUMPDEST DUP2 MLOAD PUSH5 0x100000000 DUP2 GT DUP3 DUP3 ADD DUP8 LT OR ISZERO PUSH2 0x9BB JUMPI PUSH1 0x0 DUP1 REVERT JUMPDEST POP POP SWAP3 SWAP2 SWAP1 PUSH1 0x20 ADD DUP1 MLOAD PUSH5 0x100000000 DUP2 GT ISZERO PUSH2 0x9D7 JUMPI PUSH1 0x0 DUP1 REVERT JUMPDEST DUP3 ADD PUSH1 0x20 DUP2 ADD DUP5 DUP2 GT ISZERO PUSH2 0x9EA JUMPI PUSH1 0x0 DUP1 REVERT JUMPDEST DUP2 MLOAD PUSH5 0x100000000 DUP2 GT DUP3 DUP3 ADD DUP8 LT OR ISZERO PUSH2 0xA04 JUMPI PUSH1 0x0 DUP1 REVERT JUMPDEST POP SWAP6 SWAP7 POP PUSH1 0x0 SWAP6 POP PUSH2 0xA1D SWAP5 POP DUP9 SWAP4 POP PUSH2 0x11C7 SWAP3 POP POP POP JUMP JUMPDEST POP SWAP1 POP PUSH1 0x0 DUP2 GT PUSH2 0xA8F JUMPI PUSH1 0x40 DUP1 MLOAD PUSH32 0x8C379A000000000000000000000000000000000000000000000000000000000 DUP2 MSTORE PUSH1 0x20 PUSH1 0x4 DUP3 ADD MSTORE PUSH1 0x12 PUSH1 0x24 DUP3 ADD MSTORE PUSH32 0x504F505F5245574152445F49535F4E554C4C0000000000000000000000000000 PUSH1 0x44 DUP3 ADD MSTORE SWAP1 MLOAD SWAP1 DUP2 SWAP1 SUB PUSH1 0x64 ADD SWAP1 REVERT JUMPDEST PUSH1 0x0 DUP3 PUSH20 0xFFFFFFFFFFFFFFFFFFFFFFFFFFFFFFFFFFFFFFFF AND PUSH4 0x9489FA84 PUSH1 0x40 MLOAD DUP2 PUSH4 0xFFFFFFFF AND PUSH29 0x100000000000000000000000000000000000000000000000000000000 MUL DUP2 MSTORE PUSH1 0x4 ADD PUSH1 0x20 PUSH1 0x40 MLOAD DUP1 DUP4 SUB DUP2 DUP7 DUP1 EXTCODESIZE ISZERO DUP1 ISZERO PUSH2 0xAF3 JUMPI PUSH1 0x0 DUP1 REVERT JUMPDEST POP GAS STATICCALL ISZERO DUP1 ISZERO PUSH2 0xB07 JUMPI RETURNDATASIZE PUSH1 0x0 DUP1 RETURNDATACOPY RETURNDATASIZE PUSH1 0x0 REVERT JUMPDEST POP POP POP POP PUSH1 0x40 MLOAD RETURNDATASIZE PUSH1 0x20 DUP2 LT ISZERO PUSH2 0xB1D JUMPI PUSH1 0x0 DUP1 REVERT JUMPDEST POP MLOAD PUSH1 0x0 DUP7 DUP2 MSTORE PUSH1 0x3 PUSH1 0x20 MSTORE PUSH1 0x40 SWAP1 KECCAK256 DUP2 SWAP1 SSTORE SWAP1 POP PUSH2 0xB3A PUSH2 0x14C5 JUMP JUMPDEST PUSH20 0xFFFFFFFFFFFFFFFFFFFFFFFFFFFFFFFFFFFFFFFF AND PUSH4 0xBE5DDB99 DUP5 DUP5 PUSH1 0x40 MLOAD DUP4 PUSH4 0xFFFFFFFF AND PUSH29 0x100000000000000000000000000000000000000000000000000000000 MUL DUP2 MSTORE PUSH1 0x4 ADD DUP1 DUP4 PUSH20 0xFFFFFFFFFFFFFFFFFFFFFFFFFFFFFFFFFFFFFFFF AND PUSH20 0xFFFFFFFFFFFFFFFFFFFFFFFFFFFFFFFFFFFFFFFF AND DUP2 MSTORE PUSH1 0x20 ADD DUP3 DUP2 MSTORE PUSH1 0x20 ADD SWAP3 POP POP POP PUSH1 0x20 PUSH1 0x40 MLOAD DUP1 DUP4 SUB DUP2 PUSH1 0x0 DUP8 DUP1 EXTCODESIZE ISZERO DUP1 ISZERO PUSH2 0xBDC JUMPI PUSH1 0x0 DUP1 REVERT JUMPDEST POP GAS CALL ISZERO DUP1 ISZERO PUSH2 0xBF0 JUMPI RETURNDATASIZE PUSH1 0x0 DUP1 RETURNDATACOPY RETURNDATASIZE PUSH1 0x0 REVERT JUMPDEST POP POP POP POP PUSH1 0x40 MLOAD RETURNDATASIZE PUSH1 0x20 DUP2 LT ISZERO PUSH2 0xC06 JUMPI PUSH1 0x0 DUP1 REVERT JUMPDEST POP MLOAD ISZERO ISZERO PUSH2 0xC75 JUMPI PUSH1 0x40 DUP1 MLOAD PUSH32 0x8C379A000000000000000000000000000000000000000000000000000000000 DUP2 MSTORE PUSH1 0x20 PUSH1 0x4 DUP3 ADD MSTORE PUSH1 0x14 PUSH1 0x24 DUP3 ADD MSTORE PUSH32 0x4D494E545F494E464C4154494F4E5F4552524F52000000000000000000000000 PUSH1 0x44 DUP3 ADD MSTORE SWAP1 MLOAD SWAP1 DUP2 SWAP1 SUB PUSH1 0x64 ADD SWAP1 REVERT JUMPDEST POP POP PUSH1 0x0 DUP1 SLOAD PUSH32 0xFFFFFFFFFFFFFFFFFFFFFFFFFFFFFFFFFFFFFFFFFFFFFFFFFFFFFFFFFFFFFF00 AND SWAP1 SSTORE POP POP POP JUMP JUMPDEST PUSH1 0x0 DUP2 DUP2 MSTORE PUSH1 0x3 PUSH1 0x20 MSTORE PUSH1 0x40 DUP2 KECCAK256 SLOAD ISZERO ISZERO PUSH2 0xCC8 JUMPI POP PUSH8 0xDE0B6B3A7640000 PUSH2 0x528 JUMP JUMPDEST POP PUSH1 0x0 DUP2 DUP2 MSTORE PUSH1 0x3 PUSH1 0x20 MSTORE PUSH1 0x40 SWAP1 KECCAK256 SLOAD PUSH2 0x528 JUMP JUMPDEST PUSH1 0x1 SLOAD PUSH1 0x40 DUP1 MLOAD PUSH32 0xC277F1AC00000000000000000000000000000000000000000000000000000000 DUP2 MSTORE PUSH1 0x4 DUP2 ADD DUP5 SWAP1 MSTORE SWAP1 MLOAD PUSH1 0x0 SWAP3 DUP4 SWAP3 PUSH20 0xFFFFFFFFFFFFFFFFFFFFFFFFFFFFFFFFFFFFFFFF SWAP1 SWAP2 AND SWAP2 DUP3 SWAP2 PUSH4 0xC277F1AC SWAP2 PUSH1 0x24 DUP1 DUP4 ADD SWAP3 DUP8 SWAP3 SWAP2 SWAP1 DUP3 SWAP1 SUB ADD DUP2 DUP7 DUP1 EXTCODESIZE ISZERO DUP1 ISZERO PUSH2 0xD54 JUMPI PUSH1 0x0 DUP1 REVERT JUMPDEST POP GAS STATICCALL ISZERO DUP1 ISZERO PUSH2 0xD68 JUMPI RETURNDATASIZE PUSH1 0x0 DUP1 RETURNDATACOPY RETURNDATASIZE PUSH1 0x0 REVERT JUMPDEST POP POP POP POP PUSH1 0x40 MLOAD RETURNDATASIZE PUSH1 0x0 DUP3 RETURNDATACOPY PUSH1 0x1F RETURNDATASIZE SWAP1 DUP2 ADD PUSH32 0xFFFFFFFFFFFFFFFFFFFFFFFFFFFFFFFFFFFFFFFFFFFFFFFFFFFFFFFFFFFFFFE0 AND DUP3 ADD PUSH1 0x40 MSTORE PUSH1 0xC0 DUP2 LT ISZERO PUSH2 0xDAF JUMPI PUSH1 0x0 DUP1 REVERT JUMPDEST DUP2 MLOAD PUSH1 0x20 DUP4 ADD DUP1 MLOAD SWAP2 SWAP4 SWAP3 DUP4 ADD SWAP3 SWAP2 PUSH5 0x100000000 DUP2 GT ISZERO PUSH2 0xDD0 JUMPI PUSH1 0x0 DUP1 REVERT JUMPDEST DUP3 ADD PUSH1 0x20 DUP2 ADD DUP5 DUP2 GT ISZERO PUSH2 0xDE3 JUMPI PUSH1 0x0 DUP1 REVERT JUMPDEST DUP2 MLOAD PUSH5 0x100000000 DUP2 GT DUP3 DUP3 ADD DUP8 LT OR ISZERO PUSH2 0xDFD JUMPI PUSH1 0x0 DUP1 REVERT JUMPDEST POP POP SWAP3 SWAP2 SWAP1 PUSH1 0x20 ADD DUP1 MLOAD PUSH5 0x100000000 DUP2 GT ISZERO PUSH2 0xE19 JUMPI PUSH1 0x0 DUP1 REVERT JUMPDEST DUP3 ADD PUSH1 0x20 DUP2 ADD DUP5 DUP2 GT ISZERO PUSH2 0xE2C JUMPI PUSH1 0x0 DUP1 REVERT JUMPDEST DUP2 MLOAD PUSH5 0x100000000 DUP2 GT DUP3 DUP3 ADD DUP8 LT OR ISZERO PUSH2 0xE46 JUMPI PUSH1 0x0 DUP1 REVERT JUMPDEST POP POP POP PUSH1 0x60 ADD MLOAD SWAP4 SWAP7 POP SWAP3 SWAP5 POP POP POP POP POP SWAP2 POP SWAP2 JUMP JUMPDEST PUSH1 0x0 DUP1 PUSH1 0x0 DUP1 PUSH2 0xE6B DUP6 PUSH2 0xCDD JUMP JUMPDEST POP SWAP1 POP PUSH1 0x0 DUP2 SWAP1 POP DUP1 PUSH20 0xFFFFFFFFFFFFFFFFFFFFFFFFFFFFFFFFFFFFFFFF AND PUSH4 0x9489FA84 PUSH1 0x40 MLOAD DUP2 PUSH4 0xFFFFFFFF AND PUSH29 0x100000000000000000000000000000000000000000000000000000000 MUL DUP2 MSTORE PUSH1 0x4 ADD PUSH1 0x20 PUSH1 0x40 MLOAD DUP1 DUP4 SUB DUP2 DUP7 DUP1 EXTCODESIZE ISZERO DUP1 ISZERO PUSH2 0xED5 JUMPI PUSH1 0x0 DUP1 REVERT JUMPDEST POP GAS STATICCALL ISZERO DUP1 ISZERO PUSH2 0xEE9 JUMPI RETURNDATASIZE PUSH1 0x0 DUP1 RETURNDATACOPY RETURNDATASIZE PUSH1 0x0 REVERT JUMPDEST POP POP POP POP PUSH1 0x40 MLOAD RETURNDATASIZE PUSH1 0x20 DUP2 LT ISZERO PUSH2 0xEFF JUMPI PUSH1 0x0 DUP1 REVERT JUMPDEST POP MLOAD PUSH1 0x40 DUP1 MLOAD PUSH32 0x18160DDD00000000000000000000000000000000000000000000000000000000 DUP2 MSTORE SWAP1 MLOAD SWAP2 SWAP7 POP PUSH20 0xFFFFFFFFFFFFFFFFFFFFFFFFFFFFFFFFFFFFFFFF DUP4 AND SWAP2 PUSH4 0x18160DDD SWAP2 PUSH1 0x4 DUP1 DUP3 ADD SWAP3 PUSH1 0x20 SWAP3 SWAP1 SWAP2 SWAP1 DUP3 SWAP1 SUB ADD DUP2 DUP7 DUP1 EXTCODESIZE ISZERO DUP1 ISZERO PUSH2 0xF6B JUMPI PUSH1 0x0 DUP1 REVERT JUMPDEST POP GAS STATICCALL ISZERO DUP1 ISZERO PUSH2 0xF7F JUMPI RETURNDATASIZE PUSH1 0x0 DUP1 RETURNDATACOPY RETURNDATASIZE PUSH1 0x0 REVERT JUMPDEST POP POP POP POP PUSH1 0x40 MLOAD RETURNDATASIZE PUSH1 0x20 DUP2 LT ISZERO PUSH2 0xF95 JUMPI PUSH1 0x0 DUP1 REVERT JUMPDEST POP MLOAD SWAP4 POP DUP5 ISZERO DUP1 ISZERO SWAP1 PUSH2 0xFA7 JUMPI POP DUP4 ISZERO ISZERO JUMPDEST ISZERO ISZERO PUSH2 0xFFE JUMPI PUSH1 0x40 MLOAD PUSH32 0x8C379A000000000000000000000000000000000000000000000000000000000 DUP2 MSTORE PUSH1 0x4 ADD DUP1 DUP1 PUSH1 0x20 ADD DUP3 DUP2 SUB DUP3 MSTORE PUSH1 0x25 DUP2 MSTORE PUSH1 0x20 ADD DUP1 PUSH2 0x1FB0 PUSH1 0x25 SWAP2 CODECOPY PUSH1 0x40 ADD SWAP2 POP POP PUSH1 0x40 MLOAD DUP1 SWAP2 SUB SWAP1 REVERT JUMPDEST PUSH3 0xF4240 PUSH2 0x100C DUP7 DUP7 PUSH2 0x1581 JUMP JUMPDEST DUP2 ISZERO ISZERO PUSH2 0x1015 JUMPI INVALID JUMPDEST DIV SWAP3 POP POP POP SWAP2 SWAP4 SWAP1 SWAP3 POP JUMP JUMPDEST PUSH1 0x0 DUP1 PUSH1 0x0 DUP1 PUSH2 0x1030 DUP6 PUSH2 0xCDD JUMP JUMPDEST SWAP2 POP POP PUSH2 0x103B PUSH2 0x14C5 JUMP JUMPDEST PUSH20 0xFFFFFFFFFFFFFFFFFFFFFFFFFFFFFFFFFFFFFFFF AND PUSH4 0xD410E0C2 DUP3 PUSH1 0x40 MLOAD DUP3 PUSH4 0xFFFFFFFF AND PUSH29 0x100000000000000000000000000000000000000000000000000000000 MUL DUP2 MSTORE PUSH1 0x4 ADD DUP1 DUP3 PUSH20 0xFFFFFFFFFFFFFFFFFFFFFFFFFFFFFFFFFFFFFFFF AND PUSH20 0xFFFFFFFFFFFFFFFFFFFFFFFFFFFFFFFFFFFFFFFF AND DUP2 MSTORE PUSH1 0x20 ADD SWAP2 POP POP PUSH1 0x20 PUSH1 0x40 MLOAD DUP1 DUP4 SUB DUP2 DUP7 DUP1 EXTCODESIZE ISZERO DUP1 ISZERO PUSH2 0x10D3 JUMPI PUSH1 0x0 DUP1 REVERT JUMPDEST POP GAS STATICCALL ISZERO DUP1 ISZERO PUSH2 0x10E7 JUMPI RETURNDATASIZE PUSH1 0x0 DUP1 RETURNDATACOPY RETURNDATASIZE PUSH1 0x0 REVERT JUMPDEST POP POP POP POP PUSH1 0x40 MLOAD RETURNDATASIZE PUSH1 0x20 DUP2 LT ISZERO PUSH2 0x10FD JUMPI PUSH1 0x0 DUP1 REVERT JUMPDEST POP MLOAD SWAP4 POP PUSH2 0x1109 PUSH2 0x14C5 JUMP JUMPDEST PUSH20 0xFFFFFFFFFFFFFFFFFFFFFFFFFFFFFFFFFFFFFFFF AND PUSH4 0xEF78D4FD PUSH1 0x40 MLOAD DUP2 PUSH4 0xFFFFFFFF AND PUSH29 0x100000000000000000000000000000000000000000000000000000000 MUL DUP2 MSTORE PUSH1 0x4 ADD PUSH1 0x20 PUSH1 0x40 MLOAD DUP1 DUP4 SUB DUP2 DUP7 DUP1 EXTCODESIZE ISZERO DUP1 ISZERO PUSH2 0x116A JUMPI PUSH1 0x0 DUP1 REVERT JUMPDEST POP GAS STATICCALL ISZERO DUP1 ISZERO PUSH2 0x117E JUMPI RETURNDATASIZE PUSH1 0x0 DUP1 RETURNDATACOPY RETURNDATASIZE PUSH1 0x0 REVERT JUMPDEST POP POP POP POP PUSH1 0x40 MLOAD RETURNDATASIZE PUSH1 0x20 DUP2 LT ISZERO PUSH2 0x1194 JUMPI PUSH1 0x0 DUP1 REVERT JUMPDEST POP MLOAD PUSH20 0xFFFFFFFFFFFFFFFFFFFFFFFFFFFFFFFFFFFFFFFF SWAP1 SWAP2 AND PUSH1 0x0 SWAP1 DUP2 MSTORE PUSH1 0x4 PUSH1 0x20 MSTORE PUSH1 0x40 SWAP1 KECCAK256 SLOAD SWAP4 SWAP6 SWAP1 SWAP5 POP SWAP2 POP POP JUMP JUMPDEST PUSH1 0x0 DUP1 PUSH1 0x0 PUSH2 0x11D5 DUP5 PUSH2 0xCA4 JUMP JUMPDEST SWAP1 POP PUSH1 0x0 DUP1 PUSH1 0x0 PUSH2 0x11E5 DUP8 PUSH2 0xE5C JUMP JUMPDEST SWAP3 POP SWAP3 POP SWAP3 POP PUSH1 0x0 PUSH2 0x11F6 DUP9 PUSH2 0xCDD JUMP JUMPDEST POP SWAP1 POP PUSH1 0x0 DUP1 PUSH1 0x0 PUSH2 0x1207 DUP12 PUSH2 0x1021 JUMP JUMPDEST SWAP2 SWAP5 POP SWAP3 POP SWAP1 POP PUSH1 0x0 DUP1 PUSH3 0x15180 DUP5 PUSH2 0x1220 DUP10 DUP9 PUSH2 0x1581 JUMP JUMPDEST MUL DUP2 ISZERO ISZERO PUSH2 0x122A JUMPI INVALID JUMPDEST DIV SWAP2 POP DUP10 DUP10 LT PUSH2 0x1270 JUMPI PUSH3 0x15180 PUSH2 0x125B PUSH3 0xF4240 PUSH2 0x124B DUP14 DUP14 SUB DUP13 PUSH2 0x1581 JUMP JUMPDEST DUP2 ISZERO ISZERO PUSH2 0x1254 JUMPI INVALID JUMPDEST DIV DUP8 PUSH2 0x1581 JUMP JUMPDEST PUSH4 0x1E13380 MUL DUP2 ISZERO ISZERO PUSH2 0x126A JUMPI INVALID JUMPDEST DIV PUSH2 0x1273 JUMP JUMPDEST PUSH1 0x0 JUMPDEST SWAP1 POP PUSH1 0x0 PUSH8 0xDE0B6B3A7640000 PUSH2 0x128A DUP9 DUP11 PUSH2 0x15AE JUMP JUMPDEST PUSH10 0x21E19E0C9BAB2400000 PUSH2 0x12AA DUP7 PUSH2 0x12A5 PUSH2 0x2710 DUP11 PUSH2 0x19B9 JUMP JUMPDEST PUSH2 0x1581 JUMP JUMPDEST DUP2 ISZERO ISZERO PUSH2 0x12B3 JUMPI INVALID JUMPDEST DIV MUL DUP2 ISZERO ISZERO PUSH2 0x12BE JUMPI INVALID JUMPDEST DIV SWAP1 POP PUSH8 0xDE0B6B3A7640000 PUSH2 0x12D4 DUP9 DUP11 PUSH2 0x15AE JUMP JUMPDEST PUSH2 0x12F1 PUSH2 0x12E1 DUP6 DUP9 PUSH2 0x1581 JUMP JUMPDEST PUSH10 0x21E19E0C9BAB2400000 PUSH2 0x19CB JUMP JUMPDEST MUL DUP2 ISZERO ISZERO PUSH2 0x12FB JUMPI INVALID JUMPDEST DIV SWAP12 POP PUSH2 0x1312 DUP15 DUP7 PUSH2 0x130D DUP16 DUP6 PUSH2 0x1A00 JUMP JUMPDEST PUSH2 0x1A1A JUMP JUMPDEST SWAP13 POP POP POP POP POP POP POP POP POP POP POP POP SWAP2 POP SWAP2 JUMP JUMPDEST PUSH1 0x1 SLOAD PUSH1 0x40 DUP1 MLOAD PUSH32 0xC277F1AC00000000000000000000000000000000000000000000000000000000 DUP2 MSTORE PUSH1 0x4 DUP2 ADD DUP5 SWAP1 MSTORE SWAP1 MLOAD PUSH1 0x0 SWAP3 PUSH20 0xFFFFFFFFFFFFFFFFFFFFFFFFFFFFFFFFFFFFFFFF AND SWAP2 DUP4 SWAP2 DUP4 SWAP2 PUSH4 0xC277F1AC SWAP2 PUSH1 0x24 DUP1 DUP4 ADD SWAP3 DUP7 SWAP3 SWAP2 SWAP1 DUP3 SWAP1 SUB ADD DUP2 DUP7 DUP1 EXTCODESIZE ISZERO DUP1 ISZERO PUSH2 0x1399 JUMPI PUSH1 0x0 DUP1 REVERT JUMPDEST POP GAS STATICCALL ISZERO DUP1 ISZERO PUSH2 0x13AD JUMPI RETURNDATASIZE PUSH1 0x0 DUP1 RETURNDATACOPY RETURNDATASIZE PUSH1 0x0 REVERT JUMPDEST POP POP POP POP PUSH1 0x40 MLOAD RETURNDATASIZE PUSH1 0x0 DUP3 RETURNDATACOPY PUSH1 0x1F RETURNDATASIZE SWAP1 DUP2 ADD PUSH32 0xFFFFFFFFFFFFFFFFFFFFFFFFFFFFFFFFFFFFFFFFFFFFFFFFFFFFFFFFFFFFFFE0 AND DUP3 ADD PUSH1 0x40 MSTORE PUSH1 0xC0 DUP2 LT ISZERO PUSH2 0x13F4 JUMPI PUSH1 0x0 DUP1 REVERT JUMPDEST DUP2 MLOAD PUSH1 0x20 DUP4 ADD DUP1 MLOAD SWAP2 SWAP4 SWAP3 DUP4 ADD SWAP3 SWAP2 PUSH5 0x100000000 DUP2 GT ISZERO PUSH2 0x1415 JUMPI PUSH1 0x0 DUP1 REVERT JUMPDEST DUP3 ADD PUSH1 0x20 DUP2 ADD DUP5 DUP2 GT ISZERO PUSH2 0x1428 JUMPI PUSH1 0x0 DUP1 REVERT JUMPDEST DUP2 MLOAD PUSH5 0x100000000 DUP2 GT DUP3 DUP3 ADD DUP8 LT OR ISZERO PUSH2 0x1442 JUMPI PUSH1 0x0 DUP1 REVERT JUMPDEST POP POP SWAP3 SWAP2 SWAP1 PUSH1 0x20 ADD DUP1 MLOAD PUSH5 0x100000000 DUP2 GT ISZERO PUSH2 0x145E JUMPI PUSH1 0x0 DUP1 REVERT JUMPDEST DUP3 ADD PUSH1 0x20 DUP2 ADD DUP5 DUP2 GT ISZERO PUSH2 0x1471 JUMPI PUSH1 0x0 DUP1 REVERT JUMPDEST DUP2 MLOAD PUSH5 0x100000000 DUP2 GT DUP3 DUP3 ADD DUP8 LT OR ISZERO PUSH2 0x148B JUMPI PUSH1 0x0 DUP1 REVERT JUMPDEST POP SWAP6 SWAP7 POP POP POP PUSH20 0xFFFFFFFFFFFFFFFFFFFFFFFFFFFFFFFFFFFFFFFF DUP6 AND ISZERO SWAP4 POP PUSH2 0x14BE SWAP3 POP POP POP JUMPI PUSH1 0x1 SWAP3 POP POP POP PUSH2 0x528 JUMP JUMPDEST POP POP SWAP2 SWAP1 POP JUMP JUMPDEST PUSH1 0x0 DUP1 PUSH1 0x0 PUSH1 0x1 SWAP1 SLOAD SWAP1 PUSH2 0x100 EXP SWAP1 DIV PUSH20 0xFFFFFFFFFFFFFFFFFFFFFFFFFFFFFFFFFFFFFFFF AND SWAP1 POP DUP1 PUSH20 0xFFFFFFFFFFFFFFFFFFFFFFFFFFFFFFFFFFFFFFFF AND PUSH4 0x7546172 PUSH1 0x40 MLOAD DUP2 PUSH4 0xFFFFFFFF AND PUSH29 0x100000000000000000000000000000000000000000000000000000000 MUL DUP2 MSTORE PUSH1 0x4 ADD PUSH1 0x20 PUSH1 0x40 MLOAD DUP1 DUP4 SUB DUP2 DUP7 DUP1 EXTCODESIZE ISZERO DUP1 ISZERO PUSH2 0x154F JUMPI PUSH1 0x0 DUP1 REVERT JUMPDEST POP GAS STATICCALL ISZERO DUP1 ISZERO PUSH2 0x1563 JUMPI RETURNDATASIZE PUSH1 0x0 DUP1 RETURNDATACOPY RETURNDATASIZE PUSH1 0x0 REVERT JUMPDEST POP POP POP POP PUSH1 0x40 MLOAD RETURNDATASIZE PUSH1 0x20 DUP2 LT ISZERO PUSH2 0x1579 JUMPI PUSH1 0x0 DUP1 REVERT JUMPDEST POP MLOAD SWAP2 POP POP SWAP1 JUMP JUMPDEST PUSH1 0x0 DUP3 DUP3 MUL DUP4 ISZERO DUP1 PUSH2 0x159D JUMPI POP DUP3 DUP5 DUP3 DUP2 ISZERO ISZERO PUSH2 0x159A JUMPI INVALID JUMPDEST DIV EQ JUMPDEST ISZERO ISZERO PUSH2 0x15A5 JUMPI INVALID JUMPDEST SWAP1 POP JUMPDEST SWAP3 SWAP2 POP POP JUMP JUMPDEST PUSH1 0x0 PUSH20 0xFFFFFFFFFFFFFFFFFFFFFFFFFFFFFFFFFFFFFFFF DUP4 AND BALANCE DUP3 DUP2 LT ISZERO DUP1 PUSH2 0x15DE JUMPI POP PUSH7 0x38D7EA4C68000 DUP2 GT ISZERO JUMPDEST ISZERO PUSH2 0x1634 JUMPI PUSH1 0x40 MLOAD PUSH32 0x8C379A000000000000000000000000000000000000000000000000000000000 DUP2 MSTORE PUSH1 0x4 ADD DUP1 DUP1 PUSH1 0x20 ADD DUP3 DUP2 SUB DUP3 MSTORE PUSH1 0x29 DUP2 MSTORE PUSH1 0x20 ADD DUP1 PUSH2 0x1F87 PUSH1 0x29 SWAP2 CODECOPY PUSH1 0x40 ADD SWAP2 POP POP PUSH1 0x40 MLOAD DUP1 SWAP2 SUB SWAP1 REVERT JUMPDEST PUSH8 0xB1A2BC2EC500000 DUP4 DUP3 PUSH8 0xDE0B6B3A7640000 MUL DUP2 ISZERO ISZERO PUSH2 0x1652 JUMPI INVALID JUMPDEST DIV LT PUSH2 0x1676 JUMPI DUP3 DUP2 PUSH8 0xDE0B6B3A7640000 MUL DUP2 ISZERO ISZERO PUSH2 0x166D JUMPI INVALID JUMPDEST DIV SWAP2 POP POP PUSH2 0x15A8 JUMP JUMPDEST PUSH8 0x853A0D2313C0000 DUP4 DUP3 PUSH8 0xDE0B6B3A7640000 MUL DUP2 ISZERO ISZERO PUSH2 0x1694 JUMPI INVALID JUMPDEST DIV LT PUSH2 0x16C0 JUMPI PUSH2 0x3E8 DUP4 DUP3 PUSH8 0xDE0B6B3A7640000 MUL DUP2 ISZERO ISZERO PUSH2 0x16B2 JUMPI INVALID JUMPDEST DIV PUSH2 0x3AF MUL DUP2 ISZERO ISZERO PUSH2 0x166D JUMPI INVALID JUMPDEST PUSH8 0x6F05B59D3B20000 DUP4 DUP3 PUSH8 0xDE0B6B3A7640000 MUL DUP2 ISZERO ISZERO PUSH2 0x16DE JUMPI INVALID JUMPDEST DIV LT PUSH2 0x170A JUMPI PUSH2 0x3E8 DUP4 DUP3 PUSH8 0xDE0B6B3A7640000 MUL DUP2 ISZERO ISZERO PUSH2 0x16FC JUMPI INVALID JUMPDEST DIV PUSH2 0x371 MUL DUP2 ISZERO ISZERO PUSH2 0x166D JUMPI INVALID JUMPDEST PUSH8 0x58D15E176280000 DUP4 DUP3 PUSH8 0xDE0B6B3A7640000 MUL DUP2 ISZERO ISZERO PUSH2 0x1728 JUMPI INVALID JUMPDEST DIV LT PUSH2 0x1754 JUMPI PUSH2 0x3E8 DUP4 DUP3 PUSH8 0xDE0B6B3A7640000 MUL DUP2 ISZERO ISZERO PUSH2 0x1746 JUMPI INVALID JUMPDEST DIV PUSH2 0x301 MUL DUP2 ISZERO ISZERO PUSH2 0x166D JUMPI INVALID JUMPDEST PUSH8 0x429D069189E0000 DUP4 DUP3 PUSH8 0xDE0B6B3A7640000 MUL DUP2 ISZERO ISZERO PUSH2 0x1772 JUMPI INVALID JUMPDEST DIV LT PUSH2 0x179E JUMPI PUSH2 0x3E8 DUP4 DUP3 PUSH8 0xDE0B6B3A7640000 MUL DUP2 ISZERO ISZERO PUSH2 0x1790 JUMPI INVALID JUMPDEST DIV PUSH2 0x257 MUL DUP2 ISZERO ISZERO PUSH2 0x166D JUMPI INVALID JUMPDEST PUSH8 0x2C68AF0BB140000 DUP4 DUP3 PUSH8 0xDE0B6B3A7640000 MUL DUP2 ISZERO ISZERO PUSH2 0x17BC JUMPI INVALID JUMPDEST DIV LT PUSH2 0x17E8 JUMPI PUSH2 0x3E8 DUP4 DUP3 PUSH8 0xDE0B6B3A7640000 MUL DUP2 ISZERO ISZERO PUSH2 0x17DA JUMPI INVALID JUMPDEST DIV PUSH2 0x191 MUL DUP2 ISZERO ISZERO PUSH2 0x166D JUMPI INVALID JUMPDEST PUSH8 0x16345785D8A0000 DUP4 DUP3 PUSH8 0xDE0B6B3A7640000 MUL DUP2 ISZERO ISZERO PUSH2 0x1806 JUMPI INVALID JUMPDEST DIV LT PUSH2 0x1831 JUMPI PUSH2 0x3E8 DUP4 DUP3 PUSH8 0xDE0B6B3A7640000 MUL DUP2 ISZERO ISZERO PUSH2 0x1824 JUMPI INVALID JUMPDEST DIV PUSH1 0xE7 MUL DUP2 ISZERO ISZERO PUSH2 0x166D JUMPI INVALID JUMPDEST PUSH8 0x10A741A46278000 DUP4 DUP3 PUSH8 0xDE0B6B3A7640000 MUL DUP2 ISZERO ISZERO PUSH2 0x184F JUMPI INVALID JUMPDEST DIV LT PUSH2 0x187A JUMPI PUSH2 0x3E8 DUP4 DUP3 PUSH8 0xDE0B6B3A7640000 MUL DUP2 ISZERO ISZERO PUSH2 0x186D JUMPI INVALID JUMPDEST DIV PUSH1 0xC6 MUL DUP2 ISZERO ISZERO PUSH2 0x166D JUMPI INVALID JUMPDEST PUSH7 0xB1A2BC2EC50000 DUP4 DUP3 PUSH8 0xDE0B6B3A7640000 MUL DUP2 ISZERO ISZERO PUSH2 0x1897 JUMPI INVALID JUMPDEST DIV LT PUSH2 0x18C2 JUMPI PUSH2 0x3E8 DUP4 DUP3 PUSH8 0xDE0B6B3A7640000 MUL DUP2 ISZERO ISZERO PUSH2 0x18B5 JUMPI INVALID JUMPDEST DIV PUSH1 0xA8 MUL DUP2 ISZERO ISZERO PUSH2 0x166D JUMPI INVALID JUMPDEST PUSH7 0x8700CC75770000 DUP4 DUP3 PUSH8 0xDE0B6B3A7640000 MUL DUP2 ISZERO ISZERO PUSH2 0x18DF JUMPI INVALID JUMPDEST DIV LT PUSH2 0x190A JUMPI PUSH2 0x3E8 DUP4 DUP3 PUSH8 0xDE0B6B3A7640000 MUL DUP2 ISZERO ISZERO PUSH2 0x18FD JUMPI INVALID JUMPDEST DIV PUSH1 0x9B MUL DUP2 ISZERO ISZERO PUSH2 0x166D JUMPI INVALID JUMPDEST PUSH7 0x58D15E17628000 DUP4 DUP3 PUSH8 0xDE0B6B3A7640000 MUL DUP2 ISZERO ISZERO PUSH2 0x1927 JUMPI INVALID JUMPDEST DIV LT PUSH2 0x1952 JUMPI PUSH2 0x3E8 DUP4 DUP3 PUSH8 0xDE0B6B3A7640000 MUL DUP2 ISZERO ISZERO PUSH2 0x1945 JUMPI INVALID JUMPDEST DIV PUSH1 0x8E MUL DUP2 ISZERO ISZERO PUSH2 0x166D JUMPI INVALID JUMPDEST PUSH1 0x40 DUP1 MLOAD PUSH32 0x8C379A000000000000000000000000000000000000000000000000000000000 DUP2 MSTORE PUSH1 0x20 PUSH1 0x4 DUP3 ADD MSTORE PUSH1 0x1F PUSH1 0x24 DUP3 ADD MSTORE PUSH32 0x4554485F42454C4F575F322E355F50455243454E545F41554D5F4552524F5200 PUSH1 0x44 DUP3 ADD MSTORE SWAP1 MLOAD SWAP1 DUP2 SWAP1 SUB PUSH1 0x64 ADD SWAP1 REVERT JUMPDEST PUSH1 0x0 DUP3 DUP3 GT ISZERO PUSH2 0x19C5 JUMPI INVALID JUMPDEST POP SWAP1 SUB SWAP1 JUMP JUMPDEST PUSH1 0x0 DUP1 DUP3 GT PUSH2 0x19D6 JUMPI INVALID JUMPDEST PUSH1 0x0 DUP3 DUP5 DUP2 ISZERO ISZERO PUSH2 0x19E3 JUMPI INVALID JUMPDEST DIV SWAP1 POP DUP3 DUP5 DUP2 ISZERO ISZERO PUSH2 0x19F1 JUMPI INVALID JUMPDEST MOD DUP2 DUP5 MUL ADD DUP5 EQ ISZERO ISZERO PUSH2 0x15A5 JUMPI INVALID JUMPDEST PUSH1 0x0 DUP3 DUP3 ADD DUP4 DUP2 LT DUP1 ISZERO SWAP1 PUSH2 0x159D JUMPI POP DUP3 DUP2 LT ISZERO PUSH2 0x15A5 JUMPI INVALID JUMPDEST PUSH1 0x1 SLOAD PUSH1 0x40 DUP1 MLOAD PUSH32 0xC277F1AC00000000000000000000000000000000000000000000000000000000 DUP2 MSTORE PUSH1 0x4 DUP2 ADD DUP7 SWAP1 MSTORE SWAP1 MLOAD PUSH1 0x0 SWAP3 DUP4 SWAP3 PUSH20 0xFFFFFFFFFFFFFFFFFFFFFFFFFFFFFFFFFFFFFFFF SWAP1 SWAP2 AND SWAP2 PUSH4 0xC277F1AC SWAP2 PUSH1 0x24 DUP1 DUP3 ADD SWAP3 DUP7 SWAP3 SWAP1 SWAP2 SWAP1 DUP3 SWAP1 SUB ADD DUP2 DUP7 DUP1 EXTCODESIZE ISZERO DUP1 ISZERO PUSH2 0x1A90 JUMPI PUSH1 0x0 DUP1 REVERT JUMPDEST POP GAS STATICCALL ISZERO DUP1 ISZERO PUSH2 0x1AA4 JUMPI RETURNDATASIZE PUSH1 0x0 DUP1 RETURNDATACOPY RETURNDATASIZE PUSH1 0x0 REVERT JUMPDEST POP POP POP POP PUSH1 0x40 MLOAD RETURNDATASIZE PUSH1 0x0 DUP3 RETURNDATACOPY PUSH1 0x1F RETURNDATASIZE SWAP1 DUP2 ADD PUSH32 0xFFFFFFFFFFFFFFFFFFFFFFFFFFFFFFFFFFFFFFFFFFFFFFFFFFFFFFFFFFFFFFE0 AND DUP3 ADD PUSH1 0x40 MSTORE PUSH1 0xC0 DUP2 LT ISZERO PUSH2 0x1AEB JUMPI PUSH1 0x0 DUP1 REVERT JUMPDEST DUP2 MLOAD PUSH1 0x20 DUP4 ADD DUP1 MLOAD SWAP2 SWAP4 SWAP3 DUP4 ADD SWAP3 SWAP2 PUSH5 0x100000000 DUP2 GT ISZERO PUSH2 0x1B0C JUMPI PUSH1 0x0 DUP1 REVERT JUMPDEST DUP3 ADD PUSH1 0x20 DUP2 ADD DUP5 DUP2 GT ISZERO PUSH2 0x1B1F JUMPI PUSH1 0x0 DUP1 REVERT JUMPDEST DUP2 MLOAD PUSH5 0x100000000 DUP2 GT DUP3 DUP3 ADD DUP8 LT OR ISZERO PUSH2 0x1B39 JUMPI PUSH1 0x0 DUP1 REVERT JUMPDEST POP POP SWAP3 SWAP2 SWAP1 PUSH1 0x20 ADD DUP1 MLOAD PUSH5 0x100000000 DUP2 GT ISZERO PUSH2 0x1B55 JUMPI PUSH1 0x0 DUP1 REVERT JUMPDEST DUP3 ADD PUSH1 0x20 DUP2 ADD DUP5 DUP2 GT ISZERO PUSH2 0x1B68 JUMPI PUSH1 0x0 DUP1 REVERT JUMPDEST DUP2 MLOAD PUSH5 0x100000000 DUP2 GT DUP3 DUP3 ADD DUP8 LT OR ISZERO PUSH2 0x1B82 JUMPI PUSH1 0x0 DUP1 REVERT JUMPDEST POP POP PUSH1 0x0 DUP1 SLOAD PUSH1 0x40 DUP1 MLOAD PUSH32 0x8DA5CB5B00000000000000000000000000000000000000000000000000000000 DUP2 MSTORE SWAP1 MLOAD SWAP9 SWAP10 POP SWAP2 SWAP8 PUSH4 0x1E13380 SWAP8 POP DUP13 SWAP7 POP PUSH20 0xFFFFFFFFFFFFFFFFFFFFFFFFFFFFFFFFFFFFFFFF PUSH2 0x100 SWAP1 SWAP3 DIV DUP3 AND SWAP6 POP PUSH4 0x70A08231 SWAP5 POP SWAP1 DUP10 AND SWAP3 POP PUSH4 0x8DA5CB5B SWAP2 PUSH1 0x4 DUP1 DUP3 ADD SWAP3 PUSH1 0x20 SWAP3 SWAP1 SWAP2 SWAP1 DUP3 SWAP1 SUB ADD DUP2 DUP7 DUP1 EXTCODESIZE ISZERO DUP1 ISZERO PUSH2 0x1C11 JUMPI PUSH1 0x0 DUP1 REVERT JUMPDEST POP GAS STATICCALL ISZERO DUP1 ISZERO PUSH2 0x1C25 JUMPI RETURNDATASIZE PUSH1 0x0 DUP1 RETURNDATACOPY RETURNDATASIZE PUSH1 0x0 REVERT JUMPDEST POP POP POP POP PUSH1 0x40 MLOAD RETURNDATASIZE PUSH1 0x20 DUP2 LT ISZERO PUSH2 0x1C3B JUMPI PUSH1 0x0 DUP1 REVERT JUMPDEST POP MLOAD PUSH1 0x40 DUP1 MLOAD PUSH29 0x100000000000000000000000000000000000000000000000000000000 PUSH4 0xFFFFFFFF DUP6 AND MUL DUP2 MSTORE PUSH20 0xFFFFFFFFFFFFFFFFFFFFFFFFFFFFFFFFFFFFFFFF SWAP1 SWAP3 AND PUSH1 0x4 DUP4 ADD MSTORE MLOAD PUSH1 0x24 DUP1 DUP4 ADD SWAP3 PUSH1 0x20 SWAP3 SWAP2 SWAP1 DUP3 SWAP1 SUB ADD DUP2 DUP7 DUP1 EXTCODESIZE ISZERO DUP1 ISZERO PUSH2 0x1CA6 JUMPI PUSH1 0x0 DUP1 REVERT JUMPDEST POP GAS STATICCALL ISZERO DUP1 ISZERO PUSH2 0x1CBA JUMPI RETURNDATASIZE PUSH1 0x0 DUP1 RETURNDATACOPY RETURNDATASIZE PUSH1 0x0 REVERT JUMPDEST POP POP POP POP PUSH1 0x40 MLOAD RETURNDATASIZE PUSH1 0x20 DUP2 LT ISZERO PUSH2 0x1CD0 JUMPI PUSH1 0x0 DUP1 REVERT JUMPDEST POP MLOAD MUL DUP2 ISZERO ISZERO PUSH2 0x1CDC JUMPI INVALID JUMPDEST DIV SWAP1 POP PUSH2 0x1CE7 PUSH2 0x14C5 JUMP JUMPDEST PUSH20 0xFFFFFFFFFFFFFFFFFFFFFFFFFFFFFFFFFFFFFFFF AND PUSH4 0xFF54A8E0 PUSH1 0x40 MLOAD DUP2 PUSH4 0xFFFFFFFF AND PUSH29 0x100000000000000000000000000000000000000000000000000000000 MUL DUP2 MSTORE PUSH1 0x4 ADD PUSH1 0x20 PUSH1 0x40 MLOAD DUP1 DUP4 SUB DUP2 DUP7 DUP1 EXTCODESIZE ISZERO DUP1 ISZERO PUSH2 0x1D48 JUMPI PUSH1 0x0 DUP1 REVERT JUMPDEST POP GAS STATICCALL ISZERO DUP1 ISZERO PUSH2 0x1D5C JUMPI RETURNDATASIZE PUSH1 0x0 DUP1 RETURNDATACOPY RETURNDATASIZE PUSH1 0x0 REVERT JUMPDEST POP POP POP POP PUSH1 0x40 MLOAD RETURNDATASIZE PUSH1 0x20 DUP2 LT ISZERO PUSH2 0x1D72 JUMPI PUSH1 0x0 DUP1 REVERT JUMPDEST POP MLOAD DUP2 LT ISZERO PUSH2 0x1DE2 JUMPI PUSH1 0x40 DUP1 MLOAD PUSH32 0x8C379A000000000000000000000000000000000000000000000000000000000 DUP2 MSTORE PUSH1 0x20 PUSH1 0x4 DUP3 ADD MSTORE PUSH1 0x18 PUSH1 0x24 DUP3 ADD MSTORE PUSH32 0x5354414B45445F4752475F42454C4F575F4D494E494D554D0000000000000000 PUSH1 0x44 DUP3 ADD MSTORE SWAP1 MLOAD SWAP1 DUP2 SWAP1 SUB PUSH1 0x64 ADD SWAP1 REVERT JUMPDEST DUP1 DUP5 LT PUSH2 0x1DF2 JUMPI SWAP2 POP PUSH2 0x1F7F SWAP1 POP JUMP JUMPDEST PUSH8 0xB1A2BC2EC500000 DUP2 DUP6 PUSH8 0xDE0B6B3A7640000 MUL DUP2 ISZERO ISZERO PUSH2 0x1E10 JUMPI INVALID JUMPDEST DIV LT PUSH2 0x1E29 JUMPI PUSH2 0x3E8 PUSH2 0x35E DUP3 MUL JUMPDEST DIV SWAP3 POP POP POP PUSH2 0x1F7F JUMP JUMPDEST PUSH8 0x853A0D2313C0000 DUP2 DUP6 PUSH8 0xDE0B6B3A7640000 MUL DUP2 ISZERO ISZERO PUSH2 0x1E47 JUMPI INVALID JUMPDEST DIV LT PUSH2 0x1E5A JUMPI PUSH2 0x3E8 PUSH2 0x2C7 DUP3 MUL PUSH2 0x1E1F JUMP JUMPDEST PUSH8 0x429D069189E0000 DUP2 DUP6 PUSH8 0xDE0B6B3A7640000 MUL DUP2 ISZERO ISZERO PUSH2 0x1E78 JUMPI INVALID JUMPDEST DIV LT PUSH2 0x1E8B JUMPI PUSH2 0x3E8 PUSH2 0x1C0 DUP3 MUL PUSH2 0x1E1F JUMP JUMPDEST PUSH8 0x2C68AF0BB140000 DUP2 DUP6 PUSH8 0xDE0B6B3A7640000 MUL DUP2 ISZERO ISZERO PUSH2 0x1EA9 JUMPI INVALID JUMPDEST DIV LT PUSH2 0x1EBC JUMPI PUSH2 0x3E8 PUSH2 0x156 DUP3 MUL PUSH2 0x1E1F JUMP JUMPDEST PUSH8 0x16345785D8A0000 DUP2 DUP6 PUSH8 0xDE0B6B3A7640000 MUL DUP2 ISZERO ISZERO PUSH2 0x1EDA JUMPI INVALID JUMPDEST DIV LT PUSH2 0x1EEC JUMPI PUSH2 0x3E8 PUSH1 0xD7 DUP3 MUL PUSH2 0x1E1F JUMP JUMPDEST PUSH7 0x2386F26FC10000 DUP2 DUP6 PUSH8 0xDE0B6B3A7640000 MUL DUP2 ISZERO ISZERO PUSH2 0x1F09 JUMPI INVALID JUMPDEST DIV LT PUSH2 0x1F1B JUMPI PUSH2 0x3E8 PUSH1 0x2E DUP3 MUL PUSH2 0x1E1F JUMP JUMPDEST PUSH7 0x11C37937E08000 DUP2 DUP6 PUSH8 0xDE0B6B3A7640000 MUL DUP2 ISZERO ISZERO PUSH2 0x1F38 JUMPI INVALID JUMPDEST DIV LT PUSH2 0x1F4A JUMPI PUSH2 0x3E8 PUSH1 0x1D DUP3 MUL PUSH2 0x1E1F JUMP JUMPDEST PUSH7 0x11C37937E08000 DUP2 DUP6 PUSH8 0x8AC7230489E80000 MUL DUP2 ISZERO ISZERO PUSH2 0x1F67 JUMPI INVALID JUMPDEST DIV LT PUSH2 0x1F79 JUMPI PUSH2 0x3E8 PUSH1 0x6 DUP3 MUL PUSH2 0x1E1F JUMP JUMPDEST DUP4 SWAP3 POP POP POP JUMPDEST SWAP4 SWAP3 POP POP POP JUMP INVALID GASLIMIT SLOAD 0x48 0x5f TIMESTAMP COINBASE 0x4c COINBASE 0x4e NUMBER GASLIMIT 0x5f 0x48 0x49 0x47 0x48 GASLIMIT MSTORE 0x5f SLOAD 0x48 COINBASE 0x4e 0x5f COINBASE SSTORE 0x4d 0x5f 0x4f MSTORE 0x5f DIFFICULTY SSTORE MSTORE8 SLOAD 0x5f GASLIMIT MSTORE MSTORE 0x4f MSTORE POP 0x4f 0x4f 0x4c 0x5f POP MSTORE 0x49 NUMBER GASLIMIT 0x5f 0x4f MSTORE 0x5f SLOAD 0x4f SLOAD COINBASE 0x4c 0x5f MSTORE8 SSTORE POP POP 0x4c MSIZE 0x5f 0x4e SSTORE 0x4c 0x4c 0x5f GASLIMIT MSTORE MSTORE 0x4f MSTORE LOG1 PUSH6 0x627A7A723058 KECCAK256 PUSH4 0xBED387B3 EXTCODESIZE PUSH2 0x391E LOG4 0xbd SWAP12 EXP 0xcb SWAP9 EXTCODECOPY SWAP11 0xc5 0xd6 SAR 0xaa SWAP11 NUMBER SWAP7 GASLIMIT SLT 0xb1 0xc0 DUP1 SMOD 0xd5 0xe3 STOP 0x29 "
			}
		}
	},
	"sourceTreeHashHex": "0xe6996f3c73a8f9077f6683b37f52fbbaa00bdd7f108e93e18dfd914e25999716",
	"compiler": {
		"name": "solc",
		"version": "0.5.4+commit.9549d8ff",
		"settings": {
			"remappings": [],
			"optimizer": {
				"enabled": true,
				"runs": 1000000
			},
			"outputSelection": {
				"*": {
					"*": [
						"abi",
						"devdoc",
						"evm.bytecode.object",
						"evm.bytecode.sourceMap",
						"evm.deployedBytecode.object",
						"evm.deployedBytecode.sourceMap"
					]
				}
			}
		}
	},
	"chains": {}
}