{
	"schemaVersion": "2.0.0",
	"contractName": "ProofOfPerformance",
	"compilerOutput": {
		"abi": [
			{
				"inputs": [
					{
						"internalType": "address",
						"name": "_rigoTokenAddress",
						"type": "address"
					},
					{
						"internalType": "address",
						"name": "_rigoblockDao",
						"type": "address"
					},
					{
						"internalType": "address",
						"name": "_dragoRegistry",
						"type": "address"
					},
					{
						"internalType": "address",
						"name": "_stakingProxyAddress",
						"type": "address"
					}
				],
				"stateMutability": "nonpayable",
				"type": "constructor"
			},
			{
				"inputs": [],
				"name": "RIGOTOKENADDRESS",
				"outputs": [
					{
						"internalType": "address",
						"name": "",
						"type": "address"
					}
				],
				"stateMutability": "view",
				"type": "function"
			},
			{
				"inputs": [],
				"name": "STAKINGPROXYADDRESS",
				"outputs": [
					{
						"internalType": "address",
						"name": "",
						"type": "address"
					}
				],
				"stateMutability": "view",
				"type": "function"
			},
			{
				"inputs": [
					{
						"internalType": "uint256",
						"name": "poolId",
						"type": "uint256"
					}
				],
				"name": "addressFromId",
				"outputs": [
					{
						"internalType": "address",
						"name": "pool",
						"type": "address"
					},
					{
						"internalType": "address",
						"name": "group",
						"type": "address"
					}
				],
				"stateMutability": "view",
				"type": "function"
			},
			{
				"inputs": [
					{
						"internalType": "uint256",
						"name": "poolId",
						"type": "uint256"
					}
				],
				"name": "calcPoolValue",
				"outputs": [
					{
						"internalType": "uint256",
						"name": "aum",
						"type": "uint256"
					}
				],
				"stateMutability": "view",
				"type": "function"
			},
			{
				"inputs": [
					{
						"internalType": "uint256",
						"name": "poolId",
						"type": "uint256"
					}
				],
				"name": "creditPopRewardToStakingProxy",
				"outputs": [],
				"stateMutability": "nonpayable",
				"type": "function"
			},
			{
				"inputs": [],
				"name": "dragoRegistryAddress",
				"outputs": [
					{
						"internalType": "address",
						"name": "",
						"type": "address"
					}
				],
				"stateMutability": "view",
				"type": "function"
			},
			{
				"inputs": [
					{
						"internalType": "uint256",
						"name": "poolId",
						"type": "uint256"
					}
				],
				"name": "getEpochReward",
				"outputs": [
					{
						"internalType": "uint256",
						"name": "",
						"type": "uint256"
					}
				],
				"stateMutability": "view",
				"type": "function"
			},
			{
				"inputs": [
					{
						"internalType": "uint256",
						"name": "poolId",
						"type": "uint256"
					}
				],
				"name": "getHwm",
				"outputs": [
					{
						"internalType": "uint256",
						"name": "",
						"type": "uint256"
					}
				],
				"stateMutability": "view",
				"type": "function"
			},
			{
				"inputs": [
					{
						"internalType": "uint256",
						"name": "poolId",
						"type": "uint256"
					}
				],
				"name": "getPoolData",
				"outputs": [
					{
						"internalType": "bool",
						"name": "active",
						"type": "bool"
					},
					{
						"internalType": "address",
						"name": "poolAddress",
						"type": "address"
					},
					{
						"internalType": "address",
						"name": "poolGroup",
						"type": "address"
					},
					{
						"internalType": "uint256",
						"name": "poolPrice",
						"type": "uint256"
					},
					{
						"internalType": "uint256",
						"name": "poolSupply",
						"type": "uint256"
					},
					{
						"internalType": "uint256",
						"name": "poolValue",
						"type": "uint256"
					},
					{
						"internalType": "uint256",
						"name": "epochReward",
						"type": "uint256"
					},
					{
						"internalType": "uint256",
						"name": "ratio",
						"type": "uint256"
					},
					{
						"internalType": "uint256",
						"name": "pop",
						"type": "uint256"
					}
				],
				"stateMutability": "view",
				"type": "function"
			},
			{
				"inputs": [
					{
						"internalType": "uint256",
						"name": "poolId",
						"type": "uint256"
					}
				],
				"name": "getPoolPrice",
				"outputs": [
					{
						"internalType": "uint256",
						"name": "poolPrice",
						"type": "uint256"
					},
					{
						"internalType": "uint256",
						"name": "totalTokens",
						"type": "uint256"
					}
				],
				"stateMutability": "view",
				"type": "function"
			},
			{
				"inputs": [
					{
						"internalType": "uint256",
						"name": "poolId",
						"type": "uint256"
					}
				],
				"name": "getRatio",
				"outputs": [
					{
						"internalType": "uint256",
						"name": "",
						"type": "uint256"
					}
				],
				"stateMutability": "view",
				"type": "function"
			},
			{
				"inputs": [
					{
						"internalType": "address",
						"name": "",
						"type": "address"
					}
				],
				"name": "groups",
				"outputs": [
					{
						"internalType": "uint256",
						"name": "rewardRatio",
						"type": "uint256"
					}
				],
				"stateMutability": "view",
				"type": "function"
			},
			{
				"inputs": [
					{
						"internalType": "uint256",
						"name": "poolId",
						"type": "uint256"
					}
				],
				"name": "isActive",
				"outputs": [
					{
						"internalType": "bool",
						"name": "",
						"type": "bool"
					}
				],
				"stateMutability": "view",
				"type": "function"
			},
			{
				"inputs": [
					{
						"internalType": "uint256",
						"name": "poolId",
						"type": "uint256"
					}
				],
				"name": "proofOfPerformance",
				"outputs": [
					{
						"internalType": "uint256",
						"name": "popReward",
						"type": "uint256"
					},
					{
						"internalType": "uint256",
						"name": "performanceReward",
						"type": "uint256"
					}
				],
				"stateMutability": "view",
				"type": "function"
			},
			{
				"inputs": [],
				"name": "rigoblockDaoAddress",
				"outputs": [
					{
						"internalType": "address",
						"name": "",
						"type": "address"
					}
				],
				"stateMutability": "view",
				"type": "function"
			},
			{
				"inputs": [
					{
						"internalType": "address",
						"name": "groupAddress",
						"type": "address"
					},
					{
						"internalType": "uint256",
						"name": "newRatio",
						"type": "uint256"
					}
				],
				"name": "setRatio",
				"outputs": [],
				"stateMutability": "nonpayable",
				"type": "function"
			},
			{
				"inputs": [
					{
						"internalType": "address",
						"name": "newDragoRegistryAddress",
						"type": "address"
					}
				],
				"name": "setRegistry",
				"outputs": [],
				"stateMutability": "nonpayable",
				"type": "function"
			},
			{
				"inputs": [
					{
						"internalType": "address",
						"name": "newRigoblockDaoAddress",
						"type": "address"
					}
				],
				"name": "setRigoblockDao",
				"outputs": [],
				"stateMutability": "nonpayable",
				"type": "function"
			}
		],
		"devdoc": {
			"author": "Gabriele Rigo - <gab@rigoblock.com>",
			"kind": "dev",
			"methods": {
				"addressFromId(uint256)": {
					"details": "Returns the address and the group of a pool from its id.",
					"params": {
						"poolId": "Id of the pool."
					},
					"returns": {
						"group": "Address of the pool's group.",
						"pool": "Address of the target pool."
					}
				},
				"calcPoolValue(uint256)": {
					"details": "Returns the value of a pool from its id.",
					"params": {
						"poolId": "Id of the pool."
					},
					"returns": {
						"aum": "Total value of the pool in ETH."
					}
				},
				"creditPopRewardToStakingProxy(uint256)": {
					"details": "Credits the pop reward to the Staking Proxy contract.",
					"params": {
						"poolId": "Number of the pool Id in registry."
					}
				},
				"getEpochReward(uint256)": {
					"details": "Returns the reward factor for a pool.",
					"params": {
						"poolId": "Id of the pool."
					},
					"returns": {
						"_0": "Value of the reward factor."
					}
				},
				"getHwm(uint256)": {
					"details": "Returns the highwatermark of a pool.",
					"params": {
						"poolId": "Id of the pool."
					},
					"returns": {
						"_0": "Value of the all-time-high pool nav."
					}
				},
				"getPoolData(uint256)": {
					"details": "Gets data of a pool.",
					"params": {
						"poolId": "Id of the pool."
					},
					"returns": {
						"active": "Bool the pool is active.",
						"epochReward": "value of the reward factor or said pool.",
						"poolAddress": "address of the pool.",
						"poolGroup": "address of the pool factory.",
						"poolPrice": "price of the pool in wei.",
						"poolSupply": "total supply of the pool in units.",
						"poolValue": "total value of the pool in wei.",
						"pop": "value of the pop reward to be claimed in GRGs.",
						"ratio": "of assets/performance reward (from 0 to 10000)."
					}
				},
				"getPoolPrice(uint256)": {
					"details": "Returns the price a pool from its id.",
					"params": {
						"poolId": "Id of the pool."
					},
					"returns": {
						"poolPrice": "Price of the pool in wei.",
						"totalTokens": "Number of tokens of a pool (totalSupply)."
					}
				},
				"getRatio(uint256)": {
					"details": "Returns the split ratio of asset and performance reward.",
					"params": {
						"poolId": "Id of the pool."
					},
					"returns": {
						"_0": "Value of the ratio from 1 to 100."
					}
				},
				"isActive(uint256)": {
					"details": "Checks whether a pool is registered and active.",
					"params": {
						"poolId": "Id of the pool."
					},
					"returns": {
						"_0": "Bool the pool is active."
					}
				},
				"proofOfPerformance(uint256)": {
					"details": "Returns the proof of performance reward for a pool.",
					"params": {
						"poolId": "Id of the pool."
					},
					"returns": {
						"performanceReward": "Split of the performance reward in Rigo tokens.",
						"popReward": "Value of the pop reward in Rigo tokens."
					}
				},
				"setRatio(address,uint256)": {
					"details": "Allows RigoBlock Dao to set the ratio between assets and performance reward for a group.",
					"params": {
						"groupAddress": "Address of the pool's group.",
						"newRatio": "Value of the new ratio."
					}
				},
				"setRegistry(address)": {
					"details": "Allows RigoBlock Dao to update the pools registry.",
					"params": {
						"newDragoRegistryAddress": "Address of new registry."
					}
				},
				"setRigoblockDao(address)": {
					"details": "Allows RigoBlock Dao to update its address.",
					"params": {
						"newRigoblockDaoAddress": "Address of new dao."
					}
				}
			},
			"title": "Proof of Performance - Controls parameters of inflation.",
			"version": 1
		},
		"evm": {
			"bytecode": {
				"linkReferences": {},
				"object": "0x608060405234801561001057600080fd5b50604051611acd380380611acd8339818101604052608081101561003357600080fd5b50805160208201516040830151606090930151600080546001600160a01b039485166001600160a01b0319918216179091556003805493851693821693909317909255600280549484169483169490941790935560018054929093169116179055611a2a806100a36000396000f3fe608060405234801561001057600080fd5b50600436106101365760003560e01c80637d0107cf116100b2578063a6c9c44311610081578063b516e6e111610066578063b516e6e114610395578063d21c87ad146103c8578063d418634a1461044757610136565b8063a6c9c4431461035a578063a91ee0dc1461036257610136565b80637d0107cf146102e75780637f8be8591461030457806382afd23b1461030c5780639af94f301461033d57610136565b8063427fdc0c116101095780634d749e43116100ee5780634d749e431461027657806363d5e44d146102ac578063663b64f7146102df57610136565b8063427fdc0c1461023c57806346a62eaf1461025957610136565b8063025796771461013b578063057520471461016c578063249d9123146101a7578063360dafa0146101d6575b600080fd5b610143610464565b6040805173ffffffffffffffffffffffffffffffffffffffff9092168252519081900360200190f35b6101a56004803603604081101561018257600080fd5b5073ffffffffffffffffffffffffffffffffffffffff8135169060200135610480565b005b6101c4600480360360208110156101bd57600080fd5b5035610522565b60408051918252519081900360200190f35b6101f3600480360360208110156101ec57600080fd5b5035610535565b604051808373ffffffffffffffffffffffffffffffffffffffff1681526020018273ffffffffffffffffffffffffffffffffffffffff1681526020019250505060405180910390f35b6101c46004803603602081101561025257600080fd5b503561054a565b6101c46004803603602081101561026f57600080fd5b503561055d565b6102936004803603602081101561028c57600080fd5b5035610572565b6040805192835260208301919091528051918290030190f35b6101c4600480360360208110156102c257600080fd5b503573ffffffffffffffffffffffffffffffffffffffff1661057e565b610143610590565b6101a5600480360360208110156102fd57600080fd5b50356105ac565b610143610946565b6103296004803603602081101561032257600080fd5b5035610962565b604080519115158252519081900360200190f35b6102936004803603602081101561035357600080fd5b503561096d565b610143610984565b6101a56004803603602081101561037857600080fd5b503573ffffffffffffffffffffffffffffffffffffffff166109a0565b6101a5600480360360208110156103ab57600080fd5b503573ffffffffffffffffffffffffffffffffffffffff166109ef565b6103e5600480360360208110156103de57600080fd5b5035610a3e565b604080519915158a5273ffffffffffffffffffffffffffffffffffffffff98891660208b015296909716888701526060880194909452608087019290925260a086015260c085015260e084015261010083019190915251908190036101200190f35b6101c46004803603602081101561045d57600080fd5b5035610a9f565b60025473ffffffffffffffffffffffffffffffffffffffff1681565b610488610ab5565b6127108111156104f957604080517f08c379a000000000000000000000000000000000000000000000000000000000815260206004820152601760248201527f524154494f5f4249474745525f5448414e5f3130303030000000000000000000604482015290519081900360640190fd5b73ffffffffffffffffffffffffffffffffffffffff909116600090815260046020526040902055565b600061052d82610b3d565b90505b919050565b60008061054183610b74565b91509150915091565b600061055582610db8565b949350505050565b60008061056983610f5b565b95945050505050565b600080610541836110d2565b60046020526000908152604090205481565b60015473ffffffffffffffffffffffffffffffffffffffff1681565b600254604080517fc277f1ac00000000000000000000000000000000000000000000000000000000815260048101849052905160009273ffffffffffffffffffffffffffffffffffffffff169163c277f1ac9160248083019286929190829003018186803b15801561061d57600080fd5b505afa158015610631573d6000803e3d6000fd5b505050506040513d6000823e601f3d9081017fffffffffffffffffffffffffffffffffffffffffffffffffffffffffffffffe016820160405260c081101561067857600080fd5b81516020830180516040519294929383019291908464010000000082111561069f57600080fd5b9083019060208201858111156106b457600080fd5b82516401000000008111828201881017156106ce57600080fd5b82525081516020918201929091019080838360005b838110156106fb5781810151838201526020016106e3565b50505050905090810190601f1680156107285780820380516001836020036101000a031916815260200191505b506040526020018051604051939291908464010000000082111561074b57600080fd5b90830190602082018581111561076057600080fd5b825164010000000081118282018810171561077a57600080fd5b82525081516020918201929091019080838360005b838110156107a757818101518382015260200161078f565b50505050905090810190601f1680156107d45780820380516001836020036101000a031916815260200191505b5060408181527f9489fa840000000000000000000000000000000000000000000000000000000082525196975060009673ffffffffffffffffffffffffffffffffffffffff89169650639489fa849550600480830195506020945090925090829003018186803b15801561084757600080fd5b505afa15801561085b573d6000803e3d6000fd5b505050506040513d602081101561087157600080fd5b5051905061087e3361120e565b1561088c5761088c82611214565b61089583611285565b60006108a0846110d2565b5090506108ad82856112b3565b600154604080517fecc128f200000000000000000000000000000000000000000000000000000000815273ffffffffffffffffffffffffffffffffffffffff8681166004830152602482018590529151919092169163ecc128f291604480830192600092919082900301818387803b15801561092857600080fd5b505af115801561093c573d6000803e3d6000fd5b5050505050505050565b60035473ffffffffffffffffffffffffffffffffffffffff1681565b600061052d826112df565b60008061097983610db8565b509094909350915050565b60005473ffffffffffffffffffffffffffffffffffffffff1681565b6109a8610ab5565b600280547fffffffffffffffffffffffff00000000000000000000000000000000000000001673ffffffffffffffffffffffffffffffffffffffff92909216919091179055565b6109f7610ab5565b600380547fffffffffffffffffffffffff00000000000000000000000000000000000000001673ffffffffffffffffffffffffffffffffffffffff92909216919091179055565b6000806000806000806000806000610a558a6112df565b9850610a608a610b74565b9098509650610a6e8a610db8565b91975095509350610a7e8a610f5b565b919450909250610a8f90508a6110d2565b5090509193959799909294969850565b600080610aab83610f5b565b5090949350505050565b60035473ffffffffffffffffffffffffffffffffffffffff163314610b3b57604080517f08c379a000000000000000000000000000000000000000000000000000000000815260206004820152601e60248201527f43414c4c45525f4e4f545f5249474f424c4f434b5f44414f5f4552524f520000604482015290519081900360640190fd5b565b600081815260056020526040812054610b5f5750670de0b6b3a7640000610530565b50600081815260056020526040902054610530565b600254604080517fc277f1ac000000000000000000000000000000000000000000000000000000008152600481018490529051600092839273ffffffffffffffffffffffffffffffffffffffff9091169163c277f1ac916024808201928692909190829003018186803b158015610bea57600080fd5b505afa158015610bfe573d6000803e3d6000fd5b505050506040513d6000823e601f3d9081017fffffffffffffffffffffffffffffffffffffffffffffffffffffffffffffffe016820160405260c0811015610c4557600080fd5b815160208301805160405192949293830192919084640100000000821115610c6c57600080fd5b908301906020820185811115610c8157600080fd5b8251640100000000811182820188101715610c9b57600080fd5b82525081516020918201929091019080838360005b83811015610cc8578181015183820152602001610cb0565b50505050905090810190601f168015610cf55780820380516001836020036101000a031916815260200191505b5060405260200180516040519392919084640100000000821115610d1857600080fd5b908301906020820185811115610d2d57600080fd5b8251640100000000811182820188101715610d4757600080fd5b82525081516020918201929091019080838360005b83811015610d74578181015183820152602001610d5c565b50505050905090810190601f168015610da15780820380516001836020036101000a031916815260200191505b506040526060015194965093945050505050915091565b600080600080610dc785610b74565b50905060008190508073ffffffffffffffffffffffffffffffffffffffff16639489fa846040518163ffffffff1660e01b815260040160206040518083038186803b158015610e1557600080fd5b505afa158015610e29573d6000803e3d6000fd5b505050506040513d6020811015610e3f57600080fd5b5051604080517f18160ddd000000000000000000000000000000000000000000000000000000008152905191965073ffffffffffffffffffffffffffffffffffffffff8316916318160ddd91600480820192602092909190829003018186803b158015610eab57600080fd5b505afa158015610ebf573d6000803e3d6000fd5b505050506040513d6020811015610ed557600080fd5b50519350841580610ee4575083155b15610f3a576040517f08c379a00000000000000000000000000000000000000000000000000000000081526004018080602001828103825260258152602001806119a96025913960400191505060405180910390fd5b620f4240610f48868661154a565b81610f4f57fe5b04925050509193909250565b600080600080610f6a85610b74565b915050610f75611573565b73ffffffffffffffffffffffffffffffffffffffff1663d410e0c2826040518263ffffffff1660e01b8152600401808273ffffffffffffffffffffffffffffffffffffffff16815260200191505060206040518083038186803b158015610fdb57600080fd5b505afa158015610fef573d6000803e3d6000fd5b505050506040513d602081101561100557600080fd5b5051600154604080517f5e615a6b000000000000000000000000000000000000000000000000000000008152905192965073ffffffffffffffffffffffffffffffffffffffff90911691635e615a6b9160048082019260a092909190829003018186803b15801561107557600080fd5b505afa158015611089573d6000803e3d6000fd5b505050506040513d60a081101561109f57600080fd5b505173ffffffffffffffffffffffffffffffffffffffff9091166000908152600460205260409020549395909450915050565b60008060008060006110e386610db8565b92509250925060006110f487610b74565b50905060008060006111058a610f5b565b9250925092506000620151808361111c888761154a565b028161112457fe5b04905060006111328c610b3d565b89111561116b57611162620f424061115461114c8f610b3d565b8c038b61154a565b8161115b57fe5b048661154a565b61016d0261116e565b60005b90506000670de0b6b3a7640000611185888a61160d565b69021e19e0c9bab24000006111a5866111a06127108a61194d565b61154a565b816111ac57fe5b0402816111b557fe5b049050670de0b6b3a76400006111cb888a61160d565b6111e86111d8858861154a565b69021e19e0c9bab240000061195f565b02816111f057fe5b049a506111fd8b8261198e565b9b5050505050505050505050915091565b3b151590565b3373ffffffffffffffffffffffffffffffffffffffff821614611282576040517f08c379a00000000000000000000000000000000000000000000000000000000081526004018080602001828103825260278152602001806119ce6027913960400191505060405180910390fd5b50565b600081815260056020526040902054611282576000908152600560205260409020670de0b6b3a76400009055565b6000818152600560205260409020548211156112db5760008181526005602052604090208290555b5050565b600254604080517fc277f1ac000000000000000000000000000000000000000000000000000000008152600481018490529051600092839273ffffffffffffffffffffffffffffffffffffffff9091169163c277f1ac916024808201928692909190829003018186803b15801561135557600080fd5b505afa158015611369573d6000803e3d6000fd5b505050506040513d6000823e601f3d9081017fffffffffffffffffffffffffffffffffffffffffffffffffffffffffffffffe016820160405260c08110156113b057600080fd5b8151602083018051604051929492938301929190846401000000008211156113d757600080fd5b9083019060208201858111156113ec57600080fd5b825164010000000081118282018810171561140657600080fd5b82525081516020918201929091019080838360005b8381101561143357818101518382015260200161141b565b50505050905090810190601f1680156114605780820380516001836020036101000a031916815260200191505b506040526020018051604051939291908464010000000082111561148357600080fd5b90830190602082018581111561149857600080fd5b82516401000000008111828201881017156114b257600080fd5b82525081516020918201929091019080838360005b838110156114df5781810151838201526020016114c7565b50505050905090810190601f16801561150c5780820380516001836020036101000a031916815260200191505b5060405250939450505073ffffffffffffffffffffffffffffffffffffffff83161591506115409050576001915050610530565b6000915050610530565b600082820283158061156457508284828161156157fe5b04145b61156a57fe5b90505b92915050565b60008060009054906101000a900473ffffffffffffffffffffffffffffffffffffffff1673ffffffffffffffffffffffffffffffffffffffff1663075461726040518163ffffffff1660e01b815260040160206040518083038186803b1580156115dc57600080fd5b505afa1580156115f0573d6000803e3d6000fd5b505050506040513d602081101561160657600080fd5b5051905090565b600073ffffffffffffffffffffffffffffffffffffffff8316318281118061163b575066038d7ea4c6800081105b8061164c5750662386f26fc1000083105b156116b857604080517f08c379a000000000000000000000000000000000000000000000000000000000815260206004820152601b60248201527f4554485f41424f56455f41554d5f4f525f445553545f4552524f520000000000604482015290519081900360640190fd5b670b1a2bc2ec5000008382670de0b6b3a764000002816116d457fe5b04106116eb57670de0b6b3a764000091505061156d565b670853a0d2313c00008382670de0b6b3a7640000028161170757fe5b041061171e57670d163580f731800091505061156d565b6706f05b59d3b200008382670de0b6b3a7640000028161173a57fe5b041061175157670c39f0d50f1e800091505061156d565b67058d15e1762800008382670de0b6b3a7640000028161176d57fe5b041061178457670aac096cf846800091505061156d565b670429d069189e00008382670de0b6b3a764000002816117a057fe5b04106117b75767085013538c75800091505061156d565b6702c68af0bb1400008382670de0b6b3a764000002816117d357fe5b04106117ea57670590a3601aee800091505061156d565b67016345785d8a00008382670de0b6b3a7640000028161180657fe5b041061181d57670334ad46af1d800091505061156d565b67010a741a462780008382670de0b6b3a7640000028161183957fe5b0410611850576702bf6ff37187000091505061156d565b66b1a2bc2ec500008382670de0b6b3a7640000028161186b57fe5b041061188257670254db1c2244000091505061156d565b668700cc757700008382670de0b6b3a7640000028161189d57fe5b04106118b457670226abadc42f800091505061156d565b6658d15e176280008382670de0b6b3a764000002816118cf57fe5b04106118e6576701f87c3f661b000091505061156d565b604080517f08c379a000000000000000000000000000000000000000000000000000000000815260206004820152601f60248201527f4554485f42454c4f575f322e355f50455243454e545f41554d5f4552524f5200604482015290519081900360640190fd5b60008282111561195957fe5b50900390565b600080821161196a57fe5b600082848161197557fe5b04905082848161198157fe5b0681840201841461156a57fe5b600082820183811080159061156457508281101561156a57fefe504f4f4c5f50524943455f4f525f544f54414c5f535550504c595f4e554c4c5f4552524f52534d4152545f434f4e54524143545f43414c4c45525f49535f4e4f545f504f4f4c5f4552524f52a2646970667358221220b6f29d283b404e821979bac780c1d14933094f969052684d74b57e8bd761ff2a64736f6c63430007040033",
				"opcodes": "PUSH1 0x80 PUSH1 0x40 MSTORE CALLVALUE DUP1 ISZERO PUSH2 0x10 JUMPI PUSH1 0x0 DUP1 REVERT JUMPDEST POP PUSH1 0x40 MLOAD PUSH2 0x1ACD CODESIZE SUB DUP1 PUSH2 0x1ACD DUP4 CODECOPY DUP2 DUP2 ADD PUSH1 0x40 MSTORE PUSH1 0x80 DUP2 LT ISZERO PUSH2 0x33 JUMPI PUSH1 0x0 DUP1 REVERT JUMPDEST POP DUP1 MLOAD PUSH1 0x20 DUP3 ADD MLOAD PUSH1 0x40 DUP4 ADD MLOAD PUSH1 0x60 SWAP1 SWAP4 ADD MLOAD PUSH1 0x0 DUP1 SLOAD PUSH1 0x1 PUSH1 0x1 PUSH1 0xA0 SHL SUB SWAP5 DUP6 AND PUSH1 0x1 PUSH1 0x1 PUSH1 0xA0 SHL SUB NOT SWAP2 DUP3 AND OR SWAP1 SWAP2 SSTORE PUSH1 0x3 DUP1 SLOAD SWAP4 DUP6 AND SWAP4 DUP3 AND SWAP4 SWAP1 SWAP4 OR SWAP1 SWAP3 SSTORE PUSH1 0x2 DUP1 SLOAD SWAP5 DUP5 AND SWAP5 DUP4 AND SWAP5 SWAP1 SWAP5 OR SWAP1 SWAP4 SSTORE PUSH1 0x1 DUP1 SLOAD SWAP3 SWAP1 SWAP4 AND SWAP2 AND OR SWAP1 SSTORE PUSH2 0x1A2A DUP1 PUSH2 0xA3 PUSH1 0x0 CODECOPY PUSH1 0x0 RETURN INVALID PUSH1 0x80 PUSH1 0x40 MSTORE CALLVALUE DUP1 ISZERO PUSH2 0x10 JUMPI PUSH1 0x0 DUP1 REVERT JUMPDEST POP PUSH1 0x4 CALLDATASIZE LT PUSH2 0x136 JUMPI PUSH1 0x0 CALLDATALOAD PUSH1 0xE0 SHR DUP1 PUSH4 0x7D0107CF GT PUSH2 0xB2 JUMPI DUP1 PUSH4 0xA6C9C443 GT PUSH2 0x81 JUMPI DUP1 PUSH4 0xB516E6E1 GT PUSH2 0x66 JUMPI DUP1 PUSH4 0xB516E6E1 EQ PUSH2 0x395 JUMPI DUP1 PUSH4 0xD21C87AD EQ PUSH2 0x3C8 JUMPI DUP1 PUSH4 0xD418634A EQ PUSH2 0x447 JUMPI PUSH2 0x136 JUMP JUMPDEST DUP1 PUSH4 0xA6C9C443 EQ PUSH2 0x35A JUMPI DUP1 PUSH4 0xA91EE0DC EQ PUSH2 0x362 JUMPI PUSH2 0x136 JUMP JUMPDEST DUP1 PUSH4 0x7D0107CF EQ PUSH2 0x2E7 JUMPI DUP1 PUSH4 0x7F8BE859 EQ PUSH2 0x304 JUMPI DUP1 PUSH4 0x82AFD23B EQ PUSH2 0x30C JUMPI DUP1 PUSH4 0x9AF94F30 EQ PUSH2 0x33D JUMPI PUSH2 0x136 JUMP JUMPDEST DUP1 PUSH4 0x427FDC0C GT PUSH2 0x109 JUMPI DUP1 PUSH4 0x4D749E43 GT PUSH2 0xEE JUMPI DUP1 PUSH4 0x4D749E43 EQ PUSH2 0x276 JUMPI DUP1 PUSH4 0x63D5E44D EQ PUSH2 0x2AC JUMPI DUP1 PUSH4 0x663B64F7 EQ PUSH2 0x2DF JUMPI PUSH2 0x136 JUMP JUMPDEST DUP1 PUSH4 0x427FDC0C EQ PUSH2 0x23C JUMPI DUP1 PUSH4 0x46A62EAF EQ PUSH2 0x259 JUMPI PUSH2 0x136 JUMP JUMPDEST DUP1 PUSH4 0x2579677 EQ PUSH2 0x13B JUMPI DUP1 PUSH4 0x5752047 EQ PUSH2 0x16C JUMPI DUP1 PUSH4 0x249D9123 EQ PUSH2 0x1A7 JUMPI DUP1 PUSH4 0x360DAFA0 EQ PUSH2 0x1D6 JUMPI JUMPDEST PUSH1 0x0 DUP1 REVERT JUMPDEST PUSH2 0x143 PUSH2 0x464 JUMP JUMPDEST PUSH1 0x40 DUP1 MLOAD PUSH20 0xFFFFFFFFFFFFFFFFFFFFFFFFFFFFFFFFFFFFFFFF SWAP1 SWAP3 AND DUP3 MSTORE MLOAD SWAP1 DUP2 SWAP1 SUB PUSH1 0x20 ADD SWAP1 RETURN JUMPDEST PUSH2 0x1A5 PUSH1 0x4 DUP1 CALLDATASIZE SUB PUSH1 0x40 DUP2 LT ISZERO PUSH2 0x182 JUMPI PUSH1 0x0 DUP1 REVERT JUMPDEST POP PUSH20 0xFFFFFFFFFFFFFFFFFFFFFFFFFFFFFFFFFFFFFFFF DUP2 CALLDATALOAD AND SWAP1 PUSH1 0x20 ADD CALLDATALOAD PUSH2 0x480 JUMP JUMPDEST STOP JUMPDEST PUSH2 0x1C4 PUSH1 0x4 DUP1 CALLDATASIZE SUB PUSH1 0x20 DUP2 LT ISZERO PUSH2 0x1BD JUMPI PUSH1 0x0 DUP1 REVERT JUMPDEST POP CALLDATALOAD PUSH2 0x522 JUMP JUMPDEST PUSH1 0x40 DUP1 MLOAD SWAP2 DUP3 MSTORE MLOAD SWAP1 DUP2 SWAP1 SUB PUSH1 0x20 ADD SWAP1 RETURN JUMPDEST PUSH2 0x1F3 PUSH1 0x4 DUP1 CALLDATASIZE SUB PUSH1 0x20 DUP2 LT ISZERO PUSH2 0x1EC JUMPI PUSH1 0x0 DUP1 REVERT JUMPDEST POP CALLDATALOAD PUSH2 0x535 JUMP JUMPDEST PUSH1 0x40 MLOAD DUP1 DUP4 PUSH20 0xFFFFFFFFFFFFFFFFFFFFFFFFFFFFFFFFFFFFFFFF AND DUP2 MSTORE PUSH1 0x20 ADD DUP3 PUSH20 0xFFFFFFFFFFFFFFFFFFFFFFFFFFFFFFFFFFFFFFFF AND DUP2 MSTORE PUSH1 0x20 ADD SWAP3 POP POP POP PUSH1 0x40 MLOAD DUP1 SWAP2 SUB SWAP1 RETURN JUMPDEST PUSH2 0x1C4 PUSH1 0x4 DUP1 CALLDATASIZE SUB PUSH1 0x20 DUP2 LT ISZERO PUSH2 0x252 JUMPI PUSH1 0x0 DUP1 REVERT JUMPDEST POP CALLDATALOAD PUSH2 0x54A JUMP JUMPDEST PUSH2 0x1C4 PUSH1 0x4 DUP1 CALLDATASIZE SUB PUSH1 0x20 DUP2 LT ISZERO PUSH2 0x26F JUMPI PUSH1 0x0 DUP1 REVERT JUMPDEST POP CALLDATALOAD PUSH2 0x55D JUMP JUMPDEST PUSH2 0x293 PUSH1 0x4 DUP1 CALLDATASIZE SUB PUSH1 0x20 DUP2 LT ISZERO PUSH2 0x28C JUMPI PUSH1 0x0 DUP1 REVERT JUMPDEST POP CALLDATALOAD PUSH2 0x572 JUMP JUMPDEST PUSH1 0x40 DUP1 MLOAD SWAP3 DUP4 MSTORE PUSH1 0x20 DUP4 ADD SWAP2 SWAP1 SWAP2 MSTORE DUP1 MLOAD SWAP2 DUP3 SWAP1 SUB ADD SWAP1 RETURN JUMPDEST PUSH2 0x1C4 PUSH1 0x4 DUP1 CALLDATASIZE SUB PUSH1 0x20 DUP2 LT ISZERO PUSH2 0x2C2 JUMPI PUSH1 0x0 DUP1 REVERT JUMPDEST POP CALLDATALOAD PUSH20 0xFFFFFFFFFFFFFFFFFFFFFFFFFFFFFFFFFFFFFFFF AND PUSH2 0x57E JUMP JUMPDEST PUSH2 0x143 PUSH2 0x590 JUMP JUMPDEST PUSH2 0x1A5 PUSH1 0x4 DUP1 CALLDATASIZE SUB PUSH1 0x20 DUP2 LT ISZERO PUSH2 0x2FD JUMPI PUSH1 0x0 DUP1 REVERT JUMPDEST POP CALLDATALOAD PUSH2 0x5AC JUMP JUMPDEST PUSH2 0x143 PUSH2 0x946 JUMP JUMPDEST PUSH2 0x329 PUSH1 0x4 DUP1 CALLDATASIZE SUB PUSH1 0x20 DUP2 LT ISZERO PUSH2 0x322 JUMPI PUSH1 0x0 DUP1 REVERT JUMPDEST POP CALLDATALOAD PUSH2 0x962 JUMP JUMPDEST PUSH1 0x40 DUP1 MLOAD SWAP2 ISZERO ISZERO DUP3 MSTORE MLOAD SWAP1 DUP2 SWAP1 SUB PUSH1 0x20 ADD SWAP1 RETURN JUMPDEST PUSH2 0x293 PUSH1 0x4 DUP1 CALLDATASIZE SUB PUSH1 0x20 DUP2 LT ISZERO PUSH2 0x353 JUMPI PUSH1 0x0 DUP1 REVERT JUMPDEST POP CALLDATALOAD PUSH2 0x96D JUMP JUMPDEST PUSH2 0x143 PUSH2 0x984 JUMP JUMPDEST PUSH2 0x1A5 PUSH1 0x4 DUP1 CALLDATASIZE SUB PUSH1 0x20 DUP2 LT ISZERO PUSH2 0x378 JUMPI PUSH1 0x0 DUP1 REVERT JUMPDEST POP CALLDATALOAD PUSH20 0xFFFFFFFFFFFFFFFFFFFFFFFFFFFFFFFFFFFFFFFF AND PUSH2 0x9A0 JUMP JUMPDEST PUSH2 0x1A5 PUSH1 0x4 DUP1 CALLDATASIZE SUB PUSH1 0x20 DUP2 LT ISZERO PUSH2 0x3AB JUMPI PUSH1 0x0 DUP1 REVERT JUMPDEST POP CALLDATALOAD PUSH20 0xFFFFFFFFFFFFFFFFFFFFFFFFFFFFFFFFFFFFFFFF AND PUSH2 0x9EF JUMP JUMPDEST PUSH2 0x3E5 PUSH1 0x4 DUP1 CALLDATASIZE SUB PUSH1 0x20 DUP2 LT ISZERO PUSH2 0x3DE JUMPI PUSH1 0x0 DUP1 REVERT JUMPDEST POP CALLDATALOAD PUSH2 0xA3E JUMP JUMPDEST PUSH1 0x40 DUP1 MLOAD SWAP10 ISZERO ISZERO DUP11 MSTORE PUSH20 0xFFFFFFFFFFFFFFFFFFFFFFFFFFFFFFFFFFFFFFFF SWAP9 DUP10 AND PUSH1 0x20 DUP12 ADD MSTORE SWAP7 SWAP1 SWAP8 AND DUP9 DUP8 ADD MSTORE PUSH1 0x60 DUP9 ADD SWAP5 SWAP1 SWAP5 MSTORE PUSH1 0x80 DUP8 ADD SWAP3 SWAP1 SWAP3 MSTORE PUSH1 0xA0 DUP7 ADD MSTORE PUSH1 0xC0 DUP6 ADD MSTORE PUSH1 0xE0 DUP5 ADD MSTORE PUSH2 0x100 DUP4 ADD SWAP2 SWAP1 SWAP2 MSTORE MLOAD SWAP1 DUP2 SWAP1 SUB PUSH2 0x120 ADD SWAP1 RETURN JUMPDEST PUSH2 0x1C4 PUSH1 0x4 DUP1 CALLDATASIZE SUB PUSH1 0x20 DUP2 LT ISZERO PUSH2 0x45D JUMPI PUSH1 0x0 DUP1 REVERT JUMPDEST POP CALLDATALOAD PUSH2 0xA9F JUMP JUMPDEST PUSH1 0x2 SLOAD PUSH20 0xFFFFFFFFFFFFFFFFFFFFFFFFFFFFFFFFFFFFFFFF AND DUP2 JUMP JUMPDEST PUSH2 0x488 PUSH2 0xAB5 JUMP JUMPDEST PUSH2 0x2710 DUP2 GT ISZERO PUSH2 0x4F9 JUMPI PUSH1 0x40 DUP1 MLOAD PUSH32 0x8C379A000000000000000000000000000000000000000000000000000000000 DUP2 MSTORE PUSH1 0x20 PUSH1 0x4 DUP3 ADD MSTORE PUSH1 0x17 PUSH1 0x24 DUP3 ADD MSTORE PUSH32 0x524154494F5F4249474745525F5448414E5F3130303030000000000000000000 PUSH1 0x44 DUP3 ADD MSTORE SWAP1 MLOAD SWAP1 DUP2 SWAP1 SUB PUSH1 0x64 ADD SWAP1 REVERT JUMPDEST PUSH20 0xFFFFFFFFFFFFFFFFFFFFFFFFFFFFFFFFFFFFFFFF SWAP1 SWAP2 AND PUSH1 0x0 SWAP1 DUP2 MSTORE PUSH1 0x4 PUSH1 0x20 MSTORE PUSH1 0x40 SWAP1 KECCAK256 SSTORE JUMP JUMPDEST PUSH1 0x0 PUSH2 0x52D DUP3 PUSH2 0xB3D JUMP JUMPDEST SWAP1 POP JUMPDEST SWAP2 SWAP1 POP JUMP JUMPDEST PUSH1 0x0 DUP1 PUSH2 0x541 DUP4 PUSH2 0xB74 JUMP JUMPDEST SWAP2 POP SWAP2 POP SWAP2 POP SWAP2 JUMP JUMPDEST PUSH1 0x0 PUSH2 0x555 DUP3 PUSH2 0xDB8 JUMP JUMPDEST SWAP5 SWAP4 POP POP POP POP JUMP JUMPDEST PUSH1 0x0 DUP1 PUSH2 0x569 DUP4 PUSH2 0xF5B JUMP JUMPDEST SWAP6 SWAP5 POP POP POP POP POP JUMP JUMPDEST PUSH1 0x0 DUP1 PUSH2 0x541 DUP4 PUSH2 0x10D2 JUMP JUMPDEST PUSH1 0x4 PUSH1 0x20 MSTORE PUSH1 0x0 SWAP1 DUP2 MSTORE PUSH1 0x40 SWAP1 KECCAK256 SLOAD DUP2 JUMP JUMPDEST PUSH1 0x1 SLOAD PUSH20 0xFFFFFFFFFFFFFFFFFFFFFFFFFFFFFFFFFFFFFFFF AND DUP2 JUMP JUMPDEST PUSH1 0x2 SLOAD PUSH1 0x40 DUP1 MLOAD PUSH32 0xC277F1AC00000000000000000000000000000000000000000000000000000000 DUP2 MSTORE PUSH1 0x4 DUP2 ADD DUP5 SWAP1 MSTORE SWAP1 MLOAD PUSH1 0x0 SWAP3 PUSH20 0xFFFFFFFFFFFFFFFFFFFFFFFFFFFFFFFFFFFFFFFF AND SWAP2 PUSH4 0xC277F1AC SWAP2 PUSH1 0x24 DUP1 DUP4 ADD SWAP3 DUP7 SWAP3 SWAP2 SWAP1 DUP3 SWAP1 SUB ADD DUP2 DUP7 DUP1 EXTCODESIZE ISZERO DUP1 ISZERO PUSH2 0x61D JUMPI PUSH1 0x0 DUP1 REVERT JUMPDEST POP GAS STATICCALL ISZERO DUP1 ISZERO PUSH2 0x631 JUMPI RETURNDATASIZE PUSH1 0x0 DUP1 RETURNDATACOPY RETURNDATASIZE PUSH1 0x0 REVERT JUMPDEST POP POP POP POP PUSH1 0x40 MLOAD RETURNDATASIZE PUSH1 0x0 DUP3 RETURNDATACOPY PUSH1 0x1F RETURNDATASIZE SWAP1 DUP2 ADD PUSH32 0xFFFFFFFFFFFFFFFFFFFFFFFFFFFFFFFFFFFFFFFFFFFFFFFFFFFFFFFFFFFFFFE0 AND DUP3 ADD PUSH1 0x40 MSTORE PUSH1 0xC0 DUP2 LT ISZERO PUSH2 0x678 JUMPI PUSH1 0x0 DUP1 REVERT JUMPDEST DUP2 MLOAD PUSH1 0x20 DUP4 ADD DUP1 MLOAD PUSH1 0x40 MLOAD SWAP3 SWAP5 SWAP3 SWAP4 DUP4 ADD SWAP3 SWAP2 SWAP1 DUP5 PUSH5 0x100000000 DUP3 GT ISZERO PUSH2 0x69F JUMPI PUSH1 0x0 DUP1 REVERT JUMPDEST SWAP1 DUP4 ADD SWAP1 PUSH1 0x20 DUP3 ADD DUP6 DUP2 GT ISZERO PUSH2 0x6B4 JUMPI PUSH1 0x0 DUP1 REVERT JUMPDEST DUP3 MLOAD PUSH5 0x100000000 DUP2 GT DUP3 DUP3 ADD DUP9 LT OR ISZERO PUSH2 0x6CE JUMPI PUSH1 0x0 DUP1 REVERT JUMPDEST DUP3 MSTORE POP DUP2 MLOAD PUSH1 0x20 SWAP2 DUP3 ADD SWAP3 SWAP1 SWAP2 ADD SWAP1 DUP1 DUP4 DUP4 PUSH1 0x0 JUMPDEST DUP4 DUP2 LT ISZERO PUSH2 0x6FB JUMPI DUP2 DUP2 ADD MLOAD DUP4 DUP3 ADD MSTORE PUSH1 0x20 ADD PUSH2 0x6E3 JUMP JUMPDEST POP POP POP POP SWAP1 POP SWAP1 DUP2 ADD SWAP1 PUSH1 0x1F AND DUP1 ISZERO PUSH2 0x728 JUMPI DUP1 DUP3 SUB DUP1 MLOAD PUSH1 0x1 DUP4 PUSH1 0x20 SUB PUSH2 0x100 EXP SUB NOT AND DUP2 MSTORE PUSH1 0x20 ADD SWAP2 POP JUMPDEST POP PUSH1 0x40 MSTORE PUSH1 0x20 ADD DUP1 MLOAD PUSH1 0x40 MLOAD SWAP4 SWAP3 SWAP2 SWAP1 DUP5 PUSH5 0x100000000 DUP3 GT ISZERO PUSH2 0x74B JUMPI PUSH1 0x0 DUP1 REVERT JUMPDEST SWAP1 DUP4 ADD SWAP1 PUSH1 0x20 DUP3 ADD DUP6 DUP2 GT ISZERO PUSH2 0x760 JUMPI PUSH1 0x0 DUP1 REVERT JUMPDEST DUP3 MLOAD PUSH5 0x100000000 DUP2 GT DUP3 DUP3 ADD DUP9 LT OR ISZERO PUSH2 0x77A JUMPI PUSH1 0x0 DUP1 REVERT JUMPDEST DUP3 MSTORE POP DUP2 MLOAD PUSH1 0x20 SWAP2 DUP3 ADD SWAP3 SWAP1 SWAP2 ADD SWAP1 DUP1 DUP4 DUP4 PUSH1 0x0 JUMPDEST DUP4 DUP2 LT ISZERO PUSH2 0x7A7 JUMPI DUP2 DUP2 ADD MLOAD DUP4 DUP3 ADD MSTORE PUSH1 0x20 ADD PUSH2 0x78F JUMP JUMPDEST POP POP POP POP SWAP1 POP SWAP1 DUP2 ADD SWAP1 PUSH1 0x1F AND DUP1 ISZERO PUSH2 0x7D4 JUMPI DUP1 DUP3 SUB DUP1 MLOAD PUSH1 0x1 DUP4 PUSH1 0x20 SUB PUSH2 0x100 EXP SUB NOT AND DUP2 MSTORE PUSH1 0x20 ADD SWAP2 POP JUMPDEST POP PUSH1 0x40 DUP2 DUP2 MSTORE PUSH32 0x9489FA8400000000000000000000000000000000000000000000000000000000 DUP3 MSTORE MLOAD SWAP7 SWAP8 POP PUSH1 0x0 SWAP7 PUSH20 0xFFFFFFFFFFFFFFFFFFFFFFFFFFFFFFFFFFFFFFFF DUP10 AND SWAP7 POP PUSH4 0x9489FA84 SWAP6 POP PUSH1 0x4 DUP1 DUP4 ADD SWAP6 POP PUSH1 0x20 SWAP5 POP SWAP1 SWAP3 POP SWAP1 DUP3 SWAP1 SUB ADD DUP2 DUP7 DUP1 EXTCODESIZE ISZERO DUP1 ISZERO PUSH2 0x847 JUMPI PUSH1 0x0 DUP1 REVERT JUMPDEST POP GAS STATICCALL ISZERO DUP1 ISZERO PUSH2 0x85B JUMPI RETURNDATASIZE PUSH1 0x0 DUP1 RETURNDATACOPY RETURNDATASIZE PUSH1 0x0 REVERT JUMPDEST POP POP POP POP PUSH1 0x40 MLOAD RETURNDATASIZE PUSH1 0x20 DUP2 LT ISZERO PUSH2 0x871 JUMPI PUSH1 0x0 DUP1 REVERT JUMPDEST POP MLOAD SWAP1 POP PUSH2 0x87E CALLER PUSH2 0x120E JUMP JUMPDEST ISZERO PUSH2 0x88C JUMPI PUSH2 0x88C DUP3 PUSH2 0x1214 JUMP JUMPDEST PUSH2 0x895 DUP4 PUSH2 0x1285 JUMP JUMPDEST PUSH1 0x0 PUSH2 0x8A0 DUP5 PUSH2 0x10D2 JUMP JUMPDEST POP SWAP1 POP PUSH2 0x8AD DUP3 DUP6 PUSH2 0x12B3 JUMP JUMPDEST PUSH1 0x1 SLOAD PUSH1 0x40 DUP1 MLOAD PUSH32 0xECC128F200000000000000000000000000000000000000000000000000000000 DUP2 MSTORE PUSH20 0xFFFFFFFFFFFFFFFFFFFFFFFFFFFFFFFFFFFFFFFF DUP7 DUP2 AND PUSH1 0x4 DUP4 ADD MSTORE PUSH1 0x24 DUP3 ADD DUP6 SWAP1 MSTORE SWAP2 MLOAD SWAP2 SWAP1 SWAP3 AND SWAP2 PUSH4 0xECC128F2 SWAP2 PUSH1 0x44 DUP1 DUP4 ADD SWAP3 PUSH1 0x0 SWAP3 SWAP2 SWAP1 DUP3 SWAP1 SUB ADD DUP2 DUP4 DUP8 DUP1 EXTCODESIZE ISZERO DUP1 ISZERO PUSH2 0x928 JUMPI PUSH1 0x0 DUP1 REVERT JUMPDEST POP GAS CALL ISZERO DUP1 ISZERO PUSH2 0x93C JUMPI RETURNDATASIZE PUSH1 0x0 DUP1 RETURNDATACOPY RETURNDATASIZE PUSH1 0x0 REVERT JUMPDEST POP POP POP POP POP POP POP POP JUMP JUMPDEST PUSH1 0x3 SLOAD PUSH20 0xFFFFFFFFFFFFFFFFFFFFFFFFFFFFFFFFFFFFFFFF AND DUP2 JUMP JUMPDEST PUSH1 0x0 PUSH2 0x52D DUP3 PUSH2 0x12DF JUMP JUMPDEST PUSH1 0x0 DUP1 PUSH2 0x979 DUP4 PUSH2 0xDB8 JUMP JUMPDEST POP SWAP1 SWAP5 SWAP1 SWAP4 POP SWAP2 POP POP JUMP JUMPDEST PUSH1 0x0 SLOAD PUSH20 0xFFFFFFFFFFFFFFFFFFFFFFFFFFFFFFFFFFFFFFFF AND DUP2 JUMP JUMPDEST PUSH2 0x9A8 PUSH2 0xAB5 JUMP JUMPDEST PUSH1 0x2 DUP1 SLOAD PUSH32 0xFFFFFFFFFFFFFFFFFFFFFFFF0000000000000000000000000000000000000000 AND PUSH20 0xFFFFFFFFFFFFFFFFFFFFFFFFFFFFFFFFFFFFFFFF SWAP3 SWAP1 SWAP3 AND SWAP2 SWAP1 SWAP2 OR SWAP1 SSTORE JUMP JUMPDEST PUSH2 0x9F7 PUSH2 0xAB5 JUMP JUMPDEST PUSH1 0x3 DUP1 SLOAD PUSH32 0xFFFFFFFFFFFFFFFFFFFFFFFF0000000000000000000000000000000000000000 AND PUSH20 0xFFFFFFFFFFFFFFFFFFFFFFFFFFFFFFFFFFFFFFFF SWAP3 SWAP1 SWAP3 AND SWAP2 SWAP1 SWAP2 OR SWAP1 SSTORE JUMP JUMPDEST PUSH1 0x0 DUP1 PUSH1 0x0 DUP1 PUSH1 0x0 DUP1 PUSH1 0x0 DUP1 PUSH1 0x0 PUSH2 0xA55 DUP11 PUSH2 0x12DF JUMP JUMPDEST SWAP9 POP PUSH2 0xA60 DUP11 PUSH2 0xB74 JUMP JUMPDEST SWAP1 SWAP9 POP SWAP7 POP PUSH2 0xA6E DUP11 PUSH2 0xDB8 JUMP JUMPDEST SWAP2 SWAP8 POP SWAP6 POP SWAP4 POP PUSH2 0xA7E DUP11 PUSH2 0xF5B JUMP JUMPDEST SWAP2 SWAP5 POP SWAP1 SWAP3 POP PUSH2 0xA8F SWAP1 POP DUP11 PUSH2 0x10D2 JUMP JUMPDEST POP SWAP1 POP SWAP2 SWAP4 SWAP6 SWAP8 SWAP10 SWAP1 SWAP3 SWAP5 SWAP7 SWAP9 POP JUMP JUMPDEST PUSH1 0x0 DUP1 PUSH2 0xAAB DUP4 PUSH2 0xF5B JUMP JUMPDEST POP SWAP1 SWAP5 SWAP4 POP POP POP POP JUMP JUMPDEST PUSH1 0x3 SLOAD PUSH20 0xFFFFFFFFFFFFFFFFFFFFFFFFFFFFFFFFFFFFFFFF AND CALLER EQ PUSH2 0xB3B JUMPI PUSH1 0x40 DUP1 MLOAD PUSH32 0x8C379A000000000000000000000000000000000000000000000000000000000 DUP2 MSTORE PUSH1 0x20 PUSH1 0x4 DUP3 ADD MSTORE PUSH1 0x1E PUSH1 0x24 DUP3 ADD MSTORE PUSH32 0x43414C4C45525F4E4F545F5249474F424C4F434B5F44414F5F4552524F520000 PUSH1 0x44 DUP3 ADD MSTORE SWAP1 MLOAD SWAP1 DUP2 SWAP1 SUB PUSH1 0x64 ADD SWAP1 REVERT JUMPDEST JUMP JUMPDEST PUSH1 0x0 DUP2 DUP2 MSTORE PUSH1 0x5 PUSH1 0x20 MSTORE PUSH1 0x40 DUP2 KECCAK256 SLOAD PUSH2 0xB5F JUMPI POP PUSH8 0xDE0B6B3A7640000 PUSH2 0x530 JUMP JUMPDEST POP PUSH1 0x0 DUP2 DUP2 MSTORE PUSH1 0x5 PUSH1 0x20 MSTORE PUSH1 0x40 SWAP1 KECCAK256 SLOAD PUSH2 0x530 JUMP JUMPDEST PUSH1 0x2 SLOAD PUSH1 0x40 DUP1 MLOAD PUSH32 0xC277F1AC00000000000000000000000000000000000000000000000000000000 DUP2 MSTORE PUSH1 0x4 DUP2 ADD DUP5 SWAP1 MSTORE SWAP1 MLOAD PUSH1 0x0 SWAP3 DUP4 SWAP3 PUSH20 0xFFFFFFFFFFFFFFFFFFFFFFFFFFFFFFFFFFFFFFFF SWAP1 SWAP2 AND SWAP2 PUSH4 0xC277F1AC SWAP2 PUSH1 0x24 DUP1 DUP3 ADD SWAP3 DUP7 SWAP3 SWAP1 SWAP2 SWAP1 DUP3 SWAP1 SUB ADD DUP2 DUP7 DUP1 EXTCODESIZE ISZERO DUP1 ISZERO PUSH2 0xBEA JUMPI PUSH1 0x0 DUP1 REVERT JUMPDEST POP GAS STATICCALL ISZERO DUP1 ISZERO PUSH2 0xBFE JUMPI RETURNDATASIZE PUSH1 0x0 DUP1 RETURNDATACOPY RETURNDATASIZE PUSH1 0x0 REVERT JUMPDEST POP POP POP POP PUSH1 0x40 MLOAD RETURNDATASIZE PUSH1 0x0 DUP3 RETURNDATACOPY PUSH1 0x1F RETURNDATASIZE SWAP1 DUP2 ADD PUSH32 0xFFFFFFFFFFFFFFFFFFFFFFFFFFFFFFFFFFFFFFFFFFFFFFFFFFFFFFFFFFFFFFE0 AND DUP3 ADD PUSH1 0x40 MSTORE PUSH1 0xC0 DUP2 LT ISZERO PUSH2 0xC45 JUMPI PUSH1 0x0 DUP1 REVERT JUMPDEST DUP2 MLOAD PUSH1 0x20 DUP4 ADD DUP1 MLOAD PUSH1 0x40 MLOAD SWAP3 SWAP5 SWAP3 SWAP4 DUP4 ADD SWAP3 SWAP2 SWAP1 DUP5 PUSH5 0x100000000 DUP3 GT ISZERO PUSH2 0xC6C JUMPI PUSH1 0x0 DUP1 REVERT JUMPDEST SWAP1 DUP4 ADD SWAP1 PUSH1 0x20 DUP3 ADD DUP6 DUP2 GT ISZERO PUSH2 0xC81 JUMPI PUSH1 0x0 DUP1 REVERT JUMPDEST DUP3 MLOAD PUSH5 0x100000000 DUP2 GT DUP3 DUP3 ADD DUP9 LT OR ISZERO PUSH2 0xC9B JUMPI PUSH1 0x0 DUP1 REVERT JUMPDEST DUP3 MSTORE POP DUP2 MLOAD PUSH1 0x20 SWAP2 DUP3 ADD SWAP3 SWAP1 SWAP2 ADD SWAP1 DUP1 DUP4 DUP4 PUSH1 0x0 JUMPDEST DUP4 DUP2 LT ISZERO PUSH2 0xCC8 JUMPI DUP2 DUP2 ADD MLOAD DUP4 DUP3 ADD MSTORE PUSH1 0x20 ADD PUSH2 0xCB0 JUMP JUMPDEST POP POP POP POP SWAP1 POP SWAP1 DUP2 ADD SWAP1 PUSH1 0x1F AND DUP1 ISZERO PUSH2 0xCF5 JUMPI DUP1 DUP3 SUB DUP1 MLOAD PUSH1 0x1 DUP4 PUSH1 0x20 SUB PUSH2 0x100 EXP SUB NOT AND DUP2 MSTORE PUSH1 0x20 ADD SWAP2 POP JUMPDEST POP PUSH1 0x40 MSTORE PUSH1 0x20 ADD DUP1 MLOAD PUSH1 0x40 MLOAD SWAP4 SWAP3 SWAP2 SWAP1 DUP5 PUSH5 0x100000000 DUP3 GT ISZERO PUSH2 0xD18 JUMPI PUSH1 0x0 DUP1 REVERT JUMPDEST SWAP1 DUP4 ADD SWAP1 PUSH1 0x20 DUP3 ADD DUP6 DUP2 GT ISZERO PUSH2 0xD2D JUMPI PUSH1 0x0 DUP1 REVERT JUMPDEST DUP3 MLOAD PUSH5 0x100000000 DUP2 GT DUP3 DUP3 ADD DUP9 LT OR ISZERO PUSH2 0xD47 JUMPI PUSH1 0x0 DUP1 REVERT JUMPDEST DUP3 MSTORE POP DUP2 MLOAD PUSH1 0x20 SWAP2 DUP3 ADD SWAP3 SWAP1 SWAP2 ADD SWAP1 DUP1 DUP4 DUP4 PUSH1 0x0 JUMPDEST DUP4 DUP2 LT ISZERO PUSH2 0xD74 JUMPI DUP2 DUP2 ADD MLOAD DUP4 DUP3 ADD MSTORE PUSH1 0x20 ADD PUSH2 0xD5C JUMP JUMPDEST POP POP POP POP SWAP1 POP SWAP1 DUP2 ADD SWAP1 PUSH1 0x1F AND DUP1 ISZERO PUSH2 0xDA1 JUMPI DUP1 DUP3 SUB DUP1 MLOAD PUSH1 0x1 DUP4 PUSH1 0x20 SUB PUSH2 0x100 EXP SUB NOT AND DUP2 MSTORE PUSH1 0x20 ADD SWAP2 POP JUMPDEST POP PUSH1 0x40 MSTORE PUSH1 0x60 ADD MLOAD SWAP5 SWAP7 POP SWAP4 SWAP5 POP POP POP POP POP SWAP2 POP SWAP2 JUMP JUMPDEST PUSH1 0x0 DUP1 PUSH1 0x0 DUP1 PUSH2 0xDC7 DUP6 PUSH2 0xB74 JUMP JUMPDEST POP SWAP1 POP PUSH1 0x0 DUP2 SWAP1 POP DUP1 PUSH20 0xFFFFFFFFFFFFFFFFFFFFFFFFFFFFFFFFFFFFFFFF AND PUSH4 0x9489FA84 PUSH1 0x40 MLOAD DUP2 PUSH4 0xFFFFFFFF AND PUSH1 0xE0 SHL DUP2 MSTORE PUSH1 0x4 ADD PUSH1 0x20 PUSH1 0x40 MLOAD DUP1 DUP4 SUB DUP2 DUP7 DUP1 EXTCODESIZE ISZERO DUP1 ISZERO PUSH2 0xE15 JUMPI PUSH1 0x0 DUP1 REVERT JUMPDEST POP GAS STATICCALL ISZERO DUP1 ISZERO PUSH2 0xE29 JUMPI RETURNDATASIZE PUSH1 0x0 DUP1 RETURNDATACOPY RETURNDATASIZE PUSH1 0x0 REVERT JUMPDEST POP POP POP POP PUSH1 0x40 MLOAD RETURNDATASIZE PUSH1 0x20 DUP2 LT ISZERO PUSH2 0xE3F JUMPI PUSH1 0x0 DUP1 REVERT JUMPDEST POP MLOAD PUSH1 0x40 DUP1 MLOAD PUSH32 0x18160DDD00000000000000000000000000000000000000000000000000000000 DUP2 MSTORE SWAP1 MLOAD SWAP2 SWAP7 POP PUSH20 0xFFFFFFFFFFFFFFFFFFFFFFFFFFFFFFFFFFFFFFFF DUP4 AND SWAP2 PUSH4 0x18160DDD SWAP2 PUSH1 0x4 DUP1 DUP3 ADD SWAP3 PUSH1 0x20 SWAP3 SWAP1 SWAP2 SWAP1 DUP3 SWAP1 SUB ADD DUP2 DUP7 DUP1 EXTCODESIZE ISZERO DUP1 ISZERO PUSH2 0xEAB JUMPI PUSH1 0x0 DUP1 REVERT JUMPDEST POP GAS STATICCALL ISZERO DUP1 ISZERO PUSH2 0xEBF JUMPI RETURNDATASIZE PUSH1 0x0 DUP1 RETURNDATACOPY RETURNDATASIZE PUSH1 0x0 REVERT JUMPDEST POP POP POP POP PUSH1 0x40 MLOAD RETURNDATASIZE PUSH1 0x20 DUP2 LT ISZERO PUSH2 0xED5 JUMPI PUSH1 0x0 DUP1 REVERT JUMPDEST POP MLOAD SWAP4 POP DUP5 ISZERO DUP1 PUSH2 0xEE4 JUMPI POP DUP4 ISZERO JUMPDEST ISZERO PUSH2 0xF3A JUMPI PUSH1 0x40 MLOAD PUSH32 0x8C379A000000000000000000000000000000000000000000000000000000000 DUP2 MSTORE PUSH1 0x4 ADD DUP1 DUP1 PUSH1 0x20 ADD DUP3 DUP2 SUB DUP3 MSTORE PUSH1 0x25 DUP2 MSTORE PUSH1 0x20 ADD DUP1 PUSH2 0x19A9 PUSH1 0x25 SWAP2 CODECOPY PUSH1 0x40 ADD SWAP2 POP POP PUSH1 0x40 MLOAD DUP1 SWAP2 SUB SWAP1 REVERT JUMPDEST PUSH3 0xF4240 PUSH2 0xF48 DUP7 DUP7 PUSH2 0x154A JUMP JUMPDEST DUP2 PUSH2 0xF4F JUMPI INVALID JUMPDEST DIV SWAP3 POP POP POP SWAP2 SWAP4 SWAP1 SWAP3 POP JUMP JUMPDEST PUSH1 0x0 DUP1 PUSH1 0x0 DUP1 PUSH2 0xF6A DUP6 PUSH2 0xB74 JUMP JUMPDEST SWAP2 POP POP PUSH2 0xF75 PUSH2 0x1573 JUMP JUMPDEST PUSH20 0xFFFFFFFFFFFFFFFFFFFFFFFFFFFFFFFFFFFFFFFF AND PUSH4 0xD410E0C2 DUP3 PUSH1 0x40 MLOAD DUP3 PUSH4 0xFFFFFFFF AND PUSH1 0xE0 SHL DUP2 MSTORE PUSH1 0x4 ADD DUP1 DUP3 PUSH20 0xFFFFFFFFFFFFFFFFFFFFFFFFFFFFFFFFFFFFFFFF AND DUP2 MSTORE PUSH1 0x20 ADD SWAP2 POP POP PUSH1 0x20 PUSH1 0x40 MLOAD DUP1 DUP4 SUB DUP2 DUP7 DUP1 EXTCODESIZE ISZERO DUP1 ISZERO PUSH2 0xFDB JUMPI PUSH1 0x0 DUP1 REVERT JUMPDEST POP GAS STATICCALL ISZERO DUP1 ISZERO PUSH2 0xFEF JUMPI RETURNDATASIZE PUSH1 0x0 DUP1 RETURNDATACOPY RETURNDATASIZE PUSH1 0x0 REVERT JUMPDEST POP POP POP POP PUSH1 0x40 MLOAD RETURNDATASIZE PUSH1 0x20 DUP2 LT ISZERO PUSH2 0x1005 JUMPI PUSH1 0x0 DUP1 REVERT JUMPDEST POP MLOAD PUSH1 0x1 SLOAD PUSH1 0x40 DUP1 MLOAD PUSH32 0x5E615A6B00000000000000000000000000000000000000000000000000000000 DUP2 MSTORE SWAP1 MLOAD SWAP3 SWAP7 POP PUSH20 0xFFFFFFFFFFFFFFFFFFFFFFFFFFFFFFFFFFFFFFFF SWAP1 SWAP2 AND SWAP2 PUSH4 0x5E615A6B SWAP2 PUSH1 0x4 DUP1 DUP3 ADD SWAP3 PUSH1 0xA0 SWAP3 SWAP1 SWAP2 SWAP1 DUP3 SWAP1 SUB ADD DUP2 DUP7 DUP1 EXTCODESIZE ISZERO DUP1 ISZERO PUSH2 0x1075 JUMPI PUSH1 0x0 DUP1 REVERT JUMPDEST POP GAS STATICCALL ISZERO DUP1 ISZERO PUSH2 0x1089 JUMPI RETURNDATASIZE PUSH1 0x0 DUP1 RETURNDATACOPY RETURNDATASIZE PUSH1 0x0 REVERT JUMPDEST POP POP POP POP PUSH1 0x40 MLOAD RETURNDATASIZE PUSH1 0xA0 DUP2 LT ISZERO PUSH2 0x109F JUMPI PUSH1 0x0 DUP1 REVERT JUMPDEST POP MLOAD PUSH20 0xFFFFFFFFFFFFFFFFFFFFFFFFFFFFFFFFFFFFFFFF SWAP1 SWAP2 AND PUSH1 0x0 SWAP1 DUP2 MSTORE PUSH1 0x4 PUSH1 0x20 MSTORE PUSH1 0x40 SWAP1 KECCAK256 SLOAD SWAP4 SWAP6 SWAP1 SWAP5 POP SWAP2 POP POP JUMP JUMPDEST PUSH1 0x0 DUP1 PUSH1 0x0 DUP1 PUSH1 0x0 PUSH2 0x10E3 DUP7 PUSH2 0xDB8 JUMP JUMPDEST SWAP3 POP SWAP3 POP SWAP3 POP PUSH1 0x0 PUSH2 0x10F4 DUP8 PUSH2 0xB74 JUMP JUMPDEST POP SWAP1 POP PUSH1 0x0 DUP1 PUSH1 0x0 PUSH2 0x1105 DUP11 PUSH2 0xF5B JUMP JUMPDEST SWAP3 POP SWAP3 POP SWAP3 POP PUSH1 0x0 PUSH3 0x15180 DUP4 PUSH2 0x111C DUP9 DUP8 PUSH2 0x154A JUMP JUMPDEST MUL DUP2 PUSH2 0x1124 JUMPI INVALID JUMPDEST DIV SWAP1 POP PUSH1 0x0 PUSH2 0x1132 DUP13 PUSH2 0xB3D JUMP JUMPDEST DUP10 GT ISZERO PUSH2 0x116B JUMPI PUSH2 0x1162 PUSH3 0xF4240 PUSH2 0x1154 PUSH2 0x114C DUP16 PUSH2 0xB3D JUMP JUMPDEST DUP13 SUB DUP12 PUSH2 0x154A JUMP JUMPDEST DUP2 PUSH2 0x115B JUMPI INVALID JUMPDEST DIV DUP7 PUSH2 0x154A JUMP JUMPDEST PUSH2 0x16D MUL PUSH2 0x116E JUMP JUMPDEST PUSH1 0x0 JUMPDEST SWAP1 POP PUSH1 0x0 PUSH8 0xDE0B6B3A7640000 PUSH2 0x1185 DUP9 DUP11 PUSH2 0x160D JUMP JUMPDEST PUSH10 0x21E19E0C9BAB2400000 PUSH2 0x11A5 DUP7 PUSH2 0x11A0 PUSH2 0x2710 DUP11 PUSH2 0x194D JUMP JUMPDEST PUSH2 0x154A JUMP JUMPDEST DUP2 PUSH2 0x11AC JUMPI INVALID JUMPDEST DIV MUL DUP2 PUSH2 0x11B5 JUMPI INVALID JUMPDEST DIV SWAP1 POP PUSH8 0xDE0B6B3A7640000 PUSH2 0x11CB DUP9 DUP11 PUSH2 0x160D JUMP JUMPDEST PUSH2 0x11E8 PUSH2 0x11D8 DUP6 DUP9 PUSH2 0x154A JUMP JUMPDEST PUSH10 0x21E19E0C9BAB2400000 PUSH2 0x195F JUMP JUMPDEST MUL DUP2 PUSH2 0x11F0 JUMPI INVALID JUMPDEST DIV SWAP11 POP PUSH2 0x11FD DUP12 DUP3 PUSH2 0x198E JUMP JUMPDEST SWAP12 POP POP POP POP POP POP POP POP POP POP POP SWAP2 POP SWAP2 JUMP JUMPDEST EXTCODESIZE ISZERO ISZERO SWAP1 JUMP JUMPDEST CALLER PUSH20 0xFFFFFFFFFFFFFFFFFFFFFFFFFFFFFFFFFFFFFFFF DUP3 AND EQ PUSH2 0x1282 JUMPI PUSH1 0x40 MLOAD PUSH32 0x8C379A000000000000000000000000000000000000000000000000000000000 DUP2 MSTORE PUSH1 0x4 ADD DUP1 DUP1 PUSH1 0x20 ADD DUP3 DUP2 SUB DUP3 MSTORE PUSH1 0x27 DUP2 MSTORE PUSH1 0x20 ADD DUP1 PUSH2 0x19CE PUSH1 0x27 SWAP2 CODECOPY PUSH1 0x40 ADD SWAP2 POP POP PUSH1 0x40 MLOAD DUP1 SWAP2 SUB SWAP1 REVERT JUMPDEST POP JUMP JUMPDEST PUSH1 0x0 DUP2 DUP2 MSTORE PUSH1 0x5 PUSH1 0x20 MSTORE PUSH1 0x40 SWAP1 KECCAK256 SLOAD PUSH2 0x1282 JUMPI PUSH1 0x0 SWAP1 DUP2 MSTORE PUSH1 0x5 PUSH1 0x20 MSTORE PUSH1 0x40 SWAP1 KECCAK256 PUSH8 0xDE0B6B3A7640000 SWAP1 SSTORE JUMP JUMPDEST PUSH1 0x0 DUP2 DUP2 MSTORE PUSH1 0x5 PUSH1 0x20 MSTORE PUSH1 0x40 SWAP1 KECCAK256 SLOAD DUP3 GT ISZERO PUSH2 0x12DB JUMPI PUSH1 0x0 DUP2 DUP2 MSTORE PUSH1 0x5 PUSH1 0x20 MSTORE PUSH1 0x40 SWAP1 KECCAK256 DUP3 SWAP1 SSTORE JUMPDEST POP POP JUMP JUMPDEST PUSH1 0x2 SLOAD PUSH1 0x40 DUP1 MLOAD PUSH32 0xC277F1AC00000000000000000000000000000000000000000000000000000000 DUP2 MSTORE PUSH1 0x4 DUP2 ADD DUP5 SWAP1 MSTORE SWAP1 MLOAD PUSH1 0x0 SWAP3 DUP4 SWAP3 PUSH20 0xFFFFFFFFFFFFFFFFFFFFFFFFFFFFFFFFFFFFFFFF SWAP1 SWAP2 AND SWAP2 PUSH4 0xC277F1AC SWAP2 PUSH1 0x24 DUP1 DUP3 ADD SWAP3 DUP7 SWAP3 SWAP1 SWAP2 SWAP1 DUP3 SWAP1 SUB ADD DUP2 DUP7 DUP1 EXTCODESIZE ISZERO DUP1 ISZERO PUSH2 0x1355 JUMPI PUSH1 0x0 DUP1 REVERT JUMPDEST POP GAS STATICCALL ISZERO DUP1 ISZERO PUSH2 0x1369 JUMPI RETURNDATASIZE PUSH1 0x0 DUP1 RETURNDATACOPY RETURNDATASIZE PUSH1 0x0 REVERT JUMPDEST POP POP POP POP PUSH1 0x40 MLOAD RETURNDATASIZE PUSH1 0x0 DUP3 RETURNDATACOPY PUSH1 0x1F RETURNDATASIZE SWAP1 DUP2 ADD PUSH32 0xFFFFFFFFFFFFFFFFFFFFFFFFFFFFFFFFFFFFFFFFFFFFFFFFFFFFFFFFFFFFFFE0 AND DUP3 ADD PUSH1 0x40 MSTORE PUSH1 0xC0 DUP2 LT ISZERO PUSH2 0x13B0 JUMPI PUSH1 0x0 DUP1 REVERT JUMPDEST DUP2 MLOAD PUSH1 0x20 DUP4 ADD DUP1 MLOAD PUSH1 0x40 MLOAD SWAP3 SWAP5 SWAP3 SWAP4 DUP4 ADD SWAP3 SWAP2 SWAP1 DUP5 PUSH5 0x100000000 DUP3 GT ISZERO PUSH2 0x13D7 JUMPI PUSH1 0x0 DUP1 REVERT JUMPDEST SWAP1 DUP4 ADD SWAP1 PUSH1 0x20 DUP3 ADD DUP6 DUP2 GT ISZERO PUSH2 0x13EC JUMPI PUSH1 0x0 DUP1 REVERT JUMPDEST DUP3 MLOAD PUSH5 0x100000000 DUP2 GT DUP3 DUP3 ADD DUP9 LT OR ISZERO PUSH2 0x1406 JUMPI PUSH1 0x0 DUP1 REVERT JUMPDEST DUP3 MSTORE POP DUP2 MLOAD PUSH1 0x20 SWAP2 DUP3 ADD SWAP3 SWAP1 SWAP2 ADD SWAP1 DUP1 DUP4 DUP4 PUSH1 0x0 JUMPDEST DUP4 DUP2 LT ISZERO PUSH2 0x1433 JUMPI DUP2 DUP2 ADD MLOAD DUP4 DUP3 ADD MSTORE PUSH1 0x20 ADD PUSH2 0x141B JUMP JUMPDEST POP POP POP POP SWAP1 POP SWAP1 DUP2 ADD SWAP1 PUSH1 0x1F AND DUP1 ISZERO PUSH2 0x1460 JUMPI DUP1 DUP3 SUB DUP1 MLOAD PUSH1 0x1 DUP4 PUSH1 0x20 SUB PUSH2 0x100 EXP SUB NOT AND DUP2 MSTORE PUSH1 0x20 ADD SWAP2 POP JUMPDEST POP PUSH1 0x40 MSTORE PUSH1 0x20 ADD DUP1 MLOAD PUSH1 0x40 MLOAD SWAP4 SWAP3 SWAP2 SWAP1 DUP5 PUSH5 0x100000000 DUP3 GT ISZERO PUSH2 0x1483 JUMPI PUSH1 0x0 DUP1 REVERT JUMPDEST SWAP1 DUP4 ADD SWAP1 PUSH1 0x20 DUP3 ADD DUP6 DUP2 GT ISZERO PUSH2 0x1498 JUMPI PUSH1 0x0 DUP1 REVERT JUMPDEST DUP3 MLOAD PUSH5 0x100000000 DUP2 GT DUP3 DUP3 ADD DUP9 LT OR ISZERO PUSH2 0x14B2 JUMPI PUSH1 0x0 DUP1 REVERT JUMPDEST DUP3 MSTORE POP DUP2 MLOAD PUSH1 0x20 SWAP2 DUP3 ADD SWAP3 SWAP1 SWAP2 ADD SWAP1 DUP1 DUP4 DUP4 PUSH1 0x0 JUMPDEST DUP4 DUP2 LT ISZERO PUSH2 0x14DF JUMPI DUP2 DUP2 ADD MLOAD DUP4 DUP3 ADD MSTORE PUSH1 0x20 ADD PUSH2 0x14C7 JUMP JUMPDEST POP POP POP POP SWAP1 POP SWAP1 DUP2 ADD SWAP1 PUSH1 0x1F AND DUP1 ISZERO PUSH2 0x150C JUMPI DUP1 DUP3 SUB DUP1 MLOAD PUSH1 0x1 DUP4 PUSH1 0x20 SUB PUSH2 0x100 EXP SUB NOT AND DUP2 MSTORE PUSH1 0x20 ADD SWAP2 POP JUMPDEST POP PUSH1 0x40 MSTORE POP SWAP4 SWAP5 POP POP POP PUSH20 0xFFFFFFFFFFFFFFFFFFFFFFFFFFFFFFFFFFFFFFFF DUP4 AND ISZERO SWAP2 POP PUSH2 0x1540 SWAP1 POP JUMPI PUSH1 0x1 SWAP2 POP POP PUSH2 0x530 JUMP JUMPDEST PUSH1 0x0 SWAP2 POP POP PUSH2 0x530 JUMP JUMPDEST PUSH1 0x0 DUP3 DUP3 MUL DUP4 ISZERO DUP1 PUSH2 0x1564 JUMPI POP DUP3 DUP5 DUP3 DUP2 PUSH2 0x1561 JUMPI INVALID JUMPDEST DIV EQ JUMPDEST PUSH2 0x156A JUMPI INVALID JUMPDEST SWAP1 POP JUMPDEST SWAP3 SWAP2 POP POP JUMP JUMPDEST PUSH1 0x0 DUP1 PUSH1 0x0 SWAP1 SLOAD SWAP1 PUSH2 0x100 EXP SWAP1 DIV PUSH20 0xFFFFFFFFFFFFFFFFFFFFFFFFFFFFFFFFFFFFFFFF AND PUSH20 0xFFFFFFFFFFFFFFFFFFFFFFFFFFFFFFFFFFFFFFFF AND PUSH4 0x7546172 PUSH1 0x40 MLOAD DUP2 PUSH4 0xFFFFFFFF AND PUSH1 0xE0 SHL DUP2 MSTORE PUSH1 0x4 ADD PUSH1 0x20 PUSH1 0x40 MLOAD DUP1 DUP4 SUB DUP2 DUP7 DUP1 EXTCODESIZE ISZERO DUP1 ISZERO PUSH2 0x15DC JUMPI PUSH1 0x0 DUP1 REVERT JUMPDEST POP GAS STATICCALL ISZERO DUP1 ISZERO PUSH2 0x15F0 JUMPI RETURNDATASIZE PUSH1 0x0 DUP1 RETURNDATACOPY RETURNDATASIZE PUSH1 0x0 REVERT JUMPDEST POP POP POP POP PUSH1 0x40 MLOAD RETURNDATASIZE PUSH1 0x20 DUP2 LT ISZERO PUSH2 0x1606 JUMPI PUSH1 0x0 DUP1 REVERT JUMPDEST POP MLOAD SWAP1 POP SWAP1 JUMP JUMPDEST PUSH1 0x0 PUSH20 0xFFFFFFFFFFFFFFFFFFFFFFFFFFFFFFFFFFFFFFFF DUP4 AND BALANCE DUP3 DUP2 GT DUP1 PUSH2 0x163B JUMPI POP PUSH7 0x38D7EA4C68000 DUP2 LT JUMPDEST DUP1 PUSH2 0x164C JUMPI POP PUSH7 0x2386F26FC10000 DUP4 LT JUMPDEST ISZERO PUSH2 0x16B8 JUMPI PUSH1 0x40 DUP1 MLOAD PUSH32 0x8C379A000000000000000000000000000000000000000000000000000000000 DUP2 MSTORE PUSH1 0x20 PUSH1 0x4 DUP3 ADD MSTORE PUSH1 0x1B PUSH1 0x24 DUP3 ADD MSTORE PUSH32 0x4554485F41424F56455F41554D5F4F525F445553545F4552524F520000000000 PUSH1 0x44 DUP3 ADD MSTORE SWAP1 MLOAD SWAP1 DUP2 SWAP1 SUB PUSH1 0x64 ADD SWAP1 REVERT JUMPDEST PUSH8 0xB1A2BC2EC500000 DUP4 DUP3 PUSH8 0xDE0B6B3A7640000 MUL DUP2 PUSH2 0x16D4 JUMPI INVALID JUMPDEST DIV LT PUSH2 0x16EB JUMPI PUSH8 0xDE0B6B3A7640000 SWAP2 POP POP PUSH2 0x156D JUMP JUMPDEST PUSH8 0x853A0D2313C0000 DUP4 DUP3 PUSH8 0xDE0B6B3A7640000 MUL DUP2 PUSH2 0x1707 JUMPI INVALID JUMPDEST DIV LT PUSH2 0x171E JUMPI PUSH8 0xD163580F7318000 SWAP2 POP POP PUSH2 0x156D JUMP JUMPDEST PUSH8 0x6F05B59D3B20000 DUP4 DUP3 PUSH8 0xDE0B6B3A7640000 MUL DUP2 PUSH2 0x173A JUMPI INVALID JUMPDEST DIV LT PUSH2 0x1751 JUMPI PUSH8 0xC39F0D50F1E8000 SWAP2 POP POP PUSH2 0x156D JUMP JUMPDEST PUSH8 0x58D15E176280000 DUP4 DUP3 PUSH8 0xDE0B6B3A7640000 MUL DUP2 PUSH2 0x176D JUMPI INVALID JUMPDEST DIV LT PUSH2 0x1784 JUMPI PUSH8 0xAAC096CF8468000 SWAP2 POP POP PUSH2 0x156D JUMP JUMPDEST PUSH8 0x429D069189E0000 DUP4 DUP3 PUSH8 0xDE0B6B3A7640000 MUL DUP2 PUSH2 0x17A0 JUMPI INVALID JUMPDEST DIV LT PUSH2 0x17B7 JUMPI PUSH8 0x85013538C758000 SWAP2 POP POP PUSH2 0x156D JUMP JUMPDEST PUSH8 0x2C68AF0BB140000 DUP4 DUP3 PUSH8 0xDE0B6B3A7640000 MUL DUP2 PUSH2 0x17D3 JUMPI INVALID JUMPDEST DIV LT PUSH2 0x17EA JUMPI PUSH8 0x590A3601AEE8000 SWAP2 POP POP PUSH2 0x156D JUMP JUMPDEST PUSH8 0x16345785D8A0000 DUP4 DUP3 PUSH8 0xDE0B6B3A7640000 MUL DUP2 PUSH2 0x1806 JUMPI INVALID JUMPDEST DIV LT PUSH2 0x181D JUMPI PUSH8 0x334AD46AF1D8000 SWAP2 POP POP PUSH2 0x156D JUMP JUMPDEST PUSH8 0x10A741A46278000 DUP4 DUP3 PUSH8 0xDE0B6B3A7640000 MUL DUP2 PUSH2 0x1839 JUMPI INVALID JUMPDEST DIV LT PUSH2 0x1850 JUMPI PUSH8 0x2BF6FF371870000 SWAP2 POP POP PUSH2 0x156D JUMP JUMPDEST PUSH7 0xB1A2BC2EC50000 DUP4 DUP3 PUSH8 0xDE0B6B3A7640000 MUL DUP2 PUSH2 0x186B JUMPI INVALID JUMPDEST DIV LT PUSH2 0x1882 JUMPI PUSH8 0x254DB1C22440000 SWAP2 POP POP PUSH2 0x156D JUMP JUMPDEST PUSH7 0x8700CC75770000 DUP4 DUP3 PUSH8 0xDE0B6B3A7640000 MUL DUP2 PUSH2 0x189D JUMPI INVALID JUMPDEST DIV LT PUSH2 0x18B4 JUMPI PUSH8 0x226ABADC42F8000 SWAP2 POP POP PUSH2 0x156D JUMP JUMPDEST PUSH7 0x58D15E17628000 DUP4 DUP3 PUSH8 0xDE0B6B3A7640000 MUL DUP2 PUSH2 0x18CF JUMPI INVALID JUMPDEST DIV LT PUSH2 0x18E6 JUMPI PUSH8 0x1F87C3F661B0000 SWAP2 POP POP PUSH2 0x156D JUMP JUMPDEST PUSH1 0x40 DUP1 MLOAD PUSH32 0x8C379A000000000000000000000000000000000000000000000000000000000 DUP2 MSTORE PUSH1 0x20 PUSH1 0x4 DUP3 ADD MSTORE PUSH1 0x1F PUSH1 0x24 DUP3 ADD MSTORE PUSH32 0x4554485F42454C4F575F322E355F50455243454E545F41554D5F4552524F5200 PUSH1 0x44 DUP3 ADD MSTORE SWAP1 MLOAD SWAP1 DUP2 SWAP1 SUB PUSH1 0x64 ADD SWAP1 REVERT JUMPDEST PUSH1 0x0 DUP3 DUP3 GT ISZERO PUSH2 0x1959 JUMPI INVALID JUMPDEST POP SWAP1 SUB SWAP1 JUMP JUMPDEST PUSH1 0x0 DUP1 DUP3 GT PUSH2 0x196A JUMPI INVALID JUMPDEST PUSH1 0x0 DUP3 DUP5 DUP2 PUSH2 0x1975 JUMPI INVALID JUMPDEST DIV SWAP1 POP DUP3 DUP5 DUP2 PUSH2 0x1981 JUMPI INVALID JUMPDEST MOD DUP2 DUP5 MUL ADD DUP5 EQ PUSH2 0x156A JUMPI INVALID JUMPDEST PUSH1 0x0 DUP3 DUP3 ADD DUP4 DUP2 LT DUP1 ISZERO SWAP1 PUSH2 0x1564 JUMPI POP DUP3 DUP2 LT ISZERO PUSH2 0x156A JUMPI INVALID INVALID POP 0x4F 0x4F 0x4C 0x5F POP MSTORE 0x49 NUMBER GASLIMIT 0x5F 0x4F MSTORE 0x5F SLOAD 0x4F SLOAD COINBASE 0x4C 0x5F MSTORE8 SSTORE POP POP 0x4C MSIZE 0x5F 0x4E SSTORE 0x4C 0x4C 0x5F GASLIMIT MSTORE MSTORE 0x4F MSTORE MSTORE8 0x4D COINBASE MSTORE SLOAD 0x5F NUMBER 0x4F 0x4E SLOAD MSTORE COINBASE NUMBER SLOAD 0x5F NUMBER COINBASE 0x4C 0x4C GASLIMIT MSTORE 0x5F 0x49 MSTORE8 0x5F 0x4E 0x4F SLOAD 0x5F POP 0x4F 0x4F 0x4C 0x5F GASLIMIT MSTORE MSTORE 0x4F MSTORE LOG2 PUSH5 0x6970667358 0x22 SLT KECCAK256 0xB6 CALLCODE SWAP14 0x28 EXTCODESIZE BLOCKHASH 0x4E DUP3 NOT PUSH26 0xBAC780C1D14933094F969052684D74B57E8BD761FF2A64736F6C PUSH4 0x43000704 STOP CALLER "
			}
		}
	},
	"sourceTreeHashHex": "0x6244580eac625c2ebc19a2424995b8f77d8cf9729abbb31646d6776b6683ebfc",
	"compiler": {
		"name": "solc",
		"version": "0.7.4+commit.3f05b770",
		"settings": {
			"remappings": [],
			"optimizer": {
				"enabled": true,
				"runs": 1000000
			},
			"outputSelection": {
				"*": {
					"*": [
						"abi",
						"devdoc",
						"evm.bytecode.object",
						"evm.bytecode.sourceMap",
						"evm.deployedBytecode.object",
						"evm.deployedBytecode.sourceMap"
					]
				}
			}
		}
	},
	"chains": {}
}