{
	"schemaVersion": "2.0.0",
	"contractName": "StakingProxy",
	"compilerOutput": {
		"abi": [
			{
				"constant": true,
				"inputs": [
					{
						"name": "",
						"type": "bytes32"
					},
					{
						"name": "",
						"type": "uint256"
					}
				],
				"name": "poolStatsByEpoch",
				"outputs": [
					{
						"name": "feesCollected",
						"type": "uint256"
					},
					{
						"name": "weightedStake",
						"type": "uint256"
					},
					{
						"name": "membersStake",
						"type": "uint256"
					}
				],
				"payable": false,
				"stateMutability": "view",
				"type": "function"
			},
			{
				"constant": false,
				"inputs": [],
				"name": "detachStakingContract",
				"outputs": [],
				"payable": false,
				"stateMutability": "nonpayable",
				"type": "function"
			},
			{
				"constant": true,
				"inputs": [
					{
						"name": "",
						"type": "uint256"
					}
				],
				"name": "aggregatedStatsByEpoch",
				"outputs": [
					{
						"name": "rewardsAvailable",
						"type": "uint256"
					},
					{
						"name": "numPoolsToFinalize",
						"type": "uint256"
					},
					{
						"name": "totalFeesCollected",
						"type": "uint256"
					},
					{
						"name": "totalWeightedStake",
						"type": "uint256"
					},
					{
						"name": "totalRewardsFinalized",
						"type": "uint256"
					}
				],
				"payable": false,
				"stateMutability": "view",
				"type": "function"
			},
			{
				"constant": false,
				"inputs": [
					{
						"name": "target",
						"type": "address"
					}
				],
				"name": "addAuthorizedAddress",
				"outputs": [],
				"payable": false,
				"stateMutability": "nonpayable",
				"type": "function"
			},
			{
				"constant": true,
				"inputs": [
					{
						"name": "",
						"type": "uint256"
					}
				],
				"name": "authorities",
				"outputs": [
					{
						"name": "",
						"type": "address"
					}
				],
				"payable": false,
				"stateMutability": "view",
				"type": "function"
			},
			{
				"constant": true,
				"inputs": [],
				"name": "currentEpochStartTimeInSeconds",
				"outputs": [
					{
						"name": "",
						"type": "uint256"
					}
				],
				"payable": false,
				"stateMutability": "view",
				"type": "function"
			},
			{
				"constant": true,
				"inputs": [
					{
						"name": "",
						"type": "address"
					}
				],
				"name": "validExchanges",
				"outputs": [
					{
						"name": "",
						"type": "bool"
					}
				],
				"payable": false,
				"stateMutability": "view",
				"type": "function"
			},
			{
				"constant": true,
				"inputs": [],
				"name": "epochDurationInSeconds",
				"outputs": [
					{
						"name": "",
						"type": "uint256"
					}
				],
				"payable": false,
				"stateMutability": "view",
				"type": "function"
			},
			{
				"constant": false,
				"inputs": [
					{
						"name": "_stakingContract",
						"type": "address"
					}
				],
				"name": "attachStakingContract",
				"outputs": [],
				"payable": false,
				"stateMutability": "nonpayable",
				"type": "function"
			},
			{
				"constant": false,
				"inputs": [
					{
						"name": "target",
						"type": "address"
					}
				],
				"name": "removeAuthorizedAddress",
				"outputs": [],
				"payable": false,
				"stateMutability": "nonpayable",
				"type": "function"
			},
			{
				"constant": true,
				"inputs": [],
				"name": "currentEpoch",
				"outputs": [
					{
						"name": "",
						"type": "uint256"
					}
				],
				"payable": false,
				"stateMutability": "view",
				"type": "function"
			},
			{
				"constant": true,
				"inputs": [],
				"name": "cobbDouglasAlphaNumerator",
				"outputs": [
					{
						"name": "",
						"type": "uint32"
					}
				],
				"payable": false,
				"stateMutability": "view",
				"type": "function"
			},
			{
				"constant": false,
				"inputs": [
					{
						"name": "data",
						"type": "bytes[]"
					}
				],
				"name": "batchExecute",
				"outputs": [
					{
						"name": "batchReturnData",
						"type": "bytes[]"
					}
				],
				"payable": false,
				"stateMutability": "nonpayable",
				"type": "function"
			},
			{
				"constant": true,
				"inputs": [],
				"name": "owner",
				"outputs": [
					{
						"name": "",
						"type": "address"
					}
				],
				"payable": false,
				"stateMutability": "view",
				"type": "function"
			},
			{
				"constant": false,
				"inputs": [
					{
						"name": "target",
						"type": "address"
					},
					{
						"name": "index",
						"type": "uint256"
					}
				],
				"name": "removeAuthorizedAddressAtIndex",
				"outputs": [],
				"payable": false,
				"stateMutability": "nonpayable",
				"type": "function"
			},
			{
				"constant": true,
				"inputs": [],
				"name": "minimumPoolStake",
				"outputs": [
					{
						"name": "",
						"type": "uint256"
					}
				],
				"payable": false,
				"stateMutability": "view",
				"type": "function"
			},
			{
				"constant": true,
				"inputs": [],
				"name": "lastPoolId",
				"outputs": [
					{
						"name": "",
						"type": "bytes32"
					}
				],
				"payable": false,
				"stateMutability": "view",
				"type": "function"
			},
			{
				"constant": true,
				"inputs": [],
				"name": "wethReservedForPoolRewards",
				"outputs": [
					{
						"name": "",
						"type": "uint256"
					}
				],
				"payable": false,
				"stateMutability": "view",
				"type": "function"
			},
			{
				"constant": true,
				"inputs": [
					{
						"name": "",
						"type": "address"
					}
				],
				"name": "authorized",
				"outputs": [
					{
						"name": "",
						"type": "bool"
					}
				],
				"payable": false,
				"stateMutability": "view",
				"type": "function"
			},
			{
				"constant": true,
				"inputs": [
					{
						"name": "",
						"type": "bytes32"
					}
				],
				"name": "rewardsByPoolId",
				"outputs": [
					{
						"name": "",
						"type": "uint256"
					}
				],
				"payable": false,
				"stateMutability": "view",
				"type": "function"
			},
			{
				"constant": true,
				"inputs": [],
				"name": "assertValidStorageParams",
				"outputs": [],
				"payable": false,
				"stateMutability": "view",
				"type": "function"
			},
			{
				"constant": true,
				"inputs": [],
				"name": "getAuthorizedAddresses",
				"outputs": [
					{
						"name": "",
						"type": "address[]"
					}
				],
				"payable": false,
				"stateMutability": "view",
				"type": "function"
			},
			{
				"constant": true,
				"inputs": [],
				"name": "rewardDelegatedStakeWeight",
				"outputs": [
					{
						"name": "",
						"type": "uint32"
					}
				],
				"payable": false,
				"stateMutability": "view",
				"type": "function"
			},
			{
				"constant": true,
				"inputs": [],
				"name": "cobbDouglasAlphaDenominator",
				"outputs": [
					{
						"name": "",
						"type": "uint32"
					}
				],
				"payable": false,
				"stateMutability": "view",
				"type": "function"
			},
			{
				"constant": true,
				"inputs": [],
				"name": "stakingContract",
				"outputs": [
					{
						"name": "",
						"type": "address"
					}
				],
				"payable": false,
				"stateMutability": "view",
				"type": "function"
			},
			{
				"constant": true,
				"inputs": [
					{
						"name": "",
						"type": "address"
					}
				],
				"name": "poolIdByMaker",
				"outputs": [
					{
						"name": "",
						"type": "bytes32"
					}
				],
				"payable": false,
				"stateMutability": "view",
				"type": "function"
			},
			{
				"constant": false,
				"inputs": [
					{
						"name": "newOwner",
						"type": "address"
					}
				],
				"name": "transferOwnership",
				"outputs": [],
				"payable": false,
				"stateMutability": "nonpayable",
				"type": "function"
			},
			{
				"inputs": [
					{
						"name": "_stakingContract",
						"type": "address"
					}
				],
				"payable": false,
				"stateMutability": "nonpayable",
				"type": "constructor"
			},
			{
				"payable": true,
				"stateMutability": "payable",
				"type": "fallback"
			},
			{
				"anonymous": false,
				"inputs": [
					{
						"indexed": true,
						"name": "target",
						"type": "address"
					},
					{
						"indexed": true,
						"name": "caller",
						"type": "address"
					}
				],
				"name": "AuthorizedAddressAdded",
				"type": "event"
			},
			{
				"anonymous": false,
				"inputs": [
					{
						"indexed": true,
						"name": "target",
						"type": "address"
					},
					{
						"indexed": true,
						"name": "caller",
						"type": "address"
					}
				],
				"name": "AuthorizedAddressRemoved",
				"type": "event"
			},
			{
				"anonymous": false,
				"inputs": [
					{
						"indexed": true,
						"name": "previousOwner",
						"type": "address"
					},
					{
						"indexed": true,
						"name": "newOwner",
						"type": "address"
					}
				],
				"name": "OwnershipTransferred",
				"type": "event"
			},
			{
				"anonymous": false,
				"inputs": [
					{
						"indexed": false,
						"name": "newStakingContractAddress",
						"type": "address"
					}
				],
				"name": "StakingContractAttachedToProxy",
				"type": "event"
			},
			{
				"anonymous": false,
				"inputs": [],
				"name": "StakingContractDetachedFromProxy",
				"type": "event"
			}
		],
		"devdoc": {
			"methods": {
				"addAuthorizedAddress(address)": {
					"details": "Authorizes an address.",
					"params": {
						"target": "Address to authorize."
					}
				},
				"assertValidStorageParams()": {
					"details": "Asserts that an epoch is between 5 and 30 days long."
				},
				"attachStakingContract(address)": {
					"details": "Attach a staking contract; future calls will be delegated to the staking contract. Note that this is callable only by an authorized address.",
					"params": {
						"_stakingContract": "Address of staking contract."
					}
				},
				"batchExecute(bytes[])": {
					"details": "Batch executes a series of calls to the staking contract.",
					"params": {
						"data": "An array of data that encodes a sequence of functions to             call in the staking contracts."
					}
				},
				"constructor": {
					"details": "Constructor.",
					"params": {
						"_stakingContract": "Staking contract to delegate calls to."
					}
				},
				"detachStakingContract()": {
					"details": "Detach the current staking contract. Note that this is callable only by an authorized address."
				},
				"getAuthorizedAddresses()": {
					"details": "Gets all authorized addresses.",
					"return": "Array of authorized addresses."
				},
				"removeAuthorizedAddress(address)": {
					"details": "Removes authorizion of an address.",
					"params": {
						"target": "Address to remove authorization from."
					}
				},
				"removeAuthorizedAddressAtIndex(address,uint256)": {
					"details": "Removes authorizion of an address.",
					"params": {
						"index": "Index of target in authorities array.",
						"target": "Address to remove authorization from."
					}
				},
				"transferOwnership(address)": {
					"details": "Change the owner of this contract.",
					"params": {
						"newOwner": "New owner address."
					}
				}
			}
		},
		"evm": {
			"bytecode": {
				"linkReferences": {},
				"object": "0x60806040523480156200001157600080fd5b506040516200216b3803806200216b833981016040819052620000349162000728565b600080546001600160a01b031916339081179091556200005d906001600160e01b036200008e16565b62000071816001600160e01b036200019116565b620000873360006001600160e01b03620002b716565b506200088e565b6001600160a01b038116620000c757620000c7620000b66200046060201b620012e01760201c565b6200049860201b620005db1760201c565b6001600160a01b03811660009081526001602052604090205460ff1615620001035762000103620000b682620004a060201b620013171760201c565b6001600160a01b0381166000818152600160208190526040808320805460ff19168317905560028054928301815583527f405787fa12a823e0f2b7631cc41b3ba8828b3321ca811111fa75cd3aa3bb5ace90910180546001600160a01b03191684179055513392917f3147867c59d17e8fa9d522465651d44aae0a9e38f902f3475b97e58072f0ed4c91a350565b600380546001600160a01b0319166001600160a01b0383161790556040517f048368388f801041f7690185c4e28b6f3505c740c47be8ac104b55df666bfc8490620001de908390620007c2565b60405180910390a160035460408051600481526024810182526020810180516001600160e01b03167fe1c7392a0000000000000000000000000000000000000000000000000000000017905290516000926060926001600160a01b03909116916200024a9190620007ad565b600060405180830381855af49150503d806000811462000287576040519150601f19603f3d011682016040523d82523d6000602084013e6200028c565b606091505b5091509150816200029f57805160208201fd5b620002b26001600160e01b036200050e16565b505050565b6001600160a01b03821660009081526001602052604090205460ff16620002f257620002f2620000b683620005e960201b62000ebf1760201c565b60025481106200031c576200031c620000b6826002805490506200060660201b620013321760201c565b816001600160a01b0316600282815481106200033457fe5b6000918252602090912001546001600160a01b0316146200038d576200038d620000b6600283815481106200036557fe5b600091825260209182902001546001600160a01b03169085906200134f62000678821b17901c565b6001600160a01b0382166000908152600160205260409020805460ff19169055600280546000198101908110620003c057fe5b600091825260209091200154600280546001600160a01b039092169183908110620003e757fe5b600091825260209091200180546001600160a01b0319166001600160a01b0392909216919091179055600280546000190190620004259082620006d9565b5060405133906001600160a01b038416907f1f32c1b084e2de0713b8fb16bd46bb9df710a3dbeae2f3ca93af46e016dcc6b090600090a35050565b60408051808201909152600481527f57654fe40000000000000000000000000000000000000000000000000000000060208201525b90565b805160208201fd5b606063de16f1a060e01b82604051602401620004bd9190620007c2565b60408051601f198184030181529190526020810180516001600160e01b03167fffffffff00000000000000000000000000000000000000000000000000000000909316929092179091529050919050565b6011546206978081108062000525575062278d0081115b15620005465762000546620000b660046200069760201b620011ad1760201c565b60145463ffffffff6401000000008204811691168110806200056c575063ffffffff8116155b156200058d576200058d620000b660006200069760201b620011ad1760201c565b601254620f424063ffffffff9091161115620005be57620005be620000b660016200069760201b620011ad1760201c565b60026013541015620005e557620005e5620000b660036200069760201b620011ad1760201c565b5050565b606063eb5108a260e01b82604051602401620004bd9190620007c2565b606063e9f8377160e01b838360405160240162000625929190620007f1565b60408051601f198184030181529190526020810180516001600160e01b03167fffffffff000000000000000000000000000000000000000000000000000000009093169290921790915290505b92915050565b606063140a84db60e01b838360405160240162000625929190620007d2565b60607ffc45bd1100000000000000000000000000000000000000000000000000000000826004811115620006c757fe5b604051602401620004bd919062000810565b815481835581811115620002b257600083815260209020620002b29181019083016200049591905b8082111562000717576000815560010162000701565b5090565b8051620006728162000874565b6000602082840312156200073b57600080fd5b60006200074984846200071b565b949350505050565b6200075c8162000829565b82525050565b60006200076f8262000820565b6200077b818562000824565b93506200078d81856020860162000841565b9290920192915050565b6200075c8162000495565b6200075c816200083b565b6000620007bb828462000762565b9392505050565b6020810162000672828462000751565b60408101620007e2828562000751565b620007bb602083018462000751565b6040810162000801828562000797565b620007bb602083018462000797565b60208101620006728284620007a2565b5190565b919050565b60006001600160a01b03821662000672565b60ff1690565b60005b838110156200085e57818101518382015260200162000844565b838111156200086e576000848401525b50505050565b6200087f8162000829565b81146200088b57600080fd5b50565b6118cd806200089e6000396000f3fe6080604052600436106101ac5760003560e01c80638da5cb5b116100ec578063c6f3a4271161008a578063e8eeb3f811610064578063e8eeb3f814610539578063ee99205c1461054e578063f187653214610563578063f2fde38b14610583576101ac565b8063c6f3a427146104ed578063d39de6e914610502578063e0ee036e14610524576101ac565b8063a657e579116100c6578063a657e57914610483578063b053152414610498578063b9181611146104ad578063c18c9141146104cd576101ac565b80638da5cb5b146104395780639ad267441461044e578063a26171e21461046e576101ac565b80635bd4ab7311610159578063707129391161013357806370712939146103b557806376671808146103d557806381666796146103ea578063856a65eb1461040c576101ac565b80635bd4ab7314610353578063634038011461038057806366615d5614610395576101ac565b806342f1181e1161018a57806342f1181e146102e4578063494503d414610304578063587da02314610331576101ac565b80632a94c2791461026457806337b006a61461029c57806338229d93146102b3575b60035473ffffffffffffffffffffffffffffffffffffffff16806101da576101da6101d56105a3565b6105db565b600060608273ffffffffffffffffffffffffffffffffffffffff1660003660405161020692919061168e565b600060405180830381855af49150503d8060008114610241576040519150601f19603f3d011682016040523d82523d6000602084013e610246565b606091505b5091509150816000811461025c57815182602001f35b815182602001fd5b34801561027057600080fd5b5061028461027f3660046114c8565b6105e3565b60405161029393929190611729565b60405180910390f35b3480156102a857600080fd5b506102b161060f565b005b3480156102bf57600080fd5b506102d36102ce3660046114aa565b61066a565b604051610293959493929190611751565b3480156102f057600080fd5b506102b16102ff366004611408565b610699565b34801561031057600080fd5b5061032461031f3660046114aa565b6106ad565b60405161029391906116a7565b34801561033d57600080fd5b506103466106e1565b6040516102939190611700565b34801561035f57600080fd5b5061037361036e366004611408565b6106e7565b60405161029391906116f2565b34801561038c57600080fd5b506103466106fc565b3480156103a157600080fd5b506102b16103b0366004611408565b610702565b3480156103c157600080fd5b506102b16103d0366004611408565b610713565b3480156103e157600080fd5b506103466107c8565b3480156103f657600080fd5b506103ff6107ce565b604051610293919061179d565b34801561041857600080fd5b5061042c610427366004611468565b6107da565b60405161029391906116e1565b34801561044557600080fd5b50610324610967565b34801561045a57600080fd5b506102b161046936600461142e565b610983565b34801561047a57600080fd5b50610346610995565b34801561048f57600080fd5b5061034661099b565b3480156104a457600080fd5b506103466109a1565b3480156104b957600080fd5b506103736104c8366004611408565b6109a7565b3480156104d957600080fd5b506103466104e83660046114aa565b6109bc565b3480156104f957600080fd5b506102b16109ce565b34801561050e57600080fd5b50610517610a67565b60405161029391906116d0565b34801561053057600080fd5b506103ff610ad6565b34801561054557600080fd5b506103ff610ae2565b34801561055a57600080fd5b50610324610af6565b34801561056f57600080fd5b5061034661057e366004611408565b610b12565b34801561058f57600080fd5b506102b161059e366004611408565b610b24565b60408051808201909152600481527f6eff82850000000000000000000000000000000000000000000000000000000060208201525b90565b805160208201fd5b601560209081526000928352604080842090915290825290208054600182015460029092015490919083565b610617610bc7565b600380547fffffffffffffffffffffffff00000000000000000000000000000000000000001690556040517f6caedcb22a5c22c8ebd0caf751fec1228a6e006e6ee37169321e02d31ecc818390600090a1565b601660205260009081526040902080546001820154600283015460038401546004909401549293919290919085565b6106a1610bec565b6106aa81610c33565b50565b600281815481106106ba57fe5b60009182526020909120015473ffffffffffffffffffffffffffffffffffffffff16905081565b600d5481565b60106020526000908152604090205460ff1681565b60115481565b61070a610bc7565b6106aa81610d64565b61071b610bec565b73ffffffffffffffffffffffffffffffffffffffff811660009081526001602052604090205460ff16610754576107546101d582610ebf565b60005b6002548110156107c4578173ffffffffffffffffffffffffffffffffffffffff166002828154811061078557fe5b60009182526020909120015473ffffffffffffffffffffffffffffffffffffffff1614156107bc576107b78282610f5e565b6107c4565b600101610757565b5050565b600c5481565b60145463ffffffff1681565b6040805182815260208084028201019091526060906000908290849081801561081757816020015b60608152602001906001900390816108025790505b5060035490945073ffffffffffffffffffffffffffffffffffffffff1680610844576108446101d56105a3565b60005b82811461095b578173ffffffffffffffffffffffffffffffffffffffff1688888381811061087157fe5b6020028201905080357fffffffffffffffffffffffffffffffffffffffffffffffffffffffffffffffe1368490030181126108ab57600080fd5b9091016020810191503567ffffffffffffffff8111156108ca57600080fd5b368190038213156108da57600080fd5b6040516108e892919061168e565b600060405180830381855af49150503d8060008114610923576040519150601f19603f3d011682016040523d82523d6000602084013e610928565b606091505b5090955093508461093b57835184602001fd5b8386828151811061094857fe5b6020908102919091010152600101610847565b50505050505b92915050565b60005473ffffffffffffffffffffffffffffffffffffffff1681565b61098b610bec565b6107c48282610f5e565b60135481565b60085481565b60175481565b60016020526000908152604090205460ff1681565b600b6020526000908152604090205481565b601154620697808110806109e4575062278d0081115b156109f6576109f66101d560046111ad565b60145463ffffffff640100000000820481169116811080610a1b575063ffffffff8116155b15610a2d57610a2d6101d560006111ad565b601254620f424063ffffffff9091161115610a4f57610a4f6101d560016111ad565b600260135410156107c4576107c46101d560036111ad565b60606002805480602002602001604051908101604052809291908181526020018280548015610acc57602002820191906000526020600020905b815473ffffffffffffffffffffffffffffffffffffffff168152600190910190602001808311610aa1575b5050505050905090565b60125463ffffffff1681565b601454640100000000900463ffffffff1681565b60035473ffffffffffffffffffffffffffffffffffffffff1681565b60096020526000908152604090205481565b610b2c610bec565b73ffffffffffffffffffffffffffffffffffffffff8116610b5757610b526101d56111ec565b6106aa565b600080547fffffffffffffffffffffffff00000000000000000000000000000000000000001673ffffffffffffffffffffffffffffffffffffffff83169081178255604051909133917f8be0079c531659141344cd1fd0a4f28419497f9722a3daafe3b4186f6b6457e09190a350565b3360009081526001602052604090205460ff16610bea57610bea6101d533611223565b565b60005473ffffffffffffffffffffffffffffffffffffffff163314610bea57600054610bea906101d590339073ffffffffffffffffffffffffffffffffffffffff1661123e565b73ffffffffffffffffffffffffffffffffffffffff8116610c5957610c596101d56112e0565b73ffffffffffffffffffffffffffffffffffffffff811660009081526001602052604090205460ff1615610c9357610c936101d582611317565b73ffffffffffffffffffffffffffffffffffffffff8116600081815260016020819052604080832080547fffffffffffffffffffffffffffffffffffffffffffffffffffffffffffffff00168317905560028054928301815583527f405787fa12a823e0f2b7631cc41b3ba8828b3321ca811111fa75cd3aa3bb5ace90910180547fffffffffffffffffffffffff00000000000000000000000000000000000000001684179055513392917f3147867c59d17e8fa9d522465651d44aae0a9e38f902f3475b97e58072f0ed4c91a350565b600380547fffffffffffffffffffffffff00000000000000000000000000000000000000001673ffffffffffffffffffffffffffffffffffffffff83161790556040517f048368388f801041f7690185c4e28b6f3505c740c47be8ac104b55df666bfc8490610dd49083906116a7565b60405180910390a160035460408051600481526024810182526020810180517bffffffffffffffffffffffffffffffffffffffffffffffffffffffff167fe1c7392a00000000000000000000000000000000000000000000000000000000179052905160009260609273ffffffffffffffffffffffffffffffffffffffff90911691610e60919061169b565b600060405180830381855af49150503d8060008114610e9b576040519150601f19603f3d011682016040523d82523d6000602084013e610ea0565b606091505b509150915081610eb257805160208201fd5b610eba6109ce565b505050565b606063eb5108a260e01b82604051602401610eda91906116a7565b604080517fffffffffffffffffffffffffffffffffffffffffffffffffffffffffffffffe08184030181529190526020810180517bffffffffffffffffffffffffffffffffffffffffffffffffffffffff167fffffffff00000000000000000000000000000000000000000000000000000000909316929092179091529050919050565b73ffffffffffffffffffffffffffffffffffffffff821660009081526001602052604090205460ff16610f9757610f976101d583610ebf565b6002548110610fb257610fb26101d582600280549050611332565b8173ffffffffffffffffffffffffffffffffffffffff1660028281548110610fd657fe5b60009182526020909120015473ffffffffffffffffffffffffffffffffffffffff1614611038576110386101d56002838154811061101057fe5b60009182526020909120015473ffffffffffffffffffffffffffffffffffffffff168461134f565b73ffffffffffffffffffffffffffffffffffffffff8216600090815260016020526040902080547fffffffffffffffffffffffffffffffffffffffffffffffffffffffffffffff00169055600280547fffffffffffffffffffffffffffffffffffffffffffffffffffffffffffffffff81019081106110b357fe5b6000918252602090912001546002805473ffffffffffffffffffffffffffffffffffffffff90921691839081106110e657fe5b600091825260209091200180547fffffffffffffffffffffffff00000000000000000000000000000000000000001673ffffffffffffffffffffffffffffffffffffffff92909216919091179055600280547fffffffffffffffffffffffffffffffffffffffffffffffffffffffffffffffff0190611165908261136c565b50604051339073ffffffffffffffffffffffffffffffffffffffff8416907f1f32c1b084e2de0713b8fb16bd46bb9df710a3dbeae2f3ca93af46e016dcc6b090600090a35050565b60607ffc45bd11000000000000000000000000000000000000000000000000000000008260048111156111dc57fe5b604051602401610eda91906117ab565b60408051808201909152600481527fe69edc3e00000000000000000000000000000000000000000000000000000000602082015290565b606063b65a25b960e01b82604051602401610eda91906116a7565b6060631de45ad160e01b838360405160240161125b9291906116b5565b604080517fffffffffffffffffffffffffffffffffffffffffffffffffffffffffffffffe08184030181529190526020810180517bffffffffffffffffffffffffffffffffffffffffffffffffffffffff167fffffffff0000000000000000000000000000000000000000000000000000000090931692909217909152905092915050565b60408051808201909152600481527f57654fe400000000000000000000000000000000000000000000000000000000602082015290565b606063de16f1a060e01b82604051602401610eda91906116a7565b606063e9f8377160e01b838360405160240161125b92919061170e565b606063140a84db60e01b838360405160240161125b9291906116b5565b815481835581811115610eba57600083815260209020610eba9181019083016105d891905b808211156113a55760008155600101611391565b5090565b80356109618161186d565b60008083601f8401126113c657600080fd5b50813567ffffffffffffffff8111156113de57600080fd5b6020830191508360208202830111156113f657600080fd5b9250929050565b803561096181611881565b60006020828403121561141a57600080fd5b600061142684846113a9565b949350505050565b6000806040838503121561144157600080fd5b600061144d85856113a9565b925050602061145e858286016113fd565b9150509250929050565b6000806020838503121561147b57600080fd5b823567ffffffffffffffff81111561149257600080fd5b61149e858286016113b4565b92509250509250929050565b6000602082840312156114bc57600080fd5b600061142684846113fd565b600080604083850312156114db57600080fd5b600061144d85856113fd565b60006114f3838361150e565b505060200190565b60006115078383611644565b9392505050565b611517816117d1565b82525050565b6000611528826117bf565b61153281856117c3565b935061153d836117b9565b8060005b8381101561156b57815161155588826114e7565b9750611560836117b9565b925050600101611541565b509495945050505050565b6000611581826117bf565b61158b81856117c3565b93508360208202850161159d856117b9565b8060005b858110156115d757848403895281516115ba85826114fb565b94506115c5836117b9565b60209a909a01999250506001016115a1565b5091979650505050505050565b611517816117dc565b611517816105d8565b600061160283856117cc565b935061160f838584611809565b50500190565b6000611620826117bf565b61162a81856117cc565b935061163a818560208601611815565b9290920192915050565b600061164f826117bf565b61165981856117c3565b9350611669818560208601611815565b61167281611845565b9093019392505050565b611517816117fa565b61151781611803565b60006114268284866115f6565b60006115078284611615565b60208101610961828461150e565b604081016116c3828561150e565b611507602083018461150e565b60208082528101611507818461151d565b602080825281016115078184611576565b6020810161096182846115e4565b6020810161096182846115ed565b6040810161171c82856115ed565b61150760208301846115ed565b6060810161173782866115ed565b61174460208301856115ed565b61142660408301846115ed565b60a0810161175f82886115ed565b61176c60208301876115ed565b61177960408301866115ed565b61178660608301856115ed565b61179360808301846115ed565b9695505050505050565b60208101610961828461167c565b602081016109618284611685565b60200190565b5190565b90815260200190565b919050565b6000610961826117e1565b151590565b73ffffffffffffffffffffffffffffffffffffffff1690565b63ffffffff1690565b60ff1690565b82818337506000910152565b60005b83811015611830578181015183820152602001611818565b8381111561183f576000848401525b50505050565b601f017fffffffffffffffffffffffffffffffffffffffffffffffffffffffffffffffe01690565b611876816117d1565b81146106aa57600080fd5b611876816105d856fea365627a7a72305820304261909bb6fffaad764f6e54da64f1b6285f9e2f83d74679117967bd7677e66c6578706572696d656e74616cf564736f6c63430005090040",
				"opcodes": "PUSH1 0x80 PUSH1 0x40 MSTORE CALLVALUE DUP1 ISZERO PUSH3 0x11 JUMPI PUSH1 0x0 DUP1 REVERT JUMPDEST POP PUSH1 0x40 MLOAD PUSH3 0x216B CODESIZE SUB DUP1 PUSH3 0x216B DUP4 CODECOPY DUP2 ADD PUSH1 0x40 DUP2 SWAP1 MSTORE PUSH3 0x34 SWAP2 PUSH3 0x728 JUMP JUMPDEST PUSH1 0x0 DUP1 SLOAD PUSH1 0x1 PUSH1 0x1 PUSH1 0xA0 SHL SUB NOT AND CALLER SWAP1 DUP2 OR SWAP1 SWAP2 SSTORE PUSH3 0x5D SWAP1 PUSH1 0x1 PUSH1 0x1 PUSH1 0xE0 SHL SUB PUSH3 0x8E AND JUMP JUMPDEST PUSH3 0x71 DUP2 PUSH1 0x1 PUSH1 0x1 PUSH1 0xE0 SHL SUB PUSH3 0x191 AND JUMP JUMPDEST PUSH3 0x87 CALLER PUSH1 0x0 PUSH1 0x1 PUSH1 0x1 PUSH1 0xE0 SHL SUB PUSH3 0x2B7 AND JUMP JUMPDEST POP PUSH3 0x88E JUMP JUMPDEST PUSH1 0x1 PUSH1 0x1 PUSH1 0xA0 SHL SUB DUP2 AND PUSH3 0xC7 JUMPI PUSH3 0xC7 PUSH3 0xB6 PUSH3 0x460 PUSH1 0x20 SHL PUSH3 0x12E0 OR PUSH1 0x20 SHR JUMP JUMPDEST PUSH3 0x498 PUSH1 0x20 SHL PUSH3 0x5DB OR PUSH1 0x20 SHR JUMP JUMPDEST PUSH1 0x1 PUSH1 0x1 PUSH1 0xA0 SHL SUB DUP2 AND PUSH1 0x0 SWAP1 DUP2 MSTORE PUSH1 0x1 PUSH1 0x20 MSTORE PUSH1 0x40 SWAP1 KECCAK256 SLOAD PUSH1 0xFF AND ISZERO PUSH3 0x103 JUMPI PUSH3 0x103 PUSH3 0xB6 DUP3 PUSH3 0x4A0 PUSH1 0x20 SHL PUSH3 0x1317 OR PUSH1 0x20 SHR JUMP JUMPDEST PUSH1 0x1 PUSH1 0x1 PUSH1 0xA0 SHL SUB DUP2 AND PUSH1 0x0 DUP2 DUP2 MSTORE PUSH1 0x1 PUSH1 0x20 DUP2 SWAP1 MSTORE PUSH1 0x40 DUP1 DUP4 KECCAK256 DUP1 SLOAD PUSH1 0xFF NOT AND DUP4 OR SWAP1 SSTORE PUSH1 0x2 DUP1 SLOAD SWAP3 DUP4 ADD DUP2 SSTORE DUP4 MSTORE PUSH32 0x405787FA12A823E0F2B7631CC41B3BA8828B3321CA811111FA75CD3AA3BB5ACE SWAP1 SWAP2 ADD DUP1 SLOAD PUSH1 0x1 PUSH1 0x1 PUSH1 0xA0 SHL SUB NOT AND DUP5 OR SWAP1 SSTORE MLOAD CALLER SWAP3 SWAP2 PUSH32 0x3147867C59D17E8FA9D522465651D44AAE0A9E38F902F3475B97E58072F0ED4C SWAP2 LOG3 POP JUMP JUMPDEST PUSH1 0x3 DUP1 SLOAD PUSH1 0x1 PUSH1 0x1 PUSH1 0xA0 SHL SUB NOT AND PUSH1 0x1 PUSH1 0x1 PUSH1 0xA0 SHL SUB DUP4 AND OR SWAP1 SSTORE PUSH1 0x40 MLOAD PUSH32 0x48368388F801041F7690185C4E28B6F3505C740C47BE8AC104B55DF666BFC84 SWAP1 PUSH3 0x1DE SWAP1 DUP4 SWAP1 PUSH3 0x7C2 JUMP JUMPDEST PUSH1 0x40 MLOAD DUP1 SWAP2 SUB SWAP1 LOG1 PUSH1 0x3 SLOAD PUSH1 0x40 DUP1 MLOAD PUSH1 0x4 DUP2 MSTORE PUSH1 0x24 DUP2 ADD DUP3 MSTORE PUSH1 0x20 DUP2 ADD DUP1 MLOAD PUSH1 0x1 PUSH1 0x1 PUSH1 0xE0 SHL SUB AND PUSH32 0xE1C7392A00000000000000000000000000000000000000000000000000000000 OR SWAP1 MSTORE SWAP1 MLOAD PUSH1 0x0 SWAP3 PUSH1 0x60 SWAP3 PUSH1 0x1 PUSH1 0x1 PUSH1 0xA0 SHL SUB SWAP1 SWAP2 AND SWAP2 PUSH3 0x24A SWAP2 SWAP1 PUSH3 0x7AD JUMP JUMPDEST PUSH1 0x0 PUSH1 0x40 MLOAD DUP1 DUP4 SUB DUP2 DUP6 GAS DELEGATECALL SWAP2 POP POP RETURNDATASIZE DUP1 PUSH1 0x0 DUP2 EQ PUSH3 0x287 JUMPI PUSH1 0x40 MLOAD SWAP2 POP PUSH1 0x1F NOT PUSH1 0x3F RETURNDATASIZE ADD AND DUP3 ADD PUSH1 0x40 MSTORE RETURNDATASIZE DUP3 MSTORE RETURNDATASIZE PUSH1 0x0 PUSH1 0x20 DUP5 ADD RETURNDATACOPY PUSH3 0x28C JUMP JUMPDEST PUSH1 0x60 SWAP2 POP JUMPDEST POP SWAP2 POP SWAP2 POP DUP2 PUSH3 0x29F JUMPI DUP1 MLOAD PUSH1 0x20 DUP3 ADD REVERT JUMPDEST PUSH3 0x2B2 PUSH1 0x1 PUSH1 0x1 PUSH1 0xE0 SHL SUB PUSH3 0x50E AND JUMP JUMPDEST POP POP POP JUMP JUMPDEST PUSH1 0x1 PUSH1 0x1 PUSH1 0xA0 SHL SUB DUP3 AND PUSH1 0x0 SWAP1 DUP2 MSTORE PUSH1 0x1 PUSH1 0x20 MSTORE PUSH1 0x40 SWAP1 KECCAK256 SLOAD PUSH1 0xFF AND PUSH3 0x2F2 JUMPI PUSH3 0x2F2 PUSH3 0xB6 DUP4 PUSH3 0x5E9 PUSH1 0x20 SHL PUSH3 0xEBF OR PUSH1 0x20 SHR JUMP JUMPDEST PUSH1 0x2 SLOAD DUP2 LT PUSH3 0x31C JUMPI PUSH3 0x31C PUSH3 0xB6 DUP3 PUSH1 0x2 DUP1 SLOAD SWAP1 POP PUSH3 0x606 PUSH1 0x20 SHL PUSH3 0x1332 OR PUSH1 0x20 SHR JUMP JUMPDEST DUP2 PUSH1 0x1 PUSH1 0x1 PUSH1 0xA0 SHL SUB AND PUSH1 0x2 DUP3 DUP2 SLOAD DUP2 LT PUSH3 0x334 JUMPI INVALID JUMPDEST PUSH1 0x0 SWAP2 DUP3 MSTORE PUSH1 0x20 SWAP1 SWAP2 KECCAK256 ADD SLOAD PUSH1 0x1 PUSH1 0x1 PUSH1 0xA0 SHL SUB AND EQ PUSH3 0x38D JUMPI PUSH3 0x38D PUSH3 0xB6 PUSH1 0x2 DUP4 DUP2 SLOAD DUP2 LT PUSH3 0x365 JUMPI INVALID JUMPDEST PUSH1 0x0 SWAP2 DUP3 MSTORE PUSH1 0x20 SWAP2 DUP3 SWAP1 KECCAK256 ADD SLOAD PUSH1 0x1 PUSH1 0x1 PUSH1 0xA0 SHL SUB AND SWAP1 DUP6 SWAP1 PUSH3 0x134F PUSH3 0x678 DUP3 SHL OR SWAP1 SHR JUMP JUMPDEST PUSH1 0x1 PUSH1 0x1 PUSH1 0xA0 SHL SUB DUP3 AND PUSH1 0x0 SWAP1 DUP2 MSTORE PUSH1 0x1 PUSH1 0x20 MSTORE PUSH1 0x40 SWAP1 KECCAK256 DUP1 SLOAD PUSH1 0xFF NOT AND SWAP1 SSTORE PUSH1 0x2 DUP1 SLOAD PUSH1 0x0 NOT DUP2 ADD SWAP1 DUP2 LT PUSH3 0x3C0 JUMPI INVALID JUMPDEST PUSH1 0x0 SWAP2 DUP3 MSTORE PUSH1 0x20 SWAP1 SWAP2 KECCAK256 ADD SLOAD PUSH1 0x2 DUP1 SLOAD PUSH1 0x1 PUSH1 0x1 PUSH1 0xA0 SHL SUB SWAP1 SWAP3 AND SWAP2 DUP4 SWAP1 DUP2 LT PUSH3 0x3E7 JUMPI INVALID JUMPDEST PUSH1 0x0 SWAP2 DUP3 MSTORE PUSH1 0x20 SWAP1 SWAP2 KECCAK256 ADD DUP1 SLOAD PUSH1 0x1 PUSH1 0x1 PUSH1 0xA0 SHL SUB NOT AND PUSH1 0x1 PUSH1 0x1 PUSH1 0xA0 SHL SUB SWAP3 SWAP1 SWAP3 AND SWAP2 SWAP1 SWAP2 OR SWAP1 SSTORE PUSH1 0x2 DUP1 SLOAD PUSH1 0x0 NOT ADD SWAP1 PUSH3 0x425 SWAP1 DUP3 PUSH3 0x6D9 JUMP JUMPDEST POP PUSH1 0x40 MLOAD CALLER SWAP1 PUSH1 0x1 PUSH1 0x1 PUSH1 0xA0 SHL SUB DUP5 AND SWAP1 PUSH32 0x1F32C1B084E2DE0713B8FB16BD46BB9DF710A3DBEAE2F3CA93AF46E016DCC6B0 SWAP1 PUSH1 0x0 SWAP1 LOG3 POP POP JUMP JUMPDEST PUSH1 0x40 DUP1 MLOAD DUP1 DUP3 ADD SWAP1 SWAP2 MSTORE PUSH1 0x4 DUP2 MSTORE PUSH32 0x57654FE400000000000000000000000000000000000000000000000000000000 PUSH1 0x20 DUP3 ADD MSTORE JUMPDEST SWAP1 JUMP JUMPDEST DUP1 MLOAD PUSH1 0x20 DUP3 ADD REVERT JUMPDEST PUSH1 0x60 PUSH4 0xDE16F1A0 PUSH1 0xE0 SHL DUP3 PUSH1 0x40 MLOAD PUSH1 0x24 ADD PUSH3 0x4BD SWAP2 SWAP1 PUSH3 0x7C2 JUMP JUMPDEST PUSH1 0x40 DUP1 MLOAD PUSH1 0x1F NOT DUP2 DUP5 SUB ADD DUP2 MSTORE SWAP2 SWAP1 MSTORE PUSH1 0x20 DUP2 ADD DUP1 MLOAD PUSH1 0x1 PUSH1 0x1 PUSH1 0xE0 SHL SUB AND PUSH32 0xFFFFFFFF00000000000000000000000000000000000000000000000000000000 SWAP1 SWAP4 AND SWAP3 SWAP1 SWAP3 OR SWAP1 SWAP2 MSTORE SWAP1 POP SWAP2 SWAP1 POP JUMP JUMPDEST PUSH1 0x11 SLOAD PUSH3 0x69780 DUP2 LT DUP1 PUSH3 0x525 JUMPI POP PUSH3 0x278D00 DUP2 GT JUMPDEST ISZERO PUSH3 0x546 JUMPI PUSH3 0x546 PUSH3 0xB6 PUSH1 0x4 PUSH3 0x697 PUSH1 0x20 SHL PUSH3 0x11AD OR PUSH1 0x20 SHR JUMP JUMPDEST PUSH1 0x14 SLOAD PUSH4 0xFFFFFFFF PUSH5 0x100000000 DUP3 DIV DUP2 AND SWAP2 AND DUP2 LT DUP1 PUSH3 0x56C JUMPI POP PUSH4 0xFFFFFFFF DUP2 AND ISZERO JUMPDEST ISZERO PUSH3 0x58D JUMPI PUSH3 0x58D PUSH3 0xB6 PUSH1 0x0 PUSH3 0x697 PUSH1 0x20 SHL PUSH3 0x11AD OR PUSH1 0x20 SHR JUMP JUMPDEST PUSH1 0x12 SLOAD PUSH3 0xF4240 PUSH4 0xFFFFFFFF SWAP1 SWAP2 AND GT ISZERO PUSH3 0x5BE JUMPI PUSH3 0x5BE PUSH3 0xB6 PUSH1 0x1 PUSH3 0x697 PUSH1 0x20 SHL PUSH3 0x11AD OR PUSH1 0x20 SHR JUMP JUMPDEST PUSH1 0x2 PUSH1 0x13 SLOAD LT ISZERO PUSH3 0x5E5 JUMPI PUSH3 0x5E5 PUSH3 0xB6 PUSH1 0x3 PUSH3 0x697 PUSH1 0x20 SHL PUSH3 0x11AD OR PUSH1 0x20 SHR JUMP JUMPDEST POP POP JUMP JUMPDEST PUSH1 0x60 PUSH4 0xEB5108A2 PUSH1 0xE0 SHL DUP3 PUSH1 0x40 MLOAD PUSH1 0x24 ADD PUSH3 0x4BD SWAP2 SWAP1 PUSH3 0x7C2 JUMP JUMPDEST PUSH1 0x60 PUSH4 0xE9F83771 PUSH1 0xE0 SHL DUP4 DUP4 PUSH1 0x40 MLOAD PUSH1 0x24 ADD PUSH3 0x625 SWAP3 SWAP2 SWAP1 PUSH3 0x7F1 JUMP JUMPDEST PUSH1 0x40 DUP1 MLOAD PUSH1 0x1F NOT DUP2 DUP5 SUB ADD DUP2 MSTORE SWAP2 SWAP1 MSTORE PUSH1 0x20 DUP2 ADD DUP1 MLOAD PUSH1 0x1 PUSH1 0x1 PUSH1 0xE0 SHL SUB AND PUSH32 0xFFFFFFFF00000000000000000000000000000000000000000000000000000000 SWAP1 SWAP4 AND SWAP3 SWAP1 SWAP3 OR SWAP1 SWAP2 MSTORE SWAP1 POP JUMPDEST SWAP3 SWAP2 POP POP JUMP JUMPDEST PUSH1 0x60 PUSH4 0x140A84DB PUSH1 0xE0 SHL DUP4 DUP4 PUSH1 0x40 MLOAD PUSH1 0x24 ADD PUSH3 0x625 SWAP3 SWAP2 SWAP1 PUSH3 0x7D2 JUMP JUMPDEST PUSH1 0x60 PUSH32 0xFC45BD1100000000000000000000000000000000000000000000000000000000 DUP3 PUSH1 0x4 DUP2 GT ISZERO PUSH3 0x6C7 JUMPI INVALID JUMPDEST PUSH1 0x40 MLOAD PUSH1 0x24 ADD PUSH3 0x4BD SWAP2 SWAP1 PUSH3 0x810 JUMP JUMPDEST DUP2 SLOAD DUP2 DUP4 SSTORE DUP2 DUP2 GT ISZERO PUSH3 0x2B2 JUMPI PUSH1 0x0 DUP4 DUP2 MSTORE PUSH1 0x20 SWAP1 KECCAK256 PUSH3 0x2B2 SWAP2 DUP2 ADD SWAP1 DUP4 ADD PUSH3 0x495 SWAP2 SWAP1 JUMPDEST DUP1 DUP3 GT ISZERO PUSH3 0x717 JUMPI PUSH1 0x0 DUP2 SSTORE PUSH1 0x1 ADD PUSH3 0x701 JUMP JUMPDEST POP SWAP1 JUMP JUMPDEST DUP1 MLOAD PUSH3 0x672 DUP2 PUSH3 0x874 JUMP JUMPDEST PUSH1 0x0 PUSH1 0x20 DUP3 DUP5 SUB SLT ISZERO PUSH3 0x73B JUMPI PUSH1 0x0 DUP1 REVERT JUMPDEST PUSH1 0x0 PUSH3 0x749 DUP5 DUP5 PUSH3 0x71B JUMP JUMPDEST SWAP5 SWAP4 POP POP POP POP JUMP JUMPDEST PUSH3 0x75C DUP2 PUSH3 0x829 JUMP JUMPDEST DUP3 MSTORE POP POP JUMP JUMPDEST PUSH1 0x0 PUSH3 0x76F DUP3 PUSH3 0x820 JUMP JUMPDEST PUSH3 0x77B DUP2 DUP6 PUSH3 0x824 JUMP JUMPDEST SWAP4 POP PUSH3 0x78D DUP2 DUP6 PUSH1 0x20 DUP7 ADD PUSH3 0x841 JUMP JUMPDEST SWAP3 SWAP1 SWAP3 ADD SWAP3 SWAP2 POP POP JUMP JUMPDEST PUSH3 0x75C DUP2 PUSH3 0x495 JUMP JUMPDEST PUSH3 0x75C DUP2 PUSH3 0x83B JUMP JUMPDEST PUSH1 0x0 PUSH3 0x7BB DUP3 DUP5 PUSH3 0x762 JUMP JUMPDEST SWAP4 SWAP3 POP POP POP JUMP JUMPDEST PUSH1 0x20 DUP2 ADD PUSH3 0x672 DUP3 DUP5 PUSH3 0x751 JUMP JUMPDEST PUSH1 0x40 DUP2 ADD PUSH3 0x7E2 DUP3 DUP6 PUSH3 0x751 JUMP JUMPDEST PUSH3 0x7BB PUSH1 0x20 DUP4 ADD DUP5 PUSH3 0x751 JUMP JUMPDEST PUSH1 0x40 DUP2 ADD PUSH3 0x801 DUP3 DUP6 PUSH3 0x797 JUMP JUMPDEST PUSH3 0x7BB PUSH1 0x20 DUP4 ADD DUP5 PUSH3 0x797 JUMP JUMPDEST PUSH1 0x20 DUP2 ADD PUSH3 0x672 DUP3 DUP5 PUSH3 0x7A2 JUMP JUMPDEST MLOAD SWAP1 JUMP JUMPDEST SWAP2 SWAP1 POP JUMP JUMPDEST PUSH1 0x0 PUSH1 0x1 PUSH1 0x1 PUSH1 0xA0 SHL SUB DUP3 AND PUSH3 0x672 JUMP JUMPDEST PUSH1 0xFF AND SWAP1 JUMP JUMPDEST PUSH1 0x0 JUMPDEST DUP4 DUP2 LT ISZERO PUSH3 0x85E JUMPI DUP2 DUP2 ADD MLOAD DUP4 DUP3 ADD MSTORE PUSH1 0x20 ADD PUSH3 0x844 JUMP JUMPDEST DUP4 DUP2 GT ISZERO PUSH3 0x86E JUMPI PUSH1 0x0 DUP5 DUP5 ADD MSTORE JUMPDEST POP POP POP POP JUMP JUMPDEST PUSH3 0x87F DUP2 PUSH3 0x829 JUMP JUMPDEST DUP2 EQ PUSH3 0x88B JUMPI PUSH1 0x0 DUP1 REVERT JUMPDEST POP JUMP JUMPDEST PUSH2 0x18CD DUP1 PUSH3 0x89E PUSH1 0x0 CODECOPY PUSH1 0x0 RETURN INVALID PUSH1 0x80 PUSH1 0x40 MSTORE PUSH1 0x4 CALLDATASIZE LT PUSH2 0x1AC JUMPI PUSH1 0x0 CALLDATALOAD PUSH1 0xE0 SHR DUP1 PUSH4 0x8DA5CB5B GT PUSH2 0xEC JUMPI DUP1 PUSH4 0xC6F3A427 GT PUSH2 0x8A JUMPI DUP1 PUSH4 0xE8EEB3F8 GT PUSH2 0x64 JUMPI DUP1 PUSH4 0xE8EEB3F8 EQ PUSH2 0x539 JUMPI DUP1 PUSH4 0xEE99205C EQ PUSH2 0x54E JUMPI DUP1 PUSH4 0xF1876532 EQ PUSH2 0x563 JUMPI DUP1 PUSH4 0xF2FDE38B EQ PUSH2 0x583 JUMPI PUSH2 0x1AC JUMP JUMPDEST DUP1 PUSH4 0xC6F3A427 EQ PUSH2 0x4ED JUMPI DUP1 PUSH4 0xD39DE6E9 EQ PUSH2 0x502 JUMPI DUP1 PUSH4 0xE0EE036E EQ PUSH2 0x524 JUMPI PUSH2 0x1AC JUMP JUMPDEST DUP1 PUSH4 0xA657E579 GT PUSH2 0xC6 JUMPI DUP1 PUSH4 0xA657E579 EQ PUSH2 0x483 JUMPI DUP1 PUSH4 0xB0531524 EQ PUSH2 0x498 JUMPI DUP1 PUSH4 0xB9181611 EQ PUSH2 0x4AD JUMPI DUP1 PUSH4 0xC18C9141 EQ PUSH2 0x4CD JUMPI PUSH2 0x1AC JUMP JUMPDEST DUP1 PUSH4 0x8DA5CB5B EQ PUSH2 0x439 JUMPI DUP1 PUSH4 0x9AD26744 EQ PUSH2 0x44E JUMPI DUP1 PUSH4 0xA26171E2 EQ PUSH2 0x46E JUMPI PUSH2 0x1AC JUMP JUMPDEST DUP1 PUSH4 0x5BD4AB73 GT PUSH2 0x159 JUMPI DUP1 PUSH4 0x70712939 GT PUSH2 0x133 JUMPI DUP1 PUSH4 0x70712939 EQ PUSH2 0x3B5 JUMPI DUP1 PUSH4 0x76671808 EQ PUSH2 0x3D5 JUMPI DUP1 PUSH4 0x81666796 EQ PUSH2 0x3EA JUMPI DUP1 PUSH4 0x856A65EB EQ PUSH2 0x40C JUMPI PUSH2 0x1AC JUMP JUMPDEST DUP1 PUSH4 0x5BD4AB73 EQ PUSH2 0x353 JUMPI DUP1 PUSH4 0x63403801 EQ PUSH2 0x380 JUMPI DUP1 PUSH4 0x66615D56 EQ PUSH2 0x395 JUMPI PUSH2 0x1AC JUMP JUMPDEST DUP1 PUSH4 0x42F1181E GT PUSH2 0x18A JUMPI DUP1 PUSH4 0x42F1181E EQ PUSH2 0x2E4 JUMPI DUP1 PUSH4 0x494503D4 EQ PUSH2 0x304 JUMPI DUP1 PUSH4 0x587DA023 EQ PUSH2 0x331 JUMPI PUSH2 0x1AC JUMP JUMPDEST DUP1 PUSH4 0x2A94C279 EQ PUSH2 0x264 JUMPI DUP1 PUSH4 0x37B006A6 EQ PUSH2 0x29C JUMPI DUP1 PUSH4 0x38229D93 EQ PUSH2 0x2B3 JUMPI JUMPDEST PUSH1 0x3 SLOAD PUSH20 0xFFFFFFFFFFFFFFFFFFFFFFFFFFFFFFFFFFFFFFFF AND DUP1 PUSH2 0x1DA JUMPI PUSH2 0x1DA PUSH2 0x1D5 PUSH2 0x5A3 JUMP JUMPDEST PUSH2 0x5DB JUMP JUMPDEST PUSH1 0x0 PUSH1 0x60 DUP3 PUSH20 0xFFFFFFFFFFFFFFFFFFFFFFFFFFFFFFFFFFFFFFFF AND PUSH1 0x0 CALLDATASIZE PUSH1 0x40 MLOAD PUSH2 0x206 SWAP3 SWAP2 SWAP1 PUSH2 0x168E JUMP JUMPDEST PUSH1 0x0 PUSH1 0x40 MLOAD DUP1 DUP4 SUB DUP2 DUP6 GAS DELEGATECALL SWAP2 POP POP RETURNDATASIZE DUP1 PUSH1 0x0 DUP2 EQ PUSH2 0x241 JUMPI PUSH1 0x40 MLOAD SWAP2 POP PUSH1 0x1F NOT PUSH1 0x3F RETURNDATASIZE ADD AND DUP3 ADD PUSH1 0x40 MSTORE RETURNDATASIZE DUP3 MSTORE RETURNDATASIZE PUSH1 0x0 PUSH1 0x20 DUP5 ADD RETURNDATACOPY PUSH2 0x246 JUMP JUMPDEST PUSH1 0x60 SWAP2 POP JUMPDEST POP SWAP2 POP SWAP2 POP DUP2 PUSH1 0x0 DUP2 EQ PUSH2 0x25C JUMPI DUP2 MLOAD DUP3 PUSH1 0x20 ADD RETURN JUMPDEST DUP2 MLOAD DUP3 PUSH1 0x20 ADD REVERT JUMPDEST CALLVALUE DUP1 ISZERO PUSH2 0x270 JUMPI PUSH1 0x0 DUP1 REVERT JUMPDEST POP PUSH2 0x284 PUSH2 0x27F CALLDATASIZE PUSH1 0x4 PUSH2 0x14C8 JUMP JUMPDEST PUSH2 0x5E3 JUMP JUMPDEST PUSH1 0x40 MLOAD PUSH2 0x293 SWAP4 SWAP3 SWAP2 SWAP1 PUSH2 0x1729 JUMP JUMPDEST PUSH1 0x40 MLOAD DUP1 SWAP2 SUB SWAP1 RETURN JUMPDEST CALLVALUE DUP1 ISZERO PUSH2 0x2A8 JUMPI PUSH1 0x0 DUP1 REVERT JUMPDEST POP PUSH2 0x2B1 PUSH2 0x60F JUMP JUMPDEST STOP JUMPDEST CALLVALUE DUP1 ISZERO PUSH2 0x2BF JUMPI PUSH1 0x0 DUP1 REVERT JUMPDEST POP PUSH2 0x2D3 PUSH2 0x2CE CALLDATASIZE PUSH1 0x4 PUSH2 0x14AA JUMP JUMPDEST PUSH2 0x66A JUMP JUMPDEST PUSH1 0x40 MLOAD PUSH2 0x293 SWAP6 SWAP5 SWAP4 SWAP3 SWAP2 SWAP1 PUSH2 0x1751 JUMP JUMPDEST CALLVALUE DUP1 ISZERO PUSH2 0x2F0 JUMPI PUSH1 0x0 DUP1 REVERT JUMPDEST POP PUSH2 0x2B1 PUSH2 0x2FF CALLDATASIZE PUSH1 0x4 PUSH2 0x1408 JUMP JUMPDEST PUSH2 0x699 JUMP JUMPDEST CALLVALUE DUP1 ISZERO PUSH2 0x310 JUMPI PUSH1 0x0 DUP1 REVERT JUMPDEST POP PUSH2 0x324 PUSH2 0x31F CALLDATASIZE PUSH1 0x4 PUSH2 0x14AA JUMP JUMPDEST PUSH2 0x6AD JUMP JUMPDEST PUSH1 0x40 MLOAD PUSH2 0x293 SWAP2 SWAP1 PUSH2 0x16A7 JUMP JUMPDEST CALLVALUE DUP1 ISZERO PUSH2 0x33D JUMPI PUSH1 0x0 DUP1 REVERT JUMPDEST POP PUSH2 0x346 PUSH2 0x6E1 JUMP JUMPDEST PUSH1 0x40 MLOAD PUSH2 0x293 SWAP2 SWAP1 PUSH2 0x1700 JUMP JUMPDEST CALLVALUE DUP1 ISZERO PUSH2 0x35F JUMPI PUSH1 0x0 DUP1 REVERT JUMPDEST POP PUSH2 0x373 PUSH2 0x36E CALLDATASIZE PUSH1 0x4 PUSH2 0x1408 JUMP JUMPDEST PUSH2 0x6E7 JUMP JUMPDEST PUSH1 0x40 MLOAD PUSH2 0x293 SWAP2 SWAP1 PUSH2 0x16F2 JUMP JUMPDEST CALLVALUE DUP1 ISZERO PUSH2 0x38C JUMPI PUSH1 0x0 DUP1 REVERT JUMPDEST POP PUSH2 0x346 PUSH2 0x6FC JUMP JUMPDEST CALLVALUE DUP1 ISZERO PUSH2 0x3A1 JUMPI PUSH1 0x0 DUP1 REVERT JUMPDEST POP PUSH2 0x2B1 PUSH2 0x3B0 CALLDATASIZE PUSH1 0x4 PUSH2 0x1408 JUMP JUMPDEST PUSH2 0x702 JUMP JUMPDEST CALLVALUE DUP1 ISZERO PUSH2 0x3C1 JUMPI PUSH1 0x0 DUP1 REVERT JUMPDEST POP PUSH2 0x2B1 PUSH2 0x3D0 CALLDATASIZE PUSH1 0x4 PUSH2 0x1408 JUMP JUMPDEST PUSH2 0x713 JUMP JUMPDEST CALLVALUE DUP1 ISZERO PUSH2 0x3E1 JUMPI PUSH1 0x0 DUP1 REVERT JUMPDEST POP PUSH2 0x346 PUSH2 0x7C8 JUMP JUMPDEST CALLVALUE DUP1 ISZERO PUSH2 0x3F6 JUMPI PUSH1 0x0 DUP1 REVERT JUMPDEST POP PUSH2 0x3FF PUSH2 0x7CE JUMP JUMPDEST PUSH1 0x40 MLOAD PUSH2 0x293 SWAP2 SWAP1 PUSH2 0x179D JUMP JUMPDEST CALLVALUE DUP1 ISZERO PUSH2 0x418 JUMPI PUSH1 0x0 DUP1 REVERT JUMPDEST POP PUSH2 0x42C PUSH2 0x427 CALLDATASIZE PUSH1 0x4 PUSH2 0x1468 JUMP JUMPDEST PUSH2 0x7DA JUMP JUMPDEST PUSH1 0x40 MLOAD PUSH2 0x293 SWAP2 SWAP1 PUSH2 0x16E1 JUMP JUMPDEST CALLVALUE DUP1 ISZERO PUSH2 0x445 JUMPI PUSH1 0x0 DUP1 REVERT JUMPDEST POP PUSH2 0x324 PUSH2 0x967 JUMP JUMPDEST CALLVALUE DUP1 ISZERO PUSH2 0x45A JUMPI PUSH1 0x0 DUP1 REVERT JUMPDEST POP PUSH2 0x2B1 PUSH2 0x469 CALLDATASIZE PUSH1 0x4 PUSH2 0x142E JUMP JUMPDEST PUSH2 0x983 JUMP JUMPDEST CALLVALUE DUP1 ISZERO PUSH2 0x47A JUMPI PUSH1 0x0 DUP1 REVERT JUMPDEST POP PUSH2 0x346 PUSH2 0x995 JUMP JUMPDEST CALLVALUE DUP1 ISZERO PUSH2 0x48F JUMPI PUSH1 0x0 DUP1 REVERT JUMPDEST POP PUSH2 0x346 PUSH2 0x99B JUMP JUMPDEST CALLVALUE DUP1 ISZERO PUSH2 0x4A4 JUMPI PUSH1 0x0 DUP1 REVERT JUMPDEST POP PUSH2 0x346 PUSH2 0x9A1 JUMP JUMPDEST CALLVALUE DUP1 ISZERO PUSH2 0x4B9 JUMPI PUSH1 0x0 DUP1 REVERT JUMPDEST POP PUSH2 0x373 PUSH2 0x4C8 CALLDATASIZE PUSH1 0x4 PUSH2 0x1408 JUMP JUMPDEST PUSH2 0x9A7 JUMP JUMPDEST CALLVALUE DUP1 ISZERO PUSH2 0x4D9 JUMPI PUSH1 0x0 DUP1 REVERT JUMPDEST POP PUSH2 0x346 PUSH2 0x4E8 CALLDATASIZE PUSH1 0x4 PUSH2 0x14AA JUMP JUMPDEST PUSH2 0x9BC JUMP JUMPDEST CALLVALUE DUP1 ISZERO PUSH2 0x4F9 JUMPI PUSH1 0x0 DUP1 REVERT JUMPDEST POP PUSH2 0x2B1 PUSH2 0x9CE JUMP JUMPDEST CALLVALUE DUP1 ISZERO PUSH2 0x50E JUMPI PUSH1 0x0 DUP1 REVERT JUMPDEST POP PUSH2 0x517 PUSH2 0xA67 JUMP JUMPDEST PUSH1 0x40 MLOAD PUSH2 0x293 SWAP2 SWAP1 PUSH2 0x16D0 JUMP JUMPDEST CALLVALUE DUP1 ISZERO PUSH2 0x530 JUMPI PUSH1 0x0 DUP1 REVERT JUMPDEST POP PUSH2 0x3FF PUSH2 0xAD6 JUMP JUMPDEST CALLVALUE DUP1 ISZERO PUSH2 0x545 JUMPI PUSH1 0x0 DUP1 REVERT JUMPDEST POP PUSH2 0x3FF PUSH2 0xAE2 JUMP JUMPDEST CALLVALUE DUP1 ISZERO PUSH2 0x55A JUMPI PUSH1 0x0 DUP1 REVERT JUMPDEST POP PUSH2 0x324 PUSH2 0xAF6 JUMP JUMPDEST CALLVALUE DUP1 ISZERO PUSH2 0x56F JUMPI PUSH1 0x0 DUP1 REVERT JUMPDEST POP PUSH2 0x346 PUSH2 0x57E CALLDATASIZE PUSH1 0x4 PUSH2 0x1408 JUMP JUMPDEST PUSH2 0xB12 JUMP JUMPDEST CALLVALUE DUP1 ISZERO PUSH2 0x58F JUMPI PUSH1 0x0 DUP1 REVERT JUMPDEST POP PUSH2 0x2B1 PUSH2 0x59E CALLDATASIZE PUSH1 0x4 PUSH2 0x1408 JUMP JUMPDEST PUSH2 0xB24 JUMP JUMPDEST PUSH1 0x40 DUP1 MLOAD DUP1 DUP3 ADD SWAP1 SWAP2 MSTORE PUSH1 0x4 DUP2 MSTORE PUSH32 0x6EFF828500000000000000000000000000000000000000000000000000000000 PUSH1 0x20 DUP3 ADD MSTORE JUMPDEST SWAP1 JUMP JUMPDEST DUP1 MLOAD PUSH1 0x20 DUP3 ADD REVERT JUMPDEST PUSH1 0x15 PUSH1 0x20 SWAP1 DUP2 MSTORE PUSH1 0x0 SWAP3 DUP4 MSTORE PUSH1 0x40 DUP1 DUP5 KECCAK256 SWAP1 SWAP2 MSTORE SWAP1 DUP3 MSTORE SWAP1 KECCAK256 DUP1 SLOAD PUSH1 0x1 DUP3 ADD SLOAD PUSH1 0x2 SWAP1 SWAP3 ADD SLOAD SWAP1 SWAP2 SWAP1 DUP4 JUMP JUMPDEST PUSH2 0x617 PUSH2 0xBC7 JUMP JUMPDEST PUSH1 0x3 DUP1 SLOAD PUSH32 0xFFFFFFFFFFFFFFFFFFFFFFFF0000000000000000000000000000000000000000 AND SWAP1 SSTORE PUSH1 0x40 MLOAD PUSH32 0x6CAEDCB22A5C22C8EBD0CAF751FEC1228A6E006E6EE37169321E02D31ECC8183 SWAP1 PUSH1 0x0 SWAP1 LOG1 JUMP JUMPDEST PUSH1 0x16 PUSH1 0x20 MSTORE PUSH1 0x0 SWAP1 DUP2 MSTORE PUSH1 0x40 SWAP1 KECCAK256 DUP1 SLOAD PUSH1 0x1 DUP3 ADD SLOAD PUSH1 0x2 DUP4 ADD SLOAD PUSH1 0x3 DUP5 ADD SLOAD PUSH1 0x4 SWAP1 SWAP5 ADD SLOAD SWAP3 SWAP4 SWAP2 SWAP3 SWAP1 SWAP2 SWAP1 DUP6 JUMP JUMPDEST PUSH2 0x6A1 PUSH2 0xBEC JUMP JUMPDEST PUSH2 0x6AA DUP2 PUSH2 0xC33 JUMP JUMPDEST POP JUMP JUMPDEST PUSH1 0x2 DUP2 DUP2 SLOAD DUP2 LT PUSH2 0x6BA JUMPI INVALID JUMPDEST PUSH1 0x0 SWAP2 DUP3 MSTORE PUSH1 0x20 SWAP1 SWAP2 KECCAK256 ADD SLOAD PUSH20 0xFFFFFFFFFFFFFFFFFFFFFFFFFFFFFFFFFFFFFFFF AND SWAP1 POP DUP2 JUMP JUMPDEST PUSH1 0xD SLOAD DUP2 JUMP JUMPDEST PUSH1 0x10 PUSH1 0x20 MSTORE PUSH1 0x0 SWAP1 DUP2 MSTORE PUSH1 0x40 SWAP1 KECCAK256 SLOAD PUSH1 0xFF AND DUP2 JUMP JUMPDEST PUSH1 0x11 SLOAD DUP2 JUMP JUMPDEST PUSH2 0x70A PUSH2 0xBC7 JUMP JUMPDEST PUSH2 0x6AA DUP2 PUSH2 0xD64 JUMP JUMPDEST PUSH2 0x71B PUSH2 0xBEC JUMP JUMPDEST PUSH20 0xFFFFFFFFFFFFFFFFFFFFFFFFFFFFFFFFFFFFFFFF DUP2 AND PUSH1 0x0 SWAP1 DUP2 MSTORE PUSH1 0x1 PUSH1 0x20 MSTORE PUSH1 0x40 SWAP1 KECCAK256 SLOAD PUSH1 0xFF AND PUSH2 0x754 JUMPI PUSH2 0x754 PUSH2 0x1D5 DUP3 PUSH2 0xEBF JUMP JUMPDEST PUSH1 0x0 JUMPDEST PUSH1 0x2 SLOAD DUP2 LT ISZERO PUSH2 0x7C4 JUMPI DUP2 PUSH20 0xFFFFFFFFFFFFFFFFFFFFFFFFFFFFFFFFFFFFFFFF AND PUSH1 0x2 DUP3 DUP2 SLOAD DUP2 LT PUSH2 0x785 JUMPI INVALID JUMPDEST PUSH1 0x0 SWAP2 DUP3 MSTORE PUSH1 0x20 SWAP1 SWAP2 KECCAK256 ADD SLOAD PUSH20 0xFFFFFFFFFFFFFFFFFFFFFFFFFFFFFFFFFFFFFFFF AND EQ ISZERO PUSH2 0x7BC JUMPI PUSH2 0x7B7 DUP3 DUP3 PUSH2 0xF5E JUMP JUMPDEST PUSH2 0x7C4 JUMP JUMPDEST PUSH1 0x1 ADD PUSH2 0x757 JUMP JUMPDEST POP POP JUMP JUMPDEST PUSH1 0xC SLOAD DUP2 JUMP JUMPDEST PUSH1 0x14 SLOAD PUSH4 0xFFFFFFFF AND DUP2 JUMP JUMPDEST PUSH1 0x40 DUP1 MLOAD DUP3 DUP2 MSTORE PUSH1 0x20 DUP1 DUP5 MUL DUP3 ADD ADD SWAP1 SWAP2 MSTORE PUSH1 0x60 SWAP1 PUSH1 0x0 SWAP1 DUP3 SWAP1 DUP5 SWAP1 DUP2 DUP1 ISZERO PUSH2 0x817 JUMPI DUP2 PUSH1 0x20 ADD JUMPDEST PUSH1 0x60 DUP2 MSTORE PUSH1 0x20 ADD SWAP1 PUSH1 0x1 SWAP1 SUB SWAP1 DUP2 PUSH2 0x802 JUMPI SWAP1 POP JUMPDEST POP PUSH1 0x3 SLOAD SWAP1 SWAP5 POP PUSH20 0xFFFFFFFFFFFFFFFFFFFFFFFFFFFFFFFFFFFFFFFF AND DUP1 PUSH2 0x844 JUMPI PUSH2 0x844 PUSH2 0x1D5 PUSH2 0x5A3 JUMP JUMPDEST PUSH1 0x0 JUMPDEST DUP3 DUP2 EQ PUSH2 0x95B JUMPI DUP2 PUSH20 0xFFFFFFFFFFFFFFFFFFFFFFFFFFFFFFFFFFFFFFFF AND DUP9 DUP9 DUP4 DUP2 DUP2 LT PUSH2 0x871 JUMPI INVALID JUMPDEST PUSH1 0x20 MUL DUP3 ADD SWAP1 POP DUP1 CALLDATALOAD PUSH32 0xFFFFFFFFFFFFFFFFFFFFFFFFFFFFFFFFFFFFFFFFFFFFFFFFFFFFFFFFFFFFFFE1 CALLDATASIZE DUP5 SWAP1 SUB ADD DUP2 SLT PUSH2 0x8AB JUMPI PUSH1 0x0 DUP1 REVERT JUMPDEST SWAP1 SWAP2 ADD PUSH1 0x20 DUP2 ADD SWAP2 POP CALLDATALOAD PUSH8 0xFFFFFFFFFFFFFFFF DUP2 GT ISZERO PUSH2 0x8CA JUMPI PUSH1 0x0 DUP1 REVERT JUMPDEST CALLDATASIZE DUP2 SWAP1 SUB DUP3 SGT ISZERO PUSH2 0x8DA JUMPI PUSH1 0x0 DUP1 REVERT JUMPDEST PUSH1 0x40 MLOAD PUSH2 0x8E8 SWAP3 SWAP2 SWAP1 PUSH2 0x168E JUMP JUMPDEST PUSH1 0x0 PUSH1 0x40 MLOAD DUP1 DUP4 SUB DUP2 DUP6 GAS DELEGATECALL SWAP2 POP POP RETURNDATASIZE DUP1 PUSH1 0x0 DUP2 EQ PUSH2 0x923 JUMPI PUSH1 0x40 MLOAD SWAP2 POP PUSH1 0x1F NOT PUSH1 0x3F RETURNDATASIZE ADD AND DUP3 ADD PUSH1 0x40 MSTORE RETURNDATASIZE DUP3 MSTORE RETURNDATASIZE PUSH1 0x0 PUSH1 0x20 DUP5 ADD RETURNDATACOPY PUSH2 0x928 JUMP JUMPDEST PUSH1 0x60 SWAP2 POP JUMPDEST POP SWAP1 SWAP6 POP SWAP4 POP DUP5 PUSH2 0x93B JUMPI DUP4 MLOAD DUP5 PUSH1 0x20 ADD REVERT JUMPDEST DUP4 DUP7 DUP3 DUP2 MLOAD DUP2 LT PUSH2 0x948 JUMPI INVALID JUMPDEST PUSH1 0x20 SWAP1 DUP2 MUL SWAP2 SWAP1 SWAP2 ADD ADD MSTORE PUSH1 0x1 ADD PUSH2 0x847 JUMP JUMPDEST POP POP POP POP POP JUMPDEST SWAP3 SWAP2 POP POP JUMP JUMPDEST PUSH1 0x0 SLOAD PUSH20 0xFFFFFFFFFFFFFFFFFFFFFFFFFFFFFFFFFFFFFFFF AND DUP2 JUMP JUMPDEST PUSH2 0x98B PUSH2 0xBEC JUMP JUMPDEST PUSH2 0x7C4 DUP3 DUP3 PUSH2 0xF5E JUMP JUMPDEST PUSH1 0x13 SLOAD DUP2 JUMP JUMPDEST PUSH1 0x8 SLOAD DUP2 JUMP JUMPDEST PUSH1 0x17 SLOAD DUP2 JUMP JUMPDEST PUSH1 0x1 PUSH1 0x20 MSTORE PUSH1 0x0 SWAP1 DUP2 MSTORE PUSH1 0x40 SWAP1 KECCAK256 SLOAD PUSH1 0xFF AND DUP2 JUMP JUMPDEST PUSH1 0xB PUSH1 0x20 MSTORE PUSH1 0x0 SWAP1 DUP2 MSTORE PUSH1 0x40 SWAP1 KECCAK256 SLOAD DUP2 JUMP JUMPDEST PUSH1 0x11 SLOAD PUSH3 0x69780 DUP2 LT DUP1 PUSH2 0x9E4 JUMPI POP PUSH3 0x278D00 DUP2 GT JUMPDEST ISZERO PUSH2 0x9F6 JUMPI PUSH2 0x9F6 PUSH2 0x1D5 PUSH1 0x4 PUSH2 0x11AD JUMP JUMPDEST PUSH1 0x14 SLOAD PUSH4 0xFFFFFFFF PUSH5 0x100000000 DUP3 DIV DUP2 AND SWAP2 AND DUP2 LT DUP1 PUSH2 0xA1B JUMPI POP PUSH4 0xFFFFFFFF DUP2 AND ISZERO JUMPDEST ISZERO PUSH2 0xA2D JUMPI PUSH2 0xA2D PUSH2 0x1D5 PUSH1 0x0 PUSH2 0x11AD JUMP JUMPDEST PUSH1 0x12 SLOAD PUSH3 0xF4240 PUSH4 0xFFFFFFFF SWAP1 SWAP2 AND GT ISZERO PUSH2 0xA4F JUMPI PUSH2 0xA4F PUSH2 0x1D5 PUSH1 0x1 PUSH2 0x11AD JUMP JUMPDEST PUSH1 0x2 PUSH1 0x13 SLOAD LT ISZERO PUSH2 0x7C4 JUMPI PUSH2 0x7C4 PUSH2 0x1D5 PUSH1 0x3 PUSH2 0x11AD JUMP JUMPDEST PUSH1 0x60 PUSH1 0x2 DUP1 SLOAD DUP1 PUSH1 0x20 MUL PUSH1 0x20 ADD PUSH1 0x40 MLOAD SWAP1 DUP2 ADD PUSH1 0x40 MSTORE DUP1 SWAP3 SWAP2 SWAP1 DUP2 DUP2 MSTORE PUSH1 0x20 ADD DUP3 DUP1 SLOAD DUP1 ISZERO PUSH2 0xACC JUMPI PUSH1 0x20 MUL DUP3 ADD SWAP2 SWAP1 PUSH1 0x0 MSTORE PUSH1 0x20 PUSH1 0x0 KECCAK256 SWAP1 JUMPDEST DUP2 SLOAD PUSH20 0xFFFFFFFFFFFFFFFFFFFFFFFFFFFFFFFFFFFFFFFF AND DUP2 MSTORE PUSH1 0x1 SWAP1 SWAP2 ADD SWAP1 PUSH1 0x20 ADD DUP1 DUP4 GT PUSH2 0xAA1 JUMPI JUMPDEST POP POP POP POP POP SWAP1 POP SWAP1 JUMP JUMPDEST PUSH1 0x12 SLOAD PUSH4 0xFFFFFFFF AND DUP2 JUMP JUMPDEST PUSH1 0x14 SLOAD PUSH5 0x100000000 SWAP1 DIV PUSH4 0xFFFFFFFF AND DUP2 JUMP JUMPDEST PUSH1 0x3 SLOAD PUSH20 0xFFFFFFFFFFFFFFFFFFFFFFFFFFFFFFFFFFFFFFFF AND DUP2 JUMP JUMPDEST PUSH1 0x9 PUSH1 0x20 MSTORE PUSH1 0x0 SWAP1 DUP2 MSTORE PUSH1 0x40 SWAP1 KECCAK256 SLOAD DUP2 JUMP JUMPDEST PUSH2 0xB2C PUSH2 0xBEC JUMP JUMPDEST PUSH20 0xFFFFFFFFFFFFFFFFFFFFFFFFFFFFFFFFFFFFFFFF DUP2 AND PUSH2 0xB57 JUMPI PUSH2 0xB52 PUSH2 0x1D5 PUSH2 0x11EC JUMP JUMPDEST PUSH2 0x6AA JUMP JUMPDEST PUSH1 0x0 DUP1 SLOAD PUSH32 0xFFFFFFFFFFFFFFFFFFFFFFFF0000000000000000000000000000000000000000 AND PUSH20 0xFFFFFFFFFFFFFFFFFFFFFFFFFFFFFFFFFFFFFFFF DUP4 AND SWAP1 DUP2 OR DUP3 SSTORE PUSH1 0x40 MLOAD SWAP1 SWAP2 CALLER SWAP2 PUSH32 0x8BE0079C531659141344CD1FD0A4F28419497F9722A3DAAFE3B4186F6B6457E0 SWAP2 SWAP1 LOG3 POP JUMP JUMPDEST CALLER PUSH1 0x0 SWAP1 DUP2 MSTORE PUSH1 0x1 PUSH1 0x20 MSTORE PUSH1 0x40 SWAP1 KECCAK256 SLOAD PUSH1 0xFF AND PUSH2 0xBEA JUMPI PUSH2 0xBEA PUSH2 0x1D5 CALLER PUSH2 0x1223 JUMP JUMPDEST JUMP JUMPDEST PUSH1 0x0 SLOAD PUSH20 0xFFFFFFFFFFFFFFFFFFFFFFFFFFFFFFFFFFFFFFFF AND CALLER EQ PUSH2 0xBEA JUMPI PUSH1 0x0 SLOAD PUSH2 0xBEA SWAP1 PUSH2 0x1D5 SWAP1 CALLER SWAP1 PUSH20 0xFFFFFFFFFFFFFFFFFFFFFFFFFFFFFFFFFFFFFFFF AND PUSH2 0x123E JUMP JUMPDEST PUSH20 0xFFFFFFFFFFFFFFFFFFFFFFFFFFFFFFFFFFFFFFFF DUP2 AND PUSH2 0xC59 JUMPI PUSH2 0xC59 PUSH2 0x1D5 PUSH2 0x12E0 JUMP JUMPDEST PUSH20 0xFFFFFFFFFFFFFFFFFFFFFFFFFFFFFFFFFFFFFFFF DUP2 AND PUSH1 0x0 SWAP1 DUP2 MSTORE PUSH1 0x1 PUSH1 0x20 MSTORE PUSH1 0x40 SWAP1 KECCAK256 SLOAD PUSH1 0xFF AND ISZERO PUSH2 0xC93 JUMPI PUSH2 0xC93 PUSH2 0x1D5 DUP3 PUSH2 0x1317 JUMP JUMPDEST PUSH20 0xFFFFFFFFFFFFFFFFFFFFFFFFFFFFFFFFFFFFFFFF DUP2 AND PUSH1 0x0 DUP2 DUP2 MSTORE PUSH1 0x1 PUSH1 0x20 DUP2 SWAP1 MSTORE PUSH1 0x40 DUP1 DUP4 KECCAK256 DUP1 SLOAD PUSH32 0xFFFFFFFFFFFFFFFFFFFFFFFFFFFFFFFFFFFFFFFFFFFFFFFFFFFFFFFFFFFFFF00 AND DUP4 OR SWAP1 SSTORE PUSH1 0x2 DUP1 SLOAD SWAP3 DUP4 ADD DUP2 SSTORE DUP4 MSTORE PUSH32 0x405787FA12A823E0F2B7631CC41B3BA8828B3321CA811111FA75CD3AA3BB5ACE SWAP1 SWAP2 ADD DUP1 SLOAD PUSH32 0xFFFFFFFFFFFFFFFFFFFFFFFF0000000000000000000000000000000000000000 AND DUP5 OR SWAP1 SSTORE MLOAD CALLER SWAP3 SWAP2 PUSH32 0x3147867C59D17E8FA9D522465651D44AAE0A9E38F902F3475B97E58072F0ED4C SWAP2 LOG3 POP JUMP JUMPDEST PUSH1 0x3 DUP1 SLOAD PUSH32 0xFFFFFFFFFFFFFFFFFFFFFFFF0000000000000000000000000000000000000000 AND PUSH20 0xFFFFFFFFFFFFFFFFFFFFFFFFFFFFFFFFFFFFFFFF DUP4 AND OR SWAP1 SSTORE PUSH1 0x40 MLOAD PUSH32 0x48368388F801041F7690185C4E28B6F3505C740C47BE8AC104B55DF666BFC84 SWAP1 PUSH2 0xDD4 SWAP1 DUP4 SWAP1 PUSH2 0x16A7 JUMP JUMPDEST PUSH1 0x40 MLOAD DUP1 SWAP2 SUB SWAP1 LOG1 PUSH1 0x3 SLOAD PUSH1 0x40 DUP1 MLOAD PUSH1 0x4 DUP2 MSTORE PUSH1 0x24 DUP2 ADD DUP3 MSTORE PUSH1 0x20 DUP2 ADD DUP1 MLOAD PUSH28 0xFFFFFFFFFFFFFFFFFFFFFFFFFFFFFFFFFFFFFFFFFFFFFFFFFFFFFFFF AND PUSH32 0xE1C7392A00000000000000000000000000000000000000000000000000000000 OR SWAP1 MSTORE SWAP1 MLOAD PUSH1 0x0 SWAP3 PUSH1 0x60 SWAP3 PUSH20 0xFFFFFFFFFFFFFFFFFFFFFFFFFFFFFFFFFFFFFFFF SWAP1 SWAP2 AND SWAP2 PUSH2 0xE60 SWAP2 SWAP1 PUSH2 0x169B JUMP JUMPDEST PUSH1 0x0 PUSH1 0x40 MLOAD DUP1 DUP4 SUB DUP2 DUP6 GAS DELEGATECALL SWAP2 POP POP RETURNDATASIZE DUP1 PUSH1 0x0 DUP2 EQ PUSH2 0xE9B JUMPI PUSH1 0x40 MLOAD SWAP2 POP PUSH1 0x1F NOT PUSH1 0x3F RETURNDATASIZE ADD AND DUP3 ADD PUSH1 0x40 MSTORE RETURNDATASIZE DUP3 MSTORE RETURNDATASIZE PUSH1 0x0 PUSH1 0x20 DUP5 ADD RETURNDATACOPY PUSH2 0xEA0 JUMP JUMPDEST PUSH1 0x60 SWAP2 POP JUMPDEST POP SWAP2 POP SWAP2 POP DUP2 PUSH2 0xEB2 JUMPI DUP1 MLOAD PUSH1 0x20 DUP3 ADD REVERT JUMPDEST PUSH2 0xEBA PUSH2 0x9CE JUMP JUMPDEST POP POP POP JUMP JUMPDEST PUSH1 0x60 PUSH4 0xEB5108A2 PUSH1 0xE0 SHL DUP3 PUSH1 0x40 MLOAD PUSH1 0x24 ADD PUSH2 0xEDA SWAP2 SWAP1 PUSH2 0x16A7 JUMP JUMPDEST PUSH1 0x40 DUP1 MLOAD PUSH32 0xFFFFFFFFFFFFFFFFFFFFFFFFFFFFFFFFFFFFFFFFFFFFFFFFFFFFFFFFFFFFFFE0 DUP2 DUP5 SUB ADD DUP2 MSTORE SWAP2 SWAP1 MSTORE PUSH1 0x20 DUP2 ADD DUP1 MLOAD PUSH28 0xFFFFFFFFFFFFFFFFFFFFFFFFFFFFFFFFFFFFFFFFFFFFFFFFFFFFFFFF AND PUSH32 0xFFFFFFFF00000000000000000000000000000000000000000000000000000000 SWAP1 SWAP4 AND SWAP3 SWAP1 SWAP3 OR SWAP1 SWAP2 MSTORE SWAP1 POP SWAP2 SWAP1 POP JUMP JUMPDEST PUSH20 0xFFFFFFFFFFFFFFFFFFFFFFFFFFFFFFFFFFFFFFFF DUP3 AND PUSH1 0x0 SWAP1 DUP2 MSTORE PUSH1 0x1 PUSH1 0x20 MSTORE PUSH1 0x40 SWAP1 KECCAK256 SLOAD PUSH1 0xFF AND PUSH2 0xF97 JUMPI PUSH2 0xF97 PUSH2 0x1D5 DUP4 PUSH2 0xEBF JUMP JUMPDEST PUSH1 0x2 SLOAD DUP2 LT PUSH2 0xFB2 JUMPI PUSH2 0xFB2 PUSH2 0x1D5 DUP3 PUSH1 0x2 DUP1 SLOAD SWAP1 POP PUSH2 0x1332 JUMP JUMPDEST DUP2 PUSH20 0xFFFFFFFFFFFFFFFFFFFFFFFFFFFFFFFFFFFFFFFF AND PUSH1 0x2 DUP3 DUP2 SLOAD DUP2 LT PUSH2 0xFD6 JUMPI INVALID JUMPDEST PUSH1 0x0 SWAP2 DUP3 MSTORE PUSH1 0x20 SWAP1 SWAP2 KECCAK256 ADD SLOAD PUSH20 0xFFFFFFFFFFFFFFFFFFFFFFFFFFFFFFFFFFFFFFFF AND EQ PUSH2 0x1038 JUMPI PUSH2 0x1038 PUSH2 0x1D5 PUSH1 0x2 DUP4 DUP2 SLOAD DUP2 LT PUSH2 0x1010 JUMPI INVALID JUMPDEST PUSH1 0x0 SWAP2 DUP3 MSTORE PUSH1 0x20 SWAP1 SWAP2 KECCAK256 ADD SLOAD PUSH20 0xFFFFFFFFFFFFFFFFFFFFFFFFFFFFFFFFFFFFFFFF AND DUP5 PUSH2 0x134F JUMP JUMPDEST PUSH20 0xFFFFFFFFFFFFFFFFFFFFFFFFFFFFFFFFFFFFFFFF DUP3 AND PUSH1 0x0 SWAP1 DUP2 MSTORE PUSH1 0x1 PUSH1 0x20 MSTORE PUSH1 0x40 SWAP1 KECCAK256 DUP1 SLOAD PUSH32 0xFFFFFFFFFFFFFFFFFFFFFFFFFFFFFFFFFFFFFFFFFFFFFFFFFFFFFFFFFFFFFF00 AND SWAP1 SSTORE PUSH1 0x2 DUP1 SLOAD PUSH32 0xFFFFFFFFFFFFFFFFFFFFFFFFFFFFFFFFFFFFFFFFFFFFFFFFFFFFFFFFFFFFFFFF DUP2 ADD SWAP1 DUP2 LT PUSH2 0x10B3 JUMPI INVALID JUMPDEST PUSH1 0x0 SWAP2 DUP3 MSTORE PUSH1 0x20 SWAP1 SWAP2 KECCAK256 ADD SLOAD PUSH1 0x2 DUP1 SLOAD PUSH20 0xFFFFFFFFFFFFFFFFFFFFFFFFFFFFFFFFFFFFFFFF SWAP1 SWAP3 AND SWAP2 DUP4 SWAP1 DUP2 LT PUSH2 0x10E6 JUMPI INVALID JUMPDEST PUSH1 0x0 SWAP2 DUP3 MSTORE PUSH1 0x20 SWAP1 SWAP2 KECCAK256 ADD DUP1 SLOAD PUSH32 0xFFFFFFFFFFFFFFFFFFFFFFFF0000000000000000000000000000000000000000 AND PUSH20 0xFFFFFFFFFFFFFFFFFFFFFFFFFFFFFFFFFFFFFFFF SWAP3 SWAP1 SWAP3 AND SWAP2 SWAP1 SWAP2 OR SWAP1 SSTORE PUSH1 0x2 DUP1 SLOAD PUSH32 0xFFFFFFFFFFFFFFFFFFFFFFFFFFFFFFFFFFFFFFFFFFFFFFFFFFFFFFFFFFFFFFFF ADD SWAP1 PUSH2 0x1165 SWAP1 DUP3 PUSH2 0x136C JUMP JUMPDEST POP PUSH1 0x40 MLOAD CALLER SWAP1 PUSH20 0xFFFFFFFFFFFFFFFFFFFFFFFFFFFFFFFFFFFFFFFF DUP5 AND SWAP1 PUSH32 0x1F32C1B084E2DE0713B8FB16BD46BB9DF710A3DBEAE2F3CA93AF46E016DCC6B0 SWAP1 PUSH1 0x0 SWAP1 LOG3 POP POP JUMP JUMPDEST PUSH1 0x60 PUSH32 0xFC45BD1100000000000000000000000000000000000000000000000000000000 DUP3 PUSH1 0x4 DUP2 GT ISZERO PUSH2 0x11DC JUMPI INVALID JUMPDEST PUSH1 0x40 MLOAD PUSH1 0x24 ADD PUSH2 0xEDA SWAP2 SWAP1 PUSH2 0x17AB JUMP JUMPDEST PUSH1 0x40 DUP1 MLOAD DUP1 DUP3 ADD SWAP1 SWAP2 MSTORE PUSH1 0x4 DUP2 MSTORE PUSH32 0xE69EDC3E00000000000000000000000000000000000000000000000000000000 PUSH1 0x20 DUP3 ADD MSTORE SWAP1 JUMP JUMPDEST PUSH1 0x60 PUSH4 0xB65A25B9 PUSH1 0xE0 SHL DUP3 PUSH1 0x40 MLOAD PUSH1 0x24 ADD PUSH2 0xEDA SWAP2 SWAP1 PUSH2 0x16A7 JUMP JUMPDEST PUSH1 0x60 PUSH4 0x1DE45AD1 PUSH1 0xE0 SHL DUP4 DUP4 PUSH1 0x40 MLOAD PUSH1 0x24 ADD PUSH2 0x125B SWAP3 SWAP2 SWAP1 PUSH2 0x16B5 JUMP JUMPDEST PUSH1 0x40 DUP1 MLOAD PUSH32 0xFFFFFFFFFFFFFFFFFFFFFFFFFFFFFFFFFFFFFFFFFFFFFFFFFFFFFFFFFFFFFFE0 DUP2 DUP5 SUB ADD DUP2 MSTORE SWAP2 SWAP1 MSTORE PUSH1 0x20 DUP2 ADD DUP1 MLOAD PUSH28 0xFFFFFFFFFFFFFFFFFFFFFFFFFFFFFFFFFFFFFFFFFFFFFFFFFFFFFFFF AND PUSH32 0xFFFFFFFF00000000000000000000000000000000000000000000000000000000 SWAP1 SWAP4 AND SWAP3 SWAP1 SWAP3 OR SWAP1 SWAP2 MSTORE SWAP1 POP SWAP3 SWAP2 POP POP JUMP JUMPDEST PUSH1 0x40 DUP1 MLOAD DUP1 DUP3 ADD SWAP1 SWAP2 MSTORE PUSH1 0x4 DUP2 MSTORE PUSH32 0x57654FE400000000000000000000000000000000000000000000000000000000 PUSH1 0x20 DUP3 ADD MSTORE SWAP1 JUMP JUMPDEST PUSH1 0x60 PUSH4 0xDE16F1A0 PUSH1 0xE0 SHL DUP3 PUSH1 0x40 MLOAD PUSH1 0x24 ADD PUSH2 0xEDA SWAP2 SWAP1 PUSH2 0x16A7 JUMP JUMPDEST PUSH1 0x60 PUSH4 0xE9F83771 PUSH1 0xE0 SHL DUP4 DUP4 PUSH1 0x40 MLOAD PUSH1 0x24 ADD PUSH2 0x125B SWAP3 SWAP2 SWAP1 PUSH2 0x170E JUMP JUMPDEST PUSH1 0x60 PUSH4 0x140A84DB PUSH1 0xE0 SHL DUP4 DUP4 PUSH1 0x40 MLOAD PUSH1 0x24 ADD PUSH2 0x125B SWAP3 SWAP2 SWAP1 PUSH2 0x16B5 JUMP JUMPDEST DUP2 SLOAD DUP2 DUP4 SSTORE DUP2 DUP2 GT ISZERO PUSH2 0xEBA JUMPI PUSH1 0x0 DUP4 DUP2 MSTORE PUSH1 0x20 SWAP1 KECCAK256 PUSH2 0xEBA SWAP2 DUP2 ADD SWAP1 DUP4 ADD PUSH2 0x5D8 SWAP2 SWAP1 JUMPDEST DUP1 DUP3 GT ISZERO PUSH2 0x13A5 JUMPI PUSH1 0x0 DUP2 SSTORE PUSH1 0x1 ADD PUSH2 0x1391 JUMP JUMPDEST POP SWAP1 JUMP JUMPDEST DUP1 CALLDATALOAD PUSH2 0x961 DUP2 PUSH2 0x186D JUMP JUMPDEST PUSH1 0x0 DUP1 DUP4 PUSH1 0x1F DUP5 ADD SLT PUSH2 0x13C6 JUMPI PUSH1 0x0 DUP1 REVERT JUMPDEST POP DUP2 CALLDATALOAD PUSH8 0xFFFFFFFFFFFFFFFF DUP2 GT ISZERO PUSH2 0x13DE JUMPI PUSH1 0x0 DUP1 REVERT JUMPDEST PUSH1 0x20 DUP4 ADD SWAP2 POP DUP4 PUSH1 0x20 DUP3 MUL DUP4 ADD GT ISZERO PUSH2 0x13F6 JUMPI PUSH1 0x0 DUP1 REVERT JUMPDEST SWAP3 POP SWAP3 SWAP1 POP JUMP JUMPDEST DUP1 CALLDATALOAD PUSH2 0x961 DUP2 PUSH2 0x1881 JUMP JUMPDEST PUSH1 0x0 PUSH1 0x20 DUP3 DUP5 SUB SLT ISZERO PUSH2 0x141A JUMPI PUSH1 0x0 DUP1 REVERT JUMPDEST PUSH1 0x0 PUSH2 0x1426 DUP5 DUP5 PUSH2 0x13A9 JUMP JUMPDEST SWAP5 SWAP4 POP POP POP POP JUMP JUMPDEST PUSH1 0x0 DUP1 PUSH1 0x40 DUP4 DUP6 SUB SLT ISZERO PUSH2 0x1441 JUMPI PUSH1 0x0 DUP1 REVERT JUMPDEST PUSH1 0x0 PUSH2 0x144D DUP6 DUP6 PUSH2 0x13A9 JUMP JUMPDEST SWAP3 POP POP PUSH1 0x20 PUSH2 0x145E DUP6 DUP3 DUP7 ADD PUSH2 0x13FD JUMP JUMPDEST SWAP2 POP POP SWAP3 POP SWAP3 SWAP1 POP JUMP JUMPDEST PUSH1 0x0 DUP1 PUSH1 0x20 DUP4 DUP6 SUB SLT ISZERO PUSH2 0x147B JUMPI PUSH1 0x0 DUP1 REVERT JUMPDEST DUP3 CALLDATALOAD PUSH8 0xFFFFFFFFFFFFFFFF DUP2 GT ISZERO PUSH2 0x1492 JUMPI PUSH1 0x0 DUP1 REVERT JUMPDEST PUSH2 0x149E DUP6 DUP3 DUP7 ADD PUSH2 0x13B4 JUMP JUMPDEST SWAP3 POP SWAP3 POP POP SWAP3 POP SWAP3 SWAP1 POP JUMP JUMPDEST PUSH1 0x0 PUSH1 0x20 DUP3 DUP5 SUB SLT ISZERO PUSH2 0x14BC JUMPI PUSH1 0x0 DUP1 REVERT JUMPDEST PUSH1 0x0 PUSH2 0x1426 DUP5 DUP5 PUSH2 0x13FD JUMP JUMPDEST PUSH1 0x0 DUP1 PUSH1 0x40 DUP4 DUP6 SUB SLT ISZERO PUSH2 0x14DB JUMPI PUSH1 0x0 DUP1 REVERT JUMPDEST PUSH1 0x0 PUSH2 0x144D DUP6 DUP6 PUSH2 0x13FD JUMP JUMPDEST PUSH1 0x0 PUSH2 0x14F3 DUP4 DUP4 PUSH2 0x150E JUMP JUMPDEST POP POP PUSH1 0x20 ADD SWAP1 JUMP JUMPDEST PUSH1 0x0 PUSH2 0x1507 DUP4 DUP4 PUSH2 0x1644 JUMP JUMPDEST SWAP4 SWAP3 POP POP POP JUMP JUMPDEST PUSH2 0x1517 DUP2 PUSH2 0x17D1 JUMP JUMPDEST DUP3 MSTORE POP POP JUMP JUMPDEST PUSH1 0x0 PUSH2 0x1528 DUP3 PUSH2 0x17BF JUMP JUMPDEST PUSH2 0x1532 DUP2 DUP6 PUSH2 0x17C3 JUMP JUMPDEST SWAP4 POP PUSH2 0x153D DUP4 PUSH2 0x17B9 JUMP JUMPDEST DUP1 PUSH1 0x0 JUMPDEST DUP4 DUP2 LT ISZERO PUSH2 0x156B JUMPI DUP2 MLOAD PUSH2 0x1555 DUP9 DUP3 PUSH2 0x14E7 JUMP JUMPDEST SWAP8 POP PUSH2 0x1560 DUP4 PUSH2 0x17B9 JUMP JUMPDEST SWAP3 POP POP PUSH1 0x1 ADD PUSH2 0x1541 JUMP JUMPDEST POP SWAP5 SWAP6 SWAP5 POP POP POP POP POP JUMP JUMPDEST PUSH1 0x0 PUSH2 0x1581 DUP3 PUSH2 0x17BF JUMP JUMPDEST PUSH2 0x158B DUP2 DUP6 PUSH2 0x17C3 JUMP JUMPDEST SWAP4 POP DUP4 PUSH1 0x20 DUP3 MUL DUP6 ADD PUSH2 0x159D DUP6 PUSH2 0x17B9 JUMP JUMPDEST DUP1 PUSH1 0x0 JUMPDEST DUP6 DUP2 LT ISZERO PUSH2 0x15D7 JUMPI DUP5 DUP5 SUB DUP10 MSTORE DUP2 MLOAD PUSH2 0x15BA DUP6 DUP3 PUSH2 0x14FB JUMP JUMPDEST SWAP5 POP PUSH2 0x15C5 DUP4 PUSH2 0x17B9 JUMP JUMPDEST PUSH1 0x20 SWAP11 SWAP1 SWAP11 ADD SWAP10 SWAP3 POP POP PUSH1 0x1 ADD PUSH2 0x15A1 JUMP JUMPDEST POP SWAP2 SWAP8 SWAP7 POP POP POP POP POP POP POP JUMP JUMPDEST PUSH2 0x1517 DUP2 PUSH2 0x17DC JUMP JUMPDEST PUSH2 0x1517 DUP2 PUSH2 0x5D8 JUMP JUMPDEST PUSH1 0x0 PUSH2 0x1602 DUP4 DUP6 PUSH2 0x17CC JUMP JUMPDEST SWAP4 POP PUSH2 0x160F DUP4 DUP6 DUP5 PUSH2 0x1809 JUMP JUMPDEST POP POP ADD SWAP1 JUMP JUMPDEST PUSH1 0x0 PUSH2 0x1620 DUP3 PUSH2 0x17BF JUMP JUMPDEST PUSH2 0x162A DUP2 DUP6 PUSH2 0x17CC JUMP JUMPDEST SWAP4 POP PUSH2 0x163A DUP2 DUP6 PUSH1 0x20 DUP7 ADD PUSH2 0x1815 JUMP JUMPDEST SWAP3 SWAP1 SWAP3 ADD SWAP3 SWAP2 POP POP JUMP JUMPDEST PUSH1 0x0 PUSH2 0x164F DUP3 PUSH2 0x17BF JUMP JUMPDEST PUSH2 0x1659 DUP2 DUP6 PUSH2 0x17C3 JUMP JUMPDEST SWAP4 POP PUSH2 0x1669 DUP2 DUP6 PUSH1 0x20 DUP7 ADD PUSH2 0x1815 JUMP JUMPDEST PUSH2 0x1672 DUP2 PUSH2 0x1845 JUMP JUMPDEST SWAP1 SWAP4 ADD SWAP4 SWAP3 POP POP POP JUMP JUMPDEST PUSH2 0x1517 DUP2 PUSH2 0x17FA JUMP JUMPDEST PUSH2 0x1517 DUP2 PUSH2 0x1803 JUMP JUMPDEST PUSH1 0x0 PUSH2 0x1426 DUP3 DUP5 DUP7 PUSH2 0x15F6 JUMP JUMPDEST PUSH1 0x0 PUSH2 0x1507 DUP3 DUP5 PUSH2 0x1615 JUMP JUMPDEST PUSH1 0x20 DUP2 ADD PUSH2 0x961 DUP3 DUP5 PUSH2 0x150E JUMP JUMPDEST PUSH1 0x40 DUP2 ADD PUSH2 0x16C3 DUP3 DUP6 PUSH2 0x150E JUMP JUMPDEST PUSH2 0x1507 PUSH1 0x20 DUP4 ADD DUP5 PUSH2 0x150E JUMP JUMPDEST PUSH1 0x20 DUP1 DUP3 MSTORE DUP2 ADD PUSH2 0x1507 DUP2 DUP5 PUSH2 0x151D JUMP JUMPDEST PUSH1 0x20 DUP1 DUP3 MSTORE DUP2 ADD PUSH2 0x1507 DUP2 DUP5 PUSH2 0x1576 JUMP JUMPDEST PUSH1 0x20 DUP2 ADD PUSH2 0x961 DUP3 DUP5 PUSH2 0x15E4 JUMP JUMPDEST PUSH1 0x20 DUP2 ADD PUSH2 0x961 DUP3 DUP5 PUSH2 0x15ED JUMP JUMPDEST PUSH1 0x40 DUP2 ADD PUSH2 0x171C DUP3 DUP6 PUSH2 0x15ED JUMP JUMPDEST PUSH2 0x1507 PUSH1 0x20 DUP4 ADD DUP5 PUSH2 0x15ED JUMP JUMPDEST PUSH1 0x60 DUP2 ADD PUSH2 0x1737 DUP3 DUP7 PUSH2 0x15ED JUMP JUMPDEST PUSH2 0x1744 PUSH1 0x20 DUP4 ADD DUP6 PUSH2 0x15ED JUMP JUMPDEST PUSH2 0x1426 PUSH1 0x40 DUP4 ADD DUP5 PUSH2 0x15ED JUMP JUMPDEST PUSH1 0xA0 DUP2 ADD PUSH2 0x175F DUP3 DUP9 PUSH2 0x15ED JUMP JUMPDEST PUSH2 0x176C PUSH1 0x20 DUP4 ADD DUP8 PUSH2 0x15ED JUMP JUMPDEST PUSH2 0x1779 PUSH1 0x40 DUP4 ADD DUP7 PUSH2 0x15ED JUMP JUMPDEST PUSH2 0x1786 PUSH1 0x60 DUP4 ADD DUP6 PUSH2 0x15ED JUMP JUMPDEST PUSH2 0x1793 PUSH1 0x80 DUP4 ADD DUP5 PUSH2 0x15ED JUMP JUMPDEST SWAP7 SWAP6 POP POP POP POP POP POP JUMP JUMPDEST PUSH1 0x20 DUP2 ADD PUSH2 0x961 DUP3 DUP5 PUSH2 0x167C JUMP JUMPDEST PUSH1 0x20 DUP2 ADD PUSH2 0x961 DUP3 DUP5 PUSH2 0x1685 JUMP JUMPDEST PUSH1 0x20 ADD SWAP1 JUMP JUMPDEST MLOAD SWAP1 JUMP JUMPDEST SWAP1 DUP2 MSTORE PUSH1 0x20 ADD SWAP1 JUMP JUMPDEST SWAP2 SWAP1 POP JUMP JUMPDEST PUSH1 0x0 PUSH2 0x961 DUP3 PUSH2 0x17E1 JUMP JUMPDEST ISZERO ISZERO SWAP1 JUMP JUMPDEST PUSH20 0xFFFFFFFFFFFFFFFFFFFFFFFFFFFFFFFFFFFFFFFF AND SWAP1 JUMP JUMPDEST PUSH4 0xFFFFFFFF AND SWAP1 JUMP JUMPDEST PUSH1 0xFF AND SWAP1 JUMP JUMPDEST DUP3 DUP2 DUP4 CALLDATACOPY POP PUSH1 0x0 SWAP2 ADD MSTORE JUMP JUMPDEST PUSH1 0x0 JUMPDEST DUP4 DUP2 LT ISZERO PUSH2 0x1830 JUMPI DUP2 DUP2 ADD MLOAD DUP4 DUP3 ADD MSTORE PUSH1 0x20 ADD PUSH2 0x1818 JUMP JUMPDEST DUP4 DUP2 GT ISZERO PUSH2 0x183F JUMPI PUSH1 0x0 DUP5 DUP5 ADD MSTORE JUMPDEST POP POP POP POP JUMP JUMPDEST PUSH1 0x1F ADD PUSH32 0xFFFFFFFFFFFFFFFFFFFFFFFFFFFFFFFFFFFFFFFFFFFFFFFFFFFFFFFFFFFFFFE0 AND SWAP1 JUMP JUMPDEST PUSH2 0x1876 DUP2 PUSH2 0x17D1 JUMP JUMPDEST DUP2 EQ PUSH2 0x6AA JUMPI PUSH1 0x0 DUP1 REVERT JUMPDEST PUSH2 0x1876 DUP2 PUSH2 0x5D8 JUMP INVALID LOG3 PUSH6 0x627A7A723058 KECCAK256 ADDRESS TIMESTAMP PUSH2 0x909B 0xb6 SELFDESTRUCT STATICCALL 0xad PUSH23 0x4F6E54DA64F1B6285F9E2F83D74679117967BD7677E66C PUSH6 0x78706572696D PUSH6 0x6E74616CF564 PUSH20 0x6F6C634300050900400000000000000000000000 "
			}
		}
	},
	"sourceTreeHashHex": "0x695559513066b3bd8073bfc67e033b63b74dd3564a1548e3671f9fe4112e6780",
	"compiler": {
		"name": "solc",
		"version": "0.5.9+commit.e560f70d",
		"settings": {
			"remappings": [],
			"optimizer": {
				"enabled": true,
				"runs": 1000000
			},
			"outputSelection": {
				"*": {
					"*": [
						"abi",
						"devdoc",
						"evm.bytecode.object",
						"evm.bytecode.sourceMap",
						"evm.deployedBytecode.object",
						"evm.deployedBytecode.sourceMap"
					]
				}
			}
		}
	},
	"chains": {}
}