{
	"schemaVersion": "2.0.0",
	"contractName": "StakingProxy",
	"compilerOutput": {
		"abi": [
			{
				"inputs": [
					{
						"internalType": "address",
						"name": "_stakingContract",
						"type": "address"
					}
				],
				"stateMutability": "nonpayable",
				"type": "constructor"
			},
			{
				"anonymous": false,
				"inputs": [
					{
						"indexed": true,
						"internalType": "address",
						"name": "target",
						"type": "address"
					},
					{
						"indexed": true,
						"internalType": "address",
						"name": "caller",
						"type": "address"
					}
				],
				"name": "AuthorizedAddressAdded",
				"type": "event"
			},
			{
				"anonymous": false,
				"inputs": [
					{
						"indexed": true,
						"internalType": "address",
						"name": "target",
						"type": "address"
					},
					{
						"indexed": true,
						"internalType": "address",
						"name": "caller",
						"type": "address"
					}
				],
				"name": "AuthorizedAddressRemoved",
				"type": "event"
			},
			{
				"anonymous": false,
				"inputs": [
					{
						"indexed": true,
						"internalType": "address",
						"name": "previousOwner",
						"type": "address"
					},
					{
						"indexed": true,
						"internalType": "address",
						"name": "newOwner",
						"type": "address"
					}
				],
				"name": "OwnershipTransferred",
				"type": "event"
			},
			{
				"anonymous": false,
				"inputs": [
					{
						"indexed": false,
						"internalType": "address",
						"name": "newStakingContractAddress",
						"type": "address"
					}
				],
				"name": "StakingContractAttachedToProxy",
				"type": "event"
			},
			{
				"anonymous": false,
				"inputs": [],
				"name": "StakingContractDetachedFromProxy",
				"type": "event"
			},
			{
				"inputs": [
					{
						"internalType": "address",
						"name": "target",
						"type": "address"
					}
				],
				"name": "addAuthorizedAddress",
				"outputs": [],
				"stateMutability": "nonpayable",
				"type": "function"
			},
			{
				"inputs": [
					{
						"internalType": "uint256",
						"name": "",
						"type": "uint256"
					}
				],
				"name": "aggregatedStatsByEpoch",
				"outputs": [
					{
						"internalType": "uint256",
						"name": "rewardsAvailable",
						"type": "uint256"
					},
					{
						"internalType": "uint256",
						"name": "numPoolsToFinalize",
						"type": "uint256"
					},
					{
						"internalType": "uint256",
						"name": "totalFeesCollected",
						"type": "uint256"
					},
					{
						"internalType": "uint256",
						"name": "totalWeightedStake",
						"type": "uint256"
					},
					{
						"internalType": "uint256",
						"name": "totalRewardsFinalized",
						"type": "uint256"
					}
				],
				"stateMutability": "view",
				"type": "function"
			},
			{
				"inputs": [],
				"name": "assertValidStorageParams",
				"outputs": [],
				"stateMutability": "view",
				"type": "function"
			},
			{
				"inputs": [
					{
						"internalType": "address",
						"name": "_stakingContract",
						"type": "address"
					}
				],
				"name": "attachStakingContract",
				"outputs": [],
				"stateMutability": "nonpayable",
				"type": "function"
			},
			{
				"inputs": [
					{
						"internalType": "uint256",
						"name": "",
						"type": "uint256"
					}
				],
				"name": "authorities",
				"outputs": [
					{
						"internalType": "address",
						"name": "",
						"type": "address"
					}
				],
				"stateMutability": "view",
				"type": "function"
			},
			{
				"inputs": [
					{
						"internalType": "address",
						"name": "",
						"type": "address"
					}
				],
				"name": "authorized",
				"outputs": [
					{
						"internalType": "bool",
						"name": "",
						"type": "bool"
					}
				],
				"stateMutability": "view",
				"type": "function"
			},
			{
				"inputs": [
					{
						"internalType": "bytes[]",
						"name": "data",
						"type": "bytes[]"
					}
				],
				"name": "batchExecute",
				"outputs": [
					{
						"internalType": "bytes[]",
						"name": "batchReturnData",
						"type": "bytes[]"
					}
				],
				"stateMutability": "nonpayable",
				"type": "function"
			},
			{
				"inputs": [],
				"name": "cobbDouglasAlphaDenominator",
				"outputs": [
					{
						"internalType": "uint32",
						"name": "",
						"type": "uint32"
					}
				],
				"stateMutability": "view",
				"type": "function"
			},
			{
				"inputs": [],
				"name": "cobbDouglasAlphaNumerator",
				"outputs": [
					{
						"internalType": "uint32",
						"name": "",
						"type": "uint32"
					}
				],
				"stateMutability": "view",
				"type": "function"
			},
			{
				"inputs": [],
				"name": "currentEpoch",
				"outputs": [
					{
						"internalType": "uint256",
						"name": "",
						"type": "uint256"
					}
				],
				"stateMutability": "view",
				"type": "function"
			},
			{
				"inputs": [],
				"name": "currentEpochStartTimeInSeconds",
				"outputs": [
					{
						"internalType": "uint256",
						"name": "",
						"type": "uint256"
					}
				],
				"stateMutability": "view",
				"type": "function"
			},
			{
				"inputs": [],
				"name": "detachStakingContract",
				"outputs": [],
				"stateMutability": "nonpayable",
				"type": "function"
			},
			{
				"inputs": [],
				"name": "epochDurationInSeconds",
				"outputs": [
					{
						"internalType": "uint256",
						"name": "",
						"type": "uint256"
					}
				],
				"stateMutability": "view",
				"type": "function"
			},
			{
				"inputs": [],
				"name": "getAuthorizedAddresses",
				"outputs": [
					{
						"internalType": "address[]",
						"name": "",
						"type": "address[]"
					}
				],
				"stateMutability": "view",
				"type": "function"
			},
			{
				"inputs": [],
				"name": "grgReservedForPoolRewards",
				"outputs": [
					{
						"internalType": "uint256",
						"name": "",
						"type": "uint256"
					}
				],
				"stateMutability": "view",
				"type": "function"
			},
			{
				"inputs": [],
				"name": "minimumPoolStake",
				"outputs": [
					{
						"internalType": "uint256",
						"name": "",
						"type": "uint256"
					}
				],
				"stateMutability": "view",
				"type": "function"
			},
			{
				"inputs": [],
				"name": "owner",
				"outputs": [
					{
						"internalType": "address",
						"name": "",
						"type": "address"
					}
				],
				"stateMutability": "view",
				"type": "function"
			},
			{
				"inputs": [
					{
						"internalType": "address",
						"name": "",
						"type": "address"
					}
				],
				"name": "poolIdByRbPoolAccount",
				"outputs": [
					{
						"internalType": "bytes32",
						"name": "",
						"type": "bytes32"
					}
				],
				"stateMutability": "view",
				"type": "function"
			},
			{
				"inputs": [
					{
						"internalType": "bytes32",
						"name": "",
						"type": "bytes32"
					},
					{
						"internalType": "uint256",
						"name": "",
						"type": "uint256"
					}
				],
				"name": "poolStatsByEpoch",
				"outputs": [
					{
						"internalType": "uint256",
						"name": "feesCollected",
						"type": "uint256"
					},
					{
						"internalType": "uint256",
						"name": "weightedStake",
						"type": "uint256"
					},
					{
						"internalType": "uint256",
						"name": "membersStake",
						"type": "uint256"
					}
				],
				"stateMutability": "view",
				"type": "function"
			},
			{
				"inputs": [
					{
						"internalType": "address",
						"name": "target",
						"type": "address"
					}
				],
				"name": "removeAuthorizedAddress",
				"outputs": [],
				"stateMutability": "nonpayable",
				"type": "function"
			},
			{
				"inputs": [
					{
						"internalType": "address",
						"name": "target",
						"type": "address"
					},
					{
						"internalType": "uint256",
						"name": "index",
						"type": "uint256"
					}
				],
				"name": "removeAuthorizedAddressAtIndex",
				"outputs": [],
				"stateMutability": "nonpayable",
				"type": "function"
			},
			{
				"inputs": [],
				"name": "rewardDelegatedStakeWeight",
				"outputs": [
					{
						"internalType": "uint32",
						"name": "",
						"type": "uint32"
					}
				],
				"stateMutability": "view",
				"type": "function"
			},
			{
				"inputs": [
					{
						"internalType": "bytes32",
						"name": "",
						"type": "bytes32"
					}
				],
				"name": "rewardsByPoolId",
				"outputs": [
					{
						"internalType": "uint256",
						"name": "",
						"type": "uint256"
					}
				],
				"stateMutability": "view",
				"type": "function"
			},
			{
				"inputs": [],
				"name": "stakingContract",
				"outputs": [
					{
						"internalType": "address",
						"name": "",
						"type": "address"
					}
				],
				"stateMutability": "view",
				"type": "function"
			},
			{
				"inputs": [
					{
						"internalType": "address",
						"name": "newOwner",
						"type": "address"
					}
				],
				"name": "transferOwnership",
				"outputs": [],
				"stateMutability": "nonpayable",
				"type": "function"
			},
			{
				"inputs": [
					{
						"internalType": "address",
						"name": "",
						"type": "address"
					}
				],
				"name": "validPops",
				"outputs": [
					{
						"internalType": "bool",
						"name": "",
						"type": "bool"
					}
				],
				"stateMutability": "view",
				"type": "function"
			}
		],
		"devdoc": {
			"kind": "dev",
			"methods": {
				"addAuthorizedAddress(address)": {
					"details": "Authorizes an address.",
					"params": {
						"target": "Address to authorize."
					}
				},
				"assertValidStorageParams()": {
					"details": "Asserts that an epoch is between 5 and 90 days long."
				},
				"attachStakingContract(address)": {
					"details": "Attach a staking contract; future calls will be delegated to the staking contract. Note that this is callable only by an authorized address.",
					"params": {
						"_stakingContract": "Address of staking contract."
					}
				},
				"batchExecute(bytes[])": {
					"details": "Batch executes a series of calls to the staking contract.",
					"params": {
						"data": "An array of data that encodes a sequence of functions to             call in the staking contracts."
					}
				},
				"constructor": {
					"details": "Constructor.",
					"params": {
						"_stakingContract": "Staking contract to delegate calls to."
					}
				},
				"detachStakingContract()": {
					"details": "Detach the current staking contract. Note that this is callable only by an authorized address."
				},
				"getAuthorizedAddresses()": {
					"details": "Gets all authorized addresses.",
					"returns": {
						"_0": "Array of authorized addresses."
					}
				},
				"removeAuthorizedAddress(address)": {
					"details": "Removes authorizion of an address.",
					"params": {
						"target": "Address to remove authorization from."
					}
				},
				"removeAuthorizedAddressAtIndex(address,uint256)": {
					"details": "Removes authorizion of an address.",
					"params": {
						"index": "Index of target in authorities array.",
						"target": "Address to remove authorization from."
					}
				},
				"transferOwnership(address)": {
					"details": "Change the owner of this contract.",
					"params": {
						"newOwner": "New owner address."
					}
				}
			},
			"version": 1
		},
		"evm": {
			"bytecode": {
				"linkReferences": {},
				"object": "0x60806040523480156200001157600080fd5b5060405162002004380380620020048339810160408190526200003491620006cc565b600080546001600160a01b03191633908117909155620000549062000073565b6200005f8162000176565b6200006c3360006200027a565b506200074c565b6001600160a01b038116620000ac57620000ac6200009b6200044160201b62000b6d1760201c565b6200045f60201b620005c81760201c565b6001600160a01b03811660009081526001602052604090205460ff1615620000e857620000e86200009b826200046760201b62000ba41760201c565b6001600160a01b0381166000818152600160208190526040808320805460ff19168317905560028054928301815583527f405787fa12a823e0f2b7631cc41b3ba8828b3321ca811111fa75cd3aa3bb5ace90910180546001600160a01b03191684179055513392917f3147867c59d17e8fa9d522465651d44aae0a9e38f902f3475b97e58072f0ed4c91a350565b600380546001600160a01b0319166001600160a01b0383161790556040517f048368388f801041f7690185c4e28b6f3505c740c47be8ac104b55df666bfc8490620001c390839062000738565b60405180910390a160035460408051600481526024810182526020810180516001600160e01b03166370e39c9560e11b17905290516000926060926001600160a01b0390911691620002169190620006fc565b600060405180830381855af49150503d806000811462000253576040519150601f19603f3d011682016040523d82523d6000602084013e62000258565b606091505b5091509150816200026b57805160208201fd5b62000275620004af565b505050565b6001600160a01b03821660009081526001602052604090205460ff16620002b557620002b56200009b836200058a60201b62000c281760201c565b6002548110620002df57620002df6200009b82600280549050620005d260201b62000cab1760201c565b816001600160a01b031660028281548110620002f757fe5b6000918252602090912001546001600160a01b0316146200035057620003506200009b600283815481106200032857fe5b600091825260209182902001546001600160a01b031690859062000d1e62000617821b17901c565b6001600160a01b0382166000908152600160205260409020805460ff191690556002805460001981019081106200038357fe5b600091825260209091200154600280546001600160a01b039092169183908110620003aa57fe5b9060005260206000200160006101000a8154816001600160a01b0302191690836001600160a01b031602179055506002805480620003e457fe5b600082815260208120820160001990810180546001600160a01b031916905590910190915560405133916001600160a01b038516917f1f32c1b084e2de0713b8fb16bd46bb9df710a3dbeae2f3ca93af46e016dcc6b09190a35050565b60408051808201909152600481526315d953f960e21b602082015290565b805160208201fd5b604080516001600160a01b0383166024808301919091528251808303909101815260449091019091526020810180516001600160e01b03166306f0b78d60e51b179052919050565b60105462069780811080620004c657506276a70081115b15620004e757620004e76200009b60046200066860201b62000daa1760201c565b60135463ffffffff6401000000008204811691168110806200050d575063ffffffff8116155b156200052e576200052e6200009b60006200066860201b62000daa1760201c565b601154620f424063ffffffff90911611156200055f576200055f6200009b60016200066860201b62000daa1760201c565b600260125410156200058657620005866200009b60036200066860201b62000daa1760201c565b5050565b604080516001600160a01b0383166024808301919091528251808303909101815260449091019091526020810180516001600160e01b03166375a8845160e11b179052919050565b604080516024810184905260448082018490528251808303909101815260649091019091526020810180516001600160e01b031663e9f8377160e01b17905292915050565b604080516001600160a01b03808516602483015283166044808301919091528251808303909101815260649091019091526020810180516001600160e01b031663140a84db60e01b17905292915050565b606063fc45bd1160e01b8260048111156200067f57fe5b604051602401808260ff168152602001915050604051602081830303815290604052906001600160e01b0319166020820180516001600160e01b0383818316178352505050509050919050565b600060208284031215620006de578081fd5b81516001600160a01b0381168114620006f5578182fd5b9392505050565b60008251815b818110156200071e576020818601810151858301520162000702565b818111156200072d5782828501525b509190910192915050565b6001600160a01b0391909116815260200190565b6118a8806200075c6000396000f3fe6080604052600436106101a55760003560e01c8063856a65eb116100e1578063c6f3a4271161008a578063e0ee036e11610064578063e0ee036e14610532578063e8eeb3f814610547578063ee99205c1461055c578063f2fde38b1461057157610262565b8063c6f3a427146104e6578063d14dc231146104fb578063d39de6e91461051057610262565b8063a26171e2116100bb578063a26171e214610491578063b9181611146104a6578063c18c9141146104c657610262565b8063856a65eb1461042f5780638da5cb5b1461045c5780639ad267441461047157610262565b8063587da0231161014e578063707129391161012857806370712939146103b857806376671808146103d85780637fa140c7146103ed578063816667961461040d57610262565b8063587da02314610361578063634038011461038357806366615d561461039857610262565b806342f1181e1161017f57806342f1181e146102e7578063494503d414610307578063540c2d531461033457610262565b80632a94c2791461026757806337b006a61461029f57806338229d93146102b657610262565b366102625760035473ffffffffffffffffffffffffffffffffffffffff16806101d8576101d86101d3610591565b6105c8565b600060608273ffffffffffffffffffffffffffffffffffffffff1660003660405161020492919061161f565b600060405180830381855af49150503d806000811461023f576040519150601f19603f3d011682016040523d82523d6000602084013e610244565b606091505b5091509150816000811461025a57815182602001f35b815182602001fd5b600080fd5b34801561027357600080fd5b506102876102823660046115fe565b6105d0565b6040516102969392919061178e565b60405180910390f35b3480156102ab57600080fd5b506102b46105fc565b005b3480156102c257600080fd5b506102d66102d13660046115e6565b610657565b6040516102969594939291906117a4565b3480156102f357600080fd5b506102b461030236600461152d565b610686565b34801561031357600080fd5b506103276103223660046115e6565b61069a565b604051610296919061164b565b34801561034057600080fd5b5061035461034f36600461152d565b6106d1565b604051610296919061177a565b34801561036d57600080fd5b506103766106e6565b6040516102969190611785565b34801561038f57600080fd5b506103766106ec565b3480156103a457600080fd5b506102b46103b336600461152d565b6106f2565b3480156103c457600080fd5b506102b46103d336600461152d565b610703565b3480156103e457600080fd5b506103766107b8565b3480156103f957600080fd5b5061037661040836600461152d565b6107be565b34801561041957600080fd5b506104226107d0565b60405161029691906117c7565b34801561043b57600080fd5b5061044f61044a366004611577565b6107dc565b60405161029691906116c6565b34801561046857600080fd5b50610327610925565b34801561047d57600080fd5b506102b461048c36600461154e565b610941565b34801561049d57600080fd5b50610376610953565b3480156104b257600080fd5b506103546104c136600461152d565b610959565b3480156104d257600080fd5b506103766104e13660046115e6565b61096e565b3480156104f257600080fd5b506102b4610980565b34801561050757600080fd5b50610376610a19565b34801561051c57600080fd5b50610525610a1f565b604051610296919061166c565b34801561053e57600080fd5b50610422610a8e565b34801561055357600080fd5b50610422610a9a565b34801561056857600080fd5b50610327610aae565b34801561057d57600080fd5b506102b461058c36600461152d565b610aca565b60408051808201909152600481527f6eff828500000000000000000000000000000000000000000000000000000000602082015290565b805160208201fd5b601460209081526000928352604080842090915290825290208054600182015460029092015490919083565b610604610e50565b600380547fffffffffffffffffffffffff00000000000000000000000000000000000000001690556040517f6caedcb22a5c22c8ebd0caf751fec1228a6e006e6ee37169321e02d31ecc818390600090a1565b601560205260009081526040902080546001820154600283015460038401546004909401549293919290919085565b61068e610e75565b61069781610ebc565b50565b600281815481106106aa57600080fd5b60009182526020909120015473ffffffffffffffffffffffffffffffffffffffff16905081565b600f6020526000908152604090205460ff1681565b600c5481565b60105481565b6106fa610e50565b61069781610fed565b61070b610e75565b73ffffffffffffffffffffffffffffffffffffffff811660009081526001602052604090205460ff16610744576107446101d382610c28565b60005b6002548110156107b4578173ffffffffffffffffffffffffffffffffffffffff166002828154811061077557fe5b60009182526020909120015473ffffffffffffffffffffffffffffffffffffffff1614156107ac576107a78282611148565b6107b4565b600101610747565b5050565b600b5481565b60086020526000908152604090205481565b60135463ffffffff1681565b6060600081838067ffffffffffffffff811180156107f957600080fd5b5060405190808252806020026020018201604052801561082d57816020015b60608152602001906001900390816108185790505b5060035490945073ffffffffffffffffffffffffffffffffffffffff168061085a5761085a6101d3610591565b60005b82811461091a578173ffffffffffffffffffffffffffffffffffffffff1688888381811061088757fe5b905060200281019061089991906117d8565b6040516108a792919061161f565b600060405180830381855af49150503d80600081146108e2576040519150601f19603f3d011682016040523d82523d6000602084013e6108e7565b606091505b509095509350846108fa57835184602001fd5b8386828151811061090757fe5b602090810291909101015260010161085d565b505050505092915050565b60005473ffffffffffffffffffffffffffffffffffffffff1681565b610949610e75565b6107b48282611148565b60125481565b60016020526000908152604090205460ff1681565b600a6020526000908152604090205481565b6010546206978081108061099657506276a70081115b156109a8576109a86101d36004610daa565b60135463ffffffff6401000000008204811691168110806109cd575063ffffffff8116155b156109df576109df6101d36000610daa565b601154620f424063ffffffff9091161115610a0157610a016101d36001610daa565b600260125410156107b4576107b46101d36003610daa565b60165481565b60606002805480602002602001604051908101604052809291908181526020018280548015610a8457602002820191906000526020600020905b815473ffffffffffffffffffffffffffffffffffffffff168152600190910190602001808311610a59575b5050505050905090565b60115463ffffffff1681565b601354640100000000900463ffffffff1681565b60035473ffffffffffffffffffffffffffffffffffffffff1681565b610ad2610e75565b73ffffffffffffffffffffffffffffffffffffffff8116610afd57610af86101d36113c3565b610697565b600080547fffffffffffffffffffffffff00000000000000000000000000000000000000001673ffffffffffffffffffffffffffffffffffffffff83169081178255604051909133917f8be0079c531659141344cd1fd0a4f28419497f9722a3daafe3b4186f6b6457e09190a350565b60408051808201909152600481527f57654fe400000000000000000000000000000000000000000000000000000000602082015290565b6040805173ffffffffffffffffffffffffffffffffffffffff83166024808301919091528251808303909101815260449091019091526020810180517bffffffffffffffffffffffffffffffffffffffffffffffffffffffff167fde16f1a0000000000000000000000000000000000000000000000000000000001790525b919050565b6040805173ffffffffffffffffffffffffffffffffffffffff83166024808301919091528251808303909101815260449091019091526020810180517bffffffffffffffffffffffffffffffffffffffffffffffffffffffff167feb5108a200000000000000000000000000000000000000000000000000000000179052919050565b604080516024810184905260448082018490528251808303909101815260649091019091526020810180517bffffffffffffffffffffffffffffffffffffffffffffffffffffffff167fe9f837710000000000000000000000000000000000000000000000000000000017905292915050565b6040805173ffffffffffffffffffffffffffffffffffffffff808516602483015283166044808301919091528251808303909101815260649091019091526020810180517bffffffffffffffffffffffffffffffffffffffffffffffffffffffff167f140a84db0000000000000000000000000000000000000000000000000000000017905292915050565b60607ffc45bd1100000000000000000000000000000000000000000000000000000000826004811115610dd957fe5b604051602401808260ff168152602001915050604051602081830303815290604052907bffffffffffffffffffffffffffffffffffffffffffffffffffffffff19166020820180517bffffffffffffffffffffffffffffffffffffffffffffffffffffffff83818316178352505050509050919050565b3360009081526001602052604090205460ff16610e7357610e736101d3336113fa565b565b60005473ffffffffffffffffffffffffffffffffffffffff163314610e7357600054610e73906101d390339073ffffffffffffffffffffffffffffffffffffffff1661147d565b73ffffffffffffffffffffffffffffffffffffffff8116610ee257610ee26101d3610b6d565b73ffffffffffffffffffffffffffffffffffffffff811660009081526001602052604090205460ff1615610f1c57610f1c6101d382610ba4565b73ffffffffffffffffffffffffffffffffffffffff8116600081815260016020819052604080832080547fffffffffffffffffffffffffffffffffffffffffffffffffffffffffffffff00168317905560028054928301815583527f405787fa12a823e0f2b7631cc41b3ba8828b3321ca811111fa75cd3aa3bb5ace90910180547fffffffffffffffffffffffff00000000000000000000000000000000000000001684179055513392917f3147867c59d17e8fa9d522465651d44aae0a9e38f902f3475b97e58072f0ed4c91a350565b600380547fffffffffffffffffffffffff00000000000000000000000000000000000000001673ffffffffffffffffffffffffffffffffffffffff83161790556040517f048368388f801041f7690185c4e28b6f3505c740c47be8ac104b55df666bfc849061105d90839061164b565b60405180910390a160035460408051600481526024810182526020810180517bffffffffffffffffffffffffffffffffffffffffffffffffffffffff167fe1c7392a00000000000000000000000000000000000000000000000000000000179052905160009260609273ffffffffffffffffffffffffffffffffffffffff909116916110e9919061162f565b600060405180830381855af49150503d8060008114611124576040519150601f19603f3d011682016040523d82523d6000602084013e611129565b606091505b50915091508161113b57805160208201fd5b611143610980565b505050565b73ffffffffffffffffffffffffffffffffffffffff821660009081526001602052604090205460ff16611181576111816101d383610c28565b600254811061119c5761119c6101d382600280549050610cab565b8173ffffffffffffffffffffffffffffffffffffffff16600282815481106111c057fe5b60009182526020909120015473ffffffffffffffffffffffffffffffffffffffff1614611222576112226101d3600283815481106111fa57fe5b60009182526020909120015473ffffffffffffffffffffffffffffffffffffffff1684610d1e565b73ffffffffffffffffffffffffffffffffffffffff8216600090815260016020526040902080547fffffffffffffffffffffffffffffffffffffffffffffffffffffffffffffff00169055600280547fffffffffffffffffffffffffffffffffffffffffffffffffffffffffffffffff810190811061129d57fe5b6000918252602090912001546002805473ffffffffffffffffffffffffffffffffffffffff90921691839081106112d057fe5b9060005260206000200160006101000a81548173ffffffffffffffffffffffffffffffffffffffff021916908373ffffffffffffffffffffffffffffffffffffffff160217905550600280548061132357fe5b60008281526020812082017fffffffffffffffffffffffffffffffffffffffffffffffffffffffffffffffff90810180547fffffffffffffffffffffffff0000000000000000000000000000000000000000169055909101909155604051339173ffffffffffffffffffffffffffffffffffffffff8516917f1f32c1b084e2de0713b8fb16bd46bb9df710a3dbeae2f3ca93af46e016dcc6b09190a35050565b60408051808201909152600481527fe69edc3e00000000000000000000000000000000000000000000000000000000602082015290565b6040805173ffffffffffffffffffffffffffffffffffffffff83166024808301919091528251808303909101815260449091019091526020810180517bffffffffffffffffffffffffffffffffffffffffffffffffffffffff167fb65a25b900000000000000000000000000000000000000000000000000000000179052919050565b6040805173ffffffffffffffffffffffffffffffffffffffff808516602483015283166044808301919091528251808303909101815260649091019091526020810180517bffffffffffffffffffffffffffffffffffffffffffffffffffffffff167f1de45ad10000000000000000000000000000000000000000000000000000000017905292915050565b803573ffffffffffffffffffffffffffffffffffffffff81168114610c2357600080fd5b60006020828403121561153e578081fd5b61154782611509565b9392505050565b60008060408385031215611560578081fd5b61156983611509565b946020939093013593505050565b60008060208385031215611589578182fd5b823567ffffffffffffffff808211156115a0578384fd5b818501915085601f8301126115b3578384fd5b8135818111156115c1578485fd5b86602080830285010111156115d4578485fd5b60209290920196919550909350505050565b6000602082840312156115f7578081fd5b5035919050565b60008060408385031215611610578182fd5b50508035926020909101359150565b6000828483379101908152919050565b60008251611641818460208701611842565b9190910192915050565b73ffffffffffffffffffffffffffffffffffffffff91909116815260200190565b6020808252825182820181905260009190848201906040850190845b818110156116ba57835173ffffffffffffffffffffffffffffffffffffffff1683529284019291840191600101611688565b50909695505050505050565b6000602080830181845280855180835260408601915060408482028701019250838701855b8281101561176d577fffffffffffffffffffffffffffffffffffffffffffffffffffffffffffffffc088860301845281518051808752611730818989018a8501611842565b601f017fffffffffffffffffffffffffffffffffffffffffffffffffffffffffffffffe016959095018601945092850192908501906001016116eb565b5092979650505050505050565b901515815260200190565b90815260200190565b9283526020830191909152604082015260600190565b948552602085019390935260408401919091526060830152608082015260a00190565b63ffffffff91909116815260200190565b60008083357fffffffffffffffffffffffffffffffffffffffffffffffffffffffffffffffe184360301811261180c578283fd5b83018035915067ffffffffffffffff821115611826578283fd5b60200191503681900382131561183b57600080fd5b9250929050565b60005b8381101561185d578181015183820152602001611845565b8381111561186c576000848401525b5050505056fea2646970667358221220563ae5d6596f47e838b7b13cc6bdb792a3b1382edfc3887e3f224f76f417b44d64736f6c63430007040033",
				"opcodes": "PUSH1 0x80 PUSH1 0x40 MSTORE CALLVALUE DUP1 ISZERO PUSH3 0x11 JUMPI PUSH1 0x0 DUP1 REVERT JUMPDEST POP PUSH1 0x40 MLOAD PUSH3 0x2004 CODESIZE SUB DUP1 PUSH3 0x2004 DUP4 CODECOPY DUP2 ADD PUSH1 0x40 DUP2 SWAP1 MSTORE PUSH3 0x34 SWAP2 PUSH3 0x6CC JUMP JUMPDEST PUSH1 0x0 DUP1 SLOAD PUSH1 0x1 PUSH1 0x1 PUSH1 0xA0 SHL SUB NOT AND CALLER SWAP1 DUP2 OR SWAP1 SWAP2 SSTORE PUSH3 0x54 SWAP1 PUSH3 0x73 JUMP JUMPDEST PUSH3 0x5F DUP2 PUSH3 0x176 JUMP JUMPDEST PUSH3 0x6C CALLER PUSH1 0x0 PUSH3 0x27A JUMP JUMPDEST POP PUSH3 0x74C JUMP JUMPDEST PUSH1 0x1 PUSH1 0x1 PUSH1 0xA0 SHL SUB DUP2 AND PUSH3 0xAC JUMPI PUSH3 0xAC PUSH3 0x9B PUSH3 0x441 PUSH1 0x20 SHL PUSH3 0xB6D OR PUSH1 0x20 SHR JUMP JUMPDEST PUSH3 0x45F PUSH1 0x20 SHL PUSH3 0x5C8 OR PUSH1 0x20 SHR JUMP JUMPDEST PUSH1 0x1 PUSH1 0x1 PUSH1 0xA0 SHL SUB DUP2 AND PUSH1 0x0 SWAP1 DUP2 MSTORE PUSH1 0x1 PUSH1 0x20 MSTORE PUSH1 0x40 SWAP1 KECCAK256 SLOAD PUSH1 0xFF AND ISZERO PUSH3 0xE8 JUMPI PUSH3 0xE8 PUSH3 0x9B DUP3 PUSH3 0x467 PUSH1 0x20 SHL PUSH3 0xBA4 OR PUSH1 0x20 SHR JUMP JUMPDEST PUSH1 0x1 PUSH1 0x1 PUSH1 0xA0 SHL SUB DUP2 AND PUSH1 0x0 DUP2 DUP2 MSTORE PUSH1 0x1 PUSH1 0x20 DUP2 SWAP1 MSTORE PUSH1 0x40 DUP1 DUP4 KECCAK256 DUP1 SLOAD PUSH1 0xFF NOT AND DUP4 OR SWAP1 SSTORE PUSH1 0x2 DUP1 SLOAD SWAP3 DUP4 ADD DUP2 SSTORE DUP4 MSTORE PUSH32 0x405787FA12A823E0F2B7631CC41B3BA8828B3321CA811111FA75CD3AA3BB5ACE SWAP1 SWAP2 ADD DUP1 SLOAD PUSH1 0x1 PUSH1 0x1 PUSH1 0xA0 SHL SUB NOT AND DUP5 OR SWAP1 SSTORE MLOAD CALLER SWAP3 SWAP2 PUSH32 0x3147867C59D17E8FA9D522465651D44AAE0A9E38F902F3475B97E58072F0ED4C SWAP2 LOG3 POP JUMP JUMPDEST PUSH1 0x3 DUP1 SLOAD PUSH1 0x1 PUSH1 0x1 PUSH1 0xA0 SHL SUB NOT AND PUSH1 0x1 PUSH1 0x1 PUSH1 0xA0 SHL SUB DUP4 AND OR SWAP1 SSTORE PUSH1 0x40 MLOAD PUSH32 0x48368388F801041F7690185C4E28B6F3505C740C47BE8AC104B55DF666BFC84 SWAP1 PUSH3 0x1C3 SWAP1 DUP4 SWAP1 PUSH3 0x738 JUMP JUMPDEST PUSH1 0x40 MLOAD DUP1 SWAP2 SUB SWAP1 LOG1 PUSH1 0x3 SLOAD PUSH1 0x40 DUP1 MLOAD PUSH1 0x4 DUP2 MSTORE PUSH1 0x24 DUP2 ADD DUP3 MSTORE PUSH1 0x20 DUP2 ADD DUP1 MLOAD PUSH1 0x1 PUSH1 0x1 PUSH1 0xE0 SHL SUB AND PUSH4 0x70E39C95 PUSH1 0xE1 SHL OR SWAP1 MSTORE SWAP1 MLOAD PUSH1 0x0 SWAP3 PUSH1 0x60 SWAP3 PUSH1 0x1 PUSH1 0x1 PUSH1 0xA0 SHL SUB SWAP1 SWAP2 AND SWAP2 PUSH3 0x216 SWAP2 SWAP1 PUSH3 0x6FC JUMP JUMPDEST PUSH1 0x0 PUSH1 0x40 MLOAD DUP1 DUP4 SUB DUP2 DUP6 GAS DELEGATECALL SWAP2 POP POP RETURNDATASIZE DUP1 PUSH1 0x0 DUP2 EQ PUSH3 0x253 JUMPI PUSH1 0x40 MLOAD SWAP2 POP PUSH1 0x1F NOT PUSH1 0x3F RETURNDATASIZE ADD AND DUP3 ADD PUSH1 0x40 MSTORE RETURNDATASIZE DUP3 MSTORE RETURNDATASIZE PUSH1 0x0 PUSH1 0x20 DUP5 ADD RETURNDATACOPY PUSH3 0x258 JUMP JUMPDEST PUSH1 0x60 SWAP2 POP JUMPDEST POP SWAP2 POP SWAP2 POP DUP2 PUSH3 0x26B JUMPI DUP1 MLOAD PUSH1 0x20 DUP3 ADD REVERT JUMPDEST PUSH3 0x275 PUSH3 0x4AF JUMP JUMPDEST POP POP POP JUMP JUMPDEST PUSH1 0x1 PUSH1 0x1 PUSH1 0xA0 SHL SUB DUP3 AND PUSH1 0x0 SWAP1 DUP2 MSTORE PUSH1 0x1 PUSH1 0x20 MSTORE PUSH1 0x40 SWAP1 KECCAK256 SLOAD PUSH1 0xFF AND PUSH3 0x2B5 JUMPI PUSH3 0x2B5 PUSH3 0x9B DUP4 PUSH3 0x58A PUSH1 0x20 SHL PUSH3 0xC28 OR PUSH1 0x20 SHR JUMP JUMPDEST PUSH1 0x2 SLOAD DUP2 LT PUSH3 0x2DF JUMPI PUSH3 0x2DF PUSH3 0x9B DUP3 PUSH1 0x2 DUP1 SLOAD SWAP1 POP PUSH3 0x5D2 PUSH1 0x20 SHL PUSH3 0xCAB OR PUSH1 0x20 SHR JUMP JUMPDEST DUP2 PUSH1 0x1 PUSH1 0x1 PUSH1 0xA0 SHL SUB AND PUSH1 0x2 DUP3 DUP2 SLOAD DUP2 LT PUSH3 0x2F7 JUMPI INVALID JUMPDEST PUSH1 0x0 SWAP2 DUP3 MSTORE PUSH1 0x20 SWAP1 SWAP2 KECCAK256 ADD SLOAD PUSH1 0x1 PUSH1 0x1 PUSH1 0xA0 SHL SUB AND EQ PUSH3 0x350 JUMPI PUSH3 0x350 PUSH3 0x9B PUSH1 0x2 DUP4 DUP2 SLOAD DUP2 LT PUSH3 0x328 JUMPI INVALID JUMPDEST PUSH1 0x0 SWAP2 DUP3 MSTORE PUSH1 0x20 SWAP2 DUP3 SWAP1 KECCAK256 ADD SLOAD PUSH1 0x1 PUSH1 0x1 PUSH1 0xA0 SHL SUB AND SWAP1 DUP6 SWAP1 PUSH3 0xD1E PUSH3 0x617 DUP3 SHL OR SWAP1 SHR JUMP JUMPDEST PUSH1 0x1 PUSH1 0x1 PUSH1 0xA0 SHL SUB DUP3 AND PUSH1 0x0 SWAP1 DUP2 MSTORE PUSH1 0x1 PUSH1 0x20 MSTORE PUSH1 0x40 SWAP1 KECCAK256 DUP1 SLOAD PUSH1 0xFF NOT AND SWAP1 SSTORE PUSH1 0x2 DUP1 SLOAD PUSH1 0x0 NOT DUP2 ADD SWAP1 DUP2 LT PUSH3 0x383 JUMPI INVALID JUMPDEST PUSH1 0x0 SWAP2 DUP3 MSTORE PUSH1 0x20 SWAP1 SWAP2 KECCAK256 ADD SLOAD PUSH1 0x2 DUP1 SLOAD PUSH1 0x1 PUSH1 0x1 PUSH1 0xA0 SHL SUB SWAP1 SWAP3 AND SWAP2 DUP4 SWAP1 DUP2 LT PUSH3 0x3AA JUMPI INVALID JUMPDEST SWAP1 PUSH1 0x0 MSTORE PUSH1 0x20 PUSH1 0x0 KECCAK256 ADD PUSH1 0x0 PUSH2 0x100 EXP DUP2 SLOAD DUP2 PUSH1 0x1 PUSH1 0x1 PUSH1 0xA0 SHL SUB MUL NOT AND SWAP1 DUP4 PUSH1 0x1 PUSH1 0x1 PUSH1 0xA0 SHL SUB AND MUL OR SWAP1 SSTORE POP PUSH1 0x2 DUP1 SLOAD DUP1 PUSH3 0x3E4 JUMPI INVALID JUMPDEST PUSH1 0x0 DUP3 DUP2 MSTORE PUSH1 0x20 DUP2 KECCAK256 DUP3 ADD PUSH1 0x0 NOT SWAP1 DUP2 ADD DUP1 SLOAD PUSH1 0x1 PUSH1 0x1 PUSH1 0xA0 SHL SUB NOT AND SWAP1 SSTORE SWAP1 SWAP2 ADD SWAP1 SWAP2 SSTORE PUSH1 0x40 MLOAD CALLER SWAP2 PUSH1 0x1 PUSH1 0x1 PUSH1 0xA0 SHL SUB DUP6 AND SWAP2 PUSH32 0x1F32C1B084E2DE0713B8FB16BD46BB9DF710A3DBEAE2F3CA93AF46E016DCC6B0 SWAP2 SWAP1 LOG3 POP POP JUMP JUMPDEST PUSH1 0x40 DUP1 MLOAD DUP1 DUP3 ADD SWAP1 SWAP2 MSTORE PUSH1 0x4 DUP2 MSTORE PUSH4 0x15D953F9 PUSH1 0xE2 SHL PUSH1 0x20 DUP3 ADD MSTORE SWAP1 JUMP JUMPDEST DUP1 MLOAD PUSH1 0x20 DUP3 ADD REVERT JUMPDEST PUSH1 0x40 DUP1 MLOAD PUSH1 0x1 PUSH1 0x1 PUSH1 0xA0 SHL SUB DUP4 AND PUSH1 0x24 DUP1 DUP4 ADD SWAP2 SWAP1 SWAP2 MSTORE DUP3 MLOAD DUP1 DUP4 SUB SWAP1 SWAP2 ADD DUP2 MSTORE PUSH1 0x44 SWAP1 SWAP2 ADD SWAP1 SWAP2 MSTORE PUSH1 0x20 DUP2 ADD DUP1 MLOAD PUSH1 0x1 PUSH1 0x1 PUSH1 0xE0 SHL SUB AND PUSH4 0x6F0B78D PUSH1 0xE5 SHL OR SWAP1 MSTORE SWAP2 SWAP1 POP JUMP JUMPDEST PUSH1 0x10 SLOAD PUSH3 0x69780 DUP2 LT DUP1 PUSH3 0x4C6 JUMPI POP PUSH3 0x76A700 DUP2 GT JUMPDEST ISZERO PUSH3 0x4E7 JUMPI PUSH3 0x4E7 PUSH3 0x9B PUSH1 0x4 PUSH3 0x668 PUSH1 0x20 SHL PUSH3 0xDAA OR PUSH1 0x20 SHR JUMP JUMPDEST PUSH1 0x13 SLOAD PUSH4 0xFFFFFFFF PUSH5 0x100000000 DUP3 DIV DUP2 AND SWAP2 AND DUP2 LT DUP1 PUSH3 0x50D JUMPI POP PUSH4 0xFFFFFFFF DUP2 AND ISZERO JUMPDEST ISZERO PUSH3 0x52E JUMPI PUSH3 0x52E PUSH3 0x9B PUSH1 0x0 PUSH3 0x668 PUSH1 0x20 SHL PUSH3 0xDAA OR PUSH1 0x20 SHR JUMP JUMPDEST PUSH1 0x11 SLOAD PUSH3 0xF4240 PUSH4 0xFFFFFFFF SWAP1 SWAP2 AND GT ISZERO PUSH3 0x55F JUMPI PUSH3 0x55F PUSH3 0x9B PUSH1 0x1 PUSH3 0x668 PUSH1 0x20 SHL PUSH3 0xDAA OR PUSH1 0x20 SHR JUMP JUMPDEST PUSH1 0x2 PUSH1 0x12 SLOAD LT ISZERO PUSH3 0x586 JUMPI PUSH3 0x586 PUSH3 0x9B PUSH1 0x3 PUSH3 0x668 PUSH1 0x20 SHL PUSH3 0xDAA OR PUSH1 0x20 SHR JUMP JUMPDEST POP POP JUMP JUMPDEST PUSH1 0x40 DUP1 MLOAD PUSH1 0x1 PUSH1 0x1 PUSH1 0xA0 SHL SUB DUP4 AND PUSH1 0x24 DUP1 DUP4 ADD SWAP2 SWAP1 SWAP2 MSTORE DUP3 MLOAD DUP1 DUP4 SUB SWAP1 SWAP2 ADD DUP2 MSTORE PUSH1 0x44 SWAP1 SWAP2 ADD SWAP1 SWAP2 MSTORE PUSH1 0x20 DUP2 ADD DUP1 MLOAD PUSH1 0x1 PUSH1 0x1 PUSH1 0xE0 SHL SUB AND PUSH4 0x75A88451 PUSH1 0xE1 SHL OR SWAP1 MSTORE SWAP2 SWAP1 POP JUMP JUMPDEST PUSH1 0x40 DUP1 MLOAD PUSH1 0x24 DUP2 ADD DUP5 SWAP1 MSTORE PUSH1 0x44 DUP1 DUP3 ADD DUP5 SWAP1 MSTORE DUP3 MLOAD DUP1 DUP4 SUB SWAP1 SWAP2 ADD DUP2 MSTORE PUSH1 0x64 SWAP1 SWAP2 ADD SWAP1 SWAP2 MSTORE PUSH1 0x20 DUP2 ADD DUP1 MLOAD PUSH1 0x1 PUSH1 0x1 PUSH1 0xE0 SHL SUB AND PUSH4 0xE9F83771 PUSH1 0xE0 SHL OR SWAP1 MSTORE SWAP3 SWAP2 POP POP JUMP JUMPDEST PUSH1 0x40 DUP1 MLOAD PUSH1 0x1 PUSH1 0x1 PUSH1 0xA0 SHL SUB DUP1 DUP6 AND PUSH1 0x24 DUP4 ADD MSTORE DUP4 AND PUSH1 0x44 DUP1 DUP4 ADD SWAP2 SWAP1 SWAP2 MSTORE DUP3 MLOAD DUP1 DUP4 SUB SWAP1 SWAP2 ADD DUP2 MSTORE PUSH1 0x64 SWAP1 SWAP2 ADD SWAP1 SWAP2 MSTORE PUSH1 0x20 DUP2 ADD DUP1 MLOAD PUSH1 0x1 PUSH1 0x1 PUSH1 0xE0 SHL SUB AND PUSH4 0x140A84DB PUSH1 0xE0 SHL OR SWAP1 MSTORE SWAP3 SWAP2 POP POP JUMP JUMPDEST PUSH1 0x60 PUSH4 0xFC45BD11 PUSH1 0xE0 SHL DUP3 PUSH1 0x4 DUP2 GT ISZERO PUSH3 0x67F JUMPI INVALID JUMPDEST PUSH1 0x40 MLOAD PUSH1 0x24 ADD DUP1 DUP3 PUSH1 0xFF AND DUP2 MSTORE PUSH1 0x20 ADD SWAP2 POP POP PUSH1 0x40 MLOAD PUSH1 0x20 DUP2 DUP4 SUB SUB DUP2 MSTORE SWAP1 PUSH1 0x40 MSTORE SWAP1 PUSH1 0x1 PUSH1 0x1 PUSH1 0xE0 SHL SUB NOT AND PUSH1 0x20 DUP3 ADD DUP1 MLOAD PUSH1 0x1 PUSH1 0x1 PUSH1 0xE0 SHL SUB DUP4 DUP2 DUP4 AND OR DUP4 MSTORE POP POP POP POP SWAP1 POP SWAP2 SWAP1 POP JUMP JUMPDEST PUSH1 0x0 PUSH1 0x20 DUP3 DUP5 SUB SLT ISZERO PUSH3 0x6DE JUMPI DUP1 DUP2 REVERT JUMPDEST DUP2 MLOAD PUSH1 0x1 PUSH1 0x1 PUSH1 0xA0 SHL SUB DUP2 AND DUP2 EQ PUSH3 0x6F5 JUMPI DUP2 DUP3 REVERT JUMPDEST SWAP4 SWAP3 POP POP POP JUMP JUMPDEST PUSH1 0x0 DUP3 MLOAD DUP2 JUMPDEST DUP2 DUP2 LT ISZERO PUSH3 0x71E JUMPI PUSH1 0x20 DUP2 DUP7 ADD DUP2 ADD MLOAD DUP6 DUP4 ADD MSTORE ADD PUSH3 0x702 JUMP JUMPDEST DUP2 DUP2 GT ISZERO PUSH3 0x72D JUMPI DUP3 DUP3 DUP6 ADD MSTORE JUMPDEST POP SWAP2 SWAP1 SWAP2 ADD SWAP3 SWAP2 POP POP JUMP JUMPDEST PUSH1 0x1 PUSH1 0x1 PUSH1 0xA0 SHL SUB SWAP2 SWAP1 SWAP2 AND DUP2 MSTORE PUSH1 0x20 ADD SWAP1 JUMP JUMPDEST PUSH2 0x18A8 DUP1 PUSH3 0x75C PUSH1 0x0 CODECOPY PUSH1 0x0 RETURN INVALID PUSH1 0x80 PUSH1 0x40 MSTORE PUSH1 0x4 CALLDATASIZE LT PUSH2 0x1A5 JUMPI PUSH1 0x0 CALLDATALOAD PUSH1 0xE0 SHR DUP1 PUSH4 0x856A65EB GT PUSH2 0xE1 JUMPI DUP1 PUSH4 0xC6F3A427 GT PUSH2 0x8A JUMPI DUP1 PUSH4 0xE0EE036E GT PUSH2 0x64 JUMPI DUP1 PUSH4 0xE0EE036E EQ PUSH2 0x532 JUMPI DUP1 PUSH4 0xE8EEB3F8 EQ PUSH2 0x547 JUMPI DUP1 PUSH4 0xEE99205C EQ PUSH2 0x55C JUMPI DUP1 PUSH4 0xF2FDE38B EQ PUSH2 0x571 JUMPI PUSH2 0x262 JUMP JUMPDEST DUP1 PUSH4 0xC6F3A427 EQ PUSH2 0x4E6 JUMPI DUP1 PUSH4 0xD14DC231 EQ PUSH2 0x4FB JUMPI DUP1 PUSH4 0xD39DE6E9 EQ PUSH2 0x510 JUMPI PUSH2 0x262 JUMP JUMPDEST DUP1 PUSH4 0xA26171E2 GT PUSH2 0xBB JUMPI DUP1 PUSH4 0xA26171E2 EQ PUSH2 0x491 JUMPI DUP1 PUSH4 0xB9181611 EQ PUSH2 0x4A6 JUMPI DUP1 PUSH4 0xC18C9141 EQ PUSH2 0x4C6 JUMPI PUSH2 0x262 JUMP JUMPDEST DUP1 PUSH4 0x856A65EB EQ PUSH2 0x42F JUMPI DUP1 PUSH4 0x8DA5CB5B EQ PUSH2 0x45C JUMPI DUP1 PUSH4 0x9AD26744 EQ PUSH2 0x471 JUMPI PUSH2 0x262 JUMP JUMPDEST DUP1 PUSH4 0x587DA023 GT PUSH2 0x14E JUMPI DUP1 PUSH4 0x70712939 GT PUSH2 0x128 JUMPI DUP1 PUSH4 0x70712939 EQ PUSH2 0x3B8 JUMPI DUP1 PUSH4 0x76671808 EQ PUSH2 0x3D8 JUMPI DUP1 PUSH4 0x7FA140C7 EQ PUSH2 0x3ED JUMPI DUP1 PUSH4 0x81666796 EQ PUSH2 0x40D JUMPI PUSH2 0x262 JUMP JUMPDEST DUP1 PUSH4 0x587DA023 EQ PUSH2 0x361 JUMPI DUP1 PUSH4 0x63403801 EQ PUSH2 0x383 JUMPI DUP1 PUSH4 0x66615D56 EQ PUSH2 0x398 JUMPI PUSH2 0x262 JUMP JUMPDEST DUP1 PUSH4 0x42F1181E GT PUSH2 0x17F JUMPI DUP1 PUSH4 0x42F1181E EQ PUSH2 0x2E7 JUMPI DUP1 PUSH4 0x494503D4 EQ PUSH2 0x307 JUMPI DUP1 PUSH4 0x540C2D53 EQ PUSH2 0x334 JUMPI PUSH2 0x262 JUMP JUMPDEST DUP1 PUSH4 0x2A94C279 EQ PUSH2 0x267 JUMPI DUP1 PUSH4 0x37B006A6 EQ PUSH2 0x29F JUMPI DUP1 PUSH4 0x38229D93 EQ PUSH2 0x2B6 JUMPI PUSH2 0x262 JUMP JUMPDEST CALLDATASIZE PUSH2 0x262 JUMPI PUSH1 0x3 SLOAD PUSH20 0xFFFFFFFFFFFFFFFFFFFFFFFFFFFFFFFFFFFFFFFF AND DUP1 PUSH2 0x1D8 JUMPI PUSH2 0x1D8 PUSH2 0x1D3 PUSH2 0x591 JUMP JUMPDEST PUSH2 0x5C8 JUMP JUMPDEST PUSH1 0x0 PUSH1 0x60 DUP3 PUSH20 0xFFFFFFFFFFFFFFFFFFFFFFFFFFFFFFFFFFFFFFFF AND PUSH1 0x0 CALLDATASIZE PUSH1 0x40 MLOAD PUSH2 0x204 SWAP3 SWAP2 SWAP1 PUSH2 0x161F JUMP JUMPDEST PUSH1 0x0 PUSH1 0x40 MLOAD DUP1 DUP4 SUB DUP2 DUP6 GAS DELEGATECALL SWAP2 POP POP RETURNDATASIZE DUP1 PUSH1 0x0 DUP2 EQ PUSH2 0x23F JUMPI PUSH1 0x40 MLOAD SWAP2 POP PUSH1 0x1F NOT PUSH1 0x3F RETURNDATASIZE ADD AND DUP3 ADD PUSH1 0x40 MSTORE RETURNDATASIZE DUP3 MSTORE RETURNDATASIZE PUSH1 0x0 PUSH1 0x20 DUP5 ADD RETURNDATACOPY PUSH2 0x244 JUMP JUMPDEST PUSH1 0x60 SWAP2 POP JUMPDEST POP SWAP2 POP SWAP2 POP DUP2 PUSH1 0x0 DUP2 EQ PUSH2 0x25A JUMPI DUP2 MLOAD DUP3 PUSH1 0x20 ADD RETURN JUMPDEST DUP2 MLOAD DUP3 PUSH1 0x20 ADD REVERT JUMPDEST PUSH1 0x0 DUP1 REVERT JUMPDEST CALLVALUE DUP1 ISZERO PUSH2 0x273 JUMPI PUSH1 0x0 DUP1 REVERT JUMPDEST POP PUSH2 0x287 PUSH2 0x282 CALLDATASIZE PUSH1 0x4 PUSH2 0x15FE JUMP JUMPDEST PUSH2 0x5D0 JUMP JUMPDEST PUSH1 0x40 MLOAD PUSH2 0x296 SWAP4 SWAP3 SWAP2 SWAP1 PUSH2 0x178E JUMP JUMPDEST PUSH1 0x40 MLOAD DUP1 SWAP2 SUB SWAP1 RETURN JUMPDEST CALLVALUE DUP1 ISZERO PUSH2 0x2AB JUMPI PUSH1 0x0 DUP1 REVERT JUMPDEST POP PUSH2 0x2B4 PUSH2 0x5FC JUMP JUMPDEST STOP JUMPDEST CALLVALUE DUP1 ISZERO PUSH2 0x2C2 JUMPI PUSH1 0x0 DUP1 REVERT JUMPDEST POP PUSH2 0x2D6 PUSH2 0x2D1 CALLDATASIZE PUSH1 0x4 PUSH2 0x15E6 JUMP JUMPDEST PUSH2 0x657 JUMP JUMPDEST PUSH1 0x40 MLOAD PUSH2 0x296 SWAP6 SWAP5 SWAP4 SWAP3 SWAP2 SWAP1 PUSH2 0x17A4 JUMP JUMPDEST CALLVALUE DUP1 ISZERO PUSH2 0x2F3 JUMPI PUSH1 0x0 DUP1 REVERT JUMPDEST POP PUSH2 0x2B4 PUSH2 0x302 CALLDATASIZE PUSH1 0x4 PUSH2 0x152D JUMP JUMPDEST PUSH2 0x686 JUMP JUMPDEST CALLVALUE DUP1 ISZERO PUSH2 0x313 JUMPI PUSH1 0x0 DUP1 REVERT JUMPDEST POP PUSH2 0x327 PUSH2 0x322 CALLDATASIZE PUSH1 0x4 PUSH2 0x15E6 JUMP JUMPDEST PUSH2 0x69A JUMP JUMPDEST PUSH1 0x40 MLOAD PUSH2 0x296 SWAP2 SWAP1 PUSH2 0x164B JUMP JUMPDEST CALLVALUE DUP1 ISZERO PUSH2 0x340 JUMPI PUSH1 0x0 DUP1 REVERT JUMPDEST POP PUSH2 0x354 PUSH2 0x34F CALLDATASIZE PUSH1 0x4 PUSH2 0x152D JUMP JUMPDEST PUSH2 0x6D1 JUMP JUMPDEST PUSH1 0x40 MLOAD PUSH2 0x296 SWAP2 SWAP1 PUSH2 0x177A JUMP JUMPDEST CALLVALUE DUP1 ISZERO PUSH2 0x36D JUMPI PUSH1 0x0 DUP1 REVERT JUMPDEST POP PUSH2 0x376 PUSH2 0x6E6 JUMP JUMPDEST PUSH1 0x40 MLOAD PUSH2 0x296 SWAP2 SWAP1 PUSH2 0x1785 JUMP JUMPDEST CALLVALUE DUP1 ISZERO PUSH2 0x38F JUMPI PUSH1 0x0 DUP1 REVERT JUMPDEST POP PUSH2 0x376 PUSH2 0x6EC JUMP JUMPDEST CALLVALUE DUP1 ISZERO PUSH2 0x3A4 JUMPI PUSH1 0x0 DUP1 REVERT JUMPDEST POP PUSH2 0x2B4 PUSH2 0x3B3 CALLDATASIZE PUSH1 0x4 PUSH2 0x152D JUMP JUMPDEST PUSH2 0x6F2 JUMP JUMPDEST CALLVALUE DUP1 ISZERO PUSH2 0x3C4 JUMPI PUSH1 0x0 DUP1 REVERT JUMPDEST POP PUSH2 0x2B4 PUSH2 0x3D3 CALLDATASIZE PUSH1 0x4 PUSH2 0x152D JUMP JUMPDEST PUSH2 0x703 JUMP JUMPDEST CALLVALUE DUP1 ISZERO PUSH2 0x3E4 JUMPI PUSH1 0x0 DUP1 REVERT JUMPDEST POP PUSH2 0x376 PUSH2 0x7B8 JUMP JUMPDEST CALLVALUE DUP1 ISZERO PUSH2 0x3F9 JUMPI PUSH1 0x0 DUP1 REVERT JUMPDEST POP PUSH2 0x376 PUSH2 0x408 CALLDATASIZE PUSH1 0x4 PUSH2 0x152D JUMP JUMPDEST PUSH2 0x7BE JUMP JUMPDEST CALLVALUE DUP1 ISZERO PUSH2 0x419 JUMPI PUSH1 0x0 DUP1 REVERT JUMPDEST POP PUSH2 0x422 PUSH2 0x7D0 JUMP JUMPDEST PUSH1 0x40 MLOAD PUSH2 0x296 SWAP2 SWAP1 PUSH2 0x17C7 JUMP JUMPDEST CALLVALUE DUP1 ISZERO PUSH2 0x43B JUMPI PUSH1 0x0 DUP1 REVERT JUMPDEST POP PUSH2 0x44F PUSH2 0x44A CALLDATASIZE PUSH1 0x4 PUSH2 0x1577 JUMP JUMPDEST PUSH2 0x7DC JUMP JUMPDEST PUSH1 0x40 MLOAD PUSH2 0x296 SWAP2 SWAP1 PUSH2 0x16C6 JUMP JUMPDEST CALLVALUE DUP1 ISZERO PUSH2 0x468 JUMPI PUSH1 0x0 DUP1 REVERT JUMPDEST POP PUSH2 0x327 PUSH2 0x925 JUMP JUMPDEST CALLVALUE DUP1 ISZERO PUSH2 0x47D JUMPI PUSH1 0x0 DUP1 REVERT JUMPDEST POP PUSH2 0x2B4 PUSH2 0x48C CALLDATASIZE PUSH1 0x4 PUSH2 0x154E JUMP JUMPDEST PUSH2 0x941 JUMP JUMPDEST CALLVALUE DUP1 ISZERO PUSH2 0x49D JUMPI PUSH1 0x0 DUP1 REVERT JUMPDEST POP PUSH2 0x376 PUSH2 0x953 JUMP JUMPDEST CALLVALUE DUP1 ISZERO PUSH2 0x4B2 JUMPI PUSH1 0x0 DUP1 REVERT JUMPDEST POP PUSH2 0x354 PUSH2 0x4C1 CALLDATASIZE PUSH1 0x4 PUSH2 0x152D JUMP JUMPDEST PUSH2 0x959 JUMP JUMPDEST CALLVALUE DUP1 ISZERO PUSH2 0x4D2 JUMPI PUSH1 0x0 DUP1 REVERT JUMPDEST POP PUSH2 0x376 PUSH2 0x4E1 CALLDATASIZE PUSH1 0x4 PUSH2 0x15E6 JUMP JUMPDEST PUSH2 0x96E JUMP JUMPDEST CALLVALUE DUP1 ISZERO PUSH2 0x4F2 JUMPI PUSH1 0x0 DUP1 REVERT JUMPDEST POP PUSH2 0x2B4 PUSH2 0x980 JUMP JUMPDEST CALLVALUE DUP1 ISZERO PUSH2 0x507 JUMPI PUSH1 0x0 DUP1 REVERT JUMPDEST POP PUSH2 0x376 PUSH2 0xA19 JUMP JUMPDEST CALLVALUE DUP1 ISZERO PUSH2 0x51C JUMPI PUSH1 0x0 DUP1 REVERT JUMPDEST POP PUSH2 0x525 PUSH2 0xA1F JUMP JUMPDEST PUSH1 0x40 MLOAD PUSH2 0x296 SWAP2 SWAP1 PUSH2 0x166C JUMP JUMPDEST CALLVALUE DUP1 ISZERO PUSH2 0x53E JUMPI PUSH1 0x0 DUP1 REVERT JUMPDEST POP PUSH2 0x422 PUSH2 0xA8E JUMP JUMPDEST CALLVALUE DUP1 ISZERO PUSH2 0x553 JUMPI PUSH1 0x0 DUP1 REVERT JUMPDEST POP PUSH2 0x422 PUSH2 0xA9A JUMP JUMPDEST CALLVALUE DUP1 ISZERO PUSH2 0x568 JUMPI PUSH1 0x0 DUP1 REVERT JUMPDEST POP PUSH2 0x327 PUSH2 0xAAE JUMP JUMPDEST CALLVALUE DUP1 ISZERO PUSH2 0x57D JUMPI PUSH1 0x0 DUP1 REVERT JUMPDEST POP PUSH2 0x2B4 PUSH2 0x58C CALLDATASIZE PUSH1 0x4 PUSH2 0x152D JUMP JUMPDEST PUSH2 0xACA JUMP JUMPDEST PUSH1 0x40 DUP1 MLOAD DUP1 DUP3 ADD SWAP1 SWAP2 MSTORE PUSH1 0x4 DUP2 MSTORE PUSH32 0x6EFF828500000000000000000000000000000000000000000000000000000000 PUSH1 0x20 DUP3 ADD MSTORE SWAP1 JUMP JUMPDEST DUP1 MLOAD PUSH1 0x20 DUP3 ADD REVERT JUMPDEST PUSH1 0x14 PUSH1 0x20 SWAP1 DUP2 MSTORE PUSH1 0x0 SWAP3 DUP4 MSTORE PUSH1 0x40 DUP1 DUP5 KECCAK256 SWAP1 SWAP2 MSTORE SWAP1 DUP3 MSTORE SWAP1 KECCAK256 DUP1 SLOAD PUSH1 0x1 DUP3 ADD SLOAD PUSH1 0x2 SWAP1 SWAP3 ADD SLOAD SWAP1 SWAP2 SWAP1 DUP4 JUMP JUMPDEST PUSH2 0x604 PUSH2 0xE50 JUMP JUMPDEST PUSH1 0x3 DUP1 SLOAD PUSH32 0xFFFFFFFFFFFFFFFFFFFFFFFF0000000000000000000000000000000000000000 AND SWAP1 SSTORE PUSH1 0x40 MLOAD PUSH32 0x6CAEDCB22A5C22C8EBD0CAF751FEC1228A6E006E6EE37169321E02D31ECC8183 SWAP1 PUSH1 0x0 SWAP1 LOG1 JUMP JUMPDEST PUSH1 0x15 PUSH1 0x20 MSTORE PUSH1 0x0 SWAP1 DUP2 MSTORE PUSH1 0x40 SWAP1 KECCAK256 DUP1 SLOAD PUSH1 0x1 DUP3 ADD SLOAD PUSH1 0x2 DUP4 ADD SLOAD PUSH1 0x3 DUP5 ADD SLOAD PUSH1 0x4 SWAP1 SWAP5 ADD SLOAD SWAP3 SWAP4 SWAP2 SWAP3 SWAP1 SWAP2 SWAP1 DUP6 JUMP JUMPDEST PUSH2 0x68E PUSH2 0xE75 JUMP JUMPDEST PUSH2 0x697 DUP2 PUSH2 0xEBC JUMP JUMPDEST POP JUMP JUMPDEST PUSH1 0x2 DUP2 DUP2 SLOAD DUP2 LT PUSH2 0x6AA JUMPI PUSH1 0x0 DUP1 REVERT JUMPDEST PUSH1 0x0 SWAP2 DUP3 MSTORE PUSH1 0x20 SWAP1 SWAP2 KECCAK256 ADD SLOAD PUSH20 0xFFFFFFFFFFFFFFFFFFFFFFFFFFFFFFFFFFFFFFFF AND SWAP1 POP DUP2 JUMP JUMPDEST PUSH1 0xF PUSH1 0x20 MSTORE PUSH1 0x0 SWAP1 DUP2 MSTORE PUSH1 0x40 SWAP1 KECCAK256 SLOAD PUSH1 0xFF AND DUP2 JUMP JUMPDEST PUSH1 0xC SLOAD DUP2 JUMP JUMPDEST PUSH1 0x10 SLOAD DUP2 JUMP JUMPDEST PUSH2 0x6FA PUSH2 0xE50 JUMP JUMPDEST PUSH2 0x697 DUP2 PUSH2 0xFED JUMP JUMPDEST PUSH2 0x70B PUSH2 0xE75 JUMP JUMPDEST PUSH20 0xFFFFFFFFFFFFFFFFFFFFFFFFFFFFFFFFFFFFFFFF DUP2 AND PUSH1 0x0 SWAP1 DUP2 MSTORE PUSH1 0x1 PUSH1 0x20 MSTORE PUSH1 0x40 SWAP1 KECCAK256 SLOAD PUSH1 0xFF AND PUSH2 0x744 JUMPI PUSH2 0x744 PUSH2 0x1D3 DUP3 PUSH2 0xC28 JUMP JUMPDEST PUSH1 0x0 JUMPDEST PUSH1 0x2 SLOAD DUP2 LT ISZERO PUSH2 0x7B4 JUMPI DUP2 PUSH20 0xFFFFFFFFFFFFFFFFFFFFFFFFFFFFFFFFFFFFFFFF AND PUSH1 0x2 DUP3 DUP2 SLOAD DUP2 LT PUSH2 0x775 JUMPI INVALID JUMPDEST PUSH1 0x0 SWAP2 DUP3 MSTORE PUSH1 0x20 SWAP1 SWAP2 KECCAK256 ADD SLOAD PUSH20 0xFFFFFFFFFFFFFFFFFFFFFFFFFFFFFFFFFFFFFFFF AND EQ ISZERO PUSH2 0x7AC JUMPI PUSH2 0x7A7 DUP3 DUP3 PUSH2 0x1148 JUMP JUMPDEST PUSH2 0x7B4 JUMP JUMPDEST PUSH1 0x1 ADD PUSH2 0x747 JUMP JUMPDEST POP POP JUMP JUMPDEST PUSH1 0xB SLOAD DUP2 JUMP JUMPDEST PUSH1 0x8 PUSH1 0x20 MSTORE PUSH1 0x0 SWAP1 DUP2 MSTORE PUSH1 0x40 SWAP1 KECCAK256 SLOAD DUP2 JUMP JUMPDEST PUSH1 0x13 SLOAD PUSH4 0xFFFFFFFF AND DUP2 JUMP JUMPDEST PUSH1 0x60 PUSH1 0x0 DUP2 DUP4 DUP1 PUSH8 0xFFFFFFFFFFFFFFFF DUP2 GT DUP1 ISZERO PUSH2 0x7F9 JUMPI PUSH1 0x0 DUP1 REVERT JUMPDEST POP PUSH1 0x40 MLOAD SWAP1 DUP1 DUP3 MSTORE DUP1 PUSH1 0x20 MUL PUSH1 0x20 ADD DUP3 ADD PUSH1 0x40 MSTORE DUP1 ISZERO PUSH2 0x82D JUMPI DUP2 PUSH1 0x20 ADD JUMPDEST PUSH1 0x60 DUP2 MSTORE PUSH1 0x20 ADD SWAP1 PUSH1 0x1 SWAP1 SUB SWAP1 DUP2 PUSH2 0x818 JUMPI SWAP1 POP JUMPDEST POP PUSH1 0x3 SLOAD SWAP1 SWAP5 POP PUSH20 0xFFFFFFFFFFFFFFFFFFFFFFFFFFFFFFFFFFFFFFFF AND DUP1 PUSH2 0x85A JUMPI PUSH2 0x85A PUSH2 0x1D3 PUSH2 0x591 JUMP JUMPDEST PUSH1 0x0 JUMPDEST DUP3 DUP2 EQ PUSH2 0x91A JUMPI DUP2 PUSH20 0xFFFFFFFFFFFFFFFFFFFFFFFFFFFFFFFFFFFFFFFF AND DUP9 DUP9 DUP4 DUP2 DUP2 LT PUSH2 0x887 JUMPI INVALID JUMPDEST SWAP1 POP PUSH1 0x20 MUL DUP2 ADD SWAP1 PUSH2 0x899 SWAP2 SWAP1 PUSH2 0x17D8 JUMP JUMPDEST PUSH1 0x40 MLOAD PUSH2 0x8A7 SWAP3 SWAP2 SWAP1 PUSH2 0x161F JUMP JUMPDEST PUSH1 0x0 PUSH1 0x40 MLOAD DUP1 DUP4 SUB DUP2 DUP6 GAS DELEGATECALL SWAP2 POP POP RETURNDATASIZE DUP1 PUSH1 0x0 DUP2 EQ PUSH2 0x8E2 JUMPI PUSH1 0x40 MLOAD SWAP2 POP PUSH1 0x1F NOT PUSH1 0x3F RETURNDATASIZE ADD AND DUP3 ADD PUSH1 0x40 MSTORE RETURNDATASIZE DUP3 MSTORE RETURNDATASIZE PUSH1 0x0 PUSH1 0x20 DUP5 ADD RETURNDATACOPY PUSH2 0x8E7 JUMP JUMPDEST PUSH1 0x60 SWAP2 POP JUMPDEST POP SWAP1 SWAP6 POP SWAP4 POP DUP5 PUSH2 0x8FA JUMPI DUP4 MLOAD DUP5 PUSH1 0x20 ADD REVERT JUMPDEST DUP4 DUP7 DUP3 DUP2 MLOAD DUP2 LT PUSH2 0x907 JUMPI INVALID JUMPDEST PUSH1 0x20 SWAP1 DUP2 MUL SWAP2 SWAP1 SWAP2 ADD ADD MSTORE PUSH1 0x1 ADD PUSH2 0x85D JUMP JUMPDEST POP POP POP POP POP SWAP3 SWAP2 POP POP JUMP JUMPDEST PUSH1 0x0 SLOAD PUSH20 0xFFFFFFFFFFFFFFFFFFFFFFFFFFFFFFFFFFFFFFFF AND DUP2 JUMP JUMPDEST PUSH2 0x949 PUSH2 0xE75 JUMP JUMPDEST PUSH2 0x7B4 DUP3 DUP3 PUSH2 0x1148 JUMP JUMPDEST PUSH1 0x12 SLOAD DUP2 JUMP JUMPDEST PUSH1 0x1 PUSH1 0x20 MSTORE PUSH1 0x0 SWAP1 DUP2 MSTORE PUSH1 0x40 SWAP1 KECCAK256 SLOAD PUSH1 0xFF AND DUP2 JUMP JUMPDEST PUSH1 0xA PUSH1 0x20 MSTORE PUSH1 0x0 SWAP1 DUP2 MSTORE PUSH1 0x40 SWAP1 KECCAK256 SLOAD DUP2 JUMP JUMPDEST PUSH1 0x10 SLOAD PUSH3 0x69780 DUP2 LT DUP1 PUSH2 0x996 JUMPI POP PUSH3 0x76A700 DUP2 GT JUMPDEST ISZERO PUSH2 0x9A8 JUMPI PUSH2 0x9A8 PUSH2 0x1D3 PUSH1 0x4 PUSH2 0xDAA JUMP JUMPDEST PUSH1 0x13 SLOAD PUSH4 0xFFFFFFFF PUSH5 0x100000000 DUP3 DIV DUP2 AND SWAP2 AND DUP2 LT DUP1 PUSH2 0x9CD JUMPI POP PUSH4 0xFFFFFFFF DUP2 AND ISZERO JUMPDEST ISZERO PUSH2 0x9DF JUMPI PUSH2 0x9DF PUSH2 0x1D3 PUSH1 0x0 PUSH2 0xDAA JUMP JUMPDEST PUSH1 0x11 SLOAD PUSH3 0xF4240 PUSH4 0xFFFFFFFF SWAP1 SWAP2 AND GT ISZERO PUSH2 0xA01 JUMPI PUSH2 0xA01 PUSH2 0x1D3 PUSH1 0x1 PUSH2 0xDAA JUMP JUMPDEST PUSH1 0x2 PUSH1 0x12 SLOAD LT ISZERO PUSH2 0x7B4 JUMPI PUSH2 0x7B4 PUSH2 0x1D3 PUSH1 0x3 PUSH2 0xDAA JUMP JUMPDEST PUSH1 0x16 SLOAD DUP2 JUMP JUMPDEST PUSH1 0x60 PUSH1 0x2 DUP1 SLOAD DUP1 PUSH1 0x20 MUL PUSH1 0x20 ADD PUSH1 0x40 MLOAD SWAP1 DUP2 ADD PUSH1 0x40 MSTORE DUP1 SWAP3 SWAP2 SWAP1 DUP2 DUP2 MSTORE PUSH1 0x20 ADD DUP3 DUP1 SLOAD DUP1 ISZERO PUSH2 0xA84 JUMPI PUSH1 0x20 MUL DUP3 ADD SWAP2 SWAP1 PUSH1 0x0 MSTORE PUSH1 0x20 PUSH1 0x0 KECCAK256 SWAP1 JUMPDEST DUP2 SLOAD PUSH20 0xFFFFFFFFFFFFFFFFFFFFFFFFFFFFFFFFFFFFFFFF AND DUP2 MSTORE PUSH1 0x1 SWAP1 SWAP2 ADD SWAP1 PUSH1 0x20 ADD DUP1 DUP4 GT PUSH2 0xA59 JUMPI JUMPDEST POP POP POP POP POP SWAP1 POP SWAP1 JUMP JUMPDEST PUSH1 0x11 SLOAD PUSH4 0xFFFFFFFF AND DUP2 JUMP JUMPDEST PUSH1 0x13 SLOAD PUSH5 0x100000000 SWAP1 DIV PUSH4 0xFFFFFFFF AND DUP2 JUMP JUMPDEST PUSH1 0x3 SLOAD PUSH20 0xFFFFFFFFFFFFFFFFFFFFFFFFFFFFFFFFFFFFFFFF AND DUP2 JUMP JUMPDEST PUSH2 0xAD2 PUSH2 0xE75 JUMP JUMPDEST PUSH20 0xFFFFFFFFFFFFFFFFFFFFFFFFFFFFFFFFFFFFFFFF DUP2 AND PUSH2 0xAFD JUMPI PUSH2 0xAF8 PUSH2 0x1D3 PUSH2 0x13C3 JUMP JUMPDEST PUSH2 0x697 JUMP JUMPDEST PUSH1 0x0 DUP1 SLOAD PUSH32 0xFFFFFFFFFFFFFFFFFFFFFFFF0000000000000000000000000000000000000000 AND PUSH20 0xFFFFFFFFFFFFFFFFFFFFFFFFFFFFFFFFFFFFFFFF DUP4 AND SWAP1 DUP2 OR DUP3 SSTORE PUSH1 0x40 MLOAD SWAP1 SWAP2 CALLER SWAP2 PUSH32 0x8BE0079C531659141344CD1FD0A4F28419497F9722A3DAAFE3B4186F6B6457E0 SWAP2 SWAP1 LOG3 POP JUMP JUMPDEST PUSH1 0x40 DUP1 MLOAD DUP1 DUP3 ADD SWAP1 SWAP2 MSTORE PUSH1 0x4 DUP2 MSTORE PUSH32 0x57654FE400000000000000000000000000000000000000000000000000000000 PUSH1 0x20 DUP3 ADD MSTORE SWAP1 JUMP JUMPDEST PUSH1 0x40 DUP1 MLOAD PUSH20 0xFFFFFFFFFFFFFFFFFFFFFFFFFFFFFFFFFFFFFFFF DUP4 AND PUSH1 0x24 DUP1 DUP4 ADD SWAP2 SWAP1 SWAP2 MSTORE DUP3 MLOAD DUP1 DUP4 SUB SWAP1 SWAP2 ADD DUP2 MSTORE PUSH1 0x44 SWAP1 SWAP2 ADD SWAP1 SWAP2 MSTORE PUSH1 0x20 DUP2 ADD DUP1 MLOAD PUSH28 0xFFFFFFFFFFFFFFFFFFFFFFFFFFFFFFFFFFFFFFFFFFFFFFFFFFFFFFFF AND PUSH32 0xDE16F1A000000000000000000000000000000000000000000000000000000000 OR SWAP1 MSTORE JUMPDEST SWAP2 SWAP1 POP JUMP JUMPDEST PUSH1 0x40 DUP1 MLOAD PUSH20 0xFFFFFFFFFFFFFFFFFFFFFFFFFFFFFFFFFFFFFFFF DUP4 AND PUSH1 0x24 DUP1 DUP4 ADD SWAP2 SWAP1 SWAP2 MSTORE DUP3 MLOAD DUP1 DUP4 SUB SWAP1 SWAP2 ADD DUP2 MSTORE PUSH1 0x44 SWAP1 SWAP2 ADD SWAP1 SWAP2 MSTORE PUSH1 0x20 DUP2 ADD DUP1 MLOAD PUSH28 0xFFFFFFFFFFFFFFFFFFFFFFFFFFFFFFFFFFFFFFFFFFFFFFFFFFFFFFFF AND PUSH32 0xEB5108A200000000000000000000000000000000000000000000000000000000 OR SWAP1 MSTORE SWAP2 SWAP1 POP JUMP JUMPDEST PUSH1 0x40 DUP1 MLOAD PUSH1 0x24 DUP2 ADD DUP5 SWAP1 MSTORE PUSH1 0x44 DUP1 DUP3 ADD DUP5 SWAP1 MSTORE DUP3 MLOAD DUP1 DUP4 SUB SWAP1 SWAP2 ADD DUP2 MSTORE PUSH1 0x64 SWAP1 SWAP2 ADD SWAP1 SWAP2 MSTORE PUSH1 0x20 DUP2 ADD DUP1 MLOAD PUSH28 0xFFFFFFFFFFFFFFFFFFFFFFFFFFFFFFFFFFFFFFFFFFFFFFFFFFFFFFFF AND PUSH32 0xE9F8377100000000000000000000000000000000000000000000000000000000 OR SWAP1 MSTORE SWAP3 SWAP2 POP POP JUMP JUMPDEST PUSH1 0x40 DUP1 MLOAD PUSH20 0xFFFFFFFFFFFFFFFFFFFFFFFFFFFFFFFFFFFFFFFF DUP1 DUP6 AND PUSH1 0x24 DUP4 ADD MSTORE DUP4 AND PUSH1 0x44 DUP1 DUP4 ADD SWAP2 SWAP1 SWAP2 MSTORE DUP3 MLOAD DUP1 DUP4 SUB SWAP1 SWAP2 ADD DUP2 MSTORE PUSH1 0x64 SWAP1 SWAP2 ADD SWAP1 SWAP2 MSTORE PUSH1 0x20 DUP2 ADD DUP1 MLOAD PUSH28 0xFFFFFFFFFFFFFFFFFFFFFFFFFFFFFFFFFFFFFFFFFFFFFFFFFFFFFFFF AND PUSH32 0x140A84DB00000000000000000000000000000000000000000000000000000000 OR SWAP1 MSTORE SWAP3 SWAP2 POP POP JUMP JUMPDEST PUSH1 0x60 PUSH32 0xFC45BD1100000000000000000000000000000000000000000000000000000000 DUP3 PUSH1 0x4 DUP2 GT ISZERO PUSH2 0xDD9 JUMPI INVALID JUMPDEST PUSH1 0x40 MLOAD PUSH1 0x24 ADD DUP1 DUP3 PUSH1 0xFF AND DUP2 MSTORE PUSH1 0x20 ADD SWAP2 POP POP PUSH1 0x40 MLOAD PUSH1 0x20 DUP2 DUP4 SUB SUB DUP2 MSTORE SWAP1 PUSH1 0x40 MSTORE SWAP1 PUSH28 0xFFFFFFFFFFFFFFFFFFFFFFFFFFFFFFFFFFFFFFFFFFFFFFFFFFFFFFFF NOT AND PUSH1 0x20 DUP3 ADD DUP1 MLOAD PUSH28 0xFFFFFFFFFFFFFFFFFFFFFFFFFFFFFFFFFFFFFFFFFFFFFFFFFFFFFFFF DUP4 DUP2 DUP4 AND OR DUP4 MSTORE POP POP POP POP SWAP1 POP SWAP2 SWAP1 POP JUMP JUMPDEST CALLER PUSH1 0x0 SWAP1 DUP2 MSTORE PUSH1 0x1 PUSH1 0x20 MSTORE PUSH1 0x40 SWAP1 KECCAK256 SLOAD PUSH1 0xFF AND PUSH2 0xE73 JUMPI PUSH2 0xE73 PUSH2 0x1D3 CALLER PUSH2 0x13FA JUMP JUMPDEST JUMP JUMPDEST PUSH1 0x0 SLOAD PUSH20 0xFFFFFFFFFFFFFFFFFFFFFFFFFFFFFFFFFFFFFFFF AND CALLER EQ PUSH2 0xE73 JUMPI PUSH1 0x0 SLOAD PUSH2 0xE73 SWAP1 PUSH2 0x1D3 SWAP1 CALLER SWAP1 PUSH20 0xFFFFFFFFFFFFFFFFFFFFFFFFFFFFFFFFFFFFFFFF AND PUSH2 0x147D JUMP JUMPDEST PUSH20 0xFFFFFFFFFFFFFFFFFFFFFFFFFFFFFFFFFFFFFFFF DUP2 AND PUSH2 0xEE2 JUMPI PUSH2 0xEE2 PUSH2 0x1D3 PUSH2 0xB6D JUMP JUMPDEST PUSH20 0xFFFFFFFFFFFFFFFFFFFFFFFFFFFFFFFFFFFFFFFF DUP2 AND PUSH1 0x0 SWAP1 DUP2 MSTORE PUSH1 0x1 PUSH1 0x20 MSTORE PUSH1 0x40 SWAP1 KECCAK256 SLOAD PUSH1 0xFF AND ISZERO PUSH2 0xF1C JUMPI PUSH2 0xF1C PUSH2 0x1D3 DUP3 PUSH2 0xBA4 JUMP JUMPDEST PUSH20 0xFFFFFFFFFFFFFFFFFFFFFFFFFFFFFFFFFFFFFFFF DUP2 AND PUSH1 0x0 DUP2 DUP2 MSTORE PUSH1 0x1 PUSH1 0x20 DUP2 SWAP1 MSTORE PUSH1 0x40 DUP1 DUP4 KECCAK256 DUP1 SLOAD PUSH32 0xFFFFFFFFFFFFFFFFFFFFFFFFFFFFFFFFFFFFFFFFFFFFFFFFFFFFFFFFFFFFFF00 AND DUP4 OR SWAP1 SSTORE PUSH1 0x2 DUP1 SLOAD SWAP3 DUP4 ADD DUP2 SSTORE DUP4 MSTORE PUSH32 0x405787FA12A823E0F2B7631CC41B3BA8828B3321CA811111FA75CD3AA3BB5ACE SWAP1 SWAP2 ADD DUP1 SLOAD PUSH32 0xFFFFFFFFFFFFFFFFFFFFFFFF0000000000000000000000000000000000000000 AND DUP5 OR SWAP1 SSTORE MLOAD CALLER SWAP3 SWAP2 PUSH32 0x3147867C59D17E8FA9D522465651D44AAE0A9E38F902F3475B97E58072F0ED4C SWAP2 LOG3 POP JUMP JUMPDEST PUSH1 0x3 DUP1 SLOAD PUSH32 0xFFFFFFFFFFFFFFFFFFFFFFFF0000000000000000000000000000000000000000 AND PUSH20 0xFFFFFFFFFFFFFFFFFFFFFFFFFFFFFFFFFFFFFFFF DUP4 AND OR SWAP1 SSTORE PUSH1 0x40 MLOAD PUSH32 0x48368388F801041F7690185C4E28B6F3505C740C47BE8AC104B55DF666BFC84 SWAP1 PUSH2 0x105D SWAP1 DUP4 SWAP1 PUSH2 0x164B JUMP JUMPDEST PUSH1 0x40 MLOAD DUP1 SWAP2 SUB SWAP1 LOG1 PUSH1 0x3 SLOAD PUSH1 0x40 DUP1 MLOAD PUSH1 0x4 DUP2 MSTORE PUSH1 0x24 DUP2 ADD DUP3 MSTORE PUSH1 0x20 DUP2 ADD DUP1 MLOAD PUSH28 0xFFFFFFFFFFFFFFFFFFFFFFFFFFFFFFFFFFFFFFFFFFFFFFFFFFFFFFFF AND PUSH32 0xE1C7392A00000000000000000000000000000000000000000000000000000000 OR SWAP1 MSTORE SWAP1 MLOAD PUSH1 0x0 SWAP3 PUSH1 0x60 SWAP3 PUSH20 0xFFFFFFFFFFFFFFFFFFFFFFFFFFFFFFFFFFFFFFFF SWAP1 SWAP2 AND SWAP2 PUSH2 0x10E9 SWAP2 SWAP1 PUSH2 0x162F JUMP JUMPDEST PUSH1 0x0 PUSH1 0x40 MLOAD DUP1 DUP4 SUB DUP2 DUP6 GAS DELEGATECALL SWAP2 POP POP RETURNDATASIZE DUP1 PUSH1 0x0 DUP2 EQ PUSH2 0x1124 JUMPI PUSH1 0x40 MLOAD SWAP2 POP PUSH1 0x1F NOT PUSH1 0x3F RETURNDATASIZE ADD AND DUP3 ADD PUSH1 0x40 MSTORE RETURNDATASIZE DUP3 MSTORE RETURNDATASIZE PUSH1 0x0 PUSH1 0x20 DUP5 ADD RETURNDATACOPY PUSH2 0x1129 JUMP JUMPDEST PUSH1 0x60 SWAP2 POP JUMPDEST POP SWAP2 POP SWAP2 POP DUP2 PUSH2 0x113B JUMPI DUP1 MLOAD PUSH1 0x20 DUP3 ADD REVERT JUMPDEST PUSH2 0x1143 PUSH2 0x980 JUMP JUMPDEST POP POP POP JUMP JUMPDEST PUSH20 0xFFFFFFFFFFFFFFFFFFFFFFFFFFFFFFFFFFFFFFFF DUP3 AND PUSH1 0x0 SWAP1 DUP2 MSTORE PUSH1 0x1 PUSH1 0x20 MSTORE PUSH1 0x40 SWAP1 KECCAK256 SLOAD PUSH1 0xFF AND PUSH2 0x1181 JUMPI PUSH2 0x1181 PUSH2 0x1D3 DUP4 PUSH2 0xC28 JUMP JUMPDEST PUSH1 0x2 SLOAD DUP2 LT PUSH2 0x119C JUMPI PUSH2 0x119C PUSH2 0x1D3 DUP3 PUSH1 0x2 DUP1 SLOAD SWAP1 POP PUSH2 0xCAB JUMP JUMPDEST DUP2 PUSH20 0xFFFFFFFFFFFFFFFFFFFFFFFFFFFFFFFFFFFFFFFF AND PUSH1 0x2 DUP3 DUP2 SLOAD DUP2 LT PUSH2 0x11C0 JUMPI INVALID JUMPDEST PUSH1 0x0 SWAP2 DUP3 MSTORE PUSH1 0x20 SWAP1 SWAP2 KECCAK256 ADD SLOAD PUSH20 0xFFFFFFFFFFFFFFFFFFFFFFFFFFFFFFFFFFFFFFFF AND EQ PUSH2 0x1222 JUMPI PUSH2 0x1222 PUSH2 0x1D3 PUSH1 0x2 DUP4 DUP2 SLOAD DUP2 LT PUSH2 0x11FA JUMPI INVALID JUMPDEST PUSH1 0x0 SWAP2 DUP3 MSTORE PUSH1 0x20 SWAP1 SWAP2 KECCAK256 ADD SLOAD PUSH20 0xFFFFFFFFFFFFFFFFFFFFFFFFFFFFFFFFFFFFFFFF AND DUP5 PUSH2 0xD1E JUMP JUMPDEST PUSH20 0xFFFFFFFFFFFFFFFFFFFFFFFFFFFFFFFFFFFFFFFF DUP3 AND PUSH1 0x0 SWAP1 DUP2 MSTORE PUSH1 0x1 PUSH1 0x20 MSTORE PUSH1 0x40 SWAP1 KECCAK256 DUP1 SLOAD PUSH32 0xFFFFFFFFFFFFFFFFFFFFFFFFFFFFFFFFFFFFFFFFFFFFFFFFFFFFFFFFFFFFFF00 AND SWAP1 SSTORE PUSH1 0x2 DUP1 SLOAD PUSH32 0xFFFFFFFFFFFFFFFFFFFFFFFFFFFFFFFFFFFFFFFFFFFFFFFFFFFFFFFFFFFFFFFF DUP2 ADD SWAP1 DUP2 LT PUSH2 0x129D JUMPI INVALID JUMPDEST PUSH1 0x0 SWAP2 DUP3 MSTORE PUSH1 0x20 SWAP1 SWAP2 KECCAK256 ADD SLOAD PUSH1 0x2 DUP1 SLOAD PUSH20 0xFFFFFFFFFFFFFFFFFFFFFFFFFFFFFFFFFFFFFFFF SWAP1 SWAP3 AND SWAP2 DUP4 SWAP1 DUP2 LT PUSH2 0x12D0 JUMPI INVALID JUMPDEST SWAP1 PUSH1 0x0 MSTORE PUSH1 0x20 PUSH1 0x0 KECCAK256 ADD PUSH1 0x0 PUSH2 0x100 EXP DUP2 SLOAD DUP2 PUSH20 0xFFFFFFFFFFFFFFFFFFFFFFFFFFFFFFFFFFFFFFFF MUL NOT AND SWAP1 DUP4 PUSH20 0xFFFFFFFFFFFFFFFFFFFFFFFFFFFFFFFFFFFFFFFF AND MUL OR SWAP1 SSTORE POP PUSH1 0x2 DUP1 SLOAD DUP1 PUSH2 0x1323 JUMPI INVALID JUMPDEST PUSH1 0x0 DUP3 DUP2 MSTORE PUSH1 0x20 DUP2 KECCAK256 DUP3 ADD PUSH32 0xFFFFFFFFFFFFFFFFFFFFFFFFFFFFFFFFFFFFFFFFFFFFFFFFFFFFFFFFFFFFFFFF SWAP1 DUP2 ADD DUP1 SLOAD PUSH32 0xFFFFFFFFFFFFFFFFFFFFFFFF0000000000000000000000000000000000000000 AND SWAP1 SSTORE SWAP1 SWAP2 ADD SWAP1 SWAP2 SSTORE PUSH1 0x40 MLOAD CALLER SWAP2 PUSH20 0xFFFFFFFFFFFFFFFFFFFFFFFFFFFFFFFFFFFFFFFF DUP6 AND SWAP2 PUSH32 0x1F32C1B084E2DE0713B8FB16BD46BB9DF710A3DBEAE2F3CA93AF46E016DCC6B0 SWAP2 SWAP1 LOG3 POP POP JUMP JUMPDEST PUSH1 0x40 DUP1 MLOAD DUP1 DUP3 ADD SWAP1 SWAP2 MSTORE PUSH1 0x4 DUP2 MSTORE PUSH32 0xE69EDC3E00000000000000000000000000000000000000000000000000000000 PUSH1 0x20 DUP3 ADD MSTORE SWAP1 JUMP JUMPDEST PUSH1 0x40 DUP1 MLOAD PUSH20 0xFFFFFFFFFFFFFFFFFFFFFFFFFFFFFFFFFFFFFFFF DUP4 AND PUSH1 0x24 DUP1 DUP4 ADD SWAP2 SWAP1 SWAP2 MSTORE DUP3 MLOAD DUP1 DUP4 SUB SWAP1 SWAP2 ADD DUP2 MSTORE PUSH1 0x44 SWAP1 SWAP2 ADD SWAP1 SWAP2 MSTORE PUSH1 0x20 DUP2 ADD DUP1 MLOAD PUSH28 0xFFFFFFFFFFFFFFFFFFFFFFFFFFFFFFFFFFFFFFFFFFFFFFFFFFFFFFFF AND PUSH32 0xB65A25B900000000000000000000000000000000000000000000000000000000 OR SWAP1 MSTORE SWAP2 SWAP1 POP JUMP JUMPDEST PUSH1 0x40 DUP1 MLOAD PUSH20 0xFFFFFFFFFFFFFFFFFFFFFFFFFFFFFFFFFFFFFFFF DUP1 DUP6 AND PUSH1 0x24 DUP4 ADD MSTORE DUP4 AND PUSH1 0x44 DUP1 DUP4 ADD SWAP2 SWAP1 SWAP2 MSTORE DUP3 MLOAD DUP1 DUP4 SUB SWAP1 SWAP2 ADD DUP2 MSTORE PUSH1 0x64 SWAP1 SWAP2 ADD SWAP1 SWAP2 MSTORE PUSH1 0x20 DUP2 ADD DUP1 MLOAD PUSH28 0xFFFFFFFFFFFFFFFFFFFFFFFFFFFFFFFFFFFFFFFFFFFFFFFFFFFFFFFF AND PUSH32 0x1DE45AD100000000000000000000000000000000000000000000000000000000 OR SWAP1 MSTORE SWAP3 SWAP2 POP POP JUMP JUMPDEST DUP1 CALLDATALOAD PUSH20 0xFFFFFFFFFFFFFFFFFFFFFFFFFFFFFFFFFFFFFFFF DUP2 AND DUP2 EQ PUSH2 0xC23 JUMPI PUSH1 0x0 DUP1 REVERT JUMPDEST PUSH1 0x0 PUSH1 0x20 DUP3 DUP5 SUB SLT ISZERO PUSH2 0x153E JUMPI DUP1 DUP2 REVERT JUMPDEST PUSH2 0x1547 DUP3 PUSH2 0x1509 JUMP JUMPDEST SWAP4 SWAP3 POP POP POP JUMP JUMPDEST PUSH1 0x0 DUP1 PUSH1 0x40 DUP4 DUP6 SUB SLT ISZERO PUSH2 0x1560 JUMPI DUP1 DUP2 REVERT JUMPDEST PUSH2 0x1569 DUP4 PUSH2 0x1509 JUMP JUMPDEST SWAP5 PUSH1 0x20 SWAP4 SWAP1 SWAP4 ADD CALLDATALOAD SWAP4 POP POP POP JUMP JUMPDEST PUSH1 0x0 DUP1 PUSH1 0x20 DUP4 DUP6 SUB SLT ISZERO PUSH2 0x1589 JUMPI DUP2 DUP3 REVERT JUMPDEST DUP3 CALLDATALOAD PUSH8 0xFFFFFFFFFFFFFFFF DUP1 DUP3 GT ISZERO PUSH2 0x15A0 JUMPI DUP4 DUP5 REVERT JUMPDEST DUP2 DUP6 ADD SWAP2 POP DUP6 PUSH1 0x1F DUP4 ADD SLT PUSH2 0x15B3 JUMPI DUP4 DUP5 REVERT JUMPDEST DUP2 CALLDATALOAD DUP2 DUP2 GT ISZERO PUSH2 0x15C1 JUMPI DUP5 DUP6 REVERT JUMPDEST DUP7 PUSH1 0x20 DUP1 DUP4 MUL DUP6 ADD ADD GT ISZERO PUSH2 0x15D4 JUMPI DUP5 DUP6 REVERT JUMPDEST PUSH1 0x20 SWAP3 SWAP1 SWAP3 ADD SWAP7 SWAP2 SWAP6 POP SWAP1 SWAP4 POP POP POP POP JUMP JUMPDEST PUSH1 0x0 PUSH1 0x20 DUP3 DUP5 SUB SLT ISZERO PUSH2 0x15F7 JUMPI DUP1 DUP2 REVERT JUMPDEST POP CALLDATALOAD SWAP2 SWAP1 POP JUMP JUMPDEST PUSH1 0x0 DUP1 PUSH1 0x40 DUP4 DUP6 SUB SLT ISZERO PUSH2 0x1610 JUMPI DUP2 DUP3 REVERT JUMPDEST POP POP DUP1 CALLDATALOAD SWAP3 PUSH1 0x20 SWAP1 SWAP2 ADD CALLDATALOAD SWAP2 POP JUMP JUMPDEST PUSH1 0x0 DUP3 DUP5 DUP4 CALLDATACOPY SWAP2 ADD SWAP1 DUP2 MSTORE SWAP2 SWAP1 POP JUMP JUMPDEST PUSH1 0x0 DUP3 MLOAD PUSH2 0x1641 DUP2 DUP5 PUSH1 0x20 DUP8 ADD PUSH2 0x1842 JUMP JUMPDEST SWAP2 SWAP1 SWAP2 ADD SWAP3 SWAP2 POP POP JUMP JUMPDEST PUSH20 0xFFFFFFFFFFFFFFFFFFFFFFFFFFFFFFFFFFFFFFFF SWAP2 SWAP1 SWAP2 AND DUP2 MSTORE PUSH1 0x20 ADD SWAP1 JUMP JUMPDEST PUSH1 0x20 DUP1 DUP3 MSTORE DUP3 MLOAD DUP3 DUP3 ADD DUP2 SWAP1 MSTORE PUSH1 0x0 SWAP2 SWAP1 DUP5 DUP3 ADD SWAP1 PUSH1 0x40 DUP6 ADD SWAP1 DUP5 JUMPDEST DUP2 DUP2 LT ISZERO PUSH2 0x16BA JUMPI DUP4 MLOAD PUSH20 0xFFFFFFFFFFFFFFFFFFFFFFFFFFFFFFFFFFFFFFFF AND DUP4 MSTORE SWAP3 DUP5 ADD SWAP3 SWAP2 DUP5 ADD SWAP2 PUSH1 0x1 ADD PUSH2 0x1688 JUMP JUMPDEST POP SWAP1 SWAP7 SWAP6 POP POP POP POP POP POP JUMP JUMPDEST PUSH1 0x0 PUSH1 0x20 DUP1 DUP4 ADD DUP2 DUP5 MSTORE DUP1 DUP6 MLOAD DUP1 DUP4 MSTORE PUSH1 0x40 DUP7 ADD SWAP2 POP PUSH1 0x40 DUP5 DUP3 MUL DUP8 ADD ADD SWAP3 POP DUP4 DUP8 ADD DUP6 JUMPDEST DUP3 DUP2 LT ISZERO PUSH2 0x176D JUMPI PUSH32 0xFFFFFFFFFFFFFFFFFFFFFFFFFFFFFFFFFFFFFFFFFFFFFFFFFFFFFFFFFFFFFFC0 DUP9 DUP7 SUB ADD DUP5 MSTORE DUP2 MLOAD DUP1 MLOAD DUP1 DUP8 MSTORE PUSH2 0x1730 DUP2 DUP10 DUP10 ADD DUP11 DUP6 ADD PUSH2 0x1842 JUMP JUMPDEST PUSH1 0x1F ADD PUSH32 0xFFFFFFFFFFFFFFFFFFFFFFFFFFFFFFFFFFFFFFFFFFFFFFFFFFFFFFFFFFFFFFE0 AND SWAP6 SWAP1 SWAP6 ADD DUP7 ADD SWAP5 POP SWAP3 DUP6 ADD SWAP3 SWAP1 DUP6 ADD SWAP1 PUSH1 0x1 ADD PUSH2 0x16EB JUMP JUMPDEST POP SWAP3 SWAP8 SWAP7 POP POP POP POP POP POP POP JUMP JUMPDEST SWAP1 ISZERO ISZERO DUP2 MSTORE PUSH1 0x20 ADD SWAP1 JUMP JUMPDEST SWAP1 DUP2 MSTORE PUSH1 0x20 ADD SWAP1 JUMP JUMPDEST SWAP3 DUP4 MSTORE PUSH1 0x20 DUP4 ADD SWAP2 SWAP1 SWAP2 MSTORE PUSH1 0x40 DUP3 ADD MSTORE PUSH1 0x60 ADD SWAP1 JUMP JUMPDEST SWAP5 DUP6 MSTORE PUSH1 0x20 DUP6 ADD SWAP4 SWAP1 SWAP4 MSTORE PUSH1 0x40 DUP5 ADD SWAP2 SWAP1 SWAP2 MSTORE PUSH1 0x60 DUP4 ADD MSTORE PUSH1 0x80 DUP3 ADD MSTORE PUSH1 0xA0 ADD SWAP1 JUMP JUMPDEST PUSH4 0xFFFFFFFF SWAP2 SWAP1 SWAP2 AND DUP2 MSTORE PUSH1 0x20 ADD SWAP1 JUMP JUMPDEST PUSH1 0x0 DUP1 DUP4 CALLDATALOAD PUSH32 0xFFFFFFFFFFFFFFFFFFFFFFFFFFFFFFFFFFFFFFFFFFFFFFFFFFFFFFFFFFFFFFE1 DUP5 CALLDATASIZE SUB ADD DUP2 SLT PUSH2 0x180C JUMPI DUP3 DUP4 REVERT JUMPDEST DUP4 ADD DUP1 CALLDATALOAD SWAP2 POP PUSH8 0xFFFFFFFFFFFFFFFF DUP3 GT ISZERO PUSH2 0x1826 JUMPI DUP3 DUP4 REVERT JUMPDEST PUSH1 0x20 ADD SWAP2 POP CALLDATASIZE DUP2 SWAP1 SUB DUP3 SGT ISZERO PUSH2 0x183B JUMPI PUSH1 0x0 DUP1 REVERT JUMPDEST SWAP3 POP SWAP3 SWAP1 POP JUMP JUMPDEST PUSH1 0x0 JUMPDEST DUP4 DUP2 LT ISZERO PUSH2 0x185D JUMPI DUP2 DUP2 ADD MLOAD DUP4 DUP3 ADD MSTORE PUSH1 0x20 ADD PUSH2 0x1845 JUMP JUMPDEST DUP4 DUP2 GT ISZERO PUSH2 0x186C JUMPI PUSH1 0x0 DUP5 DUP5 ADD MSTORE JUMPDEST POP POP POP POP JUMP INVALID LOG2 PUSH5 0x6970667358 0x22 SLT KECCAK256 JUMP GASPRICE 0xE5 0xD6 MSIZE PUSH16 0x47E838B7B13CC6BDB792A3B1382EDFC3 DUP9 PUSH31 0x3F224F76F417B44D64736F6C63430007040033000000000000000000000000 "
			}
		}
	},
	"sourceTreeHashHex": "0xa7de4a4ff9d3e91bb49b70ea124e27723a262ea0a19cae26f6b6540e61c5519f",
	"compiler": {
		"name": "solc",
		"version": "0.7.4+commit.3f05b770",
		"settings": {
			"remappings": [],
			"optimizer": {
				"enabled": true,
				"runs": 1000000
			},
			"outputSelection": {
				"*": {
					"*": [
						"abi",
						"devdoc",
						"evm.bytecode.object",
						"evm.bytecode.sourceMap",
						"evm.deployedBytecode.object",
						"evm.deployedBytecode.sourceMap"
					]
				}
			}
		}
	},
	"chains": {}
}