{
	"schemaVersion": "2.0.0",
	"contractName": "Staking",
	"compilerOutput": {
		"abi": [
			{
				"anonymous": false,
				"inputs": [
					{
						"indexed": true,
						"internalType": "address",
						"name": "target",
						"type": "address"
					},
					{
						"indexed": true,
						"internalType": "address",
						"name": "caller",
						"type": "address"
					}
				],
				"name": "AuthorizedAddressAdded",
				"type": "event"
			},
			{
				"anonymous": false,
				"inputs": [
					{
						"indexed": true,
						"internalType": "address",
						"name": "target",
						"type": "address"
					},
					{
						"indexed": true,
						"internalType": "address",
						"name": "caller",
						"type": "address"
					}
				],
				"name": "AuthorizedAddressRemoved",
				"type": "event"
			},
			{
				"anonymous": false,
				"inputs": [
					{
						"indexed": true,
						"internalType": "uint256",
						"name": "epoch",
						"type": "uint256"
					},
					{
						"indexed": false,
						"internalType": "uint256",
						"name": "numPoolsToFinalize",
						"type": "uint256"
					},
					{
						"indexed": false,
						"internalType": "uint256",
						"name": "rewardsAvailable",
						"type": "uint256"
					},
					{
						"indexed": false,
						"internalType": "uint256",
						"name": "totalFeesCollected",
						"type": "uint256"
					},
					{
						"indexed": false,
						"internalType": "uint256",
						"name": "totalWeightedStake",
						"type": "uint256"
					}
				],
				"name": "EpochEnded",
				"type": "event"
			},
			{
				"anonymous": false,
				"inputs": [
					{
						"indexed": true,
						"internalType": "uint256",
						"name": "epoch",
						"type": "uint256"
					},
					{
						"indexed": false,
						"internalType": "uint256",
						"name": "rewardsPaid",
						"type": "uint256"
					},
					{
						"indexed": false,
						"internalType": "uint256",
						"name": "rewardsRemaining",
						"type": "uint256"
					}
				],
				"name": "EpochFinalized",
				"type": "event"
			},
			{
				"anonymous": false,
				"inputs": [
					{
						"indexed": true,
						"internalType": "address",
						"name": "staker",
						"type": "address"
					},
					{
						"indexed": false,
						"internalType": "uint256",
						"name": "amount",
						"type": "uint256"
					},
					{
						"indexed": false,
						"internalType": "uint8",
						"name": "fromStatus",
						"type": "uint8"
					},
					{
						"indexed": true,
						"internalType": "bytes32",
						"name": "fromPool",
						"type": "bytes32"
					},
					{
						"indexed": false,
						"internalType": "uint8",
						"name": "toStatus",
						"type": "uint8"
					},
					{
						"indexed": true,
						"internalType": "bytes32",
						"name": "toPool",
						"type": "bytes32"
					}
				],
				"name": "MoveStake",
				"type": "event"
			},
			{
				"anonymous": false,
				"inputs": [
					{
						"indexed": true,
						"internalType": "bytes32",
						"name": "poolId",
						"type": "bytes32"
					},
					{
						"indexed": false,
						"internalType": "uint32",
						"name": "oldOperatorShare",
						"type": "uint32"
					},
					{
						"indexed": false,
						"internalType": "uint32",
						"name": "newOperatorShare",
						"type": "uint32"
					}
				],
				"name": "OperatorShareDecreased",
				"type": "event"
			},
			{
				"anonymous": false,
				"inputs": [
					{
						"indexed": true,
						"internalType": "address",
						"name": "previousOwner",
						"type": "address"
					},
					{
						"indexed": true,
						"internalType": "address",
						"name": "newOwner",
						"type": "address"
					}
				],
				"name": "OwnershipTransferred",
				"type": "event"
			},
			{
				"anonymous": false,
				"inputs": [
					{
						"indexed": false,
						"internalType": "uint256",
						"name": "epochDurationInSeconds",
						"type": "uint256"
					},
					{
						"indexed": false,
						"internalType": "uint32",
						"name": "rewardDelegatedStakeWeight",
						"type": "uint32"
					},
					{
						"indexed": false,
						"internalType": "uint256",
						"name": "minimumPoolStake",
						"type": "uint256"
					},
					{
						"indexed": false,
						"internalType": "uint256",
						"name": "cobbDouglasAlphaNumerator",
						"type": "uint256"
					},
					{
						"indexed": false,
						"internalType": "uint256",
						"name": "cobbDouglasAlphaDenominator",
						"type": "uint256"
					}
				],
				"name": "ParamsSet",
				"type": "event"
			},
			{
				"anonymous": false,
				"inputs": [
					{
						"indexed": false,
						"internalType": "address",
						"name": "exchangeAddress",
						"type": "address"
					}
				],
				"name": "PopAdded",
				"type": "event"
			},
			{
				"anonymous": false,
				"inputs": [
					{
						"indexed": false,
						"internalType": "address",
						"name": "exchangeAddress",
						"type": "address"
					}
				],
				"name": "PopRemoved",
				"type": "event"
			},
			{
				"anonymous": false,
				"inputs": [
					{
						"indexed": true,
						"internalType": "address",
						"name": "rbPoolAddress",
						"type": "address"
					},
					{
						"indexed": true,
						"internalType": "bytes32",
						"name": "poolId",
						"type": "bytes32"
					}
				],
				"name": "RbPoolStakingPoolSet",
				"type": "event"
			},
			{
				"anonymous": false,
				"inputs": [
					{
						"indexed": true,
						"internalType": "uint256",
						"name": "epoch",
						"type": "uint256"
					},
					{
						"indexed": true,
						"internalType": "bytes32",
						"name": "poolId",
						"type": "bytes32"
					},
					{
						"indexed": false,
						"internalType": "uint256",
						"name": "operatorReward",
						"type": "uint256"
					},
					{
						"indexed": false,
						"internalType": "uint256",
						"name": "membersReward",
						"type": "uint256"
					}
				],
				"name": "RewardsPaid",
				"type": "event"
			},
			{
				"anonymous": false,
				"inputs": [
					{
						"indexed": true,
						"internalType": "address",
						"name": "staker",
						"type": "address"
					},
					{
						"indexed": false,
						"internalType": "uint256",
						"name": "amount",
						"type": "uint256"
					}
				],
				"name": "Stake",
				"type": "event"
			},
			{
				"anonymous": false,
				"inputs": [
					{
						"indexed": false,
						"internalType": "bytes32",
						"name": "poolId",
						"type": "bytes32"
					},
					{
						"indexed": false,
						"internalType": "address",
						"name": "operator",
						"type": "address"
					},
					{
						"indexed": false,
						"internalType": "uint32",
						"name": "operatorShare",
						"type": "uint32"
					}
				],
				"name": "StakingPoolCreated",
				"type": "event"
			},
			{
				"anonymous": false,
				"inputs": [
					{
						"indexed": true,
						"internalType": "uint256",
						"name": "epoch",
						"type": "uint256"
					},
					{
						"indexed": true,
						"internalType": "bytes32",
						"name": "poolId",
						"type": "bytes32"
					}
				],
				"name": "StakingPoolEarnedRewardsInEpoch",
				"type": "event"
			},
			{
				"anonymous": false,
				"inputs": [
					{
						"indexed": true,
						"internalType": "address",
						"name": "staker",
						"type": "address"
					},
					{
						"indexed": false,
						"internalType": "uint256",
						"name": "amount",
						"type": "uint256"
					}
				],
				"name": "Unstake",
				"type": "event"
			},
			{
				"inputs": [
					{
						"internalType": "address",
						"name": "target",
						"type": "address"
					}
				],
				"name": "addAuthorizedAddress",
				"outputs": [],
				"stateMutability": "nonpayable",
				"type": "function"
			},
			{
				"inputs": [
					{
						"internalType": "address",
						"name": "addr",
						"type": "address"
					}
				],
				"name": "addPopAddress",
				"outputs": [],
				"stateMutability": "nonpayable",
				"type": "function"
			},
			{
				"inputs": [
					{
						"internalType": "uint256",
						"name": "",
						"type": "uint256"
					}
				],
				"name": "aggregatedStatsByEpoch",
				"outputs": [
					{
						"internalType": "uint256",
						"name": "rewardsAvailable",
						"type": "uint256"
					},
					{
						"internalType": "uint256",
						"name": "numPoolsToFinalize",
						"type": "uint256"
					},
					{
						"internalType": "uint256",
						"name": "totalFeesCollected",
						"type": "uint256"
					},
					{
						"internalType": "uint256",
						"name": "totalWeightedStake",
						"type": "uint256"
					},
					{
						"internalType": "uint256",
						"name": "totalRewardsFinalized",
						"type": "uint256"
					}
				],
				"stateMutability": "view",
				"type": "function"
			},
			{
				"inputs": [
					{
						"internalType": "uint256",
						"name": "",
						"type": "uint256"
					}
				],
				"name": "authorities",
				"outputs": [
					{
						"internalType": "address",
						"name": "",
						"type": "address"
					}
				],
				"stateMutability": "view",
				"type": "function"
			},
			{
				"inputs": [
					{
						"internalType": "address",
						"name": "",
						"type": "address"
					}
				],
				"name": "authorized",
				"outputs": [
					{
						"internalType": "bool",
						"name": "",
						"type": "bool"
					}
				],
				"stateMutability": "view",
				"type": "function"
			},
			{
				"inputs": [],
				"name": "cobbDouglasAlphaDenominator",
				"outputs": [
					{
						"internalType": "uint32",
						"name": "",
						"type": "uint32"
					}
				],
				"stateMutability": "view",
				"type": "function"
			},
			{
				"inputs": [],
				"name": "cobbDouglasAlphaNumerator",
				"outputs": [
					{
						"internalType": "uint32",
						"name": "",
						"type": "uint32"
					}
				],
				"stateMutability": "view",
				"type": "function"
			},
			{
				"inputs": [
					{
						"internalType": "bytes32",
						"name": "poolId",
						"type": "bytes32"
					},
					{
						"internalType": "address",
						"name": "member",
						"type": "address"
					}
				],
				"name": "computeRewardBalanceOfDelegator",
				"outputs": [
					{
						"internalType": "uint256",
						"name": "reward",
						"type": "uint256"
					}
				],
				"stateMutability": "view",
				"type": "function"
			},
			{
				"inputs": [
					{
						"internalType": "bytes32",
						"name": "poolId",
						"type": "bytes32"
					}
				],
				"name": "computeRewardBalanceOfOperator",
				"outputs": [
					{
						"internalType": "uint256",
						"name": "reward",
						"type": "uint256"
					}
				],
				"stateMutability": "view",
				"type": "function"
			},
			{
				"inputs": [
					{
						"internalType": "address",
						"name": "rigoblockPoolAddress",
						"type": "address"
					}
				],
				"name": "createStakingPool",
				"outputs": [
					{
						"internalType": "bytes32",
						"name": "poolId",
						"type": "bytes32"
					}
				],
				"stateMutability": "nonpayable",
				"type": "function"
			},
			{
				"inputs": [
					{
						"internalType": "address",
						"name": "poolAccount",
						"type": "address"
					},
					{
						"internalType": "uint256",
						"name": "popReward",
						"type": "uint256"
					}
				],
				"name": "creditPopReward",
				"outputs": [],
				"stateMutability": "payable",
				"type": "function"
			},
			{
				"inputs": [],
				"name": "currentEpoch",
				"outputs": [
					{
						"internalType": "uint256",
						"name": "",
						"type": "uint256"
					}
				],
				"stateMutability": "view",
				"type": "function"
			},
			{
				"inputs": [],
				"name": "currentEpochStartTimeInSeconds",
				"outputs": [
					{
						"internalType": "uint256",
						"name": "",
						"type": "uint256"
					}
				],
				"stateMutability": "view",
				"type": "function"
			},
			{
				"inputs": [
					{
						"internalType": "bytes32",
						"name": "poolId",
						"type": "bytes32"
					},
					{
						"internalType": "uint32",
						"name": "newOperatorShare",
						"type": "uint32"
					}
				],
				"name": "decreaseStakingPoolOperatorShare",
				"outputs": [],
				"stateMutability": "nonpayable",
				"type": "function"
			},
			{
				"inputs": [],
				"name": "endEpoch",
				"outputs": [
					{
						"internalType": "uint256",
						"name": "",
						"type": "uint256"
					}
				],
				"stateMutability": "nonpayable",
				"type": "function"
			},
			{
				"inputs": [],
				"name": "epochDurationInSeconds",
				"outputs": [
					{
						"internalType": "uint256",
						"name": "",
						"type": "uint256"
					}
				],
				"stateMutability": "view",
				"type": "function"
			},
			{
				"inputs": [
					{
						"internalType": "bytes32",
						"name": "poolId",
						"type": "bytes32"
					}
				],
				"name": "finalizePool",
				"outputs": [],
				"stateMutability": "nonpayable",
				"type": "function"
			},
			{
				"inputs": [],
				"name": "getAuthorizedAddresses",
				"outputs": [
					{
						"internalType": "address[]",
						"name": "",
						"type": "address[]"
					}
				],
				"stateMutability": "view",
				"type": "function"
			},
			{
				"inputs": [],
				"name": "getCurrentEpochEarliestEndTimeInSeconds",
				"outputs": [
					{
						"internalType": "uint256",
						"name": "",
						"type": "uint256"
					}
				],
				"stateMutability": "view",
				"type": "function"
			},
			{
				"inputs": [],
				"name": "getDragoRegistry",
				"outputs": [
					{
						"internalType": "contract IDragoRegistry",
						"name": "dragoRegistry",
						"type": "address"
					}
				],
				"stateMutability": "view",
				"type": "function"
			},
			{
				"inputs": [
					{
						"internalType": "enum IStructs.StakeStatus",
						"name": "stakeStatus",
						"type": "uint8"
					}
				],
				"name": "getGlobalStakeByStatus",
				"outputs": [
					{
						"components": [
							{
								"internalType": "uint64",
								"name": "currentEpoch",
								"type": "uint64"
							},
							{
								"internalType": "uint96",
								"name": "currentEpochBalance",
								"type": "uint96"
							},
							{
								"internalType": "uint96",
								"name": "nextEpochBalance",
								"type": "uint96"
							}
						],
						"internalType": "struct IStructs.StoredBalance",
						"name": "balance",
						"type": "tuple"
					}
				],
				"stateMutability": "view",
				"type": "function"
			},
			{
				"inputs": [],
				"name": "getGrgContract",
				"outputs": [
					{
						"internalType": "contract RigoTokenFace",
						"name": "grgContract",
						"type": "address"
					}
				],
				"stateMutability": "view",
				"type": "function"
			},
			{
				"inputs": [],
				"name": "getGrgVault",
				"outputs": [
					{
						"internalType": "contract IGrgVault",
						"name": "grgVault",
						"type": "address"
					}
				],
				"stateMutability": "view",
				"type": "function"
			},
			{
				"inputs": [
					{
						"internalType": "address",
						"name": "staker",
						"type": "address"
					},
					{
						"internalType": "enum IStructs.StakeStatus",
						"name": "stakeStatus",
						"type": "uint8"
					}
				],
				"name": "getOwnerStakeByStatus",
				"outputs": [
					{
						"components": [
							{
								"internalType": "uint64",
								"name": "currentEpoch",
								"type": "uint64"
							},
							{
								"internalType": "uint96",
								"name": "currentEpochBalance",
								"type": "uint96"
							},
							{
								"internalType": "uint96",
								"name": "nextEpochBalance",
								"type": "uint96"
							}
						],
						"internalType": "struct IStructs.StoredBalance",
						"name": "balance",
						"type": "tuple"
					}
				],
				"stateMutability": "view",
				"type": "function"
			},
			{
				"inputs": [],
				"name": "getParams",
				"outputs": [
					{
						"internalType": "uint256",
						"name": "_epochDurationInSeconds",
						"type": "uint256"
					},
					{
						"internalType": "uint32",
						"name": "_rewardDelegatedStakeWeight",
						"type": "uint32"
					},
					{
						"internalType": "uint256",
						"name": "_minimumPoolStake",
						"type": "uint256"
					},
					{
						"internalType": "uint32",
						"name": "_cobbDouglasAlphaNumerator",
						"type": "uint32"
					},
					{
						"internalType": "uint32",
						"name": "_cobbDouglasAlphaDenominator",
						"type": "uint32"
					}
				],
				"stateMutability": "view",
				"type": "function"
			},
			{
				"inputs": [
					{
						"internalType": "address",
						"name": "staker",
						"type": "address"
					},
					{
						"internalType": "bytes32",
						"name": "poolId",
						"type": "bytes32"
					}
				],
				"name": "getStakeDelegatedToPoolByOwner",
				"outputs": [
					{
						"components": [
							{
								"internalType": "uint64",
								"name": "currentEpoch",
								"type": "uint64"
							},
							{
								"internalType": "uint96",
								"name": "currentEpochBalance",
								"type": "uint96"
							},
							{
								"internalType": "uint96",
								"name": "nextEpochBalance",
								"type": "uint96"
							}
						],
						"internalType": "struct IStructs.StoredBalance",
						"name": "balance",
						"type": "tuple"
					}
				],
				"stateMutability": "view",
				"type": "function"
			},
			{
				"inputs": [
					{
						"internalType": "bytes32",
						"name": "poolId",
						"type": "bytes32"
					}
				],
				"name": "getStakingPool",
				"outputs": [
					{
						"components": [
							{
								"internalType": "address",
								"name": "operator",
								"type": "address"
							},
							{
								"internalType": "uint32",
								"name": "operatorShare",
								"type": "uint32"
							},
							{
								"internalType": "address",
								"name": "stakingPal",
								"type": "address"
							}
						],
						"internalType": "struct IStructs.Pool",
						"name": "",
						"type": "tuple"
					}
				],
				"stateMutability": "view",
				"type": "function"
			},
			{
				"inputs": [
					{
						"internalType": "bytes32",
						"name": "poolId",
						"type": "bytes32"
					}
				],
				"name": "getStakingPoolStatsThisEpoch",
				"outputs": [
					{
						"components": [
							{
								"internalType": "uint256",
								"name": "feesCollected",
								"type": "uint256"
							},
							{
								"internalType": "uint256",
								"name": "weightedStake",
								"type": "uint256"
							},
							{
								"internalType": "uint256",
								"name": "membersStake",
								"type": "uint256"
							}
						],
						"internalType": "struct IStructs.PoolStats",
						"name": "",
						"type": "tuple"
					}
				],
				"stateMutability": "view",
				"type": "function"
			},
			{
				"inputs": [
					{
						"internalType": "address",
						"name": "staker",
						"type": "address"
					}
				],
				"name": "getTotalStake",
				"outputs": [
					{
						"internalType": "uint256",
						"name": "",
						"type": "uint256"
					}
				],
				"stateMutability": "view",
				"type": "function"
			},
			{
				"inputs": [
					{
						"internalType": "bytes32",
						"name": "poolId",
						"type": "bytes32"
					}
				],
				"name": "getTotalStakeDelegatedToPool",
				"outputs": [
					{
						"components": [
							{
								"internalType": "uint64",
								"name": "currentEpoch",
								"type": "uint64"
							},
							{
								"internalType": "uint96",
								"name": "currentEpochBalance",
								"type": "uint96"
							},
							{
								"internalType": "uint96",
								"name": "nextEpochBalance",
								"type": "uint96"
							}
						],
						"internalType": "struct IStructs.StoredBalance",
						"name": "balance",
						"type": "tuple"
					}
				],
				"stateMutability": "view",
				"type": "function"
			},
			{
				"inputs": [],
				"name": "getWethContract",
				"outputs": [
					{
						"internalType": "contract IEtherToken",
						"name": "wethContract",
						"type": "address"
					}
				],
				"stateMutability": "view",
				"type": "function"
			},
			{
				"inputs": [],
				"name": "init",
				"outputs": [],
				"stateMutability": "nonpayable",
				"type": "function"
			},
			{
				"inputs": [
					{
						"internalType": "bytes32",
						"name": "poolId",
						"type": "bytes32"
					},
					{
						"internalType": "address",
						"name": "rigoblockPoolAccount",
						"type": "address"
					}
				],
				"name": "joinStakingPoolAsRbPoolAccount",
				"outputs": [],
				"stateMutability": "nonpayable",
				"type": "function"
			},
			{
				"inputs": [],
				"name": "lastPoolId",
				"outputs": [
					{
						"internalType": "bytes32",
						"name": "",
						"type": "bytes32"
					}
				],
				"stateMutability": "view",
				"type": "function"
			},
			{
				"inputs": [],
				"name": "minimumPoolStake",
				"outputs": [
					{
						"internalType": "uint256",
						"name": "",
						"type": "uint256"
					}
				],
				"stateMutability": "view",
				"type": "function"
			},
			{
				"inputs": [
					{
						"components": [
							{
								"internalType": "enum IStructs.StakeStatus",
								"name": "status",
								"type": "uint8"
							},
							{
								"internalType": "bytes32",
								"name": "poolId",
								"type": "bytes32"
							}
						],
						"internalType": "struct IStructs.StakeInfo",
						"name": "from",
						"type": "tuple"
					},
					{
						"components": [
							{
								"internalType": "enum IStructs.StakeStatus",
								"name": "status",
								"type": "uint8"
							},
							{
								"internalType": "bytes32",
								"name": "poolId",
								"type": "bytes32"
							}
						],
						"internalType": "struct IStructs.StakeInfo",
						"name": "to",
						"type": "tuple"
					},
					{
						"internalType": "uint256",
						"name": "amount",
						"type": "uint256"
					}
				],
				"name": "moveStake",
				"outputs": [],
				"stateMutability": "nonpayable",
				"type": "function"
			},
			{
				"inputs": [],
				"name": "owner",
				"outputs": [
					{
						"internalType": "address",
						"name": "",
						"type": "address"
					}
				],
				"stateMutability": "view",
				"type": "function"
			},
			{
				"inputs": [
					{
						"internalType": "address",
						"name": "",
						"type": "address"
					}
				],
				"name": "poolIdByRbPoolAccount",
				"outputs": [
					{
						"internalType": "bytes32",
						"name": "",
						"type": "bytes32"
					}
				],
				"stateMutability": "view",
				"type": "function"
			},
			{
				"inputs": [
					{
						"internalType": "bytes32",
						"name": "",
						"type": "bytes32"
					},
					{
						"internalType": "uint256",
						"name": "",
						"type": "uint256"
					}
				],
				"name": "poolStatsByEpoch",
				"outputs": [
					{
						"internalType": "uint256",
						"name": "feesCollected",
						"type": "uint256"
					},
					{
						"internalType": "uint256",
						"name": "weightedStake",
						"type": "uint256"
					},
					{
						"internalType": "uint256",
						"name": "membersStake",
						"type": "uint256"
					}
				],
				"stateMutability": "view",
				"type": "function"
			},
			{
				"inputs": [
					{
						"internalType": "address",
						"name": "target",
						"type": "address"
					}
				],
				"name": "removeAuthorizedAddress",
				"outputs": [],
				"stateMutability": "nonpayable",
				"type": "function"
			},
			{
				"inputs": [
					{
						"internalType": "address",
						"name": "target",
						"type": "address"
					},
					{
						"internalType": "uint256",
						"name": "index",
						"type": "uint256"
					}
				],
				"name": "removeAuthorizedAddressAtIndex",
				"outputs": [],
				"stateMutability": "nonpayable",
				"type": "function"
			},
			{
				"inputs": [
					{
						"internalType": "address",
						"name": "addr",
						"type": "address"
					}
				],
				"name": "removePopAddress",
				"outputs": [],
				"stateMutability": "nonpayable",
				"type": "function"
			},
			{
				"inputs": [],
				"name": "rewardDelegatedStakeWeight",
				"outputs": [
					{
						"internalType": "uint32",
						"name": "",
						"type": "uint32"
					}
				],
				"stateMutability": "view",
				"type": "function"
			},
			{
				"inputs": [
					{
						"internalType": "bytes32",
						"name": "",
						"type": "bytes32"
					}
				],
				"name": "rewardsByPoolId",
				"outputs": [
					{
						"internalType": "uint256",
						"name": "",
						"type": "uint256"
					}
				],
				"stateMutability": "view",
				"type": "function"
			},
			{
				"inputs": [
					{
						"internalType": "uint256",
						"name": "_epochDurationInSeconds",
						"type": "uint256"
					},
					{
						"internalType": "uint32",
						"name": "_rewardDelegatedStakeWeight",
						"type": "uint32"
					},
					{
						"internalType": "uint256",
						"name": "_minimumPoolStake",
						"type": "uint256"
					},
					{
						"internalType": "uint32",
						"name": "_cobbDouglasAlphaNumerator",
						"type": "uint32"
					},
					{
						"internalType": "uint32",
						"name": "_cobbDouglasAlphaDenominator",
						"type": "uint32"
					}
				],
				"name": "setParams",
				"outputs": [],
				"stateMutability": "nonpayable",
				"type": "function"
			},
			{
				"inputs": [
					{
						"internalType": "uint256",
						"name": "amount",
						"type": "uint256"
					}
				],
				"name": "stake",
				"outputs": [],
				"stateMutability": "nonpayable",
				"type": "function"
			},
			{
				"inputs": [],
				"name": "stakingContract",
				"outputs": [
					{
						"internalType": "address",
						"name": "",
						"type": "address"
					}
				],
				"stateMutability": "view",
				"type": "function"
			},
			{
				"inputs": [
					{
						"internalType": "address",
						"name": "newOwner",
						"type": "address"
					}
				],
				"name": "transferOwnership",
				"outputs": [],
				"stateMutability": "nonpayable",
				"type": "function"
			},
			{
				"inputs": [
					{
						"internalType": "uint256",
						"name": "amount",
						"type": "uint256"
					}
				],
				"name": "unstake",
				"outputs": [],
				"stateMutability": "nonpayable",
				"type": "function"
			},
			{
				"inputs": [
					{
						"internalType": "address",
						"name": "",
						"type": "address"
					}
				],
				"name": "validPops",
				"outputs": [
					{
						"internalType": "bool",
						"name": "",
						"type": "bool"
					}
				],
				"stateMutability": "view",
				"type": "function"
			},
			{
				"inputs": [],
				"name": "wethReservedForPoolRewards",
				"outputs": [
					{
						"internalType": "uint256",
						"name": "",
						"type": "uint256"
					}
				],
				"stateMutability": "view",
				"type": "function"
			},
			{
				"inputs": [
					{
						"internalType": "bytes32",
						"name": "poolId",
						"type": "bytes32"
					}
				],
				"name": "withdrawDelegatorRewards",
				"outputs": [],
				"stateMutability": "nonpayable",
				"type": "function"
			}
		],
		"devdoc": {
			"kind": "dev",
			"methods": {
				"addAuthorizedAddress(address)": {
					"details": "Authorizes an address.",
					"params": {
						"target": "Address to authorize."
					}
				},
				"addPopAddress(address)": {
					"details": "Adds a new pop address.",
					"params": {
						"addr": "Address of pop contract to add."
					}
				},
				"computeRewardBalanceOfDelegator(bytes32,address)": {
					"details": "Computes the reward balance in ETH of a specific member of a pool.",
					"params": {
						"member": "The member of the pool.",
						"poolId": "Unique id of pool."
					},
					"returns": {
						"reward": "totalReward Balance in ETH."
					}
				},
				"computeRewardBalanceOfOperator(bytes32)": {
					"details": "Computes the reward balance in ETH of the operator of a pool.",
					"params": {
						"poolId": "Unique id of pool."
					},
					"returns": {
						"reward": "totalReward Balance in ETH."
					}
				},
				"createStakingPool(address)": {
					"details": "Create a new staking pool. The sender will be the operator of this pool. Note that an operator must be payable.",
					"params": {
						"rigoblockPoolAddress": "Adds rigoblock pool to the created staking pool for convenience if non-null."
					},
					"returns": {
						"poolId": "The unique pool id generated for this pool."
					}
				},
				"creditPopReward(address,uint256)": {
					"details": "Credits the value of a pool's pop reward.      Only a known RigoBlock pop can call this method. See      (MixinPopManager).",
					"params": {
						"poolAccount": "The address of the rigoblock pool account.",
						"popReward": "The pop reward."
					}
				},
				"decreaseStakingPoolOperatorShare(bytes32,uint32)": {
					"details": "Decreases the operator share for the given pool (i.e. increases pool rewards for members).",
					"params": {
						"newOperatorShare": "The newly decreased percentage of any rewards owned by the operator.",
						"poolId": "Unique Id of pool."
					}
				},
				"endEpoch()": {
					"details": "Begins a new epoch, preparing the prior one for finalization.      Throws if not enough time has passed between epochs or if the      previous epoch was not fully finalized.",
					"returns": {
						"_0": "numPoolsToFinalize The number of unfinalized pools."
					}
				},
				"finalizePool(bytes32)": {
					"details": "Instantly finalizes a single pool that earned rewards in the previous      epoch, crediting it rewards for members and withdrawing operator's      rewards as WETH. This can be called by internal functions that need      to finalize a pool immediately. Does nothing if the pool is already      finalized or did not earn rewards in the previous epoch.",
					"params": {
						"poolId": "The pool ID to finalize."
					}
				},
				"getAuthorizedAddresses()": {
					"details": "Gets all authorized addresses.",
					"returns": {
						"_0": "Array of authorized addresses."
					}
				},
				"getCurrentEpochEarliestEndTimeInSeconds()": {
					"details": "Returns the earliest end time in seconds of this epoch.      The next epoch can begin once this time is reached.      Epoch period = [startTimeInSeconds..endTimeInSeconds)",
					"returns": {
						"_0": "Time in seconds."
					}
				},
				"getDragoRegistry()": {
					"details": "An overridable way to access the deployed dragoRegistry.      Must be view to allow overrides to access state.",
					"returns": {
						"dragoRegistry": "The dragoRegistry contract."
					}
				},
				"getGlobalStakeByStatus(uint8)": {
					"details": "Gets global stake for a given status.",
					"params": {
						"stakeStatus": "UNDELEGATED or DELEGATED"
					},
					"returns": {
						"balance": "Global stake for given status."
					}
				},
				"getGrgContract()": {
					"details": "An overridable way to access the deployed GRG contract.      Must be view to allow overrides to access state.",
					"returns": {
						"grgContract": "The GRG contract instance."
					}
				},
				"getGrgVault()": {
					"details": "An overridable way to access the deployed grgVault.      Must be view to allow overrides to access state.",
					"returns": {
						"grgVault": "The grgVault contract."
					}
				},
				"getOwnerStakeByStatus(address,uint8)": {
					"details": "Gets an owner's stake balances by status.",
					"params": {
						"stakeStatus": "UNDELEGATED or DELEGATED",
						"staker": "Owner of stake."
					},
					"returns": {
						"balance": "Owner's stake balances for given status."
					}
				},
				"getParams()": {
					"details": "Retrieves all configurable parameter values.",
					"returns": {
						"_cobbDouglasAlphaDenominator": "Denominator for cobb douglas alpha factor.",
						"_cobbDouglasAlphaNumerator": "Numerator for cobb douglas alpha factor.",
						"_epochDurationInSeconds": "Minimum seconds between epochs.",
						"_minimumPoolStake": "Minimum amount of stake required in a pool to collect rewards.",
						"_rewardDelegatedStakeWeight": "How much delegated stake is weighted vs operator stake, in ppm."
					}
				},
				"getStakeDelegatedToPoolByOwner(address,bytes32)": {
					"details": "Returns the stake delegated to a specific staking pool, by a given staker.",
					"params": {
						"poolId": "Unique Id of pool.",
						"staker": "of stake."
					},
					"returns": {
						"balance": "Stake delegated to pool by staker."
					}
				},
				"getStakingPool(bytes32)": {
					"details": "Returns a staking pool",
					"params": {
						"poolId": "Unique id of pool."
					}
				},
				"getStakingPoolStatsThisEpoch(bytes32)": {
					"details": "Get stats on a staking pool in this epoch.",
					"params": {
						"poolId": "Pool Id to query."
					},
					"returns": {
						"_0": "PoolStats struct for pool id."
					}
				},
				"getTotalStake(address)": {
					"details": "Returns the total stake for a given staker.",
					"params": {
						"staker": "of stake."
					},
					"returns": {
						"_0": "Total GRG staked by `staker`."
					}
				},
				"getTotalStakeDelegatedToPool(bytes32)": {
					"details": "Returns the total stake delegated to a specific staking pool,      across all members.",
					"params": {
						"poolId": "Unique Id of pool."
					},
					"returns": {
						"balance": "Total stake delegated to pool."
					}
				},
				"getWethContract()": {
					"details": "An overridable way to access the deployed WETH contract.      Must be view to allow overrides to access state.",
					"returns": {
						"wethContract": "The WETH contract instance."
					}
				},
				"init()": {
					"details": "Initialize storage owned by this contract.      This function should not be called directly.      The StakingProxy contract will call it in `attachStakingContract()`."
				},
				"joinStakingPoolAsRbPoolAccount(bytes32,address)": {
					"details": "Allows caller to join a staking pool as a rigoblock pool account.",
					"params": {
						"poolId": "Unique id of pool.",
						"rigoblockPoolAccount": "Address of subaccount to be added to staking pool."
					}
				},
				"moveStake((uint8,bytes32),(uint8,bytes32),uint256)": {
					"details": "Moves stake between statuses: 'undelegated' or 'delegated'.      Delegated stake can also be moved between pools.      This change comes into effect next epoch.",
					"params": {
						"amount": "Amount of stake to move.",
						"from": "Status to move stake out of.",
						"to": "Status to move stake into."
					}
				},
				"removeAuthorizedAddress(address)": {
					"details": "Removes authorizion of an address.",
					"params": {
						"target": "Address to remove authorization from."
					}
				},
				"removeAuthorizedAddressAtIndex(address,uint256)": {
					"details": "Removes authorizion of an address.",
					"params": {
						"index": "Index of target in authorities array.",
						"target": "Address to remove authorization from."
					}
				},
				"removePopAddress(address)": {
					"details": "Removes an existing proof_of_performance address.",
					"params": {
						"addr": "Address of proof_of_performance contract to remove."
					}
				},
				"setParams(uint256,uint32,uint256,uint32,uint32)": {
					"details": "Set all configurable parameters at once.",
					"params": {
						"_cobbDouglasAlphaDenominator": "Denominator for cobb douglas alpha factor.",
						"_cobbDouglasAlphaNumerator": "Numerator for cobb douglas alpha factor.",
						"_epochDurationInSeconds": "Minimum seconds between epochs.",
						"_minimumPoolStake": "Minimum amount of stake required in a pool to collect rewards.",
						"_rewardDelegatedStakeWeight": "How much delegated stake is weighted vs operator stake, in ppm."
					}
				},
				"stake(uint256)": {
					"details": "Stake GRG tokens. Tokens are deposited into the GRG Vault.      Unstake to retrieve the GRG. Stake is in the 'Active' status.",
					"params": {
						"amount": "Amount of GRG to stake."
					}
				},
				"transferOwnership(address)": {
					"details": "Change the owner of this contract.",
					"params": {
						"newOwner": "New owner address."
					}
				},
				"unstake(uint256)": {
					"details": "Unstake. Tokens are withdrawn from the GRG Vault and returned to      the staker. Stake must be in the 'undelegated' status in both the      current and next epoch in order to be unstaked.",
					"params": {
						"amount": "Amount of GRG to unstake."
					}
				},
				"withdrawDelegatorRewards(bytes32)": {
					"details": "Withdraws the caller's WETH rewards that have accumulated      until the last epoch.",
					"params": {
						"poolId": "Unique id of pool."
					}
				}
			},
			"version": 1
		},
		"evm": {
			"bytecode": {
				"linkReferences": {},
				"object": "0x608060405234801561001057600080fd5b50600080546001600160a01b0319163317905561621880620000336000396000f3fe60806040526004361061033f5760003560e01c80639ad26744116101b0578063d39de6e9116100ec578063e907f00311610095578063ef4ba6801161006f578063ef4ba6801461090a578063f252b7a11461091f578063f2fde38b1461093f578063ff691b111461095f5761033f565b8063e907f003146108c2578063ecc128f2146108e2578063ee99205c146108f55761033f565b8063e1c7392a116100c6578063e1c7392a14610878578063e804d0a41461088d578063e8eeb3f8146108ad5761033f565b8063d39de6e91461082c578063e0822db71461084e578063e0ee036e146108635761033f565b8063b2baa33e11610159578063b918161111610133578063b9181611146107ac578063bb7ef7e0146107cc578063be111af4146107ec578063c18c91411461080c5761033f565b8063b2baa33e14610762578063b510879f14610777578063b652b41f146107975761033f565b8063a657e5791161018a578063a657e57914610718578063a694fc3a1461072d578063b05315241461074d5761033f565b80639ad26744146106c35780639c3ccc82146106e3578063a26171e2146107035761033f565b8063494503d41161027f5780635e615a6b11610228578063766718081161020257806376671808146106575780637fa140c71461066c578063816667961461068c5780638da5cb5b146106ae5761033f565b80635e615a6b146105fc578063634038011461062257806370712939146106375761033f565b8063587da02311610259578063587da023146105a757806358f6c7e3146105bc5780635d91121d146105dc5761033f565b8063494503d41461052d5780634bcc3f671461054d578063540c2d531461057a5761033f565b806336d7dd8e116102ec5780633e4ad732116102c65780633e4ad7321461049357806342f1181e146104c057806344a6958b146104e057806346b97959146105005761033f565b806336d7dd8e1461042057806338229d93146104405780633c277fc5146104715761033f565b80631f81eb801161031d5780631f81eb80146103b15780632a94c279146103d15780632e17de78146104005761033f565b80630b9663db146103445780631a67a0a01461036f5780631e7ff8f614610391575b600080fd5b34801561035057600080fd5b5061035961097f565b6040516103669190615f04565b60405180910390f35b34801561037b57600080fd5b5061038f61038a366004615cca565b610aca565b005b34801561039d57600080fd5b506103596103ac366004615b44565b610ca5565b3480156103bd57600080fd5b5061038f6103cc366004615b44565b610d3f565b3480156103dd57600080fd5b506103f16103ec366004615cf9565b610e09565b60405161036693929190616100565b34801561040c57600080fd5b5061038f61041b366004615cb2565b610e35565b34801561042c57600080fd5b5061038f61043b366004615b44565b610fea565b34801561044c57600080fd5b5061046061045b366004615cb2565b6110b0565b604051610366959493929190616131565b34801561047d57600080fd5b506104866110df565b6040516103669190615e58565b34801561049f57600080fd5b506104b36104ae366004615cb2565b6110f7565b60405161036691906160c1565b3480156104cc57600080fd5b5061038f6104db366004615b44565b611116565b3480156104ec57600080fd5b506104b36104fb366004615ba7565b61112a565b34801561050c57600080fd5b5061052061051b366004615cb2565b611189565b6040516103669190616060565b34801561053957600080fd5b50610486610548366004615cb2565b6111d4565b34801561055957600080fd5b5061056d610568366004615cb2565b61120b565b6040516103669190616081565b34801561058657600080fd5b5061059a610595366004615b44565b611283565b6040516103669190615ef9565b3480156105b357600080fd5b50610359611298565b3480156105c857600080fd5b5061038f6105d7366004615d56565b61129e565b3480156105e857600080fd5b5061038f6105f7366004615d1a565b61149b565b34801561060857600080fd5b50610611611564565b604051610366959493929190616154565b34801561062e57600080fd5b5061035961158d565b34801561064357600080fd5b5061038f610652366004615b44565b611593565b34801561066357600080fd5b50610359611648565b34801561067857600080fd5b50610359610687366004615b44565b61164e565b34801561069857600080fd5b506106a1611660565b6040516103669190616198565b3480156106ba57600080fd5b5061048661166c565b3480156106cf57600080fd5b5061038f6106de366004615c80565b611688565b3480156106ef57600080fd5b5061038f6106fe366004615e02565b61169a565b34801561070f57600080fd5b50610359611714565b34801561072457600080fd5b5061035961171a565b34801561073957600080fd5b5061038f610748366004615cb2565b611720565b34801561075957600080fd5b50610359611835565b34801561076e57600080fd5b5061035961183b565b34801561078357600080fd5b5061038f610792366004615cb2565b611859565b3480156107a357600080fd5b50610486611863565b3480156107b857600080fd5b5061059a6107c7366004615b44565b61187b565b3480156107d857600080fd5b506103596107e7366004615cb2565b611890565b3480156107f857600080fd5b50610359610807366004615b44565b61192b565b34801561081857600080fd5b50610359610827366004615cb2565b611b91565b34801561083857600080fd5b50610841611ba3565b6040516103669190615e9f565b34801561085a57600080fd5b50610486611c12565b34801561086f57600080fd5b506106a1611c2a565b34801561088457600080fd5b5061038f611c36565b34801561089957600080fd5b506104b36108a8366004615d3c565b611c50565b3480156108b957600080fd5b506106a1611d9a565b3480156108ce57600080fd5b506103596108dd366004615cca565b611dae565b61038f6108f0366004615c80565b611e5b565b34801561090157600080fd5b50610486611fb8565b34801561091657600080fd5b50610486611fd4565b34801561092b57600080fd5b506104b361093a366004615b7c565b611fec565b34801561094b57600080fd5b5061038f61095a366004615b44565b61202d565b34801561096b57600080fd5b5061038f61097a366004615cb2565b6120d0565b600c546000908161099182600161243b565b60008181526016602052604090206001015490915080156109be576109be6109b9838361245a565b6124cd565b6109c66124d5565b6109ce612547565b6000848152601660205260409020556109e56159cb565b50600083815260166020908152604091829020825160a08101845281548082526001830154938201849052600283015482860181905260038401546060840181905260049094015460808401529451919488947fbb4a26fa0ace13ee4da343896c20eaa44a618fb9071fdd8c2e2c960a4583189d94610a679491939291616116565b60405180910390a2610a776125df565b6020810151610abe57805160405185917fb463d19ecf455be65365092cf8e1db6934a0334cf8cd532ddf9964d01f36b5b291610ab591600091615f3f565b60405180910390a25b60200151935050505090565b600080610ad5611863565b6040517fc277f1ac00000000000000000000000000000000000000000000000000000000815273ffffffffffffffffffffffffffffffffffffffff919091169063c277f1ac90610b29908790600401615f04565b60006040518083038186803b158015610b4157600080fd5b505afa158015610b55573d6000803e3d6000fd5b505050506040513d6000823e601f3d9081017fffffffffffffffffffffffffffffffffffffffffffffffffffffffffffffffe0168201604052610b9b9190810190615bdb565b50509350505091506000811415610be7576040517f08c379a0000000000000000000000000000000000000000000000000000000008152600401610bde90615f4d565b60405180910390fd5b8273ffffffffffffffffffffffffffffffffffffffff168273ffffffffffffffffffffffffffffffffffffffff1614610c4c576040517f08c379a0000000000000000000000000000000000000000000000000000000008152600401610bde90615fbb565b73ffffffffffffffffffffffffffffffffffffffff8083166000908152600960205260408082208790555186928616917fe8b9f7ee7a4480d45b60e98f7b2090dd82e2353b8557a6ee2dd2d5ee9196bac291a350505050565b6000610caf611c12565b73ffffffffffffffffffffffffffffffffffffffff166370a08231836040518263ffffffff1660e01b8152600401610ce79190615e58565b60206040518083038186803b158015610cff57600080fd5b505afa158015610d13573d6000803e3d6000fd5b505050506040513d601f19601f82011682018060405250810190610d379190615d93565b90505b919050565b610d4761261c565b73ffffffffffffffffffffffffffffffffffffffff811660009081526010602052604090205460ff1615610d8357610d836109b960008361263f565b73ffffffffffffffffffffffffffffffffffffffff811660008181526010602090815260409182902080547fffffffffffffffffffffffffffffffffffffffffffffffffffffffffffffff00166001179055815192835290517f5738ee3c8e8fe8b0b9c4c21b16fdca42ec02e271237dfeabbf3b5af1584d732b9281900390910190a150565b601560209081526000928352604080842090915290825290208054600182015460029092015490919083565b33610e3e6159fa565b73ffffffffffffffffffffffffffffffffffffffff821660009081527f05b8ccbb9d4d8fb16ea74ce3c29a41f1b461fbdaff4714a0d9a8eb05499746bc60205260409020610e8b906126e7565b90506000610ebd82602001516bffffffffffffffffffffffff1683604001516bffffffffffffffffffffffff1661278d565b905080841115610ed457610ed46109b985836127a3565b73ffffffffffffffffffffffffffffffffffffffff831660009081527f05b8ccbb9d4d8fb16ea74ce3c29a41f1b461fbdaff4714a0d9a8eb05499746bc60205260409020610f229085612816565b610f2a611c12565b73ffffffffffffffffffffffffffffffffffffffff16639470b0bd84866040518363ffffffff1660e01b8152600401610f64929190615e79565b600060405180830381600087803b158015610f7e57600080fd5b505af1158015610f92573d6000803e3d6000fd5b505050508273ffffffffffffffffffffffffffffffffffffffff167f85082129d87b2fe11527cb1b3b7a520aeb5aa6913f88a3d8757fe40d1db02fdd85604051610fdc9190615f04565b60405180910390a250505050565b610ff261261c565b73ffffffffffffffffffffffffffffffffffffffff811660009081526010602052604090205460ff1661102d5761102d6109b960018361263f565b73ffffffffffffffffffffffffffffffffffffffff811660008181526010602090815260409182902080547fffffffffffffffffffffffffffffffffffffffffffffffffffffffffffffff00169055815192835290517f9bf55462cb5fa187f725d06de0a70bc01c4e40695570bdc25ad116f9be46bda79281900390910190a150565b601660205260009081526040902080546001820154600283015460038401546004909401549293919290919085565b73c02aaa39b223fe8d0a0e5c4f27ead9083c756cc290565b6110ff6159fa565b6000828152600760205260409020610d37906126e7565b61111e612897565b611127816128de565b50565b6111326159fa565b6111806005600084600181111561114557fe5b60ff1681526020808201929092526040908101600090812073ffffffffffffffffffffffffffffffffffffffff8816825290925290206126e7565b90505b92915050565b611191615a1a565b506000908152601560209081526040808320600c548452825291829020825160608101845281548152600182015492810192909252600201549181019190915290565b600281815481106111e457600080fd5b60009182526020909120015473ffffffffffffffffffffffffffffffffffffffff16905081565b6112136159fa565b506000908152600a60209081526040918290208251606081018452815473ffffffffffffffffffffffffffffffffffffffff80821683527401000000000000000000000000000000000000000090910463ffffffff16938201939093526001909101549091169181019190915290565b60106020526000908152604090205460ff1681565b600d5481565b33816112aa5750611496565b60006112b96020860186615d3c565b60018111156112c457fe5b1480156112e8575060006112db6020850185615d3c565b60018111156112e657fe5b145b156112f35750611496565b60016113026020860186615d3c565b600181111561130d57fe5b14156113225761132284602001358284612a0f565b60016113316020850185615d3c565b600181111561133c57fe5b14156113515761135183602001358284612aa8565b60006005816113636020880188615d3c565b600181111561136e57fe5b60ff1681526020808201929092526040908101600090812073ffffffffffffffffffffffffffffffffffffffff86168252835290812092509060059082906113b890880188615d3c565b60018111156113c357fe5b60ff1681526020808201929092526040908101600090812073ffffffffffffffffffffffffffffffffffffffff8716825290925290209050611406828286612b41565b60208086013590870180359073ffffffffffffffffffffffffffffffffffffffff8616907f7d3ad1dcf03b9027064d1d9a474a69e0cecc31324c541d3eb9b5e6fa2f106c8d908890611458908c615d3c565b600181111561146357fe5b61147060208c018c615d3c565b600181111561147b57fe5b60405161148a9392919061617f565b60405180910390a45050505b505050565b816114a581612c2e565b6000838152600a602052604090205474010000000000000000000000000000000000000000900463ffffffff166114dd848285612c67565b6000848152600a60205260409081902080547fffffffffffffffff00000000ffffffffffffffffffffffffffffffffffffffff167401000000000000000000000000000000000000000063ffffffff8716021790555184907f8ea2a7a959bd25f226b7b0a4393613f7fdcaa8404e8bad96aa52dc1c1459016790610fdc90849087906161a9565b601154601254601354601454929363ffffffff9283169391928281169264010000000090041690565b60115481565b61159b612897565b73ffffffffffffffffffffffffffffffffffffffff811660009081526001602052604090205460ff166115d4576115d46109b982612caf565b60005b600254811015611644578173ffffffffffffffffffffffffffffffffffffffff166002828154811061160557fe5b60009182526020909120015473ffffffffffffffffffffffffffffffffffffffff16141561163c576116378282612d32565b611644565b6001016115d7565b5050565b600c5481565b60096020526000908152604090205481565b60145463ffffffff1681565b60005473ffffffffffffffffffffffffffffffffffffffff1681565b611690612897565b6116448282612d32565b6116a261261c565b6116af8585858585612fad565b3073ffffffffffffffffffffffffffffffffffffffff1663c6f3a4276040518163ffffffff1660e01b815260040160006040518083038186803b1580156116f557600080fd5b505afa158015611709573d6000803e3d6000fd5b505050505050505050565b60135481565b60085481565b33611729611c12565b73ffffffffffffffffffffffffffffffffffffffff166315cc36f282846040518363ffffffff1660e01b8152600401611763929190615e79565b600060405180830381600087803b15801561177d57600080fd5b505af1158015611791573d6000803e3d6000fd5b5050505073ffffffffffffffffffffffffffffffffffffffff811660009081527f05b8ccbb9d4d8fb16ea74ce3c29a41f1b461fbdaff4714a0d9a8eb05499746bc602052604090206117e39083613083565b8073ffffffffffffffffffffffffffffffffffffffff167febedb8b3c678666e7f36970bc8f57abf6d8fa2e828c0da91ea5b75bf68ed101a836040516118299190615f04565b60405180910390a25050565b60175481565b6000611854601154600d546130e390919063ffffffff16565b905090565b61112781336130ff565b73de6445484a8dcd9bf35fc95eb4e3990cc358822e90565b60016020526000908152604090205460ff1681565b600061189a6159fa565b506000828152600a602090815260408083208151606081018352815473ffffffffffffffffffffffffffffffffffffffff80821683527401000000000000000000000000000000000000000090910463ffffffff169482019490945260019091015490921690820152908061190e856132d7565b91509150611921836020015183836132ed565b5095945050505050565b6000806000611938611863565b73ffffffffffffffffffffffffffffffffffffffff1663b72e717d856040518263ffffffff1660e01b81526004016119709190615e58565b60006040518083038186803b15801561198857600080fd5b505afa15801561199c573d6000803e3d6000fd5b505050506040513d6000823e601f3d9081017fffffffffffffffffffffffffffffffffffffffffffffffffffffffffffffffe01682016040526119e29190810190615dab565b50945050505091506000821415611a25576040517f08c379a0000000000000000000000000000000000000000000000000000000008152600401610bde90615ff2565b80600073ffffffffffffffffffffffffffffffffffffffff82163314611a485750335b620aae60611a5585613328565b8460001b9550611a6986620f424083612c67565b611a716159fa565b506040805160608101825273ffffffffffffffffffffffffffffffffffffffff808616825263ffffffff808516602080850191825287841685870190815260008d8152600a9092529086902085518154935190941674010000000000000000000000000000000000000000027fffffffffffffffff00000000ffffffffffffffffffffffffffffffffffffffff9486167fffffffffffffffffffffffff00000000000000000000000000000000000000009485161794909416939093178355516001909201805492909316911617905590517fcec6fc86ea644053f6edff1160dfe3fa5c61e7a5ef9f873f145bb03a0bd319e790611b7490899087908690615f0d565b60405180910390a1611b868789610aca565b505050505050919050565b600b6020526000908152604090205481565b60606002805480602002602001604051908101604052809291908181526020018280548015611c0857602002820191906000526020600020905b815473ffffffffffffffffffffffffffffffffffffffff168152600190910190602001808311611bdd575b5050505050905090565b73ba7f8b5fb1b19c1211c5d49550fcd149177a5eaf90565b60125463ffffffff1681565b611c3e61261c565b611c46613360565b611c4e613373565b565b611c586159fa565b60016000526004602052611c8b7fabd6e7cb50984ff9c2f3e18a2660c3353dadf4e3291deeb275dae2cd1e44fe056126e7565b90506000826001811115611c9b57fe5b1415610d3a576000611cab611c12565b73ffffffffffffffffffffffffffffffffffffffff16636b6df5aa6040518163ffffffff1660e01b815260040160206040518083038186803b158015611cf057600080fd5b505afa158015611d04573d6000803e3d6000fd5b505050506040513d601f19601f82011682018060405250810190611d289190615d93565b9050611d57611d5283602001516bffffffffffffffffffffffff168361243b90919063ffffffff16565b61339e565b6bffffffffffffffffffffffff90811660208401526040830151611d8191611d529184911661243b565b6bffffffffffffffffffffffff16604083015250919050565b601454640100000000900463ffffffff1681565b6000611db86159fa565b506000838152600a602090815260408083208151606081018352815473ffffffffffffffffffffffffffffffffffffffff80821683527401000000000000000000000000000000000000000090910463ffffffff1694820194909452600190910154909216908201529080611e2c866132d7565b915091506000611e41846020015184846132ed565b915050611e50878783856133c2565b979650505050505050565b3360009081526010602052604090205460ff16611e7e57611e7e6109b933613503565b73ffffffffffffffffffffffffffffffffffffffff821660009081526009602052604090205480611eaf5750611644565b6000611eba826110f7565b602001516bffffffffffffffffffffffff169050601354811015611edf575050611644565b600c54600083815260156020908152604080832084845282528083206016909252909120815480611f8257600080611f178888613586565b600287018290556001870181905560038601549193509150611f3990826130e3565b6003850155600180850154611f4d916130e3565b6001850155604051889087907f14b098103235344975b17508c2391721cc9ac3f3fa2b56c7ff46f8480dfd074f90600090a350505b80871115611fae578683556002820154611fa8908290611fa2908a6130e3565b9061243b565b60028301555b5050505050505050565b60035473ffffffffffffffffffffffffffffffffffffffff1681565b734fbb350052bca5417566f188eb2ebce5b19bc96490565b611ff46159fa565b73ffffffffffffffffffffffffffffffffffffffff831660009081526006602090815260408083208584529091529020611180906126e7565b612035612897565b73ffffffffffffffffffffffffffffffffffffffff81166120605761205b6109b9613606565b611127565b600080547fffffffffffffffffffffffff00000000000000000000000000000000000000001673ffffffffffffffffffffffffffffffffffffffff83169081178255604051909133917f8be0079c531659141344cd1fd0a4f28419497f9722a3daafe3b4186f6b6457e09190a350565b6120d93361363d565b156120e6576120e661261c565b600c5460006120f682600161243b565b90506121006159cb565b50600081815260166020908152604091829020825160a0810184528154815260018201549281018390526002820154938101939093526003810154606084015260040154608083015261215557505050611127565b61215d615a1a565b50600084815260156020908152604080832085845282529182902082516060810184528154808252600183015493820193909352600290910154928101929092526121ab5750505050611127565b60008581526015602090815260408083208684529091528120818155600181018290556002018190556121de8284613643565b90506000806121f2888486604001516137c4565b9150915087877ff1116b309178aa62dcb6bf8c3b8bc2321724907c7ebf52192d14c8ce3aa9194c8484604051612229929190615f3f565b60405180910390a3600061223d83836130e3565b9050612247611fd4565b73ffffffffffffffffffffffffffffffffffffffff1663075461726040518163ffffffff1660e01b815260040160206040518083038186803b15801561228c57600080fd5b505afa1580156122a0573d6000803e3d6000fd5b505050506040513d601f19601f820116820180604052508101906122c49190615b60565b73ffffffffffffffffffffffffffffffffffffffff16637fa36e408a836040518363ffffffff1660e01b81526004016122fe929190615f3f565b602060405180830381600087803b15801561231857600080fd5b505af115801561232c573d6000803e3d6000fd5b505050506040513d601f19601f820116820180604052508101906123509190615c92565b612386576040517f08c379a0000000000000000000000000000000000000000000000000000000008152600401610bde90615f84565b608086015161239590826130e3565b608087018190526000888152601660209081526040909120600401919091558601516123c290600161243b565b602080880182815260008a8152601690925260409091206001019190915551611709576080860151865188917fb463d19ecf455be65365092cf8e1db6934a0334cf8cd532ddf9964d01f36b5b29161241a908261243b565b604051612428929190615f3f565b60405180910390a2505050505050505050565b600082821115612454576124546109b960028585613927565b50900390565b604080516024810184905260448082018490528251808303909101815260649091019091526020810180517bffffffffffffffffffffffffffffffffffffffffffffffffffffffff167f614b800a0000000000000000000000000000000000000000000000000000000017905292915050565b805160208201fd5b478015611127576124e46110df565b73ffffffffffffffffffffffffffffffffffffffff1663d0e30db0826040518263ffffffff1660e01b81526004016000604051808303818588803b15801561252b57600080fd5b505af115801561253f573d6000803e3d6000fd5b505050505050565b60006118546017546125576110df565b73ffffffffffffffffffffffffffffffffffffffff166370a08231306040518263ffffffff1660e01b815260040161258f9190615e58565b60206040518083038186803b1580156125a757600080fd5b505afa1580156125bb573d6000803e3d6000fd5b505050506040513d601f19601f82011682018060405250810190611fa29190615d93565b4260006125ea61183b565b905081811115612601576126016109b982846139c3565b600c546000906126129060016130e3565b600c555050600d55565b3360009081526001602052604090205460ff16611c4e57611c4e6109b933613a36565b606063b9588e4360e01b83836040516024018083600181111561265e57fe5b815273ffffffffffffffffffffffffffffffffffffffff90921660208084019190915260408051808503830181529381019052820180517bffffffffffffffffffffffffffffffffffffffffffffffffffffffff167fffffffff000000000000000000000000000000000000000000000000000000009095169490941790935295945050505050565b6126ef6159fa565b5060408051606081018252825467ffffffffffffffff81168083526bffffffffffffffffffffffff680100000000000000008304811660208501527401000000000000000000000000000000000000000090920490911692820192909252600c5490918111156127875761276281613ab9565b67ffffffffffffffff16825260408201516bffffffffffffffffffffffff1660208301525b50919050565b600081831061279c5781611180565b5090919050565b604080516024810184905260448082018490528251808303909101815260649091019091526020810180517bffffffffffffffffffffffffffffffffffffffffffffffffffffffff167f84c8b7c90000000000000000000000000000000000000000000000000000000017905292915050565b61281e6159fa565b612827836126e7565b9050612851611d528383604001516bffffffffffffffffffffffff1661243b90919063ffffffff16565b6bffffffffffffffffffffffff9081166040830152602082015161287a91611d5291168461243b565b6bffffffffffffffffffffffff1660208201526114968382613ad9565b60005473ffffffffffffffffffffffffffffffffffffffff163314611c4e57600054611c4e906109b990339073ffffffffffffffffffffffffffffffffffffffff16613b93565b73ffffffffffffffffffffffffffffffffffffffff8116612904576129046109b9613c1f565b73ffffffffffffffffffffffffffffffffffffffff811660009081526001602052604090205460ff161561293e5761293e6109b982613c56565b73ffffffffffffffffffffffffffffffffffffffff8116600081815260016020819052604080832080547fffffffffffffffffffffffffffffffffffffffffffffffffffffffffffffff00168317905560028054928301815583527f405787fa12a823e0f2b7631cc41b3ba8828b3321ca811111fa75cd3aa3bb5ace90910180547fffffffffffffffffffffffff00000000000000000000000000000000000000001684179055513392917f3147867c59d17e8fa9d522465651d44aae0a9e38f902f3475b97e58072f0ed4c91a350565b612a1883613cd9565b612a2283836130ff565b73ffffffffffffffffffffffffffffffffffffffff821660009081526006602090815260408083208684529091529020612a5c9082613d10565b6000838152600760205260409020612a749082613d10565b600160005260046020526114967fabd6e7cb50984ff9c2f3e18a2660c3353dadf4e3291deeb275dae2cd1e44fe0582613d10565b612ab183613cd9565b612abb83836130ff565b73ffffffffffffffffffffffffffffffffffffffff821660009081526006602090815260408083208684529091529020612af59082613d68565b6000838152600760205260409020612b0d9082613d68565b600160005260046020526114967fabd6e7cb50984ff9c2f3e18a2660c3353dadf4e3291deeb275dae2cd1e44fe0582613d68565b612b4b8383613da3565b15612b5557611496565b612b5d6159fa565b612b66846126e7565b9050612b706159fa565b612b79846126e7565b905081604001516bffffffffffffffffffffffff16831115612bb457612bb46109b98484604001516bffffffffffffffffffffffff166127a3565b6040820151612bd590611d52906bffffffffffffffffffffffff168561243b565b6bffffffffffffffffffffffff908116604080850191909152820151612c0091611d529116856130e3565b6bffffffffffffffffffffffff166040820152612c1d8583613ad9565b612c278482613ad9565b5050505050565b6000818152600a602052604090205473ffffffffffffffffffffffffffffffffffffffff16338114611644576116446109b93384613daa565b620f424063ffffffff82161115612c8c57612c876109b960008584613e32565b611496565b8163ffffffff168163ffffffff161115611496576114966109b960018584613e32565b6040805173ffffffffffffffffffffffffffffffffffffffff83166024808301919091528251808303909101815260449091019091526020810180517bffffffffffffffffffffffffffffffffffffffffffffffffffffffff167feb5108a200000000000000000000000000000000000000000000000000000000179052919050565b73ffffffffffffffffffffffffffffffffffffffff821660009081526001602052604090205460ff16612d6b57612d6b6109b983612caf565b6002548110612d8657612d866109b982600280549050613ed4565b8173ffffffffffffffffffffffffffffffffffffffff1660028281548110612daa57fe5b60009182526020909120015473ffffffffffffffffffffffffffffffffffffffff1614612e0c57612e0c6109b960028381548110612de457fe5b60009182526020909120015473ffffffffffffffffffffffffffffffffffffffff1684613f47565b73ffffffffffffffffffffffffffffffffffffffff8216600090815260016020526040902080547fffffffffffffffffffffffffffffffffffffffffffffffffffffffffffffff00169055600280547fffffffffffffffffffffffffffffffffffffffffffffffffffffffffffffffff8101908110612e8757fe5b6000918252602090912001546002805473ffffffffffffffffffffffffffffffffffffffff9092169183908110612eba57fe5b9060005260206000200160006101000a81548173ffffffffffffffffffffffffffffffffffffffff021916908373ffffffffffffffffffffffffffffffffffffffff1602179055506002805480612f0d57fe5b60008281526020812082017fffffffffffffffffffffffffffffffffffffffffffffffffffffffffffffffff90810180547fffffffffffffffffffffffff0000000000000000000000000000000000000000169055909101909155604051339173ffffffffffffffffffffffffffffffffffffffff8516917f1f32c1b084e2de0713b8fb16bd46bb9df710a3dbeae2f3ca93af46e016dcc6b09190a35050565b60118590556012805463ffffffff8087167fffffffffffffffffffffffffffffffffffffffffffffffffffffffff00000000928316811790935560138690556014805485831664010000000081027fffffffffffffffffffffffffffffffffffffffffffffffff00000000ffffffff9489169290951682179390931693909317905560408051898152602081019490945283810187905260608401929092526080830152517f613157dbb0e920deab8ad6ddd3805e87cbf57344b9fe780f1764790ec78975429181900360a00190a15050505050565b61308b6159fa565b613094836126e7565b90506130be611d528383604001516bffffffffffffffffffffffff166130e390919063ffffffff16565b6bffffffffffffffffffffffff9081166040830152602082015161287a91611d529116845b600082820183811015611180576111806109b960008686613927565b61310882613fd3565b600061311783836000806133c2565b73ffffffffffffffffffffffffffffffffffffffff831660009081526006602090815260408083208784529091529020909150613153906126e7565b73ffffffffffffffffffffffffffffffffffffffff8381166000908152600660209081526040808320888452825291829020845181549286015195909301517fffffffffffffffffffffffffffffffffffffffffffffffff000000000000000090921667ffffffffffffffff909316929092177fffffffffffffffffffffffff000000000000000000000000ffffffffffffffff16680100000000000000006bffffffffffffffffffffffff958616021790921674010000000000000000000000000000000000000000939092169290920217905580156132ce576132388382613fdc565b6132406110df565b73ffffffffffffffffffffffffffffffffffffffff1663a9059cbb83836040518363ffffffff1660e01b815260040161327a929190615e79565b602060405180830381600087803b15801561329457600080fd5b505af11580156132a8573d6000803e3d6000fd5b505050506040513d601f19601f820116820180604052508101906132cc9190615c92565b505b61149683614018565b6000806132e383614025565b9094909350915050565b600080826132fd57839150613320565b61331163ffffffff8616620f424086614031565b915061331d848361243b565b90505b935093915050565b6000818152600a602052604090205473ffffffffffffffffffffffffffffffffffffffff1615611127576111276109b982600061405b565b6133686140cf565b42600d556001600c55565b61337b6140e4565b62127500620dbba068056bc75e2d6310000060026003612c278585858585612fad565b806bffffffffffffffffffffffff81168114610d3a57610d3a6109b9600284614149565b600c546000906133d06159fa565b5073ffffffffffffffffffffffffffffffffffffffff851660009081526006602090815260408083208984528252918290208251606081018452905467ffffffffffffffff81168083526bffffffffffffffffffffffff6801000000000000000083048116948401949094527401000000000000000000000000000000000000000090910490921692810192909252821415613471576000925050506134fb565b61347d818387876141db565b815190935060009061349a9067ffffffffffffffff1660016130e3565b90506134d26134cb8984602001516bffffffffffffffffffffffff16856000015167ffffffffffffffff1685614258565b85906130e3565b93506134f56134cb8984604001516bffffffffffffffffffffffff168487614258565b93505050505b949350505050565b6040805173ffffffffffffffffffffffffffffffffffffffff83166024808301919091528251808303909101815260449091019091526020810180517bffffffffffffffffffffffffffffffffffffffffffffffffffffffff167fb56d2df000000000000000000000000000000000000000000000000000000000179052919050565b6000828152600a6020526040812054819081906135b99073ffffffffffffffffffffffffffffffffffffffff1686611fec565b602001516bffffffffffffffffffffffff1690506135d7848261243b565b6012549093506135fc906135f59063ffffffff16620f4240866142f1565b82906130e3565b9150509250929050565b60408051808201909152600481527fe69edc3e00000000000000000000000000000000000000000000000000000000602082015290565b3b151590565b815160009061365157611183565b600061365b611fd4565b73ffffffffffffffffffffffffffffffffffffffff1663075461726040518163ffffffff1660e01b815260040160206040518083038186803b1580156136a057600080fd5b505afa1580156136b4573d6000803e3d6000fd5b505050506040513d601f19601f820116820180604052508101906136d89190615b60565b73ffffffffffffffffffffffffffffffffffffffff166357a15c0385602001516040518263ffffffff1660e01b81526004016137149190615f04565b60206040518083038186803b15801561372c57600080fd5b505afa158015613740573d6000803e3d6000fd5b505050506040513d601f19601f820116820180604052508101906137649190615d93565b845160208601516060860151601454939450613798938593928492909163ffffffff80821691640100000000900416614301565b608084015184519193506000916137ae9161243b565b9050828110156137bc578092505b505092915050565b6000806137cf6159fa565b506000858152600a60209081526040918290208251606081018452815473ffffffffffffffffffffffffffffffffffffffff80821683527401000000000000000000000000000000000000000090910463ffffffff16938201849052600190920154909116928101929092526138469086866132ed565b90935091508215613903576138596110df565b81516040517fa9059cbb00000000000000000000000000000000000000000000000000000000815273ffffffffffffffffffffffffffffffffffffffff929092169163a9059cbb916138af918790600401615e79565b602060405180830381600087803b1580156138c957600080fd5b505af11580156138dd573d6000803e3d6000fd5b505050506040513d601f19601f820116820180604052508101906139019190615c92565b505b811561391e5761391386836143c3565b61391e8683866143f8565b50935093915050565b606063e946c1bb60e01b8484846040516024018084600381111561394757fe5b81526020018381526020018281526020019350505050604051602081830303815290604052907bffffffffffffffffffffffffffffffffffffffffffffffffffffffff19166020820180517bffffffffffffffffffffffffffffffffffffffffffffffffffffffff838183161783525050505090509392505050565b604080516024810184905260448082018490528251808303909101815260649091019091526020810180517bffffffffffffffffffffffffffffffffffffffffffffffffffffffff167fa6bcde470000000000000000000000000000000000000000000000000000000017905292915050565b6040805173ffffffffffffffffffffffffffffffffffffffff83166024808301919091528251808303909101815260449091019091526020810180517bffffffffffffffffffffffffffffffffffffffffffffffffffffffff167fb65a25b900000000000000000000000000000000000000000000000000000000179052919050565b8067ffffffffffffffff81168114610d3a57610d3a6109b9600184614149565b8051825460408301516020909301516bffffffffffffffffffffffff90811668010000000000000000027fffffffffffffffffffffffff000000000000000000000000ffffffffffffffff91909416740100000000000000000000000000000000000000000273ffffffffffffffffffffffffffffffffffffffff67ffffffffffffffff9094167fffffffffffffffffffffffffffffffffffffffffffffffff000000000000000090931692909217929092161716179055565b6040805173ffffffffffffffffffffffffffffffffffffffff808516602483015283166044808301919091528251808303909101815260649091019091526020810180517bffffffffffffffffffffffffffffffffffffffffffffffffffffffff167f1de45ad10000000000000000000000000000000000000000000000000000000017905292915050565b60408051808201909152600481527f57654fe400000000000000000000000000000000000000000000000000000000602082015290565b6040805173ffffffffffffffffffffffffffffffffffffffff83166024808301919091528251808303909101815260449091019091526020810180517bffffffffffffffffffffffffffffffffffffffffffffffffffffffff167fde16f1a000000000000000000000000000000000000000000000000000000000179052919050565b6000818152600a602052604090205473ffffffffffffffffffffffffffffffffffffffff16611127576111276109b982600061405b565b613d186159fa565b613d21836126e7565b9050613d4b611d528383604001516bffffffffffffffffffffffff1661243b90919063ffffffff16565b6bffffffffffffffffffffffff1660408201526114968382613ad9565b613d706159fa565b613d79836126e7565b9050613d4b611d528383604001516bffffffffffffffffffffffff166130e390919063ffffffff16565b1460011690565b6040805173ffffffffffffffffffffffffffffffffffffffff8416602482015260448082018490528251808303909101815260649091019091526020810180517bffffffffffffffffffffffffffffffffffffffffffffffffffffffff167f82ded7850000000000000000000000000000000000000000000000000000000017905292915050565b60606322df959760e01b84848460405160240180846001811115613e5257fe5b81526020018381526020018263ffffffff1681526020019350505050604051602081830303815290604052907bffffffffffffffffffffffffffffffffffffffffffffffffffffffff19166020820180517bffffffffffffffffffffffffffffffffffffffffffffffffffffffff838183161783525050505090509392505050565b604080516024810184905260448082018490528251808303909101815260649091019091526020810180517bffffffffffffffffffffffffffffffffffffffffffffffffffffffff167fe9f837710000000000000000000000000000000000000000000000000000000017905292915050565b6040805173ffffffffffffffffffffffffffffffffffffffff808516602483015283166044808301919091528251808303909101815260649091019091526020810180517bffffffffffffffffffffffffffffffffffffffffffffffffffffffff167f140a84db0000000000000000000000000000000000000000000000000000000017905292915050565b611127816144e1565b6000828152600b6020526040902054613ff5908261243b565b6000838152600b6020526040902055601754614011908261243b565b6017555050565b61112781600060016143f8565b6000806132e3836144ea565b60006134fb8361405561404582600161243b565b61404f88876145a7565b906130e3565b906145d8565b60408051602481019390935290151560448084019190915281518084039091018152606490920190526020810180517bffffffffffffffffffffffffffffffffffffffffffffffffffffffff167f9ae94f010000000000000000000000000000000000000000000000000000000017905290565b600d5415611c4e57611c4e6109b96000614602565b601154158015906140fc575060125463ffffffff1615155b8015614109575060135415155b801561411c575060145463ffffffff1615155b80156141375750601454640100000000900463ffffffff1615155b15611c4e57611c4e6109b96001614602565b606063c996af7b60e01b83836040516024018083600281111561416857fe5b81526020808201939093526040805180830385018152918101905291820180517bffffffffffffffffffffffffffffffffffffffffffffffffffffffff167fffffffff00000000000000000000000000000000000000000000000000000000909516949094179093529250505092915050565b60008215806141e8575081155b156141f5575060006134fb565b600061420285600161243b565b865167ffffffffffffffff16101561421e578560400151614224565b85602001515b6bffffffffffffffffffffffff169050806142435760009150506134fb565b61424e8484836142f1565b9695505050505050565b600083158061426657508183145b15614273575060006134fb565b8183106142ac576040517f08c379a0000000000000000000000000000000000000000000000000000000008152600401610bde90616029565b6142b4615a3b565b6142be86856146a8565b90506142c8615a3b565b6142d287856146a8565b9050611e5081600001518260200151846000015185602001518a6147bf565b60006134fb8361405586856145a7565b60008061430e888861482d565b9050600061431c878761482d565b9050811580614329575080155b1561433957600092505050611e50565b6000818313156143525761434d828461487f565b61435c565b61435c838361487f565b905061438561438061436d8361489e565b8863ffffffff168863ffffffff16614f40565b614f4f565b90508183131561439e57614399828261487f565b6143a8565b6143a88282615539565b90506143b4818c615565565b9b9a5050505050505050505050565b6000828152600b60205260409020546143dc90826130e3565b6000838152600b602052604090205560175461401190826130e3565b6000838152600f6020526040902054600c5480821415614419575050611496565b614421615a3b565b506000858152600e602090815260408083208584528252918290208251808401909352805483526001015490820152614458615a3b565b614461826155a7565b1561449a5761447a8260000151836020015188886155b0565b6020830181905281835261448e9190615600565b602083015281526144a5565b602081018590528581525b6000878152600e6020908152604080832086845282528083208451815593820151600190940193909355978152600f9097529095205550505050565b61112781615629565b60008060006145056001600c5461243b90919063ffffffff16565b905061450f615a1a565b50600084815260156020908152604080832084845282528083208151606080820184528254825260018084015483870152600293840154838601528787526016865295849020845160a0810186528154815296810154958701959095529184015492850192909252600383015490840152600490910154608083015290614597908290613643565b9350806040015192505050915091565b6000826145b657506000611183565b828202828482816145c357fe5b0414611180576111806109b960018686613927565b6000816145ee576145ee6109b960038585613927565b60008284816145f957fe5b04949350505050565b60607f0b02d7730000000000000000000000000000000000000000000000000000000082600181111561463157fe5b604051602401808260ff168152602001915050604051602081830303815290604052907bffffffffffffffffffffffffffffffffffffffffffffffffffffffff19166020820180517bffffffffffffffffffffffffffffffffffffffffffffffffffffffff83818316178352505050509050919050565b6146b0615a3b565b506000828152600e6020908152604080832084845282529182902082518084019093528054835260010154908201526146e8816155a7565b156146f257611183565b60006146ff83600161243b565b6000858152600e6020908152604080832084845282529182902082518084019093528054835260010154908201529250905061473a826155a7565b156147455750611183565b6000848152600f6020526040902054838110156147a1576000858152600e6020908152604080832084845282529182902082518084019093528054835260010154908201529250614795836155a7565b156147a1575050611183565b50506040805180820190915260008152600160208201529392505050565b6000816147ce57506000614824565b836147e8576147e18561405584896145a7565b9050614824565b60006148016147f786886145a7565b611fa289876145a7565b9050600061480f82866145d8565b905061481f8761405586846145a7565b925050505b95945050505050565b600080831215614845576148456109b9600185615697565b600082121561485c5761485c6109b9600184615697565b611180614879846f80000000000000000000000000000000615744565b83615797565b6000611180614879846f80000000000000000000000000000000615744565b60006f800000000000000000000000000000008213156148c6576148c66109b9600184615818565b600082136148dc576148dc6109b9600084615818565b6f800000000000000000000000000000008214156148fc57506000610d3a565b640733048c5a821361492f57507fffffffffffffffffffffffffffffffe010000000000000000000000000000000610d3a565b60008060006a01c8464f76164760000000851361498e577ffffffffffffffffffffffffffffffff000000000000000000000000000000000909301926a01c8464f761647600000006f8000000000000000000000000000000086020594505b6cf1aaddd7742e9000000000000085136149ec577ffffffffffffffffffffffffffffffff800000000000000000000000000000000909301926cf1aaddd7742e900000000000006f8000000000000000000000000000000086020594505b6e0afe10820813d780000000000000008513614a4e577ffffffffffffffffffffffffffffffffc00000000000000000000000000000000909301926e0afe10820813d780000000000000006f8000000000000000000000000000000086020594505b6f02582ab704279ec000000000000000008513614ab2577ffffffffffffffffffffffffffffffffe00000000000000000000000000000000909301926f02582ab704279ec000000000000000006f8000000000000000000000000000000086020594505b6f1152aaa3bf81cc0000000000000000008513614b16577fffffffffffffffffffffffffffffffff00000000000000000000000000000000909301926f1152aaa3bf81cc0000000000000000006f8000000000000000000000000000000086020594505b6f2f16ac6c59de700000000000000000008513614b7a577fffffffffffffffffffffffffffffffff80000000000000000000000000000000909301926f2f16ac6c59de700000000000000000006f8000000000000000000000000000000086020594505b6f4da2cbf1be58280000000000000000008513614bde577fffffffffffffffffffffffffffffffffc0000000000000000000000000000000909301926f4da2cbf1be58280000000000000000006f8000000000000000000000000000000086020594505b6f63afbe7ab2082c0000000000000000008513614c42577fffffffffffffffffffffffffffffffffe0000000000000000000000000000000909301926f63afbe7ab2082c0000000000000000006f8000000000000000000000000000000086020594505b6f70f5a893b608861e1f58934f97aea57d8513614ca6577ffffffffffffffffffffffffffffffffff0000000000000000000000000000000909301926f70f5a893b608861e1f58934f97aea57d6f8000000000000000000000000000000086020594505b7fffffffffffffffffffffffffffffffff80000000000000000000000000000000850192508291506f80000000000000000000000000000000828002059050700100000000000000000000000000000000838103830205840193506f8000000000000000000000000000000081830281614d1c57fe5b059150700200000000000000000000000000000000836faaaaaaaaaaaaaaaaaaaaaaaaaaaaaaaa03830281614d4d57fe5b05840193506f8000000000000000000000000000000081830281614d6d57fe5b059150700300000000000000000000000000000000836f9999999999999999999999999999999903830281614d9e57fe5b05840193506f8000000000000000000000000000000081830281614dbe57fe5b059150700400000000000000000000000000000000836f9249249249249249249249249249249203830281614def57fe5b05840193506f8000000000000000000000000000000081830281614e0f57fe5b059150700500000000000000000000000000000000836f8e38e38e38e38e38e38e38e38e38e38e03830281614e4057fe5b05840193506f8000000000000000000000000000000081830281614e6057fe5b059150700600000000000000000000000000000000836f8ba2e8ba2e8ba2e8ba2e8ba2e8ba2e8b03830281614e9157fe5b05840193506f8000000000000000000000000000000081830281614eb157fe5b059150700700000000000000000000000000000000836f89d89d89d89d89d89d89d89d89d89d8903830281614ee257fe5b05840193506f8000000000000000000000000000000081830281614f0257fe5b059150700800000000000000000000000000000000836f8888888888888888888888888888888803830281614f3357fe5b0584019350505050919050565b60006134fb6148798585615744565b60007fffffffffffffffffffffffffffffffe010000000000000000000000000000000821215614f8157506000610d3a565b81614f9d57506f80000000000000000000000000000000610d3a565b6000821315614fb457614fb46109b9600184615818565b6f800000000000000000000000000000006f1000000000000000000000000000000083078080028290056710e1b3be415a0000810293909301929091818302059050806705a0913f6b1e000002830192506f800000000000000000000000000000008282028161502057fe5b05905080670168244fdac7800002830192506f800000000000000000000000000000008282028161504d57fe5b05905080664807432bc1800002830192506f800000000000000000000000000000008282028161507957fe5b05905080660c0135dca0400002830192506f80000000000000000000000000000000828202816150a557fe5b059050806601b707b1cdc00002830192506f80000000000000000000000000000000828202816150d157fe5b059050806536e0f639b80002830192506f80000000000000000000000000000000828202816150fc57fe5b05905080650618fee9f80002830192506f800000000000000000000000000000008282028161512757fe5b05905080649c197dcc0002830192506f800000000000000000000000000000008282028161515157fe5b05905080640e30dce40002830192506f800000000000000000000000000000008282028161517b57fe5b0590508064012ebd130002830192506f80000000000000000000000000000000828202816151a557fe5b059050806317499f0002830192506f80000000000000000000000000000000828202816151ce57fe5b059050806301a9d48002830192506f80000000000000000000000000000000828202816151f757fe5b05905080621c638002830192506f800000000000000000000000000000008282028161521f57fe5b059050806201c63802830192506f800000000000000000000000000000008282028161524757fe5b05905080611ab802830192506f800000000000000000000000000000008282028161526e57fe5b0590508061017c02830192506f800000000000000000000000000000008282028161529557fe5b05905080601402830192506f80000000000000000000000000000000828202816152bb57fe5b600095909503946721c3677c82b400009190059384010582016f800000000000000000000000000000000192905070100000000000000000000000000000000084161561532a577243cbaf42a000812488fc5c220ad7b97bf6e99e6cf1aaddd7742e56d32fb9f9974484020592505b70080000000000000000000000000000000084161561536c577105d27a9f51c31b7c2f8038212a05747799916e0afe10820813d65dfe6a33c07f738f84020592505b7004000000000000000000000000000000008416156153ae57701b4c902e273a58678d6d3bfdb93db96d026f02582ab704279e8efd15e0265855c47a84020592505b7002000000000000000000000000000000008416156153f0577003b1cc971a9bb5b9867477440d6d1577506f1152aaa3bf81cb9fdb76eae12d02957184020592505b7001000000000000000000000000000000008416156154325770015bf0a8b1457695355fb8ac404e7a79e36f2f16ac6c59de6f8d5d6f63c1482a7c8684020592505b6f80000000000000000000000000000000841615615472576fd3094c70f034de4b96ff7d5b6f99fcd86f4da2cbf1be5827f9eb3ad1aa9866ebb384020592505b6f400000000000000000000000000000008416156154b2576fa45af1e1f40c333b3de1db4dd55f29a76f63afbe7ab2082ba1a0ae5e4eb1b479dc84020592505b6f200000000000000000000000000000008416156154f2576f910b022db7ae67ce76b441c27035c6a16f70f5a893b608861e1f58934f97aea57d84020592505b6f10000000000000000000000000000000841615615532576f88415abbe9a76bead8d00cf112e4d4a86f783eafef1c0a8f3978c7f81824d62ebf84020592505b5050919050565b60006f800000000000000000000000000000006155568484615744565b8161555d57fe5b059392505050565b60008082121561557d5761557d6109b9600184615697565b60006155898484615744565b90506000811361559d576000915050611183565b607f1c9392505050565b60200151151590565b600080856155c25750829050816155f7565b836155d15750849050836155f7565b6155e86155de85876145a7565b61404f88866145a7565b91506155f485846145a7565b90505b94509492505050565b60008061561e84846f80000000000000000000000000000000615847565b915091509250929050565b600c5460009061563a90600161243b565b9050615644615a1a565b506000828152601560209081526040808320848452825291829020825160608101845281548082526001830154938201939093526002909101549281019290925215611496576114966109b984846158a3565b60607fbd79545f000000000000000000000000000000000000000000000000000000008360018111156156c657fe5b6040805160ff9092166024830152604480830186905281518084039091018152606490920190526020810180517bffffffffffffffffffffffffffffffffffffffffffffffffffffffff167fffffffff0000000000000000000000000000000000000000000000000000000090931692909217909152905092915050565b6000821580615751575081155b1561575e57506000611183565b508181028183828161576c57fe5b0514158061578357508282828161577f57fe5b0514155b15611183576111836109b960018585615916565b6000816157ad576157ad6109b960028585615916565b7f8000000000000000000000000000000000000000000000000000000000000000831480156157fb5750817fffffffffffffffffffffffffffffffffffffffffffffffffffffffffffffffff145b1561580f5761580f6109b960038585615916565b81838161555d57fe5b60607fed2f26a1000000000000000000000000000000000000000000000000000000008360018111156156c657fe5b6000808285118061585757508284115b1561589a5760008486101561586c578461586e565b855b905061587a81856145d8565b905061588686826145d8565b925061589285826145d8565b915050613320565b50929391925050565b604080516024810184905260448082018490528251808303909101815260649091019091526020810180517bffffffffffffffffffffffffffffffffffffffffffffffffffffffff167f5caa0b050000000000000000000000000000000000000000000000000000000017905292915050565b60607f8c12dfe70000000000000000000000000000000000000000000000000000000084600381111561594557fe5b6040805160ff909216602483015260448201869052606480830186905281518084039091018152608490920190526020810180517bffffffffffffffffffffffffffffffffffffffffffffffffffffffff167fffffffff000000000000000000000000000000000000000000000000000000009093169290921790915290509392505050565b6040518060a0016040528060008152602001600081526020016000815260200160008152602001600081525090565b604080516060810182526000808252602082018190529181019190915290565b60405180606001604052806000815260200160008152602001600081525090565b604051806040016040528060008152602001600081525090565b803560028110610d3a57600080fd5b600082601f830112615a74578081fd5b815167ffffffffffffffff80821115615a8957fe5b6040516020807fffffffffffffffffffffffffffffffffffffffffffffffffffffffffffffffe0601f8601168301018281108482111715615ac657fe5b80604052508194508382528681858801011115615ae257600080fd5b600092505b83831015615b045785830181015182840182015291820191615ae7565b83831115615b155760008185840101525b5050505092915050565b600060408284031215612787578081fd5b803563ffffffff81168114610d3a57600080fd5b600060208284031215615b55578081fd5b8135611180816161c0565b600060208284031215615b71578081fd5b8151611180816161c0565b60008060408385031215615b8e578081fd5b8235615b99816161c0565b946020939093013593505050565b60008060408385031215615bb9578182fd5b8235615bc4816161c0565b9150615bd260208401615a55565b90509250929050565b60008060008060008060c08789031215615bf3578182fd5b8651615bfe816161c0565b602088015190965067ffffffffffffffff80821115615c1b578384fd5b615c278a838b01615a64565b96506040890151915080821115615c3c578384fd5b50615c4989828a01615a64565b945050606087015192506080870151615c61816161c0565b60a0880151909250615c72816161c0565b809150509295509295509295565b60008060408385031215615b8e578182fd5b600060208284031215615ca3578081fd5b81518015158114611180578182fd5b600060208284031215615cc3578081fd5b5035919050565b60008060408385031215615cdc578182fd5b823591506020830135615cee816161c0565b809150509250929050565b60008060408385031215615d0b578182fd5b50508035926020909101359150565b60008060408385031215615d2c578182fd5b82359150615bd260208401615b30565b600060208284031215615d4d578081fd5b61118082615a55565b600080600060a08486031215615d6a578283fd5b615d748585615b1f565b9250615d838560408601615b1f565b9150608084013590509250925092565b600060208284031215615da4578081fd5b5051919050565b60008060008060008060c08789031215615dc3578384fd5b86519550602087015167ffffffffffffffff80821115615de1578586fd5b615ded8a838b01615a64565b96506040890151915080821115615c3c578586fd5b600080600080600060a08688031215615e19578283fd5b85359450615e2960208701615b30565b935060408601359250615e3e60608701615b30565b9150615e4c60808701615b30565b90509295509295909350565b73ffffffffffffffffffffffffffffffffffffffff91909116815260200190565b73ffffffffffffffffffffffffffffffffffffffff929092168252602082015260400190565b6020808252825182820181905260009190848201906040850190845b81811015615eed57835173ffffffffffffffffffffffffffffffffffffffff1683529284019291840191600101615ebb565b50909695505050505050565b901515815260200190565b90815260200190565b92835273ffffffffffffffffffffffffffffffffffffffff91909116602083015263ffffffff16604082015260600190565b918252602082015260400190565b6020808252601c908201527f4e4f4e5f524547495354455245445f504f4f4c5f49445f4552524f5200000000604082015260600190565b6020808252601e908201527f46494e414c495a45525f4d494e545f494e464c4154494f4e5f4552524f520000604082015260600190565b6020808252601b908201527f504f4f4c5f544f5f4a4f494e5f4e4f545f53454c465f4552524f520000000000604082015260600190565b6020808252601c908201527f4e4f4e5f524547495354455245445f52425f504f4f4c5f4552524f5200000000604082015260600190565b60208082526013908201527f43525f494e54455256414c5f494e56414c494400000000000000000000000000604082015260600190565b81518152602080830151908201526040918201519181019190915260600190565b815173ffffffffffffffffffffffffffffffffffffffff908116825260208084015163ffffffff1690830152604092830151169181019190915260600190565b815167ffffffffffffffff1681526020808301516bffffffffffffffffffffffff90811691830191909152604092830151169181019190915260600190565b9283526020830191909152604082015260600190565b93845260208401929092526040830152606082015260800190565b948552602085019390935260408401919091526060830152608082015260a00190565b94855263ffffffff938416602086015260408501929092528216606084015216608082015260a00190565b92835260ff918216602084015216604082015260600190565b63ffffffff91909116815260200190565b63ffffffff92831681529116602082015260400190565b73ffffffffffffffffffffffffffffffffffffffff8116811461112757600080fdfea264697066735822122070f6b65fa5cd2531126aa61bf91260b176769711070ddcf071ebfbc1a8253df664736f6c63430007040033",
				"opcodes": "PUSH1 0x80 PUSH1 0x40 MSTORE CALLVALUE DUP1 ISZERO PUSH2 0x10 JUMPI PUSH1 0x0 DUP1 REVERT JUMPDEST POP PUSH1 0x0 DUP1 SLOAD PUSH1 0x1 PUSH1 0x1 PUSH1 0xA0 SHL SUB NOT AND CALLER OR SWAP1 SSTORE PUSH2 0x6218 DUP1 PUSH3 0x33 PUSH1 0x0 CODECOPY PUSH1 0x0 RETURN INVALID PUSH1 0x80 PUSH1 0x40 MSTORE PUSH1 0x4 CALLDATASIZE LT PUSH2 0x33F JUMPI PUSH1 0x0 CALLDATALOAD PUSH1 0xE0 SHR DUP1 PUSH4 0x9AD26744 GT PUSH2 0x1B0 JUMPI DUP1 PUSH4 0xD39DE6E9 GT PUSH2 0xEC JUMPI DUP1 PUSH4 0xE907F003 GT PUSH2 0x95 JUMPI DUP1 PUSH4 0xEF4BA680 GT PUSH2 0x6F JUMPI DUP1 PUSH4 0xEF4BA680 EQ PUSH2 0x90A JUMPI DUP1 PUSH4 0xF252B7A1 EQ PUSH2 0x91F JUMPI DUP1 PUSH4 0xF2FDE38B EQ PUSH2 0x93F JUMPI DUP1 PUSH4 0xFF691B11 EQ PUSH2 0x95F JUMPI PUSH2 0x33F JUMP JUMPDEST DUP1 PUSH4 0xE907F003 EQ PUSH2 0x8C2 JUMPI DUP1 PUSH4 0xECC128F2 EQ PUSH2 0x8E2 JUMPI DUP1 PUSH4 0xEE99205C EQ PUSH2 0x8F5 JUMPI PUSH2 0x33F JUMP JUMPDEST DUP1 PUSH4 0xE1C7392A GT PUSH2 0xC6 JUMPI DUP1 PUSH4 0xE1C7392A EQ PUSH2 0x878 JUMPI DUP1 PUSH4 0xE804D0A4 EQ PUSH2 0x88D JUMPI DUP1 PUSH4 0xE8EEB3F8 EQ PUSH2 0x8AD JUMPI PUSH2 0x33F JUMP JUMPDEST DUP1 PUSH4 0xD39DE6E9 EQ PUSH2 0x82C JUMPI DUP1 PUSH4 0xE0822DB7 EQ PUSH2 0x84E JUMPI DUP1 PUSH4 0xE0EE036E EQ PUSH2 0x863 JUMPI PUSH2 0x33F JUMP JUMPDEST DUP1 PUSH4 0xB2BAA33E GT PUSH2 0x159 JUMPI DUP1 PUSH4 0xB9181611 GT PUSH2 0x133 JUMPI DUP1 PUSH4 0xB9181611 EQ PUSH2 0x7AC JUMPI DUP1 PUSH4 0xBB7EF7E0 EQ PUSH2 0x7CC JUMPI DUP1 PUSH4 0xBE111AF4 EQ PUSH2 0x7EC JUMPI DUP1 PUSH4 0xC18C9141 EQ PUSH2 0x80C JUMPI PUSH2 0x33F JUMP JUMPDEST DUP1 PUSH4 0xB2BAA33E EQ PUSH2 0x762 JUMPI DUP1 PUSH4 0xB510879F EQ PUSH2 0x777 JUMPI DUP1 PUSH4 0xB652B41F EQ PUSH2 0x797 JUMPI PUSH2 0x33F JUMP JUMPDEST DUP1 PUSH4 0xA657E579 GT PUSH2 0x18A JUMPI DUP1 PUSH4 0xA657E579 EQ PUSH2 0x718 JUMPI DUP1 PUSH4 0xA694FC3A EQ PUSH2 0x72D JUMPI DUP1 PUSH4 0xB0531524 EQ PUSH2 0x74D JUMPI PUSH2 0x33F JUMP JUMPDEST DUP1 PUSH4 0x9AD26744 EQ PUSH2 0x6C3 JUMPI DUP1 PUSH4 0x9C3CCC82 EQ PUSH2 0x6E3 JUMPI DUP1 PUSH4 0xA26171E2 EQ PUSH2 0x703 JUMPI PUSH2 0x33F JUMP JUMPDEST DUP1 PUSH4 0x494503D4 GT PUSH2 0x27F JUMPI DUP1 PUSH4 0x5E615A6B GT PUSH2 0x228 JUMPI DUP1 PUSH4 0x76671808 GT PUSH2 0x202 JUMPI DUP1 PUSH4 0x76671808 EQ PUSH2 0x657 JUMPI DUP1 PUSH4 0x7FA140C7 EQ PUSH2 0x66C JUMPI DUP1 PUSH4 0x81666796 EQ PUSH2 0x68C JUMPI DUP1 PUSH4 0x8DA5CB5B EQ PUSH2 0x6AE JUMPI PUSH2 0x33F JUMP JUMPDEST DUP1 PUSH4 0x5E615A6B EQ PUSH2 0x5FC JUMPI DUP1 PUSH4 0x63403801 EQ PUSH2 0x622 JUMPI DUP1 PUSH4 0x70712939 EQ PUSH2 0x637 JUMPI PUSH2 0x33F JUMP JUMPDEST DUP1 PUSH4 0x587DA023 GT PUSH2 0x259 JUMPI DUP1 PUSH4 0x587DA023 EQ PUSH2 0x5A7 JUMPI DUP1 PUSH4 0x58F6C7E3 EQ PUSH2 0x5BC JUMPI DUP1 PUSH4 0x5D91121D EQ PUSH2 0x5DC JUMPI PUSH2 0x33F JUMP JUMPDEST DUP1 PUSH4 0x494503D4 EQ PUSH2 0x52D JUMPI DUP1 PUSH4 0x4BCC3F67 EQ PUSH2 0x54D JUMPI DUP1 PUSH4 0x540C2D53 EQ PUSH2 0x57A JUMPI PUSH2 0x33F JUMP JUMPDEST DUP1 PUSH4 0x36D7DD8E GT PUSH2 0x2EC JUMPI DUP1 PUSH4 0x3E4AD732 GT PUSH2 0x2C6 JUMPI DUP1 PUSH4 0x3E4AD732 EQ PUSH2 0x493 JUMPI DUP1 PUSH4 0x42F1181E EQ PUSH2 0x4C0 JUMPI DUP1 PUSH4 0x44A6958B EQ PUSH2 0x4E0 JUMPI DUP1 PUSH4 0x46B97959 EQ PUSH2 0x500 JUMPI PUSH2 0x33F JUMP JUMPDEST DUP1 PUSH4 0x36D7DD8E EQ PUSH2 0x420 JUMPI DUP1 PUSH4 0x38229D93 EQ PUSH2 0x440 JUMPI DUP1 PUSH4 0x3C277FC5 EQ PUSH2 0x471 JUMPI PUSH2 0x33F JUMP JUMPDEST DUP1 PUSH4 0x1F81EB80 GT PUSH2 0x31D JUMPI DUP1 PUSH4 0x1F81EB80 EQ PUSH2 0x3B1 JUMPI DUP1 PUSH4 0x2A94C279 EQ PUSH2 0x3D1 JUMPI DUP1 PUSH4 0x2E17DE78 EQ PUSH2 0x400 JUMPI PUSH2 0x33F JUMP JUMPDEST DUP1 PUSH4 0xB9663DB EQ PUSH2 0x344 JUMPI DUP1 PUSH4 0x1A67A0A0 EQ PUSH2 0x36F JUMPI DUP1 PUSH4 0x1E7FF8F6 EQ PUSH2 0x391 JUMPI JUMPDEST PUSH1 0x0 DUP1 REVERT JUMPDEST CALLVALUE DUP1 ISZERO PUSH2 0x350 JUMPI PUSH1 0x0 DUP1 REVERT JUMPDEST POP PUSH2 0x359 PUSH2 0x97F JUMP JUMPDEST PUSH1 0x40 MLOAD PUSH2 0x366 SWAP2 SWAP1 PUSH2 0x5F04 JUMP JUMPDEST PUSH1 0x40 MLOAD DUP1 SWAP2 SUB SWAP1 RETURN JUMPDEST CALLVALUE DUP1 ISZERO PUSH2 0x37B JUMPI PUSH1 0x0 DUP1 REVERT JUMPDEST POP PUSH2 0x38F PUSH2 0x38A CALLDATASIZE PUSH1 0x4 PUSH2 0x5CCA JUMP JUMPDEST PUSH2 0xACA JUMP JUMPDEST STOP JUMPDEST CALLVALUE DUP1 ISZERO PUSH2 0x39D JUMPI PUSH1 0x0 DUP1 REVERT JUMPDEST POP PUSH2 0x359 PUSH2 0x3AC CALLDATASIZE PUSH1 0x4 PUSH2 0x5B44 JUMP JUMPDEST PUSH2 0xCA5 JUMP JUMPDEST CALLVALUE DUP1 ISZERO PUSH2 0x3BD JUMPI PUSH1 0x0 DUP1 REVERT JUMPDEST POP PUSH2 0x38F PUSH2 0x3CC CALLDATASIZE PUSH1 0x4 PUSH2 0x5B44 JUMP JUMPDEST PUSH2 0xD3F JUMP JUMPDEST CALLVALUE DUP1 ISZERO PUSH2 0x3DD JUMPI PUSH1 0x0 DUP1 REVERT JUMPDEST POP PUSH2 0x3F1 PUSH2 0x3EC CALLDATASIZE PUSH1 0x4 PUSH2 0x5CF9 JUMP JUMPDEST PUSH2 0xE09 JUMP JUMPDEST PUSH1 0x40 MLOAD PUSH2 0x366 SWAP4 SWAP3 SWAP2 SWAP1 PUSH2 0x6100 JUMP JUMPDEST CALLVALUE DUP1 ISZERO PUSH2 0x40C JUMPI PUSH1 0x0 DUP1 REVERT JUMPDEST POP PUSH2 0x38F PUSH2 0x41B CALLDATASIZE PUSH1 0x4 PUSH2 0x5CB2 JUMP JUMPDEST PUSH2 0xE35 JUMP JUMPDEST CALLVALUE DUP1 ISZERO PUSH2 0x42C JUMPI PUSH1 0x0 DUP1 REVERT JUMPDEST POP PUSH2 0x38F PUSH2 0x43B CALLDATASIZE PUSH1 0x4 PUSH2 0x5B44 JUMP JUMPDEST PUSH2 0xFEA JUMP JUMPDEST CALLVALUE DUP1 ISZERO PUSH2 0x44C JUMPI PUSH1 0x0 DUP1 REVERT JUMPDEST POP PUSH2 0x460 PUSH2 0x45B CALLDATASIZE PUSH1 0x4 PUSH2 0x5CB2 JUMP JUMPDEST PUSH2 0x10B0 JUMP JUMPDEST PUSH1 0x40 MLOAD PUSH2 0x366 SWAP6 SWAP5 SWAP4 SWAP3 SWAP2 SWAP1 PUSH2 0x6131 JUMP JUMPDEST CALLVALUE DUP1 ISZERO PUSH2 0x47D JUMPI PUSH1 0x0 DUP1 REVERT JUMPDEST POP PUSH2 0x486 PUSH2 0x10DF JUMP JUMPDEST PUSH1 0x40 MLOAD PUSH2 0x366 SWAP2 SWAP1 PUSH2 0x5E58 JUMP JUMPDEST CALLVALUE DUP1 ISZERO PUSH2 0x49F JUMPI PUSH1 0x0 DUP1 REVERT JUMPDEST POP PUSH2 0x4B3 PUSH2 0x4AE CALLDATASIZE PUSH1 0x4 PUSH2 0x5CB2 JUMP JUMPDEST PUSH2 0x10F7 JUMP JUMPDEST PUSH1 0x40 MLOAD PUSH2 0x366 SWAP2 SWAP1 PUSH2 0x60C1 JUMP JUMPDEST CALLVALUE DUP1 ISZERO PUSH2 0x4CC JUMPI PUSH1 0x0 DUP1 REVERT JUMPDEST POP PUSH2 0x38F PUSH2 0x4DB CALLDATASIZE PUSH1 0x4 PUSH2 0x5B44 JUMP JUMPDEST PUSH2 0x1116 JUMP JUMPDEST CALLVALUE DUP1 ISZERO PUSH2 0x4EC JUMPI PUSH1 0x0 DUP1 REVERT JUMPDEST POP PUSH2 0x4B3 PUSH2 0x4FB CALLDATASIZE PUSH1 0x4 PUSH2 0x5BA7 JUMP JUMPDEST PUSH2 0x112A JUMP JUMPDEST CALLVALUE DUP1 ISZERO PUSH2 0x50C JUMPI PUSH1 0x0 DUP1 REVERT JUMPDEST POP PUSH2 0x520 PUSH2 0x51B CALLDATASIZE PUSH1 0x4 PUSH2 0x5CB2 JUMP JUMPDEST PUSH2 0x1189 JUMP JUMPDEST PUSH1 0x40 MLOAD PUSH2 0x366 SWAP2 SWAP1 PUSH2 0x6060 JUMP JUMPDEST CALLVALUE DUP1 ISZERO PUSH2 0x539 JUMPI PUSH1 0x0 DUP1 REVERT JUMPDEST POP PUSH2 0x486 PUSH2 0x548 CALLDATASIZE PUSH1 0x4 PUSH2 0x5CB2 JUMP JUMPDEST PUSH2 0x11D4 JUMP JUMPDEST CALLVALUE DUP1 ISZERO PUSH2 0x559 JUMPI PUSH1 0x0 DUP1 REVERT JUMPDEST POP PUSH2 0x56D PUSH2 0x568 CALLDATASIZE PUSH1 0x4 PUSH2 0x5CB2 JUMP JUMPDEST PUSH2 0x120B JUMP JUMPDEST PUSH1 0x40 MLOAD PUSH2 0x366 SWAP2 SWAP1 PUSH2 0x6081 JUMP JUMPDEST CALLVALUE DUP1 ISZERO PUSH2 0x586 JUMPI PUSH1 0x0 DUP1 REVERT JUMPDEST POP PUSH2 0x59A PUSH2 0x595 CALLDATASIZE PUSH1 0x4 PUSH2 0x5B44 JUMP JUMPDEST PUSH2 0x1283 JUMP JUMPDEST PUSH1 0x40 MLOAD PUSH2 0x366 SWAP2 SWAP1 PUSH2 0x5EF9 JUMP JUMPDEST CALLVALUE DUP1 ISZERO PUSH2 0x5B3 JUMPI PUSH1 0x0 DUP1 REVERT JUMPDEST POP PUSH2 0x359 PUSH2 0x1298 JUMP JUMPDEST CALLVALUE DUP1 ISZERO PUSH2 0x5C8 JUMPI PUSH1 0x0 DUP1 REVERT JUMPDEST POP PUSH2 0x38F PUSH2 0x5D7 CALLDATASIZE PUSH1 0x4 PUSH2 0x5D56 JUMP JUMPDEST PUSH2 0x129E JUMP JUMPDEST CALLVALUE DUP1 ISZERO PUSH2 0x5E8 JUMPI PUSH1 0x0 DUP1 REVERT JUMPDEST POP PUSH2 0x38F PUSH2 0x5F7 CALLDATASIZE PUSH1 0x4 PUSH2 0x5D1A JUMP JUMPDEST PUSH2 0x149B JUMP JUMPDEST CALLVALUE DUP1 ISZERO PUSH2 0x608 JUMPI PUSH1 0x0 DUP1 REVERT JUMPDEST POP PUSH2 0x611 PUSH2 0x1564 JUMP JUMPDEST PUSH1 0x40 MLOAD PUSH2 0x366 SWAP6 SWAP5 SWAP4 SWAP3 SWAP2 SWAP1 PUSH2 0x6154 JUMP JUMPDEST CALLVALUE DUP1 ISZERO PUSH2 0x62E JUMPI PUSH1 0x0 DUP1 REVERT JUMPDEST POP PUSH2 0x359 PUSH2 0x158D JUMP JUMPDEST CALLVALUE DUP1 ISZERO PUSH2 0x643 JUMPI PUSH1 0x0 DUP1 REVERT JUMPDEST POP PUSH2 0x38F PUSH2 0x652 CALLDATASIZE PUSH1 0x4 PUSH2 0x5B44 JUMP JUMPDEST PUSH2 0x1593 JUMP JUMPDEST CALLVALUE DUP1 ISZERO PUSH2 0x663 JUMPI PUSH1 0x0 DUP1 REVERT JUMPDEST POP PUSH2 0x359 PUSH2 0x1648 JUMP JUMPDEST CALLVALUE DUP1 ISZERO PUSH2 0x678 JUMPI PUSH1 0x0 DUP1 REVERT JUMPDEST POP PUSH2 0x359 PUSH2 0x687 CALLDATASIZE PUSH1 0x4 PUSH2 0x5B44 JUMP JUMPDEST PUSH2 0x164E JUMP JUMPDEST CALLVALUE DUP1 ISZERO PUSH2 0x698 JUMPI PUSH1 0x0 DUP1 REVERT JUMPDEST POP PUSH2 0x6A1 PUSH2 0x1660 JUMP JUMPDEST PUSH1 0x40 MLOAD PUSH2 0x366 SWAP2 SWAP1 PUSH2 0x6198 JUMP JUMPDEST CALLVALUE DUP1 ISZERO PUSH2 0x6BA JUMPI PUSH1 0x0 DUP1 REVERT JUMPDEST POP PUSH2 0x486 PUSH2 0x166C JUMP JUMPDEST CALLVALUE DUP1 ISZERO PUSH2 0x6CF JUMPI PUSH1 0x0 DUP1 REVERT JUMPDEST POP PUSH2 0x38F PUSH2 0x6DE CALLDATASIZE PUSH1 0x4 PUSH2 0x5C80 JUMP JUMPDEST PUSH2 0x1688 JUMP JUMPDEST CALLVALUE DUP1 ISZERO PUSH2 0x6EF JUMPI PUSH1 0x0 DUP1 REVERT JUMPDEST POP PUSH2 0x38F PUSH2 0x6FE CALLDATASIZE PUSH1 0x4 PUSH2 0x5E02 JUMP JUMPDEST PUSH2 0x169A JUMP JUMPDEST CALLVALUE DUP1 ISZERO PUSH2 0x70F JUMPI PUSH1 0x0 DUP1 REVERT JUMPDEST POP PUSH2 0x359 PUSH2 0x1714 JUMP JUMPDEST CALLVALUE DUP1 ISZERO PUSH2 0x724 JUMPI PUSH1 0x0 DUP1 REVERT JUMPDEST POP PUSH2 0x359 PUSH2 0x171A JUMP JUMPDEST CALLVALUE DUP1 ISZERO PUSH2 0x739 JUMPI PUSH1 0x0 DUP1 REVERT JUMPDEST POP PUSH2 0x38F PUSH2 0x748 CALLDATASIZE PUSH1 0x4 PUSH2 0x5CB2 JUMP JUMPDEST PUSH2 0x1720 JUMP JUMPDEST CALLVALUE DUP1 ISZERO PUSH2 0x759 JUMPI PUSH1 0x0 DUP1 REVERT JUMPDEST POP PUSH2 0x359 PUSH2 0x1835 JUMP JUMPDEST CALLVALUE DUP1 ISZERO PUSH2 0x76E JUMPI PUSH1 0x0 DUP1 REVERT JUMPDEST POP PUSH2 0x359 PUSH2 0x183B JUMP JUMPDEST CALLVALUE DUP1 ISZERO PUSH2 0x783 JUMPI PUSH1 0x0 DUP1 REVERT JUMPDEST POP PUSH2 0x38F PUSH2 0x792 CALLDATASIZE PUSH1 0x4 PUSH2 0x5CB2 JUMP JUMPDEST PUSH2 0x1859 JUMP JUMPDEST CALLVALUE DUP1 ISZERO PUSH2 0x7A3 JUMPI PUSH1 0x0 DUP1 REVERT JUMPDEST POP PUSH2 0x486 PUSH2 0x1863 JUMP JUMPDEST CALLVALUE DUP1 ISZERO PUSH2 0x7B8 JUMPI PUSH1 0x0 DUP1 REVERT JUMPDEST POP PUSH2 0x59A PUSH2 0x7C7 CALLDATASIZE PUSH1 0x4 PUSH2 0x5B44 JUMP JUMPDEST PUSH2 0x187B JUMP JUMPDEST CALLVALUE DUP1 ISZERO PUSH2 0x7D8 JUMPI PUSH1 0x0 DUP1 REVERT JUMPDEST POP PUSH2 0x359 PUSH2 0x7E7 CALLDATASIZE PUSH1 0x4 PUSH2 0x5CB2 JUMP JUMPDEST PUSH2 0x1890 JUMP JUMPDEST CALLVALUE DUP1 ISZERO PUSH2 0x7F8 JUMPI PUSH1 0x0 DUP1 REVERT JUMPDEST POP PUSH2 0x359 PUSH2 0x807 CALLDATASIZE PUSH1 0x4 PUSH2 0x5B44 JUMP JUMPDEST PUSH2 0x192B JUMP JUMPDEST CALLVALUE DUP1 ISZERO PUSH2 0x818 JUMPI PUSH1 0x0 DUP1 REVERT JUMPDEST POP PUSH2 0x359 PUSH2 0x827 CALLDATASIZE PUSH1 0x4 PUSH2 0x5CB2 JUMP JUMPDEST PUSH2 0x1B91 JUMP JUMPDEST CALLVALUE DUP1 ISZERO PUSH2 0x838 JUMPI PUSH1 0x0 DUP1 REVERT JUMPDEST POP PUSH2 0x841 PUSH2 0x1BA3 JUMP JUMPDEST PUSH1 0x40 MLOAD PUSH2 0x366 SWAP2 SWAP1 PUSH2 0x5E9F JUMP JUMPDEST CALLVALUE DUP1 ISZERO PUSH2 0x85A JUMPI PUSH1 0x0 DUP1 REVERT JUMPDEST POP PUSH2 0x486 PUSH2 0x1C12 JUMP JUMPDEST CALLVALUE DUP1 ISZERO PUSH2 0x86F JUMPI PUSH1 0x0 DUP1 REVERT JUMPDEST POP PUSH2 0x6A1 PUSH2 0x1C2A JUMP JUMPDEST CALLVALUE DUP1 ISZERO PUSH2 0x884 JUMPI PUSH1 0x0 DUP1 REVERT JUMPDEST POP PUSH2 0x38F PUSH2 0x1C36 JUMP JUMPDEST CALLVALUE DUP1 ISZERO PUSH2 0x899 JUMPI PUSH1 0x0 DUP1 REVERT JUMPDEST POP PUSH2 0x4B3 PUSH2 0x8A8 CALLDATASIZE PUSH1 0x4 PUSH2 0x5D3C JUMP JUMPDEST PUSH2 0x1C50 JUMP JUMPDEST CALLVALUE DUP1 ISZERO PUSH2 0x8B9 JUMPI PUSH1 0x0 DUP1 REVERT JUMPDEST POP PUSH2 0x6A1 PUSH2 0x1D9A JUMP JUMPDEST CALLVALUE DUP1 ISZERO PUSH2 0x8CE JUMPI PUSH1 0x0 DUP1 REVERT JUMPDEST POP PUSH2 0x359 PUSH2 0x8DD CALLDATASIZE PUSH1 0x4 PUSH2 0x5CCA JUMP JUMPDEST PUSH2 0x1DAE JUMP JUMPDEST PUSH2 0x38F PUSH2 0x8F0 CALLDATASIZE PUSH1 0x4 PUSH2 0x5C80 JUMP JUMPDEST PUSH2 0x1E5B JUMP JUMPDEST CALLVALUE DUP1 ISZERO PUSH2 0x901 JUMPI PUSH1 0x0 DUP1 REVERT JUMPDEST POP PUSH2 0x486 PUSH2 0x1FB8 JUMP JUMPDEST CALLVALUE DUP1 ISZERO PUSH2 0x916 JUMPI PUSH1 0x0 DUP1 REVERT JUMPDEST POP PUSH2 0x486 PUSH2 0x1FD4 JUMP JUMPDEST CALLVALUE DUP1 ISZERO PUSH2 0x92B JUMPI PUSH1 0x0 DUP1 REVERT JUMPDEST POP PUSH2 0x4B3 PUSH2 0x93A CALLDATASIZE PUSH1 0x4 PUSH2 0x5B7C JUMP JUMPDEST PUSH2 0x1FEC JUMP JUMPDEST CALLVALUE DUP1 ISZERO PUSH2 0x94B JUMPI PUSH1 0x0 DUP1 REVERT JUMPDEST POP PUSH2 0x38F PUSH2 0x95A CALLDATASIZE PUSH1 0x4 PUSH2 0x5B44 JUMP JUMPDEST PUSH2 0x202D JUMP JUMPDEST CALLVALUE DUP1 ISZERO PUSH2 0x96B JUMPI PUSH1 0x0 DUP1 REVERT JUMPDEST POP PUSH2 0x38F PUSH2 0x97A CALLDATASIZE PUSH1 0x4 PUSH2 0x5CB2 JUMP JUMPDEST PUSH2 0x20D0 JUMP JUMPDEST PUSH1 0xC SLOAD PUSH1 0x0 SWAP1 DUP2 PUSH2 0x991 DUP3 PUSH1 0x1 PUSH2 0x243B JUMP JUMPDEST PUSH1 0x0 DUP2 DUP2 MSTORE PUSH1 0x16 PUSH1 0x20 MSTORE PUSH1 0x40 SWAP1 KECCAK256 PUSH1 0x1 ADD SLOAD SWAP1 SWAP2 POP DUP1 ISZERO PUSH2 0x9BE JUMPI PUSH2 0x9BE PUSH2 0x9B9 DUP4 DUP4 PUSH2 0x245A JUMP JUMPDEST PUSH2 0x24CD JUMP JUMPDEST PUSH2 0x9C6 PUSH2 0x24D5 JUMP JUMPDEST PUSH2 0x9CE PUSH2 0x2547 JUMP JUMPDEST PUSH1 0x0 DUP5 DUP2 MSTORE PUSH1 0x16 PUSH1 0x20 MSTORE PUSH1 0x40 SWAP1 KECCAK256 SSTORE PUSH2 0x9E5 PUSH2 0x59CB JUMP JUMPDEST POP PUSH1 0x0 DUP4 DUP2 MSTORE PUSH1 0x16 PUSH1 0x20 SWAP1 DUP2 MSTORE PUSH1 0x40 SWAP2 DUP3 SWAP1 KECCAK256 DUP3 MLOAD PUSH1 0xA0 DUP2 ADD DUP5 MSTORE DUP2 SLOAD DUP1 DUP3 MSTORE PUSH1 0x1 DUP4 ADD SLOAD SWAP4 DUP3 ADD DUP5 SWAP1 MSTORE PUSH1 0x2 DUP4 ADD SLOAD DUP3 DUP7 ADD DUP2 SWAP1 MSTORE PUSH1 0x3 DUP5 ADD SLOAD PUSH1 0x60 DUP5 ADD DUP2 SWAP1 MSTORE PUSH1 0x4 SWAP1 SWAP5 ADD SLOAD PUSH1 0x80 DUP5 ADD MSTORE SWAP5 MLOAD SWAP2 SWAP5 DUP9 SWAP5 PUSH32 0xBB4A26FA0ACE13EE4DA343896C20EAA44A618FB9071FDD8C2E2C960A4583189D SWAP5 PUSH2 0xA67 SWAP5 SWAP2 SWAP4 SWAP3 SWAP2 PUSH2 0x6116 JUMP JUMPDEST PUSH1 0x40 MLOAD DUP1 SWAP2 SUB SWAP1 LOG2 PUSH2 0xA77 PUSH2 0x25DF JUMP JUMPDEST PUSH1 0x20 DUP2 ADD MLOAD PUSH2 0xABE JUMPI DUP1 MLOAD PUSH1 0x40 MLOAD DUP6 SWAP2 PUSH32 0xB463D19ECF455BE65365092CF8E1DB6934A0334CF8CD532DDF9964D01F36B5B2 SWAP2 PUSH2 0xAB5 SWAP2 PUSH1 0x0 SWAP2 PUSH2 0x5F3F JUMP JUMPDEST PUSH1 0x40 MLOAD DUP1 SWAP2 SUB SWAP1 LOG2 JUMPDEST PUSH1 0x20 ADD MLOAD SWAP4 POP POP POP POP SWAP1 JUMP JUMPDEST PUSH1 0x0 DUP1 PUSH2 0xAD5 PUSH2 0x1863 JUMP JUMPDEST PUSH1 0x40 MLOAD PUSH32 0xC277F1AC00000000000000000000000000000000000000000000000000000000 DUP2 MSTORE PUSH20 0xFFFFFFFFFFFFFFFFFFFFFFFFFFFFFFFFFFFFFFFF SWAP2 SWAP1 SWAP2 AND SWAP1 PUSH4 0xC277F1AC SWAP1 PUSH2 0xB29 SWAP1 DUP8 SWAP1 PUSH1 0x4 ADD PUSH2 0x5F04 JUMP JUMPDEST PUSH1 0x0 PUSH1 0x40 MLOAD DUP1 DUP4 SUB DUP2 DUP7 DUP1 EXTCODESIZE ISZERO DUP1 ISZERO PUSH2 0xB41 JUMPI PUSH1 0x0 DUP1 REVERT JUMPDEST POP GAS STATICCALL ISZERO DUP1 ISZERO PUSH2 0xB55 JUMPI RETURNDATASIZE PUSH1 0x0 DUP1 RETURNDATACOPY RETURNDATASIZE PUSH1 0x0 REVERT JUMPDEST POP POP POP POP PUSH1 0x40 MLOAD RETURNDATASIZE PUSH1 0x0 DUP3 RETURNDATACOPY PUSH1 0x1F RETURNDATASIZE SWAP1 DUP2 ADD PUSH32 0xFFFFFFFFFFFFFFFFFFFFFFFFFFFFFFFFFFFFFFFFFFFFFFFFFFFFFFFFFFFFFFE0 AND DUP3 ADD PUSH1 0x40 MSTORE PUSH2 0xB9B SWAP2 SWAP1 DUP2 ADD SWAP1 PUSH2 0x5BDB JUMP JUMPDEST POP POP SWAP4 POP POP POP SWAP2 POP PUSH1 0x0 DUP2 EQ ISZERO PUSH2 0xBE7 JUMPI PUSH1 0x40 MLOAD PUSH32 0x8C379A000000000000000000000000000000000000000000000000000000000 DUP2 MSTORE PUSH1 0x4 ADD PUSH2 0xBDE SWAP1 PUSH2 0x5F4D JUMP JUMPDEST PUSH1 0x40 MLOAD DUP1 SWAP2 SUB SWAP1 REVERT JUMPDEST DUP3 PUSH20 0xFFFFFFFFFFFFFFFFFFFFFFFFFFFFFFFFFFFFFFFF AND DUP3 PUSH20 0xFFFFFFFFFFFFFFFFFFFFFFFFFFFFFFFFFFFFFFFF AND EQ PUSH2 0xC4C JUMPI PUSH1 0x40 MLOAD PUSH32 0x8C379A000000000000000000000000000000000000000000000000000000000 DUP2 MSTORE PUSH1 0x4 ADD PUSH2 0xBDE SWAP1 PUSH2 0x5FBB JUMP JUMPDEST PUSH20 0xFFFFFFFFFFFFFFFFFFFFFFFFFFFFFFFFFFFFFFFF DUP1 DUP4 AND PUSH1 0x0 SWAP1 DUP2 MSTORE PUSH1 0x9 PUSH1 0x20 MSTORE PUSH1 0x40 DUP1 DUP3 KECCAK256 DUP8 SWAP1 SSTORE MLOAD DUP7 SWAP3 DUP7 AND SWAP2 PUSH32 0xE8B9F7EE7A4480D45B60E98F7B2090DD82E2353B8557A6EE2DD2D5EE9196BAC2 SWAP2 LOG3 POP POP POP POP JUMP JUMPDEST PUSH1 0x0 PUSH2 0xCAF PUSH2 0x1C12 JUMP JUMPDEST PUSH20 0xFFFFFFFFFFFFFFFFFFFFFFFFFFFFFFFFFFFFFFFF AND PUSH4 0x70A08231 DUP4 PUSH1 0x40 MLOAD DUP3 PUSH4 0xFFFFFFFF AND PUSH1 0xE0 SHL DUP2 MSTORE PUSH1 0x4 ADD PUSH2 0xCE7 SWAP2 SWAP1 PUSH2 0x5E58 JUMP JUMPDEST PUSH1 0x20 PUSH1 0x40 MLOAD DUP1 DUP4 SUB DUP2 DUP7 DUP1 EXTCODESIZE ISZERO DUP1 ISZERO PUSH2 0xCFF JUMPI PUSH1 0x0 DUP1 REVERT JUMPDEST POP GAS STATICCALL ISZERO DUP1 ISZERO PUSH2 0xD13 JUMPI RETURNDATASIZE PUSH1 0x0 DUP1 RETURNDATACOPY RETURNDATASIZE PUSH1 0x0 REVERT JUMPDEST POP POP POP POP PUSH1 0x40 MLOAD RETURNDATASIZE PUSH1 0x1F NOT PUSH1 0x1F DUP3 ADD AND DUP3 ADD DUP1 PUSH1 0x40 MSTORE POP DUP2 ADD SWAP1 PUSH2 0xD37 SWAP2 SWAP1 PUSH2 0x5D93 JUMP JUMPDEST SWAP1 POP JUMPDEST SWAP2 SWAP1 POP JUMP JUMPDEST PUSH2 0xD47 PUSH2 0x261C JUMP JUMPDEST PUSH20 0xFFFFFFFFFFFFFFFFFFFFFFFFFFFFFFFFFFFFFFFF DUP2 AND PUSH1 0x0 SWAP1 DUP2 MSTORE PUSH1 0x10 PUSH1 0x20 MSTORE PUSH1 0x40 SWAP1 KECCAK256 SLOAD PUSH1 0xFF AND ISZERO PUSH2 0xD83 JUMPI PUSH2 0xD83 PUSH2 0x9B9 PUSH1 0x0 DUP4 PUSH2 0x263F JUMP JUMPDEST PUSH20 0xFFFFFFFFFFFFFFFFFFFFFFFFFFFFFFFFFFFFFFFF DUP2 AND PUSH1 0x0 DUP2 DUP2 MSTORE PUSH1 0x10 PUSH1 0x20 SWAP1 DUP2 MSTORE PUSH1 0x40 SWAP2 DUP3 SWAP1 KECCAK256 DUP1 SLOAD PUSH32 0xFFFFFFFFFFFFFFFFFFFFFFFFFFFFFFFFFFFFFFFFFFFFFFFFFFFFFFFFFFFFFF00 AND PUSH1 0x1 OR SWAP1 SSTORE DUP2 MLOAD SWAP3 DUP4 MSTORE SWAP1 MLOAD PUSH32 0x5738EE3C8E8FE8B0B9C4C21B16FDCA42EC02E271237DFEABBF3B5AF1584D732B SWAP3 DUP2 SWAP1 SUB SWAP1 SWAP2 ADD SWAP1 LOG1 POP JUMP JUMPDEST PUSH1 0x15 PUSH1 0x20 SWAP1 DUP2 MSTORE PUSH1 0x0 SWAP3 DUP4 MSTORE PUSH1 0x40 DUP1 DUP5 KECCAK256 SWAP1 SWAP2 MSTORE SWAP1 DUP3 MSTORE SWAP1 KECCAK256 DUP1 SLOAD PUSH1 0x1 DUP3 ADD SLOAD PUSH1 0x2 SWAP1 SWAP3 ADD SLOAD SWAP1 SWAP2 SWAP1 DUP4 JUMP JUMPDEST CALLER PUSH2 0xE3E PUSH2 0x59FA JUMP JUMPDEST PUSH20 0xFFFFFFFFFFFFFFFFFFFFFFFFFFFFFFFFFFFFFFFF DUP3 AND PUSH1 0x0 SWAP1 DUP2 MSTORE PUSH32 0x5B8CCBB9D4D8FB16EA74CE3C29A41F1B461FBDAFF4714A0D9A8EB05499746BC PUSH1 0x20 MSTORE PUSH1 0x40 SWAP1 KECCAK256 PUSH2 0xE8B SWAP1 PUSH2 0x26E7 JUMP JUMPDEST SWAP1 POP PUSH1 0x0 PUSH2 0xEBD DUP3 PUSH1 0x20 ADD MLOAD PUSH12 0xFFFFFFFFFFFFFFFFFFFFFFFF AND DUP4 PUSH1 0x40 ADD MLOAD PUSH12 0xFFFFFFFFFFFFFFFFFFFFFFFF AND PUSH2 0x278D JUMP JUMPDEST SWAP1 POP DUP1 DUP5 GT ISZERO PUSH2 0xED4 JUMPI PUSH2 0xED4 PUSH2 0x9B9 DUP6 DUP4 PUSH2 0x27A3 JUMP JUMPDEST PUSH20 0xFFFFFFFFFFFFFFFFFFFFFFFFFFFFFFFFFFFFFFFF DUP4 AND PUSH1 0x0 SWAP1 DUP2 MSTORE PUSH32 0x5B8CCBB9D4D8FB16EA74CE3C29A41F1B461FBDAFF4714A0D9A8EB05499746BC PUSH1 0x20 MSTORE PUSH1 0x40 SWAP1 KECCAK256 PUSH2 0xF22 SWAP1 DUP6 PUSH2 0x2816 JUMP JUMPDEST PUSH2 0xF2A PUSH2 0x1C12 JUMP JUMPDEST PUSH20 0xFFFFFFFFFFFFFFFFFFFFFFFFFFFFFFFFFFFFFFFF AND PUSH4 0x9470B0BD DUP5 DUP7 PUSH1 0x40 MLOAD DUP4 PUSH4 0xFFFFFFFF AND PUSH1 0xE0 SHL DUP2 MSTORE PUSH1 0x4 ADD PUSH2 0xF64 SWAP3 SWAP2 SWAP1 PUSH2 0x5E79 JUMP JUMPDEST PUSH1 0x0 PUSH1 0x40 MLOAD DUP1 DUP4 SUB DUP2 PUSH1 0x0 DUP8 DUP1 EXTCODESIZE ISZERO DUP1 ISZERO PUSH2 0xF7E JUMPI PUSH1 0x0 DUP1 REVERT JUMPDEST POP GAS CALL ISZERO DUP1 ISZERO PUSH2 0xF92 JUMPI RETURNDATASIZE PUSH1 0x0 DUP1 RETURNDATACOPY RETURNDATASIZE PUSH1 0x0 REVERT JUMPDEST POP POP POP POP DUP3 PUSH20 0xFFFFFFFFFFFFFFFFFFFFFFFFFFFFFFFFFFFFFFFF AND PUSH32 0x85082129D87B2FE11527CB1B3B7A520AEB5AA6913F88A3D8757FE40D1DB02FDD DUP6 PUSH1 0x40 MLOAD PUSH2 0xFDC SWAP2 SWAP1 PUSH2 0x5F04 JUMP JUMPDEST PUSH1 0x40 MLOAD DUP1 SWAP2 SUB SWAP1 LOG2 POP POP POP POP JUMP JUMPDEST PUSH2 0xFF2 PUSH2 0x261C JUMP JUMPDEST PUSH20 0xFFFFFFFFFFFFFFFFFFFFFFFFFFFFFFFFFFFFFFFF DUP2 AND PUSH1 0x0 SWAP1 DUP2 MSTORE PUSH1 0x10 PUSH1 0x20 MSTORE PUSH1 0x40 SWAP1 KECCAK256 SLOAD PUSH1 0xFF AND PUSH2 0x102D JUMPI PUSH2 0x102D PUSH2 0x9B9 PUSH1 0x1 DUP4 PUSH2 0x263F JUMP JUMPDEST PUSH20 0xFFFFFFFFFFFFFFFFFFFFFFFFFFFFFFFFFFFFFFFF DUP2 AND PUSH1 0x0 DUP2 DUP2 MSTORE PUSH1 0x10 PUSH1 0x20 SWAP1 DUP2 MSTORE PUSH1 0x40 SWAP2 DUP3 SWAP1 KECCAK256 DUP1 SLOAD PUSH32 0xFFFFFFFFFFFFFFFFFFFFFFFFFFFFFFFFFFFFFFFFFFFFFFFFFFFFFFFFFFFFFF00 AND SWAP1 SSTORE DUP2 MLOAD SWAP3 DUP4 MSTORE SWAP1 MLOAD PUSH32 0x9BF55462CB5FA187F725D06DE0A70BC01C4E40695570BDC25AD116F9BE46BDA7 SWAP3 DUP2 SWAP1 SUB SWAP1 SWAP2 ADD SWAP1 LOG1 POP JUMP JUMPDEST PUSH1 0x16 PUSH1 0x20 MSTORE PUSH1 0x0 SWAP1 DUP2 MSTORE PUSH1 0x40 SWAP1 KECCAK256 DUP1 SLOAD PUSH1 0x1 DUP3 ADD SLOAD PUSH1 0x2 DUP4 ADD SLOAD PUSH1 0x3 DUP5 ADD SLOAD PUSH1 0x4 SWAP1 SWAP5 ADD SLOAD SWAP3 SWAP4 SWAP2 SWAP3 SWAP1 SWAP2 SWAP1 DUP6 JUMP JUMPDEST PUSH20 0xC02AAA39B223FE8D0A0E5C4F27EAD9083C756CC2 SWAP1 JUMP JUMPDEST PUSH2 0x10FF PUSH2 0x59FA JUMP JUMPDEST PUSH1 0x0 DUP3 DUP2 MSTORE PUSH1 0x7 PUSH1 0x20 MSTORE PUSH1 0x40 SWAP1 KECCAK256 PUSH2 0xD37 SWAP1 PUSH2 0x26E7 JUMP JUMPDEST PUSH2 0x111E PUSH2 0x2897 JUMP JUMPDEST PUSH2 0x1127 DUP2 PUSH2 0x28DE JUMP JUMPDEST POP JUMP JUMPDEST PUSH2 0x1132 PUSH2 0x59FA JUMP JUMPDEST PUSH2 0x1180 PUSH1 0x5 PUSH1 0x0 DUP5 PUSH1 0x1 DUP2 GT ISZERO PUSH2 0x1145 JUMPI INVALID JUMPDEST PUSH1 0xFF AND DUP2 MSTORE PUSH1 0x20 DUP1 DUP3 ADD SWAP3 SWAP1 SWAP3 MSTORE PUSH1 0x40 SWAP1 DUP2 ADD PUSH1 0x0 SWAP1 DUP2 KECCAK256 PUSH20 0xFFFFFFFFFFFFFFFFFFFFFFFFFFFFFFFFFFFFFFFF DUP9 AND DUP3 MSTORE SWAP1 SWAP3 MSTORE SWAP1 KECCAK256 PUSH2 0x26E7 JUMP JUMPDEST SWAP1 POP JUMPDEST SWAP3 SWAP2 POP POP JUMP JUMPDEST PUSH2 0x1191 PUSH2 0x5A1A JUMP JUMPDEST POP PUSH1 0x0 SWAP1 DUP2 MSTORE PUSH1 0x15 PUSH1 0x20 SWAP1 DUP2 MSTORE PUSH1 0x40 DUP1 DUP4 KECCAK256 PUSH1 0xC SLOAD DUP5 MSTORE DUP3 MSTORE SWAP2 DUP3 SWAP1 KECCAK256 DUP3 MLOAD PUSH1 0x60 DUP2 ADD DUP5 MSTORE DUP2 SLOAD DUP2 MSTORE PUSH1 0x1 DUP3 ADD SLOAD SWAP3 DUP2 ADD SWAP3 SWAP1 SWAP3 MSTORE PUSH1 0x2 ADD SLOAD SWAP2 DUP2 ADD SWAP2 SWAP1 SWAP2 MSTORE SWAP1 JUMP JUMPDEST PUSH1 0x2 DUP2 DUP2 SLOAD DUP2 LT PUSH2 0x11E4 JUMPI PUSH1 0x0 DUP1 REVERT JUMPDEST PUSH1 0x0 SWAP2 DUP3 MSTORE PUSH1 0x20 SWAP1 SWAP2 KECCAK256 ADD SLOAD PUSH20 0xFFFFFFFFFFFFFFFFFFFFFFFFFFFFFFFFFFFFFFFF AND SWAP1 POP DUP2 JUMP JUMPDEST PUSH2 0x1213 PUSH2 0x59FA JUMP JUMPDEST POP PUSH1 0x0 SWAP1 DUP2 MSTORE PUSH1 0xA PUSH1 0x20 SWAP1 DUP2 MSTORE PUSH1 0x40 SWAP2 DUP3 SWAP1 KECCAK256 DUP3 MLOAD PUSH1 0x60 DUP2 ADD DUP5 MSTORE DUP2 SLOAD PUSH20 0xFFFFFFFFFFFFFFFFFFFFFFFFFFFFFFFFFFFFFFFF DUP1 DUP3 AND DUP4 MSTORE PUSH21 0x10000000000000000000000000000000000000000 SWAP1 SWAP2 DIV PUSH4 0xFFFFFFFF AND SWAP4 DUP3 ADD SWAP4 SWAP1 SWAP4 MSTORE PUSH1 0x1 SWAP1 SWAP2 ADD SLOAD SWAP1 SWAP2 AND SWAP2 DUP2 ADD SWAP2 SWAP1 SWAP2 MSTORE SWAP1 JUMP JUMPDEST PUSH1 0x10 PUSH1 0x20 MSTORE PUSH1 0x0 SWAP1 DUP2 MSTORE PUSH1 0x40 SWAP1 KECCAK256 SLOAD PUSH1 0xFF AND DUP2 JUMP JUMPDEST PUSH1 0xD SLOAD DUP2 JUMP JUMPDEST CALLER DUP2 PUSH2 0x12AA JUMPI POP PUSH2 0x1496 JUMP JUMPDEST PUSH1 0x0 PUSH2 0x12B9 PUSH1 0x20 DUP7 ADD DUP7 PUSH2 0x5D3C JUMP JUMPDEST PUSH1 0x1 DUP2 GT ISZERO PUSH2 0x12C4 JUMPI INVALID JUMPDEST EQ DUP1 ISZERO PUSH2 0x12E8 JUMPI POP PUSH1 0x0 PUSH2 0x12DB PUSH1 0x20 DUP6 ADD DUP6 PUSH2 0x5D3C JUMP JUMPDEST PUSH1 0x1 DUP2 GT ISZERO PUSH2 0x12E6 JUMPI INVALID JUMPDEST EQ JUMPDEST ISZERO PUSH2 0x12F3 JUMPI POP PUSH2 0x1496 JUMP JUMPDEST PUSH1 0x1 PUSH2 0x1302 PUSH1 0x20 DUP7 ADD DUP7 PUSH2 0x5D3C JUMP JUMPDEST PUSH1 0x1 DUP2 GT ISZERO PUSH2 0x130D JUMPI INVALID JUMPDEST EQ ISZERO PUSH2 0x1322 JUMPI PUSH2 0x1322 DUP5 PUSH1 0x20 ADD CALLDATALOAD DUP3 DUP5 PUSH2 0x2A0F JUMP JUMPDEST PUSH1 0x1 PUSH2 0x1331 PUSH1 0x20 DUP6 ADD DUP6 PUSH2 0x5D3C JUMP JUMPDEST PUSH1 0x1 DUP2 GT ISZERO PUSH2 0x133C JUMPI INVALID JUMPDEST EQ ISZERO PUSH2 0x1351 JUMPI PUSH2 0x1351 DUP4 PUSH1 0x20 ADD CALLDATALOAD DUP3 DUP5 PUSH2 0x2AA8 JUMP JUMPDEST PUSH1 0x0 PUSH1 0x5 DUP2 PUSH2 0x1363 PUSH1 0x20 DUP9 ADD DUP9 PUSH2 0x5D3C JUMP JUMPDEST PUSH1 0x1 DUP2 GT ISZERO PUSH2 0x136E JUMPI INVALID JUMPDEST PUSH1 0xFF AND DUP2 MSTORE PUSH1 0x20 DUP1 DUP3 ADD SWAP3 SWAP1 SWAP3 MSTORE PUSH1 0x40 SWAP1 DUP2 ADD PUSH1 0x0 SWAP1 DUP2 KECCAK256 PUSH20 0xFFFFFFFFFFFFFFFFFFFFFFFFFFFFFFFFFFFFFFFF DUP7 AND DUP3 MSTORE DUP4 MSTORE SWAP1 DUP2 KECCAK256 SWAP3 POP SWAP1 PUSH1 0x5 SWAP1 DUP3 SWAP1 PUSH2 0x13B8 SWAP1 DUP9 ADD DUP9 PUSH2 0x5D3C JUMP JUMPDEST PUSH1 0x1 DUP2 GT ISZERO PUSH2 0x13C3 JUMPI INVALID JUMPDEST PUSH1 0xFF AND DUP2 MSTORE PUSH1 0x20 DUP1 DUP3 ADD SWAP3 SWAP1 SWAP3 MSTORE PUSH1 0x40 SWAP1 DUP2 ADD PUSH1 0x0 SWAP1 DUP2 KECCAK256 PUSH20 0xFFFFFFFFFFFFFFFFFFFFFFFFFFFFFFFFFFFFFFFF DUP8 AND DUP3 MSTORE SWAP1 SWAP3 MSTORE SWAP1 KECCAK256 SWAP1 POP PUSH2 0x1406 DUP3 DUP3 DUP7 PUSH2 0x2B41 JUMP JUMPDEST PUSH1 0x20 DUP1 DUP7 ADD CALLDATALOAD SWAP1 DUP8 ADD DUP1 CALLDATALOAD SWAP1 PUSH20 0xFFFFFFFFFFFFFFFFFFFFFFFFFFFFFFFFFFFFFFFF DUP7 AND SWAP1 PUSH32 0x7D3AD1DCF03B9027064D1D9A474A69E0CECC31324C541D3EB9B5E6FA2F106C8D SWAP1 DUP9 SWAP1 PUSH2 0x1458 SWAP1 DUP13 PUSH2 0x5D3C JUMP JUMPDEST PUSH1 0x1 DUP2 GT ISZERO PUSH2 0x1463 JUMPI INVALID JUMPDEST PUSH2 0x1470 PUSH1 0x20 DUP13 ADD DUP13 PUSH2 0x5D3C JUMP JUMPDEST PUSH1 0x1 DUP2 GT ISZERO PUSH2 0x147B JUMPI INVALID JUMPDEST PUSH1 0x40 MLOAD PUSH2 0x148A SWAP4 SWAP3 SWAP2 SWAP1 PUSH2 0x617F JUMP JUMPDEST PUSH1 0x40 MLOAD DUP1 SWAP2 SUB SWAP1 LOG4 POP POP POP JUMPDEST POP POP POP JUMP JUMPDEST DUP2 PUSH2 0x14A5 DUP2 PUSH2 0x2C2E JUMP JUMPDEST PUSH1 0x0 DUP4 DUP2 MSTORE PUSH1 0xA PUSH1 0x20 MSTORE PUSH1 0x40 SWAP1 KECCAK256 SLOAD PUSH21 0x10000000000000000000000000000000000000000 SWAP1 DIV PUSH4 0xFFFFFFFF AND PUSH2 0x14DD DUP5 DUP3 DUP6 PUSH2 0x2C67 JUMP JUMPDEST PUSH1 0x0 DUP5 DUP2 MSTORE PUSH1 0xA PUSH1 0x20 MSTORE PUSH1 0x40 SWAP1 DUP2 SWAP1 KECCAK256 DUP1 SLOAD PUSH32 0xFFFFFFFFFFFFFFFF00000000FFFFFFFFFFFFFFFFFFFFFFFFFFFFFFFFFFFFFFFF AND PUSH21 0x10000000000000000000000000000000000000000 PUSH4 0xFFFFFFFF DUP8 AND MUL OR SWAP1 SSTORE MLOAD DUP5 SWAP1 PUSH32 0x8EA2A7A959BD25F226B7B0A4393613F7FDCAA8404E8BAD96AA52DC1C14590167 SWAP1 PUSH2 0xFDC SWAP1 DUP5 SWAP1 DUP8 SWAP1 PUSH2 0x61A9 JUMP JUMPDEST PUSH1 0x11 SLOAD PUSH1 0x12 SLOAD PUSH1 0x13 SLOAD PUSH1 0x14 SLOAD SWAP3 SWAP4 PUSH4 0xFFFFFFFF SWAP3 DUP4 AND SWAP4 SWAP2 SWAP3 DUP3 DUP2 AND SWAP3 PUSH5 0x100000000 SWAP1 DIV AND SWAP1 JUMP JUMPDEST PUSH1 0x11 SLOAD DUP2 JUMP JUMPDEST PUSH2 0x159B PUSH2 0x2897 JUMP JUMPDEST PUSH20 0xFFFFFFFFFFFFFFFFFFFFFFFFFFFFFFFFFFFFFFFF DUP2 AND PUSH1 0x0 SWAP1 DUP2 MSTORE PUSH1 0x1 PUSH1 0x20 MSTORE PUSH1 0x40 SWAP1 KECCAK256 SLOAD PUSH1 0xFF AND PUSH2 0x15D4 JUMPI PUSH2 0x15D4 PUSH2 0x9B9 DUP3 PUSH2 0x2CAF JUMP JUMPDEST PUSH1 0x0 JUMPDEST PUSH1 0x2 SLOAD DUP2 LT ISZERO PUSH2 0x1644 JUMPI DUP2 PUSH20 0xFFFFFFFFFFFFFFFFFFFFFFFFFFFFFFFFFFFFFFFF AND PUSH1 0x2 DUP3 DUP2 SLOAD DUP2 LT PUSH2 0x1605 JUMPI INVALID JUMPDEST PUSH1 0x0 SWAP2 DUP3 MSTORE PUSH1 0x20 SWAP1 SWAP2 KECCAK256 ADD SLOAD PUSH20 0xFFFFFFFFFFFFFFFFFFFFFFFFFFFFFFFFFFFFFFFF AND EQ ISZERO PUSH2 0x163C JUMPI PUSH2 0x1637 DUP3 DUP3 PUSH2 0x2D32 JUMP JUMPDEST PUSH2 0x1644 JUMP JUMPDEST PUSH1 0x1 ADD PUSH2 0x15D7 JUMP JUMPDEST POP POP JUMP JUMPDEST PUSH1 0xC SLOAD DUP2 JUMP JUMPDEST PUSH1 0x9 PUSH1 0x20 MSTORE PUSH1 0x0 SWAP1 DUP2 MSTORE PUSH1 0x40 SWAP1 KECCAK256 SLOAD DUP2 JUMP JUMPDEST PUSH1 0x14 SLOAD PUSH4 0xFFFFFFFF AND DUP2 JUMP JUMPDEST PUSH1 0x0 SLOAD PUSH20 0xFFFFFFFFFFFFFFFFFFFFFFFFFFFFFFFFFFFFFFFF AND DUP2 JUMP JUMPDEST PUSH2 0x1690 PUSH2 0x2897 JUMP JUMPDEST PUSH2 0x1644 DUP3 DUP3 PUSH2 0x2D32 JUMP JUMPDEST PUSH2 0x16A2 PUSH2 0x261C JUMP JUMPDEST PUSH2 0x16AF DUP6 DUP6 DUP6 DUP6 DUP6 PUSH2 0x2FAD JUMP JUMPDEST ADDRESS PUSH20 0xFFFFFFFFFFFFFFFFFFFFFFFFFFFFFFFFFFFFFFFF AND PUSH4 0xC6F3A427 PUSH1 0x40 MLOAD DUP2 PUSH4 0xFFFFFFFF AND PUSH1 0xE0 SHL DUP2 MSTORE PUSH1 0x4 ADD PUSH1 0x0 PUSH1 0x40 MLOAD DUP1 DUP4 SUB DUP2 DUP7 DUP1 EXTCODESIZE ISZERO DUP1 ISZERO PUSH2 0x16F5 JUMPI PUSH1 0x0 DUP1 REVERT JUMPDEST POP GAS STATICCALL ISZERO DUP1 ISZERO PUSH2 0x1709 JUMPI RETURNDATASIZE PUSH1 0x0 DUP1 RETURNDATACOPY RETURNDATASIZE PUSH1 0x0 REVERT JUMPDEST POP POP POP POP POP POP POP POP POP JUMP JUMPDEST PUSH1 0x13 SLOAD DUP2 JUMP JUMPDEST PUSH1 0x8 SLOAD DUP2 JUMP JUMPDEST CALLER PUSH2 0x1729 PUSH2 0x1C12 JUMP JUMPDEST PUSH20 0xFFFFFFFFFFFFFFFFFFFFFFFFFFFFFFFFFFFFFFFF AND PUSH4 0x15CC36F2 DUP3 DUP5 PUSH1 0x40 MLOAD DUP4 PUSH4 0xFFFFFFFF AND PUSH1 0xE0 SHL DUP2 MSTORE PUSH1 0x4 ADD PUSH2 0x1763 SWAP3 SWAP2 SWAP1 PUSH2 0x5E79 JUMP JUMPDEST PUSH1 0x0 PUSH1 0x40 MLOAD DUP1 DUP4 SUB DUP2 PUSH1 0x0 DUP8 DUP1 EXTCODESIZE ISZERO DUP1 ISZERO PUSH2 0x177D JUMPI PUSH1 0x0 DUP1 REVERT JUMPDEST POP GAS CALL ISZERO DUP1 ISZERO PUSH2 0x1791 JUMPI RETURNDATASIZE PUSH1 0x0 DUP1 RETURNDATACOPY RETURNDATASIZE PUSH1 0x0 REVERT JUMPDEST POP POP POP POP PUSH20 0xFFFFFFFFFFFFFFFFFFFFFFFFFFFFFFFFFFFFFFFF DUP2 AND PUSH1 0x0 SWAP1 DUP2 MSTORE PUSH32 0x5B8CCBB9D4D8FB16EA74CE3C29A41F1B461FBDAFF4714A0D9A8EB05499746BC PUSH1 0x20 MSTORE PUSH1 0x40 SWAP1 KECCAK256 PUSH2 0x17E3 SWAP1 DUP4 PUSH2 0x3083 JUMP JUMPDEST DUP1 PUSH20 0xFFFFFFFFFFFFFFFFFFFFFFFFFFFFFFFFFFFFFFFF AND PUSH32 0xEBEDB8B3C678666E7F36970BC8F57ABF6D8FA2E828C0DA91EA5B75BF68ED101A DUP4 PUSH1 0x40 MLOAD PUSH2 0x1829 SWAP2 SWAP1 PUSH2 0x5F04 JUMP JUMPDEST PUSH1 0x40 MLOAD DUP1 SWAP2 SUB SWAP1 LOG2 POP POP JUMP JUMPDEST PUSH1 0x17 SLOAD DUP2 JUMP JUMPDEST PUSH1 0x0 PUSH2 0x1854 PUSH1 0x11 SLOAD PUSH1 0xD SLOAD PUSH2 0x30E3 SWAP1 SWAP2 SWAP1 PUSH4 0xFFFFFFFF AND JUMP JUMPDEST SWAP1 POP SWAP1 JUMP JUMPDEST PUSH2 0x1127 DUP2 CALLER PUSH2 0x30FF JUMP JUMPDEST PUSH20 0xDE6445484A8DCD9BF35FC95EB4E3990CC358822E SWAP1 JUMP JUMPDEST PUSH1 0x1 PUSH1 0x20 MSTORE PUSH1 0x0 SWAP1 DUP2 MSTORE PUSH1 0x40 SWAP1 KECCAK256 SLOAD PUSH1 0xFF AND DUP2 JUMP JUMPDEST PUSH1 0x0 PUSH2 0x189A PUSH2 0x59FA JUMP JUMPDEST POP PUSH1 0x0 DUP3 DUP2 MSTORE PUSH1 0xA PUSH1 0x20 SWAP1 DUP2 MSTORE PUSH1 0x40 DUP1 DUP4 KECCAK256 DUP2 MLOAD PUSH1 0x60 DUP2 ADD DUP4 MSTORE DUP2 SLOAD PUSH20 0xFFFFFFFFFFFFFFFFFFFFFFFFFFFFFFFFFFFFFFFF DUP1 DUP3 AND DUP4 MSTORE PUSH21 0x10000000000000000000000000000000000000000 SWAP1 SWAP2 DIV PUSH4 0xFFFFFFFF AND SWAP5 DUP3 ADD SWAP5 SWAP1 SWAP5 MSTORE PUSH1 0x1 SWAP1 SWAP2 ADD SLOAD SWAP1 SWAP3 AND SWAP1 DUP3 ADD MSTORE SWAP1 DUP1 PUSH2 0x190E DUP6 PUSH2 0x32D7 JUMP JUMPDEST SWAP2 POP SWAP2 POP PUSH2 0x1921 DUP4 PUSH1 0x20 ADD MLOAD DUP4 DUP4 PUSH2 0x32ED JUMP JUMPDEST POP SWAP6 SWAP5 POP POP POP POP POP JUMP JUMPDEST PUSH1 0x0 DUP1 PUSH1 0x0 PUSH2 0x1938 PUSH2 0x1863 JUMP JUMPDEST PUSH20 0xFFFFFFFFFFFFFFFFFFFFFFFFFFFFFFFFFFFFFFFF AND PUSH4 0xB72E717D DUP6 PUSH1 0x40 MLOAD DUP3 PUSH4 0xFFFFFFFF AND PUSH1 0xE0 SHL DUP2 MSTORE PUSH1 0x4 ADD PUSH2 0x1970 SWAP2 SWAP1 PUSH2 0x5E58 JUMP JUMPDEST PUSH1 0x0 PUSH1 0x40 MLOAD DUP1 DUP4 SUB DUP2 DUP7 DUP1 EXTCODESIZE ISZERO DUP1 ISZERO PUSH2 0x1988 JUMPI PUSH1 0x0 DUP1 REVERT JUMPDEST POP GAS STATICCALL ISZERO DUP1 ISZERO PUSH2 0x199C JUMPI RETURNDATASIZE PUSH1 0x0 DUP1 RETURNDATACOPY RETURNDATASIZE PUSH1 0x0 REVERT JUMPDEST POP POP POP POP PUSH1 0x40 MLOAD RETURNDATASIZE PUSH1 0x0 DUP3 RETURNDATACOPY PUSH1 0x1F RETURNDATASIZE SWAP1 DUP2 ADD PUSH32 0xFFFFFFFFFFFFFFFFFFFFFFFFFFFFFFFFFFFFFFFFFFFFFFFFFFFFFFFFFFFFFFE0 AND DUP3 ADD PUSH1 0x40 MSTORE PUSH2 0x19E2 SWAP2 SWAP1 DUP2 ADD SWAP1 PUSH2 0x5DAB JUMP JUMPDEST POP SWAP5 POP POP POP POP SWAP2 POP PUSH1 0x0 DUP3 EQ ISZERO PUSH2 0x1A25 JUMPI PUSH1 0x40 MLOAD PUSH32 0x8C379A000000000000000000000000000000000000000000000000000000000 DUP2 MSTORE PUSH1 0x4 ADD PUSH2 0xBDE SWAP1 PUSH2 0x5FF2 JUMP JUMPDEST DUP1 PUSH1 0x0 PUSH20 0xFFFFFFFFFFFFFFFFFFFFFFFFFFFFFFFFFFFFFFFF DUP3 AND CALLER EQ PUSH2 0x1A48 JUMPI POP CALLER JUMPDEST PUSH3 0xAAE60 PUSH2 0x1A55 DUP6 PUSH2 0x3328 JUMP JUMPDEST DUP5 PUSH1 0x0 SHL SWAP6 POP PUSH2 0x1A69 DUP7 PUSH3 0xF4240 DUP4 PUSH2 0x2C67 JUMP JUMPDEST PUSH2 0x1A71 PUSH2 0x59FA JUMP JUMPDEST POP PUSH1 0x40 DUP1 MLOAD PUSH1 0x60 DUP2 ADD DUP3 MSTORE PUSH20 0xFFFFFFFFFFFFFFFFFFFFFFFFFFFFFFFFFFFFFFFF DUP1 DUP7 AND DUP3 MSTORE PUSH4 0xFFFFFFFF DUP1 DUP6 AND PUSH1 0x20 DUP1 DUP6 ADD SWAP2 DUP3 MSTORE DUP8 DUP5 AND DUP6 DUP8 ADD SWAP1 DUP2 MSTORE PUSH1 0x0 DUP14 DUP2 MSTORE PUSH1 0xA SWAP1 SWAP3 MSTORE SWAP1 DUP7 SWAP1 KECCAK256 DUP6 MLOAD DUP2 SLOAD SWAP4 MLOAD SWAP1 SWAP5 AND PUSH21 0x10000000000000000000000000000000000000000 MUL PUSH32 0xFFFFFFFFFFFFFFFF00000000FFFFFFFFFFFFFFFFFFFFFFFFFFFFFFFFFFFFFFFF SWAP5 DUP7 AND PUSH32 0xFFFFFFFFFFFFFFFFFFFFFFFF0000000000000000000000000000000000000000 SWAP5 DUP6 AND OR SWAP5 SWAP1 SWAP5 AND SWAP4 SWAP1 SWAP4 OR DUP4 SSTORE MLOAD PUSH1 0x1 SWAP1 SWAP3 ADD DUP1 SLOAD SWAP3 SWAP1 SWAP4 AND SWAP2 AND OR SWAP1 SSTORE SWAP1 MLOAD PUSH32 0xCEC6FC86EA644053F6EDFF1160DFE3FA5C61E7A5EF9F873F145BB03A0BD319E7 SWAP1 PUSH2 0x1B74 SWAP1 DUP10 SWAP1 DUP8 SWAP1 DUP7 SWAP1 PUSH2 0x5F0D JUMP JUMPDEST PUSH1 0x40 MLOAD DUP1 SWAP2 SUB SWAP1 LOG1 PUSH2 0x1B86 DUP8 DUP10 PUSH2 0xACA JUMP JUMPDEST POP POP POP POP POP POP SWAP2 SWAP1 POP JUMP JUMPDEST PUSH1 0xB PUSH1 0x20 MSTORE PUSH1 0x0 SWAP1 DUP2 MSTORE PUSH1 0x40 SWAP1 KECCAK256 SLOAD DUP2 JUMP JUMPDEST PUSH1 0x60 PUSH1 0x2 DUP1 SLOAD DUP1 PUSH1 0x20 MUL PUSH1 0x20 ADD PUSH1 0x40 MLOAD SWAP1 DUP2 ADD PUSH1 0x40 MSTORE DUP1 SWAP3 SWAP2 SWAP1 DUP2 DUP2 MSTORE PUSH1 0x20 ADD DUP3 DUP1 SLOAD DUP1 ISZERO PUSH2 0x1C08 JUMPI PUSH1 0x20 MUL DUP3 ADD SWAP2 SWAP1 PUSH1 0x0 MSTORE PUSH1 0x20 PUSH1 0x0 KECCAK256 SWAP1 JUMPDEST DUP2 SLOAD PUSH20 0xFFFFFFFFFFFFFFFFFFFFFFFFFFFFFFFFFFFFFFFF AND DUP2 MSTORE PUSH1 0x1 SWAP1 SWAP2 ADD SWAP1 PUSH1 0x20 ADD DUP1 DUP4 GT PUSH2 0x1BDD JUMPI JUMPDEST POP POP POP POP POP SWAP1 POP SWAP1 JUMP JUMPDEST PUSH20 0xBA7F8B5FB1B19C1211C5D49550FCD149177A5EAF SWAP1 JUMP JUMPDEST PUSH1 0x12 SLOAD PUSH4 0xFFFFFFFF AND DUP2 JUMP JUMPDEST PUSH2 0x1C3E PUSH2 0x261C JUMP JUMPDEST PUSH2 0x1C46 PUSH2 0x3360 JUMP JUMPDEST PUSH2 0x1C4E PUSH2 0x3373 JUMP JUMPDEST JUMP JUMPDEST PUSH2 0x1C58 PUSH2 0x59FA JUMP JUMPDEST PUSH1 0x1 PUSH1 0x0 MSTORE PUSH1 0x4 PUSH1 0x20 MSTORE PUSH2 0x1C8B PUSH32 0xABD6E7CB50984FF9C2F3E18A2660C3353DADF4E3291DEEB275DAE2CD1E44FE05 PUSH2 0x26E7 JUMP JUMPDEST SWAP1 POP PUSH1 0x0 DUP3 PUSH1 0x1 DUP2 GT ISZERO PUSH2 0x1C9B JUMPI INVALID JUMPDEST EQ ISZERO PUSH2 0xD3A JUMPI PUSH1 0x0 PUSH2 0x1CAB PUSH2 0x1C12 JUMP JUMPDEST PUSH20 0xFFFFFFFFFFFFFFFFFFFFFFFFFFFFFFFFFFFFFFFF AND PUSH4 0x6B6DF5AA PUSH1 0x40 MLOAD DUP2 PUSH4 0xFFFFFFFF AND PUSH1 0xE0 SHL DUP2 MSTORE PUSH1 0x4 ADD PUSH1 0x20 PUSH1 0x40 MLOAD DUP1 DUP4 SUB DUP2 DUP7 DUP1 EXTCODESIZE ISZERO DUP1 ISZERO PUSH2 0x1CF0 JUMPI PUSH1 0x0 DUP1 REVERT JUMPDEST POP GAS STATICCALL ISZERO DUP1 ISZERO PUSH2 0x1D04 JUMPI RETURNDATASIZE PUSH1 0x0 DUP1 RETURNDATACOPY RETURNDATASIZE PUSH1 0x0 REVERT JUMPDEST POP POP POP POP PUSH1 0x40 MLOAD RETURNDATASIZE PUSH1 0x1F NOT PUSH1 0x1F DUP3 ADD AND DUP3 ADD DUP1 PUSH1 0x40 MSTORE POP DUP2 ADD SWAP1 PUSH2 0x1D28 SWAP2 SWAP1 PUSH2 0x5D93 JUMP JUMPDEST SWAP1 POP PUSH2 0x1D57 PUSH2 0x1D52 DUP4 PUSH1 0x20 ADD MLOAD PUSH12 0xFFFFFFFFFFFFFFFFFFFFFFFF AND DUP4 PUSH2 0x243B SWAP1 SWAP2 SWAP1 PUSH4 0xFFFFFFFF AND JUMP JUMPDEST PUSH2 0x339E JUMP JUMPDEST PUSH12 0xFFFFFFFFFFFFFFFFFFFFFFFF SWAP1 DUP2 AND PUSH1 0x20 DUP5 ADD MSTORE PUSH1 0x40 DUP4 ADD MLOAD PUSH2 0x1D81 SWAP2 PUSH2 0x1D52 SWAP2 DUP5 SWAP2 AND PUSH2 0x243B JUMP JUMPDEST PUSH12 0xFFFFFFFFFFFFFFFFFFFFFFFF AND PUSH1 0x40 DUP4 ADD MSTORE POP SWAP2 SWAP1 POP JUMP JUMPDEST PUSH1 0x14 SLOAD PUSH5 0x100000000 SWAP1 DIV PUSH4 0xFFFFFFFF AND DUP2 JUMP JUMPDEST PUSH1 0x0 PUSH2 0x1DB8 PUSH2 0x59FA JUMP JUMPDEST POP PUSH1 0x0 DUP4 DUP2 MSTORE PUSH1 0xA PUSH1 0x20 SWAP1 DUP2 MSTORE PUSH1 0x40 DUP1 DUP4 KECCAK256 DUP2 MLOAD PUSH1 0x60 DUP2 ADD DUP4 MSTORE DUP2 SLOAD PUSH20 0xFFFFFFFFFFFFFFFFFFFFFFFFFFFFFFFFFFFFFFFF DUP1 DUP3 AND DUP4 MSTORE PUSH21 0x10000000000000000000000000000000000000000 SWAP1 SWAP2 DIV PUSH4 0xFFFFFFFF AND SWAP5 DUP3 ADD SWAP5 SWAP1 SWAP5 MSTORE PUSH1 0x1 SWAP1 SWAP2 ADD SLOAD SWAP1 SWAP3 AND SWAP1 DUP3 ADD MSTORE SWAP1 DUP1 PUSH2 0x1E2C DUP7 PUSH2 0x32D7 JUMP JUMPDEST SWAP2 POP SWAP2 POP PUSH1 0x0 PUSH2 0x1E41 DUP5 PUSH1 0x20 ADD MLOAD DUP5 DUP5 PUSH2 0x32ED JUMP JUMPDEST SWAP2 POP POP PUSH2 0x1E50 DUP8 DUP8 DUP4 DUP6 PUSH2 0x33C2 JUMP JUMPDEST SWAP8 SWAP7 POP POP POP POP POP POP POP JUMP JUMPDEST CALLER PUSH1 0x0 SWAP1 DUP2 MSTORE PUSH1 0x10 PUSH1 0x20 MSTORE PUSH1 0x40 SWAP1 KECCAK256 SLOAD PUSH1 0xFF AND PUSH2 0x1E7E JUMPI PUSH2 0x1E7E PUSH2 0x9B9 CALLER PUSH2 0x3503 JUMP JUMPDEST PUSH20 0xFFFFFFFFFFFFFFFFFFFFFFFFFFFFFFFFFFFFFFFF DUP3 AND PUSH1 0x0 SWAP1 DUP2 MSTORE PUSH1 0x9 PUSH1 0x20 MSTORE PUSH1 0x40 SWAP1 KECCAK256 SLOAD DUP1 PUSH2 0x1EAF JUMPI POP PUSH2 0x1644 JUMP JUMPDEST PUSH1 0x0 PUSH2 0x1EBA DUP3 PUSH2 0x10F7 JUMP JUMPDEST PUSH1 0x20 ADD MLOAD PUSH12 0xFFFFFFFFFFFFFFFFFFFFFFFF AND SWAP1 POP PUSH1 0x13 SLOAD DUP2 LT ISZERO PUSH2 0x1EDF JUMPI POP POP PUSH2 0x1644 JUMP JUMPDEST PUSH1 0xC SLOAD PUSH1 0x0 DUP4 DUP2 MSTORE PUSH1 0x15 PUSH1 0x20 SWAP1 DUP2 MSTORE PUSH1 0x40 DUP1 DUP4 KECCAK256 DUP5 DUP5 MSTORE DUP3 MSTORE DUP1 DUP4 KECCAK256 PUSH1 0x16 SWAP1 SWAP3 MSTORE SWAP1 SWAP2 KECCAK256 DUP2 SLOAD DUP1 PUSH2 0x1F82 JUMPI PUSH1 0x0 DUP1 PUSH2 0x1F17 DUP9 DUP9 PUSH2 0x3586 JUMP JUMPDEST PUSH1 0x2 DUP8 ADD DUP3 SWAP1 SSTORE PUSH1 0x1 DUP8 ADD DUP2 SWAP1 SSTORE PUSH1 0x3 DUP7 ADD SLOAD SWAP2 SWAP4 POP SWAP2 POP PUSH2 0x1F39 SWAP1 DUP3 PUSH2 0x30E3 JUMP JUMPDEST PUSH1 0x3 DUP6 ADD SSTORE PUSH1 0x1 DUP1 DUP6 ADD SLOAD PUSH2 0x1F4D SWAP2 PUSH2 0x30E3 JUMP JUMPDEST PUSH1 0x1 DUP6 ADD SSTORE PUSH1 0x40 MLOAD DUP9 SWAP1 DUP8 SWAP1 PUSH32 0x14B098103235344975B17508C2391721CC9AC3F3FA2B56C7FF46F8480DFD074F SWAP1 PUSH1 0x0 SWAP1 LOG3 POP POP JUMPDEST DUP1 DUP8 GT ISZERO PUSH2 0x1FAE JUMPI DUP7 DUP4 SSTORE PUSH1 0x2 DUP3 ADD SLOAD PUSH2 0x1FA8 SWAP1 DUP3 SWAP1 PUSH2 0x1FA2 SWAP1 DUP11 PUSH2 0x30E3 JUMP JUMPDEST SWAP1 PUSH2 0x243B JUMP JUMPDEST PUSH1 0x2 DUP4 ADD SSTORE JUMPDEST POP POP POP POP POP POP POP POP JUMP JUMPDEST PUSH1 0x3 SLOAD PUSH20 0xFFFFFFFFFFFFFFFFFFFFFFFFFFFFFFFFFFFFFFFF AND DUP2 JUMP JUMPDEST PUSH20 0x4FBB350052BCA5417566F188EB2EBCE5B19BC964 SWAP1 JUMP JUMPDEST PUSH2 0x1FF4 PUSH2 0x59FA JUMP JUMPDEST PUSH20 0xFFFFFFFFFFFFFFFFFFFFFFFFFFFFFFFFFFFFFFFF DUP4 AND PUSH1 0x0 SWAP1 DUP2 MSTORE PUSH1 0x6 PUSH1 0x20 SWAP1 DUP2 MSTORE PUSH1 0x40 DUP1 DUP4 KECCAK256 DUP6 DUP5 MSTORE SWAP1 SWAP2 MSTORE SWAP1 KECCAK256 PUSH2 0x1180 SWAP1 PUSH2 0x26E7 JUMP JUMPDEST PUSH2 0x2035 PUSH2 0x2897 JUMP JUMPDEST PUSH20 0xFFFFFFFFFFFFFFFFFFFFFFFFFFFFFFFFFFFFFFFF DUP2 AND PUSH2 0x2060 JUMPI PUSH2 0x205B PUSH2 0x9B9 PUSH2 0x3606 JUMP JUMPDEST PUSH2 0x1127 JUMP JUMPDEST PUSH1 0x0 DUP1 SLOAD PUSH32 0xFFFFFFFFFFFFFFFFFFFFFFFF0000000000000000000000000000000000000000 AND PUSH20 0xFFFFFFFFFFFFFFFFFFFFFFFFFFFFFFFFFFFFFFFF DUP4 AND SWAP1 DUP2 OR DUP3 SSTORE PUSH1 0x40 MLOAD SWAP1 SWAP2 CALLER SWAP2 PUSH32 0x8BE0079C531659141344CD1FD0A4F28419497F9722A3DAAFE3B4186F6B6457E0 SWAP2 SWAP1 LOG3 POP JUMP JUMPDEST PUSH2 0x20D9 CALLER PUSH2 0x363D JUMP JUMPDEST ISZERO PUSH2 0x20E6 JUMPI PUSH2 0x20E6 PUSH2 0x261C JUMP JUMPDEST PUSH1 0xC SLOAD PUSH1 0x0 PUSH2 0x20F6 DUP3 PUSH1 0x1 PUSH2 0x243B JUMP JUMPDEST SWAP1 POP PUSH2 0x2100 PUSH2 0x59CB JUMP JUMPDEST POP PUSH1 0x0 DUP2 DUP2 MSTORE PUSH1 0x16 PUSH1 0x20 SWAP1 DUP2 MSTORE PUSH1 0x40 SWAP2 DUP3 SWAP1 KECCAK256 DUP3 MLOAD PUSH1 0xA0 DUP2 ADD DUP5 MSTORE DUP2 SLOAD DUP2 MSTORE PUSH1 0x1 DUP3 ADD SLOAD SWAP3 DUP2 ADD DUP4 SWAP1 MSTORE PUSH1 0x2 DUP3 ADD SLOAD SWAP4 DUP2 ADD SWAP4 SWAP1 SWAP4 MSTORE PUSH1 0x3 DUP2 ADD SLOAD PUSH1 0x60 DUP5 ADD MSTORE PUSH1 0x4 ADD SLOAD PUSH1 0x80 DUP4 ADD MSTORE PUSH2 0x2155 JUMPI POP POP POP PUSH2 0x1127 JUMP JUMPDEST PUSH2 0x215D PUSH2 0x5A1A JUMP JUMPDEST POP PUSH1 0x0 DUP5 DUP2 MSTORE PUSH1 0x15 PUSH1 0x20 SWAP1 DUP2 MSTORE PUSH1 0x40 DUP1 DUP4 KECCAK256 DUP6 DUP5 MSTORE DUP3 MSTORE SWAP2 DUP3 SWAP1 KECCAK256 DUP3 MLOAD PUSH1 0x60 DUP2 ADD DUP5 MSTORE DUP2 SLOAD DUP1 DUP3 MSTORE PUSH1 0x1 DUP4 ADD SLOAD SWAP4 DUP3 ADD SWAP4 SWAP1 SWAP4 MSTORE PUSH1 0x2 SWAP1 SWAP2 ADD SLOAD SWAP3 DUP2 ADD SWAP3 SWAP1 SWAP3 MSTORE PUSH2 0x21AB JUMPI POP POP POP POP PUSH2 0x1127 JUMP JUMPDEST PUSH1 0x0 DUP6 DUP2 MSTORE PUSH1 0x15 PUSH1 0x20 SWAP1 DUP2 MSTORE PUSH1 0x40 DUP1 DUP4 KECCAK256 DUP7 DUP5 MSTORE SWAP1 SWAP2 MSTORE DUP2 KECCAK256 DUP2 DUP2 SSTORE PUSH1 0x1 DUP2 ADD DUP3 SWAP1 SSTORE PUSH1 0x2 ADD DUP2 SWAP1 SSTORE PUSH2 0x21DE DUP3 DUP5 PUSH2 0x3643 JUMP JUMPDEST SWAP1 POP PUSH1 0x0 DUP1 PUSH2 0x21F2 DUP9 DUP5 DUP7 PUSH1 0x40 ADD MLOAD PUSH2 0x37C4 JUMP JUMPDEST SWAP2 POP SWAP2 POP DUP8 DUP8 PUSH32 0xF1116B309178AA62DCB6BF8C3B8BC2321724907C7EBF52192D14C8CE3AA9194C DUP5 DUP5 PUSH1 0x40 MLOAD PUSH2 0x2229 SWAP3 SWAP2 SWAP1 PUSH2 0x5F3F JUMP JUMPDEST PUSH1 0x40 MLOAD DUP1 SWAP2 SUB SWAP1 LOG3 PUSH1 0x0 PUSH2 0x223D DUP4 DUP4 PUSH2 0x30E3 JUMP JUMPDEST SWAP1 POP PUSH2 0x2247 PUSH2 0x1FD4 JUMP JUMPDEST PUSH20 0xFFFFFFFFFFFFFFFFFFFFFFFFFFFFFFFFFFFFFFFF AND PUSH4 0x7546172 PUSH1 0x40 MLOAD DUP2 PUSH4 0xFFFFFFFF AND PUSH1 0xE0 SHL DUP2 MSTORE PUSH1 0x4 ADD PUSH1 0x20 PUSH1 0x40 MLOAD DUP1 DUP4 SUB DUP2 DUP7 DUP1 EXTCODESIZE ISZERO DUP1 ISZERO PUSH2 0x228C JUMPI PUSH1 0x0 DUP1 REVERT JUMPDEST POP GAS STATICCALL ISZERO DUP1 ISZERO PUSH2 0x22A0 JUMPI RETURNDATASIZE PUSH1 0x0 DUP1 RETURNDATACOPY RETURNDATASIZE PUSH1 0x0 REVERT JUMPDEST POP POP POP POP PUSH1 0x40 MLOAD RETURNDATASIZE PUSH1 0x1F NOT PUSH1 0x1F DUP3 ADD AND DUP3 ADD DUP1 PUSH1 0x40 MSTORE POP DUP2 ADD SWAP1 PUSH2 0x22C4 SWAP2 SWAP1 PUSH2 0x5B60 JUMP JUMPDEST PUSH20 0xFFFFFFFFFFFFFFFFFFFFFFFFFFFFFFFFFFFFFFFF AND PUSH4 0x7FA36E40 DUP11 DUP4 PUSH1 0x40 MLOAD DUP4 PUSH4 0xFFFFFFFF AND PUSH1 0xE0 SHL DUP2 MSTORE PUSH1 0x4 ADD PUSH2 0x22FE SWAP3 SWAP2 SWAP1 PUSH2 0x5F3F JUMP JUMPDEST PUSH1 0x20 PUSH1 0x40 MLOAD DUP1 DUP4 SUB DUP2 PUSH1 0x0 DUP8 DUP1 EXTCODESIZE ISZERO DUP1 ISZERO PUSH2 0x2318 JUMPI PUSH1 0x0 DUP1 REVERT JUMPDEST POP GAS CALL ISZERO DUP1 ISZERO PUSH2 0x232C JUMPI RETURNDATASIZE PUSH1 0x0 DUP1 RETURNDATACOPY RETURNDATASIZE PUSH1 0x0 REVERT JUMPDEST POP POP POP POP PUSH1 0x40 MLOAD RETURNDATASIZE PUSH1 0x1F NOT PUSH1 0x1F DUP3 ADD AND DUP3 ADD DUP1 PUSH1 0x40 MSTORE POP DUP2 ADD SWAP1 PUSH2 0x2350 SWAP2 SWAP1 PUSH2 0x5C92 JUMP JUMPDEST PUSH2 0x2386 JUMPI PUSH1 0x40 MLOAD PUSH32 0x8C379A000000000000000000000000000000000000000000000000000000000 DUP2 MSTORE PUSH1 0x4 ADD PUSH2 0xBDE SWAP1 PUSH2 0x5F84 JUMP JUMPDEST PUSH1 0x80 DUP7 ADD MLOAD PUSH2 0x2395 SWAP1 DUP3 PUSH2 0x30E3 JUMP JUMPDEST PUSH1 0x80 DUP8 ADD DUP2 SWAP1 MSTORE PUSH1 0x0 DUP9 DUP2 MSTORE PUSH1 0x16 PUSH1 0x20 SWAP1 DUP2 MSTORE PUSH1 0x40 SWAP1 SWAP2 KECCAK256 PUSH1 0x4 ADD SWAP2 SWAP1 SWAP2 SSTORE DUP7 ADD MLOAD PUSH2 0x23C2 SWAP1 PUSH1 0x1 PUSH2 0x243B JUMP JUMPDEST PUSH1 0x20 DUP1 DUP9 ADD DUP3 DUP2 MSTORE PUSH1 0x0 DUP11 DUP2 MSTORE PUSH1 0x16 SWAP1 SWAP3 MSTORE PUSH1 0x40 SWAP1 SWAP2 KECCAK256 PUSH1 0x1 ADD SWAP2 SWAP1 SWAP2 SSTORE MLOAD PUSH2 0x1709 JUMPI PUSH1 0x80 DUP7 ADD MLOAD DUP7 MLOAD DUP9 SWAP2 PUSH32 0xB463D19ECF455BE65365092CF8E1DB6934A0334CF8CD532DDF9964D01F36B5B2 SWAP2 PUSH2 0x241A SWAP1 DUP3 PUSH2 0x243B JUMP JUMPDEST PUSH1 0x40 MLOAD PUSH2 0x2428 SWAP3 SWAP2 SWAP1 PUSH2 0x5F3F JUMP JUMPDEST PUSH1 0x40 MLOAD DUP1 SWAP2 SUB SWAP1 LOG2 POP POP POP POP POP POP POP POP POP JUMP JUMPDEST PUSH1 0x0 DUP3 DUP3 GT ISZERO PUSH2 0x2454 JUMPI PUSH2 0x2454 PUSH2 0x9B9 PUSH1 0x2 DUP6 DUP6 PUSH2 0x3927 JUMP JUMPDEST POP SWAP1 SUB SWAP1 JUMP JUMPDEST PUSH1 0x40 DUP1 MLOAD PUSH1 0x24 DUP2 ADD DUP5 SWAP1 MSTORE PUSH1 0x44 DUP1 DUP3 ADD DUP5 SWAP1 MSTORE DUP3 MLOAD DUP1 DUP4 SUB SWAP1 SWAP2 ADD DUP2 MSTORE PUSH1 0x64 SWAP1 SWAP2 ADD SWAP1 SWAP2 MSTORE PUSH1 0x20 DUP2 ADD DUP1 MLOAD PUSH28 0xFFFFFFFFFFFFFFFFFFFFFFFFFFFFFFFFFFFFFFFFFFFFFFFFFFFFFFFF AND PUSH32 0x614B800A00000000000000000000000000000000000000000000000000000000 OR SWAP1 MSTORE SWAP3 SWAP2 POP POP JUMP JUMPDEST DUP1 MLOAD PUSH1 0x20 DUP3 ADD REVERT JUMPDEST SELFBALANCE DUP1 ISZERO PUSH2 0x1127 JUMPI PUSH2 0x24E4 PUSH2 0x10DF JUMP JUMPDEST PUSH20 0xFFFFFFFFFFFFFFFFFFFFFFFFFFFFFFFFFFFFFFFF AND PUSH4 0xD0E30DB0 DUP3 PUSH1 0x40 MLOAD DUP3 PUSH4 0xFFFFFFFF AND PUSH1 0xE0 SHL DUP2 MSTORE PUSH1 0x4 ADD PUSH1 0x0 PUSH1 0x40 MLOAD DUP1 DUP4 SUB DUP2 DUP6 DUP9 DUP1 EXTCODESIZE ISZERO DUP1 ISZERO PUSH2 0x252B JUMPI PUSH1 0x0 DUP1 REVERT JUMPDEST POP GAS CALL ISZERO DUP1 ISZERO PUSH2 0x253F JUMPI RETURNDATASIZE PUSH1 0x0 DUP1 RETURNDATACOPY RETURNDATASIZE PUSH1 0x0 REVERT JUMPDEST POP POP POP POP POP POP JUMP JUMPDEST PUSH1 0x0 PUSH2 0x1854 PUSH1 0x17 SLOAD PUSH2 0x2557 PUSH2 0x10DF JUMP JUMPDEST PUSH20 0xFFFFFFFFFFFFFFFFFFFFFFFFFFFFFFFFFFFFFFFF AND PUSH4 0x70A08231 ADDRESS PUSH1 0x40 MLOAD DUP3 PUSH4 0xFFFFFFFF AND PUSH1 0xE0 SHL DUP2 MSTORE PUSH1 0x4 ADD PUSH2 0x258F SWAP2 SWAP1 PUSH2 0x5E58 JUMP JUMPDEST PUSH1 0x20 PUSH1 0x40 MLOAD DUP1 DUP4 SUB DUP2 DUP7 DUP1 EXTCODESIZE ISZERO DUP1 ISZERO PUSH2 0x25A7 JUMPI PUSH1 0x0 DUP1 REVERT JUMPDEST POP GAS STATICCALL ISZERO DUP1 ISZERO PUSH2 0x25BB JUMPI RETURNDATASIZE PUSH1 0x0 DUP1 RETURNDATACOPY RETURNDATASIZE PUSH1 0x0 REVERT JUMPDEST POP POP POP POP PUSH1 0x40 MLOAD RETURNDATASIZE PUSH1 0x1F NOT PUSH1 0x1F DUP3 ADD AND DUP3 ADD DUP1 PUSH1 0x40 MSTORE POP DUP2 ADD SWAP1 PUSH2 0x1FA2 SWAP2 SWAP1 PUSH2 0x5D93 JUMP JUMPDEST TIMESTAMP PUSH1 0x0 PUSH2 0x25EA PUSH2 0x183B JUMP JUMPDEST SWAP1 POP DUP2 DUP2 GT ISZERO PUSH2 0x2601 JUMPI PUSH2 0x2601 PUSH2 0x9B9 DUP3 DUP5 PUSH2 0x39C3 JUMP JUMPDEST PUSH1 0xC SLOAD PUSH1 0x0 SWAP1 PUSH2 0x2612 SWAP1 PUSH1 0x1 PUSH2 0x30E3 JUMP JUMPDEST PUSH1 0xC SSTORE POP POP PUSH1 0xD SSTORE JUMP JUMPDEST CALLER PUSH1 0x0 SWAP1 DUP2 MSTORE PUSH1 0x1 PUSH1 0x20 MSTORE PUSH1 0x40 SWAP1 KECCAK256 SLOAD PUSH1 0xFF AND PUSH2 0x1C4E JUMPI PUSH2 0x1C4E PUSH2 0x9B9 CALLER PUSH2 0x3A36 JUMP JUMPDEST PUSH1 0x60 PUSH4 0xB9588E43 PUSH1 0xE0 SHL DUP4 DUP4 PUSH1 0x40 MLOAD PUSH1 0x24 ADD DUP1 DUP4 PUSH1 0x1 DUP2 GT ISZERO PUSH2 0x265E JUMPI INVALID JUMPDEST DUP2 MSTORE PUSH20 0xFFFFFFFFFFFFFFFFFFFFFFFFFFFFFFFFFFFFFFFF SWAP1 SWAP3 AND PUSH1 0x20 DUP1 DUP5 ADD SWAP2 SWAP1 SWAP2 MSTORE PUSH1 0x40 DUP1 MLOAD DUP1 DUP6 SUB DUP4 ADD DUP2 MSTORE SWAP4 DUP2 ADD SWAP1 MSTORE DUP3 ADD DUP1 MLOAD PUSH28 0xFFFFFFFFFFFFFFFFFFFFFFFFFFFFFFFFFFFFFFFFFFFFFFFFFFFFFFFF AND PUSH32 0xFFFFFFFF00000000000000000000000000000000000000000000000000000000 SWAP1 SWAP6 AND SWAP5 SWAP1 SWAP5 OR SWAP1 SWAP4 MSTORE SWAP6 SWAP5 POP POP POP POP POP JUMP JUMPDEST PUSH2 0x26EF PUSH2 0x59FA JUMP JUMPDEST POP PUSH1 0x40 DUP1 MLOAD PUSH1 0x60 DUP2 ADD DUP3 MSTORE DUP3 SLOAD PUSH8 0xFFFFFFFFFFFFFFFF DUP2 AND DUP1 DUP4 MSTORE PUSH12 0xFFFFFFFFFFFFFFFFFFFFFFFF PUSH9 0x10000000000000000 DUP4 DIV DUP2 AND PUSH1 0x20 DUP6 ADD MSTORE PUSH21 0x10000000000000000000000000000000000000000 SWAP1 SWAP3 DIV SWAP1 SWAP2 AND SWAP3 DUP3 ADD SWAP3 SWAP1 SWAP3 MSTORE PUSH1 0xC SLOAD SWAP1 SWAP2 DUP2 GT ISZERO PUSH2 0x2787 JUMPI PUSH2 0x2762 DUP2 PUSH2 0x3AB9 JUMP JUMPDEST PUSH8 0xFFFFFFFFFFFFFFFF AND DUP3 MSTORE PUSH1 0x40 DUP3 ADD MLOAD PUSH12 0xFFFFFFFFFFFFFFFFFFFFFFFF AND PUSH1 0x20 DUP4 ADD MSTORE JUMPDEST POP SWAP2 SWAP1 POP JUMP JUMPDEST PUSH1 0x0 DUP2 DUP4 LT PUSH2 0x279C JUMPI DUP2 PUSH2 0x1180 JUMP JUMPDEST POP SWAP1 SWAP2 SWAP1 POP JUMP JUMPDEST PUSH1 0x40 DUP1 MLOAD PUSH1 0x24 DUP2 ADD DUP5 SWAP1 MSTORE PUSH1 0x44 DUP1 DUP3 ADD DUP5 SWAP1 MSTORE DUP3 MLOAD DUP1 DUP4 SUB SWAP1 SWAP2 ADD DUP2 MSTORE PUSH1 0x64 SWAP1 SWAP2 ADD SWAP1 SWAP2 MSTORE PUSH1 0x20 DUP2 ADD DUP1 MLOAD PUSH28 0xFFFFFFFFFFFFFFFFFFFFFFFFFFFFFFFFFFFFFFFFFFFFFFFFFFFFFFFF AND PUSH32 0x84C8B7C900000000000000000000000000000000000000000000000000000000 OR SWAP1 MSTORE SWAP3 SWAP2 POP POP JUMP JUMPDEST PUSH2 0x281E PUSH2 0x59FA JUMP JUMPDEST PUSH2 0x2827 DUP4 PUSH2 0x26E7 JUMP JUMPDEST SWAP1 POP PUSH2 0x2851 PUSH2 0x1D52 DUP4 DUP4 PUSH1 0x40 ADD MLOAD PUSH12 0xFFFFFFFFFFFFFFFFFFFFFFFF AND PUSH2 0x243B SWAP1 SWAP2 SWAP1 PUSH4 0xFFFFFFFF AND JUMP JUMPDEST PUSH12 0xFFFFFFFFFFFFFFFFFFFFFFFF SWAP1 DUP2 AND PUSH1 0x40 DUP4 ADD MSTORE PUSH1 0x20 DUP3 ADD MLOAD PUSH2 0x287A SWAP2 PUSH2 0x1D52 SWAP2 AND DUP5 PUSH2 0x243B JUMP JUMPDEST PUSH12 0xFFFFFFFFFFFFFFFFFFFFFFFF AND PUSH1 0x20 DUP3 ADD MSTORE PUSH2 0x1496 DUP4 DUP3 PUSH2 0x3AD9 JUMP JUMPDEST PUSH1 0x0 SLOAD PUSH20 0xFFFFFFFFFFFFFFFFFFFFFFFFFFFFFFFFFFFFFFFF AND CALLER EQ PUSH2 0x1C4E JUMPI PUSH1 0x0 SLOAD PUSH2 0x1C4E SWAP1 PUSH2 0x9B9 SWAP1 CALLER SWAP1 PUSH20 0xFFFFFFFFFFFFFFFFFFFFFFFFFFFFFFFFFFFFFFFF AND PUSH2 0x3B93 JUMP JUMPDEST PUSH20 0xFFFFFFFFFFFFFFFFFFFFFFFFFFFFFFFFFFFFFFFF DUP2 AND PUSH2 0x2904 JUMPI PUSH2 0x2904 PUSH2 0x9B9 PUSH2 0x3C1F JUMP JUMPDEST PUSH20 0xFFFFFFFFFFFFFFFFFFFFFFFFFFFFFFFFFFFFFFFF DUP2 AND PUSH1 0x0 SWAP1 DUP2 MSTORE PUSH1 0x1 PUSH1 0x20 MSTORE PUSH1 0x40 SWAP1 KECCAK256 SLOAD PUSH1 0xFF AND ISZERO PUSH2 0x293E JUMPI PUSH2 0x293E PUSH2 0x9B9 DUP3 PUSH2 0x3C56 JUMP JUMPDEST PUSH20 0xFFFFFFFFFFFFFFFFFFFFFFFFFFFFFFFFFFFFFFFF DUP2 AND PUSH1 0x0 DUP2 DUP2 MSTORE PUSH1 0x1 PUSH1 0x20 DUP2 SWAP1 MSTORE PUSH1 0x40 DUP1 DUP4 KECCAK256 DUP1 SLOAD PUSH32 0xFFFFFFFFFFFFFFFFFFFFFFFFFFFFFFFFFFFFFFFFFFFFFFFFFFFFFFFFFFFFFF00 AND DUP4 OR SWAP1 SSTORE PUSH1 0x2 DUP1 SLOAD SWAP3 DUP4 ADD DUP2 SSTORE DUP4 MSTORE PUSH32 0x405787FA12A823E0F2B7631CC41B3BA8828B3321CA811111FA75CD3AA3BB5ACE SWAP1 SWAP2 ADD DUP1 SLOAD PUSH32 0xFFFFFFFFFFFFFFFFFFFFFFFF0000000000000000000000000000000000000000 AND DUP5 OR SWAP1 SSTORE MLOAD CALLER SWAP3 SWAP2 PUSH32 0x3147867C59D17E8FA9D522465651D44AAE0A9E38F902F3475B97E58072F0ED4C SWAP2 LOG3 POP JUMP JUMPDEST PUSH2 0x2A18 DUP4 PUSH2 0x3CD9 JUMP JUMPDEST PUSH2 0x2A22 DUP4 DUP4 PUSH2 0x30FF JUMP JUMPDEST PUSH20 0xFFFFFFFFFFFFFFFFFFFFFFFFFFFFFFFFFFFFFFFF DUP3 AND PUSH1 0x0 SWAP1 DUP2 MSTORE PUSH1 0x6 PUSH1 0x20 SWAP1 DUP2 MSTORE PUSH1 0x40 DUP1 DUP4 KECCAK256 DUP7 DUP5 MSTORE SWAP1 SWAP2 MSTORE SWAP1 KECCAK256 PUSH2 0x2A5C SWAP1 DUP3 PUSH2 0x3D10 JUMP JUMPDEST PUSH1 0x0 DUP4 DUP2 MSTORE PUSH1 0x7 PUSH1 0x20 MSTORE PUSH1 0x40 SWAP1 KECCAK256 PUSH2 0x2A74 SWAP1 DUP3 PUSH2 0x3D10 JUMP JUMPDEST PUSH1 0x1 PUSH1 0x0 MSTORE PUSH1 0x4 PUSH1 0x20 MSTORE PUSH2 0x1496 PUSH32 0xABD6E7CB50984FF9C2F3E18A2660C3353DADF4E3291DEEB275DAE2CD1E44FE05 DUP3 PUSH2 0x3D10 JUMP JUMPDEST PUSH2 0x2AB1 DUP4 PUSH2 0x3CD9 JUMP JUMPDEST PUSH2 0x2ABB DUP4 DUP4 PUSH2 0x30FF JUMP JUMPDEST PUSH20 0xFFFFFFFFFFFFFFFFFFFFFFFFFFFFFFFFFFFFFFFF DUP3 AND PUSH1 0x0 SWAP1 DUP2 MSTORE PUSH1 0x6 PUSH1 0x20 SWAP1 DUP2 MSTORE PUSH1 0x40 DUP1 DUP4 KECCAK256 DUP7 DUP5 MSTORE SWAP1 SWAP2 MSTORE SWAP1 KECCAK256 PUSH2 0x2AF5 SWAP1 DUP3 PUSH2 0x3D68 JUMP JUMPDEST PUSH1 0x0 DUP4 DUP2 MSTORE PUSH1 0x7 PUSH1 0x20 MSTORE PUSH1 0x40 SWAP1 KECCAK256 PUSH2 0x2B0D SWAP1 DUP3 PUSH2 0x3D68 JUMP JUMPDEST PUSH1 0x1 PUSH1 0x0 MSTORE PUSH1 0x4 PUSH1 0x20 MSTORE PUSH2 0x1496 PUSH32 0xABD6E7CB50984FF9C2F3E18A2660C3353DADF4E3291DEEB275DAE2CD1E44FE05 DUP3 PUSH2 0x3D68 JUMP JUMPDEST PUSH2 0x2B4B DUP4 DUP4 PUSH2 0x3DA3 JUMP JUMPDEST ISZERO PUSH2 0x2B55 JUMPI PUSH2 0x1496 JUMP JUMPDEST PUSH2 0x2B5D PUSH2 0x59FA JUMP JUMPDEST PUSH2 0x2B66 DUP5 PUSH2 0x26E7 JUMP JUMPDEST SWAP1 POP PUSH2 0x2B70 PUSH2 0x59FA JUMP JUMPDEST PUSH2 0x2B79 DUP5 PUSH2 0x26E7 JUMP JUMPDEST SWAP1 POP DUP2 PUSH1 0x40 ADD MLOAD PUSH12 0xFFFFFFFFFFFFFFFFFFFFFFFF AND DUP4 GT ISZERO PUSH2 0x2BB4 JUMPI PUSH2 0x2BB4 PUSH2 0x9B9 DUP5 DUP5 PUSH1 0x40 ADD MLOAD PUSH12 0xFFFFFFFFFFFFFFFFFFFFFFFF AND PUSH2 0x27A3 JUMP JUMPDEST PUSH1 0x40 DUP3 ADD MLOAD PUSH2 0x2BD5 SWAP1 PUSH2 0x1D52 SWAP1 PUSH12 0xFFFFFFFFFFFFFFFFFFFFFFFF AND DUP6 PUSH2 0x243B JUMP JUMPDEST PUSH12 0xFFFFFFFFFFFFFFFFFFFFFFFF SWAP1 DUP2 AND PUSH1 0x40 DUP1 DUP6 ADD SWAP2 SWAP1 SWAP2 MSTORE DUP3 ADD MLOAD PUSH2 0x2C00 SWAP2 PUSH2 0x1D52 SWAP2 AND DUP6 PUSH2 0x30E3 JUMP JUMPDEST PUSH12 0xFFFFFFFFFFFFFFFFFFFFFFFF AND PUSH1 0x40 DUP3 ADD MSTORE PUSH2 0x2C1D DUP6 DUP4 PUSH2 0x3AD9 JUMP JUMPDEST PUSH2 0x2C27 DUP5 DUP3 PUSH2 0x3AD9 JUMP JUMPDEST POP POP POP POP POP JUMP JUMPDEST PUSH1 0x0 DUP2 DUP2 MSTORE PUSH1 0xA PUSH1 0x20 MSTORE PUSH1 0x40 SWAP1 KECCAK256 SLOAD PUSH20 0xFFFFFFFFFFFFFFFFFFFFFFFFFFFFFFFFFFFFFFFF AND CALLER DUP2 EQ PUSH2 0x1644 JUMPI PUSH2 0x1644 PUSH2 0x9B9 CALLER DUP5 PUSH2 0x3DAA JUMP JUMPDEST PUSH3 0xF4240 PUSH4 0xFFFFFFFF DUP3 AND GT ISZERO PUSH2 0x2C8C JUMPI PUSH2 0x2C87 PUSH2 0x9B9 PUSH1 0x0 DUP6 DUP5 PUSH2 0x3E32 JUMP JUMPDEST PUSH2 0x1496 JUMP JUMPDEST DUP2 PUSH4 0xFFFFFFFF AND DUP2 PUSH4 0xFFFFFFFF AND GT ISZERO PUSH2 0x1496 JUMPI PUSH2 0x1496 PUSH2 0x9B9 PUSH1 0x1 DUP6 DUP5 PUSH2 0x3E32 JUMP JUMPDEST PUSH1 0x40 DUP1 MLOAD PUSH20 0xFFFFFFFFFFFFFFFFFFFFFFFFFFFFFFFFFFFFFFFF DUP4 AND PUSH1 0x24 DUP1 DUP4 ADD SWAP2 SWAP1 SWAP2 MSTORE DUP3 MLOAD DUP1 DUP4 SUB SWAP1 SWAP2 ADD DUP2 MSTORE PUSH1 0x44 SWAP1 SWAP2 ADD SWAP1 SWAP2 MSTORE PUSH1 0x20 DUP2 ADD DUP1 MLOAD PUSH28 0xFFFFFFFFFFFFFFFFFFFFFFFFFFFFFFFFFFFFFFFFFFFFFFFFFFFFFFFF AND PUSH32 0xEB5108A200000000000000000000000000000000000000000000000000000000 OR SWAP1 MSTORE SWAP2 SWAP1 POP JUMP JUMPDEST PUSH20 0xFFFFFFFFFFFFFFFFFFFFFFFFFFFFFFFFFFFFFFFF DUP3 AND PUSH1 0x0 SWAP1 DUP2 MSTORE PUSH1 0x1 PUSH1 0x20 MSTORE PUSH1 0x40 SWAP1 KECCAK256 SLOAD PUSH1 0xFF AND PUSH2 0x2D6B JUMPI PUSH2 0x2D6B PUSH2 0x9B9 DUP4 PUSH2 0x2CAF JUMP JUMPDEST PUSH1 0x2 SLOAD DUP2 LT PUSH2 0x2D86 JUMPI PUSH2 0x2D86 PUSH2 0x9B9 DUP3 PUSH1 0x2 DUP1 SLOAD SWAP1 POP PUSH2 0x3ED4 JUMP JUMPDEST DUP2 PUSH20 0xFFFFFFFFFFFFFFFFFFFFFFFFFFFFFFFFFFFFFFFF AND PUSH1 0x2 DUP3 DUP2 SLOAD DUP2 LT PUSH2 0x2DAA JUMPI INVALID JUMPDEST PUSH1 0x0 SWAP2 DUP3 MSTORE PUSH1 0x20 SWAP1 SWAP2 KECCAK256 ADD SLOAD PUSH20 0xFFFFFFFFFFFFFFFFFFFFFFFFFFFFFFFFFFFFFFFF AND EQ PUSH2 0x2E0C JUMPI PUSH2 0x2E0C PUSH2 0x9B9 PUSH1 0x2 DUP4 DUP2 SLOAD DUP2 LT PUSH2 0x2DE4 JUMPI INVALID JUMPDEST PUSH1 0x0 SWAP2 DUP3 MSTORE PUSH1 0x20 SWAP1 SWAP2 KECCAK256 ADD SLOAD PUSH20 0xFFFFFFFFFFFFFFFFFFFFFFFFFFFFFFFFFFFFFFFF AND DUP5 PUSH2 0x3F47 JUMP JUMPDEST PUSH20 0xFFFFFFFFFFFFFFFFFFFFFFFFFFFFFFFFFFFFFFFF DUP3 AND PUSH1 0x0 SWAP1 DUP2 MSTORE PUSH1 0x1 PUSH1 0x20 MSTORE PUSH1 0x40 SWAP1 KECCAK256 DUP1 SLOAD PUSH32 0xFFFFFFFFFFFFFFFFFFFFFFFFFFFFFFFFFFFFFFFFFFFFFFFFFFFFFFFFFFFFFF00 AND SWAP1 SSTORE PUSH1 0x2 DUP1 SLOAD PUSH32 0xFFFFFFFFFFFFFFFFFFFFFFFFFFFFFFFFFFFFFFFFFFFFFFFFFFFFFFFFFFFFFFFF DUP2 ADD SWAP1 DUP2 LT PUSH2 0x2E87 JUMPI INVALID JUMPDEST PUSH1 0x0 SWAP2 DUP3 MSTORE PUSH1 0x20 SWAP1 SWAP2 KECCAK256 ADD SLOAD PUSH1 0x2 DUP1 SLOAD PUSH20 0xFFFFFFFFFFFFFFFFFFFFFFFFFFFFFFFFFFFFFFFF SWAP1 SWAP3 AND SWAP2 DUP4 SWAP1 DUP2 LT PUSH2 0x2EBA JUMPI INVALID JUMPDEST SWAP1 PUSH1 0x0 MSTORE PUSH1 0x20 PUSH1 0x0 KECCAK256 ADD PUSH1 0x0 PUSH2 0x100 EXP DUP2 SLOAD DUP2 PUSH20 0xFFFFFFFFFFFFFFFFFFFFFFFFFFFFFFFFFFFFFFFF MUL NOT AND SWAP1 DUP4 PUSH20 0xFFFFFFFFFFFFFFFFFFFFFFFFFFFFFFFFFFFFFFFF AND MUL OR SWAP1 SSTORE POP PUSH1 0x2 DUP1 SLOAD DUP1 PUSH2 0x2F0D JUMPI INVALID JUMPDEST PUSH1 0x0 DUP3 DUP2 MSTORE PUSH1 0x20 DUP2 KECCAK256 DUP3 ADD PUSH32 0xFFFFFFFFFFFFFFFFFFFFFFFFFFFFFFFFFFFFFFFFFFFFFFFFFFFFFFFFFFFFFFFF SWAP1 DUP2 ADD DUP1 SLOAD PUSH32 0xFFFFFFFFFFFFFFFFFFFFFFFF0000000000000000000000000000000000000000 AND SWAP1 SSTORE SWAP1 SWAP2 ADD SWAP1 SWAP2 SSTORE PUSH1 0x40 MLOAD CALLER SWAP2 PUSH20 0xFFFFFFFFFFFFFFFFFFFFFFFFFFFFFFFFFFFFFFFF DUP6 AND SWAP2 PUSH32 0x1F32C1B084E2DE0713B8FB16BD46BB9DF710A3DBEAE2F3CA93AF46E016DCC6B0 SWAP2 SWAP1 LOG3 POP POP JUMP JUMPDEST PUSH1 0x11 DUP6 SWAP1 SSTORE PUSH1 0x12 DUP1 SLOAD PUSH4 0xFFFFFFFF DUP1 DUP8 AND PUSH32 0xFFFFFFFFFFFFFFFFFFFFFFFFFFFFFFFFFFFFFFFFFFFFFFFFFFFFFFFF00000000 SWAP3 DUP4 AND DUP2 OR SWAP1 SWAP4 SSTORE PUSH1 0x13 DUP7 SWAP1 SSTORE PUSH1 0x14 DUP1 SLOAD DUP6 DUP4 AND PUSH5 0x100000000 DUP2 MUL PUSH32 0xFFFFFFFFFFFFFFFFFFFFFFFFFFFFFFFFFFFFFFFFFFFFFFFF00000000FFFFFFFF SWAP5 DUP10 AND SWAP3 SWAP1 SWAP6 AND DUP3 OR SWAP4 SWAP1 SWAP4 AND SWAP4 SWAP1 SWAP4 OR SWAP1 SSTORE PUSH1 0x40 DUP1 MLOAD DUP10 DUP2 MSTORE PUSH1 0x20 DUP2 ADD SWAP5 SWAP1 SWAP5 MSTORE DUP4 DUP2 ADD DUP8 SWAP1 MSTORE PUSH1 0x60 DUP5 ADD SWAP3 SWAP1 SWAP3 MSTORE PUSH1 0x80 DUP4 ADD MSTORE MLOAD PUSH32 0x613157DBB0E920DEAB8AD6DDD3805E87CBF57344B9FE780F1764790EC7897542 SWAP2 DUP2 SWAP1 SUB PUSH1 0xA0 ADD SWAP1 LOG1 POP POP POP POP POP JUMP JUMPDEST PUSH2 0x308B PUSH2 0x59FA JUMP JUMPDEST PUSH2 0x3094 DUP4 PUSH2 0x26E7 JUMP JUMPDEST SWAP1 POP PUSH2 0x30BE PUSH2 0x1D52 DUP4 DUP4 PUSH1 0x40 ADD MLOAD PUSH12 0xFFFFFFFFFFFFFFFFFFFFFFFF AND PUSH2 0x30E3 SWAP1 SWAP2 SWAP1 PUSH4 0xFFFFFFFF AND JUMP JUMPDEST PUSH12 0xFFFFFFFFFFFFFFFFFFFFFFFF SWAP1 DUP2 AND PUSH1 0x40 DUP4 ADD MSTORE PUSH1 0x20 DUP3 ADD MLOAD PUSH2 0x287A SWAP2 PUSH2 0x1D52 SWAP2 AND DUP5 JUMPDEST PUSH1 0x0 DUP3 DUP3 ADD DUP4 DUP2 LT ISZERO PUSH2 0x1180 JUMPI PUSH2 0x1180 PUSH2 0x9B9 PUSH1 0x0 DUP7 DUP7 PUSH2 0x3927 JUMP JUMPDEST PUSH2 0x3108 DUP3 PUSH2 0x3FD3 JUMP JUMPDEST PUSH1 0x0 PUSH2 0x3117 DUP4 DUP4 PUSH1 0x0 DUP1 PUSH2 0x33C2 JUMP JUMPDEST PUSH20 0xFFFFFFFFFFFFFFFFFFFFFFFFFFFFFFFFFFFFFFFF DUP4 AND PUSH1 0x0 SWAP1 DUP2 MSTORE PUSH1 0x6 PUSH1 0x20 SWAP1 DUP2 MSTORE PUSH1 0x40 DUP1 DUP4 KECCAK256 DUP8 DUP5 MSTORE SWAP1 SWAP2 MSTORE SWAP1 KECCAK256 SWAP1 SWAP2 POP PUSH2 0x3153 SWAP1 PUSH2 0x26E7 JUMP JUMPDEST PUSH20 0xFFFFFFFFFFFFFFFFFFFFFFFFFFFFFFFFFFFFFFFF DUP4 DUP2 AND PUSH1 0x0 SWAP1 DUP2 MSTORE PUSH1 0x6 PUSH1 0x20 SWAP1 DUP2 MSTORE PUSH1 0x40 DUP1 DUP4 KECCAK256 DUP9 DUP5 MSTORE DUP3 MSTORE SWAP2 DUP3 SWAP1 KECCAK256 DUP5 MLOAD DUP2 SLOAD SWAP3 DUP7 ADD MLOAD SWAP6 SWAP1 SWAP4 ADD MLOAD PUSH32 0xFFFFFFFFFFFFFFFFFFFFFFFFFFFFFFFFFFFFFFFFFFFFFFFF0000000000000000 SWAP1 SWAP3 AND PUSH8 0xFFFFFFFFFFFFFFFF SWAP1 SWAP4 AND SWAP3 SWAP1 SWAP3 OR PUSH32 0xFFFFFFFFFFFFFFFFFFFFFFFF000000000000000000000000FFFFFFFFFFFFFFFF AND PUSH9 0x10000000000000000 PUSH12 0xFFFFFFFFFFFFFFFFFFFFFFFF SWAP6 DUP7 AND MUL OR SWAP1 SWAP3 AND PUSH21 0x10000000000000000000000000000000000000000 SWAP4 SWAP1 SWAP3 AND SWAP3 SWAP1 SWAP3 MUL OR SWAP1 SSTORE DUP1 ISZERO PUSH2 0x32CE JUMPI PUSH2 0x3238 DUP4 DUP3 PUSH2 0x3FDC JUMP JUMPDEST PUSH2 0x3240 PUSH2 0x10DF JUMP JUMPDEST PUSH20 0xFFFFFFFFFFFFFFFFFFFFFFFFFFFFFFFFFFFFFFFF AND PUSH4 0xA9059CBB DUP4 DUP4 PUSH1 0x40 MLOAD DUP4 PUSH4 0xFFFFFFFF AND PUSH1 0xE0 SHL DUP2 MSTORE PUSH1 0x4 ADD PUSH2 0x327A SWAP3 SWAP2 SWAP1 PUSH2 0x5E79 JUMP JUMPDEST PUSH1 0x20 PUSH1 0x40 MLOAD DUP1 DUP4 SUB DUP2 PUSH1 0x0 DUP8 DUP1 EXTCODESIZE ISZERO DUP1 ISZERO PUSH2 0x3294 JUMPI PUSH1 0x0 DUP1 REVERT JUMPDEST POP GAS CALL ISZERO DUP1 ISZERO PUSH2 0x32A8 JUMPI RETURNDATASIZE PUSH1 0x0 DUP1 RETURNDATACOPY RETURNDATASIZE PUSH1 0x0 REVERT JUMPDEST POP POP POP POP PUSH1 0x40 MLOAD RETURNDATASIZE PUSH1 0x1F NOT PUSH1 0x1F DUP3 ADD AND DUP3 ADD DUP1 PUSH1 0x40 MSTORE POP DUP2 ADD SWAP1 PUSH2 0x32CC SWAP2 SWAP1 PUSH2 0x5C92 JUMP JUMPDEST POP JUMPDEST PUSH2 0x1496 DUP4 PUSH2 0x4018 JUMP JUMPDEST PUSH1 0x0 DUP1 PUSH2 0x32E3 DUP4 PUSH2 0x4025 JUMP JUMPDEST SWAP1 SWAP5 SWAP1 SWAP4 POP SWAP2 POP POP JUMP JUMPDEST PUSH1 0x0 DUP1 DUP3 PUSH2 0x32FD JUMPI DUP4 SWAP2 POP PUSH2 0x3320 JUMP JUMPDEST PUSH2 0x3311 PUSH4 0xFFFFFFFF DUP7 AND PUSH3 0xF4240 DUP7 PUSH2 0x4031 JUMP JUMPDEST SWAP2 POP PUSH2 0x331D DUP5 DUP4 PUSH2 0x243B JUMP JUMPDEST SWAP1 POP JUMPDEST SWAP4 POP SWAP4 SWAP2 POP POP JUMP JUMPDEST PUSH1 0x0 DUP2 DUP2 MSTORE PUSH1 0xA PUSH1 0x20 MSTORE PUSH1 0x40 SWAP1 KECCAK256 SLOAD PUSH20 0xFFFFFFFFFFFFFFFFFFFFFFFFFFFFFFFFFFFFFFFF AND ISZERO PUSH2 0x1127 JUMPI PUSH2 0x1127 PUSH2 0x9B9 DUP3 PUSH1 0x0 PUSH2 0x405B JUMP JUMPDEST PUSH2 0x3368 PUSH2 0x40CF JUMP JUMPDEST TIMESTAMP PUSH1 0xD SSTORE PUSH1 0x1 PUSH1 0xC SSTORE JUMP JUMPDEST PUSH2 0x337B PUSH2 0x40E4 JUMP JUMPDEST PUSH3 0x127500 PUSH3 0xDBBA0 PUSH9 0x56BC75E2D63100000 PUSH1 0x2 PUSH1 0x3 PUSH2 0x2C27 DUP6 DUP6 DUP6 DUP6 DUP6 PUSH2 0x2FAD JUMP JUMPDEST DUP1 PUSH12 0xFFFFFFFFFFFFFFFFFFFFFFFF DUP2 AND DUP2 EQ PUSH2 0xD3A JUMPI PUSH2 0xD3A PUSH2 0x9B9 PUSH1 0x2 DUP5 PUSH2 0x4149 JUMP JUMPDEST PUSH1 0xC SLOAD PUSH1 0x0 SWAP1 PUSH2 0x33D0 PUSH2 0x59FA JUMP JUMPDEST POP PUSH20 0xFFFFFFFFFFFFFFFFFFFFFFFFFFFFFFFFFFFFFFFF DUP6 AND PUSH1 0x0 SWAP1 DUP2 MSTORE PUSH1 0x6 PUSH1 0x20 SWAP1 DUP2 MSTORE PUSH1 0x40 DUP1 DUP4 KECCAK256 DUP10 DUP5 MSTORE DUP3 MSTORE SWAP2 DUP3 SWAP1 KECCAK256 DUP3 MLOAD PUSH1 0x60 DUP2 ADD DUP5 MSTORE SWAP1 SLOAD PUSH8 0xFFFFFFFFFFFFFFFF DUP2 AND DUP1 DUP4 MSTORE PUSH12 0xFFFFFFFFFFFFFFFFFFFFFFFF PUSH9 0x10000000000000000 DUP4 DIV DUP2 AND SWAP5 DUP5 ADD SWAP5 SWAP1 SWAP5 MSTORE PUSH21 0x10000000000000000000000000000000000000000 SWAP1 SWAP2 DIV SWAP1 SWAP3 AND SWAP3 DUP2 ADD SWAP3 SWAP1 SWAP3 MSTORE DUP3 EQ ISZERO PUSH2 0x3471 JUMPI PUSH1 0x0 SWAP3 POP POP POP PUSH2 0x34FB JUMP JUMPDEST PUSH2 0x347D DUP2 DUP4 DUP8 DUP8 PUSH2 0x41DB JUMP JUMPDEST DUP2 MLOAD SWAP1 SWAP4 POP PUSH1 0x0 SWAP1 PUSH2 0x349A SWAP1 PUSH8 0xFFFFFFFFFFFFFFFF AND PUSH1 0x1 PUSH2 0x30E3 JUMP JUMPDEST SWAP1 POP PUSH2 0x34D2 PUSH2 0x34CB DUP10 DUP5 PUSH1 0x20 ADD MLOAD PUSH12 0xFFFFFFFFFFFFFFFFFFFFFFFF AND DUP6 PUSH1 0x0 ADD MLOAD PUSH8 0xFFFFFFFFFFFFFFFF AND DUP6 PUSH2 0x4258 JUMP JUMPDEST DUP6 SWAP1 PUSH2 0x30E3 JUMP JUMPDEST SWAP4 POP PUSH2 0x34F5 PUSH2 0x34CB DUP10 DUP5 PUSH1 0x40 ADD MLOAD PUSH12 0xFFFFFFFFFFFFFFFFFFFFFFFF AND DUP5 DUP8 PUSH2 0x4258 JUMP JUMPDEST SWAP4 POP POP POP POP JUMPDEST SWAP5 SWAP4 POP POP POP POP JUMP JUMPDEST PUSH1 0x40 DUP1 MLOAD PUSH20 0xFFFFFFFFFFFFFFFFFFFFFFFFFFFFFFFFFFFFFFFF DUP4 AND PUSH1 0x24 DUP1 DUP4 ADD SWAP2 SWAP1 SWAP2 MSTORE DUP3 MLOAD DUP1 DUP4 SUB SWAP1 SWAP2 ADD DUP2 MSTORE PUSH1 0x44 SWAP1 SWAP2 ADD SWAP1 SWAP2 MSTORE PUSH1 0x20 DUP2 ADD DUP1 MLOAD PUSH28 0xFFFFFFFFFFFFFFFFFFFFFFFFFFFFFFFFFFFFFFFFFFFFFFFFFFFFFFFF AND PUSH32 0xB56D2DF000000000000000000000000000000000000000000000000000000000 OR SWAP1 MSTORE SWAP2 SWAP1 POP JUMP JUMPDEST PUSH1 0x0 DUP3 DUP2 MSTORE PUSH1 0xA PUSH1 0x20 MSTORE PUSH1 0x40 DUP2 KECCAK256 SLOAD DUP2 SWAP1 DUP2 SWAP1 PUSH2 0x35B9 SWAP1 PUSH20 0xFFFFFFFFFFFFFFFFFFFFFFFFFFFFFFFFFFFFFFFF AND DUP7 PUSH2 0x1FEC JUMP JUMPDEST PUSH1 0x20 ADD MLOAD PUSH12 0xFFFFFFFFFFFFFFFFFFFFFFFF AND SWAP1 POP PUSH2 0x35D7 DUP5 DUP3 PUSH2 0x243B JUMP JUMPDEST PUSH1 0x12 SLOAD SWAP1 SWAP4 POP PUSH2 0x35FC SWAP1 PUSH2 0x35F5 SWAP1 PUSH4 0xFFFFFFFF AND PUSH3 0xF4240 DUP7 PUSH2 0x42F1 JUMP JUMPDEST DUP3 SWAP1 PUSH2 0x30E3 JUMP JUMPDEST SWAP2 POP POP SWAP3 POP SWAP3 SWAP1 POP JUMP JUMPDEST PUSH1 0x40 DUP1 MLOAD DUP1 DUP3 ADD SWAP1 SWAP2 MSTORE PUSH1 0x4 DUP2 MSTORE PUSH32 0xE69EDC3E00000000000000000000000000000000000000000000000000000000 PUSH1 0x20 DUP3 ADD MSTORE SWAP1 JUMP JUMPDEST EXTCODESIZE ISZERO ISZERO SWAP1 JUMP JUMPDEST DUP2 MLOAD PUSH1 0x0 SWAP1 PUSH2 0x3651 JUMPI PUSH2 0x1183 JUMP JUMPDEST PUSH1 0x0 PUSH2 0x365B PUSH2 0x1FD4 JUMP JUMPDEST PUSH20 0xFFFFFFFFFFFFFFFFFFFFFFFFFFFFFFFFFFFFFFFF AND PUSH4 0x7546172 PUSH1 0x40 MLOAD DUP2 PUSH4 0xFFFFFFFF AND PUSH1 0xE0 SHL DUP2 MSTORE PUSH1 0x4 ADD PUSH1 0x20 PUSH1 0x40 MLOAD DUP1 DUP4 SUB DUP2 DUP7 DUP1 EXTCODESIZE ISZERO DUP1 ISZERO PUSH2 0x36A0 JUMPI PUSH1 0x0 DUP1 REVERT JUMPDEST POP GAS STATICCALL ISZERO DUP1 ISZERO PUSH2 0x36B4 JUMPI RETURNDATASIZE PUSH1 0x0 DUP1 RETURNDATACOPY RETURNDATASIZE PUSH1 0x0 REVERT JUMPDEST POP POP POP POP PUSH1 0x40 MLOAD RETURNDATASIZE PUSH1 0x1F NOT PUSH1 0x1F DUP3 ADD AND DUP3 ADD DUP1 PUSH1 0x40 MSTORE POP DUP2 ADD SWAP1 PUSH2 0x36D8 SWAP2 SWAP1 PUSH2 0x5B60 JUMP JUMPDEST PUSH20 0xFFFFFFFFFFFFFFFFFFFFFFFFFFFFFFFFFFFFFFFF AND PUSH4 0x57A15C03 DUP6 PUSH1 0x20 ADD MLOAD PUSH1 0x40 MLOAD DUP3 PUSH4 0xFFFFFFFF AND PUSH1 0xE0 SHL DUP2 MSTORE PUSH1 0x4 ADD PUSH2 0x3714 SWAP2 SWAP1 PUSH2 0x5F04 JUMP JUMPDEST PUSH1 0x20 PUSH1 0x40 MLOAD DUP1 DUP4 SUB DUP2 DUP7 DUP1 EXTCODESIZE ISZERO DUP1 ISZERO PUSH2 0x372C JUMPI PUSH1 0x0 DUP1 REVERT JUMPDEST POP GAS STATICCALL ISZERO DUP1 ISZERO PUSH2 0x3740 JUMPI RETURNDATASIZE PUSH1 0x0 DUP1 RETURNDATACOPY RETURNDATASIZE PUSH1 0x0 REVERT JUMPDEST POP POP POP POP PUSH1 0x40 MLOAD RETURNDATASIZE PUSH1 0x1F NOT PUSH1 0x1F DUP3 ADD AND DUP3 ADD DUP1 PUSH1 0x40 MSTORE POP DUP2 ADD SWAP1 PUSH2 0x3764 SWAP2 SWAP1 PUSH2 0x5D93 JUMP JUMPDEST DUP5 MLOAD PUSH1 0x20 DUP7 ADD MLOAD PUSH1 0x60 DUP7 ADD MLOAD PUSH1 0x14 SLOAD SWAP4 SWAP5 POP PUSH2 0x3798 SWAP4 DUP6 SWAP4 SWAP3 DUP5 SWAP3 SWAP1 SWAP2 PUSH4 0xFFFFFFFF DUP1 DUP3 AND SWAP2 PUSH5 0x100000000 SWAP1 DIV AND PUSH2 0x4301 JUMP JUMPDEST PUSH1 0x80 DUP5 ADD MLOAD DUP5 MLOAD SWAP2 SWAP4 POP PUSH1 0x0 SWAP2 PUSH2 0x37AE SWAP2 PUSH2 0x243B JUMP JUMPDEST SWAP1 POP DUP3 DUP2 LT ISZERO PUSH2 0x37BC JUMPI DUP1 SWAP3 POP JUMPDEST POP POP SWAP3 SWAP2 POP POP JUMP JUMPDEST PUSH1 0x0 DUP1 PUSH2 0x37CF PUSH2 0x59FA JUMP JUMPDEST POP PUSH1 0x0 DUP6 DUP2 MSTORE PUSH1 0xA PUSH1 0x20 SWAP1 DUP2 MSTORE PUSH1 0x40 SWAP2 DUP3 SWAP1 KECCAK256 DUP3 MLOAD PUSH1 0x60 DUP2 ADD DUP5 MSTORE DUP2 SLOAD PUSH20 0xFFFFFFFFFFFFFFFFFFFFFFFFFFFFFFFFFFFFFFFF DUP1 DUP3 AND DUP4 MSTORE PUSH21 0x10000000000000000000000000000000000000000 SWAP1 SWAP2 DIV PUSH4 0xFFFFFFFF AND SWAP4 DUP3 ADD DUP5 SWAP1 MSTORE PUSH1 0x1 SWAP1 SWAP3 ADD SLOAD SWAP1 SWAP2 AND SWAP3 DUP2 ADD SWAP3 SWAP1 SWAP3 MSTORE PUSH2 0x3846 SWAP1 DUP7 DUP7 PUSH2 0x32ED JUMP JUMPDEST SWAP1 SWAP4 POP SWAP2 POP DUP3 ISZERO PUSH2 0x3903 JUMPI PUSH2 0x3859 PUSH2 0x10DF JUMP JUMPDEST DUP2 MLOAD PUSH1 0x40 MLOAD PUSH32 0xA9059CBB00000000000000000000000000000000000000000000000000000000 DUP2 MSTORE PUSH20 0xFFFFFFFFFFFFFFFFFFFFFFFFFFFFFFFFFFFFFFFF SWAP3 SWAP1 SWAP3 AND SWAP2 PUSH4 0xA9059CBB SWAP2 PUSH2 0x38AF SWAP2 DUP8 SWAP1 PUSH1 0x4 ADD PUSH2 0x5E79 JUMP JUMPDEST PUSH1 0x20 PUSH1 0x40 MLOAD DUP1 DUP4 SUB DUP2 PUSH1 0x0 DUP8 DUP1 EXTCODESIZE ISZERO DUP1 ISZERO PUSH2 0x38C9 JUMPI PUSH1 0x0 DUP1 REVERT JUMPDEST POP GAS CALL ISZERO DUP1 ISZERO PUSH2 0x38DD JUMPI RETURNDATASIZE PUSH1 0x0 DUP1 RETURNDATACOPY RETURNDATASIZE PUSH1 0x0 REVERT JUMPDEST POP POP POP POP PUSH1 0x40 MLOAD RETURNDATASIZE PUSH1 0x1F NOT PUSH1 0x1F DUP3 ADD AND DUP3 ADD DUP1 PUSH1 0x40 MSTORE POP DUP2 ADD SWAP1 PUSH2 0x3901 SWAP2 SWAP1 PUSH2 0x5C92 JUMP JUMPDEST POP JUMPDEST DUP2 ISZERO PUSH2 0x391E JUMPI PUSH2 0x3913 DUP7 DUP4 PUSH2 0x43C3 JUMP JUMPDEST PUSH2 0x391E DUP7 DUP4 DUP7 PUSH2 0x43F8 JUMP JUMPDEST POP SWAP4 POP SWAP4 SWAP2 POP POP JUMP JUMPDEST PUSH1 0x60 PUSH4 0xE946C1BB PUSH1 0xE0 SHL DUP5 DUP5 DUP5 PUSH1 0x40 MLOAD PUSH1 0x24 ADD DUP1 DUP5 PUSH1 0x3 DUP2 GT ISZERO PUSH2 0x3947 JUMPI INVALID JUMPDEST DUP2 MSTORE PUSH1 0x20 ADD DUP4 DUP2 MSTORE PUSH1 0x20 ADD DUP3 DUP2 MSTORE PUSH1 0x20 ADD SWAP4 POP POP POP POP PUSH1 0x40 MLOAD PUSH1 0x20 DUP2 DUP4 SUB SUB DUP2 MSTORE SWAP1 PUSH1 0x40 MSTORE SWAP1 PUSH28 0xFFFFFFFFFFFFFFFFFFFFFFFFFFFFFFFFFFFFFFFFFFFFFFFFFFFFFFFF NOT AND PUSH1 0x20 DUP3 ADD DUP1 MLOAD PUSH28 0xFFFFFFFFFFFFFFFFFFFFFFFFFFFFFFFFFFFFFFFFFFFFFFFFFFFFFFFF DUP4 DUP2 DUP4 AND OR DUP4 MSTORE POP POP POP POP SWAP1 POP SWAP4 SWAP3 POP POP POP JUMP JUMPDEST PUSH1 0x40 DUP1 MLOAD PUSH1 0x24 DUP2 ADD DUP5 SWAP1 MSTORE PUSH1 0x44 DUP1 DUP3 ADD DUP5 SWAP1 MSTORE DUP3 MLOAD DUP1 DUP4 SUB SWAP1 SWAP2 ADD DUP2 MSTORE PUSH1 0x64 SWAP1 SWAP2 ADD SWAP1 SWAP2 MSTORE PUSH1 0x20 DUP2 ADD DUP1 MLOAD PUSH28 0xFFFFFFFFFFFFFFFFFFFFFFFFFFFFFFFFFFFFFFFFFFFFFFFFFFFFFFFF AND PUSH32 0xA6BCDE4700000000000000000000000000000000000000000000000000000000 OR SWAP1 MSTORE SWAP3 SWAP2 POP POP JUMP JUMPDEST PUSH1 0x40 DUP1 MLOAD PUSH20 0xFFFFFFFFFFFFFFFFFFFFFFFFFFFFFFFFFFFFFFFF DUP4 AND PUSH1 0x24 DUP1 DUP4 ADD SWAP2 SWAP1 SWAP2 MSTORE DUP3 MLOAD DUP1 DUP4 SUB SWAP1 SWAP2 ADD DUP2 MSTORE PUSH1 0x44 SWAP1 SWAP2 ADD SWAP1 SWAP2 MSTORE PUSH1 0x20 DUP2 ADD DUP1 MLOAD PUSH28 0xFFFFFFFFFFFFFFFFFFFFFFFFFFFFFFFFFFFFFFFFFFFFFFFFFFFFFFFF AND PUSH32 0xB65A25B900000000000000000000000000000000000000000000000000000000 OR SWAP1 MSTORE SWAP2 SWAP1 POP JUMP JUMPDEST DUP1 PUSH8 0xFFFFFFFFFFFFFFFF DUP2 AND DUP2 EQ PUSH2 0xD3A JUMPI PUSH2 0xD3A PUSH2 0x9B9 PUSH1 0x1 DUP5 PUSH2 0x4149 JUMP JUMPDEST DUP1 MLOAD DUP3 SLOAD PUSH1 0x40 DUP4 ADD MLOAD PUSH1 0x20 SWAP1 SWAP4 ADD MLOAD PUSH12 0xFFFFFFFFFFFFFFFFFFFFFFFF SWAP1 DUP2 AND PUSH9 0x10000000000000000 MUL PUSH32 0xFFFFFFFFFFFFFFFFFFFFFFFF000000000000000000000000FFFFFFFFFFFFFFFF SWAP2 SWAP1 SWAP5 AND PUSH21 0x10000000000000000000000000000000000000000 MUL PUSH20 0xFFFFFFFFFFFFFFFFFFFFFFFFFFFFFFFFFFFFFFFF PUSH8 0xFFFFFFFFFFFFFFFF SWAP1 SWAP5 AND PUSH32 0xFFFFFFFFFFFFFFFFFFFFFFFFFFFFFFFFFFFFFFFFFFFFFFFF0000000000000000 SWAP1 SWAP4 AND SWAP3 SWAP1 SWAP3 OR SWAP3 SWAP1 SWAP3 AND OR AND OR SWAP1 SSTORE JUMP JUMPDEST PUSH1 0x40 DUP1 MLOAD PUSH20 0xFFFFFFFFFFFFFFFFFFFFFFFFFFFFFFFFFFFFFFFF DUP1 DUP6 AND PUSH1 0x24 DUP4 ADD MSTORE DUP4 AND PUSH1 0x44 DUP1 DUP4 ADD SWAP2 SWAP1 SWAP2 MSTORE DUP3 MLOAD DUP1 DUP4 SUB SWAP1 SWAP2 ADD DUP2 MSTORE PUSH1 0x64 SWAP1 SWAP2 ADD SWAP1 SWAP2 MSTORE PUSH1 0x20 DUP2 ADD DUP1 MLOAD PUSH28 0xFFFFFFFFFFFFFFFFFFFFFFFFFFFFFFFFFFFFFFFFFFFFFFFFFFFFFFFF AND PUSH32 0x1DE45AD100000000000000000000000000000000000000000000000000000000 OR SWAP1 MSTORE SWAP3 SWAP2 POP POP JUMP JUMPDEST PUSH1 0x40 DUP1 MLOAD DUP1 DUP3 ADD SWAP1 SWAP2 MSTORE PUSH1 0x4 DUP2 MSTORE PUSH32 0x57654FE400000000000000000000000000000000000000000000000000000000 PUSH1 0x20 DUP3 ADD MSTORE SWAP1 JUMP JUMPDEST PUSH1 0x40 DUP1 MLOAD PUSH20 0xFFFFFFFFFFFFFFFFFFFFFFFFFFFFFFFFFFFFFFFF DUP4 AND PUSH1 0x24 DUP1 DUP4 ADD SWAP2 SWAP1 SWAP2 MSTORE DUP3 MLOAD DUP1 DUP4 SUB SWAP1 SWAP2 ADD DUP2 MSTORE PUSH1 0x44 SWAP1 SWAP2 ADD SWAP1 SWAP2 MSTORE PUSH1 0x20 DUP2 ADD DUP1 MLOAD PUSH28 0xFFFFFFFFFFFFFFFFFFFFFFFFFFFFFFFFFFFFFFFFFFFFFFFFFFFFFFFF AND PUSH32 0xDE16F1A000000000000000000000000000000000000000000000000000000000 OR SWAP1 MSTORE SWAP2 SWAP1 POP JUMP JUMPDEST PUSH1 0x0 DUP2 DUP2 MSTORE PUSH1 0xA PUSH1 0x20 MSTORE PUSH1 0x40 SWAP1 KECCAK256 SLOAD PUSH20 0xFFFFFFFFFFFFFFFFFFFFFFFFFFFFFFFFFFFFFFFF AND PUSH2 0x1127 JUMPI PUSH2 0x1127 PUSH2 0x9B9 DUP3 PUSH1 0x0 PUSH2 0x405B JUMP JUMPDEST PUSH2 0x3D18 PUSH2 0x59FA JUMP JUMPDEST PUSH2 0x3D21 DUP4 PUSH2 0x26E7 JUMP JUMPDEST SWAP1 POP PUSH2 0x3D4B PUSH2 0x1D52 DUP4 DUP4 PUSH1 0x40 ADD MLOAD PUSH12 0xFFFFFFFFFFFFFFFFFFFFFFFF AND PUSH2 0x243B SWAP1 SWAP2 SWAP1 PUSH4 0xFFFFFFFF AND JUMP JUMPDEST PUSH12 0xFFFFFFFFFFFFFFFFFFFFFFFF AND PUSH1 0x40 DUP3 ADD MSTORE PUSH2 0x1496 DUP4 DUP3 PUSH2 0x3AD9 JUMP JUMPDEST PUSH2 0x3D70 PUSH2 0x59FA JUMP JUMPDEST PUSH2 0x3D79 DUP4 PUSH2 0x26E7 JUMP JUMPDEST SWAP1 POP PUSH2 0x3D4B PUSH2 0x1D52 DUP4 DUP4 PUSH1 0x40 ADD MLOAD PUSH12 0xFFFFFFFFFFFFFFFFFFFFFFFF AND PUSH2 0x30E3 SWAP1 SWAP2 SWAP1 PUSH4 0xFFFFFFFF AND JUMP JUMPDEST EQ PUSH1 0x1 AND SWAP1 JUMP JUMPDEST PUSH1 0x40 DUP1 MLOAD PUSH20 0xFFFFFFFFFFFFFFFFFFFFFFFFFFFFFFFFFFFFFFFF DUP5 AND PUSH1 0x24 DUP3 ADD MSTORE PUSH1 0x44 DUP1 DUP3 ADD DUP5 SWAP1 MSTORE DUP3 MLOAD DUP1 DUP4 SUB SWAP1 SWAP2 ADD DUP2 MSTORE PUSH1 0x64 SWAP1 SWAP2 ADD SWAP1 SWAP2 MSTORE PUSH1 0x20 DUP2 ADD DUP1 MLOAD PUSH28 0xFFFFFFFFFFFFFFFFFFFFFFFFFFFFFFFFFFFFFFFFFFFFFFFFFFFFFFFF AND PUSH32 0x82DED78500000000000000000000000000000000000000000000000000000000 OR SWAP1 MSTORE SWAP3 SWAP2 POP POP JUMP JUMPDEST PUSH1 0x60 PUSH4 0x22DF9597 PUSH1 0xE0 SHL DUP5 DUP5 DUP5 PUSH1 0x40 MLOAD PUSH1 0x24 ADD DUP1 DUP5 PUSH1 0x1 DUP2 GT ISZERO PUSH2 0x3E52 JUMPI INVALID JUMPDEST DUP2 MSTORE PUSH1 0x20 ADD DUP4 DUP2 MSTORE PUSH1 0x20 ADD DUP3 PUSH4 0xFFFFFFFF AND DUP2 MSTORE PUSH1 0x20 ADD SWAP4 POP POP POP POP PUSH1 0x40 MLOAD PUSH1 0x20 DUP2 DUP4 SUB SUB DUP2 MSTORE SWAP1 PUSH1 0x40 MSTORE SWAP1 PUSH28 0xFFFFFFFFFFFFFFFFFFFFFFFFFFFFFFFFFFFFFFFFFFFFFFFFFFFFFFFF NOT AND PUSH1 0x20 DUP3 ADD DUP1 MLOAD PUSH28 0xFFFFFFFFFFFFFFFFFFFFFFFFFFFFFFFFFFFFFFFFFFFFFFFFFFFFFFFF DUP4 DUP2 DUP4 AND OR DUP4 MSTORE POP POP POP POP SWAP1 POP SWAP4 SWAP3 POP POP POP JUMP JUMPDEST PUSH1 0x40 DUP1 MLOAD PUSH1 0x24 DUP2 ADD DUP5 SWAP1 MSTORE PUSH1 0x44 DUP1 DUP3 ADD DUP5 SWAP1 MSTORE DUP3 MLOAD DUP1 DUP4 SUB SWAP1 SWAP2 ADD DUP2 MSTORE PUSH1 0x64 SWAP1 SWAP2 ADD SWAP1 SWAP2 MSTORE PUSH1 0x20 DUP2 ADD DUP1 MLOAD PUSH28 0xFFFFFFFFFFFFFFFFFFFFFFFFFFFFFFFFFFFFFFFFFFFFFFFFFFFFFFFF AND PUSH32 0xE9F8377100000000000000000000000000000000000000000000000000000000 OR SWAP1 MSTORE SWAP3 SWAP2 POP POP JUMP JUMPDEST PUSH1 0x40 DUP1 MLOAD PUSH20 0xFFFFFFFFFFFFFFFFFFFFFFFFFFFFFFFFFFFFFFFF DUP1 DUP6 AND PUSH1 0x24 DUP4 ADD MSTORE DUP4 AND PUSH1 0x44 DUP1 DUP4 ADD SWAP2 SWAP1 SWAP2 MSTORE DUP3 MLOAD DUP1 DUP4 SUB SWAP1 SWAP2 ADD DUP2 MSTORE PUSH1 0x64 SWAP1 SWAP2 ADD SWAP1 SWAP2 MSTORE PUSH1 0x20 DUP2 ADD DUP1 MLOAD PUSH28 0xFFFFFFFFFFFFFFFFFFFFFFFFFFFFFFFFFFFFFFFFFFFFFFFFFFFFFFFF AND PUSH32 0x140A84DB00000000000000000000000000000000000000000000000000000000 OR SWAP1 MSTORE SWAP3 SWAP2 POP POP JUMP JUMPDEST PUSH2 0x1127 DUP2 PUSH2 0x44E1 JUMP JUMPDEST PUSH1 0x0 DUP3 DUP2 MSTORE PUSH1 0xB PUSH1 0x20 MSTORE PUSH1 0x40 SWAP1 KECCAK256 SLOAD PUSH2 0x3FF5 SWAP1 DUP3 PUSH2 0x243B JUMP JUMPDEST PUSH1 0x0 DUP4 DUP2 MSTORE PUSH1 0xB PUSH1 0x20 MSTORE PUSH1 0x40 SWAP1 KECCAK256 SSTORE PUSH1 0x17 SLOAD PUSH2 0x4011 SWAP1 DUP3 PUSH2 0x243B JUMP JUMPDEST PUSH1 0x17 SSTORE POP POP JUMP JUMPDEST PUSH2 0x1127 DUP2 PUSH1 0x0 PUSH1 0x1 PUSH2 0x43F8 JUMP JUMPDEST PUSH1 0x0 DUP1 PUSH2 0x32E3 DUP4 PUSH2 0x44EA JUMP JUMPDEST PUSH1 0x0 PUSH2 0x34FB DUP4 PUSH2 0x4055 PUSH2 0x4045 DUP3 PUSH1 0x1 PUSH2 0x243B JUMP JUMPDEST PUSH2 0x404F DUP9 DUP8 PUSH2 0x45A7 JUMP JUMPDEST SWAP1 PUSH2 0x30E3 JUMP JUMPDEST SWAP1 PUSH2 0x45D8 JUMP JUMPDEST PUSH1 0x40 DUP1 MLOAD PUSH1 0x24 DUP2 ADD SWAP4 SWAP1 SWAP4 MSTORE SWAP1 ISZERO ISZERO PUSH1 0x44 DUP1 DUP5 ADD SWAP2 SWAP1 SWAP2 MSTORE DUP2 MLOAD DUP1 DUP5 SUB SWAP1 SWAP2 ADD DUP2 MSTORE PUSH1 0x64 SWAP1 SWAP3 ADD SWAP1 MSTORE PUSH1 0x20 DUP2 ADD DUP1 MLOAD PUSH28 0xFFFFFFFFFFFFFFFFFFFFFFFFFFFFFFFFFFFFFFFFFFFFFFFFFFFFFFFF AND PUSH32 0x9AE94F0100000000000000000000000000000000000000000000000000000000 OR SWAP1 MSTORE SWAP1 JUMP JUMPDEST PUSH1 0xD SLOAD ISZERO PUSH2 0x1C4E JUMPI PUSH2 0x1C4E PUSH2 0x9B9 PUSH1 0x0 PUSH2 0x4602 JUMP JUMPDEST PUSH1 0x11 SLOAD ISZERO DUP1 ISZERO SWAP1 PUSH2 0x40FC JUMPI POP PUSH1 0x12 SLOAD PUSH4 0xFFFFFFFF AND ISZERO ISZERO JUMPDEST DUP1 ISZERO PUSH2 0x4109 JUMPI POP PUSH1 0x13 SLOAD ISZERO ISZERO JUMPDEST DUP1 ISZERO PUSH2 0x411C JUMPI POP PUSH1 0x14 SLOAD PUSH4 0xFFFFFFFF AND ISZERO ISZERO JUMPDEST DUP1 ISZERO PUSH2 0x4137 JUMPI POP PUSH1 0x14 SLOAD PUSH5 0x100000000 SWAP1 DIV PUSH4 0xFFFFFFFF AND ISZERO ISZERO JUMPDEST ISZERO PUSH2 0x1C4E JUMPI PUSH2 0x1C4E PUSH2 0x9B9 PUSH1 0x1 PUSH2 0x4602 JUMP JUMPDEST PUSH1 0x60 PUSH4 0xC996AF7B PUSH1 0xE0 SHL DUP4 DUP4 PUSH1 0x40 MLOAD PUSH1 0x24 ADD DUP1 DUP4 PUSH1 0x2 DUP2 GT ISZERO PUSH2 0x4168 JUMPI INVALID JUMPDEST DUP2 MSTORE PUSH1 0x20 DUP1 DUP3 ADD SWAP4 SWAP1 SWAP4 MSTORE PUSH1 0x40 DUP1 MLOAD DUP1 DUP4 SUB DUP6 ADD DUP2 MSTORE SWAP2 DUP2 ADD SWAP1 MSTORE SWAP2 DUP3 ADD DUP1 MLOAD PUSH28 0xFFFFFFFFFFFFFFFFFFFFFFFFFFFFFFFFFFFFFFFFFFFFFFFFFFFFFFFF AND PUSH32 0xFFFFFFFF00000000000000000000000000000000000000000000000000000000 SWAP1 SWAP6 AND SWAP5 SWAP1 SWAP5 OR SWAP1 SWAP4 MSTORE SWAP3 POP POP POP SWAP3 SWAP2 POP POP JUMP JUMPDEST PUSH1 0x0 DUP3 ISZERO DUP1 PUSH2 0x41E8 JUMPI POP DUP2 ISZERO JUMPDEST ISZERO PUSH2 0x41F5 JUMPI POP PUSH1 0x0 PUSH2 0x34FB JUMP JUMPDEST PUSH1 0x0 PUSH2 0x4202 DUP6 PUSH1 0x1 PUSH2 0x243B JUMP JUMPDEST DUP7 MLOAD PUSH8 0xFFFFFFFFFFFFFFFF AND LT ISZERO PUSH2 0x421E JUMPI DUP6 PUSH1 0x40 ADD MLOAD PUSH2 0x4224 JUMP JUMPDEST DUP6 PUSH1 0x20 ADD MLOAD JUMPDEST PUSH12 0xFFFFFFFFFFFFFFFFFFFFFFFF AND SWAP1 POP DUP1 PUSH2 0x4243 JUMPI PUSH1 0x0 SWAP2 POP POP PUSH2 0x34FB JUMP JUMPDEST PUSH2 0x424E DUP5 DUP5 DUP4 PUSH2 0x42F1 JUMP JUMPDEST SWAP7 SWAP6 POP POP POP POP POP POP JUMP JUMPDEST PUSH1 0x0 DUP4 ISZERO DUP1 PUSH2 0x4266 JUMPI POP DUP2 DUP4 EQ JUMPDEST ISZERO PUSH2 0x4273 JUMPI POP PUSH1 0x0 PUSH2 0x34FB JUMP JUMPDEST DUP2 DUP4 LT PUSH2 0x42AC JUMPI PUSH1 0x40 MLOAD PUSH32 0x8C379A000000000000000000000000000000000000000000000000000000000 DUP2 MSTORE PUSH1 0x4 ADD PUSH2 0xBDE SWAP1 PUSH2 0x6029 JUMP JUMPDEST PUSH2 0x42B4 PUSH2 0x5A3B JUMP JUMPDEST PUSH2 0x42BE DUP7 DUP6 PUSH2 0x46A8 JUMP JUMPDEST SWAP1 POP PUSH2 0x42C8 PUSH2 0x5A3B JUMP JUMPDEST PUSH2 0x42D2 DUP8 DUP6 PUSH2 0x46A8 JUMP JUMPDEST SWAP1 POP PUSH2 0x1E50 DUP2 PUSH1 0x0 ADD MLOAD DUP3 PUSH1 0x20 ADD MLOAD DUP5 PUSH1 0x0 ADD MLOAD DUP6 PUSH1 0x20 ADD MLOAD DUP11 PUSH2 0x47BF JUMP JUMPDEST PUSH1 0x0 PUSH2 0x34FB DUP4 PUSH2 0x4055 DUP7 DUP6 PUSH2 0x45A7 JUMP JUMPDEST PUSH1 0x0 DUP1 PUSH2 0x430E DUP9 DUP9 PUSH2 0x482D JUMP JUMPDEST SWAP1 POP PUSH1 0x0 PUSH2 0x431C DUP8 DUP8 PUSH2 0x482D JUMP JUMPDEST SWAP1 POP DUP2 ISZERO DUP1 PUSH2 0x4329 JUMPI POP DUP1 ISZERO JUMPDEST ISZERO PUSH2 0x4339 JUMPI PUSH1 0x0 SWAP3 POP POP POP PUSH2 0x1E50 JUMP JUMPDEST PUSH1 0x0 DUP2 DUP4 SGT ISZERO PUSH2 0x4352 JUMPI PUSH2 0x434D DUP3 DUP5 PUSH2 0x487F JUMP JUMPDEST PUSH2 0x435C JUMP JUMPDEST PUSH2 0x435C DUP4 DUP4 PUSH2 0x487F JUMP JUMPDEST SWAP1 POP PUSH2 0x4385 PUSH2 0x4380 PUSH2 0x436D DUP4 PUSH2 0x489E JUMP JUMPDEST DUP9 PUSH4 0xFFFFFFFF AND DUP9 PUSH4 0xFFFFFFFF AND PUSH2 0x4F40 JUMP JUMPDEST PUSH2 0x4F4F JUMP JUMPDEST SWAP1 POP DUP2 DUP4 SGT ISZERO PUSH2 0x439E JUMPI PUSH2 0x4399 DUP3 DUP3 PUSH2 0x487F JUMP JUMPDEST PUSH2 0x43A8 JUMP JUMPDEST PUSH2 0x43A8 DUP3 DUP3 PUSH2 0x5539 JUMP JUMPDEST SWAP1 POP PUSH2 0x43B4 DUP2 DUP13 PUSH2 0x5565 JUMP JUMPDEST SWAP12 SWAP11 POP POP POP POP POP POP POP POP POP POP POP JUMP JUMPDEST PUSH1 0x0 DUP3 DUP2 MSTORE PUSH1 0xB PUSH1 0x20 MSTORE PUSH1 0x40 SWAP1 KECCAK256 SLOAD PUSH2 0x43DC SWAP1 DUP3 PUSH2 0x30E3 JUMP JUMPDEST PUSH1 0x0 DUP4 DUP2 MSTORE PUSH1 0xB PUSH1 0x20 MSTORE PUSH1 0x40 SWAP1 KECCAK256 SSTORE PUSH1 0x17 SLOAD PUSH2 0x4011 SWAP1 DUP3 PUSH2 0x30E3 JUMP JUMPDEST PUSH1 0x0 DUP4 DUP2 MSTORE PUSH1 0xF PUSH1 0x20 MSTORE PUSH1 0x40 SWAP1 KECCAK256 SLOAD PUSH1 0xC SLOAD DUP1 DUP3 EQ ISZERO PUSH2 0x4419 JUMPI POP POP PUSH2 0x1496 JUMP JUMPDEST PUSH2 0x4421 PUSH2 0x5A3B JUMP JUMPDEST POP PUSH1 0x0 DUP6 DUP2 MSTORE PUSH1 0xE PUSH1 0x20 SWAP1 DUP2 MSTORE PUSH1 0x40 DUP1 DUP4 KECCAK256 DUP6 DUP5 MSTORE DUP3 MSTORE SWAP2 DUP3 SWAP1 KECCAK256 DUP3 MLOAD DUP1 DUP5 ADD SWAP1 SWAP4 MSTORE DUP1 SLOAD DUP4 MSTORE PUSH1 0x1 ADD SLOAD SWAP1 DUP3 ADD MSTORE PUSH2 0x4458 PUSH2 0x5A3B JUMP JUMPDEST PUSH2 0x4461 DUP3 PUSH2 0x55A7 JUMP JUMPDEST ISZERO PUSH2 0x449A JUMPI PUSH2 0x447A DUP3 PUSH1 0x0 ADD MLOAD DUP4 PUSH1 0x20 ADD MLOAD DUP9 DUP9 PUSH2 0x55B0 JUMP JUMPDEST PUSH1 0x20 DUP4 ADD DUP2 SWAP1 MSTORE DUP2 DUP4 MSTORE PUSH2 0x448E SWAP2 SWAP1 PUSH2 0x5600 JUMP JUMPDEST PUSH1 0x20 DUP4 ADD MSTORE DUP2 MSTORE PUSH2 0x44A5 JUMP JUMPDEST PUSH1 0x20 DUP2 ADD DUP6 SWAP1 MSTORE DUP6 DUP2 MSTORE JUMPDEST PUSH1 0x0 DUP8 DUP2 MSTORE PUSH1 0xE PUSH1 0x20 SWAP1 DUP2 MSTORE PUSH1 0x40 DUP1 DUP4 KECCAK256 DUP7 DUP5 MSTORE DUP3 MSTORE DUP1 DUP4 KECCAK256 DUP5 MLOAD DUP2 SSTORE SWAP4 DUP3 ADD MLOAD PUSH1 0x1 SWAP1 SWAP5 ADD SWAP4 SWAP1 SWAP4 SSTORE SWAP8 DUP2 MSTORE PUSH1 0xF SWAP1 SWAP8 MSTORE SWAP1 SWAP6 KECCAK256 SSTORE POP POP POP POP JUMP JUMPDEST PUSH2 0x1127 DUP2 PUSH2 0x5629 JUMP JUMPDEST PUSH1 0x0 DUP1 PUSH1 0x0 PUSH2 0x4505 PUSH1 0x1 PUSH1 0xC SLOAD PUSH2 0x243B SWAP1 SWAP2 SWAP1 PUSH4 0xFFFFFFFF AND JUMP JUMPDEST SWAP1 POP PUSH2 0x450F PUSH2 0x5A1A JUMP JUMPDEST POP PUSH1 0x0 DUP5 DUP2 MSTORE PUSH1 0x15 PUSH1 0x20 SWAP1 DUP2 MSTORE PUSH1 0x40 DUP1 DUP4 KECCAK256 DUP5 DUP5 MSTORE DUP3 MSTORE DUP1 DUP4 KECCAK256 DUP2 MLOAD PUSH1 0x60 DUP1 DUP3 ADD DUP5 MSTORE DUP3 SLOAD DUP3 MSTORE PUSH1 0x1 DUP1 DUP5 ADD SLOAD DUP4 DUP8 ADD MSTORE PUSH1 0x2 SWAP4 DUP5 ADD SLOAD DUP4 DUP7 ADD MSTORE DUP8 DUP8 MSTORE PUSH1 0x16 DUP7 MSTORE SWAP6 DUP5 SWAP1 KECCAK256 DUP5 MLOAD PUSH1 0xA0 DUP2 ADD DUP7 MSTORE DUP2 SLOAD DUP2 MSTORE SWAP7 DUP2 ADD SLOAD SWAP6 DUP8 ADD SWAP6 SWAP1 SWAP6 MSTORE SWAP2 DUP5 ADD SLOAD SWAP3 DUP6 ADD SWAP3 SWAP1 SWAP3 MSTORE PUSH1 0x3 DUP4 ADD SLOAD SWAP1 DUP5 ADD MSTORE PUSH1 0x4 SWAP1 SWAP2 ADD SLOAD PUSH1 0x80 DUP4 ADD MSTORE SWAP1 PUSH2 0x4597 SWAP1 DUP3 SWAP1 PUSH2 0x3643 JUMP JUMPDEST SWAP4 POP DUP1 PUSH1 0x40 ADD MLOAD SWAP3 POP POP POP SWAP2 POP SWAP2 JUMP JUMPDEST PUSH1 0x0 DUP3 PUSH2 0x45B6 JUMPI POP PUSH1 0x0 PUSH2 0x1183 JUMP JUMPDEST DUP3 DUP3 MUL DUP3 DUP5 DUP3 DUP2 PUSH2 0x45C3 JUMPI INVALID JUMPDEST DIV EQ PUSH2 0x1180 JUMPI PUSH2 0x1180 PUSH2 0x9B9 PUSH1 0x1 DUP7 DUP7 PUSH2 0x3927 JUMP JUMPDEST PUSH1 0x0 DUP2 PUSH2 0x45EE JUMPI PUSH2 0x45EE PUSH2 0x9B9 PUSH1 0x3 DUP6 DUP6 PUSH2 0x3927 JUMP JUMPDEST PUSH1 0x0 DUP3 DUP5 DUP2 PUSH2 0x45F9 JUMPI INVALID JUMPDEST DIV SWAP5 SWAP4 POP POP POP POP JUMP JUMPDEST PUSH1 0x60 PUSH32 0xB02D77300000000000000000000000000000000000000000000000000000000 DUP3 PUSH1 0x1 DUP2 GT ISZERO PUSH2 0x4631 JUMPI INVALID JUMPDEST PUSH1 0x40 MLOAD PUSH1 0x24 ADD DUP1 DUP3 PUSH1 0xFF AND DUP2 MSTORE PUSH1 0x20 ADD SWAP2 POP POP PUSH1 0x40 MLOAD PUSH1 0x20 DUP2 DUP4 SUB SUB DUP2 MSTORE SWAP1 PUSH1 0x40 MSTORE SWAP1 PUSH28 0xFFFFFFFFFFFFFFFFFFFFFFFFFFFFFFFFFFFFFFFFFFFFFFFFFFFFFFFF NOT AND PUSH1 0x20 DUP3 ADD DUP1 MLOAD PUSH28 0xFFFFFFFFFFFFFFFFFFFFFFFFFFFFFFFFFFFFFFFFFFFFFFFFFFFFFFFF DUP4 DUP2 DUP4 AND OR DUP4 MSTORE POP POP POP POP SWAP1 POP SWAP2 SWAP1 POP JUMP JUMPDEST PUSH2 0x46B0 PUSH2 0x5A3B JUMP JUMPDEST POP PUSH1 0x0 DUP3 DUP2 MSTORE PUSH1 0xE PUSH1 0x20 SWAP1 DUP2 MSTORE PUSH1 0x40 DUP1 DUP4 KECCAK256 DUP5 DUP5 MSTORE DUP3 MSTORE SWAP2 DUP3 SWAP1 KECCAK256 DUP3 MLOAD DUP1 DUP5 ADD SWAP1 SWAP4 MSTORE DUP1 SLOAD DUP4 MSTORE PUSH1 0x1 ADD SLOAD SWAP1 DUP3 ADD MSTORE PUSH2 0x46E8 DUP2 PUSH2 0x55A7 JUMP JUMPDEST ISZERO PUSH2 0x46F2 JUMPI PUSH2 0x1183 JUMP JUMPDEST PUSH1 0x0 PUSH2 0x46FF DUP4 PUSH1 0x1 PUSH2 0x243B JUMP JUMPDEST PUSH1 0x0 DUP6 DUP2 MSTORE PUSH1 0xE PUSH1 0x20 SWAP1 DUP2 MSTORE PUSH1 0x40 DUP1 DUP4 KECCAK256 DUP5 DUP5 MSTORE DUP3 MSTORE SWAP2 DUP3 SWAP1 KECCAK256 DUP3 MLOAD DUP1 DUP5 ADD SWAP1 SWAP4 MSTORE DUP1 SLOAD DUP4 MSTORE PUSH1 0x1 ADD SLOAD SWAP1 DUP3 ADD MSTORE SWAP3 POP SWAP1 POP PUSH2 0x473A DUP3 PUSH2 0x55A7 JUMP JUMPDEST ISZERO PUSH2 0x4745 JUMPI POP PUSH2 0x1183 JUMP JUMPDEST PUSH1 0x0 DUP5 DUP2 MSTORE PUSH1 0xF PUSH1 0x20 MSTORE PUSH1 0x40 SWAP1 KECCAK256 SLOAD DUP4 DUP2 LT ISZERO PUSH2 0x47A1 JUMPI PUSH1 0x0 DUP6 DUP2 MSTORE PUSH1 0xE PUSH1 0x20 SWAP1 DUP2 MSTORE PUSH1 0x40 DUP1 DUP4 KECCAK256 DUP5 DUP5 MSTORE DUP3 MSTORE SWAP2 DUP3 SWAP1 KECCAK256 DUP3 MLOAD DUP1 DUP5 ADD SWAP1 SWAP4 MSTORE DUP1 SLOAD DUP4 MSTORE PUSH1 0x1 ADD SLOAD SWAP1 DUP3 ADD MSTORE SWAP3 POP PUSH2 0x4795 DUP4 PUSH2 0x55A7 JUMP JUMPDEST ISZERO PUSH2 0x47A1 JUMPI POP POP PUSH2 0x1183 JUMP JUMPDEST POP POP PUSH1 0x40 DUP1 MLOAD DUP1 DUP3 ADD SWAP1 SWAP2 MSTORE PUSH1 0x0 DUP2 MSTORE PUSH1 0x1 PUSH1 0x20 DUP3 ADD MSTORE SWAP4 SWAP3 POP POP POP JUMP JUMPDEST PUSH1 0x0 DUP2 PUSH2 0x47CE JUMPI POP PUSH1 0x0 PUSH2 0x4824 JUMP JUMPDEST DUP4 PUSH2 0x47E8 JUMPI PUSH2 0x47E1 DUP6 PUSH2 0x4055 DUP5 DUP10 PUSH2 0x45A7 JUMP JUMPDEST SWAP1 POP PUSH2 0x4824 JUMP JUMPDEST PUSH1 0x0 PUSH2 0x4801 PUSH2 0x47F7 DUP7 DUP9 PUSH2 0x45A7 JUMP JUMPDEST PUSH2 0x1FA2 DUP10 DUP8 PUSH2 0x45A7 JUMP JUMPDEST SWAP1 POP PUSH1 0x0 PUSH2 0x480F DUP3 DUP7 PUSH2 0x45D8 JUMP JUMPDEST SWAP1 POP PUSH2 0x481F DUP8 PUSH2 0x4055 DUP7 DUP5 PUSH2 0x45A7 JUMP JUMPDEST SWAP3 POP POP POP JUMPDEST SWAP6 SWAP5 POP POP POP POP POP JUMP JUMPDEST PUSH1 0x0 DUP1 DUP4 SLT ISZERO PUSH2 0x4845 JUMPI PUSH2 0x4845 PUSH2 0x9B9 PUSH1 0x1 DUP6 PUSH2 0x5697 JUMP JUMPDEST PUSH1 0x0 DUP3 SLT ISZERO PUSH2 0x485C JUMPI PUSH2 0x485C PUSH2 0x9B9 PUSH1 0x1 DUP5 PUSH2 0x5697 JUMP JUMPDEST PUSH2 0x1180 PUSH2 0x4879 DUP5 PUSH16 0x80000000000000000000000000000000 PUSH2 0x5744 JUMP JUMPDEST DUP4 PUSH2 0x5797 JUMP JUMPDEST PUSH1 0x0 PUSH2 0x1180 PUSH2 0x4879 DUP5 PUSH16 0x80000000000000000000000000000000 PUSH2 0x5744 JUMP JUMPDEST PUSH1 0x0 PUSH16 0x80000000000000000000000000000000 DUP3 SGT ISZERO PUSH2 0x48C6 JUMPI PUSH2 0x48C6 PUSH2 0x9B9 PUSH1 0x1 DUP5 PUSH2 0x5818 JUMP JUMPDEST PUSH1 0x0 DUP3 SGT PUSH2 0x48DC JUMPI PUSH2 0x48DC PUSH2 0x9B9 PUSH1 0x0 DUP5 PUSH2 0x5818 JUMP JUMPDEST PUSH16 0x80000000000000000000000000000000 DUP3 EQ ISZERO PUSH2 0x48FC JUMPI POP PUSH1 0x0 PUSH2 0xD3A JUMP JUMPDEST PUSH5 0x733048C5A DUP3 SGT PUSH2 0x492F JUMPI POP PUSH32 0xFFFFFFFFFFFFFFFFFFFFFFFFFFFFFFE010000000000000000000000000000000 PUSH2 0xD3A JUMP JUMPDEST PUSH1 0x0 DUP1 PUSH1 0x0 PUSH11 0x1C8464F76164760000000 DUP6 SGT PUSH2 0x498E JUMPI PUSH32 0xFFFFFFFFFFFFFFFFFFFFFFFFFFFFFFF000000000000000000000000000000000 SWAP1 SWAP4 ADD SWAP3 PUSH11 0x1C8464F76164760000000 PUSH16 0x80000000000000000000000000000000 DUP7 MUL SDIV SWAP5 POP JUMPDEST PUSH13 0xF1AADDD7742E90000000000000 DUP6 SGT PUSH2 0x49EC JUMPI PUSH32 0xFFFFFFFFFFFFFFFFFFFFFFFFFFFFFFF800000000000000000000000000000000 SWAP1 SWAP4 ADD SWAP3 PUSH13 0xF1AADDD7742E90000000000000 PUSH16 0x80000000000000000000000000000000 DUP7 MUL SDIV SWAP5 POP JUMPDEST PUSH15 0xAFE10820813D78000000000000000 DUP6 SGT PUSH2 0x4A4E JUMPI PUSH32 0xFFFFFFFFFFFFFFFFFFFFFFFFFFFFFFFC00000000000000000000000000000000 SWAP1 SWAP4 ADD SWAP3 PUSH15 0xAFE10820813D78000000000000000 PUSH16 0x80000000000000000000000000000000 DUP7 MUL SDIV SWAP5 POP JUMPDEST PUSH16 0x2582AB704279EC00000000000000000 DUP6 SGT PUSH2 0x4AB2 JUMPI PUSH32 0xFFFFFFFFFFFFFFFFFFFFFFFFFFFFFFFE00000000000000000000000000000000 SWAP1 SWAP4 ADD SWAP3 PUSH16 0x2582AB704279EC00000000000000000 PUSH16 0x80000000000000000000000000000000 DUP7 MUL SDIV SWAP5 POP JUMPDEST PUSH16 0x1152AAA3BF81CC000000000000000000 DUP6 SGT PUSH2 0x4B16 JUMPI PUSH32 0xFFFFFFFFFFFFFFFFFFFFFFFFFFFFFFFF00000000000000000000000000000000 SWAP1 SWAP4 ADD SWAP3 PUSH16 0x1152AAA3BF81CC000000000000000000 PUSH16 0x80000000000000000000000000000000 DUP7 MUL SDIV SWAP5 POP JUMPDEST PUSH16 0x2F16AC6C59DE70000000000000000000 DUP6 SGT PUSH2 0x4B7A JUMPI PUSH32 0xFFFFFFFFFFFFFFFFFFFFFFFFFFFFFFFF80000000000000000000000000000000 SWAP1 SWAP4 ADD SWAP3 PUSH16 0x2F16AC6C59DE70000000000000000000 PUSH16 0x80000000000000000000000000000000 DUP7 MUL SDIV SWAP5 POP JUMPDEST PUSH16 0x4DA2CBF1BE5828000000000000000000 DUP6 SGT PUSH2 0x4BDE JUMPI PUSH32 0xFFFFFFFFFFFFFFFFFFFFFFFFFFFFFFFFC0000000000000000000000000000000 SWAP1 SWAP4 ADD SWAP3 PUSH16 0x4DA2CBF1BE5828000000000000000000 PUSH16 0x80000000000000000000000000000000 DUP7 MUL SDIV SWAP5 POP JUMPDEST PUSH16 0x63AFBE7AB2082C000000000000000000 DUP6 SGT PUSH2 0x4C42 JUMPI PUSH32 0xFFFFFFFFFFFFFFFFFFFFFFFFFFFFFFFFE0000000000000000000000000000000 SWAP1 SWAP4 ADD SWAP3 PUSH16 0x63AFBE7AB2082C000000000000000000 PUSH16 0x80000000000000000000000000000000 DUP7 MUL SDIV SWAP5 POP JUMPDEST PUSH16 0x70F5A893B608861E1F58934F97AEA57D DUP6 SGT PUSH2 0x4CA6 JUMPI PUSH32 0xFFFFFFFFFFFFFFFFFFFFFFFFFFFFFFFFF0000000000000000000000000000000 SWAP1 SWAP4 ADD SWAP3 PUSH16 0x70F5A893B608861E1F58934F97AEA57D PUSH16 0x80000000000000000000000000000000 DUP7 MUL SDIV SWAP5 POP JUMPDEST PUSH32 0xFFFFFFFFFFFFFFFFFFFFFFFFFFFFFFFF80000000000000000000000000000000 DUP6 ADD SWAP3 POP DUP3 SWAP2 POP PUSH16 0x80000000000000000000000000000000 DUP3 DUP1 MUL SDIV SWAP1 POP PUSH17 0x100000000000000000000000000000000 DUP4 DUP2 SUB DUP4 MUL SDIV DUP5 ADD SWAP4 POP PUSH16 0x80000000000000000000000000000000 DUP2 DUP4 MUL DUP2 PUSH2 0x4D1C JUMPI INVALID JUMPDEST SDIV SWAP2 POP PUSH17 0x200000000000000000000000000000000 DUP4 PUSH16 0xAAAAAAAAAAAAAAAAAAAAAAAAAAAAAAAA SUB DUP4 MUL DUP2 PUSH2 0x4D4D JUMPI INVALID JUMPDEST SDIV DUP5 ADD SWAP4 POP PUSH16 0x80000000000000000000000000000000 DUP2 DUP4 MUL DUP2 PUSH2 0x4D6D JUMPI INVALID JUMPDEST SDIV SWAP2 POP PUSH17 0x300000000000000000000000000000000 DUP4 PUSH16 0x99999999999999999999999999999999 SUB DUP4 MUL DUP2 PUSH2 0x4D9E JUMPI INVALID JUMPDEST SDIV DUP5 ADD SWAP4 POP PUSH16 0x80000000000000000000000000000000 DUP2 DUP4 MUL DUP2 PUSH2 0x4DBE JUMPI INVALID JUMPDEST SDIV SWAP2 POP PUSH17 0x400000000000000000000000000000000 DUP4 PUSH16 0x92492492492492492492492492492492 SUB DUP4 MUL DUP2 PUSH2 0x4DEF JUMPI INVALID JUMPDEST SDIV DUP5 ADD SWAP4 POP PUSH16 0x80000000000000000000000000000000 DUP2 DUP4 MUL DUP2 PUSH2 0x4E0F JUMPI INVALID JUMPDEST SDIV SWAP2 POP PUSH17 0x500000000000000000000000000000000 DUP4 PUSH16 0x8E38E38E38E38E38E38E38E38E38E38E SUB DUP4 MUL DUP2 PUSH2 0x4E40 JUMPI INVALID JUMPDEST SDIV DUP5 ADD SWAP4 POP PUSH16 0x80000000000000000000000000000000 DUP2 DUP4 MUL DUP2 PUSH2 0x4E60 JUMPI INVALID JUMPDEST SDIV SWAP2 POP PUSH17 0x600000000000000000000000000000000 DUP4 PUSH16 0x8BA2E8BA2E8BA2E8BA2E8BA2E8BA2E8B SUB DUP4 MUL DUP2 PUSH2 0x4E91 JUMPI INVALID JUMPDEST SDIV DUP5 ADD SWAP4 POP PUSH16 0x80000000000000000000000000000000 DUP2 DUP4 MUL DUP2 PUSH2 0x4EB1 JUMPI INVALID JUMPDEST SDIV SWAP2 POP PUSH17 0x700000000000000000000000000000000 DUP4 PUSH16 0x89D89D89D89D89D89D89D89D89D89D89 SUB DUP4 MUL DUP2 PUSH2 0x4EE2 JUMPI INVALID JUMPDEST SDIV DUP5 ADD SWAP4 POP PUSH16 0x80000000000000000000000000000000 DUP2 DUP4 MUL DUP2 PUSH2 0x4F02 JUMPI INVALID JUMPDEST SDIV SWAP2 POP PUSH17 0x800000000000000000000000000000000 DUP4 PUSH16 0x88888888888888888888888888888888 SUB DUP4 MUL DUP2 PUSH2 0x4F33 JUMPI INVALID JUMPDEST SDIV DUP5 ADD SWAP4 POP POP POP POP SWAP2 SWAP1 POP JUMP JUMPDEST PUSH1 0x0 PUSH2 0x34FB PUSH2 0x4879 DUP6 DUP6 PUSH2 0x5744 JUMP JUMPDEST PUSH1 0x0 PUSH32 0xFFFFFFFFFFFFFFFFFFFFFFFFFFFFFFE010000000000000000000000000000000 DUP3 SLT ISZERO PUSH2 0x4F81 JUMPI POP PUSH1 0x0 PUSH2 0xD3A JUMP JUMPDEST DUP2 PUSH2 0x4F9D JUMPI POP PUSH16 0x80000000000000000000000000000000 PUSH2 0xD3A JUMP JUMPDEST PUSH1 0x0 DUP3 SGT ISZERO PUSH2 0x4FB4 JUMPI PUSH2 0x4FB4 PUSH2 0x9B9 PUSH1 0x1 DUP5 PUSH2 0x5818 JUMP JUMPDEST PUSH16 0x80000000000000000000000000000000 PUSH16 0x10000000000000000000000000000000 DUP4 SMOD DUP1 DUP1 MUL DUP3 SWAP1 SDIV PUSH8 0x10E1B3BE415A0000 DUP2 MUL SWAP4 SWAP1 SWAP4 ADD SWAP3 SWAP1 SWAP2 DUP2 DUP4 MUL SDIV SWAP1 POP DUP1 PUSH8 0x5A0913F6B1E0000 MUL DUP4 ADD SWAP3 POP PUSH16 0x80000000000000000000000000000000 DUP3 DUP3 MUL DUP2 PUSH2 0x5020 JUMPI INVALID JUMPDEST SDIV SWAP1 POP DUP1 PUSH8 0x168244FDAC78000 MUL DUP4 ADD SWAP3 POP PUSH16 0x80000000000000000000000000000000 DUP3 DUP3 MUL DUP2 PUSH2 0x504D JUMPI INVALID JUMPDEST SDIV SWAP1 POP DUP1 PUSH7 0x4807432BC18000 MUL DUP4 ADD SWAP3 POP PUSH16 0x80000000000000000000000000000000 DUP3 DUP3 MUL DUP2 PUSH2 0x5079 JUMPI INVALID JUMPDEST SDIV SWAP1 POP DUP1 PUSH7 0xC0135DCA04000 MUL DUP4 ADD SWAP3 POP PUSH16 0x80000000000000000000000000000000 DUP3 DUP3 MUL DUP2 PUSH2 0x50A5 JUMPI INVALID JUMPDEST SDIV SWAP1 POP DUP1 PUSH7 0x1B707B1CDC000 MUL DUP4 ADD SWAP3 POP PUSH16 0x80000000000000000000000000000000 DUP3 DUP3 MUL DUP2 PUSH2 0x50D1 JUMPI INVALID JUMPDEST SDIV SWAP1 POP DUP1 PUSH6 0x36E0F639B800 MUL DUP4 ADD SWAP3 POP PUSH16 0x80000000000000000000000000000000 DUP3 DUP3 MUL DUP2 PUSH2 0x50FC JUMPI INVALID JUMPDEST SDIV SWAP1 POP DUP1 PUSH6 0x618FEE9F800 MUL DUP4 ADD SWAP3 POP PUSH16 0x80000000000000000000000000000000 DUP3 DUP3 MUL DUP2 PUSH2 0x5127 JUMPI INVALID JUMPDEST SDIV SWAP1 POP DUP1 PUSH5 0x9C197DCC00 MUL DUP4 ADD SWAP3 POP PUSH16 0x80000000000000000000000000000000 DUP3 DUP3 MUL DUP2 PUSH2 0x5151 JUMPI INVALID JUMPDEST SDIV SWAP1 POP DUP1 PUSH5 0xE30DCE400 MUL DUP4 ADD SWAP3 POP PUSH16 0x80000000000000000000000000000000 DUP3 DUP3 MUL DUP2 PUSH2 0x517B JUMPI INVALID JUMPDEST SDIV SWAP1 POP DUP1 PUSH5 0x12EBD1300 MUL DUP4 ADD SWAP3 POP PUSH16 0x80000000000000000000000000000000 DUP3 DUP3 MUL DUP2 PUSH2 0x51A5 JUMPI INVALID JUMPDEST SDIV SWAP1 POP DUP1 PUSH4 0x17499F00 MUL DUP4 ADD SWAP3 POP PUSH16 0x80000000000000000000000000000000 DUP3 DUP3 MUL DUP2 PUSH2 0x51CE JUMPI INVALID JUMPDEST SDIV SWAP1 POP DUP1 PUSH4 0x1A9D480 MUL DUP4 ADD SWAP3 POP PUSH16 0x80000000000000000000000000000000 DUP3 DUP3 MUL DUP2 PUSH2 0x51F7 JUMPI INVALID JUMPDEST SDIV SWAP1 POP DUP1 PUSH3 0x1C6380 MUL DUP4 ADD SWAP3 POP PUSH16 0x80000000000000000000000000000000 DUP3 DUP3 MUL DUP2 PUSH2 0x521F JUMPI INVALID JUMPDEST SDIV SWAP1 POP DUP1 PUSH3 0x1C638 MUL DUP4 ADD SWAP3 POP PUSH16 0x80000000000000000000000000000000 DUP3 DUP3 MUL DUP2 PUSH2 0x5247 JUMPI INVALID JUMPDEST SDIV SWAP1 POP DUP1 PUSH2 0x1AB8 MUL DUP4 ADD SWAP3 POP PUSH16 0x80000000000000000000000000000000 DUP3 DUP3 MUL DUP2 PUSH2 0x526E JUMPI INVALID JUMPDEST SDIV SWAP1 POP DUP1 PUSH2 0x17C MUL DUP4 ADD SWAP3 POP PUSH16 0x80000000000000000000000000000000 DUP3 DUP3 MUL DUP2 PUSH2 0x5295 JUMPI INVALID JUMPDEST SDIV SWAP1 POP DUP1 PUSH1 0x14 MUL DUP4 ADD SWAP3 POP PUSH16 0x80000000000000000000000000000000 DUP3 DUP3 MUL DUP2 PUSH2 0x52BB JUMPI INVALID JUMPDEST PUSH1 0x0 SWAP6 SWAP1 SWAP6 SUB SWAP5 PUSH8 0x21C3677C82B40000 SWAP2 SWAP1 SDIV SWAP4 DUP5 ADD SDIV DUP3 ADD PUSH16 0x80000000000000000000000000000000 ADD SWAP3 SWAP1 POP PUSH17 0x1000000000000000000000000000000000 DUP5 AND ISZERO PUSH2 0x532A JUMPI PUSH19 0x43CBAF42A000812488FC5C220AD7B97BF6E99E PUSH13 0xF1AADDD7742E56D32FB9F99744 DUP5 MUL SDIV SWAP3 POP JUMPDEST PUSH17 0x800000000000000000000000000000000 DUP5 AND ISZERO PUSH2 0x536C JUMPI PUSH18 0x5D27A9F51C31B7C2F8038212A0574779991 PUSH15 0xAFE10820813D65DFE6A33C07F738F DUP5 MUL SDIV SWAP3 POP JUMPDEST PUSH17 0x400000000000000000000000000000000 DUP5 AND ISZERO PUSH2 0x53AE JUMPI PUSH17 0x1B4C902E273A58678D6D3BFDB93DB96D02 PUSH16 0x2582AB704279E8EFD15E0265855C47A DUP5 MUL SDIV SWAP3 POP JUMPDEST PUSH17 0x200000000000000000000000000000000 DUP5 AND ISZERO PUSH2 0x53F0 JUMPI PUSH17 0x3B1CC971A9BB5B9867477440D6D157750 PUSH16 0x1152AAA3BF81CB9FDB76EAE12D029571 DUP5 MUL SDIV SWAP3 POP JUMPDEST PUSH17 0x100000000000000000000000000000000 DUP5 AND ISZERO PUSH2 0x5432 JUMPI PUSH17 0x15BF0A8B1457695355FB8AC404E7A79E3 PUSH16 0x2F16AC6C59DE6F8D5D6F63C1482A7C86 DUP5 MUL SDIV SWAP3 POP JUMPDEST PUSH16 0x80000000000000000000000000000000 DUP5 AND ISZERO PUSH2 0x5472 JUMPI PUSH16 0xD3094C70F034DE4B96FF7D5B6F99FCD8 PUSH16 0x4DA2CBF1BE5827F9EB3AD1AA9866EBB3 DUP5 MUL SDIV SWAP3 POP JUMPDEST PUSH16 0x40000000000000000000000000000000 DUP5 AND ISZERO PUSH2 0x54B2 JUMPI PUSH16 0xA45AF1E1F40C333B3DE1DB4DD55F29A7 PUSH16 0x63AFBE7AB2082BA1A0AE5E4EB1B479DC DUP5 MUL SDIV SWAP3 POP JUMPDEST PUSH16 0x20000000000000000000000000000000 DUP5 AND ISZERO PUSH2 0x54F2 JUMPI PUSH16 0x910B022DB7AE67CE76B441C27035C6A1 PUSH16 0x70F5A893B608861E1F58934F97AEA57D DUP5 MUL SDIV SWAP3 POP JUMPDEST PUSH16 0x10000000000000000000000000000000 DUP5 AND ISZERO PUSH2 0x5532 JUMPI PUSH16 0x88415ABBE9A76BEAD8D00CF112E4D4A8 PUSH16 0x783EAFEF1C0A8F3978C7F81824D62EBF DUP5 MUL SDIV SWAP3 POP JUMPDEST POP POP SWAP2 SWAP1 POP JUMP JUMPDEST PUSH1 0x0 PUSH16 0x80000000000000000000000000000000 PUSH2 0x5556 DUP5 DUP5 PUSH2 0x5744 JUMP JUMPDEST DUP2 PUSH2 0x555D JUMPI INVALID JUMPDEST SDIV SWAP4 SWAP3 POP POP POP JUMP JUMPDEST PUSH1 0x0 DUP1 DUP3 SLT ISZERO PUSH2 0x557D JUMPI PUSH2 0x557D PUSH2 0x9B9 PUSH1 0x1 DUP5 PUSH2 0x5697 JUMP JUMPDEST PUSH1 0x0 PUSH2 0x5589 DUP5 DUP5 PUSH2 0x5744 JUMP JUMPDEST SWAP1 POP PUSH1 0x0 DUP2 SGT PUSH2 0x559D JUMPI PUSH1 0x0 SWAP2 POP POP PUSH2 0x1183 JUMP JUMPDEST PUSH1 0x7F SHR SWAP4 SWAP3 POP POP POP JUMP JUMPDEST PUSH1 0x20 ADD MLOAD ISZERO ISZERO SWAP1 JUMP JUMPDEST PUSH1 0x0 DUP1 DUP6 PUSH2 0x55C2 JUMPI POP DUP3 SWAP1 POP DUP2 PUSH2 0x55F7 JUMP JUMPDEST DUP4 PUSH2 0x55D1 JUMPI POP DUP5 SWAP1 POP DUP4 PUSH2 0x55F7 JUMP JUMPDEST PUSH2 0x55E8 PUSH2 0x55DE DUP6 DUP8 PUSH2 0x45A7 JUMP JUMPDEST PUSH2 0x404F DUP9 DUP7 PUSH2 0x45A7 JUMP JUMPDEST SWAP2 POP PUSH2 0x55F4 DUP6 DUP5 PUSH2 0x45A7 JUMP JUMPDEST SWAP1 POP JUMPDEST SWAP5 POP SWAP5 SWAP3 POP POP POP JUMP JUMPDEST PUSH1 0x0 DUP1 PUSH2 0x561E DUP5 DUP5 PUSH16 0x80000000000000000000000000000000 PUSH2 0x5847 JUMP JUMPDEST SWAP2 POP SWAP2 POP SWAP3 POP SWAP3 SWAP1 POP JUMP JUMPDEST PUSH1 0xC SLOAD PUSH1 0x0 SWAP1 PUSH2 0x563A SWAP1 PUSH1 0x1 PUSH2 0x243B JUMP JUMPDEST SWAP1 POP PUSH2 0x5644 PUSH2 0x5A1A JUMP JUMPDEST POP PUSH1 0x0 DUP3 DUP2 MSTORE PUSH1 0x15 PUSH1 0x20 SWAP1 DUP2 MSTORE PUSH1 0x40 DUP1 DUP4 KECCAK256 DUP5 DUP5 MSTORE DUP3 MSTORE SWAP2 DUP3 SWAP1 KECCAK256 DUP3 MLOAD PUSH1 0x60 DUP2 ADD DUP5 MSTORE DUP2 SLOAD DUP1 DUP3 MSTORE PUSH1 0x1 DUP4 ADD SLOAD SWAP4 DUP3 ADD SWAP4 SWAP1 SWAP4 MSTORE PUSH1 0x2 SWAP1 SWAP2 ADD SLOAD SWAP3 DUP2 ADD SWAP3 SWAP1 SWAP3 MSTORE ISZERO PUSH2 0x1496 JUMPI PUSH2 0x1496 PUSH2 0x9B9 DUP5 DUP5 PUSH2 0x58A3 JUMP JUMPDEST PUSH1 0x60 PUSH32 0xBD79545F00000000000000000000000000000000000000000000000000000000 DUP4 PUSH1 0x1 DUP2 GT ISZERO PUSH2 0x56C6 JUMPI INVALID JUMPDEST PUSH1 0x40 DUP1 MLOAD PUSH1 0xFF SWAP1 SWAP3 AND PUSH1 0x24 DUP4 ADD MSTORE PUSH1 0x44 DUP1 DUP4 ADD DUP7 SWAP1 MSTORE DUP2 MLOAD DUP1 DUP5 SUB SWAP1 SWAP2 ADD DUP2 MSTORE PUSH1 0x64 SWAP1 SWAP3 ADD SWAP1 MSTORE PUSH1 0x20 DUP2 ADD DUP1 MLOAD PUSH28 0xFFFFFFFFFFFFFFFFFFFFFFFFFFFFFFFFFFFFFFFFFFFFFFFFFFFFFFFF AND PUSH32 0xFFFFFFFF00000000000000000000000000000000000000000000000000000000 SWAP1 SWAP4 AND SWAP3 SWAP1 SWAP3 OR SWAP1 SWAP2 MSTORE SWAP1 POP SWAP3 SWAP2 POP POP JUMP JUMPDEST PUSH1 0x0 DUP3 ISZERO DUP1 PUSH2 0x5751 JUMPI POP DUP2 ISZERO JUMPDEST ISZERO PUSH2 0x575E JUMPI POP PUSH1 0x0 PUSH2 0x1183 JUMP JUMPDEST POP DUP2 DUP2 MUL DUP2 DUP4 DUP3 DUP2 PUSH2 0x576C JUMPI INVALID JUMPDEST SDIV EQ ISZERO DUP1 PUSH2 0x5783 JUMPI POP DUP3 DUP3 DUP3 DUP2 PUSH2 0x577F JUMPI INVALID JUMPDEST SDIV EQ ISZERO JUMPDEST ISZERO PUSH2 0x1183 JUMPI PUSH2 0x1183 PUSH2 0x9B9 PUSH1 0x1 DUP6 DUP6 PUSH2 0x5916 JUMP JUMPDEST PUSH1 0x0 DUP2 PUSH2 0x57AD JUMPI PUSH2 0x57AD PUSH2 0x9B9 PUSH1 0x2 DUP6 DUP6 PUSH2 0x5916 JUMP JUMPDEST PUSH32 0x8000000000000000000000000000000000000000000000000000000000000000 DUP4 EQ DUP1 ISZERO PUSH2 0x57FB JUMPI POP DUP2 PUSH32 0xFFFFFFFFFFFFFFFFFFFFFFFFFFFFFFFFFFFFFFFFFFFFFFFFFFFFFFFFFFFFFFFF EQ JUMPDEST ISZERO PUSH2 0x580F JUMPI PUSH2 0x580F PUSH2 0x9B9 PUSH1 0x3 DUP6 DUP6 PUSH2 0x5916 JUMP JUMPDEST DUP2 DUP4 DUP2 PUSH2 0x555D JUMPI INVALID JUMPDEST PUSH1 0x60 PUSH32 0xED2F26A100000000000000000000000000000000000000000000000000000000 DUP4 PUSH1 0x1 DUP2 GT ISZERO PUSH2 0x56C6 JUMPI INVALID JUMPDEST PUSH1 0x0 DUP1 DUP3 DUP6 GT DUP1 PUSH2 0x5857 JUMPI POP DUP3 DUP5 GT JUMPDEST ISZERO PUSH2 0x589A JUMPI PUSH1 0x0 DUP5 DUP7 LT ISZERO PUSH2 0x586C JUMPI DUP5 PUSH2 0x586E JUMP JUMPDEST DUP6 JUMPDEST SWAP1 POP PUSH2 0x587A DUP2 DUP6 PUSH2 0x45D8 JUMP JUMPDEST SWAP1 POP PUSH2 0x5886 DUP7 DUP3 PUSH2 0x45D8 JUMP JUMPDEST SWAP3 POP PUSH2 0x5892 DUP6 DUP3 PUSH2 0x45D8 JUMP JUMPDEST SWAP2 POP POP PUSH2 0x3320 JUMP JUMPDEST POP SWAP3 SWAP4 SWAP2 SWAP3 POP POP JUMP JUMPDEST PUSH1 0x40 DUP1 MLOAD PUSH1 0x24 DUP2 ADD DUP5 SWAP1 MSTORE PUSH1 0x44 DUP1 DUP3 ADD DUP5 SWAP1 MSTORE DUP3 MLOAD DUP1 DUP4 SUB SWAP1 SWAP2 ADD DUP2 MSTORE PUSH1 0x64 SWAP1 SWAP2 ADD SWAP1 SWAP2 MSTORE PUSH1 0x20 DUP2 ADD DUP1 MLOAD PUSH28 0xFFFFFFFFFFFFFFFFFFFFFFFFFFFFFFFFFFFFFFFFFFFFFFFFFFFFFFFF AND PUSH32 0x5CAA0B0500000000000000000000000000000000000000000000000000000000 OR SWAP1 MSTORE SWAP3 SWAP2 POP POP JUMP JUMPDEST PUSH1 0x60 PUSH32 0x8C12DFE700000000000000000000000000000000000000000000000000000000 DUP5 PUSH1 0x3 DUP2 GT ISZERO PUSH2 0x5945 JUMPI INVALID JUMPDEST PUSH1 0x40 DUP1 MLOAD PUSH1 0xFF SWAP1 SWAP3 AND PUSH1 0x24 DUP4 ADD MSTORE PUSH1 0x44 DUP3 ADD DUP7 SWAP1 MSTORE PUSH1 0x64 DUP1 DUP4 ADD DUP7 SWAP1 MSTORE DUP2 MLOAD DUP1 DUP5 SUB SWAP1 SWAP2 ADD DUP2 MSTORE PUSH1 0x84 SWAP1 SWAP3 ADD SWAP1 MSTORE PUSH1 0x20 DUP2 ADD DUP1 MLOAD PUSH28 0xFFFFFFFFFFFFFFFFFFFFFFFFFFFFFFFFFFFFFFFFFFFFFFFFFFFFFFFF AND PUSH32 0xFFFFFFFF00000000000000000000000000000000000000000000000000000000 SWAP1 SWAP4 AND SWAP3 SWAP1 SWAP3 OR SWAP1 SWAP2 MSTORE SWAP1 POP SWAP4 SWAP3 POP POP POP JUMP JUMPDEST PUSH1 0x40 MLOAD DUP1 PUSH1 0xA0 ADD PUSH1 0x40 MSTORE DUP1 PUSH1 0x0 DUP2 MSTORE PUSH1 0x20 ADD PUSH1 0x0 DUP2 MSTORE PUSH1 0x20 ADD PUSH1 0x0 DUP2 MSTORE PUSH1 0x20 ADD PUSH1 0x0 DUP2 MSTORE PUSH1 0x20 ADD PUSH1 0x0 DUP2 MSTORE POP SWAP1 JUMP JUMPDEST PUSH1 0x40 DUP1 MLOAD PUSH1 0x60 DUP2 ADD DUP3 MSTORE PUSH1 0x0 DUP1 DUP3 MSTORE PUSH1 0x20 DUP3 ADD DUP2 SWAP1 MSTORE SWAP2 DUP2 ADD SWAP2 SWAP1 SWAP2 MSTORE SWAP1 JUMP JUMPDEST PUSH1 0x40 MLOAD DUP1 PUSH1 0x60 ADD PUSH1 0x40 MSTORE DUP1 PUSH1 0x0 DUP2 MSTORE PUSH1 0x20 ADD PUSH1 0x0 DUP2 MSTORE PUSH1 0x20 ADD PUSH1 0x0 DUP2 MSTORE POP SWAP1 JUMP JUMPDEST PUSH1 0x40 MLOAD DUP1 PUSH1 0x40 ADD PUSH1 0x40 MSTORE DUP1 PUSH1 0x0 DUP2 MSTORE PUSH1 0x20 ADD PUSH1 0x0 DUP2 MSTORE POP SWAP1 JUMP JUMPDEST DUP1 CALLDATALOAD PUSH1 0x2 DUP2 LT PUSH2 0xD3A JUMPI PUSH1 0x0 DUP1 REVERT JUMPDEST PUSH1 0x0 DUP3 PUSH1 0x1F DUP4 ADD SLT PUSH2 0x5A74 JUMPI DUP1 DUP2 REVERT JUMPDEST DUP2 MLOAD PUSH8 0xFFFFFFFFFFFFFFFF DUP1 DUP3 GT ISZERO PUSH2 0x5A89 JUMPI INVALID JUMPDEST PUSH1 0x40 MLOAD PUSH1 0x20 DUP1 PUSH32 0xFFFFFFFFFFFFFFFFFFFFFFFFFFFFFFFFFFFFFFFFFFFFFFFFFFFFFFFFFFFFFFE0 PUSH1 0x1F DUP7 ADD AND DUP4 ADD ADD DUP3 DUP2 LT DUP5 DUP3 GT OR ISZERO PUSH2 0x5AC6 JUMPI INVALID JUMPDEST DUP1 PUSH1 0x40 MSTORE POP DUP2 SWAP5 POP DUP4 DUP3 MSTORE DUP7 DUP2 DUP6 DUP9 ADD ADD GT ISZERO PUSH2 0x5AE2 JUMPI PUSH1 0x0 DUP1 REVERT JUMPDEST PUSH1 0x0 SWAP3 POP JUMPDEST DUP4 DUP4 LT ISZERO PUSH2 0x5B04 JUMPI DUP6 DUP4 ADD DUP2 ADD MLOAD DUP3 DUP5 ADD DUP3 ADD MSTORE SWAP2 DUP3 ADD SWAP2 PUSH2 0x5AE7 JUMP JUMPDEST DUP4 DUP4 GT ISZERO PUSH2 0x5B15 JUMPI PUSH1 0x0 DUP2 DUP6 DUP5 ADD ADD MSTORE JUMPDEST POP POP POP POP SWAP3 SWAP2 POP POP JUMP JUMPDEST PUSH1 0x0 PUSH1 0x40 DUP3 DUP5 SUB SLT ISZERO PUSH2 0x2787 JUMPI DUP1 DUP2 REVERT JUMPDEST DUP1 CALLDATALOAD PUSH4 0xFFFFFFFF DUP2 AND DUP2 EQ PUSH2 0xD3A JUMPI PUSH1 0x0 DUP1 REVERT JUMPDEST PUSH1 0x0 PUSH1 0x20 DUP3 DUP5 SUB SLT ISZERO PUSH2 0x5B55 JUMPI DUP1 DUP2 REVERT JUMPDEST DUP2 CALLDATALOAD PUSH2 0x1180 DUP2 PUSH2 0x61C0 JUMP JUMPDEST PUSH1 0x0 PUSH1 0x20 DUP3 DUP5 SUB SLT ISZERO PUSH2 0x5B71 JUMPI DUP1 DUP2 REVERT JUMPDEST DUP2 MLOAD PUSH2 0x1180 DUP2 PUSH2 0x61C0 JUMP JUMPDEST PUSH1 0x0 DUP1 PUSH1 0x40 DUP4 DUP6 SUB SLT ISZERO PUSH2 0x5B8E JUMPI DUP1 DUP2 REVERT JUMPDEST DUP3 CALLDATALOAD PUSH2 0x5B99 DUP2 PUSH2 0x61C0 JUMP JUMPDEST SWAP5 PUSH1 0x20 SWAP4 SWAP1 SWAP4 ADD CALLDATALOAD SWAP4 POP POP POP JUMP JUMPDEST PUSH1 0x0 DUP1 PUSH1 0x40 DUP4 DUP6 SUB SLT ISZERO PUSH2 0x5BB9 JUMPI DUP2 DUP3 REVERT JUMPDEST DUP3 CALLDATALOAD PUSH2 0x5BC4 DUP2 PUSH2 0x61C0 JUMP JUMPDEST SWAP2 POP PUSH2 0x5BD2 PUSH1 0x20 DUP5 ADD PUSH2 0x5A55 JUMP JUMPDEST SWAP1 POP SWAP3 POP SWAP3 SWAP1 POP JUMP JUMPDEST PUSH1 0x0 DUP1 PUSH1 0x0 DUP1 PUSH1 0x0 DUP1 PUSH1 0xC0 DUP8 DUP10 SUB SLT ISZERO PUSH2 0x5BF3 JUMPI DUP2 DUP3 REVERT JUMPDEST DUP7 MLOAD PUSH2 0x5BFE DUP2 PUSH2 0x61C0 JUMP JUMPDEST PUSH1 0x20 DUP9 ADD MLOAD SWAP1 SWAP7 POP PUSH8 0xFFFFFFFFFFFFFFFF DUP1 DUP3 GT ISZERO PUSH2 0x5C1B JUMPI DUP4 DUP5 REVERT JUMPDEST PUSH2 0x5C27 DUP11 DUP4 DUP12 ADD PUSH2 0x5A64 JUMP JUMPDEST SWAP7 POP PUSH1 0x40 DUP10 ADD MLOAD SWAP2 POP DUP1 DUP3 GT ISZERO PUSH2 0x5C3C JUMPI DUP4 DUP5 REVERT JUMPDEST POP PUSH2 0x5C49 DUP10 DUP3 DUP11 ADD PUSH2 0x5A64 JUMP JUMPDEST SWAP5 POP POP PUSH1 0x60 DUP8 ADD MLOAD SWAP3 POP PUSH1 0x80 DUP8 ADD MLOAD PUSH2 0x5C61 DUP2 PUSH2 0x61C0 JUMP JUMPDEST PUSH1 0xA0 DUP9 ADD MLOAD SWAP1 SWAP3 POP PUSH2 0x5C72 DUP2 PUSH2 0x61C0 JUMP JUMPDEST DUP1 SWAP2 POP POP SWAP3 SWAP6 POP SWAP3 SWAP6 POP SWAP3 SWAP6 JUMP JUMPDEST PUSH1 0x0 DUP1 PUSH1 0x40 DUP4 DUP6 SUB SLT ISZERO PUSH2 0x5B8E JUMPI DUP2 DUP3 REVERT JUMPDEST PUSH1 0x0 PUSH1 0x20 DUP3 DUP5 SUB SLT ISZERO PUSH2 0x5CA3 JUMPI DUP1 DUP2 REVERT JUMPDEST DUP2 MLOAD DUP1 ISZERO ISZERO DUP2 EQ PUSH2 0x1180 JUMPI DUP2 DUP3 REVERT JUMPDEST PUSH1 0x0 PUSH1 0x20 DUP3 DUP5 SUB SLT ISZERO PUSH2 0x5CC3 JUMPI DUP1 DUP2 REVERT JUMPDEST POP CALLDATALOAD SWAP2 SWAP1 POP JUMP JUMPDEST PUSH1 0x0 DUP1 PUSH1 0x40 DUP4 DUP6 SUB SLT ISZERO PUSH2 0x5CDC JUMPI DUP2 DUP3 REVERT JUMPDEST DUP3 CALLDATALOAD SWAP2 POP PUSH1 0x20 DUP4 ADD CALLDATALOAD PUSH2 0x5CEE DUP2 PUSH2 0x61C0 JUMP JUMPDEST DUP1 SWAP2 POP POP SWAP3 POP SWAP3 SWAP1 POP JUMP JUMPDEST PUSH1 0x0 DUP1 PUSH1 0x40 DUP4 DUP6 SUB SLT ISZERO PUSH2 0x5D0B JUMPI DUP2 DUP3 REVERT JUMPDEST POP POP DUP1 CALLDATALOAD SWAP3 PUSH1 0x20 SWAP1 SWAP2 ADD CALLDATALOAD SWAP2 POP JUMP JUMPDEST PUSH1 0x0 DUP1 PUSH1 0x40 DUP4 DUP6 SUB SLT ISZERO PUSH2 0x5D2C JUMPI DUP2 DUP3 REVERT JUMPDEST DUP3 CALLDATALOAD SWAP2 POP PUSH2 0x5BD2 PUSH1 0x20 DUP5 ADD PUSH2 0x5B30 JUMP JUMPDEST PUSH1 0x0 PUSH1 0x20 DUP3 DUP5 SUB SLT ISZERO PUSH2 0x5D4D JUMPI DUP1 DUP2 REVERT JUMPDEST PUSH2 0x1180 DUP3 PUSH2 0x5A55 JUMP JUMPDEST PUSH1 0x0 DUP1 PUSH1 0x0 PUSH1 0xA0 DUP5 DUP7 SUB SLT ISZERO PUSH2 0x5D6A JUMPI DUP3 DUP4 REVERT JUMPDEST PUSH2 0x5D74 DUP6 DUP6 PUSH2 0x5B1F JUMP JUMPDEST SWAP3 POP PUSH2 0x5D83 DUP6 PUSH1 0x40 DUP7 ADD PUSH2 0x5B1F JUMP JUMPDEST SWAP2 POP PUSH1 0x80 DUP5 ADD CALLDATALOAD SWAP1 POP SWAP3 POP SWAP3 POP SWAP3 JUMP JUMPDEST PUSH1 0x0 PUSH1 0x20 DUP3 DUP5 SUB SLT ISZERO PUSH2 0x5DA4 JUMPI DUP1 DUP2 REVERT JUMPDEST POP MLOAD SWAP2 SWAP1 POP JUMP JUMPDEST PUSH1 0x0 DUP1 PUSH1 0x0 DUP1 PUSH1 0x0 DUP1 PUSH1 0xC0 DUP8 DUP10 SUB SLT ISZERO PUSH2 0x5DC3 JUMPI DUP4 DUP5 REVERT JUMPDEST DUP7 MLOAD SWAP6 POP PUSH1 0x20 DUP8 ADD MLOAD PUSH8 0xFFFFFFFFFFFFFFFF DUP1 DUP3 GT ISZERO PUSH2 0x5DE1 JUMPI DUP6 DUP7 REVERT JUMPDEST PUSH2 0x5DED DUP11 DUP4 DUP12 ADD PUSH2 0x5A64 JUMP JUMPDEST SWAP7 POP PUSH1 0x40 DUP10 ADD MLOAD SWAP2 POP DUP1 DUP3 GT ISZERO PUSH2 0x5C3C JUMPI DUP6 DUP7 REVERT JUMPDEST PUSH1 0x0 DUP1 PUSH1 0x0 DUP1 PUSH1 0x0 PUSH1 0xA0 DUP7 DUP9 SUB SLT ISZERO PUSH2 0x5E19 JUMPI DUP3 DUP4 REVERT JUMPDEST DUP6 CALLDATALOAD SWAP5 POP PUSH2 0x5E29 PUSH1 0x20 DUP8 ADD PUSH2 0x5B30 JUMP JUMPDEST SWAP4 POP PUSH1 0x40 DUP7 ADD CALLDATALOAD SWAP3 POP PUSH2 0x5E3E PUSH1 0x60 DUP8 ADD PUSH2 0x5B30 JUMP JUMPDEST SWAP2 POP PUSH2 0x5E4C PUSH1 0x80 DUP8 ADD PUSH2 0x5B30 JUMP JUMPDEST SWAP1 POP SWAP3 SWAP6 POP SWAP3 SWAP6 SWAP1 SWAP4 POP JUMP JUMPDEST PUSH20 0xFFFFFFFFFFFFFFFFFFFFFFFFFFFFFFFFFFFFFFFF SWAP2 SWAP1 SWAP2 AND DUP2 MSTORE PUSH1 0x20 ADD SWAP1 JUMP JUMPDEST PUSH20 0xFFFFFFFFFFFFFFFFFFFFFFFFFFFFFFFFFFFFFFFF SWAP3 SWAP1 SWAP3 AND DUP3 MSTORE PUSH1 0x20 DUP3 ADD MSTORE PUSH1 0x40 ADD SWAP1 JUMP JUMPDEST PUSH1 0x20 DUP1 DUP3 MSTORE DUP3 MLOAD DUP3 DUP3 ADD DUP2 SWAP1 MSTORE PUSH1 0x0 SWAP2 SWAP1 DUP5 DUP3 ADD SWAP1 PUSH1 0x40 DUP6 ADD SWAP1 DUP5 JUMPDEST DUP2 DUP2 LT ISZERO PUSH2 0x5EED JUMPI DUP4 MLOAD PUSH20 0xFFFFFFFFFFFFFFFFFFFFFFFFFFFFFFFFFFFFFFFF AND DUP4 MSTORE SWAP3 DUP5 ADD SWAP3 SWAP2 DUP5 ADD SWAP2 PUSH1 0x1 ADD PUSH2 0x5EBB JUMP JUMPDEST POP SWAP1 SWAP7 SWAP6 POP POP POP POP POP POP JUMP JUMPDEST SWAP1 ISZERO ISZERO DUP2 MSTORE PUSH1 0x20 ADD SWAP1 JUMP JUMPDEST SWAP1 DUP2 MSTORE PUSH1 0x20 ADD SWAP1 JUMP JUMPDEST SWAP3 DUP4 MSTORE PUSH20 0xFFFFFFFFFFFFFFFFFFFFFFFFFFFFFFFFFFFFFFFF SWAP2 SWAP1 SWAP2 AND PUSH1 0x20 DUP4 ADD MSTORE PUSH4 0xFFFFFFFF AND PUSH1 0x40 DUP3 ADD MSTORE PUSH1 0x60 ADD SWAP1 JUMP JUMPDEST SWAP2 DUP3 MSTORE PUSH1 0x20 DUP3 ADD MSTORE PUSH1 0x40 ADD SWAP1 JUMP JUMPDEST PUSH1 0x20 DUP1 DUP3 MSTORE PUSH1 0x1C SWAP1 DUP3 ADD MSTORE PUSH32 0x4E4F4E5F524547495354455245445F504F4F4C5F49445F4552524F5200000000 PUSH1 0x40 DUP3 ADD MSTORE PUSH1 0x60 ADD SWAP1 JUMP JUMPDEST PUSH1 0x20 DUP1 DUP3 MSTORE PUSH1 0x1E SWAP1 DUP3 ADD MSTORE PUSH32 0x46494E414C495A45525F4D494E545F494E464C4154494F4E5F4552524F520000 PUSH1 0x40 DUP3 ADD MSTORE PUSH1 0x60 ADD SWAP1 JUMP JUMPDEST PUSH1 0x20 DUP1 DUP3 MSTORE PUSH1 0x1B SWAP1 DUP3 ADD MSTORE PUSH32 0x504F4F4C5F544F5F4A4F494E5F4E4F545F53454C465F4552524F520000000000 PUSH1 0x40 DUP3 ADD MSTORE PUSH1 0x60 ADD SWAP1 JUMP JUMPDEST PUSH1 0x20 DUP1 DUP3 MSTORE PUSH1 0x1C SWAP1 DUP3 ADD MSTORE PUSH32 0x4E4F4E5F524547495354455245445F52425F504F4F4C5F4552524F5200000000 PUSH1 0x40 DUP3 ADD MSTORE PUSH1 0x60 ADD SWAP1 JUMP JUMPDEST PUSH1 0x20 DUP1 DUP3 MSTORE PUSH1 0x13 SWAP1 DUP3 ADD MSTORE PUSH32 0x43525F494E54455256414C5F494E56414C494400000000000000000000000000 PUSH1 0x40 DUP3 ADD MSTORE PUSH1 0x60 ADD SWAP1 JUMP JUMPDEST DUP2 MLOAD DUP2 MSTORE PUSH1 0x20 DUP1 DUP4 ADD MLOAD SWAP1 DUP3 ADD MSTORE PUSH1 0x40 SWAP2 DUP3 ADD MLOAD SWAP2 DUP2 ADD SWAP2 SWAP1 SWAP2 MSTORE PUSH1 0x60 ADD SWAP1 JUMP JUMPDEST DUP2 MLOAD PUSH20 0xFFFFFFFFFFFFFFFFFFFFFFFFFFFFFFFFFFFFFFFF SWAP1 DUP2 AND DUP3 MSTORE PUSH1 0x20 DUP1 DUP5 ADD MLOAD PUSH4 0xFFFFFFFF AND SWAP1 DUP4 ADD MSTORE PUSH1 0x40 SWAP3 DUP4 ADD MLOAD AND SWAP2 DUP2 ADD SWAP2 SWAP1 SWAP2 MSTORE PUSH1 0x60 ADD SWAP1 JUMP JUMPDEST DUP2 MLOAD PUSH8 0xFFFFFFFFFFFFFFFF AND DUP2 MSTORE PUSH1 0x20 DUP1 DUP4 ADD MLOAD PUSH12 0xFFFFFFFFFFFFFFFFFFFFFFFF SWAP1 DUP2 AND SWAP2 DUP4 ADD SWAP2 SWAP1 SWAP2 MSTORE PUSH1 0x40 SWAP3 DUP4 ADD MLOAD AND SWAP2 DUP2 ADD SWAP2 SWAP1 SWAP2 MSTORE PUSH1 0x60 ADD SWAP1 JUMP JUMPDEST SWAP3 DUP4 MSTORE PUSH1 0x20 DUP4 ADD SWAP2 SWAP1 SWAP2 MSTORE PUSH1 0x40 DUP3 ADD MSTORE PUSH1 0x60 ADD SWAP1 JUMP JUMPDEST SWAP4 DUP5 MSTORE PUSH1 0x20 DUP5 ADD SWAP3 SWAP1 SWAP3 MSTORE PUSH1 0x40 DUP4 ADD MSTORE PUSH1 0x60 DUP3 ADD MSTORE PUSH1 0x80 ADD SWAP1 JUMP JUMPDEST SWAP5 DUP6 MSTORE PUSH1 0x20 DUP6 ADD SWAP4 SWAP1 SWAP4 MSTORE PUSH1 0x40 DUP5 ADD SWAP2 SWAP1 SWAP2 MSTORE PUSH1 0x60 DUP4 ADD MSTORE PUSH1 0x80 DUP3 ADD MSTORE PUSH1 0xA0 ADD SWAP1 JUMP JUMPDEST SWAP5 DUP6 MSTORE PUSH4 0xFFFFFFFF SWAP4 DUP5 AND PUSH1 0x20 DUP7 ADD MSTORE PUSH1 0x40 DUP6 ADD SWAP3 SWAP1 SWAP3 MSTORE DUP3 AND PUSH1 0x60 DUP5 ADD MSTORE AND PUSH1 0x80 DUP3 ADD MSTORE PUSH1 0xA0 ADD SWAP1 JUMP JUMPDEST SWAP3 DUP4 MSTORE PUSH1 0xFF SWAP2 DUP3 AND PUSH1 0x20 DUP5 ADD MSTORE AND PUSH1 0x40 DUP3 ADD MSTORE PUSH1 0x60 ADD SWAP1 JUMP JUMPDEST PUSH4 0xFFFFFFFF SWAP2 SWAP1 SWAP2 AND DUP2 MSTORE PUSH1 0x20 ADD SWAP1 JUMP JUMPDEST PUSH4 0xFFFFFFFF SWAP3 DUP4 AND DUP2 MSTORE SWAP2 AND PUSH1 0x20 DUP3 ADD MSTORE PUSH1 0x40 ADD SWAP1 JUMP JUMPDEST PUSH20 0xFFFFFFFFFFFFFFFFFFFFFFFFFFFFFFFFFFFFFFFF DUP2 AND DUP2 EQ PUSH2 0x1127 JUMPI PUSH1 0x0 DUP1 REVERT INVALID LOG2 PUSH5 0x6970667358 0x22 SLT KECCAK256 PUSH17 0xF6B65FA5CD2531126AA61BF91260B17676 SWAP8 GT SMOD 0xD 0xDC CREATE PUSH18 0xEBFBC1A8253DF664736F6C63430007040033 "
			}
		}
	},
	"sourceTreeHashHex": "0x65d42c1ba56bb125c52fd8969902c4b8f5424830e8c20e8c4f1361c3e4db5f3a",
	"compiler": {
		"name": "solc",
		"version": "0.7.4+commit.3f05b770",
		"settings": {
			"remappings": [],
			"optimizer": {
				"enabled": true,
				"runs": 1000000
			},
			"outputSelection": {
				"*": {
					"*": [
						"abi",
						"devdoc",
						"evm.bytecode.object",
						"evm.bytecode.sourceMap",
						"evm.deployedBytecode.object",
						"evm.deployedBytecode.sourceMap"
					]
				}
			}
		}
	},
	"chains": {}
}