{
	"schemaVersion": "2.0.0",
	"contractName": "Staking",
	"compilerOutput": {
		"abi": [
			{
				"anonymous": false,
				"inputs": [
					{
						"indexed": true,
						"internalType": "address",
						"name": "target",
						"type": "address"
					},
					{
						"indexed": true,
						"internalType": "address",
						"name": "caller",
						"type": "address"
					}
				],
				"name": "AuthorizedAddressAdded",
				"type": "event"
			},
			{
				"anonymous": false,
				"inputs": [
					{
						"indexed": true,
						"internalType": "address",
						"name": "target",
						"type": "address"
					},
					{
						"indexed": true,
						"internalType": "address",
						"name": "caller",
						"type": "address"
					}
				],
				"name": "AuthorizedAddressRemoved",
				"type": "event"
			},
			{
				"anonymous": false,
				"inputs": [
					{
						"indexed": true,
						"internalType": "uint256",
						"name": "epoch",
						"type": "uint256"
					},
					{
						"indexed": false,
						"internalType": "uint256",
						"name": "numPoolsToFinalize",
						"type": "uint256"
					},
					{
						"indexed": false,
						"internalType": "uint256",
						"name": "rewardsAvailable",
						"type": "uint256"
					},
					{
						"indexed": false,
						"internalType": "uint256",
						"name": "totalFeesCollected",
						"type": "uint256"
					},
					{
						"indexed": false,
						"internalType": "uint256",
						"name": "totalWeightedStake",
						"type": "uint256"
					}
				],
				"name": "EpochEnded",
				"type": "event"
			},
			{
				"anonymous": false,
				"inputs": [
					{
						"indexed": true,
						"internalType": "uint256",
						"name": "epoch",
						"type": "uint256"
					},
					{
						"indexed": false,
						"internalType": "uint256",
						"name": "rewardsPaid",
						"type": "uint256"
					},
					{
						"indexed": false,
						"internalType": "uint256",
						"name": "rewardsRemaining",
						"type": "uint256"
					}
				],
				"name": "EpochFinalized",
				"type": "event"
			},
			{
				"anonymous": false,
				"inputs": [
					{
						"indexed": true,
						"internalType": "address",
						"name": "staker",
						"type": "address"
					},
					{
						"indexed": false,
						"internalType": "uint256",
						"name": "amount",
						"type": "uint256"
					},
					{
						"indexed": false,
						"internalType": "uint8",
						"name": "fromStatus",
						"type": "uint8"
					},
					{
						"indexed": true,
						"internalType": "bytes32",
						"name": "fromPool",
						"type": "bytes32"
					},
					{
						"indexed": false,
						"internalType": "uint8",
						"name": "toStatus",
						"type": "uint8"
					},
					{
						"indexed": true,
						"internalType": "bytes32",
						"name": "toPool",
						"type": "bytes32"
					}
				],
				"name": "MoveStake",
				"type": "event"
			},
			{
				"anonymous": false,
				"inputs": [
					{
						"indexed": true,
						"internalType": "bytes32",
						"name": "poolId",
						"type": "bytes32"
					},
					{
						"indexed": false,
						"internalType": "uint32",
						"name": "oldOperatorShare",
						"type": "uint32"
					},
					{
						"indexed": false,
						"internalType": "uint32",
						"name": "newOperatorShare",
						"type": "uint32"
					}
				],
				"name": "OperatorShareDecreased",
				"type": "event"
			},
			{
				"anonymous": false,
				"inputs": [
					{
						"indexed": true,
						"internalType": "address",
						"name": "previousOwner",
						"type": "address"
					},
					{
						"indexed": true,
						"internalType": "address",
						"name": "newOwner",
						"type": "address"
					}
				],
				"name": "OwnershipTransferred",
				"type": "event"
			},
			{
				"anonymous": false,
				"inputs": [
					{
						"indexed": false,
						"internalType": "uint256",
						"name": "epochDurationInSeconds",
						"type": "uint256"
					},
					{
						"indexed": false,
						"internalType": "uint32",
						"name": "rewardDelegatedStakeWeight",
						"type": "uint32"
					},
					{
						"indexed": false,
						"internalType": "uint256",
						"name": "minimumPoolStake",
						"type": "uint256"
					},
					{
						"indexed": false,
						"internalType": "uint256",
						"name": "cobbDouglasAlphaNumerator",
						"type": "uint256"
					},
					{
						"indexed": false,
						"internalType": "uint256",
						"name": "cobbDouglasAlphaDenominator",
						"type": "uint256"
					}
				],
				"name": "ParamsSet",
				"type": "event"
			},
			{
				"anonymous": false,
				"inputs": [
					{
						"indexed": false,
						"internalType": "address",
						"name": "exchangeAddress",
						"type": "address"
					}
				],
				"name": "PopAdded",
				"type": "event"
			},
			{
				"anonymous": false,
				"inputs": [
					{
						"indexed": false,
						"internalType": "address",
						"name": "exchangeAddress",
						"type": "address"
					}
				],
				"name": "PopRemoved",
				"type": "event"
			},
			{
				"anonymous": false,
				"inputs": [
					{
						"indexed": true,
						"internalType": "address",
						"name": "rbPoolAddress",
						"type": "address"
					},
					{
						"indexed": true,
						"internalType": "bytes32",
						"name": "poolId",
						"type": "bytes32"
					}
				],
				"name": "RbPoolStakingPoolSet",
				"type": "event"
			},
			{
				"anonymous": false,
				"inputs": [
					{
						"indexed": true,
						"internalType": "uint256",
						"name": "epoch",
						"type": "uint256"
					},
					{
						"indexed": true,
						"internalType": "bytes32",
						"name": "poolId",
						"type": "bytes32"
					},
					{
						"indexed": false,
						"internalType": "uint256",
						"name": "operatorReward",
						"type": "uint256"
					},
					{
						"indexed": false,
						"internalType": "uint256",
						"name": "membersReward",
						"type": "uint256"
					}
				],
				"name": "RewardsPaid",
				"type": "event"
			},
			{
				"anonymous": false,
				"inputs": [
					{
						"indexed": true,
						"internalType": "address",
						"name": "staker",
						"type": "address"
					},
					{
						"indexed": false,
						"internalType": "uint256",
						"name": "amount",
						"type": "uint256"
					}
				],
				"name": "Stake",
				"type": "event"
			},
			{
				"anonymous": false,
				"inputs": [
					{
						"indexed": false,
						"internalType": "bytes32",
						"name": "poolId",
						"type": "bytes32"
					},
					{
						"indexed": false,
						"internalType": "address",
						"name": "operator",
						"type": "address"
					},
					{
						"indexed": false,
						"internalType": "uint32",
						"name": "operatorShare",
						"type": "uint32"
					}
				],
				"name": "StakingPoolCreated",
				"type": "event"
			},
			{
				"anonymous": false,
				"inputs": [
					{
						"indexed": true,
						"internalType": "uint256",
						"name": "epoch",
						"type": "uint256"
					},
					{
						"indexed": true,
						"internalType": "bytes32",
						"name": "poolId",
						"type": "bytes32"
					}
				],
				"name": "StakingPoolEarnedRewardsInEpoch",
				"type": "event"
			},
			{
				"anonymous": false,
				"inputs": [
					{
						"indexed": true,
						"internalType": "address",
						"name": "staker",
						"type": "address"
					},
					{
						"indexed": false,
						"internalType": "uint256",
						"name": "amount",
						"type": "uint256"
					}
				],
				"name": "Unstake",
				"type": "event"
			},
			{
				"inputs": [
					{
						"internalType": "address",
						"name": "target",
						"type": "address"
					}
				],
				"name": "addAuthorizedAddress",
				"outputs": [],
				"stateMutability": "nonpayable",
				"type": "function"
			},
			{
				"inputs": [
					{
						"internalType": "address",
						"name": "addr",
						"type": "address"
					}
				],
				"name": "addPopAddress",
				"outputs": [],
				"stateMutability": "nonpayable",
				"type": "function"
			},
			{
				"inputs": [
					{
						"internalType": "uint256",
						"name": "",
						"type": "uint256"
					}
				],
				"name": "aggregatedStatsByEpoch",
				"outputs": [
					{
						"internalType": "uint256",
						"name": "rewardsAvailable",
						"type": "uint256"
					},
					{
						"internalType": "uint256",
						"name": "numPoolsToFinalize",
						"type": "uint256"
					},
					{
						"internalType": "uint256",
						"name": "totalFeesCollected",
						"type": "uint256"
					},
					{
						"internalType": "uint256",
						"name": "totalWeightedStake",
						"type": "uint256"
					},
					{
						"internalType": "uint256",
						"name": "totalRewardsFinalized",
						"type": "uint256"
					}
				],
				"stateMutability": "view",
				"type": "function"
			},
			{
				"inputs": [
					{
						"internalType": "uint256",
						"name": "",
						"type": "uint256"
					}
				],
				"name": "authorities",
				"outputs": [
					{
						"internalType": "address",
						"name": "",
						"type": "address"
					}
				],
				"stateMutability": "view",
				"type": "function"
			},
			{
				"inputs": [
					{
						"internalType": "address",
						"name": "",
						"type": "address"
					}
				],
				"name": "authorized",
				"outputs": [
					{
						"internalType": "bool",
						"name": "",
						"type": "bool"
					}
				],
				"stateMutability": "view",
				"type": "function"
			},
			{
				"inputs": [],
				"name": "cobbDouglasAlphaDenominator",
				"outputs": [
					{
						"internalType": "uint32",
						"name": "",
						"type": "uint32"
					}
				],
				"stateMutability": "view",
				"type": "function"
			},
			{
				"inputs": [],
				"name": "cobbDouglasAlphaNumerator",
				"outputs": [
					{
						"internalType": "uint32",
						"name": "",
						"type": "uint32"
					}
				],
				"stateMutability": "view",
				"type": "function"
			},
			{
				"inputs": [
					{
						"internalType": "bytes32",
						"name": "poolId",
						"type": "bytes32"
					},
					{
						"internalType": "address",
						"name": "member",
						"type": "address"
					}
				],
				"name": "computeRewardBalanceOfDelegator",
				"outputs": [
					{
						"internalType": "uint256",
						"name": "reward",
						"type": "uint256"
					}
				],
				"stateMutability": "view",
				"type": "function"
			},
			{
				"inputs": [
					{
						"internalType": "bytes32",
						"name": "poolId",
						"type": "bytes32"
					}
				],
				"name": "computeRewardBalanceOfOperator",
				"outputs": [
					{
						"internalType": "uint256",
						"name": "reward",
						"type": "uint256"
					}
				],
				"stateMutability": "view",
				"type": "function"
			},
			{
				"inputs": [
					{
						"internalType": "address",
						"name": "rigoblockPoolAddress",
						"type": "address"
					}
				],
				"name": "createStakingPool",
				"outputs": [
					{
						"internalType": "bytes32",
						"name": "poolId",
						"type": "bytes32"
					}
				],
				"stateMutability": "nonpayable",
				"type": "function"
			},
			{
				"inputs": [
					{
						"internalType": "address",
						"name": "poolAccount",
						"type": "address"
					},
					{
						"internalType": "uint256",
						"name": "popReward",
						"type": "uint256"
					}
				],
				"name": "creditPopReward",
				"outputs": [],
				"stateMutability": "payable",
				"type": "function"
			},
			{
				"inputs": [],
				"name": "currentEpoch",
				"outputs": [
					{
						"internalType": "uint256",
						"name": "",
						"type": "uint256"
					}
				],
				"stateMutability": "view",
				"type": "function"
			},
			{
				"inputs": [],
				"name": "currentEpochStartTimeInSeconds",
				"outputs": [
					{
						"internalType": "uint256",
						"name": "",
						"type": "uint256"
					}
				],
				"stateMutability": "view",
				"type": "function"
			},
			{
				"inputs": [
					{
						"internalType": "bytes32",
						"name": "poolId",
						"type": "bytes32"
					},
					{
						"internalType": "uint32",
						"name": "newOperatorShare",
						"type": "uint32"
					}
				],
				"name": "decreaseStakingPoolOperatorShare",
				"outputs": [],
				"stateMutability": "nonpayable",
				"type": "function"
			},
			{
				"inputs": [],
				"name": "endEpoch",
				"outputs": [
					{
						"internalType": "uint256",
						"name": "",
						"type": "uint256"
					}
				],
				"stateMutability": "nonpayable",
				"type": "function"
			},
			{
				"inputs": [],
				"name": "epochDurationInSeconds",
				"outputs": [
					{
						"internalType": "uint256",
						"name": "",
						"type": "uint256"
					}
				],
				"stateMutability": "view",
				"type": "function"
			},
			{
				"inputs": [
					{
						"internalType": "bytes32",
						"name": "poolId",
						"type": "bytes32"
					}
				],
				"name": "finalizePool",
				"outputs": [],
				"stateMutability": "nonpayable",
				"type": "function"
			},
			{
				"inputs": [],
				"name": "getAuthorizedAddresses",
				"outputs": [
					{
						"internalType": "address[]",
						"name": "",
						"type": "address[]"
					}
				],
				"stateMutability": "view",
				"type": "function"
			},
			{
				"inputs": [],
				"name": "getCurrentEpochEarliestEndTimeInSeconds",
				"outputs": [
					{
						"internalType": "uint256",
						"name": "",
						"type": "uint256"
					}
				],
				"stateMutability": "view",
				"type": "function"
			},
			{
				"inputs": [],
				"name": "getDragoRegistry",
				"outputs": [
					{
						"internalType": "contract IDragoRegistry",
						"name": "dragoRegistry",
						"type": "address"
					}
				],
				"stateMutability": "view",
				"type": "function"
			},
			{
				"inputs": [
					{
						"internalType": "enum IStructs.StakeStatus",
						"name": "stakeStatus",
						"type": "uint8"
					}
				],
				"name": "getGlobalStakeByStatus",
				"outputs": [
					{
						"components": [
							{
								"internalType": "uint64",
								"name": "currentEpoch",
								"type": "uint64"
							},
							{
								"internalType": "uint96",
								"name": "currentEpochBalance",
								"type": "uint96"
							},
							{
								"internalType": "uint96",
								"name": "nextEpochBalance",
								"type": "uint96"
							}
						],
						"internalType": "struct IStructs.StoredBalance",
						"name": "balance",
						"type": "tuple"
					}
				],
				"stateMutability": "view",
				"type": "function"
			},
			{
				"inputs": [],
				"name": "getGrgContract",
				"outputs": [
					{
						"internalType": "contract RigoTokenFace",
						"name": "grgContract",
						"type": "address"
					}
				],
				"stateMutability": "view",
				"type": "function"
			},
			{
				"inputs": [],
				"name": "getGrgVault",
				"outputs": [
					{
						"internalType": "contract IGrgVault",
						"name": "grgVault",
						"type": "address"
					}
				],
				"stateMutability": "view",
				"type": "function"
			},
			{
				"inputs": [
					{
						"internalType": "uint256",
						"name": "stakedTokens",
						"type": "uint256"
					}
				],
				"name": "getMaxEpochReward",
				"outputs": [
					{
						"internalType": "uint256",
						"name": "",
						"type": "uint256"
					}
				],
				"stateMutability": "view",
				"type": "function"
			},
			{
				"inputs": [
					{
						"internalType": "address",
						"name": "staker",
						"type": "address"
					},
					{
						"internalType": "enum IStructs.StakeStatus",
						"name": "stakeStatus",
						"type": "uint8"
					}
				],
				"name": "getOwnerStakeByStatus",
				"outputs": [
					{
						"components": [
							{
								"internalType": "uint64",
								"name": "currentEpoch",
								"type": "uint64"
							},
							{
								"internalType": "uint96",
								"name": "currentEpochBalance",
								"type": "uint96"
							},
							{
								"internalType": "uint96",
								"name": "nextEpochBalance",
								"type": "uint96"
							}
						],
						"internalType": "struct IStructs.StoredBalance",
						"name": "balance",
						"type": "tuple"
					}
				],
				"stateMutability": "view",
				"type": "function"
			},
			{
				"inputs": [],
				"name": "getParams",
				"outputs": [
					{
						"internalType": "uint256",
						"name": "_epochDurationInSeconds",
						"type": "uint256"
					},
					{
						"internalType": "uint32",
						"name": "_rewardDelegatedStakeWeight",
						"type": "uint32"
					},
					{
						"internalType": "uint256",
						"name": "_minimumPoolStake",
						"type": "uint256"
					},
					{
						"internalType": "uint32",
						"name": "_cobbDouglasAlphaNumerator",
						"type": "uint32"
					},
					{
						"internalType": "uint32",
						"name": "_cobbDouglasAlphaDenominator",
						"type": "uint32"
					}
				],
				"stateMutability": "view",
				"type": "function"
			},
			{
				"inputs": [
					{
						"internalType": "address",
						"name": "staker",
						"type": "address"
					},
					{
						"internalType": "bytes32",
						"name": "poolId",
						"type": "bytes32"
					}
				],
				"name": "getStakeDelegatedToPoolByOwner",
				"outputs": [
					{
						"components": [
							{
								"internalType": "uint64",
								"name": "currentEpoch",
								"type": "uint64"
							},
							{
								"internalType": "uint96",
								"name": "currentEpochBalance",
								"type": "uint96"
							},
							{
								"internalType": "uint96",
								"name": "nextEpochBalance",
								"type": "uint96"
							}
						],
						"internalType": "struct IStructs.StoredBalance",
						"name": "balance",
						"type": "tuple"
					}
				],
				"stateMutability": "view",
				"type": "function"
			},
			{
				"inputs": [
					{
						"internalType": "bytes32",
						"name": "poolId",
						"type": "bytes32"
					}
				],
				"name": "getStakingPool",
				"outputs": [
					{
						"components": [
							{
								"internalType": "address",
								"name": "operator",
								"type": "address"
							},
							{
								"internalType": "address",
								"name": "stakingPal",
								"type": "address"
							},
							{
								"internalType": "uint32",
								"name": "operatorShare",
								"type": "uint32"
							},
							{
								"internalType": "uint32",
								"name": "stakingPalShare",
								"type": "uint32"
							}
						],
						"internalType": "struct IStructs.Pool",
						"name": "",
						"type": "tuple"
					}
				],
				"stateMutability": "view",
				"type": "function"
			},
			{
				"inputs": [
					{
						"internalType": "bytes32",
						"name": "poolId",
						"type": "bytes32"
					}
				],
				"name": "getStakingPoolStatsThisEpoch",
				"outputs": [
					{
						"components": [
							{
								"internalType": "uint256",
								"name": "feesCollected",
								"type": "uint256"
							},
							{
								"internalType": "uint256",
								"name": "weightedStake",
								"type": "uint256"
							},
							{
								"internalType": "uint256",
								"name": "membersStake",
								"type": "uint256"
							}
						],
						"internalType": "struct IStructs.PoolStats",
						"name": "",
						"type": "tuple"
					}
				],
				"stateMutability": "view",
				"type": "function"
			},
			{
				"inputs": [
					{
						"internalType": "address",
						"name": "staker",
						"type": "address"
					}
				],
				"name": "getTotalStake",
				"outputs": [
					{
						"internalType": "uint256",
						"name": "",
						"type": "uint256"
					}
				],
				"stateMutability": "view",
				"type": "function"
			},
			{
				"inputs": [
					{
						"internalType": "bytes32",
						"name": "poolId",
						"type": "bytes32"
					}
				],
				"name": "getTotalStakeDelegatedToPool",
				"outputs": [
					{
						"components": [
							{
								"internalType": "uint64",
								"name": "currentEpoch",
								"type": "uint64"
							},
							{
								"internalType": "uint96",
								"name": "currentEpochBalance",
								"type": "uint96"
							},
							{
								"internalType": "uint96",
								"name": "nextEpochBalance",
								"type": "uint96"
							}
						],
						"internalType": "struct IStructs.StoredBalance",
						"name": "balance",
						"type": "tuple"
					}
				],
				"stateMutability": "view",
				"type": "function"
			},
			{
				"inputs": [],
				"name": "grgReservedForPoolRewards",
				"outputs": [
					{
						"internalType": "uint256",
						"name": "",
						"type": "uint256"
					}
				],
				"stateMutability": "view",
				"type": "function"
			},
			{
				"inputs": [],
				"name": "init",
				"outputs": [],
				"stateMutability": "nonpayable",
				"type": "function"
			},
			{
				"inputs": [
					{
						"internalType": "bytes32",
						"name": "poolId",
						"type": "bytes32"
					},
					{
						"internalType": "address",
						"name": "rigoblockPoolAccount",
						"type": "address"
					}
				],
				"name": "joinStakingPoolAsRbPoolAccount",
				"outputs": [],
				"stateMutability": "nonpayable",
				"type": "function"
			},
			{
				"inputs": [],
				"name": "lastPoolId",
				"outputs": [
					{
						"internalType": "bytes32",
						"name": "",
						"type": "bytes32"
					}
				],
				"stateMutability": "view",
				"type": "function"
			},
			{
				"inputs": [],
				"name": "minimumPoolStake",
				"outputs": [
					{
						"internalType": "uint256",
						"name": "",
						"type": "uint256"
					}
				],
				"stateMutability": "view",
				"type": "function"
			},
			{
				"inputs": [
					{
						"components": [
							{
								"internalType": "enum IStructs.StakeStatus",
								"name": "status",
								"type": "uint8"
							},
							{
								"internalType": "bytes32",
								"name": "poolId",
								"type": "bytes32"
							}
						],
						"internalType": "struct IStructs.StakeInfo",
						"name": "from",
						"type": "tuple"
					},
					{
						"components": [
							{
								"internalType": "enum IStructs.StakeStatus",
								"name": "status",
								"type": "uint8"
							},
							{
								"internalType": "bytes32",
								"name": "poolId",
								"type": "bytes32"
							}
						],
						"internalType": "struct IStructs.StakeInfo",
						"name": "to",
						"type": "tuple"
					},
					{
						"internalType": "uint256",
						"name": "amount",
						"type": "uint256"
					}
				],
				"name": "moveStake",
				"outputs": [],
				"stateMutability": "nonpayable",
				"type": "function"
			},
			{
				"inputs": [],
				"name": "owner",
				"outputs": [
					{
						"internalType": "address",
						"name": "",
						"type": "address"
					}
				],
				"stateMutability": "view",
				"type": "function"
			},
			{
				"inputs": [
					{
						"internalType": "address",
						"name": "",
						"type": "address"
					}
				],
				"name": "poolIdByRbPoolAccount",
				"outputs": [
					{
						"internalType": "bytes32",
						"name": "",
						"type": "bytes32"
					}
				],
				"stateMutability": "view",
				"type": "function"
			},
			{
				"inputs": [
					{
						"internalType": "bytes32",
						"name": "",
						"type": "bytes32"
					},
					{
						"internalType": "uint256",
						"name": "",
						"type": "uint256"
					}
				],
				"name": "poolStatsByEpoch",
				"outputs": [
					{
						"internalType": "uint256",
						"name": "feesCollected",
						"type": "uint256"
					},
					{
						"internalType": "uint256",
						"name": "weightedStake",
						"type": "uint256"
					},
					{
						"internalType": "uint256",
						"name": "membersStake",
						"type": "uint256"
					}
				],
				"stateMutability": "view",
				"type": "function"
			},
			{
				"inputs": [
					{
						"internalType": "address",
						"name": "target",
						"type": "address"
					}
				],
				"name": "removeAuthorizedAddress",
				"outputs": [],
				"stateMutability": "nonpayable",
				"type": "function"
			},
			{
				"inputs": [
					{
						"internalType": "address",
						"name": "target",
						"type": "address"
					},
					{
						"internalType": "uint256",
						"name": "index",
						"type": "uint256"
					}
				],
				"name": "removeAuthorizedAddressAtIndex",
				"outputs": [],
				"stateMutability": "nonpayable",
				"type": "function"
			},
			{
				"inputs": [
					{
						"internalType": "address",
						"name": "addr",
						"type": "address"
					}
				],
				"name": "removePopAddress",
				"outputs": [],
				"stateMutability": "nonpayable",
				"type": "function"
			},
			{
				"inputs": [],
				"name": "rewardDelegatedStakeWeight",
				"outputs": [
					{
						"internalType": "uint32",
						"name": "",
						"type": "uint32"
					}
				],
				"stateMutability": "view",
				"type": "function"
			},
			{
				"inputs": [
					{
						"internalType": "bytes32",
						"name": "",
						"type": "bytes32"
					}
				],
				"name": "rewardsByPoolId",
				"outputs": [
					{
						"internalType": "uint256",
						"name": "",
						"type": "uint256"
					}
				],
				"stateMutability": "view",
				"type": "function"
			},
			{
				"inputs": [
					{
						"internalType": "uint256",
						"name": "_epochDurationInSeconds",
						"type": "uint256"
					},
					{
						"internalType": "uint32",
						"name": "_rewardDelegatedStakeWeight",
						"type": "uint32"
					},
					{
						"internalType": "uint256",
						"name": "_minimumPoolStake",
						"type": "uint256"
					},
					{
						"internalType": "uint32",
						"name": "_cobbDouglasAlphaNumerator",
						"type": "uint32"
					},
					{
						"internalType": "uint32",
						"name": "_cobbDouglasAlphaDenominator",
						"type": "uint32"
					}
				],
				"name": "setParams",
				"outputs": [],
				"stateMutability": "nonpayable",
				"type": "function"
			},
			{
				"inputs": [
					{
						"internalType": "bytes32",
						"name": "poolId",
						"type": "bytes32"
					},
					{
						"internalType": "address",
						"name": "newStakingPalAddress",
						"type": "address"
					}
				],
				"name": "setStakingPalAddress",
				"outputs": [],
				"stateMutability": "nonpayable",
				"type": "function"
			},
			{
				"inputs": [
					{
						"internalType": "uint256",
						"name": "amount",
						"type": "uint256"
					}
				],
				"name": "stake",
				"outputs": [],
				"stateMutability": "nonpayable",
				"type": "function"
			},
			{
				"inputs": [],
				"name": "stakingContract",
				"outputs": [
					{
						"internalType": "address",
						"name": "",
						"type": "address"
					}
				],
				"stateMutability": "view",
				"type": "function"
			},
			{
				"inputs": [
					{
						"internalType": "address",
						"name": "newOwner",
						"type": "address"
					}
				],
				"name": "transferOwnership",
				"outputs": [],
				"stateMutability": "nonpayable",
				"type": "function"
			},
			{
				"inputs": [
					{
						"internalType": "uint256",
						"name": "amount",
						"type": "uint256"
					}
				],
				"name": "unstake",
				"outputs": [],
				"stateMutability": "nonpayable",
				"type": "function"
			},
			{
				"inputs": [
					{
						"internalType": "address",
						"name": "",
						"type": "address"
					}
				],
				"name": "validPops",
				"outputs": [
					{
						"internalType": "bool",
						"name": "",
						"type": "bool"
					}
				],
				"stateMutability": "view",
				"type": "function"
			},
			{
				"inputs": [
					{
						"internalType": "bytes32",
						"name": "poolId",
						"type": "bytes32"
					}
				],
				"name": "withdrawDelegatorRewards",
				"outputs": [],
				"stateMutability": "nonpayable",
				"type": "function"
			}
		],
		"devdoc": {
			"kind": "dev",
			"methods": {
				"addAuthorizedAddress(address)": {
					"details": "Authorizes an address.",
					"params": {
						"target": "Address to authorize."
					}
				},
				"addPopAddress(address)": {
					"details": "Adds a new pop address.",
					"params": {
						"addr": "Address of pop contract to add."
					}
				},
				"computeRewardBalanceOfDelegator(bytes32,address)": {
					"details": "Computes the reward balance in ETH of a specific member of a pool.",
					"params": {
						"member": "The member of the pool.",
						"poolId": "Unique id of pool."
					},
					"returns": {
						"reward": "totalReward Balance in ETH."
					}
				},
				"computeRewardBalanceOfOperator(bytes32)": {
					"details": "Computes the reward balance in ETH of the operator of a pool.",
					"params": {
						"poolId": "Unique id of pool."
					},
					"returns": {
						"reward": "totalReward Balance in ETH."
					}
				},
				"createStakingPool(address)": {
					"details": "Create a new staking pool. The sender will be the operator of this pool. Note that an operator must be payable.",
					"params": {
						"rigoblockPoolAddress": "Adds rigoblock pool to the created staking pool for convenience if non-null."
					},
					"returns": {
						"poolId": "The unique pool id generated for this pool."
					}
				},
				"creditPopReward(address,uint256)": {
					"details": "Credits the value of a pool's pop reward.      Only a known RigoBlock pop can call this method. See      (MixinPopManager).",
					"params": {
						"poolAccount": "The address of the rigoblock pool account.",
						"popReward": "The pop reward."
					}
				},
				"decreaseStakingPoolOperatorShare(bytes32,uint32)": {
					"details": "Decreases the operator share for the given pool (i.e. increases pool rewards for members).",
					"params": {
						"newOperatorShare": "The newly decreased percentage of any rewards owned by the operator.",
						"poolId": "Unique Id of pool."
					}
				},
				"endEpoch()": {
					"details": "Begins a new epoch, preparing the prior one for finalization.      Throws if not enough time has passed between epochs or if the      previous epoch was not fully finalized.",
					"returns": {
						"_0": "numPoolsToFinalize The number of unfinalized pools."
					}
				},
				"finalizePool(bytes32)": {
					"details": "Instantly finalizes a single pool that earned rewards in the previous      epoch, crediting it rewards for members and withdrawing operator's      rewards as WETH. This can be called by internal functions that need      to finalize a pool immediately. Does nothing if the pool is already      finalized or did not earn rewards in the previous epoch.",
					"params": {
						"poolId": "The pool ID to finalize."
					}
				},
				"getAuthorizedAddresses()": {
					"details": "Gets all authorized addresses.",
					"returns": {
						"_0": "Array of authorized addresses."
					}
				},
				"getCurrentEpochEarliestEndTimeInSeconds()": {
					"details": "Returns the earliest end time in seconds of this epoch.      The next epoch can begin once this time is reached.      Epoch period = [startTimeInSeconds..endTimeInSeconds)",
					"returns": {
						"_0": "Time in seconds."
					}
				},
				"getDragoRegistry()": {
					"details": "An overridable way to access the deployed dragoRegistry.      Must be view to allow overrides to access state.",
					"returns": {
						"dragoRegistry": "The dragoRegistry contract."
					}
				},
				"getGlobalStakeByStatus(uint8)": {
					"details": "Gets global stake for a given status.",
					"params": {
						"stakeStatus": "UNDELEGATED or DELEGATED"
					},
					"returns": {
						"balance": "Global stake for given status."
					}
				},
				"getGrgContract()": {
					"details": "An overridable way to access the deployed GRG contract.      Must be view to allow overrides to access state.",
					"returns": {
						"grgContract": "The GRG contract instance."
					}
				},
				"getGrgVault()": {
					"details": "An overridable way to access the deployed grgVault.      Must be view to allow overrides to access state.",
					"returns": {
						"grgVault": "The grgVault contract."
					}
				},
				"getMaxEpochReward(uint256)": {
					"details": "Returns the total maximum epoch reward given a stake.",
					"params": {
						"stakedTokens": "Number of staked tokens."
					},
					"returns": {
						"_0": "maxEpochReward Maximum epoch reward."
					}
				},
				"getOwnerStakeByStatus(address,uint8)": {
					"details": "Gets an owner's stake balances by status.",
					"params": {
						"stakeStatus": "UNDELEGATED or DELEGATED",
						"staker": "Owner of stake."
					},
					"returns": {
						"balance": "Owner's stake balances for given status."
					}
				},
				"getParams()": {
					"details": "Retrieves all configurable parameter values.",
					"returns": {
						"_cobbDouglasAlphaDenominator": "Denominator for cobb douglas alpha factor.",
						"_cobbDouglasAlphaNumerator": "Numerator for cobb douglas alpha factor.",
						"_epochDurationInSeconds": "Minimum seconds between epochs.",
						"_minimumPoolStake": "Minimum amount of stake required in a pool to collect rewards.",
						"_rewardDelegatedStakeWeight": "How much delegated stake is weighted vs operator stake, in ppm."
					}
				},
				"getStakeDelegatedToPoolByOwner(address,bytes32)": {
					"details": "Returns the stake delegated to a specific staking pool, by a given staker.",
					"params": {
						"poolId": "Unique Id of pool.",
						"staker": "of stake."
					},
					"returns": {
						"balance": "Stake delegated to pool by staker."
					}
				},
				"getStakingPool(bytes32)": {
					"details": "Returns a staking pool",
					"params": {
						"poolId": "Unique id of pool."
					}
				},
				"getStakingPoolStatsThisEpoch(bytes32)": {
					"details": "Get stats on a staking pool in this epoch.",
					"params": {
						"poolId": "Pool Id to query."
					},
					"returns": {
						"_0": "PoolStats struct for pool id."
					}
				},
				"getTotalStake(address)": {
					"details": "Returns the total stake for a given staker.",
					"params": {
						"staker": "of stake."
					},
					"returns": {
						"_0": "Total GRG staked by `staker`."
					}
				},
				"getTotalStakeDelegatedToPool(bytes32)": {
					"details": "Returns the total stake delegated to a specific staking pool,      across all members.",
					"params": {
						"poolId": "Unique Id of pool."
					},
					"returns": {
						"balance": "Total stake delegated to pool."
					}
				},
				"init()": {
					"details": "Initialize storage owned by this contract.      This function should not be called directly.      The StakingProxy contract will call it in `attachStakingContract()`."
				},
				"joinStakingPoolAsRbPoolAccount(bytes32,address)": {
					"details": "Allows caller to join a staking pool as a rigoblock pool account.",
					"params": {
						"poolId": "Unique id of pool.",
						"rigoblockPoolAccount": "Address of subaccount to be added to staking pool."
					}
				},
				"moveStake((uint8,bytes32),(uint8,bytes32),uint256)": {
					"details": "Moves stake between statuses: 'undelegated' or 'delegated'.      Delegated stake can also be moved between pools.      This change comes into effect next epoch.",
					"params": {
						"amount": "Amount of stake to move.",
						"from": "Status to move stake out of.",
						"to": "Status to move stake into."
					}
				},
				"removeAuthorizedAddress(address)": {
					"details": "Removes authorizion of an address.",
					"params": {
						"target": "Address to remove authorization from."
					}
				},
				"removeAuthorizedAddressAtIndex(address,uint256)": {
					"details": "Removes authorizion of an address.",
					"params": {
						"index": "Index of target in authorities array.",
						"target": "Address to remove authorization from."
					}
				},
				"removePopAddress(address)": {
					"details": "Removes an existing proof_of_performance address.",
					"params": {
						"addr": "Address of proof_of_performance contract to remove."
					}
				},
				"setParams(uint256,uint32,uint256,uint32,uint32)": {
					"details": "Set all configurable parameters at once.",
					"params": {
						"_cobbDouglasAlphaDenominator": "Denominator for cobb douglas alpha factor.",
						"_cobbDouglasAlphaNumerator": "Numerator for cobb douglas alpha factor.",
						"_epochDurationInSeconds": "Minimum seconds between epochs.",
						"_minimumPoolStake": "Minimum amount of stake required in a pool to collect rewards.",
						"_rewardDelegatedStakeWeight": "How much delegated stake is weighted vs operator stake, in ppm."
					}
				},
				"setStakingPalAddress(bytes32,address)": {
					"details": "Allows the operator to update the staking pal address.",
					"params": {
						"newStakingPalAddress": "Address of the new staking pal.",
						"poolId": "Unique id of pool."
					}
				},
				"stake(uint256)": {
					"details": "Stake GRG tokens. Tokens are deposited into the GRG Vault.      Unstake to retrieve the GRG. Stake is in the 'Active' status.",
					"params": {
						"amount": "Amount of GRG to stake."
					}
				},
				"transferOwnership(address)": {
					"details": "Change the owner of this contract.",
					"params": {
						"newOwner": "New owner address."
					}
				},
				"unstake(uint256)": {
					"details": "Unstake. Tokens are withdrawn from the GRG Vault and returned to      the staker. Stake must be in the 'undelegated' status in both the      current and next epoch in order to be unstaked.",
					"params": {
						"amount": "Amount of GRG to unstake."
					}
				},
				"withdrawDelegatorRewards(bytes32)": {
					"details": "Withdraws the caller's WETH rewards that have accumulated      until the last epoch.",
					"params": {
						"poolId": "Unique id of pool."
					}
				}
			},
			"version": 1
		},
		"evm": {
			"bytecode": {
				"linkReferences": {},
				"object": "0x608060405234801561001057600080fd5b50600080546001600160a01b0319163317905561648880620000336000396000f3fe60806040526004361061034a5760003560e01c80638da5cb5b116101bb578063d14dc231116100f7578063e907f00311610095578063ef4ba6801161006f578063ef4ba68014610940578063f252b7a114610955578063f2fde38b14610975578063ff691b11146109955761034a565b8063e907f003146108f8578063ecc128f214610918578063ee99205c1461092b5761034a565b8063e0ee036e116100d1578063e0ee036e14610899578063e1c7392a146108ae578063e804d0a4146108c3578063e8eeb3f8146108e35761034a565b8063d14dc2311461084d578063d39de6e914610862578063e0822db7146108845761034a565b8063b2baa33e11610164578063b91816111161013e578063b9181611146107cd578063bb7ef7e0146107ed578063be111af41461080d578063c18c91411461082d5761034a565b8063b2baa33e14610783578063b510879f14610798578063b652b41f146107b85761034a565b8063a26171e211610195578063a26171e214610739578063a657e5791461074e578063a694fc3a146107635761034a565b80638da5cb5b146106e45780639ad26744146106f95780639c3ccc82146107195761034a565b8063494503d41161028a5780635d91121d11610233578063707129391161020d578063707129391461066d578063766718081461068d5780637fa140c7146106a257806381666796146106c25761034a565b80635d91121d146106125780635e615a6b1461063257806363403801146106585761034a565b806357a15c031161026457806357a15c03146105bd578063587da023146105dd57806358f6c7e3146105f25761034a565b8063494503d4146105365780634bcc3f6714610563578063540c2d53146105905761034a565b806336d7dd8e116102f75780633e4ad732116102d15780633e4ad7321461049c57806342f1181e146104c957806344a6958b146104e957806346b97959146105095761034a565b806336d7dd8e1461042b57806338229d931461044b5780633a8323821461047c5761034a565b80631f81eb80116103285780631f81eb80146103bc5780632a94c279146103dc5780632e17de781461040b5761034a565b80630b9663db1461034f5780631a67a0a01461037a5780631e7ff8f61461039c575b600080fd5b34801561035b57600080fd5b506103646109b5565b6040516103719190616195565b60405180910390f35b34801561038657600080fd5b5061039a610395366004615f5b565b610af8565b005b3480156103a857600080fd5b506103646103b7366004615dd5565b610cd3565b3480156103c857600080fd5b5061039a6103d7366004615dd5565b610d6d565b3480156103e857600080fd5b506103fc6103f7366004615f8a565b610e37565b60405161037193929190616370565b34801561041757600080fd5b5061039a610426366004615f43565b610e63565b34801561043757600080fd5b5061039a610446366004615dd5565b611018565b34801561045757600080fd5b5061046b610466366004615f43565b6110de565b6040516103719594939291906163a1565b34801561048857600080fd5b5061039a610497366004615f5b565b61110d565b3480156104a857600080fd5b506104bc6104b7366004615f43565b6111b6565b6040516103719190616331565b3480156104d557600080fd5b5061039a6104e4366004615dd5565b6111d5565b3480156104f557600080fd5b506104bc610504366004615e38565b6111e9565b34801561051557600080fd5b50610529610524366004615f43565b611248565b60405161037191906162ba565b34801561054257600080fd5b50610556610551366004615f43565b611293565b60405161037191906160e9565b34801561056f57600080fd5b5061058361057e366004615f43565b6112ca565b60405161037191906162db565b34801561059c57600080fd5b506105b06105ab366004615dd5565b611366565b604051610371919061618a565b3480156105c957600080fd5b506103646105d8366004615f43565b61137b565b3480156105e957600080fd5b5061036461143a565b3480156105fe57600080fd5b5061039a61060d366004615fe7565b611440565b34801561061e57600080fd5b5061039a61062d366004615fab565b61163c565b34801561063e57600080fd5b5061064761170b565b6040516103719594939291906163c4565b34801561066457600080fd5b50610364611734565b34801561067957600080fd5b5061039a610688366004615dd5565b61173a565b34801561069957600080fd5b506103646117ef565b3480156106ae57600080fd5b506103646106bd366004615dd5565b6117f5565b3480156106ce57600080fd5b506106d7611807565b6040516103719190616408565b3480156106f057600080fd5b50610556611813565b34801561070557600080fd5b5061039a610714366004615f11565b61182f565b34801561072557600080fd5b5061039a610734366004616093565b611841565b34801561074557600080fd5b506103646118bb565b34801561075a57600080fd5b506103646118c1565b34801561076f57600080fd5b5061039a61077e366004615f43565b6118c7565b34801561078f57600080fd5b506103646119dc565b3480156107a457600080fd5b5061039a6107b3366004615f43565b6119fa565b3480156107c457600080fd5b50610556611a04565b3480156107d957600080fd5b506105b06107e8366004615dd5565b611a1c565b3480156107f957600080fd5b50610364610808366004615f43565b611a31565b34801561081957600080fd5b50610364610828366004615dd5565b611af1565b34801561083957600080fd5b50610364610848366004615f43565b611d80565b34801561085957600080fd5b50610364611d92565b34801561086e57600080fd5b50610877611d98565b6040516103719190616130565b34801561089057600080fd5b50610556611e07565b3480156108a557600080fd5b506106d7611e1f565b3480156108ba57600080fd5b5061039a611e2b565b3480156108cf57600080fd5b506104bc6108de366004615fcd565b611e45565b3480156108ef57600080fd5b506106d7611f8f565b34801561090457600080fd5b50610364610913366004615f5b565b611fa3565b61039a610926366004615f11565b612075565b34801561093757600080fd5b506105566121ef565b34801561094c57600080fd5b5061055661220b565b34801561096157600080fd5b506104bc610970366004615e0d565b612223565b34801561098157600080fd5b5061039a610990366004615dd5565b612264565b3480156109a157600080fd5b5061039a6109b0366004615f43565b612307565b600c54600090816109c7826001612643565b60008181526016602052604090206001015490915080156109f4576109f46109ef8383612662565b6126d5565b6109fc6126dd565b600084815260166020526040902055610a13615c35565b50600083815260166020908152604091829020825160a08101845281548082526001830154938201849052600283015482860181905260038401546060840181905260049094015460808401529451919488947fbb4a26fa0ace13ee4da343896c20eaa44a618fb9071fdd8c2e2c960a4583189d94610a959491939291616386565b60405180910390a2610aa5612775565b6020810151610aec57805160405185917fb463d19ecf455be65365092cf8e1db6934a0334cf8cd532ddf9964d01f36b5b291610ae3916000916161d0565b60405180910390a25b60200151935050505090565b600080610b03611a04565b6040517fc277f1ac00000000000000000000000000000000000000000000000000000000815273ffffffffffffffffffffffffffffffffffffffff919091169063c277f1ac90610b57908790600401616195565b60006040518083038186803b158015610b6f57600080fd5b505afa158015610b83573d6000803e3d6000fd5b505050506040513d6000823e601f3d9081017fffffffffffffffffffffffffffffffffffffffffffffffffffffffffffffffe0168201604052610bc99190810190615e6c565b50509350505091506000811415610c15576040517f08c379a0000000000000000000000000000000000000000000000000000000008152600401610c0c906161de565b60405180910390fd5b8273ffffffffffffffffffffffffffffffffffffffff168273ffffffffffffffffffffffffffffffffffffffff1614610c7a576040517f08c379a0000000000000000000000000000000000000000000000000000000008152600401610c0c90616215565b73ffffffffffffffffffffffffffffffffffffffff8083166000908152600960205260408082208790555186928616917fe8b9f7ee7a4480d45b60e98f7b2090dd82e2353b8557a6ee2dd2d5ee9196bac291a350505050565b6000610cdd611e07565b73ffffffffffffffffffffffffffffffffffffffff166370a08231836040518263ffffffff1660e01b8152600401610d1591906160e9565b60206040518083038186803b158015610d2d57600080fd5b505afa158015610d41573d6000803e3d6000fd5b505050506040513d601f19601f82011682018060405250810190610d659190616024565b90505b919050565b610d756127b2565b73ffffffffffffffffffffffffffffffffffffffff811660009081526010602052604090205460ff1615610db157610db16109ef6000836127d5565b73ffffffffffffffffffffffffffffffffffffffff811660008181526010602090815260409182902080547fffffffffffffffffffffffffffffffffffffffffffffffffffffffffffffff00166001179055815192835290517f5738ee3c8e8fe8b0b9c4c21b16fdca42ec02e271237dfeabbf3b5af1584d732b9281900390910190a150565b601560209081526000928352604080842090915290825290208054600182015460029092015490919083565b33610e6c615c64565b73ffffffffffffffffffffffffffffffffffffffff821660009081527f05b8ccbb9d4d8fb16ea74ce3c29a41f1b461fbdaff4714a0d9a8eb05499746bc60205260409020610eb99061287d565b90506000610eeb82602001516bffffffffffffffffffffffff1683604001516bffffffffffffffffffffffff16612923565b905080841115610f0257610f026109ef8583612939565b73ffffffffffffffffffffffffffffffffffffffff831660009081527f05b8ccbb9d4d8fb16ea74ce3c29a41f1b461fbdaff4714a0d9a8eb05499746bc60205260409020610f5090856129ac565b610f58611e07565b73ffffffffffffffffffffffffffffffffffffffff16639470b0bd84866040518363ffffffff1660e01b8152600401610f9292919061610a565b600060405180830381600087803b158015610fac57600080fd5b505af1158015610fc0573d6000803e3d6000fd5b505050508273ffffffffffffffffffffffffffffffffffffffff167f85082129d87b2fe11527cb1b3b7a520aeb5aa6913f88a3d8757fe40d1db02fdd8560405161100a9190616195565b60405180910390a250505050565b6110206127b2565b73ffffffffffffffffffffffffffffffffffffffff811660009081526010602052604090205460ff1661105b5761105b6109ef6001836127d5565b73ffffffffffffffffffffffffffffffffffffffff811660008181526010602090815260409182902080547fffffffffffffffffffffffffffffffffffffffffffffffffffffffffffffff00169055815192835290517f9bf55462cb5fa187f725d06de0a70bc01c4e40695570bdc25ad116f9be46bda79281900390910190a150565b601660205260009081526040902080546001820154600283015460038401546004909401549293919290919085565b8161111781612a2d565b6000838152600a6020526040902073ffffffffffffffffffffffffffffffffffffffff831615806111645750600181015473ffffffffffffffffffffffffffffffffffffffff8481169116145b1561116f57506111b1565b60010180547fffffffffffffffffffffffff00000000000000000000000000000000000000001673ffffffffffffffffffffffffffffffffffffffff84161790555b505050565b6111be615c64565b6000828152600760205260409020610d659061287d565b6111dd612a66565b6111e681612aad565b50565b6111f1615c64565b61123f6005600084600181111561120457fe5b60ff1681526020808201929092526040908101600090812073ffffffffffffffffffffffffffffffffffffffff88168252909252902061287d565b90505b92915050565b611250615c84565b506000908152601560209081526040808320600c548452825291829020825160608101845281548152600182015492810192909252600201549181019190915290565b600281815481106112a357600080fd5b60009182526020909120015473ffffffffffffffffffffffffffffffffffffffff16905081565b6112d2615ca5565b506000908152600a60209081526040918290208251608081018452815473ffffffffffffffffffffffffffffffffffffffff90811682526001909201549182169281019290925263ffffffff74010000000000000000000000000000000000000000820481169383019390935278010000000000000000000000000000000000000000000000009004909116606082015290565b60106020526000908152604090205460ff1681565b600061138561220b565b73ffffffffffffffffffffffffffffffffffffffff1663075461726040518163ffffffff1660e01b815260040160206040518083038186803b1580156113ca57600080fd5b505afa1580156113de573d6000803e3d6000fd5b505050506040513d601f19601f820116820180604052508101906114029190615df1565b73ffffffffffffffffffffffffffffffffffffffff166357a15c03836040518263ffffffff1660e01b8152600401610d159190616195565b600d5481565b338161144c57506111b1565b600061145b6020860186615fcd565b600181111561146657fe5b14801561148a5750600061147d6020850185615fcd565b600181111561148857fe5b145b1561149557506111b1565b60016114a46020860186615fcd565b60018111156114af57fe5b14156114c4576114c484602001358284612bde565b60016114d36020850185615fcd565b60018111156114de57fe5b14156114f3576114f383602001358284612c77565b60006005816115056020880188615fcd565b600181111561151057fe5b60ff1681526020808201929092526040908101600090812073ffffffffffffffffffffffffffffffffffffffff861682528352908120925090600590829061155a90880188615fcd565b600181111561156557fe5b60ff1681526020808201929092526040908101600090812073ffffffffffffffffffffffffffffffffffffffff87168252909252902090506115a8828286612d10565b60208086013590870180359073ffffffffffffffffffffffffffffffffffffffff8616907f7d3ad1dcf03b9027064d1d9a474a69e0cecc31324c541d3eb9b5e6fa2f106c8d9088906115fa908c615fcd565b600181111561160557fe5b61161260208c018c615fcd565b600181111561161d57fe5b60405161162c939291906163ef565b60405180910390a4505050505050565b8161164681612a2d565b6000838152600a602052604090206001015474010000000000000000000000000000000000000000900463ffffffff16611681848285612dfd565b6000848152600a60205260409081902060010180547fffffffffffffffff00000000ffffffffffffffffffffffffffffffffffffffff167401000000000000000000000000000000000000000063ffffffff8716021790555184907f8ea2a7a959bd25f226b7b0a4393613f7fdcaa8404e8bad96aa52dc1c145901679061100a9084908790616419565b601154601254601354601454929363ffffffff9283169391928281169264010000000090041690565b60115481565b611742612a66565b73ffffffffffffffffffffffffffffffffffffffff811660009081526001602052604090205460ff1661177b5761177b6109ef82612e45565b60005b6002548110156117eb578173ffffffffffffffffffffffffffffffffffffffff16600282815481106117ac57fe5b60009182526020909120015473ffffffffffffffffffffffffffffffffffffffff1614156117e3576117de8282612ec8565b6117eb565b60010161177e565b5050565b600c5481565b60096020526000908152604090205481565b60145463ffffffff1681565b60005473ffffffffffffffffffffffffffffffffffffffff1681565b611837612a66565b6117eb8282612ec8565b6118496127b2565b6118568585858585613143565b3073ffffffffffffffffffffffffffffffffffffffff1663c6f3a4276040518163ffffffff1660e01b815260040160006040518083038186803b15801561189c57600080fd5b505afa1580156118b0573d6000803e3d6000fd5b505050505050505050565b60135481565b60085481565b336118d0611e07565b73ffffffffffffffffffffffffffffffffffffffff166315cc36f282846040518363ffffffff1660e01b815260040161190a92919061610a565b600060405180830381600087803b15801561192457600080fd5b505af1158015611938573d6000803e3d6000fd5b5050505073ffffffffffffffffffffffffffffffffffffffff811660009081527f05b8ccbb9d4d8fb16ea74ce3c29a41f1b461fbdaff4714a0d9a8eb05499746bc6020526040902061198a9083613219565b8073ffffffffffffffffffffffffffffffffffffffff167febedb8b3c678666e7f36970bc8f57abf6d8fa2e828c0da91ea5b75bf68ed101a836040516119d09190616195565b60405180910390a25050565b60006119f5601154600d5461327990919063ffffffff16565b905090565b6111e68133613295565b73de6445484a8dcd9bf35fc95eb4e3990cc358822e90565b60016020526000908152604090205460ff1681565b6000611a3b615ca5565b506000828152600a602090815260408083208151608081018352815473ffffffffffffffffffffffffffffffffffffffff90811682526001909201549182169381019390935263ffffffff740100000000000000000000000000000000000000008204811692840192909252780100000000000000000000000000000000000000000000000090041660608201529080611ad48561346d565b91509150611ae783604001518383613483565b5095945050505050565b6000806000611afe611a04565b73ffffffffffffffffffffffffffffffffffffffff1663b72e717d856040518263ffffffff1660e01b8152600401611b3691906160e9565b60006040518083038186803b158015611b4e57600080fd5b505afa158015611b62573d6000803e3d6000fd5b505050506040513d6000823e601f3d9081017fffffffffffffffffffffffffffffffffffffffffffffffffffffffffffffffe0168201604052611ba8919081019061603c565b50945050505091506000821415611beb576040517f08c379a0000000000000000000000000000000000000000000000000000000008152600401610c0c9061624c565b8033620aae60620186a0611bfe866134be565b8560001b9650611c0c615ca5565b506040805160808101825273ffffffffffffffffffffffffffffffffffffffff8087168252858116602080840191825263ffffffff8088168587019081528782166060870190815260008f8152600a90945292879020865181549087167fffffffffffffffffffffffff00000000000000000000000000000000000000009182161782559451600190910180549251945184167801000000000000000000000000000000000000000000000000027fffffffff00000000ffffffffffffffffffffffffffffffffffffffffffffffff9590941674010000000000000000000000000000000000000000027fffffffffffffffff00000000ffffffffffffffffffffffffffffffffffffffff92909716929095169190911716939093171691909117905590517fcec6fc86ea644053f6edff1160dfe3fa5c61e7a5ef9f873f145bb03a0bd319e790611d62908a908890879061619e565b60405180910390a1611d74888a610af8565b50505050505050919050565b600b6020526000908152604090205481565b60175481565b60606002805480602002602001604051908101604052809291908181526020018280548015611dfd57602002820191906000526020600020905b815473ffffffffffffffffffffffffffffffffffffffff168152600190910190602001808311611dd2575b5050505050905090565b730a33744ee5d57d6d69944213d8e6ad80d64fdc5890565b60125463ffffffff1681565b611e336127b2565b611e3b6134f6565b611e43613509565b565b611e4d615c64565b60016000526004602052611e807fabd6e7cb50984ff9c2f3e18a2660c3353dadf4e3291deeb275dae2cd1e44fe0561287d565b90506000826001811115611e9057fe5b1415610d68576000611ea0611e07565b73ffffffffffffffffffffffffffffffffffffffff16636b6df5aa6040518163ffffffff1660e01b815260040160206040518083038186803b158015611ee557600080fd5b505afa158015611ef9573d6000803e3d6000fd5b505050506040513d601f19601f82011682018060405250810190611f1d9190616024565b9050611f4c611f4783602001516bffffffffffffffffffffffff168361264390919063ffffffff16565b613534565b6bffffffffffffffffffffffff90811660208401526040830151611f7691611f4791849116612643565b6bffffffffffffffffffffffff16604083015250919050565b601454640100000000900463ffffffff1681565b6000611fad615ca5565b506000838152600a602090815260408083208151608081018352815473ffffffffffffffffffffffffffffffffffffffff90811682526001909201549182169381019390935263ffffffff7401000000000000000000000000000000000000000082048116928401929092527801000000000000000000000000000000000000000000000000900416606082015290806120468661346d565b91509150600061205b84604001518484613483565b91505061206a87878385613558565b979650505050505050565b3360009081526010602052604090205460ff16612098576120986109ef33613699565b73ffffffffffffffffffffffffffffffffffffffff8216600090815260096020526040902054806120c957506117eb565b60006120d4826111b6565b602001516bffffffffffffffffffffffff1690506013548110156120f95750506117eb565b600c5460008381526015602090815260408083208484528252808320601690925290912081548061219c57600080612131888861371c565b6002870182905560018701819055600386015491935091506121539082613279565b600385015560018085015461216791613279565b6001850155604051889087907f14b098103235344975b17508c2391721cc9ac3f3fa2b56c7ff46f8480dfd074f90600090a350505b60006121ab846001015461137b565b9050808811156121b9578097505b818811156118b05787845560028301546121df9083906121d9908b613279565b90612643565b6002840155505050505050505050565b60035473ffffffffffffffffffffffffffffffffffffffff1681565b734fbb350052bca5417566f188eb2ebce5b19bc96490565b61222b615c64565b73ffffffffffffffffffffffffffffffffffffffff83166000908152600660209081526040808320858452909152902061123f9061287d565b61226c612a66565b73ffffffffffffffffffffffffffffffffffffffff8116612297576122926109ef61379c565b6111e6565b600080547fffffffffffffffffffffffff00000000000000000000000000000000000000001673ffffffffffffffffffffffffffffffffffffffff83169081178255604051909133917f8be0079c531659141344cd1fd0a4f28419497f9722a3daafe3b4186f6b6457e09190a350565b612310336137d3565b1561231d5761231d6127b2565b600c54600061232d826001612643565b9050612337615c35565b50600081815260166020908152604091829020825160a0810184528154815260018201549281018390526002820154938101939093526003810154606084015260040154608083015261238c575050506111e6565b612394615c84565b50600084815260156020908152604080832085845282529182902082516060810184528154808252600183015493820193909352600290910154928101929092526123e257505050506111e6565b600085815260156020908152604080832086845290915281208181556001810182905560020181905561241582846137d9565b9050600061242161220b565b73ffffffffffffffffffffffffffffffffffffffff1663075461726040518163ffffffff1660e01b815260040160206040518083038186803b15801561246657600080fd5b505afa15801561247a573d6000803e3d6000fd5b505050506040513d601f19601f8201168201806040525081019061249e9190615df1565b73ffffffffffffffffffffffffffffffffffffffff16637fa36e4088846040518363ffffffff1660e01b81526004016124d89291906161d0565b602060405180830381600087803b1580156124f257600080fd5b505af1158015612506573d6000803e3d6000fd5b505050506040513d601f19601f8201168201806040525081019061252a9190616024565b905060008061253e89848760400151613856565b9150915088887ff1116b309178aa62dcb6bf8c3b8bc2321724907c7ebf52192d14c8ce3aa9194c84846040516125759291906161d0565b60405180910390a360006125898383613279565b608088015190915061259b9082613279565b608088018190526000898152601660209081526040909120600401919091558701516125c8906001612643565b602080890182815260008b8152601690925260409091206001019190915551612637576080870151875189917fb463d19ecf455be65365092cf8e1db6934a0334cf8cd532ddf9964d01f36b5b2916126209082612643565b60405161262e9291906161d0565b60405180910390a25b50505050505050505050565b60008282111561265c5761265c6109ef60028585613b97565b50900390565b604080516024810184905260448082018490528251808303909101815260649091019091526020810180517bffffffffffffffffffffffffffffffffffffffffffffffffffffffff167f614b800a0000000000000000000000000000000000000000000000000000000017905292915050565b805160208201fd5b60006119f56017546126ed61220b565b73ffffffffffffffffffffffffffffffffffffffff166370a08231306040518263ffffffff1660e01b815260040161272591906160e9565b60206040518083038186803b15801561273d57600080fd5b505afa158015612751573d6000803e3d6000fd5b505050506040513d601f19601f820116820180604052508101906121d99190616024565b4260006127806119dc565b905081811115612797576127976109ef8284613c33565b600c546000906127a8906001613279565b600c555050600d55565b3360009081526001602052604090205460ff16611e4357611e436109ef33613ca6565b606063b9588e4360e01b8383604051602401808360018111156127f457fe5b815273ffffffffffffffffffffffffffffffffffffffff90921660208084019190915260408051808503830181529381019052820180517bffffffffffffffffffffffffffffffffffffffffffffffffffffffff167fffffffff000000000000000000000000000000000000000000000000000000009095169490941790935295945050505050565b612885615c64565b5060408051606081018252825467ffffffffffffffff81168083526bffffffffffffffffffffffff680100000000000000008304811660208501527401000000000000000000000000000000000000000090920490911692820192909252600c54909181111561291d576128f881613d29565b67ffffffffffffffff16825260408201516bffffffffffffffffffffffff1660208301525b50919050565b6000818310612932578161123f565b5090919050565b604080516024810184905260448082018490528251808303909101815260649091019091526020810180517bffffffffffffffffffffffffffffffffffffffffffffffffffffffff167f84c8b7c90000000000000000000000000000000000000000000000000000000017905292915050565b6129b4615c64565b6129bd8361287d565b90506129e7611f478383604001516bffffffffffffffffffffffff1661264390919063ffffffff16565b6bffffffffffffffffffffffff90811660408301526020820151612a1091611f47911684612643565b6bffffffffffffffffffffffff1660208201526111b18382613d49565b6000818152600a602052604090205473ffffffffffffffffffffffffffffffffffffffff163381146117eb576117eb6109ef3384613e03565b60005473ffffffffffffffffffffffffffffffffffffffff163314611e4357600054611e43906109ef90339073ffffffffffffffffffffffffffffffffffffffff16613e8b565b73ffffffffffffffffffffffffffffffffffffffff8116612ad357612ad36109ef613f17565b73ffffffffffffffffffffffffffffffffffffffff811660009081526001602052604090205460ff1615612b0d57612b0d6109ef82613f4e565b73ffffffffffffffffffffffffffffffffffffffff8116600081815260016020819052604080832080547fffffffffffffffffffffffffffffffffffffffffffffffffffffffffffffff00168317905560028054928301815583527f405787fa12a823e0f2b7631cc41b3ba8828b3321ca811111fa75cd3aa3bb5ace90910180547fffffffffffffffffffffffff00000000000000000000000000000000000000001684179055513392917f3147867c59d17e8fa9d522465651d44aae0a9e38f902f3475b97e58072f0ed4c91a350565b612be783613fd1565b612bf18383613295565b73ffffffffffffffffffffffffffffffffffffffff821660009081526006602090815260408083208684529091529020612c2b9082614008565b6000838152600760205260409020612c439082614008565b600160005260046020526111b17fabd6e7cb50984ff9c2f3e18a2660c3353dadf4e3291deeb275dae2cd1e44fe0582614008565b612c8083613fd1565b612c8a8383613295565b73ffffffffffffffffffffffffffffffffffffffff821660009081526006602090815260408083208684529091529020612cc49082614060565b6000838152600760205260409020612cdc9082614060565b600160005260046020526111b17fabd6e7cb50984ff9c2f3e18a2660c3353dadf4e3291deeb275dae2cd1e44fe0582614060565b612d1a838361409b565b15612d24576111b1565b612d2c615c64565b612d358461287d565b9050612d3f615c64565b612d488461287d565b905081604001516bffffffffffffffffffffffff16831115612d8357612d836109ef8484604001516bffffffffffffffffffffffff16612939565b6040820151612da490611f47906bffffffffffffffffffffffff1685612643565b6bffffffffffffffffffffffff908116604080850191909152820151612dcf91611f47911685613279565b6bffffffffffffffffffffffff166040820152612dec8583613d49565b612df68482613d49565b5050505050565b620f424063ffffffff82161115612e2257612e1d6109ef600085846140a2565b6111b1565b8163ffffffff168163ffffffff1611156111b1576111b16109ef600185846140a2565b6040805173ffffffffffffffffffffffffffffffffffffffff83166024808301919091528251808303909101815260449091019091526020810180517bffffffffffffffffffffffffffffffffffffffffffffffffffffffff167feb5108a200000000000000000000000000000000000000000000000000000000179052919050565b73ffffffffffffffffffffffffffffffffffffffff821660009081526001602052604090205460ff16612f0157612f016109ef83612e45565b6002548110612f1c57612f1c6109ef82600280549050614144565b8173ffffffffffffffffffffffffffffffffffffffff1660028281548110612f4057fe5b60009182526020909120015473ffffffffffffffffffffffffffffffffffffffff1614612fa257612fa26109ef60028381548110612f7a57fe5b60009182526020909120015473ffffffffffffffffffffffffffffffffffffffff16846141b7565b73ffffffffffffffffffffffffffffffffffffffff8216600090815260016020526040902080547fffffffffffffffffffffffffffffffffffffffffffffffffffffffffffffff00169055600280547fffffffffffffffffffffffffffffffffffffffffffffffffffffffffffffffff810190811061301d57fe5b6000918252602090912001546002805473ffffffffffffffffffffffffffffffffffffffff909216918390811061305057fe5b9060005260206000200160006101000a81548173ffffffffffffffffffffffffffffffffffffffff021916908373ffffffffffffffffffffffffffffffffffffffff16021790555060028054806130a357fe5b60008281526020812082017fffffffffffffffffffffffffffffffffffffffffffffffffffffffffffffffff90810180547fffffffffffffffffffffffff0000000000000000000000000000000000000000169055909101909155604051339173ffffffffffffffffffffffffffffffffffffffff8516917f1f32c1b084e2de0713b8fb16bd46bb9df710a3dbeae2f3ca93af46e016dcc6b09190a35050565b60118590556012805463ffffffff8087167fffffffffffffffffffffffffffffffffffffffffffffffffffffffff00000000928316811790935560138690556014805485831664010000000081027fffffffffffffffffffffffffffffffffffffffffffffffff00000000ffffffff9489169290951682179390931693909317905560408051898152602081019490945283810187905260608401929092526080830152517f613157dbb0e920deab8ad6ddd3805e87cbf57344b9fe780f1764790ec78975429181900360a00190a15050505050565b613221615c64565b61322a8361287d565b9050613254611f478383604001516bffffffffffffffffffffffff1661327990919063ffffffff16565b6bffffffffffffffffffffffff90811660408301526020820151612a1091611f479116845b60008282018381101561123f5761123f6109ef60008686613b97565b61329e82614243565b60006132ad8383600080613558565b73ffffffffffffffffffffffffffffffffffffffff8316600090815260066020908152604080832087845290915290209091506132e99061287d565b73ffffffffffffffffffffffffffffffffffffffff8381166000908152600660209081526040808320888452825291829020845181549286015195909301517fffffffffffffffffffffffffffffffffffffffffffffffff000000000000000090921667ffffffffffffffff909316929092177fffffffffffffffffffffffff000000000000000000000000ffffffffffffffff16680100000000000000006bffffffffffffffffffffffff95861602179092167401000000000000000000000000000000000000000093909216929092021790558015613464576133ce838261424c565b6133d661220b565b73ffffffffffffffffffffffffffffffffffffffff1663a9059cbb83836040518363ffffffff1660e01b815260040161341092919061610a565b602060405180830381600087803b15801561342a57600080fd5b505af115801561343e573d6000803e3d6000fd5b505050506040513d601f19601f820116820180604052508101906134629190615f23565b505b6111b183614288565b60008061347983614295565b9094909350915050565b60008082613493578391506134b6565b6134a763ffffffff8616620f4240866142a1565b91506134b38483612643565b90505b935093915050565b6000818152600a602052604090205473ffffffffffffffffffffffffffffffffffffffff16156111e6576111e66109ef8260006142c5565b6134fe614339565b42600d556001600c55565b61351161434e565b62127500620dbba068056bc75e2d6310000060026003612df68585858585613143565b806bffffffffffffffffffffffff81168114610d6857610d686109ef6002846143b3565b600c54600090613566615c64565b5073ffffffffffffffffffffffffffffffffffffffff851660009081526006602090815260408083208984528252918290208251606081018452905467ffffffffffffffff81168083526bffffffffffffffffffffffff680100000000000000008304811694840194909452740100000000000000000000000000000000000000009091049092169281019290925282141561360757600092505050613691565b61361381838787614445565b81519093506000906136309067ffffffffffffffff166001613279565b90506136686136618984602001516bffffffffffffffffffffffff16856000015167ffffffffffffffff16856144c2565b8590613279565b935061368b6136618984604001516bffffffffffffffffffffffff1684876144c2565b93505050505b949350505050565b6040805173ffffffffffffffffffffffffffffffffffffffff83166024808301919091528251808303909101815260449091019091526020810180517bffffffffffffffffffffffffffffffffffffffffffffffffffffffff167f61ecb80200000000000000000000000000000000000000000000000000000000179052919050565b6000828152600a60205260408120548190819061374f9073ffffffffffffffffffffffffffffffffffffffff1686612223565b602001516bffffffffffffffffffffffff16905061376d8482612643565b6012549093506137929061378b9063ffffffff16620f42408661455b565b8290613279565b9150509250929050565b60408051808201909152600481527fe69edc3e00000000000000000000000000000000000000000000000000000000602082015290565b3b151590565b81516000906137e757611242565b60006137f6846020015161137b565b84516020860151606086015160145493945061382a938593928492909163ffffffff8082169164010000000090041661456b565b6080840151845191935060009161384091612643565b90508281101561384e578092505b505092915050565b600080613861615ca5565b506000858152600a60209081526040918290208251608081018452815473ffffffffffffffffffffffffffffffffffffffff90811682526001909201549182169281019290925263ffffffff74010000000000000000000000000000000000000000820481169383018490527801000000000000000000000000000000000000000000000000909104166060820152906138fc908686613483565b90935091508215613b7357806020015173ffffffffffffffffffffffffffffffffffffffff16816000015173ffffffffffffffffffffffffffffffffffffffff1614156139f95761394b61220b565b81516040517fa9059cbb00000000000000000000000000000000000000000000000000000000815273ffffffffffffffffffffffffffffffffffffffff929092169163a9059cbb916139a191879060040161610a565b602060405180830381600087803b1580156139bb57600080fd5b505af11580156139cf573d6000803e3d6000fd5b505050506040513d601f19601f820116820180604052508101906139f39190615f23565b50613b73565b6000613a2b620f424063ffffffff16613a25846060015163ffffffff168761462d90919063ffffffff16565b9061465e565b9050613a3561220b565b73ffffffffffffffffffffffffffffffffffffffff1663a9059cbb8360200151836040518363ffffffff1660e01b8152600401613a7392919061610a565b602060405180830381600087803b158015613a8d57600080fd5b505af1158015613aa1573d6000803e3d6000fd5b505050506040513d601f19601f82011682018060405250810190613ac59190615f23565b50613ace61220b565b73ffffffffffffffffffffffffffffffffffffffff1663a9059cbb8360000151613b01848861264390919063ffffffff16565b6040518363ffffffff1660e01b8152600401613b1e92919061610a565b602060405180830381600087803b158015613b3857600080fd5b505af1158015613b4c573d6000803e3d6000fd5b505050506040513d601f19601f82011682018060405250810190613b709190615f23565b50505b8115613b8e57613b838683614688565b613b8e8683866146bd565b50935093915050565b606063e946c1bb60e01b84848460405160240180846003811115613bb757fe5b81526020018381526020018281526020019350505050604051602081830303815290604052907bffffffffffffffffffffffffffffffffffffffffffffffffffffffff19166020820180517bffffffffffffffffffffffffffffffffffffffffffffffffffffffff838183161783525050505090509392505050565b604080516024810184905260448082018490528251808303909101815260649091019091526020810180517bffffffffffffffffffffffffffffffffffffffffffffffffffffffff167fa6bcde470000000000000000000000000000000000000000000000000000000017905292915050565b6040805173ffffffffffffffffffffffffffffffffffffffff83166024808301919091528251808303909101815260449091019091526020810180517bffffffffffffffffffffffffffffffffffffffffffffffffffffffff167fb65a25b900000000000000000000000000000000000000000000000000000000179052919050565b8067ffffffffffffffff81168114610d6857610d686109ef6001846143b3565b8051825460408301516020909301516bffffffffffffffffffffffff90811668010000000000000000027fffffffffffffffffffffffff000000000000000000000000ffffffffffffffff91909416740100000000000000000000000000000000000000000273ffffffffffffffffffffffffffffffffffffffff67ffffffffffffffff9094167fffffffffffffffffffffffffffffffffffffffffffffffff000000000000000090931692909217929092161716179055565b6040805173ffffffffffffffffffffffffffffffffffffffff8416602482015260448082018490528251808303909101815260649091019091526020810180517bffffffffffffffffffffffffffffffffffffffffffffffffffffffff167f82ded7850000000000000000000000000000000000000000000000000000000017905292915050565b6040805173ffffffffffffffffffffffffffffffffffffffff808516602483015283166044808301919091528251808303909101815260649091019091526020810180517bffffffffffffffffffffffffffffffffffffffffffffffffffffffff167f1de45ad10000000000000000000000000000000000000000000000000000000017905292915050565b60408051808201909152600481527f57654fe400000000000000000000000000000000000000000000000000000000602082015290565b6040805173ffffffffffffffffffffffffffffffffffffffff83166024808301919091528251808303909101815260449091019091526020810180517bffffffffffffffffffffffffffffffffffffffffffffffffffffffff167fde16f1a000000000000000000000000000000000000000000000000000000000179052919050565b6000818152600a602052604090205473ffffffffffffffffffffffffffffffffffffffff166111e6576111e66109ef8260006142c5565b614010615c64565b6140198361287d565b9050614043611f478383604001516bffffffffffffffffffffffff1661264390919063ffffffff16565b6bffffffffffffffffffffffff1660408201526111b18382613d49565b614068615c64565b6140718361287d565b9050614043611f478383604001516bffffffffffffffffffffffff1661327990919063ffffffff16565b1460011690565b60606322df959760e01b848484604051602401808460018111156140c257fe5b81526020018381526020018263ffffffff1681526020019350505050604051602081830303815290604052907bffffffffffffffffffffffffffffffffffffffffffffffffffffffff19166020820180517bffffffffffffffffffffffffffffffffffffffffffffffffffffffff838183161783525050505090509392505050565b604080516024810184905260448082018490528251808303909101815260649091019091526020810180517bffffffffffffffffffffffffffffffffffffffffffffffffffffffff167fe9f837710000000000000000000000000000000000000000000000000000000017905292915050565b6040805173ffffffffffffffffffffffffffffffffffffffff808516602483015283166044808301919091528251808303909101815260649091019091526020810180517bffffffffffffffffffffffffffffffffffffffffffffffffffffffff167f140a84db0000000000000000000000000000000000000000000000000000000017905292915050565b6111e6816147a6565b6000828152600b60205260409020546142659082612643565b6000838152600b60205260409020556017546142819082612643565b6017555050565b6111e681600060016146bd565b600080613479836147af565b600061369183613a256142b5826001612643565b6142bf888761462d565b90613279565b60408051602481019390935290151560448084019190915281518084039091018152606490920190526020810180517bffffffffffffffffffffffffffffffffffffffffffffffffffffffff167f9ae94f010000000000000000000000000000000000000000000000000000000017905290565b600d5415611e4357611e436109ef600061486c565b60115415801590614366575060125463ffffffff1615155b8015614373575060135415155b8015614386575060145463ffffffff1615155b80156143a15750601454640100000000900463ffffffff1615155b15611e4357611e436109ef600161486c565b606063c996af7b60e01b8383604051602401808360028111156143d257fe5b81526020808201939093526040805180830385018152918101905291820180517bffffffffffffffffffffffffffffffffffffffffffffffffffffffff167fffffffff00000000000000000000000000000000000000000000000000000000909516949094179093529250505092915050565b6000821580614452575081155b1561445f57506000613691565b600061446c856001612643565b865167ffffffffffffffff16101561448857856040015161448e565b85602001515b6bffffffffffffffffffffffff169050806144ad576000915050613691565b6144b884848361455b565b9695505050505050565b60008315806144d057508183145b156144dd57506000613691565b818310614516576040517f08c379a0000000000000000000000000000000000000000000000000000000008152600401610c0c90616283565b61451e615ccc565b6145288685614912565b9050614532615ccc565b61453c8785614912565b905061206a81600001518260200151846000015185602001518a614a29565b600061369183613a25868561462d565b6000806145788888614a97565b905060006145868787614a97565b9050811580614593575080155b156145a35760009250505061206a565b6000818313156145bc576145b78284614ae9565b6145c6565b6145c68383614ae9565b90506145ef6145ea6145d783614b08565b8863ffffffff168863ffffffff166151aa565b6151b9565b905081831315614608576146038282614ae9565b614612565b61461282826157a3565b905061461e818c6157cf565b9b9a5050505050505050505050565b60008261463c57506000611242565b8282028284828161464957fe5b041461123f5761123f6109ef60018686613b97565b600081614674576146746109ef60038585613b97565b600082848161467f57fe5b04949350505050565b6000828152600b60205260409020546146a19082613279565b6000838152600b60205260409020556017546142819082613279565b6000838152600f6020526040902054600c54808214156146de5750506111b1565b6146e6615ccc565b506000858152600e60209081526040808320858452825291829020825180840190935280548352600101549082015261471d615ccc565b61472682615811565b1561475f5761473f82600001518360200151888861581a565b60208301819052818352614753919061586a565b6020830152815261476a565b602081018590528581525b6000878152600e6020908152604080832086845282528083208451815593820151600190940193909355978152600f9097529095205550505050565b6111e681615893565b60008060006147ca6001600c5461264390919063ffffffff16565b90506147d4615c84565b50600084815260156020908152604080832084845282528083208151606080820184528254825260018084015483870152600293840154838601528787526016865295849020845160a081018652815481529681015495870195909552918401549285019290925260038301549084015260049091015460808301529061485c9082906137d9565b9350806040015192505050915091565b60607f0b02d7730000000000000000000000000000000000000000000000000000000082600181111561489b57fe5b604051602401808260ff168152602001915050604051602081830303815290604052907bffffffffffffffffffffffffffffffffffffffffffffffffffffffff19166020820180517bffffffffffffffffffffffffffffffffffffffffffffffffffffffff83818316178352505050509050919050565b61491a615ccc565b506000828152600e60209081526040808320848452825291829020825180840190935280548352600101549082015261495281615811565b1561495c57611242565b6000614969836001612643565b6000858152600e602090815260408083208484528252918290208251808401909352805483526001015490820152925090506149a482615811565b156149af5750611242565b6000848152600f602052604090205483811015614a0b576000858152600e60209081526040808320848452825291829020825180840190935280548352600101549082015292506149ff83615811565b15614a0b575050611242565b50506040805180820190915260008152600160208201529392505050565b600081614a3857506000614a8e565b83614a5257614a4b85613a25848961462d565b9050614a8e565b6000614a6b614a61868861462d565b6121d9898761462d565b90506000614a79828661465e565b9050614a8987613a25868461462d565b925050505b95945050505050565b600080831215614aaf57614aaf6109ef600185615901565b6000821215614ac657614ac66109ef600184615901565b61123f614ae3846f800000000000000000000000000000006159ae565b83615a01565b600061123f614ae3846f800000000000000000000000000000006159ae565b60006f80000000000000000000000000000000821315614b3057614b306109ef600184615a82565b60008213614b4657614b466109ef600084615a82565b6f80000000000000000000000000000000821415614b6657506000610d68565b640733048c5a8213614b9957507fffffffffffffffffffffffffffffffe010000000000000000000000000000000610d68565b60008060006a01c8464f761647600000008513614bf8577ffffffffffffffffffffffffffffffff000000000000000000000000000000000909301926a01c8464f761647600000006f8000000000000000000000000000000086020594505b6cf1aaddd7742e900000000000008513614c56577ffffffffffffffffffffffffffffffff800000000000000000000000000000000909301926cf1aaddd7742e900000000000006f8000000000000000000000000000000086020594505b6e0afe10820813d780000000000000008513614cb8577ffffffffffffffffffffffffffffffffc00000000000000000000000000000000909301926e0afe10820813d780000000000000006f8000000000000000000000000000000086020594505b6f02582ab704279ec000000000000000008513614d1c577ffffffffffffffffffffffffffffffffe00000000000000000000000000000000909301926f02582ab704279ec000000000000000006f8000000000000000000000000000000086020594505b6f1152aaa3bf81cc0000000000000000008513614d80577fffffffffffffffffffffffffffffffff00000000000000000000000000000000909301926f1152aaa3bf81cc0000000000000000006f8000000000000000000000000000000086020594505b6f2f16ac6c59de700000000000000000008513614de4577fffffffffffffffffffffffffffffffff80000000000000000000000000000000909301926f2f16ac6c59de700000000000000000006f8000000000000000000000000000000086020594505b6f4da2cbf1be58280000000000000000008513614e48577fffffffffffffffffffffffffffffffffc0000000000000000000000000000000909301926f4da2cbf1be58280000000000000000006f8000000000000000000000000000000086020594505b6f63afbe7ab2082c0000000000000000008513614eac577fffffffffffffffffffffffffffffffffe0000000000000000000000000000000909301926f63afbe7ab2082c0000000000000000006f8000000000000000000000000000000086020594505b6f70f5a893b608861e1f58934f97aea57d8513614f10577ffffffffffffffffffffffffffffffffff0000000000000000000000000000000909301926f70f5a893b608861e1f58934f97aea57d6f8000000000000000000000000000000086020594505b7fffffffffffffffffffffffffffffffff80000000000000000000000000000000850192508291506f80000000000000000000000000000000828002059050700100000000000000000000000000000000838103830205840193506f8000000000000000000000000000000081830281614f8657fe5b059150700200000000000000000000000000000000836faaaaaaaaaaaaaaaaaaaaaaaaaaaaaaaa03830281614fb757fe5b05840193506f8000000000000000000000000000000081830281614fd757fe5b059150700300000000000000000000000000000000836f999999999999999999999999999999990383028161500857fe5b05840193506f800000000000000000000000000000008183028161502857fe5b059150700400000000000000000000000000000000836f924924924924924924924924924924920383028161505957fe5b05840193506f800000000000000000000000000000008183028161507957fe5b059150700500000000000000000000000000000000836f8e38e38e38e38e38e38e38e38e38e38e038302816150aa57fe5b05840193506f80000000000000000000000000000000818302816150ca57fe5b059150700600000000000000000000000000000000836f8ba2e8ba2e8ba2e8ba2e8ba2e8ba2e8b038302816150fb57fe5b05840193506f800000000000000000000000000000008183028161511b57fe5b059150700700000000000000000000000000000000836f89d89d89d89d89d89d89d89d89d89d890383028161514c57fe5b05840193506f800000000000000000000000000000008183028161516c57fe5b059150700800000000000000000000000000000000836f888888888888888888888888888888880383028161519d57fe5b0584019350505050919050565b6000613691614ae385856159ae565b60007fffffffffffffffffffffffffffffffe0100000000000000000000000000000008212156151eb57506000610d68565b8161520757506f80000000000000000000000000000000610d68565b600082131561521e5761521e6109ef600184615a82565b6f800000000000000000000000000000006f1000000000000000000000000000000083078080028290056710e1b3be415a0000810293909301929091818302059050806705a0913f6b1e000002830192506f800000000000000000000000000000008282028161528a57fe5b05905080670168244fdac7800002830192506f80000000000000000000000000000000828202816152b757fe5b05905080664807432bc1800002830192506f80000000000000000000000000000000828202816152e357fe5b05905080660c0135dca0400002830192506f800000000000000000000000000000008282028161530f57fe5b059050806601b707b1cdc00002830192506f800000000000000000000000000000008282028161533b57fe5b059050806536e0f639b80002830192506f800000000000000000000000000000008282028161536657fe5b05905080650618fee9f80002830192506f800000000000000000000000000000008282028161539157fe5b05905080649c197dcc0002830192506f80000000000000000000000000000000828202816153bb57fe5b05905080640e30dce40002830192506f80000000000000000000000000000000828202816153e557fe5b0590508064012ebd130002830192506f800000000000000000000000000000008282028161540f57fe5b059050806317499f0002830192506f800000000000000000000000000000008282028161543857fe5b059050806301a9d48002830192506f800000000000000000000000000000008282028161546157fe5b05905080621c638002830192506f800000000000000000000000000000008282028161548957fe5b059050806201c63802830192506f80000000000000000000000000000000828202816154b157fe5b05905080611ab802830192506f80000000000000000000000000000000828202816154d857fe5b0590508061017c02830192506f80000000000000000000000000000000828202816154ff57fe5b05905080601402830192506f800000000000000000000000000000008282028161552557fe5b600095909503946721c3677c82b400009190059384010582016f8000000000000000000000000000000001929050701000000000000000000000000000000000841615615594577243cbaf42a000812488fc5c220ad7b97bf6e99e6cf1aaddd7742e56d32fb9f9974484020592505b7008000000000000000000000000000000008416156155d6577105d27a9f51c31b7c2f8038212a05747799916e0afe10820813d65dfe6a33c07f738f84020592505b70040000000000000000000000000000000084161561561857701b4c902e273a58678d6d3bfdb93db96d026f02582ab704279e8efd15e0265855c47a84020592505b70020000000000000000000000000000000084161561565a577003b1cc971a9bb5b9867477440d6d1577506f1152aaa3bf81cb9fdb76eae12d02957184020592505b70010000000000000000000000000000000084161561569c5770015bf0a8b1457695355fb8ac404e7a79e36f2f16ac6c59de6f8d5d6f63c1482a7c8684020592505b6f800000000000000000000000000000008416156156dc576fd3094c70f034de4b96ff7d5b6f99fcd86f4da2cbf1be5827f9eb3ad1aa9866ebb384020592505b6f4000000000000000000000000000000084161561571c576fa45af1e1f40c333b3de1db4dd55f29a76f63afbe7ab2082ba1a0ae5e4eb1b479dc84020592505b6f2000000000000000000000000000000084161561575c576f910b022db7ae67ce76b441c27035c6a16f70f5a893b608861e1f58934f97aea57d84020592505b6f1000000000000000000000000000000084161561579c576f88415abbe9a76bead8d00cf112e4d4a86f783eafef1c0a8f3978c7f81824d62ebf84020592505b5050919050565b60006f800000000000000000000000000000006157c084846159ae565b816157c757fe5b059392505050565b6000808212156157e7576157e76109ef600184615901565b60006157f384846159ae565b905060008113615807576000915050611242565b607f1c9392505050565b60200151151590565b6000808561582c575082905081615861565b8361583b575084905083615861565b615852615848858761462d565b6142bf888661462d565b915061585e858461462d565b90505b94509492505050565b60008061588884846f80000000000000000000000000000000615ab1565b915091509250929050565b600c546000906158a4906001612643565b90506158ae615c84565b5060008281526015602090815260408083208484528252918290208251606081018452815480825260018301549382019390935260029091015492810192909252156111b1576111b16109ef8484615b0d565b60607fbd79545f0000000000000000000000000000000000000000000000000000000083600181111561593057fe5b6040805160ff9092166024830152604480830186905281518084039091018152606490920190526020810180517bffffffffffffffffffffffffffffffffffffffffffffffffffffffff167fffffffff0000000000000000000000000000000000000000000000000000000090931692909217909152905092915050565b60008215806159bb575081155b156159c857506000611242565b50818102818382816159d657fe5b051415806159ed5750828282816159e957fe5b0514155b15611242576112426109ef60018585615b80565b600081615a1757615a176109ef60028585615b80565b7f800000000000000000000000000000000000000000000000000000000000000083148015615a655750817fffffffffffffffffffffffffffffffffffffffffffffffffffffffffffffffff145b15615a7957615a796109ef60038585615b80565b8183816157c757fe5b60607fed2f26a10000000000000000000000000000000000000000000000000000000083600181111561593057fe5b60008082851180615ac157508284115b15615b0457600084861015615ad65784615ad8565b855b9050615ae4818561465e565b9050615af0868261465e565b9250615afc858261465e565b9150506134b6565b50929391925050565b604080516024810184905260448082018490528251808303909101815260649091019091526020810180517bffffffffffffffffffffffffffffffffffffffffffffffffffffffff167f5caa0b050000000000000000000000000000000000000000000000000000000017905292915050565b60607f8c12dfe700000000000000000000000000000000000000000000000000000000846003811115615baf57fe5b6040805160ff909216602483015260448201869052606480830186905281518084039091018152608490920190526020810180517bffffffffffffffffffffffffffffffffffffffffffffffffffffffff167fffffffff000000000000000000000000000000000000000000000000000000009093169290921790915290509392505050565b6040518060a0016040528060008152602001600081526020016000815260200160008152602001600081525090565b604080516060810182526000808252602082018190529181019190915290565b60405180606001604052806000815260200160008152602001600081525090565b60408051608081018252600080825260208201819052918101829052606081019190915290565b604051806040016040528060008152602001600081525090565b803560028110610d6857600080fd5b600082601f830112615d05578081fd5b815167ffffffffffffffff80821115615d1a57fe5b6040516020807fffffffffffffffffffffffffffffffffffffffffffffffffffffffffffffffe0601f8601168301018281108482111715615d5757fe5b80604052508194508382528681858801011115615d7357600080fd5b600092505b83831015615d955785830181015182840182015291820191615d78565b83831115615da65760008185840101525b5050505092915050565b60006040828403121561291d578081fd5b803563ffffffff81168114610d6857600080fd5b600060208284031215615de6578081fd5b813561123f81616430565b600060208284031215615e02578081fd5b815161123f81616430565b60008060408385031215615e1f578081fd5b8235615e2a81616430565b946020939093013593505050565b60008060408385031215615e4a578182fd5b8235615e5581616430565b9150615e6360208401615ce6565b90509250929050565b60008060008060008060c08789031215615e84578182fd5b8651615e8f81616430565b602088015190965067ffffffffffffffff80821115615eac578384fd5b615eb88a838b01615cf5565b96506040890151915080821115615ecd578384fd5b50615eda89828a01615cf5565b945050606087015192506080870151615ef281616430565b60a0880151909250615f0381616430565b809150509295509295509295565b60008060408385031215615e1f578182fd5b600060208284031215615f34578081fd5b8151801515811461123f578182fd5b600060208284031215615f54578081fd5b5035919050565b60008060408385031215615f6d578182fd5b823591506020830135615f7f81616430565b809150509250929050565b60008060408385031215615f9c578182fd5b50508035926020909101359150565b60008060408385031215615fbd578182fd5b82359150615e6360208401615dc1565b600060208284031215615fde578081fd5b61123f82615ce6565b600080600060a08486031215615ffb578283fd5b6160058585615db0565b92506160148560408601615db0565b9150608084013590509250925092565b600060208284031215616035578081fd5b5051919050565b60008060008060008060c08789031215616054578384fd5b86519550602087015167ffffffffffffffff80821115616072578586fd5b61607e8a838b01615cf5565b96506040890151915080821115615ecd578586fd5b600080600080600060a086880312156160aa578283fd5b853594506160ba60208701615dc1565b9350604086013592506160cf60608701615dc1565b91506160dd60808701615dc1565b90509295509295909350565b73ffffffffffffffffffffffffffffffffffffffff91909116815260200190565b73ffffffffffffffffffffffffffffffffffffffff929092168252602082015260400190565b6020808252825182820181905260009190848201906040850190845b8181101561617e57835173ffffffffffffffffffffffffffffffffffffffff168352928401929184019160010161614c565b50909695505050505050565b901515815260200190565b90815260200190565b92835273ffffffffffffffffffffffffffffffffffffffff91909116602083015263ffffffff16604082015260600190565b918252602082015260400190565b6020808252601c908201527f4e4f4e5f524547495354455245445f504f4f4c5f49445f4552524f5200000000604082015260600190565b6020808252601b908201527f504f4f4c5f544f5f4a4f494e5f4e4f545f53454c465f4552524f520000000000604082015260600190565b6020808252601c908201527f4e4f4e5f524547495354455245445f52425f504f4f4c5f4552524f5200000000604082015260600190565b60208082526013908201527f43525f494e54455256414c5f494e56414c494400000000000000000000000000604082015260600190565b81518152602080830151908201526040918201519181019190915260600190565b600060808201905073ffffffffffffffffffffffffffffffffffffffff80845116835280602085015116602084015250604083015163ffffffff8082166040850152806060860151166060850152505092915050565b815167ffffffffffffffff1681526020808301516bffffffffffffffffffffffff90811691830191909152604092830151169181019190915260600190565b9283526020830191909152604082015260600190565b93845260208401929092526040830152606082015260800190565b948552602085019390935260408401919091526060830152608082015260a00190565b94855263ffffffff938416602086015260408501929092528216606084015216608082015260a00190565b92835260ff918216602084015216604082015260600190565b63ffffffff91909116815260200190565b63ffffffff92831681529116602082015260400190565b73ffffffffffffffffffffffffffffffffffffffff811681146111e657600080fdfea2646970667358221220c25b7345a38fb7fefe3c911086f876e42091d46611745396172a399ccf95998664736f6c63430007040033",
				"opcodes": "PUSH1 0x80 PUSH1 0x40 MSTORE CALLVALUE DUP1 ISZERO PUSH2 0x10 JUMPI PUSH1 0x0 DUP1 REVERT JUMPDEST POP PUSH1 0x0 DUP1 SLOAD PUSH1 0x1 PUSH1 0x1 PUSH1 0xA0 SHL SUB NOT AND CALLER OR SWAP1 SSTORE PUSH2 0x6488 DUP1 PUSH3 0x33 PUSH1 0x0 CODECOPY PUSH1 0x0 RETURN INVALID PUSH1 0x80 PUSH1 0x40 MSTORE PUSH1 0x4 CALLDATASIZE LT PUSH2 0x34A JUMPI PUSH1 0x0 CALLDATALOAD PUSH1 0xE0 SHR DUP1 PUSH4 0x8DA5CB5B GT PUSH2 0x1BB JUMPI DUP1 PUSH4 0xD14DC231 GT PUSH2 0xF7 JUMPI DUP1 PUSH4 0xE907F003 GT PUSH2 0x95 JUMPI DUP1 PUSH4 0xEF4BA680 GT PUSH2 0x6F JUMPI DUP1 PUSH4 0xEF4BA680 EQ PUSH2 0x940 JUMPI DUP1 PUSH4 0xF252B7A1 EQ PUSH2 0x955 JUMPI DUP1 PUSH4 0xF2FDE38B EQ PUSH2 0x975 JUMPI DUP1 PUSH4 0xFF691B11 EQ PUSH2 0x995 JUMPI PUSH2 0x34A JUMP JUMPDEST DUP1 PUSH4 0xE907F003 EQ PUSH2 0x8F8 JUMPI DUP1 PUSH4 0xECC128F2 EQ PUSH2 0x918 JUMPI DUP1 PUSH4 0xEE99205C EQ PUSH2 0x92B JUMPI PUSH2 0x34A JUMP JUMPDEST DUP1 PUSH4 0xE0EE036E GT PUSH2 0xD1 JUMPI DUP1 PUSH4 0xE0EE036E EQ PUSH2 0x899 JUMPI DUP1 PUSH4 0xE1C7392A EQ PUSH2 0x8AE JUMPI DUP1 PUSH4 0xE804D0A4 EQ PUSH2 0x8C3 JUMPI DUP1 PUSH4 0xE8EEB3F8 EQ PUSH2 0x8E3 JUMPI PUSH2 0x34A JUMP JUMPDEST DUP1 PUSH4 0xD14DC231 EQ PUSH2 0x84D JUMPI DUP1 PUSH4 0xD39DE6E9 EQ PUSH2 0x862 JUMPI DUP1 PUSH4 0xE0822DB7 EQ PUSH2 0x884 JUMPI PUSH2 0x34A JUMP JUMPDEST DUP1 PUSH4 0xB2BAA33E GT PUSH2 0x164 JUMPI DUP1 PUSH4 0xB9181611 GT PUSH2 0x13E JUMPI DUP1 PUSH4 0xB9181611 EQ PUSH2 0x7CD JUMPI DUP1 PUSH4 0xBB7EF7E0 EQ PUSH2 0x7ED JUMPI DUP1 PUSH4 0xBE111AF4 EQ PUSH2 0x80D JUMPI DUP1 PUSH4 0xC18C9141 EQ PUSH2 0x82D JUMPI PUSH2 0x34A JUMP JUMPDEST DUP1 PUSH4 0xB2BAA33E EQ PUSH2 0x783 JUMPI DUP1 PUSH4 0xB510879F EQ PUSH2 0x798 JUMPI DUP1 PUSH4 0xB652B41F EQ PUSH2 0x7B8 JUMPI PUSH2 0x34A JUMP JUMPDEST DUP1 PUSH4 0xA26171E2 GT PUSH2 0x195 JUMPI DUP1 PUSH4 0xA26171E2 EQ PUSH2 0x739 JUMPI DUP1 PUSH4 0xA657E579 EQ PUSH2 0x74E JUMPI DUP1 PUSH4 0xA694FC3A EQ PUSH2 0x763 JUMPI PUSH2 0x34A JUMP JUMPDEST DUP1 PUSH4 0x8DA5CB5B EQ PUSH2 0x6E4 JUMPI DUP1 PUSH4 0x9AD26744 EQ PUSH2 0x6F9 JUMPI DUP1 PUSH4 0x9C3CCC82 EQ PUSH2 0x719 JUMPI PUSH2 0x34A JUMP JUMPDEST DUP1 PUSH4 0x494503D4 GT PUSH2 0x28A JUMPI DUP1 PUSH4 0x5D91121D GT PUSH2 0x233 JUMPI DUP1 PUSH4 0x70712939 GT PUSH2 0x20D JUMPI DUP1 PUSH4 0x70712939 EQ PUSH2 0x66D JUMPI DUP1 PUSH4 0x76671808 EQ PUSH2 0x68D JUMPI DUP1 PUSH4 0x7FA140C7 EQ PUSH2 0x6A2 JUMPI DUP1 PUSH4 0x81666796 EQ PUSH2 0x6C2 JUMPI PUSH2 0x34A JUMP JUMPDEST DUP1 PUSH4 0x5D91121D EQ PUSH2 0x612 JUMPI DUP1 PUSH4 0x5E615A6B EQ PUSH2 0x632 JUMPI DUP1 PUSH4 0x63403801 EQ PUSH2 0x658 JUMPI PUSH2 0x34A JUMP JUMPDEST DUP1 PUSH4 0x57A15C03 GT PUSH2 0x264 JUMPI DUP1 PUSH4 0x57A15C03 EQ PUSH2 0x5BD JUMPI DUP1 PUSH4 0x587DA023 EQ PUSH2 0x5DD JUMPI DUP1 PUSH4 0x58F6C7E3 EQ PUSH2 0x5F2 JUMPI PUSH2 0x34A JUMP JUMPDEST DUP1 PUSH4 0x494503D4 EQ PUSH2 0x536 JUMPI DUP1 PUSH4 0x4BCC3F67 EQ PUSH2 0x563 JUMPI DUP1 PUSH4 0x540C2D53 EQ PUSH2 0x590 JUMPI PUSH2 0x34A JUMP JUMPDEST DUP1 PUSH4 0x36D7DD8E GT PUSH2 0x2F7 JUMPI DUP1 PUSH4 0x3E4AD732 GT PUSH2 0x2D1 JUMPI DUP1 PUSH4 0x3E4AD732 EQ PUSH2 0x49C JUMPI DUP1 PUSH4 0x42F1181E EQ PUSH2 0x4C9 JUMPI DUP1 PUSH4 0x44A6958B EQ PUSH2 0x4E9 JUMPI DUP1 PUSH4 0x46B97959 EQ PUSH2 0x509 JUMPI PUSH2 0x34A JUMP JUMPDEST DUP1 PUSH4 0x36D7DD8E EQ PUSH2 0x42B JUMPI DUP1 PUSH4 0x38229D93 EQ PUSH2 0x44B JUMPI DUP1 PUSH4 0x3A832382 EQ PUSH2 0x47C JUMPI PUSH2 0x34A JUMP JUMPDEST DUP1 PUSH4 0x1F81EB80 GT PUSH2 0x328 JUMPI DUP1 PUSH4 0x1F81EB80 EQ PUSH2 0x3BC JUMPI DUP1 PUSH4 0x2A94C279 EQ PUSH2 0x3DC JUMPI DUP1 PUSH4 0x2E17DE78 EQ PUSH2 0x40B JUMPI PUSH2 0x34A JUMP JUMPDEST DUP1 PUSH4 0xB9663DB EQ PUSH2 0x34F JUMPI DUP1 PUSH4 0x1A67A0A0 EQ PUSH2 0x37A JUMPI DUP1 PUSH4 0x1E7FF8F6 EQ PUSH2 0x39C JUMPI JUMPDEST PUSH1 0x0 DUP1 REVERT JUMPDEST CALLVALUE DUP1 ISZERO PUSH2 0x35B JUMPI PUSH1 0x0 DUP1 REVERT JUMPDEST POP PUSH2 0x364 PUSH2 0x9B5 JUMP JUMPDEST PUSH1 0x40 MLOAD PUSH2 0x371 SWAP2 SWAP1 PUSH2 0x6195 JUMP JUMPDEST PUSH1 0x40 MLOAD DUP1 SWAP2 SUB SWAP1 RETURN JUMPDEST CALLVALUE DUP1 ISZERO PUSH2 0x386 JUMPI PUSH1 0x0 DUP1 REVERT JUMPDEST POP PUSH2 0x39A PUSH2 0x395 CALLDATASIZE PUSH1 0x4 PUSH2 0x5F5B JUMP JUMPDEST PUSH2 0xAF8 JUMP JUMPDEST STOP JUMPDEST CALLVALUE DUP1 ISZERO PUSH2 0x3A8 JUMPI PUSH1 0x0 DUP1 REVERT JUMPDEST POP PUSH2 0x364 PUSH2 0x3B7 CALLDATASIZE PUSH1 0x4 PUSH2 0x5DD5 JUMP JUMPDEST PUSH2 0xCD3 JUMP JUMPDEST CALLVALUE DUP1 ISZERO PUSH2 0x3C8 JUMPI PUSH1 0x0 DUP1 REVERT JUMPDEST POP PUSH2 0x39A PUSH2 0x3D7 CALLDATASIZE PUSH1 0x4 PUSH2 0x5DD5 JUMP JUMPDEST PUSH2 0xD6D JUMP JUMPDEST CALLVALUE DUP1 ISZERO PUSH2 0x3E8 JUMPI PUSH1 0x0 DUP1 REVERT JUMPDEST POP PUSH2 0x3FC PUSH2 0x3F7 CALLDATASIZE PUSH1 0x4 PUSH2 0x5F8A JUMP JUMPDEST PUSH2 0xE37 JUMP JUMPDEST PUSH1 0x40 MLOAD PUSH2 0x371 SWAP4 SWAP3 SWAP2 SWAP1 PUSH2 0x6370 JUMP JUMPDEST CALLVALUE DUP1 ISZERO PUSH2 0x417 JUMPI PUSH1 0x0 DUP1 REVERT JUMPDEST POP PUSH2 0x39A PUSH2 0x426 CALLDATASIZE PUSH1 0x4 PUSH2 0x5F43 JUMP JUMPDEST PUSH2 0xE63 JUMP JUMPDEST CALLVALUE DUP1 ISZERO PUSH2 0x437 JUMPI PUSH1 0x0 DUP1 REVERT JUMPDEST POP PUSH2 0x39A PUSH2 0x446 CALLDATASIZE PUSH1 0x4 PUSH2 0x5DD5 JUMP JUMPDEST PUSH2 0x1018 JUMP JUMPDEST CALLVALUE DUP1 ISZERO PUSH2 0x457 JUMPI PUSH1 0x0 DUP1 REVERT JUMPDEST POP PUSH2 0x46B PUSH2 0x466 CALLDATASIZE PUSH1 0x4 PUSH2 0x5F43 JUMP JUMPDEST PUSH2 0x10DE JUMP JUMPDEST PUSH1 0x40 MLOAD PUSH2 0x371 SWAP6 SWAP5 SWAP4 SWAP3 SWAP2 SWAP1 PUSH2 0x63A1 JUMP JUMPDEST CALLVALUE DUP1 ISZERO PUSH2 0x488 JUMPI PUSH1 0x0 DUP1 REVERT JUMPDEST POP PUSH2 0x39A PUSH2 0x497 CALLDATASIZE PUSH1 0x4 PUSH2 0x5F5B JUMP JUMPDEST PUSH2 0x110D JUMP JUMPDEST CALLVALUE DUP1 ISZERO PUSH2 0x4A8 JUMPI PUSH1 0x0 DUP1 REVERT JUMPDEST POP PUSH2 0x4BC PUSH2 0x4B7 CALLDATASIZE PUSH1 0x4 PUSH2 0x5F43 JUMP JUMPDEST PUSH2 0x11B6 JUMP JUMPDEST PUSH1 0x40 MLOAD PUSH2 0x371 SWAP2 SWAP1 PUSH2 0x6331 JUMP JUMPDEST CALLVALUE DUP1 ISZERO PUSH2 0x4D5 JUMPI PUSH1 0x0 DUP1 REVERT JUMPDEST POP PUSH2 0x39A PUSH2 0x4E4 CALLDATASIZE PUSH1 0x4 PUSH2 0x5DD5 JUMP JUMPDEST PUSH2 0x11D5 JUMP JUMPDEST CALLVALUE DUP1 ISZERO PUSH2 0x4F5 JUMPI PUSH1 0x0 DUP1 REVERT JUMPDEST POP PUSH2 0x4BC PUSH2 0x504 CALLDATASIZE PUSH1 0x4 PUSH2 0x5E38 JUMP JUMPDEST PUSH2 0x11E9 JUMP JUMPDEST CALLVALUE DUP1 ISZERO PUSH2 0x515 JUMPI PUSH1 0x0 DUP1 REVERT JUMPDEST POP PUSH2 0x529 PUSH2 0x524 CALLDATASIZE PUSH1 0x4 PUSH2 0x5F43 JUMP JUMPDEST PUSH2 0x1248 JUMP JUMPDEST PUSH1 0x40 MLOAD PUSH2 0x371 SWAP2 SWAP1 PUSH2 0x62BA JUMP JUMPDEST CALLVALUE DUP1 ISZERO PUSH2 0x542 JUMPI PUSH1 0x0 DUP1 REVERT JUMPDEST POP PUSH2 0x556 PUSH2 0x551 CALLDATASIZE PUSH1 0x4 PUSH2 0x5F43 JUMP JUMPDEST PUSH2 0x1293 JUMP JUMPDEST PUSH1 0x40 MLOAD PUSH2 0x371 SWAP2 SWAP1 PUSH2 0x60E9 JUMP JUMPDEST CALLVALUE DUP1 ISZERO PUSH2 0x56F JUMPI PUSH1 0x0 DUP1 REVERT JUMPDEST POP PUSH2 0x583 PUSH2 0x57E CALLDATASIZE PUSH1 0x4 PUSH2 0x5F43 JUMP JUMPDEST PUSH2 0x12CA JUMP JUMPDEST PUSH1 0x40 MLOAD PUSH2 0x371 SWAP2 SWAP1 PUSH2 0x62DB JUMP JUMPDEST CALLVALUE DUP1 ISZERO PUSH2 0x59C JUMPI PUSH1 0x0 DUP1 REVERT JUMPDEST POP PUSH2 0x5B0 PUSH2 0x5AB CALLDATASIZE PUSH1 0x4 PUSH2 0x5DD5 JUMP JUMPDEST PUSH2 0x1366 JUMP JUMPDEST PUSH1 0x40 MLOAD PUSH2 0x371 SWAP2 SWAP1 PUSH2 0x618A JUMP JUMPDEST CALLVALUE DUP1 ISZERO PUSH2 0x5C9 JUMPI PUSH1 0x0 DUP1 REVERT JUMPDEST POP PUSH2 0x364 PUSH2 0x5D8 CALLDATASIZE PUSH1 0x4 PUSH2 0x5F43 JUMP JUMPDEST PUSH2 0x137B JUMP JUMPDEST CALLVALUE DUP1 ISZERO PUSH2 0x5E9 JUMPI PUSH1 0x0 DUP1 REVERT JUMPDEST POP PUSH2 0x364 PUSH2 0x143A JUMP JUMPDEST CALLVALUE DUP1 ISZERO PUSH2 0x5FE JUMPI PUSH1 0x0 DUP1 REVERT JUMPDEST POP PUSH2 0x39A PUSH2 0x60D CALLDATASIZE PUSH1 0x4 PUSH2 0x5FE7 JUMP JUMPDEST PUSH2 0x1440 JUMP JUMPDEST CALLVALUE DUP1 ISZERO PUSH2 0x61E JUMPI PUSH1 0x0 DUP1 REVERT JUMPDEST POP PUSH2 0x39A PUSH2 0x62D CALLDATASIZE PUSH1 0x4 PUSH2 0x5FAB JUMP JUMPDEST PUSH2 0x163C JUMP JUMPDEST CALLVALUE DUP1 ISZERO PUSH2 0x63E JUMPI PUSH1 0x0 DUP1 REVERT JUMPDEST POP PUSH2 0x647 PUSH2 0x170B JUMP JUMPDEST PUSH1 0x40 MLOAD PUSH2 0x371 SWAP6 SWAP5 SWAP4 SWAP3 SWAP2 SWAP1 PUSH2 0x63C4 JUMP JUMPDEST CALLVALUE DUP1 ISZERO PUSH2 0x664 JUMPI PUSH1 0x0 DUP1 REVERT JUMPDEST POP PUSH2 0x364 PUSH2 0x1734 JUMP JUMPDEST CALLVALUE DUP1 ISZERO PUSH2 0x679 JUMPI PUSH1 0x0 DUP1 REVERT JUMPDEST POP PUSH2 0x39A PUSH2 0x688 CALLDATASIZE PUSH1 0x4 PUSH2 0x5DD5 JUMP JUMPDEST PUSH2 0x173A JUMP JUMPDEST CALLVALUE DUP1 ISZERO PUSH2 0x699 JUMPI PUSH1 0x0 DUP1 REVERT JUMPDEST POP PUSH2 0x364 PUSH2 0x17EF JUMP JUMPDEST CALLVALUE DUP1 ISZERO PUSH2 0x6AE JUMPI PUSH1 0x0 DUP1 REVERT JUMPDEST POP PUSH2 0x364 PUSH2 0x6BD CALLDATASIZE PUSH1 0x4 PUSH2 0x5DD5 JUMP JUMPDEST PUSH2 0x17F5 JUMP JUMPDEST CALLVALUE DUP1 ISZERO PUSH2 0x6CE JUMPI PUSH1 0x0 DUP1 REVERT JUMPDEST POP PUSH2 0x6D7 PUSH2 0x1807 JUMP JUMPDEST PUSH1 0x40 MLOAD PUSH2 0x371 SWAP2 SWAP1 PUSH2 0x6408 JUMP JUMPDEST CALLVALUE DUP1 ISZERO PUSH2 0x6F0 JUMPI PUSH1 0x0 DUP1 REVERT JUMPDEST POP PUSH2 0x556 PUSH2 0x1813 JUMP JUMPDEST CALLVALUE DUP1 ISZERO PUSH2 0x705 JUMPI PUSH1 0x0 DUP1 REVERT JUMPDEST POP PUSH2 0x39A PUSH2 0x714 CALLDATASIZE PUSH1 0x4 PUSH2 0x5F11 JUMP JUMPDEST PUSH2 0x182F JUMP JUMPDEST CALLVALUE DUP1 ISZERO PUSH2 0x725 JUMPI PUSH1 0x0 DUP1 REVERT JUMPDEST POP PUSH2 0x39A PUSH2 0x734 CALLDATASIZE PUSH1 0x4 PUSH2 0x6093 JUMP JUMPDEST PUSH2 0x1841 JUMP JUMPDEST CALLVALUE DUP1 ISZERO PUSH2 0x745 JUMPI PUSH1 0x0 DUP1 REVERT JUMPDEST POP PUSH2 0x364 PUSH2 0x18BB JUMP JUMPDEST CALLVALUE DUP1 ISZERO PUSH2 0x75A JUMPI PUSH1 0x0 DUP1 REVERT JUMPDEST POP PUSH2 0x364 PUSH2 0x18C1 JUMP JUMPDEST CALLVALUE DUP1 ISZERO PUSH2 0x76F JUMPI PUSH1 0x0 DUP1 REVERT JUMPDEST POP PUSH2 0x39A PUSH2 0x77E CALLDATASIZE PUSH1 0x4 PUSH2 0x5F43 JUMP JUMPDEST PUSH2 0x18C7 JUMP JUMPDEST CALLVALUE DUP1 ISZERO PUSH2 0x78F JUMPI PUSH1 0x0 DUP1 REVERT JUMPDEST POP PUSH2 0x364 PUSH2 0x19DC JUMP JUMPDEST CALLVALUE DUP1 ISZERO PUSH2 0x7A4 JUMPI PUSH1 0x0 DUP1 REVERT JUMPDEST POP PUSH2 0x39A PUSH2 0x7B3 CALLDATASIZE PUSH1 0x4 PUSH2 0x5F43 JUMP JUMPDEST PUSH2 0x19FA JUMP JUMPDEST CALLVALUE DUP1 ISZERO PUSH2 0x7C4 JUMPI PUSH1 0x0 DUP1 REVERT JUMPDEST POP PUSH2 0x556 PUSH2 0x1A04 JUMP JUMPDEST CALLVALUE DUP1 ISZERO PUSH2 0x7D9 JUMPI PUSH1 0x0 DUP1 REVERT JUMPDEST POP PUSH2 0x5B0 PUSH2 0x7E8 CALLDATASIZE PUSH1 0x4 PUSH2 0x5DD5 JUMP JUMPDEST PUSH2 0x1A1C JUMP JUMPDEST CALLVALUE DUP1 ISZERO PUSH2 0x7F9 JUMPI PUSH1 0x0 DUP1 REVERT JUMPDEST POP PUSH2 0x364 PUSH2 0x808 CALLDATASIZE PUSH1 0x4 PUSH2 0x5F43 JUMP JUMPDEST PUSH2 0x1A31 JUMP JUMPDEST CALLVALUE DUP1 ISZERO PUSH2 0x819 JUMPI PUSH1 0x0 DUP1 REVERT JUMPDEST POP PUSH2 0x364 PUSH2 0x828 CALLDATASIZE PUSH1 0x4 PUSH2 0x5DD5 JUMP JUMPDEST PUSH2 0x1AF1 JUMP JUMPDEST CALLVALUE DUP1 ISZERO PUSH2 0x839 JUMPI PUSH1 0x0 DUP1 REVERT JUMPDEST POP PUSH2 0x364 PUSH2 0x848 CALLDATASIZE PUSH1 0x4 PUSH2 0x5F43 JUMP JUMPDEST PUSH2 0x1D80 JUMP JUMPDEST CALLVALUE DUP1 ISZERO PUSH2 0x859 JUMPI PUSH1 0x0 DUP1 REVERT JUMPDEST POP PUSH2 0x364 PUSH2 0x1D92 JUMP JUMPDEST CALLVALUE DUP1 ISZERO PUSH2 0x86E JUMPI PUSH1 0x0 DUP1 REVERT JUMPDEST POP PUSH2 0x877 PUSH2 0x1D98 JUMP JUMPDEST PUSH1 0x40 MLOAD PUSH2 0x371 SWAP2 SWAP1 PUSH2 0x6130 JUMP JUMPDEST CALLVALUE DUP1 ISZERO PUSH2 0x890 JUMPI PUSH1 0x0 DUP1 REVERT JUMPDEST POP PUSH2 0x556 PUSH2 0x1E07 JUMP JUMPDEST CALLVALUE DUP1 ISZERO PUSH2 0x8A5 JUMPI PUSH1 0x0 DUP1 REVERT JUMPDEST POP PUSH2 0x6D7 PUSH2 0x1E1F JUMP JUMPDEST CALLVALUE DUP1 ISZERO PUSH2 0x8BA JUMPI PUSH1 0x0 DUP1 REVERT JUMPDEST POP PUSH2 0x39A PUSH2 0x1E2B JUMP JUMPDEST CALLVALUE DUP1 ISZERO PUSH2 0x8CF JUMPI PUSH1 0x0 DUP1 REVERT JUMPDEST POP PUSH2 0x4BC PUSH2 0x8DE CALLDATASIZE PUSH1 0x4 PUSH2 0x5FCD JUMP JUMPDEST PUSH2 0x1E45 JUMP JUMPDEST CALLVALUE DUP1 ISZERO PUSH2 0x8EF JUMPI PUSH1 0x0 DUP1 REVERT JUMPDEST POP PUSH2 0x6D7 PUSH2 0x1F8F JUMP JUMPDEST CALLVALUE DUP1 ISZERO PUSH2 0x904 JUMPI PUSH1 0x0 DUP1 REVERT JUMPDEST POP PUSH2 0x364 PUSH2 0x913 CALLDATASIZE PUSH1 0x4 PUSH2 0x5F5B JUMP JUMPDEST PUSH2 0x1FA3 JUMP JUMPDEST PUSH2 0x39A PUSH2 0x926 CALLDATASIZE PUSH1 0x4 PUSH2 0x5F11 JUMP JUMPDEST PUSH2 0x2075 JUMP JUMPDEST CALLVALUE DUP1 ISZERO PUSH2 0x937 JUMPI PUSH1 0x0 DUP1 REVERT JUMPDEST POP PUSH2 0x556 PUSH2 0x21EF JUMP JUMPDEST CALLVALUE DUP1 ISZERO PUSH2 0x94C JUMPI PUSH1 0x0 DUP1 REVERT JUMPDEST POP PUSH2 0x556 PUSH2 0x220B JUMP JUMPDEST CALLVALUE DUP1 ISZERO PUSH2 0x961 JUMPI PUSH1 0x0 DUP1 REVERT JUMPDEST POP PUSH2 0x4BC PUSH2 0x970 CALLDATASIZE PUSH1 0x4 PUSH2 0x5E0D JUMP JUMPDEST PUSH2 0x2223 JUMP JUMPDEST CALLVALUE DUP1 ISZERO PUSH2 0x981 JUMPI PUSH1 0x0 DUP1 REVERT JUMPDEST POP PUSH2 0x39A PUSH2 0x990 CALLDATASIZE PUSH1 0x4 PUSH2 0x5DD5 JUMP JUMPDEST PUSH2 0x2264 JUMP JUMPDEST CALLVALUE DUP1 ISZERO PUSH2 0x9A1 JUMPI PUSH1 0x0 DUP1 REVERT JUMPDEST POP PUSH2 0x39A PUSH2 0x9B0 CALLDATASIZE PUSH1 0x4 PUSH2 0x5F43 JUMP JUMPDEST PUSH2 0x2307 JUMP JUMPDEST PUSH1 0xC SLOAD PUSH1 0x0 SWAP1 DUP2 PUSH2 0x9C7 DUP3 PUSH1 0x1 PUSH2 0x2643 JUMP JUMPDEST PUSH1 0x0 DUP2 DUP2 MSTORE PUSH1 0x16 PUSH1 0x20 MSTORE PUSH1 0x40 SWAP1 KECCAK256 PUSH1 0x1 ADD SLOAD SWAP1 SWAP2 POP DUP1 ISZERO PUSH2 0x9F4 JUMPI PUSH2 0x9F4 PUSH2 0x9EF DUP4 DUP4 PUSH2 0x2662 JUMP JUMPDEST PUSH2 0x26D5 JUMP JUMPDEST PUSH2 0x9FC PUSH2 0x26DD JUMP JUMPDEST PUSH1 0x0 DUP5 DUP2 MSTORE PUSH1 0x16 PUSH1 0x20 MSTORE PUSH1 0x40 SWAP1 KECCAK256 SSTORE PUSH2 0xA13 PUSH2 0x5C35 JUMP JUMPDEST POP PUSH1 0x0 DUP4 DUP2 MSTORE PUSH1 0x16 PUSH1 0x20 SWAP1 DUP2 MSTORE PUSH1 0x40 SWAP2 DUP3 SWAP1 KECCAK256 DUP3 MLOAD PUSH1 0xA0 DUP2 ADD DUP5 MSTORE DUP2 SLOAD DUP1 DUP3 MSTORE PUSH1 0x1 DUP4 ADD SLOAD SWAP4 DUP3 ADD DUP5 SWAP1 MSTORE PUSH1 0x2 DUP4 ADD SLOAD DUP3 DUP7 ADD DUP2 SWAP1 MSTORE PUSH1 0x3 DUP5 ADD SLOAD PUSH1 0x60 DUP5 ADD DUP2 SWAP1 MSTORE PUSH1 0x4 SWAP1 SWAP5 ADD SLOAD PUSH1 0x80 DUP5 ADD MSTORE SWAP5 MLOAD SWAP2 SWAP5 DUP9 SWAP5 PUSH32 0xBB4A26FA0ACE13EE4DA343896C20EAA44A618FB9071FDD8C2E2C960A4583189D SWAP5 PUSH2 0xA95 SWAP5 SWAP2 SWAP4 SWAP3 SWAP2 PUSH2 0x6386 JUMP JUMPDEST PUSH1 0x40 MLOAD DUP1 SWAP2 SUB SWAP1 LOG2 PUSH2 0xAA5 PUSH2 0x2775 JUMP JUMPDEST PUSH1 0x20 DUP2 ADD MLOAD PUSH2 0xAEC JUMPI DUP1 MLOAD PUSH1 0x40 MLOAD DUP6 SWAP2 PUSH32 0xB463D19ECF455BE65365092CF8E1DB6934A0334CF8CD532DDF9964D01F36B5B2 SWAP2 PUSH2 0xAE3 SWAP2 PUSH1 0x0 SWAP2 PUSH2 0x61D0 JUMP JUMPDEST PUSH1 0x40 MLOAD DUP1 SWAP2 SUB SWAP1 LOG2 JUMPDEST PUSH1 0x20 ADD MLOAD SWAP4 POP POP POP POP SWAP1 JUMP JUMPDEST PUSH1 0x0 DUP1 PUSH2 0xB03 PUSH2 0x1A04 JUMP JUMPDEST PUSH1 0x40 MLOAD PUSH32 0xC277F1AC00000000000000000000000000000000000000000000000000000000 DUP2 MSTORE PUSH20 0xFFFFFFFFFFFFFFFFFFFFFFFFFFFFFFFFFFFFFFFF SWAP2 SWAP1 SWAP2 AND SWAP1 PUSH4 0xC277F1AC SWAP1 PUSH2 0xB57 SWAP1 DUP8 SWAP1 PUSH1 0x4 ADD PUSH2 0x6195 JUMP JUMPDEST PUSH1 0x0 PUSH1 0x40 MLOAD DUP1 DUP4 SUB DUP2 DUP7 DUP1 EXTCODESIZE ISZERO DUP1 ISZERO PUSH2 0xB6F JUMPI PUSH1 0x0 DUP1 REVERT JUMPDEST POP GAS STATICCALL ISZERO DUP1 ISZERO PUSH2 0xB83 JUMPI RETURNDATASIZE PUSH1 0x0 DUP1 RETURNDATACOPY RETURNDATASIZE PUSH1 0x0 REVERT JUMPDEST POP POP POP POP PUSH1 0x40 MLOAD RETURNDATASIZE PUSH1 0x0 DUP3 RETURNDATACOPY PUSH1 0x1F RETURNDATASIZE SWAP1 DUP2 ADD PUSH32 0xFFFFFFFFFFFFFFFFFFFFFFFFFFFFFFFFFFFFFFFFFFFFFFFFFFFFFFFFFFFFFFE0 AND DUP3 ADD PUSH1 0x40 MSTORE PUSH2 0xBC9 SWAP2 SWAP1 DUP2 ADD SWAP1 PUSH2 0x5E6C JUMP JUMPDEST POP POP SWAP4 POP POP POP SWAP2 POP PUSH1 0x0 DUP2 EQ ISZERO PUSH2 0xC15 JUMPI PUSH1 0x40 MLOAD PUSH32 0x8C379A000000000000000000000000000000000000000000000000000000000 DUP2 MSTORE PUSH1 0x4 ADD PUSH2 0xC0C SWAP1 PUSH2 0x61DE JUMP JUMPDEST PUSH1 0x40 MLOAD DUP1 SWAP2 SUB SWAP1 REVERT JUMPDEST DUP3 PUSH20 0xFFFFFFFFFFFFFFFFFFFFFFFFFFFFFFFFFFFFFFFF AND DUP3 PUSH20 0xFFFFFFFFFFFFFFFFFFFFFFFFFFFFFFFFFFFFFFFF AND EQ PUSH2 0xC7A JUMPI PUSH1 0x40 MLOAD PUSH32 0x8C379A000000000000000000000000000000000000000000000000000000000 DUP2 MSTORE PUSH1 0x4 ADD PUSH2 0xC0C SWAP1 PUSH2 0x6215 JUMP JUMPDEST PUSH20 0xFFFFFFFFFFFFFFFFFFFFFFFFFFFFFFFFFFFFFFFF DUP1 DUP4 AND PUSH1 0x0 SWAP1 DUP2 MSTORE PUSH1 0x9 PUSH1 0x20 MSTORE PUSH1 0x40 DUP1 DUP3 KECCAK256 DUP8 SWAP1 SSTORE MLOAD DUP7 SWAP3 DUP7 AND SWAP2 PUSH32 0xE8B9F7EE7A4480D45B60E98F7B2090DD82E2353B8557A6EE2DD2D5EE9196BAC2 SWAP2 LOG3 POP POP POP POP JUMP JUMPDEST PUSH1 0x0 PUSH2 0xCDD PUSH2 0x1E07 JUMP JUMPDEST PUSH20 0xFFFFFFFFFFFFFFFFFFFFFFFFFFFFFFFFFFFFFFFF AND PUSH4 0x70A08231 DUP4 PUSH1 0x40 MLOAD DUP3 PUSH4 0xFFFFFFFF AND PUSH1 0xE0 SHL DUP2 MSTORE PUSH1 0x4 ADD PUSH2 0xD15 SWAP2 SWAP1 PUSH2 0x60E9 JUMP JUMPDEST PUSH1 0x20 PUSH1 0x40 MLOAD DUP1 DUP4 SUB DUP2 DUP7 DUP1 EXTCODESIZE ISZERO DUP1 ISZERO PUSH2 0xD2D JUMPI PUSH1 0x0 DUP1 REVERT JUMPDEST POP GAS STATICCALL ISZERO DUP1 ISZERO PUSH2 0xD41 JUMPI RETURNDATASIZE PUSH1 0x0 DUP1 RETURNDATACOPY RETURNDATASIZE PUSH1 0x0 REVERT JUMPDEST POP POP POP POP PUSH1 0x40 MLOAD RETURNDATASIZE PUSH1 0x1F NOT PUSH1 0x1F DUP3 ADD AND DUP3 ADD DUP1 PUSH1 0x40 MSTORE POP DUP2 ADD SWAP1 PUSH2 0xD65 SWAP2 SWAP1 PUSH2 0x6024 JUMP JUMPDEST SWAP1 POP JUMPDEST SWAP2 SWAP1 POP JUMP JUMPDEST PUSH2 0xD75 PUSH2 0x27B2 JUMP JUMPDEST PUSH20 0xFFFFFFFFFFFFFFFFFFFFFFFFFFFFFFFFFFFFFFFF DUP2 AND PUSH1 0x0 SWAP1 DUP2 MSTORE PUSH1 0x10 PUSH1 0x20 MSTORE PUSH1 0x40 SWAP1 KECCAK256 SLOAD PUSH1 0xFF AND ISZERO PUSH2 0xDB1 JUMPI PUSH2 0xDB1 PUSH2 0x9EF PUSH1 0x0 DUP4 PUSH2 0x27D5 JUMP JUMPDEST PUSH20 0xFFFFFFFFFFFFFFFFFFFFFFFFFFFFFFFFFFFFFFFF DUP2 AND PUSH1 0x0 DUP2 DUP2 MSTORE PUSH1 0x10 PUSH1 0x20 SWAP1 DUP2 MSTORE PUSH1 0x40 SWAP2 DUP3 SWAP1 KECCAK256 DUP1 SLOAD PUSH32 0xFFFFFFFFFFFFFFFFFFFFFFFFFFFFFFFFFFFFFFFFFFFFFFFFFFFFFFFFFFFFFF00 AND PUSH1 0x1 OR SWAP1 SSTORE DUP2 MLOAD SWAP3 DUP4 MSTORE SWAP1 MLOAD PUSH32 0x5738EE3C8E8FE8B0B9C4C21B16FDCA42EC02E271237DFEABBF3B5AF1584D732B SWAP3 DUP2 SWAP1 SUB SWAP1 SWAP2 ADD SWAP1 LOG1 POP JUMP JUMPDEST PUSH1 0x15 PUSH1 0x20 SWAP1 DUP2 MSTORE PUSH1 0x0 SWAP3 DUP4 MSTORE PUSH1 0x40 DUP1 DUP5 KECCAK256 SWAP1 SWAP2 MSTORE SWAP1 DUP3 MSTORE SWAP1 KECCAK256 DUP1 SLOAD PUSH1 0x1 DUP3 ADD SLOAD PUSH1 0x2 SWAP1 SWAP3 ADD SLOAD SWAP1 SWAP2 SWAP1 DUP4 JUMP JUMPDEST CALLER PUSH2 0xE6C PUSH2 0x5C64 JUMP JUMPDEST PUSH20 0xFFFFFFFFFFFFFFFFFFFFFFFFFFFFFFFFFFFFFFFF DUP3 AND PUSH1 0x0 SWAP1 DUP2 MSTORE PUSH32 0x5B8CCBB9D4D8FB16EA74CE3C29A41F1B461FBDAFF4714A0D9A8EB05499746BC PUSH1 0x20 MSTORE PUSH1 0x40 SWAP1 KECCAK256 PUSH2 0xEB9 SWAP1 PUSH2 0x287D JUMP JUMPDEST SWAP1 POP PUSH1 0x0 PUSH2 0xEEB DUP3 PUSH1 0x20 ADD MLOAD PUSH12 0xFFFFFFFFFFFFFFFFFFFFFFFF AND DUP4 PUSH1 0x40 ADD MLOAD PUSH12 0xFFFFFFFFFFFFFFFFFFFFFFFF AND PUSH2 0x2923 JUMP JUMPDEST SWAP1 POP DUP1 DUP5 GT ISZERO PUSH2 0xF02 JUMPI PUSH2 0xF02 PUSH2 0x9EF DUP6 DUP4 PUSH2 0x2939 JUMP JUMPDEST PUSH20 0xFFFFFFFFFFFFFFFFFFFFFFFFFFFFFFFFFFFFFFFF DUP4 AND PUSH1 0x0 SWAP1 DUP2 MSTORE PUSH32 0x5B8CCBB9D4D8FB16EA74CE3C29A41F1B461FBDAFF4714A0D9A8EB05499746BC PUSH1 0x20 MSTORE PUSH1 0x40 SWAP1 KECCAK256 PUSH2 0xF50 SWAP1 DUP6 PUSH2 0x29AC JUMP JUMPDEST PUSH2 0xF58 PUSH2 0x1E07 JUMP JUMPDEST PUSH20 0xFFFFFFFFFFFFFFFFFFFFFFFFFFFFFFFFFFFFFFFF AND PUSH4 0x9470B0BD DUP5 DUP7 PUSH1 0x40 MLOAD DUP4 PUSH4 0xFFFFFFFF AND PUSH1 0xE0 SHL DUP2 MSTORE PUSH1 0x4 ADD PUSH2 0xF92 SWAP3 SWAP2 SWAP1 PUSH2 0x610A JUMP JUMPDEST PUSH1 0x0 PUSH1 0x40 MLOAD DUP1 DUP4 SUB DUP2 PUSH1 0x0 DUP8 DUP1 EXTCODESIZE ISZERO DUP1 ISZERO PUSH2 0xFAC JUMPI PUSH1 0x0 DUP1 REVERT JUMPDEST POP GAS CALL ISZERO DUP1 ISZERO PUSH2 0xFC0 JUMPI RETURNDATASIZE PUSH1 0x0 DUP1 RETURNDATACOPY RETURNDATASIZE PUSH1 0x0 REVERT JUMPDEST POP POP POP POP DUP3 PUSH20 0xFFFFFFFFFFFFFFFFFFFFFFFFFFFFFFFFFFFFFFFF AND PUSH32 0x85082129D87B2FE11527CB1B3B7A520AEB5AA6913F88A3D8757FE40D1DB02FDD DUP6 PUSH1 0x40 MLOAD PUSH2 0x100A SWAP2 SWAP1 PUSH2 0x6195 JUMP JUMPDEST PUSH1 0x40 MLOAD DUP1 SWAP2 SUB SWAP1 LOG2 POP POP POP POP JUMP JUMPDEST PUSH2 0x1020 PUSH2 0x27B2 JUMP JUMPDEST PUSH20 0xFFFFFFFFFFFFFFFFFFFFFFFFFFFFFFFFFFFFFFFF DUP2 AND PUSH1 0x0 SWAP1 DUP2 MSTORE PUSH1 0x10 PUSH1 0x20 MSTORE PUSH1 0x40 SWAP1 KECCAK256 SLOAD PUSH1 0xFF AND PUSH2 0x105B JUMPI PUSH2 0x105B PUSH2 0x9EF PUSH1 0x1 DUP4 PUSH2 0x27D5 JUMP JUMPDEST PUSH20 0xFFFFFFFFFFFFFFFFFFFFFFFFFFFFFFFFFFFFFFFF DUP2 AND PUSH1 0x0 DUP2 DUP2 MSTORE PUSH1 0x10 PUSH1 0x20 SWAP1 DUP2 MSTORE PUSH1 0x40 SWAP2 DUP3 SWAP1 KECCAK256 DUP1 SLOAD PUSH32 0xFFFFFFFFFFFFFFFFFFFFFFFFFFFFFFFFFFFFFFFFFFFFFFFFFFFFFFFFFFFFFF00 AND SWAP1 SSTORE DUP2 MLOAD SWAP3 DUP4 MSTORE SWAP1 MLOAD PUSH32 0x9BF55462CB5FA187F725D06DE0A70BC01C4E40695570BDC25AD116F9BE46BDA7 SWAP3 DUP2 SWAP1 SUB SWAP1 SWAP2 ADD SWAP1 LOG1 POP JUMP JUMPDEST PUSH1 0x16 PUSH1 0x20 MSTORE PUSH1 0x0 SWAP1 DUP2 MSTORE PUSH1 0x40 SWAP1 KECCAK256 DUP1 SLOAD PUSH1 0x1 DUP3 ADD SLOAD PUSH1 0x2 DUP4 ADD SLOAD PUSH1 0x3 DUP5 ADD SLOAD PUSH1 0x4 SWAP1 SWAP5 ADD SLOAD SWAP3 SWAP4 SWAP2 SWAP3 SWAP1 SWAP2 SWAP1 DUP6 JUMP JUMPDEST DUP2 PUSH2 0x1117 DUP2 PUSH2 0x2A2D JUMP JUMPDEST PUSH1 0x0 DUP4 DUP2 MSTORE PUSH1 0xA PUSH1 0x20 MSTORE PUSH1 0x40 SWAP1 KECCAK256 PUSH20 0xFFFFFFFFFFFFFFFFFFFFFFFFFFFFFFFFFFFFFFFF DUP4 AND ISZERO DUP1 PUSH2 0x1164 JUMPI POP PUSH1 0x1 DUP2 ADD SLOAD PUSH20 0xFFFFFFFFFFFFFFFFFFFFFFFFFFFFFFFFFFFFFFFF DUP5 DUP2 AND SWAP2 AND EQ JUMPDEST ISZERO PUSH2 0x116F JUMPI POP PUSH2 0x11B1 JUMP JUMPDEST PUSH1 0x1 ADD DUP1 SLOAD PUSH32 0xFFFFFFFFFFFFFFFFFFFFFFFF0000000000000000000000000000000000000000 AND PUSH20 0xFFFFFFFFFFFFFFFFFFFFFFFFFFFFFFFFFFFFFFFF DUP5 AND OR SWAP1 SSTORE JUMPDEST POP POP POP JUMP JUMPDEST PUSH2 0x11BE PUSH2 0x5C64 JUMP JUMPDEST PUSH1 0x0 DUP3 DUP2 MSTORE PUSH1 0x7 PUSH1 0x20 MSTORE PUSH1 0x40 SWAP1 KECCAK256 PUSH2 0xD65 SWAP1 PUSH2 0x287D JUMP JUMPDEST PUSH2 0x11DD PUSH2 0x2A66 JUMP JUMPDEST PUSH2 0x11E6 DUP2 PUSH2 0x2AAD JUMP JUMPDEST POP JUMP JUMPDEST PUSH2 0x11F1 PUSH2 0x5C64 JUMP JUMPDEST PUSH2 0x123F PUSH1 0x5 PUSH1 0x0 DUP5 PUSH1 0x1 DUP2 GT ISZERO PUSH2 0x1204 JUMPI INVALID JUMPDEST PUSH1 0xFF AND DUP2 MSTORE PUSH1 0x20 DUP1 DUP3 ADD SWAP3 SWAP1 SWAP3 MSTORE PUSH1 0x40 SWAP1 DUP2 ADD PUSH1 0x0 SWAP1 DUP2 KECCAK256 PUSH20 0xFFFFFFFFFFFFFFFFFFFFFFFFFFFFFFFFFFFFFFFF DUP9 AND DUP3 MSTORE SWAP1 SWAP3 MSTORE SWAP1 KECCAK256 PUSH2 0x287D JUMP JUMPDEST SWAP1 POP JUMPDEST SWAP3 SWAP2 POP POP JUMP JUMPDEST PUSH2 0x1250 PUSH2 0x5C84 JUMP JUMPDEST POP PUSH1 0x0 SWAP1 DUP2 MSTORE PUSH1 0x15 PUSH1 0x20 SWAP1 DUP2 MSTORE PUSH1 0x40 DUP1 DUP4 KECCAK256 PUSH1 0xC SLOAD DUP5 MSTORE DUP3 MSTORE SWAP2 DUP3 SWAP1 KECCAK256 DUP3 MLOAD PUSH1 0x60 DUP2 ADD DUP5 MSTORE DUP2 SLOAD DUP2 MSTORE PUSH1 0x1 DUP3 ADD SLOAD SWAP3 DUP2 ADD SWAP3 SWAP1 SWAP3 MSTORE PUSH1 0x2 ADD SLOAD SWAP2 DUP2 ADD SWAP2 SWAP1 SWAP2 MSTORE SWAP1 JUMP JUMPDEST PUSH1 0x2 DUP2 DUP2 SLOAD DUP2 LT PUSH2 0x12A3 JUMPI PUSH1 0x0 DUP1 REVERT JUMPDEST PUSH1 0x0 SWAP2 DUP3 MSTORE PUSH1 0x20 SWAP1 SWAP2 KECCAK256 ADD SLOAD PUSH20 0xFFFFFFFFFFFFFFFFFFFFFFFFFFFFFFFFFFFFFFFF AND SWAP1 POP DUP2 JUMP JUMPDEST PUSH2 0x12D2 PUSH2 0x5CA5 JUMP JUMPDEST POP PUSH1 0x0 SWAP1 DUP2 MSTORE PUSH1 0xA PUSH1 0x20 SWAP1 DUP2 MSTORE PUSH1 0x40 SWAP2 DUP3 SWAP1 KECCAK256 DUP3 MLOAD PUSH1 0x80 DUP2 ADD DUP5 MSTORE DUP2 SLOAD PUSH20 0xFFFFFFFFFFFFFFFFFFFFFFFFFFFFFFFFFFFFFFFF SWAP1 DUP2 AND DUP3 MSTORE PUSH1 0x1 SWAP1 SWAP3 ADD SLOAD SWAP2 DUP3 AND SWAP3 DUP2 ADD SWAP3 SWAP1 SWAP3 MSTORE PUSH4 0xFFFFFFFF PUSH21 0x10000000000000000000000000000000000000000 DUP3 DIV DUP2 AND SWAP4 DUP4 ADD SWAP4 SWAP1 SWAP4 MSTORE PUSH25 0x1000000000000000000000000000000000000000000000000 SWAP1 DIV SWAP1 SWAP2 AND PUSH1 0x60 DUP3 ADD MSTORE SWAP1 JUMP JUMPDEST PUSH1 0x10 PUSH1 0x20 MSTORE PUSH1 0x0 SWAP1 DUP2 MSTORE PUSH1 0x40 SWAP1 KECCAK256 SLOAD PUSH1 0xFF AND DUP2 JUMP JUMPDEST PUSH1 0x0 PUSH2 0x1385 PUSH2 0x220B JUMP JUMPDEST PUSH20 0xFFFFFFFFFFFFFFFFFFFFFFFFFFFFFFFFFFFFFFFF AND PUSH4 0x7546172 PUSH1 0x40 MLOAD DUP2 PUSH4 0xFFFFFFFF AND PUSH1 0xE0 SHL DUP2 MSTORE PUSH1 0x4 ADD PUSH1 0x20 PUSH1 0x40 MLOAD DUP1 DUP4 SUB DUP2 DUP7 DUP1 EXTCODESIZE ISZERO DUP1 ISZERO PUSH2 0x13CA JUMPI PUSH1 0x0 DUP1 REVERT JUMPDEST POP GAS STATICCALL ISZERO DUP1 ISZERO PUSH2 0x13DE JUMPI RETURNDATASIZE PUSH1 0x0 DUP1 RETURNDATACOPY RETURNDATASIZE PUSH1 0x0 REVERT JUMPDEST POP POP POP POP PUSH1 0x40 MLOAD RETURNDATASIZE PUSH1 0x1F NOT PUSH1 0x1F DUP3 ADD AND DUP3 ADD DUP1 PUSH1 0x40 MSTORE POP DUP2 ADD SWAP1 PUSH2 0x1402 SWAP2 SWAP1 PUSH2 0x5DF1 JUMP JUMPDEST PUSH20 0xFFFFFFFFFFFFFFFFFFFFFFFFFFFFFFFFFFFFFFFF AND PUSH4 0x57A15C03 DUP4 PUSH1 0x40 MLOAD DUP3 PUSH4 0xFFFFFFFF AND PUSH1 0xE0 SHL DUP2 MSTORE PUSH1 0x4 ADD PUSH2 0xD15 SWAP2 SWAP1 PUSH2 0x6195 JUMP JUMPDEST PUSH1 0xD SLOAD DUP2 JUMP JUMPDEST CALLER DUP2 PUSH2 0x144C JUMPI POP PUSH2 0x11B1 JUMP JUMPDEST PUSH1 0x0 PUSH2 0x145B PUSH1 0x20 DUP7 ADD DUP7 PUSH2 0x5FCD JUMP JUMPDEST PUSH1 0x1 DUP2 GT ISZERO PUSH2 0x1466 JUMPI INVALID JUMPDEST EQ DUP1 ISZERO PUSH2 0x148A JUMPI POP PUSH1 0x0 PUSH2 0x147D PUSH1 0x20 DUP6 ADD DUP6 PUSH2 0x5FCD JUMP JUMPDEST PUSH1 0x1 DUP2 GT ISZERO PUSH2 0x1488 JUMPI INVALID JUMPDEST EQ JUMPDEST ISZERO PUSH2 0x1495 JUMPI POP PUSH2 0x11B1 JUMP JUMPDEST PUSH1 0x1 PUSH2 0x14A4 PUSH1 0x20 DUP7 ADD DUP7 PUSH2 0x5FCD JUMP JUMPDEST PUSH1 0x1 DUP2 GT ISZERO PUSH2 0x14AF JUMPI INVALID JUMPDEST EQ ISZERO PUSH2 0x14C4 JUMPI PUSH2 0x14C4 DUP5 PUSH1 0x20 ADD CALLDATALOAD DUP3 DUP5 PUSH2 0x2BDE JUMP JUMPDEST PUSH1 0x1 PUSH2 0x14D3 PUSH1 0x20 DUP6 ADD DUP6 PUSH2 0x5FCD JUMP JUMPDEST PUSH1 0x1 DUP2 GT ISZERO PUSH2 0x14DE JUMPI INVALID JUMPDEST EQ ISZERO PUSH2 0x14F3 JUMPI PUSH2 0x14F3 DUP4 PUSH1 0x20 ADD CALLDATALOAD DUP3 DUP5 PUSH2 0x2C77 JUMP JUMPDEST PUSH1 0x0 PUSH1 0x5 DUP2 PUSH2 0x1505 PUSH1 0x20 DUP9 ADD DUP9 PUSH2 0x5FCD JUMP JUMPDEST PUSH1 0x1 DUP2 GT ISZERO PUSH2 0x1510 JUMPI INVALID JUMPDEST PUSH1 0xFF AND DUP2 MSTORE PUSH1 0x20 DUP1 DUP3 ADD SWAP3 SWAP1 SWAP3 MSTORE PUSH1 0x40 SWAP1 DUP2 ADD PUSH1 0x0 SWAP1 DUP2 KECCAK256 PUSH20 0xFFFFFFFFFFFFFFFFFFFFFFFFFFFFFFFFFFFFFFFF DUP7 AND DUP3 MSTORE DUP4 MSTORE SWAP1 DUP2 KECCAK256 SWAP3 POP SWAP1 PUSH1 0x5 SWAP1 DUP3 SWAP1 PUSH2 0x155A SWAP1 DUP9 ADD DUP9 PUSH2 0x5FCD JUMP JUMPDEST PUSH1 0x1 DUP2 GT ISZERO PUSH2 0x1565 JUMPI INVALID JUMPDEST PUSH1 0xFF AND DUP2 MSTORE PUSH1 0x20 DUP1 DUP3 ADD SWAP3 SWAP1 SWAP3 MSTORE PUSH1 0x40 SWAP1 DUP2 ADD PUSH1 0x0 SWAP1 DUP2 KECCAK256 PUSH20 0xFFFFFFFFFFFFFFFFFFFFFFFFFFFFFFFFFFFFFFFF DUP8 AND DUP3 MSTORE SWAP1 SWAP3 MSTORE SWAP1 KECCAK256 SWAP1 POP PUSH2 0x15A8 DUP3 DUP3 DUP7 PUSH2 0x2D10 JUMP JUMPDEST PUSH1 0x20 DUP1 DUP7 ADD CALLDATALOAD SWAP1 DUP8 ADD DUP1 CALLDATALOAD SWAP1 PUSH20 0xFFFFFFFFFFFFFFFFFFFFFFFFFFFFFFFFFFFFFFFF DUP7 AND SWAP1 PUSH32 0x7D3AD1DCF03B9027064D1D9A474A69E0CECC31324C541D3EB9B5E6FA2F106C8D SWAP1 DUP9 SWAP1 PUSH2 0x15FA SWAP1 DUP13 PUSH2 0x5FCD JUMP JUMPDEST PUSH1 0x1 DUP2 GT ISZERO PUSH2 0x1605 JUMPI INVALID JUMPDEST PUSH2 0x1612 PUSH1 0x20 DUP13 ADD DUP13 PUSH2 0x5FCD JUMP JUMPDEST PUSH1 0x1 DUP2 GT ISZERO PUSH2 0x161D JUMPI INVALID JUMPDEST PUSH1 0x40 MLOAD PUSH2 0x162C SWAP4 SWAP3 SWAP2 SWAP1 PUSH2 0x63EF JUMP JUMPDEST PUSH1 0x40 MLOAD DUP1 SWAP2 SUB SWAP1 LOG4 POP POP POP POP POP POP JUMP JUMPDEST DUP2 PUSH2 0x1646 DUP2 PUSH2 0x2A2D JUMP JUMPDEST PUSH1 0x0 DUP4 DUP2 MSTORE PUSH1 0xA PUSH1 0x20 MSTORE PUSH1 0x40 SWAP1 KECCAK256 PUSH1 0x1 ADD SLOAD PUSH21 0x10000000000000000000000000000000000000000 SWAP1 DIV PUSH4 0xFFFFFFFF AND PUSH2 0x1681 DUP5 DUP3 DUP6 PUSH2 0x2DFD JUMP JUMPDEST PUSH1 0x0 DUP5 DUP2 MSTORE PUSH1 0xA PUSH1 0x20 MSTORE PUSH1 0x40 SWAP1 DUP2 SWAP1 KECCAK256 PUSH1 0x1 ADD DUP1 SLOAD PUSH32 0xFFFFFFFFFFFFFFFF00000000FFFFFFFFFFFFFFFFFFFFFFFFFFFFFFFFFFFFFFFF AND PUSH21 0x10000000000000000000000000000000000000000 PUSH4 0xFFFFFFFF DUP8 AND MUL OR SWAP1 SSTORE MLOAD DUP5 SWAP1 PUSH32 0x8EA2A7A959BD25F226B7B0A4393613F7FDCAA8404E8BAD96AA52DC1C14590167 SWAP1 PUSH2 0x100A SWAP1 DUP5 SWAP1 DUP8 SWAP1 PUSH2 0x6419 JUMP JUMPDEST PUSH1 0x11 SLOAD PUSH1 0x12 SLOAD PUSH1 0x13 SLOAD PUSH1 0x14 SLOAD SWAP3 SWAP4 PUSH4 0xFFFFFFFF SWAP3 DUP4 AND SWAP4 SWAP2 SWAP3 DUP3 DUP2 AND SWAP3 PUSH5 0x100000000 SWAP1 DIV AND SWAP1 JUMP JUMPDEST PUSH1 0x11 SLOAD DUP2 JUMP JUMPDEST PUSH2 0x1742 PUSH2 0x2A66 JUMP JUMPDEST PUSH20 0xFFFFFFFFFFFFFFFFFFFFFFFFFFFFFFFFFFFFFFFF DUP2 AND PUSH1 0x0 SWAP1 DUP2 MSTORE PUSH1 0x1 PUSH1 0x20 MSTORE PUSH1 0x40 SWAP1 KECCAK256 SLOAD PUSH1 0xFF AND PUSH2 0x177B JUMPI PUSH2 0x177B PUSH2 0x9EF DUP3 PUSH2 0x2E45 JUMP JUMPDEST PUSH1 0x0 JUMPDEST PUSH1 0x2 SLOAD DUP2 LT ISZERO PUSH2 0x17EB JUMPI DUP2 PUSH20 0xFFFFFFFFFFFFFFFFFFFFFFFFFFFFFFFFFFFFFFFF AND PUSH1 0x2 DUP3 DUP2 SLOAD DUP2 LT PUSH2 0x17AC JUMPI INVALID JUMPDEST PUSH1 0x0 SWAP2 DUP3 MSTORE PUSH1 0x20 SWAP1 SWAP2 KECCAK256 ADD SLOAD PUSH20 0xFFFFFFFFFFFFFFFFFFFFFFFFFFFFFFFFFFFFFFFF AND EQ ISZERO PUSH2 0x17E3 JUMPI PUSH2 0x17DE DUP3 DUP3 PUSH2 0x2EC8 JUMP JUMPDEST PUSH2 0x17EB JUMP JUMPDEST PUSH1 0x1 ADD PUSH2 0x177E JUMP JUMPDEST POP POP JUMP JUMPDEST PUSH1 0xC SLOAD DUP2 JUMP JUMPDEST PUSH1 0x9 PUSH1 0x20 MSTORE PUSH1 0x0 SWAP1 DUP2 MSTORE PUSH1 0x40 SWAP1 KECCAK256 SLOAD DUP2 JUMP JUMPDEST PUSH1 0x14 SLOAD PUSH4 0xFFFFFFFF AND DUP2 JUMP JUMPDEST PUSH1 0x0 SLOAD PUSH20 0xFFFFFFFFFFFFFFFFFFFFFFFFFFFFFFFFFFFFFFFF AND DUP2 JUMP JUMPDEST PUSH2 0x1837 PUSH2 0x2A66 JUMP JUMPDEST PUSH2 0x17EB DUP3 DUP3 PUSH2 0x2EC8 JUMP JUMPDEST PUSH2 0x1849 PUSH2 0x27B2 JUMP JUMPDEST PUSH2 0x1856 DUP6 DUP6 DUP6 DUP6 DUP6 PUSH2 0x3143 JUMP JUMPDEST ADDRESS PUSH20 0xFFFFFFFFFFFFFFFFFFFFFFFFFFFFFFFFFFFFFFFF AND PUSH4 0xC6F3A427 PUSH1 0x40 MLOAD DUP2 PUSH4 0xFFFFFFFF AND PUSH1 0xE0 SHL DUP2 MSTORE PUSH1 0x4 ADD PUSH1 0x0 PUSH1 0x40 MLOAD DUP1 DUP4 SUB DUP2 DUP7 DUP1 EXTCODESIZE ISZERO DUP1 ISZERO PUSH2 0x189C JUMPI PUSH1 0x0 DUP1 REVERT JUMPDEST POP GAS STATICCALL ISZERO DUP1 ISZERO PUSH2 0x18B0 JUMPI RETURNDATASIZE PUSH1 0x0 DUP1 RETURNDATACOPY RETURNDATASIZE PUSH1 0x0 REVERT JUMPDEST POP POP POP POP POP POP POP POP POP JUMP JUMPDEST PUSH1 0x13 SLOAD DUP2 JUMP JUMPDEST PUSH1 0x8 SLOAD DUP2 JUMP JUMPDEST CALLER PUSH2 0x18D0 PUSH2 0x1E07 JUMP JUMPDEST PUSH20 0xFFFFFFFFFFFFFFFFFFFFFFFFFFFFFFFFFFFFFFFF AND PUSH4 0x15CC36F2 DUP3 DUP5 PUSH1 0x40 MLOAD DUP4 PUSH4 0xFFFFFFFF AND PUSH1 0xE0 SHL DUP2 MSTORE PUSH1 0x4 ADD PUSH2 0x190A SWAP3 SWAP2 SWAP1 PUSH2 0x610A JUMP JUMPDEST PUSH1 0x0 PUSH1 0x40 MLOAD DUP1 DUP4 SUB DUP2 PUSH1 0x0 DUP8 DUP1 EXTCODESIZE ISZERO DUP1 ISZERO PUSH2 0x1924 JUMPI PUSH1 0x0 DUP1 REVERT JUMPDEST POP GAS CALL ISZERO DUP1 ISZERO PUSH2 0x1938 JUMPI RETURNDATASIZE PUSH1 0x0 DUP1 RETURNDATACOPY RETURNDATASIZE PUSH1 0x0 REVERT JUMPDEST POP POP POP POP PUSH20 0xFFFFFFFFFFFFFFFFFFFFFFFFFFFFFFFFFFFFFFFF DUP2 AND PUSH1 0x0 SWAP1 DUP2 MSTORE PUSH32 0x5B8CCBB9D4D8FB16EA74CE3C29A41F1B461FBDAFF4714A0D9A8EB05499746BC PUSH1 0x20 MSTORE PUSH1 0x40 SWAP1 KECCAK256 PUSH2 0x198A SWAP1 DUP4 PUSH2 0x3219 JUMP JUMPDEST DUP1 PUSH20 0xFFFFFFFFFFFFFFFFFFFFFFFFFFFFFFFFFFFFFFFF AND PUSH32 0xEBEDB8B3C678666E7F36970BC8F57ABF6D8FA2E828C0DA91EA5B75BF68ED101A DUP4 PUSH1 0x40 MLOAD PUSH2 0x19D0 SWAP2 SWAP1 PUSH2 0x6195 JUMP JUMPDEST PUSH1 0x40 MLOAD DUP1 SWAP2 SUB SWAP1 LOG2 POP POP JUMP JUMPDEST PUSH1 0x0 PUSH2 0x19F5 PUSH1 0x11 SLOAD PUSH1 0xD SLOAD PUSH2 0x3279 SWAP1 SWAP2 SWAP1 PUSH4 0xFFFFFFFF AND JUMP JUMPDEST SWAP1 POP SWAP1 JUMP JUMPDEST PUSH2 0x11E6 DUP2 CALLER PUSH2 0x3295 JUMP JUMPDEST PUSH20 0xDE6445484A8DCD9BF35FC95EB4E3990CC358822E SWAP1 JUMP JUMPDEST PUSH1 0x1 PUSH1 0x20 MSTORE PUSH1 0x0 SWAP1 DUP2 MSTORE PUSH1 0x40 SWAP1 KECCAK256 SLOAD PUSH1 0xFF AND DUP2 JUMP JUMPDEST PUSH1 0x0 PUSH2 0x1A3B PUSH2 0x5CA5 JUMP JUMPDEST POP PUSH1 0x0 DUP3 DUP2 MSTORE PUSH1 0xA PUSH1 0x20 SWAP1 DUP2 MSTORE PUSH1 0x40 DUP1 DUP4 KECCAK256 DUP2 MLOAD PUSH1 0x80 DUP2 ADD DUP4 MSTORE DUP2 SLOAD PUSH20 0xFFFFFFFFFFFFFFFFFFFFFFFFFFFFFFFFFFFFFFFF SWAP1 DUP2 AND DUP3 MSTORE PUSH1 0x1 SWAP1 SWAP3 ADD SLOAD SWAP2 DUP3 AND SWAP4 DUP2 ADD SWAP4 SWAP1 SWAP4 MSTORE PUSH4 0xFFFFFFFF PUSH21 0x10000000000000000000000000000000000000000 DUP3 DIV DUP2 AND SWAP3 DUP5 ADD SWAP3 SWAP1 SWAP3 MSTORE PUSH25 0x1000000000000000000000000000000000000000000000000 SWAP1 DIV AND PUSH1 0x60 DUP3 ADD MSTORE SWAP1 DUP1 PUSH2 0x1AD4 DUP6 PUSH2 0x346D JUMP JUMPDEST SWAP2 POP SWAP2 POP PUSH2 0x1AE7 DUP4 PUSH1 0x40 ADD MLOAD DUP4 DUP4 PUSH2 0x3483 JUMP JUMPDEST POP SWAP6 SWAP5 POP POP POP POP POP JUMP JUMPDEST PUSH1 0x0 DUP1 PUSH1 0x0 PUSH2 0x1AFE PUSH2 0x1A04 JUMP JUMPDEST PUSH20 0xFFFFFFFFFFFFFFFFFFFFFFFFFFFFFFFFFFFFFFFF AND PUSH4 0xB72E717D DUP6 PUSH1 0x40 MLOAD DUP3 PUSH4 0xFFFFFFFF AND PUSH1 0xE0 SHL DUP2 MSTORE PUSH1 0x4 ADD PUSH2 0x1B36 SWAP2 SWAP1 PUSH2 0x60E9 JUMP JUMPDEST PUSH1 0x0 PUSH1 0x40 MLOAD DUP1 DUP4 SUB DUP2 DUP7 DUP1 EXTCODESIZE ISZERO DUP1 ISZERO PUSH2 0x1B4E JUMPI PUSH1 0x0 DUP1 REVERT JUMPDEST POP GAS STATICCALL ISZERO DUP1 ISZERO PUSH2 0x1B62 JUMPI RETURNDATASIZE PUSH1 0x0 DUP1 RETURNDATACOPY RETURNDATASIZE PUSH1 0x0 REVERT JUMPDEST POP POP POP POP PUSH1 0x40 MLOAD RETURNDATASIZE PUSH1 0x0 DUP3 RETURNDATACOPY PUSH1 0x1F RETURNDATASIZE SWAP1 DUP2 ADD PUSH32 0xFFFFFFFFFFFFFFFFFFFFFFFFFFFFFFFFFFFFFFFFFFFFFFFFFFFFFFFFFFFFFFE0 AND DUP3 ADD PUSH1 0x40 MSTORE PUSH2 0x1BA8 SWAP2 SWAP1 DUP2 ADD SWAP1 PUSH2 0x603C JUMP JUMPDEST POP SWAP5 POP POP POP POP SWAP2 POP PUSH1 0x0 DUP3 EQ ISZERO PUSH2 0x1BEB JUMPI PUSH1 0x40 MLOAD PUSH32 0x8C379A000000000000000000000000000000000000000000000000000000000 DUP2 MSTORE PUSH1 0x4 ADD PUSH2 0xC0C SWAP1 PUSH2 0x624C JUMP JUMPDEST DUP1 CALLER PUSH3 0xAAE60 PUSH3 0x186A0 PUSH2 0x1BFE DUP7 PUSH2 0x34BE JUMP JUMPDEST DUP6 PUSH1 0x0 SHL SWAP7 POP PUSH2 0x1C0C PUSH2 0x5CA5 JUMP JUMPDEST POP PUSH1 0x40 DUP1 MLOAD PUSH1 0x80 DUP2 ADD DUP3 MSTORE PUSH20 0xFFFFFFFFFFFFFFFFFFFFFFFFFFFFFFFFFFFFFFFF DUP1 DUP8 AND DUP3 MSTORE DUP6 DUP2 AND PUSH1 0x20 DUP1 DUP5 ADD SWAP2 DUP3 MSTORE PUSH4 0xFFFFFFFF DUP1 DUP9 AND DUP6 DUP8 ADD SWAP1 DUP2 MSTORE DUP8 DUP3 AND PUSH1 0x60 DUP8 ADD SWAP1 DUP2 MSTORE PUSH1 0x0 DUP16 DUP2 MSTORE PUSH1 0xA SWAP1 SWAP5 MSTORE SWAP3 DUP8 SWAP1 KECCAK256 DUP7 MLOAD DUP2 SLOAD SWAP1 DUP8 AND PUSH32 0xFFFFFFFFFFFFFFFFFFFFFFFF0000000000000000000000000000000000000000 SWAP2 DUP3 AND OR DUP3 SSTORE SWAP5 MLOAD PUSH1 0x1 SWAP1 SWAP2 ADD DUP1 SLOAD SWAP3 MLOAD SWAP5 MLOAD DUP5 AND PUSH25 0x1000000000000000000000000000000000000000000000000 MUL PUSH32 0xFFFFFFFF00000000FFFFFFFFFFFFFFFFFFFFFFFFFFFFFFFFFFFFFFFFFFFFFFFF SWAP6 SWAP1 SWAP5 AND PUSH21 0x10000000000000000000000000000000000000000 MUL PUSH32 0xFFFFFFFFFFFFFFFF00000000FFFFFFFFFFFFFFFFFFFFFFFFFFFFFFFFFFFFFFFF SWAP3 SWAP1 SWAP8 AND SWAP3 SWAP1 SWAP6 AND SWAP2 SWAP1 SWAP2 OR AND SWAP4 SWAP1 SWAP4 OR AND SWAP2 SWAP1 SWAP2 OR SWAP1 SSTORE SWAP1 MLOAD PUSH32 0xCEC6FC86EA644053F6EDFF1160DFE3FA5C61E7A5EF9F873F145BB03A0BD319E7 SWAP1 PUSH2 0x1D62 SWAP1 DUP11 SWAP1 DUP9 SWAP1 DUP8 SWAP1 PUSH2 0x619E JUMP JUMPDEST PUSH1 0x40 MLOAD DUP1 SWAP2 SUB SWAP1 LOG1 PUSH2 0x1D74 DUP9 DUP11 PUSH2 0xAF8 JUMP JUMPDEST POP POP POP POP POP POP POP SWAP2 SWAP1 POP JUMP JUMPDEST PUSH1 0xB PUSH1 0x20 MSTORE PUSH1 0x0 SWAP1 DUP2 MSTORE PUSH1 0x40 SWAP1 KECCAK256 SLOAD DUP2 JUMP JUMPDEST PUSH1 0x17 SLOAD DUP2 JUMP JUMPDEST PUSH1 0x60 PUSH1 0x2 DUP1 SLOAD DUP1 PUSH1 0x20 MUL PUSH1 0x20 ADD PUSH1 0x40 MLOAD SWAP1 DUP2 ADD PUSH1 0x40 MSTORE DUP1 SWAP3 SWAP2 SWAP1 DUP2 DUP2 MSTORE PUSH1 0x20 ADD DUP3 DUP1 SLOAD DUP1 ISZERO PUSH2 0x1DFD JUMPI PUSH1 0x20 MUL DUP3 ADD SWAP2 SWAP1 PUSH1 0x0 MSTORE PUSH1 0x20 PUSH1 0x0 KECCAK256 SWAP1 JUMPDEST DUP2 SLOAD PUSH20 0xFFFFFFFFFFFFFFFFFFFFFFFFFFFFFFFFFFFFFFFF AND DUP2 MSTORE PUSH1 0x1 SWAP1 SWAP2 ADD SWAP1 PUSH1 0x20 ADD DUP1 DUP4 GT PUSH2 0x1DD2 JUMPI JUMPDEST POP POP POP POP POP SWAP1 POP SWAP1 JUMP JUMPDEST PUSH20 0xA33744EE5D57D6D69944213D8E6AD80D64FDC58 SWAP1 JUMP JUMPDEST PUSH1 0x12 SLOAD PUSH4 0xFFFFFFFF AND DUP2 JUMP JUMPDEST PUSH2 0x1E33 PUSH2 0x27B2 JUMP JUMPDEST PUSH2 0x1E3B PUSH2 0x34F6 JUMP JUMPDEST PUSH2 0x1E43 PUSH2 0x3509 JUMP JUMPDEST JUMP JUMPDEST PUSH2 0x1E4D PUSH2 0x5C64 JUMP JUMPDEST PUSH1 0x1 PUSH1 0x0 MSTORE PUSH1 0x4 PUSH1 0x20 MSTORE PUSH2 0x1E80 PUSH32 0xABD6E7CB50984FF9C2F3E18A2660C3353DADF4E3291DEEB275DAE2CD1E44FE05 PUSH2 0x287D JUMP JUMPDEST SWAP1 POP PUSH1 0x0 DUP3 PUSH1 0x1 DUP2 GT ISZERO PUSH2 0x1E90 JUMPI INVALID JUMPDEST EQ ISZERO PUSH2 0xD68 JUMPI PUSH1 0x0 PUSH2 0x1EA0 PUSH2 0x1E07 JUMP JUMPDEST PUSH20 0xFFFFFFFFFFFFFFFFFFFFFFFFFFFFFFFFFFFFFFFF AND PUSH4 0x6B6DF5AA PUSH1 0x40 MLOAD DUP2 PUSH4 0xFFFFFFFF AND PUSH1 0xE0 SHL DUP2 MSTORE PUSH1 0x4 ADD PUSH1 0x20 PUSH1 0x40 MLOAD DUP1 DUP4 SUB DUP2 DUP7 DUP1 EXTCODESIZE ISZERO DUP1 ISZERO PUSH2 0x1EE5 JUMPI PUSH1 0x0 DUP1 REVERT JUMPDEST POP GAS STATICCALL ISZERO DUP1 ISZERO PUSH2 0x1EF9 JUMPI RETURNDATASIZE PUSH1 0x0 DUP1 RETURNDATACOPY RETURNDATASIZE PUSH1 0x0 REVERT JUMPDEST POP POP POP POP PUSH1 0x40 MLOAD RETURNDATASIZE PUSH1 0x1F NOT PUSH1 0x1F DUP3 ADD AND DUP3 ADD DUP1 PUSH1 0x40 MSTORE POP DUP2 ADD SWAP1 PUSH2 0x1F1D SWAP2 SWAP1 PUSH2 0x6024 JUMP JUMPDEST SWAP1 POP PUSH2 0x1F4C PUSH2 0x1F47 DUP4 PUSH1 0x20 ADD MLOAD PUSH12 0xFFFFFFFFFFFFFFFFFFFFFFFF AND DUP4 PUSH2 0x2643 SWAP1 SWAP2 SWAP1 PUSH4 0xFFFFFFFF AND JUMP JUMPDEST PUSH2 0x3534 JUMP JUMPDEST PUSH12 0xFFFFFFFFFFFFFFFFFFFFFFFF SWAP1 DUP2 AND PUSH1 0x20 DUP5 ADD MSTORE PUSH1 0x40 DUP4 ADD MLOAD PUSH2 0x1F76 SWAP2 PUSH2 0x1F47 SWAP2 DUP5 SWAP2 AND PUSH2 0x2643 JUMP JUMPDEST PUSH12 0xFFFFFFFFFFFFFFFFFFFFFFFF AND PUSH1 0x40 DUP4 ADD MSTORE POP SWAP2 SWAP1 POP JUMP JUMPDEST PUSH1 0x14 SLOAD PUSH5 0x100000000 SWAP1 DIV PUSH4 0xFFFFFFFF AND DUP2 JUMP JUMPDEST PUSH1 0x0 PUSH2 0x1FAD PUSH2 0x5CA5 JUMP JUMPDEST POP PUSH1 0x0 DUP4 DUP2 MSTORE PUSH1 0xA PUSH1 0x20 SWAP1 DUP2 MSTORE PUSH1 0x40 DUP1 DUP4 KECCAK256 DUP2 MLOAD PUSH1 0x80 DUP2 ADD DUP4 MSTORE DUP2 SLOAD PUSH20 0xFFFFFFFFFFFFFFFFFFFFFFFFFFFFFFFFFFFFFFFF SWAP1 DUP2 AND DUP3 MSTORE PUSH1 0x1 SWAP1 SWAP3 ADD SLOAD SWAP2 DUP3 AND SWAP4 DUP2 ADD SWAP4 SWAP1 SWAP4 MSTORE PUSH4 0xFFFFFFFF PUSH21 0x10000000000000000000000000000000000000000 DUP3 DIV DUP2 AND SWAP3 DUP5 ADD SWAP3 SWAP1 SWAP3 MSTORE PUSH25 0x1000000000000000000000000000000000000000000000000 SWAP1 DIV AND PUSH1 0x60 DUP3 ADD MSTORE SWAP1 DUP1 PUSH2 0x2046 DUP7 PUSH2 0x346D JUMP JUMPDEST SWAP2 POP SWAP2 POP PUSH1 0x0 PUSH2 0x205B DUP5 PUSH1 0x40 ADD MLOAD DUP5 DUP5 PUSH2 0x3483 JUMP JUMPDEST SWAP2 POP POP PUSH2 0x206A DUP8 DUP8 DUP4 DUP6 PUSH2 0x3558 JUMP JUMPDEST SWAP8 SWAP7 POP POP POP POP POP POP POP JUMP JUMPDEST CALLER PUSH1 0x0 SWAP1 DUP2 MSTORE PUSH1 0x10 PUSH1 0x20 MSTORE PUSH1 0x40 SWAP1 KECCAK256 SLOAD PUSH1 0xFF AND PUSH2 0x2098 JUMPI PUSH2 0x2098 PUSH2 0x9EF CALLER PUSH2 0x3699 JUMP JUMPDEST PUSH20 0xFFFFFFFFFFFFFFFFFFFFFFFFFFFFFFFFFFFFFFFF DUP3 AND PUSH1 0x0 SWAP1 DUP2 MSTORE PUSH1 0x9 PUSH1 0x20 MSTORE PUSH1 0x40 SWAP1 KECCAK256 SLOAD DUP1 PUSH2 0x20C9 JUMPI POP PUSH2 0x17EB JUMP JUMPDEST PUSH1 0x0 PUSH2 0x20D4 DUP3 PUSH2 0x11B6 JUMP JUMPDEST PUSH1 0x20 ADD MLOAD PUSH12 0xFFFFFFFFFFFFFFFFFFFFFFFF AND SWAP1 POP PUSH1 0x13 SLOAD DUP2 LT ISZERO PUSH2 0x20F9 JUMPI POP POP PUSH2 0x17EB JUMP JUMPDEST PUSH1 0xC SLOAD PUSH1 0x0 DUP4 DUP2 MSTORE PUSH1 0x15 PUSH1 0x20 SWAP1 DUP2 MSTORE PUSH1 0x40 DUP1 DUP4 KECCAK256 DUP5 DUP5 MSTORE DUP3 MSTORE DUP1 DUP4 KECCAK256 PUSH1 0x16 SWAP1 SWAP3 MSTORE SWAP1 SWAP2 KECCAK256 DUP2 SLOAD DUP1 PUSH2 0x219C JUMPI PUSH1 0x0 DUP1 PUSH2 0x2131 DUP9 DUP9 PUSH2 0x371C JUMP JUMPDEST PUSH1 0x2 DUP8 ADD DUP3 SWAP1 SSTORE PUSH1 0x1 DUP8 ADD DUP2 SWAP1 SSTORE PUSH1 0x3 DUP7 ADD SLOAD SWAP2 SWAP4 POP SWAP2 POP PUSH2 0x2153 SWAP1 DUP3 PUSH2 0x3279 JUMP JUMPDEST PUSH1 0x3 DUP6 ADD SSTORE PUSH1 0x1 DUP1 DUP6 ADD SLOAD PUSH2 0x2167 SWAP2 PUSH2 0x3279 JUMP JUMPDEST PUSH1 0x1 DUP6 ADD SSTORE PUSH1 0x40 MLOAD DUP9 SWAP1 DUP8 SWAP1 PUSH32 0x14B098103235344975B17508C2391721CC9AC3F3FA2B56C7FF46F8480DFD074F SWAP1 PUSH1 0x0 SWAP1 LOG3 POP POP JUMPDEST PUSH1 0x0 PUSH2 0x21AB DUP5 PUSH1 0x1 ADD SLOAD PUSH2 0x137B JUMP JUMPDEST SWAP1 POP DUP1 DUP9 GT ISZERO PUSH2 0x21B9 JUMPI DUP1 SWAP8 POP JUMPDEST DUP2 DUP9 GT ISZERO PUSH2 0x18B0 JUMPI DUP8 DUP5 SSTORE PUSH1 0x2 DUP4 ADD SLOAD PUSH2 0x21DF SWAP1 DUP4 SWAP1 PUSH2 0x21D9 SWAP1 DUP12 PUSH2 0x3279 JUMP JUMPDEST SWAP1 PUSH2 0x2643 JUMP JUMPDEST PUSH1 0x2 DUP5 ADD SSTORE POP POP POP POP POP POP POP POP POP JUMP JUMPDEST PUSH1 0x3 SLOAD PUSH20 0xFFFFFFFFFFFFFFFFFFFFFFFFFFFFFFFFFFFFFFFF AND DUP2 JUMP JUMPDEST PUSH20 0x4FBB350052BCA5417566F188EB2EBCE5B19BC964 SWAP1 JUMP JUMPDEST PUSH2 0x222B PUSH2 0x5C64 JUMP JUMPDEST PUSH20 0xFFFFFFFFFFFFFFFFFFFFFFFFFFFFFFFFFFFFFFFF DUP4 AND PUSH1 0x0 SWAP1 DUP2 MSTORE PUSH1 0x6 PUSH1 0x20 SWAP1 DUP2 MSTORE PUSH1 0x40 DUP1 DUP4 KECCAK256 DUP6 DUP5 MSTORE SWAP1 SWAP2 MSTORE SWAP1 KECCAK256 PUSH2 0x123F SWAP1 PUSH2 0x287D JUMP JUMPDEST PUSH2 0x226C PUSH2 0x2A66 JUMP JUMPDEST PUSH20 0xFFFFFFFFFFFFFFFFFFFFFFFFFFFFFFFFFFFFFFFF DUP2 AND PUSH2 0x2297 JUMPI PUSH2 0x2292 PUSH2 0x9EF PUSH2 0x379C JUMP JUMPDEST PUSH2 0x11E6 JUMP JUMPDEST PUSH1 0x0 DUP1 SLOAD PUSH32 0xFFFFFFFFFFFFFFFFFFFFFFFF0000000000000000000000000000000000000000 AND PUSH20 0xFFFFFFFFFFFFFFFFFFFFFFFFFFFFFFFFFFFFFFFF DUP4 AND SWAP1 DUP2 OR DUP3 SSTORE PUSH1 0x40 MLOAD SWAP1 SWAP2 CALLER SWAP2 PUSH32 0x8BE0079C531659141344CD1FD0A4F28419497F9722A3DAAFE3B4186F6B6457E0 SWAP2 SWAP1 LOG3 POP JUMP JUMPDEST PUSH2 0x2310 CALLER PUSH2 0x37D3 JUMP JUMPDEST ISZERO PUSH2 0x231D JUMPI PUSH2 0x231D PUSH2 0x27B2 JUMP JUMPDEST PUSH1 0xC SLOAD PUSH1 0x0 PUSH2 0x232D DUP3 PUSH1 0x1 PUSH2 0x2643 JUMP JUMPDEST SWAP1 POP PUSH2 0x2337 PUSH2 0x5C35 JUMP JUMPDEST POP PUSH1 0x0 DUP2 DUP2 MSTORE PUSH1 0x16 PUSH1 0x20 SWAP1 DUP2 MSTORE PUSH1 0x40 SWAP2 DUP3 SWAP1 KECCAK256 DUP3 MLOAD PUSH1 0xA0 DUP2 ADD DUP5 MSTORE DUP2 SLOAD DUP2 MSTORE PUSH1 0x1 DUP3 ADD SLOAD SWAP3 DUP2 ADD DUP4 SWAP1 MSTORE PUSH1 0x2 DUP3 ADD SLOAD SWAP4 DUP2 ADD SWAP4 SWAP1 SWAP4 MSTORE PUSH1 0x3 DUP2 ADD SLOAD PUSH1 0x60 DUP5 ADD MSTORE PUSH1 0x4 ADD SLOAD PUSH1 0x80 DUP4 ADD MSTORE PUSH2 0x238C JUMPI POP POP POP PUSH2 0x11E6 JUMP JUMPDEST PUSH2 0x2394 PUSH2 0x5C84 JUMP JUMPDEST POP PUSH1 0x0 DUP5 DUP2 MSTORE PUSH1 0x15 PUSH1 0x20 SWAP1 DUP2 MSTORE PUSH1 0x40 DUP1 DUP4 KECCAK256 DUP6 DUP5 MSTORE DUP3 MSTORE SWAP2 DUP3 SWAP1 KECCAK256 DUP3 MLOAD PUSH1 0x60 DUP2 ADD DUP5 MSTORE DUP2 SLOAD DUP1 DUP3 MSTORE PUSH1 0x1 DUP4 ADD SLOAD SWAP4 DUP3 ADD SWAP4 SWAP1 SWAP4 MSTORE PUSH1 0x2 SWAP1 SWAP2 ADD SLOAD SWAP3 DUP2 ADD SWAP3 SWAP1 SWAP3 MSTORE PUSH2 0x23E2 JUMPI POP POP POP POP PUSH2 0x11E6 JUMP JUMPDEST PUSH1 0x0 DUP6 DUP2 MSTORE PUSH1 0x15 PUSH1 0x20 SWAP1 DUP2 MSTORE PUSH1 0x40 DUP1 DUP4 KECCAK256 DUP7 DUP5 MSTORE SWAP1 SWAP2 MSTORE DUP2 KECCAK256 DUP2 DUP2 SSTORE PUSH1 0x1 DUP2 ADD DUP3 SWAP1 SSTORE PUSH1 0x2 ADD DUP2 SWAP1 SSTORE PUSH2 0x2415 DUP3 DUP5 PUSH2 0x37D9 JUMP JUMPDEST SWAP1 POP PUSH1 0x0 PUSH2 0x2421 PUSH2 0x220B JUMP JUMPDEST PUSH20 0xFFFFFFFFFFFFFFFFFFFFFFFFFFFFFFFFFFFFFFFF AND PUSH4 0x7546172 PUSH1 0x40 MLOAD DUP2 PUSH4 0xFFFFFFFF AND PUSH1 0xE0 SHL DUP2 MSTORE PUSH1 0x4 ADD PUSH1 0x20 PUSH1 0x40 MLOAD DUP1 DUP4 SUB DUP2 DUP7 DUP1 EXTCODESIZE ISZERO DUP1 ISZERO PUSH2 0x2466 JUMPI PUSH1 0x0 DUP1 REVERT JUMPDEST POP GAS STATICCALL ISZERO DUP1 ISZERO PUSH2 0x247A JUMPI RETURNDATASIZE PUSH1 0x0 DUP1 RETURNDATACOPY RETURNDATASIZE PUSH1 0x0 REVERT JUMPDEST POP POP POP POP PUSH1 0x40 MLOAD RETURNDATASIZE PUSH1 0x1F NOT PUSH1 0x1F DUP3 ADD AND DUP3 ADD DUP1 PUSH1 0x40 MSTORE POP DUP2 ADD SWAP1 PUSH2 0x249E SWAP2 SWAP1 PUSH2 0x5DF1 JUMP JUMPDEST PUSH20 0xFFFFFFFFFFFFFFFFFFFFFFFFFFFFFFFFFFFFFFFF AND PUSH4 0x7FA36E40 DUP9 DUP5 PUSH1 0x40 MLOAD DUP4 PUSH4 0xFFFFFFFF AND PUSH1 0xE0 SHL DUP2 MSTORE PUSH1 0x4 ADD PUSH2 0x24D8 SWAP3 SWAP2 SWAP1 PUSH2 0x61D0 JUMP JUMPDEST PUSH1 0x20 PUSH1 0x40 MLOAD DUP1 DUP4 SUB DUP2 PUSH1 0x0 DUP8 DUP1 EXTCODESIZE ISZERO DUP1 ISZERO PUSH2 0x24F2 JUMPI PUSH1 0x0 DUP1 REVERT JUMPDEST POP GAS CALL ISZERO DUP1 ISZERO PUSH2 0x2506 JUMPI RETURNDATASIZE PUSH1 0x0 DUP1 RETURNDATACOPY RETURNDATASIZE PUSH1 0x0 REVERT JUMPDEST POP POP POP POP PUSH1 0x40 MLOAD RETURNDATASIZE PUSH1 0x1F NOT PUSH1 0x1F DUP3 ADD AND DUP3 ADD DUP1 PUSH1 0x40 MSTORE POP DUP2 ADD SWAP1 PUSH2 0x252A SWAP2 SWAP1 PUSH2 0x6024 JUMP JUMPDEST SWAP1 POP PUSH1 0x0 DUP1 PUSH2 0x253E DUP10 DUP5 DUP8 PUSH1 0x40 ADD MLOAD PUSH2 0x3856 JUMP JUMPDEST SWAP2 POP SWAP2 POP DUP9 DUP9 PUSH32 0xF1116B309178AA62DCB6BF8C3B8BC2321724907C7EBF52192D14C8CE3AA9194C DUP5 DUP5 PUSH1 0x40 MLOAD PUSH2 0x2575 SWAP3 SWAP2 SWAP1 PUSH2 0x61D0 JUMP JUMPDEST PUSH1 0x40 MLOAD DUP1 SWAP2 SUB SWAP1 LOG3 PUSH1 0x0 PUSH2 0x2589 DUP4 DUP4 PUSH2 0x3279 JUMP JUMPDEST PUSH1 0x80 DUP9 ADD MLOAD SWAP1 SWAP2 POP PUSH2 0x259B SWAP1 DUP3 PUSH2 0x3279 JUMP JUMPDEST PUSH1 0x80 DUP9 ADD DUP2 SWAP1 MSTORE PUSH1 0x0 DUP10 DUP2 MSTORE PUSH1 0x16 PUSH1 0x20 SWAP1 DUP2 MSTORE PUSH1 0x40 SWAP1 SWAP2 KECCAK256 PUSH1 0x4 ADD SWAP2 SWAP1 SWAP2 SSTORE DUP8 ADD MLOAD PUSH2 0x25C8 SWAP1 PUSH1 0x1 PUSH2 0x2643 JUMP JUMPDEST PUSH1 0x20 DUP1 DUP10 ADD DUP3 DUP2 MSTORE PUSH1 0x0 DUP12 DUP2 MSTORE PUSH1 0x16 SWAP1 SWAP3 MSTORE PUSH1 0x40 SWAP1 SWAP2 KECCAK256 PUSH1 0x1 ADD SWAP2 SWAP1 SWAP2 SSTORE MLOAD PUSH2 0x2637 JUMPI PUSH1 0x80 DUP8 ADD MLOAD DUP8 MLOAD DUP10 SWAP2 PUSH32 0xB463D19ECF455BE65365092CF8E1DB6934A0334CF8CD532DDF9964D01F36B5B2 SWAP2 PUSH2 0x2620 SWAP1 DUP3 PUSH2 0x2643 JUMP JUMPDEST PUSH1 0x40 MLOAD PUSH2 0x262E SWAP3 SWAP2 SWAP1 PUSH2 0x61D0 JUMP JUMPDEST PUSH1 0x40 MLOAD DUP1 SWAP2 SUB SWAP1 LOG2 JUMPDEST POP POP POP POP POP POP POP POP POP POP JUMP JUMPDEST PUSH1 0x0 DUP3 DUP3 GT ISZERO PUSH2 0x265C JUMPI PUSH2 0x265C PUSH2 0x9EF PUSH1 0x2 DUP6 DUP6 PUSH2 0x3B97 JUMP JUMPDEST POP SWAP1 SUB SWAP1 JUMP JUMPDEST PUSH1 0x40 DUP1 MLOAD PUSH1 0x24 DUP2 ADD DUP5 SWAP1 MSTORE PUSH1 0x44 DUP1 DUP3 ADD DUP5 SWAP1 MSTORE DUP3 MLOAD DUP1 DUP4 SUB SWAP1 SWAP2 ADD DUP2 MSTORE PUSH1 0x64 SWAP1 SWAP2 ADD SWAP1 SWAP2 MSTORE PUSH1 0x20 DUP2 ADD DUP1 MLOAD PUSH28 0xFFFFFFFFFFFFFFFFFFFFFFFFFFFFFFFFFFFFFFFFFFFFFFFFFFFFFFFF AND PUSH32 0x614B800A00000000000000000000000000000000000000000000000000000000 OR SWAP1 MSTORE SWAP3 SWAP2 POP POP JUMP JUMPDEST DUP1 MLOAD PUSH1 0x20 DUP3 ADD REVERT JUMPDEST PUSH1 0x0 PUSH2 0x19F5 PUSH1 0x17 SLOAD PUSH2 0x26ED PUSH2 0x220B JUMP JUMPDEST PUSH20 0xFFFFFFFFFFFFFFFFFFFFFFFFFFFFFFFFFFFFFFFF AND PUSH4 0x70A08231 ADDRESS PUSH1 0x40 MLOAD DUP3 PUSH4 0xFFFFFFFF AND PUSH1 0xE0 SHL DUP2 MSTORE PUSH1 0x4 ADD PUSH2 0x2725 SWAP2 SWAP1 PUSH2 0x60E9 JUMP JUMPDEST PUSH1 0x20 PUSH1 0x40 MLOAD DUP1 DUP4 SUB DUP2 DUP7 DUP1 EXTCODESIZE ISZERO DUP1 ISZERO PUSH2 0x273D JUMPI PUSH1 0x0 DUP1 REVERT JUMPDEST POP GAS STATICCALL ISZERO DUP1 ISZERO PUSH2 0x2751 JUMPI RETURNDATASIZE PUSH1 0x0 DUP1 RETURNDATACOPY RETURNDATASIZE PUSH1 0x0 REVERT JUMPDEST POP POP POP POP PUSH1 0x40 MLOAD RETURNDATASIZE PUSH1 0x1F NOT PUSH1 0x1F DUP3 ADD AND DUP3 ADD DUP1 PUSH1 0x40 MSTORE POP DUP2 ADD SWAP1 PUSH2 0x21D9 SWAP2 SWAP1 PUSH2 0x6024 JUMP JUMPDEST TIMESTAMP PUSH1 0x0 PUSH2 0x2780 PUSH2 0x19DC JUMP JUMPDEST SWAP1 POP DUP2 DUP2 GT ISZERO PUSH2 0x2797 JUMPI PUSH2 0x2797 PUSH2 0x9EF DUP3 DUP5 PUSH2 0x3C33 JUMP JUMPDEST PUSH1 0xC SLOAD PUSH1 0x0 SWAP1 PUSH2 0x27A8 SWAP1 PUSH1 0x1 PUSH2 0x3279 JUMP JUMPDEST PUSH1 0xC SSTORE POP POP PUSH1 0xD SSTORE JUMP JUMPDEST CALLER PUSH1 0x0 SWAP1 DUP2 MSTORE PUSH1 0x1 PUSH1 0x20 MSTORE PUSH1 0x40 SWAP1 KECCAK256 SLOAD PUSH1 0xFF AND PUSH2 0x1E43 JUMPI PUSH2 0x1E43 PUSH2 0x9EF CALLER PUSH2 0x3CA6 JUMP JUMPDEST PUSH1 0x60 PUSH4 0xB9588E43 PUSH1 0xE0 SHL DUP4 DUP4 PUSH1 0x40 MLOAD PUSH1 0x24 ADD DUP1 DUP4 PUSH1 0x1 DUP2 GT ISZERO PUSH2 0x27F4 JUMPI INVALID JUMPDEST DUP2 MSTORE PUSH20 0xFFFFFFFFFFFFFFFFFFFFFFFFFFFFFFFFFFFFFFFF SWAP1 SWAP3 AND PUSH1 0x20 DUP1 DUP5 ADD SWAP2 SWAP1 SWAP2 MSTORE PUSH1 0x40 DUP1 MLOAD DUP1 DUP6 SUB DUP4 ADD DUP2 MSTORE SWAP4 DUP2 ADD SWAP1 MSTORE DUP3 ADD DUP1 MLOAD PUSH28 0xFFFFFFFFFFFFFFFFFFFFFFFFFFFFFFFFFFFFFFFFFFFFFFFFFFFFFFFF AND PUSH32 0xFFFFFFFF00000000000000000000000000000000000000000000000000000000 SWAP1 SWAP6 AND SWAP5 SWAP1 SWAP5 OR SWAP1 SWAP4 MSTORE SWAP6 SWAP5 POP POP POP POP POP JUMP JUMPDEST PUSH2 0x2885 PUSH2 0x5C64 JUMP JUMPDEST POP PUSH1 0x40 DUP1 MLOAD PUSH1 0x60 DUP2 ADD DUP3 MSTORE DUP3 SLOAD PUSH8 0xFFFFFFFFFFFFFFFF DUP2 AND DUP1 DUP4 MSTORE PUSH12 0xFFFFFFFFFFFFFFFFFFFFFFFF PUSH9 0x10000000000000000 DUP4 DIV DUP2 AND PUSH1 0x20 DUP6 ADD MSTORE PUSH21 0x10000000000000000000000000000000000000000 SWAP1 SWAP3 DIV SWAP1 SWAP2 AND SWAP3 DUP3 ADD SWAP3 SWAP1 SWAP3 MSTORE PUSH1 0xC SLOAD SWAP1 SWAP2 DUP2 GT ISZERO PUSH2 0x291D JUMPI PUSH2 0x28F8 DUP2 PUSH2 0x3D29 JUMP JUMPDEST PUSH8 0xFFFFFFFFFFFFFFFF AND DUP3 MSTORE PUSH1 0x40 DUP3 ADD MLOAD PUSH12 0xFFFFFFFFFFFFFFFFFFFFFFFF AND PUSH1 0x20 DUP4 ADD MSTORE JUMPDEST POP SWAP2 SWAP1 POP JUMP JUMPDEST PUSH1 0x0 DUP2 DUP4 LT PUSH2 0x2932 JUMPI DUP2 PUSH2 0x123F JUMP JUMPDEST POP SWAP1 SWAP2 SWAP1 POP JUMP JUMPDEST PUSH1 0x40 DUP1 MLOAD PUSH1 0x24 DUP2 ADD DUP5 SWAP1 MSTORE PUSH1 0x44 DUP1 DUP3 ADD DUP5 SWAP1 MSTORE DUP3 MLOAD DUP1 DUP4 SUB SWAP1 SWAP2 ADD DUP2 MSTORE PUSH1 0x64 SWAP1 SWAP2 ADD SWAP1 SWAP2 MSTORE PUSH1 0x20 DUP2 ADD DUP1 MLOAD PUSH28 0xFFFFFFFFFFFFFFFFFFFFFFFFFFFFFFFFFFFFFFFFFFFFFFFFFFFFFFFF AND PUSH32 0x84C8B7C900000000000000000000000000000000000000000000000000000000 OR SWAP1 MSTORE SWAP3 SWAP2 POP POP JUMP JUMPDEST PUSH2 0x29B4 PUSH2 0x5C64 JUMP JUMPDEST PUSH2 0x29BD DUP4 PUSH2 0x287D JUMP JUMPDEST SWAP1 POP PUSH2 0x29E7 PUSH2 0x1F47 DUP4 DUP4 PUSH1 0x40 ADD MLOAD PUSH12 0xFFFFFFFFFFFFFFFFFFFFFFFF AND PUSH2 0x2643 SWAP1 SWAP2 SWAP1 PUSH4 0xFFFFFFFF AND JUMP JUMPDEST PUSH12 0xFFFFFFFFFFFFFFFFFFFFFFFF SWAP1 DUP2 AND PUSH1 0x40 DUP4 ADD MSTORE PUSH1 0x20 DUP3 ADD MLOAD PUSH2 0x2A10 SWAP2 PUSH2 0x1F47 SWAP2 AND DUP5 PUSH2 0x2643 JUMP JUMPDEST PUSH12 0xFFFFFFFFFFFFFFFFFFFFFFFF AND PUSH1 0x20 DUP3 ADD MSTORE PUSH2 0x11B1 DUP4 DUP3 PUSH2 0x3D49 JUMP JUMPDEST PUSH1 0x0 DUP2 DUP2 MSTORE PUSH1 0xA PUSH1 0x20 MSTORE PUSH1 0x40 SWAP1 KECCAK256 SLOAD PUSH20 0xFFFFFFFFFFFFFFFFFFFFFFFFFFFFFFFFFFFFFFFF AND CALLER DUP2 EQ PUSH2 0x17EB JUMPI PUSH2 0x17EB PUSH2 0x9EF CALLER DUP5 PUSH2 0x3E03 JUMP JUMPDEST PUSH1 0x0 SLOAD PUSH20 0xFFFFFFFFFFFFFFFFFFFFFFFFFFFFFFFFFFFFFFFF AND CALLER EQ PUSH2 0x1E43 JUMPI PUSH1 0x0 SLOAD PUSH2 0x1E43 SWAP1 PUSH2 0x9EF SWAP1 CALLER SWAP1 PUSH20 0xFFFFFFFFFFFFFFFFFFFFFFFFFFFFFFFFFFFFFFFF AND PUSH2 0x3E8B JUMP JUMPDEST PUSH20 0xFFFFFFFFFFFFFFFFFFFFFFFFFFFFFFFFFFFFFFFF DUP2 AND PUSH2 0x2AD3 JUMPI PUSH2 0x2AD3 PUSH2 0x9EF PUSH2 0x3F17 JUMP JUMPDEST PUSH20 0xFFFFFFFFFFFFFFFFFFFFFFFFFFFFFFFFFFFFFFFF DUP2 AND PUSH1 0x0 SWAP1 DUP2 MSTORE PUSH1 0x1 PUSH1 0x20 MSTORE PUSH1 0x40 SWAP1 KECCAK256 SLOAD PUSH1 0xFF AND ISZERO PUSH2 0x2B0D JUMPI PUSH2 0x2B0D PUSH2 0x9EF DUP3 PUSH2 0x3F4E JUMP JUMPDEST PUSH20 0xFFFFFFFFFFFFFFFFFFFFFFFFFFFFFFFFFFFFFFFF DUP2 AND PUSH1 0x0 DUP2 DUP2 MSTORE PUSH1 0x1 PUSH1 0x20 DUP2 SWAP1 MSTORE PUSH1 0x40 DUP1 DUP4 KECCAK256 DUP1 SLOAD PUSH32 0xFFFFFFFFFFFFFFFFFFFFFFFFFFFFFFFFFFFFFFFFFFFFFFFFFFFFFFFFFFFFFF00 AND DUP4 OR SWAP1 SSTORE PUSH1 0x2 DUP1 SLOAD SWAP3 DUP4 ADD DUP2 SSTORE DUP4 MSTORE PUSH32 0x405787FA12A823E0F2B7631CC41B3BA8828B3321CA811111FA75CD3AA3BB5ACE SWAP1 SWAP2 ADD DUP1 SLOAD PUSH32 0xFFFFFFFFFFFFFFFFFFFFFFFF0000000000000000000000000000000000000000 AND DUP5 OR SWAP1 SSTORE MLOAD CALLER SWAP3 SWAP2 PUSH32 0x3147867C59D17E8FA9D522465651D44AAE0A9E38F902F3475B97E58072F0ED4C SWAP2 LOG3 POP JUMP JUMPDEST PUSH2 0x2BE7 DUP4 PUSH2 0x3FD1 JUMP JUMPDEST PUSH2 0x2BF1 DUP4 DUP4 PUSH2 0x3295 JUMP JUMPDEST PUSH20 0xFFFFFFFFFFFFFFFFFFFFFFFFFFFFFFFFFFFFFFFF DUP3 AND PUSH1 0x0 SWAP1 DUP2 MSTORE PUSH1 0x6 PUSH1 0x20 SWAP1 DUP2 MSTORE PUSH1 0x40 DUP1 DUP4 KECCAK256 DUP7 DUP5 MSTORE SWAP1 SWAP2 MSTORE SWAP1 KECCAK256 PUSH2 0x2C2B SWAP1 DUP3 PUSH2 0x4008 JUMP JUMPDEST PUSH1 0x0 DUP4 DUP2 MSTORE PUSH1 0x7 PUSH1 0x20 MSTORE PUSH1 0x40 SWAP1 KECCAK256 PUSH2 0x2C43 SWAP1 DUP3 PUSH2 0x4008 JUMP JUMPDEST PUSH1 0x1 PUSH1 0x0 MSTORE PUSH1 0x4 PUSH1 0x20 MSTORE PUSH2 0x11B1 PUSH32 0xABD6E7CB50984FF9C2F3E18A2660C3353DADF4E3291DEEB275DAE2CD1E44FE05 DUP3 PUSH2 0x4008 JUMP JUMPDEST PUSH2 0x2C80 DUP4 PUSH2 0x3FD1 JUMP JUMPDEST PUSH2 0x2C8A DUP4 DUP4 PUSH2 0x3295 JUMP JUMPDEST PUSH20 0xFFFFFFFFFFFFFFFFFFFFFFFFFFFFFFFFFFFFFFFF DUP3 AND PUSH1 0x0 SWAP1 DUP2 MSTORE PUSH1 0x6 PUSH1 0x20 SWAP1 DUP2 MSTORE PUSH1 0x40 DUP1 DUP4 KECCAK256 DUP7 DUP5 MSTORE SWAP1 SWAP2 MSTORE SWAP1 KECCAK256 PUSH2 0x2CC4 SWAP1 DUP3 PUSH2 0x4060 JUMP JUMPDEST PUSH1 0x0 DUP4 DUP2 MSTORE PUSH1 0x7 PUSH1 0x20 MSTORE PUSH1 0x40 SWAP1 KECCAK256 PUSH2 0x2CDC SWAP1 DUP3 PUSH2 0x4060 JUMP JUMPDEST PUSH1 0x1 PUSH1 0x0 MSTORE PUSH1 0x4 PUSH1 0x20 MSTORE PUSH2 0x11B1 PUSH32 0xABD6E7CB50984FF9C2F3E18A2660C3353DADF4E3291DEEB275DAE2CD1E44FE05 DUP3 PUSH2 0x4060 JUMP JUMPDEST PUSH2 0x2D1A DUP4 DUP4 PUSH2 0x409B JUMP JUMPDEST ISZERO PUSH2 0x2D24 JUMPI PUSH2 0x11B1 JUMP JUMPDEST PUSH2 0x2D2C PUSH2 0x5C64 JUMP JUMPDEST PUSH2 0x2D35 DUP5 PUSH2 0x287D JUMP JUMPDEST SWAP1 POP PUSH2 0x2D3F PUSH2 0x5C64 JUMP JUMPDEST PUSH2 0x2D48 DUP5 PUSH2 0x287D JUMP JUMPDEST SWAP1 POP DUP2 PUSH1 0x40 ADD MLOAD PUSH12 0xFFFFFFFFFFFFFFFFFFFFFFFF AND DUP4 GT ISZERO PUSH2 0x2D83 JUMPI PUSH2 0x2D83 PUSH2 0x9EF DUP5 DUP5 PUSH1 0x40 ADD MLOAD PUSH12 0xFFFFFFFFFFFFFFFFFFFFFFFF AND PUSH2 0x2939 JUMP JUMPDEST PUSH1 0x40 DUP3 ADD MLOAD PUSH2 0x2DA4 SWAP1 PUSH2 0x1F47 SWAP1 PUSH12 0xFFFFFFFFFFFFFFFFFFFFFFFF AND DUP6 PUSH2 0x2643 JUMP JUMPDEST PUSH12 0xFFFFFFFFFFFFFFFFFFFFFFFF SWAP1 DUP2 AND PUSH1 0x40 DUP1 DUP6 ADD SWAP2 SWAP1 SWAP2 MSTORE DUP3 ADD MLOAD PUSH2 0x2DCF SWAP2 PUSH2 0x1F47 SWAP2 AND DUP6 PUSH2 0x3279 JUMP JUMPDEST PUSH12 0xFFFFFFFFFFFFFFFFFFFFFFFF AND PUSH1 0x40 DUP3 ADD MSTORE PUSH2 0x2DEC DUP6 DUP4 PUSH2 0x3D49 JUMP JUMPDEST PUSH2 0x2DF6 DUP5 DUP3 PUSH2 0x3D49 JUMP JUMPDEST POP POP POP POP POP JUMP JUMPDEST PUSH3 0xF4240 PUSH4 0xFFFFFFFF DUP3 AND GT ISZERO PUSH2 0x2E22 JUMPI PUSH2 0x2E1D PUSH2 0x9EF PUSH1 0x0 DUP6 DUP5 PUSH2 0x40A2 JUMP JUMPDEST PUSH2 0x11B1 JUMP JUMPDEST DUP2 PUSH4 0xFFFFFFFF AND DUP2 PUSH4 0xFFFFFFFF AND GT ISZERO PUSH2 0x11B1 JUMPI PUSH2 0x11B1 PUSH2 0x9EF PUSH1 0x1 DUP6 DUP5 PUSH2 0x40A2 JUMP JUMPDEST PUSH1 0x40 DUP1 MLOAD PUSH20 0xFFFFFFFFFFFFFFFFFFFFFFFFFFFFFFFFFFFFFFFF DUP4 AND PUSH1 0x24 DUP1 DUP4 ADD SWAP2 SWAP1 SWAP2 MSTORE DUP3 MLOAD DUP1 DUP4 SUB SWAP1 SWAP2 ADD DUP2 MSTORE PUSH1 0x44 SWAP1 SWAP2 ADD SWAP1 SWAP2 MSTORE PUSH1 0x20 DUP2 ADD DUP1 MLOAD PUSH28 0xFFFFFFFFFFFFFFFFFFFFFFFFFFFFFFFFFFFFFFFFFFFFFFFFFFFFFFFF AND PUSH32 0xEB5108A200000000000000000000000000000000000000000000000000000000 OR SWAP1 MSTORE SWAP2 SWAP1 POP JUMP JUMPDEST PUSH20 0xFFFFFFFFFFFFFFFFFFFFFFFFFFFFFFFFFFFFFFFF DUP3 AND PUSH1 0x0 SWAP1 DUP2 MSTORE PUSH1 0x1 PUSH1 0x20 MSTORE PUSH1 0x40 SWAP1 KECCAK256 SLOAD PUSH1 0xFF AND PUSH2 0x2F01 JUMPI PUSH2 0x2F01 PUSH2 0x9EF DUP4 PUSH2 0x2E45 JUMP JUMPDEST PUSH1 0x2 SLOAD DUP2 LT PUSH2 0x2F1C JUMPI PUSH2 0x2F1C PUSH2 0x9EF DUP3 PUSH1 0x2 DUP1 SLOAD SWAP1 POP PUSH2 0x4144 JUMP JUMPDEST DUP2 PUSH20 0xFFFFFFFFFFFFFFFFFFFFFFFFFFFFFFFFFFFFFFFF AND PUSH1 0x2 DUP3 DUP2 SLOAD DUP2 LT PUSH2 0x2F40 JUMPI INVALID JUMPDEST PUSH1 0x0 SWAP2 DUP3 MSTORE PUSH1 0x20 SWAP1 SWAP2 KECCAK256 ADD SLOAD PUSH20 0xFFFFFFFFFFFFFFFFFFFFFFFFFFFFFFFFFFFFFFFF AND EQ PUSH2 0x2FA2 JUMPI PUSH2 0x2FA2 PUSH2 0x9EF PUSH1 0x2 DUP4 DUP2 SLOAD DUP2 LT PUSH2 0x2F7A JUMPI INVALID JUMPDEST PUSH1 0x0 SWAP2 DUP3 MSTORE PUSH1 0x20 SWAP1 SWAP2 KECCAK256 ADD SLOAD PUSH20 0xFFFFFFFFFFFFFFFFFFFFFFFFFFFFFFFFFFFFFFFF AND DUP5 PUSH2 0x41B7 JUMP JUMPDEST PUSH20 0xFFFFFFFFFFFFFFFFFFFFFFFFFFFFFFFFFFFFFFFF DUP3 AND PUSH1 0x0 SWAP1 DUP2 MSTORE PUSH1 0x1 PUSH1 0x20 MSTORE PUSH1 0x40 SWAP1 KECCAK256 DUP1 SLOAD PUSH32 0xFFFFFFFFFFFFFFFFFFFFFFFFFFFFFFFFFFFFFFFFFFFFFFFFFFFFFFFFFFFFFF00 AND SWAP1 SSTORE PUSH1 0x2 DUP1 SLOAD PUSH32 0xFFFFFFFFFFFFFFFFFFFFFFFFFFFFFFFFFFFFFFFFFFFFFFFFFFFFFFFFFFFFFFFF DUP2 ADD SWAP1 DUP2 LT PUSH2 0x301D JUMPI INVALID JUMPDEST PUSH1 0x0 SWAP2 DUP3 MSTORE PUSH1 0x20 SWAP1 SWAP2 KECCAK256 ADD SLOAD PUSH1 0x2 DUP1 SLOAD PUSH20 0xFFFFFFFFFFFFFFFFFFFFFFFFFFFFFFFFFFFFFFFF SWAP1 SWAP3 AND SWAP2 DUP4 SWAP1 DUP2 LT PUSH2 0x3050 JUMPI INVALID JUMPDEST SWAP1 PUSH1 0x0 MSTORE PUSH1 0x20 PUSH1 0x0 KECCAK256 ADD PUSH1 0x0 PUSH2 0x100 EXP DUP2 SLOAD DUP2 PUSH20 0xFFFFFFFFFFFFFFFFFFFFFFFFFFFFFFFFFFFFFFFF MUL NOT AND SWAP1 DUP4 PUSH20 0xFFFFFFFFFFFFFFFFFFFFFFFFFFFFFFFFFFFFFFFF AND MUL OR SWAP1 SSTORE POP PUSH1 0x2 DUP1 SLOAD DUP1 PUSH2 0x30A3 JUMPI INVALID JUMPDEST PUSH1 0x0 DUP3 DUP2 MSTORE PUSH1 0x20 DUP2 KECCAK256 DUP3 ADD PUSH32 0xFFFFFFFFFFFFFFFFFFFFFFFFFFFFFFFFFFFFFFFFFFFFFFFFFFFFFFFFFFFFFFFF SWAP1 DUP2 ADD DUP1 SLOAD PUSH32 0xFFFFFFFFFFFFFFFFFFFFFFFF0000000000000000000000000000000000000000 AND SWAP1 SSTORE SWAP1 SWAP2 ADD SWAP1 SWAP2 SSTORE PUSH1 0x40 MLOAD CALLER SWAP2 PUSH20 0xFFFFFFFFFFFFFFFFFFFFFFFFFFFFFFFFFFFFFFFF DUP6 AND SWAP2 PUSH32 0x1F32C1B084E2DE0713B8FB16BD46BB9DF710A3DBEAE2F3CA93AF46E016DCC6B0 SWAP2 SWAP1 LOG3 POP POP JUMP JUMPDEST PUSH1 0x11 DUP6 SWAP1 SSTORE PUSH1 0x12 DUP1 SLOAD PUSH4 0xFFFFFFFF DUP1 DUP8 AND PUSH32 0xFFFFFFFFFFFFFFFFFFFFFFFFFFFFFFFFFFFFFFFFFFFFFFFFFFFFFFFF00000000 SWAP3 DUP4 AND DUP2 OR SWAP1 SWAP4 SSTORE PUSH1 0x13 DUP7 SWAP1 SSTORE PUSH1 0x14 DUP1 SLOAD DUP6 DUP4 AND PUSH5 0x100000000 DUP2 MUL PUSH32 0xFFFFFFFFFFFFFFFFFFFFFFFFFFFFFFFFFFFFFFFFFFFFFFFF00000000FFFFFFFF SWAP5 DUP10 AND SWAP3 SWAP1 SWAP6 AND DUP3 OR SWAP4 SWAP1 SWAP4 AND SWAP4 SWAP1 SWAP4 OR SWAP1 SSTORE PUSH1 0x40 DUP1 MLOAD DUP10 DUP2 MSTORE PUSH1 0x20 DUP2 ADD SWAP5 SWAP1 SWAP5 MSTORE DUP4 DUP2 ADD DUP8 SWAP1 MSTORE PUSH1 0x60 DUP5 ADD SWAP3 SWAP1 SWAP3 MSTORE PUSH1 0x80 DUP4 ADD MSTORE MLOAD PUSH32 0x613157DBB0E920DEAB8AD6DDD3805E87CBF57344B9FE780F1764790EC7897542 SWAP2 DUP2 SWAP1 SUB PUSH1 0xA0 ADD SWAP1 LOG1 POP POP POP POP POP JUMP JUMPDEST PUSH2 0x3221 PUSH2 0x5C64 JUMP JUMPDEST PUSH2 0x322A DUP4 PUSH2 0x287D JUMP JUMPDEST SWAP1 POP PUSH2 0x3254 PUSH2 0x1F47 DUP4 DUP4 PUSH1 0x40 ADD MLOAD PUSH12 0xFFFFFFFFFFFFFFFFFFFFFFFF AND PUSH2 0x3279 SWAP1 SWAP2 SWAP1 PUSH4 0xFFFFFFFF AND JUMP JUMPDEST PUSH12 0xFFFFFFFFFFFFFFFFFFFFFFFF SWAP1 DUP2 AND PUSH1 0x40 DUP4 ADD MSTORE PUSH1 0x20 DUP3 ADD MLOAD PUSH2 0x2A10 SWAP2 PUSH2 0x1F47 SWAP2 AND DUP5 JUMPDEST PUSH1 0x0 DUP3 DUP3 ADD DUP4 DUP2 LT ISZERO PUSH2 0x123F JUMPI PUSH2 0x123F PUSH2 0x9EF PUSH1 0x0 DUP7 DUP7 PUSH2 0x3B97 JUMP JUMPDEST PUSH2 0x329E DUP3 PUSH2 0x4243 JUMP JUMPDEST PUSH1 0x0 PUSH2 0x32AD DUP4 DUP4 PUSH1 0x0 DUP1 PUSH2 0x3558 JUMP JUMPDEST PUSH20 0xFFFFFFFFFFFFFFFFFFFFFFFFFFFFFFFFFFFFFFFF DUP4 AND PUSH1 0x0 SWAP1 DUP2 MSTORE PUSH1 0x6 PUSH1 0x20 SWAP1 DUP2 MSTORE PUSH1 0x40 DUP1 DUP4 KECCAK256 DUP8 DUP5 MSTORE SWAP1 SWAP2 MSTORE SWAP1 KECCAK256 SWAP1 SWAP2 POP PUSH2 0x32E9 SWAP1 PUSH2 0x287D JUMP JUMPDEST PUSH20 0xFFFFFFFFFFFFFFFFFFFFFFFFFFFFFFFFFFFFFFFF DUP4 DUP2 AND PUSH1 0x0 SWAP1 DUP2 MSTORE PUSH1 0x6 PUSH1 0x20 SWAP1 DUP2 MSTORE PUSH1 0x40 DUP1 DUP4 KECCAK256 DUP9 DUP5 MSTORE DUP3 MSTORE SWAP2 DUP3 SWAP1 KECCAK256 DUP5 MLOAD DUP2 SLOAD SWAP3 DUP7 ADD MLOAD SWAP6 SWAP1 SWAP4 ADD MLOAD PUSH32 0xFFFFFFFFFFFFFFFFFFFFFFFFFFFFFFFFFFFFFFFFFFFFFFFF0000000000000000 SWAP1 SWAP3 AND PUSH8 0xFFFFFFFFFFFFFFFF SWAP1 SWAP4 AND SWAP3 SWAP1 SWAP3 OR PUSH32 0xFFFFFFFFFFFFFFFFFFFFFFFF000000000000000000000000FFFFFFFFFFFFFFFF AND PUSH9 0x10000000000000000 PUSH12 0xFFFFFFFFFFFFFFFFFFFFFFFF SWAP6 DUP7 AND MUL OR SWAP1 SWAP3 AND PUSH21 0x10000000000000000000000000000000000000000 SWAP4 SWAP1 SWAP3 AND SWAP3 SWAP1 SWAP3 MUL OR SWAP1 SSTORE DUP1 ISZERO PUSH2 0x3464 JUMPI PUSH2 0x33CE DUP4 DUP3 PUSH2 0x424C JUMP JUMPDEST PUSH2 0x33D6 PUSH2 0x220B JUMP JUMPDEST PUSH20 0xFFFFFFFFFFFFFFFFFFFFFFFFFFFFFFFFFFFFFFFF AND PUSH4 0xA9059CBB DUP4 DUP4 PUSH1 0x40 MLOAD DUP4 PUSH4 0xFFFFFFFF AND PUSH1 0xE0 SHL DUP2 MSTORE PUSH1 0x4 ADD PUSH2 0x3410 SWAP3 SWAP2 SWAP1 PUSH2 0x610A JUMP JUMPDEST PUSH1 0x20 PUSH1 0x40 MLOAD DUP1 DUP4 SUB DUP2 PUSH1 0x0 DUP8 DUP1 EXTCODESIZE ISZERO DUP1 ISZERO PUSH2 0x342A JUMPI PUSH1 0x0 DUP1 REVERT JUMPDEST POP GAS CALL ISZERO DUP1 ISZERO PUSH2 0x343E JUMPI RETURNDATASIZE PUSH1 0x0 DUP1 RETURNDATACOPY RETURNDATASIZE PUSH1 0x0 REVERT JUMPDEST POP POP POP POP PUSH1 0x40 MLOAD RETURNDATASIZE PUSH1 0x1F NOT PUSH1 0x1F DUP3 ADD AND DUP3 ADD DUP1 PUSH1 0x40 MSTORE POP DUP2 ADD SWAP1 PUSH2 0x3462 SWAP2 SWAP1 PUSH2 0x5F23 JUMP JUMPDEST POP JUMPDEST PUSH2 0x11B1 DUP4 PUSH2 0x4288 JUMP JUMPDEST PUSH1 0x0 DUP1 PUSH2 0x3479 DUP4 PUSH2 0x4295 JUMP JUMPDEST SWAP1 SWAP5 SWAP1 SWAP4 POP SWAP2 POP POP JUMP JUMPDEST PUSH1 0x0 DUP1 DUP3 PUSH2 0x3493 JUMPI DUP4 SWAP2 POP PUSH2 0x34B6 JUMP JUMPDEST PUSH2 0x34A7 PUSH4 0xFFFFFFFF DUP7 AND PUSH3 0xF4240 DUP7 PUSH2 0x42A1 JUMP JUMPDEST SWAP2 POP PUSH2 0x34B3 DUP5 DUP4 PUSH2 0x2643 JUMP JUMPDEST SWAP1 POP JUMPDEST SWAP4 POP SWAP4 SWAP2 POP POP JUMP JUMPDEST PUSH1 0x0 DUP2 DUP2 MSTORE PUSH1 0xA PUSH1 0x20 MSTORE PUSH1 0x40 SWAP1 KECCAK256 SLOAD PUSH20 0xFFFFFFFFFFFFFFFFFFFFFFFFFFFFFFFFFFFFFFFF AND ISZERO PUSH2 0x11E6 JUMPI PUSH2 0x11E6 PUSH2 0x9EF DUP3 PUSH1 0x0 PUSH2 0x42C5 JUMP JUMPDEST PUSH2 0x34FE PUSH2 0x4339 JUMP JUMPDEST TIMESTAMP PUSH1 0xD SSTORE PUSH1 0x1 PUSH1 0xC SSTORE JUMP JUMPDEST PUSH2 0x3511 PUSH2 0x434E JUMP JUMPDEST PUSH3 0x127500 PUSH3 0xDBBA0 PUSH9 0x56BC75E2D63100000 PUSH1 0x2 PUSH1 0x3 PUSH2 0x2DF6 DUP6 DUP6 DUP6 DUP6 DUP6 PUSH2 0x3143 JUMP JUMPDEST DUP1 PUSH12 0xFFFFFFFFFFFFFFFFFFFFFFFF DUP2 AND DUP2 EQ PUSH2 0xD68 JUMPI PUSH2 0xD68 PUSH2 0x9EF PUSH1 0x2 DUP5 PUSH2 0x43B3 JUMP JUMPDEST PUSH1 0xC SLOAD PUSH1 0x0 SWAP1 PUSH2 0x3566 PUSH2 0x5C64 JUMP JUMPDEST POP PUSH20 0xFFFFFFFFFFFFFFFFFFFFFFFFFFFFFFFFFFFFFFFF DUP6 AND PUSH1 0x0 SWAP1 DUP2 MSTORE PUSH1 0x6 PUSH1 0x20 SWAP1 DUP2 MSTORE PUSH1 0x40 DUP1 DUP4 KECCAK256 DUP10 DUP5 MSTORE DUP3 MSTORE SWAP2 DUP3 SWAP1 KECCAK256 DUP3 MLOAD PUSH1 0x60 DUP2 ADD DUP5 MSTORE SWAP1 SLOAD PUSH8 0xFFFFFFFFFFFFFFFF DUP2 AND DUP1 DUP4 MSTORE PUSH12 0xFFFFFFFFFFFFFFFFFFFFFFFF PUSH9 0x10000000000000000 DUP4 DIV DUP2 AND SWAP5 DUP5 ADD SWAP5 SWAP1 SWAP5 MSTORE PUSH21 0x10000000000000000000000000000000000000000 SWAP1 SWAP2 DIV SWAP1 SWAP3 AND SWAP3 DUP2 ADD SWAP3 SWAP1 SWAP3 MSTORE DUP3 EQ ISZERO PUSH2 0x3607 JUMPI PUSH1 0x0 SWAP3 POP POP POP PUSH2 0x3691 JUMP JUMPDEST PUSH2 0x3613 DUP2 DUP4 DUP8 DUP8 PUSH2 0x4445 JUMP JUMPDEST DUP2 MLOAD SWAP1 SWAP4 POP PUSH1 0x0 SWAP1 PUSH2 0x3630 SWAP1 PUSH8 0xFFFFFFFFFFFFFFFF AND PUSH1 0x1 PUSH2 0x3279 JUMP JUMPDEST SWAP1 POP PUSH2 0x3668 PUSH2 0x3661 DUP10 DUP5 PUSH1 0x20 ADD MLOAD PUSH12 0xFFFFFFFFFFFFFFFFFFFFFFFF AND DUP6 PUSH1 0x0 ADD MLOAD PUSH8 0xFFFFFFFFFFFFFFFF AND DUP6 PUSH2 0x44C2 JUMP JUMPDEST DUP6 SWAP1 PUSH2 0x3279 JUMP JUMPDEST SWAP4 POP PUSH2 0x368B PUSH2 0x3661 DUP10 DUP5 PUSH1 0x40 ADD MLOAD PUSH12 0xFFFFFFFFFFFFFFFFFFFFFFFF AND DUP5 DUP8 PUSH2 0x44C2 JUMP JUMPDEST SWAP4 POP POP POP POP JUMPDEST SWAP5 SWAP4 POP POP POP POP JUMP JUMPDEST PUSH1 0x40 DUP1 MLOAD PUSH20 0xFFFFFFFFFFFFFFFFFFFFFFFFFFFFFFFFFFFFFFFF DUP4 AND PUSH1 0x24 DUP1 DUP4 ADD SWAP2 SWAP1 SWAP2 MSTORE DUP3 MLOAD DUP1 DUP4 SUB SWAP1 SWAP2 ADD DUP2 MSTORE PUSH1 0x44 SWAP1 SWAP2 ADD SWAP1 SWAP2 MSTORE PUSH1 0x20 DUP2 ADD DUP1 MLOAD PUSH28 0xFFFFFFFFFFFFFFFFFFFFFFFFFFFFFFFFFFFFFFFFFFFFFFFFFFFFFFFF AND PUSH32 0x61ECB80200000000000000000000000000000000000000000000000000000000 OR SWAP1 MSTORE SWAP2 SWAP1 POP JUMP JUMPDEST PUSH1 0x0 DUP3 DUP2 MSTORE PUSH1 0xA PUSH1 0x20 MSTORE PUSH1 0x40 DUP2 KECCAK256 SLOAD DUP2 SWAP1 DUP2 SWAP1 PUSH2 0x374F SWAP1 PUSH20 0xFFFFFFFFFFFFFFFFFFFFFFFFFFFFFFFFFFFFFFFF AND DUP7 PUSH2 0x2223 JUMP JUMPDEST PUSH1 0x20 ADD MLOAD PUSH12 0xFFFFFFFFFFFFFFFFFFFFFFFF AND SWAP1 POP PUSH2 0x376D DUP5 DUP3 PUSH2 0x2643 JUMP JUMPDEST PUSH1 0x12 SLOAD SWAP1 SWAP4 POP PUSH2 0x3792 SWAP1 PUSH2 0x378B SWAP1 PUSH4 0xFFFFFFFF AND PUSH3 0xF4240 DUP7 PUSH2 0x455B JUMP JUMPDEST DUP3 SWAP1 PUSH2 0x3279 JUMP JUMPDEST SWAP2 POP POP SWAP3 POP SWAP3 SWAP1 POP JUMP JUMPDEST PUSH1 0x40 DUP1 MLOAD DUP1 DUP3 ADD SWAP1 SWAP2 MSTORE PUSH1 0x4 DUP2 MSTORE PUSH32 0xE69EDC3E00000000000000000000000000000000000000000000000000000000 PUSH1 0x20 DUP3 ADD MSTORE SWAP1 JUMP JUMPDEST EXTCODESIZE ISZERO ISZERO SWAP1 JUMP JUMPDEST DUP2 MLOAD PUSH1 0x0 SWAP1 PUSH2 0x37E7 JUMPI PUSH2 0x1242 JUMP JUMPDEST PUSH1 0x0 PUSH2 0x37F6 DUP5 PUSH1 0x20 ADD MLOAD PUSH2 0x137B JUMP JUMPDEST DUP5 MLOAD PUSH1 0x20 DUP7 ADD MLOAD PUSH1 0x60 DUP7 ADD MLOAD PUSH1 0x14 SLOAD SWAP4 SWAP5 POP PUSH2 0x382A SWAP4 DUP6 SWAP4 SWAP3 DUP5 SWAP3 SWAP1 SWAP2 PUSH4 0xFFFFFFFF DUP1 DUP3 AND SWAP2 PUSH5 0x100000000 SWAP1 DIV AND PUSH2 0x456B JUMP JUMPDEST PUSH1 0x80 DUP5 ADD MLOAD DUP5 MLOAD SWAP2 SWAP4 POP PUSH1 0x0 SWAP2 PUSH2 0x3840 SWAP2 PUSH2 0x2643 JUMP JUMPDEST SWAP1 POP DUP3 DUP2 LT ISZERO PUSH2 0x384E JUMPI DUP1 SWAP3 POP JUMPDEST POP POP SWAP3 SWAP2 POP POP JUMP JUMPDEST PUSH1 0x0 DUP1 PUSH2 0x3861 PUSH2 0x5CA5 JUMP JUMPDEST POP PUSH1 0x0 DUP6 DUP2 MSTORE PUSH1 0xA PUSH1 0x20 SWAP1 DUP2 MSTORE PUSH1 0x40 SWAP2 DUP3 SWAP1 KECCAK256 DUP3 MLOAD PUSH1 0x80 DUP2 ADD DUP5 MSTORE DUP2 SLOAD PUSH20 0xFFFFFFFFFFFFFFFFFFFFFFFFFFFFFFFFFFFFFFFF SWAP1 DUP2 AND DUP3 MSTORE PUSH1 0x1 SWAP1 SWAP3 ADD SLOAD SWAP2 DUP3 AND SWAP3 DUP2 ADD SWAP3 SWAP1 SWAP3 MSTORE PUSH4 0xFFFFFFFF PUSH21 0x10000000000000000000000000000000000000000 DUP3 DIV DUP2 AND SWAP4 DUP4 ADD DUP5 SWAP1 MSTORE PUSH25 0x1000000000000000000000000000000000000000000000000 SWAP1 SWAP2 DIV AND PUSH1 0x60 DUP3 ADD MSTORE SWAP1 PUSH2 0x38FC SWAP1 DUP7 DUP7 PUSH2 0x3483 JUMP JUMPDEST SWAP1 SWAP4 POP SWAP2 POP DUP3 ISZERO PUSH2 0x3B73 JUMPI DUP1 PUSH1 0x20 ADD MLOAD PUSH20 0xFFFFFFFFFFFFFFFFFFFFFFFFFFFFFFFFFFFFFFFF AND DUP2 PUSH1 0x0 ADD MLOAD PUSH20 0xFFFFFFFFFFFFFFFFFFFFFFFFFFFFFFFFFFFFFFFF AND EQ ISZERO PUSH2 0x39F9 JUMPI PUSH2 0x394B PUSH2 0x220B JUMP JUMPDEST DUP2 MLOAD PUSH1 0x40 MLOAD PUSH32 0xA9059CBB00000000000000000000000000000000000000000000000000000000 DUP2 MSTORE PUSH20 0xFFFFFFFFFFFFFFFFFFFFFFFFFFFFFFFFFFFFFFFF SWAP3 SWAP1 SWAP3 AND SWAP2 PUSH4 0xA9059CBB SWAP2 PUSH2 0x39A1 SWAP2 DUP8 SWAP1 PUSH1 0x4 ADD PUSH2 0x610A JUMP JUMPDEST PUSH1 0x20 PUSH1 0x40 MLOAD DUP1 DUP4 SUB DUP2 PUSH1 0x0 DUP8 DUP1 EXTCODESIZE ISZERO DUP1 ISZERO PUSH2 0x39BB JUMPI PUSH1 0x0 DUP1 REVERT JUMPDEST POP GAS CALL ISZERO DUP1 ISZERO PUSH2 0x39CF JUMPI RETURNDATASIZE PUSH1 0x0 DUP1 RETURNDATACOPY RETURNDATASIZE PUSH1 0x0 REVERT JUMPDEST POP POP POP POP PUSH1 0x40 MLOAD RETURNDATASIZE PUSH1 0x1F NOT PUSH1 0x1F DUP3 ADD AND DUP3 ADD DUP1 PUSH1 0x40 MSTORE POP DUP2 ADD SWAP1 PUSH2 0x39F3 SWAP2 SWAP1 PUSH2 0x5F23 JUMP JUMPDEST POP PUSH2 0x3B73 JUMP JUMPDEST PUSH1 0x0 PUSH2 0x3A2B PUSH3 0xF4240 PUSH4 0xFFFFFFFF AND PUSH2 0x3A25 DUP5 PUSH1 0x60 ADD MLOAD PUSH4 0xFFFFFFFF AND DUP8 PUSH2 0x462D SWAP1 SWAP2 SWAP1 PUSH4 0xFFFFFFFF AND JUMP JUMPDEST SWAP1 PUSH2 0x465E JUMP JUMPDEST SWAP1 POP PUSH2 0x3A35 PUSH2 0x220B JUMP JUMPDEST PUSH20 0xFFFFFFFFFFFFFFFFFFFFFFFFFFFFFFFFFFFFFFFF AND PUSH4 0xA9059CBB DUP4 PUSH1 0x20 ADD MLOAD DUP4 PUSH1 0x40 MLOAD DUP4 PUSH4 0xFFFFFFFF AND PUSH1 0xE0 SHL DUP2 MSTORE PUSH1 0x4 ADD PUSH2 0x3A73 SWAP3 SWAP2 SWAP1 PUSH2 0x610A JUMP JUMPDEST PUSH1 0x20 PUSH1 0x40 MLOAD DUP1 DUP4 SUB DUP2 PUSH1 0x0 DUP8 DUP1 EXTCODESIZE ISZERO DUP1 ISZERO PUSH2 0x3A8D JUMPI PUSH1 0x0 DUP1 REVERT JUMPDEST POP GAS CALL ISZERO DUP1 ISZERO PUSH2 0x3AA1 JUMPI RETURNDATASIZE PUSH1 0x0 DUP1 RETURNDATACOPY RETURNDATASIZE PUSH1 0x0 REVERT JUMPDEST POP POP POP POP PUSH1 0x40 MLOAD RETURNDATASIZE PUSH1 0x1F NOT PUSH1 0x1F DUP3 ADD AND DUP3 ADD DUP1 PUSH1 0x40 MSTORE POP DUP2 ADD SWAP1 PUSH2 0x3AC5 SWAP2 SWAP1 PUSH2 0x5F23 JUMP JUMPDEST POP PUSH2 0x3ACE PUSH2 0x220B JUMP JUMPDEST PUSH20 0xFFFFFFFFFFFFFFFFFFFFFFFFFFFFFFFFFFFFFFFF AND PUSH4 0xA9059CBB DUP4 PUSH1 0x0 ADD MLOAD PUSH2 0x3B01 DUP5 DUP9 PUSH2 0x2643 SWAP1 SWAP2 SWAP1 PUSH4 0xFFFFFFFF AND JUMP JUMPDEST PUSH1 0x40 MLOAD DUP4 PUSH4 0xFFFFFFFF AND PUSH1 0xE0 SHL DUP2 MSTORE PUSH1 0x4 ADD PUSH2 0x3B1E SWAP3 SWAP2 SWAP1 PUSH2 0x610A JUMP JUMPDEST PUSH1 0x20 PUSH1 0x40 MLOAD DUP1 DUP4 SUB DUP2 PUSH1 0x0 DUP8 DUP1 EXTCODESIZE ISZERO DUP1 ISZERO PUSH2 0x3B38 JUMPI PUSH1 0x0 DUP1 REVERT JUMPDEST POP GAS CALL ISZERO DUP1 ISZERO PUSH2 0x3B4C JUMPI RETURNDATASIZE PUSH1 0x0 DUP1 RETURNDATACOPY RETURNDATASIZE PUSH1 0x0 REVERT JUMPDEST POP POP POP POP PUSH1 0x40 MLOAD RETURNDATASIZE PUSH1 0x1F NOT PUSH1 0x1F DUP3 ADD AND DUP3 ADD DUP1 PUSH1 0x40 MSTORE POP DUP2 ADD SWAP1 PUSH2 0x3B70 SWAP2 SWAP1 PUSH2 0x5F23 JUMP JUMPDEST POP POP JUMPDEST DUP2 ISZERO PUSH2 0x3B8E JUMPI PUSH2 0x3B83 DUP7 DUP4 PUSH2 0x4688 JUMP JUMPDEST PUSH2 0x3B8E DUP7 DUP4 DUP7 PUSH2 0x46BD JUMP JUMPDEST POP SWAP4 POP SWAP4 SWAP2 POP POP JUMP JUMPDEST PUSH1 0x60 PUSH4 0xE946C1BB PUSH1 0xE0 SHL DUP5 DUP5 DUP5 PUSH1 0x40 MLOAD PUSH1 0x24 ADD DUP1 DUP5 PUSH1 0x3 DUP2 GT ISZERO PUSH2 0x3BB7 JUMPI INVALID JUMPDEST DUP2 MSTORE PUSH1 0x20 ADD DUP4 DUP2 MSTORE PUSH1 0x20 ADD DUP3 DUP2 MSTORE PUSH1 0x20 ADD SWAP4 POP POP POP POP PUSH1 0x40 MLOAD PUSH1 0x20 DUP2 DUP4 SUB SUB DUP2 MSTORE SWAP1 PUSH1 0x40 MSTORE SWAP1 PUSH28 0xFFFFFFFFFFFFFFFFFFFFFFFFFFFFFFFFFFFFFFFFFFFFFFFFFFFFFFFF NOT AND PUSH1 0x20 DUP3 ADD DUP1 MLOAD PUSH28 0xFFFFFFFFFFFFFFFFFFFFFFFFFFFFFFFFFFFFFFFFFFFFFFFFFFFFFFFF DUP4 DUP2 DUP4 AND OR DUP4 MSTORE POP POP POP POP SWAP1 POP SWAP4 SWAP3 POP POP POP JUMP JUMPDEST PUSH1 0x40 DUP1 MLOAD PUSH1 0x24 DUP2 ADD DUP5 SWAP1 MSTORE PUSH1 0x44 DUP1 DUP3 ADD DUP5 SWAP1 MSTORE DUP3 MLOAD DUP1 DUP4 SUB SWAP1 SWAP2 ADD DUP2 MSTORE PUSH1 0x64 SWAP1 SWAP2 ADD SWAP1 SWAP2 MSTORE PUSH1 0x20 DUP2 ADD DUP1 MLOAD PUSH28 0xFFFFFFFFFFFFFFFFFFFFFFFFFFFFFFFFFFFFFFFFFFFFFFFFFFFFFFFF AND PUSH32 0xA6BCDE4700000000000000000000000000000000000000000000000000000000 OR SWAP1 MSTORE SWAP3 SWAP2 POP POP JUMP JUMPDEST PUSH1 0x40 DUP1 MLOAD PUSH20 0xFFFFFFFFFFFFFFFFFFFFFFFFFFFFFFFFFFFFFFFF DUP4 AND PUSH1 0x24 DUP1 DUP4 ADD SWAP2 SWAP1 SWAP2 MSTORE DUP3 MLOAD DUP1 DUP4 SUB SWAP1 SWAP2 ADD DUP2 MSTORE PUSH1 0x44 SWAP1 SWAP2 ADD SWAP1 SWAP2 MSTORE PUSH1 0x20 DUP2 ADD DUP1 MLOAD PUSH28 0xFFFFFFFFFFFFFFFFFFFFFFFFFFFFFFFFFFFFFFFFFFFFFFFFFFFFFFFF AND PUSH32 0xB65A25B900000000000000000000000000000000000000000000000000000000 OR SWAP1 MSTORE SWAP2 SWAP1 POP JUMP JUMPDEST DUP1 PUSH8 0xFFFFFFFFFFFFFFFF DUP2 AND DUP2 EQ PUSH2 0xD68 JUMPI PUSH2 0xD68 PUSH2 0x9EF PUSH1 0x1 DUP5 PUSH2 0x43B3 JUMP JUMPDEST DUP1 MLOAD DUP3 SLOAD PUSH1 0x40 DUP4 ADD MLOAD PUSH1 0x20 SWAP1 SWAP4 ADD MLOAD PUSH12 0xFFFFFFFFFFFFFFFFFFFFFFFF SWAP1 DUP2 AND PUSH9 0x10000000000000000 MUL PUSH32 0xFFFFFFFFFFFFFFFFFFFFFFFF000000000000000000000000FFFFFFFFFFFFFFFF SWAP2 SWAP1 SWAP5 AND PUSH21 0x10000000000000000000000000000000000000000 MUL PUSH20 0xFFFFFFFFFFFFFFFFFFFFFFFFFFFFFFFFFFFFFFFF PUSH8 0xFFFFFFFFFFFFFFFF SWAP1 SWAP5 AND PUSH32 0xFFFFFFFFFFFFFFFFFFFFFFFFFFFFFFFFFFFFFFFFFFFFFFFF0000000000000000 SWAP1 SWAP4 AND SWAP3 SWAP1 SWAP3 OR SWAP3 SWAP1 SWAP3 AND OR AND OR SWAP1 SSTORE JUMP JUMPDEST PUSH1 0x40 DUP1 MLOAD PUSH20 0xFFFFFFFFFFFFFFFFFFFFFFFFFFFFFFFFFFFFFFFF DUP5 AND PUSH1 0x24 DUP3 ADD MSTORE PUSH1 0x44 DUP1 DUP3 ADD DUP5 SWAP1 MSTORE DUP3 MLOAD DUP1 DUP4 SUB SWAP1 SWAP2 ADD DUP2 MSTORE PUSH1 0x64 SWAP1 SWAP2 ADD SWAP1 SWAP2 MSTORE PUSH1 0x20 DUP2 ADD DUP1 MLOAD PUSH28 0xFFFFFFFFFFFFFFFFFFFFFFFFFFFFFFFFFFFFFFFFFFFFFFFFFFFFFFFF AND PUSH32 0x82DED78500000000000000000000000000000000000000000000000000000000 OR SWAP1 MSTORE SWAP3 SWAP2 POP POP JUMP JUMPDEST PUSH1 0x40 DUP1 MLOAD PUSH20 0xFFFFFFFFFFFFFFFFFFFFFFFFFFFFFFFFFFFFFFFF DUP1 DUP6 AND PUSH1 0x24 DUP4 ADD MSTORE DUP4 AND PUSH1 0x44 DUP1 DUP4 ADD SWAP2 SWAP1 SWAP2 MSTORE DUP3 MLOAD DUP1 DUP4 SUB SWAP1 SWAP2 ADD DUP2 MSTORE PUSH1 0x64 SWAP1 SWAP2 ADD SWAP1 SWAP2 MSTORE PUSH1 0x20 DUP2 ADD DUP1 MLOAD PUSH28 0xFFFFFFFFFFFFFFFFFFFFFFFFFFFFFFFFFFFFFFFFFFFFFFFFFFFFFFFF AND PUSH32 0x1DE45AD100000000000000000000000000000000000000000000000000000000 OR SWAP1 MSTORE SWAP3 SWAP2 POP POP JUMP JUMPDEST PUSH1 0x40 DUP1 MLOAD DUP1 DUP3 ADD SWAP1 SWAP2 MSTORE PUSH1 0x4 DUP2 MSTORE PUSH32 0x57654FE400000000000000000000000000000000000000000000000000000000 PUSH1 0x20 DUP3 ADD MSTORE SWAP1 JUMP JUMPDEST PUSH1 0x40 DUP1 MLOAD PUSH20 0xFFFFFFFFFFFFFFFFFFFFFFFFFFFFFFFFFFFFFFFF DUP4 AND PUSH1 0x24 DUP1 DUP4 ADD SWAP2 SWAP1 SWAP2 MSTORE DUP3 MLOAD DUP1 DUP4 SUB SWAP1 SWAP2 ADD DUP2 MSTORE PUSH1 0x44 SWAP1 SWAP2 ADD SWAP1 SWAP2 MSTORE PUSH1 0x20 DUP2 ADD DUP1 MLOAD PUSH28 0xFFFFFFFFFFFFFFFFFFFFFFFFFFFFFFFFFFFFFFFFFFFFFFFFFFFFFFFF AND PUSH32 0xDE16F1A000000000000000000000000000000000000000000000000000000000 OR SWAP1 MSTORE SWAP2 SWAP1 POP JUMP JUMPDEST PUSH1 0x0 DUP2 DUP2 MSTORE PUSH1 0xA PUSH1 0x20 MSTORE PUSH1 0x40 SWAP1 KECCAK256 SLOAD PUSH20 0xFFFFFFFFFFFFFFFFFFFFFFFFFFFFFFFFFFFFFFFF AND PUSH2 0x11E6 JUMPI PUSH2 0x11E6 PUSH2 0x9EF DUP3 PUSH1 0x0 PUSH2 0x42C5 JUMP JUMPDEST PUSH2 0x4010 PUSH2 0x5C64 JUMP JUMPDEST PUSH2 0x4019 DUP4 PUSH2 0x287D JUMP JUMPDEST SWAP1 POP PUSH2 0x4043 PUSH2 0x1F47 DUP4 DUP4 PUSH1 0x40 ADD MLOAD PUSH12 0xFFFFFFFFFFFFFFFFFFFFFFFF AND PUSH2 0x2643 SWAP1 SWAP2 SWAP1 PUSH4 0xFFFFFFFF AND JUMP JUMPDEST PUSH12 0xFFFFFFFFFFFFFFFFFFFFFFFF AND PUSH1 0x40 DUP3 ADD MSTORE PUSH2 0x11B1 DUP4 DUP3 PUSH2 0x3D49 JUMP JUMPDEST PUSH2 0x4068 PUSH2 0x5C64 JUMP JUMPDEST PUSH2 0x4071 DUP4 PUSH2 0x287D JUMP JUMPDEST SWAP1 POP PUSH2 0x4043 PUSH2 0x1F47 DUP4 DUP4 PUSH1 0x40 ADD MLOAD PUSH12 0xFFFFFFFFFFFFFFFFFFFFFFFF AND PUSH2 0x3279 SWAP1 SWAP2 SWAP1 PUSH4 0xFFFFFFFF AND JUMP JUMPDEST EQ PUSH1 0x1 AND SWAP1 JUMP JUMPDEST PUSH1 0x60 PUSH4 0x22DF9597 PUSH1 0xE0 SHL DUP5 DUP5 DUP5 PUSH1 0x40 MLOAD PUSH1 0x24 ADD DUP1 DUP5 PUSH1 0x1 DUP2 GT ISZERO PUSH2 0x40C2 JUMPI INVALID JUMPDEST DUP2 MSTORE PUSH1 0x20 ADD DUP4 DUP2 MSTORE PUSH1 0x20 ADD DUP3 PUSH4 0xFFFFFFFF AND DUP2 MSTORE PUSH1 0x20 ADD SWAP4 POP POP POP POP PUSH1 0x40 MLOAD PUSH1 0x20 DUP2 DUP4 SUB SUB DUP2 MSTORE SWAP1 PUSH1 0x40 MSTORE SWAP1 PUSH28 0xFFFFFFFFFFFFFFFFFFFFFFFFFFFFFFFFFFFFFFFFFFFFFFFFFFFFFFFF NOT AND PUSH1 0x20 DUP3 ADD DUP1 MLOAD PUSH28 0xFFFFFFFFFFFFFFFFFFFFFFFFFFFFFFFFFFFFFFFFFFFFFFFFFFFFFFFF DUP4 DUP2 DUP4 AND OR DUP4 MSTORE POP POP POP POP SWAP1 POP SWAP4 SWAP3 POP POP POP JUMP JUMPDEST PUSH1 0x40 DUP1 MLOAD PUSH1 0x24 DUP2 ADD DUP5 SWAP1 MSTORE PUSH1 0x44 DUP1 DUP3 ADD DUP5 SWAP1 MSTORE DUP3 MLOAD DUP1 DUP4 SUB SWAP1 SWAP2 ADD DUP2 MSTORE PUSH1 0x64 SWAP1 SWAP2 ADD SWAP1 SWAP2 MSTORE PUSH1 0x20 DUP2 ADD DUP1 MLOAD PUSH28 0xFFFFFFFFFFFFFFFFFFFFFFFFFFFFFFFFFFFFFFFFFFFFFFFFFFFFFFFF AND PUSH32 0xE9F8377100000000000000000000000000000000000000000000000000000000 OR SWAP1 MSTORE SWAP3 SWAP2 POP POP JUMP JUMPDEST PUSH1 0x40 DUP1 MLOAD PUSH20 0xFFFFFFFFFFFFFFFFFFFFFFFFFFFFFFFFFFFFFFFF DUP1 DUP6 AND PUSH1 0x24 DUP4 ADD MSTORE DUP4 AND PUSH1 0x44 DUP1 DUP4 ADD SWAP2 SWAP1 SWAP2 MSTORE DUP3 MLOAD DUP1 DUP4 SUB SWAP1 SWAP2 ADD DUP2 MSTORE PUSH1 0x64 SWAP1 SWAP2 ADD SWAP1 SWAP2 MSTORE PUSH1 0x20 DUP2 ADD DUP1 MLOAD PUSH28 0xFFFFFFFFFFFFFFFFFFFFFFFFFFFFFFFFFFFFFFFFFFFFFFFFFFFFFFFF AND PUSH32 0x140A84DB00000000000000000000000000000000000000000000000000000000 OR SWAP1 MSTORE SWAP3 SWAP2 POP POP JUMP JUMPDEST PUSH2 0x11E6 DUP2 PUSH2 0x47A6 JUMP JUMPDEST PUSH1 0x0 DUP3 DUP2 MSTORE PUSH1 0xB PUSH1 0x20 MSTORE PUSH1 0x40 SWAP1 KECCAK256 SLOAD PUSH2 0x4265 SWAP1 DUP3 PUSH2 0x2643 JUMP JUMPDEST PUSH1 0x0 DUP4 DUP2 MSTORE PUSH1 0xB PUSH1 0x20 MSTORE PUSH1 0x40 SWAP1 KECCAK256 SSTORE PUSH1 0x17 SLOAD PUSH2 0x4281 SWAP1 DUP3 PUSH2 0x2643 JUMP JUMPDEST PUSH1 0x17 SSTORE POP POP JUMP JUMPDEST PUSH2 0x11E6 DUP2 PUSH1 0x0 PUSH1 0x1 PUSH2 0x46BD JUMP JUMPDEST PUSH1 0x0 DUP1 PUSH2 0x3479 DUP4 PUSH2 0x47AF JUMP JUMPDEST PUSH1 0x0 PUSH2 0x3691 DUP4 PUSH2 0x3A25 PUSH2 0x42B5 DUP3 PUSH1 0x1 PUSH2 0x2643 JUMP JUMPDEST PUSH2 0x42BF DUP9 DUP8 PUSH2 0x462D JUMP JUMPDEST SWAP1 PUSH2 0x3279 JUMP JUMPDEST PUSH1 0x40 DUP1 MLOAD PUSH1 0x24 DUP2 ADD SWAP4 SWAP1 SWAP4 MSTORE SWAP1 ISZERO ISZERO PUSH1 0x44 DUP1 DUP5 ADD SWAP2 SWAP1 SWAP2 MSTORE DUP2 MLOAD DUP1 DUP5 SUB SWAP1 SWAP2 ADD DUP2 MSTORE PUSH1 0x64 SWAP1 SWAP3 ADD SWAP1 MSTORE PUSH1 0x20 DUP2 ADD DUP1 MLOAD PUSH28 0xFFFFFFFFFFFFFFFFFFFFFFFFFFFFFFFFFFFFFFFFFFFFFFFFFFFFFFFF AND PUSH32 0x9AE94F0100000000000000000000000000000000000000000000000000000000 OR SWAP1 MSTORE SWAP1 JUMP JUMPDEST PUSH1 0xD SLOAD ISZERO PUSH2 0x1E43 JUMPI PUSH2 0x1E43 PUSH2 0x9EF PUSH1 0x0 PUSH2 0x486C JUMP JUMPDEST PUSH1 0x11 SLOAD ISZERO DUP1 ISZERO SWAP1 PUSH2 0x4366 JUMPI POP PUSH1 0x12 SLOAD PUSH4 0xFFFFFFFF AND ISZERO ISZERO JUMPDEST DUP1 ISZERO PUSH2 0x4373 JUMPI POP PUSH1 0x13 SLOAD ISZERO ISZERO JUMPDEST DUP1 ISZERO PUSH2 0x4386 JUMPI POP PUSH1 0x14 SLOAD PUSH4 0xFFFFFFFF AND ISZERO ISZERO JUMPDEST DUP1 ISZERO PUSH2 0x43A1 JUMPI POP PUSH1 0x14 SLOAD PUSH5 0x100000000 SWAP1 DIV PUSH4 0xFFFFFFFF AND ISZERO ISZERO JUMPDEST ISZERO PUSH2 0x1E43 JUMPI PUSH2 0x1E43 PUSH2 0x9EF PUSH1 0x1 PUSH2 0x486C JUMP JUMPDEST PUSH1 0x60 PUSH4 0xC996AF7B PUSH1 0xE0 SHL DUP4 DUP4 PUSH1 0x40 MLOAD PUSH1 0x24 ADD DUP1 DUP4 PUSH1 0x2 DUP2 GT ISZERO PUSH2 0x43D2 JUMPI INVALID JUMPDEST DUP2 MSTORE PUSH1 0x20 DUP1 DUP3 ADD SWAP4 SWAP1 SWAP4 MSTORE PUSH1 0x40 DUP1 MLOAD DUP1 DUP4 SUB DUP6 ADD DUP2 MSTORE SWAP2 DUP2 ADD SWAP1 MSTORE SWAP2 DUP3 ADD DUP1 MLOAD PUSH28 0xFFFFFFFFFFFFFFFFFFFFFFFFFFFFFFFFFFFFFFFFFFFFFFFFFFFFFFFF AND PUSH32 0xFFFFFFFF00000000000000000000000000000000000000000000000000000000 SWAP1 SWAP6 AND SWAP5 SWAP1 SWAP5 OR SWAP1 SWAP4 MSTORE SWAP3 POP POP POP SWAP3 SWAP2 POP POP JUMP JUMPDEST PUSH1 0x0 DUP3 ISZERO DUP1 PUSH2 0x4452 JUMPI POP DUP2 ISZERO JUMPDEST ISZERO PUSH2 0x445F JUMPI POP PUSH1 0x0 PUSH2 0x3691 JUMP JUMPDEST PUSH1 0x0 PUSH2 0x446C DUP6 PUSH1 0x1 PUSH2 0x2643 JUMP JUMPDEST DUP7 MLOAD PUSH8 0xFFFFFFFFFFFFFFFF AND LT ISZERO PUSH2 0x4488 JUMPI DUP6 PUSH1 0x40 ADD MLOAD PUSH2 0x448E JUMP JUMPDEST DUP6 PUSH1 0x20 ADD MLOAD JUMPDEST PUSH12 0xFFFFFFFFFFFFFFFFFFFFFFFF AND SWAP1 POP DUP1 PUSH2 0x44AD JUMPI PUSH1 0x0 SWAP2 POP POP PUSH2 0x3691 JUMP JUMPDEST PUSH2 0x44B8 DUP5 DUP5 DUP4 PUSH2 0x455B JUMP JUMPDEST SWAP7 SWAP6 POP POP POP POP POP POP JUMP JUMPDEST PUSH1 0x0 DUP4 ISZERO DUP1 PUSH2 0x44D0 JUMPI POP DUP2 DUP4 EQ JUMPDEST ISZERO PUSH2 0x44DD JUMPI POP PUSH1 0x0 PUSH2 0x3691 JUMP JUMPDEST DUP2 DUP4 LT PUSH2 0x4516 JUMPI PUSH1 0x40 MLOAD PUSH32 0x8C379A000000000000000000000000000000000000000000000000000000000 DUP2 MSTORE PUSH1 0x4 ADD PUSH2 0xC0C SWAP1 PUSH2 0x6283 JUMP JUMPDEST PUSH2 0x451E PUSH2 0x5CCC JUMP JUMPDEST PUSH2 0x4528 DUP7 DUP6 PUSH2 0x4912 JUMP JUMPDEST SWAP1 POP PUSH2 0x4532 PUSH2 0x5CCC JUMP JUMPDEST PUSH2 0x453C DUP8 DUP6 PUSH2 0x4912 JUMP JUMPDEST SWAP1 POP PUSH2 0x206A DUP2 PUSH1 0x0 ADD MLOAD DUP3 PUSH1 0x20 ADD MLOAD DUP5 PUSH1 0x0 ADD MLOAD DUP6 PUSH1 0x20 ADD MLOAD DUP11 PUSH2 0x4A29 JUMP JUMPDEST PUSH1 0x0 PUSH2 0x3691 DUP4 PUSH2 0x3A25 DUP7 DUP6 PUSH2 0x462D JUMP JUMPDEST PUSH1 0x0 DUP1 PUSH2 0x4578 DUP9 DUP9 PUSH2 0x4A97 JUMP JUMPDEST SWAP1 POP PUSH1 0x0 PUSH2 0x4586 DUP8 DUP8 PUSH2 0x4A97 JUMP JUMPDEST SWAP1 POP DUP2 ISZERO DUP1 PUSH2 0x4593 JUMPI POP DUP1 ISZERO JUMPDEST ISZERO PUSH2 0x45A3 JUMPI PUSH1 0x0 SWAP3 POP POP POP PUSH2 0x206A JUMP JUMPDEST PUSH1 0x0 DUP2 DUP4 SGT ISZERO PUSH2 0x45BC JUMPI PUSH2 0x45B7 DUP3 DUP5 PUSH2 0x4AE9 JUMP JUMPDEST PUSH2 0x45C6 JUMP JUMPDEST PUSH2 0x45C6 DUP4 DUP4 PUSH2 0x4AE9 JUMP JUMPDEST SWAP1 POP PUSH2 0x45EF PUSH2 0x45EA PUSH2 0x45D7 DUP4 PUSH2 0x4B08 JUMP JUMPDEST DUP9 PUSH4 0xFFFFFFFF AND DUP9 PUSH4 0xFFFFFFFF AND PUSH2 0x51AA JUMP JUMPDEST PUSH2 0x51B9 JUMP JUMPDEST SWAP1 POP DUP2 DUP4 SGT ISZERO PUSH2 0x4608 JUMPI PUSH2 0x4603 DUP3 DUP3 PUSH2 0x4AE9 JUMP JUMPDEST PUSH2 0x4612 JUMP JUMPDEST PUSH2 0x4612 DUP3 DUP3 PUSH2 0x57A3 JUMP JUMPDEST SWAP1 POP PUSH2 0x461E DUP2 DUP13 PUSH2 0x57CF JUMP JUMPDEST SWAP12 SWAP11 POP POP POP POP POP POP POP POP POP POP POP JUMP JUMPDEST PUSH1 0x0 DUP3 PUSH2 0x463C JUMPI POP PUSH1 0x0 PUSH2 0x1242 JUMP JUMPDEST DUP3 DUP3 MUL DUP3 DUP5 DUP3 DUP2 PUSH2 0x4649 JUMPI INVALID JUMPDEST DIV EQ PUSH2 0x123F JUMPI PUSH2 0x123F PUSH2 0x9EF PUSH1 0x1 DUP7 DUP7 PUSH2 0x3B97 JUMP JUMPDEST PUSH1 0x0 DUP2 PUSH2 0x4674 JUMPI PUSH2 0x4674 PUSH2 0x9EF PUSH1 0x3 DUP6 DUP6 PUSH2 0x3B97 JUMP JUMPDEST PUSH1 0x0 DUP3 DUP5 DUP2 PUSH2 0x467F JUMPI INVALID JUMPDEST DIV SWAP5 SWAP4 POP POP POP POP JUMP JUMPDEST PUSH1 0x0 DUP3 DUP2 MSTORE PUSH1 0xB PUSH1 0x20 MSTORE PUSH1 0x40 SWAP1 KECCAK256 SLOAD PUSH2 0x46A1 SWAP1 DUP3 PUSH2 0x3279 JUMP JUMPDEST PUSH1 0x0 DUP4 DUP2 MSTORE PUSH1 0xB PUSH1 0x20 MSTORE PUSH1 0x40 SWAP1 KECCAK256 SSTORE PUSH1 0x17 SLOAD PUSH2 0x4281 SWAP1 DUP3 PUSH2 0x3279 JUMP JUMPDEST PUSH1 0x0 DUP4 DUP2 MSTORE PUSH1 0xF PUSH1 0x20 MSTORE PUSH1 0x40 SWAP1 KECCAK256 SLOAD PUSH1 0xC SLOAD DUP1 DUP3 EQ ISZERO PUSH2 0x46DE JUMPI POP POP PUSH2 0x11B1 JUMP JUMPDEST PUSH2 0x46E6 PUSH2 0x5CCC JUMP JUMPDEST POP PUSH1 0x0 DUP6 DUP2 MSTORE PUSH1 0xE PUSH1 0x20 SWAP1 DUP2 MSTORE PUSH1 0x40 DUP1 DUP4 KECCAK256 DUP6 DUP5 MSTORE DUP3 MSTORE SWAP2 DUP3 SWAP1 KECCAK256 DUP3 MLOAD DUP1 DUP5 ADD SWAP1 SWAP4 MSTORE DUP1 SLOAD DUP4 MSTORE PUSH1 0x1 ADD SLOAD SWAP1 DUP3 ADD MSTORE PUSH2 0x471D PUSH2 0x5CCC JUMP JUMPDEST PUSH2 0x4726 DUP3 PUSH2 0x5811 JUMP JUMPDEST ISZERO PUSH2 0x475F JUMPI PUSH2 0x473F DUP3 PUSH1 0x0 ADD MLOAD DUP4 PUSH1 0x20 ADD MLOAD DUP9 DUP9 PUSH2 0x581A JUMP JUMPDEST PUSH1 0x20 DUP4 ADD DUP2 SWAP1 MSTORE DUP2 DUP4 MSTORE PUSH2 0x4753 SWAP2 SWAP1 PUSH2 0x586A JUMP JUMPDEST PUSH1 0x20 DUP4 ADD MSTORE DUP2 MSTORE PUSH2 0x476A JUMP JUMPDEST PUSH1 0x20 DUP2 ADD DUP6 SWAP1 MSTORE DUP6 DUP2 MSTORE JUMPDEST PUSH1 0x0 DUP8 DUP2 MSTORE PUSH1 0xE PUSH1 0x20 SWAP1 DUP2 MSTORE PUSH1 0x40 DUP1 DUP4 KECCAK256 DUP7 DUP5 MSTORE DUP3 MSTORE DUP1 DUP4 KECCAK256 DUP5 MLOAD DUP2 SSTORE SWAP4 DUP3 ADD MLOAD PUSH1 0x1 SWAP1 SWAP5 ADD SWAP4 SWAP1 SWAP4 SSTORE SWAP8 DUP2 MSTORE PUSH1 0xF SWAP1 SWAP8 MSTORE SWAP1 SWAP6 KECCAK256 SSTORE POP POP POP POP JUMP JUMPDEST PUSH2 0x11E6 DUP2 PUSH2 0x5893 JUMP JUMPDEST PUSH1 0x0 DUP1 PUSH1 0x0 PUSH2 0x47CA PUSH1 0x1 PUSH1 0xC SLOAD PUSH2 0x2643 SWAP1 SWAP2 SWAP1 PUSH4 0xFFFFFFFF AND JUMP JUMPDEST SWAP1 POP PUSH2 0x47D4 PUSH2 0x5C84 JUMP JUMPDEST POP PUSH1 0x0 DUP5 DUP2 MSTORE PUSH1 0x15 PUSH1 0x20 SWAP1 DUP2 MSTORE PUSH1 0x40 DUP1 DUP4 KECCAK256 DUP5 DUP5 MSTORE DUP3 MSTORE DUP1 DUP4 KECCAK256 DUP2 MLOAD PUSH1 0x60 DUP1 DUP3 ADD DUP5 MSTORE DUP3 SLOAD DUP3 MSTORE PUSH1 0x1 DUP1 DUP5 ADD SLOAD DUP4 DUP8 ADD MSTORE PUSH1 0x2 SWAP4 DUP5 ADD SLOAD DUP4 DUP7 ADD MSTORE DUP8 DUP8 MSTORE PUSH1 0x16 DUP7 MSTORE SWAP6 DUP5 SWAP1 KECCAK256 DUP5 MLOAD PUSH1 0xA0 DUP2 ADD DUP7 MSTORE DUP2 SLOAD DUP2 MSTORE SWAP7 DUP2 ADD SLOAD SWAP6 DUP8 ADD SWAP6 SWAP1 SWAP6 MSTORE SWAP2 DUP5 ADD SLOAD SWAP3 DUP6 ADD SWAP3 SWAP1 SWAP3 MSTORE PUSH1 0x3 DUP4 ADD SLOAD SWAP1 DUP5 ADD MSTORE PUSH1 0x4 SWAP1 SWAP2 ADD SLOAD PUSH1 0x80 DUP4 ADD MSTORE SWAP1 PUSH2 0x485C SWAP1 DUP3 SWAP1 PUSH2 0x37D9 JUMP JUMPDEST SWAP4 POP DUP1 PUSH1 0x40 ADD MLOAD SWAP3 POP POP POP SWAP2 POP SWAP2 JUMP JUMPDEST PUSH1 0x60 PUSH32 0xB02D77300000000000000000000000000000000000000000000000000000000 DUP3 PUSH1 0x1 DUP2 GT ISZERO PUSH2 0x489B JUMPI INVALID JUMPDEST PUSH1 0x40 MLOAD PUSH1 0x24 ADD DUP1 DUP3 PUSH1 0xFF AND DUP2 MSTORE PUSH1 0x20 ADD SWAP2 POP POP PUSH1 0x40 MLOAD PUSH1 0x20 DUP2 DUP4 SUB SUB DUP2 MSTORE SWAP1 PUSH1 0x40 MSTORE SWAP1 PUSH28 0xFFFFFFFFFFFFFFFFFFFFFFFFFFFFFFFFFFFFFFFFFFFFFFFFFFFFFFFF NOT AND PUSH1 0x20 DUP3 ADD DUP1 MLOAD PUSH28 0xFFFFFFFFFFFFFFFFFFFFFFFFFFFFFFFFFFFFFFFFFFFFFFFFFFFFFFFF DUP4 DUP2 DUP4 AND OR DUP4 MSTORE POP POP POP POP SWAP1 POP SWAP2 SWAP1 POP JUMP JUMPDEST PUSH2 0x491A PUSH2 0x5CCC JUMP JUMPDEST POP PUSH1 0x0 DUP3 DUP2 MSTORE PUSH1 0xE PUSH1 0x20 SWAP1 DUP2 MSTORE PUSH1 0x40 DUP1 DUP4 KECCAK256 DUP5 DUP5 MSTORE DUP3 MSTORE SWAP2 DUP3 SWAP1 KECCAK256 DUP3 MLOAD DUP1 DUP5 ADD SWAP1 SWAP4 MSTORE DUP1 SLOAD DUP4 MSTORE PUSH1 0x1 ADD SLOAD SWAP1 DUP3 ADD MSTORE PUSH2 0x4952 DUP2 PUSH2 0x5811 JUMP JUMPDEST ISZERO PUSH2 0x495C JUMPI PUSH2 0x1242 JUMP JUMPDEST PUSH1 0x0 PUSH2 0x4969 DUP4 PUSH1 0x1 PUSH2 0x2643 JUMP JUMPDEST PUSH1 0x0 DUP6 DUP2 MSTORE PUSH1 0xE PUSH1 0x20 SWAP1 DUP2 MSTORE PUSH1 0x40 DUP1 DUP4 KECCAK256 DUP5 DUP5 MSTORE DUP3 MSTORE SWAP2 DUP3 SWAP1 KECCAK256 DUP3 MLOAD DUP1 DUP5 ADD SWAP1 SWAP4 MSTORE DUP1 SLOAD DUP4 MSTORE PUSH1 0x1 ADD SLOAD SWAP1 DUP3 ADD MSTORE SWAP3 POP SWAP1 POP PUSH2 0x49A4 DUP3 PUSH2 0x5811 JUMP JUMPDEST ISZERO PUSH2 0x49AF JUMPI POP PUSH2 0x1242 JUMP JUMPDEST PUSH1 0x0 DUP5 DUP2 MSTORE PUSH1 0xF PUSH1 0x20 MSTORE PUSH1 0x40 SWAP1 KECCAK256 SLOAD DUP4 DUP2 LT ISZERO PUSH2 0x4A0B JUMPI PUSH1 0x0 DUP6 DUP2 MSTORE PUSH1 0xE PUSH1 0x20 SWAP1 DUP2 MSTORE PUSH1 0x40 DUP1 DUP4 KECCAK256 DUP5 DUP5 MSTORE DUP3 MSTORE SWAP2 DUP3 SWAP1 KECCAK256 DUP3 MLOAD DUP1 DUP5 ADD SWAP1 SWAP4 MSTORE DUP1 SLOAD DUP4 MSTORE PUSH1 0x1 ADD SLOAD SWAP1 DUP3 ADD MSTORE SWAP3 POP PUSH2 0x49FF DUP4 PUSH2 0x5811 JUMP JUMPDEST ISZERO PUSH2 0x4A0B JUMPI POP POP PUSH2 0x1242 JUMP JUMPDEST POP POP PUSH1 0x40 DUP1 MLOAD DUP1 DUP3 ADD SWAP1 SWAP2 MSTORE PUSH1 0x0 DUP2 MSTORE PUSH1 0x1 PUSH1 0x20 DUP3 ADD MSTORE SWAP4 SWAP3 POP POP POP JUMP JUMPDEST PUSH1 0x0 DUP2 PUSH2 0x4A38 JUMPI POP PUSH1 0x0 PUSH2 0x4A8E JUMP JUMPDEST DUP4 PUSH2 0x4A52 JUMPI PUSH2 0x4A4B DUP6 PUSH2 0x3A25 DUP5 DUP10 PUSH2 0x462D JUMP JUMPDEST SWAP1 POP PUSH2 0x4A8E JUMP JUMPDEST PUSH1 0x0 PUSH2 0x4A6B PUSH2 0x4A61 DUP7 DUP9 PUSH2 0x462D JUMP JUMPDEST PUSH2 0x21D9 DUP10 DUP8 PUSH2 0x462D JUMP JUMPDEST SWAP1 POP PUSH1 0x0 PUSH2 0x4A79 DUP3 DUP7 PUSH2 0x465E JUMP JUMPDEST SWAP1 POP PUSH2 0x4A89 DUP8 PUSH2 0x3A25 DUP7 DUP5 PUSH2 0x462D JUMP JUMPDEST SWAP3 POP POP POP JUMPDEST SWAP6 SWAP5 POP POP POP POP POP JUMP JUMPDEST PUSH1 0x0 DUP1 DUP4 SLT ISZERO PUSH2 0x4AAF JUMPI PUSH2 0x4AAF PUSH2 0x9EF PUSH1 0x1 DUP6 PUSH2 0x5901 JUMP JUMPDEST PUSH1 0x0 DUP3 SLT ISZERO PUSH2 0x4AC6 JUMPI PUSH2 0x4AC6 PUSH2 0x9EF PUSH1 0x1 DUP5 PUSH2 0x5901 JUMP JUMPDEST PUSH2 0x123F PUSH2 0x4AE3 DUP5 PUSH16 0x80000000000000000000000000000000 PUSH2 0x59AE JUMP JUMPDEST DUP4 PUSH2 0x5A01 JUMP JUMPDEST PUSH1 0x0 PUSH2 0x123F PUSH2 0x4AE3 DUP5 PUSH16 0x80000000000000000000000000000000 PUSH2 0x59AE JUMP JUMPDEST PUSH1 0x0 PUSH16 0x80000000000000000000000000000000 DUP3 SGT ISZERO PUSH2 0x4B30 JUMPI PUSH2 0x4B30 PUSH2 0x9EF PUSH1 0x1 DUP5 PUSH2 0x5A82 JUMP JUMPDEST PUSH1 0x0 DUP3 SGT PUSH2 0x4B46 JUMPI PUSH2 0x4B46 PUSH2 0x9EF PUSH1 0x0 DUP5 PUSH2 0x5A82 JUMP JUMPDEST PUSH16 0x80000000000000000000000000000000 DUP3 EQ ISZERO PUSH2 0x4B66 JUMPI POP PUSH1 0x0 PUSH2 0xD68 JUMP JUMPDEST PUSH5 0x733048C5A DUP3 SGT PUSH2 0x4B99 JUMPI POP PUSH32 0xFFFFFFFFFFFFFFFFFFFFFFFFFFFFFFE010000000000000000000000000000000 PUSH2 0xD68 JUMP JUMPDEST PUSH1 0x0 DUP1 PUSH1 0x0 PUSH11 0x1C8464F76164760000000 DUP6 SGT PUSH2 0x4BF8 JUMPI PUSH32 0xFFFFFFFFFFFFFFFFFFFFFFFFFFFFFFF000000000000000000000000000000000 SWAP1 SWAP4 ADD SWAP3 PUSH11 0x1C8464F76164760000000 PUSH16 0x80000000000000000000000000000000 DUP7 MUL SDIV SWAP5 POP JUMPDEST PUSH13 0xF1AADDD7742E90000000000000 DUP6 SGT PUSH2 0x4C56 JUMPI PUSH32 0xFFFFFFFFFFFFFFFFFFFFFFFFFFFFFFF800000000000000000000000000000000 SWAP1 SWAP4 ADD SWAP3 PUSH13 0xF1AADDD7742E90000000000000 PUSH16 0x80000000000000000000000000000000 DUP7 MUL SDIV SWAP5 POP JUMPDEST PUSH15 0xAFE10820813D78000000000000000 DUP6 SGT PUSH2 0x4CB8 JUMPI PUSH32 0xFFFFFFFFFFFFFFFFFFFFFFFFFFFFFFFC00000000000000000000000000000000 SWAP1 SWAP4 ADD SWAP3 PUSH15 0xAFE10820813D78000000000000000 PUSH16 0x80000000000000000000000000000000 DUP7 MUL SDIV SWAP5 POP JUMPDEST PUSH16 0x2582AB704279EC00000000000000000 DUP6 SGT PUSH2 0x4D1C JUMPI PUSH32 0xFFFFFFFFFFFFFFFFFFFFFFFFFFFFFFFE00000000000000000000000000000000 SWAP1 SWAP4 ADD SWAP3 PUSH16 0x2582AB704279EC00000000000000000 PUSH16 0x80000000000000000000000000000000 DUP7 MUL SDIV SWAP5 POP JUMPDEST PUSH16 0x1152AAA3BF81CC000000000000000000 DUP6 SGT PUSH2 0x4D80 JUMPI PUSH32 0xFFFFFFFFFFFFFFFFFFFFFFFFFFFFFFFF00000000000000000000000000000000 SWAP1 SWAP4 ADD SWAP3 PUSH16 0x1152AAA3BF81CC000000000000000000 PUSH16 0x80000000000000000000000000000000 DUP7 MUL SDIV SWAP5 POP JUMPDEST PUSH16 0x2F16AC6C59DE70000000000000000000 DUP6 SGT PUSH2 0x4DE4 JUMPI PUSH32 0xFFFFFFFFFFFFFFFFFFFFFFFFFFFFFFFF80000000000000000000000000000000 SWAP1 SWAP4 ADD SWAP3 PUSH16 0x2F16AC6C59DE70000000000000000000 PUSH16 0x80000000000000000000000000000000 DUP7 MUL SDIV SWAP5 POP JUMPDEST PUSH16 0x4DA2CBF1BE5828000000000000000000 DUP6 SGT PUSH2 0x4E48 JUMPI PUSH32 0xFFFFFFFFFFFFFFFFFFFFFFFFFFFFFFFFC0000000000000000000000000000000 SWAP1 SWAP4 ADD SWAP3 PUSH16 0x4DA2CBF1BE5828000000000000000000 PUSH16 0x80000000000000000000000000000000 DUP7 MUL SDIV SWAP5 POP JUMPDEST PUSH16 0x63AFBE7AB2082C000000000000000000 DUP6 SGT PUSH2 0x4EAC JUMPI PUSH32 0xFFFFFFFFFFFFFFFFFFFFFFFFFFFFFFFFE0000000000000000000000000000000 SWAP1 SWAP4 ADD SWAP3 PUSH16 0x63AFBE7AB2082C000000000000000000 PUSH16 0x80000000000000000000000000000000 DUP7 MUL SDIV SWAP5 POP JUMPDEST PUSH16 0x70F5A893B608861E1F58934F97AEA57D DUP6 SGT PUSH2 0x4F10 JUMPI PUSH32 0xFFFFFFFFFFFFFFFFFFFFFFFFFFFFFFFFF0000000000000000000000000000000 SWAP1 SWAP4 ADD SWAP3 PUSH16 0x70F5A893B608861E1F58934F97AEA57D PUSH16 0x80000000000000000000000000000000 DUP7 MUL SDIV SWAP5 POP JUMPDEST PUSH32 0xFFFFFFFFFFFFFFFFFFFFFFFFFFFFFFFF80000000000000000000000000000000 DUP6 ADD SWAP3 POP DUP3 SWAP2 POP PUSH16 0x80000000000000000000000000000000 DUP3 DUP1 MUL SDIV SWAP1 POP PUSH17 0x100000000000000000000000000000000 DUP4 DUP2 SUB DUP4 MUL SDIV DUP5 ADD SWAP4 POP PUSH16 0x80000000000000000000000000000000 DUP2 DUP4 MUL DUP2 PUSH2 0x4F86 JUMPI INVALID JUMPDEST SDIV SWAP2 POP PUSH17 0x200000000000000000000000000000000 DUP4 PUSH16 0xAAAAAAAAAAAAAAAAAAAAAAAAAAAAAAAA SUB DUP4 MUL DUP2 PUSH2 0x4FB7 JUMPI INVALID JUMPDEST SDIV DUP5 ADD SWAP4 POP PUSH16 0x80000000000000000000000000000000 DUP2 DUP4 MUL DUP2 PUSH2 0x4FD7 JUMPI INVALID JUMPDEST SDIV SWAP2 POP PUSH17 0x300000000000000000000000000000000 DUP4 PUSH16 0x99999999999999999999999999999999 SUB DUP4 MUL DUP2 PUSH2 0x5008 JUMPI INVALID JUMPDEST SDIV DUP5 ADD SWAP4 POP PUSH16 0x80000000000000000000000000000000 DUP2 DUP4 MUL DUP2 PUSH2 0x5028 JUMPI INVALID JUMPDEST SDIV SWAP2 POP PUSH17 0x400000000000000000000000000000000 DUP4 PUSH16 0x92492492492492492492492492492492 SUB DUP4 MUL DUP2 PUSH2 0x5059 JUMPI INVALID JUMPDEST SDIV DUP5 ADD SWAP4 POP PUSH16 0x80000000000000000000000000000000 DUP2 DUP4 MUL DUP2 PUSH2 0x5079 JUMPI INVALID JUMPDEST SDIV SWAP2 POP PUSH17 0x500000000000000000000000000000000 DUP4 PUSH16 0x8E38E38E38E38E38E38E38E38E38E38E SUB DUP4 MUL DUP2 PUSH2 0x50AA JUMPI INVALID JUMPDEST SDIV DUP5 ADD SWAP4 POP PUSH16 0x80000000000000000000000000000000 DUP2 DUP4 MUL DUP2 PUSH2 0x50CA JUMPI INVALID JUMPDEST SDIV SWAP2 POP PUSH17 0x600000000000000000000000000000000 DUP4 PUSH16 0x8BA2E8BA2E8BA2E8BA2E8BA2E8BA2E8B SUB DUP4 MUL DUP2 PUSH2 0x50FB JUMPI INVALID JUMPDEST SDIV DUP5 ADD SWAP4 POP PUSH16 0x80000000000000000000000000000000 DUP2 DUP4 MUL DUP2 PUSH2 0x511B JUMPI INVALID JUMPDEST SDIV SWAP2 POP PUSH17 0x700000000000000000000000000000000 DUP4 PUSH16 0x89D89D89D89D89D89D89D89D89D89D89 SUB DUP4 MUL DUP2 PUSH2 0x514C JUMPI INVALID JUMPDEST SDIV DUP5 ADD SWAP4 POP PUSH16 0x80000000000000000000000000000000 DUP2 DUP4 MUL DUP2 PUSH2 0x516C JUMPI INVALID JUMPDEST SDIV SWAP2 POP PUSH17 0x800000000000000000000000000000000 DUP4 PUSH16 0x88888888888888888888888888888888 SUB DUP4 MUL DUP2 PUSH2 0x519D JUMPI INVALID JUMPDEST SDIV DUP5 ADD SWAP4 POP POP POP POP SWAP2 SWAP1 POP JUMP JUMPDEST PUSH1 0x0 PUSH2 0x3691 PUSH2 0x4AE3 DUP6 DUP6 PUSH2 0x59AE JUMP JUMPDEST PUSH1 0x0 PUSH32 0xFFFFFFFFFFFFFFFFFFFFFFFFFFFFFFE010000000000000000000000000000000 DUP3 SLT ISZERO PUSH2 0x51EB JUMPI POP PUSH1 0x0 PUSH2 0xD68 JUMP JUMPDEST DUP2 PUSH2 0x5207 JUMPI POP PUSH16 0x80000000000000000000000000000000 PUSH2 0xD68 JUMP JUMPDEST PUSH1 0x0 DUP3 SGT ISZERO PUSH2 0x521E JUMPI PUSH2 0x521E PUSH2 0x9EF PUSH1 0x1 DUP5 PUSH2 0x5A82 JUMP JUMPDEST PUSH16 0x80000000000000000000000000000000 PUSH16 0x10000000000000000000000000000000 DUP4 SMOD DUP1 DUP1 MUL DUP3 SWAP1 SDIV PUSH8 0x10E1B3BE415A0000 DUP2 MUL SWAP4 SWAP1 SWAP4 ADD SWAP3 SWAP1 SWAP2 DUP2 DUP4 MUL SDIV SWAP1 POP DUP1 PUSH8 0x5A0913F6B1E0000 MUL DUP4 ADD SWAP3 POP PUSH16 0x80000000000000000000000000000000 DUP3 DUP3 MUL DUP2 PUSH2 0x528A JUMPI INVALID JUMPDEST SDIV SWAP1 POP DUP1 PUSH8 0x168244FDAC78000 MUL DUP4 ADD SWAP3 POP PUSH16 0x80000000000000000000000000000000 DUP3 DUP3 MUL DUP2 PUSH2 0x52B7 JUMPI INVALID JUMPDEST SDIV SWAP1 POP DUP1 PUSH7 0x4807432BC18000 MUL DUP4 ADD SWAP3 POP PUSH16 0x80000000000000000000000000000000 DUP3 DUP3 MUL DUP2 PUSH2 0x52E3 JUMPI INVALID JUMPDEST SDIV SWAP1 POP DUP1 PUSH7 0xC0135DCA04000 MUL DUP4 ADD SWAP3 POP PUSH16 0x80000000000000000000000000000000 DUP3 DUP3 MUL DUP2 PUSH2 0x530F JUMPI INVALID JUMPDEST SDIV SWAP1 POP DUP1 PUSH7 0x1B707B1CDC000 MUL DUP4 ADD SWAP3 POP PUSH16 0x80000000000000000000000000000000 DUP3 DUP3 MUL DUP2 PUSH2 0x533B JUMPI INVALID JUMPDEST SDIV SWAP1 POP DUP1 PUSH6 0x36E0F639B800 MUL DUP4 ADD SWAP3 POP PUSH16 0x80000000000000000000000000000000 DUP3 DUP3 MUL DUP2 PUSH2 0x5366 JUMPI INVALID JUMPDEST SDIV SWAP1 POP DUP1 PUSH6 0x618FEE9F800 MUL DUP4 ADD SWAP3 POP PUSH16 0x80000000000000000000000000000000 DUP3 DUP3 MUL DUP2 PUSH2 0x5391 JUMPI INVALID JUMPDEST SDIV SWAP1 POP DUP1 PUSH5 0x9C197DCC00 MUL DUP4 ADD SWAP3 POP PUSH16 0x80000000000000000000000000000000 DUP3 DUP3 MUL DUP2 PUSH2 0x53BB JUMPI INVALID JUMPDEST SDIV SWAP1 POP DUP1 PUSH5 0xE30DCE400 MUL DUP4 ADD SWAP3 POP PUSH16 0x80000000000000000000000000000000 DUP3 DUP3 MUL DUP2 PUSH2 0x53E5 JUMPI INVALID JUMPDEST SDIV SWAP1 POP DUP1 PUSH5 0x12EBD1300 MUL DUP4 ADD SWAP3 POP PUSH16 0x80000000000000000000000000000000 DUP3 DUP3 MUL DUP2 PUSH2 0x540F JUMPI INVALID JUMPDEST SDIV SWAP1 POP DUP1 PUSH4 0x17499F00 MUL DUP4 ADD SWAP3 POP PUSH16 0x80000000000000000000000000000000 DUP3 DUP3 MUL DUP2 PUSH2 0x5438 JUMPI INVALID JUMPDEST SDIV SWAP1 POP DUP1 PUSH4 0x1A9D480 MUL DUP4 ADD SWAP3 POP PUSH16 0x80000000000000000000000000000000 DUP3 DUP3 MUL DUP2 PUSH2 0x5461 JUMPI INVALID JUMPDEST SDIV SWAP1 POP DUP1 PUSH3 0x1C6380 MUL DUP4 ADD SWAP3 POP PUSH16 0x80000000000000000000000000000000 DUP3 DUP3 MUL DUP2 PUSH2 0x5489 JUMPI INVALID JUMPDEST SDIV SWAP1 POP DUP1 PUSH3 0x1C638 MUL DUP4 ADD SWAP3 POP PUSH16 0x80000000000000000000000000000000 DUP3 DUP3 MUL DUP2 PUSH2 0x54B1 JUMPI INVALID JUMPDEST SDIV SWAP1 POP DUP1 PUSH2 0x1AB8 MUL DUP4 ADD SWAP3 POP PUSH16 0x80000000000000000000000000000000 DUP3 DUP3 MUL DUP2 PUSH2 0x54D8 JUMPI INVALID JUMPDEST SDIV SWAP1 POP DUP1 PUSH2 0x17C MUL DUP4 ADD SWAP3 POP PUSH16 0x80000000000000000000000000000000 DUP3 DUP3 MUL DUP2 PUSH2 0x54FF JUMPI INVALID JUMPDEST SDIV SWAP1 POP DUP1 PUSH1 0x14 MUL DUP4 ADD SWAP3 POP PUSH16 0x80000000000000000000000000000000 DUP3 DUP3 MUL DUP2 PUSH2 0x5525 JUMPI INVALID JUMPDEST PUSH1 0x0 SWAP6 SWAP1 SWAP6 SUB SWAP5 PUSH8 0x21C3677C82B40000 SWAP2 SWAP1 SDIV SWAP4 DUP5 ADD SDIV DUP3 ADD PUSH16 0x80000000000000000000000000000000 ADD SWAP3 SWAP1 POP PUSH17 0x1000000000000000000000000000000000 DUP5 AND ISZERO PUSH2 0x5594 JUMPI PUSH19 0x43CBAF42A000812488FC5C220AD7B97BF6E99E PUSH13 0xF1AADDD7742E56D32FB9F99744 DUP5 MUL SDIV SWAP3 POP JUMPDEST PUSH17 0x800000000000000000000000000000000 DUP5 AND ISZERO PUSH2 0x55D6 JUMPI PUSH18 0x5D27A9F51C31B7C2F8038212A0574779991 PUSH15 0xAFE10820813D65DFE6A33C07F738F DUP5 MUL SDIV SWAP3 POP JUMPDEST PUSH17 0x400000000000000000000000000000000 DUP5 AND ISZERO PUSH2 0x5618 JUMPI PUSH17 0x1B4C902E273A58678D6D3BFDB93DB96D02 PUSH16 0x2582AB704279E8EFD15E0265855C47A DUP5 MUL SDIV SWAP3 POP JUMPDEST PUSH17 0x200000000000000000000000000000000 DUP5 AND ISZERO PUSH2 0x565A JUMPI PUSH17 0x3B1CC971A9BB5B9867477440D6D157750 PUSH16 0x1152AAA3BF81CB9FDB76EAE12D029571 DUP5 MUL SDIV SWAP3 POP JUMPDEST PUSH17 0x100000000000000000000000000000000 DUP5 AND ISZERO PUSH2 0x569C JUMPI PUSH17 0x15BF0A8B1457695355FB8AC404E7A79E3 PUSH16 0x2F16AC6C59DE6F8D5D6F63C1482A7C86 DUP5 MUL SDIV SWAP3 POP JUMPDEST PUSH16 0x80000000000000000000000000000000 DUP5 AND ISZERO PUSH2 0x56DC JUMPI PUSH16 0xD3094C70F034DE4B96FF7D5B6F99FCD8 PUSH16 0x4DA2CBF1BE5827F9EB3AD1AA9866EBB3 DUP5 MUL SDIV SWAP3 POP JUMPDEST PUSH16 0x40000000000000000000000000000000 DUP5 AND ISZERO PUSH2 0x571C JUMPI PUSH16 0xA45AF1E1F40C333B3DE1DB4DD55F29A7 PUSH16 0x63AFBE7AB2082BA1A0AE5E4EB1B479DC DUP5 MUL SDIV SWAP3 POP JUMPDEST PUSH16 0x20000000000000000000000000000000 DUP5 AND ISZERO PUSH2 0x575C JUMPI PUSH16 0x910B022DB7AE67CE76B441C27035C6A1 PUSH16 0x70F5A893B608861E1F58934F97AEA57D DUP5 MUL SDIV SWAP3 POP JUMPDEST PUSH16 0x10000000000000000000000000000000 DUP5 AND ISZERO PUSH2 0x579C JUMPI PUSH16 0x88415ABBE9A76BEAD8D00CF112E4D4A8 PUSH16 0x783EAFEF1C0A8F3978C7F81824D62EBF DUP5 MUL SDIV SWAP3 POP JUMPDEST POP POP SWAP2 SWAP1 POP JUMP JUMPDEST PUSH1 0x0 PUSH16 0x80000000000000000000000000000000 PUSH2 0x57C0 DUP5 DUP5 PUSH2 0x59AE JUMP JUMPDEST DUP2 PUSH2 0x57C7 JUMPI INVALID JUMPDEST SDIV SWAP4 SWAP3 POP POP POP JUMP JUMPDEST PUSH1 0x0 DUP1 DUP3 SLT ISZERO PUSH2 0x57E7 JUMPI PUSH2 0x57E7 PUSH2 0x9EF PUSH1 0x1 DUP5 PUSH2 0x5901 JUMP JUMPDEST PUSH1 0x0 PUSH2 0x57F3 DUP5 DUP5 PUSH2 0x59AE JUMP JUMPDEST SWAP1 POP PUSH1 0x0 DUP2 SGT PUSH2 0x5807 JUMPI PUSH1 0x0 SWAP2 POP POP PUSH2 0x1242 JUMP JUMPDEST PUSH1 0x7F SHR SWAP4 SWAP3 POP POP POP JUMP JUMPDEST PUSH1 0x20 ADD MLOAD ISZERO ISZERO SWAP1 JUMP JUMPDEST PUSH1 0x0 DUP1 DUP6 PUSH2 0x582C JUMPI POP DUP3 SWAP1 POP DUP2 PUSH2 0x5861 JUMP JUMPDEST DUP4 PUSH2 0x583B JUMPI POP DUP5 SWAP1 POP DUP4 PUSH2 0x5861 JUMP JUMPDEST PUSH2 0x5852 PUSH2 0x5848 DUP6 DUP8 PUSH2 0x462D JUMP JUMPDEST PUSH2 0x42BF DUP9 DUP7 PUSH2 0x462D JUMP JUMPDEST SWAP2 POP PUSH2 0x585E DUP6 DUP5 PUSH2 0x462D JUMP JUMPDEST SWAP1 POP JUMPDEST SWAP5 POP SWAP5 SWAP3 POP POP POP JUMP JUMPDEST PUSH1 0x0 DUP1 PUSH2 0x5888 DUP5 DUP5 PUSH16 0x80000000000000000000000000000000 PUSH2 0x5AB1 JUMP JUMPDEST SWAP2 POP SWAP2 POP SWAP3 POP SWAP3 SWAP1 POP JUMP JUMPDEST PUSH1 0xC SLOAD PUSH1 0x0 SWAP1 PUSH2 0x58A4 SWAP1 PUSH1 0x1 PUSH2 0x2643 JUMP JUMPDEST SWAP1 POP PUSH2 0x58AE PUSH2 0x5C84 JUMP JUMPDEST POP PUSH1 0x0 DUP3 DUP2 MSTORE PUSH1 0x15 PUSH1 0x20 SWAP1 DUP2 MSTORE PUSH1 0x40 DUP1 DUP4 KECCAK256 DUP5 DUP5 MSTORE DUP3 MSTORE SWAP2 DUP3 SWAP1 KECCAK256 DUP3 MLOAD PUSH1 0x60 DUP2 ADD DUP5 MSTORE DUP2 SLOAD DUP1 DUP3 MSTORE PUSH1 0x1 DUP4 ADD SLOAD SWAP4 DUP3 ADD SWAP4 SWAP1 SWAP4 MSTORE PUSH1 0x2 SWAP1 SWAP2 ADD SLOAD SWAP3 DUP2 ADD SWAP3 SWAP1 SWAP3 MSTORE ISZERO PUSH2 0x11B1 JUMPI PUSH2 0x11B1 PUSH2 0x9EF DUP5 DUP5 PUSH2 0x5B0D JUMP JUMPDEST PUSH1 0x60 PUSH32 0xBD79545F00000000000000000000000000000000000000000000000000000000 DUP4 PUSH1 0x1 DUP2 GT ISZERO PUSH2 0x5930 JUMPI INVALID JUMPDEST PUSH1 0x40 DUP1 MLOAD PUSH1 0xFF SWAP1 SWAP3 AND PUSH1 0x24 DUP4 ADD MSTORE PUSH1 0x44 DUP1 DUP4 ADD DUP7 SWAP1 MSTORE DUP2 MLOAD DUP1 DUP5 SUB SWAP1 SWAP2 ADD DUP2 MSTORE PUSH1 0x64 SWAP1 SWAP3 ADD SWAP1 MSTORE PUSH1 0x20 DUP2 ADD DUP1 MLOAD PUSH28 0xFFFFFFFFFFFFFFFFFFFFFFFFFFFFFFFFFFFFFFFFFFFFFFFFFFFFFFFF AND PUSH32 0xFFFFFFFF00000000000000000000000000000000000000000000000000000000 SWAP1 SWAP4 AND SWAP3 SWAP1 SWAP3 OR SWAP1 SWAP2 MSTORE SWAP1 POP SWAP3 SWAP2 POP POP JUMP JUMPDEST PUSH1 0x0 DUP3 ISZERO DUP1 PUSH2 0x59BB JUMPI POP DUP2 ISZERO JUMPDEST ISZERO PUSH2 0x59C8 JUMPI POP PUSH1 0x0 PUSH2 0x1242 JUMP JUMPDEST POP DUP2 DUP2 MUL DUP2 DUP4 DUP3 DUP2 PUSH2 0x59D6 JUMPI INVALID JUMPDEST SDIV EQ ISZERO DUP1 PUSH2 0x59ED JUMPI POP DUP3 DUP3 DUP3 DUP2 PUSH2 0x59E9 JUMPI INVALID JUMPDEST SDIV EQ ISZERO JUMPDEST ISZERO PUSH2 0x1242 JUMPI PUSH2 0x1242 PUSH2 0x9EF PUSH1 0x1 DUP6 DUP6 PUSH2 0x5B80 JUMP JUMPDEST PUSH1 0x0 DUP2 PUSH2 0x5A17 JUMPI PUSH2 0x5A17 PUSH2 0x9EF PUSH1 0x2 DUP6 DUP6 PUSH2 0x5B80 JUMP JUMPDEST PUSH32 0x8000000000000000000000000000000000000000000000000000000000000000 DUP4 EQ DUP1 ISZERO PUSH2 0x5A65 JUMPI POP DUP2 PUSH32 0xFFFFFFFFFFFFFFFFFFFFFFFFFFFFFFFFFFFFFFFFFFFFFFFFFFFFFFFFFFFFFFFF EQ JUMPDEST ISZERO PUSH2 0x5A79 JUMPI PUSH2 0x5A79 PUSH2 0x9EF PUSH1 0x3 DUP6 DUP6 PUSH2 0x5B80 JUMP JUMPDEST DUP2 DUP4 DUP2 PUSH2 0x57C7 JUMPI INVALID JUMPDEST PUSH1 0x60 PUSH32 0xED2F26A100000000000000000000000000000000000000000000000000000000 DUP4 PUSH1 0x1 DUP2 GT ISZERO PUSH2 0x5930 JUMPI INVALID JUMPDEST PUSH1 0x0 DUP1 DUP3 DUP6 GT DUP1 PUSH2 0x5AC1 JUMPI POP DUP3 DUP5 GT JUMPDEST ISZERO PUSH2 0x5B04 JUMPI PUSH1 0x0 DUP5 DUP7 LT ISZERO PUSH2 0x5AD6 JUMPI DUP5 PUSH2 0x5AD8 JUMP JUMPDEST DUP6 JUMPDEST SWAP1 POP PUSH2 0x5AE4 DUP2 DUP6 PUSH2 0x465E JUMP JUMPDEST SWAP1 POP PUSH2 0x5AF0 DUP7 DUP3 PUSH2 0x465E JUMP JUMPDEST SWAP3 POP PUSH2 0x5AFC DUP6 DUP3 PUSH2 0x465E JUMP JUMPDEST SWAP2 POP POP PUSH2 0x34B6 JUMP JUMPDEST POP SWAP3 SWAP4 SWAP2 SWAP3 POP POP JUMP JUMPDEST PUSH1 0x40 DUP1 MLOAD PUSH1 0x24 DUP2 ADD DUP5 SWAP1 MSTORE PUSH1 0x44 DUP1 DUP3 ADD DUP5 SWAP1 MSTORE DUP3 MLOAD DUP1 DUP4 SUB SWAP1 SWAP2 ADD DUP2 MSTORE PUSH1 0x64 SWAP1 SWAP2 ADD SWAP1 SWAP2 MSTORE PUSH1 0x20 DUP2 ADD DUP1 MLOAD PUSH28 0xFFFFFFFFFFFFFFFFFFFFFFFFFFFFFFFFFFFFFFFFFFFFFFFFFFFFFFFF AND PUSH32 0x5CAA0B0500000000000000000000000000000000000000000000000000000000 OR SWAP1 MSTORE SWAP3 SWAP2 POP POP JUMP JUMPDEST PUSH1 0x60 PUSH32 0x8C12DFE700000000000000000000000000000000000000000000000000000000 DUP5 PUSH1 0x3 DUP2 GT ISZERO PUSH2 0x5BAF JUMPI INVALID JUMPDEST PUSH1 0x40 DUP1 MLOAD PUSH1 0xFF SWAP1 SWAP3 AND PUSH1 0x24 DUP4 ADD MSTORE PUSH1 0x44 DUP3 ADD DUP7 SWAP1 MSTORE PUSH1 0x64 DUP1 DUP4 ADD DUP7 SWAP1 MSTORE DUP2 MLOAD DUP1 DUP5 SUB SWAP1 SWAP2 ADD DUP2 MSTORE PUSH1 0x84 SWAP1 SWAP3 ADD SWAP1 MSTORE PUSH1 0x20 DUP2 ADD DUP1 MLOAD PUSH28 0xFFFFFFFFFFFFFFFFFFFFFFFFFFFFFFFFFFFFFFFFFFFFFFFFFFFFFFFF AND PUSH32 0xFFFFFFFF00000000000000000000000000000000000000000000000000000000 SWAP1 SWAP4 AND SWAP3 SWAP1 SWAP3 OR SWAP1 SWAP2 MSTORE SWAP1 POP SWAP4 SWAP3 POP POP POP JUMP JUMPDEST PUSH1 0x40 MLOAD DUP1 PUSH1 0xA0 ADD PUSH1 0x40 MSTORE DUP1 PUSH1 0x0 DUP2 MSTORE PUSH1 0x20 ADD PUSH1 0x0 DUP2 MSTORE PUSH1 0x20 ADD PUSH1 0x0 DUP2 MSTORE PUSH1 0x20 ADD PUSH1 0x0 DUP2 MSTORE PUSH1 0x20 ADD PUSH1 0x0 DUP2 MSTORE POP SWAP1 JUMP JUMPDEST PUSH1 0x40 DUP1 MLOAD PUSH1 0x60 DUP2 ADD DUP3 MSTORE PUSH1 0x0 DUP1 DUP3 MSTORE PUSH1 0x20 DUP3 ADD DUP2 SWAP1 MSTORE SWAP2 DUP2 ADD SWAP2 SWAP1 SWAP2 MSTORE SWAP1 JUMP JUMPDEST PUSH1 0x40 MLOAD DUP1 PUSH1 0x60 ADD PUSH1 0x40 MSTORE DUP1 PUSH1 0x0 DUP2 MSTORE PUSH1 0x20 ADD PUSH1 0x0 DUP2 MSTORE PUSH1 0x20 ADD PUSH1 0x0 DUP2 MSTORE POP SWAP1 JUMP JUMPDEST PUSH1 0x40 DUP1 MLOAD PUSH1 0x80 DUP2 ADD DUP3 MSTORE PUSH1 0x0 DUP1 DUP3 MSTORE PUSH1 0x20 DUP3 ADD DUP2 SWAP1 MSTORE SWAP2 DUP2 ADD DUP3 SWAP1 MSTORE PUSH1 0x60 DUP2 ADD SWAP2 SWAP1 SWAP2 MSTORE SWAP1 JUMP JUMPDEST PUSH1 0x40 MLOAD DUP1 PUSH1 0x40 ADD PUSH1 0x40 MSTORE DUP1 PUSH1 0x0 DUP2 MSTORE PUSH1 0x20 ADD PUSH1 0x0 DUP2 MSTORE POP SWAP1 JUMP JUMPDEST DUP1 CALLDATALOAD PUSH1 0x2 DUP2 LT PUSH2 0xD68 JUMPI PUSH1 0x0 DUP1 REVERT JUMPDEST PUSH1 0x0 DUP3 PUSH1 0x1F DUP4 ADD SLT PUSH2 0x5D05 JUMPI DUP1 DUP2 REVERT JUMPDEST DUP2 MLOAD PUSH8 0xFFFFFFFFFFFFFFFF DUP1 DUP3 GT ISZERO PUSH2 0x5D1A JUMPI INVALID JUMPDEST PUSH1 0x40 MLOAD PUSH1 0x20 DUP1 PUSH32 0xFFFFFFFFFFFFFFFFFFFFFFFFFFFFFFFFFFFFFFFFFFFFFFFFFFFFFFFFFFFFFFE0 PUSH1 0x1F DUP7 ADD AND DUP4 ADD ADD DUP3 DUP2 LT DUP5 DUP3 GT OR ISZERO PUSH2 0x5D57 JUMPI INVALID JUMPDEST DUP1 PUSH1 0x40 MSTORE POP DUP2 SWAP5 POP DUP4 DUP3 MSTORE DUP7 DUP2 DUP6 DUP9 ADD ADD GT ISZERO PUSH2 0x5D73 JUMPI PUSH1 0x0 DUP1 REVERT JUMPDEST PUSH1 0x0 SWAP3 POP JUMPDEST DUP4 DUP4 LT ISZERO PUSH2 0x5D95 JUMPI DUP6 DUP4 ADD DUP2 ADD MLOAD DUP3 DUP5 ADD DUP3 ADD MSTORE SWAP2 DUP3 ADD SWAP2 PUSH2 0x5D78 JUMP JUMPDEST DUP4 DUP4 GT ISZERO PUSH2 0x5DA6 JUMPI PUSH1 0x0 DUP2 DUP6 DUP5 ADD ADD MSTORE JUMPDEST POP POP POP POP SWAP3 SWAP2 POP POP JUMP JUMPDEST PUSH1 0x0 PUSH1 0x40 DUP3 DUP5 SUB SLT ISZERO PUSH2 0x291D JUMPI DUP1 DUP2 REVERT JUMPDEST DUP1 CALLDATALOAD PUSH4 0xFFFFFFFF DUP2 AND DUP2 EQ PUSH2 0xD68 JUMPI PUSH1 0x0 DUP1 REVERT JUMPDEST PUSH1 0x0 PUSH1 0x20 DUP3 DUP5 SUB SLT ISZERO PUSH2 0x5DE6 JUMPI DUP1 DUP2 REVERT JUMPDEST DUP2 CALLDATALOAD PUSH2 0x123F DUP2 PUSH2 0x6430 JUMP JUMPDEST PUSH1 0x0 PUSH1 0x20 DUP3 DUP5 SUB SLT ISZERO PUSH2 0x5E02 JUMPI DUP1 DUP2 REVERT JUMPDEST DUP2 MLOAD PUSH2 0x123F DUP2 PUSH2 0x6430 JUMP JUMPDEST PUSH1 0x0 DUP1 PUSH1 0x40 DUP4 DUP6 SUB SLT ISZERO PUSH2 0x5E1F JUMPI DUP1 DUP2 REVERT JUMPDEST DUP3 CALLDATALOAD PUSH2 0x5E2A DUP2 PUSH2 0x6430 JUMP JUMPDEST SWAP5 PUSH1 0x20 SWAP4 SWAP1 SWAP4 ADD CALLDATALOAD SWAP4 POP POP POP JUMP JUMPDEST PUSH1 0x0 DUP1 PUSH1 0x40 DUP4 DUP6 SUB SLT ISZERO PUSH2 0x5E4A JUMPI DUP2 DUP3 REVERT JUMPDEST DUP3 CALLDATALOAD PUSH2 0x5E55 DUP2 PUSH2 0x6430 JUMP JUMPDEST SWAP2 POP PUSH2 0x5E63 PUSH1 0x20 DUP5 ADD PUSH2 0x5CE6 JUMP JUMPDEST SWAP1 POP SWAP3 POP SWAP3 SWAP1 POP JUMP JUMPDEST PUSH1 0x0 DUP1 PUSH1 0x0 DUP1 PUSH1 0x0 DUP1 PUSH1 0xC0 DUP8 DUP10 SUB SLT ISZERO PUSH2 0x5E84 JUMPI DUP2 DUP3 REVERT JUMPDEST DUP7 MLOAD PUSH2 0x5E8F DUP2 PUSH2 0x6430 JUMP JUMPDEST PUSH1 0x20 DUP9 ADD MLOAD SWAP1 SWAP7 POP PUSH8 0xFFFFFFFFFFFFFFFF DUP1 DUP3 GT ISZERO PUSH2 0x5EAC JUMPI DUP4 DUP5 REVERT JUMPDEST PUSH2 0x5EB8 DUP11 DUP4 DUP12 ADD PUSH2 0x5CF5 JUMP JUMPDEST SWAP7 POP PUSH1 0x40 DUP10 ADD MLOAD SWAP2 POP DUP1 DUP3 GT ISZERO PUSH2 0x5ECD JUMPI DUP4 DUP5 REVERT JUMPDEST POP PUSH2 0x5EDA DUP10 DUP3 DUP11 ADD PUSH2 0x5CF5 JUMP JUMPDEST SWAP5 POP POP PUSH1 0x60 DUP8 ADD MLOAD SWAP3 POP PUSH1 0x80 DUP8 ADD MLOAD PUSH2 0x5EF2 DUP2 PUSH2 0x6430 JUMP JUMPDEST PUSH1 0xA0 DUP9 ADD MLOAD SWAP1 SWAP3 POP PUSH2 0x5F03 DUP2 PUSH2 0x6430 JUMP JUMPDEST DUP1 SWAP2 POP POP SWAP3 SWAP6 POP SWAP3 SWAP6 POP SWAP3 SWAP6 JUMP JUMPDEST PUSH1 0x0 DUP1 PUSH1 0x40 DUP4 DUP6 SUB SLT ISZERO PUSH2 0x5E1F JUMPI DUP2 DUP3 REVERT JUMPDEST PUSH1 0x0 PUSH1 0x20 DUP3 DUP5 SUB SLT ISZERO PUSH2 0x5F34 JUMPI DUP1 DUP2 REVERT JUMPDEST DUP2 MLOAD DUP1 ISZERO ISZERO DUP2 EQ PUSH2 0x123F JUMPI DUP2 DUP3 REVERT JUMPDEST PUSH1 0x0 PUSH1 0x20 DUP3 DUP5 SUB SLT ISZERO PUSH2 0x5F54 JUMPI DUP1 DUP2 REVERT JUMPDEST POP CALLDATALOAD SWAP2 SWAP1 POP JUMP JUMPDEST PUSH1 0x0 DUP1 PUSH1 0x40 DUP4 DUP6 SUB SLT ISZERO PUSH2 0x5F6D JUMPI DUP2 DUP3 REVERT JUMPDEST DUP3 CALLDATALOAD SWAP2 POP PUSH1 0x20 DUP4 ADD CALLDATALOAD PUSH2 0x5F7F DUP2 PUSH2 0x6430 JUMP JUMPDEST DUP1 SWAP2 POP POP SWAP3 POP SWAP3 SWAP1 POP JUMP JUMPDEST PUSH1 0x0 DUP1 PUSH1 0x40 DUP4 DUP6 SUB SLT ISZERO PUSH2 0x5F9C JUMPI DUP2 DUP3 REVERT JUMPDEST POP POP DUP1 CALLDATALOAD SWAP3 PUSH1 0x20 SWAP1 SWAP2 ADD CALLDATALOAD SWAP2 POP JUMP JUMPDEST PUSH1 0x0 DUP1 PUSH1 0x40 DUP4 DUP6 SUB SLT ISZERO PUSH2 0x5FBD JUMPI DUP2 DUP3 REVERT JUMPDEST DUP3 CALLDATALOAD SWAP2 POP PUSH2 0x5E63 PUSH1 0x20 DUP5 ADD PUSH2 0x5DC1 JUMP JUMPDEST PUSH1 0x0 PUSH1 0x20 DUP3 DUP5 SUB SLT ISZERO PUSH2 0x5FDE JUMPI DUP1 DUP2 REVERT JUMPDEST PUSH2 0x123F DUP3 PUSH2 0x5CE6 JUMP JUMPDEST PUSH1 0x0 DUP1 PUSH1 0x0 PUSH1 0xA0 DUP5 DUP7 SUB SLT ISZERO PUSH2 0x5FFB JUMPI DUP3 DUP4 REVERT JUMPDEST PUSH2 0x6005 DUP6 DUP6 PUSH2 0x5DB0 JUMP JUMPDEST SWAP3 POP PUSH2 0x6014 DUP6 PUSH1 0x40 DUP7 ADD PUSH2 0x5DB0 JUMP JUMPDEST SWAP2 POP PUSH1 0x80 DUP5 ADD CALLDATALOAD SWAP1 POP SWAP3 POP SWAP3 POP SWAP3 JUMP JUMPDEST PUSH1 0x0 PUSH1 0x20 DUP3 DUP5 SUB SLT ISZERO PUSH2 0x6035 JUMPI DUP1 DUP2 REVERT JUMPDEST POP MLOAD SWAP2 SWAP1 POP JUMP JUMPDEST PUSH1 0x0 DUP1 PUSH1 0x0 DUP1 PUSH1 0x0 DUP1 PUSH1 0xC0 DUP8 DUP10 SUB SLT ISZERO PUSH2 0x6054 JUMPI DUP4 DUP5 REVERT JUMPDEST DUP7 MLOAD SWAP6 POP PUSH1 0x20 DUP8 ADD MLOAD PUSH8 0xFFFFFFFFFFFFFFFF DUP1 DUP3 GT ISZERO PUSH2 0x6072 JUMPI DUP6 DUP7 REVERT JUMPDEST PUSH2 0x607E DUP11 DUP4 DUP12 ADD PUSH2 0x5CF5 JUMP JUMPDEST SWAP7 POP PUSH1 0x40 DUP10 ADD MLOAD SWAP2 POP DUP1 DUP3 GT ISZERO PUSH2 0x5ECD JUMPI DUP6 DUP7 REVERT JUMPDEST PUSH1 0x0 DUP1 PUSH1 0x0 DUP1 PUSH1 0x0 PUSH1 0xA0 DUP7 DUP9 SUB SLT ISZERO PUSH2 0x60AA JUMPI DUP3 DUP4 REVERT JUMPDEST DUP6 CALLDATALOAD SWAP5 POP PUSH2 0x60BA PUSH1 0x20 DUP8 ADD PUSH2 0x5DC1 JUMP JUMPDEST SWAP4 POP PUSH1 0x40 DUP7 ADD CALLDATALOAD SWAP3 POP PUSH2 0x60CF PUSH1 0x60 DUP8 ADD PUSH2 0x5DC1 JUMP JUMPDEST SWAP2 POP PUSH2 0x60DD PUSH1 0x80 DUP8 ADD PUSH2 0x5DC1 JUMP JUMPDEST SWAP1 POP SWAP3 SWAP6 POP SWAP3 SWAP6 SWAP1 SWAP4 POP JUMP JUMPDEST PUSH20 0xFFFFFFFFFFFFFFFFFFFFFFFFFFFFFFFFFFFFFFFF SWAP2 SWAP1 SWAP2 AND DUP2 MSTORE PUSH1 0x20 ADD SWAP1 JUMP JUMPDEST PUSH20 0xFFFFFFFFFFFFFFFFFFFFFFFFFFFFFFFFFFFFFFFF SWAP3 SWAP1 SWAP3 AND DUP3 MSTORE PUSH1 0x20 DUP3 ADD MSTORE PUSH1 0x40 ADD SWAP1 JUMP JUMPDEST PUSH1 0x20 DUP1 DUP3 MSTORE DUP3 MLOAD DUP3 DUP3 ADD DUP2 SWAP1 MSTORE PUSH1 0x0 SWAP2 SWAP1 DUP5 DUP3 ADD SWAP1 PUSH1 0x40 DUP6 ADD SWAP1 DUP5 JUMPDEST DUP2 DUP2 LT ISZERO PUSH2 0x617E JUMPI DUP4 MLOAD PUSH20 0xFFFFFFFFFFFFFFFFFFFFFFFFFFFFFFFFFFFFFFFF AND DUP4 MSTORE SWAP3 DUP5 ADD SWAP3 SWAP2 DUP5 ADD SWAP2 PUSH1 0x1 ADD PUSH2 0x614C JUMP JUMPDEST POP SWAP1 SWAP7 SWAP6 POP POP POP POP POP POP JUMP JUMPDEST SWAP1 ISZERO ISZERO DUP2 MSTORE PUSH1 0x20 ADD SWAP1 JUMP JUMPDEST SWAP1 DUP2 MSTORE PUSH1 0x20 ADD SWAP1 JUMP JUMPDEST SWAP3 DUP4 MSTORE PUSH20 0xFFFFFFFFFFFFFFFFFFFFFFFFFFFFFFFFFFFFFFFF SWAP2 SWAP1 SWAP2 AND PUSH1 0x20 DUP4 ADD MSTORE PUSH4 0xFFFFFFFF AND PUSH1 0x40 DUP3 ADD MSTORE PUSH1 0x60 ADD SWAP1 JUMP JUMPDEST SWAP2 DUP3 MSTORE PUSH1 0x20 DUP3 ADD MSTORE PUSH1 0x40 ADD SWAP1 JUMP JUMPDEST PUSH1 0x20 DUP1 DUP3 MSTORE PUSH1 0x1C SWAP1 DUP3 ADD MSTORE PUSH32 0x4E4F4E5F524547495354455245445F504F4F4C5F49445F4552524F5200000000 PUSH1 0x40 DUP3 ADD MSTORE PUSH1 0x60 ADD SWAP1 JUMP JUMPDEST PUSH1 0x20 DUP1 DUP3 MSTORE PUSH1 0x1B SWAP1 DUP3 ADD MSTORE PUSH32 0x504F4F4C5F544F5F4A4F494E5F4E4F545F53454C465F4552524F520000000000 PUSH1 0x40 DUP3 ADD MSTORE PUSH1 0x60 ADD SWAP1 JUMP JUMPDEST PUSH1 0x20 DUP1 DUP3 MSTORE PUSH1 0x1C SWAP1 DUP3 ADD MSTORE PUSH32 0x4E4F4E5F524547495354455245445F52425F504F4F4C5F4552524F5200000000 PUSH1 0x40 DUP3 ADD MSTORE PUSH1 0x60 ADD SWAP1 JUMP JUMPDEST PUSH1 0x20 DUP1 DUP3 MSTORE PUSH1 0x13 SWAP1 DUP3 ADD MSTORE PUSH32 0x43525F494E54455256414C5F494E56414C494400000000000000000000000000 PUSH1 0x40 DUP3 ADD MSTORE PUSH1 0x60 ADD SWAP1 JUMP JUMPDEST DUP2 MLOAD DUP2 MSTORE PUSH1 0x20 DUP1 DUP4 ADD MLOAD SWAP1 DUP3 ADD MSTORE PUSH1 0x40 SWAP2 DUP3 ADD MLOAD SWAP2 DUP2 ADD SWAP2 SWAP1 SWAP2 MSTORE PUSH1 0x60 ADD SWAP1 JUMP JUMPDEST PUSH1 0x0 PUSH1 0x80 DUP3 ADD SWAP1 POP PUSH20 0xFFFFFFFFFFFFFFFFFFFFFFFFFFFFFFFFFFFFFFFF DUP1 DUP5 MLOAD AND DUP4 MSTORE DUP1 PUSH1 0x20 DUP6 ADD MLOAD AND PUSH1 0x20 DUP5 ADD MSTORE POP PUSH1 0x40 DUP4 ADD MLOAD PUSH4 0xFFFFFFFF DUP1 DUP3 AND PUSH1 0x40 DUP6 ADD MSTORE DUP1 PUSH1 0x60 DUP7 ADD MLOAD AND PUSH1 0x60 DUP6 ADD MSTORE POP POP SWAP3 SWAP2 POP POP JUMP JUMPDEST DUP2 MLOAD PUSH8 0xFFFFFFFFFFFFFFFF AND DUP2 MSTORE PUSH1 0x20 DUP1 DUP4 ADD MLOAD PUSH12 0xFFFFFFFFFFFFFFFFFFFFFFFF SWAP1 DUP2 AND SWAP2 DUP4 ADD SWAP2 SWAP1 SWAP2 MSTORE PUSH1 0x40 SWAP3 DUP4 ADD MLOAD AND SWAP2 DUP2 ADD SWAP2 SWAP1 SWAP2 MSTORE PUSH1 0x60 ADD SWAP1 JUMP JUMPDEST SWAP3 DUP4 MSTORE PUSH1 0x20 DUP4 ADD SWAP2 SWAP1 SWAP2 MSTORE PUSH1 0x40 DUP3 ADD MSTORE PUSH1 0x60 ADD SWAP1 JUMP JUMPDEST SWAP4 DUP5 MSTORE PUSH1 0x20 DUP5 ADD SWAP3 SWAP1 SWAP3 MSTORE PUSH1 0x40 DUP4 ADD MSTORE PUSH1 0x60 DUP3 ADD MSTORE PUSH1 0x80 ADD SWAP1 JUMP JUMPDEST SWAP5 DUP6 MSTORE PUSH1 0x20 DUP6 ADD SWAP4 SWAP1 SWAP4 MSTORE PUSH1 0x40 DUP5 ADD SWAP2 SWAP1 SWAP2 MSTORE PUSH1 0x60 DUP4 ADD MSTORE PUSH1 0x80 DUP3 ADD MSTORE PUSH1 0xA0 ADD SWAP1 JUMP JUMPDEST SWAP5 DUP6 MSTORE PUSH4 0xFFFFFFFF SWAP4 DUP5 AND PUSH1 0x20 DUP7 ADD MSTORE PUSH1 0x40 DUP6 ADD SWAP3 SWAP1 SWAP3 MSTORE DUP3 AND PUSH1 0x60 DUP5 ADD MSTORE AND PUSH1 0x80 DUP3 ADD MSTORE PUSH1 0xA0 ADD SWAP1 JUMP JUMPDEST SWAP3 DUP4 MSTORE PUSH1 0xFF SWAP2 DUP3 AND PUSH1 0x20 DUP5 ADD MSTORE AND PUSH1 0x40 DUP3 ADD MSTORE PUSH1 0x60 ADD SWAP1 JUMP JUMPDEST PUSH4 0xFFFFFFFF SWAP2 SWAP1 SWAP2 AND DUP2 MSTORE PUSH1 0x20 ADD SWAP1 JUMP JUMPDEST PUSH4 0xFFFFFFFF SWAP3 DUP4 AND DUP2 MSTORE SWAP2 AND PUSH1 0x20 DUP3 ADD MSTORE PUSH1 0x40 ADD SWAP1 JUMP JUMPDEST PUSH20 0xFFFFFFFFFFFFFFFFFFFFFFFFFFFFFFFFFFFFFFFF DUP2 AND DUP2 EQ PUSH2 0x11E6 JUMPI PUSH1 0x0 DUP1 REVERT INVALID LOG2 PUSH5 0x6970667358 0x22 SLT KECCAK256 0xC2 JUMPDEST PUSH20 0x45A38FB7FEFE3C911086F876E42091D466117453 SWAP7 OR 0x2A CODECOPY SWAP13 0xCF SWAP6 SWAP10 DUP7 PUSH5 0x736F6C6343 STOP SMOD DIV STOP CALLER "
			}
		}
	},
	"sourceTreeHashHex": "0x85fd4009de2d255aac3904cca718134d4cfa59b2785a5e54162955e829e4592d",
	"compiler": {
		"name": "solc",
		"version": "0.7.4+commit.3f05b770",
		"settings": {
			"remappings": [],
			"optimizer": {
				"enabled": true,
				"runs": 1000000
			},
			"outputSelection": {
				"*": {
					"*": [
						"abi",
						"devdoc",
						"evm.bytecode.object",
						"evm.bytecode.sourceMap",
						"evm.deployedBytecode.object",
						"evm.deployedBytecode.sourceMap"
					]
				}
			}
		}
	},
	"chains": {}
}