{
	"schemaVersion": "2.0.0",
	"contractName": "Staking",
	"compilerOutput": {
		"abi": [
			{
				"anonymous": false,
				"inputs": [
					{
						"indexed": true,
						"internalType": "address",
						"name": "target",
						"type": "address"
					},
					{
						"indexed": true,
						"internalType": "address",
						"name": "caller",
						"type": "address"
					}
				],
				"name": "AuthorizedAddressAdded",
				"type": "event"
			},
			{
				"anonymous": false,
				"inputs": [
					{
						"indexed": true,
						"internalType": "address",
						"name": "target",
						"type": "address"
					},
					{
						"indexed": true,
						"internalType": "address",
						"name": "caller",
						"type": "address"
					}
				],
				"name": "AuthorizedAddressRemoved",
				"type": "event"
			},
			{
				"anonymous": false,
				"inputs": [
					{
						"indexed": true,
						"internalType": "uint256",
						"name": "epoch",
						"type": "uint256"
					},
					{
						"indexed": false,
						"internalType": "uint256",
						"name": "numPoolsToFinalize",
						"type": "uint256"
					},
					{
						"indexed": false,
						"internalType": "uint256",
						"name": "rewardsAvailable",
						"type": "uint256"
					},
					{
						"indexed": false,
						"internalType": "uint256",
						"name": "totalFeesCollected",
						"type": "uint256"
					},
					{
						"indexed": false,
						"internalType": "uint256",
						"name": "totalWeightedStake",
						"type": "uint256"
					}
				],
				"name": "EpochEnded",
				"type": "event"
			},
			{
				"anonymous": false,
				"inputs": [
					{
						"indexed": true,
						"internalType": "uint256",
						"name": "epoch",
						"type": "uint256"
					},
					{
						"indexed": false,
						"internalType": "uint256",
						"name": "rewardsPaid",
						"type": "uint256"
					},
					{
						"indexed": false,
						"internalType": "uint256",
						"name": "rewardsRemaining",
						"type": "uint256"
					}
				],
				"name": "EpochFinalized",
				"type": "event"
			},
			{
				"anonymous": false,
				"inputs": [
					{
						"indexed": true,
						"internalType": "address",
						"name": "staker",
						"type": "address"
					},
					{
						"indexed": false,
						"internalType": "uint256",
						"name": "amount",
						"type": "uint256"
					},
					{
						"indexed": false,
						"internalType": "uint8",
						"name": "fromStatus",
						"type": "uint8"
					},
					{
						"indexed": true,
						"internalType": "bytes32",
						"name": "fromPool",
						"type": "bytes32"
					},
					{
						"indexed": false,
						"internalType": "uint8",
						"name": "toStatus",
						"type": "uint8"
					},
					{
						"indexed": true,
						"internalType": "bytes32",
						"name": "toPool",
						"type": "bytes32"
					}
				],
				"name": "MoveStake",
				"type": "event"
			},
			{
				"anonymous": false,
				"inputs": [
					{
						"indexed": true,
						"internalType": "bytes32",
						"name": "poolId",
						"type": "bytes32"
					},
					{
						"indexed": false,
						"internalType": "uint32",
						"name": "oldOperatorShare",
						"type": "uint32"
					},
					{
						"indexed": false,
						"internalType": "uint32",
						"name": "newOperatorShare",
						"type": "uint32"
					}
				],
				"name": "OperatorShareDecreased",
				"type": "event"
			},
			{
				"anonymous": false,
				"inputs": [
					{
						"indexed": true,
						"internalType": "address",
						"name": "previousOwner",
						"type": "address"
					},
					{
						"indexed": true,
						"internalType": "address",
						"name": "newOwner",
						"type": "address"
					}
				],
				"name": "OwnershipTransferred",
				"type": "event"
			},
			{
				"anonymous": false,
				"inputs": [
					{
						"indexed": false,
						"internalType": "uint256",
						"name": "epochDurationInSeconds",
						"type": "uint256"
					},
					{
						"indexed": false,
						"internalType": "uint32",
						"name": "rewardDelegatedStakeWeight",
						"type": "uint32"
					},
					{
						"indexed": false,
						"internalType": "uint256",
						"name": "minimumPoolStake",
						"type": "uint256"
					},
					{
						"indexed": false,
						"internalType": "uint256",
						"name": "cobbDouglasAlphaNumerator",
						"type": "uint256"
					},
					{
						"indexed": false,
						"internalType": "uint256",
						"name": "cobbDouglasAlphaDenominator",
						"type": "uint256"
					}
				],
				"name": "ParamsSet",
				"type": "event"
			},
			{
				"anonymous": false,
				"inputs": [
					{
						"indexed": false,
						"internalType": "address",
						"name": "exchangeAddress",
						"type": "address"
					}
				],
				"name": "PopAdded",
				"type": "event"
			},
			{
				"anonymous": false,
				"inputs": [
					{
						"indexed": false,
						"internalType": "address",
						"name": "exchangeAddress",
						"type": "address"
					}
				],
				"name": "PopRemoved",
				"type": "event"
			},
			{
				"anonymous": false,
				"inputs": [
					{
						"indexed": true,
						"internalType": "address",
						"name": "rbPoolAddress",
						"type": "address"
					},
					{
						"indexed": true,
						"internalType": "bytes32",
						"name": "poolId",
						"type": "bytes32"
					}
				],
				"name": "RbPoolStakingPoolSet",
				"type": "event"
			},
			{
				"anonymous": false,
				"inputs": [
					{
						"indexed": true,
						"internalType": "uint256",
						"name": "epoch",
						"type": "uint256"
					},
					{
						"indexed": true,
						"internalType": "bytes32",
						"name": "poolId",
						"type": "bytes32"
					},
					{
						"indexed": false,
						"internalType": "uint256",
						"name": "operatorReward",
						"type": "uint256"
					},
					{
						"indexed": false,
						"internalType": "uint256",
						"name": "membersReward",
						"type": "uint256"
					}
				],
				"name": "RewardsPaid",
				"type": "event"
			},
			{
				"anonymous": false,
				"inputs": [
					{
						"indexed": true,
						"internalType": "address",
						"name": "staker",
						"type": "address"
					},
					{
						"indexed": false,
						"internalType": "uint256",
						"name": "amount",
						"type": "uint256"
					}
				],
				"name": "Stake",
				"type": "event"
			},
			{
				"anonymous": false,
				"inputs": [
					{
						"indexed": false,
						"internalType": "bytes32",
						"name": "poolId",
						"type": "bytes32"
					},
					{
						"indexed": false,
						"internalType": "address",
						"name": "operator",
						"type": "address"
					},
					{
						"indexed": false,
						"internalType": "uint32",
						"name": "operatorShare",
						"type": "uint32"
					}
				],
				"name": "StakingPoolCreated",
				"type": "event"
			},
			{
				"anonymous": false,
				"inputs": [
					{
						"indexed": true,
						"internalType": "uint256",
						"name": "epoch",
						"type": "uint256"
					},
					{
						"indexed": true,
						"internalType": "bytes32",
						"name": "poolId",
						"type": "bytes32"
					}
				],
				"name": "StakingPoolEarnedRewardsInEpoch",
				"type": "event"
			},
			{
				"anonymous": false,
				"inputs": [
					{
						"indexed": true,
						"internalType": "address",
						"name": "staker",
						"type": "address"
					},
					{
						"indexed": false,
						"internalType": "uint256",
						"name": "amount",
						"type": "uint256"
					}
				],
				"name": "Unstake",
				"type": "event"
			},
			{
				"inputs": [
					{
						"internalType": "address",
						"name": "target",
						"type": "address"
					}
				],
				"name": "addAuthorizedAddress",
				"outputs": [],
				"stateMutability": "nonpayable",
				"type": "function"
			},
			{
				"inputs": [
					{
						"internalType": "address",
						"name": "addr",
						"type": "address"
					}
				],
				"name": "addPopAddress",
				"outputs": [],
				"stateMutability": "nonpayable",
				"type": "function"
			},
			{
				"inputs": [
					{
						"internalType": "uint256",
						"name": "",
						"type": "uint256"
					}
				],
				"name": "aggregatedStatsByEpoch",
				"outputs": [
					{
						"internalType": "uint256",
						"name": "rewardsAvailable",
						"type": "uint256"
					},
					{
						"internalType": "uint256",
						"name": "numPoolsToFinalize",
						"type": "uint256"
					},
					{
						"internalType": "uint256",
						"name": "totalFeesCollected",
						"type": "uint256"
					},
					{
						"internalType": "uint256",
						"name": "totalWeightedStake",
						"type": "uint256"
					},
					{
						"internalType": "uint256",
						"name": "totalRewardsFinalized",
						"type": "uint256"
					}
				],
				"stateMutability": "view",
				"type": "function"
			},
			{
				"inputs": [
					{
						"internalType": "uint256",
						"name": "",
						"type": "uint256"
					}
				],
				"name": "authorities",
				"outputs": [
					{
						"internalType": "address",
						"name": "",
						"type": "address"
					}
				],
				"stateMutability": "view",
				"type": "function"
			},
			{
				"inputs": [
					{
						"internalType": "address",
						"name": "",
						"type": "address"
					}
				],
				"name": "authorized",
				"outputs": [
					{
						"internalType": "bool",
						"name": "",
						"type": "bool"
					}
				],
				"stateMutability": "view",
				"type": "function"
			},
			{
				"inputs": [],
				"name": "cobbDouglasAlphaDenominator",
				"outputs": [
					{
						"internalType": "uint32",
						"name": "",
						"type": "uint32"
					}
				],
				"stateMutability": "view",
				"type": "function"
			},
			{
				"inputs": [],
				"name": "cobbDouglasAlphaNumerator",
				"outputs": [
					{
						"internalType": "uint32",
						"name": "",
						"type": "uint32"
					}
				],
				"stateMutability": "view",
				"type": "function"
			},
			{
				"inputs": [
					{
						"internalType": "bytes32",
						"name": "poolId",
						"type": "bytes32"
					},
					{
						"internalType": "address",
						"name": "member",
						"type": "address"
					}
				],
				"name": "computeRewardBalanceOfDelegator",
				"outputs": [
					{
						"internalType": "uint256",
						"name": "reward",
						"type": "uint256"
					}
				],
				"stateMutability": "view",
				"type": "function"
			},
			{
				"inputs": [
					{
						"internalType": "bytes32",
						"name": "poolId",
						"type": "bytes32"
					}
				],
				"name": "computeRewardBalanceOfOperator",
				"outputs": [
					{
						"internalType": "uint256",
						"name": "reward",
						"type": "uint256"
					}
				],
				"stateMutability": "view",
				"type": "function"
			},
			{
				"inputs": [
					{
						"internalType": "address",
						"name": "rigoblockPoolAddress",
						"type": "address"
					}
				],
				"name": "createStakingPool",
				"outputs": [
					{
						"internalType": "bytes32",
						"name": "poolId",
						"type": "bytes32"
					}
				],
				"stateMutability": "nonpayable",
				"type": "function"
			},
			{
				"inputs": [
					{
						"internalType": "address",
						"name": "poolAccount",
						"type": "address"
					},
					{
						"internalType": "uint256",
						"name": "popReward",
						"type": "uint256"
					}
				],
				"name": "creditPopReward",
				"outputs": [],
				"stateMutability": "payable",
				"type": "function"
			},
			{
				"inputs": [],
				"name": "currentEpoch",
				"outputs": [
					{
						"internalType": "uint256",
						"name": "",
						"type": "uint256"
					}
				],
				"stateMutability": "view",
				"type": "function"
			},
			{
				"inputs": [],
				"name": "currentEpochStartTimeInSeconds",
				"outputs": [
					{
						"internalType": "uint256",
						"name": "",
						"type": "uint256"
					}
				],
				"stateMutability": "view",
				"type": "function"
			},
			{
				"inputs": [
					{
						"internalType": "bytes32",
						"name": "poolId",
						"type": "bytes32"
					},
					{
						"internalType": "uint32",
						"name": "newOperatorShare",
						"type": "uint32"
					}
				],
				"name": "decreaseStakingPoolOperatorShare",
				"outputs": [],
				"stateMutability": "nonpayable",
				"type": "function"
			},
			{
				"inputs": [],
				"name": "endEpoch",
				"outputs": [
					{
						"internalType": "uint256",
						"name": "",
						"type": "uint256"
					}
				],
				"stateMutability": "nonpayable",
				"type": "function"
			},
			{
				"inputs": [],
				"name": "epochDurationInSeconds",
				"outputs": [
					{
						"internalType": "uint256",
						"name": "",
						"type": "uint256"
					}
				],
				"stateMutability": "view",
				"type": "function"
			},
			{
				"inputs": [
					{
						"internalType": "bytes32",
						"name": "poolId",
						"type": "bytes32"
					}
				],
				"name": "finalizePool",
				"outputs": [],
				"stateMutability": "nonpayable",
				"type": "function"
			},
			{
				"inputs": [],
				"name": "getAuthorizedAddresses",
				"outputs": [
					{
						"internalType": "address[]",
						"name": "",
						"type": "address[]"
					}
				],
				"stateMutability": "view",
				"type": "function"
			},
			{
				"inputs": [],
				"name": "getCurrentEpochEarliestEndTimeInSeconds",
				"outputs": [
					{
						"internalType": "uint256",
						"name": "",
						"type": "uint256"
					}
				],
				"stateMutability": "view",
				"type": "function"
			},
			{
				"inputs": [],
				"name": "getDragoRegistry",
				"outputs": [
					{
						"internalType": "contract IDragoRegistry",
						"name": "dragoRegistry",
						"type": "address"
					}
				],
				"stateMutability": "view",
				"type": "function"
			},
			{
				"inputs": [
					{
						"internalType": "enum IStructs.StakeStatus",
						"name": "stakeStatus",
						"type": "uint8"
					}
				],
				"name": "getGlobalStakeByStatus",
				"outputs": [
					{
						"components": [
							{
								"internalType": "uint64",
								"name": "currentEpoch",
								"type": "uint64"
							},
							{
								"internalType": "uint96",
								"name": "currentEpochBalance",
								"type": "uint96"
							},
							{
								"internalType": "uint96",
								"name": "nextEpochBalance",
								"type": "uint96"
							}
						],
						"internalType": "struct IStructs.StoredBalance",
						"name": "balance",
						"type": "tuple"
					}
				],
				"stateMutability": "view",
				"type": "function"
			},
			{
				"inputs": [],
				"name": "getGrgContract",
				"outputs": [
					{
						"internalType": "contract RigoTokenFace",
						"name": "grgContract",
						"type": "address"
					}
				],
				"stateMutability": "view",
				"type": "function"
			},
			{
				"inputs": [],
				"name": "getGrgVault",
				"outputs": [
					{
						"internalType": "contract IGrgVault",
						"name": "grgVault",
						"type": "address"
					}
				],
				"stateMutability": "view",
				"type": "function"
			},
			{
				"inputs": [
					{
						"internalType": "address",
						"name": "staker",
						"type": "address"
					},
					{
						"internalType": "enum IStructs.StakeStatus",
						"name": "stakeStatus",
						"type": "uint8"
					}
				],
				"name": "getOwnerStakeByStatus",
				"outputs": [
					{
						"components": [
							{
								"internalType": "uint64",
								"name": "currentEpoch",
								"type": "uint64"
							},
							{
								"internalType": "uint96",
								"name": "currentEpochBalance",
								"type": "uint96"
							},
							{
								"internalType": "uint96",
								"name": "nextEpochBalance",
								"type": "uint96"
							}
						],
						"internalType": "struct IStructs.StoredBalance",
						"name": "balance",
						"type": "tuple"
					}
				],
				"stateMutability": "view",
				"type": "function"
			},
			{
				"inputs": [],
				"name": "getParams",
				"outputs": [
					{
						"internalType": "uint256",
						"name": "_epochDurationInSeconds",
						"type": "uint256"
					},
					{
						"internalType": "uint32",
						"name": "_rewardDelegatedStakeWeight",
						"type": "uint32"
					},
					{
						"internalType": "uint256",
						"name": "_minimumPoolStake",
						"type": "uint256"
					},
					{
						"internalType": "uint32",
						"name": "_cobbDouglasAlphaNumerator",
						"type": "uint32"
					},
					{
						"internalType": "uint32",
						"name": "_cobbDouglasAlphaDenominator",
						"type": "uint32"
					}
				],
				"stateMutability": "view",
				"type": "function"
			},
			{
				"inputs": [
					{
						"internalType": "address",
						"name": "staker",
						"type": "address"
					},
					{
						"internalType": "bytes32",
						"name": "poolId",
						"type": "bytes32"
					}
				],
				"name": "getStakeDelegatedToPoolByOwner",
				"outputs": [
					{
						"components": [
							{
								"internalType": "uint64",
								"name": "currentEpoch",
								"type": "uint64"
							},
							{
								"internalType": "uint96",
								"name": "currentEpochBalance",
								"type": "uint96"
							},
							{
								"internalType": "uint96",
								"name": "nextEpochBalance",
								"type": "uint96"
							}
						],
						"internalType": "struct IStructs.StoredBalance",
						"name": "balance",
						"type": "tuple"
					}
				],
				"stateMutability": "view",
				"type": "function"
			},
			{
				"inputs": [
					{
						"internalType": "bytes32",
						"name": "poolId",
						"type": "bytes32"
					}
				],
				"name": "getStakingPool",
				"outputs": [
					{
						"components": [
							{
								"internalType": "address",
								"name": "operator",
								"type": "address"
							},
							{
								"internalType": "address",
								"name": "stakingPal",
								"type": "address"
							},
							{
								"internalType": "uint32",
								"name": "operatorShare",
								"type": "uint32"
							},
							{
								"internalType": "uint32",
								"name": "stakingPalShare",
								"type": "uint32"
							}
						],
						"internalType": "struct IStructs.Pool",
						"name": "",
						"type": "tuple"
					}
				],
				"stateMutability": "view",
				"type": "function"
			},
			{
				"inputs": [
					{
						"internalType": "bytes32",
						"name": "poolId",
						"type": "bytes32"
					}
				],
				"name": "getStakingPoolStatsThisEpoch",
				"outputs": [
					{
						"components": [
							{
								"internalType": "uint256",
								"name": "feesCollected",
								"type": "uint256"
							},
							{
								"internalType": "uint256",
								"name": "weightedStake",
								"type": "uint256"
							},
							{
								"internalType": "uint256",
								"name": "membersStake",
								"type": "uint256"
							}
						],
						"internalType": "struct IStructs.PoolStats",
						"name": "",
						"type": "tuple"
					}
				],
				"stateMutability": "view",
				"type": "function"
			},
			{
				"inputs": [
					{
						"internalType": "address",
						"name": "staker",
						"type": "address"
					}
				],
				"name": "getTotalStake",
				"outputs": [
					{
						"internalType": "uint256",
						"name": "",
						"type": "uint256"
					}
				],
				"stateMutability": "view",
				"type": "function"
			},
			{
				"inputs": [
					{
						"internalType": "bytes32",
						"name": "poolId",
						"type": "bytes32"
					}
				],
				"name": "getTotalStakeDelegatedToPool",
				"outputs": [
					{
						"components": [
							{
								"internalType": "uint64",
								"name": "currentEpoch",
								"type": "uint64"
							},
							{
								"internalType": "uint96",
								"name": "currentEpochBalance",
								"type": "uint96"
							},
							{
								"internalType": "uint96",
								"name": "nextEpochBalance",
								"type": "uint96"
							}
						],
						"internalType": "struct IStructs.StoredBalance",
						"name": "balance",
						"type": "tuple"
					}
				],
				"stateMutability": "view",
				"type": "function"
			},
			{
				"inputs": [],
				"name": "grgReservedForPoolRewards",
				"outputs": [
					{
						"internalType": "uint256",
						"name": "",
						"type": "uint256"
					}
				],
				"stateMutability": "view",
				"type": "function"
			},
			{
				"inputs": [],
				"name": "init",
				"outputs": [],
				"stateMutability": "nonpayable",
				"type": "function"
			},
			{
				"inputs": [
					{
						"internalType": "bytes32",
						"name": "poolId",
						"type": "bytes32"
					},
					{
						"internalType": "address",
						"name": "rigoblockPoolAccount",
						"type": "address"
					}
				],
				"name": "joinStakingPoolAsRbPoolAccount",
				"outputs": [],
				"stateMutability": "nonpayable",
				"type": "function"
			},
			{
				"inputs": [],
				"name": "lastPoolId",
				"outputs": [
					{
						"internalType": "bytes32",
						"name": "",
						"type": "bytes32"
					}
				],
				"stateMutability": "view",
				"type": "function"
			},
			{
				"inputs": [],
				"name": "minimumPoolStake",
				"outputs": [
					{
						"internalType": "uint256",
						"name": "",
						"type": "uint256"
					}
				],
				"stateMutability": "view",
				"type": "function"
			},
			{
				"inputs": [
					{
						"components": [
							{
								"internalType": "enum IStructs.StakeStatus",
								"name": "status",
								"type": "uint8"
							},
							{
								"internalType": "bytes32",
								"name": "poolId",
								"type": "bytes32"
							}
						],
						"internalType": "struct IStructs.StakeInfo",
						"name": "from",
						"type": "tuple"
					},
					{
						"components": [
							{
								"internalType": "enum IStructs.StakeStatus",
								"name": "status",
								"type": "uint8"
							},
							{
								"internalType": "bytes32",
								"name": "poolId",
								"type": "bytes32"
							}
						],
						"internalType": "struct IStructs.StakeInfo",
						"name": "to",
						"type": "tuple"
					},
					{
						"internalType": "uint256",
						"name": "amount",
						"type": "uint256"
					}
				],
				"name": "moveStake",
				"outputs": [],
				"stateMutability": "nonpayable",
				"type": "function"
			},
			{
				"inputs": [],
				"name": "owner",
				"outputs": [
					{
						"internalType": "address",
						"name": "",
						"type": "address"
					}
				],
				"stateMutability": "view",
				"type": "function"
			},
			{
				"inputs": [
					{
						"internalType": "address",
						"name": "",
						"type": "address"
					}
				],
				"name": "poolIdByRbPoolAccount",
				"outputs": [
					{
						"internalType": "bytes32",
						"name": "",
						"type": "bytes32"
					}
				],
				"stateMutability": "view",
				"type": "function"
			},
			{
				"inputs": [
					{
						"internalType": "bytes32",
						"name": "",
						"type": "bytes32"
					},
					{
						"internalType": "uint256",
						"name": "",
						"type": "uint256"
					}
				],
				"name": "poolStatsByEpoch",
				"outputs": [
					{
						"internalType": "uint256",
						"name": "feesCollected",
						"type": "uint256"
					},
					{
						"internalType": "uint256",
						"name": "weightedStake",
						"type": "uint256"
					},
					{
						"internalType": "uint256",
						"name": "membersStake",
						"type": "uint256"
					}
				],
				"stateMutability": "view",
				"type": "function"
			},
			{
				"inputs": [
					{
						"internalType": "address",
						"name": "target",
						"type": "address"
					}
				],
				"name": "removeAuthorizedAddress",
				"outputs": [],
				"stateMutability": "nonpayable",
				"type": "function"
			},
			{
				"inputs": [
					{
						"internalType": "address",
						"name": "target",
						"type": "address"
					},
					{
						"internalType": "uint256",
						"name": "index",
						"type": "uint256"
					}
				],
				"name": "removeAuthorizedAddressAtIndex",
				"outputs": [],
				"stateMutability": "nonpayable",
				"type": "function"
			},
			{
				"inputs": [
					{
						"internalType": "address",
						"name": "addr",
						"type": "address"
					}
				],
				"name": "removePopAddress",
				"outputs": [],
				"stateMutability": "nonpayable",
				"type": "function"
			},
			{
				"inputs": [],
				"name": "rewardDelegatedStakeWeight",
				"outputs": [
					{
						"internalType": "uint32",
						"name": "",
						"type": "uint32"
					}
				],
				"stateMutability": "view",
				"type": "function"
			},
			{
				"inputs": [
					{
						"internalType": "bytes32",
						"name": "",
						"type": "bytes32"
					}
				],
				"name": "rewardsByPoolId",
				"outputs": [
					{
						"internalType": "uint256",
						"name": "",
						"type": "uint256"
					}
				],
				"stateMutability": "view",
				"type": "function"
			},
			{
				"inputs": [
					{
						"internalType": "uint256",
						"name": "_epochDurationInSeconds",
						"type": "uint256"
					},
					{
						"internalType": "uint32",
						"name": "_rewardDelegatedStakeWeight",
						"type": "uint32"
					},
					{
						"internalType": "uint256",
						"name": "_minimumPoolStake",
						"type": "uint256"
					},
					{
						"internalType": "uint32",
						"name": "_cobbDouglasAlphaNumerator",
						"type": "uint32"
					},
					{
						"internalType": "uint32",
						"name": "_cobbDouglasAlphaDenominator",
						"type": "uint32"
					}
				],
				"name": "setParams",
				"outputs": [],
				"stateMutability": "nonpayable",
				"type": "function"
			},
			{
				"inputs": [
					{
						"internalType": "bytes32",
						"name": "poolId",
						"type": "bytes32"
					},
					{
						"internalType": "address",
						"name": "newStakingPalAddress",
						"type": "address"
					}
				],
				"name": "setStakingPalAddress",
				"outputs": [],
				"stateMutability": "nonpayable",
				"type": "function"
			},
			{
				"inputs": [
					{
						"internalType": "uint256",
						"name": "amount",
						"type": "uint256"
					}
				],
				"name": "stake",
				"outputs": [],
				"stateMutability": "nonpayable",
				"type": "function"
			},
			{
				"inputs": [],
				"name": "stakingContract",
				"outputs": [
					{
						"internalType": "address",
						"name": "",
						"type": "address"
					}
				],
				"stateMutability": "view",
				"type": "function"
			},
			{
				"inputs": [
					{
						"internalType": "address",
						"name": "newOwner",
						"type": "address"
					}
				],
				"name": "transferOwnership",
				"outputs": [],
				"stateMutability": "nonpayable",
				"type": "function"
			},
			{
				"inputs": [
					{
						"internalType": "uint256",
						"name": "amount",
						"type": "uint256"
					}
				],
				"name": "unstake",
				"outputs": [],
				"stateMutability": "nonpayable",
				"type": "function"
			},
			{
				"inputs": [
					{
						"internalType": "address",
						"name": "",
						"type": "address"
					}
				],
				"name": "validPops",
				"outputs": [
					{
						"internalType": "bool",
						"name": "",
						"type": "bool"
					}
				],
				"stateMutability": "view",
				"type": "function"
			},
			{
				"inputs": [
					{
						"internalType": "bytes32",
						"name": "poolId",
						"type": "bytes32"
					}
				],
				"name": "withdrawDelegatorRewards",
				"outputs": [],
				"stateMutability": "nonpayable",
				"type": "function"
			}
		],
		"devdoc": {
			"kind": "dev",
			"methods": {
				"addAuthorizedAddress(address)": {
					"details": "Authorizes an address.",
					"params": {
						"target": "Address to authorize."
					}
				},
				"addPopAddress(address)": {
					"details": "Adds a new pop address.",
					"params": {
						"addr": "Address of pop contract to add."
					}
				},
				"computeRewardBalanceOfDelegator(bytes32,address)": {
					"details": "Computes the reward balance in ETH of a specific member of a pool.",
					"params": {
						"member": "The member of the pool.",
						"poolId": "Unique id of pool."
					},
					"returns": {
						"reward": "totalReward Balance in ETH."
					}
				},
				"computeRewardBalanceOfOperator(bytes32)": {
					"details": "Computes the reward balance in ETH of the operator of a pool.",
					"params": {
						"poolId": "Unique id of pool."
					},
					"returns": {
						"reward": "totalReward Balance in ETH."
					}
				},
				"createStakingPool(address)": {
					"details": "Create a new staking pool. The sender will be the operator of this pool. Note that an operator must be payable.",
					"params": {
						"rigoblockPoolAddress": "Adds rigoblock pool to the created staking pool for convenience if non-null."
					},
					"returns": {
						"poolId": "The unique pool id generated for this pool."
					}
				},
				"creditPopReward(address,uint256)": {
					"details": "Credits the value of a pool's pop reward.      Only a known RigoBlock pop can call this method. See      (MixinPopManager).",
					"params": {
						"poolAccount": "The address of the rigoblock pool account.",
						"popReward": "The pop reward."
					}
				},
				"decreaseStakingPoolOperatorShare(bytes32,uint32)": {
					"details": "Decreases the operator share for the given pool (i.e. increases pool rewards for members).",
					"params": {
						"newOperatorShare": "The newly decreased percentage of any rewards owned by the operator.",
						"poolId": "Unique Id of pool."
					}
				},
				"endEpoch()": {
					"details": "Begins a new epoch, preparing the prior one for finalization.      Throws if not enough time has passed between epochs or if the      previous epoch was not fully finalized.",
					"returns": {
						"_0": "numPoolsToFinalize The number of unfinalized pools."
					}
				},
				"finalizePool(bytes32)": {
					"details": "Instantly finalizes a single pool that earned rewards in the previous      epoch, crediting it rewards for members and withdrawing operator's      rewards as WETH. This can be called by internal functions that need      to finalize a pool immediately. Does nothing if the pool is already      finalized or did not earn rewards in the previous epoch.",
					"params": {
						"poolId": "The pool ID to finalize."
					}
				},
				"getAuthorizedAddresses()": {
					"details": "Gets all authorized addresses.",
					"returns": {
						"_0": "Array of authorized addresses."
					}
				},
				"getCurrentEpochEarliestEndTimeInSeconds()": {
					"details": "Returns the earliest end time in seconds of this epoch.      The next epoch can begin once this time is reached.      Epoch period = [startTimeInSeconds..endTimeInSeconds)",
					"returns": {
						"_0": "Time in seconds."
					}
				},
				"getDragoRegistry()": {
					"details": "An overridable way to access the deployed dragoRegistry.      Must be view to allow overrides to access state.",
					"returns": {
						"dragoRegistry": "The dragoRegistry contract."
					}
				},
				"getGlobalStakeByStatus(uint8)": {
					"details": "Gets global stake for a given status.",
					"params": {
						"stakeStatus": "UNDELEGATED or DELEGATED"
					},
					"returns": {
						"balance": "Global stake for given status."
					}
				},
				"getGrgContract()": {
					"details": "An overridable way to access the deployed GRG contract.      Must be view to allow overrides to access state.",
					"returns": {
						"grgContract": "The GRG contract instance."
					}
				},
				"getGrgVault()": {
					"details": "An overridable way to access the deployed grgVault.      Must be view to allow overrides to access state.",
					"returns": {
						"grgVault": "The grgVault contract."
					}
				},
				"getOwnerStakeByStatus(address,uint8)": {
					"details": "Gets an owner's stake balances by status.",
					"params": {
						"stakeStatus": "UNDELEGATED or DELEGATED",
						"staker": "Owner of stake."
					},
					"returns": {
						"balance": "Owner's stake balances for given status."
					}
				},
				"getParams()": {
					"details": "Retrieves all configurable parameter values.",
					"returns": {
						"_cobbDouglasAlphaDenominator": "Denominator for cobb douglas alpha factor.",
						"_cobbDouglasAlphaNumerator": "Numerator for cobb douglas alpha factor.",
						"_epochDurationInSeconds": "Minimum seconds between epochs.",
						"_minimumPoolStake": "Minimum amount of stake required in a pool to collect rewards.",
						"_rewardDelegatedStakeWeight": "How much delegated stake is weighted vs operator stake, in ppm."
					}
				},
				"getStakeDelegatedToPoolByOwner(address,bytes32)": {
					"details": "Returns the stake delegated to a specific staking pool, by a given staker.",
					"params": {
						"poolId": "Unique Id of pool.",
						"staker": "of stake."
					},
					"returns": {
						"balance": "Stake delegated to pool by staker."
					}
				},
				"getStakingPool(bytes32)": {
					"details": "Returns a staking pool",
					"params": {
						"poolId": "Unique id of pool."
					}
				},
				"getStakingPoolStatsThisEpoch(bytes32)": {
					"details": "Get stats on a staking pool in this epoch.",
					"params": {
						"poolId": "Pool Id to query."
					},
					"returns": {
						"_0": "PoolStats struct for pool id."
					}
				},
				"getTotalStake(address)": {
					"details": "Returns the total stake for a given staker.",
					"params": {
						"staker": "of stake."
					},
					"returns": {
						"_0": "Total GRG staked by `staker`."
					}
				},
				"getTotalStakeDelegatedToPool(bytes32)": {
					"details": "Returns the total stake delegated to a specific staking pool,      across all members.",
					"params": {
						"poolId": "Unique Id of pool."
					},
					"returns": {
						"balance": "Total stake delegated to pool."
					}
				},
				"init()": {
					"details": "Initialize storage owned by this contract.      This function should not be called directly.      The StakingProxy contract will call it in `attachStakingContract()`."
				},
				"joinStakingPoolAsRbPoolAccount(bytes32,address)": {
					"details": "Allows caller to join a staking pool as a rigoblock pool account.",
					"params": {
						"poolId": "Unique id of pool.",
						"rigoblockPoolAccount": "Address of subaccount to be added to staking pool."
					}
				},
				"moveStake((uint8,bytes32),(uint8,bytes32),uint256)": {
					"details": "Moves stake between statuses: 'undelegated' or 'delegated'.      Delegated stake can also be moved between pools.      This change comes into effect next epoch.",
					"params": {
						"amount": "Amount of stake to move.",
						"from": "Status to move stake out of.",
						"to": "Status to move stake into."
					}
				},
				"removeAuthorizedAddress(address)": {
					"details": "Removes authorizion of an address.",
					"params": {
						"target": "Address to remove authorization from."
					}
				},
				"removeAuthorizedAddressAtIndex(address,uint256)": {
					"details": "Removes authorizion of an address.",
					"params": {
						"index": "Index of target in authorities array.",
						"target": "Address to remove authorization from."
					}
				},
				"removePopAddress(address)": {
					"details": "Removes an existing proof_of_performance address.",
					"params": {
						"addr": "Address of proof_of_performance contract to remove."
					}
				},
				"setParams(uint256,uint32,uint256,uint32,uint32)": {
					"details": "Set all configurable parameters at once.",
					"params": {
						"_cobbDouglasAlphaDenominator": "Denominator for cobb douglas alpha factor.",
						"_cobbDouglasAlphaNumerator": "Numerator for cobb douglas alpha factor.",
						"_epochDurationInSeconds": "Minimum seconds between epochs.",
						"_minimumPoolStake": "Minimum amount of stake required in a pool to collect rewards.",
						"_rewardDelegatedStakeWeight": "How much delegated stake is weighted vs operator stake, in ppm."
					}
				},
				"setStakingPalAddress(bytes32,address)": {
					"details": "Allows the operator to update the staking pal address.",
					"params": {
						"newStakingPalAddress": "Address of the new staking pal.",
						"poolId": "Unique id of pool."
					}
				},
				"stake(uint256)": {
					"details": "Stake GRG tokens. Tokens are deposited into the GRG Vault.      Unstake to retrieve the GRG. Stake is in the 'Active' status.",
					"params": {
						"amount": "Amount of GRG to stake."
					}
				},
				"transferOwnership(address)": {
					"details": "Change the owner of this contract.",
					"params": {
						"newOwner": "New owner address."
					}
				},
				"unstake(uint256)": {
					"details": "Unstake. Tokens are withdrawn from the GRG Vault and returned to      the staker. Stake must be in the 'undelegated' status in both the      current and next epoch in order to be unstaked.",
					"params": {
						"amount": "Amount of GRG to unstake."
					}
				},
				"withdrawDelegatorRewards(bytes32)": {
					"details": "Withdraws the caller's WETH rewards that have accumulated      until the last epoch.",
					"params": {
						"poolId": "Unique id of pool."
					}
				}
			},
			"version": 1
		},
		"evm": {
			"bytecode": {
				"linkReferences": {},
				"object": "0x608060405234801561001057600080fd5b50600080546001600160a01b031916331790556164eb80620000336000396000f3fe60806040526004361061033f5760003560e01c80639ad26744116101b0578063d39de6e9116100ec578063e907f00311610095578063ef4ba6801161006f578063ef4ba68014610915578063f252b7a11461092a578063f2fde38b1461094a578063ff691b111461096a5761033f565b8063e907f003146108cd578063ecc128f2146108ed578063ee99205c146109005761033f565b8063e1c7392a116100c6578063e1c7392a14610883578063e804d0a414610898578063e8eeb3f8146108b85761033f565b8063d39de6e914610837578063e0822db714610859578063e0ee036e1461086e5761033f565b8063b510879f11610159578063bb7ef7e011610133578063bb7ef7e0146107c2578063be111af4146107e2578063c18c914114610802578063d14dc231146108225761033f565b8063b510879f1461076d578063b652b41f1461078d578063b9181611146107a25761033f565b8063a657e5791161018a578063a657e57914610723578063a694fc3a14610738578063b2baa33e146107585761033f565b80639ad26744146106ce5780639c3ccc82146106ee578063a26171e21461070e5761033f565b8063494503d41161027f5780635e615a6b11610228578063766718081161020257806376671808146106625780637fa140c71461067757806381666796146106975780638da5cb5b146106b95761033f565b80635e615a6b14610607578063634038011461062d57806370712939146106425761033f565b8063587da02311610259578063587da023146105b257806358f6c7e3146105c75780635d91121d146105e75761033f565b8063494503d41461052b5780634bcc3f6714610558578063540c2d53146105855761033f565b806336d7dd8e116102ec5780633e4ad732116102c65780633e4ad7321461049157806342f1181e146104be57806344a6958b146104de57806346b97959146104fe5761033f565b806336d7dd8e1461042057806338229d93146104405780633a832382146104715761033f565b80631f81eb801161031d5780631f81eb80146103b15780632a94c279146103d15780632e17de78146104005761033f565b80630b9663db146103445780631a67a0a01461036f5780631e7ff8f614610391575b600080fd5b34801561035057600080fd5b5061035961098a565b60405161036691906161c1565b60405180910390f35b34801561037b57600080fd5b5061038f61038a366004615f87565b610acd565b005b34801561039d57600080fd5b506103596103ac366004615e01565b610ca8565b3480156103bd57600080fd5b5061038f6103cc366004615e01565b610d42565b3480156103dd57600080fd5b506103f16103ec366004615fb6565b610e0c565b604051610366939291906163d3565b34801561040c57600080fd5b5061038f61041b366004615f6f565b610e38565b34801561042c57600080fd5b5061038f61043b366004615e01565b610fed565b34801561044c57600080fd5b5061046061045b366004615f6f565b6110b3565b604051610366959493929190616404565b34801561047d57600080fd5b5061038f61048c366004615f87565b6110e2565b34801561049d57600080fd5b506104b16104ac366004615f6f565b61118b565b6040516103669190616394565b3480156104ca57600080fd5b5061038f6104d9366004615e01565b6111aa565b3480156104ea57600080fd5b506104b16104f9366004615e64565b6111be565b34801561050a57600080fd5b5061051e610519366004615f6f565b61121d565b604051610366919061631d565b34801561053757600080fd5b5061054b610546366004615f6f565b611268565b6040516103669190616115565b34801561056457600080fd5b50610578610573366004615f6f565b61129f565b604051610366919061633e565b34801561059157600080fd5b506105a56105a0366004615e01565b61133b565b60405161036691906161b6565b3480156105be57600080fd5b50610359611350565b3480156105d357600080fd5b5061038f6105e2366004616013565b611356565b3480156105f357600080fd5b5061038f610602366004615fd7565b611552565b34801561061357600080fd5b5061061c611621565b604051610366959493929190616427565b34801561063957600080fd5b5061035961164a565b34801561064e57600080fd5b5061038f61065d366004615e01565b611650565b34801561066e57600080fd5b50610359611705565b34801561068357600080fd5b50610359610692366004615e01565b61170b565b3480156106a357600080fd5b506106ac61171d565b604051610366919061646b565b3480156106c557600080fd5b5061054b611729565b3480156106da57600080fd5b5061038f6106e9366004615f3d565b611745565b3480156106fa57600080fd5b5061038f6107093660046160bf565b611757565b34801561071a57600080fd5b506103596117d1565b34801561072f57600080fd5b506103596117d7565b34801561074457600080fd5b5061038f610753366004615f6f565b6117dd565b34801561076457600080fd5b506103596118f2565b34801561077957600080fd5b5061038f610788366004615f6f565b611910565b34801561079957600080fd5b5061054b61191a565b3480156107ae57600080fd5b506105a56107bd366004615e01565b611932565b3480156107ce57600080fd5b506103596107dd366004615f6f565b611947565b3480156107ee57600080fd5b506103596107fd366004615e01565b611a07565b34801561080e57600080fd5b5061035961081d366004615f6f565b611c96565b34801561082e57600080fd5b50610359611ca8565b34801561084357600080fd5b5061084c611cae565b604051610366919061615c565b34801561086557600080fd5b5061054b611d1d565b34801561087a57600080fd5b506106ac611d35565b34801561088f57600080fd5b5061038f611d41565b3480156108a457600080fd5b506104b16108b3366004615ff9565b611d5b565b3480156108c457600080fd5b506106ac611ea5565b3480156108d957600080fd5b506103596108e8366004615f87565b611eb9565b61038f6108fb366004615f3d565b611f8b565b34801561090c57600080fd5b5061054b6120e8565b34801561092157600080fd5b5061054b612104565b34801561093657600080fd5b506104b1610945366004615e39565b61211c565b34801561095657600080fd5b5061038f610965366004615e01565b61215d565b34801561097657600080fd5b5061038f610985366004615f6f565b612200565b600c546000908161099c82600161256b565b60008181526016602052604090206001015490915080156109c9576109c96109c4838361258a565b6125fd565b6109d1612605565b6000848152601660205260409020556109e8615c61565b50600083815260166020908152604091829020825160a08101845281548082526001830154938201849052600283015482860181905260038401546060840181905260049094015460808401529451919488947fbb4a26fa0ace13ee4da343896c20eaa44a618fb9071fdd8c2e2c960a4583189d94610a6a94919392916163e9565b60405180910390a2610a7a61269d565b6020810151610ac157805160405185917fb463d19ecf455be65365092cf8e1db6934a0334cf8cd532ddf9964d01f36b5b291610ab8916000916161fc565b60405180910390a25b60200151935050505090565b600080610ad861191a565b6040517fc277f1ac00000000000000000000000000000000000000000000000000000000815273ffffffffffffffffffffffffffffffffffffffff919091169063c277f1ac90610b2c9087906004016161c1565b60006040518083038186803b158015610b4457600080fd5b505afa158015610b58573d6000803e3d6000fd5b505050506040513d6000823e601f3d9081017fffffffffffffffffffffffffffffffffffffffffffffffffffffffffffffffe0168201604052610b9e9190810190615e98565b50509350505091506000811415610bea576040517f08c379a0000000000000000000000000000000000000000000000000000000008152600401610be19061620a565b60405180910390fd5b8273ffffffffffffffffffffffffffffffffffffffff168273ffffffffffffffffffffffffffffffffffffffff1614610c4f576040517f08c379a0000000000000000000000000000000000000000000000000000000008152600401610be190616278565b73ffffffffffffffffffffffffffffffffffffffff8083166000908152600960205260408082208790555186928616917fe8b9f7ee7a4480d45b60e98f7b2090dd82e2353b8557a6ee2dd2d5ee9196bac291a350505050565b6000610cb2611d1d565b73ffffffffffffffffffffffffffffffffffffffff166370a08231836040518263ffffffff1660e01b8152600401610cea9190616115565b60206040518083038186803b158015610d0257600080fd5b505afa158015610d16573d6000803e3d6000fd5b505050506040513d601f19601f82011682018060405250810190610d3a9190616050565b90505b919050565b610d4a6126da565b73ffffffffffffffffffffffffffffffffffffffff811660009081526010602052604090205460ff1615610d8657610d866109c46000836126fd565b73ffffffffffffffffffffffffffffffffffffffff811660008181526010602090815260409182902080547fffffffffffffffffffffffffffffffffffffffffffffffffffffffffffffff00166001179055815192835290517f5738ee3c8e8fe8b0b9c4c21b16fdca42ec02e271237dfeabbf3b5af1584d732b9281900390910190a150565b601560209081526000928352604080842090915290825290208054600182015460029092015490919083565b33610e41615c90565b73ffffffffffffffffffffffffffffffffffffffff821660009081527f05b8ccbb9d4d8fb16ea74ce3c29a41f1b461fbdaff4714a0d9a8eb05499746bc60205260409020610e8e906127a5565b90506000610ec082602001516bffffffffffffffffffffffff1683604001516bffffffffffffffffffffffff1661284b565b905080841115610ed757610ed76109c48583612861565b73ffffffffffffffffffffffffffffffffffffffff831660009081527f05b8ccbb9d4d8fb16ea74ce3c29a41f1b461fbdaff4714a0d9a8eb05499746bc60205260409020610f2590856128d4565b610f2d611d1d565b73ffffffffffffffffffffffffffffffffffffffff16639470b0bd84866040518363ffffffff1660e01b8152600401610f67929190616136565b600060405180830381600087803b158015610f8157600080fd5b505af1158015610f95573d6000803e3d6000fd5b505050508273ffffffffffffffffffffffffffffffffffffffff167f85082129d87b2fe11527cb1b3b7a520aeb5aa6913f88a3d8757fe40d1db02fdd85604051610fdf91906161c1565b60405180910390a250505050565b610ff56126da565b73ffffffffffffffffffffffffffffffffffffffff811660009081526010602052604090205460ff16611030576110306109c46001836126fd565b73ffffffffffffffffffffffffffffffffffffffff811660008181526010602090815260409182902080547fffffffffffffffffffffffffffffffffffffffffffffffffffffffffffffff00169055815192835290517f9bf55462cb5fa187f725d06de0a70bc01c4e40695570bdc25ad116f9be46bda79281900390910190a150565b601660205260009081526040902080546001820154600283015460038401546004909401549293919290919085565b816110ec81612955565b6000838152600a6020526040902073ffffffffffffffffffffffffffffffffffffffff831615806111395750600181015473ffffffffffffffffffffffffffffffffffffffff8481169116145b156111445750611186565b60010180547fffffffffffffffffffffffff00000000000000000000000000000000000000001673ffffffffffffffffffffffffffffffffffffffff84161790555b505050565b611193615c90565b6000828152600760205260409020610d3a906127a5565b6111b261298e565b6111bb816129d5565b50565b6111c6615c90565b611214600560008460018111156111d957fe5b60ff1681526020808201929092526040908101600090812073ffffffffffffffffffffffffffffffffffffffff8816825290925290206127a5565b90505b92915050565b611225615cb0565b506000908152601560209081526040808320600c548452825291829020825160608101845281548152600182015492810192909252600201549181019190915290565b6002818154811061127857600080fd5b60009182526020909120015473ffffffffffffffffffffffffffffffffffffffff16905081565b6112a7615cd1565b506000908152600a60209081526040918290208251608081018452815473ffffffffffffffffffffffffffffffffffffffff90811682526001909201549182169281019290925263ffffffff74010000000000000000000000000000000000000000820481169383019390935278010000000000000000000000000000000000000000000000009004909116606082015290565b60106020526000908152604090205460ff1681565b600d5481565b33816113625750611186565b60006113716020860186615ff9565b600181111561137c57fe5b1480156113a0575060006113936020850185615ff9565b600181111561139e57fe5b145b156113ab5750611186565b60016113ba6020860186615ff9565b60018111156113c557fe5b14156113da576113da84602001358284612b06565b60016113e96020850185615ff9565b60018111156113f457fe5b14156114095761140983602001358284612b9f565b600060058161141b6020880188615ff9565b600181111561142657fe5b60ff1681526020808201929092526040908101600090812073ffffffffffffffffffffffffffffffffffffffff861682528352908120925090600590829061147090880188615ff9565b600181111561147b57fe5b60ff1681526020808201929092526040908101600090812073ffffffffffffffffffffffffffffffffffffffff87168252909252902090506114be828286612c38565b60208086013590870180359073ffffffffffffffffffffffffffffffffffffffff8616907f7d3ad1dcf03b9027064d1d9a474a69e0cecc31324c541d3eb9b5e6fa2f106c8d908890611510908c615ff9565b600181111561151b57fe5b61152860208c018c615ff9565b600181111561153357fe5b60405161154293929190616452565b60405180910390a4505050505050565b8161155c81612955565b6000838152600a602052604090206001015474010000000000000000000000000000000000000000900463ffffffff16611597848285612d25565b6000848152600a60205260409081902060010180547fffffffffffffffff00000000ffffffffffffffffffffffffffffffffffffffff167401000000000000000000000000000000000000000063ffffffff8716021790555184907f8ea2a7a959bd25f226b7b0a4393613f7fdcaa8404e8bad96aa52dc1c1459016790610fdf908490879061647c565b601154601254601354601454929363ffffffff9283169391928281169264010000000090041690565b60115481565b61165861298e565b73ffffffffffffffffffffffffffffffffffffffff811660009081526001602052604090205460ff16611691576116916109c482612d6d565b60005b600254811015611701578173ffffffffffffffffffffffffffffffffffffffff16600282815481106116c257fe5b60009182526020909120015473ffffffffffffffffffffffffffffffffffffffff1614156116f9576116f48282612df0565b611701565b600101611694565b5050565b600c5481565b60096020526000908152604090205481565b60145463ffffffff1681565b60005473ffffffffffffffffffffffffffffffffffffffff1681565b61174d61298e565b6117018282612df0565b61175f6126da565b61176c858585858561306b565b3073ffffffffffffffffffffffffffffffffffffffff1663c6f3a4276040518163ffffffff1660e01b815260040160006040518083038186803b1580156117b257600080fd5b505afa1580156117c6573d6000803e3d6000fd5b505050505050505050565b60135481565b60085481565b336117e6611d1d565b73ffffffffffffffffffffffffffffffffffffffff166315cc36f282846040518363ffffffff1660e01b8152600401611820929190616136565b600060405180830381600087803b15801561183a57600080fd5b505af115801561184e573d6000803e3d6000fd5b5050505073ffffffffffffffffffffffffffffffffffffffff811660009081527f05b8ccbb9d4d8fb16ea74ce3c29a41f1b461fbdaff4714a0d9a8eb05499746bc602052604090206118a09083613141565b8073ffffffffffffffffffffffffffffffffffffffff167febedb8b3c678666e7f36970bc8f57abf6d8fa2e828c0da91ea5b75bf68ed101a836040516118e691906161c1565b60405180910390a25050565b600061190b601154600d546131a190919063ffffffff16565b905090565b6111bb81336131bd565b73de6445484a8dcd9bf35fc95eb4e3990cc358822e90565b60016020526000908152604090205460ff1681565b6000611951615cd1565b506000828152600a602090815260408083208151608081018352815473ffffffffffffffffffffffffffffffffffffffff90811682526001909201549182169381019390935263ffffffff7401000000000000000000000000000000000000000082048116928401929092527801000000000000000000000000000000000000000000000000900416606082015290806119ea85613395565b915091506119fd836040015183836133ab565b5095945050505050565b6000806000611a1461191a565b73ffffffffffffffffffffffffffffffffffffffff1663b72e717d856040518263ffffffff1660e01b8152600401611a4c9190616115565b60006040518083038186803b158015611a6457600080fd5b505afa158015611a78573d6000803e3d6000fd5b505050506040513d6000823e601f3d9081017fffffffffffffffffffffffffffffffffffffffffffffffffffffffffffffffe0168201604052611abe9190810190616068565b50945050505091506000821415611b01576040517f08c379a0000000000000000000000000000000000000000000000000000000008152600401610be1906162af565b8033620aae60620186a0611b14866133e6565b8560001b9650611b22615cd1565b506040805160808101825273ffffffffffffffffffffffffffffffffffffffff8087168252858116602080840191825263ffffffff8088168587019081528782166060870190815260008f8152600a90945292879020865181549087167fffffffffffffffffffffffff00000000000000000000000000000000000000009182161782559451600190910180549251945184167801000000000000000000000000000000000000000000000000027fffffffff00000000ffffffffffffffffffffffffffffffffffffffffffffffff9590941674010000000000000000000000000000000000000000027fffffffffffffffff00000000ffffffffffffffffffffffffffffffffffffffff92909716929095169190911716939093171691909117905590517fcec6fc86ea644053f6edff1160dfe3fa5c61e7a5ef9f873f145bb03a0bd319e790611c78908a90889087906161ca565b60405180910390a1611c8a888a610acd565b50505050505050919050565b600b6020526000908152604090205481565b60175481565b60606002805480602002602001604051908101604052809291908181526020018280548015611d1357602002820191906000526020600020905b815473ffffffffffffffffffffffffffffffffffffffff168152600190910190602001808311611ce8575b5050505050905090565b73ba7f8b5fb1b19c1211c5d49550fcd149177a5eaf90565b60125463ffffffff1681565b611d496126da565b611d5161341e565b611d59613431565b565b611d63615c90565b60016000526004602052611d967fabd6e7cb50984ff9c2f3e18a2660c3353dadf4e3291deeb275dae2cd1e44fe056127a5565b90506000826001811115611da657fe5b1415610d3d576000611db6611d1d565b73ffffffffffffffffffffffffffffffffffffffff16636b6df5aa6040518163ffffffff1660e01b815260040160206040518083038186803b158015611dfb57600080fd5b505afa158015611e0f573d6000803e3d6000fd5b505050506040513d601f19601f82011682018060405250810190611e339190616050565b9050611e62611e5d83602001516bffffffffffffffffffffffff168361256b90919063ffffffff16565b61345c565b6bffffffffffffffffffffffff90811660208401526040830151611e8c91611e5d9184911661256b565b6bffffffffffffffffffffffff16604083015250919050565b601454640100000000900463ffffffff1681565b6000611ec3615cd1565b506000838152600a602090815260408083208151608081018352815473ffffffffffffffffffffffffffffffffffffffff90811682526001909201549182169381019390935263ffffffff740100000000000000000000000000000000000000008204811692840192909252780100000000000000000000000000000000000000000000000090041660608201529080611f5c86613395565b915091506000611f71846040015184846133ab565b915050611f8087878385613480565b979650505050505050565b3360009081526010602052604090205460ff16611fae57611fae6109c4336135c1565b73ffffffffffffffffffffffffffffffffffffffff821660009081526009602052604090205480611fdf5750611701565b6000611fea8261118b565b602001516bffffffffffffffffffffffff16905060135481101561200f575050611701565b600c546000838152601560209081526040808320848452825280832060169092529091208154806120b2576000806120478888613644565b60028701829055600187018190556003860154919350915061206990826131a1565b600385015560018085015461207d916131a1565b6001850155604051889087907f14b098103235344975b17508c2391721cc9ac3f3fa2b56c7ff46f8480dfd074f90600090a350505b808711156120de5786835560028201546120d89082906120d2908a6131a1565b9061256b565b60028301555b5050505050505050565b60035473ffffffffffffffffffffffffffffffffffffffff1681565b734fbb350052bca5417566f188eb2ebce5b19bc96490565b612124615c90565b73ffffffffffffffffffffffffffffffffffffffff831660009081526006602090815260408083208584529091529020611214906127a5565b61216561298e565b73ffffffffffffffffffffffffffffffffffffffff81166121905761218b6109c46136c4565b6111bb565b600080547fffffffffffffffffffffffff00000000000000000000000000000000000000001673ffffffffffffffffffffffffffffffffffffffff83169081178255604051909133917f8be0079c531659141344cd1fd0a4f28419497f9722a3daafe3b4186f6b6457e09190a350565b612209336136fb565b15612216576122166126da565b600c54600061222682600161256b565b9050612230615c61565b50600081815260166020908152604091829020825160a08101845281548152600182015492810183905260028201549381019390935260038101546060840152600401546080830152612285575050506111bb565b61228d615cb0565b50600084815260156020908152604080832085845282529182902082516060810184528154808252600183015493820193909352600290910154928101929092526122db57505050506111bb565b600085815260156020908152604080832086845290915281208181556001810182905560020181905561230e8284613701565b905060008061232288848660400151613882565b9150915087877ff1116b309178aa62dcb6bf8c3b8bc2321724907c7ebf52192d14c8ce3aa9194c84846040516123599291906161fc565b60405180910390a3600061236d83836131a1565b9050612377612104565b73ffffffffffffffffffffffffffffffffffffffff1663075461726040518163ffffffff1660e01b815260040160206040518083038186803b1580156123bc57600080fd5b505afa1580156123d0573d6000803e3d6000fd5b505050506040513d601f19601f820116820180604052508101906123f49190615e1d565b73ffffffffffffffffffffffffffffffffffffffff16637fa36e408a836040518363ffffffff1660e01b815260040161242e9291906161fc565b602060405180830381600087803b15801561244857600080fd5b505af115801561245c573d6000803e3d6000fd5b505050506040513d601f19601f820116820180604052508101906124809190615f4f565b6124b6576040517f08c379a0000000000000000000000000000000000000000000000000000000008152600401610be190616241565b60808601516124c590826131a1565b608087018190526000888152601660209081526040909120600401919091558601516124f290600161256b565b602080880182815260008a81526016909252604090912060010191909155516117c6576080860151865188917fb463d19ecf455be65365092cf8e1db6934a0334cf8cd532ddf9964d01f36b5b29161254a908261256b565b6040516125589291906161fc565b60405180910390a2505050505050505050565b600082821115612584576125846109c460028585613bc3565b50900390565b604080516024810184905260448082018490528251808303909101815260649091019091526020810180517bffffffffffffffffffffffffffffffffffffffffffffffffffffffff167f614b800a0000000000000000000000000000000000000000000000000000000017905292915050565b805160208201fd5b600061190b601754612615612104565b73ffffffffffffffffffffffffffffffffffffffff166370a08231306040518263ffffffff1660e01b815260040161264d9190616115565b60206040518083038186803b15801561266557600080fd5b505afa158015612679573d6000803e3d6000fd5b505050506040513d601f19601f820116820180604052508101906120d29190616050565b4260006126a86118f2565b9050818111156126bf576126bf6109c48284613c5f565b600c546000906126d09060016131a1565b600c555050600d55565b3360009081526001602052604090205460ff16611d5957611d596109c433613cd2565b606063b9588e4360e01b83836040516024018083600181111561271c57fe5b815273ffffffffffffffffffffffffffffffffffffffff90921660208084019190915260408051808503830181529381019052820180517bffffffffffffffffffffffffffffffffffffffffffffffffffffffff167fffffffff000000000000000000000000000000000000000000000000000000009095169490941790935295945050505050565b6127ad615c90565b5060408051606081018252825467ffffffffffffffff81168083526bffffffffffffffffffffffff680100000000000000008304811660208501527401000000000000000000000000000000000000000090920490911692820192909252600c5490918111156128455761282081613d55565b67ffffffffffffffff16825260408201516bffffffffffffffffffffffff1660208301525b50919050565b600081831061285a5781611214565b5090919050565b604080516024810184905260448082018490528251808303909101815260649091019091526020810180517bffffffffffffffffffffffffffffffffffffffffffffffffffffffff167f84c8b7c90000000000000000000000000000000000000000000000000000000017905292915050565b6128dc615c90565b6128e5836127a5565b905061290f611e5d8383604001516bffffffffffffffffffffffff1661256b90919063ffffffff16565b6bffffffffffffffffffffffff9081166040830152602082015161293891611e5d91168461256b565b6bffffffffffffffffffffffff1660208201526111868382613d75565b6000818152600a602052604090205473ffffffffffffffffffffffffffffffffffffffff16338114611701576117016109c43384613e2f565b60005473ffffffffffffffffffffffffffffffffffffffff163314611d5957600054611d59906109c490339073ffffffffffffffffffffffffffffffffffffffff16613eb7565b73ffffffffffffffffffffffffffffffffffffffff81166129fb576129fb6109c4613f43565b73ffffffffffffffffffffffffffffffffffffffff811660009081526001602052604090205460ff1615612a3557612a356109c482613f7a565b73ffffffffffffffffffffffffffffffffffffffff8116600081815260016020819052604080832080547fffffffffffffffffffffffffffffffffffffffffffffffffffffffffffffff00168317905560028054928301815583527f405787fa12a823e0f2b7631cc41b3ba8828b3321ca811111fa75cd3aa3bb5ace90910180547fffffffffffffffffffffffff00000000000000000000000000000000000000001684179055513392917f3147867c59d17e8fa9d522465651d44aae0a9e38f902f3475b97e58072f0ed4c91a350565b612b0f83613ffd565b612b1983836131bd565b73ffffffffffffffffffffffffffffffffffffffff821660009081526006602090815260408083208684529091529020612b539082614034565b6000838152600760205260409020612b6b9082614034565b600160005260046020526111867fabd6e7cb50984ff9c2f3e18a2660c3353dadf4e3291deeb275dae2cd1e44fe0582614034565b612ba883613ffd565b612bb283836131bd565b73ffffffffffffffffffffffffffffffffffffffff821660009081526006602090815260408083208684529091529020612bec908261408c565b6000838152600760205260409020612c04908261408c565b600160005260046020526111867fabd6e7cb50984ff9c2f3e18a2660c3353dadf4e3291deeb275dae2cd1e44fe058261408c565b612c4283836140c7565b15612c4c57611186565b612c54615c90565b612c5d846127a5565b9050612c67615c90565b612c70846127a5565b905081604001516bffffffffffffffffffffffff16831115612cab57612cab6109c48484604001516bffffffffffffffffffffffff16612861565b6040820151612ccc90611e5d906bffffffffffffffffffffffff168561256b565b6bffffffffffffffffffffffff908116604080850191909152820151612cf791611e5d9116856131a1565b6bffffffffffffffffffffffff166040820152612d148583613d75565b612d1e8482613d75565b5050505050565b620f424063ffffffff82161115612d4a57612d456109c4600085846140ce565b611186565b8163ffffffff168163ffffffff161115611186576111866109c4600185846140ce565b6040805173ffffffffffffffffffffffffffffffffffffffff83166024808301919091528251808303909101815260449091019091526020810180517bffffffffffffffffffffffffffffffffffffffffffffffffffffffff167feb5108a200000000000000000000000000000000000000000000000000000000179052919050565b73ffffffffffffffffffffffffffffffffffffffff821660009081526001602052604090205460ff16612e2957612e296109c483612d6d565b6002548110612e4457612e446109c482600280549050614170565b8173ffffffffffffffffffffffffffffffffffffffff1660028281548110612e6857fe5b60009182526020909120015473ffffffffffffffffffffffffffffffffffffffff1614612eca57612eca6109c460028381548110612ea257fe5b60009182526020909120015473ffffffffffffffffffffffffffffffffffffffff16846141e3565b73ffffffffffffffffffffffffffffffffffffffff8216600090815260016020526040902080547fffffffffffffffffffffffffffffffffffffffffffffffffffffffffffffff00169055600280547fffffffffffffffffffffffffffffffffffffffffffffffffffffffffffffffff8101908110612f4557fe5b6000918252602090912001546002805473ffffffffffffffffffffffffffffffffffffffff9092169183908110612f7857fe5b9060005260206000200160006101000a81548173ffffffffffffffffffffffffffffffffffffffff021916908373ffffffffffffffffffffffffffffffffffffffff1602179055506002805480612fcb57fe5b60008281526020812082017fffffffffffffffffffffffffffffffffffffffffffffffffffffffffffffffff90810180547fffffffffffffffffffffffff0000000000000000000000000000000000000000169055909101909155604051339173ffffffffffffffffffffffffffffffffffffffff8516917f1f32c1b084e2de0713b8fb16bd46bb9df710a3dbeae2f3ca93af46e016dcc6b09190a35050565b60118590556012805463ffffffff8087167fffffffffffffffffffffffffffffffffffffffffffffffffffffffff00000000928316811790935560138690556014805485831664010000000081027fffffffffffffffffffffffffffffffffffffffffffffffff00000000ffffffff9489169290951682179390931693909317905560408051898152602081019490945283810187905260608401929092526080830152517f613157dbb0e920deab8ad6ddd3805e87cbf57344b9fe780f1764790ec78975429181900360a00190a15050505050565b613149615c90565b613152836127a5565b905061317c611e5d8383604001516bffffffffffffffffffffffff166131a190919063ffffffff16565b6bffffffffffffffffffffffff9081166040830152602082015161293891611e5d9116845b600082820183811015611214576112146109c460008686613bc3565b6131c68261426f565b60006131d58383600080613480565b73ffffffffffffffffffffffffffffffffffffffff831660009081526006602090815260408083208784529091529020909150613211906127a5565b73ffffffffffffffffffffffffffffffffffffffff8381166000908152600660209081526040808320888452825291829020845181549286015195909301517fffffffffffffffffffffffffffffffffffffffffffffffff000000000000000090921667ffffffffffffffff909316929092177fffffffffffffffffffffffff000000000000000000000000ffffffffffffffff16680100000000000000006bffffffffffffffffffffffff9586160217909216740100000000000000000000000000000000000000009390921692909202179055801561338c576132f68382614278565b6132fe612104565b73ffffffffffffffffffffffffffffffffffffffff1663a9059cbb83836040518363ffffffff1660e01b8152600401613338929190616136565b602060405180830381600087803b15801561335257600080fd5b505af1158015613366573d6000803e3d6000fd5b505050506040513d601f19601f8201168201806040525081019061338a9190615f4f565b505b611186836142b4565b6000806133a1836142c1565b9094909350915050565b600080826133bb578391506133de565b6133cf63ffffffff8616620f4240866142cd565b91506133db848361256b565b90505b935093915050565b6000818152600a602052604090205473ffffffffffffffffffffffffffffffffffffffff16156111bb576111bb6109c48260006142f1565b613426614365565b42600d556001600c55565b61343961437a565b62127500620dbba068056bc75e2d6310000060026003612d1e858585858561306b565b806bffffffffffffffffffffffff81168114610d3d57610d3d6109c46002846143df565b600c5460009061348e615c90565b5073ffffffffffffffffffffffffffffffffffffffff851660009081526006602090815260408083208984528252918290208251606081018452905467ffffffffffffffff81168083526bffffffffffffffffffffffff680100000000000000008304811694840194909452740100000000000000000000000000000000000000009091049092169281019290925282141561352f576000925050506135b9565b61353b81838787614471565b81519093506000906135589067ffffffffffffffff1660016131a1565b90506135906135898984602001516bffffffffffffffffffffffff16856000015167ffffffffffffffff16856144ee565b85906131a1565b93506135b36135898984604001516bffffffffffffffffffffffff1684876144ee565b93505050505b949350505050565b6040805173ffffffffffffffffffffffffffffffffffffffff83166024808301919091528251808303909101815260449091019091526020810180517bffffffffffffffffffffffffffffffffffffffffffffffffffffffff167fb56d2df000000000000000000000000000000000000000000000000000000000179052919050565b6000828152600a6020526040812054819081906136779073ffffffffffffffffffffffffffffffffffffffff168661211c565b602001516bffffffffffffffffffffffff169050613695848261256b565b6012549093506136ba906136b39063ffffffff16620f424086614587565b82906131a1565b9150509250929050565b60408051808201909152600481527fe69edc3e00000000000000000000000000000000000000000000000000000000602082015290565b3b151590565b815160009061370f57611217565b6000613719612104565b73ffffffffffffffffffffffffffffffffffffffff1663075461726040518163ffffffff1660e01b815260040160206040518083038186803b15801561375e57600080fd5b505afa158015613772573d6000803e3d6000fd5b505050506040513d601f19601f820116820180604052508101906137969190615e1d565b73ffffffffffffffffffffffffffffffffffffffff166357a15c0385602001516040518263ffffffff1660e01b81526004016137d291906161c1565b60206040518083038186803b1580156137ea57600080fd5b505afa1580156137fe573d6000803e3d6000fd5b505050506040513d601f19601f820116820180604052508101906138229190616050565b845160208601516060860151601454939450613856938593928492909163ffffffff80821691640100000000900416614597565b6080840151845191935060009161386c9161256b565b90508281101561387a578092505b505092915050565b60008061388d615cd1565b506000858152600a60209081526040918290208251608081018452815473ffffffffffffffffffffffffffffffffffffffff90811682526001909201549182169281019290925263ffffffff74010000000000000000000000000000000000000000820481169383018490527801000000000000000000000000000000000000000000000000909104166060820152906139289086866133ab565b90935091508215613b9f57806020015173ffffffffffffffffffffffffffffffffffffffff16816000015173ffffffffffffffffffffffffffffffffffffffff161415613a2557613977612104565b81516040517fa9059cbb00000000000000000000000000000000000000000000000000000000815273ffffffffffffffffffffffffffffffffffffffff929092169163a9059cbb916139cd918790600401616136565b602060405180830381600087803b1580156139e757600080fd5b505af11580156139fb573d6000803e3d6000fd5b505050506040513d601f19601f82011682018060405250810190613a1f9190615f4f565b50613b9f565b6000613a57620f424063ffffffff16613a51846060015163ffffffff168761465990919063ffffffff16565b9061468a565b9050613a61612104565b73ffffffffffffffffffffffffffffffffffffffff1663a9059cbb8360200151836040518363ffffffff1660e01b8152600401613a9f929190616136565b602060405180830381600087803b158015613ab957600080fd5b505af1158015613acd573d6000803e3d6000fd5b505050506040513d601f19601f82011682018060405250810190613af19190615f4f565b50613afa612104565b73ffffffffffffffffffffffffffffffffffffffff1663a9059cbb8360000151613b2d848861256b90919063ffffffff16565b6040518363ffffffff1660e01b8152600401613b4a929190616136565b602060405180830381600087803b158015613b6457600080fd5b505af1158015613b78573d6000803e3d6000fd5b505050506040513d601f19601f82011682018060405250810190613b9c9190615f4f565b50505b8115613bba57613baf86836146b4565b613bba8683866146e9565b50935093915050565b606063e946c1bb60e01b84848460405160240180846003811115613be357fe5b81526020018381526020018281526020019350505050604051602081830303815290604052907bffffffffffffffffffffffffffffffffffffffffffffffffffffffff19166020820180517bffffffffffffffffffffffffffffffffffffffffffffffffffffffff838183161783525050505090509392505050565b604080516024810184905260448082018490528251808303909101815260649091019091526020810180517bffffffffffffffffffffffffffffffffffffffffffffffffffffffff167fa6bcde470000000000000000000000000000000000000000000000000000000017905292915050565b6040805173ffffffffffffffffffffffffffffffffffffffff83166024808301919091528251808303909101815260449091019091526020810180517bffffffffffffffffffffffffffffffffffffffffffffffffffffffff167fb65a25b900000000000000000000000000000000000000000000000000000000179052919050565b8067ffffffffffffffff81168114610d3d57610d3d6109c46001846143df565b8051825460408301516020909301516bffffffffffffffffffffffff90811668010000000000000000027fffffffffffffffffffffffff000000000000000000000000ffffffffffffffff91909416740100000000000000000000000000000000000000000273ffffffffffffffffffffffffffffffffffffffff67ffffffffffffffff9094167fffffffffffffffffffffffffffffffffffffffffffffffff000000000000000090931692909217929092161716179055565b6040805173ffffffffffffffffffffffffffffffffffffffff8416602482015260448082018490528251808303909101815260649091019091526020810180517bffffffffffffffffffffffffffffffffffffffffffffffffffffffff167f82ded7850000000000000000000000000000000000000000000000000000000017905292915050565b6040805173ffffffffffffffffffffffffffffffffffffffff808516602483015283166044808301919091528251808303909101815260649091019091526020810180517bffffffffffffffffffffffffffffffffffffffffffffffffffffffff167f1de45ad10000000000000000000000000000000000000000000000000000000017905292915050565b60408051808201909152600481527f57654fe400000000000000000000000000000000000000000000000000000000602082015290565b6040805173ffffffffffffffffffffffffffffffffffffffff83166024808301919091528251808303909101815260449091019091526020810180517bffffffffffffffffffffffffffffffffffffffffffffffffffffffff167fde16f1a000000000000000000000000000000000000000000000000000000000179052919050565b6000818152600a602052604090205473ffffffffffffffffffffffffffffffffffffffff166111bb576111bb6109c48260006142f1565b61403c615c90565b614045836127a5565b905061406f611e5d8383604001516bffffffffffffffffffffffff1661256b90919063ffffffff16565b6bffffffffffffffffffffffff1660408201526111868382613d75565b614094615c90565b61409d836127a5565b905061406f611e5d8383604001516bffffffffffffffffffffffff166131a190919063ffffffff16565b1460011690565b60606322df959760e01b848484604051602401808460018111156140ee57fe5b81526020018381526020018263ffffffff1681526020019350505050604051602081830303815290604052907bffffffffffffffffffffffffffffffffffffffffffffffffffffffff19166020820180517bffffffffffffffffffffffffffffffffffffffffffffffffffffffff838183161783525050505090509392505050565b604080516024810184905260448082018490528251808303909101815260649091019091526020810180517bffffffffffffffffffffffffffffffffffffffffffffffffffffffff167fe9f837710000000000000000000000000000000000000000000000000000000017905292915050565b6040805173ffffffffffffffffffffffffffffffffffffffff808516602483015283166044808301919091528251808303909101815260649091019091526020810180517bffffffffffffffffffffffffffffffffffffffffffffffffffffffff167f140a84db0000000000000000000000000000000000000000000000000000000017905292915050565b6111bb816147d2565b6000828152600b6020526040902054614291908261256b565b6000838152600b60205260409020556017546142ad908261256b565b6017555050565b6111bb81600060016146e9565b6000806133a1836147db565b60006135b983613a516142e182600161256b565b6142eb8887614659565b906131a1565b60408051602481019390935290151560448084019190915281518084039091018152606490920190526020810180517bffffffffffffffffffffffffffffffffffffffffffffffffffffffff167f9ae94f010000000000000000000000000000000000000000000000000000000017905290565b600d5415611d5957611d596109c46000614898565b60115415801590614392575060125463ffffffff1615155b801561439f575060135415155b80156143b2575060145463ffffffff1615155b80156143cd5750601454640100000000900463ffffffff1615155b15611d5957611d596109c46001614898565b606063c996af7b60e01b8383604051602401808360028111156143fe57fe5b81526020808201939093526040805180830385018152918101905291820180517bffffffffffffffffffffffffffffffffffffffffffffffffffffffff167fffffffff00000000000000000000000000000000000000000000000000000000909516949094179093529250505092915050565b600082158061447e575081155b1561448b575060006135b9565b600061449885600161256b565b865167ffffffffffffffff1610156144b45785604001516144ba565b85602001515b6bffffffffffffffffffffffff169050806144d95760009150506135b9565b6144e4848483614587565b9695505050505050565b60008315806144fc57508183145b15614509575060006135b9565b818310614542576040517f08c379a0000000000000000000000000000000000000000000000000000000008152600401610be1906162e6565b61454a615cf8565b614554868561493e565b905061455e615cf8565b614568878561493e565b9050611f8081600001518260200151846000015185602001518a614a55565b60006135b983613a518685614659565b6000806145a48888614ac3565b905060006145b28787614ac3565b90508115806145bf575080155b156145cf57600092505050611f80565b6000818313156145e8576145e38284614b15565b6145f2565b6145f28383614b15565b905061461b61461661460383614b34565b8863ffffffff168863ffffffff166151d6565b6151e5565b9050818313156146345761462f8282614b15565b61463e565b61463e82826157cf565b905061464a818c6157fb565b9b9a5050505050505050505050565b60008261466857506000611217565b8282028284828161467557fe5b0414611214576112146109c460018686613bc3565b6000816146a0576146a06109c460038585613bc3565b60008284816146ab57fe5b04949350505050565b6000828152600b60205260409020546146cd90826131a1565b6000838152600b60205260409020556017546142ad90826131a1565b6000838152600f6020526040902054600c548082141561470a575050611186565b614712615cf8565b506000858152600e602090815260408083208584528252918290208251808401909352805483526001015490820152614749615cf8565b6147528261583d565b1561478b5761476b826000015183602001518888615846565b6020830181905281835261477f9190615896565b60208301528152614796565b602081018590528581525b6000878152600e6020908152604080832086845282528083208451815593820151600190940193909355978152600f9097529095205550505050565b6111bb816158bf565b60008060006147f66001600c5461256b90919063ffffffff16565b9050614800615cb0565b50600084815260156020908152604080832084845282528083208151606080820184528254825260018084015483870152600293840154838601528787526016865295849020845160a0810186528154815296810154958701959095529184015492850192909252600383015490840152600490910154608083015290614888908290613701565b9350806040015192505050915091565b60607f0b02d773000000000000000000000000000000000000000000000000000000008260018111156148c757fe5b604051602401808260ff168152602001915050604051602081830303815290604052907bffffffffffffffffffffffffffffffffffffffffffffffffffffffff19166020820180517bffffffffffffffffffffffffffffffffffffffffffffffffffffffff83818316178352505050509050919050565b614946615cf8565b506000828152600e60209081526040808320848452825291829020825180840190935280548352600101549082015261497e8161583d565b1561498857611217565b600061499583600161256b565b6000858152600e602090815260408083208484528252918290208251808401909352805483526001015490820152925090506149d08261583d565b156149db5750611217565b6000848152600f602052604090205483811015614a37576000858152600e6020908152604080832084845282529182902082518084019093528054835260010154908201529250614a2b8361583d565b15614a37575050611217565b50506040805180820190915260008152600160208201529392505050565b600081614a6457506000614aba565b83614a7e57614a7785613a518489614659565b9050614aba565b6000614a97614a8d8688614659565b6120d28987614659565b90506000614aa5828661468a565b9050614ab587613a518684614659565b925050505b95945050505050565b600080831215614adb57614adb6109c460018561592d565b6000821215614af257614af26109c460018461592d565b611214614b0f846f800000000000000000000000000000006159da565b83615a2d565b6000611214614b0f846f800000000000000000000000000000006159da565b60006f80000000000000000000000000000000821315614b5c57614b5c6109c4600184615aae565b60008213614b7257614b726109c4600084615aae565b6f80000000000000000000000000000000821415614b9257506000610d3d565b640733048c5a8213614bc557507fffffffffffffffffffffffffffffffe010000000000000000000000000000000610d3d565b60008060006a01c8464f761647600000008513614c24577ffffffffffffffffffffffffffffffff000000000000000000000000000000000909301926a01c8464f761647600000006f8000000000000000000000000000000086020594505b6cf1aaddd7742e900000000000008513614c82577ffffffffffffffffffffffffffffffff800000000000000000000000000000000909301926cf1aaddd7742e900000000000006f8000000000000000000000000000000086020594505b6e0afe10820813d780000000000000008513614ce4577ffffffffffffffffffffffffffffffffc00000000000000000000000000000000909301926e0afe10820813d780000000000000006f8000000000000000000000000000000086020594505b6f02582ab704279ec000000000000000008513614d48577ffffffffffffffffffffffffffffffffe00000000000000000000000000000000909301926f02582ab704279ec000000000000000006f8000000000000000000000000000000086020594505b6f1152aaa3bf81cc0000000000000000008513614dac577fffffffffffffffffffffffffffffffff00000000000000000000000000000000909301926f1152aaa3bf81cc0000000000000000006f8000000000000000000000000000000086020594505b6f2f16ac6c59de700000000000000000008513614e10577fffffffffffffffffffffffffffffffff80000000000000000000000000000000909301926f2f16ac6c59de700000000000000000006f8000000000000000000000000000000086020594505b6f4da2cbf1be58280000000000000000008513614e74577fffffffffffffffffffffffffffffffffc0000000000000000000000000000000909301926f4da2cbf1be58280000000000000000006f8000000000000000000000000000000086020594505b6f63afbe7ab2082c0000000000000000008513614ed8577fffffffffffffffffffffffffffffffffe0000000000000000000000000000000909301926f63afbe7ab2082c0000000000000000006f8000000000000000000000000000000086020594505b6f70f5a893b608861e1f58934f97aea57d8513614f3c577ffffffffffffffffffffffffffffffffff0000000000000000000000000000000909301926f70f5a893b608861e1f58934f97aea57d6f8000000000000000000000000000000086020594505b7fffffffffffffffffffffffffffffffff80000000000000000000000000000000850192508291506f80000000000000000000000000000000828002059050700100000000000000000000000000000000838103830205840193506f8000000000000000000000000000000081830281614fb257fe5b059150700200000000000000000000000000000000836faaaaaaaaaaaaaaaaaaaaaaaaaaaaaaaa03830281614fe357fe5b05840193506f800000000000000000000000000000008183028161500357fe5b059150700300000000000000000000000000000000836f999999999999999999999999999999990383028161503457fe5b05840193506f800000000000000000000000000000008183028161505457fe5b059150700400000000000000000000000000000000836f924924924924924924924924924924920383028161508557fe5b05840193506f80000000000000000000000000000000818302816150a557fe5b059150700500000000000000000000000000000000836f8e38e38e38e38e38e38e38e38e38e38e038302816150d657fe5b05840193506f80000000000000000000000000000000818302816150f657fe5b059150700600000000000000000000000000000000836f8ba2e8ba2e8ba2e8ba2e8ba2e8ba2e8b0383028161512757fe5b05840193506f800000000000000000000000000000008183028161514757fe5b059150700700000000000000000000000000000000836f89d89d89d89d89d89d89d89d89d89d890383028161517857fe5b05840193506f800000000000000000000000000000008183028161519857fe5b059150700800000000000000000000000000000000836f88888888888888888888888888888888038302816151c957fe5b0584019350505050919050565b60006135b9614b0f85856159da565b60007fffffffffffffffffffffffffffffffe01000000000000000000000000000000082121561521757506000610d3d565b8161523357506f80000000000000000000000000000000610d3d565b600082131561524a5761524a6109c4600184615aae565b6f800000000000000000000000000000006f1000000000000000000000000000000083078080028290056710e1b3be415a0000810293909301929091818302059050806705a0913f6b1e000002830192506f80000000000000000000000000000000828202816152b657fe5b05905080670168244fdac7800002830192506f80000000000000000000000000000000828202816152e357fe5b05905080664807432bc1800002830192506f800000000000000000000000000000008282028161530f57fe5b05905080660c0135dca0400002830192506f800000000000000000000000000000008282028161533b57fe5b059050806601b707b1cdc00002830192506f800000000000000000000000000000008282028161536757fe5b059050806536e0f639b80002830192506f800000000000000000000000000000008282028161539257fe5b05905080650618fee9f80002830192506f80000000000000000000000000000000828202816153bd57fe5b05905080649c197dcc0002830192506f80000000000000000000000000000000828202816153e757fe5b05905080640e30dce40002830192506f800000000000000000000000000000008282028161541157fe5b0590508064012ebd130002830192506f800000000000000000000000000000008282028161543b57fe5b059050806317499f0002830192506f800000000000000000000000000000008282028161546457fe5b059050806301a9d48002830192506f800000000000000000000000000000008282028161548d57fe5b05905080621c638002830192506f80000000000000000000000000000000828202816154b557fe5b059050806201c63802830192506f80000000000000000000000000000000828202816154dd57fe5b05905080611ab802830192506f800000000000000000000000000000008282028161550457fe5b0590508061017c02830192506f800000000000000000000000000000008282028161552b57fe5b05905080601402830192506f800000000000000000000000000000008282028161555157fe5b600095909503946721c3677c82b400009190059384010582016f80000000000000000000000000000000019290507010000000000000000000000000000000008416156155c0577243cbaf42a000812488fc5c220ad7b97bf6e99e6cf1aaddd7742e56d32fb9f9974484020592505b700800000000000000000000000000000000841615615602577105d27a9f51c31b7c2f8038212a05747799916e0afe10820813d65dfe6a33c07f738f84020592505b70040000000000000000000000000000000084161561564457701b4c902e273a58678d6d3bfdb93db96d026f02582ab704279e8efd15e0265855c47a84020592505b700200000000000000000000000000000000841615615686577003b1cc971a9bb5b9867477440d6d1577506f1152aaa3bf81cb9fdb76eae12d02957184020592505b7001000000000000000000000000000000008416156156c85770015bf0a8b1457695355fb8ac404e7a79e36f2f16ac6c59de6f8d5d6f63c1482a7c8684020592505b6f80000000000000000000000000000000841615615708576fd3094c70f034de4b96ff7d5b6f99fcd86f4da2cbf1be5827f9eb3ad1aa9866ebb384020592505b6f40000000000000000000000000000000841615615748576fa45af1e1f40c333b3de1db4dd55f29a76f63afbe7ab2082ba1a0ae5e4eb1b479dc84020592505b6f20000000000000000000000000000000841615615788576f910b022db7ae67ce76b441c27035c6a16f70f5a893b608861e1f58934f97aea57d84020592505b6f100000000000000000000000000000008416156157c8576f88415abbe9a76bead8d00cf112e4d4a86f783eafef1c0a8f3978c7f81824d62ebf84020592505b5050919050565b60006f800000000000000000000000000000006157ec84846159da565b816157f357fe5b059392505050565b600080821215615813576158136109c460018461592d565b600061581f84846159da565b905060008113615833576000915050611217565b607f1c9392505050565b60200151151590565b6000808561585857508290508161588d565b8361586757508490508361588d565b61587e6158748587614659565b6142eb8886614659565b915061588a8584614659565b90505b94509492505050565b6000806158b484846f80000000000000000000000000000000615add565b915091509250929050565b600c546000906158d090600161256b565b90506158da615cb0565b506000828152601560209081526040808320848452825291829020825160608101845281548082526001830154938201939093526002909101549281019290925215611186576111866109c48484615b39565b60607fbd79545f0000000000000000000000000000000000000000000000000000000083600181111561595c57fe5b6040805160ff9092166024830152604480830186905281518084039091018152606490920190526020810180517bffffffffffffffffffffffffffffffffffffffffffffffffffffffff167fffffffff0000000000000000000000000000000000000000000000000000000090931692909217909152905092915050565b60008215806159e7575081155b156159f457506000611217565b5081810281838281615a0257fe5b05141580615a19575082828281615a1557fe5b0514155b15611217576112176109c460018585615bac565b600081615a4357615a436109c460028585615bac565b7f800000000000000000000000000000000000000000000000000000000000000083148015615a915750817fffffffffffffffffffffffffffffffffffffffffffffffffffffffffffffffff145b15615aa557615aa56109c460038585615bac565b8183816157f357fe5b60607fed2f26a10000000000000000000000000000000000000000000000000000000083600181111561595c57fe5b60008082851180615aed57508284115b15615b3057600084861015615b025784615b04565b855b9050615b10818561468a565b9050615b1c868261468a565b9250615b28858261468a565b9150506133de565b50929391925050565b604080516024810184905260448082018490528251808303909101815260649091019091526020810180517bffffffffffffffffffffffffffffffffffffffffffffffffffffffff167f5caa0b050000000000000000000000000000000000000000000000000000000017905292915050565b60607f8c12dfe700000000000000000000000000000000000000000000000000000000846003811115615bdb57fe5b6040805160ff909216602483015260448201869052606480830186905281518084039091018152608490920190526020810180517bffffffffffffffffffffffffffffffffffffffffffffffffffffffff167fffffffff000000000000000000000000000000000000000000000000000000009093169290921790915290509392505050565b6040518060a0016040528060008152602001600081526020016000815260200160008152602001600081525090565b604080516060810182526000808252602082018190529181019190915290565b60405180606001604052806000815260200160008152602001600081525090565b60408051608081018252600080825260208201819052918101829052606081019190915290565b604051806040016040528060008152602001600081525090565b803560028110610d3d57600080fd5b600082601f830112615d31578081fd5b815167ffffffffffffffff80821115615d4657fe5b6040516020807fffffffffffffffffffffffffffffffffffffffffffffffffffffffffffffffe0601f8601168301018281108482111715615d8357fe5b80604052508194508382528681858801011115615d9f57600080fd5b600092505b83831015615dc15785830181015182840182015291820191615da4565b83831115615dd25760008185840101525b5050505092915050565b600060408284031215612845578081fd5b803563ffffffff81168114610d3d57600080fd5b600060208284031215615e12578081fd5b813561121481616493565b600060208284031215615e2e578081fd5b815161121481616493565b60008060408385031215615e4b578081fd5b8235615e5681616493565b946020939093013593505050565b60008060408385031215615e76578182fd5b8235615e8181616493565b9150615e8f60208401615d12565b90509250929050565b60008060008060008060c08789031215615eb0578182fd5b8651615ebb81616493565b602088015190965067ffffffffffffffff80821115615ed8578384fd5b615ee48a838b01615d21565b96506040890151915080821115615ef9578384fd5b50615f0689828a01615d21565b945050606087015192506080870151615f1e81616493565b60a0880151909250615f2f81616493565b809150509295509295509295565b60008060408385031215615e4b578182fd5b600060208284031215615f60578081fd5b81518015158114611214578182fd5b600060208284031215615f80578081fd5b5035919050565b60008060408385031215615f99578182fd5b823591506020830135615fab81616493565b809150509250929050565b60008060408385031215615fc8578182fd5b50508035926020909101359150565b60008060408385031215615fe9578182fd5b82359150615e8f60208401615ded565b60006020828403121561600a578081fd5b61121482615d12565b600080600060a08486031215616027578283fd5b6160318585615ddc565b92506160408560408601615ddc565b9150608084013590509250925092565b600060208284031215616061578081fd5b5051919050565b60008060008060008060c08789031215616080578384fd5b86519550602087015167ffffffffffffffff8082111561609e578586fd5b6160aa8a838b01615d21565b96506040890151915080821115615ef9578586fd5b600080600080600060a086880312156160d6578283fd5b853594506160e660208701615ded565b9350604086013592506160fb60608701615ded565b915061610960808701615ded565b90509295509295909350565b73ffffffffffffffffffffffffffffffffffffffff91909116815260200190565b73ffffffffffffffffffffffffffffffffffffffff929092168252602082015260400190565b6020808252825182820181905260009190848201906040850190845b818110156161aa57835173ffffffffffffffffffffffffffffffffffffffff1683529284019291840191600101616178565b50909695505050505050565b901515815260200190565b90815260200190565b92835273ffffffffffffffffffffffffffffffffffffffff91909116602083015263ffffffff16604082015260600190565b918252602082015260400190565b6020808252601c908201527f4e4f4e5f524547495354455245445f504f4f4c5f49445f4552524f5200000000604082015260600190565b6020808252601e908201527f46494e414c495a45525f4d494e545f494e464c4154494f4e5f4552524f520000604082015260600190565b6020808252601b908201527f504f4f4c5f544f5f4a4f494e5f4e4f545f53454c465f4552524f520000000000604082015260600190565b6020808252601c908201527f4e4f4e5f524547495354455245445f52425f504f4f4c5f4552524f5200000000604082015260600190565b60208082526013908201527f43525f494e54455256414c5f494e56414c494400000000000000000000000000604082015260600190565b81518152602080830151908201526040918201519181019190915260600190565b600060808201905073ffffffffffffffffffffffffffffffffffffffff80845116835280602085015116602084015250604083015163ffffffff8082166040850152806060860151166060850152505092915050565b815167ffffffffffffffff1681526020808301516bffffffffffffffffffffffff90811691830191909152604092830151169181019190915260600190565b9283526020830191909152604082015260600190565b93845260208401929092526040830152606082015260800190565b948552602085019390935260408401919091526060830152608082015260a00190565b94855263ffffffff938416602086015260408501929092528216606084015216608082015260a00190565b92835260ff918216602084015216604082015260600190565b63ffffffff91909116815260200190565b63ffffffff92831681529116602082015260400190565b73ffffffffffffffffffffffffffffffffffffffff811681146111bb57600080fdfea2646970667358221220285c6553ac9d3c9e245dfea6e09700a9bf1209e44fc8ac9db561a197585bf89e64736f6c63430007040033",
				"opcodes": "PUSH1 0x80 PUSH1 0x40 MSTORE CALLVALUE DUP1 ISZERO PUSH2 0x10 JUMPI PUSH1 0x0 DUP1 REVERT JUMPDEST POP PUSH1 0x0 DUP1 SLOAD PUSH1 0x1 PUSH1 0x1 PUSH1 0xA0 SHL SUB NOT AND CALLER OR SWAP1 SSTORE PUSH2 0x64EB DUP1 PUSH3 0x33 PUSH1 0x0 CODECOPY PUSH1 0x0 RETURN INVALID PUSH1 0x80 PUSH1 0x40 MSTORE PUSH1 0x4 CALLDATASIZE LT PUSH2 0x33F JUMPI PUSH1 0x0 CALLDATALOAD PUSH1 0xE0 SHR DUP1 PUSH4 0x9AD26744 GT PUSH2 0x1B0 JUMPI DUP1 PUSH4 0xD39DE6E9 GT PUSH2 0xEC JUMPI DUP1 PUSH4 0xE907F003 GT PUSH2 0x95 JUMPI DUP1 PUSH4 0xEF4BA680 GT PUSH2 0x6F JUMPI DUP1 PUSH4 0xEF4BA680 EQ PUSH2 0x915 JUMPI DUP1 PUSH4 0xF252B7A1 EQ PUSH2 0x92A JUMPI DUP1 PUSH4 0xF2FDE38B EQ PUSH2 0x94A JUMPI DUP1 PUSH4 0xFF691B11 EQ PUSH2 0x96A JUMPI PUSH2 0x33F JUMP JUMPDEST DUP1 PUSH4 0xE907F003 EQ PUSH2 0x8CD JUMPI DUP1 PUSH4 0xECC128F2 EQ PUSH2 0x8ED JUMPI DUP1 PUSH4 0xEE99205C EQ PUSH2 0x900 JUMPI PUSH2 0x33F JUMP JUMPDEST DUP1 PUSH4 0xE1C7392A GT PUSH2 0xC6 JUMPI DUP1 PUSH4 0xE1C7392A EQ PUSH2 0x883 JUMPI DUP1 PUSH4 0xE804D0A4 EQ PUSH2 0x898 JUMPI DUP1 PUSH4 0xE8EEB3F8 EQ PUSH2 0x8B8 JUMPI PUSH2 0x33F JUMP JUMPDEST DUP1 PUSH4 0xD39DE6E9 EQ PUSH2 0x837 JUMPI DUP1 PUSH4 0xE0822DB7 EQ PUSH2 0x859 JUMPI DUP1 PUSH4 0xE0EE036E EQ PUSH2 0x86E JUMPI PUSH2 0x33F JUMP JUMPDEST DUP1 PUSH4 0xB510879F GT PUSH2 0x159 JUMPI DUP1 PUSH4 0xBB7EF7E0 GT PUSH2 0x133 JUMPI DUP1 PUSH4 0xBB7EF7E0 EQ PUSH2 0x7C2 JUMPI DUP1 PUSH4 0xBE111AF4 EQ PUSH2 0x7E2 JUMPI DUP1 PUSH4 0xC18C9141 EQ PUSH2 0x802 JUMPI DUP1 PUSH4 0xD14DC231 EQ PUSH2 0x822 JUMPI PUSH2 0x33F JUMP JUMPDEST DUP1 PUSH4 0xB510879F EQ PUSH2 0x76D JUMPI DUP1 PUSH4 0xB652B41F EQ PUSH2 0x78D JUMPI DUP1 PUSH4 0xB9181611 EQ PUSH2 0x7A2 JUMPI PUSH2 0x33F JUMP JUMPDEST DUP1 PUSH4 0xA657E579 GT PUSH2 0x18A JUMPI DUP1 PUSH4 0xA657E579 EQ PUSH2 0x723 JUMPI DUP1 PUSH4 0xA694FC3A EQ PUSH2 0x738 JUMPI DUP1 PUSH4 0xB2BAA33E EQ PUSH2 0x758 JUMPI PUSH2 0x33F JUMP JUMPDEST DUP1 PUSH4 0x9AD26744 EQ PUSH2 0x6CE JUMPI DUP1 PUSH4 0x9C3CCC82 EQ PUSH2 0x6EE JUMPI DUP1 PUSH4 0xA26171E2 EQ PUSH2 0x70E JUMPI PUSH2 0x33F JUMP JUMPDEST DUP1 PUSH4 0x494503D4 GT PUSH2 0x27F JUMPI DUP1 PUSH4 0x5E615A6B GT PUSH2 0x228 JUMPI DUP1 PUSH4 0x76671808 GT PUSH2 0x202 JUMPI DUP1 PUSH4 0x76671808 EQ PUSH2 0x662 JUMPI DUP1 PUSH4 0x7FA140C7 EQ PUSH2 0x677 JUMPI DUP1 PUSH4 0x81666796 EQ PUSH2 0x697 JUMPI DUP1 PUSH4 0x8DA5CB5B EQ PUSH2 0x6B9 JUMPI PUSH2 0x33F JUMP JUMPDEST DUP1 PUSH4 0x5E615A6B EQ PUSH2 0x607 JUMPI DUP1 PUSH4 0x63403801 EQ PUSH2 0x62D JUMPI DUP1 PUSH4 0x70712939 EQ PUSH2 0x642 JUMPI PUSH2 0x33F JUMP JUMPDEST DUP1 PUSH4 0x587DA023 GT PUSH2 0x259 JUMPI DUP1 PUSH4 0x587DA023 EQ PUSH2 0x5B2 JUMPI DUP1 PUSH4 0x58F6C7E3 EQ PUSH2 0x5C7 JUMPI DUP1 PUSH4 0x5D91121D EQ PUSH2 0x5E7 JUMPI PUSH2 0x33F JUMP JUMPDEST DUP1 PUSH4 0x494503D4 EQ PUSH2 0x52B JUMPI DUP1 PUSH4 0x4BCC3F67 EQ PUSH2 0x558 JUMPI DUP1 PUSH4 0x540C2D53 EQ PUSH2 0x585 JUMPI PUSH2 0x33F JUMP JUMPDEST DUP1 PUSH4 0x36D7DD8E GT PUSH2 0x2EC JUMPI DUP1 PUSH4 0x3E4AD732 GT PUSH2 0x2C6 JUMPI DUP1 PUSH4 0x3E4AD732 EQ PUSH2 0x491 JUMPI DUP1 PUSH4 0x42F1181E EQ PUSH2 0x4BE JUMPI DUP1 PUSH4 0x44A6958B EQ PUSH2 0x4DE JUMPI DUP1 PUSH4 0x46B97959 EQ PUSH2 0x4FE JUMPI PUSH2 0x33F JUMP JUMPDEST DUP1 PUSH4 0x36D7DD8E EQ PUSH2 0x420 JUMPI DUP1 PUSH4 0x38229D93 EQ PUSH2 0x440 JUMPI DUP1 PUSH4 0x3A832382 EQ PUSH2 0x471 JUMPI PUSH2 0x33F JUMP JUMPDEST DUP1 PUSH4 0x1F81EB80 GT PUSH2 0x31D JUMPI DUP1 PUSH4 0x1F81EB80 EQ PUSH2 0x3B1 JUMPI DUP1 PUSH4 0x2A94C279 EQ PUSH2 0x3D1 JUMPI DUP1 PUSH4 0x2E17DE78 EQ PUSH2 0x400 JUMPI PUSH2 0x33F JUMP JUMPDEST DUP1 PUSH4 0xB9663DB EQ PUSH2 0x344 JUMPI DUP1 PUSH4 0x1A67A0A0 EQ PUSH2 0x36F JUMPI DUP1 PUSH4 0x1E7FF8F6 EQ PUSH2 0x391 JUMPI JUMPDEST PUSH1 0x0 DUP1 REVERT JUMPDEST CALLVALUE DUP1 ISZERO PUSH2 0x350 JUMPI PUSH1 0x0 DUP1 REVERT JUMPDEST POP PUSH2 0x359 PUSH2 0x98A JUMP JUMPDEST PUSH1 0x40 MLOAD PUSH2 0x366 SWAP2 SWAP1 PUSH2 0x61C1 JUMP JUMPDEST PUSH1 0x40 MLOAD DUP1 SWAP2 SUB SWAP1 RETURN JUMPDEST CALLVALUE DUP1 ISZERO PUSH2 0x37B JUMPI PUSH1 0x0 DUP1 REVERT JUMPDEST POP PUSH2 0x38F PUSH2 0x38A CALLDATASIZE PUSH1 0x4 PUSH2 0x5F87 JUMP JUMPDEST PUSH2 0xACD JUMP JUMPDEST STOP JUMPDEST CALLVALUE DUP1 ISZERO PUSH2 0x39D JUMPI PUSH1 0x0 DUP1 REVERT JUMPDEST POP PUSH2 0x359 PUSH2 0x3AC CALLDATASIZE PUSH1 0x4 PUSH2 0x5E01 JUMP JUMPDEST PUSH2 0xCA8 JUMP JUMPDEST CALLVALUE DUP1 ISZERO PUSH2 0x3BD JUMPI PUSH1 0x0 DUP1 REVERT JUMPDEST POP PUSH2 0x38F PUSH2 0x3CC CALLDATASIZE PUSH1 0x4 PUSH2 0x5E01 JUMP JUMPDEST PUSH2 0xD42 JUMP JUMPDEST CALLVALUE DUP1 ISZERO PUSH2 0x3DD JUMPI PUSH1 0x0 DUP1 REVERT JUMPDEST POP PUSH2 0x3F1 PUSH2 0x3EC CALLDATASIZE PUSH1 0x4 PUSH2 0x5FB6 JUMP JUMPDEST PUSH2 0xE0C JUMP JUMPDEST PUSH1 0x40 MLOAD PUSH2 0x366 SWAP4 SWAP3 SWAP2 SWAP1 PUSH2 0x63D3 JUMP JUMPDEST CALLVALUE DUP1 ISZERO PUSH2 0x40C JUMPI PUSH1 0x0 DUP1 REVERT JUMPDEST POP PUSH2 0x38F PUSH2 0x41B CALLDATASIZE PUSH1 0x4 PUSH2 0x5F6F JUMP JUMPDEST PUSH2 0xE38 JUMP JUMPDEST CALLVALUE DUP1 ISZERO PUSH2 0x42C JUMPI PUSH1 0x0 DUP1 REVERT JUMPDEST POP PUSH2 0x38F PUSH2 0x43B CALLDATASIZE PUSH1 0x4 PUSH2 0x5E01 JUMP JUMPDEST PUSH2 0xFED JUMP JUMPDEST CALLVALUE DUP1 ISZERO PUSH2 0x44C JUMPI PUSH1 0x0 DUP1 REVERT JUMPDEST POP PUSH2 0x460 PUSH2 0x45B CALLDATASIZE PUSH1 0x4 PUSH2 0x5F6F JUMP JUMPDEST PUSH2 0x10B3 JUMP JUMPDEST PUSH1 0x40 MLOAD PUSH2 0x366 SWAP6 SWAP5 SWAP4 SWAP3 SWAP2 SWAP1 PUSH2 0x6404 JUMP JUMPDEST CALLVALUE DUP1 ISZERO PUSH2 0x47D JUMPI PUSH1 0x0 DUP1 REVERT JUMPDEST POP PUSH2 0x38F PUSH2 0x48C CALLDATASIZE PUSH1 0x4 PUSH2 0x5F87 JUMP JUMPDEST PUSH2 0x10E2 JUMP JUMPDEST CALLVALUE DUP1 ISZERO PUSH2 0x49D JUMPI PUSH1 0x0 DUP1 REVERT JUMPDEST POP PUSH2 0x4B1 PUSH2 0x4AC CALLDATASIZE PUSH1 0x4 PUSH2 0x5F6F JUMP JUMPDEST PUSH2 0x118B JUMP JUMPDEST PUSH1 0x40 MLOAD PUSH2 0x366 SWAP2 SWAP1 PUSH2 0x6394 JUMP JUMPDEST CALLVALUE DUP1 ISZERO PUSH2 0x4CA JUMPI PUSH1 0x0 DUP1 REVERT JUMPDEST POP PUSH2 0x38F PUSH2 0x4D9 CALLDATASIZE PUSH1 0x4 PUSH2 0x5E01 JUMP JUMPDEST PUSH2 0x11AA JUMP JUMPDEST CALLVALUE DUP1 ISZERO PUSH2 0x4EA JUMPI PUSH1 0x0 DUP1 REVERT JUMPDEST POP PUSH2 0x4B1 PUSH2 0x4F9 CALLDATASIZE PUSH1 0x4 PUSH2 0x5E64 JUMP JUMPDEST PUSH2 0x11BE JUMP JUMPDEST CALLVALUE DUP1 ISZERO PUSH2 0x50A JUMPI PUSH1 0x0 DUP1 REVERT JUMPDEST POP PUSH2 0x51E PUSH2 0x519 CALLDATASIZE PUSH1 0x4 PUSH2 0x5F6F JUMP JUMPDEST PUSH2 0x121D JUMP JUMPDEST PUSH1 0x40 MLOAD PUSH2 0x366 SWAP2 SWAP1 PUSH2 0x631D JUMP JUMPDEST CALLVALUE DUP1 ISZERO PUSH2 0x537 JUMPI PUSH1 0x0 DUP1 REVERT JUMPDEST POP PUSH2 0x54B PUSH2 0x546 CALLDATASIZE PUSH1 0x4 PUSH2 0x5F6F JUMP JUMPDEST PUSH2 0x1268 JUMP JUMPDEST PUSH1 0x40 MLOAD PUSH2 0x366 SWAP2 SWAP1 PUSH2 0x6115 JUMP JUMPDEST CALLVALUE DUP1 ISZERO PUSH2 0x564 JUMPI PUSH1 0x0 DUP1 REVERT JUMPDEST POP PUSH2 0x578 PUSH2 0x573 CALLDATASIZE PUSH1 0x4 PUSH2 0x5F6F JUMP JUMPDEST PUSH2 0x129F JUMP JUMPDEST PUSH1 0x40 MLOAD PUSH2 0x366 SWAP2 SWAP1 PUSH2 0x633E JUMP JUMPDEST CALLVALUE DUP1 ISZERO PUSH2 0x591 JUMPI PUSH1 0x0 DUP1 REVERT JUMPDEST POP PUSH2 0x5A5 PUSH2 0x5A0 CALLDATASIZE PUSH1 0x4 PUSH2 0x5E01 JUMP JUMPDEST PUSH2 0x133B JUMP JUMPDEST PUSH1 0x40 MLOAD PUSH2 0x366 SWAP2 SWAP1 PUSH2 0x61B6 JUMP JUMPDEST CALLVALUE DUP1 ISZERO PUSH2 0x5BE JUMPI PUSH1 0x0 DUP1 REVERT JUMPDEST POP PUSH2 0x359 PUSH2 0x1350 JUMP JUMPDEST CALLVALUE DUP1 ISZERO PUSH2 0x5D3 JUMPI PUSH1 0x0 DUP1 REVERT JUMPDEST POP PUSH2 0x38F PUSH2 0x5E2 CALLDATASIZE PUSH1 0x4 PUSH2 0x6013 JUMP JUMPDEST PUSH2 0x1356 JUMP JUMPDEST CALLVALUE DUP1 ISZERO PUSH2 0x5F3 JUMPI PUSH1 0x0 DUP1 REVERT JUMPDEST POP PUSH2 0x38F PUSH2 0x602 CALLDATASIZE PUSH1 0x4 PUSH2 0x5FD7 JUMP JUMPDEST PUSH2 0x1552 JUMP JUMPDEST CALLVALUE DUP1 ISZERO PUSH2 0x613 JUMPI PUSH1 0x0 DUP1 REVERT JUMPDEST POP PUSH2 0x61C PUSH2 0x1621 JUMP JUMPDEST PUSH1 0x40 MLOAD PUSH2 0x366 SWAP6 SWAP5 SWAP4 SWAP3 SWAP2 SWAP1 PUSH2 0x6427 JUMP JUMPDEST CALLVALUE DUP1 ISZERO PUSH2 0x639 JUMPI PUSH1 0x0 DUP1 REVERT JUMPDEST POP PUSH2 0x359 PUSH2 0x164A JUMP JUMPDEST CALLVALUE DUP1 ISZERO PUSH2 0x64E JUMPI PUSH1 0x0 DUP1 REVERT JUMPDEST POP PUSH2 0x38F PUSH2 0x65D CALLDATASIZE PUSH1 0x4 PUSH2 0x5E01 JUMP JUMPDEST PUSH2 0x1650 JUMP JUMPDEST CALLVALUE DUP1 ISZERO PUSH2 0x66E JUMPI PUSH1 0x0 DUP1 REVERT JUMPDEST POP PUSH2 0x359 PUSH2 0x1705 JUMP JUMPDEST CALLVALUE DUP1 ISZERO PUSH2 0x683 JUMPI PUSH1 0x0 DUP1 REVERT JUMPDEST POP PUSH2 0x359 PUSH2 0x692 CALLDATASIZE PUSH1 0x4 PUSH2 0x5E01 JUMP JUMPDEST PUSH2 0x170B JUMP JUMPDEST CALLVALUE DUP1 ISZERO PUSH2 0x6A3 JUMPI PUSH1 0x0 DUP1 REVERT JUMPDEST POP PUSH2 0x6AC PUSH2 0x171D JUMP JUMPDEST PUSH1 0x40 MLOAD PUSH2 0x366 SWAP2 SWAP1 PUSH2 0x646B JUMP JUMPDEST CALLVALUE DUP1 ISZERO PUSH2 0x6C5 JUMPI PUSH1 0x0 DUP1 REVERT JUMPDEST POP PUSH2 0x54B PUSH2 0x1729 JUMP JUMPDEST CALLVALUE DUP1 ISZERO PUSH2 0x6DA JUMPI PUSH1 0x0 DUP1 REVERT JUMPDEST POP PUSH2 0x38F PUSH2 0x6E9 CALLDATASIZE PUSH1 0x4 PUSH2 0x5F3D JUMP JUMPDEST PUSH2 0x1745 JUMP JUMPDEST CALLVALUE DUP1 ISZERO PUSH2 0x6FA JUMPI PUSH1 0x0 DUP1 REVERT JUMPDEST POP PUSH2 0x38F PUSH2 0x709 CALLDATASIZE PUSH1 0x4 PUSH2 0x60BF JUMP JUMPDEST PUSH2 0x1757 JUMP JUMPDEST CALLVALUE DUP1 ISZERO PUSH2 0x71A JUMPI PUSH1 0x0 DUP1 REVERT JUMPDEST POP PUSH2 0x359 PUSH2 0x17D1 JUMP JUMPDEST CALLVALUE DUP1 ISZERO PUSH2 0x72F JUMPI PUSH1 0x0 DUP1 REVERT JUMPDEST POP PUSH2 0x359 PUSH2 0x17D7 JUMP JUMPDEST CALLVALUE DUP1 ISZERO PUSH2 0x744 JUMPI PUSH1 0x0 DUP1 REVERT JUMPDEST POP PUSH2 0x38F PUSH2 0x753 CALLDATASIZE PUSH1 0x4 PUSH2 0x5F6F JUMP JUMPDEST PUSH2 0x17DD JUMP JUMPDEST CALLVALUE DUP1 ISZERO PUSH2 0x764 JUMPI PUSH1 0x0 DUP1 REVERT JUMPDEST POP PUSH2 0x359 PUSH2 0x18F2 JUMP JUMPDEST CALLVALUE DUP1 ISZERO PUSH2 0x779 JUMPI PUSH1 0x0 DUP1 REVERT JUMPDEST POP PUSH2 0x38F PUSH2 0x788 CALLDATASIZE PUSH1 0x4 PUSH2 0x5F6F JUMP JUMPDEST PUSH2 0x1910 JUMP JUMPDEST CALLVALUE DUP1 ISZERO PUSH2 0x799 JUMPI PUSH1 0x0 DUP1 REVERT JUMPDEST POP PUSH2 0x54B PUSH2 0x191A JUMP JUMPDEST CALLVALUE DUP1 ISZERO PUSH2 0x7AE JUMPI PUSH1 0x0 DUP1 REVERT JUMPDEST POP PUSH2 0x5A5 PUSH2 0x7BD CALLDATASIZE PUSH1 0x4 PUSH2 0x5E01 JUMP JUMPDEST PUSH2 0x1932 JUMP JUMPDEST CALLVALUE DUP1 ISZERO PUSH2 0x7CE JUMPI PUSH1 0x0 DUP1 REVERT JUMPDEST POP PUSH2 0x359 PUSH2 0x7DD CALLDATASIZE PUSH1 0x4 PUSH2 0x5F6F JUMP JUMPDEST PUSH2 0x1947 JUMP JUMPDEST CALLVALUE DUP1 ISZERO PUSH2 0x7EE JUMPI PUSH1 0x0 DUP1 REVERT JUMPDEST POP PUSH2 0x359 PUSH2 0x7FD CALLDATASIZE PUSH1 0x4 PUSH2 0x5E01 JUMP JUMPDEST PUSH2 0x1A07 JUMP JUMPDEST CALLVALUE DUP1 ISZERO PUSH2 0x80E JUMPI PUSH1 0x0 DUP1 REVERT JUMPDEST POP PUSH2 0x359 PUSH2 0x81D CALLDATASIZE PUSH1 0x4 PUSH2 0x5F6F JUMP JUMPDEST PUSH2 0x1C96 JUMP JUMPDEST CALLVALUE DUP1 ISZERO PUSH2 0x82E JUMPI PUSH1 0x0 DUP1 REVERT JUMPDEST POP PUSH2 0x359 PUSH2 0x1CA8 JUMP JUMPDEST CALLVALUE DUP1 ISZERO PUSH2 0x843 JUMPI PUSH1 0x0 DUP1 REVERT JUMPDEST POP PUSH2 0x84C PUSH2 0x1CAE JUMP JUMPDEST PUSH1 0x40 MLOAD PUSH2 0x366 SWAP2 SWAP1 PUSH2 0x615C JUMP JUMPDEST CALLVALUE DUP1 ISZERO PUSH2 0x865 JUMPI PUSH1 0x0 DUP1 REVERT JUMPDEST POP PUSH2 0x54B PUSH2 0x1D1D JUMP JUMPDEST CALLVALUE DUP1 ISZERO PUSH2 0x87A JUMPI PUSH1 0x0 DUP1 REVERT JUMPDEST POP PUSH2 0x6AC PUSH2 0x1D35 JUMP JUMPDEST CALLVALUE DUP1 ISZERO PUSH2 0x88F JUMPI PUSH1 0x0 DUP1 REVERT JUMPDEST POP PUSH2 0x38F PUSH2 0x1D41 JUMP JUMPDEST CALLVALUE DUP1 ISZERO PUSH2 0x8A4 JUMPI PUSH1 0x0 DUP1 REVERT JUMPDEST POP PUSH2 0x4B1 PUSH2 0x8B3 CALLDATASIZE PUSH1 0x4 PUSH2 0x5FF9 JUMP JUMPDEST PUSH2 0x1D5B JUMP JUMPDEST CALLVALUE DUP1 ISZERO PUSH2 0x8C4 JUMPI PUSH1 0x0 DUP1 REVERT JUMPDEST POP PUSH2 0x6AC PUSH2 0x1EA5 JUMP JUMPDEST CALLVALUE DUP1 ISZERO PUSH2 0x8D9 JUMPI PUSH1 0x0 DUP1 REVERT JUMPDEST POP PUSH2 0x359 PUSH2 0x8E8 CALLDATASIZE PUSH1 0x4 PUSH2 0x5F87 JUMP JUMPDEST PUSH2 0x1EB9 JUMP JUMPDEST PUSH2 0x38F PUSH2 0x8FB CALLDATASIZE PUSH1 0x4 PUSH2 0x5F3D JUMP JUMPDEST PUSH2 0x1F8B JUMP JUMPDEST CALLVALUE DUP1 ISZERO PUSH2 0x90C JUMPI PUSH1 0x0 DUP1 REVERT JUMPDEST POP PUSH2 0x54B PUSH2 0x20E8 JUMP JUMPDEST CALLVALUE DUP1 ISZERO PUSH2 0x921 JUMPI PUSH1 0x0 DUP1 REVERT JUMPDEST POP PUSH2 0x54B PUSH2 0x2104 JUMP JUMPDEST CALLVALUE DUP1 ISZERO PUSH2 0x936 JUMPI PUSH1 0x0 DUP1 REVERT JUMPDEST POP PUSH2 0x4B1 PUSH2 0x945 CALLDATASIZE PUSH1 0x4 PUSH2 0x5E39 JUMP JUMPDEST PUSH2 0x211C JUMP JUMPDEST CALLVALUE DUP1 ISZERO PUSH2 0x956 JUMPI PUSH1 0x0 DUP1 REVERT JUMPDEST POP PUSH2 0x38F PUSH2 0x965 CALLDATASIZE PUSH1 0x4 PUSH2 0x5E01 JUMP JUMPDEST PUSH2 0x215D JUMP JUMPDEST CALLVALUE DUP1 ISZERO PUSH2 0x976 JUMPI PUSH1 0x0 DUP1 REVERT JUMPDEST POP PUSH2 0x38F PUSH2 0x985 CALLDATASIZE PUSH1 0x4 PUSH2 0x5F6F JUMP JUMPDEST PUSH2 0x2200 JUMP JUMPDEST PUSH1 0xC SLOAD PUSH1 0x0 SWAP1 DUP2 PUSH2 0x99C DUP3 PUSH1 0x1 PUSH2 0x256B JUMP JUMPDEST PUSH1 0x0 DUP2 DUP2 MSTORE PUSH1 0x16 PUSH1 0x20 MSTORE PUSH1 0x40 SWAP1 KECCAK256 PUSH1 0x1 ADD SLOAD SWAP1 SWAP2 POP DUP1 ISZERO PUSH2 0x9C9 JUMPI PUSH2 0x9C9 PUSH2 0x9C4 DUP4 DUP4 PUSH2 0x258A JUMP JUMPDEST PUSH2 0x25FD JUMP JUMPDEST PUSH2 0x9D1 PUSH2 0x2605 JUMP JUMPDEST PUSH1 0x0 DUP5 DUP2 MSTORE PUSH1 0x16 PUSH1 0x20 MSTORE PUSH1 0x40 SWAP1 KECCAK256 SSTORE PUSH2 0x9E8 PUSH2 0x5C61 JUMP JUMPDEST POP PUSH1 0x0 DUP4 DUP2 MSTORE PUSH1 0x16 PUSH1 0x20 SWAP1 DUP2 MSTORE PUSH1 0x40 SWAP2 DUP3 SWAP1 KECCAK256 DUP3 MLOAD PUSH1 0xA0 DUP2 ADD DUP5 MSTORE DUP2 SLOAD DUP1 DUP3 MSTORE PUSH1 0x1 DUP4 ADD SLOAD SWAP4 DUP3 ADD DUP5 SWAP1 MSTORE PUSH1 0x2 DUP4 ADD SLOAD DUP3 DUP7 ADD DUP2 SWAP1 MSTORE PUSH1 0x3 DUP5 ADD SLOAD PUSH1 0x60 DUP5 ADD DUP2 SWAP1 MSTORE PUSH1 0x4 SWAP1 SWAP5 ADD SLOAD PUSH1 0x80 DUP5 ADD MSTORE SWAP5 MLOAD SWAP2 SWAP5 DUP9 SWAP5 PUSH32 0xBB4A26FA0ACE13EE4DA343896C20EAA44A618FB9071FDD8C2E2C960A4583189D SWAP5 PUSH2 0xA6A SWAP5 SWAP2 SWAP4 SWAP3 SWAP2 PUSH2 0x63E9 JUMP JUMPDEST PUSH1 0x40 MLOAD DUP1 SWAP2 SUB SWAP1 LOG2 PUSH2 0xA7A PUSH2 0x269D JUMP JUMPDEST PUSH1 0x20 DUP2 ADD MLOAD PUSH2 0xAC1 JUMPI DUP1 MLOAD PUSH1 0x40 MLOAD DUP6 SWAP2 PUSH32 0xB463D19ECF455BE65365092CF8E1DB6934A0334CF8CD532DDF9964D01F36B5B2 SWAP2 PUSH2 0xAB8 SWAP2 PUSH1 0x0 SWAP2 PUSH2 0x61FC JUMP JUMPDEST PUSH1 0x40 MLOAD DUP1 SWAP2 SUB SWAP1 LOG2 JUMPDEST PUSH1 0x20 ADD MLOAD SWAP4 POP POP POP POP SWAP1 JUMP JUMPDEST PUSH1 0x0 DUP1 PUSH2 0xAD8 PUSH2 0x191A JUMP JUMPDEST PUSH1 0x40 MLOAD PUSH32 0xC277F1AC00000000000000000000000000000000000000000000000000000000 DUP2 MSTORE PUSH20 0xFFFFFFFFFFFFFFFFFFFFFFFFFFFFFFFFFFFFFFFF SWAP2 SWAP1 SWAP2 AND SWAP1 PUSH4 0xC277F1AC SWAP1 PUSH2 0xB2C SWAP1 DUP8 SWAP1 PUSH1 0x4 ADD PUSH2 0x61C1 JUMP JUMPDEST PUSH1 0x0 PUSH1 0x40 MLOAD DUP1 DUP4 SUB DUP2 DUP7 DUP1 EXTCODESIZE ISZERO DUP1 ISZERO PUSH2 0xB44 JUMPI PUSH1 0x0 DUP1 REVERT JUMPDEST POP GAS STATICCALL ISZERO DUP1 ISZERO PUSH2 0xB58 JUMPI RETURNDATASIZE PUSH1 0x0 DUP1 RETURNDATACOPY RETURNDATASIZE PUSH1 0x0 REVERT JUMPDEST POP POP POP POP PUSH1 0x40 MLOAD RETURNDATASIZE PUSH1 0x0 DUP3 RETURNDATACOPY PUSH1 0x1F RETURNDATASIZE SWAP1 DUP2 ADD PUSH32 0xFFFFFFFFFFFFFFFFFFFFFFFFFFFFFFFFFFFFFFFFFFFFFFFFFFFFFFFFFFFFFFE0 AND DUP3 ADD PUSH1 0x40 MSTORE PUSH2 0xB9E SWAP2 SWAP1 DUP2 ADD SWAP1 PUSH2 0x5E98 JUMP JUMPDEST POP POP SWAP4 POP POP POP SWAP2 POP PUSH1 0x0 DUP2 EQ ISZERO PUSH2 0xBEA JUMPI PUSH1 0x40 MLOAD PUSH32 0x8C379A000000000000000000000000000000000000000000000000000000000 DUP2 MSTORE PUSH1 0x4 ADD PUSH2 0xBE1 SWAP1 PUSH2 0x620A JUMP JUMPDEST PUSH1 0x40 MLOAD DUP1 SWAP2 SUB SWAP1 REVERT JUMPDEST DUP3 PUSH20 0xFFFFFFFFFFFFFFFFFFFFFFFFFFFFFFFFFFFFFFFF AND DUP3 PUSH20 0xFFFFFFFFFFFFFFFFFFFFFFFFFFFFFFFFFFFFFFFF AND EQ PUSH2 0xC4F JUMPI PUSH1 0x40 MLOAD PUSH32 0x8C379A000000000000000000000000000000000000000000000000000000000 DUP2 MSTORE PUSH1 0x4 ADD PUSH2 0xBE1 SWAP1 PUSH2 0x6278 JUMP JUMPDEST PUSH20 0xFFFFFFFFFFFFFFFFFFFFFFFFFFFFFFFFFFFFFFFF DUP1 DUP4 AND PUSH1 0x0 SWAP1 DUP2 MSTORE PUSH1 0x9 PUSH1 0x20 MSTORE PUSH1 0x40 DUP1 DUP3 KECCAK256 DUP8 SWAP1 SSTORE MLOAD DUP7 SWAP3 DUP7 AND SWAP2 PUSH32 0xE8B9F7EE7A4480D45B60E98F7B2090DD82E2353B8557A6EE2DD2D5EE9196BAC2 SWAP2 LOG3 POP POP POP POP JUMP JUMPDEST PUSH1 0x0 PUSH2 0xCB2 PUSH2 0x1D1D JUMP JUMPDEST PUSH20 0xFFFFFFFFFFFFFFFFFFFFFFFFFFFFFFFFFFFFFFFF AND PUSH4 0x70A08231 DUP4 PUSH1 0x40 MLOAD DUP3 PUSH4 0xFFFFFFFF AND PUSH1 0xE0 SHL DUP2 MSTORE PUSH1 0x4 ADD PUSH2 0xCEA SWAP2 SWAP1 PUSH2 0x6115 JUMP JUMPDEST PUSH1 0x20 PUSH1 0x40 MLOAD DUP1 DUP4 SUB DUP2 DUP7 DUP1 EXTCODESIZE ISZERO DUP1 ISZERO PUSH2 0xD02 JUMPI PUSH1 0x0 DUP1 REVERT JUMPDEST POP GAS STATICCALL ISZERO DUP1 ISZERO PUSH2 0xD16 JUMPI RETURNDATASIZE PUSH1 0x0 DUP1 RETURNDATACOPY RETURNDATASIZE PUSH1 0x0 REVERT JUMPDEST POP POP POP POP PUSH1 0x40 MLOAD RETURNDATASIZE PUSH1 0x1F NOT PUSH1 0x1F DUP3 ADD AND DUP3 ADD DUP1 PUSH1 0x40 MSTORE POP DUP2 ADD SWAP1 PUSH2 0xD3A SWAP2 SWAP1 PUSH2 0x6050 JUMP JUMPDEST SWAP1 POP JUMPDEST SWAP2 SWAP1 POP JUMP JUMPDEST PUSH2 0xD4A PUSH2 0x26DA JUMP JUMPDEST PUSH20 0xFFFFFFFFFFFFFFFFFFFFFFFFFFFFFFFFFFFFFFFF DUP2 AND PUSH1 0x0 SWAP1 DUP2 MSTORE PUSH1 0x10 PUSH1 0x20 MSTORE PUSH1 0x40 SWAP1 KECCAK256 SLOAD PUSH1 0xFF AND ISZERO PUSH2 0xD86 JUMPI PUSH2 0xD86 PUSH2 0x9C4 PUSH1 0x0 DUP4 PUSH2 0x26FD JUMP JUMPDEST PUSH20 0xFFFFFFFFFFFFFFFFFFFFFFFFFFFFFFFFFFFFFFFF DUP2 AND PUSH1 0x0 DUP2 DUP2 MSTORE PUSH1 0x10 PUSH1 0x20 SWAP1 DUP2 MSTORE PUSH1 0x40 SWAP2 DUP3 SWAP1 KECCAK256 DUP1 SLOAD PUSH32 0xFFFFFFFFFFFFFFFFFFFFFFFFFFFFFFFFFFFFFFFFFFFFFFFFFFFFFFFFFFFFFF00 AND PUSH1 0x1 OR SWAP1 SSTORE DUP2 MLOAD SWAP3 DUP4 MSTORE SWAP1 MLOAD PUSH32 0x5738EE3C8E8FE8B0B9C4C21B16FDCA42EC02E271237DFEABBF3B5AF1584D732B SWAP3 DUP2 SWAP1 SUB SWAP1 SWAP2 ADD SWAP1 LOG1 POP JUMP JUMPDEST PUSH1 0x15 PUSH1 0x20 SWAP1 DUP2 MSTORE PUSH1 0x0 SWAP3 DUP4 MSTORE PUSH1 0x40 DUP1 DUP5 KECCAK256 SWAP1 SWAP2 MSTORE SWAP1 DUP3 MSTORE SWAP1 KECCAK256 DUP1 SLOAD PUSH1 0x1 DUP3 ADD SLOAD PUSH1 0x2 SWAP1 SWAP3 ADD SLOAD SWAP1 SWAP2 SWAP1 DUP4 JUMP JUMPDEST CALLER PUSH2 0xE41 PUSH2 0x5C90 JUMP JUMPDEST PUSH20 0xFFFFFFFFFFFFFFFFFFFFFFFFFFFFFFFFFFFFFFFF DUP3 AND PUSH1 0x0 SWAP1 DUP2 MSTORE PUSH32 0x5B8CCBB9D4D8FB16EA74CE3C29A41F1B461FBDAFF4714A0D9A8EB05499746BC PUSH1 0x20 MSTORE PUSH1 0x40 SWAP1 KECCAK256 PUSH2 0xE8E SWAP1 PUSH2 0x27A5 JUMP JUMPDEST SWAP1 POP PUSH1 0x0 PUSH2 0xEC0 DUP3 PUSH1 0x20 ADD MLOAD PUSH12 0xFFFFFFFFFFFFFFFFFFFFFFFF AND DUP4 PUSH1 0x40 ADD MLOAD PUSH12 0xFFFFFFFFFFFFFFFFFFFFFFFF AND PUSH2 0x284B JUMP JUMPDEST SWAP1 POP DUP1 DUP5 GT ISZERO PUSH2 0xED7 JUMPI PUSH2 0xED7 PUSH2 0x9C4 DUP6 DUP4 PUSH2 0x2861 JUMP JUMPDEST PUSH20 0xFFFFFFFFFFFFFFFFFFFFFFFFFFFFFFFFFFFFFFFF DUP4 AND PUSH1 0x0 SWAP1 DUP2 MSTORE PUSH32 0x5B8CCBB9D4D8FB16EA74CE3C29A41F1B461FBDAFF4714A0D9A8EB05499746BC PUSH1 0x20 MSTORE PUSH1 0x40 SWAP1 KECCAK256 PUSH2 0xF25 SWAP1 DUP6 PUSH2 0x28D4 JUMP JUMPDEST PUSH2 0xF2D PUSH2 0x1D1D JUMP JUMPDEST PUSH20 0xFFFFFFFFFFFFFFFFFFFFFFFFFFFFFFFFFFFFFFFF AND PUSH4 0x9470B0BD DUP5 DUP7 PUSH1 0x40 MLOAD DUP4 PUSH4 0xFFFFFFFF AND PUSH1 0xE0 SHL DUP2 MSTORE PUSH1 0x4 ADD PUSH2 0xF67 SWAP3 SWAP2 SWAP1 PUSH2 0x6136 JUMP JUMPDEST PUSH1 0x0 PUSH1 0x40 MLOAD DUP1 DUP4 SUB DUP2 PUSH1 0x0 DUP8 DUP1 EXTCODESIZE ISZERO DUP1 ISZERO PUSH2 0xF81 JUMPI PUSH1 0x0 DUP1 REVERT JUMPDEST POP GAS CALL ISZERO DUP1 ISZERO PUSH2 0xF95 JUMPI RETURNDATASIZE PUSH1 0x0 DUP1 RETURNDATACOPY RETURNDATASIZE PUSH1 0x0 REVERT JUMPDEST POP POP POP POP DUP3 PUSH20 0xFFFFFFFFFFFFFFFFFFFFFFFFFFFFFFFFFFFFFFFF AND PUSH32 0x85082129D87B2FE11527CB1B3B7A520AEB5AA6913F88A3D8757FE40D1DB02FDD DUP6 PUSH1 0x40 MLOAD PUSH2 0xFDF SWAP2 SWAP1 PUSH2 0x61C1 JUMP JUMPDEST PUSH1 0x40 MLOAD DUP1 SWAP2 SUB SWAP1 LOG2 POP POP POP POP JUMP JUMPDEST PUSH2 0xFF5 PUSH2 0x26DA JUMP JUMPDEST PUSH20 0xFFFFFFFFFFFFFFFFFFFFFFFFFFFFFFFFFFFFFFFF DUP2 AND PUSH1 0x0 SWAP1 DUP2 MSTORE PUSH1 0x10 PUSH1 0x20 MSTORE PUSH1 0x40 SWAP1 KECCAK256 SLOAD PUSH1 0xFF AND PUSH2 0x1030 JUMPI PUSH2 0x1030 PUSH2 0x9C4 PUSH1 0x1 DUP4 PUSH2 0x26FD JUMP JUMPDEST PUSH20 0xFFFFFFFFFFFFFFFFFFFFFFFFFFFFFFFFFFFFFFFF DUP2 AND PUSH1 0x0 DUP2 DUP2 MSTORE PUSH1 0x10 PUSH1 0x20 SWAP1 DUP2 MSTORE PUSH1 0x40 SWAP2 DUP3 SWAP1 KECCAK256 DUP1 SLOAD PUSH32 0xFFFFFFFFFFFFFFFFFFFFFFFFFFFFFFFFFFFFFFFFFFFFFFFFFFFFFFFFFFFFFF00 AND SWAP1 SSTORE DUP2 MLOAD SWAP3 DUP4 MSTORE SWAP1 MLOAD PUSH32 0x9BF55462CB5FA187F725D06DE0A70BC01C4E40695570BDC25AD116F9BE46BDA7 SWAP3 DUP2 SWAP1 SUB SWAP1 SWAP2 ADD SWAP1 LOG1 POP JUMP JUMPDEST PUSH1 0x16 PUSH1 0x20 MSTORE PUSH1 0x0 SWAP1 DUP2 MSTORE PUSH1 0x40 SWAP1 KECCAK256 DUP1 SLOAD PUSH1 0x1 DUP3 ADD SLOAD PUSH1 0x2 DUP4 ADD SLOAD PUSH1 0x3 DUP5 ADD SLOAD PUSH1 0x4 SWAP1 SWAP5 ADD SLOAD SWAP3 SWAP4 SWAP2 SWAP3 SWAP1 SWAP2 SWAP1 DUP6 JUMP JUMPDEST DUP2 PUSH2 0x10EC DUP2 PUSH2 0x2955 JUMP JUMPDEST PUSH1 0x0 DUP4 DUP2 MSTORE PUSH1 0xA PUSH1 0x20 MSTORE PUSH1 0x40 SWAP1 KECCAK256 PUSH20 0xFFFFFFFFFFFFFFFFFFFFFFFFFFFFFFFFFFFFFFFF DUP4 AND ISZERO DUP1 PUSH2 0x1139 JUMPI POP PUSH1 0x1 DUP2 ADD SLOAD PUSH20 0xFFFFFFFFFFFFFFFFFFFFFFFFFFFFFFFFFFFFFFFF DUP5 DUP2 AND SWAP2 AND EQ JUMPDEST ISZERO PUSH2 0x1144 JUMPI POP PUSH2 0x1186 JUMP JUMPDEST PUSH1 0x1 ADD DUP1 SLOAD PUSH32 0xFFFFFFFFFFFFFFFFFFFFFFFF0000000000000000000000000000000000000000 AND PUSH20 0xFFFFFFFFFFFFFFFFFFFFFFFFFFFFFFFFFFFFFFFF DUP5 AND OR SWAP1 SSTORE JUMPDEST POP POP POP JUMP JUMPDEST PUSH2 0x1193 PUSH2 0x5C90 JUMP JUMPDEST PUSH1 0x0 DUP3 DUP2 MSTORE PUSH1 0x7 PUSH1 0x20 MSTORE PUSH1 0x40 SWAP1 KECCAK256 PUSH2 0xD3A SWAP1 PUSH2 0x27A5 JUMP JUMPDEST PUSH2 0x11B2 PUSH2 0x298E JUMP JUMPDEST PUSH2 0x11BB DUP2 PUSH2 0x29D5 JUMP JUMPDEST POP JUMP JUMPDEST PUSH2 0x11C6 PUSH2 0x5C90 JUMP JUMPDEST PUSH2 0x1214 PUSH1 0x5 PUSH1 0x0 DUP5 PUSH1 0x1 DUP2 GT ISZERO PUSH2 0x11D9 JUMPI INVALID JUMPDEST PUSH1 0xFF AND DUP2 MSTORE PUSH1 0x20 DUP1 DUP3 ADD SWAP3 SWAP1 SWAP3 MSTORE PUSH1 0x40 SWAP1 DUP2 ADD PUSH1 0x0 SWAP1 DUP2 KECCAK256 PUSH20 0xFFFFFFFFFFFFFFFFFFFFFFFFFFFFFFFFFFFFFFFF DUP9 AND DUP3 MSTORE SWAP1 SWAP3 MSTORE SWAP1 KECCAK256 PUSH2 0x27A5 JUMP JUMPDEST SWAP1 POP JUMPDEST SWAP3 SWAP2 POP POP JUMP JUMPDEST PUSH2 0x1225 PUSH2 0x5CB0 JUMP JUMPDEST POP PUSH1 0x0 SWAP1 DUP2 MSTORE PUSH1 0x15 PUSH1 0x20 SWAP1 DUP2 MSTORE PUSH1 0x40 DUP1 DUP4 KECCAK256 PUSH1 0xC SLOAD DUP5 MSTORE DUP3 MSTORE SWAP2 DUP3 SWAP1 KECCAK256 DUP3 MLOAD PUSH1 0x60 DUP2 ADD DUP5 MSTORE DUP2 SLOAD DUP2 MSTORE PUSH1 0x1 DUP3 ADD SLOAD SWAP3 DUP2 ADD SWAP3 SWAP1 SWAP3 MSTORE PUSH1 0x2 ADD SLOAD SWAP2 DUP2 ADD SWAP2 SWAP1 SWAP2 MSTORE SWAP1 JUMP JUMPDEST PUSH1 0x2 DUP2 DUP2 SLOAD DUP2 LT PUSH2 0x1278 JUMPI PUSH1 0x0 DUP1 REVERT JUMPDEST PUSH1 0x0 SWAP2 DUP3 MSTORE PUSH1 0x20 SWAP1 SWAP2 KECCAK256 ADD SLOAD PUSH20 0xFFFFFFFFFFFFFFFFFFFFFFFFFFFFFFFFFFFFFFFF AND SWAP1 POP DUP2 JUMP JUMPDEST PUSH2 0x12A7 PUSH2 0x5CD1 JUMP JUMPDEST POP PUSH1 0x0 SWAP1 DUP2 MSTORE PUSH1 0xA PUSH1 0x20 SWAP1 DUP2 MSTORE PUSH1 0x40 SWAP2 DUP3 SWAP1 KECCAK256 DUP3 MLOAD PUSH1 0x80 DUP2 ADD DUP5 MSTORE DUP2 SLOAD PUSH20 0xFFFFFFFFFFFFFFFFFFFFFFFFFFFFFFFFFFFFFFFF SWAP1 DUP2 AND DUP3 MSTORE PUSH1 0x1 SWAP1 SWAP3 ADD SLOAD SWAP2 DUP3 AND SWAP3 DUP2 ADD SWAP3 SWAP1 SWAP3 MSTORE PUSH4 0xFFFFFFFF PUSH21 0x10000000000000000000000000000000000000000 DUP3 DIV DUP2 AND SWAP4 DUP4 ADD SWAP4 SWAP1 SWAP4 MSTORE PUSH25 0x1000000000000000000000000000000000000000000000000 SWAP1 DIV SWAP1 SWAP2 AND PUSH1 0x60 DUP3 ADD MSTORE SWAP1 JUMP JUMPDEST PUSH1 0x10 PUSH1 0x20 MSTORE PUSH1 0x0 SWAP1 DUP2 MSTORE PUSH1 0x40 SWAP1 KECCAK256 SLOAD PUSH1 0xFF AND DUP2 JUMP JUMPDEST PUSH1 0xD SLOAD DUP2 JUMP JUMPDEST CALLER DUP2 PUSH2 0x1362 JUMPI POP PUSH2 0x1186 JUMP JUMPDEST PUSH1 0x0 PUSH2 0x1371 PUSH1 0x20 DUP7 ADD DUP7 PUSH2 0x5FF9 JUMP JUMPDEST PUSH1 0x1 DUP2 GT ISZERO PUSH2 0x137C JUMPI INVALID JUMPDEST EQ DUP1 ISZERO PUSH2 0x13A0 JUMPI POP PUSH1 0x0 PUSH2 0x1393 PUSH1 0x20 DUP6 ADD DUP6 PUSH2 0x5FF9 JUMP JUMPDEST PUSH1 0x1 DUP2 GT ISZERO PUSH2 0x139E JUMPI INVALID JUMPDEST EQ JUMPDEST ISZERO PUSH2 0x13AB JUMPI POP PUSH2 0x1186 JUMP JUMPDEST PUSH1 0x1 PUSH2 0x13BA PUSH1 0x20 DUP7 ADD DUP7 PUSH2 0x5FF9 JUMP JUMPDEST PUSH1 0x1 DUP2 GT ISZERO PUSH2 0x13C5 JUMPI INVALID JUMPDEST EQ ISZERO PUSH2 0x13DA JUMPI PUSH2 0x13DA DUP5 PUSH1 0x20 ADD CALLDATALOAD DUP3 DUP5 PUSH2 0x2B06 JUMP JUMPDEST PUSH1 0x1 PUSH2 0x13E9 PUSH1 0x20 DUP6 ADD DUP6 PUSH2 0x5FF9 JUMP JUMPDEST PUSH1 0x1 DUP2 GT ISZERO PUSH2 0x13F4 JUMPI INVALID JUMPDEST EQ ISZERO PUSH2 0x1409 JUMPI PUSH2 0x1409 DUP4 PUSH1 0x20 ADD CALLDATALOAD DUP3 DUP5 PUSH2 0x2B9F JUMP JUMPDEST PUSH1 0x0 PUSH1 0x5 DUP2 PUSH2 0x141B PUSH1 0x20 DUP9 ADD DUP9 PUSH2 0x5FF9 JUMP JUMPDEST PUSH1 0x1 DUP2 GT ISZERO PUSH2 0x1426 JUMPI INVALID JUMPDEST PUSH1 0xFF AND DUP2 MSTORE PUSH1 0x20 DUP1 DUP3 ADD SWAP3 SWAP1 SWAP3 MSTORE PUSH1 0x40 SWAP1 DUP2 ADD PUSH1 0x0 SWAP1 DUP2 KECCAK256 PUSH20 0xFFFFFFFFFFFFFFFFFFFFFFFFFFFFFFFFFFFFFFFF DUP7 AND DUP3 MSTORE DUP4 MSTORE SWAP1 DUP2 KECCAK256 SWAP3 POP SWAP1 PUSH1 0x5 SWAP1 DUP3 SWAP1 PUSH2 0x1470 SWAP1 DUP9 ADD DUP9 PUSH2 0x5FF9 JUMP JUMPDEST PUSH1 0x1 DUP2 GT ISZERO PUSH2 0x147B JUMPI INVALID JUMPDEST PUSH1 0xFF AND DUP2 MSTORE PUSH1 0x20 DUP1 DUP3 ADD SWAP3 SWAP1 SWAP3 MSTORE PUSH1 0x40 SWAP1 DUP2 ADD PUSH1 0x0 SWAP1 DUP2 KECCAK256 PUSH20 0xFFFFFFFFFFFFFFFFFFFFFFFFFFFFFFFFFFFFFFFF DUP8 AND DUP3 MSTORE SWAP1 SWAP3 MSTORE SWAP1 KECCAK256 SWAP1 POP PUSH2 0x14BE DUP3 DUP3 DUP7 PUSH2 0x2C38 JUMP JUMPDEST PUSH1 0x20 DUP1 DUP7 ADD CALLDATALOAD SWAP1 DUP8 ADD DUP1 CALLDATALOAD SWAP1 PUSH20 0xFFFFFFFFFFFFFFFFFFFFFFFFFFFFFFFFFFFFFFFF DUP7 AND SWAP1 PUSH32 0x7D3AD1DCF03B9027064D1D9A474A69E0CECC31324C541D3EB9B5E6FA2F106C8D SWAP1 DUP9 SWAP1 PUSH2 0x1510 SWAP1 DUP13 PUSH2 0x5FF9 JUMP JUMPDEST PUSH1 0x1 DUP2 GT ISZERO PUSH2 0x151B JUMPI INVALID JUMPDEST PUSH2 0x1528 PUSH1 0x20 DUP13 ADD DUP13 PUSH2 0x5FF9 JUMP JUMPDEST PUSH1 0x1 DUP2 GT ISZERO PUSH2 0x1533 JUMPI INVALID JUMPDEST PUSH1 0x40 MLOAD PUSH2 0x1542 SWAP4 SWAP3 SWAP2 SWAP1 PUSH2 0x6452 JUMP JUMPDEST PUSH1 0x40 MLOAD DUP1 SWAP2 SUB SWAP1 LOG4 POP POP POP POP POP POP JUMP JUMPDEST DUP2 PUSH2 0x155C DUP2 PUSH2 0x2955 JUMP JUMPDEST PUSH1 0x0 DUP4 DUP2 MSTORE PUSH1 0xA PUSH1 0x20 MSTORE PUSH1 0x40 SWAP1 KECCAK256 PUSH1 0x1 ADD SLOAD PUSH21 0x10000000000000000000000000000000000000000 SWAP1 DIV PUSH4 0xFFFFFFFF AND PUSH2 0x1597 DUP5 DUP3 DUP6 PUSH2 0x2D25 JUMP JUMPDEST PUSH1 0x0 DUP5 DUP2 MSTORE PUSH1 0xA PUSH1 0x20 MSTORE PUSH1 0x40 SWAP1 DUP2 SWAP1 KECCAK256 PUSH1 0x1 ADD DUP1 SLOAD PUSH32 0xFFFFFFFFFFFFFFFF00000000FFFFFFFFFFFFFFFFFFFFFFFFFFFFFFFFFFFFFFFF AND PUSH21 0x10000000000000000000000000000000000000000 PUSH4 0xFFFFFFFF DUP8 AND MUL OR SWAP1 SSTORE MLOAD DUP5 SWAP1 PUSH32 0x8EA2A7A959BD25F226B7B0A4393613F7FDCAA8404E8BAD96AA52DC1C14590167 SWAP1 PUSH2 0xFDF SWAP1 DUP5 SWAP1 DUP8 SWAP1 PUSH2 0x647C JUMP JUMPDEST PUSH1 0x11 SLOAD PUSH1 0x12 SLOAD PUSH1 0x13 SLOAD PUSH1 0x14 SLOAD SWAP3 SWAP4 PUSH4 0xFFFFFFFF SWAP3 DUP4 AND SWAP4 SWAP2 SWAP3 DUP3 DUP2 AND SWAP3 PUSH5 0x100000000 SWAP1 DIV AND SWAP1 JUMP JUMPDEST PUSH1 0x11 SLOAD DUP2 JUMP JUMPDEST PUSH2 0x1658 PUSH2 0x298E JUMP JUMPDEST PUSH20 0xFFFFFFFFFFFFFFFFFFFFFFFFFFFFFFFFFFFFFFFF DUP2 AND PUSH1 0x0 SWAP1 DUP2 MSTORE PUSH1 0x1 PUSH1 0x20 MSTORE PUSH1 0x40 SWAP1 KECCAK256 SLOAD PUSH1 0xFF AND PUSH2 0x1691 JUMPI PUSH2 0x1691 PUSH2 0x9C4 DUP3 PUSH2 0x2D6D JUMP JUMPDEST PUSH1 0x0 JUMPDEST PUSH1 0x2 SLOAD DUP2 LT ISZERO PUSH2 0x1701 JUMPI DUP2 PUSH20 0xFFFFFFFFFFFFFFFFFFFFFFFFFFFFFFFFFFFFFFFF AND PUSH1 0x2 DUP3 DUP2 SLOAD DUP2 LT PUSH2 0x16C2 JUMPI INVALID JUMPDEST PUSH1 0x0 SWAP2 DUP3 MSTORE PUSH1 0x20 SWAP1 SWAP2 KECCAK256 ADD SLOAD PUSH20 0xFFFFFFFFFFFFFFFFFFFFFFFFFFFFFFFFFFFFFFFF AND EQ ISZERO PUSH2 0x16F9 JUMPI PUSH2 0x16F4 DUP3 DUP3 PUSH2 0x2DF0 JUMP JUMPDEST PUSH2 0x1701 JUMP JUMPDEST PUSH1 0x1 ADD PUSH2 0x1694 JUMP JUMPDEST POP POP JUMP JUMPDEST PUSH1 0xC SLOAD DUP2 JUMP JUMPDEST PUSH1 0x9 PUSH1 0x20 MSTORE PUSH1 0x0 SWAP1 DUP2 MSTORE PUSH1 0x40 SWAP1 KECCAK256 SLOAD DUP2 JUMP JUMPDEST PUSH1 0x14 SLOAD PUSH4 0xFFFFFFFF AND DUP2 JUMP JUMPDEST PUSH1 0x0 SLOAD PUSH20 0xFFFFFFFFFFFFFFFFFFFFFFFFFFFFFFFFFFFFFFFF AND DUP2 JUMP JUMPDEST PUSH2 0x174D PUSH2 0x298E JUMP JUMPDEST PUSH2 0x1701 DUP3 DUP3 PUSH2 0x2DF0 JUMP JUMPDEST PUSH2 0x175F PUSH2 0x26DA JUMP JUMPDEST PUSH2 0x176C DUP6 DUP6 DUP6 DUP6 DUP6 PUSH2 0x306B JUMP JUMPDEST ADDRESS PUSH20 0xFFFFFFFFFFFFFFFFFFFFFFFFFFFFFFFFFFFFFFFF AND PUSH4 0xC6F3A427 PUSH1 0x40 MLOAD DUP2 PUSH4 0xFFFFFFFF AND PUSH1 0xE0 SHL DUP2 MSTORE PUSH1 0x4 ADD PUSH1 0x0 PUSH1 0x40 MLOAD DUP1 DUP4 SUB DUP2 DUP7 DUP1 EXTCODESIZE ISZERO DUP1 ISZERO PUSH2 0x17B2 JUMPI PUSH1 0x0 DUP1 REVERT JUMPDEST POP GAS STATICCALL ISZERO DUP1 ISZERO PUSH2 0x17C6 JUMPI RETURNDATASIZE PUSH1 0x0 DUP1 RETURNDATACOPY RETURNDATASIZE PUSH1 0x0 REVERT JUMPDEST POP POP POP POP POP POP POP POP POP JUMP JUMPDEST PUSH1 0x13 SLOAD DUP2 JUMP JUMPDEST PUSH1 0x8 SLOAD DUP2 JUMP JUMPDEST CALLER PUSH2 0x17E6 PUSH2 0x1D1D JUMP JUMPDEST PUSH20 0xFFFFFFFFFFFFFFFFFFFFFFFFFFFFFFFFFFFFFFFF AND PUSH4 0x15CC36F2 DUP3 DUP5 PUSH1 0x40 MLOAD DUP4 PUSH4 0xFFFFFFFF AND PUSH1 0xE0 SHL DUP2 MSTORE PUSH1 0x4 ADD PUSH2 0x1820 SWAP3 SWAP2 SWAP1 PUSH2 0x6136 JUMP JUMPDEST PUSH1 0x0 PUSH1 0x40 MLOAD DUP1 DUP4 SUB DUP2 PUSH1 0x0 DUP8 DUP1 EXTCODESIZE ISZERO DUP1 ISZERO PUSH2 0x183A JUMPI PUSH1 0x0 DUP1 REVERT JUMPDEST POP GAS CALL ISZERO DUP1 ISZERO PUSH2 0x184E JUMPI RETURNDATASIZE PUSH1 0x0 DUP1 RETURNDATACOPY RETURNDATASIZE PUSH1 0x0 REVERT JUMPDEST POP POP POP POP PUSH20 0xFFFFFFFFFFFFFFFFFFFFFFFFFFFFFFFFFFFFFFFF DUP2 AND PUSH1 0x0 SWAP1 DUP2 MSTORE PUSH32 0x5B8CCBB9D4D8FB16EA74CE3C29A41F1B461FBDAFF4714A0D9A8EB05499746BC PUSH1 0x20 MSTORE PUSH1 0x40 SWAP1 KECCAK256 PUSH2 0x18A0 SWAP1 DUP4 PUSH2 0x3141 JUMP JUMPDEST DUP1 PUSH20 0xFFFFFFFFFFFFFFFFFFFFFFFFFFFFFFFFFFFFFFFF AND PUSH32 0xEBEDB8B3C678666E7F36970BC8F57ABF6D8FA2E828C0DA91EA5B75BF68ED101A DUP4 PUSH1 0x40 MLOAD PUSH2 0x18E6 SWAP2 SWAP1 PUSH2 0x61C1 JUMP JUMPDEST PUSH1 0x40 MLOAD DUP1 SWAP2 SUB SWAP1 LOG2 POP POP JUMP JUMPDEST PUSH1 0x0 PUSH2 0x190B PUSH1 0x11 SLOAD PUSH1 0xD SLOAD PUSH2 0x31A1 SWAP1 SWAP2 SWAP1 PUSH4 0xFFFFFFFF AND JUMP JUMPDEST SWAP1 POP SWAP1 JUMP JUMPDEST PUSH2 0x11BB DUP2 CALLER PUSH2 0x31BD JUMP JUMPDEST PUSH20 0xDE6445484A8DCD9BF35FC95EB4E3990CC358822E SWAP1 JUMP JUMPDEST PUSH1 0x1 PUSH1 0x20 MSTORE PUSH1 0x0 SWAP1 DUP2 MSTORE PUSH1 0x40 SWAP1 KECCAK256 SLOAD PUSH1 0xFF AND DUP2 JUMP JUMPDEST PUSH1 0x0 PUSH2 0x1951 PUSH2 0x5CD1 JUMP JUMPDEST POP PUSH1 0x0 DUP3 DUP2 MSTORE PUSH1 0xA PUSH1 0x20 SWAP1 DUP2 MSTORE PUSH1 0x40 DUP1 DUP4 KECCAK256 DUP2 MLOAD PUSH1 0x80 DUP2 ADD DUP4 MSTORE DUP2 SLOAD PUSH20 0xFFFFFFFFFFFFFFFFFFFFFFFFFFFFFFFFFFFFFFFF SWAP1 DUP2 AND DUP3 MSTORE PUSH1 0x1 SWAP1 SWAP3 ADD SLOAD SWAP2 DUP3 AND SWAP4 DUP2 ADD SWAP4 SWAP1 SWAP4 MSTORE PUSH4 0xFFFFFFFF PUSH21 0x10000000000000000000000000000000000000000 DUP3 DIV DUP2 AND SWAP3 DUP5 ADD SWAP3 SWAP1 SWAP3 MSTORE PUSH25 0x1000000000000000000000000000000000000000000000000 SWAP1 DIV AND PUSH1 0x60 DUP3 ADD MSTORE SWAP1 DUP1 PUSH2 0x19EA DUP6 PUSH2 0x3395 JUMP JUMPDEST SWAP2 POP SWAP2 POP PUSH2 0x19FD DUP4 PUSH1 0x40 ADD MLOAD DUP4 DUP4 PUSH2 0x33AB JUMP JUMPDEST POP SWAP6 SWAP5 POP POP POP POP POP JUMP JUMPDEST PUSH1 0x0 DUP1 PUSH1 0x0 PUSH2 0x1A14 PUSH2 0x191A JUMP JUMPDEST PUSH20 0xFFFFFFFFFFFFFFFFFFFFFFFFFFFFFFFFFFFFFFFF AND PUSH4 0xB72E717D DUP6 PUSH1 0x40 MLOAD DUP3 PUSH4 0xFFFFFFFF AND PUSH1 0xE0 SHL DUP2 MSTORE PUSH1 0x4 ADD PUSH2 0x1A4C SWAP2 SWAP1 PUSH2 0x6115 JUMP JUMPDEST PUSH1 0x0 PUSH1 0x40 MLOAD DUP1 DUP4 SUB DUP2 DUP7 DUP1 EXTCODESIZE ISZERO DUP1 ISZERO PUSH2 0x1A64 JUMPI PUSH1 0x0 DUP1 REVERT JUMPDEST POP GAS STATICCALL ISZERO DUP1 ISZERO PUSH2 0x1A78 JUMPI RETURNDATASIZE PUSH1 0x0 DUP1 RETURNDATACOPY RETURNDATASIZE PUSH1 0x0 REVERT JUMPDEST POP POP POP POP PUSH1 0x40 MLOAD RETURNDATASIZE PUSH1 0x0 DUP3 RETURNDATACOPY PUSH1 0x1F RETURNDATASIZE SWAP1 DUP2 ADD PUSH32 0xFFFFFFFFFFFFFFFFFFFFFFFFFFFFFFFFFFFFFFFFFFFFFFFFFFFFFFFFFFFFFFE0 AND DUP3 ADD PUSH1 0x40 MSTORE PUSH2 0x1ABE SWAP2 SWAP1 DUP2 ADD SWAP1 PUSH2 0x6068 JUMP JUMPDEST POP SWAP5 POP POP POP POP SWAP2 POP PUSH1 0x0 DUP3 EQ ISZERO PUSH2 0x1B01 JUMPI PUSH1 0x40 MLOAD PUSH32 0x8C379A000000000000000000000000000000000000000000000000000000000 DUP2 MSTORE PUSH1 0x4 ADD PUSH2 0xBE1 SWAP1 PUSH2 0x62AF JUMP JUMPDEST DUP1 CALLER PUSH3 0xAAE60 PUSH3 0x186A0 PUSH2 0x1B14 DUP7 PUSH2 0x33E6 JUMP JUMPDEST DUP6 PUSH1 0x0 SHL SWAP7 POP PUSH2 0x1B22 PUSH2 0x5CD1 JUMP JUMPDEST POP PUSH1 0x40 DUP1 MLOAD PUSH1 0x80 DUP2 ADD DUP3 MSTORE PUSH20 0xFFFFFFFFFFFFFFFFFFFFFFFFFFFFFFFFFFFFFFFF DUP1 DUP8 AND DUP3 MSTORE DUP6 DUP2 AND PUSH1 0x20 DUP1 DUP5 ADD SWAP2 DUP3 MSTORE PUSH4 0xFFFFFFFF DUP1 DUP9 AND DUP6 DUP8 ADD SWAP1 DUP2 MSTORE DUP8 DUP3 AND PUSH1 0x60 DUP8 ADD SWAP1 DUP2 MSTORE PUSH1 0x0 DUP16 DUP2 MSTORE PUSH1 0xA SWAP1 SWAP5 MSTORE SWAP3 DUP8 SWAP1 KECCAK256 DUP7 MLOAD DUP2 SLOAD SWAP1 DUP8 AND PUSH32 0xFFFFFFFFFFFFFFFFFFFFFFFF0000000000000000000000000000000000000000 SWAP2 DUP3 AND OR DUP3 SSTORE SWAP5 MLOAD PUSH1 0x1 SWAP1 SWAP2 ADD DUP1 SLOAD SWAP3 MLOAD SWAP5 MLOAD DUP5 AND PUSH25 0x1000000000000000000000000000000000000000000000000 MUL PUSH32 0xFFFFFFFF00000000FFFFFFFFFFFFFFFFFFFFFFFFFFFFFFFFFFFFFFFFFFFFFFFF SWAP6 SWAP1 SWAP5 AND PUSH21 0x10000000000000000000000000000000000000000 MUL PUSH32 0xFFFFFFFFFFFFFFFF00000000FFFFFFFFFFFFFFFFFFFFFFFFFFFFFFFFFFFFFFFF SWAP3 SWAP1 SWAP8 AND SWAP3 SWAP1 SWAP6 AND SWAP2 SWAP1 SWAP2 OR AND SWAP4 SWAP1 SWAP4 OR AND SWAP2 SWAP1 SWAP2 OR SWAP1 SSTORE SWAP1 MLOAD PUSH32 0xCEC6FC86EA644053F6EDFF1160DFE3FA5C61E7A5EF9F873F145BB03A0BD319E7 SWAP1 PUSH2 0x1C78 SWAP1 DUP11 SWAP1 DUP9 SWAP1 DUP8 SWAP1 PUSH2 0x61CA JUMP JUMPDEST PUSH1 0x40 MLOAD DUP1 SWAP2 SUB SWAP1 LOG1 PUSH2 0x1C8A DUP9 DUP11 PUSH2 0xACD JUMP JUMPDEST POP POP POP POP POP POP POP SWAP2 SWAP1 POP JUMP JUMPDEST PUSH1 0xB PUSH1 0x20 MSTORE PUSH1 0x0 SWAP1 DUP2 MSTORE PUSH1 0x40 SWAP1 KECCAK256 SLOAD DUP2 JUMP JUMPDEST PUSH1 0x17 SLOAD DUP2 JUMP JUMPDEST PUSH1 0x60 PUSH1 0x2 DUP1 SLOAD DUP1 PUSH1 0x20 MUL PUSH1 0x20 ADD PUSH1 0x40 MLOAD SWAP1 DUP2 ADD PUSH1 0x40 MSTORE DUP1 SWAP3 SWAP2 SWAP1 DUP2 DUP2 MSTORE PUSH1 0x20 ADD DUP3 DUP1 SLOAD DUP1 ISZERO PUSH2 0x1D13 JUMPI PUSH1 0x20 MUL DUP3 ADD SWAP2 SWAP1 PUSH1 0x0 MSTORE PUSH1 0x20 PUSH1 0x0 KECCAK256 SWAP1 JUMPDEST DUP2 SLOAD PUSH20 0xFFFFFFFFFFFFFFFFFFFFFFFFFFFFFFFFFFFFFFFF AND DUP2 MSTORE PUSH1 0x1 SWAP1 SWAP2 ADD SWAP1 PUSH1 0x20 ADD DUP1 DUP4 GT PUSH2 0x1CE8 JUMPI JUMPDEST POP POP POP POP POP SWAP1 POP SWAP1 JUMP JUMPDEST PUSH20 0xBA7F8B5FB1B19C1211C5D49550FCD149177A5EAF SWAP1 JUMP JUMPDEST PUSH1 0x12 SLOAD PUSH4 0xFFFFFFFF AND DUP2 JUMP JUMPDEST PUSH2 0x1D49 PUSH2 0x26DA JUMP JUMPDEST PUSH2 0x1D51 PUSH2 0x341E JUMP JUMPDEST PUSH2 0x1D59 PUSH2 0x3431 JUMP JUMPDEST JUMP JUMPDEST PUSH2 0x1D63 PUSH2 0x5C90 JUMP JUMPDEST PUSH1 0x1 PUSH1 0x0 MSTORE PUSH1 0x4 PUSH1 0x20 MSTORE PUSH2 0x1D96 PUSH32 0xABD6E7CB50984FF9C2F3E18A2660C3353DADF4E3291DEEB275DAE2CD1E44FE05 PUSH2 0x27A5 JUMP JUMPDEST SWAP1 POP PUSH1 0x0 DUP3 PUSH1 0x1 DUP2 GT ISZERO PUSH2 0x1DA6 JUMPI INVALID JUMPDEST EQ ISZERO PUSH2 0xD3D JUMPI PUSH1 0x0 PUSH2 0x1DB6 PUSH2 0x1D1D JUMP JUMPDEST PUSH20 0xFFFFFFFFFFFFFFFFFFFFFFFFFFFFFFFFFFFFFFFF AND PUSH4 0x6B6DF5AA PUSH1 0x40 MLOAD DUP2 PUSH4 0xFFFFFFFF AND PUSH1 0xE0 SHL DUP2 MSTORE PUSH1 0x4 ADD PUSH1 0x20 PUSH1 0x40 MLOAD DUP1 DUP4 SUB DUP2 DUP7 DUP1 EXTCODESIZE ISZERO DUP1 ISZERO PUSH2 0x1DFB JUMPI PUSH1 0x0 DUP1 REVERT JUMPDEST POP GAS STATICCALL ISZERO DUP1 ISZERO PUSH2 0x1E0F JUMPI RETURNDATASIZE PUSH1 0x0 DUP1 RETURNDATACOPY RETURNDATASIZE PUSH1 0x0 REVERT JUMPDEST POP POP POP POP PUSH1 0x40 MLOAD RETURNDATASIZE PUSH1 0x1F NOT PUSH1 0x1F DUP3 ADD AND DUP3 ADD DUP1 PUSH1 0x40 MSTORE POP DUP2 ADD SWAP1 PUSH2 0x1E33 SWAP2 SWAP1 PUSH2 0x6050 JUMP JUMPDEST SWAP1 POP PUSH2 0x1E62 PUSH2 0x1E5D DUP4 PUSH1 0x20 ADD MLOAD PUSH12 0xFFFFFFFFFFFFFFFFFFFFFFFF AND DUP4 PUSH2 0x256B SWAP1 SWAP2 SWAP1 PUSH4 0xFFFFFFFF AND JUMP JUMPDEST PUSH2 0x345C JUMP JUMPDEST PUSH12 0xFFFFFFFFFFFFFFFFFFFFFFFF SWAP1 DUP2 AND PUSH1 0x20 DUP5 ADD MSTORE PUSH1 0x40 DUP4 ADD MLOAD PUSH2 0x1E8C SWAP2 PUSH2 0x1E5D SWAP2 DUP5 SWAP2 AND PUSH2 0x256B JUMP JUMPDEST PUSH12 0xFFFFFFFFFFFFFFFFFFFFFFFF AND PUSH1 0x40 DUP4 ADD MSTORE POP SWAP2 SWAP1 POP JUMP JUMPDEST PUSH1 0x14 SLOAD PUSH5 0x100000000 SWAP1 DIV PUSH4 0xFFFFFFFF AND DUP2 JUMP JUMPDEST PUSH1 0x0 PUSH2 0x1EC3 PUSH2 0x5CD1 JUMP JUMPDEST POP PUSH1 0x0 DUP4 DUP2 MSTORE PUSH1 0xA PUSH1 0x20 SWAP1 DUP2 MSTORE PUSH1 0x40 DUP1 DUP4 KECCAK256 DUP2 MLOAD PUSH1 0x80 DUP2 ADD DUP4 MSTORE DUP2 SLOAD PUSH20 0xFFFFFFFFFFFFFFFFFFFFFFFFFFFFFFFFFFFFFFFF SWAP1 DUP2 AND DUP3 MSTORE PUSH1 0x1 SWAP1 SWAP3 ADD SLOAD SWAP2 DUP3 AND SWAP4 DUP2 ADD SWAP4 SWAP1 SWAP4 MSTORE PUSH4 0xFFFFFFFF PUSH21 0x10000000000000000000000000000000000000000 DUP3 DIV DUP2 AND SWAP3 DUP5 ADD SWAP3 SWAP1 SWAP3 MSTORE PUSH25 0x1000000000000000000000000000000000000000000000000 SWAP1 DIV AND PUSH1 0x60 DUP3 ADD MSTORE SWAP1 DUP1 PUSH2 0x1F5C DUP7 PUSH2 0x3395 JUMP JUMPDEST SWAP2 POP SWAP2 POP PUSH1 0x0 PUSH2 0x1F71 DUP5 PUSH1 0x40 ADD MLOAD DUP5 DUP5 PUSH2 0x33AB JUMP JUMPDEST SWAP2 POP POP PUSH2 0x1F80 DUP8 DUP8 DUP4 DUP6 PUSH2 0x3480 JUMP JUMPDEST SWAP8 SWAP7 POP POP POP POP POP POP POP JUMP JUMPDEST CALLER PUSH1 0x0 SWAP1 DUP2 MSTORE PUSH1 0x10 PUSH1 0x20 MSTORE PUSH1 0x40 SWAP1 KECCAK256 SLOAD PUSH1 0xFF AND PUSH2 0x1FAE JUMPI PUSH2 0x1FAE PUSH2 0x9C4 CALLER PUSH2 0x35C1 JUMP JUMPDEST PUSH20 0xFFFFFFFFFFFFFFFFFFFFFFFFFFFFFFFFFFFFFFFF DUP3 AND PUSH1 0x0 SWAP1 DUP2 MSTORE PUSH1 0x9 PUSH1 0x20 MSTORE PUSH1 0x40 SWAP1 KECCAK256 SLOAD DUP1 PUSH2 0x1FDF JUMPI POP PUSH2 0x1701 JUMP JUMPDEST PUSH1 0x0 PUSH2 0x1FEA DUP3 PUSH2 0x118B JUMP JUMPDEST PUSH1 0x20 ADD MLOAD PUSH12 0xFFFFFFFFFFFFFFFFFFFFFFFF AND SWAP1 POP PUSH1 0x13 SLOAD DUP2 LT ISZERO PUSH2 0x200F JUMPI POP POP PUSH2 0x1701 JUMP JUMPDEST PUSH1 0xC SLOAD PUSH1 0x0 DUP4 DUP2 MSTORE PUSH1 0x15 PUSH1 0x20 SWAP1 DUP2 MSTORE PUSH1 0x40 DUP1 DUP4 KECCAK256 DUP5 DUP5 MSTORE DUP3 MSTORE DUP1 DUP4 KECCAK256 PUSH1 0x16 SWAP1 SWAP3 MSTORE SWAP1 SWAP2 KECCAK256 DUP2 SLOAD DUP1 PUSH2 0x20B2 JUMPI PUSH1 0x0 DUP1 PUSH2 0x2047 DUP9 DUP9 PUSH2 0x3644 JUMP JUMPDEST PUSH1 0x2 DUP8 ADD DUP3 SWAP1 SSTORE PUSH1 0x1 DUP8 ADD DUP2 SWAP1 SSTORE PUSH1 0x3 DUP7 ADD SLOAD SWAP2 SWAP4 POP SWAP2 POP PUSH2 0x2069 SWAP1 DUP3 PUSH2 0x31A1 JUMP JUMPDEST PUSH1 0x3 DUP6 ADD SSTORE PUSH1 0x1 DUP1 DUP6 ADD SLOAD PUSH2 0x207D SWAP2 PUSH2 0x31A1 JUMP JUMPDEST PUSH1 0x1 DUP6 ADD SSTORE PUSH1 0x40 MLOAD DUP9 SWAP1 DUP8 SWAP1 PUSH32 0x14B098103235344975B17508C2391721CC9AC3F3FA2B56C7FF46F8480DFD074F SWAP1 PUSH1 0x0 SWAP1 LOG3 POP POP JUMPDEST DUP1 DUP8 GT ISZERO PUSH2 0x20DE JUMPI DUP7 DUP4 SSTORE PUSH1 0x2 DUP3 ADD SLOAD PUSH2 0x20D8 SWAP1 DUP3 SWAP1 PUSH2 0x20D2 SWAP1 DUP11 PUSH2 0x31A1 JUMP JUMPDEST SWAP1 PUSH2 0x256B JUMP JUMPDEST PUSH1 0x2 DUP4 ADD SSTORE JUMPDEST POP POP POP POP POP POP POP POP JUMP JUMPDEST PUSH1 0x3 SLOAD PUSH20 0xFFFFFFFFFFFFFFFFFFFFFFFFFFFFFFFFFFFFFFFF AND DUP2 JUMP JUMPDEST PUSH20 0x4FBB350052BCA5417566F188EB2EBCE5B19BC964 SWAP1 JUMP JUMPDEST PUSH2 0x2124 PUSH2 0x5C90 JUMP JUMPDEST PUSH20 0xFFFFFFFFFFFFFFFFFFFFFFFFFFFFFFFFFFFFFFFF DUP4 AND PUSH1 0x0 SWAP1 DUP2 MSTORE PUSH1 0x6 PUSH1 0x20 SWAP1 DUP2 MSTORE PUSH1 0x40 DUP1 DUP4 KECCAK256 DUP6 DUP5 MSTORE SWAP1 SWAP2 MSTORE SWAP1 KECCAK256 PUSH2 0x1214 SWAP1 PUSH2 0x27A5 JUMP JUMPDEST PUSH2 0x2165 PUSH2 0x298E JUMP JUMPDEST PUSH20 0xFFFFFFFFFFFFFFFFFFFFFFFFFFFFFFFFFFFFFFFF DUP2 AND PUSH2 0x2190 JUMPI PUSH2 0x218B PUSH2 0x9C4 PUSH2 0x36C4 JUMP JUMPDEST PUSH2 0x11BB JUMP JUMPDEST PUSH1 0x0 DUP1 SLOAD PUSH32 0xFFFFFFFFFFFFFFFFFFFFFFFF0000000000000000000000000000000000000000 AND PUSH20 0xFFFFFFFFFFFFFFFFFFFFFFFFFFFFFFFFFFFFFFFF DUP4 AND SWAP1 DUP2 OR DUP3 SSTORE PUSH1 0x40 MLOAD SWAP1 SWAP2 CALLER SWAP2 PUSH32 0x8BE0079C531659141344CD1FD0A4F28419497F9722A3DAAFE3B4186F6B6457E0 SWAP2 SWAP1 LOG3 POP JUMP JUMPDEST PUSH2 0x2209 CALLER PUSH2 0x36FB JUMP JUMPDEST ISZERO PUSH2 0x2216 JUMPI PUSH2 0x2216 PUSH2 0x26DA JUMP JUMPDEST PUSH1 0xC SLOAD PUSH1 0x0 PUSH2 0x2226 DUP3 PUSH1 0x1 PUSH2 0x256B JUMP JUMPDEST SWAP1 POP PUSH2 0x2230 PUSH2 0x5C61 JUMP JUMPDEST POP PUSH1 0x0 DUP2 DUP2 MSTORE PUSH1 0x16 PUSH1 0x20 SWAP1 DUP2 MSTORE PUSH1 0x40 SWAP2 DUP3 SWAP1 KECCAK256 DUP3 MLOAD PUSH1 0xA0 DUP2 ADD DUP5 MSTORE DUP2 SLOAD DUP2 MSTORE PUSH1 0x1 DUP3 ADD SLOAD SWAP3 DUP2 ADD DUP4 SWAP1 MSTORE PUSH1 0x2 DUP3 ADD SLOAD SWAP4 DUP2 ADD SWAP4 SWAP1 SWAP4 MSTORE PUSH1 0x3 DUP2 ADD SLOAD PUSH1 0x60 DUP5 ADD MSTORE PUSH1 0x4 ADD SLOAD PUSH1 0x80 DUP4 ADD MSTORE PUSH2 0x2285 JUMPI POP POP POP PUSH2 0x11BB JUMP JUMPDEST PUSH2 0x228D PUSH2 0x5CB0 JUMP JUMPDEST POP PUSH1 0x0 DUP5 DUP2 MSTORE PUSH1 0x15 PUSH1 0x20 SWAP1 DUP2 MSTORE PUSH1 0x40 DUP1 DUP4 KECCAK256 DUP6 DUP5 MSTORE DUP3 MSTORE SWAP2 DUP3 SWAP1 KECCAK256 DUP3 MLOAD PUSH1 0x60 DUP2 ADD DUP5 MSTORE DUP2 SLOAD DUP1 DUP3 MSTORE PUSH1 0x1 DUP4 ADD SLOAD SWAP4 DUP3 ADD SWAP4 SWAP1 SWAP4 MSTORE PUSH1 0x2 SWAP1 SWAP2 ADD SLOAD SWAP3 DUP2 ADD SWAP3 SWAP1 SWAP3 MSTORE PUSH2 0x22DB JUMPI POP POP POP POP PUSH2 0x11BB JUMP JUMPDEST PUSH1 0x0 DUP6 DUP2 MSTORE PUSH1 0x15 PUSH1 0x20 SWAP1 DUP2 MSTORE PUSH1 0x40 DUP1 DUP4 KECCAK256 DUP7 DUP5 MSTORE SWAP1 SWAP2 MSTORE DUP2 KECCAK256 DUP2 DUP2 SSTORE PUSH1 0x1 DUP2 ADD DUP3 SWAP1 SSTORE PUSH1 0x2 ADD DUP2 SWAP1 SSTORE PUSH2 0x230E DUP3 DUP5 PUSH2 0x3701 JUMP JUMPDEST SWAP1 POP PUSH1 0x0 DUP1 PUSH2 0x2322 DUP9 DUP5 DUP7 PUSH1 0x40 ADD MLOAD PUSH2 0x3882 JUMP JUMPDEST SWAP2 POP SWAP2 POP DUP8 DUP8 PUSH32 0xF1116B309178AA62DCB6BF8C3B8BC2321724907C7EBF52192D14C8CE3AA9194C DUP5 DUP5 PUSH1 0x40 MLOAD PUSH2 0x2359 SWAP3 SWAP2 SWAP1 PUSH2 0x61FC JUMP JUMPDEST PUSH1 0x40 MLOAD DUP1 SWAP2 SUB SWAP1 LOG3 PUSH1 0x0 PUSH2 0x236D DUP4 DUP4 PUSH2 0x31A1 JUMP JUMPDEST SWAP1 POP PUSH2 0x2377 PUSH2 0x2104 JUMP JUMPDEST PUSH20 0xFFFFFFFFFFFFFFFFFFFFFFFFFFFFFFFFFFFFFFFF AND PUSH4 0x7546172 PUSH1 0x40 MLOAD DUP2 PUSH4 0xFFFFFFFF AND PUSH1 0xE0 SHL DUP2 MSTORE PUSH1 0x4 ADD PUSH1 0x20 PUSH1 0x40 MLOAD DUP1 DUP4 SUB DUP2 DUP7 DUP1 EXTCODESIZE ISZERO DUP1 ISZERO PUSH2 0x23BC JUMPI PUSH1 0x0 DUP1 REVERT JUMPDEST POP GAS STATICCALL ISZERO DUP1 ISZERO PUSH2 0x23D0 JUMPI RETURNDATASIZE PUSH1 0x0 DUP1 RETURNDATACOPY RETURNDATASIZE PUSH1 0x0 REVERT JUMPDEST POP POP POP POP PUSH1 0x40 MLOAD RETURNDATASIZE PUSH1 0x1F NOT PUSH1 0x1F DUP3 ADD AND DUP3 ADD DUP1 PUSH1 0x40 MSTORE POP DUP2 ADD SWAP1 PUSH2 0x23F4 SWAP2 SWAP1 PUSH2 0x5E1D JUMP JUMPDEST PUSH20 0xFFFFFFFFFFFFFFFFFFFFFFFFFFFFFFFFFFFFFFFF AND PUSH4 0x7FA36E40 DUP11 DUP4 PUSH1 0x40 MLOAD DUP4 PUSH4 0xFFFFFFFF AND PUSH1 0xE0 SHL DUP2 MSTORE PUSH1 0x4 ADD PUSH2 0x242E SWAP3 SWAP2 SWAP1 PUSH2 0x61FC JUMP JUMPDEST PUSH1 0x20 PUSH1 0x40 MLOAD DUP1 DUP4 SUB DUP2 PUSH1 0x0 DUP8 DUP1 EXTCODESIZE ISZERO DUP1 ISZERO PUSH2 0x2448 JUMPI PUSH1 0x0 DUP1 REVERT JUMPDEST POP GAS CALL ISZERO DUP1 ISZERO PUSH2 0x245C JUMPI RETURNDATASIZE PUSH1 0x0 DUP1 RETURNDATACOPY RETURNDATASIZE PUSH1 0x0 REVERT JUMPDEST POP POP POP POP PUSH1 0x40 MLOAD RETURNDATASIZE PUSH1 0x1F NOT PUSH1 0x1F DUP3 ADD AND DUP3 ADD DUP1 PUSH1 0x40 MSTORE POP DUP2 ADD SWAP1 PUSH2 0x2480 SWAP2 SWAP1 PUSH2 0x5F4F JUMP JUMPDEST PUSH2 0x24B6 JUMPI PUSH1 0x40 MLOAD PUSH32 0x8C379A000000000000000000000000000000000000000000000000000000000 DUP2 MSTORE PUSH1 0x4 ADD PUSH2 0xBE1 SWAP1 PUSH2 0x6241 JUMP JUMPDEST PUSH1 0x80 DUP7 ADD MLOAD PUSH2 0x24C5 SWAP1 DUP3 PUSH2 0x31A1 JUMP JUMPDEST PUSH1 0x80 DUP8 ADD DUP2 SWAP1 MSTORE PUSH1 0x0 DUP9 DUP2 MSTORE PUSH1 0x16 PUSH1 0x20 SWAP1 DUP2 MSTORE PUSH1 0x40 SWAP1 SWAP2 KECCAK256 PUSH1 0x4 ADD SWAP2 SWAP1 SWAP2 SSTORE DUP7 ADD MLOAD PUSH2 0x24F2 SWAP1 PUSH1 0x1 PUSH2 0x256B JUMP JUMPDEST PUSH1 0x20 DUP1 DUP9 ADD DUP3 DUP2 MSTORE PUSH1 0x0 DUP11 DUP2 MSTORE PUSH1 0x16 SWAP1 SWAP3 MSTORE PUSH1 0x40 SWAP1 SWAP2 KECCAK256 PUSH1 0x1 ADD SWAP2 SWAP1 SWAP2 SSTORE MLOAD PUSH2 0x17C6 JUMPI PUSH1 0x80 DUP7 ADD MLOAD DUP7 MLOAD DUP9 SWAP2 PUSH32 0xB463D19ECF455BE65365092CF8E1DB6934A0334CF8CD532DDF9964D01F36B5B2 SWAP2 PUSH2 0x254A SWAP1 DUP3 PUSH2 0x256B JUMP JUMPDEST PUSH1 0x40 MLOAD PUSH2 0x2558 SWAP3 SWAP2 SWAP1 PUSH2 0x61FC JUMP JUMPDEST PUSH1 0x40 MLOAD DUP1 SWAP2 SUB SWAP1 LOG2 POP POP POP POP POP POP POP POP POP JUMP JUMPDEST PUSH1 0x0 DUP3 DUP3 GT ISZERO PUSH2 0x2584 JUMPI PUSH2 0x2584 PUSH2 0x9C4 PUSH1 0x2 DUP6 DUP6 PUSH2 0x3BC3 JUMP JUMPDEST POP SWAP1 SUB SWAP1 JUMP JUMPDEST PUSH1 0x40 DUP1 MLOAD PUSH1 0x24 DUP2 ADD DUP5 SWAP1 MSTORE PUSH1 0x44 DUP1 DUP3 ADD DUP5 SWAP1 MSTORE DUP3 MLOAD DUP1 DUP4 SUB SWAP1 SWAP2 ADD DUP2 MSTORE PUSH1 0x64 SWAP1 SWAP2 ADD SWAP1 SWAP2 MSTORE PUSH1 0x20 DUP2 ADD DUP1 MLOAD PUSH28 0xFFFFFFFFFFFFFFFFFFFFFFFFFFFFFFFFFFFFFFFFFFFFFFFFFFFFFFFF AND PUSH32 0x614B800A00000000000000000000000000000000000000000000000000000000 OR SWAP1 MSTORE SWAP3 SWAP2 POP POP JUMP JUMPDEST DUP1 MLOAD PUSH1 0x20 DUP3 ADD REVERT JUMPDEST PUSH1 0x0 PUSH2 0x190B PUSH1 0x17 SLOAD PUSH2 0x2615 PUSH2 0x2104 JUMP JUMPDEST PUSH20 0xFFFFFFFFFFFFFFFFFFFFFFFFFFFFFFFFFFFFFFFF AND PUSH4 0x70A08231 ADDRESS PUSH1 0x40 MLOAD DUP3 PUSH4 0xFFFFFFFF AND PUSH1 0xE0 SHL DUP2 MSTORE PUSH1 0x4 ADD PUSH2 0x264D SWAP2 SWAP1 PUSH2 0x6115 JUMP JUMPDEST PUSH1 0x20 PUSH1 0x40 MLOAD DUP1 DUP4 SUB DUP2 DUP7 DUP1 EXTCODESIZE ISZERO DUP1 ISZERO PUSH2 0x2665 JUMPI PUSH1 0x0 DUP1 REVERT JUMPDEST POP GAS STATICCALL ISZERO DUP1 ISZERO PUSH2 0x2679 JUMPI RETURNDATASIZE PUSH1 0x0 DUP1 RETURNDATACOPY RETURNDATASIZE PUSH1 0x0 REVERT JUMPDEST POP POP POP POP PUSH1 0x40 MLOAD RETURNDATASIZE PUSH1 0x1F NOT PUSH1 0x1F DUP3 ADD AND DUP3 ADD DUP1 PUSH1 0x40 MSTORE POP DUP2 ADD SWAP1 PUSH2 0x20D2 SWAP2 SWAP1 PUSH2 0x6050 JUMP JUMPDEST TIMESTAMP PUSH1 0x0 PUSH2 0x26A8 PUSH2 0x18F2 JUMP JUMPDEST SWAP1 POP DUP2 DUP2 GT ISZERO PUSH2 0x26BF JUMPI PUSH2 0x26BF PUSH2 0x9C4 DUP3 DUP5 PUSH2 0x3C5F JUMP JUMPDEST PUSH1 0xC SLOAD PUSH1 0x0 SWAP1 PUSH2 0x26D0 SWAP1 PUSH1 0x1 PUSH2 0x31A1 JUMP JUMPDEST PUSH1 0xC SSTORE POP POP PUSH1 0xD SSTORE JUMP JUMPDEST CALLER PUSH1 0x0 SWAP1 DUP2 MSTORE PUSH1 0x1 PUSH1 0x20 MSTORE PUSH1 0x40 SWAP1 KECCAK256 SLOAD PUSH1 0xFF AND PUSH2 0x1D59 JUMPI PUSH2 0x1D59 PUSH2 0x9C4 CALLER PUSH2 0x3CD2 JUMP JUMPDEST PUSH1 0x60 PUSH4 0xB9588E43 PUSH1 0xE0 SHL DUP4 DUP4 PUSH1 0x40 MLOAD PUSH1 0x24 ADD DUP1 DUP4 PUSH1 0x1 DUP2 GT ISZERO PUSH2 0x271C JUMPI INVALID JUMPDEST DUP2 MSTORE PUSH20 0xFFFFFFFFFFFFFFFFFFFFFFFFFFFFFFFFFFFFFFFF SWAP1 SWAP3 AND PUSH1 0x20 DUP1 DUP5 ADD SWAP2 SWAP1 SWAP2 MSTORE PUSH1 0x40 DUP1 MLOAD DUP1 DUP6 SUB DUP4 ADD DUP2 MSTORE SWAP4 DUP2 ADD SWAP1 MSTORE DUP3 ADD DUP1 MLOAD PUSH28 0xFFFFFFFFFFFFFFFFFFFFFFFFFFFFFFFFFFFFFFFFFFFFFFFFFFFFFFFF AND PUSH32 0xFFFFFFFF00000000000000000000000000000000000000000000000000000000 SWAP1 SWAP6 AND SWAP5 SWAP1 SWAP5 OR SWAP1 SWAP4 MSTORE SWAP6 SWAP5 POP POP POP POP POP JUMP JUMPDEST PUSH2 0x27AD PUSH2 0x5C90 JUMP JUMPDEST POP PUSH1 0x40 DUP1 MLOAD PUSH1 0x60 DUP2 ADD DUP3 MSTORE DUP3 SLOAD PUSH8 0xFFFFFFFFFFFFFFFF DUP2 AND DUP1 DUP4 MSTORE PUSH12 0xFFFFFFFFFFFFFFFFFFFFFFFF PUSH9 0x10000000000000000 DUP4 DIV DUP2 AND PUSH1 0x20 DUP6 ADD MSTORE PUSH21 0x10000000000000000000000000000000000000000 SWAP1 SWAP3 DIV SWAP1 SWAP2 AND SWAP3 DUP3 ADD SWAP3 SWAP1 SWAP3 MSTORE PUSH1 0xC SLOAD SWAP1 SWAP2 DUP2 GT ISZERO PUSH2 0x2845 JUMPI PUSH2 0x2820 DUP2 PUSH2 0x3D55 JUMP JUMPDEST PUSH8 0xFFFFFFFFFFFFFFFF AND DUP3 MSTORE PUSH1 0x40 DUP3 ADD MLOAD PUSH12 0xFFFFFFFFFFFFFFFFFFFFFFFF AND PUSH1 0x20 DUP4 ADD MSTORE JUMPDEST POP SWAP2 SWAP1 POP JUMP JUMPDEST PUSH1 0x0 DUP2 DUP4 LT PUSH2 0x285A JUMPI DUP2 PUSH2 0x1214 JUMP JUMPDEST POP SWAP1 SWAP2 SWAP1 POP JUMP JUMPDEST PUSH1 0x40 DUP1 MLOAD PUSH1 0x24 DUP2 ADD DUP5 SWAP1 MSTORE PUSH1 0x44 DUP1 DUP3 ADD DUP5 SWAP1 MSTORE DUP3 MLOAD DUP1 DUP4 SUB SWAP1 SWAP2 ADD DUP2 MSTORE PUSH1 0x64 SWAP1 SWAP2 ADD SWAP1 SWAP2 MSTORE PUSH1 0x20 DUP2 ADD DUP1 MLOAD PUSH28 0xFFFFFFFFFFFFFFFFFFFFFFFFFFFFFFFFFFFFFFFFFFFFFFFFFFFFFFFF AND PUSH32 0x84C8B7C900000000000000000000000000000000000000000000000000000000 OR SWAP1 MSTORE SWAP3 SWAP2 POP POP JUMP JUMPDEST PUSH2 0x28DC PUSH2 0x5C90 JUMP JUMPDEST PUSH2 0x28E5 DUP4 PUSH2 0x27A5 JUMP JUMPDEST SWAP1 POP PUSH2 0x290F PUSH2 0x1E5D DUP4 DUP4 PUSH1 0x40 ADD MLOAD PUSH12 0xFFFFFFFFFFFFFFFFFFFFFFFF AND PUSH2 0x256B SWAP1 SWAP2 SWAP1 PUSH4 0xFFFFFFFF AND JUMP JUMPDEST PUSH12 0xFFFFFFFFFFFFFFFFFFFFFFFF SWAP1 DUP2 AND PUSH1 0x40 DUP4 ADD MSTORE PUSH1 0x20 DUP3 ADD MLOAD PUSH2 0x2938 SWAP2 PUSH2 0x1E5D SWAP2 AND DUP5 PUSH2 0x256B JUMP JUMPDEST PUSH12 0xFFFFFFFFFFFFFFFFFFFFFFFF AND PUSH1 0x20 DUP3 ADD MSTORE PUSH2 0x1186 DUP4 DUP3 PUSH2 0x3D75 JUMP JUMPDEST PUSH1 0x0 DUP2 DUP2 MSTORE PUSH1 0xA PUSH1 0x20 MSTORE PUSH1 0x40 SWAP1 KECCAK256 SLOAD PUSH20 0xFFFFFFFFFFFFFFFFFFFFFFFFFFFFFFFFFFFFFFFF AND CALLER DUP2 EQ PUSH2 0x1701 JUMPI PUSH2 0x1701 PUSH2 0x9C4 CALLER DUP5 PUSH2 0x3E2F JUMP JUMPDEST PUSH1 0x0 SLOAD PUSH20 0xFFFFFFFFFFFFFFFFFFFFFFFFFFFFFFFFFFFFFFFF AND CALLER EQ PUSH2 0x1D59 JUMPI PUSH1 0x0 SLOAD PUSH2 0x1D59 SWAP1 PUSH2 0x9C4 SWAP1 CALLER SWAP1 PUSH20 0xFFFFFFFFFFFFFFFFFFFFFFFFFFFFFFFFFFFFFFFF AND PUSH2 0x3EB7 JUMP JUMPDEST PUSH20 0xFFFFFFFFFFFFFFFFFFFFFFFFFFFFFFFFFFFFFFFF DUP2 AND PUSH2 0x29FB JUMPI PUSH2 0x29FB PUSH2 0x9C4 PUSH2 0x3F43 JUMP JUMPDEST PUSH20 0xFFFFFFFFFFFFFFFFFFFFFFFFFFFFFFFFFFFFFFFF DUP2 AND PUSH1 0x0 SWAP1 DUP2 MSTORE PUSH1 0x1 PUSH1 0x20 MSTORE PUSH1 0x40 SWAP1 KECCAK256 SLOAD PUSH1 0xFF AND ISZERO PUSH2 0x2A35 JUMPI PUSH2 0x2A35 PUSH2 0x9C4 DUP3 PUSH2 0x3F7A JUMP JUMPDEST PUSH20 0xFFFFFFFFFFFFFFFFFFFFFFFFFFFFFFFFFFFFFFFF DUP2 AND PUSH1 0x0 DUP2 DUP2 MSTORE PUSH1 0x1 PUSH1 0x20 DUP2 SWAP1 MSTORE PUSH1 0x40 DUP1 DUP4 KECCAK256 DUP1 SLOAD PUSH32 0xFFFFFFFFFFFFFFFFFFFFFFFFFFFFFFFFFFFFFFFFFFFFFFFFFFFFFFFFFFFFFF00 AND DUP4 OR SWAP1 SSTORE PUSH1 0x2 DUP1 SLOAD SWAP3 DUP4 ADD DUP2 SSTORE DUP4 MSTORE PUSH32 0x405787FA12A823E0F2B7631CC41B3BA8828B3321CA811111FA75CD3AA3BB5ACE SWAP1 SWAP2 ADD DUP1 SLOAD PUSH32 0xFFFFFFFFFFFFFFFFFFFFFFFF0000000000000000000000000000000000000000 AND DUP5 OR SWAP1 SSTORE MLOAD CALLER SWAP3 SWAP2 PUSH32 0x3147867C59D17E8FA9D522465651D44AAE0A9E38F902F3475B97E58072F0ED4C SWAP2 LOG3 POP JUMP JUMPDEST PUSH2 0x2B0F DUP4 PUSH2 0x3FFD JUMP JUMPDEST PUSH2 0x2B19 DUP4 DUP4 PUSH2 0x31BD JUMP JUMPDEST PUSH20 0xFFFFFFFFFFFFFFFFFFFFFFFFFFFFFFFFFFFFFFFF DUP3 AND PUSH1 0x0 SWAP1 DUP2 MSTORE PUSH1 0x6 PUSH1 0x20 SWAP1 DUP2 MSTORE PUSH1 0x40 DUP1 DUP4 KECCAK256 DUP7 DUP5 MSTORE SWAP1 SWAP2 MSTORE SWAP1 KECCAK256 PUSH2 0x2B53 SWAP1 DUP3 PUSH2 0x4034 JUMP JUMPDEST PUSH1 0x0 DUP4 DUP2 MSTORE PUSH1 0x7 PUSH1 0x20 MSTORE PUSH1 0x40 SWAP1 KECCAK256 PUSH2 0x2B6B SWAP1 DUP3 PUSH2 0x4034 JUMP JUMPDEST PUSH1 0x1 PUSH1 0x0 MSTORE PUSH1 0x4 PUSH1 0x20 MSTORE PUSH2 0x1186 PUSH32 0xABD6E7CB50984FF9C2F3E18A2660C3353DADF4E3291DEEB275DAE2CD1E44FE05 DUP3 PUSH2 0x4034 JUMP JUMPDEST PUSH2 0x2BA8 DUP4 PUSH2 0x3FFD JUMP JUMPDEST PUSH2 0x2BB2 DUP4 DUP4 PUSH2 0x31BD JUMP JUMPDEST PUSH20 0xFFFFFFFFFFFFFFFFFFFFFFFFFFFFFFFFFFFFFFFF DUP3 AND PUSH1 0x0 SWAP1 DUP2 MSTORE PUSH1 0x6 PUSH1 0x20 SWAP1 DUP2 MSTORE PUSH1 0x40 DUP1 DUP4 KECCAK256 DUP7 DUP5 MSTORE SWAP1 SWAP2 MSTORE SWAP1 KECCAK256 PUSH2 0x2BEC SWAP1 DUP3 PUSH2 0x408C JUMP JUMPDEST PUSH1 0x0 DUP4 DUP2 MSTORE PUSH1 0x7 PUSH1 0x20 MSTORE PUSH1 0x40 SWAP1 KECCAK256 PUSH2 0x2C04 SWAP1 DUP3 PUSH2 0x408C JUMP JUMPDEST PUSH1 0x1 PUSH1 0x0 MSTORE PUSH1 0x4 PUSH1 0x20 MSTORE PUSH2 0x1186 PUSH32 0xABD6E7CB50984FF9C2F3E18A2660C3353DADF4E3291DEEB275DAE2CD1E44FE05 DUP3 PUSH2 0x408C JUMP JUMPDEST PUSH2 0x2C42 DUP4 DUP4 PUSH2 0x40C7 JUMP JUMPDEST ISZERO PUSH2 0x2C4C JUMPI PUSH2 0x1186 JUMP JUMPDEST PUSH2 0x2C54 PUSH2 0x5C90 JUMP JUMPDEST PUSH2 0x2C5D DUP5 PUSH2 0x27A5 JUMP JUMPDEST SWAP1 POP PUSH2 0x2C67 PUSH2 0x5C90 JUMP JUMPDEST PUSH2 0x2C70 DUP5 PUSH2 0x27A5 JUMP JUMPDEST SWAP1 POP DUP2 PUSH1 0x40 ADD MLOAD PUSH12 0xFFFFFFFFFFFFFFFFFFFFFFFF AND DUP4 GT ISZERO PUSH2 0x2CAB JUMPI PUSH2 0x2CAB PUSH2 0x9C4 DUP5 DUP5 PUSH1 0x40 ADD MLOAD PUSH12 0xFFFFFFFFFFFFFFFFFFFFFFFF AND PUSH2 0x2861 JUMP JUMPDEST PUSH1 0x40 DUP3 ADD MLOAD PUSH2 0x2CCC SWAP1 PUSH2 0x1E5D SWAP1 PUSH12 0xFFFFFFFFFFFFFFFFFFFFFFFF AND DUP6 PUSH2 0x256B JUMP JUMPDEST PUSH12 0xFFFFFFFFFFFFFFFFFFFFFFFF SWAP1 DUP2 AND PUSH1 0x40 DUP1 DUP6 ADD SWAP2 SWAP1 SWAP2 MSTORE DUP3 ADD MLOAD PUSH2 0x2CF7 SWAP2 PUSH2 0x1E5D SWAP2 AND DUP6 PUSH2 0x31A1 JUMP JUMPDEST PUSH12 0xFFFFFFFFFFFFFFFFFFFFFFFF AND PUSH1 0x40 DUP3 ADD MSTORE PUSH2 0x2D14 DUP6 DUP4 PUSH2 0x3D75 JUMP JUMPDEST PUSH2 0x2D1E DUP5 DUP3 PUSH2 0x3D75 JUMP JUMPDEST POP POP POP POP POP JUMP JUMPDEST PUSH3 0xF4240 PUSH4 0xFFFFFFFF DUP3 AND GT ISZERO PUSH2 0x2D4A JUMPI PUSH2 0x2D45 PUSH2 0x9C4 PUSH1 0x0 DUP6 DUP5 PUSH2 0x40CE JUMP JUMPDEST PUSH2 0x1186 JUMP JUMPDEST DUP2 PUSH4 0xFFFFFFFF AND DUP2 PUSH4 0xFFFFFFFF AND GT ISZERO PUSH2 0x1186 JUMPI PUSH2 0x1186 PUSH2 0x9C4 PUSH1 0x1 DUP6 DUP5 PUSH2 0x40CE JUMP JUMPDEST PUSH1 0x40 DUP1 MLOAD PUSH20 0xFFFFFFFFFFFFFFFFFFFFFFFFFFFFFFFFFFFFFFFF DUP4 AND PUSH1 0x24 DUP1 DUP4 ADD SWAP2 SWAP1 SWAP2 MSTORE DUP3 MLOAD DUP1 DUP4 SUB SWAP1 SWAP2 ADD DUP2 MSTORE PUSH1 0x44 SWAP1 SWAP2 ADD SWAP1 SWAP2 MSTORE PUSH1 0x20 DUP2 ADD DUP1 MLOAD PUSH28 0xFFFFFFFFFFFFFFFFFFFFFFFFFFFFFFFFFFFFFFFFFFFFFFFFFFFFFFFF AND PUSH32 0xEB5108A200000000000000000000000000000000000000000000000000000000 OR SWAP1 MSTORE SWAP2 SWAP1 POP JUMP JUMPDEST PUSH20 0xFFFFFFFFFFFFFFFFFFFFFFFFFFFFFFFFFFFFFFFF DUP3 AND PUSH1 0x0 SWAP1 DUP2 MSTORE PUSH1 0x1 PUSH1 0x20 MSTORE PUSH1 0x40 SWAP1 KECCAK256 SLOAD PUSH1 0xFF AND PUSH2 0x2E29 JUMPI PUSH2 0x2E29 PUSH2 0x9C4 DUP4 PUSH2 0x2D6D JUMP JUMPDEST PUSH1 0x2 SLOAD DUP2 LT PUSH2 0x2E44 JUMPI PUSH2 0x2E44 PUSH2 0x9C4 DUP3 PUSH1 0x2 DUP1 SLOAD SWAP1 POP PUSH2 0x4170 JUMP JUMPDEST DUP2 PUSH20 0xFFFFFFFFFFFFFFFFFFFFFFFFFFFFFFFFFFFFFFFF AND PUSH1 0x2 DUP3 DUP2 SLOAD DUP2 LT PUSH2 0x2E68 JUMPI INVALID JUMPDEST PUSH1 0x0 SWAP2 DUP3 MSTORE PUSH1 0x20 SWAP1 SWAP2 KECCAK256 ADD SLOAD PUSH20 0xFFFFFFFFFFFFFFFFFFFFFFFFFFFFFFFFFFFFFFFF AND EQ PUSH2 0x2ECA JUMPI PUSH2 0x2ECA PUSH2 0x9C4 PUSH1 0x2 DUP4 DUP2 SLOAD DUP2 LT PUSH2 0x2EA2 JUMPI INVALID JUMPDEST PUSH1 0x0 SWAP2 DUP3 MSTORE PUSH1 0x20 SWAP1 SWAP2 KECCAK256 ADD SLOAD PUSH20 0xFFFFFFFFFFFFFFFFFFFFFFFFFFFFFFFFFFFFFFFF AND DUP5 PUSH2 0x41E3 JUMP JUMPDEST PUSH20 0xFFFFFFFFFFFFFFFFFFFFFFFFFFFFFFFFFFFFFFFF DUP3 AND PUSH1 0x0 SWAP1 DUP2 MSTORE PUSH1 0x1 PUSH1 0x20 MSTORE PUSH1 0x40 SWAP1 KECCAK256 DUP1 SLOAD PUSH32 0xFFFFFFFFFFFFFFFFFFFFFFFFFFFFFFFFFFFFFFFFFFFFFFFFFFFFFFFFFFFFFF00 AND SWAP1 SSTORE PUSH1 0x2 DUP1 SLOAD PUSH32 0xFFFFFFFFFFFFFFFFFFFFFFFFFFFFFFFFFFFFFFFFFFFFFFFFFFFFFFFFFFFFFFFF DUP2 ADD SWAP1 DUP2 LT PUSH2 0x2F45 JUMPI INVALID JUMPDEST PUSH1 0x0 SWAP2 DUP3 MSTORE PUSH1 0x20 SWAP1 SWAP2 KECCAK256 ADD SLOAD PUSH1 0x2 DUP1 SLOAD PUSH20 0xFFFFFFFFFFFFFFFFFFFFFFFFFFFFFFFFFFFFFFFF SWAP1 SWAP3 AND SWAP2 DUP4 SWAP1 DUP2 LT PUSH2 0x2F78 JUMPI INVALID JUMPDEST SWAP1 PUSH1 0x0 MSTORE PUSH1 0x20 PUSH1 0x0 KECCAK256 ADD PUSH1 0x0 PUSH2 0x100 EXP DUP2 SLOAD DUP2 PUSH20 0xFFFFFFFFFFFFFFFFFFFFFFFFFFFFFFFFFFFFFFFF MUL NOT AND SWAP1 DUP4 PUSH20 0xFFFFFFFFFFFFFFFFFFFFFFFFFFFFFFFFFFFFFFFF AND MUL OR SWAP1 SSTORE POP PUSH1 0x2 DUP1 SLOAD DUP1 PUSH2 0x2FCB JUMPI INVALID JUMPDEST PUSH1 0x0 DUP3 DUP2 MSTORE PUSH1 0x20 DUP2 KECCAK256 DUP3 ADD PUSH32 0xFFFFFFFFFFFFFFFFFFFFFFFFFFFFFFFFFFFFFFFFFFFFFFFFFFFFFFFFFFFFFFFF SWAP1 DUP2 ADD DUP1 SLOAD PUSH32 0xFFFFFFFFFFFFFFFFFFFFFFFF0000000000000000000000000000000000000000 AND SWAP1 SSTORE SWAP1 SWAP2 ADD SWAP1 SWAP2 SSTORE PUSH1 0x40 MLOAD CALLER SWAP2 PUSH20 0xFFFFFFFFFFFFFFFFFFFFFFFFFFFFFFFFFFFFFFFF DUP6 AND SWAP2 PUSH32 0x1F32C1B084E2DE0713B8FB16BD46BB9DF710A3DBEAE2F3CA93AF46E016DCC6B0 SWAP2 SWAP1 LOG3 POP POP JUMP JUMPDEST PUSH1 0x11 DUP6 SWAP1 SSTORE PUSH1 0x12 DUP1 SLOAD PUSH4 0xFFFFFFFF DUP1 DUP8 AND PUSH32 0xFFFFFFFFFFFFFFFFFFFFFFFFFFFFFFFFFFFFFFFFFFFFFFFFFFFFFFFF00000000 SWAP3 DUP4 AND DUP2 OR SWAP1 SWAP4 SSTORE PUSH1 0x13 DUP7 SWAP1 SSTORE PUSH1 0x14 DUP1 SLOAD DUP6 DUP4 AND PUSH5 0x100000000 DUP2 MUL PUSH32 0xFFFFFFFFFFFFFFFFFFFFFFFFFFFFFFFFFFFFFFFFFFFFFFFF00000000FFFFFFFF SWAP5 DUP10 AND SWAP3 SWAP1 SWAP6 AND DUP3 OR SWAP4 SWAP1 SWAP4 AND SWAP4 SWAP1 SWAP4 OR SWAP1 SSTORE PUSH1 0x40 DUP1 MLOAD DUP10 DUP2 MSTORE PUSH1 0x20 DUP2 ADD SWAP5 SWAP1 SWAP5 MSTORE DUP4 DUP2 ADD DUP8 SWAP1 MSTORE PUSH1 0x60 DUP5 ADD SWAP3 SWAP1 SWAP3 MSTORE PUSH1 0x80 DUP4 ADD MSTORE MLOAD PUSH32 0x613157DBB0E920DEAB8AD6DDD3805E87CBF57344B9FE780F1764790EC7897542 SWAP2 DUP2 SWAP1 SUB PUSH1 0xA0 ADD SWAP1 LOG1 POP POP POP POP POP JUMP JUMPDEST PUSH2 0x3149 PUSH2 0x5C90 JUMP JUMPDEST PUSH2 0x3152 DUP4 PUSH2 0x27A5 JUMP JUMPDEST SWAP1 POP PUSH2 0x317C PUSH2 0x1E5D DUP4 DUP4 PUSH1 0x40 ADD MLOAD PUSH12 0xFFFFFFFFFFFFFFFFFFFFFFFF AND PUSH2 0x31A1 SWAP1 SWAP2 SWAP1 PUSH4 0xFFFFFFFF AND JUMP JUMPDEST PUSH12 0xFFFFFFFFFFFFFFFFFFFFFFFF SWAP1 DUP2 AND PUSH1 0x40 DUP4 ADD MSTORE PUSH1 0x20 DUP3 ADD MLOAD PUSH2 0x2938 SWAP2 PUSH2 0x1E5D SWAP2 AND DUP5 JUMPDEST PUSH1 0x0 DUP3 DUP3 ADD DUP4 DUP2 LT ISZERO PUSH2 0x1214 JUMPI PUSH2 0x1214 PUSH2 0x9C4 PUSH1 0x0 DUP7 DUP7 PUSH2 0x3BC3 JUMP JUMPDEST PUSH2 0x31C6 DUP3 PUSH2 0x426F JUMP JUMPDEST PUSH1 0x0 PUSH2 0x31D5 DUP4 DUP4 PUSH1 0x0 DUP1 PUSH2 0x3480 JUMP JUMPDEST PUSH20 0xFFFFFFFFFFFFFFFFFFFFFFFFFFFFFFFFFFFFFFFF DUP4 AND PUSH1 0x0 SWAP1 DUP2 MSTORE PUSH1 0x6 PUSH1 0x20 SWAP1 DUP2 MSTORE PUSH1 0x40 DUP1 DUP4 KECCAK256 DUP8 DUP5 MSTORE SWAP1 SWAP2 MSTORE SWAP1 KECCAK256 SWAP1 SWAP2 POP PUSH2 0x3211 SWAP1 PUSH2 0x27A5 JUMP JUMPDEST PUSH20 0xFFFFFFFFFFFFFFFFFFFFFFFFFFFFFFFFFFFFFFFF DUP4 DUP2 AND PUSH1 0x0 SWAP1 DUP2 MSTORE PUSH1 0x6 PUSH1 0x20 SWAP1 DUP2 MSTORE PUSH1 0x40 DUP1 DUP4 KECCAK256 DUP9 DUP5 MSTORE DUP3 MSTORE SWAP2 DUP3 SWAP1 KECCAK256 DUP5 MLOAD DUP2 SLOAD SWAP3 DUP7 ADD MLOAD SWAP6 SWAP1 SWAP4 ADD MLOAD PUSH32 0xFFFFFFFFFFFFFFFFFFFFFFFFFFFFFFFFFFFFFFFFFFFFFFFF0000000000000000 SWAP1 SWAP3 AND PUSH8 0xFFFFFFFFFFFFFFFF SWAP1 SWAP4 AND SWAP3 SWAP1 SWAP3 OR PUSH32 0xFFFFFFFFFFFFFFFFFFFFFFFF000000000000000000000000FFFFFFFFFFFFFFFF AND PUSH9 0x10000000000000000 PUSH12 0xFFFFFFFFFFFFFFFFFFFFFFFF SWAP6 DUP7 AND MUL OR SWAP1 SWAP3 AND PUSH21 0x10000000000000000000000000000000000000000 SWAP4 SWAP1 SWAP3 AND SWAP3 SWAP1 SWAP3 MUL OR SWAP1 SSTORE DUP1 ISZERO PUSH2 0x338C JUMPI PUSH2 0x32F6 DUP4 DUP3 PUSH2 0x4278 JUMP JUMPDEST PUSH2 0x32FE PUSH2 0x2104 JUMP JUMPDEST PUSH20 0xFFFFFFFFFFFFFFFFFFFFFFFFFFFFFFFFFFFFFFFF AND PUSH4 0xA9059CBB DUP4 DUP4 PUSH1 0x40 MLOAD DUP4 PUSH4 0xFFFFFFFF AND PUSH1 0xE0 SHL DUP2 MSTORE PUSH1 0x4 ADD PUSH2 0x3338 SWAP3 SWAP2 SWAP1 PUSH2 0x6136 JUMP JUMPDEST PUSH1 0x20 PUSH1 0x40 MLOAD DUP1 DUP4 SUB DUP2 PUSH1 0x0 DUP8 DUP1 EXTCODESIZE ISZERO DUP1 ISZERO PUSH2 0x3352 JUMPI PUSH1 0x0 DUP1 REVERT JUMPDEST POP GAS CALL ISZERO DUP1 ISZERO PUSH2 0x3366 JUMPI RETURNDATASIZE PUSH1 0x0 DUP1 RETURNDATACOPY RETURNDATASIZE PUSH1 0x0 REVERT JUMPDEST POP POP POP POP PUSH1 0x40 MLOAD RETURNDATASIZE PUSH1 0x1F NOT PUSH1 0x1F DUP3 ADD AND DUP3 ADD DUP1 PUSH1 0x40 MSTORE POP DUP2 ADD SWAP1 PUSH2 0x338A SWAP2 SWAP1 PUSH2 0x5F4F JUMP JUMPDEST POP JUMPDEST PUSH2 0x1186 DUP4 PUSH2 0x42B4 JUMP JUMPDEST PUSH1 0x0 DUP1 PUSH2 0x33A1 DUP4 PUSH2 0x42C1 JUMP JUMPDEST SWAP1 SWAP5 SWAP1 SWAP4 POP SWAP2 POP POP JUMP JUMPDEST PUSH1 0x0 DUP1 DUP3 PUSH2 0x33BB JUMPI DUP4 SWAP2 POP PUSH2 0x33DE JUMP JUMPDEST PUSH2 0x33CF PUSH4 0xFFFFFFFF DUP7 AND PUSH3 0xF4240 DUP7 PUSH2 0x42CD JUMP JUMPDEST SWAP2 POP PUSH2 0x33DB DUP5 DUP4 PUSH2 0x256B JUMP JUMPDEST SWAP1 POP JUMPDEST SWAP4 POP SWAP4 SWAP2 POP POP JUMP JUMPDEST PUSH1 0x0 DUP2 DUP2 MSTORE PUSH1 0xA PUSH1 0x20 MSTORE PUSH1 0x40 SWAP1 KECCAK256 SLOAD PUSH20 0xFFFFFFFFFFFFFFFFFFFFFFFFFFFFFFFFFFFFFFFF AND ISZERO PUSH2 0x11BB JUMPI PUSH2 0x11BB PUSH2 0x9C4 DUP3 PUSH1 0x0 PUSH2 0x42F1 JUMP JUMPDEST PUSH2 0x3426 PUSH2 0x4365 JUMP JUMPDEST TIMESTAMP PUSH1 0xD SSTORE PUSH1 0x1 PUSH1 0xC SSTORE JUMP JUMPDEST PUSH2 0x3439 PUSH2 0x437A JUMP JUMPDEST PUSH3 0x127500 PUSH3 0xDBBA0 PUSH9 0x56BC75E2D63100000 PUSH1 0x2 PUSH1 0x3 PUSH2 0x2D1E DUP6 DUP6 DUP6 DUP6 DUP6 PUSH2 0x306B JUMP JUMPDEST DUP1 PUSH12 0xFFFFFFFFFFFFFFFFFFFFFFFF DUP2 AND DUP2 EQ PUSH2 0xD3D JUMPI PUSH2 0xD3D PUSH2 0x9C4 PUSH1 0x2 DUP5 PUSH2 0x43DF JUMP JUMPDEST PUSH1 0xC SLOAD PUSH1 0x0 SWAP1 PUSH2 0x348E PUSH2 0x5C90 JUMP JUMPDEST POP PUSH20 0xFFFFFFFFFFFFFFFFFFFFFFFFFFFFFFFFFFFFFFFF DUP6 AND PUSH1 0x0 SWAP1 DUP2 MSTORE PUSH1 0x6 PUSH1 0x20 SWAP1 DUP2 MSTORE PUSH1 0x40 DUP1 DUP4 KECCAK256 DUP10 DUP5 MSTORE DUP3 MSTORE SWAP2 DUP3 SWAP1 KECCAK256 DUP3 MLOAD PUSH1 0x60 DUP2 ADD DUP5 MSTORE SWAP1 SLOAD PUSH8 0xFFFFFFFFFFFFFFFF DUP2 AND DUP1 DUP4 MSTORE PUSH12 0xFFFFFFFFFFFFFFFFFFFFFFFF PUSH9 0x10000000000000000 DUP4 DIV DUP2 AND SWAP5 DUP5 ADD SWAP5 SWAP1 SWAP5 MSTORE PUSH21 0x10000000000000000000000000000000000000000 SWAP1 SWAP2 DIV SWAP1 SWAP3 AND SWAP3 DUP2 ADD SWAP3 SWAP1 SWAP3 MSTORE DUP3 EQ ISZERO PUSH2 0x352F JUMPI PUSH1 0x0 SWAP3 POP POP POP PUSH2 0x35B9 JUMP JUMPDEST PUSH2 0x353B DUP2 DUP4 DUP8 DUP8 PUSH2 0x4471 JUMP JUMPDEST DUP2 MLOAD SWAP1 SWAP4 POP PUSH1 0x0 SWAP1 PUSH2 0x3558 SWAP1 PUSH8 0xFFFFFFFFFFFFFFFF AND PUSH1 0x1 PUSH2 0x31A1 JUMP JUMPDEST SWAP1 POP PUSH2 0x3590 PUSH2 0x3589 DUP10 DUP5 PUSH1 0x20 ADD MLOAD PUSH12 0xFFFFFFFFFFFFFFFFFFFFFFFF AND DUP6 PUSH1 0x0 ADD MLOAD PUSH8 0xFFFFFFFFFFFFFFFF AND DUP6 PUSH2 0x44EE JUMP JUMPDEST DUP6 SWAP1 PUSH2 0x31A1 JUMP JUMPDEST SWAP4 POP PUSH2 0x35B3 PUSH2 0x3589 DUP10 DUP5 PUSH1 0x40 ADD MLOAD PUSH12 0xFFFFFFFFFFFFFFFFFFFFFFFF AND DUP5 DUP8 PUSH2 0x44EE JUMP JUMPDEST SWAP4 POP POP POP POP JUMPDEST SWAP5 SWAP4 POP POP POP POP JUMP JUMPDEST PUSH1 0x40 DUP1 MLOAD PUSH20 0xFFFFFFFFFFFFFFFFFFFFFFFFFFFFFFFFFFFFFFFF DUP4 AND PUSH1 0x24 DUP1 DUP4 ADD SWAP2 SWAP1 SWAP2 MSTORE DUP3 MLOAD DUP1 DUP4 SUB SWAP1 SWAP2 ADD DUP2 MSTORE PUSH1 0x44 SWAP1 SWAP2 ADD SWAP1 SWAP2 MSTORE PUSH1 0x20 DUP2 ADD DUP1 MLOAD PUSH28 0xFFFFFFFFFFFFFFFFFFFFFFFFFFFFFFFFFFFFFFFFFFFFFFFFFFFFFFFF AND PUSH32 0xB56D2DF000000000000000000000000000000000000000000000000000000000 OR SWAP1 MSTORE SWAP2 SWAP1 POP JUMP JUMPDEST PUSH1 0x0 DUP3 DUP2 MSTORE PUSH1 0xA PUSH1 0x20 MSTORE PUSH1 0x40 DUP2 KECCAK256 SLOAD DUP2 SWAP1 DUP2 SWAP1 PUSH2 0x3677 SWAP1 PUSH20 0xFFFFFFFFFFFFFFFFFFFFFFFFFFFFFFFFFFFFFFFF AND DUP7 PUSH2 0x211C JUMP JUMPDEST PUSH1 0x20 ADD MLOAD PUSH12 0xFFFFFFFFFFFFFFFFFFFFFFFF AND SWAP1 POP PUSH2 0x3695 DUP5 DUP3 PUSH2 0x256B JUMP JUMPDEST PUSH1 0x12 SLOAD SWAP1 SWAP4 POP PUSH2 0x36BA SWAP1 PUSH2 0x36B3 SWAP1 PUSH4 0xFFFFFFFF AND PUSH3 0xF4240 DUP7 PUSH2 0x4587 JUMP JUMPDEST DUP3 SWAP1 PUSH2 0x31A1 JUMP JUMPDEST SWAP2 POP POP SWAP3 POP SWAP3 SWAP1 POP JUMP JUMPDEST PUSH1 0x40 DUP1 MLOAD DUP1 DUP3 ADD SWAP1 SWAP2 MSTORE PUSH1 0x4 DUP2 MSTORE PUSH32 0xE69EDC3E00000000000000000000000000000000000000000000000000000000 PUSH1 0x20 DUP3 ADD MSTORE SWAP1 JUMP JUMPDEST EXTCODESIZE ISZERO ISZERO SWAP1 JUMP JUMPDEST DUP2 MLOAD PUSH1 0x0 SWAP1 PUSH2 0x370F JUMPI PUSH2 0x1217 JUMP JUMPDEST PUSH1 0x0 PUSH2 0x3719 PUSH2 0x2104 JUMP JUMPDEST PUSH20 0xFFFFFFFFFFFFFFFFFFFFFFFFFFFFFFFFFFFFFFFF AND PUSH4 0x7546172 PUSH1 0x40 MLOAD DUP2 PUSH4 0xFFFFFFFF AND PUSH1 0xE0 SHL DUP2 MSTORE PUSH1 0x4 ADD PUSH1 0x20 PUSH1 0x40 MLOAD DUP1 DUP4 SUB DUP2 DUP7 DUP1 EXTCODESIZE ISZERO DUP1 ISZERO PUSH2 0x375E JUMPI PUSH1 0x0 DUP1 REVERT JUMPDEST POP GAS STATICCALL ISZERO DUP1 ISZERO PUSH2 0x3772 JUMPI RETURNDATASIZE PUSH1 0x0 DUP1 RETURNDATACOPY RETURNDATASIZE PUSH1 0x0 REVERT JUMPDEST POP POP POP POP PUSH1 0x40 MLOAD RETURNDATASIZE PUSH1 0x1F NOT PUSH1 0x1F DUP3 ADD AND DUP3 ADD DUP1 PUSH1 0x40 MSTORE POP DUP2 ADD SWAP1 PUSH2 0x3796 SWAP2 SWAP1 PUSH2 0x5E1D JUMP JUMPDEST PUSH20 0xFFFFFFFFFFFFFFFFFFFFFFFFFFFFFFFFFFFFFFFF AND PUSH4 0x57A15C03 DUP6 PUSH1 0x20 ADD MLOAD PUSH1 0x40 MLOAD DUP3 PUSH4 0xFFFFFFFF AND PUSH1 0xE0 SHL DUP2 MSTORE PUSH1 0x4 ADD PUSH2 0x37D2 SWAP2 SWAP1 PUSH2 0x61C1 JUMP JUMPDEST PUSH1 0x20 PUSH1 0x40 MLOAD DUP1 DUP4 SUB DUP2 DUP7 DUP1 EXTCODESIZE ISZERO DUP1 ISZERO PUSH2 0x37EA JUMPI PUSH1 0x0 DUP1 REVERT JUMPDEST POP GAS STATICCALL ISZERO DUP1 ISZERO PUSH2 0x37FE JUMPI RETURNDATASIZE PUSH1 0x0 DUP1 RETURNDATACOPY RETURNDATASIZE PUSH1 0x0 REVERT JUMPDEST POP POP POP POP PUSH1 0x40 MLOAD RETURNDATASIZE PUSH1 0x1F NOT PUSH1 0x1F DUP3 ADD AND DUP3 ADD DUP1 PUSH1 0x40 MSTORE POP DUP2 ADD SWAP1 PUSH2 0x3822 SWAP2 SWAP1 PUSH2 0x6050 JUMP JUMPDEST DUP5 MLOAD PUSH1 0x20 DUP7 ADD MLOAD PUSH1 0x60 DUP7 ADD MLOAD PUSH1 0x14 SLOAD SWAP4 SWAP5 POP PUSH2 0x3856 SWAP4 DUP6 SWAP4 SWAP3 DUP5 SWAP3 SWAP1 SWAP2 PUSH4 0xFFFFFFFF DUP1 DUP3 AND SWAP2 PUSH5 0x100000000 SWAP1 DIV AND PUSH2 0x4597 JUMP JUMPDEST PUSH1 0x80 DUP5 ADD MLOAD DUP5 MLOAD SWAP2 SWAP4 POP PUSH1 0x0 SWAP2 PUSH2 0x386C SWAP2 PUSH2 0x256B JUMP JUMPDEST SWAP1 POP DUP3 DUP2 LT ISZERO PUSH2 0x387A JUMPI DUP1 SWAP3 POP JUMPDEST POP POP SWAP3 SWAP2 POP POP JUMP JUMPDEST PUSH1 0x0 DUP1 PUSH2 0x388D PUSH2 0x5CD1 JUMP JUMPDEST POP PUSH1 0x0 DUP6 DUP2 MSTORE PUSH1 0xA PUSH1 0x20 SWAP1 DUP2 MSTORE PUSH1 0x40 SWAP2 DUP3 SWAP1 KECCAK256 DUP3 MLOAD PUSH1 0x80 DUP2 ADD DUP5 MSTORE DUP2 SLOAD PUSH20 0xFFFFFFFFFFFFFFFFFFFFFFFFFFFFFFFFFFFFFFFF SWAP1 DUP2 AND DUP3 MSTORE PUSH1 0x1 SWAP1 SWAP3 ADD SLOAD SWAP2 DUP3 AND SWAP3 DUP2 ADD SWAP3 SWAP1 SWAP3 MSTORE PUSH4 0xFFFFFFFF PUSH21 0x10000000000000000000000000000000000000000 DUP3 DIV DUP2 AND SWAP4 DUP4 ADD DUP5 SWAP1 MSTORE PUSH25 0x1000000000000000000000000000000000000000000000000 SWAP1 SWAP2 DIV AND PUSH1 0x60 DUP3 ADD MSTORE SWAP1 PUSH2 0x3928 SWAP1 DUP7 DUP7 PUSH2 0x33AB JUMP JUMPDEST SWAP1 SWAP4 POP SWAP2 POP DUP3 ISZERO PUSH2 0x3B9F JUMPI DUP1 PUSH1 0x20 ADD MLOAD PUSH20 0xFFFFFFFFFFFFFFFFFFFFFFFFFFFFFFFFFFFFFFFF AND DUP2 PUSH1 0x0 ADD MLOAD PUSH20 0xFFFFFFFFFFFFFFFFFFFFFFFFFFFFFFFFFFFFFFFF AND EQ ISZERO PUSH2 0x3A25 JUMPI PUSH2 0x3977 PUSH2 0x2104 JUMP JUMPDEST DUP2 MLOAD PUSH1 0x40 MLOAD PUSH32 0xA9059CBB00000000000000000000000000000000000000000000000000000000 DUP2 MSTORE PUSH20 0xFFFFFFFFFFFFFFFFFFFFFFFFFFFFFFFFFFFFFFFF SWAP3 SWAP1 SWAP3 AND SWAP2 PUSH4 0xA9059CBB SWAP2 PUSH2 0x39CD SWAP2 DUP8 SWAP1 PUSH1 0x4 ADD PUSH2 0x6136 JUMP JUMPDEST PUSH1 0x20 PUSH1 0x40 MLOAD DUP1 DUP4 SUB DUP2 PUSH1 0x0 DUP8 DUP1 EXTCODESIZE ISZERO DUP1 ISZERO PUSH2 0x39E7 JUMPI PUSH1 0x0 DUP1 REVERT JUMPDEST POP GAS CALL ISZERO DUP1 ISZERO PUSH2 0x39FB JUMPI RETURNDATASIZE PUSH1 0x0 DUP1 RETURNDATACOPY RETURNDATASIZE PUSH1 0x0 REVERT JUMPDEST POP POP POP POP PUSH1 0x40 MLOAD RETURNDATASIZE PUSH1 0x1F NOT PUSH1 0x1F DUP3 ADD AND DUP3 ADD DUP1 PUSH1 0x40 MSTORE POP DUP2 ADD SWAP1 PUSH2 0x3A1F SWAP2 SWAP1 PUSH2 0x5F4F JUMP JUMPDEST POP PUSH2 0x3B9F JUMP JUMPDEST PUSH1 0x0 PUSH2 0x3A57 PUSH3 0xF4240 PUSH4 0xFFFFFFFF AND PUSH2 0x3A51 DUP5 PUSH1 0x60 ADD MLOAD PUSH4 0xFFFFFFFF AND DUP8 PUSH2 0x4659 SWAP1 SWAP2 SWAP1 PUSH4 0xFFFFFFFF AND JUMP JUMPDEST SWAP1 PUSH2 0x468A JUMP JUMPDEST SWAP1 POP PUSH2 0x3A61 PUSH2 0x2104 JUMP JUMPDEST PUSH20 0xFFFFFFFFFFFFFFFFFFFFFFFFFFFFFFFFFFFFFFFF AND PUSH4 0xA9059CBB DUP4 PUSH1 0x20 ADD MLOAD DUP4 PUSH1 0x40 MLOAD DUP4 PUSH4 0xFFFFFFFF AND PUSH1 0xE0 SHL DUP2 MSTORE PUSH1 0x4 ADD PUSH2 0x3A9F SWAP3 SWAP2 SWAP1 PUSH2 0x6136 JUMP JUMPDEST PUSH1 0x20 PUSH1 0x40 MLOAD DUP1 DUP4 SUB DUP2 PUSH1 0x0 DUP8 DUP1 EXTCODESIZE ISZERO DUP1 ISZERO PUSH2 0x3AB9 JUMPI PUSH1 0x0 DUP1 REVERT JUMPDEST POP GAS CALL ISZERO DUP1 ISZERO PUSH2 0x3ACD JUMPI RETURNDATASIZE PUSH1 0x0 DUP1 RETURNDATACOPY RETURNDATASIZE PUSH1 0x0 REVERT JUMPDEST POP POP POP POP PUSH1 0x40 MLOAD RETURNDATASIZE PUSH1 0x1F NOT PUSH1 0x1F DUP3 ADD AND DUP3 ADD DUP1 PUSH1 0x40 MSTORE POP DUP2 ADD SWAP1 PUSH2 0x3AF1 SWAP2 SWAP1 PUSH2 0x5F4F JUMP JUMPDEST POP PUSH2 0x3AFA PUSH2 0x2104 JUMP JUMPDEST PUSH20 0xFFFFFFFFFFFFFFFFFFFFFFFFFFFFFFFFFFFFFFFF AND PUSH4 0xA9059CBB DUP4 PUSH1 0x0 ADD MLOAD PUSH2 0x3B2D DUP5 DUP9 PUSH2 0x256B SWAP1 SWAP2 SWAP1 PUSH4 0xFFFFFFFF AND JUMP JUMPDEST PUSH1 0x40 MLOAD DUP4 PUSH4 0xFFFFFFFF AND PUSH1 0xE0 SHL DUP2 MSTORE PUSH1 0x4 ADD PUSH2 0x3B4A SWAP3 SWAP2 SWAP1 PUSH2 0x6136 JUMP JUMPDEST PUSH1 0x20 PUSH1 0x40 MLOAD DUP1 DUP4 SUB DUP2 PUSH1 0x0 DUP8 DUP1 EXTCODESIZE ISZERO DUP1 ISZERO PUSH2 0x3B64 JUMPI PUSH1 0x0 DUP1 REVERT JUMPDEST POP GAS CALL ISZERO DUP1 ISZERO PUSH2 0x3B78 JUMPI RETURNDATASIZE PUSH1 0x0 DUP1 RETURNDATACOPY RETURNDATASIZE PUSH1 0x0 REVERT JUMPDEST POP POP POP POP PUSH1 0x40 MLOAD RETURNDATASIZE PUSH1 0x1F NOT PUSH1 0x1F DUP3 ADD AND DUP3 ADD DUP1 PUSH1 0x40 MSTORE POP DUP2 ADD SWAP1 PUSH2 0x3B9C SWAP2 SWAP1 PUSH2 0x5F4F JUMP JUMPDEST POP POP JUMPDEST DUP2 ISZERO PUSH2 0x3BBA JUMPI PUSH2 0x3BAF DUP7 DUP4 PUSH2 0x46B4 JUMP JUMPDEST PUSH2 0x3BBA DUP7 DUP4 DUP7 PUSH2 0x46E9 JUMP JUMPDEST POP SWAP4 POP SWAP4 SWAP2 POP POP JUMP JUMPDEST PUSH1 0x60 PUSH4 0xE946C1BB PUSH1 0xE0 SHL DUP5 DUP5 DUP5 PUSH1 0x40 MLOAD PUSH1 0x24 ADD DUP1 DUP5 PUSH1 0x3 DUP2 GT ISZERO PUSH2 0x3BE3 JUMPI INVALID JUMPDEST DUP2 MSTORE PUSH1 0x20 ADD DUP4 DUP2 MSTORE PUSH1 0x20 ADD DUP3 DUP2 MSTORE PUSH1 0x20 ADD SWAP4 POP POP POP POP PUSH1 0x40 MLOAD PUSH1 0x20 DUP2 DUP4 SUB SUB DUP2 MSTORE SWAP1 PUSH1 0x40 MSTORE SWAP1 PUSH28 0xFFFFFFFFFFFFFFFFFFFFFFFFFFFFFFFFFFFFFFFFFFFFFFFFFFFFFFFF NOT AND PUSH1 0x20 DUP3 ADD DUP1 MLOAD PUSH28 0xFFFFFFFFFFFFFFFFFFFFFFFFFFFFFFFFFFFFFFFFFFFFFFFFFFFFFFFF DUP4 DUP2 DUP4 AND OR DUP4 MSTORE POP POP POP POP SWAP1 POP SWAP4 SWAP3 POP POP POP JUMP JUMPDEST PUSH1 0x40 DUP1 MLOAD PUSH1 0x24 DUP2 ADD DUP5 SWAP1 MSTORE PUSH1 0x44 DUP1 DUP3 ADD DUP5 SWAP1 MSTORE DUP3 MLOAD DUP1 DUP4 SUB SWAP1 SWAP2 ADD DUP2 MSTORE PUSH1 0x64 SWAP1 SWAP2 ADD SWAP1 SWAP2 MSTORE PUSH1 0x20 DUP2 ADD DUP1 MLOAD PUSH28 0xFFFFFFFFFFFFFFFFFFFFFFFFFFFFFFFFFFFFFFFFFFFFFFFFFFFFFFFF AND PUSH32 0xA6BCDE4700000000000000000000000000000000000000000000000000000000 OR SWAP1 MSTORE SWAP3 SWAP2 POP POP JUMP JUMPDEST PUSH1 0x40 DUP1 MLOAD PUSH20 0xFFFFFFFFFFFFFFFFFFFFFFFFFFFFFFFFFFFFFFFF DUP4 AND PUSH1 0x24 DUP1 DUP4 ADD SWAP2 SWAP1 SWAP2 MSTORE DUP3 MLOAD DUP1 DUP4 SUB SWAP1 SWAP2 ADD DUP2 MSTORE PUSH1 0x44 SWAP1 SWAP2 ADD SWAP1 SWAP2 MSTORE PUSH1 0x20 DUP2 ADD DUP1 MLOAD PUSH28 0xFFFFFFFFFFFFFFFFFFFFFFFFFFFFFFFFFFFFFFFFFFFFFFFFFFFFFFFF AND PUSH32 0xB65A25B900000000000000000000000000000000000000000000000000000000 OR SWAP1 MSTORE SWAP2 SWAP1 POP JUMP JUMPDEST DUP1 PUSH8 0xFFFFFFFFFFFFFFFF DUP2 AND DUP2 EQ PUSH2 0xD3D JUMPI PUSH2 0xD3D PUSH2 0x9C4 PUSH1 0x1 DUP5 PUSH2 0x43DF JUMP JUMPDEST DUP1 MLOAD DUP3 SLOAD PUSH1 0x40 DUP4 ADD MLOAD PUSH1 0x20 SWAP1 SWAP4 ADD MLOAD PUSH12 0xFFFFFFFFFFFFFFFFFFFFFFFF SWAP1 DUP2 AND PUSH9 0x10000000000000000 MUL PUSH32 0xFFFFFFFFFFFFFFFFFFFFFFFF000000000000000000000000FFFFFFFFFFFFFFFF SWAP2 SWAP1 SWAP5 AND PUSH21 0x10000000000000000000000000000000000000000 MUL PUSH20 0xFFFFFFFFFFFFFFFFFFFFFFFFFFFFFFFFFFFFFFFF PUSH8 0xFFFFFFFFFFFFFFFF SWAP1 SWAP5 AND PUSH32 0xFFFFFFFFFFFFFFFFFFFFFFFFFFFFFFFFFFFFFFFFFFFFFFFF0000000000000000 SWAP1 SWAP4 AND SWAP3 SWAP1 SWAP3 OR SWAP3 SWAP1 SWAP3 AND OR AND OR SWAP1 SSTORE JUMP JUMPDEST PUSH1 0x40 DUP1 MLOAD PUSH20 0xFFFFFFFFFFFFFFFFFFFFFFFFFFFFFFFFFFFFFFFF DUP5 AND PUSH1 0x24 DUP3 ADD MSTORE PUSH1 0x44 DUP1 DUP3 ADD DUP5 SWAP1 MSTORE DUP3 MLOAD DUP1 DUP4 SUB SWAP1 SWAP2 ADD DUP2 MSTORE PUSH1 0x64 SWAP1 SWAP2 ADD SWAP1 SWAP2 MSTORE PUSH1 0x20 DUP2 ADD DUP1 MLOAD PUSH28 0xFFFFFFFFFFFFFFFFFFFFFFFFFFFFFFFFFFFFFFFFFFFFFFFFFFFFFFFF AND PUSH32 0x82DED78500000000000000000000000000000000000000000000000000000000 OR SWAP1 MSTORE SWAP3 SWAP2 POP POP JUMP JUMPDEST PUSH1 0x40 DUP1 MLOAD PUSH20 0xFFFFFFFFFFFFFFFFFFFFFFFFFFFFFFFFFFFFFFFF DUP1 DUP6 AND PUSH1 0x24 DUP4 ADD MSTORE DUP4 AND PUSH1 0x44 DUP1 DUP4 ADD SWAP2 SWAP1 SWAP2 MSTORE DUP3 MLOAD DUP1 DUP4 SUB SWAP1 SWAP2 ADD DUP2 MSTORE PUSH1 0x64 SWAP1 SWAP2 ADD SWAP1 SWAP2 MSTORE PUSH1 0x20 DUP2 ADD DUP1 MLOAD PUSH28 0xFFFFFFFFFFFFFFFFFFFFFFFFFFFFFFFFFFFFFFFFFFFFFFFFFFFFFFFF AND PUSH32 0x1DE45AD100000000000000000000000000000000000000000000000000000000 OR SWAP1 MSTORE SWAP3 SWAP2 POP POP JUMP JUMPDEST PUSH1 0x40 DUP1 MLOAD DUP1 DUP3 ADD SWAP1 SWAP2 MSTORE PUSH1 0x4 DUP2 MSTORE PUSH32 0x57654FE400000000000000000000000000000000000000000000000000000000 PUSH1 0x20 DUP3 ADD MSTORE SWAP1 JUMP JUMPDEST PUSH1 0x40 DUP1 MLOAD PUSH20 0xFFFFFFFFFFFFFFFFFFFFFFFFFFFFFFFFFFFFFFFF DUP4 AND PUSH1 0x24 DUP1 DUP4 ADD SWAP2 SWAP1 SWAP2 MSTORE DUP3 MLOAD DUP1 DUP4 SUB SWAP1 SWAP2 ADD DUP2 MSTORE PUSH1 0x44 SWAP1 SWAP2 ADD SWAP1 SWAP2 MSTORE PUSH1 0x20 DUP2 ADD DUP1 MLOAD PUSH28 0xFFFFFFFFFFFFFFFFFFFFFFFFFFFFFFFFFFFFFFFFFFFFFFFFFFFFFFFF AND PUSH32 0xDE16F1A000000000000000000000000000000000000000000000000000000000 OR SWAP1 MSTORE SWAP2 SWAP1 POP JUMP JUMPDEST PUSH1 0x0 DUP2 DUP2 MSTORE PUSH1 0xA PUSH1 0x20 MSTORE PUSH1 0x40 SWAP1 KECCAK256 SLOAD PUSH20 0xFFFFFFFFFFFFFFFFFFFFFFFFFFFFFFFFFFFFFFFF AND PUSH2 0x11BB JUMPI PUSH2 0x11BB PUSH2 0x9C4 DUP3 PUSH1 0x0 PUSH2 0x42F1 JUMP JUMPDEST PUSH2 0x403C PUSH2 0x5C90 JUMP JUMPDEST PUSH2 0x4045 DUP4 PUSH2 0x27A5 JUMP JUMPDEST SWAP1 POP PUSH2 0x406F PUSH2 0x1E5D DUP4 DUP4 PUSH1 0x40 ADD MLOAD PUSH12 0xFFFFFFFFFFFFFFFFFFFFFFFF AND PUSH2 0x256B SWAP1 SWAP2 SWAP1 PUSH4 0xFFFFFFFF AND JUMP JUMPDEST PUSH12 0xFFFFFFFFFFFFFFFFFFFFFFFF AND PUSH1 0x40 DUP3 ADD MSTORE PUSH2 0x1186 DUP4 DUP3 PUSH2 0x3D75 JUMP JUMPDEST PUSH2 0x4094 PUSH2 0x5C90 JUMP JUMPDEST PUSH2 0x409D DUP4 PUSH2 0x27A5 JUMP JUMPDEST SWAP1 POP PUSH2 0x406F PUSH2 0x1E5D DUP4 DUP4 PUSH1 0x40 ADD MLOAD PUSH12 0xFFFFFFFFFFFFFFFFFFFFFFFF AND PUSH2 0x31A1 SWAP1 SWAP2 SWAP1 PUSH4 0xFFFFFFFF AND JUMP JUMPDEST EQ PUSH1 0x1 AND SWAP1 JUMP JUMPDEST PUSH1 0x60 PUSH4 0x22DF9597 PUSH1 0xE0 SHL DUP5 DUP5 DUP5 PUSH1 0x40 MLOAD PUSH1 0x24 ADD DUP1 DUP5 PUSH1 0x1 DUP2 GT ISZERO PUSH2 0x40EE JUMPI INVALID JUMPDEST DUP2 MSTORE PUSH1 0x20 ADD DUP4 DUP2 MSTORE PUSH1 0x20 ADD DUP3 PUSH4 0xFFFFFFFF AND DUP2 MSTORE PUSH1 0x20 ADD SWAP4 POP POP POP POP PUSH1 0x40 MLOAD PUSH1 0x20 DUP2 DUP4 SUB SUB DUP2 MSTORE SWAP1 PUSH1 0x40 MSTORE SWAP1 PUSH28 0xFFFFFFFFFFFFFFFFFFFFFFFFFFFFFFFFFFFFFFFFFFFFFFFFFFFFFFFF NOT AND PUSH1 0x20 DUP3 ADD DUP1 MLOAD PUSH28 0xFFFFFFFFFFFFFFFFFFFFFFFFFFFFFFFFFFFFFFFFFFFFFFFFFFFFFFFF DUP4 DUP2 DUP4 AND OR DUP4 MSTORE POP POP POP POP SWAP1 POP SWAP4 SWAP3 POP POP POP JUMP JUMPDEST PUSH1 0x40 DUP1 MLOAD PUSH1 0x24 DUP2 ADD DUP5 SWAP1 MSTORE PUSH1 0x44 DUP1 DUP3 ADD DUP5 SWAP1 MSTORE DUP3 MLOAD DUP1 DUP4 SUB SWAP1 SWAP2 ADD DUP2 MSTORE PUSH1 0x64 SWAP1 SWAP2 ADD SWAP1 SWAP2 MSTORE PUSH1 0x20 DUP2 ADD DUP1 MLOAD PUSH28 0xFFFFFFFFFFFFFFFFFFFFFFFFFFFFFFFFFFFFFFFFFFFFFFFFFFFFFFFF AND PUSH32 0xE9F8377100000000000000000000000000000000000000000000000000000000 OR SWAP1 MSTORE SWAP3 SWAP2 POP POP JUMP JUMPDEST PUSH1 0x40 DUP1 MLOAD PUSH20 0xFFFFFFFFFFFFFFFFFFFFFFFFFFFFFFFFFFFFFFFF DUP1 DUP6 AND PUSH1 0x24 DUP4 ADD MSTORE DUP4 AND PUSH1 0x44 DUP1 DUP4 ADD SWAP2 SWAP1 SWAP2 MSTORE DUP3 MLOAD DUP1 DUP4 SUB SWAP1 SWAP2 ADD DUP2 MSTORE PUSH1 0x64 SWAP1 SWAP2 ADD SWAP1 SWAP2 MSTORE PUSH1 0x20 DUP2 ADD DUP1 MLOAD PUSH28 0xFFFFFFFFFFFFFFFFFFFFFFFFFFFFFFFFFFFFFFFFFFFFFFFFFFFFFFFF AND PUSH32 0x140A84DB00000000000000000000000000000000000000000000000000000000 OR SWAP1 MSTORE SWAP3 SWAP2 POP POP JUMP JUMPDEST PUSH2 0x11BB DUP2 PUSH2 0x47D2 JUMP JUMPDEST PUSH1 0x0 DUP3 DUP2 MSTORE PUSH1 0xB PUSH1 0x20 MSTORE PUSH1 0x40 SWAP1 KECCAK256 SLOAD PUSH2 0x4291 SWAP1 DUP3 PUSH2 0x256B JUMP JUMPDEST PUSH1 0x0 DUP4 DUP2 MSTORE PUSH1 0xB PUSH1 0x20 MSTORE PUSH1 0x40 SWAP1 KECCAK256 SSTORE PUSH1 0x17 SLOAD PUSH2 0x42AD SWAP1 DUP3 PUSH2 0x256B JUMP JUMPDEST PUSH1 0x17 SSTORE POP POP JUMP JUMPDEST PUSH2 0x11BB DUP2 PUSH1 0x0 PUSH1 0x1 PUSH2 0x46E9 JUMP JUMPDEST PUSH1 0x0 DUP1 PUSH2 0x33A1 DUP4 PUSH2 0x47DB JUMP JUMPDEST PUSH1 0x0 PUSH2 0x35B9 DUP4 PUSH2 0x3A51 PUSH2 0x42E1 DUP3 PUSH1 0x1 PUSH2 0x256B JUMP JUMPDEST PUSH2 0x42EB DUP9 DUP8 PUSH2 0x4659 JUMP JUMPDEST SWAP1 PUSH2 0x31A1 JUMP JUMPDEST PUSH1 0x40 DUP1 MLOAD PUSH1 0x24 DUP2 ADD SWAP4 SWAP1 SWAP4 MSTORE SWAP1 ISZERO ISZERO PUSH1 0x44 DUP1 DUP5 ADD SWAP2 SWAP1 SWAP2 MSTORE DUP2 MLOAD DUP1 DUP5 SUB SWAP1 SWAP2 ADD DUP2 MSTORE PUSH1 0x64 SWAP1 SWAP3 ADD SWAP1 MSTORE PUSH1 0x20 DUP2 ADD DUP1 MLOAD PUSH28 0xFFFFFFFFFFFFFFFFFFFFFFFFFFFFFFFFFFFFFFFFFFFFFFFFFFFFFFFF AND PUSH32 0x9AE94F0100000000000000000000000000000000000000000000000000000000 OR SWAP1 MSTORE SWAP1 JUMP JUMPDEST PUSH1 0xD SLOAD ISZERO PUSH2 0x1D59 JUMPI PUSH2 0x1D59 PUSH2 0x9C4 PUSH1 0x0 PUSH2 0x4898 JUMP JUMPDEST PUSH1 0x11 SLOAD ISZERO DUP1 ISZERO SWAP1 PUSH2 0x4392 JUMPI POP PUSH1 0x12 SLOAD PUSH4 0xFFFFFFFF AND ISZERO ISZERO JUMPDEST DUP1 ISZERO PUSH2 0x439F JUMPI POP PUSH1 0x13 SLOAD ISZERO ISZERO JUMPDEST DUP1 ISZERO PUSH2 0x43B2 JUMPI POP PUSH1 0x14 SLOAD PUSH4 0xFFFFFFFF AND ISZERO ISZERO JUMPDEST DUP1 ISZERO PUSH2 0x43CD JUMPI POP PUSH1 0x14 SLOAD PUSH5 0x100000000 SWAP1 DIV PUSH4 0xFFFFFFFF AND ISZERO ISZERO JUMPDEST ISZERO PUSH2 0x1D59 JUMPI PUSH2 0x1D59 PUSH2 0x9C4 PUSH1 0x1 PUSH2 0x4898 JUMP JUMPDEST PUSH1 0x60 PUSH4 0xC996AF7B PUSH1 0xE0 SHL DUP4 DUP4 PUSH1 0x40 MLOAD PUSH1 0x24 ADD DUP1 DUP4 PUSH1 0x2 DUP2 GT ISZERO PUSH2 0x43FE JUMPI INVALID JUMPDEST DUP2 MSTORE PUSH1 0x20 DUP1 DUP3 ADD SWAP4 SWAP1 SWAP4 MSTORE PUSH1 0x40 DUP1 MLOAD DUP1 DUP4 SUB DUP6 ADD DUP2 MSTORE SWAP2 DUP2 ADD SWAP1 MSTORE SWAP2 DUP3 ADD DUP1 MLOAD PUSH28 0xFFFFFFFFFFFFFFFFFFFFFFFFFFFFFFFFFFFFFFFFFFFFFFFFFFFFFFFF AND PUSH32 0xFFFFFFFF00000000000000000000000000000000000000000000000000000000 SWAP1 SWAP6 AND SWAP5 SWAP1 SWAP5 OR SWAP1 SWAP4 MSTORE SWAP3 POP POP POP SWAP3 SWAP2 POP POP JUMP JUMPDEST PUSH1 0x0 DUP3 ISZERO DUP1 PUSH2 0x447E JUMPI POP DUP2 ISZERO JUMPDEST ISZERO PUSH2 0x448B JUMPI POP PUSH1 0x0 PUSH2 0x35B9 JUMP JUMPDEST PUSH1 0x0 PUSH2 0x4498 DUP6 PUSH1 0x1 PUSH2 0x256B JUMP JUMPDEST DUP7 MLOAD PUSH8 0xFFFFFFFFFFFFFFFF AND LT ISZERO PUSH2 0x44B4 JUMPI DUP6 PUSH1 0x40 ADD MLOAD PUSH2 0x44BA JUMP JUMPDEST DUP6 PUSH1 0x20 ADD MLOAD JUMPDEST PUSH12 0xFFFFFFFFFFFFFFFFFFFFFFFF AND SWAP1 POP DUP1 PUSH2 0x44D9 JUMPI PUSH1 0x0 SWAP2 POP POP PUSH2 0x35B9 JUMP JUMPDEST PUSH2 0x44E4 DUP5 DUP5 DUP4 PUSH2 0x4587 JUMP JUMPDEST SWAP7 SWAP6 POP POP POP POP POP POP JUMP JUMPDEST PUSH1 0x0 DUP4 ISZERO DUP1 PUSH2 0x44FC JUMPI POP DUP2 DUP4 EQ JUMPDEST ISZERO PUSH2 0x4509 JUMPI POP PUSH1 0x0 PUSH2 0x35B9 JUMP JUMPDEST DUP2 DUP4 LT PUSH2 0x4542 JUMPI PUSH1 0x40 MLOAD PUSH32 0x8C379A000000000000000000000000000000000000000000000000000000000 DUP2 MSTORE PUSH1 0x4 ADD PUSH2 0xBE1 SWAP1 PUSH2 0x62E6 JUMP JUMPDEST PUSH2 0x454A PUSH2 0x5CF8 JUMP JUMPDEST PUSH2 0x4554 DUP7 DUP6 PUSH2 0x493E JUMP JUMPDEST SWAP1 POP PUSH2 0x455E PUSH2 0x5CF8 JUMP JUMPDEST PUSH2 0x4568 DUP8 DUP6 PUSH2 0x493E JUMP JUMPDEST SWAP1 POP PUSH2 0x1F80 DUP2 PUSH1 0x0 ADD MLOAD DUP3 PUSH1 0x20 ADD MLOAD DUP5 PUSH1 0x0 ADD MLOAD DUP6 PUSH1 0x20 ADD MLOAD DUP11 PUSH2 0x4A55 JUMP JUMPDEST PUSH1 0x0 PUSH2 0x35B9 DUP4 PUSH2 0x3A51 DUP7 DUP6 PUSH2 0x4659 JUMP JUMPDEST PUSH1 0x0 DUP1 PUSH2 0x45A4 DUP9 DUP9 PUSH2 0x4AC3 JUMP JUMPDEST SWAP1 POP PUSH1 0x0 PUSH2 0x45B2 DUP8 DUP8 PUSH2 0x4AC3 JUMP JUMPDEST SWAP1 POP DUP2 ISZERO DUP1 PUSH2 0x45BF JUMPI POP DUP1 ISZERO JUMPDEST ISZERO PUSH2 0x45CF JUMPI PUSH1 0x0 SWAP3 POP POP POP PUSH2 0x1F80 JUMP JUMPDEST PUSH1 0x0 DUP2 DUP4 SGT ISZERO PUSH2 0x45E8 JUMPI PUSH2 0x45E3 DUP3 DUP5 PUSH2 0x4B15 JUMP JUMPDEST PUSH2 0x45F2 JUMP JUMPDEST PUSH2 0x45F2 DUP4 DUP4 PUSH2 0x4B15 JUMP JUMPDEST SWAP1 POP PUSH2 0x461B PUSH2 0x4616 PUSH2 0x4603 DUP4 PUSH2 0x4B34 JUMP JUMPDEST DUP9 PUSH4 0xFFFFFFFF AND DUP9 PUSH4 0xFFFFFFFF AND PUSH2 0x51D6 JUMP JUMPDEST PUSH2 0x51E5 JUMP JUMPDEST SWAP1 POP DUP2 DUP4 SGT ISZERO PUSH2 0x4634 JUMPI PUSH2 0x462F DUP3 DUP3 PUSH2 0x4B15 JUMP JUMPDEST PUSH2 0x463E JUMP JUMPDEST PUSH2 0x463E DUP3 DUP3 PUSH2 0x57CF JUMP JUMPDEST SWAP1 POP PUSH2 0x464A DUP2 DUP13 PUSH2 0x57FB JUMP JUMPDEST SWAP12 SWAP11 POP POP POP POP POP POP POP POP POP POP POP JUMP JUMPDEST PUSH1 0x0 DUP3 PUSH2 0x4668 JUMPI POP PUSH1 0x0 PUSH2 0x1217 JUMP JUMPDEST DUP3 DUP3 MUL DUP3 DUP5 DUP3 DUP2 PUSH2 0x4675 JUMPI INVALID JUMPDEST DIV EQ PUSH2 0x1214 JUMPI PUSH2 0x1214 PUSH2 0x9C4 PUSH1 0x1 DUP7 DUP7 PUSH2 0x3BC3 JUMP JUMPDEST PUSH1 0x0 DUP2 PUSH2 0x46A0 JUMPI PUSH2 0x46A0 PUSH2 0x9C4 PUSH1 0x3 DUP6 DUP6 PUSH2 0x3BC3 JUMP JUMPDEST PUSH1 0x0 DUP3 DUP5 DUP2 PUSH2 0x46AB JUMPI INVALID JUMPDEST DIV SWAP5 SWAP4 POP POP POP POP JUMP JUMPDEST PUSH1 0x0 DUP3 DUP2 MSTORE PUSH1 0xB PUSH1 0x20 MSTORE PUSH1 0x40 SWAP1 KECCAK256 SLOAD PUSH2 0x46CD SWAP1 DUP3 PUSH2 0x31A1 JUMP JUMPDEST PUSH1 0x0 DUP4 DUP2 MSTORE PUSH1 0xB PUSH1 0x20 MSTORE PUSH1 0x40 SWAP1 KECCAK256 SSTORE PUSH1 0x17 SLOAD PUSH2 0x42AD SWAP1 DUP3 PUSH2 0x31A1 JUMP JUMPDEST PUSH1 0x0 DUP4 DUP2 MSTORE PUSH1 0xF PUSH1 0x20 MSTORE PUSH1 0x40 SWAP1 KECCAK256 SLOAD PUSH1 0xC SLOAD DUP1 DUP3 EQ ISZERO PUSH2 0x470A JUMPI POP POP PUSH2 0x1186 JUMP JUMPDEST PUSH2 0x4712 PUSH2 0x5CF8 JUMP JUMPDEST POP PUSH1 0x0 DUP6 DUP2 MSTORE PUSH1 0xE PUSH1 0x20 SWAP1 DUP2 MSTORE PUSH1 0x40 DUP1 DUP4 KECCAK256 DUP6 DUP5 MSTORE DUP3 MSTORE SWAP2 DUP3 SWAP1 KECCAK256 DUP3 MLOAD DUP1 DUP5 ADD SWAP1 SWAP4 MSTORE DUP1 SLOAD DUP4 MSTORE PUSH1 0x1 ADD SLOAD SWAP1 DUP3 ADD MSTORE PUSH2 0x4749 PUSH2 0x5CF8 JUMP JUMPDEST PUSH2 0x4752 DUP3 PUSH2 0x583D JUMP JUMPDEST ISZERO PUSH2 0x478B JUMPI PUSH2 0x476B DUP3 PUSH1 0x0 ADD MLOAD DUP4 PUSH1 0x20 ADD MLOAD DUP9 DUP9 PUSH2 0x5846 JUMP JUMPDEST PUSH1 0x20 DUP4 ADD DUP2 SWAP1 MSTORE DUP2 DUP4 MSTORE PUSH2 0x477F SWAP2 SWAP1 PUSH2 0x5896 JUMP JUMPDEST PUSH1 0x20 DUP4 ADD MSTORE DUP2 MSTORE PUSH2 0x4796 JUMP JUMPDEST PUSH1 0x20 DUP2 ADD DUP6 SWAP1 MSTORE DUP6 DUP2 MSTORE JUMPDEST PUSH1 0x0 DUP8 DUP2 MSTORE PUSH1 0xE PUSH1 0x20 SWAP1 DUP2 MSTORE PUSH1 0x40 DUP1 DUP4 KECCAK256 DUP7 DUP5 MSTORE DUP3 MSTORE DUP1 DUP4 KECCAK256 DUP5 MLOAD DUP2 SSTORE SWAP4 DUP3 ADD MLOAD PUSH1 0x1 SWAP1 SWAP5 ADD SWAP4 SWAP1 SWAP4 SSTORE SWAP8 DUP2 MSTORE PUSH1 0xF SWAP1 SWAP8 MSTORE SWAP1 SWAP6 KECCAK256 SSTORE POP POP POP POP JUMP JUMPDEST PUSH2 0x11BB DUP2 PUSH2 0x58BF JUMP JUMPDEST PUSH1 0x0 DUP1 PUSH1 0x0 PUSH2 0x47F6 PUSH1 0x1 PUSH1 0xC SLOAD PUSH2 0x256B SWAP1 SWAP2 SWAP1 PUSH4 0xFFFFFFFF AND JUMP JUMPDEST SWAP1 POP PUSH2 0x4800 PUSH2 0x5CB0 JUMP JUMPDEST POP PUSH1 0x0 DUP5 DUP2 MSTORE PUSH1 0x15 PUSH1 0x20 SWAP1 DUP2 MSTORE PUSH1 0x40 DUP1 DUP4 KECCAK256 DUP5 DUP5 MSTORE DUP3 MSTORE DUP1 DUP4 KECCAK256 DUP2 MLOAD PUSH1 0x60 DUP1 DUP3 ADD DUP5 MSTORE DUP3 SLOAD DUP3 MSTORE PUSH1 0x1 DUP1 DUP5 ADD SLOAD DUP4 DUP8 ADD MSTORE PUSH1 0x2 SWAP4 DUP5 ADD SLOAD DUP4 DUP7 ADD MSTORE DUP8 DUP8 MSTORE PUSH1 0x16 DUP7 MSTORE SWAP6 DUP5 SWAP1 KECCAK256 DUP5 MLOAD PUSH1 0xA0 DUP2 ADD DUP7 MSTORE DUP2 SLOAD DUP2 MSTORE SWAP7 DUP2 ADD SLOAD SWAP6 DUP8 ADD SWAP6 SWAP1 SWAP6 MSTORE SWAP2 DUP5 ADD SLOAD SWAP3 DUP6 ADD SWAP3 SWAP1 SWAP3 MSTORE PUSH1 0x3 DUP4 ADD SLOAD SWAP1 DUP5 ADD MSTORE PUSH1 0x4 SWAP1 SWAP2 ADD SLOAD PUSH1 0x80 DUP4 ADD MSTORE SWAP1 PUSH2 0x4888 SWAP1 DUP3 SWAP1 PUSH2 0x3701 JUMP JUMPDEST SWAP4 POP DUP1 PUSH1 0x40 ADD MLOAD SWAP3 POP POP POP SWAP2 POP SWAP2 JUMP JUMPDEST PUSH1 0x60 PUSH32 0xB02D77300000000000000000000000000000000000000000000000000000000 DUP3 PUSH1 0x1 DUP2 GT ISZERO PUSH2 0x48C7 JUMPI INVALID JUMPDEST PUSH1 0x40 MLOAD PUSH1 0x24 ADD DUP1 DUP3 PUSH1 0xFF AND DUP2 MSTORE PUSH1 0x20 ADD SWAP2 POP POP PUSH1 0x40 MLOAD PUSH1 0x20 DUP2 DUP4 SUB SUB DUP2 MSTORE SWAP1 PUSH1 0x40 MSTORE SWAP1 PUSH28 0xFFFFFFFFFFFFFFFFFFFFFFFFFFFFFFFFFFFFFFFFFFFFFFFFFFFFFFFF NOT AND PUSH1 0x20 DUP3 ADD DUP1 MLOAD PUSH28 0xFFFFFFFFFFFFFFFFFFFFFFFFFFFFFFFFFFFFFFFFFFFFFFFFFFFFFFFF DUP4 DUP2 DUP4 AND OR DUP4 MSTORE POP POP POP POP SWAP1 POP SWAP2 SWAP1 POP JUMP JUMPDEST PUSH2 0x4946 PUSH2 0x5CF8 JUMP JUMPDEST POP PUSH1 0x0 DUP3 DUP2 MSTORE PUSH1 0xE PUSH1 0x20 SWAP1 DUP2 MSTORE PUSH1 0x40 DUP1 DUP4 KECCAK256 DUP5 DUP5 MSTORE DUP3 MSTORE SWAP2 DUP3 SWAP1 KECCAK256 DUP3 MLOAD DUP1 DUP5 ADD SWAP1 SWAP4 MSTORE DUP1 SLOAD DUP4 MSTORE PUSH1 0x1 ADD SLOAD SWAP1 DUP3 ADD MSTORE PUSH2 0x497E DUP2 PUSH2 0x583D JUMP JUMPDEST ISZERO PUSH2 0x4988 JUMPI PUSH2 0x1217 JUMP JUMPDEST PUSH1 0x0 PUSH2 0x4995 DUP4 PUSH1 0x1 PUSH2 0x256B JUMP JUMPDEST PUSH1 0x0 DUP6 DUP2 MSTORE PUSH1 0xE PUSH1 0x20 SWAP1 DUP2 MSTORE PUSH1 0x40 DUP1 DUP4 KECCAK256 DUP5 DUP5 MSTORE DUP3 MSTORE SWAP2 DUP3 SWAP1 KECCAK256 DUP3 MLOAD DUP1 DUP5 ADD SWAP1 SWAP4 MSTORE DUP1 SLOAD DUP4 MSTORE PUSH1 0x1 ADD SLOAD SWAP1 DUP3 ADD MSTORE SWAP3 POP SWAP1 POP PUSH2 0x49D0 DUP3 PUSH2 0x583D JUMP JUMPDEST ISZERO PUSH2 0x49DB JUMPI POP PUSH2 0x1217 JUMP JUMPDEST PUSH1 0x0 DUP5 DUP2 MSTORE PUSH1 0xF PUSH1 0x20 MSTORE PUSH1 0x40 SWAP1 KECCAK256 SLOAD DUP4 DUP2 LT ISZERO PUSH2 0x4A37 JUMPI PUSH1 0x0 DUP6 DUP2 MSTORE PUSH1 0xE PUSH1 0x20 SWAP1 DUP2 MSTORE PUSH1 0x40 DUP1 DUP4 KECCAK256 DUP5 DUP5 MSTORE DUP3 MSTORE SWAP2 DUP3 SWAP1 KECCAK256 DUP3 MLOAD DUP1 DUP5 ADD SWAP1 SWAP4 MSTORE DUP1 SLOAD DUP4 MSTORE PUSH1 0x1 ADD SLOAD SWAP1 DUP3 ADD MSTORE SWAP3 POP PUSH2 0x4A2B DUP4 PUSH2 0x583D JUMP JUMPDEST ISZERO PUSH2 0x4A37 JUMPI POP POP PUSH2 0x1217 JUMP JUMPDEST POP POP PUSH1 0x40 DUP1 MLOAD DUP1 DUP3 ADD SWAP1 SWAP2 MSTORE PUSH1 0x0 DUP2 MSTORE PUSH1 0x1 PUSH1 0x20 DUP3 ADD MSTORE SWAP4 SWAP3 POP POP POP JUMP JUMPDEST PUSH1 0x0 DUP2 PUSH2 0x4A64 JUMPI POP PUSH1 0x0 PUSH2 0x4ABA JUMP JUMPDEST DUP4 PUSH2 0x4A7E JUMPI PUSH2 0x4A77 DUP6 PUSH2 0x3A51 DUP5 DUP10 PUSH2 0x4659 JUMP JUMPDEST SWAP1 POP PUSH2 0x4ABA JUMP JUMPDEST PUSH1 0x0 PUSH2 0x4A97 PUSH2 0x4A8D DUP7 DUP9 PUSH2 0x4659 JUMP JUMPDEST PUSH2 0x20D2 DUP10 DUP8 PUSH2 0x4659 JUMP JUMPDEST SWAP1 POP PUSH1 0x0 PUSH2 0x4AA5 DUP3 DUP7 PUSH2 0x468A JUMP JUMPDEST SWAP1 POP PUSH2 0x4AB5 DUP8 PUSH2 0x3A51 DUP7 DUP5 PUSH2 0x4659 JUMP JUMPDEST SWAP3 POP POP POP JUMPDEST SWAP6 SWAP5 POP POP POP POP POP JUMP JUMPDEST PUSH1 0x0 DUP1 DUP4 SLT ISZERO PUSH2 0x4ADB JUMPI PUSH2 0x4ADB PUSH2 0x9C4 PUSH1 0x1 DUP6 PUSH2 0x592D JUMP JUMPDEST PUSH1 0x0 DUP3 SLT ISZERO PUSH2 0x4AF2 JUMPI PUSH2 0x4AF2 PUSH2 0x9C4 PUSH1 0x1 DUP5 PUSH2 0x592D JUMP JUMPDEST PUSH2 0x1214 PUSH2 0x4B0F DUP5 PUSH16 0x80000000000000000000000000000000 PUSH2 0x59DA JUMP JUMPDEST DUP4 PUSH2 0x5A2D JUMP JUMPDEST PUSH1 0x0 PUSH2 0x1214 PUSH2 0x4B0F DUP5 PUSH16 0x80000000000000000000000000000000 PUSH2 0x59DA JUMP JUMPDEST PUSH1 0x0 PUSH16 0x80000000000000000000000000000000 DUP3 SGT ISZERO PUSH2 0x4B5C JUMPI PUSH2 0x4B5C PUSH2 0x9C4 PUSH1 0x1 DUP5 PUSH2 0x5AAE JUMP JUMPDEST PUSH1 0x0 DUP3 SGT PUSH2 0x4B72 JUMPI PUSH2 0x4B72 PUSH2 0x9C4 PUSH1 0x0 DUP5 PUSH2 0x5AAE JUMP JUMPDEST PUSH16 0x80000000000000000000000000000000 DUP3 EQ ISZERO PUSH2 0x4B92 JUMPI POP PUSH1 0x0 PUSH2 0xD3D JUMP JUMPDEST PUSH5 0x733048C5A DUP3 SGT PUSH2 0x4BC5 JUMPI POP PUSH32 0xFFFFFFFFFFFFFFFFFFFFFFFFFFFFFFE010000000000000000000000000000000 PUSH2 0xD3D JUMP JUMPDEST PUSH1 0x0 DUP1 PUSH1 0x0 PUSH11 0x1C8464F76164760000000 DUP6 SGT PUSH2 0x4C24 JUMPI PUSH32 0xFFFFFFFFFFFFFFFFFFFFFFFFFFFFFFF000000000000000000000000000000000 SWAP1 SWAP4 ADD SWAP3 PUSH11 0x1C8464F76164760000000 PUSH16 0x80000000000000000000000000000000 DUP7 MUL SDIV SWAP5 POP JUMPDEST PUSH13 0xF1AADDD7742E90000000000000 DUP6 SGT PUSH2 0x4C82 JUMPI PUSH32 0xFFFFFFFFFFFFFFFFFFFFFFFFFFFFFFF800000000000000000000000000000000 SWAP1 SWAP4 ADD SWAP3 PUSH13 0xF1AADDD7742E90000000000000 PUSH16 0x80000000000000000000000000000000 DUP7 MUL SDIV SWAP5 POP JUMPDEST PUSH15 0xAFE10820813D78000000000000000 DUP6 SGT PUSH2 0x4CE4 JUMPI PUSH32 0xFFFFFFFFFFFFFFFFFFFFFFFFFFFFFFFC00000000000000000000000000000000 SWAP1 SWAP4 ADD SWAP3 PUSH15 0xAFE10820813D78000000000000000 PUSH16 0x80000000000000000000000000000000 DUP7 MUL SDIV SWAP5 POP JUMPDEST PUSH16 0x2582AB704279EC00000000000000000 DUP6 SGT PUSH2 0x4D48 JUMPI PUSH32 0xFFFFFFFFFFFFFFFFFFFFFFFFFFFFFFFE00000000000000000000000000000000 SWAP1 SWAP4 ADD SWAP3 PUSH16 0x2582AB704279EC00000000000000000 PUSH16 0x80000000000000000000000000000000 DUP7 MUL SDIV SWAP5 POP JUMPDEST PUSH16 0x1152AAA3BF81CC000000000000000000 DUP6 SGT PUSH2 0x4DAC JUMPI PUSH32 0xFFFFFFFFFFFFFFFFFFFFFFFFFFFFFFFF00000000000000000000000000000000 SWAP1 SWAP4 ADD SWAP3 PUSH16 0x1152AAA3BF81CC000000000000000000 PUSH16 0x80000000000000000000000000000000 DUP7 MUL SDIV SWAP5 POP JUMPDEST PUSH16 0x2F16AC6C59DE70000000000000000000 DUP6 SGT PUSH2 0x4E10 JUMPI PUSH32 0xFFFFFFFFFFFFFFFFFFFFFFFFFFFFFFFF80000000000000000000000000000000 SWAP1 SWAP4 ADD SWAP3 PUSH16 0x2F16AC6C59DE70000000000000000000 PUSH16 0x80000000000000000000000000000000 DUP7 MUL SDIV SWAP5 POP JUMPDEST PUSH16 0x4DA2CBF1BE5828000000000000000000 DUP6 SGT PUSH2 0x4E74 JUMPI PUSH32 0xFFFFFFFFFFFFFFFFFFFFFFFFFFFFFFFFC0000000000000000000000000000000 SWAP1 SWAP4 ADD SWAP3 PUSH16 0x4DA2CBF1BE5828000000000000000000 PUSH16 0x80000000000000000000000000000000 DUP7 MUL SDIV SWAP5 POP JUMPDEST PUSH16 0x63AFBE7AB2082C000000000000000000 DUP6 SGT PUSH2 0x4ED8 JUMPI PUSH32 0xFFFFFFFFFFFFFFFFFFFFFFFFFFFFFFFFE0000000000000000000000000000000 SWAP1 SWAP4 ADD SWAP3 PUSH16 0x63AFBE7AB2082C000000000000000000 PUSH16 0x80000000000000000000000000000000 DUP7 MUL SDIV SWAP5 POP JUMPDEST PUSH16 0x70F5A893B608861E1F58934F97AEA57D DUP6 SGT PUSH2 0x4F3C JUMPI PUSH32 0xFFFFFFFFFFFFFFFFFFFFFFFFFFFFFFFFF0000000000000000000000000000000 SWAP1 SWAP4 ADD SWAP3 PUSH16 0x70F5A893B608861E1F58934F97AEA57D PUSH16 0x80000000000000000000000000000000 DUP7 MUL SDIV SWAP5 POP JUMPDEST PUSH32 0xFFFFFFFFFFFFFFFFFFFFFFFFFFFFFFFF80000000000000000000000000000000 DUP6 ADD SWAP3 POP DUP3 SWAP2 POP PUSH16 0x80000000000000000000000000000000 DUP3 DUP1 MUL SDIV SWAP1 POP PUSH17 0x100000000000000000000000000000000 DUP4 DUP2 SUB DUP4 MUL SDIV DUP5 ADD SWAP4 POP PUSH16 0x80000000000000000000000000000000 DUP2 DUP4 MUL DUP2 PUSH2 0x4FB2 JUMPI INVALID JUMPDEST SDIV SWAP2 POP PUSH17 0x200000000000000000000000000000000 DUP4 PUSH16 0xAAAAAAAAAAAAAAAAAAAAAAAAAAAAAAAA SUB DUP4 MUL DUP2 PUSH2 0x4FE3 JUMPI INVALID JUMPDEST SDIV DUP5 ADD SWAP4 POP PUSH16 0x80000000000000000000000000000000 DUP2 DUP4 MUL DUP2 PUSH2 0x5003 JUMPI INVALID JUMPDEST SDIV SWAP2 POP PUSH17 0x300000000000000000000000000000000 DUP4 PUSH16 0x99999999999999999999999999999999 SUB DUP4 MUL DUP2 PUSH2 0x5034 JUMPI INVALID JUMPDEST SDIV DUP5 ADD SWAP4 POP PUSH16 0x80000000000000000000000000000000 DUP2 DUP4 MUL DUP2 PUSH2 0x5054 JUMPI INVALID JUMPDEST SDIV SWAP2 POP PUSH17 0x400000000000000000000000000000000 DUP4 PUSH16 0x92492492492492492492492492492492 SUB DUP4 MUL DUP2 PUSH2 0x5085 JUMPI INVALID JUMPDEST SDIV DUP5 ADD SWAP4 POP PUSH16 0x80000000000000000000000000000000 DUP2 DUP4 MUL DUP2 PUSH2 0x50A5 JUMPI INVALID JUMPDEST SDIV SWAP2 POP PUSH17 0x500000000000000000000000000000000 DUP4 PUSH16 0x8E38E38E38E38E38E38E38E38E38E38E SUB DUP4 MUL DUP2 PUSH2 0x50D6 JUMPI INVALID JUMPDEST SDIV DUP5 ADD SWAP4 POP PUSH16 0x80000000000000000000000000000000 DUP2 DUP4 MUL DUP2 PUSH2 0x50F6 JUMPI INVALID JUMPDEST SDIV SWAP2 POP PUSH17 0x600000000000000000000000000000000 DUP4 PUSH16 0x8BA2E8BA2E8BA2E8BA2E8BA2E8BA2E8B SUB DUP4 MUL DUP2 PUSH2 0x5127 JUMPI INVALID JUMPDEST SDIV DUP5 ADD SWAP4 POP PUSH16 0x80000000000000000000000000000000 DUP2 DUP4 MUL DUP2 PUSH2 0x5147 JUMPI INVALID JUMPDEST SDIV SWAP2 POP PUSH17 0x700000000000000000000000000000000 DUP4 PUSH16 0x89D89D89D89D89D89D89D89D89D89D89 SUB DUP4 MUL DUP2 PUSH2 0x5178 JUMPI INVALID JUMPDEST SDIV DUP5 ADD SWAP4 POP PUSH16 0x80000000000000000000000000000000 DUP2 DUP4 MUL DUP2 PUSH2 0x5198 JUMPI INVALID JUMPDEST SDIV SWAP2 POP PUSH17 0x800000000000000000000000000000000 DUP4 PUSH16 0x88888888888888888888888888888888 SUB DUP4 MUL DUP2 PUSH2 0x51C9 JUMPI INVALID JUMPDEST SDIV DUP5 ADD SWAP4 POP POP POP POP SWAP2 SWAP1 POP JUMP JUMPDEST PUSH1 0x0 PUSH2 0x35B9 PUSH2 0x4B0F DUP6 DUP6 PUSH2 0x59DA JUMP JUMPDEST PUSH1 0x0 PUSH32 0xFFFFFFFFFFFFFFFFFFFFFFFFFFFFFFE010000000000000000000000000000000 DUP3 SLT ISZERO PUSH2 0x5217 JUMPI POP PUSH1 0x0 PUSH2 0xD3D JUMP JUMPDEST DUP2 PUSH2 0x5233 JUMPI POP PUSH16 0x80000000000000000000000000000000 PUSH2 0xD3D JUMP JUMPDEST PUSH1 0x0 DUP3 SGT ISZERO PUSH2 0x524A JUMPI PUSH2 0x524A PUSH2 0x9C4 PUSH1 0x1 DUP5 PUSH2 0x5AAE JUMP JUMPDEST PUSH16 0x80000000000000000000000000000000 PUSH16 0x10000000000000000000000000000000 DUP4 SMOD DUP1 DUP1 MUL DUP3 SWAP1 SDIV PUSH8 0x10E1B3BE415A0000 DUP2 MUL SWAP4 SWAP1 SWAP4 ADD SWAP3 SWAP1 SWAP2 DUP2 DUP4 MUL SDIV SWAP1 POP DUP1 PUSH8 0x5A0913F6B1E0000 MUL DUP4 ADD SWAP3 POP PUSH16 0x80000000000000000000000000000000 DUP3 DUP3 MUL DUP2 PUSH2 0x52B6 JUMPI INVALID JUMPDEST SDIV SWAP1 POP DUP1 PUSH8 0x168244FDAC78000 MUL DUP4 ADD SWAP3 POP PUSH16 0x80000000000000000000000000000000 DUP3 DUP3 MUL DUP2 PUSH2 0x52E3 JUMPI INVALID JUMPDEST SDIV SWAP1 POP DUP1 PUSH7 0x4807432BC18000 MUL DUP4 ADD SWAP3 POP PUSH16 0x80000000000000000000000000000000 DUP3 DUP3 MUL DUP2 PUSH2 0x530F JUMPI INVALID JUMPDEST SDIV SWAP1 POP DUP1 PUSH7 0xC0135DCA04000 MUL DUP4 ADD SWAP3 POP PUSH16 0x80000000000000000000000000000000 DUP3 DUP3 MUL DUP2 PUSH2 0x533B JUMPI INVALID JUMPDEST SDIV SWAP1 POP DUP1 PUSH7 0x1B707B1CDC000 MUL DUP4 ADD SWAP3 POP PUSH16 0x80000000000000000000000000000000 DUP3 DUP3 MUL DUP2 PUSH2 0x5367 JUMPI INVALID JUMPDEST SDIV SWAP1 POP DUP1 PUSH6 0x36E0F639B800 MUL DUP4 ADD SWAP3 POP PUSH16 0x80000000000000000000000000000000 DUP3 DUP3 MUL DUP2 PUSH2 0x5392 JUMPI INVALID JUMPDEST SDIV SWAP1 POP DUP1 PUSH6 0x618FEE9F800 MUL DUP4 ADD SWAP3 POP PUSH16 0x80000000000000000000000000000000 DUP3 DUP3 MUL DUP2 PUSH2 0x53BD JUMPI INVALID JUMPDEST SDIV SWAP1 POP DUP1 PUSH5 0x9C197DCC00 MUL DUP4 ADD SWAP3 POP PUSH16 0x80000000000000000000000000000000 DUP3 DUP3 MUL DUP2 PUSH2 0x53E7 JUMPI INVALID JUMPDEST SDIV SWAP1 POP DUP1 PUSH5 0xE30DCE400 MUL DUP4 ADD SWAP3 POP PUSH16 0x80000000000000000000000000000000 DUP3 DUP3 MUL DUP2 PUSH2 0x5411 JUMPI INVALID JUMPDEST SDIV SWAP1 POP DUP1 PUSH5 0x12EBD1300 MUL DUP4 ADD SWAP3 POP PUSH16 0x80000000000000000000000000000000 DUP3 DUP3 MUL DUP2 PUSH2 0x543B JUMPI INVALID JUMPDEST SDIV SWAP1 POP DUP1 PUSH4 0x17499F00 MUL DUP4 ADD SWAP3 POP PUSH16 0x80000000000000000000000000000000 DUP3 DUP3 MUL DUP2 PUSH2 0x5464 JUMPI INVALID JUMPDEST SDIV SWAP1 POP DUP1 PUSH4 0x1A9D480 MUL DUP4 ADD SWAP3 POP PUSH16 0x80000000000000000000000000000000 DUP3 DUP3 MUL DUP2 PUSH2 0x548D JUMPI INVALID JUMPDEST SDIV SWAP1 POP DUP1 PUSH3 0x1C6380 MUL DUP4 ADD SWAP3 POP PUSH16 0x80000000000000000000000000000000 DUP3 DUP3 MUL DUP2 PUSH2 0x54B5 JUMPI INVALID JUMPDEST SDIV SWAP1 POP DUP1 PUSH3 0x1C638 MUL DUP4 ADD SWAP3 POP PUSH16 0x80000000000000000000000000000000 DUP3 DUP3 MUL DUP2 PUSH2 0x54DD JUMPI INVALID JUMPDEST SDIV SWAP1 POP DUP1 PUSH2 0x1AB8 MUL DUP4 ADD SWAP3 POP PUSH16 0x80000000000000000000000000000000 DUP3 DUP3 MUL DUP2 PUSH2 0x5504 JUMPI INVALID JUMPDEST SDIV SWAP1 POP DUP1 PUSH2 0x17C MUL DUP4 ADD SWAP3 POP PUSH16 0x80000000000000000000000000000000 DUP3 DUP3 MUL DUP2 PUSH2 0x552B JUMPI INVALID JUMPDEST SDIV SWAP1 POP DUP1 PUSH1 0x14 MUL DUP4 ADD SWAP3 POP PUSH16 0x80000000000000000000000000000000 DUP3 DUP3 MUL DUP2 PUSH2 0x5551 JUMPI INVALID JUMPDEST PUSH1 0x0 SWAP6 SWAP1 SWAP6 SUB SWAP5 PUSH8 0x21C3677C82B40000 SWAP2 SWAP1 SDIV SWAP4 DUP5 ADD SDIV DUP3 ADD PUSH16 0x80000000000000000000000000000000 ADD SWAP3 SWAP1 POP PUSH17 0x1000000000000000000000000000000000 DUP5 AND ISZERO PUSH2 0x55C0 JUMPI PUSH19 0x43CBAF42A000812488FC5C220AD7B97BF6E99E PUSH13 0xF1AADDD7742E56D32FB9F99744 DUP5 MUL SDIV SWAP3 POP JUMPDEST PUSH17 0x800000000000000000000000000000000 DUP5 AND ISZERO PUSH2 0x5602 JUMPI PUSH18 0x5D27A9F51C31B7C2F8038212A0574779991 PUSH15 0xAFE10820813D65DFE6A33C07F738F DUP5 MUL SDIV SWAP3 POP JUMPDEST PUSH17 0x400000000000000000000000000000000 DUP5 AND ISZERO PUSH2 0x5644 JUMPI PUSH17 0x1B4C902E273A58678D6D3BFDB93DB96D02 PUSH16 0x2582AB704279E8EFD15E0265855C47A DUP5 MUL SDIV SWAP3 POP JUMPDEST PUSH17 0x200000000000000000000000000000000 DUP5 AND ISZERO PUSH2 0x5686 JUMPI PUSH17 0x3B1CC971A9BB5B9867477440D6D157750 PUSH16 0x1152AAA3BF81CB9FDB76EAE12D029571 DUP5 MUL SDIV SWAP3 POP JUMPDEST PUSH17 0x100000000000000000000000000000000 DUP5 AND ISZERO PUSH2 0x56C8 JUMPI PUSH17 0x15BF0A8B1457695355FB8AC404E7A79E3 PUSH16 0x2F16AC6C59DE6F8D5D6F63C1482A7C86 DUP5 MUL SDIV SWAP3 POP JUMPDEST PUSH16 0x80000000000000000000000000000000 DUP5 AND ISZERO PUSH2 0x5708 JUMPI PUSH16 0xD3094C70F034DE4B96FF7D5B6F99FCD8 PUSH16 0x4DA2CBF1BE5827F9EB3AD1AA9866EBB3 DUP5 MUL SDIV SWAP3 POP JUMPDEST PUSH16 0x40000000000000000000000000000000 DUP5 AND ISZERO PUSH2 0x5748 JUMPI PUSH16 0xA45AF1E1F40C333B3DE1DB4DD55F29A7 PUSH16 0x63AFBE7AB2082BA1A0AE5E4EB1B479DC DUP5 MUL SDIV SWAP3 POP JUMPDEST PUSH16 0x20000000000000000000000000000000 DUP5 AND ISZERO PUSH2 0x5788 JUMPI PUSH16 0x910B022DB7AE67CE76B441C27035C6A1 PUSH16 0x70F5A893B608861E1F58934F97AEA57D DUP5 MUL SDIV SWAP3 POP JUMPDEST PUSH16 0x10000000000000000000000000000000 DUP5 AND ISZERO PUSH2 0x57C8 JUMPI PUSH16 0x88415ABBE9A76BEAD8D00CF112E4D4A8 PUSH16 0x783EAFEF1C0A8F3978C7F81824D62EBF DUP5 MUL SDIV SWAP3 POP JUMPDEST POP POP SWAP2 SWAP1 POP JUMP JUMPDEST PUSH1 0x0 PUSH16 0x80000000000000000000000000000000 PUSH2 0x57EC DUP5 DUP5 PUSH2 0x59DA JUMP JUMPDEST DUP2 PUSH2 0x57F3 JUMPI INVALID JUMPDEST SDIV SWAP4 SWAP3 POP POP POP JUMP JUMPDEST PUSH1 0x0 DUP1 DUP3 SLT ISZERO PUSH2 0x5813 JUMPI PUSH2 0x5813 PUSH2 0x9C4 PUSH1 0x1 DUP5 PUSH2 0x592D JUMP JUMPDEST PUSH1 0x0 PUSH2 0x581F DUP5 DUP5 PUSH2 0x59DA JUMP JUMPDEST SWAP1 POP PUSH1 0x0 DUP2 SGT PUSH2 0x5833 JUMPI PUSH1 0x0 SWAP2 POP POP PUSH2 0x1217 JUMP JUMPDEST PUSH1 0x7F SHR SWAP4 SWAP3 POP POP POP JUMP JUMPDEST PUSH1 0x20 ADD MLOAD ISZERO ISZERO SWAP1 JUMP JUMPDEST PUSH1 0x0 DUP1 DUP6 PUSH2 0x5858 JUMPI POP DUP3 SWAP1 POP DUP2 PUSH2 0x588D JUMP JUMPDEST DUP4 PUSH2 0x5867 JUMPI POP DUP5 SWAP1 POP DUP4 PUSH2 0x588D JUMP JUMPDEST PUSH2 0x587E PUSH2 0x5874 DUP6 DUP8 PUSH2 0x4659 JUMP JUMPDEST PUSH2 0x42EB DUP9 DUP7 PUSH2 0x4659 JUMP JUMPDEST SWAP2 POP PUSH2 0x588A DUP6 DUP5 PUSH2 0x4659 JUMP JUMPDEST SWAP1 POP JUMPDEST SWAP5 POP SWAP5 SWAP3 POP POP POP JUMP JUMPDEST PUSH1 0x0 DUP1 PUSH2 0x58B4 DUP5 DUP5 PUSH16 0x80000000000000000000000000000000 PUSH2 0x5ADD JUMP JUMPDEST SWAP2 POP SWAP2 POP SWAP3 POP SWAP3 SWAP1 POP JUMP JUMPDEST PUSH1 0xC SLOAD PUSH1 0x0 SWAP1 PUSH2 0x58D0 SWAP1 PUSH1 0x1 PUSH2 0x256B JUMP JUMPDEST SWAP1 POP PUSH2 0x58DA PUSH2 0x5CB0 JUMP JUMPDEST POP PUSH1 0x0 DUP3 DUP2 MSTORE PUSH1 0x15 PUSH1 0x20 SWAP1 DUP2 MSTORE PUSH1 0x40 DUP1 DUP4 KECCAK256 DUP5 DUP5 MSTORE DUP3 MSTORE SWAP2 DUP3 SWAP1 KECCAK256 DUP3 MLOAD PUSH1 0x60 DUP2 ADD DUP5 MSTORE DUP2 SLOAD DUP1 DUP3 MSTORE PUSH1 0x1 DUP4 ADD SLOAD SWAP4 DUP3 ADD SWAP4 SWAP1 SWAP4 MSTORE PUSH1 0x2 SWAP1 SWAP2 ADD SLOAD SWAP3 DUP2 ADD SWAP3 SWAP1 SWAP3 MSTORE ISZERO PUSH2 0x1186 JUMPI PUSH2 0x1186 PUSH2 0x9C4 DUP5 DUP5 PUSH2 0x5B39 JUMP JUMPDEST PUSH1 0x60 PUSH32 0xBD79545F00000000000000000000000000000000000000000000000000000000 DUP4 PUSH1 0x1 DUP2 GT ISZERO PUSH2 0x595C JUMPI INVALID JUMPDEST PUSH1 0x40 DUP1 MLOAD PUSH1 0xFF SWAP1 SWAP3 AND PUSH1 0x24 DUP4 ADD MSTORE PUSH1 0x44 DUP1 DUP4 ADD DUP7 SWAP1 MSTORE DUP2 MLOAD DUP1 DUP5 SUB SWAP1 SWAP2 ADD DUP2 MSTORE PUSH1 0x64 SWAP1 SWAP3 ADD SWAP1 MSTORE PUSH1 0x20 DUP2 ADD DUP1 MLOAD PUSH28 0xFFFFFFFFFFFFFFFFFFFFFFFFFFFFFFFFFFFFFFFFFFFFFFFFFFFFFFFF AND PUSH32 0xFFFFFFFF00000000000000000000000000000000000000000000000000000000 SWAP1 SWAP4 AND SWAP3 SWAP1 SWAP3 OR SWAP1 SWAP2 MSTORE SWAP1 POP SWAP3 SWAP2 POP POP JUMP JUMPDEST PUSH1 0x0 DUP3 ISZERO DUP1 PUSH2 0x59E7 JUMPI POP DUP2 ISZERO JUMPDEST ISZERO PUSH2 0x59F4 JUMPI POP PUSH1 0x0 PUSH2 0x1217 JUMP JUMPDEST POP DUP2 DUP2 MUL DUP2 DUP4 DUP3 DUP2 PUSH2 0x5A02 JUMPI INVALID JUMPDEST SDIV EQ ISZERO DUP1 PUSH2 0x5A19 JUMPI POP DUP3 DUP3 DUP3 DUP2 PUSH2 0x5A15 JUMPI INVALID JUMPDEST SDIV EQ ISZERO JUMPDEST ISZERO PUSH2 0x1217 JUMPI PUSH2 0x1217 PUSH2 0x9C4 PUSH1 0x1 DUP6 DUP6 PUSH2 0x5BAC JUMP JUMPDEST PUSH1 0x0 DUP2 PUSH2 0x5A43 JUMPI PUSH2 0x5A43 PUSH2 0x9C4 PUSH1 0x2 DUP6 DUP6 PUSH2 0x5BAC JUMP JUMPDEST PUSH32 0x8000000000000000000000000000000000000000000000000000000000000000 DUP4 EQ DUP1 ISZERO PUSH2 0x5A91 JUMPI POP DUP2 PUSH32 0xFFFFFFFFFFFFFFFFFFFFFFFFFFFFFFFFFFFFFFFFFFFFFFFFFFFFFFFFFFFFFFFF EQ JUMPDEST ISZERO PUSH2 0x5AA5 JUMPI PUSH2 0x5AA5 PUSH2 0x9C4 PUSH1 0x3 DUP6 DUP6 PUSH2 0x5BAC JUMP JUMPDEST DUP2 DUP4 DUP2 PUSH2 0x57F3 JUMPI INVALID JUMPDEST PUSH1 0x60 PUSH32 0xED2F26A100000000000000000000000000000000000000000000000000000000 DUP4 PUSH1 0x1 DUP2 GT ISZERO PUSH2 0x595C JUMPI INVALID JUMPDEST PUSH1 0x0 DUP1 DUP3 DUP6 GT DUP1 PUSH2 0x5AED JUMPI POP DUP3 DUP5 GT JUMPDEST ISZERO PUSH2 0x5B30 JUMPI PUSH1 0x0 DUP5 DUP7 LT ISZERO PUSH2 0x5B02 JUMPI DUP5 PUSH2 0x5B04 JUMP JUMPDEST DUP6 JUMPDEST SWAP1 POP PUSH2 0x5B10 DUP2 DUP6 PUSH2 0x468A JUMP JUMPDEST SWAP1 POP PUSH2 0x5B1C DUP7 DUP3 PUSH2 0x468A JUMP JUMPDEST SWAP3 POP PUSH2 0x5B28 DUP6 DUP3 PUSH2 0x468A JUMP JUMPDEST SWAP2 POP POP PUSH2 0x33DE JUMP JUMPDEST POP SWAP3 SWAP4 SWAP2 SWAP3 POP POP JUMP JUMPDEST PUSH1 0x40 DUP1 MLOAD PUSH1 0x24 DUP2 ADD DUP5 SWAP1 MSTORE PUSH1 0x44 DUP1 DUP3 ADD DUP5 SWAP1 MSTORE DUP3 MLOAD DUP1 DUP4 SUB SWAP1 SWAP2 ADD DUP2 MSTORE PUSH1 0x64 SWAP1 SWAP2 ADD SWAP1 SWAP2 MSTORE PUSH1 0x20 DUP2 ADD DUP1 MLOAD PUSH28 0xFFFFFFFFFFFFFFFFFFFFFFFFFFFFFFFFFFFFFFFFFFFFFFFFFFFFFFFF AND PUSH32 0x5CAA0B0500000000000000000000000000000000000000000000000000000000 OR SWAP1 MSTORE SWAP3 SWAP2 POP POP JUMP JUMPDEST PUSH1 0x60 PUSH32 0x8C12DFE700000000000000000000000000000000000000000000000000000000 DUP5 PUSH1 0x3 DUP2 GT ISZERO PUSH2 0x5BDB JUMPI INVALID JUMPDEST PUSH1 0x40 DUP1 MLOAD PUSH1 0xFF SWAP1 SWAP3 AND PUSH1 0x24 DUP4 ADD MSTORE PUSH1 0x44 DUP3 ADD DUP7 SWAP1 MSTORE PUSH1 0x64 DUP1 DUP4 ADD DUP7 SWAP1 MSTORE DUP2 MLOAD DUP1 DUP5 SUB SWAP1 SWAP2 ADD DUP2 MSTORE PUSH1 0x84 SWAP1 SWAP3 ADD SWAP1 MSTORE PUSH1 0x20 DUP2 ADD DUP1 MLOAD PUSH28 0xFFFFFFFFFFFFFFFFFFFFFFFFFFFFFFFFFFFFFFFFFFFFFFFFFFFFFFFF AND PUSH32 0xFFFFFFFF00000000000000000000000000000000000000000000000000000000 SWAP1 SWAP4 AND SWAP3 SWAP1 SWAP3 OR SWAP1 SWAP2 MSTORE SWAP1 POP SWAP4 SWAP3 POP POP POP JUMP JUMPDEST PUSH1 0x40 MLOAD DUP1 PUSH1 0xA0 ADD PUSH1 0x40 MSTORE DUP1 PUSH1 0x0 DUP2 MSTORE PUSH1 0x20 ADD PUSH1 0x0 DUP2 MSTORE PUSH1 0x20 ADD PUSH1 0x0 DUP2 MSTORE PUSH1 0x20 ADD PUSH1 0x0 DUP2 MSTORE PUSH1 0x20 ADD PUSH1 0x0 DUP2 MSTORE POP SWAP1 JUMP JUMPDEST PUSH1 0x40 DUP1 MLOAD PUSH1 0x60 DUP2 ADD DUP3 MSTORE PUSH1 0x0 DUP1 DUP3 MSTORE PUSH1 0x20 DUP3 ADD DUP2 SWAP1 MSTORE SWAP2 DUP2 ADD SWAP2 SWAP1 SWAP2 MSTORE SWAP1 JUMP JUMPDEST PUSH1 0x40 MLOAD DUP1 PUSH1 0x60 ADD PUSH1 0x40 MSTORE DUP1 PUSH1 0x0 DUP2 MSTORE PUSH1 0x20 ADD PUSH1 0x0 DUP2 MSTORE PUSH1 0x20 ADD PUSH1 0x0 DUP2 MSTORE POP SWAP1 JUMP JUMPDEST PUSH1 0x40 DUP1 MLOAD PUSH1 0x80 DUP2 ADD DUP3 MSTORE PUSH1 0x0 DUP1 DUP3 MSTORE PUSH1 0x20 DUP3 ADD DUP2 SWAP1 MSTORE SWAP2 DUP2 ADD DUP3 SWAP1 MSTORE PUSH1 0x60 DUP2 ADD SWAP2 SWAP1 SWAP2 MSTORE SWAP1 JUMP JUMPDEST PUSH1 0x40 MLOAD DUP1 PUSH1 0x40 ADD PUSH1 0x40 MSTORE DUP1 PUSH1 0x0 DUP2 MSTORE PUSH1 0x20 ADD PUSH1 0x0 DUP2 MSTORE POP SWAP1 JUMP JUMPDEST DUP1 CALLDATALOAD PUSH1 0x2 DUP2 LT PUSH2 0xD3D JUMPI PUSH1 0x0 DUP1 REVERT JUMPDEST PUSH1 0x0 DUP3 PUSH1 0x1F DUP4 ADD SLT PUSH2 0x5D31 JUMPI DUP1 DUP2 REVERT JUMPDEST DUP2 MLOAD PUSH8 0xFFFFFFFFFFFFFFFF DUP1 DUP3 GT ISZERO PUSH2 0x5D46 JUMPI INVALID JUMPDEST PUSH1 0x40 MLOAD PUSH1 0x20 DUP1 PUSH32 0xFFFFFFFFFFFFFFFFFFFFFFFFFFFFFFFFFFFFFFFFFFFFFFFFFFFFFFFFFFFFFFE0 PUSH1 0x1F DUP7 ADD AND DUP4 ADD ADD DUP3 DUP2 LT DUP5 DUP3 GT OR ISZERO PUSH2 0x5D83 JUMPI INVALID JUMPDEST DUP1 PUSH1 0x40 MSTORE POP DUP2 SWAP5 POP DUP4 DUP3 MSTORE DUP7 DUP2 DUP6 DUP9 ADD ADD GT ISZERO PUSH2 0x5D9F JUMPI PUSH1 0x0 DUP1 REVERT JUMPDEST PUSH1 0x0 SWAP3 POP JUMPDEST DUP4 DUP4 LT ISZERO PUSH2 0x5DC1 JUMPI DUP6 DUP4 ADD DUP2 ADD MLOAD DUP3 DUP5 ADD DUP3 ADD MSTORE SWAP2 DUP3 ADD SWAP2 PUSH2 0x5DA4 JUMP JUMPDEST DUP4 DUP4 GT ISZERO PUSH2 0x5DD2 JUMPI PUSH1 0x0 DUP2 DUP6 DUP5 ADD ADD MSTORE JUMPDEST POP POP POP POP SWAP3 SWAP2 POP POP JUMP JUMPDEST PUSH1 0x0 PUSH1 0x40 DUP3 DUP5 SUB SLT ISZERO PUSH2 0x2845 JUMPI DUP1 DUP2 REVERT JUMPDEST DUP1 CALLDATALOAD PUSH4 0xFFFFFFFF DUP2 AND DUP2 EQ PUSH2 0xD3D JUMPI PUSH1 0x0 DUP1 REVERT JUMPDEST PUSH1 0x0 PUSH1 0x20 DUP3 DUP5 SUB SLT ISZERO PUSH2 0x5E12 JUMPI DUP1 DUP2 REVERT JUMPDEST DUP2 CALLDATALOAD PUSH2 0x1214 DUP2 PUSH2 0x6493 JUMP JUMPDEST PUSH1 0x0 PUSH1 0x20 DUP3 DUP5 SUB SLT ISZERO PUSH2 0x5E2E JUMPI DUP1 DUP2 REVERT JUMPDEST DUP2 MLOAD PUSH2 0x1214 DUP2 PUSH2 0x6493 JUMP JUMPDEST PUSH1 0x0 DUP1 PUSH1 0x40 DUP4 DUP6 SUB SLT ISZERO PUSH2 0x5E4B JUMPI DUP1 DUP2 REVERT JUMPDEST DUP3 CALLDATALOAD PUSH2 0x5E56 DUP2 PUSH2 0x6493 JUMP JUMPDEST SWAP5 PUSH1 0x20 SWAP4 SWAP1 SWAP4 ADD CALLDATALOAD SWAP4 POP POP POP JUMP JUMPDEST PUSH1 0x0 DUP1 PUSH1 0x40 DUP4 DUP6 SUB SLT ISZERO PUSH2 0x5E76 JUMPI DUP2 DUP3 REVERT JUMPDEST DUP3 CALLDATALOAD PUSH2 0x5E81 DUP2 PUSH2 0x6493 JUMP JUMPDEST SWAP2 POP PUSH2 0x5E8F PUSH1 0x20 DUP5 ADD PUSH2 0x5D12 JUMP JUMPDEST SWAP1 POP SWAP3 POP SWAP3 SWAP1 POP JUMP JUMPDEST PUSH1 0x0 DUP1 PUSH1 0x0 DUP1 PUSH1 0x0 DUP1 PUSH1 0xC0 DUP8 DUP10 SUB SLT ISZERO PUSH2 0x5EB0 JUMPI DUP2 DUP3 REVERT JUMPDEST DUP7 MLOAD PUSH2 0x5EBB DUP2 PUSH2 0x6493 JUMP JUMPDEST PUSH1 0x20 DUP9 ADD MLOAD SWAP1 SWAP7 POP PUSH8 0xFFFFFFFFFFFFFFFF DUP1 DUP3 GT ISZERO PUSH2 0x5ED8 JUMPI DUP4 DUP5 REVERT JUMPDEST PUSH2 0x5EE4 DUP11 DUP4 DUP12 ADD PUSH2 0x5D21 JUMP JUMPDEST SWAP7 POP PUSH1 0x40 DUP10 ADD MLOAD SWAP2 POP DUP1 DUP3 GT ISZERO PUSH2 0x5EF9 JUMPI DUP4 DUP5 REVERT JUMPDEST POP PUSH2 0x5F06 DUP10 DUP3 DUP11 ADD PUSH2 0x5D21 JUMP JUMPDEST SWAP5 POP POP PUSH1 0x60 DUP8 ADD MLOAD SWAP3 POP PUSH1 0x80 DUP8 ADD MLOAD PUSH2 0x5F1E DUP2 PUSH2 0x6493 JUMP JUMPDEST PUSH1 0xA0 DUP9 ADD MLOAD SWAP1 SWAP3 POP PUSH2 0x5F2F DUP2 PUSH2 0x6493 JUMP JUMPDEST DUP1 SWAP2 POP POP SWAP3 SWAP6 POP SWAP3 SWAP6 POP SWAP3 SWAP6 JUMP JUMPDEST PUSH1 0x0 DUP1 PUSH1 0x40 DUP4 DUP6 SUB SLT ISZERO PUSH2 0x5E4B JUMPI DUP2 DUP3 REVERT JUMPDEST PUSH1 0x0 PUSH1 0x20 DUP3 DUP5 SUB SLT ISZERO PUSH2 0x5F60 JUMPI DUP1 DUP2 REVERT JUMPDEST DUP2 MLOAD DUP1 ISZERO ISZERO DUP2 EQ PUSH2 0x1214 JUMPI DUP2 DUP3 REVERT JUMPDEST PUSH1 0x0 PUSH1 0x20 DUP3 DUP5 SUB SLT ISZERO PUSH2 0x5F80 JUMPI DUP1 DUP2 REVERT JUMPDEST POP CALLDATALOAD SWAP2 SWAP1 POP JUMP JUMPDEST PUSH1 0x0 DUP1 PUSH1 0x40 DUP4 DUP6 SUB SLT ISZERO PUSH2 0x5F99 JUMPI DUP2 DUP3 REVERT JUMPDEST DUP3 CALLDATALOAD SWAP2 POP PUSH1 0x20 DUP4 ADD CALLDATALOAD PUSH2 0x5FAB DUP2 PUSH2 0x6493 JUMP JUMPDEST DUP1 SWAP2 POP POP SWAP3 POP SWAP3 SWAP1 POP JUMP JUMPDEST PUSH1 0x0 DUP1 PUSH1 0x40 DUP4 DUP6 SUB SLT ISZERO PUSH2 0x5FC8 JUMPI DUP2 DUP3 REVERT JUMPDEST POP POP DUP1 CALLDATALOAD SWAP3 PUSH1 0x20 SWAP1 SWAP2 ADD CALLDATALOAD SWAP2 POP JUMP JUMPDEST PUSH1 0x0 DUP1 PUSH1 0x40 DUP4 DUP6 SUB SLT ISZERO PUSH2 0x5FE9 JUMPI DUP2 DUP3 REVERT JUMPDEST DUP3 CALLDATALOAD SWAP2 POP PUSH2 0x5E8F PUSH1 0x20 DUP5 ADD PUSH2 0x5DED JUMP JUMPDEST PUSH1 0x0 PUSH1 0x20 DUP3 DUP5 SUB SLT ISZERO PUSH2 0x600A JUMPI DUP1 DUP2 REVERT JUMPDEST PUSH2 0x1214 DUP3 PUSH2 0x5D12 JUMP JUMPDEST PUSH1 0x0 DUP1 PUSH1 0x0 PUSH1 0xA0 DUP5 DUP7 SUB SLT ISZERO PUSH2 0x6027 JUMPI DUP3 DUP4 REVERT JUMPDEST PUSH2 0x6031 DUP6 DUP6 PUSH2 0x5DDC JUMP JUMPDEST SWAP3 POP PUSH2 0x6040 DUP6 PUSH1 0x40 DUP7 ADD PUSH2 0x5DDC JUMP JUMPDEST SWAP2 POP PUSH1 0x80 DUP5 ADD CALLDATALOAD SWAP1 POP SWAP3 POP SWAP3 POP SWAP3 JUMP JUMPDEST PUSH1 0x0 PUSH1 0x20 DUP3 DUP5 SUB SLT ISZERO PUSH2 0x6061 JUMPI DUP1 DUP2 REVERT JUMPDEST POP MLOAD SWAP2 SWAP1 POP JUMP JUMPDEST PUSH1 0x0 DUP1 PUSH1 0x0 DUP1 PUSH1 0x0 DUP1 PUSH1 0xC0 DUP8 DUP10 SUB SLT ISZERO PUSH2 0x6080 JUMPI DUP4 DUP5 REVERT JUMPDEST DUP7 MLOAD SWAP6 POP PUSH1 0x20 DUP8 ADD MLOAD PUSH8 0xFFFFFFFFFFFFFFFF DUP1 DUP3 GT ISZERO PUSH2 0x609E JUMPI DUP6 DUP7 REVERT JUMPDEST PUSH2 0x60AA DUP11 DUP4 DUP12 ADD PUSH2 0x5D21 JUMP JUMPDEST SWAP7 POP PUSH1 0x40 DUP10 ADD MLOAD SWAP2 POP DUP1 DUP3 GT ISZERO PUSH2 0x5EF9 JUMPI DUP6 DUP7 REVERT JUMPDEST PUSH1 0x0 DUP1 PUSH1 0x0 DUP1 PUSH1 0x0 PUSH1 0xA0 DUP7 DUP9 SUB SLT ISZERO PUSH2 0x60D6 JUMPI DUP3 DUP4 REVERT JUMPDEST DUP6 CALLDATALOAD SWAP5 POP PUSH2 0x60E6 PUSH1 0x20 DUP8 ADD PUSH2 0x5DED JUMP JUMPDEST SWAP4 POP PUSH1 0x40 DUP7 ADD CALLDATALOAD SWAP3 POP PUSH2 0x60FB PUSH1 0x60 DUP8 ADD PUSH2 0x5DED JUMP JUMPDEST SWAP2 POP PUSH2 0x6109 PUSH1 0x80 DUP8 ADD PUSH2 0x5DED JUMP JUMPDEST SWAP1 POP SWAP3 SWAP6 POP SWAP3 SWAP6 SWAP1 SWAP4 POP JUMP JUMPDEST PUSH20 0xFFFFFFFFFFFFFFFFFFFFFFFFFFFFFFFFFFFFFFFF SWAP2 SWAP1 SWAP2 AND DUP2 MSTORE PUSH1 0x20 ADD SWAP1 JUMP JUMPDEST PUSH20 0xFFFFFFFFFFFFFFFFFFFFFFFFFFFFFFFFFFFFFFFF SWAP3 SWAP1 SWAP3 AND DUP3 MSTORE PUSH1 0x20 DUP3 ADD MSTORE PUSH1 0x40 ADD SWAP1 JUMP JUMPDEST PUSH1 0x20 DUP1 DUP3 MSTORE DUP3 MLOAD DUP3 DUP3 ADD DUP2 SWAP1 MSTORE PUSH1 0x0 SWAP2 SWAP1 DUP5 DUP3 ADD SWAP1 PUSH1 0x40 DUP6 ADD SWAP1 DUP5 JUMPDEST DUP2 DUP2 LT ISZERO PUSH2 0x61AA JUMPI DUP4 MLOAD PUSH20 0xFFFFFFFFFFFFFFFFFFFFFFFFFFFFFFFFFFFFFFFF AND DUP4 MSTORE SWAP3 DUP5 ADD SWAP3 SWAP2 DUP5 ADD SWAP2 PUSH1 0x1 ADD PUSH2 0x6178 JUMP JUMPDEST POP SWAP1 SWAP7 SWAP6 POP POP POP POP POP POP JUMP JUMPDEST SWAP1 ISZERO ISZERO DUP2 MSTORE PUSH1 0x20 ADD SWAP1 JUMP JUMPDEST SWAP1 DUP2 MSTORE PUSH1 0x20 ADD SWAP1 JUMP JUMPDEST SWAP3 DUP4 MSTORE PUSH20 0xFFFFFFFFFFFFFFFFFFFFFFFFFFFFFFFFFFFFFFFF SWAP2 SWAP1 SWAP2 AND PUSH1 0x20 DUP4 ADD MSTORE PUSH4 0xFFFFFFFF AND PUSH1 0x40 DUP3 ADD MSTORE PUSH1 0x60 ADD SWAP1 JUMP JUMPDEST SWAP2 DUP3 MSTORE PUSH1 0x20 DUP3 ADD MSTORE PUSH1 0x40 ADD SWAP1 JUMP JUMPDEST PUSH1 0x20 DUP1 DUP3 MSTORE PUSH1 0x1C SWAP1 DUP3 ADD MSTORE PUSH32 0x4E4F4E5F524547495354455245445F504F4F4C5F49445F4552524F5200000000 PUSH1 0x40 DUP3 ADD MSTORE PUSH1 0x60 ADD SWAP1 JUMP JUMPDEST PUSH1 0x20 DUP1 DUP3 MSTORE PUSH1 0x1E SWAP1 DUP3 ADD MSTORE PUSH32 0x46494E414C495A45525F4D494E545F494E464C4154494F4E5F4552524F520000 PUSH1 0x40 DUP3 ADD MSTORE PUSH1 0x60 ADD SWAP1 JUMP JUMPDEST PUSH1 0x20 DUP1 DUP3 MSTORE PUSH1 0x1B SWAP1 DUP3 ADD MSTORE PUSH32 0x504F4F4C5F544F5F4A4F494E5F4E4F545F53454C465F4552524F520000000000 PUSH1 0x40 DUP3 ADD MSTORE PUSH1 0x60 ADD SWAP1 JUMP JUMPDEST PUSH1 0x20 DUP1 DUP3 MSTORE PUSH1 0x1C SWAP1 DUP3 ADD MSTORE PUSH32 0x4E4F4E5F524547495354455245445F52425F504F4F4C5F4552524F5200000000 PUSH1 0x40 DUP3 ADD MSTORE PUSH1 0x60 ADD SWAP1 JUMP JUMPDEST PUSH1 0x20 DUP1 DUP3 MSTORE PUSH1 0x13 SWAP1 DUP3 ADD MSTORE PUSH32 0x43525F494E54455256414C5F494E56414C494400000000000000000000000000 PUSH1 0x40 DUP3 ADD MSTORE PUSH1 0x60 ADD SWAP1 JUMP JUMPDEST DUP2 MLOAD DUP2 MSTORE PUSH1 0x20 DUP1 DUP4 ADD MLOAD SWAP1 DUP3 ADD MSTORE PUSH1 0x40 SWAP2 DUP3 ADD MLOAD SWAP2 DUP2 ADD SWAP2 SWAP1 SWAP2 MSTORE PUSH1 0x60 ADD SWAP1 JUMP JUMPDEST PUSH1 0x0 PUSH1 0x80 DUP3 ADD SWAP1 POP PUSH20 0xFFFFFFFFFFFFFFFFFFFFFFFFFFFFFFFFFFFFFFFF DUP1 DUP5 MLOAD AND DUP4 MSTORE DUP1 PUSH1 0x20 DUP6 ADD MLOAD AND PUSH1 0x20 DUP5 ADD MSTORE POP PUSH1 0x40 DUP4 ADD MLOAD PUSH4 0xFFFFFFFF DUP1 DUP3 AND PUSH1 0x40 DUP6 ADD MSTORE DUP1 PUSH1 0x60 DUP7 ADD MLOAD AND PUSH1 0x60 DUP6 ADD MSTORE POP POP SWAP3 SWAP2 POP POP JUMP JUMPDEST DUP2 MLOAD PUSH8 0xFFFFFFFFFFFFFFFF AND DUP2 MSTORE PUSH1 0x20 DUP1 DUP4 ADD MLOAD PUSH12 0xFFFFFFFFFFFFFFFFFFFFFFFF SWAP1 DUP2 AND SWAP2 DUP4 ADD SWAP2 SWAP1 SWAP2 MSTORE PUSH1 0x40 SWAP3 DUP4 ADD MLOAD AND SWAP2 DUP2 ADD SWAP2 SWAP1 SWAP2 MSTORE PUSH1 0x60 ADD SWAP1 JUMP JUMPDEST SWAP3 DUP4 MSTORE PUSH1 0x20 DUP4 ADD SWAP2 SWAP1 SWAP2 MSTORE PUSH1 0x40 DUP3 ADD MSTORE PUSH1 0x60 ADD SWAP1 JUMP JUMPDEST SWAP4 DUP5 MSTORE PUSH1 0x20 DUP5 ADD SWAP3 SWAP1 SWAP3 MSTORE PUSH1 0x40 DUP4 ADD MSTORE PUSH1 0x60 DUP3 ADD MSTORE PUSH1 0x80 ADD SWAP1 JUMP JUMPDEST SWAP5 DUP6 MSTORE PUSH1 0x20 DUP6 ADD SWAP4 SWAP1 SWAP4 MSTORE PUSH1 0x40 DUP5 ADD SWAP2 SWAP1 SWAP2 MSTORE PUSH1 0x60 DUP4 ADD MSTORE PUSH1 0x80 DUP3 ADD MSTORE PUSH1 0xA0 ADD SWAP1 JUMP JUMPDEST SWAP5 DUP6 MSTORE PUSH4 0xFFFFFFFF SWAP4 DUP5 AND PUSH1 0x20 DUP7 ADD MSTORE PUSH1 0x40 DUP6 ADD SWAP3 SWAP1 SWAP3 MSTORE DUP3 AND PUSH1 0x60 DUP5 ADD MSTORE AND PUSH1 0x80 DUP3 ADD MSTORE PUSH1 0xA0 ADD SWAP1 JUMP JUMPDEST SWAP3 DUP4 MSTORE PUSH1 0xFF SWAP2 DUP3 AND PUSH1 0x20 DUP5 ADD MSTORE AND PUSH1 0x40 DUP3 ADD MSTORE PUSH1 0x60 ADD SWAP1 JUMP JUMPDEST PUSH4 0xFFFFFFFF SWAP2 SWAP1 SWAP2 AND DUP2 MSTORE PUSH1 0x20 ADD SWAP1 JUMP JUMPDEST PUSH4 0xFFFFFFFF SWAP3 DUP4 AND DUP2 MSTORE SWAP2 AND PUSH1 0x20 DUP3 ADD MSTORE PUSH1 0x40 ADD SWAP1 JUMP JUMPDEST PUSH20 0xFFFFFFFFFFFFFFFFFFFFFFFFFFFFFFFFFFFFFFFF DUP2 AND DUP2 EQ PUSH2 0x11BB JUMPI PUSH1 0x0 DUP1 REVERT INVALID LOG2 PUSH5 0x6970667358 0x22 SLT KECCAK256 0x28 0x5C PUSH6 0x53AC9D3C9E24 0x5D INVALID 0xA6 0xE0 SWAP8 STOP 0xA9 0xBF SLT MULMOD 0xE4 0x4F 0xC8 0xAC SWAP14 0xB5 PUSH2 0xA197 PC JUMPDEST 0xF8 SWAP15 PUSH5 0x736F6C6343 STOP SMOD DIV STOP CALLER "
			}
		}
	},
	"sourceTreeHashHex": "0x4a0043aee3c57c3636edb0df2c2b88f1691d047ea30a60f369072eb0a06871a7",
	"compiler": {
		"name": "solc",
		"version": "0.7.4+commit.3f05b770",
		"settings": {
			"remappings": [],
			"optimizer": {
				"enabled": true,
				"runs": 1000000
			},
			"outputSelection": {
				"*": {
					"*": [
						"abi",
						"devdoc",
						"evm.bytecode.object",
						"evm.bytecode.sourceMap",
						"evm.deployedBytecode.object",
						"evm.deployedBytecode.sourceMap"
					]
				}
			}
		}
	},
	"chains": {}
}