{
	"schemaVersion": "2.0.0",
	"contractName": "StakingProxy",
	"compilerOutput": {
		"abi": [
			{
				"constant": true,
				"inputs": [
					{
						"name": "",
						"type": "bytes32"
					},
					{
						"name": "",
						"type": "uint256"
					}
				],
				"name": "poolStatsByEpoch",
				"outputs": [
					{
						"name": "feesCollected",
						"type": "uint256"
					},
					{
						"name": "weightedStake",
						"type": "uint256"
					},
					{
						"name": "membersStake",
						"type": "uint256"
					}
				],
				"payable": false,
				"stateMutability": "view",
				"type": "function"
			},
			{
				"constant": false,
				"inputs": [],
				"name": "detachStakingContract",
				"outputs": [],
				"payable": false,
				"stateMutability": "nonpayable",
				"type": "function"
			},
			{
				"constant": true,
				"inputs": [
					{
						"name": "",
						"type": "uint256"
					}
				],
				"name": "aggregatedStatsByEpoch",
				"outputs": [
					{
						"name": "rewardsAvailable",
						"type": "uint256"
					},
					{
						"name": "numPoolsToFinalize",
						"type": "uint256"
					},
					{
						"name": "totalFeesCollected",
						"type": "uint256"
					},
					{
						"name": "totalWeightedStake",
						"type": "uint256"
					},
					{
						"name": "totalRewardsFinalized",
						"type": "uint256"
					}
				],
				"payable": false,
				"stateMutability": "view",
				"type": "function"
			},
			{
				"constant": false,
				"inputs": [
					{
						"name": "target",
						"type": "address"
					}
				],
				"name": "addAuthorizedAddress",
				"outputs": [],
				"payable": false,
				"stateMutability": "nonpayable",
				"type": "function"
			},
			{
				"constant": true,
				"inputs": [
					{
						"name": "",
						"type": "uint256"
					}
				],
				"name": "authorities",
				"outputs": [
					{
						"name": "",
						"type": "address"
					}
				],
				"payable": false,
				"stateMutability": "view",
				"type": "function"
			},
			{
				"constant": true,
				"inputs": [
					{
						"name": "",
						"type": "address"
					}
				],
				"name": "validPops",
				"outputs": [
					{
						"name": "",
						"type": "bool"
					}
				],
				"payable": false,
				"stateMutability": "view",
				"type": "function"
			},
			{
				"constant": true,
				"inputs": [],
				"name": "currentEpochStartTimeInSeconds",
				"outputs": [
					{
						"name": "",
						"type": "uint256"
					}
				],
				"payable": false,
				"stateMutability": "view",
				"type": "function"
			},
			{
				"constant": true,
				"inputs": [],
				"name": "epochDurationInSeconds",
				"outputs": [
					{
						"name": "",
						"type": "uint256"
					}
				],
				"payable": false,
				"stateMutability": "view",
				"type": "function"
			},
			{
				"constant": false,
				"inputs": [
					{
						"name": "_stakingContract",
						"type": "address"
					}
				],
				"name": "attachStakingContract",
				"outputs": [],
				"payable": false,
				"stateMutability": "nonpayable",
				"type": "function"
			},
			{
				"constant": false,
				"inputs": [
					{
						"name": "target",
						"type": "address"
					}
				],
				"name": "removeAuthorizedAddress",
				"outputs": [],
				"payable": false,
				"stateMutability": "nonpayable",
				"type": "function"
			},
			{
				"constant": true,
				"inputs": [],
				"name": "currentEpoch",
				"outputs": [
					{
						"name": "",
						"type": "uint256"
					}
				],
				"payable": false,
				"stateMutability": "view",
				"type": "function"
			},
			{
				"constant": true,
				"inputs": [
					{
						"name": "",
						"type": "address"
					}
				],
				"name": "poolIdByRbPoolAccount",
				"outputs": [
					{
						"name": "",
						"type": "bytes32"
					}
				],
				"payable": false,
				"stateMutability": "view",
				"type": "function"
			},
			{
				"constant": true,
				"inputs": [],
				"name": "cobbDouglasAlphaNumerator",
				"outputs": [
					{
						"name": "",
						"type": "uint32"
					}
				],
				"payable": false,
				"stateMutability": "view",
				"type": "function"
			},
			{
				"constant": false,
				"inputs": [
					{
						"name": "data",
						"type": "bytes[]"
					}
				],
				"name": "batchExecute",
				"outputs": [
					{
						"name": "batchReturnData",
						"type": "bytes[]"
					}
				],
				"payable": false,
				"stateMutability": "nonpayable",
				"type": "function"
			},
			{
				"constant": true,
				"inputs": [],
				"name": "owner",
				"outputs": [
					{
						"name": "",
						"type": "address"
					}
				],
				"payable": false,
				"stateMutability": "view",
				"type": "function"
			},
			{
				"constant": false,
				"inputs": [
					{
						"name": "target",
						"type": "address"
					},
					{
						"name": "index",
						"type": "uint256"
					}
				],
				"name": "removeAuthorizedAddressAtIndex",
				"outputs": [],
				"payable": false,
				"stateMutability": "nonpayable",
				"type": "function"
			},
			{
				"constant": true,
				"inputs": [],
				"name": "minimumPoolStake",
				"outputs": [
					{
						"name": "",
						"type": "uint256"
					}
				],
				"payable": false,
				"stateMutability": "view",
				"type": "function"
			},
			{
				"constant": true,
				"inputs": [],
				"name": "lastPoolId",
				"outputs": [
					{
						"name": "",
						"type": "bytes32"
					}
				],
				"payable": false,
				"stateMutability": "view",
				"type": "function"
			},
			{
				"constant": true,
				"inputs": [],
				"name": "wethReservedForPoolRewards",
				"outputs": [
					{
						"name": "",
						"type": "uint256"
					}
				],
				"payable": false,
				"stateMutability": "view",
				"type": "function"
			},
			{
				"constant": true,
				"inputs": [
					{
						"name": "",
						"type": "address"
					}
				],
				"name": "authorized",
				"outputs": [
					{
						"name": "",
						"type": "bool"
					}
				],
				"payable": false,
				"stateMutability": "view",
				"type": "function"
			},
			{
				"constant": true,
				"inputs": [
					{
						"name": "",
						"type": "bytes32"
					}
				],
				"name": "rewardsByPoolId",
				"outputs": [
					{
						"name": "",
						"type": "uint256"
					}
				],
				"payable": false,
				"stateMutability": "view",
				"type": "function"
			},
			{
				"constant": true,
				"inputs": [],
				"name": "assertValidStorageParams",
				"outputs": [],
				"payable": false,
				"stateMutability": "view",
				"type": "function"
			},
			{
				"constant": true,
				"inputs": [
					{
						"name": "",
						"type": "bytes32"
					},
					{
						"name": "",
						"type": "uint256"
					}
				],
				"name": "rigoblockOperatorPoolAccounts",
				"outputs": [
					{
						"name": "",
						"type": "address"
					}
				],
				"payable": false,
				"stateMutability": "view",
				"type": "function"
			},
			{
				"constant": true,
				"inputs": [],
				"name": "getAuthorizedAddresses",
				"outputs": [
					{
						"name": "",
						"type": "address[]"
					}
				],
				"payable": false,
				"stateMutability": "view",
				"type": "function"
			},
			{
				"constant": true,
				"inputs": [],
				"name": "rewardDelegatedStakeWeight",
				"outputs": [
					{
						"name": "",
						"type": "uint32"
					}
				],
				"payable": false,
				"stateMutability": "view",
				"type": "function"
			},
			{
				"constant": true,
				"inputs": [],
				"name": "cobbDouglasAlphaDenominator",
				"outputs": [
					{
						"name": "",
						"type": "uint32"
					}
				],
				"payable": false,
				"stateMutability": "view",
				"type": "function"
			},
			{
				"constant": true,
				"inputs": [],
				"name": "stakingContract",
				"outputs": [
					{
						"name": "",
						"type": "address"
					}
				],
				"payable": false,
				"stateMutability": "view",
				"type": "function"
			},
			{
				"constant": false,
				"inputs": [
					{
						"name": "newOwner",
						"type": "address"
					}
				],
				"name": "transferOwnership",
				"outputs": [],
				"payable": false,
				"stateMutability": "nonpayable",
				"type": "function"
			},
			{
				"inputs": [
					{
						"name": "_stakingContract",
						"type": "address"
					}
				],
				"payable": false,
				"stateMutability": "nonpayable",
				"type": "constructor"
			},
			{
				"payable": true,
				"stateMutability": "payable",
				"type": "fallback"
			},
			{
				"anonymous": false,
				"inputs": [
					{
						"indexed": true,
						"name": "target",
						"type": "address"
					},
					{
						"indexed": true,
						"name": "caller",
						"type": "address"
					}
				],
				"name": "AuthorizedAddressAdded",
				"type": "event"
			},
			{
				"anonymous": false,
				"inputs": [
					{
						"indexed": true,
						"name": "target",
						"type": "address"
					},
					{
						"indexed": true,
						"name": "caller",
						"type": "address"
					}
				],
				"name": "AuthorizedAddressRemoved",
				"type": "event"
			},
			{
				"anonymous": false,
				"inputs": [
					{
						"indexed": true,
						"name": "previousOwner",
						"type": "address"
					},
					{
						"indexed": true,
						"name": "newOwner",
						"type": "address"
					}
				],
				"name": "OwnershipTransferred",
				"type": "event"
			},
			{
				"anonymous": false,
				"inputs": [
					{
						"indexed": false,
						"name": "newStakingContractAddress",
						"type": "address"
					}
				],
				"name": "StakingContractAttachedToProxy",
				"type": "event"
			},
			{
				"anonymous": false,
				"inputs": [],
				"name": "StakingContractDetachedFromProxy",
				"type": "event"
			}
		],
		"devdoc": {
			"methods": {
				"addAuthorizedAddress(address)": {
					"details": "Authorizes an address.",
					"params": {
						"target": "Address to authorize."
					}
				},
				"assertValidStorageParams()": {
					"details": "Asserts that an epoch is between 5 and 30 days long."
				},
				"attachStakingContract(address)": {
					"details": "Attach a staking contract; future calls will be delegated to the staking contract. Note that this is callable only by an authorized address.",
					"params": {
						"_stakingContract": "Address of staking contract."
					}
				},
				"batchExecute(bytes[])": {
					"details": "Batch executes a series of calls to the staking contract.",
					"params": {
						"data": "An array of data that encodes a sequence of functions to             call in the staking contracts."
					}
				},
				"constructor": {
					"details": "Constructor.",
					"params": {
						"_stakingContract": "Staking contract to delegate calls to."
					}
				},
				"detachStakingContract()": {
					"details": "Detach the current staking contract. Note that this is callable only by an authorized address."
				},
				"getAuthorizedAddresses()": {
					"details": "Gets all authorized addresses.",
					"return": "Array of authorized addresses."
				},
				"removeAuthorizedAddress(address)": {
					"details": "Removes authorizion of an address.",
					"params": {
						"target": "Address to remove authorization from."
					}
				},
				"removeAuthorizedAddressAtIndex(address,uint256)": {
					"details": "Removes authorizion of an address.",
					"params": {
						"index": "Index of target in authorities array.",
						"target": "Address to remove authorization from."
					}
				},
				"transferOwnership(address)": {
					"details": "Change the owner of this contract.",
					"params": {
						"newOwner": "New owner address."
					}
				}
			}
		},
		"evm": {
			"bytecode": {
				"linkReferences": {},
				"object": "0x60806040523480156200001157600080fd5b50604051620021d8380380620021d8833981016040819052620000349162000728565b600080546001600160a01b031916339081179091556200005d906001600160e01b036200008e16565b62000071816001600160e01b036200019116565b620000873360006001600160e01b03620002b716565b506200088e565b6001600160a01b038116620000c757620000c7620000b66200046060201b6200134d1760201c565b6200049860201b620006061760201c565b6001600160a01b03811660009081526001602052604090205460ff1615620001035762000103620000b682620004a060201b620013841760201c565b6001600160a01b0381166000818152600160208190526040808320805460ff19168317905560028054928301815583527f405787fa12a823e0f2b7631cc41b3ba8828b3321ca811111fa75cd3aa3bb5ace90910180546001600160a01b03191684179055513392917f3147867c59d17e8fa9d522465651d44aae0a9e38f902f3475b97e58072f0ed4c91a350565b600380546001600160a01b0319166001600160a01b0383161790556040517f048368388f801041f7690185c4e28b6f3505c740c47be8ac104b55df666bfc8490620001de908390620007c2565b60405180910390a160035460408051600481526024810182526020810180516001600160e01b03167fe1c7392a0000000000000000000000000000000000000000000000000000000017905290516000926060926001600160a01b03909116916200024a9190620007ad565b600060405180830381855af49150503d806000811462000287576040519150601f19603f3d011682016040523d82523d6000602084013e6200028c565b606091505b5091509150816200029f57805160208201fd5b620002b26001600160e01b036200050e16565b505050565b6001600160a01b03821660009081526001602052604090205460ff16620002f257620002f2620000b683620005e960201b62000f2c1760201c565b60025481106200031c576200031c620000b6826002805490506200060660201b6200139f1760201c565b816001600160a01b0316600282815481106200033457fe5b6000918252602090912001546001600160a01b0316146200038d576200038d620000b6600283815481106200036557fe5b600091825260209182902001546001600160a01b0316908590620013bc62000678821b17901c565b6001600160a01b0382166000908152600160205260409020805460ff19169055600280546000198101908110620003c057fe5b600091825260209091200154600280546001600160a01b039092169183908110620003e757fe5b600091825260209091200180546001600160a01b0319166001600160a01b0392909216919091179055600280546000190190620004259082620006d9565b5060405133906001600160a01b038416907f1f32c1b084e2de0713b8fb16bd46bb9df710a3dbeae2f3ca93af46e016dcc6b090600090a35050565b60408051808201909152600481527f57654fe40000000000000000000000000000000000000000000000000000000060208201525b90565b805160208201fd5b606063de16f1a060e01b82604051602401620004bd9190620007c2565b60408051601f198184030181529190526020810180516001600160e01b03167fffffffff00000000000000000000000000000000000000000000000000000000909316929092179091529050919050565b6012546206978081108062000525575062278d0081115b15620005465762000546620000b660046200069760201b6200121a1760201c565b60155463ffffffff6401000000008204811691168110806200056c575063ffffffff8116155b156200058d576200058d620000b660006200069760201b6200121a1760201c565b601354620f424063ffffffff9091161115620005be57620005be620000b660016200069760201b6200121a1760201c565b60026014541015620005e557620005e5620000b660036200069760201b6200121a1760201c565b5050565b606063eb5108a260e01b82604051602401620004bd9190620007c2565b606063e9f8377160e01b838360405160240162000625929190620007f1565b60408051601f198184030181529190526020810180516001600160e01b03167fffffffff000000000000000000000000000000000000000000000000000000009093169290921790915290505b92915050565b606063140a84db60e01b838360405160240162000625929190620007d2565b60607ffc45bd1100000000000000000000000000000000000000000000000000000000826004811115620006c757fe5b604051602401620004bd919062000810565b815481835581811115620002b257600083815260209020620002b29181019083016200049591905b8082111562000717576000815560010162000701565b5090565b8051620006728162000874565b6000602082840312156200073b57600080fd5b60006200074984846200071b565b949350505050565b6200075c8162000829565b82525050565b60006200076f8262000820565b6200077b818562000824565b93506200078d81856020860162000841565b9290920192915050565b6200075c8162000495565b6200075c816200083b565b6000620007bb828462000762565b9392505050565b6020810162000672828462000751565b60408101620007e2828562000751565b620007bb602083018462000751565b6040810162000801828562000797565b620007bb602083018462000797565b60208101620006728284620007a2565b5190565b919050565b60006001600160a01b03821662000672565b60ff1690565b60005b838110156200085e57818101518382015260200162000844565b838111156200086e576000848401525b50505050565b6200087f8162000829565b81146200088b57600080fd5b50565b61193a806200089e6000396000f3fe6080604052600436106101b75760003560e01c80638da5cb5b116100ec578063c6f3a4271161008a578063e0ee036e11610064578063e0ee036e1461056f578063e8eeb3f814610584578063ee99205c14610599578063f2fde38b146105ae576101b7565b8063c6f3a42714610518578063c77b62cb1461052d578063d39de6e91461054d576101b7565b8063a657e579116100c6578063a657e579146104ae578063b0531524146104c3578063b9181611146104d8578063c18c9141146104f8576101b7565b80638da5cb5b146104645780639ad2674414610479578063a26171e214610499576101b7565b80636340380111610159578063766718081161013357806376671808146103e05780637fa140c7146103f55780638166679614610415578063856a65eb14610437576101b7565b8063634038011461038b57806366615d56146103a057806370712939146103c0576101b7565b806342f1181e1161019557806342f1181e146102ef578063494503d41461030f578063540c2d531461033c578063587da02314610369576101b7565b80632a94c2791461026f57806337b006a6146102a757806338229d93146102be575b60035473ffffffffffffffffffffffffffffffffffffffff16806101e5576101e56101e06105ce565b610606565b600060608273ffffffffffffffffffffffffffffffffffffffff166000366040516102119291906116fb565b600060405180830381855af49150503d806000811461024c576040519150601f19603f3d011682016040523d82523d6000602084013e610251565b606091505b5091509150816000811461026757815182602001f35b815182602001fd5b34801561027b57600080fd5b5061028f61028a366004611535565b61060e565b60405161029e93929190611796565b60405180910390f35b3480156102b357600080fd5b506102bc61063a565b005b3480156102ca57600080fd5b506102de6102d9366004611517565b610695565b60405161029e9594939291906117be565b3480156102fb57600080fd5b506102bc61030a366004611475565b6106c4565b34801561031b57600080fd5b5061032f61032a366004611517565b6106d8565b60405161029e9190611714565b34801561034857600080fd5b5061035c610357366004611475565b61070c565b60405161029e919061175f565b34801561037557600080fd5b5061037e610721565b60405161029e919061176d565b34801561039757600080fd5b5061037e610727565b3480156103ac57600080fd5b506102bc6103bb366004611475565b61072d565b3480156103cc57600080fd5b506102bc6103db366004611475565b61073e565b3480156103ec57600080fd5b5061037e6107f3565b34801561040157600080fd5b5061037e610410366004611475565b6107f9565b34801561042157600080fd5b5061042a61080b565b60405161029e919061180a565b34801561044357600080fd5b506104576104523660046114d5565b610817565b60405161029e919061174e565b34801561047057600080fd5b5061032f6109a4565b34801561048557600080fd5b506102bc61049436600461149b565b6109c0565b3480156104a557600080fd5b5061037e6109d2565b3480156104ba57600080fd5b5061037e6109d8565b3480156104cf57600080fd5b5061037e6109de565b3480156104e457600080fd5b5061035c6104f3366004611475565b6109e4565b34801561050457600080fd5b5061037e610513366004611517565b6109f9565b34801561052457600080fd5b506102bc610a0b565b34801561053957600080fd5b5061032f610548366004611535565b610aa4565b34801561055957600080fd5b50610562610ae6565b60405161029e919061173d565b34801561057b57600080fd5b5061042a610b55565b34801561059057600080fd5b5061042a610b61565b3480156105a557600080fd5b5061032f610b75565b3480156105ba57600080fd5b506102bc6105c9366004611475565b610b91565b60408051808201909152600481527f6eff82850000000000000000000000000000000000000000000000000000000060208201525b90565b805160208201fd5b601660209081526000928352604080842090915290825290208054600182015460029092015490919083565b610642610c34565b600380547fffffffffffffffffffffffff00000000000000000000000000000000000000001690556040517f6caedcb22a5c22c8ebd0caf751fec1228a6e006e6ee37169321e02d31ecc818390600090a1565b601760205260009081526040902080546001820154600283015460038401546004909401549293919290919085565b6106cc610c59565b6106d581610ca0565b50565b600281815481106106e557fe5b60009182526020909120015473ffffffffffffffffffffffffffffffffffffffff16905081565b60116020526000908152604090205460ff1681565b600e5481565b60125481565b610735610c34565b6106d581610dd1565b610746610c59565b73ffffffffffffffffffffffffffffffffffffffff811660009081526001602052604090205460ff1661077f5761077f6101e082610f2c565b60005b6002548110156107ef578173ffffffffffffffffffffffffffffffffffffffff16600282815481106107b057fe5b60009182526020909120015473ffffffffffffffffffffffffffffffffffffffff1614156107e7576107e28282610fcb565b6107ef565b600101610782565b5050565b600d5481565b60096020526000908152604090205481565b60155463ffffffff1681565b6040805182815260208084028201019091526060906000908290849081801561085457816020015b606081526020019060019003908161083f5790505b5060035490945073ffffffffffffffffffffffffffffffffffffffff1680610881576108816101e06105ce565b60005b828114610998578173ffffffffffffffffffffffffffffffffffffffff168888838181106108ae57fe5b6020028201905080357fffffffffffffffffffffffffffffffffffffffffffffffffffffffffffffffe1368490030181126108e857600080fd5b9091016020810191503567ffffffffffffffff81111561090757600080fd5b3681900382131561091757600080fd5b6040516109259291906116fb565b600060405180830381855af49150503d8060008114610960576040519150601f19603f3d011682016040523d82523d6000602084013e610965565b606091505b5090955093508461097857835184602001fd5b8386828151811061098557fe5b6020908102919091010152600101610884565b50505050505b92915050565b60005473ffffffffffffffffffffffffffffffffffffffff1681565b6109c8610c59565b6107ef8282610fcb565b60145481565b60085481565b60185481565b60016020526000908152604090205460ff1681565b600c6020526000908152604090205481565b60125462069780811080610a21575062278d0081115b15610a3357610a336101e0600461121a565b60155463ffffffff640100000000820481169116811080610a58575063ffffffff8116155b15610a6a57610a6a6101e0600061121a565b601354620f424063ffffffff9091161115610a8c57610a8c6101e0600161121a565b600260145410156107ef576107ef6101e0600361121a565b600a6020528160005260406000208181548110610abd57fe5b60009182526020909120015473ffffffffffffffffffffffffffffffffffffffff169150829050565b60606002805480602002602001604051908101604052809291908181526020018280548015610b4b57602002820191906000526020600020905b815473ffffffffffffffffffffffffffffffffffffffff168152600190910190602001808311610b20575b5050505050905090565b60135463ffffffff1681565b601554640100000000900463ffffffff1681565b60035473ffffffffffffffffffffffffffffffffffffffff1681565b610b99610c59565b73ffffffffffffffffffffffffffffffffffffffff8116610bc457610bbf6101e0611259565b6106d5565b600080547fffffffffffffffffffffffff00000000000000000000000000000000000000001673ffffffffffffffffffffffffffffffffffffffff83169081178255604051909133917f8be0079c531659141344cd1fd0a4f28419497f9722a3daafe3b4186f6b6457e09190a350565b3360009081526001602052604090205460ff16610c5757610c576101e033611290565b565b60005473ffffffffffffffffffffffffffffffffffffffff163314610c5757600054610c57906101e090339073ffffffffffffffffffffffffffffffffffffffff166112ab565b73ffffffffffffffffffffffffffffffffffffffff8116610cc657610cc66101e061134d565b73ffffffffffffffffffffffffffffffffffffffff811660009081526001602052604090205460ff1615610d0057610d006101e082611384565b73ffffffffffffffffffffffffffffffffffffffff8116600081815260016020819052604080832080547fffffffffffffffffffffffffffffffffffffffffffffffffffffffffffffff00168317905560028054928301815583527f405787fa12a823e0f2b7631cc41b3ba8828b3321ca811111fa75cd3aa3bb5ace90910180547fffffffffffffffffffffffff00000000000000000000000000000000000000001684179055513392917f3147867c59d17e8fa9d522465651d44aae0a9e38f902f3475b97e58072f0ed4c91a350565b600380547fffffffffffffffffffffffff00000000000000000000000000000000000000001673ffffffffffffffffffffffffffffffffffffffff83161790556040517f048368388f801041f7690185c4e28b6f3505c740c47be8ac104b55df666bfc8490610e41908390611714565b60405180910390a160035460408051600481526024810182526020810180517bffffffffffffffffffffffffffffffffffffffffffffffffffffffff167fe1c7392a00000000000000000000000000000000000000000000000000000000179052905160009260609273ffffffffffffffffffffffffffffffffffffffff90911691610ecd9190611708565b600060405180830381855af49150503d8060008114610f08576040519150601f19603f3d011682016040523d82523d6000602084013e610f0d565b606091505b509150915081610f1f57805160208201fd5b610f27610a0b565b505050565b606063eb5108a260e01b82604051602401610f479190611714565b604080517fffffffffffffffffffffffffffffffffffffffffffffffffffffffffffffffe08184030181529190526020810180517bffffffffffffffffffffffffffffffffffffffffffffffffffffffff167fffffffff00000000000000000000000000000000000000000000000000000000909316929092179091529050919050565b73ffffffffffffffffffffffffffffffffffffffff821660009081526001602052604090205460ff16611004576110046101e083610f2c565b600254811061101f5761101f6101e08260028054905061139f565b8173ffffffffffffffffffffffffffffffffffffffff166002828154811061104357fe5b60009182526020909120015473ffffffffffffffffffffffffffffffffffffffff16146110a5576110a56101e06002838154811061107d57fe5b60009182526020909120015473ffffffffffffffffffffffffffffffffffffffff16846113bc565b73ffffffffffffffffffffffffffffffffffffffff8216600090815260016020526040902080547fffffffffffffffffffffffffffffffffffffffffffffffffffffffffffffff00169055600280547fffffffffffffffffffffffffffffffffffffffffffffffffffffffffffffffff810190811061112057fe5b6000918252602090912001546002805473ffffffffffffffffffffffffffffffffffffffff909216918390811061115357fe5b600091825260209091200180547fffffffffffffffffffffffff00000000000000000000000000000000000000001673ffffffffffffffffffffffffffffffffffffffff92909216919091179055600280547fffffffffffffffffffffffffffffffffffffffffffffffffffffffffffffffff01906111d290826113d9565b50604051339073ffffffffffffffffffffffffffffffffffffffff8416907f1f32c1b084e2de0713b8fb16bd46bb9df710a3dbeae2f3ca93af46e016dcc6b090600090a35050565b60607ffc45bd110000000000000000000000000000000000000000000000000000000082600481111561124957fe5b604051602401610f479190611818565b60408051808201909152600481527fe69edc3e00000000000000000000000000000000000000000000000000000000602082015290565b606063b65a25b960e01b82604051602401610f479190611714565b6060631de45ad160e01b83836040516024016112c8929190611722565b604080517fffffffffffffffffffffffffffffffffffffffffffffffffffffffffffffffe08184030181529190526020810180517bffffffffffffffffffffffffffffffffffffffffffffffffffffffff167fffffffff0000000000000000000000000000000000000000000000000000000090931692909217909152905092915050565b60408051808201909152600481527f57654fe400000000000000000000000000000000000000000000000000000000602082015290565b606063de16f1a060e01b82604051602401610f479190611714565b606063e9f8377160e01b83836040516024016112c892919061177b565b606063140a84db60e01b83836040516024016112c8929190611722565b815481835581811115610f2757600083815260209020610f2791810190830161060391905b8082111561141257600081556001016113fe565b5090565b803561099e816118da565b60008083601f84011261143357600080fd5b50813567ffffffffffffffff81111561144b57600080fd5b60208301915083602082028301111561146357600080fd5b9250929050565b803561099e816118ee565b60006020828403121561148757600080fd5b60006114938484611416565b949350505050565b600080604083850312156114ae57600080fd5b60006114ba8585611416565b92505060206114cb8582860161146a565b9150509250929050565b600080602083850312156114e857600080fd5b823567ffffffffffffffff8111156114ff57600080fd5b61150b85828601611421565b92509250509250929050565b60006020828403121561152957600080fd5b6000611493848461146a565b6000806040838503121561154857600080fd5b60006114ba858561146a565b6000611560838361157b565b505060200190565b600061157483836116b1565b9392505050565b6115848161183e565b82525050565b60006115958261182c565b61159f8185611830565b93506115aa83611826565b8060005b838110156115d85781516115c28882611554565b97506115cd83611826565b9250506001016115ae565b509495945050505050565b60006115ee8261182c565b6115f88185611830565b93508360208202850161160a85611826565b8060005b8581101561164457848403895281516116278582611568565b945061163283611826565b60209a909a019992505060010161160e565b5091979650505050505050565b61158481611849565b61158481610603565b600061166f8385611839565b935061167c838584611876565b50500190565b600061168d8261182c565b6116978185611839565b93506116a7818560208601611882565b9290920192915050565b60006116bc8261182c565b6116c68185611830565b93506116d6818560208601611882565b6116df816118b2565b9093019392505050565b61158481611867565b61158481611870565b6000611493828486611663565b60006115748284611682565b6020810161099e828461157b565b60408101611730828561157b565b611574602083018461157b565b60208082528101611574818461158a565b6020808252810161157481846115e3565b6020810161099e8284611651565b6020810161099e828461165a565b60408101611789828561165a565b611574602083018461165a565b606081016117a4828661165a565b6117b1602083018561165a565b611493604083018461165a565b60a081016117cc828861165a565b6117d9602083018761165a565b6117e6604083018661165a565b6117f3606083018561165a565b611800608083018461165a565b9695505050505050565b6020810161099e82846116e9565b6020810161099e82846116f2565b60200190565b5190565b90815260200190565b919050565b600061099e8261184e565b151590565b73ffffffffffffffffffffffffffffffffffffffff1690565b63ffffffff1690565b60ff1690565b82818337506000910152565b60005b8381101561189d578181015183820152602001611885565b838111156118ac576000848401525b50505050565b601f017fffffffffffffffffffffffffffffffffffffffffffffffffffffffffffffffe01690565b6118e38161183e565b81146106d557600080fd5b6118e38161060356fea365627a7a72305820969cefad7172ebc7f98560dc29ded9e238e68e6d74ce20a82d55e52ed1dabb8d6c6578706572696d656e74616cf564736f6c63430005090040",
				"opcodes": "PUSH1 0x80 PUSH1 0x40 MSTORE CALLVALUE DUP1 ISZERO PUSH3 0x11 JUMPI PUSH1 0x0 DUP1 REVERT JUMPDEST POP PUSH1 0x40 MLOAD PUSH3 0x21D8 CODESIZE SUB DUP1 PUSH3 0x21D8 DUP4 CODECOPY DUP2 ADD PUSH1 0x40 DUP2 SWAP1 MSTORE PUSH3 0x34 SWAP2 PUSH3 0x728 JUMP JUMPDEST PUSH1 0x0 DUP1 SLOAD PUSH1 0x1 PUSH1 0x1 PUSH1 0xA0 SHL SUB NOT AND CALLER SWAP1 DUP2 OR SWAP1 SWAP2 SSTORE PUSH3 0x5D SWAP1 PUSH1 0x1 PUSH1 0x1 PUSH1 0xE0 SHL SUB PUSH3 0x8E AND JUMP JUMPDEST PUSH3 0x71 DUP2 PUSH1 0x1 PUSH1 0x1 PUSH1 0xE0 SHL SUB PUSH3 0x191 AND JUMP JUMPDEST PUSH3 0x87 CALLER PUSH1 0x0 PUSH1 0x1 PUSH1 0x1 PUSH1 0xE0 SHL SUB PUSH3 0x2B7 AND JUMP JUMPDEST POP PUSH3 0x88E JUMP JUMPDEST PUSH1 0x1 PUSH1 0x1 PUSH1 0xA0 SHL SUB DUP2 AND PUSH3 0xC7 JUMPI PUSH3 0xC7 PUSH3 0xB6 PUSH3 0x460 PUSH1 0x20 SHL PUSH3 0x134D OR PUSH1 0x20 SHR JUMP JUMPDEST PUSH3 0x498 PUSH1 0x20 SHL PUSH3 0x606 OR PUSH1 0x20 SHR JUMP JUMPDEST PUSH1 0x1 PUSH1 0x1 PUSH1 0xA0 SHL SUB DUP2 AND PUSH1 0x0 SWAP1 DUP2 MSTORE PUSH1 0x1 PUSH1 0x20 MSTORE PUSH1 0x40 SWAP1 KECCAK256 SLOAD PUSH1 0xFF AND ISZERO PUSH3 0x103 JUMPI PUSH3 0x103 PUSH3 0xB6 DUP3 PUSH3 0x4A0 PUSH1 0x20 SHL PUSH3 0x1384 OR PUSH1 0x20 SHR JUMP JUMPDEST PUSH1 0x1 PUSH1 0x1 PUSH1 0xA0 SHL SUB DUP2 AND PUSH1 0x0 DUP2 DUP2 MSTORE PUSH1 0x1 PUSH1 0x20 DUP2 SWAP1 MSTORE PUSH1 0x40 DUP1 DUP4 KECCAK256 DUP1 SLOAD PUSH1 0xFF NOT AND DUP4 OR SWAP1 SSTORE PUSH1 0x2 DUP1 SLOAD SWAP3 DUP4 ADD DUP2 SSTORE DUP4 MSTORE PUSH32 0x405787FA12A823E0F2B7631CC41B3BA8828B3321CA811111FA75CD3AA3BB5ACE SWAP1 SWAP2 ADD DUP1 SLOAD PUSH1 0x1 PUSH1 0x1 PUSH1 0xA0 SHL SUB NOT AND DUP5 OR SWAP1 SSTORE MLOAD CALLER SWAP3 SWAP2 PUSH32 0x3147867C59D17E8FA9D522465651D44AAE0A9E38F902F3475B97E58072F0ED4C SWAP2 LOG3 POP JUMP JUMPDEST PUSH1 0x3 DUP1 SLOAD PUSH1 0x1 PUSH1 0x1 PUSH1 0xA0 SHL SUB NOT AND PUSH1 0x1 PUSH1 0x1 PUSH1 0xA0 SHL SUB DUP4 AND OR SWAP1 SSTORE PUSH1 0x40 MLOAD PUSH32 0x48368388F801041F7690185C4E28B6F3505C740C47BE8AC104B55DF666BFC84 SWAP1 PUSH3 0x1DE SWAP1 DUP4 SWAP1 PUSH3 0x7C2 JUMP JUMPDEST PUSH1 0x40 MLOAD DUP1 SWAP2 SUB SWAP1 LOG1 PUSH1 0x3 SLOAD PUSH1 0x40 DUP1 MLOAD PUSH1 0x4 DUP2 MSTORE PUSH1 0x24 DUP2 ADD DUP3 MSTORE PUSH1 0x20 DUP2 ADD DUP1 MLOAD PUSH1 0x1 PUSH1 0x1 PUSH1 0xE0 SHL SUB AND PUSH32 0xE1C7392A00000000000000000000000000000000000000000000000000000000 OR SWAP1 MSTORE SWAP1 MLOAD PUSH1 0x0 SWAP3 PUSH1 0x60 SWAP3 PUSH1 0x1 PUSH1 0x1 PUSH1 0xA0 SHL SUB SWAP1 SWAP2 AND SWAP2 PUSH3 0x24A SWAP2 SWAP1 PUSH3 0x7AD JUMP JUMPDEST PUSH1 0x0 PUSH1 0x40 MLOAD DUP1 DUP4 SUB DUP2 DUP6 GAS DELEGATECALL SWAP2 POP POP RETURNDATASIZE DUP1 PUSH1 0x0 DUP2 EQ PUSH3 0x287 JUMPI PUSH1 0x40 MLOAD SWAP2 POP PUSH1 0x1F NOT PUSH1 0x3F RETURNDATASIZE ADD AND DUP3 ADD PUSH1 0x40 MSTORE RETURNDATASIZE DUP3 MSTORE RETURNDATASIZE PUSH1 0x0 PUSH1 0x20 DUP5 ADD RETURNDATACOPY PUSH3 0x28C JUMP JUMPDEST PUSH1 0x60 SWAP2 POP JUMPDEST POP SWAP2 POP SWAP2 POP DUP2 PUSH3 0x29F JUMPI DUP1 MLOAD PUSH1 0x20 DUP3 ADD REVERT JUMPDEST PUSH3 0x2B2 PUSH1 0x1 PUSH1 0x1 PUSH1 0xE0 SHL SUB PUSH3 0x50E AND JUMP JUMPDEST POP POP POP JUMP JUMPDEST PUSH1 0x1 PUSH1 0x1 PUSH1 0xA0 SHL SUB DUP3 AND PUSH1 0x0 SWAP1 DUP2 MSTORE PUSH1 0x1 PUSH1 0x20 MSTORE PUSH1 0x40 SWAP1 KECCAK256 SLOAD PUSH1 0xFF AND PUSH3 0x2F2 JUMPI PUSH3 0x2F2 PUSH3 0xB6 DUP4 PUSH3 0x5E9 PUSH1 0x20 SHL PUSH3 0xF2C OR PUSH1 0x20 SHR JUMP JUMPDEST PUSH1 0x2 SLOAD DUP2 LT PUSH3 0x31C JUMPI PUSH3 0x31C PUSH3 0xB6 DUP3 PUSH1 0x2 DUP1 SLOAD SWAP1 POP PUSH3 0x606 PUSH1 0x20 SHL PUSH3 0x139F OR PUSH1 0x20 SHR JUMP JUMPDEST DUP2 PUSH1 0x1 PUSH1 0x1 PUSH1 0xA0 SHL SUB AND PUSH1 0x2 DUP3 DUP2 SLOAD DUP2 LT PUSH3 0x334 JUMPI INVALID JUMPDEST PUSH1 0x0 SWAP2 DUP3 MSTORE PUSH1 0x20 SWAP1 SWAP2 KECCAK256 ADD SLOAD PUSH1 0x1 PUSH1 0x1 PUSH1 0xA0 SHL SUB AND EQ PUSH3 0x38D JUMPI PUSH3 0x38D PUSH3 0xB6 PUSH1 0x2 DUP4 DUP2 SLOAD DUP2 LT PUSH3 0x365 JUMPI INVALID JUMPDEST PUSH1 0x0 SWAP2 DUP3 MSTORE PUSH1 0x20 SWAP2 DUP3 SWAP1 KECCAK256 ADD SLOAD PUSH1 0x1 PUSH1 0x1 PUSH1 0xA0 SHL SUB AND SWAP1 DUP6 SWAP1 PUSH3 0x13BC PUSH3 0x678 DUP3 SHL OR SWAP1 SHR JUMP JUMPDEST PUSH1 0x1 PUSH1 0x1 PUSH1 0xA0 SHL SUB DUP3 AND PUSH1 0x0 SWAP1 DUP2 MSTORE PUSH1 0x1 PUSH1 0x20 MSTORE PUSH1 0x40 SWAP1 KECCAK256 DUP1 SLOAD PUSH1 0xFF NOT AND SWAP1 SSTORE PUSH1 0x2 DUP1 SLOAD PUSH1 0x0 NOT DUP2 ADD SWAP1 DUP2 LT PUSH3 0x3C0 JUMPI INVALID JUMPDEST PUSH1 0x0 SWAP2 DUP3 MSTORE PUSH1 0x20 SWAP1 SWAP2 KECCAK256 ADD SLOAD PUSH1 0x2 DUP1 SLOAD PUSH1 0x1 PUSH1 0x1 PUSH1 0xA0 SHL SUB SWAP1 SWAP3 AND SWAP2 DUP4 SWAP1 DUP2 LT PUSH3 0x3E7 JUMPI INVALID JUMPDEST PUSH1 0x0 SWAP2 DUP3 MSTORE PUSH1 0x20 SWAP1 SWAP2 KECCAK256 ADD DUP1 SLOAD PUSH1 0x1 PUSH1 0x1 PUSH1 0xA0 SHL SUB NOT AND PUSH1 0x1 PUSH1 0x1 PUSH1 0xA0 SHL SUB SWAP3 SWAP1 SWAP3 AND SWAP2 SWAP1 SWAP2 OR SWAP1 SSTORE PUSH1 0x2 DUP1 SLOAD PUSH1 0x0 NOT ADD SWAP1 PUSH3 0x425 SWAP1 DUP3 PUSH3 0x6D9 JUMP JUMPDEST POP PUSH1 0x40 MLOAD CALLER SWAP1 PUSH1 0x1 PUSH1 0x1 PUSH1 0xA0 SHL SUB DUP5 AND SWAP1 PUSH32 0x1F32C1B084E2DE0713B8FB16BD46BB9DF710A3DBEAE2F3CA93AF46E016DCC6B0 SWAP1 PUSH1 0x0 SWAP1 LOG3 POP POP JUMP JUMPDEST PUSH1 0x40 DUP1 MLOAD DUP1 DUP3 ADD SWAP1 SWAP2 MSTORE PUSH1 0x4 DUP2 MSTORE PUSH32 0x57654FE400000000000000000000000000000000000000000000000000000000 PUSH1 0x20 DUP3 ADD MSTORE JUMPDEST SWAP1 JUMP JUMPDEST DUP1 MLOAD PUSH1 0x20 DUP3 ADD REVERT JUMPDEST PUSH1 0x60 PUSH4 0xDE16F1A0 PUSH1 0xE0 SHL DUP3 PUSH1 0x40 MLOAD PUSH1 0x24 ADD PUSH3 0x4BD SWAP2 SWAP1 PUSH3 0x7C2 JUMP JUMPDEST PUSH1 0x40 DUP1 MLOAD PUSH1 0x1F NOT DUP2 DUP5 SUB ADD DUP2 MSTORE SWAP2 SWAP1 MSTORE PUSH1 0x20 DUP2 ADD DUP1 MLOAD PUSH1 0x1 PUSH1 0x1 PUSH1 0xE0 SHL SUB AND PUSH32 0xFFFFFFFF00000000000000000000000000000000000000000000000000000000 SWAP1 SWAP4 AND SWAP3 SWAP1 SWAP3 OR SWAP1 SWAP2 MSTORE SWAP1 POP SWAP2 SWAP1 POP JUMP JUMPDEST PUSH1 0x12 SLOAD PUSH3 0x69780 DUP2 LT DUP1 PUSH3 0x525 JUMPI POP PUSH3 0x278D00 DUP2 GT JUMPDEST ISZERO PUSH3 0x546 JUMPI PUSH3 0x546 PUSH3 0xB6 PUSH1 0x4 PUSH3 0x697 PUSH1 0x20 SHL PUSH3 0x121A OR PUSH1 0x20 SHR JUMP JUMPDEST PUSH1 0x15 SLOAD PUSH4 0xFFFFFFFF PUSH5 0x100000000 DUP3 DIV DUP2 AND SWAP2 AND DUP2 LT DUP1 PUSH3 0x56C JUMPI POP PUSH4 0xFFFFFFFF DUP2 AND ISZERO JUMPDEST ISZERO PUSH3 0x58D JUMPI PUSH3 0x58D PUSH3 0xB6 PUSH1 0x0 PUSH3 0x697 PUSH1 0x20 SHL PUSH3 0x121A OR PUSH1 0x20 SHR JUMP JUMPDEST PUSH1 0x13 SLOAD PUSH3 0xF4240 PUSH4 0xFFFFFFFF SWAP1 SWAP2 AND GT ISZERO PUSH3 0x5BE JUMPI PUSH3 0x5BE PUSH3 0xB6 PUSH1 0x1 PUSH3 0x697 PUSH1 0x20 SHL PUSH3 0x121A OR PUSH1 0x20 SHR JUMP JUMPDEST PUSH1 0x2 PUSH1 0x14 SLOAD LT ISZERO PUSH3 0x5E5 JUMPI PUSH3 0x5E5 PUSH3 0xB6 PUSH1 0x3 PUSH3 0x697 PUSH1 0x20 SHL PUSH3 0x121A OR PUSH1 0x20 SHR JUMP JUMPDEST POP POP JUMP JUMPDEST PUSH1 0x60 PUSH4 0xEB5108A2 PUSH1 0xE0 SHL DUP3 PUSH1 0x40 MLOAD PUSH1 0x24 ADD PUSH3 0x4BD SWAP2 SWAP1 PUSH3 0x7C2 JUMP JUMPDEST PUSH1 0x60 PUSH4 0xE9F83771 PUSH1 0xE0 SHL DUP4 DUP4 PUSH1 0x40 MLOAD PUSH1 0x24 ADD PUSH3 0x625 SWAP3 SWAP2 SWAP1 PUSH3 0x7F1 JUMP JUMPDEST PUSH1 0x40 DUP1 MLOAD PUSH1 0x1F NOT DUP2 DUP5 SUB ADD DUP2 MSTORE SWAP2 SWAP1 MSTORE PUSH1 0x20 DUP2 ADD DUP1 MLOAD PUSH1 0x1 PUSH1 0x1 PUSH1 0xE0 SHL SUB AND PUSH32 0xFFFFFFFF00000000000000000000000000000000000000000000000000000000 SWAP1 SWAP4 AND SWAP3 SWAP1 SWAP3 OR SWAP1 SWAP2 MSTORE SWAP1 POP JUMPDEST SWAP3 SWAP2 POP POP JUMP JUMPDEST PUSH1 0x60 PUSH4 0x140A84DB PUSH1 0xE0 SHL DUP4 DUP4 PUSH1 0x40 MLOAD PUSH1 0x24 ADD PUSH3 0x625 SWAP3 SWAP2 SWAP1 PUSH3 0x7D2 JUMP JUMPDEST PUSH1 0x60 PUSH32 0xFC45BD1100000000000000000000000000000000000000000000000000000000 DUP3 PUSH1 0x4 DUP2 GT ISZERO PUSH3 0x6C7 JUMPI INVALID JUMPDEST PUSH1 0x40 MLOAD PUSH1 0x24 ADD PUSH3 0x4BD SWAP2 SWAP1 PUSH3 0x810 JUMP JUMPDEST DUP2 SLOAD DUP2 DUP4 SSTORE DUP2 DUP2 GT ISZERO PUSH3 0x2B2 JUMPI PUSH1 0x0 DUP4 DUP2 MSTORE PUSH1 0x20 SWAP1 KECCAK256 PUSH3 0x2B2 SWAP2 DUP2 ADD SWAP1 DUP4 ADD PUSH3 0x495 SWAP2 SWAP1 JUMPDEST DUP1 DUP3 GT ISZERO PUSH3 0x717 JUMPI PUSH1 0x0 DUP2 SSTORE PUSH1 0x1 ADD PUSH3 0x701 JUMP JUMPDEST POP SWAP1 JUMP JUMPDEST DUP1 MLOAD PUSH3 0x672 DUP2 PUSH3 0x874 JUMP JUMPDEST PUSH1 0x0 PUSH1 0x20 DUP3 DUP5 SUB SLT ISZERO PUSH3 0x73B JUMPI PUSH1 0x0 DUP1 REVERT JUMPDEST PUSH1 0x0 PUSH3 0x749 DUP5 DUP5 PUSH3 0x71B JUMP JUMPDEST SWAP5 SWAP4 POP POP POP POP JUMP JUMPDEST PUSH3 0x75C DUP2 PUSH3 0x829 JUMP JUMPDEST DUP3 MSTORE POP POP JUMP JUMPDEST PUSH1 0x0 PUSH3 0x76F DUP3 PUSH3 0x820 JUMP JUMPDEST PUSH3 0x77B DUP2 DUP6 PUSH3 0x824 JUMP JUMPDEST SWAP4 POP PUSH3 0x78D DUP2 DUP6 PUSH1 0x20 DUP7 ADD PUSH3 0x841 JUMP JUMPDEST SWAP3 SWAP1 SWAP3 ADD SWAP3 SWAP2 POP POP JUMP JUMPDEST PUSH3 0x75C DUP2 PUSH3 0x495 JUMP JUMPDEST PUSH3 0x75C DUP2 PUSH3 0x83B JUMP JUMPDEST PUSH1 0x0 PUSH3 0x7BB DUP3 DUP5 PUSH3 0x762 JUMP JUMPDEST SWAP4 SWAP3 POP POP POP JUMP JUMPDEST PUSH1 0x20 DUP2 ADD PUSH3 0x672 DUP3 DUP5 PUSH3 0x751 JUMP JUMPDEST PUSH1 0x40 DUP2 ADD PUSH3 0x7E2 DUP3 DUP6 PUSH3 0x751 JUMP JUMPDEST PUSH3 0x7BB PUSH1 0x20 DUP4 ADD DUP5 PUSH3 0x751 JUMP JUMPDEST PUSH1 0x40 DUP2 ADD PUSH3 0x801 DUP3 DUP6 PUSH3 0x797 JUMP JUMPDEST PUSH3 0x7BB PUSH1 0x20 DUP4 ADD DUP5 PUSH3 0x797 JUMP JUMPDEST PUSH1 0x20 DUP2 ADD PUSH3 0x672 DUP3 DUP5 PUSH3 0x7A2 JUMP JUMPDEST MLOAD SWAP1 JUMP JUMPDEST SWAP2 SWAP1 POP JUMP JUMPDEST PUSH1 0x0 PUSH1 0x1 PUSH1 0x1 PUSH1 0xA0 SHL SUB DUP3 AND PUSH3 0x672 JUMP JUMPDEST PUSH1 0xFF AND SWAP1 JUMP JUMPDEST PUSH1 0x0 JUMPDEST DUP4 DUP2 LT ISZERO PUSH3 0x85E JUMPI DUP2 DUP2 ADD MLOAD DUP4 DUP3 ADD MSTORE PUSH1 0x20 ADD PUSH3 0x844 JUMP JUMPDEST DUP4 DUP2 GT ISZERO PUSH3 0x86E JUMPI PUSH1 0x0 DUP5 DUP5 ADD MSTORE JUMPDEST POP POP POP POP JUMP JUMPDEST PUSH3 0x87F DUP2 PUSH3 0x829 JUMP JUMPDEST DUP2 EQ PUSH3 0x88B JUMPI PUSH1 0x0 DUP1 REVERT JUMPDEST POP JUMP JUMPDEST PUSH2 0x193A DUP1 PUSH3 0x89E PUSH1 0x0 CODECOPY PUSH1 0x0 RETURN INVALID PUSH1 0x80 PUSH1 0x40 MSTORE PUSH1 0x4 CALLDATASIZE LT PUSH2 0x1B7 JUMPI PUSH1 0x0 CALLDATALOAD PUSH1 0xE0 SHR DUP1 PUSH4 0x8DA5CB5B GT PUSH2 0xEC JUMPI DUP1 PUSH4 0xC6F3A427 GT PUSH2 0x8A JUMPI DUP1 PUSH4 0xE0EE036E GT PUSH2 0x64 JUMPI DUP1 PUSH4 0xE0EE036E EQ PUSH2 0x56F JUMPI DUP1 PUSH4 0xE8EEB3F8 EQ PUSH2 0x584 JUMPI DUP1 PUSH4 0xEE99205C EQ PUSH2 0x599 JUMPI DUP1 PUSH4 0xF2FDE38B EQ PUSH2 0x5AE JUMPI PUSH2 0x1B7 JUMP JUMPDEST DUP1 PUSH4 0xC6F3A427 EQ PUSH2 0x518 JUMPI DUP1 PUSH4 0xC77B62CB EQ PUSH2 0x52D JUMPI DUP1 PUSH4 0xD39DE6E9 EQ PUSH2 0x54D JUMPI PUSH2 0x1B7 JUMP JUMPDEST DUP1 PUSH4 0xA657E579 GT PUSH2 0xC6 JUMPI DUP1 PUSH4 0xA657E579 EQ PUSH2 0x4AE JUMPI DUP1 PUSH4 0xB0531524 EQ PUSH2 0x4C3 JUMPI DUP1 PUSH4 0xB9181611 EQ PUSH2 0x4D8 JUMPI DUP1 PUSH4 0xC18C9141 EQ PUSH2 0x4F8 JUMPI PUSH2 0x1B7 JUMP JUMPDEST DUP1 PUSH4 0x8DA5CB5B EQ PUSH2 0x464 JUMPI DUP1 PUSH4 0x9AD26744 EQ PUSH2 0x479 JUMPI DUP1 PUSH4 0xA26171E2 EQ PUSH2 0x499 JUMPI PUSH2 0x1B7 JUMP JUMPDEST DUP1 PUSH4 0x63403801 GT PUSH2 0x159 JUMPI DUP1 PUSH4 0x76671808 GT PUSH2 0x133 JUMPI DUP1 PUSH4 0x76671808 EQ PUSH2 0x3E0 JUMPI DUP1 PUSH4 0x7FA140C7 EQ PUSH2 0x3F5 JUMPI DUP1 PUSH4 0x81666796 EQ PUSH2 0x415 JUMPI DUP1 PUSH4 0x856A65EB EQ PUSH2 0x437 JUMPI PUSH2 0x1B7 JUMP JUMPDEST DUP1 PUSH4 0x63403801 EQ PUSH2 0x38B JUMPI DUP1 PUSH4 0x66615D56 EQ PUSH2 0x3A0 JUMPI DUP1 PUSH4 0x70712939 EQ PUSH2 0x3C0 JUMPI PUSH2 0x1B7 JUMP JUMPDEST DUP1 PUSH4 0x42F1181E GT PUSH2 0x195 JUMPI DUP1 PUSH4 0x42F1181E EQ PUSH2 0x2EF JUMPI DUP1 PUSH4 0x494503D4 EQ PUSH2 0x30F JUMPI DUP1 PUSH4 0x540C2D53 EQ PUSH2 0x33C JUMPI DUP1 PUSH4 0x587DA023 EQ PUSH2 0x369 JUMPI PUSH2 0x1B7 JUMP JUMPDEST DUP1 PUSH4 0x2A94C279 EQ PUSH2 0x26F JUMPI DUP1 PUSH4 0x37B006A6 EQ PUSH2 0x2A7 JUMPI DUP1 PUSH4 0x38229D93 EQ PUSH2 0x2BE JUMPI JUMPDEST PUSH1 0x3 SLOAD PUSH20 0xFFFFFFFFFFFFFFFFFFFFFFFFFFFFFFFFFFFFFFFF AND DUP1 PUSH2 0x1E5 JUMPI PUSH2 0x1E5 PUSH2 0x1E0 PUSH2 0x5CE JUMP JUMPDEST PUSH2 0x606 JUMP JUMPDEST PUSH1 0x0 PUSH1 0x60 DUP3 PUSH20 0xFFFFFFFFFFFFFFFFFFFFFFFFFFFFFFFFFFFFFFFF AND PUSH1 0x0 CALLDATASIZE PUSH1 0x40 MLOAD PUSH2 0x211 SWAP3 SWAP2 SWAP1 PUSH2 0x16FB JUMP JUMPDEST PUSH1 0x0 PUSH1 0x40 MLOAD DUP1 DUP4 SUB DUP2 DUP6 GAS DELEGATECALL SWAP2 POP POP RETURNDATASIZE DUP1 PUSH1 0x0 DUP2 EQ PUSH2 0x24C JUMPI PUSH1 0x40 MLOAD SWAP2 POP PUSH1 0x1F NOT PUSH1 0x3F RETURNDATASIZE ADD AND DUP3 ADD PUSH1 0x40 MSTORE RETURNDATASIZE DUP3 MSTORE RETURNDATASIZE PUSH1 0x0 PUSH1 0x20 DUP5 ADD RETURNDATACOPY PUSH2 0x251 JUMP JUMPDEST PUSH1 0x60 SWAP2 POP JUMPDEST POP SWAP2 POP SWAP2 POP DUP2 PUSH1 0x0 DUP2 EQ PUSH2 0x267 JUMPI DUP2 MLOAD DUP3 PUSH1 0x20 ADD RETURN JUMPDEST DUP2 MLOAD DUP3 PUSH1 0x20 ADD REVERT JUMPDEST CALLVALUE DUP1 ISZERO PUSH2 0x27B JUMPI PUSH1 0x0 DUP1 REVERT JUMPDEST POP PUSH2 0x28F PUSH2 0x28A CALLDATASIZE PUSH1 0x4 PUSH2 0x1535 JUMP JUMPDEST PUSH2 0x60E JUMP JUMPDEST PUSH1 0x40 MLOAD PUSH2 0x29E SWAP4 SWAP3 SWAP2 SWAP1 PUSH2 0x1796 JUMP JUMPDEST PUSH1 0x40 MLOAD DUP1 SWAP2 SUB SWAP1 RETURN JUMPDEST CALLVALUE DUP1 ISZERO PUSH2 0x2B3 JUMPI PUSH1 0x0 DUP1 REVERT JUMPDEST POP PUSH2 0x2BC PUSH2 0x63A JUMP JUMPDEST STOP JUMPDEST CALLVALUE DUP1 ISZERO PUSH2 0x2CA JUMPI PUSH1 0x0 DUP1 REVERT JUMPDEST POP PUSH2 0x2DE PUSH2 0x2D9 CALLDATASIZE PUSH1 0x4 PUSH2 0x1517 JUMP JUMPDEST PUSH2 0x695 JUMP JUMPDEST PUSH1 0x40 MLOAD PUSH2 0x29E SWAP6 SWAP5 SWAP4 SWAP3 SWAP2 SWAP1 PUSH2 0x17BE JUMP JUMPDEST CALLVALUE DUP1 ISZERO PUSH2 0x2FB JUMPI PUSH1 0x0 DUP1 REVERT JUMPDEST POP PUSH2 0x2BC PUSH2 0x30A CALLDATASIZE PUSH1 0x4 PUSH2 0x1475 JUMP JUMPDEST PUSH2 0x6C4 JUMP JUMPDEST CALLVALUE DUP1 ISZERO PUSH2 0x31B JUMPI PUSH1 0x0 DUP1 REVERT JUMPDEST POP PUSH2 0x32F PUSH2 0x32A CALLDATASIZE PUSH1 0x4 PUSH2 0x1517 JUMP JUMPDEST PUSH2 0x6D8 JUMP JUMPDEST PUSH1 0x40 MLOAD PUSH2 0x29E SWAP2 SWAP1 PUSH2 0x1714 JUMP JUMPDEST CALLVALUE DUP1 ISZERO PUSH2 0x348 JUMPI PUSH1 0x0 DUP1 REVERT JUMPDEST POP PUSH2 0x35C PUSH2 0x357 CALLDATASIZE PUSH1 0x4 PUSH2 0x1475 JUMP JUMPDEST PUSH2 0x70C JUMP JUMPDEST PUSH1 0x40 MLOAD PUSH2 0x29E SWAP2 SWAP1 PUSH2 0x175F JUMP JUMPDEST CALLVALUE DUP1 ISZERO PUSH2 0x375 JUMPI PUSH1 0x0 DUP1 REVERT JUMPDEST POP PUSH2 0x37E PUSH2 0x721 JUMP JUMPDEST PUSH1 0x40 MLOAD PUSH2 0x29E SWAP2 SWAP1 PUSH2 0x176D JUMP JUMPDEST CALLVALUE DUP1 ISZERO PUSH2 0x397 JUMPI PUSH1 0x0 DUP1 REVERT JUMPDEST POP PUSH2 0x37E PUSH2 0x727 JUMP JUMPDEST CALLVALUE DUP1 ISZERO PUSH2 0x3AC JUMPI PUSH1 0x0 DUP1 REVERT JUMPDEST POP PUSH2 0x2BC PUSH2 0x3BB CALLDATASIZE PUSH1 0x4 PUSH2 0x1475 JUMP JUMPDEST PUSH2 0x72D JUMP JUMPDEST CALLVALUE DUP1 ISZERO PUSH2 0x3CC JUMPI PUSH1 0x0 DUP1 REVERT JUMPDEST POP PUSH2 0x2BC PUSH2 0x3DB CALLDATASIZE PUSH1 0x4 PUSH2 0x1475 JUMP JUMPDEST PUSH2 0x73E JUMP JUMPDEST CALLVALUE DUP1 ISZERO PUSH2 0x3EC JUMPI PUSH1 0x0 DUP1 REVERT JUMPDEST POP PUSH2 0x37E PUSH2 0x7F3 JUMP JUMPDEST CALLVALUE DUP1 ISZERO PUSH2 0x401 JUMPI PUSH1 0x0 DUP1 REVERT JUMPDEST POP PUSH2 0x37E PUSH2 0x410 CALLDATASIZE PUSH1 0x4 PUSH2 0x1475 JUMP JUMPDEST PUSH2 0x7F9 JUMP JUMPDEST CALLVALUE DUP1 ISZERO PUSH2 0x421 JUMPI PUSH1 0x0 DUP1 REVERT JUMPDEST POP PUSH2 0x42A PUSH2 0x80B JUMP JUMPDEST PUSH1 0x40 MLOAD PUSH2 0x29E SWAP2 SWAP1 PUSH2 0x180A JUMP JUMPDEST CALLVALUE DUP1 ISZERO PUSH2 0x443 JUMPI PUSH1 0x0 DUP1 REVERT JUMPDEST POP PUSH2 0x457 PUSH2 0x452 CALLDATASIZE PUSH1 0x4 PUSH2 0x14D5 JUMP JUMPDEST PUSH2 0x817 JUMP JUMPDEST PUSH1 0x40 MLOAD PUSH2 0x29E SWAP2 SWAP1 PUSH2 0x174E JUMP JUMPDEST CALLVALUE DUP1 ISZERO PUSH2 0x470 JUMPI PUSH1 0x0 DUP1 REVERT JUMPDEST POP PUSH2 0x32F PUSH2 0x9A4 JUMP JUMPDEST CALLVALUE DUP1 ISZERO PUSH2 0x485 JUMPI PUSH1 0x0 DUP1 REVERT JUMPDEST POP PUSH2 0x2BC PUSH2 0x494 CALLDATASIZE PUSH1 0x4 PUSH2 0x149B JUMP JUMPDEST PUSH2 0x9C0 JUMP JUMPDEST CALLVALUE DUP1 ISZERO PUSH2 0x4A5 JUMPI PUSH1 0x0 DUP1 REVERT JUMPDEST POP PUSH2 0x37E PUSH2 0x9D2 JUMP JUMPDEST CALLVALUE DUP1 ISZERO PUSH2 0x4BA JUMPI PUSH1 0x0 DUP1 REVERT JUMPDEST POP PUSH2 0x37E PUSH2 0x9D8 JUMP JUMPDEST CALLVALUE DUP1 ISZERO PUSH2 0x4CF JUMPI PUSH1 0x0 DUP1 REVERT JUMPDEST POP PUSH2 0x37E PUSH2 0x9DE JUMP JUMPDEST CALLVALUE DUP1 ISZERO PUSH2 0x4E4 JUMPI PUSH1 0x0 DUP1 REVERT JUMPDEST POP PUSH2 0x35C PUSH2 0x4F3 CALLDATASIZE PUSH1 0x4 PUSH2 0x1475 JUMP JUMPDEST PUSH2 0x9E4 JUMP JUMPDEST CALLVALUE DUP1 ISZERO PUSH2 0x504 JUMPI PUSH1 0x0 DUP1 REVERT JUMPDEST POP PUSH2 0x37E PUSH2 0x513 CALLDATASIZE PUSH1 0x4 PUSH2 0x1517 JUMP JUMPDEST PUSH2 0x9F9 JUMP JUMPDEST CALLVALUE DUP1 ISZERO PUSH2 0x524 JUMPI PUSH1 0x0 DUP1 REVERT JUMPDEST POP PUSH2 0x2BC PUSH2 0xA0B JUMP JUMPDEST CALLVALUE DUP1 ISZERO PUSH2 0x539 JUMPI PUSH1 0x0 DUP1 REVERT JUMPDEST POP PUSH2 0x32F PUSH2 0x548 CALLDATASIZE PUSH1 0x4 PUSH2 0x1535 JUMP JUMPDEST PUSH2 0xAA4 JUMP JUMPDEST CALLVALUE DUP1 ISZERO PUSH2 0x559 JUMPI PUSH1 0x0 DUP1 REVERT JUMPDEST POP PUSH2 0x562 PUSH2 0xAE6 JUMP JUMPDEST PUSH1 0x40 MLOAD PUSH2 0x29E SWAP2 SWAP1 PUSH2 0x173D JUMP JUMPDEST CALLVALUE DUP1 ISZERO PUSH2 0x57B JUMPI PUSH1 0x0 DUP1 REVERT JUMPDEST POP PUSH2 0x42A PUSH2 0xB55 JUMP JUMPDEST CALLVALUE DUP1 ISZERO PUSH2 0x590 JUMPI PUSH1 0x0 DUP1 REVERT JUMPDEST POP PUSH2 0x42A PUSH2 0xB61 JUMP JUMPDEST CALLVALUE DUP1 ISZERO PUSH2 0x5A5 JUMPI PUSH1 0x0 DUP1 REVERT JUMPDEST POP PUSH2 0x32F PUSH2 0xB75 JUMP JUMPDEST CALLVALUE DUP1 ISZERO PUSH2 0x5BA JUMPI PUSH1 0x0 DUP1 REVERT JUMPDEST POP PUSH2 0x2BC PUSH2 0x5C9 CALLDATASIZE PUSH1 0x4 PUSH2 0x1475 JUMP JUMPDEST PUSH2 0xB91 JUMP JUMPDEST PUSH1 0x40 DUP1 MLOAD DUP1 DUP3 ADD SWAP1 SWAP2 MSTORE PUSH1 0x4 DUP2 MSTORE PUSH32 0x6EFF828500000000000000000000000000000000000000000000000000000000 PUSH1 0x20 DUP3 ADD MSTORE JUMPDEST SWAP1 JUMP JUMPDEST DUP1 MLOAD PUSH1 0x20 DUP3 ADD REVERT JUMPDEST PUSH1 0x16 PUSH1 0x20 SWAP1 DUP2 MSTORE PUSH1 0x0 SWAP3 DUP4 MSTORE PUSH1 0x40 DUP1 DUP5 KECCAK256 SWAP1 SWAP2 MSTORE SWAP1 DUP3 MSTORE SWAP1 KECCAK256 DUP1 SLOAD PUSH1 0x1 DUP3 ADD SLOAD PUSH1 0x2 SWAP1 SWAP3 ADD SLOAD SWAP1 SWAP2 SWAP1 DUP4 JUMP JUMPDEST PUSH2 0x642 PUSH2 0xC34 JUMP JUMPDEST PUSH1 0x3 DUP1 SLOAD PUSH32 0xFFFFFFFFFFFFFFFFFFFFFFFF0000000000000000000000000000000000000000 AND SWAP1 SSTORE PUSH1 0x40 MLOAD PUSH32 0x6CAEDCB22A5C22C8EBD0CAF751FEC1228A6E006E6EE37169321E02D31ECC8183 SWAP1 PUSH1 0x0 SWAP1 LOG1 JUMP JUMPDEST PUSH1 0x17 PUSH1 0x20 MSTORE PUSH1 0x0 SWAP1 DUP2 MSTORE PUSH1 0x40 SWAP1 KECCAK256 DUP1 SLOAD PUSH1 0x1 DUP3 ADD SLOAD PUSH1 0x2 DUP4 ADD SLOAD PUSH1 0x3 DUP5 ADD SLOAD PUSH1 0x4 SWAP1 SWAP5 ADD SLOAD SWAP3 SWAP4 SWAP2 SWAP3 SWAP1 SWAP2 SWAP1 DUP6 JUMP JUMPDEST PUSH2 0x6CC PUSH2 0xC59 JUMP JUMPDEST PUSH2 0x6D5 DUP2 PUSH2 0xCA0 JUMP JUMPDEST POP JUMP JUMPDEST PUSH1 0x2 DUP2 DUP2 SLOAD DUP2 LT PUSH2 0x6E5 JUMPI INVALID JUMPDEST PUSH1 0x0 SWAP2 DUP3 MSTORE PUSH1 0x20 SWAP1 SWAP2 KECCAK256 ADD SLOAD PUSH20 0xFFFFFFFFFFFFFFFFFFFFFFFFFFFFFFFFFFFFFFFF AND SWAP1 POP DUP2 JUMP JUMPDEST PUSH1 0x11 PUSH1 0x20 MSTORE PUSH1 0x0 SWAP1 DUP2 MSTORE PUSH1 0x40 SWAP1 KECCAK256 SLOAD PUSH1 0xFF AND DUP2 JUMP JUMPDEST PUSH1 0xE SLOAD DUP2 JUMP JUMPDEST PUSH1 0x12 SLOAD DUP2 JUMP JUMPDEST PUSH2 0x735 PUSH2 0xC34 JUMP JUMPDEST PUSH2 0x6D5 DUP2 PUSH2 0xDD1 JUMP JUMPDEST PUSH2 0x746 PUSH2 0xC59 JUMP JUMPDEST PUSH20 0xFFFFFFFFFFFFFFFFFFFFFFFFFFFFFFFFFFFFFFFF DUP2 AND PUSH1 0x0 SWAP1 DUP2 MSTORE PUSH1 0x1 PUSH1 0x20 MSTORE PUSH1 0x40 SWAP1 KECCAK256 SLOAD PUSH1 0xFF AND PUSH2 0x77F JUMPI PUSH2 0x77F PUSH2 0x1E0 DUP3 PUSH2 0xF2C JUMP JUMPDEST PUSH1 0x0 JUMPDEST PUSH1 0x2 SLOAD DUP2 LT ISZERO PUSH2 0x7EF JUMPI DUP2 PUSH20 0xFFFFFFFFFFFFFFFFFFFFFFFFFFFFFFFFFFFFFFFF AND PUSH1 0x2 DUP3 DUP2 SLOAD DUP2 LT PUSH2 0x7B0 JUMPI INVALID JUMPDEST PUSH1 0x0 SWAP2 DUP3 MSTORE PUSH1 0x20 SWAP1 SWAP2 KECCAK256 ADD SLOAD PUSH20 0xFFFFFFFFFFFFFFFFFFFFFFFFFFFFFFFFFFFFFFFF AND EQ ISZERO PUSH2 0x7E7 JUMPI PUSH2 0x7E2 DUP3 DUP3 PUSH2 0xFCB JUMP JUMPDEST PUSH2 0x7EF JUMP JUMPDEST PUSH1 0x1 ADD PUSH2 0x782 JUMP JUMPDEST POP POP JUMP JUMPDEST PUSH1 0xD SLOAD DUP2 JUMP JUMPDEST PUSH1 0x9 PUSH1 0x20 MSTORE PUSH1 0x0 SWAP1 DUP2 MSTORE PUSH1 0x40 SWAP1 KECCAK256 SLOAD DUP2 JUMP JUMPDEST PUSH1 0x15 SLOAD PUSH4 0xFFFFFFFF AND DUP2 JUMP JUMPDEST PUSH1 0x40 DUP1 MLOAD DUP3 DUP2 MSTORE PUSH1 0x20 DUP1 DUP5 MUL DUP3 ADD ADD SWAP1 SWAP2 MSTORE PUSH1 0x60 SWAP1 PUSH1 0x0 SWAP1 DUP3 SWAP1 DUP5 SWAP1 DUP2 DUP1 ISZERO PUSH2 0x854 JUMPI DUP2 PUSH1 0x20 ADD JUMPDEST PUSH1 0x60 DUP2 MSTORE PUSH1 0x20 ADD SWAP1 PUSH1 0x1 SWAP1 SUB SWAP1 DUP2 PUSH2 0x83F JUMPI SWAP1 POP JUMPDEST POP PUSH1 0x3 SLOAD SWAP1 SWAP5 POP PUSH20 0xFFFFFFFFFFFFFFFFFFFFFFFFFFFFFFFFFFFFFFFF AND DUP1 PUSH2 0x881 JUMPI PUSH2 0x881 PUSH2 0x1E0 PUSH2 0x5CE JUMP JUMPDEST PUSH1 0x0 JUMPDEST DUP3 DUP2 EQ PUSH2 0x998 JUMPI DUP2 PUSH20 0xFFFFFFFFFFFFFFFFFFFFFFFFFFFFFFFFFFFFFFFF AND DUP9 DUP9 DUP4 DUP2 DUP2 LT PUSH2 0x8AE JUMPI INVALID JUMPDEST PUSH1 0x20 MUL DUP3 ADD SWAP1 POP DUP1 CALLDATALOAD PUSH32 0xFFFFFFFFFFFFFFFFFFFFFFFFFFFFFFFFFFFFFFFFFFFFFFFFFFFFFFFFFFFFFFE1 CALLDATASIZE DUP5 SWAP1 SUB ADD DUP2 SLT PUSH2 0x8E8 JUMPI PUSH1 0x0 DUP1 REVERT JUMPDEST SWAP1 SWAP2 ADD PUSH1 0x20 DUP2 ADD SWAP2 POP CALLDATALOAD PUSH8 0xFFFFFFFFFFFFFFFF DUP2 GT ISZERO PUSH2 0x907 JUMPI PUSH1 0x0 DUP1 REVERT JUMPDEST CALLDATASIZE DUP2 SWAP1 SUB DUP3 SGT ISZERO PUSH2 0x917 JUMPI PUSH1 0x0 DUP1 REVERT JUMPDEST PUSH1 0x40 MLOAD PUSH2 0x925 SWAP3 SWAP2 SWAP1 PUSH2 0x16FB JUMP JUMPDEST PUSH1 0x0 PUSH1 0x40 MLOAD DUP1 DUP4 SUB DUP2 DUP6 GAS DELEGATECALL SWAP2 POP POP RETURNDATASIZE DUP1 PUSH1 0x0 DUP2 EQ PUSH2 0x960 JUMPI PUSH1 0x40 MLOAD SWAP2 POP PUSH1 0x1F NOT PUSH1 0x3F RETURNDATASIZE ADD AND DUP3 ADD PUSH1 0x40 MSTORE RETURNDATASIZE DUP3 MSTORE RETURNDATASIZE PUSH1 0x0 PUSH1 0x20 DUP5 ADD RETURNDATACOPY PUSH2 0x965 JUMP JUMPDEST PUSH1 0x60 SWAP2 POP JUMPDEST POP SWAP1 SWAP6 POP SWAP4 POP DUP5 PUSH2 0x978 JUMPI DUP4 MLOAD DUP5 PUSH1 0x20 ADD REVERT JUMPDEST DUP4 DUP7 DUP3 DUP2 MLOAD DUP2 LT PUSH2 0x985 JUMPI INVALID JUMPDEST PUSH1 0x20 SWAP1 DUP2 MUL SWAP2 SWAP1 SWAP2 ADD ADD MSTORE PUSH1 0x1 ADD PUSH2 0x884 JUMP JUMPDEST POP POP POP POP POP JUMPDEST SWAP3 SWAP2 POP POP JUMP JUMPDEST PUSH1 0x0 SLOAD PUSH20 0xFFFFFFFFFFFFFFFFFFFFFFFFFFFFFFFFFFFFFFFF AND DUP2 JUMP JUMPDEST PUSH2 0x9C8 PUSH2 0xC59 JUMP JUMPDEST PUSH2 0x7EF DUP3 DUP3 PUSH2 0xFCB JUMP JUMPDEST PUSH1 0x14 SLOAD DUP2 JUMP JUMPDEST PUSH1 0x8 SLOAD DUP2 JUMP JUMPDEST PUSH1 0x18 SLOAD DUP2 JUMP JUMPDEST PUSH1 0x1 PUSH1 0x20 MSTORE PUSH1 0x0 SWAP1 DUP2 MSTORE PUSH1 0x40 SWAP1 KECCAK256 SLOAD PUSH1 0xFF AND DUP2 JUMP JUMPDEST PUSH1 0xC PUSH1 0x20 MSTORE PUSH1 0x0 SWAP1 DUP2 MSTORE PUSH1 0x40 SWAP1 KECCAK256 SLOAD DUP2 JUMP JUMPDEST PUSH1 0x12 SLOAD PUSH3 0x69780 DUP2 LT DUP1 PUSH2 0xA21 JUMPI POP PUSH3 0x278D00 DUP2 GT JUMPDEST ISZERO PUSH2 0xA33 JUMPI PUSH2 0xA33 PUSH2 0x1E0 PUSH1 0x4 PUSH2 0x121A JUMP JUMPDEST PUSH1 0x15 SLOAD PUSH4 0xFFFFFFFF PUSH5 0x100000000 DUP3 DIV DUP2 AND SWAP2 AND DUP2 LT DUP1 PUSH2 0xA58 JUMPI POP PUSH4 0xFFFFFFFF DUP2 AND ISZERO JUMPDEST ISZERO PUSH2 0xA6A JUMPI PUSH2 0xA6A PUSH2 0x1E0 PUSH1 0x0 PUSH2 0x121A JUMP JUMPDEST PUSH1 0x13 SLOAD PUSH3 0xF4240 PUSH4 0xFFFFFFFF SWAP1 SWAP2 AND GT ISZERO PUSH2 0xA8C JUMPI PUSH2 0xA8C PUSH2 0x1E0 PUSH1 0x1 PUSH2 0x121A JUMP JUMPDEST PUSH1 0x2 PUSH1 0x14 SLOAD LT ISZERO PUSH2 0x7EF JUMPI PUSH2 0x7EF PUSH2 0x1E0 PUSH1 0x3 PUSH2 0x121A JUMP JUMPDEST PUSH1 0xA PUSH1 0x20 MSTORE DUP2 PUSH1 0x0 MSTORE PUSH1 0x40 PUSH1 0x0 KECCAK256 DUP2 DUP2 SLOAD DUP2 LT PUSH2 0xABD JUMPI INVALID JUMPDEST PUSH1 0x0 SWAP2 DUP3 MSTORE PUSH1 0x20 SWAP1 SWAP2 KECCAK256 ADD SLOAD PUSH20 0xFFFFFFFFFFFFFFFFFFFFFFFFFFFFFFFFFFFFFFFF AND SWAP2 POP DUP3 SWAP1 POP JUMP JUMPDEST PUSH1 0x60 PUSH1 0x2 DUP1 SLOAD DUP1 PUSH1 0x20 MUL PUSH1 0x20 ADD PUSH1 0x40 MLOAD SWAP1 DUP2 ADD PUSH1 0x40 MSTORE DUP1 SWAP3 SWAP2 SWAP1 DUP2 DUP2 MSTORE PUSH1 0x20 ADD DUP3 DUP1 SLOAD DUP1 ISZERO PUSH2 0xB4B JUMPI PUSH1 0x20 MUL DUP3 ADD SWAP2 SWAP1 PUSH1 0x0 MSTORE PUSH1 0x20 PUSH1 0x0 KECCAK256 SWAP1 JUMPDEST DUP2 SLOAD PUSH20 0xFFFFFFFFFFFFFFFFFFFFFFFFFFFFFFFFFFFFFFFF AND DUP2 MSTORE PUSH1 0x1 SWAP1 SWAP2 ADD SWAP1 PUSH1 0x20 ADD DUP1 DUP4 GT PUSH2 0xB20 JUMPI JUMPDEST POP POP POP POP POP SWAP1 POP SWAP1 JUMP JUMPDEST PUSH1 0x13 SLOAD PUSH4 0xFFFFFFFF AND DUP2 JUMP JUMPDEST PUSH1 0x15 SLOAD PUSH5 0x100000000 SWAP1 DIV PUSH4 0xFFFFFFFF AND DUP2 JUMP JUMPDEST PUSH1 0x3 SLOAD PUSH20 0xFFFFFFFFFFFFFFFFFFFFFFFFFFFFFFFFFFFFFFFF AND DUP2 JUMP JUMPDEST PUSH2 0xB99 PUSH2 0xC59 JUMP JUMPDEST PUSH20 0xFFFFFFFFFFFFFFFFFFFFFFFFFFFFFFFFFFFFFFFF DUP2 AND PUSH2 0xBC4 JUMPI PUSH2 0xBBF PUSH2 0x1E0 PUSH2 0x1259 JUMP JUMPDEST PUSH2 0x6D5 JUMP JUMPDEST PUSH1 0x0 DUP1 SLOAD PUSH32 0xFFFFFFFFFFFFFFFFFFFFFFFF0000000000000000000000000000000000000000 AND PUSH20 0xFFFFFFFFFFFFFFFFFFFFFFFFFFFFFFFFFFFFFFFF DUP4 AND SWAP1 DUP2 OR DUP3 SSTORE PUSH1 0x40 MLOAD SWAP1 SWAP2 CALLER SWAP2 PUSH32 0x8BE0079C531659141344CD1FD0A4F28419497F9722A3DAAFE3B4186F6B6457E0 SWAP2 SWAP1 LOG3 POP JUMP JUMPDEST CALLER PUSH1 0x0 SWAP1 DUP2 MSTORE PUSH1 0x1 PUSH1 0x20 MSTORE PUSH1 0x40 SWAP1 KECCAK256 SLOAD PUSH1 0xFF AND PUSH2 0xC57 JUMPI PUSH2 0xC57 PUSH2 0x1E0 CALLER PUSH2 0x1290 JUMP JUMPDEST JUMP JUMPDEST PUSH1 0x0 SLOAD PUSH20 0xFFFFFFFFFFFFFFFFFFFFFFFFFFFFFFFFFFFFFFFF AND CALLER EQ PUSH2 0xC57 JUMPI PUSH1 0x0 SLOAD PUSH2 0xC57 SWAP1 PUSH2 0x1E0 SWAP1 CALLER SWAP1 PUSH20 0xFFFFFFFFFFFFFFFFFFFFFFFFFFFFFFFFFFFFFFFF AND PUSH2 0x12AB JUMP JUMPDEST PUSH20 0xFFFFFFFFFFFFFFFFFFFFFFFFFFFFFFFFFFFFFFFF DUP2 AND PUSH2 0xCC6 JUMPI PUSH2 0xCC6 PUSH2 0x1E0 PUSH2 0x134D JUMP JUMPDEST PUSH20 0xFFFFFFFFFFFFFFFFFFFFFFFFFFFFFFFFFFFFFFFF DUP2 AND PUSH1 0x0 SWAP1 DUP2 MSTORE PUSH1 0x1 PUSH1 0x20 MSTORE PUSH1 0x40 SWAP1 KECCAK256 SLOAD PUSH1 0xFF AND ISZERO PUSH2 0xD00 JUMPI PUSH2 0xD00 PUSH2 0x1E0 DUP3 PUSH2 0x1384 JUMP JUMPDEST PUSH20 0xFFFFFFFFFFFFFFFFFFFFFFFFFFFFFFFFFFFFFFFF DUP2 AND PUSH1 0x0 DUP2 DUP2 MSTORE PUSH1 0x1 PUSH1 0x20 DUP2 SWAP1 MSTORE PUSH1 0x40 DUP1 DUP4 KECCAK256 DUP1 SLOAD PUSH32 0xFFFFFFFFFFFFFFFFFFFFFFFFFFFFFFFFFFFFFFFFFFFFFFFFFFFFFFFFFFFFFF00 AND DUP4 OR SWAP1 SSTORE PUSH1 0x2 DUP1 SLOAD SWAP3 DUP4 ADD DUP2 SSTORE DUP4 MSTORE PUSH32 0x405787FA12A823E0F2B7631CC41B3BA8828B3321CA811111FA75CD3AA3BB5ACE SWAP1 SWAP2 ADD DUP1 SLOAD PUSH32 0xFFFFFFFFFFFFFFFFFFFFFFFF0000000000000000000000000000000000000000 AND DUP5 OR SWAP1 SSTORE MLOAD CALLER SWAP3 SWAP2 PUSH32 0x3147867C59D17E8FA9D522465651D44AAE0A9E38F902F3475B97E58072F0ED4C SWAP2 LOG3 POP JUMP JUMPDEST PUSH1 0x3 DUP1 SLOAD PUSH32 0xFFFFFFFFFFFFFFFFFFFFFFFF0000000000000000000000000000000000000000 AND PUSH20 0xFFFFFFFFFFFFFFFFFFFFFFFFFFFFFFFFFFFFFFFF DUP4 AND OR SWAP1 SSTORE PUSH1 0x40 MLOAD PUSH32 0x48368388F801041F7690185C4E28B6F3505C740C47BE8AC104B55DF666BFC84 SWAP1 PUSH2 0xE41 SWAP1 DUP4 SWAP1 PUSH2 0x1714 JUMP JUMPDEST PUSH1 0x40 MLOAD DUP1 SWAP2 SUB SWAP1 LOG1 PUSH1 0x3 SLOAD PUSH1 0x40 DUP1 MLOAD PUSH1 0x4 DUP2 MSTORE PUSH1 0x24 DUP2 ADD DUP3 MSTORE PUSH1 0x20 DUP2 ADD DUP1 MLOAD PUSH28 0xFFFFFFFFFFFFFFFFFFFFFFFFFFFFFFFFFFFFFFFFFFFFFFFFFFFFFFFF AND PUSH32 0xE1C7392A00000000000000000000000000000000000000000000000000000000 OR SWAP1 MSTORE SWAP1 MLOAD PUSH1 0x0 SWAP3 PUSH1 0x60 SWAP3 PUSH20 0xFFFFFFFFFFFFFFFFFFFFFFFFFFFFFFFFFFFFFFFF SWAP1 SWAP2 AND SWAP2 PUSH2 0xECD SWAP2 SWAP1 PUSH2 0x1708 JUMP JUMPDEST PUSH1 0x0 PUSH1 0x40 MLOAD DUP1 DUP4 SUB DUP2 DUP6 GAS DELEGATECALL SWAP2 POP POP RETURNDATASIZE DUP1 PUSH1 0x0 DUP2 EQ PUSH2 0xF08 JUMPI PUSH1 0x40 MLOAD SWAP2 POP PUSH1 0x1F NOT PUSH1 0x3F RETURNDATASIZE ADD AND DUP3 ADD PUSH1 0x40 MSTORE RETURNDATASIZE DUP3 MSTORE RETURNDATASIZE PUSH1 0x0 PUSH1 0x20 DUP5 ADD RETURNDATACOPY PUSH2 0xF0D JUMP JUMPDEST PUSH1 0x60 SWAP2 POP JUMPDEST POP SWAP2 POP SWAP2 POP DUP2 PUSH2 0xF1F JUMPI DUP1 MLOAD PUSH1 0x20 DUP3 ADD REVERT JUMPDEST PUSH2 0xF27 PUSH2 0xA0B JUMP JUMPDEST POP POP POP JUMP JUMPDEST PUSH1 0x60 PUSH4 0xEB5108A2 PUSH1 0xE0 SHL DUP3 PUSH1 0x40 MLOAD PUSH1 0x24 ADD PUSH2 0xF47 SWAP2 SWAP1 PUSH2 0x1714 JUMP JUMPDEST PUSH1 0x40 DUP1 MLOAD PUSH32 0xFFFFFFFFFFFFFFFFFFFFFFFFFFFFFFFFFFFFFFFFFFFFFFFFFFFFFFFFFFFFFFE0 DUP2 DUP5 SUB ADD DUP2 MSTORE SWAP2 SWAP1 MSTORE PUSH1 0x20 DUP2 ADD DUP1 MLOAD PUSH28 0xFFFFFFFFFFFFFFFFFFFFFFFFFFFFFFFFFFFFFFFFFFFFFFFFFFFFFFFF AND PUSH32 0xFFFFFFFF00000000000000000000000000000000000000000000000000000000 SWAP1 SWAP4 AND SWAP3 SWAP1 SWAP3 OR SWAP1 SWAP2 MSTORE SWAP1 POP SWAP2 SWAP1 POP JUMP JUMPDEST PUSH20 0xFFFFFFFFFFFFFFFFFFFFFFFFFFFFFFFFFFFFFFFF DUP3 AND PUSH1 0x0 SWAP1 DUP2 MSTORE PUSH1 0x1 PUSH1 0x20 MSTORE PUSH1 0x40 SWAP1 KECCAK256 SLOAD PUSH1 0xFF AND PUSH2 0x1004 JUMPI PUSH2 0x1004 PUSH2 0x1E0 DUP4 PUSH2 0xF2C JUMP JUMPDEST PUSH1 0x2 SLOAD DUP2 LT PUSH2 0x101F JUMPI PUSH2 0x101F PUSH2 0x1E0 DUP3 PUSH1 0x2 DUP1 SLOAD SWAP1 POP PUSH2 0x139F JUMP JUMPDEST DUP2 PUSH20 0xFFFFFFFFFFFFFFFFFFFFFFFFFFFFFFFFFFFFFFFF AND PUSH1 0x2 DUP3 DUP2 SLOAD DUP2 LT PUSH2 0x1043 JUMPI INVALID JUMPDEST PUSH1 0x0 SWAP2 DUP3 MSTORE PUSH1 0x20 SWAP1 SWAP2 KECCAK256 ADD SLOAD PUSH20 0xFFFFFFFFFFFFFFFFFFFFFFFFFFFFFFFFFFFFFFFF AND EQ PUSH2 0x10A5 JUMPI PUSH2 0x10A5 PUSH2 0x1E0 PUSH1 0x2 DUP4 DUP2 SLOAD DUP2 LT PUSH2 0x107D JUMPI INVALID JUMPDEST PUSH1 0x0 SWAP2 DUP3 MSTORE PUSH1 0x20 SWAP1 SWAP2 KECCAK256 ADD SLOAD PUSH20 0xFFFFFFFFFFFFFFFFFFFFFFFFFFFFFFFFFFFFFFFF AND DUP5 PUSH2 0x13BC JUMP JUMPDEST PUSH20 0xFFFFFFFFFFFFFFFFFFFFFFFFFFFFFFFFFFFFFFFF DUP3 AND PUSH1 0x0 SWAP1 DUP2 MSTORE PUSH1 0x1 PUSH1 0x20 MSTORE PUSH1 0x40 SWAP1 KECCAK256 DUP1 SLOAD PUSH32 0xFFFFFFFFFFFFFFFFFFFFFFFFFFFFFFFFFFFFFFFFFFFFFFFFFFFFFFFFFFFFFF00 AND SWAP1 SSTORE PUSH1 0x2 DUP1 SLOAD PUSH32 0xFFFFFFFFFFFFFFFFFFFFFFFFFFFFFFFFFFFFFFFFFFFFFFFFFFFFFFFFFFFFFFFF DUP2 ADD SWAP1 DUP2 LT PUSH2 0x1120 JUMPI INVALID JUMPDEST PUSH1 0x0 SWAP2 DUP3 MSTORE PUSH1 0x20 SWAP1 SWAP2 KECCAK256 ADD SLOAD PUSH1 0x2 DUP1 SLOAD PUSH20 0xFFFFFFFFFFFFFFFFFFFFFFFFFFFFFFFFFFFFFFFF SWAP1 SWAP3 AND SWAP2 DUP4 SWAP1 DUP2 LT PUSH2 0x1153 JUMPI INVALID JUMPDEST PUSH1 0x0 SWAP2 DUP3 MSTORE PUSH1 0x20 SWAP1 SWAP2 KECCAK256 ADD DUP1 SLOAD PUSH32 0xFFFFFFFFFFFFFFFFFFFFFFFF0000000000000000000000000000000000000000 AND PUSH20 0xFFFFFFFFFFFFFFFFFFFFFFFFFFFFFFFFFFFFFFFF SWAP3 SWAP1 SWAP3 AND SWAP2 SWAP1 SWAP2 OR SWAP1 SSTORE PUSH1 0x2 DUP1 SLOAD PUSH32 0xFFFFFFFFFFFFFFFFFFFFFFFFFFFFFFFFFFFFFFFFFFFFFFFFFFFFFFFFFFFFFFFF ADD SWAP1 PUSH2 0x11D2 SWAP1 DUP3 PUSH2 0x13D9 JUMP JUMPDEST POP PUSH1 0x40 MLOAD CALLER SWAP1 PUSH20 0xFFFFFFFFFFFFFFFFFFFFFFFFFFFFFFFFFFFFFFFF DUP5 AND SWAP1 PUSH32 0x1F32C1B084E2DE0713B8FB16BD46BB9DF710A3DBEAE2F3CA93AF46E016DCC6B0 SWAP1 PUSH1 0x0 SWAP1 LOG3 POP POP JUMP JUMPDEST PUSH1 0x60 PUSH32 0xFC45BD1100000000000000000000000000000000000000000000000000000000 DUP3 PUSH1 0x4 DUP2 GT ISZERO PUSH2 0x1249 JUMPI INVALID JUMPDEST PUSH1 0x40 MLOAD PUSH1 0x24 ADD PUSH2 0xF47 SWAP2 SWAP1 PUSH2 0x1818 JUMP JUMPDEST PUSH1 0x40 DUP1 MLOAD DUP1 DUP3 ADD SWAP1 SWAP2 MSTORE PUSH1 0x4 DUP2 MSTORE PUSH32 0xE69EDC3E00000000000000000000000000000000000000000000000000000000 PUSH1 0x20 DUP3 ADD MSTORE SWAP1 JUMP JUMPDEST PUSH1 0x60 PUSH4 0xB65A25B9 PUSH1 0xE0 SHL DUP3 PUSH1 0x40 MLOAD PUSH1 0x24 ADD PUSH2 0xF47 SWAP2 SWAP1 PUSH2 0x1714 JUMP JUMPDEST PUSH1 0x60 PUSH4 0x1DE45AD1 PUSH1 0xE0 SHL DUP4 DUP4 PUSH1 0x40 MLOAD PUSH1 0x24 ADD PUSH2 0x12C8 SWAP3 SWAP2 SWAP1 PUSH2 0x1722 JUMP JUMPDEST PUSH1 0x40 DUP1 MLOAD PUSH32 0xFFFFFFFFFFFFFFFFFFFFFFFFFFFFFFFFFFFFFFFFFFFFFFFFFFFFFFFFFFFFFFE0 DUP2 DUP5 SUB ADD DUP2 MSTORE SWAP2 SWAP1 MSTORE PUSH1 0x20 DUP2 ADD DUP1 MLOAD PUSH28 0xFFFFFFFFFFFFFFFFFFFFFFFFFFFFFFFFFFFFFFFFFFFFFFFFFFFFFFFF AND PUSH32 0xFFFFFFFF00000000000000000000000000000000000000000000000000000000 SWAP1 SWAP4 AND SWAP3 SWAP1 SWAP3 OR SWAP1 SWAP2 MSTORE SWAP1 POP SWAP3 SWAP2 POP POP JUMP JUMPDEST PUSH1 0x40 DUP1 MLOAD DUP1 DUP3 ADD SWAP1 SWAP2 MSTORE PUSH1 0x4 DUP2 MSTORE PUSH32 0x57654FE400000000000000000000000000000000000000000000000000000000 PUSH1 0x20 DUP3 ADD MSTORE SWAP1 JUMP JUMPDEST PUSH1 0x60 PUSH4 0xDE16F1A0 PUSH1 0xE0 SHL DUP3 PUSH1 0x40 MLOAD PUSH1 0x24 ADD PUSH2 0xF47 SWAP2 SWAP1 PUSH2 0x1714 JUMP JUMPDEST PUSH1 0x60 PUSH4 0xE9F83771 PUSH1 0xE0 SHL DUP4 DUP4 PUSH1 0x40 MLOAD PUSH1 0x24 ADD PUSH2 0x12C8 SWAP3 SWAP2 SWAP1 PUSH2 0x177B JUMP JUMPDEST PUSH1 0x60 PUSH4 0x140A84DB PUSH1 0xE0 SHL DUP4 DUP4 PUSH1 0x40 MLOAD PUSH1 0x24 ADD PUSH2 0x12C8 SWAP3 SWAP2 SWAP1 PUSH2 0x1722 JUMP JUMPDEST DUP2 SLOAD DUP2 DUP4 SSTORE DUP2 DUP2 GT ISZERO PUSH2 0xF27 JUMPI PUSH1 0x0 DUP4 DUP2 MSTORE PUSH1 0x20 SWAP1 KECCAK256 PUSH2 0xF27 SWAP2 DUP2 ADD SWAP1 DUP4 ADD PUSH2 0x603 SWAP2 SWAP1 JUMPDEST DUP1 DUP3 GT ISZERO PUSH2 0x1412 JUMPI PUSH1 0x0 DUP2 SSTORE PUSH1 0x1 ADD PUSH2 0x13FE JUMP JUMPDEST POP SWAP1 JUMP JUMPDEST DUP1 CALLDATALOAD PUSH2 0x99E DUP2 PUSH2 0x18DA JUMP JUMPDEST PUSH1 0x0 DUP1 DUP4 PUSH1 0x1F DUP5 ADD SLT PUSH2 0x1433 JUMPI PUSH1 0x0 DUP1 REVERT JUMPDEST POP DUP2 CALLDATALOAD PUSH8 0xFFFFFFFFFFFFFFFF DUP2 GT ISZERO PUSH2 0x144B JUMPI PUSH1 0x0 DUP1 REVERT JUMPDEST PUSH1 0x20 DUP4 ADD SWAP2 POP DUP4 PUSH1 0x20 DUP3 MUL DUP4 ADD GT ISZERO PUSH2 0x1463 JUMPI PUSH1 0x0 DUP1 REVERT JUMPDEST SWAP3 POP SWAP3 SWAP1 POP JUMP JUMPDEST DUP1 CALLDATALOAD PUSH2 0x99E DUP2 PUSH2 0x18EE JUMP JUMPDEST PUSH1 0x0 PUSH1 0x20 DUP3 DUP5 SUB SLT ISZERO PUSH2 0x1487 JUMPI PUSH1 0x0 DUP1 REVERT JUMPDEST PUSH1 0x0 PUSH2 0x1493 DUP5 DUP5 PUSH2 0x1416 JUMP JUMPDEST SWAP5 SWAP4 POP POP POP POP JUMP JUMPDEST PUSH1 0x0 DUP1 PUSH1 0x40 DUP4 DUP6 SUB SLT ISZERO PUSH2 0x14AE JUMPI PUSH1 0x0 DUP1 REVERT JUMPDEST PUSH1 0x0 PUSH2 0x14BA DUP6 DUP6 PUSH2 0x1416 JUMP JUMPDEST SWAP3 POP POP PUSH1 0x20 PUSH2 0x14CB DUP6 DUP3 DUP7 ADD PUSH2 0x146A JUMP JUMPDEST SWAP2 POP POP SWAP3 POP SWAP3 SWAP1 POP JUMP JUMPDEST PUSH1 0x0 DUP1 PUSH1 0x20 DUP4 DUP6 SUB SLT ISZERO PUSH2 0x14E8 JUMPI PUSH1 0x0 DUP1 REVERT JUMPDEST DUP3 CALLDATALOAD PUSH8 0xFFFFFFFFFFFFFFFF DUP2 GT ISZERO PUSH2 0x14FF JUMPI PUSH1 0x0 DUP1 REVERT JUMPDEST PUSH2 0x150B DUP6 DUP3 DUP7 ADD PUSH2 0x1421 JUMP JUMPDEST SWAP3 POP SWAP3 POP POP SWAP3 POP SWAP3 SWAP1 POP JUMP JUMPDEST PUSH1 0x0 PUSH1 0x20 DUP3 DUP5 SUB SLT ISZERO PUSH2 0x1529 JUMPI PUSH1 0x0 DUP1 REVERT JUMPDEST PUSH1 0x0 PUSH2 0x1493 DUP5 DUP5 PUSH2 0x146A JUMP JUMPDEST PUSH1 0x0 DUP1 PUSH1 0x40 DUP4 DUP6 SUB SLT ISZERO PUSH2 0x1548 JUMPI PUSH1 0x0 DUP1 REVERT JUMPDEST PUSH1 0x0 PUSH2 0x14BA DUP6 DUP6 PUSH2 0x146A JUMP JUMPDEST PUSH1 0x0 PUSH2 0x1560 DUP4 DUP4 PUSH2 0x157B JUMP JUMPDEST POP POP PUSH1 0x20 ADD SWAP1 JUMP JUMPDEST PUSH1 0x0 PUSH2 0x1574 DUP4 DUP4 PUSH2 0x16B1 JUMP JUMPDEST SWAP4 SWAP3 POP POP POP JUMP JUMPDEST PUSH2 0x1584 DUP2 PUSH2 0x183E JUMP JUMPDEST DUP3 MSTORE POP POP JUMP JUMPDEST PUSH1 0x0 PUSH2 0x1595 DUP3 PUSH2 0x182C JUMP JUMPDEST PUSH2 0x159F DUP2 DUP6 PUSH2 0x1830 JUMP JUMPDEST SWAP4 POP PUSH2 0x15AA DUP4 PUSH2 0x1826 JUMP JUMPDEST DUP1 PUSH1 0x0 JUMPDEST DUP4 DUP2 LT ISZERO PUSH2 0x15D8 JUMPI DUP2 MLOAD PUSH2 0x15C2 DUP9 DUP3 PUSH2 0x1554 JUMP JUMPDEST SWAP8 POP PUSH2 0x15CD DUP4 PUSH2 0x1826 JUMP JUMPDEST SWAP3 POP POP PUSH1 0x1 ADD PUSH2 0x15AE JUMP JUMPDEST POP SWAP5 SWAP6 SWAP5 POP POP POP POP POP JUMP JUMPDEST PUSH1 0x0 PUSH2 0x15EE DUP3 PUSH2 0x182C JUMP JUMPDEST PUSH2 0x15F8 DUP2 DUP6 PUSH2 0x1830 JUMP JUMPDEST SWAP4 POP DUP4 PUSH1 0x20 DUP3 MUL DUP6 ADD PUSH2 0x160A DUP6 PUSH2 0x1826 JUMP JUMPDEST DUP1 PUSH1 0x0 JUMPDEST DUP6 DUP2 LT ISZERO PUSH2 0x1644 JUMPI DUP5 DUP5 SUB DUP10 MSTORE DUP2 MLOAD PUSH2 0x1627 DUP6 DUP3 PUSH2 0x1568 JUMP JUMPDEST SWAP5 POP PUSH2 0x1632 DUP4 PUSH2 0x1826 JUMP JUMPDEST PUSH1 0x20 SWAP11 SWAP1 SWAP11 ADD SWAP10 SWAP3 POP POP PUSH1 0x1 ADD PUSH2 0x160E JUMP JUMPDEST POP SWAP2 SWAP8 SWAP7 POP POP POP POP POP POP POP JUMP JUMPDEST PUSH2 0x1584 DUP2 PUSH2 0x1849 JUMP JUMPDEST PUSH2 0x1584 DUP2 PUSH2 0x603 JUMP JUMPDEST PUSH1 0x0 PUSH2 0x166F DUP4 DUP6 PUSH2 0x1839 JUMP JUMPDEST SWAP4 POP PUSH2 0x167C DUP4 DUP6 DUP5 PUSH2 0x1876 JUMP JUMPDEST POP POP ADD SWAP1 JUMP JUMPDEST PUSH1 0x0 PUSH2 0x168D DUP3 PUSH2 0x182C JUMP JUMPDEST PUSH2 0x1697 DUP2 DUP6 PUSH2 0x1839 JUMP JUMPDEST SWAP4 POP PUSH2 0x16A7 DUP2 DUP6 PUSH1 0x20 DUP7 ADD PUSH2 0x1882 JUMP JUMPDEST SWAP3 SWAP1 SWAP3 ADD SWAP3 SWAP2 POP POP JUMP JUMPDEST PUSH1 0x0 PUSH2 0x16BC DUP3 PUSH2 0x182C JUMP JUMPDEST PUSH2 0x16C6 DUP2 DUP6 PUSH2 0x1830 JUMP JUMPDEST SWAP4 POP PUSH2 0x16D6 DUP2 DUP6 PUSH1 0x20 DUP7 ADD PUSH2 0x1882 JUMP JUMPDEST PUSH2 0x16DF DUP2 PUSH2 0x18B2 JUMP JUMPDEST SWAP1 SWAP4 ADD SWAP4 SWAP3 POP POP POP JUMP JUMPDEST PUSH2 0x1584 DUP2 PUSH2 0x1867 JUMP JUMPDEST PUSH2 0x1584 DUP2 PUSH2 0x1870 JUMP JUMPDEST PUSH1 0x0 PUSH2 0x1493 DUP3 DUP5 DUP7 PUSH2 0x1663 JUMP JUMPDEST PUSH1 0x0 PUSH2 0x1574 DUP3 DUP5 PUSH2 0x1682 JUMP JUMPDEST PUSH1 0x20 DUP2 ADD PUSH2 0x99E DUP3 DUP5 PUSH2 0x157B JUMP JUMPDEST PUSH1 0x40 DUP2 ADD PUSH2 0x1730 DUP3 DUP6 PUSH2 0x157B JUMP JUMPDEST PUSH2 0x1574 PUSH1 0x20 DUP4 ADD DUP5 PUSH2 0x157B JUMP JUMPDEST PUSH1 0x20 DUP1 DUP3 MSTORE DUP2 ADD PUSH2 0x1574 DUP2 DUP5 PUSH2 0x158A JUMP JUMPDEST PUSH1 0x20 DUP1 DUP3 MSTORE DUP2 ADD PUSH2 0x1574 DUP2 DUP5 PUSH2 0x15E3 JUMP JUMPDEST PUSH1 0x20 DUP2 ADD PUSH2 0x99E DUP3 DUP5 PUSH2 0x1651 JUMP JUMPDEST PUSH1 0x20 DUP2 ADD PUSH2 0x99E DUP3 DUP5 PUSH2 0x165A JUMP JUMPDEST PUSH1 0x40 DUP2 ADD PUSH2 0x1789 DUP3 DUP6 PUSH2 0x165A JUMP JUMPDEST PUSH2 0x1574 PUSH1 0x20 DUP4 ADD DUP5 PUSH2 0x165A JUMP JUMPDEST PUSH1 0x60 DUP2 ADD PUSH2 0x17A4 DUP3 DUP7 PUSH2 0x165A JUMP JUMPDEST PUSH2 0x17B1 PUSH1 0x20 DUP4 ADD DUP6 PUSH2 0x165A JUMP JUMPDEST PUSH2 0x1493 PUSH1 0x40 DUP4 ADD DUP5 PUSH2 0x165A JUMP JUMPDEST PUSH1 0xA0 DUP2 ADD PUSH2 0x17CC DUP3 DUP9 PUSH2 0x165A JUMP JUMPDEST PUSH2 0x17D9 PUSH1 0x20 DUP4 ADD DUP8 PUSH2 0x165A JUMP JUMPDEST PUSH2 0x17E6 PUSH1 0x40 DUP4 ADD DUP7 PUSH2 0x165A JUMP JUMPDEST PUSH2 0x17F3 PUSH1 0x60 DUP4 ADD DUP6 PUSH2 0x165A JUMP JUMPDEST PUSH2 0x1800 PUSH1 0x80 DUP4 ADD DUP5 PUSH2 0x165A JUMP JUMPDEST SWAP7 SWAP6 POP POP POP POP POP POP JUMP JUMPDEST PUSH1 0x20 DUP2 ADD PUSH2 0x99E DUP3 DUP5 PUSH2 0x16E9 JUMP JUMPDEST PUSH1 0x20 DUP2 ADD PUSH2 0x99E DUP3 DUP5 PUSH2 0x16F2 JUMP JUMPDEST PUSH1 0x20 ADD SWAP1 JUMP JUMPDEST MLOAD SWAP1 JUMP JUMPDEST SWAP1 DUP2 MSTORE PUSH1 0x20 ADD SWAP1 JUMP JUMPDEST SWAP2 SWAP1 POP JUMP JUMPDEST PUSH1 0x0 PUSH2 0x99E DUP3 PUSH2 0x184E JUMP JUMPDEST ISZERO ISZERO SWAP1 JUMP JUMPDEST PUSH20 0xFFFFFFFFFFFFFFFFFFFFFFFFFFFFFFFFFFFFFFFF AND SWAP1 JUMP JUMPDEST PUSH4 0xFFFFFFFF AND SWAP1 JUMP JUMPDEST PUSH1 0xFF AND SWAP1 JUMP JUMPDEST DUP3 DUP2 DUP4 CALLDATACOPY POP PUSH1 0x0 SWAP2 ADD MSTORE JUMP JUMPDEST PUSH1 0x0 JUMPDEST DUP4 DUP2 LT ISZERO PUSH2 0x189D JUMPI DUP2 DUP2 ADD MLOAD DUP4 DUP3 ADD MSTORE PUSH1 0x20 ADD PUSH2 0x1885 JUMP JUMPDEST DUP4 DUP2 GT ISZERO PUSH2 0x18AC JUMPI PUSH1 0x0 DUP5 DUP5 ADD MSTORE JUMPDEST POP POP POP POP JUMP JUMPDEST PUSH1 0x1F ADD PUSH32 0xFFFFFFFFFFFFFFFFFFFFFFFFFFFFFFFFFFFFFFFFFFFFFFFFFFFFFFFFFFFFFFE0 AND SWAP1 JUMP JUMPDEST PUSH2 0x18E3 DUP2 PUSH2 0x183E JUMP JUMPDEST DUP2 EQ PUSH2 0x6D5 JUMPI PUSH1 0x0 DUP1 REVERT JUMPDEST PUSH2 0x18E3 DUP2 PUSH2 0x603 JUMP INVALID LOG3 PUSH6 0x627A7A723058 KECCAK256 SWAP7 SWAP13 0xef 0xad PUSH18 0x72EBC7F98560DC29DED9E238E68E6D74CE20 0xa8 0x2d SSTORE 0xe5 0x2e 0xd1 0xda 0xbb DUP14 PUSH13 0x6578706572696D656E74616CF5 PUSH5 0x736F6C6343 STOP SDIV MULMOD STOP BLOCKHASH "
			}
		}
	},
	"sourceTreeHashHex": "0x00823f447eac129a1c845aad5649610f876ca213bc2beeaf5ccaa8b70b9ae9a5",
	"compiler": {
		"name": "solc",
		"version": "0.5.9+commit.e560f70d",
		"settings": {
			"remappings": [],
			"optimizer": {
				"enabled": true,
				"runs": 1000000
			},
			"outputSelection": {
				"*": {
					"*": [
						"abi",
						"devdoc",
						"evm.bytecode.object",
						"evm.bytecode.sourceMap",
						"evm.deployedBytecode.object",
						"evm.deployedBytecode.sourceMap"
					]
				}
			}
		}
	},
	"chains": {}
}