{
	"schemaVersion": "2.0.0",
	"contractName": "StakingProxy",
	"compilerOutput": {
		"abi": [
			{
				"inputs": [
					{
						"internalType": "address",
						"name": "_stakingContract",
						"type": "address"
					}
				],
				"stateMutability": "nonpayable",
				"type": "constructor"
			},
			{
				"anonymous": false,
				"inputs": [
					{
						"indexed": true,
						"internalType": "address",
						"name": "target",
						"type": "address"
					},
					{
						"indexed": true,
						"internalType": "address",
						"name": "caller",
						"type": "address"
					}
				],
				"name": "AuthorizedAddressAdded",
				"type": "event"
			},
			{
				"anonymous": false,
				"inputs": [
					{
						"indexed": true,
						"internalType": "address",
						"name": "target",
						"type": "address"
					},
					{
						"indexed": true,
						"internalType": "address",
						"name": "caller",
						"type": "address"
					}
				],
				"name": "AuthorizedAddressRemoved",
				"type": "event"
			},
			{
				"anonymous": false,
				"inputs": [
					{
						"indexed": true,
						"internalType": "address",
						"name": "previousOwner",
						"type": "address"
					},
					{
						"indexed": true,
						"internalType": "address",
						"name": "newOwner",
						"type": "address"
					}
				],
				"name": "OwnershipTransferred",
				"type": "event"
			},
			{
				"anonymous": false,
				"inputs": [
					{
						"indexed": false,
						"internalType": "address",
						"name": "newStakingContractAddress",
						"type": "address"
					}
				],
				"name": "StakingContractAttachedToProxy",
				"type": "event"
			},
			{
				"anonymous": false,
				"inputs": [],
				"name": "StakingContractDetachedFromProxy",
				"type": "event"
			},
			{
				"inputs": [
					{
						"internalType": "address",
						"name": "target",
						"type": "address"
					}
				],
				"name": "addAuthorizedAddress",
				"outputs": [],
				"stateMutability": "nonpayable",
				"type": "function"
			},
			{
				"inputs": [
					{
						"internalType": "uint256",
						"name": "",
						"type": "uint256"
					}
				],
				"name": "aggregatedStatsByEpoch",
				"outputs": [
					{
						"internalType": "uint256",
						"name": "rewardsAvailable",
						"type": "uint256"
					},
					{
						"internalType": "uint256",
						"name": "numPoolsToFinalize",
						"type": "uint256"
					},
					{
						"internalType": "uint256",
						"name": "totalFeesCollected",
						"type": "uint256"
					},
					{
						"internalType": "uint256",
						"name": "totalWeightedStake",
						"type": "uint256"
					},
					{
						"internalType": "uint256",
						"name": "totalRewardsFinalized",
						"type": "uint256"
					}
				],
				"stateMutability": "view",
				"type": "function"
			},
			{
				"inputs": [],
				"name": "assertValidStorageParams",
				"outputs": [],
				"stateMutability": "view",
				"type": "function"
			},
			{
				"inputs": [
					{
						"internalType": "address",
						"name": "_stakingContract",
						"type": "address"
					}
				],
				"name": "attachStakingContract",
				"outputs": [],
				"stateMutability": "nonpayable",
				"type": "function"
			},
			{
				"inputs": [
					{
						"internalType": "uint256",
						"name": "",
						"type": "uint256"
					}
				],
				"name": "authorities",
				"outputs": [
					{
						"internalType": "address",
						"name": "",
						"type": "address"
					}
				],
				"stateMutability": "view",
				"type": "function"
			},
			{
				"inputs": [
					{
						"internalType": "address",
						"name": "",
						"type": "address"
					}
				],
				"name": "authorized",
				"outputs": [
					{
						"internalType": "bool",
						"name": "",
						"type": "bool"
					}
				],
				"stateMutability": "view",
				"type": "function"
			},
			{
				"inputs": [
					{
						"internalType": "bytes[]",
						"name": "data",
						"type": "bytes[]"
					}
				],
				"name": "batchExecute",
				"outputs": [
					{
						"internalType": "bytes[]",
						"name": "batchReturnData",
						"type": "bytes[]"
					}
				],
				"stateMutability": "nonpayable",
				"type": "function"
			},
			{
				"inputs": [],
				"name": "cobbDouglasAlphaDenominator",
				"outputs": [
					{
						"internalType": "uint32",
						"name": "",
						"type": "uint32"
					}
				],
				"stateMutability": "view",
				"type": "function"
			},
			{
				"inputs": [],
				"name": "cobbDouglasAlphaNumerator",
				"outputs": [
					{
						"internalType": "uint32",
						"name": "",
						"type": "uint32"
					}
				],
				"stateMutability": "view",
				"type": "function"
			},
			{
				"inputs": [],
				"name": "currentEpoch",
				"outputs": [
					{
						"internalType": "uint256",
						"name": "",
						"type": "uint256"
					}
				],
				"stateMutability": "view",
				"type": "function"
			},
			{
				"inputs": [],
				"name": "currentEpochStartTimeInSeconds",
				"outputs": [
					{
						"internalType": "uint256",
						"name": "",
						"type": "uint256"
					}
				],
				"stateMutability": "view",
				"type": "function"
			},
			{
				"inputs": [],
				"name": "detachStakingContract",
				"outputs": [],
				"stateMutability": "nonpayable",
				"type": "function"
			},
			{
				"inputs": [],
				"name": "epochDurationInSeconds",
				"outputs": [
					{
						"internalType": "uint256",
						"name": "",
						"type": "uint256"
					}
				],
				"stateMutability": "view",
				"type": "function"
			},
			{
				"inputs": [],
				"name": "getAuthorizedAddresses",
				"outputs": [
					{
						"internalType": "address[]",
						"name": "",
						"type": "address[]"
					}
				],
				"stateMutability": "view",
				"type": "function"
			},
			{
				"inputs": [],
				"name": "grgReservedForPoolRewards",
				"outputs": [
					{
						"internalType": "uint256",
						"name": "",
						"type": "uint256"
					}
				],
				"stateMutability": "view",
				"type": "function"
			},
			{
				"inputs": [],
				"name": "lastPoolId",
				"outputs": [
					{
						"internalType": "bytes32",
						"name": "",
						"type": "bytes32"
					}
				],
				"stateMutability": "view",
				"type": "function"
			},
			{
				"inputs": [],
				"name": "minimumPoolStake",
				"outputs": [
					{
						"internalType": "uint256",
						"name": "",
						"type": "uint256"
					}
				],
				"stateMutability": "view",
				"type": "function"
			},
			{
				"inputs": [],
				"name": "owner",
				"outputs": [
					{
						"internalType": "address",
						"name": "",
						"type": "address"
					}
				],
				"stateMutability": "view",
				"type": "function"
			},
			{
				"inputs": [
					{
						"internalType": "address",
						"name": "",
						"type": "address"
					}
				],
				"name": "poolIdByRbPoolAccount",
				"outputs": [
					{
						"internalType": "bytes32",
						"name": "",
						"type": "bytes32"
					}
				],
				"stateMutability": "view",
				"type": "function"
			},
			{
				"inputs": [
					{
						"internalType": "bytes32",
						"name": "",
						"type": "bytes32"
					},
					{
						"internalType": "uint256",
						"name": "",
						"type": "uint256"
					}
				],
				"name": "poolStatsByEpoch",
				"outputs": [
					{
						"internalType": "uint256",
						"name": "feesCollected",
						"type": "uint256"
					},
					{
						"internalType": "uint256",
						"name": "weightedStake",
						"type": "uint256"
					},
					{
						"internalType": "uint256",
						"name": "membersStake",
						"type": "uint256"
					}
				],
				"stateMutability": "view",
				"type": "function"
			},
			{
				"inputs": [
					{
						"internalType": "address",
						"name": "target",
						"type": "address"
					}
				],
				"name": "removeAuthorizedAddress",
				"outputs": [],
				"stateMutability": "nonpayable",
				"type": "function"
			},
			{
				"inputs": [
					{
						"internalType": "address",
						"name": "target",
						"type": "address"
					},
					{
						"internalType": "uint256",
						"name": "index",
						"type": "uint256"
					}
				],
				"name": "removeAuthorizedAddressAtIndex",
				"outputs": [],
				"stateMutability": "nonpayable",
				"type": "function"
			},
			{
				"inputs": [],
				"name": "rewardDelegatedStakeWeight",
				"outputs": [
					{
						"internalType": "uint32",
						"name": "",
						"type": "uint32"
					}
				],
				"stateMutability": "view",
				"type": "function"
			},
			{
				"inputs": [
					{
						"internalType": "bytes32",
						"name": "",
						"type": "bytes32"
					}
				],
				"name": "rewardsByPoolId",
				"outputs": [
					{
						"internalType": "uint256",
						"name": "",
						"type": "uint256"
					}
				],
				"stateMutability": "view",
				"type": "function"
			},
			{
				"inputs": [],
				"name": "stakingContract",
				"outputs": [
					{
						"internalType": "address",
						"name": "",
						"type": "address"
					}
				],
				"stateMutability": "view",
				"type": "function"
			},
			{
				"inputs": [
					{
						"internalType": "address",
						"name": "newOwner",
						"type": "address"
					}
				],
				"name": "transferOwnership",
				"outputs": [],
				"stateMutability": "nonpayable",
				"type": "function"
			},
			{
				"inputs": [
					{
						"internalType": "address",
						"name": "",
						"type": "address"
					}
				],
				"name": "validPops",
				"outputs": [
					{
						"internalType": "bool",
						"name": "",
						"type": "bool"
					}
				],
				"stateMutability": "view",
				"type": "function"
			}
		],
		"devdoc": {
			"kind": "dev",
			"methods": {
				"addAuthorizedAddress(address)": {
					"details": "Authorizes an address.",
					"params": {
						"target": "Address to authorize."
					}
				},
				"assertValidStorageParams()": {
					"details": "Asserts that an epoch is between 5 and 90 days long."
				},
				"attachStakingContract(address)": {
					"details": "Attach a staking contract; future calls will be delegated to the staking contract. Note that this is callable only by an authorized address.",
					"params": {
						"_stakingContract": "Address of staking contract."
					}
				},
				"batchExecute(bytes[])": {
					"details": "Batch executes a series of calls to the staking contract.",
					"params": {
						"data": "An array of data that encodes a sequence of functions to             call in the staking contracts."
					}
				},
				"constructor": {
					"details": "Constructor.",
					"params": {
						"_stakingContract": "Staking contract to delegate calls to."
					}
				},
				"detachStakingContract()": {
					"details": "Detach the current staking contract. Note that this is callable only by an authorized address."
				},
				"getAuthorizedAddresses()": {
					"details": "Gets all authorized addresses.",
					"returns": {
						"_0": "Array of authorized addresses."
					}
				},
				"removeAuthorizedAddress(address)": {
					"details": "Removes authorizion of an address.",
					"params": {
						"target": "Address to remove authorization from."
					}
				},
				"removeAuthorizedAddressAtIndex(address,uint256)": {
					"details": "Removes authorizion of an address.",
					"params": {
						"index": "Index of target in authorities array.",
						"target": "Address to remove authorization from."
					}
				},
				"transferOwnership(address)": {
					"details": "Change the owner of this contract.",
					"params": {
						"newOwner": "New owner address."
					}
				}
			},
			"version": 1
		},
		"evm": {
			"bytecode": {
				"linkReferences": {},
				"object": "0x60806040523480156200001157600080fd5b506040516200202a3803806200202a8339810160408190526200003491620006cc565b600080546001600160a01b03191633908117909155620000549062000073565b6200005f8162000176565b6200006c3360006200027a565b506200074c565b6001600160a01b038116620000ac57620000ac6200009b6200044160201b62000b931760201c565b6200045f60201b620005e81760201c565b6001600160a01b03811660009081526001602052604090205460ff1615620000e857620000e86200009b826200046760201b62000bca1760201c565b6001600160a01b0381166000818152600160208190526040808320805460ff19168317905560028054928301815583527f405787fa12a823e0f2b7631cc41b3ba8828b3321ca811111fa75cd3aa3bb5ace90910180546001600160a01b03191684179055513392917f3147867c59d17e8fa9d522465651d44aae0a9e38f902f3475b97e58072f0ed4c91a350565b600380546001600160a01b0319166001600160a01b0383161790556040517f048368388f801041f7690185c4e28b6f3505c740c47be8ac104b55df666bfc8490620001c390839062000738565b60405180910390a160035460408051600481526024810182526020810180516001600160e01b03166370e39c9560e11b17905290516000926060926001600160a01b0390911691620002169190620006fc565b600060405180830381855af49150503d806000811462000253576040519150601f19603f3d011682016040523d82523d6000602084013e62000258565b606091505b5091509150816200026b57805160208201fd5b62000275620004af565b505050565b6001600160a01b03821660009081526001602052604090205460ff16620002b557620002b56200009b836200058a60201b62000c4e1760201c565b6002548110620002df57620002df6200009b82600280549050620005d260201b62000cd11760201c565b816001600160a01b031660028281548110620002f757fe5b6000918252602090912001546001600160a01b0316146200035057620003506200009b600283815481106200032857fe5b600091825260209182902001546001600160a01b031690859062000d4462000617821b17901c565b6001600160a01b0382166000908152600160205260409020805460ff191690556002805460001981019081106200038357fe5b600091825260209091200154600280546001600160a01b039092169183908110620003aa57fe5b9060005260206000200160006101000a8154816001600160a01b0302191690836001600160a01b031602179055506002805480620003e457fe5b600082815260208120820160001990810180546001600160a01b031916905590910190915560405133916001600160a01b038516917f1f32c1b084e2de0713b8fb16bd46bb9df710a3dbeae2f3ca93af46e016dcc6b09190a35050565b60408051808201909152600481526315d953f960e21b602082015290565b805160208201fd5b604080516001600160a01b0383166024808301919091528251808303909101815260449091019091526020810180516001600160e01b03166306f0b78d60e51b179052919050565b60115462069780811080620004c657506276a70081115b15620004e757620004e76200009b60046200066860201b62000dd01760201c565b60145463ffffffff6401000000008204811691168110806200050d575063ffffffff8116155b156200052e576200052e6200009b60006200066860201b62000dd01760201c565b601254620f424063ffffffff90911611156200055f576200055f6200009b60016200066860201b62000dd01760201c565b600260135410156200058657620005866200009b60036200066860201b62000dd01760201c565b5050565b604080516001600160a01b0383166024808301919091528251808303909101815260449091019091526020810180516001600160e01b03166375a8845160e11b179052919050565b604080516024810184905260448082018490528251808303909101815260649091019091526020810180516001600160e01b031663e9f8377160e01b17905292915050565b604080516001600160a01b03808516602483015283166044808301919091528251808303909101815260649091019091526020810180516001600160e01b031663140a84db60e01b17905292915050565b606063fc45bd1160e01b8260048111156200067f57fe5b604051602401808260ff168152602001915050604051602081830303815290604052906001600160e01b0319166020820180516001600160e01b0383818316178352505050509050919050565b600060208284031215620006de578081fd5b81516001600160a01b0381168114620006f5578182fd5b9392505050565b60008251815b818110156200071e576020818601810151858301520162000702565b818111156200072d5782828501525b509190910192915050565b6001600160a01b0391909116815260200190565b6118ce806200075c6000396000f3fe6080604052600436106101b05760003560e01c8063856a65eb116100ec578063c6f3a4271161008a578063e0ee036e11610064578063e0ee036e14610552578063e8eeb3f814610567578063ee99205c1461057c578063f2fde38b146105915761026d565b8063c6f3a42714610506578063d14dc2311461051b578063d39de6e9146105305761026d565b8063a26171e2116100c6578063a26171e21461049c578063a657e579146104b1578063b9181611146104c6578063c18c9141146104e65761026d565b8063856a65eb1461043a5780638da5cb5b146104675780639ad267441461047c5761026d565b8063587da02311610159578063707129391161013357806370712939146103c357806376671808146103e35780637fa140c7146103f857806381666796146104185761026d565b8063587da0231461036c578063634038011461038e57806366615d56146103a35761026d565b806342f1181e1161018a57806342f1181e146102f2578063494503d414610312578063540c2d531461033f5761026d565b80632a94c2791461027257806337b006a6146102aa57806338229d93146102c15761026d565b3661026d5760035473ffffffffffffffffffffffffffffffffffffffff16806101e3576101e36101de6105b1565b6105e8565b600060608273ffffffffffffffffffffffffffffffffffffffff1660003660405161020f929190611645565b600060405180830381855af49150503d806000811461024a576040519150601f19603f3d011682016040523d82523d6000602084013e61024f565b606091505b5091509150816000811461026557815182602001f35b815182602001fd5b600080fd5b34801561027e57600080fd5b5061029261028d366004611624565b6105f0565b6040516102a1939291906117b4565b60405180910390f35b3480156102b657600080fd5b506102bf61061c565b005b3480156102cd57600080fd5b506102e16102dc36600461160c565b610677565b6040516102a19594939291906117ca565b3480156102fe57600080fd5b506102bf61030d366004611553565b6106a6565b34801561031e57600080fd5b5061033261032d36600461160c565b6106ba565b6040516102a19190611671565b34801561034b57600080fd5b5061035f61035a366004611553565b6106f1565b6040516102a191906117a0565b34801561037857600080fd5b50610381610706565b6040516102a191906117ab565b34801561039a57600080fd5b5061038161070c565b3480156103af57600080fd5b506102bf6103be366004611553565b610712565b3480156103cf57600080fd5b506102bf6103de366004611553565b610723565b3480156103ef57600080fd5b506103816107d8565b34801561040457600080fd5b50610381610413366004611553565b6107de565b34801561042457600080fd5b5061042d6107f0565b6040516102a191906117ed565b34801561044657600080fd5b5061045a61045536600461159d565b6107fc565b6040516102a191906116ec565b34801561047357600080fd5b50610332610945565b34801561048857600080fd5b506102bf610497366004611574565b610961565b3480156104a857600080fd5b50610381610973565b3480156104bd57600080fd5b50610381610979565b3480156104d257600080fd5b5061035f6104e1366004611553565b61097f565b3480156104f257600080fd5b5061038161050136600461160c565b610994565b34801561051257600080fd5b506102bf6109a6565b34801561052757600080fd5b50610381610a3f565b34801561053c57600080fd5b50610545610a45565b6040516102a19190611692565b34801561055e57600080fd5b5061042d610ab4565b34801561057357600080fd5b5061042d610ac0565b34801561058857600080fd5b50610332610ad4565b34801561059d57600080fd5b506102bf6105ac366004611553565b610af0565b60408051808201909152600481527f6eff828500000000000000000000000000000000000000000000000000000000602082015290565b805160208201fd5b601560209081526000928352604080842090915290825290208054600182015460029092015490919083565b610624610e76565b600380547fffffffffffffffffffffffff00000000000000000000000000000000000000001690556040517f6caedcb22a5c22c8ebd0caf751fec1228a6e006e6ee37169321e02d31ecc818390600090a1565b601660205260009081526040902080546001820154600283015460038401546004909401549293919290919085565b6106ae610e9b565b6106b781610ee2565b50565b600281815481106106ca57600080fd5b60009182526020909120015473ffffffffffffffffffffffffffffffffffffffff16905081565b60106020526000908152604090205460ff1681565b600d5481565b60115481565b61071a610e76565b6106b781611013565b61072b610e9b565b73ffffffffffffffffffffffffffffffffffffffff811660009081526001602052604090205460ff16610764576107646101de82610c4e565b60005b6002548110156107d4578173ffffffffffffffffffffffffffffffffffffffff166002828154811061079557fe5b60009182526020909120015473ffffffffffffffffffffffffffffffffffffffff1614156107cc576107c7828261116e565b6107d4565b600101610767565b5050565b600c5481565b60096020526000908152604090205481565b60145463ffffffff1681565b6060600081838067ffffffffffffffff8111801561081957600080fd5b5060405190808252806020026020018201604052801561084d57816020015b60608152602001906001900390816108385790505b5060035490945073ffffffffffffffffffffffffffffffffffffffff168061087a5761087a6101de6105b1565b60005b82811461093a578173ffffffffffffffffffffffffffffffffffffffff168888838181106108a757fe5b90506020028101906108b991906117fe565b6040516108c7929190611645565b600060405180830381855af49150503d8060008114610902576040519150601f19603f3d011682016040523d82523d6000602084013e610907565b606091505b5090955093508461091a57835184602001fd5b8386828151811061092757fe5b602090810291909101015260010161087d565b505050505092915050565b60005473ffffffffffffffffffffffffffffffffffffffff1681565b610969610e9b565b6107d4828261116e565b60135481565b60085481565b60016020526000908152604090205460ff1681565b600b6020526000908152604090205481565b601154620697808110806109bc57506276a70081115b156109ce576109ce6101de6004610dd0565b60145463ffffffff6401000000008204811691168110806109f3575063ffffffff8116155b15610a0557610a056101de6000610dd0565b601254620f424063ffffffff9091161115610a2757610a276101de6001610dd0565b600260135410156107d4576107d46101de6003610dd0565b60175481565b60606002805480602002602001604051908101604052809291908181526020018280548015610aaa57602002820191906000526020600020905b815473ffffffffffffffffffffffffffffffffffffffff168152600190910190602001808311610a7f575b5050505050905090565b60125463ffffffff1681565b601454640100000000900463ffffffff1681565b60035473ffffffffffffffffffffffffffffffffffffffff1681565b610af8610e9b565b73ffffffffffffffffffffffffffffffffffffffff8116610b2357610b1e6101de6113e9565b6106b7565b600080547fffffffffffffffffffffffff00000000000000000000000000000000000000001673ffffffffffffffffffffffffffffffffffffffff83169081178255604051909133917f8be0079c531659141344cd1fd0a4f28419497f9722a3daafe3b4186f6b6457e09190a350565b60408051808201909152600481527f57654fe400000000000000000000000000000000000000000000000000000000602082015290565b6040805173ffffffffffffffffffffffffffffffffffffffff83166024808301919091528251808303909101815260449091019091526020810180517bffffffffffffffffffffffffffffffffffffffffffffffffffffffff167fde16f1a0000000000000000000000000000000000000000000000000000000001790525b919050565b6040805173ffffffffffffffffffffffffffffffffffffffff83166024808301919091528251808303909101815260449091019091526020810180517bffffffffffffffffffffffffffffffffffffffffffffffffffffffff167feb5108a200000000000000000000000000000000000000000000000000000000179052919050565b604080516024810184905260448082018490528251808303909101815260649091019091526020810180517bffffffffffffffffffffffffffffffffffffffffffffffffffffffff167fe9f837710000000000000000000000000000000000000000000000000000000017905292915050565b6040805173ffffffffffffffffffffffffffffffffffffffff808516602483015283166044808301919091528251808303909101815260649091019091526020810180517bffffffffffffffffffffffffffffffffffffffffffffffffffffffff167f140a84db0000000000000000000000000000000000000000000000000000000017905292915050565b60607ffc45bd1100000000000000000000000000000000000000000000000000000000826004811115610dff57fe5b604051602401808260ff168152602001915050604051602081830303815290604052907bffffffffffffffffffffffffffffffffffffffffffffffffffffffff19166020820180517bffffffffffffffffffffffffffffffffffffffffffffffffffffffff83818316178352505050509050919050565b3360009081526001602052604090205460ff16610e9957610e996101de33611420565b565b60005473ffffffffffffffffffffffffffffffffffffffff163314610e9957600054610e99906101de90339073ffffffffffffffffffffffffffffffffffffffff166114a3565b73ffffffffffffffffffffffffffffffffffffffff8116610f0857610f086101de610b93565b73ffffffffffffffffffffffffffffffffffffffff811660009081526001602052604090205460ff1615610f4257610f426101de82610bca565b73ffffffffffffffffffffffffffffffffffffffff8116600081815260016020819052604080832080547fffffffffffffffffffffffffffffffffffffffffffffffffffffffffffffff00168317905560028054928301815583527f405787fa12a823e0f2b7631cc41b3ba8828b3321ca811111fa75cd3aa3bb5ace90910180547fffffffffffffffffffffffff00000000000000000000000000000000000000001684179055513392917f3147867c59d17e8fa9d522465651d44aae0a9e38f902f3475b97e58072f0ed4c91a350565b600380547fffffffffffffffffffffffff00000000000000000000000000000000000000001673ffffffffffffffffffffffffffffffffffffffff83161790556040517f048368388f801041f7690185c4e28b6f3505c740c47be8ac104b55df666bfc8490611083908390611671565b60405180910390a160035460408051600481526024810182526020810180517bffffffffffffffffffffffffffffffffffffffffffffffffffffffff167fe1c7392a00000000000000000000000000000000000000000000000000000000179052905160009260609273ffffffffffffffffffffffffffffffffffffffff9091169161110f9190611655565b600060405180830381855af49150503d806000811461114a576040519150601f19603f3d011682016040523d82523d6000602084013e61114f565b606091505b50915091508161116157805160208201fd5b6111696109a6565b505050565b73ffffffffffffffffffffffffffffffffffffffff821660009081526001602052604090205460ff166111a7576111a76101de83610c4e565b60025481106111c2576111c26101de82600280549050610cd1565b8173ffffffffffffffffffffffffffffffffffffffff16600282815481106111e657fe5b60009182526020909120015473ffffffffffffffffffffffffffffffffffffffff1614611248576112486101de6002838154811061122057fe5b60009182526020909120015473ffffffffffffffffffffffffffffffffffffffff1684610d44565b73ffffffffffffffffffffffffffffffffffffffff8216600090815260016020526040902080547fffffffffffffffffffffffffffffffffffffffffffffffffffffffffffffff00169055600280547fffffffffffffffffffffffffffffffffffffffffffffffffffffffffffffffff81019081106112c357fe5b6000918252602090912001546002805473ffffffffffffffffffffffffffffffffffffffff90921691839081106112f657fe5b9060005260206000200160006101000a81548173ffffffffffffffffffffffffffffffffffffffff021916908373ffffffffffffffffffffffffffffffffffffffff160217905550600280548061134957fe5b60008281526020812082017fffffffffffffffffffffffffffffffffffffffffffffffffffffffffffffffff90810180547fffffffffffffffffffffffff0000000000000000000000000000000000000000169055909101909155604051339173ffffffffffffffffffffffffffffffffffffffff8516917f1f32c1b084e2de0713b8fb16bd46bb9df710a3dbeae2f3ca93af46e016dcc6b09190a35050565b60408051808201909152600481527fe69edc3e00000000000000000000000000000000000000000000000000000000602082015290565b6040805173ffffffffffffffffffffffffffffffffffffffff83166024808301919091528251808303909101815260449091019091526020810180517bffffffffffffffffffffffffffffffffffffffffffffffffffffffff167fb65a25b900000000000000000000000000000000000000000000000000000000179052919050565b6040805173ffffffffffffffffffffffffffffffffffffffff808516602483015283166044808301919091528251808303909101815260649091019091526020810180517bffffffffffffffffffffffffffffffffffffffffffffffffffffffff167f1de45ad10000000000000000000000000000000000000000000000000000000017905292915050565b803573ffffffffffffffffffffffffffffffffffffffff81168114610c4957600080fd5b600060208284031215611564578081fd5b61156d8261152f565b9392505050565b60008060408385031215611586578081fd5b61158f8361152f565b946020939093013593505050565b600080602083850312156115af578182fd5b823567ffffffffffffffff808211156115c6578384fd5b818501915085601f8301126115d9578384fd5b8135818111156115e7578485fd5b86602080830285010111156115fa578485fd5b60209290920196919550909350505050565b60006020828403121561161d578081fd5b5035919050565b60008060408385031215611636578182fd5b50508035926020909101359150565b6000828483379101908152919050565b60008251611667818460208701611868565b9190910192915050565b73ffffffffffffffffffffffffffffffffffffffff91909116815260200190565b6020808252825182820181905260009190848201906040850190845b818110156116e057835173ffffffffffffffffffffffffffffffffffffffff16835292840192918401916001016116ae565b50909695505050505050565b6000602080830181845280855180835260408601915060408482028701019250838701855b82811015611793577fffffffffffffffffffffffffffffffffffffffffffffffffffffffffffffffc088860301845281518051808752611756818989018a8501611868565b601f017fffffffffffffffffffffffffffffffffffffffffffffffffffffffffffffffe01695909501860194509285019290850190600101611711565b5092979650505050505050565b901515815260200190565b90815260200190565b9283526020830191909152604082015260600190565b948552602085019390935260408401919091526060830152608082015260a00190565b63ffffffff91909116815260200190565b60008083357fffffffffffffffffffffffffffffffffffffffffffffffffffffffffffffffe1843603018112611832578283fd5b83018035915067ffffffffffffffff82111561184c578283fd5b60200191503681900382131561186157600080fd5b9250929050565b60005b8381101561188357818101518382015260200161186b565b83811115611892576000848401525b5050505056fea2646970667358221220a172af876a1a767b620f91dae6ed69a58316c5d89bf1eef3f5b59e87afe1d85264736f6c63430007040033",
				"opcodes": "PUSH1 0x80 PUSH1 0x40 MSTORE CALLVALUE DUP1 ISZERO PUSH3 0x11 JUMPI PUSH1 0x0 DUP1 REVERT JUMPDEST POP PUSH1 0x40 MLOAD PUSH3 0x202A CODESIZE SUB DUP1 PUSH3 0x202A DUP4 CODECOPY DUP2 ADD PUSH1 0x40 DUP2 SWAP1 MSTORE PUSH3 0x34 SWAP2 PUSH3 0x6CC JUMP JUMPDEST PUSH1 0x0 DUP1 SLOAD PUSH1 0x1 PUSH1 0x1 PUSH1 0xA0 SHL SUB NOT AND CALLER SWAP1 DUP2 OR SWAP1 SWAP2 SSTORE PUSH3 0x54 SWAP1 PUSH3 0x73 JUMP JUMPDEST PUSH3 0x5F DUP2 PUSH3 0x176 JUMP JUMPDEST PUSH3 0x6C CALLER PUSH1 0x0 PUSH3 0x27A JUMP JUMPDEST POP PUSH3 0x74C JUMP JUMPDEST PUSH1 0x1 PUSH1 0x1 PUSH1 0xA0 SHL SUB DUP2 AND PUSH3 0xAC JUMPI PUSH3 0xAC PUSH3 0x9B PUSH3 0x441 PUSH1 0x20 SHL PUSH3 0xB93 OR PUSH1 0x20 SHR JUMP JUMPDEST PUSH3 0x45F PUSH1 0x20 SHL PUSH3 0x5E8 OR PUSH1 0x20 SHR JUMP JUMPDEST PUSH1 0x1 PUSH1 0x1 PUSH1 0xA0 SHL SUB DUP2 AND PUSH1 0x0 SWAP1 DUP2 MSTORE PUSH1 0x1 PUSH1 0x20 MSTORE PUSH1 0x40 SWAP1 KECCAK256 SLOAD PUSH1 0xFF AND ISZERO PUSH3 0xE8 JUMPI PUSH3 0xE8 PUSH3 0x9B DUP3 PUSH3 0x467 PUSH1 0x20 SHL PUSH3 0xBCA OR PUSH1 0x20 SHR JUMP JUMPDEST PUSH1 0x1 PUSH1 0x1 PUSH1 0xA0 SHL SUB DUP2 AND PUSH1 0x0 DUP2 DUP2 MSTORE PUSH1 0x1 PUSH1 0x20 DUP2 SWAP1 MSTORE PUSH1 0x40 DUP1 DUP4 KECCAK256 DUP1 SLOAD PUSH1 0xFF NOT AND DUP4 OR SWAP1 SSTORE PUSH1 0x2 DUP1 SLOAD SWAP3 DUP4 ADD DUP2 SSTORE DUP4 MSTORE PUSH32 0x405787FA12A823E0F2B7631CC41B3BA8828B3321CA811111FA75CD3AA3BB5ACE SWAP1 SWAP2 ADD DUP1 SLOAD PUSH1 0x1 PUSH1 0x1 PUSH1 0xA0 SHL SUB NOT AND DUP5 OR SWAP1 SSTORE MLOAD CALLER SWAP3 SWAP2 PUSH32 0x3147867C59D17E8FA9D522465651D44AAE0A9E38F902F3475B97E58072F0ED4C SWAP2 LOG3 POP JUMP JUMPDEST PUSH1 0x3 DUP1 SLOAD PUSH1 0x1 PUSH1 0x1 PUSH1 0xA0 SHL SUB NOT AND PUSH1 0x1 PUSH1 0x1 PUSH1 0xA0 SHL SUB DUP4 AND OR SWAP1 SSTORE PUSH1 0x40 MLOAD PUSH32 0x48368388F801041F7690185C4E28B6F3505C740C47BE8AC104B55DF666BFC84 SWAP1 PUSH3 0x1C3 SWAP1 DUP4 SWAP1 PUSH3 0x738 JUMP JUMPDEST PUSH1 0x40 MLOAD DUP1 SWAP2 SUB SWAP1 LOG1 PUSH1 0x3 SLOAD PUSH1 0x40 DUP1 MLOAD PUSH1 0x4 DUP2 MSTORE PUSH1 0x24 DUP2 ADD DUP3 MSTORE PUSH1 0x20 DUP2 ADD DUP1 MLOAD PUSH1 0x1 PUSH1 0x1 PUSH1 0xE0 SHL SUB AND PUSH4 0x70E39C95 PUSH1 0xE1 SHL OR SWAP1 MSTORE SWAP1 MLOAD PUSH1 0x0 SWAP3 PUSH1 0x60 SWAP3 PUSH1 0x1 PUSH1 0x1 PUSH1 0xA0 SHL SUB SWAP1 SWAP2 AND SWAP2 PUSH3 0x216 SWAP2 SWAP1 PUSH3 0x6FC JUMP JUMPDEST PUSH1 0x0 PUSH1 0x40 MLOAD DUP1 DUP4 SUB DUP2 DUP6 GAS DELEGATECALL SWAP2 POP POP RETURNDATASIZE DUP1 PUSH1 0x0 DUP2 EQ PUSH3 0x253 JUMPI PUSH1 0x40 MLOAD SWAP2 POP PUSH1 0x1F NOT PUSH1 0x3F RETURNDATASIZE ADD AND DUP3 ADD PUSH1 0x40 MSTORE RETURNDATASIZE DUP3 MSTORE RETURNDATASIZE PUSH1 0x0 PUSH1 0x20 DUP5 ADD RETURNDATACOPY PUSH3 0x258 JUMP JUMPDEST PUSH1 0x60 SWAP2 POP JUMPDEST POP SWAP2 POP SWAP2 POP DUP2 PUSH3 0x26B JUMPI DUP1 MLOAD PUSH1 0x20 DUP3 ADD REVERT JUMPDEST PUSH3 0x275 PUSH3 0x4AF JUMP JUMPDEST POP POP POP JUMP JUMPDEST PUSH1 0x1 PUSH1 0x1 PUSH1 0xA0 SHL SUB DUP3 AND PUSH1 0x0 SWAP1 DUP2 MSTORE PUSH1 0x1 PUSH1 0x20 MSTORE PUSH1 0x40 SWAP1 KECCAK256 SLOAD PUSH1 0xFF AND PUSH3 0x2B5 JUMPI PUSH3 0x2B5 PUSH3 0x9B DUP4 PUSH3 0x58A PUSH1 0x20 SHL PUSH3 0xC4E OR PUSH1 0x20 SHR JUMP JUMPDEST PUSH1 0x2 SLOAD DUP2 LT PUSH3 0x2DF JUMPI PUSH3 0x2DF PUSH3 0x9B DUP3 PUSH1 0x2 DUP1 SLOAD SWAP1 POP PUSH3 0x5D2 PUSH1 0x20 SHL PUSH3 0xCD1 OR PUSH1 0x20 SHR JUMP JUMPDEST DUP2 PUSH1 0x1 PUSH1 0x1 PUSH1 0xA0 SHL SUB AND PUSH1 0x2 DUP3 DUP2 SLOAD DUP2 LT PUSH3 0x2F7 JUMPI INVALID JUMPDEST PUSH1 0x0 SWAP2 DUP3 MSTORE PUSH1 0x20 SWAP1 SWAP2 KECCAK256 ADD SLOAD PUSH1 0x1 PUSH1 0x1 PUSH1 0xA0 SHL SUB AND EQ PUSH3 0x350 JUMPI PUSH3 0x350 PUSH3 0x9B PUSH1 0x2 DUP4 DUP2 SLOAD DUP2 LT PUSH3 0x328 JUMPI INVALID JUMPDEST PUSH1 0x0 SWAP2 DUP3 MSTORE PUSH1 0x20 SWAP2 DUP3 SWAP1 KECCAK256 ADD SLOAD PUSH1 0x1 PUSH1 0x1 PUSH1 0xA0 SHL SUB AND SWAP1 DUP6 SWAP1 PUSH3 0xD44 PUSH3 0x617 DUP3 SHL OR SWAP1 SHR JUMP JUMPDEST PUSH1 0x1 PUSH1 0x1 PUSH1 0xA0 SHL SUB DUP3 AND PUSH1 0x0 SWAP1 DUP2 MSTORE PUSH1 0x1 PUSH1 0x20 MSTORE PUSH1 0x40 SWAP1 KECCAK256 DUP1 SLOAD PUSH1 0xFF NOT AND SWAP1 SSTORE PUSH1 0x2 DUP1 SLOAD PUSH1 0x0 NOT DUP2 ADD SWAP1 DUP2 LT PUSH3 0x383 JUMPI INVALID JUMPDEST PUSH1 0x0 SWAP2 DUP3 MSTORE PUSH1 0x20 SWAP1 SWAP2 KECCAK256 ADD SLOAD PUSH1 0x2 DUP1 SLOAD PUSH1 0x1 PUSH1 0x1 PUSH1 0xA0 SHL SUB SWAP1 SWAP3 AND SWAP2 DUP4 SWAP1 DUP2 LT PUSH3 0x3AA JUMPI INVALID JUMPDEST SWAP1 PUSH1 0x0 MSTORE PUSH1 0x20 PUSH1 0x0 KECCAK256 ADD PUSH1 0x0 PUSH2 0x100 EXP DUP2 SLOAD DUP2 PUSH1 0x1 PUSH1 0x1 PUSH1 0xA0 SHL SUB MUL NOT AND SWAP1 DUP4 PUSH1 0x1 PUSH1 0x1 PUSH1 0xA0 SHL SUB AND MUL OR SWAP1 SSTORE POP PUSH1 0x2 DUP1 SLOAD DUP1 PUSH3 0x3E4 JUMPI INVALID JUMPDEST PUSH1 0x0 DUP3 DUP2 MSTORE PUSH1 0x20 DUP2 KECCAK256 DUP3 ADD PUSH1 0x0 NOT SWAP1 DUP2 ADD DUP1 SLOAD PUSH1 0x1 PUSH1 0x1 PUSH1 0xA0 SHL SUB NOT AND SWAP1 SSTORE SWAP1 SWAP2 ADD SWAP1 SWAP2 SSTORE PUSH1 0x40 MLOAD CALLER SWAP2 PUSH1 0x1 PUSH1 0x1 PUSH1 0xA0 SHL SUB DUP6 AND SWAP2 PUSH32 0x1F32C1B084E2DE0713B8FB16BD46BB9DF710A3DBEAE2F3CA93AF46E016DCC6B0 SWAP2 SWAP1 LOG3 POP POP JUMP JUMPDEST PUSH1 0x40 DUP1 MLOAD DUP1 DUP3 ADD SWAP1 SWAP2 MSTORE PUSH1 0x4 DUP2 MSTORE PUSH4 0x15D953F9 PUSH1 0xE2 SHL PUSH1 0x20 DUP3 ADD MSTORE SWAP1 JUMP JUMPDEST DUP1 MLOAD PUSH1 0x20 DUP3 ADD REVERT JUMPDEST PUSH1 0x40 DUP1 MLOAD PUSH1 0x1 PUSH1 0x1 PUSH1 0xA0 SHL SUB DUP4 AND PUSH1 0x24 DUP1 DUP4 ADD SWAP2 SWAP1 SWAP2 MSTORE DUP3 MLOAD DUP1 DUP4 SUB SWAP1 SWAP2 ADD DUP2 MSTORE PUSH1 0x44 SWAP1 SWAP2 ADD SWAP1 SWAP2 MSTORE PUSH1 0x20 DUP2 ADD DUP1 MLOAD PUSH1 0x1 PUSH1 0x1 PUSH1 0xE0 SHL SUB AND PUSH4 0x6F0B78D PUSH1 0xE5 SHL OR SWAP1 MSTORE SWAP2 SWAP1 POP JUMP JUMPDEST PUSH1 0x11 SLOAD PUSH3 0x69780 DUP2 LT DUP1 PUSH3 0x4C6 JUMPI POP PUSH3 0x76A700 DUP2 GT JUMPDEST ISZERO PUSH3 0x4E7 JUMPI PUSH3 0x4E7 PUSH3 0x9B PUSH1 0x4 PUSH3 0x668 PUSH1 0x20 SHL PUSH3 0xDD0 OR PUSH1 0x20 SHR JUMP JUMPDEST PUSH1 0x14 SLOAD PUSH4 0xFFFFFFFF PUSH5 0x100000000 DUP3 DIV DUP2 AND SWAP2 AND DUP2 LT DUP1 PUSH3 0x50D JUMPI POP PUSH4 0xFFFFFFFF DUP2 AND ISZERO JUMPDEST ISZERO PUSH3 0x52E JUMPI PUSH3 0x52E PUSH3 0x9B PUSH1 0x0 PUSH3 0x668 PUSH1 0x20 SHL PUSH3 0xDD0 OR PUSH1 0x20 SHR JUMP JUMPDEST PUSH1 0x12 SLOAD PUSH3 0xF4240 PUSH4 0xFFFFFFFF SWAP1 SWAP2 AND GT ISZERO PUSH3 0x55F JUMPI PUSH3 0x55F PUSH3 0x9B PUSH1 0x1 PUSH3 0x668 PUSH1 0x20 SHL PUSH3 0xDD0 OR PUSH1 0x20 SHR JUMP JUMPDEST PUSH1 0x2 PUSH1 0x13 SLOAD LT ISZERO PUSH3 0x586 JUMPI PUSH3 0x586 PUSH3 0x9B PUSH1 0x3 PUSH3 0x668 PUSH1 0x20 SHL PUSH3 0xDD0 OR PUSH1 0x20 SHR JUMP JUMPDEST POP POP JUMP JUMPDEST PUSH1 0x40 DUP1 MLOAD PUSH1 0x1 PUSH1 0x1 PUSH1 0xA0 SHL SUB DUP4 AND PUSH1 0x24 DUP1 DUP4 ADD SWAP2 SWAP1 SWAP2 MSTORE DUP3 MLOAD DUP1 DUP4 SUB SWAP1 SWAP2 ADD DUP2 MSTORE PUSH1 0x44 SWAP1 SWAP2 ADD SWAP1 SWAP2 MSTORE PUSH1 0x20 DUP2 ADD DUP1 MLOAD PUSH1 0x1 PUSH1 0x1 PUSH1 0xE0 SHL SUB AND PUSH4 0x75A88451 PUSH1 0xE1 SHL OR SWAP1 MSTORE SWAP2 SWAP1 POP JUMP JUMPDEST PUSH1 0x40 DUP1 MLOAD PUSH1 0x24 DUP2 ADD DUP5 SWAP1 MSTORE PUSH1 0x44 DUP1 DUP3 ADD DUP5 SWAP1 MSTORE DUP3 MLOAD DUP1 DUP4 SUB SWAP1 SWAP2 ADD DUP2 MSTORE PUSH1 0x64 SWAP1 SWAP2 ADD SWAP1 SWAP2 MSTORE PUSH1 0x20 DUP2 ADD DUP1 MLOAD PUSH1 0x1 PUSH1 0x1 PUSH1 0xE0 SHL SUB AND PUSH4 0xE9F83771 PUSH1 0xE0 SHL OR SWAP1 MSTORE SWAP3 SWAP2 POP POP JUMP JUMPDEST PUSH1 0x40 DUP1 MLOAD PUSH1 0x1 PUSH1 0x1 PUSH1 0xA0 SHL SUB DUP1 DUP6 AND PUSH1 0x24 DUP4 ADD MSTORE DUP4 AND PUSH1 0x44 DUP1 DUP4 ADD SWAP2 SWAP1 SWAP2 MSTORE DUP3 MLOAD DUP1 DUP4 SUB SWAP1 SWAP2 ADD DUP2 MSTORE PUSH1 0x64 SWAP1 SWAP2 ADD SWAP1 SWAP2 MSTORE PUSH1 0x20 DUP2 ADD DUP1 MLOAD PUSH1 0x1 PUSH1 0x1 PUSH1 0xE0 SHL SUB AND PUSH4 0x140A84DB PUSH1 0xE0 SHL OR SWAP1 MSTORE SWAP3 SWAP2 POP POP JUMP JUMPDEST PUSH1 0x60 PUSH4 0xFC45BD11 PUSH1 0xE0 SHL DUP3 PUSH1 0x4 DUP2 GT ISZERO PUSH3 0x67F JUMPI INVALID JUMPDEST PUSH1 0x40 MLOAD PUSH1 0x24 ADD DUP1 DUP3 PUSH1 0xFF AND DUP2 MSTORE PUSH1 0x20 ADD SWAP2 POP POP PUSH1 0x40 MLOAD PUSH1 0x20 DUP2 DUP4 SUB SUB DUP2 MSTORE SWAP1 PUSH1 0x40 MSTORE SWAP1 PUSH1 0x1 PUSH1 0x1 PUSH1 0xE0 SHL SUB NOT AND PUSH1 0x20 DUP3 ADD DUP1 MLOAD PUSH1 0x1 PUSH1 0x1 PUSH1 0xE0 SHL SUB DUP4 DUP2 DUP4 AND OR DUP4 MSTORE POP POP POP POP SWAP1 POP SWAP2 SWAP1 POP JUMP JUMPDEST PUSH1 0x0 PUSH1 0x20 DUP3 DUP5 SUB SLT ISZERO PUSH3 0x6DE JUMPI DUP1 DUP2 REVERT JUMPDEST DUP2 MLOAD PUSH1 0x1 PUSH1 0x1 PUSH1 0xA0 SHL SUB DUP2 AND DUP2 EQ PUSH3 0x6F5 JUMPI DUP2 DUP3 REVERT JUMPDEST SWAP4 SWAP3 POP POP POP JUMP JUMPDEST PUSH1 0x0 DUP3 MLOAD DUP2 JUMPDEST DUP2 DUP2 LT ISZERO PUSH3 0x71E JUMPI PUSH1 0x20 DUP2 DUP7 ADD DUP2 ADD MLOAD DUP6 DUP4 ADD MSTORE ADD PUSH3 0x702 JUMP JUMPDEST DUP2 DUP2 GT ISZERO PUSH3 0x72D JUMPI DUP3 DUP3 DUP6 ADD MSTORE JUMPDEST POP SWAP2 SWAP1 SWAP2 ADD SWAP3 SWAP2 POP POP JUMP JUMPDEST PUSH1 0x1 PUSH1 0x1 PUSH1 0xA0 SHL SUB SWAP2 SWAP1 SWAP2 AND DUP2 MSTORE PUSH1 0x20 ADD SWAP1 JUMP JUMPDEST PUSH2 0x18CE DUP1 PUSH3 0x75C PUSH1 0x0 CODECOPY PUSH1 0x0 RETURN INVALID PUSH1 0x80 PUSH1 0x40 MSTORE PUSH1 0x4 CALLDATASIZE LT PUSH2 0x1B0 JUMPI PUSH1 0x0 CALLDATALOAD PUSH1 0xE0 SHR DUP1 PUSH4 0x856A65EB GT PUSH2 0xEC JUMPI DUP1 PUSH4 0xC6F3A427 GT PUSH2 0x8A JUMPI DUP1 PUSH4 0xE0EE036E GT PUSH2 0x64 JUMPI DUP1 PUSH4 0xE0EE036E EQ PUSH2 0x552 JUMPI DUP1 PUSH4 0xE8EEB3F8 EQ PUSH2 0x567 JUMPI DUP1 PUSH4 0xEE99205C EQ PUSH2 0x57C JUMPI DUP1 PUSH4 0xF2FDE38B EQ PUSH2 0x591 JUMPI PUSH2 0x26D JUMP JUMPDEST DUP1 PUSH4 0xC6F3A427 EQ PUSH2 0x506 JUMPI DUP1 PUSH4 0xD14DC231 EQ PUSH2 0x51B JUMPI DUP1 PUSH4 0xD39DE6E9 EQ PUSH2 0x530 JUMPI PUSH2 0x26D JUMP JUMPDEST DUP1 PUSH4 0xA26171E2 GT PUSH2 0xC6 JUMPI DUP1 PUSH4 0xA26171E2 EQ PUSH2 0x49C JUMPI DUP1 PUSH4 0xA657E579 EQ PUSH2 0x4B1 JUMPI DUP1 PUSH4 0xB9181611 EQ PUSH2 0x4C6 JUMPI DUP1 PUSH4 0xC18C9141 EQ PUSH2 0x4E6 JUMPI PUSH2 0x26D JUMP JUMPDEST DUP1 PUSH4 0x856A65EB EQ PUSH2 0x43A JUMPI DUP1 PUSH4 0x8DA5CB5B EQ PUSH2 0x467 JUMPI DUP1 PUSH4 0x9AD26744 EQ PUSH2 0x47C JUMPI PUSH2 0x26D JUMP JUMPDEST DUP1 PUSH4 0x587DA023 GT PUSH2 0x159 JUMPI DUP1 PUSH4 0x70712939 GT PUSH2 0x133 JUMPI DUP1 PUSH4 0x70712939 EQ PUSH2 0x3C3 JUMPI DUP1 PUSH4 0x76671808 EQ PUSH2 0x3E3 JUMPI DUP1 PUSH4 0x7FA140C7 EQ PUSH2 0x3F8 JUMPI DUP1 PUSH4 0x81666796 EQ PUSH2 0x418 JUMPI PUSH2 0x26D JUMP JUMPDEST DUP1 PUSH4 0x587DA023 EQ PUSH2 0x36C JUMPI DUP1 PUSH4 0x63403801 EQ PUSH2 0x38E JUMPI DUP1 PUSH4 0x66615D56 EQ PUSH2 0x3A3 JUMPI PUSH2 0x26D JUMP JUMPDEST DUP1 PUSH4 0x42F1181E GT PUSH2 0x18A JUMPI DUP1 PUSH4 0x42F1181E EQ PUSH2 0x2F2 JUMPI DUP1 PUSH4 0x494503D4 EQ PUSH2 0x312 JUMPI DUP1 PUSH4 0x540C2D53 EQ PUSH2 0x33F JUMPI PUSH2 0x26D JUMP JUMPDEST DUP1 PUSH4 0x2A94C279 EQ PUSH2 0x272 JUMPI DUP1 PUSH4 0x37B006A6 EQ PUSH2 0x2AA JUMPI DUP1 PUSH4 0x38229D93 EQ PUSH2 0x2C1 JUMPI PUSH2 0x26D JUMP JUMPDEST CALLDATASIZE PUSH2 0x26D JUMPI PUSH1 0x3 SLOAD PUSH20 0xFFFFFFFFFFFFFFFFFFFFFFFFFFFFFFFFFFFFFFFF AND DUP1 PUSH2 0x1E3 JUMPI PUSH2 0x1E3 PUSH2 0x1DE PUSH2 0x5B1 JUMP JUMPDEST PUSH2 0x5E8 JUMP JUMPDEST PUSH1 0x0 PUSH1 0x60 DUP3 PUSH20 0xFFFFFFFFFFFFFFFFFFFFFFFFFFFFFFFFFFFFFFFF AND PUSH1 0x0 CALLDATASIZE PUSH1 0x40 MLOAD PUSH2 0x20F SWAP3 SWAP2 SWAP1 PUSH2 0x1645 JUMP JUMPDEST PUSH1 0x0 PUSH1 0x40 MLOAD DUP1 DUP4 SUB DUP2 DUP6 GAS DELEGATECALL SWAP2 POP POP RETURNDATASIZE DUP1 PUSH1 0x0 DUP2 EQ PUSH2 0x24A JUMPI PUSH1 0x40 MLOAD SWAP2 POP PUSH1 0x1F NOT PUSH1 0x3F RETURNDATASIZE ADD AND DUP3 ADD PUSH1 0x40 MSTORE RETURNDATASIZE DUP3 MSTORE RETURNDATASIZE PUSH1 0x0 PUSH1 0x20 DUP5 ADD RETURNDATACOPY PUSH2 0x24F JUMP JUMPDEST PUSH1 0x60 SWAP2 POP JUMPDEST POP SWAP2 POP SWAP2 POP DUP2 PUSH1 0x0 DUP2 EQ PUSH2 0x265 JUMPI DUP2 MLOAD DUP3 PUSH1 0x20 ADD RETURN JUMPDEST DUP2 MLOAD DUP3 PUSH1 0x20 ADD REVERT JUMPDEST PUSH1 0x0 DUP1 REVERT JUMPDEST CALLVALUE DUP1 ISZERO PUSH2 0x27E JUMPI PUSH1 0x0 DUP1 REVERT JUMPDEST POP PUSH2 0x292 PUSH2 0x28D CALLDATASIZE PUSH1 0x4 PUSH2 0x1624 JUMP JUMPDEST PUSH2 0x5F0 JUMP JUMPDEST PUSH1 0x40 MLOAD PUSH2 0x2A1 SWAP4 SWAP3 SWAP2 SWAP1 PUSH2 0x17B4 JUMP JUMPDEST PUSH1 0x40 MLOAD DUP1 SWAP2 SUB SWAP1 RETURN JUMPDEST CALLVALUE DUP1 ISZERO PUSH2 0x2B6 JUMPI PUSH1 0x0 DUP1 REVERT JUMPDEST POP PUSH2 0x2BF PUSH2 0x61C JUMP JUMPDEST STOP JUMPDEST CALLVALUE DUP1 ISZERO PUSH2 0x2CD JUMPI PUSH1 0x0 DUP1 REVERT JUMPDEST POP PUSH2 0x2E1 PUSH2 0x2DC CALLDATASIZE PUSH1 0x4 PUSH2 0x160C JUMP JUMPDEST PUSH2 0x677 JUMP JUMPDEST PUSH1 0x40 MLOAD PUSH2 0x2A1 SWAP6 SWAP5 SWAP4 SWAP3 SWAP2 SWAP1 PUSH2 0x17CA JUMP JUMPDEST CALLVALUE DUP1 ISZERO PUSH2 0x2FE JUMPI PUSH1 0x0 DUP1 REVERT JUMPDEST POP PUSH2 0x2BF PUSH2 0x30D CALLDATASIZE PUSH1 0x4 PUSH2 0x1553 JUMP JUMPDEST PUSH2 0x6A6 JUMP JUMPDEST CALLVALUE DUP1 ISZERO PUSH2 0x31E JUMPI PUSH1 0x0 DUP1 REVERT JUMPDEST POP PUSH2 0x332 PUSH2 0x32D CALLDATASIZE PUSH1 0x4 PUSH2 0x160C JUMP JUMPDEST PUSH2 0x6BA JUMP JUMPDEST PUSH1 0x40 MLOAD PUSH2 0x2A1 SWAP2 SWAP1 PUSH2 0x1671 JUMP JUMPDEST CALLVALUE DUP1 ISZERO PUSH2 0x34B JUMPI PUSH1 0x0 DUP1 REVERT JUMPDEST POP PUSH2 0x35F PUSH2 0x35A CALLDATASIZE PUSH1 0x4 PUSH2 0x1553 JUMP JUMPDEST PUSH2 0x6F1 JUMP JUMPDEST PUSH1 0x40 MLOAD PUSH2 0x2A1 SWAP2 SWAP1 PUSH2 0x17A0 JUMP JUMPDEST CALLVALUE DUP1 ISZERO PUSH2 0x378 JUMPI PUSH1 0x0 DUP1 REVERT JUMPDEST POP PUSH2 0x381 PUSH2 0x706 JUMP JUMPDEST PUSH1 0x40 MLOAD PUSH2 0x2A1 SWAP2 SWAP1 PUSH2 0x17AB JUMP JUMPDEST CALLVALUE DUP1 ISZERO PUSH2 0x39A JUMPI PUSH1 0x0 DUP1 REVERT JUMPDEST POP PUSH2 0x381 PUSH2 0x70C JUMP JUMPDEST CALLVALUE DUP1 ISZERO PUSH2 0x3AF JUMPI PUSH1 0x0 DUP1 REVERT JUMPDEST POP PUSH2 0x2BF PUSH2 0x3BE CALLDATASIZE PUSH1 0x4 PUSH2 0x1553 JUMP JUMPDEST PUSH2 0x712 JUMP JUMPDEST CALLVALUE DUP1 ISZERO PUSH2 0x3CF JUMPI PUSH1 0x0 DUP1 REVERT JUMPDEST POP PUSH2 0x2BF PUSH2 0x3DE CALLDATASIZE PUSH1 0x4 PUSH2 0x1553 JUMP JUMPDEST PUSH2 0x723 JUMP JUMPDEST CALLVALUE DUP1 ISZERO PUSH2 0x3EF JUMPI PUSH1 0x0 DUP1 REVERT JUMPDEST POP PUSH2 0x381 PUSH2 0x7D8 JUMP JUMPDEST CALLVALUE DUP1 ISZERO PUSH2 0x404 JUMPI PUSH1 0x0 DUP1 REVERT JUMPDEST POP PUSH2 0x381 PUSH2 0x413 CALLDATASIZE PUSH1 0x4 PUSH2 0x1553 JUMP JUMPDEST PUSH2 0x7DE JUMP JUMPDEST CALLVALUE DUP1 ISZERO PUSH2 0x424 JUMPI PUSH1 0x0 DUP1 REVERT JUMPDEST POP PUSH2 0x42D PUSH2 0x7F0 JUMP JUMPDEST PUSH1 0x40 MLOAD PUSH2 0x2A1 SWAP2 SWAP1 PUSH2 0x17ED JUMP JUMPDEST CALLVALUE DUP1 ISZERO PUSH2 0x446 JUMPI PUSH1 0x0 DUP1 REVERT JUMPDEST POP PUSH2 0x45A PUSH2 0x455 CALLDATASIZE PUSH1 0x4 PUSH2 0x159D JUMP JUMPDEST PUSH2 0x7FC JUMP JUMPDEST PUSH1 0x40 MLOAD PUSH2 0x2A1 SWAP2 SWAP1 PUSH2 0x16EC JUMP JUMPDEST CALLVALUE DUP1 ISZERO PUSH2 0x473 JUMPI PUSH1 0x0 DUP1 REVERT JUMPDEST POP PUSH2 0x332 PUSH2 0x945 JUMP JUMPDEST CALLVALUE DUP1 ISZERO PUSH2 0x488 JUMPI PUSH1 0x0 DUP1 REVERT JUMPDEST POP PUSH2 0x2BF PUSH2 0x497 CALLDATASIZE PUSH1 0x4 PUSH2 0x1574 JUMP JUMPDEST PUSH2 0x961 JUMP JUMPDEST CALLVALUE DUP1 ISZERO PUSH2 0x4A8 JUMPI PUSH1 0x0 DUP1 REVERT JUMPDEST POP PUSH2 0x381 PUSH2 0x973 JUMP JUMPDEST CALLVALUE DUP1 ISZERO PUSH2 0x4BD JUMPI PUSH1 0x0 DUP1 REVERT JUMPDEST POP PUSH2 0x381 PUSH2 0x979 JUMP JUMPDEST CALLVALUE DUP1 ISZERO PUSH2 0x4D2 JUMPI PUSH1 0x0 DUP1 REVERT JUMPDEST POP PUSH2 0x35F PUSH2 0x4E1 CALLDATASIZE PUSH1 0x4 PUSH2 0x1553 JUMP JUMPDEST PUSH2 0x97F JUMP JUMPDEST CALLVALUE DUP1 ISZERO PUSH2 0x4F2 JUMPI PUSH1 0x0 DUP1 REVERT JUMPDEST POP PUSH2 0x381 PUSH2 0x501 CALLDATASIZE PUSH1 0x4 PUSH2 0x160C JUMP JUMPDEST PUSH2 0x994 JUMP JUMPDEST CALLVALUE DUP1 ISZERO PUSH2 0x512 JUMPI PUSH1 0x0 DUP1 REVERT JUMPDEST POP PUSH2 0x2BF PUSH2 0x9A6 JUMP JUMPDEST CALLVALUE DUP1 ISZERO PUSH2 0x527 JUMPI PUSH1 0x0 DUP1 REVERT JUMPDEST POP PUSH2 0x381 PUSH2 0xA3F JUMP JUMPDEST CALLVALUE DUP1 ISZERO PUSH2 0x53C JUMPI PUSH1 0x0 DUP1 REVERT JUMPDEST POP PUSH2 0x545 PUSH2 0xA45 JUMP JUMPDEST PUSH1 0x40 MLOAD PUSH2 0x2A1 SWAP2 SWAP1 PUSH2 0x1692 JUMP JUMPDEST CALLVALUE DUP1 ISZERO PUSH2 0x55E JUMPI PUSH1 0x0 DUP1 REVERT JUMPDEST POP PUSH2 0x42D PUSH2 0xAB4 JUMP JUMPDEST CALLVALUE DUP1 ISZERO PUSH2 0x573 JUMPI PUSH1 0x0 DUP1 REVERT JUMPDEST POP PUSH2 0x42D PUSH2 0xAC0 JUMP JUMPDEST CALLVALUE DUP1 ISZERO PUSH2 0x588 JUMPI PUSH1 0x0 DUP1 REVERT JUMPDEST POP PUSH2 0x332 PUSH2 0xAD4 JUMP JUMPDEST CALLVALUE DUP1 ISZERO PUSH2 0x59D JUMPI PUSH1 0x0 DUP1 REVERT JUMPDEST POP PUSH2 0x2BF PUSH2 0x5AC CALLDATASIZE PUSH1 0x4 PUSH2 0x1553 JUMP JUMPDEST PUSH2 0xAF0 JUMP JUMPDEST PUSH1 0x40 DUP1 MLOAD DUP1 DUP3 ADD SWAP1 SWAP2 MSTORE PUSH1 0x4 DUP2 MSTORE PUSH32 0x6EFF828500000000000000000000000000000000000000000000000000000000 PUSH1 0x20 DUP3 ADD MSTORE SWAP1 JUMP JUMPDEST DUP1 MLOAD PUSH1 0x20 DUP3 ADD REVERT JUMPDEST PUSH1 0x15 PUSH1 0x20 SWAP1 DUP2 MSTORE PUSH1 0x0 SWAP3 DUP4 MSTORE PUSH1 0x40 DUP1 DUP5 KECCAK256 SWAP1 SWAP2 MSTORE SWAP1 DUP3 MSTORE SWAP1 KECCAK256 DUP1 SLOAD PUSH1 0x1 DUP3 ADD SLOAD PUSH1 0x2 SWAP1 SWAP3 ADD SLOAD SWAP1 SWAP2 SWAP1 DUP4 JUMP JUMPDEST PUSH2 0x624 PUSH2 0xE76 JUMP JUMPDEST PUSH1 0x3 DUP1 SLOAD PUSH32 0xFFFFFFFFFFFFFFFFFFFFFFFF0000000000000000000000000000000000000000 AND SWAP1 SSTORE PUSH1 0x40 MLOAD PUSH32 0x6CAEDCB22A5C22C8EBD0CAF751FEC1228A6E006E6EE37169321E02D31ECC8183 SWAP1 PUSH1 0x0 SWAP1 LOG1 JUMP JUMPDEST PUSH1 0x16 PUSH1 0x20 MSTORE PUSH1 0x0 SWAP1 DUP2 MSTORE PUSH1 0x40 SWAP1 KECCAK256 DUP1 SLOAD PUSH1 0x1 DUP3 ADD SLOAD PUSH1 0x2 DUP4 ADD SLOAD PUSH1 0x3 DUP5 ADD SLOAD PUSH1 0x4 SWAP1 SWAP5 ADD SLOAD SWAP3 SWAP4 SWAP2 SWAP3 SWAP1 SWAP2 SWAP1 DUP6 JUMP JUMPDEST PUSH2 0x6AE PUSH2 0xE9B JUMP JUMPDEST PUSH2 0x6B7 DUP2 PUSH2 0xEE2 JUMP JUMPDEST POP JUMP JUMPDEST PUSH1 0x2 DUP2 DUP2 SLOAD DUP2 LT PUSH2 0x6CA JUMPI PUSH1 0x0 DUP1 REVERT JUMPDEST PUSH1 0x0 SWAP2 DUP3 MSTORE PUSH1 0x20 SWAP1 SWAP2 KECCAK256 ADD SLOAD PUSH20 0xFFFFFFFFFFFFFFFFFFFFFFFFFFFFFFFFFFFFFFFF AND SWAP1 POP DUP2 JUMP JUMPDEST PUSH1 0x10 PUSH1 0x20 MSTORE PUSH1 0x0 SWAP1 DUP2 MSTORE PUSH1 0x40 SWAP1 KECCAK256 SLOAD PUSH1 0xFF AND DUP2 JUMP JUMPDEST PUSH1 0xD SLOAD DUP2 JUMP JUMPDEST PUSH1 0x11 SLOAD DUP2 JUMP JUMPDEST PUSH2 0x71A PUSH2 0xE76 JUMP JUMPDEST PUSH2 0x6B7 DUP2 PUSH2 0x1013 JUMP JUMPDEST PUSH2 0x72B PUSH2 0xE9B JUMP JUMPDEST PUSH20 0xFFFFFFFFFFFFFFFFFFFFFFFFFFFFFFFFFFFFFFFF DUP2 AND PUSH1 0x0 SWAP1 DUP2 MSTORE PUSH1 0x1 PUSH1 0x20 MSTORE PUSH1 0x40 SWAP1 KECCAK256 SLOAD PUSH1 0xFF AND PUSH2 0x764 JUMPI PUSH2 0x764 PUSH2 0x1DE DUP3 PUSH2 0xC4E JUMP JUMPDEST PUSH1 0x0 JUMPDEST PUSH1 0x2 SLOAD DUP2 LT ISZERO PUSH2 0x7D4 JUMPI DUP2 PUSH20 0xFFFFFFFFFFFFFFFFFFFFFFFFFFFFFFFFFFFFFFFF AND PUSH1 0x2 DUP3 DUP2 SLOAD DUP2 LT PUSH2 0x795 JUMPI INVALID JUMPDEST PUSH1 0x0 SWAP2 DUP3 MSTORE PUSH1 0x20 SWAP1 SWAP2 KECCAK256 ADD SLOAD PUSH20 0xFFFFFFFFFFFFFFFFFFFFFFFFFFFFFFFFFFFFFFFF AND EQ ISZERO PUSH2 0x7CC JUMPI PUSH2 0x7C7 DUP3 DUP3 PUSH2 0x116E JUMP JUMPDEST PUSH2 0x7D4 JUMP JUMPDEST PUSH1 0x1 ADD PUSH2 0x767 JUMP JUMPDEST POP POP JUMP JUMPDEST PUSH1 0xC SLOAD DUP2 JUMP JUMPDEST PUSH1 0x9 PUSH1 0x20 MSTORE PUSH1 0x0 SWAP1 DUP2 MSTORE PUSH1 0x40 SWAP1 KECCAK256 SLOAD DUP2 JUMP JUMPDEST PUSH1 0x14 SLOAD PUSH4 0xFFFFFFFF AND DUP2 JUMP JUMPDEST PUSH1 0x60 PUSH1 0x0 DUP2 DUP4 DUP1 PUSH8 0xFFFFFFFFFFFFFFFF DUP2 GT DUP1 ISZERO PUSH2 0x819 JUMPI PUSH1 0x0 DUP1 REVERT JUMPDEST POP PUSH1 0x40 MLOAD SWAP1 DUP1 DUP3 MSTORE DUP1 PUSH1 0x20 MUL PUSH1 0x20 ADD DUP3 ADD PUSH1 0x40 MSTORE DUP1 ISZERO PUSH2 0x84D JUMPI DUP2 PUSH1 0x20 ADD JUMPDEST PUSH1 0x60 DUP2 MSTORE PUSH1 0x20 ADD SWAP1 PUSH1 0x1 SWAP1 SUB SWAP1 DUP2 PUSH2 0x838 JUMPI SWAP1 POP JUMPDEST POP PUSH1 0x3 SLOAD SWAP1 SWAP5 POP PUSH20 0xFFFFFFFFFFFFFFFFFFFFFFFFFFFFFFFFFFFFFFFF AND DUP1 PUSH2 0x87A JUMPI PUSH2 0x87A PUSH2 0x1DE PUSH2 0x5B1 JUMP JUMPDEST PUSH1 0x0 JUMPDEST DUP3 DUP2 EQ PUSH2 0x93A JUMPI DUP2 PUSH20 0xFFFFFFFFFFFFFFFFFFFFFFFFFFFFFFFFFFFFFFFF AND DUP9 DUP9 DUP4 DUP2 DUP2 LT PUSH2 0x8A7 JUMPI INVALID JUMPDEST SWAP1 POP PUSH1 0x20 MUL DUP2 ADD SWAP1 PUSH2 0x8B9 SWAP2 SWAP1 PUSH2 0x17FE JUMP JUMPDEST PUSH1 0x40 MLOAD PUSH2 0x8C7 SWAP3 SWAP2 SWAP1 PUSH2 0x1645 JUMP JUMPDEST PUSH1 0x0 PUSH1 0x40 MLOAD DUP1 DUP4 SUB DUP2 DUP6 GAS DELEGATECALL SWAP2 POP POP RETURNDATASIZE DUP1 PUSH1 0x0 DUP2 EQ PUSH2 0x902 JUMPI PUSH1 0x40 MLOAD SWAP2 POP PUSH1 0x1F NOT PUSH1 0x3F RETURNDATASIZE ADD AND DUP3 ADD PUSH1 0x40 MSTORE RETURNDATASIZE DUP3 MSTORE RETURNDATASIZE PUSH1 0x0 PUSH1 0x20 DUP5 ADD RETURNDATACOPY PUSH2 0x907 JUMP JUMPDEST PUSH1 0x60 SWAP2 POP JUMPDEST POP SWAP1 SWAP6 POP SWAP4 POP DUP5 PUSH2 0x91A JUMPI DUP4 MLOAD DUP5 PUSH1 0x20 ADD REVERT JUMPDEST DUP4 DUP7 DUP3 DUP2 MLOAD DUP2 LT PUSH2 0x927 JUMPI INVALID JUMPDEST PUSH1 0x20 SWAP1 DUP2 MUL SWAP2 SWAP1 SWAP2 ADD ADD MSTORE PUSH1 0x1 ADD PUSH2 0x87D JUMP JUMPDEST POP POP POP POP POP SWAP3 SWAP2 POP POP JUMP JUMPDEST PUSH1 0x0 SLOAD PUSH20 0xFFFFFFFFFFFFFFFFFFFFFFFFFFFFFFFFFFFFFFFF AND DUP2 JUMP JUMPDEST PUSH2 0x969 PUSH2 0xE9B JUMP JUMPDEST PUSH2 0x7D4 DUP3 DUP3 PUSH2 0x116E JUMP JUMPDEST PUSH1 0x13 SLOAD DUP2 JUMP JUMPDEST PUSH1 0x8 SLOAD DUP2 JUMP JUMPDEST PUSH1 0x1 PUSH1 0x20 MSTORE PUSH1 0x0 SWAP1 DUP2 MSTORE PUSH1 0x40 SWAP1 KECCAK256 SLOAD PUSH1 0xFF AND DUP2 JUMP JUMPDEST PUSH1 0xB PUSH1 0x20 MSTORE PUSH1 0x0 SWAP1 DUP2 MSTORE PUSH1 0x40 SWAP1 KECCAK256 SLOAD DUP2 JUMP JUMPDEST PUSH1 0x11 SLOAD PUSH3 0x69780 DUP2 LT DUP1 PUSH2 0x9BC JUMPI POP PUSH3 0x76A700 DUP2 GT JUMPDEST ISZERO PUSH2 0x9CE JUMPI PUSH2 0x9CE PUSH2 0x1DE PUSH1 0x4 PUSH2 0xDD0 JUMP JUMPDEST PUSH1 0x14 SLOAD PUSH4 0xFFFFFFFF PUSH5 0x100000000 DUP3 DIV DUP2 AND SWAP2 AND DUP2 LT DUP1 PUSH2 0x9F3 JUMPI POP PUSH4 0xFFFFFFFF DUP2 AND ISZERO JUMPDEST ISZERO PUSH2 0xA05 JUMPI PUSH2 0xA05 PUSH2 0x1DE PUSH1 0x0 PUSH2 0xDD0 JUMP JUMPDEST PUSH1 0x12 SLOAD PUSH3 0xF4240 PUSH4 0xFFFFFFFF SWAP1 SWAP2 AND GT ISZERO PUSH2 0xA27 JUMPI PUSH2 0xA27 PUSH2 0x1DE PUSH1 0x1 PUSH2 0xDD0 JUMP JUMPDEST PUSH1 0x2 PUSH1 0x13 SLOAD LT ISZERO PUSH2 0x7D4 JUMPI PUSH2 0x7D4 PUSH2 0x1DE PUSH1 0x3 PUSH2 0xDD0 JUMP JUMPDEST PUSH1 0x17 SLOAD DUP2 JUMP JUMPDEST PUSH1 0x60 PUSH1 0x2 DUP1 SLOAD DUP1 PUSH1 0x20 MUL PUSH1 0x20 ADD PUSH1 0x40 MLOAD SWAP1 DUP2 ADD PUSH1 0x40 MSTORE DUP1 SWAP3 SWAP2 SWAP1 DUP2 DUP2 MSTORE PUSH1 0x20 ADD DUP3 DUP1 SLOAD DUP1 ISZERO PUSH2 0xAAA JUMPI PUSH1 0x20 MUL DUP3 ADD SWAP2 SWAP1 PUSH1 0x0 MSTORE PUSH1 0x20 PUSH1 0x0 KECCAK256 SWAP1 JUMPDEST DUP2 SLOAD PUSH20 0xFFFFFFFFFFFFFFFFFFFFFFFFFFFFFFFFFFFFFFFF AND DUP2 MSTORE PUSH1 0x1 SWAP1 SWAP2 ADD SWAP1 PUSH1 0x20 ADD DUP1 DUP4 GT PUSH2 0xA7F JUMPI JUMPDEST POP POP POP POP POP SWAP1 POP SWAP1 JUMP JUMPDEST PUSH1 0x12 SLOAD PUSH4 0xFFFFFFFF AND DUP2 JUMP JUMPDEST PUSH1 0x14 SLOAD PUSH5 0x100000000 SWAP1 DIV PUSH4 0xFFFFFFFF AND DUP2 JUMP JUMPDEST PUSH1 0x3 SLOAD PUSH20 0xFFFFFFFFFFFFFFFFFFFFFFFFFFFFFFFFFFFFFFFF AND DUP2 JUMP JUMPDEST PUSH2 0xAF8 PUSH2 0xE9B JUMP JUMPDEST PUSH20 0xFFFFFFFFFFFFFFFFFFFFFFFFFFFFFFFFFFFFFFFF DUP2 AND PUSH2 0xB23 JUMPI PUSH2 0xB1E PUSH2 0x1DE PUSH2 0x13E9 JUMP JUMPDEST PUSH2 0x6B7 JUMP JUMPDEST PUSH1 0x0 DUP1 SLOAD PUSH32 0xFFFFFFFFFFFFFFFFFFFFFFFF0000000000000000000000000000000000000000 AND PUSH20 0xFFFFFFFFFFFFFFFFFFFFFFFFFFFFFFFFFFFFFFFF DUP4 AND SWAP1 DUP2 OR DUP3 SSTORE PUSH1 0x40 MLOAD SWAP1 SWAP2 CALLER SWAP2 PUSH32 0x8BE0079C531659141344CD1FD0A4F28419497F9722A3DAAFE3B4186F6B6457E0 SWAP2 SWAP1 LOG3 POP JUMP JUMPDEST PUSH1 0x40 DUP1 MLOAD DUP1 DUP3 ADD SWAP1 SWAP2 MSTORE PUSH1 0x4 DUP2 MSTORE PUSH32 0x57654FE400000000000000000000000000000000000000000000000000000000 PUSH1 0x20 DUP3 ADD MSTORE SWAP1 JUMP JUMPDEST PUSH1 0x40 DUP1 MLOAD PUSH20 0xFFFFFFFFFFFFFFFFFFFFFFFFFFFFFFFFFFFFFFFF DUP4 AND PUSH1 0x24 DUP1 DUP4 ADD SWAP2 SWAP1 SWAP2 MSTORE DUP3 MLOAD DUP1 DUP4 SUB SWAP1 SWAP2 ADD DUP2 MSTORE PUSH1 0x44 SWAP1 SWAP2 ADD SWAP1 SWAP2 MSTORE PUSH1 0x20 DUP2 ADD DUP1 MLOAD PUSH28 0xFFFFFFFFFFFFFFFFFFFFFFFFFFFFFFFFFFFFFFFFFFFFFFFFFFFFFFFF AND PUSH32 0xDE16F1A000000000000000000000000000000000000000000000000000000000 OR SWAP1 MSTORE JUMPDEST SWAP2 SWAP1 POP JUMP JUMPDEST PUSH1 0x40 DUP1 MLOAD PUSH20 0xFFFFFFFFFFFFFFFFFFFFFFFFFFFFFFFFFFFFFFFF DUP4 AND PUSH1 0x24 DUP1 DUP4 ADD SWAP2 SWAP1 SWAP2 MSTORE DUP3 MLOAD DUP1 DUP4 SUB SWAP1 SWAP2 ADD DUP2 MSTORE PUSH1 0x44 SWAP1 SWAP2 ADD SWAP1 SWAP2 MSTORE PUSH1 0x20 DUP2 ADD DUP1 MLOAD PUSH28 0xFFFFFFFFFFFFFFFFFFFFFFFFFFFFFFFFFFFFFFFFFFFFFFFFFFFFFFFF AND PUSH32 0xEB5108A200000000000000000000000000000000000000000000000000000000 OR SWAP1 MSTORE SWAP2 SWAP1 POP JUMP JUMPDEST PUSH1 0x40 DUP1 MLOAD PUSH1 0x24 DUP2 ADD DUP5 SWAP1 MSTORE PUSH1 0x44 DUP1 DUP3 ADD DUP5 SWAP1 MSTORE DUP3 MLOAD DUP1 DUP4 SUB SWAP1 SWAP2 ADD DUP2 MSTORE PUSH1 0x64 SWAP1 SWAP2 ADD SWAP1 SWAP2 MSTORE PUSH1 0x20 DUP2 ADD DUP1 MLOAD PUSH28 0xFFFFFFFFFFFFFFFFFFFFFFFFFFFFFFFFFFFFFFFFFFFFFFFFFFFFFFFF AND PUSH32 0xE9F8377100000000000000000000000000000000000000000000000000000000 OR SWAP1 MSTORE SWAP3 SWAP2 POP POP JUMP JUMPDEST PUSH1 0x40 DUP1 MLOAD PUSH20 0xFFFFFFFFFFFFFFFFFFFFFFFFFFFFFFFFFFFFFFFF DUP1 DUP6 AND PUSH1 0x24 DUP4 ADD MSTORE DUP4 AND PUSH1 0x44 DUP1 DUP4 ADD SWAP2 SWAP1 SWAP2 MSTORE DUP3 MLOAD DUP1 DUP4 SUB SWAP1 SWAP2 ADD DUP2 MSTORE PUSH1 0x64 SWAP1 SWAP2 ADD SWAP1 SWAP2 MSTORE PUSH1 0x20 DUP2 ADD DUP1 MLOAD PUSH28 0xFFFFFFFFFFFFFFFFFFFFFFFFFFFFFFFFFFFFFFFFFFFFFFFFFFFFFFFF AND PUSH32 0x140A84DB00000000000000000000000000000000000000000000000000000000 OR SWAP1 MSTORE SWAP3 SWAP2 POP POP JUMP JUMPDEST PUSH1 0x60 PUSH32 0xFC45BD1100000000000000000000000000000000000000000000000000000000 DUP3 PUSH1 0x4 DUP2 GT ISZERO PUSH2 0xDFF JUMPI INVALID JUMPDEST PUSH1 0x40 MLOAD PUSH1 0x24 ADD DUP1 DUP3 PUSH1 0xFF AND DUP2 MSTORE PUSH1 0x20 ADD SWAP2 POP POP PUSH1 0x40 MLOAD PUSH1 0x20 DUP2 DUP4 SUB SUB DUP2 MSTORE SWAP1 PUSH1 0x40 MSTORE SWAP1 PUSH28 0xFFFFFFFFFFFFFFFFFFFFFFFFFFFFFFFFFFFFFFFFFFFFFFFFFFFFFFFF NOT AND PUSH1 0x20 DUP3 ADD DUP1 MLOAD PUSH28 0xFFFFFFFFFFFFFFFFFFFFFFFFFFFFFFFFFFFFFFFFFFFFFFFFFFFFFFFF DUP4 DUP2 DUP4 AND OR DUP4 MSTORE POP POP POP POP SWAP1 POP SWAP2 SWAP1 POP JUMP JUMPDEST CALLER PUSH1 0x0 SWAP1 DUP2 MSTORE PUSH1 0x1 PUSH1 0x20 MSTORE PUSH1 0x40 SWAP1 KECCAK256 SLOAD PUSH1 0xFF AND PUSH2 0xE99 JUMPI PUSH2 0xE99 PUSH2 0x1DE CALLER PUSH2 0x1420 JUMP JUMPDEST JUMP JUMPDEST PUSH1 0x0 SLOAD PUSH20 0xFFFFFFFFFFFFFFFFFFFFFFFFFFFFFFFFFFFFFFFF AND CALLER EQ PUSH2 0xE99 JUMPI PUSH1 0x0 SLOAD PUSH2 0xE99 SWAP1 PUSH2 0x1DE SWAP1 CALLER SWAP1 PUSH20 0xFFFFFFFFFFFFFFFFFFFFFFFFFFFFFFFFFFFFFFFF AND PUSH2 0x14A3 JUMP JUMPDEST PUSH20 0xFFFFFFFFFFFFFFFFFFFFFFFFFFFFFFFFFFFFFFFF DUP2 AND PUSH2 0xF08 JUMPI PUSH2 0xF08 PUSH2 0x1DE PUSH2 0xB93 JUMP JUMPDEST PUSH20 0xFFFFFFFFFFFFFFFFFFFFFFFFFFFFFFFFFFFFFFFF DUP2 AND PUSH1 0x0 SWAP1 DUP2 MSTORE PUSH1 0x1 PUSH1 0x20 MSTORE PUSH1 0x40 SWAP1 KECCAK256 SLOAD PUSH1 0xFF AND ISZERO PUSH2 0xF42 JUMPI PUSH2 0xF42 PUSH2 0x1DE DUP3 PUSH2 0xBCA JUMP JUMPDEST PUSH20 0xFFFFFFFFFFFFFFFFFFFFFFFFFFFFFFFFFFFFFFFF DUP2 AND PUSH1 0x0 DUP2 DUP2 MSTORE PUSH1 0x1 PUSH1 0x20 DUP2 SWAP1 MSTORE PUSH1 0x40 DUP1 DUP4 KECCAK256 DUP1 SLOAD PUSH32 0xFFFFFFFFFFFFFFFFFFFFFFFFFFFFFFFFFFFFFFFFFFFFFFFFFFFFFFFFFFFFFF00 AND DUP4 OR SWAP1 SSTORE PUSH1 0x2 DUP1 SLOAD SWAP3 DUP4 ADD DUP2 SSTORE DUP4 MSTORE PUSH32 0x405787FA12A823E0F2B7631CC41B3BA8828B3321CA811111FA75CD3AA3BB5ACE SWAP1 SWAP2 ADD DUP1 SLOAD PUSH32 0xFFFFFFFFFFFFFFFFFFFFFFFF0000000000000000000000000000000000000000 AND DUP5 OR SWAP1 SSTORE MLOAD CALLER SWAP3 SWAP2 PUSH32 0x3147867C59D17E8FA9D522465651D44AAE0A9E38F902F3475B97E58072F0ED4C SWAP2 LOG3 POP JUMP JUMPDEST PUSH1 0x3 DUP1 SLOAD PUSH32 0xFFFFFFFFFFFFFFFFFFFFFFFF0000000000000000000000000000000000000000 AND PUSH20 0xFFFFFFFFFFFFFFFFFFFFFFFFFFFFFFFFFFFFFFFF DUP4 AND OR SWAP1 SSTORE PUSH1 0x40 MLOAD PUSH32 0x48368388F801041F7690185C4E28B6F3505C740C47BE8AC104B55DF666BFC84 SWAP1 PUSH2 0x1083 SWAP1 DUP4 SWAP1 PUSH2 0x1671 JUMP JUMPDEST PUSH1 0x40 MLOAD DUP1 SWAP2 SUB SWAP1 LOG1 PUSH1 0x3 SLOAD PUSH1 0x40 DUP1 MLOAD PUSH1 0x4 DUP2 MSTORE PUSH1 0x24 DUP2 ADD DUP3 MSTORE PUSH1 0x20 DUP2 ADD DUP1 MLOAD PUSH28 0xFFFFFFFFFFFFFFFFFFFFFFFFFFFFFFFFFFFFFFFFFFFFFFFFFFFFFFFF AND PUSH32 0xE1C7392A00000000000000000000000000000000000000000000000000000000 OR SWAP1 MSTORE SWAP1 MLOAD PUSH1 0x0 SWAP3 PUSH1 0x60 SWAP3 PUSH20 0xFFFFFFFFFFFFFFFFFFFFFFFFFFFFFFFFFFFFFFFF SWAP1 SWAP2 AND SWAP2 PUSH2 0x110F SWAP2 SWAP1 PUSH2 0x1655 JUMP JUMPDEST PUSH1 0x0 PUSH1 0x40 MLOAD DUP1 DUP4 SUB DUP2 DUP6 GAS DELEGATECALL SWAP2 POP POP RETURNDATASIZE DUP1 PUSH1 0x0 DUP2 EQ PUSH2 0x114A JUMPI PUSH1 0x40 MLOAD SWAP2 POP PUSH1 0x1F NOT PUSH1 0x3F RETURNDATASIZE ADD AND DUP3 ADD PUSH1 0x40 MSTORE RETURNDATASIZE DUP3 MSTORE RETURNDATASIZE PUSH1 0x0 PUSH1 0x20 DUP5 ADD RETURNDATACOPY PUSH2 0x114F JUMP JUMPDEST PUSH1 0x60 SWAP2 POP JUMPDEST POP SWAP2 POP SWAP2 POP DUP2 PUSH2 0x1161 JUMPI DUP1 MLOAD PUSH1 0x20 DUP3 ADD REVERT JUMPDEST PUSH2 0x1169 PUSH2 0x9A6 JUMP JUMPDEST POP POP POP JUMP JUMPDEST PUSH20 0xFFFFFFFFFFFFFFFFFFFFFFFFFFFFFFFFFFFFFFFF DUP3 AND PUSH1 0x0 SWAP1 DUP2 MSTORE PUSH1 0x1 PUSH1 0x20 MSTORE PUSH1 0x40 SWAP1 KECCAK256 SLOAD PUSH1 0xFF AND PUSH2 0x11A7 JUMPI PUSH2 0x11A7 PUSH2 0x1DE DUP4 PUSH2 0xC4E JUMP JUMPDEST PUSH1 0x2 SLOAD DUP2 LT PUSH2 0x11C2 JUMPI PUSH2 0x11C2 PUSH2 0x1DE DUP3 PUSH1 0x2 DUP1 SLOAD SWAP1 POP PUSH2 0xCD1 JUMP JUMPDEST DUP2 PUSH20 0xFFFFFFFFFFFFFFFFFFFFFFFFFFFFFFFFFFFFFFFF AND PUSH1 0x2 DUP3 DUP2 SLOAD DUP2 LT PUSH2 0x11E6 JUMPI INVALID JUMPDEST PUSH1 0x0 SWAP2 DUP3 MSTORE PUSH1 0x20 SWAP1 SWAP2 KECCAK256 ADD SLOAD PUSH20 0xFFFFFFFFFFFFFFFFFFFFFFFFFFFFFFFFFFFFFFFF AND EQ PUSH2 0x1248 JUMPI PUSH2 0x1248 PUSH2 0x1DE PUSH1 0x2 DUP4 DUP2 SLOAD DUP2 LT PUSH2 0x1220 JUMPI INVALID JUMPDEST PUSH1 0x0 SWAP2 DUP3 MSTORE PUSH1 0x20 SWAP1 SWAP2 KECCAK256 ADD SLOAD PUSH20 0xFFFFFFFFFFFFFFFFFFFFFFFFFFFFFFFFFFFFFFFF AND DUP5 PUSH2 0xD44 JUMP JUMPDEST PUSH20 0xFFFFFFFFFFFFFFFFFFFFFFFFFFFFFFFFFFFFFFFF DUP3 AND PUSH1 0x0 SWAP1 DUP2 MSTORE PUSH1 0x1 PUSH1 0x20 MSTORE PUSH1 0x40 SWAP1 KECCAK256 DUP1 SLOAD PUSH32 0xFFFFFFFFFFFFFFFFFFFFFFFFFFFFFFFFFFFFFFFFFFFFFFFFFFFFFFFFFFFFFF00 AND SWAP1 SSTORE PUSH1 0x2 DUP1 SLOAD PUSH32 0xFFFFFFFFFFFFFFFFFFFFFFFFFFFFFFFFFFFFFFFFFFFFFFFFFFFFFFFFFFFFFFFF DUP2 ADD SWAP1 DUP2 LT PUSH2 0x12C3 JUMPI INVALID JUMPDEST PUSH1 0x0 SWAP2 DUP3 MSTORE PUSH1 0x20 SWAP1 SWAP2 KECCAK256 ADD SLOAD PUSH1 0x2 DUP1 SLOAD PUSH20 0xFFFFFFFFFFFFFFFFFFFFFFFFFFFFFFFFFFFFFFFF SWAP1 SWAP3 AND SWAP2 DUP4 SWAP1 DUP2 LT PUSH2 0x12F6 JUMPI INVALID JUMPDEST SWAP1 PUSH1 0x0 MSTORE PUSH1 0x20 PUSH1 0x0 KECCAK256 ADD PUSH1 0x0 PUSH2 0x100 EXP DUP2 SLOAD DUP2 PUSH20 0xFFFFFFFFFFFFFFFFFFFFFFFFFFFFFFFFFFFFFFFF MUL NOT AND SWAP1 DUP4 PUSH20 0xFFFFFFFFFFFFFFFFFFFFFFFFFFFFFFFFFFFFFFFF AND MUL OR SWAP1 SSTORE POP PUSH1 0x2 DUP1 SLOAD DUP1 PUSH2 0x1349 JUMPI INVALID JUMPDEST PUSH1 0x0 DUP3 DUP2 MSTORE PUSH1 0x20 DUP2 KECCAK256 DUP3 ADD PUSH32 0xFFFFFFFFFFFFFFFFFFFFFFFFFFFFFFFFFFFFFFFFFFFFFFFFFFFFFFFFFFFFFFFF SWAP1 DUP2 ADD DUP1 SLOAD PUSH32 0xFFFFFFFFFFFFFFFFFFFFFFFF0000000000000000000000000000000000000000 AND SWAP1 SSTORE SWAP1 SWAP2 ADD SWAP1 SWAP2 SSTORE PUSH1 0x40 MLOAD CALLER SWAP2 PUSH20 0xFFFFFFFFFFFFFFFFFFFFFFFFFFFFFFFFFFFFFFFF DUP6 AND SWAP2 PUSH32 0x1F32C1B084E2DE0713B8FB16BD46BB9DF710A3DBEAE2F3CA93AF46E016DCC6B0 SWAP2 SWAP1 LOG3 POP POP JUMP JUMPDEST PUSH1 0x40 DUP1 MLOAD DUP1 DUP3 ADD SWAP1 SWAP2 MSTORE PUSH1 0x4 DUP2 MSTORE PUSH32 0xE69EDC3E00000000000000000000000000000000000000000000000000000000 PUSH1 0x20 DUP3 ADD MSTORE SWAP1 JUMP JUMPDEST PUSH1 0x40 DUP1 MLOAD PUSH20 0xFFFFFFFFFFFFFFFFFFFFFFFFFFFFFFFFFFFFFFFF DUP4 AND PUSH1 0x24 DUP1 DUP4 ADD SWAP2 SWAP1 SWAP2 MSTORE DUP3 MLOAD DUP1 DUP4 SUB SWAP1 SWAP2 ADD DUP2 MSTORE PUSH1 0x44 SWAP1 SWAP2 ADD SWAP1 SWAP2 MSTORE PUSH1 0x20 DUP2 ADD DUP1 MLOAD PUSH28 0xFFFFFFFFFFFFFFFFFFFFFFFFFFFFFFFFFFFFFFFFFFFFFFFFFFFFFFFF AND PUSH32 0xB65A25B900000000000000000000000000000000000000000000000000000000 OR SWAP1 MSTORE SWAP2 SWAP1 POP JUMP JUMPDEST PUSH1 0x40 DUP1 MLOAD PUSH20 0xFFFFFFFFFFFFFFFFFFFFFFFFFFFFFFFFFFFFFFFF DUP1 DUP6 AND PUSH1 0x24 DUP4 ADD MSTORE DUP4 AND PUSH1 0x44 DUP1 DUP4 ADD SWAP2 SWAP1 SWAP2 MSTORE DUP3 MLOAD DUP1 DUP4 SUB SWAP1 SWAP2 ADD DUP2 MSTORE PUSH1 0x64 SWAP1 SWAP2 ADD SWAP1 SWAP2 MSTORE PUSH1 0x20 DUP2 ADD DUP1 MLOAD PUSH28 0xFFFFFFFFFFFFFFFFFFFFFFFFFFFFFFFFFFFFFFFFFFFFFFFFFFFFFFFF AND PUSH32 0x1DE45AD100000000000000000000000000000000000000000000000000000000 OR SWAP1 MSTORE SWAP3 SWAP2 POP POP JUMP JUMPDEST DUP1 CALLDATALOAD PUSH20 0xFFFFFFFFFFFFFFFFFFFFFFFFFFFFFFFFFFFFFFFF DUP2 AND DUP2 EQ PUSH2 0xC49 JUMPI PUSH1 0x0 DUP1 REVERT JUMPDEST PUSH1 0x0 PUSH1 0x20 DUP3 DUP5 SUB SLT ISZERO PUSH2 0x1564 JUMPI DUP1 DUP2 REVERT JUMPDEST PUSH2 0x156D DUP3 PUSH2 0x152F JUMP JUMPDEST SWAP4 SWAP3 POP POP POP JUMP JUMPDEST PUSH1 0x0 DUP1 PUSH1 0x40 DUP4 DUP6 SUB SLT ISZERO PUSH2 0x1586 JUMPI DUP1 DUP2 REVERT JUMPDEST PUSH2 0x158F DUP4 PUSH2 0x152F JUMP JUMPDEST SWAP5 PUSH1 0x20 SWAP4 SWAP1 SWAP4 ADD CALLDATALOAD SWAP4 POP POP POP JUMP JUMPDEST PUSH1 0x0 DUP1 PUSH1 0x20 DUP4 DUP6 SUB SLT ISZERO PUSH2 0x15AF JUMPI DUP2 DUP3 REVERT JUMPDEST DUP3 CALLDATALOAD PUSH8 0xFFFFFFFFFFFFFFFF DUP1 DUP3 GT ISZERO PUSH2 0x15C6 JUMPI DUP4 DUP5 REVERT JUMPDEST DUP2 DUP6 ADD SWAP2 POP DUP6 PUSH1 0x1F DUP4 ADD SLT PUSH2 0x15D9 JUMPI DUP4 DUP5 REVERT JUMPDEST DUP2 CALLDATALOAD DUP2 DUP2 GT ISZERO PUSH2 0x15E7 JUMPI DUP5 DUP6 REVERT JUMPDEST DUP7 PUSH1 0x20 DUP1 DUP4 MUL DUP6 ADD ADD GT ISZERO PUSH2 0x15FA JUMPI DUP5 DUP6 REVERT JUMPDEST PUSH1 0x20 SWAP3 SWAP1 SWAP3 ADD SWAP7 SWAP2 SWAP6 POP SWAP1 SWAP4 POP POP POP POP JUMP JUMPDEST PUSH1 0x0 PUSH1 0x20 DUP3 DUP5 SUB SLT ISZERO PUSH2 0x161D JUMPI DUP1 DUP2 REVERT JUMPDEST POP CALLDATALOAD SWAP2 SWAP1 POP JUMP JUMPDEST PUSH1 0x0 DUP1 PUSH1 0x40 DUP4 DUP6 SUB SLT ISZERO PUSH2 0x1636 JUMPI DUP2 DUP3 REVERT JUMPDEST POP POP DUP1 CALLDATALOAD SWAP3 PUSH1 0x20 SWAP1 SWAP2 ADD CALLDATALOAD SWAP2 POP JUMP JUMPDEST PUSH1 0x0 DUP3 DUP5 DUP4 CALLDATACOPY SWAP2 ADD SWAP1 DUP2 MSTORE SWAP2 SWAP1 POP JUMP JUMPDEST PUSH1 0x0 DUP3 MLOAD PUSH2 0x1667 DUP2 DUP5 PUSH1 0x20 DUP8 ADD PUSH2 0x1868 JUMP JUMPDEST SWAP2 SWAP1 SWAP2 ADD SWAP3 SWAP2 POP POP JUMP JUMPDEST PUSH20 0xFFFFFFFFFFFFFFFFFFFFFFFFFFFFFFFFFFFFFFFF SWAP2 SWAP1 SWAP2 AND DUP2 MSTORE PUSH1 0x20 ADD SWAP1 JUMP JUMPDEST PUSH1 0x20 DUP1 DUP3 MSTORE DUP3 MLOAD DUP3 DUP3 ADD DUP2 SWAP1 MSTORE PUSH1 0x0 SWAP2 SWAP1 DUP5 DUP3 ADD SWAP1 PUSH1 0x40 DUP6 ADD SWAP1 DUP5 JUMPDEST DUP2 DUP2 LT ISZERO PUSH2 0x16E0 JUMPI DUP4 MLOAD PUSH20 0xFFFFFFFFFFFFFFFFFFFFFFFFFFFFFFFFFFFFFFFF AND DUP4 MSTORE SWAP3 DUP5 ADD SWAP3 SWAP2 DUP5 ADD SWAP2 PUSH1 0x1 ADD PUSH2 0x16AE JUMP JUMPDEST POP SWAP1 SWAP7 SWAP6 POP POP POP POP POP POP JUMP JUMPDEST PUSH1 0x0 PUSH1 0x20 DUP1 DUP4 ADD DUP2 DUP5 MSTORE DUP1 DUP6 MLOAD DUP1 DUP4 MSTORE PUSH1 0x40 DUP7 ADD SWAP2 POP PUSH1 0x40 DUP5 DUP3 MUL DUP8 ADD ADD SWAP3 POP DUP4 DUP8 ADD DUP6 JUMPDEST DUP3 DUP2 LT ISZERO PUSH2 0x1793 JUMPI PUSH32 0xFFFFFFFFFFFFFFFFFFFFFFFFFFFFFFFFFFFFFFFFFFFFFFFFFFFFFFFFFFFFFFC0 DUP9 DUP7 SUB ADD DUP5 MSTORE DUP2 MLOAD DUP1 MLOAD DUP1 DUP8 MSTORE PUSH2 0x1756 DUP2 DUP10 DUP10 ADD DUP11 DUP6 ADD PUSH2 0x1868 JUMP JUMPDEST PUSH1 0x1F ADD PUSH32 0xFFFFFFFFFFFFFFFFFFFFFFFFFFFFFFFFFFFFFFFFFFFFFFFFFFFFFFFFFFFFFFE0 AND SWAP6 SWAP1 SWAP6 ADD DUP7 ADD SWAP5 POP SWAP3 DUP6 ADD SWAP3 SWAP1 DUP6 ADD SWAP1 PUSH1 0x1 ADD PUSH2 0x1711 JUMP JUMPDEST POP SWAP3 SWAP8 SWAP7 POP POP POP POP POP POP POP JUMP JUMPDEST SWAP1 ISZERO ISZERO DUP2 MSTORE PUSH1 0x20 ADD SWAP1 JUMP JUMPDEST SWAP1 DUP2 MSTORE PUSH1 0x20 ADD SWAP1 JUMP JUMPDEST SWAP3 DUP4 MSTORE PUSH1 0x20 DUP4 ADD SWAP2 SWAP1 SWAP2 MSTORE PUSH1 0x40 DUP3 ADD MSTORE PUSH1 0x60 ADD SWAP1 JUMP JUMPDEST SWAP5 DUP6 MSTORE PUSH1 0x20 DUP6 ADD SWAP4 SWAP1 SWAP4 MSTORE PUSH1 0x40 DUP5 ADD SWAP2 SWAP1 SWAP2 MSTORE PUSH1 0x60 DUP4 ADD MSTORE PUSH1 0x80 DUP3 ADD MSTORE PUSH1 0xA0 ADD SWAP1 JUMP JUMPDEST PUSH4 0xFFFFFFFF SWAP2 SWAP1 SWAP2 AND DUP2 MSTORE PUSH1 0x20 ADD SWAP1 JUMP JUMPDEST PUSH1 0x0 DUP1 DUP4 CALLDATALOAD PUSH32 0xFFFFFFFFFFFFFFFFFFFFFFFFFFFFFFFFFFFFFFFFFFFFFFFFFFFFFFFFFFFFFFE1 DUP5 CALLDATASIZE SUB ADD DUP2 SLT PUSH2 0x1832 JUMPI DUP3 DUP4 REVERT JUMPDEST DUP4 ADD DUP1 CALLDATALOAD SWAP2 POP PUSH8 0xFFFFFFFFFFFFFFFF DUP3 GT ISZERO PUSH2 0x184C JUMPI DUP3 DUP4 REVERT JUMPDEST PUSH1 0x20 ADD SWAP2 POP CALLDATASIZE DUP2 SWAP1 SUB DUP3 SGT ISZERO PUSH2 0x1861 JUMPI PUSH1 0x0 DUP1 REVERT JUMPDEST SWAP3 POP SWAP3 SWAP1 POP JUMP JUMPDEST PUSH1 0x0 JUMPDEST DUP4 DUP2 LT ISZERO PUSH2 0x1883 JUMPI DUP2 DUP2 ADD MLOAD DUP4 DUP3 ADD MSTORE PUSH1 0x20 ADD PUSH2 0x186B JUMP JUMPDEST DUP4 DUP2 GT ISZERO PUSH2 0x1892 JUMPI PUSH1 0x0 DUP5 DUP5 ADD MSTORE JUMPDEST POP POP POP POP JUMP INVALID LOG2 PUSH5 0x6970667358 0x22 SLT KECCAK256 LOG1 PUSH19 0xAF876A1A767B620F91DAE6ED69A58316C5D89B CALL 0xEE RETURN CREATE2 0xB5 SWAP15 DUP8 0xAF 0xE1 0xD8 MSTORE PUSH5 0x736F6C6343 STOP SMOD DIV STOP CALLER "
			}
		}
	},
	"sourceTreeHashHex": "0x83410b475f691410d13f3271db51d4d2be1d39cb2f03430ab83736bf5b3e797c",
	"compiler": {
		"name": "solc",
		"version": "0.7.4+commit.3f05b770",
		"settings": {
			"remappings": [],
			"optimizer": {
				"enabled": true,
				"runs": 1000000
			},
			"outputSelection": {
				"*": {
					"*": [
						"abi",
						"devdoc",
						"evm.bytecode.object",
						"evm.bytecode.sourceMap",
						"evm.deployedBytecode.object",
						"evm.deployedBytecode.sourceMap"
					]
				}
			}
		}
	},
	"chains": {}
}