{
	"schemaVersion": "2.0.0",
	"contractName": "Staking",
	"compilerOutput": {
		"abi": [
			{
				"anonymous": false,
				"inputs": [
					{
						"indexed": true,
						"internalType": "address",
						"name": "target",
						"type": "address"
					},
					{
						"indexed": true,
						"internalType": "address",
						"name": "caller",
						"type": "address"
					}
				],
				"name": "AuthorizedAddressAdded",
				"type": "event"
			},
			{
				"anonymous": false,
				"inputs": [
					{
						"indexed": true,
						"internalType": "address",
						"name": "target",
						"type": "address"
					},
					{
						"indexed": true,
						"internalType": "address",
						"name": "caller",
						"type": "address"
					}
				],
				"name": "AuthorizedAddressRemoved",
				"type": "event"
			},
			{
				"anonymous": false,
				"inputs": [
					{
						"indexed": true,
						"internalType": "uint256",
						"name": "epoch",
						"type": "uint256"
					},
					{
						"indexed": false,
						"internalType": "uint256",
						"name": "numPoolsToFinalize",
						"type": "uint256"
					},
					{
						"indexed": false,
						"internalType": "uint256",
						"name": "rewardsAvailable",
						"type": "uint256"
					},
					{
						"indexed": false,
						"internalType": "uint256",
						"name": "totalFeesCollected",
						"type": "uint256"
					},
					{
						"indexed": false,
						"internalType": "uint256",
						"name": "totalWeightedStake",
						"type": "uint256"
					}
				],
				"name": "EpochEnded",
				"type": "event"
			},
			{
				"anonymous": false,
				"inputs": [
					{
						"indexed": true,
						"internalType": "uint256",
						"name": "epoch",
						"type": "uint256"
					},
					{
						"indexed": false,
						"internalType": "uint256",
						"name": "rewardsPaid",
						"type": "uint256"
					},
					{
						"indexed": false,
						"internalType": "uint256",
						"name": "rewardsRemaining",
						"type": "uint256"
					}
				],
				"name": "EpochFinalized",
				"type": "event"
			},
			{
				"anonymous": false,
				"inputs": [
					{
						"indexed": true,
						"internalType": "address",
						"name": "staker",
						"type": "address"
					},
					{
						"indexed": false,
						"internalType": "uint256",
						"name": "amount",
						"type": "uint256"
					},
					{
						"indexed": false,
						"internalType": "uint8",
						"name": "fromStatus",
						"type": "uint8"
					},
					{
						"indexed": true,
						"internalType": "bytes32",
						"name": "fromPool",
						"type": "bytes32"
					},
					{
						"indexed": false,
						"internalType": "uint8",
						"name": "toStatus",
						"type": "uint8"
					},
					{
						"indexed": true,
						"internalType": "bytes32",
						"name": "toPool",
						"type": "bytes32"
					}
				],
				"name": "MoveStake",
				"type": "event"
			},
			{
				"anonymous": false,
				"inputs": [
					{
						"indexed": true,
						"internalType": "bytes32",
						"name": "poolId",
						"type": "bytes32"
					},
					{
						"indexed": false,
						"internalType": "uint32",
						"name": "oldOperatorShare",
						"type": "uint32"
					},
					{
						"indexed": false,
						"internalType": "uint32",
						"name": "newOperatorShare",
						"type": "uint32"
					}
				],
				"name": "OperatorShareDecreased",
				"type": "event"
			},
			{
				"anonymous": false,
				"inputs": [
					{
						"indexed": true,
						"internalType": "address",
						"name": "previousOwner",
						"type": "address"
					},
					{
						"indexed": true,
						"internalType": "address",
						"name": "newOwner",
						"type": "address"
					}
				],
				"name": "OwnershipTransferred",
				"type": "event"
			},
			{
				"anonymous": false,
				"inputs": [
					{
						"indexed": false,
						"internalType": "uint256",
						"name": "epochDurationInSeconds",
						"type": "uint256"
					},
					{
						"indexed": false,
						"internalType": "uint32",
						"name": "rewardDelegatedStakeWeight",
						"type": "uint32"
					},
					{
						"indexed": false,
						"internalType": "uint256",
						"name": "minimumPoolStake",
						"type": "uint256"
					},
					{
						"indexed": false,
						"internalType": "uint256",
						"name": "cobbDouglasAlphaNumerator",
						"type": "uint256"
					},
					{
						"indexed": false,
						"internalType": "uint256",
						"name": "cobbDouglasAlphaDenominator",
						"type": "uint256"
					}
				],
				"name": "ParamsSet",
				"type": "event"
			},
			{
				"anonymous": false,
				"inputs": [
					{
						"indexed": false,
						"internalType": "address",
						"name": "exchangeAddress",
						"type": "address"
					}
				],
				"name": "PopAdded",
				"type": "event"
			},
			{
				"anonymous": false,
				"inputs": [
					{
						"indexed": false,
						"internalType": "address",
						"name": "exchangeAddress",
						"type": "address"
					}
				],
				"name": "PopRemoved",
				"type": "event"
			},
			{
				"anonymous": false,
				"inputs": [
					{
						"indexed": true,
						"internalType": "address",
						"name": "rbPoolAddress",
						"type": "address"
					},
					{
						"indexed": true,
						"internalType": "bytes32",
						"name": "poolId",
						"type": "bytes32"
					}
				],
				"name": "RbPoolStakingPoolSet",
				"type": "event"
			},
			{
				"anonymous": false,
				"inputs": [
					{
						"indexed": true,
						"internalType": "uint256",
						"name": "epoch",
						"type": "uint256"
					},
					{
						"indexed": true,
						"internalType": "bytes32",
						"name": "poolId",
						"type": "bytes32"
					},
					{
						"indexed": false,
						"internalType": "uint256",
						"name": "operatorReward",
						"type": "uint256"
					},
					{
						"indexed": false,
						"internalType": "uint256",
						"name": "membersReward",
						"type": "uint256"
					}
				],
				"name": "RewardsPaid",
				"type": "event"
			},
			{
				"anonymous": false,
				"inputs": [
					{
						"indexed": true,
						"internalType": "address",
						"name": "staker",
						"type": "address"
					},
					{
						"indexed": false,
						"internalType": "uint256",
						"name": "amount",
						"type": "uint256"
					}
				],
				"name": "Stake",
				"type": "event"
			},
			{
				"anonymous": false,
				"inputs": [
					{
						"indexed": false,
						"internalType": "bytes32",
						"name": "poolId",
						"type": "bytes32"
					},
					{
						"indexed": false,
						"internalType": "address",
						"name": "operator",
						"type": "address"
					},
					{
						"indexed": false,
						"internalType": "uint32",
						"name": "operatorShare",
						"type": "uint32"
					}
				],
				"name": "StakingPoolCreated",
				"type": "event"
			},
			{
				"anonymous": false,
				"inputs": [
					{
						"indexed": true,
						"internalType": "uint256",
						"name": "epoch",
						"type": "uint256"
					},
					{
						"indexed": true,
						"internalType": "bytes32",
						"name": "poolId",
						"type": "bytes32"
					}
				],
				"name": "StakingPoolEarnedRewardsInEpoch",
				"type": "event"
			},
			{
				"anonymous": false,
				"inputs": [
					{
						"indexed": true,
						"internalType": "address",
						"name": "staker",
						"type": "address"
					},
					{
						"indexed": false,
						"internalType": "uint256",
						"name": "amount",
						"type": "uint256"
					}
				],
				"name": "Unstake",
				"type": "event"
			},
			{
				"inputs": [
					{
						"internalType": "address",
						"name": "target",
						"type": "address"
					}
				],
				"name": "addAuthorizedAddress",
				"outputs": [],
				"stateMutability": "nonpayable",
				"type": "function"
			},
			{
				"inputs": [
					{
						"internalType": "address",
						"name": "addr",
						"type": "address"
					}
				],
				"name": "addPopAddress",
				"outputs": [],
				"stateMutability": "nonpayable",
				"type": "function"
			},
			{
				"inputs": [
					{
						"internalType": "uint256",
						"name": "",
						"type": "uint256"
					}
				],
				"name": "aggregatedStatsByEpoch",
				"outputs": [
					{
						"internalType": "uint256",
						"name": "rewardsAvailable",
						"type": "uint256"
					},
					{
						"internalType": "uint256",
						"name": "numPoolsToFinalize",
						"type": "uint256"
					},
					{
						"internalType": "uint256",
						"name": "totalFeesCollected",
						"type": "uint256"
					},
					{
						"internalType": "uint256",
						"name": "totalWeightedStake",
						"type": "uint256"
					},
					{
						"internalType": "uint256",
						"name": "totalRewardsFinalized",
						"type": "uint256"
					}
				],
				"stateMutability": "view",
				"type": "function"
			},
			{
				"inputs": [
					{
						"internalType": "uint256",
						"name": "",
						"type": "uint256"
					}
				],
				"name": "authorities",
				"outputs": [
					{
						"internalType": "address",
						"name": "",
						"type": "address"
					}
				],
				"stateMutability": "view",
				"type": "function"
			},
			{
				"inputs": [
					{
						"internalType": "address",
						"name": "",
						"type": "address"
					}
				],
				"name": "authorized",
				"outputs": [
					{
						"internalType": "bool",
						"name": "",
						"type": "bool"
					}
				],
				"stateMutability": "view",
				"type": "function"
			},
			{
				"inputs": [],
				"name": "cobbDouglasAlphaDenominator",
				"outputs": [
					{
						"internalType": "uint32",
						"name": "",
						"type": "uint32"
					}
				],
				"stateMutability": "view",
				"type": "function"
			},
			{
				"inputs": [],
				"name": "cobbDouglasAlphaNumerator",
				"outputs": [
					{
						"internalType": "uint32",
						"name": "",
						"type": "uint32"
					}
				],
				"stateMutability": "view",
				"type": "function"
			},
			{
				"inputs": [
					{
						"internalType": "bytes32",
						"name": "poolId",
						"type": "bytes32"
					},
					{
						"internalType": "address",
						"name": "member",
						"type": "address"
					}
				],
				"name": "computeRewardBalanceOfDelegator",
				"outputs": [
					{
						"internalType": "uint256",
						"name": "reward",
						"type": "uint256"
					}
				],
				"stateMutability": "view",
				"type": "function"
			},
			{
				"inputs": [
					{
						"internalType": "bytes32",
						"name": "poolId",
						"type": "bytes32"
					}
				],
				"name": "computeRewardBalanceOfOperator",
				"outputs": [
					{
						"internalType": "uint256",
						"name": "reward",
						"type": "uint256"
					}
				],
				"stateMutability": "view",
				"type": "function"
			},
			{
				"inputs": [
					{
						"internalType": "address",
						"name": "rigoblockPoolAddress",
						"type": "address"
					}
				],
				"name": "createStakingPool",
				"outputs": [
					{
						"internalType": "bytes32",
						"name": "poolId",
						"type": "bytes32"
					}
				],
				"stateMutability": "nonpayable",
				"type": "function"
			},
			{
				"inputs": [],
				"name": "currentEpoch",
				"outputs": [
					{
						"internalType": "uint256",
						"name": "",
						"type": "uint256"
					}
				],
				"stateMutability": "view",
				"type": "function"
			},
			{
				"inputs": [],
				"name": "currentEpochStartTimeInSeconds",
				"outputs": [
					{
						"internalType": "uint256",
						"name": "",
						"type": "uint256"
					}
				],
				"stateMutability": "view",
				"type": "function"
			},
			{
				"inputs": [
					{
						"internalType": "bytes32",
						"name": "poolId",
						"type": "bytes32"
					},
					{
						"internalType": "uint32",
						"name": "newOperatorShare",
						"type": "uint32"
					}
				],
				"name": "decreaseStakingPoolOperatorShare",
				"outputs": [],
				"stateMutability": "nonpayable",
				"type": "function"
			},
			{
				"inputs": [],
				"name": "endEpoch",
				"outputs": [
					{
						"internalType": "uint256",
						"name": "",
						"type": "uint256"
					}
				],
				"stateMutability": "nonpayable",
				"type": "function"
			},
			{
				"inputs": [],
				"name": "epochDurationInSeconds",
				"outputs": [
					{
						"internalType": "uint256",
						"name": "",
						"type": "uint256"
					}
				],
				"stateMutability": "view",
				"type": "function"
			},
			{
				"inputs": [
					{
						"internalType": "bytes32",
						"name": "poolId",
						"type": "bytes32"
					}
				],
				"name": "finalizePool",
				"outputs": [],
				"stateMutability": "nonpayable",
				"type": "function"
			},
			{
				"inputs": [],
				"name": "getAuthorizedAddresses",
				"outputs": [
					{
						"internalType": "address[]",
						"name": "",
						"type": "address[]"
					}
				],
				"stateMutability": "view",
				"type": "function"
			},
			{
				"inputs": [],
				"name": "getCurrentEpochEarliestEndTimeInSeconds",
				"outputs": [
					{
						"internalType": "uint256",
						"name": "",
						"type": "uint256"
					}
				],
				"stateMutability": "view",
				"type": "function"
			},
			{
				"inputs": [],
				"name": "getDragoRegistry",
				"outputs": [
					{
						"internalType": "contract IDragoRegistry",
						"name": "dragoRegistry",
						"type": "address"
					}
				],
				"stateMutability": "view",
				"type": "function"
			},
			{
				"inputs": [
					{
						"internalType": "enum IStructs.StakeStatus",
						"name": "stakeStatus",
						"type": "uint8"
					}
				],
				"name": "getGlobalStakeByStatus",
				"outputs": [
					{
						"components": [
							{
								"internalType": "uint64",
								"name": "currentEpoch",
								"type": "uint64"
							},
							{
								"internalType": "uint96",
								"name": "currentEpochBalance",
								"type": "uint96"
							},
							{
								"internalType": "uint96",
								"name": "nextEpochBalance",
								"type": "uint96"
							}
						],
						"internalType": "struct IStructs.StoredBalance",
						"name": "balance",
						"type": "tuple"
					}
				],
				"stateMutability": "view",
				"type": "function"
			},
			{
				"inputs": [],
				"name": "getGrgContract",
				"outputs": [
					{
						"internalType": "contract RigoTokenFace",
						"name": "grgContract",
						"type": "address"
					}
				],
				"stateMutability": "view",
				"type": "function"
			},
			{
				"inputs": [],
				"name": "getGrgVault",
				"outputs": [
					{
						"internalType": "contract IGrgVault",
						"name": "grgVault",
						"type": "address"
					}
				],
				"stateMutability": "view",
				"type": "function"
			},
			{
				"inputs": [
					{
						"internalType": "address",
						"name": "staker",
						"type": "address"
					},
					{
						"internalType": "enum IStructs.StakeStatus",
						"name": "stakeStatus",
						"type": "uint8"
					}
				],
				"name": "getOwnerStakeByStatus",
				"outputs": [
					{
						"components": [
							{
								"internalType": "uint64",
								"name": "currentEpoch",
								"type": "uint64"
							},
							{
								"internalType": "uint96",
								"name": "currentEpochBalance",
								"type": "uint96"
							},
							{
								"internalType": "uint96",
								"name": "nextEpochBalance",
								"type": "uint96"
							}
						],
						"internalType": "struct IStructs.StoredBalance",
						"name": "balance",
						"type": "tuple"
					}
				],
				"stateMutability": "view",
				"type": "function"
			},
			{
				"inputs": [],
				"name": "getParams",
				"outputs": [
					{
						"internalType": "uint256",
						"name": "_epochDurationInSeconds",
						"type": "uint256"
					},
					{
						"internalType": "uint32",
						"name": "_rewardDelegatedStakeWeight",
						"type": "uint32"
					},
					{
						"internalType": "uint256",
						"name": "_minimumPoolStake",
						"type": "uint256"
					},
					{
						"internalType": "uint32",
						"name": "_cobbDouglasAlphaNumerator",
						"type": "uint32"
					},
					{
						"internalType": "uint32",
						"name": "_cobbDouglasAlphaDenominator",
						"type": "uint32"
					}
				],
				"stateMutability": "view",
				"type": "function"
			},
			{
				"inputs": [
					{
						"internalType": "address",
						"name": "staker",
						"type": "address"
					},
					{
						"internalType": "bytes32",
						"name": "poolId",
						"type": "bytes32"
					}
				],
				"name": "getStakeDelegatedToPoolByOwner",
				"outputs": [
					{
						"components": [
							{
								"internalType": "uint64",
								"name": "currentEpoch",
								"type": "uint64"
							},
							{
								"internalType": "uint96",
								"name": "currentEpochBalance",
								"type": "uint96"
							},
							{
								"internalType": "uint96",
								"name": "nextEpochBalance",
								"type": "uint96"
							}
						],
						"internalType": "struct IStructs.StoredBalance",
						"name": "balance",
						"type": "tuple"
					}
				],
				"stateMutability": "view",
				"type": "function"
			},
			{
				"inputs": [
					{
						"internalType": "bytes32",
						"name": "poolId",
						"type": "bytes32"
					}
				],
				"name": "getStakingPool",
				"outputs": [
					{
						"components": [
							{
								"internalType": "address",
								"name": "operator",
								"type": "address"
							},
							{
								"internalType": "uint32",
								"name": "operatorShare",
								"type": "uint32"
							},
							{
								"internalType": "address",
								"name": "stakingPal",
								"type": "address"
							}
						],
						"internalType": "struct IStructs.Pool",
						"name": "",
						"type": "tuple"
					}
				],
				"stateMutability": "view",
				"type": "function"
			},
			{
				"inputs": [
					{
						"internalType": "bytes32",
						"name": "poolId",
						"type": "bytes32"
					}
				],
				"name": "getStakingPoolStatsThisEpoch",
				"outputs": [
					{
						"components": [
							{
								"internalType": "uint256",
								"name": "feesCollected",
								"type": "uint256"
							},
							{
								"internalType": "uint256",
								"name": "weightedStake",
								"type": "uint256"
							},
							{
								"internalType": "uint256",
								"name": "membersStake",
								"type": "uint256"
							}
						],
						"internalType": "struct IStructs.PoolStats",
						"name": "",
						"type": "tuple"
					}
				],
				"stateMutability": "view",
				"type": "function"
			},
			{
				"inputs": [
					{
						"internalType": "address",
						"name": "staker",
						"type": "address"
					}
				],
				"name": "getTotalStake",
				"outputs": [
					{
						"internalType": "uint256",
						"name": "",
						"type": "uint256"
					}
				],
				"stateMutability": "view",
				"type": "function"
			},
			{
				"inputs": [
					{
						"internalType": "bytes32",
						"name": "poolId",
						"type": "bytes32"
					}
				],
				"name": "getTotalStakeDelegatedToPool",
				"outputs": [
					{
						"components": [
							{
								"internalType": "uint64",
								"name": "currentEpoch",
								"type": "uint64"
							},
							{
								"internalType": "uint96",
								"name": "currentEpochBalance",
								"type": "uint96"
							},
							{
								"internalType": "uint96",
								"name": "nextEpochBalance",
								"type": "uint96"
							}
						],
						"internalType": "struct IStructs.StoredBalance",
						"name": "balance",
						"type": "tuple"
					}
				],
				"stateMutability": "view",
				"type": "function"
			},
			{
				"inputs": [],
				"name": "getWethContract",
				"outputs": [
					{
						"internalType": "contract IEtherToken",
						"name": "wethContract",
						"type": "address"
					}
				],
				"stateMutability": "view",
				"type": "function"
			},
			{
				"inputs": [],
				"name": "init",
				"outputs": [],
				"stateMutability": "nonpayable",
				"type": "function"
			},
			{
				"inputs": [
					{
						"internalType": "bytes32",
						"name": "poolId",
						"type": "bytes32"
					},
					{
						"internalType": "address",
						"name": "rigoblockPoolAccount",
						"type": "address"
					}
				],
				"name": "joinStakingPoolAsRbPoolAccount",
				"outputs": [],
				"stateMutability": "nonpayable",
				"type": "function"
			},
			{
				"inputs": [],
				"name": "lastPoolId",
				"outputs": [
					{
						"internalType": "bytes32",
						"name": "",
						"type": "bytes32"
					}
				],
				"stateMutability": "view",
				"type": "function"
			},
			{
				"inputs": [],
				"name": "minimumPoolStake",
				"outputs": [
					{
						"internalType": "uint256",
						"name": "",
						"type": "uint256"
					}
				],
				"stateMutability": "view",
				"type": "function"
			},
			{
				"inputs": [
					{
						"components": [
							{
								"internalType": "enum IStructs.StakeStatus",
								"name": "status",
								"type": "uint8"
							},
							{
								"internalType": "bytes32",
								"name": "poolId",
								"type": "bytes32"
							}
						],
						"internalType": "struct IStructs.StakeInfo",
						"name": "from",
						"type": "tuple"
					},
					{
						"components": [
							{
								"internalType": "enum IStructs.StakeStatus",
								"name": "status",
								"type": "uint8"
							},
							{
								"internalType": "bytes32",
								"name": "poolId",
								"type": "bytes32"
							}
						],
						"internalType": "struct IStructs.StakeInfo",
						"name": "to",
						"type": "tuple"
					},
					{
						"internalType": "uint256",
						"name": "amount",
						"type": "uint256"
					}
				],
				"name": "moveStake",
				"outputs": [],
				"stateMutability": "nonpayable",
				"type": "function"
			},
			{
				"inputs": [],
				"name": "owner",
				"outputs": [
					{
						"internalType": "address",
						"name": "",
						"type": "address"
					}
				],
				"stateMutability": "view",
				"type": "function"
			},
			{
				"inputs": [
					{
						"internalType": "address",
						"name": "makerAddress",
						"type": "address"
					},
					{
						"internalType": "address",
						"name": "payerAddress",
						"type": "address"
					},
					{
						"internalType": "uint256",
						"name": "protocolFee",
						"type": "uint256"
					}
				],
				"name": "payProtocolFee",
				"outputs": [],
				"stateMutability": "payable",
				"type": "function"
			},
			{
				"inputs": [
					{
						"internalType": "address",
						"name": "",
						"type": "address"
					}
				],
				"name": "poolIdByRbPoolAccount",
				"outputs": [
					{
						"internalType": "bytes32",
						"name": "",
						"type": "bytes32"
					}
				],
				"stateMutability": "view",
				"type": "function"
			},
			{
				"inputs": [
					{
						"internalType": "bytes32",
						"name": "",
						"type": "bytes32"
					},
					{
						"internalType": "uint256",
						"name": "",
						"type": "uint256"
					}
				],
				"name": "poolStatsByEpoch",
				"outputs": [
					{
						"internalType": "uint256",
						"name": "feesCollected",
						"type": "uint256"
					},
					{
						"internalType": "uint256",
						"name": "weightedStake",
						"type": "uint256"
					},
					{
						"internalType": "uint256",
						"name": "membersStake",
						"type": "uint256"
					}
				],
				"stateMutability": "view",
				"type": "function"
			},
			{
				"inputs": [
					{
						"internalType": "address",
						"name": "target",
						"type": "address"
					}
				],
				"name": "removeAuthorizedAddress",
				"outputs": [],
				"stateMutability": "nonpayable",
				"type": "function"
			},
			{
				"inputs": [
					{
						"internalType": "address",
						"name": "target",
						"type": "address"
					},
					{
						"internalType": "uint256",
						"name": "index",
						"type": "uint256"
					}
				],
				"name": "removeAuthorizedAddressAtIndex",
				"outputs": [],
				"stateMutability": "nonpayable",
				"type": "function"
			},
			{
				"inputs": [
					{
						"internalType": "address",
						"name": "addr",
						"type": "address"
					}
				],
				"name": "removePopAddress",
				"outputs": [],
				"stateMutability": "nonpayable",
				"type": "function"
			},
			{
				"inputs": [],
				"name": "rewardDelegatedStakeWeight",
				"outputs": [
					{
						"internalType": "uint32",
						"name": "",
						"type": "uint32"
					}
				],
				"stateMutability": "view",
				"type": "function"
			},
			{
				"inputs": [
					{
						"internalType": "bytes32",
						"name": "",
						"type": "bytes32"
					}
				],
				"name": "rewardsByPoolId",
				"outputs": [
					{
						"internalType": "uint256",
						"name": "",
						"type": "uint256"
					}
				],
				"stateMutability": "view",
				"type": "function"
			},
			{
				"inputs": [
					{
						"internalType": "uint256",
						"name": "_epochDurationInSeconds",
						"type": "uint256"
					},
					{
						"internalType": "uint32",
						"name": "_rewardDelegatedStakeWeight",
						"type": "uint32"
					},
					{
						"internalType": "uint256",
						"name": "_minimumPoolStake",
						"type": "uint256"
					},
					{
						"internalType": "uint32",
						"name": "_cobbDouglasAlphaNumerator",
						"type": "uint32"
					},
					{
						"internalType": "uint32",
						"name": "_cobbDouglasAlphaDenominator",
						"type": "uint32"
					}
				],
				"name": "setParams",
				"outputs": [],
				"stateMutability": "nonpayable",
				"type": "function"
			},
			{
				"inputs": [
					{
						"internalType": "uint256",
						"name": "amount",
						"type": "uint256"
					}
				],
				"name": "stake",
				"outputs": [],
				"stateMutability": "nonpayable",
				"type": "function"
			},
			{
				"inputs": [],
				"name": "stakingContract",
				"outputs": [
					{
						"internalType": "address",
						"name": "",
						"type": "address"
					}
				],
				"stateMutability": "view",
				"type": "function"
			},
			{
				"inputs": [
					{
						"internalType": "address",
						"name": "newOwner",
						"type": "address"
					}
				],
				"name": "transferOwnership",
				"outputs": [],
				"stateMutability": "nonpayable",
				"type": "function"
			},
			{
				"inputs": [
					{
						"internalType": "uint256",
						"name": "amount",
						"type": "uint256"
					}
				],
				"name": "unstake",
				"outputs": [],
				"stateMutability": "nonpayable",
				"type": "function"
			},
			{
				"inputs": [
					{
						"internalType": "address",
						"name": "",
						"type": "address"
					}
				],
				"name": "validPops",
				"outputs": [
					{
						"internalType": "bool",
						"name": "",
						"type": "bool"
					}
				],
				"stateMutability": "view",
				"type": "function"
			},
			{
				"inputs": [],
				"name": "wethReservedForPoolRewards",
				"outputs": [
					{
						"internalType": "uint256",
						"name": "",
						"type": "uint256"
					}
				],
				"stateMutability": "view",
				"type": "function"
			},
			{
				"inputs": [
					{
						"internalType": "bytes32",
						"name": "poolId",
						"type": "bytes32"
					}
				],
				"name": "withdrawDelegatorRewards",
				"outputs": [],
				"stateMutability": "nonpayable",
				"type": "function"
			}
		],
		"devdoc": {
			"kind": "dev",
			"methods": {
				"addAuthorizedAddress(address)": {
					"details": "Authorizes an address.",
					"params": {
						"target": "Address to authorize."
					}
				},
				"addPopAddress(address)": {
					"details": "Adds a new pop address.",
					"params": {
						"addr": "Address of pop contract to add."
					}
				},
				"computeRewardBalanceOfDelegator(bytes32,address)": {
					"details": "Computes the reward balance in ETH of a specific member of a pool.",
					"params": {
						"member": "The member of the pool.",
						"poolId": "Unique id of pool."
					},
					"returns": {
						"reward": "totalReward Balance in ETH."
					}
				},
				"computeRewardBalanceOfOperator(bytes32)": {
					"details": "Computes the reward balance in ETH of the operator of a pool.",
					"params": {
						"poolId": "Unique id of pool."
					},
					"returns": {
						"reward": "totalReward Balance in ETH."
					}
				},
				"createStakingPool(address)": {
					"details": "Create a new staking pool. The sender will be the operator of this pool. Note that an operator must be payable.",
					"params": {
						"rigoblockPoolAddress": "Adds rigoblock pool to the created staking pool for convenience if non-null."
					},
					"returns": {
						"poolId": "The unique pool id generated for this pool."
					}
				},
				"decreaseStakingPoolOperatorShare(bytes32,uint32)": {
					"details": "Decreases the operator share for the given pool (i.e. increases pool rewards for members).",
					"params": {
						"newOperatorShare": "The newly decreased percentage of any rewards owned by the operator.",
						"poolId": "Unique Id of pool."
					}
				},
				"endEpoch()": {
					"details": "Begins a new epoch, preparing the prior one for finalization.      Throws if not enough time has passed between epochs or if the      previous epoch was not fully finalized.",
					"returns": {
						"_0": "numPoolsToFinalize The number of unfinalized pools."
					}
				},
				"finalizePool(bytes32)": {
					"details": "Instantly finalizes a single pool that earned rewards in the previous      epoch, crediting it rewards for members and withdrawing operator's      rewards as WETH. This can be called by internal functions that need      to finalize a pool immediately. Does nothing if the pool is already      finalized or did not earn rewards in the previous epoch.",
					"params": {
						"poolId": "The pool ID to finalize."
					}
				},
				"getAuthorizedAddresses()": {
					"details": "Gets all authorized addresses.",
					"returns": {
						"_0": "Array of authorized addresses."
					}
				},
				"getCurrentEpochEarliestEndTimeInSeconds()": {
					"details": "Returns the earliest end time in seconds of this epoch.      The next epoch can begin once this time is reached.      Epoch period = [startTimeInSeconds..endTimeInSeconds)",
					"returns": {
						"_0": "Time in seconds."
					}
				},
				"getDragoRegistry()": {
					"details": "An overridable way to access the deployed dragoRegistry.      Must be view to allow overrides to access state.",
					"returns": {
						"dragoRegistry": "The dragoRegistry contract."
					}
				},
				"getGlobalStakeByStatus(uint8)": {
					"details": "Gets global stake for a given status.",
					"params": {
						"stakeStatus": "UNDELEGATED or DELEGATED"
					},
					"returns": {
						"balance": "Global stake for given status."
					}
				},
				"getGrgContract()": {
					"details": "An overridable way to access the deployed GRG contract.      Must be view to allow overrides to access state.",
					"returns": {
						"grgContract": "The GRG contract instance."
					}
				},
				"getGrgVault()": {
					"details": "An overridable way to access the deployed grgVault.      Must be view to allow overrides to access state.",
					"returns": {
						"grgVault": "The grgVault contract."
					}
				},
				"getOwnerStakeByStatus(address,uint8)": {
					"details": "Gets an owner's stake balances by status.",
					"params": {
						"stakeStatus": "UNDELEGATED or DELEGATED",
						"staker": "Owner of stake."
					},
					"returns": {
						"balance": "Owner's stake balances for given status."
					}
				},
				"getParams()": {
					"details": "Retrieves all configurable parameter values.",
					"returns": {
						"_cobbDouglasAlphaDenominator": "Denominator for cobb douglas alpha factor.",
						"_cobbDouglasAlphaNumerator": "Numerator for cobb douglas alpha factor.",
						"_epochDurationInSeconds": "Minimum seconds between epochs.",
						"_minimumPoolStake": "Minimum amount of stake required in a pool to collect rewards.",
						"_rewardDelegatedStakeWeight": "How much delegated stake is weighted vs operator stake, in ppm."
					}
				},
				"getStakeDelegatedToPoolByOwner(address,bytes32)": {
					"details": "Returns the stake delegated to a specific staking pool, by a given staker.",
					"params": {
						"poolId": "Unique Id of pool.",
						"staker": "of stake."
					},
					"returns": {
						"balance": "Stake delegated to pool by staker."
					}
				},
				"getStakingPool(bytes32)": {
					"details": "Returns a staking pool",
					"params": {
						"poolId": "Unique id of pool."
					}
				},
				"getStakingPoolStatsThisEpoch(bytes32)": {
					"details": "Get stats on a staking pool in this epoch.",
					"params": {
						"poolId": "Pool Id to query."
					},
					"returns": {
						"_0": "PoolStats struct for pool id."
					}
				},
				"getTotalStake(address)": {
					"details": "Returns the total stake for a given staker.",
					"params": {
						"staker": "of stake."
					},
					"returns": {
						"_0": "Total GRG staked by `staker`."
					}
				},
				"getTotalStakeDelegatedToPool(bytes32)": {
					"details": "Returns the total stake delegated to a specific staking pool,      across all members.",
					"params": {
						"poolId": "Unique Id of pool."
					},
					"returns": {
						"balance": "Total stake delegated to pool."
					}
				},
				"getWethContract()": {
					"details": "An overridable way to access the deployed WETH contract.      Must be view to allow overrides to access state.",
					"returns": {
						"wethContract": "The WETH contract instance."
					}
				},
				"init()": {
					"details": "Initialize storage owned by this contract.      This function should not be called directly.      The StakingProxy contract will call it in `attachStakingContract()`."
				},
				"joinStakingPoolAsRbPoolAccount(bytes32,address)": {
					"details": "Allows caller to join a staking pool as a rigoblock pool account.",
					"params": {
						"poolId": "Unique id of pool.",
						"rigoblockPoolAccount": "Address of subaccount to be added to staking pool."
					}
				},
				"moveStake((uint8,bytes32),(uint8,bytes32),uint256)": {
					"details": "Moves stake between statuses: 'undelegated' or 'delegated'.      Delegated stake can also be moved between pools.      This change comes into effect next epoch.",
					"params": {
						"amount": "Amount of stake to move.",
						"from": "Status to move stake out of.",
						"to": "Status to move stake into."
					}
				},
				"payProtocolFee(address,address,uint256)": {
					"details": "Pays a protocol fee in ETH or WETH.      Only a known 0x exchange can call this method. See      (MixinExchangeManager).",
					"params": {
						"makerAddress": "The address of the order's maker.",
						"payerAddress": "The address of the protocol fee payer.",
						"protocolFee": "The protocol fee amount. This is either passed as ETH or transferred as WETH."
					}
				},
				"removeAuthorizedAddress(address)": {
					"details": "Removes authorizion of an address.",
					"params": {
						"target": "Address to remove authorization from."
					}
				},
				"removeAuthorizedAddressAtIndex(address,uint256)": {
					"details": "Removes authorizion of an address.",
					"params": {
						"index": "Index of target in authorities array.",
						"target": "Address to remove authorization from."
					}
				},
				"removePopAddress(address)": {
					"details": "Removes an existing proof_of_performance address.",
					"params": {
						"addr": "Address of proof_of_performance contract to remove."
					}
				},
				"setParams(uint256,uint32,uint256,uint32,uint32)": {
					"details": "Set all configurable parameters at once.",
					"params": {
						"_cobbDouglasAlphaDenominator": "Denominator for cobb douglas alpha factor.",
						"_cobbDouglasAlphaNumerator": "Numerator for cobb douglas alpha factor.",
						"_epochDurationInSeconds": "Minimum seconds between epochs.",
						"_minimumPoolStake": "Minimum amount of stake required in a pool to collect rewards.",
						"_rewardDelegatedStakeWeight": "How much delegated stake is weighted vs operator stake, in ppm."
					}
				},
				"stake(uint256)": {
					"details": "Stake GRG tokens. Tokens are deposited into the GRG Vault.      Unstake to retrieve the GRG. Stake is in the 'Active' status.",
					"params": {
						"amount": "Amount of GRG to stake."
					}
				},
				"transferOwnership(address)": {
					"details": "Change the owner of this contract.",
					"params": {
						"newOwner": "New owner address."
					}
				},
				"unstake(uint256)": {
					"details": "Unstake. Tokens are withdrawn from the GRG Vault and returned to      the staker. Stake must be in the 'undelegated' status in both the      current and next epoch in order to be unstaked.",
					"params": {
						"amount": "Amount of GRG to unstake."
					}
				},
				"withdrawDelegatorRewards(bytes32)": {
					"details": "Withdraws the caller's WETH rewards that have accumulated      until the last epoch.",
					"params": {
						"poolId": "Unique id of pool."
					}
				}
			},
			"version": 1
		},
		"evm": {
			"bytecode": {
				"linkReferences": {},
				"object": "0x608060405234801561001057600080fd5b50600080546001600160a01b031916331790556163ed80620000336000396000f3fe60806040526004361061033f5760003560e01c80639ad26744116101b0578063c18c9141116100ec578063e8eeb3f811610095578063ef4ba6801161006f578063ef4ba6801461090a578063f252b7a11461091f578063f2fde38b1461093f578063ff691b111461095f5761033f565b8063e8eeb3f8146108c0578063e907f003146108d5578063ee99205c146108f55761033f565b8063e0ee036e116100c6578063e0ee036e14610876578063e1c7392a1461088b578063e804d0a4146108a05761033f565b8063c18c91411461081f578063d39de6e91461083f578063e0822db7146108615761033f565b8063b053152411610159578063b652b41f11610133578063b652b41f146107aa578063b9181611146107bf578063bb7ef7e0146107df578063be111af4146107ff5761033f565b8063b053152414610760578063b2baa33e14610775578063b510879f1461078a5761033f565b8063a3b4a3271161018a578063a3b4a32714610718578063a657e5791461072b578063a694fc3a146107405761033f565b80639ad26744146106c35780639c3ccc82146106e3578063a26171e2146107035761033f565b8063494503d41161027f5780635e615a6b11610228578063766718081161020257806376671808146106575780637fa140c71461066c578063816667961461068c5780638da5cb5b146106ae5761033f565b80635e615a6b146105fc578063634038011461062257806370712939146106375761033f565b8063587da02311610259578063587da023146105a757806358f6c7e3146105bc5780635d91121d146105dc5761033f565b8063494503d41461052d5780634bcc3f671461054d578063540c2d531461057a5761033f565b806336d7dd8e116102ec5780633e4ad732116102c65780633e4ad7321461049357806342f1181e146104c057806344a6958b146104e057806346b97959146105005761033f565b806336d7dd8e1461042057806338229d93146104405780633c277fc5146104715761033f565b80631f81eb801161031d5780631f81eb80146103b15780632a94c279146103d15780632e17de78146104005761033f565b80630b9663db146103445780631a67a0a01461036f5780631e7ff8f614610391575b600080fd5b34801561035057600080fd5b5061035961097f565b60405161036691906160d9565b60405180910390f35b34801561037b57600080fd5b5061038f61038a366004615e6e565b610aca565b005b34801561039d57600080fd5b506103596103ac366004615cba565b610ca5565b3480156103bd57600080fd5b5061038f6103cc366004615cba565b610d3f565b3480156103dd57600080fd5b506103f16103ec366004615e9d565b610e09565b604051610366939291906162d5565b34801561040c57600080fd5b5061038f61041b366004615e56565b610e35565b34801561042c57600080fd5b5061038f61043b366004615cba565b610fea565b34801561044c57600080fd5b5061046061045b366004615e56565b6110b0565b604051610366959493929190616306565b34801561047d57600080fd5b506104866110df565b6040516103669190615ffc565b34801561049f57600080fd5b506104b36104ae366004615e56565b6110f7565b6040516103669190616296565b3480156104cc57600080fd5b5061038f6104db366004615cba565b611116565b3480156104ec57600080fd5b506104b36104fb366004615d5d565b61112a565b34801561050c57600080fd5b5061052061051b366004615e56565b611189565b6040516103669190616235565b34801561053957600080fd5b50610486610548366004615e56565b6111d4565b34801561055957600080fd5b5061056d610568366004615e56565b61120b565b6040516103669190616256565b34801561058657600080fd5b5061059a610595366004615cba565b611283565b60405161036691906160ce565b3480156105b357600080fd5b50610359611298565b3480156105c857600080fd5b5061038f6105d7366004615efa565b61129e565b3480156105e857600080fd5b5061038f6105f7366004615ebe565b61149b565b34801561060857600080fd5b50610611611564565b604051610366959493929190616329565b34801561062e57600080fd5b5061035961158d565b34801561064357600080fd5b5061038f610652366004615cba565b611593565b34801561066357600080fd5b50610359611648565b34801561067857600080fd5b50610359610687366004615cba565b61164e565b34801561069857600080fd5b506106a1611660565b604051610366919061636d565b3480156106ba57600080fd5b5061048661166c565b3480156106cf57600080fd5b5061038f6106de366004615d32565b611688565b3480156106ef57600080fd5b5061038f6106fe366004615fa6565b61169a565b34801561070f57600080fd5b50610359611714565b61038f610726366004615cf2565b61171a565b34801561073757600080fd5b50610359611949565b34801561074c57600080fd5b5061038f61075b366004615e56565b61194f565b34801561076c57600080fd5b50610359611a64565b34801561078157600080fd5b50610359611a6a565b34801561079657600080fd5b5061038f6107a5366004615e56565b611a88565b3480156107b657600080fd5b50610486611a92565b3480156107cb57600080fd5b5061059a6107da366004615cba565b611aaa565b3480156107eb57600080fd5b506103596107fa366004615e56565b611abf565b34801561080b57600080fd5b5061035961081a366004615cba565b611b5a565b34801561082b57600080fd5b5061035961083a366004615e56565b611dc0565b34801561084b57600080fd5b50610854611dd2565b6040516103669190616074565b34801561086d57600080fd5b50610486611e41565b34801561088257600080fd5b506106a1611e59565b34801561089757600080fd5b5061038f611e65565b3480156108ac57600080fd5b506104b36108bb366004615ee0565b611e7f565b3480156108cc57600080fd5b506106a1611fc9565b3480156108e157600080fd5b506103596108f0366004615e6e565b611fdd565b34801561090157600080fd5b5061048661208a565b34801561091657600080fd5b506104866120a6565b34801561092b57600080fd5b506104b361093a366004615d32565b6120be565b34801561094b57600080fd5b5061038f61095a366004615cba565b6120ff565b34801561096b57600080fd5b5061038f61097a366004615e56565b6121a2565b600c54600090816109918260016123c7565b60008181526016602052604090206001015490915080156109be576109be6109b983836123e6565b612459565b6109c6612461565b6109ce6124d3565b6000848152601660205260409020556109e5615b41565b50600083815260166020908152604091829020825160a08101845281548082526001830154938201849052600283015482860181905260038401546060840181905260049094015460808401529451919488947fbb4a26fa0ace13ee4da343896c20eaa44a618fb9071fdd8c2e2c960a4583189d94610a6794919392916162eb565b60405180910390a2610a77612571565b6020810151610abe57805160405185917fb463d19ecf455be65365092cf8e1db6934a0334cf8cd532ddf9964d01f36b5b291610ab591600091616114565b60405180910390a25b60200151935050505090565b600080610ad5611a92565b6040517fc277f1ac00000000000000000000000000000000000000000000000000000000815273ffffffffffffffffffffffffffffffffffffffff919091169063c277f1ac90610b299087906004016160d9565b60006040518083038186803b158015610b4157600080fd5b505afa158015610b55573d6000803e3d6000fd5b505050506040513d6000823e601f3d9081017fffffffffffffffffffffffffffffffffffffffffffffffffffffffffffffffe0168201604052610b9b9190810190615d91565b50509350505091506000811415610be7576040517f08c379a0000000000000000000000000000000000000000000000000000000008152600401610bde90616122565b60405180910390fd5b8273ffffffffffffffffffffffffffffffffffffffff168273ffffffffffffffffffffffffffffffffffffffff1614610c4c576040517f08c379a0000000000000000000000000000000000000000000000000000000008152600401610bde90616159565b73ffffffffffffffffffffffffffffffffffffffff8083166000908152600960205260408082208790555186928616917fe8b9f7ee7a4480d45b60e98f7b2090dd82e2353b8557a6ee2dd2d5ee9196bac291a350505050565b6000610caf611e41565b73ffffffffffffffffffffffffffffffffffffffff166370a08231836040518263ffffffff1660e01b8152600401610ce79190615ffc565b60206040518083038186803b158015610cff57600080fd5b505afa158015610d13573d6000803e3d6000fd5b505050506040513d601f19601f82011682018060405250810190610d379190615f37565b90505b919050565b610d476125ae565b73ffffffffffffffffffffffffffffffffffffffff811660009081526010602052604090205460ff1615610d8357610d836109b96000836125d1565b73ffffffffffffffffffffffffffffffffffffffff811660008181526010602090815260409182902080547fffffffffffffffffffffffffffffffffffffffffffffffffffffffffffffff00166001179055815192835290517f5738ee3c8e8fe8b0b9c4c21b16fdca42ec02e271237dfeabbf3b5af1584d732b9281900390910190a150565b601560209081526000928352604080842090915290825290208054600182015460029092015490919083565b33610e3e615b70565b73ffffffffffffffffffffffffffffffffffffffff821660009081527f05b8ccbb9d4d8fb16ea74ce3c29a41f1b461fbdaff4714a0d9a8eb05499746bc60205260409020610e8b90612679565b90506000610ebd82602001516bffffffffffffffffffffffff1683604001516bffffffffffffffffffffffff1661271f565b905080841115610ed457610ed46109b98583612735565b73ffffffffffffffffffffffffffffffffffffffff831660009081527f05b8ccbb9d4d8fb16ea74ce3c29a41f1b461fbdaff4714a0d9a8eb05499746bc60205260409020610f2290856127a8565b610f2a611e41565b73ffffffffffffffffffffffffffffffffffffffff16639470b0bd84866040518363ffffffff1660e01b8152600401610f6492919061604e565b600060405180830381600087803b158015610f7e57600080fd5b505af1158015610f92573d6000803e3d6000fd5b505050508273ffffffffffffffffffffffffffffffffffffffff167f85082129d87b2fe11527cb1b3b7a520aeb5aa6913f88a3d8757fe40d1db02fdd85604051610fdc91906160d9565b60405180910390a250505050565b610ff26125ae565b73ffffffffffffffffffffffffffffffffffffffff811660009081526010602052604090205460ff1661102d5761102d6109b96001836125d1565b73ffffffffffffffffffffffffffffffffffffffff811660008181526010602090815260409182902080547fffffffffffffffffffffffffffffffffffffffffffffffffffffffffffffff00169055815192835290517f9bf55462cb5fa187f725d06de0a70bc01c4e40695570bdc25ad116f9be46bda79281900390910190a150565b601660205260009081526040902080546001820154600283015460038401546004909401549293919290919085565b73c02aaa39b223fe8d0a0e5c4f27ead9083c756cc290565b6110ff615b70565b6000828152600760205260409020610d3790612679565b61111e612829565b61112781612870565b50565b611132615b70565b6111806005600084600181111561114557fe5b60ff1681526020808201929092526040908101600090812073ffffffffffffffffffffffffffffffffffffffff881682529092529020612679565b90505b92915050565b611191615b90565b506000908152601560209081526040808320600c548452825291829020825160608101845281548152600182015492810192909252600201549181019190915290565b600281815481106111e457600080fd5b60009182526020909120015473ffffffffffffffffffffffffffffffffffffffff16905081565b611213615b70565b506000908152600a60209081526040918290208251606081018452815473ffffffffffffffffffffffffffffffffffffffff80821683527401000000000000000000000000000000000000000090910463ffffffff16938201939093526001909101549091169181019190915290565b60106020526000908152604090205460ff1681565b600d5481565b33816112aa5750611496565b60006112b96020860186615ee0565b60018111156112c457fe5b1480156112e8575060006112db6020850185615ee0565b60018111156112e657fe5b145b156112f35750611496565b60016113026020860186615ee0565b600181111561130d57fe5b141561132257611322846020013582846129a1565b60016113316020850185615ee0565b600181111561133c57fe5b14156113515761135183602001358284612a3a565b60006005816113636020880188615ee0565b600181111561136e57fe5b60ff1681526020808201929092526040908101600090812073ffffffffffffffffffffffffffffffffffffffff86168252835290812092509060059082906113b890880188615ee0565b60018111156113c357fe5b60ff1681526020808201929092526040908101600090812073ffffffffffffffffffffffffffffffffffffffff8716825290925290209050611406828286612ad3565b60208086013590870180359073ffffffffffffffffffffffffffffffffffffffff8616907f7d3ad1dcf03b9027064d1d9a474a69e0cecc31324c541d3eb9b5e6fa2f106c8d908890611458908c615ee0565b600181111561146357fe5b61147060208c018c615ee0565b600181111561147b57fe5b60405161148a93929190616354565b60405180910390a45050505b505050565b816114a581612bc0565b6000838152600a602052604090205474010000000000000000000000000000000000000000900463ffffffff166114dd848285612bf9565b6000848152600a60205260409081902080547fffffffffffffffff00000000ffffffffffffffffffffffffffffffffffffffff167401000000000000000000000000000000000000000063ffffffff8716021790555184907f8ea2a7a959bd25f226b7b0a4393613f7fdcaa8404e8bad96aa52dc1c1459016790610fdc908490879061637e565b601154601254601354601454929363ffffffff9283169391928281169264010000000090041690565b60115481565b61159b612829565b73ffffffffffffffffffffffffffffffffffffffff811660009081526001602052604090205460ff166115d4576115d46109b982612c41565b60005b600254811015611644578173ffffffffffffffffffffffffffffffffffffffff166002828154811061160557fe5b60009182526020909120015473ffffffffffffffffffffffffffffffffffffffff16141561163c576116378282612cc4565b611644565b6001016115d7565b5050565b600c5481565b60096020526000908152604090205481565b60145463ffffffff1681565b60005473ffffffffffffffffffffffffffffffffffffffff1681565b611690612829565b6116448282612cc4565b6116a26125ae565b6116af8585858585612f3f565b3073ffffffffffffffffffffffffffffffffffffffff1663c6f3a4276040518163ffffffff1660e01b815260040160006040518083038186803b1580156116f557600080fd5b505afa158015611709573d6000803e3d6000fd5b505050505050505050565b60135481565b3360009081526010602052604090205460ff1661173d5761173d6109b933613015565b61174681613098565b34611817576117536110df565b73ffffffffffffffffffffffffffffffffffffffff166323b872dd8330846040518463ffffffff1660e01b815260040161178f9392919061601d565b602060405180830381600087803b1580156117a957600080fd5b505af11580156117bd573d6000803e3d6000fd5b505050506040513d601f19601f820116820180604052508101906117e19190615e36565b611817576040517f08c379a0000000000000000000000000000000000000000000000000000000008152600401610bde906161fe565b73ffffffffffffffffffffffffffffffffffffffff8316600090815260096020526040902054806118485750611496565b6000611853826110f7565b602001516bffffffffffffffffffffffff169050601354811015611878575050611496565b600c5460008381526015602090815260408083208484528252808320601690925290912081548061191b576000806118b088886130b9565b6002870182905560018701819055600386015491935091506118d29082613139565b60038501556001808501546118e691613139565b6001850155604051889087907f14b098103235344975b17508c2391721cc9ac3f3fa2b56c7ff46f8480dfd074f90600090a350505b6119258188613139565b835560028201546119369088613139565b8260020181905550505050505050505050565b60085481565b33611958611e41565b73ffffffffffffffffffffffffffffffffffffffff166315cc36f282846040518363ffffffff1660e01b815260040161199292919061604e565b600060405180830381600087803b1580156119ac57600080fd5b505af11580156119c0573d6000803e3d6000fd5b5050505073ffffffffffffffffffffffffffffffffffffffff811660009081527f05b8ccbb9d4d8fb16ea74ce3c29a41f1b461fbdaff4714a0d9a8eb05499746bc60205260409020611a129083613155565b8073ffffffffffffffffffffffffffffffffffffffff167febedb8b3c678666e7f36970bc8f57abf6d8fa2e828c0da91ea5b75bf68ed101a83604051611a5891906160d9565b60405180910390a25050565b60175481565b6000611a83601154600d5461313990919063ffffffff16565b905090565b61112781336131b9565b73de6445484a8dcd9bf35fc95eb4e3990cc358822e90565b60016020526000908152604090205460ff1681565b6000611ac9615b70565b506000828152600a602090815260408083208151606081018352815473ffffffffffffffffffffffffffffffffffffffff80821683527401000000000000000000000000000000000000000090910463ffffffff1694820194909452600190910154909216908201529080611b3d85613391565b91509150611b50836020015183836133a7565b5095945050505050565b6000806000611b67611a92565b73ffffffffffffffffffffffffffffffffffffffff1663b72e717d856040518263ffffffff1660e01b8152600401611b9f9190615ffc565b60006040518083038186803b158015611bb757600080fd5b505afa158015611bcb573d6000803e3d6000fd5b505050506040513d6000823e601f3d9081017fffffffffffffffffffffffffffffffffffffffffffffffffffffffffffffffe0168201604052611c119190810190615f4f565b50945050505091506000821415611c54576040517f08c379a0000000000000000000000000000000000000000000000000000000008152600401610bde90616190565b80600073ffffffffffffffffffffffffffffffffffffffff82163314611c775750335b620aae60611c84856133e2565b8460001b9550611c9886620f424083612bf9565b611ca0615b70565b506040805160608101825273ffffffffffffffffffffffffffffffffffffffff808616825263ffffffff808516602080850191825287841685870190815260008d8152600a9092529086902085518154935190941674010000000000000000000000000000000000000000027fffffffffffffffff00000000ffffffffffffffffffffffffffffffffffffffff9486167fffffffffffffffffffffffff00000000000000000000000000000000000000009485161794909416939093178355516001909201805492909316911617905590517fcec6fc86ea644053f6edff1160dfe3fa5c61e7a5ef9f873f145bb03a0bd319e790611da3908990879086906160e2565b60405180910390a1611db58789610aca565b505050505050919050565b600b6020526000908152604090205481565b60606002805480602002602001604051908101604052809291908181526020018280548015611e3757602002820191906000526020600020905b815473ffffffffffffffffffffffffffffffffffffffff168152600190910190602001808311611e0c575b5050505050905090565b73ba7f8b5fb1b19c1211c5d49550fcd149177a5eaf90565b60125463ffffffff1681565b611e6d6125ae565b611e7561341a565b611e7d61342d565b565b611e87615b70565b60016000526004602052611eba7fabd6e7cb50984ff9c2f3e18a2660c3353dadf4e3291deeb275dae2cd1e44fe05612679565b90506000826001811115611eca57fe5b1415610d3a576000611eda611e41565b73ffffffffffffffffffffffffffffffffffffffff16636b6df5aa6040518163ffffffff1660e01b815260040160206040518083038186803b158015611f1f57600080fd5b505afa158015611f33573d6000803e3d6000fd5b505050506040513d601f19601f82011682018060405250810190611f579190615f37565b9050611f86611f8183602001516bffffffffffffffffffffffff16836123c790919063ffffffff16565b613458565b6bffffffffffffffffffffffff90811660208401526040830151611fb091611f81918491166123c7565b6bffffffffffffffffffffffff16604083015250919050565b601454640100000000900463ffffffff1681565b6000611fe7615b70565b506000838152600a602090815260408083208151606081018352815473ffffffffffffffffffffffffffffffffffffffff80821683527401000000000000000000000000000000000000000090910463ffffffff169482019490945260019091015490921690820152908061205b86613391565b915091506000612070846020015184846133a7565b91505061207f8787838561347c565b979650505050505050565b60035473ffffffffffffffffffffffffffffffffffffffff1681565b734fbb350052bca5417566f188eb2ebce5b19bc96490565b6120c6615b70565b73ffffffffffffffffffffffffffffffffffffffff83166000908152600660209081526040808320858452909152902061118090612679565b612107612829565b73ffffffffffffffffffffffffffffffffffffffff81166121325761212d6109b96135bd565b611127565b600080547fffffffffffffffffffffffff00000000000000000000000000000000000000001673ffffffffffffffffffffffffffffffffffffffff83169081178255604051909133917f8be0079c531659141344cd1fd0a4f28419497f9722a3daafe3b4186f6b6457e09190a350565b6121ab336135f4565b156121b8576121b86125ae565b600c5460006121c88260016123c7565b90506121d2615b41565b50600081815260166020908152604091829020825160a0810184528154815260018201549281018390526002820154938101939093526003810154606084015260040154608083015261222757505050611127565b61222f615b90565b506000848152601560209081526040808320858452825291829020825160608101845281548082526001830154938201939093526002909101549281019290925261227d5750505050611127565b60008581526015602090815260408083208684529091528120818155600181018290556002018190556122b082846135fa565b90506000806122c4888486604001516138c7565b9150915087877ff1116b309178aa62dcb6bf8c3b8bc2321724907c7ebf52192d14c8ce3aa9194c84846040516122fb929190616114565b60405180910390a3600061230f8383613139565b60808701519091506123219082613139565b6080870181905260008881526016602090815260409091206004019190915586015161234e9060016123c7565b602080880182815260008a8152601690925260409091206001019190915551611709576080860151865188917fb463d19ecf455be65365092cf8e1db6934a0334cf8cd532ddf9964d01f36b5b2916123a690826123c7565b6040516123b4929190616114565b60405180910390a2505050505050505050565b6000828211156123e0576123e06109b960028585613a2a565b50900390565b604080516024810184905260448082018490528251808303909101815260649091019091526020810180517bffffffffffffffffffffffffffffffffffffffffffffffffffffffff167f614b800a0000000000000000000000000000000000000000000000000000000017905292915050565b805160208201fd5b478015611127576124706110df565b73ffffffffffffffffffffffffffffffffffffffff1663d0e30db0826040518263ffffffff1660e01b81526004016000604051808303818588803b1580156124b757600080fd5b505af11580156124cb573d6000803e3d6000fd5b505050505050565b6000611a836017546124e36110df565b73ffffffffffffffffffffffffffffffffffffffff166370a08231306040518263ffffffff1660e01b815260040161251b9190615ffc565b60206040518083038186803b15801561253357600080fd5b505afa158015612547573d6000803e3d6000fd5b505050506040513d601f19601f8201168201806040525081019061256b9190615f37565b906123c7565b42600061257c611a6a565b905081811115612593576125936109b98284613ac6565b600c546000906125a4906001613139565b600c555050600d55565b3360009081526001602052604090205460ff16611e7d57611e7d6109b933613b39565b606063b9588e4360e01b8383604051602401808360018111156125f057fe5b815273ffffffffffffffffffffffffffffffffffffffff90921660208084019190915260408051808503830181529381019052820180517bffffffffffffffffffffffffffffffffffffffffffffffffffffffff167fffffffff000000000000000000000000000000000000000000000000000000009095169490941790935295945050505050565b612681615b70565b5060408051606081018252825467ffffffffffffffff81168083526bffffffffffffffffffffffff680100000000000000008304811660208501527401000000000000000000000000000000000000000090920490911692820192909252600c549091811115612719576126f481613bbc565b67ffffffffffffffff16825260408201516bffffffffffffffffffffffff1660208301525b50919050565b600081831061272e5781611180565b5090919050565b604080516024810184905260448082018490528251808303909101815260649091019091526020810180517bffffffffffffffffffffffffffffffffffffffffffffffffffffffff167f84c8b7c90000000000000000000000000000000000000000000000000000000017905292915050565b6127b0615b70565b6127b983612679565b90506127e3611f818383604001516bffffffffffffffffffffffff166123c790919063ffffffff16565b6bffffffffffffffffffffffff9081166040830152602082015161280c91611f819116846123c7565b6bffffffffffffffffffffffff1660208201526114968382613bdc565b60005473ffffffffffffffffffffffffffffffffffffffff163314611e7d57600054611e7d906109b990339073ffffffffffffffffffffffffffffffffffffffff16613c96565b73ffffffffffffffffffffffffffffffffffffffff8116612896576128966109b9613d22565b73ffffffffffffffffffffffffffffffffffffffff811660009081526001602052604090205460ff16156128d0576128d06109b982613d59565b73ffffffffffffffffffffffffffffffffffffffff8116600081815260016020819052604080832080547fffffffffffffffffffffffffffffffffffffffffffffffffffffffffffffff00168317905560028054928301815583527f405787fa12a823e0f2b7631cc41b3ba8828b3321ca811111fa75cd3aa3bb5ace90910180547fffffffffffffffffffffffff00000000000000000000000000000000000000001684179055513392917f3147867c59d17e8fa9d522465651d44aae0a9e38f902f3475b97e58072f0ed4c91a350565b6129aa83613ddc565b6129b483836131b9565b73ffffffffffffffffffffffffffffffffffffffff8216600090815260066020908152604080832086845290915290206129ee9082613e13565b6000838152600760205260409020612a069082613e13565b600160005260046020526114967fabd6e7cb50984ff9c2f3e18a2660c3353dadf4e3291deeb275dae2cd1e44fe0582613e13565b612a4383613ddc565b612a4d83836131b9565b73ffffffffffffffffffffffffffffffffffffffff821660009081526006602090815260408083208684529091529020612a879082613e6b565b6000838152600760205260409020612a9f9082613e6b565b600160005260046020526114967fabd6e7cb50984ff9c2f3e18a2660c3353dadf4e3291deeb275dae2cd1e44fe0582613e6b565b612add8383613ea6565b15612ae757611496565b612aef615b70565b612af884612679565b9050612b02615b70565b612b0b84612679565b905081604001516bffffffffffffffffffffffff16831115612b4657612b466109b98484604001516bffffffffffffffffffffffff16612735565b6040820151612b6790611f81906bffffffffffffffffffffffff16856123c7565b6bffffffffffffffffffffffff908116604080850191909152820151612b9291611f81911685613139565b6bffffffffffffffffffffffff166040820152612baf8583613bdc565b612bb98482613bdc565b5050505050565b6000818152600a602052604090205473ffffffffffffffffffffffffffffffffffffffff16338114611644576116446109b93384613ead565b620f424063ffffffff82161115612c1e57612c196109b960008584613f35565b611496565b8163ffffffff168163ffffffff161115611496576114966109b960018584613f35565b6040805173ffffffffffffffffffffffffffffffffffffffff83166024808301919091528251808303909101815260449091019091526020810180517bffffffffffffffffffffffffffffffffffffffffffffffffffffffff167feb5108a200000000000000000000000000000000000000000000000000000000179052919050565b73ffffffffffffffffffffffffffffffffffffffff821660009081526001602052604090205460ff16612cfd57612cfd6109b983612c41565b6002548110612d1857612d186109b982600280549050613fd7565b8173ffffffffffffffffffffffffffffffffffffffff1660028281548110612d3c57fe5b60009182526020909120015473ffffffffffffffffffffffffffffffffffffffff1614612d9e57612d9e6109b960028381548110612d7657fe5b60009182526020909120015473ffffffffffffffffffffffffffffffffffffffff168461404a565b73ffffffffffffffffffffffffffffffffffffffff8216600090815260016020526040902080547fffffffffffffffffffffffffffffffffffffffffffffffffffffffffffffff00169055600280547fffffffffffffffffffffffffffffffffffffffffffffffffffffffffffffffff8101908110612e1957fe5b6000918252602090912001546002805473ffffffffffffffffffffffffffffffffffffffff9092169183908110612e4c57fe5b9060005260206000200160006101000a81548173ffffffffffffffffffffffffffffffffffffffff021916908373ffffffffffffffffffffffffffffffffffffffff1602179055506002805480612e9f57fe5b60008281526020812082017fffffffffffffffffffffffffffffffffffffffffffffffffffffffffffffffff90810180547fffffffffffffffffffffffff0000000000000000000000000000000000000000169055909101909155604051339173ffffffffffffffffffffffffffffffffffffffff8516917f1f32c1b084e2de0713b8fb16bd46bb9df710a3dbeae2f3ca93af46e016dcc6b09190a35050565b60118590556012805463ffffffff8087167fffffffffffffffffffffffffffffffffffffffffffffffffffffffff00000000928316811790935560138690556014805485831664010000000081027fffffffffffffffffffffffffffffffffffffffffffffffff00000000ffffffff9489169290951682179390931693909317905560408051898152602081019490945283810187905260608401929092526080830152517f613157dbb0e920deab8ad6ddd3805e87cbf57344b9fe780f1764790ec78975429181900360a00190a15050505050565b6040805173ffffffffffffffffffffffffffffffffffffffff83166024808301919091528251808303909101815260449091019091526020810180517bffffffffffffffffffffffffffffffffffffffffffffffffffffffff167fb56d2df000000000000000000000000000000000000000000000000000000000179052919050565b8034141580156130a757503415155b15611127576111276109b982346140d6565b6000828152600a6020526040812054819081906130ec9073ffffffffffffffffffffffffffffffffffffffff16866120be565b602001516bffffffffffffffffffffffff16905061310a84826123c7565b60125490935061312f906131289063ffffffff16620f424086614149565b8290613139565b9150509250929050565b600082820183811015611180576111806109b960008686613a2a565b61315d615b70565b61316683612679565b9050613190611f818383604001516bffffffffffffffffffffffff1661313990919063ffffffff16565b6bffffffffffffffffffffffff9081166040830152602082015161280c91611f81911684613139565b6131c28261415f565b60006131d1838360008061347c565b73ffffffffffffffffffffffffffffffffffffffff83166000908152600660209081526040808320878452909152902090915061320d90612679565b73ffffffffffffffffffffffffffffffffffffffff8381166000908152600660209081526040808320888452825291829020845181549286015195909301517fffffffffffffffffffffffffffffffffffffffffffffffff000000000000000090921667ffffffffffffffff909316929092177fffffffffffffffffffffffff000000000000000000000000ffffffffffffffff16680100000000000000006bffffffffffffffffffffffff95861602179092167401000000000000000000000000000000000000000093909216929092021790558015613388576132f28382614168565b6132fa6110df565b73ffffffffffffffffffffffffffffffffffffffff1663a9059cbb83836040518363ffffffff1660e01b815260040161333492919061604e565b602060405180830381600087803b15801561334e57600080fd5b505af1158015613362573d6000803e3d6000fd5b505050506040513d601f19601f820116820180604052508101906133869190615e36565b505b611496836141a4565b60008061339d836141b1565b9094909350915050565b600080826133b7578391506133da565b6133cb63ffffffff8616620f4240866141bd565b91506133d784836123c7565b90505b935093915050565b6000818152600a602052604090205473ffffffffffffffffffffffffffffffffffffffff1615611127576111276109b98260006141e1565b613422614255565b42600d556001600c55565b61343561426a565b62127500620dbba068056bc75e2d6310000060026003612bb98585858585612f3f565b806bffffffffffffffffffffffff81168114610d3a57610d3a6109b96002846142cf565b600c5460009061348a615b70565b5073ffffffffffffffffffffffffffffffffffffffff851660009081526006602090815260408083208984528252918290208251606081018452905467ffffffffffffffff81168083526bffffffffffffffffffffffff680100000000000000008304811694840194909452740100000000000000000000000000000000000000009091049092169281019290925282141561352b576000925050506135b5565b61353781838787614361565b81519093506000906135549067ffffffffffffffff166001613139565b905061358c6135858984602001516bffffffffffffffffffffffff16856000015167ffffffffffffffff16856143de565b8590613139565b93506135af6135858984604001516bffffffffffffffffffffffff1684876143de565b93505050505b949350505050565b60408051808201909152600481527fe69edc3e00000000000000000000000000000000000000000000000000000000602082015290565b3b151590565b815160009061360857611183565b60006136126120a6565b73ffffffffffffffffffffffffffffffffffffffff1663075461726040518163ffffffff1660e01b815260040160206040518083038186803b15801561365757600080fd5b505afa15801561366b573d6000803e3d6000fd5b505050506040513d601f19601f8201168201806040525081019061368f9190615cd6565b905060008173ffffffffffffffffffffffffffffffffffffffff1663e70eadc06040518163ffffffff1660e01b815260040160206040518083038186803b1580156136d957600080fd5b505afa1580156136ed573d6000803e3d6000fd5b505050506040513d601f19601f820116820180604052508101906137119190615cd6565b6040517ff36766c100000000000000000000000000000000000000000000000000000000815273ffffffffffffffffffffffffffffffffffffffff919091169063f36766c190613766906001906004016160d9565b60206040518083038186803b15801561377e57600080fd5b505afa158015613792573d6000803e3d6000fd5b505050506040513d601f19601f820116820180604052508101906137b69190615f37565b905060008273ffffffffffffffffffffffffffffffffffffffff1663ef78d4fd6040518163ffffffff1660e01b815260040160206040518083038186803b15801561380057600080fd5b505afa158015613814573d6000803e3d6000fd5b505050506040513d601f19601f820116820180604052508101906138389190615f37565b9050600061384660016110f7565b6020908101519088015160608801516014546bffffffffffffffffffffffff90931693506301e13380858502049261389792849288928492919063ffffffff80821691640100000000900416614477565b608088015188519197506000916138ad916123c7565b9050868110156138bb578096505b50505050505092915050565b6000806138d2615b70565b506000858152600a60209081526040918290208251606081018452815473ffffffffffffffffffffffffffffffffffffffff80821683527401000000000000000000000000000000000000000090910463ffffffff16938201849052600190920154909116928101929092526139499086866133a7565b90935091508215613a065761395c6110df565b81516040517fa9059cbb00000000000000000000000000000000000000000000000000000000815273ffffffffffffffffffffffffffffffffffffffff929092169163a9059cbb916139b291879060040161604e565b602060405180830381600087803b1580156139cc57600080fd5b505af11580156139e0573d6000803e3d6000fd5b505050506040513d601f19601f82011682018060405250810190613a049190615e36565b505b8115613a2157613a168683614539565b613a2186838661456e565b50935093915050565b606063e946c1bb60e01b84848460405160240180846003811115613a4a57fe5b81526020018381526020018281526020019350505050604051602081830303815290604052907bffffffffffffffffffffffffffffffffffffffffffffffffffffffff19166020820180517bffffffffffffffffffffffffffffffffffffffffffffffffffffffff838183161783525050505090509392505050565b604080516024810184905260448082018490528251808303909101815260649091019091526020810180517bffffffffffffffffffffffffffffffffffffffffffffffffffffffff167fa6bcde470000000000000000000000000000000000000000000000000000000017905292915050565b6040805173ffffffffffffffffffffffffffffffffffffffff83166024808301919091528251808303909101815260449091019091526020810180517bffffffffffffffffffffffffffffffffffffffffffffffffffffffff167fb65a25b900000000000000000000000000000000000000000000000000000000179052919050565b8067ffffffffffffffff81168114610d3a57610d3a6109b96001846142cf565b8051825460408301516020909301516bffffffffffffffffffffffff90811668010000000000000000027fffffffffffffffffffffffff000000000000000000000000ffffffffffffffff91909416740100000000000000000000000000000000000000000273ffffffffffffffffffffffffffffffffffffffff67ffffffffffffffff9094167fffffffffffffffffffffffffffffffffffffffffffffffff000000000000000090931692909217929092161716179055565b6040805173ffffffffffffffffffffffffffffffffffffffff808516602483015283166044808301919091528251808303909101815260649091019091526020810180517bffffffffffffffffffffffffffffffffffffffffffffffffffffffff167f1de45ad10000000000000000000000000000000000000000000000000000000017905292915050565b60408051808201909152600481527f57654fe400000000000000000000000000000000000000000000000000000000602082015290565b6040805173ffffffffffffffffffffffffffffffffffffffff83166024808301919091528251808303909101815260449091019091526020810180517bffffffffffffffffffffffffffffffffffffffffffffffffffffffff167fde16f1a000000000000000000000000000000000000000000000000000000000179052919050565b6000818152600a602052604090205473ffffffffffffffffffffffffffffffffffffffff16611127576111276109b98260006141e1565b613e1b615b70565b613e2483612679565b9050613e4e611f818383604001516bffffffffffffffffffffffff166123c790919063ffffffff16565b6bffffffffffffffffffffffff1660408201526114968382613bdc565b613e73615b70565b613e7c83612679565b9050613e4e611f818383604001516bffffffffffffffffffffffff1661313990919063ffffffff16565b1460011690565b6040805173ffffffffffffffffffffffffffffffffffffffff8416602482015260448082018490528251808303909101815260649091019091526020810180517bffffffffffffffffffffffffffffffffffffffffffffffffffffffff167f82ded7850000000000000000000000000000000000000000000000000000000017905292915050565b60606322df959760e01b84848460405160240180846001811115613f5557fe5b81526020018381526020018263ffffffff1681526020019350505050604051602081830303815290604052907bffffffffffffffffffffffffffffffffffffffffffffffffffffffff19166020820180517bffffffffffffffffffffffffffffffffffffffffffffffffffffffff838183161783525050505090509392505050565b604080516024810184905260448082018490528251808303909101815260649091019091526020810180517bffffffffffffffffffffffffffffffffffffffffffffffffffffffff167fe9f837710000000000000000000000000000000000000000000000000000000017905292915050565b6040805173ffffffffffffffffffffffffffffffffffffffff808516602483015283166044808301919091528251808303909101815260649091019091526020810180517bffffffffffffffffffffffffffffffffffffffffffffffffffffffff167f140a84db0000000000000000000000000000000000000000000000000000000017905292915050565b604080516024810184905260448082018490528251808303909101815260649091019091526020810180517bffffffffffffffffffffffffffffffffffffffffffffffffffffffff167f31d7a5050000000000000000000000000000000000000000000000000000000017905292915050565b60006135b5836141598685614657565b90614688565b611127816146b2565b6000828152600b602052604090205461418190826123c7565b6000838152600b602052604090205560175461419d90826123c7565b6017555050565b611127816000600161456e565b60008061339d836146bb565b60006135b5836141596141d18260016123c7565b6141db8887614657565b90613139565b60408051602481019390935290151560448084019190915281518084039091018152606490920190526020810180517bffffffffffffffffffffffffffffffffffffffffffffffffffffffff167f9ae94f010000000000000000000000000000000000000000000000000000000017905290565b600d5415611e7d57611e7d6109b96000614778565b60115415801590614282575060125463ffffffff1615155b801561428f575060135415155b80156142a2575060145463ffffffff1615155b80156142bd5750601454640100000000900463ffffffff1615155b15611e7d57611e7d6109b96001614778565b606063c996af7b60e01b8383604051602401808360028111156142ee57fe5b81526020808201939093526040805180830385018152918101905291820180517bffffffffffffffffffffffffffffffffffffffffffffffffffffffff167fffffffff00000000000000000000000000000000000000000000000000000000909516949094179093529250505092915050565b600082158061436e575081155b1561437b575060006135b5565b60006143888560016123c7565b865167ffffffffffffffff1610156143a45785604001516143aa565b85602001515b6bffffffffffffffffffffffff169050806143c95760009150506135b5565b6143d4848483614149565b9695505050505050565b60008315806143ec57508183145b156143f9575060006135b5565b818310614432576040517f08c379a0000000000000000000000000000000000000000000000000000000008152600401610bde906161c7565b61443a615bb1565b614444868561481e565b905061444e615bb1565b614458878561481e565b905061207f81600001518260200151846000015185602001518a614935565b60008061448488886149a3565b9050600061449287876149a3565b905081158061449f575080155b156144af5760009250505061207f565b6000818313156144c8576144c382846149f5565b6144d2565b6144d283836149f5565b90506144fb6144f66144e383614a14565b8863ffffffff168863ffffffff166150b6565b6150c5565b9050818313156145145761450f82826149f5565b61451e565b61451e82826156af565b905061452a818c6156db565b9b9a5050505050505050505050565b6000828152600b60205260409020546145529082613139565b6000838152600b602052604090205560175461419d9082613139565b6000838152600f6020526040902054600c548082141561458f575050611496565b614597615bb1565b506000858152600e6020908152604080832085845282529182902082518084019093528054835260010154908201526145ce615bb1565b6145d78261571d565b15614610576145f0826000015183602001518888615726565b602083018190528183526146049190615776565b6020830152815261461b565b602081018590528581525b6000878152600e6020908152604080832086845282528083208451815593820151600190940193909355978152600f9097529095205550505050565b60008261466657506000611183565b8282028284828161467357fe5b0414611180576111806109b960018686613a2a565b60008161469e5761469e6109b960038585613a2a565b60008284816146a957fe5b04949350505050565b6111278161579f565b60008060006146d66001600c546123c790919063ffffffff16565b90506146e0615b90565b50600084815260156020908152604080832084845282528083208151606080820184528254825260018084015483870152600293840154838601528787526016865295849020845160a08101865281548152968101549587019590955291840154928501929092526003830154908401526004909101546080830152906147689082906135fa565b9350806040015192505050915091565b60607f0b02d773000000000000000000000000000000000000000000000000000000008260018111156147a757fe5b604051602401808260ff168152602001915050604051602081830303815290604052907bffffffffffffffffffffffffffffffffffffffffffffffffffffffff19166020820180517bffffffffffffffffffffffffffffffffffffffffffffffffffffffff83818316178352505050509050919050565b614826615bb1565b506000828152600e60209081526040808320848452825291829020825180840190935280548352600101549082015261485e8161571d565b1561486857611183565b60006148758360016123c7565b6000858152600e602090815260408083208484528252918290208251808401909352805483526001015490820152925090506148b08261571d565b156148bb5750611183565b6000848152600f602052604090205483811015614917576000858152600e602090815260408083208484528252918290208251808401909352805483526001015490820152925061490b8361571d565b15614917575050611183565b50506040805180820190915260008152600160208201529392505050565b6000816149445750600061499a565b8361495e57614957856141598489614657565b905061499a565b600061497761496d8688614657565b61256b8987614657565b905060006149858286614688565b9050614995876141598684614657565b925050505b95945050505050565b6000808312156149bb576149bb6109b960018561580d565b60008212156149d2576149d26109b960018461580d565b6111806149ef846f800000000000000000000000000000006158ba565b8361590d565b60006111806149ef846f800000000000000000000000000000006158ba565b60006f80000000000000000000000000000000821315614a3c57614a3c6109b960018461598e565b60008213614a5257614a526109b960008461598e565b6f80000000000000000000000000000000821415614a7257506000610d3a565b640733048c5a8213614aa557507fffffffffffffffffffffffffffffffe010000000000000000000000000000000610d3a565b60008060006a01c8464f761647600000008513614b04577ffffffffffffffffffffffffffffffff000000000000000000000000000000000909301926a01c8464f761647600000006f8000000000000000000000000000000086020594505b6cf1aaddd7742e900000000000008513614b62577ffffffffffffffffffffffffffffffff800000000000000000000000000000000909301926cf1aaddd7742e900000000000006f8000000000000000000000000000000086020594505b6e0afe10820813d780000000000000008513614bc4577ffffffffffffffffffffffffffffffffc00000000000000000000000000000000909301926e0afe10820813d780000000000000006f8000000000000000000000000000000086020594505b6f02582ab704279ec000000000000000008513614c28577ffffffffffffffffffffffffffffffffe00000000000000000000000000000000909301926f02582ab704279ec000000000000000006f8000000000000000000000000000000086020594505b6f1152aaa3bf81cc0000000000000000008513614c8c577fffffffffffffffffffffffffffffffff00000000000000000000000000000000909301926f1152aaa3bf81cc0000000000000000006f8000000000000000000000000000000086020594505b6f2f16ac6c59de700000000000000000008513614cf0577fffffffffffffffffffffffffffffffff80000000000000000000000000000000909301926f2f16ac6c59de700000000000000000006f8000000000000000000000000000000086020594505b6f4da2cbf1be58280000000000000000008513614d54577fffffffffffffffffffffffffffffffffc0000000000000000000000000000000909301926f4da2cbf1be58280000000000000000006f8000000000000000000000000000000086020594505b6f63afbe7ab2082c0000000000000000008513614db8577fffffffffffffffffffffffffffffffffe0000000000000000000000000000000909301926f63afbe7ab2082c0000000000000000006f8000000000000000000000000000000086020594505b6f70f5a893b608861e1f58934f97aea57d8513614e1c577ffffffffffffffffffffffffffffffffff0000000000000000000000000000000909301926f70f5a893b608861e1f58934f97aea57d6f8000000000000000000000000000000086020594505b7fffffffffffffffffffffffffffffffff80000000000000000000000000000000850192508291506f80000000000000000000000000000000828002059050700100000000000000000000000000000000838103830205840193506f8000000000000000000000000000000081830281614e9257fe5b059150700200000000000000000000000000000000836faaaaaaaaaaaaaaaaaaaaaaaaaaaaaaaa03830281614ec357fe5b05840193506f8000000000000000000000000000000081830281614ee357fe5b059150700300000000000000000000000000000000836f9999999999999999999999999999999903830281614f1457fe5b05840193506f8000000000000000000000000000000081830281614f3457fe5b059150700400000000000000000000000000000000836f9249249249249249249249249249249203830281614f6557fe5b05840193506f8000000000000000000000000000000081830281614f8557fe5b059150700500000000000000000000000000000000836f8e38e38e38e38e38e38e38e38e38e38e03830281614fb657fe5b05840193506f8000000000000000000000000000000081830281614fd657fe5b059150700600000000000000000000000000000000836f8ba2e8ba2e8ba2e8ba2e8ba2e8ba2e8b0383028161500757fe5b05840193506f800000000000000000000000000000008183028161502757fe5b059150700700000000000000000000000000000000836f89d89d89d89d89d89d89d89d89d89d890383028161505857fe5b05840193506f800000000000000000000000000000008183028161507857fe5b059150700800000000000000000000000000000000836f88888888888888888888888888888888038302816150a957fe5b0584019350505050919050565b60006135b56149ef85856158ba565b60007fffffffffffffffffffffffffffffffe0100000000000000000000000000000008212156150f757506000610d3a565b8161511357506f80000000000000000000000000000000610d3a565b600082131561512a5761512a6109b960018461598e565b6f800000000000000000000000000000006f1000000000000000000000000000000083078080028290056710e1b3be415a0000810293909301929091818302059050806705a0913f6b1e000002830192506f800000000000000000000000000000008282028161519657fe5b05905080670168244fdac7800002830192506f80000000000000000000000000000000828202816151c357fe5b05905080664807432bc1800002830192506f80000000000000000000000000000000828202816151ef57fe5b05905080660c0135dca0400002830192506f800000000000000000000000000000008282028161521b57fe5b059050806601b707b1cdc00002830192506f800000000000000000000000000000008282028161524757fe5b059050806536e0f639b80002830192506f800000000000000000000000000000008282028161527257fe5b05905080650618fee9f80002830192506f800000000000000000000000000000008282028161529d57fe5b05905080649c197dcc0002830192506f80000000000000000000000000000000828202816152c757fe5b05905080640e30dce40002830192506f80000000000000000000000000000000828202816152f157fe5b0590508064012ebd130002830192506f800000000000000000000000000000008282028161531b57fe5b059050806317499f0002830192506f800000000000000000000000000000008282028161534457fe5b059050806301a9d48002830192506f800000000000000000000000000000008282028161536d57fe5b05905080621c638002830192506f800000000000000000000000000000008282028161539557fe5b059050806201c63802830192506f80000000000000000000000000000000828202816153bd57fe5b05905080611ab802830192506f80000000000000000000000000000000828202816153e457fe5b0590508061017c02830192506f800000000000000000000000000000008282028161540b57fe5b05905080601402830192506f800000000000000000000000000000008282028161543157fe5b600095909503946721c3677c82b400009190059384010582016f80000000000000000000000000000000019290507010000000000000000000000000000000008416156154a0577243cbaf42a000812488fc5c220ad7b97bf6e99e6cf1aaddd7742e56d32fb9f9974484020592505b7008000000000000000000000000000000008416156154e2577105d27a9f51c31b7c2f8038212a05747799916e0afe10820813d65dfe6a33c07f738f84020592505b70040000000000000000000000000000000084161561552457701b4c902e273a58678d6d3bfdb93db96d026f02582ab704279e8efd15e0265855c47a84020592505b700200000000000000000000000000000000841615615566577003b1cc971a9bb5b9867477440d6d1577506f1152aaa3bf81cb9fdb76eae12d02957184020592505b7001000000000000000000000000000000008416156155a85770015bf0a8b1457695355fb8ac404e7a79e36f2f16ac6c59de6f8d5d6f63c1482a7c8684020592505b6f800000000000000000000000000000008416156155e8576fd3094c70f034de4b96ff7d5b6f99fcd86f4da2cbf1be5827f9eb3ad1aa9866ebb384020592505b6f40000000000000000000000000000000841615615628576fa45af1e1f40c333b3de1db4dd55f29a76f63afbe7ab2082ba1a0ae5e4eb1b479dc84020592505b6f20000000000000000000000000000000841615615668576f910b022db7ae67ce76b441c27035c6a16f70f5a893b608861e1f58934f97aea57d84020592505b6f100000000000000000000000000000008416156156a8576f88415abbe9a76bead8d00cf112e4d4a86f783eafef1c0a8f3978c7f81824d62ebf84020592505b5050919050565b60006f800000000000000000000000000000006156cc84846158ba565b816156d357fe5b059392505050565b6000808212156156f3576156f36109b960018461580d565b60006156ff84846158ba565b905060008113615713576000915050611183565b607f1c9392505050565b60200151151590565b6000808561573857508290508161576d565b8361574757508490508361576d565b61575e6157548587614657565b6141db8886614657565b915061576a8584614657565b90505b94509492505050565b60008061579484846f800000000000000000000000000000006159bd565b915091509250929050565b600c546000906157b09060016123c7565b90506157ba615b90565b506000828152601560209081526040808320848452825291829020825160608101845281548082526001830154938201939093526002909101549281019290925215611496576114966109b98484615a19565b60607fbd79545f0000000000000000000000000000000000000000000000000000000083600181111561583c57fe5b6040805160ff9092166024830152604480830186905281518084039091018152606490920190526020810180517bffffffffffffffffffffffffffffffffffffffffffffffffffffffff167fffffffff0000000000000000000000000000000000000000000000000000000090931692909217909152905092915050565b60008215806158c7575081155b156158d457506000611183565b50818102818382816158e257fe5b051415806158f95750828282816158f557fe5b0514155b15611183576111836109b960018585615a8c565b600081615923576159236109b960028585615a8c565b7f8000000000000000000000000000000000000000000000000000000000000000831480156159715750817fffffffffffffffffffffffffffffffffffffffffffffffffffffffffffffffff145b15615985576159856109b960038585615a8c565b8183816156d357fe5b60607fed2f26a10000000000000000000000000000000000000000000000000000000083600181111561583c57fe5b600080828511806159cd57508284115b15615a10576000848610156159e257846159e4565b855b90506159f08185614688565b90506159fc8682614688565b9250615a088582614688565b9150506133da565b50929391925050565b604080516024810184905260448082018490528251808303909101815260649091019091526020810180517bffffffffffffffffffffffffffffffffffffffffffffffffffffffff167f5caa0b050000000000000000000000000000000000000000000000000000000017905292915050565b60607f8c12dfe700000000000000000000000000000000000000000000000000000000846003811115615abb57fe5b6040805160ff909216602483015260448201869052606480830186905281518084039091018152608490920190526020810180517bffffffffffffffffffffffffffffffffffffffffffffffffffffffff167fffffffff000000000000000000000000000000000000000000000000000000009093169290921790915290509392505050565b6040518060a0016040528060008152602001600081526020016000815260200160008152602001600081525090565b604080516060810182526000808252602082018190529181019190915290565b60405180606001604052806000815260200160008152602001600081525090565b604051806040016040528060008152602001600081525090565b803560028110610d3a57600080fd5b600082601f830112615bea578081fd5b815167ffffffffffffffff80821115615bff57fe5b6040516020807fffffffffffffffffffffffffffffffffffffffffffffffffffffffffffffffe0601f8601168301018281108482111715615c3c57fe5b80604052508194508382528681858801011115615c5857600080fd5b600092505b83831015615c7a5785830181015182840182015291820191615c5d565b83831115615c8b5760008185840101525b5050505092915050565b600060408284031215612719578081fd5b803563ffffffff81168114610d3a57600080fd5b600060208284031215615ccb578081fd5b813561118081616395565b600060208284031215615ce7578081fd5b815161118081616395565b600080600060608486031215615d06578182fd5b8335615d1181616395565b92506020840135615d2181616395565b929592945050506040919091013590565b60008060408385031215615d44578182fd5b8235615d4f81616395565b946020939093013593505050565b60008060408385031215615d6f578182fd5b8235615d7a81616395565b9150615d8860208401615bcb565b90509250929050565b60008060008060008060c08789031215615da9578182fd5b8651615db481616395565b602088015190965067ffffffffffffffff80821115615dd1578384fd5b615ddd8a838b01615bda565b96506040890151915080821115615df2578384fd5b50615dff89828a01615bda565b945050606087015192506080870151615e1781616395565b60a0880151909250615e2881616395565b809150509295509295509295565b600060208284031215615e47578081fd5b81518015158114611180578182fd5b600060208284031215615e67578081fd5b5035919050565b60008060408385031215615e80578182fd5b823591506020830135615e9281616395565b809150509250929050565b60008060408385031215615eaf578182fd5b50508035926020909101359150565b60008060408385031215615ed0578182fd5b82359150615d8860208401615ca6565b600060208284031215615ef1578081fd5b61118082615bcb565b600080600060a08486031215615f0e578081fd5b615f188585615c95565b9250615f278560408601615c95565b9150608084013590509250925092565b600060208284031215615f48578081fd5b5051919050565b60008060008060008060c08789031215615f67578384fd5b86519550602087015167ffffffffffffffff80821115615f85578586fd5b615f918a838b01615bda565b96506040890151915080821115615df2578586fd5b600080600080600060a08688031215615fbd578283fd5b85359450615fcd60208701615ca6565b935060408601359250615fe260608701615ca6565b9150615ff060808701615ca6565b90509295509295909350565b73ffffffffffffffffffffffffffffffffffffffff91909116815260200190565b73ffffffffffffffffffffffffffffffffffffffff9384168152919092166020820152604081019190915260600190565b73ffffffffffffffffffffffffffffffffffffffff929092168252602082015260400190565b6020808252825182820181905260009190848201906040850190845b818110156160c257835173ffffffffffffffffffffffffffffffffffffffff1683529284019291840191600101616090565b50909695505050505050565b901515815260200190565b90815260200190565b92835273ffffffffffffffffffffffffffffffffffffffff91909116602083015263ffffffff16604082015260600190565b918252602082015260400190565b6020808252601c908201527f4e4f4e5f524547495354455245445f504f4f4c5f49445f4552524f5200000000604082015260600190565b6020808252601b908201527f504f4f4c5f544f5f4a4f494e5f4e4f545f53454c465f4552524f520000000000604082015260600190565b6020808252601c908201527f4e4f4e5f524547495354455245445f52425f504f4f4c5f4552524f5200000000604082015260600190565b60208082526013908201527f43525f494e54455256414c5f494e56414c494400000000000000000000000000604082015260600190565b60208082526014908201527f574554485f5452414e534645525f4641494c4544000000000000000000000000604082015260600190565b81518152602080830151908201526040918201519181019190915260600190565b815173ffffffffffffffffffffffffffffffffffffffff908116825260208084015163ffffffff1690830152604092830151169181019190915260600190565b815167ffffffffffffffff1681526020808301516bffffffffffffffffffffffff90811691830191909152604092830151169181019190915260600190565b9283526020830191909152604082015260600190565b93845260208401929092526040830152606082015260800190565b948552602085019390935260408401919091526060830152608082015260a00190565b94855263ffffffff938416602086015260408501929092528216606084015216608082015260a00190565b92835260ff918216602084015216604082015260600190565b63ffffffff91909116815260200190565b63ffffffff92831681529116602082015260400190565b73ffffffffffffffffffffffffffffffffffffffff8116811461112757600080fdfea26469706673582212206d62af08973ab46ea6b3cfadd8f4acebe9e3b2c4f5c035eadc33ed0e2f0a6fe564736f6c63430007040033",
				"opcodes": "PUSH1 0x80 PUSH1 0x40 MSTORE CALLVALUE DUP1 ISZERO PUSH2 0x10 JUMPI PUSH1 0x0 DUP1 REVERT JUMPDEST POP PUSH1 0x0 DUP1 SLOAD PUSH1 0x1 PUSH1 0x1 PUSH1 0xA0 SHL SUB NOT AND CALLER OR SWAP1 SSTORE PUSH2 0x63ED DUP1 PUSH3 0x33 PUSH1 0x0 CODECOPY PUSH1 0x0 RETURN INVALID PUSH1 0x80 PUSH1 0x40 MSTORE PUSH1 0x4 CALLDATASIZE LT PUSH2 0x33F JUMPI PUSH1 0x0 CALLDATALOAD PUSH1 0xE0 SHR DUP1 PUSH4 0x9AD26744 GT PUSH2 0x1B0 JUMPI DUP1 PUSH4 0xC18C9141 GT PUSH2 0xEC JUMPI DUP1 PUSH4 0xE8EEB3F8 GT PUSH2 0x95 JUMPI DUP1 PUSH4 0xEF4BA680 GT PUSH2 0x6F JUMPI DUP1 PUSH4 0xEF4BA680 EQ PUSH2 0x90A JUMPI DUP1 PUSH4 0xF252B7A1 EQ PUSH2 0x91F JUMPI DUP1 PUSH4 0xF2FDE38B EQ PUSH2 0x93F JUMPI DUP1 PUSH4 0xFF691B11 EQ PUSH2 0x95F JUMPI PUSH2 0x33F JUMP JUMPDEST DUP1 PUSH4 0xE8EEB3F8 EQ PUSH2 0x8C0 JUMPI DUP1 PUSH4 0xE907F003 EQ PUSH2 0x8D5 JUMPI DUP1 PUSH4 0xEE99205C EQ PUSH2 0x8F5 JUMPI PUSH2 0x33F JUMP JUMPDEST DUP1 PUSH4 0xE0EE036E GT PUSH2 0xC6 JUMPI DUP1 PUSH4 0xE0EE036E EQ PUSH2 0x876 JUMPI DUP1 PUSH4 0xE1C7392A EQ PUSH2 0x88B JUMPI DUP1 PUSH4 0xE804D0A4 EQ PUSH2 0x8A0 JUMPI PUSH2 0x33F JUMP JUMPDEST DUP1 PUSH4 0xC18C9141 EQ PUSH2 0x81F JUMPI DUP1 PUSH4 0xD39DE6E9 EQ PUSH2 0x83F JUMPI DUP1 PUSH4 0xE0822DB7 EQ PUSH2 0x861 JUMPI PUSH2 0x33F JUMP JUMPDEST DUP1 PUSH4 0xB0531524 GT PUSH2 0x159 JUMPI DUP1 PUSH4 0xB652B41F GT PUSH2 0x133 JUMPI DUP1 PUSH4 0xB652B41F EQ PUSH2 0x7AA JUMPI DUP1 PUSH4 0xB9181611 EQ PUSH2 0x7BF JUMPI DUP1 PUSH4 0xBB7EF7E0 EQ PUSH2 0x7DF JUMPI DUP1 PUSH4 0xBE111AF4 EQ PUSH2 0x7FF JUMPI PUSH2 0x33F JUMP JUMPDEST DUP1 PUSH4 0xB0531524 EQ PUSH2 0x760 JUMPI DUP1 PUSH4 0xB2BAA33E EQ PUSH2 0x775 JUMPI DUP1 PUSH4 0xB510879F EQ PUSH2 0x78A JUMPI PUSH2 0x33F JUMP JUMPDEST DUP1 PUSH4 0xA3B4A327 GT PUSH2 0x18A JUMPI DUP1 PUSH4 0xA3B4A327 EQ PUSH2 0x718 JUMPI DUP1 PUSH4 0xA657E579 EQ PUSH2 0x72B JUMPI DUP1 PUSH4 0xA694FC3A EQ PUSH2 0x740 JUMPI PUSH2 0x33F JUMP JUMPDEST DUP1 PUSH4 0x9AD26744 EQ PUSH2 0x6C3 JUMPI DUP1 PUSH4 0x9C3CCC82 EQ PUSH2 0x6E3 JUMPI DUP1 PUSH4 0xA26171E2 EQ PUSH2 0x703 JUMPI PUSH2 0x33F JUMP JUMPDEST DUP1 PUSH4 0x494503D4 GT PUSH2 0x27F JUMPI DUP1 PUSH4 0x5E615A6B GT PUSH2 0x228 JUMPI DUP1 PUSH4 0x76671808 GT PUSH2 0x202 JUMPI DUP1 PUSH4 0x76671808 EQ PUSH2 0x657 JUMPI DUP1 PUSH4 0x7FA140C7 EQ PUSH2 0x66C JUMPI DUP1 PUSH4 0x81666796 EQ PUSH2 0x68C JUMPI DUP1 PUSH4 0x8DA5CB5B EQ PUSH2 0x6AE JUMPI PUSH2 0x33F JUMP JUMPDEST DUP1 PUSH4 0x5E615A6B EQ PUSH2 0x5FC JUMPI DUP1 PUSH4 0x63403801 EQ PUSH2 0x622 JUMPI DUP1 PUSH4 0x70712939 EQ PUSH2 0x637 JUMPI PUSH2 0x33F JUMP JUMPDEST DUP1 PUSH4 0x587DA023 GT PUSH2 0x259 JUMPI DUP1 PUSH4 0x587DA023 EQ PUSH2 0x5A7 JUMPI DUP1 PUSH4 0x58F6C7E3 EQ PUSH2 0x5BC JUMPI DUP1 PUSH4 0x5D91121D EQ PUSH2 0x5DC JUMPI PUSH2 0x33F JUMP JUMPDEST DUP1 PUSH4 0x494503D4 EQ PUSH2 0x52D JUMPI DUP1 PUSH4 0x4BCC3F67 EQ PUSH2 0x54D JUMPI DUP1 PUSH4 0x540C2D53 EQ PUSH2 0x57A JUMPI PUSH2 0x33F JUMP JUMPDEST DUP1 PUSH4 0x36D7DD8E GT PUSH2 0x2EC JUMPI DUP1 PUSH4 0x3E4AD732 GT PUSH2 0x2C6 JUMPI DUP1 PUSH4 0x3E4AD732 EQ PUSH2 0x493 JUMPI DUP1 PUSH4 0x42F1181E EQ PUSH2 0x4C0 JUMPI DUP1 PUSH4 0x44A6958B EQ PUSH2 0x4E0 JUMPI DUP1 PUSH4 0x46B97959 EQ PUSH2 0x500 JUMPI PUSH2 0x33F JUMP JUMPDEST DUP1 PUSH4 0x36D7DD8E EQ PUSH2 0x420 JUMPI DUP1 PUSH4 0x38229D93 EQ PUSH2 0x440 JUMPI DUP1 PUSH4 0x3C277FC5 EQ PUSH2 0x471 JUMPI PUSH2 0x33F JUMP JUMPDEST DUP1 PUSH4 0x1F81EB80 GT PUSH2 0x31D JUMPI DUP1 PUSH4 0x1F81EB80 EQ PUSH2 0x3B1 JUMPI DUP1 PUSH4 0x2A94C279 EQ PUSH2 0x3D1 JUMPI DUP1 PUSH4 0x2E17DE78 EQ PUSH2 0x400 JUMPI PUSH2 0x33F JUMP JUMPDEST DUP1 PUSH4 0xB9663DB EQ PUSH2 0x344 JUMPI DUP1 PUSH4 0x1A67A0A0 EQ PUSH2 0x36F JUMPI DUP1 PUSH4 0x1E7FF8F6 EQ PUSH2 0x391 JUMPI JUMPDEST PUSH1 0x0 DUP1 REVERT JUMPDEST CALLVALUE DUP1 ISZERO PUSH2 0x350 JUMPI PUSH1 0x0 DUP1 REVERT JUMPDEST POP PUSH2 0x359 PUSH2 0x97F JUMP JUMPDEST PUSH1 0x40 MLOAD PUSH2 0x366 SWAP2 SWAP1 PUSH2 0x60D9 JUMP JUMPDEST PUSH1 0x40 MLOAD DUP1 SWAP2 SUB SWAP1 RETURN JUMPDEST CALLVALUE DUP1 ISZERO PUSH2 0x37B JUMPI PUSH1 0x0 DUP1 REVERT JUMPDEST POP PUSH2 0x38F PUSH2 0x38A CALLDATASIZE PUSH1 0x4 PUSH2 0x5E6E JUMP JUMPDEST PUSH2 0xACA JUMP JUMPDEST STOP JUMPDEST CALLVALUE DUP1 ISZERO PUSH2 0x39D JUMPI PUSH1 0x0 DUP1 REVERT JUMPDEST POP PUSH2 0x359 PUSH2 0x3AC CALLDATASIZE PUSH1 0x4 PUSH2 0x5CBA JUMP JUMPDEST PUSH2 0xCA5 JUMP JUMPDEST CALLVALUE DUP1 ISZERO PUSH2 0x3BD JUMPI PUSH1 0x0 DUP1 REVERT JUMPDEST POP PUSH2 0x38F PUSH2 0x3CC CALLDATASIZE PUSH1 0x4 PUSH2 0x5CBA JUMP JUMPDEST PUSH2 0xD3F JUMP JUMPDEST CALLVALUE DUP1 ISZERO PUSH2 0x3DD JUMPI PUSH1 0x0 DUP1 REVERT JUMPDEST POP PUSH2 0x3F1 PUSH2 0x3EC CALLDATASIZE PUSH1 0x4 PUSH2 0x5E9D JUMP JUMPDEST PUSH2 0xE09 JUMP JUMPDEST PUSH1 0x40 MLOAD PUSH2 0x366 SWAP4 SWAP3 SWAP2 SWAP1 PUSH2 0x62D5 JUMP JUMPDEST CALLVALUE DUP1 ISZERO PUSH2 0x40C JUMPI PUSH1 0x0 DUP1 REVERT JUMPDEST POP PUSH2 0x38F PUSH2 0x41B CALLDATASIZE PUSH1 0x4 PUSH2 0x5E56 JUMP JUMPDEST PUSH2 0xE35 JUMP JUMPDEST CALLVALUE DUP1 ISZERO PUSH2 0x42C JUMPI PUSH1 0x0 DUP1 REVERT JUMPDEST POP PUSH2 0x38F PUSH2 0x43B CALLDATASIZE PUSH1 0x4 PUSH2 0x5CBA JUMP JUMPDEST PUSH2 0xFEA JUMP JUMPDEST CALLVALUE DUP1 ISZERO PUSH2 0x44C JUMPI PUSH1 0x0 DUP1 REVERT JUMPDEST POP PUSH2 0x460 PUSH2 0x45B CALLDATASIZE PUSH1 0x4 PUSH2 0x5E56 JUMP JUMPDEST PUSH2 0x10B0 JUMP JUMPDEST PUSH1 0x40 MLOAD PUSH2 0x366 SWAP6 SWAP5 SWAP4 SWAP3 SWAP2 SWAP1 PUSH2 0x6306 JUMP JUMPDEST CALLVALUE DUP1 ISZERO PUSH2 0x47D JUMPI PUSH1 0x0 DUP1 REVERT JUMPDEST POP PUSH2 0x486 PUSH2 0x10DF JUMP JUMPDEST PUSH1 0x40 MLOAD PUSH2 0x366 SWAP2 SWAP1 PUSH2 0x5FFC JUMP JUMPDEST CALLVALUE DUP1 ISZERO PUSH2 0x49F JUMPI PUSH1 0x0 DUP1 REVERT JUMPDEST POP PUSH2 0x4B3 PUSH2 0x4AE CALLDATASIZE PUSH1 0x4 PUSH2 0x5E56 JUMP JUMPDEST PUSH2 0x10F7 JUMP JUMPDEST PUSH1 0x40 MLOAD PUSH2 0x366 SWAP2 SWAP1 PUSH2 0x6296 JUMP JUMPDEST CALLVALUE DUP1 ISZERO PUSH2 0x4CC JUMPI PUSH1 0x0 DUP1 REVERT JUMPDEST POP PUSH2 0x38F PUSH2 0x4DB CALLDATASIZE PUSH1 0x4 PUSH2 0x5CBA JUMP JUMPDEST PUSH2 0x1116 JUMP JUMPDEST CALLVALUE DUP1 ISZERO PUSH2 0x4EC JUMPI PUSH1 0x0 DUP1 REVERT JUMPDEST POP PUSH2 0x4B3 PUSH2 0x4FB CALLDATASIZE PUSH1 0x4 PUSH2 0x5D5D JUMP JUMPDEST PUSH2 0x112A JUMP JUMPDEST CALLVALUE DUP1 ISZERO PUSH2 0x50C JUMPI PUSH1 0x0 DUP1 REVERT JUMPDEST POP PUSH2 0x520 PUSH2 0x51B CALLDATASIZE PUSH1 0x4 PUSH2 0x5E56 JUMP JUMPDEST PUSH2 0x1189 JUMP JUMPDEST PUSH1 0x40 MLOAD PUSH2 0x366 SWAP2 SWAP1 PUSH2 0x6235 JUMP JUMPDEST CALLVALUE DUP1 ISZERO PUSH2 0x539 JUMPI PUSH1 0x0 DUP1 REVERT JUMPDEST POP PUSH2 0x486 PUSH2 0x548 CALLDATASIZE PUSH1 0x4 PUSH2 0x5E56 JUMP JUMPDEST PUSH2 0x11D4 JUMP JUMPDEST CALLVALUE DUP1 ISZERO PUSH2 0x559 JUMPI PUSH1 0x0 DUP1 REVERT JUMPDEST POP PUSH2 0x56D PUSH2 0x568 CALLDATASIZE PUSH1 0x4 PUSH2 0x5E56 JUMP JUMPDEST PUSH2 0x120B JUMP JUMPDEST PUSH1 0x40 MLOAD PUSH2 0x366 SWAP2 SWAP1 PUSH2 0x6256 JUMP JUMPDEST CALLVALUE DUP1 ISZERO PUSH2 0x586 JUMPI PUSH1 0x0 DUP1 REVERT JUMPDEST POP PUSH2 0x59A PUSH2 0x595 CALLDATASIZE PUSH1 0x4 PUSH2 0x5CBA JUMP JUMPDEST PUSH2 0x1283 JUMP JUMPDEST PUSH1 0x40 MLOAD PUSH2 0x366 SWAP2 SWAP1 PUSH2 0x60CE JUMP JUMPDEST CALLVALUE DUP1 ISZERO PUSH2 0x5B3 JUMPI PUSH1 0x0 DUP1 REVERT JUMPDEST POP PUSH2 0x359 PUSH2 0x1298 JUMP JUMPDEST CALLVALUE DUP1 ISZERO PUSH2 0x5C8 JUMPI PUSH1 0x0 DUP1 REVERT JUMPDEST POP PUSH2 0x38F PUSH2 0x5D7 CALLDATASIZE PUSH1 0x4 PUSH2 0x5EFA JUMP JUMPDEST PUSH2 0x129E JUMP JUMPDEST CALLVALUE DUP1 ISZERO PUSH2 0x5E8 JUMPI PUSH1 0x0 DUP1 REVERT JUMPDEST POP PUSH2 0x38F PUSH2 0x5F7 CALLDATASIZE PUSH1 0x4 PUSH2 0x5EBE JUMP JUMPDEST PUSH2 0x149B JUMP JUMPDEST CALLVALUE DUP1 ISZERO PUSH2 0x608 JUMPI PUSH1 0x0 DUP1 REVERT JUMPDEST POP PUSH2 0x611 PUSH2 0x1564 JUMP JUMPDEST PUSH1 0x40 MLOAD PUSH2 0x366 SWAP6 SWAP5 SWAP4 SWAP3 SWAP2 SWAP1 PUSH2 0x6329 JUMP JUMPDEST CALLVALUE DUP1 ISZERO PUSH2 0x62E JUMPI PUSH1 0x0 DUP1 REVERT JUMPDEST POP PUSH2 0x359 PUSH2 0x158D JUMP JUMPDEST CALLVALUE DUP1 ISZERO PUSH2 0x643 JUMPI PUSH1 0x0 DUP1 REVERT JUMPDEST POP PUSH2 0x38F PUSH2 0x652 CALLDATASIZE PUSH1 0x4 PUSH2 0x5CBA JUMP JUMPDEST PUSH2 0x1593 JUMP JUMPDEST CALLVALUE DUP1 ISZERO PUSH2 0x663 JUMPI PUSH1 0x0 DUP1 REVERT JUMPDEST POP PUSH2 0x359 PUSH2 0x1648 JUMP JUMPDEST CALLVALUE DUP1 ISZERO PUSH2 0x678 JUMPI PUSH1 0x0 DUP1 REVERT JUMPDEST POP PUSH2 0x359 PUSH2 0x687 CALLDATASIZE PUSH1 0x4 PUSH2 0x5CBA JUMP JUMPDEST PUSH2 0x164E JUMP JUMPDEST CALLVALUE DUP1 ISZERO PUSH2 0x698 JUMPI PUSH1 0x0 DUP1 REVERT JUMPDEST POP PUSH2 0x6A1 PUSH2 0x1660 JUMP JUMPDEST PUSH1 0x40 MLOAD PUSH2 0x366 SWAP2 SWAP1 PUSH2 0x636D JUMP JUMPDEST CALLVALUE DUP1 ISZERO PUSH2 0x6BA JUMPI PUSH1 0x0 DUP1 REVERT JUMPDEST POP PUSH2 0x486 PUSH2 0x166C JUMP JUMPDEST CALLVALUE DUP1 ISZERO PUSH2 0x6CF JUMPI PUSH1 0x0 DUP1 REVERT JUMPDEST POP PUSH2 0x38F PUSH2 0x6DE CALLDATASIZE PUSH1 0x4 PUSH2 0x5D32 JUMP JUMPDEST PUSH2 0x1688 JUMP JUMPDEST CALLVALUE DUP1 ISZERO PUSH2 0x6EF JUMPI PUSH1 0x0 DUP1 REVERT JUMPDEST POP PUSH2 0x38F PUSH2 0x6FE CALLDATASIZE PUSH1 0x4 PUSH2 0x5FA6 JUMP JUMPDEST PUSH2 0x169A JUMP JUMPDEST CALLVALUE DUP1 ISZERO PUSH2 0x70F JUMPI PUSH1 0x0 DUP1 REVERT JUMPDEST POP PUSH2 0x359 PUSH2 0x1714 JUMP JUMPDEST PUSH2 0x38F PUSH2 0x726 CALLDATASIZE PUSH1 0x4 PUSH2 0x5CF2 JUMP JUMPDEST PUSH2 0x171A JUMP JUMPDEST CALLVALUE DUP1 ISZERO PUSH2 0x737 JUMPI PUSH1 0x0 DUP1 REVERT JUMPDEST POP PUSH2 0x359 PUSH2 0x1949 JUMP JUMPDEST CALLVALUE DUP1 ISZERO PUSH2 0x74C JUMPI PUSH1 0x0 DUP1 REVERT JUMPDEST POP PUSH2 0x38F PUSH2 0x75B CALLDATASIZE PUSH1 0x4 PUSH2 0x5E56 JUMP JUMPDEST PUSH2 0x194F JUMP JUMPDEST CALLVALUE DUP1 ISZERO PUSH2 0x76C JUMPI PUSH1 0x0 DUP1 REVERT JUMPDEST POP PUSH2 0x359 PUSH2 0x1A64 JUMP JUMPDEST CALLVALUE DUP1 ISZERO PUSH2 0x781 JUMPI PUSH1 0x0 DUP1 REVERT JUMPDEST POP PUSH2 0x359 PUSH2 0x1A6A JUMP JUMPDEST CALLVALUE DUP1 ISZERO PUSH2 0x796 JUMPI PUSH1 0x0 DUP1 REVERT JUMPDEST POP PUSH2 0x38F PUSH2 0x7A5 CALLDATASIZE PUSH1 0x4 PUSH2 0x5E56 JUMP JUMPDEST PUSH2 0x1A88 JUMP JUMPDEST CALLVALUE DUP1 ISZERO PUSH2 0x7B6 JUMPI PUSH1 0x0 DUP1 REVERT JUMPDEST POP PUSH2 0x486 PUSH2 0x1A92 JUMP JUMPDEST CALLVALUE DUP1 ISZERO PUSH2 0x7CB JUMPI PUSH1 0x0 DUP1 REVERT JUMPDEST POP PUSH2 0x59A PUSH2 0x7DA CALLDATASIZE PUSH1 0x4 PUSH2 0x5CBA JUMP JUMPDEST PUSH2 0x1AAA JUMP JUMPDEST CALLVALUE DUP1 ISZERO PUSH2 0x7EB JUMPI PUSH1 0x0 DUP1 REVERT JUMPDEST POP PUSH2 0x359 PUSH2 0x7FA CALLDATASIZE PUSH1 0x4 PUSH2 0x5E56 JUMP JUMPDEST PUSH2 0x1ABF JUMP JUMPDEST CALLVALUE DUP1 ISZERO PUSH2 0x80B JUMPI PUSH1 0x0 DUP1 REVERT JUMPDEST POP PUSH2 0x359 PUSH2 0x81A CALLDATASIZE PUSH1 0x4 PUSH2 0x5CBA JUMP JUMPDEST PUSH2 0x1B5A JUMP JUMPDEST CALLVALUE DUP1 ISZERO PUSH2 0x82B JUMPI PUSH1 0x0 DUP1 REVERT JUMPDEST POP PUSH2 0x359 PUSH2 0x83A CALLDATASIZE PUSH1 0x4 PUSH2 0x5E56 JUMP JUMPDEST PUSH2 0x1DC0 JUMP JUMPDEST CALLVALUE DUP1 ISZERO PUSH2 0x84B JUMPI PUSH1 0x0 DUP1 REVERT JUMPDEST POP PUSH2 0x854 PUSH2 0x1DD2 JUMP JUMPDEST PUSH1 0x40 MLOAD PUSH2 0x366 SWAP2 SWAP1 PUSH2 0x6074 JUMP JUMPDEST CALLVALUE DUP1 ISZERO PUSH2 0x86D JUMPI PUSH1 0x0 DUP1 REVERT JUMPDEST POP PUSH2 0x486 PUSH2 0x1E41 JUMP JUMPDEST CALLVALUE DUP1 ISZERO PUSH2 0x882 JUMPI PUSH1 0x0 DUP1 REVERT JUMPDEST POP PUSH2 0x6A1 PUSH2 0x1E59 JUMP JUMPDEST CALLVALUE DUP1 ISZERO PUSH2 0x897 JUMPI PUSH1 0x0 DUP1 REVERT JUMPDEST POP PUSH2 0x38F PUSH2 0x1E65 JUMP JUMPDEST CALLVALUE DUP1 ISZERO PUSH2 0x8AC JUMPI PUSH1 0x0 DUP1 REVERT JUMPDEST POP PUSH2 0x4B3 PUSH2 0x8BB CALLDATASIZE PUSH1 0x4 PUSH2 0x5EE0 JUMP JUMPDEST PUSH2 0x1E7F JUMP JUMPDEST CALLVALUE DUP1 ISZERO PUSH2 0x8CC JUMPI PUSH1 0x0 DUP1 REVERT JUMPDEST POP PUSH2 0x6A1 PUSH2 0x1FC9 JUMP JUMPDEST CALLVALUE DUP1 ISZERO PUSH2 0x8E1 JUMPI PUSH1 0x0 DUP1 REVERT JUMPDEST POP PUSH2 0x359 PUSH2 0x8F0 CALLDATASIZE PUSH1 0x4 PUSH2 0x5E6E JUMP JUMPDEST PUSH2 0x1FDD JUMP JUMPDEST CALLVALUE DUP1 ISZERO PUSH2 0x901 JUMPI PUSH1 0x0 DUP1 REVERT JUMPDEST POP PUSH2 0x486 PUSH2 0x208A JUMP JUMPDEST CALLVALUE DUP1 ISZERO PUSH2 0x916 JUMPI PUSH1 0x0 DUP1 REVERT JUMPDEST POP PUSH2 0x486 PUSH2 0x20A6 JUMP JUMPDEST CALLVALUE DUP1 ISZERO PUSH2 0x92B JUMPI PUSH1 0x0 DUP1 REVERT JUMPDEST POP PUSH2 0x4B3 PUSH2 0x93A CALLDATASIZE PUSH1 0x4 PUSH2 0x5D32 JUMP JUMPDEST PUSH2 0x20BE JUMP JUMPDEST CALLVALUE DUP1 ISZERO PUSH2 0x94B JUMPI PUSH1 0x0 DUP1 REVERT JUMPDEST POP PUSH2 0x38F PUSH2 0x95A CALLDATASIZE PUSH1 0x4 PUSH2 0x5CBA JUMP JUMPDEST PUSH2 0x20FF JUMP JUMPDEST CALLVALUE DUP1 ISZERO PUSH2 0x96B JUMPI PUSH1 0x0 DUP1 REVERT JUMPDEST POP PUSH2 0x38F PUSH2 0x97A CALLDATASIZE PUSH1 0x4 PUSH2 0x5E56 JUMP JUMPDEST PUSH2 0x21A2 JUMP JUMPDEST PUSH1 0xC SLOAD PUSH1 0x0 SWAP1 DUP2 PUSH2 0x991 DUP3 PUSH1 0x1 PUSH2 0x23C7 JUMP JUMPDEST PUSH1 0x0 DUP2 DUP2 MSTORE PUSH1 0x16 PUSH1 0x20 MSTORE PUSH1 0x40 SWAP1 KECCAK256 PUSH1 0x1 ADD SLOAD SWAP1 SWAP2 POP DUP1 ISZERO PUSH2 0x9BE JUMPI PUSH2 0x9BE PUSH2 0x9B9 DUP4 DUP4 PUSH2 0x23E6 JUMP JUMPDEST PUSH2 0x2459 JUMP JUMPDEST PUSH2 0x9C6 PUSH2 0x2461 JUMP JUMPDEST PUSH2 0x9CE PUSH2 0x24D3 JUMP JUMPDEST PUSH1 0x0 DUP5 DUP2 MSTORE PUSH1 0x16 PUSH1 0x20 MSTORE PUSH1 0x40 SWAP1 KECCAK256 SSTORE PUSH2 0x9E5 PUSH2 0x5B41 JUMP JUMPDEST POP PUSH1 0x0 DUP4 DUP2 MSTORE PUSH1 0x16 PUSH1 0x20 SWAP1 DUP2 MSTORE PUSH1 0x40 SWAP2 DUP3 SWAP1 KECCAK256 DUP3 MLOAD PUSH1 0xA0 DUP2 ADD DUP5 MSTORE DUP2 SLOAD DUP1 DUP3 MSTORE PUSH1 0x1 DUP4 ADD SLOAD SWAP4 DUP3 ADD DUP5 SWAP1 MSTORE PUSH1 0x2 DUP4 ADD SLOAD DUP3 DUP7 ADD DUP2 SWAP1 MSTORE PUSH1 0x3 DUP5 ADD SLOAD PUSH1 0x60 DUP5 ADD DUP2 SWAP1 MSTORE PUSH1 0x4 SWAP1 SWAP5 ADD SLOAD PUSH1 0x80 DUP5 ADD MSTORE SWAP5 MLOAD SWAP2 SWAP5 DUP9 SWAP5 PUSH32 0xBB4A26FA0ACE13EE4DA343896C20EAA44A618FB9071FDD8C2E2C960A4583189D SWAP5 PUSH2 0xA67 SWAP5 SWAP2 SWAP4 SWAP3 SWAP2 PUSH2 0x62EB JUMP JUMPDEST PUSH1 0x40 MLOAD DUP1 SWAP2 SUB SWAP1 LOG2 PUSH2 0xA77 PUSH2 0x2571 JUMP JUMPDEST PUSH1 0x20 DUP2 ADD MLOAD PUSH2 0xABE JUMPI DUP1 MLOAD PUSH1 0x40 MLOAD DUP6 SWAP2 PUSH32 0xB463D19ECF455BE65365092CF8E1DB6934A0334CF8CD532DDF9964D01F36B5B2 SWAP2 PUSH2 0xAB5 SWAP2 PUSH1 0x0 SWAP2 PUSH2 0x6114 JUMP JUMPDEST PUSH1 0x40 MLOAD DUP1 SWAP2 SUB SWAP1 LOG2 JUMPDEST PUSH1 0x20 ADD MLOAD SWAP4 POP POP POP POP SWAP1 JUMP JUMPDEST PUSH1 0x0 DUP1 PUSH2 0xAD5 PUSH2 0x1A92 JUMP JUMPDEST PUSH1 0x40 MLOAD PUSH32 0xC277F1AC00000000000000000000000000000000000000000000000000000000 DUP2 MSTORE PUSH20 0xFFFFFFFFFFFFFFFFFFFFFFFFFFFFFFFFFFFFFFFF SWAP2 SWAP1 SWAP2 AND SWAP1 PUSH4 0xC277F1AC SWAP1 PUSH2 0xB29 SWAP1 DUP8 SWAP1 PUSH1 0x4 ADD PUSH2 0x60D9 JUMP JUMPDEST PUSH1 0x0 PUSH1 0x40 MLOAD DUP1 DUP4 SUB DUP2 DUP7 DUP1 EXTCODESIZE ISZERO DUP1 ISZERO PUSH2 0xB41 JUMPI PUSH1 0x0 DUP1 REVERT JUMPDEST POP GAS STATICCALL ISZERO DUP1 ISZERO PUSH2 0xB55 JUMPI RETURNDATASIZE PUSH1 0x0 DUP1 RETURNDATACOPY RETURNDATASIZE PUSH1 0x0 REVERT JUMPDEST POP POP POP POP PUSH1 0x40 MLOAD RETURNDATASIZE PUSH1 0x0 DUP3 RETURNDATACOPY PUSH1 0x1F RETURNDATASIZE SWAP1 DUP2 ADD PUSH32 0xFFFFFFFFFFFFFFFFFFFFFFFFFFFFFFFFFFFFFFFFFFFFFFFFFFFFFFFFFFFFFFE0 AND DUP3 ADD PUSH1 0x40 MSTORE PUSH2 0xB9B SWAP2 SWAP1 DUP2 ADD SWAP1 PUSH2 0x5D91 JUMP JUMPDEST POP POP SWAP4 POP POP POP SWAP2 POP PUSH1 0x0 DUP2 EQ ISZERO PUSH2 0xBE7 JUMPI PUSH1 0x40 MLOAD PUSH32 0x8C379A000000000000000000000000000000000000000000000000000000000 DUP2 MSTORE PUSH1 0x4 ADD PUSH2 0xBDE SWAP1 PUSH2 0x6122 JUMP JUMPDEST PUSH1 0x40 MLOAD DUP1 SWAP2 SUB SWAP1 REVERT JUMPDEST DUP3 PUSH20 0xFFFFFFFFFFFFFFFFFFFFFFFFFFFFFFFFFFFFFFFF AND DUP3 PUSH20 0xFFFFFFFFFFFFFFFFFFFFFFFFFFFFFFFFFFFFFFFF AND EQ PUSH2 0xC4C JUMPI PUSH1 0x40 MLOAD PUSH32 0x8C379A000000000000000000000000000000000000000000000000000000000 DUP2 MSTORE PUSH1 0x4 ADD PUSH2 0xBDE SWAP1 PUSH2 0x6159 JUMP JUMPDEST PUSH20 0xFFFFFFFFFFFFFFFFFFFFFFFFFFFFFFFFFFFFFFFF DUP1 DUP4 AND PUSH1 0x0 SWAP1 DUP2 MSTORE PUSH1 0x9 PUSH1 0x20 MSTORE PUSH1 0x40 DUP1 DUP3 KECCAK256 DUP8 SWAP1 SSTORE MLOAD DUP7 SWAP3 DUP7 AND SWAP2 PUSH32 0xE8B9F7EE7A4480D45B60E98F7B2090DD82E2353B8557A6EE2DD2D5EE9196BAC2 SWAP2 LOG3 POP POP POP POP JUMP JUMPDEST PUSH1 0x0 PUSH2 0xCAF PUSH2 0x1E41 JUMP JUMPDEST PUSH20 0xFFFFFFFFFFFFFFFFFFFFFFFFFFFFFFFFFFFFFFFF AND PUSH4 0x70A08231 DUP4 PUSH1 0x40 MLOAD DUP3 PUSH4 0xFFFFFFFF AND PUSH1 0xE0 SHL DUP2 MSTORE PUSH1 0x4 ADD PUSH2 0xCE7 SWAP2 SWAP1 PUSH2 0x5FFC JUMP JUMPDEST PUSH1 0x20 PUSH1 0x40 MLOAD DUP1 DUP4 SUB DUP2 DUP7 DUP1 EXTCODESIZE ISZERO DUP1 ISZERO PUSH2 0xCFF JUMPI PUSH1 0x0 DUP1 REVERT JUMPDEST POP GAS STATICCALL ISZERO DUP1 ISZERO PUSH2 0xD13 JUMPI RETURNDATASIZE PUSH1 0x0 DUP1 RETURNDATACOPY RETURNDATASIZE PUSH1 0x0 REVERT JUMPDEST POP POP POP POP PUSH1 0x40 MLOAD RETURNDATASIZE PUSH1 0x1F NOT PUSH1 0x1F DUP3 ADD AND DUP3 ADD DUP1 PUSH1 0x40 MSTORE POP DUP2 ADD SWAP1 PUSH2 0xD37 SWAP2 SWAP1 PUSH2 0x5F37 JUMP JUMPDEST SWAP1 POP JUMPDEST SWAP2 SWAP1 POP JUMP JUMPDEST PUSH2 0xD47 PUSH2 0x25AE JUMP JUMPDEST PUSH20 0xFFFFFFFFFFFFFFFFFFFFFFFFFFFFFFFFFFFFFFFF DUP2 AND PUSH1 0x0 SWAP1 DUP2 MSTORE PUSH1 0x10 PUSH1 0x20 MSTORE PUSH1 0x40 SWAP1 KECCAK256 SLOAD PUSH1 0xFF AND ISZERO PUSH2 0xD83 JUMPI PUSH2 0xD83 PUSH2 0x9B9 PUSH1 0x0 DUP4 PUSH2 0x25D1 JUMP JUMPDEST PUSH20 0xFFFFFFFFFFFFFFFFFFFFFFFFFFFFFFFFFFFFFFFF DUP2 AND PUSH1 0x0 DUP2 DUP2 MSTORE PUSH1 0x10 PUSH1 0x20 SWAP1 DUP2 MSTORE PUSH1 0x40 SWAP2 DUP3 SWAP1 KECCAK256 DUP1 SLOAD PUSH32 0xFFFFFFFFFFFFFFFFFFFFFFFFFFFFFFFFFFFFFFFFFFFFFFFFFFFFFFFFFFFFFF00 AND PUSH1 0x1 OR SWAP1 SSTORE DUP2 MLOAD SWAP3 DUP4 MSTORE SWAP1 MLOAD PUSH32 0x5738EE3C8E8FE8B0B9C4C21B16FDCA42EC02E271237DFEABBF3B5AF1584D732B SWAP3 DUP2 SWAP1 SUB SWAP1 SWAP2 ADD SWAP1 LOG1 POP JUMP JUMPDEST PUSH1 0x15 PUSH1 0x20 SWAP1 DUP2 MSTORE PUSH1 0x0 SWAP3 DUP4 MSTORE PUSH1 0x40 DUP1 DUP5 KECCAK256 SWAP1 SWAP2 MSTORE SWAP1 DUP3 MSTORE SWAP1 KECCAK256 DUP1 SLOAD PUSH1 0x1 DUP3 ADD SLOAD PUSH1 0x2 SWAP1 SWAP3 ADD SLOAD SWAP1 SWAP2 SWAP1 DUP4 JUMP JUMPDEST CALLER PUSH2 0xE3E PUSH2 0x5B70 JUMP JUMPDEST PUSH20 0xFFFFFFFFFFFFFFFFFFFFFFFFFFFFFFFFFFFFFFFF DUP3 AND PUSH1 0x0 SWAP1 DUP2 MSTORE PUSH32 0x5B8CCBB9D4D8FB16EA74CE3C29A41F1B461FBDAFF4714A0D9A8EB05499746BC PUSH1 0x20 MSTORE PUSH1 0x40 SWAP1 KECCAK256 PUSH2 0xE8B SWAP1 PUSH2 0x2679 JUMP JUMPDEST SWAP1 POP PUSH1 0x0 PUSH2 0xEBD DUP3 PUSH1 0x20 ADD MLOAD PUSH12 0xFFFFFFFFFFFFFFFFFFFFFFFF AND DUP4 PUSH1 0x40 ADD MLOAD PUSH12 0xFFFFFFFFFFFFFFFFFFFFFFFF AND PUSH2 0x271F JUMP JUMPDEST SWAP1 POP DUP1 DUP5 GT ISZERO PUSH2 0xED4 JUMPI PUSH2 0xED4 PUSH2 0x9B9 DUP6 DUP4 PUSH2 0x2735 JUMP JUMPDEST PUSH20 0xFFFFFFFFFFFFFFFFFFFFFFFFFFFFFFFFFFFFFFFF DUP4 AND PUSH1 0x0 SWAP1 DUP2 MSTORE PUSH32 0x5B8CCBB9D4D8FB16EA74CE3C29A41F1B461FBDAFF4714A0D9A8EB05499746BC PUSH1 0x20 MSTORE PUSH1 0x40 SWAP1 KECCAK256 PUSH2 0xF22 SWAP1 DUP6 PUSH2 0x27A8 JUMP JUMPDEST PUSH2 0xF2A PUSH2 0x1E41 JUMP JUMPDEST PUSH20 0xFFFFFFFFFFFFFFFFFFFFFFFFFFFFFFFFFFFFFFFF AND PUSH4 0x9470B0BD DUP5 DUP7 PUSH1 0x40 MLOAD DUP4 PUSH4 0xFFFFFFFF AND PUSH1 0xE0 SHL DUP2 MSTORE PUSH1 0x4 ADD PUSH2 0xF64 SWAP3 SWAP2 SWAP1 PUSH2 0x604E JUMP JUMPDEST PUSH1 0x0 PUSH1 0x40 MLOAD DUP1 DUP4 SUB DUP2 PUSH1 0x0 DUP8 DUP1 EXTCODESIZE ISZERO DUP1 ISZERO PUSH2 0xF7E JUMPI PUSH1 0x0 DUP1 REVERT JUMPDEST POP GAS CALL ISZERO DUP1 ISZERO PUSH2 0xF92 JUMPI RETURNDATASIZE PUSH1 0x0 DUP1 RETURNDATACOPY RETURNDATASIZE PUSH1 0x0 REVERT JUMPDEST POP POP POP POP DUP3 PUSH20 0xFFFFFFFFFFFFFFFFFFFFFFFFFFFFFFFFFFFFFFFF AND PUSH32 0x85082129D87B2FE11527CB1B3B7A520AEB5AA6913F88A3D8757FE40D1DB02FDD DUP6 PUSH1 0x40 MLOAD PUSH2 0xFDC SWAP2 SWAP1 PUSH2 0x60D9 JUMP JUMPDEST PUSH1 0x40 MLOAD DUP1 SWAP2 SUB SWAP1 LOG2 POP POP POP POP JUMP JUMPDEST PUSH2 0xFF2 PUSH2 0x25AE JUMP JUMPDEST PUSH20 0xFFFFFFFFFFFFFFFFFFFFFFFFFFFFFFFFFFFFFFFF DUP2 AND PUSH1 0x0 SWAP1 DUP2 MSTORE PUSH1 0x10 PUSH1 0x20 MSTORE PUSH1 0x40 SWAP1 KECCAK256 SLOAD PUSH1 0xFF AND PUSH2 0x102D JUMPI PUSH2 0x102D PUSH2 0x9B9 PUSH1 0x1 DUP4 PUSH2 0x25D1 JUMP JUMPDEST PUSH20 0xFFFFFFFFFFFFFFFFFFFFFFFFFFFFFFFFFFFFFFFF DUP2 AND PUSH1 0x0 DUP2 DUP2 MSTORE PUSH1 0x10 PUSH1 0x20 SWAP1 DUP2 MSTORE PUSH1 0x40 SWAP2 DUP3 SWAP1 KECCAK256 DUP1 SLOAD PUSH32 0xFFFFFFFFFFFFFFFFFFFFFFFFFFFFFFFFFFFFFFFFFFFFFFFFFFFFFFFFFFFFFF00 AND SWAP1 SSTORE DUP2 MLOAD SWAP3 DUP4 MSTORE SWAP1 MLOAD PUSH32 0x9BF55462CB5FA187F725D06DE0A70BC01C4E40695570BDC25AD116F9BE46BDA7 SWAP3 DUP2 SWAP1 SUB SWAP1 SWAP2 ADD SWAP1 LOG1 POP JUMP JUMPDEST PUSH1 0x16 PUSH1 0x20 MSTORE PUSH1 0x0 SWAP1 DUP2 MSTORE PUSH1 0x40 SWAP1 KECCAK256 DUP1 SLOAD PUSH1 0x1 DUP3 ADD SLOAD PUSH1 0x2 DUP4 ADD SLOAD PUSH1 0x3 DUP5 ADD SLOAD PUSH1 0x4 SWAP1 SWAP5 ADD SLOAD SWAP3 SWAP4 SWAP2 SWAP3 SWAP1 SWAP2 SWAP1 DUP6 JUMP JUMPDEST PUSH20 0xC02AAA39B223FE8D0A0E5C4F27EAD9083C756CC2 SWAP1 JUMP JUMPDEST PUSH2 0x10FF PUSH2 0x5B70 JUMP JUMPDEST PUSH1 0x0 DUP3 DUP2 MSTORE PUSH1 0x7 PUSH1 0x20 MSTORE PUSH1 0x40 SWAP1 KECCAK256 PUSH2 0xD37 SWAP1 PUSH2 0x2679 JUMP JUMPDEST PUSH2 0x111E PUSH2 0x2829 JUMP JUMPDEST PUSH2 0x1127 DUP2 PUSH2 0x2870 JUMP JUMPDEST POP JUMP JUMPDEST PUSH2 0x1132 PUSH2 0x5B70 JUMP JUMPDEST PUSH2 0x1180 PUSH1 0x5 PUSH1 0x0 DUP5 PUSH1 0x1 DUP2 GT ISZERO PUSH2 0x1145 JUMPI INVALID JUMPDEST PUSH1 0xFF AND DUP2 MSTORE PUSH1 0x20 DUP1 DUP3 ADD SWAP3 SWAP1 SWAP3 MSTORE PUSH1 0x40 SWAP1 DUP2 ADD PUSH1 0x0 SWAP1 DUP2 KECCAK256 PUSH20 0xFFFFFFFFFFFFFFFFFFFFFFFFFFFFFFFFFFFFFFFF DUP9 AND DUP3 MSTORE SWAP1 SWAP3 MSTORE SWAP1 KECCAK256 PUSH2 0x2679 JUMP JUMPDEST SWAP1 POP JUMPDEST SWAP3 SWAP2 POP POP JUMP JUMPDEST PUSH2 0x1191 PUSH2 0x5B90 JUMP JUMPDEST POP PUSH1 0x0 SWAP1 DUP2 MSTORE PUSH1 0x15 PUSH1 0x20 SWAP1 DUP2 MSTORE PUSH1 0x40 DUP1 DUP4 KECCAK256 PUSH1 0xC SLOAD DUP5 MSTORE DUP3 MSTORE SWAP2 DUP3 SWAP1 KECCAK256 DUP3 MLOAD PUSH1 0x60 DUP2 ADD DUP5 MSTORE DUP2 SLOAD DUP2 MSTORE PUSH1 0x1 DUP3 ADD SLOAD SWAP3 DUP2 ADD SWAP3 SWAP1 SWAP3 MSTORE PUSH1 0x2 ADD SLOAD SWAP2 DUP2 ADD SWAP2 SWAP1 SWAP2 MSTORE SWAP1 JUMP JUMPDEST PUSH1 0x2 DUP2 DUP2 SLOAD DUP2 LT PUSH2 0x11E4 JUMPI PUSH1 0x0 DUP1 REVERT JUMPDEST PUSH1 0x0 SWAP2 DUP3 MSTORE PUSH1 0x20 SWAP1 SWAP2 KECCAK256 ADD SLOAD PUSH20 0xFFFFFFFFFFFFFFFFFFFFFFFFFFFFFFFFFFFFFFFF AND SWAP1 POP DUP2 JUMP JUMPDEST PUSH2 0x1213 PUSH2 0x5B70 JUMP JUMPDEST POP PUSH1 0x0 SWAP1 DUP2 MSTORE PUSH1 0xA PUSH1 0x20 SWAP1 DUP2 MSTORE PUSH1 0x40 SWAP2 DUP3 SWAP1 KECCAK256 DUP3 MLOAD PUSH1 0x60 DUP2 ADD DUP5 MSTORE DUP2 SLOAD PUSH20 0xFFFFFFFFFFFFFFFFFFFFFFFFFFFFFFFFFFFFFFFF DUP1 DUP3 AND DUP4 MSTORE PUSH21 0x10000000000000000000000000000000000000000 SWAP1 SWAP2 DIV PUSH4 0xFFFFFFFF AND SWAP4 DUP3 ADD SWAP4 SWAP1 SWAP4 MSTORE PUSH1 0x1 SWAP1 SWAP2 ADD SLOAD SWAP1 SWAP2 AND SWAP2 DUP2 ADD SWAP2 SWAP1 SWAP2 MSTORE SWAP1 JUMP JUMPDEST PUSH1 0x10 PUSH1 0x20 MSTORE PUSH1 0x0 SWAP1 DUP2 MSTORE PUSH1 0x40 SWAP1 KECCAK256 SLOAD PUSH1 0xFF AND DUP2 JUMP JUMPDEST PUSH1 0xD SLOAD DUP2 JUMP JUMPDEST CALLER DUP2 PUSH2 0x12AA JUMPI POP PUSH2 0x1496 JUMP JUMPDEST PUSH1 0x0 PUSH2 0x12B9 PUSH1 0x20 DUP7 ADD DUP7 PUSH2 0x5EE0 JUMP JUMPDEST PUSH1 0x1 DUP2 GT ISZERO PUSH2 0x12C4 JUMPI INVALID JUMPDEST EQ DUP1 ISZERO PUSH2 0x12E8 JUMPI POP PUSH1 0x0 PUSH2 0x12DB PUSH1 0x20 DUP6 ADD DUP6 PUSH2 0x5EE0 JUMP JUMPDEST PUSH1 0x1 DUP2 GT ISZERO PUSH2 0x12E6 JUMPI INVALID JUMPDEST EQ JUMPDEST ISZERO PUSH2 0x12F3 JUMPI POP PUSH2 0x1496 JUMP JUMPDEST PUSH1 0x1 PUSH2 0x1302 PUSH1 0x20 DUP7 ADD DUP7 PUSH2 0x5EE0 JUMP JUMPDEST PUSH1 0x1 DUP2 GT ISZERO PUSH2 0x130D JUMPI INVALID JUMPDEST EQ ISZERO PUSH2 0x1322 JUMPI PUSH2 0x1322 DUP5 PUSH1 0x20 ADD CALLDATALOAD DUP3 DUP5 PUSH2 0x29A1 JUMP JUMPDEST PUSH1 0x1 PUSH2 0x1331 PUSH1 0x20 DUP6 ADD DUP6 PUSH2 0x5EE0 JUMP JUMPDEST PUSH1 0x1 DUP2 GT ISZERO PUSH2 0x133C JUMPI INVALID JUMPDEST EQ ISZERO PUSH2 0x1351 JUMPI PUSH2 0x1351 DUP4 PUSH1 0x20 ADD CALLDATALOAD DUP3 DUP5 PUSH2 0x2A3A JUMP JUMPDEST PUSH1 0x0 PUSH1 0x5 DUP2 PUSH2 0x1363 PUSH1 0x20 DUP9 ADD DUP9 PUSH2 0x5EE0 JUMP JUMPDEST PUSH1 0x1 DUP2 GT ISZERO PUSH2 0x136E JUMPI INVALID JUMPDEST PUSH1 0xFF AND DUP2 MSTORE PUSH1 0x20 DUP1 DUP3 ADD SWAP3 SWAP1 SWAP3 MSTORE PUSH1 0x40 SWAP1 DUP2 ADD PUSH1 0x0 SWAP1 DUP2 KECCAK256 PUSH20 0xFFFFFFFFFFFFFFFFFFFFFFFFFFFFFFFFFFFFFFFF DUP7 AND DUP3 MSTORE DUP4 MSTORE SWAP1 DUP2 KECCAK256 SWAP3 POP SWAP1 PUSH1 0x5 SWAP1 DUP3 SWAP1 PUSH2 0x13B8 SWAP1 DUP9 ADD DUP9 PUSH2 0x5EE0 JUMP JUMPDEST PUSH1 0x1 DUP2 GT ISZERO PUSH2 0x13C3 JUMPI INVALID JUMPDEST PUSH1 0xFF AND DUP2 MSTORE PUSH1 0x20 DUP1 DUP3 ADD SWAP3 SWAP1 SWAP3 MSTORE PUSH1 0x40 SWAP1 DUP2 ADD PUSH1 0x0 SWAP1 DUP2 KECCAK256 PUSH20 0xFFFFFFFFFFFFFFFFFFFFFFFFFFFFFFFFFFFFFFFF DUP8 AND DUP3 MSTORE SWAP1 SWAP3 MSTORE SWAP1 KECCAK256 SWAP1 POP PUSH2 0x1406 DUP3 DUP3 DUP7 PUSH2 0x2AD3 JUMP JUMPDEST PUSH1 0x20 DUP1 DUP7 ADD CALLDATALOAD SWAP1 DUP8 ADD DUP1 CALLDATALOAD SWAP1 PUSH20 0xFFFFFFFFFFFFFFFFFFFFFFFFFFFFFFFFFFFFFFFF DUP7 AND SWAP1 PUSH32 0x7D3AD1DCF03B9027064D1D9A474A69E0CECC31324C541D3EB9B5E6FA2F106C8D SWAP1 DUP9 SWAP1 PUSH2 0x1458 SWAP1 DUP13 PUSH2 0x5EE0 JUMP JUMPDEST PUSH1 0x1 DUP2 GT ISZERO PUSH2 0x1463 JUMPI INVALID JUMPDEST PUSH2 0x1470 PUSH1 0x20 DUP13 ADD DUP13 PUSH2 0x5EE0 JUMP JUMPDEST PUSH1 0x1 DUP2 GT ISZERO PUSH2 0x147B JUMPI INVALID JUMPDEST PUSH1 0x40 MLOAD PUSH2 0x148A SWAP4 SWAP3 SWAP2 SWAP1 PUSH2 0x6354 JUMP JUMPDEST PUSH1 0x40 MLOAD DUP1 SWAP2 SUB SWAP1 LOG4 POP POP POP JUMPDEST POP POP POP JUMP JUMPDEST DUP2 PUSH2 0x14A5 DUP2 PUSH2 0x2BC0 JUMP JUMPDEST PUSH1 0x0 DUP4 DUP2 MSTORE PUSH1 0xA PUSH1 0x20 MSTORE PUSH1 0x40 SWAP1 KECCAK256 SLOAD PUSH21 0x10000000000000000000000000000000000000000 SWAP1 DIV PUSH4 0xFFFFFFFF AND PUSH2 0x14DD DUP5 DUP3 DUP6 PUSH2 0x2BF9 JUMP JUMPDEST PUSH1 0x0 DUP5 DUP2 MSTORE PUSH1 0xA PUSH1 0x20 MSTORE PUSH1 0x40 SWAP1 DUP2 SWAP1 KECCAK256 DUP1 SLOAD PUSH32 0xFFFFFFFFFFFFFFFF00000000FFFFFFFFFFFFFFFFFFFFFFFFFFFFFFFFFFFFFFFF AND PUSH21 0x10000000000000000000000000000000000000000 PUSH4 0xFFFFFFFF DUP8 AND MUL OR SWAP1 SSTORE MLOAD DUP5 SWAP1 PUSH32 0x8EA2A7A959BD25F226B7B0A4393613F7FDCAA8404E8BAD96AA52DC1C14590167 SWAP1 PUSH2 0xFDC SWAP1 DUP5 SWAP1 DUP8 SWAP1 PUSH2 0x637E JUMP JUMPDEST PUSH1 0x11 SLOAD PUSH1 0x12 SLOAD PUSH1 0x13 SLOAD PUSH1 0x14 SLOAD SWAP3 SWAP4 PUSH4 0xFFFFFFFF SWAP3 DUP4 AND SWAP4 SWAP2 SWAP3 DUP3 DUP2 AND SWAP3 PUSH5 0x100000000 SWAP1 DIV AND SWAP1 JUMP JUMPDEST PUSH1 0x11 SLOAD DUP2 JUMP JUMPDEST PUSH2 0x159B PUSH2 0x2829 JUMP JUMPDEST PUSH20 0xFFFFFFFFFFFFFFFFFFFFFFFFFFFFFFFFFFFFFFFF DUP2 AND PUSH1 0x0 SWAP1 DUP2 MSTORE PUSH1 0x1 PUSH1 0x20 MSTORE PUSH1 0x40 SWAP1 KECCAK256 SLOAD PUSH1 0xFF AND PUSH2 0x15D4 JUMPI PUSH2 0x15D4 PUSH2 0x9B9 DUP3 PUSH2 0x2C41 JUMP JUMPDEST PUSH1 0x0 JUMPDEST PUSH1 0x2 SLOAD DUP2 LT ISZERO PUSH2 0x1644 JUMPI DUP2 PUSH20 0xFFFFFFFFFFFFFFFFFFFFFFFFFFFFFFFFFFFFFFFF AND PUSH1 0x2 DUP3 DUP2 SLOAD DUP2 LT PUSH2 0x1605 JUMPI INVALID JUMPDEST PUSH1 0x0 SWAP2 DUP3 MSTORE PUSH1 0x20 SWAP1 SWAP2 KECCAK256 ADD SLOAD PUSH20 0xFFFFFFFFFFFFFFFFFFFFFFFFFFFFFFFFFFFFFFFF AND EQ ISZERO PUSH2 0x163C JUMPI PUSH2 0x1637 DUP3 DUP3 PUSH2 0x2CC4 JUMP JUMPDEST PUSH2 0x1644 JUMP JUMPDEST PUSH1 0x1 ADD PUSH2 0x15D7 JUMP JUMPDEST POP POP JUMP JUMPDEST PUSH1 0xC SLOAD DUP2 JUMP JUMPDEST PUSH1 0x9 PUSH1 0x20 MSTORE PUSH1 0x0 SWAP1 DUP2 MSTORE PUSH1 0x40 SWAP1 KECCAK256 SLOAD DUP2 JUMP JUMPDEST PUSH1 0x14 SLOAD PUSH4 0xFFFFFFFF AND DUP2 JUMP JUMPDEST PUSH1 0x0 SLOAD PUSH20 0xFFFFFFFFFFFFFFFFFFFFFFFFFFFFFFFFFFFFFFFF AND DUP2 JUMP JUMPDEST PUSH2 0x1690 PUSH2 0x2829 JUMP JUMPDEST PUSH2 0x1644 DUP3 DUP3 PUSH2 0x2CC4 JUMP JUMPDEST PUSH2 0x16A2 PUSH2 0x25AE JUMP JUMPDEST PUSH2 0x16AF DUP6 DUP6 DUP6 DUP6 DUP6 PUSH2 0x2F3F JUMP JUMPDEST ADDRESS PUSH20 0xFFFFFFFFFFFFFFFFFFFFFFFFFFFFFFFFFFFFFFFF AND PUSH4 0xC6F3A427 PUSH1 0x40 MLOAD DUP2 PUSH4 0xFFFFFFFF AND PUSH1 0xE0 SHL DUP2 MSTORE PUSH1 0x4 ADD PUSH1 0x0 PUSH1 0x40 MLOAD DUP1 DUP4 SUB DUP2 DUP7 DUP1 EXTCODESIZE ISZERO DUP1 ISZERO PUSH2 0x16F5 JUMPI PUSH1 0x0 DUP1 REVERT JUMPDEST POP GAS STATICCALL ISZERO DUP1 ISZERO PUSH2 0x1709 JUMPI RETURNDATASIZE PUSH1 0x0 DUP1 RETURNDATACOPY RETURNDATASIZE PUSH1 0x0 REVERT JUMPDEST POP POP POP POP POP POP POP POP POP JUMP JUMPDEST PUSH1 0x13 SLOAD DUP2 JUMP JUMPDEST CALLER PUSH1 0x0 SWAP1 DUP2 MSTORE PUSH1 0x10 PUSH1 0x20 MSTORE PUSH1 0x40 SWAP1 KECCAK256 SLOAD PUSH1 0xFF AND PUSH2 0x173D JUMPI PUSH2 0x173D PUSH2 0x9B9 CALLER PUSH2 0x3015 JUMP JUMPDEST PUSH2 0x1746 DUP2 PUSH2 0x3098 JUMP JUMPDEST CALLVALUE PUSH2 0x1817 JUMPI PUSH2 0x1753 PUSH2 0x10DF JUMP JUMPDEST PUSH20 0xFFFFFFFFFFFFFFFFFFFFFFFFFFFFFFFFFFFFFFFF AND PUSH4 0x23B872DD DUP4 ADDRESS DUP5 PUSH1 0x40 MLOAD DUP5 PUSH4 0xFFFFFFFF AND PUSH1 0xE0 SHL DUP2 MSTORE PUSH1 0x4 ADD PUSH2 0x178F SWAP4 SWAP3 SWAP2 SWAP1 PUSH2 0x601D JUMP JUMPDEST PUSH1 0x20 PUSH1 0x40 MLOAD DUP1 DUP4 SUB DUP2 PUSH1 0x0 DUP8 DUP1 EXTCODESIZE ISZERO DUP1 ISZERO PUSH2 0x17A9 JUMPI PUSH1 0x0 DUP1 REVERT JUMPDEST POP GAS CALL ISZERO DUP1 ISZERO PUSH2 0x17BD JUMPI RETURNDATASIZE PUSH1 0x0 DUP1 RETURNDATACOPY RETURNDATASIZE PUSH1 0x0 REVERT JUMPDEST POP POP POP POP PUSH1 0x40 MLOAD RETURNDATASIZE PUSH1 0x1F NOT PUSH1 0x1F DUP3 ADD AND DUP3 ADD DUP1 PUSH1 0x40 MSTORE POP DUP2 ADD SWAP1 PUSH2 0x17E1 SWAP2 SWAP1 PUSH2 0x5E36 JUMP JUMPDEST PUSH2 0x1817 JUMPI PUSH1 0x40 MLOAD PUSH32 0x8C379A000000000000000000000000000000000000000000000000000000000 DUP2 MSTORE PUSH1 0x4 ADD PUSH2 0xBDE SWAP1 PUSH2 0x61FE JUMP JUMPDEST PUSH20 0xFFFFFFFFFFFFFFFFFFFFFFFFFFFFFFFFFFFFFFFF DUP4 AND PUSH1 0x0 SWAP1 DUP2 MSTORE PUSH1 0x9 PUSH1 0x20 MSTORE PUSH1 0x40 SWAP1 KECCAK256 SLOAD DUP1 PUSH2 0x1848 JUMPI POP PUSH2 0x1496 JUMP JUMPDEST PUSH1 0x0 PUSH2 0x1853 DUP3 PUSH2 0x10F7 JUMP JUMPDEST PUSH1 0x20 ADD MLOAD PUSH12 0xFFFFFFFFFFFFFFFFFFFFFFFF AND SWAP1 POP PUSH1 0x13 SLOAD DUP2 LT ISZERO PUSH2 0x1878 JUMPI POP POP PUSH2 0x1496 JUMP JUMPDEST PUSH1 0xC SLOAD PUSH1 0x0 DUP4 DUP2 MSTORE PUSH1 0x15 PUSH1 0x20 SWAP1 DUP2 MSTORE PUSH1 0x40 DUP1 DUP4 KECCAK256 DUP5 DUP5 MSTORE DUP3 MSTORE DUP1 DUP4 KECCAK256 PUSH1 0x16 SWAP1 SWAP3 MSTORE SWAP1 SWAP2 KECCAK256 DUP2 SLOAD DUP1 PUSH2 0x191B JUMPI PUSH1 0x0 DUP1 PUSH2 0x18B0 DUP9 DUP9 PUSH2 0x30B9 JUMP JUMPDEST PUSH1 0x2 DUP8 ADD DUP3 SWAP1 SSTORE PUSH1 0x1 DUP8 ADD DUP2 SWAP1 SSTORE PUSH1 0x3 DUP7 ADD SLOAD SWAP2 SWAP4 POP SWAP2 POP PUSH2 0x18D2 SWAP1 DUP3 PUSH2 0x3139 JUMP JUMPDEST PUSH1 0x3 DUP6 ADD SSTORE PUSH1 0x1 DUP1 DUP6 ADD SLOAD PUSH2 0x18E6 SWAP2 PUSH2 0x3139 JUMP JUMPDEST PUSH1 0x1 DUP6 ADD SSTORE PUSH1 0x40 MLOAD DUP9 SWAP1 DUP8 SWAP1 PUSH32 0x14B098103235344975B17508C2391721CC9AC3F3FA2B56C7FF46F8480DFD074F SWAP1 PUSH1 0x0 SWAP1 LOG3 POP POP JUMPDEST PUSH2 0x1925 DUP2 DUP9 PUSH2 0x3139 JUMP JUMPDEST DUP4 SSTORE PUSH1 0x2 DUP3 ADD SLOAD PUSH2 0x1936 SWAP1 DUP9 PUSH2 0x3139 JUMP JUMPDEST DUP3 PUSH1 0x2 ADD DUP2 SWAP1 SSTORE POP POP POP POP POP POP POP POP POP POP JUMP JUMPDEST PUSH1 0x8 SLOAD DUP2 JUMP JUMPDEST CALLER PUSH2 0x1958 PUSH2 0x1E41 JUMP JUMPDEST PUSH20 0xFFFFFFFFFFFFFFFFFFFFFFFFFFFFFFFFFFFFFFFF AND PUSH4 0x15CC36F2 DUP3 DUP5 PUSH1 0x40 MLOAD DUP4 PUSH4 0xFFFFFFFF AND PUSH1 0xE0 SHL DUP2 MSTORE PUSH1 0x4 ADD PUSH2 0x1992 SWAP3 SWAP2 SWAP1 PUSH2 0x604E JUMP JUMPDEST PUSH1 0x0 PUSH1 0x40 MLOAD DUP1 DUP4 SUB DUP2 PUSH1 0x0 DUP8 DUP1 EXTCODESIZE ISZERO DUP1 ISZERO PUSH2 0x19AC JUMPI PUSH1 0x0 DUP1 REVERT JUMPDEST POP GAS CALL ISZERO DUP1 ISZERO PUSH2 0x19C0 JUMPI RETURNDATASIZE PUSH1 0x0 DUP1 RETURNDATACOPY RETURNDATASIZE PUSH1 0x0 REVERT JUMPDEST POP POP POP POP PUSH20 0xFFFFFFFFFFFFFFFFFFFFFFFFFFFFFFFFFFFFFFFF DUP2 AND PUSH1 0x0 SWAP1 DUP2 MSTORE PUSH32 0x5B8CCBB9D4D8FB16EA74CE3C29A41F1B461FBDAFF4714A0D9A8EB05499746BC PUSH1 0x20 MSTORE PUSH1 0x40 SWAP1 KECCAK256 PUSH2 0x1A12 SWAP1 DUP4 PUSH2 0x3155 JUMP JUMPDEST DUP1 PUSH20 0xFFFFFFFFFFFFFFFFFFFFFFFFFFFFFFFFFFFFFFFF AND PUSH32 0xEBEDB8B3C678666E7F36970BC8F57ABF6D8FA2E828C0DA91EA5B75BF68ED101A DUP4 PUSH1 0x40 MLOAD PUSH2 0x1A58 SWAP2 SWAP1 PUSH2 0x60D9 JUMP JUMPDEST PUSH1 0x40 MLOAD DUP1 SWAP2 SUB SWAP1 LOG2 POP POP JUMP JUMPDEST PUSH1 0x17 SLOAD DUP2 JUMP JUMPDEST PUSH1 0x0 PUSH2 0x1A83 PUSH1 0x11 SLOAD PUSH1 0xD SLOAD PUSH2 0x3139 SWAP1 SWAP2 SWAP1 PUSH4 0xFFFFFFFF AND JUMP JUMPDEST SWAP1 POP SWAP1 JUMP JUMPDEST PUSH2 0x1127 DUP2 CALLER PUSH2 0x31B9 JUMP JUMPDEST PUSH20 0xDE6445484A8DCD9BF35FC95EB4E3990CC358822E SWAP1 JUMP JUMPDEST PUSH1 0x1 PUSH1 0x20 MSTORE PUSH1 0x0 SWAP1 DUP2 MSTORE PUSH1 0x40 SWAP1 KECCAK256 SLOAD PUSH1 0xFF AND DUP2 JUMP JUMPDEST PUSH1 0x0 PUSH2 0x1AC9 PUSH2 0x5B70 JUMP JUMPDEST POP PUSH1 0x0 DUP3 DUP2 MSTORE PUSH1 0xA PUSH1 0x20 SWAP1 DUP2 MSTORE PUSH1 0x40 DUP1 DUP4 KECCAK256 DUP2 MLOAD PUSH1 0x60 DUP2 ADD DUP4 MSTORE DUP2 SLOAD PUSH20 0xFFFFFFFFFFFFFFFFFFFFFFFFFFFFFFFFFFFFFFFF DUP1 DUP3 AND DUP4 MSTORE PUSH21 0x10000000000000000000000000000000000000000 SWAP1 SWAP2 DIV PUSH4 0xFFFFFFFF AND SWAP5 DUP3 ADD SWAP5 SWAP1 SWAP5 MSTORE PUSH1 0x1 SWAP1 SWAP2 ADD SLOAD SWAP1 SWAP3 AND SWAP1 DUP3 ADD MSTORE SWAP1 DUP1 PUSH2 0x1B3D DUP6 PUSH2 0x3391 JUMP JUMPDEST SWAP2 POP SWAP2 POP PUSH2 0x1B50 DUP4 PUSH1 0x20 ADD MLOAD DUP4 DUP4 PUSH2 0x33A7 JUMP JUMPDEST POP SWAP6 SWAP5 POP POP POP POP POP JUMP JUMPDEST PUSH1 0x0 DUP1 PUSH1 0x0 PUSH2 0x1B67 PUSH2 0x1A92 JUMP JUMPDEST PUSH20 0xFFFFFFFFFFFFFFFFFFFFFFFFFFFFFFFFFFFFFFFF AND PUSH4 0xB72E717D DUP6 PUSH1 0x40 MLOAD DUP3 PUSH4 0xFFFFFFFF AND PUSH1 0xE0 SHL DUP2 MSTORE PUSH1 0x4 ADD PUSH2 0x1B9F SWAP2 SWAP1 PUSH2 0x5FFC JUMP JUMPDEST PUSH1 0x0 PUSH1 0x40 MLOAD DUP1 DUP4 SUB DUP2 DUP7 DUP1 EXTCODESIZE ISZERO DUP1 ISZERO PUSH2 0x1BB7 JUMPI PUSH1 0x0 DUP1 REVERT JUMPDEST POP GAS STATICCALL ISZERO DUP1 ISZERO PUSH2 0x1BCB JUMPI RETURNDATASIZE PUSH1 0x0 DUP1 RETURNDATACOPY RETURNDATASIZE PUSH1 0x0 REVERT JUMPDEST POP POP POP POP PUSH1 0x40 MLOAD RETURNDATASIZE PUSH1 0x0 DUP3 RETURNDATACOPY PUSH1 0x1F RETURNDATASIZE SWAP1 DUP2 ADD PUSH32 0xFFFFFFFFFFFFFFFFFFFFFFFFFFFFFFFFFFFFFFFFFFFFFFFFFFFFFFFFFFFFFFE0 AND DUP3 ADD PUSH1 0x40 MSTORE PUSH2 0x1C11 SWAP2 SWAP1 DUP2 ADD SWAP1 PUSH2 0x5F4F JUMP JUMPDEST POP SWAP5 POP POP POP POP SWAP2 POP PUSH1 0x0 DUP3 EQ ISZERO PUSH2 0x1C54 JUMPI PUSH1 0x40 MLOAD PUSH32 0x8C379A000000000000000000000000000000000000000000000000000000000 DUP2 MSTORE PUSH1 0x4 ADD PUSH2 0xBDE SWAP1 PUSH2 0x6190 JUMP JUMPDEST DUP1 PUSH1 0x0 PUSH20 0xFFFFFFFFFFFFFFFFFFFFFFFFFFFFFFFFFFFFFFFF DUP3 AND CALLER EQ PUSH2 0x1C77 JUMPI POP CALLER JUMPDEST PUSH3 0xAAE60 PUSH2 0x1C84 DUP6 PUSH2 0x33E2 JUMP JUMPDEST DUP5 PUSH1 0x0 SHL SWAP6 POP PUSH2 0x1C98 DUP7 PUSH3 0xF4240 DUP4 PUSH2 0x2BF9 JUMP JUMPDEST PUSH2 0x1CA0 PUSH2 0x5B70 JUMP JUMPDEST POP PUSH1 0x40 DUP1 MLOAD PUSH1 0x60 DUP2 ADD DUP3 MSTORE PUSH20 0xFFFFFFFFFFFFFFFFFFFFFFFFFFFFFFFFFFFFFFFF DUP1 DUP7 AND DUP3 MSTORE PUSH4 0xFFFFFFFF DUP1 DUP6 AND PUSH1 0x20 DUP1 DUP6 ADD SWAP2 DUP3 MSTORE DUP8 DUP5 AND DUP6 DUP8 ADD SWAP1 DUP2 MSTORE PUSH1 0x0 DUP14 DUP2 MSTORE PUSH1 0xA SWAP1 SWAP3 MSTORE SWAP1 DUP7 SWAP1 KECCAK256 DUP6 MLOAD DUP2 SLOAD SWAP4 MLOAD SWAP1 SWAP5 AND PUSH21 0x10000000000000000000000000000000000000000 MUL PUSH32 0xFFFFFFFFFFFFFFFF00000000FFFFFFFFFFFFFFFFFFFFFFFFFFFFFFFFFFFFFFFF SWAP5 DUP7 AND PUSH32 0xFFFFFFFFFFFFFFFFFFFFFFFF0000000000000000000000000000000000000000 SWAP5 DUP6 AND OR SWAP5 SWAP1 SWAP5 AND SWAP4 SWAP1 SWAP4 OR DUP4 SSTORE MLOAD PUSH1 0x1 SWAP1 SWAP3 ADD DUP1 SLOAD SWAP3 SWAP1 SWAP4 AND SWAP2 AND OR SWAP1 SSTORE SWAP1 MLOAD PUSH32 0xCEC6FC86EA644053F6EDFF1160DFE3FA5C61E7A5EF9F873F145BB03A0BD319E7 SWAP1 PUSH2 0x1DA3 SWAP1 DUP10 SWAP1 DUP8 SWAP1 DUP7 SWAP1 PUSH2 0x60E2 JUMP JUMPDEST PUSH1 0x40 MLOAD DUP1 SWAP2 SUB SWAP1 LOG1 PUSH2 0x1DB5 DUP8 DUP10 PUSH2 0xACA JUMP JUMPDEST POP POP POP POP POP POP SWAP2 SWAP1 POP JUMP JUMPDEST PUSH1 0xB PUSH1 0x20 MSTORE PUSH1 0x0 SWAP1 DUP2 MSTORE PUSH1 0x40 SWAP1 KECCAK256 SLOAD DUP2 JUMP JUMPDEST PUSH1 0x60 PUSH1 0x2 DUP1 SLOAD DUP1 PUSH1 0x20 MUL PUSH1 0x20 ADD PUSH1 0x40 MLOAD SWAP1 DUP2 ADD PUSH1 0x40 MSTORE DUP1 SWAP3 SWAP2 SWAP1 DUP2 DUP2 MSTORE PUSH1 0x20 ADD DUP3 DUP1 SLOAD DUP1 ISZERO PUSH2 0x1E37 JUMPI PUSH1 0x20 MUL DUP3 ADD SWAP2 SWAP1 PUSH1 0x0 MSTORE PUSH1 0x20 PUSH1 0x0 KECCAK256 SWAP1 JUMPDEST DUP2 SLOAD PUSH20 0xFFFFFFFFFFFFFFFFFFFFFFFFFFFFFFFFFFFFFFFF AND DUP2 MSTORE PUSH1 0x1 SWAP1 SWAP2 ADD SWAP1 PUSH1 0x20 ADD DUP1 DUP4 GT PUSH2 0x1E0C JUMPI JUMPDEST POP POP POP POP POP SWAP1 POP SWAP1 JUMP JUMPDEST PUSH20 0xBA7F8B5FB1B19C1211C5D49550FCD149177A5EAF SWAP1 JUMP JUMPDEST PUSH1 0x12 SLOAD PUSH4 0xFFFFFFFF AND DUP2 JUMP JUMPDEST PUSH2 0x1E6D PUSH2 0x25AE JUMP JUMPDEST PUSH2 0x1E75 PUSH2 0x341A JUMP JUMPDEST PUSH2 0x1E7D PUSH2 0x342D JUMP JUMPDEST JUMP JUMPDEST PUSH2 0x1E87 PUSH2 0x5B70 JUMP JUMPDEST PUSH1 0x1 PUSH1 0x0 MSTORE PUSH1 0x4 PUSH1 0x20 MSTORE PUSH2 0x1EBA PUSH32 0xABD6E7CB50984FF9C2F3E18A2660C3353DADF4E3291DEEB275DAE2CD1E44FE05 PUSH2 0x2679 JUMP JUMPDEST SWAP1 POP PUSH1 0x0 DUP3 PUSH1 0x1 DUP2 GT ISZERO PUSH2 0x1ECA JUMPI INVALID JUMPDEST EQ ISZERO PUSH2 0xD3A JUMPI PUSH1 0x0 PUSH2 0x1EDA PUSH2 0x1E41 JUMP JUMPDEST PUSH20 0xFFFFFFFFFFFFFFFFFFFFFFFFFFFFFFFFFFFFFFFF AND PUSH4 0x6B6DF5AA PUSH1 0x40 MLOAD DUP2 PUSH4 0xFFFFFFFF AND PUSH1 0xE0 SHL DUP2 MSTORE PUSH1 0x4 ADD PUSH1 0x20 PUSH1 0x40 MLOAD DUP1 DUP4 SUB DUP2 DUP7 DUP1 EXTCODESIZE ISZERO DUP1 ISZERO PUSH2 0x1F1F JUMPI PUSH1 0x0 DUP1 REVERT JUMPDEST POP GAS STATICCALL ISZERO DUP1 ISZERO PUSH2 0x1F33 JUMPI RETURNDATASIZE PUSH1 0x0 DUP1 RETURNDATACOPY RETURNDATASIZE PUSH1 0x0 REVERT JUMPDEST POP POP POP POP PUSH1 0x40 MLOAD RETURNDATASIZE PUSH1 0x1F NOT PUSH1 0x1F DUP3 ADD AND DUP3 ADD DUP1 PUSH1 0x40 MSTORE POP DUP2 ADD SWAP1 PUSH2 0x1F57 SWAP2 SWAP1 PUSH2 0x5F37 JUMP JUMPDEST SWAP1 POP PUSH2 0x1F86 PUSH2 0x1F81 DUP4 PUSH1 0x20 ADD MLOAD PUSH12 0xFFFFFFFFFFFFFFFFFFFFFFFF AND DUP4 PUSH2 0x23C7 SWAP1 SWAP2 SWAP1 PUSH4 0xFFFFFFFF AND JUMP JUMPDEST PUSH2 0x3458 JUMP JUMPDEST PUSH12 0xFFFFFFFFFFFFFFFFFFFFFFFF SWAP1 DUP2 AND PUSH1 0x20 DUP5 ADD MSTORE PUSH1 0x40 DUP4 ADD MLOAD PUSH2 0x1FB0 SWAP2 PUSH2 0x1F81 SWAP2 DUP5 SWAP2 AND PUSH2 0x23C7 JUMP JUMPDEST PUSH12 0xFFFFFFFFFFFFFFFFFFFFFFFF AND PUSH1 0x40 DUP4 ADD MSTORE POP SWAP2 SWAP1 POP JUMP JUMPDEST PUSH1 0x14 SLOAD PUSH5 0x100000000 SWAP1 DIV PUSH4 0xFFFFFFFF AND DUP2 JUMP JUMPDEST PUSH1 0x0 PUSH2 0x1FE7 PUSH2 0x5B70 JUMP JUMPDEST POP PUSH1 0x0 DUP4 DUP2 MSTORE PUSH1 0xA PUSH1 0x20 SWAP1 DUP2 MSTORE PUSH1 0x40 DUP1 DUP4 KECCAK256 DUP2 MLOAD PUSH1 0x60 DUP2 ADD DUP4 MSTORE DUP2 SLOAD PUSH20 0xFFFFFFFFFFFFFFFFFFFFFFFFFFFFFFFFFFFFFFFF DUP1 DUP3 AND DUP4 MSTORE PUSH21 0x10000000000000000000000000000000000000000 SWAP1 SWAP2 DIV PUSH4 0xFFFFFFFF AND SWAP5 DUP3 ADD SWAP5 SWAP1 SWAP5 MSTORE PUSH1 0x1 SWAP1 SWAP2 ADD SLOAD SWAP1 SWAP3 AND SWAP1 DUP3 ADD MSTORE SWAP1 DUP1 PUSH2 0x205B DUP7 PUSH2 0x3391 JUMP JUMPDEST SWAP2 POP SWAP2 POP PUSH1 0x0 PUSH2 0x2070 DUP5 PUSH1 0x20 ADD MLOAD DUP5 DUP5 PUSH2 0x33A7 JUMP JUMPDEST SWAP2 POP POP PUSH2 0x207F DUP8 DUP8 DUP4 DUP6 PUSH2 0x347C JUMP JUMPDEST SWAP8 SWAP7 POP POP POP POP POP POP POP JUMP JUMPDEST PUSH1 0x3 SLOAD PUSH20 0xFFFFFFFFFFFFFFFFFFFFFFFFFFFFFFFFFFFFFFFF AND DUP2 JUMP JUMPDEST PUSH20 0x4FBB350052BCA5417566F188EB2EBCE5B19BC964 SWAP1 JUMP JUMPDEST PUSH2 0x20C6 PUSH2 0x5B70 JUMP JUMPDEST PUSH20 0xFFFFFFFFFFFFFFFFFFFFFFFFFFFFFFFFFFFFFFFF DUP4 AND PUSH1 0x0 SWAP1 DUP2 MSTORE PUSH1 0x6 PUSH1 0x20 SWAP1 DUP2 MSTORE PUSH1 0x40 DUP1 DUP4 KECCAK256 DUP6 DUP5 MSTORE SWAP1 SWAP2 MSTORE SWAP1 KECCAK256 PUSH2 0x1180 SWAP1 PUSH2 0x2679 JUMP JUMPDEST PUSH2 0x2107 PUSH2 0x2829 JUMP JUMPDEST PUSH20 0xFFFFFFFFFFFFFFFFFFFFFFFFFFFFFFFFFFFFFFFF DUP2 AND PUSH2 0x2132 JUMPI PUSH2 0x212D PUSH2 0x9B9 PUSH2 0x35BD JUMP JUMPDEST PUSH2 0x1127 JUMP JUMPDEST PUSH1 0x0 DUP1 SLOAD PUSH32 0xFFFFFFFFFFFFFFFFFFFFFFFF0000000000000000000000000000000000000000 AND PUSH20 0xFFFFFFFFFFFFFFFFFFFFFFFFFFFFFFFFFFFFFFFF DUP4 AND SWAP1 DUP2 OR DUP3 SSTORE PUSH1 0x40 MLOAD SWAP1 SWAP2 CALLER SWAP2 PUSH32 0x8BE0079C531659141344CD1FD0A4F28419497F9722A3DAAFE3B4186F6B6457E0 SWAP2 SWAP1 LOG3 POP JUMP JUMPDEST PUSH2 0x21AB CALLER PUSH2 0x35F4 JUMP JUMPDEST ISZERO PUSH2 0x21B8 JUMPI PUSH2 0x21B8 PUSH2 0x25AE JUMP JUMPDEST PUSH1 0xC SLOAD PUSH1 0x0 PUSH2 0x21C8 DUP3 PUSH1 0x1 PUSH2 0x23C7 JUMP JUMPDEST SWAP1 POP PUSH2 0x21D2 PUSH2 0x5B41 JUMP JUMPDEST POP PUSH1 0x0 DUP2 DUP2 MSTORE PUSH1 0x16 PUSH1 0x20 SWAP1 DUP2 MSTORE PUSH1 0x40 SWAP2 DUP3 SWAP1 KECCAK256 DUP3 MLOAD PUSH1 0xA0 DUP2 ADD DUP5 MSTORE DUP2 SLOAD DUP2 MSTORE PUSH1 0x1 DUP3 ADD SLOAD SWAP3 DUP2 ADD DUP4 SWAP1 MSTORE PUSH1 0x2 DUP3 ADD SLOAD SWAP4 DUP2 ADD SWAP4 SWAP1 SWAP4 MSTORE PUSH1 0x3 DUP2 ADD SLOAD PUSH1 0x60 DUP5 ADD MSTORE PUSH1 0x4 ADD SLOAD PUSH1 0x80 DUP4 ADD MSTORE PUSH2 0x2227 JUMPI POP POP POP PUSH2 0x1127 JUMP JUMPDEST PUSH2 0x222F PUSH2 0x5B90 JUMP JUMPDEST POP PUSH1 0x0 DUP5 DUP2 MSTORE PUSH1 0x15 PUSH1 0x20 SWAP1 DUP2 MSTORE PUSH1 0x40 DUP1 DUP4 KECCAK256 DUP6 DUP5 MSTORE DUP3 MSTORE SWAP2 DUP3 SWAP1 KECCAK256 DUP3 MLOAD PUSH1 0x60 DUP2 ADD DUP5 MSTORE DUP2 SLOAD DUP1 DUP3 MSTORE PUSH1 0x1 DUP4 ADD SLOAD SWAP4 DUP3 ADD SWAP4 SWAP1 SWAP4 MSTORE PUSH1 0x2 SWAP1 SWAP2 ADD SLOAD SWAP3 DUP2 ADD SWAP3 SWAP1 SWAP3 MSTORE PUSH2 0x227D JUMPI POP POP POP POP PUSH2 0x1127 JUMP JUMPDEST PUSH1 0x0 DUP6 DUP2 MSTORE PUSH1 0x15 PUSH1 0x20 SWAP1 DUP2 MSTORE PUSH1 0x40 DUP1 DUP4 KECCAK256 DUP7 DUP5 MSTORE SWAP1 SWAP2 MSTORE DUP2 KECCAK256 DUP2 DUP2 SSTORE PUSH1 0x1 DUP2 ADD DUP3 SWAP1 SSTORE PUSH1 0x2 ADD DUP2 SWAP1 SSTORE PUSH2 0x22B0 DUP3 DUP5 PUSH2 0x35FA JUMP JUMPDEST SWAP1 POP PUSH1 0x0 DUP1 PUSH2 0x22C4 DUP9 DUP5 DUP7 PUSH1 0x40 ADD MLOAD PUSH2 0x38C7 JUMP JUMPDEST SWAP2 POP SWAP2 POP DUP8 DUP8 PUSH32 0xF1116B309178AA62DCB6BF8C3B8BC2321724907C7EBF52192D14C8CE3AA9194C DUP5 DUP5 PUSH1 0x40 MLOAD PUSH2 0x22FB SWAP3 SWAP2 SWAP1 PUSH2 0x6114 JUMP JUMPDEST PUSH1 0x40 MLOAD DUP1 SWAP2 SUB SWAP1 LOG3 PUSH1 0x0 PUSH2 0x230F DUP4 DUP4 PUSH2 0x3139 JUMP JUMPDEST PUSH1 0x80 DUP8 ADD MLOAD SWAP1 SWAP2 POP PUSH2 0x2321 SWAP1 DUP3 PUSH2 0x3139 JUMP JUMPDEST PUSH1 0x80 DUP8 ADD DUP2 SWAP1 MSTORE PUSH1 0x0 DUP9 DUP2 MSTORE PUSH1 0x16 PUSH1 0x20 SWAP1 DUP2 MSTORE PUSH1 0x40 SWAP1 SWAP2 KECCAK256 PUSH1 0x4 ADD SWAP2 SWAP1 SWAP2 SSTORE DUP7 ADD MLOAD PUSH2 0x234E SWAP1 PUSH1 0x1 PUSH2 0x23C7 JUMP JUMPDEST PUSH1 0x20 DUP1 DUP9 ADD DUP3 DUP2 MSTORE PUSH1 0x0 DUP11 DUP2 MSTORE PUSH1 0x16 SWAP1 SWAP3 MSTORE PUSH1 0x40 SWAP1 SWAP2 KECCAK256 PUSH1 0x1 ADD SWAP2 SWAP1 SWAP2 SSTORE MLOAD PUSH2 0x1709 JUMPI PUSH1 0x80 DUP7 ADD MLOAD DUP7 MLOAD DUP9 SWAP2 PUSH32 0xB463D19ECF455BE65365092CF8E1DB6934A0334CF8CD532DDF9964D01F36B5B2 SWAP2 PUSH2 0x23A6 SWAP1 DUP3 PUSH2 0x23C7 JUMP JUMPDEST PUSH1 0x40 MLOAD PUSH2 0x23B4 SWAP3 SWAP2 SWAP1 PUSH2 0x6114 JUMP JUMPDEST PUSH1 0x40 MLOAD DUP1 SWAP2 SUB SWAP1 LOG2 POP POP POP POP POP POP POP POP POP JUMP JUMPDEST PUSH1 0x0 DUP3 DUP3 GT ISZERO PUSH2 0x23E0 JUMPI PUSH2 0x23E0 PUSH2 0x9B9 PUSH1 0x2 DUP6 DUP6 PUSH2 0x3A2A JUMP JUMPDEST POP SWAP1 SUB SWAP1 JUMP JUMPDEST PUSH1 0x40 DUP1 MLOAD PUSH1 0x24 DUP2 ADD DUP5 SWAP1 MSTORE PUSH1 0x44 DUP1 DUP3 ADD DUP5 SWAP1 MSTORE DUP3 MLOAD DUP1 DUP4 SUB SWAP1 SWAP2 ADD DUP2 MSTORE PUSH1 0x64 SWAP1 SWAP2 ADD SWAP1 SWAP2 MSTORE PUSH1 0x20 DUP2 ADD DUP1 MLOAD PUSH28 0xFFFFFFFFFFFFFFFFFFFFFFFFFFFFFFFFFFFFFFFFFFFFFFFFFFFFFFFF AND PUSH32 0x614B800A00000000000000000000000000000000000000000000000000000000 OR SWAP1 MSTORE SWAP3 SWAP2 POP POP JUMP JUMPDEST DUP1 MLOAD PUSH1 0x20 DUP3 ADD REVERT JUMPDEST SELFBALANCE DUP1 ISZERO PUSH2 0x1127 JUMPI PUSH2 0x2470 PUSH2 0x10DF JUMP JUMPDEST PUSH20 0xFFFFFFFFFFFFFFFFFFFFFFFFFFFFFFFFFFFFFFFF AND PUSH4 0xD0E30DB0 DUP3 PUSH1 0x40 MLOAD DUP3 PUSH4 0xFFFFFFFF AND PUSH1 0xE0 SHL DUP2 MSTORE PUSH1 0x4 ADD PUSH1 0x0 PUSH1 0x40 MLOAD DUP1 DUP4 SUB DUP2 DUP6 DUP9 DUP1 EXTCODESIZE ISZERO DUP1 ISZERO PUSH2 0x24B7 JUMPI PUSH1 0x0 DUP1 REVERT JUMPDEST POP GAS CALL ISZERO DUP1 ISZERO PUSH2 0x24CB JUMPI RETURNDATASIZE PUSH1 0x0 DUP1 RETURNDATACOPY RETURNDATASIZE PUSH1 0x0 REVERT JUMPDEST POP POP POP POP POP POP JUMP JUMPDEST PUSH1 0x0 PUSH2 0x1A83 PUSH1 0x17 SLOAD PUSH2 0x24E3 PUSH2 0x10DF JUMP JUMPDEST PUSH20 0xFFFFFFFFFFFFFFFFFFFFFFFFFFFFFFFFFFFFFFFF AND PUSH4 0x70A08231 ADDRESS PUSH1 0x40 MLOAD DUP3 PUSH4 0xFFFFFFFF AND PUSH1 0xE0 SHL DUP2 MSTORE PUSH1 0x4 ADD PUSH2 0x251B SWAP2 SWAP1 PUSH2 0x5FFC JUMP JUMPDEST PUSH1 0x20 PUSH1 0x40 MLOAD DUP1 DUP4 SUB DUP2 DUP7 DUP1 EXTCODESIZE ISZERO DUP1 ISZERO PUSH2 0x2533 JUMPI PUSH1 0x0 DUP1 REVERT JUMPDEST POP GAS STATICCALL ISZERO DUP1 ISZERO PUSH2 0x2547 JUMPI RETURNDATASIZE PUSH1 0x0 DUP1 RETURNDATACOPY RETURNDATASIZE PUSH1 0x0 REVERT JUMPDEST POP POP POP POP PUSH1 0x40 MLOAD RETURNDATASIZE PUSH1 0x1F NOT PUSH1 0x1F DUP3 ADD AND DUP3 ADD DUP1 PUSH1 0x40 MSTORE POP DUP2 ADD SWAP1 PUSH2 0x256B SWAP2 SWAP1 PUSH2 0x5F37 JUMP JUMPDEST SWAP1 PUSH2 0x23C7 JUMP JUMPDEST TIMESTAMP PUSH1 0x0 PUSH2 0x257C PUSH2 0x1A6A JUMP JUMPDEST SWAP1 POP DUP2 DUP2 GT ISZERO PUSH2 0x2593 JUMPI PUSH2 0x2593 PUSH2 0x9B9 DUP3 DUP5 PUSH2 0x3AC6 JUMP JUMPDEST PUSH1 0xC SLOAD PUSH1 0x0 SWAP1 PUSH2 0x25A4 SWAP1 PUSH1 0x1 PUSH2 0x3139 JUMP JUMPDEST PUSH1 0xC SSTORE POP POP PUSH1 0xD SSTORE JUMP JUMPDEST CALLER PUSH1 0x0 SWAP1 DUP2 MSTORE PUSH1 0x1 PUSH1 0x20 MSTORE PUSH1 0x40 SWAP1 KECCAK256 SLOAD PUSH1 0xFF AND PUSH2 0x1E7D JUMPI PUSH2 0x1E7D PUSH2 0x9B9 CALLER PUSH2 0x3B39 JUMP JUMPDEST PUSH1 0x60 PUSH4 0xB9588E43 PUSH1 0xE0 SHL DUP4 DUP4 PUSH1 0x40 MLOAD PUSH1 0x24 ADD DUP1 DUP4 PUSH1 0x1 DUP2 GT ISZERO PUSH2 0x25F0 JUMPI INVALID JUMPDEST DUP2 MSTORE PUSH20 0xFFFFFFFFFFFFFFFFFFFFFFFFFFFFFFFFFFFFFFFF SWAP1 SWAP3 AND PUSH1 0x20 DUP1 DUP5 ADD SWAP2 SWAP1 SWAP2 MSTORE PUSH1 0x40 DUP1 MLOAD DUP1 DUP6 SUB DUP4 ADD DUP2 MSTORE SWAP4 DUP2 ADD SWAP1 MSTORE DUP3 ADD DUP1 MLOAD PUSH28 0xFFFFFFFFFFFFFFFFFFFFFFFFFFFFFFFFFFFFFFFFFFFFFFFFFFFFFFFF AND PUSH32 0xFFFFFFFF00000000000000000000000000000000000000000000000000000000 SWAP1 SWAP6 AND SWAP5 SWAP1 SWAP5 OR SWAP1 SWAP4 MSTORE SWAP6 SWAP5 POP POP POP POP POP JUMP JUMPDEST PUSH2 0x2681 PUSH2 0x5B70 JUMP JUMPDEST POP PUSH1 0x40 DUP1 MLOAD PUSH1 0x60 DUP2 ADD DUP3 MSTORE DUP3 SLOAD PUSH8 0xFFFFFFFFFFFFFFFF DUP2 AND DUP1 DUP4 MSTORE PUSH12 0xFFFFFFFFFFFFFFFFFFFFFFFF PUSH9 0x10000000000000000 DUP4 DIV DUP2 AND PUSH1 0x20 DUP6 ADD MSTORE PUSH21 0x10000000000000000000000000000000000000000 SWAP1 SWAP3 DIV SWAP1 SWAP2 AND SWAP3 DUP3 ADD SWAP3 SWAP1 SWAP3 MSTORE PUSH1 0xC SLOAD SWAP1 SWAP2 DUP2 GT ISZERO PUSH2 0x2719 JUMPI PUSH2 0x26F4 DUP2 PUSH2 0x3BBC JUMP JUMPDEST PUSH8 0xFFFFFFFFFFFFFFFF AND DUP3 MSTORE PUSH1 0x40 DUP3 ADD MLOAD PUSH12 0xFFFFFFFFFFFFFFFFFFFFFFFF AND PUSH1 0x20 DUP4 ADD MSTORE JUMPDEST POP SWAP2 SWAP1 POP JUMP JUMPDEST PUSH1 0x0 DUP2 DUP4 LT PUSH2 0x272E JUMPI DUP2 PUSH2 0x1180 JUMP JUMPDEST POP SWAP1 SWAP2 SWAP1 POP JUMP JUMPDEST PUSH1 0x40 DUP1 MLOAD PUSH1 0x24 DUP2 ADD DUP5 SWAP1 MSTORE PUSH1 0x44 DUP1 DUP3 ADD DUP5 SWAP1 MSTORE DUP3 MLOAD DUP1 DUP4 SUB SWAP1 SWAP2 ADD DUP2 MSTORE PUSH1 0x64 SWAP1 SWAP2 ADD SWAP1 SWAP2 MSTORE PUSH1 0x20 DUP2 ADD DUP1 MLOAD PUSH28 0xFFFFFFFFFFFFFFFFFFFFFFFFFFFFFFFFFFFFFFFFFFFFFFFFFFFFFFFF AND PUSH32 0x84C8B7C900000000000000000000000000000000000000000000000000000000 OR SWAP1 MSTORE SWAP3 SWAP2 POP POP JUMP JUMPDEST PUSH2 0x27B0 PUSH2 0x5B70 JUMP JUMPDEST PUSH2 0x27B9 DUP4 PUSH2 0x2679 JUMP JUMPDEST SWAP1 POP PUSH2 0x27E3 PUSH2 0x1F81 DUP4 DUP4 PUSH1 0x40 ADD MLOAD PUSH12 0xFFFFFFFFFFFFFFFFFFFFFFFF AND PUSH2 0x23C7 SWAP1 SWAP2 SWAP1 PUSH4 0xFFFFFFFF AND JUMP JUMPDEST PUSH12 0xFFFFFFFFFFFFFFFFFFFFFFFF SWAP1 DUP2 AND PUSH1 0x40 DUP4 ADD MSTORE PUSH1 0x20 DUP3 ADD MLOAD PUSH2 0x280C SWAP2 PUSH2 0x1F81 SWAP2 AND DUP5 PUSH2 0x23C7 JUMP JUMPDEST PUSH12 0xFFFFFFFFFFFFFFFFFFFFFFFF AND PUSH1 0x20 DUP3 ADD MSTORE PUSH2 0x1496 DUP4 DUP3 PUSH2 0x3BDC JUMP JUMPDEST PUSH1 0x0 SLOAD PUSH20 0xFFFFFFFFFFFFFFFFFFFFFFFFFFFFFFFFFFFFFFFF AND CALLER EQ PUSH2 0x1E7D JUMPI PUSH1 0x0 SLOAD PUSH2 0x1E7D SWAP1 PUSH2 0x9B9 SWAP1 CALLER SWAP1 PUSH20 0xFFFFFFFFFFFFFFFFFFFFFFFFFFFFFFFFFFFFFFFF AND PUSH2 0x3C96 JUMP JUMPDEST PUSH20 0xFFFFFFFFFFFFFFFFFFFFFFFFFFFFFFFFFFFFFFFF DUP2 AND PUSH2 0x2896 JUMPI PUSH2 0x2896 PUSH2 0x9B9 PUSH2 0x3D22 JUMP JUMPDEST PUSH20 0xFFFFFFFFFFFFFFFFFFFFFFFFFFFFFFFFFFFFFFFF DUP2 AND PUSH1 0x0 SWAP1 DUP2 MSTORE PUSH1 0x1 PUSH1 0x20 MSTORE PUSH1 0x40 SWAP1 KECCAK256 SLOAD PUSH1 0xFF AND ISZERO PUSH2 0x28D0 JUMPI PUSH2 0x28D0 PUSH2 0x9B9 DUP3 PUSH2 0x3D59 JUMP JUMPDEST PUSH20 0xFFFFFFFFFFFFFFFFFFFFFFFFFFFFFFFFFFFFFFFF DUP2 AND PUSH1 0x0 DUP2 DUP2 MSTORE PUSH1 0x1 PUSH1 0x20 DUP2 SWAP1 MSTORE PUSH1 0x40 DUP1 DUP4 KECCAK256 DUP1 SLOAD PUSH32 0xFFFFFFFFFFFFFFFFFFFFFFFFFFFFFFFFFFFFFFFFFFFFFFFFFFFFFFFFFFFFFF00 AND DUP4 OR SWAP1 SSTORE PUSH1 0x2 DUP1 SLOAD SWAP3 DUP4 ADD DUP2 SSTORE DUP4 MSTORE PUSH32 0x405787FA12A823E0F2B7631CC41B3BA8828B3321CA811111FA75CD3AA3BB5ACE SWAP1 SWAP2 ADD DUP1 SLOAD PUSH32 0xFFFFFFFFFFFFFFFFFFFFFFFF0000000000000000000000000000000000000000 AND DUP5 OR SWAP1 SSTORE MLOAD CALLER SWAP3 SWAP2 PUSH32 0x3147867C59D17E8FA9D522465651D44AAE0A9E38F902F3475B97E58072F0ED4C SWAP2 LOG3 POP JUMP JUMPDEST PUSH2 0x29AA DUP4 PUSH2 0x3DDC JUMP JUMPDEST PUSH2 0x29B4 DUP4 DUP4 PUSH2 0x31B9 JUMP JUMPDEST PUSH20 0xFFFFFFFFFFFFFFFFFFFFFFFFFFFFFFFFFFFFFFFF DUP3 AND PUSH1 0x0 SWAP1 DUP2 MSTORE PUSH1 0x6 PUSH1 0x20 SWAP1 DUP2 MSTORE PUSH1 0x40 DUP1 DUP4 KECCAK256 DUP7 DUP5 MSTORE SWAP1 SWAP2 MSTORE SWAP1 KECCAK256 PUSH2 0x29EE SWAP1 DUP3 PUSH2 0x3E13 JUMP JUMPDEST PUSH1 0x0 DUP4 DUP2 MSTORE PUSH1 0x7 PUSH1 0x20 MSTORE PUSH1 0x40 SWAP1 KECCAK256 PUSH2 0x2A06 SWAP1 DUP3 PUSH2 0x3E13 JUMP JUMPDEST PUSH1 0x1 PUSH1 0x0 MSTORE PUSH1 0x4 PUSH1 0x20 MSTORE PUSH2 0x1496 PUSH32 0xABD6E7CB50984FF9C2F3E18A2660C3353DADF4E3291DEEB275DAE2CD1E44FE05 DUP3 PUSH2 0x3E13 JUMP JUMPDEST PUSH2 0x2A43 DUP4 PUSH2 0x3DDC JUMP JUMPDEST PUSH2 0x2A4D DUP4 DUP4 PUSH2 0x31B9 JUMP JUMPDEST PUSH20 0xFFFFFFFFFFFFFFFFFFFFFFFFFFFFFFFFFFFFFFFF DUP3 AND PUSH1 0x0 SWAP1 DUP2 MSTORE PUSH1 0x6 PUSH1 0x20 SWAP1 DUP2 MSTORE PUSH1 0x40 DUP1 DUP4 KECCAK256 DUP7 DUP5 MSTORE SWAP1 SWAP2 MSTORE SWAP1 KECCAK256 PUSH2 0x2A87 SWAP1 DUP3 PUSH2 0x3E6B JUMP JUMPDEST PUSH1 0x0 DUP4 DUP2 MSTORE PUSH1 0x7 PUSH1 0x20 MSTORE PUSH1 0x40 SWAP1 KECCAK256 PUSH2 0x2A9F SWAP1 DUP3 PUSH2 0x3E6B JUMP JUMPDEST PUSH1 0x1 PUSH1 0x0 MSTORE PUSH1 0x4 PUSH1 0x20 MSTORE PUSH2 0x1496 PUSH32 0xABD6E7CB50984FF9C2F3E18A2660C3353DADF4E3291DEEB275DAE2CD1E44FE05 DUP3 PUSH2 0x3E6B JUMP JUMPDEST PUSH2 0x2ADD DUP4 DUP4 PUSH2 0x3EA6 JUMP JUMPDEST ISZERO PUSH2 0x2AE7 JUMPI PUSH2 0x1496 JUMP JUMPDEST PUSH2 0x2AEF PUSH2 0x5B70 JUMP JUMPDEST PUSH2 0x2AF8 DUP5 PUSH2 0x2679 JUMP JUMPDEST SWAP1 POP PUSH2 0x2B02 PUSH2 0x5B70 JUMP JUMPDEST PUSH2 0x2B0B DUP5 PUSH2 0x2679 JUMP JUMPDEST SWAP1 POP DUP2 PUSH1 0x40 ADD MLOAD PUSH12 0xFFFFFFFFFFFFFFFFFFFFFFFF AND DUP4 GT ISZERO PUSH2 0x2B46 JUMPI PUSH2 0x2B46 PUSH2 0x9B9 DUP5 DUP5 PUSH1 0x40 ADD MLOAD PUSH12 0xFFFFFFFFFFFFFFFFFFFFFFFF AND PUSH2 0x2735 JUMP JUMPDEST PUSH1 0x40 DUP3 ADD MLOAD PUSH2 0x2B67 SWAP1 PUSH2 0x1F81 SWAP1 PUSH12 0xFFFFFFFFFFFFFFFFFFFFFFFF AND DUP6 PUSH2 0x23C7 JUMP JUMPDEST PUSH12 0xFFFFFFFFFFFFFFFFFFFFFFFF SWAP1 DUP2 AND PUSH1 0x40 DUP1 DUP6 ADD SWAP2 SWAP1 SWAP2 MSTORE DUP3 ADD MLOAD PUSH2 0x2B92 SWAP2 PUSH2 0x1F81 SWAP2 AND DUP6 PUSH2 0x3139 JUMP JUMPDEST PUSH12 0xFFFFFFFFFFFFFFFFFFFFFFFF AND PUSH1 0x40 DUP3 ADD MSTORE PUSH2 0x2BAF DUP6 DUP4 PUSH2 0x3BDC JUMP JUMPDEST PUSH2 0x2BB9 DUP5 DUP3 PUSH2 0x3BDC JUMP JUMPDEST POP POP POP POP POP JUMP JUMPDEST PUSH1 0x0 DUP2 DUP2 MSTORE PUSH1 0xA PUSH1 0x20 MSTORE PUSH1 0x40 SWAP1 KECCAK256 SLOAD PUSH20 0xFFFFFFFFFFFFFFFFFFFFFFFFFFFFFFFFFFFFFFFF AND CALLER DUP2 EQ PUSH2 0x1644 JUMPI PUSH2 0x1644 PUSH2 0x9B9 CALLER DUP5 PUSH2 0x3EAD JUMP JUMPDEST PUSH3 0xF4240 PUSH4 0xFFFFFFFF DUP3 AND GT ISZERO PUSH2 0x2C1E JUMPI PUSH2 0x2C19 PUSH2 0x9B9 PUSH1 0x0 DUP6 DUP5 PUSH2 0x3F35 JUMP JUMPDEST PUSH2 0x1496 JUMP JUMPDEST DUP2 PUSH4 0xFFFFFFFF AND DUP2 PUSH4 0xFFFFFFFF AND GT ISZERO PUSH2 0x1496 JUMPI PUSH2 0x1496 PUSH2 0x9B9 PUSH1 0x1 DUP6 DUP5 PUSH2 0x3F35 JUMP JUMPDEST PUSH1 0x40 DUP1 MLOAD PUSH20 0xFFFFFFFFFFFFFFFFFFFFFFFFFFFFFFFFFFFFFFFF DUP4 AND PUSH1 0x24 DUP1 DUP4 ADD SWAP2 SWAP1 SWAP2 MSTORE DUP3 MLOAD DUP1 DUP4 SUB SWAP1 SWAP2 ADD DUP2 MSTORE PUSH1 0x44 SWAP1 SWAP2 ADD SWAP1 SWAP2 MSTORE PUSH1 0x20 DUP2 ADD DUP1 MLOAD PUSH28 0xFFFFFFFFFFFFFFFFFFFFFFFFFFFFFFFFFFFFFFFFFFFFFFFFFFFFFFFF AND PUSH32 0xEB5108A200000000000000000000000000000000000000000000000000000000 OR SWAP1 MSTORE SWAP2 SWAP1 POP JUMP JUMPDEST PUSH20 0xFFFFFFFFFFFFFFFFFFFFFFFFFFFFFFFFFFFFFFFF DUP3 AND PUSH1 0x0 SWAP1 DUP2 MSTORE PUSH1 0x1 PUSH1 0x20 MSTORE PUSH1 0x40 SWAP1 KECCAK256 SLOAD PUSH1 0xFF AND PUSH2 0x2CFD JUMPI PUSH2 0x2CFD PUSH2 0x9B9 DUP4 PUSH2 0x2C41 JUMP JUMPDEST PUSH1 0x2 SLOAD DUP2 LT PUSH2 0x2D18 JUMPI PUSH2 0x2D18 PUSH2 0x9B9 DUP3 PUSH1 0x2 DUP1 SLOAD SWAP1 POP PUSH2 0x3FD7 JUMP JUMPDEST DUP2 PUSH20 0xFFFFFFFFFFFFFFFFFFFFFFFFFFFFFFFFFFFFFFFF AND PUSH1 0x2 DUP3 DUP2 SLOAD DUP2 LT PUSH2 0x2D3C JUMPI INVALID JUMPDEST PUSH1 0x0 SWAP2 DUP3 MSTORE PUSH1 0x20 SWAP1 SWAP2 KECCAK256 ADD SLOAD PUSH20 0xFFFFFFFFFFFFFFFFFFFFFFFFFFFFFFFFFFFFFFFF AND EQ PUSH2 0x2D9E JUMPI PUSH2 0x2D9E PUSH2 0x9B9 PUSH1 0x2 DUP4 DUP2 SLOAD DUP2 LT PUSH2 0x2D76 JUMPI INVALID JUMPDEST PUSH1 0x0 SWAP2 DUP3 MSTORE PUSH1 0x20 SWAP1 SWAP2 KECCAK256 ADD SLOAD PUSH20 0xFFFFFFFFFFFFFFFFFFFFFFFFFFFFFFFFFFFFFFFF AND DUP5 PUSH2 0x404A JUMP JUMPDEST PUSH20 0xFFFFFFFFFFFFFFFFFFFFFFFFFFFFFFFFFFFFFFFF DUP3 AND PUSH1 0x0 SWAP1 DUP2 MSTORE PUSH1 0x1 PUSH1 0x20 MSTORE PUSH1 0x40 SWAP1 KECCAK256 DUP1 SLOAD PUSH32 0xFFFFFFFFFFFFFFFFFFFFFFFFFFFFFFFFFFFFFFFFFFFFFFFFFFFFFFFFFFFFFF00 AND SWAP1 SSTORE PUSH1 0x2 DUP1 SLOAD PUSH32 0xFFFFFFFFFFFFFFFFFFFFFFFFFFFFFFFFFFFFFFFFFFFFFFFFFFFFFFFFFFFFFFFF DUP2 ADD SWAP1 DUP2 LT PUSH2 0x2E19 JUMPI INVALID JUMPDEST PUSH1 0x0 SWAP2 DUP3 MSTORE PUSH1 0x20 SWAP1 SWAP2 KECCAK256 ADD SLOAD PUSH1 0x2 DUP1 SLOAD PUSH20 0xFFFFFFFFFFFFFFFFFFFFFFFFFFFFFFFFFFFFFFFF SWAP1 SWAP3 AND SWAP2 DUP4 SWAP1 DUP2 LT PUSH2 0x2E4C JUMPI INVALID JUMPDEST SWAP1 PUSH1 0x0 MSTORE PUSH1 0x20 PUSH1 0x0 KECCAK256 ADD PUSH1 0x0 PUSH2 0x100 EXP DUP2 SLOAD DUP2 PUSH20 0xFFFFFFFFFFFFFFFFFFFFFFFFFFFFFFFFFFFFFFFF MUL NOT AND SWAP1 DUP4 PUSH20 0xFFFFFFFFFFFFFFFFFFFFFFFFFFFFFFFFFFFFFFFF AND MUL OR SWAP1 SSTORE POP PUSH1 0x2 DUP1 SLOAD DUP1 PUSH2 0x2E9F JUMPI INVALID JUMPDEST PUSH1 0x0 DUP3 DUP2 MSTORE PUSH1 0x20 DUP2 KECCAK256 DUP3 ADD PUSH32 0xFFFFFFFFFFFFFFFFFFFFFFFFFFFFFFFFFFFFFFFFFFFFFFFFFFFFFFFFFFFFFFFF SWAP1 DUP2 ADD DUP1 SLOAD PUSH32 0xFFFFFFFFFFFFFFFFFFFFFFFF0000000000000000000000000000000000000000 AND SWAP1 SSTORE SWAP1 SWAP2 ADD SWAP1 SWAP2 SSTORE PUSH1 0x40 MLOAD CALLER SWAP2 PUSH20 0xFFFFFFFFFFFFFFFFFFFFFFFFFFFFFFFFFFFFFFFF DUP6 AND SWAP2 PUSH32 0x1F32C1B084E2DE0713B8FB16BD46BB9DF710A3DBEAE2F3CA93AF46E016DCC6B0 SWAP2 SWAP1 LOG3 POP POP JUMP JUMPDEST PUSH1 0x11 DUP6 SWAP1 SSTORE PUSH1 0x12 DUP1 SLOAD PUSH4 0xFFFFFFFF DUP1 DUP8 AND PUSH32 0xFFFFFFFFFFFFFFFFFFFFFFFFFFFFFFFFFFFFFFFFFFFFFFFFFFFFFFFF00000000 SWAP3 DUP4 AND DUP2 OR SWAP1 SWAP4 SSTORE PUSH1 0x13 DUP7 SWAP1 SSTORE PUSH1 0x14 DUP1 SLOAD DUP6 DUP4 AND PUSH5 0x100000000 DUP2 MUL PUSH32 0xFFFFFFFFFFFFFFFFFFFFFFFFFFFFFFFFFFFFFFFFFFFFFFFF00000000FFFFFFFF SWAP5 DUP10 AND SWAP3 SWAP1 SWAP6 AND DUP3 OR SWAP4 SWAP1 SWAP4 AND SWAP4 SWAP1 SWAP4 OR SWAP1 SSTORE PUSH1 0x40 DUP1 MLOAD DUP10 DUP2 MSTORE PUSH1 0x20 DUP2 ADD SWAP5 SWAP1 SWAP5 MSTORE DUP4 DUP2 ADD DUP8 SWAP1 MSTORE PUSH1 0x60 DUP5 ADD SWAP3 SWAP1 SWAP3 MSTORE PUSH1 0x80 DUP4 ADD MSTORE MLOAD PUSH32 0x613157DBB0E920DEAB8AD6DDD3805E87CBF57344B9FE780F1764790EC7897542 SWAP2 DUP2 SWAP1 SUB PUSH1 0xA0 ADD SWAP1 LOG1 POP POP POP POP POP JUMP JUMPDEST PUSH1 0x40 DUP1 MLOAD PUSH20 0xFFFFFFFFFFFFFFFFFFFFFFFFFFFFFFFFFFFFFFFF DUP4 AND PUSH1 0x24 DUP1 DUP4 ADD SWAP2 SWAP1 SWAP2 MSTORE DUP3 MLOAD DUP1 DUP4 SUB SWAP1 SWAP2 ADD DUP2 MSTORE PUSH1 0x44 SWAP1 SWAP2 ADD SWAP1 SWAP2 MSTORE PUSH1 0x20 DUP2 ADD DUP1 MLOAD PUSH28 0xFFFFFFFFFFFFFFFFFFFFFFFFFFFFFFFFFFFFFFFFFFFFFFFFFFFFFFFF AND PUSH32 0xB56D2DF000000000000000000000000000000000000000000000000000000000 OR SWAP1 MSTORE SWAP2 SWAP1 POP JUMP JUMPDEST DUP1 CALLVALUE EQ ISZERO DUP1 ISZERO PUSH2 0x30A7 JUMPI POP CALLVALUE ISZERO ISZERO JUMPDEST ISZERO PUSH2 0x1127 JUMPI PUSH2 0x1127 PUSH2 0x9B9 DUP3 CALLVALUE PUSH2 0x40D6 JUMP JUMPDEST PUSH1 0x0 DUP3 DUP2 MSTORE PUSH1 0xA PUSH1 0x20 MSTORE PUSH1 0x40 DUP2 KECCAK256 SLOAD DUP2 SWAP1 DUP2 SWAP1 PUSH2 0x30EC SWAP1 PUSH20 0xFFFFFFFFFFFFFFFFFFFFFFFFFFFFFFFFFFFFFFFF AND DUP7 PUSH2 0x20BE JUMP JUMPDEST PUSH1 0x20 ADD MLOAD PUSH12 0xFFFFFFFFFFFFFFFFFFFFFFFF AND SWAP1 POP PUSH2 0x310A DUP5 DUP3 PUSH2 0x23C7 JUMP JUMPDEST PUSH1 0x12 SLOAD SWAP1 SWAP4 POP PUSH2 0x312F SWAP1 PUSH2 0x3128 SWAP1 PUSH4 0xFFFFFFFF AND PUSH3 0xF4240 DUP7 PUSH2 0x4149 JUMP JUMPDEST DUP3 SWAP1 PUSH2 0x3139 JUMP JUMPDEST SWAP2 POP POP SWAP3 POP SWAP3 SWAP1 POP JUMP JUMPDEST PUSH1 0x0 DUP3 DUP3 ADD DUP4 DUP2 LT ISZERO PUSH2 0x1180 JUMPI PUSH2 0x1180 PUSH2 0x9B9 PUSH1 0x0 DUP7 DUP7 PUSH2 0x3A2A JUMP JUMPDEST PUSH2 0x315D PUSH2 0x5B70 JUMP JUMPDEST PUSH2 0x3166 DUP4 PUSH2 0x2679 JUMP JUMPDEST SWAP1 POP PUSH2 0x3190 PUSH2 0x1F81 DUP4 DUP4 PUSH1 0x40 ADD MLOAD PUSH12 0xFFFFFFFFFFFFFFFFFFFFFFFF AND PUSH2 0x3139 SWAP1 SWAP2 SWAP1 PUSH4 0xFFFFFFFF AND JUMP JUMPDEST PUSH12 0xFFFFFFFFFFFFFFFFFFFFFFFF SWAP1 DUP2 AND PUSH1 0x40 DUP4 ADD MSTORE PUSH1 0x20 DUP3 ADD MLOAD PUSH2 0x280C SWAP2 PUSH2 0x1F81 SWAP2 AND DUP5 PUSH2 0x3139 JUMP JUMPDEST PUSH2 0x31C2 DUP3 PUSH2 0x415F JUMP JUMPDEST PUSH1 0x0 PUSH2 0x31D1 DUP4 DUP4 PUSH1 0x0 DUP1 PUSH2 0x347C JUMP JUMPDEST PUSH20 0xFFFFFFFFFFFFFFFFFFFFFFFFFFFFFFFFFFFFFFFF DUP4 AND PUSH1 0x0 SWAP1 DUP2 MSTORE PUSH1 0x6 PUSH1 0x20 SWAP1 DUP2 MSTORE PUSH1 0x40 DUP1 DUP4 KECCAK256 DUP8 DUP5 MSTORE SWAP1 SWAP2 MSTORE SWAP1 KECCAK256 SWAP1 SWAP2 POP PUSH2 0x320D SWAP1 PUSH2 0x2679 JUMP JUMPDEST PUSH20 0xFFFFFFFFFFFFFFFFFFFFFFFFFFFFFFFFFFFFFFFF DUP4 DUP2 AND PUSH1 0x0 SWAP1 DUP2 MSTORE PUSH1 0x6 PUSH1 0x20 SWAP1 DUP2 MSTORE PUSH1 0x40 DUP1 DUP4 KECCAK256 DUP9 DUP5 MSTORE DUP3 MSTORE SWAP2 DUP3 SWAP1 KECCAK256 DUP5 MLOAD DUP2 SLOAD SWAP3 DUP7 ADD MLOAD SWAP6 SWAP1 SWAP4 ADD MLOAD PUSH32 0xFFFFFFFFFFFFFFFFFFFFFFFFFFFFFFFFFFFFFFFFFFFFFFFF0000000000000000 SWAP1 SWAP3 AND PUSH8 0xFFFFFFFFFFFFFFFF SWAP1 SWAP4 AND SWAP3 SWAP1 SWAP3 OR PUSH32 0xFFFFFFFFFFFFFFFFFFFFFFFF000000000000000000000000FFFFFFFFFFFFFFFF AND PUSH9 0x10000000000000000 PUSH12 0xFFFFFFFFFFFFFFFFFFFFFFFF SWAP6 DUP7 AND MUL OR SWAP1 SWAP3 AND PUSH21 0x10000000000000000000000000000000000000000 SWAP4 SWAP1 SWAP3 AND SWAP3 SWAP1 SWAP3 MUL OR SWAP1 SSTORE DUP1 ISZERO PUSH2 0x3388 JUMPI PUSH2 0x32F2 DUP4 DUP3 PUSH2 0x4168 JUMP JUMPDEST PUSH2 0x32FA PUSH2 0x10DF JUMP JUMPDEST PUSH20 0xFFFFFFFFFFFFFFFFFFFFFFFFFFFFFFFFFFFFFFFF AND PUSH4 0xA9059CBB DUP4 DUP4 PUSH1 0x40 MLOAD DUP4 PUSH4 0xFFFFFFFF AND PUSH1 0xE0 SHL DUP2 MSTORE PUSH1 0x4 ADD PUSH2 0x3334 SWAP3 SWAP2 SWAP1 PUSH2 0x604E JUMP JUMPDEST PUSH1 0x20 PUSH1 0x40 MLOAD DUP1 DUP4 SUB DUP2 PUSH1 0x0 DUP8 DUP1 EXTCODESIZE ISZERO DUP1 ISZERO PUSH2 0x334E JUMPI PUSH1 0x0 DUP1 REVERT JUMPDEST POP GAS CALL ISZERO DUP1 ISZERO PUSH2 0x3362 JUMPI RETURNDATASIZE PUSH1 0x0 DUP1 RETURNDATACOPY RETURNDATASIZE PUSH1 0x0 REVERT JUMPDEST POP POP POP POP PUSH1 0x40 MLOAD RETURNDATASIZE PUSH1 0x1F NOT PUSH1 0x1F DUP3 ADD AND DUP3 ADD DUP1 PUSH1 0x40 MSTORE POP DUP2 ADD SWAP1 PUSH2 0x3386 SWAP2 SWAP1 PUSH2 0x5E36 JUMP JUMPDEST POP JUMPDEST PUSH2 0x1496 DUP4 PUSH2 0x41A4 JUMP JUMPDEST PUSH1 0x0 DUP1 PUSH2 0x339D DUP4 PUSH2 0x41B1 JUMP JUMPDEST SWAP1 SWAP5 SWAP1 SWAP4 POP SWAP2 POP POP JUMP JUMPDEST PUSH1 0x0 DUP1 DUP3 PUSH2 0x33B7 JUMPI DUP4 SWAP2 POP PUSH2 0x33DA JUMP JUMPDEST PUSH2 0x33CB PUSH4 0xFFFFFFFF DUP7 AND PUSH3 0xF4240 DUP7 PUSH2 0x41BD JUMP JUMPDEST SWAP2 POP PUSH2 0x33D7 DUP5 DUP4 PUSH2 0x23C7 JUMP JUMPDEST SWAP1 POP JUMPDEST SWAP4 POP SWAP4 SWAP2 POP POP JUMP JUMPDEST PUSH1 0x0 DUP2 DUP2 MSTORE PUSH1 0xA PUSH1 0x20 MSTORE PUSH1 0x40 SWAP1 KECCAK256 SLOAD PUSH20 0xFFFFFFFFFFFFFFFFFFFFFFFFFFFFFFFFFFFFFFFF AND ISZERO PUSH2 0x1127 JUMPI PUSH2 0x1127 PUSH2 0x9B9 DUP3 PUSH1 0x0 PUSH2 0x41E1 JUMP JUMPDEST PUSH2 0x3422 PUSH2 0x4255 JUMP JUMPDEST TIMESTAMP PUSH1 0xD SSTORE PUSH1 0x1 PUSH1 0xC SSTORE JUMP JUMPDEST PUSH2 0x3435 PUSH2 0x426A JUMP JUMPDEST PUSH3 0x127500 PUSH3 0xDBBA0 PUSH9 0x56BC75E2D63100000 PUSH1 0x2 PUSH1 0x3 PUSH2 0x2BB9 DUP6 DUP6 DUP6 DUP6 DUP6 PUSH2 0x2F3F JUMP JUMPDEST DUP1 PUSH12 0xFFFFFFFFFFFFFFFFFFFFFFFF DUP2 AND DUP2 EQ PUSH2 0xD3A JUMPI PUSH2 0xD3A PUSH2 0x9B9 PUSH1 0x2 DUP5 PUSH2 0x42CF JUMP JUMPDEST PUSH1 0xC SLOAD PUSH1 0x0 SWAP1 PUSH2 0x348A PUSH2 0x5B70 JUMP JUMPDEST POP PUSH20 0xFFFFFFFFFFFFFFFFFFFFFFFFFFFFFFFFFFFFFFFF DUP6 AND PUSH1 0x0 SWAP1 DUP2 MSTORE PUSH1 0x6 PUSH1 0x20 SWAP1 DUP2 MSTORE PUSH1 0x40 DUP1 DUP4 KECCAK256 DUP10 DUP5 MSTORE DUP3 MSTORE SWAP2 DUP3 SWAP1 KECCAK256 DUP3 MLOAD PUSH1 0x60 DUP2 ADD DUP5 MSTORE SWAP1 SLOAD PUSH8 0xFFFFFFFFFFFFFFFF DUP2 AND DUP1 DUP4 MSTORE PUSH12 0xFFFFFFFFFFFFFFFFFFFFFFFF PUSH9 0x10000000000000000 DUP4 DIV DUP2 AND SWAP5 DUP5 ADD SWAP5 SWAP1 SWAP5 MSTORE PUSH21 0x10000000000000000000000000000000000000000 SWAP1 SWAP2 DIV SWAP1 SWAP3 AND SWAP3 DUP2 ADD SWAP3 SWAP1 SWAP3 MSTORE DUP3 EQ ISZERO PUSH2 0x352B JUMPI PUSH1 0x0 SWAP3 POP POP POP PUSH2 0x35B5 JUMP JUMPDEST PUSH2 0x3537 DUP2 DUP4 DUP8 DUP8 PUSH2 0x4361 JUMP JUMPDEST DUP2 MLOAD SWAP1 SWAP4 POP PUSH1 0x0 SWAP1 PUSH2 0x3554 SWAP1 PUSH8 0xFFFFFFFFFFFFFFFF AND PUSH1 0x1 PUSH2 0x3139 JUMP JUMPDEST SWAP1 POP PUSH2 0x358C PUSH2 0x3585 DUP10 DUP5 PUSH1 0x20 ADD MLOAD PUSH12 0xFFFFFFFFFFFFFFFFFFFFFFFF AND DUP6 PUSH1 0x0 ADD MLOAD PUSH8 0xFFFFFFFFFFFFFFFF AND DUP6 PUSH2 0x43DE JUMP JUMPDEST DUP6 SWAP1 PUSH2 0x3139 JUMP JUMPDEST SWAP4 POP PUSH2 0x35AF PUSH2 0x3585 DUP10 DUP5 PUSH1 0x40 ADD MLOAD PUSH12 0xFFFFFFFFFFFFFFFFFFFFFFFF AND DUP5 DUP8 PUSH2 0x43DE JUMP JUMPDEST SWAP4 POP POP POP POP JUMPDEST SWAP5 SWAP4 POP POP POP POP JUMP JUMPDEST PUSH1 0x40 DUP1 MLOAD DUP1 DUP3 ADD SWAP1 SWAP2 MSTORE PUSH1 0x4 DUP2 MSTORE PUSH32 0xE69EDC3E00000000000000000000000000000000000000000000000000000000 PUSH1 0x20 DUP3 ADD MSTORE SWAP1 JUMP JUMPDEST EXTCODESIZE ISZERO ISZERO SWAP1 JUMP JUMPDEST DUP2 MLOAD PUSH1 0x0 SWAP1 PUSH2 0x3608 JUMPI PUSH2 0x1183 JUMP JUMPDEST PUSH1 0x0 PUSH2 0x3612 PUSH2 0x20A6 JUMP JUMPDEST PUSH20 0xFFFFFFFFFFFFFFFFFFFFFFFFFFFFFFFFFFFFFFFF AND PUSH4 0x7546172 PUSH1 0x40 MLOAD DUP2 PUSH4 0xFFFFFFFF AND PUSH1 0xE0 SHL DUP2 MSTORE PUSH1 0x4 ADD PUSH1 0x20 PUSH1 0x40 MLOAD DUP1 DUP4 SUB DUP2 DUP7 DUP1 EXTCODESIZE ISZERO DUP1 ISZERO PUSH2 0x3657 JUMPI PUSH1 0x0 DUP1 REVERT JUMPDEST POP GAS STATICCALL ISZERO DUP1 ISZERO PUSH2 0x366B JUMPI RETURNDATASIZE PUSH1 0x0 DUP1 RETURNDATACOPY RETURNDATASIZE PUSH1 0x0 REVERT JUMPDEST POP POP POP POP PUSH1 0x40 MLOAD RETURNDATASIZE PUSH1 0x1F NOT PUSH1 0x1F DUP3 ADD AND DUP3 ADD DUP1 PUSH1 0x40 MSTORE POP DUP2 ADD SWAP1 PUSH2 0x368F SWAP2 SWAP1 PUSH2 0x5CD6 JUMP JUMPDEST SWAP1 POP PUSH1 0x0 DUP2 PUSH20 0xFFFFFFFFFFFFFFFFFFFFFFFFFFFFFFFFFFFFFFFF AND PUSH4 0xE70EADC0 PUSH1 0x40 MLOAD DUP2 PUSH4 0xFFFFFFFF AND PUSH1 0xE0 SHL DUP2 MSTORE PUSH1 0x4 ADD PUSH1 0x20 PUSH1 0x40 MLOAD DUP1 DUP4 SUB DUP2 DUP7 DUP1 EXTCODESIZE ISZERO DUP1 ISZERO PUSH2 0x36D9 JUMPI PUSH1 0x0 DUP1 REVERT JUMPDEST POP GAS STATICCALL ISZERO DUP1 ISZERO PUSH2 0x36ED JUMPI RETURNDATASIZE PUSH1 0x0 DUP1 RETURNDATACOPY RETURNDATASIZE PUSH1 0x0 REVERT JUMPDEST POP POP POP POP PUSH1 0x40 MLOAD RETURNDATASIZE PUSH1 0x1F NOT PUSH1 0x1F DUP3 ADD AND DUP3 ADD DUP1 PUSH1 0x40 MSTORE POP DUP2 ADD SWAP1 PUSH2 0x3711 SWAP2 SWAP1 PUSH2 0x5CD6 JUMP JUMPDEST PUSH1 0x40 MLOAD PUSH32 0xF36766C100000000000000000000000000000000000000000000000000000000 DUP2 MSTORE PUSH20 0xFFFFFFFFFFFFFFFFFFFFFFFFFFFFFFFFFFFFFFFF SWAP2 SWAP1 SWAP2 AND SWAP1 PUSH4 0xF36766C1 SWAP1 PUSH2 0x3766 SWAP1 PUSH1 0x1 SWAP1 PUSH1 0x4 ADD PUSH2 0x60D9 JUMP JUMPDEST PUSH1 0x20 PUSH1 0x40 MLOAD DUP1 DUP4 SUB DUP2 DUP7 DUP1 EXTCODESIZE ISZERO DUP1 ISZERO PUSH2 0x377E JUMPI PUSH1 0x0 DUP1 REVERT JUMPDEST POP GAS STATICCALL ISZERO DUP1 ISZERO PUSH2 0x3792 JUMPI RETURNDATASIZE PUSH1 0x0 DUP1 RETURNDATACOPY RETURNDATASIZE PUSH1 0x0 REVERT JUMPDEST POP POP POP POP PUSH1 0x40 MLOAD RETURNDATASIZE PUSH1 0x1F NOT PUSH1 0x1F DUP3 ADD AND DUP3 ADD DUP1 PUSH1 0x40 MSTORE POP DUP2 ADD SWAP1 PUSH2 0x37B6 SWAP2 SWAP1 PUSH2 0x5F37 JUMP JUMPDEST SWAP1 POP PUSH1 0x0 DUP3 PUSH20 0xFFFFFFFFFFFFFFFFFFFFFFFFFFFFFFFFFFFFFFFF AND PUSH4 0xEF78D4FD PUSH1 0x40 MLOAD DUP2 PUSH4 0xFFFFFFFF AND PUSH1 0xE0 SHL DUP2 MSTORE PUSH1 0x4 ADD PUSH1 0x20 PUSH1 0x40 MLOAD DUP1 DUP4 SUB DUP2 DUP7 DUP1 EXTCODESIZE ISZERO DUP1 ISZERO PUSH2 0x3800 JUMPI PUSH1 0x0 DUP1 REVERT JUMPDEST POP GAS STATICCALL ISZERO DUP1 ISZERO PUSH2 0x3814 JUMPI RETURNDATASIZE PUSH1 0x0 DUP1 RETURNDATACOPY RETURNDATASIZE PUSH1 0x0 REVERT JUMPDEST POP POP POP POP PUSH1 0x40 MLOAD RETURNDATASIZE PUSH1 0x1F NOT PUSH1 0x1F DUP3 ADD AND DUP3 ADD DUP1 PUSH1 0x40 MSTORE POP DUP2 ADD SWAP1 PUSH2 0x3838 SWAP2 SWAP1 PUSH2 0x5F37 JUMP JUMPDEST SWAP1 POP PUSH1 0x0 PUSH2 0x3846 PUSH1 0x1 PUSH2 0x10F7 JUMP JUMPDEST PUSH1 0x20 SWAP1 DUP2 ADD MLOAD SWAP1 DUP9 ADD MLOAD PUSH1 0x60 DUP9 ADD MLOAD PUSH1 0x14 SLOAD PUSH12 0xFFFFFFFFFFFFFFFFFFFFFFFF SWAP1 SWAP4 AND SWAP4 POP PUSH4 0x1E13380 DUP6 DUP6 MUL DIV SWAP3 PUSH2 0x3897 SWAP3 DUP5 SWAP3 DUP9 SWAP3 DUP5 SWAP3 SWAP2 SWAP1 PUSH4 0xFFFFFFFF DUP1 DUP3 AND SWAP2 PUSH5 0x100000000 SWAP1 DIV AND PUSH2 0x4477 JUMP JUMPDEST PUSH1 0x80 DUP9 ADD MLOAD DUP9 MLOAD SWAP2 SWAP8 POP PUSH1 0x0 SWAP2 PUSH2 0x38AD SWAP2 PUSH2 0x23C7 JUMP JUMPDEST SWAP1 POP DUP7 DUP2 LT ISZERO PUSH2 0x38BB JUMPI DUP1 SWAP7 POP JUMPDEST POP POP POP POP POP POP SWAP3 SWAP2 POP POP JUMP JUMPDEST PUSH1 0x0 DUP1 PUSH2 0x38D2 PUSH2 0x5B70 JUMP JUMPDEST POP PUSH1 0x0 DUP6 DUP2 MSTORE PUSH1 0xA PUSH1 0x20 SWAP1 DUP2 MSTORE PUSH1 0x40 SWAP2 DUP3 SWAP1 KECCAK256 DUP3 MLOAD PUSH1 0x60 DUP2 ADD DUP5 MSTORE DUP2 SLOAD PUSH20 0xFFFFFFFFFFFFFFFFFFFFFFFFFFFFFFFFFFFFFFFF DUP1 DUP3 AND DUP4 MSTORE PUSH21 0x10000000000000000000000000000000000000000 SWAP1 SWAP2 DIV PUSH4 0xFFFFFFFF AND SWAP4 DUP3 ADD DUP5 SWAP1 MSTORE PUSH1 0x1 SWAP1 SWAP3 ADD SLOAD SWAP1 SWAP2 AND SWAP3 DUP2 ADD SWAP3 SWAP1 SWAP3 MSTORE PUSH2 0x3949 SWAP1 DUP7 DUP7 PUSH2 0x33A7 JUMP JUMPDEST SWAP1 SWAP4 POP SWAP2 POP DUP3 ISZERO PUSH2 0x3A06 JUMPI PUSH2 0x395C PUSH2 0x10DF JUMP JUMPDEST DUP2 MLOAD PUSH1 0x40 MLOAD PUSH32 0xA9059CBB00000000000000000000000000000000000000000000000000000000 DUP2 MSTORE PUSH20 0xFFFFFFFFFFFFFFFFFFFFFFFFFFFFFFFFFFFFFFFF SWAP3 SWAP1 SWAP3 AND SWAP2 PUSH4 0xA9059CBB SWAP2 PUSH2 0x39B2 SWAP2 DUP8 SWAP1 PUSH1 0x4 ADD PUSH2 0x604E JUMP JUMPDEST PUSH1 0x20 PUSH1 0x40 MLOAD DUP1 DUP4 SUB DUP2 PUSH1 0x0 DUP8 DUP1 EXTCODESIZE ISZERO DUP1 ISZERO PUSH2 0x39CC JUMPI PUSH1 0x0 DUP1 REVERT JUMPDEST POP GAS CALL ISZERO DUP1 ISZERO PUSH2 0x39E0 JUMPI RETURNDATASIZE PUSH1 0x0 DUP1 RETURNDATACOPY RETURNDATASIZE PUSH1 0x0 REVERT JUMPDEST POP POP POP POP PUSH1 0x40 MLOAD RETURNDATASIZE PUSH1 0x1F NOT PUSH1 0x1F DUP3 ADD AND DUP3 ADD DUP1 PUSH1 0x40 MSTORE POP DUP2 ADD SWAP1 PUSH2 0x3A04 SWAP2 SWAP1 PUSH2 0x5E36 JUMP JUMPDEST POP JUMPDEST DUP2 ISZERO PUSH2 0x3A21 JUMPI PUSH2 0x3A16 DUP7 DUP4 PUSH2 0x4539 JUMP JUMPDEST PUSH2 0x3A21 DUP7 DUP4 DUP7 PUSH2 0x456E JUMP JUMPDEST POP SWAP4 POP SWAP4 SWAP2 POP POP JUMP JUMPDEST PUSH1 0x60 PUSH4 0xE946C1BB PUSH1 0xE0 SHL DUP5 DUP5 DUP5 PUSH1 0x40 MLOAD PUSH1 0x24 ADD DUP1 DUP5 PUSH1 0x3 DUP2 GT ISZERO PUSH2 0x3A4A JUMPI INVALID JUMPDEST DUP2 MSTORE PUSH1 0x20 ADD DUP4 DUP2 MSTORE PUSH1 0x20 ADD DUP3 DUP2 MSTORE PUSH1 0x20 ADD SWAP4 POP POP POP POP PUSH1 0x40 MLOAD PUSH1 0x20 DUP2 DUP4 SUB SUB DUP2 MSTORE SWAP1 PUSH1 0x40 MSTORE SWAP1 PUSH28 0xFFFFFFFFFFFFFFFFFFFFFFFFFFFFFFFFFFFFFFFFFFFFFFFFFFFFFFFF NOT AND PUSH1 0x20 DUP3 ADD DUP1 MLOAD PUSH28 0xFFFFFFFFFFFFFFFFFFFFFFFFFFFFFFFFFFFFFFFFFFFFFFFFFFFFFFFF DUP4 DUP2 DUP4 AND OR DUP4 MSTORE POP POP POP POP SWAP1 POP SWAP4 SWAP3 POP POP POP JUMP JUMPDEST PUSH1 0x40 DUP1 MLOAD PUSH1 0x24 DUP2 ADD DUP5 SWAP1 MSTORE PUSH1 0x44 DUP1 DUP3 ADD DUP5 SWAP1 MSTORE DUP3 MLOAD DUP1 DUP4 SUB SWAP1 SWAP2 ADD DUP2 MSTORE PUSH1 0x64 SWAP1 SWAP2 ADD SWAP1 SWAP2 MSTORE PUSH1 0x20 DUP2 ADD DUP1 MLOAD PUSH28 0xFFFFFFFFFFFFFFFFFFFFFFFFFFFFFFFFFFFFFFFFFFFFFFFFFFFFFFFF AND PUSH32 0xA6BCDE4700000000000000000000000000000000000000000000000000000000 OR SWAP1 MSTORE SWAP3 SWAP2 POP POP JUMP JUMPDEST PUSH1 0x40 DUP1 MLOAD PUSH20 0xFFFFFFFFFFFFFFFFFFFFFFFFFFFFFFFFFFFFFFFF DUP4 AND PUSH1 0x24 DUP1 DUP4 ADD SWAP2 SWAP1 SWAP2 MSTORE DUP3 MLOAD DUP1 DUP4 SUB SWAP1 SWAP2 ADD DUP2 MSTORE PUSH1 0x44 SWAP1 SWAP2 ADD SWAP1 SWAP2 MSTORE PUSH1 0x20 DUP2 ADD DUP1 MLOAD PUSH28 0xFFFFFFFFFFFFFFFFFFFFFFFFFFFFFFFFFFFFFFFFFFFFFFFFFFFFFFFF AND PUSH32 0xB65A25B900000000000000000000000000000000000000000000000000000000 OR SWAP1 MSTORE SWAP2 SWAP1 POP JUMP JUMPDEST DUP1 PUSH8 0xFFFFFFFFFFFFFFFF DUP2 AND DUP2 EQ PUSH2 0xD3A JUMPI PUSH2 0xD3A PUSH2 0x9B9 PUSH1 0x1 DUP5 PUSH2 0x42CF JUMP JUMPDEST DUP1 MLOAD DUP3 SLOAD PUSH1 0x40 DUP4 ADD MLOAD PUSH1 0x20 SWAP1 SWAP4 ADD MLOAD PUSH12 0xFFFFFFFFFFFFFFFFFFFFFFFF SWAP1 DUP2 AND PUSH9 0x10000000000000000 MUL PUSH32 0xFFFFFFFFFFFFFFFFFFFFFFFF000000000000000000000000FFFFFFFFFFFFFFFF SWAP2 SWAP1 SWAP5 AND PUSH21 0x10000000000000000000000000000000000000000 MUL PUSH20 0xFFFFFFFFFFFFFFFFFFFFFFFFFFFFFFFFFFFFFFFF PUSH8 0xFFFFFFFFFFFFFFFF SWAP1 SWAP5 AND PUSH32 0xFFFFFFFFFFFFFFFFFFFFFFFFFFFFFFFFFFFFFFFFFFFFFFFF0000000000000000 SWAP1 SWAP4 AND SWAP3 SWAP1 SWAP3 OR SWAP3 SWAP1 SWAP3 AND OR AND OR SWAP1 SSTORE JUMP JUMPDEST PUSH1 0x40 DUP1 MLOAD PUSH20 0xFFFFFFFFFFFFFFFFFFFFFFFFFFFFFFFFFFFFFFFF DUP1 DUP6 AND PUSH1 0x24 DUP4 ADD MSTORE DUP4 AND PUSH1 0x44 DUP1 DUP4 ADD SWAP2 SWAP1 SWAP2 MSTORE DUP3 MLOAD DUP1 DUP4 SUB SWAP1 SWAP2 ADD DUP2 MSTORE PUSH1 0x64 SWAP1 SWAP2 ADD SWAP1 SWAP2 MSTORE PUSH1 0x20 DUP2 ADD DUP1 MLOAD PUSH28 0xFFFFFFFFFFFFFFFFFFFFFFFFFFFFFFFFFFFFFFFFFFFFFFFFFFFFFFFF AND PUSH32 0x1DE45AD100000000000000000000000000000000000000000000000000000000 OR SWAP1 MSTORE SWAP3 SWAP2 POP POP JUMP JUMPDEST PUSH1 0x40 DUP1 MLOAD DUP1 DUP3 ADD SWAP1 SWAP2 MSTORE PUSH1 0x4 DUP2 MSTORE PUSH32 0x57654FE400000000000000000000000000000000000000000000000000000000 PUSH1 0x20 DUP3 ADD MSTORE SWAP1 JUMP JUMPDEST PUSH1 0x40 DUP1 MLOAD PUSH20 0xFFFFFFFFFFFFFFFFFFFFFFFFFFFFFFFFFFFFFFFF DUP4 AND PUSH1 0x24 DUP1 DUP4 ADD SWAP2 SWAP1 SWAP2 MSTORE DUP3 MLOAD DUP1 DUP4 SUB SWAP1 SWAP2 ADD DUP2 MSTORE PUSH1 0x44 SWAP1 SWAP2 ADD SWAP1 SWAP2 MSTORE PUSH1 0x20 DUP2 ADD DUP1 MLOAD PUSH28 0xFFFFFFFFFFFFFFFFFFFFFFFFFFFFFFFFFFFFFFFFFFFFFFFFFFFFFFFF AND PUSH32 0xDE16F1A000000000000000000000000000000000000000000000000000000000 OR SWAP1 MSTORE SWAP2 SWAP1 POP JUMP JUMPDEST PUSH1 0x0 DUP2 DUP2 MSTORE PUSH1 0xA PUSH1 0x20 MSTORE PUSH1 0x40 SWAP1 KECCAK256 SLOAD PUSH20 0xFFFFFFFFFFFFFFFFFFFFFFFFFFFFFFFFFFFFFFFF AND PUSH2 0x1127 JUMPI PUSH2 0x1127 PUSH2 0x9B9 DUP3 PUSH1 0x0 PUSH2 0x41E1 JUMP JUMPDEST PUSH2 0x3E1B PUSH2 0x5B70 JUMP JUMPDEST PUSH2 0x3E24 DUP4 PUSH2 0x2679 JUMP JUMPDEST SWAP1 POP PUSH2 0x3E4E PUSH2 0x1F81 DUP4 DUP4 PUSH1 0x40 ADD MLOAD PUSH12 0xFFFFFFFFFFFFFFFFFFFFFFFF AND PUSH2 0x23C7 SWAP1 SWAP2 SWAP1 PUSH4 0xFFFFFFFF AND JUMP JUMPDEST PUSH12 0xFFFFFFFFFFFFFFFFFFFFFFFF AND PUSH1 0x40 DUP3 ADD MSTORE PUSH2 0x1496 DUP4 DUP3 PUSH2 0x3BDC JUMP JUMPDEST PUSH2 0x3E73 PUSH2 0x5B70 JUMP JUMPDEST PUSH2 0x3E7C DUP4 PUSH2 0x2679 JUMP JUMPDEST SWAP1 POP PUSH2 0x3E4E PUSH2 0x1F81 DUP4 DUP4 PUSH1 0x40 ADD MLOAD PUSH12 0xFFFFFFFFFFFFFFFFFFFFFFFF AND PUSH2 0x3139 SWAP1 SWAP2 SWAP1 PUSH4 0xFFFFFFFF AND JUMP JUMPDEST EQ PUSH1 0x1 AND SWAP1 JUMP JUMPDEST PUSH1 0x40 DUP1 MLOAD PUSH20 0xFFFFFFFFFFFFFFFFFFFFFFFFFFFFFFFFFFFFFFFF DUP5 AND PUSH1 0x24 DUP3 ADD MSTORE PUSH1 0x44 DUP1 DUP3 ADD DUP5 SWAP1 MSTORE DUP3 MLOAD DUP1 DUP4 SUB SWAP1 SWAP2 ADD DUP2 MSTORE PUSH1 0x64 SWAP1 SWAP2 ADD SWAP1 SWAP2 MSTORE PUSH1 0x20 DUP2 ADD DUP1 MLOAD PUSH28 0xFFFFFFFFFFFFFFFFFFFFFFFFFFFFFFFFFFFFFFFFFFFFFFFFFFFFFFFF AND PUSH32 0x82DED78500000000000000000000000000000000000000000000000000000000 OR SWAP1 MSTORE SWAP3 SWAP2 POP POP JUMP JUMPDEST PUSH1 0x60 PUSH4 0x22DF9597 PUSH1 0xE0 SHL DUP5 DUP5 DUP5 PUSH1 0x40 MLOAD PUSH1 0x24 ADD DUP1 DUP5 PUSH1 0x1 DUP2 GT ISZERO PUSH2 0x3F55 JUMPI INVALID JUMPDEST DUP2 MSTORE PUSH1 0x20 ADD DUP4 DUP2 MSTORE PUSH1 0x20 ADD DUP3 PUSH4 0xFFFFFFFF AND DUP2 MSTORE PUSH1 0x20 ADD SWAP4 POP POP POP POP PUSH1 0x40 MLOAD PUSH1 0x20 DUP2 DUP4 SUB SUB DUP2 MSTORE SWAP1 PUSH1 0x40 MSTORE SWAP1 PUSH28 0xFFFFFFFFFFFFFFFFFFFFFFFFFFFFFFFFFFFFFFFFFFFFFFFFFFFFFFFF NOT AND PUSH1 0x20 DUP3 ADD DUP1 MLOAD PUSH28 0xFFFFFFFFFFFFFFFFFFFFFFFFFFFFFFFFFFFFFFFFFFFFFFFFFFFFFFFF DUP4 DUP2 DUP4 AND OR DUP4 MSTORE POP POP POP POP SWAP1 POP SWAP4 SWAP3 POP POP POP JUMP JUMPDEST PUSH1 0x40 DUP1 MLOAD PUSH1 0x24 DUP2 ADD DUP5 SWAP1 MSTORE PUSH1 0x44 DUP1 DUP3 ADD DUP5 SWAP1 MSTORE DUP3 MLOAD DUP1 DUP4 SUB SWAP1 SWAP2 ADD DUP2 MSTORE PUSH1 0x64 SWAP1 SWAP2 ADD SWAP1 SWAP2 MSTORE PUSH1 0x20 DUP2 ADD DUP1 MLOAD PUSH28 0xFFFFFFFFFFFFFFFFFFFFFFFFFFFFFFFFFFFFFFFFFFFFFFFFFFFFFFFF AND PUSH32 0xE9F8377100000000000000000000000000000000000000000000000000000000 OR SWAP1 MSTORE SWAP3 SWAP2 POP POP JUMP JUMPDEST PUSH1 0x40 DUP1 MLOAD PUSH20 0xFFFFFFFFFFFFFFFFFFFFFFFFFFFFFFFFFFFFFFFF DUP1 DUP6 AND PUSH1 0x24 DUP4 ADD MSTORE DUP4 AND PUSH1 0x44 DUP1 DUP4 ADD SWAP2 SWAP1 SWAP2 MSTORE DUP3 MLOAD DUP1 DUP4 SUB SWAP1 SWAP2 ADD DUP2 MSTORE PUSH1 0x64 SWAP1 SWAP2 ADD SWAP1 SWAP2 MSTORE PUSH1 0x20 DUP2 ADD DUP1 MLOAD PUSH28 0xFFFFFFFFFFFFFFFFFFFFFFFFFFFFFFFFFFFFFFFFFFFFFFFFFFFFFFFF AND PUSH32 0x140A84DB00000000000000000000000000000000000000000000000000000000 OR SWAP1 MSTORE SWAP3 SWAP2 POP POP JUMP JUMPDEST PUSH1 0x40 DUP1 MLOAD PUSH1 0x24 DUP2 ADD DUP5 SWAP1 MSTORE PUSH1 0x44 DUP1 DUP3 ADD DUP5 SWAP1 MSTORE DUP3 MLOAD DUP1 DUP4 SUB SWAP1 SWAP2 ADD DUP2 MSTORE PUSH1 0x64 SWAP1 SWAP2 ADD SWAP1 SWAP2 MSTORE PUSH1 0x20 DUP2 ADD DUP1 MLOAD PUSH28 0xFFFFFFFFFFFFFFFFFFFFFFFFFFFFFFFFFFFFFFFFFFFFFFFFFFFFFFFF AND PUSH32 0x31D7A50500000000000000000000000000000000000000000000000000000000 OR SWAP1 MSTORE SWAP3 SWAP2 POP POP JUMP JUMPDEST PUSH1 0x0 PUSH2 0x35B5 DUP4 PUSH2 0x4159 DUP7 DUP6 PUSH2 0x4657 JUMP JUMPDEST SWAP1 PUSH2 0x4688 JUMP JUMPDEST PUSH2 0x1127 DUP2 PUSH2 0x46B2 JUMP JUMPDEST PUSH1 0x0 DUP3 DUP2 MSTORE PUSH1 0xB PUSH1 0x20 MSTORE PUSH1 0x40 SWAP1 KECCAK256 SLOAD PUSH2 0x4181 SWAP1 DUP3 PUSH2 0x23C7 JUMP JUMPDEST PUSH1 0x0 DUP4 DUP2 MSTORE PUSH1 0xB PUSH1 0x20 MSTORE PUSH1 0x40 SWAP1 KECCAK256 SSTORE PUSH1 0x17 SLOAD PUSH2 0x419D SWAP1 DUP3 PUSH2 0x23C7 JUMP JUMPDEST PUSH1 0x17 SSTORE POP POP JUMP JUMPDEST PUSH2 0x1127 DUP2 PUSH1 0x0 PUSH1 0x1 PUSH2 0x456E JUMP JUMPDEST PUSH1 0x0 DUP1 PUSH2 0x339D DUP4 PUSH2 0x46BB JUMP JUMPDEST PUSH1 0x0 PUSH2 0x35B5 DUP4 PUSH2 0x4159 PUSH2 0x41D1 DUP3 PUSH1 0x1 PUSH2 0x23C7 JUMP JUMPDEST PUSH2 0x41DB DUP9 DUP8 PUSH2 0x4657 JUMP JUMPDEST SWAP1 PUSH2 0x3139 JUMP JUMPDEST PUSH1 0x40 DUP1 MLOAD PUSH1 0x24 DUP2 ADD SWAP4 SWAP1 SWAP4 MSTORE SWAP1 ISZERO ISZERO PUSH1 0x44 DUP1 DUP5 ADD SWAP2 SWAP1 SWAP2 MSTORE DUP2 MLOAD DUP1 DUP5 SUB SWAP1 SWAP2 ADD DUP2 MSTORE PUSH1 0x64 SWAP1 SWAP3 ADD SWAP1 MSTORE PUSH1 0x20 DUP2 ADD DUP1 MLOAD PUSH28 0xFFFFFFFFFFFFFFFFFFFFFFFFFFFFFFFFFFFFFFFFFFFFFFFFFFFFFFFF AND PUSH32 0x9AE94F0100000000000000000000000000000000000000000000000000000000 OR SWAP1 MSTORE SWAP1 JUMP JUMPDEST PUSH1 0xD SLOAD ISZERO PUSH2 0x1E7D JUMPI PUSH2 0x1E7D PUSH2 0x9B9 PUSH1 0x0 PUSH2 0x4778 JUMP JUMPDEST PUSH1 0x11 SLOAD ISZERO DUP1 ISZERO SWAP1 PUSH2 0x4282 JUMPI POP PUSH1 0x12 SLOAD PUSH4 0xFFFFFFFF AND ISZERO ISZERO JUMPDEST DUP1 ISZERO PUSH2 0x428F JUMPI POP PUSH1 0x13 SLOAD ISZERO ISZERO JUMPDEST DUP1 ISZERO PUSH2 0x42A2 JUMPI POP PUSH1 0x14 SLOAD PUSH4 0xFFFFFFFF AND ISZERO ISZERO JUMPDEST DUP1 ISZERO PUSH2 0x42BD JUMPI POP PUSH1 0x14 SLOAD PUSH5 0x100000000 SWAP1 DIV PUSH4 0xFFFFFFFF AND ISZERO ISZERO JUMPDEST ISZERO PUSH2 0x1E7D JUMPI PUSH2 0x1E7D PUSH2 0x9B9 PUSH1 0x1 PUSH2 0x4778 JUMP JUMPDEST PUSH1 0x60 PUSH4 0xC996AF7B PUSH1 0xE0 SHL DUP4 DUP4 PUSH1 0x40 MLOAD PUSH1 0x24 ADD DUP1 DUP4 PUSH1 0x2 DUP2 GT ISZERO PUSH2 0x42EE JUMPI INVALID JUMPDEST DUP2 MSTORE PUSH1 0x20 DUP1 DUP3 ADD SWAP4 SWAP1 SWAP4 MSTORE PUSH1 0x40 DUP1 MLOAD DUP1 DUP4 SUB DUP6 ADD DUP2 MSTORE SWAP2 DUP2 ADD SWAP1 MSTORE SWAP2 DUP3 ADD DUP1 MLOAD PUSH28 0xFFFFFFFFFFFFFFFFFFFFFFFFFFFFFFFFFFFFFFFFFFFFFFFFFFFFFFFF AND PUSH32 0xFFFFFFFF00000000000000000000000000000000000000000000000000000000 SWAP1 SWAP6 AND SWAP5 SWAP1 SWAP5 OR SWAP1 SWAP4 MSTORE SWAP3 POP POP POP SWAP3 SWAP2 POP POP JUMP JUMPDEST PUSH1 0x0 DUP3 ISZERO DUP1 PUSH2 0x436E JUMPI POP DUP2 ISZERO JUMPDEST ISZERO PUSH2 0x437B JUMPI POP PUSH1 0x0 PUSH2 0x35B5 JUMP JUMPDEST PUSH1 0x0 PUSH2 0x4388 DUP6 PUSH1 0x1 PUSH2 0x23C7 JUMP JUMPDEST DUP7 MLOAD PUSH8 0xFFFFFFFFFFFFFFFF AND LT ISZERO PUSH2 0x43A4 JUMPI DUP6 PUSH1 0x40 ADD MLOAD PUSH2 0x43AA JUMP JUMPDEST DUP6 PUSH1 0x20 ADD MLOAD JUMPDEST PUSH12 0xFFFFFFFFFFFFFFFFFFFFFFFF AND SWAP1 POP DUP1 PUSH2 0x43C9 JUMPI PUSH1 0x0 SWAP2 POP POP PUSH2 0x35B5 JUMP JUMPDEST PUSH2 0x43D4 DUP5 DUP5 DUP4 PUSH2 0x4149 JUMP JUMPDEST SWAP7 SWAP6 POP POP POP POP POP POP JUMP JUMPDEST PUSH1 0x0 DUP4 ISZERO DUP1 PUSH2 0x43EC JUMPI POP DUP2 DUP4 EQ JUMPDEST ISZERO PUSH2 0x43F9 JUMPI POP PUSH1 0x0 PUSH2 0x35B5 JUMP JUMPDEST DUP2 DUP4 LT PUSH2 0x4432 JUMPI PUSH1 0x40 MLOAD PUSH32 0x8C379A000000000000000000000000000000000000000000000000000000000 DUP2 MSTORE PUSH1 0x4 ADD PUSH2 0xBDE SWAP1 PUSH2 0x61C7 JUMP JUMPDEST PUSH2 0x443A PUSH2 0x5BB1 JUMP JUMPDEST PUSH2 0x4444 DUP7 DUP6 PUSH2 0x481E JUMP JUMPDEST SWAP1 POP PUSH2 0x444E PUSH2 0x5BB1 JUMP JUMPDEST PUSH2 0x4458 DUP8 DUP6 PUSH2 0x481E JUMP JUMPDEST SWAP1 POP PUSH2 0x207F DUP2 PUSH1 0x0 ADD MLOAD DUP3 PUSH1 0x20 ADD MLOAD DUP5 PUSH1 0x0 ADD MLOAD DUP6 PUSH1 0x20 ADD MLOAD DUP11 PUSH2 0x4935 JUMP JUMPDEST PUSH1 0x0 DUP1 PUSH2 0x4484 DUP9 DUP9 PUSH2 0x49A3 JUMP JUMPDEST SWAP1 POP PUSH1 0x0 PUSH2 0x4492 DUP8 DUP8 PUSH2 0x49A3 JUMP JUMPDEST SWAP1 POP DUP2 ISZERO DUP1 PUSH2 0x449F JUMPI POP DUP1 ISZERO JUMPDEST ISZERO PUSH2 0x44AF JUMPI PUSH1 0x0 SWAP3 POP POP POP PUSH2 0x207F JUMP JUMPDEST PUSH1 0x0 DUP2 DUP4 SGT ISZERO PUSH2 0x44C8 JUMPI PUSH2 0x44C3 DUP3 DUP5 PUSH2 0x49F5 JUMP JUMPDEST PUSH2 0x44D2 JUMP JUMPDEST PUSH2 0x44D2 DUP4 DUP4 PUSH2 0x49F5 JUMP JUMPDEST SWAP1 POP PUSH2 0x44FB PUSH2 0x44F6 PUSH2 0x44E3 DUP4 PUSH2 0x4A14 JUMP JUMPDEST DUP9 PUSH4 0xFFFFFFFF AND DUP9 PUSH4 0xFFFFFFFF AND PUSH2 0x50B6 JUMP JUMPDEST PUSH2 0x50C5 JUMP JUMPDEST SWAP1 POP DUP2 DUP4 SGT ISZERO PUSH2 0x4514 JUMPI PUSH2 0x450F DUP3 DUP3 PUSH2 0x49F5 JUMP JUMPDEST PUSH2 0x451E JUMP JUMPDEST PUSH2 0x451E DUP3 DUP3 PUSH2 0x56AF JUMP JUMPDEST SWAP1 POP PUSH2 0x452A DUP2 DUP13 PUSH2 0x56DB JUMP JUMPDEST SWAP12 SWAP11 POP POP POP POP POP POP POP POP POP POP POP JUMP JUMPDEST PUSH1 0x0 DUP3 DUP2 MSTORE PUSH1 0xB PUSH1 0x20 MSTORE PUSH1 0x40 SWAP1 KECCAK256 SLOAD PUSH2 0x4552 SWAP1 DUP3 PUSH2 0x3139 JUMP JUMPDEST PUSH1 0x0 DUP4 DUP2 MSTORE PUSH1 0xB PUSH1 0x20 MSTORE PUSH1 0x40 SWAP1 KECCAK256 SSTORE PUSH1 0x17 SLOAD PUSH2 0x419D SWAP1 DUP3 PUSH2 0x3139 JUMP JUMPDEST PUSH1 0x0 DUP4 DUP2 MSTORE PUSH1 0xF PUSH1 0x20 MSTORE PUSH1 0x40 SWAP1 KECCAK256 SLOAD PUSH1 0xC SLOAD DUP1 DUP3 EQ ISZERO PUSH2 0x458F JUMPI POP POP PUSH2 0x1496 JUMP JUMPDEST PUSH2 0x4597 PUSH2 0x5BB1 JUMP JUMPDEST POP PUSH1 0x0 DUP6 DUP2 MSTORE PUSH1 0xE PUSH1 0x20 SWAP1 DUP2 MSTORE PUSH1 0x40 DUP1 DUP4 KECCAK256 DUP6 DUP5 MSTORE DUP3 MSTORE SWAP2 DUP3 SWAP1 KECCAK256 DUP3 MLOAD DUP1 DUP5 ADD SWAP1 SWAP4 MSTORE DUP1 SLOAD DUP4 MSTORE PUSH1 0x1 ADD SLOAD SWAP1 DUP3 ADD MSTORE PUSH2 0x45CE PUSH2 0x5BB1 JUMP JUMPDEST PUSH2 0x45D7 DUP3 PUSH2 0x571D JUMP JUMPDEST ISZERO PUSH2 0x4610 JUMPI PUSH2 0x45F0 DUP3 PUSH1 0x0 ADD MLOAD DUP4 PUSH1 0x20 ADD MLOAD DUP9 DUP9 PUSH2 0x5726 JUMP JUMPDEST PUSH1 0x20 DUP4 ADD DUP2 SWAP1 MSTORE DUP2 DUP4 MSTORE PUSH2 0x4604 SWAP2 SWAP1 PUSH2 0x5776 JUMP JUMPDEST PUSH1 0x20 DUP4 ADD MSTORE DUP2 MSTORE PUSH2 0x461B JUMP JUMPDEST PUSH1 0x20 DUP2 ADD DUP6 SWAP1 MSTORE DUP6 DUP2 MSTORE JUMPDEST PUSH1 0x0 DUP8 DUP2 MSTORE PUSH1 0xE PUSH1 0x20 SWAP1 DUP2 MSTORE PUSH1 0x40 DUP1 DUP4 KECCAK256 DUP7 DUP5 MSTORE DUP3 MSTORE DUP1 DUP4 KECCAK256 DUP5 MLOAD DUP2 SSTORE SWAP4 DUP3 ADD MLOAD PUSH1 0x1 SWAP1 SWAP5 ADD SWAP4 SWAP1 SWAP4 SSTORE SWAP8 DUP2 MSTORE PUSH1 0xF SWAP1 SWAP8 MSTORE SWAP1 SWAP6 KECCAK256 SSTORE POP POP POP POP JUMP JUMPDEST PUSH1 0x0 DUP3 PUSH2 0x4666 JUMPI POP PUSH1 0x0 PUSH2 0x1183 JUMP JUMPDEST DUP3 DUP3 MUL DUP3 DUP5 DUP3 DUP2 PUSH2 0x4673 JUMPI INVALID JUMPDEST DIV EQ PUSH2 0x1180 JUMPI PUSH2 0x1180 PUSH2 0x9B9 PUSH1 0x1 DUP7 DUP7 PUSH2 0x3A2A JUMP JUMPDEST PUSH1 0x0 DUP2 PUSH2 0x469E JUMPI PUSH2 0x469E PUSH2 0x9B9 PUSH1 0x3 DUP6 DUP6 PUSH2 0x3A2A JUMP JUMPDEST PUSH1 0x0 DUP3 DUP5 DUP2 PUSH2 0x46A9 JUMPI INVALID JUMPDEST DIV SWAP5 SWAP4 POP POP POP POP JUMP JUMPDEST PUSH2 0x1127 DUP2 PUSH2 0x579F JUMP JUMPDEST PUSH1 0x0 DUP1 PUSH1 0x0 PUSH2 0x46D6 PUSH1 0x1 PUSH1 0xC SLOAD PUSH2 0x23C7 SWAP1 SWAP2 SWAP1 PUSH4 0xFFFFFFFF AND JUMP JUMPDEST SWAP1 POP PUSH2 0x46E0 PUSH2 0x5B90 JUMP JUMPDEST POP PUSH1 0x0 DUP5 DUP2 MSTORE PUSH1 0x15 PUSH1 0x20 SWAP1 DUP2 MSTORE PUSH1 0x40 DUP1 DUP4 KECCAK256 DUP5 DUP5 MSTORE DUP3 MSTORE DUP1 DUP4 KECCAK256 DUP2 MLOAD PUSH1 0x60 DUP1 DUP3 ADD DUP5 MSTORE DUP3 SLOAD DUP3 MSTORE PUSH1 0x1 DUP1 DUP5 ADD SLOAD DUP4 DUP8 ADD MSTORE PUSH1 0x2 SWAP4 DUP5 ADD SLOAD DUP4 DUP7 ADD MSTORE DUP8 DUP8 MSTORE PUSH1 0x16 DUP7 MSTORE SWAP6 DUP5 SWAP1 KECCAK256 DUP5 MLOAD PUSH1 0xA0 DUP2 ADD DUP7 MSTORE DUP2 SLOAD DUP2 MSTORE SWAP7 DUP2 ADD SLOAD SWAP6 DUP8 ADD SWAP6 SWAP1 SWAP6 MSTORE SWAP2 DUP5 ADD SLOAD SWAP3 DUP6 ADD SWAP3 SWAP1 SWAP3 MSTORE PUSH1 0x3 DUP4 ADD SLOAD SWAP1 DUP5 ADD MSTORE PUSH1 0x4 SWAP1 SWAP2 ADD SLOAD PUSH1 0x80 DUP4 ADD MSTORE SWAP1 PUSH2 0x4768 SWAP1 DUP3 SWAP1 PUSH2 0x35FA JUMP JUMPDEST SWAP4 POP DUP1 PUSH1 0x40 ADD MLOAD SWAP3 POP POP POP SWAP2 POP SWAP2 JUMP JUMPDEST PUSH1 0x60 PUSH32 0xB02D77300000000000000000000000000000000000000000000000000000000 DUP3 PUSH1 0x1 DUP2 GT ISZERO PUSH2 0x47A7 JUMPI INVALID JUMPDEST PUSH1 0x40 MLOAD PUSH1 0x24 ADD DUP1 DUP3 PUSH1 0xFF AND DUP2 MSTORE PUSH1 0x20 ADD SWAP2 POP POP PUSH1 0x40 MLOAD PUSH1 0x20 DUP2 DUP4 SUB SUB DUP2 MSTORE SWAP1 PUSH1 0x40 MSTORE SWAP1 PUSH28 0xFFFFFFFFFFFFFFFFFFFFFFFFFFFFFFFFFFFFFFFFFFFFFFFFFFFFFFFF NOT AND PUSH1 0x20 DUP3 ADD DUP1 MLOAD PUSH28 0xFFFFFFFFFFFFFFFFFFFFFFFFFFFFFFFFFFFFFFFFFFFFFFFFFFFFFFFF DUP4 DUP2 DUP4 AND OR DUP4 MSTORE POP POP POP POP SWAP1 POP SWAP2 SWAP1 POP JUMP JUMPDEST PUSH2 0x4826 PUSH2 0x5BB1 JUMP JUMPDEST POP PUSH1 0x0 DUP3 DUP2 MSTORE PUSH1 0xE PUSH1 0x20 SWAP1 DUP2 MSTORE PUSH1 0x40 DUP1 DUP4 KECCAK256 DUP5 DUP5 MSTORE DUP3 MSTORE SWAP2 DUP3 SWAP1 KECCAK256 DUP3 MLOAD DUP1 DUP5 ADD SWAP1 SWAP4 MSTORE DUP1 SLOAD DUP4 MSTORE PUSH1 0x1 ADD SLOAD SWAP1 DUP3 ADD MSTORE PUSH2 0x485E DUP2 PUSH2 0x571D JUMP JUMPDEST ISZERO PUSH2 0x4868 JUMPI PUSH2 0x1183 JUMP JUMPDEST PUSH1 0x0 PUSH2 0x4875 DUP4 PUSH1 0x1 PUSH2 0x23C7 JUMP JUMPDEST PUSH1 0x0 DUP6 DUP2 MSTORE PUSH1 0xE PUSH1 0x20 SWAP1 DUP2 MSTORE PUSH1 0x40 DUP1 DUP4 KECCAK256 DUP5 DUP5 MSTORE DUP3 MSTORE SWAP2 DUP3 SWAP1 KECCAK256 DUP3 MLOAD DUP1 DUP5 ADD SWAP1 SWAP4 MSTORE DUP1 SLOAD DUP4 MSTORE PUSH1 0x1 ADD SLOAD SWAP1 DUP3 ADD MSTORE SWAP3 POP SWAP1 POP PUSH2 0x48B0 DUP3 PUSH2 0x571D JUMP JUMPDEST ISZERO PUSH2 0x48BB JUMPI POP PUSH2 0x1183 JUMP JUMPDEST PUSH1 0x0 DUP5 DUP2 MSTORE PUSH1 0xF PUSH1 0x20 MSTORE PUSH1 0x40 SWAP1 KECCAK256 SLOAD DUP4 DUP2 LT ISZERO PUSH2 0x4917 JUMPI PUSH1 0x0 DUP6 DUP2 MSTORE PUSH1 0xE PUSH1 0x20 SWAP1 DUP2 MSTORE PUSH1 0x40 DUP1 DUP4 KECCAK256 DUP5 DUP5 MSTORE DUP3 MSTORE SWAP2 DUP3 SWAP1 KECCAK256 DUP3 MLOAD DUP1 DUP5 ADD SWAP1 SWAP4 MSTORE DUP1 SLOAD DUP4 MSTORE PUSH1 0x1 ADD SLOAD SWAP1 DUP3 ADD MSTORE SWAP3 POP PUSH2 0x490B DUP4 PUSH2 0x571D JUMP JUMPDEST ISZERO PUSH2 0x4917 JUMPI POP POP PUSH2 0x1183 JUMP JUMPDEST POP POP PUSH1 0x40 DUP1 MLOAD DUP1 DUP3 ADD SWAP1 SWAP2 MSTORE PUSH1 0x0 DUP2 MSTORE PUSH1 0x1 PUSH1 0x20 DUP3 ADD MSTORE SWAP4 SWAP3 POP POP POP JUMP JUMPDEST PUSH1 0x0 DUP2 PUSH2 0x4944 JUMPI POP PUSH1 0x0 PUSH2 0x499A JUMP JUMPDEST DUP4 PUSH2 0x495E JUMPI PUSH2 0x4957 DUP6 PUSH2 0x4159 DUP5 DUP10 PUSH2 0x4657 JUMP JUMPDEST SWAP1 POP PUSH2 0x499A JUMP JUMPDEST PUSH1 0x0 PUSH2 0x4977 PUSH2 0x496D DUP7 DUP9 PUSH2 0x4657 JUMP JUMPDEST PUSH2 0x256B DUP10 DUP8 PUSH2 0x4657 JUMP JUMPDEST SWAP1 POP PUSH1 0x0 PUSH2 0x4985 DUP3 DUP7 PUSH2 0x4688 JUMP JUMPDEST SWAP1 POP PUSH2 0x4995 DUP8 PUSH2 0x4159 DUP7 DUP5 PUSH2 0x4657 JUMP JUMPDEST SWAP3 POP POP POP JUMPDEST SWAP6 SWAP5 POP POP POP POP POP JUMP JUMPDEST PUSH1 0x0 DUP1 DUP4 SLT ISZERO PUSH2 0x49BB JUMPI PUSH2 0x49BB PUSH2 0x9B9 PUSH1 0x1 DUP6 PUSH2 0x580D JUMP JUMPDEST PUSH1 0x0 DUP3 SLT ISZERO PUSH2 0x49D2 JUMPI PUSH2 0x49D2 PUSH2 0x9B9 PUSH1 0x1 DUP5 PUSH2 0x580D JUMP JUMPDEST PUSH2 0x1180 PUSH2 0x49EF DUP5 PUSH16 0x80000000000000000000000000000000 PUSH2 0x58BA JUMP JUMPDEST DUP4 PUSH2 0x590D JUMP JUMPDEST PUSH1 0x0 PUSH2 0x1180 PUSH2 0x49EF DUP5 PUSH16 0x80000000000000000000000000000000 PUSH2 0x58BA JUMP JUMPDEST PUSH1 0x0 PUSH16 0x80000000000000000000000000000000 DUP3 SGT ISZERO PUSH2 0x4A3C JUMPI PUSH2 0x4A3C PUSH2 0x9B9 PUSH1 0x1 DUP5 PUSH2 0x598E JUMP JUMPDEST PUSH1 0x0 DUP3 SGT PUSH2 0x4A52 JUMPI PUSH2 0x4A52 PUSH2 0x9B9 PUSH1 0x0 DUP5 PUSH2 0x598E JUMP JUMPDEST PUSH16 0x80000000000000000000000000000000 DUP3 EQ ISZERO PUSH2 0x4A72 JUMPI POP PUSH1 0x0 PUSH2 0xD3A JUMP JUMPDEST PUSH5 0x733048C5A DUP3 SGT PUSH2 0x4AA5 JUMPI POP PUSH32 0xFFFFFFFFFFFFFFFFFFFFFFFFFFFFFFE010000000000000000000000000000000 PUSH2 0xD3A JUMP JUMPDEST PUSH1 0x0 DUP1 PUSH1 0x0 PUSH11 0x1C8464F76164760000000 DUP6 SGT PUSH2 0x4B04 JUMPI PUSH32 0xFFFFFFFFFFFFFFFFFFFFFFFFFFFFFFF000000000000000000000000000000000 SWAP1 SWAP4 ADD SWAP3 PUSH11 0x1C8464F76164760000000 PUSH16 0x80000000000000000000000000000000 DUP7 MUL SDIV SWAP5 POP JUMPDEST PUSH13 0xF1AADDD7742E90000000000000 DUP6 SGT PUSH2 0x4B62 JUMPI PUSH32 0xFFFFFFFFFFFFFFFFFFFFFFFFFFFFFFF800000000000000000000000000000000 SWAP1 SWAP4 ADD SWAP3 PUSH13 0xF1AADDD7742E90000000000000 PUSH16 0x80000000000000000000000000000000 DUP7 MUL SDIV SWAP5 POP JUMPDEST PUSH15 0xAFE10820813D78000000000000000 DUP6 SGT PUSH2 0x4BC4 JUMPI PUSH32 0xFFFFFFFFFFFFFFFFFFFFFFFFFFFFFFFC00000000000000000000000000000000 SWAP1 SWAP4 ADD SWAP3 PUSH15 0xAFE10820813D78000000000000000 PUSH16 0x80000000000000000000000000000000 DUP7 MUL SDIV SWAP5 POP JUMPDEST PUSH16 0x2582AB704279EC00000000000000000 DUP6 SGT PUSH2 0x4C28 JUMPI PUSH32 0xFFFFFFFFFFFFFFFFFFFFFFFFFFFFFFFE00000000000000000000000000000000 SWAP1 SWAP4 ADD SWAP3 PUSH16 0x2582AB704279EC00000000000000000 PUSH16 0x80000000000000000000000000000000 DUP7 MUL SDIV SWAP5 POP JUMPDEST PUSH16 0x1152AAA3BF81CC000000000000000000 DUP6 SGT PUSH2 0x4C8C JUMPI PUSH32 0xFFFFFFFFFFFFFFFFFFFFFFFFFFFFFFFF00000000000000000000000000000000 SWAP1 SWAP4 ADD SWAP3 PUSH16 0x1152AAA3BF81CC000000000000000000 PUSH16 0x80000000000000000000000000000000 DUP7 MUL SDIV SWAP5 POP JUMPDEST PUSH16 0x2F16AC6C59DE70000000000000000000 DUP6 SGT PUSH2 0x4CF0 JUMPI PUSH32 0xFFFFFFFFFFFFFFFFFFFFFFFFFFFFFFFF80000000000000000000000000000000 SWAP1 SWAP4 ADD SWAP3 PUSH16 0x2F16AC6C59DE70000000000000000000 PUSH16 0x80000000000000000000000000000000 DUP7 MUL SDIV SWAP5 POP JUMPDEST PUSH16 0x4DA2CBF1BE5828000000000000000000 DUP6 SGT PUSH2 0x4D54 JUMPI PUSH32 0xFFFFFFFFFFFFFFFFFFFFFFFFFFFFFFFFC0000000000000000000000000000000 SWAP1 SWAP4 ADD SWAP3 PUSH16 0x4DA2CBF1BE5828000000000000000000 PUSH16 0x80000000000000000000000000000000 DUP7 MUL SDIV SWAP5 POP JUMPDEST PUSH16 0x63AFBE7AB2082C000000000000000000 DUP6 SGT PUSH2 0x4DB8 JUMPI PUSH32 0xFFFFFFFFFFFFFFFFFFFFFFFFFFFFFFFFE0000000000000000000000000000000 SWAP1 SWAP4 ADD SWAP3 PUSH16 0x63AFBE7AB2082C000000000000000000 PUSH16 0x80000000000000000000000000000000 DUP7 MUL SDIV SWAP5 POP JUMPDEST PUSH16 0x70F5A893B608861E1F58934F97AEA57D DUP6 SGT PUSH2 0x4E1C JUMPI PUSH32 0xFFFFFFFFFFFFFFFFFFFFFFFFFFFFFFFFF0000000000000000000000000000000 SWAP1 SWAP4 ADD SWAP3 PUSH16 0x70F5A893B608861E1F58934F97AEA57D PUSH16 0x80000000000000000000000000000000 DUP7 MUL SDIV SWAP5 POP JUMPDEST PUSH32 0xFFFFFFFFFFFFFFFFFFFFFFFFFFFFFFFF80000000000000000000000000000000 DUP6 ADD SWAP3 POP DUP3 SWAP2 POP PUSH16 0x80000000000000000000000000000000 DUP3 DUP1 MUL SDIV SWAP1 POP PUSH17 0x100000000000000000000000000000000 DUP4 DUP2 SUB DUP4 MUL SDIV DUP5 ADD SWAP4 POP PUSH16 0x80000000000000000000000000000000 DUP2 DUP4 MUL DUP2 PUSH2 0x4E92 JUMPI INVALID JUMPDEST SDIV SWAP2 POP PUSH17 0x200000000000000000000000000000000 DUP4 PUSH16 0xAAAAAAAAAAAAAAAAAAAAAAAAAAAAAAAA SUB DUP4 MUL DUP2 PUSH2 0x4EC3 JUMPI INVALID JUMPDEST SDIV DUP5 ADD SWAP4 POP PUSH16 0x80000000000000000000000000000000 DUP2 DUP4 MUL DUP2 PUSH2 0x4EE3 JUMPI INVALID JUMPDEST SDIV SWAP2 POP PUSH17 0x300000000000000000000000000000000 DUP4 PUSH16 0x99999999999999999999999999999999 SUB DUP4 MUL DUP2 PUSH2 0x4F14 JUMPI INVALID JUMPDEST SDIV DUP5 ADD SWAP4 POP PUSH16 0x80000000000000000000000000000000 DUP2 DUP4 MUL DUP2 PUSH2 0x4F34 JUMPI INVALID JUMPDEST SDIV SWAP2 POP PUSH17 0x400000000000000000000000000000000 DUP4 PUSH16 0x92492492492492492492492492492492 SUB DUP4 MUL DUP2 PUSH2 0x4F65 JUMPI INVALID JUMPDEST SDIV DUP5 ADD SWAP4 POP PUSH16 0x80000000000000000000000000000000 DUP2 DUP4 MUL DUP2 PUSH2 0x4F85 JUMPI INVALID JUMPDEST SDIV SWAP2 POP PUSH17 0x500000000000000000000000000000000 DUP4 PUSH16 0x8E38E38E38E38E38E38E38E38E38E38E SUB DUP4 MUL DUP2 PUSH2 0x4FB6 JUMPI INVALID JUMPDEST SDIV DUP5 ADD SWAP4 POP PUSH16 0x80000000000000000000000000000000 DUP2 DUP4 MUL DUP2 PUSH2 0x4FD6 JUMPI INVALID JUMPDEST SDIV SWAP2 POP PUSH17 0x600000000000000000000000000000000 DUP4 PUSH16 0x8BA2E8BA2E8BA2E8BA2E8BA2E8BA2E8B SUB DUP4 MUL DUP2 PUSH2 0x5007 JUMPI INVALID JUMPDEST SDIV DUP5 ADD SWAP4 POP PUSH16 0x80000000000000000000000000000000 DUP2 DUP4 MUL DUP2 PUSH2 0x5027 JUMPI INVALID JUMPDEST SDIV SWAP2 POP PUSH17 0x700000000000000000000000000000000 DUP4 PUSH16 0x89D89D89D89D89D89D89D89D89D89D89 SUB DUP4 MUL DUP2 PUSH2 0x5058 JUMPI INVALID JUMPDEST SDIV DUP5 ADD SWAP4 POP PUSH16 0x80000000000000000000000000000000 DUP2 DUP4 MUL DUP2 PUSH2 0x5078 JUMPI INVALID JUMPDEST SDIV SWAP2 POP PUSH17 0x800000000000000000000000000000000 DUP4 PUSH16 0x88888888888888888888888888888888 SUB DUP4 MUL DUP2 PUSH2 0x50A9 JUMPI INVALID JUMPDEST SDIV DUP5 ADD SWAP4 POP POP POP POP SWAP2 SWAP1 POP JUMP JUMPDEST PUSH1 0x0 PUSH2 0x35B5 PUSH2 0x49EF DUP6 DUP6 PUSH2 0x58BA JUMP JUMPDEST PUSH1 0x0 PUSH32 0xFFFFFFFFFFFFFFFFFFFFFFFFFFFFFFE010000000000000000000000000000000 DUP3 SLT ISZERO PUSH2 0x50F7 JUMPI POP PUSH1 0x0 PUSH2 0xD3A JUMP JUMPDEST DUP2 PUSH2 0x5113 JUMPI POP PUSH16 0x80000000000000000000000000000000 PUSH2 0xD3A JUMP JUMPDEST PUSH1 0x0 DUP3 SGT ISZERO PUSH2 0x512A JUMPI PUSH2 0x512A PUSH2 0x9B9 PUSH1 0x1 DUP5 PUSH2 0x598E JUMP JUMPDEST PUSH16 0x80000000000000000000000000000000 PUSH16 0x10000000000000000000000000000000 DUP4 SMOD DUP1 DUP1 MUL DUP3 SWAP1 SDIV PUSH8 0x10E1B3BE415A0000 DUP2 MUL SWAP4 SWAP1 SWAP4 ADD SWAP3 SWAP1 SWAP2 DUP2 DUP4 MUL SDIV SWAP1 POP DUP1 PUSH8 0x5A0913F6B1E0000 MUL DUP4 ADD SWAP3 POP PUSH16 0x80000000000000000000000000000000 DUP3 DUP3 MUL DUP2 PUSH2 0x5196 JUMPI INVALID JUMPDEST SDIV SWAP1 POP DUP1 PUSH8 0x168244FDAC78000 MUL DUP4 ADD SWAP3 POP PUSH16 0x80000000000000000000000000000000 DUP3 DUP3 MUL DUP2 PUSH2 0x51C3 JUMPI INVALID JUMPDEST SDIV SWAP1 POP DUP1 PUSH7 0x4807432BC18000 MUL DUP4 ADD SWAP3 POP PUSH16 0x80000000000000000000000000000000 DUP3 DUP3 MUL DUP2 PUSH2 0x51EF JUMPI INVALID JUMPDEST SDIV SWAP1 POP DUP1 PUSH7 0xC0135DCA04000 MUL DUP4 ADD SWAP3 POP PUSH16 0x80000000000000000000000000000000 DUP3 DUP3 MUL DUP2 PUSH2 0x521B JUMPI INVALID JUMPDEST SDIV SWAP1 POP DUP1 PUSH7 0x1B707B1CDC000 MUL DUP4 ADD SWAP3 POP PUSH16 0x80000000000000000000000000000000 DUP3 DUP3 MUL DUP2 PUSH2 0x5247 JUMPI INVALID JUMPDEST SDIV SWAP1 POP DUP1 PUSH6 0x36E0F639B800 MUL DUP4 ADD SWAP3 POP PUSH16 0x80000000000000000000000000000000 DUP3 DUP3 MUL DUP2 PUSH2 0x5272 JUMPI INVALID JUMPDEST SDIV SWAP1 POP DUP1 PUSH6 0x618FEE9F800 MUL DUP4 ADD SWAP3 POP PUSH16 0x80000000000000000000000000000000 DUP3 DUP3 MUL DUP2 PUSH2 0x529D JUMPI INVALID JUMPDEST SDIV SWAP1 POP DUP1 PUSH5 0x9C197DCC00 MUL DUP4 ADD SWAP3 POP PUSH16 0x80000000000000000000000000000000 DUP3 DUP3 MUL DUP2 PUSH2 0x52C7 JUMPI INVALID JUMPDEST SDIV SWAP1 POP DUP1 PUSH5 0xE30DCE400 MUL DUP4 ADD SWAP3 POP PUSH16 0x80000000000000000000000000000000 DUP3 DUP3 MUL DUP2 PUSH2 0x52F1 JUMPI INVALID JUMPDEST SDIV SWAP1 POP DUP1 PUSH5 0x12EBD1300 MUL DUP4 ADD SWAP3 POP PUSH16 0x80000000000000000000000000000000 DUP3 DUP3 MUL DUP2 PUSH2 0x531B JUMPI INVALID JUMPDEST SDIV SWAP1 POP DUP1 PUSH4 0x17499F00 MUL DUP4 ADD SWAP3 POP PUSH16 0x80000000000000000000000000000000 DUP3 DUP3 MUL DUP2 PUSH2 0x5344 JUMPI INVALID JUMPDEST SDIV SWAP1 POP DUP1 PUSH4 0x1A9D480 MUL DUP4 ADD SWAP3 POP PUSH16 0x80000000000000000000000000000000 DUP3 DUP3 MUL DUP2 PUSH2 0x536D JUMPI INVALID JUMPDEST SDIV SWAP1 POP DUP1 PUSH3 0x1C6380 MUL DUP4 ADD SWAP3 POP PUSH16 0x80000000000000000000000000000000 DUP3 DUP3 MUL DUP2 PUSH2 0x5395 JUMPI INVALID JUMPDEST SDIV SWAP1 POP DUP1 PUSH3 0x1C638 MUL DUP4 ADD SWAP3 POP PUSH16 0x80000000000000000000000000000000 DUP3 DUP3 MUL DUP2 PUSH2 0x53BD JUMPI INVALID JUMPDEST SDIV SWAP1 POP DUP1 PUSH2 0x1AB8 MUL DUP4 ADD SWAP3 POP PUSH16 0x80000000000000000000000000000000 DUP3 DUP3 MUL DUP2 PUSH2 0x53E4 JUMPI INVALID JUMPDEST SDIV SWAP1 POP DUP1 PUSH2 0x17C MUL DUP4 ADD SWAP3 POP PUSH16 0x80000000000000000000000000000000 DUP3 DUP3 MUL DUP2 PUSH2 0x540B JUMPI INVALID JUMPDEST SDIV SWAP1 POP DUP1 PUSH1 0x14 MUL DUP4 ADD SWAP3 POP PUSH16 0x80000000000000000000000000000000 DUP3 DUP3 MUL DUP2 PUSH2 0x5431 JUMPI INVALID JUMPDEST PUSH1 0x0 SWAP6 SWAP1 SWAP6 SUB SWAP5 PUSH8 0x21C3677C82B40000 SWAP2 SWAP1 SDIV SWAP4 DUP5 ADD SDIV DUP3 ADD PUSH16 0x80000000000000000000000000000000 ADD SWAP3 SWAP1 POP PUSH17 0x1000000000000000000000000000000000 DUP5 AND ISZERO PUSH2 0x54A0 JUMPI PUSH19 0x43CBAF42A000812488FC5C220AD7B97BF6E99E PUSH13 0xF1AADDD7742E56D32FB9F99744 DUP5 MUL SDIV SWAP3 POP JUMPDEST PUSH17 0x800000000000000000000000000000000 DUP5 AND ISZERO PUSH2 0x54E2 JUMPI PUSH18 0x5D27A9F51C31B7C2F8038212A0574779991 PUSH15 0xAFE10820813D65DFE6A33C07F738F DUP5 MUL SDIV SWAP3 POP JUMPDEST PUSH17 0x400000000000000000000000000000000 DUP5 AND ISZERO PUSH2 0x5524 JUMPI PUSH17 0x1B4C902E273A58678D6D3BFDB93DB96D02 PUSH16 0x2582AB704279E8EFD15E0265855C47A DUP5 MUL SDIV SWAP3 POP JUMPDEST PUSH17 0x200000000000000000000000000000000 DUP5 AND ISZERO PUSH2 0x5566 JUMPI PUSH17 0x3B1CC971A9BB5B9867477440D6D157750 PUSH16 0x1152AAA3BF81CB9FDB76EAE12D029571 DUP5 MUL SDIV SWAP3 POP JUMPDEST PUSH17 0x100000000000000000000000000000000 DUP5 AND ISZERO PUSH2 0x55A8 JUMPI PUSH17 0x15BF0A8B1457695355FB8AC404E7A79E3 PUSH16 0x2F16AC6C59DE6F8D5D6F63C1482A7C86 DUP5 MUL SDIV SWAP3 POP JUMPDEST PUSH16 0x80000000000000000000000000000000 DUP5 AND ISZERO PUSH2 0x55E8 JUMPI PUSH16 0xD3094C70F034DE4B96FF7D5B6F99FCD8 PUSH16 0x4DA2CBF1BE5827F9EB3AD1AA9866EBB3 DUP5 MUL SDIV SWAP3 POP JUMPDEST PUSH16 0x40000000000000000000000000000000 DUP5 AND ISZERO PUSH2 0x5628 JUMPI PUSH16 0xA45AF1E1F40C333B3DE1DB4DD55F29A7 PUSH16 0x63AFBE7AB2082BA1A0AE5E4EB1B479DC DUP5 MUL SDIV SWAP3 POP JUMPDEST PUSH16 0x20000000000000000000000000000000 DUP5 AND ISZERO PUSH2 0x5668 JUMPI PUSH16 0x910B022DB7AE67CE76B441C27035C6A1 PUSH16 0x70F5A893B608861E1F58934F97AEA57D DUP5 MUL SDIV SWAP3 POP JUMPDEST PUSH16 0x10000000000000000000000000000000 DUP5 AND ISZERO PUSH2 0x56A8 JUMPI PUSH16 0x88415ABBE9A76BEAD8D00CF112E4D4A8 PUSH16 0x783EAFEF1C0A8F3978C7F81824D62EBF DUP5 MUL SDIV SWAP3 POP JUMPDEST POP POP SWAP2 SWAP1 POP JUMP JUMPDEST PUSH1 0x0 PUSH16 0x80000000000000000000000000000000 PUSH2 0x56CC DUP5 DUP5 PUSH2 0x58BA JUMP JUMPDEST DUP2 PUSH2 0x56D3 JUMPI INVALID JUMPDEST SDIV SWAP4 SWAP3 POP POP POP JUMP JUMPDEST PUSH1 0x0 DUP1 DUP3 SLT ISZERO PUSH2 0x56F3 JUMPI PUSH2 0x56F3 PUSH2 0x9B9 PUSH1 0x1 DUP5 PUSH2 0x580D JUMP JUMPDEST PUSH1 0x0 PUSH2 0x56FF DUP5 DUP5 PUSH2 0x58BA JUMP JUMPDEST SWAP1 POP PUSH1 0x0 DUP2 SGT PUSH2 0x5713 JUMPI PUSH1 0x0 SWAP2 POP POP PUSH2 0x1183 JUMP JUMPDEST PUSH1 0x7F SHR SWAP4 SWAP3 POP POP POP JUMP JUMPDEST PUSH1 0x20 ADD MLOAD ISZERO ISZERO SWAP1 JUMP JUMPDEST PUSH1 0x0 DUP1 DUP6 PUSH2 0x5738 JUMPI POP DUP3 SWAP1 POP DUP2 PUSH2 0x576D JUMP JUMPDEST DUP4 PUSH2 0x5747 JUMPI POP DUP5 SWAP1 POP DUP4 PUSH2 0x576D JUMP JUMPDEST PUSH2 0x575E PUSH2 0x5754 DUP6 DUP8 PUSH2 0x4657 JUMP JUMPDEST PUSH2 0x41DB DUP9 DUP7 PUSH2 0x4657 JUMP JUMPDEST SWAP2 POP PUSH2 0x576A DUP6 DUP5 PUSH2 0x4657 JUMP JUMPDEST SWAP1 POP JUMPDEST SWAP5 POP SWAP5 SWAP3 POP POP POP JUMP JUMPDEST PUSH1 0x0 DUP1 PUSH2 0x5794 DUP5 DUP5 PUSH16 0x80000000000000000000000000000000 PUSH2 0x59BD JUMP JUMPDEST SWAP2 POP SWAP2 POP SWAP3 POP SWAP3 SWAP1 POP JUMP JUMPDEST PUSH1 0xC SLOAD PUSH1 0x0 SWAP1 PUSH2 0x57B0 SWAP1 PUSH1 0x1 PUSH2 0x23C7 JUMP JUMPDEST SWAP1 POP PUSH2 0x57BA PUSH2 0x5B90 JUMP JUMPDEST POP PUSH1 0x0 DUP3 DUP2 MSTORE PUSH1 0x15 PUSH1 0x20 SWAP1 DUP2 MSTORE PUSH1 0x40 DUP1 DUP4 KECCAK256 DUP5 DUP5 MSTORE DUP3 MSTORE SWAP2 DUP3 SWAP1 KECCAK256 DUP3 MLOAD PUSH1 0x60 DUP2 ADD DUP5 MSTORE DUP2 SLOAD DUP1 DUP3 MSTORE PUSH1 0x1 DUP4 ADD SLOAD SWAP4 DUP3 ADD SWAP4 SWAP1 SWAP4 MSTORE PUSH1 0x2 SWAP1 SWAP2 ADD SLOAD SWAP3 DUP2 ADD SWAP3 SWAP1 SWAP3 MSTORE ISZERO PUSH2 0x1496 JUMPI PUSH2 0x1496 PUSH2 0x9B9 DUP5 DUP5 PUSH2 0x5A19 JUMP JUMPDEST PUSH1 0x60 PUSH32 0xBD79545F00000000000000000000000000000000000000000000000000000000 DUP4 PUSH1 0x1 DUP2 GT ISZERO PUSH2 0x583C JUMPI INVALID JUMPDEST PUSH1 0x40 DUP1 MLOAD PUSH1 0xFF SWAP1 SWAP3 AND PUSH1 0x24 DUP4 ADD MSTORE PUSH1 0x44 DUP1 DUP4 ADD DUP7 SWAP1 MSTORE DUP2 MLOAD DUP1 DUP5 SUB SWAP1 SWAP2 ADD DUP2 MSTORE PUSH1 0x64 SWAP1 SWAP3 ADD SWAP1 MSTORE PUSH1 0x20 DUP2 ADD DUP1 MLOAD PUSH28 0xFFFFFFFFFFFFFFFFFFFFFFFFFFFFFFFFFFFFFFFFFFFFFFFFFFFFFFFF AND PUSH32 0xFFFFFFFF00000000000000000000000000000000000000000000000000000000 SWAP1 SWAP4 AND SWAP3 SWAP1 SWAP3 OR SWAP1 SWAP2 MSTORE SWAP1 POP SWAP3 SWAP2 POP POP JUMP JUMPDEST PUSH1 0x0 DUP3 ISZERO DUP1 PUSH2 0x58C7 JUMPI POP DUP2 ISZERO JUMPDEST ISZERO PUSH2 0x58D4 JUMPI POP PUSH1 0x0 PUSH2 0x1183 JUMP JUMPDEST POP DUP2 DUP2 MUL DUP2 DUP4 DUP3 DUP2 PUSH2 0x58E2 JUMPI INVALID JUMPDEST SDIV EQ ISZERO DUP1 PUSH2 0x58F9 JUMPI POP DUP3 DUP3 DUP3 DUP2 PUSH2 0x58F5 JUMPI INVALID JUMPDEST SDIV EQ ISZERO JUMPDEST ISZERO PUSH2 0x1183 JUMPI PUSH2 0x1183 PUSH2 0x9B9 PUSH1 0x1 DUP6 DUP6 PUSH2 0x5A8C JUMP JUMPDEST PUSH1 0x0 DUP2 PUSH2 0x5923 JUMPI PUSH2 0x5923 PUSH2 0x9B9 PUSH1 0x2 DUP6 DUP6 PUSH2 0x5A8C JUMP JUMPDEST PUSH32 0x8000000000000000000000000000000000000000000000000000000000000000 DUP4 EQ DUP1 ISZERO PUSH2 0x5971 JUMPI POP DUP2 PUSH32 0xFFFFFFFFFFFFFFFFFFFFFFFFFFFFFFFFFFFFFFFFFFFFFFFFFFFFFFFFFFFFFFFF EQ JUMPDEST ISZERO PUSH2 0x5985 JUMPI PUSH2 0x5985 PUSH2 0x9B9 PUSH1 0x3 DUP6 DUP6 PUSH2 0x5A8C JUMP JUMPDEST DUP2 DUP4 DUP2 PUSH2 0x56D3 JUMPI INVALID JUMPDEST PUSH1 0x60 PUSH32 0xED2F26A100000000000000000000000000000000000000000000000000000000 DUP4 PUSH1 0x1 DUP2 GT ISZERO PUSH2 0x583C JUMPI INVALID JUMPDEST PUSH1 0x0 DUP1 DUP3 DUP6 GT DUP1 PUSH2 0x59CD JUMPI POP DUP3 DUP5 GT JUMPDEST ISZERO PUSH2 0x5A10 JUMPI PUSH1 0x0 DUP5 DUP7 LT ISZERO PUSH2 0x59E2 JUMPI DUP5 PUSH2 0x59E4 JUMP JUMPDEST DUP6 JUMPDEST SWAP1 POP PUSH2 0x59F0 DUP2 DUP6 PUSH2 0x4688 JUMP JUMPDEST SWAP1 POP PUSH2 0x59FC DUP7 DUP3 PUSH2 0x4688 JUMP JUMPDEST SWAP3 POP PUSH2 0x5A08 DUP6 DUP3 PUSH2 0x4688 JUMP JUMPDEST SWAP2 POP POP PUSH2 0x33DA JUMP JUMPDEST POP SWAP3 SWAP4 SWAP2 SWAP3 POP POP JUMP JUMPDEST PUSH1 0x40 DUP1 MLOAD PUSH1 0x24 DUP2 ADD DUP5 SWAP1 MSTORE PUSH1 0x44 DUP1 DUP3 ADD DUP5 SWAP1 MSTORE DUP3 MLOAD DUP1 DUP4 SUB SWAP1 SWAP2 ADD DUP2 MSTORE PUSH1 0x64 SWAP1 SWAP2 ADD SWAP1 SWAP2 MSTORE PUSH1 0x20 DUP2 ADD DUP1 MLOAD PUSH28 0xFFFFFFFFFFFFFFFFFFFFFFFFFFFFFFFFFFFFFFFFFFFFFFFFFFFFFFFF AND PUSH32 0x5CAA0B0500000000000000000000000000000000000000000000000000000000 OR SWAP1 MSTORE SWAP3 SWAP2 POP POP JUMP JUMPDEST PUSH1 0x60 PUSH32 0x8C12DFE700000000000000000000000000000000000000000000000000000000 DUP5 PUSH1 0x3 DUP2 GT ISZERO PUSH2 0x5ABB JUMPI INVALID JUMPDEST PUSH1 0x40 DUP1 MLOAD PUSH1 0xFF SWAP1 SWAP3 AND PUSH1 0x24 DUP4 ADD MSTORE PUSH1 0x44 DUP3 ADD DUP7 SWAP1 MSTORE PUSH1 0x64 DUP1 DUP4 ADD DUP7 SWAP1 MSTORE DUP2 MLOAD DUP1 DUP5 SUB SWAP1 SWAP2 ADD DUP2 MSTORE PUSH1 0x84 SWAP1 SWAP3 ADD SWAP1 MSTORE PUSH1 0x20 DUP2 ADD DUP1 MLOAD PUSH28 0xFFFFFFFFFFFFFFFFFFFFFFFFFFFFFFFFFFFFFFFFFFFFFFFFFFFFFFFF AND PUSH32 0xFFFFFFFF00000000000000000000000000000000000000000000000000000000 SWAP1 SWAP4 AND SWAP3 SWAP1 SWAP3 OR SWAP1 SWAP2 MSTORE SWAP1 POP SWAP4 SWAP3 POP POP POP JUMP JUMPDEST PUSH1 0x40 MLOAD DUP1 PUSH1 0xA0 ADD PUSH1 0x40 MSTORE DUP1 PUSH1 0x0 DUP2 MSTORE PUSH1 0x20 ADD PUSH1 0x0 DUP2 MSTORE PUSH1 0x20 ADD PUSH1 0x0 DUP2 MSTORE PUSH1 0x20 ADD PUSH1 0x0 DUP2 MSTORE PUSH1 0x20 ADD PUSH1 0x0 DUP2 MSTORE POP SWAP1 JUMP JUMPDEST PUSH1 0x40 DUP1 MLOAD PUSH1 0x60 DUP2 ADD DUP3 MSTORE PUSH1 0x0 DUP1 DUP3 MSTORE PUSH1 0x20 DUP3 ADD DUP2 SWAP1 MSTORE SWAP2 DUP2 ADD SWAP2 SWAP1 SWAP2 MSTORE SWAP1 JUMP JUMPDEST PUSH1 0x40 MLOAD DUP1 PUSH1 0x60 ADD PUSH1 0x40 MSTORE DUP1 PUSH1 0x0 DUP2 MSTORE PUSH1 0x20 ADD PUSH1 0x0 DUP2 MSTORE PUSH1 0x20 ADD PUSH1 0x0 DUP2 MSTORE POP SWAP1 JUMP JUMPDEST PUSH1 0x40 MLOAD DUP1 PUSH1 0x40 ADD PUSH1 0x40 MSTORE DUP1 PUSH1 0x0 DUP2 MSTORE PUSH1 0x20 ADD PUSH1 0x0 DUP2 MSTORE POP SWAP1 JUMP JUMPDEST DUP1 CALLDATALOAD PUSH1 0x2 DUP2 LT PUSH2 0xD3A JUMPI PUSH1 0x0 DUP1 REVERT JUMPDEST PUSH1 0x0 DUP3 PUSH1 0x1F DUP4 ADD SLT PUSH2 0x5BEA JUMPI DUP1 DUP2 REVERT JUMPDEST DUP2 MLOAD PUSH8 0xFFFFFFFFFFFFFFFF DUP1 DUP3 GT ISZERO PUSH2 0x5BFF JUMPI INVALID JUMPDEST PUSH1 0x40 MLOAD PUSH1 0x20 DUP1 PUSH32 0xFFFFFFFFFFFFFFFFFFFFFFFFFFFFFFFFFFFFFFFFFFFFFFFFFFFFFFFFFFFFFFE0 PUSH1 0x1F DUP7 ADD AND DUP4 ADD ADD DUP3 DUP2 LT DUP5 DUP3 GT OR ISZERO PUSH2 0x5C3C JUMPI INVALID JUMPDEST DUP1 PUSH1 0x40 MSTORE POP DUP2 SWAP5 POP DUP4 DUP3 MSTORE DUP7 DUP2 DUP6 DUP9 ADD ADD GT ISZERO PUSH2 0x5C58 JUMPI PUSH1 0x0 DUP1 REVERT JUMPDEST PUSH1 0x0 SWAP3 POP JUMPDEST DUP4 DUP4 LT ISZERO PUSH2 0x5C7A JUMPI DUP6 DUP4 ADD DUP2 ADD MLOAD DUP3 DUP5 ADD DUP3 ADD MSTORE SWAP2 DUP3 ADD SWAP2 PUSH2 0x5C5D JUMP JUMPDEST DUP4 DUP4 GT ISZERO PUSH2 0x5C8B JUMPI PUSH1 0x0 DUP2 DUP6 DUP5 ADD ADD MSTORE JUMPDEST POP POP POP POP SWAP3 SWAP2 POP POP JUMP JUMPDEST PUSH1 0x0 PUSH1 0x40 DUP3 DUP5 SUB SLT ISZERO PUSH2 0x2719 JUMPI DUP1 DUP2 REVERT JUMPDEST DUP1 CALLDATALOAD PUSH4 0xFFFFFFFF DUP2 AND DUP2 EQ PUSH2 0xD3A JUMPI PUSH1 0x0 DUP1 REVERT JUMPDEST PUSH1 0x0 PUSH1 0x20 DUP3 DUP5 SUB SLT ISZERO PUSH2 0x5CCB JUMPI DUP1 DUP2 REVERT JUMPDEST DUP2 CALLDATALOAD PUSH2 0x1180 DUP2 PUSH2 0x6395 JUMP JUMPDEST PUSH1 0x0 PUSH1 0x20 DUP3 DUP5 SUB SLT ISZERO PUSH2 0x5CE7 JUMPI DUP1 DUP2 REVERT JUMPDEST DUP2 MLOAD PUSH2 0x1180 DUP2 PUSH2 0x6395 JUMP JUMPDEST PUSH1 0x0 DUP1 PUSH1 0x0 PUSH1 0x60 DUP5 DUP7 SUB SLT ISZERO PUSH2 0x5D06 JUMPI DUP2 DUP3 REVERT JUMPDEST DUP4 CALLDATALOAD PUSH2 0x5D11 DUP2 PUSH2 0x6395 JUMP JUMPDEST SWAP3 POP PUSH1 0x20 DUP5 ADD CALLDATALOAD PUSH2 0x5D21 DUP2 PUSH2 0x6395 JUMP JUMPDEST SWAP3 SWAP6 SWAP3 SWAP5 POP POP POP PUSH1 0x40 SWAP2 SWAP1 SWAP2 ADD CALLDATALOAD SWAP1 JUMP JUMPDEST PUSH1 0x0 DUP1 PUSH1 0x40 DUP4 DUP6 SUB SLT ISZERO PUSH2 0x5D44 JUMPI DUP2 DUP3 REVERT JUMPDEST DUP3 CALLDATALOAD PUSH2 0x5D4F DUP2 PUSH2 0x6395 JUMP JUMPDEST SWAP5 PUSH1 0x20 SWAP4 SWAP1 SWAP4 ADD CALLDATALOAD SWAP4 POP POP POP JUMP JUMPDEST PUSH1 0x0 DUP1 PUSH1 0x40 DUP4 DUP6 SUB SLT ISZERO PUSH2 0x5D6F JUMPI DUP2 DUP3 REVERT JUMPDEST DUP3 CALLDATALOAD PUSH2 0x5D7A DUP2 PUSH2 0x6395 JUMP JUMPDEST SWAP2 POP PUSH2 0x5D88 PUSH1 0x20 DUP5 ADD PUSH2 0x5BCB JUMP JUMPDEST SWAP1 POP SWAP3 POP SWAP3 SWAP1 POP JUMP JUMPDEST PUSH1 0x0 DUP1 PUSH1 0x0 DUP1 PUSH1 0x0 DUP1 PUSH1 0xC0 DUP8 DUP10 SUB SLT ISZERO PUSH2 0x5DA9 JUMPI DUP2 DUP3 REVERT JUMPDEST DUP7 MLOAD PUSH2 0x5DB4 DUP2 PUSH2 0x6395 JUMP JUMPDEST PUSH1 0x20 DUP9 ADD MLOAD SWAP1 SWAP7 POP PUSH8 0xFFFFFFFFFFFFFFFF DUP1 DUP3 GT ISZERO PUSH2 0x5DD1 JUMPI DUP4 DUP5 REVERT JUMPDEST PUSH2 0x5DDD DUP11 DUP4 DUP12 ADD PUSH2 0x5BDA JUMP JUMPDEST SWAP7 POP PUSH1 0x40 DUP10 ADD MLOAD SWAP2 POP DUP1 DUP3 GT ISZERO PUSH2 0x5DF2 JUMPI DUP4 DUP5 REVERT JUMPDEST POP PUSH2 0x5DFF DUP10 DUP3 DUP11 ADD PUSH2 0x5BDA JUMP JUMPDEST SWAP5 POP POP PUSH1 0x60 DUP8 ADD MLOAD SWAP3 POP PUSH1 0x80 DUP8 ADD MLOAD PUSH2 0x5E17 DUP2 PUSH2 0x6395 JUMP JUMPDEST PUSH1 0xA0 DUP9 ADD MLOAD SWAP1 SWAP3 POP PUSH2 0x5E28 DUP2 PUSH2 0x6395 JUMP JUMPDEST DUP1 SWAP2 POP POP SWAP3 SWAP6 POP SWAP3 SWAP6 POP SWAP3 SWAP6 JUMP JUMPDEST PUSH1 0x0 PUSH1 0x20 DUP3 DUP5 SUB SLT ISZERO PUSH2 0x5E47 JUMPI DUP1 DUP2 REVERT JUMPDEST DUP2 MLOAD DUP1 ISZERO ISZERO DUP2 EQ PUSH2 0x1180 JUMPI DUP2 DUP3 REVERT JUMPDEST PUSH1 0x0 PUSH1 0x20 DUP3 DUP5 SUB SLT ISZERO PUSH2 0x5E67 JUMPI DUP1 DUP2 REVERT JUMPDEST POP CALLDATALOAD SWAP2 SWAP1 POP JUMP JUMPDEST PUSH1 0x0 DUP1 PUSH1 0x40 DUP4 DUP6 SUB SLT ISZERO PUSH2 0x5E80 JUMPI DUP2 DUP3 REVERT JUMPDEST DUP3 CALLDATALOAD SWAP2 POP PUSH1 0x20 DUP4 ADD CALLDATALOAD PUSH2 0x5E92 DUP2 PUSH2 0x6395 JUMP JUMPDEST DUP1 SWAP2 POP POP SWAP3 POP SWAP3 SWAP1 POP JUMP JUMPDEST PUSH1 0x0 DUP1 PUSH1 0x40 DUP4 DUP6 SUB SLT ISZERO PUSH2 0x5EAF JUMPI DUP2 DUP3 REVERT JUMPDEST POP POP DUP1 CALLDATALOAD SWAP3 PUSH1 0x20 SWAP1 SWAP2 ADD CALLDATALOAD SWAP2 POP JUMP JUMPDEST PUSH1 0x0 DUP1 PUSH1 0x40 DUP4 DUP6 SUB SLT ISZERO PUSH2 0x5ED0 JUMPI DUP2 DUP3 REVERT JUMPDEST DUP3 CALLDATALOAD SWAP2 POP PUSH2 0x5D88 PUSH1 0x20 DUP5 ADD PUSH2 0x5CA6 JUMP JUMPDEST PUSH1 0x0 PUSH1 0x20 DUP3 DUP5 SUB SLT ISZERO PUSH2 0x5EF1 JUMPI DUP1 DUP2 REVERT JUMPDEST PUSH2 0x1180 DUP3 PUSH2 0x5BCB JUMP JUMPDEST PUSH1 0x0 DUP1 PUSH1 0x0 PUSH1 0xA0 DUP5 DUP7 SUB SLT ISZERO PUSH2 0x5F0E JUMPI DUP1 DUP2 REVERT JUMPDEST PUSH2 0x5F18 DUP6 DUP6 PUSH2 0x5C95 JUMP JUMPDEST SWAP3 POP PUSH2 0x5F27 DUP6 PUSH1 0x40 DUP7 ADD PUSH2 0x5C95 JUMP JUMPDEST SWAP2 POP PUSH1 0x80 DUP5 ADD CALLDATALOAD SWAP1 POP SWAP3 POP SWAP3 POP SWAP3 JUMP JUMPDEST PUSH1 0x0 PUSH1 0x20 DUP3 DUP5 SUB SLT ISZERO PUSH2 0x5F48 JUMPI DUP1 DUP2 REVERT JUMPDEST POP MLOAD SWAP2 SWAP1 POP JUMP JUMPDEST PUSH1 0x0 DUP1 PUSH1 0x0 DUP1 PUSH1 0x0 DUP1 PUSH1 0xC0 DUP8 DUP10 SUB SLT ISZERO PUSH2 0x5F67 JUMPI DUP4 DUP5 REVERT JUMPDEST DUP7 MLOAD SWAP6 POP PUSH1 0x20 DUP8 ADD MLOAD PUSH8 0xFFFFFFFFFFFFFFFF DUP1 DUP3 GT ISZERO PUSH2 0x5F85 JUMPI DUP6 DUP7 REVERT JUMPDEST PUSH2 0x5F91 DUP11 DUP4 DUP12 ADD PUSH2 0x5BDA JUMP JUMPDEST SWAP7 POP PUSH1 0x40 DUP10 ADD MLOAD SWAP2 POP DUP1 DUP3 GT ISZERO PUSH2 0x5DF2 JUMPI DUP6 DUP7 REVERT JUMPDEST PUSH1 0x0 DUP1 PUSH1 0x0 DUP1 PUSH1 0x0 PUSH1 0xA0 DUP7 DUP9 SUB SLT ISZERO PUSH2 0x5FBD JUMPI DUP3 DUP4 REVERT JUMPDEST DUP6 CALLDATALOAD SWAP5 POP PUSH2 0x5FCD PUSH1 0x20 DUP8 ADD PUSH2 0x5CA6 JUMP JUMPDEST SWAP4 POP PUSH1 0x40 DUP7 ADD CALLDATALOAD SWAP3 POP PUSH2 0x5FE2 PUSH1 0x60 DUP8 ADD PUSH2 0x5CA6 JUMP JUMPDEST SWAP2 POP PUSH2 0x5FF0 PUSH1 0x80 DUP8 ADD PUSH2 0x5CA6 JUMP JUMPDEST SWAP1 POP SWAP3 SWAP6 POP SWAP3 SWAP6 SWAP1 SWAP4 POP JUMP JUMPDEST PUSH20 0xFFFFFFFFFFFFFFFFFFFFFFFFFFFFFFFFFFFFFFFF SWAP2 SWAP1 SWAP2 AND DUP2 MSTORE PUSH1 0x20 ADD SWAP1 JUMP JUMPDEST PUSH20 0xFFFFFFFFFFFFFFFFFFFFFFFFFFFFFFFFFFFFFFFF SWAP4 DUP5 AND DUP2 MSTORE SWAP2 SWAP1 SWAP3 AND PUSH1 0x20 DUP3 ADD MSTORE PUSH1 0x40 DUP2 ADD SWAP2 SWAP1 SWAP2 MSTORE PUSH1 0x60 ADD SWAP1 JUMP JUMPDEST PUSH20 0xFFFFFFFFFFFFFFFFFFFFFFFFFFFFFFFFFFFFFFFF SWAP3 SWAP1 SWAP3 AND DUP3 MSTORE PUSH1 0x20 DUP3 ADD MSTORE PUSH1 0x40 ADD SWAP1 JUMP JUMPDEST PUSH1 0x20 DUP1 DUP3 MSTORE DUP3 MLOAD DUP3 DUP3 ADD DUP2 SWAP1 MSTORE PUSH1 0x0 SWAP2 SWAP1 DUP5 DUP3 ADD SWAP1 PUSH1 0x40 DUP6 ADD SWAP1 DUP5 JUMPDEST DUP2 DUP2 LT ISZERO PUSH2 0x60C2 JUMPI DUP4 MLOAD PUSH20 0xFFFFFFFFFFFFFFFFFFFFFFFFFFFFFFFFFFFFFFFF AND DUP4 MSTORE SWAP3 DUP5 ADD SWAP3 SWAP2 DUP5 ADD SWAP2 PUSH1 0x1 ADD PUSH2 0x6090 JUMP JUMPDEST POP SWAP1 SWAP7 SWAP6 POP POP POP POP POP POP JUMP JUMPDEST SWAP1 ISZERO ISZERO DUP2 MSTORE PUSH1 0x20 ADD SWAP1 JUMP JUMPDEST SWAP1 DUP2 MSTORE PUSH1 0x20 ADD SWAP1 JUMP JUMPDEST SWAP3 DUP4 MSTORE PUSH20 0xFFFFFFFFFFFFFFFFFFFFFFFFFFFFFFFFFFFFFFFF SWAP2 SWAP1 SWAP2 AND PUSH1 0x20 DUP4 ADD MSTORE PUSH4 0xFFFFFFFF AND PUSH1 0x40 DUP3 ADD MSTORE PUSH1 0x60 ADD SWAP1 JUMP JUMPDEST SWAP2 DUP3 MSTORE PUSH1 0x20 DUP3 ADD MSTORE PUSH1 0x40 ADD SWAP1 JUMP JUMPDEST PUSH1 0x20 DUP1 DUP3 MSTORE PUSH1 0x1C SWAP1 DUP3 ADD MSTORE PUSH32 0x4E4F4E5F524547495354455245445F504F4F4C5F49445F4552524F5200000000 PUSH1 0x40 DUP3 ADD MSTORE PUSH1 0x60 ADD SWAP1 JUMP JUMPDEST PUSH1 0x20 DUP1 DUP3 MSTORE PUSH1 0x1B SWAP1 DUP3 ADD MSTORE PUSH32 0x504F4F4C5F544F5F4A4F494E5F4E4F545F53454C465F4552524F520000000000 PUSH1 0x40 DUP3 ADD MSTORE PUSH1 0x60 ADD SWAP1 JUMP JUMPDEST PUSH1 0x20 DUP1 DUP3 MSTORE PUSH1 0x1C SWAP1 DUP3 ADD MSTORE PUSH32 0x4E4F4E5F524547495354455245445F52425F504F4F4C5F4552524F5200000000 PUSH1 0x40 DUP3 ADD MSTORE PUSH1 0x60 ADD SWAP1 JUMP JUMPDEST PUSH1 0x20 DUP1 DUP3 MSTORE PUSH1 0x13 SWAP1 DUP3 ADD MSTORE PUSH32 0x43525F494E54455256414C5F494E56414C494400000000000000000000000000 PUSH1 0x40 DUP3 ADD MSTORE PUSH1 0x60 ADD SWAP1 JUMP JUMPDEST PUSH1 0x20 DUP1 DUP3 MSTORE PUSH1 0x14 SWAP1 DUP3 ADD MSTORE PUSH32 0x574554485F5452414E534645525F4641494C4544000000000000000000000000 PUSH1 0x40 DUP3 ADD MSTORE PUSH1 0x60 ADD SWAP1 JUMP JUMPDEST DUP2 MLOAD DUP2 MSTORE PUSH1 0x20 DUP1 DUP4 ADD MLOAD SWAP1 DUP3 ADD MSTORE PUSH1 0x40 SWAP2 DUP3 ADD MLOAD SWAP2 DUP2 ADD SWAP2 SWAP1 SWAP2 MSTORE PUSH1 0x60 ADD SWAP1 JUMP JUMPDEST DUP2 MLOAD PUSH20 0xFFFFFFFFFFFFFFFFFFFFFFFFFFFFFFFFFFFFFFFF SWAP1 DUP2 AND DUP3 MSTORE PUSH1 0x20 DUP1 DUP5 ADD MLOAD PUSH4 0xFFFFFFFF AND SWAP1 DUP4 ADD MSTORE PUSH1 0x40 SWAP3 DUP4 ADD MLOAD AND SWAP2 DUP2 ADD SWAP2 SWAP1 SWAP2 MSTORE PUSH1 0x60 ADD SWAP1 JUMP JUMPDEST DUP2 MLOAD PUSH8 0xFFFFFFFFFFFFFFFF AND DUP2 MSTORE PUSH1 0x20 DUP1 DUP4 ADD MLOAD PUSH12 0xFFFFFFFFFFFFFFFFFFFFFFFF SWAP1 DUP2 AND SWAP2 DUP4 ADD SWAP2 SWAP1 SWAP2 MSTORE PUSH1 0x40 SWAP3 DUP4 ADD MLOAD AND SWAP2 DUP2 ADD SWAP2 SWAP1 SWAP2 MSTORE PUSH1 0x60 ADD SWAP1 JUMP JUMPDEST SWAP3 DUP4 MSTORE PUSH1 0x20 DUP4 ADD SWAP2 SWAP1 SWAP2 MSTORE PUSH1 0x40 DUP3 ADD MSTORE PUSH1 0x60 ADD SWAP1 JUMP JUMPDEST SWAP4 DUP5 MSTORE PUSH1 0x20 DUP5 ADD SWAP3 SWAP1 SWAP3 MSTORE PUSH1 0x40 DUP4 ADD MSTORE PUSH1 0x60 DUP3 ADD MSTORE PUSH1 0x80 ADD SWAP1 JUMP JUMPDEST SWAP5 DUP6 MSTORE PUSH1 0x20 DUP6 ADD SWAP4 SWAP1 SWAP4 MSTORE PUSH1 0x40 DUP5 ADD SWAP2 SWAP1 SWAP2 MSTORE PUSH1 0x60 DUP4 ADD MSTORE PUSH1 0x80 DUP3 ADD MSTORE PUSH1 0xA0 ADD SWAP1 JUMP JUMPDEST SWAP5 DUP6 MSTORE PUSH4 0xFFFFFFFF SWAP4 DUP5 AND PUSH1 0x20 DUP7 ADD MSTORE PUSH1 0x40 DUP6 ADD SWAP3 SWAP1 SWAP3 MSTORE DUP3 AND PUSH1 0x60 DUP5 ADD MSTORE AND PUSH1 0x80 DUP3 ADD MSTORE PUSH1 0xA0 ADD SWAP1 JUMP JUMPDEST SWAP3 DUP4 MSTORE PUSH1 0xFF SWAP2 DUP3 AND PUSH1 0x20 DUP5 ADD MSTORE AND PUSH1 0x40 DUP3 ADD MSTORE PUSH1 0x60 ADD SWAP1 JUMP JUMPDEST PUSH4 0xFFFFFFFF SWAP2 SWAP1 SWAP2 AND DUP2 MSTORE PUSH1 0x20 ADD SWAP1 JUMP JUMPDEST PUSH4 0xFFFFFFFF SWAP3 DUP4 AND DUP2 MSTORE SWAP2 AND PUSH1 0x20 DUP3 ADD MSTORE PUSH1 0x40 ADD SWAP1 JUMP JUMPDEST PUSH20 0xFFFFFFFFFFFFFFFFFFFFFFFFFFFFFFFFFFFFFFFF DUP2 AND DUP2 EQ PUSH2 0x1127 JUMPI PUSH1 0x0 DUP1 REVERT INVALID LOG2 PUSH5 0x6970667358 0x22 SLT KECCAK256 PUSH14 0x62AF08973AB46EA6B3CFADD8F4AC 0xEB 0xE9 0xE3 0xB2 0xC4 CREATE2 0xC0 CALLDATALOAD 0xEA 0xDC CALLER 0xED 0xE 0x2F EXP PUSH16 0xE564736F6C6343000704003300000000 "
			}
		}
	},
	"sourceTreeHashHex": "0x6c4cad8e9bad72d8ae48cc8cd570b0e3bf76730c6ea483c2a72fb5d29c37b39e",
	"compiler": {
		"name": "solc",
		"version": "0.7.4+commit.3f05b770",
		"settings": {
			"remappings": [],
			"optimizer": {
				"enabled": true,
				"runs": 1000000
			},
			"outputSelection": {
				"*": {
					"*": [
						"abi",
						"devdoc",
						"evm.bytecode.object",
						"evm.bytecode.sourceMap",
						"evm.deployedBytecode.object",
						"evm.deployedBytecode.sourceMap"
					]
				}
			}
		}
	},
	"chains": {}
}