{
	"schemaVersion": "2.0.0",
	"contractName": "Staking",
	"compilerOutput": {
		"abi": [
			{
				"anonymous": false,
				"inputs": [
					{
						"indexed": true,
						"internalType": "address",
						"name": "target",
						"type": "address"
					},
					{
						"indexed": true,
						"internalType": "address",
						"name": "caller",
						"type": "address"
					}
				],
				"name": "AuthorizedAddressAdded",
				"type": "event"
			},
			{
				"anonymous": false,
				"inputs": [
					{
						"indexed": true,
						"internalType": "address",
						"name": "target",
						"type": "address"
					},
					{
						"indexed": true,
						"internalType": "address",
						"name": "caller",
						"type": "address"
					}
				],
				"name": "AuthorizedAddressRemoved",
				"type": "event"
			},
			{
				"anonymous": false,
				"inputs": [
					{
						"indexed": true,
						"internalType": "uint256",
						"name": "epoch",
						"type": "uint256"
					},
					{
						"indexed": false,
						"internalType": "uint256",
						"name": "numPoolsToFinalize",
						"type": "uint256"
					},
					{
						"indexed": false,
						"internalType": "uint256",
						"name": "rewardsAvailable",
						"type": "uint256"
					},
					{
						"indexed": false,
						"internalType": "uint256",
						"name": "totalFeesCollected",
						"type": "uint256"
					},
					{
						"indexed": false,
						"internalType": "uint256",
						"name": "totalWeightedStake",
						"type": "uint256"
					}
				],
				"name": "EpochEnded",
				"type": "event"
			},
			{
				"anonymous": false,
				"inputs": [
					{
						"indexed": true,
						"internalType": "uint256",
						"name": "epoch",
						"type": "uint256"
					},
					{
						"indexed": false,
						"internalType": "uint256",
						"name": "rewardsPaid",
						"type": "uint256"
					},
					{
						"indexed": false,
						"internalType": "uint256",
						"name": "rewardsRemaining",
						"type": "uint256"
					}
				],
				"name": "EpochFinalized",
				"type": "event"
			},
			{
				"anonymous": false,
				"inputs": [
					{
						"indexed": true,
						"internalType": "address",
						"name": "staker",
						"type": "address"
					},
					{
						"indexed": false,
						"internalType": "uint256",
						"name": "amount",
						"type": "uint256"
					},
					{
						"indexed": false,
						"internalType": "uint8",
						"name": "fromStatus",
						"type": "uint8"
					},
					{
						"indexed": true,
						"internalType": "bytes32",
						"name": "fromPool",
						"type": "bytes32"
					},
					{
						"indexed": false,
						"internalType": "uint8",
						"name": "toStatus",
						"type": "uint8"
					},
					{
						"indexed": true,
						"internalType": "bytes32",
						"name": "toPool",
						"type": "bytes32"
					}
				],
				"name": "MoveStake",
				"type": "event"
			},
			{
				"anonymous": false,
				"inputs": [
					{
						"indexed": true,
						"internalType": "bytes32",
						"name": "poolId",
						"type": "bytes32"
					},
					{
						"indexed": false,
						"internalType": "uint32",
						"name": "oldOperatorShare",
						"type": "uint32"
					},
					{
						"indexed": false,
						"internalType": "uint32",
						"name": "newOperatorShare",
						"type": "uint32"
					}
				],
				"name": "OperatorShareDecreased",
				"type": "event"
			},
			{
				"anonymous": false,
				"inputs": [
					{
						"indexed": true,
						"internalType": "address",
						"name": "previousOwner",
						"type": "address"
					},
					{
						"indexed": true,
						"internalType": "address",
						"name": "newOwner",
						"type": "address"
					}
				],
				"name": "OwnershipTransferred",
				"type": "event"
			},
			{
				"anonymous": false,
				"inputs": [
					{
						"indexed": false,
						"internalType": "uint256",
						"name": "epochDurationInSeconds",
						"type": "uint256"
					},
					{
						"indexed": false,
						"internalType": "uint32",
						"name": "rewardDelegatedStakeWeight",
						"type": "uint32"
					},
					{
						"indexed": false,
						"internalType": "uint256",
						"name": "minimumPoolStake",
						"type": "uint256"
					},
					{
						"indexed": false,
						"internalType": "uint256",
						"name": "cobbDouglasAlphaNumerator",
						"type": "uint256"
					},
					{
						"indexed": false,
						"internalType": "uint256",
						"name": "cobbDouglasAlphaDenominator",
						"type": "uint256"
					}
				],
				"name": "ParamsSet",
				"type": "event"
			},
			{
				"anonymous": false,
				"inputs": [
					{
						"indexed": false,
						"internalType": "address",
						"name": "exchangeAddress",
						"type": "address"
					}
				],
				"name": "PopAdded",
				"type": "event"
			},
			{
				"anonymous": false,
				"inputs": [
					{
						"indexed": false,
						"internalType": "address",
						"name": "exchangeAddress",
						"type": "address"
					}
				],
				"name": "PopRemoved",
				"type": "event"
			},
			{
				"anonymous": false,
				"inputs": [
					{
						"indexed": true,
						"internalType": "address",
						"name": "rbPoolAddress",
						"type": "address"
					},
					{
						"indexed": true,
						"internalType": "bytes32",
						"name": "poolId",
						"type": "bytes32"
					}
				],
				"name": "RbPoolStakingPoolSet",
				"type": "event"
			},
			{
				"anonymous": false,
				"inputs": [
					{
						"indexed": true,
						"internalType": "uint256",
						"name": "epoch",
						"type": "uint256"
					},
					{
						"indexed": true,
						"internalType": "bytes32",
						"name": "poolId",
						"type": "bytes32"
					},
					{
						"indexed": false,
						"internalType": "uint256",
						"name": "operatorReward",
						"type": "uint256"
					},
					{
						"indexed": false,
						"internalType": "uint256",
						"name": "membersReward",
						"type": "uint256"
					}
				],
				"name": "RewardsPaid",
				"type": "event"
			},
			{
				"anonymous": false,
				"inputs": [
					{
						"indexed": true,
						"internalType": "address",
						"name": "staker",
						"type": "address"
					},
					{
						"indexed": false,
						"internalType": "uint256",
						"name": "amount",
						"type": "uint256"
					}
				],
				"name": "Stake",
				"type": "event"
			},
			{
				"anonymous": false,
				"inputs": [
					{
						"indexed": false,
						"internalType": "bytes32",
						"name": "poolId",
						"type": "bytes32"
					},
					{
						"indexed": false,
						"internalType": "address",
						"name": "operator",
						"type": "address"
					},
					{
						"indexed": false,
						"internalType": "uint32",
						"name": "operatorShare",
						"type": "uint32"
					}
				],
				"name": "StakingPoolCreated",
				"type": "event"
			},
			{
				"anonymous": false,
				"inputs": [
					{
						"indexed": true,
						"internalType": "uint256",
						"name": "epoch",
						"type": "uint256"
					},
					{
						"indexed": true,
						"internalType": "bytes32",
						"name": "poolId",
						"type": "bytes32"
					}
				],
				"name": "StakingPoolEarnedRewardsInEpoch",
				"type": "event"
			},
			{
				"anonymous": false,
				"inputs": [
					{
						"indexed": true,
						"internalType": "address",
						"name": "staker",
						"type": "address"
					},
					{
						"indexed": false,
						"internalType": "uint256",
						"name": "amount",
						"type": "uint256"
					}
				],
				"name": "Unstake",
				"type": "event"
			},
			{
				"inputs": [
					{
						"internalType": "address",
						"name": "target",
						"type": "address"
					}
				],
				"name": "addAuthorizedAddress",
				"outputs": [],
				"stateMutability": "nonpayable",
				"type": "function"
			},
			{
				"inputs": [
					{
						"internalType": "address",
						"name": "addr",
						"type": "address"
					}
				],
				"name": "addPopAddress",
				"outputs": [],
				"stateMutability": "nonpayable",
				"type": "function"
			},
			{
				"inputs": [
					{
						"internalType": "uint256",
						"name": "",
						"type": "uint256"
					}
				],
				"name": "aggregatedStatsByEpoch",
				"outputs": [
					{
						"internalType": "uint256",
						"name": "rewardsAvailable",
						"type": "uint256"
					},
					{
						"internalType": "uint256",
						"name": "numPoolsToFinalize",
						"type": "uint256"
					},
					{
						"internalType": "uint256",
						"name": "totalFeesCollected",
						"type": "uint256"
					},
					{
						"internalType": "uint256",
						"name": "totalWeightedStake",
						"type": "uint256"
					},
					{
						"internalType": "uint256",
						"name": "totalRewardsFinalized",
						"type": "uint256"
					}
				],
				"stateMutability": "view",
				"type": "function"
			},
			{
				"inputs": [
					{
						"internalType": "uint256",
						"name": "",
						"type": "uint256"
					}
				],
				"name": "authorities",
				"outputs": [
					{
						"internalType": "address",
						"name": "",
						"type": "address"
					}
				],
				"stateMutability": "view",
				"type": "function"
			},
			{
				"inputs": [
					{
						"internalType": "address",
						"name": "",
						"type": "address"
					}
				],
				"name": "authorized",
				"outputs": [
					{
						"internalType": "bool",
						"name": "",
						"type": "bool"
					}
				],
				"stateMutability": "view",
				"type": "function"
			},
			{
				"inputs": [],
				"name": "cobbDouglasAlphaDenominator",
				"outputs": [
					{
						"internalType": "uint32",
						"name": "",
						"type": "uint32"
					}
				],
				"stateMutability": "view",
				"type": "function"
			},
			{
				"inputs": [],
				"name": "cobbDouglasAlphaNumerator",
				"outputs": [
					{
						"internalType": "uint32",
						"name": "",
						"type": "uint32"
					}
				],
				"stateMutability": "view",
				"type": "function"
			},
			{
				"inputs": [
					{
						"internalType": "bytes32",
						"name": "poolId",
						"type": "bytes32"
					},
					{
						"internalType": "address",
						"name": "member",
						"type": "address"
					}
				],
				"name": "computeRewardBalanceOfDelegator",
				"outputs": [
					{
						"internalType": "uint256",
						"name": "reward",
						"type": "uint256"
					}
				],
				"stateMutability": "view",
				"type": "function"
			},
			{
				"inputs": [
					{
						"internalType": "bytes32",
						"name": "poolId",
						"type": "bytes32"
					}
				],
				"name": "computeRewardBalanceOfOperator",
				"outputs": [
					{
						"internalType": "uint256",
						"name": "reward",
						"type": "uint256"
					}
				],
				"stateMutability": "view",
				"type": "function"
			},
			{
				"inputs": [
					{
						"internalType": "address",
						"name": "rigoblockPoolAddress",
						"type": "address"
					}
				],
				"name": "createStakingPool",
				"outputs": [
					{
						"internalType": "bytes32",
						"name": "poolId",
						"type": "bytes32"
					}
				],
				"stateMutability": "nonpayable",
				"type": "function"
			},
			{
				"inputs": [
					{
						"internalType": "address",
						"name": "poolAccount",
						"type": "address"
					},
					{
						"internalType": "uint256",
						"name": "popReward",
						"type": "uint256"
					}
				],
				"name": "creditPopReward",
				"outputs": [],
				"stateMutability": "payable",
				"type": "function"
			},
			{
				"inputs": [],
				"name": "currentEpoch",
				"outputs": [
					{
						"internalType": "uint256",
						"name": "",
						"type": "uint256"
					}
				],
				"stateMutability": "view",
				"type": "function"
			},
			{
				"inputs": [],
				"name": "currentEpochStartTimeInSeconds",
				"outputs": [
					{
						"internalType": "uint256",
						"name": "",
						"type": "uint256"
					}
				],
				"stateMutability": "view",
				"type": "function"
			},
			{
				"inputs": [
					{
						"internalType": "bytes32",
						"name": "poolId",
						"type": "bytes32"
					},
					{
						"internalType": "uint32",
						"name": "newOperatorShare",
						"type": "uint32"
					}
				],
				"name": "decreaseStakingPoolOperatorShare",
				"outputs": [],
				"stateMutability": "nonpayable",
				"type": "function"
			},
			{
				"inputs": [],
				"name": "endEpoch",
				"outputs": [
					{
						"internalType": "uint256",
						"name": "",
						"type": "uint256"
					}
				],
				"stateMutability": "nonpayable",
				"type": "function"
			},
			{
				"inputs": [],
				"name": "epochDurationInSeconds",
				"outputs": [
					{
						"internalType": "uint256",
						"name": "",
						"type": "uint256"
					}
				],
				"stateMutability": "view",
				"type": "function"
			},
			{
				"inputs": [
					{
						"internalType": "bytes32",
						"name": "poolId",
						"type": "bytes32"
					}
				],
				"name": "finalizePool",
				"outputs": [],
				"stateMutability": "nonpayable",
				"type": "function"
			},
			{
				"inputs": [],
				"name": "getAuthorizedAddresses",
				"outputs": [
					{
						"internalType": "address[]",
						"name": "",
						"type": "address[]"
					}
				],
				"stateMutability": "view",
				"type": "function"
			},
			{
				"inputs": [],
				"name": "getCurrentEpochEarliestEndTimeInSeconds",
				"outputs": [
					{
						"internalType": "uint256",
						"name": "",
						"type": "uint256"
					}
				],
				"stateMutability": "view",
				"type": "function"
			},
			{
				"inputs": [],
				"name": "getDragoRegistry",
				"outputs": [
					{
						"internalType": "contract IDragoRegistry",
						"name": "dragoRegistry",
						"type": "address"
					}
				],
				"stateMutability": "view",
				"type": "function"
			},
			{
				"inputs": [
					{
						"internalType": "enum IStructs.StakeStatus",
						"name": "stakeStatus",
						"type": "uint8"
					}
				],
				"name": "getGlobalStakeByStatus",
				"outputs": [
					{
						"components": [
							{
								"internalType": "uint64",
								"name": "currentEpoch",
								"type": "uint64"
							},
							{
								"internalType": "uint96",
								"name": "currentEpochBalance",
								"type": "uint96"
							},
							{
								"internalType": "uint96",
								"name": "nextEpochBalance",
								"type": "uint96"
							}
						],
						"internalType": "struct IStructs.StoredBalance",
						"name": "balance",
						"type": "tuple"
					}
				],
				"stateMutability": "view",
				"type": "function"
			},
			{
				"inputs": [],
				"name": "getGrgContract",
				"outputs": [
					{
						"internalType": "contract RigoTokenFace",
						"name": "grgContract",
						"type": "address"
					}
				],
				"stateMutability": "view",
				"type": "function"
			},
			{
				"inputs": [],
				"name": "getGrgVault",
				"outputs": [
					{
						"internalType": "contract IGrgVault",
						"name": "grgVault",
						"type": "address"
					}
				],
				"stateMutability": "view",
				"type": "function"
			},
			{
				"inputs": [
					{
						"internalType": "address",
						"name": "staker",
						"type": "address"
					},
					{
						"internalType": "enum IStructs.StakeStatus",
						"name": "stakeStatus",
						"type": "uint8"
					}
				],
				"name": "getOwnerStakeByStatus",
				"outputs": [
					{
						"components": [
							{
								"internalType": "uint64",
								"name": "currentEpoch",
								"type": "uint64"
							},
							{
								"internalType": "uint96",
								"name": "currentEpochBalance",
								"type": "uint96"
							},
							{
								"internalType": "uint96",
								"name": "nextEpochBalance",
								"type": "uint96"
							}
						],
						"internalType": "struct IStructs.StoredBalance",
						"name": "balance",
						"type": "tuple"
					}
				],
				"stateMutability": "view",
				"type": "function"
			},
			{
				"inputs": [],
				"name": "getParams",
				"outputs": [
					{
						"internalType": "uint256",
						"name": "_epochDurationInSeconds",
						"type": "uint256"
					},
					{
						"internalType": "uint32",
						"name": "_rewardDelegatedStakeWeight",
						"type": "uint32"
					},
					{
						"internalType": "uint256",
						"name": "_minimumPoolStake",
						"type": "uint256"
					},
					{
						"internalType": "uint32",
						"name": "_cobbDouglasAlphaNumerator",
						"type": "uint32"
					},
					{
						"internalType": "uint32",
						"name": "_cobbDouglasAlphaDenominator",
						"type": "uint32"
					}
				],
				"stateMutability": "view",
				"type": "function"
			},
			{
				"inputs": [
					{
						"internalType": "address",
						"name": "staker",
						"type": "address"
					},
					{
						"internalType": "bytes32",
						"name": "poolId",
						"type": "bytes32"
					}
				],
				"name": "getStakeDelegatedToPoolByOwner",
				"outputs": [
					{
						"components": [
							{
								"internalType": "uint64",
								"name": "currentEpoch",
								"type": "uint64"
							},
							{
								"internalType": "uint96",
								"name": "currentEpochBalance",
								"type": "uint96"
							},
							{
								"internalType": "uint96",
								"name": "nextEpochBalance",
								"type": "uint96"
							}
						],
						"internalType": "struct IStructs.StoredBalance",
						"name": "balance",
						"type": "tuple"
					}
				],
				"stateMutability": "view",
				"type": "function"
			},
			{
				"inputs": [
					{
						"internalType": "bytes32",
						"name": "poolId",
						"type": "bytes32"
					}
				],
				"name": "getStakingPool",
				"outputs": [
					{
						"components": [
							{
								"internalType": "address",
								"name": "operator",
								"type": "address"
							},
							{
								"internalType": "address",
								"name": "stakingPal",
								"type": "address"
							},
							{
								"internalType": "uint32",
								"name": "operatorShare",
								"type": "uint32"
							},
							{
								"internalType": "uint32",
								"name": "stakingPalShare",
								"type": "uint32"
							}
						],
						"internalType": "struct IStructs.Pool",
						"name": "",
						"type": "tuple"
					}
				],
				"stateMutability": "view",
				"type": "function"
			},
			{
				"inputs": [
					{
						"internalType": "bytes32",
						"name": "poolId",
						"type": "bytes32"
					}
				],
				"name": "getStakingPoolStatsThisEpoch",
				"outputs": [
					{
						"components": [
							{
								"internalType": "uint256",
								"name": "feesCollected",
								"type": "uint256"
							},
							{
								"internalType": "uint256",
								"name": "weightedStake",
								"type": "uint256"
							},
							{
								"internalType": "uint256",
								"name": "membersStake",
								"type": "uint256"
							}
						],
						"internalType": "struct IStructs.PoolStats",
						"name": "",
						"type": "tuple"
					}
				],
				"stateMutability": "view",
				"type": "function"
			},
			{
				"inputs": [
					{
						"internalType": "address",
						"name": "staker",
						"type": "address"
					}
				],
				"name": "getTotalStake",
				"outputs": [
					{
						"internalType": "uint256",
						"name": "",
						"type": "uint256"
					}
				],
				"stateMutability": "view",
				"type": "function"
			},
			{
				"inputs": [
					{
						"internalType": "bytes32",
						"name": "poolId",
						"type": "bytes32"
					}
				],
				"name": "getTotalStakeDelegatedToPool",
				"outputs": [
					{
						"components": [
							{
								"internalType": "uint64",
								"name": "currentEpoch",
								"type": "uint64"
							},
							{
								"internalType": "uint96",
								"name": "currentEpochBalance",
								"type": "uint96"
							},
							{
								"internalType": "uint96",
								"name": "nextEpochBalance",
								"type": "uint96"
							}
						],
						"internalType": "struct IStructs.StoredBalance",
						"name": "balance",
						"type": "tuple"
					}
				],
				"stateMutability": "view",
				"type": "function"
			},
			{
				"inputs": [],
				"name": "grgReservedForPoolRewards",
				"outputs": [
					{
						"internalType": "uint256",
						"name": "",
						"type": "uint256"
					}
				],
				"stateMutability": "view",
				"type": "function"
			},
			{
				"inputs": [],
				"name": "init",
				"outputs": [],
				"stateMutability": "nonpayable",
				"type": "function"
			},
			{
				"inputs": [
					{
						"internalType": "bytes32",
						"name": "poolId",
						"type": "bytes32"
					},
					{
						"internalType": "address",
						"name": "rigoblockPoolAccount",
						"type": "address"
					}
				],
				"name": "joinStakingPoolAsRbPoolAccount",
				"outputs": [],
				"stateMutability": "nonpayable",
				"type": "function"
			},
			{
				"inputs": [],
				"name": "minimumPoolStake",
				"outputs": [
					{
						"internalType": "uint256",
						"name": "",
						"type": "uint256"
					}
				],
				"stateMutability": "view",
				"type": "function"
			},
			{
				"inputs": [
					{
						"components": [
							{
								"internalType": "enum IStructs.StakeStatus",
								"name": "status",
								"type": "uint8"
							},
							{
								"internalType": "bytes32",
								"name": "poolId",
								"type": "bytes32"
							}
						],
						"internalType": "struct IStructs.StakeInfo",
						"name": "from",
						"type": "tuple"
					},
					{
						"components": [
							{
								"internalType": "enum IStructs.StakeStatus",
								"name": "status",
								"type": "uint8"
							},
							{
								"internalType": "bytes32",
								"name": "poolId",
								"type": "bytes32"
							}
						],
						"internalType": "struct IStructs.StakeInfo",
						"name": "to",
						"type": "tuple"
					},
					{
						"internalType": "uint256",
						"name": "amount",
						"type": "uint256"
					}
				],
				"name": "moveStake",
				"outputs": [],
				"stateMutability": "nonpayable",
				"type": "function"
			},
			{
				"inputs": [],
				"name": "owner",
				"outputs": [
					{
						"internalType": "address",
						"name": "",
						"type": "address"
					}
				],
				"stateMutability": "view",
				"type": "function"
			},
			{
				"inputs": [
					{
						"internalType": "address",
						"name": "",
						"type": "address"
					}
				],
				"name": "poolIdByRbPoolAccount",
				"outputs": [
					{
						"internalType": "bytes32",
						"name": "",
						"type": "bytes32"
					}
				],
				"stateMutability": "view",
				"type": "function"
			},
			{
				"inputs": [
					{
						"internalType": "bytes32",
						"name": "",
						"type": "bytes32"
					},
					{
						"internalType": "uint256",
						"name": "",
						"type": "uint256"
					}
				],
				"name": "poolStatsByEpoch",
				"outputs": [
					{
						"internalType": "uint256",
						"name": "feesCollected",
						"type": "uint256"
					},
					{
						"internalType": "uint256",
						"name": "weightedStake",
						"type": "uint256"
					},
					{
						"internalType": "uint256",
						"name": "membersStake",
						"type": "uint256"
					}
				],
				"stateMutability": "view",
				"type": "function"
			},
			{
				"inputs": [
					{
						"internalType": "address",
						"name": "target",
						"type": "address"
					}
				],
				"name": "removeAuthorizedAddress",
				"outputs": [],
				"stateMutability": "nonpayable",
				"type": "function"
			},
			{
				"inputs": [
					{
						"internalType": "address",
						"name": "target",
						"type": "address"
					},
					{
						"internalType": "uint256",
						"name": "index",
						"type": "uint256"
					}
				],
				"name": "removeAuthorizedAddressAtIndex",
				"outputs": [],
				"stateMutability": "nonpayable",
				"type": "function"
			},
			{
				"inputs": [
					{
						"internalType": "address",
						"name": "addr",
						"type": "address"
					}
				],
				"name": "removePopAddress",
				"outputs": [],
				"stateMutability": "nonpayable",
				"type": "function"
			},
			{
				"inputs": [],
				"name": "rewardDelegatedStakeWeight",
				"outputs": [
					{
						"internalType": "uint32",
						"name": "",
						"type": "uint32"
					}
				],
				"stateMutability": "view",
				"type": "function"
			},
			{
				"inputs": [
					{
						"internalType": "bytes32",
						"name": "",
						"type": "bytes32"
					}
				],
				"name": "rewardsByPoolId",
				"outputs": [
					{
						"internalType": "uint256",
						"name": "",
						"type": "uint256"
					}
				],
				"stateMutability": "view",
				"type": "function"
			},
			{
				"inputs": [
					{
						"internalType": "uint256",
						"name": "_epochDurationInSeconds",
						"type": "uint256"
					},
					{
						"internalType": "uint32",
						"name": "_rewardDelegatedStakeWeight",
						"type": "uint32"
					},
					{
						"internalType": "uint256",
						"name": "_minimumPoolStake",
						"type": "uint256"
					},
					{
						"internalType": "uint32",
						"name": "_cobbDouglasAlphaNumerator",
						"type": "uint32"
					},
					{
						"internalType": "uint32",
						"name": "_cobbDouglasAlphaDenominator",
						"type": "uint32"
					}
				],
				"name": "setParams",
				"outputs": [],
				"stateMutability": "nonpayable",
				"type": "function"
			},
			{
				"inputs": [
					{
						"internalType": "bytes32",
						"name": "poolId",
						"type": "bytes32"
					},
					{
						"internalType": "address",
						"name": "newStakingPalAddress",
						"type": "address"
					}
				],
				"name": "setStakingPalAddress",
				"outputs": [],
				"stateMutability": "nonpayable",
				"type": "function"
			},
			{
				"inputs": [
					{
						"internalType": "uint256",
						"name": "amount",
						"type": "uint256"
					}
				],
				"name": "stake",
				"outputs": [],
				"stateMutability": "nonpayable",
				"type": "function"
			},
			{
				"inputs": [],
				"name": "stakingContract",
				"outputs": [
					{
						"internalType": "address",
						"name": "",
						"type": "address"
					}
				],
				"stateMutability": "view",
				"type": "function"
			},
			{
				"inputs": [
					{
						"internalType": "address",
						"name": "newOwner",
						"type": "address"
					}
				],
				"name": "transferOwnership",
				"outputs": [],
				"stateMutability": "nonpayable",
				"type": "function"
			},
			{
				"inputs": [
					{
						"internalType": "uint256",
						"name": "amount",
						"type": "uint256"
					}
				],
				"name": "unstake",
				"outputs": [],
				"stateMutability": "nonpayable",
				"type": "function"
			},
			{
				"inputs": [
					{
						"internalType": "address",
						"name": "",
						"type": "address"
					}
				],
				"name": "validPops",
				"outputs": [
					{
						"internalType": "bool",
						"name": "",
						"type": "bool"
					}
				],
				"stateMutability": "view",
				"type": "function"
			},
			{
				"inputs": [
					{
						"internalType": "bytes32",
						"name": "poolId",
						"type": "bytes32"
					}
				],
				"name": "withdrawDelegatorRewards",
				"outputs": [],
				"stateMutability": "nonpayable",
				"type": "function"
			}
		],
		"devdoc": {
			"kind": "dev",
			"methods": {
				"addAuthorizedAddress(address)": {
					"details": "Authorizes an address.",
					"params": {
						"target": "Address to authorize."
					}
				},
				"addPopAddress(address)": {
					"details": "Adds a new pop address.",
					"params": {
						"addr": "Address of pop contract to add."
					}
				},
				"computeRewardBalanceOfDelegator(bytes32,address)": {
					"details": "Computes the reward balance in ETH of a specific member of a pool.",
					"params": {
						"member": "The member of the pool.",
						"poolId": "Unique id of pool."
					},
					"returns": {
						"reward": "totalReward Balance in ETH."
					}
				},
				"computeRewardBalanceOfOperator(bytes32)": {
					"details": "Computes the reward balance in ETH of the operator of a pool.",
					"params": {
						"poolId": "Unique id of pool."
					},
					"returns": {
						"reward": "totalReward Balance in ETH."
					}
				},
				"createStakingPool(address)": {
					"details": "Create a new staking pool. The sender will be the staking pal of this pool. Note that a staking pal must be payable.",
					"params": {
						"rigoblockPoolAddress": "Adds rigoblock pool to the created staking pool for convenience if non-null."
					},
					"returns": {
						"poolId": "The unique pool id generated for this pool."
					}
				},
				"creditPopReward(address,uint256)": {
					"details": "Credits the value of a pool's pop reward.      Only a known RigoBlock pop can call this method. See      (MixinPopManager).",
					"params": {
						"poolAccount": "The address of the rigoblock pool account.",
						"popReward": "The pop reward."
					}
				},
				"decreaseStakingPoolOperatorShare(bytes32,uint32)": {
					"details": "Decreases the operator share for the given pool (i.e. increases pool rewards for members).",
					"params": {
						"newOperatorShare": "The newly decreased percentage of any rewards owned by the operator.",
						"poolId": "Unique Id of pool."
					}
				},
				"endEpoch()": {
					"details": "Begins a new epoch, preparing the prior one for finalization.      Throws if not enough time has passed between epochs or if the      previous epoch was not fully finalized.",
					"returns": {
						"_0": "numPoolsToFinalize The number of unfinalized pools."
					}
				},
				"finalizePool(bytes32)": {
					"details": "Instantly finalizes a single pool that earned rewards in the previous      epoch, crediting it rewards for members and withdrawing operator's      rewards as WETH. This can be called by internal functions that need      to finalize a pool immediately. Does nothing if the pool is already      finalized or did not earn rewards in the previous epoch.",
					"params": {
						"poolId": "The pool ID to finalize."
					}
				},
				"getAuthorizedAddresses()": {
					"details": "Gets all authorized addresses.",
					"returns": {
						"_0": "Array of authorized addresses."
					}
				},
				"getCurrentEpochEarliestEndTimeInSeconds()": {
					"details": "Returns the earliest end time in seconds of this epoch.      The next epoch can begin once this time is reached.      Epoch period = [startTimeInSeconds..endTimeInSeconds)",
					"returns": {
						"_0": "Time in seconds."
					}
				},
				"getDragoRegistry()": {
					"details": "An overridable way to access the deployed dragoRegistry.      Must be view to allow overrides to access state.",
					"returns": {
						"dragoRegistry": "The dragoRegistry contract."
					}
				},
				"getGlobalStakeByStatus(uint8)": {
					"details": "Gets global stake for a given status.",
					"params": {
						"stakeStatus": "UNDELEGATED or DELEGATED"
					},
					"returns": {
						"balance": "Global stake for given status."
					}
				},
				"getGrgContract()": {
					"details": "An overridable way to access the deployed GRG contract.      Must be view to allow overrides to access state.",
					"returns": {
						"grgContract": "The GRG contract instance."
					}
				},
				"getGrgVault()": {
					"details": "An overridable way to access the deployed grgVault.      Must be view to allow overrides to access state.",
					"returns": {
						"grgVault": "The grgVault contract."
					}
				},
				"getOwnerStakeByStatus(address,uint8)": {
					"details": "Gets an owner's stake balances by status.",
					"params": {
						"stakeStatus": "UNDELEGATED or DELEGATED",
						"staker": "Owner of stake."
					},
					"returns": {
						"balance": "Owner's stake balances for given status."
					}
				},
				"getParams()": {
					"details": "Retrieves all configurable parameter values.",
					"returns": {
						"_cobbDouglasAlphaDenominator": "Denominator for cobb douglas alpha factor.",
						"_cobbDouglasAlphaNumerator": "Numerator for cobb douglas alpha factor.",
						"_epochDurationInSeconds": "Minimum seconds between epochs.",
						"_minimumPoolStake": "Minimum amount of stake required in a pool to collect rewards.",
						"_rewardDelegatedStakeWeight": "How much delegated stake is weighted vs operator stake, in ppm."
					}
				},
				"getStakeDelegatedToPoolByOwner(address,bytes32)": {
					"details": "Returns the stake delegated to a specific staking pool, by a given staker.",
					"params": {
						"poolId": "Unique Id of pool.",
						"staker": "of stake."
					},
					"returns": {
						"balance": "Stake delegated to pool by staker."
					}
				},
				"getStakingPool(bytes32)": {
					"details": "Returns a staking pool",
					"params": {
						"poolId": "Unique id of pool."
					}
				},
				"getStakingPoolStatsThisEpoch(bytes32)": {
					"details": "Get stats on a staking pool in this epoch.",
					"params": {
						"poolId": "Pool Id to query."
					},
					"returns": {
						"_0": "PoolStats struct for pool id."
					}
				},
				"getTotalStake(address)": {
					"details": "Returns the total stake for a given staker.",
					"params": {
						"staker": "of stake."
					},
					"returns": {
						"_0": "Total GRG staked by `staker`."
					}
				},
				"getTotalStakeDelegatedToPool(bytes32)": {
					"details": "Returns the total stake delegated to a specific staking pool,      across all members.",
					"params": {
						"poolId": "Unique Id of pool."
					},
					"returns": {
						"balance": "Total stake delegated to pool."
					}
				},
				"init()": {
					"details": "Initialize storage owned by this contract.      This function should not be called directly.      The StakingProxy contract will call it in `attachStakingContract()`."
				},
				"joinStakingPoolAsRbPoolAccount(bytes32,address)": {
					"details": "Allows caller to join a staking pool as a rigoblock pool account.",
					"params": {
						"poolId": "Unique id of pool.",
						"rigoblockPoolAccount": "Address of subaccount to be added to staking pool."
					}
				},
				"moveStake((uint8,bytes32),(uint8,bytes32),uint256)": {
					"details": "Moves stake between statuses: 'undelegated' or 'delegated'.      Delegated stake can also be moved between pools.      This change comes into effect next epoch.",
					"params": {
						"amount": "Amount of stake to move.",
						"from": "Status to move stake out of.",
						"to": "Status to move stake into."
					}
				},
				"removeAuthorizedAddress(address)": {
					"details": "Removes authorizion of an address.",
					"params": {
						"target": "Address to remove authorization from."
					}
				},
				"removeAuthorizedAddressAtIndex(address,uint256)": {
					"details": "Removes authorizion of an address.",
					"params": {
						"index": "Index of target in authorities array.",
						"target": "Address to remove authorization from."
					}
				},
				"removePopAddress(address)": {
					"details": "Removes an existing proof_of_performance address.",
					"params": {
						"addr": "Address of proof_of_performance contract to remove."
					}
				},
				"setParams(uint256,uint32,uint256,uint32,uint32)": {
					"details": "Set all configurable parameters at once.",
					"params": {
						"_cobbDouglasAlphaDenominator": "Denominator for cobb douglas alpha factor.",
						"_cobbDouglasAlphaNumerator": "Numerator for cobb douglas alpha factor.",
						"_epochDurationInSeconds": "Minimum seconds between epochs.",
						"_minimumPoolStake": "Minimum amount of stake required in a pool to collect rewards.",
						"_rewardDelegatedStakeWeight": "How much delegated stake is weighted vs operator stake, in ppm."
					}
				},
				"setStakingPalAddress(bytes32,address)": {
					"details": "Allows the operator to update the staking pal address.",
					"params": {
						"newStakingPalAddress": "Address of the new staking pal.",
						"poolId": "Unique id of pool."
					}
				},
				"stake(uint256)": {
					"details": "Stake GRG tokens. Tokens are deposited into the GRG Vault.      Unstake to retrieve the GRG. Stake is in the 'Active' status.",
					"params": {
						"amount": "Amount of GRG to stake."
					}
				},
				"transferOwnership(address)": {
					"details": "Change the owner of this contract.",
					"params": {
						"newOwner": "New owner address."
					}
				},
				"unstake(uint256)": {
					"details": "Unstake. Tokens are withdrawn from the GRG Vault and returned to      the staker. Stake must be in the 'undelegated' status in both the      current and next epoch in order to be unstaked.",
					"params": {
						"amount": "Amount of GRG to unstake."
					}
				},
				"withdrawDelegatorRewards(bytes32)": {
					"details": "Withdraws the caller's WETH rewards that have accumulated      until the last epoch.",
					"params": {
						"poolId": "Unique id of pool."
					}
				}
			},
			"version": 1
		},
		"evm": {
			"bytecode": {
				"linkReferences": {},
				"object": "0x608060405234801561001057600080fd5b50600080546001600160a01b031916331790556151eb806100326000396000f3fe6080604052600436106102e45760003560e01c80638da5cb5b11610190578063d39de6e9116100dc578063e907f00311610095578063ef4ba6801161006f578063ef4ba680146108a5578063f252b7a1146108ba578063f2fde38b146108da578063ff691b11146108fa576102e4565b8063e907f0031461085d578063ecc128f21461087d578063ee99205c14610890576102e4565b8063d39de6e9146107c7578063e0822db7146107e9578063e0ee036e146107fe578063e1c7392a14610813578063e804d0a414610828578063e8eeb3f814610848576102e4565b8063b510879f11610149578063bb7ef7e011610123578063bb7ef7e014610752578063be111af414610772578063c18c914114610792578063d14dc231146107b2576102e4565b8063b510879f146106fd578063b652b41f1461071d578063b918161114610732576102e4565b80638da5cb5b1461065e5780639ad26744146106735780639c3ccc8214610693578063a26171e2146106b3578063a694fc3a146106c8578063b2baa33e146106e8576102e4565b806346b979591161024f5780635d91121d1161020857806370712939116101e257806370712939146105e757806376671808146106075780637fa140c71461061c578063816667961461063c576102e4565b80635d91121d1461058c5780635e615a6b146105ac57806363403801146105d2576102e4565b806346b97959146104a3578063494503d4146104d05780634bcc3f67146104fd578063540c2d531461052a578063587da0231461055757806358f6c7e31461056c576102e4565b806336d7dd8e116102a157806336d7dd8e146103c557806338229d93146103e55780633a832382146104165780633e4ad7321461043657806342f1181e1461046357806344a6958b14610483576102e4565b80630b9663db146102e95780631a67a0a0146103145780631e7ff8f6146103365780631f81eb80146103565780632a94c279146103765780632e17de78146103a5575b600080fd5b3480156102f557600080fd5b506102fe61091a565b60405161030b9190614e89565b60405180910390f35b34801561032057600080fd5b5061033461032f366004614c77565b610bb5565b005b34801561034257600080fd5b506102fe610351366004614af2565b610cf1565b34801561036257600080fd5b50610334610371366004614af2565b610d7e565b34801561038257600080fd5b50610396610391366004614ca6565b610e13565b60405161030b93929190615036565b3480156103b157600080fd5b506103346103c0366004614c5f565b610e3f565b3480156103d157600080fd5b506103346103e0366004614af2565b610fb6565b3480156103f157600080fd5b50610405610400366004614c5f565b61103c565b60405161030b959493929190615067565b34801561042257600080fd5b50610334610431366004614c77565b61106b565b34801561044257600080fd5b50610456610451366004614c5f565b6110d5565b60405161030b9190614ffd565b34801561046f57600080fd5b5061033461047e366004614af2565b6110f4565b34801561048f57600080fd5b5061045661049e366004614b55565b611108565b3480156104af57600080fd5b506104c36104be366004614c5f565b61115a565b60405161030b9190614f97565b3480156104dc57600080fd5b506104f06104eb366004614c5f565b6111a5565b60405161030b9190614e04565b34801561050957600080fd5b5061051d610518366004614c5f565b6111cf565b60405161030b9190614fb8565b34801561053657600080fd5b5061054a610545366004614af2565b611238565b60405161030b9190614e7e565b34801561056357600080fd5b506102fe61124d565b34801561057857600080fd5b50610334610587366004614d03565b611253565b34801561059857600080fd5b506103346105a7366004614cc7565b611428565b3480156105b857600080fd5b506105c16114bd565b60405161030b95949392919061508a565b3480156105de57600080fd5b506102fe6114e6565b3480156105f357600080fd5b50610334610602366004614af2565b6114ec565b34801561061357600080fd5b506102fe61157a565b34801561062857600080fd5b506102fe610637366004614af2565b611580565b34801561064857600080fd5b50610651611592565b60405161030b91906150ce565b34801561066a57600080fd5b506104f061159e565b34801561067f57600080fd5b5061033461068e366004614c2d565b6115ad565b34801561069f57600080fd5b506103346106ae366004614dae565b6115bf565b3480156106bf57600080fd5b506102fe61162c565b3480156106d457600080fd5b506103346106e3366004614c5f565b611632565b3480156106f457600080fd5b506102fe611720565b34801561070957600080fd5b50610334610718366004614c5f565b61173e565b34801561072957600080fd5b506104f0611748565b34801561073e57600080fd5b5061054a61074d366004614af2565b611760565b34801561075e57600080fd5b506102fe61076d366004614c5f565b611775565b34801561077e57600080fd5b506102fe61078d366004614af2565b611802565b34801561079e57600080fd5b506102fe6107ad366004614c5f565b6119d1565b3480156107be57600080fd5b506102fe6119e3565b3480156107d357600080fd5b506107dc6119e9565b60405161030b9190614e31565b3480156107f557600080fd5b506104f0611a4b565b34801561080a57600080fd5b50610651611a63565b34801561081f57600080fd5b50610334611a6f565b34801561083457600080fd5b50610456610843366004614ce9565b611a89565b34801561085457600080fd5b50610651611bb7565b34801561086957600080fd5b506102fe610878366004614c77565b611bcb565b61033461088b366004614c2d565b611c6a565b34801561089c57600080fd5b506104f0611db5565b3480156108b157600080fd5b506104f0611dc4565b3480156108c657600080fd5b506104566108d5366004614b2a565b611ddc565b3480156108e657600080fd5b506103346108f5366004614af2565b611e10565b34801561090657600080fd5b50610334610915366004614c5f565b611e81565b600b546000908161092c826001612090565b60008181526015602052604090206001015490915080156109595761095961095483836120af565b6120f4565b6001831115610ab05761096a611dc4565b6001600160a01b031663075461726040518163ffffffff1660e01b815260040160206040518083038186803b1580156109a257600080fd5b505afa1580156109b6573d6000803e3d6000fd5b505050506040513d601f19601f820116820180604052508101906109da9190614b0e565b6001600160a01b031663c551a2f96040518163ffffffff1660e01b8152600401602060405180830381600087803b158015610a1457600080fd5b505af1925050508015610a44575060408051601f3d908101601f19168201909252610a4191810190614d40565b60015b610aa557610a506150fc565b80610a5b5750610a68565b6000945050505050610bb2565b3d808015610a92576040519150601f19603f3d011682016040523d82523d6000602084013e610a97565b606091505b506000945050505050610bb2565b9350610bb292505050565b610ab86120fc565b600084815260156020526040902055610acf614971565b50600083815260156020908152604091829020825160a08101845281548082526001830154938201849052600283015482860181905260038401546060840181905260049094015460808401529451919488947fbb4a26fa0ace13ee4da343896c20eaa44a618fb9071fdd8c2e2c960a4583189d94610b51949193929161504c565b60405180910390a2610b61612187565b6020810151610ba857805160405185917fb463d19ecf455be65365092cf8e1db6934a0334cf8cd532ddf9964d01f36b5b291610b9f91600091614eb7565b60405180910390a25b6020015193505050505b90565b600080610bc0611748565b60405163309dfc6b60e21b81526001600160a01b03919091169063c277f1ac90610bee908790600401614e89565b60006040518083038186803b158015610c0657600080fd5b505afa158015610c1a573d6000803e3d6000fd5b505050506040513d6000823e601f3d908101601f19168201604052610c429190810190614b89565b50509350505091506000811415610c745760405162461bcd60e51b8152600401610c6b90614ec5565b60405180910390fd5b826001600160a01b0316826001600160a01b031614610ca55760405162461bcd60e51b8152600401610c6b90614efc565b6001600160a01b038083166000908152600860205260408082208790555186928616917fe8b9f7ee7a4480d45b60e98f7b2090dd82e2353b8557a6ee2dd2d5ee9196bac291a350505050565b6000610cfb611a4b565b6001600160a01b03166370a08231836040518263ffffffff1660e01b8152600401610d269190614e04565b60206040518083038186803b158015610d3e57600080fd5b505afa158015610d52573d6000803e3d6000fd5b505050506040513d601f19601f82011682018060405250810190610d769190614d40565b90505b919050565b610d866121c4565b6001600160a01b0381166000908152600f602052604090205460ff1615610db557610db56109546000836121e7565b6001600160a01b0381166000908152600f602052604090819020805460ff19166001179055517f5738ee3c8e8fe8b0b9c4c21b16fdca42ec02e271237dfeabbf3b5af1584d732b90610e08908390614e04565b60405180910390a150565b601460209081526000928352604080842090915290825290208054600182015460029092015490919083565b33610e486149a0565b6001600160a01b03821660009081527f05b8ccbb9d4d8fb16ea74ce3c29a41f1b461fbdaff4714a0d9a8eb05499746bc60205260409020610e8890612255565b90506000610eb082602001516001600160601b031683604001516001600160601b03166122d9565b905080841115610ec757610ec761095485836122ef565b6001600160a01b03831660009081527f05b8ccbb9d4d8fb16ea74ce3c29a41f1b461fbdaff4714a0d9a8eb05499746bc60205260409020610f089085612334565b610f10611a4b565b6001600160a01b0316639470b0bd84866040518363ffffffff1660e01b8152600401610f3d929190614e18565b600060405180830381600087803b158015610f5757600080fd5b505af1158015610f6b573d6000803e3d6000fd5b50505050826001600160a01b03167f85082129d87b2fe11527cb1b3b7a520aeb5aa6913f88a3d8757fe40d1db02fdd85604051610fa89190614e89565b60405180910390a250505050565b610fbe6121c4565b6001600160a01b0381166000908152600f602052604090205460ff16610fec57610fec6109546001836121e7565b6001600160a01b0381166000908152600f602052604090819020805460ff19169055517f9bf55462cb5fa187f725d06de0a70bc01c4e40695570bdc25ad116f9be46bda790610e08908390614e04565b601560205260009081526040902080546001820154600283015460038401546004909401549293919290919085565b81611075816123a6565b60008381526009602052604090206001600160a01b03831615806110a8575060018101546001600160a01b038481169116145b156110b357506110d0565b60010180546001600160a01b0319166001600160a01b0384161790555b505050565b6110dd6149a0565b6000828152600760205260409020610d7690612255565b6110fc6123d2565b611105816123ff565b50565b6111106149a0565b6111516005600084600181111561112357fe5b60ff168152602080820192909252604090810160009081206001600160a01b03881682529092529020612255565b90505b92915050565b6111626149c0565b506000908152601460209081526040808320600b548452825291829020825160608101845281548152600182015492810192909252600201549181019190915290565b600281815481106111b557600080fd5b6000918252602090912001546001600160a01b0316905081565b6111d76149e1565b50600090815260096020908152604091829020825160808101845281546001600160a01b0390811682526001909201549182169281019290925263ffffffff600160a01b8204811693830193909352600160c01b9004909116606082015290565b600f6020526000908152604090205460ff1681565b600c5481565b338161125f57506110d0565b600061126e6020860186614ce9565b600181111561127957fe5b14801561129d575060006112906020850185614ce9565b600181111561129b57fe5b145b156112a857506110d0565b60016112b76020860186614ce9565b60018111156112c257fe5b14156112d7576112d7846020013582846124d3565b60016112e66020850185614ce9565b60018111156112f157fe5b1415611306576113068360200135828461255f565b60006005816113186020880188614ce9565b600181111561132357fe5b60ff168152602080820192909252604090810160009081206001600160a01b03861682528352908120925090600590829061136090880188614ce9565b600181111561136b57fe5b60ff168152602080820192909252604090810160009081206001600160a01b0387168252909252902090506113a18282866125eb565b6020808601359087018035906001600160a01b038616907f7d3ad1dcf03b9027064d1d9a474a69e0cecc31324c541d3eb9b5e6fa2f106c8d9088906113e6908c614ce9565b60018111156113f157fe5b6113fe60208c018c614ce9565b600181111561140957fe5b604051611418939291906150b5565b60405180910390a4505050505050565b81611432816123a6565b600083815260096020526040902060010154600160a01b900463ffffffff1661145c8482856126bf565b60008481526009602052604090819020600101805463ffffffff60a01b1916600160a01b63ffffffff8716021790555184907f8ea2a7a959bd25f226b7b0a4393613f7fdcaa8404e8bad96aa52dc1c1459016790610fa890849087906150df565b601054601154601254601354929363ffffffff9283169391928281169264010000000090041690565b60105481565b6114f46123d2565b6001600160a01b03811660009081526001602052604090205460ff166115205761152061095482612707565b60005b60025481101561157657816001600160a01b03166002828154811061154457fe5b6000918252602090912001546001600160a01b0316141561156e57611569828261274f565b611576565b600101611523565b5050565b600b5481565b60086020526000908152604090205481565b60135463ffffffff1681565b6000546001600160a01b031681565b6115b56123d2565b611576828261274f565b6115c76121c4565b6115d485858585856128e3565b306001600160a01b031663c6f3a4276040518163ffffffff1660e01b815260040160006040518083038186803b15801561160d57600080fd5b505afa158015611621573d6000803e3d6000fd5b505050505050505050565b60125481565b3361163b611a4b565b6001600160a01b03166315cc36f282846040518363ffffffff1660e01b8152600401611668929190614e18565b600060405180830381600087803b15801561168257600080fd5b505af1158015611696573d6000803e3d6000fd5b505050506001600160a01b03811660009081527f05b8ccbb9d4d8fb16ea74ce3c29a41f1b461fbdaff4714a0d9a8eb05499746bc602052604090206116db9083612974565b806001600160a01b03167febedb8b3c678666e7f36970bc8f57abf6d8fa2e828c0da91ea5b75bf68ed101a836040516117149190614e89565b60405180910390a25050565b6000611739601054600c546129ca90919063ffffffff16565b905090565b61110581336129e6565b73de6445484a8dcd9bf35fc95eb4e3990cc358822e90565b60016020526000908152604090205460ff1681565b600061177f6149e1565b506000828152600960209081526040808320815160808101835281546001600160a01b0390811682526001909201549182169381019390935263ffffffff600160a01b8204811692840192909252600160c01b900416606082015290806117e585612b54565b915091506117f883604001518383612c11565b5095945050505050565b600080600061180f611748565b6001600160a01b031663b72e717d856040518263ffffffff1660e01b815260040161183a9190614e04565b60006040518083038186803b15801561185257600080fd5b505afa158015611866573d6000803e3d6000fd5b505050506040513d6000823e601f3d908101601f1916820160405261188e9190810190614d58565b509450505050915060008214156118b75760405162461bcd60e51b8152600401610c6b90614f33565b8033620aae60620186a06118ca86612c4c565b8560001b96506118d86149e1565b50604080516080810182526001600160a01b038087168252858116602080840191825263ffffffff8088168587019081528782166060870190815260008f8152600990945292879020865181549087166001600160a01b0319918216178255945160019091018054925194518416600160c01b0263ffffffff60c01b1995909416600160a01b0263ffffffff60a01b1992909716929095169190911716939093171691909117905590517fcec6fc86ea644053f6edff1160dfe3fa5c61e7a5ef9f873f145bb03a0bd319e7906119b3908a9088908790614e92565b60405180910390a16119c5888a610bb5565b50505050505050919050565b600a6020526000908152604090205481565b60165481565b60606002805480602002602001604051908101604052809291908181526020018280548015611a4157602002820191906000526020600020905b81546001600160a01b03168152600190910190602001808311611a23575b5050505050905090565b730a33744ee5d57d6d69944213d8e6ad80d64fdc5890565b60115463ffffffff1681565b611a776121c4565b611a7f612c77565b611a87612c8a565b565b611a916149a0565b60016000526004602052611ac47fabd6e7cb50984ff9c2f3e18a2660c3353dadf4e3291deeb275dae2cd1e44fe05612255565b90506000826001811115611ad457fe5b1415610d79576000611ae4611a4b565b6001600160a01b0316636b6df5aa6040518163ffffffff1660e01b815260040160206040518083038186803b158015611b1c57600080fd5b505afa158015611b30573d6000803e3d6000fd5b505050506040513d601f19601f82011682018060405250810190611b549190614d40565b9050611b7e611b7983602001516001600160601b03168361209090919063ffffffff16565b612cb5565b6001600160601b0390811660208401526040830151611ba391611b7991849116612090565b6001600160601b0316604083015250919050565b601354640100000000900463ffffffff1681565b6000611bd56149e1565b506000838152600960209081526040808320815160808101835281546001600160a01b0390811682526001909201549182169381019390935263ffffffff600160a01b8204811692840192909252600160c01b90041660608201529080611c3b86612b54565b915091506000611c5084604001518484612c11565b915050611c5f87878385612cd4565b979650505050505050565b336000908152600f602052604090205460ff16611c8d57611c8d61095433612de0565b6001600160a01b03821660009081526008602052604090205480611cb15750611576565b6000611cbc826110d5565b602001516001600160601b03169050601254811015611cdc575050611576565b600b54600083815260146020908152604080832084845282528083206015909252909120815480611d7f57600080611d148888612e28565b600287018290556001870181905560038601549193509150611d3690826129ca565b6003850155600180850154611d4a916129ca565b6001850155604051889087907f14b098103235344975b17508c2391721cc9ac3f3fa2b56c7ff46f8480dfd074f90600090a350505b80871115611dab578683556002820154611da5908290611d9f908a6129ca565b90612090565b60028301555b5050505050505050565b6003546001600160a01b031681565b734fbb350052bca5417566f188eb2ebce5b19bc96490565b611de46149a0565b6001600160a01b0383166000908152600660209081526040808320858452909152902061115190612255565b611e186123d2565b6001600160a01b038116611e3657611e31610954612e96565b611105565b600080546001600160a01b0319166001600160a01b0383169081178255604051909133917f8be0079c531659141344cd1fd0a4f28419497f9722a3daafe3b4186f6b6457e09190a350565b600b546000611e91826001612090565b9050611e9b614971565b50600081815260156020908152604091829020825160a08101845281548152600182015492810183905260028201549381019390935260038101546060840152600401546080830152611ef057505050611105565b611ef86149c0565b5060008481526014602090815260408083208584528252918290208251606081018452815480825260018301549382019390935260029091015492810192909252611f465750505050611105565b6000858152601460209081526040808320868452909152812081815560018101829055600201819055611f798284612eb4565b9050600080611f8d88848660400151612f23565b9150915087877ff1116b309178aa62dcb6bf8c3b8bc2321724907c7ebf52192d14c8ce3aa9194c8484604051611fc4929190614eb7565b60405180910390a36000611fd883836129ca565b6080870151909150611fea90826129ca565b60808701819052600088815260156020908152604090912060040191909155860151612017906001612090565b602080880182815260008a8152601590925260409091206001019190915551611621576080860151865188917fb463d19ecf455be65365092cf8e1db6934a0334cf8cd532ddf9964d01f36b5b29161206f9082612090565b60405161207d929190614eb7565b60405180910390a2505050505050505050565b6000828211156120a9576120a9610954600285856131d7565b50900390565b604080516024810184905260448082018490528251808303909101815260649091019091526020810180516001600160e01b03166330a5c00560e11b17905292915050565b805160208201fd5b600061173960165461210c611dc4565b6001600160a01b03166370a08231306040518263ffffffff1660e01b81526004016121379190614e04565b60206040518083038186803b15801561214f57600080fd5b505afa158015612163573d6000803e3d6000fd5b505050506040513d601f19601f82011682018060405250810190611d9f9190614d40565b426000612192611720565b9050818111156121a9576121a96109548284613249565b600b546000906121ba9060016129ca565b600b555050600c55565b3360009081526001602052604090205460ff16611a8757611a876109543361328e565b606063b9588e4360e01b83836040516024018083600181111561220657fe5b81526001600160a01b0390921660208084019190915260408051808503830181529381019052820180516001600160e01b03166001600160e01b03199095169490941790935295945050505050565b61225d6149a0565b506040805160608101825282546001600160401b0381168083526001600160601b03600160401b830481166020850152600160a01b90920490911692820192909252600b5490918111156122d3576122b4816132d6565b6001600160401b0316825260408201516001600160601b031660208301525b50919050565b60008183106122e85781611151565b5090919050565b604080516024810184905260448082018490528251808303909101815260649091019091526020810180516001600160e01b03166384c8b7c960e01b17905292915050565b61233c6149a0565b61234583612255565b905061236a611b798383604001516001600160601b031661209090919063ffffffff16565b6001600160601b039081166040830152602082015161238e91611b79911684612090565b6001600160601b031660208201526110d083826132f5565b6000818152600960205260409020546001600160a01b031633811461157657611576610954338461335f565b6000546001600160a01b03163314611a8757600054611a87906109549033906001600160a01b03166133ac565b6001600160a01b038116612418576124186109546133fd565b6001600160a01b03811660009081526001602052604090205460ff1615612445576124456109548261341b565b6001600160a01b0381166000818152600160208190526040808320805460ff19168317905560028054928301815583527f405787fa12a823e0f2b7631cc41b3ba8828b3321ca811111fa75cd3aa3bb5ace90910180546001600160a01b03191684179055513392917f3147867c59d17e8fa9d522465651d44aae0a9e38f902f3475b97e58072f0ed4c91a350565b6124dc83613463565b6124e683836129e6565b6001600160a01b03821660009081526006602090815260408083208684529091529020612513908261348d565b600083815260076020526040902061252b908261348d565b600160005260046020526110d07fabd6e7cb50984ff9c2f3e18a2660c3353dadf4e3291deeb275dae2cd1e44fe058261348d565b61256883613463565b61257283836129e6565b6001600160a01b0382166000908152600660209081526040808320868452909152902061259f90826134db565b60008381526007602052604090206125b790826134db565b600160005260046020526110d07fabd6e7cb50984ff9c2f3e18a2660c3353dadf4e3291deeb275dae2cd1e44fe05826134db565b6125f58383613511565b156125ff576110d0565b6126076149a0565b61261084612255565b905061261a6149a0565b61262384612255565b905081604001516001600160601b0316831115612654576126546109548484604001516001600160601b03166122ef565b604082015161267090611b79906001600160601b031685612090565b6001600160601b0390811660408085019190915282015161269691611b799116856129ca565b6001600160601b031660408201526126ae85836132f5565b6126b884826132f5565b5050505050565b620f424063ffffffff821611156126e4576126df61095460008584613518565b6110d0565b8163ffffffff168163ffffffff1611156110d0576110d061095460018584613518565b604080516001600160a01b0383166024808301919091528251808303909101815260449091019091526020810180516001600160e01b03166375a8845160e11b179052919050565b6001600160a01b03821660009081526001602052604090205460ff1661277b5761277b61095483612707565b60025481106127965761279661095482600280549050613590565b816001600160a01b0316600282815481106127ad57fe5b6000918252602090912001546001600160a01b0316146127f5576127f5610954600283815481106127da57fe5b6000918252602090912001546001600160a01b0316846135d5565b6001600160a01b0382166000908152600160205260409020805460ff1916905560028054600019810190811061282757fe5b600091825260209091200154600280546001600160a01b03909216918390811061284d57fe5b9060005260206000200160006101000a8154816001600160a01b0302191690836001600160a01b03160217905550600280548061288657fe5b600082815260208120820160001990810180546001600160a01b031916905590910190915560405133916001600160a01b038516917f1f32c1b084e2de0713b8fb16bd46bb9df710a3dbeae2f3ca93af46e016dcc6b09190a35050565b60108590556011805463ffffffff80871663ffffffff19928316179092556012859055601380548484166401000000000267ffffffff00000000199487169190931617929092161790556040517f613157dbb0e920deab8ad6ddd3805e87cbf57344b9fe780f1764790ec789754290612965908790879087908790879061508a565b60405180910390a15050505050565b61297c6149a0565b61298583612255565b90506129aa611b798383604001516001600160601b03166129ca90919063ffffffff16565b6001600160601b039081166040830152602082015161238e91611b799116845b60008282018381101561115157611151610954600086866131d7565b6129ef82613626565b60006129fe8383600080612cd4565b6001600160a01b03831660009081526006602090815260408083208784529091529020909150612a2d90612255565b6001600160a01b0383811660009081526006602090815260408083208884528252918290208451815492860151959093015167ffffffffffffffff199092166001600160401b03909316929092176bffffffffffffffffffffffff60401b1916600160401b6001600160601b039586160217909216600160a01b93909216929092021790558015612b4b57612ac28382613694565b612aca611dc4565b6001600160a01b031663a9059cbb83836040518363ffffffff1660e01b8152600401612af7929190614e18565b602060405180830381600087803b158015612b1157600080fd5b505af1158015612b25573d6000803e3d6000fd5b505050506040513d601f19601f82011682018060405250810190612b499190614c3f565b505b6110d0836136d0565b6000806000612b6f6001600b5461209090919063ffffffff16565b9050612b796149c0565b50600084815260146020908152604080832084845282528083208151606080820184528254825260018084015483870152600293840154838601528787526015865295849020845160a0810186528154815296810154958701959095529184015492850192909252600383015490840152600490910154608083015290612c01908290612eb4565b9350806040015192505050915091565b60008082612c2157839150612c44565b612c3563ffffffff8616620f4240866136dd565b9150612c418483612090565b90505b935093915050565b6000818152600960205260409020546001600160a01b03161561110557611105610954826000613701565b612c7f613747565b42600c556001600b55565b612c9261375c565b62127500620dbba068056bc75e2d63100000600260036126b885858585856128e3565b806001600160601b0381168114610d7957610d796109546002846137c1565b600b54600090612ce26149a0565b506001600160a01b0385166000908152600660209081526040808320898452825291829020825160608101845290546001600160401b0381168083526001600160601b03600160401b8304811694840194909452600160a01b90910490921692810192909252821415612d5a57600092505050612dd8565b612d6681838787613826565b8151909350600090612d82906001600160401b031660016129ca565b9050612db4612dad8984602001516001600160601b031685600001516001600160401b03168561389d565b85906129ca565b9350612dd2612dad8984604001516001600160601b0316848761389d565b93505050505b949350505050565b604080516001600160a01b0383166024808301919091528251808303909101815260449091019091526020810180516001600160e01b03166330f65c0160e11b179052919050565b60008281526009602052604081205481908190612e4e906001600160a01b031686611ddc565b602001516001600160601b03169050612e678482612090565b601154909350612e8c90612e859063ffffffff16620f42408661391c565b82906129ca565b9150509250929050565b604080518082019091526004815263734f6e1f60e11b602082015290565b8151600090612ec257611154565b81518351604084015160208601516060860151601354612ef895949392919063ffffffff8082169164010000000090041661392c565b60808301518351919250600091612f0e91612090565b905081811015612f1c578091505b5092915050565b600080612f2e6149e1565b50600085815260096020908152604091829020825160808101845281546001600160a01b0390811682526001909201549182169281019290925263ffffffff600160a01b82048116938301849052600160c01b90910416606082015290612f96908686612c11565b909350915082156131b35780602001516001600160a01b031681600001516001600160a01b0316141561305357612fcb611dc4565b815160405163a9059cbb60e01b81526001600160a01b03929092169163a9059cbb91612ffb918790600401614e18565b602060405180830381600087803b15801561301557600080fd5b505af1158015613029573d6000803e3d6000fd5b505050506040513d601f19601f8201168201806040525081019061304d9190614c3f565b506131b3565b6000613085620f424063ffffffff1661307f846060015163ffffffff16876139ee90919063ffffffff16565b90613a1f565b905061308f611dc4565b6001600160a01b031663a9059cbb8360200151836040518363ffffffff1660e01b81526004016130c0929190614e18565b602060405180830381600087803b1580156130da57600080fd5b505af11580156130ee573d6000803e3d6000fd5b505050506040513d601f19601f820116820180604052508101906131129190614c3f565b5061311b611dc4565b6001600160a01b031663a9059cbb8360000151613141848861209090919063ffffffff16565b6040518363ffffffff1660e01b815260040161315e929190614e18565b602060405180830381600087803b15801561317857600080fd5b505af115801561318c573d6000803e3d6000fd5b505050506040513d601f19601f820116820180604052508101906131b09190614c3f565b50505b81156131ce576131c38683613a49565b6131ce868386613a7e565b50935093915050565b606063e946c1bb60e01b848484604051602401808460038111156131f757fe5b81526020018381526020018281526020019350505050604051602081830303815290604052906001600160e01b0319166020820180516001600160e01b03838183161783525050505090509392505050565b604080516024810184905260448082018490528251808303909101815260649091019091526020810180516001600160e01b031663a6bcde4760e01b17905292915050565b604080516001600160a01b0383166024808301919091528251808303909101815260449091019091526020810180516001600160e01b031663b65a25b960e01b179052919050565b806001600160401b0381168114610d7957610d796109546001846137c1565b8051825460408301516020909301516001600160601b03908116600160401b026bffffffffffffffffffffffff60401b1991909416600160a01b026001600160a01b036001600160401b0390941667ffffffffffffffff1990931692909217929092161716179055565b604080516001600160a01b038416602482015260448082018490528251808303909101815260649091019091526020810180516001600160e01b03166382ded78560e01b17905292915050565b604080516001600160a01b03808516602483015283166044808301919091528251808303909101815260649091019091526020810180516001600160e01b0316631de45ad160e01b17905292915050565b60408051808201909152600481526315d953f960e21b602082015290565b604080516001600160a01b0383166024808301919091528251808303909101815260449091019091526020810180516001600160e01b03166306f0b78d60e51b179052919050565b6000818152600960205260409020546001600160a01b031661110557611105610954826000613701565b6134956149a0565b61349e83612255565b90506134c3611b798383604001516001600160601b031661209090919063ffffffff16565b6001600160601b031660408201526110d083826132f5565b6134e36149a0565b6134ec83612255565b90506134c3611b798383604001516001600160601b03166129ca90919063ffffffff16565b1460011690565b60606322df959760e01b8484846040516024018084600181111561353857fe5b81526020018381526020018263ffffffff1681526020019350505050604051602081830303815290604052906001600160e01b0319166020820180516001600160e01b03838183161783525050505090509392505050565b604080516024810184905260448082018490528251808303909101815260649091019091526020810180516001600160e01b031663e9f8377160e01b17905292915050565b604080516001600160a01b03808516602483015283166044808301919091528251808303909101815260649091019091526020810180516001600160e01b031663140a84db60e01b17905292915050565b600b54600090613637906001612090565b90506136416149c0565b5060008281526014602090815260408083208484528252918290208251606081018452815480825260018301549382019390935260029091015492810192909252156110d0576110d06109548484613b67565b6000828152600a60205260409020546136ad9082612090565b6000838152600a60205260409020556016546136c99082612090565b6016555050565b6111058160006001613a7e565b6000612dd88361307f6136f1826001612090565b6136fb88876139ee565b906129ca565b60408051602481019390935290151560448084019190915281518084039091018152606490920190526020810180516001600160e01b0316639ae94f0160e01b17905290565b600c5415611a8757611a876109546000613bac565b60105415801590613774575060115463ffffffff1615155b8015613781575060125415155b8015613794575060135463ffffffff1615155b80156137af5750601354640100000000900463ffffffff1615155b15611a8757611a876109546001613bac565b606063c996af7b60e01b8383604051602401808360028111156137e057fe5b81526020808201939093526040805180830385018152918101905291820180516001600160e01b03166001600160e01b0319909516949094179093529250505092915050565b6000821580613833575081155b1561384057506000612dd8565b600061384d856001612090565b86516001600160401b0316101561386857856040015161386e565b85602001515b6001600160601b0316905080613888576000915050612dd8565b61389384848361391c565b9695505050505050565b60008315806138ab57508183145b156138b857506000612dd8565b8183106138d75760405162461bcd60e51b8152600401610c6b90614f6a565b6138df614a08565b6138e98685613c0f565b90506138f3614a08565b6138fd8785613c0f565b9050611c5f81600001518260200151846000015185602001518a613d26565b6000612dd88361307f86856139ee565b6000806139398888613d94565b905060006139478787613d94565b9050811580613954575080155b1561396457600092505050611c5f565b60008183131561397d576139788284613dda565b613987565b6139878383613dda565b90506139b06139ab61399883613ded565b8863ffffffff168863ffffffff16614242565b614251565b9050818313156139c9576139c48282613dda565b6139d3565b6139d382826146b7565b90506139df818c6146d7565b9b9a5050505050505050505050565b6000826139fd57506000611154565b82820282848281613a0a57fe5b041461115157611151610954600186866131d7565b600081613a3557613a35610954600385856131d7565b6000828481613a4057fe5b04949350505050565b6000828152600a6020526040902054613a6290826129ca565b6000838152600a60205260409020556016546136c990826129ca565b6000838152600e6020526040902054600b5480821415613a9f5750506110d0565b613aa7614a08565b506000858152600d602090815260408083208584528252918290208251808401909352805483526001015490820152613ade614a08565b613ae782614719565b15613b2057613b00826000015183602001518888614722565b60208301819052818352613b149190614772565b60208301528152613b2b565b602081018590528581525b6000878152600d6020908152604080832086845282528083208451815593820151600190940193909355978152600e9097529095205550505050565b604080516024810184905260448082018490528251808303909101815260649091019091526020810180516001600160e01b0316635caa0b0560e01b17905292915050565b6060630b02d77360e01b826001811115613bc257fe5b604051602401808260ff168152602001915050604051602081830303815290604052906001600160e01b0319166020820180516001600160e01b0383818316178352505050509050919050565b613c17614a08565b506000828152600d602090815260408083208484528252918290208251808401909352805483526001015490820152613c4f81614719565b15613c5957611154565b6000613c66836001612090565b6000858152600d60209081526040808320848452825291829020825180840190935280548352600101549082015292509050613ca182614719565b15613cac5750611154565b6000848152600e602052604090205483811015613d08576000858152600d6020908152604080832084845282529182902082518084019093528054835260010154908201529250613cfc83614719565b15613d08575050611154565b50506040805180820190915260008152600160208201529392505050565b600081613d3557506000613d8b565b83613d4f57613d488561307f84896139ee565b9050613d8b565b6000613d68613d5e86886139ee565b611d9f89876139ee565b90506000613d768286613a1f565b9050613d868761307f86846139ee565b925050505b95945050505050565b600080831215613dac57613dac61095460018561478f565b6000821215613dc357613dc361095460018461478f565b611151613dd4846001607f1b6147f6565b83614849565b6000611151613dd4846001607f1b6147f6565b60006001607f1b821315613e0957613e09610954600184614890565b60008213613e1f57613e1f610954600084614890565b6001607f1b821415613e3357506000610d79565b640733048c5a8213613e4f575060016101ff607c1b0319610d79565b60008060006a01c8464f761647600000008513613e9457700fffffffffffffffffffffffffffffffff19909301926a01c8464f761647600000006001607f1b86020594505b6cf1aaddd7742e900000000000008513613ed8577007ffffffffffffffffffffffffffffffff19909301926cf1aaddd7742e900000000000006001607f1b86020594505b6615fc21041027af603f1b8513613f16577003ffffffffffffffffffffffffffffffff19909301926615fc21041027af603f1b6001607f1b86020594505b660960aadc109e7b60461b8513613f54577001ffffffffffffffffffffffffffffffff1990930192660960aadc109e7b60461b6001607f1b86020594505b660454aaa8efe073604a1b8513613f91576fffffffffffffffffffffffffffffffff1990930192660454aaa8efe073604a1b6001607f1b86020594505b6602f16ac6c59de7604c1b8513613fc55760016001607f1b0319909301926602f16ac6c59de7604c1b6001607f1b86020594505b6609b4597e37cb05604b1b8513614002576f3fffffffffffffffffffffffffffffff19909301926609b4597e37cb05604b1b6001607f1b86020594505b6618ebef9eac820b604a1b851361403f576f1fffffffffffffffffffffffffffffff19909301926618ebef9eac820b604a1b6001607f1b86020594505b6f70f5a893b608861e1f58934f97aea57d8513614088576f0fffffffffffffffffffffffffffffff19909301926f70f5a893b608861e1f58934f97aea57d6001607f1b86020594505b60016001607f1b0319850192508291506001607f1b828002059050600160801b838103830205840193506001607f1b818302816140c157fe5b059150600160811b836faaaaaaaaaaaaaaaaaaaaaaaaaaaaaaaa038302816140e557fe5b05840193506001607f1b818302816140f957fe5b059150600360801b836f999999999999999999999999999999990383028161411d57fe5b05840193506001607f1b8183028161413157fe5b059150600160821b836f924924924924924924924924924924920383028161415557fe5b05840193506001607f1b8183028161416957fe5b059150600560801b836f8e38e38e38e38e38e38e38e38e38e38e0383028161418d57fe5b05840193506001607f1b818302816141a157fe5b059150600360811b836f8ba2e8ba2e8ba2e8ba2e8ba2e8ba2e8b038302816141c557fe5b05840193506001607f1b818302816141d957fe5b059150600760801b836f89d89d89d89d89d89d89d89d89d89d89038302816141fd57fe5b05840193506001607f1b8183028161421157fe5b059150600160831b836f888888888888888888888888888888880383028161423557fe5b0584019350505050919050565b6000612dd8613dd485856147f6565b600060016101ff607c1b031982121561426c57506000610d79565b8161427c57506001607f1b610d79565b600082131561429357614293610954600184614890565b6001607f1b6001607c1b83078080028290056710e1b3be415a0000810293909301929091818302059050806705a0913f6b1e000002830192506001607f1b828202816142db57fe5b05905080670168244fdac7800002830192506001607f1b828202816142fc57fe5b05905080664807432bc1800002830192506001607f1b8282028161431c57fe5b05905080660c0135dca0400002830192506001607f1b8282028161433c57fe5b059050806601b707b1cdc00002830192506001607f1b8282028161435c57fe5b059050806536e0f639b80002830192506001607f1b8282028161437b57fe5b05905080650618fee9f80002830192506001607f1b8282028161439a57fe5b05905080649c197dcc0002830192506001607f1b828202816143b857fe5b05905080640e30dce40002830192506001607f1b828202816143d657fe5b0590508064012ebd130002830192506001607f1b828202816143f457fe5b059050806317499f0002830192506001607f1b8282028161441157fe5b059050806301a9d48002830192506001607f1b8282028161442e57fe5b05905080621c638002830192506001607f1b8282028161444a57fe5b059050806201c63802830192506001607f1b8282028161446657fe5b05905080611ab802830192506001607f1b8282028161448157fe5b0590508061017c02830192506001607f1b8282028161449c57fe5b05905080601402830192506001607f1b828202816144b657fe5b600095909503946721c3677c82b400009190059384010582016001607f1b01929050600160841b84161561450c577243cbaf42a000812488fc5c220ad7b97bf6e99e6cf1aaddd7742e56d32fb9f9974484020592505b600160831b841615614541577105d27a9f51c31b7c2f8038212a05747799916e0afe10820813d65dfe6a33c07f738f84020592505b600160821b84161561457657701b4c902e273a58678d6d3bfdb93db96d026f02582ab704279e8efd15e0265855c47a84020592505b600160811b8416156145ab577003b1cc971a9bb5b9867477440d6d1577506f1152aaa3bf81cb9fdb76eae12d02957184020592505b600160801b8416156145e05770015bf0a8b1457695355fb8ac404e7a79e36f2f16ac6c59de6f8d5d6f63c1482a7c8684020592505b6001607f1b841615614614576fd3094c70f034de4b96ff7d5b6f99fcd86f4da2cbf1be5827f9eb3ad1aa9866ebb384020592505b6001607e1b841615614648576fa45af1e1f40c333b3de1db4dd55f29a76f63afbe7ab2082ba1a0ae5e4eb1b479dc84020592505b6001607d1b84161561467c576f910b022db7ae67ce76b441c27035c6a16f70f5a893b608861e1f58934f97aea57d84020592505b6001607c1b8416156146b0576f88415abbe9a76bead8d00cf112e4d4a86f783eafef1c0a8f3978c7f81824d62ebf84020592505b5050919050565b60006001607f1b6146c884846147f6565b816146cf57fe5b059392505050565b6000808212156146ef576146ef61095460018461478f565b60006146fb84846147f6565b90506000811361470f576000915050611154565b607f1c9392505050565b60200151151590565b60008085614734575082905081614769565b83614743575084905083614769565b61475a61475085876139ee565b6136fb88866139ee565b915061476685846139ee565b90505b94509492505050565b60008061478484846001607f1b6148a6565b915091509250929050565b606063bd79545f60e01b8360018111156147a557fe5b6040805160ff9092166024830152604480830186905281518084039091018152606490920190526020810180516001600160e01b03166001600160e01b031990931692909217909152905092915050565b6000821580614803575081155b1561481057506000611154565b508181028183828161481e57fe5b0514158061483557508282828161483157fe5b0514155b156111545761115461095460018585614902565b60008161485f5761485f61095460028585614902565b600160ff1b83148015614873575081600019145b156148875761488761095460038585614902565b8183816146cf57fe5b606063ed2f26a160e01b8360018111156147a557fe5b600080828511806148b657508284115b156148f9576000848610156148cb57846148cd565b855b90506148d98185613a1f565b90506148e58682613a1f565b92506148f18582613a1f565b915050612c44565b50929391925050565b6060638c12dfe760e01b84600381111561491857fe5b6040805160ff909216602483015260448201869052606480830186905281518084039091018152608490920190526020810180516001600160e01b03166001600160e01b03199093169290921790915290509392505050565b6040518060a0016040528060008152602001600081526020016000815260200160008152602001600081525090565b604080516060810182526000808252602082018190529181019190915290565b60405180606001604052806000815260200160008152602001600081525090565b60408051608081018252600080825260208201819052918101829052606081019190915290565b604051806040016040528060008152602001600081525090565b803560028110610d7957600080fd5b600082601f830112614a41578081fd5b81516001600160401b0380821115614a5557fe5b6040516020601f8401601f1916820181018381118382101715614a7457fe5b80604052508194508382528681858801011115614a9057600080fd5b600092505b83831015614ab25785830181015182840182015291820191614a95565b83831115614ac35760008185840101525b5050505092915050565b6000604082840312156122d3578081fd5b803563ffffffff81168114610d7957600080fd5b600060208284031215614b03578081fd5b8135611151816151a0565b600060208284031215614b1f578081fd5b8151611151816151a0565b60008060408385031215614b3c578081fd5b8235614b47816151a0565b946020939093013593505050565b60008060408385031215614b67578182fd5b8235614b72816151a0565b9150614b8060208401614a22565b90509250929050565b60008060008060008060c08789031215614ba1578182fd5b8651614bac816151a0565b60208801519096506001600160401b0380821115614bc8578384fd5b614bd48a838b01614a31565b96506040890151915080821115614be9578384fd5b50614bf689828a01614a31565b945050606087015192506080870151614c0e816151a0565b60a0880151909250614c1f816151a0565b809150509295509295509295565b60008060408385031215614b3c578182fd5b600060208284031215614c50578081fd5b81518015158114611151578182fd5b600060208284031215614c70578081fd5b5035919050565b60008060408385031215614c89578182fd5b823591506020830135614c9b816151a0565b809150509250929050565b60008060408385031215614cb8578182fd5b50508035926020909101359150565b60008060408385031215614cd9578182fd5b82359150614b8060208401614ade565b600060208284031215614cfa578081fd5b61115182614a22565b600080600060a08486031215614d17578283fd5b614d218585614acd565b9250614d308560408601614acd565b9150608084013590509250925092565b600060208284031215614d51578081fd5b5051919050565b60008060008060008060c08789031215614d70578384fd5b8651955060208701516001600160401b0380821115614d8d578586fd5b614d998a838b01614a31565b96506040890151915080821115614be9578586fd5b600080600080600060a08688031215614dc5578283fd5b85359450614dd560208701614ade565b935060408601359250614dea60608701614ade565b9150614df860808701614ade565b90509295509295909350565b6001600160a01b0391909116815260200190565b6001600160a01b03929092168252602082015260400190565b6020808252825182820181905260009190848201906040850190845b81811015614e725783516001600160a01b031683529284019291840191600101614e4d565b50909695505050505050565b901515815260200190565b90815260200190565b9283526001600160a01b0391909116602083015263ffffffff16604082015260600190565b918252602082015260400190565b6020808252601c908201527f4e4f4e5f524547495354455245445f504f4f4c5f49445f4552524f5200000000604082015260600190565b6020808252601b908201527f504f4f4c5f544f5f4a4f494e5f4e4f545f53454c465f4552524f520000000000604082015260600190565b6020808252601c908201527f4e4f4e5f524547495354455245445f52425f504f4f4c5f4552524f5200000000604082015260600190565b60208082526013908201527210d497d25395115495905317d2539590531251606a1b604082015260600190565b81518152602080830151908201526040918201519181019190915260600190565b81516001600160a01b0390811682526020808401519091169082015260408083015163ffffffff90811691830191909152606092830151169181019190915260800190565b81516001600160401b031681526020808301516001600160601b0390811691830191909152604092830151169181019190915260600190565b9283526020830191909152604082015260600190565b93845260208401929092526040830152606082015260800190565b948552602085019390935260408401919091526060830152608082015260a00190565b94855263ffffffff938416602086015260408501929092528216606084015216608082015260a00190565b92835260ff918216602084015216604082015260600190565b63ffffffff91909116815260200190565b63ffffffff92831681529116602082015260400190565b60e01c90565b600060443d101561510c57610bb2565b600481823e6308c379a061512082516150f6565b1461512a57610bb2565b6040513d600319016004823e80513d6001600160401b0381602484011181841117156151595750505050610bb2565b828401925082519150808211156151735750505050610bb2565b503d8301602082840101111561518b57505050610bb2565b601f01601f1916810160200160405291505090565b6001600160a01b038116811461110557600080fdfea2646970667358221220feb71ae5145029331da05a9b5aa923444324f0356d1b4c1dea4da0034b32556664736f6c63430007040033",
				"opcodes": "PUSH1 0x80 PUSH1 0x40 MSTORE CALLVALUE DUP1 ISZERO PUSH2 0x10 JUMPI PUSH1 0x0 DUP1 REVERT JUMPDEST POP PUSH1 0x0 DUP1 SLOAD PUSH1 0x1 PUSH1 0x1 PUSH1 0xA0 SHL SUB NOT AND CALLER OR SWAP1 SSTORE PUSH2 0x51EB DUP1 PUSH2 0x32 PUSH1 0x0 CODECOPY PUSH1 0x0 RETURN INVALID PUSH1 0x80 PUSH1 0x40 MSTORE PUSH1 0x4 CALLDATASIZE LT PUSH2 0x2E4 JUMPI PUSH1 0x0 CALLDATALOAD PUSH1 0xE0 SHR DUP1 PUSH4 0x8DA5CB5B GT PUSH2 0x190 JUMPI DUP1 PUSH4 0xD39DE6E9 GT PUSH2 0xDC JUMPI DUP1 PUSH4 0xE907F003 GT PUSH2 0x95 JUMPI DUP1 PUSH4 0xEF4BA680 GT PUSH2 0x6F JUMPI DUP1 PUSH4 0xEF4BA680 EQ PUSH2 0x8A5 JUMPI DUP1 PUSH4 0xF252B7A1 EQ PUSH2 0x8BA JUMPI DUP1 PUSH4 0xF2FDE38B EQ PUSH2 0x8DA JUMPI DUP1 PUSH4 0xFF691B11 EQ PUSH2 0x8FA JUMPI PUSH2 0x2E4 JUMP JUMPDEST DUP1 PUSH4 0xE907F003 EQ PUSH2 0x85D JUMPI DUP1 PUSH4 0xECC128F2 EQ PUSH2 0x87D JUMPI DUP1 PUSH4 0xEE99205C EQ PUSH2 0x890 JUMPI PUSH2 0x2E4 JUMP JUMPDEST DUP1 PUSH4 0xD39DE6E9 EQ PUSH2 0x7C7 JUMPI DUP1 PUSH4 0xE0822DB7 EQ PUSH2 0x7E9 JUMPI DUP1 PUSH4 0xE0EE036E EQ PUSH2 0x7FE JUMPI DUP1 PUSH4 0xE1C7392A EQ PUSH2 0x813 JUMPI DUP1 PUSH4 0xE804D0A4 EQ PUSH2 0x828 JUMPI DUP1 PUSH4 0xE8EEB3F8 EQ PUSH2 0x848 JUMPI PUSH2 0x2E4 JUMP JUMPDEST DUP1 PUSH4 0xB510879F GT PUSH2 0x149 JUMPI DUP1 PUSH4 0xBB7EF7E0 GT PUSH2 0x123 JUMPI DUP1 PUSH4 0xBB7EF7E0 EQ PUSH2 0x752 JUMPI DUP1 PUSH4 0xBE111AF4 EQ PUSH2 0x772 JUMPI DUP1 PUSH4 0xC18C9141 EQ PUSH2 0x792 JUMPI DUP1 PUSH4 0xD14DC231 EQ PUSH2 0x7B2 JUMPI PUSH2 0x2E4 JUMP JUMPDEST DUP1 PUSH4 0xB510879F EQ PUSH2 0x6FD JUMPI DUP1 PUSH4 0xB652B41F EQ PUSH2 0x71D JUMPI DUP1 PUSH4 0xB9181611 EQ PUSH2 0x732 JUMPI PUSH2 0x2E4 JUMP JUMPDEST DUP1 PUSH4 0x8DA5CB5B EQ PUSH2 0x65E JUMPI DUP1 PUSH4 0x9AD26744 EQ PUSH2 0x673 JUMPI DUP1 PUSH4 0x9C3CCC82 EQ PUSH2 0x693 JUMPI DUP1 PUSH4 0xA26171E2 EQ PUSH2 0x6B3 JUMPI DUP1 PUSH4 0xA694FC3A EQ PUSH2 0x6C8 JUMPI DUP1 PUSH4 0xB2BAA33E EQ PUSH2 0x6E8 JUMPI PUSH2 0x2E4 JUMP JUMPDEST DUP1 PUSH4 0x46B97959 GT PUSH2 0x24F JUMPI DUP1 PUSH4 0x5D91121D GT PUSH2 0x208 JUMPI DUP1 PUSH4 0x70712939 GT PUSH2 0x1E2 JUMPI DUP1 PUSH4 0x70712939 EQ PUSH2 0x5E7 JUMPI DUP1 PUSH4 0x76671808 EQ PUSH2 0x607 JUMPI DUP1 PUSH4 0x7FA140C7 EQ PUSH2 0x61C JUMPI DUP1 PUSH4 0x81666796 EQ PUSH2 0x63C JUMPI PUSH2 0x2E4 JUMP JUMPDEST DUP1 PUSH4 0x5D91121D EQ PUSH2 0x58C JUMPI DUP1 PUSH4 0x5E615A6B EQ PUSH2 0x5AC JUMPI DUP1 PUSH4 0x63403801 EQ PUSH2 0x5D2 JUMPI PUSH2 0x2E4 JUMP JUMPDEST DUP1 PUSH4 0x46B97959 EQ PUSH2 0x4A3 JUMPI DUP1 PUSH4 0x494503D4 EQ PUSH2 0x4D0 JUMPI DUP1 PUSH4 0x4BCC3F67 EQ PUSH2 0x4FD JUMPI DUP1 PUSH4 0x540C2D53 EQ PUSH2 0x52A JUMPI DUP1 PUSH4 0x587DA023 EQ PUSH2 0x557 JUMPI DUP1 PUSH4 0x58F6C7E3 EQ PUSH2 0x56C JUMPI PUSH2 0x2E4 JUMP JUMPDEST DUP1 PUSH4 0x36D7DD8E GT PUSH2 0x2A1 JUMPI DUP1 PUSH4 0x36D7DD8E EQ PUSH2 0x3C5 JUMPI DUP1 PUSH4 0x38229D93 EQ PUSH2 0x3E5 JUMPI DUP1 PUSH4 0x3A832382 EQ PUSH2 0x416 JUMPI DUP1 PUSH4 0x3E4AD732 EQ PUSH2 0x436 JUMPI DUP1 PUSH4 0x42F1181E EQ PUSH2 0x463 JUMPI DUP1 PUSH4 0x44A6958B EQ PUSH2 0x483 JUMPI PUSH2 0x2E4 JUMP JUMPDEST DUP1 PUSH4 0xB9663DB EQ PUSH2 0x2E9 JUMPI DUP1 PUSH4 0x1A67A0A0 EQ PUSH2 0x314 JUMPI DUP1 PUSH4 0x1E7FF8F6 EQ PUSH2 0x336 JUMPI DUP1 PUSH4 0x1F81EB80 EQ PUSH2 0x356 JUMPI DUP1 PUSH4 0x2A94C279 EQ PUSH2 0x376 JUMPI DUP1 PUSH4 0x2E17DE78 EQ PUSH2 0x3A5 JUMPI JUMPDEST PUSH1 0x0 DUP1 REVERT JUMPDEST CALLVALUE DUP1 ISZERO PUSH2 0x2F5 JUMPI PUSH1 0x0 DUP1 REVERT JUMPDEST POP PUSH2 0x2FE PUSH2 0x91A JUMP JUMPDEST PUSH1 0x40 MLOAD PUSH2 0x30B SWAP2 SWAP1 PUSH2 0x4E89 JUMP JUMPDEST PUSH1 0x40 MLOAD DUP1 SWAP2 SUB SWAP1 RETURN JUMPDEST CALLVALUE DUP1 ISZERO PUSH2 0x320 JUMPI PUSH1 0x0 DUP1 REVERT JUMPDEST POP PUSH2 0x334 PUSH2 0x32F CALLDATASIZE PUSH1 0x4 PUSH2 0x4C77 JUMP JUMPDEST PUSH2 0xBB5 JUMP JUMPDEST STOP JUMPDEST CALLVALUE DUP1 ISZERO PUSH2 0x342 JUMPI PUSH1 0x0 DUP1 REVERT JUMPDEST POP PUSH2 0x2FE PUSH2 0x351 CALLDATASIZE PUSH1 0x4 PUSH2 0x4AF2 JUMP JUMPDEST PUSH2 0xCF1 JUMP JUMPDEST CALLVALUE DUP1 ISZERO PUSH2 0x362 JUMPI PUSH1 0x0 DUP1 REVERT JUMPDEST POP PUSH2 0x334 PUSH2 0x371 CALLDATASIZE PUSH1 0x4 PUSH2 0x4AF2 JUMP JUMPDEST PUSH2 0xD7E JUMP JUMPDEST CALLVALUE DUP1 ISZERO PUSH2 0x382 JUMPI PUSH1 0x0 DUP1 REVERT JUMPDEST POP PUSH2 0x396 PUSH2 0x391 CALLDATASIZE PUSH1 0x4 PUSH2 0x4CA6 JUMP JUMPDEST PUSH2 0xE13 JUMP JUMPDEST PUSH1 0x40 MLOAD PUSH2 0x30B SWAP4 SWAP3 SWAP2 SWAP1 PUSH2 0x5036 JUMP JUMPDEST CALLVALUE DUP1 ISZERO PUSH2 0x3B1 JUMPI PUSH1 0x0 DUP1 REVERT JUMPDEST POP PUSH2 0x334 PUSH2 0x3C0 CALLDATASIZE PUSH1 0x4 PUSH2 0x4C5F JUMP JUMPDEST PUSH2 0xE3F JUMP JUMPDEST CALLVALUE DUP1 ISZERO PUSH2 0x3D1 JUMPI PUSH1 0x0 DUP1 REVERT JUMPDEST POP PUSH2 0x334 PUSH2 0x3E0 CALLDATASIZE PUSH1 0x4 PUSH2 0x4AF2 JUMP JUMPDEST PUSH2 0xFB6 JUMP JUMPDEST CALLVALUE DUP1 ISZERO PUSH2 0x3F1 JUMPI PUSH1 0x0 DUP1 REVERT JUMPDEST POP PUSH2 0x405 PUSH2 0x400 CALLDATASIZE PUSH1 0x4 PUSH2 0x4C5F JUMP JUMPDEST PUSH2 0x103C JUMP JUMPDEST PUSH1 0x40 MLOAD PUSH2 0x30B SWAP6 SWAP5 SWAP4 SWAP3 SWAP2 SWAP1 PUSH2 0x5067 JUMP JUMPDEST CALLVALUE DUP1 ISZERO PUSH2 0x422 JUMPI PUSH1 0x0 DUP1 REVERT JUMPDEST POP PUSH2 0x334 PUSH2 0x431 CALLDATASIZE PUSH1 0x4 PUSH2 0x4C77 JUMP JUMPDEST PUSH2 0x106B JUMP JUMPDEST CALLVALUE DUP1 ISZERO PUSH2 0x442 JUMPI PUSH1 0x0 DUP1 REVERT JUMPDEST POP PUSH2 0x456 PUSH2 0x451 CALLDATASIZE PUSH1 0x4 PUSH2 0x4C5F JUMP JUMPDEST PUSH2 0x10D5 JUMP JUMPDEST PUSH1 0x40 MLOAD PUSH2 0x30B SWAP2 SWAP1 PUSH2 0x4FFD JUMP JUMPDEST CALLVALUE DUP1 ISZERO PUSH2 0x46F JUMPI PUSH1 0x0 DUP1 REVERT JUMPDEST POP PUSH2 0x334 PUSH2 0x47E CALLDATASIZE PUSH1 0x4 PUSH2 0x4AF2 JUMP JUMPDEST PUSH2 0x10F4 JUMP JUMPDEST CALLVALUE DUP1 ISZERO PUSH2 0x48F JUMPI PUSH1 0x0 DUP1 REVERT JUMPDEST POP PUSH2 0x456 PUSH2 0x49E CALLDATASIZE PUSH1 0x4 PUSH2 0x4B55 JUMP JUMPDEST PUSH2 0x1108 JUMP JUMPDEST CALLVALUE DUP1 ISZERO PUSH2 0x4AF JUMPI PUSH1 0x0 DUP1 REVERT JUMPDEST POP PUSH2 0x4C3 PUSH2 0x4BE CALLDATASIZE PUSH1 0x4 PUSH2 0x4C5F JUMP JUMPDEST PUSH2 0x115A JUMP JUMPDEST PUSH1 0x40 MLOAD PUSH2 0x30B SWAP2 SWAP1 PUSH2 0x4F97 JUMP JUMPDEST CALLVALUE DUP1 ISZERO PUSH2 0x4DC JUMPI PUSH1 0x0 DUP1 REVERT JUMPDEST POP PUSH2 0x4F0 PUSH2 0x4EB CALLDATASIZE PUSH1 0x4 PUSH2 0x4C5F JUMP JUMPDEST PUSH2 0x11A5 JUMP JUMPDEST PUSH1 0x40 MLOAD PUSH2 0x30B SWAP2 SWAP1 PUSH2 0x4E04 JUMP JUMPDEST CALLVALUE DUP1 ISZERO PUSH2 0x509 JUMPI PUSH1 0x0 DUP1 REVERT JUMPDEST POP PUSH2 0x51D PUSH2 0x518 CALLDATASIZE PUSH1 0x4 PUSH2 0x4C5F JUMP JUMPDEST PUSH2 0x11CF JUMP JUMPDEST PUSH1 0x40 MLOAD PUSH2 0x30B SWAP2 SWAP1 PUSH2 0x4FB8 JUMP JUMPDEST CALLVALUE DUP1 ISZERO PUSH2 0x536 JUMPI PUSH1 0x0 DUP1 REVERT JUMPDEST POP PUSH2 0x54A PUSH2 0x545 CALLDATASIZE PUSH1 0x4 PUSH2 0x4AF2 JUMP JUMPDEST PUSH2 0x1238 JUMP JUMPDEST PUSH1 0x40 MLOAD PUSH2 0x30B SWAP2 SWAP1 PUSH2 0x4E7E JUMP JUMPDEST CALLVALUE DUP1 ISZERO PUSH2 0x563 JUMPI PUSH1 0x0 DUP1 REVERT JUMPDEST POP PUSH2 0x2FE PUSH2 0x124D JUMP JUMPDEST CALLVALUE DUP1 ISZERO PUSH2 0x578 JUMPI PUSH1 0x0 DUP1 REVERT JUMPDEST POP PUSH2 0x334 PUSH2 0x587 CALLDATASIZE PUSH1 0x4 PUSH2 0x4D03 JUMP JUMPDEST PUSH2 0x1253 JUMP JUMPDEST CALLVALUE DUP1 ISZERO PUSH2 0x598 JUMPI PUSH1 0x0 DUP1 REVERT JUMPDEST POP PUSH2 0x334 PUSH2 0x5A7 CALLDATASIZE PUSH1 0x4 PUSH2 0x4CC7 JUMP JUMPDEST PUSH2 0x1428 JUMP JUMPDEST CALLVALUE DUP1 ISZERO PUSH2 0x5B8 JUMPI PUSH1 0x0 DUP1 REVERT JUMPDEST POP PUSH2 0x5C1 PUSH2 0x14BD JUMP JUMPDEST PUSH1 0x40 MLOAD PUSH2 0x30B SWAP6 SWAP5 SWAP4 SWAP3 SWAP2 SWAP1 PUSH2 0x508A JUMP JUMPDEST CALLVALUE DUP1 ISZERO PUSH2 0x5DE JUMPI PUSH1 0x0 DUP1 REVERT JUMPDEST POP PUSH2 0x2FE PUSH2 0x14E6 JUMP JUMPDEST CALLVALUE DUP1 ISZERO PUSH2 0x5F3 JUMPI PUSH1 0x0 DUP1 REVERT JUMPDEST POP PUSH2 0x334 PUSH2 0x602 CALLDATASIZE PUSH1 0x4 PUSH2 0x4AF2 JUMP JUMPDEST PUSH2 0x14EC JUMP JUMPDEST CALLVALUE DUP1 ISZERO PUSH2 0x613 JUMPI PUSH1 0x0 DUP1 REVERT JUMPDEST POP PUSH2 0x2FE PUSH2 0x157A JUMP JUMPDEST CALLVALUE DUP1 ISZERO PUSH2 0x628 JUMPI PUSH1 0x0 DUP1 REVERT JUMPDEST POP PUSH2 0x2FE PUSH2 0x637 CALLDATASIZE PUSH1 0x4 PUSH2 0x4AF2 JUMP JUMPDEST PUSH2 0x1580 JUMP JUMPDEST CALLVALUE DUP1 ISZERO PUSH2 0x648 JUMPI PUSH1 0x0 DUP1 REVERT JUMPDEST POP PUSH2 0x651 PUSH2 0x1592 JUMP JUMPDEST PUSH1 0x40 MLOAD PUSH2 0x30B SWAP2 SWAP1 PUSH2 0x50CE JUMP JUMPDEST CALLVALUE DUP1 ISZERO PUSH2 0x66A JUMPI PUSH1 0x0 DUP1 REVERT JUMPDEST POP PUSH2 0x4F0 PUSH2 0x159E JUMP JUMPDEST CALLVALUE DUP1 ISZERO PUSH2 0x67F JUMPI PUSH1 0x0 DUP1 REVERT JUMPDEST POP PUSH2 0x334 PUSH2 0x68E CALLDATASIZE PUSH1 0x4 PUSH2 0x4C2D JUMP JUMPDEST PUSH2 0x15AD JUMP JUMPDEST CALLVALUE DUP1 ISZERO PUSH2 0x69F JUMPI PUSH1 0x0 DUP1 REVERT JUMPDEST POP PUSH2 0x334 PUSH2 0x6AE CALLDATASIZE PUSH1 0x4 PUSH2 0x4DAE JUMP JUMPDEST PUSH2 0x15BF JUMP JUMPDEST CALLVALUE DUP1 ISZERO PUSH2 0x6BF JUMPI PUSH1 0x0 DUP1 REVERT JUMPDEST POP PUSH2 0x2FE PUSH2 0x162C JUMP JUMPDEST CALLVALUE DUP1 ISZERO PUSH2 0x6D4 JUMPI PUSH1 0x0 DUP1 REVERT JUMPDEST POP PUSH2 0x334 PUSH2 0x6E3 CALLDATASIZE PUSH1 0x4 PUSH2 0x4C5F JUMP JUMPDEST PUSH2 0x1632 JUMP JUMPDEST CALLVALUE DUP1 ISZERO PUSH2 0x6F4 JUMPI PUSH1 0x0 DUP1 REVERT JUMPDEST POP PUSH2 0x2FE PUSH2 0x1720 JUMP JUMPDEST CALLVALUE DUP1 ISZERO PUSH2 0x709 JUMPI PUSH1 0x0 DUP1 REVERT JUMPDEST POP PUSH2 0x334 PUSH2 0x718 CALLDATASIZE PUSH1 0x4 PUSH2 0x4C5F JUMP JUMPDEST PUSH2 0x173E JUMP JUMPDEST CALLVALUE DUP1 ISZERO PUSH2 0x729 JUMPI PUSH1 0x0 DUP1 REVERT JUMPDEST POP PUSH2 0x4F0 PUSH2 0x1748 JUMP JUMPDEST CALLVALUE DUP1 ISZERO PUSH2 0x73E JUMPI PUSH1 0x0 DUP1 REVERT JUMPDEST POP PUSH2 0x54A PUSH2 0x74D CALLDATASIZE PUSH1 0x4 PUSH2 0x4AF2 JUMP JUMPDEST PUSH2 0x1760 JUMP JUMPDEST CALLVALUE DUP1 ISZERO PUSH2 0x75E JUMPI PUSH1 0x0 DUP1 REVERT JUMPDEST POP PUSH2 0x2FE PUSH2 0x76D CALLDATASIZE PUSH1 0x4 PUSH2 0x4C5F JUMP JUMPDEST PUSH2 0x1775 JUMP JUMPDEST CALLVALUE DUP1 ISZERO PUSH2 0x77E JUMPI PUSH1 0x0 DUP1 REVERT JUMPDEST POP PUSH2 0x2FE PUSH2 0x78D CALLDATASIZE PUSH1 0x4 PUSH2 0x4AF2 JUMP JUMPDEST PUSH2 0x1802 JUMP JUMPDEST CALLVALUE DUP1 ISZERO PUSH2 0x79E JUMPI PUSH1 0x0 DUP1 REVERT JUMPDEST POP PUSH2 0x2FE PUSH2 0x7AD CALLDATASIZE PUSH1 0x4 PUSH2 0x4C5F JUMP JUMPDEST PUSH2 0x19D1 JUMP JUMPDEST CALLVALUE DUP1 ISZERO PUSH2 0x7BE JUMPI PUSH1 0x0 DUP1 REVERT JUMPDEST POP PUSH2 0x2FE PUSH2 0x19E3 JUMP JUMPDEST CALLVALUE DUP1 ISZERO PUSH2 0x7D3 JUMPI PUSH1 0x0 DUP1 REVERT JUMPDEST POP PUSH2 0x7DC PUSH2 0x19E9 JUMP JUMPDEST PUSH1 0x40 MLOAD PUSH2 0x30B SWAP2 SWAP1 PUSH2 0x4E31 JUMP JUMPDEST CALLVALUE DUP1 ISZERO PUSH2 0x7F5 JUMPI PUSH1 0x0 DUP1 REVERT JUMPDEST POP PUSH2 0x4F0 PUSH2 0x1A4B JUMP JUMPDEST CALLVALUE DUP1 ISZERO PUSH2 0x80A JUMPI PUSH1 0x0 DUP1 REVERT JUMPDEST POP PUSH2 0x651 PUSH2 0x1A63 JUMP JUMPDEST CALLVALUE DUP1 ISZERO PUSH2 0x81F JUMPI PUSH1 0x0 DUP1 REVERT JUMPDEST POP PUSH2 0x334 PUSH2 0x1A6F JUMP JUMPDEST CALLVALUE DUP1 ISZERO PUSH2 0x834 JUMPI PUSH1 0x0 DUP1 REVERT JUMPDEST POP PUSH2 0x456 PUSH2 0x843 CALLDATASIZE PUSH1 0x4 PUSH2 0x4CE9 JUMP JUMPDEST PUSH2 0x1A89 JUMP JUMPDEST CALLVALUE DUP1 ISZERO PUSH2 0x854 JUMPI PUSH1 0x0 DUP1 REVERT JUMPDEST POP PUSH2 0x651 PUSH2 0x1BB7 JUMP JUMPDEST CALLVALUE DUP1 ISZERO PUSH2 0x869 JUMPI PUSH1 0x0 DUP1 REVERT JUMPDEST POP PUSH2 0x2FE PUSH2 0x878 CALLDATASIZE PUSH1 0x4 PUSH2 0x4C77 JUMP JUMPDEST PUSH2 0x1BCB JUMP JUMPDEST PUSH2 0x334 PUSH2 0x88B CALLDATASIZE PUSH1 0x4 PUSH2 0x4C2D JUMP JUMPDEST PUSH2 0x1C6A JUMP JUMPDEST CALLVALUE DUP1 ISZERO PUSH2 0x89C JUMPI PUSH1 0x0 DUP1 REVERT JUMPDEST POP PUSH2 0x4F0 PUSH2 0x1DB5 JUMP JUMPDEST CALLVALUE DUP1 ISZERO PUSH2 0x8B1 JUMPI PUSH1 0x0 DUP1 REVERT JUMPDEST POP PUSH2 0x4F0 PUSH2 0x1DC4 JUMP JUMPDEST CALLVALUE DUP1 ISZERO PUSH2 0x8C6 JUMPI PUSH1 0x0 DUP1 REVERT JUMPDEST POP PUSH2 0x456 PUSH2 0x8D5 CALLDATASIZE PUSH1 0x4 PUSH2 0x4B2A JUMP JUMPDEST PUSH2 0x1DDC JUMP JUMPDEST CALLVALUE DUP1 ISZERO PUSH2 0x8E6 JUMPI PUSH1 0x0 DUP1 REVERT JUMPDEST POP PUSH2 0x334 PUSH2 0x8F5 CALLDATASIZE PUSH1 0x4 PUSH2 0x4AF2 JUMP JUMPDEST PUSH2 0x1E10 JUMP JUMPDEST CALLVALUE DUP1 ISZERO PUSH2 0x906 JUMPI PUSH1 0x0 DUP1 REVERT JUMPDEST POP PUSH2 0x334 PUSH2 0x915 CALLDATASIZE PUSH1 0x4 PUSH2 0x4C5F JUMP JUMPDEST PUSH2 0x1E81 JUMP JUMPDEST PUSH1 0xB SLOAD PUSH1 0x0 SWAP1 DUP2 PUSH2 0x92C DUP3 PUSH1 0x1 PUSH2 0x2090 JUMP JUMPDEST PUSH1 0x0 DUP2 DUP2 MSTORE PUSH1 0x15 PUSH1 0x20 MSTORE PUSH1 0x40 SWAP1 KECCAK256 PUSH1 0x1 ADD SLOAD SWAP1 SWAP2 POP DUP1 ISZERO PUSH2 0x959 JUMPI PUSH2 0x959 PUSH2 0x954 DUP4 DUP4 PUSH2 0x20AF JUMP JUMPDEST PUSH2 0x20F4 JUMP JUMPDEST PUSH1 0x1 DUP4 GT ISZERO PUSH2 0xAB0 JUMPI PUSH2 0x96A PUSH2 0x1DC4 JUMP JUMPDEST PUSH1 0x1 PUSH1 0x1 PUSH1 0xA0 SHL SUB AND PUSH4 0x7546172 PUSH1 0x40 MLOAD DUP2 PUSH4 0xFFFFFFFF AND PUSH1 0xE0 SHL DUP2 MSTORE PUSH1 0x4 ADD PUSH1 0x20 PUSH1 0x40 MLOAD DUP1 DUP4 SUB DUP2 DUP7 DUP1 EXTCODESIZE ISZERO DUP1 ISZERO PUSH2 0x9A2 JUMPI PUSH1 0x0 DUP1 REVERT JUMPDEST POP GAS STATICCALL ISZERO DUP1 ISZERO PUSH2 0x9B6 JUMPI RETURNDATASIZE PUSH1 0x0 DUP1 RETURNDATACOPY RETURNDATASIZE PUSH1 0x0 REVERT JUMPDEST POP POP POP POP PUSH1 0x40 MLOAD RETURNDATASIZE PUSH1 0x1F NOT PUSH1 0x1F DUP3 ADD AND DUP3 ADD DUP1 PUSH1 0x40 MSTORE POP DUP2 ADD SWAP1 PUSH2 0x9DA SWAP2 SWAP1 PUSH2 0x4B0E JUMP JUMPDEST PUSH1 0x1 PUSH1 0x1 PUSH1 0xA0 SHL SUB AND PUSH4 0xC551A2F9 PUSH1 0x40 MLOAD DUP2 PUSH4 0xFFFFFFFF AND PUSH1 0xE0 SHL DUP2 MSTORE PUSH1 0x4 ADD PUSH1 0x20 PUSH1 0x40 MLOAD DUP1 DUP4 SUB DUP2 PUSH1 0x0 DUP8 DUP1 EXTCODESIZE ISZERO DUP1 ISZERO PUSH2 0xA14 JUMPI PUSH1 0x0 DUP1 REVERT JUMPDEST POP GAS CALL SWAP3 POP POP POP DUP1 ISZERO PUSH2 0xA44 JUMPI POP PUSH1 0x40 DUP1 MLOAD PUSH1 0x1F RETURNDATASIZE SWAP1 DUP2 ADD PUSH1 0x1F NOT AND DUP3 ADD SWAP1 SWAP3 MSTORE PUSH2 0xA41 SWAP2 DUP2 ADD SWAP1 PUSH2 0x4D40 JUMP JUMPDEST PUSH1 0x1 JUMPDEST PUSH2 0xAA5 JUMPI PUSH2 0xA50 PUSH2 0x50FC JUMP JUMPDEST DUP1 PUSH2 0xA5B JUMPI POP PUSH2 0xA68 JUMP JUMPDEST PUSH1 0x0 SWAP5 POP POP POP POP POP PUSH2 0xBB2 JUMP JUMPDEST RETURNDATASIZE DUP1 DUP1 ISZERO PUSH2 0xA92 JUMPI PUSH1 0x40 MLOAD SWAP2 POP PUSH1 0x1F NOT PUSH1 0x3F RETURNDATASIZE ADD AND DUP3 ADD PUSH1 0x40 MSTORE RETURNDATASIZE DUP3 MSTORE RETURNDATASIZE PUSH1 0x0 PUSH1 0x20 DUP5 ADD RETURNDATACOPY PUSH2 0xA97 JUMP JUMPDEST PUSH1 0x60 SWAP2 POP JUMPDEST POP PUSH1 0x0 SWAP5 POP POP POP POP POP PUSH2 0xBB2 JUMP JUMPDEST SWAP4 POP PUSH2 0xBB2 SWAP3 POP POP POP JUMP JUMPDEST PUSH2 0xAB8 PUSH2 0x20FC JUMP JUMPDEST PUSH1 0x0 DUP5 DUP2 MSTORE PUSH1 0x15 PUSH1 0x20 MSTORE PUSH1 0x40 SWAP1 KECCAK256 SSTORE PUSH2 0xACF PUSH2 0x4971 JUMP JUMPDEST POP PUSH1 0x0 DUP4 DUP2 MSTORE PUSH1 0x15 PUSH1 0x20 SWAP1 DUP2 MSTORE PUSH1 0x40 SWAP2 DUP3 SWAP1 KECCAK256 DUP3 MLOAD PUSH1 0xA0 DUP2 ADD DUP5 MSTORE DUP2 SLOAD DUP1 DUP3 MSTORE PUSH1 0x1 DUP4 ADD SLOAD SWAP4 DUP3 ADD DUP5 SWAP1 MSTORE PUSH1 0x2 DUP4 ADD SLOAD DUP3 DUP7 ADD DUP2 SWAP1 MSTORE PUSH1 0x3 DUP5 ADD SLOAD PUSH1 0x60 DUP5 ADD DUP2 SWAP1 MSTORE PUSH1 0x4 SWAP1 SWAP5 ADD SLOAD PUSH1 0x80 DUP5 ADD MSTORE SWAP5 MLOAD SWAP2 SWAP5 DUP9 SWAP5 PUSH32 0xBB4A26FA0ACE13EE4DA343896C20EAA44A618FB9071FDD8C2E2C960A4583189D SWAP5 PUSH2 0xB51 SWAP5 SWAP2 SWAP4 SWAP3 SWAP2 PUSH2 0x504C JUMP JUMPDEST PUSH1 0x40 MLOAD DUP1 SWAP2 SUB SWAP1 LOG2 PUSH2 0xB61 PUSH2 0x2187 JUMP JUMPDEST PUSH1 0x20 DUP2 ADD MLOAD PUSH2 0xBA8 JUMPI DUP1 MLOAD PUSH1 0x40 MLOAD DUP6 SWAP2 PUSH32 0xB463D19ECF455BE65365092CF8E1DB6934A0334CF8CD532DDF9964D01F36B5B2 SWAP2 PUSH2 0xB9F SWAP2 PUSH1 0x0 SWAP2 PUSH2 0x4EB7 JUMP JUMPDEST PUSH1 0x40 MLOAD DUP1 SWAP2 SUB SWAP1 LOG2 JUMPDEST PUSH1 0x20 ADD MLOAD SWAP4 POP POP POP POP JUMPDEST SWAP1 JUMP JUMPDEST PUSH1 0x0 DUP1 PUSH2 0xBC0 PUSH2 0x1748 JUMP JUMPDEST PUSH1 0x40 MLOAD PUSH4 0x309DFC6B PUSH1 0xE2 SHL DUP2 MSTORE PUSH1 0x1 PUSH1 0x1 PUSH1 0xA0 SHL SUB SWAP2 SWAP1 SWAP2 AND SWAP1 PUSH4 0xC277F1AC SWAP1 PUSH2 0xBEE SWAP1 DUP8 SWAP1 PUSH1 0x4 ADD PUSH2 0x4E89 JUMP JUMPDEST PUSH1 0x0 PUSH1 0x40 MLOAD DUP1 DUP4 SUB DUP2 DUP7 DUP1 EXTCODESIZE ISZERO DUP1 ISZERO PUSH2 0xC06 JUMPI PUSH1 0x0 DUP1 REVERT JUMPDEST POP GAS STATICCALL ISZERO DUP1 ISZERO PUSH2 0xC1A JUMPI RETURNDATASIZE PUSH1 0x0 DUP1 RETURNDATACOPY RETURNDATASIZE PUSH1 0x0 REVERT JUMPDEST POP POP POP POP PUSH1 0x40 MLOAD RETURNDATASIZE PUSH1 0x0 DUP3 RETURNDATACOPY PUSH1 0x1F RETURNDATASIZE SWAP1 DUP2 ADD PUSH1 0x1F NOT AND DUP3 ADD PUSH1 0x40 MSTORE PUSH2 0xC42 SWAP2 SWAP1 DUP2 ADD SWAP1 PUSH2 0x4B89 JUMP JUMPDEST POP POP SWAP4 POP POP POP SWAP2 POP PUSH1 0x0 DUP2 EQ ISZERO PUSH2 0xC74 JUMPI PUSH1 0x40 MLOAD PUSH3 0x461BCD PUSH1 0xE5 SHL DUP2 MSTORE PUSH1 0x4 ADD PUSH2 0xC6B SWAP1 PUSH2 0x4EC5 JUMP JUMPDEST PUSH1 0x40 MLOAD DUP1 SWAP2 SUB SWAP1 REVERT JUMPDEST DUP3 PUSH1 0x1 PUSH1 0x1 PUSH1 0xA0 SHL SUB AND DUP3 PUSH1 0x1 PUSH1 0x1 PUSH1 0xA0 SHL SUB AND EQ PUSH2 0xCA5 JUMPI PUSH1 0x40 MLOAD PUSH3 0x461BCD PUSH1 0xE5 SHL DUP2 MSTORE PUSH1 0x4 ADD PUSH2 0xC6B SWAP1 PUSH2 0x4EFC JUMP JUMPDEST PUSH1 0x1 PUSH1 0x1 PUSH1 0xA0 SHL SUB DUP1 DUP4 AND PUSH1 0x0 SWAP1 DUP2 MSTORE PUSH1 0x8 PUSH1 0x20 MSTORE PUSH1 0x40 DUP1 DUP3 KECCAK256 DUP8 SWAP1 SSTORE MLOAD DUP7 SWAP3 DUP7 AND SWAP2 PUSH32 0xE8B9F7EE7A4480D45B60E98F7B2090DD82E2353B8557A6EE2DD2D5EE9196BAC2 SWAP2 LOG3 POP POP POP POP JUMP JUMPDEST PUSH1 0x0 PUSH2 0xCFB PUSH2 0x1A4B JUMP JUMPDEST PUSH1 0x1 PUSH1 0x1 PUSH1 0xA0 SHL SUB AND PUSH4 0x70A08231 DUP4 PUSH1 0x40 MLOAD DUP3 PUSH4 0xFFFFFFFF AND PUSH1 0xE0 SHL DUP2 MSTORE PUSH1 0x4 ADD PUSH2 0xD26 SWAP2 SWAP1 PUSH2 0x4E04 JUMP JUMPDEST PUSH1 0x20 PUSH1 0x40 MLOAD DUP1 DUP4 SUB DUP2 DUP7 DUP1 EXTCODESIZE ISZERO DUP1 ISZERO PUSH2 0xD3E JUMPI PUSH1 0x0 DUP1 REVERT JUMPDEST POP GAS STATICCALL ISZERO DUP1 ISZERO PUSH2 0xD52 JUMPI RETURNDATASIZE PUSH1 0x0 DUP1 RETURNDATACOPY RETURNDATASIZE PUSH1 0x0 REVERT JUMPDEST POP POP POP POP PUSH1 0x40 MLOAD RETURNDATASIZE PUSH1 0x1F NOT PUSH1 0x1F DUP3 ADD AND DUP3 ADD DUP1 PUSH1 0x40 MSTORE POP DUP2 ADD SWAP1 PUSH2 0xD76 SWAP2 SWAP1 PUSH2 0x4D40 JUMP JUMPDEST SWAP1 POP JUMPDEST SWAP2 SWAP1 POP JUMP JUMPDEST PUSH2 0xD86 PUSH2 0x21C4 JUMP JUMPDEST PUSH1 0x1 PUSH1 0x1 PUSH1 0xA0 SHL SUB DUP2 AND PUSH1 0x0 SWAP1 DUP2 MSTORE PUSH1 0xF PUSH1 0x20 MSTORE PUSH1 0x40 SWAP1 KECCAK256 SLOAD PUSH1 0xFF AND ISZERO PUSH2 0xDB5 JUMPI PUSH2 0xDB5 PUSH2 0x954 PUSH1 0x0 DUP4 PUSH2 0x21E7 JUMP JUMPDEST PUSH1 0x1 PUSH1 0x1 PUSH1 0xA0 SHL SUB DUP2 AND PUSH1 0x0 SWAP1 DUP2 MSTORE PUSH1 0xF PUSH1 0x20 MSTORE PUSH1 0x40 SWAP1 DUP2 SWAP1 KECCAK256 DUP1 SLOAD PUSH1 0xFF NOT AND PUSH1 0x1 OR SWAP1 SSTORE MLOAD PUSH32 0x5738EE3C8E8FE8B0B9C4C21B16FDCA42EC02E271237DFEABBF3B5AF1584D732B SWAP1 PUSH2 0xE08 SWAP1 DUP4 SWAP1 PUSH2 0x4E04 JUMP JUMPDEST PUSH1 0x40 MLOAD DUP1 SWAP2 SUB SWAP1 LOG1 POP JUMP JUMPDEST PUSH1 0x14 PUSH1 0x20 SWAP1 DUP2 MSTORE PUSH1 0x0 SWAP3 DUP4 MSTORE PUSH1 0x40 DUP1 DUP5 KECCAK256 SWAP1 SWAP2 MSTORE SWAP1 DUP3 MSTORE SWAP1 KECCAK256 DUP1 SLOAD PUSH1 0x1 DUP3 ADD SLOAD PUSH1 0x2 SWAP1 SWAP3 ADD SLOAD SWAP1 SWAP2 SWAP1 DUP4 JUMP JUMPDEST CALLER PUSH2 0xE48 PUSH2 0x49A0 JUMP JUMPDEST PUSH1 0x1 PUSH1 0x1 PUSH1 0xA0 SHL SUB DUP3 AND PUSH1 0x0 SWAP1 DUP2 MSTORE PUSH32 0x5B8CCBB9D4D8FB16EA74CE3C29A41F1B461FBDAFF4714A0D9A8EB05499746BC PUSH1 0x20 MSTORE PUSH1 0x40 SWAP1 KECCAK256 PUSH2 0xE88 SWAP1 PUSH2 0x2255 JUMP JUMPDEST SWAP1 POP PUSH1 0x0 PUSH2 0xEB0 DUP3 PUSH1 0x20 ADD MLOAD PUSH1 0x1 PUSH1 0x1 PUSH1 0x60 SHL SUB AND DUP4 PUSH1 0x40 ADD MLOAD PUSH1 0x1 PUSH1 0x1 PUSH1 0x60 SHL SUB AND PUSH2 0x22D9 JUMP JUMPDEST SWAP1 POP DUP1 DUP5 GT ISZERO PUSH2 0xEC7 JUMPI PUSH2 0xEC7 PUSH2 0x954 DUP6 DUP4 PUSH2 0x22EF JUMP JUMPDEST PUSH1 0x1 PUSH1 0x1 PUSH1 0xA0 SHL SUB DUP4 AND PUSH1 0x0 SWAP1 DUP2 MSTORE PUSH32 0x5B8CCBB9D4D8FB16EA74CE3C29A41F1B461FBDAFF4714A0D9A8EB05499746BC PUSH1 0x20 MSTORE PUSH1 0x40 SWAP1 KECCAK256 PUSH2 0xF08 SWAP1 DUP6 PUSH2 0x2334 JUMP JUMPDEST PUSH2 0xF10 PUSH2 0x1A4B JUMP JUMPDEST PUSH1 0x1 PUSH1 0x1 PUSH1 0xA0 SHL SUB AND PUSH4 0x9470B0BD DUP5 DUP7 PUSH1 0x40 MLOAD DUP4 PUSH4 0xFFFFFFFF AND PUSH1 0xE0 SHL DUP2 MSTORE PUSH1 0x4 ADD PUSH2 0xF3D SWAP3 SWAP2 SWAP1 PUSH2 0x4E18 JUMP JUMPDEST PUSH1 0x0 PUSH1 0x40 MLOAD DUP1 DUP4 SUB DUP2 PUSH1 0x0 DUP8 DUP1 EXTCODESIZE ISZERO DUP1 ISZERO PUSH2 0xF57 JUMPI PUSH1 0x0 DUP1 REVERT JUMPDEST POP GAS CALL ISZERO DUP1 ISZERO PUSH2 0xF6B JUMPI RETURNDATASIZE PUSH1 0x0 DUP1 RETURNDATACOPY RETURNDATASIZE PUSH1 0x0 REVERT JUMPDEST POP POP POP POP DUP3 PUSH1 0x1 PUSH1 0x1 PUSH1 0xA0 SHL SUB AND PUSH32 0x85082129D87B2FE11527CB1B3B7A520AEB5AA6913F88A3D8757FE40D1DB02FDD DUP6 PUSH1 0x40 MLOAD PUSH2 0xFA8 SWAP2 SWAP1 PUSH2 0x4E89 JUMP JUMPDEST PUSH1 0x40 MLOAD DUP1 SWAP2 SUB SWAP1 LOG2 POP POP POP POP JUMP JUMPDEST PUSH2 0xFBE PUSH2 0x21C4 JUMP JUMPDEST PUSH1 0x1 PUSH1 0x1 PUSH1 0xA0 SHL SUB DUP2 AND PUSH1 0x0 SWAP1 DUP2 MSTORE PUSH1 0xF PUSH1 0x20 MSTORE PUSH1 0x40 SWAP1 KECCAK256 SLOAD PUSH1 0xFF AND PUSH2 0xFEC JUMPI PUSH2 0xFEC PUSH2 0x954 PUSH1 0x1 DUP4 PUSH2 0x21E7 JUMP JUMPDEST PUSH1 0x1 PUSH1 0x1 PUSH1 0xA0 SHL SUB DUP2 AND PUSH1 0x0 SWAP1 DUP2 MSTORE PUSH1 0xF PUSH1 0x20 MSTORE PUSH1 0x40 SWAP1 DUP2 SWAP1 KECCAK256 DUP1 SLOAD PUSH1 0xFF NOT AND SWAP1 SSTORE MLOAD PUSH32 0x9BF55462CB5FA187F725D06DE0A70BC01C4E40695570BDC25AD116F9BE46BDA7 SWAP1 PUSH2 0xE08 SWAP1 DUP4 SWAP1 PUSH2 0x4E04 JUMP JUMPDEST PUSH1 0x15 PUSH1 0x20 MSTORE PUSH1 0x0 SWAP1 DUP2 MSTORE PUSH1 0x40 SWAP1 KECCAK256 DUP1 SLOAD PUSH1 0x1 DUP3 ADD SLOAD PUSH1 0x2 DUP4 ADD SLOAD PUSH1 0x3 DUP5 ADD SLOAD PUSH1 0x4 SWAP1 SWAP5 ADD SLOAD SWAP3 SWAP4 SWAP2 SWAP3 SWAP1 SWAP2 SWAP1 DUP6 JUMP JUMPDEST DUP2 PUSH2 0x1075 DUP2 PUSH2 0x23A6 JUMP JUMPDEST PUSH1 0x0 DUP4 DUP2 MSTORE PUSH1 0x9 PUSH1 0x20 MSTORE PUSH1 0x40 SWAP1 KECCAK256 PUSH1 0x1 PUSH1 0x1 PUSH1 0xA0 SHL SUB DUP4 AND ISZERO DUP1 PUSH2 0x10A8 JUMPI POP PUSH1 0x1 DUP2 ADD SLOAD PUSH1 0x1 PUSH1 0x1 PUSH1 0xA0 SHL SUB DUP5 DUP2 AND SWAP2 AND EQ JUMPDEST ISZERO PUSH2 0x10B3 JUMPI POP PUSH2 0x10D0 JUMP JUMPDEST PUSH1 0x1 ADD DUP1 SLOAD PUSH1 0x1 PUSH1 0x1 PUSH1 0xA0 SHL SUB NOT AND PUSH1 0x1 PUSH1 0x1 PUSH1 0xA0 SHL SUB DUP5 AND OR SWAP1 SSTORE JUMPDEST POP POP POP JUMP JUMPDEST PUSH2 0x10DD PUSH2 0x49A0 JUMP JUMPDEST PUSH1 0x0 DUP3 DUP2 MSTORE PUSH1 0x7 PUSH1 0x20 MSTORE PUSH1 0x40 SWAP1 KECCAK256 PUSH2 0xD76 SWAP1 PUSH2 0x2255 JUMP JUMPDEST PUSH2 0x10FC PUSH2 0x23D2 JUMP JUMPDEST PUSH2 0x1105 DUP2 PUSH2 0x23FF JUMP JUMPDEST POP JUMP JUMPDEST PUSH2 0x1110 PUSH2 0x49A0 JUMP JUMPDEST PUSH2 0x1151 PUSH1 0x5 PUSH1 0x0 DUP5 PUSH1 0x1 DUP2 GT ISZERO PUSH2 0x1123 JUMPI INVALID JUMPDEST PUSH1 0xFF AND DUP2 MSTORE PUSH1 0x20 DUP1 DUP3 ADD SWAP3 SWAP1 SWAP3 MSTORE PUSH1 0x40 SWAP1 DUP2 ADD PUSH1 0x0 SWAP1 DUP2 KECCAK256 PUSH1 0x1 PUSH1 0x1 PUSH1 0xA0 SHL SUB DUP9 AND DUP3 MSTORE SWAP1 SWAP3 MSTORE SWAP1 KECCAK256 PUSH2 0x2255 JUMP JUMPDEST SWAP1 POP JUMPDEST SWAP3 SWAP2 POP POP JUMP JUMPDEST PUSH2 0x1162 PUSH2 0x49C0 JUMP JUMPDEST POP PUSH1 0x0 SWAP1 DUP2 MSTORE PUSH1 0x14 PUSH1 0x20 SWAP1 DUP2 MSTORE PUSH1 0x40 DUP1 DUP4 KECCAK256 PUSH1 0xB SLOAD DUP5 MSTORE DUP3 MSTORE SWAP2 DUP3 SWAP1 KECCAK256 DUP3 MLOAD PUSH1 0x60 DUP2 ADD DUP5 MSTORE DUP2 SLOAD DUP2 MSTORE PUSH1 0x1 DUP3 ADD SLOAD SWAP3 DUP2 ADD SWAP3 SWAP1 SWAP3 MSTORE PUSH1 0x2 ADD SLOAD SWAP2 DUP2 ADD SWAP2 SWAP1 SWAP2 MSTORE SWAP1 JUMP JUMPDEST PUSH1 0x2 DUP2 DUP2 SLOAD DUP2 LT PUSH2 0x11B5 JUMPI PUSH1 0x0 DUP1 REVERT JUMPDEST PUSH1 0x0 SWAP2 DUP3 MSTORE PUSH1 0x20 SWAP1 SWAP2 KECCAK256 ADD SLOAD PUSH1 0x1 PUSH1 0x1 PUSH1 0xA0 SHL SUB AND SWAP1 POP DUP2 JUMP JUMPDEST PUSH2 0x11D7 PUSH2 0x49E1 JUMP JUMPDEST POP PUSH1 0x0 SWAP1 DUP2 MSTORE PUSH1 0x9 PUSH1 0x20 SWAP1 DUP2 MSTORE PUSH1 0x40 SWAP2 DUP3 SWAP1 KECCAK256 DUP3 MLOAD PUSH1 0x80 DUP2 ADD DUP5 MSTORE DUP2 SLOAD PUSH1 0x1 PUSH1 0x1 PUSH1 0xA0 SHL SUB SWAP1 DUP2 AND DUP3 MSTORE PUSH1 0x1 SWAP1 SWAP3 ADD SLOAD SWAP2 DUP3 AND SWAP3 DUP2 ADD SWAP3 SWAP1 SWAP3 MSTORE PUSH4 0xFFFFFFFF PUSH1 0x1 PUSH1 0xA0 SHL DUP3 DIV DUP2 AND SWAP4 DUP4 ADD SWAP4 SWAP1 SWAP4 MSTORE PUSH1 0x1 PUSH1 0xC0 SHL SWAP1 DIV SWAP1 SWAP2 AND PUSH1 0x60 DUP3 ADD MSTORE SWAP1 JUMP JUMPDEST PUSH1 0xF PUSH1 0x20 MSTORE PUSH1 0x0 SWAP1 DUP2 MSTORE PUSH1 0x40 SWAP1 KECCAK256 SLOAD PUSH1 0xFF AND DUP2 JUMP JUMPDEST PUSH1 0xC SLOAD DUP2 JUMP JUMPDEST CALLER DUP2 PUSH2 0x125F JUMPI POP PUSH2 0x10D0 JUMP JUMPDEST PUSH1 0x0 PUSH2 0x126E PUSH1 0x20 DUP7 ADD DUP7 PUSH2 0x4CE9 JUMP JUMPDEST PUSH1 0x1 DUP2 GT ISZERO PUSH2 0x1279 JUMPI INVALID JUMPDEST EQ DUP1 ISZERO PUSH2 0x129D JUMPI POP PUSH1 0x0 PUSH2 0x1290 PUSH1 0x20 DUP6 ADD DUP6 PUSH2 0x4CE9 JUMP JUMPDEST PUSH1 0x1 DUP2 GT ISZERO PUSH2 0x129B JUMPI INVALID JUMPDEST EQ JUMPDEST ISZERO PUSH2 0x12A8 JUMPI POP PUSH2 0x10D0 JUMP JUMPDEST PUSH1 0x1 PUSH2 0x12B7 PUSH1 0x20 DUP7 ADD DUP7 PUSH2 0x4CE9 JUMP JUMPDEST PUSH1 0x1 DUP2 GT ISZERO PUSH2 0x12C2 JUMPI INVALID JUMPDEST EQ ISZERO PUSH2 0x12D7 JUMPI PUSH2 0x12D7 DUP5 PUSH1 0x20 ADD CALLDATALOAD DUP3 DUP5 PUSH2 0x24D3 JUMP JUMPDEST PUSH1 0x1 PUSH2 0x12E6 PUSH1 0x20 DUP6 ADD DUP6 PUSH2 0x4CE9 JUMP JUMPDEST PUSH1 0x1 DUP2 GT ISZERO PUSH2 0x12F1 JUMPI INVALID JUMPDEST EQ ISZERO PUSH2 0x1306 JUMPI PUSH2 0x1306 DUP4 PUSH1 0x20 ADD CALLDATALOAD DUP3 DUP5 PUSH2 0x255F JUMP JUMPDEST PUSH1 0x0 PUSH1 0x5 DUP2 PUSH2 0x1318 PUSH1 0x20 DUP9 ADD DUP9 PUSH2 0x4CE9 JUMP JUMPDEST PUSH1 0x1 DUP2 GT ISZERO PUSH2 0x1323 JUMPI INVALID JUMPDEST PUSH1 0xFF AND DUP2 MSTORE PUSH1 0x20 DUP1 DUP3 ADD SWAP3 SWAP1 SWAP3 MSTORE PUSH1 0x40 SWAP1 DUP2 ADD PUSH1 0x0 SWAP1 DUP2 KECCAK256 PUSH1 0x1 PUSH1 0x1 PUSH1 0xA0 SHL SUB DUP7 AND DUP3 MSTORE DUP4 MSTORE SWAP1 DUP2 KECCAK256 SWAP3 POP SWAP1 PUSH1 0x5 SWAP1 DUP3 SWAP1 PUSH2 0x1360 SWAP1 DUP9 ADD DUP9 PUSH2 0x4CE9 JUMP JUMPDEST PUSH1 0x1 DUP2 GT ISZERO PUSH2 0x136B JUMPI INVALID JUMPDEST PUSH1 0xFF AND DUP2 MSTORE PUSH1 0x20 DUP1 DUP3 ADD SWAP3 SWAP1 SWAP3 MSTORE PUSH1 0x40 SWAP1 DUP2 ADD PUSH1 0x0 SWAP1 DUP2 KECCAK256 PUSH1 0x1 PUSH1 0x1 PUSH1 0xA0 SHL SUB DUP8 AND DUP3 MSTORE SWAP1 SWAP3 MSTORE SWAP1 KECCAK256 SWAP1 POP PUSH2 0x13A1 DUP3 DUP3 DUP7 PUSH2 0x25EB JUMP JUMPDEST PUSH1 0x20 DUP1 DUP7 ADD CALLDATALOAD SWAP1 DUP8 ADD DUP1 CALLDATALOAD SWAP1 PUSH1 0x1 PUSH1 0x1 PUSH1 0xA0 SHL SUB DUP7 AND SWAP1 PUSH32 0x7D3AD1DCF03B9027064D1D9A474A69E0CECC31324C541D3EB9B5E6FA2F106C8D SWAP1 DUP9 SWAP1 PUSH2 0x13E6 SWAP1 DUP13 PUSH2 0x4CE9 JUMP JUMPDEST PUSH1 0x1 DUP2 GT ISZERO PUSH2 0x13F1 JUMPI INVALID JUMPDEST PUSH2 0x13FE PUSH1 0x20 DUP13 ADD DUP13 PUSH2 0x4CE9 JUMP JUMPDEST PUSH1 0x1 DUP2 GT ISZERO PUSH2 0x1409 JUMPI INVALID JUMPDEST PUSH1 0x40 MLOAD PUSH2 0x1418 SWAP4 SWAP3 SWAP2 SWAP1 PUSH2 0x50B5 JUMP JUMPDEST PUSH1 0x40 MLOAD DUP1 SWAP2 SUB SWAP1 LOG4 POP POP POP POP POP POP JUMP JUMPDEST DUP2 PUSH2 0x1432 DUP2 PUSH2 0x23A6 JUMP JUMPDEST PUSH1 0x0 DUP4 DUP2 MSTORE PUSH1 0x9 PUSH1 0x20 MSTORE PUSH1 0x40 SWAP1 KECCAK256 PUSH1 0x1 ADD SLOAD PUSH1 0x1 PUSH1 0xA0 SHL SWAP1 DIV PUSH4 0xFFFFFFFF AND PUSH2 0x145C DUP5 DUP3 DUP6 PUSH2 0x26BF JUMP JUMPDEST PUSH1 0x0 DUP5 DUP2 MSTORE PUSH1 0x9 PUSH1 0x20 MSTORE PUSH1 0x40 SWAP1 DUP2 SWAP1 KECCAK256 PUSH1 0x1 ADD DUP1 SLOAD PUSH4 0xFFFFFFFF PUSH1 0xA0 SHL NOT AND PUSH1 0x1 PUSH1 0xA0 SHL PUSH4 0xFFFFFFFF DUP8 AND MUL OR SWAP1 SSTORE MLOAD DUP5 SWAP1 PUSH32 0x8EA2A7A959BD25F226B7B0A4393613F7FDCAA8404E8BAD96AA52DC1C14590167 SWAP1 PUSH2 0xFA8 SWAP1 DUP5 SWAP1 DUP8 SWAP1 PUSH2 0x50DF JUMP JUMPDEST PUSH1 0x10 SLOAD PUSH1 0x11 SLOAD PUSH1 0x12 SLOAD PUSH1 0x13 SLOAD SWAP3 SWAP4 PUSH4 0xFFFFFFFF SWAP3 DUP4 AND SWAP4 SWAP2 SWAP3 DUP3 DUP2 AND SWAP3 PUSH5 0x100000000 SWAP1 DIV AND SWAP1 JUMP JUMPDEST PUSH1 0x10 SLOAD DUP2 JUMP JUMPDEST PUSH2 0x14F4 PUSH2 0x23D2 JUMP JUMPDEST PUSH1 0x1 PUSH1 0x1 PUSH1 0xA0 SHL SUB DUP2 AND PUSH1 0x0 SWAP1 DUP2 MSTORE PUSH1 0x1 PUSH1 0x20 MSTORE PUSH1 0x40 SWAP1 KECCAK256 SLOAD PUSH1 0xFF AND PUSH2 0x1520 JUMPI PUSH2 0x1520 PUSH2 0x954 DUP3 PUSH2 0x2707 JUMP JUMPDEST PUSH1 0x0 JUMPDEST PUSH1 0x2 SLOAD DUP2 LT ISZERO PUSH2 0x1576 JUMPI DUP2 PUSH1 0x1 PUSH1 0x1 PUSH1 0xA0 SHL SUB AND PUSH1 0x2 DUP3 DUP2 SLOAD DUP2 LT PUSH2 0x1544 JUMPI INVALID JUMPDEST PUSH1 0x0 SWAP2 DUP3 MSTORE PUSH1 0x20 SWAP1 SWAP2 KECCAK256 ADD SLOAD PUSH1 0x1 PUSH1 0x1 PUSH1 0xA0 SHL SUB AND EQ ISZERO PUSH2 0x156E JUMPI PUSH2 0x1569 DUP3 DUP3 PUSH2 0x274F JUMP JUMPDEST PUSH2 0x1576 JUMP JUMPDEST PUSH1 0x1 ADD PUSH2 0x1523 JUMP JUMPDEST POP POP JUMP JUMPDEST PUSH1 0xB SLOAD DUP2 JUMP JUMPDEST PUSH1 0x8 PUSH1 0x20 MSTORE PUSH1 0x0 SWAP1 DUP2 MSTORE PUSH1 0x40 SWAP1 KECCAK256 SLOAD DUP2 JUMP JUMPDEST PUSH1 0x13 SLOAD PUSH4 0xFFFFFFFF AND DUP2 JUMP JUMPDEST PUSH1 0x0 SLOAD PUSH1 0x1 PUSH1 0x1 PUSH1 0xA0 SHL SUB AND DUP2 JUMP JUMPDEST PUSH2 0x15B5 PUSH2 0x23D2 JUMP JUMPDEST PUSH2 0x1576 DUP3 DUP3 PUSH2 0x274F JUMP JUMPDEST PUSH2 0x15C7 PUSH2 0x21C4 JUMP JUMPDEST PUSH2 0x15D4 DUP6 DUP6 DUP6 DUP6 DUP6 PUSH2 0x28E3 JUMP JUMPDEST ADDRESS PUSH1 0x1 PUSH1 0x1 PUSH1 0xA0 SHL SUB AND PUSH4 0xC6F3A427 PUSH1 0x40 MLOAD DUP2 PUSH4 0xFFFFFFFF AND PUSH1 0xE0 SHL DUP2 MSTORE PUSH1 0x4 ADD PUSH1 0x0 PUSH1 0x40 MLOAD DUP1 DUP4 SUB DUP2 DUP7 DUP1 EXTCODESIZE ISZERO DUP1 ISZERO PUSH2 0x160D JUMPI PUSH1 0x0 DUP1 REVERT JUMPDEST POP GAS STATICCALL ISZERO DUP1 ISZERO PUSH2 0x1621 JUMPI RETURNDATASIZE PUSH1 0x0 DUP1 RETURNDATACOPY RETURNDATASIZE PUSH1 0x0 REVERT JUMPDEST POP POP POP POP POP POP POP POP POP JUMP JUMPDEST PUSH1 0x12 SLOAD DUP2 JUMP JUMPDEST CALLER PUSH2 0x163B PUSH2 0x1A4B JUMP JUMPDEST PUSH1 0x1 PUSH1 0x1 PUSH1 0xA0 SHL SUB AND PUSH4 0x15CC36F2 DUP3 DUP5 PUSH1 0x40 MLOAD DUP4 PUSH4 0xFFFFFFFF AND PUSH1 0xE0 SHL DUP2 MSTORE PUSH1 0x4 ADD PUSH2 0x1668 SWAP3 SWAP2 SWAP1 PUSH2 0x4E18 JUMP JUMPDEST PUSH1 0x0 PUSH1 0x40 MLOAD DUP1 DUP4 SUB DUP2 PUSH1 0x0 DUP8 DUP1 EXTCODESIZE ISZERO DUP1 ISZERO PUSH2 0x1682 JUMPI PUSH1 0x0 DUP1 REVERT JUMPDEST POP GAS CALL ISZERO DUP1 ISZERO PUSH2 0x1696 JUMPI RETURNDATASIZE PUSH1 0x0 DUP1 RETURNDATACOPY RETURNDATASIZE PUSH1 0x0 REVERT JUMPDEST POP POP POP POP PUSH1 0x1 PUSH1 0x1 PUSH1 0xA0 SHL SUB DUP2 AND PUSH1 0x0 SWAP1 DUP2 MSTORE PUSH32 0x5B8CCBB9D4D8FB16EA74CE3C29A41F1B461FBDAFF4714A0D9A8EB05499746BC PUSH1 0x20 MSTORE PUSH1 0x40 SWAP1 KECCAK256 PUSH2 0x16DB SWAP1 DUP4 PUSH2 0x2974 JUMP JUMPDEST DUP1 PUSH1 0x1 PUSH1 0x1 PUSH1 0xA0 SHL SUB AND PUSH32 0xEBEDB8B3C678666E7F36970BC8F57ABF6D8FA2E828C0DA91EA5B75BF68ED101A DUP4 PUSH1 0x40 MLOAD PUSH2 0x1714 SWAP2 SWAP1 PUSH2 0x4E89 JUMP JUMPDEST PUSH1 0x40 MLOAD DUP1 SWAP2 SUB SWAP1 LOG2 POP POP JUMP JUMPDEST PUSH1 0x0 PUSH2 0x1739 PUSH1 0x10 SLOAD PUSH1 0xC SLOAD PUSH2 0x29CA SWAP1 SWAP2 SWAP1 PUSH4 0xFFFFFFFF AND JUMP JUMPDEST SWAP1 POP SWAP1 JUMP JUMPDEST PUSH2 0x1105 DUP2 CALLER PUSH2 0x29E6 JUMP JUMPDEST PUSH20 0xDE6445484A8DCD9BF35FC95EB4E3990CC358822E SWAP1 JUMP JUMPDEST PUSH1 0x1 PUSH1 0x20 MSTORE PUSH1 0x0 SWAP1 DUP2 MSTORE PUSH1 0x40 SWAP1 KECCAK256 SLOAD PUSH1 0xFF AND DUP2 JUMP JUMPDEST PUSH1 0x0 PUSH2 0x177F PUSH2 0x49E1 JUMP JUMPDEST POP PUSH1 0x0 DUP3 DUP2 MSTORE PUSH1 0x9 PUSH1 0x20 SWAP1 DUP2 MSTORE PUSH1 0x40 DUP1 DUP4 KECCAK256 DUP2 MLOAD PUSH1 0x80 DUP2 ADD DUP4 MSTORE DUP2 SLOAD PUSH1 0x1 PUSH1 0x1 PUSH1 0xA0 SHL SUB SWAP1 DUP2 AND DUP3 MSTORE PUSH1 0x1 SWAP1 SWAP3 ADD SLOAD SWAP2 DUP3 AND SWAP4 DUP2 ADD SWAP4 SWAP1 SWAP4 MSTORE PUSH4 0xFFFFFFFF PUSH1 0x1 PUSH1 0xA0 SHL DUP3 DIV DUP2 AND SWAP3 DUP5 ADD SWAP3 SWAP1 SWAP3 MSTORE PUSH1 0x1 PUSH1 0xC0 SHL SWAP1 DIV AND PUSH1 0x60 DUP3 ADD MSTORE SWAP1 DUP1 PUSH2 0x17E5 DUP6 PUSH2 0x2B54 JUMP JUMPDEST SWAP2 POP SWAP2 POP PUSH2 0x17F8 DUP4 PUSH1 0x40 ADD MLOAD DUP4 DUP4 PUSH2 0x2C11 JUMP JUMPDEST POP SWAP6 SWAP5 POP POP POP POP POP JUMP JUMPDEST PUSH1 0x0 DUP1 PUSH1 0x0 PUSH2 0x180F PUSH2 0x1748 JUMP JUMPDEST PUSH1 0x1 PUSH1 0x1 PUSH1 0xA0 SHL SUB AND PUSH4 0xB72E717D DUP6 PUSH1 0x40 MLOAD DUP3 PUSH4 0xFFFFFFFF AND PUSH1 0xE0 SHL DUP2 MSTORE PUSH1 0x4 ADD PUSH2 0x183A SWAP2 SWAP1 PUSH2 0x4E04 JUMP JUMPDEST PUSH1 0x0 PUSH1 0x40 MLOAD DUP1 DUP4 SUB DUP2 DUP7 DUP1 EXTCODESIZE ISZERO DUP1 ISZERO PUSH2 0x1852 JUMPI PUSH1 0x0 DUP1 REVERT JUMPDEST POP GAS STATICCALL ISZERO DUP1 ISZERO PUSH2 0x1866 JUMPI RETURNDATASIZE PUSH1 0x0 DUP1 RETURNDATACOPY RETURNDATASIZE PUSH1 0x0 REVERT JUMPDEST POP POP POP POP PUSH1 0x40 MLOAD RETURNDATASIZE PUSH1 0x0 DUP3 RETURNDATACOPY PUSH1 0x1F RETURNDATASIZE SWAP1 DUP2 ADD PUSH1 0x1F NOT AND DUP3 ADD PUSH1 0x40 MSTORE PUSH2 0x188E SWAP2 SWAP1 DUP2 ADD SWAP1 PUSH2 0x4D58 JUMP JUMPDEST POP SWAP5 POP POP POP POP SWAP2 POP PUSH1 0x0 DUP3 EQ ISZERO PUSH2 0x18B7 JUMPI PUSH1 0x40 MLOAD PUSH3 0x461BCD PUSH1 0xE5 SHL DUP2 MSTORE PUSH1 0x4 ADD PUSH2 0xC6B SWAP1 PUSH2 0x4F33 JUMP JUMPDEST DUP1 CALLER PUSH3 0xAAE60 PUSH3 0x186A0 PUSH2 0x18CA DUP7 PUSH2 0x2C4C JUMP JUMPDEST DUP6 PUSH1 0x0 SHL SWAP7 POP PUSH2 0x18D8 PUSH2 0x49E1 JUMP JUMPDEST POP PUSH1 0x40 DUP1 MLOAD PUSH1 0x80 DUP2 ADD DUP3 MSTORE PUSH1 0x1 PUSH1 0x1 PUSH1 0xA0 SHL SUB DUP1 DUP8 AND DUP3 MSTORE DUP6 DUP2 AND PUSH1 0x20 DUP1 DUP5 ADD SWAP2 DUP3 MSTORE PUSH4 0xFFFFFFFF DUP1 DUP9 AND DUP6 DUP8 ADD SWAP1 DUP2 MSTORE DUP8 DUP3 AND PUSH1 0x60 DUP8 ADD SWAP1 DUP2 MSTORE PUSH1 0x0 DUP16 DUP2 MSTORE PUSH1 0x9 SWAP1 SWAP5 MSTORE SWAP3 DUP8 SWAP1 KECCAK256 DUP7 MLOAD DUP2 SLOAD SWAP1 DUP8 AND PUSH1 0x1 PUSH1 0x1 PUSH1 0xA0 SHL SUB NOT SWAP2 DUP3 AND OR DUP3 SSTORE SWAP5 MLOAD PUSH1 0x1 SWAP1 SWAP2 ADD DUP1 SLOAD SWAP3 MLOAD SWAP5 MLOAD DUP5 AND PUSH1 0x1 PUSH1 0xC0 SHL MUL PUSH4 0xFFFFFFFF PUSH1 0xC0 SHL NOT SWAP6 SWAP1 SWAP5 AND PUSH1 0x1 PUSH1 0xA0 SHL MUL PUSH4 0xFFFFFFFF PUSH1 0xA0 SHL NOT SWAP3 SWAP1 SWAP8 AND SWAP3 SWAP1 SWAP6 AND SWAP2 SWAP1 SWAP2 OR AND SWAP4 SWAP1 SWAP4 OR AND SWAP2 SWAP1 SWAP2 OR SWAP1 SSTORE SWAP1 MLOAD PUSH32 0xCEC6FC86EA644053F6EDFF1160DFE3FA5C61E7A5EF9F873F145BB03A0BD319E7 SWAP1 PUSH2 0x19B3 SWAP1 DUP11 SWAP1 DUP9 SWAP1 DUP8 SWAP1 PUSH2 0x4E92 JUMP JUMPDEST PUSH1 0x40 MLOAD DUP1 SWAP2 SUB SWAP1 LOG1 PUSH2 0x19C5 DUP9 DUP11 PUSH2 0xBB5 JUMP JUMPDEST POP POP POP POP POP POP POP SWAP2 SWAP1 POP JUMP JUMPDEST PUSH1 0xA PUSH1 0x20 MSTORE PUSH1 0x0 SWAP1 DUP2 MSTORE PUSH1 0x40 SWAP1 KECCAK256 SLOAD DUP2 JUMP JUMPDEST PUSH1 0x16 SLOAD DUP2 JUMP JUMPDEST PUSH1 0x60 PUSH1 0x2 DUP1 SLOAD DUP1 PUSH1 0x20 MUL PUSH1 0x20 ADD PUSH1 0x40 MLOAD SWAP1 DUP2 ADD PUSH1 0x40 MSTORE DUP1 SWAP3 SWAP2 SWAP1 DUP2 DUP2 MSTORE PUSH1 0x20 ADD DUP3 DUP1 SLOAD DUP1 ISZERO PUSH2 0x1A41 JUMPI PUSH1 0x20 MUL DUP3 ADD SWAP2 SWAP1 PUSH1 0x0 MSTORE PUSH1 0x20 PUSH1 0x0 KECCAK256 SWAP1 JUMPDEST DUP2 SLOAD PUSH1 0x1 PUSH1 0x1 PUSH1 0xA0 SHL SUB AND DUP2 MSTORE PUSH1 0x1 SWAP1 SWAP2 ADD SWAP1 PUSH1 0x20 ADD DUP1 DUP4 GT PUSH2 0x1A23 JUMPI JUMPDEST POP POP POP POP POP SWAP1 POP SWAP1 JUMP JUMPDEST PUSH20 0xA33744EE5D57D6D69944213D8E6AD80D64FDC58 SWAP1 JUMP JUMPDEST PUSH1 0x11 SLOAD PUSH4 0xFFFFFFFF AND DUP2 JUMP JUMPDEST PUSH2 0x1A77 PUSH2 0x21C4 JUMP JUMPDEST PUSH2 0x1A7F PUSH2 0x2C77 JUMP JUMPDEST PUSH2 0x1A87 PUSH2 0x2C8A JUMP JUMPDEST JUMP JUMPDEST PUSH2 0x1A91 PUSH2 0x49A0 JUMP JUMPDEST PUSH1 0x1 PUSH1 0x0 MSTORE PUSH1 0x4 PUSH1 0x20 MSTORE PUSH2 0x1AC4 PUSH32 0xABD6E7CB50984FF9C2F3E18A2660C3353DADF4E3291DEEB275DAE2CD1E44FE05 PUSH2 0x2255 JUMP JUMPDEST SWAP1 POP PUSH1 0x0 DUP3 PUSH1 0x1 DUP2 GT ISZERO PUSH2 0x1AD4 JUMPI INVALID JUMPDEST EQ ISZERO PUSH2 0xD79 JUMPI PUSH1 0x0 PUSH2 0x1AE4 PUSH2 0x1A4B JUMP JUMPDEST PUSH1 0x1 PUSH1 0x1 PUSH1 0xA0 SHL SUB AND PUSH4 0x6B6DF5AA PUSH1 0x40 MLOAD DUP2 PUSH4 0xFFFFFFFF AND PUSH1 0xE0 SHL DUP2 MSTORE PUSH1 0x4 ADD PUSH1 0x20 PUSH1 0x40 MLOAD DUP1 DUP4 SUB DUP2 DUP7 DUP1 EXTCODESIZE ISZERO DUP1 ISZERO PUSH2 0x1B1C JUMPI PUSH1 0x0 DUP1 REVERT JUMPDEST POP GAS STATICCALL ISZERO DUP1 ISZERO PUSH2 0x1B30 JUMPI RETURNDATASIZE PUSH1 0x0 DUP1 RETURNDATACOPY RETURNDATASIZE PUSH1 0x0 REVERT JUMPDEST POP POP POP POP PUSH1 0x40 MLOAD RETURNDATASIZE PUSH1 0x1F NOT PUSH1 0x1F DUP3 ADD AND DUP3 ADD DUP1 PUSH1 0x40 MSTORE POP DUP2 ADD SWAP1 PUSH2 0x1B54 SWAP2 SWAP1 PUSH2 0x4D40 JUMP JUMPDEST SWAP1 POP PUSH2 0x1B7E PUSH2 0x1B79 DUP4 PUSH1 0x20 ADD MLOAD PUSH1 0x1 PUSH1 0x1 PUSH1 0x60 SHL SUB AND DUP4 PUSH2 0x2090 SWAP1 SWAP2 SWAP1 PUSH4 0xFFFFFFFF AND JUMP JUMPDEST PUSH2 0x2CB5 JUMP JUMPDEST PUSH1 0x1 PUSH1 0x1 PUSH1 0x60 SHL SUB SWAP1 DUP2 AND PUSH1 0x20 DUP5 ADD MSTORE PUSH1 0x40 DUP4 ADD MLOAD PUSH2 0x1BA3 SWAP2 PUSH2 0x1B79 SWAP2 DUP5 SWAP2 AND PUSH2 0x2090 JUMP JUMPDEST PUSH1 0x1 PUSH1 0x1 PUSH1 0x60 SHL SUB AND PUSH1 0x40 DUP4 ADD MSTORE POP SWAP2 SWAP1 POP JUMP JUMPDEST PUSH1 0x13 SLOAD PUSH5 0x100000000 SWAP1 DIV PUSH4 0xFFFFFFFF AND DUP2 JUMP JUMPDEST PUSH1 0x0 PUSH2 0x1BD5 PUSH2 0x49E1 JUMP JUMPDEST POP PUSH1 0x0 DUP4 DUP2 MSTORE PUSH1 0x9 PUSH1 0x20 SWAP1 DUP2 MSTORE PUSH1 0x40 DUP1 DUP4 KECCAK256 DUP2 MLOAD PUSH1 0x80 DUP2 ADD DUP4 MSTORE DUP2 SLOAD PUSH1 0x1 PUSH1 0x1 PUSH1 0xA0 SHL SUB SWAP1 DUP2 AND DUP3 MSTORE PUSH1 0x1 SWAP1 SWAP3 ADD SLOAD SWAP2 DUP3 AND SWAP4 DUP2 ADD SWAP4 SWAP1 SWAP4 MSTORE PUSH4 0xFFFFFFFF PUSH1 0x1 PUSH1 0xA0 SHL DUP3 DIV DUP2 AND SWAP3 DUP5 ADD SWAP3 SWAP1 SWAP3 MSTORE PUSH1 0x1 PUSH1 0xC0 SHL SWAP1 DIV AND PUSH1 0x60 DUP3 ADD MSTORE SWAP1 DUP1 PUSH2 0x1C3B DUP7 PUSH2 0x2B54 JUMP JUMPDEST SWAP2 POP SWAP2 POP PUSH1 0x0 PUSH2 0x1C50 DUP5 PUSH1 0x40 ADD MLOAD DUP5 DUP5 PUSH2 0x2C11 JUMP JUMPDEST SWAP2 POP POP PUSH2 0x1C5F DUP8 DUP8 DUP4 DUP6 PUSH2 0x2CD4 JUMP JUMPDEST SWAP8 SWAP7 POP POP POP POP POP POP POP JUMP JUMPDEST CALLER PUSH1 0x0 SWAP1 DUP2 MSTORE PUSH1 0xF PUSH1 0x20 MSTORE PUSH1 0x40 SWAP1 KECCAK256 SLOAD PUSH1 0xFF AND PUSH2 0x1C8D JUMPI PUSH2 0x1C8D PUSH2 0x954 CALLER PUSH2 0x2DE0 JUMP JUMPDEST PUSH1 0x1 PUSH1 0x1 PUSH1 0xA0 SHL SUB DUP3 AND PUSH1 0x0 SWAP1 DUP2 MSTORE PUSH1 0x8 PUSH1 0x20 MSTORE PUSH1 0x40 SWAP1 KECCAK256 SLOAD DUP1 PUSH2 0x1CB1 JUMPI POP PUSH2 0x1576 JUMP JUMPDEST PUSH1 0x0 PUSH2 0x1CBC DUP3 PUSH2 0x10D5 JUMP JUMPDEST PUSH1 0x20 ADD MLOAD PUSH1 0x1 PUSH1 0x1 PUSH1 0x60 SHL SUB AND SWAP1 POP PUSH1 0x12 SLOAD DUP2 LT ISZERO PUSH2 0x1CDC JUMPI POP POP PUSH2 0x1576 JUMP JUMPDEST PUSH1 0xB SLOAD PUSH1 0x0 DUP4 DUP2 MSTORE PUSH1 0x14 PUSH1 0x20 SWAP1 DUP2 MSTORE PUSH1 0x40 DUP1 DUP4 KECCAK256 DUP5 DUP5 MSTORE DUP3 MSTORE DUP1 DUP4 KECCAK256 PUSH1 0x15 SWAP1 SWAP3 MSTORE SWAP1 SWAP2 KECCAK256 DUP2 SLOAD DUP1 PUSH2 0x1D7F JUMPI PUSH1 0x0 DUP1 PUSH2 0x1D14 DUP9 DUP9 PUSH2 0x2E28 JUMP JUMPDEST PUSH1 0x2 DUP8 ADD DUP3 SWAP1 SSTORE PUSH1 0x1 DUP8 ADD DUP2 SWAP1 SSTORE PUSH1 0x3 DUP7 ADD SLOAD SWAP2 SWAP4 POP SWAP2 POP PUSH2 0x1D36 SWAP1 DUP3 PUSH2 0x29CA JUMP JUMPDEST PUSH1 0x3 DUP6 ADD SSTORE PUSH1 0x1 DUP1 DUP6 ADD SLOAD PUSH2 0x1D4A SWAP2 PUSH2 0x29CA JUMP JUMPDEST PUSH1 0x1 DUP6 ADD SSTORE PUSH1 0x40 MLOAD DUP9 SWAP1 DUP8 SWAP1 PUSH32 0x14B098103235344975B17508C2391721CC9AC3F3FA2B56C7FF46F8480DFD074F SWAP1 PUSH1 0x0 SWAP1 LOG3 POP POP JUMPDEST DUP1 DUP8 GT ISZERO PUSH2 0x1DAB JUMPI DUP7 DUP4 SSTORE PUSH1 0x2 DUP3 ADD SLOAD PUSH2 0x1DA5 SWAP1 DUP3 SWAP1 PUSH2 0x1D9F SWAP1 DUP11 PUSH2 0x29CA JUMP JUMPDEST SWAP1 PUSH2 0x2090 JUMP JUMPDEST PUSH1 0x2 DUP4 ADD SSTORE JUMPDEST POP POP POP POP POP POP POP POP JUMP JUMPDEST PUSH1 0x3 SLOAD PUSH1 0x1 PUSH1 0x1 PUSH1 0xA0 SHL SUB AND DUP2 JUMP JUMPDEST PUSH20 0x4FBB350052BCA5417566F188EB2EBCE5B19BC964 SWAP1 JUMP JUMPDEST PUSH2 0x1DE4 PUSH2 0x49A0 JUMP JUMPDEST PUSH1 0x1 PUSH1 0x1 PUSH1 0xA0 SHL SUB DUP4 AND PUSH1 0x0 SWAP1 DUP2 MSTORE PUSH1 0x6 PUSH1 0x20 SWAP1 DUP2 MSTORE PUSH1 0x40 DUP1 DUP4 KECCAK256 DUP6 DUP5 MSTORE SWAP1 SWAP2 MSTORE SWAP1 KECCAK256 PUSH2 0x1151 SWAP1 PUSH2 0x2255 JUMP JUMPDEST PUSH2 0x1E18 PUSH2 0x23D2 JUMP JUMPDEST PUSH1 0x1 PUSH1 0x1 PUSH1 0xA0 SHL SUB DUP2 AND PUSH2 0x1E36 JUMPI PUSH2 0x1E31 PUSH2 0x954 PUSH2 0x2E96 JUMP JUMPDEST PUSH2 0x1105 JUMP JUMPDEST PUSH1 0x0 DUP1 SLOAD PUSH1 0x1 PUSH1 0x1 PUSH1 0xA0 SHL SUB NOT AND PUSH1 0x1 PUSH1 0x1 PUSH1 0xA0 SHL SUB DUP4 AND SWAP1 DUP2 OR DUP3 SSTORE PUSH1 0x40 MLOAD SWAP1 SWAP2 CALLER SWAP2 PUSH32 0x8BE0079C531659141344CD1FD0A4F28419497F9722A3DAAFE3B4186F6B6457E0 SWAP2 SWAP1 LOG3 POP JUMP JUMPDEST PUSH1 0xB SLOAD PUSH1 0x0 PUSH2 0x1E91 DUP3 PUSH1 0x1 PUSH2 0x2090 JUMP JUMPDEST SWAP1 POP PUSH2 0x1E9B PUSH2 0x4971 JUMP JUMPDEST POP PUSH1 0x0 DUP2 DUP2 MSTORE PUSH1 0x15 PUSH1 0x20 SWAP1 DUP2 MSTORE PUSH1 0x40 SWAP2 DUP3 SWAP1 KECCAK256 DUP3 MLOAD PUSH1 0xA0 DUP2 ADD DUP5 MSTORE DUP2 SLOAD DUP2 MSTORE PUSH1 0x1 DUP3 ADD SLOAD SWAP3 DUP2 ADD DUP4 SWAP1 MSTORE PUSH1 0x2 DUP3 ADD SLOAD SWAP4 DUP2 ADD SWAP4 SWAP1 SWAP4 MSTORE PUSH1 0x3 DUP2 ADD SLOAD PUSH1 0x60 DUP5 ADD MSTORE PUSH1 0x4 ADD SLOAD PUSH1 0x80 DUP4 ADD MSTORE PUSH2 0x1EF0 JUMPI POP POP POP PUSH2 0x1105 JUMP JUMPDEST PUSH2 0x1EF8 PUSH2 0x49C0 JUMP JUMPDEST POP PUSH1 0x0 DUP5 DUP2 MSTORE PUSH1 0x14 PUSH1 0x20 SWAP1 DUP2 MSTORE PUSH1 0x40 DUP1 DUP4 KECCAK256 DUP6 DUP5 MSTORE DUP3 MSTORE SWAP2 DUP3 SWAP1 KECCAK256 DUP3 MLOAD PUSH1 0x60 DUP2 ADD DUP5 MSTORE DUP2 SLOAD DUP1 DUP3 MSTORE PUSH1 0x1 DUP4 ADD SLOAD SWAP4 DUP3 ADD SWAP4 SWAP1 SWAP4 MSTORE PUSH1 0x2 SWAP1 SWAP2 ADD SLOAD SWAP3 DUP2 ADD SWAP3 SWAP1 SWAP3 MSTORE PUSH2 0x1F46 JUMPI POP POP POP POP PUSH2 0x1105 JUMP JUMPDEST PUSH1 0x0 DUP6 DUP2 MSTORE PUSH1 0x14 PUSH1 0x20 SWAP1 DUP2 MSTORE PUSH1 0x40 DUP1 DUP4 KECCAK256 DUP7 DUP5 MSTORE SWAP1 SWAP2 MSTORE DUP2 KECCAK256 DUP2 DUP2 SSTORE PUSH1 0x1 DUP2 ADD DUP3 SWAP1 SSTORE PUSH1 0x2 ADD DUP2 SWAP1 SSTORE PUSH2 0x1F79 DUP3 DUP5 PUSH2 0x2EB4 JUMP JUMPDEST SWAP1 POP PUSH1 0x0 DUP1 PUSH2 0x1F8D DUP9 DUP5 DUP7 PUSH1 0x40 ADD MLOAD PUSH2 0x2F23 JUMP JUMPDEST SWAP2 POP SWAP2 POP DUP8 DUP8 PUSH32 0xF1116B309178AA62DCB6BF8C3B8BC2321724907C7EBF52192D14C8CE3AA9194C DUP5 DUP5 PUSH1 0x40 MLOAD PUSH2 0x1FC4 SWAP3 SWAP2 SWAP1 PUSH2 0x4EB7 JUMP JUMPDEST PUSH1 0x40 MLOAD DUP1 SWAP2 SUB SWAP1 LOG3 PUSH1 0x0 PUSH2 0x1FD8 DUP4 DUP4 PUSH2 0x29CA JUMP JUMPDEST PUSH1 0x80 DUP8 ADD MLOAD SWAP1 SWAP2 POP PUSH2 0x1FEA SWAP1 DUP3 PUSH2 0x29CA JUMP JUMPDEST PUSH1 0x80 DUP8 ADD DUP2 SWAP1 MSTORE PUSH1 0x0 DUP9 DUP2 MSTORE PUSH1 0x15 PUSH1 0x20 SWAP1 DUP2 MSTORE PUSH1 0x40 SWAP1 SWAP2 KECCAK256 PUSH1 0x4 ADD SWAP2 SWAP1 SWAP2 SSTORE DUP7 ADD MLOAD PUSH2 0x2017 SWAP1 PUSH1 0x1 PUSH2 0x2090 JUMP JUMPDEST PUSH1 0x20 DUP1 DUP9 ADD DUP3 DUP2 MSTORE PUSH1 0x0 DUP11 DUP2 MSTORE PUSH1 0x15 SWAP1 SWAP3 MSTORE PUSH1 0x40 SWAP1 SWAP2 KECCAK256 PUSH1 0x1 ADD SWAP2 SWAP1 SWAP2 SSTORE MLOAD PUSH2 0x1621 JUMPI PUSH1 0x80 DUP7 ADD MLOAD DUP7 MLOAD DUP9 SWAP2 PUSH32 0xB463D19ECF455BE65365092CF8E1DB6934A0334CF8CD532DDF9964D01F36B5B2 SWAP2 PUSH2 0x206F SWAP1 DUP3 PUSH2 0x2090 JUMP JUMPDEST PUSH1 0x40 MLOAD PUSH2 0x207D SWAP3 SWAP2 SWAP1 PUSH2 0x4EB7 JUMP JUMPDEST PUSH1 0x40 MLOAD DUP1 SWAP2 SUB SWAP1 LOG2 POP POP POP POP POP POP POP POP POP JUMP JUMPDEST PUSH1 0x0 DUP3 DUP3 GT ISZERO PUSH2 0x20A9 JUMPI PUSH2 0x20A9 PUSH2 0x954 PUSH1 0x2 DUP6 DUP6 PUSH2 0x31D7 JUMP JUMPDEST POP SWAP1 SUB SWAP1 JUMP JUMPDEST PUSH1 0x40 DUP1 MLOAD PUSH1 0x24 DUP2 ADD DUP5 SWAP1 MSTORE PUSH1 0x44 DUP1 DUP3 ADD DUP5 SWAP1 MSTORE DUP3 MLOAD DUP1 DUP4 SUB SWAP1 SWAP2 ADD DUP2 MSTORE PUSH1 0x64 SWAP1 SWAP2 ADD SWAP1 SWAP2 MSTORE PUSH1 0x20 DUP2 ADD DUP1 MLOAD PUSH1 0x1 PUSH1 0x1 PUSH1 0xE0 SHL SUB AND PUSH4 0x30A5C005 PUSH1 0xE1 SHL OR SWAP1 MSTORE SWAP3 SWAP2 POP POP JUMP JUMPDEST DUP1 MLOAD PUSH1 0x20 DUP3 ADD REVERT JUMPDEST PUSH1 0x0 PUSH2 0x1739 PUSH1 0x16 SLOAD PUSH2 0x210C PUSH2 0x1DC4 JUMP JUMPDEST PUSH1 0x1 PUSH1 0x1 PUSH1 0xA0 SHL SUB AND PUSH4 0x70A08231 ADDRESS PUSH1 0x40 MLOAD DUP3 PUSH4 0xFFFFFFFF AND PUSH1 0xE0 SHL DUP2 MSTORE PUSH1 0x4 ADD PUSH2 0x2137 SWAP2 SWAP1 PUSH2 0x4E04 JUMP JUMPDEST PUSH1 0x20 PUSH1 0x40 MLOAD DUP1 DUP4 SUB DUP2 DUP7 DUP1 EXTCODESIZE ISZERO DUP1 ISZERO PUSH2 0x214F JUMPI PUSH1 0x0 DUP1 REVERT JUMPDEST POP GAS STATICCALL ISZERO DUP1 ISZERO PUSH2 0x2163 JUMPI RETURNDATASIZE PUSH1 0x0 DUP1 RETURNDATACOPY RETURNDATASIZE PUSH1 0x0 REVERT JUMPDEST POP POP POP POP PUSH1 0x40 MLOAD RETURNDATASIZE PUSH1 0x1F NOT PUSH1 0x1F DUP3 ADD AND DUP3 ADD DUP1 PUSH1 0x40 MSTORE POP DUP2 ADD SWAP1 PUSH2 0x1D9F SWAP2 SWAP1 PUSH2 0x4D40 JUMP JUMPDEST TIMESTAMP PUSH1 0x0 PUSH2 0x2192 PUSH2 0x1720 JUMP JUMPDEST SWAP1 POP DUP2 DUP2 GT ISZERO PUSH2 0x21A9 JUMPI PUSH2 0x21A9 PUSH2 0x954 DUP3 DUP5 PUSH2 0x3249 JUMP JUMPDEST PUSH1 0xB SLOAD PUSH1 0x0 SWAP1 PUSH2 0x21BA SWAP1 PUSH1 0x1 PUSH2 0x29CA JUMP JUMPDEST PUSH1 0xB SSTORE POP POP PUSH1 0xC SSTORE JUMP JUMPDEST CALLER PUSH1 0x0 SWAP1 DUP2 MSTORE PUSH1 0x1 PUSH1 0x20 MSTORE PUSH1 0x40 SWAP1 KECCAK256 SLOAD PUSH1 0xFF AND PUSH2 0x1A87 JUMPI PUSH2 0x1A87 PUSH2 0x954 CALLER PUSH2 0x328E JUMP JUMPDEST PUSH1 0x60 PUSH4 0xB9588E43 PUSH1 0xE0 SHL DUP4 DUP4 PUSH1 0x40 MLOAD PUSH1 0x24 ADD DUP1 DUP4 PUSH1 0x1 DUP2 GT ISZERO PUSH2 0x2206 JUMPI INVALID JUMPDEST DUP2 MSTORE PUSH1 0x1 PUSH1 0x1 PUSH1 0xA0 SHL SUB SWAP1 SWAP3 AND PUSH1 0x20 DUP1 DUP5 ADD SWAP2 SWAP1 SWAP2 MSTORE PUSH1 0x40 DUP1 MLOAD DUP1 DUP6 SUB DUP4 ADD DUP2 MSTORE SWAP4 DUP2 ADD SWAP1 MSTORE DUP3 ADD DUP1 MLOAD PUSH1 0x1 PUSH1 0x1 PUSH1 0xE0 SHL SUB AND PUSH1 0x1 PUSH1 0x1 PUSH1 0xE0 SHL SUB NOT SWAP1 SWAP6 AND SWAP5 SWAP1 SWAP5 OR SWAP1 SWAP4 MSTORE SWAP6 SWAP5 POP POP POP POP POP JUMP JUMPDEST PUSH2 0x225D PUSH2 0x49A0 JUMP JUMPDEST POP PUSH1 0x40 DUP1 MLOAD PUSH1 0x60 DUP2 ADD DUP3 MSTORE DUP3 SLOAD PUSH1 0x1 PUSH1 0x1 PUSH1 0x40 SHL SUB DUP2 AND DUP1 DUP4 MSTORE PUSH1 0x1 PUSH1 0x1 PUSH1 0x60 SHL SUB PUSH1 0x1 PUSH1 0x40 SHL DUP4 DIV DUP2 AND PUSH1 0x20 DUP6 ADD MSTORE PUSH1 0x1 PUSH1 0xA0 SHL SWAP1 SWAP3 DIV SWAP1 SWAP2 AND SWAP3 DUP3 ADD SWAP3 SWAP1 SWAP3 MSTORE PUSH1 0xB SLOAD SWAP1 SWAP2 DUP2 GT ISZERO PUSH2 0x22D3 JUMPI PUSH2 0x22B4 DUP2 PUSH2 0x32D6 JUMP JUMPDEST PUSH1 0x1 PUSH1 0x1 PUSH1 0x40 SHL SUB AND DUP3 MSTORE PUSH1 0x40 DUP3 ADD MLOAD PUSH1 0x1 PUSH1 0x1 PUSH1 0x60 SHL SUB AND PUSH1 0x20 DUP4 ADD MSTORE JUMPDEST POP SWAP2 SWAP1 POP JUMP JUMPDEST PUSH1 0x0 DUP2 DUP4 LT PUSH2 0x22E8 JUMPI DUP2 PUSH2 0x1151 JUMP JUMPDEST POP SWAP1 SWAP2 SWAP1 POP JUMP JUMPDEST PUSH1 0x40 DUP1 MLOAD PUSH1 0x24 DUP2 ADD DUP5 SWAP1 MSTORE PUSH1 0x44 DUP1 DUP3 ADD DUP5 SWAP1 MSTORE DUP3 MLOAD DUP1 DUP4 SUB SWAP1 SWAP2 ADD DUP2 MSTORE PUSH1 0x64 SWAP1 SWAP2 ADD SWAP1 SWAP2 MSTORE PUSH1 0x20 DUP2 ADD DUP1 MLOAD PUSH1 0x1 PUSH1 0x1 PUSH1 0xE0 SHL SUB AND PUSH4 0x84C8B7C9 PUSH1 0xE0 SHL OR SWAP1 MSTORE SWAP3 SWAP2 POP POP JUMP JUMPDEST PUSH2 0x233C PUSH2 0x49A0 JUMP JUMPDEST PUSH2 0x2345 DUP4 PUSH2 0x2255 JUMP JUMPDEST SWAP1 POP PUSH2 0x236A PUSH2 0x1B79 DUP4 DUP4 PUSH1 0x40 ADD MLOAD PUSH1 0x1 PUSH1 0x1 PUSH1 0x60 SHL SUB AND PUSH2 0x2090 SWAP1 SWAP2 SWAP1 PUSH4 0xFFFFFFFF AND JUMP JUMPDEST PUSH1 0x1 PUSH1 0x1 PUSH1 0x60 SHL SUB SWAP1 DUP2 AND PUSH1 0x40 DUP4 ADD MSTORE PUSH1 0x20 DUP3 ADD MLOAD PUSH2 0x238E SWAP2 PUSH2 0x1B79 SWAP2 AND DUP5 PUSH2 0x2090 JUMP JUMPDEST PUSH1 0x1 PUSH1 0x1 PUSH1 0x60 SHL SUB AND PUSH1 0x20 DUP3 ADD MSTORE PUSH2 0x10D0 DUP4 DUP3 PUSH2 0x32F5 JUMP JUMPDEST PUSH1 0x0 DUP2 DUP2 MSTORE PUSH1 0x9 PUSH1 0x20 MSTORE PUSH1 0x40 SWAP1 KECCAK256 SLOAD PUSH1 0x1 PUSH1 0x1 PUSH1 0xA0 SHL SUB AND CALLER DUP2 EQ PUSH2 0x1576 JUMPI PUSH2 0x1576 PUSH2 0x954 CALLER DUP5 PUSH2 0x335F JUMP JUMPDEST PUSH1 0x0 SLOAD PUSH1 0x1 PUSH1 0x1 PUSH1 0xA0 SHL SUB AND CALLER EQ PUSH2 0x1A87 JUMPI PUSH1 0x0 SLOAD PUSH2 0x1A87 SWAP1 PUSH2 0x954 SWAP1 CALLER SWAP1 PUSH1 0x1 PUSH1 0x1 PUSH1 0xA0 SHL SUB AND PUSH2 0x33AC JUMP JUMPDEST PUSH1 0x1 PUSH1 0x1 PUSH1 0xA0 SHL SUB DUP2 AND PUSH2 0x2418 JUMPI PUSH2 0x2418 PUSH2 0x954 PUSH2 0x33FD JUMP JUMPDEST PUSH1 0x1 PUSH1 0x1 PUSH1 0xA0 SHL SUB DUP2 AND PUSH1 0x0 SWAP1 DUP2 MSTORE PUSH1 0x1 PUSH1 0x20 MSTORE PUSH1 0x40 SWAP1 KECCAK256 SLOAD PUSH1 0xFF AND ISZERO PUSH2 0x2445 JUMPI PUSH2 0x2445 PUSH2 0x954 DUP3 PUSH2 0x341B JUMP JUMPDEST PUSH1 0x1 PUSH1 0x1 PUSH1 0xA0 SHL SUB DUP2 AND PUSH1 0x0 DUP2 DUP2 MSTORE PUSH1 0x1 PUSH1 0x20 DUP2 SWAP1 MSTORE PUSH1 0x40 DUP1 DUP4 KECCAK256 DUP1 SLOAD PUSH1 0xFF NOT AND DUP4 OR SWAP1 SSTORE PUSH1 0x2 DUP1 SLOAD SWAP3 DUP4 ADD DUP2 SSTORE DUP4 MSTORE PUSH32 0x405787FA12A823E0F2B7631CC41B3BA8828B3321CA811111FA75CD3AA3BB5ACE SWAP1 SWAP2 ADD DUP1 SLOAD PUSH1 0x1 PUSH1 0x1 PUSH1 0xA0 SHL SUB NOT AND DUP5 OR SWAP1 SSTORE MLOAD CALLER SWAP3 SWAP2 PUSH32 0x3147867C59D17E8FA9D522465651D44AAE0A9E38F902F3475B97E58072F0ED4C SWAP2 LOG3 POP JUMP JUMPDEST PUSH2 0x24DC DUP4 PUSH2 0x3463 JUMP JUMPDEST PUSH2 0x24E6 DUP4 DUP4 PUSH2 0x29E6 JUMP JUMPDEST PUSH1 0x1 PUSH1 0x1 PUSH1 0xA0 SHL SUB DUP3 AND PUSH1 0x0 SWAP1 DUP2 MSTORE PUSH1 0x6 PUSH1 0x20 SWAP1 DUP2 MSTORE PUSH1 0x40 DUP1 DUP4 KECCAK256 DUP7 DUP5 MSTORE SWAP1 SWAP2 MSTORE SWAP1 KECCAK256 PUSH2 0x2513 SWAP1 DUP3 PUSH2 0x348D JUMP JUMPDEST PUSH1 0x0 DUP4 DUP2 MSTORE PUSH1 0x7 PUSH1 0x20 MSTORE PUSH1 0x40 SWAP1 KECCAK256 PUSH2 0x252B SWAP1 DUP3 PUSH2 0x348D JUMP JUMPDEST PUSH1 0x1 PUSH1 0x0 MSTORE PUSH1 0x4 PUSH1 0x20 MSTORE PUSH2 0x10D0 PUSH32 0xABD6E7CB50984FF9C2F3E18A2660C3353DADF4E3291DEEB275DAE2CD1E44FE05 DUP3 PUSH2 0x348D JUMP JUMPDEST PUSH2 0x2568 DUP4 PUSH2 0x3463 JUMP JUMPDEST PUSH2 0x2572 DUP4 DUP4 PUSH2 0x29E6 JUMP JUMPDEST PUSH1 0x1 PUSH1 0x1 PUSH1 0xA0 SHL SUB DUP3 AND PUSH1 0x0 SWAP1 DUP2 MSTORE PUSH1 0x6 PUSH1 0x20 SWAP1 DUP2 MSTORE PUSH1 0x40 DUP1 DUP4 KECCAK256 DUP7 DUP5 MSTORE SWAP1 SWAP2 MSTORE SWAP1 KECCAK256 PUSH2 0x259F SWAP1 DUP3 PUSH2 0x34DB JUMP JUMPDEST PUSH1 0x0 DUP4 DUP2 MSTORE PUSH1 0x7 PUSH1 0x20 MSTORE PUSH1 0x40 SWAP1 KECCAK256 PUSH2 0x25B7 SWAP1 DUP3 PUSH2 0x34DB JUMP JUMPDEST PUSH1 0x1 PUSH1 0x0 MSTORE PUSH1 0x4 PUSH1 0x20 MSTORE PUSH2 0x10D0 PUSH32 0xABD6E7CB50984FF9C2F3E18A2660C3353DADF4E3291DEEB275DAE2CD1E44FE05 DUP3 PUSH2 0x34DB JUMP JUMPDEST PUSH2 0x25F5 DUP4 DUP4 PUSH2 0x3511 JUMP JUMPDEST ISZERO PUSH2 0x25FF JUMPI PUSH2 0x10D0 JUMP JUMPDEST PUSH2 0x2607 PUSH2 0x49A0 JUMP JUMPDEST PUSH2 0x2610 DUP5 PUSH2 0x2255 JUMP JUMPDEST SWAP1 POP PUSH2 0x261A PUSH2 0x49A0 JUMP JUMPDEST PUSH2 0x2623 DUP5 PUSH2 0x2255 JUMP JUMPDEST SWAP1 POP DUP2 PUSH1 0x40 ADD MLOAD PUSH1 0x1 PUSH1 0x1 PUSH1 0x60 SHL SUB AND DUP4 GT ISZERO PUSH2 0x2654 JUMPI PUSH2 0x2654 PUSH2 0x954 DUP5 DUP5 PUSH1 0x40 ADD MLOAD PUSH1 0x1 PUSH1 0x1 PUSH1 0x60 SHL SUB AND PUSH2 0x22EF JUMP JUMPDEST PUSH1 0x40 DUP3 ADD MLOAD PUSH2 0x2670 SWAP1 PUSH2 0x1B79 SWAP1 PUSH1 0x1 PUSH1 0x1 PUSH1 0x60 SHL SUB AND DUP6 PUSH2 0x2090 JUMP JUMPDEST PUSH1 0x1 PUSH1 0x1 PUSH1 0x60 SHL SUB SWAP1 DUP2 AND PUSH1 0x40 DUP1 DUP6 ADD SWAP2 SWAP1 SWAP2 MSTORE DUP3 ADD MLOAD PUSH2 0x2696 SWAP2 PUSH2 0x1B79 SWAP2 AND DUP6 PUSH2 0x29CA JUMP JUMPDEST PUSH1 0x1 PUSH1 0x1 PUSH1 0x60 SHL SUB AND PUSH1 0x40 DUP3 ADD MSTORE PUSH2 0x26AE DUP6 DUP4 PUSH2 0x32F5 JUMP JUMPDEST PUSH2 0x26B8 DUP5 DUP3 PUSH2 0x32F5 JUMP JUMPDEST POP POP POP POP POP JUMP JUMPDEST PUSH3 0xF4240 PUSH4 0xFFFFFFFF DUP3 AND GT ISZERO PUSH2 0x26E4 JUMPI PUSH2 0x26DF PUSH2 0x954 PUSH1 0x0 DUP6 DUP5 PUSH2 0x3518 JUMP JUMPDEST PUSH2 0x10D0 JUMP JUMPDEST DUP2 PUSH4 0xFFFFFFFF AND DUP2 PUSH4 0xFFFFFFFF AND GT ISZERO PUSH2 0x10D0 JUMPI PUSH2 0x10D0 PUSH2 0x954 PUSH1 0x1 DUP6 DUP5 PUSH2 0x3518 JUMP JUMPDEST PUSH1 0x40 DUP1 MLOAD PUSH1 0x1 PUSH1 0x1 PUSH1 0xA0 SHL SUB DUP4 AND PUSH1 0x24 DUP1 DUP4 ADD SWAP2 SWAP1 SWAP2 MSTORE DUP3 MLOAD DUP1 DUP4 SUB SWAP1 SWAP2 ADD DUP2 MSTORE PUSH1 0x44 SWAP1 SWAP2 ADD SWAP1 SWAP2 MSTORE PUSH1 0x20 DUP2 ADD DUP1 MLOAD PUSH1 0x1 PUSH1 0x1 PUSH1 0xE0 SHL SUB AND PUSH4 0x75A88451 PUSH1 0xE1 SHL OR SWAP1 MSTORE SWAP2 SWAP1 POP JUMP JUMPDEST PUSH1 0x1 PUSH1 0x1 PUSH1 0xA0 SHL SUB DUP3 AND PUSH1 0x0 SWAP1 DUP2 MSTORE PUSH1 0x1 PUSH1 0x20 MSTORE PUSH1 0x40 SWAP1 KECCAK256 SLOAD PUSH1 0xFF AND PUSH2 0x277B JUMPI PUSH2 0x277B PUSH2 0x954 DUP4 PUSH2 0x2707 JUMP JUMPDEST PUSH1 0x2 SLOAD DUP2 LT PUSH2 0x2796 JUMPI PUSH2 0x2796 PUSH2 0x954 DUP3 PUSH1 0x2 DUP1 SLOAD SWAP1 POP PUSH2 0x3590 JUMP JUMPDEST DUP2 PUSH1 0x1 PUSH1 0x1 PUSH1 0xA0 SHL SUB AND PUSH1 0x2 DUP3 DUP2 SLOAD DUP2 LT PUSH2 0x27AD JUMPI INVALID JUMPDEST PUSH1 0x0 SWAP2 DUP3 MSTORE PUSH1 0x20 SWAP1 SWAP2 KECCAK256 ADD SLOAD PUSH1 0x1 PUSH1 0x1 PUSH1 0xA0 SHL SUB AND EQ PUSH2 0x27F5 JUMPI PUSH2 0x27F5 PUSH2 0x954 PUSH1 0x2 DUP4 DUP2 SLOAD DUP2 LT PUSH2 0x27DA JUMPI INVALID JUMPDEST PUSH1 0x0 SWAP2 DUP3 MSTORE PUSH1 0x20 SWAP1 SWAP2 KECCAK256 ADD SLOAD PUSH1 0x1 PUSH1 0x1 PUSH1 0xA0 SHL SUB AND DUP5 PUSH2 0x35D5 JUMP JUMPDEST PUSH1 0x1 PUSH1 0x1 PUSH1 0xA0 SHL SUB DUP3 AND PUSH1 0x0 SWAP1 DUP2 MSTORE PUSH1 0x1 PUSH1 0x20 MSTORE PUSH1 0x40 SWAP1 KECCAK256 DUP1 SLOAD PUSH1 0xFF NOT AND SWAP1 SSTORE PUSH1 0x2 DUP1 SLOAD PUSH1 0x0 NOT DUP2 ADD SWAP1 DUP2 LT PUSH2 0x2827 JUMPI INVALID JUMPDEST PUSH1 0x0 SWAP2 DUP3 MSTORE PUSH1 0x20 SWAP1 SWAP2 KECCAK256 ADD SLOAD PUSH1 0x2 DUP1 SLOAD PUSH1 0x1 PUSH1 0x1 PUSH1 0xA0 SHL SUB SWAP1 SWAP3 AND SWAP2 DUP4 SWAP1 DUP2 LT PUSH2 0x284D JUMPI INVALID JUMPDEST SWAP1 PUSH1 0x0 MSTORE PUSH1 0x20 PUSH1 0x0 KECCAK256 ADD PUSH1 0x0 PUSH2 0x100 EXP DUP2 SLOAD DUP2 PUSH1 0x1 PUSH1 0x1 PUSH1 0xA0 SHL SUB MUL NOT AND SWAP1 DUP4 PUSH1 0x1 PUSH1 0x1 PUSH1 0xA0 SHL SUB AND MUL OR SWAP1 SSTORE POP PUSH1 0x2 DUP1 SLOAD DUP1 PUSH2 0x2886 JUMPI INVALID JUMPDEST PUSH1 0x0 DUP3 DUP2 MSTORE PUSH1 0x20 DUP2 KECCAK256 DUP3 ADD PUSH1 0x0 NOT SWAP1 DUP2 ADD DUP1 SLOAD PUSH1 0x1 PUSH1 0x1 PUSH1 0xA0 SHL SUB NOT AND SWAP1 SSTORE SWAP1 SWAP2 ADD SWAP1 SWAP2 SSTORE PUSH1 0x40 MLOAD CALLER SWAP2 PUSH1 0x1 PUSH1 0x1 PUSH1 0xA0 SHL SUB DUP6 AND SWAP2 PUSH32 0x1F32C1B084E2DE0713B8FB16BD46BB9DF710A3DBEAE2F3CA93AF46E016DCC6B0 SWAP2 SWAP1 LOG3 POP POP JUMP JUMPDEST PUSH1 0x10 DUP6 SWAP1 SSTORE PUSH1 0x11 DUP1 SLOAD PUSH4 0xFFFFFFFF DUP1 DUP8 AND PUSH4 0xFFFFFFFF NOT SWAP3 DUP4 AND OR SWAP1 SWAP3 SSTORE PUSH1 0x12 DUP6 SWAP1 SSTORE PUSH1 0x13 DUP1 SLOAD DUP5 DUP5 AND PUSH5 0x100000000 MUL PUSH8 0xFFFFFFFF00000000 NOT SWAP5 DUP8 AND SWAP2 SWAP1 SWAP4 AND OR SWAP3 SWAP1 SWAP3 AND OR SWAP1 SSTORE PUSH1 0x40 MLOAD PUSH32 0x613157DBB0E920DEAB8AD6DDD3805E87CBF57344B9FE780F1764790EC7897542 SWAP1 PUSH2 0x2965 SWAP1 DUP8 SWAP1 DUP8 SWAP1 DUP8 SWAP1 DUP8 SWAP1 DUP8 SWAP1 PUSH2 0x508A JUMP JUMPDEST PUSH1 0x40 MLOAD DUP1 SWAP2 SUB SWAP1 LOG1 POP POP POP POP POP JUMP JUMPDEST PUSH2 0x297C PUSH2 0x49A0 JUMP JUMPDEST PUSH2 0x2985 DUP4 PUSH2 0x2255 JUMP JUMPDEST SWAP1 POP PUSH2 0x29AA PUSH2 0x1B79 DUP4 DUP4 PUSH1 0x40 ADD MLOAD PUSH1 0x1 PUSH1 0x1 PUSH1 0x60 SHL SUB AND PUSH2 0x29CA SWAP1 SWAP2 SWAP1 PUSH4 0xFFFFFFFF AND JUMP JUMPDEST PUSH1 0x1 PUSH1 0x1 PUSH1 0x60 SHL SUB SWAP1 DUP2 AND PUSH1 0x40 DUP4 ADD MSTORE PUSH1 0x20 DUP3 ADD MLOAD PUSH2 0x238E SWAP2 PUSH2 0x1B79 SWAP2 AND DUP5 JUMPDEST PUSH1 0x0 DUP3 DUP3 ADD DUP4 DUP2 LT ISZERO PUSH2 0x1151 JUMPI PUSH2 0x1151 PUSH2 0x954 PUSH1 0x0 DUP7 DUP7 PUSH2 0x31D7 JUMP JUMPDEST PUSH2 0x29EF DUP3 PUSH2 0x3626 JUMP JUMPDEST PUSH1 0x0 PUSH2 0x29FE DUP4 DUP4 PUSH1 0x0 DUP1 PUSH2 0x2CD4 JUMP JUMPDEST PUSH1 0x1 PUSH1 0x1 PUSH1 0xA0 SHL SUB DUP4 AND PUSH1 0x0 SWAP1 DUP2 MSTORE PUSH1 0x6 PUSH1 0x20 SWAP1 DUP2 MSTORE PUSH1 0x40 DUP1 DUP4 KECCAK256 DUP8 DUP5 MSTORE SWAP1 SWAP2 MSTORE SWAP1 KECCAK256 SWAP1 SWAP2 POP PUSH2 0x2A2D SWAP1 PUSH2 0x2255 JUMP JUMPDEST PUSH1 0x1 PUSH1 0x1 PUSH1 0xA0 SHL SUB DUP4 DUP2 AND PUSH1 0x0 SWAP1 DUP2 MSTORE PUSH1 0x6 PUSH1 0x20 SWAP1 DUP2 MSTORE PUSH1 0x40 DUP1 DUP4 KECCAK256 DUP9 DUP5 MSTORE DUP3 MSTORE SWAP2 DUP3 SWAP1 KECCAK256 DUP5 MLOAD DUP2 SLOAD SWAP3 DUP7 ADD MLOAD SWAP6 SWAP1 SWAP4 ADD MLOAD PUSH8 0xFFFFFFFFFFFFFFFF NOT SWAP1 SWAP3 AND PUSH1 0x1 PUSH1 0x1 PUSH1 0x40 SHL SUB SWAP1 SWAP4 AND SWAP3 SWAP1 SWAP3 OR PUSH12 0xFFFFFFFFFFFFFFFFFFFFFFFF PUSH1 0x40 SHL NOT AND PUSH1 0x1 PUSH1 0x40 SHL PUSH1 0x1 PUSH1 0x1 PUSH1 0x60 SHL SUB SWAP6 DUP7 AND MUL OR SWAP1 SWAP3 AND PUSH1 0x1 PUSH1 0xA0 SHL SWAP4 SWAP1 SWAP3 AND SWAP3 SWAP1 SWAP3 MUL OR SWAP1 SSTORE DUP1 ISZERO PUSH2 0x2B4B JUMPI PUSH2 0x2AC2 DUP4 DUP3 PUSH2 0x3694 JUMP JUMPDEST PUSH2 0x2ACA PUSH2 0x1DC4 JUMP JUMPDEST PUSH1 0x1 PUSH1 0x1 PUSH1 0xA0 SHL SUB AND PUSH4 0xA9059CBB DUP4 DUP4 PUSH1 0x40 MLOAD DUP4 PUSH4 0xFFFFFFFF AND PUSH1 0xE0 SHL DUP2 MSTORE PUSH1 0x4 ADD PUSH2 0x2AF7 SWAP3 SWAP2 SWAP1 PUSH2 0x4E18 JUMP JUMPDEST PUSH1 0x20 PUSH1 0x40 MLOAD DUP1 DUP4 SUB DUP2 PUSH1 0x0 DUP8 DUP1 EXTCODESIZE ISZERO DUP1 ISZERO PUSH2 0x2B11 JUMPI PUSH1 0x0 DUP1 REVERT JUMPDEST POP GAS CALL ISZERO DUP1 ISZERO PUSH2 0x2B25 JUMPI RETURNDATASIZE PUSH1 0x0 DUP1 RETURNDATACOPY RETURNDATASIZE PUSH1 0x0 REVERT JUMPDEST POP POP POP POP PUSH1 0x40 MLOAD RETURNDATASIZE PUSH1 0x1F NOT PUSH1 0x1F DUP3 ADD AND DUP3 ADD DUP1 PUSH1 0x40 MSTORE POP DUP2 ADD SWAP1 PUSH2 0x2B49 SWAP2 SWAP1 PUSH2 0x4C3F JUMP JUMPDEST POP JUMPDEST PUSH2 0x10D0 DUP4 PUSH2 0x36D0 JUMP JUMPDEST PUSH1 0x0 DUP1 PUSH1 0x0 PUSH2 0x2B6F PUSH1 0x1 PUSH1 0xB SLOAD PUSH2 0x2090 SWAP1 SWAP2 SWAP1 PUSH4 0xFFFFFFFF AND JUMP JUMPDEST SWAP1 POP PUSH2 0x2B79 PUSH2 0x49C0 JUMP JUMPDEST POP PUSH1 0x0 DUP5 DUP2 MSTORE PUSH1 0x14 PUSH1 0x20 SWAP1 DUP2 MSTORE PUSH1 0x40 DUP1 DUP4 KECCAK256 DUP5 DUP5 MSTORE DUP3 MSTORE DUP1 DUP4 KECCAK256 DUP2 MLOAD PUSH1 0x60 DUP1 DUP3 ADD DUP5 MSTORE DUP3 SLOAD DUP3 MSTORE PUSH1 0x1 DUP1 DUP5 ADD SLOAD DUP4 DUP8 ADD MSTORE PUSH1 0x2 SWAP4 DUP5 ADD SLOAD DUP4 DUP7 ADD MSTORE DUP8 DUP8 MSTORE PUSH1 0x15 DUP7 MSTORE SWAP6 DUP5 SWAP1 KECCAK256 DUP5 MLOAD PUSH1 0xA0 DUP2 ADD DUP7 MSTORE DUP2 SLOAD DUP2 MSTORE SWAP7 DUP2 ADD SLOAD SWAP6 DUP8 ADD SWAP6 SWAP1 SWAP6 MSTORE SWAP2 DUP5 ADD SLOAD SWAP3 DUP6 ADD SWAP3 SWAP1 SWAP3 MSTORE PUSH1 0x3 DUP4 ADD SLOAD SWAP1 DUP5 ADD MSTORE PUSH1 0x4 SWAP1 SWAP2 ADD SLOAD PUSH1 0x80 DUP4 ADD MSTORE SWAP1 PUSH2 0x2C01 SWAP1 DUP3 SWAP1 PUSH2 0x2EB4 JUMP JUMPDEST SWAP4 POP DUP1 PUSH1 0x40 ADD MLOAD SWAP3 POP POP POP SWAP2 POP SWAP2 JUMP JUMPDEST PUSH1 0x0 DUP1 DUP3 PUSH2 0x2C21 JUMPI DUP4 SWAP2 POP PUSH2 0x2C44 JUMP JUMPDEST PUSH2 0x2C35 PUSH4 0xFFFFFFFF DUP7 AND PUSH3 0xF4240 DUP7 PUSH2 0x36DD JUMP JUMPDEST SWAP2 POP PUSH2 0x2C41 DUP5 DUP4 PUSH2 0x2090 JUMP JUMPDEST SWAP1 POP JUMPDEST SWAP4 POP SWAP4 SWAP2 POP POP JUMP JUMPDEST PUSH1 0x0 DUP2 DUP2 MSTORE PUSH1 0x9 PUSH1 0x20 MSTORE PUSH1 0x40 SWAP1 KECCAK256 SLOAD PUSH1 0x1 PUSH1 0x1 PUSH1 0xA0 SHL SUB AND ISZERO PUSH2 0x1105 JUMPI PUSH2 0x1105 PUSH2 0x954 DUP3 PUSH1 0x0 PUSH2 0x3701 JUMP JUMPDEST PUSH2 0x2C7F PUSH2 0x3747 JUMP JUMPDEST TIMESTAMP PUSH1 0xC SSTORE PUSH1 0x1 PUSH1 0xB SSTORE JUMP JUMPDEST PUSH2 0x2C92 PUSH2 0x375C JUMP JUMPDEST PUSH3 0x127500 PUSH3 0xDBBA0 PUSH9 0x56BC75E2D63100000 PUSH1 0x2 PUSH1 0x3 PUSH2 0x26B8 DUP6 DUP6 DUP6 DUP6 DUP6 PUSH2 0x28E3 JUMP JUMPDEST DUP1 PUSH1 0x1 PUSH1 0x1 PUSH1 0x60 SHL SUB DUP2 AND DUP2 EQ PUSH2 0xD79 JUMPI PUSH2 0xD79 PUSH2 0x954 PUSH1 0x2 DUP5 PUSH2 0x37C1 JUMP JUMPDEST PUSH1 0xB SLOAD PUSH1 0x0 SWAP1 PUSH2 0x2CE2 PUSH2 0x49A0 JUMP JUMPDEST POP PUSH1 0x1 PUSH1 0x1 PUSH1 0xA0 SHL SUB DUP6 AND PUSH1 0x0 SWAP1 DUP2 MSTORE PUSH1 0x6 PUSH1 0x20 SWAP1 DUP2 MSTORE PUSH1 0x40 DUP1 DUP4 KECCAK256 DUP10 DUP5 MSTORE DUP3 MSTORE SWAP2 DUP3 SWAP1 KECCAK256 DUP3 MLOAD PUSH1 0x60 DUP2 ADD DUP5 MSTORE SWAP1 SLOAD PUSH1 0x1 PUSH1 0x1 PUSH1 0x40 SHL SUB DUP2 AND DUP1 DUP4 MSTORE PUSH1 0x1 PUSH1 0x1 PUSH1 0x60 SHL SUB PUSH1 0x1 PUSH1 0x40 SHL DUP4 DIV DUP2 AND SWAP5 DUP5 ADD SWAP5 SWAP1 SWAP5 MSTORE PUSH1 0x1 PUSH1 0xA0 SHL SWAP1 SWAP2 DIV SWAP1 SWAP3 AND SWAP3 DUP2 ADD SWAP3 SWAP1 SWAP3 MSTORE DUP3 EQ ISZERO PUSH2 0x2D5A JUMPI PUSH1 0x0 SWAP3 POP POP POP PUSH2 0x2DD8 JUMP JUMPDEST PUSH2 0x2D66 DUP2 DUP4 DUP8 DUP8 PUSH2 0x3826 JUMP JUMPDEST DUP2 MLOAD SWAP1 SWAP4 POP PUSH1 0x0 SWAP1 PUSH2 0x2D82 SWAP1 PUSH1 0x1 PUSH1 0x1 PUSH1 0x40 SHL SUB AND PUSH1 0x1 PUSH2 0x29CA JUMP JUMPDEST SWAP1 POP PUSH2 0x2DB4 PUSH2 0x2DAD DUP10 DUP5 PUSH1 0x20 ADD MLOAD PUSH1 0x1 PUSH1 0x1 PUSH1 0x60 SHL SUB AND DUP6 PUSH1 0x0 ADD MLOAD PUSH1 0x1 PUSH1 0x1 PUSH1 0x40 SHL SUB AND DUP6 PUSH2 0x389D JUMP JUMPDEST DUP6 SWAP1 PUSH2 0x29CA JUMP JUMPDEST SWAP4 POP PUSH2 0x2DD2 PUSH2 0x2DAD DUP10 DUP5 PUSH1 0x40 ADD MLOAD PUSH1 0x1 PUSH1 0x1 PUSH1 0x60 SHL SUB AND DUP5 DUP8 PUSH2 0x389D JUMP JUMPDEST SWAP4 POP POP POP POP JUMPDEST SWAP5 SWAP4 POP POP POP POP JUMP JUMPDEST PUSH1 0x40 DUP1 MLOAD PUSH1 0x1 PUSH1 0x1 PUSH1 0xA0 SHL SUB DUP4 AND PUSH1 0x24 DUP1 DUP4 ADD SWAP2 SWAP1 SWAP2 MSTORE DUP3 MLOAD DUP1 DUP4 SUB SWAP1 SWAP2 ADD DUP2 MSTORE PUSH1 0x44 SWAP1 SWAP2 ADD SWAP1 SWAP2 MSTORE PUSH1 0x20 DUP2 ADD DUP1 MLOAD PUSH1 0x1 PUSH1 0x1 PUSH1 0xE0 SHL SUB AND PUSH4 0x30F65C01 PUSH1 0xE1 SHL OR SWAP1 MSTORE SWAP2 SWAP1 POP JUMP JUMPDEST PUSH1 0x0 DUP3 DUP2 MSTORE PUSH1 0x9 PUSH1 0x20 MSTORE PUSH1 0x40 DUP2 KECCAK256 SLOAD DUP2 SWAP1 DUP2 SWAP1 PUSH2 0x2E4E SWAP1 PUSH1 0x1 PUSH1 0x1 PUSH1 0xA0 SHL SUB AND DUP7 PUSH2 0x1DDC JUMP JUMPDEST PUSH1 0x20 ADD MLOAD PUSH1 0x1 PUSH1 0x1 PUSH1 0x60 SHL SUB AND SWAP1 POP PUSH2 0x2E67 DUP5 DUP3 PUSH2 0x2090 JUMP JUMPDEST PUSH1 0x11 SLOAD SWAP1 SWAP4 POP PUSH2 0x2E8C SWAP1 PUSH2 0x2E85 SWAP1 PUSH4 0xFFFFFFFF AND PUSH3 0xF4240 DUP7 PUSH2 0x391C JUMP JUMPDEST DUP3 SWAP1 PUSH2 0x29CA JUMP JUMPDEST SWAP2 POP POP SWAP3 POP SWAP3 SWAP1 POP JUMP JUMPDEST PUSH1 0x40 DUP1 MLOAD DUP1 DUP3 ADD SWAP1 SWAP2 MSTORE PUSH1 0x4 DUP2 MSTORE PUSH4 0x734F6E1F PUSH1 0xE1 SHL PUSH1 0x20 DUP3 ADD MSTORE SWAP1 JUMP JUMPDEST DUP2 MLOAD PUSH1 0x0 SWAP1 PUSH2 0x2EC2 JUMPI PUSH2 0x1154 JUMP JUMPDEST DUP2 MLOAD DUP4 MLOAD PUSH1 0x40 DUP5 ADD MLOAD PUSH1 0x20 DUP7 ADD MLOAD PUSH1 0x60 DUP7 ADD MLOAD PUSH1 0x13 SLOAD PUSH2 0x2EF8 SWAP6 SWAP5 SWAP4 SWAP3 SWAP2 SWAP1 PUSH4 0xFFFFFFFF DUP1 DUP3 AND SWAP2 PUSH5 0x100000000 SWAP1 DIV AND PUSH2 0x392C JUMP JUMPDEST PUSH1 0x80 DUP4 ADD MLOAD DUP4 MLOAD SWAP2 SWAP3 POP PUSH1 0x0 SWAP2 PUSH2 0x2F0E SWAP2 PUSH2 0x2090 JUMP JUMPDEST SWAP1 POP DUP2 DUP2 LT ISZERO PUSH2 0x2F1C JUMPI DUP1 SWAP2 POP JUMPDEST POP SWAP3 SWAP2 POP POP JUMP JUMPDEST PUSH1 0x0 DUP1 PUSH2 0x2F2E PUSH2 0x49E1 JUMP JUMPDEST POP PUSH1 0x0 DUP6 DUP2 MSTORE PUSH1 0x9 PUSH1 0x20 SWAP1 DUP2 MSTORE PUSH1 0x40 SWAP2 DUP3 SWAP1 KECCAK256 DUP3 MLOAD PUSH1 0x80 DUP2 ADD DUP5 MSTORE DUP2 SLOAD PUSH1 0x1 PUSH1 0x1 PUSH1 0xA0 SHL SUB SWAP1 DUP2 AND DUP3 MSTORE PUSH1 0x1 SWAP1 SWAP3 ADD SLOAD SWAP2 DUP3 AND SWAP3 DUP2 ADD SWAP3 SWAP1 SWAP3 MSTORE PUSH4 0xFFFFFFFF PUSH1 0x1 PUSH1 0xA0 SHL DUP3 DIV DUP2 AND SWAP4 DUP4 ADD DUP5 SWAP1 MSTORE PUSH1 0x1 PUSH1 0xC0 SHL SWAP1 SWAP2 DIV AND PUSH1 0x60 DUP3 ADD MSTORE SWAP1 PUSH2 0x2F96 SWAP1 DUP7 DUP7 PUSH2 0x2C11 JUMP JUMPDEST SWAP1 SWAP4 POP SWAP2 POP DUP3 ISZERO PUSH2 0x31B3 JUMPI DUP1 PUSH1 0x20 ADD MLOAD PUSH1 0x1 PUSH1 0x1 PUSH1 0xA0 SHL SUB AND DUP2 PUSH1 0x0 ADD MLOAD PUSH1 0x1 PUSH1 0x1 PUSH1 0xA0 SHL SUB AND EQ ISZERO PUSH2 0x3053 JUMPI PUSH2 0x2FCB PUSH2 0x1DC4 JUMP JUMPDEST DUP2 MLOAD PUSH1 0x40 MLOAD PUSH4 0xA9059CBB PUSH1 0xE0 SHL DUP2 MSTORE PUSH1 0x1 PUSH1 0x1 PUSH1 0xA0 SHL SUB SWAP3 SWAP1 SWAP3 AND SWAP2 PUSH4 0xA9059CBB SWAP2 PUSH2 0x2FFB SWAP2 DUP8 SWAP1 PUSH1 0x4 ADD PUSH2 0x4E18 JUMP JUMPDEST PUSH1 0x20 PUSH1 0x40 MLOAD DUP1 DUP4 SUB DUP2 PUSH1 0x0 DUP8 DUP1 EXTCODESIZE ISZERO DUP1 ISZERO PUSH2 0x3015 JUMPI PUSH1 0x0 DUP1 REVERT JUMPDEST POP GAS CALL ISZERO DUP1 ISZERO PUSH2 0x3029 JUMPI RETURNDATASIZE PUSH1 0x0 DUP1 RETURNDATACOPY RETURNDATASIZE PUSH1 0x0 REVERT JUMPDEST POP POP POP POP PUSH1 0x40 MLOAD RETURNDATASIZE PUSH1 0x1F NOT PUSH1 0x1F DUP3 ADD AND DUP3 ADD DUP1 PUSH1 0x40 MSTORE POP DUP2 ADD SWAP1 PUSH2 0x304D SWAP2 SWAP1 PUSH2 0x4C3F JUMP JUMPDEST POP PUSH2 0x31B3 JUMP JUMPDEST PUSH1 0x0 PUSH2 0x3085 PUSH3 0xF4240 PUSH4 0xFFFFFFFF AND PUSH2 0x307F DUP5 PUSH1 0x60 ADD MLOAD PUSH4 0xFFFFFFFF AND DUP8 PUSH2 0x39EE SWAP1 SWAP2 SWAP1 PUSH4 0xFFFFFFFF AND JUMP JUMPDEST SWAP1 PUSH2 0x3A1F JUMP JUMPDEST SWAP1 POP PUSH2 0x308F PUSH2 0x1DC4 JUMP JUMPDEST PUSH1 0x1 PUSH1 0x1 PUSH1 0xA0 SHL SUB AND PUSH4 0xA9059CBB DUP4 PUSH1 0x20 ADD MLOAD DUP4 PUSH1 0x40 MLOAD DUP4 PUSH4 0xFFFFFFFF AND PUSH1 0xE0 SHL DUP2 MSTORE PUSH1 0x4 ADD PUSH2 0x30C0 SWAP3 SWAP2 SWAP1 PUSH2 0x4E18 JUMP JUMPDEST PUSH1 0x20 PUSH1 0x40 MLOAD DUP1 DUP4 SUB DUP2 PUSH1 0x0 DUP8 DUP1 EXTCODESIZE ISZERO DUP1 ISZERO PUSH2 0x30DA JUMPI PUSH1 0x0 DUP1 REVERT JUMPDEST POP GAS CALL ISZERO DUP1 ISZERO PUSH2 0x30EE JUMPI RETURNDATASIZE PUSH1 0x0 DUP1 RETURNDATACOPY RETURNDATASIZE PUSH1 0x0 REVERT JUMPDEST POP POP POP POP PUSH1 0x40 MLOAD RETURNDATASIZE PUSH1 0x1F NOT PUSH1 0x1F DUP3 ADD AND DUP3 ADD DUP1 PUSH1 0x40 MSTORE POP DUP2 ADD SWAP1 PUSH2 0x3112 SWAP2 SWAP1 PUSH2 0x4C3F JUMP JUMPDEST POP PUSH2 0x311B PUSH2 0x1DC4 JUMP JUMPDEST PUSH1 0x1 PUSH1 0x1 PUSH1 0xA0 SHL SUB AND PUSH4 0xA9059CBB DUP4 PUSH1 0x0 ADD MLOAD PUSH2 0x3141 DUP5 DUP9 PUSH2 0x2090 SWAP1 SWAP2 SWAP1 PUSH4 0xFFFFFFFF AND JUMP JUMPDEST PUSH1 0x40 MLOAD DUP4 PUSH4 0xFFFFFFFF AND PUSH1 0xE0 SHL DUP2 MSTORE PUSH1 0x4 ADD PUSH2 0x315E SWAP3 SWAP2 SWAP1 PUSH2 0x4E18 JUMP JUMPDEST PUSH1 0x20 PUSH1 0x40 MLOAD DUP1 DUP4 SUB DUP2 PUSH1 0x0 DUP8 DUP1 EXTCODESIZE ISZERO DUP1 ISZERO PUSH2 0x3178 JUMPI PUSH1 0x0 DUP1 REVERT JUMPDEST POP GAS CALL ISZERO DUP1 ISZERO PUSH2 0x318C JUMPI RETURNDATASIZE PUSH1 0x0 DUP1 RETURNDATACOPY RETURNDATASIZE PUSH1 0x0 REVERT JUMPDEST POP POP POP POP PUSH1 0x40 MLOAD RETURNDATASIZE PUSH1 0x1F NOT PUSH1 0x1F DUP3 ADD AND DUP3 ADD DUP1 PUSH1 0x40 MSTORE POP DUP2 ADD SWAP1 PUSH2 0x31B0 SWAP2 SWAP1 PUSH2 0x4C3F JUMP JUMPDEST POP POP JUMPDEST DUP2 ISZERO PUSH2 0x31CE JUMPI PUSH2 0x31C3 DUP7 DUP4 PUSH2 0x3A49 JUMP JUMPDEST PUSH2 0x31CE DUP7 DUP4 DUP7 PUSH2 0x3A7E JUMP JUMPDEST POP SWAP4 POP SWAP4 SWAP2 POP POP JUMP JUMPDEST PUSH1 0x60 PUSH4 0xE946C1BB PUSH1 0xE0 SHL DUP5 DUP5 DUP5 PUSH1 0x40 MLOAD PUSH1 0x24 ADD DUP1 DUP5 PUSH1 0x3 DUP2 GT ISZERO PUSH2 0x31F7 JUMPI INVALID JUMPDEST DUP2 MSTORE PUSH1 0x20 ADD DUP4 DUP2 MSTORE PUSH1 0x20 ADD DUP3 DUP2 MSTORE PUSH1 0x20 ADD SWAP4 POP POP POP POP PUSH1 0x40 MLOAD PUSH1 0x20 DUP2 DUP4 SUB SUB DUP2 MSTORE SWAP1 PUSH1 0x40 MSTORE SWAP1 PUSH1 0x1 PUSH1 0x1 PUSH1 0xE0 SHL SUB NOT AND PUSH1 0x20 DUP3 ADD DUP1 MLOAD PUSH1 0x1 PUSH1 0x1 PUSH1 0xE0 SHL SUB DUP4 DUP2 DUP4 AND OR DUP4 MSTORE POP POP POP POP SWAP1 POP SWAP4 SWAP3 POP POP POP JUMP JUMPDEST PUSH1 0x40 DUP1 MLOAD PUSH1 0x24 DUP2 ADD DUP5 SWAP1 MSTORE PUSH1 0x44 DUP1 DUP3 ADD DUP5 SWAP1 MSTORE DUP3 MLOAD DUP1 DUP4 SUB SWAP1 SWAP2 ADD DUP2 MSTORE PUSH1 0x64 SWAP1 SWAP2 ADD SWAP1 SWAP2 MSTORE PUSH1 0x20 DUP2 ADD DUP1 MLOAD PUSH1 0x1 PUSH1 0x1 PUSH1 0xE0 SHL SUB AND PUSH4 0xA6BCDE47 PUSH1 0xE0 SHL OR SWAP1 MSTORE SWAP3 SWAP2 POP POP JUMP JUMPDEST PUSH1 0x40 DUP1 MLOAD PUSH1 0x1 PUSH1 0x1 PUSH1 0xA0 SHL SUB DUP4 AND PUSH1 0x24 DUP1 DUP4 ADD SWAP2 SWAP1 SWAP2 MSTORE DUP3 MLOAD DUP1 DUP4 SUB SWAP1 SWAP2 ADD DUP2 MSTORE PUSH1 0x44 SWAP1 SWAP2 ADD SWAP1 SWAP2 MSTORE PUSH1 0x20 DUP2 ADD DUP1 MLOAD PUSH1 0x1 PUSH1 0x1 PUSH1 0xE0 SHL SUB AND PUSH4 0xB65A25B9 PUSH1 0xE0 SHL OR SWAP1 MSTORE SWAP2 SWAP1 POP JUMP JUMPDEST DUP1 PUSH1 0x1 PUSH1 0x1 PUSH1 0x40 SHL SUB DUP2 AND DUP2 EQ PUSH2 0xD79 JUMPI PUSH2 0xD79 PUSH2 0x954 PUSH1 0x1 DUP5 PUSH2 0x37C1 JUMP JUMPDEST DUP1 MLOAD DUP3 SLOAD PUSH1 0x40 DUP4 ADD MLOAD PUSH1 0x20 SWAP1 SWAP4 ADD MLOAD PUSH1 0x1 PUSH1 0x1 PUSH1 0x60 SHL SUB SWAP1 DUP2 AND PUSH1 0x1 PUSH1 0x40 SHL MUL PUSH12 0xFFFFFFFFFFFFFFFFFFFFFFFF PUSH1 0x40 SHL NOT SWAP2 SWAP1 SWAP5 AND PUSH1 0x1 PUSH1 0xA0 SHL MUL PUSH1 0x1 PUSH1 0x1 PUSH1 0xA0 SHL SUB PUSH1 0x1 PUSH1 0x1 PUSH1 0x40 SHL SUB SWAP1 SWAP5 AND PUSH8 0xFFFFFFFFFFFFFFFF NOT SWAP1 SWAP4 AND SWAP3 SWAP1 SWAP3 OR SWAP3 SWAP1 SWAP3 AND OR AND OR SWAP1 SSTORE JUMP JUMPDEST PUSH1 0x40 DUP1 MLOAD PUSH1 0x1 PUSH1 0x1 PUSH1 0xA0 SHL SUB DUP5 AND PUSH1 0x24 DUP3 ADD MSTORE PUSH1 0x44 DUP1 DUP3 ADD DUP5 SWAP1 MSTORE DUP3 MLOAD DUP1 DUP4 SUB SWAP1 SWAP2 ADD DUP2 MSTORE PUSH1 0x64 SWAP1 SWAP2 ADD SWAP1 SWAP2 MSTORE PUSH1 0x20 DUP2 ADD DUP1 MLOAD PUSH1 0x1 PUSH1 0x1 PUSH1 0xE0 SHL SUB AND PUSH4 0x82DED785 PUSH1 0xE0 SHL OR SWAP1 MSTORE SWAP3 SWAP2 POP POP JUMP JUMPDEST PUSH1 0x40 DUP1 MLOAD PUSH1 0x1 PUSH1 0x1 PUSH1 0xA0 SHL SUB DUP1 DUP6 AND PUSH1 0x24 DUP4 ADD MSTORE DUP4 AND PUSH1 0x44 DUP1 DUP4 ADD SWAP2 SWAP1 SWAP2 MSTORE DUP3 MLOAD DUP1 DUP4 SUB SWAP1 SWAP2 ADD DUP2 MSTORE PUSH1 0x64 SWAP1 SWAP2 ADD SWAP1 SWAP2 MSTORE PUSH1 0x20 DUP2 ADD DUP1 MLOAD PUSH1 0x1 PUSH1 0x1 PUSH1 0xE0 SHL SUB AND PUSH4 0x1DE45AD1 PUSH1 0xE0 SHL OR SWAP1 MSTORE SWAP3 SWAP2 POP POP JUMP JUMPDEST PUSH1 0x40 DUP1 MLOAD DUP1 DUP3 ADD SWAP1 SWAP2 MSTORE PUSH1 0x4 DUP2 MSTORE PUSH4 0x15D953F9 PUSH1 0xE2 SHL PUSH1 0x20 DUP3 ADD MSTORE SWAP1 JUMP JUMPDEST PUSH1 0x40 DUP1 MLOAD PUSH1 0x1 PUSH1 0x1 PUSH1 0xA0 SHL SUB DUP4 AND PUSH1 0x24 DUP1 DUP4 ADD SWAP2 SWAP1 SWAP2 MSTORE DUP3 MLOAD DUP1 DUP4 SUB SWAP1 SWAP2 ADD DUP2 MSTORE PUSH1 0x44 SWAP1 SWAP2 ADD SWAP1 SWAP2 MSTORE PUSH1 0x20 DUP2 ADD DUP1 MLOAD PUSH1 0x1 PUSH1 0x1 PUSH1 0xE0 SHL SUB AND PUSH4 0x6F0B78D PUSH1 0xE5 SHL OR SWAP1 MSTORE SWAP2 SWAP1 POP JUMP JUMPDEST PUSH1 0x0 DUP2 DUP2 MSTORE PUSH1 0x9 PUSH1 0x20 MSTORE PUSH1 0x40 SWAP1 KECCAK256 SLOAD PUSH1 0x1 PUSH1 0x1 PUSH1 0xA0 SHL SUB AND PUSH2 0x1105 JUMPI PUSH2 0x1105 PUSH2 0x954 DUP3 PUSH1 0x0 PUSH2 0x3701 JUMP JUMPDEST PUSH2 0x3495 PUSH2 0x49A0 JUMP JUMPDEST PUSH2 0x349E DUP4 PUSH2 0x2255 JUMP JUMPDEST SWAP1 POP PUSH2 0x34C3 PUSH2 0x1B79 DUP4 DUP4 PUSH1 0x40 ADD MLOAD PUSH1 0x1 PUSH1 0x1 PUSH1 0x60 SHL SUB AND PUSH2 0x2090 SWAP1 SWAP2 SWAP1 PUSH4 0xFFFFFFFF AND JUMP JUMPDEST PUSH1 0x1 PUSH1 0x1 PUSH1 0x60 SHL SUB AND PUSH1 0x40 DUP3 ADD MSTORE PUSH2 0x10D0 DUP4 DUP3 PUSH2 0x32F5 JUMP JUMPDEST PUSH2 0x34E3 PUSH2 0x49A0 JUMP JUMPDEST PUSH2 0x34EC DUP4 PUSH2 0x2255 JUMP JUMPDEST SWAP1 POP PUSH2 0x34C3 PUSH2 0x1B79 DUP4 DUP4 PUSH1 0x40 ADD MLOAD PUSH1 0x1 PUSH1 0x1 PUSH1 0x60 SHL SUB AND PUSH2 0x29CA SWAP1 SWAP2 SWAP1 PUSH4 0xFFFFFFFF AND JUMP JUMPDEST EQ PUSH1 0x1 AND SWAP1 JUMP JUMPDEST PUSH1 0x60 PUSH4 0x22DF9597 PUSH1 0xE0 SHL DUP5 DUP5 DUP5 PUSH1 0x40 MLOAD PUSH1 0x24 ADD DUP1 DUP5 PUSH1 0x1 DUP2 GT ISZERO PUSH2 0x3538 JUMPI INVALID JUMPDEST DUP2 MSTORE PUSH1 0x20 ADD DUP4 DUP2 MSTORE PUSH1 0x20 ADD DUP3 PUSH4 0xFFFFFFFF AND DUP2 MSTORE PUSH1 0x20 ADD SWAP4 POP POP POP POP PUSH1 0x40 MLOAD PUSH1 0x20 DUP2 DUP4 SUB SUB DUP2 MSTORE SWAP1 PUSH1 0x40 MSTORE SWAP1 PUSH1 0x1 PUSH1 0x1 PUSH1 0xE0 SHL SUB NOT AND PUSH1 0x20 DUP3 ADD DUP1 MLOAD PUSH1 0x1 PUSH1 0x1 PUSH1 0xE0 SHL SUB DUP4 DUP2 DUP4 AND OR DUP4 MSTORE POP POP POP POP SWAP1 POP SWAP4 SWAP3 POP POP POP JUMP JUMPDEST PUSH1 0x40 DUP1 MLOAD PUSH1 0x24 DUP2 ADD DUP5 SWAP1 MSTORE PUSH1 0x44 DUP1 DUP3 ADD DUP5 SWAP1 MSTORE DUP3 MLOAD DUP1 DUP4 SUB SWAP1 SWAP2 ADD DUP2 MSTORE PUSH1 0x64 SWAP1 SWAP2 ADD SWAP1 SWAP2 MSTORE PUSH1 0x20 DUP2 ADD DUP1 MLOAD PUSH1 0x1 PUSH1 0x1 PUSH1 0xE0 SHL SUB AND PUSH4 0xE9F83771 PUSH1 0xE0 SHL OR SWAP1 MSTORE SWAP3 SWAP2 POP POP JUMP JUMPDEST PUSH1 0x40 DUP1 MLOAD PUSH1 0x1 PUSH1 0x1 PUSH1 0xA0 SHL SUB DUP1 DUP6 AND PUSH1 0x24 DUP4 ADD MSTORE DUP4 AND PUSH1 0x44 DUP1 DUP4 ADD SWAP2 SWAP1 SWAP2 MSTORE DUP3 MLOAD DUP1 DUP4 SUB SWAP1 SWAP2 ADD DUP2 MSTORE PUSH1 0x64 SWAP1 SWAP2 ADD SWAP1 SWAP2 MSTORE PUSH1 0x20 DUP2 ADD DUP1 MLOAD PUSH1 0x1 PUSH1 0x1 PUSH1 0xE0 SHL SUB AND PUSH4 0x140A84DB PUSH1 0xE0 SHL OR SWAP1 MSTORE SWAP3 SWAP2 POP POP JUMP JUMPDEST PUSH1 0xB SLOAD PUSH1 0x0 SWAP1 PUSH2 0x3637 SWAP1 PUSH1 0x1 PUSH2 0x2090 JUMP JUMPDEST SWAP1 POP PUSH2 0x3641 PUSH2 0x49C0 JUMP JUMPDEST POP PUSH1 0x0 DUP3 DUP2 MSTORE PUSH1 0x14 PUSH1 0x20 SWAP1 DUP2 MSTORE PUSH1 0x40 DUP1 DUP4 KECCAK256 DUP5 DUP5 MSTORE DUP3 MSTORE SWAP2 DUP3 SWAP1 KECCAK256 DUP3 MLOAD PUSH1 0x60 DUP2 ADD DUP5 MSTORE DUP2 SLOAD DUP1 DUP3 MSTORE PUSH1 0x1 DUP4 ADD SLOAD SWAP4 DUP3 ADD SWAP4 SWAP1 SWAP4 MSTORE PUSH1 0x2 SWAP1 SWAP2 ADD SLOAD SWAP3 DUP2 ADD SWAP3 SWAP1 SWAP3 MSTORE ISZERO PUSH2 0x10D0 JUMPI PUSH2 0x10D0 PUSH2 0x954 DUP5 DUP5 PUSH2 0x3B67 JUMP JUMPDEST PUSH1 0x0 DUP3 DUP2 MSTORE PUSH1 0xA PUSH1 0x20 MSTORE PUSH1 0x40 SWAP1 KECCAK256 SLOAD PUSH2 0x36AD SWAP1 DUP3 PUSH2 0x2090 JUMP JUMPDEST PUSH1 0x0 DUP4 DUP2 MSTORE PUSH1 0xA PUSH1 0x20 MSTORE PUSH1 0x40 SWAP1 KECCAK256 SSTORE PUSH1 0x16 SLOAD PUSH2 0x36C9 SWAP1 DUP3 PUSH2 0x2090 JUMP JUMPDEST PUSH1 0x16 SSTORE POP POP JUMP JUMPDEST PUSH2 0x1105 DUP2 PUSH1 0x0 PUSH1 0x1 PUSH2 0x3A7E JUMP JUMPDEST PUSH1 0x0 PUSH2 0x2DD8 DUP4 PUSH2 0x307F PUSH2 0x36F1 DUP3 PUSH1 0x1 PUSH2 0x2090 JUMP JUMPDEST PUSH2 0x36FB DUP9 DUP8 PUSH2 0x39EE JUMP JUMPDEST SWAP1 PUSH2 0x29CA JUMP JUMPDEST PUSH1 0x40 DUP1 MLOAD PUSH1 0x24 DUP2 ADD SWAP4 SWAP1 SWAP4 MSTORE SWAP1 ISZERO ISZERO PUSH1 0x44 DUP1 DUP5 ADD SWAP2 SWAP1 SWAP2 MSTORE DUP2 MLOAD DUP1 DUP5 SUB SWAP1 SWAP2 ADD DUP2 MSTORE PUSH1 0x64 SWAP1 SWAP3 ADD SWAP1 MSTORE PUSH1 0x20 DUP2 ADD DUP1 MLOAD PUSH1 0x1 PUSH1 0x1 PUSH1 0xE0 SHL SUB AND PUSH4 0x9AE94F01 PUSH1 0xE0 SHL OR SWAP1 MSTORE SWAP1 JUMP JUMPDEST PUSH1 0xC SLOAD ISZERO PUSH2 0x1A87 JUMPI PUSH2 0x1A87 PUSH2 0x954 PUSH1 0x0 PUSH2 0x3BAC JUMP JUMPDEST PUSH1 0x10 SLOAD ISZERO DUP1 ISZERO SWAP1 PUSH2 0x3774 JUMPI POP PUSH1 0x11 SLOAD PUSH4 0xFFFFFFFF AND ISZERO ISZERO JUMPDEST DUP1 ISZERO PUSH2 0x3781 JUMPI POP PUSH1 0x12 SLOAD ISZERO ISZERO JUMPDEST DUP1 ISZERO PUSH2 0x3794 JUMPI POP PUSH1 0x13 SLOAD PUSH4 0xFFFFFFFF AND ISZERO ISZERO JUMPDEST DUP1 ISZERO PUSH2 0x37AF JUMPI POP PUSH1 0x13 SLOAD PUSH5 0x100000000 SWAP1 DIV PUSH4 0xFFFFFFFF AND ISZERO ISZERO JUMPDEST ISZERO PUSH2 0x1A87 JUMPI PUSH2 0x1A87 PUSH2 0x954 PUSH1 0x1 PUSH2 0x3BAC JUMP JUMPDEST PUSH1 0x60 PUSH4 0xC996AF7B PUSH1 0xE0 SHL DUP4 DUP4 PUSH1 0x40 MLOAD PUSH1 0x24 ADD DUP1 DUP4 PUSH1 0x2 DUP2 GT ISZERO PUSH2 0x37E0 JUMPI INVALID JUMPDEST DUP2 MSTORE PUSH1 0x20 DUP1 DUP3 ADD SWAP4 SWAP1 SWAP4 MSTORE PUSH1 0x40 DUP1 MLOAD DUP1 DUP4 SUB DUP6 ADD DUP2 MSTORE SWAP2 DUP2 ADD SWAP1 MSTORE SWAP2 DUP3 ADD DUP1 MLOAD PUSH1 0x1 PUSH1 0x1 PUSH1 0xE0 SHL SUB AND PUSH1 0x1 PUSH1 0x1 PUSH1 0xE0 SHL SUB NOT SWAP1 SWAP6 AND SWAP5 SWAP1 SWAP5 OR SWAP1 SWAP4 MSTORE SWAP3 POP POP POP SWAP3 SWAP2 POP POP JUMP JUMPDEST PUSH1 0x0 DUP3 ISZERO DUP1 PUSH2 0x3833 JUMPI POP DUP2 ISZERO JUMPDEST ISZERO PUSH2 0x3840 JUMPI POP PUSH1 0x0 PUSH2 0x2DD8 JUMP JUMPDEST PUSH1 0x0 PUSH2 0x384D DUP6 PUSH1 0x1 PUSH2 0x2090 JUMP JUMPDEST DUP7 MLOAD PUSH1 0x1 PUSH1 0x1 PUSH1 0x40 SHL SUB AND LT ISZERO PUSH2 0x3868 JUMPI DUP6 PUSH1 0x40 ADD MLOAD PUSH2 0x386E JUMP JUMPDEST DUP6 PUSH1 0x20 ADD MLOAD JUMPDEST PUSH1 0x1 PUSH1 0x1 PUSH1 0x60 SHL SUB AND SWAP1 POP DUP1 PUSH2 0x3888 JUMPI PUSH1 0x0 SWAP2 POP POP PUSH2 0x2DD8 JUMP JUMPDEST PUSH2 0x3893 DUP5 DUP5 DUP4 PUSH2 0x391C JUMP JUMPDEST SWAP7 SWAP6 POP POP POP POP POP POP JUMP JUMPDEST PUSH1 0x0 DUP4 ISZERO DUP1 PUSH2 0x38AB JUMPI POP DUP2 DUP4 EQ JUMPDEST ISZERO PUSH2 0x38B8 JUMPI POP PUSH1 0x0 PUSH2 0x2DD8 JUMP JUMPDEST DUP2 DUP4 LT PUSH2 0x38D7 JUMPI PUSH1 0x40 MLOAD PUSH3 0x461BCD PUSH1 0xE5 SHL DUP2 MSTORE PUSH1 0x4 ADD PUSH2 0xC6B SWAP1 PUSH2 0x4F6A JUMP JUMPDEST PUSH2 0x38DF PUSH2 0x4A08 JUMP JUMPDEST PUSH2 0x38E9 DUP7 DUP6 PUSH2 0x3C0F JUMP JUMPDEST SWAP1 POP PUSH2 0x38F3 PUSH2 0x4A08 JUMP JUMPDEST PUSH2 0x38FD DUP8 DUP6 PUSH2 0x3C0F JUMP JUMPDEST SWAP1 POP PUSH2 0x1C5F DUP2 PUSH1 0x0 ADD MLOAD DUP3 PUSH1 0x20 ADD MLOAD DUP5 PUSH1 0x0 ADD MLOAD DUP6 PUSH1 0x20 ADD MLOAD DUP11 PUSH2 0x3D26 JUMP JUMPDEST PUSH1 0x0 PUSH2 0x2DD8 DUP4 PUSH2 0x307F DUP7 DUP6 PUSH2 0x39EE JUMP JUMPDEST PUSH1 0x0 DUP1 PUSH2 0x3939 DUP9 DUP9 PUSH2 0x3D94 JUMP JUMPDEST SWAP1 POP PUSH1 0x0 PUSH2 0x3947 DUP8 DUP8 PUSH2 0x3D94 JUMP JUMPDEST SWAP1 POP DUP2 ISZERO DUP1 PUSH2 0x3954 JUMPI POP DUP1 ISZERO JUMPDEST ISZERO PUSH2 0x3964 JUMPI PUSH1 0x0 SWAP3 POP POP POP PUSH2 0x1C5F JUMP JUMPDEST PUSH1 0x0 DUP2 DUP4 SGT ISZERO PUSH2 0x397D JUMPI PUSH2 0x3978 DUP3 DUP5 PUSH2 0x3DDA JUMP JUMPDEST PUSH2 0x3987 JUMP JUMPDEST PUSH2 0x3987 DUP4 DUP4 PUSH2 0x3DDA JUMP JUMPDEST SWAP1 POP PUSH2 0x39B0 PUSH2 0x39AB PUSH2 0x3998 DUP4 PUSH2 0x3DED JUMP JUMPDEST DUP9 PUSH4 0xFFFFFFFF AND DUP9 PUSH4 0xFFFFFFFF AND PUSH2 0x4242 JUMP JUMPDEST PUSH2 0x4251 JUMP JUMPDEST SWAP1 POP DUP2 DUP4 SGT ISZERO PUSH2 0x39C9 JUMPI PUSH2 0x39C4 DUP3 DUP3 PUSH2 0x3DDA JUMP JUMPDEST PUSH2 0x39D3 JUMP JUMPDEST PUSH2 0x39D3 DUP3 DUP3 PUSH2 0x46B7 JUMP JUMPDEST SWAP1 POP PUSH2 0x39DF DUP2 DUP13 PUSH2 0x46D7 JUMP JUMPDEST SWAP12 SWAP11 POP POP POP POP POP POP POP POP POP POP POP JUMP JUMPDEST PUSH1 0x0 DUP3 PUSH2 0x39FD JUMPI POP PUSH1 0x0 PUSH2 0x1154 JUMP JUMPDEST DUP3 DUP3 MUL DUP3 DUP5 DUP3 DUP2 PUSH2 0x3A0A JUMPI INVALID JUMPDEST DIV EQ PUSH2 0x1151 JUMPI PUSH2 0x1151 PUSH2 0x954 PUSH1 0x1 DUP7 DUP7 PUSH2 0x31D7 JUMP JUMPDEST PUSH1 0x0 DUP2 PUSH2 0x3A35 JUMPI PUSH2 0x3A35 PUSH2 0x954 PUSH1 0x3 DUP6 DUP6 PUSH2 0x31D7 JUMP JUMPDEST PUSH1 0x0 DUP3 DUP5 DUP2 PUSH2 0x3A40 JUMPI INVALID JUMPDEST DIV SWAP5 SWAP4 POP POP POP POP JUMP JUMPDEST PUSH1 0x0 DUP3 DUP2 MSTORE PUSH1 0xA PUSH1 0x20 MSTORE PUSH1 0x40 SWAP1 KECCAK256 SLOAD PUSH2 0x3A62 SWAP1 DUP3 PUSH2 0x29CA JUMP JUMPDEST PUSH1 0x0 DUP4 DUP2 MSTORE PUSH1 0xA PUSH1 0x20 MSTORE PUSH1 0x40 SWAP1 KECCAK256 SSTORE PUSH1 0x16 SLOAD PUSH2 0x36C9 SWAP1 DUP3 PUSH2 0x29CA JUMP JUMPDEST PUSH1 0x0 DUP4 DUP2 MSTORE PUSH1 0xE PUSH1 0x20 MSTORE PUSH1 0x40 SWAP1 KECCAK256 SLOAD PUSH1 0xB SLOAD DUP1 DUP3 EQ ISZERO PUSH2 0x3A9F JUMPI POP POP PUSH2 0x10D0 JUMP JUMPDEST PUSH2 0x3AA7 PUSH2 0x4A08 JUMP JUMPDEST POP PUSH1 0x0 DUP6 DUP2 MSTORE PUSH1 0xD PUSH1 0x20 SWAP1 DUP2 MSTORE PUSH1 0x40 DUP1 DUP4 KECCAK256 DUP6 DUP5 MSTORE DUP3 MSTORE SWAP2 DUP3 SWAP1 KECCAK256 DUP3 MLOAD DUP1 DUP5 ADD SWAP1 SWAP4 MSTORE DUP1 SLOAD DUP4 MSTORE PUSH1 0x1 ADD SLOAD SWAP1 DUP3 ADD MSTORE PUSH2 0x3ADE PUSH2 0x4A08 JUMP JUMPDEST PUSH2 0x3AE7 DUP3 PUSH2 0x4719 JUMP JUMPDEST ISZERO PUSH2 0x3B20 JUMPI PUSH2 0x3B00 DUP3 PUSH1 0x0 ADD MLOAD DUP4 PUSH1 0x20 ADD MLOAD DUP9 DUP9 PUSH2 0x4722 JUMP JUMPDEST PUSH1 0x20 DUP4 ADD DUP2 SWAP1 MSTORE DUP2 DUP4 MSTORE PUSH2 0x3B14 SWAP2 SWAP1 PUSH2 0x4772 JUMP JUMPDEST PUSH1 0x20 DUP4 ADD MSTORE DUP2 MSTORE PUSH2 0x3B2B JUMP JUMPDEST PUSH1 0x20 DUP2 ADD DUP6 SWAP1 MSTORE DUP6 DUP2 MSTORE JUMPDEST PUSH1 0x0 DUP8 DUP2 MSTORE PUSH1 0xD PUSH1 0x20 SWAP1 DUP2 MSTORE PUSH1 0x40 DUP1 DUP4 KECCAK256 DUP7 DUP5 MSTORE DUP3 MSTORE DUP1 DUP4 KECCAK256 DUP5 MLOAD DUP2 SSTORE SWAP4 DUP3 ADD MLOAD PUSH1 0x1 SWAP1 SWAP5 ADD SWAP4 SWAP1 SWAP4 SSTORE SWAP8 DUP2 MSTORE PUSH1 0xE SWAP1 SWAP8 MSTORE SWAP1 SWAP6 KECCAK256 SSTORE POP POP POP POP JUMP JUMPDEST PUSH1 0x40 DUP1 MLOAD PUSH1 0x24 DUP2 ADD DUP5 SWAP1 MSTORE PUSH1 0x44 DUP1 DUP3 ADD DUP5 SWAP1 MSTORE DUP3 MLOAD DUP1 DUP4 SUB SWAP1 SWAP2 ADD DUP2 MSTORE PUSH1 0x64 SWAP1 SWAP2 ADD SWAP1 SWAP2 MSTORE PUSH1 0x20 DUP2 ADD DUP1 MLOAD PUSH1 0x1 PUSH1 0x1 PUSH1 0xE0 SHL SUB AND PUSH4 0x5CAA0B05 PUSH1 0xE0 SHL OR SWAP1 MSTORE SWAP3 SWAP2 POP POP JUMP JUMPDEST PUSH1 0x60 PUSH4 0xB02D773 PUSH1 0xE0 SHL DUP3 PUSH1 0x1 DUP2 GT ISZERO PUSH2 0x3BC2 JUMPI INVALID JUMPDEST PUSH1 0x40 MLOAD PUSH1 0x24 ADD DUP1 DUP3 PUSH1 0xFF AND DUP2 MSTORE PUSH1 0x20 ADD SWAP2 POP POP PUSH1 0x40 MLOAD PUSH1 0x20 DUP2 DUP4 SUB SUB DUP2 MSTORE SWAP1 PUSH1 0x40 MSTORE SWAP1 PUSH1 0x1 PUSH1 0x1 PUSH1 0xE0 SHL SUB NOT AND PUSH1 0x20 DUP3 ADD DUP1 MLOAD PUSH1 0x1 PUSH1 0x1 PUSH1 0xE0 SHL SUB DUP4 DUP2 DUP4 AND OR DUP4 MSTORE POP POP POP POP SWAP1 POP SWAP2 SWAP1 POP JUMP JUMPDEST PUSH2 0x3C17 PUSH2 0x4A08 JUMP JUMPDEST POP PUSH1 0x0 DUP3 DUP2 MSTORE PUSH1 0xD PUSH1 0x20 SWAP1 DUP2 MSTORE PUSH1 0x40 DUP1 DUP4 KECCAK256 DUP5 DUP5 MSTORE DUP3 MSTORE SWAP2 DUP3 SWAP1 KECCAK256 DUP3 MLOAD DUP1 DUP5 ADD SWAP1 SWAP4 MSTORE DUP1 SLOAD DUP4 MSTORE PUSH1 0x1 ADD SLOAD SWAP1 DUP3 ADD MSTORE PUSH2 0x3C4F DUP2 PUSH2 0x4719 JUMP JUMPDEST ISZERO PUSH2 0x3C59 JUMPI PUSH2 0x1154 JUMP JUMPDEST PUSH1 0x0 PUSH2 0x3C66 DUP4 PUSH1 0x1 PUSH2 0x2090 JUMP JUMPDEST PUSH1 0x0 DUP6 DUP2 MSTORE PUSH1 0xD PUSH1 0x20 SWAP1 DUP2 MSTORE PUSH1 0x40 DUP1 DUP4 KECCAK256 DUP5 DUP5 MSTORE DUP3 MSTORE SWAP2 DUP3 SWAP1 KECCAK256 DUP3 MLOAD DUP1 DUP5 ADD SWAP1 SWAP4 MSTORE DUP1 SLOAD DUP4 MSTORE PUSH1 0x1 ADD SLOAD SWAP1 DUP3 ADD MSTORE SWAP3 POP SWAP1 POP PUSH2 0x3CA1 DUP3 PUSH2 0x4719 JUMP JUMPDEST ISZERO PUSH2 0x3CAC JUMPI POP PUSH2 0x1154 JUMP JUMPDEST PUSH1 0x0 DUP5 DUP2 MSTORE PUSH1 0xE PUSH1 0x20 MSTORE PUSH1 0x40 SWAP1 KECCAK256 SLOAD DUP4 DUP2 LT ISZERO PUSH2 0x3D08 JUMPI PUSH1 0x0 DUP6 DUP2 MSTORE PUSH1 0xD PUSH1 0x20 SWAP1 DUP2 MSTORE PUSH1 0x40 DUP1 DUP4 KECCAK256 DUP5 DUP5 MSTORE DUP3 MSTORE SWAP2 DUP3 SWAP1 KECCAK256 DUP3 MLOAD DUP1 DUP5 ADD SWAP1 SWAP4 MSTORE DUP1 SLOAD DUP4 MSTORE PUSH1 0x1 ADD SLOAD SWAP1 DUP3 ADD MSTORE SWAP3 POP PUSH2 0x3CFC DUP4 PUSH2 0x4719 JUMP JUMPDEST ISZERO PUSH2 0x3D08 JUMPI POP POP PUSH2 0x1154 JUMP JUMPDEST POP POP PUSH1 0x40 DUP1 MLOAD DUP1 DUP3 ADD SWAP1 SWAP2 MSTORE PUSH1 0x0 DUP2 MSTORE PUSH1 0x1 PUSH1 0x20 DUP3 ADD MSTORE SWAP4 SWAP3 POP POP POP JUMP JUMPDEST PUSH1 0x0 DUP2 PUSH2 0x3D35 JUMPI POP PUSH1 0x0 PUSH2 0x3D8B JUMP JUMPDEST DUP4 PUSH2 0x3D4F JUMPI PUSH2 0x3D48 DUP6 PUSH2 0x307F DUP5 DUP10 PUSH2 0x39EE JUMP JUMPDEST SWAP1 POP PUSH2 0x3D8B JUMP JUMPDEST PUSH1 0x0 PUSH2 0x3D68 PUSH2 0x3D5E DUP7 DUP9 PUSH2 0x39EE JUMP JUMPDEST PUSH2 0x1D9F DUP10 DUP8 PUSH2 0x39EE JUMP JUMPDEST SWAP1 POP PUSH1 0x0 PUSH2 0x3D76 DUP3 DUP7 PUSH2 0x3A1F JUMP JUMPDEST SWAP1 POP PUSH2 0x3D86 DUP8 PUSH2 0x307F DUP7 DUP5 PUSH2 0x39EE JUMP JUMPDEST SWAP3 POP POP POP JUMPDEST SWAP6 SWAP5 POP POP POP POP POP JUMP JUMPDEST PUSH1 0x0 DUP1 DUP4 SLT ISZERO PUSH2 0x3DAC JUMPI PUSH2 0x3DAC PUSH2 0x954 PUSH1 0x1 DUP6 PUSH2 0x478F JUMP JUMPDEST PUSH1 0x0 DUP3 SLT ISZERO PUSH2 0x3DC3 JUMPI PUSH2 0x3DC3 PUSH2 0x954 PUSH1 0x1 DUP5 PUSH2 0x478F JUMP JUMPDEST PUSH2 0x1151 PUSH2 0x3DD4 DUP5 PUSH1 0x1 PUSH1 0x7F SHL PUSH2 0x47F6 JUMP JUMPDEST DUP4 PUSH2 0x4849 JUMP JUMPDEST PUSH1 0x0 PUSH2 0x1151 PUSH2 0x3DD4 DUP5 PUSH1 0x1 PUSH1 0x7F SHL PUSH2 0x47F6 JUMP JUMPDEST PUSH1 0x0 PUSH1 0x1 PUSH1 0x7F SHL DUP3 SGT ISZERO PUSH2 0x3E09 JUMPI PUSH2 0x3E09 PUSH2 0x954 PUSH1 0x1 DUP5 PUSH2 0x4890 JUMP JUMPDEST PUSH1 0x0 DUP3 SGT PUSH2 0x3E1F JUMPI PUSH2 0x3E1F PUSH2 0x954 PUSH1 0x0 DUP5 PUSH2 0x4890 JUMP JUMPDEST PUSH1 0x1 PUSH1 0x7F SHL DUP3 EQ ISZERO PUSH2 0x3E33 JUMPI POP PUSH1 0x0 PUSH2 0xD79 JUMP JUMPDEST PUSH5 0x733048C5A DUP3 SGT PUSH2 0x3E4F JUMPI POP PUSH1 0x1 PUSH2 0x1FF PUSH1 0x7C SHL SUB NOT PUSH2 0xD79 JUMP JUMPDEST PUSH1 0x0 DUP1 PUSH1 0x0 PUSH11 0x1C8464F76164760000000 DUP6 SGT PUSH2 0x3E94 JUMPI PUSH17 0xFFFFFFFFFFFFFFFFFFFFFFFFFFFFFFFFF NOT SWAP1 SWAP4 ADD SWAP3 PUSH11 0x1C8464F76164760000000 PUSH1 0x1 PUSH1 0x7F SHL DUP7 MUL SDIV SWAP5 POP JUMPDEST PUSH13 0xF1AADDD7742E90000000000000 DUP6 SGT PUSH2 0x3ED8 JUMPI PUSH17 0x7FFFFFFFFFFFFFFFFFFFFFFFFFFFFFFFF NOT SWAP1 SWAP4 ADD SWAP3 PUSH13 0xF1AADDD7742E90000000000000 PUSH1 0x1 PUSH1 0x7F SHL DUP7 MUL SDIV SWAP5 POP JUMPDEST PUSH7 0x15FC21041027AF PUSH1 0x3F SHL DUP6 SGT PUSH2 0x3F16 JUMPI PUSH17 0x3FFFFFFFFFFFFFFFFFFFFFFFFFFFFFFFF NOT SWAP1 SWAP4 ADD SWAP3 PUSH7 0x15FC21041027AF PUSH1 0x3F SHL PUSH1 0x1 PUSH1 0x7F SHL DUP7 MUL SDIV SWAP5 POP JUMPDEST PUSH7 0x960AADC109E7B PUSH1 0x46 SHL DUP6 SGT PUSH2 0x3F54 JUMPI PUSH17 0x1FFFFFFFFFFFFFFFFFFFFFFFFFFFFFFFF NOT SWAP1 SWAP4 ADD SWAP3 PUSH7 0x960AADC109E7B PUSH1 0x46 SHL PUSH1 0x1 PUSH1 0x7F SHL DUP7 MUL SDIV SWAP5 POP JUMPDEST PUSH7 0x454AAA8EFE073 PUSH1 0x4A SHL DUP6 SGT PUSH2 0x3F91 JUMPI PUSH16 0xFFFFFFFFFFFFFFFFFFFFFFFFFFFFFFFF NOT SWAP1 SWAP4 ADD SWAP3 PUSH7 0x454AAA8EFE073 PUSH1 0x4A SHL PUSH1 0x1 PUSH1 0x7F SHL DUP7 MUL SDIV SWAP5 POP JUMPDEST PUSH7 0x2F16AC6C59DE7 PUSH1 0x4C SHL DUP6 SGT PUSH2 0x3FC5 JUMPI PUSH1 0x1 PUSH1 0x1 PUSH1 0x7F SHL SUB NOT SWAP1 SWAP4 ADD SWAP3 PUSH7 0x2F16AC6C59DE7 PUSH1 0x4C SHL PUSH1 0x1 PUSH1 0x7F SHL DUP7 MUL SDIV SWAP5 POP JUMPDEST PUSH7 0x9B4597E37CB05 PUSH1 0x4B SHL DUP6 SGT PUSH2 0x4002 JUMPI PUSH16 0x3FFFFFFFFFFFFFFFFFFFFFFFFFFFFFFF NOT SWAP1 SWAP4 ADD SWAP3 PUSH7 0x9B4597E37CB05 PUSH1 0x4B SHL PUSH1 0x1 PUSH1 0x7F SHL DUP7 MUL SDIV SWAP5 POP JUMPDEST PUSH7 0x18EBEF9EAC820B PUSH1 0x4A SHL DUP6 SGT PUSH2 0x403F JUMPI PUSH16 0x1FFFFFFFFFFFFFFFFFFFFFFFFFFFFFFF NOT SWAP1 SWAP4 ADD SWAP3 PUSH7 0x18EBEF9EAC820B PUSH1 0x4A SHL PUSH1 0x1 PUSH1 0x7F SHL DUP7 MUL SDIV SWAP5 POP JUMPDEST PUSH16 0x70F5A893B608861E1F58934F97AEA57D DUP6 SGT PUSH2 0x4088 JUMPI PUSH16 0xFFFFFFFFFFFFFFFFFFFFFFFFFFFFFFF NOT SWAP1 SWAP4 ADD SWAP3 PUSH16 0x70F5A893B608861E1F58934F97AEA57D PUSH1 0x1 PUSH1 0x7F SHL DUP7 MUL SDIV SWAP5 POP JUMPDEST PUSH1 0x1 PUSH1 0x1 PUSH1 0x7F SHL SUB NOT DUP6 ADD SWAP3 POP DUP3 SWAP2 POP PUSH1 0x1 PUSH1 0x7F SHL DUP3 DUP1 MUL SDIV SWAP1 POP PUSH1 0x1 PUSH1 0x80 SHL DUP4 DUP2 SUB DUP4 MUL SDIV DUP5 ADD SWAP4 POP PUSH1 0x1 PUSH1 0x7F SHL DUP2 DUP4 MUL DUP2 PUSH2 0x40C1 JUMPI INVALID JUMPDEST SDIV SWAP2 POP PUSH1 0x1 PUSH1 0x81 SHL DUP4 PUSH16 0xAAAAAAAAAAAAAAAAAAAAAAAAAAAAAAAA SUB DUP4 MUL DUP2 PUSH2 0x40E5 JUMPI INVALID JUMPDEST SDIV DUP5 ADD SWAP4 POP PUSH1 0x1 PUSH1 0x7F SHL DUP2 DUP4 MUL DUP2 PUSH2 0x40F9 JUMPI INVALID JUMPDEST SDIV SWAP2 POP PUSH1 0x3 PUSH1 0x80 SHL DUP4 PUSH16 0x99999999999999999999999999999999 SUB DUP4 MUL DUP2 PUSH2 0x411D JUMPI INVALID JUMPDEST SDIV DUP5 ADD SWAP4 POP PUSH1 0x1 PUSH1 0x7F SHL DUP2 DUP4 MUL DUP2 PUSH2 0x4131 JUMPI INVALID JUMPDEST SDIV SWAP2 POP PUSH1 0x1 PUSH1 0x82 SHL DUP4 PUSH16 0x92492492492492492492492492492492 SUB DUP4 MUL DUP2 PUSH2 0x4155 JUMPI INVALID JUMPDEST SDIV DUP5 ADD SWAP4 POP PUSH1 0x1 PUSH1 0x7F SHL DUP2 DUP4 MUL DUP2 PUSH2 0x4169 JUMPI INVALID JUMPDEST SDIV SWAP2 POP PUSH1 0x5 PUSH1 0x80 SHL DUP4 PUSH16 0x8E38E38E38E38E38E38E38E38E38E38E SUB DUP4 MUL DUP2 PUSH2 0x418D JUMPI INVALID JUMPDEST SDIV DUP5 ADD SWAP4 POP PUSH1 0x1 PUSH1 0x7F SHL DUP2 DUP4 MUL DUP2 PUSH2 0x41A1 JUMPI INVALID JUMPDEST SDIV SWAP2 POP PUSH1 0x3 PUSH1 0x81 SHL DUP4 PUSH16 0x8BA2E8BA2E8BA2E8BA2E8BA2E8BA2E8B SUB DUP4 MUL DUP2 PUSH2 0x41C5 JUMPI INVALID JUMPDEST SDIV DUP5 ADD SWAP4 POP PUSH1 0x1 PUSH1 0x7F SHL DUP2 DUP4 MUL DUP2 PUSH2 0x41D9 JUMPI INVALID JUMPDEST SDIV SWAP2 POP PUSH1 0x7 PUSH1 0x80 SHL DUP4 PUSH16 0x89D89D89D89D89D89D89D89D89D89D89 SUB DUP4 MUL DUP2 PUSH2 0x41FD JUMPI INVALID JUMPDEST SDIV DUP5 ADD SWAP4 POP PUSH1 0x1 PUSH1 0x7F SHL DUP2 DUP4 MUL DUP2 PUSH2 0x4211 JUMPI INVALID JUMPDEST SDIV SWAP2 POP PUSH1 0x1 PUSH1 0x83 SHL DUP4 PUSH16 0x88888888888888888888888888888888 SUB DUP4 MUL DUP2 PUSH2 0x4235 JUMPI INVALID JUMPDEST SDIV DUP5 ADD SWAP4 POP POP POP POP SWAP2 SWAP1 POP JUMP JUMPDEST PUSH1 0x0 PUSH2 0x2DD8 PUSH2 0x3DD4 DUP6 DUP6 PUSH2 0x47F6 JUMP JUMPDEST PUSH1 0x0 PUSH1 0x1 PUSH2 0x1FF PUSH1 0x7C SHL SUB NOT DUP3 SLT ISZERO PUSH2 0x426C JUMPI POP PUSH1 0x0 PUSH2 0xD79 JUMP JUMPDEST DUP2 PUSH2 0x427C JUMPI POP PUSH1 0x1 PUSH1 0x7F SHL PUSH2 0xD79 JUMP JUMPDEST PUSH1 0x0 DUP3 SGT ISZERO PUSH2 0x4293 JUMPI PUSH2 0x4293 PUSH2 0x954 PUSH1 0x1 DUP5 PUSH2 0x4890 JUMP JUMPDEST PUSH1 0x1 PUSH1 0x7F SHL PUSH1 0x1 PUSH1 0x7C SHL DUP4 SMOD DUP1 DUP1 MUL DUP3 SWAP1 SDIV PUSH8 0x10E1B3BE415A0000 DUP2 MUL SWAP4 SWAP1 SWAP4 ADD SWAP3 SWAP1 SWAP2 DUP2 DUP4 MUL SDIV SWAP1 POP DUP1 PUSH8 0x5A0913F6B1E0000 MUL DUP4 ADD SWAP3 POP PUSH1 0x1 PUSH1 0x7F SHL DUP3 DUP3 MUL DUP2 PUSH2 0x42DB JUMPI INVALID JUMPDEST SDIV SWAP1 POP DUP1 PUSH8 0x168244FDAC78000 MUL DUP4 ADD SWAP3 POP PUSH1 0x1 PUSH1 0x7F SHL DUP3 DUP3 MUL DUP2 PUSH2 0x42FC JUMPI INVALID JUMPDEST SDIV SWAP1 POP DUP1 PUSH7 0x4807432BC18000 MUL DUP4 ADD SWAP3 POP PUSH1 0x1 PUSH1 0x7F SHL DUP3 DUP3 MUL DUP2 PUSH2 0x431C JUMPI INVALID JUMPDEST SDIV SWAP1 POP DUP1 PUSH7 0xC0135DCA04000 MUL DUP4 ADD SWAP3 POP PUSH1 0x1 PUSH1 0x7F SHL DUP3 DUP3 MUL DUP2 PUSH2 0x433C JUMPI INVALID JUMPDEST SDIV SWAP1 POP DUP1 PUSH7 0x1B707B1CDC000 MUL DUP4 ADD SWAP3 POP PUSH1 0x1 PUSH1 0x7F SHL DUP3 DUP3 MUL DUP2 PUSH2 0x435C JUMPI INVALID JUMPDEST SDIV SWAP1 POP DUP1 PUSH6 0x36E0F639B800 MUL DUP4 ADD SWAP3 POP PUSH1 0x1 PUSH1 0x7F SHL DUP3 DUP3 MUL DUP2 PUSH2 0x437B JUMPI INVALID JUMPDEST SDIV SWAP1 POP DUP1 PUSH6 0x618FEE9F800 MUL DUP4 ADD SWAP3 POP PUSH1 0x1 PUSH1 0x7F SHL DUP3 DUP3 MUL DUP2 PUSH2 0x439A JUMPI INVALID JUMPDEST SDIV SWAP1 POP DUP1 PUSH5 0x9C197DCC00 MUL DUP4 ADD SWAP3 POP PUSH1 0x1 PUSH1 0x7F SHL DUP3 DUP3 MUL DUP2 PUSH2 0x43B8 JUMPI INVALID JUMPDEST SDIV SWAP1 POP DUP1 PUSH5 0xE30DCE400 MUL DUP4 ADD SWAP3 POP PUSH1 0x1 PUSH1 0x7F SHL DUP3 DUP3 MUL DUP2 PUSH2 0x43D6 JUMPI INVALID JUMPDEST SDIV SWAP1 POP DUP1 PUSH5 0x12EBD1300 MUL DUP4 ADD SWAP3 POP PUSH1 0x1 PUSH1 0x7F SHL DUP3 DUP3 MUL DUP2 PUSH2 0x43F4 JUMPI INVALID JUMPDEST SDIV SWAP1 POP DUP1 PUSH4 0x17499F00 MUL DUP4 ADD SWAP3 POP PUSH1 0x1 PUSH1 0x7F SHL DUP3 DUP3 MUL DUP2 PUSH2 0x4411 JUMPI INVALID JUMPDEST SDIV SWAP1 POP DUP1 PUSH4 0x1A9D480 MUL DUP4 ADD SWAP3 POP PUSH1 0x1 PUSH1 0x7F SHL DUP3 DUP3 MUL DUP2 PUSH2 0x442E JUMPI INVALID JUMPDEST SDIV SWAP1 POP DUP1 PUSH3 0x1C6380 MUL DUP4 ADD SWAP3 POP PUSH1 0x1 PUSH1 0x7F SHL DUP3 DUP3 MUL DUP2 PUSH2 0x444A JUMPI INVALID JUMPDEST SDIV SWAP1 POP DUP1 PUSH3 0x1C638 MUL DUP4 ADD SWAP3 POP PUSH1 0x1 PUSH1 0x7F SHL DUP3 DUP3 MUL DUP2 PUSH2 0x4466 JUMPI INVALID JUMPDEST SDIV SWAP1 POP DUP1 PUSH2 0x1AB8 MUL DUP4 ADD SWAP3 POP PUSH1 0x1 PUSH1 0x7F SHL DUP3 DUP3 MUL DUP2 PUSH2 0x4481 JUMPI INVALID JUMPDEST SDIV SWAP1 POP DUP1 PUSH2 0x17C MUL DUP4 ADD SWAP3 POP PUSH1 0x1 PUSH1 0x7F SHL DUP3 DUP3 MUL DUP2 PUSH2 0x449C JUMPI INVALID JUMPDEST SDIV SWAP1 POP DUP1 PUSH1 0x14 MUL DUP4 ADD SWAP3 POP PUSH1 0x1 PUSH1 0x7F SHL DUP3 DUP3 MUL DUP2 PUSH2 0x44B6 JUMPI INVALID JUMPDEST PUSH1 0x0 SWAP6 SWAP1 SWAP6 SUB SWAP5 PUSH8 0x21C3677C82B40000 SWAP2 SWAP1 SDIV SWAP4 DUP5 ADD SDIV DUP3 ADD PUSH1 0x1 PUSH1 0x7F SHL ADD SWAP3 SWAP1 POP PUSH1 0x1 PUSH1 0x84 SHL DUP5 AND ISZERO PUSH2 0x450C JUMPI PUSH19 0x43CBAF42A000812488FC5C220AD7B97BF6E99E PUSH13 0xF1AADDD7742E56D32FB9F99744 DUP5 MUL SDIV SWAP3 POP JUMPDEST PUSH1 0x1 PUSH1 0x83 SHL DUP5 AND ISZERO PUSH2 0x4541 JUMPI PUSH18 0x5D27A9F51C31B7C2F8038212A0574779991 PUSH15 0xAFE10820813D65DFE6A33C07F738F DUP5 MUL SDIV SWAP3 POP JUMPDEST PUSH1 0x1 PUSH1 0x82 SHL DUP5 AND ISZERO PUSH2 0x4576 JUMPI PUSH17 0x1B4C902E273A58678D6D3BFDB93DB96D02 PUSH16 0x2582AB704279E8EFD15E0265855C47A DUP5 MUL SDIV SWAP3 POP JUMPDEST PUSH1 0x1 PUSH1 0x81 SHL DUP5 AND ISZERO PUSH2 0x45AB JUMPI PUSH17 0x3B1CC971A9BB5B9867477440D6D157750 PUSH16 0x1152AAA3BF81CB9FDB76EAE12D029571 DUP5 MUL SDIV SWAP3 POP JUMPDEST PUSH1 0x1 PUSH1 0x80 SHL DUP5 AND ISZERO PUSH2 0x45E0 JUMPI PUSH17 0x15BF0A8B1457695355FB8AC404E7A79E3 PUSH16 0x2F16AC6C59DE6F8D5D6F63C1482A7C86 DUP5 MUL SDIV SWAP3 POP JUMPDEST PUSH1 0x1 PUSH1 0x7F SHL DUP5 AND ISZERO PUSH2 0x4614 JUMPI PUSH16 0xD3094C70F034DE4B96FF7D5B6F99FCD8 PUSH16 0x4DA2CBF1BE5827F9EB3AD1AA9866EBB3 DUP5 MUL SDIV SWAP3 POP JUMPDEST PUSH1 0x1 PUSH1 0x7E SHL DUP5 AND ISZERO PUSH2 0x4648 JUMPI PUSH16 0xA45AF1E1F40C333B3DE1DB4DD55F29A7 PUSH16 0x63AFBE7AB2082BA1A0AE5E4EB1B479DC DUP5 MUL SDIV SWAP3 POP JUMPDEST PUSH1 0x1 PUSH1 0x7D SHL DUP5 AND ISZERO PUSH2 0x467C JUMPI PUSH16 0x910B022DB7AE67CE76B441C27035C6A1 PUSH16 0x70F5A893B608861E1F58934F97AEA57D DUP5 MUL SDIV SWAP3 POP JUMPDEST PUSH1 0x1 PUSH1 0x7C SHL DUP5 AND ISZERO PUSH2 0x46B0 JUMPI PUSH16 0x88415ABBE9A76BEAD8D00CF112E4D4A8 PUSH16 0x783EAFEF1C0A8F3978C7F81824D62EBF DUP5 MUL SDIV SWAP3 POP JUMPDEST POP POP SWAP2 SWAP1 POP JUMP JUMPDEST PUSH1 0x0 PUSH1 0x1 PUSH1 0x7F SHL PUSH2 0x46C8 DUP5 DUP5 PUSH2 0x47F6 JUMP JUMPDEST DUP2 PUSH2 0x46CF JUMPI INVALID JUMPDEST SDIV SWAP4 SWAP3 POP POP POP JUMP JUMPDEST PUSH1 0x0 DUP1 DUP3 SLT ISZERO PUSH2 0x46EF JUMPI PUSH2 0x46EF PUSH2 0x954 PUSH1 0x1 DUP5 PUSH2 0x478F JUMP JUMPDEST PUSH1 0x0 PUSH2 0x46FB DUP5 DUP5 PUSH2 0x47F6 JUMP JUMPDEST SWAP1 POP PUSH1 0x0 DUP2 SGT PUSH2 0x470F JUMPI PUSH1 0x0 SWAP2 POP POP PUSH2 0x1154 JUMP JUMPDEST PUSH1 0x7F SHR SWAP4 SWAP3 POP POP POP JUMP JUMPDEST PUSH1 0x20 ADD MLOAD ISZERO ISZERO SWAP1 JUMP JUMPDEST PUSH1 0x0 DUP1 DUP6 PUSH2 0x4734 JUMPI POP DUP3 SWAP1 POP DUP2 PUSH2 0x4769 JUMP JUMPDEST DUP4 PUSH2 0x4743 JUMPI POP DUP5 SWAP1 POP DUP4 PUSH2 0x4769 JUMP JUMPDEST PUSH2 0x475A PUSH2 0x4750 DUP6 DUP8 PUSH2 0x39EE JUMP JUMPDEST PUSH2 0x36FB DUP9 DUP7 PUSH2 0x39EE JUMP JUMPDEST SWAP2 POP PUSH2 0x4766 DUP6 DUP5 PUSH2 0x39EE JUMP JUMPDEST SWAP1 POP JUMPDEST SWAP5 POP SWAP5 SWAP3 POP POP POP JUMP JUMPDEST PUSH1 0x0 DUP1 PUSH2 0x4784 DUP5 DUP5 PUSH1 0x1 PUSH1 0x7F SHL PUSH2 0x48A6 JUMP JUMPDEST SWAP2 POP SWAP2 POP SWAP3 POP SWAP3 SWAP1 POP JUMP JUMPDEST PUSH1 0x60 PUSH4 0xBD79545F PUSH1 0xE0 SHL DUP4 PUSH1 0x1 DUP2 GT ISZERO PUSH2 0x47A5 JUMPI INVALID JUMPDEST PUSH1 0x40 DUP1 MLOAD PUSH1 0xFF SWAP1 SWAP3 AND PUSH1 0x24 DUP4 ADD MSTORE PUSH1 0x44 DUP1 DUP4 ADD DUP7 SWAP1 MSTORE DUP2 MLOAD DUP1 DUP5 SUB SWAP1 SWAP2 ADD DUP2 MSTORE PUSH1 0x64 SWAP1 SWAP3 ADD SWAP1 MSTORE PUSH1 0x20 DUP2 ADD DUP1 MLOAD PUSH1 0x1 PUSH1 0x1 PUSH1 0xE0 SHL SUB AND PUSH1 0x1 PUSH1 0x1 PUSH1 0xE0 SHL SUB NOT SWAP1 SWAP4 AND SWAP3 SWAP1 SWAP3 OR SWAP1 SWAP2 MSTORE SWAP1 POP SWAP3 SWAP2 POP POP JUMP JUMPDEST PUSH1 0x0 DUP3 ISZERO DUP1 PUSH2 0x4803 JUMPI POP DUP2 ISZERO JUMPDEST ISZERO PUSH2 0x4810 JUMPI POP PUSH1 0x0 PUSH2 0x1154 JUMP JUMPDEST POP DUP2 DUP2 MUL DUP2 DUP4 DUP3 DUP2 PUSH2 0x481E JUMPI INVALID JUMPDEST SDIV EQ ISZERO DUP1 PUSH2 0x4835 JUMPI POP DUP3 DUP3 DUP3 DUP2 PUSH2 0x4831 JUMPI INVALID JUMPDEST SDIV EQ ISZERO JUMPDEST ISZERO PUSH2 0x1154 JUMPI PUSH2 0x1154 PUSH2 0x954 PUSH1 0x1 DUP6 DUP6 PUSH2 0x4902 JUMP JUMPDEST PUSH1 0x0 DUP2 PUSH2 0x485F JUMPI PUSH2 0x485F PUSH2 0x954 PUSH1 0x2 DUP6 DUP6 PUSH2 0x4902 JUMP JUMPDEST PUSH1 0x1 PUSH1 0xFF SHL DUP4 EQ DUP1 ISZERO PUSH2 0x4873 JUMPI POP DUP2 PUSH1 0x0 NOT EQ JUMPDEST ISZERO PUSH2 0x4887 JUMPI PUSH2 0x4887 PUSH2 0x954 PUSH1 0x3 DUP6 DUP6 PUSH2 0x4902 JUMP JUMPDEST DUP2 DUP4 DUP2 PUSH2 0x46CF JUMPI INVALID JUMPDEST PUSH1 0x60 PUSH4 0xED2F26A1 PUSH1 0xE0 SHL DUP4 PUSH1 0x1 DUP2 GT ISZERO PUSH2 0x47A5 JUMPI INVALID JUMPDEST PUSH1 0x0 DUP1 DUP3 DUP6 GT DUP1 PUSH2 0x48B6 JUMPI POP DUP3 DUP5 GT JUMPDEST ISZERO PUSH2 0x48F9 JUMPI PUSH1 0x0 DUP5 DUP7 LT ISZERO PUSH2 0x48CB JUMPI DUP5 PUSH2 0x48CD JUMP JUMPDEST DUP6 JUMPDEST SWAP1 POP PUSH2 0x48D9 DUP2 DUP6 PUSH2 0x3A1F JUMP JUMPDEST SWAP1 POP PUSH2 0x48E5 DUP7 DUP3 PUSH2 0x3A1F JUMP JUMPDEST SWAP3 POP PUSH2 0x48F1 DUP6 DUP3 PUSH2 0x3A1F JUMP JUMPDEST SWAP2 POP POP PUSH2 0x2C44 JUMP JUMPDEST POP SWAP3 SWAP4 SWAP2 SWAP3 POP POP JUMP JUMPDEST PUSH1 0x60 PUSH4 0x8C12DFE7 PUSH1 0xE0 SHL DUP5 PUSH1 0x3 DUP2 GT ISZERO PUSH2 0x4918 JUMPI INVALID JUMPDEST PUSH1 0x40 DUP1 MLOAD PUSH1 0xFF SWAP1 SWAP3 AND PUSH1 0x24 DUP4 ADD MSTORE PUSH1 0x44 DUP3 ADD DUP7 SWAP1 MSTORE PUSH1 0x64 DUP1 DUP4 ADD DUP7 SWAP1 MSTORE DUP2 MLOAD DUP1 DUP5 SUB SWAP1 SWAP2 ADD DUP2 MSTORE PUSH1 0x84 SWAP1 SWAP3 ADD SWAP1 MSTORE PUSH1 0x20 DUP2 ADD DUP1 MLOAD PUSH1 0x1 PUSH1 0x1 PUSH1 0xE0 SHL SUB AND PUSH1 0x1 PUSH1 0x1 PUSH1 0xE0 SHL SUB NOT SWAP1 SWAP4 AND SWAP3 SWAP1 SWAP3 OR SWAP1 SWAP2 MSTORE SWAP1 POP SWAP4 SWAP3 POP POP POP JUMP JUMPDEST PUSH1 0x40 MLOAD DUP1 PUSH1 0xA0 ADD PUSH1 0x40 MSTORE DUP1 PUSH1 0x0 DUP2 MSTORE PUSH1 0x20 ADD PUSH1 0x0 DUP2 MSTORE PUSH1 0x20 ADD PUSH1 0x0 DUP2 MSTORE PUSH1 0x20 ADD PUSH1 0x0 DUP2 MSTORE PUSH1 0x20 ADD PUSH1 0x0 DUP2 MSTORE POP SWAP1 JUMP JUMPDEST PUSH1 0x40 DUP1 MLOAD PUSH1 0x60 DUP2 ADD DUP3 MSTORE PUSH1 0x0 DUP1 DUP3 MSTORE PUSH1 0x20 DUP3 ADD DUP2 SWAP1 MSTORE SWAP2 DUP2 ADD SWAP2 SWAP1 SWAP2 MSTORE SWAP1 JUMP JUMPDEST PUSH1 0x40 MLOAD DUP1 PUSH1 0x60 ADD PUSH1 0x40 MSTORE DUP1 PUSH1 0x0 DUP2 MSTORE PUSH1 0x20 ADD PUSH1 0x0 DUP2 MSTORE PUSH1 0x20 ADD PUSH1 0x0 DUP2 MSTORE POP SWAP1 JUMP JUMPDEST PUSH1 0x40 DUP1 MLOAD PUSH1 0x80 DUP2 ADD DUP3 MSTORE PUSH1 0x0 DUP1 DUP3 MSTORE PUSH1 0x20 DUP3 ADD DUP2 SWAP1 MSTORE SWAP2 DUP2 ADD DUP3 SWAP1 MSTORE PUSH1 0x60 DUP2 ADD SWAP2 SWAP1 SWAP2 MSTORE SWAP1 JUMP JUMPDEST PUSH1 0x40 MLOAD DUP1 PUSH1 0x40 ADD PUSH1 0x40 MSTORE DUP1 PUSH1 0x0 DUP2 MSTORE PUSH1 0x20 ADD PUSH1 0x0 DUP2 MSTORE POP SWAP1 JUMP JUMPDEST DUP1 CALLDATALOAD PUSH1 0x2 DUP2 LT PUSH2 0xD79 JUMPI PUSH1 0x0 DUP1 REVERT JUMPDEST PUSH1 0x0 DUP3 PUSH1 0x1F DUP4 ADD SLT PUSH2 0x4A41 JUMPI DUP1 DUP2 REVERT JUMPDEST DUP2 MLOAD PUSH1 0x1 PUSH1 0x1 PUSH1 0x40 SHL SUB DUP1 DUP3 GT ISZERO PUSH2 0x4A55 JUMPI INVALID JUMPDEST PUSH1 0x40 MLOAD PUSH1 0x20 PUSH1 0x1F DUP5 ADD PUSH1 0x1F NOT AND DUP3 ADD DUP2 ADD DUP4 DUP2 GT DUP4 DUP3 LT OR ISZERO PUSH2 0x4A74 JUMPI INVALID JUMPDEST DUP1 PUSH1 0x40 MSTORE POP DUP2 SWAP5 POP DUP4 DUP3 MSTORE DUP7 DUP2 DUP6 DUP9 ADD ADD GT ISZERO PUSH2 0x4A90 JUMPI PUSH1 0x0 DUP1 REVERT JUMPDEST PUSH1 0x0 SWAP3 POP JUMPDEST DUP4 DUP4 LT ISZERO PUSH2 0x4AB2 JUMPI DUP6 DUP4 ADD DUP2 ADD MLOAD DUP3 DUP5 ADD DUP3 ADD MSTORE SWAP2 DUP3 ADD SWAP2 PUSH2 0x4A95 JUMP JUMPDEST DUP4 DUP4 GT ISZERO PUSH2 0x4AC3 JUMPI PUSH1 0x0 DUP2 DUP6 DUP5 ADD ADD MSTORE JUMPDEST POP POP POP POP SWAP3 SWAP2 POP POP JUMP JUMPDEST PUSH1 0x0 PUSH1 0x40 DUP3 DUP5 SUB SLT ISZERO PUSH2 0x22D3 JUMPI DUP1 DUP2 REVERT JUMPDEST DUP1 CALLDATALOAD PUSH4 0xFFFFFFFF DUP2 AND DUP2 EQ PUSH2 0xD79 JUMPI PUSH1 0x0 DUP1 REVERT JUMPDEST PUSH1 0x0 PUSH1 0x20 DUP3 DUP5 SUB SLT ISZERO PUSH2 0x4B03 JUMPI DUP1 DUP2 REVERT JUMPDEST DUP2 CALLDATALOAD PUSH2 0x1151 DUP2 PUSH2 0x51A0 JUMP JUMPDEST PUSH1 0x0 PUSH1 0x20 DUP3 DUP5 SUB SLT ISZERO PUSH2 0x4B1F JUMPI DUP1 DUP2 REVERT JUMPDEST DUP2 MLOAD PUSH2 0x1151 DUP2 PUSH2 0x51A0 JUMP JUMPDEST PUSH1 0x0 DUP1 PUSH1 0x40 DUP4 DUP6 SUB SLT ISZERO PUSH2 0x4B3C JUMPI DUP1 DUP2 REVERT JUMPDEST DUP3 CALLDATALOAD PUSH2 0x4B47 DUP2 PUSH2 0x51A0 JUMP JUMPDEST SWAP5 PUSH1 0x20 SWAP4 SWAP1 SWAP4 ADD CALLDATALOAD SWAP4 POP POP POP JUMP JUMPDEST PUSH1 0x0 DUP1 PUSH1 0x40 DUP4 DUP6 SUB SLT ISZERO PUSH2 0x4B67 JUMPI DUP2 DUP3 REVERT JUMPDEST DUP3 CALLDATALOAD PUSH2 0x4B72 DUP2 PUSH2 0x51A0 JUMP JUMPDEST SWAP2 POP PUSH2 0x4B80 PUSH1 0x20 DUP5 ADD PUSH2 0x4A22 JUMP JUMPDEST SWAP1 POP SWAP3 POP SWAP3 SWAP1 POP JUMP JUMPDEST PUSH1 0x0 DUP1 PUSH1 0x0 DUP1 PUSH1 0x0 DUP1 PUSH1 0xC0 DUP8 DUP10 SUB SLT ISZERO PUSH2 0x4BA1 JUMPI DUP2 DUP3 REVERT JUMPDEST DUP7 MLOAD PUSH2 0x4BAC DUP2 PUSH2 0x51A0 JUMP JUMPDEST PUSH1 0x20 DUP9 ADD MLOAD SWAP1 SWAP7 POP PUSH1 0x1 PUSH1 0x1 PUSH1 0x40 SHL SUB DUP1 DUP3 GT ISZERO PUSH2 0x4BC8 JUMPI DUP4 DUP5 REVERT JUMPDEST PUSH2 0x4BD4 DUP11 DUP4 DUP12 ADD PUSH2 0x4A31 JUMP JUMPDEST SWAP7 POP PUSH1 0x40 DUP10 ADD MLOAD SWAP2 POP DUP1 DUP3 GT ISZERO PUSH2 0x4BE9 JUMPI DUP4 DUP5 REVERT JUMPDEST POP PUSH2 0x4BF6 DUP10 DUP3 DUP11 ADD PUSH2 0x4A31 JUMP JUMPDEST SWAP5 POP POP PUSH1 0x60 DUP8 ADD MLOAD SWAP3 POP PUSH1 0x80 DUP8 ADD MLOAD PUSH2 0x4C0E DUP2 PUSH2 0x51A0 JUMP JUMPDEST PUSH1 0xA0 DUP9 ADD MLOAD SWAP1 SWAP3 POP PUSH2 0x4C1F DUP2 PUSH2 0x51A0 JUMP JUMPDEST DUP1 SWAP2 POP POP SWAP3 SWAP6 POP SWAP3 SWAP6 POP SWAP3 SWAP6 JUMP JUMPDEST PUSH1 0x0 DUP1 PUSH1 0x40 DUP4 DUP6 SUB SLT ISZERO PUSH2 0x4B3C JUMPI DUP2 DUP3 REVERT JUMPDEST PUSH1 0x0 PUSH1 0x20 DUP3 DUP5 SUB SLT ISZERO PUSH2 0x4C50 JUMPI DUP1 DUP2 REVERT JUMPDEST DUP2 MLOAD DUP1 ISZERO ISZERO DUP2 EQ PUSH2 0x1151 JUMPI DUP2 DUP3 REVERT JUMPDEST PUSH1 0x0 PUSH1 0x20 DUP3 DUP5 SUB SLT ISZERO PUSH2 0x4C70 JUMPI DUP1 DUP2 REVERT JUMPDEST POP CALLDATALOAD SWAP2 SWAP1 POP JUMP JUMPDEST PUSH1 0x0 DUP1 PUSH1 0x40 DUP4 DUP6 SUB SLT ISZERO PUSH2 0x4C89 JUMPI DUP2 DUP3 REVERT JUMPDEST DUP3 CALLDATALOAD SWAP2 POP PUSH1 0x20 DUP4 ADD CALLDATALOAD PUSH2 0x4C9B DUP2 PUSH2 0x51A0 JUMP JUMPDEST DUP1 SWAP2 POP POP SWAP3 POP SWAP3 SWAP1 POP JUMP JUMPDEST PUSH1 0x0 DUP1 PUSH1 0x40 DUP4 DUP6 SUB SLT ISZERO PUSH2 0x4CB8 JUMPI DUP2 DUP3 REVERT JUMPDEST POP POP DUP1 CALLDATALOAD SWAP3 PUSH1 0x20 SWAP1 SWAP2 ADD CALLDATALOAD SWAP2 POP JUMP JUMPDEST PUSH1 0x0 DUP1 PUSH1 0x40 DUP4 DUP6 SUB SLT ISZERO PUSH2 0x4CD9 JUMPI DUP2 DUP3 REVERT JUMPDEST DUP3 CALLDATALOAD SWAP2 POP PUSH2 0x4B80 PUSH1 0x20 DUP5 ADD PUSH2 0x4ADE JUMP JUMPDEST PUSH1 0x0 PUSH1 0x20 DUP3 DUP5 SUB SLT ISZERO PUSH2 0x4CFA JUMPI DUP1 DUP2 REVERT JUMPDEST PUSH2 0x1151 DUP3 PUSH2 0x4A22 JUMP JUMPDEST PUSH1 0x0 DUP1 PUSH1 0x0 PUSH1 0xA0 DUP5 DUP7 SUB SLT ISZERO PUSH2 0x4D17 JUMPI DUP3 DUP4 REVERT JUMPDEST PUSH2 0x4D21 DUP6 DUP6 PUSH2 0x4ACD JUMP JUMPDEST SWAP3 POP PUSH2 0x4D30 DUP6 PUSH1 0x40 DUP7 ADD PUSH2 0x4ACD JUMP JUMPDEST SWAP2 POP PUSH1 0x80 DUP5 ADD CALLDATALOAD SWAP1 POP SWAP3 POP SWAP3 POP SWAP3 JUMP JUMPDEST PUSH1 0x0 PUSH1 0x20 DUP3 DUP5 SUB SLT ISZERO PUSH2 0x4D51 JUMPI DUP1 DUP2 REVERT JUMPDEST POP MLOAD SWAP2 SWAP1 POP JUMP JUMPDEST PUSH1 0x0 DUP1 PUSH1 0x0 DUP1 PUSH1 0x0 DUP1 PUSH1 0xC0 DUP8 DUP10 SUB SLT ISZERO PUSH2 0x4D70 JUMPI DUP4 DUP5 REVERT JUMPDEST DUP7 MLOAD SWAP6 POP PUSH1 0x20 DUP8 ADD MLOAD PUSH1 0x1 PUSH1 0x1 PUSH1 0x40 SHL SUB DUP1 DUP3 GT ISZERO PUSH2 0x4D8D JUMPI DUP6 DUP7 REVERT JUMPDEST PUSH2 0x4D99 DUP11 DUP4 DUP12 ADD PUSH2 0x4A31 JUMP JUMPDEST SWAP7 POP PUSH1 0x40 DUP10 ADD MLOAD SWAP2 POP DUP1 DUP3 GT ISZERO PUSH2 0x4BE9 JUMPI DUP6 DUP7 REVERT JUMPDEST PUSH1 0x0 DUP1 PUSH1 0x0 DUP1 PUSH1 0x0 PUSH1 0xA0 DUP7 DUP9 SUB SLT ISZERO PUSH2 0x4DC5 JUMPI DUP3 DUP4 REVERT JUMPDEST DUP6 CALLDATALOAD SWAP5 POP PUSH2 0x4DD5 PUSH1 0x20 DUP8 ADD PUSH2 0x4ADE JUMP JUMPDEST SWAP4 POP PUSH1 0x40 DUP7 ADD CALLDATALOAD SWAP3 POP PUSH2 0x4DEA PUSH1 0x60 DUP8 ADD PUSH2 0x4ADE JUMP JUMPDEST SWAP2 POP PUSH2 0x4DF8 PUSH1 0x80 DUP8 ADD PUSH2 0x4ADE JUMP JUMPDEST SWAP1 POP SWAP3 SWAP6 POP SWAP3 SWAP6 SWAP1 SWAP4 POP JUMP JUMPDEST PUSH1 0x1 PUSH1 0x1 PUSH1 0xA0 SHL SUB SWAP2 SWAP1 SWAP2 AND DUP2 MSTORE PUSH1 0x20 ADD SWAP1 JUMP JUMPDEST PUSH1 0x1 PUSH1 0x1 PUSH1 0xA0 SHL SUB SWAP3 SWAP1 SWAP3 AND DUP3 MSTORE PUSH1 0x20 DUP3 ADD MSTORE PUSH1 0x40 ADD SWAP1 JUMP JUMPDEST PUSH1 0x20 DUP1 DUP3 MSTORE DUP3 MLOAD DUP3 DUP3 ADD DUP2 SWAP1 MSTORE PUSH1 0x0 SWAP2 SWAP1 DUP5 DUP3 ADD SWAP1 PUSH1 0x40 DUP6 ADD SWAP1 DUP5 JUMPDEST DUP2 DUP2 LT ISZERO PUSH2 0x4E72 JUMPI DUP4 MLOAD PUSH1 0x1 PUSH1 0x1 PUSH1 0xA0 SHL SUB AND DUP4 MSTORE SWAP3 DUP5 ADD SWAP3 SWAP2 DUP5 ADD SWAP2 PUSH1 0x1 ADD PUSH2 0x4E4D JUMP JUMPDEST POP SWAP1 SWAP7 SWAP6 POP POP POP POP POP POP JUMP JUMPDEST SWAP1 ISZERO ISZERO DUP2 MSTORE PUSH1 0x20 ADD SWAP1 JUMP JUMPDEST SWAP1 DUP2 MSTORE PUSH1 0x20 ADD SWAP1 JUMP JUMPDEST SWAP3 DUP4 MSTORE PUSH1 0x1 PUSH1 0x1 PUSH1 0xA0 SHL SUB SWAP2 SWAP1 SWAP2 AND PUSH1 0x20 DUP4 ADD MSTORE PUSH4 0xFFFFFFFF AND PUSH1 0x40 DUP3 ADD MSTORE PUSH1 0x60 ADD SWAP1 JUMP JUMPDEST SWAP2 DUP3 MSTORE PUSH1 0x20 DUP3 ADD MSTORE PUSH1 0x40 ADD SWAP1 JUMP JUMPDEST PUSH1 0x20 DUP1 DUP3 MSTORE PUSH1 0x1C SWAP1 DUP3 ADD MSTORE PUSH32 0x4E4F4E5F524547495354455245445F504F4F4C5F49445F4552524F5200000000 PUSH1 0x40 DUP3 ADD MSTORE PUSH1 0x60 ADD SWAP1 JUMP JUMPDEST PUSH1 0x20 DUP1 DUP3 MSTORE PUSH1 0x1B SWAP1 DUP3 ADD MSTORE PUSH32 0x504F4F4C5F544F5F4A4F494E5F4E4F545F53454C465F4552524F520000000000 PUSH1 0x40 DUP3 ADD MSTORE PUSH1 0x60 ADD SWAP1 JUMP JUMPDEST PUSH1 0x20 DUP1 DUP3 MSTORE PUSH1 0x1C SWAP1 DUP3 ADD MSTORE PUSH32 0x4E4F4E5F524547495354455245445F52425F504F4F4C5F4552524F5200000000 PUSH1 0x40 DUP3 ADD MSTORE PUSH1 0x60 ADD SWAP1 JUMP JUMPDEST PUSH1 0x20 DUP1 DUP3 MSTORE PUSH1 0x13 SWAP1 DUP3 ADD MSTORE PUSH19 0x10D497D25395115495905317D2539590531251 PUSH1 0x6A SHL PUSH1 0x40 DUP3 ADD MSTORE PUSH1 0x60 ADD SWAP1 JUMP JUMPDEST DUP2 MLOAD DUP2 MSTORE PUSH1 0x20 DUP1 DUP4 ADD MLOAD SWAP1 DUP3 ADD MSTORE PUSH1 0x40 SWAP2 DUP3 ADD MLOAD SWAP2 DUP2 ADD SWAP2 SWAP1 SWAP2 MSTORE PUSH1 0x60 ADD SWAP1 JUMP JUMPDEST DUP2 MLOAD PUSH1 0x1 PUSH1 0x1 PUSH1 0xA0 SHL SUB SWAP1 DUP2 AND DUP3 MSTORE PUSH1 0x20 DUP1 DUP5 ADD MLOAD SWAP1 SWAP2 AND SWAP1 DUP3 ADD MSTORE PUSH1 0x40 DUP1 DUP4 ADD MLOAD PUSH4 0xFFFFFFFF SWAP1 DUP2 AND SWAP2 DUP4 ADD SWAP2 SWAP1 SWAP2 MSTORE PUSH1 0x60 SWAP3 DUP4 ADD MLOAD AND SWAP2 DUP2 ADD SWAP2 SWAP1 SWAP2 MSTORE PUSH1 0x80 ADD SWAP1 JUMP JUMPDEST DUP2 MLOAD PUSH1 0x1 PUSH1 0x1 PUSH1 0x40 SHL SUB AND DUP2 MSTORE PUSH1 0x20 DUP1 DUP4 ADD MLOAD PUSH1 0x1 PUSH1 0x1 PUSH1 0x60 SHL SUB SWAP1 DUP2 AND SWAP2 DUP4 ADD SWAP2 SWAP1 SWAP2 MSTORE PUSH1 0x40 SWAP3 DUP4 ADD MLOAD AND SWAP2 DUP2 ADD SWAP2 SWAP1 SWAP2 MSTORE PUSH1 0x60 ADD SWAP1 JUMP JUMPDEST SWAP3 DUP4 MSTORE PUSH1 0x20 DUP4 ADD SWAP2 SWAP1 SWAP2 MSTORE PUSH1 0x40 DUP3 ADD MSTORE PUSH1 0x60 ADD SWAP1 JUMP JUMPDEST SWAP4 DUP5 MSTORE PUSH1 0x20 DUP5 ADD SWAP3 SWAP1 SWAP3 MSTORE PUSH1 0x40 DUP4 ADD MSTORE PUSH1 0x60 DUP3 ADD MSTORE PUSH1 0x80 ADD SWAP1 JUMP JUMPDEST SWAP5 DUP6 MSTORE PUSH1 0x20 DUP6 ADD SWAP4 SWAP1 SWAP4 MSTORE PUSH1 0x40 DUP5 ADD SWAP2 SWAP1 SWAP2 MSTORE PUSH1 0x60 DUP4 ADD MSTORE PUSH1 0x80 DUP3 ADD MSTORE PUSH1 0xA0 ADD SWAP1 JUMP JUMPDEST SWAP5 DUP6 MSTORE PUSH4 0xFFFFFFFF SWAP4 DUP5 AND PUSH1 0x20 DUP7 ADD MSTORE PUSH1 0x40 DUP6 ADD SWAP3 SWAP1 SWAP3 MSTORE DUP3 AND PUSH1 0x60 DUP5 ADD MSTORE AND PUSH1 0x80 DUP3 ADD MSTORE PUSH1 0xA0 ADD SWAP1 JUMP JUMPDEST SWAP3 DUP4 MSTORE PUSH1 0xFF SWAP2 DUP3 AND PUSH1 0x20 DUP5 ADD MSTORE AND PUSH1 0x40 DUP3 ADD MSTORE PUSH1 0x60 ADD SWAP1 JUMP JUMPDEST PUSH4 0xFFFFFFFF SWAP2 SWAP1 SWAP2 AND DUP2 MSTORE PUSH1 0x20 ADD SWAP1 JUMP JUMPDEST PUSH4 0xFFFFFFFF SWAP3 DUP4 AND DUP2 MSTORE SWAP2 AND PUSH1 0x20 DUP3 ADD MSTORE PUSH1 0x40 ADD SWAP1 JUMP JUMPDEST PUSH1 0xE0 SHR SWAP1 JUMP JUMPDEST PUSH1 0x0 PUSH1 0x44 RETURNDATASIZE LT ISZERO PUSH2 0x510C JUMPI PUSH2 0xBB2 JUMP JUMPDEST PUSH1 0x4 DUP2 DUP3 RETURNDATACOPY PUSH4 0x8C379A0 PUSH2 0x5120 DUP3 MLOAD PUSH2 0x50F6 JUMP JUMPDEST EQ PUSH2 0x512A JUMPI PUSH2 0xBB2 JUMP JUMPDEST PUSH1 0x40 MLOAD RETURNDATASIZE PUSH1 0x3 NOT ADD PUSH1 0x4 DUP3 RETURNDATACOPY DUP1 MLOAD RETURNDATASIZE PUSH1 0x1 PUSH1 0x1 PUSH1 0x40 SHL SUB DUP2 PUSH1 0x24 DUP5 ADD GT DUP2 DUP5 GT OR ISZERO PUSH2 0x5159 JUMPI POP POP POP POP PUSH2 0xBB2 JUMP JUMPDEST DUP3 DUP5 ADD SWAP3 POP DUP3 MLOAD SWAP2 POP DUP1 DUP3 GT ISZERO PUSH2 0x5173 JUMPI POP POP POP POP PUSH2 0xBB2 JUMP JUMPDEST POP RETURNDATASIZE DUP4 ADD PUSH1 0x20 DUP3 DUP5 ADD ADD GT ISZERO PUSH2 0x518B JUMPI POP POP POP PUSH2 0xBB2 JUMP JUMPDEST PUSH1 0x1F ADD PUSH1 0x1F NOT AND DUP2 ADD PUSH1 0x20 ADD PUSH1 0x40 MSTORE SWAP2 POP POP SWAP1 JUMP JUMPDEST PUSH1 0x1 PUSH1 0x1 PUSH1 0xA0 SHL SUB DUP2 AND DUP2 EQ PUSH2 0x1105 JUMPI PUSH1 0x0 DUP1 REVERT INVALID LOG2 PUSH5 0x6970667358 0x22 SLT KECCAK256 INVALID 0xB7 BYTE 0xE5 EQ POP 0x29 CALLER SAR LOG0 GAS SWAP12 GAS 0xA9 0x23 DIFFICULTY NUMBER 0x24 CREATE CALLDATALOAD PUSH14 0x1B4C1DEA4DA0034B32556664736F PUSH13 0x63430007040033000000000000 "
			}
		}
	},
	"sourceTreeHashHex": "0x42dbdacb9ff072b9e8fb516d5576a7746e7335ae1d05a2f8dbec6c6501221d61",
	"compiler": {
		"name": "solc",
		"version": "0.7.4+commit.3f05b770",
		"settings": {
			"remappings": [],
			"optimizer": {
				"enabled": true,
				"runs": 200
			},
			"outputSelection": {
				"*": {
					"*": [
						"abi",
						"devdoc",
						"evm.bytecode.object",
						"evm.bytecode.sourceMap",
						"evm.deployedBytecode.object",
						"evm.deployedBytecode.sourceMap"
					]
				}
			}
		}
	},
	"chains": {}
}