{
	"schemaVersion": "2.0.0",
	"contractName": "TotlePrimary",
	"compilerOutput": {
		"abi": [
			{
				"constant": false,
				"inputs": [
					{
						"name": "signer",
						"type": "address"
					}
				],
				"name": "removeSigner",
				"outputs": [],
				"payable": false,
				"stateMutability": "nonpayable",
				"type": "function"
			},
			{
				"constant": true,
				"inputs": [],
				"name": "tokenTransferProxy",
				"outputs": [
					{
						"name": "",
						"type": "address"
					}
				],
				"payable": false,
				"stateMutability": "view",
				"type": "function"
			},
			{
				"constant": false,
				"inputs": [],
				"name": "unpause",
				"outputs": [],
				"payable": false,
				"stateMutability": "nonpayable",
				"type": "function"
			},
			{
				"constant": true,
				"inputs": [],
				"name": "paused",
				"outputs": [
					{
						"name": "",
						"type": "bool"
					}
				],
				"payable": false,
				"stateMutability": "view",
				"type": "function"
			},
			{
				"constant": false,
				"inputs": [],
				"name": "renounceOwnership",
				"outputs": [],
				"payable": false,
				"stateMutability": "nonpayable",
				"type": "function"
			},
			{
				"constant": true,
				"inputs": [
					{
						"name": "",
						"type": "address"
					}
				],
				"name": "signers",
				"outputs": [
					{
						"name": "",
						"type": "bool"
					}
				],
				"payable": false,
				"stateMutability": "view",
				"type": "function"
			},
			{
				"constant": false,
				"inputs": [],
				"name": "pause",
				"outputs": [],
				"payable": false,
				"stateMutability": "nonpayable",
				"type": "function"
			},
			{
				"constant": true,
				"inputs": [],
				"name": "owner",
				"outputs": [
					{
						"name": "",
						"type": "address"
					}
				],
				"payable": false,
				"stateMutability": "view",
				"type": "function"
			},
			{
				"constant": false,
				"inputs": [
					{
						"name": "_token",
						"type": "address"
					},
					{
						"name": "_amount",
						"type": "uint256"
					}
				],
				"name": "withdrawToken",
				"outputs": [
					{
						"name": "",
						"type": "bool"
					}
				],
				"payable": false,
				"stateMutability": "nonpayable",
				"type": "function"
			},
			{
				"constant": false,
				"inputs": [
					{
						"components": [
							{
								"components": [
									{
										"components": [
											{
												"name": "sourceToken",
												"type": "address"
											},
											{
												"name": "destinationToken",
												"type": "address"
											},
											{
												"name": "amount",
												"type": "uint256"
											},
											{
												"name": "isSourceAmount",
												"type": "bool"
											},
											{
												"components": [
													{
														"name": "exchangeHandler",
														"type": "address"
													},
													{
														"name": "encodedPayload",
														"type": "bytes"
													}
												],
												"name": "orders",
												"type": "tuple[]"
											}
										],
										"name": "trades",
										"type": "tuple[]"
									},
									{
										"name": "minimumExchangeRate",
										"type": "uint256"
									},
									{
										"name": "minimumDestinationAmount",
										"type": "uint256"
									},
									{
										"name": "sourceAmount",
										"type": "uint256"
									},
									{
										"name": "tradeToTakeFeeFrom",
										"type": "uint256"
									},
									{
										"name": "takeFeeFromSource",
										"type": "bool"
									},
									{
										"name": "redirectAddress",
										"type": "address"
									},
									{
										"name": "required",
										"type": "bool"
									}
								],
								"name": "swaps",
								"type": "tuple[]"
							},
							{
								"name": "partnerContract",
								"type": "address"
							},
							{
								"name": "expirationBlock",
								"type": "uint256"
							},
							{
								"name": "id",
								"type": "bytes32"
							},
							{
								"name": "v",
								"type": "uint8"
							},
							{
								"name": "r",
								"type": "bytes32"
							},
							{
								"name": "s",
								"type": "bytes32"
							}
						],
						"name": "swaps",
						"type": "tuple"
					}
				],
				"name": "performSwapCollection",
				"outputs": [],
				"payable": true,
				"stateMutability": "payable",
				"type": "function"
			},
			{
				"constant": false,
				"inputs": [
					{
						"name": "newSigner",
						"type": "address"
					}
				],
				"name": "addSigner",
				"outputs": [],
				"payable": false,
				"stateMutability": "nonpayable",
				"type": "function"
			},
			{
				"constant": false,
				"inputs": [
					{
						"name": "_amount",
						"type": "uint256"
					}
				],
				"name": "withdrawETH",
				"outputs": [],
				"payable": false,
				"stateMutability": "nonpayable",
				"type": "function"
			},
			{
				"constant": false,
				"inputs": [
					{
						"name": "_newOwner",
						"type": "address"
					}
				],
				"name": "transferOwnership",
				"outputs": [],
				"payable": false,
				"stateMutability": "nonpayable",
				"type": "function"
			},
			{
				"constant": false,
				"inputs": [
					{
						"name": "a",
						"type": "string"
					},
					{
						"name": "b",
						"type": "uint256"
					},
					{
						"name": "c",
						"type": "bytes32"
					}
				],
				"name": "log",
				"outputs": [],
				"payable": false,
				"stateMutability": "nonpayable",
				"type": "function"
			},
			{
				"inputs": [
					{
						"name": "_tokenTransferProxy",
						"type": "address"
					},
					{
						"name": "_signer",
						"type": "address"
					}
				],
				"payable": false,
				"stateMutability": "nonpayable",
				"type": "constructor"
			},
			{
				"payable": true,
				"stateMutability": "payable",
				"type": "fallback"
			},
			{
				"anonymous": false,
				"inputs": [
					{
						"indexed": true,
						"name": "id",
						"type": "bytes32"
					},
					{
						"indexed": true,
						"name": "partnerContract",
						"type": "address"
					},
					{
						"indexed": true,
						"name": "user",
						"type": "address"
					}
				],
				"name": "LogSwapCollection",
				"type": "event"
			},
			{
				"anonymous": false,
				"inputs": [
					{
						"indexed": true,
						"name": "id",
						"type": "bytes32"
					},
					{
						"indexed": false,
						"name": "sourceAsset",
						"type": "address"
					},
					{
						"indexed": false,
						"name": "destinationAsset",
						"type": "address"
					},
					{
						"indexed": false,
						"name": "sourceAmount",
						"type": "uint256"
					},
					{
						"indexed": false,
						"name": "destinationAmount",
						"type": "uint256"
					},
					{
						"indexed": false,
						"name": "feeAsset",
						"type": "address"
					},
					{
						"indexed": false,
						"name": "feeAmount",
						"type": "uint256"
					}
				],
				"name": "LogSwap",
				"type": "event"
			},
			{
				"anonymous": false,
				"inputs": [
					{
						"indexed": false,
						"name": "a",
						"type": "string"
					},
					{
						"indexed": false,
						"name": "b",
						"type": "uint256"
					},
					{
						"indexed": false,
						"name": "c",
						"type": "bytes32"
					}
				],
				"name": "Log",
				"type": "event"
			},
			{
				"anonymous": false,
				"inputs": [],
				"name": "Paused",
				"type": "event"
			},
			{
				"anonymous": false,
				"inputs": [],
				"name": "Unpaused",
				"type": "event"
			},
			{
				"anonymous": false,
				"inputs": [
					{
						"indexed": true,
						"name": "previousOwner",
						"type": "address"
					}
				],
				"name": "OwnershipRenounced",
				"type": "event"
			},
			{
				"anonymous": false,
				"inputs": [
					{
						"indexed": true,
						"name": "previousOwner",
						"type": "address"
					},
					{
						"indexed": true,
						"name": "newOwner",
						"type": "address"
					}
				],
				"name": "OwnershipTransferred",
				"type": "event"
			}
		],
		"devdoc": {
			"methods": {
				"constructor": {
					"params": {
						"_signer": "the suggester's address that signs the payloads. More can be added with add/removeSigner functions",
						"_tokenTransferProxy": "address of the TokenTransferProxy"
					}
				},
				"pause()": {
					"details": "called by the owner to pause, triggers stopped state"
				},
				"paused()": {
					"return": "true if the contract is paused, false otherwise."
				},
				"performSwapCollection((((address,address,uint256,bool,(address,bytes)[])[],uint256,uint256,uint256,uint256,bool,address,bool)[],address,uint256,bytes32,uint8,bytes32,bytes32))": {
					"params": {
						"swaps": "The struct that defines the collection of swaps to perform"
					}
				},
				"renounceOwnership()": {
					"details": "Allows the current owner to relinquish control of the contract."
				},
				"transferOwnership(address)": {
					"details": "Allows the current owner to transfer control of the contract to a newOwner.",
					"params": {
						"_newOwner": "The address to transfer ownership to."
					}
				},
				"unpause()": {
					"details": "called by the owner to unpause, returns to normal state"
				},
				"withdrawETH(uint256)": {
					"details": "onlyOwner modifier only allows the contract owner to run the code",
					"params": {
						"_amount": "The amount of ether that the caller wants to withdraw"
					}
				},
				"withdrawToken(address,uint256)": {
					"details": "onlyOwner modifier only allows the contract owner to run the code",
					"params": {
						"_amount": "The amount of tokens that the caller wants to withdraw",
						"_token": "The address of the token that the user wants to withdraw"
					},
					"return": "bool value indicating whether the transfer was successful"
				}
			},
			"title": "The primary contract for Totle"
		},
		"evm": {
			"bytecode": {
				"linkReferences": {},
				"object": "0x60806040526000805460a060020a60ff02191690553480156200002157600080fd5b5060405160408062003f868339810180604052620000439190810190620000a2565b6000805433600160a060020a031991821617825560018054909116600160a060020a0394851617815591909216825260026020526040909120805460ff1916909117905562000100565b60006200009b8251620000ed565b9392505050565b60008060408385031215620000b657600080fd5b6000620000c485856200008d565b9250506020620000d7858286016200008d565b9150509250929050565b600160a060020a031690565b6000620000fa82620000e1565b92915050565b613e7680620001106000396000f3fe6080604052600436106100fa576000357c0100000000000000000000000000000000000000000000000000000000900480638da5cb5b1161009c578063eb12d61e11610076578063eb12d61e146102bc578063f14210a6146102dc578063f2fde38b146102fc578063faa6a1b91461031c576100fa565b80638da5cb5b146102675780639e281a9814610289578063a32305a2146102a9576100fa565b80635c975abb116100d85780635c975abb146101fb578063715018a61461021d578063736c0d5b146102325780638456cb5914610252576100fa565b80630e316ab7146101995780630eefdbad146101bb5780633f4ba83a146101e6575b60005474010000000000000000000000000000000000000000900460ff1615610158576040517f08c379a000000000000000000000000000000000000000000000000000000000815260040161014f90613cb9565b60405180910390fd5b33803b90811515610195576040517f08c379a000000000000000000000000000000000000000000000000000000000815260040161014f90613b3d565b5050005b3480156101a557600080fd5b506101b96101b4366004612da4565b61033c565b005b3480156101c757600080fd5b506101d06103ac565b6040516101dd9190613a37565b60405180910390f35b3480156101f257600080fd5b506101b96103c8565b34801561020757600080fd5b50610210610493565b6040516101dd91906139ef565b34801561022957600080fd5b506101b96104b4565b34801561023e57600080fd5b5061021061024d366004612da4565b610545565b34801561025e57600080fd5b506101b961055a565b34801561027357600080fd5b5061027c61063b565b6040516101dd91906138e6565b34801561029557600080fd5b506102106102a4366004612dc2565b610657565b6101b96102b7366004612e60565b6106aa565b3480156102c857600080fd5b506101b96102d7366004612da4565b610a99565b3480156102e857600080fd5b506101b96102f7366004612e95565b610b0c565b34801561030857600080fd5b506101b9610317366004612da4565b610b7a565b34801561032857600080fd5b506101b9610337366004612dfc565b610baa565b60005473ffffffffffffffffffffffffffffffffffffffff16331461036057600080fd5b73ffffffffffffffffffffffffffffffffffffffff16600090815260026020526040902080547fffffffffffffffffffffffffffffffffffffffffffffffffffffffffffffff00169055565b60015473ffffffffffffffffffffffffffffffffffffffff1681565b60005473ffffffffffffffffffffffffffffffffffffffff1633146103ec57600080fd5b60005474010000000000000000000000000000000000000000900460ff161515610442576040517f08c379a000000000000000000000000000000000000000000000000000000000815260040161014f90613aae565b600080547fffffffffffffffffffffff00ffffffffffffffffffffffffffffffffffffffff1681556040517fa45f47fdea8a1efdd9029a5691c7f759c32b7c698632b563573e155625d169339190a1565b60005474010000000000000000000000000000000000000000900460ff1690565b60005473ffffffffffffffffffffffffffffffffffffffff1633146104d857600080fd5b6000805460405173ffffffffffffffffffffffffffffffffffffffff909116917ff8df31144d9c2f0f6b59d69b8b98abd5459d07f2742c4df920b25aae33c6482091a2600080547fffffffffffffffffffffffff0000000000000000000000000000000000000000169055565b60026020526000908152604090205460ff1681565b60005473ffffffffffffffffffffffffffffffffffffffff16331461057e57600080fd5b60005474010000000000000000000000000000000000000000900460ff16156105d3576040517f08c379a000000000000000000000000000000000000000000000000000000000815260040161014f90613cb9565b600080547fffffffffffffffffffffff00ffffffffffffffffffffffffffffffffffffffff16740100000000000000000000000000000000000000001781556040517f9e87fac88ff661f02d44f95383c817fece4bce600a3dab7a54406878b965e7529190a1565b60005473ffffffffffffffffffffffffffffffffffffffff1681565b6000805473ffffffffffffffffffffffffffffffffffffffff16331461067c57600080fd5b6000546106a190849073ffffffffffffffffffffffffffffffffffffffff1684610bea565b90505b92915050565b60005474010000000000000000000000000000000000000000900460ff16156106ff576040517f08c379a000000000000000000000000000000000000000000000000000000000815260040161014f90613cb9565b8043816040015111151561073f576040517f08c379a000000000000000000000000000000000000000000000000000000000815260040161014f90613cd9565b81600081600001518260200151836040015184606001513360405160200161076b95949392919061399e565b604080517fffffffffffffffffffffffffffffffffffffffffffffffffffffffffffffffe08184038101825283835281516020928301207f19457468657265756d205369676e6564204d6573736167653a0a33320000000085840152603c80860182905284518087039091018152605c8601808652815191850191909120608089015160a08a015160c08b0151600094859052607c8a01808a529390935260ff909116609c89015260bc88015260dc870152935190955060029460019360fc808301949193918201928290030190855afa15801561084d573d6000803e3d6000fd5b5050604080517fffffffffffffffffffffffffffffffffffffffffffffffffffffffffffffffe0015173ffffffffffffffffffffffffffffffffffffffff168352602083019390935250016000205460ff1615156108d7576040517f08c379a000000000000000000000000000000000000000000000000000000000815260040161014f90613b4d565b6108df612919565b60408051908101604052806108f2610d8c565b73ffffffffffffffffffffffffffffffffffffffff1681523460209182015281835201516040517ffaa6a1b9000000000000000000000000000000000000000000000000000000008152309163faa6a1b9916109549190600090600401613bbd565b600060405180830381600087803b15801561096e57600080fd5b505af1158015610982573d6000803e3d6000fd5b506000925050505b855151811015610a3b5760608601516040517ffaa6a1b9000000000000000000000000000000000000000000000000000000008152309163faa6a1b9916109d5918591600401613c1d565b600060405180830381600087803b1580156109ef57600080fd5b505af1158015610a03573d6000803e3d6000fd5b505050606087015187518051610a33935084908110610a1e57fe5b90602001906020020151848960200151610d91565b60010161098a565b5060208501516060860151604051339273ffffffffffffffffffffffffffffffffffffffff1691907fc3dcfccc2c1c6fe2a908d1825ba2e62b5b2d61a6b9c500791f75cdc538bdeb9d90600090a4610a92816114c1565b5050505050565b60005473ffffffffffffffffffffffffffffffffffffffff163314610abd57600080fd5b73ffffffffffffffffffffffffffffffffffffffff16600090815260026020526040902080547fffffffffffffffffffffffffffffffffffffffffffffffffffffffffffffff00166001179055565b60005473ffffffffffffffffffffffffffffffffffffffff163314610b3057600080fd5b6000805460405173ffffffffffffffffffffffffffffffffffffffff9091169183156108fc02918491818181858888f19350505050158015610b76573d6000803e3d6000fd5b5050565b60005473ffffffffffffffffffffffffffffffffffffffff163314610b9e57600080fd5b610ba781611632565b50565b7fcc410ffa3e9942e8763e877fc47f77578aaff21d03fac001ec2568600a4919c1838383604051610bdd93929190613a45565b60405180910390a1505050565b60008373ffffffffffffffffffffffffffffffffffffffff168383604051602401610c16929190613983565b604080517fffffffffffffffffffffffffffffffffffffffffffffffffffffffffffffffe08184030181529181526020820180517bffffffffffffffffffffffffffffffffffffffffffffffffffffffff167fa9059cbb0000000000000000000000000000000000000000000000000000000017815290518251909182918083835b60208310610cd557805182527fffffffffffffffffffffffffffffffffffffffffffffffffffffffffffffffe09092019160209182019101610c98565b6001836020036101000a0380198251168184511680821785525050505050509050019150506000604051808303816000865af19150503d8060008114610d37576040519150601f19603f3d011682016040523d82523d6000602084013e610d3c565b606091505b5090915050801515610d7a576040517f08c379a000000000000000000000000000000000000000000000000000000000815260040161014f90613b1d565b610d826116e1565b90505b9392505050565b600090565b82518051610dbb9184916000908110610da657fe5b60209081029091010151516060860151611710565b1515610e02578260e0015115610dfd576040517f08c379a000000000000000000000000000000000000000000000000000000000815260040161014f90613c69565b6114bb565b60008080805b86515181101561104157866080015181148015610e2657508660a001515b15610e655786518051610e6291889184908110610e3f57fe5b6020908102909101015151878415610e575786610e5d565b8a606001515b611b83565b91505b6040517ffaa6a1b9000000000000000000000000000000000000000000000000000000008152600090309063faa6a1b990610ea69084908190600401613c49565b600060405180830381600087803b158015610ec057600080fd5b505af1158015610ed4573d6000803e3d6000fd5b50505050610f53886000015183815181101515610eed57fe5b9060200190602002015188610f4e85600014610f095787610f0f565b8b606001515b8b610f368d8f600001518a815181101515610f2657fe5b6020908102909101015151611dbc565b60148110610f4057fe5b602002015160200151611ea1565b611eb7565b8951805191965091925083908110610f6757fe5b9060200190602002015160600151158015610f9c57508751805183908110610f8b57fe5b906020019060200201516040015184105b15610fe7578760e0015115610fdd576040517f08c379a000000000000000000000000000000000000000000000000000000000815260040161014f90613cc9565b50505050506114bb565b811515610ff2578094505b87608001518214801561100757508760a00151155b1561103857875180516110359189918590811061102057fe5b90602001906020020151602001518887611b83565b92505b50600101610e08565b506040517ffaa6a1b9000000000000000000000000000000000000000000000000000000008152309063faa6a1b990611081906000908190600401613ade565b600060405180830381600087803b15801561109b57600080fd5b505af11580156110af573d6000803e3d6000fd5b5050875180518a93507f7c396f87ca37e7dab636d7ffad74fe2ef4729fda118a0a2c105bf74f4890437f925060009081106110e657fe5b6020908102909101015151885180517fffffffffffffffffffffffffffffffffffffffffffffffffffffffffffffffff810190811061112157fe5b906020019060200201516020015186868b60a0015161115e578b5160808d01518151811061114b57fe5b906020019060200201516020015161117b565b8b5160808d01518151811061116f57fe5b60209081029091010151515b8760405161118e96959493929190613929565b60405180910390a28560400151821015611245576040517ffaa6a1b9000000000000000000000000000000000000000000000000000000008152309063faa6a1b9906111e1906000908190600401613bad565b600060405180830381600087803b1580156111fb57600080fd5b505af115801561120f573d6000803e3d6000fd5b505050506040517f08c379a000000000000000000000000000000000000000000000000000000000815260040161014f90613b8d565b855180516112b29190600090811061125957fe5b6020908102909101015151875180517fffffffffffffffffffffffffffffffffffffffffffffffffffffffffffffffff810190811061129457fe5b90602001906020020151602001518860600151858a602001516120b7565b1561135a576040517ffaa6a1b9000000000000000000000000000000000000000000000000000000008152309063faa6a1b9906112f6906000908190600401613bfd565b600060405180830381600087803b15801561131057600080fd5b505af1158015611324573d6000803e3d6000fd5b505050506040517f08c379a000000000000000000000000000000000000000000000000000000000815260040161014f90613bdd565b60c086015173ffffffffffffffffffffffffffffffffffffffff16331480159061139d575060c086015173ffffffffffffffffffffffffffffffffffffffff1615155b156114b7576040517ffaa6a1b9000000000000000000000000000000000000000000000000000000008152309063faa6a1b9906113e1908590600090600401613ace565b600060405180830381600087803b1580156113fb57600080fd5b505af115801561140f573d6000803e3d6000fd5b50508751805161146d93508892506114629183917fffffffffffffffffffffffffffffffffffffffffffffffffffffffffffffffff810190811061144f57fe5b9060200190602002015160200151611dbc565b8860c0015185612340565b855180516114b79187917fffffffffffffffffffffffffffffffffffffffffffffffffffffffffffffffff81019081106114a357fe5b9060200190602002015160200151846123fa565b5050505b50505050565b6040517ffaa6a1b9000000000000000000000000000000000000000000000000000000008152309063faa6a1b990611500906000908190600401613c59565b600060405180830381600087803b15801561151a57600080fd5b505af115801561152e573d6000803e3d6000fd5b506000925050505b6014811015610b765780158015906115755750600082826014811061155757fe5b60200201515173ffffffffffffffffffffffffffffffffffffffff16145b156115805750610ba7565b3063faa6a1b983836014811061159257fe5b60200201516020015160006040518363ffffffff167c01000000000000000000000000000000000000000000000000000000000281526004016115d6929190613afd565b600060405180830381600087803b1580156115f057600080fd5b505af1158015611604573d6000803e3d6000fd5b5050505061162a828233858560148110151561161c57fe5b602002015160200151612340565b600101611536565b73ffffffffffffffffffffffffffffffffffffffff8116151561165457600080fd5b6000805460405173ffffffffffffffffffffffffffffffffffffffff808516939216917f8be0079c531659141344cd1fd0a4f28419497f9722a3daafe3b4186f6b6457e091a3600080547fffffffffffffffffffffffff00000000000000000000000000000000000000001673ffffffffffffffffffffffffffffffffffffffff92909216919091179055565b60003d80156116f7576020811461170057600080fd5b6001915061170c565b60206000803e60005191505b5090565b600061171a610d8c565b73ffffffffffffffffffffffffffffffffffffffff168373ffffffffffffffffffffffffffffffffffffffff16141561184e578351602001518211156117d4576040517ffaa6a1b9000000000000000000000000000000000000000000000000000000008152309063faa6a1b990611799906000908190600401613b6d565b600060405180830381600087803b1580156117b357600080fd5b505af11580156117c7573d6000803e3d6000fd5b5050505060009050610d85565b6040517ffaa6a1b9000000000000000000000000000000000000000000000000000000008152309063faa6a1b990611813906000908190600401613b2d565b600060405180830381600087803b15801561182d57600080fd5b505af1158015611841573d6000803e3d6000fd5b5050505060019050610d85565b600061185a8585611dbc565b905084816014811061186857fe5b602002015160200151831115611b78576040517ffaa6a1b9000000000000000000000000000000000000000000000000000000008152309063faa6a1b9906118b7906000908190600401613b9d565b600060405180830381600087803b1580156118d157600080fd5b505af11580156118e5573d6000803e3d6000fd5b50506001546000925073ffffffffffffffffffffffffffffffffffffffff16905085333089866014811061191557fe5b602002015160200151880360405160240161193394939291906138f4565b604080517fffffffffffffffffffffffffffffffffffffffffffffffffffffffffffffffe08184030181529181526020820180517bffffffffffffffffffffffffffffffffffffffffffffffffffffffff167f15dacbea0000000000000000000000000000000000000000000000000000000017815290518251909182918083835b602083106119f257805182527fffffffffffffffffffffffffffffffffffffffffffffffffffffffffffffffe090920191602091820191016119b5565b6001836020036101000a0380198251168184511680821785525050505050509050019150506000604051808303816000865af19150503d8060008114611a54576040519150601f19603f3d011682016040523d82523d6000602084013e611a59565b606091505b50909150508015611afc576040517ffaa6a1b9000000000000000000000000000000000000000000000000000000008152309063faa6a1b990611aa3906000908190600401613c99565b600060405180830381600087803b158015611abd57600080fd5b505af1158015611ad1573d6000803e3d6000fd5b50505050838683601481101515611ae457fe5b60200201516020018181525050600192505050610d85565b6040517ffaa6a1b9000000000000000000000000000000000000000000000000000000008152309063faa6a1b990611b3b906000908190600401613bcd565b600060405180830381600087803b158015611b5557600080fd5b505af1158015611b69573d6000803e3d6000fd5b50505050600092505050610d85565b506001949350505050565b60008083905060008173ffffffffffffffffffffffffffffffffffffffff1663064367bb6040518163ffffffff167c010000000000000000000000000000000000000000000000000000000002815260040160206040518083038186803b158015611bed57600080fd5b505afa158015611c01573d6000803e3d6000fd5b505050506040513d601f19601f82011682018060405250611c259190810190612eb3565b6040517ffaa6a1b9000000000000000000000000000000000000000000000000000000008152909150309063faa6a1b990611c67908490600090600401613a9e565b600060405180830381600087803b158015611c8157600080fd5b505af1158015611c95573d6000803e3d6000fd5b50505050611ca38482612413565b6040517ffaa6a1b9000000000000000000000000000000000000000000000000000000008152909350309063faa6a1b990611ce5908690600090600401613a72565b600060405180830381600087803b158015611cff57600080fd5b505af1158015611d13573d6000803e3d6000fd5b50505050611d2c87611d258989611dbc565b8786612340565b611d4087611d3a8989611dbc565b85612430565b6040517ffaa6a1b9000000000000000000000000000000000000000000000000000000008152309063faa6a1b990611d7f906000908190600401613b0d565b600060405180830381600087803b158015611d9957600080fd5b505af1158015611dad573d6000803e3d6000fd5b5050505050505b949350505050565b6000805b6014811015611e9a5773ffffffffffffffffffffffffffffffffffffffff8316848260148110611dec57fe5b60200201515173ffffffffffffffffffffffffffffffffffffffff161415611e155790506106a4565b8015801590611e4b57506000848260148110611e2d57fe5b60200201515173ffffffffffffffffffffffffffffffffffffffff16145b15611e92576040805180820190915273ffffffffffffffffffffffffffffffffffffffff8416815260006020820152848260148110611e8657fe5b602002015290506106a4565b600101611dc0565b5092915050565b6000818310611eb057816106a1565b5090919050565b6000808080805b87608001515181101561201d5785858703612710021015611ede5761201d565b6040517ffaa6a1b9000000000000000000000000000000000000000000000000000000008152309063faa6a1b990611f1d908490600090600401613c79565b600060405180830381600087803b158015611f3757600080fd5b505af1158015611f4b573d6000803e3d6000fd5b50505050611f97886080015182815181101515611f6457fe5b906020019060200201518688038a60600151611f8657868b6040015103611f8a565b8789035b60608c01518c518c612455565b6040517ffaa6a1b90000000000000000000000000000000000000000000000000000000081529194509250309063faa6a1b990611fdb906000908190600401613bed565b600060405180830381600087803b158015611ff557600080fd5b505af1158015612009573d6000803e3d6000fd5b505050948301945092810192600101611ebe565b5061202d86886020015183612779565b61203c868860000151846123fa565b6040517ffaa6a1b9000000000000000000000000000000000000000000000000000000008152309063faa6a1b99061207b908590600090600401613abe565b600060405180830381600087803b15801561209557600080fd5b505af11580156120a9573d6000803e3d6000fd5b505050505050935093915050565b6040517ffaa6a1b9000000000000000000000000000000000000000000000000000000008152600090309063faa6a1b9906120f89087908590600401613c89565b600060405180830381600087803b15801561211257600080fd5b505af1158015612126573d6000803e3d6000fd5b505050506000612134610d8c565b73ffffffffffffffffffffffffffffffffffffffff168773ffffffffffffffffffffffffffffffffffffffff16146121745761216f87612792565b612177565b60125b6040517ffaa6a1b9000000000000000000000000000000000000000000000000000000008152909150309063faa6a1b9906121b9908790600090600401613b7d565b600060405180830381600087803b1580156121d357600080fd5b505af11580156121e7573d6000803e3d6000fd5b5050505060006121f5610d8c565b73ffffffffffffffffffffffffffffffffffffffff168773ffffffffffffffffffffffffffffffffffffffff16146122355761223087612792565b612238565b60125b6040517ffaa6a1b9000000000000000000000000000000000000000000000000000000008152909150309063faa6a1b99061227a906000908190600401613b5d565b600060405180830381600087803b15801561229457600080fd5b505af11580156122a8573d6000803e3d6000fd5b5050505060006122ba8787858561280a565b6040517ffaa6a1b9000000000000000000000000000000000000000000000000000000008152909150309063faa6a1b9906122fc908490600090600401613c0d565b600060405180830381600087803b15801561231657600080fd5b505af115801561232a573d6000803e3d6000fd5b5050505084811093505050505b95945050505050565b60008111156114bb57612351610d8c565b73ffffffffffffffffffffffffffffffffffffffff1684846014811061237357fe5b60200201515173ffffffffffffffffffffffffffffffffffffffff1614156123de5760405173ffffffffffffffffffffffffffffffffffffffff83169082156108fc029083906000818181858888f193505050501580156123d8573d6000803e3d6000fd5b506114bb565b610a928484601481106123ed57fe5b6020020151518383610bea565b60006124068484611dbc565b90506114bb848284612430565b60006106a161242284846128a5565b670de0b6b3a76400006128d0565b8083836014811061243d57fe5b60200201516020018181510391508181525050505050565b6040517ffaa6a1b90000000000000000000000000000000000000000000000000000000081526000908190309063faa6a1b990612498908a908590600401613ca9565b600060405180830381600087803b1580156124b257600080fd5b505af11580156124c6573d6000803e3d6000fd5b505050506124d2610d8c565b73ffffffffffffffffffffffffffffffffffffffff168473ffffffffffffffffffffffffffffffffffffffff1614156125c157875160208901516040517f0345c2a600000000000000000000000000000000000000000000000000000000815273ffffffffffffffffffffffffffffffffffffffff90921691630345c2a6918a91612566919083908c908c906004016139fd565b60408051808303818588803b15801561257e57600080fd5b505af1158015612592573d6000803e3d6000fd5b50505050506040513d601f19601f820116820180604052506125b79190810190612ed1565b909250905061268c565b6125d7836125cf8587611dbc565b8a518a612340565b875160208901516040517f0345c2a600000000000000000000000000000000000000000000000000000000815273ffffffffffffffffffffffffffffffffffffffff90921691630345c2a691612635918b908b908b906004016139fd565b6040805180830381600087803b15801561264e57600080fd5b505af1158015612662573d6000803e3d6000fd5b505050506040513d601f19601f820116820180604052506126869190810190612ed1565b90925090505b6040517ffaa6a1b9000000000000000000000000000000000000000000000000000000008152309063faa6a1b9906126cb908590600090600401613ca9565b600060405180830381600087803b1580156126e557600080fd5b505af11580156126f9573d6000803e3d6000fd5b50506040517ffaa6a1b900000000000000000000000000000000000000000000000000000000815230925063faa6a1b9915061273c908490600090600401613ca9565b600060405180830381600087803b15801561275657600080fd5b505af115801561276a573d6000803e3d6000fd5b50505050965096945050505050565b60006127858484611dbc565b90506114bb8482846128f4565b604080517f646563696d616c732829000000000000000000000000000000000000000000008152905190819003600a0181208082526000916004602080838381888a611388f18080156127ec57600181146127f5576127fa565b600096506127fa565b845196505b5050505060040160405250919050565b60006b204fce5e3e2502611000000085111561282557600080fd5b6b204fce5e3e2502611000000084111561283e57600080fd5b828210612879576012838303111561285557600080fd5b84838303600a0a02670de0b6b3a7640000850281151561287157fe5b049050611db4565b6012828403111561288957600080fd5b84828403600a0a670de0b6b3a764000086020281151561287157fe5b60008215156128b6575060006106a4565b8282028284828115156128c557fe5b04146106a157600080fd5b60008082116128de57600080fd5b600082848115156128eb57fe5b04949350505050565b8083836014811061290157fe5b60200201516020018181510191508181525050505050565b610500604051908101604052806014905b612932612948565b81526020019060019003908161292a5790505090565b604080518082019091526000808252602082015290565b60006106a18235613d81565b6000601f8201831361297c57600080fd5b813561298f61298a82613d10565b613ce9565b81815260209384019390925082018360005b838110156129cd57813586016129b78882612af8565b84525060209283019291909101906001016129a1565b5050505092915050565b6000601f820183136129e857600080fd5b81356129f661298a82613d10565b81815260209384019390925082018360005b838110156129cd5781358601612a1e8882612c19565b8452506020928301929190910190600101612a08565b6000601f82018313612a4557600080fd5b8135612a5361298a82613d10565b81815260209384019390925082018360005b838110156129cd5781358601612a7b8882612cf1565b8452506020928301929190910190600101612a65565b60006106a18235613d8c565b60006106a18235613d91565b6000601f82018313612aba57600080fd5b8135612ac861298a82613d31565b91508082526020830160208301858383011115612ae457600080fd5b612aef838284613ddc565b50505092915050565b600060408284031215612b0a57600080fd5b612b146040613ce9565b90506000612b22848461295f565b825250602082013567ffffffffffffffff811115612b3f57600080fd5b612b4b84828501612aa9565b60208301525092915050565b600060e08284031215612b6957600080fd5b612b7360e0613ce9565b9050813567ffffffffffffffff811115612b8c57600080fd5b612b98848285016129d7565b8252506020612ba98484830161295f565b6020830152506040612bbd84828501612a9d565b6040830152506060612bd184828501612a9d565b6060830152506080612be584828501612d98565b60808301525060a0612bf984828501612a9d565b60a08301525060c0612c0d84828501612a9d565b60c08301525092915050565b60006101008284031215612c2c57600080fd5b612c37610100613ce9565b9050813567ffffffffffffffff811115612c5057600080fd5b612c5c84828501612a34565b8252506020612c6d84848301612a9d565b6020830152506040612c8184828501612a9d565b6040830152506060612c9584828501612a9d565b6060830152506080612ca984828501612a9d565b60808301525060a0612cbd84828501612a91565b60a08301525060c0612cd18482850161295f565b60c08301525060e0612ce584828501612a91565b60e08301525092915050565b600060a08284031215612d0357600080fd5b612d0d60a0613ce9565b90506000612d1b848461295f565b8252506020612d2c8484830161295f565b6020830152506040612d4084828501612a9d565b6040830152506060612d5484828501612a91565b606083015250608082013567ffffffffffffffff811115612d7457600080fd5b612d808482850161296b565b60808301525092915050565b60006106a18251613d91565b60006106a18235613dad565b600060208284031215612db657600080fd5b6000611db4848461295f565b60008060408385031215612dd557600080fd5b6000612de1858561295f565b9250506020612df285828601612a9d565b9150509250929050565b600080600060608486031215612e1157600080fd5b833567ffffffffffffffff811115612e2857600080fd5b612e3486828701612aa9565b9350506020612e4586828701612a9d565b9250506040612e5686828701612a9d565b9150509250925092565b600060208284031215612e7257600080fd5b813567ffffffffffffffff811115612e8957600080fd5b611db484828501612b57565b600060208284031215612ea757600080fd5b6000611db48484612a9d565b600060208284031215612ec557600080fd5b6000611db48484612d8c565b60008060408385031215612ee457600080fd5b6000612ef08585612d8c565b9250506020612df285828601612d8c565b612f0a81613d81565b82525050565b6000612f1b82613d7d565b80845260208401935083602082028501612f3485613d77565b60005b84811015612f6b578383038852612f4f8383516137ad565b9250612f5a82613d77565b602098909801979150600101612f37565b50909695505050505050565b6000612f8282613d7d565b80845260208401935083602082028501612f9b85613d77565b60005b84811015612f6b578383038852612fb68383516137d9565b9250612fc182613d77565b602098909801979150600101612f9e565b6000612fdd82613d7d565b80845260208401935083602082028501612ff685613d77565b60005b84811015612f6b578383038852613011838351613881565b925061301c82613d77565b602098909801979150600101612ff9565b612f0a81613d8c565b612f0a81613d91565b600061304a82613d7d565b80845261305e816020860160208601613de8565b61306781613e14565b9093016020019392505050565b612f0a81613db3565b612f0a81613dbe565b612f0a81613dd1565b600a81527f54616b696e672066656500000000000000000000000000000000000000000000602082015260400190565b601281527f476f74206665652070657263656e746167650000000000000000000000000000602082015260400190565b601481527f436f6e7472616374206e6f74207061757365642e000000000000000000000000602082015260400190565b600f81527f547261646520706572666f726d65640000000000000000000000000000000000602082015260400190565b601881527f41626f757420746f20726564697265637420746f6b656e730000000000000000602082015260400190565b601581527f41626f757420746f20656d6974204c6f67537761700000000000000000000000602082015260400190565b601381527f5472616e7366657272696e6720746f6b656e7300000000000000000000000000602082015260400190565b600881527f546f6f6b20666565000000000000000000000000000000000000000000000000602082015260400190565b600f81527f5472616e73666572206661696c65640000000000000000000000000000000000602082015260400190565b600a81527f456e6f7567682065746800000000000000000000000000000000000000000000602082015260400190565b602981527f454f412063616e6e6f742073656e6420657468657220746f207072696d61727960208201527f2066616c6c6261636b0000000000000000000000000000000000000000000000604082015260600190565b601181527f496e76616c6964207369676e6174757265000000000000000000000000000000602082015260400190565b601d81527f41626f757420746f2063616c63756c61746520616d6f756e7420676f74000000602082015260400190565b600e81527f4e6f7420656e6f75676820657468000000000000000000000000000000000000602082015260400190565b602181527f41626f757420746f206765742064657374696e6174696f6e20646563696d616c60208201527f7300000000000000000000000000000000000000000000000000000000000000604082015260600190565b602d81527f546f6b656e7320676f74206c657373207468616e206d696e696d756d4465737460208201527f696e6174696f6e416d6f756e7400000000000000000000000000000000000000604082015260600190565b601581527f5472616e7366657272696e6720696e20746f6b656e0000000000000000000000602082015260400190565b602181527f4d696e696d756d2064657374696e6174696f6e20616d6f756e74206661696c6560208201527f6400000000000000000000000000000000000000000000000000000000000000604082015260600190565b601381527f43726561746564206574682062616c616e636500000000000000000000000000602082015260400190565b601781527f4469646e27742067657420656e6f75676820746f6b656e000000000000000000602082015260400190565b601d81527f4d696e696d756d2065786368616e67652072617465206e6f74206d6574000000602082015260400190565b600f81527f4f7264657220706572666f726d65640000000000000000000000000000000000602082015260400190565b601381527f4d696e696d756d2072617465206661696c656400000000000000000000000000602082015260400190565b601581527f41626f757420746f20706572666f726d20737761700000000000000000000000602082015260400190565b601581527f41626f757420746f20706572666f726d54726164650000000000000000000000602082015260400190565b601c81527f41626f757420746f207472616e7366657220616c6c20746f6b656e7300000000602082015260400190565b602681527f4661696c656420746f2067657420746f6b656e7320666f72207265717569726560208201527f6420737761700000000000000000000000000000000000000000000000000000604082015260600190565b601681527f41626f757420746f20706572666f726d206f7264657200000000000000000000602082015260400190565b601c81527f41626f757420746f2067657420736f7572636520646563696d616c7300000000602082015260400190565b601081527f476f7420656e6f75676820746f6b656e00000000000000000000000000000000602082015260400190565b601081527f506572666f726d696e67206f7264657200000000000000000000000000000000602082015260400190565b601381527f436f6e7472616374206973207061757365642e00000000000000000000000000602082015260400190565b601d81527f4e6f7420656e6f7567682064657374696e6174696f6e20616d6f756e74000000602082015260400190565b600781527f4578706972656400000000000000000000000000000000000000000000000000602082015260400190565b805160009060408401906137c18582612f01565b5060208301518482036020860152612337828261303f565b8051610100808452600091908401906137f28282612fd2565b91505060208301516138076020860182613036565b50604083015161381a6040860182613036565b50606083015161382d6060860182613036565b5060808301516138406080860182613036565b5060a083015161385360a086018261302d565b5060c083015161386660c0860182612f01565b5060e083015161387960e086018261302d565b509392505050565b805160009060a08401906138958582612f01565b5060208301516138a86020860182612f01565b5060408301516138bb6040860182613036565b5060608301516138ce606086018261302d565b50608083015184820360808601526123378282612f10565b602081016106a48284612f01565b608081016139028287612f01565b61390f6020830186612f01565b61391c6040830185612f01565b6123376060830184613036565b60c081016139378289612f01565b6139446020830188612f01565b6139516040830187613036565b61395e6060830186613036565b61396b6080830185612f01565b61397860a0830184613036565b979650505050505050565b604081016139918285612f01565b610d856020830184613036565b60a080825281016139af8188612f77565b90506139be6020830187612f01565b6139cb6040830186613036565b6139d86060830185613036565b6139e56080830184612f01565b9695505050505050565b602081016106a4828461302d565b60808082528101613a0e818761303f565b9050613a1d6020830186613036565b613a2a6040830185613036565b612337606083018461302d565b602081016106a48284613074565b60608082528101613a56818661303f565b9050613a656020830185613036565b611db46040830184613036565b60608082528101613a828161308f565b9050613a916020830185613036565b610d85604083018461307d565b60608082528101613a82816130bf565b602080825281016106a4816130ef565b60608082528101613a828161311f565b60608082528101613a828161314f565b60608082528101613aee8161317f565b9050613a916020830185613086565b60608082528101613a82816131af565b60608082528101613aee816131df565b602080825281016106a48161320f565b60608082528101613aee8161323f565b602080825281016106a48161326f565b602080825281016106a4816132c5565b60608082528101613aee816132f5565b60608082528101613aee81613325565b60608082528101613a8281613355565b602080825281016106a4816133ab565b60608082528101613aee81613401565b60608082528101613aee81613431565b60608082528101613a8281613487565b60608082528101613aee816134b7565b602080825281016106a4816134e7565b60608082528101613aee81613517565b60608082528101613aee81613547565b60608082528101613a8281613547565b60608082528101613c2d81613577565b9050613c3c6020830185613036565b610d856040830184613036565b60608082528101613aee816135a7565b60608082528101613aee816135d7565b602080825281016106a481613607565b60608082528101613a828161365d565b60608082528101613a828161368d565b60608082528101613aee816136bd565b60608082528101613a82816136ed565b602080825281016106a48161371d565b602080825281016106a48161374d565b602080825281016106a48161377d565b60405181810167ffffffffffffffff81118282101715613d0857600080fd5b604052919050565b600067ffffffffffffffff821115613d2757600080fd5b5060209081020190565b600067ffffffffffffffff821115613d4857600080fd5b506020601f919091017fffffffffffffffffffffffffffffffffffffffffffffffffffffffffffffffe0160190565b60200190565b5190565b60006106a482613d94565b151590565b90565b73ffffffffffffffffffffffffffffffffffffffff1690565b60ff1690565b60006106a482613d81565b60006106a4613dcc83613d91565b613d91565b60006106a482613d91565b82818337506000910152565b60005b83811015613e03578181015183820152602001613deb565b838111156114bb5750506000910152565b601f017fffffffffffffffffffffffffffffffffffffffffffffffffffffffffffffffe0169056fea265627a7a7230582099749d91b713dada69d43af04c7f1e7e879d91850ff538d89828280c7f7622e16c6578706572696d656e74616cf50037",
				"opcodes": "PUSH1 0x80 PUSH1 0x40 MSTORE PUSH1 0x0 DUP1 SLOAD PUSH1 0xA0 PUSH1 0x2 EXP PUSH1 0xFF MUL NOT AND SWAP1 SSTORE CALLVALUE DUP1 ISZERO PUSH3 0x21 JUMPI PUSH1 0x0 DUP1 REVERT JUMPDEST POP PUSH1 0x40 MLOAD PUSH1 0x40 DUP1 PUSH3 0x3F86 DUP4 CODECOPY DUP2 ADD DUP1 PUSH1 0x40 MSTORE PUSH3 0x43 SWAP2 SWAP1 DUP2 ADD SWAP1 PUSH3 0xA2 JUMP JUMPDEST PUSH1 0x0 DUP1 SLOAD CALLER PUSH1 0x1 PUSH1 0xA0 PUSH1 0x2 EXP SUB NOT SWAP2 DUP3 AND OR DUP3 SSTORE PUSH1 0x1 DUP1 SLOAD SWAP1 SWAP2 AND PUSH1 0x1 PUSH1 0xA0 PUSH1 0x2 EXP SUB SWAP5 DUP6 AND OR DUP2 SSTORE SWAP2 SWAP1 SWAP3 AND DUP3 MSTORE PUSH1 0x2 PUSH1 0x20 MSTORE PUSH1 0x40 SWAP1 SWAP2 KECCAK256 DUP1 SLOAD PUSH1 0xFF NOT AND SWAP1 SWAP2 OR SWAP1 SSTORE PUSH3 0x100 JUMP JUMPDEST PUSH1 0x0 PUSH3 0x9B DUP3 MLOAD PUSH3 0xED JUMP JUMPDEST SWAP4 SWAP3 POP POP POP JUMP JUMPDEST PUSH1 0x0 DUP1 PUSH1 0x40 DUP4 DUP6 SUB SLT ISZERO PUSH3 0xB6 JUMPI PUSH1 0x0 DUP1 REVERT JUMPDEST PUSH1 0x0 PUSH3 0xC4 DUP6 DUP6 PUSH3 0x8D JUMP JUMPDEST SWAP3 POP POP PUSH1 0x20 PUSH3 0xD7 DUP6 DUP3 DUP7 ADD PUSH3 0x8D JUMP JUMPDEST SWAP2 POP POP SWAP3 POP SWAP3 SWAP1 POP JUMP JUMPDEST PUSH1 0x1 PUSH1 0xA0 PUSH1 0x2 EXP SUB AND SWAP1 JUMP JUMPDEST PUSH1 0x0 PUSH3 0xFA DUP3 PUSH3 0xE1 JUMP JUMPDEST SWAP3 SWAP2 POP POP JUMP JUMPDEST PUSH2 0x3E76 DUP1 PUSH3 0x110 PUSH1 0x0 CODECOPY PUSH1 0x0 RETURN INVALID PUSH1 0x80 PUSH1 0x40 MSTORE PUSH1 0x4 CALLDATASIZE LT PUSH2 0xFA JUMPI PUSH1 0x0 CALLDATALOAD PUSH29 0x100000000000000000000000000000000000000000000000000000000 SWAP1 DIV DUP1 PUSH4 0x8DA5CB5B GT PUSH2 0x9C JUMPI DUP1 PUSH4 0xEB12D61E GT PUSH2 0x76 JUMPI DUP1 PUSH4 0xEB12D61E EQ PUSH2 0x2BC JUMPI DUP1 PUSH4 0xF14210A6 EQ PUSH2 0x2DC JUMPI DUP1 PUSH4 0xF2FDE38B EQ PUSH2 0x2FC JUMPI DUP1 PUSH4 0xFAA6A1B9 EQ PUSH2 0x31C JUMPI PUSH2 0xFA JUMP JUMPDEST DUP1 PUSH4 0x8DA5CB5B EQ PUSH2 0x267 JUMPI DUP1 PUSH4 0x9E281A98 EQ PUSH2 0x289 JUMPI DUP1 PUSH4 0xA32305A2 EQ PUSH2 0x2A9 JUMPI PUSH2 0xFA JUMP JUMPDEST DUP1 PUSH4 0x5C975ABB GT PUSH2 0xD8 JUMPI DUP1 PUSH4 0x5C975ABB EQ PUSH2 0x1FB JUMPI DUP1 PUSH4 0x715018A6 EQ PUSH2 0x21D JUMPI DUP1 PUSH4 0x736C0D5B EQ PUSH2 0x232 JUMPI DUP1 PUSH4 0x8456CB59 EQ PUSH2 0x252 JUMPI PUSH2 0xFA JUMP JUMPDEST DUP1 PUSH4 0xE316AB7 EQ PUSH2 0x199 JUMPI DUP1 PUSH4 0xEEFDBAD EQ PUSH2 0x1BB JUMPI DUP1 PUSH4 0x3F4BA83A EQ PUSH2 0x1E6 JUMPI JUMPDEST PUSH1 0x0 SLOAD PUSH21 0x10000000000000000000000000000000000000000 SWAP1 DIV PUSH1 0xFF AND ISZERO PUSH2 0x158 JUMPI PUSH1 0x40 MLOAD PUSH32 0x8C379A000000000000000000000000000000000000000000000000000000000 DUP2 MSTORE PUSH1 0x4 ADD PUSH2 0x14F SWAP1 PUSH2 0x3CB9 JUMP JUMPDEST PUSH1 0x40 MLOAD DUP1 SWAP2 SUB SWAP1 REVERT JUMPDEST CALLER DUP1 EXTCODESIZE SWAP1 DUP2 ISZERO ISZERO PUSH2 0x195 JUMPI PUSH1 0x40 MLOAD PUSH32 0x8C379A000000000000000000000000000000000000000000000000000000000 DUP2 MSTORE PUSH1 0x4 ADD PUSH2 0x14F SWAP1 PUSH2 0x3B3D JUMP JUMPDEST POP POP STOP JUMPDEST CALLVALUE DUP1 ISZERO PUSH2 0x1A5 JUMPI PUSH1 0x0 DUP1 REVERT JUMPDEST POP PUSH2 0x1B9 PUSH2 0x1B4 CALLDATASIZE PUSH1 0x4 PUSH2 0x2DA4 JUMP JUMPDEST PUSH2 0x33C JUMP JUMPDEST STOP JUMPDEST CALLVALUE DUP1 ISZERO PUSH2 0x1C7 JUMPI PUSH1 0x0 DUP1 REVERT JUMPDEST POP PUSH2 0x1D0 PUSH2 0x3AC JUMP JUMPDEST PUSH1 0x40 MLOAD PUSH2 0x1DD SWAP2 SWAP1 PUSH2 0x3A37 JUMP JUMPDEST PUSH1 0x40 MLOAD DUP1 SWAP2 SUB SWAP1 RETURN JUMPDEST CALLVALUE DUP1 ISZERO PUSH2 0x1F2 JUMPI PUSH1 0x0 DUP1 REVERT JUMPDEST POP PUSH2 0x1B9 PUSH2 0x3C8 JUMP JUMPDEST CALLVALUE DUP1 ISZERO PUSH2 0x207 JUMPI PUSH1 0x0 DUP1 REVERT JUMPDEST POP PUSH2 0x210 PUSH2 0x493 JUMP JUMPDEST PUSH1 0x40 MLOAD PUSH2 0x1DD SWAP2 SWAP1 PUSH2 0x39EF JUMP JUMPDEST CALLVALUE DUP1 ISZERO PUSH2 0x229 JUMPI PUSH1 0x0 DUP1 REVERT JUMPDEST POP PUSH2 0x1B9 PUSH2 0x4B4 JUMP JUMPDEST CALLVALUE DUP1 ISZERO PUSH2 0x23E JUMPI PUSH1 0x0 DUP1 REVERT JUMPDEST POP PUSH2 0x210 PUSH2 0x24D CALLDATASIZE PUSH1 0x4 PUSH2 0x2DA4 JUMP JUMPDEST PUSH2 0x545 JUMP JUMPDEST CALLVALUE DUP1 ISZERO PUSH2 0x25E JUMPI PUSH1 0x0 DUP1 REVERT JUMPDEST POP PUSH2 0x1B9 PUSH2 0x55A JUMP JUMPDEST CALLVALUE DUP1 ISZERO PUSH2 0x273 JUMPI PUSH1 0x0 DUP1 REVERT JUMPDEST POP PUSH2 0x27C PUSH2 0x63B JUMP JUMPDEST PUSH1 0x40 MLOAD PUSH2 0x1DD SWAP2 SWAP1 PUSH2 0x38E6 JUMP JUMPDEST CALLVALUE DUP1 ISZERO PUSH2 0x295 JUMPI PUSH1 0x0 DUP1 REVERT JUMPDEST POP PUSH2 0x210 PUSH2 0x2A4 CALLDATASIZE PUSH1 0x4 PUSH2 0x2DC2 JUMP JUMPDEST PUSH2 0x657 JUMP JUMPDEST PUSH2 0x1B9 PUSH2 0x2B7 CALLDATASIZE PUSH1 0x4 PUSH2 0x2E60 JUMP JUMPDEST PUSH2 0x6AA JUMP JUMPDEST CALLVALUE DUP1 ISZERO PUSH2 0x2C8 JUMPI PUSH1 0x0 DUP1 REVERT JUMPDEST POP PUSH2 0x1B9 PUSH2 0x2D7 CALLDATASIZE PUSH1 0x4 PUSH2 0x2DA4 JUMP JUMPDEST PUSH2 0xA99 JUMP JUMPDEST CALLVALUE DUP1 ISZERO PUSH2 0x2E8 JUMPI PUSH1 0x0 DUP1 REVERT JUMPDEST POP PUSH2 0x1B9 PUSH2 0x2F7 CALLDATASIZE PUSH1 0x4 PUSH2 0x2E95 JUMP JUMPDEST PUSH2 0xB0C JUMP JUMPDEST CALLVALUE DUP1 ISZERO PUSH2 0x308 JUMPI PUSH1 0x0 DUP1 REVERT JUMPDEST POP PUSH2 0x1B9 PUSH2 0x317 CALLDATASIZE PUSH1 0x4 PUSH2 0x2DA4 JUMP JUMPDEST PUSH2 0xB7A JUMP JUMPDEST CALLVALUE DUP1 ISZERO PUSH2 0x328 JUMPI PUSH1 0x0 DUP1 REVERT JUMPDEST POP PUSH2 0x1B9 PUSH2 0x337 CALLDATASIZE PUSH1 0x4 PUSH2 0x2DFC JUMP JUMPDEST PUSH2 0xBAA JUMP JUMPDEST PUSH1 0x0 SLOAD PUSH20 0xFFFFFFFFFFFFFFFFFFFFFFFFFFFFFFFFFFFFFFFF AND CALLER EQ PUSH2 0x360 JUMPI PUSH1 0x0 DUP1 REVERT JUMPDEST PUSH20 0xFFFFFFFFFFFFFFFFFFFFFFFFFFFFFFFFFFFFFFFF AND PUSH1 0x0 SWAP1 DUP2 MSTORE PUSH1 0x2 PUSH1 0x20 MSTORE PUSH1 0x40 SWAP1 KECCAK256 DUP1 SLOAD PUSH32 0xFFFFFFFFFFFFFFFFFFFFFFFFFFFFFFFFFFFFFFFFFFFFFFFFFFFFFFFFFFFFFF00 AND SWAP1 SSTORE JUMP JUMPDEST PUSH1 0x1 SLOAD PUSH20 0xFFFFFFFFFFFFFFFFFFFFFFFFFFFFFFFFFFFFFFFF AND DUP2 JUMP JUMPDEST PUSH1 0x0 SLOAD PUSH20 0xFFFFFFFFFFFFFFFFFFFFFFFFFFFFFFFFFFFFFFFF AND CALLER EQ PUSH2 0x3EC JUMPI PUSH1 0x0 DUP1 REVERT JUMPDEST PUSH1 0x0 SLOAD PUSH21 0x10000000000000000000000000000000000000000 SWAP1 DIV PUSH1 0xFF AND ISZERO ISZERO PUSH2 0x442 JUMPI PUSH1 0x40 MLOAD PUSH32 0x8C379A000000000000000000000000000000000000000000000000000000000 DUP2 MSTORE PUSH1 0x4 ADD PUSH2 0x14F SWAP1 PUSH2 0x3AAE JUMP JUMPDEST PUSH1 0x0 DUP1 SLOAD PUSH32 0xFFFFFFFFFFFFFFFFFFFFFF00FFFFFFFFFFFFFFFFFFFFFFFFFFFFFFFFFFFFFFFF AND DUP2 SSTORE PUSH1 0x40 MLOAD PUSH32 0xA45F47FDEA8A1EFDD9029A5691C7F759C32B7C698632B563573E155625D16933 SWAP2 SWAP1 LOG1 JUMP JUMPDEST PUSH1 0x0 SLOAD PUSH21 0x10000000000000000000000000000000000000000 SWAP1 DIV PUSH1 0xFF AND SWAP1 JUMP JUMPDEST PUSH1 0x0 SLOAD PUSH20 0xFFFFFFFFFFFFFFFFFFFFFFFFFFFFFFFFFFFFFFFF AND CALLER EQ PUSH2 0x4D8 JUMPI PUSH1 0x0 DUP1 REVERT JUMPDEST PUSH1 0x0 DUP1 SLOAD PUSH1 0x40 MLOAD PUSH20 0xFFFFFFFFFFFFFFFFFFFFFFFFFFFFFFFFFFFFFFFF SWAP1 SWAP2 AND SWAP2 PUSH32 0xF8DF31144D9C2F0F6B59D69B8B98ABD5459D07F2742C4DF920B25AAE33C64820 SWAP2 LOG2 PUSH1 0x0 DUP1 SLOAD PUSH32 0xFFFFFFFFFFFFFFFFFFFFFFFF0000000000000000000000000000000000000000 AND SWAP1 SSTORE JUMP JUMPDEST PUSH1 0x2 PUSH1 0x20 MSTORE PUSH1 0x0 SWAP1 DUP2 MSTORE PUSH1 0x40 SWAP1 KECCAK256 SLOAD PUSH1 0xFF AND DUP2 JUMP JUMPDEST PUSH1 0x0 SLOAD PUSH20 0xFFFFFFFFFFFFFFFFFFFFFFFFFFFFFFFFFFFFFFFF AND CALLER EQ PUSH2 0x57E JUMPI PUSH1 0x0 DUP1 REVERT JUMPDEST PUSH1 0x0 SLOAD PUSH21 0x10000000000000000000000000000000000000000 SWAP1 DIV PUSH1 0xFF AND ISZERO PUSH2 0x5D3 JUMPI PUSH1 0x40 MLOAD PUSH32 0x8C379A000000000000000000000000000000000000000000000000000000000 DUP2 MSTORE PUSH1 0x4 ADD PUSH2 0x14F SWAP1 PUSH2 0x3CB9 JUMP JUMPDEST PUSH1 0x0 DUP1 SLOAD PUSH32 0xFFFFFFFFFFFFFFFFFFFFFF00FFFFFFFFFFFFFFFFFFFFFFFFFFFFFFFFFFFFFFFF AND PUSH21 0x10000000000000000000000000000000000000000 OR DUP2 SSTORE PUSH1 0x40 MLOAD PUSH32 0x9E87FAC88FF661F02D44F95383C817FECE4BCE600A3DAB7A54406878B965E752 SWAP2 SWAP1 LOG1 JUMP JUMPDEST PUSH1 0x0 SLOAD PUSH20 0xFFFFFFFFFFFFFFFFFFFFFFFFFFFFFFFFFFFFFFFF AND DUP2 JUMP JUMPDEST PUSH1 0x0 DUP1 SLOAD PUSH20 0xFFFFFFFFFFFFFFFFFFFFFFFFFFFFFFFFFFFFFFFF AND CALLER EQ PUSH2 0x67C JUMPI PUSH1 0x0 DUP1 REVERT JUMPDEST PUSH1 0x0 SLOAD PUSH2 0x6A1 SWAP1 DUP5 SWAP1 PUSH20 0xFFFFFFFFFFFFFFFFFFFFFFFFFFFFFFFFFFFFFFFF AND DUP5 PUSH2 0xBEA JUMP JUMPDEST SWAP1 POP JUMPDEST SWAP3 SWAP2 POP POP JUMP JUMPDEST PUSH1 0x0 SLOAD PUSH21 0x10000000000000000000000000000000000000000 SWAP1 DIV PUSH1 0xFF AND ISZERO PUSH2 0x6FF JUMPI PUSH1 0x40 MLOAD PUSH32 0x8C379A000000000000000000000000000000000000000000000000000000000 DUP2 MSTORE PUSH1 0x4 ADD PUSH2 0x14F SWAP1 PUSH2 0x3CB9 JUMP JUMPDEST DUP1 NUMBER DUP2 PUSH1 0x40 ADD MLOAD GT ISZERO ISZERO PUSH2 0x73F JUMPI PUSH1 0x40 MLOAD PUSH32 0x8C379A000000000000000000000000000000000000000000000000000000000 DUP2 MSTORE PUSH1 0x4 ADD PUSH2 0x14F SWAP1 PUSH2 0x3CD9 JUMP JUMPDEST DUP2 PUSH1 0x0 DUP2 PUSH1 0x0 ADD MLOAD DUP3 PUSH1 0x20 ADD MLOAD DUP4 PUSH1 0x40 ADD MLOAD DUP5 PUSH1 0x60 ADD MLOAD CALLER PUSH1 0x40 MLOAD PUSH1 0x20 ADD PUSH2 0x76B SWAP6 SWAP5 SWAP4 SWAP3 SWAP2 SWAP1 PUSH2 0x399E JUMP JUMPDEST PUSH1 0x40 DUP1 MLOAD PUSH32 0xFFFFFFFFFFFFFFFFFFFFFFFFFFFFFFFFFFFFFFFFFFFFFFFFFFFFFFFFFFFFFFE0 DUP2 DUP5 SUB DUP2 ADD DUP3 MSTORE DUP4 DUP4 MSTORE DUP2 MLOAD PUSH1 0x20 SWAP3 DUP4 ADD KECCAK256 PUSH32 0x19457468657265756D205369676E6564204D6573736167653A0A333200000000 DUP6 DUP5 ADD MSTORE PUSH1 0x3C DUP1 DUP7 ADD DUP3 SWAP1 MSTORE DUP5 MLOAD DUP1 DUP8 SUB SWAP1 SWAP2 ADD DUP2 MSTORE PUSH1 0x5C DUP7 ADD DUP1 DUP7 MSTORE DUP2 MLOAD SWAP2 DUP6 ADD SWAP2 SWAP1 SWAP2 KECCAK256 PUSH1 0x80 DUP10 ADD MLOAD PUSH1 0xA0 DUP11 ADD MLOAD PUSH1 0xC0 DUP12 ADD MLOAD PUSH1 0x0 SWAP5 DUP6 SWAP1 MSTORE PUSH1 0x7C DUP11 ADD DUP1 DUP11 MSTORE SWAP4 SWAP1 SWAP4 MSTORE PUSH1 0xFF SWAP1 SWAP2 AND PUSH1 0x9C DUP10 ADD MSTORE PUSH1 0xBC DUP9 ADD MSTORE PUSH1 0xDC DUP8 ADD MSTORE SWAP4 MLOAD SWAP1 SWAP6 POP PUSH1 0x2 SWAP5 PUSH1 0x1 SWAP4 PUSH1 0xFC DUP1 DUP4 ADD SWAP5 SWAP2 SWAP4 SWAP2 DUP3 ADD SWAP3 DUP3 SWAP1 SUB ADD SWAP1 DUP6 GAS STATICCALL ISZERO DUP1 ISZERO PUSH2 0x84D JUMPI RETURNDATASIZE PUSH1 0x0 DUP1 RETURNDATACOPY RETURNDATASIZE PUSH1 0x0 REVERT JUMPDEST POP POP PUSH1 0x40 DUP1 MLOAD PUSH32 0xFFFFFFFFFFFFFFFFFFFFFFFFFFFFFFFFFFFFFFFFFFFFFFFFFFFFFFFFFFFFFFE0 ADD MLOAD PUSH20 0xFFFFFFFFFFFFFFFFFFFFFFFFFFFFFFFFFFFFFFFF AND DUP4 MSTORE PUSH1 0x20 DUP4 ADD SWAP4 SWAP1 SWAP4 MSTORE POP ADD PUSH1 0x0 KECCAK256 SLOAD PUSH1 0xFF AND ISZERO ISZERO PUSH2 0x8D7 JUMPI PUSH1 0x40 MLOAD PUSH32 0x8C379A000000000000000000000000000000000000000000000000000000000 DUP2 MSTORE PUSH1 0x4 ADD PUSH2 0x14F SWAP1 PUSH2 0x3B4D JUMP JUMPDEST PUSH2 0x8DF PUSH2 0x2919 JUMP JUMPDEST PUSH1 0x40 DUP1 MLOAD SWAP1 DUP2 ADD PUSH1 0x40 MSTORE DUP1 PUSH2 0x8F2 PUSH2 0xD8C JUMP JUMPDEST PUSH20 0xFFFFFFFFFFFFFFFFFFFFFFFFFFFFFFFFFFFFFFFF AND DUP2 MSTORE CALLVALUE PUSH1 0x20 SWAP2 DUP3 ADD MSTORE DUP2 DUP4 MSTORE ADD MLOAD PUSH1 0x40 MLOAD PUSH32 0xFAA6A1B900000000000000000000000000000000000000000000000000000000 DUP2 MSTORE ADDRESS SWAP2 PUSH4 0xFAA6A1B9 SWAP2 PUSH2 0x954 SWAP2 SWAP1 PUSH1 0x0 SWAP1 PUSH1 0x4 ADD PUSH2 0x3BBD JUMP JUMPDEST PUSH1 0x0 PUSH1 0x40 MLOAD DUP1 DUP4 SUB DUP2 PUSH1 0x0 DUP8 DUP1 EXTCODESIZE ISZERO DUP1 ISZERO PUSH2 0x96E JUMPI PUSH1 0x0 DUP1 REVERT JUMPDEST POP GAS CALL ISZERO DUP1 ISZERO PUSH2 0x982 JUMPI RETURNDATASIZE PUSH1 0x0 DUP1 RETURNDATACOPY RETURNDATASIZE PUSH1 0x0 REVERT JUMPDEST POP PUSH1 0x0 SWAP3 POP POP POP JUMPDEST DUP6 MLOAD MLOAD DUP2 LT ISZERO PUSH2 0xA3B JUMPI PUSH1 0x60 DUP7 ADD MLOAD PUSH1 0x40 MLOAD PUSH32 0xFAA6A1B900000000000000000000000000000000000000000000000000000000 DUP2 MSTORE ADDRESS SWAP2 PUSH4 0xFAA6A1B9 SWAP2 PUSH2 0x9D5 SWAP2 DUP6 SWAP2 PUSH1 0x4 ADD PUSH2 0x3C1D JUMP JUMPDEST PUSH1 0x0 PUSH1 0x40 MLOAD DUP1 DUP4 SUB DUP2 PUSH1 0x0 DUP8 DUP1 EXTCODESIZE ISZERO DUP1 ISZERO PUSH2 0x9EF JUMPI PUSH1 0x0 DUP1 REVERT JUMPDEST POP GAS CALL ISZERO DUP1 ISZERO PUSH2 0xA03 JUMPI RETURNDATASIZE PUSH1 0x0 DUP1 RETURNDATACOPY RETURNDATASIZE PUSH1 0x0 REVERT JUMPDEST POP POP POP PUSH1 0x60 DUP8 ADD MLOAD DUP8 MLOAD DUP1 MLOAD PUSH2 0xA33 SWAP4 POP DUP5 SWAP1 DUP2 LT PUSH2 0xA1E JUMPI INVALID JUMPDEST SWAP1 PUSH1 0x20 ADD SWAP1 PUSH1 0x20 MUL ADD MLOAD DUP5 DUP10 PUSH1 0x20 ADD MLOAD PUSH2 0xD91 JUMP JUMPDEST PUSH1 0x1 ADD PUSH2 0x98A JUMP JUMPDEST POP PUSH1 0x20 DUP6 ADD MLOAD PUSH1 0x60 DUP7 ADD MLOAD PUSH1 0x40 MLOAD CALLER SWAP3 PUSH20 0xFFFFFFFFFFFFFFFFFFFFFFFFFFFFFFFFFFFFFFFF AND SWAP2 SWAP1 PUSH32 0xC3DCFCCC2C1C6FE2A908D1825BA2E62B5B2D61A6B9C500791F75CDC538BDEB9D SWAP1 PUSH1 0x0 SWAP1 LOG4 PUSH2 0xA92 DUP2 PUSH2 0x14C1 JUMP JUMPDEST POP POP POP POP POP JUMP JUMPDEST PUSH1 0x0 SLOAD PUSH20 0xFFFFFFFFFFFFFFFFFFFFFFFFFFFFFFFFFFFFFFFF AND CALLER EQ PUSH2 0xABD JUMPI PUSH1 0x0 DUP1 REVERT JUMPDEST PUSH20 0xFFFFFFFFFFFFFFFFFFFFFFFFFFFFFFFFFFFFFFFF AND PUSH1 0x0 SWAP1 DUP2 MSTORE PUSH1 0x2 PUSH1 0x20 MSTORE PUSH1 0x40 SWAP1 KECCAK256 DUP1 SLOAD PUSH32 0xFFFFFFFFFFFFFFFFFFFFFFFFFFFFFFFFFFFFFFFFFFFFFFFFFFFFFFFFFFFFFF00 AND PUSH1 0x1 OR SWAP1 SSTORE JUMP JUMPDEST PUSH1 0x0 SLOAD PUSH20 0xFFFFFFFFFFFFFFFFFFFFFFFFFFFFFFFFFFFFFFFF AND CALLER EQ PUSH2 0xB30 JUMPI PUSH1 0x0 DUP1 REVERT JUMPDEST PUSH1 0x0 DUP1 SLOAD PUSH1 0x40 MLOAD PUSH20 0xFFFFFFFFFFFFFFFFFFFFFFFFFFFFFFFFFFFFFFFF SWAP1 SWAP2 AND SWAP2 DUP4 ISZERO PUSH2 0x8FC MUL SWAP2 DUP5 SWAP2 DUP2 DUP2 DUP2 DUP6 DUP9 DUP9 CALL SWAP4 POP POP POP POP ISZERO DUP1 ISZERO PUSH2 0xB76 JUMPI RETURNDATASIZE PUSH1 0x0 DUP1 RETURNDATACOPY RETURNDATASIZE PUSH1 0x0 REVERT JUMPDEST POP POP JUMP JUMPDEST PUSH1 0x0 SLOAD PUSH20 0xFFFFFFFFFFFFFFFFFFFFFFFFFFFFFFFFFFFFFFFF AND CALLER EQ PUSH2 0xB9E JUMPI PUSH1 0x0 DUP1 REVERT JUMPDEST PUSH2 0xBA7 DUP2 PUSH2 0x1632 JUMP JUMPDEST POP JUMP JUMPDEST PUSH32 0xCC410FFA3E9942E8763E877FC47F77578AAFF21D03FAC001EC2568600A4919C1 DUP4 DUP4 DUP4 PUSH1 0x40 MLOAD PUSH2 0xBDD SWAP4 SWAP3 SWAP2 SWAP1 PUSH2 0x3A45 JUMP JUMPDEST PUSH1 0x40 MLOAD DUP1 SWAP2 SUB SWAP1 LOG1 POP POP POP JUMP JUMPDEST PUSH1 0x0 DUP4 PUSH20 0xFFFFFFFFFFFFFFFFFFFFFFFFFFFFFFFFFFFFFFFF AND DUP4 DUP4 PUSH1 0x40 MLOAD PUSH1 0x24 ADD PUSH2 0xC16 SWAP3 SWAP2 SWAP1 PUSH2 0x3983 JUMP JUMPDEST PUSH1 0x40 DUP1 MLOAD PUSH32 0xFFFFFFFFFFFFFFFFFFFFFFFFFFFFFFFFFFFFFFFFFFFFFFFFFFFFFFFFFFFFFFE0 DUP2 DUP5 SUB ADD DUP2 MSTORE SWAP2 DUP2 MSTORE PUSH1 0x20 DUP3 ADD DUP1 MLOAD PUSH28 0xFFFFFFFFFFFFFFFFFFFFFFFFFFFFFFFFFFFFFFFFFFFFFFFFFFFFFFFF AND PUSH32 0xA9059CBB00000000000000000000000000000000000000000000000000000000 OR DUP2 MSTORE SWAP1 MLOAD DUP3 MLOAD SWAP1 SWAP2 DUP3 SWAP2 DUP1 DUP4 DUP4 JUMPDEST PUSH1 0x20 DUP4 LT PUSH2 0xCD5 JUMPI DUP1 MLOAD DUP3 MSTORE PUSH32 0xFFFFFFFFFFFFFFFFFFFFFFFFFFFFFFFFFFFFFFFFFFFFFFFFFFFFFFFFFFFFFFE0 SWAP1 SWAP3 ADD SWAP2 PUSH1 0x20 SWAP2 DUP3 ADD SWAP2 ADD PUSH2 0xC98 JUMP JUMPDEST PUSH1 0x1 DUP4 PUSH1 0x20 SUB PUSH2 0x100 EXP SUB DUP1 NOT DUP3 MLOAD AND DUP2 DUP5 MLOAD AND DUP1 DUP3 OR DUP6 MSTORE POP POP POP POP POP POP SWAP1 POP ADD SWAP2 POP POP PUSH1 0x0 PUSH1 0x40 MLOAD DUP1 DUP4 SUB DUP2 PUSH1 0x0 DUP7 GAS CALL SWAP2 POP POP RETURNDATASIZE DUP1 PUSH1 0x0 DUP2 EQ PUSH2 0xD37 JUMPI PUSH1 0x40 MLOAD SWAP2 POP PUSH1 0x1F NOT PUSH1 0x3F RETURNDATASIZE ADD AND DUP3 ADD PUSH1 0x40 MSTORE RETURNDATASIZE DUP3 MSTORE RETURNDATASIZE PUSH1 0x0 PUSH1 0x20 DUP5 ADD RETURNDATACOPY PUSH2 0xD3C JUMP JUMPDEST PUSH1 0x60 SWAP2 POP JUMPDEST POP SWAP1 SWAP2 POP POP DUP1 ISZERO ISZERO PUSH2 0xD7A JUMPI PUSH1 0x40 MLOAD PUSH32 0x8C379A000000000000000000000000000000000000000000000000000000000 DUP2 MSTORE PUSH1 0x4 ADD PUSH2 0x14F SWAP1 PUSH2 0x3B1D JUMP JUMPDEST PUSH2 0xD82 PUSH2 0x16E1 JUMP JUMPDEST SWAP1 POP JUMPDEST SWAP4 SWAP3 POP POP POP JUMP JUMPDEST PUSH1 0x0 SWAP1 JUMP JUMPDEST DUP3 MLOAD DUP1 MLOAD PUSH2 0xDBB SWAP2 DUP5 SWAP2 PUSH1 0x0 SWAP1 DUP2 LT PUSH2 0xDA6 JUMPI INVALID JUMPDEST PUSH1 0x20 SWAP1 DUP2 MUL SWAP1 SWAP2 ADD ADD MLOAD MLOAD PUSH1 0x60 DUP7 ADD MLOAD PUSH2 0x1710 JUMP JUMPDEST ISZERO ISZERO PUSH2 0xE02 JUMPI DUP3 PUSH1 0xE0 ADD MLOAD ISZERO PUSH2 0xDFD JUMPI PUSH1 0x40 MLOAD PUSH32 0x8C379A000000000000000000000000000000000000000000000000000000000 DUP2 MSTORE PUSH1 0x4 ADD PUSH2 0x14F SWAP1 PUSH2 0x3C69 JUMP JUMPDEST PUSH2 0x14BB JUMP JUMPDEST PUSH1 0x0 DUP1 DUP1 DUP1 JUMPDEST DUP7 MLOAD MLOAD DUP2 LT ISZERO PUSH2 0x1041 JUMPI DUP7 PUSH1 0x80 ADD MLOAD DUP2 EQ DUP1 ISZERO PUSH2 0xE26 JUMPI POP DUP7 PUSH1 0xA0 ADD MLOAD JUMPDEST ISZERO PUSH2 0xE65 JUMPI DUP7 MLOAD DUP1 MLOAD PUSH2 0xE62 SWAP2 DUP9 SWAP2 DUP5 SWAP1 DUP2 LT PUSH2 0xE3F JUMPI INVALID JUMPDEST PUSH1 0x20 SWAP1 DUP2 MUL SWAP1 SWAP2 ADD ADD MLOAD MLOAD DUP8 DUP5 ISZERO PUSH2 0xE57 JUMPI DUP7 PUSH2 0xE5D JUMP JUMPDEST DUP11 PUSH1 0x60 ADD MLOAD JUMPDEST PUSH2 0x1B83 JUMP JUMPDEST SWAP2 POP JUMPDEST PUSH1 0x40 MLOAD PUSH32 0xFAA6A1B900000000000000000000000000000000000000000000000000000000 DUP2 MSTORE PUSH1 0x0 SWAP1 ADDRESS SWAP1 PUSH4 0xFAA6A1B9 SWAP1 PUSH2 0xEA6 SWAP1 DUP5 SWAP1 DUP2 SWAP1 PUSH1 0x4 ADD PUSH2 0x3C49 JUMP JUMPDEST PUSH1 0x0 PUSH1 0x40 MLOAD DUP1 DUP4 SUB DUP2 PUSH1 0x0 DUP8 DUP1 EXTCODESIZE ISZERO DUP1 ISZERO PUSH2 0xEC0 JUMPI PUSH1 0x0 DUP1 REVERT JUMPDEST POP GAS CALL ISZERO DUP1 ISZERO PUSH2 0xED4 JUMPI RETURNDATASIZE PUSH1 0x0 DUP1 RETURNDATACOPY RETURNDATASIZE PUSH1 0x0 REVERT JUMPDEST POP POP POP POP PUSH2 0xF53 DUP9 PUSH1 0x0 ADD MLOAD DUP4 DUP2 MLOAD DUP2 LT ISZERO ISZERO PUSH2 0xEED JUMPI INVALID JUMPDEST SWAP1 PUSH1 0x20 ADD SWAP1 PUSH1 0x20 MUL ADD MLOAD DUP9 PUSH2 0xF4E DUP6 PUSH1 0x0 EQ PUSH2 0xF09 JUMPI DUP8 PUSH2 0xF0F JUMP JUMPDEST DUP12 PUSH1 0x60 ADD MLOAD JUMPDEST DUP12 PUSH2 0xF36 DUP14 DUP16 PUSH1 0x0 ADD MLOAD DUP11 DUP2 MLOAD DUP2 LT ISZERO ISZERO PUSH2 0xF26 JUMPI INVALID JUMPDEST PUSH1 0x20 SWAP1 DUP2 MUL SWAP1 SWAP2 ADD ADD MLOAD MLOAD PUSH2 0x1DBC JUMP JUMPDEST PUSH1 0x14 DUP2 LT PUSH2 0xF40 JUMPI INVALID JUMPDEST PUSH1 0x20 MUL ADD MLOAD PUSH1 0x20 ADD MLOAD PUSH2 0x1EA1 JUMP JUMPDEST PUSH2 0x1EB7 JUMP JUMPDEST DUP10 MLOAD DUP1 MLOAD SWAP2 SWAP7 POP SWAP2 SWAP3 POP DUP4 SWAP1 DUP2 LT PUSH2 0xF67 JUMPI INVALID JUMPDEST SWAP1 PUSH1 0x20 ADD SWAP1 PUSH1 0x20 MUL ADD MLOAD PUSH1 0x60 ADD MLOAD ISZERO DUP1 ISZERO PUSH2 0xF9C JUMPI POP DUP8 MLOAD DUP1 MLOAD DUP4 SWAP1 DUP2 LT PUSH2 0xF8B JUMPI INVALID JUMPDEST SWAP1 PUSH1 0x20 ADD SWAP1 PUSH1 0x20 MUL ADD MLOAD PUSH1 0x40 ADD MLOAD DUP5 LT JUMPDEST ISZERO PUSH2 0xFE7 JUMPI DUP8 PUSH1 0xE0 ADD MLOAD ISZERO PUSH2 0xFDD JUMPI PUSH1 0x40 MLOAD PUSH32 0x8C379A000000000000000000000000000000000000000000000000000000000 DUP2 MSTORE PUSH1 0x4 ADD PUSH2 0x14F SWAP1 PUSH2 0x3CC9 JUMP JUMPDEST POP POP POP POP POP PUSH2 0x14BB JUMP JUMPDEST DUP2 ISZERO ISZERO PUSH2 0xFF2 JUMPI DUP1 SWAP5 POP JUMPDEST DUP8 PUSH1 0x80 ADD MLOAD DUP3 EQ DUP1 ISZERO PUSH2 0x1007 JUMPI POP DUP8 PUSH1 0xA0 ADD MLOAD ISZERO JUMPDEST ISZERO PUSH2 0x1038 JUMPI DUP8 MLOAD DUP1 MLOAD PUSH2 0x1035 SWAP2 DUP10 SWAP2 DUP6 SWAP1 DUP2 LT PUSH2 0x1020 JUMPI INVALID JUMPDEST SWAP1 PUSH1 0x20 ADD SWAP1 PUSH1 0x20 MUL ADD MLOAD PUSH1 0x20 ADD MLOAD DUP9 DUP8 PUSH2 0x1B83 JUMP JUMPDEST SWAP3 POP JUMPDEST POP PUSH1 0x1 ADD PUSH2 0xE08 JUMP JUMPDEST POP PUSH1 0x40 MLOAD PUSH32 0xFAA6A1B900000000000000000000000000000000000000000000000000000000 DUP2 MSTORE ADDRESS SWAP1 PUSH4 0xFAA6A1B9 SWAP1 PUSH2 0x1081 SWAP1 PUSH1 0x0 SWAP1 DUP2 SWAP1 PUSH1 0x4 ADD PUSH2 0x3ADE JUMP JUMPDEST PUSH1 0x0 PUSH1 0x40 MLOAD DUP1 DUP4 SUB DUP2 PUSH1 0x0 DUP8 DUP1 EXTCODESIZE ISZERO DUP1 ISZERO PUSH2 0x109B JUMPI PUSH1 0x0 DUP1 REVERT JUMPDEST POP GAS CALL ISZERO DUP1 ISZERO PUSH2 0x10AF JUMPI RETURNDATASIZE PUSH1 0x0 DUP1 RETURNDATACOPY RETURNDATASIZE PUSH1 0x0 REVERT JUMPDEST POP POP DUP8 MLOAD DUP1 MLOAD DUP11 SWAP4 POP PUSH32 0x7C396F87CA37E7DAB636D7FFAD74FE2EF4729FDA118A0A2C105BF74F4890437F SWAP3 POP PUSH1 0x0 SWAP1 DUP2 LT PUSH2 0x10E6 JUMPI INVALID JUMPDEST PUSH1 0x20 SWAP1 DUP2 MUL SWAP1 SWAP2 ADD ADD MLOAD MLOAD DUP9 MLOAD DUP1 MLOAD PUSH32 0xFFFFFFFFFFFFFFFFFFFFFFFFFFFFFFFFFFFFFFFFFFFFFFFFFFFFFFFFFFFFFFFF DUP2 ADD SWAP1 DUP2 LT PUSH2 0x1121 JUMPI INVALID JUMPDEST SWAP1 PUSH1 0x20 ADD SWAP1 PUSH1 0x20 MUL ADD MLOAD PUSH1 0x20 ADD MLOAD DUP7 DUP7 DUP12 PUSH1 0xA0 ADD MLOAD PUSH2 0x115E JUMPI DUP12 MLOAD PUSH1 0x80 DUP14 ADD MLOAD DUP2 MLOAD DUP2 LT PUSH2 0x114B JUMPI INVALID JUMPDEST SWAP1 PUSH1 0x20 ADD SWAP1 PUSH1 0x20 MUL ADD MLOAD PUSH1 0x20 ADD MLOAD PUSH2 0x117B JUMP JUMPDEST DUP12 MLOAD PUSH1 0x80 DUP14 ADD MLOAD DUP2 MLOAD DUP2 LT PUSH2 0x116F JUMPI INVALID JUMPDEST PUSH1 0x20 SWAP1 DUP2 MUL SWAP1 SWAP2 ADD ADD MLOAD MLOAD JUMPDEST DUP8 PUSH1 0x40 MLOAD PUSH2 0x118E SWAP7 SWAP6 SWAP5 SWAP4 SWAP3 SWAP2 SWAP1 PUSH2 0x3929 JUMP JUMPDEST PUSH1 0x40 MLOAD DUP1 SWAP2 SUB SWAP1 LOG2 DUP6 PUSH1 0x40 ADD MLOAD DUP3 LT ISZERO PUSH2 0x1245 JUMPI PUSH1 0x40 MLOAD PUSH32 0xFAA6A1B900000000000000000000000000000000000000000000000000000000 DUP2 MSTORE ADDRESS SWAP1 PUSH4 0xFAA6A1B9 SWAP1 PUSH2 0x11E1 SWAP1 PUSH1 0x0 SWAP1 DUP2 SWAP1 PUSH1 0x4 ADD PUSH2 0x3BAD JUMP JUMPDEST PUSH1 0x0 PUSH1 0x40 MLOAD DUP1 DUP4 SUB DUP2 PUSH1 0x0 DUP8 DUP1 EXTCODESIZE ISZERO DUP1 ISZERO PUSH2 0x11FB JUMPI PUSH1 0x0 DUP1 REVERT JUMPDEST POP GAS CALL ISZERO DUP1 ISZERO PUSH2 0x120F JUMPI RETURNDATASIZE PUSH1 0x0 DUP1 RETURNDATACOPY RETURNDATASIZE PUSH1 0x0 REVERT JUMPDEST POP POP POP POP PUSH1 0x40 MLOAD PUSH32 0x8C379A000000000000000000000000000000000000000000000000000000000 DUP2 MSTORE PUSH1 0x4 ADD PUSH2 0x14F SWAP1 PUSH2 0x3B8D JUMP JUMPDEST DUP6 MLOAD DUP1 MLOAD PUSH2 0x12B2 SWAP2 SWAP1 PUSH1 0x0 SWAP1 DUP2 LT PUSH2 0x1259 JUMPI INVALID JUMPDEST PUSH1 0x20 SWAP1 DUP2 MUL SWAP1 SWAP2 ADD ADD MLOAD MLOAD DUP8 MLOAD DUP1 MLOAD PUSH32 0xFFFFFFFFFFFFFFFFFFFFFFFFFFFFFFFFFFFFFFFFFFFFFFFFFFFFFFFFFFFFFFFF DUP2 ADD SWAP1 DUP2 LT PUSH2 0x1294 JUMPI INVALID JUMPDEST SWAP1 PUSH1 0x20 ADD SWAP1 PUSH1 0x20 MUL ADD MLOAD PUSH1 0x20 ADD MLOAD DUP9 PUSH1 0x60 ADD MLOAD DUP6 DUP11 PUSH1 0x20 ADD MLOAD PUSH2 0x20B7 JUMP JUMPDEST ISZERO PUSH2 0x135A JUMPI PUSH1 0x40 MLOAD PUSH32 0xFAA6A1B900000000000000000000000000000000000000000000000000000000 DUP2 MSTORE ADDRESS SWAP1 PUSH4 0xFAA6A1B9 SWAP1 PUSH2 0x12F6 SWAP1 PUSH1 0x0 SWAP1 DUP2 SWAP1 PUSH1 0x4 ADD PUSH2 0x3BFD JUMP JUMPDEST PUSH1 0x0 PUSH1 0x40 MLOAD DUP1 DUP4 SUB DUP2 PUSH1 0x0 DUP8 DUP1 EXTCODESIZE ISZERO DUP1 ISZERO PUSH2 0x1310 JUMPI PUSH1 0x0 DUP1 REVERT JUMPDEST POP GAS CALL ISZERO DUP1 ISZERO PUSH2 0x1324 JUMPI RETURNDATASIZE PUSH1 0x0 DUP1 RETURNDATACOPY RETURNDATASIZE PUSH1 0x0 REVERT JUMPDEST POP POP POP POP PUSH1 0x40 MLOAD PUSH32 0x8C379A000000000000000000000000000000000000000000000000000000000 DUP2 MSTORE PUSH1 0x4 ADD PUSH2 0x14F SWAP1 PUSH2 0x3BDD JUMP JUMPDEST PUSH1 0xC0 DUP7 ADD MLOAD PUSH20 0xFFFFFFFFFFFFFFFFFFFFFFFFFFFFFFFFFFFFFFFF AND CALLER EQ DUP1 ISZERO SWAP1 PUSH2 0x139D JUMPI POP PUSH1 0xC0 DUP7 ADD MLOAD PUSH20 0xFFFFFFFFFFFFFFFFFFFFFFFFFFFFFFFFFFFFFFFF AND ISZERO ISZERO JUMPDEST ISZERO PUSH2 0x14B7 JUMPI PUSH1 0x40 MLOAD PUSH32 0xFAA6A1B900000000000000000000000000000000000000000000000000000000 DUP2 MSTORE ADDRESS SWAP1 PUSH4 0xFAA6A1B9 SWAP1 PUSH2 0x13E1 SWAP1 DUP6 SWAP1 PUSH1 0x0 SWAP1 PUSH1 0x4 ADD PUSH2 0x3ACE JUMP JUMPDEST PUSH1 0x0 PUSH1 0x40 MLOAD DUP1 DUP4 SUB DUP2 PUSH1 0x0 DUP8 DUP1 EXTCODESIZE ISZERO DUP1 ISZERO PUSH2 0x13FB JUMPI PUSH1 0x0 DUP1 REVERT JUMPDEST POP GAS CALL ISZERO DUP1 ISZERO PUSH2 0x140F JUMPI RETURNDATASIZE PUSH1 0x0 DUP1 RETURNDATACOPY RETURNDATASIZE PUSH1 0x0 REVERT JUMPDEST POP POP DUP8 MLOAD DUP1 MLOAD PUSH2 0x146D SWAP4 POP DUP9 SWAP3 POP PUSH2 0x1462 SWAP2 DUP4 SWAP2 PUSH32 0xFFFFFFFFFFFFFFFFFFFFFFFFFFFFFFFFFFFFFFFFFFFFFFFFFFFFFFFFFFFFFFFF DUP2 ADD SWAP1 DUP2 LT PUSH2 0x144F JUMPI INVALID JUMPDEST SWAP1 PUSH1 0x20 ADD SWAP1 PUSH1 0x20 MUL ADD MLOAD PUSH1 0x20 ADD MLOAD PUSH2 0x1DBC JUMP JUMPDEST DUP9 PUSH1 0xC0 ADD MLOAD DUP6 PUSH2 0x2340 JUMP JUMPDEST DUP6 MLOAD DUP1 MLOAD PUSH2 0x14B7 SWAP2 DUP8 SWAP2 PUSH32 0xFFFFFFFFFFFFFFFFFFFFFFFFFFFFFFFFFFFFFFFFFFFFFFFFFFFFFFFFFFFFFFFF DUP2 ADD SWAP1 DUP2 LT PUSH2 0x14A3 JUMPI INVALID JUMPDEST SWAP1 PUSH1 0x20 ADD SWAP1 PUSH1 0x20 MUL ADD MLOAD PUSH1 0x20 ADD MLOAD DUP5 PUSH2 0x23FA JUMP JUMPDEST POP POP POP JUMPDEST POP POP POP POP JUMP JUMPDEST PUSH1 0x40 MLOAD PUSH32 0xFAA6A1B900000000000000000000000000000000000000000000000000000000 DUP2 MSTORE ADDRESS SWAP1 PUSH4 0xFAA6A1B9 SWAP1 PUSH2 0x1500 SWAP1 PUSH1 0x0 SWAP1 DUP2 SWAP1 PUSH1 0x4 ADD PUSH2 0x3C59 JUMP JUMPDEST PUSH1 0x0 PUSH1 0x40 MLOAD DUP1 DUP4 SUB DUP2 PUSH1 0x0 DUP8 DUP1 EXTCODESIZE ISZERO DUP1 ISZERO PUSH2 0x151A JUMPI PUSH1 0x0 DUP1 REVERT JUMPDEST POP GAS CALL ISZERO DUP1 ISZERO PUSH2 0x152E JUMPI RETURNDATASIZE PUSH1 0x0 DUP1 RETURNDATACOPY RETURNDATASIZE PUSH1 0x0 REVERT JUMPDEST POP PUSH1 0x0 SWAP3 POP POP POP JUMPDEST PUSH1 0x14 DUP2 LT ISZERO PUSH2 0xB76 JUMPI DUP1 ISZERO DUP1 ISZERO SWAP1 PUSH2 0x1575 JUMPI POP PUSH1 0x0 DUP3 DUP3 PUSH1 0x14 DUP2 LT PUSH2 0x1557 JUMPI INVALID JUMPDEST PUSH1 0x20 MUL ADD MLOAD MLOAD PUSH20 0xFFFFFFFFFFFFFFFFFFFFFFFFFFFFFFFFFFFFFFFF AND EQ JUMPDEST ISZERO PUSH2 0x1580 JUMPI POP PUSH2 0xBA7 JUMP JUMPDEST ADDRESS PUSH4 0xFAA6A1B9 DUP4 DUP4 PUSH1 0x14 DUP2 LT PUSH2 0x1592 JUMPI INVALID JUMPDEST PUSH1 0x20 MUL ADD MLOAD PUSH1 0x20 ADD MLOAD PUSH1 0x0 PUSH1 0x40 MLOAD DUP4 PUSH4 0xFFFFFFFF AND PUSH29 0x100000000000000000000000000000000000000000000000000000000 MUL DUP2 MSTORE PUSH1 0x4 ADD PUSH2 0x15D6 SWAP3 SWAP2 SWAP1 PUSH2 0x3AFD JUMP JUMPDEST PUSH1 0x0 PUSH1 0x40 MLOAD DUP1 DUP4 SUB DUP2 PUSH1 0x0 DUP8 DUP1 EXTCODESIZE ISZERO DUP1 ISZERO PUSH2 0x15F0 JUMPI PUSH1 0x0 DUP1 REVERT JUMPDEST POP GAS CALL ISZERO DUP1 ISZERO PUSH2 0x1604 JUMPI RETURNDATASIZE PUSH1 0x0 DUP1 RETURNDATACOPY RETURNDATASIZE PUSH1 0x0 REVERT JUMPDEST POP POP POP POP PUSH2 0x162A DUP3 DUP3 CALLER DUP6 DUP6 PUSH1 0x14 DUP2 LT ISZERO ISZERO PUSH2 0x161C JUMPI INVALID JUMPDEST PUSH1 0x20 MUL ADD MLOAD PUSH1 0x20 ADD MLOAD PUSH2 0x2340 JUMP JUMPDEST PUSH1 0x1 ADD PUSH2 0x1536 JUMP JUMPDEST PUSH20 0xFFFFFFFFFFFFFFFFFFFFFFFFFFFFFFFFFFFFFFFF DUP2 AND ISZERO ISZERO PUSH2 0x1654 JUMPI PUSH1 0x0 DUP1 REVERT JUMPDEST PUSH1 0x0 DUP1 SLOAD PUSH1 0x40 MLOAD PUSH20 0xFFFFFFFFFFFFFFFFFFFFFFFFFFFFFFFFFFFFFFFF DUP1 DUP6 AND SWAP4 SWAP3 AND SWAP2 PUSH32 0x8BE0079C531659141344CD1FD0A4F28419497F9722A3DAAFE3B4186F6B6457E0 SWAP2 LOG3 PUSH1 0x0 DUP1 SLOAD PUSH32 0xFFFFFFFFFFFFFFFFFFFFFFFF0000000000000000000000000000000000000000 AND PUSH20 0xFFFFFFFFFFFFFFFFFFFFFFFFFFFFFFFFFFFFFFFF SWAP3 SWAP1 SWAP3 AND SWAP2 SWAP1 SWAP2 OR SWAP1 SSTORE JUMP JUMPDEST PUSH1 0x0 RETURNDATASIZE DUP1 ISZERO PUSH2 0x16F7 JUMPI PUSH1 0x20 DUP2 EQ PUSH2 0x1700 JUMPI PUSH1 0x0 DUP1 REVERT JUMPDEST PUSH1 0x1 SWAP2 POP PUSH2 0x170C JUMP JUMPDEST PUSH1 0x20 PUSH1 0x0 DUP1 RETURNDATACOPY PUSH1 0x0 MLOAD SWAP2 POP JUMPDEST POP SWAP1 JUMP JUMPDEST PUSH1 0x0 PUSH2 0x171A PUSH2 0xD8C JUMP JUMPDEST PUSH20 0xFFFFFFFFFFFFFFFFFFFFFFFFFFFFFFFFFFFFFFFF AND DUP4 PUSH20 0xFFFFFFFFFFFFFFFFFFFFFFFFFFFFFFFFFFFFFFFF AND EQ ISZERO PUSH2 0x184E JUMPI DUP4 MLOAD PUSH1 0x20 ADD MLOAD DUP3 GT ISZERO PUSH2 0x17D4 JUMPI PUSH1 0x40 MLOAD PUSH32 0xFAA6A1B900000000000000000000000000000000000000000000000000000000 DUP2 MSTORE ADDRESS SWAP1 PUSH4 0xFAA6A1B9 SWAP1 PUSH2 0x1799 SWAP1 PUSH1 0x0 SWAP1 DUP2 SWAP1 PUSH1 0x4 ADD PUSH2 0x3B6D JUMP JUMPDEST PUSH1 0x0 PUSH1 0x40 MLOAD DUP1 DUP4 SUB DUP2 PUSH1 0x0 DUP8 DUP1 EXTCODESIZE ISZERO DUP1 ISZERO PUSH2 0x17B3 JUMPI PUSH1 0x0 DUP1 REVERT JUMPDEST POP GAS CALL ISZERO DUP1 ISZERO PUSH2 0x17C7 JUMPI RETURNDATASIZE PUSH1 0x0 DUP1 RETURNDATACOPY RETURNDATASIZE PUSH1 0x0 REVERT JUMPDEST POP POP POP POP PUSH1 0x0 SWAP1 POP PUSH2 0xD85 JUMP JUMPDEST PUSH1 0x40 MLOAD PUSH32 0xFAA6A1B900000000000000000000000000000000000000000000000000000000 DUP2 MSTORE ADDRESS SWAP1 PUSH4 0xFAA6A1B9 SWAP1 PUSH2 0x1813 SWAP1 PUSH1 0x0 SWAP1 DUP2 SWAP1 PUSH1 0x4 ADD PUSH2 0x3B2D JUMP JUMPDEST PUSH1 0x0 PUSH1 0x40 MLOAD DUP1 DUP4 SUB DUP2 PUSH1 0x0 DUP8 DUP1 EXTCODESIZE ISZERO DUP1 ISZERO PUSH2 0x182D JUMPI PUSH1 0x0 DUP1 REVERT JUMPDEST POP GAS CALL ISZERO DUP1 ISZERO PUSH2 0x1841 JUMPI RETURNDATASIZE PUSH1 0x0 DUP1 RETURNDATACOPY RETURNDATASIZE PUSH1 0x0 REVERT JUMPDEST POP POP POP POP PUSH1 0x1 SWAP1 POP PUSH2 0xD85 JUMP JUMPDEST PUSH1 0x0 PUSH2 0x185A DUP6 DUP6 PUSH2 0x1DBC JUMP JUMPDEST SWAP1 POP DUP5 DUP2 PUSH1 0x14 DUP2 LT PUSH2 0x1868 JUMPI INVALID JUMPDEST PUSH1 0x20 MUL ADD MLOAD PUSH1 0x20 ADD MLOAD DUP4 GT ISZERO PUSH2 0x1B78 JUMPI PUSH1 0x40 MLOAD PUSH32 0xFAA6A1B900000000000000000000000000000000000000000000000000000000 DUP2 MSTORE ADDRESS SWAP1 PUSH4 0xFAA6A1B9 SWAP1 PUSH2 0x18B7 SWAP1 PUSH1 0x0 SWAP1 DUP2 SWAP1 PUSH1 0x4 ADD PUSH2 0x3B9D JUMP JUMPDEST PUSH1 0x0 PUSH1 0x40 MLOAD DUP1 DUP4 SUB DUP2 PUSH1 0x0 DUP8 DUP1 EXTCODESIZE ISZERO DUP1 ISZERO PUSH2 0x18D1 JUMPI PUSH1 0x0 DUP1 REVERT JUMPDEST POP GAS CALL ISZERO DUP1 ISZERO PUSH2 0x18E5 JUMPI RETURNDATASIZE PUSH1 0x0 DUP1 RETURNDATACOPY RETURNDATASIZE PUSH1 0x0 REVERT JUMPDEST POP POP PUSH1 0x1 SLOAD PUSH1 0x0 SWAP3 POP PUSH20 0xFFFFFFFFFFFFFFFFFFFFFFFFFFFFFFFFFFFFFFFF AND SWAP1 POP DUP6 CALLER ADDRESS DUP10 DUP7 PUSH1 0x14 DUP2 LT PUSH2 0x1915 JUMPI INVALID JUMPDEST PUSH1 0x20 MUL ADD MLOAD PUSH1 0x20 ADD MLOAD DUP9 SUB PUSH1 0x40 MLOAD PUSH1 0x24 ADD PUSH2 0x1933 SWAP5 SWAP4 SWAP3 SWAP2 SWAP1 PUSH2 0x38F4 JUMP JUMPDEST PUSH1 0x40 DUP1 MLOAD PUSH32 0xFFFFFFFFFFFFFFFFFFFFFFFFFFFFFFFFFFFFFFFFFFFFFFFFFFFFFFFFFFFFFFE0 DUP2 DUP5 SUB ADD DUP2 MSTORE SWAP2 DUP2 MSTORE PUSH1 0x20 DUP3 ADD DUP1 MLOAD PUSH28 0xFFFFFFFFFFFFFFFFFFFFFFFFFFFFFFFFFFFFFFFFFFFFFFFFFFFFFFFF AND PUSH32 0x15DACBEA00000000000000000000000000000000000000000000000000000000 OR DUP2 MSTORE SWAP1 MLOAD DUP3 MLOAD SWAP1 SWAP2 DUP3 SWAP2 DUP1 DUP4 DUP4 JUMPDEST PUSH1 0x20 DUP4 LT PUSH2 0x19F2 JUMPI DUP1 MLOAD DUP3 MSTORE PUSH32 0xFFFFFFFFFFFFFFFFFFFFFFFFFFFFFFFFFFFFFFFFFFFFFFFFFFFFFFFFFFFFFFE0 SWAP1 SWAP3 ADD SWAP2 PUSH1 0x20 SWAP2 DUP3 ADD SWAP2 ADD PUSH2 0x19B5 JUMP JUMPDEST PUSH1 0x1 DUP4 PUSH1 0x20 SUB PUSH2 0x100 EXP SUB DUP1 NOT DUP3 MLOAD AND DUP2 DUP5 MLOAD AND DUP1 DUP3 OR DUP6 MSTORE POP POP POP POP POP POP SWAP1 POP ADD SWAP2 POP POP PUSH1 0x0 PUSH1 0x40 MLOAD DUP1 DUP4 SUB DUP2 PUSH1 0x0 DUP7 GAS CALL SWAP2 POP POP RETURNDATASIZE DUP1 PUSH1 0x0 DUP2 EQ PUSH2 0x1A54 JUMPI PUSH1 0x40 MLOAD SWAP2 POP PUSH1 0x1F NOT PUSH1 0x3F RETURNDATASIZE ADD AND DUP3 ADD PUSH1 0x40 MSTORE RETURNDATASIZE DUP3 MSTORE RETURNDATASIZE PUSH1 0x0 PUSH1 0x20 DUP5 ADD RETURNDATACOPY PUSH2 0x1A59 JUMP JUMPDEST PUSH1 0x60 SWAP2 POP JUMPDEST POP SWAP1 SWAP2 POP POP DUP1 ISZERO PUSH2 0x1AFC JUMPI PUSH1 0x40 MLOAD PUSH32 0xFAA6A1B900000000000000000000000000000000000000000000000000000000 DUP2 MSTORE ADDRESS SWAP1 PUSH4 0xFAA6A1B9 SWAP1 PUSH2 0x1AA3 SWAP1 PUSH1 0x0 SWAP1 DUP2 SWAP1 PUSH1 0x4 ADD PUSH2 0x3C99 JUMP JUMPDEST PUSH1 0x0 PUSH1 0x40 MLOAD DUP1 DUP4 SUB DUP2 PUSH1 0x0 DUP8 DUP1 EXTCODESIZE ISZERO DUP1 ISZERO PUSH2 0x1ABD JUMPI PUSH1 0x0 DUP1 REVERT JUMPDEST POP GAS CALL ISZERO DUP1 ISZERO PUSH2 0x1AD1 JUMPI RETURNDATASIZE PUSH1 0x0 DUP1 RETURNDATACOPY RETURNDATASIZE PUSH1 0x0 REVERT JUMPDEST POP POP POP POP DUP4 DUP7 DUP4 PUSH1 0x14 DUP2 LT ISZERO ISZERO PUSH2 0x1AE4 JUMPI INVALID JUMPDEST PUSH1 0x20 MUL ADD MLOAD PUSH1 0x20 ADD DUP2 DUP2 MSTORE POP POP PUSH1 0x1 SWAP3 POP POP POP PUSH2 0xD85 JUMP JUMPDEST PUSH1 0x40 MLOAD PUSH32 0xFAA6A1B900000000000000000000000000000000000000000000000000000000 DUP2 MSTORE ADDRESS SWAP1 PUSH4 0xFAA6A1B9 SWAP1 PUSH2 0x1B3B SWAP1 PUSH1 0x0 SWAP1 DUP2 SWAP1 PUSH1 0x4 ADD PUSH2 0x3BCD JUMP JUMPDEST PUSH1 0x0 PUSH1 0x40 MLOAD DUP1 DUP4 SUB DUP2 PUSH1 0x0 DUP8 DUP1 EXTCODESIZE ISZERO DUP1 ISZERO PUSH2 0x1B55 JUMPI PUSH1 0x0 DUP1 REVERT JUMPDEST POP GAS CALL ISZERO DUP1 ISZERO PUSH2 0x1B69 JUMPI RETURNDATASIZE PUSH1 0x0 DUP1 RETURNDATACOPY RETURNDATASIZE PUSH1 0x0 REVERT JUMPDEST POP POP POP POP PUSH1 0x0 SWAP3 POP POP POP PUSH2 0xD85 JUMP JUMPDEST POP PUSH1 0x1 SWAP5 SWAP4 POP POP POP POP JUMP JUMPDEST PUSH1 0x0 DUP1 DUP4 SWAP1 POP PUSH1 0x0 DUP2 PUSH20 0xFFFFFFFFFFFFFFFFFFFFFFFFFFFFFFFFFFFFFFFF AND PUSH4 0x64367BB PUSH1 0x40 MLOAD DUP2 PUSH4 0xFFFFFFFF AND PUSH29 0x100000000000000000000000000000000000000000000000000000000 MUL DUP2 MSTORE PUSH1 0x4 ADD PUSH1 0x20 PUSH1 0x40 MLOAD DUP1 DUP4 SUB DUP2 DUP7 DUP1 EXTCODESIZE ISZERO DUP1 ISZERO PUSH2 0x1BED JUMPI PUSH1 0x0 DUP1 REVERT JUMPDEST POP GAS STATICCALL ISZERO DUP1 ISZERO PUSH2 0x1C01 JUMPI RETURNDATASIZE PUSH1 0x0 DUP1 RETURNDATACOPY RETURNDATASIZE PUSH1 0x0 REVERT JUMPDEST POP POP POP POP PUSH1 0x40 MLOAD RETURNDATASIZE PUSH1 0x1F NOT PUSH1 0x1F DUP3 ADD AND DUP3 ADD DUP1 PUSH1 0x40 MSTORE POP PUSH2 0x1C25 SWAP2 SWAP1 DUP2 ADD SWAP1 PUSH2 0x2EB3 JUMP JUMPDEST PUSH1 0x40 MLOAD PUSH32 0xFAA6A1B900000000000000000000000000000000000000000000000000000000 DUP2 MSTORE SWAP1 SWAP2 POP ADDRESS SWAP1 PUSH4 0xFAA6A1B9 SWAP1 PUSH2 0x1C67 SWAP1 DUP5 SWAP1 PUSH1 0x0 SWAP1 PUSH1 0x4 ADD PUSH2 0x3A9E JUMP JUMPDEST PUSH1 0x0 PUSH1 0x40 MLOAD DUP1 DUP4 SUB DUP2 PUSH1 0x0 DUP8 DUP1 EXTCODESIZE ISZERO DUP1 ISZERO PUSH2 0x1C81 JUMPI PUSH1 0x0 DUP1 REVERT JUMPDEST POP GAS CALL ISZERO DUP1 ISZERO PUSH2 0x1C95 JUMPI RETURNDATASIZE PUSH1 0x0 DUP1 RETURNDATACOPY RETURNDATASIZE PUSH1 0x0 REVERT JUMPDEST POP POP POP POP PUSH2 0x1CA3 DUP5 DUP3 PUSH2 0x2413 JUMP JUMPDEST PUSH1 0x40 MLOAD PUSH32 0xFAA6A1B900000000000000000000000000000000000000000000000000000000 DUP2 MSTORE SWAP1 SWAP4 POP ADDRESS SWAP1 PUSH4 0xFAA6A1B9 SWAP1 PUSH2 0x1CE5 SWAP1 DUP7 SWAP1 PUSH1 0x0 SWAP1 PUSH1 0x4 ADD PUSH2 0x3A72 JUMP JUMPDEST PUSH1 0x0 PUSH1 0x40 MLOAD DUP1 DUP4 SUB DUP2 PUSH1 0x0 DUP8 DUP1 EXTCODESIZE ISZERO DUP1 ISZERO PUSH2 0x1CFF JUMPI PUSH1 0x0 DUP1 REVERT JUMPDEST POP GAS CALL ISZERO DUP1 ISZERO PUSH2 0x1D13 JUMPI RETURNDATASIZE PUSH1 0x0 DUP1 RETURNDATACOPY RETURNDATASIZE PUSH1 0x0 REVERT JUMPDEST POP POP POP POP PUSH2 0x1D2C DUP8 PUSH2 0x1D25 DUP10 DUP10 PUSH2 0x1DBC JUMP JUMPDEST DUP8 DUP7 PUSH2 0x2340 JUMP JUMPDEST PUSH2 0x1D40 DUP8 PUSH2 0x1D3A DUP10 DUP10 PUSH2 0x1DBC JUMP JUMPDEST DUP6 PUSH2 0x2430 JUMP JUMPDEST PUSH1 0x40 MLOAD PUSH32 0xFAA6A1B900000000000000000000000000000000000000000000000000000000 DUP2 MSTORE ADDRESS SWAP1 PUSH4 0xFAA6A1B9 SWAP1 PUSH2 0x1D7F SWAP1 PUSH1 0x0 SWAP1 DUP2 SWAP1 PUSH1 0x4 ADD PUSH2 0x3B0D JUMP JUMPDEST PUSH1 0x0 PUSH1 0x40 MLOAD DUP1 DUP4 SUB DUP2 PUSH1 0x0 DUP8 DUP1 EXTCODESIZE ISZERO DUP1 ISZERO PUSH2 0x1D99 JUMPI PUSH1 0x0 DUP1 REVERT JUMPDEST POP GAS CALL ISZERO DUP1 ISZERO PUSH2 0x1DAD JUMPI RETURNDATASIZE PUSH1 0x0 DUP1 RETURNDATACOPY RETURNDATASIZE PUSH1 0x0 REVERT JUMPDEST POP POP POP POP POP POP JUMPDEST SWAP5 SWAP4 POP POP POP POP JUMP JUMPDEST PUSH1 0x0 DUP1 JUMPDEST PUSH1 0x14 DUP2 LT ISZERO PUSH2 0x1E9A JUMPI PUSH20 0xFFFFFFFFFFFFFFFFFFFFFFFFFFFFFFFFFFFFFFFF DUP4 AND DUP5 DUP3 PUSH1 0x14 DUP2 LT PUSH2 0x1DEC JUMPI INVALID JUMPDEST PUSH1 0x20 MUL ADD MLOAD MLOAD PUSH20 0xFFFFFFFFFFFFFFFFFFFFFFFFFFFFFFFFFFFFFFFF AND EQ ISZERO PUSH2 0x1E15 JUMPI SWAP1 POP PUSH2 0x6A4 JUMP JUMPDEST DUP1 ISZERO DUP1 ISZERO SWAP1 PUSH2 0x1E4B JUMPI POP PUSH1 0x0 DUP5 DUP3 PUSH1 0x14 DUP2 LT PUSH2 0x1E2D JUMPI INVALID JUMPDEST PUSH1 0x20 MUL ADD MLOAD MLOAD PUSH20 0xFFFFFFFFFFFFFFFFFFFFFFFFFFFFFFFFFFFFFFFF AND EQ JUMPDEST ISZERO PUSH2 0x1E92 JUMPI PUSH1 0x40 DUP1 MLOAD DUP1 DUP3 ADD SWAP1 SWAP2 MSTORE PUSH20 0xFFFFFFFFFFFFFFFFFFFFFFFFFFFFFFFFFFFFFFFF DUP5 AND DUP2 MSTORE PUSH1 0x0 PUSH1 0x20 DUP3 ADD MSTORE DUP5 DUP3 PUSH1 0x14 DUP2 LT PUSH2 0x1E86 JUMPI INVALID JUMPDEST PUSH1 0x20 MUL ADD MSTORE SWAP1 POP PUSH2 0x6A4 JUMP JUMPDEST PUSH1 0x1 ADD PUSH2 0x1DC0 JUMP JUMPDEST POP SWAP3 SWAP2 POP POP JUMP JUMPDEST PUSH1 0x0 DUP2 DUP4 LT PUSH2 0x1EB0 JUMPI DUP2 PUSH2 0x6A1 JUMP JUMPDEST POP SWAP1 SWAP2 SWAP1 POP JUMP JUMPDEST PUSH1 0x0 DUP1 DUP1 DUP1 DUP1 JUMPDEST DUP8 PUSH1 0x80 ADD MLOAD MLOAD DUP2 LT ISZERO PUSH2 0x201D JUMPI DUP6 DUP6 DUP8 SUB PUSH2 0x2710 MUL LT ISZERO PUSH2 0x1EDE JUMPI PUSH2 0x201D JUMP JUMPDEST PUSH1 0x40 MLOAD PUSH32 0xFAA6A1B900000000000000000000000000000000000000000000000000000000 DUP2 MSTORE ADDRESS SWAP1 PUSH4 0xFAA6A1B9 SWAP1 PUSH2 0x1F1D SWAP1 DUP5 SWAP1 PUSH1 0x0 SWAP1 PUSH1 0x4 ADD PUSH2 0x3C79 JUMP JUMPDEST PUSH1 0x0 PUSH1 0x40 MLOAD DUP1 DUP4 SUB DUP2 PUSH1 0x0 DUP8 DUP1 EXTCODESIZE ISZERO DUP1 ISZERO PUSH2 0x1F37 JUMPI PUSH1 0x0 DUP1 REVERT JUMPDEST POP GAS CALL ISZERO DUP1 ISZERO PUSH2 0x1F4B JUMPI RETURNDATASIZE PUSH1 0x0 DUP1 RETURNDATACOPY RETURNDATASIZE PUSH1 0x0 REVERT JUMPDEST POP POP POP POP PUSH2 0x1F97 DUP9 PUSH1 0x80 ADD MLOAD DUP3 DUP2 MLOAD DUP2 LT ISZERO ISZERO PUSH2 0x1F64 JUMPI INVALID JUMPDEST SWAP1 PUSH1 0x20 ADD SWAP1 PUSH1 0x20 MUL ADD MLOAD DUP7 DUP9 SUB DUP11 PUSH1 0x60 ADD MLOAD PUSH2 0x1F86 JUMPI DUP7 DUP12 PUSH1 0x40 ADD MLOAD SUB PUSH2 0x1F8A JUMP JUMPDEST DUP8 DUP10 SUB JUMPDEST PUSH1 0x60 DUP13 ADD MLOAD DUP13 MLOAD DUP13 PUSH2 0x2455 JUMP JUMPDEST PUSH1 0x40 MLOAD PUSH32 0xFAA6A1B900000000000000000000000000000000000000000000000000000000 DUP2 MSTORE SWAP2 SWAP5 POP SWAP3 POP ADDRESS SWAP1 PUSH4 0xFAA6A1B9 SWAP1 PUSH2 0x1FDB SWAP1 PUSH1 0x0 SWAP1 DUP2 SWAP1 PUSH1 0x4 ADD PUSH2 0x3BED JUMP JUMPDEST PUSH1 0x0 PUSH1 0x40 MLOAD DUP1 DUP4 SUB DUP2 PUSH1 0x0 DUP8 DUP1 EXTCODESIZE ISZERO DUP1 ISZERO PUSH2 0x1FF5 JUMPI PUSH1 0x0 DUP1 REVERT JUMPDEST POP GAS CALL ISZERO DUP1 ISZERO PUSH2 0x2009 JUMPI RETURNDATASIZE PUSH1 0x0 DUP1 RETURNDATACOPY RETURNDATASIZE PUSH1 0x0 REVERT JUMPDEST POP POP POP SWAP5 DUP4 ADD SWAP5 POP SWAP3 DUP2 ADD SWAP3 PUSH1 0x1 ADD PUSH2 0x1EBE JUMP JUMPDEST POP PUSH2 0x202D DUP7 DUP9 PUSH1 0x20 ADD MLOAD DUP4 PUSH2 0x2779 JUMP JUMPDEST PUSH2 0x203C DUP7 DUP9 PUSH1 0x0 ADD MLOAD DUP5 PUSH2 0x23FA JUMP JUMPDEST PUSH1 0x40 MLOAD PUSH32 0xFAA6A1B900000000000000000000000000000000000000000000000000000000 DUP2 MSTORE ADDRESS SWAP1 PUSH4 0xFAA6A1B9 SWAP1 PUSH2 0x207B SWAP1 DUP6 SWAP1 PUSH1 0x0 SWAP1 PUSH1 0x4 ADD PUSH2 0x3ABE JUMP JUMPDEST PUSH1 0x0 PUSH1 0x40 MLOAD DUP1 DUP4 SUB DUP2 PUSH1 0x0 DUP8 DUP1 EXTCODESIZE ISZERO DUP1 ISZERO PUSH2 0x2095 JUMPI PUSH1 0x0 DUP1 REVERT JUMPDEST POP GAS CALL ISZERO DUP1 ISZERO PUSH2 0x20A9 JUMPI RETURNDATASIZE PUSH1 0x0 DUP1 RETURNDATACOPY RETURNDATASIZE PUSH1 0x0 REVERT JUMPDEST POP POP POP POP POP POP SWAP4 POP SWAP4 SWAP2 POP POP JUMP JUMPDEST PUSH1 0x40 MLOAD PUSH32 0xFAA6A1B900000000000000000000000000000000000000000000000000000000 DUP2 MSTORE PUSH1 0x0 SWAP1 ADDRESS SWAP1 PUSH4 0xFAA6A1B9 SWAP1 PUSH2 0x20F8 SWAP1 DUP8 SWAP1 DUP6 SWAP1 PUSH1 0x4 ADD PUSH2 0x3C89 JUMP JUMPDEST PUSH1 0x0 PUSH1 0x40 MLOAD DUP1 DUP4 SUB DUP2 PUSH1 0x0 DUP8 DUP1 EXTCODESIZE ISZERO DUP1 ISZERO PUSH2 0x2112 JUMPI PUSH1 0x0 DUP1 REVERT JUMPDEST POP GAS CALL ISZERO DUP1 ISZERO PUSH2 0x2126 JUMPI RETURNDATASIZE PUSH1 0x0 DUP1 RETURNDATACOPY RETURNDATASIZE PUSH1 0x0 REVERT JUMPDEST POP POP POP POP PUSH1 0x0 PUSH2 0x2134 PUSH2 0xD8C JUMP JUMPDEST PUSH20 0xFFFFFFFFFFFFFFFFFFFFFFFFFFFFFFFFFFFFFFFF AND DUP8 PUSH20 0xFFFFFFFFFFFFFFFFFFFFFFFFFFFFFFFFFFFFFFFF AND EQ PUSH2 0x2174 JUMPI PUSH2 0x216F DUP8 PUSH2 0x2792 JUMP JUMPDEST PUSH2 0x2177 JUMP JUMPDEST PUSH1 0x12 JUMPDEST PUSH1 0x40 MLOAD PUSH32 0xFAA6A1B900000000000000000000000000000000000000000000000000000000 DUP2 MSTORE SWAP1 SWAP2 POP ADDRESS SWAP1 PUSH4 0xFAA6A1B9 SWAP1 PUSH2 0x21B9 SWAP1 DUP8 SWAP1 PUSH1 0x0 SWAP1 PUSH1 0x4 ADD PUSH2 0x3B7D JUMP JUMPDEST PUSH1 0x0 PUSH1 0x40 MLOAD DUP1 DUP4 SUB DUP2 PUSH1 0x0 DUP8 DUP1 EXTCODESIZE ISZERO DUP1 ISZERO PUSH2 0x21D3 JUMPI PUSH1 0x0 DUP1 REVERT JUMPDEST POP GAS CALL ISZERO DUP1 ISZERO PUSH2 0x21E7 JUMPI RETURNDATASIZE PUSH1 0x0 DUP1 RETURNDATACOPY RETURNDATASIZE PUSH1 0x0 REVERT JUMPDEST POP POP POP POP PUSH1 0x0 PUSH2 0x21F5 PUSH2 0xD8C JUMP JUMPDEST PUSH20 0xFFFFFFFFFFFFFFFFFFFFFFFFFFFFFFFFFFFFFFFF AND DUP8 PUSH20 0xFFFFFFFFFFFFFFFFFFFFFFFFFFFFFFFFFFFFFFFF AND EQ PUSH2 0x2235 JUMPI PUSH2 0x2230 DUP8 PUSH2 0x2792 JUMP JUMPDEST PUSH2 0x2238 JUMP JUMPDEST PUSH1 0x12 JUMPDEST PUSH1 0x40 MLOAD PUSH32 0xFAA6A1B900000000000000000000000000000000000000000000000000000000 DUP2 MSTORE SWAP1 SWAP2 POP ADDRESS SWAP1 PUSH4 0xFAA6A1B9 SWAP1 PUSH2 0x227A SWAP1 PUSH1 0x0 SWAP1 DUP2 SWAP1 PUSH1 0x4 ADD PUSH2 0x3B5D JUMP JUMPDEST PUSH1 0x0 PUSH1 0x40 MLOAD DUP1 DUP4 SUB DUP2 PUSH1 0x0 DUP8 DUP1 EXTCODESIZE ISZERO DUP1 ISZERO PUSH2 0x2294 JUMPI PUSH1 0x0 DUP1 REVERT JUMPDEST POP GAS CALL ISZERO DUP1 ISZERO PUSH2 0x22A8 JUMPI RETURNDATASIZE PUSH1 0x0 DUP1 RETURNDATACOPY RETURNDATASIZE PUSH1 0x0 REVERT JUMPDEST POP POP POP POP PUSH1 0x0 PUSH2 0x22BA DUP8 DUP8 DUP6 DUP6 PUSH2 0x280A JUMP JUMPDEST PUSH1 0x40 MLOAD PUSH32 0xFAA6A1B900000000000000000000000000000000000000000000000000000000 DUP2 MSTORE SWAP1 SWAP2 POP ADDRESS SWAP1 PUSH4 0xFAA6A1B9 SWAP1 PUSH2 0x22FC SWAP1 DUP5 SWAP1 PUSH1 0x0 SWAP1 PUSH1 0x4 ADD PUSH2 0x3C0D JUMP JUMPDEST PUSH1 0x0 PUSH1 0x40 MLOAD DUP1 DUP4 SUB DUP2 PUSH1 0x0 DUP8 DUP1 EXTCODESIZE ISZERO DUP1 ISZERO PUSH2 0x2316 JUMPI PUSH1 0x0 DUP1 REVERT JUMPDEST POP GAS CALL ISZERO DUP1 ISZERO PUSH2 0x232A JUMPI RETURNDATASIZE PUSH1 0x0 DUP1 RETURNDATACOPY RETURNDATASIZE PUSH1 0x0 REVERT JUMPDEST POP POP POP POP DUP5 DUP2 LT SWAP4 POP POP POP POP JUMPDEST SWAP6 SWAP5 POP POP POP POP POP JUMP JUMPDEST PUSH1 0x0 DUP2 GT ISZERO PUSH2 0x14BB JUMPI PUSH2 0x2351 PUSH2 0xD8C JUMP JUMPDEST PUSH20 0xFFFFFFFFFFFFFFFFFFFFFFFFFFFFFFFFFFFFFFFF AND DUP5 DUP5 PUSH1 0x14 DUP2 LT PUSH2 0x2373 JUMPI INVALID JUMPDEST PUSH1 0x20 MUL ADD MLOAD MLOAD PUSH20 0xFFFFFFFFFFFFFFFFFFFFFFFFFFFFFFFFFFFFFFFF AND EQ ISZERO PUSH2 0x23DE JUMPI PUSH1 0x40 MLOAD PUSH20 0xFFFFFFFFFFFFFFFFFFFFFFFFFFFFFFFFFFFFFFFF DUP4 AND SWAP1 DUP3 ISZERO PUSH2 0x8FC MUL SWAP1 DUP4 SWAP1 PUSH1 0x0 DUP2 DUP2 DUP2 DUP6 DUP9 DUP9 CALL SWAP4 POP POP POP POP ISZERO DUP1 ISZERO PUSH2 0x23D8 JUMPI RETURNDATASIZE PUSH1 0x0 DUP1 RETURNDATACOPY RETURNDATASIZE PUSH1 0x0 REVERT JUMPDEST POP PUSH2 0x14BB JUMP JUMPDEST PUSH2 0xA92 DUP5 DUP5 PUSH1 0x14 DUP2 LT PUSH2 0x23ED JUMPI INVALID JUMPDEST PUSH1 0x20 MUL ADD MLOAD MLOAD DUP4 DUP4 PUSH2 0xBEA JUMP JUMPDEST PUSH1 0x0 PUSH2 0x2406 DUP5 DUP5 PUSH2 0x1DBC JUMP JUMPDEST SWAP1 POP PUSH2 0x14BB DUP5 DUP3 DUP5 PUSH2 0x2430 JUMP JUMPDEST PUSH1 0x0 PUSH2 0x6A1 PUSH2 0x2422 DUP5 DUP5 PUSH2 0x28A5 JUMP JUMPDEST PUSH8 0xDE0B6B3A7640000 PUSH2 0x28D0 JUMP JUMPDEST DUP1 DUP4 DUP4 PUSH1 0x14 DUP2 LT PUSH2 0x243D JUMPI INVALID JUMPDEST PUSH1 0x20 MUL ADD MLOAD PUSH1 0x20 ADD DUP2 DUP2 MLOAD SUB SWAP2 POP DUP2 DUP2 MSTORE POP POP POP POP POP JUMP JUMPDEST PUSH1 0x40 MLOAD PUSH32 0xFAA6A1B900000000000000000000000000000000000000000000000000000000 DUP2 MSTORE PUSH1 0x0 SWAP1 DUP2 SWAP1 ADDRESS SWAP1 PUSH4 0xFAA6A1B9 SWAP1 PUSH2 0x2498 SWAP1 DUP11 SWAP1 DUP6 SWAP1 PUSH1 0x4 ADD PUSH2 0x3CA9 JUMP JUMPDEST PUSH1 0x0 PUSH1 0x40 MLOAD DUP1 DUP4 SUB DUP2 PUSH1 0x0 DUP8 DUP1 EXTCODESIZE ISZERO DUP1 ISZERO PUSH2 0x24B2 JUMPI PUSH1 0x0 DUP1 REVERT JUMPDEST POP GAS CALL ISZERO DUP1 ISZERO PUSH2 0x24C6 JUMPI RETURNDATASIZE PUSH1 0x0 DUP1 RETURNDATACOPY RETURNDATASIZE PUSH1 0x0 REVERT JUMPDEST POP POP POP POP PUSH2 0x24D2 PUSH2 0xD8C JUMP JUMPDEST PUSH20 0xFFFFFFFFFFFFFFFFFFFFFFFFFFFFFFFFFFFFFFFF AND DUP5 PUSH20 0xFFFFFFFFFFFFFFFFFFFFFFFFFFFFFFFFFFFFFFFF AND EQ ISZERO PUSH2 0x25C1 JUMPI DUP8 MLOAD PUSH1 0x20 DUP10 ADD MLOAD PUSH1 0x40 MLOAD PUSH32 0x345C2A600000000000000000000000000000000000000000000000000000000 DUP2 MSTORE PUSH20 0xFFFFFFFFFFFFFFFFFFFFFFFFFFFFFFFFFFFFFFFF SWAP1 SWAP3 AND SWAP2 PUSH4 0x345C2A6 SWAP2 DUP11 SWAP2 PUSH2 0x2566 SWAP2 SWAP1 DUP4 SWAP1 DUP13 SWAP1 DUP13 SWAP1 PUSH1 0x4 ADD PUSH2 0x39FD JUMP JUMPDEST PUSH1 0x40 DUP1 MLOAD DUP1 DUP4 SUB DUP2 DUP6 DUP9 DUP1 EXTCODESIZE ISZERO DUP1 ISZERO PUSH2 0x257E JUMPI PUSH1 0x0 DUP1 REVERT JUMPDEST POP GAS CALL ISZERO DUP1 ISZERO PUSH2 0x2592 JUMPI RETURNDATASIZE PUSH1 0x0 DUP1 RETURNDATACOPY RETURNDATASIZE PUSH1 0x0 REVERT JUMPDEST POP POP POP POP POP PUSH1 0x40 MLOAD RETURNDATASIZE PUSH1 0x1F NOT PUSH1 0x1F DUP3 ADD AND DUP3 ADD DUP1 PUSH1 0x40 MSTORE POP PUSH2 0x25B7 SWAP2 SWAP1 DUP2 ADD SWAP1 PUSH2 0x2ED1 JUMP JUMPDEST SWAP1 SWAP3 POP SWAP1 POP PUSH2 0x268C JUMP JUMPDEST PUSH2 0x25D7 DUP4 PUSH2 0x25CF DUP6 DUP8 PUSH2 0x1DBC JUMP JUMPDEST DUP11 MLOAD DUP11 PUSH2 0x2340 JUMP JUMPDEST DUP8 MLOAD PUSH1 0x20 DUP10 ADD MLOAD PUSH1 0x40 MLOAD PUSH32 0x345C2A600000000000000000000000000000000000000000000000000000000 DUP2 MSTORE PUSH20 0xFFFFFFFFFFFFFFFFFFFFFFFFFFFFFFFFFFFFFFFF SWAP1 SWAP3 AND SWAP2 PUSH4 0x345C2A6 SWAP2 PUSH2 0x2635 SWAP2 DUP12 SWAP1 DUP12 SWAP1 DUP12 SWAP1 PUSH1 0x4 ADD PUSH2 0x39FD JUMP JUMPDEST PUSH1 0x40 DUP1 MLOAD DUP1 DUP4 SUB DUP2 PUSH1 0x0 DUP8 DUP1 EXTCODESIZE ISZERO DUP1 ISZERO PUSH2 0x264E JUMPI PUSH1 0x0 DUP1 REVERT JUMPDEST POP GAS CALL ISZERO DUP1 ISZERO PUSH2 0x2662 JUMPI RETURNDATASIZE PUSH1 0x0 DUP1 RETURNDATACOPY RETURNDATASIZE PUSH1 0x0 REVERT JUMPDEST POP POP POP POP PUSH1 0x40 MLOAD RETURNDATASIZE PUSH1 0x1F NOT PUSH1 0x1F DUP3 ADD AND DUP3 ADD DUP1 PUSH1 0x40 MSTORE POP PUSH2 0x2686 SWAP2 SWAP1 DUP2 ADD SWAP1 PUSH2 0x2ED1 JUMP JUMPDEST SWAP1 SWAP3 POP SWAP1 POP JUMPDEST PUSH1 0x40 MLOAD PUSH32 0xFAA6A1B900000000000000000000000000000000000000000000000000000000 DUP2 MSTORE ADDRESS SWAP1 PUSH4 0xFAA6A1B9 SWAP1 PUSH2 0x26CB SWAP1 DUP6 SWAP1 PUSH1 0x0 SWAP1 PUSH1 0x4 ADD PUSH2 0x3CA9 JUMP JUMPDEST PUSH1 0x0 PUSH1 0x40 MLOAD DUP1 DUP4 SUB DUP2 PUSH1 0x0 DUP8 DUP1 EXTCODESIZE ISZERO DUP1 ISZERO PUSH2 0x26E5 JUMPI PUSH1 0x0 DUP1 REVERT JUMPDEST POP GAS CALL ISZERO DUP1 ISZERO PUSH2 0x26F9 JUMPI RETURNDATASIZE PUSH1 0x0 DUP1 RETURNDATACOPY RETURNDATASIZE PUSH1 0x0 REVERT JUMPDEST POP POP PUSH1 0x40 MLOAD PUSH32 0xFAA6A1B900000000000000000000000000000000000000000000000000000000 DUP2 MSTORE ADDRESS SWAP3 POP PUSH4 0xFAA6A1B9 SWAP2 POP PUSH2 0x273C SWAP1 DUP5 SWAP1 PUSH1 0x0 SWAP1 PUSH1 0x4 ADD PUSH2 0x3CA9 JUMP JUMPDEST PUSH1 0x0 PUSH1 0x40 MLOAD DUP1 DUP4 SUB DUP2 PUSH1 0x0 DUP8 DUP1 EXTCODESIZE ISZERO DUP1 ISZERO PUSH2 0x2756 JUMPI PUSH1 0x0 DUP1 REVERT JUMPDEST POP GAS CALL ISZERO DUP1 ISZERO PUSH2 0x276A JUMPI RETURNDATASIZE PUSH1 0x0 DUP1 RETURNDATACOPY RETURNDATASIZE PUSH1 0x0 REVERT JUMPDEST POP POP POP POP SWAP7 POP SWAP7 SWAP5 POP POP POP POP POP JUMP JUMPDEST PUSH1 0x0 PUSH2 0x2785 DUP5 DUP5 PUSH2 0x1DBC JUMP JUMPDEST SWAP1 POP PUSH2 0x14BB DUP5 DUP3 DUP5 PUSH2 0x28F4 JUMP JUMPDEST PUSH1 0x40 DUP1 MLOAD PUSH32 0x646563696D616C73282900000000000000000000000000000000000000000000 DUP2 MSTORE SWAP1 MLOAD SWAP1 DUP2 SWAP1 SUB PUSH1 0xA ADD DUP2 KECCAK256 DUP1 DUP3 MSTORE PUSH1 0x0 SWAP2 PUSH1 0x4 PUSH1 0x20 DUP1 DUP4 DUP4 DUP2 DUP9 DUP11 PUSH2 0x1388 CALL DUP1 DUP1 ISZERO PUSH2 0x27EC JUMPI PUSH1 0x1 DUP2 EQ PUSH2 0x27F5 JUMPI PUSH2 0x27FA JUMP JUMPDEST PUSH1 0x0 SWAP7 POP PUSH2 0x27FA JUMP JUMPDEST DUP5 MLOAD SWAP7 POP JUMPDEST POP POP POP POP PUSH1 0x4 ADD PUSH1 0x40 MSTORE POP SWAP2 SWAP1 POP JUMP JUMPDEST PUSH1 0x0 PUSH12 0x204FCE5E3E25026110000000 DUP6 GT ISZERO PUSH2 0x2825 JUMPI PUSH1 0x0 DUP1 REVERT JUMPDEST PUSH12 0x204FCE5E3E25026110000000 DUP5 GT ISZERO PUSH2 0x283E JUMPI PUSH1 0x0 DUP1 REVERT JUMPDEST DUP3 DUP3 LT PUSH2 0x2879 JUMPI PUSH1 0x12 DUP4 DUP4 SUB GT ISZERO PUSH2 0x2855 JUMPI PUSH1 0x0 DUP1 REVERT JUMPDEST DUP5 DUP4 DUP4 SUB PUSH1 0xA EXP MUL PUSH8 0xDE0B6B3A7640000 DUP6 MUL DUP2 ISZERO ISZERO PUSH2 0x2871 JUMPI INVALID JUMPDEST DIV SWAP1 POP PUSH2 0x1DB4 JUMP JUMPDEST PUSH1 0x12 DUP3 DUP5 SUB GT ISZERO PUSH2 0x2889 JUMPI PUSH1 0x0 DUP1 REVERT JUMPDEST DUP5 DUP3 DUP5 SUB PUSH1 0xA EXP PUSH8 0xDE0B6B3A7640000 DUP7 MUL MUL DUP2 ISZERO ISZERO PUSH2 0x2871 JUMPI INVALID JUMPDEST PUSH1 0x0 DUP3 ISZERO ISZERO PUSH2 0x28B6 JUMPI POP PUSH1 0x0 PUSH2 0x6A4 JUMP JUMPDEST DUP3 DUP3 MUL DUP3 DUP5 DUP3 DUP2 ISZERO ISZERO PUSH2 0x28C5 JUMPI INVALID JUMPDEST DIV EQ PUSH2 0x6A1 JUMPI PUSH1 0x0 DUP1 REVERT JUMPDEST PUSH1 0x0 DUP1 DUP3 GT PUSH2 0x28DE JUMPI PUSH1 0x0 DUP1 REVERT JUMPDEST PUSH1 0x0 DUP3 DUP5 DUP2 ISZERO ISZERO PUSH2 0x28EB JUMPI INVALID JUMPDEST DIV SWAP5 SWAP4 POP POP POP POP JUMP JUMPDEST DUP1 DUP4 DUP4 PUSH1 0x14 DUP2 LT PUSH2 0x2901 JUMPI INVALID JUMPDEST PUSH1 0x20 MUL ADD MLOAD PUSH1 0x20 ADD DUP2 DUP2 MLOAD ADD SWAP2 POP DUP2 DUP2 MSTORE POP POP POP POP POP JUMP JUMPDEST PUSH2 0x500 PUSH1 0x40 MLOAD SWAP1 DUP2 ADD PUSH1 0x40 MSTORE DUP1 PUSH1 0x14 SWAP1 JUMPDEST PUSH2 0x2932 PUSH2 0x2948 JUMP JUMPDEST DUP2 MSTORE PUSH1 0x20 ADD SWAP1 PUSH1 0x1 SWAP1 SUB SWAP1 DUP2 PUSH2 0x292A JUMPI SWAP1 POP POP SWAP1 JUMP JUMPDEST PUSH1 0x40 DUP1 MLOAD DUP1 DUP3 ADD SWAP1 SWAP2 MSTORE PUSH1 0x0 DUP1 DUP3 MSTORE PUSH1 0x20 DUP3 ADD MSTORE SWAP1 JUMP JUMPDEST PUSH1 0x0 PUSH2 0x6A1 DUP3 CALLDATALOAD PUSH2 0x3D81 JUMP JUMPDEST PUSH1 0x0 PUSH1 0x1F DUP3 ADD DUP4 SGT PUSH2 0x297C JUMPI PUSH1 0x0 DUP1 REVERT JUMPDEST DUP2 CALLDATALOAD PUSH2 0x298F PUSH2 0x298A DUP3 PUSH2 0x3D10 JUMP JUMPDEST PUSH2 0x3CE9 JUMP JUMPDEST DUP2 DUP2 MSTORE PUSH1 0x20 SWAP4 DUP5 ADD SWAP4 SWAP1 SWAP3 POP DUP3 ADD DUP4 PUSH1 0x0 JUMPDEST DUP4 DUP2 LT ISZERO PUSH2 0x29CD JUMPI DUP2 CALLDATALOAD DUP7 ADD PUSH2 0x29B7 DUP9 DUP3 PUSH2 0x2AF8 JUMP JUMPDEST DUP5 MSTORE POP PUSH1 0x20 SWAP3 DUP4 ADD SWAP3 SWAP2 SWAP1 SWAP2 ADD SWAP1 PUSH1 0x1 ADD PUSH2 0x29A1 JUMP JUMPDEST POP POP POP POP SWAP3 SWAP2 POP POP JUMP JUMPDEST PUSH1 0x0 PUSH1 0x1F DUP3 ADD DUP4 SGT PUSH2 0x29E8 JUMPI PUSH1 0x0 DUP1 REVERT JUMPDEST DUP2 CALLDATALOAD PUSH2 0x29F6 PUSH2 0x298A DUP3 PUSH2 0x3D10 JUMP JUMPDEST DUP2 DUP2 MSTORE PUSH1 0x20 SWAP4 DUP5 ADD SWAP4 SWAP1 SWAP3 POP DUP3 ADD DUP4 PUSH1 0x0 JUMPDEST DUP4 DUP2 LT ISZERO PUSH2 0x29CD JUMPI DUP2 CALLDATALOAD DUP7 ADD PUSH2 0x2A1E DUP9 DUP3 PUSH2 0x2C19 JUMP JUMPDEST DUP5 MSTORE POP PUSH1 0x20 SWAP3 DUP4 ADD SWAP3 SWAP2 SWAP1 SWAP2 ADD SWAP1 PUSH1 0x1 ADD PUSH2 0x2A08 JUMP JUMPDEST PUSH1 0x0 PUSH1 0x1F DUP3 ADD DUP4 SGT PUSH2 0x2A45 JUMPI PUSH1 0x0 DUP1 REVERT JUMPDEST DUP2 CALLDATALOAD PUSH2 0x2A53 PUSH2 0x298A DUP3 PUSH2 0x3D10 JUMP JUMPDEST DUP2 DUP2 MSTORE PUSH1 0x20 SWAP4 DUP5 ADD SWAP4 SWAP1 SWAP3 POP DUP3 ADD DUP4 PUSH1 0x0 JUMPDEST DUP4 DUP2 LT ISZERO PUSH2 0x29CD JUMPI DUP2 CALLDATALOAD DUP7 ADD PUSH2 0x2A7B DUP9 DUP3 PUSH2 0x2CF1 JUMP JUMPDEST DUP5 MSTORE POP PUSH1 0x20 SWAP3 DUP4 ADD SWAP3 SWAP2 SWAP1 SWAP2 ADD SWAP1 PUSH1 0x1 ADD PUSH2 0x2A65 JUMP JUMPDEST PUSH1 0x0 PUSH2 0x6A1 DUP3 CALLDATALOAD PUSH2 0x3D8C JUMP JUMPDEST PUSH1 0x0 PUSH2 0x6A1 DUP3 CALLDATALOAD PUSH2 0x3D91 JUMP JUMPDEST PUSH1 0x0 PUSH1 0x1F DUP3 ADD DUP4 SGT PUSH2 0x2ABA JUMPI PUSH1 0x0 DUP1 REVERT JUMPDEST DUP2 CALLDATALOAD PUSH2 0x2AC8 PUSH2 0x298A DUP3 PUSH2 0x3D31 JUMP JUMPDEST SWAP2 POP DUP1 DUP3 MSTORE PUSH1 0x20 DUP4 ADD PUSH1 0x20 DUP4 ADD DUP6 DUP4 DUP4 ADD GT ISZERO PUSH2 0x2AE4 JUMPI PUSH1 0x0 DUP1 REVERT JUMPDEST PUSH2 0x2AEF DUP4 DUP3 DUP5 PUSH2 0x3DDC JUMP JUMPDEST POP POP POP SWAP3 SWAP2 POP POP JUMP JUMPDEST PUSH1 0x0 PUSH1 0x40 DUP3 DUP5 SUB SLT ISZERO PUSH2 0x2B0A JUMPI PUSH1 0x0 DUP1 REVERT JUMPDEST PUSH2 0x2B14 PUSH1 0x40 PUSH2 0x3CE9 JUMP JUMPDEST SWAP1 POP PUSH1 0x0 PUSH2 0x2B22 DUP5 DUP5 PUSH2 0x295F JUMP JUMPDEST DUP3 MSTORE POP PUSH1 0x20 DUP3 ADD CALLDATALOAD PUSH8 0xFFFFFFFFFFFFFFFF DUP2 GT ISZERO PUSH2 0x2B3F JUMPI PUSH1 0x0 DUP1 REVERT JUMPDEST PUSH2 0x2B4B DUP5 DUP3 DUP6 ADD PUSH2 0x2AA9 JUMP JUMPDEST PUSH1 0x20 DUP4 ADD MSTORE POP SWAP3 SWAP2 POP POP JUMP JUMPDEST PUSH1 0x0 PUSH1 0xE0 DUP3 DUP5 SUB SLT ISZERO PUSH2 0x2B69 JUMPI PUSH1 0x0 DUP1 REVERT JUMPDEST PUSH2 0x2B73 PUSH1 0xE0 PUSH2 0x3CE9 JUMP JUMPDEST SWAP1 POP DUP2 CALLDATALOAD PUSH8 0xFFFFFFFFFFFFFFFF DUP2 GT ISZERO PUSH2 0x2B8C JUMPI PUSH1 0x0 DUP1 REVERT JUMPDEST PUSH2 0x2B98 DUP5 DUP3 DUP6 ADD PUSH2 0x29D7 JUMP JUMPDEST DUP3 MSTORE POP PUSH1 0x20 PUSH2 0x2BA9 DUP5 DUP5 DUP4 ADD PUSH2 0x295F JUMP JUMPDEST PUSH1 0x20 DUP4 ADD MSTORE POP PUSH1 0x40 PUSH2 0x2BBD DUP5 DUP3 DUP6 ADD PUSH2 0x2A9D JUMP JUMPDEST PUSH1 0x40 DUP4 ADD MSTORE POP PUSH1 0x60 PUSH2 0x2BD1 DUP5 DUP3 DUP6 ADD PUSH2 0x2A9D JUMP JUMPDEST PUSH1 0x60 DUP4 ADD MSTORE POP PUSH1 0x80 PUSH2 0x2BE5 DUP5 DUP3 DUP6 ADD PUSH2 0x2D98 JUMP JUMPDEST PUSH1 0x80 DUP4 ADD MSTORE POP PUSH1 0xA0 PUSH2 0x2BF9 DUP5 DUP3 DUP6 ADD PUSH2 0x2A9D JUMP JUMPDEST PUSH1 0xA0 DUP4 ADD MSTORE POP PUSH1 0xC0 PUSH2 0x2C0D DUP5 DUP3 DUP6 ADD PUSH2 0x2A9D JUMP JUMPDEST PUSH1 0xC0 DUP4 ADD MSTORE POP SWAP3 SWAP2 POP POP JUMP JUMPDEST PUSH1 0x0 PUSH2 0x100 DUP3 DUP5 SUB SLT ISZERO PUSH2 0x2C2C JUMPI PUSH1 0x0 DUP1 REVERT JUMPDEST PUSH2 0x2C37 PUSH2 0x100 PUSH2 0x3CE9 JUMP JUMPDEST SWAP1 POP DUP2 CALLDATALOAD PUSH8 0xFFFFFFFFFFFFFFFF DUP2 GT ISZERO PUSH2 0x2C50 JUMPI PUSH1 0x0 DUP1 REVERT JUMPDEST PUSH2 0x2C5C DUP5 DUP3 DUP6 ADD PUSH2 0x2A34 JUMP JUMPDEST DUP3 MSTORE POP PUSH1 0x20 PUSH2 0x2C6D DUP5 DUP5 DUP4 ADD PUSH2 0x2A9D JUMP JUMPDEST PUSH1 0x20 DUP4 ADD MSTORE POP PUSH1 0x40 PUSH2 0x2C81 DUP5 DUP3 DUP6 ADD PUSH2 0x2A9D JUMP JUMPDEST PUSH1 0x40 DUP4 ADD MSTORE POP PUSH1 0x60 PUSH2 0x2C95 DUP5 DUP3 DUP6 ADD PUSH2 0x2A9D JUMP JUMPDEST PUSH1 0x60 DUP4 ADD MSTORE POP PUSH1 0x80 PUSH2 0x2CA9 DUP5 DUP3 DUP6 ADD PUSH2 0x2A9D JUMP JUMPDEST PUSH1 0x80 DUP4 ADD MSTORE POP PUSH1 0xA0 PUSH2 0x2CBD DUP5 DUP3 DUP6 ADD PUSH2 0x2A91 JUMP JUMPDEST PUSH1 0xA0 DUP4 ADD MSTORE POP PUSH1 0xC0 PUSH2 0x2CD1 DUP5 DUP3 DUP6 ADD PUSH2 0x295F JUMP JUMPDEST PUSH1 0xC0 DUP4 ADD MSTORE POP PUSH1 0xE0 PUSH2 0x2CE5 DUP5 DUP3 DUP6 ADD PUSH2 0x2A91 JUMP JUMPDEST PUSH1 0xE0 DUP4 ADD MSTORE POP SWAP3 SWAP2 POP POP JUMP JUMPDEST PUSH1 0x0 PUSH1 0xA0 DUP3 DUP5 SUB SLT ISZERO PUSH2 0x2D03 JUMPI PUSH1 0x0 DUP1 REVERT JUMPDEST PUSH2 0x2D0D PUSH1 0xA0 PUSH2 0x3CE9 JUMP JUMPDEST SWAP1 POP PUSH1 0x0 PUSH2 0x2D1B DUP5 DUP5 PUSH2 0x295F JUMP JUMPDEST DUP3 MSTORE POP PUSH1 0x20 PUSH2 0x2D2C DUP5 DUP5 DUP4 ADD PUSH2 0x295F JUMP JUMPDEST PUSH1 0x20 DUP4 ADD MSTORE POP PUSH1 0x40 PUSH2 0x2D40 DUP5 DUP3 DUP6 ADD PUSH2 0x2A9D JUMP JUMPDEST PUSH1 0x40 DUP4 ADD MSTORE POP PUSH1 0x60 PUSH2 0x2D54 DUP5 DUP3 DUP6 ADD PUSH2 0x2A91 JUMP JUMPDEST PUSH1 0x60 DUP4 ADD MSTORE POP PUSH1 0x80 DUP3 ADD CALLDATALOAD PUSH8 0xFFFFFFFFFFFFFFFF DUP2 GT ISZERO PUSH2 0x2D74 JUMPI PUSH1 0x0 DUP1 REVERT JUMPDEST PUSH2 0x2D80 DUP5 DUP3 DUP6 ADD PUSH2 0x296B JUMP JUMPDEST PUSH1 0x80 DUP4 ADD MSTORE POP SWAP3 SWAP2 POP POP JUMP JUMPDEST PUSH1 0x0 PUSH2 0x6A1 DUP3 MLOAD PUSH2 0x3D91 JUMP JUMPDEST PUSH1 0x0 PUSH2 0x6A1 DUP3 CALLDATALOAD PUSH2 0x3DAD JUMP JUMPDEST PUSH1 0x0 PUSH1 0x20 DUP3 DUP5 SUB SLT ISZERO PUSH2 0x2DB6 JUMPI PUSH1 0x0 DUP1 REVERT JUMPDEST PUSH1 0x0 PUSH2 0x1DB4 DUP5 DUP5 PUSH2 0x295F JUMP JUMPDEST PUSH1 0x0 DUP1 PUSH1 0x40 DUP4 DUP6 SUB SLT ISZERO PUSH2 0x2DD5 JUMPI PUSH1 0x0 DUP1 REVERT JUMPDEST PUSH1 0x0 PUSH2 0x2DE1 DUP6 DUP6 PUSH2 0x295F JUMP JUMPDEST SWAP3 POP POP PUSH1 0x20 PUSH2 0x2DF2 DUP6 DUP3 DUP7 ADD PUSH2 0x2A9D JUMP JUMPDEST SWAP2 POP POP SWAP3 POP SWAP3 SWAP1 POP JUMP JUMPDEST PUSH1 0x0 DUP1 PUSH1 0x0 PUSH1 0x60 DUP5 DUP7 SUB SLT ISZERO PUSH2 0x2E11 JUMPI PUSH1 0x0 DUP1 REVERT JUMPDEST DUP4 CALLDATALOAD PUSH8 0xFFFFFFFFFFFFFFFF DUP2 GT ISZERO PUSH2 0x2E28 JUMPI PUSH1 0x0 DUP1 REVERT JUMPDEST PUSH2 0x2E34 DUP7 DUP3 DUP8 ADD PUSH2 0x2AA9 JUMP JUMPDEST SWAP4 POP POP PUSH1 0x20 PUSH2 0x2E45 DUP7 DUP3 DUP8 ADD PUSH2 0x2A9D JUMP JUMPDEST SWAP3 POP POP PUSH1 0x40 PUSH2 0x2E56 DUP7 DUP3 DUP8 ADD PUSH2 0x2A9D JUMP JUMPDEST SWAP2 POP POP SWAP3 POP SWAP3 POP SWAP3 JUMP JUMPDEST PUSH1 0x0 PUSH1 0x20 DUP3 DUP5 SUB SLT ISZERO PUSH2 0x2E72 JUMPI PUSH1 0x0 DUP1 REVERT JUMPDEST DUP2 CALLDATALOAD PUSH8 0xFFFFFFFFFFFFFFFF DUP2 GT ISZERO PUSH2 0x2E89 JUMPI PUSH1 0x0 DUP1 REVERT JUMPDEST PUSH2 0x1DB4 DUP5 DUP3 DUP6 ADD PUSH2 0x2B57 JUMP JUMPDEST PUSH1 0x0 PUSH1 0x20 DUP3 DUP5 SUB SLT ISZERO PUSH2 0x2EA7 JUMPI PUSH1 0x0 DUP1 REVERT JUMPDEST PUSH1 0x0 PUSH2 0x1DB4 DUP5 DUP5 PUSH2 0x2A9D JUMP JUMPDEST PUSH1 0x0 PUSH1 0x20 DUP3 DUP5 SUB SLT ISZERO PUSH2 0x2EC5 JUMPI PUSH1 0x0 DUP1 REVERT JUMPDEST PUSH1 0x0 PUSH2 0x1DB4 DUP5 DUP5 PUSH2 0x2D8C JUMP JUMPDEST PUSH1 0x0 DUP1 PUSH1 0x40 DUP4 DUP6 SUB SLT ISZERO PUSH2 0x2EE4 JUMPI PUSH1 0x0 DUP1 REVERT JUMPDEST PUSH1 0x0 PUSH2 0x2EF0 DUP6 DUP6 PUSH2 0x2D8C JUMP JUMPDEST SWAP3 POP POP PUSH1 0x20 PUSH2 0x2DF2 DUP6 DUP3 DUP7 ADD PUSH2 0x2D8C JUMP JUMPDEST PUSH2 0x2F0A DUP2 PUSH2 0x3D81 JUMP JUMPDEST DUP3 MSTORE POP POP JUMP JUMPDEST PUSH1 0x0 PUSH2 0x2F1B DUP3 PUSH2 0x3D7D JUMP JUMPDEST DUP1 DUP5 MSTORE PUSH1 0x20 DUP5 ADD SWAP4 POP DUP4 PUSH1 0x20 DUP3 MUL DUP6 ADD PUSH2 0x2F34 DUP6 PUSH2 0x3D77 JUMP JUMPDEST PUSH1 0x0 JUMPDEST DUP5 DUP2 LT ISZERO PUSH2 0x2F6B JUMPI DUP4 DUP4 SUB DUP9 MSTORE PUSH2 0x2F4F DUP4 DUP4 MLOAD PUSH2 0x37AD JUMP JUMPDEST SWAP3 POP PUSH2 0x2F5A DUP3 PUSH2 0x3D77 JUMP JUMPDEST PUSH1 0x20 SWAP9 SWAP1 SWAP9 ADD SWAP8 SWAP2 POP PUSH1 0x1 ADD PUSH2 0x2F37 JUMP JUMPDEST POP SWAP1 SWAP7 SWAP6 POP POP POP POP POP POP JUMP JUMPDEST PUSH1 0x0 PUSH2 0x2F82 DUP3 PUSH2 0x3D7D JUMP JUMPDEST DUP1 DUP5 MSTORE PUSH1 0x20 DUP5 ADD SWAP4 POP DUP4 PUSH1 0x20 DUP3 MUL DUP6 ADD PUSH2 0x2F9B DUP6 PUSH2 0x3D77 JUMP JUMPDEST PUSH1 0x0 JUMPDEST DUP5 DUP2 LT ISZERO PUSH2 0x2F6B JUMPI DUP4 DUP4 SUB DUP9 MSTORE PUSH2 0x2FB6 DUP4 DUP4 MLOAD PUSH2 0x37D9 JUMP JUMPDEST SWAP3 POP PUSH2 0x2FC1 DUP3 PUSH2 0x3D77 JUMP JUMPDEST PUSH1 0x20 SWAP9 SWAP1 SWAP9 ADD SWAP8 SWAP2 POP PUSH1 0x1 ADD PUSH2 0x2F9E JUMP JUMPDEST PUSH1 0x0 PUSH2 0x2FDD DUP3 PUSH2 0x3D7D JUMP JUMPDEST DUP1 DUP5 MSTORE PUSH1 0x20 DUP5 ADD SWAP4 POP DUP4 PUSH1 0x20 DUP3 MUL DUP6 ADD PUSH2 0x2FF6 DUP6 PUSH2 0x3D77 JUMP JUMPDEST PUSH1 0x0 JUMPDEST DUP5 DUP2 LT ISZERO PUSH2 0x2F6B JUMPI DUP4 DUP4 SUB DUP9 MSTORE PUSH2 0x3011 DUP4 DUP4 MLOAD PUSH2 0x3881 JUMP JUMPDEST SWAP3 POP PUSH2 0x301C DUP3 PUSH2 0x3D77 JUMP JUMPDEST PUSH1 0x20 SWAP9 SWAP1 SWAP9 ADD SWAP8 SWAP2 POP PUSH1 0x1 ADD PUSH2 0x2FF9 JUMP JUMPDEST PUSH2 0x2F0A DUP2 PUSH2 0x3D8C JUMP JUMPDEST PUSH2 0x2F0A DUP2 PUSH2 0x3D91 JUMP JUMPDEST PUSH1 0x0 PUSH2 0x304A DUP3 PUSH2 0x3D7D JUMP JUMPDEST DUP1 DUP5 MSTORE PUSH2 0x305E DUP2 PUSH1 0x20 DUP7 ADD PUSH1 0x20 DUP7 ADD PUSH2 0x3DE8 JUMP JUMPDEST PUSH2 0x3067 DUP2 PUSH2 0x3E14 JUMP JUMPDEST SWAP1 SWAP4 ADD PUSH1 0x20 ADD SWAP4 SWAP3 POP POP POP JUMP JUMPDEST PUSH2 0x2F0A DUP2 PUSH2 0x3DB3 JUMP JUMPDEST PUSH2 0x2F0A DUP2 PUSH2 0x3DBE JUMP JUMPDEST PUSH2 0x2F0A DUP2 PUSH2 0x3DD1 JUMP JUMPDEST PUSH1 0xA DUP2 MSTORE PUSH32 0x54616B696E672066656500000000000000000000000000000000000000000000 PUSH1 0x20 DUP3 ADD MSTORE PUSH1 0x40 ADD SWAP1 JUMP JUMPDEST PUSH1 0x12 DUP2 MSTORE PUSH32 0x476F74206665652070657263656E746167650000000000000000000000000000 PUSH1 0x20 DUP3 ADD MSTORE PUSH1 0x40 ADD SWAP1 JUMP JUMPDEST PUSH1 0x14 DUP2 MSTORE PUSH32 0x436F6E7472616374206E6F74207061757365642E000000000000000000000000 PUSH1 0x20 DUP3 ADD MSTORE PUSH1 0x40 ADD SWAP1 JUMP JUMPDEST PUSH1 0xF DUP2 MSTORE PUSH32 0x547261646520706572666F726D65640000000000000000000000000000000000 PUSH1 0x20 DUP3 ADD MSTORE PUSH1 0x40 ADD SWAP1 JUMP JUMPDEST PUSH1 0x18 DUP2 MSTORE PUSH32 0x41626F757420746F20726564697265637420746F6B656E730000000000000000 PUSH1 0x20 DUP3 ADD MSTORE PUSH1 0x40 ADD SWAP1 JUMP JUMPDEST PUSH1 0x15 DUP2 MSTORE PUSH32 0x41626F757420746F20656D6974204C6F67537761700000000000000000000000 PUSH1 0x20 DUP3 ADD MSTORE PUSH1 0x40 ADD SWAP1 JUMP JUMPDEST PUSH1 0x13 DUP2 MSTORE PUSH32 0x5472616E7366657272696E6720746F6B656E7300000000000000000000000000 PUSH1 0x20 DUP3 ADD MSTORE PUSH1 0x40 ADD SWAP1 JUMP JUMPDEST PUSH1 0x8 DUP2 MSTORE PUSH32 0x546F6F6B20666565000000000000000000000000000000000000000000000000 PUSH1 0x20 DUP3 ADD MSTORE PUSH1 0x40 ADD SWAP1 JUMP JUMPDEST PUSH1 0xF DUP2 MSTORE PUSH32 0x5472616E73666572206661696C65640000000000000000000000000000000000 PUSH1 0x20 DUP3 ADD MSTORE PUSH1 0x40 ADD SWAP1 JUMP JUMPDEST PUSH1 0xA DUP2 MSTORE PUSH32 0x456E6F7567682065746800000000000000000000000000000000000000000000 PUSH1 0x20 DUP3 ADD MSTORE PUSH1 0x40 ADD SWAP1 JUMP JUMPDEST PUSH1 0x29 DUP2 MSTORE PUSH32 0x454F412063616E6E6F742073656E6420657468657220746F207072696D617279 PUSH1 0x20 DUP3 ADD MSTORE PUSH32 0x2066616C6C6261636B0000000000000000000000000000000000000000000000 PUSH1 0x40 DUP3 ADD MSTORE PUSH1 0x60 ADD SWAP1 JUMP JUMPDEST PUSH1 0x11 DUP2 MSTORE PUSH32 0x496E76616C6964207369676E6174757265000000000000000000000000000000 PUSH1 0x20 DUP3 ADD MSTORE PUSH1 0x40 ADD SWAP1 JUMP JUMPDEST PUSH1 0x1D DUP2 MSTORE PUSH32 0x41626F757420746F2063616C63756C61746520616D6F756E7420676F74000000 PUSH1 0x20 DUP3 ADD MSTORE PUSH1 0x40 ADD SWAP1 JUMP JUMPDEST PUSH1 0xE DUP2 MSTORE PUSH32 0x4E6F7420656E6F75676820657468000000000000000000000000000000000000 PUSH1 0x20 DUP3 ADD MSTORE PUSH1 0x40 ADD SWAP1 JUMP JUMPDEST PUSH1 0x21 DUP2 MSTORE PUSH32 0x41626F757420746F206765742064657374696E6174696F6E20646563696D616C PUSH1 0x20 DUP3 ADD MSTORE PUSH32 0x7300000000000000000000000000000000000000000000000000000000000000 PUSH1 0x40 DUP3 ADD MSTORE PUSH1 0x60 ADD SWAP1 JUMP JUMPDEST PUSH1 0x2D DUP2 MSTORE PUSH32 0x546F6B656E7320676F74206C657373207468616E206D696E696D756D44657374 PUSH1 0x20 DUP3 ADD MSTORE PUSH32 0x696E6174696F6E416D6F756E7400000000000000000000000000000000000000 PUSH1 0x40 DUP3 ADD MSTORE PUSH1 0x60 ADD SWAP1 JUMP JUMPDEST PUSH1 0x15 DUP2 MSTORE PUSH32 0x5472616E7366657272696E6720696E20746F6B656E0000000000000000000000 PUSH1 0x20 DUP3 ADD MSTORE PUSH1 0x40 ADD SWAP1 JUMP JUMPDEST PUSH1 0x21 DUP2 MSTORE PUSH32 0x4D696E696D756D2064657374696E6174696F6E20616D6F756E74206661696C65 PUSH1 0x20 DUP3 ADD MSTORE PUSH32 0x6400000000000000000000000000000000000000000000000000000000000000 PUSH1 0x40 DUP3 ADD MSTORE PUSH1 0x60 ADD SWAP1 JUMP JUMPDEST PUSH1 0x13 DUP2 MSTORE PUSH32 0x43726561746564206574682062616C616E636500000000000000000000000000 PUSH1 0x20 DUP3 ADD MSTORE PUSH1 0x40 ADD SWAP1 JUMP JUMPDEST PUSH1 0x17 DUP2 MSTORE PUSH32 0x4469646E27742067657420656E6F75676820746F6B656E000000000000000000 PUSH1 0x20 DUP3 ADD MSTORE PUSH1 0x40 ADD SWAP1 JUMP JUMPDEST PUSH1 0x1D DUP2 MSTORE PUSH32 0x4D696E696D756D2065786368616E67652072617465206E6F74206D6574000000 PUSH1 0x20 DUP3 ADD MSTORE PUSH1 0x40 ADD SWAP1 JUMP JUMPDEST PUSH1 0xF DUP2 MSTORE PUSH32 0x4F7264657220706572666F726D65640000000000000000000000000000000000 PUSH1 0x20 DUP3 ADD MSTORE PUSH1 0x40 ADD SWAP1 JUMP JUMPDEST PUSH1 0x13 DUP2 MSTORE PUSH32 0x4D696E696D756D2072617465206661696C656400000000000000000000000000 PUSH1 0x20 DUP3 ADD MSTORE PUSH1 0x40 ADD SWAP1 JUMP JUMPDEST PUSH1 0x15 DUP2 MSTORE PUSH32 0x41626F757420746F20706572666F726D20737761700000000000000000000000 PUSH1 0x20 DUP3 ADD MSTORE PUSH1 0x40 ADD SWAP1 JUMP JUMPDEST PUSH1 0x15 DUP2 MSTORE PUSH32 0x41626F757420746F20706572666F726D54726164650000000000000000000000 PUSH1 0x20 DUP3 ADD MSTORE PUSH1 0x40 ADD SWAP1 JUMP JUMPDEST PUSH1 0x1C DUP2 MSTORE PUSH32 0x41626F757420746F207472616E7366657220616C6C20746F6B656E7300000000 PUSH1 0x20 DUP3 ADD MSTORE PUSH1 0x40 ADD SWAP1 JUMP JUMPDEST PUSH1 0x26 DUP2 MSTORE PUSH32 0x4661696C656420746F2067657420746F6B656E7320666F722072657175697265 PUSH1 0x20 DUP3 ADD MSTORE PUSH32 0x6420737761700000000000000000000000000000000000000000000000000000 PUSH1 0x40 DUP3 ADD MSTORE PUSH1 0x60 ADD SWAP1 JUMP JUMPDEST PUSH1 0x16 DUP2 MSTORE PUSH32 0x41626F757420746F20706572666F726D206F7264657200000000000000000000 PUSH1 0x20 DUP3 ADD MSTORE PUSH1 0x40 ADD SWAP1 JUMP JUMPDEST PUSH1 0x1C DUP2 MSTORE PUSH32 0x41626F757420746F2067657420736F7572636520646563696D616C7300000000 PUSH1 0x20 DUP3 ADD MSTORE PUSH1 0x40 ADD SWAP1 JUMP JUMPDEST PUSH1 0x10 DUP2 MSTORE PUSH32 0x476F7420656E6F75676820746F6B656E00000000000000000000000000000000 PUSH1 0x20 DUP3 ADD MSTORE PUSH1 0x40 ADD SWAP1 JUMP JUMPDEST PUSH1 0x10 DUP2 MSTORE PUSH32 0x506572666F726D696E67206F7264657200000000000000000000000000000000 PUSH1 0x20 DUP3 ADD MSTORE PUSH1 0x40 ADD SWAP1 JUMP JUMPDEST PUSH1 0x13 DUP2 MSTORE PUSH32 0x436F6E7472616374206973207061757365642E00000000000000000000000000 PUSH1 0x20 DUP3 ADD MSTORE PUSH1 0x40 ADD SWAP1 JUMP JUMPDEST PUSH1 0x1D DUP2 MSTORE PUSH32 0x4E6F7420656E6F7567682064657374696E6174696F6E20616D6F756E74000000 PUSH1 0x20 DUP3 ADD MSTORE PUSH1 0x40 ADD SWAP1 JUMP JUMPDEST PUSH1 0x7 DUP2 MSTORE PUSH32 0x4578706972656400000000000000000000000000000000000000000000000000 PUSH1 0x20 DUP3 ADD MSTORE PUSH1 0x40 ADD SWAP1 JUMP JUMPDEST DUP1 MLOAD PUSH1 0x0 SWAP1 PUSH1 0x40 DUP5 ADD SWAP1 PUSH2 0x37C1 DUP6 DUP3 PUSH2 0x2F01 JUMP JUMPDEST POP PUSH1 0x20 DUP4 ADD MLOAD DUP5 DUP3 SUB PUSH1 0x20 DUP7 ADD MSTORE PUSH2 0x2337 DUP3 DUP3 PUSH2 0x303F JUMP JUMPDEST DUP1 MLOAD PUSH2 0x100 DUP1 DUP5 MSTORE PUSH1 0x0 SWAP2 SWAP1 DUP5 ADD SWAP1 PUSH2 0x37F2 DUP3 DUP3 PUSH2 0x2FD2 JUMP JUMPDEST SWAP2 POP POP PUSH1 0x20 DUP4 ADD MLOAD PUSH2 0x3807 PUSH1 0x20 DUP7 ADD DUP3 PUSH2 0x3036 JUMP JUMPDEST POP PUSH1 0x40 DUP4 ADD MLOAD PUSH2 0x381A PUSH1 0x40 DUP7 ADD DUP3 PUSH2 0x3036 JUMP JUMPDEST POP PUSH1 0x60 DUP4 ADD MLOAD PUSH2 0x382D PUSH1 0x60 DUP7 ADD DUP3 PUSH2 0x3036 JUMP JUMPDEST POP PUSH1 0x80 DUP4 ADD MLOAD PUSH2 0x3840 PUSH1 0x80 DUP7 ADD DUP3 PUSH2 0x3036 JUMP JUMPDEST POP PUSH1 0xA0 DUP4 ADD MLOAD PUSH2 0x3853 PUSH1 0xA0 DUP7 ADD DUP3 PUSH2 0x302D JUMP JUMPDEST POP PUSH1 0xC0 DUP4 ADD MLOAD PUSH2 0x3866 PUSH1 0xC0 DUP7 ADD DUP3 PUSH2 0x2F01 JUMP JUMPDEST POP PUSH1 0xE0 DUP4 ADD MLOAD PUSH2 0x3879 PUSH1 0xE0 DUP7 ADD DUP3 PUSH2 0x302D JUMP JUMPDEST POP SWAP4 SWAP3 POP POP POP JUMP JUMPDEST DUP1 MLOAD PUSH1 0x0 SWAP1 PUSH1 0xA0 DUP5 ADD SWAP1 PUSH2 0x3895 DUP6 DUP3 PUSH2 0x2F01 JUMP JUMPDEST POP PUSH1 0x20 DUP4 ADD MLOAD PUSH2 0x38A8 PUSH1 0x20 DUP7 ADD DUP3 PUSH2 0x2F01 JUMP JUMPDEST POP PUSH1 0x40 DUP4 ADD MLOAD PUSH2 0x38BB PUSH1 0x40 DUP7 ADD DUP3 PUSH2 0x3036 JUMP JUMPDEST POP PUSH1 0x60 DUP4 ADD MLOAD PUSH2 0x38CE PUSH1 0x60 DUP7 ADD DUP3 PUSH2 0x302D JUMP JUMPDEST POP PUSH1 0x80 DUP4 ADD MLOAD DUP5 DUP3 SUB PUSH1 0x80 DUP7 ADD MSTORE PUSH2 0x2337 DUP3 DUP3 PUSH2 0x2F10 JUMP JUMPDEST PUSH1 0x20 DUP2 ADD PUSH2 0x6A4 DUP3 DUP5 PUSH2 0x2F01 JUMP JUMPDEST PUSH1 0x80 DUP2 ADD PUSH2 0x3902 DUP3 DUP8 PUSH2 0x2F01 JUMP JUMPDEST PUSH2 0x390F PUSH1 0x20 DUP4 ADD DUP7 PUSH2 0x2F01 JUMP JUMPDEST PUSH2 0x391C PUSH1 0x40 DUP4 ADD DUP6 PUSH2 0x2F01 JUMP JUMPDEST PUSH2 0x2337 PUSH1 0x60 DUP4 ADD DUP5 PUSH2 0x3036 JUMP JUMPDEST PUSH1 0xC0 DUP2 ADD PUSH2 0x3937 DUP3 DUP10 PUSH2 0x2F01 JUMP JUMPDEST PUSH2 0x3944 PUSH1 0x20 DUP4 ADD DUP9 PUSH2 0x2F01 JUMP JUMPDEST PUSH2 0x3951 PUSH1 0x40 DUP4 ADD DUP8 PUSH2 0x3036 JUMP JUMPDEST PUSH2 0x395E PUSH1 0x60 DUP4 ADD DUP7 PUSH2 0x3036 JUMP JUMPDEST PUSH2 0x396B PUSH1 0x80 DUP4 ADD DUP6 PUSH2 0x2F01 JUMP JUMPDEST PUSH2 0x3978 PUSH1 0xA0 DUP4 ADD DUP5 PUSH2 0x3036 JUMP JUMPDEST SWAP8 SWAP7 POP POP POP POP POP POP POP JUMP JUMPDEST PUSH1 0x40 DUP2 ADD PUSH2 0x3991 DUP3 DUP6 PUSH2 0x2F01 JUMP JUMPDEST PUSH2 0xD85 PUSH1 0x20 DUP4 ADD DUP5 PUSH2 0x3036 JUMP JUMPDEST PUSH1 0xA0 DUP1 DUP3 MSTORE DUP2 ADD PUSH2 0x39AF DUP2 DUP9 PUSH2 0x2F77 JUMP JUMPDEST SWAP1 POP PUSH2 0x39BE PUSH1 0x20 DUP4 ADD DUP8 PUSH2 0x2F01 JUMP JUMPDEST PUSH2 0x39CB PUSH1 0x40 DUP4 ADD DUP7 PUSH2 0x3036 JUMP JUMPDEST PUSH2 0x39D8 PUSH1 0x60 DUP4 ADD DUP6 PUSH2 0x3036 JUMP JUMPDEST PUSH2 0x39E5 PUSH1 0x80 DUP4 ADD DUP5 PUSH2 0x2F01 JUMP JUMPDEST SWAP7 SWAP6 POP POP POP POP POP POP JUMP JUMPDEST PUSH1 0x20 DUP2 ADD PUSH2 0x6A4 DUP3 DUP5 PUSH2 0x302D JUMP JUMPDEST PUSH1 0x80 DUP1 DUP3 MSTORE DUP2 ADD PUSH2 0x3A0E DUP2 DUP8 PUSH2 0x303F JUMP JUMPDEST SWAP1 POP PUSH2 0x3A1D PUSH1 0x20 DUP4 ADD DUP7 PUSH2 0x3036 JUMP JUMPDEST PUSH2 0x3A2A PUSH1 0x40 DUP4 ADD DUP6 PUSH2 0x3036 JUMP JUMPDEST PUSH2 0x2337 PUSH1 0x60 DUP4 ADD DUP5 PUSH2 0x302D JUMP JUMPDEST PUSH1 0x20 DUP2 ADD PUSH2 0x6A4 DUP3 DUP5 PUSH2 0x3074 JUMP JUMPDEST PUSH1 0x60 DUP1 DUP3 MSTORE DUP2 ADD PUSH2 0x3A56 DUP2 DUP7 PUSH2 0x303F JUMP JUMPDEST SWAP1 POP PUSH2 0x3A65 PUSH1 0x20 DUP4 ADD DUP6 PUSH2 0x3036 JUMP JUMPDEST PUSH2 0x1DB4 PUSH1 0x40 DUP4 ADD DUP5 PUSH2 0x3036 JUMP JUMPDEST PUSH1 0x60 DUP1 DUP3 MSTORE DUP2 ADD PUSH2 0x3A82 DUP2 PUSH2 0x308F JUMP JUMPDEST SWAP1 POP PUSH2 0x3A91 PUSH1 0x20 DUP4 ADD DUP6 PUSH2 0x3036 JUMP JUMPDEST PUSH2 0xD85 PUSH1 0x40 DUP4 ADD DUP5 PUSH2 0x307D JUMP JUMPDEST PUSH1 0x60 DUP1 DUP3 MSTORE DUP2 ADD PUSH2 0x3A82 DUP2 PUSH2 0x30BF JUMP JUMPDEST PUSH1 0x20 DUP1 DUP3 MSTORE DUP2 ADD PUSH2 0x6A4 DUP2 PUSH2 0x30EF JUMP JUMPDEST PUSH1 0x60 DUP1 DUP3 MSTORE DUP2 ADD PUSH2 0x3A82 DUP2 PUSH2 0x311F JUMP JUMPDEST PUSH1 0x60 DUP1 DUP3 MSTORE DUP2 ADD PUSH2 0x3A82 DUP2 PUSH2 0x314F JUMP JUMPDEST PUSH1 0x60 DUP1 DUP3 MSTORE DUP2 ADD PUSH2 0x3AEE DUP2 PUSH2 0x317F JUMP JUMPDEST SWAP1 POP PUSH2 0x3A91 PUSH1 0x20 DUP4 ADD DUP6 PUSH2 0x3086 JUMP JUMPDEST PUSH1 0x60 DUP1 DUP3 MSTORE DUP2 ADD PUSH2 0x3A82 DUP2 PUSH2 0x31AF JUMP JUMPDEST PUSH1 0x60 DUP1 DUP3 MSTORE DUP2 ADD PUSH2 0x3AEE DUP2 PUSH2 0x31DF JUMP JUMPDEST PUSH1 0x20 DUP1 DUP3 MSTORE DUP2 ADD PUSH2 0x6A4 DUP2 PUSH2 0x320F JUMP JUMPDEST PUSH1 0x60 DUP1 DUP3 MSTORE DUP2 ADD PUSH2 0x3AEE DUP2 PUSH2 0x323F JUMP JUMPDEST PUSH1 0x20 DUP1 DUP3 MSTORE DUP2 ADD PUSH2 0x6A4 DUP2 PUSH2 0x326F JUMP JUMPDEST PUSH1 0x20 DUP1 DUP3 MSTORE DUP2 ADD PUSH2 0x6A4 DUP2 PUSH2 0x32C5 JUMP JUMPDEST PUSH1 0x60 DUP1 DUP3 MSTORE DUP2 ADD PUSH2 0x3AEE DUP2 PUSH2 0x32F5 JUMP JUMPDEST PUSH1 0x60 DUP1 DUP3 MSTORE DUP2 ADD PUSH2 0x3AEE DUP2 PUSH2 0x3325 JUMP JUMPDEST PUSH1 0x60 DUP1 DUP3 MSTORE DUP2 ADD PUSH2 0x3A82 DUP2 PUSH2 0x3355 JUMP JUMPDEST PUSH1 0x20 DUP1 DUP3 MSTORE DUP2 ADD PUSH2 0x6A4 DUP2 PUSH2 0x33AB JUMP JUMPDEST PUSH1 0x60 DUP1 DUP3 MSTORE DUP2 ADD PUSH2 0x3AEE DUP2 PUSH2 0x3401 JUMP JUMPDEST PUSH1 0x60 DUP1 DUP3 MSTORE DUP2 ADD PUSH2 0x3AEE DUP2 PUSH2 0x3431 JUMP JUMPDEST PUSH1 0x60 DUP1 DUP3 MSTORE DUP2 ADD PUSH2 0x3A82 DUP2 PUSH2 0x3487 JUMP JUMPDEST PUSH1 0x60 DUP1 DUP3 MSTORE DUP2 ADD PUSH2 0x3AEE DUP2 PUSH2 0x34B7 JUMP JUMPDEST PUSH1 0x20 DUP1 DUP3 MSTORE DUP2 ADD PUSH2 0x6A4 DUP2 PUSH2 0x34E7 JUMP JUMPDEST PUSH1 0x60 DUP1 DUP3 MSTORE DUP2 ADD PUSH2 0x3AEE DUP2 PUSH2 0x3517 JUMP JUMPDEST PUSH1 0x60 DUP1 DUP3 MSTORE DUP2 ADD PUSH2 0x3AEE DUP2 PUSH2 0x3547 JUMP JUMPDEST PUSH1 0x60 DUP1 DUP3 MSTORE DUP2 ADD PUSH2 0x3A82 DUP2 PUSH2 0x3547 JUMP JUMPDEST PUSH1 0x60 DUP1 DUP3 MSTORE DUP2 ADD PUSH2 0x3C2D DUP2 PUSH2 0x3577 JUMP JUMPDEST SWAP1 POP PUSH2 0x3C3C PUSH1 0x20 DUP4 ADD DUP6 PUSH2 0x3036 JUMP JUMPDEST PUSH2 0xD85 PUSH1 0x40 DUP4 ADD DUP5 PUSH2 0x3036 JUMP JUMPDEST PUSH1 0x60 DUP1 DUP3 MSTORE DUP2 ADD PUSH2 0x3AEE DUP2 PUSH2 0x35A7 JUMP JUMPDEST PUSH1 0x60 DUP1 DUP3 MSTORE DUP2 ADD PUSH2 0x3AEE DUP2 PUSH2 0x35D7 JUMP JUMPDEST PUSH1 0x20 DUP1 DUP3 MSTORE DUP2 ADD PUSH2 0x6A4 DUP2 PUSH2 0x3607 JUMP JUMPDEST PUSH1 0x60 DUP1 DUP3 MSTORE DUP2 ADD PUSH2 0x3A82 DUP2 PUSH2 0x365D JUMP JUMPDEST PUSH1 0x60 DUP1 DUP3 MSTORE DUP2 ADD PUSH2 0x3A82 DUP2 PUSH2 0x368D JUMP JUMPDEST PUSH1 0x60 DUP1 DUP3 MSTORE DUP2 ADD PUSH2 0x3AEE DUP2 PUSH2 0x36BD JUMP JUMPDEST PUSH1 0x60 DUP1 DUP3 MSTORE DUP2 ADD PUSH2 0x3A82 DUP2 PUSH2 0x36ED JUMP JUMPDEST PUSH1 0x20 DUP1 DUP3 MSTORE DUP2 ADD PUSH2 0x6A4 DUP2 PUSH2 0x371D JUMP JUMPDEST PUSH1 0x20 DUP1 DUP3 MSTORE DUP2 ADD PUSH2 0x6A4 DUP2 PUSH2 0x374D JUMP JUMPDEST PUSH1 0x20 DUP1 DUP3 MSTORE DUP2 ADD PUSH2 0x6A4 DUP2 PUSH2 0x377D JUMP JUMPDEST PUSH1 0x40 MLOAD DUP2 DUP2 ADD PUSH8 0xFFFFFFFFFFFFFFFF DUP2 GT DUP3 DUP3 LT OR ISZERO PUSH2 0x3D08 JUMPI PUSH1 0x0 DUP1 REVERT JUMPDEST PUSH1 0x40 MSTORE SWAP2 SWAP1 POP JUMP JUMPDEST PUSH1 0x0 PUSH8 0xFFFFFFFFFFFFFFFF DUP3 GT ISZERO PUSH2 0x3D27 JUMPI PUSH1 0x0 DUP1 REVERT JUMPDEST POP PUSH1 0x20 SWAP1 DUP2 MUL ADD SWAP1 JUMP JUMPDEST PUSH1 0x0 PUSH8 0xFFFFFFFFFFFFFFFF DUP3 GT ISZERO PUSH2 0x3D48 JUMPI PUSH1 0x0 DUP1 REVERT JUMPDEST POP PUSH1 0x20 PUSH1 0x1F SWAP2 SWAP1 SWAP2 ADD PUSH32 0xFFFFFFFFFFFFFFFFFFFFFFFFFFFFFFFFFFFFFFFFFFFFFFFFFFFFFFFFFFFFFFE0 AND ADD SWAP1 JUMP JUMPDEST PUSH1 0x20 ADD SWAP1 JUMP JUMPDEST MLOAD SWAP1 JUMP JUMPDEST PUSH1 0x0 PUSH2 0x6A4 DUP3 PUSH2 0x3D94 JUMP JUMPDEST ISZERO ISZERO SWAP1 JUMP JUMPDEST SWAP1 JUMP JUMPDEST PUSH20 0xFFFFFFFFFFFFFFFFFFFFFFFFFFFFFFFFFFFFFFFF AND SWAP1 JUMP JUMPDEST PUSH1 0xFF AND SWAP1 JUMP JUMPDEST PUSH1 0x0 PUSH2 0x6A4 DUP3 PUSH2 0x3D81 JUMP JUMPDEST PUSH1 0x0 PUSH2 0x6A4 PUSH2 0x3DCC DUP4 PUSH2 0x3D91 JUMP JUMPDEST PUSH2 0x3D91 JUMP JUMPDEST PUSH1 0x0 PUSH2 0x6A4 DUP3 PUSH2 0x3D91 JUMP JUMPDEST DUP3 DUP2 DUP4 CALLDATACOPY POP PUSH1 0x0 SWAP2 ADD MSTORE JUMP JUMPDEST PUSH1 0x0 JUMPDEST DUP4 DUP2 LT ISZERO PUSH2 0x3E03 JUMPI DUP2 DUP2 ADD MLOAD DUP4 DUP3 ADD MSTORE PUSH1 0x20 ADD PUSH2 0x3DEB JUMP JUMPDEST DUP4 DUP2 GT ISZERO PUSH2 0x14BB JUMPI POP POP PUSH1 0x0 SWAP2 ADD MSTORE JUMP JUMPDEST PUSH1 0x1F ADD PUSH32 0xFFFFFFFFFFFFFFFFFFFFFFFFFFFFFFFFFFFFFFFFFFFFFFFFFFFFFFFFFFFFFFE0 AND SWAP1 JUMP INVALID LOG2 PUSH6 0x627A7A723058 KECCAK256 SWAP10 PUSH21 0x9D91B713DADA69D43AF04C7F1E7E879D91850FF538 0xd8 SWAP9 0x28 0x28 0xc PUSH32 0x7622E16C6578706572696D656E74616CF5003700000000000000000000000000 "
			}
		}
	},
	"sourceTreeHashHex": "0xc2e5029b013f8d9fe9bb5fe3e7c6a0d5961010128de945a145ff5b787f66a4b7",
	"compiler": {
		"name": "solc",
		"version": "0.5.3+commit.10d17f24",
		"settings": {
			"remappings": [],
			"optimizer": {
				"enabled": true,
				"runs": 1000000
			},
			"outputSelection": {
				"*": {
					"*": [
						"abi",
						"devdoc",
						"evm.bytecode.object",
						"evm.bytecode.sourceMap",
						"evm.deployedBytecode.object",
						"evm.deployedBytecode.sourceMap"
					]
				}
			}
		}
	},
	"chains": {}
}