{
	"schemaVersion": "2.0.0",
	"contractName": "VaultEventful",
	"compilerOutput": {
		"abi": [
			{
				"constant": false,
				"inputs": [
					{
						"name": "_who",
						"type": "address"
					},
					{
						"name": "_newVault",
						"type": "address"
					},
					{
						"name": "_name",
						"type": "string"
					},
					{
						"name": "_symbol",
						"type": "string"
					},
					{
						"name": "_vaultId",
						"type": "uint256"
					}
				],
				"name": "createVault",
				"outputs": [
					{
						"name": "success",
						"type": "bool"
					}
				],
				"payable": false,
				"stateMutability": "nonpayable",
				"type": "function"
			},
			{
				"constant": false,
				"inputs": [
					{
						"name": "_who",
						"type": "address"
					},
					{
						"name": "_targetVault",
						"type": "address"
					},
					{
						"name": "_value",
						"type": "uint256"
					},
					{
						"name": "_amount",
						"type": "uint256"
					},
					{
						"name": "_name",
						"type": "bytes"
					},
					{
						"name": "_symbol",
						"type": "bytes"
					}
				],
				"name": "buyVault",
				"outputs": [
					{
						"name": "success",
						"type": "bool"
					}
				],
				"payable": false,
				"stateMutability": "nonpayable",
				"type": "function"
			},
			{
				"constant": true,
				"inputs": [],
				"name": "AUTHORITY",
				"outputs": [
					{
						"name": "",
						"type": "address"
					}
				],
				"payable": false,
				"stateMutability": "view",
				"type": "function"
			},
			{
				"constant": false,
				"inputs": [
					{
						"name": "_who",
						"type": "address"
					},
					{
						"name": "_targetVault",
						"type": "address"
					},
					{
						"name": "_vaultDao",
						"type": "address"
					}
				],
				"name": "changeVaultDao",
				"outputs": [
					{
						"name": "success",
						"type": "bool"
					}
				],
				"payable": false,
				"stateMutability": "nonpayable",
				"type": "function"
			},
			{
				"constant": false,
				"inputs": [
					{
						"name": "_who",
						"type": "address"
					},
					{
						"name": "_targetVault",
						"type": "address"
					},
					{
						"name": "_ratio",
						"type": "uint256"
					}
				],
				"name": "changeRatio",
				"outputs": [
					{
						"name": "success",
						"type": "bool"
					}
				],
				"payable": false,
				"stateMutability": "nonpayable",
				"type": "function"
			},
			{
				"constant": false,
				"inputs": [
					{
						"name": "_who",
						"type": "address"
					},
					{
						"name": "_targetVault",
						"type": "address"
					},
					{
						"name": "_transactionFee",
						"type": "uint256"
					}
				],
				"name": "setTransactionFee",
				"outputs": [
					{
						"name": "success",
						"type": "bool"
					}
				],
				"payable": false,
				"stateMutability": "nonpayable",
				"type": "function"
			},
			{
				"constant": false,
				"inputs": [
					{
						"name": "_who",
						"type": "address"
					},
					{
						"name": "_targetVault",
						"type": "address"
					},
					{
						"name": "_feeCollector",
						"type": "address"
					}
				],
				"name": "changeFeeCollector",
				"outputs": [
					{
						"name": "success",
						"type": "bool"
					}
				],
				"payable": false,
				"stateMutability": "nonpayable",
				"type": "function"
			},
			{
				"constant": false,
				"inputs": [
					{
						"name": "_who",
						"type": "address"
					},
					{
						"name": "_targetVault",
						"type": "address"
					},
					{
						"name": "_amount",
						"type": "uint256"
					},
					{
						"name": "_revenue",
						"type": "uint256"
					},
					{
						"name": "_name",
						"type": "bytes"
					},
					{
						"name": "_symbol",
						"type": "bytes"
					}
				],
				"name": "sellVault",
				"outputs": [
					{
						"name": "success",
						"type": "bool"
					}
				],
				"payable": false,
				"stateMutability": "nonpayable",
				"type": "function"
			},
			{
				"constant": true,
				"inputs": [],
				"name": "VERSION",
				"outputs": [
					{
						"name": "",
						"type": "string"
					}
				],
				"payable": false,
				"stateMutability": "view",
				"type": "function"
			},
			{
				"inputs": [
					{
						"name": "_authority",
						"type": "address"
					}
				],
				"payable": false,
				"stateMutability": "nonpayable",
				"type": "constructor"
			},
			{
				"anonymous": false,
				"inputs": [
					{
						"indexed": true,
						"name": "vault",
						"type": "address"
					},
					{
						"indexed": true,
						"name": "from",
						"type": "address"
					},
					{
						"indexed": true,
						"name": "to",
						"type": "address"
					},
					{
						"indexed": false,
						"name": "amount",
						"type": "uint256"
					},
					{
						"indexed": false,
						"name": "revenue",
						"type": "uint256"
					},
					{
						"indexed": false,
						"name": "name",
						"type": "bytes"
					},
					{
						"indexed": false,
						"name": "symbol",
						"type": "bytes"
					}
				],
				"name": "BuyVault",
				"type": "event"
			},
			{
				"anonymous": false,
				"inputs": [
					{
						"indexed": true,
						"name": "vault",
						"type": "address"
					},
					{
						"indexed": true,
						"name": "from",
						"type": "address"
					},
					{
						"indexed": true,
						"name": "to",
						"type": "address"
					},
					{
						"indexed": false,
						"name": "amount",
						"type": "uint256"
					},
					{
						"indexed": false,
						"name": "revenue",
						"type": "uint256"
					},
					{
						"indexed": false,
						"name": "name",
						"type": "bytes"
					},
					{
						"indexed": false,
						"name": "symbol",
						"type": "bytes"
					}
				],
				"name": "SellVault",
				"type": "event"
			},
			{
				"anonymous": false,
				"inputs": [
					{
						"indexed": true,
						"name": "vault",
						"type": "address"
					},
					{
						"indexed": true,
						"name": "from",
						"type": "address"
					},
					{
						"indexed": false,
						"name": "newRatio",
						"type": "uint256"
					}
				],
				"name": "NewRatio",
				"type": "event"
			},
			{
				"anonymous": false,
				"inputs": [
					{
						"indexed": true,
						"name": "vault",
						"type": "address"
					},
					{
						"indexed": true,
						"name": "from",
						"type": "address"
					},
					{
						"indexed": true,
						"name": "to",
						"type": "address"
					},
					{
						"indexed": false,
						"name": "fee",
						"type": "uint256"
					}
				],
				"name": "NewFee",
				"type": "event"
			},
			{
				"anonymous": false,
				"inputs": [
					{
						"indexed": true,
						"name": "vault",
						"type": "address"
					},
					{
						"indexed": true,
						"name": "from",
						"type": "address"
					},
					{
						"indexed": true,
						"name": "to",
						"type": "address"
					},
					{
						"indexed": false,
						"name": "collector",
						"type": "address"
					}
				],
				"name": "NewCollector",
				"type": "event"
			},
			{
				"anonymous": false,
				"inputs": [
					{
						"indexed": true,
						"name": "vault",
						"type": "address"
					},
					{
						"indexed": true,
						"name": "from",
						"type": "address"
					},
					{
						"indexed": true,
						"name": "to",
						"type": "address"
					},
					{
						"indexed": false,
						"name": "vaultDao",
						"type": "address"
					}
				],
				"name": "VaultDao",
				"type": "event"
			},
			{
				"anonymous": false,
				"inputs": [
					{
						"indexed": true,
						"name": "vault",
						"type": "address"
					},
					{
						"indexed": true,
						"name": "group",
						"type": "address"
					},
					{
						"indexed": true,
						"name": "owner",
						"type": "address"
					},
					{
						"indexed": false,
						"name": "vaultId",
						"type": "uint256"
					},
					{
						"indexed": false,
						"name": "name",
						"type": "string"
					},
					{
						"indexed": false,
						"name": "symbol",
						"type": "string"
					}
				],
				"name": "VaultCreated",
				"type": "event"
			}
		],
		"devdoc": {
			"author": "Gabriele Rigo - <gab@rigoblock.com>",
			"methods": {
				"buyVault(address,address,uint256,uint256,bytes,bytes)": {
					"details": "Logs a Buy Vault event.",
					"params": {
						"_amount": "Number of shares purchased",
						"_targetVault": "Address of the target vault",
						"_value": "Value of the transaction in Ether",
						"_who": "Address of who is buying"
					},
					"return": "Bool the transaction executed successfully"
				},
				"changeFeeCollector(address,address,address)": {
					"details": "Logs when wizard changes fee collector address",
					"params": {
						"_feeCollector": "Address of the new fee collector",
						"_targetVault": "Address of the target Vault",
						"_who": "Address of the caller"
					},
					"return": "Bool the transaction executed successfully"
				},
				"changeRatio(address,address,uint256)": {
					"details": "Logswhen rigoblock dao changes fee split.",
					"params": {
						"_ratio": "Ratio number from 0 to 100",
						"_targetVault": "Address of the target vault",
						"_who": "Address of the caller"
					},
					"return": "Bool the transaction executed successfully"
				},
				"changeVaultDao(address,address,address)": {
					"details": "Logs a change in the vault dao of an approved vault",
					"params": {
						"_targetVault": "Address of the vault",
						"_vaultDao": "Address of the new vault dao",
						"_who": "Address of the caller"
					},
					"return": "Bool the transaction executed successfully"
				},
				"createVault(address,address,string,string,uint256)": {
					"details": "Logs a new Vault creation by factory",
					"params": {
						"_name": "String of the name of the new vault",
						"_newVault": "Address of the new vault",
						"_symbol": "String of the symbol of the new vault",
						"_vaultId": "Number of the new vault Id",
						"_who": "Address of the caller"
					},
					"return": "Bool the transaction executed successfully"
				},
				"sellVault(address,address,uint256,uint256,bytes,bytes)": {
					"details": "Logs a Sell Vault event.",
					"params": {
						"_amount": "Number of shares purchased",
						"_revenue": "Value of the transaction in Ether",
						"_targetVault": "Address of the target vault",
						"_who": "Address of who is selling"
					},
					"return": "Bool the transaction executed successfully"
				},
				"setTransactionFee(address,address,uint256)": {
					"details": "Logs a modification of the transaction fee event",
					"params": {
						"_targetVault": "Address of the target Vault",
						"_transactionFee": "Value of the transaction fee in basis points",
						"_who": "Address of the caller"
					},
					"return": "Bool the transaction executed successfully"
				}
			},
			"title": "Vault Eventful - Logs events for all vaults."
		},
		"evm": {
			"bytecode": {
				"linkReferences": {},
				"object": "0x608060405234801561001057600080fd5b506040516020806114168339810180604052602081101561003057600080fd5b505160008054600160a060020a03909216600160a060020a03199092169190911790556113b4806100626000396000f3fe6080604052600436106100985763ffffffff7c010000000000000000000000000000000000000000000000000000000060003504166306165749811461009d5780632f2d7bf4146101a657806389fcd796146102a75780638f85a51c146102e557806391f1df8414610337578063d5aaa73a14610387578063f39ba932146103d7578063fee9da4a14610429578063ffa1ad741461052a575b600080fd5b3480156100a957600080fd5b50610192600480360360a08110156100c057600080fd5b73ffffffffffffffffffffffffffffffffffffffff823581169260208101359091169181019060608101604082013564010000000081111561010157600080fd5b82018360208201111561011357600080fd5b8035906020019184600183028401116401000000008311171561013557600080fd5b91939092909160208101903564010000000081111561015357600080fd5b82018360208201111561016557600080fd5b8035906020019184600183028401116401000000008311171561018757600080fd5b9193509150356105b4565b604080519115158252519081900360200190f35b3480156101b257600080fd5b50610192600480360360c08110156101c957600080fd5b73ffffffffffffffffffffffffffffffffffffffff823581169260208101359091169160408201359160608101359181019060a08101608082013564010000000081111561021657600080fd5b82018360208201111561022857600080fd5b8035906020019184600183028401116401000000008311171561024a57600080fd5b91939092909160208101903564010000000081111561026857600080fd5b82018360208201111561027a57600080fd5b8035906020019184600183028401116401000000008311171561029c57600080fd5b5090925090506106e8565b3480156102b357600080fd5b506102bc61082e565b6040805173ffffffffffffffffffffffffffffffffffffffff9092168252519081900360200190f35b3480156102f157600080fd5b506101926004803603606081101561030857600080fd5b5073ffffffffffffffffffffffffffffffffffffffff813581169160208101358216916040909101351661084a565b34801561034357600080fd5b506101926004803603606081101561035a57600080fd5b5073ffffffffffffffffffffffffffffffffffffffff813581169160208101359091169060400135610a06565b34801561039357600080fd5b50610192600480360360608110156103aa57600080fd5b5073ffffffffffffffffffffffffffffffffffffffff813581169160208101359091169060400135610b30565b3480156103e357600080fd5b50610192600480360360608110156103fa57600080fd5b5073ffffffffffffffffffffffffffffffffffffffff8135811691602081013582169160409091013516610cea565b34801561043557600080fd5b50610192600480360360c081101561044c57600080fd5b73ffffffffffffffffffffffffffffffffffffffff823581169260208101359091169160408201359160608101359181019060a08101608082013564010000000081111561049957600080fd5b8201836020820111156104ab57600080fd5b803590602001918460018302840111640100000000831117156104cd57600080fd5b9193909290916020810190356401000000008111156104eb57600080fd5b8201836020820111156104fd57600080fd5b8035906020019184600183028401116401000000008311171561051f57600080fd5b509092509050610ea6565b34801561053657600080fd5b5061053f610fe8565b6040805160208082528351818301528351919283929083019185019080838360005b83811015610579578181015183820152602001610561565b50505050905090810190601f1680156105a65780820380516001836020036101000a031916815260200191505b509250505060405180910390f35b60008054604080517fdcb7a3e000000000000000000000000000000000000000000000000000000000815233600482018190529151919273ffffffffffffffffffffffffffffffffffffffff1691829163dcb7a3e0916024808301926020929190829003018186803b15801561062957600080fd5b505afa15801561063d573d6000803e3d6000fd5b505050506040513d602081101561065357600080fd5b5051151561066057600080fd5b6106d889338c8b8b8080601f01602080910402602001604051908101604052809392919081815260200183838082843760009201919091525050604080516020601f8f018190048102820181019092528d815292508d91508c90819084018382808284376000920191909152508c925061101f915050565b5060019998505050505050505050565b60008054604080517fa2ce277300000000000000000000000000000000000000000000000000000000815233600482018190529151919273ffffffffffffffffffffffffffffffffffffffff1691829163a2ce2773916024808301926020929190829003018186803b15801561075d57600080fd5b505afa158015610771573d6000803e3d6000fd5b505050506040513d602081101561078757600080fd5b5051151561079457600080fd5b61081d8a8c338c8c8c8c8080601f016020809104026020016040519081016040528093929190818152602001838380828437600081840152601f19601f820116905080830192505050505050508b8b8080601f01602080910402602001604051908101604052809392919081815260200183838082843760009201919091525061117492505050565b5060019a9950505050505050505050565b60005473ffffffffffffffffffffffffffffffffffffffff1681565b60008054604080517fa2ce277300000000000000000000000000000000000000000000000000000000815233600482018190529151919273ffffffffffffffffffffffffffffffffffffffff1691829163a2ce2773916024808301926020929190829003018186803b1580156108bf57600080fd5b505afa1580156108d3573d6000803e3d6000fd5b505050506040513d60208110156108e957600080fd5b505115156108f657600080fd5b600054604080517fd88c271e00000000000000000000000000000000000000000000000000000000815273ffffffffffffffffffffffffffffffffffffffff808a166004830152915189939290921691829163d88c271e916024808301926020929190829003018186803b15801561096d57600080fd5b505afa158015610981573d6000803e3d6000fd5b505050506040513d602081101561099757600080fd5b505115156109a457600080fd5b6040805173ffffffffffffffffffffffffffffffffffffffff88811682529151828b16923392908b16917fa7fd811628869bb4d099b1f287abd8664638b53aa8a51e3e97ed2cb17bf3eb849181900360200190a4506001979650505050505050565b60008054604080517fa2ce277300000000000000000000000000000000000000000000000000000000815233600482018190529151919273ffffffffffffffffffffffffffffffffffffffff1691829163a2ce2773916024808301926020929190829003018186803b158015610a7b57600080fd5b505afa158015610a8f573d6000803e3d6000fd5b505050506040513d6020811015610aa557600080fd5b50511515610ab257600080fd5b60008411610abf57600080fd5b8573ffffffffffffffffffffffffffffffffffffffff168573ffffffffffffffffffffffffffffffffffffffff167f3b2429646ab0dd9a6002c77159344aa6dd3e6fdfc7c685513c2583d782e13f88866040518082815260200191505060405180910390a350600195945050505050565b60008054604080517fa2ce277300000000000000000000000000000000000000000000000000000000815233600482018190529151919273ffffffffffffffffffffffffffffffffffffffff1691829163a2ce2773916024808301926020929190829003018186803b158015610ba557600080fd5b505afa158015610bb9573d6000803e3d6000fd5b505050506040513d6020811015610bcf57600080fd5b50511515610bdc57600080fd5b600054604080517fd88c271e00000000000000000000000000000000000000000000000000000000815273ffffffffffffffffffffffffffffffffffffffff808a166004830152915189939290921691829163d88c271e916024808301926020929190829003018186803b158015610c5357600080fd5b505afa158015610c67573d6000803e3d6000fd5b505050506040513d6020811015610c7d57600080fd5b50511515610c8a57600080fd5b60408051878152905173ffffffffffffffffffffffffffffffffffffffff808b16923392918b16917f93d0111deb3c3657374f0dc73b64ff5ae0111e1e4e4d0b5860b0d799599d0a419181900360200190a4506001979650505050505050565b60008054604080517fa2ce277300000000000000000000000000000000000000000000000000000000815233600482018190529151919273ffffffffffffffffffffffffffffffffffffffff1691829163a2ce2773916024808301926020929190829003018186803b158015610d5f57600080fd5b505afa158015610d73573d6000803e3d6000fd5b505050506040513d6020811015610d8957600080fd5b50511515610d9657600080fd5b600054604080517fd88c271e00000000000000000000000000000000000000000000000000000000815273ffffffffffffffffffffffffffffffffffffffff808a166004830152915189939290921691829163d88c271e916024808301926020929190829003018186803b158015610e0d57600080fd5b505afa158015610e21573d6000803e3d6000fd5b505050506040513d6020811015610e3757600080fd5b50511515610e4457600080fd5b6040805173ffffffffffffffffffffffffffffffffffffffff88811682529151828b16923392908b16917fefe40f758cd182716682db7a4bcd9dd6b9fba7e0bcc9fb0096282108db6f02ef9181900360200190a4506001979650505050505050565b60008054604080517fa2ce277300000000000000000000000000000000000000000000000000000000815233600482018190529151919273ffffffffffffffffffffffffffffffffffffffff1691829163a2ce2773916024808301926020929190829003018186803b158015610f1b57600080fd5b505afa158015610f2f573d6000803e3d6000fd5b505050506040513d6020811015610f4557600080fd5b50511515610f5257600080fd5b60008911610f5f57600080fd5b61081d8a8c338c8c8c8c8080601f016020809104026020016040519081016040528093929190818152602001838380828437600081840152601f19601f820116905080830192505050505050508b8b8080601f0160208091040260200160405190810160405280939291908181526020018383808284376000920191909152506112d292505050565b60408051808201909152600881527f444820302e342e32000000000000000000000000000000000000000000000000602082015281565b8373ffffffffffffffffffffffffffffffffffffffff168573ffffffffffffffffffffffffffffffffffffffff168773ffffffffffffffffffffffffffffffffffffffff167f64ed22ebf6a0e1e608cfc2a4fefa09fd94f6084554943b88d6cd6bf31536eaf8848787604051808481526020018060200180602001838103835285818151815260200191508051906020019080838360005b838110156110cf5781810151838201526020016110b7565b50505050905090810190601f1680156110fc5780820380516001836020036101000a031916815260200191505b50838103825284518152845160209182019186019080838360005b8381101561112f578181015183820152602001611117565b50505050905090810190601f16801561115c5780820380516001836020036101000a031916815260200191505b509550505050505060405180910390a4505050505050565b8473ffffffffffffffffffffffffffffffffffffffff168673ffffffffffffffffffffffffffffffffffffffff168873ffffffffffffffffffffffffffffffffffffffff167f6141a2c56e3508b521d00477f5a870806718ec8575ab85abef01336b1ff47af487878787604051808581526020018481526020018060200180602001838103835285818151815260200191508051906020019080838360005b8381101561122b578181015183820152602001611213565b50505050905090810190601f1680156112585780820380516001836020036101000a031916815260200191505b50838103825284518152845160209182019186019080838360005b8381101561128b578181015183820152602001611273565b50505050905090810190601f1680156112b85780820380516001836020036101000a031916815260200191505b50965050505050505060405180910390a450505050505050565b8473ffffffffffffffffffffffffffffffffffffffff168673ffffffffffffffffffffffffffffffffffffffff168873ffffffffffffffffffffffffffffffffffffffff167f4aebdd85cf1c59f037ddd47abd2d880fea9ac8678f13a391cb5fb7cd8f76976687878787604051808581526020018481526020018060200180602001838103835285818151815260200191508051906020019080838360008381101561122b57818101518382015260200161121356fea165627a7a72305820287a735a1f4dbe04d89ba33d82d5496bae7af7020d168f3f506dc95e61e573bc0029",
				"opcodes": "PUSH1 0x80 PUSH1 0x40 MSTORE CALLVALUE DUP1 ISZERO PUSH2 0x10 JUMPI PUSH1 0x0 DUP1 REVERT JUMPDEST POP PUSH1 0x40 MLOAD PUSH1 0x20 DUP1 PUSH2 0x1416 DUP4 CODECOPY DUP2 ADD DUP1 PUSH1 0x40 MSTORE PUSH1 0x20 DUP2 LT ISZERO PUSH2 0x30 JUMPI PUSH1 0x0 DUP1 REVERT JUMPDEST POP MLOAD PUSH1 0x0 DUP1 SLOAD PUSH1 0x1 PUSH1 0xA0 PUSH1 0x2 EXP SUB SWAP1 SWAP3 AND PUSH1 0x1 PUSH1 0xA0 PUSH1 0x2 EXP SUB NOT SWAP1 SWAP3 AND SWAP2 SWAP1 SWAP2 OR SWAP1 SSTORE PUSH2 0x13B4 DUP1 PUSH2 0x62 PUSH1 0x0 CODECOPY PUSH1 0x0 RETURN INVALID PUSH1 0x80 PUSH1 0x40 MSTORE PUSH1 0x4 CALLDATASIZE LT PUSH2 0x98 JUMPI PUSH4 0xFFFFFFFF PUSH29 0x100000000000000000000000000000000000000000000000000000000 PUSH1 0x0 CALLDATALOAD DIV AND PUSH4 0x6165749 DUP2 EQ PUSH2 0x9D JUMPI DUP1 PUSH4 0x2F2D7BF4 EQ PUSH2 0x1A6 JUMPI DUP1 PUSH4 0x89FCD796 EQ PUSH2 0x2A7 JUMPI DUP1 PUSH4 0x8F85A51C EQ PUSH2 0x2E5 JUMPI DUP1 PUSH4 0x91F1DF84 EQ PUSH2 0x337 JUMPI DUP1 PUSH4 0xD5AAA73A EQ PUSH2 0x387 JUMPI DUP1 PUSH4 0xF39BA932 EQ PUSH2 0x3D7 JUMPI DUP1 PUSH4 0xFEE9DA4A EQ PUSH2 0x429 JUMPI DUP1 PUSH4 0xFFA1AD74 EQ PUSH2 0x52A JUMPI JUMPDEST PUSH1 0x0 DUP1 REVERT JUMPDEST CALLVALUE DUP1 ISZERO PUSH2 0xA9 JUMPI PUSH1 0x0 DUP1 REVERT JUMPDEST POP PUSH2 0x192 PUSH1 0x4 DUP1 CALLDATASIZE SUB PUSH1 0xA0 DUP2 LT ISZERO PUSH2 0xC0 JUMPI PUSH1 0x0 DUP1 REVERT JUMPDEST PUSH20 0xFFFFFFFFFFFFFFFFFFFFFFFFFFFFFFFFFFFFFFFF DUP3 CALLDATALOAD DUP2 AND SWAP3 PUSH1 0x20 DUP2 ADD CALLDATALOAD SWAP1 SWAP2 AND SWAP2 DUP2 ADD SWAP1 PUSH1 0x60 DUP2 ADD PUSH1 0x40 DUP3 ADD CALLDATALOAD PUSH5 0x100000000 DUP2 GT ISZERO PUSH2 0x101 JUMPI PUSH1 0x0 DUP1 REVERT JUMPDEST DUP3 ADD DUP4 PUSH1 0x20 DUP3 ADD GT ISZERO PUSH2 0x113 JUMPI PUSH1 0x0 DUP1 REVERT JUMPDEST DUP1 CALLDATALOAD SWAP1 PUSH1 0x20 ADD SWAP2 DUP5 PUSH1 0x1 DUP4 MUL DUP5 ADD GT PUSH5 0x100000000 DUP4 GT OR ISZERO PUSH2 0x135 JUMPI PUSH1 0x0 DUP1 REVERT JUMPDEST SWAP2 SWAP4 SWAP1 SWAP3 SWAP1 SWAP2 PUSH1 0x20 DUP2 ADD SWAP1 CALLDATALOAD PUSH5 0x100000000 DUP2 GT ISZERO PUSH2 0x153 JUMPI PUSH1 0x0 DUP1 REVERT JUMPDEST DUP3 ADD DUP4 PUSH1 0x20 DUP3 ADD GT ISZERO PUSH2 0x165 JUMPI PUSH1 0x0 DUP1 REVERT JUMPDEST DUP1 CALLDATALOAD SWAP1 PUSH1 0x20 ADD SWAP2 DUP5 PUSH1 0x1 DUP4 MUL DUP5 ADD GT PUSH5 0x100000000 DUP4 GT OR ISZERO PUSH2 0x187 JUMPI PUSH1 0x0 DUP1 REVERT JUMPDEST SWAP2 SWAP4 POP SWAP2 POP CALLDATALOAD PUSH2 0x5B4 JUMP JUMPDEST PUSH1 0x40 DUP1 MLOAD SWAP2 ISZERO ISZERO DUP3 MSTORE MLOAD SWAP1 DUP2 SWAP1 SUB PUSH1 0x20 ADD SWAP1 RETURN JUMPDEST CALLVALUE DUP1 ISZERO PUSH2 0x1B2 JUMPI PUSH1 0x0 DUP1 REVERT JUMPDEST POP PUSH2 0x192 PUSH1 0x4 DUP1 CALLDATASIZE SUB PUSH1 0xC0 DUP2 LT ISZERO PUSH2 0x1C9 JUMPI PUSH1 0x0 DUP1 REVERT JUMPDEST PUSH20 0xFFFFFFFFFFFFFFFFFFFFFFFFFFFFFFFFFFFFFFFF DUP3 CALLDATALOAD DUP2 AND SWAP3 PUSH1 0x20 DUP2 ADD CALLDATALOAD SWAP1 SWAP2 AND SWAP2 PUSH1 0x40 DUP3 ADD CALLDATALOAD SWAP2 PUSH1 0x60 DUP2 ADD CALLDATALOAD SWAP2 DUP2 ADD SWAP1 PUSH1 0xA0 DUP2 ADD PUSH1 0x80 DUP3 ADD CALLDATALOAD PUSH5 0x100000000 DUP2 GT ISZERO PUSH2 0x216 JUMPI PUSH1 0x0 DUP1 REVERT JUMPDEST DUP3 ADD DUP4 PUSH1 0x20 DUP3 ADD GT ISZERO PUSH2 0x228 JUMPI PUSH1 0x0 DUP1 REVERT JUMPDEST DUP1 CALLDATALOAD SWAP1 PUSH1 0x20 ADD SWAP2 DUP5 PUSH1 0x1 DUP4 MUL DUP5 ADD GT PUSH5 0x100000000 DUP4 GT OR ISZERO PUSH2 0x24A JUMPI PUSH1 0x0 DUP1 REVERT JUMPDEST SWAP2 SWAP4 SWAP1 SWAP3 SWAP1 SWAP2 PUSH1 0x20 DUP2 ADD SWAP1 CALLDATALOAD PUSH5 0x100000000 DUP2 GT ISZERO PUSH2 0x268 JUMPI PUSH1 0x0 DUP1 REVERT JUMPDEST DUP3 ADD DUP4 PUSH1 0x20 DUP3 ADD GT ISZERO PUSH2 0x27A JUMPI PUSH1 0x0 DUP1 REVERT JUMPDEST DUP1 CALLDATALOAD SWAP1 PUSH1 0x20 ADD SWAP2 DUP5 PUSH1 0x1 DUP4 MUL DUP5 ADD GT PUSH5 0x100000000 DUP4 GT OR ISZERO PUSH2 0x29C JUMPI PUSH1 0x0 DUP1 REVERT JUMPDEST POP SWAP1 SWAP3 POP SWAP1 POP PUSH2 0x6E8 JUMP JUMPDEST CALLVALUE DUP1 ISZERO PUSH2 0x2B3 JUMPI PUSH1 0x0 DUP1 REVERT JUMPDEST POP PUSH2 0x2BC PUSH2 0x82E JUMP JUMPDEST PUSH1 0x40 DUP1 MLOAD PUSH20 0xFFFFFFFFFFFFFFFFFFFFFFFFFFFFFFFFFFFFFFFF SWAP1 SWAP3 AND DUP3 MSTORE MLOAD SWAP1 DUP2 SWAP1 SUB PUSH1 0x20 ADD SWAP1 RETURN JUMPDEST CALLVALUE DUP1 ISZERO PUSH2 0x2F1 JUMPI PUSH1 0x0 DUP1 REVERT JUMPDEST POP PUSH2 0x192 PUSH1 0x4 DUP1 CALLDATASIZE SUB PUSH1 0x60 DUP2 LT ISZERO PUSH2 0x308 JUMPI PUSH1 0x0 DUP1 REVERT JUMPDEST POP PUSH20 0xFFFFFFFFFFFFFFFFFFFFFFFFFFFFFFFFFFFFFFFF DUP2 CALLDATALOAD DUP2 AND SWAP2 PUSH1 0x20 DUP2 ADD CALLDATALOAD DUP3 AND SWAP2 PUSH1 0x40 SWAP1 SWAP2 ADD CALLDATALOAD AND PUSH2 0x84A JUMP JUMPDEST CALLVALUE DUP1 ISZERO PUSH2 0x343 JUMPI PUSH1 0x0 DUP1 REVERT JUMPDEST POP PUSH2 0x192 PUSH1 0x4 DUP1 CALLDATASIZE SUB PUSH1 0x60 DUP2 LT ISZERO PUSH2 0x35A JUMPI PUSH1 0x0 DUP1 REVERT JUMPDEST POP PUSH20 0xFFFFFFFFFFFFFFFFFFFFFFFFFFFFFFFFFFFFFFFF DUP2 CALLDATALOAD DUP2 AND SWAP2 PUSH1 0x20 DUP2 ADD CALLDATALOAD SWAP1 SWAP2 AND SWAP1 PUSH1 0x40 ADD CALLDATALOAD PUSH2 0xA06 JUMP JUMPDEST CALLVALUE DUP1 ISZERO PUSH2 0x393 JUMPI PUSH1 0x0 DUP1 REVERT JUMPDEST POP PUSH2 0x192 PUSH1 0x4 DUP1 CALLDATASIZE SUB PUSH1 0x60 DUP2 LT ISZERO PUSH2 0x3AA JUMPI PUSH1 0x0 DUP1 REVERT JUMPDEST POP PUSH20 0xFFFFFFFFFFFFFFFFFFFFFFFFFFFFFFFFFFFFFFFF DUP2 CALLDATALOAD DUP2 AND SWAP2 PUSH1 0x20 DUP2 ADD CALLDATALOAD SWAP1 SWAP2 AND SWAP1 PUSH1 0x40 ADD CALLDATALOAD PUSH2 0xB30 JUMP JUMPDEST CALLVALUE DUP1 ISZERO PUSH2 0x3E3 JUMPI PUSH1 0x0 DUP1 REVERT JUMPDEST POP PUSH2 0x192 PUSH1 0x4 DUP1 CALLDATASIZE SUB PUSH1 0x60 DUP2 LT ISZERO PUSH2 0x3FA JUMPI PUSH1 0x0 DUP1 REVERT JUMPDEST POP PUSH20 0xFFFFFFFFFFFFFFFFFFFFFFFFFFFFFFFFFFFFFFFF DUP2 CALLDATALOAD DUP2 AND SWAP2 PUSH1 0x20 DUP2 ADD CALLDATALOAD DUP3 AND SWAP2 PUSH1 0x40 SWAP1 SWAP2 ADD CALLDATALOAD AND PUSH2 0xCEA JUMP JUMPDEST CALLVALUE DUP1 ISZERO PUSH2 0x435 JUMPI PUSH1 0x0 DUP1 REVERT JUMPDEST POP PUSH2 0x192 PUSH1 0x4 DUP1 CALLDATASIZE SUB PUSH1 0xC0 DUP2 LT ISZERO PUSH2 0x44C JUMPI PUSH1 0x0 DUP1 REVERT JUMPDEST PUSH20 0xFFFFFFFFFFFFFFFFFFFFFFFFFFFFFFFFFFFFFFFF DUP3 CALLDATALOAD DUP2 AND SWAP3 PUSH1 0x20 DUP2 ADD CALLDATALOAD SWAP1 SWAP2 AND SWAP2 PUSH1 0x40 DUP3 ADD CALLDATALOAD SWAP2 PUSH1 0x60 DUP2 ADD CALLDATALOAD SWAP2 DUP2 ADD SWAP1 PUSH1 0xA0 DUP2 ADD PUSH1 0x80 DUP3 ADD CALLDATALOAD PUSH5 0x100000000 DUP2 GT ISZERO PUSH2 0x499 JUMPI PUSH1 0x0 DUP1 REVERT JUMPDEST DUP3 ADD DUP4 PUSH1 0x20 DUP3 ADD GT ISZERO PUSH2 0x4AB JUMPI PUSH1 0x0 DUP1 REVERT JUMPDEST DUP1 CALLDATALOAD SWAP1 PUSH1 0x20 ADD SWAP2 DUP5 PUSH1 0x1 DUP4 MUL DUP5 ADD GT PUSH5 0x100000000 DUP4 GT OR ISZERO PUSH2 0x4CD JUMPI PUSH1 0x0 DUP1 REVERT JUMPDEST SWAP2 SWAP4 SWAP1 SWAP3 SWAP1 SWAP2 PUSH1 0x20 DUP2 ADD SWAP1 CALLDATALOAD PUSH5 0x100000000 DUP2 GT ISZERO PUSH2 0x4EB JUMPI PUSH1 0x0 DUP1 REVERT JUMPDEST DUP3 ADD DUP4 PUSH1 0x20 DUP3 ADD GT ISZERO PUSH2 0x4FD JUMPI PUSH1 0x0 DUP1 REVERT JUMPDEST DUP1 CALLDATALOAD SWAP1 PUSH1 0x20 ADD SWAP2 DUP5 PUSH1 0x1 DUP4 MUL DUP5 ADD GT PUSH5 0x100000000 DUP4 GT OR ISZERO PUSH2 0x51F JUMPI PUSH1 0x0 DUP1 REVERT JUMPDEST POP SWAP1 SWAP3 POP SWAP1 POP PUSH2 0xEA6 JUMP JUMPDEST CALLVALUE DUP1 ISZERO PUSH2 0x536 JUMPI PUSH1 0x0 DUP1 REVERT JUMPDEST POP PUSH2 0x53F PUSH2 0xFE8 JUMP JUMPDEST PUSH1 0x40 DUP1 MLOAD PUSH1 0x20 DUP1 DUP3 MSTORE DUP4 MLOAD DUP2 DUP4 ADD MSTORE DUP4 MLOAD SWAP2 SWAP3 DUP4 SWAP3 SWAP1 DUP4 ADD SWAP2 DUP6 ADD SWAP1 DUP1 DUP4 DUP4 PUSH1 0x0 JUMPDEST DUP4 DUP2 LT ISZERO PUSH2 0x579 JUMPI DUP2 DUP2 ADD MLOAD DUP4 DUP3 ADD MSTORE PUSH1 0x20 ADD PUSH2 0x561 JUMP JUMPDEST POP POP POP POP SWAP1 POP SWAP1 DUP2 ADD SWAP1 PUSH1 0x1F AND DUP1 ISZERO PUSH2 0x5A6 JUMPI DUP1 DUP3 SUB DUP1 MLOAD PUSH1 0x1 DUP4 PUSH1 0x20 SUB PUSH2 0x100 EXP SUB NOT AND DUP2 MSTORE PUSH1 0x20 ADD SWAP2 POP JUMPDEST POP SWAP3 POP POP POP PUSH1 0x40 MLOAD DUP1 SWAP2 SUB SWAP1 RETURN JUMPDEST PUSH1 0x0 DUP1 SLOAD PUSH1 0x40 DUP1 MLOAD PUSH32 0xDCB7A3E000000000000000000000000000000000000000000000000000000000 DUP2 MSTORE CALLER PUSH1 0x4 DUP3 ADD DUP2 SWAP1 MSTORE SWAP2 MLOAD SWAP2 SWAP3 PUSH20 0xFFFFFFFFFFFFFFFFFFFFFFFFFFFFFFFFFFFFFFFF AND SWAP2 DUP3 SWAP2 PUSH4 0xDCB7A3E0 SWAP2 PUSH1 0x24 DUP1 DUP4 ADD SWAP3 PUSH1 0x20 SWAP3 SWAP2 SWAP1 DUP3 SWAP1 SUB ADD DUP2 DUP7 DUP1 EXTCODESIZE ISZERO DUP1 ISZERO PUSH2 0x629 JUMPI PUSH1 0x0 DUP1 REVERT JUMPDEST POP GAS STATICCALL ISZERO DUP1 ISZERO PUSH2 0x63D JUMPI RETURNDATASIZE PUSH1 0x0 DUP1 RETURNDATACOPY RETURNDATASIZE PUSH1 0x0 REVERT JUMPDEST POP POP POP POP PUSH1 0x40 MLOAD RETURNDATASIZE PUSH1 0x20 DUP2 LT ISZERO PUSH2 0x653 JUMPI PUSH1 0x0 DUP1 REVERT JUMPDEST POP MLOAD ISZERO ISZERO PUSH2 0x660 JUMPI PUSH1 0x0 DUP1 REVERT JUMPDEST PUSH2 0x6D8 DUP10 CALLER DUP13 DUP12 DUP12 DUP1 DUP1 PUSH1 0x1F ADD PUSH1 0x20 DUP1 SWAP2 DIV MUL PUSH1 0x20 ADD PUSH1 0x40 MLOAD SWAP1 DUP2 ADD PUSH1 0x40 MSTORE DUP1 SWAP4 SWAP3 SWAP2 SWAP1 DUP2 DUP2 MSTORE PUSH1 0x20 ADD DUP4 DUP4 DUP1 DUP3 DUP5 CALLDATACOPY PUSH1 0x0 SWAP3 ADD SWAP2 SWAP1 SWAP2 MSTORE POP POP PUSH1 0x40 DUP1 MLOAD PUSH1 0x20 PUSH1 0x1F DUP16 ADD DUP2 SWAP1 DIV DUP2 MUL DUP3 ADD DUP2 ADD SWAP1 SWAP3 MSTORE DUP14 DUP2 MSTORE SWAP3 POP DUP14 SWAP2 POP DUP13 SWAP1 DUP2 SWAP1 DUP5 ADD DUP4 DUP3 DUP1 DUP3 DUP5 CALLDATACOPY PUSH1 0x0 SWAP3 ADD SWAP2 SWAP1 SWAP2 MSTORE POP DUP13 SWAP3 POP PUSH2 0x101F SWAP2 POP POP JUMP JUMPDEST POP PUSH1 0x1 SWAP10 SWAP9 POP POP POP POP POP POP POP POP POP JUMP JUMPDEST PUSH1 0x0 DUP1 SLOAD PUSH1 0x40 DUP1 MLOAD PUSH32 0xA2CE277300000000000000000000000000000000000000000000000000000000 DUP2 MSTORE CALLER PUSH1 0x4 DUP3 ADD DUP2 SWAP1 MSTORE SWAP2 MLOAD SWAP2 SWAP3 PUSH20 0xFFFFFFFFFFFFFFFFFFFFFFFFFFFFFFFFFFFFFFFF AND SWAP2 DUP3 SWAP2 PUSH4 0xA2CE2773 SWAP2 PUSH1 0x24 DUP1 DUP4 ADD SWAP3 PUSH1 0x20 SWAP3 SWAP2 SWAP1 DUP3 SWAP1 SUB ADD DUP2 DUP7 DUP1 EXTCODESIZE ISZERO DUP1 ISZERO PUSH2 0x75D JUMPI PUSH1 0x0 DUP1 REVERT JUMPDEST POP GAS STATICCALL ISZERO DUP1 ISZERO PUSH2 0x771 JUMPI RETURNDATASIZE PUSH1 0x0 DUP1 RETURNDATACOPY RETURNDATASIZE PUSH1 0x0 REVERT JUMPDEST POP POP POP POP PUSH1 0x40 MLOAD RETURNDATASIZE PUSH1 0x20 DUP2 LT ISZERO PUSH2 0x787 JUMPI PUSH1 0x0 DUP1 REVERT JUMPDEST POP MLOAD ISZERO ISZERO PUSH2 0x794 JUMPI PUSH1 0x0 DUP1 REVERT JUMPDEST PUSH2 0x81D DUP11 DUP13 CALLER DUP13 DUP13 DUP13 DUP13 DUP1 DUP1 PUSH1 0x1F ADD PUSH1 0x20 DUP1 SWAP2 DIV MUL PUSH1 0x20 ADD PUSH1 0x40 MLOAD SWAP1 DUP2 ADD PUSH1 0x40 MSTORE DUP1 SWAP4 SWAP3 SWAP2 SWAP1 DUP2 DUP2 MSTORE PUSH1 0x20 ADD DUP4 DUP4 DUP1 DUP3 DUP5 CALLDATACOPY PUSH1 0x0 DUP2 DUP5 ADD MSTORE PUSH1 0x1F NOT PUSH1 0x1F DUP3 ADD AND SWAP1 POP DUP1 DUP4 ADD SWAP3 POP POP POP POP POP POP POP DUP12 DUP12 DUP1 DUP1 PUSH1 0x1F ADD PUSH1 0x20 DUP1 SWAP2 DIV MUL PUSH1 0x20 ADD PUSH1 0x40 MLOAD SWAP1 DUP2 ADD PUSH1 0x40 MSTORE DUP1 SWAP4 SWAP3 SWAP2 SWAP1 DUP2 DUP2 MSTORE PUSH1 0x20 ADD DUP4 DUP4 DUP1 DUP3 DUP5 CALLDATACOPY PUSH1 0x0 SWAP3 ADD SWAP2 SWAP1 SWAP2 MSTORE POP PUSH2 0x1174 SWAP3 POP POP POP JUMP JUMPDEST POP PUSH1 0x1 SWAP11 SWAP10 POP POP POP POP POP POP POP POP POP POP JUMP JUMPDEST PUSH1 0x0 SLOAD PUSH20 0xFFFFFFFFFFFFFFFFFFFFFFFFFFFFFFFFFFFFFFFF AND DUP2 JUMP JUMPDEST PUSH1 0x0 DUP1 SLOAD PUSH1 0x40 DUP1 MLOAD PUSH32 0xA2CE277300000000000000000000000000000000000000000000000000000000 DUP2 MSTORE CALLER PUSH1 0x4 DUP3 ADD DUP2 SWAP1 MSTORE SWAP2 MLOAD SWAP2 SWAP3 PUSH20 0xFFFFFFFFFFFFFFFFFFFFFFFFFFFFFFFFFFFFFFFF AND SWAP2 DUP3 SWAP2 PUSH4 0xA2CE2773 SWAP2 PUSH1 0x24 DUP1 DUP4 ADD SWAP3 PUSH1 0x20 SWAP3 SWAP2 SWAP1 DUP3 SWAP1 SUB ADD DUP2 DUP7 DUP1 EXTCODESIZE ISZERO DUP1 ISZERO PUSH2 0x8BF JUMPI PUSH1 0x0 DUP1 REVERT JUMPDEST POP GAS STATICCALL ISZERO DUP1 ISZERO PUSH2 0x8D3 JUMPI RETURNDATASIZE PUSH1 0x0 DUP1 RETURNDATACOPY RETURNDATASIZE PUSH1 0x0 REVERT JUMPDEST POP POP POP POP PUSH1 0x40 MLOAD RETURNDATASIZE PUSH1 0x20 DUP2 LT ISZERO PUSH2 0x8E9 JUMPI PUSH1 0x0 DUP1 REVERT JUMPDEST POP MLOAD ISZERO ISZERO PUSH2 0x8F6 JUMPI PUSH1 0x0 DUP1 REVERT JUMPDEST PUSH1 0x0 SLOAD PUSH1 0x40 DUP1 MLOAD PUSH32 0xD88C271E00000000000000000000000000000000000000000000000000000000 DUP2 MSTORE PUSH20 0xFFFFFFFFFFFFFFFFFFFFFFFFFFFFFFFFFFFFFFFF DUP1 DUP11 AND PUSH1 0x4 DUP4 ADD MSTORE SWAP2 MLOAD DUP10 SWAP4 SWAP3 SWAP1 SWAP3 AND SWAP2 DUP3 SWAP2 PUSH4 0xD88C271E SWAP2 PUSH1 0x24 DUP1 DUP4 ADD SWAP3 PUSH1 0x20 SWAP3 SWAP2 SWAP1 DUP3 SWAP1 SUB ADD DUP2 DUP7 DUP1 EXTCODESIZE ISZERO DUP1 ISZERO PUSH2 0x96D JUMPI PUSH1 0x0 DUP1 REVERT JUMPDEST POP GAS STATICCALL ISZERO DUP1 ISZERO PUSH2 0x981 JUMPI RETURNDATASIZE PUSH1 0x0 DUP1 RETURNDATACOPY RETURNDATASIZE PUSH1 0x0 REVERT JUMPDEST POP POP POP POP PUSH1 0x40 MLOAD RETURNDATASIZE PUSH1 0x20 DUP2 LT ISZERO PUSH2 0x997 JUMPI PUSH1 0x0 DUP1 REVERT JUMPDEST POP MLOAD ISZERO ISZERO PUSH2 0x9A4 JUMPI PUSH1 0x0 DUP1 REVERT JUMPDEST PUSH1 0x40 DUP1 MLOAD PUSH20 0xFFFFFFFFFFFFFFFFFFFFFFFFFFFFFFFFFFFFFFFF DUP9 DUP2 AND DUP3 MSTORE SWAP2 MLOAD DUP3 DUP12 AND SWAP3 CALLER SWAP3 SWAP1 DUP12 AND SWAP2 PUSH32 0xA7FD811628869BB4D099B1F287ABD8664638B53AA8A51E3E97ED2CB17BF3EB84 SWAP2 DUP2 SWAP1 SUB PUSH1 0x20 ADD SWAP1 LOG4 POP PUSH1 0x1 SWAP8 SWAP7 POP POP POP POP POP POP POP JUMP JUMPDEST PUSH1 0x0 DUP1 SLOAD PUSH1 0x40 DUP1 MLOAD PUSH32 0xA2CE277300000000000000000000000000000000000000000000000000000000 DUP2 MSTORE CALLER PUSH1 0x4 DUP3 ADD DUP2 SWAP1 MSTORE SWAP2 MLOAD SWAP2 SWAP3 PUSH20 0xFFFFFFFFFFFFFFFFFFFFFFFFFFFFFFFFFFFFFFFF AND SWAP2 DUP3 SWAP2 PUSH4 0xA2CE2773 SWAP2 PUSH1 0x24 DUP1 DUP4 ADD SWAP3 PUSH1 0x20 SWAP3 SWAP2 SWAP1 DUP3 SWAP1 SUB ADD DUP2 DUP7 DUP1 EXTCODESIZE ISZERO DUP1 ISZERO PUSH2 0xA7B JUMPI PUSH1 0x0 DUP1 REVERT JUMPDEST POP GAS STATICCALL ISZERO DUP1 ISZERO PUSH2 0xA8F JUMPI RETURNDATASIZE PUSH1 0x0 DUP1 RETURNDATACOPY RETURNDATASIZE PUSH1 0x0 REVERT JUMPDEST POP POP POP POP PUSH1 0x40 MLOAD RETURNDATASIZE PUSH1 0x20 DUP2 LT ISZERO PUSH2 0xAA5 JUMPI PUSH1 0x0 DUP1 REVERT JUMPDEST POP MLOAD ISZERO ISZERO PUSH2 0xAB2 JUMPI PUSH1 0x0 DUP1 REVERT JUMPDEST PUSH1 0x0 DUP5 GT PUSH2 0xABF JUMPI PUSH1 0x0 DUP1 REVERT JUMPDEST DUP6 PUSH20 0xFFFFFFFFFFFFFFFFFFFFFFFFFFFFFFFFFFFFFFFF AND DUP6 PUSH20 0xFFFFFFFFFFFFFFFFFFFFFFFFFFFFFFFFFFFFFFFF AND PUSH32 0x3B2429646AB0DD9A6002C77159344AA6DD3E6FDFC7C685513C2583D782E13F88 DUP7 PUSH1 0x40 MLOAD DUP1 DUP3 DUP2 MSTORE PUSH1 0x20 ADD SWAP2 POP POP PUSH1 0x40 MLOAD DUP1 SWAP2 SUB SWAP1 LOG3 POP PUSH1 0x1 SWAP6 SWAP5 POP POP POP POP POP JUMP JUMPDEST PUSH1 0x0 DUP1 SLOAD PUSH1 0x40 DUP1 MLOAD PUSH32 0xA2CE277300000000000000000000000000000000000000000000000000000000 DUP2 MSTORE CALLER PUSH1 0x4 DUP3 ADD DUP2 SWAP1 MSTORE SWAP2 MLOAD SWAP2 SWAP3 PUSH20 0xFFFFFFFFFFFFFFFFFFFFFFFFFFFFFFFFFFFFFFFF AND SWAP2 DUP3 SWAP2 PUSH4 0xA2CE2773 SWAP2 PUSH1 0x24 DUP1 DUP4 ADD SWAP3 PUSH1 0x20 SWAP3 SWAP2 SWAP1 DUP3 SWAP1 SUB ADD DUP2 DUP7 DUP1 EXTCODESIZE ISZERO DUP1 ISZERO PUSH2 0xBA5 JUMPI PUSH1 0x0 DUP1 REVERT JUMPDEST POP GAS STATICCALL ISZERO DUP1 ISZERO PUSH2 0xBB9 JUMPI RETURNDATASIZE PUSH1 0x0 DUP1 RETURNDATACOPY RETURNDATASIZE PUSH1 0x0 REVERT JUMPDEST POP POP POP POP PUSH1 0x40 MLOAD RETURNDATASIZE PUSH1 0x20 DUP2 LT ISZERO PUSH2 0xBCF JUMPI PUSH1 0x0 DUP1 REVERT JUMPDEST POP MLOAD ISZERO ISZERO PUSH2 0xBDC JUMPI PUSH1 0x0 DUP1 REVERT JUMPDEST PUSH1 0x0 SLOAD PUSH1 0x40 DUP1 MLOAD PUSH32 0xD88C271E00000000000000000000000000000000000000000000000000000000 DUP2 MSTORE PUSH20 0xFFFFFFFFFFFFFFFFFFFFFFFFFFFFFFFFFFFFFFFF DUP1 DUP11 AND PUSH1 0x4 DUP4 ADD MSTORE SWAP2 MLOAD DUP10 SWAP4 SWAP3 SWAP1 SWAP3 AND SWAP2 DUP3 SWAP2 PUSH4 0xD88C271E SWAP2 PUSH1 0x24 DUP1 DUP4 ADD SWAP3 PUSH1 0x20 SWAP3 SWAP2 SWAP1 DUP3 SWAP1 SUB ADD DUP2 DUP7 DUP1 EXTCODESIZE ISZERO DUP1 ISZERO PUSH2 0xC53 JUMPI PUSH1 0x0 DUP1 REVERT JUMPDEST POP GAS STATICCALL ISZERO DUP1 ISZERO PUSH2 0xC67 JUMPI RETURNDATASIZE PUSH1 0x0 DUP1 RETURNDATACOPY RETURNDATASIZE PUSH1 0x0 REVERT JUMPDEST POP POP POP POP PUSH1 0x40 MLOAD RETURNDATASIZE PUSH1 0x20 DUP2 LT ISZERO PUSH2 0xC7D JUMPI PUSH1 0x0 DUP1 REVERT JUMPDEST POP MLOAD ISZERO ISZERO PUSH2 0xC8A JUMPI PUSH1 0x0 DUP1 REVERT JUMPDEST PUSH1 0x40 DUP1 MLOAD DUP8 DUP2 MSTORE SWAP1 MLOAD PUSH20 0xFFFFFFFFFFFFFFFFFFFFFFFFFFFFFFFFFFFFFFFF DUP1 DUP12 AND SWAP3 CALLER SWAP3 SWAP2 DUP12 AND SWAP2 PUSH32 0x93D0111DEB3C3657374F0DC73B64FF5AE0111E1E4E4D0B5860B0D799599D0A41 SWAP2 DUP2 SWAP1 SUB PUSH1 0x20 ADD SWAP1 LOG4 POP PUSH1 0x1 SWAP8 SWAP7 POP POP POP POP POP POP POP JUMP JUMPDEST PUSH1 0x0 DUP1 SLOAD PUSH1 0x40 DUP1 MLOAD PUSH32 0xA2CE277300000000000000000000000000000000000000000000000000000000 DUP2 MSTORE CALLER PUSH1 0x4 DUP3 ADD DUP2 SWAP1 MSTORE SWAP2 MLOAD SWAP2 SWAP3 PUSH20 0xFFFFFFFFFFFFFFFFFFFFFFFFFFFFFFFFFFFFFFFF AND SWAP2 DUP3 SWAP2 PUSH4 0xA2CE2773 SWAP2 PUSH1 0x24 DUP1 DUP4 ADD SWAP3 PUSH1 0x20 SWAP3 SWAP2 SWAP1 DUP3 SWAP1 SUB ADD DUP2 DUP7 DUP1 EXTCODESIZE ISZERO DUP1 ISZERO PUSH2 0xD5F JUMPI PUSH1 0x0 DUP1 REVERT JUMPDEST POP GAS STATICCALL ISZERO DUP1 ISZERO PUSH2 0xD73 JUMPI RETURNDATASIZE PUSH1 0x0 DUP1 RETURNDATACOPY RETURNDATASIZE PUSH1 0x0 REVERT JUMPDEST POP POP POP POP PUSH1 0x40 MLOAD RETURNDATASIZE PUSH1 0x20 DUP2 LT ISZERO PUSH2 0xD89 JUMPI PUSH1 0x0 DUP1 REVERT JUMPDEST POP MLOAD ISZERO ISZERO PUSH2 0xD96 JUMPI PUSH1 0x0 DUP1 REVERT JUMPDEST PUSH1 0x0 SLOAD PUSH1 0x40 DUP1 MLOAD PUSH32 0xD88C271E00000000000000000000000000000000000000000000000000000000 DUP2 MSTORE PUSH20 0xFFFFFFFFFFFFFFFFFFFFFFFFFFFFFFFFFFFFFFFF DUP1 DUP11 AND PUSH1 0x4 DUP4 ADD MSTORE SWAP2 MLOAD DUP10 SWAP4 SWAP3 SWAP1 SWAP3 AND SWAP2 DUP3 SWAP2 PUSH4 0xD88C271E SWAP2 PUSH1 0x24 DUP1 DUP4 ADD SWAP3 PUSH1 0x20 SWAP3 SWAP2 SWAP1 DUP3 SWAP1 SUB ADD DUP2 DUP7 DUP1 EXTCODESIZE ISZERO DUP1 ISZERO PUSH2 0xE0D JUMPI PUSH1 0x0 DUP1 REVERT JUMPDEST POP GAS STATICCALL ISZERO DUP1 ISZERO PUSH2 0xE21 JUMPI RETURNDATASIZE PUSH1 0x0 DUP1 RETURNDATACOPY RETURNDATASIZE PUSH1 0x0 REVERT JUMPDEST POP POP POP POP PUSH1 0x40 MLOAD RETURNDATASIZE PUSH1 0x20 DUP2 LT ISZERO PUSH2 0xE37 JUMPI PUSH1 0x0 DUP1 REVERT JUMPDEST POP MLOAD ISZERO ISZERO PUSH2 0xE44 JUMPI PUSH1 0x0 DUP1 REVERT JUMPDEST PUSH1 0x40 DUP1 MLOAD PUSH20 0xFFFFFFFFFFFFFFFFFFFFFFFFFFFFFFFFFFFFFFFF DUP9 DUP2 AND DUP3 MSTORE SWAP2 MLOAD DUP3 DUP12 AND SWAP3 CALLER SWAP3 SWAP1 DUP12 AND SWAP2 PUSH32 0xEFE40F758CD182716682DB7A4BCD9DD6B9FBA7E0BCC9FB0096282108DB6F02EF SWAP2 DUP2 SWAP1 SUB PUSH1 0x20 ADD SWAP1 LOG4 POP PUSH1 0x1 SWAP8 SWAP7 POP POP POP POP POP POP POP JUMP JUMPDEST PUSH1 0x0 DUP1 SLOAD PUSH1 0x40 DUP1 MLOAD PUSH32 0xA2CE277300000000000000000000000000000000000000000000000000000000 DUP2 MSTORE CALLER PUSH1 0x4 DUP3 ADD DUP2 SWAP1 MSTORE SWAP2 MLOAD SWAP2 SWAP3 PUSH20 0xFFFFFFFFFFFFFFFFFFFFFFFFFFFFFFFFFFFFFFFF AND SWAP2 DUP3 SWAP2 PUSH4 0xA2CE2773 SWAP2 PUSH1 0x24 DUP1 DUP4 ADD SWAP3 PUSH1 0x20 SWAP3 SWAP2 SWAP1 DUP3 SWAP1 SUB ADD DUP2 DUP7 DUP1 EXTCODESIZE ISZERO DUP1 ISZERO PUSH2 0xF1B JUMPI PUSH1 0x0 DUP1 REVERT JUMPDEST POP GAS STATICCALL ISZERO DUP1 ISZERO PUSH2 0xF2F JUMPI RETURNDATASIZE PUSH1 0x0 DUP1 RETURNDATACOPY RETURNDATASIZE PUSH1 0x0 REVERT JUMPDEST POP POP POP POP PUSH1 0x40 MLOAD RETURNDATASIZE PUSH1 0x20 DUP2 LT ISZERO PUSH2 0xF45 JUMPI PUSH1 0x0 DUP1 REVERT JUMPDEST POP MLOAD ISZERO ISZERO PUSH2 0xF52 JUMPI PUSH1 0x0 DUP1 REVERT JUMPDEST PUSH1 0x0 DUP10 GT PUSH2 0xF5F JUMPI PUSH1 0x0 DUP1 REVERT JUMPDEST PUSH2 0x81D DUP11 DUP13 CALLER DUP13 DUP13 DUP13 DUP13 DUP1 DUP1 PUSH1 0x1F ADD PUSH1 0x20 DUP1 SWAP2 DIV MUL PUSH1 0x20 ADD PUSH1 0x40 MLOAD SWAP1 DUP2 ADD PUSH1 0x40 MSTORE DUP1 SWAP4 SWAP3 SWAP2 SWAP1 DUP2 DUP2 MSTORE PUSH1 0x20 ADD DUP4 DUP4 DUP1 DUP3 DUP5 CALLDATACOPY PUSH1 0x0 DUP2 DUP5 ADD MSTORE PUSH1 0x1F NOT PUSH1 0x1F DUP3 ADD AND SWAP1 POP DUP1 DUP4 ADD SWAP3 POP POP POP POP POP POP POP DUP12 DUP12 DUP1 DUP1 PUSH1 0x1F ADD PUSH1 0x20 DUP1 SWAP2 DIV MUL PUSH1 0x20 ADD PUSH1 0x40 MLOAD SWAP1 DUP2 ADD PUSH1 0x40 MSTORE DUP1 SWAP4 SWAP3 SWAP2 SWAP1 DUP2 DUP2 MSTORE PUSH1 0x20 ADD DUP4 DUP4 DUP1 DUP3 DUP5 CALLDATACOPY PUSH1 0x0 SWAP3 ADD SWAP2 SWAP1 SWAP2 MSTORE POP PUSH2 0x12D2 SWAP3 POP POP POP JUMP JUMPDEST PUSH1 0x40 DUP1 MLOAD DUP1 DUP3 ADD SWAP1 SWAP2 MSTORE PUSH1 0x8 DUP2 MSTORE PUSH32 0x444820302E342E32000000000000000000000000000000000000000000000000 PUSH1 0x20 DUP3 ADD MSTORE DUP2 JUMP JUMPDEST DUP4 PUSH20 0xFFFFFFFFFFFFFFFFFFFFFFFFFFFFFFFFFFFFFFFF AND DUP6 PUSH20 0xFFFFFFFFFFFFFFFFFFFFFFFFFFFFFFFFFFFFFFFF AND DUP8 PUSH20 0xFFFFFFFFFFFFFFFFFFFFFFFFFFFFFFFFFFFFFFFF AND PUSH32 0x64ED22EBF6A0E1E608CFC2A4FEFA09FD94F6084554943B88D6CD6BF31536EAF8 DUP5 DUP8 DUP8 PUSH1 0x40 MLOAD DUP1 DUP5 DUP2 MSTORE PUSH1 0x20 ADD DUP1 PUSH1 0x20 ADD DUP1 PUSH1 0x20 ADD DUP4 DUP2 SUB DUP4 MSTORE DUP6 DUP2 DUP2 MLOAD DUP2 MSTORE PUSH1 0x20 ADD SWAP2 POP DUP1 MLOAD SWAP1 PUSH1 0x20 ADD SWAP1 DUP1 DUP4 DUP4 PUSH1 0x0 JUMPDEST DUP4 DUP2 LT ISZERO PUSH2 0x10CF JUMPI DUP2 DUP2 ADD MLOAD DUP4 DUP3 ADD MSTORE PUSH1 0x20 ADD PUSH2 0x10B7 JUMP JUMPDEST POP POP POP POP SWAP1 POP SWAP1 DUP2 ADD SWAP1 PUSH1 0x1F AND DUP1 ISZERO PUSH2 0x10FC JUMPI DUP1 DUP3 SUB DUP1 MLOAD PUSH1 0x1 DUP4 PUSH1 0x20 SUB PUSH2 0x100 EXP SUB NOT AND DUP2 MSTORE PUSH1 0x20 ADD SWAP2 POP JUMPDEST POP DUP4 DUP2 SUB DUP3 MSTORE DUP5 MLOAD DUP2 MSTORE DUP5 MLOAD PUSH1 0x20 SWAP2 DUP3 ADD SWAP2 DUP7 ADD SWAP1 DUP1 DUP4 DUP4 PUSH1 0x0 JUMPDEST DUP4 DUP2 LT ISZERO PUSH2 0x112F JUMPI DUP2 DUP2 ADD MLOAD DUP4 DUP3 ADD MSTORE PUSH1 0x20 ADD PUSH2 0x1117 JUMP JUMPDEST POP POP POP POP SWAP1 POP SWAP1 DUP2 ADD SWAP1 PUSH1 0x1F AND DUP1 ISZERO PUSH2 0x115C JUMPI DUP1 DUP3 SUB DUP1 MLOAD PUSH1 0x1 DUP4 PUSH1 0x20 SUB PUSH2 0x100 EXP SUB NOT AND DUP2 MSTORE PUSH1 0x20 ADD SWAP2 POP JUMPDEST POP SWAP6 POP POP POP POP POP POP PUSH1 0x40 MLOAD DUP1 SWAP2 SUB SWAP1 LOG4 POP POP POP POP POP POP JUMP JUMPDEST DUP5 PUSH20 0xFFFFFFFFFFFFFFFFFFFFFFFFFFFFFFFFFFFFFFFF AND DUP7 PUSH20 0xFFFFFFFFFFFFFFFFFFFFFFFFFFFFFFFFFFFFFFFF AND DUP9 PUSH20 0xFFFFFFFFFFFFFFFFFFFFFFFFFFFFFFFFFFFFFFFF AND PUSH32 0x6141A2C56E3508B521D00477F5A870806718EC8575AB85ABEF01336B1FF47AF4 DUP8 DUP8 DUP8 DUP8 PUSH1 0x40 MLOAD DUP1 DUP6 DUP2 MSTORE PUSH1 0x20 ADD DUP5 DUP2 MSTORE PUSH1 0x20 ADD DUP1 PUSH1 0x20 ADD DUP1 PUSH1 0x20 ADD DUP4 DUP2 SUB DUP4 MSTORE DUP6 DUP2 DUP2 MLOAD DUP2 MSTORE PUSH1 0x20 ADD SWAP2 POP DUP1 MLOAD SWAP1 PUSH1 0x20 ADD SWAP1 DUP1 DUP4 DUP4 PUSH1 0x0 JUMPDEST DUP4 DUP2 LT ISZERO PUSH2 0x122B JUMPI DUP2 DUP2 ADD MLOAD DUP4 DUP3 ADD MSTORE PUSH1 0x20 ADD PUSH2 0x1213 JUMP JUMPDEST POP POP POP POP SWAP1 POP SWAP1 DUP2 ADD SWAP1 PUSH1 0x1F AND DUP1 ISZERO PUSH2 0x1258 JUMPI DUP1 DUP3 SUB DUP1 MLOAD PUSH1 0x1 DUP4 PUSH1 0x20 SUB PUSH2 0x100 EXP SUB NOT AND DUP2 MSTORE PUSH1 0x20 ADD SWAP2 POP JUMPDEST POP DUP4 DUP2 SUB DUP3 MSTORE DUP5 MLOAD DUP2 MSTORE DUP5 MLOAD PUSH1 0x20 SWAP2 DUP3 ADD SWAP2 DUP7 ADD SWAP1 DUP1 DUP4 DUP4 PUSH1 0x0 JUMPDEST DUP4 DUP2 LT ISZERO PUSH2 0x128B JUMPI DUP2 DUP2 ADD MLOAD DUP4 DUP3 ADD MSTORE PUSH1 0x20 ADD PUSH2 0x1273 JUMP JUMPDEST POP POP POP POP SWAP1 POP SWAP1 DUP2 ADD SWAP1 PUSH1 0x1F AND DUP1 ISZERO PUSH2 0x12B8 JUMPI DUP1 DUP3 SUB DUP1 MLOAD PUSH1 0x1 DUP4 PUSH1 0x20 SUB PUSH2 0x100 EXP SUB NOT AND DUP2 MSTORE PUSH1 0x20 ADD SWAP2 POP JUMPDEST POP SWAP7 POP POP POP POP POP POP POP PUSH1 0x40 MLOAD DUP1 SWAP2 SUB SWAP1 LOG4 POP POP POP POP POP POP POP JUMP JUMPDEST DUP5 PUSH20 0xFFFFFFFFFFFFFFFFFFFFFFFFFFFFFFFFFFFFFFFF AND DUP7 PUSH20 0xFFFFFFFFFFFFFFFFFFFFFFFFFFFFFFFFFFFFFFFF AND DUP9 PUSH20 0xFFFFFFFFFFFFFFFFFFFFFFFFFFFFFFFFFFFFFFFF AND PUSH32 0x4AEBDD85CF1C59F037DDD47ABD2D880FEA9AC8678F13A391CB5FB7CD8F769766 DUP8 DUP8 DUP8 DUP8 PUSH1 0x40 MLOAD DUP1 DUP6 DUP2 MSTORE PUSH1 0x20 ADD DUP5 DUP2 MSTORE PUSH1 0x20 ADD DUP1 PUSH1 0x20 ADD DUP1 PUSH1 0x20 ADD DUP4 DUP2 SUB DUP4 MSTORE DUP6 DUP2 DUP2 MLOAD DUP2 MSTORE PUSH1 0x20 ADD SWAP2 POP DUP1 MLOAD SWAP1 PUSH1 0x20 ADD SWAP1 DUP1 DUP4 DUP4 PUSH1 0x0 DUP4 DUP2 LT ISZERO PUSH2 0x122B JUMPI DUP2 DUP2 ADD MLOAD DUP4 DUP3 ADD MSTORE PUSH1 0x20 ADD PUSH2 0x1213 JUMP INVALID LOG1 PUSH6 0x627A7A723058 KECCAK256 0x28 PUSH27 0x735A1F4DBE04D89BA33D82D5496BAE7AF7020D168F3F506DC95E61 0xe5 PUSH20 0xBC00290000000000000000000000000000000000 "
			}
		}
	},
	"sourceTreeHashHex": "0x41adb625b8231110592f6ae8b951e8a65ce74d946c89f9058fc892a5ca98ebe5",
	"compiler": {
		"name": "solc",
		"version": "0.5.0+commit.1d4f565a",
		"settings": {
			"remappings": [],
			"optimizer": {
				"enabled": true,
				"runs": 1000000
			},
			"outputSelection": {
				"*": {
					"*": [
						"abi",
						"devdoc",
						"evm.bytecode.object",
						"evm.bytecode.sourceMap",
						"evm.deployedBytecode.object",
						"evm.deployedBytecode.sourceMap"
					]
				}
			}
		}
	},
	"chains": {}
}