{
	"schemaVersion": "2.0.0",
	"contractName": "VaultFactory",
	"compilerOutput": {
		"abi": [
			{
				"constant": false,
				"inputs": [
					{
						"name": "_new",
						"type": "address"
					}
				],
				"name": "setOwner",
				"outputs": [],
				"payable": false,
				"stateMutability": "nonpayable",
				"type": "function"
			},
			{
				"constant": false,
				"inputs": [
					{
						"name": "_vaultDao",
						"type": "address"
					}
				],
				"name": "setBeneficiary",
				"outputs": [],
				"payable": false,
				"stateMutability": "nonpayable",
				"type": "function"
			},
			{
				"constant": true,
				"inputs": [],
				"name": "getStorage",
				"outputs": [
					{
						"name": "vaultDao",
						"type": "address"
					},
					{
						"name": "version",
						"type": "string"
					},
					{
						"name": "nextVaultId",
						"type": "uint256"
					}
				],
				"payable": false,
				"stateMutability": "view",
				"type": "function"
			},
			{
				"constant": false,
				"inputs": [
					{
						"name": "_newVaultDao",
						"type": "address"
					}
				],
				"name": "changeVaultDao",
				"outputs": [],
				"payable": false,
				"stateMutability": "nonpayable",
				"type": "function"
			},
			{
				"constant": true,
				"inputs": [],
				"name": "getRegistry",
				"outputs": [
					{
						"name": "",
						"type": "address"
					}
				],
				"payable": false,
				"stateMutability": "view",
				"type": "function"
			},
			{
				"constant": false,
				"inputs": [
					{
						"name": "_fee",
						"type": "uint256"
					}
				],
				"name": "setFee",
				"outputs": [],
				"payable": false,
				"stateMutability": "nonpayable",
				"type": "function"
			},
			{
				"constant": true,
				"inputs": [],
				"name": "getEventful",
				"outputs": [
					{
						"name": "",
						"type": "address"
					}
				],
				"payable": false,
				"stateMutability": "view",
				"type": "function"
			},
			{
				"constant": true,
				"inputs": [],
				"name": "owner",
				"outputs": [
					{
						"name": "",
						"type": "address"
					}
				],
				"payable": false,
				"stateMutability": "view",
				"type": "function"
			},
			{
				"constant": false,
				"inputs": [],
				"name": "drain",
				"outputs": [],
				"payable": false,
				"stateMutability": "nonpayable",
				"type": "function"
			},
			{
				"constant": false,
				"inputs": [
					{
						"name": "_name",
						"type": "string"
					},
					{
						"name": "_symbol",
						"type": "string"
					}
				],
				"name": "createVault",
				"outputs": [
					{
						"name": "success",
						"type": "bool"
					}
				],
				"payable": true,
				"stateMutability": "payable",
				"type": "function"
			},
			{
				"constant": false,
				"inputs": [
					{
						"name": "_newRegistry",
						"type": "address"
					}
				],
				"name": "setRegistry",
				"outputs": [],
				"payable": false,
				"stateMutability": "nonpayable",
				"type": "function"
			},
			{
				"constant": true,
				"inputs": [
					{
						"name": "_owner",
						"type": "address"
					}
				],
				"name": "getVaultsByAddress",
				"outputs": [
					{
						"name": "",
						"type": "address[]"
					}
				],
				"payable": false,
				"stateMutability": "view",
				"type": "function"
			},
			{
				"constant": false,
				"inputs": [
					{
						"name": "_targetVault",
						"type": "address"
					},
					{
						"name": "_vaultDao",
						"type": "address"
					}
				],
				"name": "setTargetVaultDao",
				"outputs": [],
				"payable": false,
				"stateMutability": "nonpayable",
				"type": "function"
			},
			{
				"constant": true,
				"inputs": [],
				"name": "VERSION",
				"outputs": [
					{
						"name": "",
						"type": "string"
					}
				],
				"payable": false,
				"stateMutability": "view",
				"type": "function"
			},
			{
				"inputs": [
					{
						"name": "_registry",
						"type": "address"
					},
					{
						"name": "_vaultDao",
						"type": "address"
					},
					{
						"name": "_authority",
						"type": "address"
					}
				],
				"payable": false,
				"stateMutability": "nonpayable",
				"type": "constructor"
			},
			{
				"anonymous": false,
				"inputs": [
					{
						"indexed": false,
						"name": "name",
						"type": "string"
					},
					{
						"indexed": false,
						"name": "symbol",
						"type": "string"
					},
					{
						"indexed": true,
						"name": "vault",
						"type": "address"
					},
					{
						"indexed": true,
						"name": "owner",
						"type": "address"
					},
					{
						"indexed": false,
						"name": "vaultId",
						"type": "uint256"
					}
				],
				"name": "VaultCreated",
				"type": "event"
			},
			{
				"anonymous": false,
				"inputs": [
					{
						"indexed": true,
						"name": "old",
						"type": "address"
					},
					{
						"indexed": true,
						"name": "current",
						"type": "address"
					}
				],
				"name": "NewOwner",
				"type": "event"
			}
		],
		"devdoc": {
			"author": "Gabriele Rigo - <gab@rigoblock.com>",
			"methods": {
				"changeVaultDao(address)": {
					"details": "Allows vault dao/factory to update its addressCreates internal record",
					"params": {
						"_newVaultDao": "Address of the vault dao"
					}
				},
				"createVault(string,string)": {
					"details": "allows creation of a new vault",
					"params": {
						"_name": "String of the name",
						"_symbol": "String of the symbol"
					},
					"return": "Bool the transaction executed correctly"
				},
				"drain()": {
					"details": "Allows owner to collect fees"
				},
				"getEventful()": {
					"details": "Returns the address of the logger contractQueries from authority contract",
					"return": "Address of the eventful contract"
				},
				"getRegistry()": {
					"details": "Returns the address of the pool registry",
					"return": "Address of the registry"
				},
				"getStorage()": {
					"details": "Returns administrative data for this factory",
					"return": "Address of the vault daoString of the versionNumber of the next vault from the registry"
				},
				"getVaultsByAddress(address)": {
					"details": "Returns an array of vaults the owner has created",
					"params": {
						"_owner": "Address of the queried owner"
					},
					"return": "Array of vault addresses"
				},
				"setBeneficiary(address)": {
					"details": "Allows owner to set the address which can collect creation fees",
					"params": {
						"_vaultDao": "Address of the new vault dao/factory"
					}
				},
				"setFee(uint256)": {
					"details": "Allows owner to set the vault creation fee",
					"params": {
						"_fee": "Value of the fee in wei"
					}
				},
				"setRegistry(address)": {
					"details": "Allows owner to update the registry",
					"params": {
						"_newRegistry": "Address of the new registry"
					}
				},
				"setTargetVaultDao(address,address)": {
					"details": "Allows factory owner to update the address of the dao/factoryEnables manual update of dao for single vaults",
					"params": {
						"_targetVault": "Address of the target vault",
						"_vaultDao": "Address of the new vault dao"
					}
				}
			},
			"title": "Vault Factory contract - allows creation of new vaults."
		},
		"evm": {
			"bytecode": {
				"linkReferences": {},
				"object": "0x608060405234801561001057600080fd5b506040516060806138908339810180604052606081101561003057600080fd5b508051602082015160409092015160078054600160a060020a03938416600160a060020a0319918216179091556008805494841694821694909417909355600980549290911691831691909117905560008054909116331790556137f7806100996000396000f3fe608060405260043610620000de5763ffffffff7c010000000000000000000000000000000000000000000000000000000060003504166313af40358114620000e35780631c31f710146200011c5780633408f73a14620001535780635082520714620001fc5780635ab1bd53146200023357806369fe0e2d1462000267578063837929b614620002955780638da5cb5b14620002ad5780639890220b14620002c5578063a390d7e114620002dd578063a91ee0dc14620003bc578063b11e2beb14620003f3578063ed3b49ac146200047c578063ffa1ad7414620004bb575b600080fd5b348015620000f057600080fd5b506200011a600480360360208110156200010957600080fd5b5035600160a060020a03166200054b565b005b3480156200012957600080fd5b506200011a600480360360208110156200014257600080fd5b5035600160a060020a0316620005d4565b3480156200016057600080fd5b506200016b6200061b565b60408051600160a060020a0385168152908101829052606060208083018281528551928401929092528451608084019186019080838360005b83811015620001be578181015183820152602001620001a4565b50505050905090810190601f168015620001ec5780820380516001836020036101000a031916815260200191505b5094505050505060405180910390f35b3480156200020957600080fd5b506200011a600480360360208110156200022257600080fd5b5035600160a060020a031662000676565b3480156200024057600080fd5b506200024b6200068e565b60408051600160a060020a039092168252519081900360200190f35b3480156200027457600080fd5b506200011a600480360360208110156200028d57600080fd5b50356200069e565b348015620002a257600080fd5b506200024b620006bb565b348015620002ba57600080fd5b506200024b62000751565b348015620002d257600080fd5b506200011a62000760565b620003a860048036036040811015620002f557600080fd5b8101906020810181356401000000008111156200031157600080fd5b8201836020820111156200032457600080fd5b803590602001918460018302840111640100000000831117156200034757600080fd5b9193909290916020810190356401000000008111156200036657600080fd5b8201836020820111156200037957600080fd5b803590602001918460018302840111640100000000831117156200039c57600080fd5b509092509050620007b6565b604080519115158252519081900360200190f35b348015620003c957600080fd5b506200011a60048036036020811015620003e257600080fd5b5035600160a060020a031662000a97565b3480156200040057600080fd5b506200042a600480360360208110156200041957600080fd5b5035600160a060020a031662000ade565b60408051602080825283518183015283519192839290830191858101910280838360005b83811015620004685781810151838201526020016200044e565b505050509050019250505060405180910390f35b3480156200048957600080fd5b506200011a60048036036040811015620004a257600080fd5b50600160a060020a038135811691602001351662000b56565b348015620004c857600080fd5b50620004d362000bf1565b6040805160208082528351818301528351919283929083019185019080838360005b838110156200050f578181015183820152602001620004f5565b50505050905090810190601f1680156200053d5780820380516001836020036101000a031916815260200191505b509250505060405180910390f35b600054600160a060020a031633146200056357600080fd5b600160a060020a03811615156200057957600080fd5b6000805473ffffffffffffffffffffffffffffffffffffffff1916600160a060020a0383811691821780845560405192939116917f70aea8d848e8a90fb7661b227dc522eb6395c3dac71b63cb59edd5c9899b23649190a350565b600054600160a060020a03163314620005ec57600080fd5b6008805473ffffffffffffffffffffffffffffffffffffffff1916600160a060020a0392909216919091179055565b60088054604080518082019091529182527f564620302e352e320000000000000000000000000000000000000000000000006020830152600160a060020a031690600082826200066a62000c28565b91945092509050909192565b600854600160a060020a03163314620005ec57600080fd5b600754600160a060020a03165b90565b600054600160a060020a03163314620006b657600080fd5b600655565b600954604080517f088f47ee0000000000000000000000000000000000000000000000000000000081529051600092600160a060020a031691829163088f47ee91600480820192602092909190829003018186803b1580156200071d57600080fd5b505afa15801562000732573d6000803e3d6000fd5b505050506040513d60208110156200074957600080fd5b505191505090565b600054600160a060020a031681565b600054600160a060020a031633146200077857600080fd5b600854604051600160a060020a0390911690303180156108fc02916000818181858888f19350505050158015620007b3573d6000803e3d6000fd5b50565b600654600090341015620007c957600080fd5b600754604080517fced72f870000000000000000000000000000000000000000000000000000000081529051600160a060020a0390921691600091839163ced72f8791600480820192602092909190829003018186803b1580156200082d57600080fd5b505afa15801562000842573d6000803e3d6000fd5b505050506040513d60208110156200085957600080fd5b5051604080517fcd6f4e0d0000000000000000000000000000000000000000000000000000000081529051919250600091600160a060020a0385169163cd6f4e0d916004808301926020929190829003018186803b158015620008bb57600080fd5b505afa158015620008d0573d6000803e3d6000fd5b505050506040513d6020811015620008e757600080fd5b5051604080516020601f8b018190048102820181019092528981529192506200096491908a908a908190840183828082843760009201919091525050604080516020601f8c018190048102820181019092528a815292508a915089908190840183828082843760009201919091525033925086915062000c8a9050565b15156200097057600080fd5b6005546040517f3fa7d3e3000000000000000000000000000000000000000000000000000000008152600160a060020a039182166004820181815260648301859052336084840181905260a06024850190815260a485018d905294881694633fa7d3e3948894938f938f938f938f938c93929091604481019060c401898980828437600083820152601f01601f191690910184810383528781526020019050878780828437600081840152601f19601f82011690508083019250505099505050505050505050506020604051808303818588803b15801562000a5157600080fd5b505af115801562000a66573d6000803e3d6000fd5b50505050506040513d602081101562000a7e57600080fd5b5051151562000a8957fe5b506001979650505050505050565b600054600160a060020a0316331462000aaf57600080fd5b6007805473ffffffffffffffffffffffffffffffffffffffff1916600160a060020a0392909216919091179055565b600160a060020a0381166000908152600a602090815260409182902080548351818402810184019094528084526060939283018282801562000b4a57602002820191906000526020600020905b8154600160a060020a0316815260019091019060200180831162000b2b575b50505050509050919050565b600054600160a060020a0316331462000b6e57600080fd5b604080517f50825207000000000000000000000000000000000000000000000000000000008152600160a060020a03838116600483015291518492831691635082520791602480830192600092919082900301818387803b15801562000bd357600080fd5b505af115801562000be8573d6000803e3d6000fd5b50505050505050565b60408051808201909152600881527f564620302e352e32000000000000000000000000000000000000000000000000602082015281565b600754604080517fcd6f4e0d0000000000000000000000000000000000000000000000000000000081529051600092600160a060020a031691829163cd6f4e0d91600480820192602092909190829003018186803b1580156200071d57600080fd5b600954600090600160a060020a031662000caa600187878787866200115b565b151562000cb657600080fd5b600160a060020a038085166000908152600a602090815260408083206005548154600181018355918552838520909101805473ffffffffffffffffffffffffffffffffffffffff191691861691909117905580517f088f47ee0000000000000000000000000000000000000000000000000000000081529051929385169263088f47ee92600483810193919291829003018186803b15801562000d5857600080fd5b505afa15801562000d6d573d6000803e3d6000fd5b505050506040513d602081101562000d8457600080fd5b50516005546040517f06165749000000000000000000000000000000000000000000000000000000008152600160a060020a0388811660048301908152928116602483018190526084830189905260a0604484019081528c5160a48501528c51959650918616946306165749948b9492938e938e938d939291606481019160c490910190602088019080838360005b8381101562000e2d57818101518382015260200162000e13565b50505050905090810190601f16801562000e5b5780820380516001836020036101000a031916815260200191505b50838103825285518152855160209182019187019080838360005b8381101562000e9057818101518382015260200162000e76565b50505050905090810190601f16801562000ebe5780820380516001836020036101000a031916815260200191505b50975050505050505050602060405180830381600087803b15801562000ee357600080fd5b505af115801562000ef8573d6000803e3d6000fd5b505050506040513d602081101562000f0f57600080fd5b5051151562000f1d57600080fd5b600554604080517fe6e66c68000000000000000000000000000000000000000000000000000000008152600160a060020a0392831660048201526001602482015290519184169163e6e66c689160448082019260009290919082900301818387803b15801562000f8c57600080fd5b505af115801562000fa1573d6000803e3d6000fd5b5050604080517fa0ca3ee1000000000000000000000000000000000000000000000000000000008152600160a060020a038981166004830152600160248301529151918616935063a0ca3ee1925060448082019260009290919082900301818387803b1580156200101157600080fd5b505af115801562001026573d6000803e3d6000fd5b50506005546040805190810188905260608082528b51908201528a51600160a060020a038a8116955090921692507fa4d67dc007d63bf037b4ddf55b81abcac4baa236e678684cfa426913b6e75474918b918b918a91908190602080830191608084019188019080838360005b83811015620010ad57818101518382015260200162001093565b50505050905090810190601f168015620010db5780820380516001836020036101000a031916815260200191505b50838103825285518152855160209182019187019080838360005b8381101562001110578181015183820152602001620010f6565b50505050905090810190601f1680156200113e5780820380516001836020036101000a031916815260200191505b509550505050505060405180910390a35060019695505050505050565b845160009081906200117490899060208a019062001346565b86516200118b9060018b019060208a019062001346565b60028a0186905560038a01805473ffffffffffffffffffffffffffffffffffffffff1916600160a060020a038916179055858786620011c9620013cb565b60408101849052600160a060020a0380841660608301528216608082015260a08082528654600260001961010060018416150201909116049082018190528190602082019060c083019089908015620012665780601f106200123a5761010080835404028352916020019162001266565b820191906000526020600020905b8154815290600101906020018083116200124857829003601f168201915b5050838103825287546002600019610100600184161502019091160480825260209091019088908015620012de5780601f10620012b257610100808354040283529160200191620012de565b820191906000526020600020905b815481529060010190602001808311620012c057829003601f168201915b5050975050505050505050604051809103906000f08015801562001306573d6000803e3d6000fd5b50600489018054600160a060020a0390921673ffffffffffffffffffffffffffffffffffffffff1990921691909117905550600190509695505050505050565b828054600181600116156101000203166002900490600052602060002090601f016020900481019282601f106200138957805160ff1916838001178555620013b9565b82800160010185558215620013b9579182015b82811115620013b95782518255916020019190600101906200139c565b50620013c7929150620013dc565b5090565b6040516123d280620013fa83390190565b6200069b91905b80821115620013c75760008155600101620013e356fe60806040526000805460a060020a60ff02191690553480156200002157600080fd5b50604051620023d2380380620023d2833981018060405260a08110156200004757600080fd5b8101908080516401000000008111156200006057600080fd5b820160208101848111156200007457600080fd5b81516401000000008111828201871017156200008f57600080fd5b50509291906020018051640100000000811115620000ac57600080fd5b82016020810184811115620000c057600080fd5b8151640100000000811182820187101715620000db57600080fd5b5050602080830151604084015160609094015187519396509094509162000109916001919088019062000190565b5083516200011f90600290602087019062000190565b50600392909255670de0b6b3a764000060055560008054600160a060020a03928316600160a060020a031991821681179092556008805494909316938116939093179091556009805483163317905566038d7ea4c68000600b55600a805490921617905550506050600c5562000235565b828054600181600116156101000203166002900490600052602060002090601f016020900481019282601f10620001d357805160ff191683800117855562000203565b8280016001018555821562000203579182015b8281111562000203578251825591602001919060010190620001e6565b506200021192915062000215565b5090565b6200023291905b808211156200021157600081556001016200021c565b90565b61218d80620002456000396000f3fe6080604052600436106101485763ffffffff7c0100000000000000000000000000000000000000000000000000000000600035041663096a8ab7811461014d5780630d5f3f541461017957806313af4035146101cf57806318160ddd1461020257806319589b88146102295780631bea80061461025c578063240d9cba146102975780633bc5de30146102c15780634dbf6c5a146103c257806350825207146103fd57806354bdbd4d14610430578063673a7e281461046057806370a0823114610475578063837929b6146104a857806387e9f75d146104d95780638da5cb5b146105145780638f7a844b146105295780639245290d146105855780639489fa84146105b85780639e281a98146105cd578063af41cec014610606578063c15016951461062c578063d5947f1414610679578063e1c8d30814610681578063f6a33253146106bc575b600080fd5b34801561015957600080fd5b506101776004803603602081101561017057600080fd5b50356106e6565b005b34801561018557600080fd5b506101bb6004803603606081101561019c57600080fd5b508035600160a060020a0316906020810135906040013560ff16610834565b604080519115158252519081900360200190f35b3480156101db57600080fd5b50610177600480360360208110156101f257600080fd5b5035600160a060020a03166108cc565b34801561020e57600080fd5b50610217610953565b60408051918252519081900360200190f35b34801561023557600080fd5b506102176004803603602081101561024c57600080fd5b5035600160a060020a0316610959565b34801561026857600080fd5b506102176004803603604081101561027f57600080fd5b50600160a060020a0381358116916020013516610974565b3480156102a357600080fd5b506101bb600480360360208110156102ba57600080fd5b503561099f565b3480156102cd57600080fd5b506102d6610af8565b604051808060200180602001858152602001848152602001838103835287818151815260200191508051906020019080838360005b8381101561032357818101518382015260200161030b565b50505050905090810190601f1680156103505780820380516001836020036101000a031916815260200191505b50838103825286518152865160209182019188019080838360005b8381101561038357818101518382015260200161036b565b50505050905090810190601f1680156103b05780820380516001836020036101000a031916815260200191505b50965050505050505060405180910390f35b3480156103ce57600080fd5b50610217600480360360408110156103e557600080fd5b50600160a060020a0381358116916020013516610c40565b34801561040957600080fd5b506101776004803603602081101561042057600080fd5b5035600160a060020a0316610c5d565b34801561043c57600080fd5b506101776004803603602081101561045357600080fd5b503563ffffffff16610dc9565b34801561046c57600080fd5b50610177610dfc565b34801561048157600080fd5b506102176004803603602081101561049857600080fd5b5035600160a060020a0316610e7c565b3480156104b457600080fd5b506104bd610e97565b60408051600160a060020a039092168252519081900360200190f35b3480156104e557600080fd5b50610217600480360360408110156104fc57600080fd5b50600160a060020a0381358116916020013516610f14565b34801561052057600080fd5b506104bd610f3f565b34801561053557600080fd5b5061053e610f4e565b60408051600160a060020a039788168152958716602087015293909516848401526060840191909152608083015263ffffffff90921660a082015290519081900360c00190f35b34801561059157600080fd5b50610177600480360360208110156105a857600080fd5b5035600160a060020a0316610f83565b3480156105c457600080fd5b506102176110ef565b3480156105d957600080fd5b506101bb600480360360408110156105f057600080fd5b50600160a060020a0381351690602001356110fe565b6101bb6004803603602081101561061c57600080fd5b5035600160a060020a03166112f8565b34801561063857600080fd5b506101bb6004803603608081101561064f57600080fd5b508035600160a060020a03908116916020810135909116906040810135906060013560ff1661132a565b6101bb61134e565b34801561068d57600080fd5b50610217600480360360408110156106a457600080fd5b50600160a060020a038135811691602001351661137f565b3480156106c857600080fd5b50610177600480360360208110156106df57600080fd5b503561139c565b600054600160a060020a031633146106fd57600080fd5b606481111561070b57600080fd5b6008546040805160e160020a630447a3f70281529051600160a060020a0390921691600091839163088f47ee91600480820192602092909190829003018186803b15801561075857600080fd5b505afa15801561076c573d6000803e3d6000fd5b505050506040513d602081101561078257600080fd5b5051604080517fd5aaa73a000000000000000000000000000000000000000000000000000000008152336004820152306024820152604481018690529051919250600160a060020a0383169163d5aaa73a916064808201926020929091908290030181600087803b1580156107f657600080fd5b505af115801561080a573d6000803e3d6000fd5b505050506040513d602081101561082057600080fd5b5051151561082d57600080fd5b5050600655565b6000805460a060020a900460ff1615610885576040805160e560020a62461bcd0281526020600482015260126024820152600080516020612142833981519152604482015290519081900360640190fd5b6000805460a060020a60ff02191660a060020a1790556108a7843385856114dc565b15156108b257600080fd5b5060016000805460a060020a60ff02191690559392505050565b600054600160a060020a031633146108e357600080fd5b600160a060020a03811615156108f857600080fd5b6000805473ffffffffffffffffffffffffffffffffffffffff1916600160a060020a0383811691821780845560405192939116917f70aea8d848e8a90fb7661b227dc522eb6395c3dac71b63cb59edd5c9899b23649190a350565b60045490565b600160a060020a03166000908152600e602052604090205490565b600160a060020a03918216600090815260106020908152604080832093909416825291909152205490565b6000805460a060020a900460ff16156109f0576040805160e560020a62461bcd0281526020600482015260126024820152600080516020612142833981519152604482015290519081900360640190fd5b6000805460a060020a60ff02191660a060020a178155338152600d60205260409020548290811115610a2157600080fd5b336000908152600d6020526040902054839080820111610a4057600080fd5b336000908152600d602052604090206001015463ffffffff16421015610a6557600080fd5b610a6d611720565b600080600080610a7c88611738565b92965090945092509050610a9088826117c5565b610a9c33898686611af5565b600454610aa99083611ba0565b600455604051339082156108fc029083906000818181858888f19350505050158015610ad9573d6000803e3d6000fd5b50506000805460a060020a60ff02191690555060019695505050505050565b60018054604080516020600284861615610100026000190190941693909304601f8101849004840282018401909252818152606093849360009384939291830182828015610b875780601f10610b5c57610100808354040283529160200191610b87565b820191906000526020600020905b815481529060010190602001808311610b6a57829003601f168201915b505060028054604080516020601f60001961010060018716150201909416859004938401819004810282018101909252828152969a508a9695509193509150830182828015610c175780601f10610bec57610100808354040283529160200191610c17565b820191906000526020600020905b815481529060010190602001808311610bfa57829003601f168201915b5050505050935083610c27611bb2565b935083610c32611bb2565b929791965094509092509050565b601060209081526000928352604080842090915290825290205481565b600954600160a060020a03163314610c7457600080fd5b6008546040805160e160020a630447a3f70281529051600160a060020a0390921691600091839163088f47ee91600480820192602092909190829003018186803b158015610cc157600080fd5b505afa158015610cd5573d6000803e3d6000fd5b505050506040513d6020811015610ceb57600080fd5b5051604080517f8f85a51c000000000000000000000000000000000000000000000000000000008152336004820152306024820152600160a060020a038681166044830152915192935090831691638f85a51c916064808201926020929091908290030181600087803b158015610d6157600080fd5b505af1158015610d75573d6000803e3d6000fd5b505050506040513d6020811015610d8b57600080fd5b50511515610d9857600080fd5b50506009805473ffffffffffffffffffffffffffffffffffffffff1916600160a060020a0392909216919091179055565b600954600160a060020a03163314610de057600080fd5b6007805463ffffffff191663ffffffff92909216919091179055565b60005460a060020a900460ff1615610e4c576040805160e560020a62461bcd0281526020600482015260126024820152600080516020612142833981519152604482015290519081900360640190fd5b6000805460a060020a60ff02191660a060020a179055610e6a611720565b6000805460a060020a60ff0219169055565b600160a060020a03166000908152600d602052604090205490565b6008546040805160e160020a630447a3f70281529051600092600160a060020a031691829163088f47ee91600480820192602092909190829003018186803b158015610ee257600080fd5b505afa158015610ef6573d6000803e3d6000fd5b505050506040513d6020811015610f0c57600080fd5b505191505090565b600160a060020a039182166000908152600f6020908152604080832093909416825291909152205490565b600054600160a060020a031681565b600054600a54600954600c54600654600754600160a060020a039586169594851694939093169263ffffffff16909192939495565b600054600160a060020a03163314610f9a57600080fd5b6008546040805160e160020a630447a3f70281529051600160a060020a0390921691600091839163088f47ee91600480820192602092909190829003018186803b158015610fe757600080fd5b505afa158015610ffb573d6000803e3d6000fd5b505050506040513d602081101561101157600080fd5b5051604080517ff39ba932000000000000000000000000000000000000000000000000000000008152336004820152306024820152600160a060020a03868116604483015291519293509083169163f39ba932916064808201926020929091908290030181600087803b15801561108757600080fd5b505af115801561109b573d6000803e3d6000fd5b505050506040513d60208110156110b157600080fd5b505115156110be57600080fd5b5050600a805473ffffffffffffffffffffffffffffffffffffffff1916600160a060020a0392909216919091179055565b60006110f9611bb2565b905090565b6000805460a060020a900460ff161561114f576040805160e560020a62461bcd0281526020600482015260126024820152600080516020612142833981519152604482015290519081900360640190fd5b6000805460a060020a60ff02191660a060020a178155600160a060020a038416815260106020908152604080832033845290915290205482111561119257600080fd5b600160a060020a0383166000908152600f6020908152604080832033845290915290205463ffffffff4216116111c757600080fd5b600160a060020a03831660009081526010602090815260408083203384529091529020546111f59083611ba0565b600160a060020a0384166000818152601060209081526040808320338452825280832094909455918152600e90915220546112309083611ba0565b600160a060020a0384166000818152600e602090815260408083209490945583517fa9059cbb000000000000000000000000000000000000000000000000000000008152336004820152602481018790529351929363a9059cbb9360448083019491928390030190829087803b1580156112a957600080fd5b505af11580156112bd573d6000803e3d6000fd5b505050506040513d60208110156112d357600080fd5b505115156112e057600080fd5b50506000805460a060020a60ff021916905550600190565b600b54600090349081101561130c57600080fd5b6113168334611be5565b151561132157600080fd5b50600192915050565b6000611338858585856114dc565b151561134357600080fd5b506001949350505050565b600b54600090349081101561136257600080fd5b61136c3334611be5565b151561137757600080fd5b600191505090565b600f60209081526000928352604080842090915290825290205481565b600954600160a060020a031633146113b357600080fd5b6008546040805160e160020a630447a3f70281529051600160a060020a0390921691600091839163088f47ee91600480820192602092909190829003018186803b15801561140057600080fd5b505afa158015611414573d6000803e3d6000fd5b505050506040513d602081101561142a57600080fd5b5051604080517f91f1df84000000000000000000000000000000000000000000000000000000008152336004820152306024820152604481018690529051919250600160a060020a038316916391f1df84916064808201926020929091908290030181600087803b15801561149e57600080fd5b505af11580156114b2573d6000803e3d6000fd5b505050506040513d60208110156114c857600080fd5b505115156114d557600080fd5b5050600c55565b600160a060020a038085166000908152600f602090815260408083209387168352929052908120544260ff841601101561151557600080fd5b604080517f095ea7b3000000000000000000000000000000000000000000000000000000008152306004820152602481018590529051600160a060020a0387169163095ea7b39160448083019260209291908290030181600087803b15801561157d57600080fd5b505af1158015611591573d6000803e3d6000fd5b505050506040513d60208110156115a757600080fd5b505115156115b457600080fd5b604080517f23b872dd000000000000000000000000000000000000000000000000000000008152336004820152306024820152604481018590529051600160a060020a038716916323b872dd9160648083019260209291908290030181600087803b15801561162257600080fd5b505af1158015611636573d6000803e3d6000fd5b505050506040513d602081101561164c57600080fd5b5051151561165957600080fd5b600160a060020a038086166000908152601060209081526040808320938816835292905220546116899084611c3a565b600160a060020a038087166000818152601060209081526040808320948a16835293815283822094909455908152600e9092529020546116c99084611c3a565b600160a060020a0386166000908152600e60205260409020556116ef4260ff8416611c3a565b600160a060020a038087166000908152600f6020908152604080832093891683529290522055506001949350505050565b60003031111561173657611732611bb2565b6005555b565b600080600080600061271061175287600160050154611c5e565b81151561175b57fe5b049050606461176f82600860040154611c5e565b81151561177857fe5b049450846117868286611ba0565b9450846117938884611ba0565b945084620f42406117a987600160040154611c5e565b8115156117b257fe5b939a929950909750909104945092505050565b60018054604080516020601f600260001961010087891615020190951694909404938401819004810282018101909252828152606093909290918301828280156118505780601f1061182557610100808354040283529160200191611850565b820191906000526020600020905b81548152906001019060200180831161183357829003601f168201915b505060028054604080516020601f60001961010060018716150201909416859004938401819004810282018101909252828152969750606096955091935091508301828280156118e15780601f106118b6576101008083540402835291602001916118e1565b820191906000526020600020905b8154815290600101906020018083116118c457829003601f168201915b50506008546040805160e160020a630447a3f70281529051959650600160a060020a03909116946000945085935063088f47ee92506004808301926020929190829003018186803b15801561193557600080fd5b505afa158015611949573d6000803e3d6000fd5b505050506040513d602081101561195f57600080fd5b50516040517ffee9da4a00000000000000000000000000000000000000000000000000000000815233600482018181523060248401819052604484018b9052606484018a905260c060848501908152895160c48601528951959650600160a060020a0387169563fee9da4a9592938d938d938d938d939260a481019160e490910190602087019080838360005b83811015611a045781810151838201526020016119ec565b50505050905090810190601f168015611a315780820380516001836020036101000a031916815260200191505b50838103825284518152845160209182019186019080838360005b83811015611a64578181015183820152602001611a4c565b50505050905090810190601f168015611a915780820380516001836020036101000a031916815260200191505b5098505050505050505050602060405180830381600087803b158015611ab657600080fd5b505af1158015611aca573d6000803e3d6000fd5b505050506040513d6020811015611ae057600080fd5b50511515611aed57600080fd5b505050505050565b600160a060020a0384166000908152600d6020526040902054611b189084611ba0565b600160a060020a038086166000908152600d602052604080822093909355600a5490911681522054611b4a9083611c3a565b600a54600160a060020a039081166000908152600d60205260408082209390935560095490911681522054611b7f9082611c3a565b600954600160a060020a03166000908152600d602052604090205550505050565b600082821115611bac57fe5b50900390565b600454600090343031039015611bdb57611bd6620f42408202600160030154611c7f565b611bdf565b6005545b91505090565b6000611bef611720565b600080600080611bfe86611cb4565b92965090945092509050611c1181611d36565b611c1d87828585612067565b600454611c2a9085611c3a565b6004555060019695505050505050565b6000828201838110801590611c4f5750828110155b1515611c5757fe5b9392505050565b6000828202831580611c4f5750828482811515611c7757fe5b0414611c5757fe5b6000808211611c8a57fe5b60008284811515611c9757fe5b0490508284811515611ca557fe5b068184020184141515611c5757fe5b600080600080611cce620f42408602600160040154611c7f565b93506000612710611ce486600160050154611c5e565b811515611ced57fe5b049050846064611d0283600860040154611c5e565b811515611d0b57fe5b04945084611d198387611ba0565b945084611d268885611ba0565b9299919850965090945092505050565b60018054604080516020601f60026000196101008789161502019095169490940493840181900481028201810190925282815260609390929091830182828015611dc15780601f10611d9657610100808354040283529160200191611dc1565b820191906000526020600020905b815481529060010190602001808311611da457829003601f168201915b505060028054604080516020601f6000196101006001871615020190941685900493840181900481028201810190925282815296975060609695509193509150830182828015611e525780601f10611e2757610100808354040283529160200191611e52565b820191906000526020600020905b815481529060010190602001808311611e3557829003601f168201915b50506008546040805160e160020a630447a3f70281529051959650600160a060020a03909116946000945085935063088f47ee92506004808301926020929190829003018186803b158015611ea657600080fd5b505afa158015611eba573d6000803e3d6000fd5b505050506040513d6020811015611ed057600080fd5b50516040517f2f2d7bf4000000000000000000000000000000000000000000000000000000008152336004820181815230602484018190523460448501819052606485018b905260c0608486019081528a5160c48701528a51969750600160a060020a03881696632f2d7bf496939492938d938d938d939192909160a482019160e40190602087019080838360005b83811015611f77578181015183820152602001611f5f565b50505050905090810190601f168015611fa45780820380516001836020036101000a031916815260200191505b50838103825284518152845160209182019186019080838360005b83811015611fd7578181015183820152602001611fbf565b50505050905090810190601f1680156120045780820380516001836020036101000a031916815260200191505b5098505050505050505050602060405180830381600087803b15801561202957600080fd5b505af115801561203d573d6000803e3d6000fd5b505050506040513d602081101561205357600080fd5b5051151561206057600080fd5b5050505050565b600160a060020a0384166000908152600d602052604090205461208a9084611c3a565b600160a060020a038086166000908152600d602052604080822093909355600a54909116815220546120bc9083611c3a565b600a54600160a060020a039081166000908152600d602052604080822093909355600954909116815220546120f19082611c3a565b600954600160a060020a039081166000908152600d60205260408082209390935560075496909116815220600101805463ffffffff191663ffffffff95861642019095169490941790935550505056fe5245454e5452414e43595f494c4c4547414c0000000000000000000000000000a165627a7a7230582032c96783a3f7e7769ead546486cde300b0e3eda27d8cce5e7493192c550f2be30029a165627a7a72305820240d4e569021d132a4eda11f38785929be78a82515332f20545741a54b2ec2260029",
				"opcodes": "PUSH1 0x80 PUSH1 0x40 MSTORE CALLVALUE DUP1 ISZERO PUSH2 0x10 JUMPI PUSH1 0x0 DUP1 REVERT JUMPDEST POP PUSH1 0x40 MLOAD PUSH1 0x60 DUP1 PUSH2 0x3890 DUP4 CODECOPY DUP2 ADD DUP1 PUSH1 0x40 MSTORE PUSH1 0x60 DUP2 LT ISZERO PUSH2 0x30 JUMPI PUSH1 0x0 DUP1 REVERT JUMPDEST POP DUP1 MLOAD PUSH1 0x20 DUP3 ADD MLOAD PUSH1 0x40 SWAP1 SWAP3 ADD MLOAD PUSH1 0x7 DUP1 SLOAD PUSH1 0x1 PUSH1 0xA0 PUSH1 0x2 EXP SUB SWAP4 DUP5 AND PUSH1 0x1 PUSH1 0xA0 PUSH1 0x2 EXP SUB NOT SWAP2 DUP3 AND OR SWAP1 SWAP2 SSTORE PUSH1 0x8 DUP1 SLOAD SWAP5 DUP5 AND SWAP5 DUP3 AND SWAP5 SWAP1 SWAP5 OR SWAP1 SWAP4 SSTORE PUSH1 0x9 DUP1 SLOAD SWAP3 SWAP1 SWAP2 AND SWAP2 DUP4 AND SWAP2 SWAP1 SWAP2 OR SWAP1 SSTORE PUSH1 0x0 DUP1 SLOAD SWAP1 SWAP2 AND CALLER OR SWAP1 SSTORE PUSH2 0x37F7 DUP1 PUSH2 0x99 PUSH1 0x0 CODECOPY PUSH1 0x0 RETURN INVALID PUSH1 0x80 PUSH1 0x40 MSTORE PUSH1 0x4 CALLDATASIZE LT PUSH3 0xDE JUMPI PUSH4 0xFFFFFFFF PUSH29 0x100000000000000000000000000000000000000000000000000000000 PUSH1 0x0 CALLDATALOAD DIV AND PUSH4 0x13AF4035 DUP2 EQ PUSH3 0xE3 JUMPI DUP1 PUSH4 0x1C31F710 EQ PUSH3 0x11C JUMPI DUP1 PUSH4 0x3408F73A EQ PUSH3 0x153 JUMPI DUP1 PUSH4 0x50825207 EQ PUSH3 0x1FC JUMPI DUP1 PUSH4 0x5AB1BD53 EQ PUSH3 0x233 JUMPI DUP1 PUSH4 0x69FE0E2D EQ PUSH3 0x267 JUMPI DUP1 PUSH4 0x837929B6 EQ PUSH3 0x295 JUMPI DUP1 PUSH4 0x8DA5CB5B EQ PUSH3 0x2AD JUMPI DUP1 PUSH4 0x9890220B EQ PUSH3 0x2C5 JUMPI DUP1 PUSH4 0xA390D7E1 EQ PUSH3 0x2DD JUMPI DUP1 PUSH4 0xA91EE0DC EQ PUSH3 0x3BC JUMPI DUP1 PUSH4 0xB11E2BEB EQ PUSH3 0x3F3 JUMPI DUP1 PUSH4 0xED3B49AC EQ PUSH3 0x47C JUMPI DUP1 PUSH4 0xFFA1AD74 EQ PUSH3 0x4BB JUMPI JUMPDEST PUSH1 0x0 DUP1 REVERT JUMPDEST CALLVALUE DUP1 ISZERO PUSH3 0xF0 JUMPI PUSH1 0x0 DUP1 REVERT JUMPDEST POP PUSH3 0x11A PUSH1 0x4 DUP1 CALLDATASIZE SUB PUSH1 0x20 DUP2 LT ISZERO PUSH3 0x109 JUMPI PUSH1 0x0 DUP1 REVERT JUMPDEST POP CALLDATALOAD PUSH1 0x1 PUSH1 0xA0 PUSH1 0x2 EXP SUB AND PUSH3 0x54B JUMP JUMPDEST STOP JUMPDEST CALLVALUE DUP1 ISZERO PUSH3 0x129 JUMPI PUSH1 0x0 DUP1 REVERT JUMPDEST POP PUSH3 0x11A PUSH1 0x4 DUP1 CALLDATASIZE SUB PUSH1 0x20 DUP2 LT ISZERO PUSH3 0x142 JUMPI PUSH1 0x0 DUP1 REVERT JUMPDEST POP CALLDATALOAD PUSH1 0x1 PUSH1 0xA0 PUSH1 0x2 EXP SUB AND PUSH3 0x5D4 JUMP JUMPDEST CALLVALUE DUP1 ISZERO PUSH3 0x160 JUMPI PUSH1 0x0 DUP1 REVERT JUMPDEST POP PUSH3 0x16B PUSH3 0x61B JUMP JUMPDEST PUSH1 0x40 DUP1 MLOAD PUSH1 0x1 PUSH1 0xA0 PUSH1 0x2 EXP SUB DUP6 AND DUP2 MSTORE SWAP1 DUP2 ADD DUP3 SWAP1 MSTORE PUSH1 0x60 PUSH1 0x20 DUP1 DUP4 ADD DUP3 DUP2 MSTORE DUP6 MLOAD SWAP3 DUP5 ADD SWAP3 SWAP1 SWAP3 MSTORE DUP5 MLOAD PUSH1 0x80 DUP5 ADD SWAP2 DUP7 ADD SWAP1 DUP1 DUP4 DUP4 PUSH1 0x0 JUMPDEST DUP4 DUP2 LT ISZERO PUSH3 0x1BE JUMPI DUP2 DUP2 ADD MLOAD DUP4 DUP3 ADD MSTORE PUSH1 0x20 ADD PUSH3 0x1A4 JUMP JUMPDEST POP POP POP POP SWAP1 POP SWAP1 DUP2 ADD SWAP1 PUSH1 0x1F AND DUP1 ISZERO PUSH3 0x1EC JUMPI DUP1 DUP3 SUB DUP1 MLOAD PUSH1 0x1 DUP4 PUSH1 0x20 SUB PUSH2 0x100 EXP SUB NOT AND DUP2 MSTORE PUSH1 0x20 ADD SWAP2 POP JUMPDEST POP SWAP5 POP POP POP POP POP PUSH1 0x40 MLOAD DUP1 SWAP2 SUB SWAP1 RETURN JUMPDEST CALLVALUE DUP1 ISZERO PUSH3 0x209 JUMPI PUSH1 0x0 DUP1 REVERT JUMPDEST POP PUSH3 0x11A PUSH1 0x4 DUP1 CALLDATASIZE SUB PUSH1 0x20 DUP2 LT ISZERO PUSH3 0x222 JUMPI PUSH1 0x0 DUP1 REVERT JUMPDEST POP CALLDATALOAD PUSH1 0x1 PUSH1 0xA0 PUSH1 0x2 EXP SUB AND PUSH3 0x676 JUMP JUMPDEST CALLVALUE DUP1 ISZERO PUSH3 0x240 JUMPI PUSH1 0x0 DUP1 REVERT JUMPDEST POP PUSH3 0x24B PUSH3 0x68E JUMP JUMPDEST PUSH1 0x40 DUP1 MLOAD PUSH1 0x1 PUSH1 0xA0 PUSH1 0x2 EXP SUB SWAP1 SWAP3 AND DUP3 MSTORE MLOAD SWAP1 DUP2 SWAP1 SUB PUSH1 0x20 ADD SWAP1 RETURN JUMPDEST CALLVALUE DUP1 ISZERO PUSH3 0x274 JUMPI PUSH1 0x0 DUP1 REVERT JUMPDEST POP PUSH3 0x11A PUSH1 0x4 DUP1 CALLDATASIZE SUB PUSH1 0x20 DUP2 LT ISZERO PUSH3 0x28D JUMPI PUSH1 0x0 DUP1 REVERT JUMPDEST POP CALLDATALOAD PUSH3 0x69E JUMP JUMPDEST CALLVALUE DUP1 ISZERO PUSH3 0x2A2 JUMPI PUSH1 0x0 DUP1 REVERT JUMPDEST POP PUSH3 0x24B PUSH3 0x6BB JUMP JUMPDEST CALLVALUE DUP1 ISZERO PUSH3 0x2BA JUMPI PUSH1 0x0 DUP1 REVERT JUMPDEST POP PUSH3 0x24B PUSH3 0x751 JUMP JUMPDEST CALLVALUE DUP1 ISZERO PUSH3 0x2D2 JUMPI PUSH1 0x0 DUP1 REVERT JUMPDEST POP PUSH3 0x11A PUSH3 0x760 JUMP JUMPDEST PUSH3 0x3A8 PUSH1 0x4 DUP1 CALLDATASIZE SUB PUSH1 0x40 DUP2 LT ISZERO PUSH3 0x2F5 JUMPI PUSH1 0x0 DUP1 REVERT JUMPDEST DUP2 ADD SWAP1 PUSH1 0x20 DUP2 ADD DUP2 CALLDATALOAD PUSH5 0x100000000 DUP2 GT ISZERO PUSH3 0x311 JUMPI PUSH1 0x0 DUP1 REVERT JUMPDEST DUP3 ADD DUP4 PUSH1 0x20 DUP3 ADD GT ISZERO PUSH3 0x324 JUMPI PUSH1 0x0 DUP1 REVERT JUMPDEST DUP1 CALLDATALOAD SWAP1 PUSH1 0x20 ADD SWAP2 DUP5 PUSH1 0x1 DUP4 MUL DUP5 ADD GT PUSH5 0x100000000 DUP4 GT OR ISZERO PUSH3 0x347 JUMPI PUSH1 0x0 DUP1 REVERT JUMPDEST SWAP2 SWAP4 SWAP1 SWAP3 SWAP1 SWAP2 PUSH1 0x20 DUP2 ADD SWAP1 CALLDATALOAD PUSH5 0x100000000 DUP2 GT ISZERO PUSH3 0x366 JUMPI PUSH1 0x0 DUP1 REVERT JUMPDEST DUP3 ADD DUP4 PUSH1 0x20 DUP3 ADD GT ISZERO PUSH3 0x379 JUMPI PUSH1 0x0 DUP1 REVERT JUMPDEST DUP1 CALLDATALOAD SWAP1 PUSH1 0x20 ADD SWAP2 DUP5 PUSH1 0x1 DUP4 MUL DUP5 ADD GT PUSH5 0x100000000 DUP4 GT OR ISZERO PUSH3 0x39C JUMPI PUSH1 0x0 DUP1 REVERT JUMPDEST POP SWAP1 SWAP3 POP SWAP1 POP PUSH3 0x7B6 JUMP JUMPDEST PUSH1 0x40 DUP1 MLOAD SWAP2 ISZERO ISZERO DUP3 MSTORE MLOAD SWAP1 DUP2 SWAP1 SUB PUSH1 0x20 ADD SWAP1 RETURN JUMPDEST CALLVALUE DUP1 ISZERO PUSH3 0x3C9 JUMPI PUSH1 0x0 DUP1 REVERT JUMPDEST POP PUSH3 0x11A PUSH1 0x4 DUP1 CALLDATASIZE SUB PUSH1 0x20 DUP2 LT ISZERO PUSH3 0x3E2 JUMPI PUSH1 0x0 DUP1 REVERT JUMPDEST POP CALLDATALOAD PUSH1 0x1 PUSH1 0xA0 PUSH1 0x2 EXP SUB AND PUSH3 0xA97 JUMP JUMPDEST CALLVALUE DUP1 ISZERO PUSH3 0x400 JUMPI PUSH1 0x0 DUP1 REVERT JUMPDEST POP PUSH3 0x42A PUSH1 0x4 DUP1 CALLDATASIZE SUB PUSH1 0x20 DUP2 LT ISZERO PUSH3 0x419 JUMPI PUSH1 0x0 DUP1 REVERT JUMPDEST POP CALLDATALOAD PUSH1 0x1 PUSH1 0xA0 PUSH1 0x2 EXP SUB AND PUSH3 0xADE JUMP JUMPDEST PUSH1 0x40 DUP1 MLOAD PUSH1 0x20 DUP1 DUP3 MSTORE DUP4 MLOAD DUP2 DUP4 ADD MSTORE DUP4 MLOAD SWAP2 SWAP3 DUP4 SWAP3 SWAP1 DUP4 ADD SWAP2 DUP6 DUP2 ADD SWAP2 MUL DUP1 DUP4 DUP4 PUSH1 0x0 JUMPDEST DUP4 DUP2 LT ISZERO PUSH3 0x468 JUMPI DUP2 DUP2 ADD MLOAD DUP4 DUP3 ADD MSTORE PUSH1 0x20 ADD PUSH3 0x44E JUMP JUMPDEST POP POP POP POP SWAP1 POP ADD SWAP3 POP POP POP PUSH1 0x40 MLOAD DUP1 SWAP2 SUB SWAP1 RETURN JUMPDEST CALLVALUE DUP1 ISZERO PUSH3 0x489 JUMPI PUSH1 0x0 DUP1 REVERT JUMPDEST POP PUSH3 0x11A PUSH1 0x4 DUP1 CALLDATASIZE SUB PUSH1 0x40 DUP2 LT ISZERO PUSH3 0x4A2 JUMPI PUSH1 0x0 DUP1 REVERT JUMPDEST POP PUSH1 0x1 PUSH1 0xA0 PUSH1 0x2 EXP SUB DUP2 CALLDATALOAD DUP2 AND SWAP2 PUSH1 0x20 ADD CALLDATALOAD AND PUSH3 0xB56 JUMP JUMPDEST CALLVALUE DUP1 ISZERO PUSH3 0x4C8 JUMPI PUSH1 0x0 DUP1 REVERT JUMPDEST POP PUSH3 0x4D3 PUSH3 0xBF1 JUMP JUMPDEST PUSH1 0x40 DUP1 MLOAD PUSH1 0x20 DUP1 DUP3 MSTORE DUP4 MLOAD DUP2 DUP4 ADD MSTORE DUP4 MLOAD SWAP2 SWAP3 DUP4 SWAP3 SWAP1 DUP4 ADD SWAP2 DUP6 ADD SWAP1 DUP1 DUP4 DUP4 PUSH1 0x0 JUMPDEST DUP4 DUP2 LT ISZERO PUSH3 0x50F JUMPI DUP2 DUP2 ADD MLOAD DUP4 DUP3 ADD MSTORE PUSH1 0x20 ADD PUSH3 0x4F5 JUMP JUMPDEST POP POP POP POP SWAP1 POP SWAP1 DUP2 ADD SWAP1 PUSH1 0x1F AND DUP1 ISZERO PUSH3 0x53D JUMPI DUP1 DUP3 SUB DUP1 MLOAD PUSH1 0x1 DUP4 PUSH1 0x20 SUB PUSH2 0x100 EXP SUB NOT AND DUP2 MSTORE PUSH1 0x20 ADD SWAP2 POP JUMPDEST POP SWAP3 POP POP POP PUSH1 0x40 MLOAD DUP1 SWAP2 SUB SWAP1 RETURN JUMPDEST PUSH1 0x0 SLOAD PUSH1 0x1 PUSH1 0xA0 PUSH1 0x2 EXP SUB AND CALLER EQ PUSH3 0x563 JUMPI PUSH1 0x0 DUP1 REVERT JUMPDEST PUSH1 0x1 PUSH1 0xA0 PUSH1 0x2 EXP SUB DUP2 AND ISZERO ISZERO PUSH3 0x579 JUMPI PUSH1 0x0 DUP1 REVERT JUMPDEST PUSH1 0x0 DUP1 SLOAD PUSH20 0xFFFFFFFFFFFFFFFFFFFFFFFFFFFFFFFFFFFFFFFF NOT AND PUSH1 0x1 PUSH1 0xA0 PUSH1 0x2 EXP SUB DUP4 DUP2 AND SWAP2 DUP3 OR DUP1 DUP5 SSTORE PUSH1 0x40 MLOAD SWAP3 SWAP4 SWAP2 AND SWAP2 PUSH32 0x70AEA8D848E8A90FB7661B227DC522EB6395C3DAC71B63CB59EDD5C9899B2364 SWAP2 SWAP1 LOG3 POP JUMP JUMPDEST PUSH1 0x0 SLOAD PUSH1 0x1 PUSH1 0xA0 PUSH1 0x2 EXP SUB AND CALLER EQ PUSH3 0x5EC JUMPI PUSH1 0x0 DUP1 REVERT JUMPDEST PUSH1 0x8 DUP1 SLOAD PUSH20 0xFFFFFFFFFFFFFFFFFFFFFFFFFFFFFFFFFFFFFFFF NOT AND PUSH1 0x1 PUSH1 0xA0 PUSH1 0x2 EXP SUB SWAP3 SWAP1 SWAP3 AND SWAP2 SWAP1 SWAP2 OR SWAP1 SSTORE JUMP JUMPDEST PUSH1 0x8 DUP1 SLOAD PUSH1 0x40 DUP1 MLOAD DUP1 DUP3 ADD SWAP1 SWAP2 MSTORE SWAP2 DUP3 MSTORE PUSH32 0x564620302E352E32000000000000000000000000000000000000000000000000 PUSH1 0x20 DUP4 ADD MSTORE PUSH1 0x1 PUSH1 0xA0 PUSH1 0x2 EXP SUB AND SWAP1 PUSH1 0x0 DUP3 DUP3 PUSH3 0x66A PUSH3 0xC28 JUMP JUMPDEST SWAP2 SWAP5 POP SWAP3 POP SWAP1 POP SWAP1 SWAP2 SWAP3 JUMP JUMPDEST PUSH1 0x8 SLOAD PUSH1 0x1 PUSH1 0xA0 PUSH1 0x2 EXP SUB AND CALLER EQ PUSH3 0x5EC JUMPI PUSH1 0x0 DUP1 REVERT JUMPDEST PUSH1 0x7 SLOAD PUSH1 0x1 PUSH1 0xA0 PUSH1 0x2 EXP SUB AND JUMPDEST SWAP1 JUMP JUMPDEST PUSH1 0x0 SLOAD PUSH1 0x1 PUSH1 0xA0 PUSH1 0x2 EXP SUB AND CALLER EQ PUSH3 0x6B6 JUMPI PUSH1 0x0 DUP1 REVERT JUMPDEST PUSH1 0x6 SSTORE JUMP JUMPDEST PUSH1 0x9 SLOAD PUSH1 0x40 DUP1 MLOAD PUSH32 0x88F47EE00000000000000000000000000000000000000000000000000000000 DUP2 MSTORE SWAP1 MLOAD PUSH1 0x0 SWAP3 PUSH1 0x1 PUSH1 0xA0 PUSH1 0x2 EXP SUB AND SWAP2 DUP3 SWAP2 PUSH4 0x88F47EE SWAP2 PUSH1 0x4 DUP1 DUP3 ADD SWAP3 PUSH1 0x20 SWAP3 SWAP1 SWAP2 SWAP1 DUP3 SWAP1 SUB ADD DUP2 DUP7 DUP1 EXTCODESIZE ISZERO DUP1 ISZERO PUSH3 0x71D JUMPI PUSH1 0x0 DUP1 REVERT JUMPDEST POP GAS STATICCALL ISZERO DUP1 ISZERO PUSH3 0x732 JUMPI RETURNDATASIZE PUSH1 0x0 DUP1 RETURNDATACOPY RETURNDATASIZE PUSH1 0x0 REVERT JUMPDEST POP POP POP POP PUSH1 0x40 MLOAD RETURNDATASIZE PUSH1 0x20 DUP2 LT ISZERO PUSH3 0x749 JUMPI PUSH1 0x0 DUP1 REVERT JUMPDEST POP MLOAD SWAP2 POP POP SWAP1 JUMP JUMPDEST PUSH1 0x0 SLOAD PUSH1 0x1 PUSH1 0xA0 PUSH1 0x2 EXP SUB AND DUP2 JUMP JUMPDEST PUSH1 0x0 SLOAD PUSH1 0x1 PUSH1 0xA0 PUSH1 0x2 EXP SUB AND CALLER EQ PUSH3 0x778 JUMPI PUSH1 0x0 DUP1 REVERT JUMPDEST PUSH1 0x8 SLOAD PUSH1 0x40 MLOAD PUSH1 0x1 PUSH1 0xA0 PUSH1 0x2 EXP SUB SWAP1 SWAP2 AND SWAP1 ADDRESS BALANCE DUP1 ISZERO PUSH2 0x8FC MUL SWAP2 PUSH1 0x0 DUP2 DUP2 DUP2 DUP6 DUP9 DUP9 CALL SWAP4 POP POP POP POP ISZERO DUP1 ISZERO PUSH3 0x7B3 JUMPI RETURNDATASIZE PUSH1 0x0 DUP1 RETURNDATACOPY RETURNDATASIZE PUSH1 0x0 REVERT JUMPDEST POP JUMP JUMPDEST PUSH1 0x6 SLOAD PUSH1 0x0 SWAP1 CALLVALUE LT ISZERO PUSH3 0x7C9 JUMPI PUSH1 0x0 DUP1 REVERT JUMPDEST PUSH1 0x7 SLOAD PUSH1 0x40 DUP1 MLOAD PUSH32 0xCED72F8700000000000000000000000000000000000000000000000000000000 DUP2 MSTORE SWAP1 MLOAD PUSH1 0x1 PUSH1 0xA0 PUSH1 0x2 EXP SUB SWAP1 SWAP3 AND SWAP2 PUSH1 0x0 SWAP2 DUP4 SWAP2 PUSH4 0xCED72F87 SWAP2 PUSH1 0x4 DUP1 DUP3 ADD SWAP3 PUSH1 0x20 SWAP3 SWAP1 SWAP2 SWAP1 DUP3 SWAP1 SUB ADD DUP2 DUP7 DUP1 EXTCODESIZE ISZERO DUP1 ISZERO PUSH3 0x82D JUMPI PUSH1 0x0 DUP1 REVERT JUMPDEST POP GAS STATICCALL ISZERO DUP1 ISZERO PUSH3 0x842 JUMPI RETURNDATASIZE PUSH1 0x0 DUP1 RETURNDATACOPY RETURNDATASIZE PUSH1 0x0 REVERT JUMPDEST POP POP POP POP PUSH1 0x40 MLOAD RETURNDATASIZE PUSH1 0x20 DUP2 LT ISZERO PUSH3 0x859 JUMPI PUSH1 0x0 DUP1 REVERT JUMPDEST POP MLOAD PUSH1 0x40 DUP1 MLOAD PUSH32 0xCD6F4E0D00000000000000000000000000000000000000000000000000000000 DUP2 MSTORE SWAP1 MLOAD SWAP2 SWAP3 POP PUSH1 0x0 SWAP2 PUSH1 0x1 PUSH1 0xA0 PUSH1 0x2 EXP SUB DUP6 AND SWAP2 PUSH4 0xCD6F4E0D SWAP2 PUSH1 0x4 DUP1 DUP4 ADD SWAP3 PUSH1 0x20 SWAP3 SWAP2 SWAP1 DUP3 SWAP1 SUB ADD DUP2 DUP7 DUP1 EXTCODESIZE ISZERO DUP1 ISZERO PUSH3 0x8BB JUMPI PUSH1 0x0 DUP1 REVERT JUMPDEST POP GAS STATICCALL ISZERO DUP1 ISZERO PUSH3 0x8D0 JUMPI RETURNDATASIZE PUSH1 0x0 DUP1 RETURNDATACOPY RETURNDATASIZE PUSH1 0x0 REVERT JUMPDEST POP POP POP POP PUSH1 0x40 MLOAD RETURNDATASIZE PUSH1 0x20 DUP2 LT ISZERO PUSH3 0x8E7 JUMPI PUSH1 0x0 DUP1 REVERT JUMPDEST POP MLOAD PUSH1 0x40 DUP1 MLOAD PUSH1 0x20 PUSH1 0x1F DUP12 ADD DUP2 SWAP1 DIV DUP2 MUL DUP3 ADD DUP2 ADD SWAP1 SWAP3 MSTORE DUP10 DUP2 MSTORE SWAP2 SWAP3 POP PUSH3 0x964 SWAP2 SWAP1 DUP11 SWAP1 DUP11 SWAP1 DUP2 SWAP1 DUP5 ADD DUP4 DUP3 DUP1 DUP3 DUP5 CALLDATACOPY PUSH1 0x0 SWAP3 ADD SWAP2 SWAP1 SWAP2 MSTORE POP POP PUSH1 0x40 DUP1 MLOAD PUSH1 0x20 PUSH1 0x1F DUP13 ADD DUP2 SWAP1 DIV DUP2 MUL DUP3 ADD DUP2 ADD SWAP1 SWAP3 MSTORE DUP11 DUP2 MSTORE SWAP3 POP DUP11 SWAP2 POP DUP10 SWAP1 DUP2 SWAP1 DUP5 ADD DUP4 DUP3 DUP1 DUP3 DUP5 CALLDATACOPY PUSH1 0x0 SWAP3 ADD SWAP2 SWAP1 SWAP2 MSTORE POP CALLER SWAP3 POP DUP7 SWAP2 POP PUSH3 0xC8A SWAP1 POP JUMP JUMPDEST ISZERO ISZERO PUSH3 0x970 JUMPI PUSH1 0x0 DUP1 REVERT JUMPDEST PUSH1 0x5 SLOAD PUSH1 0x40 MLOAD PUSH32 0x3FA7D3E300000000000000000000000000000000000000000000000000000000 DUP2 MSTORE PUSH1 0x1 PUSH1 0xA0 PUSH1 0x2 EXP SUB SWAP2 DUP3 AND PUSH1 0x4 DUP3 ADD DUP2 DUP2 MSTORE PUSH1 0x64 DUP4 ADD DUP6 SWAP1 MSTORE CALLER PUSH1 0x84 DUP5 ADD DUP2 SWAP1 MSTORE PUSH1 0xA0 PUSH1 0x24 DUP6 ADD SWAP1 DUP2 MSTORE PUSH1 0xA4 DUP6 ADD DUP14 SWAP1 MSTORE SWAP5 DUP9 AND SWAP5 PUSH4 0x3FA7D3E3 SWAP5 DUP9 SWAP5 SWAP4 DUP16 SWAP4 DUP16 SWAP4 DUP16 SWAP4 DUP16 SWAP4 DUP13 SWAP4 SWAP3 SWAP1 SWAP2 PUSH1 0x44 DUP2 ADD SWAP1 PUSH1 0xC4 ADD DUP10 DUP10 DUP1 DUP3 DUP5 CALLDATACOPY PUSH1 0x0 DUP4 DUP3 ADD MSTORE PUSH1 0x1F ADD PUSH1 0x1F NOT AND SWAP1 SWAP2 ADD DUP5 DUP2 SUB DUP4 MSTORE DUP8 DUP2 MSTORE PUSH1 0x20 ADD SWAP1 POP DUP8 DUP8 DUP1 DUP3 DUP5 CALLDATACOPY PUSH1 0x0 DUP2 DUP5 ADD MSTORE PUSH1 0x1F NOT PUSH1 0x1F DUP3 ADD AND SWAP1 POP DUP1 DUP4 ADD SWAP3 POP POP POP SWAP10 POP POP POP POP POP POP POP POP POP POP PUSH1 0x20 PUSH1 0x40 MLOAD DUP1 DUP4 SUB DUP2 DUP6 DUP9 DUP1 EXTCODESIZE ISZERO DUP1 ISZERO PUSH3 0xA51 JUMPI PUSH1 0x0 DUP1 REVERT JUMPDEST POP GAS CALL ISZERO DUP1 ISZERO PUSH3 0xA66 JUMPI RETURNDATASIZE PUSH1 0x0 DUP1 RETURNDATACOPY RETURNDATASIZE PUSH1 0x0 REVERT JUMPDEST POP POP POP POP POP PUSH1 0x40 MLOAD RETURNDATASIZE PUSH1 0x20 DUP2 LT ISZERO PUSH3 0xA7E JUMPI PUSH1 0x0 DUP1 REVERT JUMPDEST POP MLOAD ISZERO ISZERO PUSH3 0xA89 JUMPI INVALID JUMPDEST POP PUSH1 0x1 SWAP8 SWAP7 POP POP POP POP POP POP POP JUMP JUMPDEST PUSH1 0x0 SLOAD PUSH1 0x1 PUSH1 0xA0 PUSH1 0x2 EXP SUB AND CALLER EQ PUSH3 0xAAF JUMPI PUSH1 0x0 DUP1 REVERT JUMPDEST PUSH1 0x7 DUP1 SLOAD PUSH20 0xFFFFFFFFFFFFFFFFFFFFFFFFFFFFFFFFFFFFFFFF NOT AND PUSH1 0x1 PUSH1 0xA0 PUSH1 0x2 EXP SUB SWAP3 SWAP1 SWAP3 AND SWAP2 SWAP1 SWAP2 OR SWAP1 SSTORE JUMP JUMPDEST PUSH1 0x1 PUSH1 0xA0 PUSH1 0x2 EXP SUB DUP2 AND PUSH1 0x0 SWAP1 DUP2 MSTORE PUSH1 0xA PUSH1 0x20 SWAP1 DUP2 MSTORE PUSH1 0x40 SWAP2 DUP3 SWAP1 KECCAK256 DUP1 SLOAD DUP4 MLOAD DUP2 DUP5 MUL DUP2 ADD DUP5 ADD SWAP1 SWAP5 MSTORE DUP1 DUP5 MSTORE PUSH1 0x60 SWAP4 SWAP3 DUP4 ADD DUP3 DUP3 DUP1 ISZERO PUSH3 0xB4A JUMPI PUSH1 0x20 MUL DUP3 ADD SWAP2 SWAP1 PUSH1 0x0 MSTORE PUSH1 0x20 PUSH1 0x0 KECCAK256 SWAP1 JUMPDEST DUP2 SLOAD PUSH1 0x1 PUSH1 0xA0 PUSH1 0x2 EXP SUB AND DUP2 MSTORE PUSH1 0x1 SWAP1 SWAP2 ADD SWAP1 PUSH1 0x20 ADD DUP1 DUP4 GT PUSH3 0xB2B JUMPI JUMPDEST POP POP POP POP POP SWAP1 POP SWAP2 SWAP1 POP JUMP JUMPDEST PUSH1 0x0 SLOAD PUSH1 0x1 PUSH1 0xA0 PUSH1 0x2 EXP SUB AND CALLER EQ PUSH3 0xB6E JUMPI PUSH1 0x0 DUP1 REVERT JUMPDEST PUSH1 0x40 DUP1 MLOAD PUSH32 0x5082520700000000000000000000000000000000000000000000000000000000 DUP2 MSTORE PUSH1 0x1 PUSH1 0xA0 PUSH1 0x2 EXP SUB DUP4 DUP2 AND PUSH1 0x4 DUP4 ADD MSTORE SWAP2 MLOAD DUP5 SWAP3 DUP4 AND SWAP2 PUSH4 0x50825207 SWAP2 PUSH1 0x24 DUP1 DUP4 ADD SWAP3 PUSH1 0x0 SWAP3 SWAP2 SWAP1 DUP3 SWAP1 SUB ADD DUP2 DUP4 DUP8 DUP1 EXTCODESIZE ISZERO DUP1 ISZERO PUSH3 0xBD3 JUMPI PUSH1 0x0 DUP1 REVERT JUMPDEST POP GAS CALL ISZERO DUP1 ISZERO PUSH3 0xBE8 JUMPI RETURNDATASIZE PUSH1 0x0 DUP1 RETURNDATACOPY RETURNDATASIZE PUSH1 0x0 REVERT JUMPDEST POP POP POP POP POP POP POP JUMP JUMPDEST PUSH1 0x40 DUP1 MLOAD DUP1 DUP3 ADD SWAP1 SWAP2 MSTORE PUSH1 0x8 DUP2 MSTORE PUSH32 0x564620302E352E32000000000000000000000000000000000000000000000000 PUSH1 0x20 DUP3 ADD MSTORE DUP2 JUMP JUMPDEST PUSH1 0x7 SLOAD PUSH1 0x40 DUP1 MLOAD PUSH32 0xCD6F4E0D00000000000000000000000000000000000000000000000000000000 DUP2 MSTORE SWAP1 MLOAD PUSH1 0x0 SWAP3 PUSH1 0x1 PUSH1 0xA0 PUSH1 0x2 EXP SUB AND SWAP2 DUP3 SWAP2 PUSH4 0xCD6F4E0D SWAP2 PUSH1 0x4 DUP1 DUP3 ADD SWAP3 PUSH1 0x20 SWAP3 SWAP1 SWAP2 SWAP1 DUP3 SWAP1 SUB ADD DUP2 DUP7 DUP1 EXTCODESIZE ISZERO DUP1 ISZERO PUSH3 0x71D JUMPI PUSH1 0x0 DUP1 REVERT JUMPDEST PUSH1 0x9 SLOAD PUSH1 0x0 SWAP1 PUSH1 0x1 PUSH1 0xA0 PUSH1 0x2 EXP SUB AND PUSH3 0xCAA PUSH1 0x1 DUP8 DUP8 DUP8 DUP8 DUP7 PUSH3 0x115B JUMP JUMPDEST ISZERO ISZERO PUSH3 0xCB6 JUMPI PUSH1 0x0 DUP1 REVERT JUMPDEST PUSH1 0x1 PUSH1 0xA0 PUSH1 0x2 EXP SUB DUP1 DUP6 AND PUSH1 0x0 SWAP1 DUP2 MSTORE PUSH1 0xA PUSH1 0x20 SWAP1 DUP2 MSTORE PUSH1 0x40 DUP1 DUP4 KECCAK256 PUSH1 0x5 SLOAD DUP2 SLOAD PUSH1 0x1 DUP2 ADD DUP4 SSTORE SWAP2 DUP6 MSTORE DUP4 DUP6 KECCAK256 SWAP1 SWAP2 ADD DUP1 SLOAD PUSH20 0xFFFFFFFFFFFFFFFFFFFFFFFFFFFFFFFFFFFFFFFF NOT AND SWAP2 DUP7 AND SWAP2 SWAP1 SWAP2 OR SWAP1 SSTORE DUP1 MLOAD PUSH32 0x88F47EE00000000000000000000000000000000000000000000000000000000 DUP2 MSTORE SWAP1 MLOAD SWAP3 SWAP4 DUP6 AND SWAP3 PUSH4 0x88F47EE SWAP3 PUSH1 0x4 DUP4 DUP2 ADD SWAP4 SWAP2 SWAP3 SWAP2 DUP3 SWAP1 SUB ADD DUP2 DUP7 DUP1 EXTCODESIZE ISZERO DUP1 ISZERO PUSH3 0xD58 JUMPI PUSH1 0x0 DUP1 REVERT JUMPDEST POP GAS STATICCALL ISZERO DUP1 ISZERO PUSH3 0xD6D JUMPI RETURNDATASIZE PUSH1 0x0 DUP1 RETURNDATACOPY RETURNDATASIZE PUSH1 0x0 REVERT JUMPDEST POP POP POP POP PUSH1 0x40 MLOAD RETURNDATASIZE PUSH1 0x20 DUP2 LT ISZERO PUSH3 0xD84 JUMPI PUSH1 0x0 DUP1 REVERT JUMPDEST POP MLOAD PUSH1 0x5 SLOAD PUSH1 0x40 MLOAD PUSH32 0x616574900000000000000000000000000000000000000000000000000000000 DUP2 MSTORE PUSH1 0x1 PUSH1 0xA0 PUSH1 0x2 EXP SUB DUP9 DUP2 AND PUSH1 0x4 DUP4 ADD SWAP1 DUP2 MSTORE SWAP3 DUP2 AND PUSH1 0x24 DUP4 ADD DUP2 SWAP1 MSTORE PUSH1 0x84 DUP4 ADD DUP10 SWAP1 MSTORE PUSH1 0xA0 PUSH1 0x44 DUP5 ADD SWAP1 DUP2 MSTORE DUP13 MLOAD PUSH1 0xA4 DUP6 ADD MSTORE DUP13 MLOAD SWAP6 SWAP7 POP SWAP2 DUP7 AND SWAP5 PUSH4 0x6165749 SWAP5 DUP12 SWAP5 SWAP3 SWAP4 DUP15 SWAP4 DUP15 SWAP4 DUP14 SWAP4 SWAP3 SWAP2 PUSH1 0x64 DUP2 ADD SWAP2 PUSH1 0xC4 SWAP1 SWAP2 ADD SWAP1 PUSH1 0x20 DUP9 ADD SWAP1 DUP1 DUP4 DUP4 PUSH1 0x0 JUMPDEST DUP4 DUP2 LT ISZERO PUSH3 0xE2D JUMPI DUP2 DUP2 ADD MLOAD DUP4 DUP3 ADD MSTORE PUSH1 0x20 ADD PUSH3 0xE13 JUMP JUMPDEST POP POP POP POP SWAP1 POP SWAP1 DUP2 ADD SWAP1 PUSH1 0x1F AND DUP1 ISZERO PUSH3 0xE5B JUMPI DUP1 DUP3 SUB DUP1 MLOAD PUSH1 0x1 DUP4 PUSH1 0x20 SUB PUSH2 0x100 EXP SUB NOT AND DUP2 MSTORE PUSH1 0x20 ADD SWAP2 POP JUMPDEST POP DUP4 DUP2 SUB DUP3 MSTORE DUP6 MLOAD DUP2 MSTORE DUP6 MLOAD PUSH1 0x20 SWAP2 DUP3 ADD SWAP2 DUP8 ADD SWAP1 DUP1 DUP4 DUP4 PUSH1 0x0 JUMPDEST DUP4 DUP2 LT ISZERO PUSH3 0xE90 JUMPI DUP2 DUP2 ADD MLOAD DUP4 DUP3 ADD MSTORE PUSH1 0x20 ADD PUSH3 0xE76 JUMP JUMPDEST POP POP POP POP SWAP1 POP SWAP1 DUP2 ADD SWAP1 PUSH1 0x1F AND DUP1 ISZERO PUSH3 0xEBE JUMPI DUP1 DUP3 SUB DUP1 MLOAD PUSH1 0x1 DUP4 PUSH1 0x20 SUB PUSH2 0x100 EXP SUB NOT AND DUP2 MSTORE PUSH1 0x20 ADD SWAP2 POP JUMPDEST POP SWAP8 POP POP POP POP POP POP POP POP PUSH1 0x20 PUSH1 0x40 MLOAD DUP1 DUP4 SUB DUP2 PUSH1 0x0 DUP8 DUP1 EXTCODESIZE ISZERO DUP1 ISZERO PUSH3 0xEE3 JUMPI PUSH1 0x0 DUP1 REVERT JUMPDEST POP GAS CALL ISZERO DUP1 ISZERO PUSH3 0xEF8 JUMPI RETURNDATASIZE PUSH1 0x0 DUP1 RETURNDATACOPY RETURNDATASIZE PUSH1 0x0 REVERT JUMPDEST POP POP POP POP PUSH1 0x40 MLOAD RETURNDATASIZE PUSH1 0x20 DUP2 LT ISZERO PUSH3 0xF0F JUMPI PUSH1 0x0 DUP1 REVERT JUMPDEST POP MLOAD ISZERO ISZERO PUSH3 0xF1D JUMPI PUSH1 0x0 DUP1 REVERT JUMPDEST PUSH1 0x5 SLOAD PUSH1 0x40 DUP1 MLOAD PUSH32 0xE6E66C6800000000000000000000000000000000000000000000000000000000 DUP2 MSTORE PUSH1 0x1 PUSH1 0xA0 PUSH1 0x2 EXP SUB SWAP3 DUP4 AND PUSH1 0x4 DUP3 ADD MSTORE PUSH1 0x1 PUSH1 0x24 DUP3 ADD MSTORE SWAP1 MLOAD SWAP2 DUP5 AND SWAP2 PUSH4 0xE6E66C68 SWAP2 PUSH1 0x44 DUP1 DUP3 ADD SWAP3 PUSH1 0x0 SWAP3 SWAP1 SWAP2 SWAP1 DUP3 SWAP1 SUB ADD DUP2 DUP4 DUP8 DUP1 EXTCODESIZE ISZERO DUP1 ISZERO PUSH3 0xF8C JUMPI PUSH1 0x0 DUP1 REVERT JUMPDEST POP GAS CALL ISZERO DUP1 ISZERO PUSH3 0xFA1 JUMPI RETURNDATASIZE PUSH1 0x0 DUP1 RETURNDATACOPY RETURNDATASIZE PUSH1 0x0 REVERT JUMPDEST POP POP PUSH1 0x40 DUP1 MLOAD PUSH32 0xA0CA3EE100000000000000000000000000000000000000000000000000000000 DUP2 MSTORE PUSH1 0x1 PUSH1 0xA0 PUSH1 0x2 EXP SUB DUP10 DUP2 AND PUSH1 0x4 DUP4 ADD MSTORE PUSH1 0x1 PUSH1 0x24 DUP4 ADD MSTORE SWAP2 MLOAD SWAP2 DUP7 AND SWAP4 POP PUSH4 0xA0CA3EE1 SWAP3 POP PUSH1 0x44 DUP1 DUP3 ADD SWAP3 PUSH1 0x0 SWAP3 SWAP1 SWAP2 SWAP1 DUP3 SWAP1 SUB ADD DUP2 DUP4 DUP8 DUP1 EXTCODESIZE ISZERO DUP1 ISZERO PUSH3 0x1011 JUMPI PUSH1 0x0 DUP1 REVERT JUMPDEST POP GAS CALL ISZERO DUP1 ISZERO PUSH3 0x1026 JUMPI RETURNDATASIZE PUSH1 0x0 DUP1 RETURNDATACOPY RETURNDATASIZE PUSH1 0x0 REVERT JUMPDEST POP POP PUSH1 0x5 SLOAD PUSH1 0x40 DUP1 MLOAD SWAP1 DUP2 ADD DUP9 SWAP1 MSTORE PUSH1 0x60 DUP1 DUP3 MSTORE DUP12 MLOAD SWAP1 DUP3 ADD MSTORE DUP11 MLOAD PUSH1 0x1 PUSH1 0xA0 PUSH1 0x2 EXP SUB DUP11 DUP2 AND SWAP6 POP SWAP1 SWAP3 AND SWAP3 POP PUSH32 0xA4D67DC007D63BF037B4DDF55B81ABCAC4BAA236E678684CFA426913B6E75474 SWAP2 DUP12 SWAP2 DUP12 SWAP2 DUP11 SWAP2 SWAP1 DUP2 SWAP1 PUSH1 0x20 DUP1 DUP4 ADD SWAP2 PUSH1 0x80 DUP5 ADD SWAP2 DUP9 ADD SWAP1 DUP1 DUP4 DUP4 PUSH1 0x0 JUMPDEST DUP4 DUP2 LT ISZERO PUSH3 0x10AD JUMPI DUP2 DUP2 ADD MLOAD DUP4 DUP3 ADD MSTORE PUSH1 0x20 ADD PUSH3 0x1093 JUMP JUMPDEST POP POP POP POP SWAP1 POP SWAP1 DUP2 ADD SWAP1 PUSH1 0x1F AND DUP1 ISZERO PUSH3 0x10DB JUMPI DUP1 DUP3 SUB DUP1 MLOAD PUSH1 0x1 DUP4 PUSH1 0x20 SUB PUSH2 0x100 EXP SUB NOT AND DUP2 MSTORE PUSH1 0x20 ADD SWAP2 POP JUMPDEST POP DUP4 DUP2 SUB DUP3 MSTORE DUP6 MLOAD DUP2 MSTORE DUP6 MLOAD PUSH1 0x20 SWAP2 DUP3 ADD SWAP2 DUP8 ADD SWAP1 DUP1 DUP4 DUP4 PUSH1 0x0 JUMPDEST DUP4 DUP2 LT ISZERO PUSH3 0x1110 JUMPI DUP2 DUP2 ADD MLOAD DUP4 DUP3 ADD MSTORE PUSH1 0x20 ADD PUSH3 0x10F6 JUMP JUMPDEST POP POP POP POP SWAP1 POP SWAP1 DUP2 ADD SWAP1 PUSH1 0x1F AND DUP1 ISZERO PUSH3 0x113E JUMPI DUP1 DUP3 SUB DUP1 MLOAD PUSH1 0x1 DUP4 PUSH1 0x20 SUB PUSH2 0x100 EXP SUB NOT AND DUP2 MSTORE PUSH1 0x20 ADD SWAP2 POP JUMPDEST POP SWAP6 POP POP POP POP POP POP PUSH1 0x40 MLOAD DUP1 SWAP2 SUB SWAP1 LOG3 POP PUSH1 0x1 SWAP7 SWAP6 POP POP POP POP POP POP JUMP JUMPDEST DUP5 MLOAD PUSH1 0x0 SWAP1 DUP2 SWAP1 PUSH3 0x1174 SWAP1 DUP10 SWAP1 PUSH1 0x20 DUP11 ADD SWAP1 PUSH3 0x1346 JUMP JUMPDEST DUP7 MLOAD PUSH3 0x118B SWAP1 PUSH1 0x1 DUP12 ADD SWAP1 PUSH1 0x20 DUP11 ADD SWAP1 PUSH3 0x1346 JUMP JUMPDEST PUSH1 0x2 DUP11 ADD DUP7 SWAP1 SSTORE PUSH1 0x3 DUP11 ADD DUP1 SLOAD PUSH20 0xFFFFFFFFFFFFFFFFFFFFFFFFFFFFFFFFFFFFFFFF NOT AND PUSH1 0x1 PUSH1 0xA0 PUSH1 0x2 EXP SUB DUP10 AND OR SWAP1 SSTORE DUP6 DUP8 DUP7 PUSH3 0x11C9 PUSH3 0x13CB JUMP JUMPDEST PUSH1 0x40 DUP2 ADD DUP5 SWAP1 MSTORE PUSH1 0x1 PUSH1 0xA0 PUSH1 0x2 EXP SUB DUP1 DUP5 AND PUSH1 0x60 DUP4 ADD MSTORE DUP3 AND PUSH1 0x80 DUP3 ADD MSTORE PUSH1 0xA0 DUP1 DUP3 MSTORE DUP7 SLOAD PUSH1 0x2 PUSH1 0x0 NOT PUSH2 0x100 PUSH1 0x1 DUP5 AND ISZERO MUL ADD SWAP1 SWAP2 AND DIV SWAP1 DUP3 ADD DUP2 SWAP1 MSTORE DUP2 SWAP1 PUSH1 0x20 DUP3 ADD SWAP1 PUSH1 0xC0 DUP4 ADD SWAP1 DUP10 SWAP1 DUP1 ISZERO PUSH3 0x1266 JUMPI DUP1 PUSH1 0x1F LT PUSH3 0x123A JUMPI PUSH2 0x100 DUP1 DUP4 SLOAD DIV MUL DUP4 MSTORE SWAP2 PUSH1 0x20 ADD SWAP2 PUSH3 0x1266 JUMP JUMPDEST DUP3 ADD SWAP2 SWAP1 PUSH1 0x0 MSTORE PUSH1 0x20 PUSH1 0x0 KECCAK256 SWAP1 JUMPDEST DUP2 SLOAD DUP2 MSTORE SWAP1 PUSH1 0x1 ADD SWAP1 PUSH1 0x20 ADD DUP1 DUP4 GT PUSH3 0x1248 JUMPI DUP3 SWAP1 SUB PUSH1 0x1F AND DUP3 ADD SWAP2 JUMPDEST POP POP DUP4 DUP2 SUB DUP3 MSTORE DUP8 SLOAD PUSH1 0x2 PUSH1 0x0 NOT PUSH2 0x100 PUSH1 0x1 DUP5 AND ISZERO MUL ADD SWAP1 SWAP2 AND DIV DUP1 DUP3 MSTORE PUSH1 0x20 SWAP1 SWAP2 ADD SWAP1 DUP9 SWAP1 DUP1 ISZERO PUSH3 0x12DE JUMPI DUP1 PUSH1 0x1F LT PUSH3 0x12B2 JUMPI PUSH2 0x100 DUP1 DUP4 SLOAD DIV MUL DUP4 MSTORE SWAP2 PUSH1 0x20 ADD SWAP2 PUSH3 0x12DE JUMP JUMPDEST DUP3 ADD SWAP2 SWAP1 PUSH1 0x0 MSTORE PUSH1 0x20 PUSH1 0x0 KECCAK256 SWAP1 JUMPDEST DUP2 SLOAD DUP2 MSTORE SWAP1 PUSH1 0x1 ADD SWAP1 PUSH1 0x20 ADD DUP1 DUP4 GT PUSH3 0x12C0 JUMPI DUP3 SWAP1 SUB PUSH1 0x1F AND DUP3 ADD SWAP2 JUMPDEST POP POP SWAP8 POP POP POP POP POP POP POP POP PUSH1 0x40 MLOAD DUP1 SWAP2 SUB SWAP1 PUSH1 0x0 CREATE DUP1 ISZERO DUP1 ISZERO PUSH3 0x1306 JUMPI RETURNDATASIZE PUSH1 0x0 DUP1 RETURNDATACOPY RETURNDATASIZE PUSH1 0x0 REVERT JUMPDEST POP PUSH1 0x4 DUP10 ADD DUP1 SLOAD PUSH1 0x1 PUSH1 0xA0 PUSH1 0x2 EXP SUB SWAP1 SWAP3 AND PUSH20 0xFFFFFFFFFFFFFFFFFFFFFFFFFFFFFFFFFFFFFFFF NOT SWAP1 SWAP3 AND SWAP2 SWAP1 SWAP2 OR SWAP1 SSTORE POP PUSH1 0x1 SWAP1 POP SWAP7 SWAP6 POP POP POP POP POP POP JUMP JUMPDEST DUP3 DUP1 SLOAD PUSH1 0x1 DUP2 PUSH1 0x1 AND ISZERO PUSH2 0x100 MUL SUB AND PUSH1 0x2 SWAP1 DIV SWAP1 PUSH1 0x0 MSTORE PUSH1 0x20 PUSH1 0x0 KECCAK256 SWAP1 PUSH1 0x1F ADD PUSH1 0x20 SWAP1 DIV DUP2 ADD SWAP3 DUP3 PUSH1 0x1F LT PUSH3 0x1389 JUMPI DUP1 MLOAD PUSH1 0xFF NOT AND DUP4 DUP1 ADD OR DUP6 SSTORE PUSH3 0x13B9 JUMP JUMPDEST DUP3 DUP1 ADD PUSH1 0x1 ADD DUP6 SSTORE DUP3 ISZERO PUSH3 0x13B9 JUMPI SWAP2 DUP3 ADD JUMPDEST DUP3 DUP2 GT ISZERO PUSH3 0x13B9 JUMPI DUP3 MLOAD DUP3 SSTORE SWAP2 PUSH1 0x20 ADD SWAP2 SWAP1 PUSH1 0x1 ADD SWAP1 PUSH3 0x139C JUMP JUMPDEST POP PUSH3 0x13C7 SWAP3 SWAP2 POP PUSH3 0x13DC JUMP JUMPDEST POP SWAP1 JUMP JUMPDEST PUSH1 0x40 MLOAD PUSH2 0x23D2 DUP1 PUSH3 0x13FA DUP4 CODECOPY ADD SWAP1 JUMP JUMPDEST PUSH3 0x69B SWAP2 SWAP1 JUMPDEST DUP1 DUP3 GT ISZERO PUSH3 0x13C7 JUMPI PUSH1 0x0 DUP2 SSTORE PUSH1 0x1 ADD PUSH3 0x13E3 JUMP INVALID PUSH1 0x80 PUSH1 0x40 MSTORE PUSH1 0x0 DUP1 SLOAD PUSH1 0xA0 PUSH1 0x2 EXP PUSH1 0xFF MUL NOT AND SWAP1 SSTORE CALLVALUE DUP1 ISZERO PUSH3 0x21 JUMPI PUSH1 0x0 DUP1 REVERT JUMPDEST POP PUSH1 0x40 MLOAD PUSH3 0x23D2 CODESIZE SUB DUP1 PUSH3 0x23D2 DUP4 CODECOPY DUP2 ADD DUP1 PUSH1 0x40 MSTORE PUSH1 0xA0 DUP2 LT ISZERO PUSH3 0x47 JUMPI PUSH1 0x0 DUP1 REVERT JUMPDEST DUP2 ADD SWAP1 DUP1 DUP1 MLOAD PUSH5 0x100000000 DUP2 GT ISZERO PUSH3 0x60 JUMPI PUSH1 0x0 DUP1 REVERT JUMPDEST DUP3 ADD PUSH1 0x20 DUP2 ADD DUP5 DUP2 GT ISZERO PUSH3 0x74 JUMPI PUSH1 0x0 DUP1 REVERT JUMPDEST DUP2 MLOAD PUSH5 0x100000000 DUP2 GT DUP3 DUP3 ADD DUP8 LT OR ISZERO PUSH3 0x8F JUMPI PUSH1 0x0 DUP1 REVERT JUMPDEST POP POP SWAP3 SWAP2 SWAP1 PUSH1 0x20 ADD DUP1 MLOAD PUSH5 0x100000000 DUP2 GT ISZERO PUSH3 0xAC JUMPI PUSH1 0x0 DUP1 REVERT JUMPDEST DUP3 ADD PUSH1 0x20 DUP2 ADD DUP5 DUP2 GT ISZERO PUSH3 0xC0 JUMPI PUSH1 0x0 DUP1 REVERT JUMPDEST DUP2 MLOAD PUSH5 0x100000000 DUP2 GT DUP3 DUP3 ADD DUP8 LT OR ISZERO PUSH3 0xDB JUMPI PUSH1 0x0 DUP1 REVERT JUMPDEST POP POP PUSH1 0x20 DUP1 DUP4 ADD MLOAD PUSH1 0x40 DUP5 ADD MLOAD PUSH1 0x60 SWAP1 SWAP5 ADD MLOAD DUP8 MLOAD SWAP4 SWAP7 POP SWAP1 SWAP5 POP SWAP2 PUSH3 0x109 SWAP2 PUSH1 0x1 SWAP2 SWAP1 DUP9 ADD SWAP1 PUSH3 0x190 JUMP JUMPDEST POP DUP4 MLOAD PUSH3 0x11F SWAP1 PUSH1 0x2 SWAP1 PUSH1 0x20 DUP8 ADD SWAP1 PUSH3 0x190 JUMP JUMPDEST POP PUSH1 0x3 SWAP3 SWAP1 SWAP3 SSTORE PUSH8 0xDE0B6B3A7640000 PUSH1 0x5 SSTORE PUSH1 0x0 DUP1 SLOAD PUSH1 0x1 PUSH1 0xA0 PUSH1 0x2 EXP SUB SWAP3 DUP4 AND PUSH1 0x1 PUSH1 0xA0 PUSH1 0x2 EXP SUB NOT SWAP2 DUP3 AND DUP2 OR SWAP1 SWAP3 SSTORE PUSH1 0x8 DUP1 SLOAD SWAP5 SWAP1 SWAP4 AND SWAP4 DUP2 AND SWAP4 SWAP1 SWAP4 OR SWAP1 SWAP2 SSTORE PUSH1 0x9 DUP1 SLOAD DUP4 AND CALLER OR SWAP1 SSTORE PUSH7 0x38D7EA4C68000 PUSH1 0xB SSTORE PUSH1 0xA DUP1 SLOAD SWAP1 SWAP3 AND OR SWAP1 SSTORE POP POP PUSH1 0x50 PUSH1 0xC SSTORE PUSH3 0x235 JUMP JUMPDEST DUP3 DUP1 SLOAD PUSH1 0x1 DUP2 PUSH1 0x1 AND ISZERO PUSH2 0x100 MUL SUB AND PUSH1 0x2 SWAP1 DIV SWAP1 PUSH1 0x0 MSTORE PUSH1 0x20 PUSH1 0x0 KECCAK256 SWAP1 PUSH1 0x1F ADD PUSH1 0x20 SWAP1 DIV DUP2 ADD SWAP3 DUP3 PUSH1 0x1F LT PUSH3 0x1D3 JUMPI DUP1 MLOAD PUSH1 0xFF NOT AND DUP4 DUP1 ADD OR DUP6 SSTORE PUSH3 0x203 JUMP JUMPDEST DUP3 DUP1 ADD PUSH1 0x1 ADD DUP6 SSTORE DUP3 ISZERO PUSH3 0x203 JUMPI SWAP2 DUP3 ADD JUMPDEST DUP3 DUP2 GT ISZERO PUSH3 0x203 JUMPI DUP3 MLOAD DUP3 SSTORE SWAP2 PUSH1 0x20 ADD SWAP2 SWAP1 PUSH1 0x1 ADD SWAP1 PUSH3 0x1E6 JUMP JUMPDEST POP PUSH3 0x211 SWAP3 SWAP2 POP PUSH3 0x215 JUMP JUMPDEST POP SWAP1 JUMP JUMPDEST PUSH3 0x232 SWAP2 SWAP1 JUMPDEST DUP1 DUP3 GT ISZERO PUSH3 0x211 JUMPI PUSH1 0x0 DUP2 SSTORE PUSH1 0x1 ADD PUSH3 0x21C JUMP JUMPDEST SWAP1 JUMP JUMPDEST PUSH2 0x218D DUP1 PUSH3 0x245 PUSH1 0x0 CODECOPY PUSH1 0x0 RETURN INVALID PUSH1 0x80 PUSH1 0x40 MSTORE PUSH1 0x4 CALLDATASIZE LT PUSH2 0x148 JUMPI PUSH4 0xFFFFFFFF PUSH29 0x100000000000000000000000000000000000000000000000000000000 PUSH1 0x0 CALLDATALOAD DIV AND PUSH4 0x96A8AB7 DUP2 EQ PUSH2 0x14D JUMPI DUP1 PUSH4 0xD5F3F54 EQ PUSH2 0x179 JUMPI DUP1 PUSH4 0x13AF4035 EQ PUSH2 0x1CF JUMPI DUP1 PUSH4 0x18160DDD EQ PUSH2 0x202 JUMPI DUP1 PUSH4 0x19589B88 EQ PUSH2 0x229 JUMPI DUP1 PUSH4 0x1BEA8006 EQ PUSH2 0x25C JUMPI DUP1 PUSH4 0x240D9CBA EQ PUSH2 0x297 JUMPI DUP1 PUSH4 0x3BC5DE30 EQ PUSH2 0x2C1 JUMPI DUP1 PUSH4 0x4DBF6C5A EQ PUSH2 0x3C2 JUMPI DUP1 PUSH4 0x50825207 EQ PUSH2 0x3FD JUMPI DUP1 PUSH4 0x54BDBD4D EQ PUSH2 0x430 JUMPI DUP1 PUSH4 0x673A7E28 EQ PUSH2 0x460 JUMPI DUP1 PUSH4 0x70A08231 EQ PUSH2 0x475 JUMPI DUP1 PUSH4 0x837929B6 EQ PUSH2 0x4A8 JUMPI DUP1 PUSH4 0x87E9F75D EQ PUSH2 0x4D9 JUMPI DUP1 PUSH4 0x8DA5CB5B EQ PUSH2 0x514 JUMPI DUP1 PUSH4 0x8F7A844B EQ PUSH2 0x529 JUMPI DUP1 PUSH4 0x9245290D EQ PUSH2 0x585 JUMPI DUP1 PUSH4 0x9489FA84 EQ PUSH2 0x5B8 JUMPI DUP1 PUSH4 0x9E281A98 EQ PUSH2 0x5CD JUMPI DUP1 PUSH4 0xAF41CEC0 EQ PUSH2 0x606 JUMPI DUP1 PUSH4 0xC1501695 EQ PUSH2 0x62C JUMPI DUP1 PUSH4 0xD5947F14 EQ PUSH2 0x679 JUMPI DUP1 PUSH4 0xE1C8D308 EQ PUSH2 0x681 JUMPI DUP1 PUSH4 0xF6A33253 EQ PUSH2 0x6BC JUMPI JUMPDEST PUSH1 0x0 DUP1 REVERT JUMPDEST CALLVALUE DUP1 ISZERO PUSH2 0x159 JUMPI PUSH1 0x0 DUP1 REVERT JUMPDEST POP PUSH2 0x177 PUSH1 0x4 DUP1 CALLDATASIZE SUB PUSH1 0x20 DUP2 LT ISZERO PUSH2 0x170 JUMPI PUSH1 0x0 DUP1 REVERT JUMPDEST POP CALLDATALOAD PUSH2 0x6E6 JUMP JUMPDEST STOP JUMPDEST CALLVALUE DUP1 ISZERO PUSH2 0x185 JUMPI PUSH1 0x0 DUP1 REVERT JUMPDEST POP PUSH2 0x1BB PUSH1 0x4 DUP1 CALLDATASIZE SUB PUSH1 0x60 DUP2 LT ISZERO PUSH2 0x19C JUMPI PUSH1 0x0 DUP1 REVERT JUMPDEST POP DUP1 CALLDATALOAD PUSH1 0x1 PUSH1 0xA0 PUSH1 0x2 EXP SUB AND SWAP1 PUSH1 0x20 DUP2 ADD CALLDATALOAD SWAP1 PUSH1 0x40 ADD CALLDATALOAD PUSH1 0xFF AND PUSH2 0x834 JUMP JUMPDEST PUSH1 0x40 DUP1 MLOAD SWAP2 ISZERO ISZERO DUP3 MSTORE MLOAD SWAP1 DUP2 SWAP1 SUB PUSH1 0x20 ADD SWAP1 RETURN JUMPDEST CALLVALUE DUP1 ISZERO PUSH2 0x1DB JUMPI PUSH1 0x0 DUP1 REVERT JUMPDEST POP PUSH2 0x177 PUSH1 0x4 DUP1 CALLDATASIZE SUB PUSH1 0x20 DUP2 LT ISZERO PUSH2 0x1F2 JUMPI PUSH1 0x0 DUP1 REVERT JUMPDEST POP CALLDATALOAD PUSH1 0x1 PUSH1 0xA0 PUSH1 0x2 EXP SUB AND PUSH2 0x8CC JUMP JUMPDEST CALLVALUE DUP1 ISZERO PUSH2 0x20E JUMPI PUSH1 0x0 DUP1 REVERT JUMPDEST POP PUSH2 0x217 PUSH2 0x953 JUMP JUMPDEST PUSH1 0x40 DUP1 MLOAD SWAP2 DUP3 MSTORE MLOAD SWAP1 DUP2 SWAP1 SUB PUSH1 0x20 ADD SWAP1 RETURN JUMPDEST CALLVALUE DUP1 ISZERO PUSH2 0x235 JUMPI PUSH1 0x0 DUP1 REVERT JUMPDEST POP PUSH2 0x217 PUSH1 0x4 DUP1 CALLDATASIZE SUB PUSH1 0x20 DUP2 LT ISZERO PUSH2 0x24C JUMPI PUSH1 0x0 DUP1 REVERT JUMPDEST POP CALLDATALOAD PUSH1 0x1 PUSH1 0xA0 PUSH1 0x2 EXP SUB AND PUSH2 0x959 JUMP JUMPDEST CALLVALUE DUP1 ISZERO PUSH2 0x268 JUMPI PUSH1 0x0 DUP1 REVERT JUMPDEST POP PUSH2 0x217 PUSH1 0x4 DUP1 CALLDATASIZE SUB PUSH1 0x40 DUP2 LT ISZERO PUSH2 0x27F JUMPI PUSH1 0x0 DUP1 REVERT JUMPDEST POP PUSH1 0x1 PUSH1 0xA0 PUSH1 0x2 EXP SUB DUP2 CALLDATALOAD DUP2 AND SWAP2 PUSH1 0x20 ADD CALLDATALOAD AND PUSH2 0x974 JUMP JUMPDEST CALLVALUE DUP1 ISZERO PUSH2 0x2A3 JUMPI PUSH1 0x0 DUP1 REVERT JUMPDEST POP PUSH2 0x1BB PUSH1 0x4 DUP1 CALLDATASIZE SUB PUSH1 0x20 DUP2 LT ISZERO PUSH2 0x2BA JUMPI PUSH1 0x0 DUP1 REVERT JUMPDEST POP CALLDATALOAD PUSH2 0x99F JUMP JUMPDEST CALLVALUE DUP1 ISZERO PUSH2 0x2CD JUMPI PUSH1 0x0 DUP1 REVERT JUMPDEST POP PUSH2 0x2D6 PUSH2 0xAF8 JUMP JUMPDEST PUSH1 0x40 MLOAD DUP1 DUP1 PUSH1 0x20 ADD DUP1 PUSH1 0x20 ADD DUP6 DUP2 MSTORE PUSH1 0x20 ADD DUP5 DUP2 MSTORE PUSH1 0x20 ADD DUP4 DUP2 SUB DUP4 MSTORE DUP8 DUP2 DUP2 MLOAD DUP2 MSTORE PUSH1 0x20 ADD SWAP2 POP DUP1 MLOAD SWAP1 PUSH1 0x20 ADD SWAP1 DUP1 DUP4 DUP4 PUSH1 0x0 JUMPDEST DUP4 DUP2 LT ISZERO PUSH2 0x323 JUMPI DUP2 DUP2 ADD MLOAD DUP4 DUP3 ADD MSTORE PUSH1 0x20 ADD PUSH2 0x30B JUMP JUMPDEST POP POP POP POP SWAP1 POP SWAP1 DUP2 ADD SWAP1 PUSH1 0x1F AND DUP1 ISZERO PUSH2 0x350 JUMPI DUP1 DUP3 SUB DUP1 MLOAD PUSH1 0x1 DUP4 PUSH1 0x20 SUB PUSH2 0x100 EXP SUB NOT AND DUP2 MSTORE PUSH1 0x20 ADD SWAP2 POP JUMPDEST POP DUP4 DUP2 SUB DUP3 MSTORE DUP7 MLOAD DUP2 MSTORE DUP7 MLOAD PUSH1 0x20 SWAP2 DUP3 ADD SWAP2 DUP9 ADD SWAP1 DUP1 DUP4 DUP4 PUSH1 0x0 JUMPDEST DUP4 DUP2 LT ISZERO PUSH2 0x383 JUMPI DUP2 DUP2 ADD MLOAD DUP4 DUP3 ADD MSTORE PUSH1 0x20 ADD PUSH2 0x36B JUMP JUMPDEST POP POP POP POP SWAP1 POP SWAP1 DUP2 ADD SWAP1 PUSH1 0x1F AND DUP1 ISZERO PUSH2 0x3B0 JUMPI DUP1 DUP3 SUB DUP1 MLOAD PUSH1 0x1 DUP4 PUSH1 0x20 SUB PUSH2 0x100 EXP SUB NOT AND DUP2 MSTORE PUSH1 0x20 ADD SWAP2 POP JUMPDEST POP SWAP7 POP POP POP POP POP POP POP PUSH1 0x40 MLOAD DUP1 SWAP2 SUB SWAP1 RETURN JUMPDEST CALLVALUE DUP1 ISZERO PUSH2 0x3CE JUMPI PUSH1 0x0 DUP1 REVERT JUMPDEST POP PUSH2 0x217 PUSH1 0x4 DUP1 CALLDATASIZE SUB PUSH1 0x40 DUP2 LT ISZERO PUSH2 0x3E5 JUMPI PUSH1 0x0 DUP1 REVERT JUMPDEST POP PUSH1 0x1 PUSH1 0xA0 PUSH1 0x2 EXP SUB DUP2 CALLDATALOAD DUP2 AND SWAP2 PUSH1 0x20 ADD CALLDATALOAD AND PUSH2 0xC40 JUMP JUMPDEST CALLVALUE DUP1 ISZERO PUSH2 0x409 JUMPI PUSH1 0x0 DUP1 REVERT JUMPDEST POP PUSH2 0x177 PUSH1 0x4 DUP1 CALLDATASIZE SUB PUSH1 0x20 DUP2 LT ISZERO PUSH2 0x420 JUMPI PUSH1 0x0 DUP1 REVERT JUMPDEST POP CALLDATALOAD PUSH1 0x1 PUSH1 0xA0 PUSH1 0x2 EXP SUB AND PUSH2 0xC5D JUMP JUMPDEST CALLVALUE DUP1 ISZERO PUSH2 0x43C JUMPI PUSH1 0x0 DUP1 REVERT JUMPDEST POP PUSH2 0x177 PUSH1 0x4 DUP1 CALLDATASIZE SUB PUSH1 0x20 DUP2 LT ISZERO PUSH2 0x453 JUMPI PUSH1 0x0 DUP1 REVERT JUMPDEST POP CALLDATALOAD PUSH4 0xFFFFFFFF AND PUSH2 0xDC9 JUMP JUMPDEST CALLVALUE DUP1 ISZERO PUSH2 0x46C JUMPI PUSH1 0x0 DUP1 REVERT JUMPDEST POP PUSH2 0x177 PUSH2 0xDFC JUMP JUMPDEST CALLVALUE DUP1 ISZERO PUSH2 0x481 JUMPI PUSH1 0x0 DUP1 REVERT JUMPDEST POP PUSH2 0x217 PUSH1 0x4 DUP1 CALLDATASIZE SUB PUSH1 0x20 DUP2 LT ISZERO PUSH2 0x498 JUMPI PUSH1 0x0 DUP1 REVERT JUMPDEST POP CALLDATALOAD PUSH1 0x1 PUSH1 0xA0 PUSH1 0x2 EXP SUB AND PUSH2 0xE7C JUMP JUMPDEST CALLVALUE DUP1 ISZERO PUSH2 0x4B4 JUMPI PUSH1 0x0 DUP1 REVERT JUMPDEST POP PUSH2 0x4BD PUSH2 0xE97 JUMP JUMPDEST PUSH1 0x40 DUP1 MLOAD PUSH1 0x1 PUSH1 0xA0 PUSH1 0x2 EXP SUB SWAP1 SWAP3 AND DUP3 MSTORE MLOAD SWAP1 DUP2 SWAP1 SUB PUSH1 0x20 ADD SWAP1 RETURN JUMPDEST CALLVALUE DUP1 ISZERO PUSH2 0x4E5 JUMPI PUSH1 0x0 DUP1 REVERT JUMPDEST POP PUSH2 0x217 PUSH1 0x4 DUP1 CALLDATASIZE SUB PUSH1 0x40 DUP2 LT ISZERO PUSH2 0x4FC JUMPI PUSH1 0x0 DUP1 REVERT JUMPDEST POP PUSH1 0x1 PUSH1 0xA0 PUSH1 0x2 EXP SUB DUP2 CALLDATALOAD DUP2 AND SWAP2 PUSH1 0x20 ADD CALLDATALOAD AND PUSH2 0xF14 JUMP JUMPDEST CALLVALUE DUP1 ISZERO PUSH2 0x520 JUMPI PUSH1 0x0 DUP1 REVERT JUMPDEST POP PUSH2 0x4BD PUSH2 0xF3F JUMP JUMPDEST CALLVALUE DUP1 ISZERO PUSH2 0x535 JUMPI PUSH1 0x0 DUP1 REVERT JUMPDEST POP PUSH2 0x53E PUSH2 0xF4E JUMP JUMPDEST PUSH1 0x40 DUP1 MLOAD PUSH1 0x1 PUSH1 0xA0 PUSH1 0x2 EXP SUB SWAP8 DUP9 AND DUP2 MSTORE SWAP6 DUP8 AND PUSH1 0x20 DUP8 ADD MSTORE SWAP4 SWAP1 SWAP6 AND DUP5 DUP5 ADD MSTORE PUSH1 0x60 DUP5 ADD SWAP2 SWAP1 SWAP2 MSTORE PUSH1 0x80 DUP4 ADD MSTORE PUSH4 0xFFFFFFFF SWAP1 SWAP3 AND PUSH1 0xA0 DUP3 ADD MSTORE SWAP1 MLOAD SWAP1 DUP2 SWAP1 SUB PUSH1 0xC0 ADD SWAP1 RETURN JUMPDEST CALLVALUE DUP1 ISZERO PUSH2 0x591 JUMPI PUSH1 0x0 DUP1 REVERT JUMPDEST POP PUSH2 0x177 PUSH1 0x4 DUP1 CALLDATASIZE SUB PUSH1 0x20 DUP2 LT ISZERO PUSH2 0x5A8 JUMPI PUSH1 0x0 DUP1 REVERT JUMPDEST POP CALLDATALOAD PUSH1 0x1 PUSH1 0xA0 PUSH1 0x2 EXP SUB AND PUSH2 0xF83 JUMP JUMPDEST CALLVALUE DUP1 ISZERO PUSH2 0x5C4 JUMPI PUSH1 0x0 DUP1 REVERT JUMPDEST POP PUSH2 0x217 PUSH2 0x10EF JUMP JUMPDEST CALLVALUE DUP1 ISZERO PUSH2 0x5D9 JUMPI PUSH1 0x0 DUP1 REVERT JUMPDEST POP PUSH2 0x1BB PUSH1 0x4 DUP1 CALLDATASIZE SUB PUSH1 0x40 DUP2 LT ISZERO PUSH2 0x5F0 JUMPI PUSH1 0x0 DUP1 REVERT JUMPDEST POP PUSH1 0x1 PUSH1 0xA0 PUSH1 0x2 EXP SUB DUP2 CALLDATALOAD AND SWAP1 PUSH1 0x20 ADD CALLDATALOAD PUSH2 0x10FE JUMP JUMPDEST PUSH2 0x1BB PUSH1 0x4 DUP1 CALLDATASIZE SUB PUSH1 0x20 DUP2 LT ISZERO PUSH2 0x61C JUMPI PUSH1 0x0 DUP1 REVERT JUMPDEST POP CALLDATALOAD PUSH1 0x1 PUSH1 0xA0 PUSH1 0x2 EXP SUB AND PUSH2 0x12F8 JUMP JUMPDEST CALLVALUE DUP1 ISZERO PUSH2 0x638 JUMPI PUSH1 0x0 DUP1 REVERT JUMPDEST POP PUSH2 0x1BB PUSH1 0x4 DUP1 CALLDATASIZE SUB PUSH1 0x80 DUP2 LT ISZERO PUSH2 0x64F JUMPI PUSH1 0x0 DUP1 REVERT JUMPDEST POP DUP1 CALLDATALOAD PUSH1 0x1 PUSH1 0xA0 PUSH1 0x2 EXP SUB SWAP1 DUP2 AND SWAP2 PUSH1 0x20 DUP2 ADD CALLDATALOAD SWAP1 SWAP2 AND SWAP1 PUSH1 0x40 DUP2 ADD CALLDATALOAD SWAP1 PUSH1 0x60 ADD CALLDATALOAD PUSH1 0xFF AND PUSH2 0x132A JUMP JUMPDEST PUSH2 0x1BB PUSH2 0x134E JUMP JUMPDEST CALLVALUE DUP1 ISZERO PUSH2 0x68D JUMPI PUSH1 0x0 DUP1 REVERT JUMPDEST POP PUSH2 0x217 PUSH1 0x4 DUP1 CALLDATASIZE SUB PUSH1 0x40 DUP2 LT ISZERO PUSH2 0x6A4 JUMPI PUSH1 0x0 DUP1 REVERT JUMPDEST POP PUSH1 0x1 PUSH1 0xA0 PUSH1 0x2 EXP SUB DUP2 CALLDATALOAD DUP2 AND SWAP2 PUSH1 0x20 ADD CALLDATALOAD AND PUSH2 0x137F JUMP JUMPDEST CALLVALUE DUP1 ISZERO PUSH2 0x6C8 JUMPI PUSH1 0x0 DUP1 REVERT JUMPDEST POP PUSH2 0x177 PUSH1 0x4 DUP1 CALLDATASIZE SUB PUSH1 0x20 DUP2 LT ISZERO PUSH2 0x6DF JUMPI PUSH1 0x0 DUP1 REVERT JUMPDEST POP CALLDATALOAD PUSH2 0x139C JUMP JUMPDEST PUSH1 0x0 SLOAD PUSH1 0x1 PUSH1 0xA0 PUSH1 0x2 EXP SUB AND CALLER EQ PUSH2 0x6FD JUMPI PUSH1 0x0 DUP1 REVERT JUMPDEST PUSH1 0x64 DUP2 GT ISZERO PUSH2 0x70B JUMPI PUSH1 0x0 DUP1 REVERT JUMPDEST PUSH1 0x8 SLOAD PUSH1 0x40 DUP1 MLOAD PUSH1 0xE1 PUSH1 0x2 EXP PUSH4 0x447A3F7 MUL DUP2 MSTORE SWAP1 MLOAD PUSH1 0x1 PUSH1 0xA0 PUSH1 0x2 EXP SUB SWAP1 SWAP3 AND SWAP2 PUSH1 0x0 SWAP2 DUP4 SWAP2 PUSH4 0x88F47EE SWAP2 PUSH1 0x4 DUP1 DUP3 ADD SWAP3 PUSH1 0x20 SWAP3 SWAP1 SWAP2 SWAP1 DUP3 SWAP1 SUB ADD DUP2 DUP7 DUP1 EXTCODESIZE ISZERO DUP1 ISZERO PUSH2 0x758 JUMPI PUSH1 0x0 DUP1 REVERT JUMPDEST POP GAS STATICCALL ISZERO DUP1 ISZERO PUSH2 0x76C JUMPI RETURNDATASIZE PUSH1 0x0 DUP1 RETURNDATACOPY RETURNDATASIZE PUSH1 0x0 REVERT JUMPDEST POP POP POP POP PUSH1 0x40 MLOAD RETURNDATASIZE PUSH1 0x20 DUP2 LT ISZERO PUSH2 0x782 JUMPI PUSH1 0x0 DUP1 REVERT JUMPDEST POP MLOAD PUSH1 0x40 DUP1 MLOAD PUSH32 0xD5AAA73A00000000000000000000000000000000000000000000000000000000 DUP2 MSTORE CALLER PUSH1 0x4 DUP3 ADD MSTORE ADDRESS PUSH1 0x24 DUP3 ADD MSTORE PUSH1 0x44 DUP2 ADD DUP7 SWAP1 MSTORE SWAP1 MLOAD SWAP2 SWAP3 POP PUSH1 0x1 PUSH1 0xA0 PUSH1 0x2 EXP SUB DUP4 AND SWAP2 PUSH4 0xD5AAA73A SWAP2 PUSH1 0x64 DUP1 DUP3 ADD SWAP3 PUSH1 0x20 SWAP3 SWAP1 SWAP2 SWAP1 DUP3 SWAP1 SUB ADD DUP2 PUSH1 0x0 DUP8 DUP1 EXTCODESIZE ISZERO DUP1 ISZERO PUSH2 0x7F6 JUMPI PUSH1 0x0 DUP1 REVERT JUMPDEST POP GAS CALL ISZERO DUP1 ISZERO PUSH2 0x80A JUMPI RETURNDATASIZE PUSH1 0x0 DUP1 RETURNDATACOPY RETURNDATASIZE PUSH1 0x0 REVERT JUMPDEST POP POP POP POP PUSH1 0x40 MLOAD RETURNDATASIZE PUSH1 0x20 DUP2 LT ISZERO PUSH2 0x820 JUMPI PUSH1 0x0 DUP1 REVERT JUMPDEST POP MLOAD ISZERO ISZERO PUSH2 0x82D JUMPI PUSH1 0x0 DUP1 REVERT JUMPDEST POP POP PUSH1 0x6 SSTORE JUMP JUMPDEST PUSH1 0x0 DUP1 SLOAD PUSH1 0xA0 PUSH1 0x2 EXP SWAP1 DIV PUSH1 0xFF AND ISZERO PUSH2 0x885 JUMPI PUSH1 0x40 DUP1 MLOAD PUSH1 0xE5 PUSH1 0x2 EXP PUSH3 0x461BCD MUL DUP2 MSTORE PUSH1 0x20 PUSH1 0x4 DUP3 ADD MSTORE PUSH1 0x12 PUSH1 0x24 DUP3 ADD MSTORE PUSH1 0x0 DUP1 MLOAD PUSH1 0x20 PUSH2 0x2142 DUP4 CODECOPY DUP2 MLOAD SWAP2 MSTORE PUSH1 0x44 DUP3 ADD MSTORE SWAP1 MLOAD SWAP1 DUP2 SWAP1 SUB PUSH1 0x64 ADD SWAP1 REVERT JUMPDEST PUSH1 0x0 DUP1 SLOAD PUSH1 0xA0 PUSH1 0x2 EXP PUSH1 0xFF MUL NOT AND PUSH1 0xA0 PUSH1 0x2 EXP OR SWAP1 SSTORE PUSH2 0x8A7 DUP5 CALLER DUP6 DUP6 PUSH2 0x14DC JUMP JUMPDEST ISZERO ISZERO PUSH2 0x8B2 JUMPI PUSH1 0x0 DUP1 REVERT JUMPDEST POP PUSH1 0x1 PUSH1 0x0 DUP1 SLOAD PUSH1 0xA0 PUSH1 0x2 EXP PUSH1 0xFF MUL NOT AND SWAP1 SSTORE SWAP4 SWAP3 POP POP POP JUMP JUMPDEST PUSH1 0x0 SLOAD PUSH1 0x1 PUSH1 0xA0 PUSH1 0x2 EXP SUB AND CALLER EQ PUSH2 0x8E3 JUMPI PUSH1 0x0 DUP1 REVERT JUMPDEST PUSH1 0x1 PUSH1 0xA0 PUSH1 0x2 EXP SUB DUP2 AND ISZERO ISZERO PUSH2 0x8F8 JUMPI PUSH1 0x0 DUP1 REVERT JUMPDEST PUSH1 0x0 DUP1 SLOAD PUSH20 0xFFFFFFFFFFFFFFFFFFFFFFFFFFFFFFFFFFFFFFFF NOT AND PUSH1 0x1 PUSH1 0xA0 PUSH1 0x2 EXP SUB DUP4 DUP2 AND SWAP2 DUP3 OR DUP1 DUP5 SSTORE PUSH1 0x40 MLOAD SWAP3 SWAP4 SWAP2 AND SWAP2 PUSH32 0x70AEA8D848E8A90FB7661B227DC522EB6395C3DAC71B63CB59EDD5C9899B2364 SWAP2 SWAP1 LOG3 POP JUMP JUMPDEST PUSH1 0x4 SLOAD SWAP1 JUMP JUMPDEST PUSH1 0x1 PUSH1 0xA0 PUSH1 0x2 EXP SUB AND PUSH1 0x0 SWAP1 DUP2 MSTORE PUSH1 0xE PUSH1 0x20 MSTORE PUSH1 0x40 SWAP1 KECCAK256 SLOAD SWAP1 JUMP JUMPDEST PUSH1 0x1 PUSH1 0xA0 PUSH1 0x2 EXP SUB SWAP2 DUP3 AND PUSH1 0x0 SWAP1 DUP2 MSTORE PUSH1 0x10 PUSH1 0x20 SWAP1 DUP2 MSTORE PUSH1 0x40 DUP1 DUP4 KECCAK256 SWAP4 SWAP1 SWAP5 AND DUP3 MSTORE SWAP2 SWAP1 SWAP2 MSTORE KECCAK256 SLOAD SWAP1 JUMP JUMPDEST PUSH1 0x0 DUP1 SLOAD PUSH1 0xA0 PUSH1 0x2 EXP SWAP1 DIV PUSH1 0xFF AND ISZERO PUSH2 0x9F0 JUMPI PUSH1 0x40 DUP1 MLOAD PUSH1 0xE5 PUSH1 0x2 EXP PUSH3 0x461BCD MUL DUP2 MSTORE PUSH1 0x20 PUSH1 0x4 DUP3 ADD MSTORE PUSH1 0x12 PUSH1 0x24 DUP3 ADD MSTORE PUSH1 0x0 DUP1 MLOAD PUSH1 0x20 PUSH2 0x2142 DUP4 CODECOPY DUP2 MLOAD SWAP2 MSTORE PUSH1 0x44 DUP3 ADD MSTORE SWAP1 MLOAD SWAP1 DUP2 SWAP1 SUB PUSH1 0x64 ADD SWAP1 REVERT JUMPDEST PUSH1 0x0 DUP1 SLOAD PUSH1 0xA0 PUSH1 0x2 EXP PUSH1 0xFF MUL NOT AND PUSH1 0xA0 PUSH1 0x2 EXP OR DUP2 SSTORE CALLER DUP2 MSTORE PUSH1 0xD PUSH1 0x20 MSTORE PUSH1 0x40 SWAP1 KECCAK256 SLOAD DUP3 SWAP1 DUP2 GT ISZERO PUSH2 0xA21 JUMPI PUSH1 0x0 DUP1 REVERT JUMPDEST CALLER PUSH1 0x0 SWAP1 DUP2 MSTORE PUSH1 0xD PUSH1 0x20 MSTORE PUSH1 0x40 SWAP1 KECCAK256 SLOAD DUP4 SWAP1 DUP1 DUP3 ADD GT PUSH2 0xA40 JUMPI PUSH1 0x0 DUP1 REVERT JUMPDEST CALLER PUSH1 0x0 SWAP1 DUP2 MSTORE PUSH1 0xD PUSH1 0x20 MSTORE PUSH1 0x40 SWAP1 KECCAK256 PUSH1 0x1 ADD SLOAD PUSH4 0xFFFFFFFF AND TIMESTAMP LT ISZERO PUSH2 0xA65 JUMPI PUSH1 0x0 DUP1 REVERT JUMPDEST PUSH2 0xA6D PUSH2 0x1720 JUMP JUMPDEST PUSH1 0x0 DUP1 PUSH1 0x0 DUP1 PUSH2 0xA7C DUP9 PUSH2 0x1738 JUMP JUMPDEST SWAP3 SWAP7 POP SWAP1 SWAP5 POP SWAP3 POP SWAP1 POP PUSH2 0xA90 DUP9 DUP3 PUSH2 0x17C5 JUMP JUMPDEST PUSH2 0xA9C CALLER DUP10 DUP7 DUP7 PUSH2 0x1AF5 JUMP JUMPDEST PUSH1 0x4 SLOAD PUSH2 0xAA9 SWAP1 DUP4 PUSH2 0x1BA0 JUMP JUMPDEST PUSH1 0x4 SSTORE PUSH1 0x40 MLOAD CALLER SWAP1 DUP3 ISZERO PUSH2 0x8FC MUL SWAP1 DUP4 SWAP1 PUSH1 0x0 DUP2 DUP2 DUP2 DUP6 DUP9 DUP9 CALL SWAP4 POP POP POP POP ISZERO DUP1 ISZERO PUSH2 0xAD9 JUMPI RETURNDATASIZE PUSH1 0x0 DUP1 RETURNDATACOPY RETURNDATASIZE PUSH1 0x0 REVERT JUMPDEST POP POP PUSH1 0x0 DUP1 SLOAD PUSH1 0xA0 PUSH1 0x2 EXP PUSH1 0xFF MUL NOT AND SWAP1 SSTORE POP PUSH1 0x1 SWAP7 SWAP6 POP POP POP POP POP POP JUMP JUMPDEST PUSH1 0x1 DUP1 SLOAD PUSH1 0x40 DUP1 MLOAD PUSH1 0x20 PUSH1 0x2 DUP5 DUP7 AND ISZERO PUSH2 0x100 MUL PUSH1 0x0 NOT ADD SWAP1 SWAP5 AND SWAP4 SWAP1 SWAP4 DIV PUSH1 0x1F DUP2 ADD DUP5 SWAP1 DIV DUP5 MUL DUP3 ADD DUP5 ADD SWAP1 SWAP3 MSTORE DUP2 DUP2 MSTORE PUSH1 0x60 SWAP4 DUP5 SWAP4 PUSH1 0x0 SWAP4 DUP5 SWAP4 SWAP3 SWAP2 DUP4 ADD DUP3 DUP3 DUP1 ISZERO PUSH2 0xB87 JUMPI DUP1 PUSH1 0x1F LT PUSH2 0xB5C JUMPI PUSH2 0x100 DUP1 DUP4 SLOAD DIV MUL DUP4 MSTORE SWAP2 PUSH1 0x20 ADD SWAP2 PUSH2 0xB87 JUMP JUMPDEST DUP3 ADD SWAP2 SWAP1 PUSH1 0x0 MSTORE PUSH1 0x20 PUSH1 0x0 KECCAK256 SWAP1 JUMPDEST DUP2 SLOAD DUP2 MSTORE SWAP1 PUSH1 0x1 ADD SWAP1 PUSH1 0x20 ADD DUP1 DUP4 GT PUSH2 0xB6A JUMPI DUP3 SWAP1 SUB PUSH1 0x1F AND DUP3 ADD SWAP2 JUMPDEST POP POP PUSH1 0x2 DUP1 SLOAD PUSH1 0x40 DUP1 MLOAD PUSH1 0x20 PUSH1 0x1F PUSH1 0x0 NOT PUSH2 0x100 PUSH1 0x1 DUP8 AND ISZERO MUL ADD SWAP1 SWAP5 AND DUP6 SWAP1 DIV SWAP4 DUP5 ADD DUP2 SWAP1 DIV DUP2 MUL DUP3 ADD DUP2 ADD SWAP1 SWAP3 MSTORE DUP3 DUP2 MSTORE SWAP7 SWAP11 POP DUP11 SWAP7 SWAP6 POP SWAP2 SWAP4 POP SWAP2 POP DUP4 ADD DUP3 DUP3 DUP1 ISZERO PUSH2 0xC17 JUMPI DUP1 PUSH1 0x1F LT PUSH2 0xBEC JUMPI PUSH2 0x100 DUP1 DUP4 SLOAD DIV MUL DUP4 MSTORE SWAP2 PUSH1 0x20 ADD SWAP2 PUSH2 0xC17 JUMP JUMPDEST DUP3 ADD SWAP2 SWAP1 PUSH1 0x0 MSTORE PUSH1 0x20 PUSH1 0x0 KECCAK256 SWAP1 JUMPDEST DUP2 SLOAD DUP2 MSTORE SWAP1 PUSH1 0x1 ADD SWAP1 PUSH1 0x20 ADD DUP1 DUP4 GT PUSH2 0xBFA JUMPI DUP3 SWAP1 SUB PUSH1 0x1F AND DUP3 ADD SWAP2 JUMPDEST POP POP POP POP POP SWAP4 POP DUP4 PUSH2 0xC27 PUSH2 0x1BB2 JUMP JUMPDEST SWAP4 POP DUP4 PUSH2 0xC32 PUSH2 0x1BB2 JUMP JUMPDEST SWAP3 SWAP8 SWAP2 SWAP7 POP SWAP5 POP SWAP1 SWAP3 POP SWAP1 POP JUMP JUMPDEST PUSH1 0x10 PUSH1 0x20 SWAP1 DUP2 MSTORE PUSH1 0x0 SWAP3 DUP4 MSTORE PUSH1 0x40 DUP1 DUP5 KECCAK256 SWAP1 SWAP2 MSTORE SWAP1 DUP3 MSTORE SWAP1 KECCAK256 SLOAD DUP2 JUMP JUMPDEST PUSH1 0x9 SLOAD PUSH1 0x1 PUSH1 0xA0 PUSH1 0x2 EXP SUB AND CALLER EQ PUSH2 0xC74 JUMPI PUSH1 0x0 DUP1 REVERT JUMPDEST PUSH1 0x8 SLOAD PUSH1 0x40 DUP1 MLOAD PUSH1 0xE1 PUSH1 0x2 EXP PUSH4 0x447A3F7 MUL DUP2 MSTORE SWAP1 MLOAD PUSH1 0x1 PUSH1 0xA0 PUSH1 0x2 EXP SUB SWAP1 SWAP3 AND SWAP2 PUSH1 0x0 SWAP2 DUP4 SWAP2 PUSH4 0x88F47EE SWAP2 PUSH1 0x4 DUP1 DUP3 ADD SWAP3 PUSH1 0x20 SWAP3 SWAP1 SWAP2 SWAP1 DUP3 SWAP1 SUB ADD DUP2 DUP7 DUP1 EXTCODESIZE ISZERO DUP1 ISZERO PUSH2 0xCC1 JUMPI PUSH1 0x0 DUP1 REVERT JUMPDEST POP GAS STATICCALL ISZERO DUP1 ISZERO PUSH2 0xCD5 JUMPI RETURNDATASIZE PUSH1 0x0 DUP1 RETURNDATACOPY RETURNDATASIZE PUSH1 0x0 REVERT JUMPDEST POP POP POP POP PUSH1 0x40 MLOAD RETURNDATASIZE PUSH1 0x20 DUP2 LT ISZERO PUSH2 0xCEB JUMPI PUSH1 0x0 DUP1 REVERT JUMPDEST POP MLOAD PUSH1 0x40 DUP1 MLOAD PUSH32 0x8F85A51C00000000000000000000000000000000000000000000000000000000 DUP2 MSTORE CALLER PUSH1 0x4 DUP3 ADD MSTORE ADDRESS PUSH1 0x24 DUP3 ADD MSTORE PUSH1 0x1 PUSH1 0xA0 PUSH1 0x2 EXP SUB DUP7 DUP2 AND PUSH1 0x44 DUP4 ADD MSTORE SWAP2 MLOAD SWAP3 SWAP4 POP SWAP1 DUP4 AND SWAP2 PUSH4 0x8F85A51C SWAP2 PUSH1 0x64 DUP1 DUP3 ADD SWAP3 PUSH1 0x20 SWAP3 SWAP1 SWAP2 SWAP1 DUP3 SWAP1 SUB ADD DUP2 PUSH1 0x0 DUP8 DUP1 EXTCODESIZE ISZERO DUP1 ISZERO PUSH2 0xD61 JUMPI PUSH1 0x0 DUP1 REVERT JUMPDEST POP GAS CALL ISZERO DUP1 ISZERO PUSH2 0xD75 JUMPI RETURNDATASIZE PUSH1 0x0 DUP1 RETURNDATACOPY RETURNDATASIZE PUSH1 0x0 REVERT JUMPDEST POP POP POP POP PUSH1 0x40 MLOAD RETURNDATASIZE PUSH1 0x20 DUP2 LT ISZERO PUSH2 0xD8B JUMPI PUSH1 0x0 DUP1 REVERT JUMPDEST POP MLOAD ISZERO ISZERO PUSH2 0xD98 JUMPI PUSH1 0x0 DUP1 REVERT JUMPDEST POP POP PUSH1 0x9 DUP1 SLOAD PUSH20 0xFFFFFFFFFFFFFFFFFFFFFFFFFFFFFFFFFFFFFFFF NOT AND PUSH1 0x1 PUSH1 0xA0 PUSH1 0x2 EXP SUB SWAP3 SWAP1 SWAP3 AND SWAP2 SWAP1 SWAP2 OR SWAP1 SSTORE JUMP JUMPDEST PUSH1 0x9 SLOAD PUSH1 0x1 PUSH1 0xA0 PUSH1 0x2 EXP SUB AND CALLER EQ PUSH2 0xDE0 JUMPI PUSH1 0x0 DUP1 REVERT JUMPDEST PUSH1 0x7 DUP1 SLOAD PUSH4 0xFFFFFFFF NOT AND PUSH4 0xFFFFFFFF SWAP3 SWAP1 SWAP3 AND SWAP2 SWAP1 SWAP2 OR SWAP1 SSTORE JUMP JUMPDEST PUSH1 0x0 SLOAD PUSH1 0xA0 PUSH1 0x2 EXP SWAP1 DIV PUSH1 0xFF AND ISZERO PUSH2 0xE4C JUMPI PUSH1 0x40 DUP1 MLOAD PUSH1 0xE5 PUSH1 0x2 EXP PUSH3 0x461BCD MUL DUP2 MSTORE PUSH1 0x20 PUSH1 0x4 DUP3 ADD MSTORE PUSH1 0x12 PUSH1 0x24 DUP3 ADD MSTORE PUSH1 0x0 DUP1 MLOAD PUSH1 0x20 PUSH2 0x2142 DUP4 CODECOPY DUP2 MLOAD SWAP2 MSTORE PUSH1 0x44 DUP3 ADD MSTORE SWAP1 MLOAD SWAP1 DUP2 SWAP1 SUB PUSH1 0x64 ADD SWAP1 REVERT JUMPDEST PUSH1 0x0 DUP1 SLOAD PUSH1 0xA0 PUSH1 0x2 EXP PUSH1 0xFF MUL NOT AND PUSH1 0xA0 PUSH1 0x2 EXP OR SWAP1 SSTORE PUSH2 0xE6A PUSH2 0x1720 JUMP JUMPDEST PUSH1 0x0 DUP1 SLOAD PUSH1 0xA0 PUSH1 0x2 EXP PUSH1 0xFF MUL NOT AND SWAP1 SSTORE JUMP JUMPDEST PUSH1 0x1 PUSH1 0xA0 PUSH1 0x2 EXP SUB AND PUSH1 0x0 SWAP1 DUP2 MSTORE PUSH1 0xD PUSH1 0x20 MSTORE PUSH1 0x40 SWAP1 KECCAK256 SLOAD SWAP1 JUMP JUMPDEST PUSH1 0x8 SLOAD PUSH1 0x40 DUP1 MLOAD PUSH1 0xE1 PUSH1 0x2 EXP PUSH4 0x447A3F7 MUL DUP2 MSTORE SWAP1 MLOAD PUSH1 0x0 SWAP3 PUSH1 0x1 PUSH1 0xA0 PUSH1 0x2 EXP SUB AND SWAP2 DUP3 SWAP2 PUSH4 0x88F47EE SWAP2 PUSH1 0x4 DUP1 DUP3 ADD SWAP3 PUSH1 0x20 SWAP3 SWAP1 SWAP2 SWAP1 DUP3 SWAP1 SUB ADD DUP2 DUP7 DUP1 EXTCODESIZE ISZERO DUP1 ISZERO PUSH2 0xEE2 JUMPI PUSH1 0x0 DUP1 REVERT JUMPDEST POP GAS STATICCALL ISZERO DUP1 ISZERO PUSH2 0xEF6 JUMPI RETURNDATASIZE PUSH1 0x0 DUP1 RETURNDATACOPY RETURNDATASIZE PUSH1 0x0 REVERT JUMPDEST POP POP POP POP PUSH1 0x40 MLOAD RETURNDATASIZE PUSH1 0x20 DUP2 LT ISZERO PUSH2 0xF0C JUMPI PUSH1 0x0 DUP1 REVERT JUMPDEST POP MLOAD SWAP2 POP POP SWAP1 JUMP JUMPDEST PUSH1 0x1 PUSH1 0xA0 PUSH1 0x2 EXP SUB SWAP2 DUP3 AND PUSH1 0x0 SWAP1 DUP2 MSTORE PUSH1 0xF PUSH1 0x20 SWAP1 DUP2 MSTORE PUSH1 0x40 DUP1 DUP4 KECCAK256 SWAP4 SWAP1 SWAP5 AND DUP3 MSTORE SWAP2 SWAP1 SWAP2 MSTORE KECCAK256 SLOAD SWAP1 JUMP JUMPDEST PUSH1 0x0 SLOAD PUSH1 0x1 PUSH1 0xA0 PUSH1 0x2 EXP SUB AND DUP2 JUMP JUMPDEST PUSH1 0x0 SLOAD PUSH1 0xA SLOAD PUSH1 0x9 SLOAD PUSH1 0xC SLOAD PUSH1 0x6 SLOAD PUSH1 0x7 SLOAD PUSH1 0x1 PUSH1 0xA0 PUSH1 0x2 EXP SUB SWAP6 DUP7 AND SWAP6 SWAP5 DUP6 AND SWAP5 SWAP4 SWAP1 SWAP4 AND SWAP3 PUSH4 0xFFFFFFFF AND SWAP1 SWAP2 SWAP3 SWAP4 SWAP5 SWAP6 JUMP JUMPDEST PUSH1 0x0 SLOAD PUSH1 0x1 PUSH1 0xA0 PUSH1 0x2 EXP SUB AND CALLER EQ PUSH2 0xF9A JUMPI PUSH1 0x0 DUP1 REVERT JUMPDEST PUSH1 0x8 SLOAD PUSH1 0x40 DUP1 MLOAD PUSH1 0xE1 PUSH1 0x2 EXP PUSH4 0x447A3F7 MUL DUP2 MSTORE SWAP1 MLOAD PUSH1 0x1 PUSH1 0xA0 PUSH1 0x2 EXP SUB SWAP1 SWAP3 AND SWAP2 PUSH1 0x0 SWAP2 DUP4 SWAP2 PUSH4 0x88F47EE SWAP2 PUSH1 0x4 DUP1 DUP3 ADD SWAP3 PUSH1 0x20 SWAP3 SWAP1 SWAP2 SWAP1 DUP3 SWAP1 SUB ADD DUP2 DUP7 DUP1 EXTCODESIZE ISZERO DUP1 ISZERO PUSH2 0xFE7 JUMPI PUSH1 0x0 DUP1 REVERT JUMPDEST POP GAS STATICCALL ISZERO DUP1 ISZERO PUSH2 0xFFB JUMPI RETURNDATASIZE PUSH1 0x0 DUP1 RETURNDATACOPY RETURNDATASIZE PUSH1 0x0 REVERT JUMPDEST POP POP POP POP PUSH1 0x40 MLOAD RETURNDATASIZE PUSH1 0x20 DUP2 LT ISZERO PUSH2 0x1011 JUMPI PUSH1 0x0 DUP1 REVERT JUMPDEST POP MLOAD PUSH1 0x40 DUP1 MLOAD PUSH32 0xF39BA93200000000000000000000000000000000000000000000000000000000 DUP2 MSTORE CALLER PUSH1 0x4 DUP3 ADD MSTORE ADDRESS PUSH1 0x24 DUP3 ADD MSTORE PUSH1 0x1 PUSH1 0xA0 PUSH1 0x2 EXP SUB DUP7 DUP2 AND PUSH1 0x44 DUP4 ADD MSTORE SWAP2 MLOAD SWAP3 SWAP4 POP SWAP1 DUP4 AND SWAP2 PUSH4 0xF39BA932 SWAP2 PUSH1 0x64 DUP1 DUP3 ADD SWAP3 PUSH1 0x20 SWAP3 SWAP1 SWAP2 SWAP1 DUP3 SWAP1 SUB ADD DUP2 PUSH1 0x0 DUP8 DUP1 EXTCODESIZE ISZERO DUP1 ISZERO PUSH2 0x1087 JUMPI PUSH1 0x0 DUP1 REVERT JUMPDEST POP GAS CALL ISZERO DUP1 ISZERO PUSH2 0x109B JUMPI RETURNDATASIZE PUSH1 0x0 DUP1 RETURNDATACOPY RETURNDATASIZE PUSH1 0x0 REVERT JUMPDEST POP POP POP POP PUSH1 0x40 MLOAD RETURNDATASIZE PUSH1 0x20 DUP2 LT ISZERO PUSH2 0x10B1 JUMPI PUSH1 0x0 DUP1 REVERT JUMPDEST POP MLOAD ISZERO ISZERO PUSH2 0x10BE JUMPI PUSH1 0x0 DUP1 REVERT JUMPDEST POP POP PUSH1 0xA DUP1 SLOAD PUSH20 0xFFFFFFFFFFFFFFFFFFFFFFFFFFFFFFFFFFFFFFFF NOT AND PUSH1 0x1 PUSH1 0xA0 PUSH1 0x2 EXP SUB SWAP3 SWAP1 SWAP3 AND SWAP2 SWAP1 SWAP2 OR SWAP1 SSTORE JUMP JUMPDEST PUSH1 0x0 PUSH2 0x10F9 PUSH2 0x1BB2 JUMP JUMPDEST SWAP1 POP SWAP1 JUMP JUMPDEST PUSH1 0x0 DUP1 SLOAD PUSH1 0xA0 PUSH1 0x2 EXP SWAP1 DIV PUSH1 0xFF AND ISZERO PUSH2 0x114F JUMPI PUSH1 0x40 DUP1 MLOAD PUSH1 0xE5 PUSH1 0x2 EXP PUSH3 0x461BCD MUL DUP2 MSTORE PUSH1 0x20 PUSH1 0x4 DUP3 ADD MSTORE PUSH1 0x12 PUSH1 0x24 DUP3 ADD MSTORE PUSH1 0x0 DUP1 MLOAD PUSH1 0x20 PUSH2 0x2142 DUP4 CODECOPY DUP2 MLOAD SWAP2 MSTORE PUSH1 0x44 DUP3 ADD MSTORE SWAP1 MLOAD SWAP1 DUP2 SWAP1 SUB PUSH1 0x64 ADD SWAP1 REVERT JUMPDEST PUSH1 0x0 DUP1 SLOAD PUSH1 0xA0 PUSH1 0x2 EXP PUSH1 0xFF MUL NOT AND PUSH1 0xA0 PUSH1 0x2 EXP OR DUP2 SSTORE PUSH1 0x1 PUSH1 0xA0 PUSH1 0x2 EXP SUB DUP5 AND DUP2 MSTORE PUSH1 0x10 PUSH1 0x20 SWAP1 DUP2 MSTORE PUSH1 0x40 DUP1 DUP4 KECCAK256 CALLER DUP5 MSTORE SWAP1 SWAP2 MSTORE SWAP1 KECCAK256 SLOAD DUP3 GT ISZERO PUSH2 0x1192 JUMPI PUSH1 0x0 DUP1 REVERT JUMPDEST PUSH1 0x1 PUSH1 0xA0 PUSH1 0x2 EXP SUB DUP4 AND PUSH1 0x0 SWAP1 DUP2 MSTORE PUSH1 0xF PUSH1 0x20 SWAP1 DUP2 MSTORE PUSH1 0x40 DUP1 DUP4 KECCAK256 CALLER DUP5 MSTORE SWAP1 SWAP2 MSTORE SWAP1 KECCAK256 SLOAD PUSH4 0xFFFFFFFF TIMESTAMP AND GT PUSH2 0x11C7 JUMPI PUSH1 0x0 DUP1 REVERT JUMPDEST PUSH1 0x1 PUSH1 0xA0 PUSH1 0x2 EXP SUB DUP4 AND PUSH1 0x0 SWAP1 DUP2 MSTORE PUSH1 0x10 PUSH1 0x20 SWAP1 DUP2 MSTORE PUSH1 0x40 DUP1 DUP4 KECCAK256 CALLER DUP5 MSTORE SWAP1 SWAP2 MSTORE SWAP1 KECCAK256 SLOAD PUSH2 0x11F5 SWAP1 DUP4 PUSH2 0x1BA0 JUMP JUMPDEST PUSH1 0x1 PUSH1 0xA0 PUSH1 0x2 EXP SUB DUP5 AND PUSH1 0x0 DUP2 DUP2 MSTORE PUSH1 0x10 PUSH1 0x20 SWAP1 DUP2 MSTORE PUSH1 0x40 DUP1 DUP4 KECCAK256 CALLER DUP5 MSTORE DUP3 MSTORE DUP1 DUP4 KECCAK256 SWAP5 SWAP1 SWAP5 SSTORE SWAP2 DUP2 MSTORE PUSH1 0xE SWAP1 SWAP2 MSTORE KECCAK256 SLOAD PUSH2 0x1230 SWAP1 DUP4 PUSH2 0x1BA0 JUMP JUMPDEST PUSH1 0x1 PUSH1 0xA0 PUSH1 0x2 EXP SUB DUP5 AND PUSH1 0x0 DUP2 DUP2 MSTORE PUSH1 0xE PUSH1 0x20 SWAP1 DUP2 MSTORE PUSH1 0x40 DUP1 DUP4 KECCAK256 SWAP5 SWAP1 SWAP5 SSTORE DUP4 MLOAD PUSH32 0xA9059CBB00000000000000000000000000000000000000000000000000000000 DUP2 MSTORE CALLER PUSH1 0x4 DUP3 ADD MSTORE PUSH1 0x24 DUP2 ADD DUP8 SWAP1 MSTORE SWAP4 MLOAD SWAP3 SWAP4 PUSH4 0xA9059CBB SWAP4 PUSH1 0x44 DUP1 DUP4 ADD SWAP5 SWAP2 SWAP3 DUP4 SWAP1 SUB ADD SWAP1 DUP3 SWAP1 DUP8 DUP1 EXTCODESIZE ISZERO DUP1 ISZERO PUSH2 0x12A9 JUMPI PUSH1 0x0 DUP1 REVERT JUMPDEST POP GAS CALL ISZERO DUP1 ISZERO PUSH2 0x12BD JUMPI RETURNDATASIZE PUSH1 0x0 DUP1 RETURNDATACOPY RETURNDATASIZE PUSH1 0x0 REVERT JUMPDEST POP POP POP POP PUSH1 0x40 MLOAD RETURNDATASIZE PUSH1 0x20 DUP2 LT ISZERO PUSH2 0x12D3 JUMPI PUSH1 0x0 DUP1 REVERT JUMPDEST POP MLOAD ISZERO ISZERO PUSH2 0x12E0 JUMPI PUSH1 0x0 DUP1 REVERT JUMPDEST POP POP PUSH1 0x0 DUP1 SLOAD PUSH1 0xA0 PUSH1 0x2 EXP PUSH1 0xFF MUL NOT AND SWAP1 SSTORE POP PUSH1 0x1 SWAP1 JUMP JUMPDEST PUSH1 0xB SLOAD PUSH1 0x0 SWAP1 CALLVALUE SWAP1 DUP2 LT ISZERO PUSH2 0x130C JUMPI PUSH1 0x0 DUP1 REVERT JUMPDEST PUSH2 0x1316 DUP4 CALLVALUE PUSH2 0x1BE5 JUMP JUMPDEST ISZERO ISZERO PUSH2 0x1321 JUMPI PUSH1 0x0 DUP1 REVERT JUMPDEST POP PUSH1 0x1 SWAP3 SWAP2 POP POP JUMP JUMPDEST PUSH1 0x0 PUSH2 0x1338 DUP6 DUP6 DUP6 DUP6 PUSH2 0x14DC JUMP JUMPDEST ISZERO ISZERO PUSH2 0x1343 JUMPI PUSH1 0x0 DUP1 REVERT JUMPDEST POP PUSH1 0x1 SWAP5 SWAP4 POP POP POP POP JUMP JUMPDEST PUSH1 0xB SLOAD PUSH1 0x0 SWAP1 CALLVALUE SWAP1 DUP2 LT ISZERO PUSH2 0x1362 JUMPI PUSH1 0x0 DUP1 REVERT JUMPDEST PUSH2 0x136C CALLER CALLVALUE PUSH2 0x1BE5 JUMP JUMPDEST ISZERO ISZERO PUSH2 0x1377 JUMPI PUSH1 0x0 DUP1 REVERT JUMPDEST PUSH1 0x1 SWAP2 POP POP SWAP1 JUMP JUMPDEST PUSH1 0xF PUSH1 0x20 SWAP1 DUP2 MSTORE PUSH1 0x0 SWAP3 DUP4 MSTORE PUSH1 0x40 DUP1 DUP5 KECCAK256 SWAP1 SWAP2 MSTORE SWAP1 DUP3 MSTORE SWAP1 KECCAK256 SLOAD DUP2 JUMP JUMPDEST PUSH1 0x9 SLOAD PUSH1 0x1 PUSH1 0xA0 PUSH1 0x2 EXP SUB AND CALLER EQ PUSH2 0x13B3 JUMPI PUSH1 0x0 DUP1 REVERT JUMPDEST PUSH1 0x8 SLOAD PUSH1 0x40 DUP1 MLOAD PUSH1 0xE1 PUSH1 0x2 EXP PUSH4 0x447A3F7 MUL DUP2 MSTORE SWAP1 MLOAD PUSH1 0x1 PUSH1 0xA0 PUSH1 0x2 EXP SUB SWAP1 SWAP3 AND SWAP2 PUSH1 0x0 SWAP2 DUP4 SWAP2 PUSH4 0x88F47EE SWAP2 PUSH1 0x4 DUP1 DUP3 ADD SWAP3 PUSH1 0x20 SWAP3 SWAP1 SWAP2 SWAP1 DUP3 SWAP1 SUB ADD DUP2 DUP7 DUP1 EXTCODESIZE ISZERO DUP1 ISZERO PUSH2 0x1400 JUMPI PUSH1 0x0 DUP1 REVERT JUMPDEST POP GAS STATICCALL ISZERO DUP1 ISZERO PUSH2 0x1414 JUMPI RETURNDATASIZE PUSH1 0x0 DUP1 RETURNDATACOPY RETURNDATASIZE PUSH1 0x0 REVERT JUMPDEST POP POP POP POP PUSH1 0x40 MLOAD RETURNDATASIZE PUSH1 0x20 DUP2 LT ISZERO PUSH2 0x142A JUMPI PUSH1 0x0 DUP1 REVERT JUMPDEST POP MLOAD PUSH1 0x40 DUP1 MLOAD PUSH32 0x91F1DF8400000000000000000000000000000000000000000000000000000000 DUP2 MSTORE CALLER PUSH1 0x4 DUP3 ADD MSTORE ADDRESS PUSH1 0x24 DUP3 ADD MSTORE PUSH1 0x44 DUP2 ADD DUP7 SWAP1 MSTORE SWAP1 MLOAD SWAP2 SWAP3 POP PUSH1 0x1 PUSH1 0xA0 PUSH1 0x2 EXP SUB DUP4 AND SWAP2 PUSH4 0x91F1DF84 SWAP2 PUSH1 0x64 DUP1 DUP3 ADD SWAP3 PUSH1 0x20 SWAP3 SWAP1 SWAP2 SWAP1 DUP3 SWAP1 SUB ADD DUP2 PUSH1 0x0 DUP8 DUP1 EXTCODESIZE ISZERO DUP1 ISZERO PUSH2 0x149E JUMPI PUSH1 0x0 DUP1 REVERT JUMPDEST POP GAS CALL ISZERO DUP1 ISZERO PUSH2 0x14B2 JUMPI RETURNDATASIZE PUSH1 0x0 DUP1 RETURNDATACOPY RETURNDATASIZE PUSH1 0x0 REVERT JUMPDEST POP POP POP POP PUSH1 0x40 MLOAD RETURNDATASIZE PUSH1 0x20 DUP2 LT ISZERO PUSH2 0x14C8 JUMPI PUSH1 0x0 DUP1 REVERT JUMPDEST POP MLOAD ISZERO ISZERO PUSH2 0x14D5 JUMPI PUSH1 0x0 DUP1 REVERT JUMPDEST POP POP PUSH1 0xC SSTORE JUMP JUMPDEST PUSH1 0x1 PUSH1 0xA0 PUSH1 0x2 EXP SUB DUP1 DUP6 AND PUSH1 0x0 SWAP1 DUP2 MSTORE PUSH1 0xF PUSH1 0x20 SWAP1 DUP2 MSTORE PUSH1 0x40 DUP1 DUP4 KECCAK256 SWAP4 DUP8 AND DUP4 MSTORE SWAP3 SWAP1 MSTORE SWAP1 DUP2 KECCAK256 SLOAD TIMESTAMP PUSH1 0xFF DUP5 AND ADD LT ISZERO PUSH2 0x1515 JUMPI PUSH1 0x0 DUP1 REVERT JUMPDEST PUSH1 0x40 DUP1 MLOAD PUSH32 0x95EA7B300000000000000000000000000000000000000000000000000000000 DUP2 MSTORE ADDRESS PUSH1 0x4 DUP3 ADD MSTORE PUSH1 0x24 DUP2 ADD DUP6 SWAP1 MSTORE SWAP1 MLOAD PUSH1 0x1 PUSH1 0xA0 PUSH1 0x2 EXP SUB DUP8 AND SWAP2 PUSH4 0x95EA7B3 SWAP2 PUSH1 0x44 DUP1 DUP4 ADD SWAP3 PUSH1 0x20 SWAP3 SWAP2 SWAP1 DUP3 SWAP1 SUB ADD DUP2 PUSH1 0x0 DUP8 DUP1 EXTCODESIZE ISZERO DUP1 ISZERO PUSH2 0x157D JUMPI PUSH1 0x0 DUP1 REVERT JUMPDEST POP GAS CALL ISZERO DUP1 ISZERO PUSH2 0x1591 JUMPI RETURNDATASIZE PUSH1 0x0 DUP1 RETURNDATACOPY RETURNDATASIZE PUSH1 0x0 REVERT JUMPDEST POP POP POP POP PUSH1 0x40 MLOAD RETURNDATASIZE PUSH1 0x20 DUP2 LT ISZERO PUSH2 0x15A7 JUMPI PUSH1 0x0 DUP1 REVERT JUMPDEST POP MLOAD ISZERO ISZERO PUSH2 0x15B4 JUMPI PUSH1 0x0 DUP1 REVERT JUMPDEST PUSH1 0x40 DUP1 MLOAD PUSH32 0x23B872DD00000000000000000000000000000000000000000000000000000000 DUP2 MSTORE CALLER PUSH1 0x4 DUP3 ADD MSTORE ADDRESS PUSH1 0x24 DUP3 ADD MSTORE PUSH1 0x44 DUP2 ADD DUP6 SWAP1 MSTORE SWAP1 MLOAD PUSH1 0x1 PUSH1 0xA0 PUSH1 0x2 EXP SUB DUP8 AND SWAP2 PUSH4 0x23B872DD SWAP2 PUSH1 0x64 DUP1 DUP4 ADD SWAP3 PUSH1 0x20 SWAP3 SWAP2 SWAP1 DUP3 SWAP1 SUB ADD DUP2 PUSH1 0x0 DUP8 DUP1 EXTCODESIZE ISZERO DUP1 ISZERO PUSH2 0x1622 JUMPI PUSH1 0x0 DUP1 REVERT JUMPDEST POP GAS CALL ISZERO DUP1 ISZERO PUSH2 0x1636 JUMPI RETURNDATASIZE PUSH1 0x0 DUP1 RETURNDATACOPY RETURNDATASIZE PUSH1 0x0 REVERT JUMPDEST POP POP POP POP PUSH1 0x40 MLOAD RETURNDATASIZE PUSH1 0x20 DUP2 LT ISZERO PUSH2 0x164C JUMPI PUSH1 0x0 DUP1 REVERT JUMPDEST POP MLOAD ISZERO ISZERO PUSH2 0x1659 JUMPI PUSH1 0x0 DUP1 REVERT JUMPDEST PUSH1 0x1 PUSH1 0xA0 PUSH1 0x2 EXP SUB DUP1 DUP7 AND PUSH1 0x0 SWAP1 DUP2 MSTORE PUSH1 0x10 PUSH1 0x20 SWAP1 DUP2 MSTORE PUSH1 0x40 DUP1 DUP4 KECCAK256 SWAP4 DUP9 AND DUP4 MSTORE SWAP3 SWAP1 MSTORE KECCAK256 SLOAD PUSH2 0x1689 SWAP1 DUP5 PUSH2 0x1C3A JUMP JUMPDEST PUSH1 0x1 PUSH1 0xA0 PUSH1 0x2 EXP SUB DUP1 DUP8 AND PUSH1 0x0 DUP2 DUP2 MSTORE PUSH1 0x10 PUSH1 0x20 SWAP1 DUP2 MSTORE PUSH1 0x40 DUP1 DUP4 KECCAK256 SWAP5 DUP11 AND DUP4 MSTORE SWAP4 DUP2 MSTORE DUP4 DUP3 KECCAK256 SWAP5 SWAP1 SWAP5 SSTORE SWAP1 DUP2 MSTORE PUSH1 0xE SWAP1 SWAP3 MSTORE SWAP1 KECCAK256 SLOAD PUSH2 0x16C9 SWAP1 DUP5 PUSH2 0x1C3A JUMP JUMPDEST PUSH1 0x1 PUSH1 0xA0 PUSH1 0x2 EXP SUB DUP7 AND PUSH1 0x0 SWAP1 DUP2 MSTORE PUSH1 0xE PUSH1 0x20 MSTORE PUSH1 0x40 SWAP1 KECCAK256 SSTORE PUSH2 0x16EF TIMESTAMP PUSH1 0xFF DUP5 AND PUSH2 0x1C3A JUMP JUMPDEST PUSH1 0x1 PUSH1 0xA0 PUSH1 0x2 EXP SUB DUP1 DUP8 AND PUSH1 0x0 SWAP1 DUP2 MSTORE PUSH1 0xF PUSH1 0x20 SWAP1 DUP2 MSTORE PUSH1 0x40 DUP1 DUP4 KECCAK256 SWAP4 DUP10 AND DUP4 MSTORE SWAP3 SWAP1 MSTORE KECCAK256 SSTORE POP PUSH1 0x1 SWAP5 SWAP4 POP POP POP POP JUMP JUMPDEST PUSH1 0x0 ADDRESS BALANCE GT ISZERO PUSH2 0x1736 JUMPI PUSH2 0x1732 PUSH2 0x1BB2 JUMP JUMPDEST PUSH1 0x5 SSTORE JUMPDEST JUMP JUMPDEST PUSH1 0x0 DUP1 PUSH1 0x0 DUP1 PUSH1 0x0 PUSH2 0x2710 PUSH2 0x1752 DUP8 PUSH1 0x1 PUSH1 0x5 ADD SLOAD PUSH2 0x1C5E JUMP JUMPDEST DUP2 ISZERO ISZERO PUSH2 0x175B JUMPI INVALID JUMPDEST DIV SWAP1 POP PUSH1 0x64 PUSH2 0x176F DUP3 PUSH1 0x8 PUSH1 0x4 ADD SLOAD PUSH2 0x1C5E JUMP JUMPDEST DUP2 ISZERO ISZERO PUSH2 0x1778 JUMPI INVALID JUMPDEST DIV SWAP5 POP DUP5 PUSH2 0x1786 DUP3 DUP7 PUSH2 0x1BA0 JUMP JUMPDEST SWAP5 POP DUP5 PUSH2 0x1793 DUP9 DUP5 PUSH2 0x1BA0 JUMP JUMPDEST SWAP5 POP DUP5 PUSH3 0xF4240 PUSH2 0x17A9 DUP8 PUSH1 0x1 PUSH1 0x4 ADD SLOAD PUSH2 0x1C5E JUMP JUMPDEST DUP2 ISZERO ISZERO PUSH2 0x17B2 JUMPI INVALID JUMPDEST SWAP4 SWAP11 SWAP3 SWAP10 POP SWAP1 SWAP8 POP SWAP1 SWAP2 DIV SWAP5 POP SWAP3 POP POP POP JUMP JUMPDEST PUSH1 0x1 DUP1 SLOAD PUSH1 0x40 DUP1 MLOAD PUSH1 0x20 PUSH1 0x1F PUSH1 0x2 PUSH1 0x0 NOT PUSH2 0x100 DUP8 DUP10 AND ISZERO MUL ADD SWAP1 SWAP6 AND SWAP5 SWAP1 SWAP5 DIV SWAP4 DUP5 ADD DUP2 SWAP1 DIV DUP2 MUL DUP3 ADD DUP2 ADD SWAP1 SWAP3 MSTORE DUP3 DUP2 MSTORE PUSH1 0x60 SWAP4 SWAP1 SWAP3 SWAP1 SWAP2 DUP4 ADD DUP3 DUP3 DUP1 ISZERO PUSH2 0x1850 JUMPI DUP1 PUSH1 0x1F LT PUSH2 0x1825 JUMPI PUSH2 0x100 DUP1 DUP4 SLOAD DIV MUL DUP4 MSTORE SWAP2 PUSH1 0x20 ADD SWAP2 PUSH2 0x1850 JUMP JUMPDEST DUP3 ADD SWAP2 SWAP1 PUSH1 0x0 MSTORE PUSH1 0x20 PUSH1 0x0 KECCAK256 SWAP1 JUMPDEST DUP2 SLOAD DUP2 MSTORE SWAP1 PUSH1 0x1 ADD SWAP1 PUSH1 0x20 ADD DUP1 DUP4 GT PUSH2 0x1833 JUMPI DUP3 SWAP1 SUB PUSH1 0x1F AND DUP3 ADD SWAP2 JUMPDEST POP POP PUSH1 0x2 DUP1 SLOAD PUSH1 0x40 DUP1 MLOAD PUSH1 0x20 PUSH1 0x1F PUSH1 0x0 NOT PUSH2 0x100 PUSH1 0x1 DUP8 AND ISZERO MUL ADD SWAP1 SWAP5 AND DUP6 SWAP1 DIV SWAP4 DUP5 ADD DUP2 SWAP1 DIV DUP2 MUL DUP3 ADD DUP2 ADD SWAP1 SWAP3 MSTORE DUP3 DUP2 MSTORE SWAP7 SWAP8 POP PUSH1 0x60 SWAP7 SWAP6 POP SWAP2 SWAP4 POP SWAP2 POP DUP4 ADD DUP3 DUP3 DUP1 ISZERO PUSH2 0x18E1 JUMPI DUP1 PUSH1 0x1F LT PUSH2 0x18B6 JUMPI PUSH2 0x100 DUP1 DUP4 SLOAD DIV MUL DUP4 MSTORE SWAP2 PUSH1 0x20 ADD SWAP2 PUSH2 0x18E1 JUMP JUMPDEST DUP3 ADD SWAP2 SWAP1 PUSH1 0x0 MSTORE PUSH1 0x20 PUSH1 0x0 KECCAK256 SWAP1 JUMPDEST DUP2 SLOAD DUP2 MSTORE SWAP1 PUSH1 0x1 ADD SWAP1 PUSH1 0x20 ADD DUP1 DUP4 GT PUSH2 0x18C4 JUMPI DUP3 SWAP1 SUB PUSH1 0x1F AND DUP3 ADD SWAP2 JUMPDEST POP POP PUSH1 0x8 SLOAD PUSH1 0x40 DUP1 MLOAD PUSH1 0xE1 PUSH1 0x2 EXP PUSH4 0x447A3F7 MUL DUP2 MSTORE SWAP1 MLOAD SWAP6 SWAP7 POP PUSH1 0x1 PUSH1 0xA0 PUSH1 0x2 EXP SUB SWAP1 SWAP2 AND SWAP5 PUSH1 0x0 SWAP5 POP DUP6 SWAP4 POP PUSH4 0x88F47EE SWAP3 POP PUSH1 0x4 DUP1 DUP4 ADD SWAP3 PUSH1 0x20 SWAP3 SWAP2 SWAP1 DUP3 SWAP1 SUB ADD DUP2 DUP7 DUP1 EXTCODESIZE ISZERO DUP1 ISZERO PUSH2 0x1935 JUMPI PUSH1 0x0 DUP1 REVERT JUMPDEST POP GAS STATICCALL ISZERO DUP1 ISZERO PUSH2 0x1949 JUMPI RETURNDATASIZE PUSH1 0x0 DUP1 RETURNDATACOPY RETURNDATASIZE PUSH1 0x0 REVERT JUMPDEST POP POP POP POP PUSH1 0x40 MLOAD RETURNDATASIZE PUSH1 0x20 DUP2 LT ISZERO PUSH2 0x195F JUMPI PUSH1 0x0 DUP1 REVERT JUMPDEST POP MLOAD PUSH1 0x40 MLOAD PUSH32 0xFEE9DA4A00000000000000000000000000000000000000000000000000000000 DUP2 MSTORE CALLER PUSH1 0x4 DUP3 ADD DUP2 DUP2 MSTORE ADDRESS PUSH1 0x24 DUP5 ADD DUP2 SWAP1 MSTORE PUSH1 0x44 DUP5 ADD DUP12 SWAP1 MSTORE PUSH1 0x64 DUP5 ADD DUP11 SWAP1 MSTORE PUSH1 0xC0 PUSH1 0x84 DUP6 ADD SWAP1 DUP2 MSTORE DUP10 MLOAD PUSH1 0xC4 DUP7 ADD MSTORE DUP10 MLOAD SWAP6 SWAP7 POP PUSH1 0x1 PUSH1 0xA0 PUSH1 0x2 EXP SUB DUP8 AND SWAP6 PUSH4 0xFEE9DA4A SWAP6 SWAP3 SWAP4 DUP14 SWAP4 DUP14 SWAP4 DUP14 SWAP4 DUP14 SWAP4 SWAP3 PUSH1 0xA4 DUP2 ADD SWAP2 PUSH1 0xE4 SWAP1 SWAP2 ADD SWAP1 PUSH1 0x20 DUP8 ADD SWAP1 DUP1 DUP4 DUP4 PUSH1 0x0 JUMPDEST DUP4 DUP2 LT ISZERO PUSH2 0x1A04 JUMPI DUP2 DUP2 ADD MLOAD DUP4 DUP3 ADD MSTORE PUSH1 0x20 ADD PUSH2 0x19EC JUMP JUMPDEST POP POP POP POP SWAP1 POP SWAP1 DUP2 ADD SWAP1 PUSH1 0x1F AND DUP1 ISZERO PUSH2 0x1A31 JUMPI DUP1 DUP3 SUB DUP1 MLOAD PUSH1 0x1 DUP4 PUSH1 0x20 SUB PUSH2 0x100 EXP SUB NOT AND DUP2 MSTORE PUSH1 0x20 ADD SWAP2 POP JUMPDEST POP DUP4 DUP2 SUB DUP3 MSTORE DUP5 MLOAD DUP2 MSTORE DUP5 MLOAD PUSH1 0x20 SWAP2 DUP3 ADD SWAP2 DUP7 ADD SWAP1 DUP1 DUP4 DUP4 PUSH1 0x0 JUMPDEST DUP4 DUP2 LT ISZERO PUSH2 0x1A64 JUMPI DUP2 DUP2 ADD MLOAD DUP4 DUP3 ADD MSTORE PUSH1 0x20 ADD PUSH2 0x1A4C JUMP JUMPDEST POP POP POP POP SWAP1 POP SWAP1 DUP2 ADD SWAP1 PUSH1 0x1F AND DUP1 ISZERO PUSH2 0x1A91 JUMPI DUP1 DUP3 SUB DUP1 MLOAD PUSH1 0x1 DUP4 PUSH1 0x20 SUB PUSH2 0x100 EXP SUB NOT AND DUP2 MSTORE PUSH1 0x20 ADD SWAP2 POP JUMPDEST POP SWAP9 POP POP POP POP POP POP POP POP POP PUSH1 0x20 PUSH1 0x40 MLOAD DUP1 DUP4 SUB DUP2 PUSH1 0x0 DUP8 DUP1 EXTCODESIZE ISZERO DUP1 ISZERO PUSH2 0x1AB6 JUMPI PUSH1 0x0 DUP1 REVERT JUMPDEST POP GAS CALL ISZERO DUP1 ISZERO PUSH2 0x1ACA JUMPI RETURNDATASIZE PUSH1 0x0 DUP1 RETURNDATACOPY RETURNDATASIZE PUSH1 0x0 REVERT JUMPDEST POP POP POP POP PUSH1 0x40 MLOAD RETURNDATASIZE PUSH1 0x20 DUP2 LT ISZERO PUSH2 0x1AE0 JUMPI PUSH1 0x0 DUP1 REVERT JUMPDEST POP MLOAD ISZERO ISZERO PUSH2 0x1AED JUMPI PUSH1 0x0 DUP1 REVERT JUMPDEST POP POP POP POP POP POP JUMP JUMPDEST PUSH1 0x1 PUSH1 0xA0 PUSH1 0x2 EXP SUB DUP5 AND PUSH1 0x0 SWAP1 DUP2 MSTORE PUSH1 0xD PUSH1 0x20 MSTORE PUSH1 0x40 SWAP1 KECCAK256 SLOAD PUSH2 0x1B18 SWAP1 DUP5 PUSH2 0x1BA0 JUMP JUMPDEST PUSH1 0x1 PUSH1 0xA0 PUSH1 0x2 EXP SUB DUP1 DUP7 AND PUSH1 0x0 SWAP1 DUP2 MSTORE PUSH1 0xD PUSH1 0x20 MSTORE PUSH1 0x40 DUP1 DUP3 KECCAK256 SWAP4 SWAP1 SWAP4 SSTORE PUSH1 0xA SLOAD SWAP1 SWAP2 AND DUP2 MSTORE KECCAK256 SLOAD PUSH2 0x1B4A SWAP1 DUP4 PUSH2 0x1C3A JUMP JUMPDEST PUSH1 0xA SLOAD PUSH1 0x1 PUSH1 0xA0 PUSH1 0x2 EXP SUB SWAP1 DUP2 AND PUSH1 0x0 SWAP1 DUP2 MSTORE PUSH1 0xD PUSH1 0x20 MSTORE PUSH1 0x40 DUP1 DUP3 KECCAK256 SWAP4 SWAP1 SWAP4 SSTORE PUSH1 0x9 SLOAD SWAP1 SWAP2 AND DUP2 MSTORE KECCAK256 SLOAD PUSH2 0x1B7F SWAP1 DUP3 PUSH2 0x1C3A JUMP JUMPDEST PUSH1 0x9 SLOAD PUSH1 0x1 PUSH1 0xA0 PUSH1 0x2 EXP SUB AND PUSH1 0x0 SWAP1 DUP2 MSTORE PUSH1 0xD PUSH1 0x20 MSTORE PUSH1 0x40 SWAP1 KECCAK256 SSTORE POP POP POP POP JUMP JUMPDEST PUSH1 0x0 DUP3 DUP3 GT ISZERO PUSH2 0x1BAC JUMPI INVALID JUMPDEST POP SWAP1 SUB SWAP1 JUMP JUMPDEST PUSH1 0x4 SLOAD PUSH1 0x0 SWAP1 CALLVALUE ADDRESS BALANCE SUB SWAP1 ISZERO PUSH2 0x1BDB JUMPI PUSH2 0x1BD6 PUSH3 0xF4240 DUP3 MUL PUSH1 0x1 PUSH1 0x3 ADD SLOAD PUSH2 0x1C7F JUMP JUMPDEST PUSH2 0x1BDF JUMP JUMPDEST PUSH1 0x5 SLOAD JUMPDEST SWAP2 POP POP SWAP1 JUMP JUMPDEST PUSH1 0x0 PUSH2 0x1BEF PUSH2 0x1720 JUMP JUMPDEST PUSH1 0x0 DUP1 PUSH1 0x0 DUP1 PUSH2 0x1BFE DUP7 PUSH2 0x1CB4 JUMP JUMPDEST SWAP3 SWAP7 POP SWAP1 SWAP5 POP SWAP3 POP SWAP1 POP PUSH2 0x1C11 DUP2 PUSH2 0x1D36 JUMP JUMPDEST PUSH2 0x1C1D DUP8 DUP3 DUP6 DUP6 PUSH2 0x2067 JUMP JUMPDEST PUSH1 0x4 SLOAD PUSH2 0x1C2A SWAP1 DUP6 PUSH2 0x1C3A JUMP JUMPDEST PUSH1 0x4 SSTORE POP PUSH1 0x1 SWAP7 SWAP6 POP POP POP POP POP POP JUMP JUMPDEST PUSH1 0x0 DUP3 DUP3 ADD DUP4 DUP2 LT DUP1 ISZERO SWAP1 PUSH2 0x1C4F JUMPI POP DUP3 DUP2 LT ISZERO JUMPDEST ISZERO ISZERO PUSH2 0x1C57 JUMPI INVALID JUMPDEST SWAP4 SWAP3 POP POP POP JUMP JUMPDEST PUSH1 0x0 DUP3 DUP3 MUL DUP4 ISZERO DUP1 PUSH2 0x1C4F JUMPI POP DUP3 DUP5 DUP3 DUP2 ISZERO ISZERO PUSH2 0x1C77 JUMPI INVALID JUMPDEST DIV EQ PUSH2 0x1C57 JUMPI INVALID JUMPDEST PUSH1 0x0 DUP1 DUP3 GT PUSH2 0x1C8A JUMPI INVALID JUMPDEST PUSH1 0x0 DUP3 DUP5 DUP2 ISZERO ISZERO PUSH2 0x1C97 JUMPI INVALID JUMPDEST DIV SWAP1 POP DUP3 DUP5 DUP2 ISZERO ISZERO PUSH2 0x1CA5 JUMPI INVALID JUMPDEST MOD DUP2 DUP5 MUL ADD DUP5 EQ ISZERO ISZERO PUSH2 0x1C57 JUMPI INVALID JUMPDEST PUSH1 0x0 DUP1 PUSH1 0x0 DUP1 PUSH2 0x1CCE PUSH3 0xF4240 DUP7 MUL PUSH1 0x1 PUSH1 0x4 ADD SLOAD PUSH2 0x1C7F JUMP JUMPDEST SWAP4 POP PUSH1 0x0 PUSH2 0x2710 PUSH2 0x1CE4 DUP7 PUSH1 0x1 PUSH1 0x5 ADD SLOAD PUSH2 0x1C5E JUMP JUMPDEST DUP2 ISZERO ISZERO PUSH2 0x1CED JUMPI INVALID JUMPDEST DIV SWAP1 POP DUP5 PUSH1 0x64 PUSH2 0x1D02 DUP4 PUSH1 0x8 PUSH1 0x4 ADD SLOAD PUSH2 0x1C5E JUMP JUMPDEST DUP2 ISZERO ISZERO PUSH2 0x1D0B JUMPI INVALID JUMPDEST DIV SWAP5 POP DUP5 PUSH2 0x1D19 DUP4 DUP8 PUSH2 0x1BA0 JUMP JUMPDEST SWAP5 POP DUP5 PUSH2 0x1D26 DUP9 DUP6 PUSH2 0x1BA0 JUMP JUMPDEST SWAP3 SWAP10 SWAP2 SWAP9 POP SWAP7 POP SWAP1 SWAP5 POP SWAP3 POP POP POP JUMP JUMPDEST PUSH1 0x1 DUP1 SLOAD PUSH1 0x40 DUP1 MLOAD PUSH1 0x20 PUSH1 0x1F PUSH1 0x2 PUSH1 0x0 NOT PUSH2 0x100 DUP8 DUP10 AND ISZERO MUL ADD SWAP1 SWAP6 AND SWAP5 SWAP1 SWAP5 DIV SWAP4 DUP5 ADD DUP2 SWAP1 DIV DUP2 MUL DUP3 ADD DUP2 ADD SWAP1 SWAP3 MSTORE DUP3 DUP2 MSTORE PUSH1 0x60 SWAP4 SWAP1 SWAP3 SWAP1 SWAP2 DUP4 ADD DUP3 DUP3 DUP1 ISZERO PUSH2 0x1DC1 JUMPI DUP1 PUSH1 0x1F LT PUSH2 0x1D96 JUMPI PUSH2 0x100 DUP1 DUP4 SLOAD DIV MUL DUP4 MSTORE SWAP2 PUSH1 0x20 ADD SWAP2 PUSH2 0x1DC1 JUMP JUMPDEST DUP3 ADD SWAP2 SWAP1 PUSH1 0x0 MSTORE PUSH1 0x20 PUSH1 0x0 KECCAK256 SWAP1 JUMPDEST DUP2 SLOAD DUP2 MSTORE SWAP1 PUSH1 0x1 ADD SWAP1 PUSH1 0x20 ADD DUP1 DUP4 GT PUSH2 0x1DA4 JUMPI DUP3 SWAP1 SUB PUSH1 0x1F AND DUP3 ADD SWAP2 JUMPDEST POP POP PUSH1 0x2 DUP1 SLOAD PUSH1 0x40 DUP1 MLOAD PUSH1 0x20 PUSH1 0x1F PUSH1 0x0 NOT PUSH2 0x100 PUSH1 0x1 DUP8 AND ISZERO MUL ADD SWAP1 SWAP5 AND DUP6 SWAP1 DIV SWAP4 DUP5 ADD DUP2 SWAP1 DIV DUP2 MUL DUP3 ADD DUP2 ADD SWAP1 SWAP3 MSTORE DUP3 DUP2 MSTORE SWAP7 SWAP8 POP PUSH1 0x60 SWAP7 SWAP6 POP SWAP2 SWAP4 POP SWAP2 POP DUP4 ADD DUP3 DUP3 DUP1 ISZERO PUSH2 0x1E52 JUMPI DUP1 PUSH1 0x1F LT PUSH2 0x1E27 JUMPI PUSH2 0x100 DUP1 DUP4 SLOAD DIV MUL DUP4 MSTORE SWAP2 PUSH1 0x20 ADD SWAP2 PUSH2 0x1E52 JUMP JUMPDEST DUP3 ADD SWAP2 SWAP1 PUSH1 0x0 MSTORE PUSH1 0x20 PUSH1 0x0 KECCAK256 SWAP1 JUMPDEST DUP2 SLOAD DUP2 MSTORE SWAP1 PUSH1 0x1 ADD SWAP1 PUSH1 0x20 ADD DUP1 DUP4 GT PUSH2 0x1E35 JUMPI DUP3 SWAP1 SUB PUSH1 0x1F AND DUP3 ADD SWAP2 JUMPDEST POP POP PUSH1 0x8 SLOAD PUSH1 0x40 DUP1 MLOAD PUSH1 0xE1 PUSH1 0x2 EXP PUSH4 0x447A3F7 MUL DUP2 MSTORE SWAP1 MLOAD SWAP6 SWAP7 POP PUSH1 0x1 PUSH1 0xA0 PUSH1 0x2 EXP SUB SWAP1 SWAP2 AND SWAP5 PUSH1 0x0 SWAP5 POP DUP6 SWAP4 POP PUSH4 0x88F47EE SWAP3 POP PUSH1 0x4 DUP1 DUP4 ADD SWAP3 PUSH1 0x20 SWAP3 SWAP2 SWAP1 DUP3 SWAP1 SUB ADD DUP2 DUP7 DUP1 EXTCODESIZE ISZERO DUP1 ISZERO PUSH2 0x1EA6 JUMPI PUSH1 0x0 DUP1 REVERT JUMPDEST POP GAS STATICCALL ISZERO DUP1 ISZERO PUSH2 0x1EBA JUMPI RETURNDATASIZE PUSH1 0x0 DUP1 RETURNDATACOPY RETURNDATASIZE PUSH1 0x0 REVERT JUMPDEST POP POP POP POP PUSH1 0x40 MLOAD RETURNDATASIZE PUSH1 0x20 DUP2 LT ISZERO PUSH2 0x1ED0 JUMPI PUSH1 0x0 DUP1 REVERT JUMPDEST POP MLOAD PUSH1 0x40 MLOAD PUSH32 0x2F2D7BF400000000000000000000000000000000000000000000000000000000 DUP2 MSTORE CALLER PUSH1 0x4 DUP3 ADD DUP2 DUP2 MSTORE ADDRESS PUSH1 0x24 DUP5 ADD DUP2 SWAP1 MSTORE CALLVALUE PUSH1 0x44 DUP6 ADD DUP2 SWAP1 MSTORE PUSH1 0x64 DUP6 ADD DUP12 SWAP1 MSTORE PUSH1 0xC0 PUSH1 0x84 DUP7 ADD SWAP1 DUP2 MSTORE DUP11 MLOAD PUSH1 0xC4 DUP8 ADD MSTORE DUP11 MLOAD SWAP7 SWAP8 POP PUSH1 0x1 PUSH1 0xA0 PUSH1 0x2 EXP SUB DUP9 AND SWAP7 PUSH4 0x2F2D7BF4 SWAP7 SWAP4 SWAP5 SWAP3 SWAP4 DUP14 SWAP4 DUP14 SWAP4 DUP14 SWAP4 SWAP2 SWAP3 SWAP1 SWAP2 PUSH1 0xA4 DUP3 ADD SWAP2 PUSH1 0xE4 ADD SWAP1 PUSH1 0x20 DUP8 ADD SWAP1 DUP1 DUP4 DUP4 PUSH1 0x0 JUMPDEST DUP4 DUP2 LT ISZERO PUSH2 0x1F77 JUMPI DUP2 DUP2 ADD MLOAD DUP4 DUP3 ADD MSTORE PUSH1 0x20 ADD PUSH2 0x1F5F JUMP JUMPDEST POP POP POP POP SWAP1 POP SWAP1 DUP2 ADD SWAP1 PUSH1 0x1F AND DUP1 ISZERO PUSH2 0x1FA4 JUMPI DUP1 DUP3 SUB DUP1 MLOAD PUSH1 0x1 DUP4 PUSH1 0x20 SUB PUSH2 0x100 EXP SUB NOT AND DUP2 MSTORE PUSH1 0x20 ADD SWAP2 POP JUMPDEST POP DUP4 DUP2 SUB DUP3 MSTORE DUP5 MLOAD DUP2 MSTORE DUP5 MLOAD PUSH1 0x20 SWAP2 DUP3 ADD SWAP2 DUP7 ADD SWAP1 DUP1 DUP4 DUP4 PUSH1 0x0 JUMPDEST DUP4 DUP2 LT ISZERO PUSH2 0x1FD7 JUMPI DUP2 DUP2 ADD MLOAD DUP4 DUP3 ADD MSTORE PUSH1 0x20 ADD PUSH2 0x1FBF JUMP JUMPDEST POP POP POP POP SWAP1 POP SWAP1 DUP2 ADD SWAP1 PUSH1 0x1F AND DUP1 ISZERO PUSH2 0x2004 JUMPI DUP1 DUP3 SUB DUP1 MLOAD PUSH1 0x1 DUP4 PUSH1 0x20 SUB PUSH2 0x100 EXP SUB NOT AND DUP2 MSTORE PUSH1 0x20 ADD SWAP2 POP JUMPDEST POP SWAP9 POP POP POP POP POP POP POP POP POP PUSH1 0x20 PUSH1 0x40 MLOAD DUP1 DUP4 SUB DUP2 PUSH1 0x0 DUP8 DUP1 EXTCODESIZE ISZERO DUP1 ISZERO PUSH2 0x2029 JUMPI PUSH1 0x0 DUP1 REVERT JUMPDEST POP GAS CALL ISZERO DUP1 ISZERO PUSH2 0x203D JUMPI RETURNDATASIZE PUSH1 0x0 DUP1 RETURNDATACOPY RETURNDATASIZE PUSH1 0x0 REVERT JUMPDEST POP POP POP POP PUSH1 0x40 MLOAD RETURNDATASIZE PUSH1 0x20 DUP2 LT ISZERO PUSH2 0x2053 JUMPI PUSH1 0x0 DUP1 REVERT JUMPDEST POP MLOAD ISZERO ISZERO PUSH2 0x2060 JUMPI PUSH1 0x0 DUP1 REVERT JUMPDEST POP POP POP POP POP JUMP JUMPDEST PUSH1 0x1 PUSH1 0xA0 PUSH1 0x2 EXP SUB DUP5 AND PUSH1 0x0 SWAP1 DUP2 MSTORE PUSH1 0xD PUSH1 0x20 MSTORE PUSH1 0x40 SWAP1 KECCAK256 SLOAD PUSH2 0x208A SWAP1 DUP5 PUSH2 0x1C3A JUMP JUMPDEST PUSH1 0x1 PUSH1 0xA0 PUSH1 0x2 EXP SUB DUP1 DUP7 AND PUSH1 0x0 SWAP1 DUP2 MSTORE PUSH1 0xD PUSH1 0x20 MSTORE PUSH1 0x40 DUP1 DUP3 KECCAK256 SWAP4 SWAP1 SWAP4 SSTORE PUSH1 0xA SLOAD SWAP1 SWAP2 AND DUP2 MSTORE KECCAK256 SLOAD PUSH2 0x20BC SWAP1 DUP4 PUSH2 0x1C3A JUMP JUMPDEST PUSH1 0xA SLOAD PUSH1 0x1 PUSH1 0xA0 PUSH1 0x2 EXP SUB SWAP1 DUP2 AND PUSH1 0x0 SWAP1 DUP2 MSTORE PUSH1 0xD PUSH1 0x20 MSTORE PUSH1 0x40 DUP1 DUP3 KECCAK256 SWAP4 SWAP1 SWAP4 SSTORE PUSH1 0x9 SLOAD SWAP1 SWAP2 AND DUP2 MSTORE KECCAK256 SLOAD PUSH2 0x20F1 SWAP1 DUP3 PUSH2 0x1C3A JUMP JUMPDEST PUSH1 0x9 SLOAD PUSH1 0x1 PUSH1 0xA0 PUSH1 0x2 EXP SUB SWAP1 DUP2 AND PUSH1 0x0 SWAP1 DUP2 MSTORE PUSH1 0xD PUSH1 0x20 MSTORE PUSH1 0x40 DUP1 DUP3 KECCAK256 SWAP4 SWAP1 SWAP4 SSTORE PUSH1 0x7 SLOAD SWAP7 SWAP1 SWAP2 AND DUP2 MSTORE KECCAK256 PUSH1 0x1 ADD DUP1 SLOAD PUSH4 0xFFFFFFFF NOT AND PUSH4 0xFFFFFFFF SWAP6 DUP7 AND TIMESTAMP ADD SWAP1 SWAP6 AND SWAP5 SWAP1 SWAP5 OR SWAP1 SWAP4 SSTORE POP POP POP JUMP INVALID MSTORE GASLIMIT GASLIMIT 0x4e SLOAD MSTORE COINBASE 0x4e NUMBER MSIZE 0x5f 0x49 0x4c 0x4c GASLIMIT 0x47 COINBASE 0x4c STOP STOP STOP STOP STOP STOP STOP STOP STOP STOP STOP STOP STOP STOP LOG1 PUSH6 0x627A7A723058 KECCAK256 ORIGIN 0xc9 PUSH8 0x83A3F7E7769EAD54 PUSH5 0x86CDE300B0 0xe3 0xed LOG2 PUSH30 0x8CCE5E7493192C550F2BE30029A165627A7A72305820240D4E569021D132 LOG4 0xed LOG1 0x1f CODESIZE PUSH25 0x5929BE78A82515332F20545741A54B2EC22600290000000000 "
			}
		}
	},
	"sourceTreeHashHex": "0xbf4ca9d15eacb4bb77e73d35180eb68098a38d3d20eab3355ecd1b464500e93e",
	"compiler": {
		"name": "solc",
		"version": "0.5.0+commit.1d4f565a",
		"settings": {
			"remappings": [],
			"optimizer": {
				"enabled": true,
				"runs": 200
			},
			"outputSelection": {
				"*": {
					"*": [
						"abi",
						"devdoc",
						"evm.bytecode.object",
						"evm.bytecode.sourceMap",
						"evm.deployedBytecode.object",
						"evm.deployedBytecode.sourceMap"
					]
				}
			}
		}
	},
	"chains": {}
}