{
	"schemaVersion": "2.0.0",
	"contractName": "ZeroExExchangeHandler",
	"compilerOutput": {
		"abi": [
			{
				"constant": false,
				"inputs": [
					{
						"name": "genericPayload",
						"type": "bytes"
					},
					{
						"name": "availableToSpend",
						"type": "uint256"
					},
					{
						"name": "targetAmount",
						"type": "uint256"
					},
					{
						"name": "targetAmountIsSource",
						"type": "bool"
					}
				],
				"name": "performOrder",
				"outputs": [
					{
						"name": "amountSpentOnOrder",
						"type": "uint256"
					},
					{
						"name": "amountReceivedFromOrder",
						"type": "uint256"
					}
				],
				"payable": true,
				"stateMutability": "payable",
				"type": "function"
			},
			{
				"constant": false,
				"inputs": [],
				"name": "unpause",
				"outputs": [],
				"payable": false,
				"stateMutability": "nonpayable",
				"type": "function"
			},
			{
				"constant": true,
				"inputs": [],
				"name": "paused",
				"outputs": [
					{
						"name": "",
						"type": "bool"
					}
				],
				"payable": false,
				"stateMutability": "view",
				"type": "function"
			},
			{
				"constant": false,
				"inputs": [],
				"name": "renounceOwnership",
				"outputs": [],
				"payable": false,
				"stateMutability": "nonpayable",
				"type": "function"
			},
			{
				"constant": false,
				"inputs": [],
				"name": "pause",
				"outputs": [],
				"payable": false,
				"stateMutability": "nonpayable",
				"type": "function"
			},
			{
				"constant": true,
				"inputs": [],
				"name": "owner",
				"outputs": [
					{
						"name": "",
						"type": "address"
					}
				],
				"payable": false,
				"stateMutability": "view",
				"type": "function"
			},
			{
				"constant": false,
				"inputs": [
					{
						"name": "_token",
						"type": "address"
					},
					{
						"name": "_amount",
						"type": "uint256"
					}
				],
				"name": "withdrawToken",
				"outputs": [
					{
						"name": "",
						"type": "bool"
					}
				],
				"payable": false,
				"stateMutability": "nonpayable",
				"type": "function"
			},
			{
				"constant": true,
				"inputs": [],
				"name": "exchange",
				"outputs": [
					{
						"name": "",
						"type": "address"
					}
				],
				"payable": false,
				"stateMutability": "view",
				"type": "function"
			},
			{
				"constant": false,
				"inputs": [
					{
						"name": "_amount",
						"type": "uint256"
					}
				],
				"name": "withdrawETH",
				"outputs": [],
				"payable": false,
				"stateMutability": "nonpayable",
				"type": "function"
			},
			{
				"constant": false,
				"inputs": [
					{
						"name": "_newOwner",
						"type": "address"
					}
				],
				"name": "transferOwnership",
				"outputs": [],
				"payable": false,
				"stateMutability": "nonpayable",
				"type": "function"
			},
			{
				"inputs": [
					{
						"name": "_exchange",
						"type": "address"
					},
					{
						"name": "_weth",
						"type": "address"
					}
				],
				"payable": false,
				"stateMutability": "nonpayable",
				"type": "constructor"
			},
			{
				"payable": true,
				"stateMutability": "payable",
				"type": "fallback"
			},
			{
				"anonymous": false,
				"inputs": [],
				"name": "Paused",
				"type": "event"
			},
			{
				"anonymous": false,
				"inputs": [],
				"name": "Unpaused",
				"type": "event"
			},
			{
				"anonymous": false,
				"inputs": [
					{
						"indexed": true,
						"name": "previousOwner",
						"type": "address"
					}
				],
				"name": "OwnershipRenounced",
				"type": "event"
			},
			{
				"anonymous": false,
				"inputs": [
					{
						"indexed": true,
						"name": "previousOwner",
						"type": "address"
					},
					{
						"indexed": true,
						"name": "newOwner",
						"type": "address"
					}
				],
				"name": "OwnershipTransferred",
				"type": "event"
			}
		],
		"devdoc": {
			"methods": {
				"constructor": {
					"params": {
						"_exchange": "Address of the IExchangeCore exchange"
					}
				},
				"pause()": {
					"details": "called by the owner to pause, triggers stopped state"
				},
				"paused()": {
					"return": "true if the contract is paused, false otherwise."
				},
				"renounceOwnership()": {
					"details": "Allows the current owner to relinquish control of the contract."
				},
				"transferOwnership(address)": {
					"details": "Allows the current owner to transfer control of the contract to a newOwner.",
					"params": {
						"_newOwner": "The address to transfer ownership to."
					}
				},
				"unpause()": {
					"details": "called by the owner to unpause, returns to normal state"
				},
				"withdrawETH(uint256)": {
					"details": "onlyOwner modifier only allows the contract owner to run the code",
					"params": {
						"_amount": "The amount of ether that the caller wants to withdraw"
					}
				},
				"withdrawToken(address,uint256)": {
					"details": "onlyOwner modifier only allows the contract owner to run the code",
					"params": {
						"_amount": "The amount of tokens that the caller wants to withdraw",
						"_token": "The address of the token that the user wants to withdraw"
					},
					"return": "bool value indicating whether the transfer was successful"
				}
			},
			"title": "ZeroExExchangeHandler"
		},
		"evm": {
			"bytecode": {
				"linkReferences": {},
				"object": "0x60806040526000805460a060020a60ff02191690553480156200002157600080fd5b5060405160408062001dd08339810180604052620000439190810190620001d2565b60008054600160a060020a0319908116331790915560018054600160a060020a03858116919093161790819055604080516060810190915260248082529190921691636070410891620000ab919062001dac602083013960006401000000006200016f810204565b6040518263ffffffff167c0100000000000000000000000000000000000000000000000000000000028152600401620000e5919062000222565b60206040518083038186803b158015620000fe57600080fd5b505afa15801562000113573d6000803e3d6000fd5b505050506040513d601f19601f82011682018060405250620001399190810190620001a9565b60028054600160a060020a03928316600160a060020a031991821617909155600380549390921692169190911790555062000270565b6000816004018351101515156200018557600080fd5b50818101602001515b92915050565b6000620001a2825162000263565b9392505050565b600060208284031215620001bc57600080fd5b6000620001ca848462000194565b949350505050565b60008060408385031215620001e657600080fd5b6000620001f4858562000194565b9250506020620002078582860162000194565b9150509250929050565b6200021c8162000232565b82525050565b602081016200018e828462000211565b7fffffffff000000000000000000000000000000000000000000000000000000001690565b600160a060020a031690565b60006200018e8262000257565b611b2c80620002806000396000f3fe6080604052600436106100ce576000357c0100000000000000000000000000000000000000000000000000000000900480638da5cb5b11610086578063d2f7265a1161006b578063d2f7265a146101c1578063f14210a6146101e3578063f2fde38b14610203576100ce565b80638da5cb5b1461017f5780639e281a98146101a1576100ce565b80635c975abb116100b75780635c975abb14610133578063715018a6146101555780638456cb591461016a576100ce565b80630345c2a6146100f45780633f4ba83a1461011e575b60035473ffffffffffffffffffffffffffffffffffffffff1633146100f257600080fd5b005b6101076101023660046115cf565b610223565b6040516101159291906119d8565b60405180910390f35b34801561012a57600080fd5b506100f26105da565b34801561013f57600080fd5b506101486106ae565b604051610115919061193c565b34801561016157600080fd5b506100f26106cf565b34801561017657600080fd5b506100f2610760565b34801561018b57600080fd5b50610194610841565b60405161011591906118f8565b3480156101ad57600080fd5b506101486101bc366004611595565b61085d565b3480156101cd57600080fd5b506101d66108b0565b604051610115919061194a565b3480156101ef57600080fd5b506100f26101fe36600461169a565b6108cc565b34801561020f57600080fd5b506100f261021e36600461156f565b61093a565b60008061022e61110f565b868060200190516102429190810190611665565b90506000610256826101600151601061096a565b905061026182610998565b15156102d95760035473ffffffffffffffffffffffffffffffffffffffff828116911614156102bd57604051339088156108fc029089906000818181858888f193505050501580156102b7573d6000803e3d6000fd5b506102ca565b6102c8813389610afd565b505b50600092508291506105d19050565b6002546102fc9073ffffffffffffffffffffffffffffffffffffffff1682610c9f565b6103046111d0565b60015473ffffffffffffffffffffffffffffffffffffffff1663b4be83d561032b85610d7f565b6103358a8c610e6d565b8661018001516040518463ffffffff167c010000000000000000000000000000000000000000000000000000000002815260040161037593929190611998565b608060405180830381600087803b15801561038f57600080fd5b505af11580156103a3573d6000803e3d6000fd5b505050506040513d601f19601f820116820180604052506103c79190810190611647565b6020810151815190965094509050878510156104cc5760035473ffffffffffffffffffffffffffffffffffffffff838116911614156104bd576003546040517f2e1a7d4d00000000000000000000000000000000000000000000000000000000815273ffffffffffffffffffffffffffffffffffffffff90911690632e1a7d4d9061045890888c03906004016119ca565b600060405180830381600087803b15801561047257600080fd5b505af1158015610486573d6000803e3d6000fd5b505060405133925087156108fc02915087906000818181858888f193505050501580156104b7573d6000803e3d6000fd5b506104cc565b6104ca8233878b03610afd565b505b60006104de846101400151601061096a565b60035490915073ffffffffffffffffffffffffffffffffffffffff808316911614156105bf576003546040517f2e1a7d4d00000000000000000000000000000000000000000000000000000000815273ffffffffffffffffffffffffffffffffffffffff90911690632e1a7d4d9061055a9088906004016119ca565b600060405180830381600087803b15801561057457600080fd5b505af1158015610588573d6000803e3d6000fd5b505060405133925087156108fc02915087906000818181858888f193505050501580156105b9573d6000803e3d6000fd5b506105cc565b6105ca813387610afd565b505b505050505b94509492505050565b60005473ffffffffffffffffffffffffffffffffffffffff1633146105fe57600080fd5b60005474010000000000000000000000000000000000000000900460ff16151561065d576040517f08c379a000000000000000000000000000000000000000000000000000000000815260040161065490611958565b60405180910390fd5b600080547fffffffffffffffffffffff00ffffffffffffffffffffffffffffffffffffffff1681556040517fa45f47fdea8a1efdd9029a5691c7f759c32b7c698632b563573e155625d169339190a1565b60005474010000000000000000000000000000000000000000900460ff1690565b60005473ffffffffffffffffffffffffffffffffffffffff1633146106f357600080fd5b6000805460405173ffffffffffffffffffffffffffffffffffffffff909116917ff8df31144d9c2f0f6b59d69b8b98abd5459d07f2742c4df920b25aae33c6482091a2600080547fffffffffffffffffffffffff0000000000000000000000000000000000000000169055565b60005473ffffffffffffffffffffffffffffffffffffffff16331461078457600080fd5b60005474010000000000000000000000000000000000000000900460ff16156107d9576040517f08c379a000000000000000000000000000000000000000000000000000000000815260040161065490611988565b600080547fffffffffffffffffffffff00ffffffffffffffffffffffffffffffffffffffff16740100000000000000000000000000000000000000001781556040517f9e87fac88ff661f02d44f95383c817fece4bce600a3dab7a54406878b965e7529190a1565b60005473ffffffffffffffffffffffffffffffffffffffff1681565b6000805473ffffffffffffffffffffffffffffffffffffffff16331461088257600080fd5b6000546108a790849073ffffffffffffffffffffffffffffffffffffffff1684610afd565b90505b92915050565b60015473ffffffffffffffffffffffffffffffffffffffff1681565b60005473ffffffffffffffffffffffffffffffffffffffff1633146108f057600080fd5b6000805460405173ffffffffffffffffffffffffffffffffffffffff9091169183156108fc02918491818181858888f19350505050158015610936573d6000803e3d6000fd5b5050565b60005473ffffffffffffffffffffffffffffffffffffffff16331461095e57600080fd5b61096781610e83565b50565b60008160140183511015151561097f57600080fd5b5001602001516c01000000000000000000000000900490565b60008161010001514211158015610a0157506101608201517ff47261b000000000000000000000000000000000000000000000000000000000906109dd906000610f32565b7fffffffff0000000000000000000000000000000000000000000000000000000016145b8015610a5f57506101408201517ff47261b00000000000000000000000000000000000000000000000000000000090610a3b906000610f32565b7fffffffff0000000000000000000000000000000000000000000000000000000016145b8015610a6d575060e0820151155b8015610ab45750602082015173ffffffffffffffffffffffffffffffffffffffff161580610ab45750602082015173ffffffffffffffffffffffffffffffffffffffff1630145b80156108aa5750606082015173ffffffffffffffffffffffffffffffffffffffff1615806108aa5750506060015173ffffffffffffffffffffffffffffffffffffffff16301490565b60008373ffffffffffffffffffffffffffffffffffffffff168383604051602401610b29929190611921565b604080517fffffffffffffffffffffffffffffffffffffffffffffffffffffffffffffffe08184030181529181526020820180517bffffffffffffffffffffffffffffffffffffffffffffffffffffffff167fa9059cbb0000000000000000000000000000000000000000000000000000000017815290518251909182918083835b60208310610be857805182527fffffffffffffffffffffffffffffffffffffffffffffffffffffffffffffffe09092019160209182019101610bab565b6001836020036101000a0380198251168184511680821785525050505050509050019150506000604051808303816000865af19150503d8060008114610c4a576040519150601f19603f3d011682016040523d82523d6000602084013e610c4f565b606091505b5090915050801515610c8d576040517f08c379a000000000000000000000000000000000000000000000000000000000815260040161065490611968565b610c95610f50565b90505b9392505050565b6040517fdd62ed3e00000000000000000000000000000000000000000000000000000000815273ffffffffffffffffffffffffffffffffffffffff82169063dd62ed3e90610cf39030908690600401611906565b60206040518083038186803b158015610d0b57600080fd5b505afa158015610d1f573d6000803e3d6000fd5b505050506040513d601f19601f82011682018060405250610d4391908101906116b8565b151561093657610d7481837fffffffffffffffffffffffffffffffffffffffffffffffffffffffffffffffff610f7f565b151561093657600080fd5b610d876111f9565b61018060405190810160405280836000015173ffffffffffffffffffffffffffffffffffffffff168152602001836020015173ffffffffffffffffffffffffffffffffffffffff168152602001836040015173ffffffffffffffffffffffffffffffffffffffff168152602001836060015173ffffffffffffffffffffffffffffffffffffffff168152602001836080015181526020018360a0015181526020018360c0015181526020018360e0015181526020018361010001518152602001836101200151815260200183610140015181526020018361016001518152509050919050565b6000818310610e7c57816108a7565b5090919050565b73ffffffffffffffffffffffffffffffffffffffff81161515610ea557600080fd5b6000805460405173ffffffffffffffffffffffffffffffffffffffff808516939216917f8be0079c531659141344cd1fd0a4f28419497f9722a3daafe3b4186f6b6457e091a3600080547fffffffffffffffffffffffff00000000000000000000000000000000000000001673ffffffffffffffffffffffffffffffffffffffff92909216919091179055565b600081600401835110151515610f4757600080fd5b50016020015190565b60003d8015610f665760208114610f6f57600080fd5b60019150610f7b565b60206000803e60005191505b5090565b60008373ffffffffffffffffffffffffffffffffffffffff168383604051602401610fab929190611921565b604080517fffffffffffffffffffffffffffffffffffffffffffffffffffffffffffffffe08184030181529181526020820180517bffffffffffffffffffffffffffffffffffffffffffffffffffffffff167f095ea7b30000000000000000000000000000000000000000000000000000000017815290518251909182918083835b6020831061106a57805182527fffffffffffffffffffffffffffffffffffffffffffffffffffffffffffffffe0909201916020918201910161102d565b6001836020036101000a0380198251168184511680821785525050505050509050019150506000604051808303816000865af19150503d80600081146110cc576040519150601f19603f3d011682016040523d82523d6000602084013e6110d1565b606091505b5090915050801515610c8d576040517f08c379a000000000000000000000000000000000000000000000000000000000815260040161065490611978565b6101a060405190810160405280600073ffffffffffffffffffffffffffffffffffffffff168152602001600073ffffffffffffffffffffffffffffffffffffffff168152602001600073ffffffffffffffffffffffffffffffffffffffff168152602001600073ffffffffffffffffffffffffffffffffffffffff1681526020016000815260200160008152602001600081526020016000815260200160008152602001600081526020016060815260200160608152602001606081525090565b608060405190810160405280600081526020016000815260200160008152602001600081525090565b61018060405190810160405280600073ffffffffffffffffffffffffffffffffffffffff168152602001600073ffffffffffffffffffffffffffffffffffffffff168152602001600073ffffffffffffffffffffffffffffffffffffffff168152602001600073ffffffffffffffffffffffffffffffffffffffff16815260200160008152602001600081526020016000815260200160008152602001600081526020016000815260200160608152602001606081525090565b60006108a78235611a57565b60006108a78251611a57565b60006108a78235611a62565b6000601f820183136112e857600080fd5b81516112fb6112f682611a0d565b6119e6565b9150808252602083016020830185838301111561131757600080fd5b611322838284611a9a565b50505092915050565b6000601f8201831361133c57600080fd5b813561134a6112f682611a0d565b9150808252602083016020830185838301111561136657600080fd5b611322838284611a8e565b60006080828403121561138357600080fd5b61138d60806119e6565b9050600061139b8484611563565b82525060206113ac84848301611563565b60208301525060406113c084828501611563565b60408301525060606113d484828501611563565b60608301525092915050565b60006101a082840312156113f357600080fd5b6113fe6101a06119e6565b9050600061140c84846112bf565b825250602061141d848483016112bf565b6020830152506040611431848285016112bf565b6040830152506060611445848285016112bf565b606083015250608061145984828501611563565b60808301525060a061146d84828501611563565b60a08301525060c061148184828501611563565b60c08301525060e061149584828501611563565b60e0830152506101006114aa84828501611563565b610100830152506101206114c084828501611563565b6101208301525061014082015167ffffffffffffffff8111156114e257600080fd5b6114ee848285016112d7565b6101408301525061016082015167ffffffffffffffff81111561151057600080fd5b61151c848285016112d7565b6101608301525061018082015167ffffffffffffffff81111561153e57600080fd5b61154a848285016112d7565b6101808301525092915050565b60006108a78235611a80565b60006108a78251611a80565b60006020828403121561158157600080fd5b600061158d84846112b3565b949350505050565b600080604083850312156115a857600080fd5b60006115b485856112b3565b92505060206115c585828601611557565b9150509250929050565b600080600080608085870312156115e557600080fd5b843567ffffffffffffffff8111156115fc57600080fd5b6116088782880161132b565b945050602061161987828801611557565b935050604061162a87828801611557565b925050606061163b878288016112cb565b91505092959194509250565b60006080828403121561165957600080fd5b600061158d8484611371565b60006020828403121561167757600080fd5b815167ffffffffffffffff81111561168e57600080fd5b61158d848285016113e0565b6000602082840312156116ac57600080fd5b600061158d8484611557565b6000602082840312156116ca57600080fd5b600061158d8484611563565b6116df81611a57565b82525050565b6116df81611a62565b60006116f982611a53565b80845261170d816020860160208601611a9a565b61171681611aca565b9093016020019392505050565b6116df81611a83565b601481527f436f6e7472616374206e6f74207061757365642e000000000000000000000000602082015260400190565b600f81527f5472616e73666572206661696c65640000000000000000000000000000000000602082015260400190565b600e81527f417070726f7665206661696c6564000000000000000000000000000000000000602082015260400190565b601381527f436f6e7472616374206973207061757365642e00000000000000000000000000602082015260400190565b805160009061018084019061180185826116d6565b50602083015161181460208601826116d6565b50604083015161182760408601826116d6565b50606083015161183a60608601826116d6565b50608083015161184d60808601826118ef565b5060a083015161186060a08601826118ef565b5060c083015161187360c08601826118ef565b5060e083015161188660e08601826118ef565b5061010083015161189b6101008601826118ef565b506101208301516118b06101208601826118ef565b506101408301518482036101408601526118ca82826116ee565b9150506101608301518482036101608601526118e682826116ee565b95945050505050565b6116df81611a80565b602081016108aa82846116d6565b6040810161191482856116d6565b610c9860208301846116d6565b6040810161192f82856116d6565b610c9860208301846118ef565b602081016108aa82846116e5565b602081016108aa8284611723565b602080825281016108aa8161172c565b602080825281016108aa8161175c565b602080825281016108aa8161178c565b602080825281016108aa816117bc565b606080825281016119a981866117ec565b90506119b860208301856118ef565b81810360408301526118e681846116ee565b602081016108aa82846118ef565b6040810161192f82856118ef565b60405181810167ffffffffffffffff81118282101715611a0557600080fd5b604052919050565b600067ffffffffffffffff821115611a2457600080fd5b506020601f919091017fffffffffffffffffffffffffffffffffffffffffffffffffffffffffffffffe0160190565b5190565b60006108aa82611a67565b151590565b73ffffffffffffffffffffffffffffffffffffffff1690565b90565b60006108aa82611a57565b82818337506000910152565b60005b83811015611ab5578181015183820152602001611a9d565b83811115611ac4576000848401525b50505050565b601f017fffffffffffffffffffffffffffffffffffffffffffffffffffffffffffffffe0169056fea265627a7a72305820458fd976705be9f66ce39221160fcb077379e20d890d07a2aebdf98aa48d9ebd6c6578706572696d656e74616cf50037f47261b0000000000000000000000000e41d2489571d322189246dafa5ebde1f4699f498",
				"opcodes": "PUSH1 0x80 PUSH1 0x40 MSTORE PUSH1 0x0 DUP1 SLOAD PUSH1 0xA0 PUSH1 0x2 EXP PUSH1 0xFF MUL NOT AND SWAP1 SSTORE CALLVALUE DUP1 ISZERO PUSH3 0x21 JUMPI PUSH1 0x0 DUP1 REVERT JUMPDEST POP PUSH1 0x40 MLOAD PUSH1 0x40 DUP1 PUSH3 0x1DD0 DUP4 CODECOPY DUP2 ADD DUP1 PUSH1 0x40 MSTORE PUSH3 0x43 SWAP2 SWAP1 DUP2 ADD SWAP1 PUSH3 0x1D2 JUMP JUMPDEST PUSH1 0x0 DUP1 SLOAD PUSH1 0x1 PUSH1 0xA0 PUSH1 0x2 EXP SUB NOT SWAP1 DUP2 AND CALLER OR SWAP1 SWAP2 SSTORE PUSH1 0x1 DUP1 SLOAD PUSH1 0x1 PUSH1 0xA0 PUSH1 0x2 EXP SUB DUP6 DUP2 AND SWAP2 SWAP1 SWAP4 AND OR SWAP1 DUP2 SWAP1 SSTORE PUSH1 0x40 DUP1 MLOAD PUSH1 0x60 DUP2 ADD SWAP1 SWAP2 MSTORE PUSH1 0x24 DUP1 DUP3 MSTORE SWAP2 SWAP1 SWAP3 AND SWAP2 PUSH4 0x60704108 SWAP2 PUSH3 0xAB SWAP2 SWAP1 PUSH3 0x1DAC PUSH1 0x20 DUP4 ADD CODECOPY PUSH1 0x0 PUSH5 0x100000000 PUSH3 0x16F DUP2 MUL DIV JUMP JUMPDEST PUSH1 0x40 MLOAD DUP3 PUSH4 0xFFFFFFFF AND PUSH29 0x100000000000000000000000000000000000000000000000000000000 MUL DUP2 MSTORE PUSH1 0x4 ADD PUSH3 0xE5 SWAP2 SWAP1 PUSH3 0x222 JUMP JUMPDEST PUSH1 0x20 PUSH1 0x40 MLOAD DUP1 DUP4 SUB DUP2 DUP7 DUP1 EXTCODESIZE ISZERO DUP1 ISZERO PUSH3 0xFE JUMPI PUSH1 0x0 DUP1 REVERT JUMPDEST POP GAS STATICCALL ISZERO DUP1 ISZERO PUSH3 0x113 JUMPI RETURNDATASIZE PUSH1 0x0 DUP1 RETURNDATACOPY RETURNDATASIZE PUSH1 0x0 REVERT JUMPDEST POP POP POP POP PUSH1 0x40 MLOAD RETURNDATASIZE PUSH1 0x1F NOT PUSH1 0x1F DUP3 ADD AND DUP3 ADD DUP1 PUSH1 0x40 MSTORE POP PUSH3 0x139 SWAP2 SWAP1 DUP2 ADD SWAP1 PUSH3 0x1A9 JUMP JUMPDEST PUSH1 0x2 DUP1 SLOAD PUSH1 0x1 PUSH1 0xA0 PUSH1 0x2 EXP SUB SWAP3 DUP4 AND PUSH1 0x1 PUSH1 0xA0 PUSH1 0x2 EXP SUB NOT SWAP2 DUP3 AND OR SWAP1 SWAP2 SSTORE PUSH1 0x3 DUP1 SLOAD SWAP4 SWAP1 SWAP3 AND SWAP3 AND SWAP2 SWAP1 SWAP2 OR SWAP1 SSTORE POP PUSH3 0x270 JUMP JUMPDEST PUSH1 0x0 DUP2 PUSH1 0x4 ADD DUP4 MLOAD LT ISZERO ISZERO ISZERO PUSH3 0x185 JUMPI PUSH1 0x0 DUP1 REVERT JUMPDEST POP DUP2 DUP2 ADD PUSH1 0x20 ADD MLOAD JUMPDEST SWAP3 SWAP2 POP POP JUMP JUMPDEST PUSH1 0x0 PUSH3 0x1A2 DUP3 MLOAD PUSH3 0x263 JUMP JUMPDEST SWAP4 SWAP3 POP POP POP JUMP JUMPDEST PUSH1 0x0 PUSH1 0x20 DUP3 DUP5 SUB SLT ISZERO PUSH3 0x1BC JUMPI PUSH1 0x0 DUP1 REVERT JUMPDEST PUSH1 0x0 PUSH3 0x1CA DUP5 DUP5 PUSH3 0x194 JUMP JUMPDEST SWAP5 SWAP4 POP POP POP POP JUMP JUMPDEST PUSH1 0x0 DUP1 PUSH1 0x40 DUP4 DUP6 SUB SLT ISZERO PUSH3 0x1E6 JUMPI PUSH1 0x0 DUP1 REVERT JUMPDEST PUSH1 0x0 PUSH3 0x1F4 DUP6 DUP6 PUSH3 0x194 JUMP JUMPDEST SWAP3 POP POP PUSH1 0x20 PUSH3 0x207 DUP6 DUP3 DUP7 ADD PUSH3 0x194 JUMP JUMPDEST SWAP2 POP POP SWAP3 POP SWAP3 SWAP1 POP JUMP JUMPDEST PUSH3 0x21C DUP2 PUSH3 0x232 JUMP JUMPDEST DUP3 MSTORE POP POP JUMP JUMPDEST PUSH1 0x20 DUP2 ADD PUSH3 0x18E DUP3 DUP5 PUSH3 0x211 JUMP JUMPDEST PUSH32 0xFFFFFFFF00000000000000000000000000000000000000000000000000000000 AND SWAP1 JUMP JUMPDEST PUSH1 0x1 PUSH1 0xA0 PUSH1 0x2 EXP SUB AND SWAP1 JUMP JUMPDEST PUSH1 0x0 PUSH3 0x18E DUP3 PUSH3 0x257 JUMP JUMPDEST PUSH2 0x1B2C DUP1 PUSH3 0x280 PUSH1 0x0 CODECOPY PUSH1 0x0 RETURN INVALID PUSH1 0x80 PUSH1 0x40 MSTORE PUSH1 0x4 CALLDATASIZE LT PUSH2 0xCE JUMPI PUSH1 0x0 CALLDATALOAD PUSH29 0x100000000000000000000000000000000000000000000000000000000 SWAP1 DIV DUP1 PUSH4 0x8DA5CB5B GT PUSH2 0x86 JUMPI DUP1 PUSH4 0xD2F7265A GT PUSH2 0x6B JUMPI DUP1 PUSH4 0xD2F7265A EQ PUSH2 0x1C1 JUMPI DUP1 PUSH4 0xF14210A6 EQ PUSH2 0x1E3 JUMPI DUP1 PUSH4 0xF2FDE38B EQ PUSH2 0x203 JUMPI PUSH2 0xCE JUMP JUMPDEST DUP1 PUSH4 0x8DA5CB5B EQ PUSH2 0x17F JUMPI DUP1 PUSH4 0x9E281A98 EQ PUSH2 0x1A1 JUMPI PUSH2 0xCE JUMP JUMPDEST DUP1 PUSH4 0x5C975ABB GT PUSH2 0xB7 JUMPI DUP1 PUSH4 0x5C975ABB EQ PUSH2 0x133 JUMPI DUP1 PUSH4 0x715018A6 EQ PUSH2 0x155 JUMPI DUP1 PUSH4 0x8456CB59 EQ PUSH2 0x16A JUMPI PUSH2 0xCE JUMP JUMPDEST DUP1 PUSH4 0x345C2A6 EQ PUSH2 0xF4 JUMPI DUP1 PUSH4 0x3F4BA83A EQ PUSH2 0x11E JUMPI JUMPDEST PUSH1 0x3 SLOAD PUSH20 0xFFFFFFFFFFFFFFFFFFFFFFFFFFFFFFFFFFFFFFFF AND CALLER EQ PUSH2 0xF2 JUMPI PUSH1 0x0 DUP1 REVERT JUMPDEST STOP JUMPDEST PUSH2 0x107 PUSH2 0x102 CALLDATASIZE PUSH1 0x4 PUSH2 0x15CF JUMP JUMPDEST PUSH2 0x223 JUMP JUMPDEST PUSH1 0x40 MLOAD PUSH2 0x115 SWAP3 SWAP2 SWAP1 PUSH2 0x19D8 JUMP JUMPDEST PUSH1 0x40 MLOAD DUP1 SWAP2 SUB SWAP1 RETURN JUMPDEST CALLVALUE DUP1 ISZERO PUSH2 0x12A JUMPI PUSH1 0x0 DUP1 REVERT JUMPDEST POP PUSH2 0xF2 PUSH2 0x5DA JUMP JUMPDEST CALLVALUE DUP1 ISZERO PUSH2 0x13F JUMPI PUSH1 0x0 DUP1 REVERT JUMPDEST POP PUSH2 0x148 PUSH2 0x6AE JUMP JUMPDEST PUSH1 0x40 MLOAD PUSH2 0x115 SWAP2 SWAP1 PUSH2 0x193C JUMP JUMPDEST CALLVALUE DUP1 ISZERO PUSH2 0x161 JUMPI PUSH1 0x0 DUP1 REVERT JUMPDEST POP PUSH2 0xF2 PUSH2 0x6CF JUMP JUMPDEST CALLVALUE DUP1 ISZERO PUSH2 0x176 JUMPI PUSH1 0x0 DUP1 REVERT JUMPDEST POP PUSH2 0xF2 PUSH2 0x760 JUMP JUMPDEST CALLVALUE DUP1 ISZERO PUSH2 0x18B JUMPI PUSH1 0x0 DUP1 REVERT JUMPDEST POP PUSH2 0x194 PUSH2 0x841 JUMP JUMPDEST PUSH1 0x40 MLOAD PUSH2 0x115 SWAP2 SWAP1 PUSH2 0x18F8 JUMP JUMPDEST CALLVALUE DUP1 ISZERO PUSH2 0x1AD JUMPI PUSH1 0x0 DUP1 REVERT JUMPDEST POP PUSH2 0x148 PUSH2 0x1BC CALLDATASIZE PUSH1 0x4 PUSH2 0x1595 JUMP JUMPDEST PUSH2 0x85D JUMP JUMPDEST CALLVALUE DUP1 ISZERO PUSH2 0x1CD JUMPI PUSH1 0x0 DUP1 REVERT JUMPDEST POP PUSH2 0x1D6 PUSH2 0x8B0 JUMP JUMPDEST PUSH1 0x40 MLOAD PUSH2 0x115 SWAP2 SWAP1 PUSH2 0x194A JUMP JUMPDEST CALLVALUE DUP1 ISZERO PUSH2 0x1EF JUMPI PUSH1 0x0 DUP1 REVERT JUMPDEST POP PUSH2 0xF2 PUSH2 0x1FE CALLDATASIZE PUSH1 0x4 PUSH2 0x169A JUMP JUMPDEST PUSH2 0x8CC JUMP JUMPDEST CALLVALUE DUP1 ISZERO PUSH2 0x20F JUMPI PUSH1 0x0 DUP1 REVERT JUMPDEST POP PUSH2 0xF2 PUSH2 0x21E CALLDATASIZE PUSH1 0x4 PUSH2 0x156F JUMP JUMPDEST PUSH2 0x93A JUMP JUMPDEST PUSH1 0x0 DUP1 PUSH2 0x22E PUSH2 0x110F JUMP JUMPDEST DUP7 DUP1 PUSH1 0x20 ADD SWAP1 MLOAD PUSH2 0x242 SWAP2 SWAP1 DUP2 ADD SWAP1 PUSH2 0x1665 JUMP JUMPDEST SWAP1 POP PUSH1 0x0 PUSH2 0x256 DUP3 PUSH2 0x160 ADD MLOAD PUSH1 0x10 PUSH2 0x96A JUMP JUMPDEST SWAP1 POP PUSH2 0x261 DUP3 PUSH2 0x998 JUMP JUMPDEST ISZERO ISZERO PUSH2 0x2D9 JUMPI PUSH1 0x3 SLOAD PUSH20 0xFFFFFFFFFFFFFFFFFFFFFFFFFFFFFFFFFFFFFFFF DUP3 DUP2 AND SWAP2 AND EQ ISZERO PUSH2 0x2BD JUMPI PUSH1 0x40 MLOAD CALLER SWAP1 DUP9 ISZERO PUSH2 0x8FC MUL SWAP1 DUP10 SWAP1 PUSH1 0x0 DUP2 DUP2 DUP2 DUP6 DUP9 DUP9 CALL SWAP4 POP POP POP POP ISZERO DUP1 ISZERO PUSH2 0x2B7 JUMPI RETURNDATASIZE PUSH1 0x0 DUP1 RETURNDATACOPY RETURNDATASIZE PUSH1 0x0 REVERT JUMPDEST POP PUSH2 0x2CA JUMP JUMPDEST PUSH2 0x2C8 DUP2 CALLER DUP10 PUSH2 0xAFD JUMP JUMPDEST POP JUMPDEST POP PUSH1 0x0 SWAP3 POP DUP3 SWAP2 POP PUSH2 0x5D1 SWAP1 POP JUMP JUMPDEST PUSH1 0x2 SLOAD PUSH2 0x2FC SWAP1 PUSH20 0xFFFFFFFFFFFFFFFFFFFFFFFFFFFFFFFFFFFFFFFF AND DUP3 PUSH2 0xC9F JUMP JUMPDEST PUSH2 0x304 PUSH2 0x11D0 JUMP JUMPDEST PUSH1 0x1 SLOAD PUSH20 0xFFFFFFFFFFFFFFFFFFFFFFFFFFFFFFFFFFFFFFFF AND PUSH4 0xB4BE83D5 PUSH2 0x32B DUP6 PUSH2 0xD7F JUMP JUMPDEST PUSH2 0x335 DUP11 DUP13 PUSH2 0xE6D JUMP JUMPDEST DUP7 PUSH2 0x180 ADD MLOAD PUSH1 0x40 MLOAD DUP5 PUSH4 0xFFFFFFFF AND PUSH29 0x100000000000000000000000000000000000000000000000000000000 MUL DUP2 MSTORE PUSH1 0x4 ADD PUSH2 0x375 SWAP4 SWAP3 SWAP2 SWAP1 PUSH2 0x1998 JUMP JUMPDEST PUSH1 0x80 PUSH1 0x40 MLOAD DUP1 DUP4 SUB DUP2 PUSH1 0x0 DUP8 DUP1 EXTCODESIZE ISZERO DUP1 ISZERO PUSH2 0x38F JUMPI PUSH1 0x0 DUP1 REVERT JUMPDEST POP GAS CALL ISZERO DUP1 ISZERO PUSH2 0x3A3 JUMPI RETURNDATASIZE PUSH1 0x0 DUP1 RETURNDATACOPY RETURNDATASIZE PUSH1 0x0 REVERT JUMPDEST POP POP POP POP PUSH1 0x40 MLOAD RETURNDATASIZE PUSH1 0x1F NOT PUSH1 0x1F DUP3 ADD AND DUP3 ADD DUP1 PUSH1 0x40 MSTORE POP PUSH2 0x3C7 SWAP2 SWAP1 DUP2 ADD SWAP1 PUSH2 0x1647 JUMP JUMPDEST PUSH1 0x20 DUP2 ADD MLOAD DUP2 MLOAD SWAP1 SWAP7 POP SWAP5 POP SWAP1 POP DUP8 DUP6 LT ISZERO PUSH2 0x4CC JUMPI PUSH1 0x3 SLOAD PUSH20 0xFFFFFFFFFFFFFFFFFFFFFFFFFFFFFFFFFFFFFFFF DUP4 DUP2 AND SWAP2 AND EQ ISZERO PUSH2 0x4BD JUMPI PUSH1 0x3 SLOAD PUSH1 0x40 MLOAD PUSH32 0x2E1A7D4D00000000000000000000000000000000000000000000000000000000 DUP2 MSTORE PUSH20 0xFFFFFFFFFFFFFFFFFFFFFFFFFFFFFFFFFFFFFFFF SWAP1 SWAP2 AND SWAP1 PUSH4 0x2E1A7D4D SWAP1 PUSH2 0x458 SWAP1 DUP9 DUP13 SUB SWAP1 PUSH1 0x4 ADD PUSH2 0x19CA JUMP JUMPDEST PUSH1 0x0 PUSH1 0x40 MLOAD DUP1 DUP4 SUB DUP2 PUSH1 0x0 DUP8 DUP1 EXTCODESIZE ISZERO DUP1 ISZERO PUSH2 0x472 JUMPI PUSH1 0x0 DUP1 REVERT JUMPDEST POP GAS CALL ISZERO DUP1 ISZERO PUSH2 0x486 JUMPI RETURNDATASIZE PUSH1 0x0 DUP1 RETURNDATACOPY RETURNDATASIZE PUSH1 0x0 REVERT JUMPDEST POP POP PUSH1 0x40 MLOAD CALLER SWAP3 POP DUP8 ISZERO PUSH2 0x8FC MUL SWAP2 POP DUP8 SWAP1 PUSH1 0x0 DUP2 DUP2 DUP2 DUP6 DUP9 DUP9 CALL SWAP4 POP POP POP POP ISZERO DUP1 ISZERO PUSH2 0x4B7 JUMPI RETURNDATASIZE PUSH1 0x0 DUP1 RETURNDATACOPY RETURNDATASIZE PUSH1 0x0 REVERT JUMPDEST POP PUSH2 0x4CC JUMP JUMPDEST PUSH2 0x4CA DUP3 CALLER DUP8 DUP12 SUB PUSH2 0xAFD JUMP JUMPDEST POP JUMPDEST PUSH1 0x0 PUSH2 0x4DE DUP5 PUSH2 0x140 ADD MLOAD PUSH1 0x10 PUSH2 0x96A JUMP JUMPDEST PUSH1 0x3 SLOAD SWAP1 SWAP2 POP PUSH20 0xFFFFFFFFFFFFFFFFFFFFFFFFFFFFFFFFFFFFFFFF DUP1 DUP4 AND SWAP2 AND EQ ISZERO PUSH2 0x5BF JUMPI PUSH1 0x3 SLOAD PUSH1 0x40 MLOAD PUSH32 0x2E1A7D4D00000000000000000000000000000000000000000000000000000000 DUP2 MSTORE PUSH20 0xFFFFFFFFFFFFFFFFFFFFFFFFFFFFFFFFFFFFFFFF SWAP1 SWAP2 AND SWAP1 PUSH4 0x2E1A7D4D SWAP1 PUSH2 0x55A SWAP1 DUP9 SWAP1 PUSH1 0x4 ADD PUSH2 0x19CA JUMP JUMPDEST PUSH1 0x0 PUSH1 0x40 MLOAD DUP1 DUP4 SUB DUP2 PUSH1 0x0 DUP8 DUP1 EXTCODESIZE ISZERO DUP1 ISZERO PUSH2 0x574 JUMPI PUSH1 0x0 DUP1 REVERT JUMPDEST POP GAS CALL ISZERO DUP1 ISZERO PUSH2 0x588 JUMPI RETURNDATASIZE PUSH1 0x0 DUP1 RETURNDATACOPY RETURNDATASIZE PUSH1 0x0 REVERT JUMPDEST POP POP PUSH1 0x40 MLOAD CALLER SWAP3 POP DUP8 ISZERO PUSH2 0x8FC MUL SWAP2 POP DUP8 SWAP1 PUSH1 0x0 DUP2 DUP2 DUP2 DUP6 DUP9 DUP9 CALL SWAP4 POP POP POP POP ISZERO DUP1 ISZERO PUSH2 0x5B9 JUMPI RETURNDATASIZE PUSH1 0x0 DUP1 RETURNDATACOPY RETURNDATASIZE PUSH1 0x0 REVERT JUMPDEST POP PUSH2 0x5CC JUMP JUMPDEST PUSH2 0x5CA DUP2 CALLER DUP8 PUSH2 0xAFD JUMP JUMPDEST POP JUMPDEST POP POP POP POP JUMPDEST SWAP5 POP SWAP5 SWAP3 POP POP POP JUMP JUMPDEST PUSH1 0x0 SLOAD PUSH20 0xFFFFFFFFFFFFFFFFFFFFFFFFFFFFFFFFFFFFFFFF AND CALLER EQ PUSH2 0x5FE JUMPI PUSH1 0x0 DUP1 REVERT JUMPDEST PUSH1 0x0 SLOAD PUSH21 0x10000000000000000000000000000000000000000 SWAP1 DIV PUSH1 0xFF AND ISZERO ISZERO PUSH2 0x65D JUMPI PUSH1 0x40 MLOAD PUSH32 0x8C379A000000000000000000000000000000000000000000000000000000000 DUP2 MSTORE PUSH1 0x4 ADD PUSH2 0x654 SWAP1 PUSH2 0x1958 JUMP JUMPDEST PUSH1 0x40 MLOAD DUP1 SWAP2 SUB SWAP1 REVERT JUMPDEST PUSH1 0x0 DUP1 SLOAD PUSH32 0xFFFFFFFFFFFFFFFFFFFFFF00FFFFFFFFFFFFFFFFFFFFFFFFFFFFFFFFFFFFFFFF AND DUP2 SSTORE PUSH1 0x40 MLOAD PUSH32 0xA45F47FDEA8A1EFDD9029A5691C7F759C32B7C698632B563573E155625D16933 SWAP2 SWAP1 LOG1 JUMP JUMPDEST PUSH1 0x0 SLOAD PUSH21 0x10000000000000000000000000000000000000000 SWAP1 DIV PUSH1 0xFF AND SWAP1 JUMP JUMPDEST PUSH1 0x0 SLOAD PUSH20 0xFFFFFFFFFFFFFFFFFFFFFFFFFFFFFFFFFFFFFFFF AND CALLER EQ PUSH2 0x6F3 JUMPI PUSH1 0x0 DUP1 REVERT JUMPDEST PUSH1 0x0 DUP1 SLOAD PUSH1 0x40 MLOAD PUSH20 0xFFFFFFFFFFFFFFFFFFFFFFFFFFFFFFFFFFFFFFFF SWAP1 SWAP2 AND SWAP2 PUSH32 0xF8DF31144D9C2F0F6B59D69B8B98ABD5459D07F2742C4DF920B25AAE33C64820 SWAP2 LOG2 PUSH1 0x0 DUP1 SLOAD PUSH32 0xFFFFFFFFFFFFFFFFFFFFFFFF0000000000000000000000000000000000000000 AND SWAP1 SSTORE JUMP JUMPDEST PUSH1 0x0 SLOAD PUSH20 0xFFFFFFFFFFFFFFFFFFFFFFFFFFFFFFFFFFFFFFFF AND CALLER EQ PUSH2 0x784 JUMPI PUSH1 0x0 DUP1 REVERT JUMPDEST PUSH1 0x0 SLOAD PUSH21 0x10000000000000000000000000000000000000000 SWAP1 DIV PUSH1 0xFF AND ISZERO PUSH2 0x7D9 JUMPI PUSH1 0x40 MLOAD PUSH32 0x8C379A000000000000000000000000000000000000000000000000000000000 DUP2 MSTORE PUSH1 0x4 ADD PUSH2 0x654 SWAP1 PUSH2 0x1988 JUMP JUMPDEST PUSH1 0x0 DUP1 SLOAD PUSH32 0xFFFFFFFFFFFFFFFFFFFFFF00FFFFFFFFFFFFFFFFFFFFFFFFFFFFFFFFFFFFFFFF AND PUSH21 0x10000000000000000000000000000000000000000 OR DUP2 SSTORE PUSH1 0x40 MLOAD PUSH32 0x9E87FAC88FF661F02D44F95383C817FECE4BCE600A3DAB7A54406878B965E752 SWAP2 SWAP1 LOG1 JUMP JUMPDEST PUSH1 0x0 SLOAD PUSH20 0xFFFFFFFFFFFFFFFFFFFFFFFFFFFFFFFFFFFFFFFF AND DUP2 JUMP JUMPDEST PUSH1 0x0 DUP1 SLOAD PUSH20 0xFFFFFFFFFFFFFFFFFFFFFFFFFFFFFFFFFFFFFFFF AND CALLER EQ PUSH2 0x882 JUMPI PUSH1 0x0 DUP1 REVERT JUMPDEST PUSH1 0x0 SLOAD PUSH2 0x8A7 SWAP1 DUP5 SWAP1 PUSH20 0xFFFFFFFFFFFFFFFFFFFFFFFFFFFFFFFFFFFFFFFF AND DUP5 PUSH2 0xAFD JUMP JUMPDEST SWAP1 POP JUMPDEST SWAP3 SWAP2 POP POP JUMP JUMPDEST PUSH1 0x1 SLOAD PUSH20 0xFFFFFFFFFFFFFFFFFFFFFFFFFFFFFFFFFFFFFFFF AND DUP2 JUMP JUMPDEST PUSH1 0x0 SLOAD PUSH20 0xFFFFFFFFFFFFFFFFFFFFFFFFFFFFFFFFFFFFFFFF AND CALLER EQ PUSH2 0x8F0 JUMPI PUSH1 0x0 DUP1 REVERT JUMPDEST PUSH1 0x0 DUP1 SLOAD PUSH1 0x40 MLOAD PUSH20 0xFFFFFFFFFFFFFFFFFFFFFFFFFFFFFFFFFFFFFFFF SWAP1 SWAP2 AND SWAP2 DUP4 ISZERO PUSH2 0x8FC MUL SWAP2 DUP5 SWAP2 DUP2 DUP2 DUP2 DUP6 DUP9 DUP9 CALL SWAP4 POP POP POP POP ISZERO DUP1 ISZERO PUSH2 0x936 JUMPI RETURNDATASIZE PUSH1 0x0 DUP1 RETURNDATACOPY RETURNDATASIZE PUSH1 0x0 REVERT JUMPDEST POP POP JUMP JUMPDEST PUSH1 0x0 SLOAD PUSH20 0xFFFFFFFFFFFFFFFFFFFFFFFFFFFFFFFFFFFFFFFF AND CALLER EQ PUSH2 0x95E JUMPI PUSH1 0x0 DUP1 REVERT JUMPDEST PUSH2 0x967 DUP2 PUSH2 0xE83 JUMP JUMPDEST POP JUMP JUMPDEST PUSH1 0x0 DUP2 PUSH1 0x14 ADD DUP4 MLOAD LT ISZERO ISZERO ISZERO PUSH2 0x97F JUMPI PUSH1 0x0 DUP1 REVERT JUMPDEST POP ADD PUSH1 0x20 ADD MLOAD PUSH13 0x1000000000000000000000000 SWAP1 DIV SWAP1 JUMP JUMPDEST PUSH1 0x0 DUP2 PUSH2 0x100 ADD MLOAD TIMESTAMP GT ISZERO DUP1 ISZERO PUSH2 0xA01 JUMPI POP PUSH2 0x160 DUP3 ADD MLOAD PUSH32 0xF47261B000000000000000000000000000000000000000000000000000000000 SWAP1 PUSH2 0x9DD SWAP1 PUSH1 0x0 PUSH2 0xF32 JUMP JUMPDEST PUSH32 0xFFFFFFFF00000000000000000000000000000000000000000000000000000000 AND EQ JUMPDEST DUP1 ISZERO PUSH2 0xA5F JUMPI POP PUSH2 0x140 DUP3 ADD MLOAD PUSH32 0xF47261B000000000000000000000000000000000000000000000000000000000 SWAP1 PUSH2 0xA3B SWAP1 PUSH1 0x0 PUSH2 0xF32 JUMP JUMPDEST PUSH32 0xFFFFFFFF00000000000000000000000000000000000000000000000000000000 AND EQ JUMPDEST DUP1 ISZERO PUSH2 0xA6D JUMPI POP PUSH1 0xE0 DUP3 ADD MLOAD ISZERO JUMPDEST DUP1 ISZERO PUSH2 0xAB4 JUMPI POP PUSH1 0x20 DUP3 ADD MLOAD PUSH20 0xFFFFFFFFFFFFFFFFFFFFFFFFFFFFFFFFFFFFFFFF AND ISZERO DUP1 PUSH2 0xAB4 JUMPI POP PUSH1 0x20 DUP3 ADD MLOAD PUSH20 0xFFFFFFFFFFFFFFFFFFFFFFFFFFFFFFFFFFFFFFFF AND ADDRESS EQ JUMPDEST DUP1 ISZERO PUSH2 0x8AA JUMPI POP PUSH1 0x60 DUP3 ADD MLOAD PUSH20 0xFFFFFFFFFFFFFFFFFFFFFFFFFFFFFFFFFFFFFFFF AND ISZERO DUP1 PUSH2 0x8AA JUMPI POP POP PUSH1 0x60 ADD MLOAD PUSH20 0xFFFFFFFFFFFFFFFFFFFFFFFFFFFFFFFFFFFFFFFF AND ADDRESS EQ SWAP1 JUMP JUMPDEST PUSH1 0x0 DUP4 PUSH20 0xFFFFFFFFFFFFFFFFFFFFFFFFFFFFFFFFFFFFFFFF AND DUP4 DUP4 PUSH1 0x40 MLOAD PUSH1 0x24 ADD PUSH2 0xB29 SWAP3 SWAP2 SWAP1 PUSH2 0x1921 JUMP JUMPDEST PUSH1 0x40 DUP1 MLOAD PUSH32 0xFFFFFFFFFFFFFFFFFFFFFFFFFFFFFFFFFFFFFFFFFFFFFFFFFFFFFFFFFFFFFFE0 DUP2 DUP5 SUB ADD DUP2 MSTORE SWAP2 DUP2 MSTORE PUSH1 0x20 DUP3 ADD DUP1 MLOAD PUSH28 0xFFFFFFFFFFFFFFFFFFFFFFFFFFFFFFFFFFFFFFFFFFFFFFFFFFFFFFFF AND PUSH32 0xA9059CBB00000000000000000000000000000000000000000000000000000000 OR DUP2 MSTORE SWAP1 MLOAD DUP3 MLOAD SWAP1 SWAP2 DUP3 SWAP2 DUP1 DUP4 DUP4 JUMPDEST PUSH1 0x20 DUP4 LT PUSH2 0xBE8 JUMPI DUP1 MLOAD DUP3 MSTORE PUSH32 0xFFFFFFFFFFFFFFFFFFFFFFFFFFFFFFFFFFFFFFFFFFFFFFFFFFFFFFFFFFFFFFE0 SWAP1 SWAP3 ADD SWAP2 PUSH1 0x20 SWAP2 DUP3 ADD SWAP2 ADD PUSH2 0xBAB JUMP JUMPDEST PUSH1 0x1 DUP4 PUSH1 0x20 SUB PUSH2 0x100 EXP SUB DUP1 NOT DUP3 MLOAD AND DUP2 DUP5 MLOAD AND DUP1 DUP3 OR DUP6 MSTORE POP POP POP POP POP POP SWAP1 POP ADD SWAP2 POP POP PUSH1 0x0 PUSH1 0x40 MLOAD DUP1 DUP4 SUB DUP2 PUSH1 0x0 DUP7 GAS CALL SWAP2 POP POP RETURNDATASIZE DUP1 PUSH1 0x0 DUP2 EQ PUSH2 0xC4A JUMPI PUSH1 0x40 MLOAD SWAP2 POP PUSH1 0x1F NOT PUSH1 0x3F RETURNDATASIZE ADD AND DUP3 ADD PUSH1 0x40 MSTORE RETURNDATASIZE DUP3 MSTORE RETURNDATASIZE PUSH1 0x0 PUSH1 0x20 DUP5 ADD RETURNDATACOPY PUSH2 0xC4F JUMP JUMPDEST PUSH1 0x60 SWAP2 POP JUMPDEST POP SWAP1 SWAP2 POP POP DUP1 ISZERO ISZERO PUSH2 0xC8D JUMPI PUSH1 0x40 MLOAD PUSH32 0x8C379A000000000000000000000000000000000000000000000000000000000 DUP2 MSTORE PUSH1 0x4 ADD PUSH2 0x654 SWAP1 PUSH2 0x1968 JUMP JUMPDEST PUSH2 0xC95 PUSH2 0xF50 JUMP JUMPDEST SWAP1 POP JUMPDEST SWAP4 SWAP3 POP POP POP JUMP JUMPDEST PUSH1 0x40 MLOAD PUSH32 0xDD62ED3E00000000000000000000000000000000000000000000000000000000 DUP2 MSTORE PUSH20 0xFFFFFFFFFFFFFFFFFFFFFFFFFFFFFFFFFFFFFFFF DUP3 AND SWAP1 PUSH4 0xDD62ED3E SWAP1 PUSH2 0xCF3 SWAP1 ADDRESS SWAP1 DUP7 SWAP1 PUSH1 0x4 ADD PUSH2 0x1906 JUMP JUMPDEST PUSH1 0x20 PUSH1 0x40 MLOAD DUP1 DUP4 SUB DUP2 DUP7 DUP1 EXTCODESIZE ISZERO DUP1 ISZERO PUSH2 0xD0B JUMPI PUSH1 0x0 DUP1 REVERT JUMPDEST POP GAS STATICCALL ISZERO DUP1 ISZERO PUSH2 0xD1F JUMPI RETURNDATASIZE PUSH1 0x0 DUP1 RETURNDATACOPY RETURNDATASIZE PUSH1 0x0 REVERT JUMPDEST POP POP POP POP PUSH1 0x40 MLOAD RETURNDATASIZE PUSH1 0x1F NOT PUSH1 0x1F DUP3 ADD AND DUP3 ADD DUP1 PUSH1 0x40 MSTORE POP PUSH2 0xD43 SWAP2 SWAP1 DUP2 ADD SWAP1 PUSH2 0x16B8 JUMP JUMPDEST ISZERO ISZERO PUSH2 0x936 JUMPI PUSH2 0xD74 DUP2 DUP4 PUSH32 0xFFFFFFFFFFFFFFFFFFFFFFFFFFFFFFFFFFFFFFFFFFFFFFFFFFFFFFFFFFFFFFFF PUSH2 0xF7F JUMP JUMPDEST ISZERO ISZERO PUSH2 0x936 JUMPI PUSH1 0x0 DUP1 REVERT JUMPDEST PUSH2 0xD87 PUSH2 0x11F9 JUMP JUMPDEST PUSH2 0x180 PUSH1 0x40 MLOAD SWAP1 DUP2 ADD PUSH1 0x40 MSTORE DUP1 DUP4 PUSH1 0x0 ADD MLOAD PUSH20 0xFFFFFFFFFFFFFFFFFFFFFFFFFFFFFFFFFFFFFFFF AND DUP2 MSTORE PUSH1 0x20 ADD DUP4 PUSH1 0x20 ADD MLOAD PUSH20 0xFFFFFFFFFFFFFFFFFFFFFFFFFFFFFFFFFFFFFFFF AND DUP2 MSTORE PUSH1 0x20 ADD DUP4 PUSH1 0x40 ADD MLOAD PUSH20 0xFFFFFFFFFFFFFFFFFFFFFFFFFFFFFFFFFFFFFFFF AND DUP2 MSTORE PUSH1 0x20 ADD DUP4 PUSH1 0x60 ADD MLOAD PUSH20 0xFFFFFFFFFFFFFFFFFFFFFFFFFFFFFFFFFFFFFFFF AND DUP2 MSTORE PUSH1 0x20 ADD DUP4 PUSH1 0x80 ADD MLOAD DUP2 MSTORE PUSH1 0x20 ADD DUP4 PUSH1 0xA0 ADD MLOAD DUP2 MSTORE PUSH1 0x20 ADD DUP4 PUSH1 0xC0 ADD MLOAD DUP2 MSTORE PUSH1 0x20 ADD DUP4 PUSH1 0xE0 ADD MLOAD DUP2 MSTORE PUSH1 0x20 ADD DUP4 PUSH2 0x100 ADD MLOAD DUP2 MSTORE PUSH1 0x20 ADD DUP4 PUSH2 0x120 ADD MLOAD DUP2 MSTORE PUSH1 0x20 ADD DUP4 PUSH2 0x140 ADD MLOAD DUP2 MSTORE PUSH1 0x20 ADD DUP4 PUSH2 0x160 ADD MLOAD DUP2 MSTORE POP SWAP1 POP SWAP2 SWAP1 POP JUMP JUMPDEST PUSH1 0x0 DUP2 DUP4 LT PUSH2 0xE7C JUMPI DUP2 PUSH2 0x8A7 JUMP JUMPDEST POP SWAP1 SWAP2 SWAP1 POP JUMP JUMPDEST PUSH20 0xFFFFFFFFFFFFFFFFFFFFFFFFFFFFFFFFFFFFFFFF DUP2 AND ISZERO ISZERO PUSH2 0xEA5 JUMPI PUSH1 0x0 DUP1 REVERT JUMPDEST PUSH1 0x0 DUP1 SLOAD PUSH1 0x40 MLOAD PUSH20 0xFFFFFFFFFFFFFFFFFFFFFFFFFFFFFFFFFFFFFFFF DUP1 DUP6 AND SWAP4 SWAP3 AND SWAP2 PUSH32 0x8BE0079C531659141344CD1FD0A4F28419497F9722A3DAAFE3B4186F6B6457E0 SWAP2 LOG3 PUSH1 0x0 DUP1 SLOAD PUSH32 0xFFFFFFFFFFFFFFFFFFFFFFFF0000000000000000000000000000000000000000 AND PUSH20 0xFFFFFFFFFFFFFFFFFFFFFFFFFFFFFFFFFFFFFFFF SWAP3 SWAP1 SWAP3 AND SWAP2 SWAP1 SWAP2 OR SWAP1 SSTORE JUMP JUMPDEST PUSH1 0x0 DUP2 PUSH1 0x4 ADD DUP4 MLOAD LT ISZERO ISZERO ISZERO PUSH2 0xF47 JUMPI PUSH1 0x0 DUP1 REVERT JUMPDEST POP ADD PUSH1 0x20 ADD MLOAD SWAP1 JUMP JUMPDEST PUSH1 0x0 RETURNDATASIZE DUP1 ISZERO PUSH2 0xF66 JUMPI PUSH1 0x20 DUP2 EQ PUSH2 0xF6F JUMPI PUSH1 0x0 DUP1 REVERT JUMPDEST PUSH1 0x1 SWAP2 POP PUSH2 0xF7B JUMP JUMPDEST PUSH1 0x20 PUSH1 0x0 DUP1 RETURNDATACOPY PUSH1 0x0 MLOAD SWAP2 POP JUMPDEST POP SWAP1 JUMP JUMPDEST PUSH1 0x0 DUP4 PUSH20 0xFFFFFFFFFFFFFFFFFFFFFFFFFFFFFFFFFFFFFFFF AND DUP4 DUP4 PUSH1 0x40 MLOAD PUSH1 0x24 ADD PUSH2 0xFAB SWAP3 SWAP2 SWAP1 PUSH2 0x1921 JUMP JUMPDEST PUSH1 0x40 DUP1 MLOAD PUSH32 0xFFFFFFFFFFFFFFFFFFFFFFFFFFFFFFFFFFFFFFFFFFFFFFFFFFFFFFFFFFFFFFE0 DUP2 DUP5 SUB ADD DUP2 MSTORE SWAP2 DUP2 MSTORE PUSH1 0x20 DUP3 ADD DUP1 MLOAD PUSH28 0xFFFFFFFFFFFFFFFFFFFFFFFFFFFFFFFFFFFFFFFFFFFFFFFFFFFFFFFF AND PUSH32 0x95EA7B300000000000000000000000000000000000000000000000000000000 OR DUP2 MSTORE SWAP1 MLOAD DUP3 MLOAD SWAP1 SWAP2 DUP3 SWAP2 DUP1 DUP4 DUP4 JUMPDEST PUSH1 0x20 DUP4 LT PUSH2 0x106A JUMPI DUP1 MLOAD DUP3 MSTORE PUSH32 0xFFFFFFFFFFFFFFFFFFFFFFFFFFFFFFFFFFFFFFFFFFFFFFFFFFFFFFFFFFFFFFE0 SWAP1 SWAP3 ADD SWAP2 PUSH1 0x20 SWAP2 DUP3 ADD SWAP2 ADD PUSH2 0x102D JUMP JUMPDEST PUSH1 0x1 DUP4 PUSH1 0x20 SUB PUSH2 0x100 EXP SUB DUP1 NOT DUP3 MLOAD AND DUP2 DUP5 MLOAD AND DUP1 DUP3 OR DUP6 MSTORE POP POP POP POP POP POP SWAP1 POP ADD SWAP2 POP POP PUSH1 0x0 PUSH1 0x40 MLOAD DUP1 DUP4 SUB DUP2 PUSH1 0x0 DUP7 GAS CALL SWAP2 POP POP RETURNDATASIZE DUP1 PUSH1 0x0 DUP2 EQ PUSH2 0x10CC JUMPI PUSH1 0x40 MLOAD SWAP2 POP PUSH1 0x1F NOT PUSH1 0x3F RETURNDATASIZE ADD AND DUP3 ADD PUSH1 0x40 MSTORE RETURNDATASIZE DUP3 MSTORE RETURNDATASIZE PUSH1 0x0 PUSH1 0x20 DUP5 ADD RETURNDATACOPY PUSH2 0x10D1 JUMP JUMPDEST PUSH1 0x60 SWAP2 POP JUMPDEST POP SWAP1 SWAP2 POP POP DUP1 ISZERO ISZERO PUSH2 0xC8D JUMPI PUSH1 0x40 MLOAD PUSH32 0x8C379A000000000000000000000000000000000000000000000000000000000 DUP2 MSTORE PUSH1 0x4 ADD PUSH2 0x654 SWAP1 PUSH2 0x1978 JUMP JUMPDEST PUSH2 0x1A0 PUSH1 0x40 MLOAD SWAP1 DUP2 ADD PUSH1 0x40 MSTORE DUP1 PUSH1 0x0 PUSH20 0xFFFFFFFFFFFFFFFFFFFFFFFFFFFFFFFFFFFFFFFF AND DUP2 MSTORE PUSH1 0x20 ADD PUSH1 0x0 PUSH20 0xFFFFFFFFFFFFFFFFFFFFFFFFFFFFFFFFFFFFFFFF AND DUP2 MSTORE PUSH1 0x20 ADD PUSH1 0x0 PUSH20 0xFFFFFFFFFFFFFFFFFFFFFFFFFFFFFFFFFFFFFFFF AND DUP2 MSTORE PUSH1 0x20 ADD PUSH1 0x0 PUSH20 0xFFFFFFFFFFFFFFFFFFFFFFFFFFFFFFFFFFFFFFFF AND DUP2 MSTORE PUSH1 0x20 ADD PUSH1 0x0 DUP2 MSTORE PUSH1 0x20 ADD PUSH1 0x0 DUP2 MSTORE PUSH1 0x20 ADD PUSH1 0x0 DUP2 MSTORE PUSH1 0x20 ADD PUSH1 0x0 DUP2 MSTORE PUSH1 0x20 ADD PUSH1 0x0 DUP2 MSTORE PUSH1 0x20 ADD PUSH1 0x0 DUP2 MSTORE PUSH1 0x20 ADD PUSH1 0x60 DUP2 MSTORE PUSH1 0x20 ADD PUSH1 0x60 DUP2 MSTORE PUSH1 0x20 ADD PUSH1 0x60 DUP2 MSTORE POP SWAP1 JUMP JUMPDEST PUSH1 0x80 PUSH1 0x40 MLOAD SWAP1 DUP2 ADD PUSH1 0x40 MSTORE DUP1 PUSH1 0x0 DUP2 MSTORE PUSH1 0x20 ADD PUSH1 0x0 DUP2 MSTORE PUSH1 0x20 ADD PUSH1 0x0 DUP2 MSTORE PUSH1 0x20 ADD PUSH1 0x0 DUP2 MSTORE POP SWAP1 JUMP JUMPDEST PUSH2 0x180 PUSH1 0x40 MLOAD SWAP1 DUP2 ADD PUSH1 0x40 MSTORE DUP1 PUSH1 0x0 PUSH20 0xFFFFFFFFFFFFFFFFFFFFFFFFFFFFFFFFFFFFFFFF AND DUP2 MSTORE PUSH1 0x20 ADD PUSH1 0x0 PUSH20 0xFFFFFFFFFFFFFFFFFFFFFFFFFFFFFFFFFFFFFFFF AND DUP2 MSTORE PUSH1 0x20 ADD PUSH1 0x0 PUSH20 0xFFFFFFFFFFFFFFFFFFFFFFFFFFFFFFFFFFFFFFFF AND DUP2 MSTORE PUSH1 0x20 ADD PUSH1 0x0 PUSH20 0xFFFFFFFFFFFFFFFFFFFFFFFFFFFFFFFFFFFFFFFF AND DUP2 MSTORE PUSH1 0x20 ADD PUSH1 0x0 DUP2 MSTORE PUSH1 0x20 ADD PUSH1 0x0 DUP2 MSTORE PUSH1 0x20 ADD PUSH1 0x0 DUP2 MSTORE PUSH1 0x20 ADD PUSH1 0x0 DUP2 MSTORE PUSH1 0x20 ADD PUSH1 0x0 DUP2 MSTORE PUSH1 0x20 ADD PUSH1 0x0 DUP2 MSTORE PUSH1 0x20 ADD PUSH1 0x60 DUP2 MSTORE PUSH1 0x20 ADD PUSH1 0x60 DUP2 MSTORE POP SWAP1 JUMP JUMPDEST PUSH1 0x0 PUSH2 0x8A7 DUP3 CALLDATALOAD PUSH2 0x1A57 JUMP JUMPDEST PUSH1 0x0 PUSH2 0x8A7 DUP3 MLOAD PUSH2 0x1A57 JUMP JUMPDEST PUSH1 0x0 PUSH2 0x8A7 DUP3 CALLDATALOAD PUSH2 0x1A62 JUMP JUMPDEST PUSH1 0x0 PUSH1 0x1F DUP3 ADD DUP4 SGT PUSH2 0x12E8 JUMPI PUSH1 0x0 DUP1 REVERT JUMPDEST DUP2 MLOAD PUSH2 0x12FB PUSH2 0x12F6 DUP3 PUSH2 0x1A0D JUMP JUMPDEST PUSH2 0x19E6 JUMP JUMPDEST SWAP2 POP DUP1 DUP3 MSTORE PUSH1 0x20 DUP4 ADD PUSH1 0x20 DUP4 ADD DUP6 DUP4 DUP4 ADD GT ISZERO PUSH2 0x1317 JUMPI PUSH1 0x0 DUP1 REVERT JUMPDEST PUSH2 0x1322 DUP4 DUP3 DUP5 PUSH2 0x1A9A JUMP JUMPDEST POP POP POP SWAP3 SWAP2 POP POP JUMP JUMPDEST PUSH1 0x0 PUSH1 0x1F DUP3 ADD DUP4 SGT PUSH2 0x133C JUMPI PUSH1 0x0 DUP1 REVERT JUMPDEST DUP2 CALLDATALOAD PUSH2 0x134A PUSH2 0x12F6 DUP3 PUSH2 0x1A0D JUMP JUMPDEST SWAP2 POP DUP1 DUP3 MSTORE PUSH1 0x20 DUP4 ADD PUSH1 0x20 DUP4 ADD DUP6 DUP4 DUP4 ADD GT ISZERO PUSH2 0x1366 JUMPI PUSH1 0x0 DUP1 REVERT JUMPDEST PUSH2 0x1322 DUP4 DUP3 DUP5 PUSH2 0x1A8E JUMP JUMPDEST PUSH1 0x0 PUSH1 0x80 DUP3 DUP5 SUB SLT ISZERO PUSH2 0x1383 JUMPI PUSH1 0x0 DUP1 REVERT JUMPDEST PUSH2 0x138D PUSH1 0x80 PUSH2 0x19E6 JUMP JUMPDEST SWAP1 POP PUSH1 0x0 PUSH2 0x139B DUP5 DUP5 PUSH2 0x1563 JUMP JUMPDEST DUP3 MSTORE POP PUSH1 0x20 PUSH2 0x13AC DUP5 DUP5 DUP4 ADD PUSH2 0x1563 JUMP JUMPDEST PUSH1 0x20 DUP4 ADD MSTORE POP PUSH1 0x40 PUSH2 0x13C0 DUP5 DUP3 DUP6 ADD PUSH2 0x1563 JUMP JUMPDEST PUSH1 0x40 DUP4 ADD MSTORE POP PUSH1 0x60 PUSH2 0x13D4 DUP5 DUP3 DUP6 ADD PUSH2 0x1563 JUMP JUMPDEST PUSH1 0x60 DUP4 ADD MSTORE POP SWAP3 SWAP2 POP POP JUMP JUMPDEST PUSH1 0x0 PUSH2 0x1A0 DUP3 DUP5 SUB SLT ISZERO PUSH2 0x13F3 JUMPI PUSH1 0x0 DUP1 REVERT JUMPDEST PUSH2 0x13FE PUSH2 0x1A0 PUSH2 0x19E6 JUMP JUMPDEST SWAP1 POP PUSH1 0x0 PUSH2 0x140C DUP5 DUP5 PUSH2 0x12BF JUMP JUMPDEST DUP3 MSTORE POP PUSH1 0x20 PUSH2 0x141D DUP5 DUP5 DUP4 ADD PUSH2 0x12BF JUMP JUMPDEST PUSH1 0x20 DUP4 ADD MSTORE POP PUSH1 0x40 PUSH2 0x1431 DUP5 DUP3 DUP6 ADD PUSH2 0x12BF JUMP JUMPDEST PUSH1 0x40 DUP4 ADD MSTORE POP PUSH1 0x60 PUSH2 0x1445 DUP5 DUP3 DUP6 ADD PUSH2 0x12BF JUMP JUMPDEST PUSH1 0x60 DUP4 ADD MSTORE POP PUSH1 0x80 PUSH2 0x1459 DUP5 DUP3 DUP6 ADD PUSH2 0x1563 JUMP JUMPDEST PUSH1 0x80 DUP4 ADD MSTORE POP PUSH1 0xA0 PUSH2 0x146D DUP5 DUP3 DUP6 ADD PUSH2 0x1563 JUMP JUMPDEST PUSH1 0xA0 DUP4 ADD MSTORE POP PUSH1 0xC0 PUSH2 0x1481 DUP5 DUP3 DUP6 ADD PUSH2 0x1563 JUMP JUMPDEST PUSH1 0xC0 DUP4 ADD MSTORE POP PUSH1 0xE0 PUSH2 0x1495 DUP5 DUP3 DUP6 ADD PUSH2 0x1563 JUMP JUMPDEST PUSH1 0xE0 DUP4 ADD MSTORE POP PUSH2 0x100 PUSH2 0x14AA DUP5 DUP3 DUP6 ADD PUSH2 0x1563 JUMP JUMPDEST PUSH2 0x100 DUP4 ADD MSTORE POP PUSH2 0x120 PUSH2 0x14C0 DUP5 DUP3 DUP6 ADD PUSH2 0x1563 JUMP JUMPDEST PUSH2 0x120 DUP4 ADD MSTORE POP PUSH2 0x140 DUP3 ADD MLOAD PUSH8 0xFFFFFFFFFFFFFFFF DUP2 GT ISZERO PUSH2 0x14E2 JUMPI PUSH1 0x0 DUP1 REVERT JUMPDEST PUSH2 0x14EE DUP5 DUP3 DUP6 ADD PUSH2 0x12D7 JUMP JUMPDEST PUSH2 0x140 DUP4 ADD MSTORE POP PUSH2 0x160 DUP3 ADD MLOAD PUSH8 0xFFFFFFFFFFFFFFFF DUP2 GT ISZERO PUSH2 0x1510 JUMPI PUSH1 0x0 DUP1 REVERT JUMPDEST PUSH2 0x151C DUP5 DUP3 DUP6 ADD PUSH2 0x12D7 JUMP JUMPDEST PUSH2 0x160 DUP4 ADD MSTORE POP PUSH2 0x180 DUP3 ADD MLOAD PUSH8 0xFFFFFFFFFFFFFFFF DUP2 GT ISZERO PUSH2 0x153E JUMPI PUSH1 0x0 DUP1 REVERT JUMPDEST PUSH2 0x154A DUP5 DUP3 DUP6 ADD PUSH2 0x12D7 JUMP JUMPDEST PUSH2 0x180 DUP4 ADD MSTORE POP SWAP3 SWAP2 POP POP JUMP JUMPDEST PUSH1 0x0 PUSH2 0x8A7 DUP3 CALLDATALOAD PUSH2 0x1A80 JUMP JUMPDEST PUSH1 0x0 PUSH2 0x8A7 DUP3 MLOAD PUSH2 0x1A80 JUMP JUMPDEST PUSH1 0x0 PUSH1 0x20 DUP3 DUP5 SUB SLT ISZERO PUSH2 0x1581 JUMPI PUSH1 0x0 DUP1 REVERT JUMPDEST PUSH1 0x0 PUSH2 0x158D DUP5 DUP5 PUSH2 0x12B3 JUMP JUMPDEST SWAP5 SWAP4 POP POP POP POP JUMP JUMPDEST PUSH1 0x0 DUP1 PUSH1 0x40 DUP4 DUP6 SUB SLT ISZERO PUSH2 0x15A8 JUMPI PUSH1 0x0 DUP1 REVERT JUMPDEST PUSH1 0x0 PUSH2 0x15B4 DUP6 DUP6 PUSH2 0x12B3 JUMP JUMPDEST SWAP3 POP POP PUSH1 0x20 PUSH2 0x15C5 DUP6 DUP3 DUP7 ADD PUSH2 0x1557 JUMP JUMPDEST SWAP2 POP POP SWAP3 POP SWAP3 SWAP1 POP JUMP JUMPDEST PUSH1 0x0 DUP1 PUSH1 0x0 DUP1 PUSH1 0x80 DUP6 DUP8 SUB SLT ISZERO PUSH2 0x15E5 JUMPI PUSH1 0x0 DUP1 REVERT JUMPDEST DUP5 CALLDATALOAD PUSH8 0xFFFFFFFFFFFFFFFF DUP2 GT ISZERO PUSH2 0x15FC JUMPI PUSH1 0x0 DUP1 REVERT JUMPDEST PUSH2 0x1608 DUP8 DUP3 DUP9 ADD PUSH2 0x132B JUMP JUMPDEST SWAP5 POP POP PUSH1 0x20 PUSH2 0x1619 DUP8 DUP3 DUP9 ADD PUSH2 0x1557 JUMP JUMPDEST SWAP4 POP POP PUSH1 0x40 PUSH2 0x162A DUP8 DUP3 DUP9 ADD PUSH2 0x1557 JUMP JUMPDEST SWAP3 POP POP PUSH1 0x60 PUSH2 0x163B DUP8 DUP3 DUP9 ADD PUSH2 0x12CB JUMP JUMPDEST SWAP2 POP POP SWAP3 SWAP6 SWAP2 SWAP5 POP SWAP3 POP JUMP JUMPDEST PUSH1 0x0 PUSH1 0x80 DUP3 DUP5 SUB SLT ISZERO PUSH2 0x1659 JUMPI PUSH1 0x0 DUP1 REVERT JUMPDEST PUSH1 0x0 PUSH2 0x158D DUP5 DUP5 PUSH2 0x1371 JUMP JUMPDEST PUSH1 0x0 PUSH1 0x20 DUP3 DUP5 SUB SLT ISZERO PUSH2 0x1677 JUMPI PUSH1 0x0 DUP1 REVERT JUMPDEST DUP2 MLOAD PUSH8 0xFFFFFFFFFFFFFFFF DUP2 GT ISZERO PUSH2 0x168E JUMPI PUSH1 0x0 DUP1 REVERT JUMPDEST PUSH2 0x158D DUP5 DUP3 DUP6 ADD PUSH2 0x13E0 JUMP JUMPDEST PUSH1 0x0 PUSH1 0x20 DUP3 DUP5 SUB SLT ISZERO PUSH2 0x16AC JUMPI PUSH1 0x0 DUP1 REVERT JUMPDEST PUSH1 0x0 PUSH2 0x158D DUP5 DUP5 PUSH2 0x1557 JUMP JUMPDEST PUSH1 0x0 PUSH1 0x20 DUP3 DUP5 SUB SLT ISZERO PUSH2 0x16CA JUMPI PUSH1 0x0 DUP1 REVERT JUMPDEST PUSH1 0x0 PUSH2 0x158D DUP5 DUP5 PUSH2 0x1563 JUMP JUMPDEST PUSH2 0x16DF DUP2 PUSH2 0x1A57 JUMP JUMPDEST DUP3 MSTORE POP POP JUMP JUMPDEST PUSH2 0x16DF DUP2 PUSH2 0x1A62 JUMP JUMPDEST PUSH1 0x0 PUSH2 0x16F9 DUP3 PUSH2 0x1A53 JUMP JUMPDEST DUP1 DUP5 MSTORE PUSH2 0x170D DUP2 PUSH1 0x20 DUP7 ADD PUSH1 0x20 DUP7 ADD PUSH2 0x1A9A JUMP JUMPDEST PUSH2 0x1716 DUP2 PUSH2 0x1ACA JUMP JUMPDEST SWAP1 SWAP4 ADD PUSH1 0x20 ADD SWAP4 SWAP3 POP POP POP JUMP JUMPDEST PUSH2 0x16DF DUP2 PUSH2 0x1A83 JUMP JUMPDEST PUSH1 0x14 DUP2 MSTORE PUSH32 0x436F6E7472616374206E6F74207061757365642E000000000000000000000000 PUSH1 0x20 DUP3 ADD MSTORE PUSH1 0x40 ADD SWAP1 JUMP JUMPDEST PUSH1 0xF DUP2 MSTORE PUSH32 0x5472616E73666572206661696C65640000000000000000000000000000000000 PUSH1 0x20 DUP3 ADD MSTORE PUSH1 0x40 ADD SWAP1 JUMP JUMPDEST PUSH1 0xE DUP2 MSTORE PUSH32 0x417070726F7665206661696C6564000000000000000000000000000000000000 PUSH1 0x20 DUP3 ADD MSTORE PUSH1 0x40 ADD SWAP1 JUMP JUMPDEST PUSH1 0x13 DUP2 MSTORE PUSH32 0x436F6E7472616374206973207061757365642E00000000000000000000000000 PUSH1 0x20 DUP3 ADD MSTORE PUSH1 0x40 ADD SWAP1 JUMP JUMPDEST DUP1 MLOAD PUSH1 0x0 SWAP1 PUSH2 0x180 DUP5 ADD SWAP1 PUSH2 0x1801 DUP6 DUP3 PUSH2 0x16D6 JUMP JUMPDEST POP PUSH1 0x20 DUP4 ADD MLOAD PUSH2 0x1814 PUSH1 0x20 DUP7 ADD DUP3 PUSH2 0x16D6 JUMP JUMPDEST POP PUSH1 0x40 DUP4 ADD MLOAD PUSH2 0x1827 PUSH1 0x40 DUP7 ADD DUP3 PUSH2 0x16D6 JUMP JUMPDEST POP PUSH1 0x60 DUP4 ADD MLOAD PUSH2 0x183A PUSH1 0x60 DUP7 ADD DUP3 PUSH2 0x16D6 JUMP JUMPDEST POP PUSH1 0x80 DUP4 ADD MLOAD PUSH2 0x184D PUSH1 0x80 DUP7 ADD DUP3 PUSH2 0x18EF JUMP JUMPDEST POP PUSH1 0xA0 DUP4 ADD MLOAD PUSH2 0x1860 PUSH1 0xA0 DUP7 ADD DUP3 PUSH2 0x18EF JUMP JUMPDEST POP PUSH1 0xC0 DUP4 ADD MLOAD PUSH2 0x1873 PUSH1 0xC0 DUP7 ADD DUP3 PUSH2 0x18EF JUMP JUMPDEST POP PUSH1 0xE0 DUP4 ADD MLOAD PUSH2 0x1886 PUSH1 0xE0 DUP7 ADD DUP3 PUSH2 0x18EF JUMP JUMPDEST POP PUSH2 0x100 DUP4 ADD MLOAD PUSH2 0x189B PUSH2 0x100 DUP7 ADD DUP3 PUSH2 0x18EF JUMP JUMPDEST POP PUSH2 0x120 DUP4 ADD MLOAD PUSH2 0x18B0 PUSH2 0x120 DUP7 ADD DUP3 PUSH2 0x18EF JUMP JUMPDEST POP PUSH2 0x140 DUP4 ADD MLOAD DUP5 DUP3 SUB PUSH2 0x140 DUP7 ADD MSTORE PUSH2 0x18CA DUP3 DUP3 PUSH2 0x16EE JUMP JUMPDEST SWAP2 POP POP PUSH2 0x160 DUP4 ADD MLOAD DUP5 DUP3 SUB PUSH2 0x160 DUP7 ADD MSTORE PUSH2 0x18E6 DUP3 DUP3 PUSH2 0x16EE JUMP JUMPDEST SWAP6 SWAP5 POP POP POP POP POP JUMP JUMPDEST PUSH2 0x16DF DUP2 PUSH2 0x1A80 JUMP JUMPDEST PUSH1 0x20 DUP2 ADD PUSH2 0x8AA DUP3 DUP5 PUSH2 0x16D6 JUMP JUMPDEST PUSH1 0x40 DUP2 ADD PUSH2 0x1914 DUP3 DUP6 PUSH2 0x16D6 JUMP JUMPDEST PUSH2 0xC98 PUSH1 0x20 DUP4 ADD DUP5 PUSH2 0x16D6 JUMP JUMPDEST PUSH1 0x40 DUP2 ADD PUSH2 0x192F DUP3 DUP6 PUSH2 0x16D6 JUMP JUMPDEST PUSH2 0xC98 PUSH1 0x20 DUP4 ADD DUP5 PUSH2 0x18EF JUMP JUMPDEST PUSH1 0x20 DUP2 ADD PUSH2 0x8AA DUP3 DUP5 PUSH2 0x16E5 JUMP JUMPDEST PUSH1 0x20 DUP2 ADD PUSH2 0x8AA DUP3 DUP5 PUSH2 0x1723 JUMP JUMPDEST PUSH1 0x20 DUP1 DUP3 MSTORE DUP2 ADD PUSH2 0x8AA DUP2 PUSH2 0x172C JUMP JUMPDEST PUSH1 0x20 DUP1 DUP3 MSTORE DUP2 ADD PUSH2 0x8AA DUP2 PUSH2 0x175C JUMP JUMPDEST PUSH1 0x20 DUP1 DUP3 MSTORE DUP2 ADD PUSH2 0x8AA DUP2 PUSH2 0x178C JUMP JUMPDEST PUSH1 0x20 DUP1 DUP3 MSTORE DUP2 ADD PUSH2 0x8AA DUP2 PUSH2 0x17BC JUMP JUMPDEST PUSH1 0x60 DUP1 DUP3 MSTORE DUP2 ADD PUSH2 0x19A9 DUP2 DUP7 PUSH2 0x17EC JUMP JUMPDEST SWAP1 POP PUSH2 0x19B8 PUSH1 0x20 DUP4 ADD DUP6 PUSH2 0x18EF JUMP JUMPDEST DUP2 DUP2 SUB PUSH1 0x40 DUP4 ADD MSTORE PUSH2 0x18E6 DUP2 DUP5 PUSH2 0x16EE JUMP JUMPDEST PUSH1 0x20 DUP2 ADD PUSH2 0x8AA DUP3 DUP5 PUSH2 0x18EF JUMP JUMPDEST PUSH1 0x40 DUP2 ADD PUSH2 0x192F DUP3 DUP6 PUSH2 0x18EF JUMP JUMPDEST PUSH1 0x40 MLOAD DUP2 DUP2 ADD PUSH8 0xFFFFFFFFFFFFFFFF DUP2 GT DUP3 DUP3 LT OR ISZERO PUSH2 0x1A05 JUMPI PUSH1 0x0 DUP1 REVERT JUMPDEST PUSH1 0x40 MSTORE SWAP2 SWAP1 POP JUMP JUMPDEST PUSH1 0x0 PUSH8 0xFFFFFFFFFFFFFFFF DUP3 GT ISZERO PUSH2 0x1A24 JUMPI PUSH1 0x0 DUP1 REVERT JUMPDEST POP PUSH1 0x20 PUSH1 0x1F SWAP2 SWAP1 SWAP2 ADD PUSH32 0xFFFFFFFFFFFFFFFFFFFFFFFFFFFFFFFFFFFFFFFFFFFFFFFFFFFFFFFFFFFFFFE0 AND ADD SWAP1 JUMP JUMPDEST MLOAD SWAP1 JUMP JUMPDEST PUSH1 0x0 PUSH2 0x8AA DUP3 PUSH2 0x1A67 JUMP JUMPDEST ISZERO ISZERO SWAP1 JUMP JUMPDEST PUSH20 0xFFFFFFFFFFFFFFFFFFFFFFFFFFFFFFFFFFFFFFFF AND SWAP1 JUMP JUMPDEST SWAP1 JUMP JUMPDEST PUSH1 0x0 PUSH2 0x8AA DUP3 PUSH2 0x1A57 JUMP JUMPDEST DUP3 DUP2 DUP4 CALLDATACOPY POP PUSH1 0x0 SWAP2 ADD MSTORE JUMP JUMPDEST PUSH1 0x0 JUMPDEST DUP4 DUP2 LT ISZERO PUSH2 0x1AB5 JUMPI DUP2 DUP2 ADD MLOAD DUP4 DUP3 ADD MSTORE PUSH1 0x20 ADD PUSH2 0x1A9D JUMP JUMPDEST DUP4 DUP2 GT ISZERO PUSH2 0x1AC4 JUMPI PUSH1 0x0 DUP5 DUP5 ADD MSTORE JUMPDEST POP POP POP POP JUMP JUMPDEST PUSH1 0x1F ADD PUSH32 0xFFFFFFFFFFFFFFFFFFFFFFFFFFFFFFFFFFFFFFFFFFFFFFFFFFFFFFFFFFFFFFE0 AND SWAP1 JUMP INVALID LOG2 PUSH6 0x627A7A723058 KECCAK256 GASLIMIT DUP16 0xd9 PUSH23 0x705BE9F66CE39221160FCB077379E20D890D07A2AEBDF9 DUP11 LOG4 DUP14 SWAP15 0xbd PUSH13 0x6578706572696D656E74616CF5 STOP CALLDATACOPY DELEGATECALL PUSH19 0x61B0000000000000000000000000E41D248957 SAR ORIGIN 0x21 DUP10 0x24 PUSH14 0xAFA5EBDE1F4699F4980000000000 "
			}
		}
	},
	"sourceTreeHashHex": "0x695ef28aafddc394ee4a3a1b6ff4dd2459f242792404faca4e3b73427ebdbb0c",
	"compiler": {
		"name": "solc",
		"version": "0.5.3+commit.10d17f24",
		"settings": {
			"remappings": [],
			"optimizer": {
				"enabled": true,
				"runs": 1000000
			},
			"outputSelection": {
				"*": {
					"*": [
						"abi",
						"devdoc",
						"evm.bytecode.object",
						"evm.bytecode.sourceMap",
						"evm.deployedBytecode.object",
						"evm.deployedBytecode.sourceMap"
					]
				}
			}
		}
	},
	"chains": {}
}