{
	"data": {
		"bytecode": {
			"linkReferences": {},
			"object": "60806040526000805460ff1916905534801561001a57600080fd5b50604051608080611a8f8339810180604052608081101561003a57600080fd5b5080516020820151604083015160609093015160008054600160a060020a039485166101000261010060a860020a031990911617905560038054928416600160a060020a03199384161790556002805494841694831694909417909355600180549290931691161790556119dc806100b36000396000f3fe608060405234801561001057600080fd5b506004361061011a5760003560e060020a90048063959e52d9116100a6578063b516e6e111610075578063b516e6e1146102fa578063c9b185cc14610320578063d21c87ad14610328578063d418634a1461039a578063f36766c1146103b75761011a565b8063959e52d91461028c5780639af94f30146102af578063a6c9c443146102cc578063a91ee0dc146102d45761011a565b8063427fdc0c116100ed578063427fdc0c146101e357806346a62eaf146102005780634d749e431461021d5780637f8be8591461025357806382afd23b1461025b5761011a565b8063025796771461011f5780630575204714610143578063249d912314610171578063360dafa0146101a0575b600080fd5b6101276103d4565b60408051600160a060020a039092168252519081900360200190f35b61016f6004803603604081101561015957600080fd5b50600160a060020a0381351690602001356103e3565b005b61018e6004803603602081101561018757600080fd5b50356104bb565b60408051918252519081900360200190f35b6101bd600480360360208110156101b657600080fd5b50356104ce565b60408051600160a060020a03938416815291909216602082015281519081900390910190f35b61018e600480360360208110156101f957600080fd5b50356104e3565b61018e6004803603602081101561021657600080fd5b50356104f6565b61023a6004803603602081101561023357600080fd5b503561050b565b6040805192835260208301919091528051918290030190f35b610127610517565b6102786004803603602081101561027157600080fd5b5035610526565b604080519115158252519081900360200190f35b61016f600480360360408110156102a257600080fd5b5080359060200135610531565b61023a600480360360208110156102c557600080fd5b5035610a08565b610127610a1f565b61016f600480360360208110156102ea57600080fd5b5035600160a060020a0316610a33565b61016f6004803603602081101561031057600080fd5b5035600160a060020a0316610ac4565b610127610b55565b6103456004803603602081101561033e57600080fd5b5035610b64565b604080519915158a52600160a060020a0398891660208b015296909716888701526060880194909452608087019290925260a086015260c085015260e084015261010083019190915251908190036101200190f35b61018e600480360360208110156103b057600080fd5b5035610bc5565b61018e600480360360208110156103cd57600080fd5b5035610bdb565b600254600160a060020a031681565b600354600160a060020a03163314610445576040805160e560020a62461bcd02815260206004820152601260248201527f4f4e4c595f5249474f424c4f434b5f44414f0000000000000000000000000000604482015290519081900360640190fd5b61271081111561049f576040805160e560020a62461bcd02815260206004820152601760248201527f524154494f5f4249474745525f5448414e5f3130303030000000000000000000604482015290519081900360640190fd5b600160a060020a03909116600090815260056020526040902055565b60006104c682610e69565b90505b919050565b6000806104da83610ea2565b91509150915091565b60006104ee82610ff4565b949350505050565b6000806105028361116b565b95945050505050565b6000806104da8361129e565b600354600160a060020a031681565b60006104c6826113f1565b60005460ff161561058c576040805160e560020a62461bcd02815260206004820152601260248201527f5245454e5452414e43595f494c4c4547414c0000000000000000000000000000604482015290519081900360640190fd5b60008054600160ff19909116811790915554600160a060020a031633146105fd576040805160e560020a62461bcd02815260206004820152601260248201527f4f4e4c595f5354414b494e475f50524f58590000000000000000000000000000604482015290519081900360640190fd5b600154604080517faef864db000000000000000000000000000000000000000000000000000000008152600481018590529051606092600160a060020a03169163aef864db916024808301926000929190829003018186803b15801561066257600080fd5b505afa158015610676573d6000803e3d6000fd5b505050506040513d6000823e601f3d908101601f19168201604052602081101561069f57600080fd5b8101908080516401000000008111156106b757600080fd5b820160208101848111156106ca57600080fd5b81518560208202830111640100000000821117156106e757600080fd5b50909450600093505050505b815181101561091e576000828281518110151561070c57fe5b60209081029091010151600254604080517fb72e717d000000000000000000000000000000000000000000000000000000008152600160a060020a0380851660048301529151939450600093919092169163b72e717d9160248083019286929190829003018186803b15801561078157600080fd5b505afa158015610795573d6000803e3d6000fd5b505050506040513d6000823e601f3d908101601f1916820160405260c08110156107be57600080fd5b8151602083018051919392830192916401000000008111156107df57600080fd5b820160208101848111156107f257600080fd5b815164010000000081118282018710171561080c57600080fd5b5050929190602001805164010000000081111561082857600080fd5b8201602081018481111561083b57600080fd5b815164010000000081118282018710171561085557600080fd5b5050604080517f9489fa840000000000000000000000000000000000000000000000000000000081529051969750600096600160a060020a038a169650639489fa849550600480830195506020945090925090829003018186803b1580156108bc57600080fd5b505afa1580156108d0573d6000803e3d6000fd5b505050506040513d60208110156108e657600080fd5b50516000838152600460205260409020549091508111156109135760008281526004602052604090208190555b5050506001016106f3565b50610927611559565b600160a060020a0316637fa36e4084846040518363ffffffff1660e060020a0281526004018083815260200182815260200192505050602060405180830381600087803b15801561097757600080fd5b505af115801561098b573d6000803e3d6000fd5b505050506040513d60208110156109a157600080fd5b505115156109f9576040805160e560020a62461bcd02815260206004820152601460248201527f4d494e545f494e464c4154494f4e5f4552524f52000000000000000000000000604482015290519081900360640190fd5b50506000805460ff1916905550565b600080610a1483610ff4565b509094909350915050565b6000546101009004600160a060020a031681565b600354600160a060020a03163314610a95576040805160e560020a62461bcd02815260206004820152601260248201527f4f4e4c595f5249474f424c4f434b5f44414f0000000000000000000000000000604482015290519081900360640190fd5b6002805473ffffffffffffffffffffffffffffffffffffffff1916600160a060020a0392909216919091179055565b600354600160a060020a03163314610b26576040805160e560020a62461bcd02815260206004820152601260248201527f4f4e4c595f5249474f424c4f434b5f44414f0000000000000000000000000000604482015290519081900360640190fd5b6003805473ffffffffffffffffffffffffffffffffffffffff1916600160a060020a0392909216919091179055565b600154600160a060020a031681565b6000806000806000806000806000610b7b8a6113f1565b9850610b868a610ea2565b9098509650610b948a610ff4565b91975095509350610ba48a61116b565b919450909250610bb590508a61129e565b5090509193959799909294969850565b600080610bd18361116b565b5090949350505050565b600154604080517faef864db000000000000000000000000000000000000000000000000000000008152600481018490529051600092606092600160a060020a039091169163aef864db916024808201928792909190829003018186803b158015610c4557600080fd5b505afa158015610c59573d6000803e3d6000fd5b505050506040513d6000823e601f3d908101601f191682016040526020811015610c8257600080fd5b810190808051640100000000811115610c9a57600080fd5b82016020810184811115610cad57600080fd5b8151856020820283011164010000000082111715610cca57600080fd5b50909450600093505050505b8151811015610e625760008282815181101515610cef57fe5b60209081029091010151600254604080517fb72e717d000000000000000000000000000000000000000000000000000000008152600160a060020a0380851660048301529151939450600093919092169163b72e717d9160248083019286929190829003018186803b158015610d6457600080fd5b505afa158015610d78573d6000803e3d6000fd5b505050506040513d6000823e601f3d908101601f1916820160405260c0811015610da157600080fd5b815160208301805191939283019291640100000000811115610dc257600080fd5b82016020810184811115610dd557600080fd5b8151640100000000811182820187101715610def57600080fd5b50509291906020018051640100000000811115610e0b57600080fd5b82016020810184811115610e1e57600080fd5b8151640100000000811182820187101715610e3857600080fd5b5095965060009550610e51945086935061129e92505050565b509590950194505050600101610cd6565b5050919050565b6000818152600460205260408120541515610e8d5750670de0b6b3a76400006104c9565b506000818152600460205260409020546104c9565b600254604080517fc277f1ac0000000000000000000000000000000000000000000000000000000081526004810184905290516000928392600160a060020a039091169163c277f1ac916024808201928692909190829003018186803b158015610f0b57600080fd5b505afa158015610f1f573d6000803e3d6000fd5b505050506040513d6000823e601f3d908101601f1916820160405260c0811015610f4857600080fd5b815160208301805191939283019291640100000000811115610f6957600080fd5b82016020810184811115610f7c57600080fd5b8151640100000000811182820187101715610f9657600080fd5b50509291906020018051640100000000811115610fb257600080fd5b82016020810184811115610fc557600080fd5b8151640100000000811182820187101715610fdf57600080fd5b50505060600151939550929350505050915091565b60008060008061100385610ea2565b509050600081905080600160a060020a0316639489fa846040518163ffffffff1660e060020a02815260040160206040518083038186803b15801561104757600080fd5b505afa15801561105b573d6000803e3d6000fd5b505050506040513d602081101561107157600080fd5b5051604080517f18160ddd0000000000000000000000000000000000000000000000000000000081529051919650600160a060020a038316916318160ddd91600480820192602092909190829003018186803b1580156110d057600080fd5b505afa1580156110e4573d6000803e3d6000fd5b505050506040513d60208110156110fa57600080fd5b50519350841580611109575083155b156111485760405160e560020a62461bcd02815260040180806020018281038252602581526020018061198c6025913960400191505060405180910390fd5b620f424061115686866115e2565b81151561115f57fe5b04925050509193909250565b60008060008061117a85610ea2565b915050611185611559565b600160a060020a031663d410e0c2826040518263ffffffff1660e060020a0281526004018082600160a060020a0316600160a060020a0316815260200191505060206040518083038186803b1580156111dd57600080fd5b505afa1580156111f1573d6000803e3d6000fd5b505050506040513d602081101561120757600080fd5b50519350611213611559565b600160a060020a031663ef78d4fd6040518163ffffffff1660e060020a02815260040160206040518083038186803b15801561124e57600080fd5b505afa158015611262573d6000803e3d6000fd5b505050506040513d602081101561127857600080fd5b5051600160a060020a039091166000908152600560205260409020549395909450915050565b60008060006112ac84610e69565b905060008060006112bc87610ff4565b92509250925060006112cd88610ea2565b50905060008060006112de8b61116b565b9194509250905060008062015180846112f789886115e2565b0281151561130157fe5b0491508989106113475762015180611332620f42406113228d8d038c6115e2565b81151561132b57fe5b04876115e2565b6301e133800281151561134157fe5b0461134a565b60005b90506000670de0b6b3a7640000611361888a61160f565b69021e19e0c9bab24000006113818661137c6127108a61192a565b6115e2565b81151561138a57fe5b040281151561139557fe5b049050670de0b6b3a76400006113ab888a61160f565b6113c86113b885886115e2565b69021e19e0c9bab240000061193c565b028115156113d257fe5b049b506113df8c82611971565b9c505050505050505050505050915091565b600254604080517fc277f1ac0000000000000000000000000000000000000000000000000000000081526004810184905290516000928392600160a060020a039091169163c277f1ac916024808201928692909190829003018186803b15801561145a57600080fd5b505afa15801561146e573d6000803e3d6000fd5b505050506040513d6000823e601f3d908101601f1916820160405260c081101561149757600080fd5b8151602083018051919392830192916401000000008111156114b857600080fd5b820160208101848111156114cb57600080fd5b81516401000000008111828201871017156114e557600080fd5b5050929190602001805164010000000081111561150157600080fd5b8201602081018481111561151457600080fd5b815164010000000081118282018710171561152e57600080fd5b509596505050600160a060020a038516159350611553925050505760019150506104c9565b50919050565b600080600060019054906101000a9004600160a060020a0316905080600160a060020a031663075461726040518163ffffffff1660e060020a02815260040160206040518083038186803b1580156115b057600080fd5b505afa1580156115c4573d6000803e3d6000fd5b505050506040513d60208110156115da57600080fd5b505191505090565b60008282028315806115fe57508284828115156115fb57fe5b04145b151561160657fe5b90505b92915050565b6000600160a060020a0383163182811180611630575066038d7ea4c6800081105b806116415750662386f26fc1000083105b15611696576040805160e560020a62461bcd02815260206004820152601b60248201527f4554485f41424f56455f41554d5f4f525f445553545f4552524f520000000000604482015290519081900360640190fd5b670b1a2bc2ec5000008382670de0b6b3a7640000028115156116b457fe5b04106116cb57670de0b6b3a7640000915050611609565b670853a0d2313c00008382670de0b6b3a7640000028115156116e957fe5b041061170057670d163580f7318000915050611609565b6706f05b59d3b200008382670de0b6b3a76400000281151561171e57fe5b041061173557670c39f0d50f1e8000915050611609565b67058d15e1762800008382670de0b6b3a76400000281151561175357fe5b041061176a57670aac096cf8468000915050611609565b670429d069189e00008382670de0b6b3a76400000281151561178857fe5b041061179f5767085013538c758000915050611609565b6702c68af0bb1400008382670de0b6b3a7640000028115156117bd57fe5b04106117d457670590a3601aee8000915050611609565b67016345785d8a00008382670de0b6b3a7640000028115156117f257fe5b041061180957670334ad46af1d8000915050611609565b67010a741a462780008382670de0b6b3a76400000281151561182757fe5b041061183e576702bf6ff371870000915050611609565b66b1a2bc2ec500008382670de0b6b3a76400000281151561185b57fe5b041061187257670254db1c22440000915050611609565b668700cc757700008382670de0b6b3a76400000281151561188f57fe5b04106118a657670226abadc42f8000915050611609565b6658d15e176280008382670de0b6b3a7640000028115156118c357fe5b04106118da576701f87c3f661b0000915050611609565b6040805160e560020a62461bcd02815260206004820152601f60248201527f4554485f42454c4f575f322e355f50455243454e545f41554d5f4552524f5200604482015290519081900360640190fd5b60008282111561193657fe5b50900390565b600080821161194757fe5b6000828481151561195457fe5b049050828481151561196257fe5b06818402018414151561160657fe5b60008282018381108015906115fe57508281101561160657fefe504f4f4c5f50524943455f4f525f544f54414c5f535550504c595f4e554c4c5f4552524f52a165627a7a7230582010485897fdd342897d3a50274c73cad0ced37a81988144c208abf2232b6cdfd60029",
			"opcodes": "PUSH1 0x80 PUSH1 0x40 MSTORE PUSH1 0x0 DUP1 SLOAD PUSH1 0xFF NOT AND SWAP1 SSTORE CALLVALUE DUP1 ISZERO PUSH2 0x1A JUMPI PUSH1 0x0 DUP1 REVERT JUMPDEST POP PUSH1 0x40 MLOAD PUSH1 0x80 DUP1 PUSH2 0x1A8F DUP4 CODECOPY DUP2 ADD DUP1 PUSH1 0x40 MSTORE PUSH1 0x80 DUP2 LT ISZERO PUSH2 0x3A JUMPI PUSH1 0x0 DUP1 REVERT JUMPDEST POP DUP1 MLOAD PUSH1 0x20 DUP3 ADD MLOAD PUSH1 0x40 DUP4 ADD MLOAD PUSH1 0x60 SWAP1 SWAP4 ADD MLOAD PUSH1 0x0 DUP1 SLOAD PUSH1 0x1 PUSH1 0xA0 PUSH1 0x2 EXP SUB SWAP5 DUP6 AND PUSH2 0x100 MUL PUSH2 0x100 PUSH1 0xA8 PUSH1 0x2 EXP SUB NOT SWAP1 SWAP2 AND OR SWAP1 SSTORE PUSH1 0x3 DUP1 SLOAD SWAP3 DUP5 AND PUSH1 0x1 PUSH1 0xA0 PUSH1 0x2 EXP SUB NOT SWAP4 DUP5 AND OR SWAP1 SSTORE PUSH1 0x2 DUP1 SLOAD SWAP5 DUP5 AND SWAP5 DUP4 AND SWAP5 SWAP1 SWAP5 OR SWAP1 SWAP4 SSTORE PUSH1 0x1 DUP1 SLOAD SWAP3 SWAP1 SWAP4 AND SWAP2 AND OR SWAP1 SSTORE PUSH2 0x19DC DUP1 PUSH2 0xB3 PUSH1 0x0 CODECOPY PUSH1 0x0 RETURN INVALID PUSH1 0x80 PUSH1 0x40 MSTORE CALLVALUE DUP1 ISZERO PUSH2 0x10 JUMPI PUSH1 0x0 DUP1 REVERT JUMPDEST POP PUSH1 0x4 CALLDATASIZE LT PUSH2 0x11A JUMPI PUSH1 0x0 CALLDATALOAD PUSH1 0xE0 PUSH1 0x2 EXP SWAP1 DIV DUP1 PUSH4 0x959E52D9 GT PUSH2 0xA6 JUMPI DUP1 PUSH4 0xB516E6E1 GT PUSH2 0x75 JUMPI DUP1 PUSH4 0xB516E6E1 EQ PUSH2 0x2FA JUMPI DUP1 PUSH4 0xC9B185CC EQ PUSH2 0x320 JUMPI DUP1 PUSH4 0xD21C87AD EQ PUSH2 0x328 JUMPI DUP1 PUSH4 0xD418634A EQ PUSH2 0x39A JUMPI DUP1 PUSH4 0xF36766C1 EQ PUSH2 0x3B7 JUMPI PUSH2 0x11A JUMP JUMPDEST DUP1 PUSH4 0x959E52D9 EQ PUSH2 0x28C JUMPI DUP1 PUSH4 0x9AF94F30 EQ PUSH2 0x2AF JUMPI DUP1 PUSH4 0xA6C9C443 EQ PUSH2 0x2CC JUMPI DUP1 PUSH4 0xA91EE0DC EQ PUSH2 0x2D4 JUMPI PUSH2 0x11A JUMP JUMPDEST DUP1 PUSH4 0x427FDC0C GT PUSH2 0xED JUMPI DUP1 PUSH4 0x427FDC0C EQ PUSH2 0x1E3 JUMPI DUP1 PUSH4 0x46A62EAF EQ PUSH2 0x200 JUMPI DUP1 PUSH4 0x4D749E43 EQ PUSH2 0x21D JUMPI DUP1 PUSH4 0x7F8BE859 EQ PUSH2 0x253 JUMPI DUP1 PUSH4 0x82AFD23B EQ PUSH2 0x25B JUMPI PUSH2 0x11A JUMP JUMPDEST DUP1 PUSH4 0x2579677 EQ PUSH2 0x11F JUMPI DUP1 PUSH4 0x5752047 EQ PUSH2 0x143 JUMPI DUP1 PUSH4 0x249D9123 EQ PUSH2 0x171 JUMPI DUP1 PUSH4 0x360DAFA0 EQ PUSH2 0x1A0 JUMPI JUMPDEST PUSH1 0x0 DUP1 REVERT JUMPDEST PUSH2 0x127 PUSH2 0x3D4 JUMP JUMPDEST PUSH1 0x40 DUP1 MLOAD PUSH1 0x1 PUSH1 0xA0 PUSH1 0x2 EXP SUB SWAP1 SWAP3 AND DUP3 MSTORE MLOAD SWAP1 DUP2 SWAP1 SUB PUSH1 0x20 ADD SWAP1 RETURN JUMPDEST PUSH2 0x16F PUSH1 0x4 DUP1 CALLDATASIZE SUB PUSH1 0x40 DUP2 LT ISZERO PUSH2 0x159 JUMPI PUSH1 0x0 DUP1 REVERT JUMPDEST POP PUSH1 0x1 PUSH1 0xA0 PUSH1 0x2 EXP SUB DUP2 CALLDATALOAD AND SWAP1 PUSH1 0x20 ADD CALLDATALOAD PUSH2 0x3E3 JUMP JUMPDEST STOP JUMPDEST PUSH2 0x18E PUSH1 0x4 DUP1 CALLDATASIZE SUB PUSH1 0x20 DUP2 LT ISZERO PUSH2 0x187 JUMPI PUSH1 0x0 DUP1 REVERT JUMPDEST POP CALLDATALOAD PUSH2 0x4BB JUMP JUMPDEST PUSH1 0x40 DUP1 MLOAD SWAP2 DUP3 MSTORE MLOAD SWAP1 DUP2 SWAP1 SUB PUSH1 0x20 ADD SWAP1 RETURN JUMPDEST PUSH2 0x1BD PUSH1 0x4 DUP1 CALLDATASIZE SUB PUSH1 0x20 DUP2 LT ISZERO PUSH2 0x1B6 JUMPI PUSH1 0x0 DUP1 REVERT JUMPDEST POP CALLDATALOAD PUSH2 0x4CE JUMP JUMPDEST PUSH1 0x40 DUP1 MLOAD PUSH1 0x1 PUSH1 0xA0 PUSH1 0x2 EXP SUB SWAP4 DUP5 AND DUP2 MSTORE SWAP2 SWAP1 SWAP3 AND PUSH1 0x20 DUP3 ADD MSTORE DUP2 MLOAD SWAP1 DUP2 SWAP1 SUB SWAP1 SWAP2 ADD SWAP1 RETURN JUMPDEST PUSH2 0x18E PUSH1 0x4 DUP1 CALLDATASIZE SUB PUSH1 0x20 DUP2 LT ISZERO PUSH2 0x1F9 JUMPI PUSH1 0x0 DUP1 REVERT JUMPDEST POP CALLDATALOAD PUSH2 0x4E3 JUMP JUMPDEST PUSH2 0x18E PUSH1 0x4 DUP1 CALLDATASIZE SUB PUSH1 0x20 DUP2 LT ISZERO PUSH2 0x216 JUMPI PUSH1 0x0 DUP1 REVERT JUMPDEST POP CALLDATALOAD PUSH2 0x4F6 JUMP JUMPDEST PUSH2 0x23A PUSH1 0x4 DUP1 CALLDATASIZE SUB PUSH1 0x20 DUP2 LT ISZERO PUSH2 0x233 JUMPI PUSH1 0x0 DUP1 REVERT JUMPDEST POP CALLDATALOAD PUSH2 0x50B JUMP JUMPDEST PUSH1 0x40 DUP1 MLOAD SWAP3 DUP4 MSTORE PUSH1 0x20 DUP4 ADD SWAP2 SWAP1 SWAP2 MSTORE DUP1 MLOAD SWAP2 DUP3 SWAP1 SUB ADD SWAP1 RETURN JUMPDEST PUSH2 0x127 PUSH2 0x517 JUMP JUMPDEST PUSH2 0x278 PUSH1 0x4 DUP1 CALLDATASIZE SUB PUSH1 0x20 DUP2 LT ISZERO PUSH2 0x271 JUMPI PUSH1 0x0 DUP1 REVERT JUMPDEST POP CALLDATALOAD PUSH2 0x526 JUMP JUMPDEST PUSH1 0x40 DUP1 MLOAD SWAP2 ISZERO ISZERO DUP3 MSTORE MLOAD SWAP1 DUP2 SWAP1 SUB PUSH1 0x20 ADD SWAP1 RETURN JUMPDEST PUSH2 0x16F PUSH1 0x4 DUP1 CALLDATASIZE SUB PUSH1 0x40 DUP2 LT ISZERO PUSH2 0x2A2 JUMPI PUSH1 0x0 DUP1 REVERT JUMPDEST POP DUP1 CALLDATALOAD SWAP1 PUSH1 0x20 ADD CALLDATALOAD PUSH2 0x531 JUMP JUMPDEST PUSH2 0x23A PUSH1 0x4 DUP1 CALLDATASIZE SUB PUSH1 0x20 DUP2 LT ISZERO PUSH2 0x2C5 JUMPI PUSH1 0x0 DUP1 REVERT JUMPDEST POP CALLDATALOAD PUSH2 0xA08 JUMP JUMPDEST PUSH2 0x127 PUSH2 0xA1F JUMP JUMPDEST PUSH2 0x16F PUSH1 0x4 DUP1 CALLDATASIZE SUB PUSH1 0x20 DUP2 LT ISZERO PUSH2 0x2EA JUMPI PUSH1 0x0 DUP1 REVERT JUMPDEST POP CALLDATALOAD PUSH1 0x1 PUSH1 0xA0 PUSH1 0x2 EXP SUB AND PUSH2 0xA33 JUMP JUMPDEST PUSH2 0x16F PUSH1 0x4 DUP1 CALLDATASIZE SUB PUSH1 0x20 DUP2 LT ISZERO PUSH2 0x310 JUMPI PUSH1 0x0 DUP1 REVERT JUMPDEST POP CALLDATALOAD PUSH1 0x1 PUSH1 0xA0 PUSH1 0x2 EXP SUB AND PUSH2 0xAC4 JUMP JUMPDEST PUSH2 0x127 PUSH2 0xB55 JUMP JUMPDEST PUSH2 0x345 PUSH1 0x4 DUP1 CALLDATASIZE SUB PUSH1 0x20 DUP2 LT ISZERO PUSH2 0x33E JUMPI PUSH1 0x0 DUP1 REVERT JUMPDEST POP CALLDATALOAD PUSH2 0xB64 JUMP JUMPDEST PUSH1 0x40 DUP1 MLOAD SWAP10 ISZERO ISZERO DUP11 MSTORE PUSH1 0x1 PUSH1 0xA0 PUSH1 0x2 EXP SUB SWAP9 DUP10 AND PUSH1 0x20 DUP12 ADD MSTORE SWAP7 SWAP1 SWAP8 AND DUP9 DUP8 ADD MSTORE PUSH1 0x60 DUP9 ADD SWAP5 SWAP1 SWAP5 MSTORE PUSH1 0x80 DUP8 ADD SWAP3 SWAP1 SWAP3 MSTORE PUSH1 0xA0 DUP7 ADD MSTORE PUSH1 0xC0 DUP6 ADD MSTORE PUSH1 0xE0 DUP5 ADD MSTORE PUSH2 0x100 DUP4 ADD SWAP2 SWAP1 SWAP2 MSTORE MLOAD SWAP1 DUP2 SWAP1 SUB PUSH2 0x120 ADD SWAP1 RETURN JUMPDEST PUSH2 0x18E PUSH1 0x4 DUP1 CALLDATASIZE SUB PUSH1 0x20 DUP2 LT ISZERO PUSH2 0x3B0 JUMPI PUSH1 0x0 DUP1 REVERT JUMPDEST POP CALLDATALOAD PUSH2 0xBC5 JUMP JUMPDEST PUSH2 0x18E PUSH1 0x4 DUP1 CALLDATASIZE SUB PUSH1 0x20 DUP2 LT ISZERO PUSH2 0x3CD JUMPI PUSH1 0x0 DUP1 REVERT JUMPDEST POP CALLDATALOAD PUSH2 0xBDB JUMP JUMPDEST PUSH1 0x2 SLOAD PUSH1 0x1 PUSH1 0xA0 PUSH1 0x2 EXP SUB AND DUP2 JUMP JUMPDEST PUSH1 0x3 SLOAD PUSH1 0x1 PUSH1 0xA0 PUSH1 0x2 EXP SUB AND CALLER EQ PUSH2 0x445 JUMPI PUSH1 0x40 DUP1 MLOAD PUSH1 0xE5 PUSH1 0x2 EXP PUSH3 0x461BCD MUL DUP2 MSTORE PUSH1 0x20 PUSH1 0x4 DUP3 ADD MSTORE PUSH1 0x12 PUSH1 0x24 DUP3 ADD MSTORE PUSH32 0x4F4E4C595F5249474F424C4F434B5F44414F0000000000000000000000000000 PUSH1 0x44 DUP3 ADD MSTORE SWAP1 MLOAD SWAP1 DUP2 SWAP1 SUB PUSH1 0x64 ADD SWAP1 REVERT JUMPDEST PUSH2 0x2710 DUP2 GT ISZERO PUSH2 0x49F JUMPI PUSH1 0x40 DUP1 MLOAD PUSH1 0xE5 PUSH1 0x2 EXP PUSH3 0x461BCD MUL DUP2 MSTORE PUSH1 0x20 PUSH1 0x4 DUP3 ADD MSTORE PUSH1 0x17 PUSH1 0x24 DUP3 ADD MSTORE PUSH32 0x524154494F5F4249474745525F5448414E5F3130303030000000000000000000 PUSH1 0x44 DUP3 ADD MSTORE SWAP1 MLOAD SWAP1 DUP2 SWAP1 SUB PUSH1 0x64 ADD SWAP1 REVERT JUMPDEST PUSH1 0x1 PUSH1 0xA0 PUSH1 0x2 EXP SUB SWAP1 SWAP2 AND PUSH1 0x0 SWAP1 DUP2 MSTORE PUSH1 0x5 PUSH1 0x20 MSTORE PUSH1 0x40 SWAP1 KECCAK256 SSTORE JUMP JUMPDEST PUSH1 0x0 PUSH2 0x4C6 DUP3 PUSH2 0xE69 JUMP JUMPDEST SWAP1 POP JUMPDEST SWAP2 SWAP1 POP JUMP JUMPDEST PUSH1 0x0 DUP1 PUSH2 0x4DA DUP4 PUSH2 0xEA2 JUMP JUMPDEST SWAP2 POP SWAP2 POP SWAP2 POP SWAP2 JUMP JUMPDEST PUSH1 0x0 PUSH2 0x4EE DUP3 PUSH2 0xFF4 JUMP JUMPDEST SWAP5 SWAP4 POP POP POP POP JUMP JUMPDEST PUSH1 0x0 DUP1 PUSH2 0x502 DUP4 PUSH2 0x116B JUMP JUMPDEST SWAP6 SWAP5 POP POP POP POP POP JUMP JUMPDEST PUSH1 0x0 DUP1 PUSH2 0x4DA DUP4 PUSH2 0x129E JUMP JUMPDEST PUSH1 0x3 SLOAD PUSH1 0x1 PUSH1 0xA0 PUSH1 0x2 EXP SUB AND DUP2 JUMP JUMPDEST PUSH1 0x0 PUSH2 0x4C6 DUP3 PUSH2 0x13F1 JUMP JUMPDEST PUSH1 0x0 SLOAD PUSH1 0xFF AND ISZERO PUSH2 0x58C JUMPI PUSH1 0x40 DUP1 MLOAD PUSH1 0xE5 PUSH1 0x2 EXP PUSH3 0x461BCD MUL DUP2 MSTORE PUSH1 0x20 PUSH1 0x4 DUP3 ADD MSTORE PUSH1 0x12 PUSH1 0x24 DUP3 ADD MSTORE PUSH32 0x5245454E5452414E43595F494C4C4547414C0000000000000000000000000000 PUSH1 0x44 DUP3 ADD MSTORE SWAP1 MLOAD SWAP1 DUP2 SWAP1 SUB PUSH1 0x64 ADD SWAP1 REVERT JUMPDEST PUSH1 0x0 DUP1 SLOAD PUSH1 0x1 PUSH1 0xFF NOT SWAP1 SWAP2 AND DUP2 OR SWAP1 SWAP2 SSTORE SLOAD PUSH1 0x1 PUSH1 0xA0 PUSH1 0x2 EXP SUB AND CALLER EQ PUSH2 0x5FD JUMPI PUSH1 0x40 DUP1 MLOAD PUSH1 0xE5 PUSH1 0x2 EXP PUSH3 0x461BCD MUL DUP2 MSTORE PUSH1 0x20 PUSH1 0x4 DUP3 ADD MSTORE PUSH1 0x12 PUSH1 0x24 DUP3 ADD MSTORE PUSH32 0x4F4E4C595F5354414B494E475F50524F58590000000000000000000000000000 PUSH1 0x44 DUP3 ADD MSTORE SWAP1 MLOAD SWAP1 DUP2 SWAP1 SUB PUSH1 0x64 ADD SWAP1 REVERT JUMPDEST PUSH1 0x1 SLOAD PUSH1 0x40 DUP1 MLOAD PUSH32 0xAEF864DB00000000000000000000000000000000000000000000000000000000 DUP2 MSTORE PUSH1 0x4 DUP2 ADD DUP6 SWAP1 MSTORE SWAP1 MLOAD PUSH1 0x60 SWAP3 PUSH1 0x1 PUSH1 0xA0 PUSH1 0x2 EXP SUB AND SWAP2 PUSH4 0xAEF864DB SWAP2 PUSH1 0x24 DUP1 DUP4 ADD SWAP3 PUSH1 0x0 SWAP3 SWAP2 SWAP1 DUP3 SWAP1 SUB ADD DUP2 DUP7 DUP1 EXTCODESIZE ISZERO DUP1 ISZERO PUSH2 0x662 JUMPI PUSH1 0x0 DUP1 REVERT JUMPDEST POP GAS STATICCALL ISZERO DUP1 ISZERO PUSH2 0x676 JUMPI RETURNDATASIZE PUSH1 0x0 DUP1 RETURNDATACOPY RETURNDATASIZE PUSH1 0x0 REVERT JUMPDEST POP POP POP POP PUSH1 0x40 MLOAD RETURNDATASIZE PUSH1 0x0 DUP3 RETURNDATACOPY PUSH1 0x1F RETURNDATASIZE SWAP1 DUP2 ADD PUSH1 0x1F NOT AND DUP3 ADD PUSH1 0x40 MSTORE PUSH1 0x20 DUP2 LT ISZERO PUSH2 0x69F JUMPI PUSH1 0x0 DUP1 REVERT JUMPDEST DUP2 ADD SWAP1 DUP1 DUP1 MLOAD PUSH5 0x100000000 DUP2 GT ISZERO PUSH2 0x6B7 JUMPI PUSH1 0x0 DUP1 REVERT JUMPDEST DUP3 ADD PUSH1 0x20 DUP2 ADD DUP5 DUP2 GT ISZERO PUSH2 0x6CA JUMPI PUSH1 0x0 DUP1 REVERT JUMPDEST DUP2 MLOAD DUP6 PUSH1 0x20 DUP3 MUL DUP4 ADD GT PUSH5 0x100000000 DUP3 GT OR ISZERO PUSH2 0x6E7 JUMPI PUSH1 0x0 DUP1 REVERT JUMPDEST POP SWAP1 SWAP5 POP PUSH1 0x0 SWAP4 POP POP POP POP JUMPDEST DUP2 MLOAD DUP2 LT ISZERO PUSH2 0x91E JUMPI PUSH1 0x0 DUP3 DUP3 DUP2 MLOAD DUP2 LT ISZERO ISZERO PUSH2 0x70C JUMPI INVALID JUMPDEST PUSH1 0x20 SWAP1 DUP2 MUL SWAP1 SWAP2 ADD ADD MLOAD PUSH1 0x2 SLOAD PUSH1 0x40 DUP1 MLOAD PUSH32 0xB72E717D00000000000000000000000000000000000000000000000000000000 DUP2 MSTORE PUSH1 0x1 PUSH1 0xA0 PUSH1 0x2 EXP SUB DUP1 DUP6 AND PUSH1 0x4 DUP4 ADD MSTORE SWAP2 MLOAD SWAP4 SWAP5 POP PUSH1 0x0 SWAP4 SWAP2 SWAP1 SWAP3 AND SWAP2 PUSH4 0xB72E717D SWAP2 PUSH1 0x24 DUP1 DUP4 ADD SWAP3 DUP7 SWAP3 SWAP2 SWAP1 DUP3 SWAP1 SUB ADD DUP2 DUP7 DUP1 EXTCODESIZE ISZERO DUP1 ISZERO PUSH2 0x781 JUMPI PUSH1 0x0 DUP1 REVERT JUMPDEST POP GAS STATICCALL ISZERO DUP1 ISZERO PUSH2 0x795 JUMPI RETURNDATASIZE PUSH1 0x0 DUP1 RETURNDATACOPY RETURNDATASIZE PUSH1 0x0 REVERT JUMPDEST POP POP POP POP PUSH1 0x40 MLOAD RETURNDATASIZE PUSH1 0x0 DUP3 RETURNDATACOPY PUSH1 0x1F RETURNDATASIZE SWAP1 DUP2 ADD PUSH1 0x1F NOT AND DUP3 ADD PUSH1 0x40 MSTORE PUSH1 0xC0 DUP2 LT ISZERO PUSH2 0x7BE JUMPI PUSH1 0x0 DUP1 REVERT JUMPDEST DUP2 MLOAD PUSH1 0x20 DUP4 ADD DUP1 MLOAD SWAP2 SWAP4 SWAP3 DUP4 ADD SWAP3 SWAP2 PUSH5 0x100000000 DUP2 GT ISZERO PUSH2 0x7DF JUMPI PUSH1 0x0 DUP1 REVERT JUMPDEST DUP3 ADD PUSH1 0x20 DUP2 ADD DUP5 DUP2 GT ISZERO PUSH2 0x7F2 JUMPI PUSH1 0x0 DUP1 REVERT JUMPDEST DUP2 MLOAD PUSH5 0x100000000 DUP2 GT DUP3 DUP3 ADD DUP8 LT OR ISZERO PUSH2 0x80C JUMPI PUSH1 0x0 DUP1 REVERT JUMPDEST POP POP SWAP3 SWAP2 SWAP1 PUSH1 0x20 ADD DUP1 MLOAD PUSH5 0x100000000 DUP2 GT ISZERO PUSH2 0x828 JUMPI PUSH1 0x0 DUP1 REVERT JUMPDEST DUP3 ADD PUSH1 0x20 DUP2 ADD DUP5 DUP2 GT ISZERO PUSH2 0x83B JUMPI PUSH1 0x0 DUP1 REVERT JUMPDEST DUP2 MLOAD PUSH5 0x100000000 DUP2 GT DUP3 DUP3 ADD DUP8 LT OR ISZERO PUSH2 0x855 JUMPI PUSH1 0x0 DUP1 REVERT JUMPDEST POP POP PUSH1 0x40 DUP1 MLOAD PUSH32 0x9489FA8400000000000000000000000000000000000000000000000000000000 DUP2 MSTORE SWAP1 MLOAD SWAP7 SWAP8 POP PUSH1 0x0 SWAP7 PUSH1 0x1 PUSH1 0xA0 PUSH1 0x2 EXP SUB DUP11 AND SWAP7 POP PUSH4 0x9489FA84 SWAP6 POP PUSH1 0x4 DUP1 DUP4 ADD SWAP6 POP PUSH1 0x20 SWAP5 POP SWAP1 SWAP3 POP SWAP1 DUP3 SWAP1 SUB ADD DUP2 DUP7 DUP1 EXTCODESIZE ISZERO DUP1 ISZERO PUSH2 0x8BC JUMPI PUSH1 0x0 DUP1 REVERT JUMPDEST POP GAS STATICCALL ISZERO DUP1 ISZERO PUSH2 0x8D0 JUMPI RETURNDATASIZE PUSH1 0x0 DUP1 RETURNDATACOPY RETURNDATASIZE PUSH1 0x0 REVERT JUMPDEST POP POP POP POP PUSH1 0x40 MLOAD RETURNDATASIZE PUSH1 0x20 DUP2 LT ISZERO PUSH2 0x8E6 JUMPI PUSH1 0x0 DUP1 REVERT JUMPDEST POP MLOAD PUSH1 0x0 DUP4 DUP2 MSTORE PUSH1 0x4 PUSH1 0x20 MSTORE PUSH1 0x40 SWAP1 KECCAK256 SLOAD SWAP1 SWAP2 POP DUP2 GT ISZERO PUSH2 0x913 JUMPI PUSH1 0x0 DUP3 DUP2 MSTORE PUSH1 0x4 PUSH1 0x20 MSTORE PUSH1 0x40 SWAP1 KECCAK256 DUP2 SWAP1 SSTORE JUMPDEST POP POP POP PUSH1 0x1 ADD PUSH2 0x6F3 JUMP JUMPDEST POP PUSH2 0x927 PUSH2 0x1559 JUMP JUMPDEST PUSH1 0x1 PUSH1 0xA0 PUSH1 0x2 EXP SUB AND PUSH4 0x7FA36E40 DUP5 DUP5 PUSH1 0x40 MLOAD DUP4 PUSH4 0xFFFFFFFF AND PUSH1 0xE0 PUSH1 0x2 EXP MUL DUP2 MSTORE PUSH1 0x4 ADD DUP1 DUP4 DUP2 MSTORE PUSH1 0x20 ADD DUP3 DUP2 MSTORE PUSH1 0x20 ADD SWAP3 POP POP POP PUSH1 0x20 PUSH1 0x40 MLOAD DUP1 DUP4 SUB DUP2 PUSH1 0x0 DUP8 DUP1 EXTCODESIZE ISZERO DUP1 ISZERO PUSH2 0x977 JUMPI PUSH1 0x0 DUP1 REVERT JUMPDEST POP GAS CALL ISZERO DUP1 ISZERO PUSH2 0x98B JUMPI RETURNDATASIZE PUSH1 0x0 DUP1 RETURNDATACOPY RETURNDATASIZE PUSH1 0x0 REVERT JUMPDEST POP POP POP POP PUSH1 0x40 MLOAD RETURNDATASIZE PUSH1 0x20 DUP2 LT ISZERO PUSH2 0x9A1 JUMPI PUSH1 0x0 DUP1 REVERT JUMPDEST POP MLOAD ISZERO ISZERO PUSH2 0x9F9 JUMPI PUSH1 0x40 DUP1 MLOAD PUSH1 0xE5 PUSH1 0x2 EXP PUSH3 0x461BCD MUL DUP2 MSTORE PUSH1 0x20 PUSH1 0x4 DUP3 ADD MSTORE PUSH1 0x14 PUSH1 0x24 DUP3 ADD MSTORE PUSH32 0x4D494E545F494E464C4154494F4E5F4552524F52000000000000000000000000 PUSH1 0x44 DUP3 ADD MSTORE SWAP1 MLOAD SWAP1 DUP2 SWAP1 SUB PUSH1 0x64 ADD SWAP1 REVERT JUMPDEST POP POP PUSH1 0x0 DUP1 SLOAD PUSH1 0xFF NOT AND SWAP1 SSTORE POP JUMP JUMPDEST PUSH1 0x0 DUP1 PUSH2 0xA14 DUP4 PUSH2 0xFF4 JUMP JUMPDEST POP SWAP1 SWAP5 SWAP1 SWAP4 POP SWAP2 POP POP JUMP JUMPDEST PUSH1 0x0 SLOAD PUSH2 0x100 SWAP1 DIV PUSH1 0x1 PUSH1 0xA0 PUSH1 0x2 EXP SUB AND DUP2 JUMP JUMPDEST PUSH1 0x3 SLOAD PUSH1 0x1 PUSH1 0xA0 PUSH1 0x2 EXP SUB AND CALLER EQ PUSH2 0xA95 JUMPI PUSH1 0x40 DUP1 MLOAD PUSH1 0xE5 PUSH1 0x2 EXP PUSH3 0x461BCD MUL DUP2 MSTORE PUSH1 0x20 PUSH1 0x4 DUP3 ADD MSTORE PUSH1 0x12 PUSH1 0x24 DUP3 ADD MSTORE PUSH32 0x4F4E4C595F5249474F424C4F434B5F44414F0000000000000000000000000000 PUSH1 0x44 DUP3 ADD MSTORE SWAP1 MLOAD SWAP1 DUP2 SWAP1 SUB PUSH1 0x64 ADD SWAP1 REVERT JUMPDEST PUSH1 0x2 DUP1 SLOAD PUSH20 0xFFFFFFFFFFFFFFFFFFFFFFFFFFFFFFFFFFFFFFFF NOT AND PUSH1 0x1 PUSH1 0xA0 PUSH1 0x2 EXP SUB SWAP3 SWAP1 SWAP3 AND SWAP2 SWAP1 SWAP2 OR SWAP1 SSTORE JUMP JUMPDEST PUSH1 0x3 SLOAD PUSH1 0x1 PUSH1 0xA0 PUSH1 0x2 EXP SUB AND CALLER EQ PUSH2 0xB26 JUMPI PUSH1 0x40 DUP1 MLOAD PUSH1 0xE5 PUSH1 0x2 EXP PUSH3 0x461BCD MUL DUP2 MSTORE PUSH1 0x20 PUSH1 0x4 DUP3 ADD MSTORE PUSH1 0x12 PUSH1 0x24 DUP3 ADD MSTORE PUSH32 0x4F4E4C595F5249474F424C4F434B5F44414F0000000000000000000000000000 PUSH1 0x44 DUP3 ADD MSTORE SWAP1 MLOAD SWAP1 DUP2 SWAP1 SUB PUSH1 0x64 ADD SWAP1 REVERT JUMPDEST PUSH1 0x3 DUP1 SLOAD PUSH20 0xFFFFFFFFFFFFFFFFFFFFFFFFFFFFFFFFFFFFFFFF NOT AND PUSH1 0x1 PUSH1 0xA0 PUSH1 0x2 EXP SUB SWAP3 SWAP1 SWAP3 AND SWAP2 SWAP1 SWAP2 OR SWAP1 SSTORE JUMP JUMPDEST PUSH1 0x1 SLOAD PUSH1 0x1 PUSH1 0xA0 PUSH1 0x2 EXP SUB AND DUP2 JUMP JUMPDEST PUSH1 0x0 DUP1 PUSH1 0x0 DUP1 PUSH1 0x0 DUP1 PUSH1 0x0 DUP1 PUSH1 0x0 PUSH2 0xB7B DUP11 PUSH2 0x13F1 JUMP JUMPDEST SWAP9 POP PUSH2 0xB86 DUP11 PUSH2 0xEA2 JUMP JUMPDEST SWAP1 SWAP9 POP SWAP7 POP PUSH2 0xB94 DUP11 PUSH2 0xFF4 JUMP JUMPDEST SWAP2 SWAP8 POP SWAP6 POP SWAP4 POP PUSH2 0xBA4 DUP11 PUSH2 0x116B JUMP JUMPDEST SWAP2 SWAP5 POP SWAP1 SWAP3 POP PUSH2 0xBB5 SWAP1 POP DUP11 PUSH2 0x129E JUMP JUMPDEST POP SWAP1 POP SWAP2 SWAP4 SWAP6 SWAP8 SWAP10 SWAP1 SWAP3 SWAP5 SWAP7 SWAP9 POP JUMP JUMPDEST PUSH1 0x0 DUP1 PUSH2 0xBD1 DUP4 PUSH2 0x116B JUMP JUMPDEST POP SWAP1 SWAP5 SWAP4 POP POP POP POP JUMP JUMPDEST PUSH1 0x1 SLOAD PUSH1 0x40 DUP1 MLOAD PUSH32 0xAEF864DB00000000000000000000000000000000000000000000000000000000 DUP2 MSTORE PUSH1 0x4 DUP2 ADD DUP5 SWAP1 MSTORE SWAP1 MLOAD PUSH1 0x0 SWAP3 PUSH1 0x60 SWAP3 PUSH1 0x1 PUSH1 0xA0 PUSH1 0x2 EXP SUB SWAP1 SWAP2 AND SWAP2 PUSH4 0xAEF864DB SWAP2 PUSH1 0x24 DUP1 DUP3 ADD SWAP3 DUP8 SWAP3 SWAP1 SWAP2 SWAP1 DUP3 SWAP1 SUB ADD DUP2 DUP7 DUP1 EXTCODESIZE ISZERO DUP1 ISZERO PUSH2 0xC45 JUMPI PUSH1 0x0 DUP1 REVERT JUMPDEST POP GAS STATICCALL ISZERO DUP1 ISZERO PUSH2 0xC59 JUMPI RETURNDATASIZE PUSH1 0x0 DUP1 RETURNDATACOPY RETURNDATASIZE PUSH1 0x0 REVERT JUMPDEST POP POP POP POP PUSH1 0x40 MLOAD RETURNDATASIZE PUSH1 0x0 DUP3 RETURNDATACOPY PUSH1 0x1F RETURNDATASIZE SWAP1 DUP2 ADD PUSH1 0x1F NOT AND DUP3 ADD PUSH1 0x40 MSTORE PUSH1 0x20 DUP2 LT ISZERO PUSH2 0xC82 JUMPI PUSH1 0x0 DUP1 REVERT JUMPDEST DUP2 ADD SWAP1 DUP1 DUP1 MLOAD PUSH5 0x100000000 DUP2 GT ISZERO PUSH2 0xC9A JUMPI PUSH1 0x0 DUP1 REVERT JUMPDEST DUP3 ADD PUSH1 0x20 DUP2 ADD DUP5 DUP2 GT ISZERO PUSH2 0xCAD JUMPI PUSH1 0x0 DUP1 REVERT JUMPDEST DUP2 MLOAD DUP6 PUSH1 0x20 DUP3 MUL DUP4 ADD GT PUSH5 0x100000000 DUP3 GT OR ISZERO PUSH2 0xCCA JUMPI PUSH1 0x0 DUP1 REVERT JUMPDEST POP SWAP1 SWAP5 POP PUSH1 0x0 SWAP4 POP POP POP POP JUMPDEST DUP2 MLOAD DUP2 LT ISZERO PUSH2 0xE62 JUMPI PUSH1 0x0 DUP3 DUP3 DUP2 MLOAD DUP2 LT ISZERO ISZERO PUSH2 0xCEF JUMPI INVALID JUMPDEST PUSH1 0x20 SWAP1 DUP2 MUL SWAP1 SWAP2 ADD ADD MLOAD PUSH1 0x2 SLOAD PUSH1 0x40 DUP1 MLOAD PUSH32 0xB72E717D00000000000000000000000000000000000000000000000000000000 DUP2 MSTORE PUSH1 0x1 PUSH1 0xA0 PUSH1 0x2 EXP SUB DUP1 DUP6 AND PUSH1 0x4 DUP4 ADD MSTORE SWAP2 MLOAD SWAP4 SWAP5 POP PUSH1 0x0 SWAP4 SWAP2 SWAP1 SWAP3 AND SWAP2 PUSH4 0xB72E717D SWAP2 PUSH1 0x24 DUP1 DUP4 ADD SWAP3 DUP7 SWAP3 SWAP2 SWAP1 DUP3 SWAP1 SUB ADD DUP2 DUP7 DUP1 EXTCODESIZE ISZERO DUP1 ISZERO PUSH2 0xD64 JUMPI PUSH1 0x0 DUP1 REVERT JUMPDEST POP GAS STATICCALL ISZERO DUP1 ISZERO PUSH2 0xD78 JUMPI RETURNDATASIZE PUSH1 0x0 DUP1 RETURNDATACOPY RETURNDATASIZE PUSH1 0x0 REVERT JUMPDEST POP POP POP POP PUSH1 0x40 MLOAD RETURNDATASIZE PUSH1 0x0 DUP3 RETURNDATACOPY PUSH1 0x1F RETURNDATASIZE SWAP1 DUP2 ADD PUSH1 0x1F NOT AND DUP3 ADD PUSH1 0x40 MSTORE PUSH1 0xC0 DUP2 LT ISZERO PUSH2 0xDA1 JUMPI PUSH1 0x0 DUP1 REVERT JUMPDEST DUP2 MLOAD PUSH1 0x20 DUP4 ADD DUP1 MLOAD SWAP2 SWAP4 SWAP3 DUP4 ADD SWAP3 SWAP2 PUSH5 0x100000000 DUP2 GT ISZERO PUSH2 0xDC2 JUMPI PUSH1 0x0 DUP1 REVERT JUMPDEST DUP3 ADD PUSH1 0x20 DUP2 ADD DUP5 DUP2 GT ISZERO PUSH2 0xDD5 JUMPI PUSH1 0x0 DUP1 REVERT JUMPDEST DUP2 MLOAD PUSH5 0x100000000 DUP2 GT DUP3 DUP3 ADD DUP8 LT OR ISZERO PUSH2 0xDEF JUMPI PUSH1 0x0 DUP1 REVERT JUMPDEST POP POP SWAP3 SWAP2 SWAP1 PUSH1 0x20 ADD DUP1 MLOAD PUSH5 0x100000000 DUP2 GT ISZERO PUSH2 0xE0B JUMPI PUSH1 0x0 DUP1 REVERT JUMPDEST DUP3 ADD PUSH1 0x20 DUP2 ADD DUP5 DUP2 GT ISZERO PUSH2 0xE1E JUMPI PUSH1 0x0 DUP1 REVERT JUMPDEST DUP2 MLOAD PUSH5 0x100000000 DUP2 GT DUP3 DUP3 ADD DUP8 LT OR ISZERO PUSH2 0xE38 JUMPI PUSH1 0x0 DUP1 REVERT JUMPDEST POP SWAP6 SWAP7 POP PUSH1 0x0 SWAP6 POP PUSH2 0xE51 SWAP5 POP DUP7 SWAP4 POP PUSH2 0x129E SWAP3 POP POP POP JUMP JUMPDEST POP SWAP6 SWAP1 SWAP6 ADD SWAP5 POP POP POP PUSH1 0x1 ADD PUSH2 0xCD6 JUMP JUMPDEST POP POP SWAP2 SWAP1 POP JUMP JUMPDEST PUSH1 0x0 DUP2 DUP2 MSTORE PUSH1 0x4 PUSH1 0x20 MSTORE PUSH1 0x40 DUP2 KECCAK256 SLOAD ISZERO ISZERO PUSH2 0xE8D JUMPI POP PUSH8 0xDE0B6B3A7640000 PUSH2 0x4C9 JUMP JUMPDEST POP PUSH1 0x0 DUP2 DUP2 MSTORE PUSH1 0x4 PUSH1 0x20 MSTORE PUSH1 0x40 SWAP1 KECCAK256 SLOAD PUSH2 0x4C9 JUMP JUMPDEST PUSH1 0x2 SLOAD PUSH1 0x40 DUP1 MLOAD PUSH32 0xC277F1AC00000000000000000000000000000000000000000000000000000000 DUP2 MSTORE PUSH1 0x4 DUP2 ADD DUP5 SWAP1 MSTORE SWAP1 MLOAD PUSH1 0x0 SWAP3 DUP4 SWAP3 PUSH1 0x1 PUSH1 0xA0 PUSH1 0x2 EXP SUB SWAP1 SWAP2 AND SWAP2 PUSH4 0xC277F1AC SWAP2 PUSH1 0x24 DUP1 DUP3 ADD SWAP3 DUP7 SWAP3 SWAP1 SWAP2 SWAP1 DUP3 SWAP1 SUB ADD DUP2 DUP7 DUP1 EXTCODESIZE ISZERO DUP1 ISZERO PUSH2 0xF0B JUMPI PUSH1 0x0 DUP1 REVERT JUMPDEST POP GAS STATICCALL ISZERO DUP1 ISZERO PUSH2 0xF1F JUMPI RETURNDATASIZE PUSH1 0x0 DUP1 RETURNDATACOPY RETURNDATASIZE PUSH1 0x0 REVERT JUMPDEST POP POP POP POP PUSH1 0x40 MLOAD RETURNDATASIZE PUSH1 0x0 DUP3 RETURNDATACOPY PUSH1 0x1F RETURNDATASIZE SWAP1 DUP2 ADD PUSH1 0x1F NOT AND DUP3 ADD PUSH1 0x40 MSTORE PUSH1 0xC0 DUP2 LT ISZERO PUSH2 0xF48 JUMPI PUSH1 0x0 DUP1 REVERT JUMPDEST DUP2 MLOAD PUSH1 0x20 DUP4 ADD DUP1 MLOAD SWAP2 SWAP4 SWAP3 DUP4 ADD SWAP3 SWAP2 PUSH5 0x100000000 DUP2 GT ISZERO PUSH2 0xF69 JUMPI PUSH1 0x0 DUP1 REVERT JUMPDEST DUP3 ADD PUSH1 0x20 DUP2 ADD DUP5 DUP2 GT ISZERO PUSH2 0xF7C JUMPI PUSH1 0x0 DUP1 REVERT JUMPDEST DUP2 MLOAD PUSH5 0x100000000 DUP2 GT DUP3 DUP3 ADD DUP8 LT OR ISZERO PUSH2 0xF96 JUMPI PUSH1 0x0 DUP1 REVERT JUMPDEST POP POP SWAP3 SWAP2 SWAP1 PUSH1 0x20 ADD DUP1 MLOAD PUSH5 0x100000000 DUP2 GT ISZERO PUSH2 0xFB2 JUMPI PUSH1 0x0 DUP1 REVERT JUMPDEST DUP3 ADD PUSH1 0x20 DUP2 ADD DUP5 DUP2 GT ISZERO PUSH2 0xFC5 JUMPI PUSH1 0x0 DUP1 REVERT JUMPDEST DUP2 MLOAD PUSH5 0x100000000 DUP2 GT DUP3 DUP3 ADD DUP8 LT OR ISZERO PUSH2 0xFDF JUMPI PUSH1 0x0 DUP1 REVERT JUMPDEST POP POP POP PUSH1 0x60 ADD MLOAD SWAP4 SWAP6 POP SWAP3 SWAP4 POP POP POP POP SWAP2 POP SWAP2 JUMP JUMPDEST PUSH1 0x0 DUP1 PUSH1 0x0 DUP1 PUSH2 0x1003 DUP6 PUSH2 0xEA2 JUMP JUMPDEST POP SWAP1 POP PUSH1 0x0 DUP2 SWAP1 POP DUP1 PUSH1 0x1 PUSH1 0xA0 PUSH1 0x2 EXP SUB AND PUSH4 0x9489FA84 PUSH1 0x40 MLOAD DUP2 PUSH4 0xFFFFFFFF AND PUSH1 0xE0 PUSH1 0x2 EXP MUL DUP2 MSTORE PUSH1 0x4 ADD PUSH1 0x20 PUSH1 0x40 MLOAD DUP1 DUP4 SUB DUP2 DUP7 DUP1 EXTCODESIZE ISZERO DUP1 ISZERO PUSH2 0x1047 JUMPI PUSH1 0x0 DUP1 REVERT JUMPDEST POP GAS STATICCALL ISZERO DUP1 ISZERO PUSH2 0x105B JUMPI RETURNDATASIZE PUSH1 0x0 DUP1 RETURNDATACOPY RETURNDATASIZE PUSH1 0x0 REVERT JUMPDEST POP POP POP POP PUSH1 0x40 MLOAD RETURNDATASIZE PUSH1 0x20 DUP2 LT ISZERO PUSH2 0x1071 JUMPI PUSH1 0x0 DUP1 REVERT JUMPDEST POP MLOAD PUSH1 0x40 DUP1 MLOAD PUSH32 0x18160DDD00000000000000000000000000000000000000000000000000000000 DUP2 MSTORE SWAP1 MLOAD SWAP2 SWAP7 POP PUSH1 0x1 PUSH1 0xA0 PUSH1 0x2 EXP SUB DUP4 AND SWAP2 PUSH4 0x18160DDD SWAP2 PUSH1 0x4 DUP1 DUP3 ADD SWAP3 PUSH1 0x20 SWAP3 SWAP1 SWAP2 SWAP1 DUP3 SWAP1 SUB ADD DUP2 DUP7 DUP1 EXTCODESIZE ISZERO DUP1 ISZERO PUSH2 0x10D0 JUMPI PUSH1 0x0 DUP1 REVERT JUMPDEST POP GAS STATICCALL ISZERO DUP1 ISZERO PUSH2 0x10E4 JUMPI RETURNDATASIZE PUSH1 0x0 DUP1 RETURNDATACOPY RETURNDATASIZE PUSH1 0x0 REVERT JUMPDEST POP POP POP POP PUSH1 0x40 MLOAD RETURNDATASIZE PUSH1 0x20 DUP2 LT ISZERO PUSH2 0x10FA JUMPI PUSH1 0x0 DUP1 REVERT JUMPDEST POP MLOAD SWAP4 POP DUP5 ISZERO DUP1 PUSH2 0x1109 JUMPI POP DUP4 ISZERO JUMPDEST ISZERO PUSH2 0x1148 JUMPI PUSH1 0x40 MLOAD PUSH1 0xE5 PUSH1 0x2 EXP PUSH3 0x461BCD MUL DUP2 MSTORE PUSH1 0x4 ADD DUP1 DUP1 PUSH1 0x20 ADD DUP3 DUP2 SUB DUP3 MSTORE PUSH1 0x25 DUP2 MSTORE PUSH1 0x20 ADD DUP1 PUSH2 0x198C PUSH1 0x25 SWAP2 CODECOPY PUSH1 0x40 ADD SWAP2 POP POP PUSH1 0x40 MLOAD DUP1 SWAP2 SUB SWAP1 REVERT JUMPDEST PUSH3 0xF4240 PUSH2 0x1156 DUP7 DUP7 PUSH2 0x15E2 JUMP JUMPDEST DUP2 ISZERO ISZERO PUSH2 0x115F JUMPI INVALID JUMPDEST DIV SWAP3 POP POP POP SWAP2 SWAP4 SWAP1 SWAP3 POP JUMP JUMPDEST PUSH1 0x0 DUP1 PUSH1 0x0 DUP1 PUSH2 0x117A DUP6 PUSH2 0xEA2 JUMP JUMPDEST SWAP2 POP POP PUSH2 0x1185 PUSH2 0x1559 JUMP JUMPDEST PUSH1 0x1 PUSH1 0xA0 PUSH1 0x2 EXP SUB AND PUSH4 0xD410E0C2 DUP3 PUSH1 0x40 MLOAD DUP3 PUSH4 0xFFFFFFFF AND PUSH1 0xE0 PUSH1 0x2 EXP MUL DUP2 MSTORE PUSH1 0x4 ADD DUP1 DUP3 PUSH1 0x1 PUSH1 0xA0 PUSH1 0x2 EXP SUB AND PUSH1 0x1 PUSH1 0xA0 PUSH1 0x2 EXP SUB AND DUP2 MSTORE PUSH1 0x20 ADD SWAP2 POP POP PUSH1 0x20 PUSH1 0x40 MLOAD DUP1 DUP4 SUB DUP2 DUP7 DUP1 EXTCODESIZE ISZERO DUP1 ISZERO PUSH2 0x11DD JUMPI PUSH1 0x0 DUP1 REVERT JUMPDEST POP GAS STATICCALL ISZERO DUP1 ISZERO PUSH2 0x11F1 JUMPI RETURNDATASIZE PUSH1 0x0 DUP1 RETURNDATACOPY RETURNDATASIZE PUSH1 0x0 REVERT JUMPDEST POP POP POP POP PUSH1 0x40 MLOAD RETURNDATASIZE PUSH1 0x20 DUP2 LT ISZERO PUSH2 0x1207 JUMPI PUSH1 0x0 DUP1 REVERT JUMPDEST POP MLOAD SWAP4 POP PUSH2 0x1213 PUSH2 0x1559 JUMP JUMPDEST PUSH1 0x1 PUSH1 0xA0 PUSH1 0x2 EXP SUB AND PUSH4 0xEF78D4FD PUSH1 0x40 MLOAD DUP2 PUSH4 0xFFFFFFFF AND PUSH1 0xE0 PUSH1 0x2 EXP MUL DUP2 MSTORE PUSH1 0x4 ADD PUSH1 0x20 PUSH1 0x40 MLOAD DUP1 DUP4 SUB DUP2 DUP7 DUP1 EXTCODESIZE ISZERO DUP1 ISZERO PUSH2 0x124E JUMPI PUSH1 0x0 DUP1 REVERT JUMPDEST POP GAS STATICCALL ISZERO DUP1 ISZERO PUSH2 0x1262 JUMPI RETURNDATASIZE PUSH1 0x0 DUP1 RETURNDATACOPY RETURNDATASIZE PUSH1 0x0 REVERT JUMPDEST POP POP POP POP PUSH1 0x40 MLOAD RETURNDATASIZE PUSH1 0x20 DUP2 LT ISZERO PUSH2 0x1278 JUMPI PUSH1 0x0 DUP1 REVERT JUMPDEST POP MLOAD PUSH1 0x1 PUSH1 0xA0 PUSH1 0x2 EXP SUB SWAP1 SWAP2 AND PUSH1 0x0 SWAP1 DUP2 MSTORE PUSH1 0x5 PUSH1 0x20 MSTORE PUSH1 0x40 SWAP1 KECCAK256 SLOAD SWAP4 SWAP6 SWAP1 SWAP5 POP SWAP2 POP POP JUMP JUMPDEST PUSH1 0x0 DUP1 PUSH1 0x0 PUSH2 0x12AC DUP5 PUSH2 0xE69 JUMP JUMPDEST SWAP1 POP PUSH1 0x0 DUP1 PUSH1 0x0 PUSH2 0x12BC DUP8 PUSH2 0xFF4 JUMP JUMPDEST SWAP3 POP SWAP3 POP SWAP3 POP PUSH1 0x0 PUSH2 0x12CD DUP9 PUSH2 0xEA2 JUMP JUMPDEST POP SWAP1 POP PUSH1 0x0 DUP1 PUSH1 0x0 PUSH2 0x12DE DUP12 PUSH2 0x116B JUMP JUMPDEST SWAP2 SWAP5 POP SWAP3 POP SWAP1 POP PUSH1 0x0 DUP1 PUSH3 0x15180 DUP5 PUSH2 0x12F7 DUP10 DUP9 PUSH2 0x15E2 JUMP JUMPDEST MUL DUP2 ISZERO ISZERO PUSH2 0x1301 JUMPI INVALID JUMPDEST DIV SWAP2 POP DUP10 DUP10 LT PUSH2 0x1347 JUMPI PUSH3 0x15180 PUSH2 0x1332 PUSH3 0xF4240 PUSH2 0x1322 DUP14 DUP14 SUB DUP13 PUSH2 0x15E2 JUMP JUMPDEST DUP2 ISZERO ISZERO PUSH2 0x132B JUMPI INVALID JUMPDEST DIV DUP8 PUSH2 0x15E2 JUMP JUMPDEST PUSH4 0x1E13380 MUL DUP2 ISZERO ISZERO PUSH2 0x1341 JUMPI INVALID JUMPDEST DIV PUSH2 0x134A JUMP JUMPDEST PUSH1 0x0 JUMPDEST SWAP1 POP PUSH1 0x0 PUSH8 0xDE0B6B3A7640000 PUSH2 0x1361 DUP9 DUP11 PUSH2 0x160F JUMP JUMPDEST PUSH10 0x21E19E0C9BAB2400000 PUSH2 0x1381 DUP7 PUSH2 0x137C PUSH2 0x2710 DUP11 PUSH2 0x192A JUMP JUMPDEST PUSH2 0x15E2 JUMP JUMPDEST DUP2 ISZERO ISZERO PUSH2 0x138A JUMPI INVALID JUMPDEST DIV MUL DUP2 ISZERO ISZERO PUSH2 0x1395 JUMPI INVALID JUMPDEST DIV SWAP1 POP PUSH8 0xDE0B6B3A7640000 PUSH2 0x13AB DUP9 DUP11 PUSH2 0x160F JUMP JUMPDEST PUSH2 0x13C8 PUSH2 0x13B8 DUP6 DUP9 PUSH2 0x15E2 JUMP JUMPDEST PUSH10 0x21E19E0C9BAB2400000 PUSH2 0x193C JUMP JUMPDEST MUL DUP2 ISZERO ISZERO PUSH2 0x13D2 JUMPI INVALID JUMPDEST DIV SWAP12 POP PUSH2 0x13DF DUP13 DUP3 PUSH2 0x1971 JUMP JUMPDEST SWAP13 POP POP POP POP POP POP POP POP POP POP POP POP SWAP2 POP SWAP2 JUMP JUMPDEST PUSH1 0x2 SLOAD PUSH1 0x40 DUP1 MLOAD PUSH32 0xC277F1AC00000000000000000000000000000000000000000000000000000000 DUP2 MSTORE PUSH1 0x4 DUP2 ADD DUP5 SWAP1 MSTORE SWAP1 MLOAD PUSH1 0x0 SWAP3 DUP4 SWAP3 PUSH1 0x1 PUSH1 0xA0 PUSH1 0x2 EXP SUB SWAP1 SWAP2 AND SWAP2 PUSH4 0xC277F1AC SWAP2 PUSH1 0x24 DUP1 DUP3 ADD SWAP3 DUP7 SWAP3 SWAP1 SWAP2 SWAP1 DUP3 SWAP1 SUB ADD DUP2 DUP7 DUP1 EXTCODESIZE ISZERO DUP1 ISZERO PUSH2 0x145A JUMPI PUSH1 0x0 DUP1 REVERT JUMPDEST POP GAS STATICCALL ISZERO DUP1 ISZERO PUSH2 0x146E JUMPI RETURNDATASIZE PUSH1 0x0 DUP1 RETURNDATACOPY RETURNDATASIZE PUSH1 0x0 REVERT JUMPDEST POP POP POP POP PUSH1 0x40 MLOAD RETURNDATASIZE PUSH1 0x0 DUP3 RETURNDATACOPY PUSH1 0x1F RETURNDATASIZE SWAP1 DUP2 ADD PUSH1 0x1F NOT AND DUP3 ADD PUSH1 0x40 MSTORE PUSH1 0xC0 DUP2 LT ISZERO PUSH2 0x1497 JUMPI PUSH1 0x0 DUP1 REVERT JUMPDEST DUP2 MLOAD PUSH1 0x20 DUP4 ADD DUP1 MLOAD SWAP2 SWAP4 SWAP3 DUP4 ADD SWAP3 SWAP2 PUSH5 0x100000000 DUP2 GT ISZERO PUSH2 0x14B8 JUMPI PUSH1 0x0 DUP1 REVERT JUMPDEST DUP3 ADD PUSH1 0x20 DUP2 ADD DUP5 DUP2 GT ISZERO PUSH2 0x14CB JUMPI PUSH1 0x0 DUP1 REVERT JUMPDEST DUP2 MLOAD PUSH5 0x100000000 DUP2 GT DUP3 DUP3 ADD DUP8 LT OR ISZERO PUSH2 0x14E5 JUMPI PUSH1 0x0 DUP1 REVERT JUMPDEST POP POP SWAP3 SWAP2 SWAP1 PUSH1 0x20 ADD DUP1 MLOAD PUSH5 0x100000000 DUP2 GT ISZERO PUSH2 0x1501 JUMPI PUSH1 0x0 DUP1 REVERT JUMPDEST DUP3 ADD PUSH1 0x20 DUP2 ADD DUP5 DUP2 GT ISZERO PUSH2 0x1514 JUMPI PUSH1 0x0 DUP1 REVERT JUMPDEST DUP2 MLOAD PUSH5 0x100000000 DUP2 GT DUP3 DUP3 ADD DUP8 LT OR ISZERO PUSH2 0x152E JUMPI PUSH1 0x0 DUP1 REVERT JUMPDEST POP SWAP6 SWAP7 POP POP POP PUSH1 0x1 PUSH1 0xA0 PUSH1 0x2 EXP SUB DUP6 AND ISZERO SWAP4 POP PUSH2 0x1553 SWAP3 POP POP POP JUMPI PUSH1 0x1 SWAP2 POP POP PUSH2 0x4C9 JUMP JUMPDEST POP SWAP2 SWAP1 POP JUMP JUMPDEST PUSH1 0x0 DUP1 PUSH1 0x0 PUSH1 0x1 SWAP1 SLOAD SWAP1 PUSH2 0x100 EXP SWAP1 DIV PUSH1 0x1 PUSH1 0xA0 PUSH1 0x2 EXP SUB AND SWAP1 POP DUP1 PUSH1 0x1 PUSH1 0xA0 PUSH1 0x2 EXP SUB AND PUSH4 0x7546172 PUSH1 0x40 MLOAD DUP2 PUSH4 0xFFFFFFFF AND PUSH1 0xE0 PUSH1 0x2 EXP MUL DUP2 MSTORE PUSH1 0x4 ADD PUSH1 0x20 PUSH1 0x40 MLOAD DUP1 DUP4 SUB DUP2 DUP7 DUP1 EXTCODESIZE ISZERO DUP1 ISZERO PUSH2 0x15B0 JUMPI PUSH1 0x0 DUP1 REVERT JUMPDEST POP GAS STATICCALL ISZERO DUP1 ISZERO PUSH2 0x15C4 JUMPI RETURNDATASIZE PUSH1 0x0 DUP1 RETURNDATACOPY RETURNDATASIZE PUSH1 0x0 REVERT JUMPDEST POP POP POP POP PUSH1 0x40 MLOAD RETURNDATASIZE PUSH1 0x20 DUP2 LT ISZERO PUSH2 0x15DA JUMPI PUSH1 0x0 DUP1 REVERT JUMPDEST POP MLOAD SWAP2 POP POP SWAP1 JUMP JUMPDEST PUSH1 0x0 DUP3 DUP3 MUL DUP4 ISZERO DUP1 PUSH2 0x15FE JUMPI POP DUP3 DUP5 DUP3 DUP2 ISZERO ISZERO PUSH2 0x15FB JUMPI INVALID JUMPDEST DIV EQ JUMPDEST ISZERO ISZERO PUSH2 0x1606 JUMPI INVALID JUMPDEST SWAP1 POP JUMPDEST SWAP3 SWAP2 POP POP JUMP JUMPDEST PUSH1 0x0 PUSH1 0x1 PUSH1 0xA0 PUSH1 0x2 EXP SUB DUP4 AND BALANCE DUP3 DUP2 GT DUP1 PUSH2 0x1630 JUMPI POP PUSH7 0x38D7EA4C68000 DUP2 LT JUMPDEST DUP1 PUSH2 0x1641 JUMPI POP PUSH7 0x2386F26FC10000 DUP4 LT JUMPDEST ISZERO PUSH2 0x1696 JUMPI PUSH1 0x40 DUP1 MLOAD PUSH1 0xE5 PUSH1 0x2 EXP PUSH3 0x461BCD MUL DUP2 MSTORE PUSH1 0x20 PUSH1 0x4 DUP3 ADD MSTORE PUSH1 0x1B PUSH1 0x24 DUP3 ADD MSTORE PUSH32 0x4554485F41424F56455F41554D5F4F525F445553545F4552524F520000000000 PUSH1 0x44 DUP3 ADD MSTORE SWAP1 MLOAD SWAP1 DUP2 SWAP1 SUB PUSH1 0x64 ADD SWAP1 REVERT JUMPDEST PUSH8 0xB1A2BC2EC500000 DUP4 DUP3 PUSH8 0xDE0B6B3A7640000 MUL DUP2 ISZERO ISZERO PUSH2 0x16B4 JUMPI INVALID JUMPDEST DIV LT PUSH2 0x16CB JUMPI PUSH8 0xDE0B6B3A7640000 SWAP2 POP POP PUSH2 0x1609 JUMP JUMPDEST PUSH8 0x853A0D2313C0000 DUP4 DUP3 PUSH8 0xDE0B6B3A7640000 MUL DUP2 ISZERO ISZERO PUSH2 0x16E9 JUMPI INVALID JUMPDEST DIV LT PUSH2 0x1700 JUMPI PUSH8 0xD163580F7318000 SWAP2 POP POP PUSH2 0x1609 JUMP JUMPDEST PUSH8 0x6F05B59D3B20000 DUP4 DUP3 PUSH8 0xDE0B6B3A7640000 MUL DUP2 ISZERO ISZERO PUSH2 0x171E JUMPI INVALID JUMPDEST DIV LT PUSH2 0x1735 JUMPI PUSH8 0xC39F0D50F1E8000 SWAP2 POP POP PUSH2 0x1609 JUMP JUMPDEST PUSH8 0x58D15E176280000 DUP4 DUP3 PUSH8 0xDE0B6B3A7640000 MUL DUP2 ISZERO ISZERO PUSH2 0x1753 JUMPI INVALID JUMPDEST DIV LT PUSH2 0x176A JUMPI PUSH8 0xAAC096CF8468000 SWAP2 POP POP PUSH2 0x1609 JUMP JUMPDEST PUSH8 0x429D069189E0000 DUP4 DUP3 PUSH8 0xDE0B6B3A7640000 MUL DUP2 ISZERO ISZERO PUSH2 0x1788 JUMPI INVALID JUMPDEST DIV LT PUSH2 0x179F JUMPI PUSH8 0x85013538C758000 SWAP2 POP POP PUSH2 0x1609 JUMP JUMPDEST PUSH8 0x2C68AF0BB140000 DUP4 DUP3 PUSH8 0xDE0B6B3A7640000 MUL DUP2 ISZERO ISZERO PUSH2 0x17BD JUMPI INVALID JUMPDEST DIV LT PUSH2 0x17D4 JUMPI PUSH8 0x590A3601AEE8000 SWAP2 POP POP PUSH2 0x1609 JUMP JUMPDEST PUSH8 0x16345785D8A0000 DUP4 DUP3 PUSH8 0xDE0B6B3A7640000 MUL DUP2 ISZERO ISZERO PUSH2 0x17F2 JUMPI INVALID JUMPDEST DIV LT PUSH2 0x1809 JUMPI PUSH8 0x334AD46AF1D8000 SWAP2 POP POP PUSH2 0x1609 JUMP JUMPDEST PUSH8 0x10A741A46278000 DUP4 DUP3 PUSH8 0xDE0B6B3A7640000 MUL DUP2 ISZERO ISZERO PUSH2 0x1827 JUMPI INVALID JUMPDEST DIV LT PUSH2 0x183E JUMPI PUSH8 0x2BF6FF371870000 SWAP2 POP POP PUSH2 0x1609 JUMP JUMPDEST PUSH7 0xB1A2BC2EC50000 DUP4 DUP3 PUSH8 0xDE0B6B3A7640000 MUL DUP2 ISZERO ISZERO PUSH2 0x185B JUMPI INVALID JUMPDEST DIV LT PUSH2 0x1872 JUMPI PUSH8 0x254DB1C22440000 SWAP2 POP POP PUSH2 0x1609 JUMP JUMPDEST PUSH7 0x8700CC75770000 DUP4 DUP3 PUSH8 0xDE0B6B3A7640000 MUL DUP2 ISZERO ISZERO PUSH2 0x188F JUMPI INVALID JUMPDEST DIV LT PUSH2 0x18A6 JUMPI PUSH8 0x226ABADC42F8000 SWAP2 POP POP PUSH2 0x1609 JUMP JUMPDEST PUSH7 0x58D15E17628000 DUP4 DUP3 PUSH8 0xDE0B6B3A7640000 MUL DUP2 ISZERO ISZERO PUSH2 0x18C3 JUMPI INVALID JUMPDEST DIV LT PUSH2 0x18DA JUMPI PUSH8 0x1F87C3F661B0000 SWAP2 POP POP PUSH2 0x1609 JUMP JUMPDEST PUSH1 0x40 DUP1 MLOAD PUSH1 0xE5 PUSH1 0x2 EXP PUSH3 0x461BCD MUL DUP2 MSTORE PUSH1 0x20 PUSH1 0x4 DUP3 ADD MSTORE PUSH1 0x1F PUSH1 0x24 DUP3 ADD MSTORE PUSH32 0x4554485F42454C4F575F322E355F50455243454E545F41554D5F4552524F5200 PUSH1 0x44 DUP3 ADD MSTORE SWAP1 MLOAD SWAP1 DUP2 SWAP1 SUB PUSH1 0x64 ADD SWAP1 REVERT JUMPDEST PUSH1 0x0 DUP3 DUP3 GT ISZERO PUSH2 0x1936 JUMPI INVALID JUMPDEST POP SWAP1 SUB SWAP1 JUMP JUMPDEST PUSH1 0x0 DUP1 DUP3 GT PUSH2 0x1947 JUMPI INVALID JUMPDEST PUSH1 0x0 DUP3 DUP5 DUP2 ISZERO ISZERO PUSH2 0x1954 JUMPI INVALID JUMPDEST DIV SWAP1 POP DUP3 DUP5 DUP2 ISZERO ISZERO PUSH2 0x1962 JUMPI INVALID JUMPDEST MOD DUP2 DUP5 MUL ADD DUP5 EQ ISZERO ISZERO PUSH2 0x1606 JUMPI INVALID JUMPDEST PUSH1 0x0 DUP3 DUP3 ADD DUP4 DUP2 LT DUP1 ISZERO SWAP1 PUSH2 0x15FE JUMPI POP DUP3 DUP2 LT ISZERO PUSH2 0x1606 JUMPI INVALID INVALID POP 0x4f 0x4f 0x4c 0x5f POP MSTORE 0x49 NUMBER GASLIMIT 0x5f 0x4f MSTORE 0x5f SLOAD 0x4f SLOAD COINBASE 0x4c 0x5f MSTORE8 SSTORE POP POP 0x4c MSIZE 0x5f 0x4e SSTORE 0x4c 0x4c 0x5f GASLIMIT MSTORE MSTORE 0x4f MSTORE LOG1 PUSH6 0x627A7A723058 KECCAK256 LT 0x48 PC SWAP8 REVERT 0xd3 TIMESTAMP DUP10 PUSH30 0x3A50274C73CAD0CED37A81988144C208ABF2232B6CDFD600290000000000 "
		},
		"gasEstimates": {
			"creation": {
				"codeDepositCost": "1324000",
				"executionCost": "102877",
				"totalCost": "1426877"
			},
			"external": {
				"RIGOTOKENADDRESS()": "697",
				"STAKING_PROXY_ADDRESS()": "663",
				"addressFromId(uint256)": "infinite",
				"calcPoolValue(uint256)": "infinite",
				"claimPop(bytes32,uint256)": "infinite",
				"dragoRegistryAddress()": "643",
				"getEpochReward(uint256)": "infinite",
				"getHwm(uint256)": "infinite",
				"getPoolData(uint256)": "infinite",
				"getPoolPrice(uint256)": "infinite",
				"getPop(bytes32)": "infinite",
				"getRatio(uint256)": "infinite",
				"isActive(uint256)": "infinite",
				"proofOfPerformance(uint256)": "infinite",
				"rigoblockDaoAddress()": "708",
				"setRatio(address,uint256)": "20863",
				"setRegistry(address)": "21029",
				"setRigoblockDao(address)": "20962"
			},
			"internal": {
				"addressFromIdInternal(uint256)": "infinite",
				"ethBalanceAdjustmentInternal(address,uint256)": "infinite",
				"getHwmInternal(uint256)": "595",
				"getInflationParameters(uint256)": "infinite",
				"getMinter()": "infinite",
				"getPoolPriceAndValueInternal(uint256)": "infinite",
				"isActiveInternal(uint256)": "infinite",
				"proofOfPerformanceInternal(uint256)": "infinite"
			}
		},
		"methodIdentifiers": {
			"RIGOTOKENADDRESS()": "a6c9c443",
			"STAKING_PROXY_ADDRESS()": "c9b185cc",
			"addressFromId(uint256)": "360dafa0",
			"calcPoolValue(uint256)": "427fdc0c",
			"claimPop(bytes32,uint256)": "959e52d9",
			"dragoRegistryAddress()": "02579677",
			"getEpochReward(uint256)": "d418634a",
			"getHwm(uint256)": "249d9123",
			"getPoolData(uint256)": "d21c87ad",
			"getPoolPrice(uint256)": "9af94f30",
			"getPop(bytes32)": "f36766c1",
			"getRatio(uint256)": "46a62eaf",
			"isActive(uint256)": "82afd23b",
			"proofOfPerformance(uint256)": "4d749e43",
			"rigoblockDaoAddress()": "7f8be859",
			"setRatio(address,uint256)": "05752047",
			"setRegistry(address)": "a91ee0dc",
			"setRigoblockDao(address)": "b516e6e1"
		}
	},
	"abi": [
		{
			"constant": true,
			"inputs": [],
			"name": "dragoRegistryAddress",
			"outputs": [
				{
					"name": "",
					"type": "address"
				}
			],
			"payable": false,
			"stateMutability": "view",
			"type": "function"
		},
		{
			"constant": false,
			"inputs": [
				{
					"name": "_ofGroup",
					"type": "address"
				},
				{
					"name": "_ratio",
					"type": "uint256"
				}
			],
			"name": "setRatio",
			"outputs": [],
			"payable": false,
			"stateMutability": "nonpayable",
			"type": "function"
		},
		{
			"constant": true,
			"inputs": [
				{
					"name": "poolId",
					"type": "uint256"
				}
			],
			"name": "getHwm",
			"outputs": [
				{
					"name": "",
					"type": "uint256"
				}
			],
			"payable": false,
			"stateMutability": "view",
			"type": "function"
		},
		{
			"constant": true,
			"inputs": [
				{
					"name": "poolId",
					"type": "uint256"
				}
			],
			"name": "addressFromId",
			"outputs": [
				{
					"name": "pool",
					"type": "address"
				},
				{
					"name": "group",
					"type": "address"
				}
			],
			"payable": false,
			"stateMutability": "view",
			"type": "function"
		},
		{
			"constant": true,
			"inputs": [
				{
					"name": "poolId",
					"type": "uint256"
				}
			],
			"name": "calcPoolValue",
			"outputs": [
				{
					"name": "aum",
					"type": "uint256"
				}
			],
			"payable": false,
			"stateMutability": "view",
			"type": "function"
		},
		{
			"constant": true,
			"inputs": [
				{
					"name": "poolId",
					"type": "uint256"
				}
			],
			"name": "getRatio",
			"outputs": [
				{
					"name": "",
					"type": "uint256"
				}
			],
			"payable": false,
			"stateMutability": "view",
			"type": "function"
		},
		{
			"constant": true,
			"inputs": [
				{
					"name": "poolId",
					"type": "uint256"
				}
			],
			"name": "proofOfPerformance",
			"outputs": [
				{
					"name": "popReward",
					"type": "uint256"
				},
				{
					"name": "performanceReward",
					"type": "uint256"
				}
			],
			"payable": false,
			"stateMutability": "view",
			"type": "function"
		},
		{
			"constant": true,
			"inputs": [],
			"name": "rigoblockDaoAddress",
			"outputs": [
				{
					"name": "",
					"type": "address"
				}
			],
			"payable": false,
			"stateMutability": "view",
			"type": "function"
		},
		{
			"constant": true,
			"inputs": [
				{
					"name": "poolId",
					"type": "uint256"
				}
			],
			"name": "isActive",
			"outputs": [
				{
					"name": "",
					"type": "bool"
				}
			],
			"payable": false,
			"stateMutability": "view",
			"type": "function"
		},
		{
			"constant": false,
			"inputs": [
				{
					"name": "stakingPoolId",
					"type": "bytes32"
				},
				{
					"name": "reward",
					"type": "uint256"
				}
			],
			"name": "claimPop",
			"outputs": [],
			"payable": false,
			"stateMutability": "nonpayable",
			"type": "function"
		},
		{
			"constant": true,
			"inputs": [
				{
					"name": "poolId",
					"type": "uint256"
				}
			],
			"name": "getPoolPrice",
			"outputs": [
				{
					"name": "thePoolPrice",
					"type": "uint256"
				},
				{
					"name": "totalTokens",
					"type": "uint256"
				}
			],
			"payable": false,
			"stateMutability": "view",
			"type": "function"
		},
		{
			"constant": true,
			"inputs": [],
			"name": "RIGOTOKENADDRESS",
			"outputs": [
				{
					"name": "",
					"type": "address"
				}
			],
			"payable": false,
			"stateMutability": "view",
			"type": "function"
		},
		{
			"constant": false,
			"inputs": [
				{
					"name": "_dragoRegistry",
					"type": "address"
				}
			],
			"name": "setRegistry",
			"outputs": [],
			"payable": false,
			"stateMutability": "nonpayable",
			"type": "function"
		},
		{
			"constant": false,
			"inputs": [
				{
					"name": "_rigoblockDao",
					"type": "address"
				}
			],
			"name": "setRigoblockDao",
			"outputs": [],
			"payable": false,
			"stateMutability": "nonpayable",
			"type": "function"
		},
		{
			"constant": true,
			"inputs": [],
			"name": "STAKING_PROXY_ADDRESS",
			"outputs": [
				{
					"name": "",
					"type": "address"
				}
			],
			"payable": false,
			"stateMutability": "view",
			"type": "function"
		},
		{
			"constant": true,
			"inputs": [
				{
					"name": "poolId",
					"type": "uint256"
				}
			],
			"name": "getPoolData",
			"outputs": [
				{
					"name": "active",
					"type": "bool"
				},
				{
					"name": "poolAddress",
					"type": "address"
				},
				{
					"name": "poolGroup",
					"type": "address"
				},
				{
					"name": "poolPrice",
					"type": "uint256"
				},
				{
					"name": "poolSupply",
					"type": "uint256"
				},
				{
					"name": "poolValue",
					"type": "uint256"
				},
				{
					"name": "epochReward",
					"type": "uint256"
				},
				{
					"name": "ratio",
					"type": "uint256"
				},
				{
					"name": "pop",
					"type": "uint256"
				}
			],
			"payable": false,
			"stateMutability": "view",
			"type": "function"
		},
		{
			"constant": true,
			"inputs": [
				{
					"name": "poolId",
					"type": "uint256"
				}
			],
			"name": "getEpochReward",
			"outputs": [
				{
					"name": "",
					"type": "uint256"
				}
			],
			"payable": false,
			"stateMutability": "view",
			"type": "function"
		},
		{
			"constant": true,
			"inputs": [
				{
					"name": "stakingPoolId",
					"type": "bytes32"
				}
			],
			"name": "getPop",
			"outputs": [
				{
					"name": "popReward",
					"type": "uint256"
				}
			],
			"payable": false,
			"stateMutability": "view",
			"type": "function"
		},
		{
			"inputs": [
				{
					"name": "_rigoTokenAddress",
					"type": "address"
				},
				{
					"name": "_rigoblockDao",
					"type": "address"
				},
				{
					"name": "_dragoRegistry",
					"type": "address"
				},
				{
					"name": "_stakingProxyAddress",
					"type": "address"
				}
			],
			"payable": false,
			"stateMutability": "nonpayable",
			"type": "constructor"
		}
	]
}