{
	"data": {
		"bytecode": {
			"linkReferences": {},
			"object": "6080604052600080546001600160a01b03191633179055610ced806100256000396000f3fe608060405234801561001057600080fd5b50600436106101585760003560e01c80638da5cb5b116100c3578063c18c91411161007c578063c18c9141146102ba578063d39de6e9146102cd578063e0ee036e146102e2578063e8eeb3f8146102ea578063ee99205c146102f2578063f2fde38b146102fa57610158565b80638da5cb5b146102745780639ad267441461027c578063a26171e21461028f578063a657e57914610297578063b05315241461029f578063b9181611146102a757610158565b8063587da02311610115578063587da023146102145780635e30deff14610229578063634038011461023c57806370712939146102445780637667180814610257578063816667961461025f57610158565b80632a94c2791461015d57806338229d93146101885780633cb25d34146101ac57806342f1181e146101cc578063494503d4146101e1578063540c2d53146101f4575b600080fd5b61017061016b366004610aa5565b61030d565b60405161017f93929190610bd3565b60405180910390f35b61019b610196366004610a87565b610339565b60405161017f959493929190610bfb565b6101bf6101ba366004610aa5565b610368565b60405161017f9190610b5b565b6101df6101da366004610a27565b61039d565b005b6101bf6101ef366004610a87565b6103b1565b610207610202366004610a27565b6103d8565b60405161017f9190610b9c565b61021c6103ed565b60405161017f9190610baa565b61021c610237366004610a27565b6103f3565b61021c610405565b6101df610252366004610a27565b61040b565b61021c61049e565b6102676104a4565b60405161017f9190610c47565b6101bf6104b0565b6101df61028a366004610a4d565b6104bf565b61021c6104d1565b61021c6104d7565b61021c6104dd565b6102076102b5366004610a27565b6104e3565b61021c6102c8366004610a87565b6104f8565b6102d561050a565b60405161017f9190610b8b565b61026761056d565b610267610579565b6101bf61058d565b6101df610308366004610a27565b61059c565b601660209081526000928352604080842090915290825290208054600182015460029092015490919083565b601760205260009081526040902080546001820154600283015460038401546004909401549293919290919085565b600a602052816000526040600020818154811061038157fe5b6000918252602090912001546001600160a01b03169150829050565b6103a561060d565b6103ae8161063c565b50565b600281815481106103be57fe5b6000918252602090912001546001600160a01b0316905081565b60116020526000908152604090205460ff1681565b600e5481565b60096020526000908152604090205481565b60125481565b61041361060d565b6001600160a01b03811660009081526001602052604090205460ff166104445761044461043f82610710565b610764565b60005b60025481101561049a57816001600160a01b03166002828154811061046857fe5b6000918252602090912001546001600160a01b031614156104925761048d828261076c565b61049a565b600101610447565b5050565b600d5481565b60155463ffffffff1681565b6000546001600160a01b031681565b6104c761060d565b61049a828261076c565b60145481565b60085481565b60185481565b60016020526000908152604090205460ff1681565b600c6020526000908152604090205481565b6060600280548060200260200160405190810160405280929190818152602001828054801561056257602002820191906000526020600020905b81546001600160a01b03168152600190910190602001808311610544575b505050505090505b90565b60135463ffffffff1681565b601554640100000000900463ffffffff1681565b6003546001600160a01b031681565b6105a461060d565b6001600160a01b0381166105c2576105bd61043f6108e1565b6103ae565b600080546001600160a01b0319166001600160a01b0383169081178255604051909133917f8be0079c531659141344cd1fd0a4f28419497f9722a3daafe3b4186f6b6457e09190a350565b6000546001600160a01b0316331461063a5760005461063a9061043f9033906001600160a01b03166108ff565b565b6001600160a01b0381166106555761065561043f610957565b6001600160a01b03811660009081526001602052604090205460ff16156106825761068261043f82610975565b6001600160a01b0381166000818152600160208190526040808320805460ff19168317905560028054928301815583527f405787fa12a823e0f2b7631cc41b3ba8828b3321ca811111fa75cd3aa3bb5ace90910180546001600160a01b03191684179055513392917f3147867c59d17e8fa9d522465651d44aae0a9e38f902f3475b97e58072f0ed4c91a350565b606063eb5108a260e01b8260405160240161072b9190610b5b565b60408051601f198184030181529190526020810180516001600160e01b03166001600160e01b0319909316929092179091529050919050565b805160208201fd5b6001600160a01b03821660009081526001602052604090205460ff166107985761079861043f83610710565b60025481106107b3576107b361043f82600280549050610990565b816001600160a01b0316600282815481106107ca57fe5b6000918252602090912001546001600160a01b0316146108125761081261043f600283815481106107f757fe5b6000918252602090912001546001600160a01b0316846109ad565b6001600160a01b0382166000908152600160205260409020805460ff1916905560028054600019810190811061084457fe5b600091825260209091200154600280546001600160a01b03909216918390811061086a57fe5b600091825260209091200180546001600160a01b0319166001600160a01b03929092169190911790556002805460001901906108a690826109ca565b5060405133906001600160a01b038416907f1f32c1b084e2de0713b8fb16bd46bb9df710a3dbeae2f3ca93af46e016dcc6b090600090a35050565b604080518082019091526004815263734f6e1f60e11b602082015290565b6060631de45ad160e01b838360405160240161091c929190610b69565b60408051601f198184030181529190526020810180516001600160e01b03166001600160e01b03199093169290921790915290505b92915050565b60408051808201909152600481526315d953f960e21b602082015290565b606063de16f1a060e01b8260405160240161072b9190610b5b565b606063e9f8377160e01b838360405160240161091c929190610bb8565b606063140a84db60e01b838360405160240161091c929190610b69565b8154818355818111156109ee576000838152602090206109ee9181019083016109f3565b505050565b61056a91905b80821115610a0d57600081556001016109f9565b5090565b803561095181610c8d565b803561095181610ca1565b600060208284031215610a3957600080fd5b6000610a458484610a11565b949350505050565b60008060408385031215610a6057600080fd5b6000610a6c8585610a11565b9250506020610a7d85828601610a1c565b9150509250929050565b600060208284031215610a9957600080fd5b6000610a458484610a1c565b60008060408385031215610ab857600080fd5b6000610a6c8585610a1c565b6000610ad08383610ad8565b505060200190565b610ae181610c68565b82525050565b6000610af282610c5b565b610afc8185610c5f565b9350610b0783610c55565b8060005b83811015610b35578151610b1f8882610ac4565b9750610b2a83610c55565b925050600101610b0b565b509495945050505050565b610ae181610c73565b610ae18161056a565b610ae181610c84565b602081016109518284610ad8565b60408101610b778285610ad8565b610b846020830184610ad8565b9392505050565b60208082528101610b848184610ae7565b602081016109518284610b40565b602081016109518284610b49565b60408101610bc68285610b49565b610b846020830184610b49565b60608101610be18286610b49565b610bee6020830185610b49565b610a456040830184610b49565b60a08101610c098288610b49565b610c166020830187610b49565b610c236040830186610b49565b610c306060830185610b49565b610c3d6080830184610b49565b9695505050505050565b602081016109518284610b52565b60200190565b5190565b90815260200190565b600061095182610c78565b151590565b6001600160a01b031690565b63ffffffff1690565b610c9681610c68565b81146103ae57600080fd5b610c968161056a56fea365627a7a7231582028095cb8ca2df409f0815ac4cca558f6ff980b72c59ac12c0a73914a9cd712816c6578706572696d656e74616cf564736f6c63430005110040",
			"opcodes": "PUSH1 0x80 PUSH1 0x40 MSTORE PUSH1 0x0 DUP1 SLOAD PUSH1 0x1 PUSH1 0x1 PUSH1 0xA0 SHL SUB NOT AND CALLER OR SWAP1 SSTORE PUSH2 0xCED DUP1 PUSH2 0x25 PUSH1 0x0 CODECOPY PUSH1 0x0 RETURN INVALID PUSH1 0x80 PUSH1 0x40 MSTORE CALLVALUE DUP1 ISZERO PUSH2 0x10 JUMPI PUSH1 0x0 DUP1 REVERT JUMPDEST POP PUSH1 0x4 CALLDATASIZE LT PUSH2 0x158 JUMPI PUSH1 0x0 CALLDATALOAD PUSH1 0xE0 SHR DUP1 PUSH4 0x8DA5CB5B GT PUSH2 0xC3 JUMPI DUP1 PUSH4 0xC18C9141 GT PUSH2 0x7C JUMPI DUP1 PUSH4 0xC18C9141 EQ PUSH2 0x2BA JUMPI DUP1 PUSH4 0xD39DE6E9 EQ PUSH2 0x2CD JUMPI DUP1 PUSH4 0xE0EE036E EQ PUSH2 0x2E2 JUMPI DUP1 PUSH4 0xE8EEB3F8 EQ PUSH2 0x2EA JUMPI DUP1 PUSH4 0xEE99205C EQ PUSH2 0x2F2 JUMPI DUP1 PUSH4 0xF2FDE38B EQ PUSH2 0x2FA JUMPI PUSH2 0x158 JUMP JUMPDEST DUP1 PUSH4 0x8DA5CB5B EQ PUSH2 0x274 JUMPI DUP1 PUSH4 0x9AD26744 EQ PUSH2 0x27C JUMPI DUP1 PUSH4 0xA26171E2 EQ PUSH2 0x28F JUMPI DUP1 PUSH4 0xA657E579 EQ PUSH2 0x297 JUMPI DUP1 PUSH4 0xB0531524 EQ PUSH2 0x29F JUMPI DUP1 PUSH4 0xB9181611 EQ PUSH2 0x2A7 JUMPI PUSH2 0x158 JUMP JUMPDEST DUP1 PUSH4 0x587DA023 GT PUSH2 0x115 JUMPI DUP1 PUSH4 0x587DA023 EQ PUSH2 0x214 JUMPI DUP1 PUSH4 0x5E30DEFF EQ PUSH2 0x229 JUMPI DUP1 PUSH4 0x63403801 EQ PUSH2 0x23C JUMPI DUP1 PUSH4 0x70712939 EQ PUSH2 0x244 JUMPI DUP1 PUSH4 0x76671808 EQ PUSH2 0x257 JUMPI DUP1 PUSH4 0x81666796 EQ PUSH2 0x25F JUMPI PUSH2 0x158 JUMP JUMPDEST DUP1 PUSH4 0x2A94C279 EQ PUSH2 0x15D JUMPI DUP1 PUSH4 0x38229D93 EQ PUSH2 0x188 JUMPI DUP1 PUSH4 0x3CB25D34 EQ PUSH2 0x1AC JUMPI DUP1 PUSH4 0x42F1181E EQ PUSH2 0x1CC JUMPI DUP1 PUSH4 0x494503D4 EQ PUSH2 0x1E1 JUMPI DUP1 PUSH4 0x540C2D53 EQ PUSH2 0x1F4 JUMPI JUMPDEST PUSH1 0x0 DUP1 REVERT JUMPDEST PUSH2 0x170 PUSH2 0x16B CALLDATASIZE PUSH1 0x4 PUSH2 0xAA5 JUMP JUMPDEST PUSH2 0x30D JUMP JUMPDEST PUSH1 0x40 MLOAD PUSH2 0x17F SWAP4 SWAP3 SWAP2 SWAP1 PUSH2 0xBD3 JUMP JUMPDEST PUSH1 0x40 MLOAD DUP1 SWAP2 SUB SWAP1 RETURN JUMPDEST PUSH2 0x19B PUSH2 0x196 CALLDATASIZE PUSH1 0x4 PUSH2 0xA87 JUMP JUMPDEST PUSH2 0x339 JUMP JUMPDEST PUSH1 0x40 MLOAD PUSH2 0x17F SWAP6 SWAP5 SWAP4 SWAP3 SWAP2 SWAP1 PUSH2 0xBFB JUMP JUMPDEST PUSH2 0x1BF PUSH2 0x1BA CALLDATASIZE PUSH1 0x4 PUSH2 0xAA5 JUMP JUMPDEST PUSH2 0x368 JUMP JUMPDEST PUSH1 0x40 MLOAD PUSH2 0x17F SWAP2 SWAP1 PUSH2 0xB5B JUMP JUMPDEST PUSH2 0x1DF PUSH2 0x1DA CALLDATASIZE PUSH1 0x4 PUSH2 0xA27 JUMP JUMPDEST PUSH2 0x39D JUMP JUMPDEST STOP JUMPDEST PUSH2 0x1BF PUSH2 0x1EF CALLDATASIZE PUSH1 0x4 PUSH2 0xA87 JUMP JUMPDEST PUSH2 0x3B1 JUMP JUMPDEST PUSH2 0x207 PUSH2 0x202 CALLDATASIZE PUSH1 0x4 PUSH2 0xA27 JUMP JUMPDEST PUSH2 0x3D8 JUMP JUMPDEST PUSH1 0x40 MLOAD PUSH2 0x17F SWAP2 SWAP1 PUSH2 0xB9C JUMP JUMPDEST PUSH2 0x21C PUSH2 0x3ED JUMP JUMPDEST PUSH1 0x40 MLOAD PUSH2 0x17F SWAP2 SWAP1 PUSH2 0xBAA JUMP JUMPDEST PUSH2 0x21C PUSH2 0x237 CALLDATASIZE PUSH1 0x4 PUSH2 0xA27 JUMP JUMPDEST PUSH2 0x3F3 JUMP JUMPDEST PUSH2 0x21C PUSH2 0x405 JUMP JUMPDEST PUSH2 0x1DF PUSH2 0x252 CALLDATASIZE PUSH1 0x4 PUSH2 0xA27 JUMP JUMPDEST PUSH2 0x40B JUMP JUMPDEST PUSH2 0x21C PUSH2 0x49E JUMP JUMPDEST PUSH2 0x267 PUSH2 0x4A4 JUMP JUMPDEST PUSH1 0x40 MLOAD PUSH2 0x17F SWAP2 SWAP1 PUSH2 0xC47 JUMP JUMPDEST PUSH2 0x1BF PUSH2 0x4B0 JUMP JUMPDEST PUSH2 0x1DF PUSH2 0x28A CALLDATASIZE PUSH1 0x4 PUSH2 0xA4D JUMP JUMPDEST PUSH2 0x4BF JUMP JUMPDEST PUSH2 0x21C PUSH2 0x4D1 JUMP JUMPDEST PUSH2 0x21C PUSH2 0x4D7 JUMP JUMPDEST PUSH2 0x21C PUSH2 0x4DD JUMP JUMPDEST PUSH2 0x207 PUSH2 0x2B5 CALLDATASIZE PUSH1 0x4 PUSH2 0xA27 JUMP JUMPDEST PUSH2 0x4E3 JUMP JUMPDEST PUSH2 0x21C PUSH2 0x2C8 CALLDATASIZE PUSH1 0x4 PUSH2 0xA87 JUMP JUMPDEST PUSH2 0x4F8 JUMP JUMPDEST PUSH2 0x2D5 PUSH2 0x50A JUMP JUMPDEST PUSH1 0x40 MLOAD PUSH2 0x17F SWAP2 SWAP1 PUSH2 0xB8B JUMP JUMPDEST PUSH2 0x267 PUSH2 0x56D JUMP JUMPDEST PUSH2 0x267 PUSH2 0x579 JUMP JUMPDEST PUSH2 0x1BF PUSH2 0x58D JUMP JUMPDEST PUSH2 0x1DF PUSH2 0x308 CALLDATASIZE PUSH1 0x4 PUSH2 0xA27 JUMP JUMPDEST PUSH2 0x59C JUMP JUMPDEST PUSH1 0x16 PUSH1 0x20 SWAP1 DUP2 MSTORE PUSH1 0x0 SWAP3 DUP4 MSTORE PUSH1 0x40 DUP1 DUP5 KECCAK256 SWAP1 SWAP2 MSTORE SWAP1 DUP3 MSTORE SWAP1 KECCAK256 DUP1 SLOAD PUSH1 0x1 DUP3 ADD SLOAD PUSH1 0x2 SWAP1 SWAP3 ADD SLOAD SWAP1 SWAP2 SWAP1 DUP4 JUMP JUMPDEST PUSH1 0x17 PUSH1 0x20 MSTORE PUSH1 0x0 SWAP1 DUP2 MSTORE PUSH1 0x40 SWAP1 KECCAK256 DUP1 SLOAD PUSH1 0x1 DUP3 ADD SLOAD PUSH1 0x2 DUP4 ADD SLOAD PUSH1 0x3 DUP5 ADD SLOAD PUSH1 0x4 SWAP1 SWAP5 ADD SLOAD SWAP3 SWAP4 SWAP2 SWAP3 SWAP1 SWAP2 SWAP1 DUP6 JUMP JUMPDEST PUSH1 0xA PUSH1 0x20 MSTORE DUP2 PUSH1 0x0 MSTORE PUSH1 0x40 PUSH1 0x0 KECCAK256 DUP2 DUP2 SLOAD DUP2 LT PUSH2 0x381 JUMPI INVALID JUMPDEST PUSH1 0x0 SWAP2 DUP3 MSTORE PUSH1 0x20 SWAP1 SWAP2 KECCAK256 ADD SLOAD PUSH1 0x1 PUSH1 0x1 PUSH1 0xA0 SHL SUB AND SWAP2 POP DUP3 SWAP1 POP JUMP JUMPDEST PUSH2 0x3A5 PUSH2 0x60D JUMP JUMPDEST PUSH2 0x3AE DUP2 PUSH2 0x63C JUMP JUMPDEST POP JUMP JUMPDEST PUSH1 0x2 DUP2 DUP2 SLOAD DUP2 LT PUSH2 0x3BE JUMPI INVALID JUMPDEST PUSH1 0x0 SWAP2 DUP3 MSTORE PUSH1 0x20 SWAP1 SWAP2 KECCAK256 ADD SLOAD PUSH1 0x1 PUSH1 0x1 PUSH1 0xA0 SHL SUB AND SWAP1 POP DUP2 JUMP JUMPDEST PUSH1 0x11 PUSH1 0x20 MSTORE PUSH1 0x0 SWAP1 DUP2 MSTORE PUSH1 0x40 SWAP1 KECCAK256 SLOAD PUSH1 0xFF AND DUP2 JUMP JUMPDEST PUSH1 0xE SLOAD DUP2 JUMP JUMPDEST PUSH1 0x9 PUSH1 0x20 MSTORE PUSH1 0x0 SWAP1 DUP2 MSTORE PUSH1 0x40 SWAP1 KECCAK256 SLOAD DUP2 JUMP JUMPDEST PUSH1 0x12 SLOAD DUP2 JUMP JUMPDEST PUSH2 0x413 PUSH2 0x60D JUMP JUMPDEST PUSH1 0x1 PUSH1 0x1 PUSH1 0xA0 SHL SUB DUP2 AND PUSH1 0x0 SWAP1 DUP2 MSTORE PUSH1 0x1 PUSH1 0x20 MSTORE PUSH1 0x40 SWAP1 KECCAK256 SLOAD PUSH1 0xFF AND PUSH2 0x444 JUMPI PUSH2 0x444 PUSH2 0x43F DUP3 PUSH2 0x710 JUMP JUMPDEST PUSH2 0x764 JUMP JUMPDEST PUSH1 0x0 JUMPDEST PUSH1 0x2 SLOAD DUP2 LT ISZERO PUSH2 0x49A JUMPI DUP2 PUSH1 0x1 PUSH1 0x1 PUSH1 0xA0 SHL SUB AND PUSH1 0x2 DUP3 DUP2 SLOAD DUP2 LT PUSH2 0x468 JUMPI INVALID JUMPDEST PUSH1 0x0 SWAP2 DUP3 MSTORE PUSH1 0x20 SWAP1 SWAP2 KECCAK256 ADD SLOAD PUSH1 0x1 PUSH1 0x1 PUSH1 0xA0 SHL SUB AND EQ ISZERO PUSH2 0x492 JUMPI PUSH2 0x48D DUP3 DUP3 PUSH2 0x76C JUMP JUMPDEST PUSH2 0x49A JUMP JUMPDEST PUSH1 0x1 ADD PUSH2 0x447 JUMP JUMPDEST POP POP JUMP JUMPDEST PUSH1 0xD SLOAD DUP2 JUMP JUMPDEST PUSH1 0x15 SLOAD PUSH4 0xFFFFFFFF AND DUP2 JUMP JUMPDEST PUSH1 0x0 SLOAD PUSH1 0x1 PUSH1 0x1 PUSH1 0xA0 SHL SUB AND DUP2 JUMP JUMPDEST PUSH2 0x4C7 PUSH2 0x60D JUMP JUMPDEST PUSH2 0x49A DUP3 DUP3 PUSH2 0x76C JUMP JUMPDEST PUSH1 0x14 SLOAD DUP2 JUMP JUMPDEST PUSH1 0x8 SLOAD DUP2 JUMP JUMPDEST PUSH1 0x18 SLOAD DUP2 JUMP JUMPDEST PUSH1 0x1 PUSH1 0x20 MSTORE PUSH1 0x0 SWAP1 DUP2 MSTORE PUSH1 0x40 SWAP1 KECCAK256 SLOAD PUSH1 0xFF AND DUP2 JUMP JUMPDEST PUSH1 0xC PUSH1 0x20 MSTORE PUSH1 0x0 SWAP1 DUP2 MSTORE PUSH1 0x40 SWAP1 KECCAK256 SLOAD DUP2 JUMP JUMPDEST PUSH1 0x60 PUSH1 0x2 DUP1 SLOAD DUP1 PUSH1 0x20 MUL PUSH1 0x20 ADD PUSH1 0x40 MLOAD SWAP1 DUP2 ADD PUSH1 0x40 MSTORE DUP1 SWAP3 SWAP2 SWAP1 DUP2 DUP2 MSTORE PUSH1 0x20 ADD DUP3 DUP1 SLOAD DUP1 ISZERO PUSH2 0x562 JUMPI PUSH1 0x20 MUL DUP3 ADD SWAP2 SWAP1 PUSH1 0x0 MSTORE PUSH1 0x20 PUSH1 0x0 KECCAK256 SWAP1 JUMPDEST DUP2 SLOAD PUSH1 0x1 PUSH1 0x1 PUSH1 0xA0 SHL SUB AND DUP2 MSTORE PUSH1 0x1 SWAP1 SWAP2 ADD SWAP1 PUSH1 0x20 ADD DUP1 DUP4 GT PUSH2 0x544 JUMPI JUMPDEST POP POP POP POP POP SWAP1 POP JUMPDEST SWAP1 JUMP JUMPDEST PUSH1 0x13 SLOAD PUSH4 0xFFFFFFFF AND DUP2 JUMP JUMPDEST PUSH1 0x15 SLOAD PUSH5 0x100000000 SWAP1 DIV PUSH4 0xFFFFFFFF AND DUP2 JUMP JUMPDEST PUSH1 0x3 SLOAD PUSH1 0x1 PUSH1 0x1 PUSH1 0xA0 SHL SUB AND DUP2 JUMP JUMPDEST PUSH2 0x5A4 PUSH2 0x60D JUMP JUMPDEST PUSH1 0x1 PUSH1 0x1 PUSH1 0xA0 SHL SUB DUP2 AND PUSH2 0x5C2 JUMPI PUSH2 0x5BD PUSH2 0x43F PUSH2 0x8E1 JUMP JUMPDEST PUSH2 0x3AE JUMP JUMPDEST PUSH1 0x0 DUP1 SLOAD PUSH1 0x1 PUSH1 0x1 PUSH1 0xA0 SHL SUB NOT AND PUSH1 0x1 PUSH1 0x1 PUSH1 0xA0 SHL SUB DUP4 AND SWAP1 DUP2 OR DUP3 SSTORE PUSH1 0x40 MLOAD SWAP1 SWAP2 CALLER SWAP2 PUSH32 0x8BE0079C531659141344CD1FD0A4F28419497F9722A3DAAFE3B4186F6B6457E0 SWAP2 SWAP1 LOG3 POP JUMP JUMPDEST PUSH1 0x0 SLOAD PUSH1 0x1 PUSH1 0x1 PUSH1 0xA0 SHL SUB AND CALLER EQ PUSH2 0x63A JUMPI PUSH1 0x0 SLOAD PUSH2 0x63A SWAP1 PUSH2 0x43F SWAP1 CALLER SWAP1 PUSH1 0x1 PUSH1 0x1 PUSH1 0xA0 SHL SUB AND PUSH2 0x8FF JUMP JUMPDEST JUMP JUMPDEST PUSH1 0x1 PUSH1 0x1 PUSH1 0xA0 SHL SUB DUP2 AND PUSH2 0x655 JUMPI PUSH2 0x655 PUSH2 0x43F PUSH2 0x957 JUMP JUMPDEST PUSH1 0x1 PUSH1 0x1 PUSH1 0xA0 SHL SUB DUP2 AND PUSH1 0x0 SWAP1 DUP2 MSTORE PUSH1 0x1 PUSH1 0x20 MSTORE PUSH1 0x40 SWAP1 KECCAK256 SLOAD PUSH1 0xFF AND ISZERO PUSH2 0x682 JUMPI PUSH2 0x682 PUSH2 0x43F DUP3 PUSH2 0x975 JUMP JUMPDEST PUSH1 0x1 PUSH1 0x1 PUSH1 0xA0 SHL SUB DUP2 AND PUSH1 0x0 DUP2 DUP2 MSTORE PUSH1 0x1 PUSH1 0x20 DUP2 SWAP1 MSTORE PUSH1 0x40 DUP1 DUP4 KECCAK256 DUP1 SLOAD PUSH1 0xFF NOT AND DUP4 OR SWAP1 SSTORE PUSH1 0x2 DUP1 SLOAD SWAP3 DUP4 ADD DUP2 SSTORE DUP4 MSTORE PUSH32 0x405787FA12A823E0F2B7631CC41B3BA8828B3321CA811111FA75CD3AA3BB5ACE SWAP1 SWAP2 ADD DUP1 SLOAD PUSH1 0x1 PUSH1 0x1 PUSH1 0xA0 SHL SUB NOT AND DUP5 OR SWAP1 SSTORE MLOAD CALLER SWAP3 SWAP2 PUSH32 0x3147867C59D17E8FA9D522465651D44AAE0A9E38F902F3475B97E58072F0ED4C SWAP2 LOG3 POP JUMP JUMPDEST PUSH1 0x60 PUSH4 0xEB5108A2 PUSH1 0xE0 SHL DUP3 PUSH1 0x40 MLOAD PUSH1 0x24 ADD PUSH2 0x72B SWAP2 SWAP1 PUSH2 0xB5B JUMP JUMPDEST PUSH1 0x40 DUP1 MLOAD PUSH1 0x1F NOT DUP2 DUP5 SUB ADD DUP2 MSTORE SWAP2 SWAP1 MSTORE PUSH1 0x20 DUP2 ADD DUP1 MLOAD PUSH1 0x1 PUSH1 0x1 PUSH1 0xE0 SHL SUB AND PUSH1 0x1 PUSH1 0x1 PUSH1 0xE0 SHL SUB NOT SWAP1 SWAP4 AND SWAP3 SWAP1 SWAP3 OR SWAP1 SWAP2 MSTORE SWAP1 POP SWAP2 SWAP1 POP JUMP JUMPDEST DUP1 MLOAD PUSH1 0x20 DUP3 ADD REVERT JUMPDEST PUSH1 0x1 PUSH1 0x1 PUSH1 0xA0 SHL SUB DUP3 AND PUSH1 0x0 SWAP1 DUP2 MSTORE PUSH1 0x1 PUSH1 0x20 MSTORE PUSH1 0x40 SWAP1 KECCAK256 SLOAD PUSH1 0xFF AND PUSH2 0x798 JUMPI PUSH2 0x798 PUSH2 0x43F DUP4 PUSH2 0x710 JUMP JUMPDEST PUSH1 0x2 SLOAD DUP2 LT PUSH2 0x7B3 JUMPI PUSH2 0x7B3 PUSH2 0x43F DUP3 PUSH1 0x2 DUP1 SLOAD SWAP1 POP PUSH2 0x990 JUMP JUMPDEST DUP2 PUSH1 0x1 PUSH1 0x1 PUSH1 0xA0 SHL SUB AND PUSH1 0x2 DUP3 DUP2 SLOAD DUP2 LT PUSH2 0x7CA JUMPI INVALID JUMPDEST PUSH1 0x0 SWAP2 DUP3 MSTORE PUSH1 0x20 SWAP1 SWAP2 KECCAK256 ADD SLOAD PUSH1 0x1 PUSH1 0x1 PUSH1 0xA0 SHL SUB AND EQ PUSH2 0x812 JUMPI PUSH2 0x812 PUSH2 0x43F PUSH1 0x2 DUP4 DUP2 SLOAD DUP2 LT PUSH2 0x7F7 JUMPI INVALID JUMPDEST PUSH1 0x0 SWAP2 DUP3 MSTORE PUSH1 0x20 SWAP1 SWAP2 KECCAK256 ADD SLOAD PUSH1 0x1 PUSH1 0x1 PUSH1 0xA0 SHL SUB AND DUP5 PUSH2 0x9AD JUMP JUMPDEST PUSH1 0x1 PUSH1 0x1 PUSH1 0xA0 SHL SUB DUP3 AND PUSH1 0x0 SWAP1 DUP2 MSTORE PUSH1 0x1 PUSH1 0x20 MSTORE PUSH1 0x40 SWAP1 KECCAK256 DUP1 SLOAD PUSH1 0xFF NOT AND SWAP1 SSTORE PUSH1 0x2 DUP1 SLOAD PUSH1 0x0 NOT DUP2 ADD SWAP1 DUP2 LT PUSH2 0x844 JUMPI INVALID JUMPDEST PUSH1 0x0 SWAP2 DUP3 MSTORE PUSH1 0x20 SWAP1 SWAP2 KECCAK256 ADD SLOAD PUSH1 0x2 DUP1 SLOAD PUSH1 0x1 PUSH1 0x1 PUSH1 0xA0 SHL SUB SWAP1 SWAP3 AND SWAP2 DUP4 SWAP1 DUP2 LT PUSH2 0x86A JUMPI INVALID JUMPDEST PUSH1 0x0 SWAP2 DUP3 MSTORE PUSH1 0x20 SWAP1 SWAP2 KECCAK256 ADD DUP1 SLOAD PUSH1 0x1 PUSH1 0x1 PUSH1 0xA0 SHL SUB NOT AND PUSH1 0x1 PUSH1 0x1 PUSH1 0xA0 SHL SUB SWAP3 SWAP1 SWAP3 AND SWAP2 SWAP1 SWAP2 OR SWAP1 SSTORE PUSH1 0x2 DUP1 SLOAD PUSH1 0x0 NOT ADD SWAP1 PUSH2 0x8A6 SWAP1 DUP3 PUSH2 0x9CA JUMP JUMPDEST POP PUSH1 0x40 MLOAD CALLER SWAP1 PUSH1 0x1 PUSH1 0x1 PUSH1 0xA0 SHL SUB DUP5 AND SWAP1 PUSH32 0x1F32C1B084E2DE0713B8FB16BD46BB9DF710A3DBEAE2F3CA93AF46E016DCC6B0 SWAP1 PUSH1 0x0 SWAP1 LOG3 POP POP JUMP JUMPDEST PUSH1 0x40 DUP1 MLOAD DUP1 DUP3 ADD SWAP1 SWAP2 MSTORE PUSH1 0x4 DUP2 MSTORE PUSH4 0x734F6E1F PUSH1 0xE1 SHL PUSH1 0x20 DUP3 ADD MSTORE SWAP1 JUMP JUMPDEST PUSH1 0x60 PUSH4 0x1DE45AD1 PUSH1 0xE0 SHL DUP4 DUP4 PUSH1 0x40 MLOAD PUSH1 0x24 ADD PUSH2 0x91C SWAP3 SWAP2 SWAP1 PUSH2 0xB69 JUMP JUMPDEST PUSH1 0x40 DUP1 MLOAD PUSH1 0x1F NOT DUP2 DUP5 SUB ADD DUP2 MSTORE SWAP2 SWAP1 MSTORE PUSH1 0x20 DUP2 ADD DUP1 MLOAD PUSH1 0x1 PUSH1 0x1 PUSH1 0xE0 SHL SUB AND PUSH1 0x1 PUSH1 0x1 PUSH1 0xE0 SHL SUB NOT SWAP1 SWAP4 AND SWAP3 SWAP1 SWAP3 OR SWAP1 SWAP2 MSTORE SWAP1 POP JUMPDEST SWAP3 SWAP2 POP POP JUMP JUMPDEST PUSH1 0x40 DUP1 MLOAD DUP1 DUP3 ADD SWAP1 SWAP2 MSTORE PUSH1 0x4 DUP2 MSTORE PUSH4 0x15D953F9 PUSH1 0xE2 SHL PUSH1 0x20 DUP3 ADD MSTORE SWAP1 JUMP JUMPDEST PUSH1 0x60 PUSH4 0xDE16F1A0 PUSH1 0xE0 SHL DUP3 PUSH1 0x40 MLOAD PUSH1 0x24 ADD PUSH2 0x72B SWAP2 SWAP1 PUSH2 0xB5B JUMP JUMPDEST PUSH1 0x60 PUSH4 0xE9F83771 PUSH1 0xE0 SHL DUP4 DUP4 PUSH1 0x40 MLOAD PUSH1 0x24 ADD PUSH2 0x91C SWAP3 SWAP2 SWAP1 PUSH2 0xBB8 JUMP JUMPDEST PUSH1 0x60 PUSH4 0x140A84DB PUSH1 0xE0 SHL DUP4 DUP4 PUSH1 0x40 MLOAD PUSH1 0x24 ADD PUSH2 0x91C SWAP3 SWAP2 SWAP1 PUSH2 0xB69 JUMP JUMPDEST DUP2 SLOAD DUP2 DUP4 SSTORE DUP2 DUP2 GT ISZERO PUSH2 0x9EE JUMPI PUSH1 0x0 DUP4 DUP2 MSTORE PUSH1 0x20 SWAP1 KECCAK256 PUSH2 0x9EE SWAP2 DUP2 ADD SWAP1 DUP4 ADD PUSH2 0x9F3 JUMP JUMPDEST POP POP POP JUMP JUMPDEST PUSH2 0x56A SWAP2 SWAP1 JUMPDEST DUP1 DUP3 GT ISZERO PUSH2 0xA0D JUMPI PUSH1 0x0 DUP2 SSTORE PUSH1 0x1 ADD PUSH2 0x9F9 JUMP JUMPDEST POP SWAP1 JUMP JUMPDEST DUP1 CALLDATALOAD PUSH2 0x951 DUP2 PUSH2 0xC8D JUMP JUMPDEST DUP1 CALLDATALOAD PUSH2 0x951 DUP2 PUSH2 0xCA1 JUMP JUMPDEST PUSH1 0x0 PUSH1 0x20 DUP3 DUP5 SUB SLT ISZERO PUSH2 0xA39 JUMPI PUSH1 0x0 DUP1 REVERT JUMPDEST PUSH1 0x0 PUSH2 0xA45 DUP5 DUP5 PUSH2 0xA11 JUMP JUMPDEST SWAP5 SWAP4 POP POP POP POP JUMP JUMPDEST PUSH1 0x0 DUP1 PUSH1 0x40 DUP4 DUP6 SUB SLT ISZERO PUSH2 0xA60 JUMPI PUSH1 0x0 DUP1 REVERT JUMPDEST PUSH1 0x0 PUSH2 0xA6C DUP6 DUP6 PUSH2 0xA11 JUMP JUMPDEST SWAP3 POP POP PUSH1 0x20 PUSH2 0xA7D DUP6 DUP3 DUP7 ADD PUSH2 0xA1C JUMP JUMPDEST SWAP2 POP POP SWAP3 POP SWAP3 SWAP1 POP JUMP JUMPDEST PUSH1 0x0 PUSH1 0x20 DUP3 DUP5 SUB SLT ISZERO PUSH2 0xA99 JUMPI PUSH1 0x0 DUP1 REVERT JUMPDEST PUSH1 0x0 PUSH2 0xA45 DUP5 DUP5 PUSH2 0xA1C JUMP JUMPDEST PUSH1 0x0 DUP1 PUSH1 0x40 DUP4 DUP6 SUB SLT ISZERO PUSH2 0xAB8 JUMPI PUSH1 0x0 DUP1 REVERT JUMPDEST PUSH1 0x0 PUSH2 0xA6C DUP6 DUP6 PUSH2 0xA1C JUMP JUMPDEST PUSH1 0x0 PUSH2 0xAD0 DUP4 DUP4 PUSH2 0xAD8 JUMP JUMPDEST POP POP PUSH1 0x20 ADD SWAP1 JUMP JUMPDEST PUSH2 0xAE1 DUP2 PUSH2 0xC68 JUMP JUMPDEST DUP3 MSTORE POP POP JUMP JUMPDEST PUSH1 0x0 PUSH2 0xAF2 DUP3 PUSH2 0xC5B JUMP JUMPDEST PUSH2 0xAFC DUP2 DUP6 PUSH2 0xC5F JUMP JUMPDEST SWAP4 POP PUSH2 0xB07 DUP4 PUSH2 0xC55 JUMP JUMPDEST DUP1 PUSH1 0x0 JUMPDEST DUP4 DUP2 LT ISZERO PUSH2 0xB35 JUMPI DUP2 MLOAD PUSH2 0xB1F DUP9 DUP3 PUSH2 0xAC4 JUMP JUMPDEST SWAP8 POP PUSH2 0xB2A DUP4 PUSH2 0xC55 JUMP JUMPDEST SWAP3 POP POP PUSH1 0x1 ADD PUSH2 0xB0B JUMP JUMPDEST POP SWAP5 SWAP6 SWAP5 POP POP POP POP POP JUMP JUMPDEST PUSH2 0xAE1 DUP2 PUSH2 0xC73 JUMP JUMPDEST PUSH2 0xAE1 DUP2 PUSH2 0x56A JUMP JUMPDEST PUSH2 0xAE1 DUP2 PUSH2 0xC84 JUMP JUMPDEST PUSH1 0x20 DUP2 ADD PUSH2 0x951 DUP3 DUP5 PUSH2 0xAD8 JUMP JUMPDEST PUSH1 0x40 DUP2 ADD PUSH2 0xB77 DUP3 DUP6 PUSH2 0xAD8 JUMP JUMPDEST PUSH2 0xB84 PUSH1 0x20 DUP4 ADD DUP5 PUSH2 0xAD8 JUMP JUMPDEST SWAP4 SWAP3 POP POP POP JUMP JUMPDEST PUSH1 0x20 DUP1 DUP3 MSTORE DUP2 ADD PUSH2 0xB84 DUP2 DUP5 PUSH2 0xAE7 JUMP JUMPDEST PUSH1 0x20 DUP2 ADD PUSH2 0x951 DUP3 DUP5 PUSH2 0xB40 JUMP JUMPDEST PUSH1 0x20 DUP2 ADD PUSH2 0x951 DUP3 DUP5 PUSH2 0xB49 JUMP JUMPDEST PUSH1 0x40 DUP2 ADD PUSH2 0xBC6 DUP3 DUP6 PUSH2 0xB49 JUMP JUMPDEST PUSH2 0xB84 PUSH1 0x20 DUP4 ADD DUP5 PUSH2 0xB49 JUMP JUMPDEST PUSH1 0x60 DUP2 ADD PUSH2 0xBE1 DUP3 DUP7 PUSH2 0xB49 JUMP JUMPDEST PUSH2 0xBEE PUSH1 0x20 DUP4 ADD DUP6 PUSH2 0xB49 JUMP JUMPDEST PUSH2 0xA45 PUSH1 0x40 DUP4 ADD DUP5 PUSH2 0xB49 JUMP JUMPDEST PUSH1 0xA0 DUP2 ADD PUSH2 0xC09 DUP3 DUP9 PUSH2 0xB49 JUMP JUMPDEST PUSH2 0xC16 PUSH1 0x20 DUP4 ADD DUP8 PUSH2 0xB49 JUMP JUMPDEST PUSH2 0xC23 PUSH1 0x40 DUP4 ADD DUP7 PUSH2 0xB49 JUMP JUMPDEST PUSH2 0xC30 PUSH1 0x60 DUP4 ADD DUP6 PUSH2 0xB49 JUMP JUMPDEST PUSH2 0xC3D PUSH1 0x80 DUP4 ADD DUP5 PUSH2 0xB49 JUMP JUMPDEST SWAP7 SWAP6 POP POP POP POP POP POP JUMP JUMPDEST PUSH1 0x20 DUP2 ADD PUSH2 0x951 DUP3 DUP5 PUSH2 0xB52 JUMP JUMPDEST PUSH1 0x20 ADD SWAP1 JUMP JUMPDEST MLOAD SWAP1 JUMP JUMPDEST SWAP1 DUP2 MSTORE PUSH1 0x20 ADD SWAP1 JUMP JUMPDEST PUSH1 0x0 PUSH2 0x951 DUP3 PUSH2 0xC78 JUMP JUMPDEST ISZERO ISZERO SWAP1 JUMP JUMPDEST PUSH1 0x1 PUSH1 0x1 PUSH1 0xA0 SHL SUB AND SWAP1 JUMP JUMPDEST PUSH4 0xFFFFFFFF AND SWAP1 JUMP JUMPDEST PUSH2 0xC96 DUP2 PUSH2 0xC68 JUMP JUMPDEST DUP2 EQ PUSH2 0x3AE JUMPI PUSH1 0x0 DUP1 REVERT JUMPDEST PUSH2 0xC96 DUP2 PUSH2 0x56A JUMP INVALID LOG3 PUSH6 0x627A7A723158 KECCAK256 0x28 MULMOD 0x5C 0xB8 0xCA 0x2D DELEGATECALL MULMOD CREATE DUP2 GAS 0xC4 0xCC 0xA5 PC 0xF6 SELFDESTRUCT SWAP9 SIGNEXTEND PUSH19 0xC59AC12C0A73914A9CD712816C657870657269 PUSH14 0x656E74616CF564736F6C63430005 GT STOP BLOCKHASH "
		},
		"gasEstimates": {
			"creation": {
				"codeDepositCost": "661800",
				"executionCost": "21507",
				"totalCost": "683307"
			},
			"external": {
				"addAuthorizedAddress(address)": "infinite",
				"aggregatedStatsByEpoch(uint256)": "infinite",
				"authorities(uint256)": "infinite",
				"authorized(address)": "infinite",
				"cobbDouglasAlphaDenominator()": "1210",
				"cobbDouglasAlphaNumerator()": "1244",
				"currentEpoch()": "1210",
				"currentEpochStartTimeInSeconds()": "1122",
				"epochDurationInSeconds()": "1166",
				"getAuthorizedAddresses()": "infinite",
				"lastPoolId()": "1188",
				"minimumPoolStake()": "1166",
				"owner()": "infinite",
				"poolIdByRbPool(address)": "infinite",
				"poolStatsByEpoch(bytes32,uint256)": "infinite",
				"removeAuthorizedAddress(address)": "infinite",
				"removeAuthorizedAddressAtIndex(address,uint256)": "infinite",
				"rewardDelegatedStakeWeight()": "1177",
				"rewardsByPoolId(bytes32)": "infinite",
				"rigoblockOperatorPools(bytes32,uint256)": "infinite",
				"stakingContract()": "infinite",
				"transferOwnership(address)": "infinite",
				"validPops(address)": "infinite",
				"wethReservedForPoolRewards()": "1210"
			}
		},
		"methodIdentifiers": {
			"addAuthorizedAddress(address)": "42f1181e",
			"aggregatedStatsByEpoch(uint256)": "38229d93",
			"authorities(uint256)": "494503d4",
			"authorized(address)": "b9181611",
			"cobbDouglasAlphaDenominator()": "e8eeb3f8",
			"cobbDouglasAlphaNumerator()": "81666796",
			"currentEpoch()": "76671808",
			"currentEpochStartTimeInSeconds()": "587da023",
			"epochDurationInSeconds()": "63403801",
			"getAuthorizedAddresses()": "d39de6e9",
			"lastPoolId()": "a657e579",
			"minimumPoolStake()": "a26171e2",
			"owner()": "8da5cb5b",
			"poolIdByRbPool(address)": "5e30deff",
			"poolStatsByEpoch(bytes32,uint256)": "2a94c279",
			"removeAuthorizedAddress(address)": "70712939",
			"removeAuthorizedAddressAtIndex(address,uint256)": "9ad26744",
			"rewardDelegatedStakeWeight()": "e0ee036e",
			"rewardsByPoolId(bytes32)": "c18c9141",
			"rigoblockOperatorPools(bytes32,uint256)": "3cb25d34",
			"stakingContract()": "ee99205c",
			"transferOwnership(address)": "f2fde38b",
			"validPops(address)": "540c2d53",
			"wethReservedForPoolRewards()": "b0531524"
		}
	},
	"abi": [
		{
			"anonymous": false,
			"inputs": [
				{
					"indexed": true,
					"internalType": "address",
					"name": "target",
					"type": "address"
				},
				{
					"indexed": true,
					"internalType": "address",
					"name": "caller",
					"type": "address"
				}
			],
			"name": "AuthorizedAddressAdded",
			"type": "event"
		},
		{
			"anonymous": false,
			"inputs": [
				{
					"indexed": true,
					"internalType": "address",
					"name": "target",
					"type": "address"
				},
				{
					"indexed": true,
					"internalType": "address",
					"name": "caller",
					"type": "address"
				}
			],
			"name": "AuthorizedAddressRemoved",
			"type": "event"
		},
		{
			"anonymous": false,
			"inputs": [
				{
					"indexed": true,
					"internalType": "address",
					"name": "previousOwner",
					"type": "address"
				},
				{
					"indexed": true,
					"internalType": "address",
					"name": "newOwner",
					"type": "address"
				}
			],
			"name": "OwnershipTransferred",
			"type": "event"
		},
		{
			"constant": false,
			"inputs": [
				{
					"internalType": "address",
					"name": "target",
					"type": "address"
				}
			],
			"name": "addAuthorizedAddress",
			"outputs": [],
			"payable": false,
			"stateMutability": "nonpayable",
			"type": "function"
		},
		{
			"constant": true,
			"inputs": [
				{
					"internalType": "uint256",
					"name": "",
					"type": "uint256"
				}
			],
			"name": "aggregatedStatsByEpoch",
			"outputs": [
				{
					"internalType": "uint256",
					"name": "rewardsAvailable",
					"type": "uint256"
				},
				{
					"internalType": "uint256",
					"name": "numPoolsToFinalize",
					"type": "uint256"
				},
				{
					"internalType": "uint256",
					"name": "totalFeesCollected",
					"type": "uint256"
				},
				{
					"internalType": "uint256",
					"name": "totalWeightedStake",
					"type": "uint256"
				},
				{
					"internalType": "uint256",
					"name": "totalRewardsFinalized",
					"type": "uint256"
				}
			],
			"payable": false,
			"stateMutability": "view",
			"type": "function"
		},
		{
			"constant": true,
			"inputs": [
				{
					"internalType": "uint256",
					"name": "",
					"type": "uint256"
				}
			],
			"name": "authorities",
			"outputs": [
				{
					"internalType": "address",
					"name": "",
					"type": "address"
				}
			],
			"payable": false,
			"stateMutability": "view",
			"type": "function"
		},
		{
			"constant": true,
			"inputs": [
				{
					"internalType": "address",
					"name": "",
					"type": "address"
				}
			],
			"name": "authorized",
			"outputs": [
				{
					"internalType": "bool",
					"name": "",
					"type": "bool"
				}
			],
			"payable": false,
			"stateMutability": "view",
			"type": "function"
		},
		{
			"constant": true,
			"inputs": [],
			"name": "cobbDouglasAlphaDenominator",
			"outputs": [
				{
					"internalType": "uint32",
					"name": "",
					"type": "uint32"
				}
			],
			"payable": false,
			"stateMutability": "view",
			"type": "function"
		},
		{
			"constant": true,
			"inputs": [],
			"name": "cobbDouglasAlphaNumerator",
			"outputs": [
				{
					"internalType": "uint32",
					"name": "",
					"type": "uint32"
				}
			],
			"payable": false,
			"stateMutability": "view",
			"type": "function"
		},
		{
			"constant": true,
			"inputs": [],
			"name": "currentEpoch",
			"outputs": [
				{
					"internalType": "uint256",
					"name": "",
					"type": "uint256"
				}
			],
			"payable": false,
			"stateMutability": "view",
			"type": "function"
		},
		{
			"constant": true,
			"inputs": [],
			"name": "currentEpochStartTimeInSeconds",
			"outputs": [
				{
					"internalType": "uint256",
					"name": "",
					"type": "uint256"
				}
			],
			"payable": false,
			"stateMutability": "view",
			"type": "function"
		},
		{
			"constant": true,
			"inputs": [],
			"name": "epochDurationInSeconds",
			"outputs": [
				{
					"internalType": "uint256",
					"name": "",
					"type": "uint256"
				}
			],
			"payable": false,
			"stateMutability": "view",
			"type": "function"
		},
		{
			"constant": true,
			"inputs": [],
			"name": "getAuthorizedAddresses",
			"outputs": [
				{
					"internalType": "address[]",
					"name": "",
					"type": "address[]"
				}
			],
			"payable": false,
			"stateMutability": "view",
			"type": "function"
		},
		{
			"constant": true,
			"inputs": [],
			"name": "lastPoolId",
			"outputs": [
				{
					"internalType": "bytes32",
					"name": "",
					"type": "bytes32"
				}
			],
			"payable": false,
			"stateMutability": "view",
			"type": "function"
		},
		{
			"constant": true,
			"inputs": [],
			"name": "minimumPoolStake",
			"outputs": [
				{
					"internalType": "uint256",
					"name": "",
					"type": "uint256"
				}
			],
			"payable": false,
			"stateMutability": "view",
			"type": "function"
		},
		{
			"constant": true,
			"inputs": [],
			"name": "owner",
			"outputs": [
				{
					"internalType": "address",
					"name": "",
					"type": "address"
				}
			],
			"payable": false,
			"stateMutability": "view",
			"type": "function"
		},
		{
			"constant": true,
			"inputs": [
				{
					"internalType": "address",
					"name": "",
					"type": "address"
				}
			],
			"name": "poolIdByRbPool",
			"outputs": [
				{
					"internalType": "bytes32",
					"name": "",
					"type": "bytes32"
				}
			],
			"payable": false,
			"stateMutability": "view",
			"type": "function"
		},
		{
			"constant": true,
			"inputs": [
				{
					"internalType": "bytes32",
					"name": "",
					"type": "bytes32"
				},
				{
					"internalType": "uint256",
					"name": "",
					"type": "uint256"
				}
			],
			"name": "poolStatsByEpoch",
			"outputs": [
				{
					"internalType": "uint256",
					"name": "feesCollected",
					"type": "uint256"
				},
				{
					"internalType": "uint256",
					"name": "weightedStake",
					"type": "uint256"
				},
				{
					"internalType": "uint256",
					"name": "membersStake",
					"type": "uint256"
				}
			],
			"payable": false,
			"stateMutability": "view",
			"type": "function"
		},
		{
			"constant": false,
			"inputs": [
				{
					"internalType": "address",
					"name": "target",
					"type": "address"
				}
			],
			"name": "removeAuthorizedAddress",
			"outputs": [],
			"payable": false,
			"stateMutability": "nonpayable",
			"type": "function"
		},
		{
			"constant": false,
			"inputs": [
				{
					"internalType": "address",
					"name": "target",
					"type": "address"
				},
				{
					"internalType": "uint256",
					"name": "index",
					"type": "uint256"
				}
			],
			"name": "removeAuthorizedAddressAtIndex",
			"outputs": [],
			"payable": false,
			"stateMutability": "nonpayable",
			"type": "function"
		},
		{
			"constant": true,
			"inputs": [],
			"name": "rewardDelegatedStakeWeight",
			"outputs": [
				{
					"internalType": "uint32",
					"name": "",
					"type": "uint32"
				}
			],
			"payable": false,
			"stateMutability": "view",
			"type": "function"
		},
		{
			"constant": true,
			"inputs": [
				{
					"internalType": "bytes32",
					"name": "",
					"type": "bytes32"
				}
			],
			"name": "rewardsByPoolId",
			"outputs": [
				{
					"internalType": "uint256",
					"name": "",
					"type": "uint256"
				}
			],
			"payable": false,
			"stateMutability": "view",
			"type": "function"
		},
		{
			"constant": true,
			"inputs": [
				{
					"internalType": "bytes32",
					"name": "",
					"type": "bytes32"
				},
				{
					"internalType": "uint256",
					"name": "",
					"type": "uint256"
				}
			],
			"name": "rigoblockOperatorPools",
			"outputs": [
				{
					"internalType": "address",
					"name": "",
					"type": "address"
				}
			],
			"payable": false,
			"stateMutability": "view",
			"type": "function"
		},
		{
			"constant": true,
			"inputs": [],
			"name": "stakingContract",
			"outputs": [
				{
					"internalType": "address",
					"name": "",
					"type": "address"
				}
			],
			"payable": false,
			"stateMutability": "view",
			"type": "function"
		},
		{
			"constant": false,
			"inputs": [
				{
					"internalType": "address",
					"name": "newOwner",
					"type": "address"
				}
			],
			"name": "transferOwnership",
			"outputs": [],
			"payable": false,
			"stateMutability": "nonpayable",
			"type": "function"
		},
		{
			"constant": true,
			"inputs": [
				{
					"internalType": "address",
					"name": "",
					"type": "address"
				}
			],
			"name": "validPops",
			"outputs": [
				{
					"internalType": "bool",
					"name": "",
					"type": "bool"
				}
			],
			"payable": false,
			"stateMutability": "view",
			"type": "function"
		},
		{
			"constant": true,
			"inputs": [],
			"name": "wethReservedForPoolRewards",
			"outputs": [
				{
					"internalType": "uint256",
					"name": "",
					"type": "uint256"
				}
			],
			"payable": false,
			"stateMutability": "view",
			"type": "function"
		}
	]
}