{
	"data": {
		"bytecode": {
			"linkReferences": {},
			"object": "6080604052600080546001600160a01b0319163317905561448f806100256000396000f3fe6080604052600436106102725760003560e01c8063816667961161014f578063be111af4116100c1578063e8eeb3f81161007a578063e8eeb3f814610750578063e907f00314610765578063ee99205c14610785578063f252b7a11461079a578063f2fde38b146107ba578063ff691b11146107da57610272565b8063be111af4146106a4578063c18c9141146106c4578063d39de6e9146106e4578063e0822db714610706578063e0ee036e1461071b578063e804d0a41461073057610272565b8063a657e57911610113578063a657e57914610605578063b05315241461061a578063b2baa33e1461062f578063b510879f14610644578063b918161114610664578063bb7ef7e01461068457610272565b806381666796146105865780638da5cb5b146105a85780639ad26744146105bd578063a26171e2146105dd578063a3b4a327146105f257610272565b806346b97959116101e85780635d91121d116101ac5780635d91121d146104dc5780635e30deff146104fc578063634038011461051c5780637071293914610531578063734fc76b14610551578063766718081461057157610272565b806346b9795914610420578063494503d41461044d5780634bcc3f671461046d578063540c2d531461049a578063587da023146104c757610272565b806338229d931161023a57806338229d93146103335780633c277fc5146103645780633cb25d34146103865780633e4ad732146103b357806342f1181e146103e057806344a6958b1461040057610272565b806301e28d84146102775780630b9663db146102995780631e7ff8f6146102c45780631f81eb80146102e45780632a94c27914610304575b600080fd5b34801561028357600080fd5b50610297610292366004613b3f565b6107fa565b005b3480156102a557600080fd5b506102ae610890565b6040516102bb91906140d8565b60405180910390f35b3480156102d057600080fd5b506102ae6102df366004613b3f565b6109dd565b3480156102f057600080fd5b506102976102ff366004613b3f565b610a6a565b34801561031057600080fd5b5061032461031f366004613c76565b610af4565b6040516102bb93929190614204565b34801561033f57600080fd5b5061035361034e366004613c28565b610b20565b6040516102bb959493929190614247565b34801561037057600080fd5b50610379610b4f565b6040516102bb919061411c565b34801561039257600080fd5b506103a66103a1366004613c76565b610b67565b6040516102bb919061404d565b3480156103bf57600080fd5b506103d36103ce366004613c28565b610b9c565b6040516102bb91906141f6565b3480156103ec57600080fd5b506102976103fb366004613b3f565b610bbb565b34801561040c57600080fd5b506103d361041b366004613bda565b610bcf565b34801561042c57600080fd5b5061044061043b366004613c28565b610c21565b6040516102bb91906141da565b34801561045957600080fd5b506103a6610468366004613c28565b610c6c565b34801561047957600080fd5b5061048d610488366004613c28565b610c93565b6040516102bb91906141e8565b3480156104a657600080fd5b506104ba6104b5366004613b3f565b610cd7565b6040516102bb91906140ca565b3480156104d357600080fd5b506102ae610cec565b3480156104e857600080fd5b506102976104f7366004613c95565b610cf2565b34801561050857600080fd5b506102ae610517366004613b3f565b610d8f565b34801561052857600080fd5b506102ae610da1565b34801561053d57600080fd5b5061029761054c366004613b3f565b610da7565b34801561055d57600080fd5b5061029761056c366004613c46565b610e35565b34801561057d57600080fd5b506102ae61111b565b34801561059257600080fd5b5061059b611121565b6040516102bb9190614289565b3480156105b457600080fd5b506103a661112d565b3480156105c957600080fd5b506102976105d8366004613baa565b61113c565b3480156105e957600080fd5b506102ae61114e565b610297610600366004613b5d565b611154565b34801561061157600080fd5b506102ae611363565b34801561062657600080fd5b506102ae611369565b34801561063b57600080fd5b506102ae61136f565b34801561065057600080fd5b5061029761065f366004613c28565b61138d565b34801561067057600080fd5b506104ba61067f366004613b3f565b611397565b34801561069057600080fd5b506102ae61069f366004613c28565b6113ac565b3480156106b057600080fd5b506102ae6106bf366004613b3f565b611419565b3480156106d057600080fd5b506102ae6106df366004613c28565b611513565b3480156106f057600080fd5b506106f9611525565b6040516102bb91906140b9565b34801561071257600080fd5b50610379611587565b34801561072757600080fd5b5061059b61159f565b34801561073c57600080fd5b506103d361074b366004613cc5565b6115ab565b34801561075c57600080fd5b5061059b6116df565b34801561077157600080fd5b506102ae610780366004613c46565b6116f3565b34801561079157600080fd5b506103a6611772565b3480156107a657600080fd5b506103d36107b5366004613baa565b611781565b3480156107c657600080fd5b506102976107d5366004613b3f565b6117b5565b3480156107e657600080fd5b506102976107f5366004613c28565b611826565b610802611a7a565b6001600160a01b03811660009081526011602052604090205460ff1661083557610835610830600183611a9f565b611af6565b6001600160a01b03811660009081526011602052604090819020805460ff19169055517f9bf55462cb5fa187f725d06de0a70bc01c4e40695570bdc25ad116f9be46bda79061088590839061404d565b60405180910390a150565b600d54600090816108a882600163ffffffff611afe16565b60008181526017602052604090206001015490915080156108d0576108d06108308383611b1d565b6108d8611b3a565b6108e0611b9f565b6000848152601760205260409020556108f76139bb565b50600083815260176020908152604091829020825160a08101845281548082526001830154938201849052600283015482860181905260038401546060840181905260049094015460808401529451919488947fbb4a26fa0ace13ee4da343896c20eaa44a618fb9071fdd8c2e2c960a4583189d946109799491939291614212565b60405180910390a2610989611c36565b60208101516109d057805160405185917fb463d19ecf455be65365092cf8e1db6934a0334cf8cd532ddf9964d01f36b5b2916109c79160009161417c565b60405180910390a25b6020015193505050505b90565b60006109e7611587565b6001600160a01b03166370a08231836040518263ffffffff1660e01b8152600401610a12919061404d565b60206040518083038186803b158015610a2a57600080fd5b505afa158015610a3e573d6000803e3d6000fd5b505050506040513d601f19601f82011682018060405250610a629190810190613ce3565b90505b919050565b610a72611a7a565b6001600160a01b03811660009081526011602052604090205460ff1615610aa157610aa1610830600083611a9f565b6001600160a01b03811660009081526011602052604090819020805460ff19166001179055517f5738ee3c8e8fe8b0b9c4c21b16fdca42ec02e271237dfeabbf3b5af1584d732b9061088590839061404d565b601660209081526000928352604080842090915290825290208054600182015460029092015490919083565b601760205260009081526040902080546001820154600283015460038401546004909401549293919290919085565b73c02aaa39b223fe8d0a0e5c4f27ead9083c756cc290565b600a6020528160005260406000208181548110610b8057fe5b6000918252602090912001546001600160a01b03169150829050565b610ba46139ea565b6000828152600760205260409020610a6290611c79565b610bc3611cfd565b610bcc81611d2a565b50565b610bd76139ea565b610c1860056000846001811115610bea57fe5b60ff168152602080820192909252604090810160009081206001600160a01b03881682529092529020611c79565b90505b92915050565b610c29613a0a565b506000908152601660209081526040808320600d548452825291829020825160608101845281548152600182015492810192909252600201549181019190915290565b60028181548110610c7957fe5b6000918252602090912001546001600160a01b0316905081565b610c9b613a2b565b506000908152600b60209081526040918290208251808401909352546001600160a01b0381168352600160a01b900463ffffffff169082015290565b60116020526000908152604090205460ff1681565b600e5481565b81610cfc81611dfe565b6000838152600b6020526040902054600160a01b900463ffffffff16610d23848285611e2a565b6000848152600b602052604090819020805463ffffffff60a01b1916600160a01b63ffffffff8716021790555184907f8ea2a7a959bd25f226b7b0a4393613f7fdcaa8404e8bad96aa52dc1c1459016790610d819084908790614297565b60405180910390a250505050565b60096020526000908152604090205481565b60125481565b610daf611cfd565b6001600160a01b03811660009081526001602052604090205460ff16610ddb57610ddb61083082611e72565b60005b600254811015610e3157816001600160a01b031660028281548110610dff57fe5b6000918252602090912001546001600160a01b03161415610e2957610e248282611ec6565b610e31565b600101610dde565b5050565b60405163b72e717d60e01b81526000908190819063b72e717d90610e5d90869060040161404d565b60006040518083038186803b158015610e7557600080fd5b505afa158015610e89573d6000803e3d6000fd5b505050506040513d6000823e601f3d908101601f19168201604052610eb19190810190613d01565b509450505050915060008214158015610ed257506001600160a01b03811633145b610ef75760405162461bcd60e51b8152600401610eee9061418a565b60405180910390fd5b6001600160a01b038316600090815260096020908152604080832054808452600a8352922054908110610f3c5760405162461bcd60e51b8152600401610eee906141aa565b81156110a3576001600160a01b0385166000908152600960209081526040808320548352600a82528083208054825181850281018501909352808352606093830182828015610fb457602002820191906000526020600020905b81546001600160a01b03168152600190910190602001808311610f96575b50939450600093505050505b8381101561100557876001600160a01b0316828281518110610fde57fe5b60200260200101516001600160a01b031614610ff957610ffd565b8092505b600101610fc0565b508060018251038151811061101657fe5b6020026020010151600a6000868152602001908152602001600020838154811061103c57fe5b600091825260208083209190910180546001600160a01b0319166001600160a01b039490941693909317909255858152600a9091526040902080548061107e57fe5b600082815260209020810160001990810180546001600160a01b031916905501905550505b6001600160a01b03851660008181526009602090815260408083208a9055898352600a8252808320805460018101825590845291832090910180546001600160a01b03191684179055518892917fe8b9f7ee7a4480d45b60e98f7b2090dd82e2353b8557a6ee2dd2d5ee9196bac291a3505050505050565b600d5481565b60155463ffffffff1681565b6000546001600160a01b031681565b611144611cfd565b610e318282611ec6565b60145481565b3360009081526011602052604090205460ff16611177576111776108303361203b565b61118081612056565b3461122a5761118d610b4f565b6001600160a01b03166323b872dd8330846040518463ffffffff1660e01b81526004016111bc93929190614076565b602060405180830381600087803b1580156111d657600080fd5b505af11580156111ea573d6000803e3d6000fd5b505050506040513d601f19601f8201168201806040525061120e9190810190613c0a565b61122a5760405162461bcd60e51b8152600401610eee906141ca565b6001600160a01b0383166000908152600960205260409020548061124e575061135e565b600061125982610b9c565b602001516001600160601b0316905060145481101561127957505061135e565b600d54600083815260166020908152604080832084845282528083206017909252909120815480611328576000806112b18888612077565b6002870182905560018701819055600386015491935091506112d9908263ffffffff6120f116565b60038501556001808501546112f39163ffffffff6120f116565b6001850155604051889087907f14b098103235344975b17508c2391721cc9ac3f3fa2b56c7ff46f8480dfd074f90600090a350505b611338818863ffffffff6120f116565b8355600282015461134f908863ffffffff6120f116565b82600201819055505050505050505b505050565b60085481565b60185481565b6000611388601254600e546120f190919063ffffffff16565b905090565b610bcc813361210d565b60016020526000908152604090205460ff1681565b60006113b6613a2b565b506000828152600b602090815260408083208151808301909252546001600160a01b0381168252600160a01b900463ffffffff169181019190915290806113fc85612280565b9150915061140f8360200151838361233d565b5095945050505050565b6008546000903390620aae609061143790600163ffffffff6120f116565b6008819055925061144c83620f424083611e2a565b611454613a2b565b506040805180820182526001600160a01b03848116825263ffffffff84811660208085019182526000898152600b9091528590208451815492516001600160a01b031990931694169390931763ffffffff60a01b1916600160a01b919092160217905590517fcec6fc86ea644053f6edff1160dfe3fa5c61e7a5ef9f873f145bb03a0bd319e7906114ea908690869086906140e6565b60405180910390a16001600160a01b0385161561150b5761150b8486610e35565b505050919050565b600c6020526000908152604090205481565b6060600280548060200260200160405190810160405280929190818152602001828054801561157d57602002820191906000526020600020905b81546001600160a01b0316815260019091019060200180831161155f575b5050505050905090565b73ba7f8b5fb1b19c1211c5d49550fcd149177a5eaf90565b60135463ffffffff1681565b6115b36139ea565b600160005260046020526115e67fabd6e7cb50984ff9c2f3e18a2660c3353dadf4e3291deeb275dae2cd1e44fe05611c79565b905060008260018111156115f657fe5b1415610a65576000611606611587565b6001600160a01b0316636b6df5aa6040518163ffffffff1660e01b815260040160206040518083038186803b15801561163e57600080fd5b505afa158015611652573d6000803e3d6000fd5b505050506040513d601f19601f820116820180604052506116769190810190613ce3565b90506116a061169b83602001516001600160601b031683611afe90919063ffffffff16565b61237e565b6001600160601b03908116602084015260408301516116cb9161169b9184911663ffffffff611afe16565b6001600160601b0316604083015250919050565b601554640100000000900463ffffffff1681565b60006116fd613a2b565b506000838152600b602090815260408083208151808301909252546001600160a01b0381168252600160a01b900463ffffffff1691810191909152908061174386612280565b9150915060006117588460200151848461233d565b9150506117678787838561239d565b979650505050505050565b6003546001600160a01b031681565b6117896139ea565b6001600160a01b03831660009081526006602090815260408083208584529091529020610c1890611c79565b6117bd611cfd565b6001600160a01b0381166117db576117d66108306124b5565b610bcc565b600080546001600160a01b0319166001600160a01b0383169081178255604051909133917f8be0079c531659141344cd1fd0a4f28419497f9722a3daafe3b4186f6b6457e09190a350565b61182f336124d3565b1561184c5760405162461bcd60e51b8152600401610eee9061419a565b600d54600061186282600163ffffffff611afe16565b905061186c6139bb565b50600081815260176020908152604091829020825160a081018452815481526001820154928101839052600282015493810193909352600381015460608401526004015460808301526118c157505050610bcc565b6118c9613a0a565b50600084815260166020908152604080832085845282529182902082516060810184528154808252600183015493820193909352600290910154928101929092526119175750505050610bcc565b600085815260166020908152604080832086845290915281208181556001810182905560020181905561194a82846124d9565b905060008061195e8884866040015161254e565b9150915087877ff1116b309178aa62dcb6bf8c3b8bc2321724907c7ebf52192d14c8ce3aa9194c848460405161199592919061410e565b60405180910390a360006119af838363ffffffff6120f116565b60808701519091506119c7908263ffffffff6120f116565b608087018190526000888152601760209081526040909120600401919091558601516119fa90600163ffffffff611afe16565b602080880182815260008a8152601790925260409091206001019190915551611a6f576080860151865188917fb463d19ecf455be65365092cf8e1db6934a0334cf8cd532ddf9964d01f36b5b291611a58908263ffffffff611afe16565b604051611a6692919061410e565b60405180910390a25b505050505050505050565b3360009081526001602052604090205460ff16611a9d57611a9d6108303361265a565b565b606063b9588e4360e01b8383604051602401611abc92919061416e565b60408051601f198184030181529190526020810180516001600160e01b03166001600160e01b031990931692909217909152905092915050565b805160208201fd5b600082821115611b1757611b1761083060028585612675565b50900390565b606063614b800a60e01b8383604051602401611abc92919061410e565b478015610bcc57611b49610b4f565b6001600160a01b031663d0e30db0826040518263ffffffff1660e01b81526004016000604051808303818588803b158015611b8357600080fd5b505af1158015611b97573d6000803e3d6000fd5b505050505050565b6000611388601854611baf610b4f565b6001600160a01b03166370a08231306040518263ffffffff1660e01b8152600401611bda919061404d565b60206040518083038186803b158015611bf257600080fd5b505afa158015611c06573d6000803e3d6000fd5b505050506040513d601f19601f82011682018060405250611c2a9190810190613ce3565b9063ffffffff611afe16565b426000611c4161136f565b905081811115611c5857611c5861083082846126d0565b600d54600090611c6f90600163ffffffff6120f116565b600d555050600e55565b611c816139ea565b506040805160608101825282546001600160401b0381168083526001600160601b03600160401b830481166020850152600160a01b90920490911692820192909252600d549091811115611cf757611cd8816126ed565b6001600160401b0316825260408201516001600160601b031660208301525b50919050565b6000546001600160a01b03163314611a9d57600054611a9d906108309033906001600160a01b031661270c565b6001600160a01b038116611d4357611d43610830612729565b6001600160a01b03811660009081526001602052604090205460ff1615611d7057611d7061083082612747565b6001600160a01b0381166000818152600160208190526040808320805460ff19168317905560028054928301815583527f405787fa12a823e0f2b7631cc41b3ba8828b3321ca811111fa75cd3aa3bb5ace90910180546001600160a01b03191684179055513392917f3147867c59d17e8fa9d522465651d44aae0a9e38f902f3475b97e58072f0ed4c91a350565b6000818152600b60205260409020546001600160a01b0316338114610e3157610e316108303384612762565b620f424063ffffffff82161115611e4f57611e4a6108306000858461277f565b61135e565b8163ffffffff168163ffffffff16111561135e5761135e6108306001858461277f565b606063eb5108a260e01b82604051602401611e8d919061404d565b60408051601f198184030181529190526020810180516001600160e01b03166001600160e01b0319909316929092179091529050919050565b6001600160a01b03821660009081526001602052604090205460ff16611ef257611ef261083083611e72565b6002548110611f0d57611f0d6108308260028054905061279e565b816001600160a01b031660028281548110611f2457fe5b6000918252602090912001546001600160a01b031614611f6c57611f6c61083060028381548110611f5157fe5b6000918252602090912001546001600160a01b0316846127bb565b6001600160a01b0382166000908152600160205260409020805460ff19169055600280546000198101908110611f9e57fe5b600091825260209091200154600280546001600160a01b039092169183908110611fc457fe5b600091825260209091200180546001600160a01b0319166001600160a01b03929092169190911790556002805460001901906120009082613a42565b5060405133906001600160a01b038416907f1f32c1b084e2de0713b8fb16bd46bb9df710a3dbeae2f3ca93af46e016dcc6b090600090a35050565b606063b56d2df060e01b82604051602401611e8d919061404d565b80341415801561206557503415155b15610bcc57610bcc61083082346127d8565b6000828152600b60205260408120548190819061209d906001600160a01b031686611781565b602001516001600160601b031690506120bc848263ffffffff611afe16565b6013549093506120e7906120da9063ffffffff16620f4240866127f5565b829063ffffffff6120f116565b9150509250929050565b600082820183811015610c1857610c1861083060008686612675565b61211682612817565b6000612125838360008061239d565b6001600160a01b0383166000908152600660209081526040808320878452909152902090915061215490611c79565b6001600160a01b0383811660009081526006602090815260408083208884528252918290208451815492860151959093015167ffffffffffffffff199092166001600160401b039093169290921773ffffffffffffffffffffffff00000000000000001916600160401b6001600160601b039586160217909216600160a01b93909216929092021790558015612277576121ee838261288b565b6121f6610b4f565b6001600160a01b031663a9059cbb83836040518363ffffffff1660e01b815260040161222392919061409e565b602060405180830381600087803b15801561223d57600080fd5b505af1158015612251573d6000803e3d6000fd5b505050506040513d601f19601f820116820180604052506122759190810190613c0a565b505b61135e836128d3565b600080600061229b6001600d54611afe90919063ffffffff16565b90506122a5613a0a565b50600084815260166020908152604080832084845282528083208151606080820184528254825260018084015483870152600293840154838601528787526017865295849020845160a081018652815481529681015495870195909552918401549285019290925260038301549084015260049091015460808301529061232d9082906124d9565b9350806040015192505050915091565b6000808261234d57839150612376565b61236163ffffffff8616620f4240866128e0565b9150612373848363ffffffff611afe16565b90505b935093915050565b806001600160601b0381168114610a6557610a65610830600284612916565b600d546000906123ab6139ea565b506001600160a01b0385166000908152600660209081526040808320898452825291829020825160608101845290546001600160401b0381168083526001600160601b03600160401b8304811694840194909452600160a01b90910490921692810192909252821415612423576000925050506124ad565b61242f81838787612933565b8151909350600090612451906001600160401b0316600163ffffffff6120f116565b905061248961247c8984602001516001600160601b031685600001516001600160401b0316856129b0565b859063ffffffff6120f116565b93506124a761247c8984604001516001600160601b031684876129b0565b93505050505b949350505050565b604080518082019091526004815263734f6e1f60e11b602082015290565b3b151590565b81516000906124e757610c1b565b8151835160408401516020860151606086015160155461251d95949392919063ffffffff80821691640100000000900416612a2f565b608083015183519192506000916125399163ffffffff611afe16565b905081811015612547578091505b5092915050565b600080612559613a2b565b506000858152600b60209081526040918290208251808401909352546001600160a01b0381168352600160a01b900463ffffffff1690820181905261259f90868661233d565b90935091508215612636576125b2610b4f565b815160405163a9059cbb60e01b81526001600160a01b03929092169163a9059cbb916125e291879060040161409e565b602060405180830381600087803b1580156125fc57600080fd5b505af1158015612610573d6000803e3d6000fd5b505050506040513d601f19601f820116820180604052506126349190810190613c0a565b505b8115612651576126468683612af2565b612651868386612b33565b50935093915050565b606063b65a25b960e01b82604051602401611e8d919061404d565b606063e946c1bb60e01b8484846040516024016126949392919061412a565b60408051601f198184030181529190526020810180516001600160e01b03166001600160e01b03199093169290921790915290505b9392505050565b606063a6bcde4760e01b8383604051602401611abc92919061410e565b806001600160401b0381168114610a6557610a65610830600184612916565b6060631de45ad160e01b8383604051602401611abc92919061405b565b60408051808201909152600481526315d953f960e21b602082015290565b606063de16f1a060e01b82604051602401611e8d919061404d565b60606382ded78560e01b8383604051602401611abc92919061409e565b60606322df959760e01b84848460405160240161269493929190614153565b606063e9f8377160e01b8383604051602401611abc92919061410e565b606063140a84db60e01b8383604051602401611abc92919061405b565b60606331d7a50560e01b8383604051602401611abc92919061410e565b60006124ad8361280b868563ffffffff612c1c16565b9063ffffffff612c4d16565b600d5460009061282e90600163ffffffff611afe16565b9050612838613a0a565b50600082815260166020908152604080832084845282529182902082516060810184528154808252600183015493820193909352600290910154928101929092521561135e5761135e6108308484612c77565b6000828152600c60205260409020546128aa908263ffffffff611afe16565b6000838152600c60205260409020556018546128cc908263ffffffff611afe16565b6018555050565b610bcc8160006001612b33565b60006124ad8361280b6128fa82600163ffffffff611afe16565b61290a888763ffffffff612c1c16565b9063ffffffff6120f116565b606063c996af7b60e01b8383604051602401611abc929190614145565b6000821580612940575081155b1561294d575060006124ad565b600061296085600163ffffffff611afe16565b86516001600160401b0316101561297b578560400151612981565b85602001515b6001600160601b031690508061299b5760009150506124ad565b6129a68484836127f5565b9695505050505050565b60008315806129be57508183145b156129cb575060006124ad565b8183106129ea5760405162461bcd60e51b8152600401610eee906141ba565b6129f2613a66565b6129fc8685612c94565b9050612a06613a66565b612a108785612c94565b905061176781600001518260200151846000015185602001518a612db2565b600080612a3c8888612e3e565b90506000612a4a8787612e3e565b9050811580612a57575080155b15612a685750600091506117679050565b600081831315612a8157612a7c8284612e84565b612a8b565b612a8b8383612e84565b9050612ab4612aaf612a9c83612e97565b8863ffffffff168863ffffffff166132ec565b6132fb565b905081831315612acd57612ac88282612e84565b612ad7565b612ad78282613761565b9050612ae3818c613781565b9b9a5050505050505050505050565b6000828152600c6020526040902054612b11908263ffffffff6120f116565b6000838152600c60205260409020556018546128cc908263ffffffff6120f116565b600083815260106020526040902054600d5480821415612b5457505061135e565b612b5c613a66565b506000858152600f602090815260408083208584528252918290208251808401909352805483526001015490820152612b93613a66565b612b9c826137c3565b15612bd557612bb58260000151836020015188886137cc565b60208301819052818352612bc9919061382e565b60208301528152612be0565b602081018590528581525b6000878152600f602090815260408083208684528252808320845181559382015160019094019390935597815260109097529095205550505050565b600082612c2b57506000610c1b565b82820282848281612c3857fe5b0414610c1857610c1861083060018686612675565b600081612c6357612c6361083060038585612675565b6000828481612c6e57fe5b04949350505050565b6060635caa0b0560e01b8383604051602401611abc92919061410e565b612c9c613a66565b506000828152600f602090815260408083208484528252918290208251808401909352805483526001015490820152612cd4816137c3565b15612cde57610c1b565b6000612cf183600163ffffffff611afe16565b6000858152600f60209081526040808320848452825291829020825180840190935280548352600101549082015292509050612d2c826137c3565b15612d375750610c1b565b60008481526010602052604090205483811015612d94576000858152600f6020908152604080832084845282529182902082518084019093528054835260010154908201529250612d87836137c3565b15612d945750610c1b9050565b50506040805180820190915260008152600160208201529392505050565b600081612dc157506000612e35565b83612de157612dda8561280b848963ffffffff612c1c16565b9050612e35565b6000612e06612df6868863ffffffff612c1c16565b611c2a898763ffffffff612c1c16565b90506000612e1a828663ffffffff612c4d16565b9050612e308761280b868463ffffffff612c1c16565b925050505b95945050505050565b600080831215612e5657612e5661083060018561384b565b6000821215612e6d57612e6d61083060018461384b565b6126c9612e7e846001607f1b613873565b836138c6565b60006126c9612e7e846001607f1b613873565b60006001607f1b821315612eb357612eb361083060018461390d565b60008213612ec957612ec961083060008461390d565b6001607f1b821415612edd57506000610a65565b640733048c5a8213612ef9575060016101ff607c1b0319610a65565b60008060006a01c8464f761647600000008513612f3e57700fffffffffffffffffffffffffffffffff19909301926a01c8464f761647600000006001607f1b86020594505b6cf1aaddd7742e900000000000008513612f82577007ffffffffffffffffffffffffffffffff19909301926cf1aaddd7742e900000000000006001607f1b86020594505b6615fc21041027af603f1b8513612fc0577003ffffffffffffffffffffffffffffffff19909301926615fc21041027af603f1b6001607f1b86020594505b660960aadc109e7b60461b8513612ffe577001ffffffffffffffffffffffffffffffff1990930192660960aadc109e7b60461b6001607f1b86020594505b660454aaa8efe073604a1b851361303b576fffffffffffffffffffffffffffffffff1990930192660454aaa8efe073604a1b6001607f1b86020594505b6602f16ac6c59de7604c1b851361306f5760016001607f1b0319909301926602f16ac6c59de7604c1b6001607f1b86020594505b6609b4597e37cb05604b1b85136130ac576f3fffffffffffffffffffffffffffffff19909301926609b4597e37cb05604b1b6001607f1b86020594505b6618ebef9eac820b604a1b85136130e9576f1fffffffffffffffffffffffffffffff19909301926618ebef9eac820b604a1b6001607f1b86020594505b6f70f5a893b608861e1f58934f97aea57d8513613132576f0fffffffffffffffffffffffffffffff19909301926f70f5a893b608861e1f58934f97aea57d6001607f1b86020594505b60016001607f1b0319850192508291506001607f1b828002059050600160801b838103830205840193506001607f1b8183028161316b57fe5b059150600160811b836faaaaaaaaaaaaaaaaaaaaaaaaaaaaaaaa0383028161318f57fe5b05840193506001607f1b818302816131a357fe5b059150600360801b836f99999999999999999999999999999999038302816131c757fe5b05840193506001607f1b818302816131db57fe5b059150600160821b836f92492492492492492492492492492492038302816131ff57fe5b05840193506001607f1b8183028161321357fe5b059150600560801b836f8e38e38e38e38e38e38e38e38e38e38e0383028161323757fe5b05840193506001607f1b8183028161324b57fe5b059150600360811b836f8ba2e8ba2e8ba2e8ba2e8ba2e8ba2e8b0383028161326f57fe5b05840193506001607f1b8183028161328357fe5b059150600760801b836f89d89d89d89d89d89d89d89d89d89d89038302816132a757fe5b05840193506001607f1b818302816132bb57fe5b059150600160831b836f88888888888888888888888888888888038302816132df57fe5b0584019350505050919050565b60006124ad612e7e8585613873565b600060016101ff607c1b031982121561331657506000610a65565b8161332657506001607f1b610a65565b600082131561333d5761333d61083060018461390d565b6001607f1b6001607c1b83078080028290056710e1b3be415a0000810293909301929091818302059050806705a0913f6b1e000002830192506001607f1b8282028161338557fe5b05905080670168244fdac7800002830192506001607f1b828202816133a657fe5b05905080664807432bc1800002830192506001607f1b828202816133c657fe5b05905080660c0135dca0400002830192506001607f1b828202816133e657fe5b059050806601b707b1cdc00002830192506001607f1b8282028161340657fe5b059050806536e0f639b80002830192506001607f1b8282028161342557fe5b05905080650618fee9f80002830192506001607f1b8282028161344457fe5b05905080649c197dcc0002830192506001607f1b8282028161346257fe5b05905080640e30dce40002830192506001607f1b8282028161348057fe5b0590508064012ebd130002830192506001607f1b8282028161349e57fe5b059050806317499f0002830192506001607f1b828202816134bb57fe5b059050806301a9d48002830192506001607f1b828202816134d857fe5b05905080621c638002830192506001607f1b828202816134f457fe5b059050806201c63802830192506001607f1b8282028161351057fe5b05905080611ab802830192506001607f1b8282028161352b57fe5b0590508061017c02830192506001607f1b8282028161354657fe5b05905080601402830192506001607f1b8282028161356057fe5b600095909503946721c3677c82b400009190059384010582016001607f1b01929050600160841b8416156135b6577243cbaf42a000812488fc5c220ad7b97bf6e99e6cf1aaddd7742e56d32fb9f9974484020592505b600160831b8416156135eb577105d27a9f51c31b7c2f8038212a05747799916e0afe10820813d65dfe6a33c07f738f84020592505b600160821b84161561362057701b4c902e273a58678d6d3bfdb93db96d026f02582ab704279e8efd15e0265855c47a84020592505b600160811b841615613655577003b1cc971a9bb5b9867477440d6d1577506f1152aaa3bf81cb9fdb76eae12d02957184020592505b600160801b84161561368a5770015bf0a8b1457695355fb8ac404e7a79e36f2f16ac6c59de6f8d5d6f63c1482a7c8684020592505b6001607f1b8416156136be576fd3094c70f034de4b96ff7d5b6f99fcd86f4da2cbf1be5827f9eb3ad1aa9866ebb384020592505b6001607e1b8416156136f2576fa45af1e1f40c333b3de1db4dd55f29a76f63afbe7ab2082ba1a0ae5e4eb1b479dc84020592505b6001607d1b841615613726576f910b022db7ae67ce76b441c27035c6a16f70f5a893b608861e1f58934f97aea57d84020592505b6001607c1b84161561375a576f88415abbe9a76bead8d00cf112e4d4a86f783eafef1c0a8f3978c7f81824d62ebf84020592505b5050919050565b60006001607f1b6137728484613873565b8161377957fe5b059392505050565b6000808212156137995761379961083060018461384b565b60006137a58484613873565b9050600081136137b9576000915050610c1b565b607f1c9392505050565b60200151151590565b600080856137de575082905081613825565b836137ed575084905083613825565b613810613800858763ffffffff612c1c16565b61290a888663ffffffff612c1c16565b9150613822858463ffffffff612c1c16565b90505b94509492505050565b60008061384084846001607f1b613923565b915091509250929050565b606063bd79545f60e01b83600181111561386157fe5b83604051602401611abc9291906142b2565b6000821580613880575081155b1561388d57506000610c1b565b508181028183828161389b57fe5b051415806138b25750828282816138ae57fe5b0514155b15610c1b57610c1b61083060018585613991565b6000816138dc576138dc61083060028585613991565b600160ff1b831480156138f0575081600019145b156139045761390461083060038585613991565b81838161377957fe5b606063ed2f26a160e01b83600181111561386157fe5b6000808285118061393357508284115b1561398857600084861015613948578461394a565b855b905061395c818563ffffffff612c4d16565b905061396e868263ffffffff612c4d16565b9250613980858263ffffffff612c4d16565b915050612376565b50929391925050565b6060638c12dfe760e01b8460038111156139a757fe5b8484604051602401612694939291906142c0565b6040518060a0016040528060008152602001600081526020016000815260200160008152602001600081525090565b604080516060810182526000808252602082018190529181019190915290565b60405180606001604052806000815260200160008152602001600081525090565b604080518082019091526000808252602082015290565b81548183558181111561135e5760008381526020902061135e918101908301613a80565b604051806040016040528060008152602001600081525090565b6109da91905b80821115613a9a5760008155600101613a86565b5090565b8035610c1b81614410565b8051610c1b81614410565b8051610c1b81614424565b8035610c1b8161442d565b8035610c1b81614436565b600082601f830112613ae657600080fd5b8151613af9613af4826142f4565b6142ce565b91508082526020830160208301858383011115613b1557600080fd5b613b208382846143c6565b50505092915050565b8051610c1b8161442d565b8035610c1b81614443565b600060208284031215613b5157600080fd5b60006124ad8484613a9e565b600080600060608486031215613b7257600080fd5b6000613b7e8686613a9e565b9350506020613b8f86828701613a9e565b9250506040613ba086828701613abf565b9150509250925092565b60008060408385031215613bbd57600080fd5b6000613bc98585613a9e565b92505060206120e785828601613abf565b60008060408385031215613bed57600080fd5b6000613bf98585613a9e565b92505060206120e785828601613aca565b600060208284031215613c1c57600080fd5b60006124ad8484613ab4565b600060208284031215613c3a57600080fd5b60006124ad8484613abf565b60008060408385031215613c5957600080fd5b6000613c658585613abf565b92505060206120e785828601613a9e565b60008060408385031215613c8957600080fd5b6000613bc98585613abf565b60008060408385031215613ca857600080fd5b6000613cb48585613abf565b92505060206120e785828601613b34565b600060208284031215613cd757600080fd5b60006124ad8484613aca565b600060208284031215613cf557600080fd5b60006124ad8484613b29565b60008060008060008060c08789031215613d1a57600080fd5b6000613d268989613b29565b96505060208701516001600160401b03811115613d4257600080fd5b613d4e89828a01613ad5565b95505060408701516001600160401b03811115613d6a57600080fd5b613d7689828a01613ad5565b9450506060613d8789828a01613b29565b9350506080613d9889828a01613aa9565b92505060a0613da989828a01613aa9565b9150509295509295509295565b6000613dc28383613dca565b505060200190565b613dd38161432e565b82525050565b6000613de482614321565b613dee8185614325565b9350613df98361431b565b8060005b83811015613e27578151613e118882613db6565b9750613e1c8361431b565b925050600101613dfd565b509495945050505050565b613dd381614339565b613dd3816109da565b613dd38161438f565b613dd38161439a565b613dd3816143a5565b613dd3816143b0565b613dd3816143bb565b6000613e7e602d83614325565b7f4f4e4c595f504f4f4c5f4f574e45525f43414e5f4154544143485f524547495381526c151154915117d49097d413d3d3609a1b602082015260400192915050565b6000613ecd601e83614325565b7f43414c4c45525f49535f534d4152545f434f4e54524143545f4552524f520000815260200192915050565b6000613f06601983614325565b7f504f4f4c535f41525241595f544f4f5f4249475f4552524f5200000000000000815260200192915050565b6000613f3f601383614325565b7210d497d25395115495905317d2539590531251606a1b815260200192915050565b6000613f6e601483614325565b7315d1551217d514905394d1915497d1905253115160621b815260200192915050565b80516060830190613fa28482613e3b565b506020820151613fb56020850182613e3b565b506040820151613fc86040850182613e3b565b50505050565b80516040830190613fdf8482613dca565b506020820151613fc86020850182614029565b805160608301906140038482614032565b5060208201516140166020850182614044565b506040820151613fc86040850182614044565b613dd381614368565b613dd381614371565b613dd38161437d565b613dd381614383565b60208101610c1b8284613dca565b604081016140698285613dca565b6126c96020830184613dca565b606081016140848286613dca565b6140916020830185613dca565b6124ad6040830184613e3b565b604081016140ac8285613dca565b6126c96020830184613e3b565b602080825281016126c98184613dd9565b60208101610c1b8284613e32565b60208101610c1b8284613e3b565b606081016140f48286613e3b565b6141016020830185613dca565b6124ad6040830184614029565b604081016140ac8285613e3b565b60208101610c1b8284613e44565b606081016141388286613e4d565b6140916020830185613e3b565b604081016140ac8285613e56565b606081016141618286613e5f565b6141016020830185613e3b565b604081016140698285613e5f565b604081016140ac8285613e68565b60208082528101610a6281613e71565b60208082528101610a6281613ec0565b60208082528101610a6281613ef9565b60208082528101610a6281613f32565b60208082528101610a6281613f61565b60608101610c1b8284613f91565b60408101610c1b8284613fce565b60608101610c1b8284613ff2565b606081016141388286613e3b565b608081016142208287613e3b565b61422d6020830186613e3b565b61423a6040830185613e3b565b612e356060830184613e3b565b60a081016142558288613e3b565b6142626020830187613e3b565b61426f6040830186613e3b565b61427c6060830185613e3b565b6129a66080830184613e3b565b60208101610c1b8284614029565b604081016142a58285614029565b6126c96020830184614029565b604081016140ac828561403b565b60608101614138828661403b565b6040518181016001600160401b03811182821017156142ec57600080fd5b604052919050565b60006001600160401b0382111561430a57600080fd5b506020601f91909101601f19160190565b60200190565b5190565b90815260200190565b6000610a628261435c565b151590565b80610a65816143f2565b80610a65816143fc565b80610a6581614406565b6001600160a01b031690565b63ffffffff1690565b6001600160401b031690565b60ff1690565b6001600160601b031690565b6000610a628261432e565b6000610a628261433e565b6000610a6282614348565b6000610a6282614352565b6000610a62826109da565b60005b838110156143e15781810151838201526020016143c9565b83811115613fc85750506000910152565b60048110610bcc57fe5b60038110610bcc57fe5b60028110610bcc57fe5b6144198161432e565b8114610bcc57600080fd5b61441981614339565b614419816109da565b60028110610bcc57600080fd5b6144198161436856fea365627a7a723158202b9652ebd695ef5b133c268c3dbdbeef20e055db34890948ac4c9f1dce2b203e6c6578706572696d656e74616cf564736f6c63430005110040",
			"opcodes": "PUSH1 0x80 PUSH1 0x40 MSTORE PUSH1 0x0 DUP1 SLOAD PUSH1 0x1 PUSH1 0x1 PUSH1 0xA0 SHL SUB NOT AND CALLER OR SWAP1 SSTORE PUSH2 0x448F DUP1 PUSH2 0x25 PUSH1 0x0 CODECOPY PUSH1 0x0 RETURN INVALID PUSH1 0x80 PUSH1 0x40 MSTORE PUSH1 0x4 CALLDATASIZE LT PUSH2 0x272 JUMPI PUSH1 0x0 CALLDATALOAD PUSH1 0xE0 SHR DUP1 PUSH4 0x81666796 GT PUSH2 0x14F JUMPI DUP1 PUSH4 0xBE111AF4 GT PUSH2 0xC1 JUMPI DUP1 PUSH4 0xE8EEB3F8 GT PUSH2 0x7A JUMPI DUP1 PUSH4 0xE8EEB3F8 EQ PUSH2 0x750 JUMPI DUP1 PUSH4 0xE907F003 EQ PUSH2 0x765 JUMPI DUP1 PUSH4 0xEE99205C EQ PUSH2 0x785 JUMPI DUP1 PUSH4 0xF252B7A1 EQ PUSH2 0x79A JUMPI DUP1 PUSH4 0xF2FDE38B EQ PUSH2 0x7BA JUMPI DUP1 PUSH4 0xFF691B11 EQ PUSH2 0x7DA JUMPI PUSH2 0x272 JUMP JUMPDEST DUP1 PUSH4 0xBE111AF4 EQ PUSH2 0x6A4 JUMPI DUP1 PUSH4 0xC18C9141 EQ PUSH2 0x6C4 JUMPI DUP1 PUSH4 0xD39DE6E9 EQ PUSH2 0x6E4 JUMPI DUP1 PUSH4 0xE0822DB7 EQ PUSH2 0x706 JUMPI DUP1 PUSH4 0xE0EE036E EQ PUSH2 0x71B JUMPI DUP1 PUSH4 0xE804D0A4 EQ PUSH2 0x730 JUMPI PUSH2 0x272 JUMP JUMPDEST DUP1 PUSH4 0xA657E579 GT PUSH2 0x113 JUMPI DUP1 PUSH4 0xA657E579 EQ PUSH2 0x605 JUMPI DUP1 PUSH4 0xB0531524 EQ PUSH2 0x61A JUMPI DUP1 PUSH4 0xB2BAA33E EQ PUSH2 0x62F JUMPI DUP1 PUSH4 0xB510879F EQ PUSH2 0x644 JUMPI DUP1 PUSH4 0xB9181611 EQ PUSH2 0x664 JUMPI DUP1 PUSH4 0xBB7EF7E0 EQ PUSH2 0x684 JUMPI PUSH2 0x272 JUMP JUMPDEST DUP1 PUSH4 0x81666796 EQ PUSH2 0x586 JUMPI DUP1 PUSH4 0x8DA5CB5B EQ PUSH2 0x5A8 JUMPI DUP1 PUSH4 0x9AD26744 EQ PUSH2 0x5BD JUMPI DUP1 PUSH4 0xA26171E2 EQ PUSH2 0x5DD JUMPI DUP1 PUSH4 0xA3B4A327 EQ PUSH2 0x5F2 JUMPI PUSH2 0x272 JUMP JUMPDEST DUP1 PUSH4 0x46B97959 GT PUSH2 0x1E8 JUMPI DUP1 PUSH4 0x5D91121D GT PUSH2 0x1AC JUMPI DUP1 PUSH4 0x5D91121D EQ PUSH2 0x4DC JUMPI DUP1 PUSH4 0x5E30DEFF EQ PUSH2 0x4FC JUMPI DUP1 PUSH4 0x63403801 EQ PUSH2 0x51C JUMPI DUP1 PUSH4 0x70712939 EQ PUSH2 0x531 JUMPI DUP1 PUSH4 0x734FC76B EQ PUSH2 0x551 JUMPI DUP1 PUSH4 0x76671808 EQ PUSH2 0x571 JUMPI PUSH2 0x272 JUMP JUMPDEST DUP1 PUSH4 0x46B97959 EQ PUSH2 0x420 JUMPI DUP1 PUSH4 0x494503D4 EQ PUSH2 0x44D JUMPI DUP1 PUSH4 0x4BCC3F67 EQ PUSH2 0x46D JUMPI DUP1 PUSH4 0x540C2D53 EQ PUSH2 0x49A JUMPI DUP1 PUSH4 0x587DA023 EQ PUSH2 0x4C7 JUMPI PUSH2 0x272 JUMP JUMPDEST DUP1 PUSH4 0x38229D93 GT PUSH2 0x23A JUMPI DUP1 PUSH4 0x38229D93 EQ PUSH2 0x333 JUMPI DUP1 PUSH4 0x3C277FC5 EQ PUSH2 0x364 JUMPI DUP1 PUSH4 0x3CB25D34 EQ PUSH2 0x386 JUMPI DUP1 PUSH4 0x3E4AD732 EQ PUSH2 0x3B3 JUMPI DUP1 PUSH4 0x42F1181E EQ PUSH2 0x3E0 JUMPI DUP1 PUSH4 0x44A6958B EQ PUSH2 0x400 JUMPI PUSH2 0x272 JUMP JUMPDEST DUP1 PUSH4 0x1E28D84 EQ PUSH2 0x277 JUMPI DUP1 PUSH4 0xB9663DB EQ PUSH2 0x299 JUMPI DUP1 PUSH4 0x1E7FF8F6 EQ PUSH2 0x2C4 JUMPI DUP1 PUSH4 0x1F81EB80 EQ PUSH2 0x2E4 JUMPI DUP1 PUSH4 0x2A94C279 EQ PUSH2 0x304 JUMPI JUMPDEST PUSH1 0x0 DUP1 REVERT JUMPDEST CALLVALUE DUP1 ISZERO PUSH2 0x283 JUMPI PUSH1 0x0 DUP1 REVERT JUMPDEST POP PUSH2 0x297 PUSH2 0x292 CALLDATASIZE PUSH1 0x4 PUSH2 0x3B3F JUMP JUMPDEST PUSH2 0x7FA JUMP JUMPDEST STOP JUMPDEST CALLVALUE DUP1 ISZERO PUSH2 0x2A5 JUMPI PUSH1 0x0 DUP1 REVERT JUMPDEST POP PUSH2 0x2AE PUSH2 0x890 JUMP JUMPDEST PUSH1 0x40 MLOAD PUSH2 0x2BB SWAP2 SWAP1 PUSH2 0x40D8 JUMP JUMPDEST PUSH1 0x40 MLOAD DUP1 SWAP2 SUB SWAP1 RETURN JUMPDEST CALLVALUE DUP1 ISZERO PUSH2 0x2D0 JUMPI PUSH1 0x0 DUP1 REVERT JUMPDEST POP PUSH2 0x2AE PUSH2 0x2DF CALLDATASIZE PUSH1 0x4 PUSH2 0x3B3F JUMP JUMPDEST PUSH2 0x9DD JUMP JUMPDEST CALLVALUE DUP1 ISZERO PUSH2 0x2F0 JUMPI PUSH1 0x0 DUP1 REVERT JUMPDEST POP PUSH2 0x297 PUSH2 0x2FF CALLDATASIZE PUSH1 0x4 PUSH2 0x3B3F JUMP JUMPDEST PUSH2 0xA6A JUMP JUMPDEST CALLVALUE DUP1 ISZERO PUSH2 0x310 JUMPI PUSH1 0x0 DUP1 REVERT JUMPDEST POP PUSH2 0x324 PUSH2 0x31F CALLDATASIZE PUSH1 0x4 PUSH2 0x3C76 JUMP JUMPDEST PUSH2 0xAF4 JUMP JUMPDEST PUSH1 0x40 MLOAD PUSH2 0x2BB SWAP4 SWAP3 SWAP2 SWAP1 PUSH2 0x4204 JUMP JUMPDEST CALLVALUE DUP1 ISZERO PUSH2 0x33F JUMPI PUSH1 0x0 DUP1 REVERT JUMPDEST POP PUSH2 0x353 PUSH2 0x34E CALLDATASIZE PUSH1 0x4 PUSH2 0x3C28 JUMP JUMPDEST PUSH2 0xB20 JUMP JUMPDEST PUSH1 0x40 MLOAD PUSH2 0x2BB SWAP6 SWAP5 SWAP4 SWAP3 SWAP2 SWAP1 PUSH2 0x4247 JUMP JUMPDEST CALLVALUE DUP1 ISZERO PUSH2 0x370 JUMPI PUSH1 0x0 DUP1 REVERT JUMPDEST POP PUSH2 0x379 PUSH2 0xB4F JUMP JUMPDEST PUSH1 0x40 MLOAD PUSH2 0x2BB SWAP2 SWAP1 PUSH2 0x411C JUMP JUMPDEST CALLVALUE DUP1 ISZERO PUSH2 0x392 JUMPI PUSH1 0x0 DUP1 REVERT JUMPDEST POP PUSH2 0x3A6 PUSH2 0x3A1 CALLDATASIZE PUSH1 0x4 PUSH2 0x3C76 JUMP JUMPDEST PUSH2 0xB67 JUMP JUMPDEST PUSH1 0x40 MLOAD PUSH2 0x2BB SWAP2 SWAP1 PUSH2 0x404D JUMP JUMPDEST CALLVALUE DUP1 ISZERO PUSH2 0x3BF JUMPI PUSH1 0x0 DUP1 REVERT JUMPDEST POP PUSH2 0x3D3 PUSH2 0x3CE CALLDATASIZE PUSH1 0x4 PUSH2 0x3C28 JUMP JUMPDEST PUSH2 0xB9C JUMP JUMPDEST PUSH1 0x40 MLOAD PUSH2 0x2BB SWAP2 SWAP1 PUSH2 0x41F6 JUMP JUMPDEST CALLVALUE DUP1 ISZERO PUSH2 0x3EC JUMPI PUSH1 0x0 DUP1 REVERT JUMPDEST POP PUSH2 0x297 PUSH2 0x3FB CALLDATASIZE PUSH1 0x4 PUSH2 0x3B3F JUMP JUMPDEST PUSH2 0xBBB JUMP JUMPDEST CALLVALUE DUP1 ISZERO PUSH2 0x40C JUMPI PUSH1 0x0 DUP1 REVERT JUMPDEST POP PUSH2 0x3D3 PUSH2 0x41B CALLDATASIZE PUSH1 0x4 PUSH2 0x3BDA JUMP JUMPDEST PUSH2 0xBCF JUMP JUMPDEST CALLVALUE DUP1 ISZERO PUSH2 0x42C JUMPI PUSH1 0x0 DUP1 REVERT JUMPDEST POP PUSH2 0x440 PUSH2 0x43B CALLDATASIZE PUSH1 0x4 PUSH2 0x3C28 JUMP JUMPDEST PUSH2 0xC21 JUMP JUMPDEST PUSH1 0x40 MLOAD PUSH2 0x2BB SWAP2 SWAP1 PUSH2 0x41DA JUMP JUMPDEST CALLVALUE DUP1 ISZERO PUSH2 0x459 JUMPI PUSH1 0x0 DUP1 REVERT JUMPDEST POP PUSH2 0x3A6 PUSH2 0x468 CALLDATASIZE PUSH1 0x4 PUSH2 0x3C28 JUMP JUMPDEST PUSH2 0xC6C JUMP JUMPDEST CALLVALUE DUP1 ISZERO PUSH2 0x479 JUMPI PUSH1 0x0 DUP1 REVERT JUMPDEST POP PUSH2 0x48D PUSH2 0x488 CALLDATASIZE PUSH1 0x4 PUSH2 0x3C28 JUMP JUMPDEST PUSH2 0xC93 JUMP JUMPDEST PUSH1 0x40 MLOAD PUSH2 0x2BB SWAP2 SWAP1 PUSH2 0x41E8 JUMP JUMPDEST CALLVALUE DUP1 ISZERO PUSH2 0x4A6 JUMPI PUSH1 0x0 DUP1 REVERT JUMPDEST POP PUSH2 0x4BA PUSH2 0x4B5 CALLDATASIZE PUSH1 0x4 PUSH2 0x3B3F JUMP JUMPDEST PUSH2 0xCD7 JUMP JUMPDEST PUSH1 0x40 MLOAD PUSH2 0x2BB SWAP2 SWAP1 PUSH2 0x40CA JUMP JUMPDEST CALLVALUE DUP1 ISZERO PUSH2 0x4D3 JUMPI PUSH1 0x0 DUP1 REVERT JUMPDEST POP PUSH2 0x2AE PUSH2 0xCEC JUMP JUMPDEST CALLVALUE DUP1 ISZERO PUSH2 0x4E8 JUMPI PUSH1 0x0 DUP1 REVERT JUMPDEST POP PUSH2 0x297 PUSH2 0x4F7 CALLDATASIZE PUSH1 0x4 PUSH2 0x3C95 JUMP JUMPDEST PUSH2 0xCF2 JUMP JUMPDEST CALLVALUE DUP1 ISZERO PUSH2 0x508 JUMPI PUSH1 0x0 DUP1 REVERT JUMPDEST POP PUSH2 0x2AE PUSH2 0x517 CALLDATASIZE PUSH1 0x4 PUSH2 0x3B3F JUMP JUMPDEST PUSH2 0xD8F JUMP JUMPDEST CALLVALUE DUP1 ISZERO PUSH2 0x528 JUMPI PUSH1 0x0 DUP1 REVERT JUMPDEST POP PUSH2 0x2AE PUSH2 0xDA1 JUMP JUMPDEST CALLVALUE DUP1 ISZERO PUSH2 0x53D JUMPI PUSH1 0x0 DUP1 REVERT JUMPDEST POP PUSH2 0x297 PUSH2 0x54C CALLDATASIZE PUSH1 0x4 PUSH2 0x3B3F JUMP JUMPDEST PUSH2 0xDA7 JUMP JUMPDEST CALLVALUE DUP1 ISZERO PUSH2 0x55D JUMPI PUSH1 0x0 DUP1 REVERT JUMPDEST POP PUSH2 0x297 PUSH2 0x56C CALLDATASIZE PUSH1 0x4 PUSH2 0x3C46 JUMP JUMPDEST PUSH2 0xE35 JUMP JUMPDEST CALLVALUE DUP1 ISZERO PUSH2 0x57D JUMPI PUSH1 0x0 DUP1 REVERT JUMPDEST POP PUSH2 0x2AE PUSH2 0x111B JUMP JUMPDEST CALLVALUE DUP1 ISZERO PUSH2 0x592 JUMPI PUSH1 0x0 DUP1 REVERT JUMPDEST POP PUSH2 0x59B PUSH2 0x1121 JUMP JUMPDEST PUSH1 0x40 MLOAD PUSH2 0x2BB SWAP2 SWAP1 PUSH2 0x4289 JUMP JUMPDEST CALLVALUE DUP1 ISZERO PUSH2 0x5B4 JUMPI PUSH1 0x0 DUP1 REVERT JUMPDEST POP PUSH2 0x3A6 PUSH2 0x112D JUMP JUMPDEST CALLVALUE DUP1 ISZERO PUSH2 0x5C9 JUMPI PUSH1 0x0 DUP1 REVERT JUMPDEST POP PUSH2 0x297 PUSH2 0x5D8 CALLDATASIZE PUSH1 0x4 PUSH2 0x3BAA JUMP JUMPDEST PUSH2 0x113C JUMP JUMPDEST CALLVALUE DUP1 ISZERO PUSH2 0x5E9 JUMPI PUSH1 0x0 DUP1 REVERT JUMPDEST POP PUSH2 0x2AE PUSH2 0x114E JUMP JUMPDEST PUSH2 0x297 PUSH2 0x600 CALLDATASIZE PUSH1 0x4 PUSH2 0x3B5D JUMP JUMPDEST PUSH2 0x1154 JUMP JUMPDEST CALLVALUE DUP1 ISZERO PUSH2 0x611 JUMPI PUSH1 0x0 DUP1 REVERT JUMPDEST POP PUSH2 0x2AE PUSH2 0x1363 JUMP JUMPDEST CALLVALUE DUP1 ISZERO PUSH2 0x626 JUMPI PUSH1 0x0 DUP1 REVERT JUMPDEST POP PUSH2 0x2AE PUSH2 0x1369 JUMP JUMPDEST CALLVALUE DUP1 ISZERO PUSH2 0x63B JUMPI PUSH1 0x0 DUP1 REVERT JUMPDEST POP PUSH2 0x2AE PUSH2 0x136F JUMP JUMPDEST CALLVALUE DUP1 ISZERO PUSH2 0x650 JUMPI PUSH1 0x0 DUP1 REVERT JUMPDEST POP PUSH2 0x297 PUSH2 0x65F CALLDATASIZE PUSH1 0x4 PUSH2 0x3C28 JUMP JUMPDEST PUSH2 0x138D JUMP JUMPDEST CALLVALUE DUP1 ISZERO PUSH2 0x670 JUMPI PUSH1 0x0 DUP1 REVERT JUMPDEST POP PUSH2 0x4BA PUSH2 0x67F CALLDATASIZE PUSH1 0x4 PUSH2 0x3B3F JUMP JUMPDEST PUSH2 0x1397 JUMP JUMPDEST CALLVALUE DUP1 ISZERO PUSH2 0x690 JUMPI PUSH1 0x0 DUP1 REVERT JUMPDEST POP PUSH2 0x2AE PUSH2 0x69F CALLDATASIZE PUSH1 0x4 PUSH2 0x3C28 JUMP JUMPDEST PUSH2 0x13AC JUMP JUMPDEST CALLVALUE DUP1 ISZERO PUSH2 0x6B0 JUMPI PUSH1 0x0 DUP1 REVERT JUMPDEST POP PUSH2 0x2AE PUSH2 0x6BF CALLDATASIZE PUSH1 0x4 PUSH2 0x3B3F JUMP JUMPDEST PUSH2 0x1419 JUMP JUMPDEST CALLVALUE DUP1 ISZERO PUSH2 0x6D0 JUMPI PUSH1 0x0 DUP1 REVERT JUMPDEST POP PUSH2 0x2AE PUSH2 0x6DF CALLDATASIZE PUSH1 0x4 PUSH2 0x3C28 JUMP JUMPDEST PUSH2 0x1513 JUMP JUMPDEST CALLVALUE DUP1 ISZERO PUSH2 0x6F0 JUMPI PUSH1 0x0 DUP1 REVERT JUMPDEST POP PUSH2 0x6F9 PUSH2 0x1525 JUMP JUMPDEST PUSH1 0x40 MLOAD PUSH2 0x2BB SWAP2 SWAP1 PUSH2 0x40B9 JUMP JUMPDEST CALLVALUE DUP1 ISZERO PUSH2 0x712 JUMPI PUSH1 0x0 DUP1 REVERT JUMPDEST POP PUSH2 0x379 PUSH2 0x1587 JUMP JUMPDEST CALLVALUE DUP1 ISZERO PUSH2 0x727 JUMPI PUSH1 0x0 DUP1 REVERT JUMPDEST POP PUSH2 0x59B PUSH2 0x159F JUMP JUMPDEST CALLVALUE DUP1 ISZERO PUSH2 0x73C JUMPI PUSH1 0x0 DUP1 REVERT JUMPDEST POP PUSH2 0x3D3 PUSH2 0x74B CALLDATASIZE PUSH1 0x4 PUSH2 0x3CC5 JUMP JUMPDEST PUSH2 0x15AB JUMP JUMPDEST CALLVALUE DUP1 ISZERO PUSH2 0x75C JUMPI PUSH1 0x0 DUP1 REVERT JUMPDEST POP PUSH2 0x59B PUSH2 0x16DF JUMP JUMPDEST CALLVALUE DUP1 ISZERO PUSH2 0x771 JUMPI PUSH1 0x0 DUP1 REVERT JUMPDEST POP PUSH2 0x2AE PUSH2 0x780 CALLDATASIZE PUSH1 0x4 PUSH2 0x3C46 JUMP JUMPDEST PUSH2 0x16F3 JUMP JUMPDEST CALLVALUE DUP1 ISZERO PUSH2 0x791 JUMPI PUSH1 0x0 DUP1 REVERT JUMPDEST POP PUSH2 0x3A6 PUSH2 0x1772 JUMP JUMPDEST CALLVALUE DUP1 ISZERO PUSH2 0x7A6 JUMPI PUSH1 0x0 DUP1 REVERT JUMPDEST POP PUSH2 0x3D3 PUSH2 0x7B5 CALLDATASIZE PUSH1 0x4 PUSH2 0x3BAA JUMP JUMPDEST PUSH2 0x1781 JUMP JUMPDEST CALLVALUE DUP1 ISZERO PUSH2 0x7C6 JUMPI PUSH1 0x0 DUP1 REVERT JUMPDEST POP PUSH2 0x297 PUSH2 0x7D5 CALLDATASIZE PUSH1 0x4 PUSH2 0x3B3F JUMP JUMPDEST PUSH2 0x17B5 JUMP JUMPDEST CALLVALUE DUP1 ISZERO PUSH2 0x7E6 JUMPI PUSH1 0x0 DUP1 REVERT JUMPDEST POP PUSH2 0x297 PUSH2 0x7F5 CALLDATASIZE PUSH1 0x4 PUSH2 0x3C28 JUMP JUMPDEST PUSH2 0x1826 JUMP JUMPDEST PUSH2 0x802 PUSH2 0x1A7A JUMP JUMPDEST PUSH1 0x1 PUSH1 0x1 PUSH1 0xA0 SHL SUB DUP2 AND PUSH1 0x0 SWAP1 DUP2 MSTORE PUSH1 0x11 PUSH1 0x20 MSTORE PUSH1 0x40 SWAP1 KECCAK256 SLOAD PUSH1 0xFF AND PUSH2 0x835 JUMPI PUSH2 0x835 PUSH2 0x830 PUSH1 0x1 DUP4 PUSH2 0x1A9F JUMP JUMPDEST PUSH2 0x1AF6 JUMP JUMPDEST PUSH1 0x1 PUSH1 0x1 PUSH1 0xA0 SHL SUB DUP2 AND PUSH1 0x0 SWAP1 DUP2 MSTORE PUSH1 0x11 PUSH1 0x20 MSTORE PUSH1 0x40 SWAP1 DUP2 SWAP1 KECCAK256 DUP1 SLOAD PUSH1 0xFF NOT AND SWAP1 SSTORE MLOAD PUSH32 0x9BF55462CB5FA187F725D06DE0A70BC01C4E40695570BDC25AD116F9BE46BDA7 SWAP1 PUSH2 0x885 SWAP1 DUP4 SWAP1 PUSH2 0x404D JUMP JUMPDEST PUSH1 0x40 MLOAD DUP1 SWAP2 SUB SWAP1 LOG1 POP JUMP JUMPDEST PUSH1 0xD SLOAD PUSH1 0x0 SWAP1 DUP2 PUSH2 0x8A8 DUP3 PUSH1 0x1 PUSH4 0xFFFFFFFF PUSH2 0x1AFE AND JUMP JUMPDEST PUSH1 0x0 DUP2 DUP2 MSTORE PUSH1 0x17 PUSH1 0x20 MSTORE PUSH1 0x40 SWAP1 KECCAK256 PUSH1 0x1 ADD SLOAD SWAP1 SWAP2 POP DUP1 ISZERO PUSH2 0x8D0 JUMPI PUSH2 0x8D0 PUSH2 0x830 DUP4 DUP4 PUSH2 0x1B1D JUMP JUMPDEST PUSH2 0x8D8 PUSH2 0x1B3A JUMP JUMPDEST PUSH2 0x8E0 PUSH2 0x1B9F JUMP JUMPDEST PUSH1 0x0 DUP5 DUP2 MSTORE PUSH1 0x17 PUSH1 0x20 MSTORE PUSH1 0x40 SWAP1 KECCAK256 SSTORE PUSH2 0x8F7 PUSH2 0x39BB JUMP JUMPDEST POP PUSH1 0x0 DUP4 DUP2 MSTORE PUSH1 0x17 PUSH1 0x20 SWAP1 DUP2 MSTORE PUSH1 0x40 SWAP2 DUP3 SWAP1 KECCAK256 DUP3 MLOAD PUSH1 0xA0 DUP2 ADD DUP5 MSTORE DUP2 SLOAD DUP1 DUP3 MSTORE PUSH1 0x1 DUP4 ADD SLOAD SWAP4 DUP3 ADD DUP5 SWAP1 MSTORE PUSH1 0x2 DUP4 ADD SLOAD DUP3 DUP7 ADD DUP2 SWAP1 MSTORE PUSH1 0x3 DUP5 ADD SLOAD PUSH1 0x60 DUP5 ADD DUP2 SWAP1 MSTORE PUSH1 0x4 SWAP1 SWAP5 ADD SLOAD PUSH1 0x80 DUP5 ADD MSTORE SWAP5 MLOAD SWAP2 SWAP5 DUP9 SWAP5 PUSH32 0xBB4A26FA0ACE13EE4DA343896C20EAA44A618FB9071FDD8C2E2C960A4583189D SWAP5 PUSH2 0x979 SWAP5 SWAP2 SWAP4 SWAP3 SWAP2 PUSH2 0x4212 JUMP JUMPDEST PUSH1 0x40 MLOAD DUP1 SWAP2 SUB SWAP1 LOG2 PUSH2 0x989 PUSH2 0x1C36 JUMP JUMPDEST PUSH1 0x20 DUP2 ADD MLOAD PUSH2 0x9D0 JUMPI DUP1 MLOAD PUSH1 0x40 MLOAD DUP6 SWAP2 PUSH32 0xB463D19ECF455BE65365092CF8E1DB6934A0334CF8CD532DDF9964D01F36B5B2 SWAP2 PUSH2 0x9C7 SWAP2 PUSH1 0x0 SWAP2 PUSH2 0x417C JUMP JUMPDEST PUSH1 0x40 MLOAD DUP1 SWAP2 SUB SWAP1 LOG2 JUMPDEST PUSH1 0x20 ADD MLOAD SWAP4 POP POP POP POP JUMPDEST SWAP1 JUMP JUMPDEST PUSH1 0x0 PUSH2 0x9E7 PUSH2 0x1587 JUMP JUMPDEST PUSH1 0x1 PUSH1 0x1 PUSH1 0xA0 SHL SUB AND PUSH4 0x70A08231 DUP4 PUSH1 0x40 MLOAD DUP3 PUSH4 0xFFFFFFFF AND PUSH1 0xE0 SHL DUP2 MSTORE PUSH1 0x4 ADD PUSH2 0xA12 SWAP2 SWAP1 PUSH2 0x404D JUMP JUMPDEST PUSH1 0x20 PUSH1 0x40 MLOAD DUP1 DUP4 SUB DUP2 DUP7 DUP1 EXTCODESIZE ISZERO DUP1 ISZERO PUSH2 0xA2A JUMPI PUSH1 0x0 DUP1 REVERT JUMPDEST POP GAS STATICCALL ISZERO DUP1 ISZERO PUSH2 0xA3E JUMPI RETURNDATASIZE PUSH1 0x0 DUP1 RETURNDATACOPY RETURNDATASIZE PUSH1 0x0 REVERT JUMPDEST POP POP POP POP PUSH1 0x40 MLOAD RETURNDATASIZE PUSH1 0x1F NOT PUSH1 0x1F DUP3 ADD AND DUP3 ADD DUP1 PUSH1 0x40 MSTORE POP PUSH2 0xA62 SWAP2 SWAP1 DUP2 ADD SWAP1 PUSH2 0x3CE3 JUMP JUMPDEST SWAP1 POP JUMPDEST SWAP2 SWAP1 POP JUMP JUMPDEST PUSH2 0xA72 PUSH2 0x1A7A JUMP JUMPDEST PUSH1 0x1 PUSH1 0x1 PUSH1 0xA0 SHL SUB DUP2 AND PUSH1 0x0 SWAP1 DUP2 MSTORE PUSH1 0x11 PUSH1 0x20 MSTORE PUSH1 0x40 SWAP1 KECCAK256 SLOAD PUSH1 0xFF AND ISZERO PUSH2 0xAA1 JUMPI PUSH2 0xAA1 PUSH2 0x830 PUSH1 0x0 DUP4 PUSH2 0x1A9F JUMP JUMPDEST PUSH1 0x1 PUSH1 0x1 PUSH1 0xA0 SHL SUB DUP2 AND PUSH1 0x0 SWAP1 DUP2 MSTORE PUSH1 0x11 PUSH1 0x20 MSTORE PUSH1 0x40 SWAP1 DUP2 SWAP1 KECCAK256 DUP1 SLOAD PUSH1 0xFF NOT AND PUSH1 0x1 OR SWAP1 SSTORE MLOAD PUSH32 0x5738EE3C8E8FE8B0B9C4C21B16FDCA42EC02E271237DFEABBF3B5AF1584D732B SWAP1 PUSH2 0x885 SWAP1 DUP4 SWAP1 PUSH2 0x404D JUMP JUMPDEST PUSH1 0x16 PUSH1 0x20 SWAP1 DUP2 MSTORE PUSH1 0x0 SWAP3 DUP4 MSTORE PUSH1 0x40 DUP1 DUP5 KECCAK256 SWAP1 SWAP2 MSTORE SWAP1 DUP3 MSTORE SWAP1 KECCAK256 DUP1 SLOAD PUSH1 0x1 DUP3 ADD SLOAD PUSH1 0x2 SWAP1 SWAP3 ADD SLOAD SWAP1 SWAP2 SWAP1 DUP4 JUMP JUMPDEST PUSH1 0x17 PUSH1 0x20 MSTORE PUSH1 0x0 SWAP1 DUP2 MSTORE PUSH1 0x40 SWAP1 KECCAK256 DUP1 SLOAD PUSH1 0x1 DUP3 ADD SLOAD PUSH1 0x2 DUP4 ADD SLOAD PUSH1 0x3 DUP5 ADD SLOAD PUSH1 0x4 SWAP1 SWAP5 ADD SLOAD SWAP3 SWAP4 SWAP2 SWAP3 SWAP1 SWAP2 SWAP1 DUP6 JUMP JUMPDEST PUSH20 0xC02AAA39B223FE8D0A0E5C4F27EAD9083C756CC2 SWAP1 JUMP JUMPDEST PUSH1 0xA PUSH1 0x20 MSTORE DUP2 PUSH1 0x0 MSTORE PUSH1 0x40 PUSH1 0x0 KECCAK256 DUP2 DUP2 SLOAD DUP2 LT PUSH2 0xB80 JUMPI INVALID JUMPDEST PUSH1 0x0 SWAP2 DUP3 MSTORE PUSH1 0x20 SWAP1 SWAP2 KECCAK256 ADD SLOAD PUSH1 0x1 PUSH1 0x1 PUSH1 0xA0 SHL SUB AND SWAP2 POP DUP3 SWAP1 POP JUMP JUMPDEST PUSH2 0xBA4 PUSH2 0x39EA JUMP JUMPDEST PUSH1 0x0 DUP3 DUP2 MSTORE PUSH1 0x7 PUSH1 0x20 MSTORE PUSH1 0x40 SWAP1 KECCAK256 PUSH2 0xA62 SWAP1 PUSH2 0x1C79 JUMP JUMPDEST PUSH2 0xBC3 PUSH2 0x1CFD JUMP JUMPDEST PUSH2 0xBCC DUP2 PUSH2 0x1D2A JUMP JUMPDEST POP JUMP JUMPDEST PUSH2 0xBD7 PUSH2 0x39EA JUMP JUMPDEST PUSH2 0xC18 PUSH1 0x5 PUSH1 0x0 DUP5 PUSH1 0x1 DUP2 GT ISZERO PUSH2 0xBEA JUMPI INVALID JUMPDEST PUSH1 0xFF AND DUP2 MSTORE PUSH1 0x20 DUP1 DUP3 ADD SWAP3 SWAP1 SWAP3 MSTORE PUSH1 0x40 SWAP1 DUP2 ADD PUSH1 0x0 SWAP1 DUP2 KECCAK256 PUSH1 0x1 PUSH1 0x1 PUSH1 0xA0 SHL SUB DUP9 AND DUP3 MSTORE SWAP1 SWAP3 MSTORE SWAP1 KECCAK256 PUSH2 0x1C79 JUMP JUMPDEST SWAP1 POP JUMPDEST SWAP3 SWAP2 POP POP JUMP JUMPDEST PUSH2 0xC29 PUSH2 0x3A0A JUMP JUMPDEST POP PUSH1 0x0 SWAP1 DUP2 MSTORE PUSH1 0x16 PUSH1 0x20 SWAP1 DUP2 MSTORE PUSH1 0x40 DUP1 DUP4 KECCAK256 PUSH1 0xD SLOAD DUP5 MSTORE DUP3 MSTORE SWAP2 DUP3 SWAP1 KECCAK256 DUP3 MLOAD PUSH1 0x60 DUP2 ADD DUP5 MSTORE DUP2 SLOAD DUP2 MSTORE PUSH1 0x1 DUP3 ADD SLOAD SWAP3 DUP2 ADD SWAP3 SWAP1 SWAP3 MSTORE PUSH1 0x2 ADD SLOAD SWAP2 DUP2 ADD SWAP2 SWAP1 SWAP2 MSTORE SWAP1 JUMP JUMPDEST PUSH1 0x2 DUP2 DUP2 SLOAD DUP2 LT PUSH2 0xC79 JUMPI INVALID JUMPDEST PUSH1 0x0 SWAP2 DUP3 MSTORE PUSH1 0x20 SWAP1 SWAP2 KECCAK256 ADD SLOAD PUSH1 0x1 PUSH1 0x1 PUSH1 0xA0 SHL SUB AND SWAP1 POP DUP2 JUMP JUMPDEST PUSH2 0xC9B PUSH2 0x3A2B JUMP JUMPDEST POP PUSH1 0x0 SWAP1 DUP2 MSTORE PUSH1 0xB PUSH1 0x20 SWAP1 DUP2 MSTORE PUSH1 0x40 SWAP2 DUP3 SWAP1 KECCAK256 DUP3 MLOAD DUP1 DUP5 ADD SWAP1 SWAP4 MSTORE SLOAD PUSH1 0x1 PUSH1 0x1 PUSH1 0xA0 SHL SUB DUP2 AND DUP4 MSTORE PUSH1 0x1 PUSH1 0xA0 SHL SWAP1 DIV PUSH4 0xFFFFFFFF AND SWAP1 DUP3 ADD MSTORE SWAP1 JUMP JUMPDEST PUSH1 0x11 PUSH1 0x20 MSTORE PUSH1 0x0 SWAP1 DUP2 MSTORE PUSH1 0x40 SWAP1 KECCAK256 SLOAD PUSH1 0xFF AND DUP2 JUMP JUMPDEST PUSH1 0xE SLOAD DUP2 JUMP JUMPDEST DUP2 PUSH2 0xCFC DUP2 PUSH2 0x1DFE JUMP JUMPDEST PUSH1 0x0 DUP4 DUP2 MSTORE PUSH1 0xB PUSH1 0x20 MSTORE PUSH1 0x40 SWAP1 KECCAK256 SLOAD PUSH1 0x1 PUSH1 0xA0 SHL SWAP1 DIV PUSH4 0xFFFFFFFF AND PUSH2 0xD23 DUP5 DUP3 DUP6 PUSH2 0x1E2A JUMP JUMPDEST PUSH1 0x0 DUP5 DUP2 MSTORE PUSH1 0xB PUSH1 0x20 MSTORE PUSH1 0x40 SWAP1 DUP2 SWAP1 KECCAK256 DUP1 SLOAD PUSH4 0xFFFFFFFF PUSH1 0xA0 SHL NOT AND PUSH1 0x1 PUSH1 0xA0 SHL PUSH4 0xFFFFFFFF DUP8 AND MUL OR SWAP1 SSTORE MLOAD DUP5 SWAP1 PUSH32 0x8EA2A7A959BD25F226B7B0A4393613F7FDCAA8404E8BAD96AA52DC1C14590167 SWAP1 PUSH2 0xD81 SWAP1 DUP5 SWAP1 DUP8 SWAP1 PUSH2 0x4297 JUMP JUMPDEST PUSH1 0x40 MLOAD DUP1 SWAP2 SUB SWAP1 LOG2 POP POP POP POP JUMP JUMPDEST PUSH1 0x9 PUSH1 0x20 MSTORE PUSH1 0x0 SWAP1 DUP2 MSTORE PUSH1 0x40 SWAP1 KECCAK256 SLOAD DUP2 JUMP JUMPDEST PUSH1 0x12 SLOAD DUP2 JUMP JUMPDEST PUSH2 0xDAF PUSH2 0x1CFD JUMP JUMPDEST PUSH1 0x1 PUSH1 0x1 PUSH1 0xA0 SHL SUB DUP2 AND PUSH1 0x0 SWAP1 DUP2 MSTORE PUSH1 0x1 PUSH1 0x20 MSTORE PUSH1 0x40 SWAP1 KECCAK256 SLOAD PUSH1 0xFF AND PUSH2 0xDDB JUMPI PUSH2 0xDDB PUSH2 0x830 DUP3 PUSH2 0x1E72 JUMP JUMPDEST PUSH1 0x0 JUMPDEST PUSH1 0x2 SLOAD DUP2 LT ISZERO PUSH2 0xE31 JUMPI DUP2 PUSH1 0x1 PUSH1 0x1 PUSH1 0xA0 SHL SUB AND PUSH1 0x2 DUP3 DUP2 SLOAD DUP2 LT PUSH2 0xDFF JUMPI INVALID JUMPDEST PUSH1 0x0 SWAP2 DUP3 MSTORE PUSH1 0x20 SWAP1 SWAP2 KECCAK256 ADD SLOAD PUSH1 0x1 PUSH1 0x1 PUSH1 0xA0 SHL SUB AND EQ ISZERO PUSH2 0xE29 JUMPI PUSH2 0xE24 DUP3 DUP3 PUSH2 0x1EC6 JUMP JUMPDEST PUSH2 0xE31 JUMP JUMPDEST PUSH1 0x1 ADD PUSH2 0xDDE JUMP JUMPDEST POP POP JUMP JUMPDEST PUSH1 0x40 MLOAD PUSH4 0xB72E717D PUSH1 0xE0 SHL DUP2 MSTORE PUSH1 0x0 SWAP1 DUP2 SWAP1 DUP2 SWAP1 PUSH4 0xB72E717D SWAP1 PUSH2 0xE5D SWAP1 DUP7 SWAP1 PUSH1 0x4 ADD PUSH2 0x404D JUMP JUMPDEST PUSH1 0x0 PUSH1 0x40 MLOAD DUP1 DUP4 SUB DUP2 DUP7 DUP1 EXTCODESIZE ISZERO DUP1 ISZERO PUSH2 0xE75 JUMPI PUSH1 0x0 DUP1 REVERT JUMPDEST POP GAS STATICCALL ISZERO DUP1 ISZERO PUSH2 0xE89 JUMPI RETURNDATASIZE PUSH1 0x0 DUP1 RETURNDATACOPY RETURNDATASIZE PUSH1 0x0 REVERT JUMPDEST POP POP POP POP PUSH1 0x40 MLOAD RETURNDATASIZE PUSH1 0x0 DUP3 RETURNDATACOPY PUSH1 0x1F RETURNDATASIZE SWAP1 DUP2 ADD PUSH1 0x1F NOT AND DUP3 ADD PUSH1 0x40 MSTORE PUSH2 0xEB1 SWAP2 SWAP1 DUP2 ADD SWAP1 PUSH2 0x3D01 JUMP JUMPDEST POP SWAP5 POP POP POP POP SWAP2 POP PUSH1 0x0 DUP3 EQ ISZERO DUP1 ISZERO PUSH2 0xED2 JUMPI POP PUSH1 0x1 PUSH1 0x1 PUSH1 0xA0 SHL SUB DUP2 AND CALLER EQ JUMPDEST PUSH2 0xEF7 JUMPI PUSH1 0x40 MLOAD PUSH3 0x461BCD PUSH1 0xE5 SHL DUP2 MSTORE PUSH1 0x4 ADD PUSH2 0xEEE SWAP1 PUSH2 0x418A JUMP JUMPDEST PUSH1 0x40 MLOAD DUP1 SWAP2 SUB SWAP1 REVERT JUMPDEST PUSH1 0x1 PUSH1 0x1 PUSH1 0xA0 SHL SUB DUP4 AND PUSH1 0x0 SWAP1 DUP2 MSTORE PUSH1 0x9 PUSH1 0x20 SWAP1 DUP2 MSTORE PUSH1 0x40 DUP1 DUP4 KECCAK256 SLOAD DUP1 DUP5 MSTORE PUSH1 0xA DUP4 MSTORE SWAP3 KECCAK256 SLOAD SWAP1 DUP2 LT PUSH2 0xF3C JUMPI PUSH1 0x40 MLOAD PUSH3 0x461BCD PUSH1 0xE5 SHL DUP2 MSTORE PUSH1 0x4 ADD PUSH2 0xEEE SWAP1 PUSH2 0x41AA JUMP JUMPDEST DUP2 ISZERO PUSH2 0x10A3 JUMPI PUSH1 0x1 PUSH1 0x1 PUSH1 0xA0 SHL SUB DUP6 AND PUSH1 0x0 SWAP1 DUP2 MSTORE PUSH1 0x9 PUSH1 0x20 SWAP1 DUP2 MSTORE PUSH1 0x40 DUP1 DUP4 KECCAK256 SLOAD DUP4 MSTORE PUSH1 0xA DUP3 MSTORE DUP1 DUP4 KECCAK256 DUP1 SLOAD DUP3 MLOAD DUP2 DUP6 MUL DUP2 ADD DUP6 ADD SWAP1 SWAP4 MSTORE DUP1 DUP4 MSTORE PUSH1 0x60 SWAP4 DUP4 ADD DUP3 DUP3 DUP1 ISZERO PUSH2 0xFB4 JUMPI PUSH1 0x20 MUL DUP3 ADD SWAP2 SWAP1 PUSH1 0x0 MSTORE PUSH1 0x20 PUSH1 0x0 KECCAK256 SWAP1 JUMPDEST DUP2 SLOAD PUSH1 0x1 PUSH1 0x1 PUSH1 0xA0 SHL SUB AND DUP2 MSTORE PUSH1 0x1 SWAP1 SWAP2 ADD SWAP1 PUSH1 0x20 ADD DUP1 DUP4 GT PUSH2 0xF96 JUMPI JUMPDEST POP SWAP4 SWAP5 POP PUSH1 0x0 SWAP4 POP POP POP POP JUMPDEST DUP4 DUP2 LT ISZERO PUSH2 0x1005 JUMPI DUP8 PUSH1 0x1 PUSH1 0x1 PUSH1 0xA0 SHL SUB AND DUP3 DUP3 DUP2 MLOAD DUP2 LT PUSH2 0xFDE JUMPI INVALID JUMPDEST PUSH1 0x20 MUL PUSH1 0x20 ADD ADD MLOAD PUSH1 0x1 PUSH1 0x1 PUSH1 0xA0 SHL SUB AND EQ PUSH2 0xFF9 JUMPI PUSH2 0xFFD JUMP JUMPDEST DUP1 SWAP3 POP JUMPDEST PUSH1 0x1 ADD PUSH2 0xFC0 JUMP JUMPDEST POP DUP1 PUSH1 0x1 DUP3 MLOAD SUB DUP2 MLOAD DUP2 LT PUSH2 0x1016 JUMPI INVALID JUMPDEST PUSH1 0x20 MUL PUSH1 0x20 ADD ADD MLOAD PUSH1 0xA PUSH1 0x0 DUP7 DUP2 MSTORE PUSH1 0x20 ADD SWAP1 DUP2 MSTORE PUSH1 0x20 ADD PUSH1 0x0 KECCAK256 DUP4 DUP2 SLOAD DUP2 LT PUSH2 0x103C JUMPI INVALID JUMPDEST PUSH1 0x0 SWAP2 DUP3 MSTORE PUSH1 0x20 DUP1 DUP4 KECCAK256 SWAP2 SWAP1 SWAP2 ADD DUP1 SLOAD PUSH1 0x1 PUSH1 0x1 PUSH1 0xA0 SHL SUB NOT AND PUSH1 0x1 PUSH1 0x1 PUSH1 0xA0 SHL SUB SWAP5 SWAP1 SWAP5 AND SWAP4 SWAP1 SWAP4 OR SWAP1 SWAP3 SSTORE DUP6 DUP2 MSTORE PUSH1 0xA SWAP1 SWAP2 MSTORE PUSH1 0x40 SWAP1 KECCAK256 DUP1 SLOAD DUP1 PUSH2 0x107E JUMPI INVALID JUMPDEST PUSH1 0x0 DUP3 DUP2 MSTORE PUSH1 0x20 SWAP1 KECCAK256 DUP2 ADD PUSH1 0x0 NOT SWAP1 DUP2 ADD DUP1 SLOAD PUSH1 0x1 PUSH1 0x1 PUSH1 0xA0 SHL SUB NOT AND SWAP1 SSTORE ADD SWAP1 SSTORE POP POP JUMPDEST PUSH1 0x1 PUSH1 0x1 PUSH1 0xA0 SHL SUB DUP6 AND PUSH1 0x0 DUP2 DUP2 MSTORE PUSH1 0x9 PUSH1 0x20 SWAP1 DUP2 MSTORE PUSH1 0x40 DUP1 DUP4 KECCAK256 DUP11 SWAP1 SSTORE DUP10 DUP4 MSTORE PUSH1 0xA DUP3 MSTORE DUP1 DUP4 KECCAK256 DUP1 SLOAD PUSH1 0x1 DUP2 ADD DUP3 SSTORE SWAP1 DUP5 MSTORE SWAP2 DUP4 KECCAK256 SWAP1 SWAP2 ADD DUP1 SLOAD PUSH1 0x1 PUSH1 0x1 PUSH1 0xA0 SHL SUB NOT AND DUP5 OR SWAP1 SSTORE MLOAD DUP9 SWAP3 SWAP2 PUSH32 0xE8B9F7EE7A4480D45B60E98F7B2090DD82E2353B8557A6EE2DD2D5EE9196BAC2 SWAP2 LOG3 POP POP POP POP POP POP JUMP JUMPDEST PUSH1 0xD SLOAD DUP2 JUMP JUMPDEST PUSH1 0x15 SLOAD PUSH4 0xFFFFFFFF AND DUP2 JUMP JUMPDEST PUSH1 0x0 SLOAD PUSH1 0x1 PUSH1 0x1 PUSH1 0xA0 SHL SUB AND DUP2 JUMP JUMPDEST PUSH2 0x1144 PUSH2 0x1CFD JUMP JUMPDEST PUSH2 0xE31 DUP3 DUP3 PUSH2 0x1EC6 JUMP JUMPDEST PUSH1 0x14 SLOAD DUP2 JUMP JUMPDEST CALLER PUSH1 0x0 SWAP1 DUP2 MSTORE PUSH1 0x11 PUSH1 0x20 MSTORE PUSH1 0x40 SWAP1 KECCAK256 SLOAD PUSH1 0xFF AND PUSH2 0x1177 JUMPI PUSH2 0x1177 PUSH2 0x830 CALLER PUSH2 0x203B JUMP JUMPDEST PUSH2 0x1180 DUP2 PUSH2 0x2056 JUMP JUMPDEST CALLVALUE PUSH2 0x122A JUMPI PUSH2 0x118D PUSH2 0xB4F JUMP JUMPDEST PUSH1 0x1 PUSH1 0x1 PUSH1 0xA0 SHL SUB AND PUSH4 0x23B872DD DUP4 ADDRESS DUP5 PUSH1 0x40 MLOAD DUP5 PUSH4 0xFFFFFFFF AND PUSH1 0xE0 SHL DUP2 MSTORE PUSH1 0x4 ADD PUSH2 0x11BC SWAP4 SWAP3 SWAP2 SWAP1 PUSH2 0x4076 JUMP JUMPDEST PUSH1 0x20 PUSH1 0x40 MLOAD DUP1 DUP4 SUB DUP2 PUSH1 0x0 DUP8 DUP1 EXTCODESIZE ISZERO DUP1 ISZERO PUSH2 0x11D6 JUMPI PUSH1 0x0 DUP1 REVERT JUMPDEST POP GAS CALL ISZERO DUP1 ISZERO PUSH2 0x11EA JUMPI RETURNDATASIZE PUSH1 0x0 DUP1 RETURNDATACOPY RETURNDATASIZE PUSH1 0x0 REVERT JUMPDEST POP POP POP POP PUSH1 0x40 MLOAD RETURNDATASIZE PUSH1 0x1F NOT PUSH1 0x1F DUP3 ADD AND DUP3 ADD DUP1 PUSH1 0x40 MSTORE POP PUSH2 0x120E SWAP2 SWAP1 DUP2 ADD SWAP1 PUSH2 0x3C0A JUMP JUMPDEST PUSH2 0x122A JUMPI PUSH1 0x40 MLOAD PUSH3 0x461BCD PUSH1 0xE5 SHL DUP2 MSTORE PUSH1 0x4 ADD PUSH2 0xEEE SWAP1 PUSH2 0x41CA JUMP JUMPDEST PUSH1 0x1 PUSH1 0x1 PUSH1 0xA0 SHL SUB DUP4 AND PUSH1 0x0 SWAP1 DUP2 MSTORE PUSH1 0x9 PUSH1 0x20 MSTORE PUSH1 0x40 SWAP1 KECCAK256 SLOAD DUP1 PUSH2 0x124E JUMPI POP PUSH2 0x135E JUMP JUMPDEST PUSH1 0x0 PUSH2 0x1259 DUP3 PUSH2 0xB9C JUMP JUMPDEST PUSH1 0x20 ADD MLOAD PUSH1 0x1 PUSH1 0x1 PUSH1 0x60 SHL SUB AND SWAP1 POP PUSH1 0x14 SLOAD DUP2 LT ISZERO PUSH2 0x1279 JUMPI POP POP PUSH2 0x135E JUMP JUMPDEST PUSH1 0xD SLOAD PUSH1 0x0 DUP4 DUP2 MSTORE PUSH1 0x16 PUSH1 0x20 SWAP1 DUP2 MSTORE PUSH1 0x40 DUP1 DUP4 KECCAK256 DUP5 DUP5 MSTORE DUP3 MSTORE DUP1 DUP4 KECCAK256 PUSH1 0x17 SWAP1 SWAP3 MSTORE SWAP1 SWAP2 KECCAK256 DUP2 SLOAD DUP1 PUSH2 0x1328 JUMPI PUSH1 0x0 DUP1 PUSH2 0x12B1 DUP9 DUP9 PUSH2 0x2077 JUMP JUMPDEST PUSH1 0x2 DUP8 ADD DUP3 SWAP1 SSTORE PUSH1 0x1 DUP8 ADD DUP2 SWAP1 SSTORE PUSH1 0x3 DUP7 ADD SLOAD SWAP2 SWAP4 POP SWAP2 POP PUSH2 0x12D9 SWAP1 DUP3 PUSH4 0xFFFFFFFF PUSH2 0x20F1 AND JUMP JUMPDEST PUSH1 0x3 DUP6 ADD SSTORE PUSH1 0x1 DUP1 DUP6 ADD SLOAD PUSH2 0x12F3 SWAP2 PUSH4 0xFFFFFFFF PUSH2 0x20F1 AND JUMP JUMPDEST PUSH1 0x1 DUP6 ADD SSTORE PUSH1 0x40 MLOAD DUP9 SWAP1 DUP8 SWAP1 PUSH32 0x14B098103235344975B17508C2391721CC9AC3F3FA2B56C7FF46F8480DFD074F SWAP1 PUSH1 0x0 SWAP1 LOG3 POP POP JUMPDEST PUSH2 0x1338 DUP2 DUP9 PUSH4 0xFFFFFFFF PUSH2 0x20F1 AND JUMP JUMPDEST DUP4 SSTORE PUSH1 0x2 DUP3 ADD SLOAD PUSH2 0x134F SWAP1 DUP9 PUSH4 0xFFFFFFFF PUSH2 0x20F1 AND JUMP JUMPDEST DUP3 PUSH1 0x2 ADD DUP2 SWAP1 SSTORE POP POP POP POP POP POP POP JUMPDEST POP POP POP JUMP JUMPDEST PUSH1 0x8 SLOAD DUP2 JUMP JUMPDEST PUSH1 0x18 SLOAD DUP2 JUMP JUMPDEST PUSH1 0x0 PUSH2 0x1388 PUSH1 0x12 SLOAD PUSH1 0xE SLOAD PUSH2 0x20F1 SWAP1 SWAP2 SWAP1 PUSH4 0xFFFFFFFF AND JUMP JUMPDEST SWAP1 POP SWAP1 JUMP JUMPDEST PUSH2 0xBCC DUP2 CALLER PUSH2 0x210D JUMP JUMPDEST PUSH1 0x1 PUSH1 0x20 MSTORE PUSH1 0x0 SWAP1 DUP2 MSTORE PUSH1 0x40 SWAP1 KECCAK256 SLOAD PUSH1 0xFF AND DUP2 JUMP JUMPDEST PUSH1 0x0 PUSH2 0x13B6 PUSH2 0x3A2B JUMP JUMPDEST POP PUSH1 0x0 DUP3 DUP2 MSTORE PUSH1 0xB PUSH1 0x20 SWAP1 DUP2 MSTORE PUSH1 0x40 DUP1 DUP4 KECCAK256 DUP2 MLOAD DUP1 DUP4 ADD SWAP1 SWAP3 MSTORE SLOAD PUSH1 0x1 PUSH1 0x1 PUSH1 0xA0 SHL SUB DUP2 AND DUP3 MSTORE PUSH1 0x1 PUSH1 0xA0 SHL SWAP1 DIV PUSH4 0xFFFFFFFF AND SWAP2 DUP2 ADD SWAP2 SWAP1 SWAP2 MSTORE SWAP1 DUP1 PUSH2 0x13FC DUP6 PUSH2 0x2280 JUMP JUMPDEST SWAP2 POP SWAP2 POP PUSH2 0x140F DUP4 PUSH1 0x20 ADD MLOAD DUP4 DUP4 PUSH2 0x233D JUMP JUMPDEST POP SWAP6 SWAP5 POP POP POP POP POP JUMP JUMPDEST PUSH1 0x8 SLOAD PUSH1 0x0 SWAP1 CALLER SWAP1 PUSH3 0xAAE60 SWAP1 PUSH2 0x1437 SWAP1 PUSH1 0x1 PUSH4 0xFFFFFFFF PUSH2 0x20F1 AND JUMP JUMPDEST PUSH1 0x8 DUP2 SWAP1 SSTORE SWAP3 POP PUSH2 0x144C DUP4 PUSH3 0xF4240 DUP4 PUSH2 0x1E2A JUMP JUMPDEST PUSH2 0x1454 PUSH2 0x3A2B JUMP JUMPDEST POP PUSH1 0x40 DUP1 MLOAD DUP1 DUP3 ADD DUP3 MSTORE PUSH1 0x1 PUSH1 0x1 PUSH1 0xA0 SHL SUB DUP5 DUP2 AND DUP3 MSTORE PUSH4 0xFFFFFFFF DUP5 DUP2 AND PUSH1 0x20 DUP1 DUP6 ADD SWAP2 DUP3 MSTORE PUSH1 0x0 DUP10 DUP2 MSTORE PUSH1 0xB SWAP1 SWAP2 MSTORE DUP6 SWAP1 KECCAK256 DUP5 MLOAD DUP2 SLOAD SWAP3 MLOAD PUSH1 0x1 PUSH1 0x1 PUSH1 0xA0 SHL SUB NOT SWAP1 SWAP4 AND SWAP5 AND SWAP4 SWAP1 SWAP4 OR PUSH4 0xFFFFFFFF PUSH1 0xA0 SHL NOT AND PUSH1 0x1 PUSH1 0xA0 SHL SWAP2 SWAP1 SWAP3 AND MUL OR SWAP1 SSTORE SWAP1 MLOAD PUSH32 0xCEC6FC86EA644053F6EDFF1160DFE3FA5C61E7A5EF9F873F145BB03A0BD319E7 SWAP1 PUSH2 0x14EA SWAP1 DUP7 SWAP1 DUP7 SWAP1 DUP7 SWAP1 PUSH2 0x40E6 JUMP JUMPDEST PUSH1 0x40 MLOAD DUP1 SWAP2 SUB SWAP1 LOG1 PUSH1 0x1 PUSH1 0x1 PUSH1 0xA0 SHL SUB DUP6 AND ISZERO PUSH2 0x150B JUMPI PUSH2 0x150B DUP5 DUP7 PUSH2 0xE35 JUMP JUMPDEST POP POP POP SWAP2 SWAP1 POP JUMP JUMPDEST PUSH1 0xC PUSH1 0x20 MSTORE PUSH1 0x0 SWAP1 DUP2 MSTORE PUSH1 0x40 SWAP1 KECCAK256 SLOAD DUP2 JUMP JUMPDEST PUSH1 0x60 PUSH1 0x2 DUP1 SLOAD DUP1 PUSH1 0x20 MUL PUSH1 0x20 ADD PUSH1 0x40 MLOAD SWAP1 DUP2 ADD PUSH1 0x40 MSTORE DUP1 SWAP3 SWAP2 SWAP1 DUP2 DUP2 MSTORE PUSH1 0x20 ADD DUP3 DUP1 SLOAD DUP1 ISZERO PUSH2 0x157D JUMPI PUSH1 0x20 MUL DUP3 ADD SWAP2 SWAP1 PUSH1 0x0 MSTORE PUSH1 0x20 PUSH1 0x0 KECCAK256 SWAP1 JUMPDEST DUP2 SLOAD PUSH1 0x1 PUSH1 0x1 PUSH1 0xA0 SHL SUB AND DUP2 MSTORE PUSH1 0x1 SWAP1 SWAP2 ADD SWAP1 PUSH1 0x20 ADD DUP1 DUP4 GT PUSH2 0x155F JUMPI JUMPDEST POP POP POP POP POP SWAP1 POP SWAP1 JUMP JUMPDEST PUSH20 0xBA7F8B5FB1B19C1211C5D49550FCD149177A5EAF SWAP1 JUMP JUMPDEST PUSH1 0x13 SLOAD PUSH4 0xFFFFFFFF AND DUP2 JUMP JUMPDEST PUSH2 0x15B3 PUSH2 0x39EA JUMP JUMPDEST PUSH1 0x1 PUSH1 0x0 MSTORE PUSH1 0x4 PUSH1 0x20 MSTORE PUSH2 0x15E6 PUSH32 0xABD6E7CB50984FF9C2F3E18A2660C3353DADF4E3291DEEB275DAE2CD1E44FE05 PUSH2 0x1C79 JUMP JUMPDEST SWAP1 POP PUSH1 0x0 DUP3 PUSH1 0x1 DUP2 GT ISZERO PUSH2 0x15F6 JUMPI INVALID JUMPDEST EQ ISZERO PUSH2 0xA65 JUMPI PUSH1 0x0 PUSH2 0x1606 PUSH2 0x1587 JUMP JUMPDEST PUSH1 0x1 PUSH1 0x1 PUSH1 0xA0 SHL SUB AND PUSH4 0x6B6DF5AA PUSH1 0x40 MLOAD DUP2 PUSH4 0xFFFFFFFF AND PUSH1 0xE0 SHL DUP2 MSTORE PUSH1 0x4 ADD PUSH1 0x20 PUSH1 0x40 MLOAD DUP1 DUP4 SUB DUP2 DUP7 DUP1 EXTCODESIZE ISZERO DUP1 ISZERO PUSH2 0x163E JUMPI PUSH1 0x0 DUP1 REVERT JUMPDEST POP GAS STATICCALL ISZERO DUP1 ISZERO PUSH2 0x1652 JUMPI RETURNDATASIZE PUSH1 0x0 DUP1 RETURNDATACOPY RETURNDATASIZE PUSH1 0x0 REVERT JUMPDEST POP POP POP POP PUSH1 0x40 MLOAD RETURNDATASIZE PUSH1 0x1F NOT PUSH1 0x1F DUP3 ADD AND DUP3 ADD DUP1 PUSH1 0x40 MSTORE POP PUSH2 0x1676 SWAP2 SWAP1 DUP2 ADD SWAP1 PUSH2 0x3CE3 JUMP JUMPDEST SWAP1 POP PUSH2 0x16A0 PUSH2 0x169B DUP4 PUSH1 0x20 ADD MLOAD PUSH1 0x1 PUSH1 0x1 PUSH1 0x60 SHL SUB AND DUP4 PUSH2 0x1AFE SWAP1 SWAP2 SWAP1 PUSH4 0xFFFFFFFF AND JUMP JUMPDEST PUSH2 0x237E JUMP JUMPDEST PUSH1 0x1 PUSH1 0x1 PUSH1 0x60 SHL SUB SWAP1 DUP2 AND PUSH1 0x20 DUP5 ADD MSTORE PUSH1 0x40 DUP4 ADD MLOAD PUSH2 0x16CB SWAP2 PUSH2 0x169B SWAP2 DUP5 SWAP2 AND PUSH4 0xFFFFFFFF PUSH2 0x1AFE AND JUMP JUMPDEST PUSH1 0x1 PUSH1 0x1 PUSH1 0x60 SHL SUB AND PUSH1 0x40 DUP4 ADD MSTORE POP SWAP2 SWAP1 POP JUMP JUMPDEST PUSH1 0x15 SLOAD PUSH5 0x100000000 SWAP1 DIV PUSH4 0xFFFFFFFF AND DUP2 JUMP JUMPDEST PUSH1 0x0 PUSH2 0x16FD PUSH2 0x3A2B JUMP JUMPDEST POP PUSH1 0x0 DUP4 DUP2 MSTORE PUSH1 0xB PUSH1 0x20 SWAP1 DUP2 MSTORE PUSH1 0x40 DUP1 DUP4 KECCAK256 DUP2 MLOAD DUP1 DUP4 ADD SWAP1 SWAP3 MSTORE SLOAD PUSH1 0x1 PUSH1 0x1 PUSH1 0xA0 SHL SUB DUP2 AND DUP3 MSTORE PUSH1 0x1 PUSH1 0xA0 SHL SWAP1 DIV PUSH4 0xFFFFFFFF AND SWAP2 DUP2 ADD SWAP2 SWAP1 SWAP2 MSTORE SWAP1 DUP1 PUSH2 0x1743 DUP7 PUSH2 0x2280 JUMP JUMPDEST SWAP2 POP SWAP2 POP PUSH1 0x0 PUSH2 0x1758 DUP5 PUSH1 0x20 ADD MLOAD DUP5 DUP5 PUSH2 0x233D JUMP JUMPDEST SWAP2 POP POP PUSH2 0x1767 DUP8 DUP8 DUP4 DUP6 PUSH2 0x239D JUMP JUMPDEST SWAP8 SWAP7 POP POP POP POP POP POP POP JUMP JUMPDEST PUSH1 0x3 SLOAD PUSH1 0x1 PUSH1 0x1 PUSH1 0xA0 SHL SUB AND DUP2 JUMP JUMPDEST PUSH2 0x1789 PUSH2 0x39EA JUMP JUMPDEST PUSH1 0x1 PUSH1 0x1 PUSH1 0xA0 SHL SUB DUP4 AND PUSH1 0x0 SWAP1 DUP2 MSTORE PUSH1 0x6 PUSH1 0x20 SWAP1 DUP2 MSTORE PUSH1 0x40 DUP1 DUP4 KECCAK256 DUP6 DUP5 MSTORE SWAP1 SWAP2 MSTORE SWAP1 KECCAK256 PUSH2 0xC18 SWAP1 PUSH2 0x1C79 JUMP JUMPDEST PUSH2 0x17BD PUSH2 0x1CFD JUMP JUMPDEST PUSH1 0x1 PUSH1 0x1 PUSH1 0xA0 SHL SUB DUP2 AND PUSH2 0x17DB JUMPI PUSH2 0x17D6 PUSH2 0x830 PUSH2 0x24B5 JUMP JUMPDEST PUSH2 0xBCC JUMP JUMPDEST PUSH1 0x0 DUP1 SLOAD PUSH1 0x1 PUSH1 0x1 PUSH1 0xA0 SHL SUB NOT AND PUSH1 0x1 PUSH1 0x1 PUSH1 0xA0 SHL SUB DUP4 AND SWAP1 DUP2 OR DUP3 SSTORE PUSH1 0x40 MLOAD SWAP1 SWAP2 CALLER SWAP2 PUSH32 0x8BE0079C531659141344CD1FD0A4F28419497F9722A3DAAFE3B4186F6B6457E0 SWAP2 SWAP1 LOG3 POP JUMP JUMPDEST PUSH2 0x182F CALLER PUSH2 0x24D3 JUMP JUMPDEST ISZERO PUSH2 0x184C JUMPI PUSH1 0x40 MLOAD PUSH3 0x461BCD PUSH1 0xE5 SHL DUP2 MSTORE PUSH1 0x4 ADD PUSH2 0xEEE SWAP1 PUSH2 0x419A JUMP JUMPDEST PUSH1 0xD SLOAD PUSH1 0x0 PUSH2 0x1862 DUP3 PUSH1 0x1 PUSH4 0xFFFFFFFF PUSH2 0x1AFE AND JUMP JUMPDEST SWAP1 POP PUSH2 0x186C PUSH2 0x39BB JUMP JUMPDEST POP PUSH1 0x0 DUP2 DUP2 MSTORE PUSH1 0x17 PUSH1 0x20 SWAP1 DUP2 MSTORE PUSH1 0x40 SWAP2 DUP3 SWAP1 KECCAK256 DUP3 MLOAD PUSH1 0xA0 DUP2 ADD DUP5 MSTORE DUP2 SLOAD DUP2 MSTORE PUSH1 0x1 DUP3 ADD SLOAD SWAP3 DUP2 ADD DUP4 SWAP1 MSTORE PUSH1 0x2 DUP3 ADD SLOAD SWAP4 DUP2 ADD SWAP4 SWAP1 SWAP4 MSTORE PUSH1 0x3 DUP2 ADD SLOAD PUSH1 0x60 DUP5 ADD MSTORE PUSH1 0x4 ADD SLOAD PUSH1 0x80 DUP4 ADD MSTORE PUSH2 0x18C1 JUMPI POP POP POP PUSH2 0xBCC JUMP JUMPDEST PUSH2 0x18C9 PUSH2 0x3A0A JUMP JUMPDEST POP PUSH1 0x0 DUP5 DUP2 MSTORE PUSH1 0x16 PUSH1 0x20 SWAP1 DUP2 MSTORE PUSH1 0x40 DUP1 DUP4 KECCAK256 DUP6 DUP5 MSTORE DUP3 MSTORE SWAP2 DUP3 SWAP1 KECCAK256 DUP3 MLOAD PUSH1 0x60 DUP2 ADD DUP5 MSTORE DUP2 SLOAD DUP1 DUP3 MSTORE PUSH1 0x1 DUP4 ADD SLOAD SWAP4 DUP3 ADD SWAP4 SWAP1 SWAP4 MSTORE PUSH1 0x2 SWAP1 SWAP2 ADD SLOAD SWAP3 DUP2 ADD SWAP3 SWAP1 SWAP3 MSTORE PUSH2 0x1917 JUMPI POP POP POP POP PUSH2 0xBCC JUMP JUMPDEST PUSH1 0x0 DUP6 DUP2 MSTORE PUSH1 0x16 PUSH1 0x20 SWAP1 DUP2 MSTORE PUSH1 0x40 DUP1 DUP4 KECCAK256 DUP7 DUP5 MSTORE SWAP1 SWAP2 MSTORE DUP2 KECCAK256 DUP2 DUP2 SSTORE PUSH1 0x1 DUP2 ADD DUP3 SWAP1 SSTORE PUSH1 0x2 ADD DUP2 SWAP1 SSTORE PUSH2 0x194A DUP3 DUP5 PUSH2 0x24D9 JUMP JUMPDEST SWAP1 POP PUSH1 0x0 DUP1 PUSH2 0x195E DUP9 DUP5 DUP7 PUSH1 0x40 ADD MLOAD PUSH2 0x254E JUMP JUMPDEST SWAP2 POP SWAP2 POP DUP8 DUP8 PUSH32 0xF1116B309178AA62DCB6BF8C3B8BC2321724907C7EBF52192D14C8CE3AA9194C DUP5 DUP5 PUSH1 0x40 MLOAD PUSH2 0x1995 SWAP3 SWAP2 SWAP1 PUSH2 0x410E JUMP JUMPDEST PUSH1 0x40 MLOAD DUP1 SWAP2 SUB SWAP1 LOG3 PUSH1 0x0 PUSH2 0x19AF DUP4 DUP4 PUSH4 0xFFFFFFFF PUSH2 0x20F1 AND JUMP JUMPDEST PUSH1 0x80 DUP8 ADD MLOAD SWAP1 SWAP2 POP PUSH2 0x19C7 SWAP1 DUP3 PUSH4 0xFFFFFFFF PUSH2 0x20F1 AND JUMP JUMPDEST PUSH1 0x80 DUP8 ADD DUP2 SWAP1 MSTORE PUSH1 0x0 DUP9 DUP2 MSTORE PUSH1 0x17 PUSH1 0x20 SWAP1 DUP2 MSTORE PUSH1 0x40 SWAP1 SWAP2 KECCAK256 PUSH1 0x4 ADD SWAP2 SWAP1 SWAP2 SSTORE DUP7 ADD MLOAD PUSH2 0x19FA SWAP1 PUSH1 0x1 PUSH4 0xFFFFFFFF PUSH2 0x1AFE AND JUMP JUMPDEST PUSH1 0x20 DUP1 DUP9 ADD DUP3 DUP2 MSTORE PUSH1 0x0 DUP11 DUP2 MSTORE PUSH1 0x17 SWAP1 SWAP3 MSTORE PUSH1 0x40 SWAP1 SWAP2 KECCAK256 PUSH1 0x1 ADD SWAP2 SWAP1 SWAP2 SSTORE MLOAD PUSH2 0x1A6F JUMPI PUSH1 0x80 DUP7 ADD MLOAD DUP7 MLOAD DUP9 SWAP2 PUSH32 0xB463D19ECF455BE65365092CF8E1DB6934A0334CF8CD532DDF9964D01F36B5B2 SWAP2 PUSH2 0x1A58 SWAP1 DUP3 PUSH4 0xFFFFFFFF PUSH2 0x1AFE AND JUMP JUMPDEST PUSH1 0x40 MLOAD PUSH2 0x1A66 SWAP3 SWAP2 SWAP1 PUSH2 0x410E JUMP JUMPDEST PUSH1 0x40 MLOAD DUP1 SWAP2 SUB SWAP1 LOG2 JUMPDEST POP POP POP POP POP POP POP POP POP JUMP JUMPDEST CALLER PUSH1 0x0 SWAP1 DUP2 MSTORE PUSH1 0x1 PUSH1 0x20 MSTORE PUSH1 0x40 SWAP1 KECCAK256 SLOAD PUSH1 0xFF AND PUSH2 0x1A9D JUMPI PUSH2 0x1A9D PUSH2 0x830 CALLER PUSH2 0x265A JUMP JUMPDEST JUMP JUMPDEST PUSH1 0x60 PUSH4 0xB9588E43 PUSH1 0xE0 SHL DUP4 DUP4 PUSH1 0x40 MLOAD PUSH1 0x24 ADD PUSH2 0x1ABC SWAP3 SWAP2 SWAP1 PUSH2 0x416E JUMP JUMPDEST PUSH1 0x40 DUP1 MLOAD PUSH1 0x1F NOT DUP2 DUP5 SUB ADD DUP2 MSTORE SWAP2 SWAP1 MSTORE PUSH1 0x20 DUP2 ADD DUP1 MLOAD PUSH1 0x1 PUSH1 0x1 PUSH1 0xE0 SHL SUB AND PUSH1 0x1 PUSH1 0x1 PUSH1 0xE0 SHL SUB NOT SWAP1 SWAP4 AND SWAP3 SWAP1 SWAP3 OR SWAP1 SWAP2 MSTORE SWAP1 POP SWAP3 SWAP2 POP POP JUMP JUMPDEST DUP1 MLOAD PUSH1 0x20 DUP3 ADD REVERT JUMPDEST PUSH1 0x0 DUP3 DUP3 GT ISZERO PUSH2 0x1B17 JUMPI PUSH2 0x1B17 PUSH2 0x830 PUSH1 0x2 DUP6 DUP6 PUSH2 0x2675 JUMP JUMPDEST POP SWAP1 SUB SWAP1 JUMP JUMPDEST PUSH1 0x60 PUSH4 0x614B800A PUSH1 0xE0 SHL DUP4 DUP4 PUSH1 0x40 MLOAD PUSH1 0x24 ADD PUSH2 0x1ABC SWAP3 SWAP2 SWAP1 PUSH2 0x410E JUMP JUMPDEST SELFBALANCE DUP1 ISZERO PUSH2 0xBCC JUMPI PUSH2 0x1B49 PUSH2 0xB4F JUMP JUMPDEST PUSH1 0x1 PUSH1 0x1 PUSH1 0xA0 SHL SUB AND PUSH4 0xD0E30DB0 DUP3 PUSH1 0x40 MLOAD DUP3 PUSH4 0xFFFFFFFF AND PUSH1 0xE0 SHL DUP2 MSTORE PUSH1 0x4 ADD PUSH1 0x0 PUSH1 0x40 MLOAD DUP1 DUP4 SUB DUP2 DUP6 DUP9 DUP1 EXTCODESIZE ISZERO DUP1 ISZERO PUSH2 0x1B83 JUMPI PUSH1 0x0 DUP1 REVERT JUMPDEST POP GAS CALL ISZERO DUP1 ISZERO PUSH2 0x1B97 JUMPI RETURNDATASIZE PUSH1 0x0 DUP1 RETURNDATACOPY RETURNDATASIZE PUSH1 0x0 REVERT JUMPDEST POP POP POP POP POP POP JUMP JUMPDEST PUSH1 0x0 PUSH2 0x1388 PUSH1 0x18 SLOAD PUSH2 0x1BAF PUSH2 0xB4F JUMP JUMPDEST PUSH1 0x1 PUSH1 0x1 PUSH1 0xA0 SHL SUB AND PUSH4 0x70A08231 ADDRESS PUSH1 0x40 MLOAD DUP3 PUSH4 0xFFFFFFFF AND PUSH1 0xE0 SHL DUP2 MSTORE PUSH1 0x4 ADD PUSH2 0x1BDA SWAP2 SWAP1 PUSH2 0x404D JUMP JUMPDEST PUSH1 0x20 PUSH1 0x40 MLOAD DUP1 DUP4 SUB DUP2 DUP7 DUP1 EXTCODESIZE ISZERO DUP1 ISZERO PUSH2 0x1BF2 JUMPI PUSH1 0x0 DUP1 REVERT JUMPDEST POP GAS STATICCALL ISZERO DUP1 ISZERO PUSH2 0x1C06 JUMPI RETURNDATASIZE PUSH1 0x0 DUP1 RETURNDATACOPY RETURNDATASIZE PUSH1 0x0 REVERT JUMPDEST POP POP POP POP PUSH1 0x40 MLOAD RETURNDATASIZE PUSH1 0x1F NOT PUSH1 0x1F DUP3 ADD AND DUP3 ADD DUP1 PUSH1 0x40 MSTORE POP PUSH2 0x1C2A SWAP2 SWAP1 DUP2 ADD SWAP1 PUSH2 0x3CE3 JUMP JUMPDEST SWAP1 PUSH4 0xFFFFFFFF PUSH2 0x1AFE AND JUMP JUMPDEST TIMESTAMP PUSH1 0x0 PUSH2 0x1C41 PUSH2 0x136F JUMP JUMPDEST SWAP1 POP DUP2 DUP2 GT ISZERO PUSH2 0x1C58 JUMPI PUSH2 0x1C58 PUSH2 0x830 DUP3 DUP5 PUSH2 0x26D0 JUMP JUMPDEST PUSH1 0xD SLOAD PUSH1 0x0 SWAP1 PUSH2 0x1C6F SWAP1 PUSH1 0x1 PUSH4 0xFFFFFFFF PUSH2 0x20F1 AND JUMP JUMPDEST PUSH1 0xD SSTORE POP POP PUSH1 0xE SSTORE JUMP JUMPDEST PUSH2 0x1C81 PUSH2 0x39EA JUMP JUMPDEST POP PUSH1 0x40 DUP1 MLOAD PUSH1 0x60 DUP2 ADD DUP3 MSTORE DUP3 SLOAD PUSH1 0x1 PUSH1 0x1 PUSH1 0x40 SHL SUB DUP2 AND DUP1 DUP4 MSTORE PUSH1 0x1 PUSH1 0x1 PUSH1 0x60 SHL SUB PUSH1 0x1 PUSH1 0x40 SHL DUP4 DIV DUP2 AND PUSH1 0x20 DUP6 ADD MSTORE PUSH1 0x1 PUSH1 0xA0 SHL SWAP1 SWAP3 DIV SWAP1 SWAP2 AND SWAP3 DUP3 ADD SWAP3 SWAP1 SWAP3 MSTORE PUSH1 0xD SLOAD SWAP1 SWAP2 DUP2 GT ISZERO PUSH2 0x1CF7 JUMPI PUSH2 0x1CD8 DUP2 PUSH2 0x26ED JUMP JUMPDEST PUSH1 0x1 PUSH1 0x1 PUSH1 0x40 SHL SUB AND DUP3 MSTORE PUSH1 0x40 DUP3 ADD MLOAD PUSH1 0x1 PUSH1 0x1 PUSH1 0x60 SHL SUB AND PUSH1 0x20 DUP4 ADD MSTORE JUMPDEST POP SWAP2 SWAP1 POP JUMP JUMPDEST PUSH1 0x0 SLOAD PUSH1 0x1 PUSH1 0x1 PUSH1 0xA0 SHL SUB AND CALLER EQ PUSH2 0x1A9D JUMPI PUSH1 0x0 SLOAD PUSH2 0x1A9D SWAP1 PUSH2 0x830 SWAP1 CALLER SWAP1 PUSH1 0x1 PUSH1 0x1 PUSH1 0xA0 SHL SUB AND PUSH2 0x270C JUMP JUMPDEST PUSH1 0x1 PUSH1 0x1 PUSH1 0xA0 SHL SUB DUP2 AND PUSH2 0x1D43 JUMPI PUSH2 0x1D43 PUSH2 0x830 PUSH2 0x2729 JUMP JUMPDEST PUSH1 0x1 PUSH1 0x1 PUSH1 0xA0 SHL SUB DUP2 AND PUSH1 0x0 SWAP1 DUP2 MSTORE PUSH1 0x1 PUSH1 0x20 MSTORE PUSH1 0x40 SWAP1 KECCAK256 SLOAD PUSH1 0xFF AND ISZERO PUSH2 0x1D70 JUMPI PUSH2 0x1D70 PUSH2 0x830 DUP3 PUSH2 0x2747 JUMP JUMPDEST PUSH1 0x1 PUSH1 0x1 PUSH1 0xA0 SHL SUB DUP2 AND PUSH1 0x0 DUP2 DUP2 MSTORE PUSH1 0x1 PUSH1 0x20 DUP2 SWAP1 MSTORE PUSH1 0x40 DUP1 DUP4 KECCAK256 DUP1 SLOAD PUSH1 0xFF NOT AND DUP4 OR SWAP1 SSTORE PUSH1 0x2 DUP1 SLOAD SWAP3 DUP4 ADD DUP2 SSTORE DUP4 MSTORE PUSH32 0x405787FA12A823E0F2B7631CC41B3BA8828B3321CA811111FA75CD3AA3BB5ACE SWAP1 SWAP2 ADD DUP1 SLOAD PUSH1 0x1 PUSH1 0x1 PUSH1 0xA0 SHL SUB NOT AND DUP5 OR SWAP1 SSTORE MLOAD CALLER SWAP3 SWAP2 PUSH32 0x3147867C59D17E8FA9D522465651D44AAE0A9E38F902F3475B97E58072F0ED4C SWAP2 LOG3 POP JUMP JUMPDEST PUSH1 0x0 DUP2 DUP2 MSTORE PUSH1 0xB PUSH1 0x20 MSTORE PUSH1 0x40 SWAP1 KECCAK256 SLOAD PUSH1 0x1 PUSH1 0x1 PUSH1 0xA0 SHL SUB AND CALLER DUP2 EQ PUSH2 0xE31 JUMPI PUSH2 0xE31 PUSH2 0x830 CALLER DUP5 PUSH2 0x2762 JUMP JUMPDEST PUSH3 0xF4240 PUSH4 0xFFFFFFFF DUP3 AND GT ISZERO PUSH2 0x1E4F JUMPI PUSH2 0x1E4A PUSH2 0x830 PUSH1 0x0 DUP6 DUP5 PUSH2 0x277F JUMP JUMPDEST PUSH2 0x135E JUMP JUMPDEST DUP2 PUSH4 0xFFFFFFFF AND DUP2 PUSH4 0xFFFFFFFF AND GT ISZERO PUSH2 0x135E JUMPI PUSH2 0x135E PUSH2 0x830 PUSH1 0x1 DUP6 DUP5 PUSH2 0x277F JUMP JUMPDEST PUSH1 0x60 PUSH4 0xEB5108A2 PUSH1 0xE0 SHL DUP3 PUSH1 0x40 MLOAD PUSH1 0x24 ADD PUSH2 0x1E8D SWAP2 SWAP1 PUSH2 0x404D JUMP JUMPDEST PUSH1 0x40 DUP1 MLOAD PUSH1 0x1F NOT DUP2 DUP5 SUB ADD DUP2 MSTORE SWAP2 SWAP1 MSTORE PUSH1 0x20 DUP2 ADD DUP1 MLOAD PUSH1 0x1 PUSH1 0x1 PUSH1 0xE0 SHL SUB AND PUSH1 0x1 PUSH1 0x1 PUSH1 0xE0 SHL SUB NOT SWAP1 SWAP4 AND SWAP3 SWAP1 SWAP3 OR SWAP1 SWAP2 MSTORE SWAP1 POP SWAP2 SWAP1 POP JUMP JUMPDEST PUSH1 0x1 PUSH1 0x1 PUSH1 0xA0 SHL SUB DUP3 AND PUSH1 0x0 SWAP1 DUP2 MSTORE PUSH1 0x1 PUSH1 0x20 MSTORE PUSH1 0x40 SWAP1 KECCAK256 SLOAD PUSH1 0xFF AND PUSH2 0x1EF2 JUMPI PUSH2 0x1EF2 PUSH2 0x830 DUP4 PUSH2 0x1E72 JUMP JUMPDEST PUSH1 0x2 SLOAD DUP2 LT PUSH2 0x1F0D JUMPI PUSH2 0x1F0D PUSH2 0x830 DUP3 PUSH1 0x2 DUP1 SLOAD SWAP1 POP PUSH2 0x279E JUMP JUMPDEST DUP2 PUSH1 0x1 PUSH1 0x1 PUSH1 0xA0 SHL SUB AND PUSH1 0x2 DUP3 DUP2 SLOAD DUP2 LT PUSH2 0x1F24 JUMPI INVALID JUMPDEST PUSH1 0x0 SWAP2 DUP3 MSTORE PUSH1 0x20 SWAP1 SWAP2 KECCAK256 ADD SLOAD PUSH1 0x1 PUSH1 0x1 PUSH1 0xA0 SHL SUB AND EQ PUSH2 0x1F6C JUMPI PUSH2 0x1F6C PUSH2 0x830 PUSH1 0x2 DUP4 DUP2 SLOAD DUP2 LT PUSH2 0x1F51 JUMPI INVALID JUMPDEST PUSH1 0x0 SWAP2 DUP3 MSTORE PUSH1 0x20 SWAP1 SWAP2 KECCAK256 ADD SLOAD PUSH1 0x1 PUSH1 0x1 PUSH1 0xA0 SHL SUB AND DUP5 PUSH2 0x27BB JUMP JUMPDEST PUSH1 0x1 PUSH1 0x1 PUSH1 0xA0 SHL SUB DUP3 AND PUSH1 0x0 SWAP1 DUP2 MSTORE PUSH1 0x1 PUSH1 0x20 MSTORE PUSH1 0x40 SWAP1 KECCAK256 DUP1 SLOAD PUSH1 0xFF NOT AND SWAP1 SSTORE PUSH1 0x2 DUP1 SLOAD PUSH1 0x0 NOT DUP2 ADD SWAP1 DUP2 LT PUSH2 0x1F9E JUMPI INVALID JUMPDEST PUSH1 0x0 SWAP2 DUP3 MSTORE PUSH1 0x20 SWAP1 SWAP2 KECCAK256 ADD SLOAD PUSH1 0x2 DUP1 SLOAD PUSH1 0x1 PUSH1 0x1 PUSH1 0xA0 SHL SUB SWAP1 SWAP3 AND SWAP2 DUP4 SWAP1 DUP2 LT PUSH2 0x1FC4 JUMPI INVALID JUMPDEST PUSH1 0x0 SWAP2 DUP3 MSTORE PUSH1 0x20 SWAP1 SWAP2 KECCAK256 ADD DUP1 SLOAD PUSH1 0x1 PUSH1 0x1 PUSH1 0xA0 SHL SUB NOT AND PUSH1 0x1 PUSH1 0x1 PUSH1 0xA0 SHL SUB SWAP3 SWAP1 SWAP3 AND SWAP2 SWAP1 SWAP2 OR SWAP1 SSTORE PUSH1 0x2 DUP1 SLOAD PUSH1 0x0 NOT ADD SWAP1 PUSH2 0x2000 SWAP1 DUP3 PUSH2 0x3A42 JUMP JUMPDEST POP PUSH1 0x40 MLOAD CALLER SWAP1 PUSH1 0x1 PUSH1 0x1 PUSH1 0xA0 SHL SUB DUP5 AND SWAP1 PUSH32 0x1F32C1B084E2DE0713B8FB16BD46BB9DF710A3DBEAE2F3CA93AF46E016DCC6B0 SWAP1 PUSH1 0x0 SWAP1 LOG3 POP POP JUMP JUMPDEST PUSH1 0x60 PUSH4 0xB56D2DF0 PUSH1 0xE0 SHL DUP3 PUSH1 0x40 MLOAD PUSH1 0x24 ADD PUSH2 0x1E8D SWAP2 SWAP1 PUSH2 0x404D JUMP JUMPDEST DUP1 CALLVALUE EQ ISZERO DUP1 ISZERO PUSH2 0x2065 JUMPI POP CALLVALUE ISZERO ISZERO JUMPDEST ISZERO PUSH2 0xBCC JUMPI PUSH2 0xBCC PUSH2 0x830 DUP3 CALLVALUE PUSH2 0x27D8 JUMP JUMPDEST PUSH1 0x0 DUP3 DUP2 MSTORE PUSH1 0xB PUSH1 0x20 MSTORE PUSH1 0x40 DUP2 KECCAK256 SLOAD DUP2 SWAP1 DUP2 SWAP1 PUSH2 0x209D SWAP1 PUSH1 0x1 PUSH1 0x1 PUSH1 0xA0 SHL SUB AND DUP7 PUSH2 0x1781 JUMP JUMPDEST PUSH1 0x20 ADD MLOAD PUSH1 0x1 PUSH1 0x1 PUSH1 0x60 SHL SUB AND SWAP1 POP PUSH2 0x20BC DUP5 DUP3 PUSH4 0xFFFFFFFF PUSH2 0x1AFE AND JUMP JUMPDEST PUSH1 0x13 SLOAD SWAP1 SWAP4 POP PUSH2 0x20E7 SWAP1 PUSH2 0x20DA SWAP1 PUSH4 0xFFFFFFFF AND PUSH3 0xF4240 DUP7 PUSH2 0x27F5 JUMP JUMPDEST DUP3 SWAP1 PUSH4 0xFFFFFFFF PUSH2 0x20F1 AND JUMP JUMPDEST SWAP2 POP POP SWAP3 POP SWAP3 SWAP1 POP JUMP JUMPDEST PUSH1 0x0 DUP3 DUP3 ADD DUP4 DUP2 LT ISZERO PUSH2 0xC18 JUMPI PUSH2 0xC18 PUSH2 0x830 PUSH1 0x0 DUP7 DUP7 PUSH2 0x2675 JUMP JUMPDEST PUSH2 0x2116 DUP3 PUSH2 0x2817 JUMP JUMPDEST PUSH1 0x0 PUSH2 0x2125 DUP4 DUP4 PUSH1 0x0 DUP1 PUSH2 0x239D JUMP JUMPDEST PUSH1 0x1 PUSH1 0x1 PUSH1 0xA0 SHL SUB DUP4 AND PUSH1 0x0 SWAP1 DUP2 MSTORE PUSH1 0x6 PUSH1 0x20 SWAP1 DUP2 MSTORE PUSH1 0x40 DUP1 DUP4 KECCAK256 DUP8 DUP5 MSTORE SWAP1 SWAP2 MSTORE SWAP1 KECCAK256 SWAP1 SWAP2 POP PUSH2 0x2154 SWAP1 PUSH2 0x1C79 JUMP JUMPDEST PUSH1 0x1 PUSH1 0x1 PUSH1 0xA0 SHL SUB DUP4 DUP2 AND PUSH1 0x0 SWAP1 DUP2 MSTORE PUSH1 0x6 PUSH1 0x20 SWAP1 DUP2 MSTORE PUSH1 0x40 DUP1 DUP4 KECCAK256 DUP9 DUP5 MSTORE DUP3 MSTORE SWAP2 DUP3 SWAP1 KECCAK256 DUP5 MLOAD DUP2 SLOAD SWAP3 DUP7 ADD MLOAD SWAP6 SWAP1 SWAP4 ADD MLOAD PUSH8 0xFFFFFFFFFFFFFFFF NOT SWAP1 SWAP3 AND PUSH1 0x1 PUSH1 0x1 PUSH1 0x40 SHL SUB SWAP1 SWAP4 AND SWAP3 SWAP1 SWAP3 OR PUSH20 0xFFFFFFFFFFFFFFFFFFFFFFFF0000000000000000 NOT AND PUSH1 0x1 PUSH1 0x40 SHL PUSH1 0x1 PUSH1 0x1 PUSH1 0x60 SHL SUB SWAP6 DUP7 AND MUL OR SWAP1 SWAP3 AND PUSH1 0x1 PUSH1 0xA0 SHL SWAP4 SWAP1 SWAP3 AND SWAP3 SWAP1 SWAP3 MUL OR SWAP1 SSTORE DUP1 ISZERO PUSH2 0x2277 JUMPI PUSH2 0x21EE DUP4 DUP3 PUSH2 0x288B JUMP JUMPDEST PUSH2 0x21F6 PUSH2 0xB4F JUMP JUMPDEST PUSH1 0x1 PUSH1 0x1 PUSH1 0xA0 SHL SUB AND PUSH4 0xA9059CBB DUP4 DUP4 PUSH1 0x40 MLOAD DUP4 PUSH4 0xFFFFFFFF AND PUSH1 0xE0 SHL DUP2 MSTORE PUSH1 0x4 ADD PUSH2 0x2223 SWAP3 SWAP2 SWAP1 PUSH2 0x409E JUMP JUMPDEST PUSH1 0x20 PUSH1 0x40 MLOAD DUP1 DUP4 SUB DUP2 PUSH1 0x0 DUP8 DUP1 EXTCODESIZE ISZERO DUP1 ISZERO PUSH2 0x223D JUMPI PUSH1 0x0 DUP1 REVERT JUMPDEST POP GAS CALL ISZERO DUP1 ISZERO PUSH2 0x2251 JUMPI RETURNDATASIZE PUSH1 0x0 DUP1 RETURNDATACOPY RETURNDATASIZE PUSH1 0x0 REVERT JUMPDEST POP POP POP POP PUSH1 0x40 MLOAD RETURNDATASIZE PUSH1 0x1F NOT PUSH1 0x1F DUP3 ADD AND DUP3 ADD DUP1 PUSH1 0x40 MSTORE POP PUSH2 0x2275 SWAP2 SWAP1 DUP2 ADD SWAP1 PUSH2 0x3C0A JUMP JUMPDEST POP JUMPDEST PUSH2 0x135E DUP4 PUSH2 0x28D3 JUMP JUMPDEST PUSH1 0x0 DUP1 PUSH1 0x0 PUSH2 0x229B PUSH1 0x1 PUSH1 0xD SLOAD PUSH2 0x1AFE SWAP1 SWAP2 SWAP1 PUSH4 0xFFFFFFFF AND JUMP JUMPDEST SWAP1 POP PUSH2 0x22A5 PUSH2 0x3A0A JUMP JUMPDEST POP PUSH1 0x0 DUP5 DUP2 MSTORE PUSH1 0x16 PUSH1 0x20 SWAP1 DUP2 MSTORE PUSH1 0x40 DUP1 DUP4 KECCAK256 DUP5 DUP5 MSTORE DUP3 MSTORE DUP1 DUP4 KECCAK256 DUP2 MLOAD PUSH1 0x60 DUP1 DUP3 ADD DUP5 MSTORE DUP3 SLOAD DUP3 MSTORE PUSH1 0x1 DUP1 DUP5 ADD SLOAD DUP4 DUP8 ADD MSTORE PUSH1 0x2 SWAP4 DUP5 ADD SLOAD DUP4 DUP7 ADD MSTORE DUP8 DUP8 MSTORE PUSH1 0x17 DUP7 MSTORE SWAP6 DUP5 SWAP1 KECCAK256 DUP5 MLOAD PUSH1 0xA0 DUP2 ADD DUP7 MSTORE DUP2 SLOAD DUP2 MSTORE SWAP7 DUP2 ADD SLOAD SWAP6 DUP8 ADD SWAP6 SWAP1 SWAP6 MSTORE SWAP2 DUP5 ADD SLOAD SWAP3 DUP6 ADD SWAP3 SWAP1 SWAP3 MSTORE PUSH1 0x3 DUP4 ADD SLOAD SWAP1 DUP5 ADD MSTORE PUSH1 0x4 SWAP1 SWAP2 ADD SLOAD PUSH1 0x80 DUP4 ADD MSTORE SWAP1 PUSH2 0x232D SWAP1 DUP3 SWAP1 PUSH2 0x24D9 JUMP JUMPDEST SWAP4 POP DUP1 PUSH1 0x40 ADD MLOAD SWAP3 POP POP POP SWAP2 POP SWAP2 JUMP JUMPDEST PUSH1 0x0 DUP1 DUP3 PUSH2 0x234D JUMPI DUP4 SWAP2 POP PUSH2 0x2376 JUMP JUMPDEST PUSH2 0x2361 PUSH4 0xFFFFFFFF DUP7 AND PUSH3 0xF4240 DUP7 PUSH2 0x28E0 JUMP JUMPDEST SWAP2 POP PUSH2 0x2373 DUP5 DUP4 PUSH4 0xFFFFFFFF PUSH2 0x1AFE AND JUMP JUMPDEST SWAP1 POP JUMPDEST SWAP4 POP SWAP4 SWAP2 POP POP JUMP JUMPDEST DUP1 PUSH1 0x1 PUSH1 0x1 PUSH1 0x60 SHL SUB DUP2 AND DUP2 EQ PUSH2 0xA65 JUMPI PUSH2 0xA65 PUSH2 0x830 PUSH1 0x2 DUP5 PUSH2 0x2916 JUMP JUMPDEST PUSH1 0xD SLOAD PUSH1 0x0 SWAP1 PUSH2 0x23AB PUSH2 0x39EA JUMP JUMPDEST POP PUSH1 0x1 PUSH1 0x1 PUSH1 0xA0 SHL SUB DUP6 AND PUSH1 0x0 SWAP1 DUP2 MSTORE PUSH1 0x6 PUSH1 0x20 SWAP1 DUP2 MSTORE PUSH1 0x40 DUP1 DUP4 KECCAK256 DUP10 DUP5 MSTORE DUP3 MSTORE SWAP2 DUP3 SWAP1 KECCAK256 DUP3 MLOAD PUSH1 0x60 DUP2 ADD DUP5 MSTORE SWAP1 SLOAD PUSH1 0x1 PUSH1 0x1 PUSH1 0x40 SHL SUB DUP2 AND DUP1 DUP4 MSTORE PUSH1 0x1 PUSH1 0x1 PUSH1 0x60 SHL SUB PUSH1 0x1 PUSH1 0x40 SHL DUP4 DIV DUP2 AND SWAP5 DUP5 ADD SWAP5 SWAP1 SWAP5 MSTORE PUSH1 0x1 PUSH1 0xA0 SHL SWAP1 SWAP2 DIV SWAP1 SWAP3 AND SWAP3 DUP2 ADD SWAP3 SWAP1 SWAP3 MSTORE DUP3 EQ ISZERO PUSH2 0x2423 JUMPI PUSH1 0x0 SWAP3 POP POP POP PUSH2 0x24AD JUMP JUMPDEST PUSH2 0x242F DUP2 DUP4 DUP8 DUP8 PUSH2 0x2933 JUMP JUMPDEST DUP2 MLOAD SWAP1 SWAP4 POP PUSH1 0x0 SWAP1 PUSH2 0x2451 SWAP1 PUSH1 0x1 PUSH1 0x1 PUSH1 0x40 SHL SUB AND PUSH1 0x1 PUSH4 0xFFFFFFFF PUSH2 0x20F1 AND JUMP JUMPDEST SWAP1 POP PUSH2 0x2489 PUSH2 0x247C DUP10 DUP5 PUSH1 0x20 ADD MLOAD PUSH1 0x1 PUSH1 0x1 PUSH1 0x60 SHL SUB AND DUP6 PUSH1 0x0 ADD MLOAD PUSH1 0x1 PUSH1 0x1 PUSH1 0x40 SHL SUB AND DUP6 PUSH2 0x29B0 JUMP JUMPDEST DUP6 SWAP1 PUSH4 0xFFFFFFFF PUSH2 0x20F1 AND JUMP JUMPDEST SWAP4 POP PUSH2 0x24A7 PUSH2 0x247C DUP10 DUP5 PUSH1 0x40 ADD MLOAD PUSH1 0x1 PUSH1 0x1 PUSH1 0x60 SHL SUB AND DUP5 DUP8 PUSH2 0x29B0 JUMP JUMPDEST SWAP4 POP POP POP POP JUMPDEST SWAP5 SWAP4 POP POP POP POP JUMP JUMPDEST PUSH1 0x40 DUP1 MLOAD DUP1 DUP3 ADD SWAP1 SWAP2 MSTORE PUSH1 0x4 DUP2 MSTORE PUSH4 0x734F6E1F PUSH1 0xE1 SHL PUSH1 0x20 DUP3 ADD MSTORE SWAP1 JUMP JUMPDEST EXTCODESIZE ISZERO ISZERO SWAP1 JUMP JUMPDEST DUP2 MLOAD PUSH1 0x0 SWAP1 PUSH2 0x24E7 JUMPI PUSH2 0xC1B JUMP JUMPDEST DUP2 MLOAD DUP4 MLOAD PUSH1 0x40 DUP5 ADD MLOAD PUSH1 0x20 DUP7 ADD MLOAD PUSH1 0x60 DUP7 ADD MLOAD PUSH1 0x15 SLOAD PUSH2 0x251D SWAP6 SWAP5 SWAP4 SWAP3 SWAP2 SWAP1 PUSH4 0xFFFFFFFF DUP1 DUP3 AND SWAP2 PUSH5 0x100000000 SWAP1 DIV AND PUSH2 0x2A2F JUMP JUMPDEST PUSH1 0x80 DUP4 ADD MLOAD DUP4 MLOAD SWAP2 SWAP3 POP PUSH1 0x0 SWAP2 PUSH2 0x2539 SWAP2 PUSH4 0xFFFFFFFF PUSH2 0x1AFE AND JUMP JUMPDEST SWAP1 POP DUP2 DUP2 LT ISZERO PUSH2 0x2547 JUMPI DUP1 SWAP2 POP JUMPDEST POP SWAP3 SWAP2 POP POP JUMP JUMPDEST PUSH1 0x0 DUP1 PUSH2 0x2559 PUSH2 0x3A2B JUMP JUMPDEST POP PUSH1 0x0 DUP6 DUP2 MSTORE PUSH1 0xB PUSH1 0x20 SWAP1 DUP2 MSTORE PUSH1 0x40 SWAP2 DUP3 SWAP1 KECCAK256 DUP3 MLOAD DUP1 DUP5 ADD SWAP1 SWAP4 MSTORE SLOAD PUSH1 0x1 PUSH1 0x1 PUSH1 0xA0 SHL SUB DUP2 AND DUP4 MSTORE PUSH1 0x1 PUSH1 0xA0 SHL SWAP1 DIV PUSH4 0xFFFFFFFF AND SWAP1 DUP3 ADD DUP2 SWAP1 MSTORE PUSH2 0x259F SWAP1 DUP7 DUP7 PUSH2 0x233D JUMP JUMPDEST SWAP1 SWAP4 POP SWAP2 POP DUP3 ISZERO PUSH2 0x2636 JUMPI PUSH2 0x25B2 PUSH2 0xB4F JUMP JUMPDEST DUP2 MLOAD PUSH1 0x40 MLOAD PUSH4 0xA9059CBB PUSH1 0xE0 SHL DUP2 MSTORE PUSH1 0x1 PUSH1 0x1 PUSH1 0xA0 SHL SUB SWAP3 SWAP1 SWAP3 AND SWAP2 PUSH4 0xA9059CBB SWAP2 PUSH2 0x25E2 SWAP2 DUP8 SWAP1 PUSH1 0x4 ADD PUSH2 0x409E JUMP JUMPDEST PUSH1 0x20 PUSH1 0x40 MLOAD DUP1 DUP4 SUB DUP2 PUSH1 0x0 DUP8 DUP1 EXTCODESIZE ISZERO DUP1 ISZERO PUSH2 0x25FC JUMPI PUSH1 0x0 DUP1 REVERT JUMPDEST POP GAS CALL ISZERO DUP1 ISZERO PUSH2 0x2610 JUMPI RETURNDATASIZE PUSH1 0x0 DUP1 RETURNDATACOPY RETURNDATASIZE PUSH1 0x0 REVERT JUMPDEST POP POP POP POP PUSH1 0x40 MLOAD RETURNDATASIZE PUSH1 0x1F NOT PUSH1 0x1F DUP3 ADD AND DUP3 ADD DUP1 PUSH1 0x40 MSTORE POP PUSH2 0x2634 SWAP2 SWAP1 DUP2 ADD SWAP1 PUSH2 0x3C0A JUMP JUMPDEST POP JUMPDEST DUP2 ISZERO PUSH2 0x2651 JUMPI PUSH2 0x2646 DUP7 DUP4 PUSH2 0x2AF2 JUMP JUMPDEST PUSH2 0x2651 DUP7 DUP4 DUP7 PUSH2 0x2B33 JUMP JUMPDEST POP SWAP4 POP SWAP4 SWAP2 POP POP JUMP JUMPDEST PUSH1 0x60 PUSH4 0xB65A25B9 PUSH1 0xE0 SHL DUP3 PUSH1 0x40 MLOAD PUSH1 0x24 ADD PUSH2 0x1E8D SWAP2 SWAP1 PUSH2 0x404D JUMP JUMPDEST PUSH1 0x60 PUSH4 0xE946C1BB PUSH1 0xE0 SHL DUP5 DUP5 DUP5 PUSH1 0x40 MLOAD PUSH1 0x24 ADD PUSH2 0x2694 SWAP4 SWAP3 SWAP2 SWAP1 PUSH2 0x412A JUMP JUMPDEST PUSH1 0x40 DUP1 MLOAD PUSH1 0x1F NOT DUP2 DUP5 SUB ADD DUP2 MSTORE SWAP2 SWAP1 MSTORE PUSH1 0x20 DUP2 ADD DUP1 MLOAD PUSH1 0x1 PUSH1 0x1 PUSH1 0xE0 SHL SUB AND PUSH1 0x1 PUSH1 0x1 PUSH1 0xE0 SHL SUB NOT SWAP1 SWAP4 AND SWAP3 SWAP1 SWAP3 OR SWAP1 SWAP2 MSTORE SWAP1 POP JUMPDEST SWAP4 SWAP3 POP POP POP JUMP JUMPDEST PUSH1 0x60 PUSH4 0xA6BCDE47 PUSH1 0xE0 SHL DUP4 DUP4 PUSH1 0x40 MLOAD PUSH1 0x24 ADD PUSH2 0x1ABC SWAP3 SWAP2 SWAP1 PUSH2 0x410E JUMP JUMPDEST DUP1 PUSH1 0x1 PUSH1 0x1 PUSH1 0x40 SHL SUB DUP2 AND DUP2 EQ PUSH2 0xA65 JUMPI PUSH2 0xA65 PUSH2 0x830 PUSH1 0x1 DUP5 PUSH2 0x2916 JUMP JUMPDEST PUSH1 0x60 PUSH4 0x1DE45AD1 PUSH1 0xE0 SHL DUP4 DUP4 PUSH1 0x40 MLOAD PUSH1 0x24 ADD PUSH2 0x1ABC SWAP3 SWAP2 SWAP1 PUSH2 0x405B JUMP JUMPDEST PUSH1 0x40 DUP1 MLOAD DUP1 DUP3 ADD SWAP1 SWAP2 MSTORE PUSH1 0x4 DUP2 MSTORE PUSH4 0x15D953F9 PUSH1 0xE2 SHL PUSH1 0x20 DUP3 ADD MSTORE SWAP1 JUMP JUMPDEST PUSH1 0x60 PUSH4 0xDE16F1A0 PUSH1 0xE0 SHL DUP3 PUSH1 0x40 MLOAD PUSH1 0x24 ADD PUSH2 0x1E8D SWAP2 SWAP1 PUSH2 0x404D JUMP JUMPDEST PUSH1 0x60 PUSH4 0x82DED785 PUSH1 0xE0 SHL DUP4 DUP4 PUSH1 0x40 MLOAD PUSH1 0x24 ADD PUSH2 0x1ABC SWAP3 SWAP2 SWAP1 PUSH2 0x409E JUMP JUMPDEST PUSH1 0x60 PUSH4 0x22DF9597 PUSH1 0xE0 SHL DUP5 DUP5 DUP5 PUSH1 0x40 MLOAD PUSH1 0x24 ADD PUSH2 0x2694 SWAP4 SWAP3 SWAP2 SWAP1 PUSH2 0x4153 JUMP JUMPDEST PUSH1 0x60 PUSH4 0xE9F83771 PUSH1 0xE0 SHL DUP4 DUP4 PUSH1 0x40 MLOAD PUSH1 0x24 ADD PUSH2 0x1ABC SWAP3 SWAP2 SWAP1 PUSH2 0x410E JUMP JUMPDEST PUSH1 0x60 PUSH4 0x140A84DB PUSH1 0xE0 SHL DUP4 DUP4 PUSH1 0x40 MLOAD PUSH1 0x24 ADD PUSH2 0x1ABC SWAP3 SWAP2 SWAP1 PUSH2 0x405B JUMP JUMPDEST PUSH1 0x60 PUSH4 0x31D7A505 PUSH1 0xE0 SHL DUP4 DUP4 PUSH1 0x40 MLOAD PUSH1 0x24 ADD PUSH2 0x1ABC SWAP3 SWAP2 SWAP1 PUSH2 0x410E JUMP JUMPDEST PUSH1 0x0 PUSH2 0x24AD DUP4 PUSH2 0x280B DUP7 DUP6 PUSH4 0xFFFFFFFF PUSH2 0x2C1C AND JUMP JUMPDEST SWAP1 PUSH4 0xFFFFFFFF PUSH2 0x2C4D AND JUMP JUMPDEST PUSH1 0xD SLOAD PUSH1 0x0 SWAP1 PUSH2 0x282E SWAP1 PUSH1 0x1 PUSH4 0xFFFFFFFF PUSH2 0x1AFE AND JUMP JUMPDEST SWAP1 POP PUSH2 0x2838 PUSH2 0x3A0A JUMP JUMPDEST POP PUSH1 0x0 DUP3 DUP2 MSTORE PUSH1 0x16 PUSH1 0x20 SWAP1 DUP2 MSTORE PUSH1 0x40 DUP1 DUP4 KECCAK256 DUP5 DUP5 MSTORE DUP3 MSTORE SWAP2 DUP3 SWAP1 KECCAK256 DUP3 MLOAD PUSH1 0x60 DUP2 ADD DUP5 MSTORE DUP2 SLOAD DUP1 DUP3 MSTORE PUSH1 0x1 DUP4 ADD SLOAD SWAP4 DUP3 ADD SWAP4 SWAP1 SWAP4 MSTORE PUSH1 0x2 SWAP1 SWAP2 ADD SLOAD SWAP3 DUP2 ADD SWAP3 SWAP1 SWAP3 MSTORE ISZERO PUSH2 0x135E JUMPI PUSH2 0x135E PUSH2 0x830 DUP5 DUP5 PUSH2 0x2C77 JUMP JUMPDEST PUSH1 0x0 DUP3 DUP2 MSTORE PUSH1 0xC PUSH1 0x20 MSTORE PUSH1 0x40 SWAP1 KECCAK256 SLOAD PUSH2 0x28AA SWAP1 DUP3 PUSH4 0xFFFFFFFF PUSH2 0x1AFE AND JUMP JUMPDEST PUSH1 0x0 DUP4 DUP2 MSTORE PUSH1 0xC PUSH1 0x20 MSTORE PUSH1 0x40 SWAP1 KECCAK256 SSTORE PUSH1 0x18 SLOAD PUSH2 0x28CC SWAP1 DUP3 PUSH4 0xFFFFFFFF PUSH2 0x1AFE AND JUMP JUMPDEST PUSH1 0x18 SSTORE POP POP JUMP JUMPDEST PUSH2 0xBCC DUP2 PUSH1 0x0 PUSH1 0x1 PUSH2 0x2B33 JUMP JUMPDEST PUSH1 0x0 PUSH2 0x24AD DUP4 PUSH2 0x280B PUSH2 0x28FA DUP3 PUSH1 0x1 PUSH4 0xFFFFFFFF PUSH2 0x1AFE AND JUMP JUMPDEST PUSH2 0x290A DUP9 DUP8 PUSH4 0xFFFFFFFF PUSH2 0x2C1C AND JUMP JUMPDEST SWAP1 PUSH4 0xFFFFFFFF PUSH2 0x20F1 AND JUMP JUMPDEST PUSH1 0x60 PUSH4 0xC996AF7B PUSH1 0xE0 SHL DUP4 DUP4 PUSH1 0x40 MLOAD PUSH1 0x24 ADD PUSH2 0x1ABC SWAP3 SWAP2 SWAP1 PUSH2 0x4145 JUMP JUMPDEST PUSH1 0x0 DUP3 ISZERO DUP1 PUSH2 0x2940 JUMPI POP DUP2 ISZERO JUMPDEST ISZERO PUSH2 0x294D JUMPI POP PUSH1 0x0 PUSH2 0x24AD JUMP JUMPDEST PUSH1 0x0 PUSH2 0x2960 DUP6 PUSH1 0x1 PUSH4 0xFFFFFFFF PUSH2 0x1AFE AND JUMP JUMPDEST DUP7 MLOAD PUSH1 0x1 PUSH1 0x1 PUSH1 0x40 SHL SUB AND LT ISZERO PUSH2 0x297B JUMPI DUP6 PUSH1 0x40 ADD MLOAD PUSH2 0x2981 JUMP JUMPDEST DUP6 PUSH1 0x20 ADD MLOAD JUMPDEST PUSH1 0x1 PUSH1 0x1 PUSH1 0x60 SHL SUB AND SWAP1 POP DUP1 PUSH2 0x299B JUMPI PUSH1 0x0 SWAP2 POP POP PUSH2 0x24AD JUMP JUMPDEST PUSH2 0x29A6 DUP5 DUP5 DUP4 PUSH2 0x27F5 JUMP JUMPDEST SWAP7 SWAP6 POP POP POP POP POP POP JUMP JUMPDEST PUSH1 0x0 DUP4 ISZERO DUP1 PUSH2 0x29BE JUMPI POP DUP2 DUP4 EQ JUMPDEST ISZERO PUSH2 0x29CB JUMPI POP PUSH1 0x0 PUSH2 0x24AD JUMP JUMPDEST DUP2 DUP4 LT PUSH2 0x29EA JUMPI PUSH1 0x40 MLOAD PUSH3 0x461BCD PUSH1 0xE5 SHL DUP2 MSTORE PUSH1 0x4 ADD PUSH2 0xEEE SWAP1 PUSH2 0x41BA JUMP JUMPDEST PUSH2 0x29F2 PUSH2 0x3A66 JUMP JUMPDEST PUSH2 0x29FC DUP7 DUP6 PUSH2 0x2C94 JUMP JUMPDEST SWAP1 POP PUSH2 0x2A06 PUSH2 0x3A66 JUMP JUMPDEST PUSH2 0x2A10 DUP8 DUP6 PUSH2 0x2C94 JUMP JUMPDEST SWAP1 POP PUSH2 0x1767 DUP2 PUSH1 0x0 ADD MLOAD DUP3 PUSH1 0x20 ADD MLOAD DUP5 PUSH1 0x0 ADD MLOAD DUP6 PUSH1 0x20 ADD MLOAD DUP11 PUSH2 0x2DB2 JUMP JUMPDEST PUSH1 0x0 DUP1 PUSH2 0x2A3C DUP9 DUP9 PUSH2 0x2E3E JUMP JUMPDEST SWAP1 POP PUSH1 0x0 PUSH2 0x2A4A DUP8 DUP8 PUSH2 0x2E3E JUMP JUMPDEST SWAP1 POP DUP2 ISZERO DUP1 PUSH2 0x2A57 JUMPI POP DUP1 ISZERO JUMPDEST ISZERO PUSH2 0x2A68 JUMPI POP PUSH1 0x0 SWAP2 POP PUSH2 0x1767 SWAP1 POP JUMP JUMPDEST PUSH1 0x0 DUP2 DUP4 SGT ISZERO PUSH2 0x2A81 JUMPI PUSH2 0x2A7C DUP3 DUP5 PUSH2 0x2E84 JUMP JUMPDEST PUSH2 0x2A8B JUMP JUMPDEST PUSH2 0x2A8B DUP4 DUP4 PUSH2 0x2E84 JUMP JUMPDEST SWAP1 POP PUSH2 0x2AB4 PUSH2 0x2AAF PUSH2 0x2A9C DUP4 PUSH2 0x2E97 JUMP JUMPDEST DUP9 PUSH4 0xFFFFFFFF AND DUP9 PUSH4 0xFFFFFFFF AND PUSH2 0x32EC JUMP JUMPDEST PUSH2 0x32FB JUMP JUMPDEST SWAP1 POP DUP2 DUP4 SGT ISZERO PUSH2 0x2ACD JUMPI PUSH2 0x2AC8 DUP3 DUP3 PUSH2 0x2E84 JUMP JUMPDEST PUSH2 0x2AD7 JUMP JUMPDEST PUSH2 0x2AD7 DUP3 DUP3 PUSH2 0x3761 JUMP JUMPDEST SWAP1 POP PUSH2 0x2AE3 DUP2 DUP13 PUSH2 0x3781 JUMP JUMPDEST SWAP12 SWAP11 POP POP POP POP POP POP POP POP POP POP POP JUMP JUMPDEST PUSH1 0x0 DUP3 DUP2 MSTORE PUSH1 0xC PUSH1 0x20 MSTORE PUSH1 0x40 SWAP1 KECCAK256 SLOAD PUSH2 0x2B11 SWAP1 DUP3 PUSH4 0xFFFFFFFF PUSH2 0x20F1 AND JUMP JUMPDEST PUSH1 0x0 DUP4 DUP2 MSTORE PUSH1 0xC PUSH1 0x20 MSTORE PUSH1 0x40 SWAP1 KECCAK256 SSTORE PUSH1 0x18 SLOAD PUSH2 0x28CC SWAP1 DUP3 PUSH4 0xFFFFFFFF PUSH2 0x20F1 AND JUMP JUMPDEST PUSH1 0x0 DUP4 DUP2 MSTORE PUSH1 0x10 PUSH1 0x20 MSTORE PUSH1 0x40 SWAP1 KECCAK256 SLOAD PUSH1 0xD SLOAD DUP1 DUP3 EQ ISZERO PUSH2 0x2B54 JUMPI POP POP PUSH2 0x135E JUMP JUMPDEST PUSH2 0x2B5C PUSH2 0x3A66 JUMP JUMPDEST POP PUSH1 0x0 DUP6 DUP2 MSTORE PUSH1 0xF PUSH1 0x20 SWAP1 DUP2 MSTORE PUSH1 0x40 DUP1 DUP4 KECCAK256 DUP6 DUP5 MSTORE DUP3 MSTORE SWAP2 DUP3 SWAP1 KECCAK256 DUP3 MLOAD DUP1 DUP5 ADD SWAP1 SWAP4 MSTORE DUP1 SLOAD DUP4 MSTORE PUSH1 0x1 ADD SLOAD SWAP1 DUP3 ADD MSTORE PUSH2 0x2B93 PUSH2 0x3A66 JUMP JUMPDEST PUSH2 0x2B9C DUP3 PUSH2 0x37C3 JUMP JUMPDEST ISZERO PUSH2 0x2BD5 JUMPI PUSH2 0x2BB5 DUP3 PUSH1 0x0 ADD MLOAD DUP4 PUSH1 0x20 ADD MLOAD DUP9 DUP9 PUSH2 0x37CC JUMP JUMPDEST PUSH1 0x20 DUP4 ADD DUP2 SWAP1 MSTORE DUP2 DUP4 MSTORE PUSH2 0x2BC9 SWAP2 SWAP1 PUSH2 0x382E JUMP JUMPDEST PUSH1 0x20 DUP4 ADD MSTORE DUP2 MSTORE PUSH2 0x2BE0 JUMP JUMPDEST PUSH1 0x20 DUP2 ADD DUP6 SWAP1 MSTORE DUP6 DUP2 MSTORE JUMPDEST PUSH1 0x0 DUP8 DUP2 MSTORE PUSH1 0xF PUSH1 0x20 SWAP1 DUP2 MSTORE PUSH1 0x40 DUP1 DUP4 KECCAK256 DUP7 DUP5 MSTORE DUP3 MSTORE DUP1 DUP4 KECCAK256 DUP5 MLOAD DUP2 SSTORE SWAP4 DUP3 ADD MLOAD PUSH1 0x1 SWAP1 SWAP5 ADD SWAP4 SWAP1 SWAP4 SSTORE SWAP8 DUP2 MSTORE PUSH1 0x10 SWAP1 SWAP8 MSTORE SWAP1 SWAP6 KECCAK256 SSTORE POP POP POP POP JUMP JUMPDEST PUSH1 0x0 DUP3 PUSH2 0x2C2B JUMPI POP PUSH1 0x0 PUSH2 0xC1B JUMP JUMPDEST DUP3 DUP3 MUL DUP3 DUP5 DUP3 DUP2 PUSH2 0x2C38 JUMPI INVALID JUMPDEST DIV EQ PUSH2 0xC18 JUMPI PUSH2 0xC18 PUSH2 0x830 PUSH1 0x1 DUP7 DUP7 PUSH2 0x2675 JUMP JUMPDEST PUSH1 0x0 DUP2 PUSH2 0x2C63 JUMPI PUSH2 0x2C63 PUSH2 0x830 PUSH1 0x3 DUP6 DUP6 PUSH2 0x2675 JUMP JUMPDEST PUSH1 0x0 DUP3 DUP5 DUP2 PUSH2 0x2C6E JUMPI INVALID JUMPDEST DIV SWAP5 SWAP4 POP POP POP POP JUMP JUMPDEST PUSH1 0x60 PUSH4 0x5CAA0B05 PUSH1 0xE0 SHL DUP4 DUP4 PUSH1 0x40 MLOAD PUSH1 0x24 ADD PUSH2 0x1ABC SWAP3 SWAP2 SWAP1 PUSH2 0x410E JUMP JUMPDEST PUSH2 0x2C9C PUSH2 0x3A66 JUMP JUMPDEST POP PUSH1 0x0 DUP3 DUP2 MSTORE PUSH1 0xF PUSH1 0x20 SWAP1 DUP2 MSTORE PUSH1 0x40 DUP1 DUP4 KECCAK256 DUP5 DUP5 MSTORE DUP3 MSTORE SWAP2 DUP3 SWAP1 KECCAK256 DUP3 MLOAD DUP1 DUP5 ADD SWAP1 SWAP4 MSTORE DUP1 SLOAD DUP4 MSTORE PUSH1 0x1 ADD SLOAD SWAP1 DUP3 ADD MSTORE PUSH2 0x2CD4 DUP2 PUSH2 0x37C3 JUMP JUMPDEST ISZERO PUSH2 0x2CDE JUMPI PUSH2 0xC1B JUMP JUMPDEST PUSH1 0x0 PUSH2 0x2CF1 DUP4 PUSH1 0x1 PUSH4 0xFFFFFFFF PUSH2 0x1AFE AND JUMP JUMPDEST PUSH1 0x0 DUP6 DUP2 MSTORE PUSH1 0xF PUSH1 0x20 SWAP1 DUP2 MSTORE PUSH1 0x40 DUP1 DUP4 KECCAK256 DUP5 DUP5 MSTORE DUP3 MSTORE SWAP2 DUP3 SWAP1 KECCAK256 DUP3 MLOAD DUP1 DUP5 ADD SWAP1 SWAP4 MSTORE DUP1 SLOAD DUP4 MSTORE PUSH1 0x1 ADD SLOAD SWAP1 DUP3 ADD MSTORE SWAP3 POP SWAP1 POP PUSH2 0x2D2C DUP3 PUSH2 0x37C3 JUMP JUMPDEST ISZERO PUSH2 0x2D37 JUMPI POP PUSH2 0xC1B JUMP JUMPDEST PUSH1 0x0 DUP5 DUP2 MSTORE PUSH1 0x10 PUSH1 0x20 MSTORE PUSH1 0x40 SWAP1 KECCAK256 SLOAD DUP4 DUP2 LT ISZERO PUSH2 0x2D94 JUMPI PUSH1 0x0 DUP6 DUP2 MSTORE PUSH1 0xF PUSH1 0x20 SWAP1 DUP2 MSTORE PUSH1 0x40 DUP1 DUP4 KECCAK256 DUP5 DUP5 MSTORE DUP3 MSTORE SWAP2 DUP3 SWAP1 KECCAK256 DUP3 MLOAD DUP1 DUP5 ADD SWAP1 SWAP4 MSTORE DUP1 SLOAD DUP4 MSTORE PUSH1 0x1 ADD SLOAD SWAP1 DUP3 ADD MSTORE SWAP3 POP PUSH2 0x2D87 DUP4 PUSH2 0x37C3 JUMP JUMPDEST ISZERO PUSH2 0x2D94 JUMPI POP PUSH2 0xC1B SWAP1 POP JUMP JUMPDEST POP POP PUSH1 0x40 DUP1 MLOAD DUP1 DUP3 ADD SWAP1 SWAP2 MSTORE PUSH1 0x0 DUP2 MSTORE PUSH1 0x1 PUSH1 0x20 DUP3 ADD MSTORE SWAP4 SWAP3 POP POP POP JUMP JUMPDEST PUSH1 0x0 DUP2 PUSH2 0x2DC1 JUMPI POP PUSH1 0x0 PUSH2 0x2E35 JUMP JUMPDEST DUP4 PUSH2 0x2DE1 JUMPI PUSH2 0x2DDA DUP6 PUSH2 0x280B DUP5 DUP10 PUSH4 0xFFFFFFFF PUSH2 0x2C1C AND JUMP JUMPDEST SWAP1 POP PUSH2 0x2E35 JUMP JUMPDEST PUSH1 0x0 PUSH2 0x2E06 PUSH2 0x2DF6 DUP7 DUP9 PUSH4 0xFFFFFFFF PUSH2 0x2C1C AND JUMP JUMPDEST PUSH2 0x1C2A DUP10 DUP8 PUSH4 0xFFFFFFFF PUSH2 0x2C1C AND JUMP JUMPDEST SWAP1 POP PUSH1 0x0 PUSH2 0x2E1A DUP3 DUP7 PUSH4 0xFFFFFFFF PUSH2 0x2C4D AND JUMP JUMPDEST SWAP1 POP PUSH2 0x2E30 DUP8 PUSH2 0x280B DUP7 DUP5 PUSH4 0xFFFFFFFF PUSH2 0x2C1C AND JUMP JUMPDEST SWAP3 POP POP POP JUMPDEST SWAP6 SWAP5 POP POP POP POP POP JUMP JUMPDEST PUSH1 0x0 DUP1 DUP4 SLT ISZERO PUSH2 0x2E56 JUMPI PUSH2 0x2E56 PUSH2 0x830 PUSH1 0x1 DUP6 PUSH2 0x384B JUMP JUMPDEST PUSH1 0x0 DUP3 SLT ISZERO PUSH2 0x2E6D JUMPI PUSH2 0x2E6D PUSH2 0x830 PUSH1 0x1 DUP5 PUSH2 0x384B JUMP JUMPDEST PUSH2 0x26C9 PUSH2 0x2E7E DUP5 PUSH1 0x1 PUSH1 0x7F SHL PUSH2 0x3873 JUMP JUMPDEST DUP4 PUSH2 0x38C6 JUMP JUMPDEST PUSH1 0x0 PUSH2 0x26C9 PUSH2 0x2E7E DUP5 PUSH1 0x1 PUSH1 0x7F SHL PUSH2 0x3873 JUMP JUMPDEST PUSH1 0x0 PUSH1 0x1 PUSH1 0x7F SHL DUP3 SGT ISZERO PUSH2 0x2EB3 JUMPI PUSH2 0x2EB3 PUSH2 0x830 PUSH1 0x1 DUP5 PUSH2 0x390D JUMP JUMPDEST PUSH1 0x0 DUP3 SGT PUSH2 0x2EC9 JUMPI PUSH2 0x2EC9 PUSH2 0x830 PUSH1 0x0 DUP5 PUSH2 0x390D JUMP JUMPDEST PUSH1 0x1 PUSH1 0x7F SHL DUP3 EQ ISZERO PUSH2 0x2EDD JUMPI POP PUSH1 0x0 PUSH2 0xA65 JUMP JUMPDEST PUSH5 0x733048C5A DUP3 SGT PUSH2 0x2EF9 JUMPI POP PUSH1 0x1 PUSH2 0x1FF PUSH1 0x7C SHL SUB NOT PUSH2 0xA65 JUMP JUMPDEST PUSH1 0x0 DUP1 PUSH1 0x0 PUSH11 0x1C8464F76164760000000 DUP6 SGT PUSH2 0x2F3E JUMPI PUSH17 0xFFFFFFFFFFFFFFFFFFFFFFFFFFFFFFFFF NOT SWAP1 SWAP4 ADD SWAP3 PUSH11 0x1C8464F76164760000000 PUSH1 0x1 PUSH1 0x7F SHL DUP7 MUL SDIV SWAP5 POP JUMPDEST PUSH13 0xF1AADDD7742E90000000000000 DUP6 SGT PUSH2 0x2F82 JUMPI PUSH17 0x7FFFFFFFFFFFFFFFFFFFFFFFFFFFFFFFF NOT SWAP1 SWAP4 ADD SWAP3 PUSH13 0xF1AADDD7742E90000000000000 PUSH1 0x1 PUSH1 0x7F SHL DUP7 MUL SDIV SWAP5 POP JUMPDEST PUSH7 0x15FC21041027AF PUSH1 0x3F SHL DUP6 SGT PUSH2 0x2FC0 JUMPI PUSH17 0x3FFFFFFFFFFFFFFFFFFFFFFFFFFFFFFFF NOT SWAP1 SWAP4 ADD SWAP3 PUSH7 0x15FC21041027AF PUSH1 0x3F SHL PUSH1 0x1 PUSH1 0x7F SHL DUP7 MUL SDIV SWAP5 POP JUMPDEST PUSH7 0x960AADC109E7B PUSH1 0x46 SHL DUP6 SGT PUSH2 0x2FFE JUMPI PUSH17 0x1FFFFFFFFFFFFFFFFFFFFFFFFFFFFFFFF NOT SWAP1 SWAP4 ADD SWAP3 PUSH7 0x960AADC109E7B PUSH1 0x46 SHL PUSH1 0x1 PUSH1 0x7F SHL DUP7 MUL SDIV SWAP5 POP JUMPDEST PUSH7 0x454AAA8EFE073 PUSH1 0x4A SHL DUP6 SGT PUSH2 0x303B JUMPI PUSH16 0xFFFFFFFFFFFFFFFFFFFFFFFFFFFFFFFF NOT SWAP1 SWAP4 ADD SWAP3 PUSH7 0x454AAA8EFE073 PUSH1 0x4A SHL PUSH1 0x1 PUSH1 0x7F SHL DUP7 MUL SDIV SWAP5 POP JUMPDEST PUSH7 0x2F16AC6C59DE7 PUSH1 0x4C SHL DUP6 SGT PUSH2 0x306F JUMPI PUSH1 0x1 PUSH1 0x1 PUSH1 0x7F SHL SUB NOT SWAP1 SWAP4 ADD SWAP3 PUSH7 0x2F16AC6C59DE7 PUSH1 0x4C SHL PUSH1 0x1 PUSH1 0x7F SHL DUP7 MUL SDIV SWAP5 POP JUMPDEST PUSH7 0x9B4597E37CB05 PUSH1 0x4B SHL DUP6 SGT PUSH2 0x30AC JUMPI PUSH16 0x3FFFFFFFFFFFFFFFFFFFFFFFFFFFFFFF NOT SWAP1 SWAP4 ADD SWAP3 PUSH7 0x9B4597E37CB05 PUSH1 0x4B SHL PUSH1 0x1 PUSH1 0x7F SHL DUP7 MUL SDIV SWAP5 POP JUMPDEST PUSH7 0x18EBEF9EAC820B PUSH1 0x4A SHL DUP6 SGT PUSH2 0x30E9 JUMPI PUSH16 0x1FFFFFFFFFFFFFFFFFFFFFFFFFFFFFFF NOT SWAP1 SWAP4 ADD SWAP3 PUSH7 0x18EBEF9EAC820B PUSH1 0x4A SHL PUSH1 0x1 PUSH1 0x7F SHL DUP7 MUL SDIV SWAP5 POP JUMPDEST PUSH16 0x70F5A893B608861E1F58934F97AEA57D DUP6 SGT PUSH2 0x3132 JUMPI PUSH16 0xFFFFFFFFFFFFFFFFFFFFFFFFFFFFFFF NOT SWAP1 SWAP4 ADD SWAP3 PUSH16 0x70F5A893B608861E1F58934F97AEA57D PUSH1 0x1 PUSH1 0x7F SHL DUP7 MUL SDIV SWAP5 POP JUMPDEST PUSH1 0x1 PUSH1 0x1 PUSH1 0x7F SHL SUB NOT DUP6 ADD SWAP3 POP DUP3 SWAP2 POP PUSH1 0x1 PUSH1 0x7F SHL DUP3 DUP1 MUL SDIV SWAP1 POP PUSH1 0x1 PUSH1 0x80 SHL DUP4 DUP2 SUB DUP4 MUL SDIV DUP5 ADD SWAP4 POP PUSH1 0x1 PUSH1 0x7F SHL DUP2 DUP4 MUL DUP2 PUSH2 0x316B JUMPI INVALID JUMPDEST SDIV SWAP2 POP PUSH1 0x1 PUSH1 0x81 SHL DUP4 PUSH16 0xAAAAAAAAAAAAAAAAAAAAAAAAAAAAAAAA SUB DUP4 MUL DUP2 PUSH2 0x318F JUMPI INVALID JUMPDEST SDIV DUP5 ADD SWAP4 POP PUSH1 0x1 PUSH1 0x7F SHL DUP2 DUP4 MUL DUP2 PUSH2 0x31A3 JUMPI INVALID JUMPDEST SDIV SWAP2 POP PUSH1 0x3 PUSH1 0x80 SHL DUP4 PUSH16 0x99999999999999999999999999999999 SUB DUP4 MUL DUP2 PUSH2 0x31C7 JUMPI INVALID JUMPDEST SDIV DUP5 ADD SWAP4 POP PUSH1 0x1 PUSH1 0x7F SHL DUP2 DUP4 MUL DUP2 PUSH2 0x31DB JUMPI INVALID JUMPDEST SDIV SWAP2 POP PUSH1 0x1 PUSH1 0x82 SHL DUP4 PUSH16 0x92492492492492492492492492492492 SUB DUP4 MUL DUP2 PUSH2 0x31FF JUMPI INVALID JUMPDEST SDIV DUP5 ADD SWAP4 POP PUSH1 0x1 PUSH1 0x7F SHL DUP2 DUP4 MUL DUP2 PUSH2 0x3213 JUMPI INVALID JUMPDEST SDIV SWAP2 POP PUSH1 0x5 PUSH1 0x80 SHL DUP4 PUSH16 0x8E38E38E38E38E38E38E38E38E38E38E SUB DUP4 MUL DUP2 PUSH2 0x3237 JUMPI INVALID JUMPDEST SDIV DUP5 ADD SWAP4 POP PUSH1 0x1 PUSH1 0x7F SHL DUP2 DUP4 MUL DUP2 PUSH2 0x324B JUMPI INVALID JUMPDEST SDIV SWAP2 POP PUSH1 0x3 PUSH1 0x81 SHL DUP4 PUSH16 0x8BA2E8BA2E8BA2E8BA2E8BA2E8BA2E8B SUB DUP4 MUL DUP2 PUSH2 0x326F JUMPI INVALID JUMPDEST SDIV DUP5 ADD SWAP4 POP PUSH1 0x1 PUSH1 0x7F SHL DUP2 DUP4 MUL DUP2 PUSH2 0x3283 JUMPI INVALID JUMPDEST SDIV SWAP2 POP PUSH1 0x7 PUSH1 0x80 SHL DUP4 PUSH16 0x89D89D89D89D89D89D89D89D89D89D89 SUB DUP4 MUL DUP2 PUSH2 0x32A7 JUMPI INVALID JUMPDEST SDIV DUP5 ADD SWAP4 POP PUSH1 0x1 PUSH1 0x7F SHL DUP2 DUP4 MUL DUP2 PUSH2 0x32BB JUMPI INVALID JUMPDEST SDIV SWAP2 POP PUSH1 0x1 PUSH1 0x83 SHL DUP4 PUSH16 0x88888888888888888888888888888888 SUB DUP4 MUL DUP2 PUSH2 0x32DF JUMPI INVALID JUMPDEST SDIV DUP5 ADD SWAP4 POP POP POP POP SWAP2 SWAP1 POP JUMP JUMPDEST PUSH1 0x0 PUSH2 0x24AD PUSH2 0x2E7E DUP6 DUP6 PUSH2 0x3873 JUMP JUMPDEST PUSH1 0x0 PUSH1 0x1 PUSH2 0x1FF PUSH1 0x7C SHL SUB NOT DUP3 SLT ISZERO PUSH2 0x3316 JUMPI POP PUSH1 0x0 PUSH2 0xA65 JUMP JUMPDEST DUP2 PUSH2 0x3326 JUMPI POP PUSH1 0x1 PUSH1 0x7F SHL PUSH2 0xA65 JUMP JUMPDEST PUSH1 0x0 DUP3 SGT ISZERO PUSH2 0x333D JUMPI PUSH2 0x333D PUSH2 0x830 PUSH1 0x1 DUP5 PUSH2 0x390D JUMP JUMPDEST PUSH1 0x1 PUSH1 0x7F SHL PUSH1 0x1 PUSH1 0x7C SHL DUP4 SMOD DUP1 DUP1 MUL DUP3 SWAP1 SDIV PUSH8 0x10E1B3BE415A0000 DUP2 MUL SWAP4 SWAP1 SWAP4 ADD SWAP3 SWAP1 SWAP2 DUP2 DUP4 MUL SDIV SWAP1 POP DUP1 PUSH8 0x5A0913F6B1E0000 MUL DUP4 ADD SWAP3 POP PUSH1 0x1 PUSH1 0x7F SHL DUP3 DUP3 MUL DUP2 PUSH2 0x3385 JUMPI INVALID JUMPDEST SDIV SWAP1 POP DUP1 PUSH8 0x168244FDAC78000 MUL DUP4 ADD SWAP3 POP PUSH1 0x1 PUSH1 0x7F SHL DUP3 DUP3 MUL DUP2 PUSH2 0x33A6 JUMPI INVALID JUMPDEST SDIV SWAP1 POP DUP1 PUSH7 0x4807432BC18000 MUL DUP4 ADD SWAP3 POP PUSH1 0x1 PUSH1 0x7F SHL DUP3 DUP3 MUL DUP2 PUSH2 0x33C6 JUMPI INVALID JUMPDEST SDIV SWAP1 POP DUP1 PUSH7 0xC0135DCA04000 MUL DUP4 ADD SWAP3 POP PUSH1 0x1 PUSH1 0x7F SHL DUP3 DUP3 MUL DUP2 PUSH2 0x33E6 JUMPI INVALID JUMPDEST SDIV SWAP1 POP DUP1 PUSH7 0x1B707B1CDC000 MUL DUP4 ADD SWAP3 POP PUSH1 0x1 PUSH1 0x7F SHL DUP3 DUP3 MUL DUP2 PUSH2 0x3406 JUMPI INVALID JUMPDEST SDIV SWAP1 POP DUP1 PUSH6 0x36E0F639B800 MUL DUP4 ADD SWAP3 POP PUSH1 0x1 PUSH1 0x7F SHL DUP3 DUP3 MUL DUP2 PUSH2 0x3425 JUMPI INVALID JUMPDEST SDIV SWAP1 POP DUP1 PUSH6 0x618FEE9F800 MUL DUP4 ADD SWAP3 POP PUSH1 0x1 PUSH1 0x7F SHL DUP3 DUP3 MUL DUP2 PUSH2 0x3444 JUMPI INVALID JUMPDEST SDIV SWAP1 POP DUP1 PUSH5 0x9C197DCC00 MUL DUP4 ADD SWAP3 POP PUSH1 0x1 PUSH1 0x7F SHL DUP3 DUP3 MUL DUP2 PUSH2 0x3462 JUMPI INVALID JUMPDEST SDIV SWAP1 POP DUP1 PUSH5 0xE30DCE400 MUL DUP4 ADD SWAP3 POP PUSH1 0x1 PUSH1 0x7F SHL DUP3 DUP3 MUL DUP2 PUSH2 0x3480 JUMPI INVALID JUMPDEST SDIV SWAP1 POP DUP1 PUSH5 0x12EBD1300 MUL DUP4 ADD SWAP3 POP PUSH1 0x1 PUSH1 0x7F SHL DUP3 DUP3 MUL DUP2 PUSH2 0x349E JUMPI INVALID JUMPDEST SDIV SWAP1 POP DUP1 PUSH4 0x17499F00 MUL DUP4 ADD SWAP3 POP PUSH1 0x1 PUSH1 0x7F SHL DUP3 DUP3 MUL DUP2 PUSH2 0x34BB JUMPI INVALID JUMPDEST SDIV SWAP1 POP DUP1 PUSH4 0x1A9D480 MUL DUP4 ADD SWAP3 POP PUSH1 0x1 PUSH1 0x7F SHL DUP3 DUP3 MUL DUP2 PUSH2 0x34D8 JUMPI INVALID JUMPDEST SDIV SWAP1 POP DUP1 PUSH3 0x1C6380 MUL DUP4 ADD SWAP3 POP PUSH1 0x1 PUSH1 0x7F SHL DUP3 DUP3 MUL DUP2 PUSH2 0x34F4 JUMPI INVALID JUMPDEST SDIV SWAP1 POP DUP1 PUSH3 0x1C638 MUL DUP4 ADD SWAP3 POP PUSH1 0x1 PUSH1 0x7F SHL DUP3 DUP3 MUL DUP2 PUSH2 0x3510 JUMPI INVALID JUMPDEST SDIV SWAP1 POP DUP1 PUSH2 0x1AB8 MUL DUP4 ADD SWAP3 POP PUSH1 0x1 PUSH1 0x7F SHL DUP3 DUP3 MUL DUP2 PUSH2 0x352B JUMPI INVALID JUMPDEST SDIV SWAP1 POP DUP1 PUSH2 0x17C MUL DUP4 ADD SWAP3 POP PUSH1 0x1 PUSH1 0x7F SHL DUP3 DUP3 MUL DUP2 PUSH2 0x3546 JUMPI INVALID JUMPDEST SDIV SWAP1 POP DUP1 PUSH1 0x14 MUL DUP4 ADD SWAP3 POP PUSH1 0x1 PUSH1 0x7F SHL DUP3 DUP3 MUL DUP2 PUSH2 0x3560 JUMPI INVALID JUMPDEST PUSH1 0x0 SWAP6 SWAP1 SWAP6 SUB SWAP5 PUSH8 0x21C3677C82B40000 SWAP2 SWAP1 SDIV SWAP4 DUP5 ADD SDIV DUP3 ADD PUSH1 0x1 PUSH1 0x7F SHL ADD SWAP3 SWAP1 POP PUSH1 0x1 PUSH1 0x84 SHL DUP5 AND ISZERO PUSH2 0x35B6 JUMPI PUSH19 0x43CBAF42A000812488FC5C220AD7B97BF6E99E PUSH13 0xF1AADDD7742E56D32FB9F99744 DUP5 MUL SDIV SWAP3 POP JUMPDEST PUSH1 0x1 PUSH1 0x83 SHL DUP5 AND ISZERO PUSH2 0x35EB JUMPI PUSH18 0x5D27A9F51C31B7C2F8038212A0574779991 PUSH15 0xAFE10820813D65DFE6A33C07F738F DUP5 MUL SDIV SWAP3 POP JUMPDEST PUSH1 0x1 PUSH1 0x82 SHL DUP5 AND ISZERO PUSH2 0x3620 JUMPI PUSH17 0x1B4C902E273A58678D6D3BFDB93DB96D02 PUSH16 0x2582AB704279E8EFD15E0265855C47A DUP5 MUL SDIV SWAP3 POP JUMPDEST PUSH1 0x1 PUSH1 0x81 SHL DUP5 AND ISZERO PUSH2 0x3655 JUMPI PUSH17 0x3B1CC971A9BB5B9867477440D6D157750 PUSH16 0x1152AAA3BF81CB9FDB76EAE12D029571 DUP5 MUL SDIV SWAP3 POP JUMPDEST PUSH1 0x1 PUSH1 0x80 SHL DUP5 AND ISZERO PUSH2 0x368A JUMPI PUSH17 0x15BF0A8B1457695355FB8AC404E7A79E3 PUSH16 0x2F16AC6C59DE6F8D5D6F63C1482A7C86 DUP5 MUL SDIV SWAP3 POP JUMPDEST PUSH1 0x1 PUSH1 0x7F SHL DUP5 AND ISZERO PUSH2 0x36BE JUMPI PUSH16 0xD3094C70F034DE4B96FF7D5B6F99FCD8 PUSH16 0x4DA2CBF1BE5827F9EB3AD1AA9866EBB3 DUP5 MUL SDIV SWAP3 POP JUMPDEST PUSH1 0x1 PUSH1 0x7E SHL DUP5 AND ISZERO PUSH2 0x36F2 JUMPI PUSH16 0xA45AF1E1F40C333B3DE1DB4DD55F29A7 PUSH16 0x63AFBE7AB2082BA1A0AE5E4EB1B479DC DUP5 MUL SDIV SWAP3 POP JUMPDEST PUSH1 0x1 PUSH1 0x7D SHL DUP5 AND ISZERO PUSH2 0x3726 JUMPI PUSH16 0x910B022DB7AE67CE76B441C27035C6A1 PUSH16 0x70F5A893B608861E1F58934F97AEA57D DUP5 MUL SDIV SWAP3 POP JUMPDEST PUSH1 0x1 PUSH1 0x7C SHL DUP5 AND ISZERO PUSH2 0x375A JUMPI PUSH16 0x88415ABBE9A76BEAD8D00CF112E4D4A8 PUSH16 0x783EAFEF1C0A8F3978C7F81824D62EBF DUP5 MUL SDIV SWAP3 POP JUMPDEST POP POP SWAP2 SWAP1 POP JUMP JUMPDEST PUSH1 0x0 PUSH1 0x1 PUSH1 0x7F SHL PUSH2 0x3772 DUP5 DUP5 PUSH2 0x3873 JUMP JUMPDEST DUP2 PUSH2 0x3779 JUMPI INVALID JUMPDEST SDIV SWAP4 SWAP3 POP POP POP JUMP JUMPDEST PUSH1 0x0 DUP1 DUP3 SLT ISZERO PUSH2 0x3799 JUMPI PUSH2 0x3799 PUSH2 0x830 PUSH1 0x1 DUP5 PUSH2 0x384B JUMP JUMPDEST PUSH1 0x0 PUSH2 0x37A5 DUP5 DUP5 PUSH2 0x3873 JUMP JUMPDEST SWAP1 POP PUSH1 0x0 DUP2 SGT PUSH2 0x37B9 JUMPI PUSH1 0x0 SWAP2 POP POP PUSH2 0xC1B JUMP JUMPDEST PUSH1 0x7F SHR SWAP4 SWAP3 POP POP POP JUMP JUMPDEST PUSH1 0x20 ADD MLOAD ISZERO ISZERO SWAP1 JUMP JUMPDEST PUSH1 0x0 DUP1 DUP6 PUSH2 0x37DE JUMPI POP DUP3 SWAP1 POP DUP2 PUSH2 0x3825 JUMP JUMPDEST DUP4 PUSH2 0x37ED JUMPI POP DUP5 SWAP1 POP DUP4 PUSH2 0x3825 JUMP JUMPDEST PUSH2 0x3810 PUSH2 0x3800 DUP6 DUP8 PUSH4 0xFFFFFFFF PUSH2 0x2C1C AND JUMP JUMPDEST PUSH2 0x290A DUP9 DUP7 PUSH4 0xFFFFFFFF PUSH2 0x2C1C AND JUMP JUMPDEST SWAP2 POP PUSH2 0x3822 DUP6 DUP5 PUSH4 0xFFFFFFFF PUSH2 0x2C1C AND JUMP JUMPDEST SWAP1 POP JUMPDEST SWAP5 POP SWAP5 SWAP3 POP POP POP JUMP JUMPDEST PUSH1 0x0 DUP1 PUSH2 0x3840 DUP5 DUP5 PUSH1 0x1 PUSH1 0x7F SHL PUSH2 0x3923 JUMP JUMPDEST SWAP2 POP SWAP2 POP SWAP3 POP SWAP3 SWAP1 POP JUMP JUMPDEST PUSH1 0x60 PUSH4 0xBD79545F PUSH1 0xE0 SHL DUP4 PUSH1 0x1 DUP2 GT ISZERO PUSH2 0x3861 JUMPI INVALID JUMPDEST DUP4 PUSH1 0x40 MLOAD PUSH1 0x24 ADD PUSH2 0x1ABC SWAP3 SWAP2 SWAP1 PUSH2 0x42B2 JUMP JUMPDEST PUSH1 0x0 DUP3 ISZERO DUP1 PUSH2 0x3880 JUMPI POP DUP2 ISZERO JUMPDEST ISZERO PUSH2 0x388D JUMPI POP PUSH1 0x0 PUSH2 0xC1B JUMP JUMPDEST POP DUP2 DUP2 MUL DUP2 DUP4 DUP3 DUP2 PUSH2 0x389B JUMPI INVALID JUMPDEST SDIV EQ ISZERO DUP1 PUSH2 0x38B2 JUMPI POP DUP3 DUP3 DUP3 DUP2 PUSH2 0x38AE JUMPI INVALID JUMPDEST SDIV EQ ISZERO JUMPDEST ISZERO PUSH2 0xC1B JUMPI PUSH2 0xC1B PUSH2 0x830 PUSH1 0x1 DUP6 DUP6 PUSH2 0x3991 JUMP JUMPDEST PUSH1 0x0 DUP2 PUSH2 0x38DC JUMPI PUSH2 0x38DC PUSH2 0x830 PUSH1 0x2 DUP6 DUP6 PUSH2 0x3991 JUMP JUMPDEST PUSH1 0x1 PUSH1 0xFF SHL DUP4 EQ DUP1 ISZERO PUSH2 0x38F0 JUMPI POP DUP2 PUSH1 0x0 NOT EQ JUMPDEST ISZERO PUSH2 0x3904 JUMPI PUSH2 0x3904 PUSH2 0x830 PUSH1 0x3 DUP6 DUP6 PUSH2 0x3991 JUMP JUMPDEST DUP2 DUP4 DUP2 PUSH2 0x3779 JUMPI INVALID JUMPDEST PUSH1 0x60 PUSH4 0xED2F26A1 PUSH1 0xE0 SHL DUP4 PUSH1 0x1 DUP2 GT ISZERO PUSH2 0x3861 JUMPI INVALID JUMPDEST PUSH1 0x0 DUP1 DUP3 DUP6 GT DUP1 PUSH2 0x3933 JUMPI POP DUP3 DUP5 GT JUMPDEST ISZERO PUSH2 0x3988 JUMPI PUSH1 0x0 DUP5 DUP7 LT ISZERO PUSH2 0x3948 JUMPI DUP5 PUSH2 0x394A JUMP JUMPDEST DUP6 JUMPDEST SWAP1 POP PUSH2 0x395C DUP2 DUP6 PUSH4 0xFFFFFFFF PUSH2 0x2C4D AND JUMP JUMPDEST SWAP1 POP PUSH2 0x396E DUP7 DUP3 PUSH4 0xFFFFFFFF PUSH2 0x2C4D AND JUMP JUMPDEST SWAP3 POP PUSH2 0x3980 DUP6 DUP3 PUSH4 0xFFFFFFFF PUSH2 0x2C4D AND JUMP JUMPDEST SWAP2 POP POP PUSH2 0x2376 JUMP JUMPDEST POP SWAP3 SWAP4 SWAP2 SWAP3 POP POP JUMP JUMPDEST PUSH1 0x60 PUSH4 0x8C12DFE7 PUSH1 0xE0 SHL DUP5 PUSH1 0x3 DUP2 GT ISZERO PUSH2 0x39A7 JUMPI INVALID JUMPDEST DUP5 DUP5 PUSH1 0x40 MLOAD PUSH1 0x24 ADD PUSH2 0x2694 SWAP4 SWAP3 SWAP2 SWAP1 PUSH2 0x42C0 JUMP JUMPDEST PUSH1 0x40 MLOAD DUP1 PUSH1 0xA0 ADD PUSH1 0x40 MSTORE DUP1 PUSH1 0x0 DUP2 MSTORE PUSH1 0x20 ADD PUSH1 0x0 DUP2 MSTORE PUSH1 0x20 ADD PUSH1 0x0 DUP2 MSTORE PUSH1 0x20 ADD PUSH1 0x0 DUP2 MSTORE PUSH1 0x20 ADD PUSH1 0x0 DUP2 MSTORE POP SWAP1 JUMP JUMPDEST PUSH1 0x40 DUP1 MLOAD PUSH1 0x60 DUP2 ADD DUP3 MSTORE PUSH1 0x0 DUP1 DUP3 MSTORE PUSH1 0x20 DUP3 ADD DUP2 SWAP1 MSTORE SWAP2 DUP2 ADD SWAP2 SWAP1 SWAP2 MSTORE SWAP1 JUMP JUMPDEST PUSH1 0x40 MLOAD DUP1 PUSH1 0x60 ADD PUSH1 0x40 MSTORE DUP1 PUSH1 0x0 DUP2 MSTORE PUSH1 0x20 ADD PUSH1 0x0 DUP2 MSTORE PUSH1 0x20 ADD PUSH1 0x0 DUP2 MSTORE POP SWAP1 JUMP JUMPDEST PUSH1 0x40 DUP1 MLOAD DUP1 DUP3 ADD SWAP1 SWAP2 MSTORE PUSH1 0x0 DUP1 DUP3 MSTORE PUSH1 0x20 DUP3 ADD MSTORE SWAP1 JUMP JUMPDEST DUP2 SLOAD DUP2 DUP4 SSTORE DUP2 DUP2 GT ISZERO PUSH2 0x135E JUMPI PUSH1 0x0 DUP4 DUP2 MSTORE PUSH1 0x20 SWAP1 KECCAK256 PUSH2 0x135E SWAP2 DUP2 ADD SWAP1 DUP4 ADD PUSH2 0x3A80 JUMP JUMPDEST PUSH1 0x40 MLOAD DUP1 PUSH1 0x40 ADD PUSH1 0x40 MSTORE DUP1 PUSH1 0x0 DUP2 MSTORE PUSH1 0x20 ADD PUSH1 0x0 DUP2 MSTORE POP SWAP1 JUMP JUMPDEST PUSH2 0x9DA SWAP2 SWAP1 JUMPDEST DUP1 DUP3 GT ISZERO PUSH2 0x3A9A JUMPI PUSH1 0x0 DUP2 SSTORE PUSH1 0x1 ADD PUSH2 0x3A86 JUMP JUMPDEST POP SWAP1 JUMP JUMPDEST DUP1 CALLDATALOAD PUSH2 0xC1B DUP2 PUSH2 0x4410 JUMP JUMPDEST DUP1 MLOAD PUSH2 0xC1B DUP2 PUSH2 0x4410 JUMP JUMPDEST DUP1 MLOAD PUSH2 0xC1B DUP2 PUSH2 0x4424 JUMP JUMPDEST DUP1 CALLDATALOAD PUSH2 0xC1B DUP2 PUSH2 0x442D JUMP JUMPDEST DUP1 CALLDATALOAD PUSH2 0xC1B DUP2 PUSH2 0x4436 JUMP JUMPDEST PUSH1 0x0 DUP3 PUSH1 0x1F DUP4 ADD SLT PUSH2 0x3AE6 JUMPI PUSH1 0x0 DUP1 REVERT JUMPDEST DUP2 MLOAD PUSH2 0x3AF9 PUSH2 0x3AF4 DUP3 PUSH2 0x42F4 JUMP JUMPDEST PUSH2 0x42CE JUMP JUMPDEST SWAP2 POP DUP1 DUP3 MSTORE PUSH1 0x20 DUP4 ADD PUSH1 0x20 DUP4 ADD DUP6 DUP4 DUP4 ADD GT ISZERO PUSH2 0x3B15 JUMPI PUSH1 0x0 DUP1 REVERT JUMPDEST PUSH2 0x3B20 DUP4 DUP3 DUP5 PUSH2 0x43C6 JUMP JUMPDEST POP POP POP SWAP3 SWAP2 POP POP JUMP JUMPDEST DUP1 MLOAD PUSH2 0xC1B DUP2 PUSH2 0x442D JUMP JUMPDEST DUP1 CALLDATALOAD PUSH2 0xC1B DUP2 PUSH2 0x4443 JUMP JUMPDEST PUSH1 0x0 PUSH1 0x20 DUP3 DUP5 SUB SLT ISZERO PUSH2 0x3B51 JUMPI PUSH1 0x0 DUP1 REVERT JUMPDEST PUSH1 0x0 PUSH2 0x24AD DUP5 DUP5 PUSH2 0x3A9E JUMP JUMPDEST PUSH1 0x0 DUP1 PUSH1 0x0 PUSH1 0x60 DUP5 DUP7 SUB SLT ISZERO PUSH2 0x3B72 JUMPI PUSH1 0x0 DUP1 REVERT JUMPDEST PUSH1 0x0 PUSH2 0x3B7E DUP7 DUP7 PUSH2 0x3A9E JUMP JUMPDEST SWAP4 POP POP PUSH1 0x20 PUSH2 0x3B8F DUP7 DUP3 DUP8 ADD PUSH2 0x3A9E JUMP JUMPDEST SWAP3 POP POP PUSH1 0x40 PUSH2 0x3BA0 DUP7 DUP3 DUP8 ADD PUSH2 0x3ABF JUMP JUMPDEST SWAP2 POP POP SWAP3 POP SWAP3 POP SWAP3 JUMP JUMPDEST PUSH1 0x0 DUP1 PUSH1 0x40 DUP4 DUP6 SUB SLT ISZERO PUSH2 0x3BBD JUMPI PUSH1 0x0 DUP1 REVERT JUMPDEST PUSH1 0x0 PUSH2 0x3BC9 DUP6 DUP6 PUSH2 0x3A9E JUMP JUMPDEST SWAP3 POP POP PUSH1 0x20 PUSH2 0x20E7 DUP6 DUP3 DUP7 ADD PUSH2 0x3ABF JUMP JUMPDEST PUSH1 0x0 DUP1 PUSH1 0x40 DUP4 DUP6 SUB SLT ISZERO PUSH2 0x3BED JUMPI PUSH1 0x0 DUP1 REVERT JUMPDEST PUSH1 0x0 PUSH2 0x3BF9 DUP6 DUP6 PUSH2 0x3A9E JUMP JUMPDEST SWAP3 POP POP PUSH1 0x20 PUSH2 0x20E7 DUP6 DUP3 DUP7 ADD PUSH2 0x3ACA JUMP JUMPDEST PUSH1 0x0 PUSH1 0x20 DUP3 DUP5 SUB SLT ISZERO PUSH2 0x3C1C JUMPI PUSH1 0x0 DUP1 REVERT JUMPDEST PUSH1 0x0 PUSH2 0x24AD DUP5 DUP5 PUSH2 0x3AB4 JUMP JUMPDEST PUSH1 0x0 PUSH1 0x20 DUP3 DUP5 SUB SLT ISZERO PUSH2 0x3C3A JUMPI PUSH1 0x0 DUP1 REVERT JUMPDEST PUSH1 0x0 PUSH2 0x24AD DUP5 DUP5 PUSH2 0x3ABF JUMP JUMPDEST PUSH1 0x0 DUP1 PUSH1 0x40 DUP4 DUP6 SUB SLT ISZERO PUSH2 0x3C59 JUMPI PUSH1 0x0 DUP1 REVERT JUMPDEST PUSH1 0x0 PUSH2 0x3C65 DUP6 DUP6 PUSH2 0x3ABF JUMP JUMPDEST SWAP3 POP POP PUSH1 0x20 PUSH2 0x20E7 DUP6 DUP3 DUP7 ADD PUSH2 0x3A9E JUMP JUMPDEST PUSH1 0x0 DUP1 PUSH1 0x40 DUP4 DUP6 SUB SLT ISZERO PUSH2 0x3C89 JUMPI PUSH1 0x0 DUP1 REVERT JUMPDEST PUSH1 0x0 PUSH2 0x3BC9 DUP6 DUP6 PUSH2 0x3ABF JUMP JUMPDEST PUSH1 0x0 DUP1 PUSH1 0x40 DUP4 DUP6 SUB SLT ISZERO PUSH2 0x3CA8 JUMPI PUSH1 0x0 DUP1 REVERT JUMPDEST PUSH1 0x0 PUSH2 0x3CB4 DUP6 DUP6 PUSH2 0x3ABF JUMP JUMPDEST SWAP3 POP POP PUSH1 0x20 PUSH2 0x20E7 DUP6 DUP3 DUP7 ADD PUSH2 0x3B34 JUMP JUMPDEST PUSH1 0x0 PUSH1 0x20 DUP3 DUP5 SUB SLT ISZERO PUSH2 0x3CD7 JUMPI PUSH1 0x0 DUP1 REVERT JUMPDEST PUSH1 0x0 PUSH2 0x24AD DUP5 DUP5 PUSH2 0x3ACA JUMP JUMPDEST PUSH1 0x0 PUSH1 0x20 DUP3 DUP5 SUB SLT ISZERO PUSH2 0x3CF5 JUMPI PUSH1 0x0 DUP1 REVERT JUMPDEST PUSH1 0x0 PUSH2 0x24AD DUP5 DUP5 PUSH2 0x3B29 JUMP JUMPDEST PUSH1 0x0 DUP1 PUSH1 0x0 DUP1 PUSH1 0x0 DUP1 PUSH1 0xC0 DUP8 DUP10 SUB SLT ISZERO PUSH2 0x3D1A JUMPI PUSH1 0x0 DUP1 REVERT JUMPDEST PUSH1 0x0 PUSH2 0x3D26 DUP10 DUP10 PUSH2 0x3B29 JUMP JUMPDEST SWAP7 POP POP PUSH1 0x20 DUP8 ADD MLOAD PUSH1 0x1 PUSH1 0x1 PUSH1 0x40 SHL SUB DUP2 GT ISZERO PUSH2 0x3D42 JUMPI PUSH1 0x0 DUP1 REVERT JUMPDEST PUSH2 0x3D4E DUP10 DUP3 DUP11 ADD PUSH2 0x3AD5 JUMP JUMPDEST SWAP6 POP POP PUSH1 0x40 DUP8 ADD MLOAD PUSH1 0x1 PUSH1 0x1 PUSH1 0x40 SHL SUB DUP2 GT ISZERO PUSH2 0x3D6A JUMPI PUSH1 0x0 DUP1 REVERT JUMPDEST PUSH2 0x3D76 DUP10 DUP3 DUP11 ADD PUSH2 0x3AD5 JUMP JUMPDEST SWAP5 POP POP PUSH1 0x60 PUSH2 0x3D87 DUP10 DUP3 DUP11 ADD PUSH2 0x3B29 JUMP JUMPDEST SWAP4 POP POP PUSH1 0x80 PUSH2 0x3D98 DUP10 DUP3 DUP11 ADD PUSH2 0x3AA9 JUMP JUMPDEST SWAP3 POP POP PUSH1 0xA0 PUSH2 0x3DA9 DUP10 DUP3 DUP11 ADD PUSH2 0x3AA9 JUMP JUMPDEST SWAP2 POP POP SWAP3 SWAP6 POP SWAP3 SWAP6 POP SWAP3 SWAP6 JUMP JUMPDEST PUSH1 0x0 PUSH2 0x3DC2 DUP4 DUP4 PUSH2 0x3DCA JUMP JUMPDEST POP POP PUSH1 0x20 ADD SWAP1 JUMP JUMPDEST PUSH2 0x3DD3 DUP2 PUSH2 0x432E JUMP JUMPDEST DUP3 MSTORE POP POP JUMP JUMPDEST PUSH1 0x0 PUSH2 0x3DE4 DUP3 PUSH2 0x4321 JUMP JUMPDEST PUSH2 0x3DEE DUP2 DUP6 PUSH2 0x4325 JUMP JUMPDEST SWAP4 POP PUSH2 0x3DF9 DUP4 PUSH2 0x431B JUMP JUMPDEST DUP1 PUSH1 0x0 JUMPDEST DUP4 DUP2 LT ISZERO PUSH2 0x3E27 JUMPI DUP2 MLOAD PUSH2 0x3E11 DUP9 DUP3 PUSH2 0x3DB6 JUMP JUMPDEST SWAP8 POP PUSH2 0x3E1C DUP4 PUSH2 0x431B JUMP JUMPDEST SWAP3 POP POP PUSH1 0x1 ADD PUSH2 0x3DFD JUMP JUMPDEST POP SWAP5 SWAP6 SWAP5 POP POP POP POP POP JUMP JUMPDEST PUSH2 0x3DD3 DUP2 PUSH2 0x4339 JUMP JUMPDEST PUSH2 0x3DD3 DUP2 PUSH2 0x9DA JUMP JUMPDEST PUSH2 0x3DD3 DUP2 PUSH2 0x438F JUMP JUMPDEST PUSH2 0x3DD3 DUP2 PUSH2 0x439A JUMP JUMPDEST PUSH2 0x3DD3 DUP2 PUSH2 0x43A5 JUMP JUMPDEST PUSH2 0x3DD3 DUP2 PUSH2 0x43B0 JUMP JUMPDEST PUSH2 0x3DD3 DUP2 PUSH2 0x43BB JUMP JUMPDEST PUSH1 0x0 PUSH2 0x3E7E PUSH1 0x2D DUP4 PUSH2 0x4325 JUMP JUMPDEST PUSH32 0x4F4E4C595F504F4F4C5F4F574E45525F43414E5F4154544143485F5245474953 DUP2 MSTORE PUSH13 0x151154915117D49097D413D3D3 PUSH1 0x9A SHL PUSH1 0x20 DUP3 ADD MSTORE PUSH1 0x40 ADD SWAP3 SWAP2 POP POP JUMP JUMPDEST PUSH1 0x0 PUSH2 0x3ECD PUSH1 0x1E DUP4 PUSH2 0x4325 JUMP JUMPDEST PUSH32 0x43414C4C45525F49535F534D4152545F434F4E54524143545F4552524F520000 DUP2 MSTORE PUSH1 0x20 ADD SWAP3 SWAP2 POP POP JUMP JUMPDEST PUSH1 0x0 PUSH2 0x3F06 PUSH1 0x19 DUP4 PUSH2 0x4325 JUMP JUMPDEST PUSH32 0x504F4F4C535F41525241595F544F4F5F4249475F4552524F5200000000000000 DUP2 MSTORE PUSH1 0x20 ADD SWAP3 SWAP2 POP POP JUMP JUMPDEST PUSH1 0x0 PUSH2 0x3F3F PUSH1 0x13 DUP4 PUSH2 0x4325 JUMP JUMPDEST PUSH19 0x10D497D25395115495905317D2539590531251 PUSH1 0x6A SHL DUP2 MSTORE PUSH1 0x20 ADD SWAP3 SWAP2 POP POP JUMP JUMPDEST PUSH1 0x0 PUSH2 0x3F6E PUSH1 0x14 DUP4 PUSH2 0x4325 JUMP JUMPDEST PUSH20 0x15D1551217D514905394D1915497D19052531151 PUSH1 0x62 SHL DUP2 MSTORE PUSH1 0x20 ADD SWAP3 SWAP2 POP POP JUMP JUMPDEST DUP1 MLOAD PUSH1 0x60 DUP4 ADD SWAP1 PUSH2 0x3FA2 DUP5 DUP3 PUSH2 0x3E3B JUMP JUMPDEST POP PUSH1 0x20 DUP3 ADD MLOAD PUSH2 0x3FB5 PUSH1 0x20 DUP6 ADD DUP3 PUSH2 0x3E3B JUMP JUMPDEST POP PUSH1 0x40 DUP3 ADD MLOAD PUSH2 0x3FC8 PUSH1 0x40 DUP6 ADD DUP3 PUSH2 0x3E3B JUMP JUMPDEST POP POP POP POP JUMP JUMPDEST DUP1 MLOAD PUSH1 0x40 DUP4 ADD SWAP1 PUSH2 0x3FDF DUP5 DUP3 PUSH2 0x3DCA JUMP JUMPDEST POP PUSH1 0x20 DUP3 ADD MLOAD PUSH2 0x3FC8 PUSH1 0x20 DUP6 ADD DUP3 PUSH2 0x4029 JUMP JUMPDEST DUP1 MLOAD PUSH1 0x60 DUP4 ADD SWAP1 PUSH2 0x4003 DUP5 DUP3 PUSH2 0x4032 JUMP JUMPDEST POP PUSH1 0x20 DUP3 ADD MLOAD PUSH2 0x4016 PUSH1 0x20 DUP6 ADD DUP3 PUSH2 0x4044 JUMP JUMPDEST POP PUSH1 0x40 DUP3 ADD MLOAD PUSH2 0x3FC8 PUSH1 0x40 DUP6 ADD DUP3 PUSH2 0x4044 JUMP JUMPDEST PUSH2 0x3DD3 DUP2 PUSH2 0x4368 JUMP JUMPDEST PUSH2 0x3DD3 DUP2 PUSH2 0x4371 JUMP JUMPDEST PUSH2 0x3DD3 DUP2 PUSH2 0x437D JUMP JUMPDEST PUSH2 0x3DD3 DUP2 PUSH2 0x4383 JUMP JUMPDEST PUSH1 0x20 DUP2 ADD PUSH2 0xC1B DUP3 DUP5 PUSH2 0x3DCA JUMP JUMPDEST PUSH1 0x40 DUP2 ADD PUSH2 0x4069 DUP3 DUP6 PUSH2 0x3DCA JUMP JUMPDEST PUSH2 0x26C9 PUSH1 0x20 DUP4 ADD DUP5 PUSH2 0x3DCA JUMP JUMPDEST PUSH1 0x60 DUP2 ADD PUSH2 0x4084 DUP3 DUP7 PUSH2 0x3DCA JUMP JUMPDEST PUSH2 0x4091 PUSH1 0x20 DUP4 ADD DUP6 PUSH2 0x3DCA JUMP JUMPDEST PUSH2 0x24AD PUSH1 0x40 DUP4 ADD DUP5 PUSH2 0x3E3B JUMP JUMPDEST PUSH1 0x40 DUP2 ADD PUSH2 0x40AC DUP3 DUP6 PUSH2 0x3DCA JUMP JUMPDEST PUSH2 0x26C9 PUSH1 0x20 DUP4 ADD DUP5 PUSH2 0x3E3B JUMP JUMPDEST PUSH1 0x20 DUP1 DUP3 MSTORE DUP2 ADD PUSH2 0x26C9 DUP2 DUP5 PUSH2 0x3DD9 JUMP JUMPDEST PUSH1 0x20 DUP2 ADD PUSH2 0xC1B DUP3 DUP5 PUSH2 0x3E32 JUMP JUMPDEST PUSH1 0x20 DUP2 ADD PUSH2 0xC1B DUP3 DUP5 PUSH2 0x3E3B JUMP JUMPDEST PUSH1 0x60 DUP2 ADD PUSH2 0x40F4 DUP3 DUP7 PUSH2 0x3E3B JUMP JUMPDEST PUSH2 0x4101 PUSH1 0x20 DUP4 ADD DUP6 PUSH2 0x3DCA JUMP JUMPDEST PUSH2 0x24AD PUSH1 0x40 DUP4 ADD DUP5 PUSH2 0x4029 JUMP JUMPDEST PUSH1 0x40 DUP2 ADD PUSH2 0x40AC DUP3 DUP6 PUSH2 0x3E3B JUMP JUMPDEST PUSH1 0x20 DUP2 ADD PUSH2 0xC1B DUP3 DUP5 PUSH2 0x3E44 JUMP JUMPDEST PUSH1 0x60 DUP2 ADD PUSH2 0x4138 DUP3 DUP7 PUSH2 0x3E4D JUMP JUMPDEST PUSH2 0x4091 PUSH1 0x20 DUP4 ADD DUP6 PUSH2 0x3E3B JUMP JUMPDEST PUSH1 0x40 DUP2 ADD PUSH2 0x40AC DUP3 DUP6 PUSH2 0x3E56 JUMP JUMPDEST PUSH1 0x60 DUP2 ADD PUSH2 0x4161 DUP3 DUP7 PUSH2 0x3E5F JUMP JUMPDEST PUSH2 0x4101 PUSH1 0x20 DUP4 ADD DUP6 PUSH2 0x3E3B JUMP JUMPDEST PUSH1 0x40 DUP2 ADD PUSH2 0x4069 DUP3 DUP6 PUSH2 0x3E5F JUMP JUMPDEST PUSH1 0x40 DUP2 ADD PUSH2 0x40AC DUP3 DUP6 PUSH2 0x3E68 JUMP JUMPDEST PUSH1 0x20 DUP1 DUP3 MSTORE DUP2 ADD PUSH2 0xA62 DUP2 PUSH2 0x3E71 JUMP JUMPDEST PUSH1 0x20 DUP1 DUP3 MSTORE DUP2 ADD PUSH2 0xA62 DUP2 PUSH2 0x3EC0 JUMP JUMPDEST PUSH1 0x20 DUP1 DUP3 MSTORE DUP2 ADD PUSH2 0xA62 DUP2 PUSH2 0x3EF9 JUMP JUMPDEST PUSH1 0x20 DUP1 DUP3 MSTORE DUP2 ADD PUSH2 0xA62 DUP2 PUSH2 0x3F32 JUMP JUMPDEST PUSH1 0x20 DUP1 DUP3 MSTORE DUP2 ADD PUSH2 0xA62 DUP2 PUSH2 0x3F61 JUMP JUMPDEST PUSH1 0x60 DUP2 ADD PUSH2 0xC1B DUP3 DUP5 PUSH2 0x3F91 JUMP JUMPDEST PUSH1 0x40 DUP2 ADD PUSH2 0xC1B DUP3 DUP5 PUSH2 0x3FCE JUMP JUMPDEST PUSH1 0x60 DUP2 ADD PUSH2 0xC1B DUP3 DUP5 PUSH2 0x3FF2 JUMP JUMPDEST PUSH1 0x60 DUP2 ADD PUSH2 0x4138 DUP3 DUP7 PUSH2 0x3E3B JUMP JUMPDEST PUSH1 0x80 DUP2 ADD PUSH2 0x4220 DUP3 DUP8 PUSH2 0x3E3B JUMP JUMPDEST PUSH2 0x422D PUSH1 0x20 DUP4 ADD DUP7 PUSH2 0x3E3B JUMP JUMPDEST PUSH2 0x423A PUSH1 0x40 DUP4 ADD DUP6 PUSH2 0x3E3B JUMP JUMPDEST PUSH2 0x2E35 PUSH1 0x60 DUP4 ADD DUP5 PUSH2 0x3E3B JUMP JUMPDEST PUSH1 0xA0 DUP2 ADD PUSH2 0x4255 DUP3 DUP9 PUSH2 0x3E3B JUMP JUMPDEST PUSH2 0x4262 PUSH1 0x20 DUP4 ADD DUP8 PUSH2 0x3E3B JUMP JUMPDEST PUSH2 0x426F PUSH1 0x40 DUP4 ADD DUP7 PUSH2 0x3E3B JUMP JUMPDEST PUSH2 0x427C PUSH1 0x60 DUP4 ADD DUP6 PUSH2 0x3E3B JUMP JUMPDEST PUSH2 0x29A6 PUSH1 0x80 DUP4 ADD DUP5 PUSH2 0x3E3B JUMP JUMPDEST PUSH1 0x20 DUP2 ADD PUSH2 0xC1B DUP3 DUP5 PUSH2 0x4029 JUMP JUMPDEST PUSH1 0x40 DUP2 ADD PUSH2 0x42A5 DUP3 DUP6 PUSH2 0x4029 JUMP JUMPDEST PUSH2 0x26C9 PUSH1 0x20 DUP4 ADD DUP5 PUSH2 0x4029 JUMP JUMPDEST PUSH1 0x40 DUP2 ADD PUSH2 0x40AC DUP3 DUP6 PUSH2 0x403B JUMP JUMPDEST PUSH1 0x60 DUP2 ADD PUSH2 0x4138 DUP3 DUP7 PUSH2 0x403B JUMP JUMPDEST PUSH1 0x40 MLOAD DUP2 DUP2 ADD PUSH1 0x1 PUSH1 0x1 PUSH1 0x40 SHL SUB DUP2 GT DUP3 DUP3 LT OR ISZERO PUSH2 0x42EC JUMPI PUSH1 0x0 DUP1 REVERT JUMPDEST PUSH1 0x40 MSTORE SWAP2 SWAP1 POP JUMP JUMPDEST PUSH1 0x0 PUSH1 0x1 PUSH1 0x1 PUSH1 0x40 SHL SUB DUP3 GT ISZERO PUSH2 0x430A JUMPI PUSH1 0x0 DUP1 REVERT JUMPDEST POP PUSH1 0x20 PUSH1 0x1F SWAP2 SWAP1 SWAP2 ADD PUSH1 0x1F NOT AND ADD SWAP1 JUMP JUMPDEST PUSH1 0x20 ADD SWAP1 JUMP JUMPDEST MLOAD SWAP1 JUMP JUMPDEST SWAP1 DUP2 MSTORE PUSH1 0x20 ADD SWAP1 JUMP JUMPDEST PUSH1 0x0 PUSH2 0xA62 DUP3 PUSH2 0x435C JUMP JUMPDEST ISZERO ISZERO SWAP1 JUMP JUMPDEST DUP1 PUSH2 0xA65 DUP2 PUSH2 0x43F2 JUMP JUMPDEST DUP1 PUSH2 0xA65 DUP2 PUSH2 0x43FC JUMP JUMPDEST DUP1 PUSH2 0xA65 DUP2 PUSH2 0x4406 JUMP JUMPDEST PUSH1 0x1 PUSH1 0x1 PUSH1 0xA0 SHL SUB AND SWAP1 JUMP JUMPDEST PUSH4 0xFFFFFFFF AND SWAP1 JUMP JUMPDEST PUSH1 0x1 PUSH1 0x1 PUSH1 0x40 SHL SUB AND SWAP1 JUMP JUMPDEST PUSH1 0xFF AND SWAP1 JUMP JUMPDEST PUSH1 0x1 PUSH1 0x1 PUSH1 0x60 SHL SUB AND SWAP1 JUMP JUMPDEST PUSH1 0x0 PUSH2 0xA62 DUP3 PUSH2 0x432E JUMP JUMPDEST PUSH1 0x0 PUSH2 0xA62 DUP3 PUSH2 0x433E JUMP JUMPDEST PUSH1 0x0 PUSH2 0xA62 DUP3 PUSH2 0x4348 JUMP JUMPDEST PUSH1 0x0 PUSH2 0xA62 DUP3 PUSH2 0x4352 JUMP JUMPDEST PUSH1 0x0 PUSH2 0xA62 DUP3 PUSH2 0x9DA JUMP JUMPDEST PUSH1 0x0 JUMPDEST DUP4 DUP2 LT ISZERO PUSH2 0x43E1 JUMPI DUP2 DUP2 ADD MLOAD DUP4 DUP3 ADD MSTORE PUSH1 0x20 ADD PUSH2 0x43C9 JUMP JUMPDEST DUP4 DUP2 GT ISZERO PUSH2 0x3FC8 JUMPI POP POP PUSH1 0x0 SWAP2 ADD MSTORE JUMP JUMPDEST PUSH1 0x4 DUP2 LT PUSH2 0xBCC JUMPI INVALID JUMPDEST PUSH1 0x3 DUP2 LT PUSH2 0xBCC JUMPI INVALID JUMPDEST PUSH1 0x2 DUP2 LT PUSH2 0xBCC JUMPI INVALID JUMPDEST PUSH2 0x4419 DUP2 PUSH2 0x432E JUMP JUMPDEST DUP2 EQ PUSH2 0xBCC JUMPI PUSH1 0x0 DUP1 REVERT JUMPDEST PUSH2 0x4419 DUP2 PUSH2 0x4339 JUMP JUMPDEST PUSH2 0x4419 DUP2 PUSH2 0x9DA JUMP JUMPDEST PUSH1 0x2 DUP2 LT PUSH2 0xBCC JUMPI PUSH1 0x0 DUP1 REVERT JUMPDEST PUSH2 0x4419 DUP2 PUSH2 0x4368 JUMP INVALID LOG3 PUSH6 0x627A7A723158 KECCAK256 0x2B SWAP7 MSTORE 0xEB 0xD6 SWAP6 0xEF JUMPDEST SGT EXTCODECOPY 0x26 DUP13 RETURNDATASIZE 0xBD 0xBE 0xEF KECCAK256 0xE0 SSTORE 0xDB CALLVALUE DUP10 MULMOD 0x48 0xAC 0x4C SWAP16 SAR 0xCE 0x2B KECCAK256 RETURNDATACOPY PUSH13 0x6578706572696D656E74616CF5 PUSH5 0x736F6C6343 STOP SDIV GT STOP BLOCKHASH "
		},
		"gasEstimates": {
			"creation": {
				"codeDepositCost": "3510200",
				"executionCost": "24744",
				"totalCost": "3534944"
			},
			"external": {
				"addAuthorizedAddress(address)": "infinite",
				"addPopAddress(address)": "infinite",
				"aggregatedStatsByEpoch(uint256)": "infinite",
				"authorities(uint256)": "infinite",
				"authorized(address)": "infinite",
				"cobbDouglasAlphaDenominator()": "1166",
				"cobbDouglasAlphaNumerator()": "1157",
				"computeRewardBalanceOfDelegator(bytes32,address)": "infinite",
				"computeRewardBalanceOfOperator(bytes32)": "infinite",
				"createStakingPool(address)": "infinite",
				"currentEpoch()": "1254",
				"currentEpochStartTimeInSeconds()": "1233",
				"decreaseStakingPoolOperatorShare(bytes32,uint32)": "infinite",
				"endEpoch()": "infinite",
				"epochDurationInSeconds()": "1188",
				"finalizePool(bytes32)": "infinite",
				"getAuthorizedAddresses()": "infinite",
				"getCurrentEpochEarliestEndTimeInSeconds()": "infinite",
				"getGlobalStakeByStatus(uint8)": "infinite",
				"getGrgVault()": "infinite",
				"getOwnerStakeByStatus(address,uint8)": "infinite",
				"getStakeDelegatedToPoolByOwner(address,bytes32)": "infinite",
				"getStakingPool(bytes32)": "infinite",
				"getStakingPoolStatsThisEpoch(bytes32)": "infinite",
				"getTotalStake(address)": "infinite",
				"getTotalStakeDelegatedToPool(bytes32)": "infinite",
				"getWethContract()": "infinite",
				"joinStakingPoolAsRbPool(bytes32,address)": "infinite",
				"lastPoolId()": "1144",
				"minimumPoolStake()": "1211",
				"owner()": "1247",
				"payProtocolFee(address,address,uint256)": "infinite",
				"poolIdByRbPool(address)": "infinite",
				"poolStatsByEpoch(bytes32,uint256)": "infinite",
				"removeAuthorizedAddress(address)": "infinite",
				"removeAuthorizedAddressAtIndex(address,uint256)": "infinite",
				"removeExchangeAddress(address)": "infinite",
				"rewardDelegatedStakeWeight()": "1244",
				"rewardsByPoolId(bytes32)": "infinite",
				"rigoblockOperatorPools(bytes32,uint256)": "infinite",
				"stakingContract()": "1267",
				"transferOwnership(address)": "infinite",
				"validPops(address)": "infinite",
				"wethReservedForPoolRewards()": "1166",
				"withdrawDelegatorRewards(bytes32)": "infinite"
			},
			"internal": {
				"_assertValidProtocolFee(uint256)": "infinite",
				"_computeMembersAndWeightedStake(bytes32,uint256)": "infinite"
			}
		},
		"methodIdentifiers": {
			"addAuthorizedAddress(address)": "42f1181e",
			"addPopAddress(address)": "1f81eb80",
			"aggregatedStatsByEpoch(uint256)": "38229d93",
			"authorities(uint256)": "494503d4",
			"authorized(address)": "b9181611",
			"cobbDouglasAlphaDenominator()": "e8eeb3f8",
			"cobbDouglasAlphaNumerator()": "81666796",
			"computeRewardBalanceOfDelegator(bytes32,address)": "e907f003",
			"computeRewardBalanceOfOperator(bytes32)": "bb7ef7e0",
			"createStakingPool(address)": "be111af4",
			"currentEpoch()": "76671808",
			"currentEpochStartTimeInSeconds()": "587da023",
			"decreaseStakingPoolOperatorShare(bytes32,uint32)": "5d91121d",
			"endEpoch()": "0b9663db",
			"epochDurationInSeconds()": "63403801",
			"finalizePool(bytes32)": "ff691b11",
			"getAuthorizedAddresses()": "d39de6e9",
			"getCurrentEpochEarliestEndTimeInSeconds()": "b2baa33e",
			"getGlobalStakeByStatus(uint8)": "e804d0a4",
			"getGrgVault()": "e0822db7",
			"getOwnerStakeByStatus(address,uint8)": "44a6958b",
			"getStakeDelegatedToPoolByOwner(address,bytes32)": "f252b7a1",
			"getStakingPool(bytes32)": "4bcc3f67",
			"getStakingPoolStatsThisEpoch(bytes32)": "46b97959",
			"getTotalStake(address)": "1e7ff8f6",
			"getTotalStakeDelegatedToPool(bytes32)": "3e4ad732",
			"getWethContract()": "3c277fc5",
			"joinStakingPoolAsRbPool(bytes32,address)": "734fc76b",
			"lastPoolId()": "a657e579",
			"minimumPoolStake()": "a26171e2",
			"owner()": "8da5cb5b",
			"payProtocolFee(address,address,uint256)": "a3b4a327",
			"poolIdByRbPool(address)": "5e30deff",
			"poolStatsByEpoch(bytes32,uint256)": "2a94c279",
			"removeAuthorizedAddress(address)": "70712939",
			"removeAuthorizedAddressAtIndex(address,uint256)": "9ad26744",
			"removeExchangeAddress(address)": "01e28d84",
			"rewardDelegatedStakeWeight()": "e0ee036e",
			"rewardsByPoolId(bytes32)": "c18c9141",
			"rigoblockOperatorPools(bytes32,uint256)": "3cb25d34",
			"stakingContract()": "ee99205c",
			"transferOwnership(address)": "f2fde38b",
			"validPops(address)": "540c2d53",
			"wethReservedForPoolRewards()": "b0531524",
			"withdrawDelegatorRewards(bytes32)": "b510879f"
		}
	},
	"abi": [
		{
			"anonymous": false,
			"inputs": [
				{
					"indexed": true,
					"internalType": "address",
					"name": "target",
					"type": "address"
				},
				{
					"indexed": true,
					"internalType": "address",
					"name": "caller",
					"type": "address"
				}
			],
			"name": "AuthorizedAddressAdded",
			"type": "event"
		},
		{
			"anonymous": false,
			"inputs": [
				{
					"indexed": true,
					"internalType": "address",
					"name": "target",
					"type": "address"
				},
				{
					"indexed": true,
					"internalType": "address",
					"name": "caller",
					"type": "address"
				}
			],
			"name": "AuthorizedAddressRemoved",
			"type": "event"
		},
		{
			"anonymous": false,
			"inputs": [
				{
					"indexed": true,
					"internalType": "uint256",
					"name": "epoch",
					"type": "uint256"
				},
				{
					"indexed": false,
					"internalType": "uint256",
					"name": "numPoolsToFinalize",
					"type": "uint256"
				},
				{
					"indexed": false,
					"internalType": "uint256",
					"name": "rewardsAvailable",
					"type": "uint256"
				},
				{
					"indexed": false,
					"internalType": "uint256",
					"name": "totalFeesCollected",
					"type": "uint256"
				},
				{
					"indexed": false,
					"internalType": "uint256",
					"name": "totalWeightedStake",
					"type": "uint256"
				}
			],
			"name": "EpochEnded",
			"type": "event"
		},
		{
			"anonymous": false,
			"inputs": [
				{
					"indexed": true,
					"internalType": "uint256",
					"name": "epoch",
					"type": "uint256"
				},
				{
					"indexed": false,
					"internalType": "uint256",
					"name": "rewardsPaid",
					"type": "uint256"
				},
				{
					"indexed": false,
					"internalType": "uint256",
					"name": "rewardsRemaining",
					"type": "uint256"
				}
			],
			"name": "EpochFinalized",
			"type": "event"
		},
		{
			"anonymous": false,
			"inputs": [
				{
					"indexed": true,
					"internalType": "address",
					"name": "staker",
					"type": "address"
				},
				{
					"indexed": false,
					"internalType": "uint256",
					"name": "amount",
					"type": "uint256"
				},
				{
					"indexed": false,
					"internalType": "uint8",
					"name": "fromStatus",
					"type": "uint8"
				},
				{
					"indexed": true,
					"internalType": "bytes32",
					"name": "fromPool",
					"type": "bytes32"
				},
				{
					"indexed": false,
					"internalType": "uint8",
					"name": "toStatus",
					"type": "uint8"
				},
				{
					"indexed": true,
					"internalType": "bytes32",
					"name": "toPool",
					"type": "bytes32"
				}
			],
			"name": "MoveStake",
			"type": "event"
		},
		{
			"anonymous": false,
			"inputs": [
				{
					"indexed": true,
					"internalType": "bytes32",
					"name": "poolId",
					"type": "bytes32"
				},
				{
					"indexed": false,
					"internalType": "uint32",
					"name": "oldOperatorShare",
					"type": "uint32"
				},
				{
					"indexed": false,
					"internalType": "uint32",
					"name": "newOperatorShare",
					"type": "uint32"
				}
			],
			"name": "OperatorShareDecreased",
			"type": "event"
		},
		{
			"anonymous": false,
			"inputs": [
				{
					"indexed": true,
					"internalType": "address",
					"name": "previousOwner",
					"type": "address"
				},
				{
					"indexed": true,
					"internalType": "address",
					"name": "newOwner",
					"type": "address"
				}
			],
			"name": "OwnershipTransferred",
			"type": "event"
		},
		{
			"anonymous": false,
			"inputs": [
				{
					"indexed": false,
					"internalType": "uint256",
					"name": "epochDurationInSeconds",
					"type": "uint256"
				},
				{
					"indexed": false,
					"internalType": "uint32",
					"name": "rewardDelegatedStakeWeight",
					"type": "uint32"
				},
				{
					"indexed": false,
					"internalType": "uint256",
					"name": "minimumPoolStake",
					"type": "uint256"
				},
				{
					"indexed": false,
					"internalType": "uint256",
					"name": "cobbDouglasAlphaNumerator",
					"type": "uint256"
				},
				{
					"indexed": false,
					"internalType": "uint256",
					"name": "cobbDouglasAlphaDenominator",
					"type": "uint256"
				}
			],
			"name": "ParamsSet",
			"type": "event"
		},
		{
			"anonymous": false,
			"inputs": [
				{
					"indexed": false,
					"internalType": "address",
					"name": "exchangeAddress",
					"type": "address"
				}
			],
			"name": "PopAdded",
			"type": "event"
		},
		{
			"anonymous": false,
			"inputs": [
				{
					"indexed": false,
					"internalType": "address",
					"name": "exchangeAddress",
					"type": "address"
				}
			],
			"name": "PopRemoved",
			"type": "event"
		},
		{
			"anonymous": false,
			"inputs": [
				{
					"indexed": true,
					"internalType": "address",
					"name": "rbPoolAddress",
					"type": "address"
				},
				{
					"indexed": true,
					"internalType": "bytes32",
					"name": "poolId",
					"type": "bytes32"
				}
			],
			"name": "RbPoolStakingPoolSet",
			"type": "event"
		},
		{
			"anonymous": false,
			"inputs": [
				{
					"indexed": true,
					"internalType": "uint256",
					"name": "epoch",
					"type": "uint256"
				},
				{
					"indexed": true,
					"internalType": "bytes32",
					"name": "poolId",
					"type": "bytes32"
				},
				{
					"indexed": false,
					"internalType": "uint256",
					"name": "operatorReward",
					"type": "uint256"
				},
				{
					"indexed": false,
					"internalType": "uint256",
					"name": "membersReward",
					"type": "uint256"
				}
			],
			"name": "RewardsPaid",
			"type": "event"
		},
		{
			"anonymous": false,
			"inputs": [
				{
					"indexed": true,
					"internalType": "address",
					"name": "staker",
					"type": "address"
				},
				{
					"indexed": false,
					"internalType": "uint256",
					"name": "amount",
					"type": "uint256"
				}
			],
			"name": "Stake",
			"type": "event"
		},
		{
			"anonymous": false,
			"inputs": [
				{
					"indexed": false,
					"internalType": "bytes32",
					"name": "poolId",
					"type": "bytes32"
				},
				{
					"indexed": false,
					"internalType": "address",
					"name": "operator",
					"type": "address"
				},
				{
					"indexed": false,
					"internalType": "uint32",
					"name": "operatorShare",
					"type": "uint32"
				}
			],
			"name": "StakingPoolCreated",
			"type": "event"
		},
		{
			"anonymous": false,
			"inputs": [
				{
					"indexed": true,
					"internalType": "uint256",
					"name": "epoch",
					"type": "uint256"
				},
				{
					"indexed": true,
					"internalType": "bytes32",
					"name": "poolId",
					"type": "bytes32"
				}
			],
			"name": "StakingPoolEarnedRewardsInEpoch",
			"type": "event"
		},
		{
			"anonymous": false,
			"inputs": [
				{
					"indexed": true,
					"internalType": "address",
					"name": "staker",
					"type": "address"
				},
				{
					"indexed": false,
					"internalType": "uint256",
					"name": "amount",
					"type": "uint256"
				}
			],
			"name": "Unstake",
			"type": "event"
		},
		{
			"constant": false,
			"inputs": [
				{
					"internalType": "address",
					"name": "target",
					"type": "address"
				}
			],
			"name": "addAuthorizedAddress",
			"outputs": [],
			"payable": false,
			"stateMutability": "nonpayable",
			"type": "function"
		},
		{
			"constant": false,
			"inputs": [
				{
					"internalType": "address",
					"name": "addr",
					"type": "address"
				}
			],
			"name": "addPopAddress",
			"outputs": [],
			"payable": false,
			"stateMutability": "nonpayable",
			"type": "function"
		},
		{
			"constant": true,
			"inputs": [
				{
					"internalType": "uint256",
					"name": "",
					"type": "uint256"
				}
			],
			"name": "aggregatedStatsByEpoch",
			"outputs": [
				{
					"internalType": "uint256",
					"name": "rewardsAvailable",
					"type": "uint256"
				},
				{
					"internalType": "uint256",
					"name": "numPoolsToFinalize",
					"type": "uint256"
				},
				{
					"internalType": "uint256",
					"name": "totalFeesCollected",
					"type": "uint256"
				},
				{
					"internalType": "uint256",
					"name": "totalWeightedStake",
					"type": "uint256"
				},
				{
					"internalType": "uint256",
					"name": "totalRewardsFinalized",
					"type": "uint256"
				}
			],
			"payable": false,
			"stateMutability": "view",
			"type": "function"
		},
		{
			"constant": true,
			"inputs": [
				{
					"internalType": "uint256",
					"name": "",
					"type": "uint256"
				}
			],
			"name": "authorities",
			"outputs": [
				{
					"internalType": "address",
					"name": "",
					"type": "address"
				}
			],
			"payable": false,
			"stateMutability": "view",
			"type": "function"
		},
		{
			"constant": true,
			"inputs": [
				{
					"internalType": "address",
					"name": "",
					"type": "address"
				}
			],
			"name": "authorized",
			"outputs": [
				{
					"internalType": "bool",
					"name": "",
					"type": "bool"
				}
			],
			"payable": false,
			"stateMutability": "view",
			"type": "function"
		},
		{
			"constant": true,
			"inputs": [],
			"name": "cobbDouglasAlphaDenominator",
			"outputs": [
				{
					"internalType": "uint32",
					"name": "",
					"type": "uint32"
				}
			],
			"payable": false,
			"stateMutability": "view",
			"type": "function"
		},
		{
			"constant": true,
			"inputs": [],
			"name": "cobbDouglasAlphaNumerator",
			"outputs": [
				{
					"internalType": "uint32",
					"name": "",
					"type": "uint32"
				}
			],
			"payable": false,
			"stateMutability": "view",
			"type": "function"
		},
		{
			"constant": true,
			"inputs": [
				{
					"internalType": "bytes32",
					"name": "poolId",
					"type": "bytes32"
				},
				{
					"internalType": "address",
					"name": "member",
					"type": "address"
				}
			],
			"name": "computeRewardBalanceOfDelegator",
			"outputs": [
				{
					"internalType": "uint256",
					"name": "reward",
					"type": "uint256"
				}
			],
			"payable": false,
			"stateMutability": "view",
			"type": "function"
		},
		{
			"constant": true,
			"inputs": [
				{
					"internalType": "bytes32",
					"name": "poolId",
					"type": "bytes32"
				}
			],
			"name": "computeRewardBalanceOfOperator",
			"outputs": [
				{
					"internalType": "uint256",
					"name": "reward",
					"type": "uint256"
				}
			],
			"payable": false,
			"stateMutability": "view",
			"type": "function"
		},
		{
			"constant": false,
			"inputs": [
				{
					"internalType": "address",
					"name": "rigoblockPoolAddress",
					"type": "address"
				}
			],
			"name": "createStakingPool",
			"outputs": [
				{
					"internalType": "bytes32",
					"name": "poolId",
					"type": "bytes32"
				}
			],
			"payable": false,
			"stateMutability": "nonpayable",
			"type": "function"
		},
		{
			"constant": true,
			"inputs": [],
			"name": "currentEpoch",
			"outputs": [
				{
					"internalType": "uint256",
					"name": "",
					"type": "uint256"
				}
			],
			"payable": false,
			"stateMutability": "view",
			"type": "function"
		},
		{
			"constant": true,
			"inputs": [],
			"name": "currentEpochStartTimeInSeconds",
			"outputs": [
				{
					"internalType": "uint256",
					"name": "",
					"type": "uint256"
				}
			],
			"payable": false,
			"stateMutability": "view",
			"type": "function"
		},
		{
			"constant": false,
			"inputs": [
				{
					"internalType": "bytes32",
					"name": "poolId",
					"type": "bytes32"
				},
				{
					"internalType": "uint32",
					"name": "newOperatorShare",
					"type": "uint32"
				}
			],
			"name": "decreaseStakingPoolOperatorShare",
			"outputs": [],
			"payable": false,
			"stateMutability": "nonpayable",
			"type": "function"
		},
		{
			"constant": false,
			"inputs": [],
			"name": "endEpoch",
			"outputs": [
				{
					"internalType": "uint256",
					"name": "",
					"type": "uint256"
				}
			],
			"payable": false,
			"stateMutability": "nonpayable",
			"type": "function"
		},
		{
			"constant": true,
			"inputs": [],
			"name": "epochDurationInSeconds",
			"outputs": [
				{
					"internalType": "uint256",
					"name": "",
					"type": "uint256"
				}
			],
			"payable": false,
			"stateMutability": "view",
			"type": "function"
		},
		{
			"constant": false,
			"inputs": [
				{
					"internalType": "bytes32",
					"name": "poolId",
					"type": "bytes32"
				}
			],
			"name": "finalizePool",
			"outputs": [],
			"payable": false,
			"stateMutability": "nonpayable",
			"type": "function"
		},
		{
			"constant": true,
			"inputs": [],
			"name": "getAuthorizedAddresses",
			"outputs": [
				{
					"internalType": "address[]",
					"name": "",
					"type": "address[]"
				}
			],
			"payable": false,
			"stateMutability": "view",
			"type": "function"
		},
		{
			"constant": true,
			"inputs": [],
			"name": "getCurrentEpochEarliestEndTimeInSeconds",
			"outputs": [
				{
					"internalType": "uint256",
					"name": "",
					"type": "uint256"
				}
			],
			"payable": false,
			"stateMutability": "view",
			"type": "function"
		},
		{
			"constant": true,
			"inputs": [
				{
					"internalType": "enum IStructs.StakeStatus",
					"name": "stakeStatus",
					"type": "uint8"
				}
			],
			"name": "getGlobalStakeByStatus",
			"outputs": [
				{
					"components": [
						{
							"internalType": "uint64",
							"name": "currentEpoch",
							"type": "uint64"
						},
						{
							"internalType": "uint96",
							"name": "currentEpochBalance",
							"type": "uint96"
						},
						{
							"internalType": "uint96",
							"name": "nextEpochBalance",
							"type": "uint96"
						}
					],
					"internalType": "struct IStructs.StoredBalance",
					"name": "balance",
					"type": "tuple"
				}
			],
			"payable": false,
			"stateMutability": "view",
			"type": "function"
		},
		{
			"constant": true,
			"inputs": [],
			"name": "getGrgVault",
			"outputs": [
				{
					"internalType": "contract IGrgVault",
					"name": "grgVault",
					"type": "address"
				}
			],
			"payable": false,
			"stateMutability": "view",
			"type": "function"
		},
		{
			"constant": true,
			"inputs": [
				{
					"internalType": "address",
					"name": "staker",
					"type": "address"
				},
				{
					"internalType": "enum IStructs.StakeStatus",
					"name": "stakeStatus",
					"type": "uint8"
				}
			],
			"name": "getOwnerStakeByStatus",
			"outputs": [
				{
					"components": [
						{
							"internalType": "uint64",
							"name": "currentEpoch",
							"type": "uint64"
						},
						{
							"internalType": "uint96",
							"name": "currentEpochBalance",
							"type": "uint96"
						},
						{
							"internalType": "uint96",
							"name": "nextEpochBalance",
							"type": "uint96"
						}
					],
					"internalType": "struct IStructs.StoredBalance",
					"name": "balance",
					"type": "tuple"
				}
			],
			"payable": false,
			"stateMutability": "view",
			"type": "function"
		},
		{
			"constant": true,
			"inputs": [
				{
					"internalType": "address",
					"name": "staker",
					"type": "address"
				},
				{
					"internalType": "bytes32",
					"name": "poolId",
					"type": "bytes32"
				}
			],
			"name": "getStakeDelegatedToPoolByOwner",
			"outputs": [
				{
					"components": [
						{
							"internalType": "uint64",
							"name": "currentEpoch",
							"type": "uint64"
						},
						{
							"internalType": "uint96",
							"name": "currentEpochBalance",
							"type": "uint96"
						},
						{
							"internalType": "uint96",
							"name": "nextEpochBalance",
							"type": "uint96"
						}
					],
					"internalType": "struct IStructs.StoredBalance",
					"name": "balance",
					"type": "tuple"
				}
			],
			"payable": false,
			"stateMutability": "view",
			"type": "function"
		},
		{
			"constant": true,
			"inputs": [
				{
					"internalType": "bytes32",
					"name": "poolId",
					"type": "bytes32"
				}
			],
			"name": "getStakingPool",
			"outputs": [
				{
					"components": [
						{
							"internalType": "address",
							"name": "operator",
							"type": "address"
						},
						{
							"internalType": "uint32",
							"name": "operatorShare",
							"type": "uint32"
						}
					],
					"internalType": "struct IStructs.Pool",
					"name": "",
					"type": "tuple"
				}
			],
			"payable": false,
			"stateMutability": "view",
			"type": "function"
		},
		{
			"constant": true,
			"inputs": [
				{
					"internalType": "bytes32",
					"name": "poolId",
					"type": "bytes32"
				}
			],
			"name": "getStakingPoolStatsThisEpoch",
			"outputs": [
				{
					"components": [
						{
							"internalType": "uint256",
							"name": "feesCollected",
							"type": "uint256"
						},
						{
							"internalType": "uint256",
							"name": "weightedStake",
							"type": "uint256"
						},
						{
							"internalType": "uint256",
							"name": "membersStake",
							"type": "uint256"
						}
					],
					"internalType": "struct IStructs.PoolStats",
					"name": "",
					"type": "tuple"
				}
			],
			"payable": false,
			"stateMutability": "view",
			"type": "function"
		},
		{
			"constant": true,
			"inputs": [
				{
					"internalType": "address",
					"name": "staker",
					"type": "address"
				}
			],
			"name": "getTotalStake",
			"outputs": [
				{
					"internalType": "uint256",
					"name": "",
					"type": "uint256"
				}
			],
			"payable": false,
			"stateMutability": "view",
			"type": "function"
		},
		{
			"constant": true,
			"inputs": [
				{
					"internalType": "bytes32",
					"name": "poolId",
					"type": "bytes32"
				}
			],
			"name": "getTotalStakeDelegatedToPool",
			"outputs": [
				{
					"components": [
						{
							"internalType": "uint64",
							"name": "currentEpoch",
							"type": "uint64"
						},
						{
							"internalType": "uint96",
							"name": "currentEpochBalance",
							"type": "uint96"
						},
						{
							"internalType": "uint96",
							"name": "nextEpochBalance",
							"type": "uint96"
						}
					],
					"internalType": "struct IStructs.StoredBalance",
					"name": "balance",
					"type": "tuple"
				}
			],
			"payable": false,
			"stateMutability": "view",
			"type": "function"
		},
		{
			"constant": true,
			"inputs": [],
			"name": "getWethContract",
			"outputs": [
				{
					"internalType": "contract IEtherToken",
					"name": "wethContract",
					"type": "address"
				}
			],
			"payable": false,
			"stateMutability": "view",
			"type": "function"
		},
		{
			"constant": false,
			"inputs": [
				{
					"internalType": "bytes32",
					"name": "poolId",
					"type": "bytes32"
				},
				{
					"internalType": "address",
					"name": "rigoblockPoolAddress",
					"type": "address"
				}
			],
			"name": "joinStakingPoolAsRbPool",
			"outputs": [],
			"payable": false,
			"stateMutability": "nonpayable",
			"type": "function"
		},
		{
			"constant": true,
			"inputs": [],
			"name": "lastPoolId",
			"outputs": [
				{
					"internalType": "bytes32",
					"name": "",
					"type": "bytes32"
				}
			],
			"payable": false,
			"stateMutability": "view",
			"type": "function"
		},
		{
			"constant": true,
			"inputs": [],
			"name": "minimumPoolStake",
			"outputs": [
				{
					"internalType": "uint256",
					"name": "",
					"type": "uint256"
				}
			],
			"payable": false,
			"stateMutability": "view",
			"type": "function"
		},
		{
			"constant": true,
			"inputs": [],
			"name": "owner",
			"outputs": [
				{
					"internalType": "address",
					"name": "",
					"type": "address"
				}
			],
			"payable": false,
			"stateMutability": "view",
			"type": "function"
		},
		{
			"constant": false,
			"inputs": [
				{
					"internalType": "address",
					"name": "makerAddress",
					"type": "address"
				},
				{
					"internalType": "address",
					"name": "payerAddress",
					"type": "address"
				},
				{
					"internalType": "uint256",
					"name": "protocolFee",
					"type": "uint256"
				}
			],
			"name": "payProtocolFee",
			"outputs": [],
			"payable": true,
			"stateMutability": "payable",
			"type": "function"
		},
		{
			"constant": true,
			"inputs": [
				{
					"internalType": "address",
					"name": "",
					"type": "address"
				}
			],
			"name": "poolIdByRbPool",
			"outputs": [
				{
					"internalType": "bytes32",
					"name": "",
					"type": "bytes32"
				}
			],
			"payable": false,
			"stateMutability": "view",
			"type": "function"
		},
		{
			"constant": true,
			"inputs": [
				{
					"internalType": "bytes32",
					"name": "",
					"type": "bytes32"
				},
				{
					"internalType": "uint256",
					"name": "",
					"type": "uint256"
				}
			],
			"name": "poolStatsByEpoch",
			"outputs": [
				{
					"internalType": "uint256",
					"name": "feesCollected",
					"type": "uint256"
				},
				{
					"internalType": "uint256",
					"name": "weightedStake",
					"type": "uint256"
				},
				{
					"internalType": "uint256",
					"name": "membersStake",
					"type": "uint256"
				}
			],
			"payable": false,
			"stateMutability": "view",
			"type": "function"
		},
		{
			"constant": false,
			"inputs": [
				{
					"internalType": "address",
					"name": "target",
					"type": "address"
				}
			],
			"name": "removeAuthorizedAddress",
			"outputs": [],
			"payable": false,
			"stateMutability": "nonpayable",
			"type": "function"
		},
		{
			"constant": false,
			"inputs": [
				{
					"internalType": "address",
					"name": "target",
					"type": "address"
				},
				{
					"internalType": "uint256",
					"name": "index",
					"type": "uint256"
				}
			],
			"name": "removeAuthorizedAddressAtIndex",
			"outputs": [],
			"payable": false,
			"stateMutability": "nonpayable",
			"type": "function"
		},
		{
			"constant": false,
			"inputs": [
				{
					"internalType": "address",
					"name": "addr",
					"type": "address"
				}
			],
			"name": "removeExchangeAddress",
			"outputs": [],
			"payable": false,
			"stateMutability": "nonpayable",
			"type": "function"
		},
		{
			"constant": true,
			"inputs": [],
			"name": "rewardDelegatedStakeWeight",
			"outputs": [
				{
					"internalType": "uint32",
					"name": "",
					"type": "uint32"
				}
			],
			"payable": false,
			"stateMutability": "view",
			"type": "function"
		},
		{
			"constant": true,
			"inputs": [
				{
					"internalType": "bytes32",
					"name": "",
					"type": "bytes32"
				}
			],
			"name": "rewardsByPoolId",
			"outputs": [
				{
					"internalType": "uint256",
					"name": "",
					"type": "uint256"
				}
			],
			"payable": false,
			"stateMutability": "view",
			"type": "function"
		},
		{
			"constant": true,
			"inputs": [
				{
					"internalType": "bytes32",
					"name": "",
					"type": "bytes32"
				},
				{
					"internalType": "uint256",
					"name": "",
					"type": "uint256"
				}
			],
			"name": "rigoblockOperatorPools",
			"outputs": [
				{
					"internalType": "address",
					"name": "",
					"type": "address"
				}
			],
			"payable": false,
			"stateMutability": "view",
			"type": "function"
		},
		{
			"constant": true,
			"inputs": [],
			"name": "stakingContract",
			"outputs": [
				{
					"internalType": "address",
					"name": "",
					"type": "address"
				}
			],
			"payable": false,
			"stateMutability": "view",
			"type": "function"
		},
		{
			"constant": false,
			"inputs": [
				{
					"internalType": "address",
					"name": "newOwner",
					"type": "address"
				}
			],
			"name": "transferOwnership",
			"outputs": [],
			"payable": false,
			"stateMutability": "nonpayable",
			"type": "function"
		},
		{
			"constant": true,
			"inputs": [
				{
					"internalType": "address",
					"name": "",
					"type": "address"
				}
			],
			"name": "validPops",
			"outputs": [
				{
					"internalType": "bool",
					"name": "",
					"type": "bool"
				}
			],
			"payable": false,
			"stateMutability": "view",
			"type": "function"
		},
		{
			"constant": true,
			"inputs": [],
			"name": "wethReservedForPoolRewards",
			"outputs": [
				{
					"internalType": "uint256",
					"name": "",
					"type": "uint256"
				}
			],
			"payable": false,
			"stateMutability": "view",
			"type": "function"
		},
		{
			"constant": false,
			"inputs": [
				{
					"internalType": "bytes32",
					"name": "poolId",
					"type": "bytes32"
				}
			],
			"name": "withdrawDelegatorRewards",
			"outputs": [],
			"payable": false,
			"stateMutability": "nonpayable",
			"type": "function"
		}
	]
}