{
	"data": {
		"bytecode": {
			"linkReferences": {},
			"object": "6080604052336000806101000a81548173ffffffffffffffffffffffffffffffffffffffff021916908373ffffffffffffffffffffffffffffffffffffffff160217905550616ddf806100536000396000f3fe6080604052600436106102725760003560e01c806383b15f891161014f578063bb7ef7e0116100c1578063e8eeb3f81161007a578063e8eeb3f814610a0b578063e907f00314610a36578063ee99205c14610a73578063f252b7a114610a9e578063f2fde38b14610adb578063ff691b1114610b0457610272565b8063bb7ef7e0146108d3578063c18c914114610910578063d39de6e91461094d578063e0822db714610978578063e0ee036e146109a3578063e804d0a4146109ce57610272565b8063a3b4a32711610113578063a3b4a327146107d0578063a657e579146107ec578063b053152414610817578063b2baa33e14610842578063b510879f1461086d578063b91816111461089657610272565b806383b15f89146106eb5780638a2e271a146107285780638da5cb5b146107515780639ad267441461077c578063a26171e2146107a557610272565b8063494503d4116101e85780635e30deff116101ac5780635e30deff146105db57806363403801146106185780637071293914610643578063734fc76b1461066c578063766718081461069557806381666796146106c057610272565b8063494503d4146104d05780634bcc3f671461050d578063587da0231461054a5780635bd4ab73146105755780635d91121d146105b257610272565b80633c277fc51161023a5780633c277fc5146103885780633cb25d34146103b35780633e4ad732146103f057806342f1181e1461042d57806344a6958b1461045657806346b979591461049357610272565b806301e28d84146102775780630b9663db146102a05780631e7ff8f6146102cb5780632a94c2791461030857806338229d9314610347575b600080fd5b34801561028357600080fd5b5061029e60048036036102999190810190615db9565b610b2d565b005b3480156102ac57600080fd5b506102b5610c2c565b6040516102c2919061689c565b60405180910390f35b3480156102d757600080fd5b506102f260048036036102ed9190810190615db9565b610db7565b6040516102ff919061689c565b60405180910390f35b34801561031457600080fd5b5061032f600480360361032a9190810190615f73565b610e50565b60405161033e939291906168e0565b60405180910390f35b34801561035357600080fd5b5061036e60048036036103699190810190616014565b610e87565b60405161037f95949392919061695c565b60405180910390f35b34801561039457600080fd5b5061039d610ebd565b6040516103aa919061668c565b60405180910390f35b3480156103bf57600080fd5b506103da60048036036103d59190810190615f73565b610edc565b6040516103e79190616507565b60405180910390f35b3480156103fc57600080fd5b5061041760048036036104129190810190615f0e565b610f27565b6040516104249190616881565b60405180910390f35b34801561043957600080fd5b50610454600480360361044f9190810190615db9565b610f54565b005b34801561046257600080fd5b5061047d60048036036104789190810190615e6d565b610f68565b60405161048a9190616881565b60405180910390f35b34801561049f57600080fd5b506104ba60048036036104b59190810190615f0e565b610fe4565b6040516104c7919061684b565b60405180910390f35b3480156104dc57600080fd5b506104f760048036036104f29190810190616014565b611042565b6040516105049190616507565b60405180910390f35b34801561051957600080fd5b50610534600480360361052f9190810190615f0e565b61107e565b6040516105419190616866565b60405180910390f35b34801561055657600080fd5b5061055f611127565b60405161056c919061689c565b60405180910390f35b34801561058157600080fd5b5061059c60048036036105979190810190615db9565b61112d565b6040516105a991906165f6565b60405180910390f35b3480156105be57600080fd5b506105d960048036036105d49190810190615faf565b61114d565b005b3480156105e757600080fd5b5061060260048036036105fd9190810190615db9565b611202565b60405161060f9190616611565b60405180910390f35b34801561062457600080fd5b5061062d61121a565b60405161063a919061689c565b60405180910390f35b34801561064f57600080fd5b5061066a60048036036106659190810190615db9565b611220565b005b34801561067857600080fd5b50610693600480360361068e9190810190615f37565b611329565b005b3480156106a157600080fd5b506106aa61180b565b6040516106b7919061689c565b60405180910390f35b3480156106cc57600080fd5b506106d5611811565b6040516106e291906169af565b60405180910390f35b3480156106f757600080fd5b50610712600480360361070d919081019061611f565b611827565b60405161071f9190616611565b60405180910390f35b34801561073457600080fd5b5061074f600480360361074a9190810190615db9565b6119a3565b005b34801561075d57600080fd5b50610766611aa3565b6040516107739190616507565b60405180910390f35b34801561078857600080fd5b506107a3600480360361079e9190810190615ea9565b611ac8565b005b3480156107b157600080fd5b506107ba611ade565b6040516107c7919061689c565b60405180910390f35b6107ea60048036036107e59190810190615de2565b611ae4565b005b3480156107f857600080fd5b50610801611de5565b60405161080e9190616611565b60405180910390f35b34801561082357600080fd5b5061082c611deb565b604051610839919061689c565b60405180910390f35b34801561084e57600080fd5b50610857611df1565b604051610864919061689c565b60405180910390f35b34801561087957600080fd5b50610894600480360361088f9190810190615f0e565b611e0f565b005b3480156108a257600080fd5b506108bd60048036036108b89190810190615db9565b611e1c565b6040516108ca91906165f6565b60405180910390f35b3480156108df57600080fd5b506108fa60048036036108f59190810190615f0e565b611e3c565b604051610907919061689c565b60405180910390f35b34801561091c57600080fd5b5061093760048036036109329190810190615f0e565b611f11565b604051610944919061689c565b60405180910390f35b34801561095957600080fd5b50610962611f29565b60405161096f91906165d4565b60405180910390f35b34801561098457600080fd5b5061098d611fb7565b60405161099a91906166a7565b60405180910390f35b3480156109af57600080fd5b506109b8611fd6565b6040516109c591906169af565b60405180910390f35b3480156109da57600080fd5b506109f560048036036109f09190810190615feb565b611fec565b604051610a029190616881565b60405180910390f35b348015610a1757600080fd5b50610a2061217c565b604051610a2d91906169af565b60405180910390f35b348015610a4257600080fd5b50610a5d6004803603610a589190810190615f37565b612192565b604051610a6a919061689c565b60405180910390f35b348015610a7f57600080fd5b50610a88612274565b604051610a959190616507565b60405180910390f35b348015610aaa57600080fd5b50610ac56004803603610ac09190810190615e31565b61229a565b604051610ad29190616881565b60405180910390f35b348015610ae757600080fd5b50610b026004803603610afd9190810190615db9565b612305565b005b348015610b1057600080fd5b50610b2b6004803603610b269190810190615f0e565b6123f5565b005b610b356126d3565b601160008273ffffffffffffffffffffffffffffffffffffffff1673ffffffffffffffffffffffffffffffffffffffff16815260200190815260200160002060009054906101000a900460ff16610b9a57610b99610b94600183612738565b6127ba565b5b6000601160008373ffffffffffffffffffffffffffffffffffffffff1673ffffffffffffffffffffffffffffffffffffffff16815260200190815260200160002060006101000a81548160ff0219169083151502179055507ff50d0d312d501878616eb5e78ebf3ed6dcd3955aaef8165af9c6b057cc4832fb81604051610c219190616507565b60405180910390a150565b600080600d5490506000610c4a6001836127c290919063ffffffff16565b905060006017600083815260200190815260200160002060010154905060008114610c8257610c81610c7c83836127ec565b6127ba565b5b610c8a61286e565b610c926128e7565b6017600085815260200190815260200160002060000181905550610cb4615b85565b601760008581526020019081526020016000206040518060a0016040529081600082015481526020016001820154815260200160028201548152602001600382015481526020016004820154815250509050837fbb4a26fa0ace13ee4da343896c20eaa44a618fb9071fdd8c2e2c960a4583189d8260200151836000015184604001518560600151604051610d4c9493929190616917565b60405180910390a2610d5c612995565b600081602001511415610da957837fb463d19ecf455be65365092cf8e1db6934a0334cf8cd532ddf9964d01f36b5b260008360000151604051610da0929190616782565b60405180910390a25b806020015194505050505090565b6000610dc1611fb7565b73ffffffffffffffffffffffffffffffffffffffff166370a08231836040518263ffffffff1660e01b8152600401610df99190616507565b60206040518083038186803b158015610e1157600080fd5b505afa158015610e25573d6000803e3d6000fd5b505050506040513d601f19601f82011682018060405250610e49919081019061603d565b9050919050565b6016602052816000526040600020602052806000526040600020600091509150508060000154908060010154908060020154905083565b60176020528060005260406000206000915090508060000154908060010154908060020154908060030154908060040154905085565b600073c02aaa39b223fe8d0a0e5c4f27ead9083c756cc2905080905090565b600a6020528160005260406000208181548110610ef557fe5b906000526020600020016000915091509054906101000a900473ffffffffffffffffffffffffffffffffffffffff1681565b610f2f615bb4565b610f4a600760008481526020019081526020016000206129ee565b9050809050919050565b610f5c612b2d565b610f6581612bb7565b50565b610f70615bb4565b610fd960056000846001811115610f8357fe5b60ff1660ff16815260200190815260200160002060008573ffffffffffffffffffffffffffffffffffffffff1673ffffffffffffffffffffffffffffffffffffffff1681526020019081526020016000206129ee565b905080905092915050565b610fec615bfb565b601660008381526020019081526020016000206000600d54815260200190815260200160002060405180606001604052908160008201548152602001600182015481526020016002820154815250509050919050565b6002818154811061104f57fe5b906000526020600020016000915054906101000a900473ffffffffffffffffffffffffffffffffffffffff1681565b611086615c1c565b600b60008381526020019081526020016000206040518060400160405290816000820160009054906101000a900473ffffffffffffffffffffffffffffffffffffffff1673ffffffffffffffffffffffffffffffffffffffff1673ffffffffffffffffffffffffffffffffffffffff1681526020016000820160149054906101000a900463ffffffff1663ffffffff1663ffffffff16815250509050919050565b600e5481565b60116020528060005260406000206000915054906101000a900460ff1681565b8161115781612d7b565b6000600b600085815260200190815260200160002060000160149054906101000a900463ffffffff16905061118d848285612e00565b82600b600086815260200190815260200160002060000160146101000a81548163ffffffff021916908363ffffffff160217905550837f8ea2a7a959bd25f226b7b0a4393613f7fdcaa8404e8bad96aa52dc1c1459016782856040516111f49291906169ca565b60405180910390a250505050565b60096020528060005260406000206000915090505481565b60125481565b611228612b2d565b600160008273ffffffffffffffffffffffffffffffffffffffff1673ffffffffffffffffffffffffffffffffffffffff16815260200190815260200160002060009054906101000a900460ff1661128b5761128a61128582612e5f565b6127ba565b5b60008090505b600280549050811015611325578173ffffffffffffffffffffffffffffffffffffffff16600282815481106112c257fe5b9060005260206000200160009054906101000a900473ffffffffffffffffffffffffffffffffffffffff1673ffffffffffffffffffffffffffffffffffffffff161415611318576113138282612ede565b611325565b8080600101915050611291565b5050565b600080600073ffffffffffffffffffffffffffffffffffffffff1663b72e717d846040518263ffffffff1660e01b81526004016113669190616507565b60006040518083038186803b15801561137e57600080fd5b505afa158015611392573d6000803e3d6000fd5b505050506040513d6000823e3d601f19601f820116820180604052506113bb9190810190616066565b5094505050509150600082141580156113ff57503373ffffffffffffffffffffffffffffffffffffffff168173ffffffffffffffffffffffffffffffffffffffff16145b61143e576040517f08c379a0000000000000000000000000000000000000000000000000000000008152600401611435906167ab565b60405180910390fd5b6000600960008573ffffffffffffffffffffffffffffffffffffffff1673ffffffffffffffffffffffffffffffffffffffff1681526020019081526020016000205490506000600a6000838152602001908152602001600020805490509050606481106114e0576040517f08c379a00000000000000000000000000000000000000000000000000000000081526004016114d7906167eb565b60405180910390fd5b6000801b82146117045760006060600a6000600960008a73ffffffffffffffffffffffffffffffffffffffff1673ffffffffffffffffffffffffffffffffffffffff1681526020019081526020016000205481526020019081526020016000208054806020026020016040519081016040528092919081815260200182805480156115c057602002820191906000526020600020905b8160009054906101000a900473ffffffffffffffffffffffffffffffffffffffff1673ffffffffffffffffffffffffffffffffffffffff1681526020019060010190808311611576575b5050505050905060008090505b83811015611631578773ffffffffffffffffffffffffffffffffffffffff168282815181106115f857fe5b602002602001015173ffffffffffffffffffffffffffffffffffffffff161461162057611624565b8092505b80806001019150506115cd565b508060018251038151811061164257fe5b6020026020010151600a6000868152602001908152602001600020838154811061166857fe5b9060005260206000200160006101000a81548173ffffffffffffffffffffffffffffffffffffffff021916908373ffffffffffffffffffffffffffffffffffffffff160217905550600a60008581526020019081526020016000208054806116cc57fe5b6001900381819060005260206000200160006101000a81549073ffffffffffffffffffffffffffffffffffffffff0219169055905550505b85600960008773ffffffffffffffffffffffffffffffffffffffff1673ffffffffffffffffffffffffffffffffffffffff16815260200190815260200160002081905550600a60008781526020019081526020016000208590806001815401808255809150509060018203906000526020600020016000909192909190916101000a81548173ffffffffffffffffffffffffffffffffffffffff021916908373ffffffffffffffffffffffffffffffffffffffff16021790555050858573ffffffffffffffffffffffffffffffffffffffff167fe8b9f7ee7a4480d45b60e98f7b2090dd82e2353b8557a6ee2dd2d5ee9196bac260405160405180910390a3505050505050565b600d5481565b601560009054906101000a900463ffffffff1681565b600080339050611846600160085460001c61317490919063ffffffff16565b60001b6008819055915061185e82620f424086612e00565b611866615c1c565b60405180604001604052808373ffffffffffffffffffffffffffffffffffffffff1681526020018663ffffffff16815250905080600b600085815260200190815260200160002060008201518160000160006101000a81548173ffffffffffffffffffffffffffffffffffffffff021916908373ffffffffffffffffffffffffffffffffffffffff16021790555060208201518160000160146101000a81548163ffffffff021916908363ffffffff1602179055509050507fcec6fc86ea644053f6edff1160dfe3fa5c61e7a5ef9f873f145bb03a0bd319e78383876040516119519392919061662c565b60405180910390a1600073ffffffffffffffffffffffffffffffffffffffff168473ffffffffffffffffffffffffffffffffffffffff1614611998576119978385611329565b5b829250505092915050565b6119ab6126d3565b601160008273ffffffffffffffffffffffffffffffffffffffff1673ffffffffffffffffffffffffffffffffffffffff16815260200190815260200160002060009054906101000a900460ff1615611a1157611a10611a0b600083612738565b6127ba565b5b6001601160008373ffffffffffffffffffffffffffffffffffffffff1673ffffffffffffffffffffffffffffffffffffffff16815260200190815260200160002060006101000a81548160ff0219169083151502179055507f3e535d1ab441ef41c268fd9b52b478aee02d693c5ca2a84b5d26b89e0922e5e181604051611a989190616507565b60405180910390a150565b6000809054906101000a900473ffffffffffffffffffffffffffffffffffffffff1681565b611ad0612b2d565b611ada8282612ede565b5050565b60145481565b601160003373ffffffffffffffffffffffffffffffffffffffff1673ffffffffffffffffffffffffffffffffffffffff16815260200190815260200160002060009054906101000a900460ff16611b4757611b46611b41336131a3565b6127ba565b5b611b5081613222565b6000341415611c2f57611b61610ebd565b73ffffffffffffffffffffffffffffffffffffffff166323b872dd8330846040518463ffffffff1660e01b8152600401611b9d9392919061654b565b602060405180830381600087803b158015611bb757600080fd5b505af1158015611bcb573d6000803e3d6000fd5b505050506040513d601f19601f82011682018060405250611bef9190810190615ee5565b611c2e576040517f08c379a0000000000000000000000000000000000000000000000000000000008152600401611c259061682b565b60405180910390fd5b5b6000600960008573ffffffffffffffffffffffffffffffffffffffff1673ffffffffffffffffffffffffffffffffffffffff1681526020019081526020016000205490506000801b811415611c845750611de0565b6000611c8f82610f27565b602001516bffffffffffffffffffffffff169050601454811015611cb4575050611de0565b6000600d5490506000601660008581526020019081526020016000206000838152602001908152602001600020905060006017600084815260200190815260200160002090506000826000015490506000811415611d9f57600080611d19888861324e565b91509150818560020181905550808560010181905550611d4681856003015461317490919063ffffffff16565b8460030181905550611d666001856001015461317490919063ffffffff16565b846001018190555087867f14b098103235344975b17508c2391721cc9ac3f3fa2b56c7ff46f8480dfd074f60405160405180910390a350505b611db2878261317490919063ffffffff16565b8360000181905550611dd187836002015461317490919063ffffffff16565b82600201819055505050505050505b505050565b60085481565b60185481565b6000611e0a601254600e5461317490919063ffffffff16565b905090565b611e19813361330a565b50565b60016020528060005260406000206000915054906101000a900460ff1681565b6000611e46615c1c565b600b60008481526020019081526020016000206040518060400160405290816000820160009054906101000a900473ffffffffffffffffffffffffffffffffffffffff1673ffffffffffffffffffffffffffffffffffffffff1673ffffffffffffffffffffffffffffffffffffffff1681526020016000820160149054906101000a900463ffffffff1663ffffffff1663ffffffff16815250509050600080611eee85613522565b91509150611f01836020015183836135ff565b5080945050839350505050919050565b600c6020528060005260406000206000915090505481565b60606002805480602002602001604051908101604052809291908181526020018280548015611fad57602002820191906000526020600020905b8160009054906101000a900473ffffffffffffffffffffffffffffffffffffffff1673ffffffffffffffffffffffffffffffffffffffff1681526020019060010190808311611f63575b5050505050905090565b600073ba7f8b5fb1b19c1211c5d49550fcd149177a5eaf905080905090565b601360009054906101000a900463ffffffff1681565b611ff4615bb4565b6120206004600060018081111561200757fe5b60ff1660ff1681526020019081526020016000206129ee565b90506000600181111561202f57fe5b82600181111561203b57fe5b141561217457600061204b611fb7565b73ffffffffffffffffffffffffffffffffffffffff16636b6df5aa6040518163ffffffff1660e01b815260040160206040518083038186803b15801561209057600080fd5b505afa1580156120a4573d6000803e3d6000fd5b505050506040513d601f19601f820116820180604052506120c8919081019061603d565b90506120f76120f283602001516bffffffffffffffffffffffff16836127c290919063ffffffff16565b613653565b82602001906bffffffffffffffffffffffff1690816bffffffffffffffffffffffff168152505061214b61214683604001516bffffffffffffffffffffffff16836127c290919063ffffffff16565b613653565b82604001906bffffffffffffffffffffffff1690816bffffffffffffffffffffffff1681525050505b809050919050565b601560049054906101000a900463ffffffff1681565b600061219c615c1c565b600b60008581526020019081526020016000206040518060400160405290816000820160009054906101000a900473ffffffffffffffffffffffffffffffffffffffff1673ffffffffffffffffffffffffffffffffffffffff1673ffffffffffffffffffffffffffffffffffffffff1681526020016000820160149054906101000a900463ffffffff1663ffffffff1663ffffffff1681525050905060008061224486613522565b915091506000612259846020015184846135ff565b91505061226887878385613689565b94505050505092915050565b600360009054906101000a900473ffffffffffffffffffffffffffffffffffffffff1681565b6122a2615bb4565b6122fa600660008573ffffffffffffffffffffffffffffffffffffffff1673ffffffffffffffffffffffffffffffffffffffff16815260200190815260200160002060008481526020019081526020016000206129ee565b905080905092915050565b61230d612b2d565b600073ffffffffffffffffffffffffffffffffffffffff168173ffffffffffffffffffffffffffffffffffffffff1614156123575761235261234d61387a565b6127ba565b6123f2565b806000806101000a81548173ffffffffffffffffffffffffffffffffffffffff021916908373ffffffffffffffffffffffffffffffffffffffff1602179055508073ffffffffffffffffffffffffffffffffffffffff163373ffffffffffffffffffffffffffffffffffffffff167f8be0079c531659141344cd1fd0a4f28419497f9722a3daafe3b4186f6b6457e060405160405180910390a35b50565b6123fe336138b7565b1561243e576040517f08c379a0000000000000000000000000000000000000000000000000000000008152600401612435906167cb565b60405180910390fd5b6000600d549050600061245b6001836127c290919063ffffffff16565b9050612465615b85565b601760008381526020019081526020016000206040518060a00160405290816000820154815260200160018201548152602001600282015481526020016003820154815260200160048201548152505090506000816020015114156124cc575050506126d0565b6124d4615bfb565b6016600086815260200190815260200160002060008481526020019081526020016000206040518060600160405290816000820154815260200160018201548152602001600282015481525050905060008160000151141561253957505050506126d0565b601660008681526020019081526020016000206000848152602001908152602001600020600080820160009055600182016000905560028201600090555050600061258482846138ca565b90506000806125988884866040015161395c565b9150915087877ff1116b309178aa62dcb6bf8c3b8bc2321724907c7ebf52192d14c8ce3aa9194c84846040516125cf9291906168b7565b60405180910390a360006125ec828461317490919063ffffffff16565b905061260581876080015161317490919063ffffffff16565b8660800181815250601760008981526020019081526020016000206004018190555061263f600187602001516127c290919063ffffffff16565b866020018181525060176000898152602001908152602001600020600101819055506000866020015114156126c757867fb463d19ecf455be65365092cf8e1db6934a0334cf8cd532ddf9964d01f36b5b287608001516126b089608001518a600001516127c290919063ffffffff16565b6040516126be9291906168b7565b60405180910390a25b50505050505050505b50565b600160003373ffffffffffffffffffffffffffffffffffffffff1673ffffffffffffffffffffffffffffffffffffffff16815260200190815260200160002060009054906101000a900460ff166127365761273561273033613aeb565b6127ba565b5b565b606063b9588e4360e01b8383604051602401612755929190616722565b604051602081830303815290604052907bffffffffffffffffffffffffffffffffffffffffffffffffffffffff19166020820180517bffffffffffffffffffffffffffffffffffffffffffffffffffffffff8381831617835250505050905092915050565b805160208201fd5b6000828211156127e1576127e06127db60028585613b6a565b6127ba565b5b818303905092915050565b606063614b800a60e01b83836040516024016128099291906168b7565b604051602081830303815290604052907bffffffffffffffffffffffffffffffffffffffffffffffffffffffff19166020820180517bffffffffffffffffffffffffffffffffffffffffffffffffffffffff8381831617835250505050905092915050565b6000479050600081146128e457612883610ebd565b73ffffffffffffffffffffffffffffffffffffffff1663d0e30db0826040518263ffffffff1660e01b81526004016000604051808303818588803b1580156128ca57600080fd5b505af11580156128de573d6000803e3d6000fd5b50505050505b50565b600061298d6018546128f7610ebd565b73ffffffffffffffffffffffffffffffffffffffff166370a08231306040518263ffffffff1660e01b815260040161292f9190616507565b60206040518083038186803b15801561294757600080fd5b505afa15801561295b573d6000803e3d6000fd5b505050506040513d601f19601f8201168201806040525061297f919081019061603d565b6127c290919063ffffffff16565b905080905090565b600042905060006129a4611df1565b9050818111156129c1576129c06129bb8284613bef565b6127ba565b5b60006129d96001600d5461317490919063ffffffff16565b905080600d8190555082600e81905550505050565b6129f6615bb4565b816040518060600160405290816000820160009054906101000a900467ffffffffffffffff1667ffffffffffffffff1667ffffffffffffffff1681526020016000820160089054906101000a90046bffffffffffffffffffffffff166bffffffffffffffffffffffff166bffffffffffffffffffffffff1681526020016000820160149054906101000a90046bffffffffffffffffffffffff166bffffffffffffffffffffffff166bffffffffffffffffffffffff168152505090506000600d549050816000015167ffffffffffffffff16811115612b2457612ad881613c71565b826000019067ffffffffffffffff16908167ffffffffffffffff1681525050816040015182602001906bffffffffffffffffffffffff1690816bffffffffffffffffffffffff16815250505b81915050919050565b6000809054906101000a900473ffffffffffffffffffffffffffffffffffffffff1673ffffffffffffffffffffffffffffffffffffffff163373ffffffffffffffffffffffffffffffffffffffff1614612bb557612bb4612baf336000809054906101000a900473ffffffffffffffffffffffffffffffffffffffff16613ca3565b6127ba565b5b565b600073ffffffffffffffffffffffffffffffffffffffff168173ffffffffffffffffffffffffffffffffffffffff161415612bfd57612bfc612bf7613d25565b6127ba565b5b600160008273ffffffffffffffffffffffffffffffffffffffff1673ffffffffffffffffffffffffffffffffffffffff16815260200190815260200160002060009054906101000a900460ff1615612c6157612c60612c5b82613d62565b6127ba565b5b60018060008373ffffffffffffffffffffffffffffffffffffffff1673ffffffffffffffffffffffffffffffffffffffff16815260200190815260200160002060006101000a81548160ff02191690831515021790555060028190806001815401808255809150509060018203906000526020600020016000909192909190916101000a81548173ffffffffffffffffffffffffffffffffffffffff021916908373ffffffffffffffffffffffffffffffffffffffff160217905550503373ffffffffffffffffffffffffffffffffffffffff168173ffffffffffffffffffffffffffffffffffffffff167f3147867c59d17e8fa9d522465651d44aae0a9e38f902f3475b97e58072f0ed4c60405160405180910390a350565b6000600b600083815260200190815260200160002060000160009054906101000a900473ffffffffffffffffffffffffffffffffffffffff1690508073ffffffffffffffffffffffffffffffffffffffff163373ffffffffffffffffffffffffffffffffffffffff1614612dfc57612dfb612df63384613de1565b6127ba565b5b5050565b620f424063ffffffff168163ffffffff161115612e3057612e2b612e2660008584613e63565b6127ba565b612e5a565b8163ffffffff168163ffffffff161115612e5957612e58612e5360018584613e63565b6127ba565b5b5b505050565b606063eb5108a260e01b82604051602401612e7a9190616507565b604051602081830303815290604052907bffffffffffffffffffffffffffffffffffffffffffffffffffffffff19166020820180517bffffffffffffffffffffffffffffffffffffffffffffffffffffffff83818316178352505050509050919050565b600160008373ffffffffffffffffffffffffffffffffffffffff1673ffffffffffffffffffffffffffffffffffffffff16815260200190815260200160002060009054906101000a900460ff16612f4157612f40612f3b83612e5f565b6127ba565b5b6002805490508110612f6557612f64612f5f82600280549050613ee8565b6127ba565b5b8173ffffffffffffffffffffffffffffffffffffffff1660028281548110612f8957fe5b9060005260206000200160009054906101000a900473ffffffffffffffffffffffffffffffffffffffff1673ffffffffffffffffffffffffffffffffffffffff16146130195761301861301360028381548110612fe257fe5b9060005260206000200160009054906101000a900473ffffffffffffffffffffffffffffffffffffffff1684613f6a565b6127ba565b5b600160008373ffffffffffffffffffffffffffffffffffffffff1673ffffffffffffffffffffffffffffffffffffffff16815260200190815260200160002060006101000a81549060ff021916905560026001600280549050038154811061307d57fe5b9060005260206000200160009054906101000a900473ffffffffffffffffffffffffffffffffffffffff16600282815481106130b557fe5b9060005260206000200160006101000a81548173ffffffffffffffffffffffffffffffffffffffff021916908373ffffffffffffffffffffffffffffffffffffffff16021790555060016002818180549050039150816131159190615c52565b503373ffffffffffffffffffffffffffffffffffffffff168273ffffffffffffffffffffffffffffffffffffffff167f1f32c1b084e2de0713b8fb16bd46bb9df710a3dbeae2f3ca93af46e016dcc6b060405160405180910390a35050565b6000808284019050838110156131995761319861319360008686613b6a565b6127ba565b5b8091505092915050565b606063b56d2df060e01b826040516024016131be9190616507565b604051602081830303815290604052907bffffffffffffffffffffffffffffffffffffffffffffffffffffffff19166020820180517bffffffffffffffffffffffffffffffffffffffffffffffffffffffff83818316178352505050509050919050565b803414158015613233575060003414155b1561324b5761324a6132458234613fec565b6127ba565b5b50565b6000806000613293600b600087815260200190815260200160002060000160009054906101000a900473ffffffffffffffffffffffffffffffffffffffff168661229a565b602001516bffffffffffffffffffffffff1690506132ba81856127c290919063ffffffff16565b92506132fa6132eb601360009054906101000a900463ffffffff1663ffffffff16620f424063ffffffff168661406e565b8261317490919063ffffffff16565b9150828292509250509250929050565b613313826140a1565b60006133228383600080613689565b905061337c600660008473ffffffffffffffffffffffffffffffffffffffff1673ffffffffffffffffffffffffffffffffffffffff16815260200190815260200160002060008581526020019081526020016000206129ee565b600660008473ffffffffffffffffffffffffffffffffffffffff1673ffffffffffffffffffffffffffffffffffffffff168152602001908152602001600020600085815260200190815260200160002060008201518160000160006101000a81548167ffffffffffffffff021916908367ffffffffffffffff16021790555060208201518160000160086101000a8154816bffffffffffffffffffffffff02191690836bffffffffffffffffffffffff16021790555060408201518160000160146101000a8154816bffffffffffffffffffffffff02191690836bffffffffffffffffffffffff160217905550905050600081146135145761347e8382614136565b613486610ebd565b73ffffffffffffffffffffffffffffffffffffffff1663a9059cbb83836040518363ffffffff1660e01b81526004016134c09291906165ab565b602060405180830381600087803b1580156134da57600080fd5b505af11580156134ee573d6000803e3d6000fd5b505050506040513d601f19601f820116820180604052506135129190810190615ee5565b505b61351d83614192565b505050565b600080600061353d6001600d546127c290919063ffffffff16565b9050613547615bfb565b601660008681526020019081526020016000206000838152602001908152602001600020604051806060016040529081600082015481526020016001820154815260200160028201548152505090506135ef81601760008581526020019081526020016000206040518060a0016040529081600082015481526020016001820154815260200160028201548152602001600382015481526020016004820154815250506138ca565b9350806040015192505050915091565b600080600083141561361357839150613645565b61362d8563ffffffff16620f424063ffffffff16866141a2565b915061364282856127c290919063ffffffff16565b90505b818191509150935093915050565b600081905081816bffffffffffffffffffffffff16146136815761368061367b6002846141fa565b6127ba565b5b809050919050565b600080600d549050613699615bb4565b600660008773ffffffffffffffffffffffffffffffffffffffff1673ffffffffffffffffffffffffffffffffffffffff16815260200190815260200160002060008881526020019081526020016000206040518060600160405290816000820160009054906101000a900467ffffffffffffffff1667ffffffffffffffff1667ffffffffffffffff1681526020016000820160089054906101000a90046bffffffffffffffffffffffff166bffffffffffffffffffffffff166bffffffffffffffffffffffff1681526020016000820160149054906101000a90046bffffffffffffffffffffffff166bffffffffffffffffffffffff166bffffffffffffffffffffffff1681525050905081816000015167ffffffffffffffff1614156137c557600092505050613872565b6137d18183878761427c565b925060006137f76001836000015167ffffffffffffffff1661317490919063ffffffff16565b90506138376138288984602001516bffffffffffffffffffffffff16856000015167ffffffffffffffff168561430f565b8561317490919063ffffffff16565b935061386961385a8984604001516bffffffffffffffffffffffff16848761430f565b8561317490919063ffffffff16565b93508393505050505b949350505050565b60606040518060400160405280600481526020017fe69edc3e00000000000000000000000000000000000000000000000000000000815250905090565b600080823b905060008111915050919050565b600080836000015114156138e057809050613956565b61392782600001518460000151846040015186602001518660600151601560009054906101000a900463ffffffff16601560049054906101000a900463ffffffff166143c0565b90506000613946836080015184600001516127c290919063ffffffff16565b905081811015613954578091505b505b92915050565b600080613967615c1c565b600b60008781526020019081526020016000206040518060400160405290816000820160009054906101000a900473ffffffffffffffffffffffffffffffffffffffff1673ffffffffffffffffffffffffffffffffffffffff1673ffffffffffffffffffffffffffffffffffffffff1681526020016000820160149054906101000a900463ffffffff1663ffffffff1663ffffffff16815250509050613a12816020015186866135ff565b80935081945050506000831115613abd57613a2b610ebd565b73ffffffffffffffffffffffffffffffffffffffff1663a9059cbb8260000151856040518363ffffffff1660e01b8152600401613a699291906165ab565b602060405180830381600087803b158015613a8357600080fd5b505af1158015613a97573d6000803e3d6000fd5b505050506040513d601f19601f82011682018060405250613abb9190810190615ee5565b505b6000821115613adc57613ad0868361448d565b613adb8683866144e9565b5b82829250925050935093915050565b606063b65a25b960e01b82604051602401613b069190616507565b604051602081830303815290604052907bffffffffffffffffffffffffffffffffffffffffffffffffffffffff19166020820180517bffffffffffffffffffffffffffffffffffffffffffffffffffffffff83818316178352505050509050919050565b606063e946c1bb60e01b848484604051602401613b89939291906166c2565b604051602081830303815290604052907bffffffffffffffffffffffffffffffffffffffffffffffffffffffff19166020820180517bffffffffffffffffffffffffffffffffffffffffffffffffffffffff838183161783525050505090509392505050565b606063a6bcde4760e01b8383604051602401613c0c9291906168b7565b604051602081830303815290604052907bffffffffffffffffffffffffffffffffffffffffffffffffffffffff19166020820180517bffffffffffffffffffffffffffffffffffffffffffffffffffffffff8381831617835250505050905092915050565b6000819050818167ffffffffffffffff1614613c9b57613c9a613c956001846141fa565b6127ba565b5b809050919050565b6060631de45ad160e01b8383604051602401613cc0929190616522565b604051602081830303815290604052907bffffffffffffffffffffffffffffffffffffffffffffffffffffffff19166020820180517bffffffffffffffffffffffffffffffffffffffffffffffffffffffff8381831617835250505050905092915050565b60606040518060400160405280600481526020017f57654fe400000000000000000000000000000000000000000000000000000000815250905090565b606063de16f1a060e01b82604051602401613d7d9190616507565b604051602081830303815290604052907bffffffffffffffffffffffffffffffffffffffffffffffffffffffff19166020820180517bffffffffffffffffffffffffffffffffffffffffffffffffffffffff83818316178352505050509050919050565b60606382ded78560e01b8383604051602401613dfe929190616582565b604051602081830303815290604052907bffffffffffffffffffffffffffffffffffffffffffffffffffffffff19166020820180517bffffffffffffffffffffffffffffffffffffffffffffffffffffffff8381831617835250505050905092915050565b60606322df959760e01b848484604051602401613e829392919061674b565b604051602081830303815290604052907bffffffffffffffffffffffffffffffffffffffffffffffffffffffff19166020820180517bffffffffffffffffffffffffffffffffffffffffffffffffffffffff838183161783525050505090509392505050565b606063e9f8377160e01b8383604051602401613f059291906168b7565b604051602081830303815290604052907bffffffffffffffffffffffffffffffffffffffffffffffffffffffff19166020820180517bffffffffffffffffffffffffffffffffffffffffffffffffffffffff8381831617835250505050905092915050565b606063140a84db60e01b8383604051602401613f87929190616522565b604051602081830303815290604052907bffffffffffffffffffffffffffffffffffffffffffffffffffffffff19166020820180517bffffffffffffffffffffffffffffffffffffffffffffffffffffffff8381831617835250505050905092915050565b60606331d7a50560e01b83836040516024016140099291906168b7565b604051602081830303815290604052907bffffffffffffffffffffffffffffffffffffffffffffffffffffffff19166020820180517bffffffffffffffffffffffffffffffffffffffffffffffffffffffff8381831617835250505050905092915050565b600061409583614087848761463c90919063ffffffff16565b61468690919063ffffffff16565b90508090509392505050565b60006140b96001600d546127c290919063ffffffff16565b90506140c3615bfb565b6016600084815260200190815260200160002060008381526020019081526020016000206040518060600160405290816000820154815260200160018201548152602001600282015481525050905060008160000151146141315761413061412b84846146bd565b6127ba565b5b505050565b61415c81600c6000858152602001908152602001600020546127c290919063ffffffff16565b600c600084815260200190815260200160002081905550614188816018546127c290919063ffffffff16565b6018819055505050565b61419f81600060016144e9565b50565b60006141ee836141e06141bf6001876127c290919063ffffffff16565b6141d2868961463c90919063ffffffff16565b61317490919063ffffffff16565b61468690919063ffffffff16565b90508090509392505050565b606063c996af7b60e01b83836040516024016142179291906166f9565b604051602081830303815290604052907bffffffffffffffffffffffffffffffffffffffffffffffffffffffff19166020820180517bffffffffffffffffffffffffffffffffffffffffffffffffffffffff8381831617835250505050905092915050565b60008083148061428c5750600082145b1561429a5760009050614307565b60006142b06001866127c290919063ffffffff16565b866000015167ffffffffffffffff1610156142cf5785604001516142d5565b85602001515b6bffffffffffffffffffffffff16905060008114156142f8576000915050614307565b61430384848361406e565b9150505b949350505050565b60008084148061431e57508183145b1561432c57600090506143b8565b81831061436e576040517f08c379a00000000000000000000000000000000000000000000000000000000081526004016143659061680b565b60405180910390fd5b614376615c7e565b614380868561473f565b905061438a615c7e565b614394878561473f565b90506143b381600001518260200151846000015185602001518a6148b6565b925050505b949350505050565b6000806143cd8888614986565b905060006143db8787614986565b905060008214806143ec5750600081145b156143ff57600092508292505050614482565b6000818313156144185761441382846149ec565b614423565b61442283836149ec565b5b905061444c61444761443483614a19565b8863ffffffff168863ffffffff16615081565b61509f565b9050818313156144655761446082826149ec565b614470565b61446f8282615711565b5b905061447c818c61573e565b93505050505b979650505050505050565b6144b381600c60008581526020019081526020016000205461317490919063ffffffff16565b600c6000848152602001908152602001600020819055506144df8160185461317490919063ffffffff16565b6018819055505050565b6000601060008581526020019081526020016000205490506000600d54905080821415614517575050614637565b61451f615c7e565b600f6000878152602001908152602001600020600084815260200190815260200160002060405180604001604052908160008201548152602001600182015481525050905061456c615c7e565b6145758261578b565b156145c95761458e82600001518360200151888861579c565b8260000183602001828152508281525050506145b281600001518260200151615831565b8260000183602001828152508281525050506145de565b85858260000183602001828152508281525050505b80600f600089815260200190815260200160002060008581526020019081526020016000206000820151816000015560208201518160010155905050826010600089815260200190815260200160002081905550505050505b505050565b60008083141561464f5760009050614680565b600082840290508284828161466057fe5b041461467b5761467a61467560018686613b6a565b6127ba565b5b809150505b92915050565b6000808214156146a5576146a461469f60038585613b6a565b6127ba565b5b60008284816146b057fe5b0490508091505092915050565b6060635caa0b0560e01b83836040516024016146da929190616663565b604051602081830303815290604052907bffffffffffffffffffffffffffffffffffffffffffffffffffffffff19166020820180517bffffffffffffffffffffffffffffffffffffffffffffffffffffffff8381831617835250505050905092915050565b614747615c7e565b600f600084815260200190815260200160002060008381526020019081526020016000206040518060400160405290816000820154815260200160018201548152505090506147958161578b565b156147a2578090506148b0565b60006147b86001846127c290919063ffffffff16565b9050600f600085815260200190815260200160002060008281526020019081526020016000206040518060400160405290816000820154815260200160018201548152505091506148088261578b565b1561481657819150506148b0565b6000601060008681526020019081526020016000205490508381101561489457600f600086815260200190815260200160002060008281526020019081526020016000206040518060400160405290816000820154815260200160018201548152505092506148848361578b565b156148935782925050506148b0565b5b6040518060400160405280600081526020016001815250925050505b92915050565b6000808214156148c9576000905061497d565b6000841415614901576148f7856148e9888561463c90919063ffffffff16565b61468690919063ffffffff16565b905080905061497d565b600061493a614919878761463c90919063ffffffff16565b61492c868a61463c90919063ffffffff16565b6127c290919063ffffffff16565b90506000614951858361468690919063ffffffff16565b90506149788761496a838761463c90919063ffffffff16565b61468690919063ffffffff16565b925050505b95945050505050565b6000808312156149a4576149a361499e60018561585a565b6127ba565b5b60008212156149c1576149c06149bb60018461585a565b6127ba565b5b6149e46149de846f800000000000000000000000000000006158e7565b8361594c565b905092915050565b6000614a11614a0b846f800000000000000000000000000000006158e7565b8361594c565b905092915050565b60006f80000000000000000000000000000000821315614a4757614a46614a416001846159e5565b6127ba565b5b60008213614a6357614a62614a5d6000846159e5565b6127ba565b5b6f80000000000000000000000000000000821415614a84576000905061507c565b640733048c5a8213614aac57701ff0000000000000000000000000000000600003905061507c565b60008060006a01c8464f761647600000008513614b0357701000000000000000000000000000000000840393506a01c8464f761647600000006f80000000000000000000000000000000860281614aff57fe5b0594505b6cf1aaddd7742e900000000000008513614b5957700800000000000000000000000000000000840393506cf1aaddd7742e900000000000006f80000000000000000000000000000000860281614b5557fe5b0594505b6e0afe10820813d780000000000000008513614bb357700400000000000000000000000000000000840393506e0afe10820813d780000000000000006f80000000000000000000000000000000860281614baf57fe5b0594505b6f02582ab704279ec000000000000000008513614c0f57700200000000000000000000000000000000840393506f02582ab704279ec000000000000000006f80000000000000000000000000000000860281614c0b57fe5b0594505b6f1152aaa3bf81cc0000000000000000008513614c6b57700100000000000000000000000000000000840393506f1152aaa3bf81cc0000000000000000006f80000000000000000000000000000000860281614c6757fe5b0594505b6f2f16ac6c59de700000000000000000008513614cc6576f80000000000000000000000000000000840393506f2f16ac6c59de700000000000000000006f80000000000000000000000000000000860281614cc257fe5b0594505b6f4da2cbf1be58280000000000000000008513614d21576f40000000000000000000000000000000840393506f4da2cbf1be58280000000000000000006f80000000000000000000000000000000860281614d1d57fe5b0594505b6f63afbe7ab2082c0000000000000000008513614d7c576f20000000000000000000000000000000840393506f63afbe7ab2082c0000000000000000006f80000000000000000000000000000000860281614d7857fe5b0594505b6f70f5a893b608861e1f58934f97aea57d8513614dd7576f10000000000000000000000000000000840393506f70f5a893b608861e1f58934f97aea57d6f80000000000000000000000000000000860281614dd357fe5b0594505b6f80000000000000000000000000000000850392508291506f8000000000000000000000000000000083840281614e0a57fe5b0590507001000000000000000000000000000000008370010000000000000000000000000000000003830281614e3c57fe5b05840193506f8000000000000000000000000000000081830281614e5c57fe5b059150700200000000000000000000000000000000836faaaaaaaaaaaaaaaaaaaaaaaaaaaaaaaa03830281614e8d57fe5b05840193506f8000000000000000000000000000000081830281614ead57fe5b059150700300000000000000000000000000000000836f9999999999999999999999999999999903830281614ede57fe5b05840193506f8000000000000000000000000000000081830281614efe57fe5b059150700400000000000000000000000000000000836f9249249249249249249249249249249203830281614f2f57fe5b05840193506f8000000000000000000000000000000081830281614f4f57fe5b059150700500000000000000000000000000000000836f8e38e38e38e38e38e38e38e38e38e38e03830281614f8057fe5b05840193506f8000000000000000000000000000000081830281614fa057fe5b059150700600000000000000000000000000000000836f8ba2e8ba2e8ba2e8ba2e8ba2e8ba2e8b03830281614fd157fe5b05840193506f8000000000000000000000000000000081830281614ff157fe5b059150700700000000000000000000000000000000836f89d89d89d89d89d89d89d89d89d89d890383028161502257fe5b05840193506f800000000000000000000000000000008183028161504257fe5b059150700800000000000000000000000000000000836f888888888888888888888888888888880383028161507357fe5b05840193505050505b919050565b600061509661509085856158e7565b8361594c565b90509392505050565b6000701ff00000000000000000000000000000006000038212156150c6576000905061570c565b60008214156150e7576f80000000000000000000000000000000905061570c565b6000821315615104576151036150fe6001846159e5565b6127ba565b5b6000806f10000000000000000000000000000000848161512057fe5b0791508190506f800000000000000000000000000000008282028161514157fe5b0590506710e1b3be415a00008102830192506f800000000000000000000000000000008282028161516e57fe5b0590506705a0913f6b1e00008102830192506f800000000000000000000000000000008282028161519b57fe5b059050670168244fdac780008102830192506f80000000000000000000000000000000828202816151c857fe5b059050664807432bc180008102830192506f80000000000000000000000000000000828202816151f457fe5b059050660c0135dca040008102830192506f800000000000000000000000000000008282028161522057fe5b0590506601b707b1cdc0008102830192506f800000000000000000000000000000008282028161524c57fe5b0590506536e0f639b8008102830192506f800000000000000000000000000000008282028161527757fe5b059050650618fee9f8008102830192506f80000000000000000000000000000000828202816152a257fe5b059050649c197dcc008102830192506f80000000000000000000000000000000828202816152cc57fe5b059050640e30dce4008102830192506f80000000000000000000000000000000828202816152f657fe5b05905064012ebd13008102830192506f800000000000000000000000000000008282028161532057fe5b0590506317499f008102830192506f800000000000000000000000000000008282028161534957fe5b0590506301a9d4808102830192506f800000000000000000000000000000008282028161537257fe5b059050621c63808102830192506f800000000000000000000000000000008282028161539a57fe5b0590506201c6388102830192506f80000000000000000000000000000000828202816153c257fe5b059050611ab88102830192506f80000000000000000000000000000000828202816153e957fe5b05905061017c8102830192506f800000000000000000000000000000008282028161541057fe5b05905060148102830192506f800000000000000000000000000000008282028161543657fe5b05905060018102830192506f80000000000000000000000000000000826721c3677c82b40000858161546457fe5b050101925083600003935060007010000000000000000000000000000000008516146154b9577243cbaf42a000812488fc5c220ad7b97bf6e99e6cf1aaddd7742e56d32fb9f997448402816154b557fe5b0592505b6000700800000000000000000000000000000000851614615504577105d27a9f51c31b7c2f8038212a05747799916e0afe10820813d65dfe6a33c07f738f84028161550057fe5b0592505b600070040000000000000000000000000000000085161461554f57701b4c902e273a58678d6d3bfdb93db96d026f02582ab704279e8efd15e0265855c47a84028161554b57fe5b0592505b600070020000000000000000000000000000000085161461559a577003b1cc971a9bb5b9867477440d6d1577506f1152aaa3bf81cb9fdb76eae12d02957184028161559657fe5b0592505b60007001000000000000000000000000000000008516146155e55770015bf0a8b1457695355fb8ac404e7a79e36f2f16ac6c59de6f8d5d6f63c1482a7c868402816155e157fe5b0592505b60006f8000000000000000000000000000000085161461562e576fd3094c70f034de4b96ff7d5b6f99fcd86f4da2cbf1be5827f9eb3ad1aa9866ebb384028161562a57fe5b0592505b60006f40000000000000000000000000000000851614615677576fa45af1e1f40c333b3de1db4dd55f29a76f63afbe7ab2082ba1a0ae5e4eb1b479dc84028161567357fe5b0592505b60006f200000000000000000000000000000008516146156c0576f910b022db7ae67ce76b441c27035c6a16f70f5a893b608861e1f58934f97aea57d8402816156bc57fe5b0592505b60006f10000000000000000000000000000000851614615709576f88415abbe9a76bead8d00cf112e4d4a86f783eafef1c0a8f3978c7f81824d62ebf84028161570557fe5b0592505b50505b919050565b60006f8000000000000000000000000000000061572e84846158e7565b8161573557fe5b05905092915050565b60008082121561575c5761575b61575660018461585a565b6127ba565b5b600061576884846158e7565b90506000811361577c576000915050615785565b607f81901c9150505b92915050565b600080826020015114159050919050565b60008060008614156157b957839150818391508191509150615828565b60008414156157d357859150818591508191509150615828565b61580a6157e9868661463c90919063ffffffff16565b6157fc858961463c90919063ffffffff16565b61317490919063ffffffff16565b915061581f838661463c90919063ffffffff16565b90508181915091505b94509492505050565b60008061584f84846f80000000000000000000000000000000615a72565b915091509250929050565b606063bd79545f60e01b83600181111561587057fe5b83604051602401615882929190616a53565b604051602081830303815290604052907bffffffffffffffffffffffffffffffffffffffffffffffffffffffff19166020820180517bffffffffffffffffffffffffffffffffffffffffffffffffffffffff8381831617835250505050905092915050565b6000808314806158f75750600082145b156159055760009050615946565b81830290508183828161591457fe5b0514158061592b57508282828161592757fe5b0514155b156159455761594461593f60018585615af5565b6127ba565b5b5b92915050565b60008082141561596b5761596a61596560028585615af5565b6127ba565b5b7f8000000000000000000000000000000000000000000000000000000000000000831480156159b957507fffffffffffffffffffffffffffffffffffffffffffffffffffffffffffffffff82145b156159d3576159d26159cd60038585615af5565b6127ba565b5b8183816159dc57fe5b05905092915050565b606063ed2f26a160e01b8360018111156159fb57fe5b83604051602401615a0d9291906169f3565b604051602081830303815290604052907bffffffffffffffffffffffffffffffffffffffffffffffffffffffff19166020820180517bffffffffffffffffffffffffffffffffffffffffffffffffffffffff8381831617835250505050905092915050565b60008082851180615a8257508284115b15615ae057600084861015615a975784615a99565b855b9050615aae848261468690919063ffffffff16565b9050615ac3818761468690919063ffffffff16565b9250615ad8818661468690919063ffffffff16565b915050615ae7565b8491508390505b818191509150935093915050565b6060638c12dfe760e01b846003811115615b0b57fe5b8484604051602401615b1f93929190616a1c565b604051602081830303815290604052907bffffffffffffffffffffffffffffffffffffffffffffffffffffffff19166020820180517bffffffffffffffffffffffffffffffffffffffffffffffffffffffff838183161783525050505090509392505050565b6040518060a0016040528060008152602001600081526020016000815260200160008152602001600081525090565b6040518060600160405280600067ffffffffffffffff16815260200160006bffffffffffffffffffffffff16815260200160006bffffffffffffffffffffffff1681525090565b60405180606001604052806000815260200160008152602001600081525090565b6040518060400160405280600073ffffffffffffffffffffffffffffffffffffffff168152602001600063ffffffff1681525090565b815481835581811115615c7957818360005260206000209182019101615c789190615c98565b5b505050565b604051806040016040528060008152602001600081525090565b615cba91905b80821115615cb6576000816000905550600101615c9e565b5090565b90565b600081359050615ccc81616d19565b92915050565b600081519050615ce181616d19565b92915050565b600081519050615cf681616d30565b92915050565b600081359050615d0b81616d47565b92915050565b600081359050615d2081616d5e565b92915050565b600082601f830112615d3757600080fd5b8151615d4a615d4582616aa9565b616a7c565b91508082526020830160208301858383011115615d6657600080fd5b615d71838284616cb2565b50505092915050565b600081359050615d8981616d6e565b92915050565b600081519050615d9e81616d6e565b92915050565b600081359050615db381616d85565b92915050565b600060208284031215615dcb57600080fd5b6000615dd984828501615cbd565b91505092915050565b600080600060608486031215615df757600080fd5b6000615e0586828701615cbd565b9350506020615e1686828701615cbd565b9250506040615e2786828701615d7a565b9150509250925092565b60008060408385031215615e4457600080fd5b6000615e5285828601615cbd565b9250506020615e6385828601615cfc565b9150509250929050565b60008060408385031215615e8057600080fd5b6000615e8e85828601615cbd565b9250506020615e9f85828601615d11565b9150509250929050565b60008060408385031215615ebc57600080fd5b6000615eca85828601615cbd565b9250506020615edb85828601615d7a565b9150509250929050565b600060208284031215615ef757600080fd5b6000615f0584828501615ce7565b91505092915050565b600060208284031215615f2057600080fd5b6000615f2e84828501615cfc565b91505092915050565b60008060408385031215615f4a57600080fd5b6000615f5885828601615cfc565b9250506020615f6985828601615cbd565b9150509250929050565b60008060408385031215615f8657600080fd5b6000615f9485828601615cfc565b9250506020615fa585828601615d7a565b9150509250929050565b60008060408385031215615fc257600080fd5b6000615fd085828601615cfc565b9250506020615fe185828601615da4565b9150509250929050565b600060208284031215615ffd57600080fd5b600061600b84828501615d11565b91505092915050565b60006020828403121561602657600080fd5b600061603484828501615d7a565b91505092915050565b60006020828403121561604f57600080fd5b600061605d84828501615d8f565b91505092915050565b60008060008060008060c0878903121561607f57600080fd5b600061608d89828a01615d8f565b965050602087015167ffffffffffffffff8111156160aa57600080fd5b6160b689828a01615d26565b955050604087015167ffffffffffffffff8111156160d357600080fd5b6160df89828a01615d26565b94505060606160f089828a01615d8f565b935050608061610189828a01615cd2565b92505060a061611289828a01615cd2565b9150509295509295509295565b6000806040838503121561613257600080fd5b600061614085828601615da4565b925050602061615185828601615cbd565b9150509250929050565b60006161678383616173565b60208301905092915050565b61617c81616b1f565b82525050565b61618b81616b1f565b82525050565b600061619c82616ae5565b6161a68185616afd565b93506161b183616ad5565b8060005b838110156161e25781516161c9888261615b565b97506161d483616af0565b9250506001810190506161b5565b5085935050505092915050565b6161f881616b31565b82525050565b61620781616b3d565b82525050565b61621681616c10565b82525050565b61622581616c34565b82525050565b61623481616c58565b82525050565b61624381616c6a565b82525050565b61625281616c7c565b82525050565b61626181616c8e565b82525050565b61627081616b93565b82525050565b61627f81616ca0565b82525050565b6000616292602d83616b0e565b91507f4f4e4c595f504f4f4c5f4f574e45525f43414e5f4154544143485f524547495360008301527f54455245445f52425f504f4f4c000000000000000000000000000000000000006020830152604082019050919050565b60006162f8601e83616b0e565b91507f43414c4c45525f49535f534d4152545f434f4e54524143545f4552524f5200006000830152602082019050919050565b6000616338601983616b0e565b91507f504f4f4c535f41525241595f544f4f5f4249475f4552524f52000000000000006000830152602082019050919050565b6000616378601383616b0e565b91507f43525f494e54455256414c5f494e56414c4944000000000000000000000000006000830152602082019050919050565b60006163b8601483616b0e565b91507f574554485f5452414e534645525f4641494c45440000000000000000000000006000830152602082019050919050565b606082016000820151616401600085018261649e565b506020820151616414602085018261649e565b506040820151616427604085018261649e565b50505050565b6040820160008201516164436000850182616173565b50602082015161645660208501826164bc565b50505050565b60608201600082015161647260008501826164da565b50602082015161648560208501826164f8565b50604082015161649860408501826164f8565b50505050565b6164a781616bbd565b82525050565b6164b681616bbd565b82525050565b6164c581616bc7565b82525050565b6164d481616bc7565b82525050565b6164e381616bd7565b82525050565b6164f281616beb565b82525050565b61650181616bf8565b82525050565b600060208201905061651c6000830184616182565b92915050565b60006040820190506165376000830185616182565b6165446020830184616182565b9392505050565b60006060820190506165606000830186616182565b61656d6020830185616182565b61657a60408301846164ad565b949350505050565b60006040820190506165976000830185616182565b6165a460208301846161fe565b9392505050565b60006040820190506165c06000830185616182565b6165cd60208301846164ad565b9392505050565b600060208201905081810360008301526165ee8184616191565b905092915050565b600060208201905061660b60008301846161ef565b92915050565b600060208201905061662660008301846161fe565b92915050565b600060608201905061664160008301866161fe565b61664e6020830185616182565b61665b60408301846164cb565b949350505050565b600060408201905061667860008301856161fe565b61668560208301846164ad565b9392505050565b60006020820190506166a1600083018461620d565b92915050565b60006020820190506166bc600083018461621c565b92915050565b60006060820190506166d7600083018661622b565b6166e460208301856164ad565b6166f160408301846164ad565b949350505050565b600060408201905061670e600083018561623a565b61671b60208301846164ad565b9392505050565b60006040820190506167376000830185616249565b6167446020830184616182565b9392505050565b60006060820190506167606000830186616258565b61676d60208301856161fe565b61677a60408301846164cb565b949350505050565b60006040820190506167976000830185616276565b6167a460208301846164ad565b9392505050565b600060208201905081810360008301526167c481616285565b9050919050565b600060208201905081810360008301526167e4816162eb565b9050919050565b600060208201905081810360008301526168048161632b565b9050919050565b600060208201905081810360008301526168248161636b565b9050919050565b60006020820190508181036000830152616844816163ab565b9050919050565b600060608201905061686060008301846163eb565b92915050565b600060408201905061687b600083018461642d565b92915050565b6000606082019050616896600083018461645c565b92915050565b60006020820190506168b160008301846164ad565b92915050565b60006040820190506168cc60008301856164ad565b6168d960208301846164ad565b9392505050565b60006060820190506168f560008301866164ad565b61690260208301856164ad565b61690f60408301846164ad565b949350505050565b600060808201905061692c60008301876164ad565b61693960208301866164ad565b61694660408301856164ad565b61695360608301846164ad565b95945050505050565b600060a08201905061697160008301886164ad565b61697e60208301876164ad565b61698b60408301866164ad565b61699860608301856164ad565b6169a560808301846164ad565b9695505050505050565b60006020820190506169c460008301846164cb565b92915050565b60006040820190506169df60008301856164cb565b6169ec60208301846164cb565b9392505050565b6000604082019050616a0860008301856164e9565b616a156020830184616267565b9392505050565b6000606082019050616a3160008301866164e9565b616a3e6020830185616267565b616a4b6040830184616267565b949350505050565b6000604082019050616a6860008301856164e9565b616a7560208301846164ad565b9392505050565b6000604051905081810181811067ffffffffffffffff82111715616a9f57600080fd5b8060405250919050565b600067ffffffffffffffff821115616ac057600080fd5b601f19601f8301169050602081019050919050565b6000819050602082019050919050565b600081519050919050565b6000602082019050919050565b600082825260208201905092915050565b600082825260208201905092915050565b6000616b2a82616b9d565b9050919050565b60008115159050919050565b6000819050919050565b6000819050616b5582616ce5565b919050565b6000819050616b6882616cf2565b919050565b6000819050616b7b82616cff565b919050565b6000819050616b8e82616d0c565b919050565b6000819050919050565b600073ffffffffffffffffffffffffffffffffffffffff82169050919050565b6000819050919050565b600063ffffffff82169050919050565b600067ffffffffffffffff82169050919050565b600060ff82169050919050565b60006bffffffffffffffffffffffff82169050919050565b6000616c1b82616c22565b9050919050565b6000616c2d82616b9d565b9050919050565b6000616c3f82616c46565b9050919050565b6000616c5182616b9d565b9050919050565b6000616c6382616b47565b9050919050565b6000616c7582616b5a565b9050919050565b6000616c8782616b6d565b9050919050565b6000616c9982616b80565b9050919050565b6000616cab82616bbd565b9050919050565b60005b83811015616cd0578082015181840152602081019050616cb5565b83811115616cdf576000848401525b50505050565b60048110616cef57fe5b50565b60038110616cfc57fe5b50565b60028110616d0957fe5b50565b60028110616d1657fe5b50565b616d2281616b1f565b8114616d2d57600080fd5b50565b616d3981616b31565b8114616d4457600080fd5b50565b616d5081616b3d565b8114616d5b57600080fd5b50565b60028110616d6b57600080fd5b50565b616d7781616bbd565b8114616d8257600080fd5b50565b616d8e81616bc7565b8114616d9957600080fd5b5056fea365627a7a723158201091e180daf90f5965a7a9f2095130496e056fc1195dac0ab931b75bdbc6c24a6c6578706572696d656e74616cf564736f6c63430005110040",
			"opcodes": "PUSH1 0x80 PUSH1 0x40 MSTORE CALLER PUSH1 0x0 DUP1 PUSH2 0x100 EXP DUP2 SLOAD DUP2 PUSH20 0xFFFFFFFFFFFFFFFFFFFFFFFFFFFFFFFFFFFFFFFF MUL NOT AND SWAP1 DUP4 PUSH20 0xFFFFFFFFFFFFFFFFFFFFFFFFFFFFFFFFFFFFFFFF AND MUL OR SWAP1 SSTORE POP PUSH2 0x6DDF DUP1 PUSH2 0x53 PUSH1 0x0 CODECOPY PUSH1 0x0 RETURN INVALID PUSH1 0x80 PUSH1 0x40 MSTORE PUSH1 0x4 CALLDATASIZE LT PUSH2 0x272 JUMPI PUSH1 0x0 CALLDATALOAD PUSH1 0xE0 SHR DUP1 PUSH4 0x83B15F89 GT PUSH2 0x14F JUMPI DUP1 PUSH4 0xBB7EF7E0 GT PUSH2 0xC1 JUMPI DUP1 PUSH4 0xE8EEB3F8 GT PUSH2 0x7A JUMPI DUP1 PUSH4 0xE8EEB3F8 EQ PUSH2 0xA0B JUMPI DUP1 PUSH4 0xE907F003 EQ PUSH2 0xA36 JUMPI DUP1 PUSH4 0xEE99205C EQ PUSH2 0xA73 JUMPI DUP1 PUSH4 0xF252B7A1 EQ PUSH2 0xA9E JUMPI DUP1 PUSH4 0xF2FDE38B EQ PUSH2 0xADB JUMPI DUP1 PUSH4 0xFF691B11 EQ PUSH2 0xB04 JUMPI PUSH2 0x272 JUMP JUMPDEST DUP1 PUSH4 0xBB7EF7E0 EQ PUSH2 0x8D3 JUMPI DUP1 PUSH4 0xC18C9141 EQ PUSH2 0x910 JUMPI DUP1 PUSH4 0xD39DE6E9 EQ PUSH2 0x94D JUMPI DUP1 PUSH4 0xE0822DB7 EQ PUSH2 0x978 JUMPI DUP1 PUSH4 0xE0EE036E EQ PUSH2 0x9A3 JUMPI DUP1 PUSH4 0xE804D0A4 EQ PUSH2 0x9CE JUMPI PUSH2 0x272 JUMP JUMPDEST DUP1 PUSH4 0xA3B4A327 GT PUSH2 0x113 JUMPI DUP1 PUSH4 0xA3B4A327 EQ PUSH2 0x7D0 JUMPI DUP1 PUSH4 0xA657E579 EQ PUSH2 0x7EC JUMPI DUP1 PUSH4 0xB0531524 EQ PUSH2 0x817 JUMPI DUP1 PUSH4 0xB2BAA33E EQ PUSH2 0x842 JUMPI DUP1 PUSH4 0xB510879F EQ PUSH2 0x86D JUMPI DUP1 PUSH4 0xB9181611 EQ PUSH2 0x896 JUMPI PUSH2 0x272 JUMP JUMPDEST DUP1 PUSH4 0x83B15F89 EQ PUSH2 0x6EB JUMPI DUP1 PUSH4 0x8A2E271A EQ PUSH2 0x728 JUMPI DUP1 PUSH4 0x8DA5CB5B EQ PUSH2 0x751 JUMPI DUP1 PUSH4 0x9AD26744 EQ PUSH2 0x77C JUMPI DUP1 PUSH4 0xA26171E2 EQ PUSH2 0x7A5 JUMPI PUSH2 0x272 JUMP JUMPDEST DUP1 PUSH4 0x494503D4 GT PUSH2 0x1E8 JUMPI DUP1 PUSH4 0x5E30DEFF GT PUSH2 0x1AC JUMPI DUP1 PUSH4 0x5E30DEFF EQ PUSH2 0x5DB JUMPI DUP1 PUSH4 0x63403801 EQ PUSH2 0x618 JUMPI DUP1 PUSH4 0x70712939 EQ PUSH2 0x643 JUMPI DUP1 PUSH4 0x734FC76B EQ PUSH2 0x66C JUMPI DUP1 PUSH4 0x76671808 EQ PUSH2 0x695 JUMPI DUP1 PUSH4 0x81666796 EQ PUSH2 0x6C0 JUMPI PUSH2 0x272 JUMP JUMPDEST DUP1 PUSH4 0x494503D4 EQ PUSH2 0x4D0 JUMPI DUP1 PUSH4 0x4BCC3F67 EQ PUSH2 0x50D JUMPI DUP1 PUSH4 0x587DA023 EQ PUSH2 0x54A JUMPI DUP1 PUSH4 0x5BD4AB73 EQ PUSH2 0x575 JUMPI DUP1 PUSH4 0x5D91121D EQ PUSH2 0x5B2 JUMPI PUSH2 0x272 JUMP JUMPDEST DUP1 PUSH4 0x3C277FC5 GT PUSH2 0x23A JUMPI DUP1 PUSH4 0x3C277FC5 EQ PUSH2 0x388 JUMPI DUP1 PUSH4 0x3CB25D34 EQ PUSH2 0x3B3 JUMPI DUP1 PUSH4 0x3E4AD732 EQ PUSH2 0x3F0 JUMPI DUP1 PUSH4 0x42F1181E EQ PUSH2 0x42D JUMPI DUP1 PUSH4 0x44A6958B EQ PUSH2 0x456 JUMPI DUP1 PUSH4 0x46B97959 EQ PUSH2 0x493 JUMPI PUSH2 0x272 JUMP JUMPDEST DUP1 PUSH4 0x1E28D84 EQ PUSH2 0x277 JUMPI DUP1 PUSH4 0xB9663DB EQ PUSH2 0x2A0 JUMPI DUP1 PUSH4 0x1E7FF8F6 EQ PUSH2 0x2CB JUMPI DUP1 PUSH4 0x2A94C279 EQ PUSH2 0x308 JUMPI DUP1 PUSH4 0x38229D93 EQ PUSH2 0x347 JUMPI JUMPDEST PUSH1 0x0 DUP1 REVERT JUMPDEST CALLVALUE DUP1 ISZERO PUSH2 0x283 JUMPI PUSH1 0x0 DUP1 REVERT JUMPDEST POP PUSH2 0x29E PUSH1 0x4 DUP1 CALLDATASIZE SUB PUSH2 0x299 SWAP2 SWAP1 DUP2 ADD SWAP1 PUSH2 0x5DB9 JUMP JUMPDEST PUSH2 0xB2D JUMP JUMPDEST STOP JUMPDEST CALLVALUE DUP1 ISZERO PUSH2 0x2AC JUMPI PUSH1 0x0 DUP1 REVERT JUMPDEST POP PUSH2 0x2B5 PUSH2 0xC2C JUMP JUMPDEST PUSH1 0x40 MLOAD PUSH2 0x2C2 SWAP2 SWAP1 PUSH2 0x689C JUMP JUMPDEST PUSH1 0x40 MLOAD DUP1 SWAP2 SUB SWAP1 RETURN JUMPDEST CALLVALUE DUP1 ISZERO PUSH2 0x2D7 JUMPI PUSH1 0x0 DUP1 REVERT JUMPDEST POP PUSH2 0x2F2 PUSH1 0x4 DUP1 CALLDATASIZE SUB PUSH2 0x2ED SWAP2 SWAP1 DUP2 ADD SWAP1 PUSH2 0x5DB9 JUMP JUMPDEST PUSH2 0xDB7 JUMP JUMPDEST PUSH1 0x40 MLOAD PUSH2 0x2FF SWAP2 SWAP1 PUSH2 0x689C JUMP JUMPDEST PUSH1 0x40 MLOAD DUP1 SWAP2 SUB SWAP1 RETURN JUMPDEST CALLVALUE DUP1 ISZERO PUSH2 0x314 JUMPI PUSH1 0x0 DUP1 REVERT JUMPDEST POP PUSH2 0x32F PUSH1 0x4 DUP1 CALLDATASIZE SUB PUSH2 0x32A SWAP2 SWAP1 DUP2 ADD SWAP1 PUSH2 0x5F73 JUMP JUMPDEST PUSH2 0xE50 JUMP JUMPDEST PUSH1 0x40 MLOAD PUSH2 0x33E SWAP4 SWAP3 SWAP2 SWAP1 PUSH2 0x68E0 JUMP JUMPDEST PUSH1 0x40 MLOAD DUP1 SWAP2 SUB SWAP1 RETURN JUMPDEST CALLVALUE DUP1 ISZERO PUSH2 0x353 JUMPI PUSH1 0x0 DUP1 REVERT JUMPDEST POP PUSH2 0x36E PUSH1 0x4 DUP1 CALLDATASIZE SUB PUSH2 0x369 SWAP2 SWAP1 DUP2 ADD SWAP1 PUSH2 0x6014 JUMP JUMPDEST PUSH2 0xE87 JUMP JUMPDEST PUSH1 0x40 MLOAD PUSH2 0x37F SWAP6 SWAP5 SWAP4 SWAP3 SWAP2 SWAP1 PUSH2 0x695C JUMP JUMPDEST PUSH1 0x40 MLOAD DUP1 SWAP2 SUB SWAP1 RETURN JUMPDEST CALLVALUE DUP1 ISZERO PUSH2 0x394 JUMPI PUSH1 0x0 DUP1 REVERT JUMPDEST POP PUSH2 0x39D PUSH2 0xEBD JUMP JUMPDEST PUSH1 0x40 MLOAD PUSH2 0x3AA SWAP2 SWAP1 PUSH2 0x668C JUMP JUMPDEST PUSH1 0x40 MLOAD DUP1 SWAP2 SUB SWAP1 RETURN JUMPDEST CALLVALUE DUP1 ISZERO PUSH2 0x3BF JUMPI PUSH1 0x0 DUP1 REVERT JUMPDEST POP PUSH2 0x3DA PUSH1 0x4 DUP1 CALLDATASIZE SUB PUSH2 0x3D5 SWAP2 SWAP1 DUP2 ADD SWAP1 PUSH2 0x5F73 JUMP JUMPDEST PUSH2 0xEDC JUMP JUMPDEST PUSH1 0x40 MLOAD PUSH2 0x3E7 SWAP2 SWAP1 PUSH2 0x6507 JUMP JUMPDEST PUSH1 0x40 MLOAD DUP1 SWAP2 SUB SWAP1 RETURN JUMPDEST CALLVALUE DUP1 ISZERO PUSH2 0x3FC JUMPI PUSH1 0x0 DUP1 REVERT JUMPDEST POP PUSH2 0x417 PUSH1 0x4 DUP1 CALLDATASIZE SUB PUSH2 0x412 SWAP2 SWAP1 DUP2 ADD SWAP1 PUSH2 0x5F0E JUMP JUMPDEST PUSH2 0xF27 JUMP JUMPDEST PUSH1 0x40 MLOAD PUSH2 0x424 SWAP2 SWAP1 PUSH2 0x6881 JUMP JUMPDEST PUSH1 0x40 MLOAD DUP1 SWAP2 SUB SWAP1 RETURN JUMPDEST CALLVALUE DUP1 ISZERO PUSH2 0x439 JUMPI PUSH1 0x0 DUP1 REVERT JUMPDEST POP PUSH2 0x454 PUSH1 0x4 DUP1 CALLDATASIZE SUB PUSH2 0x44F SWAP2 SWAP1 DUP2 ADD SWAP1 PUSH2 0x5DB9 JUMP JUMPDEST PUSH2 0xF54 JUMP JUMPDEST STOP JUMPDEST CALLVALUE DUP1 ISZERO PUSH2 0x462 JUMPI PUSH1 0x0 DUP1 REVERT JUMPDEST POP PUSH2 0x47D PUSH1 0x4 DUP1 CALLDATASIZE SUB PUSH2 0x478 SWAP2 SWAP1 DUP2 ADD SWAP1 PUSH2 0x5E6D JUMP JUMPDEST PUSH2 0xF68 JUMP JUMPDEST PUSH1 0x40 MLOAD PUSH2 0x48A SWAP2 SWAP1 PUSH2 0x6881 JUMP JUMPDEST PUSH1 0x40 MLOAD DUP1 SWAP2 SUB SWAP1 RETURN JUMPDEST CALLVALUE DUP1 ISZERO PUSH2 0x49F JUMPI PUSH1 0x0 DUP1 REVERT JUMPDEST POP PUSH2 0x4BA PUSH1 0x4 DUP1 CALLDATASIZE SUB PUSH2 0x4B5 SWAP2 SWAP1 DUP2 ADD SWAP1 PUSH2 0x5F0E JUMP JUMPDEST PUSH2 0xFE4 JUMP JUMPDEST PUSH1 0x40 MLOAD PUSH2 0x4C7 SWAP2 SWAP1 PUSH2 0x684B JUMP JUMPDEST PUSH1 0x40 MLOAD DUP1 SWAP2 SUB SWAP1 RETURN JUMPDEST CALLVALUE DUP1 ISZERO PUSH2 0x4DC JUMPI PUSH1 0x0 DUP1 REVERT JUMPDEST POP PUSH2 0x4F7 PUSH1 0x4 DUP1 CALLDATASIZE SUB PUSH2 0x4F2 SWAP2 SWAP1 DUP2 ADD SWAP1 PUSH2 0x6014 JUMP JUMPDEST PUSH2 0x1042 JUMP JUMPDEST PUSH1 0x40 MLOAD PUSH2 0x504 SWAP2 SWAP1 PUSH2 0x6507 JUMP JUMPDEST PUSH1 0x40 MLOAD DUP1 SWAP2 SUB SWAP1 RETURN JUMPDEST CALLVALUE DUP1 ISZERO PUSH2 0x519 JUMPI PUSH1 0x0 DUP1 REVERT JUMPDEST POP PUSH2 0x534 PUSH1 0x4 DUP1 CALLDATASIZE SUB PUSH2 0x52F SWAP2 SWAP1 DUP2 ADD SWAP1 PUSH2 0x5F0E JUMP JUMPDEST PUSH2 0x107E JUMP JUMPDEST PUSH1 0x40 MLOAD PUSH2 0x541 SWAP2 SWAP1 PUSH2 0x6866 JUMP JUMPDEST PUSH1 0x40 MLOAD DUP1 SWAP2 SUB SWAP1 RETURN JUMPDEST CALLVALUE DUP1 ISZERO PUSH2 0x556 JUMPI PUSH1 0x0 DUP1 REVERT JUMPDEST POP PUSH2 0x55F PUSH2 0x1127 JUMP JUMPDEST PUSH1 0x40 MLOAD PUSH2 0x56C SWAP2 SWAP1 PUSH2 0x689C JUMP JUMPDEST PUSH1 0x40 MLOAD DUP1 SWAP2 SUB SWAP1 RETURN JUMPDEST CALLVALUE DUP1 ISZERO PUSH2 0x581 JUMPI PUSH1 0x0 DUP1 REVERT JUMPDEST POP PUSH2 0x59C PUSH1 0x4 DUP1 CALLDATASIZE SUB PUSH2 0x597 SWAP2 SWAP1 DUP2 ADD SWAP1 PUSH2 0x5DB9 JUMP JUMPDEST PUSH2 0x112D JUMP JUMPDEST PUSH1 0x40 MLOAD PUSH2 0x5A9 SWAP2 SWAP1 PUSH2 0x65F6 JUMP JUMPDEST PUSH1 0x40 MLOAD DUP1 SWAP2 SUB SWAP1 RETURN JUMPDEST CALLVALUE DUP1 ISZERO PUSH2 0x5BE JUMPI PUSH1 0x0 DUP1 REVERT JUMPDEST POP PUSH2 0x5D9 PUSH1 0x4 DUP1 CALLDATASIZE SUB PUSH2 0x5D4 SWAP2 SWAP1 DUP2 ADD SWAP1 PUSH2 0x5FAF JUMP JUMPDEST PUSH2 0x114D JUMP JUMPDEST STOP JUMPDEST CALLVALUE DUP1 ISZERO PUSH2 0x5E7 JUMPI PUSH1 0x0 DUP1 REVERT JUMPDEST POP PUSH2 0x602 PUSH1 0x4 DUP1 CALLDATASIZE SUB PUSH2 0x5FD SWAP2 SWAP1 DUP2 ADD SWAP1 PUSH2 0x5DB9 JUMP JUMPDEST PUSH2 0x1202 JUMP JUMPDEST PUSH1 0x40 MLOAD PUSH2 0x60F SWAP2 SWAP1 PUSH2 0x6611 JUMP JUMPDEST PUSH1 0x40 MLOAD DUP1 SWAP2 SUB SWAP1 RETURN JUMPDEST CALLVALUE DUP1 ISZERO PUSH2 0x624 JUMPI PUSH1 0x0 DUP1 REVERT JUMPDEST POP PUSH2 0x62D PUSH2 0x121A JUMP JUMPDEST PUSH1 0x40 MLOAD PUSH2 0x63A SWAP2 SWAP1 PUSH2 0x689C JUMP JUMPDEST PUSH1 0x40 MLOAD DUP1 SWAP2 SUB SWAP1 RETURN JUMPDEST CALLVALUE DUP1 ISZERO PUSH2 0x64F JUMPI PUSH1 0x0 DUP1 REVERT JUMPDEST POP PUSH2 0x66A PUSH1 0x4 DUP1 CALLDATASIZE SUB PUSH2 0x665 SWAP2 SWAP1 DUP2 ADD SWAP1 PUSH2 0x5DB9 JUMP JUMPDEST PUSH2 0x1220 JUMP JUMPDEST STOP JUMPDEST CALLVALUE DUP1 ISZERO PUSH2 0x678 JUMPI PUSH1 0x0 DUP1 REVERT JUMPDEST POP PUSH2 0x693 PUSH1 0x4 DUP1 CALLDATASIZE SUB PUSH2 0x68E SWAP2 SWAP1 DUP2 ADD SWAP1 PUSH2 0x5F37 JUMP JUMPDEST PUSH2 0x1329 JUMP JUMPDEST STOP JUMPDEST CALLVALUE DUP1 ISZERO PUSH2 0x6A1 JUMPI PUSH1 0x0 DUP1 REVERT JUMPDEST POP PUSH2 0x6AA PUSH2 0x180B JUMP JUMPDEST PUSH1 0x40 MLOAD PUSH2 0x6B7 SWAP2 SWAP1 PUSH2 0x689C JUMP JUMPDEST PUSH1 0x40 MLOAD DUP1 SWAP2 SUB SWAP1 RETURN JUMPDEST CALLVALUE DUP1 ISZERO PUSH2 0x6CC JUMPI PUSH1 0x0 DUP1 REVERT JUMPDEST POP PUSH2 0x6D5 PUSH2 0x1811 JUMP JUMPDEST PUSH1 0x40 MLOAD PUSH2 0x6E2 SWAP2 SWAP1 PUSH2 0x69AF JUMP JUMPDEST PUSH1 0x40 MLOAD DUP1 SWAP2 SUB SWAP1 RETURN JUMPDEST CALLVALUE DUP1 ISZERO PUSH2 0x6F7 JUMPI PUSH1 0x0 DUP1 REVERT JUMPDEST POP PUSH2 0x712 PUSH1 0x4 DUP1 CALLDATASIZE SUB PUSH2 0x70D SWAP2 SWAP1 DUP2 ADD SWAP1 PUSH2 0x611F JUMP JUMPDEST PUSH2 0x1827 JUMP JUMPDEST PUSH1 0x40 MLOAD PUSH2 0x71F SWAP2 SWAP1 PUSH2 0x6611 JUMP JUMPDEST PUSH1 0x40 MLOAD DUP1 SWAP2 SUB SWAP1 RETURN JUMPDEST CALLVALUE DUP1 ISZERO PUSH2 0x734 JUMPI PUSH1 0x0 DUP1 REVERT JUMPDEST POP PUSH2 0x74F PUSH1 0x4 DUP1 CALLDATASIZE SUB PUSH2 0x74A SWAP2 SWAP1 DUP2 ADD SWAP1 PUSH2 0x5DB9 JUMP JUMPDEST PUSH2 0x19A3 JUMP JUMPDEST STOP JUMPDEST CALLVALUE DUP1 ISZERO PUSH2 0x75D JUMPI PUSH1 0x0 DUP1 REVERT JUMPDEST POP PUSH2 0x766 PUSH2 0x1AA3 JUMP JUMPDEST PUSH1 0x40 MLOAD PUSH2 0x773 SWAP2 SWAP1 PUSH2 0x6507 JUMP JUMPDEST PUSH1 0x40 MLOAD DUP1 SWAP2 SUB SWAP1 RETURN JUMPDEST CALLVALUE DUP1 ISZERO PUSH2 0x788 JUMPI PUSH1 0x0 DUP1 REVERT JUMPDEST POP PUSH2 0x7A3 PUSH1 0x4 DUP1 CALLDATASIZE SUB PUSH2 0x79E SWAP2 SWAP1 DUP2 ADD SWAP1 PUSH2 0x5EA9 JUMP JUMPDEST PUSH2 0x1AC8 JUMP JUMPDEST STOP JUMPDEST CALLVALUE DUP1 ISZERO PUSH2 0x7B1 JUMPI PUSH1 0x0 DUP1 REVERT JUMPDEST POP PUSH2 0x7BA PUSH2 0x1ADE JUMP JUMPDEST PUSH1 0x40 MLOAD PUSH2 0x7C7 SWAP2 SWAP1 PUSH2 0x689C JUMP JUMPDEST PUSH1 0x40 MLOAD DUP1 SWAP2 SUB SWAP1 RETURN JUMPDEST PUSH2 0x7EA PUSH1 0x4 DUP1 CALLDATASIZE SUB PUSH2 0x7E5 SWAP2 SWAP1 DUP2 ADD SWAP1 PUSH2 0x5DE2 JUMP JUMPDEST PUSH2 0x1AE4 JUMP JUMPDEST STOP JUMPDEST CALLVALUE DUP1 ISZERO PUSH2 0x7F8 JUMPI PUSH1 0x0 DUP1 REVERT JUMPDEST POP PUSH2 0x801 PUSH2 0x1DE5 JUMP JUMPDEST PUSH1 0x40 MLOAD PUSH2 0x80E SWAP2 SWAP1 PUSH2 0x6611 JUMP JUMPDEST PUSH1 0x40 MLOAD DUP1 SWAP2 SUB SWAP1 RETURN JUMPDEST CALLVALUE DUP1 ISZERO PUSH2 0x823 JUMPI PUSH1 0x0 DUP1 REVERT JUMPDEST POP PUSH2 0x82C PUSH2 0x1DEB JUMP JUMPDEST PUSH1 0x40 MLOAD PUSH2 0x839 SWAP2 SWAP1 PUSH2 0x689C JUMP JUMPDEST PUSH1 0x40 MLOAD DUP1 SWAP2 SUB SWAP1 RETURN JUMPDEST CALLVALUE DUP1 ISZERO PUSH2 0x84E JUMPI PUSH1 0x0 DUP1 REVERT JUMPDEST POP PUSH2 0x857 PUSH2 0x1DF1 JUMP JUMPDEST PUSH1 0x40 MLOAD PUSH2 0x864 SWAP2 SWAP1 PUSH2 0x689C JUMP JUMPDEST PUSH1 0x40 MLOAD DUP1 SWAP2 SUB SWAP1 RETURN JUMPDEST CALLVALUE DUP1 ISZERO PUSH2 0x879 JUMPI PUSH1 0x0 DUP1 REVERT JUMPDEST POP PUSH2 0x894 PUSH1 0x4 DUP1 CALLDATASIZE SUB PUSH2 0x88F SWAP2 SWAP1 DUP2 ADD SWAP1 PUSH2 0x5F0E JUMP JUMPDEST PUSH2 0x1E0F JUMP JUMPDEST STOP JUMPDEST CALLVALUE DUP1 ISZERO PUSH2 0x8A2 JUMPI PUSH1 0x0 DUP1 REVERT JUMPDEST POP PUSH2 0x8BD PUSH1 0x4 DUP1 CALLDATASIZE SUB PUSH2 0x8B8 SWAP2 SWAP1 DUP2 ADD SWAP1 PUSH2 0x5DB9 JUMP JUMPDEST PUSH2 0x1E1C JUMP JUMPDEST PUSH1 0x40 MLOAD PUSH2 0x8CA SWAP2 SWAP1 PUSH2 0x65F6 JUMP JUMPDEST PUSH1 0x40 MLOAD DUP1 SWAP2 SUB SWAP1 RETURN JUMPDEST CALLVALUE DUP1 ISZERO PUSH2 0x8DF JUMPI PUSH1 0x0 DUP1 REVERT JUMPDEST POP PUSH2 0x8FA PUSH1 0x4 DUP1 CALLDATASIZE SUB PUSH2 0x8F5 SWAP2 SWAP1 DUP2 ADD SWAP1 PUSH2 0x5F0E JUMP JUMPDEST PUSH2 0x1E3C JUMP JUMPDEST PUSH1 0x40 MLOAD PUSH2 0x907 SWAP2 SWAP1 PUSH2 0x689C JUMP JUMPDEST PUSH1 0x40 MLOAD DUP1 SWAP2 SUB SWAP1 RETURN JUMPDEST CALLVALUE DUP1 ISZERO PUSH2 0x91C JUMPI PUSH1 0x0 DUP1 REVERT JUMPDEST POP PUSH2 0x937 PUSH1 0x4 DUP1 CALLDATASIZE SUB PUSH2 0x932 SWAP2 SWAP1 DUP2 ADD SWAP1 PUSH2 0x5F0E JUMP JUMPDEST PUSH2 0x1F11 JUMP JUMPDEST PUSH1 0x40 MLOAD PUSH2 0x944 SWAP2 SWAP1 PUSH2 0x689C JUMP JUMPDEST PUSH1 0x40 MLOAD DUP1 SWAP2 SUB SWAP1 RETURN JUMPDEST CALLVALUE DUP1 ISZERO PUSH2 0x959 JUMPI PUSH1 0x0 DUP1 REVERT JUMPDEST POP PUSH2 0x962 PUSH2 0x1F29 JUMP JUMPDEST PUSH1 0x40 MLOAD PUSH2 0x96F SWAP2 SWAP1 PUSH2 0x65D4 JUMP JUMPDEST PUSH1 0x40 MLOAD DUP1 SWAP2 SUB SWAP1 RETURN JUMPDEST CALLVALUE DUP1 ISZERO PUSH2 0x984 JUMPI PUSH1 0x0 DUP1 REVERT JUMPDEST POP PUSH2 0x98D PUSH2 0x1FB7 JUMP JUMPDEST PUSH1 0x40 MLOAD PUSH2 0x99A SWAP2 SWAP1 PUSH2 0x66A7 JUMP JUMPDEST PUSH1 0x40 MLOAD DUP1 SWAP2 SUB SWAP1 RETURN JUMPDEST CALLVALUE DUP1 ISZERO PUSH2 0x9AF JUMPI PUSH1 0x0 DUP1 REVERT JUMPDEST POP PUSH2 0x9B8 PUSH2 0x1FD6 JUMP JUMPDEST PUSH1 0x40 MLOAD PUSH2 0x9C5 SWAP2 SWAP1 PUSH2 0x69AF JUMP JUMPDEST PUSH1 0x40 MLOAD DUP1 SWAP2 SUB SWAP1 RETURN JUMPDEST CALLVALUE DUP1 ISZERO PUSH2 0x9DA JUMPI PUSH1 0x0 DUP1 REVERT JUMPDEST POP PUSH2 0x9F5 PUSH1 0x4 DUP1 CALLDATASIZE SUB PUSH2 0x9F0 SWAP2 SWAP1 DUP2 ADD SWAP1 PUSH2 0x5FEB JUMP JUMPDEST PUSH2 0x1FEC JUMP JUMPDEST PUSH1 0x40 MLOAD PUSH2 0xA02 SWAP2 SWAP1 PUSH2 0x6881 JUMP JUMPDEST PUSH1 0x40 MLOAD DUP1 SWAP2 SUB SWAP1 RETURN JUMPDEST CALLVALUE DUP1 ISZERO PUSH2 0xA17 JUMPI PUSH1 0x0 DUP1 REVERT JUMPDEST POP PUSH2 0xA20 PUSH2 0x217C JUMP JUMPDEST PUSH1 0x40 MLOAD PUSH2 0xA2D SWAP2 SWAP1 PUSH2 0x69AF JUMP JUMPDEST PUSH1 0x40 MLOAD DUP1 SWAP2 SUB SWAP1 RETURN JUMPDEST CALLVALUE DUP1 ISZERO PUSH2 0xA42 JUMPI PUSH1 0x0 DUP1 REVERT JUMPDEST POP PUSH2 0xA5D PUSH1 0x4 DUP1 CALLDATASIZE SUB PUSH2 0xA58 SWAP2 SWAP1 DUP2 ADD SWAP1 PUSH2 0x5F37 JUMP JUMPDEST PUSH2 0x2192 JUMP JUMPDEST PUSH1 0x40 MLOAD PUSH2 0xA6A SWAP2 SWAP1 PUSH2 0x689C JUMP JUMPDEST PUSH1 0x40 MLOAD DUP1 SWAP2 SUB SWAP1 RETURN JUMPDEST CALLVALUE DUP1 ISZERO PUSH2 0xA7F JUMPI PUSH1 0x0 DUP1 REVERT JUMPDEST POP PUSH2 0xA88 PUSH2 0x2274 JUMP JUMPDEST PUSH1 0x40 MLOAD PUSH2 0xA95 SWAP2 SWAP1 PUSH2 0x6507 JUMP JUMPDEST PUSH1 0x40 MLOAD DUP1 SWAP2 SUB SWAP1 RETURN JUMPDEST CALLVALUE DUP1 ISZERO PUSH2 0xAAA JUMPI PUSH1 0x0 DUP1 REVERT JUMPDEST POP PUSH2 0xAC5 PUSH1 0x4 DUP1 CALLDATASIZE SUB PUSH2 0xAC0 SWAP2 SWAP1 DUP2 ADD SWAP1 PUSH2 0x5E31 JUMP JUMPDEST PUSH2 0x229A JUMP JUMPDEST PUSH1 0x40 MLOAD PUSH2 0xAD2 SWAP2 SWAP1 PUSH2 0x6881 JUMP JUMPDEST PUSH1 0x40 MLOAD DUP1 SWAP2 SUB SWAP1 RETURN JUMPDEST CALLVALUE DUP1 ISZERO PUSH2 0xAE7 JUMPI PUSH1 0x0 DUP1 REVERT JUMPDEST POP PUSH2 0xB02 PUSH1 0x4 DUP1 CALLDATASIZE SUB PUSH2 0xAFD SWAP2 SWAP1 DUP2 ADD SWAP1 PUSH2 0x5DB9 JUMP JUMPDEST PUSH2 0x2305 JUMP JUMPDEST STOP JUMPDEST CALLVALUE DUP1 ISZERO PUSH2 0xB10 JUMPI PUSH1 0x0 DUP1 REVERT JUMPDEST POP PUSH2 0xB2B PUSH1 0x4 DUP1 CALLDATASIZE SUB PUSH2 0xB26 SWAP2 SWAP1 DUP2 ADD SWAP1 PUSH2 0x5F0E JUMP JUMPDEST PUSH2 0x23F5 JUMP JUMPDEST STOP JUMPDEST PUSH2 0xB35 PUSH2 0x26D3 JUMP JUMPDEST PUSH1 0x11 PUSH1 0x0 DUP3 PUSH20 0xFFFFFFFFFFFFFFFFFFFFFFFFFFFFFFFFFFFFFFFF AND PUSH20 0xFFFFFFFFFFFFFFFFFFFFFFFFFFFFFFFFFFFFFFFF AND DUP2 MSTORE PUSH1 0x20 ADD SWAP1 DUP2 MSTORE PUSH1 0x20 ADD PUSH1 0x0 KECCAK256 PUSH1 0x0 SWAP1 SLOAD SWAP1 PUSH2 0x100 EXP SWAP1 DIV PUSH1 0xFF AND PUSH2 0xB9A JUMPI PUSH2 0xB99 PUSH2 0xB94 PUSH1 0x1 DUP4 PUSH2 0x2738 JUMP JUMPDEST PUSH2 0x27BA JUMP JUMPDEST JUMPDEST PUSH1 0x0 PUSH1 0x11 PUSH1 0x0 DUP4 PUSH20 0xFFFFFFFFFFFFFFFFFFFFFFFFFFFFFFFFFFFFFFFF AND PUSH20 0xFFFFFFFFFFFFFFFFFFFFFFFFFFFFFFFFFFFFFFFF AND DUP2 MSTORE PUSH1 0x20 ADD SWAP1 DUP2 MSTORE PUSH1 0x20 ADD PUSH1 0x0 KECCAK256 PUSH1 0x0 PUSH2 0x100 EXP DUP2 SLOAD DUP2 PUSH1 0xFF MUL NOT AND SWAP1 DUP4 ISZERO ISZERO MUL OR SWAP1 SSTORE POP PUSH32 0xF50D0D312D501878616EB5E78EBF3ED6DCD3955AAEF8165AF9C6B057CC4832FB DUP2 PUSH1 0x40 MLOAD PUSH2 0xC21 SWAP2 SWAP1 PUSH2 0x6507 JUMP JUMPDEST PUSH1 0x40 MLOAD DUP1 SWAP2 SUB SWAP1 LOG1 POP JUMP JUMPDEST PUSH1 0x0 DUP1 PUSH1 0xD SLOAD SWAP1 POP PUSH1 0x0 PUSH2 0xC4A PUSH1 0x1 DUP4 PUSH2 0x27C2 SWAP1 SWAP2 SWAP1 PUSH4 0xFFFFFFFF AND JUMP JUMPDEST SWAP1 POP PUSH1 0x0 PUSH1 0x17 PUSH1 0x0 DUP4 DUP2 MSTORE PUSH1 0x20 ADD SWAP1 DUP2 MSTORE PUSH1 0x20 ADD PUSH1 0x0 KECCAK256 PUSH1 0x1 ADD SLOAD SWAP1 POP PUSH1 0x0 DUP2 EQ PUSH2 0xC82 JUMPI PUSH2 0xC81 PUSH2 0xC7C DUP4 DUP4 PUSH2 0x27EC JUMP JUMPDEST PUSH2 0x27BA JUMP JUMPDEST JUMPDEST PUSH2 0xC8A PUSH2 0x286E JUMP JUMPDEST PUSH2 0xC92 PUSH2 0x28E7 JUMP JUMPDEST PUSH1 0x17 PUSH1 0x0 DUP6 DUP2 MSTORE PUSH1 0x20 ADD SWAP1 DUP2 MSTORE PUSH1 0x20 ADD PUSH1 0x0 KECCAK256 PUSH1 0x0 ADD DUP2 SWAP1 SSTORE POP PUSH2 0xCB4 PUSH2 0x5B85 JUMP JUMPDEST PUSH1 0x17 PUSH1 0x0 DUP6 DUP2 MSTORE PUSH1 0x20 ADD SWAP1 DUP2 MSTORE PUSH1 0x20 ADD PUSH1 0x0 KECCAK256 PUSH1 0x40 MLOAD DUP1 PUSH1 0xA0 ADD PUSH1 0x40 MSTORE SWAP1 DUP2 PUSH1 0x0 DUP3 ADD SLOAD DUP2 MSTORE PUSH1 0x20 ADD PUSH1 0x1 DUP3 ADD SLOAD DUP2 MSTORE PUSH1 0x20 ADD PUSH1 0x2 DUP3 ADD SLOAD DUP2 MSTORE PUSH1 0x20 ADD PUSH1 0x3 DUP3 ADD SLOAD DUP2 MSTORE PUSH1 0x20 ADD PUSH1 0x4 DUP3 ADD SLOAD DUP2 MSTORE POP POP SWAP1 POP DUP4 PUSH32 0xBB4A26FA0ACE13EE4DA343896C20EAA44A618FB9071FDD8C2E2C960A4583189D DUP3 PUSH1 0x20 ADD MLOAD DUP4 PUSH1 0x0 ADD MLOAD DUP5 PUSH1 0x40 ADD MLOAD DUP6 PUSH1 0x60 ADD MLOAD PUSH1 0x40 MLOAD PUSH2 0xD4C SWAP5 SWAP4 SWAP3 SWAP2 SWAP1 PUSH2 0x6917 JUMP JUMPDEST PUSH1 0x40 MLOAD DUP1 SWAP2 SUB SWAP1 LOG2 PUSH2 0xD5C PUSH2 0x2995 JUMP JUMPDEST PUSH1 0x0 DUP2 PUSH1 0x20 ADD MLOAD EQ ISZERO PUSH2 0xDA9 JUMPI DUP4 PUSH32 0xB463D19ECF455BE65365092CF8E1DB6934A0334CF8CD532DDF9964D01F36B5B2 PUSH1 0x0 DUP4 PUSH1 0x0 ADD MLOAD PUSH1 0x40 MLOAD PUSH2 0xDA0 SWAP3 SWAP2 SWAP1 PUSH2 0x6782 JUMP JUMPDEST PUSH1 0x40 MLOAD DUP1 SWAP2 SUB SWAP1 LOG2 JUMPDEST DUP1 PUSH1 0x20 ADD MLOAD SWAP5 POP POP POP POP POP SWAP1 JUMP JUMPDEST PUSH1 0x0 PUSH2 0xDC1 PUSH2 0x1FB7 JUMP JUMPDEST PUSH20 0xFFFFFFFFFFFFFFFFFFFFFFFFFFFFFFFFFFFFFFFF AND PUSH4 0x70A08231 DUP4 PUSH1 0x40 MLOAD DUP3 PUSH4 0xFFFFFFFF AND PUSH1 0xE0 SHL DUP2 MSTORE PUSH1 0x4 ADD PUSH2 0xDF9 SWAP2 SWAP1 PUSH2 0x6507 JUMP JUMPDEST PUSH1 0x20 PUSH1 0x40 MLOAD DUP1 DUP4 SUB DUP2 DUP7 DUP1 EXTCODESIZE ISZERO DUP1 ISZERO PUSH2 0xE11 JUMPI PUSH1 0x0 DUP1 REVERT JUMPDEST POP GAS STATICCALL ISZERO DUP1 ISZERO PUSH2 0xE25 JUMPI RETURNDATASIZE PUSH1 0x0 DUP1 RETURNDATACOPY RETURNDATASIZE PUSH1 0x0 REVERT JUMPDEST POP POP POP POP PUSH1 0x40 MLOAD RETURNDATASIZE PUSH1 0x1F NOT PUSH1 0x1F DUP3 ADD AND DUP3 ADD DUP1 PUSH1 0x40 MSTORE POP PUSH2 0xE49 SWAP2 SWAP1 DUP2 ADD SWAP1 PUSH2 0x603D JUMP JUMPDEST SWAP1 POP SWAP2 SWAP1 POP JUMP JUMPDEST PUSH1 0x16 PUSH1 0x20 MSTORE DUP2 PUSH1 0x0 MSTORE PUSH1 0x40 PUSH1 0x0 KECCAK256 PUSH1 0x20 MSTORE DUP1 PUSH1 0x0 MSTORE PUSH1 0x40 PUSH1 0x0 KECCAK256 PUSH1 0x0 SWAP2 POP SWAP2 POP POP DUP1 PUSH1 0x0 ADD SLOAD SWAP1 DUP1 PUSH1 0x1 ADD SLOAD SWAP1 DUP1 PUSH1 0x2 ADD SLOAD SWAP1 POP DUP4 JUMP JUMPDEST PUSH1 0x17 PUSH1 0x20 MSTORE DUP1 PUSH1 0x0 MSTORE PUSH1 0x40 PUSH1 0x0 KECCAK256 PUSH1 0x0 SWAP2 POP SWAP1 POP DUP1 PUSH1 0x0 ADD SLOAD SWAP1 DUP1 PUSH1 0x1 ADD SLOAD SWAP1 DUP1 PUSH1 0x2 ADD SLOAD SWAP1 DUP1 PUSH1 0x3 ADD SLOAD SWAP1 DUP1 PUSH1 0x4 ADD SLOAD SWAP1 POP DUP6 JUMP JUMPDEST PUSH1 0x0 PUSH20 0xC02AAA39B223FE8D0A0E5C4F27EAD9083C756CC2 SWAP1 POP DUP1 SWAP1 POP SWAP1 JUMP JUMPDEST PUSH1 0xA PUSH1 0x20 MSTORE DUP2 PUSH1 0x0 MSTORE PUSH1 0x40 PUSH1 0x0 KECCAK256 DUP2 DUP2 SLOAD DUP2 LT PUSH2 0xEF5 JUMPI INVALID JUMPDEST SWAP1 PUSH1 0x0 MSTORE PUSH1 0x20 PUSH1 0x0 KECCAK256 ADD PUSH1 0x0 SWAP2 POP SWAP2 POP SWAP1 SLOAD SWAP1 PUSH2 0x100 EXP SWAP1 DIV PUSH20 0xFFFFFFFFFFFFFFFFFFFFFFFFFFFFFFFFFFFFFFFF AND DUP2 JUMP JUMPDEST PUSH2 0xF2F PUSH2 0x5BB4 JUMP JUMPDEST PUSH2 0xF4A PUSH1 0x7 PUSH1 0x0 DUP5 DUP2 MSTORE PUSH1 0x20 ADD SWAP1 DUP2 MSTORE PUSH1 0x20 ADD PUSH1 0x0 KECCAK256 PUSH2 0x29EE JUMP JUMPDEST SWAP1 POP DUP1 SWAP1 POP SWAP2 SWAP1 POP JUMP JUMPDEST PUSH2 0xF5C PUSH2 0x2B2D JUMP JUMPDEST PUSH2 0xF65 DUP2 PUSH2 0x2BB7 JUMP JUMPDEST POP JUMP JUMPDEST PUSH2 0xF70 PUSH2 0x5BB4 JUMP JUMPDEST PUSH2 0xFD9 PUSH1 0x5 PUSH1 0x0 DUP5 PUSH1 0x1 DUP2 GT ISZERO PUSH2 0xF83 JUMPI INVALID JUMPDEST PUSH1 0xFF AND PUSH1 0xFF AND DUP2 MSTORE PUSH1 0x20 ADD SWAP1 DUP2 MSTORE PUSH1 0x20 ADD PUSH1 0x0 KECCAK256 PUSH1 0x0 DUP6 PUSH20 0xFFFFFFFFFFFFFFFFFFFFFFFFFFFFFFFFFFFFFFFF AND PUSH20 0xFFFFFFFFFFFFFFFFFFFFFFFFFFFFFFFFFFFFFFFF AND DUP2 MSTORE PUSH1 0x20 ADD SWAP1 DUP2 MSTORE PUSH1 0x20 ADD PUSH1 0x0 KECCAK256 PUSH2 0x29EE JUMP JUMPDEST SWAP1 POP DUP1 SWAP1 POP SWAP3 SWAP2 POP POP JUMP JUMPDEST PUSH2 0xFEC PUSH2 0x5BFB JUMP JUMPDEST PUSH1 0x16 PUSH1 0x0 DUP4 DUP2 MSTORE PUSH1 0x20 ADD SWAP1 DUP2 MSTORE PUSH1 0x20 ADD PUSH1 0x0 KECCAK256 PUSH1 0x0 PUSH1 0xD SLOAD DUP2 MSTORE PUSH1 0x20 ADD SWAP1 DUP2 MSTORE PUSH1 0x20 ADD PUSH1 0x0 KECCAK256 PUSH1 0x40 MLOAD DUP1 PUSH1 0x60 ADD PUSH1 0x40 MSTORE SWAP1 DUP2 PUSH1 0x0 DUP3 ADD SLOAD DUP2 MSTORE PUSH1 0x20 ADD PUSH1 0x1 DUP3 ADD SLOAD DUP2 MSTORE PUSH1 0x20 ADD PUSH1 0x2 DUP3 ADD SLOAD DUP2 MSTORE POP POP SWAP1 POP SWAP2 SWAP1 POP JUMP JUMPDEST PUSH1 0x2 DUP2 DUP2 SLOAD DUP2 LT PUSH2 0x104F JUMPI INVALID JUMPDEST SWAP1 PUSH1 0x0 MSTORE PUSH1 0x20 PUSH1 0x0 KECCAK256 ADD PUSH1 0x0 SWAP2 POP SLOAD SWAP1 PUSH2 0x100 EXP SWAP1 DIV PUSH20 0xFFFFFFFFFFFFFFFFFFFFFFFFFFFFFFFFFFFFFFFF AND DUP2 JUMP JUMPDEST PUSH2 0x1086 PUSH2 0x5C1C JUMP JUMPDEST PUSH1 0xB PUSH1 0x0 DUP4 DUP2 MSTORE PUSH1 0x20 ADD SWAP1 DUP2 MSTORE PUSH1 0x20 ADD PUSH1 0x0 KECCAK256 PUSH1 0x40 MLOAD DUP1 PUSH1 0x40 ADD PUSH1 0x40 MSTORE SWAP1 DUP2 PUSH1 0x0 DUP3 ADD PUSH1 0x0 SWAP1 SLOAD SWAP1 PUSH2 0x100 EXP SWAP1 DIV PUSH20 0xFFFFFFFFFFFFFFFFFFFFFFFFFFFFFFFFFFFFFFFF AND PUSH20 0xFFFFFFFFFFFFFFFFFFFFFFFFFFFFFFFFFFFFFFFF AND PUSH20 0xFFFFFFFFFFFFFFFFFFFFFFFFFFFFFFFFFFFFFFFF AND DUP2 MSTORE PUSH1 0x20 ADD PUSH1 0x0 DUP3 ADD PUSH1 0x14 SWAP1 SLOAD SWAP1 PUSH2 0x100 EXP SWAP1 DIV PUSH4 0xFFFFFFFF AND PUSH4 0xFFFFFFFF AND PUSH4 0xFFFFFFFF AND DUP2 MSTORE POP POP SWAP1 POP SWAP2 SWAP1 POP JUMP JUMPDEST PUSH1 0xE SLOAD DUP2 JUMP JUMPDEST PUSH1 0x11 PUSH1 0x20 MSTORE DUP1 PUSH1 0x0 MSTORE PUSH1 0x40 PUSH1 0x0 KECCAK256 PUSH1 0x0 SWAP2 POP SLOAD SWAP1 PUSH2 0x100 EXP SWAP1 DIV PUSH1 0xFF AND DUP2 JUMP JUMPDEST DUP2 PUSH2 0x1157 DUP2 PUSH2 0x2D7B JUMP JUMPDEST PUSH1 0x0 PUSH1 0xB PUSH1 0x0 DUP6 DUP2 MSTORE PUSH1 0x20 ADD SWAP1 DUP2 MSTORE PUSH1 0x20 ADD PUSH1 0x0 KECCAK256 PUSH1 0x0 ADD PUSH1 0x14 SWAP1 SLOAD SWAP1 PUSH2 0x100 EXP SWAP1 DIV PUSH4 0xFFFFFFFF AND SWAP1 POP PUSH2 0x118D DUP5 DUP3 DUP6 PUSH2 0x2E00 JUMP JUMPDEST DUP3 PUSH1 0xB PUSH1 0x0 DUP7 DUP2 MSTORE PUSH1 0x20 ADD SWAP1 DUP2 MSTORE PUSH1 0x20 ADD PUSH1 0x0 KECCAK256 PUSH1 0x0 ADD PUSH1 0x14 PUSH2 0x100 EXP DUP2 SLOAD DUP2 PUSH4 0xFFFFFFFF MUL NOT AND SWAP1 DUP4 PUSH4 0xFFFFFFFF AND MUL OR SWAP1 SSTORE POP DUP4 PUSH32 0x8EA2A7A959BD25F226B7B0A4393613F7FDCAA8404E8BAD96AA52DC1C14590167 DUP3 DUP6 PUSH1 0x40 MLOAD PUSH2 0x11F4 SWAP3 SWAP2 SWAP1 PUSH2 0x69CA JUMP JUMPDEST PUSH1 0x40 MLOAD DUP1 SWAP2 SUB SWAP1 LOG2 POP POP POP POP JUMP JUMPDEST PUSH1 0x9 PUSH1 0x20 MSTORE DUP1 PUSH1 0x0 MSTORE PUSH1 0x40 PUSH1 0x0 KECCAK256 PUSH1 0x0 SWAP2 POP SWAP1 POP SLOAD DUP2 JUMP JUMPDEST PUSH1 0x12 SLOAD DUP2 JUMP JUMPDEST PUSH2 0x1228 PUSH2 0x2B2D JUMP JUMPDEST PUSH1 0x1 PUSH1 0x0 DUP3 PUSH20 0xFFFFFFFFFFFFFFFFFFFFFFFFFFFFFFFFFFFFFFFF AND PUSH20 0xFFFFFFFFFFFFFFFFFFFFFFFFFFFFFFFFFFFFFFFF AND DUP2 MSTORE PUSH1 0x20 ADD SWAP1 DUP2 MSTORE PUSH1 0x20 ADD PUSH1 0x0 KECCAK256 PUSH1 0x0 SWAP1 SLOAD SWAP1 PUSH2 0x100 EXP SWAP1 DIV PUSH1 0xFF AND PUSH2 0x128B JUMPI PUSH2 0x128A PUSH2 0x1285 DUP3 PUSH2 0x2E5F JUMP JUMPDEST PUSH2 0x27BA JUMP JUMPDEST JUMPDEST PUSH1 0x0 DUP1 SWAP1 POP JUMPDEST PUSH1 0x2 DUP1 SLOAD SWAP1 POP DUP2 LT ISZERO PUSH2 0x1325 JUMPI DUP2 PUSH20 0xFFFFFFFFFFFFFFFFFFFFFFFFFFFFFFFFFFFFFFFF AND PUSH1 0x2 DUP3 DUP2 SLOAD DUP2 LT PUSH2 0x12C2 JUMPI INVALID JUMPDEST SWAP1 PUSH1 0x0 MSTORE PUSH1 0x20 PUSH1 0x0 KECCAK256 ADD PUSH1 0x0 SWAP1 SLOAD SWAP1 PUSH2 0x100 EXP SWAP1 DIV PUSH20 0xFFFFFFFFFFFFFFFFFFFFFFFFFFFFFFFFFFFFFFFF AND PUSH20 0xFFFFFFFFFFFFFFFFFFFFFFFFFFFFFFFFFFFFFFFF AND EQ ISZERO PUSH2 0x1318 JUMPI PUSH2 0x1313 DUP3 DUP3 PUSH2 0x2EDE JUMP JUMPDEST PUSH2 0x1325 JUMP JUMPDEST DUP1 DUP1 PUSH1 0x1 ADD SWAP2 POP POP PUSH2 0x1291 JUMP JUMPDEST POP POP JUMP JUMPDEST PUSH1 0x0 DUP1 PUSH1 0x0 PUSH20 0xFFFFFFFFFFFFFFFFFFFFFFFFFFFFFFFFFFFFFFFF AND PUSH4 0xB72E717D DUP5 PUSH1 0x40 MLOAD DUP3 PUSH4 0xFFFFFFFF AND PUSH1 0xE0 SHL DUP2 MSTORE PUSH1 0x4 ADD PUSH2 0x1366 SWAP2 SWAP1 PUSH2 0x6507 JUMP JUMPDEST PUSH1 0x0 PUSH1 0x40 MLOAD DUP1 DUP4 SUB DUP2 DUP7 DUP1 EXTCODESIZE ISZERO DUP1 ISZERO PUSH2 0x137E JUMPI PUSH1 0x0 DUP1 REVERT JUMPDEST POP GAS STATICCALL ISZERO DUP1 ISZERO PUSH2 0x1392 JUMPI RETURNDATASIZE PUSH1 0x0 DUP1 RETURNDATACOPY RETURNDATASIZE PUSH1 0x0 REVERT JUMPDEST POP POP POP POP PUSH1 0x40 MLOAD RETURNDATASIZE PUSH1 0x0 DUP3 RETURNDATACOPY RETURNDATASIZE PUSH1 0x1F NOT PUSH1 0x1F DUP3 ADD AND DUP3 ADD DUP1 PUSH1 0x40 MSTORE POP PUSH2 0x13BB SWAP2 SWAP1 DUP2 ADD SWAP1 PUSH2 0x6066 JUMP JUMPDEST POP SWAP5 POP POP POP POP SWAP2 POP PUSH1 0x0 DUP3 EQ ISZERO DUP1 ISZERO PUSH2 0x13FF JUMPI POP CALLER PUSH20 0xFFFFFFFFFFFFFFFFFFFFFFFFFFFFFFFFFFFFFFFF AND DUP2 PUSH20 0xFFFFFFFFFFFFFFFFFFFFFFFFFFFFFFFFFFFFFFFF AND EQ JUMPDEST PUSH2 0x143E JUMPI PUSH1 0x40 MLOAD PUSH32 0x8C379A000000000000000000000000000000000000000000000000000000000 DUP2 MSTORE PUSH1 0x4 ADD PUSH2 0x1435 SWAP1 PUSH2 0x67AB JUMP JUMPDEST PUSH1 0x40 MLOAD DUP1 SWAP2 SUB SWAP1 REVERT JUMPDEST PUSH1 0x0 PUSH1 0x9 PUSH1 0x0 DUP6 PUSH20 0xFFFFFFFFFFFFFFFFFFFFFFFFFFFFFFFFFFFFFFFF AND PUSH20 0xFFFFFFFFFFFFFFFFFFFFFFFFFFFFFFFFFFFFFFFF AND DUP2 MSTORE PUSH1 0x20 ADD SWAP1 DUP2 MSTORE PUSH1 0x20 ADD PUSH1 0x0 KECCAK256 SLOAD SWAP1 POP PUSH1 0x0 PUSH1 0xA PUSH1 0x0 DUP4 DUP2 MSTORE PUSH1 0x20 ADD SWAP1 DUP2 MSTORE PUSH1 0x20 ADD PUSH1 0x0 KECCAK256 DUP1 SLOAD SWAP1 POP SWAP1 POP PUSH1 0x64 DUP2 LT PUSH2 0x14E0 JUMPI PUSH1 0x40 MLOAD PUSH32 0x8C379A000000000000000000000000000000000000000000000000000000000 DUP2 MSTORE PUSH1 0x4 ADD PUSH2 0x14D7 SWAP1 PUSH2 0x67EB JUMP JUMPDEST PUSH1 0x40 MLOAD DUP1 SWAP2 SUB SWAP1 REVERT JUMPDEST PUSH1 0x0 DUP1 SHL DUP3 EQ PUSH2 0x1704 JUMPI PUSH1 0x0 PUSH1 0x60 PUSH1 0xA PUSH1 0x0 PUSH1 0x9 PUSH1 0x0 DUP11 PUSH20 0xFFFFFFFFFFFFFFFFFFFFFFFFFFFFFFFFFFFFFFFF AND PUSH20 0xFFFFFFFFFFFFFFFFFFFFFFFFFFFFFFFFFFFFFFFF AND DUP2 MSTORE PUSH1 0x20 ADD SWAP1 DUP2 MSTORE PUSH1 0x20 ADD PUSH1 0x0 KECCAK256 SLOAD DUP2 MSTORE PUSH1 0x20 ADD SWAP1 DUP2 MSTORE PUSH1 0x20 ADD PUSH1 0x0 KECCAK256 DUP1 SLOAD DUP1 PUSH1 0x20 MUL PUSH1 0x20 ADD PUSH1 0x40 MLOAD SWAP1 DUP2 ADD PUSH1 0x40 MSTORE DUP1 SWAP3 SWAP2 SWAP1 DUP2 DUP2 MSTORE PUSH1 0x20 ADD DUP3 DUP1 SLOAD DUP1 ISZERO PUSH2 0x15C0 JUMPI PUSH1 0x20 MUL DUP3 ADD SWAP2 SWAP1 PUSH1 0x0 MSTORE PUSH1 0x20 PUSH1 0x0 KECCAK256 SWAP1 JUMPDEST DUP2 PUSH1 0x0 SWAP1 SLOAD SWAP1 PUSH2 0x100 EXP SWAP1 DIV PUSH20 0xFFFFFFFFFFFFFFFFFFFFFFFFFFFFFFFFFFFFFFFF AND PUSH20 0xFFFFFFFFFFFFFFFFFFFFFFFFFFFFFFFFFFFFFFFF AND DUP2 MSTORE PUSH1 0x20 ADD SWAP1 PUSH1 0x1 ADD SWAP1 DUP1 DUP4 GT PUSH2 0x1576 JUMPI JUMPDEST POP POP POP POP POP SWAP1 POP PUSH1 0x0 DUP1 SWAP1 POP JUMPDEST DUP4 DUP2 LT ISZERO PUSH2 0x1631 JUMPI DUP8 PUSH20 0xFFFFFFFFFFFFFFFFFFFFFFFFFFFFFFFFFFFFFFFF AND DUP3 DUP3 DUP2 MLOAD DUP2 LT PUSH2 0x15F8 JUMPI INVALID JUMPDEST PUSH1 0x20 MUL PUSH1 0x20 ADD ADD MLOAD PUSH20 0xFFFFFFFFFFFFFFFFFFFFFFFFFFFFFFFFFFFFFFFF AND EQ PUSH2 0x1620 JUMPI PUSH2 0x1624 JUMP JUMPDEST DUP1 SWAP3 POP JUMPDEST DUP1 DUP1 PUSH1 0x1 ADD SWAP2 POP POP PUSH2 0x15CD JUMP JUMPDEST POP DUP1 PUSH1 0x1 DUP3 MLOAD SUB DUP2 MLOAD DUP2 LT PUSH2 0x1642 JUMPI INVALID JUMPDEST PUSH1 0x20 MUL PUSH1 0x20 ADD ADD MLOAD PUSH1 0xA PUSH1 0x0 DUP7 DUP2 MSTORE PUSH1 0x20 ADD SWAP1 DUP2 MSTORE PUSH1 0x20 ADD PUSH1 0x0 KECCAK256 DUP4 DUP2 SLOAD DUP2 LT PUSH2 0x1668 JUMPI INVALID JUMPDEST SWAP1 PUSH1 0x0 MSTORE PUSH1 0x20 PUSH1 0x0 KECCAK256 ADD PUSH1 0x0 PUSH2 0x100 EXP DUP2 SLOAD DUP2 PUSH20 0xFFFFFFFFFFFFFFFFFFFFFFFFFFFFFFFFFFFFFFFF MUL NOT AND SWAP1 DUP4 PUSH20 0xFFFFFFFFFFFFFFFFFFFFFFFFFFFFFFFFFFFFFFFF AND MUL OR SWAP1 SSTORE POP PUSH1 0xA PUSH1 0x0 DUP6 DUP2 MSTORE PUSH1 0x20 ADD SWAP1 DUP2 MSTORE PUSH1 0x20 ADD PUSH1 0x0 KECCAK256 DUP1 SLOAD DUP1 PUSH2 0x16CC JUMPI INVALID JUMPDEST PUSH1 0x1 SWAP1 SUB DUP2 DUP2 SWAP1 PUSH1 0x0 MSTORE PUSH1 0x20 PUSH1 0x0 KECCAK256 ADD PUSH1 0x0 PUSH2 0x100 EXP DUP2 SLOAD SWAP1 PUSH20 0xFFFFFFFFFFFFFFFFFFFFFFFFFFFFFFFFFFFFFFFF MUL NOT AND SWAP1 SSTORE SWAP1 SSTORE POP POP JUMPDEST DUP6 PUSH1 0x9 PUSH1 0x0 DUP8 PUSH20 0xFFFFFFFFFFFFFFFFFFFFFFFFFFFFFFFFFFFFFFFF AND PUSH20 0xFFFFFFFFFFFFFFFFFFFFFFFFFFFFFFFFFFFFFFFF AND DUP2 MSTORE PUSH1 0x20 ADD SWAP1 DUP2 MSTORE PUSH1 0x20 ADD PUSH1 0x0 KECCAK256 DUP2 SWAP1 SSTORE POP PUSH1 0xA PUSH1 0x0 DUP8 DUP2 MSTORE PUSH1 0x20 ADD SWAP1 DUP2 MSTORE PUSH1 0x20 ADD PUSH1 0x0 KECCAK256 DUP6 SWAP1 DUP1 PUSH1 0x1 DUP2 SLOAD ADD DUP1 DUP3 SSTORE DUP1 SWAP2 POP POP SWAP1 PUSH1 0x1 DUP3 SUB SWAP1 PUSH1 0x0 MSTORE PUSH1 0x20 PUSH1 0x0 KECCAK256 ADD PUSH1 0x0 SWAP1 SWAP2 SWAP3 SWAP1 SWAP2 SWAP1 SWAP2 PUSH2 0x100 EXP DUP2 SLOAD DUP2 PUSH20 0xFFFFFFFFFFFFFFFFFFFFFFFFFFFFFFFFFFFFFFFF MUL NOT AND SWAP1 DUP4 PUSH20 0xFFFFFFFFFFFFFFFFFFFFFFFFFFFFFFFFFFFFFFFF AND MUL OR SWAP1 SSTORE POP POP DUP6 DUP6 PUSH20 0xFFFFFFFFFFFFFFFFFFFFFFFFFFFFFFFFFFFFFFFF AND PUSH32 0xE8B9F7EE7A4480D45B60E98F7B2090DD82E2353B8557A6EE2DD2D5EE9196BAC2 PUSH1 0x40 MLOAD PUSH1 0x40 MLOAD DUP1 SWAP2 SUB SWAP1 LOG3 POP POP POP POP POP POP JUMP JUMPDEST PUSH1 0xD SLOAD DUP2 JUMP JUMPDEST PUSH1 0x15 PUSH1 0x0 SWAP1 SLOAD SWAP1 PUSH2 0x100 EXP SWAP1 DIV PUSH4 0xFFFFFFFF AND DUP2 JUMP JUMPDEST PUSH1 0x0 DUP1 CALLER SWAP1 POP PUSH2 0x1846 PUSH1 0x1 PUSH1 0x8 SLOAD PUSH1 0x0 SHR PUSH2 0x3174 SWAP1 SWAP2 SWAP1 PUSH4 0xFFFFFFFF AND JUMP JUMPDEST PUSH1 0x0 SHL PUSH1 0x8 DUP2 SWAP1 SSTORE SWAP2 POP PUSH2 0x185E DUP3 PUSH3 0xF4240 DUP7 PUSH2 0x2E00 JUMP JUMPDEST PUSH2 0x1866 PUSH2 0x5C1C JUMP JUMPDEST PUSH1 0x40 MLOAD DUP1 PUSH1 0x40 ADD PUSH1 0x40 MSTORE DUP1 DUP4 PUSH20 0xFFFFFFFFFFFFFFFFFFFFFFFFFFFFFFFFFFFFFFFF AND DUP2 MSTORE PUSH1 0x20 ADD DUP7 PUSH4 0xFFFFFFFF AND DUP2 MSTORE POP SWAP1 POP DUP1 PUSH1 0xB PUSH1 0x0 DUP6 DUP2 MSTORE PUSH1 0x20 ADD SWAP1 DUP2 MSTORE PUSH1 0x20 ADD PUSH1 0x0 KECCAK256 PUSH1 0x0 DUP3 ADD MLOAD DUP2 PUSH1 0x0 ADD PUSH1 0x0 PUSH2 0x100 EXP DUP2 SLOAD DUP2 PUSH20 0xFFFFFFFFFFFFFFFFFFFFFFFFFFFFFFFFFFFFFFFF MUL NOT AND SWAP1 DUP4 PUSH20 0xFFFFFFFFFFFFFFFFFFFFFFFFFFFFFFFFFFFFFFFF AND MUL OR SWAP1 SSTORE POP PUSH1 0x20 DUP3 ADD MLOAD DUP2 PUSH1 0x0 ADD PUSH1 0x14 PUSH2 0x100 EXP DUP2 SLOAD DUP2 PUSH4 0xFFFFFFFF MUL NOT AND SWAP1 DUP4 PUSH4 0xFFFFFFFF AND MUL OR SWAP1 SSTORE POP SWAP1 POP POP PUSH32 0xCEC6FC86EA644053F6EDFF1160DFE3FA5C61E7A5EF9F873F145BB03A0BD319E7 DUP4 DUP4 DUP8 PUSH1 0x40 MLOAD PUSH2 0x1951 SWAP4 SWAP3 SWAP2 SWAP1 PUSH2 0x662C JUMP JUMPDEST PUSH1 0x40 MLOAD DUP1 SWAP2 SUB SWAP1 LOG1 PUSH1 0x0 PUSH20 0xFFFFFFFFFFFFFFFFFFFFFFFFFFFFFFFFFFFFFFFF AND DUP5 PUSH20 0xFFFFFFFFFFFFFFFFFFFFFFFFFFFFFFFFFFFFFFFF AND EQ PUSH2 0x1998 JUMPI PUSH2 0x1997 DUP4 DUP6 PUSH2 0x1329 JUMP JUMPDEST JUMPDEST DUP3 SWAP3 POP POP POP SWAP3 SWAP2 POP POP JUMP JUMPDEST PUSH2 0x19AB PUSH2 0x26D3 JUMP JUMPDEST PUSH1 0x11 PUSH1 0x0 DUP3 PUSH20 0xFFFFFFFFFFFFFFFFFFFFFFFFFFFFFFFFFFFFFFFF AND PUSH20 0xFFFFFFFFFFFFFFFFFFFFFFFFFFFFFFFFFFFFFFFF AND DUP2 MSTORE PUSH1 0x20 ADD SWAP1 DUP2 MSTORE PUSH1 0x20 ADD PUSH1 0x0 KECCAK256 PUSH1 0x0 SWAP1 SLOAD SWAP1 PUSH2 0x100 EXP SWAP1 DIV PUSH1 0xFF AND ISZERO PUSH2 0x1A11 JUMPI PUSH2 0x1A10 PUSH2 0x1A0B PUSH1 0x0 DUP4 PUSH2 0x2738 JUMP JUMPDEST PUSH2 0x27BA JUMP JUMPDEST JUMPDEST PUSH1 0x1 PUSH1 0x11 PUSH1 0x0 DUP4 PUSH20 0xFFFFFFFFFFFFFFFFFFFFFFFFFFFFFFFFFFFFFFFF AND PUSH20 0xFFFFFFFFFFFFFFFFFFFFFFFFFFFFFFFFFFFFFFFF AND DUP2 MSTORE PUSH1 0x20 ADD SWAP1 DUP2 MSTORE PUSH1 0x20 ADD PUSH1 0x0 KECCAK256 PUSH1 0x0 PUSH2 0x100 EXP DUP2 SLOAD DUP2 PUSH1 0xFF MUL NOT AND SWAP1 DUP4 ISZERO ISZERO MUL OR SWAP1 SSTORE POP PUSH32 0x3E535D1AB441EF41C268FD9B52B478AEE02D693C5CA2A84B5D26B89E0922E5E1 DUP2 PUSH1 0x40 MLOAD PUSH2 0x1A98 SWAP2 SWAP1 PUSH2 0x6507 JUMP JUMPDEST PUSH1 0x40 MLOAD DUP1 SWAP2 SUB SWAP1 LOG1 POP JUMP JUMPDEST PUSH1 0x0 DUP1 SWAP1 SLOAD SWAP1 PUSH2 0x100 EXP SWAP1 DIV PUSH20 0xFFFFFFFFFFFFFFFFFFFFFFFFFFFFFFFFFFFFFFFF AND DUP2 JUMP JUMPDEST PUSH2 0x1AD0 PUSH2 0x2B2D JUMP JUMPDEST PUSH2 0x1ADA DUP3 DUP3 PUSH2 0x2EDE JUMP JUMPDEST POP POP JUMP JUMPDEST PUSH1 0x14 SLOAD DUP2 JUMP JUMPDEST PUSH1 0x11 PUSH1 0x0 CALLER PUSH20 0xFFFFFFFFFFFFFFFFFFFFFFFFFFFFFFFFFFFFFFFF AND PUSH20 0xFFFFFFFFFFFFFFFFFFFFFFFFFFFFFFFFFFFFFFFF AND DUP2 MSTORE PUSH1 0x20 ADD SWAP1 DUP2 MSTORE PUSH1 0x20 ADD PUSH1 0x0 KECCAK256 PUSH1 0x0 SWAP1 SLOAD SWAP1 PUSH2 0x100 EXP SWAP1 DIV PUSH1 0xFF AND PUSH2 0x1B47 JUMPI PUSH2 0x1B46 PUSH2 0x1B41 CALLER PUSH2 0x31A3 JUMP JUMPDEST PUSH2 0x27BA JUMP JUMPDEST JUMPDEST PUSH2 0x1B50 DUP2 PUSH2 0x3222 JUMP JUMPDEST PUSH1 0x0 CALLVALUE EQ ISZERO PUSH2 0x1C2F JUMPI PUSH2 0x1B61 PUSH2 0xEBD JUMP JUMPDEST PUSH20 0xFFFFFFFFFFFFFFFFFFFFFFFFFFFFFFFFFFFFFFFF AND PUSH4 0x23B872DD DUP4 ADDRESS DUP5 PUSH1 0x40 MLOAD DUP5 PUSH4 0xFFFFFFFF AND PUSH1 0xE0 SHL DUP2 MSTORE PUSH1 0x4 ADD PUSH2 0x1B9D SWAP4 SWAP3 SWAP2 SWAP1 PUSH2 0x654B JUMP JUMPDEST PUSH1 0x20 PUSH1 0x40 MLOAD DUP1 DUP4 SUB DUP2 PUSH1 0x0 DUP8 DUP1 EXTCODESIZE ISZERO DUP1 ISZERO PUSH2 0x1BB7 JUMPI PUSH1 0x0 DUP1 REVERT JUMPDEST POP GAS CALL ISZERO DUP1 ISZERO PUSH2 0x1BCB JUMPI RETURNDATASIZE PUSH1 0x0 DUP1 RETURNDATACOPY RETURNDATASIZE PUSH1 0x0 REVERT JUMPDEST POP POP POP POP PUSH1 0x40 MLOAD RETURNDATASIZE PUSH1 0x1F NOT PUSH1 0x1F DUP3 ADD AND DUP3 ADD DUP1 PUSH1 0x40 MSTORE POP PUSH2 0x1BEF SWAP2 SWAP1 DUP2 ADD SWAP1 PUSH2 0x5EE5 JUMP JUMPDEST PUSH2 0x1C2E JUMPI PUSH1 0x40 MLOAD PUSH32 0x8C379A000000000000000000000000000000000000000000000000000000000 DUP2 MSTORE PUSH1 0x4 ADD PUSH2 0x1C25 SWAP1 PUSH2 0x682B JUMP JUMPDEST PUSH1 0x40 MLOAD DUP1 SWAP2 SUB SWAP1 REVERT JUMPDEST JUMPDEST PUSH1 0x0 PUSH1 0x9 PUSH1 0x0 DUP6 PUSH20 0xFFFFFFFFFFFFFFFFFFFFFFFFFFFFFFFFFFFFFFFF AND PUSH20 0xFFFFFFFFFFFFFFFFFFFFFFFFFFFFFFFFFFFFFFFF AND DUP2 MSTORE PUSH1 0x20 ADD SWAP1 DUP2 MSTORE PUSH1 0x20 ADD PUSH1 0x0 KECCAK256 SLOAD SWAP1 POP PUSH1 0x0 DUP1 SHL DUP2 EQ ISZERO PUSH2 0x1C84 JUMPI POP PUSH2 0x1DE0 JUMP JUMPDEST PUSH1 0x0 PUSH2 0x1C8F DUP3 PUSH2 0xF27 JUMP JUMPDEST PUSH1 0x20 ADD MLOAD PUSH12 0xFFFFFFFFFFFFFFFFFFFFFFFF AND SWAP1 POP PUSH1 0x14 SLOAD DUP2 LT ISZERO PUSH2 0x1CB4 JUMPI POP POP PUSH2 0x1DE0 JUMP JUMPDEST PUSH1 0x0 PUSH1 0xD SLOAD SWAP1 POP PUSH1 0x0 PUSH1 0x16 PUSH1 0x0 DUP6 DUP2 MSTORE PUSH1 0x20 ADD SWAP1 DUP2 MSTORE PUSH1 0x20 ADD PUSH1 0x0 KECCAK256 PUSH1 0x0 DUP4 DUP2 MSTORE PUSH1 0x20 ADD SWAP1 DUP2 MSTORE PUSH1 0x20 ADD PUSH1 0x0 KECCAK256 SWAP1 POP PUSH1 0x0 PUSH1 0x17 PUSH1 0x0 DUP5 DUP2 MSTORE PUSH1 0x20 ADD SWAP1 DUP2 MSTORE PUSH1 0x20 ADD PUSH1 0x0 KECCAK256 SWAP1 POP PUSH1 0x0 DUP3 PUSH1 0x0 ADD SLOAD SWAP1 POP PUSH1 0x0 DUP2 EQ ISZERO PUSH2 0x1D9F JUMPI PUSH1 0x0 DUP1 PUSH2 0x1D19 DUP9 DUP9 PUSH2 0x324E JUMP JUMPDEST SWAP2 POP SWAP2 POP DUP2 DUP6 PUSH1 0x2 ADD DUP2 SWAP1 SSTORE POP DUP1 DUP6 PUSH1 0x1 ADD DUP2 SWAP1 SSTORE POP PUSH2 0x1D46 DUP2 DUP6 PUSH1 0x3 ADD SLOAD PUSH2 0x3174 SWAP1 SWAP2 SWAP1 PUSH4 0xFFFFFFFF AND JUMP JUMPDEST DUP5 PUSH1 0x3 ADD DUP2 SWAP1 SSTORE POP PUSH2 0x1D66 PUSH1 0x1 DUP6 PUSH1 0x1 ADD SLOAD PUSH2 0x3174 SWAP1 SWAP2 SWAP1 PUSH4 0xFFFFFFFF AND JUMP JUMPDEST DUP5 PUSH1 0x1 ADD DUP2 SWAP1 SSTORE POP DUP8 DUP7 PUSH32 0x14B098103235344975B17508C2391721CC9AC3F3FA2B56C7FF46F8480DFD074F PUSH1 0x40 MLOAD PUSH1 0x40 MLOAD DUP1 SWAP2 SUB SWAP1 LOG3 POP POP JUMPDEST PUSH2 0x1DB2 DUP8 DUP3 PUSH2 0x3174 SWAP1 SWAP2 SWAP1 PUSH4 0xFFFFFFFF AND JUMP JUMPDEST DUP4 PUSH1 0x0 ADD DUP2 SWAP1 SSTORE POP PUSH2 0x1DD1 DUP8 DUP4 PUSH1 0x2 ADD SLOAD PUSH2 0x3174 SWAP1 SWAP2 SWAP1 PUSH4 0xFFFFFFFF AND JUMP JUMPDEST DUP3 PUSH1 0x2 ADD DUP2 SWAP1 SSTORE POP POP POP POP POP POP POP JUMPDEST POP POP POP JUMP JUMPDEST PUSH1 0x8 SLOAD DUP2 JUMP JUMPDEST PUSH1 0x18 SLOAD DUP2 JUMP JUMPDEST PUSH1 0x0 PUSH2 0x1E0A PUSH1 0x12 SLOAD PUSH1 0xE SLOAD PUSH2 0x3174 SWAP1 SWAP2 SWAP1 PUSH4 0xFFFFFFFF AND JUMP JUMPDEST SWAP1 POP SWAP1 JUMP JUMPDEST PUSH2 0x1E19 DUP2 CALLER PUSH2 0x330A JUMP JUMPDEST POP JUMP JUMPDEST PUSH1 0x1 PUSH1 0x20 MSTORE DUP1 PUSH1 0x0 MSTORE PUSH1 0x40 PUSH1 0x0 KECCAK256 PUSH1 0x0 SWAP2 POP SLOAD SWAP1 PUSH2 0x100 EXP SWAP1 DIV PUSH1 0xFF AND DUP2 JUMP JUMPDEST PUSH1 0x0 PUSH2 0x1E46 PUSH2 0x5C1C JUMP JUMPDEST PUSH1 0xB PUSH1 0x0 DUP5 DUP2 MSTORE PUSH1 0x20 ADD SWAP1 DUP2 MSTORE PUSH1 0x20 ADD PUSH1 0x0 KECCAK256 PUSH1 0x40 MLOAD DUP1 PUSH1 0x40 ADD PUSH1 0x40 MSTORE SWAP1 DUP2 PUSH1 0x0 DUP3 ADD PUSH1 0x0 SWAP1 SLOAD SWAP1 PUSH2 0x100 EXP SWAP1 DIV PUSH20 0xFFFFFFFFFFFFFFFFFFFFFFFFFFFFFFFFFFFFFFFF AND PUSH20 0xFFFFFFFFFFFFFFFFFFFFFFFFFFFFFFFFFFFFFFFF AND PUSH20 0xFFFFFFFFFFFFFFFFFFFFFFFFFFFFFFFFFFFFFFFF AND DUP2 MSTORE PUSH1 0x20 ADD PUSH1 0x0 DUP3 ADD PUSH1 0x14 SWAP1 SLOAD SWAP1 PUSH2 0x100 EXP SWAP1 DIV PUSH4 0xFFFFFFFF AND PUSH4 0xFFFFFFFF AND PUSH4 0xFFFFFFFF AND DUP2 MSTORE POP POP SWAP1 POP PUSH1 0x0 DUP1 PUSH2 0x1EEE DUP6 PUSH2 0x3522 JUMP JUMPDEST SWAP2 POP SWAP2 POP PUSH2 0x1F01 DUP4 PUSH1 0x20 ADD MLOAD DUP4 DUP4 PUSH2 0x35FF JUMP JUMPDEST POP DUP1 SWAP5 POP POP DUP4 SWAP4 POP POP POP POP SWAP2 SWAP1 POP JUMP JUMPDEST PUSH1 0xC PUSH1 0x20 MSTORE DUP1 PUSH1 0x0 MSTORE PUSH1 0x40 PUSH1 0x0 KECCAK256 PUSH1 0x0 SWAP2 POP SWAP1 POP SLOAD DUP2 JUMP JUMPDEST PUSH1 0x60 PUSH1 0x2 DUP1 SLOAD DUP1 PUSH1 0x20 MUL PUSH1 0x20 ADD PUSH1 0x40 MLOAD SWAP1 DUP2 ADD PUSH1 0x40 MSTORE DUP1 SWAP3 SWAP2 SWAP1 DUP2 DUP2 MSTORE PUSH1 0x20 ADD DUP3 DUP1 SLOAD DUP1 ISZERO PUSH2 0x1FAD JUMPI PUSH1 0x20 MUL DUP3 ADD SWAP2 SWAP1 PUSH1 0x0 MSTORE PUSH1 0x20 PUSH1 0x0 KECCAK256 SWAP1 JUMPDEST DUP2 PUSH1 0x0 SWAP1 SLOAD SWAP1 PUSH2 0x100 EXP SWAP1 DIV PUSH20 0xFFFFFFFFFFFFFFFFFFFFFFFFFFFFFFFFFFFFFFFF AND PUSH20 0xFFFFFFFFFFFFFFFFFFFFFFFFFFFFFFFFFFFFFFFF AND DUP2 MSTORE PUSH1 0x20 ADD SWAP1 PUSH1 0x1 ADD SWAP1 DUP1 DUP4 GT PUSH2 0x1F63 JUMPI JUMPDEST POP POP POP POP POP SWAP1 POP SWAP1 JUMP JUMPDEST PUSH1 0x0 PUSH20 0xBA7F8B5FB1B19C1211C5D49550FCD149177A5EAF SWAP1 POP DUP1 SWAP1 POP SWAP1 JUMP JUMPDEST PUSH1 0x13 PUSH1 0x0 SWAP1 SLOAD SWAP1 PUSH2 0x100 EXP SWAP1 DIV PUSH4 0xFFFFFFFF AND DUP2 JUMP JUMPDEST PUSH2 0x1FF4 PUSH2 0x5BB4 JUMP JUMPDEST PUSH2 0x2020 PUSH1 0x4 PUSH1 0x0 PUSH1 0x1 DUP1 DUP2 GT ISZERO PUSH2 0x2007 JUMPI INVALID JUMPDEST PUSH1 0xFF AND PUSH1 0xFF AND DUP2 MSTORE PUSH1 0x20 ADD SWAP1 DUP2 MSTORE PUSH1 0x20 ADD PUSH1 0x0 KECCAK256 PUSH2 0x29EE JUMP JUMPDEST SWAP1 POP PUSH1 0x0 PUSH1 0x1 DUP2 GT ISZERO PUSH2 0x202F JUMPI INVALID JUMPDEST DUP3 PUSH1 0x1 DUP2 GT ISZERO PUSH2 0x203B JUMPI INVALID JUMPDEST EQ ISZERO PUSH2 0x2174 JUMPI PUSH1 0x0 PUSH2 0x204B PUSH2 0x1FB7 JUMP JUMPDEST PUSH20 0xFFFFFFFFFFFFFFFFFFFFFFFFFFFFFFFFFFFFFFFF AND PUSH4 0x6B6DF5AA PUSH1 0x40 MLOAD DUP2 PUSH4 0xFFFFFFFF AND PUSH1 0xE0 SHL DUP2 MSTORE PUSH1 0x4 ADD PUSH1 0x20 PUSH1 0x40 MLOAD DUP1 DUP4 SUB DUP2 DUP7 DUP1 EXTCODESIZE ISZERO DUP1 ISZERO PUSH2 0x2090 JUMPI PUSH1 0x0 DUP1 REVERT JUMPDEST POP GAS STATICCALL ISZERO DUP1 ISZERO PUSH2 0x20A4 JUMPI RETURNDATASIZE PUSH1 0x0 DUP1 RETURNDATACOPY RETURNDATASIZE PUSH1 0x0 REVERT JUMPDEST POP POP POP POP PUSH1 0x40 MLOAD RETURNDATASIZE PUSH1 0x1F NOT PUSH1 0x1F DUP3 ADD AND DUP3 ADD DUP1 PUSH1 0x40 MSTORE POP PUSH2 0x20C8 SWAP2 SWAP1 DUP2 ADD SWAP1 PUSH2 0x603D JUMP JUMPDEST SWAP1 POP PUSH2 0x20F7 PUSH2 0x20F2 DUP4 PUSH1 0x20 ADD MLOAD PUSH12 0xFFFFFFFFFFFFFFFFFFFFFFFF AND DUP4 PUSH2 0x27C2 SWAP1 SWAP2 SWAP1 PUSH4 0xFFFFFFFF AND JUMP JUMPDEST PUSH2 0x3653 JUMP JUMPDEST DUP3 PUSH1 0x20 ADD SWAP1 PUSH12 0xFFFFFFFFFFFFFFFFFFFFFFFF AND SWAP1 DUP2 PUSH12 0xFFFFFFFFFFFFFFFFFFFFFFFF AND DUP2 MSTORE POP POP PUSH2 0x214B PUSH2 0x2146 DUP4 PUSH1 0x40 ADD MLOAD PUSH12 0xFFFFFFFFFFFFFFFFFFFFFFFF AND DUP4 PUSH2 0x27C2 SWAP1 SWAP2 SWAP1 PUSH4 0xFFFFFFFF AND JUMP JUMPDEST PUSH2 0x3653 JUMP JUMPDEST DUP3 PUSH1 0x40 ADD SWAP1 PUSH12 0xFFFFFFFFFFFFFFFFFFFFFFFF AND SWAP1 DUP2 PUSH12 0xFFFFFFFFFFFFFFFFFFFFFFFF AND DUP2 MSTORE POP POP POP JUMPDEST DUP1 SWAP1 POP SWAP2 SWAP1 POP JUMP JUMPDEST PUSH1 0x15 PUSH1 0x4 SWAP1 SLOAD SWAP1 PUSH2 0x100 EXP SWAP1 DIV PUSH4 0xFFFFFFFF AND DUP2 JUMP JUMPDEST PUSH1 0x0 PUSH2 0x219C PUSH2 0x5C1C JUMP JUMPDEST PUSH1 0xB PUSH1 0x0 DUP6 DUP2 MSTORE PUSH1 0x20 ADD SWAP1 DUP2 MSTORE PUSH1 0x20 ADD PUSH1 0x0 KECCAK256 PUSH1 0x40 MLOAD DUP1 PUSH1 0x40 ADD PUSH1 0x40 MSTORE SWAP1 DUP2 PUSH1 0x0 DUP3 ADD PUSH1 0x0 SWAP1 SLOAD SWAP1 PUSH2 0x100 EXP SWAP1 DIV PUSH20 0xFFFFFFFFFFFFFFFFFFFFFFFFFFFFFFFFFFFFFFFF AND PUSH20 0xFFFFFFFFFFFFFFFFFFFFFFFFFFFFFFFFFFFFFFFF AND PUSH20 0xFFFFFFFFFFFFFFFFFFFFFFFFFFFFFFFFFFFFFFFF AND DUP2 MSTORE PUSH1 0x20 ADD PUSH1 0x0 DUP3 ADD PUSH1 0x14 SWAP1 SLOAD SWAP1 PUSH2 0x100 EXP SWAP1 DIV PUSH4 0xFFFFFFFF AND PUSH4 0xFFFFFFFF AND PUSH4 0xFFFFFFFF AND DUP2 MSTORE POP POP SWAP1 POP PUSH1 0x0 DUP1 PUSH2 0x2244 DUP7 PUSH2 0x3522 JUMP JUMPDEST SWAP2 POP SWAP2 POP PUSH1 0x0 PUSH2 0x2259 DUP5 PUSH1 0x20 ADD MLOAD DUP5 DUP5 PUSH2 0x35FF JUMP JUMPDEST SWAP2 POP POP PUSH2 0x2268 DUP8 DUP8 DUP4 DUP6 PUSH2 0x3689 JUMP JUMPDEST SWAP5 POP POP POP POP POP SWAP3 SWAP2 POP POP JUMP JUMPDEST PUSH1 0x3 PUSH1 0x0 SWAP1 SLOAD SWAP1 PUSH2 0x100 EXP SWAP1 DIV PUSH20 0xFFFFFFFFFFFFFFFFFFFFFFFFFFFFFFFFFFFFFFFF AND DUP2 JUMP JUMPDEST PUSH2 0x22A2 PUSH2 0x5BB4 JUMP JUMPDEST PUSH2 0x22FA PUSH1 0x6 PUSH1 0x0 DUP6 PUSH20 0xFFFFFFFFFFFFFFFFFFFFFFFFFFFFFFFFFFFFFFFF AND PUSH20 0xFFFFFFFFFFFFFFFFFFFFFFFFFFFFFFFFFFFFFFFF AND DUP2 MSTORE PUSH1 0x20 ADD SWAP1 DUP2 MSTORE PUSH1 0x20 ADD PUSH1 0x0 KECCAK256 PUSH1 0x0 DUP5 DUP2 MSTORE PUSH1 0x20 ADD SWAP1 DUP2 MSTORE PUSH1 0x20 ADD PUSH1 0x0 KECCAK256 PUSH2 0x29EE JUMP JUMPDEST SWAP1 POP DUP1 SWAP1 POP SWAP3 SWAP2 POP POP JUMP JUMPDEST PUSH2 0x230D PUSH2 0x2B2D JUMP JUMPDEST PUSH1 0x0 PUSH20 0xFFFFFFFFFFFFFFFFFFFFFFFFFFFFFFFFFFFFFFFF AND DUP2 PUSH20 0xFFFFFFFFFFFFFFFFFFFFFFFFFFFFFFFFFFFFFFFF AND EQ ISZERO PUSH2 0x2357 JUMPI PUSH2 0x2352 PUSH2 0x234D PUSH2 0x387A JUMP JUMPDEST PUSH2 0x27BA JUMP JUMPDEST PUSH2 0x23F2 JUMP JUMPDEST DUP1 PUSH1 0x0 DUP1 PUSH2 0x100 EXP DUP2 SLOAD DUP2 PUSH20 0xFFFFFFFFFFFFFFFFFFFFFFFFFFFFFFFFFFFFFFFF MUL NOT AND SWAP1 DUP4 PUSH20 0xFFFFFFFFFFFFFFFFFFFFFFFFFFFFFFFFFFFFFFFF AND MUL OR SWAP1 SSTORE POP DUP1 PUSH20 0xFFFFFFFFFFFFFFFFFFFFFFFFFFFFFFFFFFFFFFFF AND CALLER PUSH20 0xFFFFFFFFFFFFFFFFFFFFFFFFFFFFFFFFFFFFFFFF AND PUSH32 0x8BE0079C531659141344CD1FD0A4F28419497F9722A3DAAFE3B4186F6B6457E0 PUSH1 0x40 MLOAD PUSH1 0x40 MLOAD DUP1 SWAP2 SUB SWAP1 LOG3 JUMPDEST POP JUMP JUMPDEST PUSH2 0x23FE CALLER PUSH2 0x38B7 JUMP JUMPDEST ISZERO PUSH2 0x243E JUMPI PUSH1 0x40 MLOAD PUSH32 0x8C379A000000000000000000000000000000000000000000000000000000000 DUP2 MSTORE PUSH1 0x4 ADD PUSH2 0x2435 SWAP1 PUSH2 0x67CB JUMP JUMPDEST PUSH1 0x40 MLOAD DUP1 SWAP2 SUB SWAP1 REVERT JUMPDEST PUSH1 0x0 PUSH1 0xD SLOAD SWAP1 POP PUSH1 0x0 PUSH2 0x245B PUSH1 0x1 DUP4 PUSH2 0x27C2 SWAP1 SWAP2 SWAP1 PUSH4 0xFFFFFFFF AND JUMP JUMPDEST SWAP1 POP PUSH2 0x2465 PUSH2 0x5B85 JUMP JUMPDEST PUSH1 0x17 PUSH1 0x0 DUP4 DUP2 MSTORE PUSH1 0x20 ADD SWAP1 DUP2 MSTORE PUSH1 0x20 ADD PUSH1 0x0 KECCAK256 PUSH1 0x40 MLOAD DUP1 PUSH1 0xA0 ADD PUSH1 0x40 MSTORE SWAP1 DUP2 PUSH1 0x0 DUP3 ADD SLOAD DUP2 MSTORE PUSH1 0x20 ADD PUSH1 0x1 DUP3 ADD SLOAD DUP2 MSTORE PUSH1 0x20 ADD PUSH1 0x2 DUP3 ADD SLOAD DUP2 MSTORE PUSH1 0x20 ADD PUSH1 0x3 DUP3 ADD SLOAD DUP2 MSTORE PUSH1 0x20 ADD PUSH1 0x4 DUP3 ADD SLOAD DUP2 MSTORE POP POP SWAP1 POP PUSH1 0x0 DUP2 PUSH1 0x20 ADD MLOAD EQ ISZERO PUSH2 0x24CC JUMPI POP POP POP PUSH2 0x26D0 JUMP JUMPDEST PUSH2 0x24D4 PUSH2 0x5BFB JUMP JUMPDEST PUSH1 0x16 PUSH1 0x0 DUP7 DUP2 MSTORE PUSH1 0x20 ADD SWAP1 DUP2 MSTORE PUSH1 0x20 ADD PUSH1 0x0 KECCAK256 PUSH1 0x0 DUP5 DUP2 MSTORE PUSH1 0x20 ADD SWAP1 DUP2 MSTORE PUSH1 0x20 ADD PUSH1 0x0 KECCAK256 PUSH1 0x40 MLOAD DUP1 PUSH1 0x60 ADD PUSH1 0x40 MSTORE SWAP1 DUP2 PUSH1 0x0 DUP3 ADD SLOAD DUP2 MSTORE PUSH1 0x20 ADD PUSH1 0x1 DUP3 ADD SLOAD DUP2 MSTORE PUSH1 0x20 ADD PUSH1 0x2 DUP3 ADD SLOAD DUP2 MSTORE POP POP SWAP1 POP PUSH1 0x0 DUP2 PUSH1 0x0 ADD MLOAD EQ ISZERO PUSH2 0x2539 JUMPI POP POP POP POP PUSH2 0x26D0 JUMP JUMPDEST PUSH1 0x16 PUSH1 0x0 DUP7 DUP2 MSTORE PUSH1 0x20 ADD SWAP1 DUP2 MSTORE PUSH1 0x20 ADD PUSH1 0x0 KECCAK256 PUSH1 0x0 DUP5 DUP2 MSTORE PUSH1 0x20 ADD SWAP1 DUP2 MSTORE PUSH1 0x20 ADD PUSH1 0x0 KECCAK256 PUSH1 0x0 DUP1 DUP3 ADD PUSH1 0x0 SWAP1 SSTORE PUSH1 0x1 DUP3 ADD PUSH1 0x0 SWAP1 SSTORE PUSH1 0x2 DUP3 ADD PUSH1 0x0 SWAP1 SSTORE POP POP PUSH1 0x0 PUSH2 0x2584 DUP3 DUP5 PUSH2 0x38CA JUMP JUMPDEST SWAP1 POP PUSH1 0x0 DUP1 PUSH2 0x2598 DUP9 DUP5 DUP7 PUSH1 0x40 ADD MLOAD PUSH2 0x395C JUMP JUMPDEST SWAP2 POP SWAP2 POP DUP8 DUP8 PUSH32 0xF1116B309178AA62DCB6BF8C3B8BC2321724907C7EBF52192D14C8CE3AA9194C DUP5 DUP5 PUSH1 0x40 MLOAD PUSH2 0x25CF SWAP3 SWAP2 SWAP1 PUSH2 0x68B7 JUMP JUMPDEST PUSH1 0x40 MLOAD DUP1 SWAP2 SUB SWAP1 LOG3 PUSH1 0x0 PUSH2 0x25EC DUP3 DUP5 PUSH2 0x3174 SWAP1 SWAP2 SWAP1 PUSH4 0xFFFFFFFF AND JUMP JUMPDEST SWAP1 POP PUSH2 0x2605 DUP2 DUP8 PUSH1 0x80 ADD MLOAD PUSH2 0x3174 SWAP1 SWAP2 SWAP1 PUSH4 0xFFFFFFFF AND JUMP JUMPDEST DUP7 PUSH1 0x80 ADD DUP2 DUP2 MSTORE POP PUSH1 0x17 PUSH1 0x0 DUP10 DUP2 MSTORE PUSH1 0x20 ADD SWAP1 DUP2 MSTORE PUSH1 0x20 ADD PUSH1 0x0 KECCAK256 PUSH1 0x4 ADD DUP2 SWAP1 SSTORE POP PUSH2 0x263F PUSH1 0x1 DUP8 PUSH1 0x20 ADD MLOAD PUSH2 0x27C2 SWAP1 SWAP2 SWAP1 PUSH4 0xFFFFFFFF AND JUMP JUMPDEST DUP7 PUSH1 0x20 ADD DUP2 DUP2 MSTORE POP PUSH1 0x17 PUSH1 0x0 DUP10 DUP2 MSTORE PUSH1 0x20 ADD SWAP1 DUP2 MSTORE PUSH1 0x20 ADD PUSH1 0x0 KECCAK256 PUSH1 0x1 ADD DUP2 SWAP1 SSTORE POP PUSH1 0x0 DUP7 PUSH1 0x20 ADD MLOAD EQ ISZERO PUSH2 0x26C7 JUMPI DUP7 PUSH32 0xB463D19ECF455BE65365092CF8E1DB6934A0334CF8CD532DDF9964D01F36B5B2 DUP8 PUSH1 0x80 ADD MLOAD PUSH2 0x26B0 DUP10 PUSH1 0x80 ADD MLOAD DUP11 PUSH1 0x0 ADD MLOAD PUSH2 0x27C2 SWAP1 SWAP2 SWAP1 PUSH4 0xFFFFFFFF AND JUMP JUMPDEST PUSH1 0x40 MLOAD PUSH2 0x26BE SWAP3 SWAP2 SWAP1 PUSH2 0x68B7 JUMP JUMPDEST PUSH1 0x40 MLOAD DUP1 SWAP2 SUB SWAP1 LOG2 JUMPDEST POP POP POP POP POP POP POP POP JUMPDEST POP JUMP JUMPDEST PUSH1 0x1 PUSH1 0x0 CALLER PUSH20 0xFFFFFFFFFFFFFFFFFFFFFFFFFFFFFFFFFFFFFFFF AND PUSH20 0xFFFFFFFFFFFFFFFFFFFFFFFFFFFFFFFFFFFFFFFF AND DUP2 MSTORE PUSH1 0x20 ADD SWAP1 DUP2 MSTORE PUSH1 0x20 ADD PUSH1 0x0 KECCAK256 PUSH1 0x0 SWAP1 SLOAD SWAP1 PUSH2 0x100 EXP SWAP1 DIV PUSH1 0xFF AND PUSH2 0x2736 JUMPI PUSH2 0x2735 PUSH2 0x2730 CALLER PUSH2 0x3AEB JUMP JUMPDEST PUSH2 0x27BA JUMP JUMPDEST JUMPDEST JUMP JUMPDEST PUSH1 0x60 PUSH4 0xB9588E43 PUSH1 0xE0 SHL DUP4 DUP4 PUSH1 0x40 MLOAD PUSH1 0x24 ADD PUSH2 0x2755 SWAP3 SWAP2 SWAP1 PUSH2 0x6722 JUMP JUMPDEST PUSH1 0x40 MLOAD PUSH1 0x20 DUP2 DUP4 SUB SUB DUP2 MSTORE SWAP1 PUSH1 0x40 MSTORE SWAP1 PUSH28 0xFFFFFFFFFFFFFFFFFFFFFFFFFFFFFFFFFFFFFFFFFFFFFFFFFFFFFFFF NOT AND PUSH1 0x20 DUP3 ADD DUP1 MLOAD PUSH28 0xFFFFFFFFFFFFFFFFFFFFFFFFFFFFFFFFFFFFFFFFFFFFFFFFFFFFFFFF DUP4 DUP2 DUP4 AND OR DUP4 MSTORE POP POP POP POP SWAP1 POP SWAP3 SWAP2 POP POP JUMP JUMPDEST DUP1 MLOAD PUSH1 0x20 DUP3 ADD REVERT JUMPDEST PUSH1 0x0 DUP3 DUP3 GT ISZERO PUSH2 0x27E1 JUMPI PUSH2 0x27E0 PUSH2 0x27DB PUSH1 0x2 DUP6 DUP6 PUSH2 0x3B6A JUMP JUMPDEST PUSH2 0x27BA JUMP JUMPDEST JUMPDEST DUP2 DUP4 SUB SWAP1 POP SWAP3 SWAP2 POP POP JUMP JUMPDEST PUSH1 0x60 PUSH4 0x614B800A PUSH1 0xE0 SHL DUP4 DUP4 PUSH1 0x40 MLOAD PUSH1 0x24 ADD PUSH2 0x2809 SWAP3 SWAP2 SWAP1 PUSH2 0x68B7 JUMP JUMPDEST PUSH1 0x40 MLOAD PUSH1 0x20 DUP2 DUP4 SUB SUB DUP2 MSTORE SWAP1 PUSH1 0x40 MSTORE SWAP1 PUSH28 0xFFFFFFFFFFFFFFFFFFFFFFFFFFFFFFFFFFFFFFFFFFFFFFFFFFFFFFFF NOT AND PUSH1 0x20 DUP3 ADD DUP1 MLOAD PUSH28 0xFFFFFFFFFFFFFFFFFFFFFFFFFFFFFFFFFFFFFFFFFFFFFFFFFFFFFFFF DUP4 DUP2 DUP4 AND OR DUP4 MSTORE POP POP POP POP SWAP1 POP SWAP3 SWAP2 POP POP JUMP JUMPDEST PUSH1 0x0 SELFBALANCE SWAP1 POP PUSH1 0x0 DUP2 EQ PUSH2 0x28E4 JUMPI PUSH2 0x2883 PUSH2 0xEBD JUMP JUMPDEST PUSH20 0xFFFFFFFFFFFFFFFFFFFFFFFFFFFFFFFFFFFFFFFF AND PUSH4 0xD0E30DB0 DUP3 PUSH1 0x40 MLOAD DUP3 PUSH4 0xFFFFFFFF AND PUSH1 0xE0 SHL DUP2 MSTORE PUSH1 0x4 ADD PUSH1 0x0 PUSH1 0x40 MLOAD DUP1 DUP4 SUB DUP2 DUP6 DUP9 DUP1 EXTCODESIZE ISZERO DUP1 ISZERO PUSH2 0x28CA JUMPI PUSH1 0x0 DUP1 REVERT JUMPDEST POP GAS CALL ISZERO DUP1 ISZERO PUSH2 0x28DE JUMPI RETURNDATASIZE PUSH1 0x0 DUP1 RETURNDATACOPY RETURNDATASIZE PUSH1 0x0 REVERT JUMPDEST POP POP POP POP POP JUMPDEST POP JUMP JUMPDEST PUSH1 0x0 PUSH2 0x298D PUSH1 0x18 SLOAD PUSH2 0x28F7 PUSH2 0xEBD JUMP JUMPDEST PUSH20 0xFFFFFFFFFFFFFFFFFFFFFFFFFFFFFFFFFFFFFFFF AND PUSH4 0x70A08231 ADDRESS PUSH1 0x40 MLOAD DUP3 PUSH4 0xFFFFFFFF AND PUSH1 0xE0 SHL DUP2 MSTORE PUSH1 0x4 ADD PUSH2 0x292F SWAP2 SWAP1 PUSH2 0x6507 JUMP JUMPDEST PUSH1 0x20 PUSH1 0x40 MLOAD DUP1 DUP4 SUB DUP2 DUP7 DUP1 EXTCODESIZE ISZERO DUP1 ISZERO PUSH2 0x2947 JUMPI PUSH1 0x0 DUP1 REVERT JUMPDEST POP GAS STATICCALL ISZERO DUP1 ISZERO PUSH2 0x295B JUMPI RETURNDATASIZE PUSH1 0x0 DUP1 RETURNDATACOPY RETURNDATASIZE PUSH1 0x0 REVERT JUMPDEST POP POP POP POP PUSH1 0x40 MLOAD RETURNDATASIZE PUSH1 0x1F NOT PUSH1 0x1F DUP3 ADD AND DUP3 ADD DUP1 PUSH1 0x40 MSTORE POP PUSH2 0x297F SWAP2 SWAP1 DUP2 ADD SWAP1 PUSH2 0x603D JUMP JUMPDEST PUSH2 0x27C2 SWAP1 SWAP2 SWAP1 PUSH4 0xFFFFFFFF AND JUMP JUMPDEST SWAP1 POP DUP1 SWAP1 POP SWAP1 JUMP JUMPDEST PUSH1 0x0 TIMESTAMP SWAP1 POP PUSH1 0x0 PUSH2 0x29A4 PUSH2 0x1DF1 JUMP JUMPDEST SWAP1 POP DUP2 DUP2 GT ISZERO PUSH2 0x29C1 JUMPI PUSH2 0x29C0 PUSH2 0x29BB DUP3 DUP5 PUSH2 0x3BEF JUMP JUMPDEST PUSH2 0x27BA JUMP JUMPDEST JUMPDEST PUSH1 0x0 PUSH2 0x29D9 PUSH1 0x1 PUSH1 0xD SLOAD PUSH2 0x3174 SWAP1 SWAP2 SWAP1 PUSH4 0xFFFFFFFF AND JUMP JUMPDEST SWAP1 POP DUP1 PUSH1 0xD DUP2 SWAP1 SSTORE POP DUP3 PUSH1 0xE DUP2 SWAP1 SSTORE POP POP POP POP JUMP JUMPDEST PUSH2 0x29F6 PUSH2 0x5BB4 JUMP JUMPDEST DUP2 PUSH1 0x40 MLOAD DUP1 PUSH1 0x60 ADD PUSH1 0x40 MSTORE SWAP1 DUP2 PUSH1 0x0 DUP3 ADD PUSH1 0x0 SWAP1 SLOAD SWAP1 PUSH2 0x100 EXP SWAP1 DIV PUSH8 0xFFFFFFFFFFFFFFFF AND PUSH8 0xFFFFFFFFFFFFFFFF AND PUSH8 0xFFFFFFFFFFFFFFFF AND DUP2 MSTORE PUSH1 0x20 ADD PUSH1 0x0 DUP3 ADD PUSH1 0x8 SWAP1 SLOAD SWAP1 PUSH2 0x100 EXP SWAP1 DIV PUSH12 0xFFFFFFFFFFFFFFFFFFFFFFFF AND PUSH12 0xFFFFFFFFFFFFFFFFFFFFFFFF AND PUSH12 0xFFFFFFFFFFFFFFFFFFFFFFFF AND DUP2 MSTORE PUSH1 0x20 ADD PUSH1 0x0 DUP3 ADD PUSH1 0x14 SWAP1 SLOAD SWAP1 PUSH2 0x100 EXP SWAP1 DIV PUSH12 0xFFFFFFFFFFFFFFFFFFFFFFFF AND PUSH12 0xFFFFFFFFFFFFFFFFFFFFFFFF AND PUSH12 0xFFFFFFFFFFFFFFFFFFFFFFFF AND DUP2 MSTORE POP POP SWAP1 POP PUSH1 0x0 PUSH1 0xD SLOAD SWAP1 POP DUP2 PUSH1 0x0 ADD MLOAD PUSH8 0xFFFFFFFFFFFFFFFF AND DUP2 GT ISZERO PUSH2 0x2B24 JUMPI PUSH2 0x2AD8 DUP2 PUSH2 0x3C71 JUMP JUMPDEST DUP3 PUSH1 0x0 ADD SWAP1 PUSH8 0xFFFFFFFFFFFFFFFF AND SWAP1 DUP2 PUSH8 0xFFFFFFFFFFFFFFFF AND DUP2 MSTORE POP POP DUP2 PUSH1 0x40 ADD MLOAD DUP3 PUSH1 0x20 ADD SWAP1 PUSH12 0xFFFFFFFFFFFFFFFFFFFFFFFF AND SWAP1 DUP2 PUSH12 0xFFFFFFFFFFFFFFFFFFFFFFFF AND DUP2 MSTORE POP POP JUMPDEST DUP2 SWAP2 POP POP SWAP2 SWAP1 POP JUMP JUMPDEST PUSH1 0x0 DUP1 SWAP1 SLOAD SWAP1 PUSH2 0x100 EXP SWAP1 DIV PUSH20 0xFFFFFFFFFFFFFFFFFFFFFFFFFFFFFFFFFFFFFFFF AND PUSH20 0xFFFFFFFFFFFFFFFFFFFFFFFFFFFFFFFFFFFFFFFF AND CALLER PUSH20 0xFFFFFFFFFFFFFFFFFFFFFFFFFFFFFFFFFFFFFFFF AND EQ PUSH2 0x2BB5 JUMPI PUSH2 0x2BB4 PUSH2 0x2BAF CALLER PUSH1 0x0 DUP1 SWAP1 SLOAD SWAP1 PUSH2 0x100 EXP SWAP1 DIV PUSH20 0xFFFFFFFFFFFFFFFFFFFFFFFFFFFFFFFFFFFFFFFF AND PUSH2 0x3CA3 JUMP JUMPDEST PUSH2 0x27BA JUMP JUMPDEST JUMPDEST JUMP JUMPDEST PUSH1 0x0 PUSH20 0xFFFFFFFFFFFFFFFFFFFFFFFFFFFFFFFFFFFFFFFF AND DUP2 PUSH20 0xFFFFFFFFFFFFFFFFFFFFFFFFFFFFFFFFFFFFFFFF AND EQ ISZERO PUSH2 0x2BFD JUMPI PUSH2 0x2BFC PUSH2 0x2BF7 PUSH2 0x3D25 JUMP JUMPDEST PUSH2 0x27BA JUMP JUMPDEST JUMPDEST PUSH1 0x1 PUSH1 0x0 DUP3 PUSH20 0xFFFFFFFFFFFFFFFFFFFFFFFFFFFFFFFFFFFFFFFF AND PUSH20 0xFFFFFFFFFFFFFFFFFFFFFFFFFFFFFFFFFFFFFFFF AND DUP2 MSTORE PUSH1 0x20 ADD SWAP1 DUP2 MSTORE PUSH1 0x20 ADD PUSH1 0x0 KECCAK256 PUSH1 0x0 SWAP1 SLOAD SWAP1 PUSH2 0x100 EXP SWAP1 DIV PUSH1 0xFF AND ISZERO PUSH2 0x2C61 JUMPI PUSH2 0x2C60 PUSH2 0x2C5B DUP3 PUSH2 0x3D62 JUMP JUMPDEST PUSH2 0x27BA JUMP JUMPDEST JUMPDEST PUSH1 0x1 DUP1 PUSH1 0x0 DUP4 PUSH20 0xFFFFFFFFFFFFFFFFFFFFFFFFFFFFFFFFFFFFFFFF AND PUSH20 0xFFFFFFFFFFFFFFFFFFFFFFFFFFFFFFFFFFFFFFFF AND DUP2 MSTORE PUSH1 0x20 ADD SWAP1 DUP2 MSTORE PUSH1 0x20 ADD PUSH1 0x0 KECCAK256 PUSH1 0x0 PUSH2 0x100 EXP DUP2 SLOAD DUP2 PUSH1 0xFF MUL NOT AND SWAP1 DUP4 ISZERO ISZERO MUL OR SWAP1 SSTORE POP PUSH1 0x2 DUP2 SWAP1 DUP1 PUSH1 0x1 DUP2 SLOAD ADD DUP1 DUP3 SSTORE DUP1 SWAP2 POP POP SWAP1 PUSH1 0x1 DUP3 SUB SWAP1 PUSH1 0x0 MSTORE PUSH1 0x20 PUSH1 0x0 KECCAK256 ADD PUSH1 0x0 SWAP1 SWAP2 SWAP3 SWAP1 SWAP2 SWAP1 SWAP2 PUSH2 0x100 EXP DUP2 SLOAD DUP2 PUSH20 0xFFFFFFFFFFFFFFFFFFFFFFFFFFFFFFFFFFFFFFFF MUL NOT AND SWAP1 DUP4 PUSH20 0xFFFFFFFFFFFFFFFFFFFFFFFFFFFFFFFFFFFFFFFF AND MUL OR SWAP1 SSTORE POP POP CALLER PUSH20 0xFFFFFFFFFFFFFFFFFFFFFFFFFFFFFFFFFFFFFFFF AND DUP2 PUSH20 0xFFFFFFFFFFFFFFFFFFFFFFFFFFFFFFFFFFFFFFFF AND PUSH32 0x3147867C59D17E8FA9D522465651D44AAE0A9E38F902F3475B97E58072F0ED4C PUSH1 0x40 MLOAD PUSH1 0x40 MLOAD DUP1 SWAP2 SUB SWAP1 LOG3 POP JUMP JUMPDEST PUSH1 0x0 PUSH1 0xB PUSH1 0x0 DUP4 DUP2 MSTORE PUSH1 0x20 ADD SWAP1 DUP2 MSTORE PUSH1 0x20 ADD PUSH1 0x0 KECCAK256 PUSH1 0x0 ADD PUSH1 0x0 SWAP1 SLOAD SWAP1 PUSH2 0x100 EXP SWAP1 DIV PUSH20 0xFFFFFFFFFFFFFFFFFFFFFFFFFFFFFFFFFFFFFFFF AND SWAP1 POP DUP1 PUSH20 0xFFFFFFFFFFFFFFFFFFFFFFFFFFFFFFFFFFFFFFFF AND CALLER PUSH20 0xFFFFFFFFFFFFFFFFFFFFFFFFFFFFFFFFFFFFFFFF AND EQ PUSH2 0x2DFC JUMPI PUSH2 0x2DFB PUSH2 0x2DF6 CALLER DUP5 PUSH2 0x3DE1 JUMP JUMPDEST PUSH2 0x27BA JUMP JUMPDEST JUMPDEST POP POP JUMP JUMPDEST PUSH3 0xF4240 PUSH4 0xFFFFFFFF AND DUP2 PUSH4 0xFFFFFFFF AND GT ISZERO PUSH2 0x2E30 JUMPI PUSH2 0x2E2B PUSH2 0x2E26 PUSH1 0x0 DUP6 DUP5 PUSH2 0x3E63 JUMP JUMPDEST PUSH2 0x27BA JUMP JUMPDEST PUSH2 0x2E5A JUMP JUMPDEST DUP2 PUSH4 0xFFFFFFFF AND DUP2 PUSH4 0xFFFFFFFF AND GT ISZERO PUSH2 0x2E59 JUMPI PUSH2 0x2E58 PUSH2 0x2E53 PUSH1 0x1 DUP6 DUP5 PUSH2 0x3E63 JUMP JUMPDEST PUSH2 0x27BA JUMP JUMPDEST JUMPDEST JUMPDEST POP POP POP JUMP JUMPDEST PUSH1 0x60 PUSH4 0xEB5108A2 PUSH1 0xE0 SHL DUP3 PUSH1 0x40 MLOAD PUSH1 0x24 ADD PUSH2 0x2E7A SWAP2 SWAP1 PUSH2 0x6507 JUMP JUMPDEST PUSH1 0x40 MLOAD PUSH1 0x20 DUP2 DUP4 SUB SUB DUP2 MSTORE SWAP1 PUSH1 0x40 MSTORE SWAP1 PUSH28 0xFFFFFFFFFFFFFFFFFFFFFFFFFFFFFFFFFFFFFFFFFFFFFFFFFFFFFFFF NOT AND PUSH1 0x20 DUP3 ADD DUP1 MLOAD PUSH28 0xFFFFFFFFFFFFFFFFFFFFFFFFFFFFFFFFFFFFFFFFFFFFFFFFFFFFFFFF DUP4 DUP2 DUP4 AND OR DUP4 MSTORE POP POP POP POP SWAP1 POP SWAP2 SWAP1 POP JUMP JUMPDEST PUSH1 0x1 PUSH1 0x0 DUP4 PUSH20 0xFFFFFFFFFFFFFFFFFFFFFFFFFFFFFFFFFFFFFFFF AND PUSH20 0xFFFFFFFFFFFFFFFFFFFFFFFFFFFFFFFFFFFFFFFF AND DUP2 MSTORE PUSH1 0x20 ADD SWAP1 DUP2 MSTORE PUSH1 0x20 ADD PUSH1 0x0 KECCAK256 PUSH1 0x0 SWAP1 SLOAD SWAP1 PUSH2 0x100 EXP SWAP1 DIV PUSH1 0xFF AND PUSH2 0x2F41 JUMPI PUSH2 0x2F40 PUSH2 0x2F3B DUP4 PUSH2 0x2E5F JUMP JUMPDEST PUSH2 0x27BA JUMP JUMPDEST JUMPDEST PUSH1 0x2 DUP1 SLOAD SWAP1 POP DUP2 LT PUSH2 0x2F65 JUMPI PUSH2 0x2F64 PUSH2 0x2F5F DUP3 PUSH1 0x2 DUP1 SLOAD SWAP1 POP PUSH2 0x3EE8 JUMP JUMPDEST PUSH2 0x27BA JUMP JUMPDEST JUMPDEST DUP2 PUSH20 0xFFFFFFFFFFFFFFFFFFFFFFFFFFFFFFFFFFFFFFFF AND PUSH1 0x2 DUP3 DUP2 SLOAD DUP2 LT PUSH2 0x2F89 JUMPI INVALID JUMPDEST SWAP1 PUSH1 0x0 MSTORE PUSH1 0x20 PUSH1 0x0 KECCAK256 ADD PUSH1 0x0 SWAP1 SLOAD SWAP1 PUSH2 0x100 EXP SWAP1 DIV PUSH20 0xFFFFFFFFFFFFFFFFFFFFFFFFFFFFFFFFFFFFFFFF AND PUSH20 0xFFFFFFFFFFFFFFFFFFFFFFFFFFFFFFFFFFFFFFFF AND EQ PUSH2 0x3019 JUMPI PUSH2 0x3018 PUSH2 0x3013 PUSH1 0x2 DUP4 DUP2 SLOAD DUP2 LT PUSH2 0x2FE2 JUMPI INVALID JUMPDEST SWAP1 PUSH1 0x0 MSTORE PUSH1 0x20 PUSH1 0x0 KECCAK256 ADD PUSH1 0x0 SWAP1 SLOAD SWAP1 PUSH2 0x100 EXP SWAP1 DIV PUSH20 0xFFFFFFFFFFFFFFFFFFFFFFFFFFFFFFFFFFFFFFFF AND DUP5 PUSH2 0x3F6A JUMP JUMPDEST PUSH2 0x27BA JUMP JUMPDEST JUMPDEST PUSH1 0x1 PUSH1 0x0 DUP4 PUSH20 0xFFFFFFFFFFFFFFFFFFFFFFFFFFFFFFFFFFFFFFFF AND PUSH20 0xFFFFFFFFFFFFFFFFFFFFFFFFFFFFFFFFFFFFFFFF AND DUP2 MSTORE PUSH1 0x20 ADD SWAP1 DUP2 MSTORE PUSH1 0x20 ADD PUSH1 0x0 KECCAK256 PUSH1 0x0 PUSH2 0x100 EXP DUP2 SLOAD SWAP1 PUSH1 0xFF MUL NOT AND SWAP1 SSTORE PUSH1 0x2 PUSH1 0x1 PUSH1 0x2 DUP1 SLOAD SWAP1 POP SUB DUP2 SLOAD DUP2 LT PUSH2 0x307D JUMPI INVALID JUMPDEST SWAP1 PUSH1 0x0 MSTORE PUSH1 0x20 PUSH1 0x0 KECCAK256 ADD PUSH1 0x0 SWAP1 SLOAD SWAP1 PUSH2 0x100 EXP SWAP1 DIV PUSH20 0xFFFFFFFFFFFFFFFFFFFFFFFFFFFFFFFFFFFFFFFF AND PUSH1 0x2 DUP3 DUP2 SLOAD DUP2 LT PUSH2 0x30B5 JUMPI INVALID JUMPDEST SWAP1 PUSH1 0x0 MSTORE PUSH1 0x20 PUSH1 0x0 KECCAK256 ADD PUSH1 0x0 PUSH2 0x100 EXP DUP2 SLOAD DUP2 PUSH20 0xFFFFFFFFFFFFFFFFFFFFFFFFFFFFFFFFFFFFFFFF MUL NOT AND SWAP1 DUP4 PUSH20 0xFFFFFFFFFFFFFFFFFFFFFFFFFFFFFFFFFFFFFFFF AND MUL OR SWAP1 SSTORE POP PUSH1 0x1 PUSH1 0x2 DUP2 DUP2 DUP1 SLOAD SWAP1 POP SUB SWAP2 POP DUP2 PUSH2 0x3115 SWAP2 SWAP1 PUSH2 0x5C52 JUMP JUMPDEST POP CALLER PUSH20 0xFFFFFFFFFFFFFFFFFFFFFFFFFFFFFFFFFFFFFFFF AND DUP3 PUSH20 0xFFFFFFFFFFFFFFFFFFFFFFFFFFFFFFFFFFFFFFFF AND PUSH32 0x1F32C1B084E2DE0713B8FB16BD46BB9DF710A3DBEAE2F3CA93AF46E016DCC6B0 PUSH1 0x40 MLOAD PUSH1 0x40 MLOAD DUP1 SWAP2 SUB SWAP1 LOG3 POP POP JUMP JUMPDEST PUSH1 0x0 DUP1 DUP3 DUP5 ADD SWAP1 POP DUP4 DUP2 LT ISZERO PUSH2 0x3199 JUMPI PUSH2 0x3198 PUSH2 0x3193 PUSH1 0x0 DUP7 DUP7 PUSH2 0x3B6A JUMP JUMPDEST PUSH2 0x27BA JUMP JUMPDEST JUMPDEST DUP1 SWAP2 POP POP SWAP3 SWAP2 POP POP JUMP JUMPDEST PUSH1 0x60 PUSH4 0xB56D2DF0 PUSH1 0xE0 SHL DUP3 PUSH1 0x40 MLOAD PUSH1 0x24 ADD PUSH2 0x31BE SWAP2 SWAP1 PUSH2 0x6507 JUMP JUMPDEST PUSH1 0x40 MLOAD PUSH1 0x20 DUP2 DUP4 SUB SUB DUP2 MSTORE SWAP1 PUSH1 0x40 MSTORE SWAP1 PUSH28 0xFFFFFFFFFFFFFFFFFFFFFFFFFFFFFFFFFFFFFFFFFFFFFFFFFFFFFFFF NOT AND PUSH1 0x20 DUP3 ADD DUP1 MLOAD PUSH28 0xFFFFFFFFFFFFFFFFFFFFFFFFFFFFFFFFFFFFFFFFFFFFFFFFFFFFFFFF DUP4 DUP2 DUP4 AND OR DUP4 MSTORE POP POP POP POP SWAP1 POP SWAP2 SWAP1 POP JUMP JUMPDEST DUP1 CALLVALUE EQ ISZERO DUP1 ISZERO PUSH2 0x3233 JUMPI POP PUSH1 0x0 CALLVALUE EQ ISZERO JUMPDEST ISZERO PUSH2 0x324B JUMPI PUSH2 0x324A PUSH2 0x3245 DUP3 CALLVALUE PUSH2 0x3FEC JUMP JUMPDEST PUSH2 0x27BA JUMP JUMPDEST JUMPDEST POP JUMP JUMPDEST PUSH1 0x0 DUP1 PUSH1 0x0 PUSH2 0x3293 PUSH1 0xB PUSH1 0x0 DUP8 DUP2 MSTORE PUSH1 0x20 ADD SWAP1 DUP2 MSTORE PUSH1 0x20 ADD PUSH1 0x0 KECCAK256 PUSH1 0x0 ADD PUSH1 0x0 SWAP1 SLOAD SWAP1 PUSH2 0x100 EXP SWAP1 DIV PUSH20 0xFFFFFFFFFFFFFFFFFFFFFFFFFFFFFFFFFFFFFFFF AND DUP7 PUSH2 0x229A JUMP JUMPDEST PUSH1 0x20 ADD MLOAD PUSH12 0xFFFFFFFFFFFFFFFFFFFFFFFF AND SWAP1 POP PUSH2 0x32BA DUP2 DUP6 PUSH2 0x27C2 SWAP1 SWAP2 SWAP1 PUSH4 0xFFFFFFFF AND JUMP JUMPDEST SWAP3 POP PUSH2 0x32FA PUSH2 0x32EB PUSH1 0x13 PUSH1 0x0 SWAP1 SLOAD SWAP1 PUSH2 0x100 EXP SWAP1 DIV PUSH4 0xFFFFFFFF AND PUSH4 0xFFFFFFFF AND PUSH3 0xF4240 PUSH4 0xFFFFFFFF AND DUP7 PUSH2 0x406E JUMP JUMPDEST DUP3 PUSH2 0x3174 SWAP1 SWAP2 SWAP1 PUSH4 0xFFFFFFFF AND JUMP JUMPDEST SWAP2 POP DUP3 DUP3 SWAP3 POP SWAP3 POP POP SWAP3 POP SWAP3 SWAP1 POP JUMP JUMPDEST PUSH2 0x3313 DUP3 PUSH2 0x40A1 JUMP JUMPDEST PUSH1 0x0 PUSH2 0x3322 DUP4 DUP4 PUSH1 0x0 DUP1 PUSH2 0x3689 JUMP JUMPDEST SWAP1 POP PUSH2 0x337C PUSH1 0x6 PUSH1 0x0 DUP5 PUSH20 0xFFFFFFFFFFFFFFFFFFFFFFFFFFFFFFFFFFFFFFFF AND PUSH20 0xFFFFFFFFFFFFFFFFFFFFFFFFFFFFFFFFFFFFFFFF AND DUP2 MSTORE PUSH1 0x20 ADD SWAP1 DUP2 MSTORE PUSH1 0x20 ADD PUSH1 0x0 KECCAK256 PUSH1 0x0 DUP6 DUP2 MSTORE PUSH1 0x20 ADD SWAP1 DUP2 MSTORE PUSH1 0x20 ADD PUSH1 0x0 KECCAK256 PUSH2 0x29EE JUMP JUMPDEST PUSH1 0x6 PUSH1 0x0 DUP5 PUSH20 0xFFFFFFFFFFFFFFFFFFFFFFFFFFFFFFFFFFFFFFFF AND PUSH20 0xFFFFFFFFFFFFFFFFFFFFFFFFFFFFFFFFFFFFFFFF AND DUP2 MSTORE PUSH1 0x20 ADD SWAP1 DUP2 MSTORE PUSH1 0x20 ADD PUSH1 0x0 KECCAK256 PUSH1 0x0 DUP6 DUP2 MSTORE PUSH1 0x20 ADD SWAP1 DUP2 MSTORE PUSH1 0x20 ADD PUSH1 0x0 KECCAK256 PUSH1 0x0 DUP3 ADD MLOAD DUP2 PUSH1 0x0 ADD PUSH1 0x0 PUSH2 0x100 EXP DUP2 SLOAD DUP2 PUSH8 0xFFFFFFFFFFFFFFFF MUL NOT AND SWAP1 DUP4 PUSH8 0xFFFFFFFFFFFFFFFF AND MUL OR SWAP1 SSTORE POP PUSH1 0x20 DUP3 ADD MLOAD DUP2 PUSH1 0x0 ADD PUSH1 0x8 PUSH2 0x100 EXP DUP2 SLOAD DUP2 PUSH12 0xFFFFFFFFFFFFFFFFFFFFFFFF MUL NOT AND SWAP1 DUP4 PUSH12 0xFFFFFFFFFFFFFFFFFFFFFFFF AND MUL OR SWAP1 SSTORE POP PUSH1 0x40 DUP3 ADD MLOAD DUP2 PUSH1 0x0 ADD PUSH1 0x14 PUSH2 0x100 EXP DUP2 SLOAD DUP2 PUSH12 0xFFFFFFFFFFFFFFFFFFFFFFFF MUL NOT AND SWAP1 DUP4 PUSH12 0xFFFFFFFFFFFFFFFFFFFFFFFF AND MUL OR SWAP1 SSTORE POP SWAP1 POP POP PUSH1 0x0 DUP2 EQ PUSH2 0x3514 JUMPI PUSH2 0x347E DUP4 DUP3 PUSH2 0x4136 JUMP JUMPDEST PUSH2 0x3486 PUSH2 0xEBD JUMP JUMPDEST PUSH20 0xFFFFFFFFFFFFFFFFFFFFFFFFFFFFFFFFFFFFFFFF AND PUSH4 0xA9059CBB DUP4 DUP4 PUSH1 0x40 MLOAD DUP4 PUSH4 0xFFFFFFFF AND PUSH1 0xE0 SHL DUP2 MSTORE PUSH1 0x4 ADD PUSH2 0x34C0 SWAP3 SWAP2 SWAP1 PUSH2 0x65AB JUMP JUMPDEST PUSH1 0x20 PUSH1 0x40 MLOAD DUP1 DUP4 SUB DUP2 PUSH1 0x0 DUP8 DUP1 EXTCODESIZE ISZERO DUP1 ISZERO PUSH2 0x34DA JUMPI PUSH1 0x0 DUP1 REVERT JUMPDEST POP GAS CALL ISZERO DUP1 ISZERO PUSH2 0x34EE JUMPI RETURNDATASIZE PUSH1 0x0 DUP1 RETURNDATACOPY RETURNDATASIZE PUSH1 0x0 REVERT JUMPDEST POP POP POP POP PUSH1 0x40 MLOAD RETURNDATASIZE PUSH1 0x1F NOT PUSH1 0x1F DUP3 ADD AND DUP3 ADD DUP1 PUSH1 0x40 MSTORE POP PUSH2 0x3512 SWAP2 SWAP1 DUP2 ADD SWAP1 PUSH2 0x5EE5 JUMP JUMPDEST POP JUMPDEST PUSH2 0x351D DUP4 PUSH2 0x4192 JUMP JUMPDEST POP POP POP JUMP JUMPDEST PUSH1 0x0 DUP1 PUSH1 0x0 PUSH2 0x353D PUSH1 0x1 PUSH1 0xD SLOAD PUSH2 0x27C2 SWAP1 SWAP2 SWAP1 PUSH4 0xFFFFFFFF AND JUMP JUMPDEST SWAP1 POP PUSH2 0x3547 PUSH2 0x5BFB JUMP JUMPDEST PUSH1 0x16 PUSH1 0x0 DUP7 DUP2 MSTORE PUSH1 0x20 ADD SWAP1 DUP2 MSTORE PUSH1 0x20 ADD PUSH1 0x0 KECCAK256 PUSH1 0x0 DUP4 DUP2 MSTORE PUSH1 0x20 ADD SWAP1 DUP2 MSTORE PUSH1 0x20 ADD PUSH1 0x0 KECCAK256 PUSH1 0x40 MLOAD DUP1 PUSH1 0x60 ADD PUSH1 0x40 MSTORE SWAP1 DUP2 PUSH1 0x0 DUP3 ADD SLOAD DUP2 MSTORE PUSH1 0x20 ADD PUSH1 0x1 DUP3 ADD SLOAD DUP2 MSTORE PUSH1 0x20 ADD PUSH1 0x2 DUP3 ADD SLOAD DUP2 MSTORE POP POP SWAP1 POP PUSH2 0x35EF DUP2 PUSH1 0x17 PUSH1 0x0 DUP6 DUP2 MSTORE PUSH1 0x20 ADD SWAP1 DUP2 MSTORE PUSH1 0x20 ADD PUSH1 0x0 KECCAK256 PUSH1 0x40 MLOAD DUP1 PUSH1 0xA0 ADD PUSH1 0x40 MSTORE SWAP1 DUP2 PUSH1 0x0 DUP3 ADD SLOAD DUP2 MSTORE PUSH1 0x20 ADD PUSH1 0x1 DUP3 ADD SLOAD DUP2 MSTORE PUSH1 0x20 ADD PUSH1 0x2 DUP3 ADD SLOAD DUP2 MSTORE PUSH1 0x20 ADD PUSH1 0x3 DUP3 ADD SLOAD DUP2 MSTORE PUSH1 0x20 ADD PUSH1 0x4 DUP3 ADD SLOAD DUP2 MSTORE POP POP PUSH2 0x38CA JUMP JUMPDEST SWAP4 POP DUP1 PUSH1 0x40 ADD MLOAD SWAP3 POP POP POP SWAP2 POP SWAP2 JUMP JUMPDEST PUSH1 0x0 DUP1 PUSH1 0x0 DUP4 EQ ISZERO PUSH2 0x3613 JUMPI DUP4 SWAP2 POP PUSH2 0x3645 JUMP JUMPDEST PUSH2 0x362D DUP6 PUSH4 0xFFFFFFFF AND PUSH3 0xF4240 PUSH4 0xFFFFFFFF AND DUP7 PUSH2 0x41A2 JUMP JUMPDEST SWAP2 POP PUSH2 0x3642 DUP3 DUP6 PUSH2 0x27C2 SWAP1 SWAP2 SWAP1 PUSH4 0xFFFFFFFF AND JUMP JUMPDEST SWAP1 POP JUMPDEST DUP2 DUP2 SWAP2 POP SWAP2 POP SWAP4 POP SWAP4 SWAP2 POP POP JUMP JUMPDEST PUSH1 0x0 DUP2 SWAP1 POP DUP2 DUP2 PUSH12 0xFFFFFFFFFFFFFFFFFFFFFFFF AND EQ PUSH2 0x3681 JUMPI PUSH2 0x3680 PUSH2 0x367B PUSH1 0x2 DUP5 PUSH2 0x41FA JUMP JUMPDEST PUSH2 0x27BA JUMP JUMPDEST JUMPDEST DUP1 SWAP1 POP SWAP2 SWAP1 POP JUMP JUMPDEST PUSH1 0x0 DUP1 PUSH1 0xD SLOAD SWAP1 POP PUSH2 0x3699 PUSH2 0x5BB4 JUMP JUMPDEST PUSH1 0x6 PUSH1 0x0 DUP8 PUSH20 0xFFFFFFFFFFFFFFFFFFFFFFFFFFFFFFFFFFFFFFFF AND PUSH20 0xFFFFFFFFFFFFFFFFFFFFFFFFFFFFFFFFFFFFFFFF AND DUP2 MSTORE PUSH1 0x20 ADD SWAP1 DUP2 MSTORE PUSH1 0x20 ADD PUSH1 0x0 KECCAK256 PUSH1 0x0 DUP9 DUP2 MSTORE PUSH1 0x20 ADD SWAP1 DUP2 MSTORE PUSH1 0x20 ADD PUSH1 0x0 KECCAK256 PUSH1 0x40 MLOAD DUP1 PUSH1 0x60 ADD PUSH1 0x40 MSTORE SWAP1 DUP2 PUSH1 0x0 DUP3 ADD PUSH1 0x0 SWAP1 SLOAD SWAP1 PUSH2 0x100 EXP SWAP1 DIV PUSH8 0xFFFFFFFFFFFFFFFF AND PUSH8 0xFFFFFFFFFFFFFFFF AND PUSH8 0xFFFFFFFFFFFFFFFF AND DUP2 MSTORE PUSH1 0x20 ADD PUSH1 0x0 DUP3 ADD PUSH1 0x8 SWAP1 SLOAD SWAP1 PUSH2 0x100 EXP SWAP1 DIV PUSH12 0xFFFFFFFFFFFFFFFFFFFFFFFF AND PUSH12 0xFFFFFFFFFFFFFFFFFFFFFFFF AND PUSH12 0xFFFFFFFFFFFFFFFFFFFFFFFF AND DUP2 MSTORE PUSH1 0x20 ADD PUSH1 0x0 DUP3 ADD PUSH1 0x14 SWAP1 SLOAD SWAP1 PUSH2 0x100 EXP SWAP1 DIV PUSH12 0xFFFFFFFFFFFFFFFFFFFFFFFF AND PUSH12 0xFFFFFFFFFFFFFFFFFFFFFFFF AND PUSH12 0xFFFFFFFFFFFFFFFFFFFFFFFF AND DUP2 MSTORE POP POP SWAP1 POP DUP2 DUP2 PUSH1 0x0 ADD MLOAD PUSH8 0xFFFFFFFFFFFFFFFF AND EQ ISZERO PUSH2 0x37C5 JUMPI PUSH1 0x0 SWAP3 POP POP POP PUSH2 0x3872 JUMP JUMPDEST PUSH2 0x37D1 DUP2 DUP4 DUP8 DUP8 PUSH2 0x427C JUMP JUMPDEST SWAP3 POP PUSH1 0x0 PUSH2 0x37F7 PUSH1 0x1 DUP4 PUSH1 0x0 ADD MLOAD PUSH8 0xFFFFFFFFFFFFFFFF AND PUSH2 0x3174 SWAP1 SWAP2 SWAP1 PUSH4 0xFFFFFFFF AND JUMP JUMPDEST SWAP1 POP PUSH2 0x3837 PUSH2 0x3828 DUP10 DUP5 PUSH1 0x20 ADD MLOAD PUSH12 0xFFFFFFFFFFFFFFFFFFFFFFFF AND DUP6 PUSH1 0x0 ADD MLOAD PUSH8 0xFFFFFFFFFFFFFFFF AND DUP6 PUSH2 0x430F JUMP JUMPDEST DUP6 PUSH2 0x3174 SWAP1 SWAP2 SWAP1 PUSH4 0xFFFFFFFF AND JUMP JUMPDEST SWAP4 POP PUSH2 0x3869 PUSH2 0x385A DUP10 DUP5 PUSH1 0x40 ADD MLOAD PUSH12 0xFFFFFFFFFFFFFFFFFFFFFFFF AND DUP5 DUP8 PUSH2 0x430F JUMP JUMPDEST DUP6 PUSH2 0x3174 SWAP1 SWAP2 SWAP1 PUSH4 0xFFFFFFFF AND JUMP JUMPDEST SWAP4 POP DUP4 SWAP4 POP POP POP POP JUMPDEST SWAP5 SWAP4 POP POP POP POP JUMP JUMPDEST PUSH1 0x60 PUSH1 0x40 MLOAD DUP1 PUSH1 0x40 ADD PUSH1 0x40 MSTORE DUP1 PUSH1 0x4 DUP2 MSTORE PUSH1 0x20 ADD PUSH32 0xE69EDC3E00000000000000000000000000000000000000000000000000000000 DUP2 MSTORE POP SWAP1 POP SWAP1 JUMP JUMPDEST PUSH1 0x0 DUP1 DUP3 EXTCODESIZE SWAP1 POP PUSH1 0x0 DUP2 GT SWAP2 POP POP SWAP2 SWAP1 POP JUMP JUMPDEST PUSH1 0x0 DUP1 DUP4 PUSH1 0x0 ADD MLOAD EQ ISZERO PUSH2 0x38E0 JUMPI DUP1 SWAP1 POP PUSH2 0x3956 JUMP JUMPDEST PUSH2 0x3927 DUP3 PUSH1 0x0 ADD MLOAD DUP5 PUSH1 0x0 ADD MLOAD DUP5 PUSH1 0x40 ADD MLOAD DUP7 PUSH1 0x20 ADD MLOAD DUP7 PUSH1 0x60 ADD MLOAD PUSH1 0x15 PUSH1 0x0 SWAP1 SLOAD SWAP1 PUSH2 0x100 EXP SWAP1 DIV PUSH4 0xFFFFFFFF AND PUSH1 0x15 PUSH1 0x4 SWAP1 SLOAD SWAP1 PUSH2 0x100 EXP SWAP1 DIV PUSH4 0xFFFFFFFF AND PUSH2 0x43C0 JUMP JUMPDEST SWAP1 POP PUSH1 0x0 PUSH2 0x3946 DUP4 PUSH1 0x80 ADD MLOAD DUP5 PUSH1 0x0 ADD MLOAD PUSH2 0x27C2 SWAP1 SWAP2 SWAP1 PUSH4 0xFFFFFFFF AND JUMP JUMPDEST SWAP1 POP DUP2 DUP2 LT ISZERO PUSH2 0x3954 JUMPI DUP1 SWAP2 POP JUMPDEST POP JUMPDEST SWAP3 SWAP2 POP POP JUMP JUMPDEST PUSH1 0x0 DUP1 PUSH2 0x3967 PUSH2 0x5C1C JUMP JUMPDEST PUSH1 0xB PUSH1 0x0 DUP8 DUP2 MSTORE PUSH1 0x20 ADD SWAP1 DUP2 MSTORE PUSH1 0x20 ADD PUSH1 0x0 KECCAK256 PUSH1 0x40 MLOAD DUP1 PUSH1 0x40 ADD PUSH1 0x40 MSTORE SWAP1 DUP2 PUSH1 0x0 DUP3 ADD PUSH1 0x0 SWAP1 SLOAD SWAP1 PUSH2 0x100 EXP SWAP1 DIV PUSH20 0xFFFFFFFFFFFFFFFFFFFFFFFFFFFFFFFFFFFFFFFF AND PUSH20 0xFFFFFFFFFFFFFFFFFFFFFFFFFFFFFFFFFFFFFFFF AND PUSH20 0xFFFFFFFFFFFFFFFFFFFFFFFFFFFFFFFFFFFFFFFF AND DUP2 MSTORE PUSH1 0x20 ADD PUSH1 0x0 DUP3 ADD PUSH1 0x14 SWAP1 SLOAD SWAP1 PUSH2 0x100 EXP SWAP1 DIV PUSH4 0xFFFFFFFF AND PUSH4 0xFFFFFFFF AND PUSH4 0xFFFFFFFF AND DUP2 MSTORE POP POP SWAP1 POP PUSH2 0x3A12 DUP2 PUSH1 0x20 ADD MLOAD DUP7 DUP7 PUSH2 0x35FF JUMP JUMPDEST DUP1 SWAP4 POP DUP2 SWAP5 POP POP POP PUSH1 0x0 DUP4 GT ISZERO PUSH2 0x3ABD JUMPI PUSH2 0x3A2B PUSH2 0xEBD JUMP JUMPDEST PUSH20 0xFFFFFFFFFFFFFFFFFFFFFFFFFFFFFFFFFFFFFFFF AND PUSH4 0xA9059CBB DUP3 PUSH1 0x0 ADD MLOAD DUP6 PUSH1 0x40 MLOAD DUP4 PUSH4 0xFFFFFFFF AND PUSH1 0xE0 SHL DUP2 MSTORE PUSH1 0x4 ADD PUSH2 0x3A69 SWAP3 SWAP2 SWAP1 PUSH2 0x65AB JUMP JUMPDEST PUSH1 0x20 PUSH1 0x40 MLOAD DUP1 DUP4 SUB DUP2 PUSH1 0x0 DUP8 DUP1 EXTCODESIZE ISZERO DUP1 ISZERO PUSH2 0x3A83 JUMPI PUSH1 0x0 DUP1 REVERT JUMPDEST POP GAS CALL ISZERO DUP1 ISZERO PUSH2 0x3A97 JUMPI RETURNDATASIZE PUSH1 0x0 DUP1 RETURNDATACOPY RETURNDATASIZE PUSH1 0x0 REVERT JUMPDEST POP POP POP POP PUSH1 0x40 MLOAD RETURNDATASIZE PUSH1 0x1F NOT PUSH1 0x1F DUP3 ADD AND DUP3 ADD DUP1 PUSH1 0x40 MSTORE POP PUSH2 0x3ABB SWAP2 SWAP1 DUP2 ADD SWAP1 PUSH2 0x5EE5 JUMP JUMPDEST POP JUMPDEST PUSH1 0x0 DUP3 GT ISZERO PUSH2 0x3ADC JUMPI PUSH2 0x3AD0 DUP7 DUP4 PUSH2 0x448D JUMP JUMPDEST PUSH2 0x3ADB DUP7 DUP4 DUP7 PUSH2 0x44E9 JUMP JUMPDEST JUMPDEST DUP3 DUP3 SWAP3 POP SWAP3 POP POP SWAP4 POP SWAP4 SWAP2 POP POP JUMP JUMPDEST PUSH1 0x60 PUSH4 0xB65A25B9 PUSH1 0xE0 SHL DUP3 PUSH1 0x40 MLOAD PUSH1 0x24 ADD PUSH2 0x3B06 SWAP2 SWAP1 PUSH2 0x6507 JUMP JUMPDEST PUSH1 0x40 MLOAD PUSH1 0x20 DUP2 DUP4 SUB SUB DUP2 MSTORE SWAP1 PUSH1 0x40 MSTORE SWAP1 PUSH28 0xFFFFFFFFFFFFFFFFFFFFFFFFFFFFFFFFFFFFFFFFFFFFFFFFFFFFFFFF NOT AND PUSH1 0x20 DUP3 ADD DUP1 MLOAD PUSH28 0xFFFFFFFFFFFFFFFFFFFFFFFFFFFFFFFFFFFFFFFFFFFFFFFFFFFFFFFF DUP4 DUP2 DUP4 AND OR DUP4 MSTORE POP POP POP POP SWAP1 POP SWAP2 SWAP1 POP JUMP JUMPDEST PUSH1 0x60 PUSH4 0xE946C1BB PUSH1 0xE0 SHL DUP5 DUP5 DUP5 PUSH1 0x40 MLOAD PUSH1 0x24 ADD PUSH2 0x3B89 SWAP4 SWAP3 SWAP2 SWAP1 PUSH2 0x66C2 JUMP JUMPDEST PUSH1 0x40 MLOAD PUSH1 0x20 DUP2 DUP4 SUB SUB DUP2 MSTORE SWAP1 PUSH1 0x40 MSTORE SWAP1 PUSH28 0xFFFFFFFFFFFFFFFFFFFFFFFFFFFFFFFFFFFFFFFFFFFFFFFFFFFFFFFF NOT AND PUSH1 0x20 DUP3 ADD DUP1 MLOAD PUSH28 0xFFFFFFFFFFFFFFFFFFFFFFFFFFFFFFFFFFFFFFFFFFFFFFFFFFFFFFFF DUP4 DUP2 DUP4 AND OR DUP4 MSTORE POP POP POP POP SWAP1 POP SWAP4 SWAP3 POP POP POP JUMP JUMPDEST PUSH1 0x60 PUSH4 0xA6BCDE47 PUSH1 0xE0 SHL DUP4 DUP4 PUSH1 0x40 MLOAD PUSH1 0x24 ADD PUSH2 0x3C0C SWAP3 SWAP2 SWAP1 PUSH2 0x68B7 JUMP JUMPDEST PUSH1 0x40 MLOAD PUSH1 0x20 DUP2 DUP4 SUB SUB DUP2 MSTORE SWAP1 PUSH1 0x40 MSTORE SWAP1 PUSH28 0xFFFFFFFFFFFFFFFFFFFFFFFFFFFFFFFFFFFFFFFFFFFFFFFFFFFFFFFF NOT AND PUSH1 0x20 DUP3 ADD DUP1 MLOAD PUSH28 0xFFFFFFFFFFFFFFFFFFFFFFFFFFFFFFFFFFFFFFFFFFFFFFFFFFFFFFFF DUP4 DUP2 DUP4 AND OR DUP4 MSTORE POP POP POP POP SWAP1 POP SWAP3 SWAP2 POP POP JUMP JUMPDEST PUSH1 0x0 DUP2 SWAP1 POP DUP2 DUP2 PUSH8 0xFFFFFFFFFFFFFFFF AND EQ PUSH2 0x3C9B JUMPI PUSH2 0x3C9A PUSH2 0x3C95 PUSH1 0x1 DUP5 PUSH2 0x41FA JUMP JUMPDEST PUSH2 0x27BA JUMP JUMPDEST JUMPDEST DUP1 SWAP1 POP SWAP2 SWAP1 POP JUMP JUMPDEST PUSH1 0x60 PUSH4 0x1DE45AD1 PUSH1 0xE0 SHL DUP4 DUP4 PUSH1 0x40 MLOAD PUSH1 0x24 ADD PUSH2 0x3CC0 SWAP3 SWAP2 SWAP1 PUSH2 0x6522 JUMP JUMPDEST PUSH1 0x40 MLOAD PUSH1 0x20 DUP2 DUP4 SUB SUB DUP2 MSTORE SWAP1 PUSH1 0x40 MSTORE SWAP1 PUSH28 0xFFFFFFFFFFFFFFFFFFFFFFFFFFFFFFFFFFFFFFFFFFFFFFFFFFFFFFFF NOT AND PUSH1 0x20 DUP3 ADD DUP1 MLOAD PUSH28 0xFFFFFFFFFFFFFFFFFFFFFFFFFFFFFFFFFFFFFFFFFFFFFFFFFFFFFFFF DUP4 DUP2 DUP4 AND OR DUP4 MSTORE POP POP POP POP SWAP1 POP SWAP3 SWAP2 POP POP JUMP JUMPDEST PUSH1 0x60 PUSH1 0x40 MLOAD DUP1 PUSH1 0x40 ADD PUSH1 0x40 MSTORE DUP1 PUSH1 0x4 DUP2 MSTORE PUSH1 0x20 ADD PUSH32 0x57654FE400000000000000000000000000000000000000000000000000000000 DUP2 MSTORE POP SWAP1 POP SWAP1 JUMP JUMPDEST PUSH1 0x60 PUSH4 0xDE16F1A0 PUSH1 0xE0 SHL DUP3 PUSH1 0x40 MLOAD PUSH1 0x24 ADD PUSH2 0x3D7D SWAP2 SWAP1 PUSH2 0x6507 JUMP JUMPDEST PUSH1 0x40 MLOAD PUSH1 0x20 DUP2 DUP4 SUB SUB DUP2 MSTORE SWAP1 PUSH1 0x40 MSTORE SWAP1 PUSH28 0xFFFFFFFFFFFFFFFFFFFFFFFFFFFFFFFFFFFFFFFFFFFFFFFFFFFFFFFF NOT AND PUSH1 0x20 DUP3 ADD DUP1 MLOAD PUSH28 0xFFFFFFFFFFFFFFFFFFFFFFFFFFFFFFFFFFFFFFFFFFFFFFFFFFFFFFFF DUP4 DUP2 DUP4 AND OR DUP4 MSTORE POP POP POP POP SWAP1 POP SWAP2 SWAP1 POP JUMP JUMPDEST PUSH1 0x60 PUSH4 0x82DED785 PUSH1 0xE0 SHL DUP4 DUP4 PUSH1 0x40 MLOAD PUSH1 0x24 ADD PUSH2 0x3DFE SWAP3 SWAP2 SWAP1 PUSH2 0x6582 JUMP JUMPDEST PUSH1 0x40 MLOAD PUSH1 0x20 DUP2 DUP4 SUB SUB DUP2 MSTORE SWAP1 PUSH1 0x40 MSTORE SWAP1 PUSH28 0xFFFFFFFFFFFFFFFFFFFFFFFFFFFFFFFFFFFFFFFFFFFFFFFFFFFFFFFF NOT AND PUSH1 0x20 DUP3 ADD DUP1 MLOAD PUSH28 0xFFFFFFFFFFFFFFFFFFFFFFFFFFFFFFFFFFFFFFFFFFFFFFFFFFFFFFFF DUP4 DUP2 DUP4 AND OR DUP4 MSTORE POP POP POP POP SWAP1 POP SWAP3 SWAP2 POP POP JUMP JUMPDEST PUSH1 0x60 PUSH4 0x22DF9597 PUSH1 0xE0 SHL DUP5 DUP5 DUP5 PUSH1 0x40 MLOAD PUSH1 0x24 ADD PUSH2 0x3E82 SWAP4 SWAP3 SWAP2 SWAP1 PUSH2 0x674B JUMP JUMPDEST PUSH1 0x40 MLOAD PUSH1 0x20 DUP2 DUP4 SUB SUB DUP2 MSTORE SWAP1 PUSH1 0x40 MSTORE SWAP1 PUSH28 0xFFFFFFFFFFFFFFFFFFFFFFFFFFFFFFFFFFFFFFFFFFFFFFFFFFFFFFFF NOT AND PUSH1 0x20 DUP3 ADD DUP1 MLOAD PUSH28 0xFFFFFFFFFFFFFFFFFFFFFFFFFFFFFFFFFFFFFFFFFFFFFFFFFFFFFFFF DUP4 DUP2 DUP4 AND OR DUP4 MSTORE POP POP POP POP SWAP1 POP SWAP4 SWAP3 POP POP POP JUMP JUMPDEST PUSH1 0x60 PUSH4 0xE9F83771 PUSH1 0xE0 SHL DUP4 DUP4 PUSH1 0x40 MLOAD PUSH1 0x24 ADD PUSH2 0x3F05 SWAP3 SWAP2 SWAP1 PUSH2 0x68B7 JUMP JUMPDEST PUSH1 0x40 MLOAD PUSH1 0x20 DUP2 DUP4 SUB SUB DUP2 MSTORE SWAP1 PUSH1 0x40 MSTORE SWAP1 PUSH28 0xFFFFFFFFFFFFFFFFFFFFFFFFFFFFFFFFFFFFFFFFFFFFFFFFFFFFFFFF NOT AND PUSH1 0x20 DUP3 ADD DUP1 MLOAD PUSH28 0xFFFFFFFFFFFFFFFFFFFFFFFFFFFFFFFFFFFFFFFFFFFFFFFFFFFFFFFF DUP4 DUP2 DUP4 AND OR DUP4 MSTORE POP POP POP POP SWAP1 POP SWAP3 SWAP2 POP POP JUMP JUMPDEST PUSH1 0x60 PUSH4 0x140A84DB PUSH1 0xE0 SHL DUP4 DUP4 PUSH1 0x40 MLOAD PUSH1 0x24 ADD PUSH2 0x3F87 SWAP3 SWAP2 SWAP1 PUSH2 0x6522 JUMP JUMPDEST PUSH1 0x40 MLOAD PUSH1 0x20 DUP2 DUP4 SUB SUB DUP2 MSTORE SWAP1 PUSH1 0x40 MSTORE SWAP1 PUSH28 0xFFFFFFFFFFFFFFFFFFFFFFFFFFFFFFFFFFFFFFFFFFFFFFFFFFFFFFFF NOT AND PUSH1 0x20 DUP3 ADD DUP1 MLOAD PUSH28 0xFFFFFFFFFFFFFFFFFFFFFFFFFFFFFFFFFFFFFFFFFFFFFFFFFFFFFFFF DUP4 DUP2 DUP4 AND OR DUP4 MSTORE POP POP POP POP SWAP1 POP SWAP3 SWAP2 POP POP JUMP JUMPDEST PUSH1 0x60 PUSH4 0x31D7A505 PUSH1 0xE0 SHL DUP4 DUP4 PUSH1 0x40 MLOAD PUSH1 0x24 ADD PUSH2 0x4009 SWAP3 SWAP2 SWAP1 PUSH2 0x68B7 JUMP JUMPDEST PUSH1 0x40 MLOAD PUSH1 0x20 DUP2 DUP4 SUB SUB DUP2 MSTORE SWAP1 PUSH1 0x40 MSTORE SWAP1 PUSH28 0xFFFFFFFFFFFFFFFFFFFFFFFFFFFFFFFFFFFFFFFFFFFFFFFFFFFFFFFF NOT AND PUSH1 0x20 DUP3 ADD DUP1 MLOAD PUSH28 0xFFFFFFFFFFFFFFFFFFFFFFFFFFFFFFFFFFFFFFFFFFFFFFFFFFFFFFFF DUP4 DUP2 DUP4 AND OR DUP4 MSTORE POP POP POP POP SWAP1 POP SWAP3 SWAP2 POP POP JUMP JUMPDEST PUSH1 0x0 PUSH2 0x4095 DUP4 PUSH2 0x4087 DUP5 DUP8 PUSH2 0x463C SWAP1 SWAP2 SWAP1 PUSH4 0xFFFFFFFF AND JUMP JUMPDEST PUSH2 0x4686 SWAP1 SWAP2 SWAP1 PUSH4 0xFFFFFFFF AND JUMP JUMPDEST SWAP1 POP DUP1 SWAP1 POP SWAP4 SWAP3 POP POP POP JUMP JUMPDEST PUSH1 0x0 PUSH2 0x40B9 PUSH1 0x1 PUSH1 0xD SLOAD PUSH2 0x27C2 SWAP1 SWAP2 SWAP1 PUSH4 0xFFFFFFFF AND JUMP JUMPDEST SWAP1 POP PUSH2 0x40C3 PUSH2 0x5BFB JUMP JUMPDEST PUSH1 0x16 PUSH1 0x0 DUP5 DUP2 MSTORE PUSH1 0x20 ADD SWAP1 DUP2 MSTORE PUSH1 0x20 ADD PUSH1 0x0 KECCAK256 PUSH1 0x0 DUP4 DUP2 MSTORE PUSH1 0x20 ADD SWAP1 DUP2 MSTORE PUSH1 0x20 ADD PUSH1 0x0 KECCAK256 PUSH1 0x40 MLOAD DUP1 PUSH1 0x60 ADD PUSH1 0x40 MSTORE SWAP1 DUP2 PUSH1 0x0 DUP3 ADD SLOAD DUP2 MSTORE PUSH1 0x20 ADD PUSH1 0x1 DUP3 ADD SLOAD DUP2 MSTORE PUSH1 0x20 ADD PUSH1 0x2 DUP3 ADD SLOAD DUP2 MSTORE POP POP SWAP1 POP PUSH1 0x0 DUP2 PUSH1 0x0 ADD MLOAD EQ PUSH2 0x4131 JUMPI PUSH2 0x4130 PUSH2 0x412B DUP5 DUP5 PUSH2 0x46BD JUMP JUMPDEST PUSH2 0x27BA JUMP JUMPDEST JUMPDEST POP POP POP JUMP JUMPDEST PUSH2 0x415C DUP2 PUSH1 0xC PUSH1 0x0 DUP6 DUP2 MSTORE PUSH1 0x20 ADD SWAP1 DUP2 MSTORE PUSH1 0x20 ADD PUSH1 0x0 KECCAK256 SLOAD PUSH2 0x27C2 SWAP1 SWAP2 SWAP1 PUSH4 0xFFFFFFFF AND JUMP JUMPDEST PUSH1 0xC PUSH1 0x0 DUP5 DUP2 MSTORE PUSH1 0x20 ADD SWAP1 DUP2 MSTORE PUSH1 0x20 ADD PUSH1 0x0 KECCAK256 DUP2 SWAP1 SSTORE POP PUSH2 0x4188 DUP2 PUSH1 0x18 SLOAD PUSH2 0x27C2 SWAP1 SWAP2 SWAP1 PUSH4 0xFFFFFFFF AND JUMP JUMPDEST PUSH1 0x18 DUP2 SWAP1 SSTORE POP POP POP JUMP JUMPDEST PUSH2 0x419F DUP2 PUSH1 0x0 PUSH1 0x1 PUSH2 0x44E9 JUMP JUMPDEST POP JUMP JUMPDEST PUSH1 0x0 PUSH2 0x41EE DUP4 PUSH2 0x41E0 PUSH2 0x41BF PUSH1 0x1 DUP8 PUSH2 0x27C2 SWAP1 SWAP2 SWAP1 PUSH4 0xFFFFFFFF AND JUMP JUMPDEST PUSH2 0x41D2 DUP7 DUP10 PUSH2 0x463C SWAP1 SWAP2 SWAP1 PUSH4 0xFFFFFFFF AND JUMP JUMPDEST PUSH2 0x3174 SWAP1 SWAP2 SWAP1 PUSH4 0xFFFFFFFF AND JUMP JUMPDEST PUSH2 0x4686 SWAP1 SWAP2 SWAP1 PUSH4 0xFFFFFFFF AND JUMP JUMPDEST SWAP1 POP DUP1 SWAP1 POP SWAP4 SWAP3 POP POP POP JUMP JUMPDEST PUSH1 0x60 PUSH4 0xC996AF7B PUSH1 0xE0 SHL DUP4 DUP4 PUSH1 0x40 MLOAD PUSH1 0x24 ADD PUSH2 0x4217 SWAP3 SWAP2 SWAP1 PUSH2 0x66F9 JUMP JUMPDEST PUSH1 0x40 MLOAD PUSH1 0x20 DUP2 DUP4 SUB SUB DUP2 MSTORE SWAP1 PUSH1 0x40 MSTORE SWAP1 PUSH28 0xFFFFFFFFFFFFFFFFFFFFFFFFFFFFFFFFFFFFFFFFFFFFFFFFFFFFFFFF NOT AND PUSH1 0x20 DUP3 ADD DUP1 MLOAD PUSH28 0xFFFFFFFFFFFFFFFFFFFFFFFFFFFFFFFFFFFFFFFFFFFFFFFFFFFFFFFF DUP4 DUP2 DUP4 AND OR DUP4 MSTORE POP POP POP POP SWAP1 POP SWAP3 SWAP2 POP POP JUMP JUMPDEST PUSH1 0x0 DUP1 DUP4 EQ DUP1 PUSH2 0x428C JUMPI POP PUSH1 0x0 DUP3 EQ JUMPDEST ISZERO PUSH2 0x429A JUMPI PUSH1 0x0 SWAP1 POP PUSH2 0x4307 JUMP JUMPDEST PUSH1 0x0 PUSH2 0x42B0 PUSH1 0x1 DUP7 PUSH2 0x27C2 SWAP1 SWAP2 SWAP1 PUSH4 0xFFFFFFFF AND JUMP JUMPDEST DUP7 PUSH1 0x0 ADD MLOAD PUSH8 0xFFFFFFFFFFFFFFFF AND LT ISZERO PUSH2 0x42CF JUMPI DUP6 PUSH1 0x40 ADD MLOAD PUSH2 0x42D5 JUMP JUMPDEST DUP6 PUSH1 0x20 ADD MLOAD JUMPDEST PUSH12 0xFFFFFFFFFFFFFFFFFFFFFFFF AND SWAP1 POP PUSH1 0x0 DUP2 EQ ISZERO PUSH2 0x42F8 JUMPI PUSH1 0x0 SWAP2 POP POP PUSH2 0x4307 JUMP JUMPDEST PUSH2 0x4303 DUP5 DUP5 DUP4 PUSH2 0x406E JUMP JUMPDEST SWAP2 POP POP JUMPDEST SWAP5 SWAP4 POP POP POP POP JUMP JUMPDEST PUSH1 0x0 DUP1 DUP5 EQ DUP1 PUSH2 0x431E JUMPI POP DUP2 DUP4 EQ JUMPDEST ISZERO PUSH2 0x432C JUMPI PUSH1 0x0 SWAP1 POP PUSH2 0x43B8 JUMP JUMPDEST DUP2 DUP4 LT PUSH2 0x436E JUMPI PUSH1 0x40 MLOAD PUSH32 0x8C379A000000000000000000000000000000000000000000000000000000000 DUP2 MSTORE PUSH1 0x4 ADD PUSH2 0x4365 SWAP1 PUSH2 0x680B JUMP JUMPDEST PUSH1 0x40 MLOAD DUP1 SWAP2 SUB SWAP1 REVERT JUMPDEST PUSH2 0x4376 PUSH2 0x5C7E JUMP JUMPDEST PUSH2 0x4380 DUP7 DUP6 PUSH2 0x473F JUMP JUMPDEST SWAP1 POP PUSH2 0x438A PUSH2 0x5C7E JUMP JUMPDEST PUSH2 0x4394 DUP8 DUP6 PUSH2 0x473F JUMP JUMPDEST SWAP1 POP PUSH2 0x43B3 DUP2 PUSH1 0x0 ADD MLOAD DUP3 PUSH1 0x20 ADD MLOAD DUP5 PUSH1 0x0 ADD MLOAD DUP6 PUSH1 0x20 ADD MLOAD DUP11 PUSH2 0x48B6 JUMP JUMPDEST SWAP3 POP POP POP JUMPDEST SWAP5 SWAP4 POP POP POP POP JUMP JUMPDEST PUSH1 0x0 DUP1 PUSH2 0x43CD DUP9 DUP9 PUSH2 0x4986 JUMP JUMPDEST SWAP1 POP PUSH1 0x0 PUSH2 0x43DB DUP8 DUP8 PUSH2 0x4986 JUMP JUMPDEST SWAP1 POP PUSH1 0x0 DUP3 EQ DUP1 PUSH2 0x43EC JUMPI POP PUSH1 0x0 DUP2 EQ JUMPDEST ISZERO PUSH2 0x43FF JUMPI PUSH1 0x0 SWAP3 POP DUP3 SWAP3 POP POP POP PUSH2 0x4482 JUMP JUMPDEST PUSH1 0x0 DUP2 DUP4 SGT ISZERO PUSH2 0x4418 JUMPI PUSH2 0x4413 DUP3 DUP5 PUSH2 0x49EC JUMP JUMPDEST PUSH2 0x4423 JUMP JUMPDEST PUSH2 0x4422 DUP4 DUP4 PUSH2 0x49EC JUMP JUMPDEST JUMPDEST SWAP1 POP PUSH2 0x444C PUSH2 0x4447 PUSH2 0x4434 DUP4 PUSH2 0x4A19 JUMP JUMPDEST DUP9 PUSH4 0xFFFFFFFF AND DUP9 PUSH4 0xFFFFFFFF AND PUSH2 0x5081 JUMP JUMPDEST PUSH2 0x509F JUMP JUMPDEST SWAP1 POP DUP2 DUP4 SGT ISZERO PUSH2 0x4465 JUMPI PUSH2 0x4460 DUP3 DUP3 PUSH2 0x49EC JUMP JUMPDEST PUSH2 0x4470 JUMP JUMPDEST PUSH2 0x446F DUP3 DUP3 PUSH2 0x5711 JUMP JUMPDEST JUMPDEST SWAP1 POP PUSH2 0x447C DUP2 DUP13 PUSH2 0x573E JUMP JUMPDEST SWAP4 POP POP POP POP JUMPDEST SWAP8 SWAP7 POP POP POP POP POP POP POP JUMP JUMPDEST PUSH2 0x44B3 DUP2 PUSH1 0xC PUSH1 0x0 DUP6 DUP2 MSTORE PUSH1 0x20 ADD SWAP1 DUP2 MSTORE PUSH1 0x20 ADD PUSH1 0x0 KECCAK256 SLOAD PUSH2 0x3174 SWAP1 SWAP2 SWAP1 PUSH4 0xFFFFFFFF AND JUMP JUMPDEST PUSH1 0xC PUSH1 0x0 DUP5 DUP2 MSTORE PUSH1 0x20 ADD SWAP1 DUP2 MSTORE PUSH1 0x20 ADD PUSH1 0x0 KECCAK256 DUP2 SWAP1 SSTORE POP PUSH2 0x44DF DUP2 PUSH1 0x18 SLOAD PUSH2 0x3174 SWAP1 SWAP2 SWAP1 PUSH4 0xFFFFFFFF AND JUMP JUMPDEST PUSH1 0x18 DUP2 SWAP1 SSTORE POP POP POP JUMP JUMPDEST PUSH1 0x0 PUSH1 0x10 PUSH1 0x0 DUP6 DUP2 MSTORE PUSH1 0x20 ADD SWAP1 DUP2 MSTORE PUSH1 0x20 ADD PUSH1 0x0 KECCAK256 SLOAD SWAP1 POP PUSH1 0x0 PUSH1 0xD SLOAD SWAP1 POP DUP1 DUP3 EQ ISZERO PUSH2 0x4517 JUMPI POP POP PUSH2 0x4637 JUMP JUMPDEST PUSH2 0x451F PUSH2 0x5C7E JUMP JUMPDEST PUSH1 0xF PUSH1 0x0 DUP8 DUP2 MSTORE PUSH1 0x20 ADD SWAP1 DUP2 MSTORE PUSH1 0x20 ADD PUSH1 0x0 KECCAK256 PUSH1 0x0 DUP5 DUP2 MSTORE PUSH1 0x20 ADD SWAP1 DUP2 MSTORE PUSH1 0x20 ADD PUSH1 0x0 KECCAK256 PUSH1 0x40 MLOAD DUP1 PUSH1 0x40 ADD PUSH1 0x40 MSTORE SWAP1 DUP2 PUSH1 0x0 DUP3 ADD SLOAD DUP2 MSTORE PUSH1 0x20 ADD PUSH1 0x1 DUP3 ADD SLOAD DUP2 MSTORE POP POP SWAP1 POP PUSH2 0x456C PUSH2 0x5C7E JUMP JUMPDEST PUSH2 0x4575 DUP3 PUSH2 0x578B JUMP JUMPDEST ISZERO PUSH2 0x45C9 JUMPI PUSH2 0x458E DUP3 PUSH1 0x0 ADD MLOAD DUP4 PUSH1 0x20 ADD MLOAD DUP9 DUP9 PUSH2 0x579C JUMP JUMPDEST DUP3 PUSH1 0x0 ADD DUP4 PUSH1 0x20 ADD DUP3 DUP2 MSTORE POP DUP3 DUP2 MSTORE POP POP POP PUSH2 0x45B2 DUP2 PUSH1 0x0 ADD MLOAD DUP3 PUSH1 0x20 ADD MLOAD PUSH2 0x5831 JUMP JUMPDEST DUP3 PUSH1 0x0 ADD DUP4 PUSH1 0x20 ADD DUP3 DUP2 MSTORE POP DUP3 DUP2 MSTORE POP POP POP PUSH2 0x45DE JUMP JUMPDEST DUP6 DUP6 DUP3 PUSH1 0x0 ADD DUP4 PUSH1 0x20 ADD DUP3 DUP2 MSTORE POP DUP3 DUP2 MSTORE POP POP POP JUMPDEST DUP1 PUSH1 0xF PUSH1 0x0 DUP10 DUP2 MSTORE PUSH1 0x20 ADD SWAP1 DUP2 MSTORE PUSH1 0x20 ADD PUSH1 0x0 KECCAK256 PUSH1 0x0 DUP6 DUP2 MSTORE PUSH1 0x20 ADD SWAP1 DUP2 MSTORE PUSH1 0x20 ADD PUSH1 0x0 KECCAK256 PUSH1 0x0 DUP3 ADD MLOAD DUP2 PUSH1 0x0 ADD SSTORE PUSH1 0x20 DUP3 ADD MLOAD DUP2 PUSH1 0x1 ADD SSTORE SWAP1 POP POP DUP3 PUSH1 0x10 PUSH1 0x0 DUP10 DUP2 MSTORE PUSH1 0x20 ADD SWAP1 DUP2 MSTORE PUSH1 0x20 ADD PUSH1 0x0 KECCAK256 DUP2 SWAP1 SSTORE POP POP POP POP POP JUMPDEST POP POP POP JUMP JUMPDEST PUSH1 0x0 DUP1 DUP4 EQ ISZERO PUSH2 0x464F JUMPI PUSH1 0x0 SWAP1 POP PUSH2 0x4680 JUMP JUMPDEST PUSH1 0x0 DUP3 DUP5 MUL SWAP1 POP DUP3 DUP5 DUP3 DUP2 PUSH2 0x4660 JUMPI INVALID JUMPDEST DIV EQ PUSH2 0x467B JUMPI PUSH2 0x467A PUSH2 0x4675 PUSH1 0x1 DUP7 DUP7 PUSH2 0x3B6A JUMP JUMPDEST PUSH2 0x27BA JUMP JUMPDEST JUMPDEST DUP1 SWAP2 POP POP JUMPDEST SWAP3 SWAP2 POP POP JUMP JUMPDEST PUSH1 0x0 DUP1 DUP3 EQ ISZERO PUSH2 0x46A5 JUMPI PUSH2 0x46A4 PUSH2 0x469F PUSH1 0x3 DUP6 DUP6 PUSH2 0x3B6A JUMP JUMPDEST PUSH2 0x27BA JUMP JUMPDEST JUMPDEST PUSH1 0x0 DUP3 DUP5 DUP2 PUSH2 0x46B0 JUMPI INVALID JUMPDEST DIV SWAP1 POP DUP1 SWAP2 POP POP SWAP3 SWAP2 POP POP JUMP JUMPDEST PUSH1 0x60 PUSH4 0x5CAA0B05 PUSH1 0xE0 SHL DUP4 DUP4 PUSH1 0x40 MLOAD PUSH1 0x24 ADD PUSH2 0x46DA SWAP3 SWAP2 SWAP1 PUSH2 0x6663 JUMP JUMPDEST PUSH1 0x40 MLOAD PUSH1 0x20 DUP2 DUP4 SUB SUB DUP2 MSTORE SWAP1 PUSH1 0x40 MSTORE SWAP1 PUSH28 0xFFFFFFFFFFFFFFFFFFFFFFFFFFFFFFFFFFFFFFFFFFFFFFFFFFFFFFFF NOT AND PUSH1 0x20 DUP3 ADD DUP1 MLOAD PUSH28 0xFFFFFFFFFFFFFFFFFFFFFFFFFFFFFFFFFFFFFFFFFFFFFFFFFFFFFFFF DUP4 DUP2 DUP4 AND OR DUP4 MSTORE POP POP POP POP SWAP1 POP SWAP3 SWAP2 POP POP JUMP JUMPDEST PUSH2 0x4747 PUSH2 0x5C7E JUMP JUMPDEST PUSH1 0xF PUSH1 0x0 DUP5 DUP2 MSTORE PUSH1 0x20 ADD SWAP1 DUP2 MSTORE PUSH1 0x20 ADD PUSH1 0x0 KECCAK256 PUSH1 0x0 DUP4 DUP2 MSTORE PUSH1 0x20 ADD SWAP1 DUP2 MSTORE PUSH1 0x20 ADD PUSH1 0x0 KECCAK256 PUSH1 0x40 MLOAD DUP1 PUSH1 0x40 ADD PUSH1 0x40 MSTORE SWAP1 DUP2 PUSH1 0x0 DUP3 ADD SLOAD DUP2 MSTORE PUSH1 0x20 ADD PUSH1 0x1 DUP3 ADD SLOAD DUP2 MSTORE POP POP SWAP1 POP PUSH2 0x4795 DUP2 PUSH2 0x578B JUMP JUMPDEST ISZERO PUSH2 0x47A2 JUMPI DUP1 SWAP1 POP PUSH2 0x48B0 JUMP JUMPDEST PUSH1 0x0 PUSH2 0x47B8 PUSH1 0x1 DUP5 PUSH2 0x27C2 SWAP1 SWAP2 SWAP1 PUSH4 0xFFFFFFFF AND JUMP JUMPDEST SWAP1 POP PUSH1 0xF PUSH1 0x0 DUP6 DUP2 MSTORE PUSH1 0x20 ADD SWAP1 DUP2 MSTORE PUSH1 0x20 ADD PUSH1 0x0 KECCAK256 PUSH1 0x0 DUP3 DUP2 MSTORE PUSH1 0x20 ADD SWAP1 DUP2 MSTORE PUSH1 0x20 ADD PUSH1 0x0 KECCAK256 PUSH1 0x40 MLOAD DUP1 PUSH1 0x40 ADD PUSH1 0x40 MSTORE SWAP1 DUP2 PUSH1 0x0 DUP3 ADD SLOAD DUP2 MSTORE PUSH1 0x20 ADD PUSH1 0x1 DUP3 ADD SLOAD DUP2 MSTORE POP POP SWAP2 POP PUSH2 0x4808 DUP3 PUSH2 0x578B JUMP JUMPDEST ISZERO PUSH2 0x4816 JUMPI DUP2 SWAP2 POP POP PUSH2 0x48B0 JUMP JUMPDEST PUSH1 0x0 PUSH1 0x10 PUSH1 0x0 DUP7 DUP2 MSTORE PUSH1 0x20 ADD SWAP1 DUP2 MSTORE PUSH1 0x20 ADD PUSH1 0x0 KECCAK256 SLOAD SWAP1 POP DUP4 DUP2 LT ISZERO PUSH2 0x4894 JUMPI PUSH1 0xF PUSH1 0x0 DUP7 DUP2 MSTORE PUSH1 0x20 ADD SWAP1 DUP2 MSTORE PUSH1 0x20 ADD PUSH1 0x0 KECCAK256 PUSH1 0x0 DUP3 DUP2 MSTORE PUSH1 0x20 ADD SWAP1 DUP2 MSTORE PUSH1 0x20 ADD PUSH1 0x0 KECCAK256 PUSH1 0x40 MLOAD DUP1 PUSH1 0x40 ADD PUSH1 0x40 MSTORE SWAP1 DUP2 PUSH1 0x0 DUP3 ADD SLOAD DUP2 MSTORE PUSH1 0x20 ADD PUSH1 0x1 DUP3 ADD SLOAD DUP2 MSTORE POP POP SWAP3 POP PUSH2 0x4884 DUP4 PUSH2 0x578B JUMP JUMPDEST ISZERO PUSH2 0x4893 JUMPI DUP3 SWAP3 POP POP POP PUSH2 0x48B0 JUMP JUMPDEST JUMPDEST PUSH1 0x40 MLOAD DUP1 PUSH1 0x40 ADD PUSH1 0x40 MSTORE DUP1 PUSH1 0x0 DUP2 MSTORE PUSH1 0x20 ADD PUSH1 0x1 DUP2 MSTORE POP SWAP3 POP POP POP JUMPDEST SWAP3 SWAP2 POP POP JUMP JUMPDEST PUSH1 0x0 DUP1 DUP3 EQ ISZERO PUSH2 0x48C9 JUMPI PUSH1 0x0 SWAP1 POP PUSH2 0x497D JUMP JUMPDEST PUSH1 0x0 DUP5 EQ ISZERO PUSH2 0x4901 JUMPI PUSH2 0x48F7 DUP6 PUSH2 0x48E9 DUP9 DUP6 PUSH2 0x463C SWAP1 SWAP2 SWAP1 PUSH4 0xFFFFFFFF AND JUMP JUMPDEST PUSH2 0x4686 SWAP1 SWAP2 SWAP1 PUSH4 0xFFFFFFFF AND JUMP JUMPDEST SWAP1 POP DUP1 SWAP1 POP PUSH2 0x497D JUMP JUMPDEST PUSH1 0x0 PUSH2 0x493A PUSH2 0x4919 DUP8 DUP8 PUSH2 0x463C SWAP1 SWAP2 SWAP1 PUSH4 0xFFFFFFFF AND JUMP JUMPDEST PUSH2 0x492C DUP7 DUP11 PUSH2 0x463C SWAP1 SWAP2 SWAP1 PUSH4 0xFFFFFFFF AND JUMP JUMPDEST PUSH2 0x27C2 SWAP1 SWAP2 SWAP1 PUSH4 0xFFFFFFFF AND JUMP JUMPDEST SWAP1 POP PUSH1 0x0 PUSH2 0x4951 DUP6 DUP4 PUSH2 0x4686 SWAP1 SWAP2 SWAP1 PUSH4 0xFFFFFFFF AND JUMP JUMPDEST SWAP1 POP PUSH2 0x4978 DUP8 PUSH2 0x496A DUP4 DUP8 PUSH2 0x463C SWAP1 SWAP2 SWAP1 PUSH4 0xFFFFFFFF AND JUMP JUMPDEST PUSH2 0x4686 SWAP1 SWAP2 SWAP1 PUSH4 0xFFFFFFFF AND JUMP JUMPDEST SWAP3 POP POP POP JUMPDEST SWAP6 SWAP5 POP POP POP POP POP JUMP JUMPDEST PUSH1 0x0 DUP1 DUP4 SLT ISZERO PUSH2 0x49A4 JUMPI PUSH2 0x49A3 PUSH2 0x499E PUSH1 0x1 DUP6 PUSH2 0x585A JUMP JUMPDEST PUSH2 0x27BA JUMP JUMPDEST JUMPDEST PUSH1 0x0 DUP3 SLT ISZERO PUSH2 0x49C1 JUMPI PUSH2 0x49C0 PUSH2 0x49BB PUSH1 0x1 DUP5 PUSH2 0x585A JUMP JUMPDEST PUSH2 0x27BA JUMP JUMPDEST JUMPDEST PUSH2 0x49E4 PUSH2 0x49DE DUP5 PUSH16 0x80000000000000000000000000000000 PUSH2 0x58E7 JUMP JUMPDEST DUP4 PUSH2 0x594C JUMP JUMPDEST SWAP1 POP SWAP3 SWAP2 POP POP JUMP JUMPDEST PUSH1 0x0 PUSH2 0x4A11 PUSH2 0x4A0B DUP5 PUSH16 0x80000000000000000000000000000000 PUSH2 0x58E7 JUMP JUMPDEST DUP4 PUSH2 0x594C JUMP JUMPDEST SWAP1 POP SWAP3 SWAP2 POP POP JUMP JUMPDEST PUSH1 0x0 PUSH16 0x80000000000000000000000000000000 DUP3 SGT ISZERO PUSH2 0x4A47 JUMPI PUSH2 0x4A46 PUSH2 0x4A41 PUSH1 0x1 DUP5 PUSH2 0x59E5 JUMP JUMPDEST PUSH2 0x27BA JUMP JUMPDEST JUMPDEST PUSH1 0x0 DUP3 SGT PUSH2 0x4A63 JUMPI PUSH2 0x4A62 PUSH2 0x4A5D PUSH1 0x0 DUP5 PUSH2 0x59E5 JUMP JUMPDEST PUSH2 0x27BA JUMP JUMPDEST JUMPDEST PUSH16 0x80000000000000000000000000000000 DUP3 EQ ISZERO PUSH2 0x4A84 JUMPI PUSH1 0x0 SWAP1 POP PUSH2 0x507C JUMP JUMPDEST PUSH5 0x733048C5A DUP3 SGT PUSH2 0x4AAC JUMPI PUSH17 0x1FF0000000000000000000000000000000 PUSH1 0x0 SUB SWAP1 POP PUSH2 0x507C JUMP JUMPDEST PUSH1 0x0 DUP1 PUSH1 0x0 PUSH11 0x1C8464F76164760000000 DUP6 SGT PUSH2 0x4B03 JUMPI PUSH17 0x1000000000000000000000000000000000 DUP5 SUB SWAP4 POP PUSH11 0x1C8464F76164760000000 PUSH16 0x80000000000000000000000000000000 DUP7 MUL DUP2 PUSH2 0x4AFF JUMPI INVALID JUMPDEST SDIV SWAP5 POP JUMPDEST PUSH13 0xF1AADDD7742E90000000000000 DUP6 SGT PUSH2 0x4B59 JUMPI PUSH17 0x800000000000000000000000000000000 DUP5 SUB SWAP4 POP PUSH13 0xF1AADDD7742E90000000000000 PUSH16 0x80000000000000000000000000000000 DUP7 MUL DUP2 PUSH2 0x4B55 JUMPI INVALID JUMPDEST SDIV SWAP5 POP JUMPDEST PUSH15 0xAFE10820813D78000000000000000 DUP6 SGT PUSH2 0x4BB3 JUMPI PUSH17 0x400000000000000000000000000000000 DUP5 SUB SWAP4 POP PUSH15 0xAFE10820813D78000000000000000 PUSH16 0x80000000000000000000000000000000 DUP7 MUL DUP2 PUSH2 0x4BAF JUMPI INVALID JUMPDEST SDIV SWAP5 POP JUMPDEST PUSH16 0x2582AB704279EC00000000000000000 DUP6 SGT PUSH2 0x4C0F JUMPI PUSH17 0x200000000000000000000000000000000 DUP5 SUB SWAP4 POP PUSH16 0x2582AB704279EC00000000000000000 PUSH16 0x80000000000000000000000000000000 DUP7 MUL DUP2 PUSH2 0x4C0B JUMPI INVALID JUMPDEST SDIV SWAP5 POP JUMPDEST PUSH16 0x1152AAA3BF81CC000000000000000000 DUP6 SGT PUSH2 0x4C6B JUMPI PUSH17 0x100000000000000000000000000000000 DUP5 SUB SWAP4 POP PUSH16 0x1152AAA3BF81CC000000000000000000 PUSH16 0x80000000000000000000000000000000 DUP7 MUL DUP2 PUSH2 0x4C67 JUMPI INVALID JUMPDEST SDIV SWAP5 POP JUMPDEST PUSH16 0x2F16AC6C59DE70000000000000000000 DUP6 SGT PUSH2 0x4CC6 JUMPI PUSH16 0x80000000000000000000000000000000 DUP5 SUB SWAP4 POP PUSH16 0x2F16AC6C59DE70000000000000000000 PUSH16 0x80000000000000000000000000000000 DUP7 MUL DUP2 PUSH2 0x4CC2 JUMPI INVALID JUMPDEST SDIV SWAP5 POP JUMPDEST PUSH16 0x4DA2CBF1BE5828000000000000000000 DUP6 SGT PUSH2 0x4D21 JUMPI PUSH16 0x40000000000000000000000000000000 DUP5 SUB SWAP4 POP PUSH16 0x4DA2CBF1BE5828000000000000000000 PUSH16 0x80000000000000000000000000000000 DUP7 MUL DUP2 PUSH2 0x4D1D JUMPI INVALID JUMPDEST SDIV SWAP5 POP JUMPDEST PUSH16 0x63AFBE7AB2082C000000000000000000 DUP6 SGT PUSH2 0x4D7C JUMPI PUSH16 0x20000000000000000000000000000000 DUP5 SUB SWAP4 POP PUSH16 0x63AFBE7AB2082C000000000000000000 PUSH16 0x80000000000000000000000000000000 DUP7 MUL DUP2 PUSH2 0x4D78 JUMPI INVALID JUMPDEST SDIV SWAP5 POP JUMPDEST PUSH16 0x70F5A893B608861E1F58934F97AEA57D DUP6 SGT PUSH2 0x4DD7 JUMPI PUSH16 0x10000000000000000000000000000000 DUP5 SUB SWAP4 POP PUSH16 0x70F5A893B608861E1F58934F97AEA57D PUSH16 0x80000000000000000000000000000000 DUP7 MUL DUP2 PUSH2 0x4DD3 JUMPI INVALID JUMPDEST SDIV SWAP5 POP JUMPDEST PUSH16 0x80000000000000000000000000000000 DUP6 SUB SWAP3 POP DUP3 SWAP2 POP PUSH16 0x80000000000000000000000000000000 DUP4 DUP5 MUL DUP2 PUSH2 0x4E0A JUMPI INVALID JUMPDEST SDIV SWAP1 POP PUSH17 0x100000000000000000000000000000000 DUP4 PUSH17 0x100000000000000000000000000000000 SUB DUP4 MUL DUP2 PUSH2 0x4E3C JUMPI INVALID JUMPDEST SDIV DUP5 ADD SWAP4 POP PUSH16 0x80000000000000000000000000000000 DUP2 DUP4 MUL DUP2 PUSH2 0x4E5C JUMPI INVALID JUMPDEST SDIV SWAP2 POP PUSH17 0x200000000000000000000000000000000 DUP4 PUSH16 0xAAAAAAAAAAAAAAAAAAAAAAAAAAAAAAAA SUB DUP4 MUL DUP2 PUSH2 0x4E8D JUMPI INVALID JUMPDEST SDIV DUP5 ADD SWAP4 POP PUSH16 0x80000000000000000000000000000000 DUP2 DUP4 MUL DUP2 PUSH2 0x4EAD JUMPI INVALID JUMPDEST SDIV SWAP2 POP PUSH17 0x300000000000000000000000000000000 DUP4 PUSH16 0x99999999999999999999999999999999 SUB DUP4 MUL DUP2 PUSH2 0x4EDE JUMPI INVALID JUMPDEST SDIV DUP5 ADD SWAP4 POP PUSH16 0x80000000000000000000000000000000 DUP2 DUP4 MUL DUP2 PUSH2 0x4EFE JUMPI INVALID JUMPDEST SDIV SWAP2 POP PUSH17 0x400000000000000000000000000000000 DUP4 PUSH16 0x92492492492492492492492492492492 SUB DUP4 MUL DUP2 PUSH2 0x4F2F JUMPI INVALID JUMPDEST SDIV DUP5 ADD SWAP4 POP PUSH16 0x80000000000000000000000000000000 DUP2 DUP4 MUL DUP2 PUSH2 0x4F4F JUMPI INVALID JUMPDEST SDIV SWAP2 POP PUSH17 0x500000000000000000000000000000000 DUP4 PUSH16 0x8E38E38E38E38E38E38E38E38E38E38E SUB DUP4 MUL DUP2 PUSH2 0x4F80 JUMPI INVALID JUMPDEST SDIV DUP5 ADD SWAP4 POP PUSH16 0x80000000000000000000000000000000 DUP2 DUP4 MUL DUP2 PUSH2 0x4FA0 JUMPI INVALID JUMPDEST SDIV SWAP2 POP PUSH17 0x600000000000000000000000000000000 DUP4 PUSH16 0x8BA2E8BA2E8BA2E8BA2E8BA2E8BA2E8B SUB DUP4 MUL DUP2 PUSH2 0x4FD1 JUMPI INVALID JUMPDEST SDIV DUP5 ADD SWAP4 POP PUSH16 0x80000000000000000000000000000000 DUP2 DUP4 MUL DUP2 PUSH2 0x4FF1 JUMPI INVALID JUMPDEST SDIV SWAP2 POP PUSH17 0x700000000000000000000000000000000 DUP4 PUSH16 0x89D89D89D89D89D89D89D89D89D89D89 SUB DUP4 MUL DUP2 PUSH2 0x5022 JUMPI INVALID JUMPDEST SDIV DUP5 ADD SWAP4 POP PUSH16 0x80000000000000000000000000000000 DUP2 DUP4 MUL DUP2 PUSH2 0x5042 JUMPI INVALID JUMPDEST SDIV SWAP2 POP PUSH17 0x800000000000000000000000000000000 DUP4 PUSH16 0x88888888888888888888888888888888 SUB DUP4 MUL DUP2 PUSH2 0x5073 JUMPI INVALID JUMPDEST SDIV DUP5 ADD SWAP4 POP POP POP POP JUMPDEST SWAP2 SWAP1 POP JUMP JUMPDEST PUSH1 0x0 PUSH2 0x5096 PUSH2 0x5090 DUP6 DUP6 PUSH2 0x58E7 JUMP JUMPDEST DUP4 PUSH2 0x594C JUMP JUMPDEST SWAP1 POP SWAP4 SWAP3 POP POP POP JUMP JUMPDEST PUSH1 0x0 PUSH17 0x1FF0000000000000000000000000000000 PUSH1 0x0 SUB DUP3 SLT ISZERO PUSH2 0x50C6 JUMPI PUSH1 0x0 SWAP1 POP PUSH2 0x570C JUMP JUMPDEST PUSH1 0x0 DUP3 EQ ISZERO PUSH2 0x50E7 JUMPI PUSH16 0x80000000000000000000000000000000 SWAP1 POP PUSH2 0x570C JUMP JUMPDEST PUSH1 0x0 DUP3 SGT ISZERO PUSH2 0x5104 JUMPI PUSH2 0x5103 PUSH2 0x50FE PUSH1 0x1 DUP5 PUSH2 0x59E5 JUMP JUMPDEST PUSH2 0x27BA JUMP JUMPDEST JUMPDEST PUSH1 0x0 DUP1 PUSH16 0x10000000000000000000000000000000 DUP5 DUP2 PUSH2 0x5120 JUMPI INVALID JUMPDEST SMOD SWAP2 POP DUP2 SWAP1 POP PUSH16 0x80000000000000000000000000000000 DUP3 DUP3 MUL DUP2 PUSH2 0x5141 JUMPI INVALID JUMPDEST SDIV SWAP1 POP PUSH8 0x10E1B3BE415A0000 DUP2 MUL DUP4 ADD SWAP3 POP PUSH16 0x80000000000000000000000000000000 DUP3 DUP3 MUL DUP2 PUSH2 0x516E JUMPI INVALID JUMPDEST SDIV SWAP1 POP PUSH8 0x5A0913F6B1E0000 DUP2 MUL DUP4 ADD SWAP3 POP PUSH16 0x80000000000000000000000000000000 DUP3 DUP3 MUL DUP2 PUSH2 0x519B JUMPI INVALID JUMPDEST SDIV SWAP1 POP PUSH8 0x168244FDAC78000 DUP2 MUL DUP4 ADD SWAP3 POP PUSH16 0x80000000000000000000000000000000 DUP3 DUP3 MUL DUP2 PUSH2 0x51C8 JUMPI INVALID JUMPDEST SDIV SWAP1 POP PUSH7 0x4807432BC18000 DUP2 MUL DUP4 ADD SWAP3 POP PUSH16 0x80000000000000000000000000000000 DUP3 DUP3 MUL DUP2 PUSH2 0x51F4 JUMPI INVALID JUMPDEST SDIV SWAP1 POP PUSH7 0xC0135DCA04000 DUP2 MUL DUP4 ADD SWAP3 POP PUSH16 0x80000000000000000000000000000000 DUP3 DUP3 MUL DUP2 PUSH2 0x5220 JUMPI INVALID JUMPDEST SDIV SWAP1 POP PUSH7 0x1B707B1CDC000 DUP2 MUL DUP4 ADD SWAP3 POP PUSH16 0x80000000000000000000000000000000 DUP3 DUP3 MUL DUP2 PUSH2 0x524C JUMPI INVALID JUMPDEST SDIV SWAP1 POP PUSH6 0x36E0F639B800 DUP2 MUL DUP4 ADD SWAP3 POP PUSH16 0x80000000000000000000000000000000 DUP3 DUP3 MUL DUP2 PUSH2 0x5277 JUMPI INVALID JUMPDEST SDIV SWAP1 POP PUSH6 0x618FEE9F800 DUP2 MUL DUP4 ADD SWAP3 POP PUSH16 0x80000000000000000000000000000000 DUP3 DUP3 MUL DUP2 PUSH2 0x52A2 JUMPI INVALID JUMPDEST SDIV SWAP1 POP PUSH5 0x9C197DCC00 DUP2 MUL DUP4 ADD SWAP3 POP PUSH16 0x80000000000000000000000000000000 DUP3 DUP3 MUL DUP2 PUSH2 0x52CC JUMPI INVALID JUMPDEST SDIV SWAP1 POP PUSH5 0xE30DCE400 DUP2 MUL DUP4 ADD SWAP3 POP PUSH16 0x80000000000000000000000000000000 DUP3 DUP3 MUL DUP2 PUSH2 0x52F6 JUMPI INVALID JUMPDEST SDIV SWAP1 POP PUSH5 0x12EBD1300 DUP2 MUL DUP4 ADD SWAP3 POP PUSH16 0x80000000000000000000000000000000 DUP3 DUP3 MUL DUP2 PUSH2 0x5320 JUMPI INVALID JUMPDEST SDIV SWAP1 POP PUSH4 0x17499F00 DUP2 MUL DUP4 ADD SWAP3 POP PUSH16 0x80000000000000000000000000000000 DUP3 DUP3 MUL DUP2 PUSH2 0x5349 JUMPI INVALID JUMPDEST SDIV SWAP1 POP PUSH4 0x1A9D480 DUP2 MUL DUP4 ADD SWAP3 POP PUSH16 0x80000000000000000000000000000000 DUP3 DUP3 MUL DUP2 PUSH2 0x5372 JUMPI INVALID JUMPDEST SDIV SWAP1 POP PUSH3 0x1C6380 DUP2 MUL DUP4 ADD SWAP3 POP PUSH16 0x80000000000000000000000000000000 DUP3 DUP3 MUL DUP2 PUSH2 0x539A JUMPI INVALID JUMPDEST SDIV SWAP1 POP PUSH3 0x1C638 DUP2 MUL DUP4 ADD SWAP3 POP PUSH16 0x80000000000000000000000000000000 DUP3 DUP3 MUL DUP2 PUSH2 0x53C2 JUMPI INVALID JUMPDEST SDIV SWAP1 POP PUSH2 0x1AB8 DUP2 MUL DUP4 ADD SWAP3 POP PUSH16 0x80000000000000000000000000000000 DUP3 DUP3 MUL DUP2 PUSH2 0x53E9 JUMPI INVALID JUMPDEST SDIV SWAP1 POP PUSH2 0x17C DUP2 MUL DUP4 ADD SWAP3 POP PUSH16 0x80000000000000000000000000000000 DUP3 DUP3 MUL DUP2 PUSH2 0x5410 JUMPI INVALID JUMPDEST SDIV SWAP1 POP PUSH1 0x14 DUP2 MUL DUP4 ADD SWAP3 POP PUSH16 0x80000000000000000000000000000000 DUP3 DUP3 MUL DUP2 PUSH2 0x5436 JUMPI INVALID JUMPDEST SDIV SWAP1 POP PUSH1 0x1 DUP2 MUL DUP4 ADD SWAP3 POP PUSH16 0x80000000000000000000000000000000 DUP3 PUSH8 0x21C3677C82B40000 DUP6 DUP2 PUSH2 0x5464 JUMPI INVALID JUMPDEST SDIV ADD ADD SWAP3 POP DUP4 PUSH1 0x0 SUB SWAP4 POP PUSH1 0x0 PUSH17 0x1000000000000000000000000000000000 DUP6 AND EQ PUSH2 0x54B9 JUMPI PUSH19 0x43CBAF42A000812488FC5C220AD7B97BF6E99E PUSH13 0xF1AADDD7742E56D32FB9F99744 DUP5 MUL DUP2 PUSH2 0x54B5 JUMPI INVALID JUMPDEST SDIV SWAP3 POP JUMPDEST PUSH1 0x0 PUSH17 0x800000000000000000000000000000000 DUP6 AND EQ PUSH2 0x5504 JUMPI PUSH18 0x5D27A9F51C31B7C2F8038212A0574779991 PUSH15 0xAFE10820813D65DFE6A33C07F738F DUP5 MUL DUP2 PUSH2 0x5500 JUMPI INVALID JUMPDEST SDIV SWAP3 POP JUMPDEST PUSH1 0x0 PUSH17 0x400000000000000000000000000000000 DUP6 AND EQ PUSH2 0x554F JUMPI PUSH17 0x1B4C902E273A58678D6D3BFDB93DB96D02 PUSH16 0x2582AB704279E8EFD15E0265855C47A DUP5 MUL DUP2 PUSH2 0x554B JUMPI INVALID JUMPDEST SDIV SWAP3 POP JUMPDEST PUSH1 0x0 PUSH17 0x200000000000000000000000000000000 DUP6 AND EQ PUSH2 0x559A JUMPI PUSH17 0x3B1CC971A9BB5B9867477440D6D157750 PUSH16 0x1152AAA3BF81CB9FDB76EAE12D029571 DUP5 MUL DUP2 PUSH2 0x5596 JUMPI INVALID JUMPDEST SDIV SWAP3 POP JUMPDEST PUSH1 0x0 PUSH17 0x100000000000000000000000000000000 DUP6 AND EQ PUSH2 0x55E5 JUMPI PUSH17 0x15BF0A8B1457695355FB8AC404E7A79E3 PUSH16 0x2F16AC6C59DE6F8D5D6F63C1482A7C86 DUP5 MUL DUP2 PUSH2 0x55E1 JUMPI INVALID JUMPDEST SDIV SWAP3 POP JUMPDEST PUSH1 0x0 PUSH16 0x80000000000000000000000000000000 DUP6 AND EQ PUSH2 0x562E JUMPI PUSH16 0xD3094C70F034DE4B96FF7D5B6F99FCD8 PUSH16 0x4DA2CBF1BE5827F9EB3AD1AA9866EBB3 DUP5 MUL DUP2 PUSH2 0x562A JUMPI INVALID JUMPDEST SDIV SWAP3 POP JUMPDEST PUSH1 0x0 PUSH16 0x40000000000000000000000000000000 DUP6 AND EQ PUSH2 0x5677 JUMPI PUSH16 0xA45AF1E1F40C333B3DE1DB4DD55F29A7 PUSH16 0x63AFBE7AB2082BA1A0AE5E4EB1B479DC DUP5 MUL DUP2 PUSH2 0x5673 JUMPI INVALID JUMPDEST SDIV SWAP3 POP JUMPDEST PUSH1 0x0 PUSH16 0x20000000000000000000000000000000 DUP6 AND EQ PUSH2 0x56C0 JUMPI PUSH16 0x910B022DB7AE67CE76B441C27035C6A1 PUSH16 0x70F5A893B608861E1F58934F97AEA57D DUP5 MUL DUP2 PUSH2 0x56BC JUMPI INVALID JUMPDEST SDIV SWAP3 POP JUMPDEST PUSH1 0x0 PUSH16 0x10000000000000000000000000000000 DUP6 AND EQ PUSH2 0x5709 JUMPI PUSH16 0x88415ABBE9A76BEAD8D00CF112E4D4A8 PUSH16 0x783EAFEF1C0A8F3978C7F81824D62EBF DUP5 MUL DUP2 PUSH2 0x5705 JUMPI INVALID JUMPDEST SDIV SWAP3 POP JUMPDEST POP POP JUMPDEST SWAP2 SWAP1 POP JUMP JUMPDEST PUSH1 0x0 PUSH16 0x80000000000000000000000000000000 PUSH2 0x572E DUP5 DUP5 PUSH2 0x58E7 JUMP JUMPDEST DUP2 PUSH2 0x5735 JUMPI INVALID JUMPDEST SDIV SWAP1 POP SWAP3 SWAP2 POP POP JUMP JUMPDEST PUSH1 0x0 DUP1 DUP3 SLT ISZERO PUSH2 0x575C JUMPI PUSH2 0x575B PUSH2 0x5756 PUSH1 0x1 DUP5 PUSH2 0x585A JUMP JUMPDEST PUSH2 0x27BA JUMP JUMPDEST JUMPDEST PUSH1 0x0 PUSH2 0x5768 DUP5 DUP5 PUSH2 0x58E7 JUMP JUMPDEST SWAP1 POP PUSH1 0x0 DUP2 SGT PUSH2 0x577C JUMPI PUSH1 0x0 SWAP2 POP POP PUSH2 0x5785 JUMP JUMPDEST PUSH1 0x7F DUP2 SWAP1 SHR SWAP2 POP POP JUMPDEST SWAP3 SWAP2 POP POP JUMP JUMPDEST PUSH1 0x0 DUP1 DUP3 PUSH1 0x20 ADD MLOAD EQ ISZERO SWAP1 POP SWAP2 SWAP1 POP JUMP JUMPDEST PUSH1 0x0 DUP1 PUSH1 0x0 DUP7 EQ ISZERO PUSH2 0x57B9 JUMPI DUP4 SWAP2 POP DUP2 DUP4 SWAP2 POP DUP2 SWAP2 POP SWAP2 POP PUSH2 0x5828 JUMP JUMPDEST PUSH1 0x0 DUP5 EQ ISZERO PUSH2 0x57D3 JUMPI DUP6 SWAP2 POP DUP2 DUP6 SWAP2 POP DUP2 SWAP2 POP SWAP2 POP PUSH2 0x5828 JUMP JUMPDEST PUSH2 0x580A PUSH2 0x57E9 DUP7 DUP7 PUSH2 0x463C SWAP1 SWAP2 SWAP1 PUSH4 0xFFFFFFFF AND JUMP JUMPDEST PUSH2 0x57FC DUP6 DUP10 PUSH2 0x463C SWAP1 SWAP2 SWAP1 PUSH4 0xFFFFFFFF AND JUMP JUMPDEST PUSH2 0x3174 SWAP1 SWAP2 SWAP1 PUSH4 0xFFFFFFFF AND JUMP JUMPDEST SWAP2 POP PUSH2 0x581F DUP4 DUP7 PUSH2 0x463C SWAP1 SWAP2 SWAP1 PUSH4 0xFFFFFFFF AND JUMP JUMPDEST SWAP1 POP DUP2 DUP2 SWAP2 POP SWAP2 POP JUMPDEST SWAP5 POP SWAP5 SWAP3 POP POP POP JUMP JUMPDEST PUSH1 0x0 DUP1 PUSH2 0x584F DUP5 DUP5 PUSH16 0x80000000000000000000000000000000 PUSH2 0x5A72 JUMP JUMPDEST SWAP2 POP SWAP2 POP SWAP3 POP SWAP3 SWAP1 POP JUMP JUMPDEST PUSH1 0x60 PUSH4 0xBD79545F PUSH1 0xE0 SHL DUP4 PUSH1 0x1 DUP2 GT ISZERO PUSH2 0x5870 JUMPI INVALID JUMPDEST DUP4 PUSH1 0x40 MLOAD PUSH1 0x24 ADD PUSH2 0x5882 SWAP3 SWAP2 SWAP1 PUSH2 0x6A53 JUMP JUMPDEST PUSH1 0x40 MLOAD PUSH1 0x20 DUP2 DUP4 SUB SUB DUP2 MSTORE SWAP1 PUSH1 0x40 MSTORE SWAP1 PUSH28 0xFFFFFFFFFFFFFFFFFFFFFFFFFFFFFFFFFFFFFFFFFFFFFFFFFFFFFFFF NOT AND PUSH1 0x20 DUP3 ADD DUP1 MLOAD PUSH28 0xFFFFFFFFFFFFFFFFFFFFFFFFFFFFFFFFFFFFFFFFFFFFFFFFFFFFFFFF DUP4 DUP2 DUP4 AND OR DUP4 MSTORE POP POP POP POP SWAP1 POP SWAP3 SWAP2 POP POP JUMP JUMPDEST PUSH1 0x0 DUP1 DUP4 EQ DUP1 PUSH2 0x58F7 JUMPI POP PUSH1 0x0 DUP3 EQ JUMPDEST ISZERO PUSH2 0x5905 JUMPI PUSH1 0x0 SWAP1 POP PUSH2 0x5946 JUMP JUMPDEST DUP2 DUP4 MUL SWAP1 POP DUP2 DUP4 DUP3 DUP2 PUSH2 0x5914 JUMPI INVALID JUMPDEST SDIV EQ ISZERO DUP1 PUSH2 0x592B JUMPI POP DUP3 DUP3 DUP3 DUP2 PUSH2 0x5927 JUMPI INVALID JUMPDEST SDIV EQ ISZERO JUMPDEST ISZERO PUSH2 0x5945 JUMPI PUSH2 0x5944 PUSH2 0x593F PUSH1 0x1 DUP6 DUP6 PUSH2 0x5AF5 JUMP JUMPDEST PUSH2 0x27BA JUMP JUMPDEST JUMPDEST JUMPDEST SWAP3 SWAP2 POP POP JUMP JUMPDEST PUSH1 0x0 DUP1 DUP3 EQ ISZERO PUSH2 0x596B JUMPI PUSH2 0x596A PUSH2 0x5965 PUSH1 0x2 DUP6 DUP6 PUSH2 0x5AF5 JUMP JUMPDEST PUSH2 0x27BA JUMP JUMPDEST JUMPDEST PUSH32 0x8000000000000000000000000000000000000000000000000000000000000000 DUP4 EQ DUP1 ISZERO PUSH2 0x59B9 JUMPI POP PUSH32 0xFFFFFFFFFFFFFFFFFFFFFFFFFFFFFFFFFFFFFFFFFFFFFFFFFFFFFFFFFFFFFFFF DUP3 EQ JUMPDEST ISZERO PUSH2 0x59D3 JUMPI PUSH2 0x59D2 PUSH2 0x59CD PUSH1 0x3 DUP6 DUP6 PUSH2 0x5AF5 JUMP JUMPDEST PUSH2 0x27BA JUMP JUMPDEST JUMPDEST DUP2 DUP4 DUP2 PUSH2 0x59DC JUMPI INVALID JUMPDEST SDIV SWAP1 POP SWAP3 SWAP2 POP POP JUMP JUMPDEST PUSH1 0x60 PUSH4 0xED2F26A1 PUSH1 0xE0 SHL DUP4 PUSH1 0x1 DUP2 GT ISZERO PUSH2 0x59FB JUMPI INVALID JUMPDEST DUP4 PUSH1 0x40 MLOAD PUSH1 0x24 ADD PUSH2 0x5A0D SWAP3 SWAP2 SWAP1 PUSH2 0x69F3 JUMP JUMPDEST PUSH1 0x40 MLOAD PUSH1 0x20 DUP2 DUP4 SUB SUB DUP2 MSTORE SWAP1 PUSH1 0x40 MSTORE SWAP1 PUSH28 0xFFFFFFFFFFFFFFFFFFFFFFFFFFFFFFFFFFFFFFFFFFFFFFFFFFFFFFFF NOT AND PUSH1 0x20 DUP3 ADD DUP1 MLOAD PUSH28 0xFFFFFFFFFFFFFFFFFFFFFFFFFFFFFFFFFFFFFFFFFFFFFFFFFFFFFFFF DUP4 DUP2 DUP4 AND OR DUP4 MSTORE POP POP POP POP SWAP1 POP SWAP3 SWAP2 POP POP JUMP JUMPDEST PUSH1 0x0 DUP1 DUP3 DUP6 GT DUP1 PUSH2 0x5A82 JUMPI POP DUP3 DUP5 GT JUMPDEST ISZERO PUSH2 0x5AE0 JUMPI PUSH1 0x0 DUP5 DUP7 LT ISZERO PUSH2 0x5A97 JUMPI DUP5 PUSH2 0x5A99 JUMP JUMPDEST DUP6 JUMPDEST SWAP1 POP PUSH2 0x5AAE DUP5 DUP3 PUSH2 0x4686 SWAP1 SWAP2 SWAP1 PUSH4 0xFFFFFFFF AND JUMP JUMPDEST SWAP1 POP PUSH2 0x5AC3 DUP2 DUP8 PUSH2 0x4686 SWAP1 SWAP2 SWAP1 PUSH4 0xFFFFFFFF AND JUMP JUMPDEST SWAP3 POP PUSH2 0x5AD8 DUP2 DUP7 PUSH2 0x4686 SWAP1 SWAP2 SWAP1 PUSH4 0xFFFFFFFF AND JUMP JUMPDEST SWAP2 POP POP PUSH2 0x5AE7 JUMP JUMPDEST DUP5 SWAP2 POP DUP4 SWAP1 POP JUMPDEST DUP2 DUP2 SWAP2 POP SWAP2 POP SWAP4 POP SWAP4 SWAP2 POP POP JUMP JUMPDEST PUSH1 0x60 PUSH4 0x8C12DFE7 PUSH1 0xE0 SHL DUP5 PUSH1 0x3 DUP2 GT ISZERO PUSH2 0x5B0B JUMPI INVALID JUMPDEST DUP5 DUP5 PUSH1 0x40 MLOAD PUSH1 0x24 ADD PUSH2 0x5B1F SWAP4 SWAP3 SWAP2 SWAP1 PUSH2 0x6A1C JUMP JUMPDEST PUSH1 0x40 MLOAD PUSH1 0x20 DUP2 DUP4 SUB SUB DUP2 MSTORE SWAP1 PUSH1 0x40 MSTORE SWAP1 PUSH28 0xFFFFFFFFFFFFFFFFFFFFFFFFFFFFFFFFFFFFFFFFFFFFFFFFFFFFFFFF NOT AND PUSH1 0x20 DUP3 ADD DUP1 MLOAD PUSH28 0xFFFFFFFFFFFFFFFFFFFFFFFFFFFFFFFFFFFFFFFFFFFFFFFFFFFFFFFF DUP4 DUP2 DUP4 AND OR DUP4 MSTORE POP POP POP POP SWAP1 POP SWAP4 SWAP3 POP POP POP JUMP JUMPDEST PUSH1 0x40 MLOAD DUP1 PUSH1 0xA0 ADD PUSH1 0x40 MSTORE DUP1 PUSH1 0x0 DUP2 MSTORE PUSH1 0x20 ADD PUSH1 0x0 DUP2 MSTORE PUSH1 0x20 ADD PUSH1 0x0 DUP2 MSTORE PUSH1 0x20 ADD PUSH1 0x0 DUP2 MSTORE PUSH1 0x20 ADD PUSH1 0x0 DUP2 MSTORE POP SWAP1 JUMP JUMPDEST PUSH1 0x40 MLOAD DUP1 PUSH1 0x60 ADD PUSH1 0x40 MSTORE DUP1 PUSH1 0x0 PUSH8 0xFFFFFFFFFFFFFFFF AND DUP2 MSTORE PUSH1 0x20 ADD PUSH1 0x0 PUSH12 0xFFFFFFFFFFFFFFFFFFFFFFFF AND DUP2 MSTORE PUSH1 0x20 ADD PUSH1 0x0 PUSH12 0xFFFFFFFFFFFFFFFFFFFFFFFF AND DUP2 MSTORE POP SWAP1 JUMP JUMPDEST PUSH1 0x40 MLOAD DUP1 PUSH1 0x60 ADD PUSH1 0x40 MSTORE DUP1 PUSH1 0x0 DUP2 MSTORE PUSH1 0x20 ADD PUSH1 0x0 DUP2 MSTORE PUSH1 0x20 ADD PUSH1 0x0 DUP2 MSTORE POP SWAP1 JUMP JUMPDEST PUSH1 0x40 MLOAD DUP1 PUSH1 0x40 ADD PUSH1 0x40 MSTORE DUP1 PUSH1 0x0 PUSH20 0xFFFFFFFFFFFFFFFFFFFFFFFFFFFFFFFFFFFFFFFF AND DUP2 MSTORE PUSH1 0x20 ADD PUSH1 0x0 PUSH4 0xFFFFFFFF AND DUP2 MSTORE POP SWAP1 JUMP JUMPDEST DUP2 SLOAD DUP2 DUP4 SSTORE DUP2 DUP2 GT ISZERO PUSH2 0x5C79 JUMPI DUP2 DUP4 PUSH1 0x0 MSTORE PUSH1 0x20 PUSH1 0x0 KECCAK256 SWAP2 DUP3 ADD SWAP2 ADD PUSH2 0x5C78 SWAP2 SWAP1 PUSH2 0x5C98 JUMP JUMPDEST JUMPDEST POP POP POP JUMP JUMPDEST PUSH1 0x40 MLOAD DUP1 PUSH1 0x40 ADD PUSH1 0x40 MSTORE DUP1 PUSH1 0x0 DUP2 MSTORE PUSH1 0x20 ADD PUSH1 0x0 DUP2 MSTORE POP SWAP1 JUMP JUMPDEST PUSH2 0x5CBA SWAP2 SWAP1 JUMPDEST DUP1 DUP3 GT ISZERO PUSH2 0x5CB6 JUMPI PUSH1 0x0 DUP2 PUSH1 0x0 SWAP1 SSTORE POP PUSH1 0x1 ADD PUSH2 0x5C9E JUMP JUMPDEST POP SWAP1 JUMP JUMPDEST SWAP1 JUMP JUMPDEST PUSH1 0x0 DUP2 CALLDATALOAD SWAP1 POP PUSH2 0x5CCC DUP2 PUSH2 0x6D19 JUMP JUMPDEST SWAP3 SWAP2 POP POP JUMP JUMPDEST PUSH1 0x0 DUP2 MLOAD SWAP1 POP PUSH2 0x5CE1 DUP2 PUSH2 0x6D19 JUMP JUMPDEST SWAP3 SWAP2 POP POP JUMP JUMPDEST PUSH1 0x0 DUP2 MLOAD SWAP1 POP PUSH2 0x5CF6 DUP2 PUSH2 0x6D30 JUMP JUMPDEST SWAP3 SWAP2 POP POP JUMP JUMPDEST PUSH1 0x0 DUP2 CALLDATALOAD SWAP1 POP PUSH2 0x5D0B DUP2 PUSH2 0x6D47 JUMP JUMPDEST SWAP3 SWAP2 POP POP JUMP JUMPDEST PUSH1 0x0 DUP2 CALLDATALOAD SWAP1 POP PUSH2 0x5D20 DUP2 PUSH2 0x6D5E JUMP JUMPDEST SWAP3 SWAP2 POP POP JUMP JUMPDEST PUSH1 0x0 DUP3 PUSH1 0x1F DUP4 ADD SLT PUSH2 0x5D37 JUMPI PUSH1 0x0 DUP1 REVERT JUMPDEST DUP2 MLOAD PUSH2 0x5D4A PUSH2 0x5D45 DUP3 PUSH2 0x6AA9 JUMP JUMPDEST PUSH2 0x6A7C JUMP JUMPDEST SWAP2 POP DUP1 DUP3 MSTORE PUSH1 0x20 DUP4 ADD PUSH1 0x20 DUP4 ADD DUP6 DUP4 DUP4 ADD GT ISZERO PUSH2 0x5D66 JUMPI PUSH1 0x0 DUP1 REVERT JUMPDEST PUSH2 0x5D71 DUP4 DUP3 DUP5 PUSH2 0x6CB2 JUMP JUMPDEST POP POP POP SWAP3 SWAP2 POP POP JUMP JUMPDEST PUSH1 0x0 DUP2 CALLDATALOAD SWAP1 POP PUSH2 0x5D89 DUP2 PUSH2 0x6D6E JUMP JUMPDEST SWAP3 SWAP2 POP POP JUMP JUMPDEST PUSH1 0x0 DUP2 MLOAD SWAP1 POP PUSH2 0x5D9E DUP2 PUSH2 0x6D6E JUMP JUMPDEST SWAP3 SWAP2 POP POP JUMP JUMPDEST PUSH1 0x0 DUP2 CALLDATALOAD SWAP1 POP PUSH2 0x5DB3 DUP2 PUSH2 0x6D85 JUMP JUMPDEST SWAP3 SWAP2 POP POP JUMP JUMPDEST PUSH1 0x0 PUSH1 0x20 DUP3 DUP5 SUB SLT ISZERO PUSH2 0x5DCB JUMPI PUSH1 0x0 DUP1 REVERT JUMPDEST PUSH1 0x0 PUSH2 0x5DD9 DUP5 DUP3 DUP6 ADD PUSH2 0x5CBD JUMP JUMPDEST SWAP2 POP POP SWAP3 SWAP2 POP POP JUMP JUMPDEST PUSH1 0x0 DUP1 PUSH1 0x0 PUSH1 0x60 DUP5 DUP7 SUB SLT ISZERO PUSH2 0x5DF7 JUMPI PUSH1 0x0 DUP1 REVERT JUMPDEST PUSH1 0x0 PUSH2 0x5E05 DUP7 DUP3 DUP8 ADD PUSH2 0x5CBD JUMP JUMPDEST SWAP4 POP POP PUSH1 0x20 PUSH2 0x5E16 DUP7 DUP3 DUP8 ADD PUSH2 0x5CBD JUMP JUMPDEST SWAP3 POP POP PUSH1 0x40 PUSH2 0x5E27 DUP7 DUP3 DUP8 ADD PUSH2 0x5D7A JUMP JUMPDEST SWAP2 POP POP SWAP3 POP SWAP3 POP SWAP3 JUMP JUMPDEST PUSH1 0x0 DUP1 PUSH1 0x40 DUP4 DUP6 SUB SLT ISZERO PUSH2 0x5E44 JUMPI PUSH1 0x0 DUP1 REVERT JUMPDEST PUSH1 0x0 PUSH2 0x5E52 DUP6 DUP3 DUP7 ADD PUSH2 0x5CBD JUMP JUMPDEST SWAP3 POP POP PUSH1 0x20 PUSH2 0x5E63 DUP6 DUP3 DUP7 ADD PUSH2 0x5CFC JUMP JUMPDEST SWAP2 POP POP SWAP3 POP SWAP3 SWAP1 POP JUMP JUMPDEST PUSH1 0x0 DUP1 PUSH1 0x40 DUP4 DUP6 SUB SLT ISZERO PUSH2 0x5E80 JUMPI PUSH1 0x0 DUP1 REVERT JUMPDEST PUSH1 0x0 PUSH2 0x5E8E DUP6 DUP3 DUP7 ADD PUSH2 0x5CBD JUMP JUMPDEST SWAP3 POP POP PUSH1 0x20 PUSH2 0x5E9F DUP6 DUP3 DUP7 ADD PUSH2 0x5D11 JUMP JUMPDEST SWAP2 POP POP SWAP3 POP SWAP3 SWAP1 POP JUMP JUMPDEST PUSH1 0x0 DUP1 PUSH1 0x40 DUP4 DUP6 SUB SLT ISZERO PUSH2 0x5EBC JUMPI PUSH1 0x0 DUP1 REVERT JUMPDEST PUSH1 0x0 PUSH2 0x5ECA DUP6 DUP3 DUP7 ADD PUSH2 0x5CBD JUMP JUMPDEST SWAP3 POP POP PUSH1 0x20 PUSH2 0x5EDB DUP6 DUP3 DUP7 ADD PUSH2 0x5D7A JUMP JUMPDEST SWAP2 POP POP SWAP3 POP SWAP3 SWAP1 POP JUMP JUMPDEST PUSH1 0x0 PUSH1 0x20 DUP3 DUP5 SUB SLT ISZERO PUSH2 0x5EF7 JUMPI PUSH1 0x0 DUP1 REVERT JUMPDEST PUSH1 0x0 PUSH2 0x5F05 DUP5 DUP3 DUP6 ADD PUSH2 0x5CE7 JUMP JUMPDEST SWAP2 POP POP SWAP3 SWAP2 POP POP JUMP JUMPDEST PUSH1 0x0 PUSH1 0x20 DUP3 DUP5 SUB SLT ISZERO PUSH2 0x5F20 JUMPI PUSH1 0x0 DUP1 REVERT JUMPDEST PUSH1 0x0 PUSH2 0x5F2E DUP5 DUP3 DUP6 ADD PUSH2 0x5CFC JUMP JUMPDEST SWAP2 POP POP SWAP3 SWAP2 POP POP JUMP JUMPDEST PUSH1 0x0 DUP1 PUSH1 0x40 DUP4 DUP6 SUB SLT ISZERO PUSH2 0x5F4A JUMPI PUSH1 0x0 DUP1 REVERT JUMPDEST PUSH1 0x0 PUSH2 0x5F58 DUP6 DUP3 DUP7 ADD PUSH2 0x5CFC JUMP JUMPDEST SWAP3 POP POP PUSH1 0x20 PUSH2 0x5F69 DUP6 DUP3 DUP7 ADD PUSH2 0x5CBD JUMP JUMPDEST SWAP2 POP POP SWAP3 POP SWAP3 SWAP1 POP JUMP JUMPDEST PUSH1 0x0 DUP1 PUSH1 0x40 DUP4 DUP6 SUB SLT ISZERO PUSH2 0x5F86 JUMPI PUSH1 0x0 DUP1 REVERT JUMPDEST PUSH1 0x0 PUSH2 0x5F94 DUP6 DUP3 DUP7 ADD PUSH2 0x5CFC JUMP JUMPDEST SWAP3 POP POP PUSH1 0x20 PUSH2 0x5FA5 DUP6 DUP3 DUP7 ADD PUSH2 0x5D7A JUMP JUMPDEST SWAP2 POP POP SWAP3 POP SWAP3 SWAP1 POP JUMP JUMPDEST PUSH1 0x0 DUP1 PUSH1 0x40 DUP4 DUP6 SUB SLT ISZERO PUSH2 0x5FC2 JUMPI PUSH1 0x0 DUP1 REVERT JUMPDEST PUSH1 0x0 PUSH2 0x5FD0 DUP6 DUP3 DUP7 ADD PUSH2 0x5CFC JUMP JUMPDEST SWAP3 POP POP PUSH1 0x20 PUSH2 0x5FE1 DUP6 DUP3 DUP7 ADD PUSH2 0x5DA4 JUMP JUMPDEST SWAP2 POP POP SWAP3 POP SWAP3 SWAP1 POP JUMP JUMPDEST PUSH1 0x0 PUSH1 0x20 DUP3 DUP5 SUB SLT ISZERO PUSH2 0x5FFD JUMPI PUSH1 0x0 DUP1 REVERT JUMPDEST PUSH1 0x0 PUSH2 0x600B DUP5 DUP3 DUP6 ADD PUSH2 0x5D11 JUMP JUMPDEST SWAP2 POP POP SWAP3 SWAP2 POP POP JUMP JUMPDEST PUSH1 0x0 PUSH1 0x20 DUP3 DUP5 SUB SLT ISZERO PUSH2 0x6026 JUMPI PUSH1 0x0 DUP1 REVERT JUMPDEST PUSH1 0x0 PUSH2 0x6034 DUP5 DUP3 DUP6 ADD PUSH2 0x5D7A JUMP JUMPDEST SWAP2 POP POP SWAP3 SWAP2 POP POP JUMP JUMPDEST PUSH1 0x0 PUSH1 0x20 DUP3 DUP5 SUB SLT ISZERO PUSH2 0x604F JUMPI PUSH1 0x0 DUP1 REVERT JUMPDEST PUSH1 0x0 PUSH2 0x605D DUP5 DUP3 DUP6 ADD PUSH2 0x5D8F JUMP JUMPDEST SWAP2 POP POP SWAP3 SWAP2 POP POP JUMP JUMPDEST PUSH1 0x0 DUP1 PUSH1 0x0 DUP1 PUSH1 0x0 DUP1 PUSH1 0xC0 DUP8 DUP10 SUB SLT ISZERO PUSH2 0x607F JUMPI PUSH1 0x0 DUP1 REVERT JUMPDEST PUSH1 0x0 PUSH2 0x608D DUP10 DUP3 DUP11 ADD PUSH2 0x5D8F JUMP JUMPDEST SWAP7 POP POP PUSH1 0x20 DUP8 ADD MLOAD PUSH8 0xFFFFFFFFFFFFFFFF DUP2 GT ISZERO PUSH2 0x60AA JUMPI PUSH1 0x0 DUP1 REVERT JUMPDEST PUSH2 0x60B6 DUP10 DUP3 DUP11 ADD PUSH2 0x5D26 JUMP JUMPDEST SWAP6 POP POP PUSH1 0x40 DUP8 ADD MLOAD PUSH8 0xFFFFFFFFFFFFFFFF DUP2 GT ISZERO PUSH2 0x60D3 JUMPI PUSH1 0x0 DUP1 REVERT JUMPDEST PUSH2 0x60DF DUP10 DUP3 DUP11 ADD PUSH2 0x5D26 JUMP JUMPDEST SWAP5 POP POP PUSH1 0x60 PUSH2 0x60F0 DUP10 DUP3 DUP11 ADD PUSH2 0x5D8F JUMP JUMPDEST SWAP4 POP POP PUSH1 0x80 PUSH2 0x6101 DUP10 DUP3 DUP11 ADD PUSH2 0x5CD2 JUMP JUMPDEST SWAP3 POP POP PUSH1 0xA0 PUSH2 0x6112 DUP10 DUP3 DUP11 ADD PUSH2 0x5CD2 JUMP JUMPDEST SWAP2 POP POP SWAP3 SWAP6 POP SWAP3 SWAP6 POP SWAP3 SWAP6 JUMP JUMPDEST PUSH1 0x0 DUP1 PUSH1 0x40 DUP4 DUP6 SUB SLT ISZERO PUSH2 0x6132 JUMPI PUSH1 0x0 DUP1 REVERT JUMPDEST PUSH1 0x0 PUSH2 0x6140 DUP6 DUP3 DUP7 ADD PUSH2 0x5DA4 JUMP JUMPDEST SWAP3 POP POP PUSH1 0x20 PUSH2 0x6151 DUP6 DUP3 DUP7 ADD PUSH2 0x5CBD JUMP JUMPDEST SWAP2 POP POP SWAP3 POP SWAP3 SWAP1 POP JUMP JUMPDEST PUSH1 0x0 PUSH2 0x6167 DUP4 DUP4 PUSH2 0x6173 JUMP JUMPDEST PUSH1 0x20 DUP4 ADD SWAP1 POP SWAP3 SWAP2 POP POP JUMP JUMPDEST PUSH2 0x617C DUP2 PUSH2 0x6B1F JUMP JUMPDEST DUP3 MSTORE POP POP JUMP JUMPDEST PUSH2 0x618B DUP2 PUSH2 0x6B1F JUMP JUMPDEST DUP3 MSTORE POP POP JUMP JUMPDEST PUSH1 0x0 PUSH2 0x619C DUP3 PUSH2 0x6AE5 JUMP JUMPDEST PUSH2 0x61A6 DUP2 DUP6 PUSH2 0x6AFD JUMP JUMPDEST SWAP4 POP PUSH2 0x61B1 DUP4 PUSH2 0x6AD5 JUMP JUMPDEST DUP1 PUSH1 0x0 JUMPDEST DUP4 DUP2 LT ISZERO PUSH2 0x61E2 JUMPI DUP2 MLOAD PUSH2 0x61C9 DUP9 DUP3 PUSH2 0x615B JUMP JUMPDEST SWAP8 POP PUSH2 0x61D4 DUP4 PUSH2 0x6AF0 JUMP JUMPDEST SWAP3 POP POP PUSH1 0x1 DUP2 ADD SWAP1 POP PUSH2 0x61B5 JUMP JUMPDEST POP DUP6 SWAP4 POP POP POP POP SWAP3 SWAP2 POP POP JUMP JUMPDEST PUSH2 0x61F8 DUP2 PUSH2 0x6B31 JUMP JUMPDEST DUP3 MSTORE POP POP JUMP JUMPDEST PUSH2 0x6207 DUP2 PUSH2 0x6B3D JUMP JUMPDEST DUP3 MSTORE POP POP JUMP JUMPDEST PUSH2 0x6216 DUP2 PUSH2 0x6C10 JUMP JUMPDEST DUP3 MSTORE POP POP JUMP JUMPDEST PUSH2 0x6225 DUP2 PUSH2 0x6C34 JUMP JUMPDEST DUP3 MSTORE POP POP JUMP JUMPDEST PUSH2 0x6234 DUP2 PUSH2 0x6C58 JUMP JUMPDEST DUP3 MSTORE POP POP JUMP JUMPDEST PUSH2 0x6243 DUP2 PUSH2 0x6C6A JUMP JUMPDEST DUP3 MSTORE POP POP JUMP JUMPDEST PUSH2 0x6252 DUP2 PUSH2 0x6C7C JUMP JUMPDEST DUP3 MSTORE POP POP JUMP JUMPDEST PUSH2 0x6261 DUP2 PUSH2 0x6C8E JUMP JUMPDEST DUP3 MSTORE POP POP JUMP JUMPDEST PUSH2 0x6270 DUP2 PUSH2 0x6B93 JUMP JUMPDEST DUP3 MSTORE POP POP JUMP JUMPDEST PUSH2 0x627F DUP2 PUSH2 0x6CA0 JUMP JUMPDEST DUP3 MSTORE POP POP JUMP JUMPDEST PUSH1 0x0 PUSH2 0x6292 PUSH1 0x2D DUP4 PUSH2 0x6B0E JUMP JUMPDEST SWAP2 POP PUSH32 0x4F4E4C595F504F4F4C5F4F574E45525F43414E5F4154544143485F5245474953 PUSH1 0x0 DUP4 ADD MSTORE PUSH32 0x54455245445F52425F504F4F4C00000000000000000000000000000000000000 PUSH1 0x20 DUP4 ADD MSTORE PUSH1 0x40 DUP3 ADD SWAP1 POP SWAP2 SWAP1 POP JUMP JUMPDEST PUSH1 0x0 PUSH2 0x62F8 PUSH1 0x1E DUP4 PUSH2 0x6B0E JUMP JUMPDEST SWAP2 POP PUSH32 0x43414C4C45525F49535F534D4152545F434F4E54524143545F4552524F520000 PUSH1 0x0 DUP4 ADD MSTORE PUSH1 0x20 DUP3 ADD SWAP1 POP SWAP2 SWAP1 POP JUMP JUMPDEST PUSH1 0x0 PUSH2 0x6338 PUSH1 0x19 DUP4 PUSH2 0x6B0E JUMP JUMPDEST SWAP2 POP PUSH32 0x504F4F4C535F41525241595F544F4F5F4249475F4552524F5200000000000000 PUSH1 0x0 DUP4 ADD MSTORE PUSH1 0x20 DUP3 ADD SWAP1 POP SWAP2 SWAP1 POP JUMP JUMPDEST PUSH1 0x0 PUSH2 0x6378 PUSH1 0x13 DUP4 PUSH2 0x6B0E JUMP JUMPDEST SWAP2 POP PUSH32 0x43525F494E54455256414C5F494E56414C494400000000000000000000000000 PUSH1 0x0 DUP4 ADD MSTORE PUSH1 0x20 DUP3 ADD SWAP1 POP SWAP2 SWAP1 POP JUMP JUMPDEST PUSH1 0x0 PUSH2 0x63B8 PUSH1 0x14 DUP4 PUSH2 0x6B0E JUMP JUMPDEST SWAP2 POP PUSH32 0x574554485F5452414E534645525F4641494C4544000000000000000000000000 PUSH1 0x0 DUP4 ADD MSTORE PUSH1 0x20 DUP3 ADD SWAP1 POP SWAP2 SWAP1 POP JUMP JUMPDEST PUSH1 0x60 DUP3 ADD PUSH1 0x0 DUP3 ADD MLOAD PUSH2 0x6401 PUSH1 0x0 DUP6 ADD DUP3 PUSH2 0x649E JUMP JUMPDEST POP PUSH1 0x20 DUP3 ADD MLOAD PUSH2 0x6414 PUSH1 0x20 DUP6 ADD DUP3 PUSH2 0x649E JUMP JUMPDEST POP PUSH1 0x40 DUP3 ADD MLOAD PUSH2 0x6427 PUSH1 0x40 DUP6 ADD DUP3 PUSH2 0x649E JUMP JUMPDEST POP POP POP POP JUMP JUMPDEST PUSH1 0x40 DUP3 ADD PUSH1 0x0 DUP3 ADD MLOAD PUSH2 0x6443 PUSH1 0x0 DUP6 ADD DUP3 PUSH2 0x6173 JUMP JUMPDEST POP PUSH1 0x20 DUP3 ADD MLOAD PUSH2 0x6456 PUSH1 0x20 DUP6 ADD DUP3 PUSH2 0x64BC JUMP JUMPDEST POP POP POP POP JUMP JUMPDEST PUSH1 0x60 DUP3 ADD PUSH1 0x0 DUP3 ADD MLOAD PUSH2 0x6472 PUSH1 0x0 DUP6 ADD DUP3 PUSH2 0x64DA JUMP JUMPDEST POP PUSH1 0x20 DUP3 ADD MLOAD PUSH2 0x6485 PUSH1 0x20 DUP6 ADD DUP3 PUSH2 0x64F8 JUMP JUMPDEST POP PUSH1 0x40 DUP3 ADD MLOAD PUSH2 0x6498 PUSH1 0x40 DUP6 ADD DUP3 PUSH2 0x64F8 JUMP JUMPDEST POP POP POP POP JUMP JUMPDEST PUSH2 0x64A7 DUP2 PUSH2 0x6BBD JUMP JUMPDEST DUP3 MSTORE POP POP JUMP JUMPDEST PUSH2 0x64B6 DUP2 PUSH2 0x6BBD JUMP JUMPDEST DUP3 MSTORE POP POP JUMP JUMPDEST PUSH2 0x64C5 DUP2 PUSH2 0x6BC7 JUMP JUMPDEST DUP3 MSTORE POP POP JUMP JUMPDEST PUSH2 0x64D4 DUP2 PUSH2 0x6BC7 JUMP JUMPDEST DUP3 MSTORE POP POP JUMP JUMPDEST PUSH2 0x64E3 DUP2 PUSH2 0x6BD7 JUMP JUMPDEST DUP3 MSTORE POP POP JUMP JUMPDEST PUSH2 0x64F2 DUP2 PUSH2 0x6BEB JUMP JUMPDEST DUP3 MSTORE POP POP JUMP JUMPDEST PUSH2 0x6501 DUP2 PUSH2 0x6BF8 JUMP JUMPDEST DUP3 MSTORE POP POP JUMP JUMPDEST PUSH1 0x0 PUSH1 0x20 DUP3 ADD SWAP1 POP PUSH2 0x651C PUSH1 0x0 DUP4 ADD DUP5 PUSH2 0x6182 JUMP JUMPDEST SWAP3 SWAP2 POP POP JUMP JUMPDEST PUSH1 0x0 PUSH1 0x40 DUP3 ADD SWAP1 POP PUSH2 0x6537 PUSH1 0x0 DUP4 ADD DUP6 PUSH2 0x6182 JUMP JUMPDEST PUSH2 0x6544 PUSH1 0x20 DUP4 ADD DUP5 PUSH2 0x6182 JUMP JUMPDEST SWAP4 SWAP3 POP POP POP JUMP JUMPDEST PUSH1 0x0 PUSH1 0x60 DUP3 ADD SWAP1 POP PUSH2 0x6560 PUSH1 0x0 DUP4 ADD DUP7 PUSH2 0x6182 JUMP JUMPDEST PUSH2 0x656D PUSH1 0x20 DUP4 ADD DUP6 PUSH2 0x6182 JUMP JUMPDEST PUSH2 0x657A PUSH1 0x40 DUP4 ADD DUP5 PUSH2 0x64AD JUMP JUMPDEST SWAP5 SWAP4 POP POP POP POP JUMP JUMPDEST PUSH1 0x0 PUSH1 0x40 DUP3 ADD SWAP1 POP PUSH2 0x6597 PUSH1 0x0 DUP4 ADD DUP6 PUSH2 0x6182 JUMP JUMPDEST PUSH2 0x65A4 PUSH1 0x20 DUP4 ADD DUP5 PUSH2 0x61FE JUMP JUMPDEST SWAP4 SWAP3 POP POP POP JUMP JUMPDEST PUSH1 0x0 PUSH1 0x40 DUP3 ADD SWAP1 POP PUSH2 0x65C0 PUSH1 0x0 DUP4 ADD DUP6 PUSH2 0x6182 JUMP JUMPDEST PUSH2 0x65CD PUSH1 0x20 DUP4 ADD DUP5 PUSH2 0x64AD JUMP JUMPDEST SWAP4 SWAP3 POP POP POP JUMP JUMPDEST PUSH1 0x0 PUSH1 0x20 DUP3 ADD SWAP1 POP DUP2 DUP2 SUB PUSH1 0x0 DUP4 ADD MSTORE PUSH2 0x65EE DUP2 DUP5 PUSH2 0x6191 JUMP JUMPDEST SWAP1 POP SWAP3 SWAP2 POP POP JUMP JUMPDEST PUSH1 0x0 PUSH1 0x20 DUP3 ADD SWAP1 POP PUSH2 0x660B PUSH1 0x0 DUP4 ADD DUP5 PUSH2 0x61EF JUMP JUMPDEST SWAP3 SWAP2 POP POP JUMP JUMPDEST PUSH1 0x0 PUSH1 0x20 DUP3 ADD SWAP1 POP PUSH2 0x6626 PUSH1 0x0 DUP4 ADD DUP5 PUSH2 0x61FE JUMP JUMPDEST SWAP3 SWAP2 POP POP JUMP JUMPDEST PUSH1 0x0 PUSH1 0x60 DUP3 ADD SWAP1 POP PUSH2 0x6641 PUSH1 0x0 DUP4 ADD DUP7 PUSH2 0x61FE JUMP JUMPDEST PUSH2 0x664E PUSH1 0x20 DUP4 ADD DUP6 PUSH2 0x6182 JUMP JUMPDEST PUSH2 0x665B PUSH1 0x40 DUP4 ADD DUP5 PUSH2 0x64CB JUMP JUMPDEST SWAP5 SWAP4 POP POP POP POP JUMP JUMPDEST PUSH1 0x0 PUSH1 0x40 DUP3 ADD SWAP1 POP PUSH2 0x6678 PUSH1 0x0 DUP4 ADD DUP6 PUSH2 0x61FE JUMP JUMPDEST PUSH2 0x6685 PUSH1 0x20 DUP4 ADD DUP5 PUSH2 0x64AD JUMP JUMPDEST SWAP4 SWAP3 POP POP POP JUMP JUMPDEST PUSH1 0x0 PUSH1 0x20 DUP3 ADD SWAP1 POP PUSH2 0x66A1 PUSH1 0x0 DUP4 ADD DUP5 PUSH2 0x620D JUMP JUMPDEST SWAP3 SWAP2 POP POP JUMP JUMPDEST PUSH1 0x0 PUSH1 0x20 DUP3 ADD SWAP1 POP PUSH2 0x66BC PUSH1 0x0 DUP4 ADD DUP5 PUSH2 0x621C JUMP JUMPDEST SWAP3 SWAP2 POP POP JUMP JUMPDEST PUSH1 0x0 PUSH1 0x60 DUP3 ADD SWAP1 POP PUSH2 0x66D7 PUSH1 0x0 DUP4 ADD DUP7 PUSH2 0x622B JUMP JUMPDEST PUSH2 0x66E4 PUSH1 0x20 DUP4 ADD DUP6 PUSH2 0x64AD JUMP JUMPDEST PUSH2 0x66F1 PUSH1 0x40 DUP4 ADD DUP5 PUSH2 0x64AD JUMP JUMPDEST SWAP5 SWAP4 POP POP POP POP JUMP JUMPDEST PUSH1 0x0 PUSH1 0x40 DUP3 ADD SWAP1 POP PUSH2 0x670E PUSH1 0x0 DUP4 ADD DUP6 PUSH2 0x623A JUMP JUMPDEST PUSH2 0x671B PUSH1 0x20 DUP4 ADD DUP5 PUSH2 0x64AD JUMP JUMPDEST SWAP4 SWAP3 POP POP POP JUMP JUMPDEST PUSH1 0x0 PUSH1 0x40 DUP3 ADD SWAP1 POP PUSH2 0x6737 PUSH1 0x0 DUP4 ADD DUP6 PUSH2 0x6249 JUMP JUMPDEST PUSH2 0x6744 PUSH1 0x20 DUP4 ADD DUP5 PUSH2 0x6182 JUMP JUMPDEST SWAP4 SWAP3 POP POP POP JUMP JUMPDEST PUSH1 0x0 PUSH1 0x60 DUP3 ADD SWAP1 POP PUSH2 0x6760 PUSH1 0x0 DUP4 ADD DUP7 PUSH2 0x6258 JUMP JUMPDEST PUSH2 0x676D PUSH1 0x20 DUP4 ADD DUP6 PUSH2 0x61FE JUMP JUMPDEST PUSH2 0x677A PUSH1 0x40 DUP4 ADD DUP5 PUSH2 0x64CB JUMP JUMPDEST SWAP5 SWAP4 POP POP POP POP JUMP JUMPDEST PUSH1 0x0 PUSH1 0x40 DUP3 ADD SWAP1 POP PUSH2 0x6797 PUSH1 0x0 DUP4 ADD DUP6 PUSH2 0x6276 JUMP JUMPDEST PUSH2 0x67A4 PUSH1 0x20 DUP4 ADD DUP5 PUSH2 0x64AD JUMP JUMPDEST SWAP4 SWAP3 POP POP POP JUMP JUMPDEST PUSH1 0x0 PUSH1 0x20 DUP3 ADD SWAP1 POP DUP2 DUP2 SUB PUSH1 0x0 DUP4 ADD MSTORE PUSH2 0x67C4 DUP2 PUSH2 0x6285 JUMP JUMPDEST SWAP1 POP SWAP2 SWAP1 POP JUMP JUMPDEST PUSH1 0x0 PUSH1 0x20 DUP3 ADD SWAP1 POP DUP2 DUP2 SUB PUSH1 0x0 DUP4 ADD MSTORE PUSH2 0x67E4 DUP2 PUSH2 0x62EB JUMP JUMPDEST SWAP1 POP SWAP2 SWAP1 POP JUMP JUMPDEST PUSH1 0x0 PUSH1 0x20 DUP3 ADD SWAP1 POP DUP2 DUP2 SUB PUSH1 0x0 DUP4 ADD MSTORE PUSH2 0x6804 DUP2 PUSH2 0x632B JUMP JUMPDEST SWAP1 POP SWAP2 SWAP1 POP JUMP JUMPDEST PUSH1 0x0 PUSH1 0x20 DUP3 ADD SWAP1 POP DUP2 DUP2 SUB PUSH1 0x0 DUP4 ADD MSTORE PUSH2 0x6824 DUP2 PUSH2 0x636B JUMP JUMPDEST SWAP1 POP SWAP2 SWAP1 POP JUMP JUMPDEST PUSH1 0x0 PUSH1 0x20 DUP3 ADD SWAP1 POP DUP2 DUP2 SUB PUSH1 0x0 DUP4 ADD MSTORE PUSH2 0x6844 DUP2 PUSH2 0x63AB JUMP JUMPDEST SWAP1 POP SWAP2 SWAP1 POP JUMP JUMPDEST PUSH1 0x0 PUSH1 0x60 DUP3 ADD SWAP1 POP PUSH2 0x6860 PUSH1 0x0 DUP4 ADD DUP5 PUSH2 0x63EB JUMP JUMPDEST SWAP3 SWAP2 POP POP JUMP JUMPDEST PUSH1 0x0 PUSH1 0x40 DUP3 ADD SWAP1 POP PUSH2 0x687B PUSH1 0x0 DUP4 ADD DUP5 PUSH2 0x642D JUMP JUMPDEST SWAP3 SWAP2 POP POP JUMP JUMPDEST PUSH1 0x0 PUSH1 0x60 DUP3 ADD SWAP1 POP PUSH2 0x6896 PUSH1 0x0 DUP4 ADD DUP5 PUSH2 0x645C JUMP JUMPDEST SWAP3 SWAP2 POP POP JUMP JUMPDEST PUSH1 0x0 PUSH1 0x20 DUP3 ADD SWAP1 POP PUSH2 0x68B1 PUSH1 0x0 DUP4 ADD DUP5 PUSH2 0x64AD JUMP JUMPDEST SWAP3 SWAP2 POP POP JUMP JUMPDEST PUSH1 0x0 PUSH1 0x40 DUP3 ADD SWAP1 POP PUSH2 0x68CC PUSH1 0x0 DUP4 ADD DUP6 PUSH2 0x64AD JUMP JUMPDEST PUSH2 0x68D9 PUSH1 0x20 DUP4 ADD DUP5 PUSH2 0x64AD JUMP JUMPDEST SWAP4 SWAP3 POP POP POP JUMP JUMPDEST PUSH1 0x0 PUSH1 0x60 DUP3 ADD SWAP1 POP PUSH2 0x68F5 PUSH1 0x0 DUP4 ADD DUP7 PUSH2 0x64AD JUMP JUMPDEST PUSH2 0x6902 PUSH1 0x20 DUP4 ADD DUP6 PUSH2 0x64AD JUMP JUMPDEST PUSH2 0x690F PUSH1 0x40 DUP4 ADD DUP5 PUSH2 0x64AD JUMP JUMPDEST SWAP5 SWAP4 POP POP POP POP JUMP JUMPDEST PUSH1 0x0 PUSH1 0x80 DUP3 ADD SWAP1 POP PUSH2 0x692C PUSH1 0x0 DUP4 ADD DUP8 PUSH2 0x64AD JUMP JUMPDEST PUSH2 0x6939 PUSH1 0x20 DUP4 ADD DUP7 PUSH2 0x64AD JUMP JUMPDEST PUSH2 0x6946 PUSH1 0x40 DUP4 ADD DUP6 PUSH2 0x64AD JUMP JUMPDEST PUSH2 0x6953 PUSH1 0x60 DUP4 ADD DUP5 PUSH2 0x64AD JUMP JUMPDEST SWAP6 SWAP5 POP POP POP POP POP JUMP JUMPDEST PUSH1 0x0 PUSH1 0xA0 DUP3 ADD SWAP1 POP PUSH2 0x6971 PUSH1 0x0 DUP4 ADD DUP9 PUSH2 0x64AD JUMP JUMPDEST PUSH2 0x697E PUSH1 0x20 DUP4 ADD DUP8 PUSH2 0x64AD JUMP JUMPDEST PUSH2 0x698B PUSH1 0x40 DUP4 ADD DUP7 PUSH2 0x64AD JUMP JUMPDEST PUSH2 0x6998 PUSH1 0x60 DUP4 ADD DUP6 PUSH2 0x64AD JUMP JUMPDEST PUSH2 0x69A5 PUSH1 0x80 DUP4 ADD DUP5 PUSH2 0x64AD JUMP JUMPDEST SWAP7 SWAP6 POP POP POP POP POP POP JUMP JUMPDEST PUSH1 0x0 PUSH1 0x20 DUP3 ADD SWAP1 POP PUSH2 0x69C4 PUSH1 0x0 DUP4 ADD DUP5 PUSH2 0x64CB JUMP JUMPDEST SWAP3 SWAP2 POP POP JUMP JUMPDEST PUSH1 0x0 PUSH1 0x40 DUP3 ADD SWAP1 POP PUSH2 0x69DF PUSH1 0x0 DUP4 ADD DUP6 PUSH2 0x64CB JUMP JUMPDEST PUSH2 0x69EC PUSH1 0x20 DUP4 ADD DUP5 PUSH2 0x64CB JUMP JUMPDEST SWAP4 SWAP3 POP POP POP JUMP JUMPDEST PUSH1 0x0 PUSH1 0x40 DUP3 ADD SWAP1 POP PUSH2 0x6A08 PUSH1 0x0 DUP4 ADD DUP6 PUSH2 0x64E9 JUMP JUMPDEST PUSH2 0x6A15 PUSH1 0x20 DUP4 ADD DUP5 PUSH2 0x6267 JUMP JUMPDEST SWAP4 SWAP3 POP POP POP JUMP JUMPDEST PUSH1 0x0 PUSH1 0x60 DUP3 ADD SWAP1 POP PUSH2 0x6A31 PUSH1 0x0 DUP4 ADD DUP7 PUSH2 0x64E9 JUMP JUMPDEST PUSH2 0x6A3E PUSH1 0x20 DUP4 ADD DUP6 PUSH2 0x6267 JUMP JUMPDEST PUSH2 0x6A4B PUSH1 0x40 DUP4 ADD DUP5 PUSH2 0x6267 JUMP JUMPDEST SWAP5 SWAP4 POP POP POP POP JUMP JUMPDEST PUSH1 0x0 PUSH1 0x40 DUP3 ADD SWAP1 POP PUSH2 0x6A68 PUSH1 0x0 DUP4 ADD DUP6 PUSH2 0x64E9 JUMP JUMPDEST PUSH2 0x6A75 PUSH1 0x20 DUP4 ADD DUP5 PUSH2 0x64AD JUMP JUMPDEST SWAP4 SWAP3 POP POP POP JUMP JUMPDEST PUSH1 0x0 PUSH1 0x40 MLOAD SWAP1 POP DUP2 DUP2 ADD DUP2 DUP2 LT PUSH8 0xFFFFFFFFFFFFFFFF DUP3 GT OR ISZERO PUSH2 0x6A9F JUMPI PUSH1 0x0 DUP1 REVERT JUMPDEST DUP1 PUSH1 0x40 MSTORE POP SWAP2 SWAP1 POP JUMP JUMPDEST PUSH1 0x0 PUSH8 0xFFFFFFFFFFFFFFFF DUP3 GT ISZERO PUSH2 0x6AC0 JUMPI PUSH1 0x0 DUP1 REVERT JUMPDEST PUSH1 0x1F NOT PUSH1 0x1F DUP4 ADD AND SWAP1 POP PUSH1 0x20 DUP2 ADD SWAP1 POP SWAP2 SWAP1 POP JUMP JUMPDEST PUSH1 0x0 DUP2 SWAP1 POP PUSH1 0x20 DUP3 ADD SWAP1 POP SWAP2 SWAP1 POP JUMP JUMPDEST PUSH1 0x0 DUP2 MLOAD SWAP1 POP SWAP2 SWAP1 POP JUMP JUMPDEST PUSH1 0x0 PUSH1 0x20 DUP3 ADD SWAP1 POP SWAP2 SWAP1 POP JUMP JUMPDEST PUSH1 0x0 DUP3 DUP3 MSTORE PUSH1 0x20 DUP3 ADD SWAP1 POP SWAP3 SWAP2 POP POP JUMP JUMPDEST PUSH1 0x0 DUP3 DUP3 MSTORE PUSH1 0x20 DUP3 ADD SWAP1 POP SWAP3 SWAP2 POP POP JUMP JUMPDEST PUSH1 0x0 PUSH2 0x6B2A DUP3 PUSH2 0x6B9D JUMP JUMPDEST SWAP1 POP SWAP2 SWAP1 POP JUMP JUMPDEST PUSH1 0x0 DUP2 ISZERO ISZERO SWAP1 POP SWAP2 SWAP1 POP JUMP JUMPDEST PUSH1 0x0 DUP2 SWAP1 POP SWAP2 SWAP1 POP JUMP JUMPDEST PUSH1 0x0 DUP2 SWAP1 POP PUSH2 0x6B55 DUP3 PUSH2 0x6CE5 JUMP JUMPDEST SWAP2 SWAP1 POP JUMP JUMPDEST PUSH1 0x0 DUP2 SWAP1 POP PUSH2 0x6B68 DUP3 PUSH2 0x6CF2 JUMP JUMPDEST SWAP2 SWAP1 POP JUMP JUMPDEST PUSH1 0x0 DUP2 SWAP1 POP PUSH2 0x6B7B DUP3 PUSH2 0x6CFF JUMP JUMPDEST SWAP2 SWAP1 POP JUMP JUMPDEST PUSH1 0x0 DUP2 SWAP1 POP PUSH2 0x6B8E DUP3 PUSH2 0x6D0C JUMP JUMPDEST SWAP2 SWAP1 POP JUMP JUMPDEST PUSH1 0x0 DUP2 SWAP1 POP SWAP2 SWAP1 POP JUMP JUMPDEST PUSH1 0x0 PUSH20 0xFFFFFFFFFFFFFFFFFFFFFFFFFFFFFFFFFFFFFFFF DUP3 AND SWAP1 POP SWAP2 SWAP1 POP JUMP JUMPDEST PUSH1 0x0 DUP2 SWAP1 POP SWAP2 SWAP1 POP JUMP JUMPDEST PUSH1 0x0 PUSH4 0xFFFFFFFF DUP3 AND SWAP1 POP SWAP2 SWAP1 POP JUMP JUMPDEST PUSH1 0x0 PUSH8 0xFFFFFFFFFFFFFFFF DUP3 AND SWAP1 POP SWAP2 SWAP1 POP JUMP JUMPDEST PUSH1 0x0 PUSH1 0xFF DUP3 AND SWAP1 POP SWAP2 SWAP1 POP JUMP JUMPDEST PUSH1 0x0 PUSH12 0xFFFFFFFFFFFFFFFFFFFFFFFF DUP3 AND SWAP1 POP SWAP2 SWAP1 POP JUMP JUMPDEST PUSH1 0x0 PUSH2 0x6C1B DUP3 PUSH2 0x6C22 JUMP JUMPDEST SWAP1 POP SWAP2 SWAP1 POP JUMP JUMPDEST PUSH1 0x0 PUSH2 0x6C2D DUP3 PUSH2 0x6B9D JUMP JUMPDEST SWAP1 POP SWAP2 SWAP1 POP JUMP JUMPDEST PUSH1 0x0 PUSH2 0x6C3F DUP3 PUSH2 0x6C46 JUMP JUMPDEST SWAP1 POP SWAP2 SWAP1 POP JUMP JUMPDEST PUSH1 0x0 PUSH2 0x6C51 DUP3 PUSH2 0x6B9D JUMP JUMPDEST SWAP1 POP SWAP2 SWAP1 POP JUMP JUMPDEST PUSH1 0x0 PUSH2 0x6C63 DUP3 PUSH2 0x6B47 JUMP JUMPDEST SWAP1 POP SWAP2 SWAP1 POP JUMP JUMPDEST PUSH1 0x0 PUSH2 0x6C75 DUP3 PUSH2 0x6B5A JUMP JUMPDEST SWAP1 POP SWAP2 SWAP1 POP JUMP JUMPDEST PUSH1 0x0 PUSH2 0x6C87 DUP3 PUSH2 0x6B6D JUMP JUMPDEST SWAP1 POP SWAP2 SWAP1 POP JUMP JUMPDEST PUSH1 0x0 PUSH2 0x6C99 DUP3 PUSH2 0x6B80 JUMP JUMPDEST SWAP1 POP SWAP2 SWAP1 POP JUMP JUMPDEST PUSH1 0x0 PUSH2 0x6CAB DUP3 PUSH2 0x6BBD JUMP JUMPDEST SWAP1 POP SWAP2 SWAP1 POP JUMP JUMPDEST PUSH1 0x0 JUMPDEST DUP4 DUP2 LT ISZERO PUSH2 0x6CD0 JUMPI DUP1 DUP3 ADD MLOAD DUP2 DUP5 ADD MSTORE PUSH1 0x20 DUP2 ADD SWAP1 POP PUSH2 0x6CB5 JUMP JUMPDEST DUP4 DUP2 GT ISZERO PUSH2 0x6CDF JUMPI PUSH1 0x0 DUP5 DUP5 ADD MSTORE JUMPDEST POP POP POP POP JUMP JUMPDEST PUSH1 0x4 DUP2 LT PUSH2 0x6CEF JUMPI INVALID JUMPDEST POP JUMP JUMPDEST PUSH1 0x3 DUP2 LT PUSH2 0x6CFC JUMPI INVALID JUMPDEST POP JUMP JUMPDEST PUSH1 0x2 DUP2 LT PUSH2 0x6D09 JUMPI INVALID JUMPDEST POP JUMP JUMPDEST PUSH1 0x2 DUP2 LT PUSH2 0x6D16 JUMPI INVALID JUMPDEST POP JUMP JUMPDEST PUSH2 0x6D22 DUP2 PUSH2 0x6B1F JUMP JUMPDEST DUP2 EQ PUSH2 0x6D2D JUMPI PUSH1 0x0 DUP1 REVERT JUMPDEST POP JUMP JUMPDEST PUSH2 0x6D39 DUP2 PUSH2 0x6B31 JUMP JUMPDEST DUP2 EQ PUSH2 0x6D44 JUMPI PUSH1 0x0 DUP1 REVERT JUMPDEST POP JUMP JUMPDEST PUSH2 0x6D50 DUP2 PUSH2 0x6B3D JUMP JUMPDEST DUP2 EQ PUSH2 0x6D5B JUMPI PUSH1 0x0 DUP1 REVERT JUMPDEST POP JUMP JUMPDEST PUSH1 0x2 DUP2 LT PUSH2 0x6D6B JUMPI PUSH1 0x0 DUP1 REVERT JUMPDEST POP JUMP JUMPDEST PUSH2 0x6D77 DUP2 PUSH2 0x6BBD JUMP JUMPDEST DUP2 EQ PUSH2 0x6D82 JUMPI PUSH1 0x0 DUP1 REVERT JUMPDEST POP JUMP JUMPDEST PUSH2 0x6D8E DUP2 PUSH2 0x6BC7 JUMP JUMPDEST DUP2 EQ PUSH2 0x6D99 JUMPI PUSH1 0x0 DUP1 REVERT JUMPDEST POP JUMP INVALID LOG3 PUSH6 0x627A7A723158 KECCAK256 LT SWAP2 0xE1 DUP1 0xDA 0xF9 0xF MSIZE PUSH6 0xA7A9F2095130 0x49 PUSH15 0x56FC1195DAC0AB931B75BDBC6C24A PUSH13 0x6578706572696D656E74616CF5 PUSH5 0x736F6C6343 STOP SDIV GT STOP BLOCKHASH "
		},
		"gasEstimates": {
			"creation": {
				"codeDepositCost": "5625400",
				"executionCost": "27676",
				"totalCost": "5653076"
			},
			"external": {
				"addAuthorizedAddress(address)": "infinite",
				"addExchangeAddress(address)": "infinite",
				"aggregatedStatsByEpoch(uint256)": "infinite",
				"authorities(uint256)": "2402",
				"authorized(address)": "1700",
				"cobbDouglasAlphaDenominator()": "1265",
				"cobbDouglasAlphaNumerator()": "1326",
				"computeRewardBalanceOfDelegator(bytes32,address)": "infinite",
				"computeRewardBalanceOfOperator(bytes32)": "infinite",
				"createStakingPool(uint32,address)": "infinite",
				"currentEpoch()": "1262",
				"currentEpochStartTimeInSeconds()": "1219",
				"decreaseStakingPoolOperatorShare(bytes32,uint32)": "infinite",
				"endEpoch()": "infinite",
				"epochDurationInSeconds()": "1196",
				"finalizePool(bytes32)": "infinite",
				"getAuthorizedAddresses()": "infinite",
				"getCurrentEpochEarliestEndTimeInSeconds()": "infinite",
				"getGlobalStakeByStatus(uint8)": "infinite",
				"getGrgVault()": "548",
				"getOwnerStakeByStatus(address,uint8)": "infinite",
				"getStakeDelegatedToPoolByOwner(address,bytes32)": "infinite",
				"getStakingPool(bytes32)": "2888",
				"getStakingPoolStatsThisEpoch(bytes32)": "infinite",
				"getTotalStake(address)": "infinite",
				"getTotalStakeDelegatedToPool(bytes32)": "infinite",
				"getWethContract()": "483",
				"joinStakingPoolAsRbPool(bytes32,address)": "infinite",
				"lastPoolId()": "1196",
				"minimumPoolStake()": "1263",
				"owner()": "1304",
				"payProtocolFee(address,address,uint256)": "infinite",
				"poolIdByRbPool(address)": "1559",
				"poolStatsByEpoch(bytes32,uint256)": "infinite",
				"removeAuthorizedAddress(address)": "infinite",
				"removeAuthorizedAddressAtIndex(address,uint256)": "infinite",
				"removeExchangeAddress(address)": "infinite",
				"rewardDelegatedStakeWeight()": "1304",
				"rewardsByPoolId(bytes32)": "1532",
				"rigoblockOperatorPools(bytes32,uint256)": "2666",
				"stakingContract()": "1302",
				"transferOwnership(address)": "infinite",
				"validExchanges(address)": "1657",
				"wethReservedForPoolRewards()": "1218",
				"withdrawDelegatorRewards(bytes32)": "infinite"
			},
			"internal": {
				"_assertValidProtocolFee(uint256)": "infinite",
				"_computeMembersAndWeightedStake(bytes32,uint256)": "infinite"
			}
		},
		"methodIdentifiers": {
			"addAuthorizedAddress(address)": "42f1181e",
			"addExchangeAddress(address)": "8a2e271a",
			"aggregatedStatsByEpoch(uint256)": "38229d93",
			"authorities(uint256)": "494503d4",
			"authorized(address)": "b9181611",
			"cobbDouglasAlphaDenominator()": "e8eeb3f8",
			"cobbDouglasAlphaNumerator()": "81666796",
			"computeRewardBalanceOfDelegator(bytes32,address)": "e907f003",
			"computeRewardBalanceOfOperator(bytes32)": "bb7ef7e0",
			"createStakingPool(uint32,address)": "83b15f89",
			"currentEpoch()": "76671808",
			"currentEpochStartTimeInSeconds()": "587da023",
			"decreaseStakingPoolOperatorShare(bytes32,uint32)": "5d91121d",
			"endEpoch()": "0b9663db",
			"epochDurationInSeconds()": "63403801",
			"finalizePool(bytes32)": "ff691b11",
			"getAuthorizedAddresses()": "d39de6e9",
			"getCurrentEpochEarliestEndTimeInSeconds()": "b2baa33e",
			"getGlobalStakeByStatus(uint8)": "e804d0a4",
			"getGrgVault()": "e0822db7",
			"getOwnerStakeByStatus(address,uint8)": "44a6958b",
			"getStakeDelegatedToPoolByOwner(address,bytes32)": "f252b7a1",
			"getStakingPool(bytes32)": "4bcc3f67",
			"getStakingPoolStatsThisEpoch(bytes32)": "46b97959",
			"getTotalStake(address)": "1e7ff8f6",
			"getTotalStakeDelegatedToPool(bytes32)": "3e4ad732",
			"getWethContract()": "3c277fc5",
			"joinStakingPoolAsRbPool(bytes32,address)": "734fc76b",
			"lastPoolId()": "a657e579",
			"minimumPoolStake()": "a26171e2",
			"owner()": "8da5cb5b",
			"payProtocolFee(address,address,uint256)": "a3b4a327",
			"poolIdByRbPool(address)": "5e30deff",
			"poolStatsByEpoch(bytes32,uint256)": "2a94c279",
			"removeAuthorizedAddress(address)": "70712939",
			"removeAuthorizedAddressAtIndex(address,uint256)": "9ad26744",
			"removeExchangeAddress(address)": "01e28d84",
			"rewardDelegatedStakeWeight()": "e0ee036e",
			"rewardsByPoolId(bytes32)": "c18c9141",
			"rigoblockOperatorPools(bytes32,uint256)": "3cb25d34",
			"stakingContract()": "ee99205c",
			"transferOwnership(address)": "f2fde38b",
			"validExchanges(address)": "5bd4ab73",
			"wethReservedForPoolRewards()": "b0531524",
			"withdrawDelegatorRewards(bytes32)": "b510879f"
		}
	},
	"abi": [
		{
			"anonymous": false,
			"inputs": [
				{
					"indexed": true,
					"internalType": "address",
					"name": "target",
					"type": "address"
				},
				{
					"indexed": true,
					"internalType": "address",
					"name": "caller",
					"type": "address"
				}
			],
			"name": "AuthorizedAddressAdded",
			"type": "event"
		},
		{
			"anonymous": false,
			"inputs": [
				{
					"indexed": true,
					"internalType": "address",
					"name": "target",
					"type": "address"
				},
				{
					"indexed": true,
					"internalType": "address",
					"name": "caller",
					"type": "address"
				}
			],
			"name": "AuthorizedAddressRemoved",
			"type": "event"
		},
		{
			"anonymous": false,
			"inputs": [
				{
					"indexed": true,
					"internalType": "uint256",
					"name": "epoch",
					"type": "uint256"
				},
				{
					"indexed": false,
					"internalType": "uint256",
					"name": "numPoolsToFinalize",
					"type": "uint256"
				},
				{
					"indexed": false,
					"internalType": "uint256",
					"name": "rewardsAvailable",
					"type": "uint256"
				},
				{
					"indexed": false,
					"internalType": "uint256",
					"name": "totalFeesCollected",
					"type": "uint256"
				},
				{
					"indexed": false,
					"internalType": "uint256",
					"name": "totalWeightedStake",
					"type": "uint256"
				}
			],
			"name": "EpochEnded",
			"type": "event"
		},
		{
			"anonymous": false,
			"inputs": [
				{
					"indexed": true,
					"internalType": "uint256",
					"name": "epoch",
					"type": "uint256"
				},
				{
					"indexed": false,
					"internalType": "uint256",
					"name": "rewardsPaid",
					"type": "uint256"
				},
				{
					"indexed": false,
					"internalType": "uint256",
					"name": "rewardsRemaining",
					"type": "uint256"
				}
			],
			"name": "EpochFinalized",
			"type": "event"
		},
		{
			"anonymous": false,
			"inputs": [
				{
					"indexed": false,
					"internalType": "address",
					"name": "exchangeAddress",
					"type": "address"
				}
			],
			"name": "ExchangeAdded",
			"type": "event"
		},
		{
			"anonymous": false,
			"inputs": [
				{
					"indexed": false,
					"internalType": "address",
					"name": "exchangeAddress",
					"type": "address"
				}
			],
			"name": "ExchangeRemoved",
			"type": "event"
		},
		{
			"anonymous": false,
			"inputs": [
				{
					"indexed": true,
					"internalType": "address",
					"name": "staker",
					"type": "address"
				},
				{
					"indexed": false,
					"internalType": "uint256",
					"name": "amount",
					"type": "uint256"
				},
				{
					"indexed": false,
					"internalType": "uint8",
					"name": "fromStatus",
					"type": "uint8"
				},
				{
					"indexed": true,
					"internalType": "bytes32",
					"name": "fromPool",
					"type": "bytes32"
				},
				{
					"indexed": false,
					"internalType": "uint8",
					"name": "toStatus",
					"type": "uint8"
				},
				{
					"indexed": true,
					"internalType": "bytes32",
					"name": "toPool",
					"type": "bytes32"
				}
			],
			"name": "MoveStake",
			"type": "event"
		},
		{
			"anonymous": false,
			"inputs": [
				{
					"indexed": true,
					"internalType": "bytes32",
					"name": "poolId",
					"type": "bytes32"
				},
				{
					"indexed": false,
					"internalType": "uint32",
					"name": "oldOperatorShare",
					"type": "uint32"
				},
				{
					"indexed": false,
					"internalType": "uint32",
					"name": "newOperatorShare",
					"type": "uint32"
				}
			],
			"name": "OperatorShareDecreased",
			"type": "event"
		},
		{
			"anonymous": false,
			"inputs": [
				{
					"indexed": true,
					"internalType": "address",
					"name": "previousOwner",
					"type": "address"
				},
				{
					"indexed": true,
					"internalType": "address",
					"name": "newOwner",
					"type": "address"
				}
			],
			"name": "OwnershipTransferred",
			"type": "event"
		},
		{
			"anonymous": false,
			"inputs": [
				{
					"indexed": false,
					"internalType": "uint256",
					"name": "epochDurationInSeconds",
					"type": "uint256"
				},
				{
					"indexed": false,
					"internalType": "uint32",
					"name": "rewardDelegatedStakeWeight",
					"type": "uint32"
				},
				{
					"indexed": false,
					"internalType": "uint256",
					"name": "minimumPoolStake",
					"type": "uint256"
				},
				{
					"indexed": false,
					"internalType": "uint256",
					"name": "cobbDouglasAlphaNumerator",
					"type": "uint256"
				},
				{
					"indexed": false,
					"internalType": "uint256",
					"name": "cobbDouglasAlphaDenominator",
					"type": "uint256"
				}
			],
			"name": "ParamsSet",
			"type": "event"
		},
		{
			"anonymous": false,
			"inputs": [
				{
					"indexed": true,
					"internalType": "address",
					"name": "rbPoolAddress",
					"type": "address"
				},
				{
					"indexed": true,
					"internalType": "bytes32",
					"name": "poolId",
					"type": "bytes32"
				}
			],
			"name": "RbPoolStakingPoolSet",
			"type": "event"
		},
		{
			"anonymous": false,
			"inputs": [
				{
					"indexed": true,
					"internalType": "uint256",
					"name": "epoch",
					"type": "uint256"
				},
				{
					"indexed": true,
					"internalType": "bytes32",
					"name": "poolId",
					"type": "bytes32"
				},
				{
					"indexed": false,
					"internalType": "uint256",
					"name": "operatorReward",
					"type": "uint256"
				},
				{
					"indexed": false,
					"internalType": "uint256",
					"name": "membersReward",
					"type": "uint256"
				}
			],
			"name": "RewardsPaid",
			"type": "event"
		},
		{
			"anonymous": false,
			"inputs": [
				{
					"indexed": true,
					"internalType": "address",
					"name": "staker",
					"type": "address"
				},
				{
					"indexed": false,
					"internalType": "uint256",
					"name": "amount",
					"type": "uint256"
				}
			],
			"name": "Stake",
			"type": "event"
		},
		{
			"anonymous": false,
			"inputs": [
				{
					"indexed": false,
					"internalType": "bytes32",
					"name": "poolId",
					"type": "bytes32"
				},
				{
					"indexed": false,
					"internalType": "address",
					"name": "operator",
					"type": "address"
				},
				{
					"indexed": false,
					"internalType": "uint32",
					"name": "operatorShare",
					"type": "uint32"
				}
			],
			"name": "StakingPoolCreated",
			"type": "event"
		},
		{
			"anonymous": false,
			"inputs": [
				{
					"indexed": true,
					"internalType": "uint256",
					"name": "epoch",
					"type": "uint256"
				},
				{
					"indexed": true,
					"internalType": "bytes32",
					"name": "poolId",
					"type": "bytes32"
				}
			],
			"name": "StakingPoolEarnedRewardsInEpoch",
			"type": "event"
		},
		{
			"anonymous": false,
			"inputs": [
				{
					"indexed": true,
					"internalType": "address",
					"name": "staker",
					"type": "address"
				},
				{
					"indexed": false,
					"internalType": "uint256",
					"name": "amount",
					"type": "uint256"
				}
			],
			"name": "Unstake",
			"type": "event"
		},
		{
			"constant": false,
			"inputs": [
				{
					"internalType": "address",
					"name": "target",
					"type": "address"
				}
			],
			"name": "addAuthorizedAddress",
			"outputs": [],
			"payable": false,
			"stateMutability": "nonpayable",
			"type": "function"
		},
		{
			"constant": false,
			"inputs": [
				{
					"internalType": "address",
					"name": "addr",
					"type": "address"
				}
			],
			"name": "addExchangeAddress",
			"outputs": [],
			"payable": false,
			"stateMutability": "nonpayable",
			"type": "function"
		},
		{
			"constant": true,
			"inputs": [
				{
					"internalType": "uint256",
					"name": "",
					"type": "uint256"
				}
			],
			"name": "aggregatedStatsByEpoch",
			"outputs": [
				{
					"internalType": "uint256",
					"name": "rewardsAvailable",
					"type": "uint256"
				},
				{
					"internalType": "uint256",
					"name": "numPoolsToFinalize",
					"type": "uint256"
				},
				{
					"internalType": "uint256",
					"name": "totalFeesCollected",
					"type": "uint256"
				},
				{
					"internalType": "uint256",
					"name": "totalWeightedStake",
					"type": "uint256"
				},
				{
					"internalType": "uint256",
					"name": "totalRewardsFinalized",
					"type": "uint256"
				}
			],
			"payable": false,
			"stateMutability": "view",
			"type": "function"
		},
		{
			"constant": true,
			"inputs": [
				{
					"internalType": "uint256",
					"name": "",
					"type": "uint256"
				}
			],
			"name": "authorities",
			"outputs": [
				{
					"internalType": "address",
					"name": "",
					"type": "address"
				}
			],
			"payable": false,
			"stateMutability": "view",
			"type": "function"
		},
		{
			"constant": true,
			"inputs": [
				{
					"internalType": "address",
					"name": "",
					"type": "address"
				}
			],
			"name": "authorized",
			"outputs": [
				{
					"internalType": "bool",
					"name": "",
					"type": "bool"
				}
			],
			"payable": false,
			"stateMutability": "view",
			"type": "function"
		},
		{
			"constant": true,
			"inputs": [],
			"name": "cobbDouglasAlphaDenominator",
			"outputs": [
				{
					"internalType": "uint32",
					"name": "",
					"type": "uint32"
				}
			],
			"payable": false,
			"stateMutability": "view",
			"type": "function"
		},
		{
			"constant": true,
			"inputs": [],
			"name": "cobbDouglasAlphaNumerator",
			"outputs": [
				{
					"internalType": "uint32",
					"name": "",
					"type": "uint32"
				}
			],
			"payable": false,
			"stateMutability": "view",
			"type": "function"
		},
		{
			"constant": true,
			"inputs": [
				{
					"internalType": "bytes32",
					"name": "poolId",
					"type": "bytes32"
				},
				{
					"internalType": "address",
					"name": "member",
					"type": "address"
				}
			],
			"name": "computeRewardBalanceOfDelegator",
			"outputs": [
				{
					"internalType": "uint256",
					"name": "reward",
					"type": "uint256"
				}
			],
			"payable": false,
			"stateMutability": "view",
			"type": "function"
		},
		{
			"constant": true,
			"inputs": [
				{
					"internalType": "bytes32",
					"name": "poolId",
					"type": "bytes32"
				}
			],
			"name": "computeRewardBalanceOfOperator",
			"outputs": [
				{
					"internalType": "uint256",
					"name": "reward",
					"type": "uint256"
				}
			],
			"payable": false,
			"stateMutability": "view",
			"type": "function"
		},
		{
			"constant": false,
			"inputs": [
				{
					"internalType": "uint32",
					"name": "operatorShare",
					"type": "uint32"
				},
				{
					"internalType": "address",
					"name": "rigoblockPoolAddress",
					"type": "address"
				}
			],
			"name": "createStakingPool",
			"outputs": [
				{
					"internalType": "bytes32",
					"name": "poolId",
					"type": "bytes32"
				}
			],
			"payable": false,
			"stateMutability": "nonpayable",
			"type": "function"
		},
		{
			"constant": true,
			"inputs": [],
			"name": "currentEpoch",
			"outputs": [
				{
					"internalType": "uint256",
					"name": "",
					"type": "uint256"
				}
			],
			"payable": false,
			"stateMutability": "view",
			"type": "function"
		},
		{
			"constant": true,
			"inputs": [],
			"name": "currentEpochStartTimeInSeconds",
			"outputs": [
				{
					"internalType": "uint256",
					"name": "",
					"type": "uint256"
				}
			],
			"payable": false,
			"stateMutability": "view",
			"type": "function"
		},
		{
			"constant": false,
			"inputs": [
				{
					"internalType": "bytes32",
					"name": "poolId",
					"type": "bytes32"
				},
				{
					"internalType": "uint32",
					"name": "newOperatorShare",
					"type": "uint32"
				}
			],
			"name": "decreaseStakingPoolOperatorShare",
			"outputs": [],
			"payable": false,
			"stateMutability": "nonpayable",
			"type": "function"
		},
		{
			"constant": false,
			"inputs": [],
			"name": "endEpoch",
			"outputs": [
				{
					"internalType": "uint256",
					"name": "",
					"type": "uint256"
				}
			],
			"payable": false,
			"stateMutability": "nonpayable",
			"type": "function"
		},
		{
			"constant": true,
			"inputs": [],
			"name": "epochDurationInSeconds",
			"outputs": [
				{
					"internalType": "uint256",
					"name": "",
					"type": "uint256"
				}
			],
			"payable": false,
			"stateMutability": "view",
			"type": "function"
		},
		{
			"constant": false,
			"inputs": [
				{
					"internalType": "bytes32",
					"name": "poolId",
					"type": "bytes32"
				}
			],
			"name": "finalizePool",
			"outputs": [],
			"payable": false,
			"stateMutability": "nonpayable",
			"type": "function"
		},
		{
			"constant": true,
			"inputs": [],
			"name": "getAuthorizedAddresses",
			"outputs": [
				{
					"internalType": "address[]",
					"name": "",
					"type": "address[]"
				}
			],
			"payable": false,
			"stateMutability": "view",
			"type": "function"
		},
		{
			"constant": true,
			"inputs": [],
			"name": "getCurrentEpochEarliestEndTimeInSeconds",
			"outputs": [
				{
					"internalType": "uint256",
					"name": "",
					"type": "uint256"
				}
			],
			"payable": false,
			"stateMutability": "view",
			"type": "function"
		},
		{
			"constant": true,
			"inputs": [
				{
					"internalType": "enum IStructs.StakeStatus",
					"name": "stakeStatus",
					"type": "uint8"
				}
			],
			"name": "getGlobalStakeByStatus",
			"outputs": [
				{
					"components": [
						{
							"internalType": "uint64",
							"name": "currentEpoch",
							"type": "uint64"
						},
						{
							"internalType": "uint96",
							"name": "currentEpochBalance",
							"type": "uint96"
						},
						{
							"internalType": "uint96",
							"name": "nextEpochBalance",
							"type": "uint96"
						}
					],
					"internalType": "struct IStructs.StoredBalance",
					"name": "balance",
					"type": "tuple"
				}
			],
			"payable": false,
			"stateMutability": "view",
			"type": "function"
		},
		{
			"constant": true,
			"inputs": [],
			"name": "getGrgVault",
			"outputs": [
				{
					"internalType": "contract IGrgVault",
					"name": "grgVault",
					"type": "address"
				}
			],
			"payable": false,
			"stateMutability": "view",
			"type": "function"
		},
		{
			"constant": true,
			"inputs": [
				{
					"internalType": "address",
					"name": "staker",
					"type": "address"
				},
				{
					"internalType": "enum IStructs.StakeStatus",
					"name": "stakeStatus",
					"type": "uint8"
				}
			],
			"name": "getOwnerStakeByStatus",
			"outputs": [
				{
					"components": [
						{
							"internalType": "uint64",
							"name": "currentEpoch",
							"type": "uint64"
						},
						{
							"internalType": "uint96",
							"name": "currentEpochBalance",
							"type": "uint96"
						},
						{
							"internalType": "uint96",
							"name": "nextEpochBalance",
							"type": "uint96"
						}
					],
					"internalType": "struct IStructs.StoredBalance",
					"name": "balance",
					"type": "tuple"
				}
			],
			"payable": false,
			"stateMutability": "view",
			"type": "function"
		},
		{
			"constant": true,
			"inputs": [
				{
					"internalType": "address",
					"name": "staker",
					"type": "address"
				},
				{
					"internalType": "bytes32",
					"name": "poolId",
					"type": "bytes32"
				}
			],
			"name": "getStakeDelegatedToPoolByOwner",
			"outputs": [
				{
					"components": [
						{
							"internalType": "uint64",
							"name": "currentEpoch",
							"type": "uint64"
						},
						{
							"internalType": "uint96",
							"name": "currentEpochBalance",
							"type": "uint96"
						},
						{
							"internalType": "uint96",
							"name": "nextEpochBalance",
							"type": "uint96"
						}
					],
					"internalType": "struct IStructs.StoredBalance",
					"name": "balance",
					"type": "tuple"
				}
			],
			"payable": false,
			"stateMutability": "view",
			"type": "function"
		},
		{
			"constant": true,
			"inputs": [
				{
					"internalType": "bytes32",
					"name": "poolId",
					"type": "bytes32"
				}
			],
			"name": "getStakingPool",
			"outputs": [
				{
					"components": [
						{
							"internalType": "address",
							"name": "operator",
							"type": "address"
						},
						{
							"internalType": "uint32",
							"name": "operatorShare",
							"type": "uint32"
						}
					],
					"internalType": "struct IStructs.Pool",
					"name": "",
					"type": "tuple"
				}
			],
			"payable": false,
			"stateMutability": "view",
			"type": "function"
		},
		{
			"constant": true,
			"inputs": [
				{
					"internalType": "bytes32",
					"name": "poolId",
					"type": "bytes32"
				}
			],
			"name": "getStakingPoolStatsThisEpoch",
			"outputs": [
				{
					"components": [
						{
							"internalType": "uint256",
							"name": "feesCollected",
							"type": "uint256"
						},
						{
							"internalType": "uint256",
							"name": "weightedStake",
							"type": "uint256"
						},
						{
							"internalType": "uint256",
							"name": "membersStake",
							"type": "uint256"
						}
					],
					"internalType": "struct IStructs.PoolStats",
					"name": "",
					"type": "tuple"
				}
			],
			"payable": false,
			"stateMutability": "view",
			"type": "function"
		},
		{
			"constant": true,
			"inputs": [
				{
					"internalType": "address",
					"name": "staker",
					"type": "address"
				}
			],
			"name": "getTotalStake",
			"outputs": [
				{
					"internalType": "uint256",
					"name": "",
					"type": "uint256"
				}
			],
			"payable": false,
			"stateMutability": "view",
			"type": "function"
		},
		{
			"constant": true,
			"inputs": [
				{
					"internalType": "bytes32",
					"name": "poolId",
					"type": "bytes32"
				}
			],
			"name": "getTotalStakeDelegatedToPool",
			"outputs": [
				{
					"components": [
						{
							"internalType": "uint64",
							"name": "currentEpoch",
							"type": "uint64"
						},
						{
							"internalType": "uint96",
							"name": "currentEpochBalance",
							"type": "uint96"
						},
						{
							"internalType": "uint96",
							"name": "nextEpochBalance",
							"type": "uint96"
						}
					],
					"internalType": "struct IStructs.StoredBalance",
					"name": "balance",
					"type": "tuple"
				}
			],
			"payable": false,
			"stateMutability": "view",
			"type": "function"
		},
		{
			"constant": true,
			"inputs": [],
			"name": "getWethContract",
			"outputs": [
				{
					"internalType": "contract IEtherToken",
					"name": "wethContract",
					"type": "address"
				}
			],
			"payable": false,
			"stateMutability": "view",
			"type": "function"
		},
		{
			"constant": false,
			"inputs": [
				{
					"internalType": "bytes32",
					"name": "poolId",
					"type": "bytes32"
				},
				{
					"internalType": "address",
					"name": "rigoblockPoolAddress",
					"type": "address"
				}
			],
			"name": "joinStakingPoolAsRbPool",
			"outputs": [],
			"payable": false,
			"stateMutability": "nonpayable",
			"type": "function"
		},
		{
			"constant": true,
			"inputs": [],
			"name": "lastPoolId",
			"outputs": [
				{
					"internalType": "bytes32",
					"name": "",
					"type": "bytes32"
				}
			],
			"payable": false,
			"stateMutability": "view",
			"type": "function"
		},
		{
			"constant": true,
			"inputs": [],
			"name": "minimumPoolStake",
			"outputs": [
				{
					"internalType": "uint256",
					"name": "",
					"type": "uint256"
				}
			],
			"payable": false,
			"stateMutability": "view",
			"type": "function"
		},
		{
			"constant": true,
			"inputs": [],
			"name": "owner",
			"outputs": [
				{
					"internalType": "address",
					"name": "",
					"type": "address"
				}
			],
			"payable": false,
			"stateMutability": "view",
			"type": "function"
		},
		{
			"constant": false,
			"inputs": [
				{
					"internalType": "address",
					"name": "makerAddress",
					"type": "address"
				},
				{
					"internalType": "address",
					"name": "payerAddress",
					"type": "address"
				},
				{
					"internalType": "uint256",
					"name": "protocolFee",
					"type": "uint256"
				}
			],
			"name": "payProtocolFee",
			"outputs": [],
			"payable": true,
			"stateMutability": "payable",
			"type": "function"
		},
		{
			"constant": true,
			"inputs": [
				{
					"internalType": "address",
					"name": "",
					"type": "address"
				}
			],
			"name": "poolIdByRbPool",
			"outputs": [
				{
					"internalType": "bytes32",
					"name": "",
					"type": "bytes32"
				}
			],
			"payable": false,
			"stateMutability": "view",
			"type": "function"
		},
		{
			"constant": true,
			"inputs": [
				{
					"internalType": "bytes32",
					"name": "",
					"type": "bytes32"
				},
				{
					"internalType": "uint256",
					"name": "",
					"type": "uint256"
				}
			],
			"name": "poolStatsByEpoch",
			"outputs": [
				{
					"internalType": "uint256",
					"name": "feesCollected",
					"type": "uint256"
				},
				{
					"internalType": "uint256",
					"name": "weightedStake",
					"type": "uint256"
				},
				{
					"internalType": "uint256",
					"name": "membersStake",
					"type": "uint256"
				}
			],
			"payable": false,
			"stateMutability": "view",
			"type": "function"
		},
		{
			"constant": false,
			"inputs": [
				{
					"internalType": "address",
					"name": "target",
					"type": "address"
				}
			],
			"name": "removeAuthorizedAddress",
			"outputs": [],
			"payable": false,
			"stateMutability": "nonpayable",
			"type": "function"
		},
		{
			"constant": false,
			"inputs": [
				{
					"internalType": "address",
					"name": "target",
					"type": "address"
				},
				{
					"internalType": "uint256",
					"name": "index",
					"type": "uint256"
				}
			],
			"name": "removeAuthorizedAddressAtIndex",
			"outputs": [],
			"payable": false,
			"stateMutability": "nonpayable",
			"type": "function"
		},
		{
			"constant": false,
			"inputs": [
				{
					"internalType": "address",
					"name": "addr",
					"type": "address"
				}
			],
			"name": "removeExchangeAddress",
			"outputs": [],
			"payable": false,
			"stateMutability": "nonpayable",
			"type": "function"
		},
		{
			"constant": true,
			"inputs": [],
			"name": "rewardDelegatedStakeWeight",
			"outputs": [
				{
					"internalType": "uint32",
					"name": "",
					"type": "uint32"
				}
			],
			"payable": false,
			"stateMutability": "view",
			"type": "function"
		},
		{
			"constant": true,
			"inputs": [
				{
					"internalType": "bytes32",
					"name": "",
					"type": "bytes32"
				}
			],
			"name": "rewardsByPoolId",
			"outputs": [
				{
					"internalType": "uint256",
					"name": "",
					"type": "uint256"
				}
			],
			"payable": false,
			"stateMutability": "view",
			"type": "function"
		},
		{
			"constant": true,
			"inputs": [
				{
					"internalType": "bytes32",
					"name": "",
					"type": "bytes32"
				},
				{
					"internalType": "uint256",
					"name": "",
					"type": "uint256"
				}
			],
			"name": "rigoblockOperatorPools",
			"outputs": [
				{
					"internalType": "address",
					"name": "",
					"type": "address"
				}
			],
			"payable": false,
			"stateMutability": "view",
			"type": "function"
		},
		{
			"constant": true,
			"inputs": [],
			"name": "stakingContract",
			"outputs": [
				{
					"internalType": "address",
					"name": "",
					"type": "address"
				}
			],
			"payable": false,
			"stateMutability": "view",
			"type": "function"
		},
		{
			"constant": false,
			"inputs": [
				{
					"internalType": "address",
					"name": "newOwner",
					"type": "address"
				}
			],
			"name": "transferOwnership",
			"outputs": [],
			"payable": false,
			"stateMutability": "nonpayable",
			"type": "function"
		},
		{
			"constant": true,
			"inputs": [
				{
					"internalType": "address",
					"name": "",
					"type": "address"
				}
			],
			"name": "validExchanges",
			"outputs": [
				{
					"internalType": "bool",
					"name": "",
					"type": "bool"
				}
			],
			"payable": false,
			"stateMutability": "view",
			"type": "function"
		},
		{
			"constant": true,
			"inputs": [],
			"name": "wethReservedForPoolRewards",
			"outputs": [
				{
					"internalType": "uint256",
					"name": "",
					"type": "uint256"
				}
			],
			"payable": false,
			"stateMutability": "view",
			"type": "function"
		},
		{
			"constant": false,
			"inputs": [
				{
					"internalType": "bytes32",
					"name": "poolId",
					"type": "bytes32"
				}
			],
			"name": "withdrawDelegatorRewards",
			"outputs": [],
			"payable": false,
			"stateMutability": "nonpayable",
			"type": "function"
		}
	]
}