{
	"data": {
		"bytecode": {
			"linkReferences": {},
			"object": "608060405234801561001057600080fd5b5060f58061001f6000396000f3fe6080604052348015600f57600080fd5b50600436106044577c01000000000000000000000000000000000000000000000000000000006000350463c4d8f23781146049575b600080fd5b604f6063565b604051605a9190608c565b60405180910390f35b60005473ffffffffffffffffffffffffffffffffffffffff1681565b608681609e565b82525050565b6020810160988284607f565b92915050565b600073ffffffffffffffffffffffffffffffffffffffff8216609856fea265627a7a72305820c7c44de3df61fa2b582d904e91804fd337460b3157ba41331cc57aa67f489d9f6c6578706572696d656e74616cf50037",
			"opcodes": "PUSH1 0x80 PUSH1 0x40 MSTORE CALLVALUE DUP1 ISZERO PUSH2 0x10 JUMPI PUSH1 0x0 DUP1 REVERT JUMPDEST POP PUSH1 0xF5 DUP1 PUSH2 0x1F PUSH1 0x0 CODECOPY PUSH1 0x0 RETURN INVALID PUSH1 0x80 PUSH1 0x40 MSTORE CALLVALUE DUP1 ISZERO PUSH1 0xF JUMPI PUSH1 0x0 DUP1 REVERT JUMPDEST POP PUSH1 0x4 CALLDATASIZE LT PUSH1 0x44 JUMPI PUSH29 0x100000000000000000000000000000000000000000000000000000000 PUSH1 0x0 CALLDATALOAD DIV PUSH4 0xC4D8F237 DUP2 EQ PUSH1 0x49 JUMPI JUMPDEST PUSH1 0x0 DUP1 REVERT JUMPDEST PUSH1 0x4F PUSH1 0x63 JUMP JUMPDEST PUSH1 0x40 MLOAD PUSH1 0x5A SWAP2 SWAP1 PUSH1 0x8C JUMP JUMPDEST PUSH1 0x40 MLOAD DUP1 SWAP2 SUB SWAP1 RETURN JUMPDEST PUSH1 0x0 SLOAD PUSH20 0xFFFFFFFFFFFFFFFFFFFFFFFFFFFFFFFFFFFFFFFF AND DUP2 JUMP JUMPDEST PUSH1 0x86 DUP2 PUSH1 0x9E JUMP JUMPDEST DUP3 MSTORE POP POP JUMP JUMPDEST PUSH1 0x20 DUP2 ADD PUSH1 0x98 DUP3 DUP5 PUSH1 0x7F JUMP JUMPDEST SWAP3 SWAP2 POP POP JUMP JUMPDEST PUSH1 0x0 PUSH20 0xFFFFFFFFFFFFFFFFFFFFFFFFFFFFFFFFFFFFFFFF DUP3 AND PUSH1 0x98 JUMP INVALID LOG2 PUSH6 0x627A7A723058 KECCAK256 0xc7 0xc4 0x4d 0xe3 0xdf PUSH2 0xFA2B PC 0x2d SWAP1 0x4e SWAP2 DUP1 0x4f 0xd3 CALLDATACOPY 0x46 SIGNEXTEND BALANCE JUMPI 0xba COINBASE CALLER SHR 0xc5 PUSH27 0xA67F489D9F6C6578706572696D656E74616CF50037000000000000 "
		},
		"gasEstimates": {
			"creation": {
				"codeDepositCost": "49000",
				"executionCost": "99",
				"totalCost": "49099"
			},
			"external": {
				"stakingProxyAddress()": "infinite"
			}
		},
		"methodIdentifiers": {
			"stakingProxyAddress()": "c4d8f237"
		}
	},
	"abi": [
		{
			"constant": true,
			"inputs": [],
			"name": "stakingProxyAddress",
			"outputs": [
				{
					"name": "",
					"type": "address"
				}
			],
			"payable": false,
			"stateMutability": "view",
			"type": "function"
		}
	]
}