{
  "contractName": "AuthorityFace",
  "abi": [
    {
      "anonymous": false,
      "inputs": [
        {
          "indexed": true,
          "name": "authority",
          "type": "address"
        }
      ],
      "name": "SetAuthority",
      "type": "event"
    },
    {
      "anonymous": false,
      "inputs": [
        {
          "indexed": true,
          "name": "whitelister",
          "type": "address"
        }
      ],
      "name": "SetWhitelister",
      "type": "event"
    },
    {
      "anonymous": false,
      "inputs": [
        {
          "indexed": true,
          "name": "target",
          "type": "address"
        },
        {
          "indexed": false,
          "name": "approved",
          "type": "bool"
        }
      ],
      "name": "WhitelistedUser",
      "type": "event"
    },
    {
      "anonymous": false,
      "inputs": [
        {
          "indexed": true,
          "name": "asset",
          "type": "address"
        },
        {
          "indexed": false,
          "name": "approved",
          "type": "bool"
        }
      ],
      "name": "WhitelistedAsset",
      "type": "event"
    },
    {
      "anonymous": false,
      "inputs": [
        {
          "indexed": true,
          "name": "exchange",
          "type": "address"
        },
        {
          "indexed": false,
          "name": "approved",
          "type": "bool"
        }
      ],
      "name": "WhitelistedExchange",
      "type": "event"
    },
    {
      "anonymous": false,
      "inputs": [
        {
          "indexed": true,
          "name": "registry",
          "type": "address"
        },
        {
          "indexed": false,
          "name": "approved",
          "type": "bool"
        }
      ],
      "name": "WhitelistedRegistry",
      "type": "event"
    },
    {
      "anonymous": false,
      "inputs": [
        {
          "indexed": true,
          "name": "factory",
          "type": "address"
        },
        {
          "indexed": false,
          "name": "approved",
          "type": "bool"
        }
      ],
      "name": "WhitelistedFactory",
      "type": "event"
    },
    {
      "anonymous": false,
      "inputs": [
        {
          "indexed": true,
          "name": "vault",
          "type": "address"
        },
        {
          "indexed": false,
          "name": "approved",
          "type": "bool"
        }
      ],
      "name": "WhitelistedVault",
      "type": "event"
    },
    {
      "anonymous": false,
      "inputs": [
        {
          "indexed": true,
          "name": "drago",
          "type": "address"
        },
        {
          "indexed": false,
          "name": "isWhitelisted",
          "type": "bool"
        }
      ],
      "name": "WhitelistedDrago",
      "type": "event"
    },
    {
      "anonymous": false,
      "inputs": [
        {
          "indexed": true,
          "name": "dragoEventful",
          "type": "address"
        }
      ],
      "name": "NewDragoEventful",
      "type": "event"
    },
    {
      "anonymous": false,
      "inputs": [
        {
          "indexed": true,
          "name": "exchangeEventful",
          "type": "address"
        }
      ],
      "name": "NewVaultEventful",
      "type": "event"
    },
    {
      "anonymous": false,
      "inputs": [
        {
          "indexed": true,
          "name": "vaultEventful",
          "type": "address"
        }
      ],
      "name": "NewExchangeEventful",
      "type": "event"
    },
    {
      "anonymous": false,
      "inputs": [
        {
          "indexed": true,
          "name": "casper",
          "type": "address"
        }
      ],
      "name": "NewCasper",
      "type": "event"
    },
    {
      "constant": false,
      "inputs": [
        {
          "name": "_authority",
          "type": "address"
        },
        {
          "name": "_isWhitelisted",
          "type": "bool"
        }
      ],
      "name": "setAuthority",
      "outputs": [],
      "payable": false,
      "stateMutability": "nonpayable",
      "type": "function"
    },
    {
      "constant": false,
      "inputs": [
        {
          "name": "_whitelister",
          "type": "address"
        },
        {
          "name": "_isWhitelisted",
          "type": "bool"
        }
      ],
      "name": "setWhitelister",
      "outputs": [],
      "payable": false,
      "stateMutability": "nonpayable",
      "type": "function"
    },
    {
      "constant": false,
      "inputs": [
        {
          "name": "_target",
          "type": "address"
        },
        {
          "name": "_isWhitelisted",
          "type": "bool"
        }
      ],
      "name": "whitelistUser",
      "outputs": [],
      "payable": false,
      "stateMutability": "nonpayable",
      "type": "function"
    },
    {
      "constant": false,
      "inputs": [
        {
          "name": "_asset",
          "type": "address"
        },
        {
          "name": "_isWhitelisted",
          "type": "bool"
        }
      ],
      "name": "whitelistAsset",
      "outputs": [],
      "payable": false,
      "stateMutability": "nonpayable",
      "type": "function"
    },
    {
      "constant": false,
      "inputs": [
        {
          "name": "_exchange",
          "type": "address"
        },
        {
          "name": "_isWhitelisted",
          "type": "bool"
        }
      ],
      "name": "whitelistExchange",
      "outputs": [],
      "payable": false,
      "stateMutability": "nonpayable",
      "type": "function"
    },
    {
      "constant": false,
      "inputs": [
        {
          "name": "_drago",
          "type": "address"
        },
        {
          "name": "_isWhitelisted",
          "type": "bool"
        }
      ],
      "name": "whitelistDrago",
      "outputs": [],
      "payable": false,
      "stateMutability": "nonpayable",
      "type": "function"
    },
    {
      "constant": false,
      "inputs": [
        {
          "name": "_vault",
          "type": "address"
        },
        {
          "name": "_isWhitelisted",
          "type": "bool"
        }
      ],
      "name": "whitelistVault",
      "outputs": [],
      "payable": false,
      "stateMutability": "nonpayable",
      "type": "function"
    },
    {
      "constant": false,
      "inputs": [
        {
          "name": "_registry",
          "type": "address"
        },
        {
          "name": "_isWhitelisted",
          "type": "bool"
        }
      ],
      "name": "whitelistRegistry",
      "outputs": [],
      "payable": false,
      "stateMutability": "nonpayable",
      "type": "function"
    },
    {
      "constant": false,
      "inputs": [
        {
          "name": "_factory",
          "type": "address"
        },
        {
          "name": "_isWhitelisted",
          "type": "bool"
        }
      ],
      "name": "whitelistFactory",
      "outputs": [],
      "payable": false,
      "stateMutability": "nonpayable",
      "type": "function"
    },
    {
      "constant": false,
      "inputs": [
        {
          "name": "_dragoEventful",
          "type": "address"
        }
      ],
      "name": "setDragoEventful",
      "outputs": [],
      "payable": false,
      "stateMutability": "nonpayable",
      "type": "function"
    },
    {
      "constant": false,
      "inputs": [
        {
          "name": "_vaultEventful",
          "type": "address"
        }
      ],
      "name": "setVaultEventful",
      "outputs": [],
      "payable": false,
      "stateMutability": "nonpayable",
      "type": "function"
    },
    {
      "constant": false,
      "inputs": [
        {
          "name": "_exchangeEventful",
          "type": "address"
        }
      ],
      "name": "setExchangeEventful",
      "outputs": [],
      "payable": false,
      "stateMutability": "nonpayable",
      "type": "function"
    },
    {
      "constant": false,
      "inputs": [
        {
          "name": "_exchange",
          "type": "address"
        },
        {
          "name": "_adapter",
          "type": "address"
        }
      ],
      "name": "setExchangeAdapter",
      "outputs": [],
      "payable": false,
      "stateMutability": "nonpayable",
      "type": "function"
    },
    {
      "constant": false,
      "inputs": [
        {
          "name": "_casper",
          "type": "address"
        }
      ],
      "name": "setCasper",
      "outputs": [],
      "payable": false,
      "stateMutability": "nonpayable",
      "type": "function"
    },
    {
      "constant": true,
      "inputs": [
        {
          "name": "_target",
          "type": "address"
        }
      ],
      "name": "isWhitelistedUser",
      "outputs": [
        {
          "name": "",
          "type": "bool"
        }
      ],
      "payable": false,
      "stateMutability": "view",
      "type": "function"
    },
    {
      "constant": true,
      "inputs": [
        {
          "name": "_whitelister",
          "type": "address"
        }
      ],
      "name": "isWhitelister",
      "outputs": [
        {
          "name": "",
          "type": "bool"
        }
      ],
      "payable": false,
      "stateMutability": "view",
      "type": "function"
    },
    {
      "constant": true,
      "inputs": [
        {
          "name": "_authority",
          "type": "address"
        }
      ],
      "name": "isAuthority",
      "outputs": [
        {
          "name": "",
          "type": "bool"
        }
      ],
      "payable": false,
      "stateMutability": "view",
      "type": "function"
    },
    {
      "constant": true,
      "inputs": [
        {
          "name": "_asset",
          "type": "address"
        }
      ],
      "name": "isWhitelistedAsset",
      "outputs": [
        {
          "name": "",
          "type": "bool"
        }
      ],
      "payable": false,
      "stateMutability": "view",
      "type": "function"
    },
    {
      "constant": true,
      "inputs": [
        {
          "name": "_exchange",
          "type": "address"
        }
      ],
      "name": "isWhitelistedExchange",
      "outputs": [
        {
          "name": "",
          "type": "bool"
        }
      ],
      "payable": false,
      "stateMutability": "view",
      "type": "function"
    },
    {
      "constant": true,
      "inputs": [
        {
          "name": "_registry",
          "type": "address"
        }
      ],
      "name": "isWhitelistedRegistry",
      "outputs": [
        {
          "name": "",
          "type": "bool"
        }
      ],
      "payable": false,
      "stateMutability": "view",
      "type": "function"
    },
    {
      "constant": true,
      "inputs": [
        {
          "name": "_drago",
          "type": "address"
        }
      ],
      "name": "isWhitelistedDrago",
      "outputs": [
        {
          "name": "",
          "type": "bool"
        }
      ],
      "payable": false,
      "stateMutability": "view",
      "type": "function"
    },
    {
      "constant": true,
      "inputs": [
        {
          "name": "_vault",
          "type": "address"
        }
      ],
      "name": "isWhitelistedVault",
      "outputs": [
        {
          "name": "",
          "type": "bool"
        }
      ],
      "payable": false,
      "stateMutability": "view",
      "type": "function"
    },
    {
      "constant": true,
      "inputs": [
        {
          "name": "_factory",
          "type": "address"
        }
      ],
      "name": "isWhitelistedFactory",
      "outputs": [
        {
          "name": "",
          "type": "bool"
        }
      ],
      "payable": false,
      "stateMutability": "view",
      "type": "function"
    },
    {
      "constant": true,
      "inputs": [],
      "name": "getDragoEventful",
      "outputs": [
        {
          "name": "",
          "type": "address"
        }
      ],
      "payable": false,
      "stateMutability": "view",
      "type": "function"
    },
    {
      "constant": true,
      "inputs": [],
      "name": "getVaultEventful",
      "outputs": [
        {
          "name": "",
          "type": "address"
        }
      ],
      "payable": false,
      "stateMutability": "view",
      "type": "function"
    },
    {
      "constant": true,
      "inputs": [],
      "name": "getExchangeEventful",
      "outputs": [
        {
          "name": "",
          "type": "address"
        }
      ],
      "payable": false,
      "stateMutability": "view",
      "type": "function"
    },
    {
      "constant": true,
      "inputs": [],
      "name": "getCasper",
      "outputs": [
        {
          "name": "",
          "type": "address"
        }
      ],
      "payable": false,
      "stateMutability": "view",
      "type": "function"
    },
    {
      "constant": true,
      "inputs": [],
      "name": "getOwner",
      "outputs": [
        {
          "name": "",
          "type": "address"
        }
      ],
      "payable": false,
      "stateMutability": "view",
      "type": "function"
    },
    {
      "constant": true,
      "inputs": [
        {
          "name": "_exchange",
          "type": "address"
        }
      ],
      "name": "getExchangeAdapter",
      "outputs": [
        {
          "name": "",
          "type": "address"
        }
      ],
      "payable": false,
      "stateMutability": "view",
      "type": "function"
    },
    {
      "constant": true,
      "inputs": [
        {
          "name": "_group",
          "type": "string"
        }
      ],
      "name": "getListsByGroups",
      "outputs": [
        {
          "name": "",
          "type": "address[]"
        }
      ],
      "payable": false,
      "stateMutability": "view",
      "type": "function"
    }
  ],
  "bytecode": "0x6060604052341561000f57600080fd5b6103be8061001e6000396000f30060606040526004361061017f5763ffffffff7c0100000000000000000000000000000000000000000000000000000000600035041663088f47ee81146101845780631610ac4d146101c05780632314d79c146101845780632330f247146101ee57806326c7a0de1461018457806336f8dc89146101845780633f7532e2146101c057806344938900146101ee578063485ff6971461022e5780636e5711671461025a578063770f434f146101c05780637b9d4d261461025a5780637d0c269f146101ee578063893d20e8146101845780639aa4d0a0146101ee5780639e2de32d146101ee578063a0ca3ee11461025a578063a2ce2773146101ee578063a32541021461025a578063ab1dc427146101ee578063ad562f401461025a578063b191f13b146101c0578063b5f0d35c1461025a578063c4ef5c851461028b578063c91b01491461025a578063cba91dd21461025a578063d88c271e146101ee578063dcb7a3e0146101ee578063e2294065146102bd578063e6e66c681461025a575b600080fd5b341561018f57600080fd5b610197610361565b60405173ffffffffffffffffffffffffffffffffffffffff909116815260200160405180910390f35b34156101cb57600080fd5b6101ec73ffffffffffffffffffffffffffffffffffffffff60043516610366565b005b34156101f957600080fd5b61021a73ffffffffffffffffffffffffffffffffffffffff60043516610369565b604051901515815260200160405180910390f35b341561023957600080fd5b61019773ffffffffffffffffffffffffffffffffffffffff60043516610369565b341561026557600080fd5b6101ec73ffffffffffffffffffffffffffffffffffffffff60043516602435151561036f565b341561029657600080fd5b6101ec73ffffffffffffffffffffffffffffffffffffffff6004358116906024351661036f565b34156102c857600080fd5b61030e60046024813581810190830135806020601f8201819004810201604051908101604052818152929190602084018383808284375094965061037395505050505050565b60405160208082528190810183818151815260200191508051906020019060200280838360005b8381101561034d578082015183820152602001610335565b505050509050019250505060405180910390f35b600090565b50565b50600090565b5050565b61037b610380565b919050565b602060405190810160405260008152905600a165627a7a7230582069e1a1483d4b93f7e298a6dc7ae6df633fcd595158d1cc3f74b90eac653172990029",
  "source": "/*\n\n Copyright 2017-2018 RigoBlock, Rigo Investment Sagl.\n\n Licensed under the Apache License, Version 2.0 (the \"License\");\n you may not use this file except in compliance with the License.\n You may obtain a copy of the License at\n\n     http://www.apache.org/licenses/LICENSE-2.0\n\n Unless required by applicable law or agreed to in writing, software\n distributed under the License is distributed on an \"AS IS\" BASIS,\n WITHOUT WARRANTIES OR CONDITIONS OF ANY KIND, either express or implied.\n See the License for the specific language governing permissions and\n limitations under the License.\n\n*/\n\npragma solidity ^0.4.20;\n\n/// @title Authority Interface - Allows interaction with the Authority contract.\n/// @author Gabriele Rigo - <gab@rigoblock.com>\ncontract AuthorityFace {\n\n    // EVENTS\n\n    event SetAuthority (address indexed authority);\n    event SetWhitelister (address indexed whitelister);\n    event WhitelistedUser(address indexed target, bool approved);\n    event WhitelistedAsset(address indexed asset, bool approved);\n    event WhitelistedExchange(address indexed exchange, bool approved);\n    event WhitelistedRegistry(address indexed registry, bool approved);\n    event WhitelistedFactory(address indexed factory, bool approved);\n    event WhitelistedVault(address indexed vault, bool approved);\n    event WhitelistedDrago(address indexed drago, bool isWhitelisted);\n    event NewDragoEventful(address indexed dragoEventful);\n    event NewVaultEventful(address indexed exchangeEventful);\n    event NewExchangeEventful(address indexed vaultEventful);\n    event NewCasper(address indexed casper);\n\n    // CORE FUNCTIONS\n\n    function setAuthority(address _authority, bool _isWhitelisted) public {}\n    function setWhitelister(address _whitelister, bool _isWhitelisted) public {}\n    function whitelistUser(address _target, bool _isWhitelisted) public {}\n    function whitelistAsset(address _asset, bool _isWhitelisted) public {}\n    function whitelistExchange(address _exchange, bool _isWhitelisted) public {}\n    function whitelistDrago(address _drago, bool _isWhitelisted) public {}\n    function whitelistVault(address _vault, bool _isWhitelisted) public {}\n    function whitelistRegistry(address _registry, bool _isWhitelisted) public {}\n    function whitelistFactory(address _factory, bool _isWhitelisted) public {}\n    function setDragoEventful(address _dragoEventful) public {}\n    function setVaultEventful(address _vaultEventful) public {}\n    function setExchangeEventful(address _exchangeEventful) public {}\n    function setExchangeAdapter(address _exchange, address _adapter) public {}\n    function setCasper(address _casper) public {}\n\n    function isWhitelistedUser(address _target) public view returns (bool) {}\n    function isWhitelister(address _whitelister) public view returns (bool) {}\n    function isAuthority(address _authority) public view returns (bool) {}\n    function isWhitelistedAsset(address _asset) public view returns (bool) {}\n    function isWhitelistedExchange(address _exchange) public view returns (bool) {}\n    function isWhitelistedRegistry(address _registry) public view returns (bool) {}\n    function isWhitelistedDrago(address _drago) public view returns (bool) {}\n    function isWhitelistedVault(address _vault) public view returns (bool) {}\n    function isWhitelistedFactory(address _factory) public view returns (bool) {}\n    function getDragoEventful() public view returns (address) {}\n    function getVaultEventful() public view returns (address) {}\n    function getExchangeEventful() public view returns (address) {}\n    function getCasper() public view returns (address) {}\n    function getOwner() public view returns (address) {}\n    function getExchangeAdapter(address _exchange) public view returns (address) {}\n    function getListsByGroups(string _group) public view returns (address[]) {}\n}\n",
  "sourcePath": "/home/gab/truffle/contracts/contracts/Authority/AuthorityFace.sol",
  "compiler": {
    "name": "solc",
    "version": "0.4.19+commit.c4cbbb05.Emscripten.clang"
  },
  "schemaVersion": "2.0.0",
  "updatedAt": "2018-03-05T21:28:04.003Z"
}