{
  "contractName": "AuthorityFace",
  "abi": [
    {
      "anonymous": false,
      "inputs": [
        {
          "indexed": true,
          "name": "authority",
          "type": "address"
        }
      ],
      "name": "SetAuthority",
      "type": "event"
    },
    {
      "anonymous": false,
      "inputs": [
        {
          "indexed": true,
          "name": "whitelister",
          "type": "address"
        }
      ],
      "name": "SetWhitelister",
      "type": "event"
    },
    {
      "anonymous": false,
      "inputs": [
        {
          "indexed": true,
          "name": "target",
          "type": "address"
        },
        {
          "indexed": false,
          "name": "approved",
          "type": "bool"
        }
      ],
      "name": "WhitelistedUser",
      "type": "event"
    },
    {
      "anonymous": false,
      "inputs": [
        {
          "indexed": true,
          "name": "asset",
          "type": "address"
        },
        {
          "indexed": false,
          "name": "approved",
          "type": "bool"
        }
      ],
      "name": "WhitelistedAsset",
      "type": "event"
    },
    {
      "anonymous": false,
      "inputs": [
        {
          "indexed": true,
          "name": "exchange",
          "type": "address"
        },
        {
          "indexed": false,
          "name": "approved",
          "type": "bool"
        }
      ],
      "name": "WhitelistedExchange",
      "type": "event"
    },
    {
      "anonymous": false,
      "inputs": [
        {
          "indexed": true,
          "name": "registry",
          "type": "address"
        },
        {
          "indexed": false,
          "name": "approved",
          "type": "bool"
        }
      ],
      "name": "WhitelistedRegistry",
      "type": "event"
    },
    {
      "anonymous": false,
      "inputs": [
        {
          "indexed": true,
          "name": "factory",
          "type": "address"
        },
        {
          "indexed": false,
          "name": "approved",
          "type": "bool"
        }
      ],
      "name": "WhitelistedFactory",
      "type": "event"
    },
    {
      "anonymous": false,
      "inputs": [
        {
          "indexed": true,
          "name": "vault",
          "type": "address"
        },
        {
          "indexed": false,
          "name": "approved",
          "type": "bool"
        }
      ],
      "name": "WhitelistedVault",
      "type": "event"
    },
    {
      "anonymous": false,
      "inputs": [
        {
          "indexed": true,
          "name": "drago",
          "type": "address"
        },
        {
          "indexed": false,
          "name": "isWhitelisted",
          "type": "bool"
        }
      ],
      "name": "WhitelistedDrago",
      "type": "event"
    },
    {
      "anonymous": false,
      "inputs": [
        {
          "indexed": true,
          "name": "dragoEventful",
          "type": "address"
        }
      ],
      "name": "NewDragoEventful",
      "type": "event"
    },
    {
      "anonymous": false,
      "inputs": [
        {
          "indexed": true,
          "name": "exchangeEventful",
          "type": "address"
        }
      ],
      "name": "NewVaultEventful",
      "type": "event"
    },
    {
      "anonymous": false,
      "inputs": [
        {
          "indexed": true,
          "name": "vaultEventful",
          "type": "address"
        }
      ],
      "name": "NewExchangeEventful",
      "type": "event"
    },
    {
      "anonymous": false,
      "inputs": [
        {
          "indexed": true,
          "name": "casper",
          "type": "address"
        }
      ],
      "name": "NewCasper",
      "type": "event"
    },
    {
      "constant": false,
      "inputs": [
        {
          "name": "_authority",
          "type": "address"
        },
        {
          "name": "_isWhitelisted",
          "type": "bool"
        }
      ],
      "name": "setAuthority",
      "outputs": [],
      "payable": false,
      "stateMutability": "nonpayable",
      "type": "function"
    },
    {
      "constant": false,
      "inputs": [
        {
          "name": "_whitelister",
          "type": "address"
        },
        {
          "name": "_isWhitelisted",
          "type": "bool"
        }
      ],
      "name": "setWhitelister",
      "outputs": [],
      "payable": false,
      "stateMutability": "nonpayable",
      "type": "function"
    },
    {
      "constant": false,
      "inputs": [
        {
          "name": "_target",
          "type": "address"
        },
        {
          "name": "_isWhitelisted",
          "type": "bool"
        }
      ],
      "name": "whitelistUser",
      "outputs": [],
      "payable": false,
      "stateMutability": "nonpayable",
      "type": "function"
    },
    {
      "constant": false,
      "inputs": [
        {
          "name": "_asset",
          "type": "address"
        },
        {
          "name": "_isWhitelisted",
          "type": "bool"
        }
      ],
      "name": "whitelistAsset",
      "outputs": [],
      "payable": false,
      "stateMutability": "nonpayable",
      "type": "function"
    },
    {
      "constant": false,
      "inputs": [
        {
          "name": "_exchange",
          "type": "address"
        },
        {
          "name": "_isWhitelisted",
          "type": "bool"
        }
      ],
      "name": "whitelistExchange",
      "outputs": [],
      "payable": false,
      "stateMutability": "nonpayable",
      "type": "function"
    },
    {
      "constant": false,
      "inputs": [
        {
          "name": "_drago",
          "type": "address"
        },
        {
          "name": "_isWhitelisted",
          "type": "bool"
        }
      ],
      "name": "whitelistDrago",
      "outputs": [],
      "payable": false,
      "stateMutability": "nonpayable",
      "type": "function"
    },
    {
      "constant": false,
      "inputs": [
        {
          "name": "_vault",
          "type": "address"
        },
        {
          "name": "_isWhitelisted",
          "type": "bool"
        }
      ],
      "name": "whitelistVault",
      "outputs": [],
      "payable": false,
      "stateMutability": "nonpayable",
      "type": "function"
    },
    {
      "constant": false,
      "inputs": [
        {
          "name": "_registry",
          "type": "address"
        },
        {
          "name": "_isWhitelisted",
          "type": "bool"
        }
      ],
      "name": "whitelistRegistry",
      "outputs": [],
      "payable": false,
      "stateMutability": "nonpayable",
      "type": "function"
    },
    {
      "constant": false,
      "inputs": [
        {
          "name": "_factory",
          "type": "address"
        },
        {
          "name": "_isWhitelisted",
          "type": "bool"
        }
      ],
      "name": "whitelistFactory",
      "outputs": [],
      "payable": false,
      "stateMutability": "nonpayable",
      "type": "function"
    },
    {
      "constant": false,
      "inputs": [
        {
          "name": "_dragoEventful",
          "type": "address"
        }
      ],
      "name": "setDragoEventful",
      "outputs": [],
      "payable": false,
      "stateMutability": "nonpayable",
      "type": "function"
    },
    {
      "constant": false,
      "inputs": [
        {
          "name": "_vaultEventful",
          "type": "address"
        }
      ],
      "name": "setVaultEventful",
      "outputs": [],
      "payable": false,
      "stateMutability": "nonpayable",
      "type": "function"
    },
    {
      "constant": false,
      "inputs": [
        {
          "name": "_exchangeEventful",
          "type": "address"
        }
      ],
      "name": "setExchangeEventful",
      "outputs": [],
      "payable": false,
      "stateMutability": "nonpayable",
      "type": "function"
    },
    {
      "constant": false,
      "inputs": [
        {
          "name": "_exchange",
          "type": "address"
        },
        {
          "name": "_adapter",
          "type": "address"
        }
      ],
      "name": "setExchangeAdapter",
      "outputs": [],
      "payable": false,
      "stateMutability": "nonpayable",
      "type": "function"
    },
    {
      "constant": false,
      "inputs": [
        {
          "name": "_casper",
          "type": "address"
        }
      ],
      "name": "setCasper",
      "outputs": [],
      "payable": false,
      "stateMutability": "nonpayable",
      "type": "function"
    },
    {
      "constant": true,
      "inputs": [
        {
          "name": "_target",
          "type": "address"
        }
      ],
      "name": "isWhitelistedUser",
      "outputs": [
        {
          "name": "",
          "type": "bool"
        }
      ],
      "payable": false,
      "stateMutability": "view",
      "type": "function"
    },
    {
      "constant": true,
      "inputs": [
        {
          "name": "_whitelister",
          "type": "address"
        }
      ],
      "name": "isWhitelister",
      "outputs": [
        {
          "name": "",
          "type": "bool"
        }
      ],
      "payable": false,
      "stateMutability": "view",
      "type": "function"
    },
    {
      "constant": true,
      "inputs": [
        {
          "name": "_authority",
          "type": "address"
        }
      ],
      "name": "isAuthority",
      "outputs": [
        {
          "name": "",
          "type": "bool"
        }
      ],
      "payable": false,
      "stateMutability": "view",
      "type": "function"
    },
    {
      "constant": true,
      "inputs": [
        {
          "name": "_asset",
          "type": "address"
        }
      ],
      "name": "isWhitelistedAsset",
      "outputs": [
        {
          "name": "",
          "type": "bool"
        }
      ],
      "payable": false,
      "stateMutability": "view",
      "type": "function"
    },
    {
      "constant": true,
      "inputs": [
        {
          "name": "_exchange",
          "type": "address"
        }
      ],
      "name": "isWhitelistedExchange",
      "outputs": [
        {
          "name": "",
          "type": "bool"
        }
      ],
      "payable": false,
      "stateMutability": "view",
      "type": "function"
    },
    {
      "constant": true,
      "inputs": [
        {
          "name": "_registry",
          "type": "address"
        }
      ],
      "name": "isWhitelistedRegistry",
      "outputs": [
        {
          "name": "",
          "type": "bool"
        }
      ],
      "payable": false,
      "stateMutability": "view",
      "type": "function"
    },
    {
      "constant": true,
      "inputs": [
        {
          "name": "_drago",
          "type": "address"
        }
      ],
      "name": "isWhitelistedDrago",
      "outputs": [
        {
          "name": "",
          "type": "bool"
        }
      ],
      "payable": false,
      "stateMutability": "view",
      "type": "function"
    },
    {
      "constant": true,
      "inputs": [
        {
          "name": "_vault",
          "type": "address"
        }
      ],
      "name": "isWhitelistedVault",
      "outputs": [
        {
          "name": "",
          "type": "bool"
        }
      ],
      "payable": false,
      "stateMutability": "view",
      "type": "function"
    },
    {
      "constant": true,
      "inputs": [
        {
          "name": "_factory",
          "type": "address"
        }
      ],
      "name": "isWhitelistedFactory",
      "outputs": [
        {
          "name": "",
          "type": "bool"
        }
      ],
      "payable": false,
      "stateMutability": "view",
      "type": "function"
    },
    {
      "constant": true,
      "inputs": [],
      "name": "getDragoEventful",
      "outputs": [
        {
          "name": "",
          "type": "address"
        }
      ],
      "payable": false,
      "stateMutability": "view",
      "type": "function"
    },
    {
      "constant": true,
      "inputs": [],
      "name": "getVaultEventful",
      "outputs": [
        {
          "name": "",
          "type": "address"
        }
      ],
      "payable": false,
      "stateMutability": "view",
      "type": "function"
    },
    {
      "constant": true,
      "inputs": [],
      "name": "getExchangeEventful",
      "outputs": [
        {
          "name": "",
          "type": "address"
        }
      ],
      "payable": false,
      "stateMutability": "view",
      "type": "function"
    },
    {
      "constant": true,
      "inputs": [],
      "name": "getCasper",
      "outputs": [
        {
          "name": "",
          "type": "address"
        }
      ],
      "payable": false,
      "stateMutability": "view",
      "type": "function"
    },
    {
      "constant": true,
      "inputs": [],
      "name": "getOwner",
      "outputs": [
        {
          "name": "",
          "type": "address"
        }
      ],
      "payable": false,
      "stateMutability": "view",
      "type": "function"
    },
    {
      "constant": true,
      "inputs": [
        {
          "name": "_exchange",
          "type": "address"
        }
      ],
      "name": "getExchangeAdapter",
      "outputs": [
        {
          "name": "",
          "type": "address"
        }
      ],
      "payable": false,
      "stateMutability": "view",
      "type": "function"
    },
    {
      "constant": true,
      "inputs": [
        {
          "name": "_group",
          "type": "string"
        }
      ],
      "name": "getListsByGroups",
      "outputs": [
        {
          "name": "",
          "type": "address[]"
        }
      ],
      "payable": false,
      "stateMutability": "view",
      "type": "function"
    }
  ],
  "bytecode": "0x6060604052341561000f57600080fd5b610bb28061001e6000396000f300606060405260043610610180576000357c0100000000000000000000000000000000000000000000000000000000900463ffffffff168063088f47ee146101855780631610ac4d146101da5780632314d79c146102135780632330f2471461026857806326c7a0de146102b957806336f8dc891461030e5780633f7532e214610363578063449389001461039c578063485ff697146103ed5780636e57116714610466578063770f434f146104aa5780637b9d4d26146104e35780637d0c269f14610527578063893d20e8146105785780639aa4d0a0146105cd5780639e2de32d1461061e578063a0ca3ee11461066f578063a2ce2773146106b3578063a325410214610704578063ab1dc42714610748578063ad562f4014610799578063b191f13b146107dd578063b5f0d35c14610816578063c4ef5c851461085a578063c91b0149146108b2578063cba91dd2146108f6578063d88c271e1461093a578063dcb7a3e01461098b578063e2294065146109dc578063e6e66c6814610a8e575b600080fd5b341561019057600080fd5b610198610ad2565b604051808273ffffffffffffffffffffffffffffffffffffffff1673ffffffffffffffffffffffffffffffffffffffff16815260200191505060405180910390f35b34156101e557600080fd5b610211600480803573ffffffffffffffffffffffffffffffffffffffff16906020019091905050610ad7565b005b341561021e57600080fd5b610226610ada565b604051808273ffffffffffffffffffffffffffffffffffffffff1673ffffffffffffffffffffffffffffffffffffffff16815260200191505060405180910390f35b341561027357600080fd5b61029f600480803573ffffffffffffffffffffffffffffffffffffffff16906020019091905050610adf565b604051808215151515815260200191505060405180910390f35b34156102c457600080fd5b6102cc610ae6565b604051808273ffffffffffffffffffffffffffffffffffffffff1673ffffffffffffffffffffffffffffffffffffffff16815260200191505060405180910390f35b341561031957600080fd5b610321610aeb565b604051808273ffffffffffffffffffffffffffffffffffffffff1673ffffffffffffffffffffffffffffffffffffffff16815260200191505060405180910390f35b341561036e57600080fd5b61039a600480803573ffffffffffffffffffffffffffffffffffffffff16906020019091905050610af0565b005b34156103a757600080fd5b6103d3600480803573ffffffffffffffffffffffffffffffffffffffff16906020019091905050610af3565b604051808215151515815260200191505060405180910390f35b34156103f857600080fd5b610424600480803573ffffffffffffffffffffffffffffffffffffffff16906020019091905050610afa565b604051808273ffffffffffffffffffffffffffffffffffffffff1673ffffffffffffffffffffffffffffffffffffffff16815260200191505060405180910390f35b341561047157600080fd5b6104a8600480803573ffffffffffffffffffffffffffffffffffffffff169060200190919080351515906020019091905050610b01565b005b34156104b557600080fd5b6104e1600480803573ffffffffffffffffffffffffffffffffffffffff16906020019091905050610b05565b005b34156104ee57600080fd5b610525600480803573ffffffffffffffffffffffffffffffffffffffff169060200190919080351515906020019091905050610b08565b005b341561053257600080fd5b61055e600480803573ffffffffffffffffffffffffffffffffffffffff16906020019091905050610b0c565b604051808215151515815260200191505060405180910390f35b341561058357600080fd5b61058b610b13565b604051808273ffffffffffffffffffffffffffffffffffffffff1673ffffffffffffffffffffffffffffffffffffffff16815260200191505060405180910390f35b34156105d857600080fd5b610604600480803573ffffffffffffffffffffffffffffffffffffffff16906020019091905050610b18565b604051808215151515815260200191505060405180910390f35b341561062957600080fd5b610655600480803573ffffffffffffffffffffffffffffffffffffffff16906020019091905050610b1f565b604051808215151515815260200191505060405180910390f35b341561067a57600080fd5b6106b1600480803573ffffffffffffffffffffffffffffffffffffffff169060200190919080351515906020019091905050610b26565b005b34156106be57600080fd5b6106ea600480803573ffffffffffffffffffffffffffffffffffffffff16906020019091905050610b2a565b604051808215151515815260200191505060405180910390f35b341561070f57600080fd5b610746600480803573ffffffffffffffffffffffffffffffffffffffff169060200190919080351515906020019091905050610b31565b005b341561075357600080fd5b61077f600480803573ffffffffffffffffffffffffffffffffffffffff16906020019091905050610b35565b604051808215151515815260200191505060405180910390f35b34156107a457600080fd5b6107db600480803573ffffffffffffffffffffffffffffffffffffffff169060200190919080351515906020019091905050610b3c565b005b34156107e857600080fd5b610814600480803573ffffffffffffffffffffffffffffffffffffffff16906020019091905050610b40565b005b341561082157600080fd5b610858600480803573ffffffffffffffffffffffffffffffffffffffff169060200190919080351515906020019091905050610b43565b005b341561086557600080fd5b6108b0600480803573ffffffffffffffffffffffffffffffffffffffff1690602001909190803573ffffffffffffffffffffffffffffffffffffffff16906020019091905050610b47565b005b34156108bd57600080fd5b6108f4600480803573ffffffffffffffffffffffffffffffffffffffff169060200190919080351515906020019091905050610b4b565b005b341561090157600080fd5b610938600480803573ffffffffffffffffffffffffffffffffffffffff169060200190919080351515906020019091905050610b4f565b005b341561094557600080fd5b610971600480803573ffffffffffffffffffffffffffffffffffffffff16906020019091905050610b53565b604051808215151515815260200191505060405180910390f35b341561099657600080fd5b6109c2600480803573ffffffffffffffffffffffffffffffffffffffff16906020019091905050610b5a565b604051808215151515815260200191505060405180910390f35b34156109e757600080fd5b610a37600480803590602001908201803590602001908080601f01602080910402602001604051908101604052809392919081815260200183838082843782019150505050505091905050610b61565b6040518080602001828103825283818151815260200191508051906020019060200280838360005b83811015610a7a578082015181840152602081019050610a5f565b505050509050019250505060405180910390f35b3415610a9957600080fd5b610ad0600480803573ffffffffffffffffffffffffffffffffffffffff169060200190919080351515906020019091905050610b6e565b005b600090565b50565b600090565b6000919050565b600090565b600090565b50565b6000919050565b6000919050565b5050565b50565b5050565b6000919050565b600090565b6000919050565b6000919050565b5050565b6000919050565b5050565b6000919050565b5050565b50565b5050565b5050565b5050565b5050565b6000919050565b6000919050565b610b69610b72565b919050565b5050565b6020604051908101604052806000815250905600a165627a7a7230582061e350214a5125f90328e68c253eccc52df08eb072665b3865aff60956cc79430029",
  "source": "/*\n\n Copyright 2017-2018 RigoBlock, Rigo Investment Sagl.\n\n Licensed under the Apache License, Version 2.0 (the \"License\");\n you may not use this file except in compliance with the License.\n You may obtain a copy of the License at\n\n     http://www.apache.org/licenses/LICENSE-2.0\n\n Unless required by applicable law or agreed to in writing, software\n distributed under the License is distributed on an \"AS IS\" BASIS,\n WITHOUT WARRANTIES OR CONDITIONS OF ANY KIND, either express or implied.\n See the License for the specific language governing permissions and\n limitations under the License.\n\n*/\n\npragma solidity ^0.4.19;\n\n/// @title Authority Interface - Allows interaction with the Authority contract.\n/// @author Gabriele Rigo - <gab@rigoblock.com>\ncontract AuthorityFace {\n\n    // EVENTS\n\n    event SetAuthority (address indexed authority);\n    event SetWhitelister (address indexed whitelister);\n    event WhitelistedUser(address indexed target, bool approved);\n    event WhitelistedAsset(address indexed asset, bool approved);\n    event WhitelistedExchange(address indexed exchange, bool approved);\n    event WhitelistedRegistry(address indexed registry, bool approved);\n    event WhitelistedFactory(address indexed factory, bool approved);\n    event WhitelistedVault(address indexed vault, bool approved);\n    event WhitelistedDrago(address indexed drago, bool isWhitelisted);\n    event NewDragoEventful(address indexed dragoEventful);\n    event NewVaultEventful(address indexed exchangeEventful);\n    event NewExchangeEventful(address indexed vaultEventful);\n    event NewCasper(address indexed casper);\n\n    // CORE FUNCTIONS\n\n    function setAuthority(address _authority, bool _isWhitelisted) public {}\n    function setWhitelister(address _whitelister, bool _isWhitelisted) public {}\n    function whitelistUser(address _target, bool _isWhitelisted) public {}\n    function whitelistAsset(address _asset, bool _isWhitelisted) public {}\n    function whitelistExchange(address _exchange, bool _isWhitelisted) public {}\n    function whitelistDrago(address _drago, bool _isWhitelisted) public {}\n    function whitelistVault(address _vault, bool _isWhitelisted) public {}\n    function whitelistRegistry(address _registry, bool _isWhitelisted) public {}\n    function whitelistFactory(address _factory, bool _isWhitelisted) public {}\n    function setDragoEventful(address _dragoEventful) public {}\n    function setVaultEventful(address _vaultEventful) public {}\n    function setExchangeEventful(address _exchangeEventful) public {}\n    function setExchangeAdapter(address _exchange, address _adapter) public {}\n    function setCasper(address _casper) public {}\n\n    function isWhitelistedUser(address _target) public constant returns (bool) {}\n    function isWhitelister(address _whitelister) public constant returns (bool) {}\n    function isAuthority(address _authority) public constant returns (bool) {}\n    function isWhitelistedAsset(address _asset) public constant returns (bool) {}\n    function isWhitelistedExchange(address _exchange) public constant returns (bool) {}\n    function isWhitelistedRegistry(address _registry) public constant returns (bool) {}\n    function isWhitelistedDrago(address _drago) public constant returns (bool) {}\n    function isWhitelistedVault(address _vault) public constant returns (bool) {}\n    function isWhitelistedFactory(address _factory) public constant returns (bool) {}\n    function getDragoEventful() public constant returns (address) {}\n    function getVaultEventful() public constant returns (address) {}\n    function getExchangeEventful() public constant returns (address) {}\n    function getCasper() public constant returns (address) {}\n    function getOwner() public constant returns (address) {}\n    function getExchangeAdapter(address _exchange) public constant returns (address) {}\n    function getListsByGroups(string _group) public constant returns (address[]) {}\n}\n",
  "sourcePath": "/home/gab/truffle/contracts/contracts/Authority/AuthorityFace.sol",
  "compiler": {
    "name": "solc",
    "version": "0.4.19+commit.c4cbbb05.Emscripten.clang"
  },
  "schemaVersion": "2.0.0",
  "updatedAt": "2018-03-05T01:35:43.637Z"
}