{
  "contractName": "CasperFace",
  "abi": [
    {
      "constant": false,
      "inputs": [
        {
          "name": "_validation",
          "type": "address"
        },
        {
          "name": "_withdrawal",
          "type": "address"
        }
      ],
      "name": "deposit",
      "outputs": [],
      "payable": true,
      "stateMutability": "payable",
      "type": "function"
    },
    {
      "constant": false,
      "inputs": [
        {
          "name": "_validatorIndex",
          "type": "uint128"
        }
      ],
      "name": "withdraw",
      "outputs": [],
      "payable": false,
      "stateMutability": "nonpayable",
      "type": "function"
    },
    {
      "constant": true,
      "inputs": [
        {
          "name": "_validatorIndex",
          "type": "uint128"
        }
      ],
      "name": "get_deposit_size",
      "outputs": [
        {
          "name": "",
          "type": "uint128"
        }
      ],
      "payable": false,
      "stateMutability": "view",
      "type": "function"
    },
    {
      "constant": true,
      "inputs": [],
      "name": "get_nextValidatorIndex",
      "outputs": [
        {
          "name": "",
          "type": "uint128"
        }
      ],
      "payable": false,
      "stateMutability": "view",
      "type": "function"
    }
  ],
  "bytecode": "0x6060604052341561000f57600080fd5b6101558061001e6000396000f3006060604052600436106100615763ffffffff7c010000000000000000000000000000000000000000000000000000000060003504166302387a7b81146100665780633632588514610090578063f0afa25f146100c8578063f9609f08146100f0575b600080fd5b341561007157600080fd5b61008e6fffffffffffffffffffffffffffffffff60043516610117565b005b341561009b57600080fd5b6100a361011a565b6040516fffffffffffffffffffffffffffffffff909116815260200160405180910390f35b34156100d357600080fd5b6100a36fffffffffffffffffffffffffffffffff6004351661011f565b61008e73ffffffffffffffffffffffffffffffffffffffff60043581169060243516610125565b50565b600090565b50600090565b50505600a165627a7a72305820f702bab9a49b69f1ab4d7efdd3b3e97320f42c8de84f3e024b0f1bf953e516b70029",
  "source": "/*\n\n Copyright 2017-2018 RigoBlock, Rigo Investment Sagl.\n\n Licensed under the Apache License, Version 2.0 (the \"License\");\n you may not use this file except in compliance with the License.\n You may obtain a copy of the License at\n\n     http://www.apache.org/licenses/LICENSE-2.0\n\n Unless required by applicable law or agreed to in writing, software\n distributed under the License is distributed on an \"AS IS\" BASIS,\n WITHOUT WARRANTIES OR CONDITIONS OF ANY KIND, either express or implied.\n See the License for the specific language governing permissions and\n limitations under the License.\n\n*/\n\npragma solidity ^0.4.20;\n\n/// @title Casper Interface - Allows interaction with the Casoper contract.\n/// @author Gabriele Rigo - <gab@rigoblock.com>\ncontract CasperFace {\n\n    function deposit(address _validation, address _withdrawal) public payable {}\n    function withdraw(uint128 _validatorIndex) public {}\n\n    function get_deposit_size(uint128 _validatorIndex) public view returns (uint128) {}\n    function get_nextValidatorIndex() public view returns (uint128) {}\n}\n",
  "sourcePath": "/home/gab/truffle/contracts/contracts/Casper/CasperFace.sol",
  "compiler": {
    "name": "solc",
    "version": "0.4.19+commit.c4cbbb05.Emscripten.clang"
  },
  "schemaVersion": "2.0.0",
  "updatedAt": "2018-03-05T21:05:52.454Z"
}