{
  "contractName": "DragoEventful",
  "abi": [
    {
      "constant": false,
      "inputs": [
        {
          "name": "_who",
          "type": "address"
        },
        {
          "name": "_targetDrago",
          "type": "address"
        },
        {
          "name": "_dragoDao",
          "type": "address"
        }
      ],
      "name": "changeDragoDao",
      "outputs": [
        {
          "name": "success",
          "type": "bool"
        }
      ],
      "payable": false,
      "stateMutability": "nonpayable",
      "type": "function"
    },
    {
      "constant": false,
      "inputs": [
        {
          "name": "_who",
          "type": "address"
        },
        {
          "name": "_targetDrago",
          "type": "address"
        },
        {
          "name": "_exchange",
          "type": "address"
        },
        {
          "name": "_cfd",
          "type": "address"
        },
        {
          "name": "_id",
          "type": "uint24"
        }
      ],
      "name": "finalizedDealExchange",
      "outputs": [
        {
          "name": "success",
          "type": "bool"
        }
      ],
      "payable": false,
      "stateMutability": "nonpayable",
      "type": "function"
    },
    {
      "constant": true,
      "inputs": [],
      "name": "AUTHORITY",
      "outputs": [
        {
          "name": "",
          "type": "address"
        }
      ],
      "payable": false,
      "stateMutability": "view",
      "type": "function"
    },
    {
      "constant": false,
      "inputs": [
        {
          "name": "_who",
          "type": "address"
        },
        {
          "name": "_targetDrago",
          "type": "address"
        },
        {
          "name": "_ratio",
          "type": "uint256"
        }
      ],
      "name": "changeRatio",
      "outputs": [
        {
          "name": "success",
          "type": "bool"
        }
      ],
      "payable": false,
      "stateMutability": "nonpayable",
      "type": "function"
    },
    {
      "constant": true,
      "inputs": [],
      "name": "VERSION",
      "outputs": [
        {
          "name": "",
          "type": "string"
        }
      ],
      "payable": false,
      "stateMutability": "view",
      "type": "function"
    },
    {
      "inputs": [
        {
          "name": "_authority",
          "type": "address"
        }
      ],
      "payable": false,
      "stateMutability": "nonpayable",
      "type": "constructor"
    },
    {
      "anonymous": false,
      "inputs": [
        {
          "indexed": true,
          "name": "drago",
          "type": "address"
        },
        {
          "indexed": true,
          "name": "from",
          "type": "address"
        },
        {
          "indexed": true,
          "name": "to",
          "type": "address"
        },
        {
          "indexed": false,
          "name": "amount",
          "type": "uint256"
        },
        {
          "indexed": false,
          "name": "revenue",
          "type": "uint256"
        },
        {
          "indexed": false,
          "name": "name",
          "type": "bytes"
        },
        {
          "indexed": false,
          "name": "symbol",
          "type": "bytes"
        }
      ],
      "name": "BuyDrago",
      "type": "event"
    },
    {
      "anonymous": false,
      "inputs": [
        {
          "indexed": true,
          "name": "drago",
          "type": "address"
        },
        {
          "indexed": true,
          "name": "from",
          "type": "address"
        },
        {
          "indexed": true,
          "name": "to",
          "type": "address"
        },
        {
          "indexed": false,
          "name": "amount",
          "type": "uint256"
        },
        {
          "indexed": false,
          "name": "revenue",
          "type": "uint256"
        },
        {
          "indexed": false,
          "name": "name",
          "type": "bytes"
        },
        {
          "indexed": false,
          "name": "symbol",
          "type": "bytes"
        }
      ],
      "name": "SellDrago",
      "type": "event"
    },
    {
      "anonymous": false,
      "inputs": [
        {
          "indexed": true,
          "name": "drago",
          "type": "address"
        },
        {
          "indexed": true,
          "name": "from",
          "type": "address"
        },
        {
          "indexed": true,
          "name": "to",
          "type": "address"
        },
        {
          "indexed": false,
          "name": "sellPrice",
          "type": "uint256"
        },
        {
          "indexed": false,
          "name": "buyPrice",
          "type": "uint256"
        }
      ],
      "name": "NewNAV",
      "type": "event"
    },
    {
      "anonymous": false,
      "inputs": [
        {
          "indexed": true,
          "name": "drago",
          "type": "address"
        },
        {
          "indexed": true,
          "name": "exchange",
          "type": "address"
        },
        {
          "indexed": true,
          "name": "token",
          "type": "address"
        },
        {
          "indexed": false,
          "name": "value",
          "type": "uint256"
        },
        {
          "indexed": false,
          "name": "amount",
          "type": "uint256"
        }
      ],
      "name": "DepositExchange",
      "type": "event"
    },
    {
      "anonymous": false,
      "inputs": [
        {
          "indexed": true,
          "name": "drago",
          "type": "address"
        },
        {
          "indexed": true,
          "name": "exchange",
          "type": "address"
        },
        {
          "indexed": true,
          "name": "token",
          "type": "address"
        },
        {
          "indexed": false,
          "name": "value",
          "type": "uint256"
        },
        {
          "indexed": false,
          "name": "amount",
          "type": "uint256"
        }
      ],
      "name": "WithdrawExchange",
      "type": "event"
    },
    {
      "anonymous": false,
      "inputs": [
        {
          "indexed": true,
          "name": "drago",
          "type": "address"
        },
        {
          "indexed": true,
          "name": "exchange",
          "type": "address"
        },
        {
          "indexed": true,
          "name": "cfd",
          "type": "address"
        },
        {
          "indexed": false,
          "name": "value",
          "type": "uint256"
        },
        {
          "indexed": false,
          "name": "revenue",
          "type": "uint256"
        }
      ],
      "name": "OrderExchange",
      "type": "event"
    },
    {
      "anonymous": false,
      "inputs": [
        {
          "indexed": true,
          "name": "drago",
          "type": "address"
        },
        {
          "indexed": true,
          "name": "exchange",
          "type": "address"
        },
        {
          "indexed": false,
          "name": "tokenGet",
          "type": "address"
        },
        {
          "indexed": false,
          "name": "tokenGive",
          "type": "address"
        },
        {
          "indexed": false,
          "name": "amountGet",
          "type": "uint256"
        },
        {
          "indexed": false,
          "name": "amountGive",
          "type": "uint256"
        },
        {
          "indexed": false,
          "name": "get",
          "type": "address"
        }
      ],
      "name": "TradeExchange",
      "type": "event"
    },
    {
      "anonymous": false,
      "inputs": [
        {
          "indexed": true,
          "name": "drago",
          "type": "address"
        },
        {
          "indexed": true,
          "name": "exchange",
          "type": "address"
        },
        {
          "indexed": true,
          "name": "cfd",
          "type": "address"
        },
        {
          "indexed": false,
          "name": "value",
          "type": "uint256"
        },
        {
          "indexed": false,
          "name": "id",
          "type": "uint256"
        }
      ],
      "name": "CancelOrder",
      "type": "event"
    },
    {
      "anonymous": false,
      "inputs": [
        {
          "indexed": true,
          "name": "drago",
          "type": "address"
        },
        {
          "indexed": true,
          "name": "exchange",
          "type": "address"
        },
        {
          "indexed": true,
          "name": "cfd",
          "type": "address"
        },
        {
          "indexed": false,
          "name": "value",
          "type": "uint256"
        },
        {
          "indexed": false,
          "name": "id",
          "type": "uint256"
        }
      ],
      "name": "DealFinalized",
      "type": "event"
    },
    {
      "anonymous": false,
      "inputs": [
        {
          "indexed": true,
          "name": "drago",
          "type": "address"
        },
        {
          "indexed": true,
          "name": "group",
          "type": "address"
        },
        {
          "indexed": true,
          "name": "owner",
          "type": "address"
        },
        {
          "indexed": false,
          "name": "dragoId",
          "type": "uint256"
        },
        {
          "indexed": false,
          "name": "name",
          "type": "string"
        },
        {
          "indexed": false,
          "name": "symbol",
          "type": "string"
        }
      ],
      "name": "DragoCreated",
      "type": "event"
    },
    {
      "anonymous": false,
      "inputs": [
        {
          "indexed": true,
          "name": "targetDrago",
          "type": "address"
        },
        {
          "indexed": true,
          "name": "group",
          "type": "address"
        },
        {
          "indexed": true,
          "name": "who",
          "type": "address"
        },
        {
          "indexed": false,
          "name": "transactionFee",
          "type": "uint256"
        }
      ],
      "name": "NewFee",
      "type": "event"
    },
    {
      "anonymous": false,
      "inputs": [
        {
          "indexed": true,
          "name": "targetDrago",
          "type": "address"
        },
        {
          "indexed": true,
          "name": "group",
          "type": "address"
        },
        {
          "indexed": true,
          "name": "who",
          "type": "address"
        },
        {
          "indexed": false,
          "name": "feeCollector",
          "type": "address"
        }
      ],
      "name": "NewCollector",
      "type": "event"
    },
    {
      "anonymous": false,
      "inputs": [
        {
          "indexed": true,
          "name": "drago",
          "type": "address"
        },
        {
          "indexed": true,
          "name": "exchange",
          "type": "address"
        },
        {
          "indexed": false,
          "name": "tokenGet",
          "type": "address"
        },
        {
          "indexed": false,
          "name": "tokenGive",
          "type": "address"
        },
        {
          "indexed": false,
          "name": "amountGet",
          "type": "uint256"
        },
        {
          "indexed": false,
          "name": "amountGive",
          "type": "uint256"
        },
        {
          "indexed": false,
          "name": "get",
          "type": "address"
        },
        {
          "indexed": false,
          "name": "give",
          "type": "address"
        }
      ],
      "name": "TradeExchange",
      "type": "event"
    },
    {
      "anonymous": false,
      "inputs": [
        {
          "indexed": true,
          "name": "drago",
          "type": "address"
        },
        {
          "indexed": true,
          "name": "exchange",
          "type": "address"
        },
        {
          "indexed": true,
          "name": "cfd",
          "type": "address"
        },
        {
          "indexed": false,
          "name": "value",
          "type": "uint256"
        },
        {
          "indexed": false,
          "name": "id",
          "type": "uint256"
        }
      ],
      "name": "FinalizeDeal",
      "type": "event"
    },
    {
      "constant": false,
      "inputs": [
        {
          "name": "_who",
          "type": "address"
        },
        {
          "name": "_targetDrago",
          "type": "address"
        },
        {
          "name": "_value",
          "type": "uint256"
        },
        {
          "name": "_amount",
          "type": "uint256"
        },
        {
          "name": "_name",
          "type": "bytes"
        },
        {
          "name": "_symbol",
          "type": "bytes"
        }
      ],
      "name": "buyDrago",
      "outputs": [
        {
          "name": "success",
          "type": "bool"
        }
      ],
      "payable": false,
      "stateMutability": "nonpayable",
      "type": "function"
    },
    {
      "constant": false,
      "inputs": [
        {
          "name": "_who",
          "type": "address"
        },
        {
          "name": "_targetDrago",
          "type": "address"
        },
        {
          "name": "_amount",
          "type": "uint256"
        },
        {
          "name": "_revenue",
          "type": "uint256"
        },
        {
          "name": "_name",
          "type": "bytes"
        },
        {
          "name": "_symbol",
          "type": "bytes"
        }
      ],
      "name": "sellDrago",
      "outputs": [
        {
          "name": "success",
          "type": "bool"
        }
      ],
      "payable": false,
      "stateMutability": "nonpayable",
      "type": "function"
    },
    {
      "constant": false,
      "inputs": [
        {
          "name": "_who",
          "type": "address"
        },
        {
          "name": "_targetDrago",
          "type": "address"
        },
        {
          "name": "_sellPrice",
          "type": "uint256"
        },
        {
          "name": "_buyPrice",
          "type": "uint256"
        }
      ],
      "name": "setDragoPrice",
      "outputs": [
        {
          "name": "success",
          "type": "bool"
        }
      ],
      "payable": false,
      "stateMutability": "nonpayable",
      "type": "function"
    },
    {
      "constant": false,
      "inputs": [
        {
          "name": "_who",
          "type": "address"
        },
        {
          "name": "_targetDrago",
          "type": "address"
        },
        {
          "name": "_exchange",
          "type": "address"
        },
        {
          "name": "_token",
          "type": "address"
        },
        {
          "name": "_value",
          "type": "uint256"
        }
      ],
      "name": "depositToExchange",
      "outputs": [
        {
          "name": "success",
          "type": "bool"
        }
      ],
      "payable": false,
      "stateMutability": "nonpayable",
      "type": "function"
    },
    {
      "constant": false,
      "inputs": [
        {
          "name": "_who",
          "type": "address"
        },
        {
          "name": "_targetDrago",
          "type": "address"
        },
        {
          "name": "_exchange",
          "type": "address"
        },
        {
          "name": "_token",
          "type": "address"
        },
        {
          "name": "_value",
          "type": "uint256"
        }
      ],
      "name": "withdrawFromExchange",
      "outputs": [
        {
          "name": "success",
          "type": "bool"
        }
      ],
      "payable": false,
      "stateMutability": "nonpayable",
      "type": "function"
    },
    {
      "constant": false,
      "inputs": [
        {
          "name": "_who",
          "type": "address"
        },
        {
          "name": "_exchange",
          "type": "address"
        },
        {
          "name": "_targetDrago",
          "type": "address"
        },
        {
          "name": "_tokenGet",
          "type": "address"
        },
        {
          "name": "_amountGet",
          "type": "uint256"
        },
        {
          "name": "_tokenGive",
          "type": "address"
        },
        {
          "name": "_amountGive",
          "type": "uint256"
        },
        {
          "name": "_expires",
          "type": "uint256"
        }
      ],
      "name": "placeOrderExchange",
      "outputs": [
        {
          "name": "success",
          "type": "bool"
        }
      ],
      "payable": false,
      "stateMutability": "nonpayable",
      "type": "function"
    },
    {
      "constant": false,
      "inputs": [
        {
          "name": "_who",
          "type": "address"
        },
        {
          "name": "_targetDrago",
          "type": "address"
        },
        {
          "name": "_cfdExchange",
          "type": "address"
        },
        {
          "name": "_cfd",
          "type": "address"
        },
        {
          "name": "_is_stable",
          "type": "bool"
        },
        {
          "name": "_adjustment",
          "type": "uint32"
        },
        {
          "name": "_stake",
          "type": "uint128"
        }
      ],
      "name": "placeOrderCFDExchange",
      "outputs": [
        {
          "name": "success",
          "type": "bool"
        }
      ],
      "payable": false,
      "stateMutability": "nonpayable",
      "type": "function"
    },
    {
      "constant": false,
      "inputs": [
        {
          "name": "_who",
          "type": "address"
        },
        {
          "name": "_targetDrago",
          "type": "address"
        },
        {
          "name": "_exchange",
          "type": "address"
        },
        {
          "name": "_tokenGet",
          "type": "address"
        },
        {
          "name": "_amountGet",
          "type": "uint256"
        },
        {
          "name": "_tokenGive",
          "type": "address"
        },
        {
          "name": "_amountGive",
          "type": "uint256"
        },
        {
          "name": "_expires",
          "type": "uint256"
        },
        {
          "name": "_user",
          "type": "address"
        },
        {
          "name": "_amount",
          "type": "uint256"
        }
      ],
      "name": "placeTradeExchange",
      "outputs": [
        {
          "name": "success",
          "type": "bool"
        }
      ],
      "payable": false,
      "stateMutability": "nonpayable",
      "type": "function"
    },
    {
      "constant": false,
      "inputs": [
        {
          "name": "_who",
          "type": "address"
        },
        {
          "name": "_targetDrago",
          "type": "address"
        },
        {
          "name": "_exchange",
          "type": "address"
        },
        {
          "name": "_tokenGet",
          "type": "address"
        },
        {
          "name": "_amountGet",
          "type": "uint256"
        },
        {
          "name": "_tokenGive",
          "type": "address"
        },
        {
          "name": "_amountGive",
          "type": "uint256"
        },
        {
          "name": "_expires",
          "type": "uint256"
        }
      ],
      "name": "cancelOrderExchange",
      "outputs": [
        {
          "name": "success",
          "type": "bool"
        }
      ],
      "payable": false,
      "stateMutability": "nonpayable",
      "type": "function"
    },
    {
      "constant": false,
      "inputs": [
        {
          "name": "_who",
          "type": "address"
        },
        {
          "name": "_targetDrago",
          "type": "address"
        },
        {
          "name": "_cfdExchange",
          "type": "address"
        },
        {
          "name": "_cfd",
          "type": "address"
        },
        {
          "name": "_id",
          "type": "uint32"
        }
      ],
      "name": "cancelOrderCFDExchange",
      "outputs": [
        {
          "name": "success",
          "type": "bool"
        }
      ],
      "payable": false,
      "stateMutability": "nonpayable",
      "type": "function"
    },
    {
      "constant": false,
      "inputs": [
        {
          "name": "_who",
          "type": "address"
        },
        {
          "name": "_targetDrago",
          "type": "address"
        },
        {
          "name": "_cfdExchange",
          "type": "address"
        },
        {
          "name": "_cfd",
          "type": "address"
        },
        {
          "name": "_id",
          "type": "uint24"
        }
      ],
      "name": "finalizeDealCFDExchange",
      "outputs": [
        {
          "name": "success",
          "type": "bool"
        }
      ],
      "payable": false,
      "stateMutability": "nonpayable",
      "type": "function"
    },
    {
      "constant": false,
      "inputs": [
        {
          "name": "_who",
          "type": "address"
        },
        {
          "name": "_targetDrago",
          "type": "address"
        },
        {
          "name": "_transactionFee",
          "type": "uint256"
        }
      ],
      "name": "setTransactionFee",
      "outputs": [
        {
          "name": "success",
          "type": "bool"
        }
      ],
      "payable": false,
      "stateMutability": "nonpayable",
      "type": "function"
    },
    {
      "constant": false,
      "inputs": [
        {
          "name": "_who",
          "type": "address"
        },
        {
          "name": "_targetDrago",
          "type": "address"
        },
        {
          "name": "_feeCollector",
          "type": "address"
        }
      ],
      "name": "changeFeeCollector",
      "outputs": [
        {
          "name": "success",
          "type": "bool"
        }
      ],
      "payable": false,
      "stateMutability": "nonpayable",
      "type": "function"
    },
    {
      "constant": false,
      "inputs": [
        {
          "name": "_who",
          "type": "address"
        },
        {
          "name": "_dragoFactory",
          "type": "address"
        },
        {
          "name": "_newDrago",
          "type": "address"
        },
        {
          "name": "_name",
          "type": "string"
        },
        {
          "name": "_symbol",
          "type": "string"
        },
        {
          "name": "_dragoId",
          "type": "uint256"
        }
      ],
      "name": "createDrago",
      "outputs": [
        {
          "name": "success",
          "type": "bool"
        }
      ],
      "payable": false,
      "stateMutability": "nonpayable",
      "type": "function"
    },
    {
      "constant": false,
      "inputs": [
        {
          "name": "_who",
          "type": "address"
        },
        {
          "name": "_dragoFactory",
          "type": "address"
        },
        {
          "name": "_newDrago",
          "type": "address"
        },
        {
          "name": "_name",
          "type": "string"
        },
        {
          "name": "_symbol",
          "type": "string"
        },
        {
          "name": "_dragoId",
          "type": "uint256"
        },
        {
          "name": "_owner",
          "type": "address"
        }
      ],
      "name": "createDrago",
      "outputs": [
        {
          "name": "success",
          "type": "bool"
        }
      ],
      "payable": false,
      "stateMutability": "nonpayable",
      "type": "function"
    }
  ],
  "bytecode": "0x6060604052341561000f57600080fd5b604051602080611ce08339810160405280805160008054600160a060020a03909216600160a060020a03199092169190911790555050611c8c806100546000396000f3006060604052600436106100f85763ffffffff60e060020a60003504166310d325e681146100fd578063198f7472146101655780632a44fba5146101a65780632b459b7b146101d15780632cc4e4b61461021f5780632ec576121461026657806339f80b76146102ad57806341167aa9146102fb5780634666b8561461032f57806347f725b01461036957806349e30f71146103a2578063554a7818146103e957806389fcd7961461041457806391f1df841461044357806398e7b6fc1461046b578063d5aaa73a146104a4578063f39ba932146104cc578063f78e518f146104f7578063fdd24c4b1461052b578063ffa1ad741461056c575b600080fd5b341561010857600080fd5b610151600160a060020a0360043581169060243581169060443581169060643516608435151563ffffffff60a435166fffffffffffffffffffffffffffffffff60c435166105f6565b604051901515815260200160405180910390f35b341561017057600080fd5b610151600160a060020a036004358116906024358116906044358116906064358116906084359060a4351660c43560e43561081d565b34156101b157600080fd5b610151600160a060020a03600435811690602435811690604435166109be565b34156101dc57600080fd5b610151600160a060020a036004803582169160248035821692604435831692606435808401939083013592608435918201929101359060a4359060c435166109c7565b341561022a57600080fd5b610151600160a060020a03600480358216916024803590911691604435916064359160843580830192908201359160a4359182019101356109d6565b341561027157600080fd5b610151600160a060020a03600480358216916024803590911691604435916064359160843580830192908201359160a435918201910135610b1f565b34156102b857600080fd5b610151600160a060020a036004358116906024358116906044358116906064358116906084359060a43581169060c4359060e43590610104351661012435610c75565b341561030657600080fd5b610151600160a060020a0360043581169060243581169060443581169060643516608435610dbf565b341561033a57600080fd5b610151600160a060020a036004358116906024358116906044358116906064351663ffffffff60843516610f5d565b341561037457600080fd5b610151600160a060020a036004358116906024358116906044358116906064351662ffffff6084351661116e565b34156103ad57600080fd5b61015160048035600160a060020a039081169160248035831692604435169160643580830192908201359160843591820191013560a435611179565b34156103f457600080fd5b610151600160a060020a03600435811690602435166044356064356112b9565b341561041f57600080fd5b6104276113e3565b604051600160a060020a03909116815260200160405180910390f35b341561044e57600080fd5b610151600160a060020a03600435811690602435166044356109be565b341561047657600080fd5b610151600160a060020a036004358116906024358116906044358116906064351662ffffff608435166113f2565b34156104af57600080fd5b610151600160a060020a0360043581169060243516604435611600565b34156104d757600080fd5b610151600160a060020a036004358116906024358116906044351661177f565b341561050257600080fd5b610151600160a060020a0360043581169060243581169060443581169060643516608435611905565b341561053657600080fd5b610151600160a060020a036004358116906024358116906044358116906064358116906084359060a4351660c43560e435611a8b565b341561057757600080fd5b61057f611c29565b60405160208082528190810183818151815260200191508051906020019080838360005b838110156105bb5780820151838201526020016105a3565b50505050905090810190601f1680156105e85780820380516001836020036101000a031916815260200191505b509250505060405180910390f35b600080548790600160a060020a031680634493890083856040516020015260405160e060020a63ffffffff8416028152600160a060020a039091166004820152602401602060405180830381600087803b151561065257600080fd5b6102c65a03f1151561066357600080fd5b505050604051805190501561081057600080548991600160a060020a03909116908190639aa4d0a09084906040516020015260405160e060020a63ffffffff8416028152600160a060020a039091166004820152602401602060405180830381600087803b15156106d357600080fd5b6102c65a03f115156106e457600080fd5b505050604051805190501561080d57600080548a91600160a060020a0390911690819063ab1dc4279084906040516020015260405160e060020a63ffffffff8416028152600160a060020a039091166004820152602401602060405180830381600087803b151561075457600080fd5b6102c65a03f1151561076557600080fd5b505050604051805190501561080a578c600160a060020a031633600160a060020a031614151561079457600080fd5b8a600160a060020a03168c600160a060020a03168e600160a060020a03167f622e5a265db9616ac0cb7343794e020ea661fa4ca5db7c097e0f05ee9d633d5e8b8d6040516fffffffffffffffffffffffffffffffff909216825263ffffffff1660208201526040908101905180910390a4600196505b50505b50505b5050979650505050505050565b600080548790600160a060020a031680634493890083856040516020015260405160e060020a63ffffffff8416028152600160a060020a039091166004820152602401602060405180830381600087803b151561087957600080fd5b6102c65a03f1151561088a57600080fd5b50505060405180519050156109b057600080548b91600160a060020a03909116908190639aa4d0a09084906040516020015260405160e060020a63ffffffff8416028152600160a060020a039091166004820152602401602060405180830381600087803b15156108fa57600080fd5b6102c65a03f1151561090b57600080fd5b50505060405180519050156109ad57600160a060020a038b16151561092f57600080fd5b8a600160a060020a031633600160a060020a031614151561094f57600080fd5b89600160a060020a03168c600160a060020a03168c600160a060020a03167f622e5a265db9616ac0cb7343794e020ea661fa4ca5db7c097e0f05ee9d633d5e8c600060405191825260208201526040908101905180910390a4600194505b50505b505098975050505050505050565b60009392505050565b60009998505050505050505050565b600080548890600160a060020a031680634493890083856040516020015260405160e060020a63ffffffff8416028152600160a060020a039091166004820152602401602060405180830381600087803b1515610a3257600080fd5b6102c65a03f11515610a4357600080fd5b50505060405180519050156109b05789600160a060020a031633600160a060020a0316141515610a7257600080fd5b33600160a060020a03168b600160a060020a03168b600160a060020a03167fcad98ce2f54320f9a3cbfcabd750461d8fbc469076324d37907488ff1d45c2908c8c8c8c8c8c604051868152602081018690526080604082018181529082018590526060820160a083018787808284379091018481038352858152602001905085858082843782019150509850505050505050505060405180910390a45060019a9950505050505050505050565b600080548890600160a060020a031680634493890083856040516020015260405160e060020a63ffffffff8416028152600160a060020a039091166004820152602401602060405180830381600087803b1515610b7b57600080fd5b6102c65a03f11515610b8c57600080fd5b50505060405180519050156109b05760008911610ba857600080fd5b89600160a060020a031633600160a060020a0316141515610bc857600080fd5b33600160a060020a03168b600160a060020a03168b600160a060020a03167f44fdc18a9b8ed853260ec560ccf070691dcfa501b4a806b5b5e31eed8bc88b938c8c8c8c8c8c604051868152602081018690526080604082018181529082018590526060820160a083018787808284379091018481038352858152602001905085858082843782019150509850505050505050505060405180910390a45060019a9950505050505050505050565b600080548a90600160a060020a031680634493890083856040516020015260405160e060020a63ffffffff8416028152600160a060020a039091166004820152602401602060405180830381600087803b1515610cd157600080fd5b6102c65a03f11515610ce257600080fd5b5050506040518051905015610daf57600080548c91600160a060020a03909116908190639aa4d0a09084906040516020015260405160e060020a63ffffffff8416028152600160a060020a039091166004820152602401602060405180830381600087803b1515610d5257600080fd5b6102c65a03f11515610d6357600080fd5b5050506040518051905015610dac57600160a060020a038e161515610d8757600080fd5b8d600160a060020a031633600160a060020a0316141515610da757600080fd5b600194505b50505b50509a9950505050505050505050565b600080548590600160a060020a031680634493890083856040516020015260405160e060020a63ffffffff8416028152600160a060020a039091166004820152602401602060405180830381600087803b1515610e1b57600080fd5b6102c65a03f11515610e2c57600080fd5b5050506040518051905015610f5257600080548791600160a060020a03909116908190639aa4d0a09084906040516020015260405160e060020a63ffffffff8416028152600160a060020a039091166004820152602401602060405180830381600087803b1515610e9c57600080fd5b6102c65a03f11515610ead57600080fd5b5050506040518051905015610f4f57600160a060020a0389161515610ed157600080fd5b88600160a060020a031633600160a060020a0316141515610ef157600080fd5b86600160a060020a031688600160a060020a03168a600160a060020a03167fee9a3802dc92f9753e3cbbb9e5fbbd7558b180539f8104d522584f17cf9c65b789600060405191825260208201526040908101905180910390a4600194505b50505b505095945050505050565b600080548590600160a060020a031680634493890083856040516020015260405160e060020a63ffffffff8416028152600160a060020a039091166004820152602401602060405180830381600087803b1515610fb957600080fd5b6102c65a03f11515610fca57600080fd5b5050506040518051905015610f5257600080548791600160a060020a03909116908190639aa4d0a09084906040516020015260405160e060020a63ffffffff8416028152600160a060020a039091166004820152602401602060405180830381600087803b151561103a57600080fd5b6102c65a03f1151561104b57600080fd5b5050506040518051905015610f4f57600080548891600160a060020a0390911690819063ab1dc4279084906040516020015260405160e060020a63ffffffff8416028152600160a060020a039091166004820152602401602060405180830381600087803b15156110bb57600080fd5b6102c65a03f115156110cc57600080fd5b505050604051805190501561115f578a600160a060020a031633600160a060020a03161415156110fb57600080fd5b88600160a060020a03168a600160a060020a03168c600160a060020a03167f683e19da8915eaf53720face9ed8935530fd0ce327875da48efcb63393249be360008c60405191825263ffffffff1660208201526040908101905180910390a4600196505b50505050505095945050505050565b600095945050505050565b600080548890600160a060020a03168063dcb7a3e083856040516020015260405160e060020a63ffffffff8416028152600160a060020a039091166004820152602401602060405180830381600087803b15156111d557600080fd5b6102c65a03f115156111e657600080fd5b50505060405180519050156109b05789600160a060020a031633600160a060020a031614151561121557600080fd5b8a600160a060020a03168a600160a060020a03168a600160a060020a03167f19b85c898cf6ac07e2cd8c5e44f84c9146263ac6861bfef2ed01d419b37c2c36878c8c8c8c604051858152606060208201818152908201859052604082016080830187878082843790910184810383528581526020019050858580828437820191505097505050505050505060405180910390a45060019a9950505050505050505050565b600080548490600160a060020a031680634493890083856040516020015260405160e060020a63ffffffff8416028152600160a060020a039091166004820152602401602060405180830381600087803b151561131557600080fd5b6102c65a03f1151561132657600080fd5b50505060405180519050156113d957662386f26fc10000851180156113515750662386f26fc1000084115b151561135c57600080fd5b85600160a060020a031633600160a060020a031614151561137c57600080fd5b86600160a060020a031633600160a060020a031687600160a060020a03167f5a96ba7d7f2705b8c0e85b7b0f2a707fc9a711e97b1c5fed2f47583986748954888860405191825260208201526040908101905180910390a4600192505b5050949350505050565b600054600160a060020a031681565b600080548590600160a060020a031680634493890083856040516020015260405160e060020a63ffffffff8416028152600160a060020a039091166004820152602401602060405180830381600087803b151561144e57600080fd5b6102c65a03f1151561145f57600080fd5b5050506040518051905015610f5257600080548791600160a060020a03909116908190639aa4d0a09084906040516020015260405160e060020a63ffffffff8416028152600160a060020a039091166004820152602401602060405180830381600087803b15156114cf57600080fd5b6102c65a03f115156114e057600080fd5b5050506040518051905015610f4f57600080548891600160a060020a0390911690819063ab1dc4279084906040516020015260405160e060020a63ffffffff8416028152600160a060020a039091166004820152602401602060405180830381600087803b151561155057600080fd5b6102c65a03f1151561156157600080fd5b505050604051805190501561115f578a600160a060020a031633600160a060020a031614151561159057600080fd5b88600160a060020a03168a600160a060020a03168c600160a060020a03167f8b9ba7f1fb6dbd61488cadd41ccb776771fe257981502a845f26633aaae42aa860008c60405191825262ffffff1660208201526040908101905180910390a45060019b9a5050505050505050505050565b600080548390600160a060020a031680634493890083856040516020015260405160e060020a63ffffffff8416028152600160a060020a039091166004820152602401602060405180830381600087803b151561165c57600080fd5b6102c65a03f1151561166d57600080fd5b505050604051805190501561177657600080548791600160a060020a0390911690819063d88c271e9084906040516020015260405160e060020a63ffffffff8416028152600160a060020a039091166004820152602401602060405180830381600087803b15156116dd57600080fd5b6102c65a03f115156116ee57600080fd5b50505060405180519050156117735786600160a060020a031633600160a060020a031614151561171d57600080fd5b87600160a060020a031633600160a060020a031688600160a060020a03167f93d0111deb3c3657374f0dc73b64ff5ae0111e1e4e4d0b5860b0d799599d0a418960405190815260200160405180910390a4600194505b50505b50509392505050565b600080548390600160a060020a031680634493890083856040516020015260405160e060020a63ffffffff8416028152600160a060020a039091166004820152602401602060405180830381600087803b15156117db57600080fd5b6102c65a03f115156117ec57600080fd5b505050604051805190501561177657600080548791600160a060020a0390911690819063d88c271e9084906040516020015260405160e060020a63ffffffff8416028152600160a060020a039091166004820152602401602060405180830381600087803b151561185c57600080fd5b6102c65a03f1151561186d57600080fd5b50505060405180519050156117735786600160a060020a031633600160a060020a031614151561189c57600080fd5b87600160a060020a031633600160a060020a031688600160a060020a03167fefe40f758cd182716682db7a4bcd9dd6b9fba7e0bcc9fb0096282108db6f02ef89604051600160a060020a03909116815260200160405180910390a4506001979650505050505050565b600080548590600160a060020a031680634493890083856040516020015260405160e060020a63ffffffff8416028152600160a060020a039091166004820152602401602060405180830381600087803b151561196157600080fd5b6102c65a03f1151561197257600080fd5b5050506040518051905015610f5257600080548791600160a060020a03909116908190639aa4d0a09084906040516020015260405160e060020a63ffffffff8416028152600160a060020a039091166004820152602401602060405180830381600087803b15156119e257600080fd5b6102c65a03f115156119f357600080fd5b5050506040518051905015610f4f5788600160a060020a031633600160a060020a0316141515611a2257600080fd5b86600160a060020a031688600160a060020a03168a600160a060020a03167f79208b3906a9bac6a824d21010a6e14b6afc4abe7f84bc4ce19c82d0f2dfa20889600060405191825260208201526040908101905180910390a45060019998505050505050505050565b600080548890600160a060020a031680634493890083856040516020015260405160e060020a63ffffffff8416028152600160a060020a039091166004820152602401602060405180830381600087803b1515611ae757600080fd5b6102c65a03f11515611af857600080fd5b50505060405180519050156109b057600080548a91600160a060020a03909116908190639aa4d0a09084906040516020015260405160e060020a63ffffffff8416028152600160a060020a039091166004820152602401602060405180830381600087803b1515611b6857600080fd5b6102c65a03f11515611b7957600080fd5b50505060405180519050156109ad57600160a060020a038c161515611b9d57600080fd5b8b600160a060020a031633600160a060020a0316141515611bbd57600080fd5b89600160a060020a03168b600160a060020a03168d600160a060020a03167f683e19da8915eaf53720face9ed8935530fd0ce327875da48efcb63393249be38c600060405191825260208201526040908101905180910390a45060019c9b505050505050505050505050565b60408051908101604052600781527f4448302e342e31000000000000000000000000000000000000000000000000006020820152815600a165627a7a72305820018ef678e875d37a24eb5144312ecce40aaae9e51632155f0f3498a0490842110029",
  "source": "/*\n\n Copyright 2017-2018 RigoBlock, Rigo Investment Sagl.\n\n Licensed under the Apache License, Version 2.0 (the \"License\");\n you may not use this file except in compliance with the License.\n You may obtain a copy of the License at\n\n     http://www.apache.org/licenses/LICENSE-2.0\n\n Unless required by applicable law or agreed to in writing, software\n distributed under the License is distributed on an \"AS IS\" BASIS,\n WITHOUT WARRANTIES OR CONDITIONS OF ANY KIND, either express or implied.\n See the License for the specific language governing permissions and\n limitations under the License.\n\n*/\n\npragma solidity ^0.4.20;\n\nimport { AuthorityFace as Authority } from \"../Authority/AuthorityFace.sol\";\nimport { DragoEventfulFace } from \"./DragoEventfulFace.sol\";\n\n/// @title Drago Eventful contract.\n/// @author Gabriele Rigo - <gab@rigoblock.com>\ncontract DragoEventful is DragoEventfulFace {\n\n    string public constant VERSION = 'DH0.4.1';\n\n    address public AUTHORITY;\n\n    event BuyDrago(\n        address indexed drago,\n        address indexed from,\n        address indexed to,\n        uint256 amount,\n        uint256 revenue,\n        bytes name,\n        bytes symbol\n    );\n\n    event SellDrago(\n        address indexed drago,\n        address indexed from,\n        address indexed to,\n        uint256 amount,\n        uint256 revenue,\n        bytes name,\n        bytes symbol\n    );\n\n    event NewNAV(\n        address indexed drago,\n        address indexed from,\n        address indexed to,\n        uint sellPrice,\n        uint buyPrice\n    );\n\n    event DepositExchange(\n        address indexed drago,\n        address indexed exchange,\n        address indexed token,\n        uint value,\n        uint256 amount\n    );\n\n    event WithdrawExchange(\n        address indexed drago,\n        address indexed exchange,\n        address indexed token,\n        uint value,\n        uint256 amount\n    );\n\n    event OrderExchange(\n        address indexed drago,\n        address indexed exchange,\n        address indexed cfd,\n        uint value,\n        uint revenue\n    );\n\n    event TradeExchange(\n        address indexed drago,\n        address indexed exchange,\n        address tokenGet,\n        address tokenGive,\n        uint amountGet,\n        uint amountGive,\n        address get\n    );\n\n    event CancelOrder(\n        address indexed drago,\n        address indexed exchange,\n        address indexed cfd,\n        uint value,\n        uint id\n    );\n\n    event DealFinalized(\n        address indexed drago,\n        address indexed exchange,\n        address indexed cfd,\n        uint value,\n        uint id\n    );\n\n    event DragoCreated(\n        address indexed drago,\n        address indexed group,\n        address indexed owner,\n        uint dragoId,\n        string name,\n        string symbol\n    );\n\n    event NewFee(\n        address indexed targetDrago,\n        address indexed group,\n        address indexed who,\n        uint transactionFee\n    );\n\n    event NewCollector(\n        address indexed targetDrago,\n        address indexed group,\n        address indexed who,\n        address feeCollector\n    );\n\n    modifier approvedFactoryOnly(address _factory) {\n        Authority auth = Authority(AUTHORITY);\n        if (auth.isWhitelistedFactory(_factory)) _;\n    }\n\n    modifier approvedDragoOnly(address _drago) {\n        Authority auth = Authority(AUTHORITY);\n        if (auth.isWhitelistedDrago(_drago)) _;\n    }\n\n    modifier approvedExchangeOnly(address _exchange) {\n        Authority auth = Authority(AUTHORITY);\n        if (auth.isWhitelistedExchange(_exchange)) _;\n    }\n\n    modifier approvedUserOnly(address _user) {\n        Authority auth = Authority(AUTHORITY);\n        if (auth.isWhitelistedUser(_user)) _;\n    }\n\n    modifier approvedAsset(address _asset) {\n        Authority auth = Authority(AUTHORITY);\n        if (auth.isWhitelistedAsset(_asset)) _;\n    }\n\n    function DragoEventful(address _authority) public {\n        AUTHORITY = _authority;\n    }\n\n    // CORE FUNCTIONS\n\n    /// @dev Logs a Buy Drago event.\n    /// @param _who Address of who is buying\n    /// @param _targetDrago Address of the target drago\n    /// @param _value Value of the transaction in Ether\n    /// @param _amount Number of shares purchased\n    /// @return Bool the transaction executed successfully\n    function buyDrago(\n        address _who,\n        address _targetDrago,\n        uint _value,\n        uint _amount,\n        bytes _name,\n        bytes _symbol)\n        external\n        approvedDragoOnly(_targetDrago)\n        returns (bool success)\n    {\n        require(msg.sender == _targetDrago);\n        BuyDrago(_targetDrago, _who, msg.sender, _value, _amount, _name, _symbol);\n        return true;\n    }\n\n    /// @dev Logs a Sell Drago event.\n    /// @param _who Address of who is selling\n    /// @param _targetDrago Address of the target drago\n    /// @param _amount Number of shares purchased\n    /// @param _revenue Value of the transaction in Ether\n    /// @return Bool the transaction executed successfully\n    function sellDrago(\n        address _who,\n        address _targetDrago,\n        uint _amount,\n        uint _revenue,\n        bytes _name,\n        bytes _symbol)\n        external\n        approvedDragoOnly(_targetDrago)\n        returns(bool success)\n    {\n        require(_amount > 0);\n        require(msg.sender == _targetDrago);\n        SellDrago(_targetDrago, _who, msg.sender, _amount, _revenue, _name, _symbol);\n        return true;\n    }\n\n    /// @dev Logs a Set Drago Price event\n    /// @param _who Address of the caller\n    /// @param _targetDrago Address of the target Drago\n    /// @param _sellPrice Value of the price of one share in wei\n    /// @param _buyPrice Value of the price of one share in wei\n    /// @return Bool the transaction executed successfully\n    function setDragoPrice(\n        address _who,\n        address _targetDrago,\n        uint _sellPrice,\n        uint _buyPrice)\n        external\n        approvedDragoOnly(_targetDrago)\n        returns(bool success)\n    {\n        require(_sellPrice > 10 finney && _buyPrice > 10 finney);\n        require(msg.sender == _targetDrago);\n        NewNAV(_targetDrago, msg.sender, _who, _sellPrice, _buyPrice);\n        return true;\n    }\n\n    /// @dev Logs a Drago Deposit To Exchange event\n    /// @param _who Address of the caller\n    /// @param _targetDrago Address of the target Drago\n    /// @param _exchange Address of the exchange\n    /// @param _token Address of the deposited token\n    /// @param _value Number of deposited tokens\n    /// @return Bool the transaction executed successfully\n    function depositToExchange(\n        address _who,\n        address _targetDrago,\n        address _exchange,\n        address _token,\n        uint256 _value)\n        external\n        approvedDragoOnly(_targetDrago)\n        approvedExchangeOnly(_exchange)\n        returns(bool success)\n    {\n        require (msg.sender == _targetDrago);\n        DepositExchange(_targetDrago, _exchange, _token, _value, 0);\n        return true;\n    }\n\n    /// @dev Logs a Drago Withdraw From Exchange event\n    /// @param _who Address of the caller\n    /// @param _targetDrago Address of the target Drago\n    /// @param _exchange Address of the exchange\n    /// @param _token Address of the withdrawn token\n    /// @param _value Number of withdrawn tokens\n    /// @return Bool the transaction executed successfully\n    function withdrawFromExchange(\n        address _who,\n        address _targetDrago,\n        address _exchange,\n        address _token,\n        uint256 _value)\n        external\n        approvedDragoOnly(_targetDrago)\n        approvedExchangeOnly(_exchange)\n        returns(bool success)\n    {\n        require (_targetDrago != 0);\n        require (msg.sender == _targetDrago);\n        WithdrawExchange(_targetDrago, _exchange, _token, _value, 0);\n        return true;\n    }\n\n    function placeOrderExchange(\n        address _who,\n        address _exchange,\n        address _targetDrago,\n        address _tokenGet,\n        uint _amountGet,\n        address _tokenGive,\n        uint _amountGive,\n        uint _expires)\n        external\n        approvedDragoOnly(_targetDrago)\n        approvedExchangeOnly(_exchange)\n        returns(bool success)\n    {\n        require (_targetDrago != 0);\n        require (msg.sender == _targetDrago);\n        OrderExchange(_targetDrago, _exchange, _tokenGet, _amountGet, 0);\n        return true;\n    }\n\n    function placeOrderCFDExchange(\n        address _who,\n        address _targetDrago,\n        address _cfdExchange,\n        address _cfd,\n        bool _is_stable,\n        uint32 _adjustment,\n        uint128 _stake)\n        external\n        approvedDragoOnly(_targetDrago)\n        approvedExchangeOnly(_cfdExchange)\n        approvedAsset(_cfd)\n        returns(bool success)\n    {\n        require (msg.sender == _targetDrago);\n        OrderExchange(_targetDrago, _cfdExchange, _cfd, _stake, _adjustment);\n        return true;\n    }\n\n    function placeTradeExchange(\n        address _who,\n        address _targetDrago,\n        address _exchange,\n        address _tokenGet,\n        uint _amountGet,\n        address _tokenGive,\n        uint _amountGive,\n        uint _expires,\n        address _user,\n        uint _amount)\n        external\n        approvedDragoOnly(_targetDrago)\n        approvedExchangeOnly(_exchange)\n        returns(bool success)\n    {\n        require (_targetDrago != 0);\n        require (msg.sender == _targetDrago);\n        //TradeExchange(_targetDrago, _exchange, _tokenGet, _tokenGive, _amountGet, _amountGive, _user);\n        return true;\n    }\n\n    function cancelOrderExchange(\n        address _who,\n        address _targetDrago,\n        address _exchange,\n        address _tokenGet,\n        uint _amountGet,\n        address _tokenGive,\n        uint _amountGive,\n        uint _expires)\n        external\n        approvedDragoOnly(_targetDrago)\n        approvedExchangeOnly(_exchange)\n        returns(bool success)\n    {\n        require (_targetDrago != 0);\n        require (msg.sender == _targetDrago);\n        CancelOrder(_targetDrago, _exchange, _tokenGet, _amountGet, 0);\n        return true;\n    }\n\n    function cancelOrderCFDExchange(\n        address _who,\n        address _targetDrago,\n        address _cfdExchange,\n        address _cfd,\n        uint32 _id)\n        external\n        approvedDragoOnly(_targetDrago)\n        approvedExchangeOnly(_cfdExchange)\n        approvedAsset(_cfd)\n        returns(bool success)\n    {\n        require (msg.sender == _targetDrago);\n        CancelOrder(_targetDrago, _cfdExchange, _cfd, 0,_id);\n        return true;\n    }\n\n    function finalizeDealCFDExchange(\n        address _who,\n        address _targetDrago,\n        address _cfdExchange,\n        address _cfd,\n        uint24 _id)\n        external\n        approvedDragoOnly(_targetDrago)\n        approvedExchangeOnly(_cfdExchange)\n        approvedAsset(_cfd)\n        returns(bool success)\n    {\n        require (msg.sender == _targetDrago);\n        DealFinalized(_targetDrago, _cfdExchange, _cfd, 0, _id);\n        return true;\n    }\n\n    /// @dev Logs a modification of the transaction fee event\n    /// @param _who Address of the caller\n    /// @param _targetDrago Address of the target Drago\n    /// @param _transactionFee Value of the transaction fee in basis points\n    /// @return Bool the transaction executed successfully\n    function setTransactionFee(\n        address _who,\n        address _targetDrago,\n        uint _transactionFee)\n        external\n        approvedDragoOnly(_targetDrago)\n        approvedUserOnly(_who)\n        returns(bool success)\n    {\n        require (msg.sender == _targetDrago);\n        NewFee(_targetDrago, msg.sender, _who, _transactionFee);\n        return true;\n    }\n\n    /// @dev Logs when wizard changes fee collector address\n    /// @param _who Address of the caller\n    /// @param _targetDrago Address of the target Drago\n    /// @param _feeCollector Address of the new fee collector\n    /// @return Bool the transaction executed successfully\n    function changeFeeCollector(\n        address _who,\n        address _targetDrago,\n        address _feeCollector)\n        external\n        approvedDragoOnly(_targetDrago)\n        approvedUserOnly(_who)\n        returns(bool success)\n    {\n        require (msg.sender == _targetDrago);\n        NewCollector(_targetDrago, msg.sender, _who, _feeCollector);\n        return true;\n    }\n\n    /// @dev Logs a new Drago creation by factory\n    /// @param _who Address of the caller\n    /// @param _dragoFactory Address of the factory\n    /// @param _newDrago Address of the new Drago\n    /// @param _name String of the name of the new drago\n    /// @param _symbol String of the symbol of the new drago\n    /// @param _dragoId Number of the new drago Id\n    /// @return Bool the transaction executed successfully\n    function createDrago(\n        address _who,\n        address _dragoFactory,\n        address _newDrago,\n        string _name,\n        string _symbol,\n        uint _dragoId)\n        external\n        approvedFactoryOnly(_dragoFactory)\n        returns(bool success)\n    {\n        require (msg.sender == _dragoFactory);\n        DragoCreated(_newDrago, _dragoFactory, _who, _dragoId, _name, _symbol);\n        return true;\n    }\n}\n",
  "sourcePath": "/home/gab/truffle/contracts/contracts/DragoEventful/DragoEventful.sol",
  "compiler": {
    "name": "solc",
    "version": "0.4.19+commit.c4cbbb05.Emscripten.clang"
  },
  "schemaVersion": "2.0.0",
  "updatedAt": "2018-03-05T21:05:52.497Z"
}