{
  "contractName": "DragoEventfulFace",
  "abi": [
    {
      "anonymous": false,
      "inputs": [
        {
          "indexed": true,
          "name": "drago",
          "type": "address"
        },
        {
          "indexed": true,
          "name": "from",
          "type": "address"
        },
        {
          "indexed": true,
          "name": "to",
          "type": "address"
        },
        {
          "indexed": false,
          "name": "amount",
          "type": "uint256"
        },
        {
          "indexed": false,
          "name": "revenue",
          "type": "uint256"
        },
        {
          "indexed": false,
          "name": "name",
          "type": "bytes"
        },
        {
          "indexed": false,
          "name": "symbol",
          "type": "bytes"
        }
      ],
      "name": "BuyDrago",
      "type": "event"
    },
    {
      "anonymous": false,
      "inputs": [
        {
          "indexed": true,
          "name": "drago",
          "type": "address"
        },
        {
          "indexed": true,
          "name": "from",
          "type": "address"
        },
        {
          "indexed": true,
          "name": "to",
          "type": "address"
        },
        {
          "indexed": false,
          "name": "amount",
          "type": "uint256"
        },
        {
          "indexed": false,
          "name": "revenue",
          "type": "uint256"
        },
        {
          "indexed": false,
          "name": "name",
          "type": "bytes"
        },
        {
          "indexed": false,
          "name": "symbol",
          "type": "bytes"
        }
      ],
      "name": "SellDrago",
      "type": "event"
    },
    {
      "anonymous": false,
      "inputs": [
        {
          "indexed": true,
          "name": "drago",
          "type": "address"
        },
        {
          "indexed": true,
          "name": "from",
          "type": "address"
        },
        {
          "indexed": true,
          "name": "to",
          "type": "address"
        },
        {
          "indexed": false,
          "name": "sellPrice",
          "type": "uint256"
        },
        {
          "indexed": false,
          "name": "buyPrice",
          "type": "uint256"
        }
      ],
      "name": "NewNAV",
      "type": "event"
    },
    {
      "anonymous": false,
      "inputs": [
        {
          "indexed": true,
          "name": "drago",
          "type": "address"
        },
        {
          "indexed": true,
          "name": "exchange",
          "type": "address"
        },
        {
          "indexed": true,
          "name": "token",
          "type": "address"
        },
        {
          "indexed": false,
          "name": "value",
          "type": "uint256"
        },
        {
          "indexed": false,
          "name": "amount",
          "type": "uint256"
        }
      ],
      "name": "DepositExchange",
      "type": "event"
    },
    {
      "anonymous": false,
      "inputs": [
        {
          "indexed": true,
          "name": "drago",
          "type": "address"
        },
        {
          "indexed": true,
          "name": "exchange",
          "type": "address"
        },
        {
          "indexed": true,
          "name": "token",
          "type": "address"
        },
        {
          "indexed": false,
          "name": "value",
          "type": "uint256"
        },
        {
          "indexed": false,
          "name": "amount",
          "type": "uint256"
        }
      ],
      "name": "WithdrawExchange",
      "type": "event"
    },
    {
      "anonymous": false,
      "inputs": [
        {
          "indexed": true,
          "name": "drago",
          "type": "address"
        },
        {
          "indexed": true,
          "name": "exchange",
          "type": "address"
        },
        {
          "indexed": true,
          "name": "cfd",
          "type": "address"
        },
        {
          "indexed": false,
          "name": "value",
          "type": "uint256"
        },
        {
          "indexed": false,
          "name": "revenue",
          "type": "uint256"
        }
      ],
      "name": "OrderExchange",
      "type": "event"
    },
    {
      "anonymous": false,
      "inputs": [
        {
          "indexed": true,
          "name": "drago",
          "type": "address"
        },
        {
          "indexed": true,
          "name": "exchange",
          "type": "address"
        },
        {
          "indexed": false,
          "name": "tokenGet",
          "type": "address"
        },
        {
          "indexed": false,
          "name": "tokenGive",
          "type": "address"
        },
        {
          "indexed": false,
          "name": "amountGet",
          "type": "uint256"
        },
        {
          "indexed": false,
          "name": "amountGive",
          "type": "uint256"
        },
        {
          "indexed": false,
          "name": "get",
          "type": "address"
        },
        {
          "indexed": false,
          "name": "give",
          "type": "address"
        }
      ],
      "name": "TradeExchange",
      "type": "event"
    },
    {
      "anonymous": false,
      "inputs": [
        {
          "indexed": true,
          "name": "drago",
          "type": "address"
        },
        {
          "indexed": true,
          "name": "exchange",
          "type": "address"
        },
        {
          "indexed": true,
          "name": "cfd",
          "type": "address"
        },
        {
          "indexed": false,
          "name": "value",
          "type": "uint256"
        },
        {
          "indexed": false,
          "name": "id",
          "type": "uint256"
        }
      ],
      "name": "CancelOrder",
      "type": "event"
    },
    {
      "anonymous": false,
      "inputs": [
        {
          "indexed": true,
          "name": "drago",
          "type": "address"
        },
        {
          "indexed": true,
          "name": "exchange",
          "type": "address"
        },
        {
          "indexed": true,
          "name": "cfd",
          "type": "address"
        },
        {
          "indexed": false,
          "name": "value",
          "type": "uint256"
        },
        {
          "indexed": false,
          "name": "id",
          "type": "uint256"
        }
      ],
      "name": "FinalizeDeal",
      "type": "event"
    },
    {
      "anonymous": false,
      "inputs": [
        {
          "indexed": true,
          "name": "drago",
          "type": "address"
        },
        {
          "indexed": true,
          "name": "group",
          "type": "address"
        },
        {
          "indexed": true,
          "name": "owner",
          "type": "address"
        },
        {
          "indexed": false,
          "name": "dragoId",
          "type": "uint256"
        },
        {
          "indexed": false,
          "name": "name",
          "type": "string"
        },
        {
          "indexed": false,
          "name": "symbol",
          "type": "string"
        }
      ],
      "name": "DragoCreated",
      "type": "event"
    },
    {
      "constant": false,
      "inputs": [
        {
          "name": "_who",
          "type": "address"
        },
        {
          "name": "_targetDrago",
          "type": "address"
        },
        {
          "name": "_value",
          "type": "uint256"
        },
        {
          "name": "_amount",
          "type": "uint256"
        },
        {
          "name": "_name",
          "type": "bytes"
        },
        {
          "name": "_symbol",
          "type": "bytes"
        }
      ],
      "name": "buyDrago",
      "outputs": [
        {
          "name": "success",
          "type": "bool"
        }
      ],
      "payable": false,
      "stateMutability": "nonpayable",
      "type": "function"
    },
    {
      "constant": false,
      "inputs": [
        {
          "name": "_who",
          "type": "address"
        },
        {
          "name": "_targetDrago",
          "type": "address"
        },
        {
          "name": "_amount",
          "type": "uint256"
        },
        {
          "name": "_revenue",
          "type": "uint256"
        },
        {
          "name": "_name",
          "type": "bytes"
        },
        {
          "name": "_symbol",
          "type": "bytes"
        }
      ],
      "name": "sellDrago",
      "outputs": [
        {
          "name": "success",
          "type": "bool"
        }
      ],
      "payable": false,
      "stateMutability": "nonpayable",
      "type": "function"
    },
    {
      "constant": false,
      "inputs": [
        {
          "name": "_who",
          "type": "address"
        },
        {
          "name": "_targetDrago",
          "type": "address"
        },
        {
          "name": "_sellPrice",
          "type": "uint256"
        },
        {
          "name": "_buyPrice",
          "type": "uint256"
        }
      ],
      "name": "setDragoPrice",
      "outputs": [
        {
          "name": "success",
          "type": "bool"
        }
      ],
      "payable": false,
      "stateMutability": "nonpayable",
      "type": "function"
    },
    {
      "constant": false,
      "inputs": [
        {
          "name": "_who",
          "type": "address"
        },
        {
          "name": "_targetDrago",
          "type": "address"
        },
        {
          "name": "_ratio",
          "type": "uint256"
        }
      ],
      "name": "changeRatio",
      "outputs": [
        {
          "name": "success",
          "type": "bool"
        }
      ],
      "payable": false,
      "stateMutability": "nonpayable",
      "type": "function"
    },
    {
      "constant": false,
      "inputs": [
        {
          "name": "_who",
          "type": "address"
        },
        {
          "name": "_targetDrago",
          "type": "address"
        },
        {
          "name": "_transactionFee",
          "type": "uint256"
        }
      ],
      "name": "setTransactionFee",
      "outputs": [
        {
          "name": "success",
          "type": "bool"
        }
      ],
      "payable": false,
      "stateMutability": "nonpayable",
      "type": "function"
    },
    {
      "constant": false,
      "inputs": [
        {
          "name": "_who",
          "type": "address"
        },
        {
          "name": "_targetDrago",
          "type": "address"
        },
        {
          "name": "_feeCollector",
          "type": "address"
        }
      ],
      "name": "changeFeeCollector",
      "outputs": [
        {
          "name": "success",
          "type": "bool"
        }
      ],
      "payable": false,
      "stateMutability": "nonpayable",
      "type": "function"
    },
    {
      "constant": false,
      "inputs": [
        {
          "name": "_who",
          "type": "address"
        },
        {
          "name": "_targetDrago",
          "type": "address"
        },
        {
          "name": "_dragoDao",
          "type": "address"
        }
      ],
      "name": "changeDragoDao",
      "outputs": [
        {
          "name": "success",
          "type": "bool"
        }
      ],
      "payable": false,
      "stateMutability": "nonpayable",
      "type": "function"
    },
    {
      "constant": false,
      "inputs": [
        {
          "name": "_who",
          "type": "address"
        },
        {
          "name": "_targetDrago",
          "type": "address"
        },
        {
          "name": "_exchange",
          "type": "address"
        },
        {
          "name": "_token",
          "type": "address"
        },
        {
          "name": "_value",
          "type": "uint256"
        }
      ],
      "name": "depositToExchange",
      "outputs": [
        {
          "name": "success",
          "type": "bool"
        }
      ],
      "payable": false,
      "stateMutability": "nonpayable",
      "type": "function"
    },
    {
      "constant": false,
      "inputs": [
        {
          "name": "_who",
          "type": "address"
        },
        {
          "name": "_targetDrago",
          "type": "address"
        },
        {
          "name": "_exchange",
          "type": "address"
        },
        {
          "name": "_token",
          "type": "address"
        },
        {
          "name": "_value",
          "type": "uint256"
        }
      ],
      "name": "withdrawFromExchange",
      "outputs": [
        {
          "name": "success",
          "type": "bool"
        }
      ],
      "payable": false,
      "stateMutability": "nonpayable",
      "type": "function"
    },
    {
      "constant": false,
      "inputs": [
        {
          "name": "_who",
          "type": "address"
        },
        {
          "name": "_targetDrago",
          "type": "address"
        },
        {
          "name": "_exchange",
          "type": "address"
        },
        {
          "name": "_tokenGet",
          "type": "address"
        },
        {
          "name": "_amountGet",
          "type": "uint256"
        },
        {
          "name": "_tokenGive",
          "type": "address"
        },
        {
          "name": "_amountGive",
          "type": "uint256"
        },
        {
          "name": "_expires",
          "type": "uint256"
        }
      ],
      "name": "placeOrderExchange",
      "outputs": [
        {
          "name": "success",
          "type": "bool"
        }
      ],
      "payable": false,
      "stateMutability": "nonpayable",
      "type": "function"
    },
    {
      "constant": false,
      "inputs": [
        {
          "name": "_who",
          "type": "address"
        },
        {
          "name": "_targetDrago",
          "type": "address"
        },
        {
          "name": "_exchange",
          "type": "address"
        },
        {
          "name": "_tokenGet",
          "type": "address"
        },
        {
          "name": "_amountGet",
          "type": "uint256"
        },
        {
          "name": "_tokenGive",
          "type": "address"
        },
        {
          "name": "_amountGive",
          "type": "uint256"
        },
        {
          "name": "_expires",
          "type": "uint256"
        },
        {
          "name": "_user",
          "type": "address"
        },
        {
          "name": "_amount",
          "type": "uint256"
        }
      ],
      "name": "placeTradeExchange",
      "outputs": [
        {
          "name": "success",
          "type": "bool"
        }
      ],
      "payable": false,
      "stateMutability": "nonpayable",
      "type": "function"
    },
    {
      "constant": false,
      "inputs": [
        {
          "name": "_who",
          "type": "address"
        },
        {
          "name": "_targetDrago",
          "type": "address"
        },
        {
          "name": "_cfdExchange",
          "type": "address"
        },
        {
          "name": "_cfd",
          "type": "address"
        },
        {
          "name": "_is_stable",
          "type": "bool"
        },
        {
          "name": "_adjustment",
          "type": "uint32"
        },
        {
          "name": "_stake",
          "type": "uint128"
        }
      ],
      "name": "placeOrderCFDExchange",
      "outputs": [
        {
          "name": "success",
          "type": "bool"
        }
      ],
      "payable": false,
      "stateMutability": "nonpayable",
      "type": "function"
    },
    {
      "constant": false,
      "inputs": [
        {
          "name": "_who",
          "type": "address"
        },
        {
          "name": "_targetDrago",
          "type": "address"
        },
        {
          "name": "_exchange",
          "type": "address"
        },
        {
          "name": "_tokenGet",
          "type": "address"
        },
        {
          "name": "_amountGet",
          "type": "uint256"
        },
        {
          "name": "_tokenGive",
          "type": "address"
        },
        {
          "name": "_amountGive",
          "type": "uint256"
        },
        {
          "name": "_expires",
          "type": "uint256"
        }
      ],
      "name": "cancelOrderExchange",
      "outputs": [
        {
          "name": "success",
          "type": "bool"
        }
      ],
      "payable": false,
      "stateMutability": "nonpayable",
      "type": "function"
    },
    {
      "constant": false,
      "inputs": [
        {
          "name": "_who",
          "type": "address"
        },
        {
          "name": "_targetDrago",
          "type": "address"
        },
        {
          "name": "_cfdExchange",
          "type": "address"
        },
        {
          "name": "_cfd",
          "type": "address"
        },
        {
          "name": "_id",
          "type": "uint32"
        }
      ],
      "name": "cancelOrderCFDExchange",
      "outputs": [
        {
          "name": "success",
          "type": "bool"
        }
      ],
      "payable": false,
      "stateMutability": "nonpayable",
      "type": "function"
    },
    {
      "constant": false,
      "inputs": [
        {
          "name": "_who",
          "type": "address"
        },
        {
          "name": "_targetDrago",
          "type": "address"
        },
        {
          "name": "_exchange",
          "type": "address"
        },
        {
          "name": "_cfd",
          "type": "address"
        },
        {
          "name": "_id",
          "type": "uint24"
        }
      ],
      "name": "finalizedDealExchange",
      "outputs": [
        {
          "name": "success",
          "type": "bool"
        }
      ],
      "payable": false,
      "stateMutability": "nonpayable",
      "type": "function"
    },
    {
      "constant": false,
      "inputs": [
        {
          "name": "_who",
          "type": "address"
        },
        {
          "name": "_dragoFactory",
          "type": "address"
        },
        {
          "name": "_newDrago",
          "type": "address"
        },
        {
          "name": "_name",
          "type": "string"
        },
        {
          "name": "_symbol",
          "type": "string"
        },
        {
          "name": "_dragoId",
          "type": "uint256"
        },
        {
          "name": "_owner",
          "type": "address"
        }
      ],
      "name": "createDrago",
      "outputs": [
        {
          "name": "success",
          "type": "bool"
        }
      ],
      "payable": false,
      "stateMutability": "nonpayable",
      "type": "function"
    }
  ],
  "bytecode": "0x6060604052341561000f57600080fd5b61041f8061001e6000396000f3006060604052600436106100e55763ffffffff7c010000000000000000000000000000000000000000000000000000000060003504166310d325e681146100ea578063198f7472146101525780632a44fba5146101935780632b459b7b146101be5780632cc4e4b61461020c5780632ec576121461020c57806339f80b761461025357806341167aa9146102a15780634666b856146102d557806347f725b01461030f578063554a78181461034857806391f1df8414610373578063d5aaa73a14610373578063f39ba93214610193578063f78e518f146102a1578063fdd24c4b14610152575b600080fd5b34156100f557600080fd5b61013e600160a060020a0360043581169060243581169060443581169060643516608435151563ffffffff60a435166fffffffffffffffffffffffffffffffff60c4351661039b565b604051901515815260200160405180910390f35b341561015d57600080fd5b61013e600160a060020a036004358116906024358116906044358116906064358116906084359060a4351660c43560e4356103a8565b341561019e57600080fd5b61013e600160a060020a03600435811690602435811690604435166103b6565b34156101c957600080fd5b61013e600160a060020a036004803582169160248035821692604435831692606435808401939083013592608435918201929101359060a4359060c435166103bf565b341561021757600080fd5b61013e600160a060020a03600480358216916024803590911691604435916064359160843580830192908201359160a4359182019101356103a8565b341561025e57600080fd5b61013e600160a060020a036004358116906024358116906044358116906064358116906084359060a43581169060c4359060e435906101043516610124356103ce565b34156102ac57600080fd5b61013e600160a060020a03600435811690602435811690604435811690606435166084356103de565b34156102e057600080fd5b61013e600160a060020a036004358116906024358116906044358116906064351663ffffffff608435166103de565b341561031a57600080fd5b61013e600160a060020a036004358116906024358116906044358116906064351662ffffff608435166103de565b341561035357600080fd5b61013e600160a060020a03600435811690602435166044356064356103e9565b341561037e57600080fd5b61013e600160a060020a03600435811690602435166044356103b6565b6000979650505050505050565b600098975050505050505050565b60009392505050565b60009998505050505050505050565b60009a9950505050505050505050565b600095945050505050565b60009493505050505600a165627a7a7230582032e72708fa2814d44af02ebf3a7c1272fbd2bfbbb21c57a2233dcd2ca3a5628e0029",
  "source": "/*\n\n Copyright 2017-2018 RigoBlock, Rigo Investment Sagl.\n\n Licensed under the Apache License, Version 2.0 (the \"License\");\n you may not use this file except in compliance with the License.\n You may obtain a copy of the License at\n\n     http://www.apache.org/licenses/LICENSE-2.0\n\n Unless required by applicable law or agreed to in writing, software\n distributed under the License is distributed on an \"AS IS\" BASIS,\n WITHOUT WARRANTIES OR CONDITIONS OF ANY KIND, either express or implied.\n See the License for the specific language governing permissions and\n limitations under the License.\n\n*/\n\npragma solidity ^0.4.20;\n\n/// @title Drago Eventful Interface contract.\n/// @author Gabriele Rigo - <gab@rigoblock.com>\ncontract DragoEventfulFace {\n\n    // EVENTS\n\n    event BuyDrago(address indexed drago, address indexed from, address indexed to, uint256 amount, uint256 revenue, bytes name, bytes symbol);\n    event SellDrago(address indexed drago, address indexed from, address indexed to, uint256 amount, uint256 revenue, bytes name, bytes symbol);\n    event NewNAV(address indexed drago, address indexed from, address indexed to, uint sellPrice, uint buyPrice);\n    event DepositExchange(address indexed drago, address indexed exchange, address indexed token, uint value, uint256 amount);\n    event WithdrawExchange(address indexed drago, address indexed exchange, address indexed token, uint value, uint256 amount);\n    event OrderExchange(address indexed drago, address indexed exchange, address indexed cfd, uint value, uint revenue);\n    event TradeExchange(address indexed drago, address indexed exchange, address tokenGet, address tokenGive, uint amountGet, uint amountGive, address get, address give);\n    event CancelOrder(address indexed drago, address indexed exchange, address indexed cfd, uint value, uint id);\n    event FinalizeDeal(address indexed drago, address indexed exchange, address indexed cfd, uint value, uint id);\n    event DragoCreated(address indexed drago, address indexed group, address indexed owner, uint dragoId, string name, string symbol);\n\n    // CORE FUNCTIONS\n\n    function buyDrago(address _who, address _targetDrago, uint _value, uint _amount, bytes _name, bytes _symbol) external returns (bool success) {}\n    function sellDrago(address _who, address _targetDrago, uint _amount, uint _revenue, bytes _name, bytes _symbol) external returns(bool success) {}\n    function setDragoPrice(address _who, address _targetDrago, uint _sellPrice, uint _buyPrice) external returns(bool success) {}\n    function changeRatio(address _who, address _targetDrago, uint256 _ratio) external returns(bool success) {}\n    function setTransactionFee(address _who, address _targetDrago, uint _transactionFee) external returns(bool success) {}\n    function changeFeeCollector(address _who, address _targetDrago, address _feeCollector) external returns(bool success) {}\n    function changeDragoDao(address _who, address _targetDrago, address _dragoDao) external returns(bool success) {}\n    function depositToExchange(address _who, address _targetDrago, address _exchange, address _token, uint256 _value) external returns(bool success) {}\n    function withdrawFromExchange(address _who, address _targetDrago, address _exchange, address _token, uint256 _value) external returns(bool success) {}\n    function placeOrderExchange(address _who, address _targetDrago, address _exchange, address _tokenGet, uint _amountGet, address _tokenGive, uint _amountGive, uint _expires) external returns(bool success) {}\n    function placeTradeExchange(address _who, address _targetDrago, address _exchange, address _tokenGet, uint _amountGet, address _tokenGive, uint _amountGive, uint _expires, address _user, uint _amount) external returns(bool success) {}\n    function placeOrderCFDExchange(address _who, address _targetDrago, address _cfdExchange, address _cfd, bool _is_stable, uint32 _adjustment, uint128 _stake) external returns(bool success) {}\n    function cancelOrderExchange(address _who, address _targetDrago, address _exchange, address _tokenGet, uint _amountGet, address _tokenGive, uint _amountGive, uint _expires) external returns(bool success) {}\n    function cancelOrderCFDExchange(address _who, address _targetDrago, address _cfdExchange, address _cfd, uint32 _id) external returns(bool success) {}\n    function finalizedDealExchange(address _who, address _targetDrago, address _exchange, address _cfd, uint24 _id) external returns(bool success) {}\n    function createDrago(address _who, address _dragoFactory, address _newDrago, string _name, string _symbol, uint _dragoId, address _owner) external returns(bool success) {}\n}\n",
  "sourcePath": "/home/gab/truffle/contracts/contracts/DragoEventful/DragoEventfulFace.sol",
  "compiler": {
    "name": "solc",
    "version": "0.4.19+commit.c4cbbb05.Emscripten.clang"
  },
  "schemaVersion": "2.0.0",
  "updatedAt": "2018-03-05T21:05:52.508Z"
}