{
  "contractName": "DragoFactory",
  "abi": [
    {
      "constant": false,
      "inputs": [
        {
          "name": "_new",
          "type": "address"
        }
      ],
      "name": "setOwner",
      "outputs": [],
      "payable": false,
      "stateMutability": "nonpayable",
      "type": "function"
    },
    {
      "constant": true,
      "inputs": [],
      "name": "getOwner",
      "outputs": [
        {
          "name": "",
          "type": "address"
        }
      ],
      "payable": false,
      "stateMutability": "view",
      "type": "function"
    },
    {
      "constant": true,
      "inputs": [],
      "name": "owner",
      "outputs": [
        {
          "name": "",
          "type": "address"
        }
      ],
      "payable": false,
      "stateMutability": "view",
      "type": "function"
    },
    {
      "constant": true,
      "inputs": [],
      "name": "VERSION",
      "outputs": [
        {
          "name": "",
          "type": "string"
        }
      ],
      "payable": false,
      "stateMutability": "view",
      "type": "function"
    },
    {
      "inputs": [
        {
          "name": "_registry",
          "type": "address"
        },
        {
          "name": "_dragoDao",
          "type": "address"
        },
        {
          "name": "_authority",
          "type": "address"
        }
      ],
      "payable": false,
      "stateMutability": "nonpayable",
      "type": "constructor"
    },
    {
      "anonymous": false,
      "inputs": [
        {
          "indexed": false,
          "name": "name",
          "type": "string"
        },
        {
          "indexed": false,
          "name": "symbol",
          "type": "string"
        },
        {
          "indexed": true,
          "name": "drago",
          "type": "address"
        },
        {
          "indexed": true,
          "name": "owner",
          "type": "address"
        },
        {
          "indexed": false,
          "name": "dragoId",
          "type": "uint256"
        }
      ],
      "name": "DragoCreated",
      "type": "event"
    },
    {
      "anonymous": false,
      "inputs": [
        {
          "indexed": true,
          "name": "old",
          "type": "address"
        },
        {
          "indexed": true,
          "name": "current",
          "type": "address"
        }
      ],
      "name": "NewOwner",
      "type": "event"
    },
    {
      "constant": false,
      "inputs": [
        {
          "name": "_name",
          "type": "string"
        },
        {
          "name": "_symbol",
          "type": "string"
        }
      ],
      "name": "createDrago",
      "outputs": [
        {
          "name": "success",
          "type": "bool"
        }
      ],
      "payable": false,
      "stateMutability": "nonpayable",
      "type": "function"
    },
    {
      "constant": false,
      "inputs": [
        {
          "name": "_targetDrago",
          "type": "address"
        },
        {
          "name": "_dragoDao",
          "type": "address"
        }
      ],
      "name": "setTargetDragoDao",
      "outputs": [],
      "payable": false,
      "stateMutability": "nonpayable",
      "type": "function"
    },
    {
      "constant": false,
      "inputs": [
        {
          "name": "_newDragoDao",
          "type": "address"
        }
      ],
      "name": "changeDragoDao",
      "outputs": [],
      "payable": false,
      "stateMutability": "nonpayable",
      "type": "function"
    },
    {
      "constant": false,
      "inputs": [
        {
          "name": "_newRegistry",
          "type": "address"
        }
      ],
      "name": "setRegistry",
      "outputs": [],
      "payable": false,
      "stateMutability": "nonpayable",
      "type": "function"
    },
    {
      "constant": false,
      "inputs": [
        {
          "name": "_dragoDao",
          "type": "address"
        }
      ],
      "name": "setBeneficiary",
      "outputs": [],
      "payable": false,
      "stateMutability": "nonpayable",
      "type": "function"
    },
    {
      "constant": false,
      "inputs": [
        {
          "name": "_fee",
          "type": "uint256"
        }
      ],
      "name": "setFee",
      "outputs": [],
      "payable": false,
      "stateMutability": "nonpayable",
      "type": "function"
    },
    {
      "constant": false,
      "inputs": [],
      "name": "drain",
      "outputs": [],
      "payable": false,
      "stateMutability": "nonpayable",
      "type": "function"
    },
    {
      "constant": true,
      "inputs": [],
      "name": "getRegistry",
      "outputs": [
        {
          "name": "",
          "type": "address"
        }
      ],
      "payable": false,
      "stateMutability": "view",
      "type": "function"
    },
    {
      "constant": true,
      "inputs": [],
      "name": "getStorage",
      "outputs": [
        {
          "name": "dragoDao",
          "type": "address"
        },
        {
          "name": "version",
          "type": "string"
        },
        {
          "name": "nextDragoId",
          "type": "uint256"
        }
      ],
      "payable": false,
      "stateMutability": "view",
      "type": "function"
    },
    {
      "constant": true,
      "inputs": [],
      "name": "getNextId",
      "outputs": [
        {
          "name": "nextDragoId",
          "type": "uint256"
        }
      ],
      "payable": false,
      "stateMutability": "view",
      "type": "function"
    },
    {
      "constant": true,
      "inputs": [],
      "name": "getEventful",
      "outputs": [
        {
          "name": "",
          "type": "address"
        }
      ],
      "payable": false,
      "stateMutability": "view",
      "type": "function"
    },
    {
      "constant": true,
      "inputs": [
        {
          "name": "_owner",
          "type": "address"
        }
      ],
      "name": "getDragosByAddress",
      "outputs": [
        {
          "name": "",
          "type": "address[]"
        }
      ],
      "payable": false,
      "stateMutability": "view",
      "type": "function"
    }
  ],
  "bytecode": "0x6060604052341561000f57600080fd5b6040516060806131ef83398101604052808051919060200180519190602001805160078054600160a060020a0319908116600160a060020a0397881617909155600880548216958716959095179094556009805485169186169190911790555050600080549091163390921691909117815561315e90819061009190396000f300606060405260043610620000dd5763ffffffff60e060020a60003504166313af40358114620000e25780631c31f71014620001065780633408f73a14620001285780633dcc8b8914620001d05780635ab1bd5314620001f857806369fe0e2d146200022a578063837929b61462000243578063893d20e814620002595780638da5cb5b146200026f5780639890220b1462000285578063a91ee0dc146200029b578063bc96832614620002bd578063c1bf130d14620002e5578063c8c3b926146200035c578063f08d29d5146200037e578063ffa1ad741462000428575b600080fd5b3415620000ee57600080fd5b62000104600160a060020a0360043516620004b8565b005b34156200011257600080fd5b62000104600160a060020a036004351662000526565b34156200013457600080fd5b6200013e62000564565b604051600160a060020a03841681526040810182905260606020820181815290820184818151815260200191508051906020019080838360005b838110156200019257808201518382015260200162000178565b50505050905090810190601f168015620001c05780820380516001836020036101000a031916815260200191505b5094505050505060405180910390f35b3415620001dc57600080fd5b62000104600160a060020a0360043581169060243516620005ce565b34156200020457600080fd5b6200020e62000656565b604051600160a060020a03909116815260200160405180910390f35b34156200023657600080fd5b6200010460043562000666565b34156200024f57600080fd5b6200020e62000687565b34156200026557600080fd5b6200020e620006f5565b34156200027b57600080fd5b6200020e62000704565b34156200029157600080fd5b6200010462000713565b3415620002a757600080fd5b62000104600160a060020a03600435166200076b565b3415620002c957600080fd5b620002d3620007a9565b60405190815260200160405180910390f35b3415620002f157600080fd5b62000307600160a060020a0360043516620007f5565b60405160208082528190810183818151815260200191508051906020019060200280838360005b83811015620003485780820151838201526020016200032e565b505050509050019250505060405180910390f35b34156200036857600080fd5b62000104600160a060020a036004351662000889565b34156200038a57600080fd5b6200041460046024813581810190830135806020601f8201819004810201604051908101604052818152929190602084018383808284378201915050505050509190803590602001908201803590602001908080601f016020809104026020016040519081016040528181529291906020840183838082843750949650620008a595505050505050565b604051901515815260200160405180910390f35b34156200043457600080fd5b6200043e62000b28565b60405160208082528190810183818151815260200191508051906020019080838360005b838110156200047c57808201518382015260200162000462565b50505050905090810190601f168015620004aa5780820380516001836020036101000a031916815260200191505b509250505060405180910390f35b60005433600160a060020a03908116911614620004d457600080fd5b60008054600160a060020a031916600160a060020a03838116918217928390559091167f70aea8d848e8a90fb7661b227dc522eb6395c3dac71b63cb59edd5c9899b236460405160405180910390a350565b60005433600160a060020a039081169116146200054257600080fd5b60088054600160a060020a031916600160a060020a0392909216919091179055565b60006200057062001232565b600854600160a060020a0316915060008260408051908101604052600881527f564620302e342e310000000000000000000000000000000000000000000000006020820152925082620005c2620007a9565b91945092509050909192565b6000805433600160a060020a03908116911614620005eb57600080fd5b5081600160a060020a03811663c8c3b9268360405160e060020a63ffffffff8416028152600160a060020a039091166004820152602401600060405180830381600087803b15156200063c57600080fd5b6102c65a03f115156200064e57600080fd5b505050505050565b600754600160a060020a03165b90565b60005433600160a060020a039081169116146200068257600080fd5b600655565b600954600090600160a060020a0316806326c7a0de83604051602001526040518163ffffffff1660e060020a028152600401602060405180830381600087803b1515620006d357600080fd5b6102c65a03f11515620006e557600080fd5b50505060405180519250505b5090565b600054600160a060020a031690565b600054600160a060020a031681565b60005433600160a060020a039081169116146200072f57600080fd5b600854600160a060020a039081169030163180156108fc0290604051600060405180830381858888f1935050505015156200076957600080fd5b565b60005433600160a060020a039081169116146200078757600080fd5b60078054600160a060020a031916600160a060020a0392909216919091179055565b600754600090600160a060020a03168063cd6f4e0d83604051602001526040518163ffffffff1660e060020a028152600401602060405180830381600087803b1515620006d357600080fd5b620007ff62001232565b6006600401600083600160a060020a0316600160a060020a031681526020019081526020016000208054806020026020016040519081016040528092919081815260200182805480156200087d57602002820191906000526020600020905b8154600160a060020a031681526001909101906020018083116200085e575b50505050509050919050565b60085433600160a060020a039081169116146200054257600080fd5b600754600090600160a060020a031681808263ced72f8782604051602001526040518163ffffffff1660e060020a028152600401602060405180830381600087803b1515620008f357600080fd5b6102c65a03f115156200090557600080fd5b5050506040518051925050600160a060020a03831663cd6f4e0d6000604051602001526040518163ffffffff1660e060020a028152600401602060405180830381600087803b15156200095757600080fd5b6102c65a03f115156200096957600080fd5b505050604051805190509050620009838686338462000b5f565b15156200098f57600080fd5b600554600160a060020a0380851691633fa7d3e391859116898986336000604051602001526040518763ffffffff1660e060020a0281526004018086600160a060020a0316600160a060020a03168152602001806020018060200185815260200184600160a060020a0316600160a060020a03168152602001838103835287818151815260200191508051906020019080838360005b8381101562000a3f57808201518382015260200162000a25565b50505050905090810190601f16801562000a6d5780820380516001836020036101000a031916815260200191505b50838103825286818151815260200191508051906020019080838360005b8381101562000aa557808201518382015260200162000a8b565b50505050905090810190601f16801562000ad35780820380516001836020036101000a031916815260200191505b509750505050505050506020604051808303818588803b151562000af657600080fd5b6125ee5a03f1151562000b0857600080fd5b5050505060405180519050151562000b1c57fe5b50600195945050505050565b60408051908101604052600881527f564620302e342e31000000000000000000000000000000000000000000000000602082015281565b6006546000908190819034101562000b7657600080fd5b600954600160a060020a0316915062000b956001888888888762000ff0565b151562000ba157600080fd5b600160a060020a0333166000908152600a6020526040902080546001810162000bcb838262001244565b5060009182526020822060055491018054600160a060020a031916600160a060020a039283161790558316906326c7a0de90604051602001526040518163ffffffff1660e060020a028152600401602060405180830381600087803b151562000c3357600080fd5b6102c65a03f1151562000c4557600080fd5b5050506040518051600554909250600160a060020a038084169250632b459b7b9133913091168b8b8a8c60006040516020015260405160e060020a63ffffffff8a16028152600160a060020a03808916600483019081528882166024840152878216604484015260a4830185905290831660c483015260e0606483019081529091608481019060e40187818151815260200191508051906020019080838360005b8381101562000d0057808201518382015260200162000ce6565b50505050905090810190601f16801562000d2e5780820380516001836020036101000a031916815260200191505b50838103825286818151815260200191508051906020019080838360005b8381101562000d6657808201518382015260200162000d4c565b50505050905090810190601f16801562000d945780820380516001836020036101000a031916815260200191505b509950505050505050505050602060405180830381600087803b151562000dba57600080fd5b6102c65a03f1151562000dcc57600080fd5b50505060405180519050151562000de257600080fd5b600554600160a060020a038084169163ad562f409116600160405160e060020a63ffffffff8516028152600160a060020a03909216600483015215156024820152604401600060405180830381600087803b151562000e4057600080fd5b6102c65a03f1151562000e5257600080fd5b50505081600160a060020a031663a0ca3ee133600160405160e060020a63ffffffff8516028152600160a060020a03909216600483015215156024820152604401600060405180830381600087803b151562000ead57600080fd5b6102c65a03f1151562000ebf57600080fd5b5050600554600160a060020a038088169250167fa4e8b2abe2ee98767456a805d0c502689ad4042e5d5209a8302b77fc16ba88d5898988604051808060200180602001848152602001838103835286818151815260200191508051906020019080838360005b8381101562000f3f57808201518382015260200162000f25565b50505050905090810190601f16801562000f6d5780820380516001836020036101000a031916815260200191505b50838103825285818151815260200191508051906020019080838360005b8381101562000fa557808201518382015260200162000f8b565b50505050905090810190601f16801562000fd35780820380516001836020036101000a031916815260200191505b509550505050505060405180910390a35060019695505050505050565b6000808280600160a060020a03811663dcb7a3e030856040516020015260405160e060020a63ffffffff8416028152600160a060020a039091166004820152602401602060405180830381600087803b15156200104c57600080fd5b6102c65a03f115156200105e57600080fd5b50505060405180519050156200122557898980516200108292916020019062001270565b60018b018980516200109992916020019062001270565b60028c0188905560038c018054600160a060020a031916600160a060020a038b16179055878988620010ca620012f1565b60408101849052600160a060020a0380841660608301528216608082015260a08082528654600260001961010060018416150201909116049082018190528190602082019060c083019089908015620011675780601f106200113b5761010080835404028352916020019162001167565b820191906000526020600020905b8154815290600101906020018083116200114957829003601f168201915b5050838103825287546002600019610100600184161502019091160480825260209091019088908015620011df5780601f10620011b357610100808354040283529160200191620011df565b820191906000526020600020905b815481529060010190602001808311620011c157829003601f168201915b5050975050505050505050604051809103906000f08015156200120157600080fd5b60048b018054600160a060020a031916600160a060020a0383161790556001945092505b5050509695505050505050565b60206040519081016040526000815290565b8154818355818115116200126b576000838152602090206200126b91810190830162001302565b505050565b828054600181600116156101000203166002900490600052602060002090601f016020900481019282601f10620012b357805160ff1916838001178555620012e3565b82800160010185558215620012e3579182015b82811115620012e3578251825591602001919060010190620012c6565b50620006f192915062001302565b604051611e13806200132083390190565b6200066391905b80821115620006f15760008155600101620013095600606060405234156200001057600080fd5b60405162001e1338038062001e1383398101604052808051820191906020018051820191906020018051919060200180519190602001805191506007905085805162000061929160200190620000f4565b50600884805162000077929160200190620000f4565b50600992909255670de0b6b3a7640000600b819055600c5560008054600160a060020a0319908116600160a060020a03938416908117909255600f8054821694841694909417909355601080548416339093169290921790915567016345785d8a0000601255601180549092161790555050605060135562000199565b828054600181600116156101000203166002900490600052602060002090601f016020900481019282601f106200013757805160ff191683800117855562000167565b8280016001018555821562000167579182015b82811115620001675782518255916020019190600101906200014a565b506200017592915062000179565b5090565b6200019691905b8082111562000175576000815560010162000180565b90565b611c6a80620001a96000396000f3006060604052600436106101245763ffffffff60e060020a60003504166305fefda781146101aa578063095ea7b3146101c5578063096a8ab7146101fb5780630d8e6e2c1461021157806313af40351461029b57806318160ddd146102ba57806323b872dd146102df57806326c7a0de146103075780632fbbde2d146103365780633bc5de301461033e57806354bdbd4d1461044057806354ea15381461045c5780636854f6681461047257806370a082311461048657806384193be2146104a5578063893d20e8146104c75780638da5cb5b146104da5780638f7a844b146104ed5780639245290d1461053f578063a9059cbb146101c5578063c8c3b9261461055e578063d0f187ef1461057d578063dd62ed3e1461059c578063f6a33253146105c1575b600f543390600160a060020a031680639aa4d0a08360006040516020015260405160e060020a63ffffffff8416028152600160a060020a039091166004820152602401602060405180830381600087803b151561018057600080fd5b6102c65a03f1151561019157600080fd5b5050506040518051905015156101a657600080fd5b5050005b34156101b557600080fd5b6101c36004356024356105d7565b005b34156101d057600080fd5b6101e7600160a060020a036004351660243561075e565b604051901515815260200160405180910390f35b341561020657600080fd5b6101c3600435610766565b341561021c57600080fd5b610224610830565b60405160208082528190810183818151815260200191508051906020019080838360005b83811015610260578082015183820152602001610248565b50505050905090810190601f16801561028d5780820380516001836020036101000a031916815260200191505b509250505060405180910390f35b34156102a657600080fd5b6101c3600160a060020a0360043516610871565b34156102c557600080fd5b6102cd6108eb565b60405190815260200160405180910390f35b34156102ea57600080fd5b6101e7600160a060020a03600435811690602435166044356108f1565b341561031257600080fd5b61031a6108fa565b604051600160a060020a03909116815260200160405180910390f35b6101e7610965565b341561034957600080fd5b610351610981565b604051808060200180602001858152602001848152602001838103835287818151815260200191508051906020019080838360005b8381101561039e578082015183820152602001610386565b50505050905090810190601f1680156103cb5780820380516001836020036101000a031916815260200191505b50838103825286818151815260200191508051906020019080838360005b838110156104015780820151838201526020016103e9565b50505050905090810190601f16801561042e5780820380516001836020036101000a031916815260200191505b50965050505050505060405180910390f35b341561044b57600080fd5b6101c363ffffffff60043516610ae6565b341561046757600080fd5b6101e7600435610b1d565b6101e7600160a060020a0360043516610c63565b341561049157600080fd5b6102cd600160a060020a0360043516610d06565b34156104b057600080fd5b6101c3600160a060020a0360043516602435610d21565b34156104d257600080fd5b61031a610df5565b34156104e557600080fd5b61031a610e04565b34156104f857600080fd5b610500610e13565b604051600160a060020a039586168152939094166020840152604080840192909252606083015263ffffffff909216608082015260a001905180910390f35b341561054a57600080fd5b6101c3600160a060020a0360043516610e40565b341561056957600080fd5b6101c3600160a060020a0360043516610f1b565b341561058857600080fd5b6101c3600160a060020a0360043516611002565b34156105a757600080fd5b6102cd600160a060020a036004358116906024351661075e565b34156105cc57600080fd5b6101c36004356110f1565b600f54600090600160a060020a031680632330f24733846040516020015260405160e060020a63ffffffff8416028152600160a060020a039091166004820152602401602060405180830381600087803b151561063357600080fd5b6102c65a03f1151561064457600080fd5b5050506040518051905080610667575060005433600160a060020a039081169116145b151561067257600080fd5b83838082111561068157600080fd5b600b5486908690600a90048211158061069f5750600c54600a028110155b156106a957610754565b6106b16108fa565b955085600160a060020a031663554a781833308b8b60006040516020015260405160e060020a63ffffffff8716028152600160a060020a03948516600482015292909316602483015260448201526064810191909152608401602060405180830381600087803b151561072357600080fd5b6102c65a03f1151561073457600080fd5b50505060405180519050151561074957600080fd5b600b889055600c8790555b5050505050505050565b600092915050565b6000805433600160a060020a0390811691161461078257600080fd5b606482111561079057600080fd5b6107986108fa565b905080600160a060020a031663d5aaa73a33308560006040516020015260405160e060020a63ffffffff8616028152600160a060020a0393841660048201529190921660248201526044810191909152606401602060405180830381600087803b151561080457600080fd5b6102c65a03f1151561081557600080fd5b50505060405180519050151561082a57600080fd5b50600d55565b610838611bfe565b60408051908101604052600881527f484620302e342e310000000000000000000000000000000000000000000000006020820152905090565b60005433600160a060020a0390811691161461088c57600080fd5b6000805473ffffffffffffffffffffffffffffffffffffffff1916600160a060020a03838116918217928390559091167f70aea8d848e8a90fb7661b227dc522eb6395c3dac71b63cb59edd5c9899b236460405160405180910390a350565b600a5490565b60009392505050565b600f54600090600160a060020a0316806326c7a0de83604051602001526040518163ffffffff1660e060020a028152600401602060405180830381600087803b151561094557600080fd5b6102c65a03f1151561095657600080fd5b50505060405180519250505090565b600061097033610c63565b151561097b57600080fd5b50600190565b610989611bfe565b610991611bfe565b60008060076000018054600181600116156101000203166002900480601f016020809104026020016040519081016040528092919081815260200182805460018160011615610100020316600290048015610a2d5780601f10610a0257610100808354040283529160200191610a2d565b820191906000526020600020905b815481529060010190602001808311610a1057829003601f168201915b5050505050935060076001018054600181600116156101000203166002900480601f016020809104026020016040519081016040528092919081815260200182805460018160011615610100020316600290048015610acd5780601f10610aa257610100808354040283529160200191610acd565b820191906000526020600020905b815481529060010190602001808311610ab057829003601f168201915b5050600b54600c54989994989097509550929350505050565b60105433600160a060020a03908116911614610b0157600080fd5b600e805463ffffffff191663ffffffff92909216919091179055565b600160a060020a0333166000908152600660205260408120548190819081908190869081901015610b4d57600080fd5b600160a060020a033316600090815260066020526040902054879080820111610b7557600080fd5b600160a060020a03331660009081526006602052604090206002015463ffffffff16421015610ba357600080fd5b610bac886111af565b92985090965094509250610bc0888461123c565b610bcc3389888861158a565b600a54610bd99085611635565b600a55600160a060020a03331683156108fc0284604051600060405180830381858888f193505050501515610c0d57600080fd5b8733600160a060020a031630600160a060020a03167fa082022e93cfcd9f1da5f9236718053910f7e840da080c789c7845698dc032ff8660405190815260200160405180910390a4506001979650505050505050565b600080600080600034600f600301548110151515610c8057600080fd5b610c88611647565b92975090955093509150610c9b826116de565b610ca787838686611a2b565b600a54610cb49086611b05565b600a5534600160a060020a033081169033167f89f5adc174562e07c9c9b1cae7109bbecb21cf9d1b2847e550042b8653c54a0e8560405190815260200160405180910390a45060019695505050505050565b600160a060020a031660009081526006602052604090205490565b60005433600160a060020a03908116911614610d3c57600080fd5b600f548290600160a060020a031680639aa4d0a08360006040516020015260405160e060020a63ffffffff8416028152600160a060020a039091166004820152602401602060405180830381600087803b1515610d9857600080fd5b6102c65a03f11515610da957600080fd5b505050604051805190501515610dbe57600080fd5b600160a060020a03841683156108fc0284604051600060405180830381858888f193505050501515610def57600080fd5b50505050565b600054600160a060020a031690565b600054600160a060020a031681565b601154601054601354600d54600e54600160a060020a0394851694939093169263ffffffff169091929394565b6000805433600160a060020a03908116911614610e5c57600080fd5b610e646108fa565b905080600160a060020a031663f39ba93233308560006040516020015260405160e060020a63ffffffff8616028152600160a060020a03938416600482015291831660248301529091166044820152606401602060405180830381600087803b1515610ecf57600080fd5b6102c65a03f11515610ee057600080fd5b505050604051805150506011805473ffffffffffffffffffffffffffffffffffffffff1916600160a060020a03939093169290921790915550565b60105460009033600160a060020a03908116911614610f3957600080fd5b610f416108fa565b905080600160a060020a0316632a44fba533308560006040516020015260405160e060020a63ffffffff8616028152600160a060020a03938416600482015291831660248301529091166044820152606401602060405180830381600087803b1515610fac57600080fd5b6102c65a03f11515610fbd57600080fd5b505050604051805190501515610fd257600080fd5b506010805473ffffffffffffffffffffffffffffffffffffffff1916600160a060020a0392909216919091179055565b600f54600160a060020a031680639aa4d0a03360006040516020015260405160e060020a63ffffffff8416028152600160a060020a039091166004820152602401602060405180830381600087803b151561105c57600080fd5b6102c65a03f1151561106d57600080fd5b5050506040518051905080611090575060005433600160a060020a039081169116145b151561109b57600080fd5b6110ed600160a060405190810160409081528254600160a060020a0390811683526001840154811660208401526002840154169082015260038201546060820152600490910154608082015283611b29565b5050565b60105460009033600160a060020a0390811691161461110f57600080fd5b6111176108fa565b905080600160a060020a03166391f1df8433308560006040516020015260405160e060020a63ffffffff8616028152600160a060020a0393841660048201529190921660248201526044810191909152606401602060405180830381600087803b151561118357600080fd5b6102c65a03f1151561119457600080fd5b5050506040518051905015156111a957600080fd5b50601355565b60008060008060006127106111c987600760060154611b33565b8115156111d257fe5b04905060646111e682600f60040154611b33565b8115156111ef57fe5b049450846111fd8286611635565b94508461120a8884611635565b945084620f424061122087600760040154611b33565b81151561122957fe5b939a929950909750909104945092505050565b611244611bfe565b61124c611bfe565b60008060076000018054600181600116156101000203166002900480601f0160208091040260200160405190810160405280929190818152602001828054600181600116156101000203166002900480156112e85780601f106112bd576101008083540402835291602001916112e8565b820191906000526020600020905b8154815290600101906020018083116112cb57829003601f168201915b5050505050935060076001018054600181600116156101000203166002900480601f0160208091040260200160405190810160405280929190818152602001828054600181600116156101000203166002900480156113885780601f1061135d57610100808354040283529160200191611388565b820191906000526020600020905b81548152906001019060200180831161136b57829003601f168201915b5050600f5493965050600160a060020a0390921693508391506326c7a0de90506000604051602001526040518163ffffffff1660e060020a028152600401602060405180830381600087803b15156113df57600080fd5b6102c65a03f115156113f057600080fd5b5050506040518051915050600160a060020a038116632ec576123330898989896000604051602001526040518763ffffffff1660e060020a0281526004018087600160a060020a0316600160a060020a0316815260200186600160a060020a0316600160a060020a031681526020018581526020018481526020018060200180602001838103835285818151815260200191508051906020019080838360005b838110156114a8578082015183820152602001611490565b50505050905090810190601f1680156114d55780820380516001836020036101000a031916815260200191505b50838103825284818151815260200191508051906020019080838360005b8381101561150b5780820151838201526020016114f3565b50505050905090810190601f1680156115385780820380516001836020036101000a031916815260200191505b5098505050505050505050602060405180830381600087803b151561155c57600080fd5b6102c65a03f1151561156d57600080fd5b50505060405180519050151561158257600080fd5b505050505050565b600160a060020a0384166000908152600660205260409020546115ad9084611635565b600160a060020a0380861660009081526006602052604080822093909355601154909116815220546115df9083611b05565b601154600160a060020a0390811660009081526006602052604080822093909355601054909116815220546116149082611b05565b601054600160a060020a031660009081526006602052604090205550505050565b60008282111561164157fe5b50900390565b6000806000806000611663620f42403402600760050154611b54565b945061271061167786600760060154611b33565b81151561168057fe5b049050611697620f42403402600760050154611b54565b94508460646116ab83600f60040154611b33565b8115156116b457fe5b049450846116c28387611635565b9450846116cf8885611635565b92989197509550909350915050565b6116e6611bfe565b6116ee611bfe565b60008060076000018054600181600116156101000203166002900480601f01602080910402602001604051908101604052809291908181526020018280546001816001161561010002031660029004801561178a5780601f1061175f5761010080835404028352916020019161178a565b820191906000526020600020905b81548152906001019060200180831161176d57829003601f168201915b5050505050935060076001018054600181600116156101000203166002900480601f01602080910402602001604051908101604052809291908181526020018280546001816001161561010002031660029004801561182a5780601f106117ff5761010080835404028352916020019161182a565b820191906000526020600020905b81548152906001019060200180831161180d57829003601f168201915b5050600f5493965050600160a060020a0390921693508391506326c7a0de90506000604051602001526040518163ffffffff1660e060020a028152600401602060405180830381600087803b151561188157600080fd5b6102c65a03f1151561189257600080fd5b5050506040518051915050600160a060020a038116632cc4e4b63330348989896000604051602001526040518763ffffffff1660e060020a0281526004018087600160a060020a0316600160a060020a0316815260200186600160a060020a0316600160a060020a031681526020018581526020018481526020018060200180602001838103835285818151815260200191508051906020019080838360005b8381101561194a578082015183820152602001611932565b50505050905090810190601f1680156119775780820380516001836020036101000a031916815260200191505b50838103825284818151815260200191508051906020019080838360005b838110156119ad578082015183820152602001611995565b50505050905090810190601f1680156119da5780820380516001836020036101000a031916815260200191505b5098505050505050505050602060405180830381600087803b15156119fe57600080fd5b6102c65a03f11515611a0f57600080fd5b505050604051805190501515611a2457600080fd5b5050505050565b600160a060020a038416600090815260066020526040902054611a4e9084611b05565b600160a060020a038086166000908152600660205260408082209390935560115490911681522054611a809083611b05565b601154600160a060020a039081166000908152600660205260408082209390935560105490911681522054611ab59082611b05565b601054600160a060020a0390811660009081526006602052604080822093909355600e5496909116815220600201805463ffffffff191663ffffffff958616420190951694909417909355505050565b6000828201838110801590611b1a5750828110155b1515611b2257fe5b9392505050565b6110ed8136611b88565b6000828202831580611b1a5750828482811515611b4c57fe5b0414611b2257fe5b600080808311611b6057fe5b8284811515611b6b57fe5b0490508284811515611b7957fe5b068184020184141515611b2257fe5b611b90611c10565b81600080611b9d83611bb6565b91508260008337611baf828488611bc9565b9050602081f35b6000806040519283016040525090919050565b6000818180611bd86020611bb6565b91506020828789866127105a03f41590508015611bf457600080fd5b5095945050505050565b60206040519081016040526000815290565b60a06040519081016040908152600080835260208301819052908201819052606082018190526080820152905600a165627a7a72305820bc21dac89266a99c412b7ce8220024f6f5efc1484399effb4805d3edb666e8900029a165627a7a72305820a2d52f5fdb6a5284f2d722826b94e834f8d2312e500ba60cd983f696462dc0a60029",
  "source": "/*\n\n Copyright 2017-2018 RigoBlock, Rigo Investment Sagl.\n\n Licensed under the Apache License, Version 2.0 (the \"License\");\n you may not use this file except in compliance with the License.\n You may obtain a copy of the License at\n\n     http://www.apache.org/licenses/LICENSE-2.0\n\n Unless required by applicable law or agreed to in writing, software\n distributed under the License is distributed on an \"AS IS\" BASIS,\n WITHOUT WARRANTIES OR CONDITIONS OF ANY KIND, either express or implied.\n See the License for the specific language governing permissions and\n limitations under the License.\n\n*/\n\npragma solidity ^0.4.19;\n\nimport { DragoRegistryFace as DragoRegistry } from \"../Registry/DragoRegistryFace.sol\";\nimport { AuthorityFace as Authority } from \"../Authority/AuthorityFace.sol\";\nimport { DragoFace as Drago } from \"../Drago/DragoFace.sol\";\nimport { DragoEventfulFace as DragoEventful } from \"../DragoEventful/DragoEventfulFace.sol\";\n\nimport { DragoFactoryLibrary } from \"./DragoFactoryLibrary/DragoFactoryLibrary.sol\";\nimport { OwnedUninitialized as Owned } from \"../utils/Owned/OwnedUninitialized.sol\";\nimport { DragoFactoryFace } from \"./DragoFactoryFace.sol\";\n\n/// @title Drago Factory contract - allows creation of new dragos.\n/// @author Gabriele Rigo - <gab@rigoblock.com>\ncontract DragoFactory is Owned, DragoFactoryFace {\n\n    DragoFactoryLibrary.NewDrago libraryData;\n\n    string public constant VERSION = 'VF 0.4.1';\n\n    Data data;\n\n    struct Data {\n        uint fee;\n        address dragoRegistry;\n        address dragoDao;\n        address authority;\n        mapping(address => address[]) dragos;\n    }\n\n    event DragoCreated(\n        string name,\n        string symbol,\n        address indexed drago,\n        address indexed owner,\n        uint dragoId\n    );\n\n    modifier whitelistedFactory(address _authority) {\n        Authority auth = Authority(_authority);\n        if (auth.isWhitelistedFactory(this)) _;\n    }\n\n    modifier whenFeePaid {\n        require(msg.value >= data.fee);\n        _;\n    }\n\n    modifier onlyOwner {\n        require(msg.sender == owner);\n        _;\n    }\n\n    modifier onlyDragoDao {\n        require(msg.sender == data.dragoDao);\n        _;\n    }\n\n    function DragoFactory(\n        address _registry,\n        address _dragoDao,\n        address _authority)\n        public\n    {\n        data.dragoRegistry = _registry;\n        data.dragoDao = _dragoDao;\n        data.authority = _authority;\n        owner = msg.sender;\n    }\n\n    // CORE FUNCTIONS\n\n    /// @dev allows creation of a new drago\n    /// @param _name String of the name\n    /// @param _symbol String of the symbol\n    /// @return Bool the transaction executed correctly\n    function createDrago(string _name, string _symbol)\n        public\n        returns (bool success)\n    {\n        DragoRegistry registry = DragoRegistry(data.dragoRegistry);\n        uint regFee = registry.getFee();\n        uint dragoId = registry.dragoCount();\n        require(createDragoInternal(_name, _symbol, msg.sender, dragoId));\n        assert(registry.register.value(regFee)(\n            libraryData.newAddress,\n            _name,\n            _symbol,\n            dragoId,\n            msg.sender)\n        );\n        return true;\n    }\n\n    /// @dev Allows factory owner to update the address of the dao/factory\n    /// @dev Enables manual update of dao for single dragos\n    /// @param _targetDrago Address of the target drago\n    /// @param _dragoDao Address of the new drago dao\n    function setTargetDragoDao(address _targetDrago, address _dragoDao)\n        public\n        onlyOwner\n    {\n        Drago drago = Drago(_targetDrago);\n        drago.changeDragoDao(_dragoDao);\n    }\n\n    /// @dev Allows drago dao/factory to update its address\n    /// @dev Creates internal record\n    /// @param _newDragoDao Address of the drago dao\n    function changeDragoDao(address _newDragoDao) public onlyDragoDao {\n        data.dragoDao = _newDragoDao;\n    }\n\n    /// @dev Allows owner to update the registry\n    /// @param _newRegistry Address of the new registry\n    function setRegistry(address _newRegistry) public onlyOwner {\n        data.dragoRegistry = _newRegistry;\n    }\n\n    /// @dev Allows owner to set the address which can collect creation fees\n    /// @param _dragoDao Address of the new drago dao/factory\n    function setBeneficiary(address _dragoDao) public onlyOwner {\n        data.dragoDao = _dragoDao;\n    }\n\n    /// @dev Allows owner to set the drago creation fee\n    /// @param _fee Value of the fee in wei\n    function setFee(uint _fee) public onlyOwner {\n        data.fee = _fee;\n    }\n\n    /// @dev Allows owner to collect fees\n    function drain() public onlyOwner {\n        data.dragoDao.transfer(this.balance);\n    }\n\n    // CONSTANT PUBLIC FUNCTIONS\n\n    /// @dev Returns the address of the pool registry\n    /// @return Address of the registry\n    function getRegistry() public view returns (address) {\n        return (data.dragoRegistry);\n    }\n\n    /// @dev Returns administrative data for this factory\n    /// @return Address of the drago dao\n    /// @return String of the version\n    /// @return Number of the next drago from the registry\n    function getStorage()\n        public\n        view\n        returns (\n            address dragoDao,\n            string version,\n            uint nextDragoId\n        )\n    {\n        return (\n            dragoDao = data.dragoDao,\n            version = VERSION,\n            nextDragoId = getNextId()\n        );\n    }\n\n    /// @dev Returns the next Id for a drago\n    /// @return Number of the next Id from the registry\n    function getNextId() public view returns (uint nextDragoId) {\n        DragoRegistry registry = DragoRegistry(data.dragoRegistry);\n        nextDragoId = registry.dragoCount();\n    }\n\n    /// @dev Returns the address of the logger contract\n    /// @dev Queries from authority contract\n    /// @return Address of the eventful contract\n    function getEventful() public view returns (address) {\n        Authority auth = Authority(data.authority);\n        return auth.getDragoEventful();\n    }\n\n    /// @dev Returns an array of dragos the owner has created\n    /// @param _owner Address of the queried owner\n    /// @return Array of drago addresses\n    function getDragosByAddress(address _owner)\n        public\n        view\n        returns (address[])\n    {\n        return data.dragos[_owner];\n    }\n\n    // INTERNAL FUNCTIONS\n\n    /// @dev Creates a drago and routes to eventful\n    /// @param _name String of the name\n    /// @param _symbol String of the symbol\n    /// @param _owner Address of the owner\n    /// @param _dragoId Number of the new drago Id\n    /// @return Bool the transaction executed correctly\n    function createDragoInternal(\n        string _name,\n        string _symbol,\n        address _owner,\n        uint _dragoId)\n        internal\n        whenFeePaid\n        returns (bool success)\n    {\n        Authority auth = Authority(data.authority);\n        require(DragoFactoryLibrary.createDrago(\n            libraryData,\n            _name,\n            _symbol,\n            _owner,\n            _dragoId,\n            data.authority)\n        );\n        data.dragos[msg.sender].push(libraryData.newAddress);\n        DragoEventful events = DragoEventful(auth.getDragoEventful());\n        require(events.createDrago(\n            msg.sender,\n            this,\n            libraryData.newAddress,\n            _name,\n            _symbol,\n            _dragoId,\n            _owner)\n        );\n        auth.whitelistDrago(libraryData.newAddress, true);\n        auth.whitelistUser(msg.sender, true);\n        DragoCreated(_name, _symbol, libraryData.newAddress, _owner, _dragoId);\n        return true;\n    }\n}\n",
  "sourcePath": "/home/gab/truffle/contracts/contracts/DragoFactory/DragoFactory.sol",
  "compiler": {
    "name": "solc",
    "version": "0.4.19+commit.c4cbbb05.Emscripten.clang"
  },
  "schemaVersion": "2.0.0",
  "updatedAt": "2018-03-05T21:05:52.516Z"
}