{
  "contractName": "DragoRegistry",
  "abi": [
    {
      "constant": false,
      "inputs": [
        {
          "name": "_new",
          "type": "address"
        }
      ],
      "name": "setOwner",
      "outputs": [],
      "payable": false,
      "stateMutability": "nonpayable",
      "type": "function"
    },
    {
      "constant": true,
      "inputs": [],
      "name": "getOwner",
      "outputs": [
        {
          "name": "",
          "type": "address"
        }
      ],
      "payable": false,
      "stateMutability": "view",
      "type": "function"
    },
    {
      "constant": true,
      "inputs": [],
      "name": "AUTHORITY",
      "outputs": [
        {
          "name": "",
          "type": "address"
        }
      ],
      "payable": false,
      "stateMutability": "view",
      "type": "function"
    },
    {
      "constant": true,
      "inputs": [],
      "name": "owner",
      "outputs": [
        {
          "name": "",
          "type": "address"
        }
      ],
      "payable": false,
      "stateMutability": "view",
      "type": "function"
    },
    {
      "constant": true,
      "inputs": [],
      "name": "fee",
      "outputs": [
        {
          "name": "",
          "type": "uint256"
        }
      ],
      "payable": false,
      "stateMutability": "view",
      "type": "function"
    },
    {
      "constant": true,
      "inputs": [],
      "name": "VERSION",
      "outputs": [
        {
          "name": "",
          "type": "uint256"
        }
      ],
      "payable": false,
      "stateMutability": "view",
      "type": "function"
    },
    {
      "inputs": [
        {
          "name": "_authority",
          "type": "address"
        }
      ],
      "payable": false,
      "stateMutability": "nonpayable",
      "type": "constructor"
    },
    {
      "anonymous": false,
      "inputs": [
        {
          "indexed": false,
          "name": "name",
          "type": "string"
        },
        {
          "indexed": false,
          "name": "symbol",
          "type": "string"
        },
        {
          "indexed": false,
          "name": "id",
          "type": "uint256"
        },
        {
          "indexed": true,
          "name": "drago",
          "type": "address"
        },
        {
          "indexed": true,
          "name": "owner",
          "type": "address"
        },
        {
          "indexed": true,
          "name": "group",
          "type": "address"
        }
      ],
      "name": "Registered",
      "type": "event"
    },
    {
      "anonymous": false,
      "inputs": [
        {
          "indexed": true,
          "name": "name",
          "type": "string"
        },
        {
          "indexed": true,
          "name": "symbol",
          "type": "string"
        },
        {
          "indexed": true,
          "name": "id",
          "type": "uint256"
        }
      ],
      "name": "Unregistered",
      "type": "event"
    },
    {
      "anonymous": false,
      "inputs": [
        {
          "indexed": true,
          "name": "id",
          "type": "uint256"
        },
        {
          "indexed": true,
          "name": "key",
          "type": "bytes32"
        },
        {
          "indexed": false,
          "name": "value",
          "type": "bytes32"
        }
      ],
      "name": "MetaChanged",
      "type": "event"
    },
    {
      "anonymous": false,
      "inputs": [
        {
          "indexed": true,
          "name": "old",
          "type": "address"
        },
        {
          "indexed": true,
          "name": "current",
          "type": "address"
        }
      ],
      "name": "NewOwner",
      "type": "event"
    },
    {
      "anonymous": false,
      "inputs": [
        {
          "indexed": true,
          "name": "symbol",
          "type": "string"
        },
        {
          "indexed": true,
          "name": "id",
          "type": "uint256"
        }
      ],
      "name": "Unregistered",
      "type": "event"
    },
    {
      "constant": false,
      "inputs": [
        {
          "name": "_drago",
          "type": "address"
        },
        {
          "name": "_name",
          "type": "string"
        },
        {
          "name": "_symbol",
          "type": "string"
        },
        {
          "name": "_dragoId",
          "type": "uint256"
        },
        {
          "name": "_owner",
          "type": "address"
        }
      ],
      "name": "register",
      "outputs": [
        {
          "name": "",
          "type": "bool"
        }
      ],
      "payable": true,
      "stateMutability": "payable",
      "type": "function"
    },
    {
      "constant": false,
      "inputs": [
        {
          "name": "_id",
          "type": "uint256"
        }
      ],
      "name": "unregister",
      "outputs": [],
      "payable": false,
      "stateMutability": "nonpayable",
      "type": "function"
    },
    {
      "constant": false,
      "inputs": [
        {
          "name": "_id",
          "type": "uint256"
        },
        {
          "name": "_key",
          "type": "bytes32"
        },
        {
          "name": "_value",
          "type": "bytes32"
        }
      ],
      "name": "setMeta",
      "outputs": [],
      "payable": false,
      "stateMutability": "nonpayable",
      "type": "function"
    },
    {
      "constant": false,
      "inputs": [
        {
          "name": "_group",
          "type": "address"
        }
      ],
      "name": "addGroup",
      "outputs": [],
      "payable": false,
      "stateMutability": "nonpayable",
      "type": "function"
    },
    {
      "constant": false,
      "inputs": [
        {
          "name": "_fee",
          "type": "uint256"
        }
      ],
      "name": "setFee",
      "outputs": [],
      "payable": false,
      "stateMutability": "nonpayable",
      "type": "function"
    },
    {
      "constant": false,
      "inputs": [
        {
          "name": "_newAddress",
          "type": "address"
        }
      ],
      "name": "upgrade",
      "outputs": [],
      "payable": true,
      "stateMutability": "payable",
      "type": "function"
    },
    {
      "constant": false,
      "inputs": [
        {
          "name": "_version",
          "type": "uint256"
        }
      ],
      "name": "setUpgraded",
      "outputs": [],
      "payable": false,
      "stateMutability": "nonpayable",
      "type": "function"
    },
    {
      "constant": false,
      "inputs": [],
      "name": "drain",
      "outputs": [],
      "payable": false,
      "stateMutability": "nonpayable",
      "type": "function"
    },
    {
      "constant": true,
      "inputs": [],
      "name": "dragoCount",
      "outputs": [
        {
          "name": "",
          "type": "uint256"
        }
      ],
      "payable": false,
      "stateMutability": "view",
      "type": "function"
    },
    {
      "constant": true,
      "inputs": [
        {
          "name": "_id",
          "type": "uint256"
        }
      ],
      "name": "fromId",
      "outputs": [
        {
          "name": "drago",
          "type": "address"
        },
        {
          "name": "name",
          "type": "string"
        },
        {
          "name": "symbol",
          "type": "string"
        },
        {
          "name": "dragoId",
          "type": "uint256"
        },
        {
          "name": "owner",
          "type": "address"
        },
        {
          "name": "group",
          "type": "address"
        }
      ],
      "payable": false,
      "stateMutability": "view",
      "type": "function"
    },
    {
      "constant": true,
      "inputs": [
        {
          "name": "_drago",
          "type": "address"
        }
      ],
      "name": "fromAddress",
      "outputs": [
        {
          "name": "id",
          "type": "uint256"
        },
        {
          "name": "name",
          "type": "string"
        },
        {
          "name": "symbol",
          "type": "string"
        },
        {
          "name": "dragoId",
          "type": "uint256"
        },
        {
          "name": "owner",
          "type": "address"
        },
        {
          "name": "group",
          "type": "address"
        }
      ],
      "payable": false,
      "stateMutability": "view",
      "type": "function"
    },
    {
      "constant": true,
      "inputs": [
        {
          "name": "_symbol",
          "type": "string"
        }
      ],
      "name": "fromSymbol",
      "outputs": [
        {
          "name": "id",
          "type": "uint256"
        },
        {
          "name": "drago",
          "type": "address"
        },
        {
          "name": "name",
          "type": "string"
        },
        {
          "name": "dragoId",
          "type": "uint256"
        },
        {
          "name": "owner",
          "type": "address"
        },
        {
          "name": "group",
          "type": "address"
        }
      ],
      "payable": false,
      "stateMutability": "view",
      "type": "function"
    },
    {
      "constant": true,
      "inputs": [
        {
          "name": "_name",
          "type": "string"
        }
      ],
      "name": "fromName",
      "outputs": [
        {
          "name": "id",
          "type": "uint256"
        },
        {
          "name": "drago",
          "type": "address"
        },
        {
          "name": "symbol",
          "type": "string"
        },
        {
          "name": "dragoId",
          "type": "uint256"
        },
        {
          "name": "owner",
          "type": "address"
        },
        {
          "name": "group",
          "type": "address"
        }
      ],
      "payable": false,
      "stateMutability": "view",
      "type": "function"
    },
    {
      "constant": true,
      "inputs": [
        {
          "name": "_name",
          "type": "string"
        },
        {
          "name": "_symbol",
          "type": "string"
        }
      ],
      "name": "fromNameSymbol",
      "outputs": [
        {
          "name": "",
          "type": "address"
        }
      ],
      "payable": false,
      "stateMutability": "view",
      "type": "function"
    },
    {
      "constant": true,
      "inputs": [
        {
          "name": "_pool",
          "type": "address"
        }
      ],
      "name": "getNameFromAddress",
      "outputs": [
        {
          "name": "",
          "type": "bytes32"
        }
      ],
      "payable": false,
      "stateMutability": "view",
      "type": "function"
    },
    {
      "constant": true,
      "inputs": [
        {
          "name": "_pool",
          "type": "address"
        }
      ],
      "name": "getSymbolFromAddress",
      "outputs": [
        {
          "name": "",
          "type": "bytes32"
        }
      ],
      "payable": false,
      "stateMutability": "view",
      "type": "function"
    },
    {
      "constant": true,
      "inputs": [
        {
          "name": "_id",
          "type": "uint256"
        },
        {
          "name": "_key",
          "type": "bytes32"
        }
      ],
      "name": "meta",
      "outputs": [
        {
          "name": "",
          "type": "bytes32"
        }
      ],
      "payable": false,
      "stateMutability": "view",
      "type": "function"
    },
    {
      "constant": true,
      "inputs": [],
      "name": "getGroups",
      "outputs": [
        {
          "name": "",
          "type": "address[]"
        }
      ],
      "payable": false,
      "stateMutability": "view",
      "type": "function"
    },
    {
      "constant": true,
      "inputs": [],
      "name": "getFee",
      "outputs": [
        {
          "name": "",
          "type": "uint256"
        }
      ],
      "payable": false,
      "stateMutability": "view",
      "type": "function"
    }
  ],
  "bytecode": "0x60606040526000600355341561001457600080fd5b60405160208061396983398101604052808051906020019091905050336000806101000a81548173ffffffffffffffffffffffffffffffffffffffff021916908373ffffffffffffffffffffffffffffffffffffffff16021790555080600160006101000a81548173ffffffffffffffffffffffffffffffffffffffff021916908373ffffffffffffffffffffffffffffffffffffffff160217905550506138a8806100c16000396000f300606060405260043610610149576000357c0100000000000000000000000000000000000000000000000000000000900463ffffffff1680630900f0101461014e57806313af40351461017c57806324e0d1f9146101b55780633fa7d3e314610295578063428afcd11461038957806369fe0e2d146103ac5780637958533a146103cf578063893d20e81461041b57806389fcd796146104705780638da5cb5b146104c55780639890220b1461051a578063a02b161e1461052f578063aac746ee14610552578063b43e91f8146105a7578063b607a77a14610724578063b72e717d146108a1578063c277f1ac14610a33578063c72b517614610bdb578063cd6f4e0d14610c45578063ced72f8714610c6e578063d0ee32c414610c97578063dd93890b14610cec578063ddca3f4314610d29578063f9515f1b14610d52578063ffa1ad7414610d8b575b600080fd5b61017a600480803573ffffffffffffffffffffffffffffffffffffffff16906020019091905050610db4565b005b341561018757600080fd5b6101b3600480803573ffffffffffffffffffffffffffffffffffffffff16906020019091905050610f03565b005b34156101c057600080fd5b610253600480803590602001908201803590602001908080601f0160208091040260200160405190810160405280939291908181526020018383808284378201915050505050509190803590602001908201803590602001908080601f0160208091040260200160405190810160405280939291908181526020018383808284378201915050505050509190505061101c565b604051808273ffffffffffffffffffffffffffffffffffffffff1673ffffffffffffffffffffffffffffffffffffffff16815260200191505060405180910390f35b61036f600480803573ffffffffffffffffffffffffffffffffffffffff1690602001909190803590602001908201803590602001908080601f0160208091040260200160405190810160405280939291908181526020018383808284378201915050505050509190803590602001908201803590602001908080601f0160208091040260200160405190810160405280939291908181526020018383808284378201915050505050509190803590602001909190803573ffffffffffffffffffffffffffffffffffffffff169060200190919050506113aa565b604051808215151515815260200191505060405180910390f35b341561039457600080fd5b6103aa60048080359060200190919050506115ab565b005b34156103b757600080fd5b6103cd6004808035906020019091905050611610565b005b34156103da57600080fd5b6103fd600480803590602001909190803560001916906020019091905050611675565b60405180826000191660001916815260200191505060405180910390f35b341561042657600080fd5b61042e6116b9565b604051808273ffffffffffffffffffffffffffffffffffffffff1673ffffffffffffffffffffffffffffffffffffffff16815260200191505060405180910390f35b341561047b57600080fd5b6104836116e2565b604051808273ffffffffffffffffffffffffffffffffffffffff1673ffffffffffffffffffffffffffffffffffffffff16815260200191505060405180910390f35b34156104d057600080fd5b6104d8611708565b604051808273ffffffffffffffffffffffffffffffffffffffff1673ffffffffffffffffffffffffffffffffffffffff16815260200191505060405180910390f35b341561052557600080fd5b61052d61172d565b005b341561053a57600080fd5b61055060048080359060200190919050506117e1565b005b341561055d57600080fd5b610589600480803573ffffffffffffffffffffffffffffffffffffffff16906020019091905050611be4565b60405180826000191660001916815260200191505060405180910390f35b34156105b257600080fd5b610602600480803590602001908201803590602001908080601f01602080910402602001604051908101604052809392919081815260200183838082843782019150505050505091905050611f1f565b604051808781526020018673ffffffffffffffffffffffffffffffffffffffff1673ffffffffffffffffffffffffffffffffffffffff168152602001806020018581526020018473ffffffffffffffffffffffffffffffffffffffff1673ffffffffffffffffffffffffffffffffffffffff1681526020018373ffffffffffffffffffffffffffffffffffffffff1673ffffffffffffffffffffffffffffffffffffffff168152602001828103825286818151815260200191508051906020019080838360005b838110156106e45780820151818401526020810190506106c9565b50505050905090810190601f1680156107115780820380516001836020036101000a031916815260200191505b5097505050505050505060405180910390f35b341561072f57600080fd5b61077f600480803590602001908201803590602001908080601f01602080910402602001604051908101604052809392919081815260200183838082843782019150505050505091905050612262565b604051808781526020018673ffffffffffffffffffffffffffffffffffffffff1673ffffffffffffffffffffffffffffffffffffffff168152602001806020018581526020018473ffffffffffffffffffffffffffffffffffffffff1673ffffffffffffffffffffffffffffffffffffffff1681526020018373ffffffffffffffffffffffffffffffffffffffff1673ffffffffffffffffffffffffffffffffffffffff168152602001828103825286818151815260200191508051906020019080838360005b83811015610861578082015181840152602081019050610846565b50505050905090810190601f16801561088e5780820380516001836020036101000a031916815260200191505b5097505050505050505060405180910390f35b34156108ac57600080fd5b6108d8600480803573ffffffffffffffffffffffffffffffffffffffff169060200190919050506125a5565b6040518087815260200180602001806020018681526020018573ffffffffffffffffffffffffffffffffffffffff1673ffffffffffffffffffffffffffffffffffffffff1681526020018473ffffffffffffffffffffffffffffffffffffffff1673ffffffffffffffffffffffffffffffffffffffff168152602001838103835288818151815260200191508051906020019080838360005b8381101561098c578082015181840152602081019050610971565b50505050905090810190601f1680156109b95780820380516001836020036101000a031916815260200191505b50838103825287818151815260200191508051906020019080838360005b838110156109f25780820151818401526020810190506109d7565b50505050905090810190601f168015610a1f5780820380516001836020036101000a031916815260200191505b509850505050505050505060405180910390f35b3415610a3e57600080fd5b610a5460048080359060200190919050506128c3565b604051808773ffffffffffffffffffffffffffffffffffffffff1673ffffffffffffffffffffffffffffffffffffffff16815260200180602001806020018681526020018573ffffffffffffffffffffffffffffffffffffffff1673ffffffffffffffffffffffffffffffffffffffff1681526020018473ffffffffffffffffffffffffffffffffffffffff1673ffffffffffffffffffffffffffffffffffffffff168152602001838103835288818151815260200191508051906020019080838360005b83811015610b34578082015181840152602081019050610b19565b50505050905090810190601f168015610b615780820380516001836020036101000a031916815260200191505b50838103825287818151815260200191508051906020019080838360005b83811015610b9a578082015181840152602081019050610b7f565b50505050905090810190601f168015610bc75780820380516001836020036101000a031916815260200191505b509850505050505050505060405180910390f35b3415610be657600080fd5b610bee612ba3565b6040518080602001828103825283818151815260200191508051906020019060200280838360005b83811015610c31578082015181840152602081019050610c16565b505050509050019250505060405180910390f35b3415610c5057600080fd5b610c58612c37565b6040518082815260200191505060405180910390f35b3415610c7957600080fd5b610c81612c44565b6040518082815260200191505060405180910390f35b3415610ca257600080fd5b610cce600480803573ffffffffffffffffffffffffffffffffffffffff16906020019091905050612c4e565b60405180826000191660001916815260200191505060405180910390f35b3415610cf757600080fd5b610d2760048080359060200190919080356000191690602001909190803560001916906020019091905050612f89565b005b3415610d3457600080fd5b610d3c613091565b6040518082815260200191505060405180910390f35b3415610d5d57600080fd5b610d89600480803573ffffffffffffffffffffffffffffffffffffffff16906020019091905050613097565b005b3415610d9657600080fd5b610d9e613158565b6040518082815260200191505060405180910390f35b60008060009054906101000a900473ffffffffffffffffffffffffffffffffffffffff1673ffffffffffffffffffffffffffffffffffffffff163373ffffffffffffffffffffffffffffffffffffffff16141515610e1157600080fd5b819050600260008154600101919050819055508073ffffffffffffffffffffffffffffffffffffffff1663428afcd16002546040518263ffffffff167c010000000000000000000000000000000000000000000000000000000002815260040180828152602001915050600060405180830381600087803b1515610e9457600080fd5b6102c65a03f11515610ea557600080fd5b5050508073ffffffffffffffffffffffffffffffffffffffff166108fc3073ffffffffffffffffffffffffffffffffffffffff16319081150290604051600060405180830381858888f193505050501515610eff57600080fd5b5050565b6000809054906101000a900473ffffffffffffffffffffffffffffffffffffffff1673ffffffffffffffffffffffffffffffffffffffff163373ffffffffffffffffffffffffffffffffffffffff16141515610f5e57600080fd5b806000806101000a81548173ffffffffffffffffffffffffffffffffffffffff021916908373ffffffffffffffffffffffffffffffffffffffff1602179055508073ffffffffffffffffffffffffffffffffffffffff166000809054906101000a900473ffffffffffffffffffffffffffffffffffffffff1673ffffffffffffffffffffffffffffffffffffffff167f70aea8d848e8a90fb7661b227dc522eb6395c3dac71b63cb59edd5c9899b236460405160405180910390a350565b60008060006110296135b4565b600060016008886040518082805190602001908083835b6020831015156110655780518252602082019150602081019050602083039250611040565b6001836020036101000a03801982511681845116808217855250505050505090500191505090815260200160405180910390205403935060016009876040518082805190602001908083835b6020831015156110d657805182526020820191506020810190506020830392506110b1565b6001836020036101000a03801982511681845116808217855250505050505090500191505090815260200160405180910390205403925060058481548110151561111c57fe5b906000526020600020906007020160c060405190810160405290816000820160009054906101000a900473ffffffffffffffffffffffffffffffffffffffff1673ffffffffffffffffffffffffffffffffffffffff1673ffffffffffffffffffffffffffffffffffffffff168152602001600182018054600181600116156101000203166002900480601f0160208091040260200160405190810160405280929190818152602001828054600181600116156101000203166002900480156112255780601f106111fa57610100808354040283529160200191611225565b820191906000526020600020905b81548152906001019060200180831161120857829003601f168201915b50505050508152602001600282018054600181600116156101000203166002900480601f0160208091040260200160405190810160405280929190818152602001828054600181600116156101000203166002900480156112c75780601f1061129c576101008083540402835291602001916112c7565b820191906000526020600020905b8154815290600101906020018083116112aa57829003601f168201915b50505050508152602001600382015481526020016004820160009054906101000a900473ffffffffffffffffffffffffffffffffffffffff1673ffffffffffffffffffffffffffffffffffffffff1673ffffffffffffffffffffffffffffffffffffffff1681526020016005820160009054906101000a900473ffffffffffffffffffffffffffffffffffffffff1673ffffffffffffffffffffffffffffffffffffffff1673ffffffffffffffffffffffffffffffffffffffff16815250509150828414151561139657600080fd5b816000015190508094505050505092915050565b600080600160009054906101000a900473ffffffffffffffffffffffffffffffffffffffff169050600115158173ffffffffffffffffffffffffffffffffffffffff16632330f247336000604051602001526040518263ffffffff167c0100000000000000000000000000000000000000000000000000000000028152600401808273ffffffffffffffffffffffffffffffffffffffff1673ffffffffffffffffffffffffffffffffffffffff168152602001915050602060405180830381600087803b151561147957600080fd5b6102c65a03f1151561148a57600080fd5b5050506040518051905015151415156114a257600080fd5b60035434101515156114b357600080fd5b866000600760008373ffffffffffffffffffffffffffffffffffffffff1673ffffffffffffffffffffffffffffffffffffffff1681526020019081526020016000205414151561150257600080fd5b8660006008826040518082805190602001908083835b60208310151561153d5780518252602082019150602081019050602083039250611518565b6001836020036101000a03801982511681845116808217855250505050505090500191505090815260200160405180910390205414151561157d57600080fd5b866003815114151561158e57600080fd5b61159c8a8a8a8a8a3361315e565b94505050505095945050505050565b6000809054906101000a900473ffffffffffffffffffffffffffffffffffffffff1673ffffffffffffffffffffffffffffffffffffffff163373ffffffffffffffffffffffffffffffffffffffff1614151561160657600080fd5b8060028190555050565b6000809054906101000a900473ffffffffffffffffffffffffffffffffffffffff1673ffffffffffffffffffffffffffffffffffffffff163373ffffffffffffffffffffffffffffffffffffffff1614151561166b57600080fd5b8060038190555050565b600060058381548110151561168657fe5b90600052602060002090600702016006016000836000191660001916815260200190815260200160002054905092915050565b60008060009054906101000a900473ffffffffffffffffffffffffffffffffffffffff16905090565b600160009054906101000a900473ffffffffffffffffffffffffffffffffffffffff1681565b6000809054906101000a900473ffffffffffffffffffffffffffffffffffffffff1681565b6000809054906101000a900473ffffffffffffffffffffffffffffffffffffffff1673ffffffffffffffffffffffffffffffffffffffff163373ffffffffffffffffffffffffffffffffffffffff1614151561178857600080fd5b3373ffffffffffffffffffffffffffffffffffffffff166108fc3073ffffffffffffffffffffffffffffffffffffffff16319081150290604051600060405180830381858888f1935050505015156117df57600080fd5b565b6000809054906101000a900473ffffffffffffffffffffffffffffffffffffffff1673ffffffffffffffffffffffffffffffffffffffff163373ffffffffffffffffffffffffffffffffffffffff1614151561183c57600080fd5b8060058281548110151561184c57fe5b906000526020600020906007020160020160405180828054600181600116156101000203166002900480156118b85780601f106118965761010080835404028352918201916118b8565b820191906000526020600020905b8154815290600101906020018083116118a4575b505091505060405180910390206005838154811015156118d457fe5b906000526020600020906007020160010160405180828054600181600116156101000203166002900480156119405780601f1061191e576101008083540402835291820191611940565b820191906000526020600020905b81548152906001019060200180831161192c575b505091505060405180910390207fad4483722e484b7ef6bb47a485f1b34f7a87eaad7143c5a4f68ea90a3d9a191460405160405180910390a46007600060058381548110151561198c57fe5b906000526020600020906007020160000160009054906101000a900473ffffffffffffffffffffffffffffffffffffffff1673ffffffffffffffffffffffffffffffffffffffff1673ffffffffffffffffffffffffffffffffffffffff168152602001908152602001600020600090556008600582815481101515611a0d57fe5b90600052602060002090600702016001016040518082805460018160011615610100020316600290048015611a795780601f10611a57576101008083540402835291820191611a79565b820191906000526020600020905b815481529060010190602001808311611a65575b50509150509081526020016040518091039020600090556009600582815481101515611aa157fe5b90600052602060002090600702016002016040518082805460018160011615610100020316600290048015611b0d5780601f10611aeb576101008083540402835291820191611b0d565b820191906000526020600020905b815481529060010190602001808311611af9575b5050915050908152602001604051809103902060009055600581815481101515611b3357fe5b9060005260206000209060070201600080820160006101000a81549073ffffffffffffffffffffffffffffffffffffffff0219169055600182016000611b799190613639565b600282016000611b899190613639565b60038201600090556004820160006101000a81549073ffffffffffffffffffffffffffffffffffffffff02191690556005820160006101000a81549073ffffffffffffffffffffffffffffffffffffffff0219169055505050565b600080611bef6135b4565b6001600760008673ffffffffffffffffffffffffffffffffffffffff1673ffffffffffffffffffffffffffffffffffffffff16815260200190815260200160002054039150600582815481101515611c4357fe5b906000526020600020906007020160c060405190810160405290816000820160009054906101000a900473ffffffffffffffffffffffffffffffffffffffff1673ffffffffffffffffffffffffffffffffffffffff1673ffffffffffffffffffffffffffffffffffffffff168152602001600182018054600181600116156101000203166002900480601f016020809104026020016040519081016040528092919081815260200182805460018160011615610100020316600290048015611d4c5780601f10611d2157610100808354040283529160200191611d4c565b820191906000526020600020905b815481529060010190602001808311611d2f57829003601f168201915b50505050508152602001600282018054600181600116156101000203166002900480601f016020809104026020016040519081016040528092919081815260200182805460018160011615610100020316600290048015611dee5780601f10611dc357610100808354040283529160200191611dee565b820191906000526020600020905b815481529060010190602001808311611dd157829003601f168201915b50505050508152602001600382015481526020016004820160009054906101000a900473ffffffffffffffffffffffffffffffffffffffff1673ffffffffffffffffffffffffffffffffffffffff1673ffffffffffffffffffffffffffffffffffffffff1681526020016005820160009054906101000a900473ffffffffffffffffffffffffffffffffffffffff1673ffffffffffffffffffffffffffffffffffffffff1673ffffffffffffffffffffffffffffffffffffffff1681525050905080602001516040518082805190602001908083835b602083101515611ee95780518252602082019150602081019050602083039250611ec4565b6001836020036101000a038019825116818451168082178552505050505050905001915050604051809103902092505050919050565b600080611f2a613681565b6000806000611f376135b4565b60016008896040518082805190602001908083835b602083101515611f715780518252602082019150602081019050602083039250611f4c565b6001836020036101000a038019825116818451168082178552505050505050905001915050908152602001604051809103902054039650600587815481101515611fb757fe5b906000526020600020906007020160c060405190810160405290816000820160009054906101000a900473ffffffffffffffffffffffffffffffffffffffff1673ffffffffffffffffffffffffffffffffffffffff1673ffffffffffffffffffffffffffffffffffffffff168152602001600182018054600181600116156101000203166002900480601f0160208091040260200160405190810160405280929190818152602001828054600181600116156101000203166002900480156120c05780601f10612095576101008083540402835291602001916120c0565b820191906000526020600020905b8154815290600101906020018083116120a357829003601f168201915b50505050508152602001600282018054600181600116156101000203166002900480601f0160208091040260200160405190810160405280929190818152602001828054600181600116156101000203166002900480156121625780601f1061213757610100808354040283529160200191612162565b820191906000526020600020905b81548152906001019060200180831161214557829003601f168201915b50505050508152602001600382015481526020016004820160009054906101000a900473ffffffffffffffffffffffffffffffffffffffff1673ffffffffffffffffffffffffffffffffffffffff1673ffffffffffffffffffffffffffffffffffffffff1681526020016005820160009054906101000a900473ffffffffffffffffffffffffffffffffffffffff1673ffffffffffffffffffffffffffffffffffffffff1673ffffffffffffffffffffffffffffffffffffffff168152505090508681600001519650868260400151965086836060015196508684608001519650868560a001519650869650965096509650965096505091939550919395565b60008061226d613681565b600080600061227a6135b4565b60016009896040518082805190602001908083835b6020831015156122b4578051825260208201915060208101905060208303925061228f565b6001836020036101000a0380198251168184511680821785525050505050509050019150509081526020016040518091039020540396506005878154811015156122fa57fe5b906000526020600020906007020160c060405190810160405290816000820160009054906101000a900473ffffffffffffffffffffffffffffffffffffffff1673ffffffffffffffffffffffffffffffffffffffff1673ffffffffffffffffffffffffffffffffffffffff168152602001600182018054600181600116156101000203166002900480601f0160208091040260200160405190810160405280929190818152602001828054600181600116156101000203166002900480156124035780601f106123d857610100808354040283529160200191612403565b820191906000526020600020905b8154815290600101906020018083116123e657829003601f168201915b50505050508152602001600282018054600181600116156101000203166002900480601f0160208091040260200160405190810160405280929190818152602001828054600181600116156101000203166002900480156124a55780601f1061247a576101008083540402835291602001916124a5565b820191906000526020600020905b81548152906001019060200180831161248857829003601f168201915b50505050508152602001600382015481526020016004820160009054906101000a900473ffffffffffffffffffffffffffffffffffffffff1673ffffffffffffffffffffffffffffffffffffffff1673ffffffffffffffffffffffffffffffffffffffff1681526020016005820160009054906101000a900473ffffffffffffffffffffffffffffffffffffffff1673ffffffffffffffffffffffffffffffffffffffff1673ffffffffffffffffffffffffffffffffffffffff168152505090508681600001519650868260200151965086836060015196508684608001519650868560a001519650869650965096509650965096505091939550919395565b60006125af613681565b6125b7613681565b60008060006125c46135b4565b6001600760008a73ffffffffffffffffffffffffffffffffffffffff1673ffffffffffffffffffffffffffffffffffffffff1681526020019081526020016000205403965060058781548110151561261857fe5b906000526020600020906007020160c060405190810160405290816000820160009054906101000a900473ffffffffffffffffffffffffffffffffffffffff1673ffffffffffffffffffffffffffffffffffffffff1673ffffffffffffffffffffffffffffffffffffffff168152602001600182018054600181600116156101000203166002900480601f0160208091040260200160405190810160405280929190818152602001828054600181600116156101000203166002900480156127215780601f106126f657610100808354040283529160200191612721565b820191906000526020600020905b81548152906001019060200180831161270457829003601f168201915b50505050508152602001600282018054600181600116156101000203166002900480601f0160208091040260200160405190810160405280929190818152602001828054600181600116156101000203166002900480156127c35780601f10612798576101008083540402835291602001916127c3565b820191906000526020600020905b8154815290600101906020018083116127a657829003601f168201915b50505050508152602001600382015481526020016004820160009054906101000a900473ffffffffffffffffffffffffffffffffffffffff1673ffffffffffffffffffffffffffffffffffffffff1673ffffffffffffffffffffffffffffffffffffffff1681526020016005820160009054906101000a900473ffffffffffffffffffffffffffffffffffffffff1673ffffffffffffffffffffffffffffffffffffffff1673ffffffffffffffffffffffffffffffffffffffff168152505090508681602001519650868260400151965086836060015196508684608001519650868560a001519650869650965096509650965096505091939550919395565b60006128cd613681565b6128d5613681565b60008060006128e26135b4565b6005888154811015156128f157fe5b906000526020600020906007020160c060405190810160405290816000820160009054906101000a900473ffffffffffffffffffffffffffffffffffffffff1673ffffffffffffffffffffffffffffffffffffffff1673ffffffffffffffffffffffffffffffffffffffff168152602001600182018054600181600116156101000203166002900480601f0160208091040260200160405190810160405280929190818152602001828054600181600116156101000203166002900480156129fa5780601f106129cf576101008083540402835291602001916129fa565b820191906000526020600020905b8154815290600101906020018083116129dd57829003601f168201915b50505050508152602001600282018054600181600116156101000203166002900480601f016020809104026020016040519081016040528092919081815260200182805460018160011615610100020316600290048015612a9c5780601f10612a7157610100808354040283529160200191612a9c565b820191906000526020600020905b815481529060010190602001808311612a7f57829003601f168201915b50505050508152602001600382015481526020016004820160009054906101000a900473ffffffffffffffffffffffffffffffffffffffff1673ffffffffffffffffffffffffffffffffffffffff1673ffffffffffffffffffffffffffffffffffffffff1681526020016005820160009054906101000a900473ffffffffffffffffffffffffffffffffffffffff1673ffffffffffffffffffffffffffffffffffffffff1673ffffffffffffffffffffffffffffffffffffffff16815250509050806000015196508681602001519650868260400151965086836060015196508684608001519650868560a001519650869650965096509650965096505091939550919395565b612bab613695565b6004805480602002602001604051908101604052809291908181526020018280548015612c2d57602002820191906000526020600020905b8160009054906101000a900473ffffffffffffffffffffffffffffffffffffffff1673ffffffffffffffffffffffffffffffffffffffff1681526020019060010190808311612be3575b5050505050905090565b6000600580549050905090565b6000600354905090565b600080612c596135b4565b6001600760008673ffffffffffffffffffffffffffffffffffffffff1673ffffffffffffffffffffffffffffffffffffffff16815260200190815260200160002054039150600582815481101515612cad57fe5b906000526020600020906007020160c060405190810160405290816000820160009054906101000a900473ffffffffffffffffffffffffffffffffffffffff1673ffffffffffffffffffffffffffffffffffffffff1673ffffffffffffffffffffffffffffffffffffffff168152602001600182018054600181600116156101000203166002900480601f016020809104026020016040519081016040528092919081815260200182805460018160011615610100020316600290048015612db65780601f10612d8b57610100808354040283529160200191612db6565b820191906000526020600020905b815481529060010190602001808311612d9957829003601f168201915b50505050508152602001600282018054600181600116156101000203166002900480601f016020809104026020016040519081016040528092919081815260200182805460018160011615610100020316600290048015612e585780601f10612e2d57610100808354040283529160200191612e58565b820191906000526020600020905b815481529060010190602001808311612e3b57829003601f168201915b50505050508152602001600382015481526020016004820160009054906101000a900473ffffffffffffffffffffffffffffffffffffffff1673ffffffffffffffffffffffffffffffffffffffff1673ffffffffffffffffffffffffffffffffffffffff1681526020016005820160009054906101000a900473ffffffffffffffffffffffffffffffffffffffff1673ffffffffffffffffffffffffffffffffffffffff1673ffffffffffffffffffffffffffffffffffffffff1681525050905080604001516040518082805190602001908083835b602083101515612f535780518252602082019150602081019050602083039250612f2e565b6001836020036101000a038019825116818451168082178552505050505050905001915050604051809103902092505050919050565b823373ffffffffffffffffffffffffffffffffffffffff16600582815481101515612fb057fe5b906000526020600020906007020160040160009054906101000a900473ffffffffffffffffffffffffffffffffffffffff1673ffffffffffffffffffffffffffffffffffffffff1614151561300457600080fd5b8160058581548110151561301457fe5b90600052602060002090600702016006016000856000191660001916815260200190815260200160002081600019169055508260001916847f7991c63a749706fd298fc2387764d640be6e714307b6357b1d3c2ce35cba3b528460405180826000191660001916815260200191505060405180910390a350505050565b60035481565b6000809054906101000a900473ffffffffffffffffffffffffffffffffffffffff1673ffffffffffffffffffffffffffffffffffffffff163373ffffffffffffffffffffffffffffffffffffffff161415156130f257600080fd5b6004805480600101828161310691906136a9565b9160005260206000209001600083909190916101000a81548173ffffffffffffffffffffffffffffffffffffffff021916908373ffffffffffffffffffffffffffffffffffffffff1602179055505050565b60025481565b60006005805480600101828161317491906136d5565b9160005260206000209060070201600060c0604051908101604052808b73ffffffffffffffffffffffffffffffffffffffff1681526020018a81526020018981526020018881526020018773ffffffffffffffffffffffffffffffffffffffff1681526020018673ffffffffffffffffffffffffffffffffffffffff16815250909190915060008201518160000160006101000a81548173ffffffffffffffffffffffffffffffffffffffff021916908373ffffffffffffffffffffffffffffffffffffffff160217905550602082015181600101908051906020019061325c929190613707565b506040820151816002019080519060200190613279929190613707565b506060820151816003015560808201518160040160006101000a81548173ffffffffffffffffffffffffffffffffffffffff021916908373ffffffffffffffffffffffffffffffffffffffff16021790555060a08201518160050160006101000a81548173ffffffffffffffffffffffffffffffffffffffff021916908373ffffffffffffffffffffffffffffffffffffffff160217905550505050600580549050600760008973ffffffffffffffffffffffffffffffffffffffff1673ffffffffffffffffffffffffffffffffffffffff168152602001908152602001600020819055506005805490506008876040518082805190602001908083835b60208310151561339c5780518252602082019150602081019050602083039250613377565b6001836020036101000a0380198251168184511680821785525050505050509050019150509081526020016040518091039020819055506005805490506009866040518082805190602001908083835b60208310151561341157805182526020820191506020810190506020830392506133ec565b6001836020036101000a0380198251168184511680821785525050505050509050019150509081526020016040518091039020819055508173ffffffffffffffffffffffffffffffffffffffff168373ffffffffffffffffffffffffffffffffffffffff168873ffffffffffffffffffffffffffffffffffffffff167f69c543a4fa1ee258ee196ad7a79a5e0c51c0457e772821b9405127b6633a5b2b8989600160058054905003604051808060200180602001848152602001838103835286818151815260200191508051906020019080838360005b838110156135035780820151818401526020810190506134e8565b50505050905090810190601f1680156135305780820380516001836020036101000a031916815260200191505b50838103825285818151815260200191508051906020019080838360005b8381101561356957808201518184015260208101905061354e565b50505050905090810190601f1680156135965780820380516001836020036101000a031916815260200191505b509550505050505060405180910390a4600190509695505050505050565b60c060405190810160405280600073ffffffffffffffffffffffffffffffffffffffff1681526020016135e5613787565b81526020016135f2613787565b815260200160008152602001600073ffffffffffffffffffffffffffffffffffffffff168152602001600073ffffffffffffffffffffffffffffffffffffffff1681525090565b50805460018160011615610100020316600290046000825580601f1061365f575061367e565b601f01602090049060005260206000209081019061367d919061379b565b5b50565b602060405190810160405280600081525090565b602060405190810160405280600081525090565b8154818355818115116136d0578183600052602060002091820191016136cf919061379b565b5b505050565b8154818355818115116137025760070281600702836000526020600020918201910161370191906137c0565b5b505050565b828054600181600116156101000203166002900490600052602060002090601f016020900481019282601f1061374857805160ff1916838001178555613776565b82800160010185558215613776579182015b8281111561377557825182559160200191906001019061375a565b5b509050613783919061379b565b5090565b602060405190810160405280600081525090565b6137bd91905b808211156137b95760008160009055506001016137a1565b5090565b90565b61387991905b8082111561387557600080820160006101000a81549073ffffffffffffffffffffffffffffffffffffffff02191690556001820160006138069190613639565b6002820160006138169190613639565b60038201600090556004820160006101000a81549073ffffffffffffffffffffffffffffffffffffffff02191690556005820160006101000a81549073ffffffffffffffffffffffffffffffffffffffff0219169055506007016137c6565b5090565b905600a165627a7a723058203fd3ee02beb82bef527b38d633231ee5e405337520158f5bf71558e5f00794650029",
  "source": "/*\n\n Copyright 2017-2018 RigoBlock, Rigo Investment Sagl.\n\n Licensed under the Apache License, Version 2.0 (the \"License\");\n you may not use this file except in compliance with the License.\n You may obtain a copy of the License at\n\n     http://www.apache.org/licenses/LICENSE-2.0\n\n Unless required by applicable law or agreed to in writing, software\n distributed under the License is distributed on an \"AS IS\" BASIS,\n WITHOUT WARRANTIES OR CONDITIONS OF ANY KIND, either express or implied.\n See the License for the specific language governing permissions and\n limitations under the License.\n\n*/\n\npragma solidity ^0.4.19;\n\nimport { Owned } from \"../utils/Owned/Owned.sol\";\nimport { DragoRegistryFace } from \"../Registry/DragoRegistryFace.sol\";\nimport { AuthorityFace as Authority } from \"../Authority/AuthorityFace.sol\";\n\n/// @title Drago Registry - Allows registration of pools.\n/// @author Gabriele Rigo - <gab@rigoblock.com>\ncontract DragoRegistry is DragoRegistryFace, Owned {\n\n    address public AUTHORITY;\n    uint public VERSION;\n\n    uint public fee = 0;\n\n    address[] groups;\n\n    Drago[] dragos;\n\n    mapping (bytes32 => address) mapFromKey;\n    mapping (address => uint) mapFromAddress;\n    mapping (string => uint) mapFromName;\n    mapping (string => uint) mapFromSymbol;\n\n    struct Drago {\n        address drago;\n        string name;\n        string symbol;\n        uint dragoId;\n        address owner;\n        address group;\n        mapping (bytes32 => bytes32) meta;\n    }\n\n    // EVENTS\n\n    event Registered(string name, string symbol, uint id, address indexed drago, address indexed owner, address indexed group);\n    event Unregistered(string indexed name, string indexed symbol, uint indexed id);\n    event MetaChanged(uint indexed id, bytes32 indexed key, bytes32 value);\n\n    // MODIFIERS\n\n    modifier when_fee_paid {\n        require(msg.value >= fee);\n        _;\n    }\n\n    modifier when_address_free(address _drago) {\n        require(mapFromAddress[_drago] == 0);\n        _;\n    }\n\n    modifier when_is_symbol(string _symbol) {\n        require(bytes(_symbol).length == 3);\n        _;\n    }\n\n    modifier when_has_symbol(string _symbol) {\n        require(mapFromSymbol[_symbol] != 0);\n        _;\n    }\n\n    modifier only_drago_owner(uint _id) {\n        require(dragos[_id].owner == msg.sender);\n        _;\n    }\n\n    modifier when_name_free(string _name) {\n        require(mapFromName[_name] == 0);\n        _;\n    }\n\n    modifier when_has_name(string _name) {\n        require(mapFromName[_name] != 0);\n        _;\n    }\n\n    modifier only_authority {\n        Authority auth = Authority(AUTHORITY);\n        require(auth.isAuthority(msg.sender) == true);\n        _;\n    }\n\n    function DragoRegistry(address _authority) public {\n        AUTHORITY = _authority;\n    }\n\n    // CORE CORE FUNCTIONS\n\n    /// @dev Allows a factory which is an authority to register a pool\n    /// @param _drago Address of the pool\n    /// @param _name Name of the pool\n    /// @param _symbol Symbol of the pool\n    /// @param _dragoId Id number of the pool\n    /// @param _owner Address of the pool owner\n    function register(\n        address _drago,\n        string _name,\n        string _symbol,\n        uint _dragoId,\n        address _owner)\n        public\n        payable\n        only_authority\n        when_fee_paid\n        when_address_free(_drago)\n        when_name_free(_name)\n        when_is_symbol(_symbol)\n        returns (bool)\n    {\n        return registerAs(_drago, _name, _symbol, _dragoId, _owner, msg.sender);\n    }\n\n    /// @dev Allows owner to unregister a pool\n    /// @param _id Number of the pool\n    function unregister(uint _id) public only_owner {\n        Unregistered(dragos[_id].name, dragos[_id].symbol, _id);\n        delete mapFromAddress[dragos[_id].drago];\n        delete mapFromName[dragos[_id].name];\n        delete mapFromSymbol[dragos[_id].symbol];\n        delete dragos[_id];\n    }\n\n    /// @dev Allows pool owner to set metadata for a pool\n    /// @param _id Number corresponding to pool id\n    /// @param _key Bytes32 of the key\n    /// @param _value Bytes32 of the value\n    function setMeta(uint _id, bytes32 _key, bytes32 _value)\n        public\n        only_drago_owner(_id)\n    {\n        dragos[_id].meta[_key] = _value;\n        MetaChanged(_id, _key, _value);\n    }\n\n    /// @dev Allows owner to add a group of pools (a factory)\n    /// @param _group Address of the new group\n    function addGroup(address _group)\n        public\n        only_owner\n    {\n        groups.push(_group);\n    }\n\n    /// @dev Allows owner to set a fee to register pools\n    /// @param _fee Value of the fee in wei\n    function setFee(uint _fee) public only_owner {\n        fee = _fee;\n    }\n\n    /// @dev Allows owner to create a new registry.\n    /// @dev When the registry gets upgraded, a migration of all funds is required\n    /// @param _newAddress Address of new registry.\n    function upgrade(address _newAddress) public payable only_owner {\n        DragoRegistry registry = DragoRegistry(_newAddress);\n        ++VERSION;\n        registry.setUpgraded(VERSION);\n        address(registry).transfer(this.balance);\n    }\n\n    /// @dev Allows owner to update version on registry upgrade\n    /// @param _version Number of the new version\n    function setUpgraded(uint _version) external only_owner {\n        VERSION = _version;\n    }\n\n    /// @dev Allows owner to collect fees by draining the balance\n    function drain() public only_owner {\n        msg.sender.transfer(this.balance);\n    }\n\n    // CONSTANT CORE FUNCTIONS\n\n    /// @dev Provides the total number of registered pools\n    /// @return Number of pools\n    function dragoCount() public constant returns (uint) {\n        return dragos.length;\n    }\n\n    /// @dev Provides a pool's struct data\n    /// @param _id Registration number of the pool\n    /// @return Pool struct data\n    function fromId(uint _id)\n        public\n        constant\n        returns (\n            address drago,\n            string name,\n            string symbol,\n            uint dragoId,\n            address owner,\n            address group\n        )\n    {\n        Drago memory pool = dragos[_id];\n        return (\n            drago = pool.drago,\n            name = pool.name,\n            symbol = pool.symbol,\n            dragoId = pool.dragoId,\n            owner = pool.owner,\n            group = pool.group\n        );\n    }\n\n    /// @dev Provides a pool's struct data\n    /// @param _drago Address of the pool\n    /// @return Pool struct data\n    function fromAddress(address _drago)\n        public\n        constant\n        returns (\n            uint id,\n            string name,\n            string symbol,\n            uint dragoId,\n            address owner,\n            address group\n        )\n    {\n        id = mapFromAddress[_drago] - 1;\n        Drago memory pool = dragos[id];\n        return (\n            id,\n            name = pool.name,\n            symbol = pool.symbol,\n            dragoId = pool.dragoId,\n            owner = pool.owner,\n            group = pool.group\n        );\n    }\n\n    /// @dev Provides a pool's struct data\n    /// @param _symbol Symbol of the pool\n    /// @return Pool struct data\n    function fromSymbol(string _symbol)\n        public\n        constant\n        returns (\n            uint id,\n            address drago,\n            string name,\n            uint dragoId,\n            address owner,\n            address group\n        )\n    {\n        id = mapFromSymbol[_symbol] - 1;\n        Drago memory pool = dragos[id];\n        return (\n            id,\n            drago = pool.drago,\n            name = pool.name,\n            dragoId = pool.dragoId,\n            owner = pool.owner,\n            group = pool.group\n        );\n    }\n\n    /// @dev Provides a pool's struct data\n    /// @param _name Name of the pool\n    /// @return Pool struct data\n    function fromName(string _name)\n        public\n        constant\n        returns (\n            uint id,\n            address drago,\n            string symbol,\n            uint dragoId,\n            address owner,\n            address group\n        )\n    {\n        id = mapFromName[_name] - 1;\n        Drago memory pool = dragos[id];\n        return (\n            id,\n            drago = pool.drago,\n            symbol = pool.symbol,\n            dragoId = pool.dragoId,\n            owner = pool.owner,\n            group = pool.group\n        );\n    }\n\n    /// @dev Provides a pool's struct data\n    /// @param _name Name of the pool\n    /// @param _symbol Symbol of the pool\n    /// @return Pool struct data\n    function fromNameSymbol(string _name, string _symbol)\n        public\n        constant\n        returns (address)\n    {\n        uint id = mapFromName[_name] - 1;\n        uint idCheck = mapFromSymbol[_symbol] - 1;\n        Drago memory pool = dragos[id];\n        require(id == idCheck);\n        address drago = pool.drago;\n        return drago;\n    }\n\n    /// @dev Provides a pool's name from its address\n    /// @param _pool Address of the pool\n    /// @return Name of the pool\n    function getNameFromAddress(address _pool)\n        external\n        constant\n        returns (bytes32)\n    {\n        uint id = mapFromAddress[_pool] - 1;\n        Drago memory pool = dragos[id];\n        return keccak256(pool.name);\n    }\n\n    /// @dev Provides a pool's symbol from its address\n    /// @param _pool Address of the pool\n    /// @return Symbol of the pool\n    function getSymbolFromAddress(address _pool)\n        external\n        constant\n        returns (bytes32)\n    {\n        uint id = mapFromAddress[_pool] - 1;\n        Drago memory pool = dragos[id];\n        return keccak256(pool.symbol);\n    }\n\n    /// @dev Provides a pool's metadata\n    /// @param _id Id number of the pool\n    /// @param _key Bytes32 key\n    /// @return Pool metadata\n    function meta(uint _id, bytes32 _key)\n        public\n        constant\n        returns (bytes32)\n    {\n        return dragos[_id].meta[_key];\n    }\n\n    /// @dev Provides the addresses of the groups/factories\n    /// @return Array of addresses of the groups\n    function getGroups()\n        public\n        constant\n        returns (address[])\n    {\n        return groups;\n    }\n\n    /// @dev Provides the fee required to register a pool\n    /// @return Number of the fee in wei\n    function getFee() public constant returns (uint) {\n        return fee;\n    }\n\n    // INTERNAL CORE FUNCTIONS\n\n    /// @dev Allows authority to register a pool for a certain group\n    /// @param _drago Address of the pool\n    /// @param _name Name of the pool\n    /// @param _symbol Symbol of the pool\n    /// @param _dragoId Id number of the pool\n    /// @param _owner Address of the pool owner\n    /// @param _group Address of the group/factory\n    function registerAs(\n        address _drago,\n        string _name,\n        string _symbol,\n        uint _dragoId,\n        address _owner,\n        address _group)\n        internal\n        returns (bool)\n    {\n        dragos.push(Drago(_drago, _name, _symbol, _dragoId, _owner, _group));\n        mapFromAddress[_drago] = dragos.length;\n        mapFromName[_name] = dragos.length;\n        mapFromSymbol[_symbol] = dragos.length;\n        Registered(_name, _symbol, dragos.length - 1, _drago, _owner, _group);\n        return true;\n    }\n}\n",
  "sourcePath": "/home/gab/truffle/contracts/contracts/Registry/DragoRegistry.sol",
  "compiler": {
    "name": "solc",
    "version": "0.4.19+commit.c4cbbb05.Emscripten.clang"
  },
  "schemaVersion": "2.0.0",
  "updatedAt": "2018-03-05T01:35:43.729Z"
}