{
  "contractName": "DragoFace",
  "abi": [
    {
      "payable": true,
      "stateMutability": "payable",
      "type": "fallback"
    },
    {
      "constant": false,
      "inputs": [],
      "name": "buyDrago",
      "outputs": [
        {
          "name": "success",
          "type": "bool"
        }
      ],
      "payable": true,
      "stateMutability": "payable",
      "type": "function"
    },
    {
      "constant": false,
      "inputs": [
        {
          "name": "_hodler",
          "type": "address"
        }
      ],
      "name": "buyDragoOnBehalf",
      "outputs": [
        {
          "name": "success",
          "type": "bool"
        }
      ],
      "payable": true,
      "stateMutability": "payable",
      "type": "function"
    },
    {
      "constant": false,
      "inputs": [
        {
          "name": "_amount",
          "type": "uint256"
        }
      ],
      "name": "sellDrago",
      "outputs": [
        {
          "name": "success",
          "type": "bool"
        }
      ],
      "payable": false,
      "stateMutability": "nonpayable",
      "type": "function"
    },
    {
      "constant": false,
      "inputs": [
        {
          "name": "_newSellPrice",
          "type": "uint256"
        },
        {
          "name": "_newBuyPrice",
          "type": "uint256"
        }
      ],
      "name": "setPrices",
      "outputs": [],
      "payable": false,
      "stateMutability": "nonpayable",
      "type": "function"
    },
    {
      "constant": false,
      "inputs": [
        {
          "name": "_minPeriod",
          "type": "uint32"
        }
      ],
      "name": "changeMinPeriod",
      "outputs": [],
      "payable": false,
      "stateMutability": "nonpayable",
      "type": "function"
    },
    {
      "constant": false,
      "inputs": [
        {
          "name": "_ratio",
          "type": "uint256"
        }
      ],
      "name": "changeRatio",
      "outputs": [],
      "payable": false,
      "stateMutability": "nonpayable",
      "type": "function"
    },
    {
      "constant": false,
      "inputs": [
        {
          "name": "_transactionFee",
          "type": "uint256"
        }
      ],
      "name": "setTransactionFee",
      "outputs": [],
      "payable": false,
      "stateMutability": "nonpayable",
      "type": "function"
    },
    {
      "constant": false,
      "inputs": [
        {
          "name": "_feeCollector",
          "type": "address"
        }
      ],
      "name": "changeFeeCollector",
      "outputs": [],
      "payable": false,
      "stateMutability": "nonpayable",
      "type": "function"
    },
    {
      "constant": false,
      "inputs": [
        {
          "name": "_dragoDao",
          "type": "address"
        }
      ],
      "name": "changeDragoDao",
      "outputs": [],
      "payable": false,
      "stateMutability": "nonpayable",
      "type": "function"
    },
    {
      "constant": false,
      "inputs": [
        {
          "name": "_exchange",
          "type": "address"
        },
        {
          "name": "_amount",
          "type": "uint256"
        }
      ],
      "name": "depositToExchange",
      "outputs": [],
      "payable": false,
      "stateMutability": "nonpayable",
      "type": "function"
    },
    {
      "constant": false,
      "inputs": [
        {
          "name": "_exchange",
          "type": "address"
        }
      ],
      "name": "operateOnExchange",
      "outputs": [],
      "payable": false,
      "stateMutability": "nonpayable",
      "type": "function"
    },
    {
      "constant": true,
      "inputs": [],
      "name": "getDragoEventful",
      "outputs": [
        {
          "name": "",
          "type": "address"
        }
      ],
      "payable": false,
      "stateMutability": "view",
      "type": "function"
    },
    {
      "constant": true,
      "inputs": [],
      "name": "getData",
      "outputs": [
        {
          "name": "name",
          "type": "string"
        },
        {
          "name": "symbol",
          "type": "string"
        },
        {
          "name": "sellPrice",
          "type": "uint256"
        },
        {
          "name": "buyPrice",
          "type": "uint256"
        }
      ],
      "payable": false,
      "stateMutability": "view",
      "type": "function"
    },
    {
      "constant": true,
      "inputs": [],
      "name": "getAdminData",
      "outputs": [
        {
          "name": "feeCollector",
          "type": "address"
        },
        {
          "name": "dragoDao",
          "type": "address"
        },
        {
          "name": "ratio",
          "type": "uint256"
        },
        {
          "name": "transactionFee",
          "type": "uint256"
        },
        {
          "name": "minPeriod",
          "type": "uint32"
        }
      ],
      "payable": false,
      "stateMutability": "view",
      "type": "function"
    }
  ],
  "bytecode": "0x6060604052341561000f57600080fd5b61059d8061001e6000396000f3006060604052600436106100d0576000357c0100000000000000000000000000000000000000000000000000000000900463ffffffff16806305fefda7146100d2578063096a8ab7146100fe57806326c7a0de146101215780632fbbde2d146101765780633bc5de301461019857806354bdbd4d146102a057806354ea1538146102c95780636854f6681461030457806384193be21461034a5780638f7a844b1461038c5780639245290d14610435578063c8c3b9261461046e578063d0f187ef146104a7578063f6a33253146104e0575b005b34156100dd57600080fd5b6100fc6004808035906020019091908035906020019091905050610503565b005b341561010957600080fd5b61011f6004808035906020019091905050610507565b005b341561012c57600080fd5b61013461050a565b604051808273ffffffffffffffffffffffffffffffffffffffff1673ffffffffffffffffffffffffffffffffffffffff16815260200191505060405180910390f35b61017e61050f565b604051808215151515815260200191505060405180910390f35b34156101a357600080fd5b6101ab610514565b604051808060200180602001858152602001848152602001838103835287818151815260200191508051906020019080838360005b838110156101fb5780820151818401526020810190506101e0565b50505050905090810190601f1680156102285780820380516001836020036101000a031916815260200191505b50838103825286818151815260200191508051906020019080838360005b83811015610261578082015181840152602081019050610246565b50505050905090810190601f16801561028e5780820380516001836020036101000a031916815260200191505b50965050505050505060405180910390f35b34156102ab57600080fd5b6102c7600480803563ffffffff1690602001909190505061052d565b005b34156102d457600080fd5b6102ea6004808035906020019091905050610530565b604051808215151515815260200191505060405180910390f35b610330600480803573ffffffffffffffffffffffffffffffffffffffff16906020019091905050610537565b604051808215151515815260200191505060405180910390f35b341561035557600080fd5b61038a600480803573ffffffffffffffffffffffffffffffffffffffff1690602001909190803590602001909190505061053e565b005b341561039757600080fd5b61039f610542565b604051808673ffffffffffffffffffffffffffffffffffffffff1673ffffffffffffffffffffffffffffffffffffffff1681526020018573ffffffffffffffffffffffffffffffffffffffff1673ffffffffffffffffffffffffffffffffffffffff1681526020018481526020018381526020018263ffffffff1663ffffffff1681526020019550505050505060405180910390f35b341561044057600080fd5b61046c600480803573ffffffffffffffffffffffffffffffffffffffff16906020019091905050610551565b005b341561047957600080fd5b6104a5600480803573ffffffffffffffffffffffffffffffffffffffff16906020019091905050610554565b005b34156104b257600080fd5b6104de600480803573ffffffffffffffffffffffffffffffffffffffff16906020019091905050610557565b005b34156104eb57600080fd5b610501600480803590602001909190505061055a565b005b5050565b50565b600090565b600090565b61051c61055d565b61052461055d565b60008090919293565b50565b6000919050565b6000919050565b5050565b60008060008060009091929394565b50565b50565b50565b50565b6020604051908101604052806000815250905600a165627a7a72305820d04e42fb7cefa6e930ad7099cdc16d461c3ba372dec0e47e2c1935e9c3fb8b750029",
  "source": "/*\n\n Copyright 2017-2018 RigoBlock, Rigo Investment Sagl.\n\n Licensed under the Apache License, Version 2.0 (the \"License\");\n you may not use this file except in compliance with the License.\n You may obtain a copy of the License at\n\n     http://www.apache.org/licenses/LICENSE-2.0\n\n Unless required by applicable law or agreed to in writing, software\n distributed under the License is distributed on an \"AS IS\" BASIS,\n WITHOUT WARRANTIES OR CONDITIONS OF ANY KIND, either express or implied.\n See the License for the specific language governing permissions and\n limitations under the License.\n\n*/\n\npragma solidity ^0.4.19;\n\n/// @title Drago Interface - Allows interaction with the Drago contract.\n/// @author Gabriele Rigo - <gab@rigoblock.com>\ncontract DragoFace {\n\n    // CORE FUNCTIONS\n\n    function buyDrago() external payable returns (bool success) {}\n    function buyDragoOnBehalf(address _hodler) public payable returns (bool success) {}\n    function sellDrago(uint _amount) external returns (bool success) {}\n    function setPrices(uint _newSellPrice, uint _newBuyPrice)  public {}\n    function changeMinPeriod(uint32 _minPeriod) public {}\n    function changeRatio(uint _ratio) public {}\n    function setTransactionFee(uint _transactionFee) public {}\n    function changeFeeCollector(address _feeCollector) public {}\n    function changeDragoDao(address _dragoDao) public {}\n    function depositToExchange(address _exchange, uint _amount) public {}\n    function operateOnExchange(address _exchange) external {}\n    //function setOwner(address _new) public {}\n    function() external payable {}\n\n    // PUBLIC CONSTANT FUNCTIONS\n\n    //function balanceOf(address _who) public constant returns (uint) {}\n    function getDragoEventful() public constant returns (address) {}\n    function getData() public constant returns (string name, string symbol, uint sellPrice, uint buyPrice) {}\n    function getAdminData() public constant returns (address feeCollector, address dragoDao, uint ratio, uint transactionFee, uint32 minPeriod) {}\n    //function getOwner() public constant returns (address) {}\n    //function totalSupply() public constant returns (uint256) {}\n}\n",
  "sourcePath": "/home/gab/truffle/contracts/contracts/Drago/DragoFace.sol",
  "compiler": {
    "name": "solc",
    "version": "0.4.19+commit.c4cbbb05.Emscripten.clang"
  },
  "schemaVersion": "2.0.0",
  "updatedAt": "2018-03-05T01:35:43.690Z"
}