{
  "contractName": "Drago",
  "abi": [
    {
      "constant": false,
      "inputs": [
        {
          "name": "_spender",
          "type": "address"
        },
        {
          "name": "_value",
          "type": "uint256"
        }
      ],
      "name": "approve",
      "outputs": [
        {
          "name": "success",
          "type": "bool"
        }
      ],
      "payable": false,
      "stateMutability": "nonpayable",
      "type": "function"
    },
    {
      "constant": false,
      "inputs": [
        {
          "name": "_new",
          "type": "address"
        }
      ],
      "name": "setOwner",
      "outputs": [],
      "payable": false,
      "stateMutability": "nonpayable",
      "type": "function"
    },
    {
      "constant": false,
      "inputs": [
        {
          "name": "_from",
          "type": "address"
        },
        {
          "name": "_to",
          "type": "address"
        },
        {
          "name": "_value",
          "type": "uint256"
        }
      ],
      "name": "transferFrom",
      "outputs": [
        {
          "name": "success",
          "type": "bool"
        }
      ],
      "payable": false,
      "stateMutability": "nonpayable",
      "type": "function"
    },
    {
      "constant": true,
      "inputs": [],
      "name": "getOwner",
      "outputs": [
        {
          "name": "",
          "type": "address"
        }
      ],
      "payable": false,
      "stateMutability": "view",
      "type": "function"
    },
    {
      "constant": true,
      "inputs": [],
      "name": "owner",
      "outputs": [
        {
          "name": "",
          "type": "address"
        }
      ],
      "payable": false,
      "stateMutability": "view",
      "type": "function"
    },
    {
      "constant": false,
      "inputs": [
        {
          "name": "_to",
          "type": "address"
        },
        {
          "name": "_value",
          "type": "uint256"
        }
      ],
      "name": "transfer",
      "outputs": [
        {
          "name": "success",
          "type": "bool"
        }
      ],
      "payable": false,
      "stateMutability": "nonpayable",
      "type": "function"
    },
    {
      "constant": true,
      "inputs": [
        {
          "name": "_owner",
          "type": "address"
        },
        {
          "name": "_spender",
          "type": "address"
        }
      ],
      "name": "allowance",
      "outputs": [
        {
          "name": "",
          "type": "uint256"
        }
      ],
      "payable": false,
      "stateMutability": "view",
      "type": "function"
    },
    {
      "inputs": [
        {
          "name": "_dragoName",
          "type": "string"
        },
        {
          "name": "_dragoSymbol",
          "type": "string"
        },
        {
          "name": "_dragoId",
          "type": "uint256"
        },
        {
          "name": "_owner",
          "type": "address"
        },
        {
          "name": "_authority",
          "type": "address"
        }
      ],
      "payable": false,
      "stateMutability": "nonpayable",
      "type": "constructor"
    },
    {
      "payable": true,
      "stateMutability": "payable",
      "type": "fallback"
    },
    {
      "anonymous": false,
      "inputs": [
        {
          "indexed": true,
          "name": "from",
          "type": "address"
        },
        {
          "indexed": true,
          "name": "to",
          "type": "address"
        },
        {
          "indexed": true,
          "name": "_amount",
          "type": "uint256"
        },
        {
          "indexed": false,
          "name": "_revenue",
          "type": "uint256"
        }
      ],
      "name": "Buy",
      "type": "event"
    },
    {
      "anonymous": false,
      "inputs": [
        {
          "indexed": true,
          "name": "from",
          "type": "address"
        },
        {
          "indexed": true,
          "name": "to",
          "type": "address"
        },
        {
          "indexed": true,
          "name": "_amount",
          "type": "uint256"
        },
        {
          "indexed": false,
          "name": "_revenue",
          "type": "uint256"
        }
      ],
      "name": "Sell",
      "type": "event"
    },
    {
      "anonymous": false,
      "inputs": [
        {
          "indexed": true,
          "name": "_from",
          "type": "address"
        },
        {
          "indexed": true,
          "name": "_to",
          "type": "address"
        },
        {
          "indexed": false,
          "name": "_value",
          "type": "uint256"
        }
      ],
      "name": "Transfer",
      "type": "event"
    },
    {
      "anonymous": false,
      "inputs": [
        {
          "indexed": true,
          "name": "_owner",
          "type": "address"
        },
        {
          "indexed": true,
          "name": "_spender",
          "type": "address"
        },
        {
          "indexed": false,
          "name": "_value",
          "type": "uint256"
        }
      ],
      "name": "Approval",
      "type": "event"
    },
    {
      "anonymous": false,
      "inputs": [
        {
          "indexed": true,
          "name": "old",
          "type": "address"
        },
        {
          "indexed": true,
          "name": "current",
          "type": "address"
        }
      ],
      "name": "NewOwner",
      "type": "event"
    },
    {
      "constant": false,
      "inputs": [],
      "name": "buyDrago",
      "outputs": [
        {
          "name": "success",
          "type": "bool"
        }
      ],
      "payable": true,
      "stateMutability": "payable",
      "type": "function"
    },
    {
      "constant": false,
      "inputs": [
        {
          "name": "_hodler",
          "type": "address"
        }
      ],
      "name": "buyDragoOnBehalf",
      "outputs": [
        {
          "name": "success",
          "type": "bool"
        }
      ],
      "payable": true,
      "stateMutability": "payable",
      "type": "function"
    },
    {
      "constant": false,
      "inputs": [
        {
          "name": "_amount",
          "type": "uint256"
        }
      ],
      "name": "sellDrago",
      "outputs": [
        {
          "name": "success",
          "type": "bool"
        }
      ],
      "payable": false,
      "stateMutability": "nonpayable",
      "type": "function"
    },
    {
      "constant": false,
      "inputs": [
        {
          "name": "_newSellPrice",
          "type": "uint256"
        },
        {
          "name": "_newBuyPrice",
          "type": "uint256"
        }
      ],
      "name": "setPrices",
      "outputs": [],
      "payable": false,
      "stateMutability": "nonpayable",
      "type": "function"
    },
    {
      "constant": false,
      "inputs": [
        {
          "name": "_ratio",
          "type": "uint256"
        }
      ],
      "name": "changeRatio",
      "outputs": [],
      "payable": false,
      "stateMutability": "nonpayable",
      "type": "function"
    },
    {
      "constant": false,
      "inputs": [
        {
          "name": "_transactionFee",
          "type": "uint256"
        }
      ],
      "name": "setTransactionFee",
      "outputs": [],
      "payable": false,
      "stateMutability": "nonpayable",
      "type": "function"
    },
    {
      "constant": false,
      "inputs": [
        {
          "name": "_feeCollector",
          "type": "address"
        }
      ],
      "name": "changeFeeCollector",
      "outputs": [],
      "payable": false,
      "stateMutability": "nonpayable",
      "type": "function"
    },
    {
      "constant": false,
      "inputs": [
        {
          "name": "_dragoDao",
          "type": "address"
        }
      ],
      "name": "changeDragoDao",
      "outputs": [],
      "payable": false,
      "stateMutability": "nonpayable",
      "type": "function"
    },
    {
      "constant": false,
      "inputs": [
        {
          "name": "_minPeriod",
          "type": "uint32"
        }
      ],
      "name": "changeMinPeriod",
      "outputs": [],
      "payable": false,
      "stateMutability": "nonpayable",
      "type": "function"
    },
    {
      "constant": false,
      "inputs": [
        {
          "name": "_exchange",
          "type": "address"
        },
        {
          "name": "_amount",
          "type": "uint256"
        }
      ],
      "name": "depositToExchange",
      "outputs": [],
      "payable": false,
      "stateMutability": "nonpayable",
      "type": "function"
    },
    {
      "constant": false,
      "inputs": [
        {
          "name": "_exchange",
          "type": "address"
        }
      ],
      "name": "operateOnExchange",
      "outputs": [],
      "payable": false,
      "stateMutability": "nonpayable",
      "type": "function"
    },
    {
      "constant": true,
      "inputs": [
        {
          "name": "_who",
          "type": "address"
        }
      ],
      "name": "balanceOf",
      "outputs": [
        {
          "name": "",
          "type": "uint256"
        }
      ],
      "payable": false,
      "stateMutability": "view",
      "type": "function"
    },
    {
      "constant": true,
      "inputs": [],
      "name": "getDragoEventful",
      "outputs": [
        {
          "name": "",
          "type": "address"
        }
      ],
      "payable": false,
      "stateMutability": "view",
      "type": "function"
    },
    {
      "constant": true,
      "inputs": [],
      "name": "getData",
      "outputs": [
        {
          "name": "name",
          "type": "string"
        },
        {
          "name": "symbol",
          "type": "string"
        },
        {
          "name": "sellPrice",
          "type": "uint256"
        },
        {
          "name": "buyPrice",
          "type": "uint256"
        }
      ],
      "payable": false,
      "stateMutability": "view",
      "type": "function"
    },
    {
      "constant": true,
      "inputs": [],
      "name": "getAdminData",
      "outputs": [
        {
          "name": "feeCollector",
          "type": "address"
        },
        {
          "name": "dragodAO",
          "type": "address"
        },
        {
          "name": "ratio",
          "type": "uint256"
        },
        {
          "name": "transactionFee",
          "type": "uint256"
        },
        {
          "name": "minPeriod",
          "type": "uint32"
        }
      ],
      "payable": false,
      "stateMutability": "view",
      "type": "function"
    },
    {
      "constant": true,
      "inputs": [],
      "name": "getVersion",
      "outputs": [
        {
          "name": "",
          "type": "string"
        }
      ],
      "payable": false,
      "stateMutability": "pure",
      "type": "function"
    },
    {
      "constant": true,
      "inputs": [],
      "name": "totalSupply",
      "outputs": [
        {
          "name": "",
          "type": "uint256"
        }
      ],
      "payable": false,
      "stateMutability": "view",
      "type": "function"
    }
  ],
  "bytecode": "0x606060405234156200001057600080fd5b60405162001e1338038062001e1383398101604052808051820191906020018051820191906020018051919060200180519190602001805191506007905085805162000061929160200190620000f4565b50600884805162000077929160200190620000f4565b50600992909255670de0b6b3a7640000600b819055600c5560008054600160a060020a0319908116600160a060020a03938416908117909255600f8054821694841694909417909355601080548416339093169290921790915567016345785d8a0000601255601180549092161790555050605060135562000199565b828054600181600116156101000203166002900490600052602060002090601f016020900481019282601f106200013757805160ff191683800117855562000167565b8280016001018555821562000167579182015b82811115620001675782518255916020019190600101906200014a565b506200017592915062000179565b5090565b6200019691905b8082111562000175576000815560010162000180565b90565b611c6a80620001a96000396000f3006060604052600436106101245763ffffffff60e060020a60003504166305fefda781146101aa578063095ea7b3146101c5578063096a8ab7146101fb5780630d8e6e2c1461021157806313af40351461029b57806318160ddd146102ba57806323b872dd146102df57806326c7a0de146103075780632fbbde2d146103365780633bc5de301461033e57806354bdbd4d1461044057806354ea15381461045c5780636854f6681461047257806370a082311461048657806384193be2146104a5578063893d20e8146104c75780638da5cb5b146104da5780638f7a844b146104ed5780639245290d1461053f578063a9059cbb146101c5578063c8c3b9261461055e578063d0f187ef1461057d578063dd62ed3e1461059c578063f6a33253146105c1575b600f543390600160a060020a031680639aa4d0a08360006040516020015260405160e060020a63ffffffff8416028152600160a060020a039091166004820152602401602060405180830381600087803b151561018057600080fd5b6102c65a03f1151561019157600080fd5b5050506040518051905015156101a657600080fd5b5050005b34156101b557600080fd5b6101c36004356024356105d7565b005b34156101d057600080fd5b6101e7600160a060020a036004351660243561075e565b604051901515815260200160405180910390f35b341561020657600080fd5b6101c3600435610766565b341561021c57600080fd5b610224610830565b60405160208082528190810183818151815260200191508051906020019080838360005b83811015610260578082015183820152602001610248565b50505050905090810190601f16801561028d5780820380516001836020036101000a031916815260200191505b509250505060405180910390f35b34156102a657600080fd5b6101c3600160a060020a0360043516610871565b34156102c557600080fd5b6102cd6108eb565b60405190815260200160405180910390f35b34156102ea57600080fd5b6101e7600160a060020a03600435811690602435166044356108f1565b341561031257600080fd5b61031a6108fa565b604051600160a060020a03909116815260200160405180910390f35b6101e7610965565b341561034957600080fd5b610351610981565b604051808060200180602001858152602001848152602001838103835287818151815260200191508051906020019080838360005b8381101561039e578082015183820152602001610386565b50505050905090810190601f1680156103cb5780820380516001836020036101000a031916815260200191505b50838103825286818151815260200191508051906020019080838360005b838110156104015780820151838201526020016103e9565b50505050905090810190601f16801561042e5780820380516001836020036101000a031916815260200191505b50965050505050505060405180910390f35b341561044b57600080fd5b6101c363ffffffff60043516610ae6565b341561046757600080fd5b6101e7600435610b1d565b6101e7600160a060020a0360043516610c63565b341561049157600080fd5b6102cd600160a060020a0360043516610d06565b34156104b057600080fd5b6101c3600160a060020a0360043516602435610d21565b34156104d257600080fd5b61031a610df5565b34156104e557600080fd5b61031a610e04565b34156104f857600080fd5b610500610e13565b604051600160a060020a039586168152939094166020840152604080840192909252606083015263ffffffff909216608082015260a001905180910390f35b341561054a57600080fd5b6101c3600160a060020a0360043516610e40565b341561056957600080fd5b6101c3600160a060020a0360043516610f1b565b341561058857600080fd5b6101c3600160a060020a0360043516611002565b34156105a757600080fd5b6102cd600160a060020a036004358116906024351661075e565b34156105cc57600080fd5b6101c36004356110f1565b600f54600090600160a060020a031680632330f24733846040516020015260405160e060020a63ffffffff8416028152600160a060020a039091166004820152602401602060405180830381600087803b151561063357600080fd5b6102c65a03f1151561064457600080fd5b5050506040518051905080610667575060005433600160a060020a039081169116145b151561067257600080fd5b83838082111561068157600080fd5b600b5486908690600a90048211158061069f5750600c54600a028110155b156106a957610754565b6106b16108fa565b955085600160a060020a031663554a781833308b8b60006040516020015260405160e060020a63ffffffff8716028152600160a060020a03948516600482015292909316602483015260448201526064810191909152608401602060405180830381600087803b151561072357600080fd5b6102c65a03f1151561073457600080fd5b50505060405180519050151561074957600080fd5b600b889055600c8790555b5050505050505050565b600092915050565b6000805433600160a060020a0390811691161461078257600080fd5b606482111561079057600080fd5b6107986108fa565b905080600160a060020a031663d5aaa73a33308560006040516020015260405160e060020a63ffffffff8616028152600160a060020a0393841660048201529190921660248201526044810191909152606401602060405180830381600087803b151561080457600080fd5b6102c65a03f1151561081557600080fd5b50505060405180519050151561082a57600080fd5b50600d55565b610838611bfe565b60408051908101604052600881527f484620302e342e310000000000000000000000000000000000000000000000006020820152905090565b60005433600160a060020a0390811691161461088c57600080fd5b6000805473ffffffffffffffffffffffffffffffffffffffff1916600160a060020a03838116918217928390559091167f70aea8d848e8a90fb7661b227dc522eb6395c3dac71b63cb59edd5c9899b236460405160405180910390a350565b600a5490565b60009392505050565b600f54600090600160a060020a0316806326c7a0de83604051602001526040518163ffffffff1660e060020a028152600401602060405180830381600087803b151561094557600080fd5b6102c65a03f1151561095657600080fd5b50505060405180519250505090565b600061097033610c63565b151561097b57600080fd5b50600190565b610989611bfe565b610991611bfe565b60008060076000018054600181600116156101000203166002900480601f016020809104026020016040519081016040528092919081815260200182805460018160011615610100020316600290048015610a2d5780601f10610a0257610100808354040283529160200191610a2d565b820191906000526020600020905b815481529060010190602001808311610a1057829003601f168201915b5050505050935060076001018054600181600116156101000203166002900480601f016020809104026020016040519081016040528092919081815260200182805460018160011615610100020316600290048015610acd5780601f10610aa257610100808354040283529160200191610acd565b820191906000526020600020905b815481529060010190602001808311610ab057829003601f168201915b5050600b54600c54989994989097509550929350505050565b60105433600160a060020a03908116911614610b0157600080fd5b600e805463ffffffff191663ffffffff92909216919091179055565b600160a060020a0333166000908152600660205260408120548190819081908190869081901015610b4d57600080fd5b600160a060020a033316600090815260066020526040902054879080820111610b7557600080fd5b600160a060020a03331660009081526006602052604090206002015463ffffffff16421015610ba357600080fd5b610bac886111af565b92985090965094509250610bc0888461123c565b610bcc3389888861158a565b600a54610bd99085611635565b600a55600160a060020a03331683156108fc0284604051600060405180830381858888f193505050501515610c0d57600080fd5b8733600160a060020a031630600160a060020a03167fa082022e93cfcd9f1da5f9236718053910f7e840da080c789c7845698dc032ff8660405190815260200160405180910390a4506001979650505050505050565b600080600080600034600f600301548110151515610c8057600080fd5b610c88611647565b92975090955093509150610c9b826116de565b610ca787838686611a2b565b600a54610cb49086611b05565b600a5534600160a060020a033081169033167f89f5adc174562e07c9c9b1cae7109bbecb21cf9d1b2847e550042b8653c54a0e8560405190815260200160405180910390a45060019695505050505050565b600160a060020a031660009081526006602052604090205490565b60005433600160a060020a03908116911614610d3c57600080fd5b600f548290600160a060020a031680639aa4d0a08360006040516020015260405160e060020a63ffffffff8416028152600160a060020a039091166004820152602401602060405180830381600087803b1515610d9857600080fd5b6102c65a03f11515610da957600080fd5b505050604051805190501515610dbe57600080fd5b600160a060020a03841683156108fc0284604051600060405180830381858888f193505050501515610def57600080fd5b50505050565b600054600160a060020a031690565b600054600160a060020a031681565b601154601054601354600d54600e54600160a060020a0394851694939093169263ffffffff169091929394565b6000805433600160a060020a03908116911614610e5c57600080fd5b610e646108fa565b905080600160a060020a031663f39ba93233308560006040516020015260405160e060020a63ffffffff8616028152600160a060020a03938416600482015291831660248301529091166044820152606401602060405180830381600087803b1515610ecf57600080fd5b6102c65a03f11515610ee057600080fd5b505050604051805150506011805473ffffffffffffffffffffffffffffffffffffffff1916600160a060020a03939093169290921790915550565b60105460009033600160a060020a03908116911614610f3957600080fd5b610f416108fa565b905080600160a060020a0316632a44fba533308560006040516020015260405160e060020a63ffffffff8616028152600160a060020a03938416600482015291831660248301529091166044820152606401602060405180830381600087803b1515610fac57600080fd5b6102c65a03f11515610fbd57600080fd5b505050604051805190501515610fd257600080fd5b506010805473ffffffffffffffffffffffffffffffffffffffff1916600160a060020a0392909216919091179055565b600f54600160a060020a031680639aa4d0a03360006040516020015260405160e060020a63ffffffff8416028152600160a060020a039091166004820152602401602060405180830381600087803b151561105c57600080fd5b6102c65a03f1151561106d57600080fd5b5050506040518051905080611090575060005433600160a060020a039081169116145b151561109b57600080fd5b6110ed600160a060405190810160409081528254600160a060020a0390811683526001840154811660208401526002840154169082015260038201546060820152600490910154608082015283611b29565b5050565b60105460009033600160a060020a0390811691161461110f57600080fd5b6111176108fa565b905080600160a060020a03166391f1df8433308560006040516020015260405160e060020a63ffffffff8616028152600160a060020a0393841660048201529190921660248201526044810191909152606401602060405180830381600087803b151561118357600080fd5b6102c65a03f1151561119457600080fd5b5050506040518051905015156111a957600080fd5b50601355565b60008060008060006127106111c987600760060154611b33565b8115156111d257fe5b04905060646111e682600f60040154611b33565b8115156111ef57fe5b049450846111fd8286611635565b94508461120a8884611635565b945084620f424061122087600760040154611b33565b81151561122957fe5b939a929950909750909104945092505050565b611244611bfe565b61124c611bfe565b60008060076000018054600181600116156101000203166002900480601f0160208091040260200160405190810160405280929190818152602001828054600181600116156101000203166002900480156112e85780601f106112bd576101008083540402835291602001916112e8565b820191906000526020600020905b8154815290600101906020018083116112cb57829003601f168201915b5050505050935060076001018054600181600116156101000203166002900480601f0160208091040260200160405190810160405280929190818152602001828054600181600116156101000203166002900480156113885780601f1061135d57610100808354040283529160200191611388565b820191906000526020600020905b81548152906001019060200180831161136b57829003601f168201915b5050600f5493965050600160a060020a0390921693508391506326c7a0de90506000604051602001526040518163ffffffff1660e060020a028152600401602060405180830381600087803b15156113df57600080fd5b6102c65a03f115156113f057600080fd5b5050506040518051915050600160a060020a038116632ec576123330898989896000604051602001526040518763ffffffff1660e060020a0281526004018087600160a060020a0316600160a060020a0316815260200186600160a060020a0316600160a060020a031681526020018581526020018481526020018060200180602001838103835285818151815260200191508051906020019080838360005b838110156114a8578082015183820152602001611490565b50505050905090810190601f1680156114d55780820380516001836020036101000a031916815260200191505b50838103825284818151815260200191508051906020019080838360005b8381101561150b5780820151838201526020016114f3565b50505050905090810190601f1680156115385780820380516001836020036101000a031916815260200191505b5098505050505050505050602060405180830381600087803b151561155c57600080fd5b6102c65a03f1151561156d57600080fd5b50505060405180519050151561158257600080fd5b505050505050565b600160a060020a0384166000908152600660205260409020546115ad9084611635565b600160a060020a0380861660009081526006602052604080822093909355601154909116815220546115df9083611b05565b601154600160a060020a0390811660009081526006602052604080822093909355601054909116815220546116149082611b05565b601054600160a060020a031660009081526006602052604090205550505050565b60008282111561164157fe5b50900390565b6000806000806000611663620f42403402600760050154611b54565b945061271061167786600760060154611b33565b81151561168057fe5b049050611697620f42403402600760050154611b54565b94508460646116ab83600f60040154611b33565b8115156116b457fe5b049450846116c28387611635565b9450846116cf8885611635565b92989197509550909350915050565b6116e6611bfe565b6116ee611bfe565b60008060076000018054600181600116156101000203166002900480601f01602080910402602001604051908101604052809291908181526020018280546001816001161561010002031660029004801561178a5780601f1061175f5761010080835404028352916020019161178a565b820191906000526020600020905b81548152906001019060200180831161176d57829003601f168201915b5050505050935060076001018054600181600116156101000203166002900480601f01602080910402602001604051908101604052809291908181526020018280546001816001161561010002031660029004801561182a5780601f106117ff5761010080835404028352916020019161182a565b820191906000526020600020905b81548152906001019060200180831161180d57829003601f168201915b5050600f5493965050600160a060020a0390921693508391506326c7a0de90506000604051602001526040518163ffffffff1660e060020a028152600401602060405180830381600087803b151561188157600080fd5b6102c65a03f1151561189257600080fd5b5050506040518051915050600160a060020a038116632cc4e4b63330348989896000604051602001526040518763ffffffff1660e060020a0281526004018087600160a060020a0316600160a060020a0316815260200186600160a060020a0316600160a060020a031681526020018581526020018481526020018060200180602001838103835285818151815260200191508051906020019080838360005b8381101561194a578082015183820152602001611932565b50505050905090810190601f1680156119775780820380516001836020036101000a031916815260200191505b50838103825284818151815260200191508051906020019080838360005b838110156119ad578082015183820152602001611995565b50505050905090810190601f1680156119da5780820380516001836020036101000a031916815260200191505b5098505050505050505050602060405180830381600087803b15156119fe57600080fd5b6102c65a03f11515611a0f57600080fd5b505050604051805190501515611a2457600080fd5b5050505050565b600160a060020a038416600090815260066020526040902054611a4e9084611b05565b600160a060020a038086166000908152600660205260408082209390935560115490911681522054611a809083611b05565b601154600160a060020a039081166000908152600660205260408082209390935560105490911681522054611ab59082611b05565b601054600160a060020a0390811660009081526006602052604080822093909355600e5496909116815220600201805463ffffffff191663ffffffff958616420190951694909417909355505050565b6000828201838110801590611b1a5750828110155b1515611b2257fe5b9392505050565b6110ed8136611b88565b6000828202831580611b1a5750828482811515611b4c57fe5b0414611b2257fe5b600080808311611b6057fe5b8284811515611b6b57fe5b0490508284811515611b7957fe5b068184020184141515611b2257fe5b611b90611c10565b81600080611b9d83611bb6565b91508260008337611baf828488611bc9565b9050602081f35b6000806040519283016040525090919050565b6000818180611bd86020611bb6565b91506020828789866127105a03f41590508015611bf457600080fd5b5095945050505050565b60206040519081016040526000815290565b60a06040519081016040908152600080835260208301819052908201819052606082018190526080820152905600a165627a7a72305820bc21dac89266a99c412b7ce8220024f6f5efc1484399effb4805d3edb666e8900029",
  "source": "/*\n\n Copyright 2017-2018 RigoBlock, Rigo Investment Sagl.\n\n Licensed under the Apache License, Version 2.0 (the \"License\");\n you may not use this file except in compliance with the License.\n You may obtain a copy of the License at\n\n     http://www.apache.org/licenses/LICENSE-2.0\n\n Unless required by applicable law or agreed to in writing, software\n distributed under the License is distributed on an \"AS IS\" BASIS,\n WITHOUT WARRANTIES OR CONDITIONS OF ANY KIND, either express or implied.\n See the License for the specific language governing permissions and\n limitations under the License.\n\n*/\n\npragma solidity ^0.4.20;\n\nimport { AuthorityFace as Authority } from \"../Authority/AuthorityFace.sol\";\nimport { DragoEventfulFace as DragoEventful } from \"../DragoEventful/DragoEventfulFace.sol\";\n\nimport { DragoFace } from \"./DragoFace.sol\";\nimport { ERC20Face } from \"../utils/tokens/ERC20/ERC20Face.sol\";\nimport { OwnedUninitialized as Owned } from \"../utils/Owned/OwnedUninitialized.sol\";\nimport { SafeMathLight as SafeMath } from \"../utils/SafeMath/SafeMathLight.sol\";\nimport { DragoExchangeExtension } from \"./DragoExchangeExtension/DragoExchangeExtension.sol\";\n\n/// @title Drago - A set of rules for a drago.\n/// @author Gabriele Rigo - <gab@rigoblock.com>\ncontract Drago is Owned, ERC20Face, SafeMath, DragoFace {\n\n    using DragoExchangeExtension for *;\n    DragoExchangeExtension.Admin libraryAdmin;\n\n    string constant VERSION = 'HF 0.4.1';\n    uint constant BASE = 1000000; // tokens are divisible by 1 million\n\n    mapping (address => Account) accounts;\n\n    DragoData data;\n    Admin admin;\n\n    struct Receipt {\n        uint units;\n        uint32 activation;\n    }\n\n    struct Account {\n        uint balance;\n        Receipt receipt;\n        mapping(address => address[]) approvedAccount;\n    }\n\n    struct DragoData {\n        string name;\n        string symbol;\n        uint dragoId;\n        uint totalSupply;\n        uint sellPrice;\n        uint buyPrice;\n        uint transactionFee; //in basis points 1 = 0.01%\n        uint32 minPeriod;\n    }\n\n    struct Admin {\n        address authority;\n        address dragoDao;\n        address feeCollector;\n        uint minOrder; // minimum stake to avoid dust clogging things up\n        uint ratio; //ratio is 80%\n    }\n\n    modifier onlyDragoDao {\n        require(msg.sender == admin.dragoDao);\n        _;\n    }\n\n    modifier onlyOwnerOrAuthority {\n        Authority auth = Authority(admin.authority);\n        require(auth.isAuthority(msg.sender) || msg.sender == owner);\n        _;\n    }\n\n    modifier whenApprovedExchange(address _exchange) {\n        Authority auth = Authority(admin.authority);\n        require(auth.isWhitelistedExchange(_exchange));\n        _;\n    }\n\n    modifier ownerOrApprovedExchange() {\n        Authority auth = Authority(admin.authority);\n        require(auth.isWhitelistedExchange(msg.sender) || msg.sender == owner);\n        _;\n    }\n\n    modifier minimumStake(uint amount) {\n        require (amount >= admin.minOrder);\n        _;\n    }\n\n    modifier hasEnough(uint _amount) {\n        require(accounts[msg.sender].balance >= _amount);\n        _;\n    }\n\n    modifier positiveAmount(uint _amount) {\n        require(accounts[msg.sender].balance + _amount > accounts[msg.sender].balance);\n        _;\n    }\n\n    modifier minimumPeriodPast {\n        require(block.timestamp >= accounts[msg.sender].receipt.activation);\n        _;\n    }\n\n    modifier buyPriceHigherOrEqual(uint _sellPrice, uint _buyPrice) {\n        require(_sellPrice <= _buyPrice);\n        _;\n    }\n\n    modifier notPriceError(uint _sellPrice, uint _buyPrice) {\n        if (_sellPrice <= data.sellPrice / 10 || _buyPrice >= data.buyPrice * 10) return;\n        _;\n    }\n\n    event Buy(\n        address indexed from,\n        address indexed to,\n        uint indexed _amount,\n        uint _revenue\n    );\n\n    event Sell(\n        address indexed from,\n        address indexed to,\n        uint indexed _amount,\n        uint _revenue\n    );\n\n    function Drago(\n        string _dragoName,\n        string _dragoSymbol,\n        uint _dragoId,\n        address _owner,\n        address _authority)\n        public\n    {\n        data.name = _dragoName;\n        data.symbol = _dragoSymbol;\n        data.dragoId = _dragoId;\n        data.sellPrice = 1 ether;\n        data.buyPrice = 1 ether;\n        owner = _owner;\n        admin.authority = _authority;\n        admin.dragoDao = msg.sender;\n        admin.minOrder = 100 finney;\n        admin.feeCollector = _owner;\n        admin.ratio = 80;\n    }\n\n    // CORE FUNCTIONS\n\n    /// @dev Allows a user to buy into a drago\n    /// @return Bool the function executed correctly\n    function buyDrago()\n        external\n        payable\n        returns (bool success)\n    {\n        require(buyDragoOnBehalf(msg.sender));\n        return true;\n    }\n\n    /// @dev Allows a user to buy into a drago on behalf of an address\n    /// @param _hodler Address of the target user\n    /// @return Bool the function executed correctly\n    function buyDragoOnBehalf(address _hodler)\n        public\n        payable\n        minimumStake(msg.value)\n        returns (bool success)\n    {\n        uint grossAmount;\n        uint feeDrago;\n        uint feeDragoDao;\n        uint amount;\n        (grossAmount, feeDrago, feeDragoDao, amount) = getPurchaseAmounts();\n        addPurchaseLog(amount);\n        allocatePurchaseTokens(_hodler, amount, feeDrago, feeDragoDao);\n        data.totalSupply = safeAdd(data.totalSupply, grossAmount);\n        Buy(msg.sender, this, msg.value, amount);\n        return true;\n    }\n\n    /// @dev Allows a user to sell from a drago\n    /// @param _amount Number of shares to sell\n    /// @return Bool the function executed correctly\n    function sellDrago(uint256 _amount)\n        external\n        hasEnough(_amount)\n        positiveAmount(_amount)\n        minimumPeriodPast\n        returns (bool success)\n    {\n        uint feeDrago;\n        uint feeDragoDao;\n        uint netAmount;\n        uint netRevenue;\n        (feeDrago, feeDragoDao, netAmount, netRevenue) = getSaleAmounts(_amount);\n        addSaleLog(_amount, netRevenue);\n        allocateSaleTokens(msg.sender, _amount, feeDrago, feeDragoDao);\n        data.totalSupply = safeSub(data.totalSupply, netAmount);\n        msg.sender.transfer(netRevenue);\n        Sell(this, msg.sender, _amount, netRevenue);\n        return true;\n    }\n\n    /// @dev Allows drago owner or authority to set the price for a drago\n    /// @param _newSellPrice Price in wei\n    /// @param _newBuyPrice Price in wei\n    function setPrices(uint _newSellPrice, uint _newBuyPrice)\n        public\n        onlyOwnerOrAuthority\n        buyPriceHigherOrEqual(_newSellPrice, _newBuyPrice)\n        notPriceError(_newSellPrice, _newBuyPrice)\n    {\n        DragoEventful events = DragoEventful(getDragoEventful());\n        require(events.setDragoPrice(msg.sender, this, _newSellPrice, _newBuyPrice));\n        data.sellPrice = _newSellPrice;\n        data.buyPrice = _newBuyPrice;\n    }\n\n    /// @dev Allows drago dao/factory to change fee split ratio\n    /// @param _ratio Number of ratio for wizard, from 0 to 100\n    function changeRatio(uint _ratio) public onlyDragoDao {\n        DragoEventful events = DragoEventful(getDragoEventful());\n        require(events.changeRatio(msg.sender, this, _ratio));\n        admin.ratio = _ratio;\n    }\n\n    /// @dev Allows drago owner to set the transaction fee\n    /// @param _transactionFee Value of the transaction fee in basis points\n    function setTransactionFee(uint _transactionFee) public onlyOwner {\n        require(_transactionFee <= 100); //fee cannot be higher than 1%\n        DragoEventful events = DragoEventful(getDragoEventful());\n        require(events.setTransactionFee(msg.sender, this, _transactionFee));\n        data.transactionFee = _transactionFee;\n    }\n\n    /// @dev Allows owner to decide where to receive the fee\n    /// @param _feeCollector Address of the fee receiver\n    function changeFeeCollector(address _feeCollector) public onlyOwner {\n        DragoEventful events = DragoEventful(getDragoEventful());\n        events.changeFeeCollector(msg.sender, this, _feeCollector);\n        admin.feeCollector = _feeCollector;\n    }\n\n    /// @dev Allows drago dao/factory to upgrade its address\n    /// @param _dragoDao Address of the new drago dao\n    function changeDragoDao(address _dragoDao) public onlyDragoDao {\n        DragoEventful events = DragoEventful(getDragoEventful());\n        require(events.changeDragoDao(msg.sender, this, _dragoDao));\n        admin.dragoDao = _dragoDao;\n    }\n\n    /// @dev Allows drago dao/factory to change the minimum holding period\n    /// @param _minPeriod Number of blocks\n    function changeMinPeriod(uint32 _minPeriod) public onlyDragoDao {\n        data.minPeriod = _minPeriod;\n    }\n\n    function depositToExchange(address _exchange, uint _amount)\n        public\n        onlyOwner\n        whenApprovedExchange(_exchange)\n    {\n        _exchange.transfer(_amount);\n    }\n\n    /// @dev Allows owner or approved exchange to send a transaction to exchange\n    /// @dev With data of signed/unsigned transaction\n    /// @param _exchange Address of the exchange\n    function operateOnExchange(address _exchange)\n        external\n        ownerOrApprovedExchange()\n    {\n        DragoExchangeExtension.operateOnExchange(libraryAdmin, _exchange);\n    }\n\n    /// @dev Allows an exchange contract to send Ether back\n    function() external payable whenApprovedExchange(msg.sender) {}\n\n    // PUBLIC CONSTANT FUNCTIONS\n\n    /// @dev Calculates how many shares a user holds\n    /// @param _who Address of the target account\n    /// @return Number of shares\n    function balanceOf(address _who) public view returns (uint256) {\n        return accounts[_who].balance;\n    }\n\n    /// @dev Gets the address of the logger contract\n    /// @return Address of the logger contrac\n    function getDragoEventful() public view returns (address) {\n        Authority auth = Authority(admin.authority);\n        return auth.getDragoEventful();\n    }\n\n    /// @dev Finds details of a drago pool\n    /// @return String name of a drago\n    /// @return String symbol of a drago\n    /// @return Value of the share price in wei\n    /// @return Value of the share price in wei\n    function getData()\n        public\n        view\n        returns (\n            string name,\n            string symbol,\n            uint sellPrice,\n            uint buyPrice\n        )\n    {\n        name = data.name;\n        symbol = data.symbol;\n        sellPrice = data.sellPrice;\n        buyPrice = data.buyPrice;\n    }\n\n    /// @dev Finds the administrative data of the pool\n    /// @return Address of the account where a user collects fees\n    /// @return Address of the drago dao/factory\n    /// @return Number of the fee split ratio\n    /// @return Value of the transaction fee in basis points\n    /// @return Number of the minimum holding period for shares\n    function getAdminData()\n        public\n        view\n        returns (\n            address feeCollector,\n            address dragodAO,\n            uint ratio,\n            uint transactionFee,\n            uint32 minPeriod\n        )\n    {\n        return (\n            admin.feeCollector,\n            admin.dragoDao,\n            admin.ratio,\n            data.transactionFee,\n            data.minPeriod\n        );\n    }\n\n    /// @dev Returns the version of the type of drago\n    /// @return String of the version\n    function getVersion() public pure returns (string) {\n        return VERSION;\n    }\n\n    /// @dev Returns the total amount of issued tokens for this drago\n    /// @return Number of shares\n    function totalSupply() public view returns (uint256) {\n        return data.totalSupply;\n    }\n\n    // INTERNAL FUNCTIONS\n\n    /// @dev Allocates tokens to buyer, splits fee in tokens to wizard and dao\n    /// @param _hodler Address of the buyer\n    /// @param _amount Value of issued tokens\n    /// @param _feeDrago Number of shares as fee\n    /// @param _feeDragoDao Number of shares as fee to dao\n    function allocatePurchaseTokens(\n        address _hodler,\n        uint _amount,\n        uint _feeDrago,\n        uint _feeDragoDao)\n        internal\n    {\n        accounts[_hodler].balance = safeAdd(accounts[_hodler].balance, _amount);\n        accounts[admin.feeCollector].balance = safeAdd(accounts[admin.feeCollector].balance, _feeDrago);\n        accounts[admin.dragoDao].balance = safeAdd(accounts[admin.dragoDao].balance, _feeDragoDao);\n        accounts[_hodler].receipt.activation = uint32(now) + data.minPeriod;\n    }\n\n    /// @dev Destroys tokens of seller, splits fee in tokens to wizard and dao\n    /// @param _hodler Address of the seller\n    /// @param _amount Value of burnt tokens\n    /// @param _feeDrago Number of shares as fee\n    /// @param _feeDragoDao Number of shares as fee to dao\n    function allocateSaleTokens(\n        address _hodler,\n        uint _amount,\n        uint _feeDrago,\n        uint _feeDragoDao)\n        internal\n    {\n        accounts[_hodler].balance = safeSub(accounts[_hodler].balance, _amount);\n        accounts[admin.feeCollector].balance = safeAdd(accounts[admin.feeCollector].balance, _feeDrago);\n        accounts[admin.dragoDao].balance = safeAdd(accounts[admin.dragoDao].balance, _feeDragoDao);\n    }\n\n    /// @dev Sends a buy log to the eventful contract\n    /// @param _amount Number of purchased shares\n    function addPurchaseLog(uint _amount)\n        internal\n    {\n        bytes memory name = bytes(data.name);\n        bytes memory symbol = bytes(data.symbol);\n        Authority auth = Authority(admin.authority);\n        DragoEventful events = DragoEventful(auth.getDragoEventful());\n        require(events.buyDrago(msg.sender, this, msg.value, _amount, name, symbol));\n    }\n\n    /// @dev Sends a sell log to the eventful contract\n    /// @param _amount Number of sold shares\n    /// @param _netRevenue Value of sale for hodler\n    function addSaleLog(uint _amount, uint _netRevenue)\n        internal\n    {\n        bytes memory name = bytes(data.name);\n        bytes memory symbol = bytes(data.symbol);\n        Authority auth = Authority(admin.authority);\n        DragoEventful events = DragoEventful(auth.getDragoEventful());\n        require(events.sellDrago(msg.sender, this, _amount, _netRevenue, name, symbol));\n    }\n\n    /// @dev Calculates the correct purchase amounts\n    /// @return Number of new shares\n    /// @return Value of fee in shares\n    /// @return Value of fee in shares to dao\n    /// @return Value of net purchased shares\n    function getPurchaseAmounts()\n        internal\n        view\n        returns (\n            uint grossAmount,\n            uint feeDrago,\n            uint feeDragoDao,\n            uint amount\n        )\n    {\n        grossAmount = safeDiv(msg.value * BASE, data.buyPrice);\n        uint fee = safeMul(grossAmount, data.transactionFee) / 10000; //fee is in basis points\n        return (\n            grossAmount = safeDiv(msg.value * BASE, data.buyPrice),\n            feeDrago = safeMul(fee , admin.ratio) / 100,\n            feeDragoDao = safeSub(fee, feeDrago),\n            amount = safeSub(grossAmount, fee)\n        );\n    }\n\n    /// @dev Calculates the correct sale amounts\n    /// @return Value of fee in shares\n    /// @return Value of fee in shares to dao\n    /// @return Value of net sold shares\n    /// @return Value of sale amount for hodler\n    function getSaleAmounts(uint _amount)\n        internal\n        view\n        returns (\n            uint feeDrago,\n            uint feeDragoDao,\n            uint netAmount,\n            uint netRevenue\n        )\n    {\n        uint fee = safeMul(_amount, data.transactionFee) / 10000; //fee is in basis points\n        return (\n            feeDrago = safeMul(fee, admin.ratio) / 100,\n            feeDragoDao = safeSub(fee, feeDragoDao),\n            netAmount = safeSub(_amount, fee),\n            netRevenue = (safeMul(netAmount, data.sellPrice) / BASE)\n        );\n    }\n\n    /// @dev Returns the address of the exchange adapter\n    /// @param _exchange Address of the target exchange\n    /// @return Address of the exchange adapter\n    function getExchangeAdapter(address _exchange)\n        internal\n        view\n        returns (address)\n    {\n        Authority auth = Authority(admin.authority);\n        return auth.getExchangeAdapter(_exchange);\n    }\n}\n",
  "sourcePath": "/home/gab/truffle/contracts/contracts/Drago/Drago.sol",
  "compiler": {
    "name": "solc",
    "version": "0.4.19+commit.c4cbbb05.Emscripten.clang"
  },
  "schemaVersion": "2.0.0",
  "updatedAt": "2018-03-05T21:05:52.472Z"
}