{
  "contractName": "DragoRegistryFace",
  "abi": [
    {
      "anonymous": false,
      "inputs": [
        {
          "indexed": false,
          "name": "name",
          "type": "string"
        },
        {
          "indexed": false,
          "name": "symbol",
          "type": "string"
        },
        {
          "indexed": false,
          "name": "id",
          "type": "uint256"
        },
        {
          "indexed": true,
          "name": "drago",
          "type": "address"
        },
        {
          "indexed": true,
          "name": "owner",
          "type": "address"
        },
        {
          "indexed": true,
          "name": "group",
          "type": "address"
        }
      ],
      "name": "Registered",
      "type": "event"
    },
    {
      "anonymous": false,
      "inputs": [
        {
          "indexed": true,
          "name": "symbol",
          "type": "string"
        },
        {
          "indexed": true,
          "name": "id",
          "type": "uint256"
        }
      ],
      "name": "Unregistered",
      "type": "event"
    },
    {
      "anonymous": false,
      "inputs": [
        {
          "indexed": true,
          "name": "id",
          "type": "uint256"
        },
        {
          "indexed": true,
          "name": "key",
          "type": "bytes32"
        },
        {
          "indexed": false,
          "name": "value",
          "type": "bytes32"
        }
      ],
      "name": "MetaChanged",
      "type": "event"
    },
    {
      "constant": false,
      "inputs": [
        {
          "name": "_drago",
          "type": "address"
        },
        {
          "name": "_name",
          "type": "string"
        },
        {
          "name": "_symbol",
          "type": "string"
        },
        {
          "name": "_dragoId",
          "type": "uint256"
        },
        {
          "name": "_owner",
          "type": "address"
        }
      ],
      "name": "register",
      "outputs": [
        {
          "name": "",
          "type": "bool"
        }
      ],
      "payable": true,
      "stateMutability": "payable",
      "type": "function"
    },
    {
      "constant": false,
      "inputs": [
        {
          "name": "_id",
          "type": "uint256"
        }
      ],
      "name": "unregister",
      "outputs": [],
      "payable": false,
      "stateMutability": "nonpayable",
      "type": "function"
    },
    {
      "constant": false,
      "inputs": [
        {
          "name": "_id",
          "type": "uint256"
        },
        {
          "name": "_key",
          "type": "bytes32"
        },
        {
          "name": "_value",
          "type": "bytes32"
        }
      ],
      "name": "setMeta",
      "outputs": [],
      "payable": false,
      "stateMutability": "nonpayable",
      "type": "function"
    },
    {
      "constant": false,
      "inputs": [
        {
          "name": "_group",
          "type": "address"
        }
      ],
      "name": "addGroup",
      "outputs": [],
      "payable": false,
      "stateMutability": "nonpayable",
      "type": "function"
    },
    {
      "constant": false,
      "inputs": [
        {
          "name": "_fee",
          "type": "uint256"
        }
      ],
      "name": "setFee",
      "outputs": [],
      "payable": false,
      "stateMutability": "nonpayable",
      "type": "function"
    },
    {
      "constant": false,
      "inputs": [
        {
          "name": "_newAddress",
          "type": "address"
        }
      ],
      "name": "upgrade",
      "outputs": [],
      "payable": true,
      "stateMutability": "payable",
      "type": "function"
    },
    {
      "constant": false,
      "inputs": [
        {
          "name": "_version",
          "type": "uint256"
        }
      ],
      "name": "setUpgraded",
      "outputs": [],
      "payable": false,
      "stateMutability": "nonpayable",
      "type": "function"
    },
    {
      "constant": false,
      "inputs": [],
      "name": "drain",
      "outputs": [],
      "payable": false,
      "stateMutability": "nonpayable",
      "type": "function"
    },
    {
      "constant": true,
      "inputs": [],
      "name": "dragoCount",
      "outputs": [
        {
          "name": "",
          "type": "uint256"
        }
      ],
      "payable": false,
      "stateMutability": "view",
      "type": "function"
    },
    {
      "constant": true,
      "inputs": [
        {
          "name": "_id",
          "type": "uint256"
        }
      ],
      "name": "fromId",
      "outputs": [
        {
          "name": "drago",
          "type": "address"
        },
        {
          "name": "name",
          "type": "string"
        },
        {
          "name": "symbol",
          "type": "string"
        },
        {
          "name": "dragoId",
          "type": "uint256"
        },
        {
          "name": "owner",
          "type": "address"
        },
        {
          "name": "group",
          "type": "address"
        }
      ],
      "payable": false,
      "stateMutability": "view",
      "type": "function"
    },
    {
      "constant": true,
      "inputs": [
        {
          "name": "_drago",
          "type": "address"
        }
      ],
      "name": "fromAddress",
      "outputs": [
        {
          "name": "id",
          "type": "uint256"
        },
        {
          "name": "name",
          "type": "string"
        },
        {
          "name": "symbol",
          "type": "string"
        },
        {
          "name": "dragoId",
          "type": "uint256"
        },
        {
          "name": "owner",
          "type": "address"
        },
        {
          "name": "group",
          "type": "address"
        }
      ],
      "payable": false,
      "stateMutability": "view",
      "type": "function"
    },
    {
      "constant": true,
      "inputs": [
        {
          "name": "_symbol",
          "type": "string"
        }
      ],
      "name": "fromSymbol",
      "outputs": [
        {
          "name": "id",
          "type": "uint256"
        },
        {
          "name": "drago",
          "type": "address"
        },
        {
          "name": "name",
          "type": "string"
        },
        {
          "name": "dragoId",
          "type": "uint256"
        },
        {
          "name": "owner",
          "type": "address"
        },
        {
          "name": "group",
          "type": "address"
        }
      ],
      "payable": false,
      "stateMutability": "view",
      "type": "function"
    },
    {
      "constant": true,
      "inputs": [
        {
          "name": "_name",
          "type": "string"
        }
      ],
      "name": "fromName",
      "outputs": [
        {
          "name": "id",
          "type": "uint256"
        },
        {
          "name": "drago",
          "type": "address"
        },
        {
          "name": "symbol",
          "type": "string"
        },
        {
          "name": "dragoId",
          "type": "uint256"
        },
        {
          "name": "owner",
          "type": "address"
        },
        {
          "name": "group",
          "type": "address"
        }
      ],
      "payable": false,
      "stateMutability": "view",
      "type": "function"
    },
    {
      "constant": true,
      "inputs": [
        {
          "name": "_name",
          "type": "string"
        },
        {
          "name": "_symbol",
          "type": "string"
        }
      ],
      "name": "fromNameSymbol",
      "outputs": [
        {
          "name": "",
          "type": "address"
        }
      ],
      "payable": false,
      "stateMutability": "view",
      "type": "function"
    },
    {
      "constant": true,
      "inputs": [
        {
          "name": "_pool",
          "type": "address"
        }
      ],
      "name": "getNameFromAddress",
      "outputs": [
        {
          "name": "",
          "type": "bytes32"
        }
      ],
      "payable": false,
      "stateMutability": "view",
      "type": "function"
    },
    {
      "constant": true,
      "inputs": [
        {
          "name": "_pool",
          "type": "address"
        }
      ],
      "name": "getSymbolFromAddress",
      "outputs": [
        {
          "name": "",
          "type": "bytes32"
        }
      ],
      "payable": false,
      "stateMutability": "view",
      "type": "function"
    },
    {
      "constant": true,
      "inputs": [
        {
          "name": "_id",
          "type": "uint256"
        },
        {
          "name": "_key",
          "type": "bytes32"
        }
      ],
      "name": "meta",
      "outputs": [
        {
          "name": "",
          "type": "bytes32"
        }
      ],
      "payable": false,
      "stateMutability": "view",
      "type": "function"
    },
    {
      "constant": true,
      "inputs": [],
      "name": "getGroups",
      "outputs": [
        {
          "name": "",
          "type": "address[]"
        }
      ],
      "payable": false,
      "stateMutability": "view",
      "type": "function"
    },
    {
      "constant": true,
      "inputs": [],
      "name": "getFee",
      "outputs": [
        {
          "name": "",
          "type": "uint256"
        }
      ],
      "payable": false,
      "stateMutability": "view",
      "type": "function"
    }
  ],
  "bytecode": "0x6060604052341561000f57600080fd5b6106d68061001e6000396000f3006060604052600436106101065763ffffffff7c01000000000000000000000000000000000000000000000000000000006000350416630900f010811461010b57806324e0d1f9146101215780633fa7d3e3146101d0578063428afcd11461028a57806369fe0e2d1461028a5780637958533a146102a05780639890220b146102cb578063a02b161e1461028a578063aac746ee146102de578063b43e91f8146102fd578063b607a77a146102fd578063b72e717d146103f6578063c277f1ac1461051e578063c72b51761461059a578063cd6f4e0d14610600578063ced72f8714610600578063d0ee32c4146102de578063dd93890b14610613578063f9515f1b1461062f575b600080fd5b61011f600160a060020a036004351661063a565b005b341561012c57600080fd5b6101b460046024813581810190830135806020601f8201819004810201604051908101604052818152929190602084018383808284378201915050505050509190803590602001908201803590602001908080601f01602080910402602001604051908101604052818152929190602084018383808284375094965061063d95505050505050565b604051600160a060020a03909116815260200160405180910390f35b61027660048035600160a060020a03169060446024803590810190830135806020601f8201819004810201604051908101604052818152929190602084018383808284378201915050505050509190803590602001908201803590602001908080601f0160208091040260200160405190810160405281815292919060208401838380828437509496505084359460200135600160a060020a0316935061064592505050565b604051901515815260200160405180910390f35b341561029557600080fd5b61011f60043561063a565b34156102ab57600080fd5b6102b960043560243561063d565b60405190815260200160405180910390f35b34156102d657600080fd5b61011f610650565b34156102e957600080fd5b6102b9600160a060020a0360043516610652565b341561030857600080fd5b61034e60046024813581810190830135806020601f8201819004810201604051908101604052818152929190602084018383808284375094965061065895505050505050565b604051868152600160a060020a038087166020830152606082018590528381166080830152821660a082015260c06040820181815290820186818151815260200191508051906020019080838360005b838110156103b657808201518382015260200161039e565b50505050905090810190601f1680156103e35780820380516001836020036101000a031916815260200191505b5097505050505050505060405180910390f35b341561040157600080fd5b610415600160a060020a0360043516610671565b60405186815260608101849052600160a060020a038084166080830152821660a082015260c060208201818152906040830190830188818151815260200191508051906020019080838360005b8381101561047a578082015183820152602001610462565b50505050905090810190601f1680156104a75780820380516001836020036101000a031916815260200191505b50838103825287818151815260200191508051906020019080838360005b838110156104dd5780820151838201526020016104c5565b50505050905090810190601f16801561050a5780820380516001836020036101000a031916815260200191505b509850505050505050505060405180910390f35b341561052957600080fd5b610534600435610671565b604051600160a060020a038088168252606082018590528381166080830152821660a082015260c060208201818152906040830190830188818151815260200191508051906020019080838360008381101561047a578082015183820152602001610462565b34156105a557600080fd5b6105ad610683565b60405160208082528190810183818151815260200191508051906020019060200280838360005b838110156105ec5780820151838201526020016105d4565b505050509050019250505060405180910390f35b341561060b57600080fd5b6102b961068e565b341561061e57600080fd5b61011f600435602435604435610693565b341561010b57600080fd5b50565b600092915050565b600095945050505050565b565b50600090565b600080610663610698565b600080600091939550919395565b600061067b610698565b610663610698565b61068b610698565b90565b600090565b505050565b602060405190810160405260008152905600a165627a7a7230582010276d2b28bd60e453ae8e94629b1c4f15890132ebad11d429a87d1c6734ad1f0029",
  "source": "/*\n\n Copyright 2017-2018 RigoBlock, Rigo Investment Sagl.\n\n Licensed under the Apache License, Version 2.0 (the \"License\");\n you may not use this file except in compliance with the License.\n You may obtain a copy of the License at\n\n     http://www.apache.org/licenses/LICENSE-2.0\n\n Unless required by applicable law or agreed to in writing, software\n distributed under the License is distributed on an \"AS IS\" BASIS,\n WITHOUT WARRANTIES OR CONDITIONS OF ANY KIND, either express or implied.\n See the License for the specific language governing permissions and\n limitations under the License.\n\n*/\n\npragma solidity ^0.4.20;\n\n/// @title Drago Registry Interface - Allows external intaction with Drago Registry.\n/// @author Gabriele Rigo - <gab@rigoblock.com>\ncontract DragoRegistryFace {\n\n    //EVENTS\n\n    event Registered(string name, string symbol, uint id, address indexed drago, address indexed owner, address indexed group);\n    event Unregistered(string indexed symbol, uint indexed id);\n    event MetaChanged(uint indexed id, bytes32 indexed key, bytes32 value);\n\n    // CORE FUNCTIONS\n\n    function register(address _drago, string _name, string _symbol, uint _dragoId, address _owner) public payable returns (bool) {}\n    function unregister(uint _id) public {}\n    function setMeta(uint _id, bytes32 _key, bytes32 _value) public {}\n    function addGroup(address _group) public {}\n    function setFee(uint _fee) public {}\n    function upgrade(address _newAddress) public payable {} //payable as there is a transfer of value, otherwise opcode might throw an error\n    function setUpgraded(uint _version) external {}\n    function drain() public {}\n\n    function dragoCount() public view returns (uint) {}\n    function fromId(uint _id) public view returns (address drago, string name, string symbol, uint dragoId, address owner, address group) {}\n    function fromAddress(address _drago) public view returns (uint id, string name, string symbol, uint dragoId, address owner, address group) {}\n    function fromSymbol(string _symbol) public view returns (uint id, address drago, string name, uint dragoId, address owner, address group) {}\n    function fromName(string _name) public view returns (uint id, address drago, string symbol, uint dragoId, address owner, address group) {}\n    function fromNameSymbol(string _name, string _symbol) public view returns (address) {}\n    function getNameFromAddress(address _pool) external view returns (bytes32) {}\n    function getSymbolFromAddress(address _pool) external view returns (bytes32) {}\n    function meta(uint _id, bytes32 _key) public view returns (bytes32) {}\n    function getGroups() public view returns (address[]) {}\n    function getFee() public view returns (uint) {}\n}\n",
  "sourcePath": "/home/gab/truffle/contracts/contracts/Registry/DragoRegistryFace.sol",
  "compiler": {
    "name": "solc",
    "version": "0.4.19+commit.c4cbbb05.Emscripten.clang"
  },
  "schemaVersion": "2.0.0",
  "updatedAt": "2018-03-05T21:05:52.548Z"
}