{
  "contractName": "DragoFactory",
  "abi": [
    {
      "constant": false,
      "inputs": [
        {
          "name": "_new",
          "type": "address"
        }
      ],
      "name": "setOwner",
      "outputs": [],
      "payable": false,
      "stateMutability": "nonpayable",
      "type": "function"
    },
    {
      "constant": true,
      "inputs": [],
      "name": "getOwner",
      "outputs": [
        {
          "name": "",
          "type": "address"
        }
      ],
      "payable": false,
      "stateMutability": "view",
      "type": "function"
    },
    {
      "constant": true,
      "inputs": [],
      "name": "owner",
      "outputs": [
        {
          "name": "",
          "type": "address"
        }
      ],
      "payable": false,
      "stateMutability": "view",
      "type": "function"
    },
    {
      "constant": true,
      "inputs": [],
      "name": "VERSION",
      "outputs": [
        {
          "name": "",
          "type": "string"
        }
      ],
      "payable": false,
      "stateMutability": "view",
      "type": "function"
    },
    {
      "inputs": [
        {
          "name": "_registry",
          "type": "address"
        },
        {
          "name": "_dragoDao",
          "type": "address"
        },
        {
          "name": "_authority",
          "type": "address"
        }
      ],
      "payable": false,
      "stateMutability": "nonpayable",
      "type": "constructor"
    },
    {
      "anonymous": false,
      "inputs": [
        {
          "indexed": false,
          "name": "name",
          "type": "string"
        },
        {
          "indexed": false,
          "name": "symbol",
          "type": "string"
        },
        {
          "indexed": true,
          "name": "drago",
          "type": "address"
        },
        {
          "indexed": true,
          "name": "owner",
          "type": "address"
        },
        {
          "indexed": false,
          "name": "dragoId",
          "type": "uint256"
        }
      ],
      "name": "DragoCreated",
      "type": "event"
    },
    {
      "anonymous": false,
      "inputs": [
        {
          "indexed": true,
          "name": "old",
          "type": "address"
        },
        {
          "indexed": true,
          "name": "current",
          "type": "address"
        }
      ],
      "name": "NewOwner",
      "type": "event"
    },
    {
      "constant": false,
      "inputs": [
        {
          "name": "_name",
          "type": "string"
        },
        {
          "name": "_symbol",
          "type": "string"
        }
      ],
      "name": "createDrago",
      "outputs": [
        {
          "name": "success",
          "type": "bool"
        }
      ],
      "payable": false,
      "stateMutability": "nonpayable",
      "type": "function"
    },
    {
      "constant": false,
      "inputs": [
        {
          "name": "_targetDrago",
          "type": "address"
        },
        {
          "name": "_dragoDao",
          "type": "address"
        }
      ],
      "name": "setTargetDragoDao",
      "outputs": [],
      "payable": false,
      "stateMutability": "nonpayable",
      "type": "function"
    },
    {
      "constant": false,
      "inputs": [
        {
          "name": "_newDragoDao",
          "type": "address"
        }
      ],
      "name": "changeDragoDao",
      "outputs": [],
      "payable": false,
      "stateMutability": "nonpayable",
      "type": "function"
    },
    {
      "constant": false,
      "inputs": [
        {
          "name": "_newRegistry",
          "type": "address"
        }
      ],
      "name": "setRegistry",
      "outputs": [],
      "payable": false,
      "stateMutability": "nonpayable",
      "type": "function"
    },
    {
      "constant": false,
      "inputs": [
        {
          "name": "_dragoDao",
          "type": "address"
        }
      ],
      "name": "setBeneficiary",
      "outputs": [],
      "payable": false,
      "stateMutability": "nonpayable",
      "type": "function"
    },
    {
      "constant": false,
      "inputs": [
        {
          "name": "_fee",
          "type": "uint256"
        }
      ],
      "name": "setFee",
      "outputs": [],
      "payable": false,
      "stateMutability": "nonpayable",
      "type": "function"
    },
    {
      "constant": false,
      "inputs": [],
      "name": "drain",
      "outputs": [],
      "payable": false,
      "stateMutability": "nonpayable",
      "type": "function"
    },
    {
      "constant": true,
      "inputs": [],
      "name": "getRegistry",
      "outputs": [
        {
          "name": "",
          "type": "address"
        }
      ],
      "payable": false,
      "stateMutability": "view",
      "type": "function"
    },
    {
      "constant": true,
      "inputs": [],
      "name": "getStorage",
      "outputs": [
        {
          "name": "dragoDao",
          "type": "address"
        },
        {
          "name": "version",
          "type": "string"
        },
        {
          "name": "nextDragoId",
          "type": "uint256"
        }
      ],
      "payable": false,
      "stateMutability": "view",
      "type": "function"
    },
    {
      "constant": true,
      "inputs": [],
      "name": "getNextId",
      "outputs": [
        {
          "name": "nextDragoId",
          "type": "uint256"
        }
      ],
      "payable": false,
      "stateMutability": "view",
      "type": "function"
    },
    {
      "constant": true,
      "inputs": [],
      "name": "getEventful",
      "outputs": [
        {
          "name": "",
          "type": "address"
        }
      ],
      "payable": false,
      "stateMutability": "view",
      "type": "function"
    },
    {
      "constant": true,
      "inputs": [
        {
          "name": "_owner",
          "type": "address"
        }
      ],
      "name": "getDragosByAddress",
      "outputs": [
        {
          "name": "",
          "type": "address[]"
        }
      ],
      "payable": false,
      "stateMutability": "view",
      "type": "function"
    }
  ],
  "bytecode": "0x6060604052341561000f57600080fd5b6040516060806153778339810160405280805190602001909190805190602001909190805190602001909190505082600660010160006101000a81548173ffffffffffffffffffffffffffffffffffffffff021916908373ffffffffffffffffffffffffffffffffffffffff16021790555081600660020160006101000a81548173ffffffffffffffffffffffffffffffffffffffff021916908373ffffffffffffffffffffffffffffffffffffffff16021790555080600660030160006101000a81548173ffffffffffffffffffffffffffffffffffffffff021916908373ffffffffffffffffffffffffffffffffffffffff160217905550336000806101000a81548173ffffffffffffffffffffffffffffffffffffffff021916908373ffffffffffffffffffffffffffffffffffffffff16021790555050505061521c8061015b6000396000f300606060405260043610620000f7576000357c0100000000000000000000000000000000000000000000000000000000900463ffffffff16806313af403514620000fc5780631c31f71014620001385780633408f73a14620001745780633dcc8b8914620002425780635ab1bd53146200029d57806369fe0e2d14620002f5578063837929b6146200031b578063893d20e814620003735780638da5cb5b14620003cb5780639890220b1462000423578063a91ee0dc146200043b578063bc9683261462000477578063c1bf130d14620004a3578063c8c3b9261462000536578063f08d29d51462000572578063ffa1ad74146200062d575b600080fd5b34156200010857600080fd5b62000136600480803573ffffffffffffffffffffffffffffffffffffffff16906020019091905050620006c1565b005b34156200014457600080fd5b62000172600480803573ffffffffffffffffffffffffffffffffffffffff16906020019091905050620007db565b005b34156200018057600080fd5b6200018a6200087e565b604051808473ffffffffffffffffffffffffffffffffffffffff1673ffffffffffffffffffffffffffffffffffffffff16815260200180602001838152602001828103825284818151815260200191508051906020019080838360005b8381101562000204578082015181840152602081019050620001e7565b50505050905090810190601f168015620002325780820380516001836020036101000a031916815260200191505b5094505050505060405180910390f35b34156200024e57600080fd5b6200029b600480803573ffffffffffffffffffffffffffffffffffffffff1690602001909190803573ffffffffffffffffffffffffffffffffffffffff1690602001909190505062000906565b005b3415620002a957600080fd5b620002b362000a1c565b604051808273ffffffffffffffffffffffffffffffffffffffff1673ffffffffffffffffffffffffffffffffffffffff16815260200191505060405180910390f35b34156200030157600080fd5b62000319600480803590602001909190505062000a49565b005b34156200032757600080fd5b6200033162000ab2565b604051808273ffffffffffffffffffffffffffffffffffffffff1673ffffffffffffffffffffffffffffffffffffffff16815260200191505060405180910390f35b34156200037f57600080fd5b6200038962000b6c565b604051808273ffffffffffffffffffffffffffffffffffffffff1673ffffffffffffffffffffffffffffffffffffffff16815260200191505060405180910390f35b3415620003d757600080fd5b620003e162000b95565b604051808273ffffffffffffffffffffffffffffffffffffffff1673ffffffffffffffffffffffffffffffffffffffff16815260200191505060405180910390f35b34156200042f57600080fd5b6200043962000bba565b005b34156200044757600080fd5b62000475600480803573ffffffffffffffffffffffffffffffffffffffff1690602001909190505062000c95565b005b34156200048357600080fd5b6200048d62000d38565b6040518082815260200191505060405180910390f35b3415620004af57600080fd5b620004dd600480803573ffffffffffffffffffffffffffffffffffffffff1690602001909190505062000df2565b6040518080602001828103825283818151815260200191508051906020019060200280838360005b838110156200052257808201518184015260208101905062000505565b505050509050019250505060405180910390f35b34156200054257600080fd5b62000570600480803573ffffffffffffffffffffffffffffffffffffffff1690602001909190505062000ecc565b005b34156200057e57600080fd5b62000613600480803590602001908201803590602001908080601f0160208091040260200160405190810160405280939291908181526020018383808284378201915050505050509190803590602001908201803590602001908080601f0160208091040260200160405190810160405280939291908181526020018383808284378201915050505050509190505062000f73565b604051808215151515815260200191505060405180910390f35b34156200063957600080fd5b62000643620012e9565b6040518080602001828103825283818151815260200191508051906020019080838360005b838110156200068557808201518184015260208101905062000668565b50505050905090810190601f168015620006b35780820380516001836020036101000a031916815260200191505b509250505060405180910390f35b6000809054906101000a900473ffffffffffffffffffffffffffffffffffffffff1673ffffffffffffffffffffffffffffffffffffffff163373ffffffffffffffffffffffffffffffffffffffff161415156200071d57600080fd5b806000806101000a81548173ffffffffffffffffffffffffffffffffffffffff021916908373ffffffffffffffffffffffffffffffffffffffff1602179055508073ffffffffffffffffffffffffffffffffffffffff166000809054906101000a900473ffffffffffffffffffffffffffffffffffffffff1673ffffffffffffffffffffffffffffffffffffffff167f70aea8d848e8a90fb7661b227dc522eb6395c3dac71b63cb59edd5c9899b236460405160405180910390a350565b6000809054906101000a900473ffffffffffffffffffffffffffffffffffffffff1673ffffffffffffffffffffffffffffffffffffffff163373ffffffffffffffffffffffffffffffffffffffff161415156200083757600080fd5b80600660020160006101000a81548173ffffffffffffffffffffffffffffffffffffffff021916908373ffffffffffffffffffffffffffffffffffffffff16021790555050565b60006200088a62001dd7565b6000600660020160009054906101000a900473ffffffffffffffffffffffffffffffffffffffff169250826040805190810160405280600881526020017f564620302e342e31000000000000000000000000000000000000000000000000815250925082620008f862000d38565b925082925092509250909192565b60008060009054906101000a900473ffffffffffffffffffffffffffffffffffffffff1673ffffffffffffffffffffffffffffffffffffffff163373ffffffffffffffffffffffffffffffffffffffff161415156200096457600080fd5b8290508073ffffffffffffffffffffffffffffffffffffffff1663c8c3b926836040518263ffffffff167c0100000000000000000000000000000000000000000000000000000000028152600401808273ffffffffffffffffffffffffffffffffffffffff1673ffffffffffffffffffffffffffffffffffffffff168152602001915050600060405180830381600087803b151562000a0257600080fd5b6102c65a03f1151562000a1457600080fd5b505050505050565b6000600660010160009054906101000a900473ffffffffffffffffffffffffffffffffffffffff16905090565b6000809054906101000a900473ffffffffffffffffffffffffffffffffffffffff1673ffffffffffffffffffffffffffffffffffffffff163373ffffffffffffffffffffffffffffffffffffffff1614151562000aa557600080fd5b8060066000018190555050565b600080600660030160009054906101000a900473ffffffffffffffffffffffffffffffffffffffff1690508073ffffffffffffffffffffffffffffffffffffffff166326c7a0de6000604051602001526040518163ffffffff167c0100000000000000000000000000000000000000000000000000000000028152600401602060405180830381600087803b151562000b4a57600080fd5b6102c65a03f1151562000b5c57600080fd5b5050506040518051905091505090565b60008060009054906101000a900473ffffffffffffffffffffffffffffffffffffffff16905090565b6000809054906101000a900473ffffffffffffffffffffffffffffffffffffffff1681565b6000809054906101000a900473ffffffffffffffffffffffffffffffffffffffff1673ffffffffffffffffffffffffffffffffffffffff163373ffffffffffffffffffffffffffffffffffffffff1614151562000c1657600080fd5b600660020160009054906101000a900473ffffffffffffffffffffffffffffffffffffffff1673ffffffffffffffffffffffffffffffffffffffff166108fc3073ffffffffffffffffffffffffffffffffffffffff16319081150290604051600060405180830381858888f19350505050151562000c9357600080fd5b565b6000809054906101000a900473ffffffffffffffffffffffffffffffffffffffff1673ffffffffffffffffffffffffffffffffffffffff163373ffffffffffffffffffffffffffffffffffffffff1614151562000cf157600080fd5b80600660010160006101000a81548173ffffffffffffffffffffffffffffffffffffffff021916908373ffffffffffffffffffffffffffffffffffffffff16021790555050565b600080600660010160009054906101000a900473ffffffffffffffffffffffffffffffffffffffff1690508073ffffffffffffffffffffffffffffffffffffffff1663cd6f4e0d6000604051602001526040518163ffffffff167c0100000000000000000000000000000000000000000000000000000000028152600401602060405180830381600087803b151562000dd057600080fd5b6102c65a03f1151562000de257600080fd5b5050506040518051905091505090565b62000dfc62001deb565b600660040160008373ffffffffffffffffffffffffffffffffffffffff1673ffffffffffffffffffffffffffffffffffffffff16815260200190815260200160002080548060200260200160405190810160405280929190818152602001828054801562000ec057602002820191906000526020600020905b8160009054906101000a900473ffffffffffffffffffffffffffffffffffffffff1673ffffffffffffffffffffffffffffffffffffffff168152602001906001019080831162000e75575b50505050509050919050565b600660020160009054906101000a900473ffffffffffffffffffffffffffffffffffffffff1673ffffffffffffffffffffffffffffffffffffffff163373ffffffffffffffffffffffffffffffffffffffff1614151562000f2c57600080fd5b80600660020160006101000a81548173ffffffffffffffffffffffffffffffffffffffff021916908373ffffffffffffffffffffffffffffffffffffffff16021790555050565b600080600080600660010160009054906101000a900473ffffffffffffffffffffffffffffffffffffffff1692508273ffffffffffffffffffffffffffffffffffffffff1663ced72f876000604051602001526040518163ffffffff167c0100000000000000000000000000000000000000000000000000000000028152600401602060405180830381600087803b15156200100e57600080fd5b6102c65a03f115156200102057600080fd5b5050506040518051905091508273ffffffffffffffffffffffffffffffffffffffff1663cd6f4e0d6000604051602001526040518163ffffffff167c0100000000000000000000000000000000000000000000000000000000028152600401602060405180830381600087803b15156200109957600080fd5b6102c65a03f11515620010ab57600080fd5b505050604051805190509050620010c58686338462001322565b1515620010d157600080fd5b8273ffffffffffffffffffffffffffffffffffffffff16633fa7d3e383600160040160009054906101000a900473ffffffffffffffffffffffffffffffffffffffff16898986336000604051602001526040518763ffffffff167c0100000000000000000000000000000000000000000000000000000000028152600401808673ffffffffffffffffffffffffffffffffffffffff1673ffffffffffffffffffffffffffffffffffffffff16815260200180602001806020018581526020018473ffffffffffffffffffffffffffffffffffffffff1673ffffffffffffffffffffffffffffffffffffffff168152602001838103835287818151815260200191508051906020019080838360005b83811015620011fc578082015181840152602081019050620011df565b50505050905090810190601f1680156200122a5780820380516001836020036101000a031916815260200191505b50838103825286818151815260200191508051906020019080838360005b838110156200126557808201518184015260208101905062001248565b50505050905090810190601f168015620012935780820380516001836020036101000a031916815260200191505b509750505050505050506020604051808303818588803b1515620012b657600080fd5b6125ee5a03f11515620012c857600080fd5b50505050604051805190501515620012dc57fe5b6001935050505092915050565b6040805190810160405280600881526020017f564620302e342e3100000000000000000000000000000000000000000000000081525081565b600080600060066000015434101515156200133c57600080fd5b600660030160009054906101000a900473ffffffffffffffffffffffffffffffffffffffff1691506200139a600188888888600660030160009054906101000a900473ffffffffffffffffffffffffffffffffffffffff1662001a87565b1515620013a657600080fd5b600660040160003373ffffffffffffffffffffffffffffffffffffffff1673ffffffffffffffffffffffffffffffffffffffff1681526020019081526020016000208054806001018281620013fc919062001dff565b91600052602060002090016000600160040160009054906101000a900473ffffffffffffffffffffffffffffffffffffffff16909190916101000a81548173ffffffffffffffffffffffffffffffffffffffff021916908373ffffffffffffffffffffffffffffffffffffffff160217905550508173ffffffffffffffffffffffffffffffffffffffff166326c7a0de6000604051602001526040518163ffffffff167c0100000000000000000000000000000000000000000000000000000000028152600401602060405180830381600087803b1515620014dd57600080fd5b6102c65a03f11515620014ef57600080fd5b5050506040518051905090508073ffffffffffffffffffffffffffffffffffffffff16632b459b7b3330600160040160009054906101000a900473ffffffffffffffffffffffffffffffffffffffff168b8b8a8c6000604051602001526040518863ffffffff167c0100000000000000000000000000000000000000000000000000000000028152600401808873ffffffffffffffffffffffffffffffffffffffff1673ffffffffffffffffffffffffffffffffffffffff1681526020018773ffffffffffffffffffffffffffffffffffffffff1673ffffffffffffffffffffffffffffffffffffffff1681526020018673ffffffffffffffffffffffffffffffffffffffff1673ffffffffffffffffffffffffffffffffffffffff16815260200180602001806020018581526020018473ffffffffffffffffffffffffffffffffffffffff1673ffffffffffffffffffffffffffffffffffffffff168152602001838103835287818151815260200191508051906020019080838360005b838110156200168b5780820151818401526020810190506200166e565b50505050905090810190601f168015620016b95780820380516001836020036101000a031916815260200191505b50838103825286818151815260200191508051906020019080838360005b83811015620016f4578082015181840152602081019050620016d7565b50505050905090810190601f168015620017225780820380516001836020036101000a031916815260200191505b509950505050505050505050602060405180830381600087803b15156200174857600080fd5b6102c65a03f115156200175a57600080fd5b5050506040518051905015156200177057600080fd5b8173ffffffffffffffffffffffffffffffffffffffff1663ad562f40600160040160009054906101000a900473ffffffffffffffffffffffffffffffffffffffff1660016040518363ffffffff167c0100000000000000000000000000000000000000000000000000000000028152600401808373ffffffffffffffffffffffffffffffffffffffff1673ffffffffffffffffffffffffffffffffffffffff1681526020018215151515815260200192505050600060405180830381600087803b15156200183d57600080fd5b6102c65a03f115156200184f57600080fd5b5050508173ffffffffffffffffffffffffffffffffffffffff1663a0ca3ee13360016040518363ffffffff167c0100000000000000000000000000000000000000000000000000000000028152600401808373ffffffffffffffffffffffffffffffffffffffff1673ffffffffffffffffffffffffffffffffffffffff1681526020018215151515815260200192505050600060405180830381600087803b1515620018fa57600080fd5b6102c65a03f115156200190c57600080fd5b5050508473ffffffffffffffffffffffffffffffffffffffff16600160040160009054906101000a900473ffffffffffffffffffffffffffffffffffffffff1673ffffffffffffffffffffffffffffffffffffffff167fa4e8b2abe2ee98767456a805d0c502689ad4042e5d5209a8302b77fc16ba88d5898988604051808060200180602001848152602001838103835286818151815260200191508051906020019080838360005b83811015620019d2578082015181840152602081019050620019b5565b50505050905090810190601f16801562001a005780820380516001836020036101000a031916815260200191505b50838103825285818151815260200191508051906020019080838360005b8381101562001a3b57808201518184015260208101905062001a1e565b50505050905090810190601f16801562001a695780820380516001836020036101000a031916815260200191505b509550505050505060405180910390a3600192505050949350505050565b6000808260008190508073ffffffffffffffffffffffffffffffffffffffff1663dcb7a3e0306000604051602001526040518263ffffffff167c0100000000000000000000000000000000000000000000000000000000028152600401808273ffffffffffffffffffffffffffffffffffffffff1673ffffffffffffffffffffffffffffffffffffffff168152602001915050602060405180830381600087803b151562001b3457600080fd5b6102c65a03f1151562001b4657600080fd5b505050604051805190501562001dca57888a600001908051906020019062001b7092919062001e2e565b888b600101908051906020019062001b8a92919062001e2e565b878c600201819055898d60030160006101000a81548173ffffffffffffffffffffffffffffffffffffffff021916908373ffffffffffffffffffffffffffffffffffffffff16021790558862001bdf62001eb5565b8080602001806020018681526020018573ffffffffffffffffffffffffffffffffffffffff1673ffffffffffffffffffffffffffffffffffffffff1681526020018473ffffffffffffffffffffffffffffffffffffffff1673ffffffffffffffffffffffffffffffffffffffff16815260200183810383528881815460018160011615610100020316600290048152602001915080546001816001161561010002031660029004801562001cd75780601f1062001cab5761010080835404028352916020019162001cd7565b820191906000526020600020905b81548152906001019060200180831162001cb957829003601f168201915b505083810382528781815460018160011615610100020316600290048152602001915080546001816001161561010002031660029004801562001d5e5780601f1062001d325761010080835404028352916020019162001d5e565b820191906000526020600020905b81548152906001019060200180831162001d4057829003601f168201915b5050975050505050505050604051809103906000f080151562001d8057600080fd5b9250828a60040160006101000a81548173ffffffffffffffffffffffffffffffffffffffff021916908373ffffffffffffffffffffffffffffffffffffffff160217905550600193505b5050509695505050505050565b602060405190810160405280600081525090565b602060405190810160405280600081525090565b81548183558181151162001e295781836000526020600020918201910162001e28919062001ec6565b5b505050565b828054600181600116156101000203166002900490600052602060002090601f016020900481019282601f1062001e7157805160ff191683800117855562001ea2565b8280016001018555821562001ea2579182015b8281111562001ea157825182559160200191906001019062001e84565b5b50905062001eb1919062001ec6565b5090565b6040516133028062001eef83390190565b62001eeb91905b8082111562001ee757600081600090555060010162001ecd565b5090565b905600606060405234156200001057600080fd5b604051620033023803806200330283398101604052808051820191906020018051820191906020018051906020019091908051906020019091908051906020019091905050846007600001908051906020019062000070929190620001ef565b5083600760010190805190602001906200008c929190620001ef565b5082600760020181905550670de0b6b3a7640000600760040181905550670de0b6b3a7640000600760050181905550816000806101000a81548173ffffffffffffffffffffffffffffffffffffffff021916908373ffffffffffffffffffffffffffffffffffffffff16021790555080600f60000160006101000a81548173ffffffffffffffffffffffffffffffffffffffff021916908373ffffffffffffffffffffffffffffffffffffffff16021790555033600f60010160006101000a81548173ffffffffffffffffffffffffffffffffffffffff021916908373ffffffffffffffffffffffffffffffffffffffff16021790555067016345785d8a0000600f6003018190555081600f60020160006101000a81548173ffffffffffffffffffffffffffffffffffffffff021916908373ffffffffffffffffffffffffffffffffffffffff1602179055506050600f6004018190555050505050506200029e565b828054600181600116156101000203166002900490600052602060002090601f016020900481019282601f106200023257805160ff191683800117855562000263565b8280016001018555821562000263579182015b828111156200026257825182559160200191906001019062000245565b5b50905062000272919062000276565b5090565b6200029b91905b80821115620002975760008160009055506001016200027d565b5090565b90565b61305480620002ae6000396000f30060606040526004361061013e576000357c0100000000000000000000000000000000000000000000000000000000900463ffffffff16806305fefda714610236578063095ea7b314610262578063096a8ab7146102bc5780630d8e6e2c146102df57806313af40351461036d57806318160ddd146103a657806323b872dd146103cf57806326c7a0de146104485780632fbbde2d1461049d5780633bc5de30146104bf57806354bdbd4d146105c757806354ea1538146105f05780636854f6681461062b57806370a082311461067157806384193be2146106be578063893d20e8146107005780638da5cb5b146107555780638f7a844b146107aa5780639245290d14610853578063a9059cbb1461088c578063c8c3b926146108e6578063d0f187ef1461091f578063dd62ed3e14610958578063f6a33253146109c4575b336000600f60000160009054906101000a900473ffffffffffffffffffffffffffffffffffffffff1690508073ffffffffffffffffffffffffffffffffffffffff16639aa4d0a0836000604051602001526040518263ffffffff167c0100000000000000000000000000000000000000000000000000000000028152600401808273ffffffffffffffffffffffffffffffffffffffff1673ffffffffffffffffffffffffffffffffffffffff168152602001915050602060405180830381600087803b151561020c57600080fd5b6102c65a03f1151561021d57600080fd5b50505060405180519050151561023257600080fd5b5050005b341561024157600080fd5b61026060048080359060200190919080359060200190919050506109e7565b005b341561026d57600080fd5b6102a2600480803573ffffffffffffffffffffffffffffffffffffffff16906020019091908035906020019091905050610cad565b604051808215151515815260200191505060405180910390f35b34156102c757600080fd5b6102dd6004808035906020019091905050610cb5565b005b34156102ea57600080fd5b6102f2610e3f565b6040518080602001828103825283818151815260200191508051906020019080838360005b83811015610332578082015181840152602081019050610317565b50505050905090810190601f16801561035f5780820380516001836020036101000a031916815260200191505b509250505060405180910390f35b341561037857600080fd5b6103a4600480803573ffffffffffffffffffffffffffffffffffffffff16906020019091905050610e82565b005b34156103b157600080fd5b6103b9610f9b565b6040518082815260200191505060405180910390f35b34156103da57600080fd5b61042e600480803573ffffffffffffffffffffffffffffffffffffffff1690602001909190803573ffffffffffffffffffffffffffffffffffffffff16906020019091908035906020019091905050610fa8565b604051808215151515815260200191505060405180910390f35b341561045357600080fd5b61045b610fb1565b604051808273ffffffffffffffffffffffffffffffffffffffff1673ffffffffffffffffffffffffffffffffffffffff16815260200191505060405180910390f35b6104a5611069565b604051808215151515815260200191505060405180910390f35b34156104ca57600080fd5b6104d2611086565b604051808060200180602001858152602001848152602001838103835287818151815260200191508051906020019080838360005b83811015610522578082015181840152602081019050610507565b50505050905090810190601f16801561054f5780820380516001836020036101000a031916815260200191505b50838103825286818151815260200191508051906020019080838360005b8381101561058857808201518184015260208101905061056d565b50505050905090810190601f1680156105b55780820380516001836020036101000a031916815260200191505b50965050505050505060405180910390f35b34156105d257600080fd5b6105ee600480803563ffffffff169060200190919050506111ef565b005b34156105fb57600080fd5b6106116004808035906020019091905050611274565b604051808215151515815260200191505060405180910390f35b610657600480803573ffffffffffffffffffffffffffffffffffffffff169060200190919050506114c9565b604051808215151515815260200191505060405180910390f35b341561067c57600080fd5b6106a8600480803573ffffffffffffffffffffffffffffffffffffffff1690602001909190505061159f565b6040518082815260200191505060405180910390f35b34156106c957600080fd5b6106fe600480803573ffffffffffffffffffffffffffffffffffffffff169060200190919080359060200190919050506115eb565b005b341561070b57600080fd5b610713611780565b604051808273ffffffffffffffffffffffffffffffffffffffff1673ffffffffffffffffffffffffffffffffffffffff16815260200191505060405180910390f35b341561076057600080fd5b6107686117a9565b604051808273ffffffffffffffffffffffffffffffffffffffff1673ffffffffffffffffffffffffffffffffffffffff16815260200191505060405180910390f35b34156107b557600080fd5b6107bd6117ce565b604051808673ffffffffffffffffffffffffffffffffffffffff1673ffffffffffffffffffffffffffffffffffffffff1681526020018573ffffffffffffffffffffffffffffffffffffffff1673ffffffffffffffffffffffffffffffffffffffff1681526020018481526020018381526020018263ffffffff1663ffffffff1681526020019550505050505060405180910390f35b341561085e57600080fd5b61088a600480803573ffffffffffffffffffffffffffffffffffffffff16906020019091905050611854565b005b341561089757600080fd5b6108cc600480803573ffffffffffffffffffffffffffffffffffffffff16906020019091908035906020019091905050611a2a565b604051808215151515815260200191505060405180910390f35b34156108f157600080fd5b61091d600480803573ffffffffffffffffffffffffffffffffffffffff16906020019091905050611a32565b005b341561092a57600080fd5b610956600480803573ffffffffffffffffffffffffffffffffffffffff16906020019091905050611c16565b005b341561096357600080fd5b6109ae600480803573ffffffffffffffffffffffffffffffffffffffff1690602001909190803573ffffffffffffffffffffffffffffffffffffffff16906020019091905050611e91565b6040518082815260200191505060405180910390f35b34156109cf57600080fd5b6109e56004808035906020019091905050611e99565b005b600080600f60000160009054906101000a900473ffffffffffffffffffffffffffffffffffffffff1690508073ffffffffffffffffffffffffffffffffffffffff16632330f247336000604051602001526040518263ffffffff167c0100000000000000000000000000000000000000000000000000000000028152600401808273ffffffffffffffffffffffffffffffffffffffff1673ffffffffffffffffffffffffffffffffffffffff168152602001915050602060405180830381600087803b1515610ab557600080fd5b6102c65a03f11515610ac657600080fd5b5050506040518051905080610b2757506000809054906101000a900473ffffffffffffffffffffffffffffffffffffffff1673ffffffffffffffffffffffffffffffffffffffff163373ffffffffffffffffffffffffffffffffffffffff16145b1515610b3257600080fd5b8383808211151515610b4357600080fd5b8585600a600760040154811515610b5657fe5b0482111580610b6d5750600a600760050154028110155b15610b7757610ca3565b610b7f610fb1565b95508573ffffffffffffffffffffffffffffffffffffffff1663554a781833308b8b6000604051602001526040518563ffffffff167c0100000000000000000000000000000000000000000000000000000000028152600401808573ffffffffffffffffffffffffffffffffffffffff1673ffffffffffffffffffffffffffffffffffffffff1681526020018473ffffffffffffffffffffffffffffffffffffffff1673ffffffffffffffffffffffffffffffffffffffff168152602001838152602001828152602001945050505050602060405180830381600087803b1515610c6857600080fd5b6102c65a03f11515610c7957600080fd5b505050604051805190501515610c8e57600080fd5b87600760040181905550866007600501819055505b5050505050505050565b600092915050565b60008060009054906101000a900473ffffffffffffffffffffffffffffffffffffffff1673ffffffffffffffffffffffffffffffffffffffff163373ffffffffffffffffffffffffffffffffffffffff16141515610d1257600080fd5b60648211151515610d2257600080fd5b610d2a610fb1565b90508073ffffffffffffffffffffffffffffffffffffffff1663d5aaa73a3330856000604051602001526040518463ffffffff167c0100000000000000000000000000000000000000000000000000000000028152600401808473ffffffffffffffffffffffffffffffffffffffff1673ffffffffffffffffffffffffffffffffffffffff1681526020018373ffffffffffffffffffffffffffffffffffffffff1673ffffffffffffffffffffffffffffffffffffffff1681526020018281526020019350505050602060405180830381600087803b1515610e0b57600080fd5b6102c65a03f11515610e1c57600080fd5b505050604051805190501515610e3157600080fd5b816007600601819055505050565b610e47612f8e565b6040805190810160405280600881526020017f484620302e342e31000000000000000000000000000000000000000000000000815250905090565b6000809054906101000a900473ffffffffffffffffffffffffffffffffffffffff1673ffffffffffffffffffffffffffffffffffffffff163373ffffffffffffffffffffffffffffffffffffffff16141515610edd57600080fd5b806000806101000a81548173ffffffffffffffffffffffffffffffffffffffff021916908373ffffffffffffffffffffffffffffffffffffffff1602179055508073ffffffffffffffffffffffffffffffffffffffff166000809054906101000a900473ffffffffffffffffffffffffffffffffffffffff1673ffffffffffffffffffffffffffffffffffffffff167f70aea8d848e8a90fb7661b227dc522eb6395c3dac71b63cb59edd5c9899b236460405160405180910390a350565b6000600760030154905090565b60009392505050565b600080600f60000160009054906101000a900473ffffffffffffffffffffffffffffffffffffffff1690508073ffffffffffffffffffffffffffffffffffffffff166326c7a0de6000604051602001526040518163ffffffff167c0100000000000000000000000000000000000000000000000000000000028152600401602060405180830381600087803b151561104857600080fd5b6102c65a03f1151561105957600080fd5b5050506040518051905091505090565b6000611074336114c9565b151561107f57600080fd5b6001905090565b61108e612f8e565b611096612f8e565b60008060076000018054600181600116156101000203166002900480601f0160208091040260200160405190810160405280929190818152602001828054600181600116156101000203166002900480156111325780601f1061110757610100808354040283529160200191611132565b820191906000526020600020905b81548152906001019060200180831161111557829003601f168201915b5050505050935060076001018054600181600116156101000203166002900480601f0160208091040260200160405190810160405280929190818152602001828054600181600116156101000203166002900480156111d25780601f106111a7576101008083540402835291602001916111d2565b820191906000526020600020905b8154815290600101906020018083116111b557829003601f168201915b505050505092506007600401549150600760050154905090919293565b600f60010160009054906101000a900473ffffffffffffffffffffffffffffffffffffffff1673ffffffffffffffffffffffffffffffffffffffff163373ffffffffffffffffffffffffffffffffffffffff1614151561124e57600080fd5b806007800160006101000a81548163ffffffff021916908363ffffffff16021790555050565b60008060008060008580600660003373ffffffffffffffffffffffffffffffffffffffff1673ffffffffffffffffffffffffffffffffffffffff16815260200190815260200160002060000154101515156112ce57600080fd5b86600660003373ffffffffffffffffffffffffffffffffffffffff1673ffffffffffffffffffffffffffffffffffffffff1681526020019081526020016000206000015481600660003373ffffffffffffffffffffffffffffffffffffffff1673ffffffffffffffffffffffffffffffffffffffff168152602001908152602001600020600001540111151561136357600080fd5b600660003373ffffffffffffffffffffffffffffffffffffffff1673ffffffffffffffffffffffffffffffffffffffff16815260200190815260200160002060010160010160009054906101000a900463ffffffff1663ffffffff1642101515156113cd57600080fd5b6113d688612017565b809650819750829850839950505050506113f088846120a5565b6113fc33898888612498565b61140b600760030154856126e8565b6007600301819055503373ffffffffffffffffffffffffffffffffffffffff166108fc849081150290604051600060405180830381858888f19350505050151561145457600080fd5b873373ffffffffffffffffffffffffffffffffffffffff163073ffffffffffffffffffffffffffffffffffffffff167fa082022e93cfcd9f1da5f9236718053910f7e840da080c789c7845698dc032ff866040518082815260200191505060405180910390a460019650505050505050919050565b600080600080600034600f6003015481101515156114e657600080fd5b6114ee612701565b809550819650829750839850505050506115078261279b565b61151387838686612b8d565b61152260076003015486612e57565b600760030181905550343073ffffffffffffffffffffffffffffffffffffffff163373ffffffffffffffffffffffffffffffffffffffff167f89f5adc174562e07c9c9b1cae7109bbecb21cf9d1b2847e550042b8653c54a0e856040518082815260200191505060405180910390a4600195505050505050919050565b6000600660008373ffffffffffffffffffffffffffffffffffffffff1673ffffffffffffffffffffffffffffffffffffffff168152602001908152602001600020600001549050919050565b6000809054906101000a900473ffffffffffffffffffffffffffffffffffffffff1673ffffffffffffffffffffffffffffffffffffffff163373ffffffffffffffffffffffffffffffffffffffff1614151561164657600080fd5b816000600f60000160009054906101000a900473ffffffffffffffffffffffffffffffffffffffff1690508073ffffffffffffffffffffffffffffffffffffffff16639aa4d0a0836000604051602001526040518263ffffffff167c0100000000000000000000000000000000000000000000000000000000028152600401808273ffffffffffffffffffffffffffffffffffffffff1673ffffffffffffffffffffffffffffffffffffffff168152602001915050602060405180830381600087803b151561171457600080fd5b6102c65a03f1151561172557600080fd5b50505060405180519050151561173a57600080fd5b8373ffffffffffffffffffffffffffffffffffffffff166108fc849081150290604051600060405180830381858888f19350505050151561177a57600080fd5b50505050565b60008060009054906101000a900473ffffffffffffffffffffffffffffffffffffffff16905090565b6000809054906101000a900473ffffffffffffffffffffffffffffffffffffffff1681565b6000806000806000600f60020160009054906101000a900473ffffffffffffffffffffffffffffffffffffffff16600f60010160009054906101000a900473ffffffffffffffffffffffffffffffffffffffff16600f600401546007600601546007800160009054906101000a900463ffffffff16945094509450945094509091929394565b60008060009054906101000a900473ffffffffffffffffffffffffffffffffffffffff1673ffffffffffffffffffffffffffffffffffffffff163373ffffffffffffffffffffffffffffffffffffffff161415156118b157600080fd5b6118b9610fb1565b90508073ffffffffffffffffffffffffffffffffffffffff1663f39ba9323330856000604051602001526040518463ffffffff167c0100000000000000000000000000000000000000000000000000000000028152600401808473ffffffffffffffffffffffffffffffffffffffff1673ffffffffffffffffffffffffffffffffffffffff1681526020018373ffffffffffffffffffffffffffffffffffffffff1673ffffffffffffffffffffffffffffffffffffffff1681526020018273ffffffffffffffffffffffffffffffffffffffff1673ffffffffffffffffffffffffffffffffffffffff1681526020019350505050602060405180830381600087803b15156119c657600080fd5b6102c65a03f115156119d757600080fd5b505050604051805190505081600f60020160006101000a81548173ffffffffffffffffffffffffffffffffffffffff021916908373ffffffffffffffffffffffffffffffffffffffff1602179055505050565b600092915050565b6000600f60010160009054906101000a900473ffffffffffffffffffffffffffffffffffffffff1673ffffffffffffffffffffffffffffffffffffffff163373ffffffffffffffffffffffffffffffffffffffff16141515611a9357600080fd5b611a9b610fb1565b90508073ffffffffffffffffffffffffffffffffffffffff16632a44fba53330856000604051602001526040518463ffffffff167c0100000000000000000000000000000000000000000000000000000000028152600401808473ffffffffffffffffffffffffffffffffffffffff1673ffffffffffffffffffffffffffffffffffffffff1681526020018373ffffffffffffffffffffffffffffffffffffffff1673ffffffffffffffffffffffffffffffffffffffff1681526020018273ffffffffffffffffffffffffffffffffffffffff1673ffffffffffffffffffffffffffffffffffffffff1681526020019350505050602060405180830381600087803b1515611ba857600080fd5b6102c65a03f11515611bb957600080fd5b505050604051805190501515611bce57600080fd5b81600f60010160006101000a81548173ffffffffffffffffffffffffffffffffffffffff021916908373ffffffffffffffffffffffffffffffffffffffff1602179055505050565b6000600f60000160009054906101000a900473ffffffffffffffffffffffffffffffffffffffff1690508073ffffffffffffffffffffffffffffffffffffffff16639aa4d0a0336000604051602001526040518263ffffffff167c0100000000000000000000000000000000000000000000000000000000028152600401808273ffffffffffffffffffffffffffffffffffffffff1673ffffffffffffffffffffffffffffffffffffffff168152602001915050602060405180830381600087803b1515611ce357600080fd5b6102c65a03f11515611cf457600080fd5b5050506040518051905080611d5557506000809054906101000a900473ffffffffffffffffffffffffffffffffffffffff1673ffffffffffffffffffffffffffffffffffffffff163373ffffffffffffffffffffffffffffffffffffffff16145b1515611d6057600080fd5b611e8d600160a060405190810160405290816000820160009054906101000a900473ffffffffffffffffffffffffffffffffffffffff1673ffffffffffffffffffffffffffffffffffffffff1673ffffffffffffffffffffffffffffffffffffffff1681526020016001820160009054906101000a900473ffffffffffffffffffffffffffffffffffffffff1673ffffffffffffffffffffffffffffffffffffffff1673ffffffffffffffffffffffffffffffffffffffff1681526020016002820160009054906101000a900473ffffffffffffffffffffffffffffffffffffffff1673ffffffffffffffffffffffffffffffffffffffff1673ffffffffffffffffffffffffffffffffffffffff1681526020016003820154815260200160048201548152505083612e81565b5050565b600092915050565b6000600f60010160009054906101000a900473ffffffffffffffffffffffffffffffffffffffff1673ffffffffffffffffffffffffffffffffffffffff163373ffffffffffffffffffffffffffffffffffffffff16141515611efa57600080fd5b611f02610fb1565b90508073ffffffffffffffffffffffffffffffffffffffff166391f1df843330856000604051602001526040518463ffffffff167c0100000000000000000000000000000000000000000000000000000000028152600401808473ffffffffffffffffffffffffffffffffffffffff1673ffffffffffffffffffffffffffffffffffffffff1681526020018373ffffffffffffffffffffffffffffffffffffffff1673ffffffffffffffffffffffffffffffffffffffff1681526020018281526020019350505050602060405180830381600087803b1515611fe357600080fd5b6102c65a03f11515611ff457600080fd5b50505060405180519050151561200957600080fd5b81600f600401819055505050565b600080600080600061271061203187600760060154612e93565b81151561203a57fe5b049050606461204e82600f60040154612e93565b81151561205757fe5b0494508461206582866126e8565b94508461207288846126e8565b945084620f424061208887600760040154612e93565b81151561209157fe5b049450849450945094509450509193509193565b6120ad612fa2565b6120b5612fa2565b60008060076000018054600181600116156101000203166002900480601f0160208091040260200160405190810160405280929190818152602001828054600181600116156101000203166002900480156121515780601f1061212657610100808354040283529160200191612151565b820191906000526020600020905b81548152906001019060200180831161213457829003601f168201915b5050505050935060076001018054600181600116156101000203166002900480601f0160208091040260200160405190810160405280929190818152602001828054600181600116156101000203166002900480156121f15780601f106121c6576101008083540402835291602001916121f1565b820191906000526020600020905b8154815290600101906020018083116121d457829003601f168201915b50505050509250600f60000160009054906101000a900473ffffffffffffffffffffffffffffffffffffffff1691508173ffffffffffffffffffffffffffffffffffffffff166326c7a0de6000604051602001526040518163ffffffff167c0100000000000000000000000000000000000000000000000000000000028152600401602060405180830381600087803b151561228c57600080fd5b6102c65a03f1151561229d57600080fd5b5050506040518051905090508073ffffffffffffffffffffffffffffffffffffffff16632ec576123330898989896000604051602001526040518763ffffffff167c0100000000000000000000000000000000000000000000000000000000028152600401808773ffffffffffffffffffffffffffffffffffffffff1673ffffffffffffffffffffffffffffffffffffffff1681526020018673ffffffffffffffffffffffffffffffffffffffff1673ffffffffffffffffffffffffffffffffffffffff1681526020018581526020018481526020018060200180602001838103835285818151815260200191508051906020019080838360005b838110156123b3578082015181840152602081019050612398565b50505050905090810190601f1680156123e05780820380516001836020036101000a031916815260200191505b50838103825284818151815260200191508051906020019080838360005b838110156124195780820151818401526020810190506123fe565b50505050905090810190601f1680156124465780820380516001836020036101000a031916815260200191505b5098505050505050505050602060405180830381600087803b151561246a57600080fd5b6102c65a03f1151561247b57600080fd5b50505060405180519050151561249057600080fd5b505050505050565b6124e4600660008673ffffffffffffffffffffffffffffffffffffffff1673ffffffffffffffffffffffffffffffffffffffff16815260200190815260200160002060000154846126e8565b600660008673ffffffffffffffffffffffffffffffffffffffff1673ffffffffffffffffffffffffffffffffffffffff1681526020019081526020016000206000018190555061259b60066000600f60020160009054906101000a900473ffffffffffffffffffffffffffffffffffffffff1673ffffffffffffffffffffffffffffffffffffffff1673ffffffffffffffffffffffffffffffffffffffff1681526020019081526020016000206000015483612e57565b60066000600f60020160009054906101000a900473ffffffffffffffffffffffffffffffffffffffff1673ffffffffffffffffffffffffffffffffffffffff1673ffffffffffffffffffffffffffffffffffffffff1681526020019081526020016000206000018190555061267760066000600f60010160009054906101000a900473ffffffffffffffffffffffffffffffffffffffff1673ffffffffffffffffffffffffffffffffffffffff1673ffffffffffffffffffffffffffffffffffffffff1681526020019081526020016000206000015482612e57565b60066000600f60010160009054906101000a900473ffffffffffffffffffffffffffffffffffffffff1673ffffffffffffffffffffffffffffffffffffffff1673ffffffffffffffffffffffffffffffffffffffff1681526020019081526020016000206000018190555050505050565b60008282111515156126f657fe5b818303905092915050565b600080600080600061271d620f42403402600760050154612ec6565b945061271061273186600760060154612e93565b81151561273a57fe5b049050612751620f42403402600760050154612ec6565b945084606461276583600f60040154612e93565b81151561276e57fe5b0494508461277c83876126e8565b94508461278988856126e8565b94508494509450945094505090919293565b6127a3612fa2565b6127ab612fa2565b60008060076000018054600181600116156101000203166002900480601f0160208091040260200160405190810160405280929190818152602001828054600181600116156101000203166002900480156128475780601f1061281c57610100808354040283529160200191612847565b820191906000526020600020905b81548152906001019060200180831161282a57829003601f168201915b5050505050935060076001018054600181600116156101000203166002900480601f0160208091040260200160405190810160405280929190818152602001828054600181600116156101000203166002900480156128e75780601f106128bc576101008083540402835291602001916128e7565b820191906000526020600020905b8154815290600101906020018083116128ca57829003601f168201915b50505050509250600f60000160009054906101000a900473ffffffffffffffffffffffffffffffffffffffff1691508173ffffffffffffffffffffffffffffffffffffffff166326c7a0de6000604051602001526040518163ffffffff167c0100000000000000000000000000000000000000000000000000000000028152600401602060405180830381600087803b151561298257600080fd5b6102c65a03f1151561299357600080fd5b5050506040518051905090508073ffffffffffffffffffffffffffffffffffffffff16632cc4e4b63330348989896000604051602001526040518763ffffffff167c0100000000000000000000000000000000000000000000000000000000028152600401808773ffffffffffffffffffffffffffffffffffffffff1673ffffffffffffffffffffffffffffffffffffffff1681526020018673ffffffffffffffffffffffffffffffffffffffff1673ffffffffffffffffffffffffffffffffffffffff1681526020018581526020018481526020018060200180602001838103835285818151815260200191508051906020019080838360005b83811015612aa9578082015181840152602081019050612a8e565b50505050905090810190601f168015612ad65780820380516001836020036101000a031916815260200191505b50838103825284818151815260200191508051906020019080838360005b83811015612b0f578082015181840152602081019050612af4565b50505050905090810190601f168015612b3c5780820380516001836020036101000a031916815260200191505b5098505050505050505050602060405180830381600087803b1515612b6057600080fd5b6102c65a03f11515612b7157600080fd5b505050604051805190501515612b8657600080fd5b5050505050565b612bd9600660008673ffffffffffffffffffffffffffffffffffffffff1673ffffffffffffffffffffffffffffffffffffffff1681526020019081526020016000206000015484612e57565b600660008673ffffffffffffffffffffffffffffffffffffffff1673ffffffffffffffffffffffffffffffffffffffff16815260200190815260200160002060000181905550612c9060066000600f60020160009054906101000a900473ffffffffffffffffffffffffffffffffffffffff1673ffffffffffffffffffffffffffffffffffffffff1673ffffffffffffffffffffffffffffffffffffffff1681526020019081526020016000206000015483612e57565b60066000600f60020160009054906101000a900473ffffffffffffffffffffffffffffffffffffffff1673ffffffffffffffffffffffffffffffffffffffff1673ffffffffffffffffffffffffffffffffffffffff16815260200190815260200160002060000181905550612d6c60066000600f60010160009054906101000a900473ffffffffffffffffffffffffffffffffffffffff1673ffffffffffffffffffffffffffffffffffffffff1673ffffffffffffffffffffffffffffffffffffffff1681526020019081526020016000206000015482612e57565b60066000600f60010160009054906101000a900473ffffffffffffffffffffffffffffffffffffffff1673ffffffffffffffffffffffffffffffffffffffff1673ffffffffffffffffffffffffffffffffffffffff168152602001908152602001600020600001819055506007800160009054906101000a900463ffffffff164201600660008673ffffffffffffffffffffffffffffffffffffffff1673ffffffffffffffffffffffffffffffffffffffff16815260200190815260200160002060010160010160006101000a81548163ffffffff021916908363ffffffff16021790555050505050565b6000808284019050838110158015612e6f5750828110155b1515612e7757fe5b8091505092915050565b612e8f816000369050612f07565b5050565b60008082840290506000841480612eb45750828482811515612eb157fe5b04145b1515612ebc57fe5b8091505092915050565b600080600083111515612ed557fe5b8284811515612ee057fe5b0490508284811515612eee57fe5b068184020184141515612efd57fe5b8091505092915050565b612f0f612fb6565b6000806000849250612f2083612f39565b91508260008337612f32828488612f50565b9050602081f35b600080604051905082810160405280915050919050565b600080600080849250612f636020612f39565b91506020828789866127105a03f415905080151515612f8157600080fd5b8193505050509392505050565b602060405190810160405280600081525090565b602060405190810160405280600081525090565b60a060405190810160405280600073ffffffffffffffffffffffffffffffffffffffff168152602001600073ffffffffffffffffffffffffffffffffffffffff168152602001600073ffffffffffffffffffffffffffffffffffffffff168152602001600081526020016000815250905600a165627a7a7230582000e66c0873f5ddb927bb11b4a877cd5a2ffd2cce0058d6b01aa30f1987a492030029a165627a7a7230582021f43e42c4d3274571951931bf0a9d38a90288743d9ce36dd09a7c65637344ec0029",
  "source": "/*\n\n Copyright 2017-2018 RigoBlock, Rigo Investment Sagl.\n\n Licensed under the Apache License, Version 2.0 (the \"License\");\n you may not use this file except in compliance with the License.\n You may obtain a copy of the License at\n\n     http://www.apache.org/licenses/LICENSE-2.0\n\n Unless required by applicable law or agreed to in writing, software\n distributed under the License is distributed on an \"AS IS\" BASIS,\n WITHOUT WARRANTIES OR CONDITIONS OF ANY KIND, either express or implied.\n See the License for the specific language governing permissions and\n limitations under the License.\n\n*/\n\npragma solidity ^0.4.19;\n\nimport { DragoRegistryFace as DragoRegistry } from \"../Registry/DragoRegistryFace.sol\";\nimport { AuthorityFace as Authority } from \"../Authority/AuthorityFace.sol\";\nimport { DragoFace as Drago } from \"../Drago/DragoFace.sol\";\nimport { DragoEventfulFace as DragoEventful } from \"../DragoEventful/DragoEventfulFace.sol\";\n\nimport { DragoFactoryLibrary } from \"./DragoFactoryLibrary/DragoFactoryLibrary.sol\";\nimport { OwnedUninitialized as Owned } from \"../utils/Owned/OwnedUninitialized.sol\";\nimport { DragoFactoryFace } from \"./DragoFactoryFace.sol\";\n\n/// @title Drago Factory contract - allows creation of new dragos.\n/// @author Gabriele Rigo - <gab@rigoblock.com>\ncontract DragoFactory is Owned, DragoFactoryFace {\n\n    DragoFactoryLibrary.NewDrago libraryData;\n\n    string public constant VERSION = 'VF 0.4.1';\n\n    Data data;\n\n    struct Data {\n        uint fee;\n        address dragoRegistry;\n        address dragoDao;\n        address authority;\n        mapping(address => address[]) dragos;\n    }\n\n    event DragoCreated(\n        string name,\n        string symbol,\n        address indexed drago,\n        address indexed owner,\n        uint dragoId\n    );\n\n    modifier whitelisted_factory(address _authority) {\n        Authority auth = Authority(_authority);\n        if (auth.isWhitelistedFactory(this)) _;\n    }\n\n    modifier when_fee_paid { require(msg.value >= data.fee); _; }\n    modifier only_owner { require(msg.sender == owner); _; }\n    modifier only_drago_dao { require(msg.sender == data.dragoDao); _; }\n\n    function DragoFactory(\n        address _registry,\n        address _dragoDao,\n        address _authority)\n        public\n    {\n        data.dragoRegistry = _registry;\n        data.dragoDao = _dragoDao;\n        data.authority = _authority;\n        owner = msg.sender;\n    }\n\n    // CORE FUNCTIONS\n\n    /// @dev allows creation of a new drago\n    /// @param _name String of the name\n    /// @param _symbol String of the symbol\n    /// @return Bool the transaction executed correctly\n    function createDrago(string _name, string _symbol)\n        public\n        returns (bool success)\n    {\n        DragoRegistry registry = DragoRegistry(data.dragoRegistry);\n        uint regFee = registry.getFee();\n        uint dragoId = registry.dragoCount();\n        require(createDragoInternal(_name, _symbol, msg.sender, dragoId));\n        assert(registry.register.value(regFee)(\n            libraryData.newAddress,\n            _name,\n            _symbol,\n            dragoId,\n            msg.sender)\n        );\n        return true;\n    }\n\n    /// @dev Allows factory owner to update the address of the dao/factory\n    /// @dev Enables manual update of dao for single dragos\n    /// @param _targetDrago Address of the target drago\n    /// @param _dragoDao Address of the new drago dao\n    function setTargetDragoDao(address _targetDrago, address _dragoDao)\n        public\n        only_owner\n    {\n        Drago drago = Drago(_targetDrago);\n        drago.changeDragoDao(_dragoDao);\n    }\n\n    /// @dev Allows drago dao/factory to update its address\n    /// @dev Creates internal record\n    /// @param _newDragoDao Address of the drago dao\n    function changeDragoDao(address _newDragoDao) public only_drago_dao {\n        data.dragoDao = _newDragoDao;\n    }\n\n    /// @dev Allows owner to update the registry\n    /// @param _newRegistry Address of the new registry\n    function setRegistry(address _newRegistry) public only_owner {\n        data.dragoRegistry = _newRegistry;\n    }\n\n    /// @dev Allows owner to set the address which can collect creation fees\n    /// @param _dragoDao Address of the new drago dao/factory\n    function setBeneficiary(address _dragoDao) public only_owner {\n        data.dragoDao = _dragoDao;\n    }\n\n    /// @dev Allows owner to set the drago creation fee\n    /// @param _fee Value of the fee in wei\n    function setFee(uint _fee) public only_owner {\n        data.fee = _fee;\n    }\n\n    /// @dev Allows owner to collect fees\n    function drain() public only_owner {\n        data.dragoDao.transfer(this.balance);\n    }\n\n    // CONSTANT PUBLIC FUNCTIONS\n\n    /// @dev Returns the address of the pool registry\n    /// @return Address of the registry\n    function getRegistry() public constant returns (address) {\n        return (data.dragoRegistry);\n    }\n\n    /// @dev Returns administrative data for this factory\n    /// @return Address of the drago dao\n    /// @return String of the version\n    /// @return Number of the next drago from the registry\n    function getStorage()\n        public\n        constant\n        returns (\n            address dragoDao,\n            string version,\n            uint nextDragoId\n        )\n    {\n        return (\n            dragoDao = data.dragoDao,\n            version = VERSION,\n            nextDragoId = getNextId()\n        );\n    }\n\n    /// @dev Returns the next Id for a drago\n    /// @return Number of the next Id from the registry\n    function getNextId() public constant returns (uint nextDragoId) {\n        DragoRegistry registry = DragoRegistry(data.dragoRegistry);\n        nextDragoId = registry.dragoCount();\n    }\n\n    /// @dev Returns the address of the logger contract\n    /// @dev Queries from authority contract\n    /// @return Address of the eventful contract\n    function getEventful() public constant returns (address) {\n        Authority auth = Authority(data.authority);\n        return auth.getDragoEventful();\n    }\n\n    /// @dev Returns an array of dragos the owner has created\n    /// @param _owner Address of the queried owner\n    /// @return Array of drago addresses\n    function getDragosByAddress(address _owner)\n        public\n        constant\n        returns (address[])\n    {\n        return data.dragos[_owner];\n    }\n\n    // INTERNAL FUNCTIONS\n\n    /// @dev Creates a drago and routes to eventful\n    /// @param _name String of the name\n    /// @param _symbol String of the symbol\n    /// @param _owner Address of the owner\n    /// @param _dragoId Number of the new drago Id\n    /// @return Bool the transaction executed correctly\n    function createDragoInternal(\n        string _name,\n        string _symbol,\n        address _owner,\n        uint _dragoId)\n        internal\n        when_fee_paid\n        returns (bool success)\n    {\n        Authority auth = Authority(data.authority);\n        require(DragoFactoryLibrary.createDrago(\n            libraryData,\n            _name,\n            _symbol,\n            _owner,\n            _dragoId,\n            data.authority)\n        );\n        data.dragos[msg.sender].push(libraryData.newAddress);\n        DragoEventful events = DragoEventful(auth.getDragoEventful());\n        require(events.createDrago(\n            msg.sender,\n            this,\n            libraryData.newAddress,\n            _name,\n            _symbol,\n            _dragoId,\n            _owner)\n        );\n        auth.whitelistDrago(libraryData.newAddress, true);\n        auth.whitelistUser(msg.sender, true);\n        DragoCreated(_name, _symbol, libraryData.newAddress, _owner, _dragoId);\n        return true;\n    }\n}\n",
  "sourcePath": "/home/gab/truffle/contracts/contracts/DragoFactory/DragoFactory.sol",
  "compiler": {
    "name": "solc",
    "version": "0.4.19+commit.c4cbbb05.Emscripten.clang"
  },
  "schemaVersion": "2.0.0",
  "updatedAt": "2018-03-05T01:35:43.713Z"
}