{
  "contractName": "DragoFactoryFace",
  "abi": [
    {
      "anonymous": false,
      "inputs": [
        {
          "indexed": false,
          "name": "name",
          "type": "string"
        },
        {
          "indexed": false,
          "name": "symbol",
          "type": "string"
        },
        {
          "indexed": true,
          "name": "drago",
          "type": "address"
        },
        {
          "indexed": true,
          "name": "owner",
          "type": "address"
        },
        {
          "indexed": false,
          "name": "dragoId",
          "type": "uint256"
        }
      ],
      "name": "DragoCreated",
      "type": "event"
    },
    {
      "constant": false,
      "inputs": [
        {
          "name": "_name",
          "type": "string"
        },
        {
          "name": "_symbol",
          "type": "string"
        }
      ],
      "name": "createDrago",
      "outputs": [
        {
          "name": "success",
          "type": "bool"
        }
      ],
      "payable": false,
      "stateMutability": "nonpayable",
      "type": "function"
    },
    {
      "constant": false,
      "inputs": [
        {
          "name": "_targetDrago",
          "type": "address"
        },
        {
          "name": "_dragoDao",
          "type": "address"
        }
      ],
      "name": "setTargetDragoDao",
      "outputs": [],
      "payable": false,
      "stateMutability": "nonpayable",
      "type": "function"
    },
    {
      "constant": false,
      "inputs": [
        {
          "name": "_newDragoDao",
          "type": "address"
        }
      ],
      "name": "changeDragoDao",
      "outputs": [],
      "payable": false,
      "stateMutability": "nonpayable",
      "type": "function"
    },
    {
      "constant": false,
      "inputs": [
        {
          "name": "_newRegistry",
          "type": "address"
        }
      ],
      "name": "setRegistry",
      "outputs": [],
      "payable": false,
      "stateMutability": "nonpayable",
      "type": "function"
    },
    {
      "constant": false,
      "inputs": [
        {
          "name": "_dragoDao",
          "type": "address"
        }
      ],
      "name": "setBeneficiary",
      "outputs": [],
      "payable": false,
      "stateMutability": "nonpayable",
      "type": "function"
    },
    {
      "constant": false,
      "inputs": [
        {
          "name": "_fee",
          "type": "uint256"
        }
      ],
      "name": "setFee",
      "outputs": [],
      "payable": false,
      "stateMutability": "nonpayable",
      "type": "function"
    },
    {
      "constant": false,
      "inputs": [],
      "name": "drain",
      "outputs": [],
      "payable": false,
      "stateMutability": "nonpayable",
      "type": "function"
    },
    {
      "constant": true,
      "inputs": [],
      "name": "getRegistry",
      "outputs": [
        {
          "name": "",
          "type": "address"
        }
      ],
      "payable": false,
      "stateMutability": "view",
      "type": "function"
    },
    {
      "constant": true,
      "inputs": [],
      "name": "getStorage",
      "outputs": [
        {
          "name": "dragoDao",
          "type": "address"
        },
        {
          "name": "version",
          "type": "string"
        },
        {
          "name": "nextDragoId",
          "type": "uint256"
        }
      ],
      "payable": false,
      "stateMutability": "view",
      "type": "function"
    },
    {
      "constant": true,
      "inputs": [],
      "name": "getNextId",
      "outputs": [
        {
          "name": "nextDragoId",
          "type": "uint256"
        }
      ],
      "payable": false,
      "stateMutability": "view",
      "type": "function"
    },
    {
      "constant": true,
      "inputs": [],
      "name": "getEventful",
      "outputs": [
        {
          "name": "",
          "type": "address"
        }
      ],
      "payable": false,
      "stateMutability": "view",
      "type": "function"
    },
    {
      "constant": true,
      "inputs": [
        {
          "name": "_owner",
          "type": "address"
        }
      ],
      "name": "getDragosByAddress",
      "outputs": [
        {
          "name": "",
          "type": "address[]"
        }
      ],
      "payable": false,
      "stateMutability": "view",
      "type": "function"
    }
  ],
  "bytecode": "0x6060604052341561000f57600080fd5b6103ef8061001e6000396000f3006060604052600436106100b95763ffffffff7c01000000000000000000000000000000000000000000000000000000006000350416631c31f71081146100be5780633408f73a146100ec5780633dcc8b891461019b5780635ab1bd53146101cd57806369fe0e2d14610209578063837929b6146101cd5780639890220b1461021f578063a91ee0dc146100be578063bc96832614610232578063c1bf130d14610257578063c8c3b926146100be578063f08d29d5146102d6575b600080fd5b34156100c957600080fd5b6100ea73ffffffffffffffffffffffffffffffffffffffff6004351661037d565b005b34156100f757600080fd5b6100ff610380565b60405173ffffffffffffffffffffffffffffffffffffffff841681526040810182905260606020820181815290820184818151815260200191508051906020019080838360005b8381101561015e578082015183820152602001610146565b50505050905090810190601f16801561018b5780820380516001836020036101000a031916815260200191505b5094505050505060405180910390f35b34156101a657600080fd5b6100ea73ffffffffffffffffffffffffffffffffffffffff60043581169060243516610391565b34156101d857600080fd5b6101e0610395565b60405173ffffffffffffffffffffffffffffffffffffffff909116815260200160405180910390f35b341561021457600080fd5b6100ea60043561037d565b341561022a57600080fd5b6100ea61039a565b341561023d57600080fd5b610245610395565b60405190815260200160405180910390f35b341561026257600080fd5b61028373ffffffffffffffffffffffffffffffffffffffff6004351661039c565b60405160208082528190810183818151815260200191508051906020019060200280838360005b838110156102c25780820151838201526020016102aa565b505050509050019250505060405180910390f35b34156102e157600080fd5b61036960046024813581810190830135806020601f8201819004810201604051908101604052818152929190602084018383808284378201915050505050509190803590602001908201803590602001908080601f0160208091040260200160405190810160405281815292919060208401838380828437509496506103a995505050505050565b604051901515815260200160405180910390f35b50565b600061038a6103b1565b6000909192565b5050565b600090565b565b6103a46103b1565b919050565b600092915050565b602060405190810160405260008152905600a165627a7a7230582001e0a413f1a6b9e3d6b3d70ac8115d6a383e8cd49e8bfa7f202361dd7de4ca6b0029",
  "source": "/*\n\n Copyright 2017-2018 RigoBlock, Rigo Investment Sagl.\n\n Licensed under the Apache License, Version 2.0 (the \"License\");\n you may not use this file except in compliance with the License.\n You may obtain a copy of the License at\n\n     http://www.apache.org/licenses/LICENSE-2.0\n\n Unless required by applicable law or agreed to in writing, software\n distributed under the License is distributed on an \"AS IS\" BASIS,\n WITHOUT WARRANTIES OR CONDITIONS OF ANY KIND, either express or implied.\n See the License for the specific language governing permissions and\n limitations under the License.\n\n*/\n\npragma solidity ^0.4.20;\n\n/// @title Drago Factory Interface - Allows external interaction with Drago Factory.\n/// @author Gabriele Rigo - <gab@rigoblock.com>\ncontract DragoFactoryFace {\n\n    event DragoCreated(string name, string symbol, address indexed drago, address indexed owner, uint dragoId);\n\n    function createDrago(string _name, string _symbol) public returns (bool success) {}\n    function setTargetDragoDao(address _targetDrago, address _dragoDao) public {}\n    function changeDragoDao(address _newDragoDao) public {}\n    function setRegistry(address _newRegistry) public {}\n    function setBeneficiary(address _dragoDao) public {}\n    function setFee(uint _fee) public {}\n    function drain() public {}\n    //function setOwner(address _new) public {}\n\n    function getRegistry() public view returns (address) {}\n    function getStorage() public view returns (address dragoDao, string version, uint nextDragoId) {}\n    function getNextId() public view returns (uint nextDragoId) {}\n    function getEventful() public view returns (address) {}\n    function getDragosByAddress(address _owner) public view returns (address[]) {}\n    //function getOwner() public view returns (address) {}\n}\n",
  "sourcePath": "/home/gab/truffle/contracts/contracts/DragoFactory/DragoFactoryFace.sol",
  "compiler": {
    "name": "solc",
    "version": "0.4.19+commit.c4cbbb05.Emscripten.clang"
  },
  "schemaVersion": "2.0.0",
  "updatedAt": "2018-03-05T21:05:52.520Z"
}