{
  "contractName": "ERC20Face",
  "abi": [
    {
      "anonymous": false,
      "inputs": [
        {
          "indexed": true,
          "name": "_from",
          "type": "address"
        },
        {
          "indexed": true,
          "name": "_to",
          "type": "address"
        },
        {
          "indexed": false,
          "name": "_value",
          "type": "uint256"
        }
      ],
      "name": "Transfer",
      "type": "event"
    },
    {
      "anonymous": false,
      "inputs": [
        {
          "indexed": true,
          "name": "_owner",
          "type": "address"
        },
        {
          "indexed": true,
          "name": "_spender",
          "type": "address"
        },
        {
          "indexed": false,
          "name": "_value",
          "type": "uint256"
        }
      ],
      "name": "Approval",
      "type": "event"
    },
    {
      "constant": false,
      "inputs": [
        {
          "name": "_to",
          "type": "address"
        },
        {
          "name": "_value",
          "type": "uint256"
        }
      ],
      "name": "transfer",
      "outputs": [
        {
          "name": "success",
          "type": "bool"
        }
      ],
      "payable": false,
      "stateMutability": "nonpayable",
      "type": "function"
    },
    {
      "constant": false,
      "inputs": [
        {
          "name": "_from",
          "type": "address"
        },
        {
          "name": "_to",
          "type": "address"
        },
        {
          "name": "_value",
          "type": "uint256"
        }
      ],
      "name": "transferFrom",
      "outputs": [
        {
          "name": "success",
          "type": "bool"
        }
      ],
      "payable": false,
      "stateMutability": "nonpayable",
      "type": "function"
    },
    {
      "constant": false,
      "inputs": [
        {
          "name": "_spender",
          "type": "address"
        },
        {
          "name": "_value",
          "type": "uint256"
        }
      ],
      "name": "approve",
      "outputs": [
        {
          "name": "success",
          "type": "bool"
        }
      ],
      "payable": false,
      "stateMutability": "nonpayable",
      "type": "function"
    },
    {
      "constant": true,
      "inputs": [
        {
          "name": "_who",
          "type": "address"
        }
      ],
      "name": "balanceOf",
      "outputs": [
        {
          "name": "",
          "type": "uint256"
        }
      ],
      "payable": false,
      "stateMutability": "view",
      "type": "function"
    },
    {
      "constant": true,
      "inputs": [
        {
          "name": "_owner",
          "type": "address"
        },
        {
          "name": "_spender",
          "type": "address"
        }
      ],
      "name": "allowance",
      "outputs": [
        {
          "name": "",
          "type": "uint256"
        }
      ],
      "payable": false,
      "stateMutability": "view",
      "type": "function"
    }
  ],
  "bytecode": "0x6060604052341561000f57600080fd5b6102ac8061001e6000396000f30060606040526004361061006d576000357c0100000000000000000000000000000000000000000000000000000000900463ffffffff168063095ea7b31461007257806323b872dd146100cc57806370a0823114610145578063a9059cbb14610192578063dd62ed3e146101ec575b600080fd5b341561007d57600080fd5b6100b2600480803573ffffffffffffffffffffffffffffffffffffffff16906020019091908035906020019091905050610258565b604051808215151515815260200191505060405180910390f35b34156100d757600080fd5b61012b600480803573ffffffffffffffffffffffffffffffffffffffff1690602001909190803573ffffffffffffffffffffffffffffffffffffffff16906020019091908035906020019091905050610260565b604051808215151515815260200191505060405180910390f35b341561015057600080fd5b61017c600480803573ffffffffffffffffffffffffffffffffffffffff16906020019091905050610269565b6040518082815260200191505060405180910390f35b341561019d57600080fd5b6101d2600480803573ffffffffffffffffffffffffffffffffffffffff16906020019091908035906020019091905050610270565b604051808215151515815260200191505060405180910390f35b34156101f757600080fd5b610242600480803573ffffffffffffffffffffffffffffffffffffffff1690602001909190803573ffffffffffffffffffffffffffffffffffffffff16906020019091905050610278565b6040518082815260200191505060405180910390f35b600092915050565b60009392505050565b6000919050565b600092915050565b6000929150505600a165627a7a72305820b8e7cee5580a118554aa7d138255a871bd4e7d8d1c5c4e64b9a998fcd379a8910029",
  "source": "pragma solidity ^0.4.19;\n\ncontract ERC20Face {\n\n    event Transfer(address indexed _from, address indexed _to, uint256 _value);\n    event Approval(address indexed _owner, address indexed _spender, uint256 _value);\n\n    function transfer(address _to, uint256 _value) public returns (bool success) {}\n    function transferFrom(address _from, address _to, uint256 _value) public returns (bool success) {}\n    function approve(address _spender, uint256 _value) public returns (bool success) {}\n\n    function balanceOf(address _who) public view returns (uint256) {}\n    function allowance(address _owner, address _spender) public view returns (uint256) {}\n}\n",
  "sourcePath": "/home/gab/truffle/contracts/contracts/utils/tokens/ERC20/ERC20Face.sol",
  "compiler": {
    "name": "solc",
    "version": "0.4.19+commit.c4cbbb05.Emscripten.clang"
  },
  "schemaVersion": "2.0.0",
  "updatedAt": "2018-03-05T01:35:43.866Z"
}