{
  "contractName": "ExchangeAdapter",
  "abi": [
    {
      "constant": false,
      "inputs": [
        {
          "name": "_exchange",
          "type": "address"
        },
        {
          "name": "_token",
          "type": "address"
        },
        {
          "name": "_value",
          "type": "uint256"
        }
      ],
      "name": "depositToExchange",
      "outputs": [],
      "payable": false,
      "stateMutability": "nonpayable",
      "type": "function"
    },
    {
      "constant": false,
      "inputs": [
        {
          "name": "_exchange",
          "type": "address"
        },
        {
          "name": "_token",
          "type": "address"
        },
        {
          "name": "_value",
          "type": "uint256"
        }
      ],
      "name": "withdrawFromExchange",
      "outputs": [],
      "payable": false,
      "stateMutability": "nonpayable",
      "type": "function"
    },
    {
      "constant": false,
      "inputs": [
        {
          "name": "_exchange",
          "type": "address"
        },
        {
          "name": "orderAddresses",
          "type": "address[5]"
        },
        {
          "name": "orderValues",
          "type": "uint256[6]"
        },
        {
          "name": "fillTakerTokenAmount",
          "type": "uint256"
        },
        {
          "name": "stableOrSufficient",
          "type": "bool"
        },
        {
          "name": "v",
          "type": "uint8"
        },
        {
          "name": "signature",
          "type": "bytes32[2]"
        }
      ],
      "name": "placeOrderExchange",
      "outputs": [],
      "payable": false,
      "stateMutability": "nonpayable",
      "type": "function"
    },
    {
      "constant": false,
      "inputs": [
        {
          "name": "_exchange",
          "type": "address"
        },
        {
          "name": "orderAddresses",
          "type": "address[5]"
        },
        {
          "name": "orderValues",
          "type": "uint256[6]"
        },
        {
          "name": "fillTakerTokenAmount",
          "type": "uint256"
        },
        {
          "name": "stableOrSufficient",
          "type": "bool"
        },
        {
          "name": "v",
          "type": "uint8"
        },
        {
          "name": "signature",
          "type": "bytes32[2]"
        }
      ],
      "name": "placeTradeExchange",
      "outputs": [],
      "payable": false,
      "stateMutability": "nonpayable",
      "type": "function"
    },
    {
      "constant": false,
      "inputs": [
        {
          "name": "_exchange",
          "type": "address"
        },
        {
          "name": "orderAddresses",
          "type": "address[5]"
        },
        {
          "name": "orderValues",
          "type": "uint256[6]"
        },
        {
          "name": "cancelTakerTokenAmount",
          "type": "uint256"
        }
      ],
      "name": "cancelOrderExchange",
      "outputs": [],
      "payable": false,
      "stateMutability": "nonpayable",
      "type": "function"
    },
    {
      "constant": false,
      "inputs": [
        {
          "name": "_exchange",
          "type": "address"
        },
        {
          "name": "orderAddresses",
          "type": "address[5]"
        },
        {
          "name": "orderValues",
          "type": "uint256[6]"
        },
        {
          "name": "cancelTakerTokenAmount",
          "type": "uint256"
        }
      ],
      "name": "finalizeDeal",
      "outputs": [],
      "payable": false,
      "stateMutability": "nonpayable",
      "type": "function"
    },
    {
      "constant": true,
      "inputs": [
        {
          "name": "token",
          "type": "address"
        },
        {
          "name": "user",
          "type": "address"
        }
      ],
      "name": "balanceOf",
      "outputs": [
        {
          "name": "",
          "type": "uint256"
        }
      ],
      "payable": false,
      "stateMutability": "view",
      "type": "function"
    },
    {
      "constant": true,
      "inputs": [
        {
          "name": "_who",
          "type": "address"
        }
      ],
      "name": "balanceOf",
      "outputs": [
        {
          "name": "",
          "type": "uint256"
        }
      ],
      "payable": false,
      "stateMutability": "view",
      "type": "function"
    },
    {
      "constant": true,
      "inputs": [
        {
          "name": "_who",
          "type": "address"
        }
      ],
      "name": "marginOf",
      "outputs": [
        {
          "name": "",
          "type": "uint256"
        }
      ],
      "payable": false,
      "stateMutability": "view",
      "type": "function"
    },
    {
      "constant": true,
      "inputs": [
        {
          "name": "tokenGet",
          "type": "address"
        },
        {
          "name": "amountGet",
          "type": "uint256"
        },
        {
          "name": "tokenGive",
          "type": "address"
        },
        {
          "name": "amountGive",
          "type": "uint256"
        },
        {
          "name": "expires",
          "type": "uint256"
        },
        {
          "name": "user",
          "type": "address"
        }
      ],
      "name": "availableVolume",
      "outputs": [
        {
          "name": "",
          "type": "uint256"
        }
      ],
      "payable": false,
      "stateMutability": "view",
      "type": "function"
    },
    {
      "constant": true,
      "inputs": [
        {
          "name": "tokenGet",
          "type": "address"
        },
        {
          "name": "amountGet",
          "type": "uint256"
        },
        {
          "name": "tokenGive",
          "type": "address"
        },
        {
          "name": "amountGive",
          "type": "uint256"
        },
        {
          "name": "expires",
          "type": "uint256"
        },
        {
          "name": "user",
          "type": "address"
        }
      ],
      "name": "amountFilled",
      "outputs": [
        {
          "name": "",
          "type": "uint256"
        }
      ],
      "payable": false,
      "stateMutability": "view",
      "type": "function"
    },
    {
      "constant": true,
      "inputs": [],
      "name": "getLastOrderId",
      "outputs": [
        {
          "name": "",
          "type": "uint256"
        }
      ],
      "payable": false,
      "stateMutability": "view",
      "type": "function"
    },
    {
      "constant": true,
      "inputs": [
        {
          "name": "id",
          "type": "uint256"
        }
      ],
      "name": "isActive",
      "outputs": [
        {
          "name": "",
          "type": "bool"
        }
      ],
      "payable": false,
      "stateMutability": "view",
      "type": "function"
    },
    {
      "constant": true,
      "inputs": [
        {
          "name": "id",
          "type": "uint256"
        }
      ],
      "name": "getOwner",
      "outputs": [
        {
          "name": "",
          "type": "address"
        }
      ],
      "payable": false,
      "stateMutability": "view",
      "type": "function"
    },
    {
      "constant": true,
      "inputs": [
        {
          "name": "id",
          "type": "uint256"
        }
      ],
      "name": "getOrder",
      "outputs": [
        {
          "name": "",
          "type": "uint256"
        },
        {
          "name": "",
          "type": "address"
        },
        {
          "name": "",
          "type": "uint256"
        },
        {
          "name": "",
          "type": "address"
        }
      ],
      "payable": false,
      "stateMutability": "view",
      "type": "function"
    }
  ],
  "bytecode": "0x6060604052341561000f57600080fd5b6103198061001e6000396000f3006060604052600436106100da5763ffffffff7c0100000000000000000000000000000000000000000000000000000000600035041663176fed5681146100df57806364fbe9491461010857806368a525091461013057806370a082311461015557806382afd23b14610174578063900f75be146100df5780639bda8e5e14610108578063a23270b214610155578063bf52f1cf1461019e578063c41a360a146101d5578063d09ef24114610207578063da46275314610251578063dc4b49ad14610251578063ec9920521461019e578063f7888aec14610288575b600080fd5b34156100ea57600080fd5b610106600160a060020a0360043516602460c4610184356102ad565b005b341561011357600080fd5b610106600160a060020a03600435811690602435166044356102b3565b341561013b57600080fd5b6101436102b8565b60405190815260200160405180910390f35b341561016057600080fd5b610143600160a060020a03600435166102bd565b341561017f57600080fd5b61018a6004356102bd565b604051901515815260200160405180910390f35b34156101a957600080fd5b610143600160a060020a0360043581169060243590604435811690606435906084359060a435166102c3565b34156101e057600080fd5b6101eb6004356102bd565b604051600160a060020a03909116815260200160405180910390f35b341561021257600080fd5b61021d6004356102cf565b604051938452600160a060020a03928316602085015260408085019290925290911660608301526080909101905180910390f35b341561025c57600080fd5b610106600160a060020a0360043516602460c4610184356101a435151560ff6101c435166101e46102dc565b341561029357600080fd5b610143600160a060020a03600435811690602435166102e5565b50505050565b505050565b600090565b50600090565b60009695505050505050565b6000806000809193509193565b50505050505050565b6000929150505600a165627a7a723058206e473eb29f9e628e8792693981f9681227d7b67e86e8e311cf5e5a8e623b0c790029",
  "source": "/*\n\n Copyright 2017-2018 RigoBlock, Rigo Investment Sagl.\n\n Licensed under the Apache License, Version 2.0 (the \"License\");\n you may not use this file except in compliance with the License.\n You may obtain a copy of the License at\n\n     http://www.apache.org/licenses/LICENSE-2.0\n\n Unless required by applicable law or agreed to in writing, software\n distributed under the License is distributed on an \"AS IS\" BASIS,\n WITHOUT WARRANTIES OR CONDITIONS OF ANY KIND, either express or implied.\n See the License for the specific language governing permissions and\n limitations under the License.\n\n*/\n\npragma solidity ^0.4.19;\n\nimport { ERC20Face as ERC20 } from \"../utils/tokens/ERC20/ERC20Face.sol\";\n\n/// @title Exchange Adapter - Allows interaction with decentralized exchanges.\n/// @author Gabriele Rigo - <gab@rigoblock.com>\ncontract ExchangeAdapter {\n\n    // CORE FUNCTIONS\n\n    function depositToExchange(\n        address _exchange,\n        address _token,\n        uint _value)\n        external {}\n\n    function withdrawFromExchange(\n        address _exchange,\n        address _token,\n        uint _value)\n        external {}\n\n    function placeOrderExchange(\n        address _exchange,\n        address[5] orderAddresses,\n        uint[6] orderValues,\n        uint fillTakerTokenAmount,\n        bool stableOrSufficient,\n        uint8 v,\n        bytes32[2] signature)\n        external {}\n\n    function placeTradeExchange(\n        address _exchange,\n        address[5] orderAddresses,\n        uint[6] orderValues,\n        uint fillTakerTokenAmount,\n        bool stableOrSufficient,\n        uint8 v,\n        bytes32[2] signature)\n        external {}\n\n    function cancelOrderExchange(\n        address _exchange,\n        address[5] orderAddresses,\n        uint[6] orderValues,\n        uint cancelTakerTokenAmount)\n        external {}\n\n    function finalizeDeal(\n        address _exchange,\n        address[5] orderAddresses,\n        uint[6] orderValues,\n        uint cancelTakerTokenAmount)\n        external {}\n\n    // CONSTANT PUBLIC FUNCTIONS\n\n    /// @notice the below functions have to be checked\n    /// @notice they are read functions from the exchange, could be queried directly\n    function balanceOf(address token, address user) public view returns (uint) {}\n    function balanceOf(address _who) public view returns (uint) {}\n    function marginOf(address _who) public view returns (uint) {}\n    function availableVolume(address tokenGet, uint amountGet, address tokenGive, uint amountGive, uint expires, address user) public view returns(uint) {}\n    function amountFilled(address tokenGet, uint amountGet, address tokenGive, uint amountGive, uint expires, address user) public view returns(uint) {}\n    function getLastOrderId() public view returns (uint) {}\n    function isActive(uint id) public view returns (bool) {}\n    function getOwner(uint id) public view returns (address) {}\n    function getOrder(uint id) public view returns (uint, ERC20, uint, ERC20) {}\n}\n",
  "sourcePath": "/home/gab/truffle/contracts/contracts/ExchangeAdapters/ExchangeAdapterFace.sol",
  "compiler": {
    "name": "solc",
    "version": "0.4.19+commit.c4cbbb05.Emscripten.clang"
  },
  "schemaVersion": "2.0.0",
  "updatedAt": "2018-03-05T21:05:52.528Z"
}