{
  "contractName": "ExchangeAdapter",
  "abi": [
    {
      "constant": false,
      "inputs": [
        {
          "name": "_exchange",
          "type": "address"
        },
        {
          "name": "_token",
          "type": "address"
        },
        {
          "name": "_value",
          "type": "uint256"
        }
      ],
      "name": "depositToExchange",
      "outputs": [],
      "payable": false,
      "stateMutability": "nonpayable",
      "type": "function"
    },
    {
      "constant": false,
      "inputs": [
        {
          "name": "_exchange",
          "type": "address"
        },
        {
          "name": "_token",
          "type": "address"
        },
        {
          "name": "_value",
          "type": "uint256"
        }
      ],
      "name": "withdrawFromExchange",
      "outputs": [],
      "payable": false,
      "stateMutability": "nonpayable",
      "type": "function"
    },
    {
      "constant": false,
      "inputs": [
        {
          "name": "_exchange",
          "type": "address"
        },
        {
          "name": "orderAddresses",
          "type": "address[5]"
        },
        {
          "name": "orderValues",
          "type": "uint256[6]"
        },
        {
          "name": "fillTakerTokenAmount",
          "type": "uint256"
        },
        {
          "name": "stableOrSufficient",
          "type": "bool"
        },
        {
          "name": "v",
          "type": "uint8"
        },
        {
          "name": "signature",
          "type": "bytes32[2]"
        }
      ],
      "name": "placeOrderExchange",
      "outputs": [],
      "payable": false,
      "stateMutability": "nonpayable",
      "type": "function"
    },
    {
      "constant": false,
      "inputs": [
        {
          "name": "_exchange",
          "type": "address"
        },
        {
          "name": "orderAddresses",
          "type": "address[5]"
        },
        {
          "name": "orderValues",
          "type": "uint256[6]"
        },
        {
          "name": "fillTakerTokenAmount",
          "type": "uint256"
        },
        {
          "name": "stableOrSufficient",
          "type": "bool"
        },
        {
          "name": "v",
          "type": "uint8"
        },
        {
          "name": "signature",
          "type": "bytes32[2]"
        }
      ],
      "name": "placeTradeExchange",
      "outputs": [],
      "payable": false,
      "stateMutability": "nonpayable",
      "type": "function"
    },
    {
      "constant": false,
      "inputs": [
        {
          "name": "_exchange",
          "type": "address"
        },
        {
          "name": "orderAddresses",
          "type": "address[5]"
        },
        {
          "name": "orderValues",
          "type": "uint256[6]"
        },
        {
          "name": "cancelTakerTokenAmount",
          "type": "uint256"
        }
      ],
      "name": "cancelOrderExchange",
      "outputs": [],
      "payable": false,
      "stateMutability": "nonpayable",
      "type": "function"
    },
    {
      "constant": false,
      "inputs": [
        {
          "name": "_exchange",
          "type": "address"
        },
        {
          "name": "orderAddresses",
          "type": "address[5]"
        },
        {
          "name": "orderValues",
          "type": "uint256[6]"
        },
        {
          "name": "cancelTakerTokenAmount",
          "type": "uint256"
        }
      ],
      "name": "finalizeDeal",
      "outputs": [],
      "payable": false,
      "stateMutability": "nonpayable",
      "type": "function"
    },
    {
      "constant": true,
      "inputs": [
        {
          "name": "token",
          "type": "address"
        },
        {
          "name": "user",
          "type": "address"
        }
      ],
      "name": "balanceOf",
      "outputs": [
        {
          "name": "",
          "type": "uint256"
        }
      ],
      "payable": false,
      "stateMutability": "view",
      "type": "function"
    },
    {
      "constant": true,
      "inputs": [
        {
          "name": "_who",
          "type": "address"
        }
      ],
      "name": "balanceOf",
      "outputs": [
        {
          "name": "",
          "type": "uint256"
        }
      ],
      "payable": false,
      "stateMutability": "view",
      "type": "function"
    },
    {
      "constant": true,
      "inputs": [
        {
          "name": "_who",
          "type": "address"
        }
      ],
      "name": "marginOf",
      "outputs": [
        {
          "name": "",
          "type": "uint256"
        }
      ],
      "payable": false,
      "stateMutability": "view",
      "type": "function"
    },
    {
      "constant": true,
      "inputs": [
        {
          "name": "tokenGet",
          "type": "address"
        },
        {
          "name": "amountGet",
          "type": "uint256"
        },
        {
          "name": "tokenGive",
          "type": "address"
        },
        {
          "name": "amountGive",
          "type": "uint256"
        },
        {
          "name": "expires",
          "type": "uint256"
        },
        {
          "name": "user",
          "type": "address"
        }
      ],
      "name": "availableVolume",
      "outputs": [
        {
          "name": "",
          "type": "uint256"
        }
      ],
      "payable": false,
      "stateMutability": "view",
      "type": "function"
    },
    {
      "constant": true,
      "inputs": [
        {
          "name": "tokenGet",
          "type": "address"
        },
        {
          "name": "amountGet",
          "type": "uint256"
        },
        {
          "name": "tokenGive",
          "type": "address"
        },
        {
          "name": "amountGive",
          "type": "uint256"
        },
        {
          "name": "expires",
          "type": "uint256"
        },
        {
          "name": "user",
          "type": "address"
        }
      ],
      "name": "amountFilled",
      "outputs": [
        {
          "name": "",
          "type": "uint256"
        }
      ],
      "payable": false,
      "stateMutability": "view",
      "type": "function"
    },
    {
      "constant": true,
      "inputs": [],
      "name": "getLastOrderId",
      "outputs": [
        {
          "name": "",
          "type": "uint256"
        }
      ],
      "payable": false,
      "stateMutability": "view",
      "type": "function"
    },
    {
      "constant": true,
      "inputs": [
        {
          "name": "id",
          "type": "uint256"
        }
      ],
      "name": "isActive",
      "outputs": [
        {
          "name": "",
          "type": "bool"
        }
      ],
      "payable": false,
      "stateMutability": "view",
      "type": "function"
    },
    {
      "constant": true,
      "inputs": [
        {
          "name": "id",
          "type": "uint256"
        }
      ],
      "name": "getOwner",
      "outputs": [
        {
          "name": "",
          "type": "address"
        }
      ],
      "payable": false,
      "stateMutability": "view",
      "type": "function"
    },
    {
      "constant": true,
      "inputs": [
        {
          "name": "id",
          "type": "uint256"
        }
      ],
      "name": "getOrder",
      "outputs": [
        {
          "name": "",
          "type": "uint256"
        },
        {
          "name": "",
          "type": "address"
        },
        {
          "name": "",
          "type": "uint256"
        },
        {
          "name": "",
          "type": "address"
        }
      ],
      "payable": false,
      "stateMutability": "view",
      "type": "function"
    }
  ],
  "bytecode": "0x6060604052341561000f57600080fd5b61077d8061001e6000396000f3006060604052600436106100db576000357c0100000000000000000000000000000000000000000000000000000000900463ffffffff168063176fed56146100e057806364fbe9491461013057806368a525091461019157806370a08231146101ba57806382afd23b14610207578063900f75be146102425780639bda8e5e14610292578063a23270b2146102f3578063bf52f1cf14610340578063c41a360a146103e6578063d09ef24114610449578063da462753146104ed578063dc4b49ad1461055b578063ec992052146105c9578063f7888aec1461066f575b600080fd5b34156100eb57600080fd5b61012e600480803573ffffffffffffffffffffffffffffffffffffffff16906020019091908060a0019091908060c00190919080359060200190919050506106db565b005b341561013b57600080fd5b61018f600480803573ffffffffffffffffffffffffffffffffffffffff1690602001909190803573ffffffffffffffffffffffffffffffffffffffff169060200190919080359060200190919050506106e1565b005b341561019c57600080fd5b6101a46106e6565b6040518082815260200191505060405180910390f35b34156101c557600080fd5b6101f1600480803573ffffffffffffffffffffffffffffffffffffffff169060200190919050506106eb565b6040518082815260200191505060405180910390f35b341561021257600080fd5b61022860048080359060200190919050506106f2565b604051808215151515815260200191505060405180910390f35b341561024d57600080fd5b610290600480803573ffffffffffffffffffffffffffffffffffffffff16906020019091908060a0019091908060c00190919080359060200190919050506106f9565b005b341561029d57600080fd5b6102f1600480803573ffffffffffffffffffffffffffffffffffffffff1690602001909190803573ffffffffffffffffffffffffffffffffffffffff169060200190919080359060200190919050506106ff565b005b34156102fe57600080fd5b61032a600480803573ffffffffffffffffffffffffffffffffffffffff16906020019091905050610704565b6040518082815260200191505060405180910390f35b341561034b57600080fd5b6103d0600480803573ffffffffffffffffffffffffffffffffffffffff1690602001909190803590602001909190803573ffffffffffffffffffffffffffffffffffffffff1690602001909190803590602001909190803590602001909190803573ffffffffffffffffffffffffffffffffffffffff1690602001909190505061070b565b6040518082815260200191505060405180910390f35b34156103f157600080fd5b6104076004808035906020019091905050610717565b604051808273ffffffffffffffffffffffffffffffffffffffff1673ffffffffffffffffffffffffffffffffffffffff16815260200191505060405180910390f35b341561045457600080fd5b61046a600480803590602001909190505061071e565b604051808581526020018473ffffffffffffffffffffffffffffffffffffffff1673ffffffffffffffffffffffffffffffffffffffff1681526020018381526020018273ffffffffffffffffffffffffffffffffffffffff1673ffffffffffffffffffffffffffffffffffffffff16815260200194505050505060405180910390f35b34156104f857600080fd5b610559600480803573ffffffffffffffffffffffffffffffffffffffff16906020019091908060a0019091908060c0019091908035906020019091908035151590602001909190803560ff169060200190919080604001909190505061072b565b005b341561056657600080fd5b6105c7600480803573ffffffffffffffffffffffffffffffffffffffff16906020019091908060a0019091908060c0019091908035906020019091908035151590602001909190803560ff1690602001909190806040019091905050610734565b005b34156105d457600080fd5b610659600480803573ffffffffffffffffffffffffffffffffffffffff1690602001909190803590602001909190803573ffffffffffffffffffffffffffffffffffffffff1690602001909190803590602001909190803590602001909190803573ffffffffffffffffffffffffffffffffffffffff1690602001909190505061073d565b6040518082815260200191505060405180910390f35b341561067a57600080fd5b6106c5600480803573ffffffffffffffffffffffffffffffffffffffff1690602001909190803573ffffffffffffffffffffffffffffffffffffffff16906020019091905050610749565b6040518082815260200191505060405180910390f35b50505050565b505050565b600090565b6000919050565b6000919050565b50505050565b505050565b6000919050565b60009695505050505050565b6000919050565b6000806000809193509193565b50505050505050565b50505050505050565b60009695505050505050565b6000929150505600a165627a7a72305820de7296913cc609197f5e58f9328cbf3e85f0d4a25c618582ac3cd1858744caaa0029",
  "source": "/*\n\n Copyright 2017-2018 RigoBlock, Rigo Investment Sagl.\n\n Licensed under the Apache License, Version 2.0 (the \"License\");\n you may not use this file except in compliance with the License.\n You may obtain a copy of the License at\n\n     http://www.apache.org/licenses/LICENSE-2.0\n\n Unless required by applicable law or agreed to in writing, software\n distributed under the License is distributed on an \"AS IS\" BASIS,\n WITHOUT WARRANTIES OR CONDITIONS OF ANY KIND, either express or implied.\n See the License for the specific language governing permissions and\n limitations under the License.\n\n*/\n\npragma solidity ^0.4.19;\n\nimport { ERC20Face as ERC20 } from \"../utils/tokens/ERC20/ERC20Face.sol\";\n\n/// @title Exchange Adapter - Allows interaction with decentralized exchanges.\n/// @author Gabriele Rigo - <gab@rigoblock.com>\ncontract ExchangeAdapter {\n\n    // CORE FUNCTIONS\n\n    function depositToExchange(\n        address _exchange,\n        address _token,\n        uint _value)\n        external {}\n\n    function withdrawFromExchange(\n        address _exchange,\n        address _token,\n        uint _value)\n        external {}\n\n    function placeOrderExchange(\n        address _exchange,\n        address[5] orderAddresses,\n        uint[6] orderValues,\n        uint fillTakerTokenAmount,\n        bool stableOrSufficient,\n        uint8 v,\n        bytes32[2] signature)\n        external {}\n\n    function placeTradeExchange(\n        address _exchange,\n        address[5] orderAddresses,\n        uint[6] orderValues,\n        uint fillTakerTokenAmount,\n        bool stableOrSufficient,\n        uint8 v,\n        bytes32[2] signature)\n        external {}\n\n    function cancelOrderExchange(\n        address _exchange,\n        address[5] orderAddresses,\n        uint[6] orderValues,\n        uint cancelTakerTokenAmount)\n        external {}\n\n    function finalizeDeal(\n        address _exchange,\n        address[5] orderAddresses,\n        uint[6] orderValues,\n        uint cancelTakerTokenAmount)\n        external {}\n\n    // CONSTANT PUBLIC FUNCTIONS\n\n    /// @notice the below functions have to be checked\n    /// @notice they are read functions from the exchange, could be queried directly\n    function balanceOf(address token, address user) public constant returns (uint) {}\n    function balanceOf(address _who) public constant returns (uint) {}\n    function marginOf(address _who) public constant returns (uint) {}\n    function availableVolume(address tokenGet, uint amountGet, address tokenGive, uint amountGive, uint expires, address user) public constant returns(uint) {}\n    function amountFilled(address tokenGet, uint amountGet, address tokenGive, uint amountGive, uint expires, address user) public constant returns(uint) {}\n    function getLastOrderId() public constant returns (uint) {}\n    function isActive(uint id) public constant returns (bool) {}\n    function getOwner(uint id) public constant returns (address) {}\n    function getOrder(uint id) public constant returns (uint, ERC20, uint, ERC20) {}\n}\n",
  "sourcePath": "/home/gab/truffle/contracts/contracts/ExchangeAdapters/ExchangeAdapterFace.sol",
  "compiler": {
    "name": "solc",
    "version": "0.4.19+commit.c4cbbb05.Emscripten.clang"
  },
  "schemaVersion": "2.0.0",
  "updatedAt": "2018-03-05T01:35:43.725Z"
}