{
  "contractName": "InflationFace",
  "abi": [
    {
      "constant": false,
      "inputs": [
        {
          "name": "_thePool",
          "type": "address"
        },
        {
          "name": "_reward",
          "type": "uint256"
        }
      ],
      "name": "mintInflation",
      "outputs": [
        {
          "name": "",
          "type": "bool"
        }
      ],
      "payable": false,
      "stateMutability": "nonpayable",
      "type": "function"
    },
    {
      "constant": false,
      "inputs": [
        {
          "name": "_group",
          "type": "address"
        },
        {
          "name": "_inflationFactor",
          "type": "uint256"
        }
      ],
      "name": "setInflationFactor",
      "outputs": [],
      "payable": false,
      "stateMutability": "nonpayable",
      "type": "function"
    },
    {
      "constant": false,
      "inputs": [
        {
          "name": "_minimum",
          "type": "uint256"
        }
      ],
      "name": "setMinimumRigo",
      "outputs": [],
      "payable": false,
      "stateMutability": "nonpayable",
      "type": "function"
    },
    {
      "constant": false,
      "inputs": [
        {
          "name": "_newRigoblock",
          "type": "address"
        }
      ],
      "name": "setRigoblock",
      "outputs": [],
      "payable": false,
      "stateMutability": "nonpayable",
      "type": "function"
    },
    {
      "constant": false,
      "inputs": [
        {
          "name": "_authority",
          "type": "address"
        }
      ],
      "name": "setAuthority",
      "outputs": [],
      "payable": false,
      "stateMutability": "nonpayable",
      "type": "function"
    },
    {
      "constant": false,
      "inputs": [
        {
          "name": "_newPeriod",
          "type": "uint256"
        }
      ],
      "name": "setPeriod",
      "outputs": [],
      "payable": false,
      "stateMutability": "nonpayable",
      "type": "function"
    },
    {
      "constant": true,
      "inputs": [
        {
          "name": "_thePool",
          "type": "address"
        }
      ],
      "name": "canWithdraw",
      "outputs": [
        {
          "name": "",
          "type": "bool"
        }
      ],
      "payable": false,
      "stateMutability": "view",
      "type": "function"
    },
    {
      "constant": true,
      "inputs": [
        {
          "name": "_group",
          "type": "address"
        }
      ],
      "name": "getInflationFactor",
      "outputs": [
        {
          "name": "",
          "type": "uint256"
        }
      ],
      "payable": false,
      "stateMutability": "view",
      "type": "function"
    }
  ],
  "bytecode": "0x6060604052341561000f57600080fd5b6102d78061001e6000396000f30060606040526004361061008e576000357c0100000000000000000000000000000000000000000000000000000000900463ffffffff168063020e0cdb146100935780630f3a9f65146100d557806319262d30146100f857806374bab550146101495780637802815c1461016c5780637a9e5e4b146101a5578063be5ddb99146101de578063d410e0c214610238575b600080fd5b341561009e57600080fd5b6100d3600480803573ffffffffffffffffffffffffffffffffffffffff16906020019091908035906020019091905050610285565b005b34156100e057600080fd5b6100f66004808035906020019091905050610289565b005b341561010357600080fd5b61012f600480803573ffffffffffffffffffffffffffffffffffffffff1690602001909190505061028c565b604051808215151515815260200191505060405180910390f35b341561015457600080fd5b61016a6004808035906020019091905050610293565b005b341561017757600080fd5b6101a3600480803573ffffffffffffffffffffffffffffffffffffffff16906020019091905050610296565b005b34156101b057600080fd5b6101dc600480803573ffffffffffffffffffffffffffffffffffffffff16906020019091905050610299565b005b34156101e957600080fd5b61021e600480803573ffffffffffffffffffffffffffffffffffffffff1690602001909190803590602001909190505061029c565b604051808215151515815260200191505060405180910390f35b341561024357600080fd5b61026f600480803573ffffffffffffffffffffffffffffffffffffffff169060200190919050506102a4565b6040518082815260200191505060405180910390f35b5050565b50565b6000919050565b50565b50565b50565b600092915050565b60009190505600a165627a7a723058206fab19793973c9a4ee9a3b7da493666ac645e4cae0f627401e9f0ff5d3ec55d30029",
  "source": "/*\n\n Copyright 2017-2018 RigoBlock, Rigo Investment Sagl.\n\n Licensed under the Apache License, Version 2.0 (the \"License\");\n you may not use this file except in compliance with the License.\n You may obtain a copy of the License at\n\n     http://www.apache.org/licenses/LICENSE-2.0\n\n Unless required by applicable law or agreed to in writing, software\n distributed under the License is distributed on an \"AS IS\" BASIS,\n WITHOUT WARRANTIES OR CONDITIONS OF ANY KIND, either express or implied.\n See the License for the specific language governing permissions and\n limitations under the License.\n\n*/\n\npragma solidity ^0.4.19;\n\n/// @title Inflation Interface - Allows interaction with the Inflation contract.\n/// @author Gabriele Rigo - <gab@rigoblock.com>\ncontract InflationFace {\n\n    // CORE FUNCTIONS\n\n    function mintInflation(address _thePool, uint _reward) external returns (bool) {}\n    function setInflationFactor(address _group, uint _inflationFactor) public {}\n    function setMinimumRigo(uint _minimum) public {}\n    function setRigoblock(address _newRigoblock) public {}\n    function setAuthority(address _authority) public {}\n    function setPeriod(uint _newPeriod) public {}\n\n    // CONSTANT PUBLIC FUNCTIONS\n\n    function canWithdraw(address _thePool) public constant returns (bool) {}\n    function getInflationFactor(address _group) public constant returns (uint) {}\n}\n",
  "sourcePath": "/home/gab/truffle/contracts/contracts/RigoToken/Inflation/InflationFace.sol",
  "compiler": {
    "name": "solc",
    "version": "0.4.19+commit.c4cbbb05.Emscripten.clang"
  },
  "schemaVersion": "2.0.0",
  "updatedAt": "2018-03-05T01:35:43.763Z"
}