{
  "contractName": "Inflation",
  "abi": [
    {
      "constant": true,
      "inputs": [],
      "name": "rigoblockDao",
      "outputs": [
        {
          "name": "",
          "type": "address"
        }
      ],
      "payable": false,
      "stateMutability": "view",
      "type": "function"
    },
    {
      "constant": true,
      "inputs": [],
      "name": "RIGOTOKENADDRESS",
      "outputs": [
        {
          "name": "",
          "type": "address"
        }
      ],
      "payable": false,
      "stateMutability": "view",
      "type": "function"
    },
    {
      "constant": true,
      "inputs": [],
      "name": "authority",
      "outputs": [
        {
          "name": "",
          "type": "address"
        }
      ],
      "payable": false,
      "stateMutability": "view",
      "type": "function"
    },
    {
      "constant": true,
      "inputs": [],
      "name": "proofOfPerformance",
      "outputs": [
        {
          "name": "",
          "type": "address"
        }
      ],
      "payable": false,
      "stateMutability": "view",
      "type": "function"
    },
    {
      "constant": true,
      "inputs": [],
      "name": "period",
      "outputs": [
        {
          "name": "",
          "type": "uint256"
        }
      ],
      "payable": false,
      "stateMutability": "view",
      "type": "function"
    },
    {
      "inputs": [
        {
          "name": "_rigoTokenAddress",
          "type": "address"
        },
        {
          "name": "_proofOfPerformance",
          "type": "address"
        },
        {
          "name": "_authority",
          "type": "address"
        }
      ],
      "payable": false,
      "stateMutability": "nonpayable",
      "type": "constructor"
    },
    {
      "constant": false,
      "inputs": [
        {
          "name": "_thePool",
          "type": "address"
        },
        {
          "name": "_reward",
          "type": "uint256"
        }
      ],
      "name": "mintInflation",
      "outputs": [
        {
          "name": "",
          "type": "bool"
        }
      ],
      "payable": false,
      "stateMutability": "nonpayable",
      "type": "function"
    },
    {
      "constant": false,
      "inputs": [
        {
          "name": "_group",
          "type": "address"
        },
        {
          "name": "_inflationFactor",
          "type": "uint256"
        }
      ],
      "name": "setInflationFactor",
      "outputs": [],
      "payable": false,
      "stateMutability": "nonpayable",
      "type": "function"
    },
    {
      "constant": false,
      "inputs": [
        {
          "name": "_minimum",
          "type": "uint256"
        }
      ],
      "name": "setMinimumRigo",
      "outputs": [],
      "payable": false,
      "stateMutability": "nonpayable",
      "type": "function"
    },
    {
      "constant": false,
      "inputs": [
        {
          "name": "_newRigoblock",
          "type": "address"
        }
      ],
      "name": "setRigoblock",
      "outputs": [],
      "payable": false,
      "stateMutability": "nonpayable",
      "type": "function"
    },
    {
      "constant": false,
      "inputs": [
        {
          "name": "_authority",
          "type": "address"
        }
      ],
      "name": "setAuthority",
      "outputs": [],
      "payable": false,
      "stateMutability": "nonpayable",
      "type": "function"
    },
    {
      "constant": false,
      "inputs": [
        {
          "name": "_pop",
          "type": "address"
        }
      ],
      "name": "setProofOfPerformance",
      "outputs": [],
      "payable": false,
      "stateMutability": "nonpayable",
      "type": "function"
    },
    {
      "constant": false,
      "inputs": [
        {
          "name": "_newPeriod",
          "type": "uint256"
        }
      ],
      "name": "setPeriod",
      "outputs": [],
      "payable": false,
      "stateMutability": "nonpayable",
      "type": "function"
    },
    {
      "constant": true,
      "inputs": [
        {
          "name": "_thePool",
          "type": "address"
        }
      ],
      "name": "canWithdraw",
      "outputs": [
        {
          "name": "",
          "type": "bool"
        }
      ],
      "payable": false,
      "stateMutability": "view",
      "type": "function"
    },
    {
      "constant": true,
      "inputs": [
        {
          "name": "_group",
          "type": "address"
        }
      ],
      "name": "getInflationFactor",
      "outputs": [
        {
          "name": "",
          "type": "uint256"
        }
      ],
      "payable": false,
      "stateMutability": "view",
      "type": "function"
    }
  ],
  "bytecode": "0x6060604052626ebe00600155341561001657600080fd5b60405160608061112e83398101604052808051906020019091908051906020019091908051906020019091905050826000806101000a81548173ffffffffffffffffffffffffffffffffffffffff021916908373ffffffffffffffffffffffffffffffffffffffff16021790555033600560006101000a81548173ffffffffffffffffffffffffffffffffffffffff021916908373ffffffffffffffffffffffffffffffffffffffff16021790555081600360006101000a81548173ffffffffffffffffffffffffffffffffffffffff021916908373ffffffffffffffffffffffffffffffffffffffff16021790555080600460006101000a81548173ffffffffffffffffffffffffffffffffffffffff021916908373ffffffffffffffffffffffffffffffffffffffff160217905550505050610fd5806101596000396000f3006060604052600436106100d0576000357c0100000000000000000000000000000000000000000000000000000000900463ffffffff168063020e0cdb146100d55780630f3a9f651461011757806319262d301461013a5780633edd80c31461018b57806374bab550146101e05780637802815c146102035780637a9e5e4b1461023c578063a6c9c44314610275578063be5ddb99146102ca578063bf7e214f14610324578063d410e0c214610379578063d9ed29aa146103c6578063e70eadc0146103ff578063ef78d4fd14610454575b600080fd5b34156100e057600080fd5b610115600480803573ffffffffffffffffffffffffffffffffffffffff1690602001909190803590602001909190505061047d565b005b341561012257600080fd5b6101386004808035906020019091905050610617565b005b341561014557600080fd5b610171600480803573ffffffffffffffffffffffffffffffffffffffff1690602001909190505061067d565b604051808215151515815260200191505060405180910390f35b341561019657600080fd5b61019e6106da565b604051808273ffffffffffffffffffffffffffffffffffffffff1673ffffffffffffffffffffffffffffffffffffffff16815260200191505060405180910390f35b34156101eb57600080fd5b6102016004808035906020019091905050610700565b005b341561020e57600080fd5b61023a600480803573ffffffffffffffffffffffffffffffffffffffff16906020019091905050610766565b005b341561024757600080fd5b610273600480803573ffffffffffffffffffffffffffffffffffffffff16906020019091905050610806565b005b341561028057600080fd5b6102886108a6565b604051808273ffffffffffffffffffffffffffffffffffffffff1673ffffffffffffffffffffffffffffffffffffffff16815260200191505060405180910390f35b34156102d557600080fd5b61030a600480803573ffffffffffffffffffffffffffffffffffffffff169060200190919080359060200190919050506108cb565b604051808215151515815260200191505060405180910390f35b341561032f57600080fd5b610337610e52565b604051808273ffffffffffffffffffffffffffffffffffffffff1673ffffffffffffffffffffffffffffffffffffffff16815260200191505060405180910390f35b341561038457600080fd5b6103b0600480803573ffffffffffffffffffffffffffffffffffffffff16906020019091905050610e78565b6040518082815260200191505060405180910390f35b34156103d157600080fd5b6103fd600480803573ffffffffffffffffffffffffffffffffffffffff16906020019091905050610ec4565b005b341561040a57600080fd5b610412610f64565b604051808273ffffffffffffffffffffffffffffffffffffffff1673ffffffffffffffffffffffffffffffffffffffff16815260200191505060405180910390f35b341561045f57600080fd5b610467610f8a565b6040518082815260200191505060405180910390f35b600560009054906101000a900473ffffffffffffffffffffffffffffffffffffffff1673ffffffffffffffffffffffffffffffffffffffff163373ffffffffffffffffffffffffffffffffffffffff161415156104d957600080fd5b816000600460009054906101000a900473ffffffffffffffffffffffffffffffffffffffff1690508073ffffffffffffffffffffffffffffffffffffffff1663dcb7a3e0836000604051602001526040518263ffffffff167c0100000000000000000000000000000000000000000000000000000000028152600401808273ffffffffffffffffffffffffffffffffffffffff1673ffffffffffffffffffffffffffffffffffffffff168152602001915050602060405180830381600087803b15156105a457600080fd5b6102c65a03f115156105b557600080fd5b5050506040518051905015156105ca57600080fd5b82600760008673ffffffffffffffffffffffffffffffffffffffff1673ffffffffffffffffffffffffffffffffffffffff1681526020019081526020016000206000018190555050505050565b600560009054906101000a900473ffffffffffffffffffffffffffffffffffffffff1673ffffffffffffffffffffffffffffffffffffffff163373ffffffffffffffffffffffffffffffffffffffff1614151561067357600080fd5b8060018190555050565b6000600660008373ffffffffffffffffffffffffffffffffffffffff1673ffffffffffffffffffffffffffffffffffffffff168152602001908152602001600020600301544210156106d05760006106d3565b60015b9050919050565b600560009054906101000a900473ffffffffffffffffffffffffffffffffffffffff1681565b600560009054906101000a900473ffffffffffffffffffffffffffffffffffffffff1673ffffffffffffffffffffffffffffffffffffffff163373ffffffffffffffffffffffffffffffffffffffff1614151561075c57600080fd5b8060028190555050565b600560009054906101000a900473ffffffffffffffffffffffffffffffffffffffff1673ffffffffffffffffffffffffffffffffffffffff163373ffffffffffffffffffffffffffffffffffffffff161415156107c257600080fd5b80600560006101000a81548173ffffffffffffffffffffffffffffffffffffffff021916908373ffffffffffffffffffffffffffffffffffffffff16021790555050565b600560009054906101000a900473ffffffffffffffffffffffffffffffffffffffff1673ffffffffffffffffffffffffffffffffffffffff163373ffffffffffffffffffffffffffffffffffffffff1614151561086257600080fd5b80600460006101000a81548173ffffffffffffffffffffffffffffffffffffffff021916908373ffffffffffffffffffffffffffffffffffffffff16021790555050565b6000809054906101000a900473ffffffffffffffffffffffffffffffffffffffff1681565b600080600080600080600360009054906101000a900473ffffffffffffffffffffffffffffffffffffffff1673ffffffffffffffffffffffffffffffffffffffff163373ffffffffffffffffffffffffffffffffffffffff1614151561093057600080fd5b876000806000809054906101000a900473ffffffffffffffffffffffffffffffffffffffff1691508290506002548273ffffffffffffffffffffffffffffffffffffffff166370a082318373ffffffffffffffffffffffffffffffffffffffff1663893d20e86000604051602001526040518163ffffffff167c0100000000000000000000000000000000000000000000000000000000028152600401602060405180830381600087803b15156109e657600080fd5b6102c65a03f115156109f757600080fd5b505050604051805190506000604051602001526040518263ffffffff167c0100000000000000000000000000000000000000000000000000000000028152600401808273ffffffffffffffffffffffffffffffffffffffff1673ffffffffffffffffffffffffffffffffffffffff168152602001915050602060405180830381600087803b1515610a8757600080fd5b6102c65a03f11515610a9857600080fd5b5050506040518051905010151515610aaf57600080fd5b8a600660008273ffffffffffffffffffffffffffffffffffffffff1673ffffffffffffffffffffffffffffffffffffffff168152602001908152602001600020600301544210151515610b0157600080fd5b42600660008e73ffffffffffffffffffffffffffffffffffffffff1673ffffffffffffffffffffffffffffffffffffffff168152602001908152602001600020600201819055506001544201600660008e73ffffffffffffffffffffffffffffffffffffffff1673ffffffffffffffffffffffffffffffffffffffff16815260200190815260200160002060030181905550600660008d73ffffffffffffffffffffffffffffffffffffffff1673ffffffffffffffffffffffffffffffffffffffff16815260200190815260200160002060040160008154600101919050819055506064605f8c02811515610bf257fe5b049850610bff8b8a610f90565b97508b96508673ffffffffffffffffffffffffffffffffffffffff1663893d20e86000604051602001526040518163ffffffff167c0100000000000000000000000000000000000000000000000000000000028152600401602060405180830381600087803b1515610c7057600080fd5b6102c65a03f11515610c8157600080fd5b5050506040518051905095506000809054906101000a900473ffffffffffffffffffffffffffffffffffffffff1694508473ffffffffffffffffffffffffffffffffffffffff166379c65068878b6040518363ffffffff167c0100000000000000000000000000000000000000000000000000000000028152600401808373ffffffffffffffffffffffffffffffffffffffff1673ffffffffffffffffffffffffffffffffffffffff16815260200182815260200192505050600060405180830381600087803b1515610d5357600080fd5b6102c65a03f11515610d6457600080fd5b5050508473ffffffffffffffffffffffffffffffffffffffff166379c65068600560009054906101000a900473ffffffffffffffffffffffffffffffffffffffff168a6040518363ffffffff167c0100000000000000000000000000000000000000000000000000000000028152600401808373ffffffffffffffffffffffffffffffffffffffff1673ffffffffffffffffffffffffffffffffffffffff16815260200182815260200192505050600060405180830381600087803b1515610e2b57600080fd5b6102c65a03f11515610e3c57600080fd5b5050506001995050505050505050505092915050565b600460009054906101000a900473ffffffffffffffffffffffffffffffffffffffff1681565b6000600760008373ffffffffffffffffffffffffffffffffffffffff1673ffffffffffffffffffffffffffffffffffffffff168152602001908152602001600020600001549050919050565b600560009054906101000a900473ffffffffffffffffffffffffffffffffffffffff1673ffffffffffffffffffffffffffffffffffffffff163373ffffffffffffffffffffffffffffffffffffffff16141515610f2057600080fd5b80600360006101000a81548173ffffffffffffffffffffffffffffffffffffffff021916908373ffffffffffffffffffffffffffffffffffffffff16021790555050565b600360009054906101000a900473ffffffffffffffffffffffffffffffffffffffff1681565b60015481565b6000828211151515610f9e57fe5b8183039050929150505600a165627a7a723058204a3ad7b227cb6602f39a257cf2012ccf66d215ba33f06fdb52a8a01e658b1aa20029",
  "source": "/*\n\n Copyright 2017-2018 RigoBlock, Rigo Investment Sagl.\n\n Licensed under the Apache License, Version 2.0 (the \"License\");\n you may not use this file except in compliance with the License.\n You may obtain a copy of the License at\n\n     http://www.apache.org/licenses/LICENSE-2.0\n\n Unless required by applicable law or agreed to in writing, software\n distributed under the License is distributed on an \"AS IS\" BASIS,\n WITHOUT WARRANTIES OR CONDITIONS OF ANY KIND, either express or implied.\n See the License for the specific language governing permissions and\n limitations under the License.\n\n*/\n\npragma solidity ^0.4.19;\n\nimport { PoolFace as Pool } from \"../../Pool/PoolFace.sol\";\nimport { RigoToken } from \"../RigoToken/RigoToken.sol\";\nimport { AuthorityFace as Authority } from \"../../Authority/AuthorityFace.sol\";\n\nimport { SafeMath } from \"../../utils/SafeMath/SafeMath.sol\";\nimport { InflationFace } from \"./InflationFace.sol\";\n\n/// @title Inflation - Allows ProofOfPerformance to mint tokens.\n/// @author Gabriele Rigo - <gab@rigoblock.com>\ncontract Inflation is SafeMath, InflationFace {\n\n    address public RIGOTOKENADDRESS;\n\n    uint public period = 12 weeks; //inflation tokens can be minted every 3 months\n    uint minimumRigo;\n    address public proofOfPerformance;\n    address public authority;\n    address public rigoblockDao;\n\n    mapping(address => Performer) performers;\n    mapping(address => Group) groups;\n\n    struct Performer {\n        uint claimedTokens;\n        mapping(uint => bool) claim;\n        uint startTime;\n        uint endTime;\n        uint epoch;\n    }\n\n    struct Group {\n        uint epochReward;\n    }\n\n    /// @notice in order to qualify for PoP user has to told minimum rigo token\n    modifier minimum_rigoblock(address _ofPool) {\n        RigoToken rigoToken = RigoToken(RIGOTOKENADDRESS);\n        Pool pool = Pool(_ofPool);\n        require(rigoToken.balanceOf(pool.getOwner()) >= minimumRigo);\n        _;\n    }\n\n    modifier only_rigoblock_dao {\n        require(msg.sender == rigoblockDao);\n        _;\n    }\n\n    modifier only_proof_of_performance {\n        require(msg.sender == proofOfPerformance);\n        _;\n    }\n\n    modifier is_approved_factory(address _factory) {\n        Authority auth = Authority(authority);\n        require(auth.isWhitelistedFactory(_factory));\n        _;\n    }\n\n    modifier time_at_least(address _thePool) {\n        require(now >= performers[_thePool].endTime); _;\n    }\n\n    function Inflation(\n        address _rigoTokenAddress,\n        address _proofOfPerformance,\n        address _authority)\n        public\n    {\n        RIGOTOKENADDRESS = _rigoTokenAddress;\n        rigoblockDao = msg.sender;\n        proofOfPerformance = _proofOfPerformance;\n        authority = _authority;\n    }\n\n    // CORE FUNCTIONS\n\n    /// @dev Allows ProofOfPerformance to mint rewards\n    /// @param _thePool Address of the target pool\n    /// @param _reward Number of reward in Rigo tokens\n    /// @return Bool the transaction executed correctly\n    function mintInflation(address _thePool, uint _reward)\n        external\n        only_proof_of_performance\n        minimum_rigoblock(_thePool)\n        time_at_least(_thePool)\n        returns (bool)\n    {\n        performers[_thePool].startTime = now;\n        performers[_thePool].endTime = now + period;\n        ++performers[_thePool].epoch;\n        uint reward = _reward * 95 / 100; //5% royalty to rigoblock\n        uint rigoblockReward = safeSub(_reward, reward);\n        Pool pool = Pool(_thePool);\n        address poolOwner = pool.getOwner();\n        RigoToken rigoToken = RigoToken(RIGOTOKENADDRESS);\n        rigoToken.mintToken(poolOwner, reward);\n        rigoToken.mintToken(rigoblockDao, rigoblockReward);\n        return true;\n    }\n\n    /// @dev Allows rigoblock dao to set the inflation factor for a group\n    /// @param _group Address of the group/factory\n    /// @param _inflationFactor Value of the reward factor\n    function setInflationFactor(address _group, uint _inflationFactor)\n        public\n        only_rigoblock_dao\n        is_approved_factory(_group)\n    {\n        groups[_group].epochReward = _inflationFactor;\n    }\n\n    /// @dev Allows rigoblock dao to set the minimum number of required tokens\n    /// @param _minimum Number of minimum tokens\n    function setMinimumRigo(uint _minimum) public only_rigoblock_dao {\n        minimumRigo = _minimum;\n    }\n\n    /// @dev Allows rigoblock dao to upgrade its address\n    /// @param _newRigoblock Address of the new rigoblock dao\n    function setRigoblock(address _newRigoblock) public only_rigoblock_dao {\n        rigoblockDao = _newRigoblock;\n    }\n\n    /// @dev Allows rigoblock dao to update the authority\n    /// @param _authority Address of the authority\n    function setAuthority(address _authority) public only_rigoblock_dao {\n        authority = _authority;\n    }\n\n    /// @dev Allows rigoblock dao to update proof of performance\n    /// @param _pop Address of the Proof of Performance contract\n    function setProofOfPerformance(address _pop) public only_rigoblock_dao {\n        proofOfPerformance = _pop;\n    }\n\n    /// @dev Allows rigoblock dao to set the minimum time between reward collection\n    /// @param _newPeriod Number of blocks from 2 rewards\n    /// @notice set period on shorter subsets of time for testing\n    function setPeriod(uint _newPeriod) public only_rigoblock_dao {\n        period = _newPeriod;\n    }\n\n    // CONSTANT PUBLIC FUNCTIONS\n\n    /// @dev Returns whether a wizard can claim reward tokens\n    /// @param _thePool Address of the target pool\n    /// @return Bool the wizard can claim\n    function canWithdraw(address _thePool) public constant returns (bool) {\n        return (now >= performers[_thePool].endTime ? true : false);\n    }\n\n    /// @dev Return the reward factor for a group\n    /// @param _group Address of the group\n    /// @return Value of the reward factor\n    function getInflationFactor(address _group) public constant returns (uint) {\n        return groups[_group].epochReward;\n    }\n}\n",
  "sourcePath": "/home/gab/truffle/contracts/contracts/RigoToken/Inflation/Inflation.sol",
  "compiler": {
    "name": "solc",
    "version": "0.4.19+commit.c4cbbb05.Emscripten.clang"
  },
  "schemaVersion": "2.0.0",
  "updatedAt": "2018-03-05T01:35:43.753Z"
}