{
  "contractName": "Owned",
  "abi": [
    {
      "constant": true,
      "inputs": [],
      "name": "owner",
      "outputs": [
        {
          "name": "",
          "type": "address"
        }
      ],
      "payable": false,
      "stateMutability": "view",
      "type": "function"
    },
    {
      "inputs": [],
      "payable": false,
      "stateMutability": "nonpayable",
      "type": "constructor"
    },
    {
      "anonymous": false,
      "inputs": [
        {
          "indexed": true,
          "name": "old",
          "type": "address"
        },
        {
          "indexed": true,
          "name": "current",
          "type": "address"
        }
      ],
      "name": "NewOwner",
      "type": "event"
    },
    {
      "constant": false,
      "inputs": [
        {
          "name": "_new",
          "type": "address"
        }
      ],
      "name": "setOwner",
      "outputs": [],
      "payable": false,
      "stateMutability": "nonpayable",
      "type": "function"
    },
    {
      "constant": true,
      "inputs": [],
      "name": "getOwner",
      "outputs": [
        {
          "name": "",
          "type": "address"
        }
      ],
      "payable": false,
      "stateMutability": "view",
      "type": "function"
    }
  ],
  "bytecode": "0x6060604052341561000f57600080fd5b60008054600160a060020a033316600160a060020a03199091161790556101d08061003b6000396000f3006060604052600436106100565763ffffffff7c010000000000000000000000000000000000000000000000000000000060003504166313af4035811461005b578063893d20e8146100895780638da5cb5b146100c5575b600080fd5b341561006657600080fd5b61008773ffffffffffffffffffffffffffffffffffffffff600435166100d8565b005b341561009457600080fd5b61009c61016c565b60405173ffffffffffffffffffffffffffffffffffffffff909116815260200160405180910390f35b34156100d057600080fd5b61009c610188565b6000543373ffffffffffffffffffffffffffffffffffffffff90811691161461010057600080fd5b6000805473ffffffffffffffffffffffffffffffffffffffff191673ffffffffffffffffffffffffffffffffffffffff838116918217928390559091167f70aea8d848e8a90fb7661b227dc522eb6395c3dac71b63cb59edd5c9899b236460405160405180910390a350565b60005473ffffffffffffffffffffffffffffffffffffffff1690565b60005473ffffffffffffffffffffffffffffffffffffffff16815600a165627a7a72305820dae58772e01274fe4620ef43721eee1d7d28696f5d349b27bb09f1d4258b2d120029",
  "source": "pragma solidity ^0.4.20;\n\n\ncontract Owned {\n\n    address public owner;\n\n    event NewOwner(address indexed old, address indexed current);\n\n    modifier onlyOwner {\n        require(msg.sender == owner);\n        _;\n    }\n\n    function Owned() public {\n        owner = msg.sender;\n    }\n\n    function setOwner(address _new) public onlyOwner {\n        owner = _new;\n        NewOwner(owner, _new);\n    }\n\n    function getOwner() public view returns (address) {\n        return owner;\n    }\n}\n",
  "sourcePath": "/home/gab/truffle/contracts/contracts/utils/Owned/Owned.sol",
  "compiler": {
    "name": "solc",
    "version": "0.4.19+commit.c4cbbb05.Emscripten.clang"
  },
  "schemaVersion": "2.0.0",
  "updatedAt": "2018-03-05T21:28:04.011Z"
}