{
  "contractName": "PoolFace",
  "abi": [
    {
      "constant": true,
      "inputs": [
        {
          "name": "_who",
          "type": "address"
        }
      ],
      "name": "balanceOf",
      "outputs": [
        {
          "name": "",
          "type": "uint256"
        }
      ],
      "payable": false,
      "stateMutability": "view",
      "type": "function"
    },
    {
      "constant": true,
      "inputs": [],
      "name": "totalSupply",
      "outputs": [
        {
          "name": "totaSupply",
          "type": "uint256"
        }
      ],
      "payable": false,
      "stateMutability": "view",
      "type": "function"
    },
    {
      "constant": true,
      "inputs": [],
      "name": "getEventful",
      "outputs": [
        {
          "name": "",
          "type": "address"
        }
      ],
      "payable": false,
      "stateMutability": "view",
      "type": "function"
    },
    {
      "constant": true,
      "inputs": [],
      "name": "getData",
      "outputs": [
        {
          "name": "name",
          "type": "string"
        },
        {
          "name": "symbol",
          "type": "string"
        },
        {
          "name": "sellPrice",
          "type": "uint256"
        },
        {
          "name": "buyPrice",
          "type": "uint256"
        }
      ],
      "payable": false,
      "stateMutability": "view",
      "type": "function"
    },
    {
      "constant": true,
      "inputs": [],
      "name": "getAdminData",
      "outputs": [
        {
          "name": "feeCollector",
          "type": "address"
        },
        {
          "name": "dragodAO",
          "type": "address"
        },
        {
          "name": "ratio",
          "type": "uint256"
        },
        {
          "name": "transactionFee",
          "type": "uint256"
        },
        {
          "name": "minPeriod",
          "type": "uint32"
        }
      ],
      "payable": false,
      "stateMutability": "view",
      "type": "function"
    },
    {
      "constant": true,
      "inputs": [],
      "name": "getOwner",
      "outputs": [
        {
          "name": "",
          "type": "address"
        }
      ],
      "payable": false,
      "stateMutability": "view",
      "type": "function"
    }
  ],
  "bytecode": "0x6060604052341561000f57600080fd5b6103cc8061001e6000396000f300606060405260043610610078576000357c0100000000000000000000000000000000000000000000000000000000900463ffffffff16806318160ddd1461007d5780633bc5de30146100a657806370a08231146101ae578063837929b6146101fb578063893d20e8146102505780638f7a844b146102a5575b600080fd5b341561008857600080fd5b61009061034e565b6040518082815260200191505060405180910390f35b34156100b157600080fd5b6100b9610353565b604051808060200180602001858152602001848152602001838103835287818151815260200191508051906020019080838360005b838110156101095780820151818401526020810190506100ee565b50505050905090810190601f1680156101365780820380516001836020036101000a031916815260200191505b50838103825286818151815260200191508051906020019080838360005b8381101561016f578082015181840152602081019050610154565b50505050905090810190601f16801561019c5780820380516001836020036101000a031916815260200191505b50965050505050505060405180910390f35b34156101b957600080fd5b6101e5600480803573ffffffffffffffffffffffffffffffffffffffff1690602001909190505061036c565b6040518082815260200191505060405180910390f35b341561020657600080fd5b61020e610373565b604051808273ffffffffffffffffffffffffffffffffffffffff1673ffffffffffffffffffffffffffffffffffffffff16815260200191505060405180910390f35b341561025b57600080fd5b610263610378565b604051808273ffffffffffffffffffffffffffffffffffffffff1673ffffffffffffffffffffffffffffffffffffffff16815260200191505060405180910390f35b34156102b057600080fd5b6102b861037d565b604051808673ffffffffffffffffffffffffffffffffffffffff1673ffffffffffffffffffffffffffffffffffffffff1681526020018573ffffffffffffffffffffffffffffffffffffffff1673ffffffffffffffffffffffffffffffffffffffff1681526020018481526020018381526020018263ffffffff1663ffffffff1681526020019550505050505060405180910390f35b600090565b61035b61038c565b61036361038c565b60008090919293565b6000919050565b600090565b600090565b60008060008060009091929394565b6020604051908101604052806000815250905600a165627a7a7230582065b30add6e27dfd0c16a55253c0f4278029858e8bd5bb9807522545c36a580880029",
  "source": "/*\n\n Copyright 2017-2018 RigoBlock, Rigo Investment Sagl.\n\n Licensed under the Apache License, Version 2.0 (the \"License\");\n you may not use this file except in compliance with the License.\n You may obtain a copy of the License at\n\n     http://www.apache.org/licenses/LICENSE-2.0\n\n Unless required by applicable law or agreed to in writing, software\n distributed under the License is distributed on an \"AS IS\" BASIS,\n WITHOUT WARRANTIES OR CONDITIONS OF ANY KIND, either express or implied.\n See the License for the specific language governing permissions and\n limitations under the License.\n\n*/\n\npragma solidity ^0.4.19;\n\n/// @title Pool Interface - Interface of pool generic view functions.\n/// @author Gabriele Rigo - <gab@rigoblock.com>\n/// @notice only public view functions are used\ncontract PoolFace {\n\n    // CONSTANT PUBLIC FUNCTIONS\n\n    function balanceOf(address _who) public constant returns (uint256) {}\n    function totalSupply() public constant returns (uint256 totaSupply) {}\n    function getEventful() public constant returns (address) {}\n    function getData() public constant returns (string name, string symbol, uint sellPrice, uint buyPrice) {}\n    function getAdminData() public constant returns (address feeCollector, address dragodAO, uint ratio, uint transactionFee, uint32 minPeriod) {}\n    function getOwner() public constant returns (address) {}\n}\n",
  "sourcePath": "/home/gab/truffle/contracts/contracts/Pool/PoolFace.sol",
  "compiler": {
    "name": "solc",
    "version": "0.4.19+commit.c4cbbb05.Emscripten.clang"
  },
  "schemaVersion": "2.0.0",
  "updatedAt": "2018-03-05T01:35:43.728Z"
}