{
  "contractName": "ProofOfPerformance",
  "abi": [
    {
      "constant": true,
      "inputs": [],
      "name": "rigoblockDao",
      "outputs": [
        {
          "name": "",
          "type": "address"
        }
      ],
      "payable": false,
      "stateMutability": "view",
      "type": "function"
    },
    {
      "constant": true,
      "inputs": [],
      "name": "RIGOTOKENADDRESS",
      "outputs": [
        {
          "name": "",
          "type": "address"
        }
      ],
      "payable": false,
      "stateMutability": "view",
      "type": "function"
    },
    {
      "constant": true,
      "inputs": [],
      "name": "dragoRegistry",
      "outputs": [
        {
          "name": "",
          "type": "address"
        }
      ],
      "payable": false,
      "stateMutability": "view",
      "type": "function"
    },
    {
      "constant": true,
      "inputs": [],
      "name": "minimumRigo",
      "outputs": [
        {
          "name": "",
          "type": "uint256"
        }
      ],
      "payable": false,
      "stateMutability": "view",
      "type": "function"
    },
    {
      "inputs": [
        {
          "name": "_rigoTokenAddress",
          "type": "address"
        },
        {
          "name": "_rigoblockDao",
          "type": "address"
        },
        {
          "name": "_dragoRegistry",
          "type": "address"
        },
        {
          "name": "_inflation",
          "type": "address"
        }
      ],
      "payable": false,
      "stateMutability": "nonpayable",
      "type": "constructor"
    },
    {
      "constant": false,
      "inputs": [
        {
          "name": "_ofPool",
          "type": "uint256"
        }
      ],
      "name": "claimPop",
      "outputs": [],
      "payable": false,
      "stateMutability": "nonpayable",
      "type": "function"
    },
    {
      "constant": false,
      "inputs": [
        {
          "name": "_dragoRegistry",
          "type": "address"
        }
      ],
      "name": "setRegistry",
      "outputs": [],
      "payable": false,
      "stateMutability": "nonpayable",
      "type": "function"
    },
    {
      "constant": false,
      "inputs": [
        {
          "name": "_rigoblockDao",
          "type": "address"
        }
      ],
      "name": "setRigoblockDao",
      "outputs": [],
      "payable": false,
      "stateMutability": "nonpayable",
      "type": "function"
    },
    {
      "constant": false,
      "inputs": [
        {
          "name": "_amount",
          "type": "uint256"
        }
      ],
      "name": "setMinimumRigo",
      "outputs": [],
      "payable": false,
      "stateMutability": "nonpayable",
      "type": "function"
    },
    {
      "constant": false,
      "inputs": [
        {
          "name": "_ofGroup",
          "type": "address"
        },
        {
          "name": "_ratio",
          "type": "uint256"
        }
      ],
      "name": "setRatio",
      "outputs": [],
      "payable": false,
      "stateMutability": "nonpayable",
      "type": "function"
    },
    {
      "constant": true,
      "inputs": [
        {
          "name": "_ofPool",
          "type": "uint256"
        }
      ],
      "name": "isActive",
      "outputs": [
        {
          "name": "",
          "type": "bool"
        }
      ],
      "payable": false,
      "stateMutability": "view",
      "type": "function"
    },
    {
      "constant": true,
      "inputs": [
        {
          "name": "_ofPool",
          "type": "uint256"
        }
      ],
      "name": "addressFromId",
      "outputs": [
        {
          "name": "pool",
          "type": "address"
        },
        {
          "name": "group",
          "type": "address"
        }
      ],
      "payable": false,
      "stateMutability": "view",
      "type": "function"
    },
    {
      "constant": true,
      "inputs": [
        {
          "name": "_ofPool",
          "type": "uint256"
        }
      ],
      "name": "getPoolPrice",
      "outputs": [
        {
          "name": "thePoolPrice",
          "type": "uint256"
        },
        {
          "name": "totalTokens",
          "type": "uint256"
        }
      ],
      "payable": false,
      "stateMutability": "view",
      "type": "function"
    },
    {
      "constant": true,
      "inputs": [],
      "name": "getPoolPrices",
      "outputs": [
        {
          "name": "pools",
          "type": "address[]"
        },
        {
          "name": "poolPrices",
          "type": "uint256[]"
        },
        {
          "name": "totalTokens",
          "type": "uint256[]"
        }
      ],
      "payable": false,
      "stateMutability": "view",
      "type": "function"
    },
    {
      "constant": true,
      "inputs": [
        {
          "name": "_ofPool",
          "type": "uint256"
        }
      ],
      "name": "calcPoolValue",
      "outputs": [
        {
          "name": "aum",
          "type": "uint256"
        },
        {
          "name": "success",
          "type": "bool"
        }
      ],
      "payable": false,
      "stateMutability": "view",
      "type": "function"
    },
    {
      "constant": true,
      "inputs": [],
      "name": "calcNetworkValue",
      "outputs": [
        {
          "name": "networkValue",
          "type": "uint256"
        },
        {
          "name": "numberOfFunds",
          "type": "uint256"
        }
      ],
      "payable": false,
      "stateMutability": "view",
      "type": "function"
    },
    {
      "constant": true,
      "inputs": [
        {
          "name": "_ofPool",
          "type": "uint256"
        }
      ],
      "name": "getEpochReward",
      "outputs": [
        {
          "name": "",
          "type": "uint256"
        }
      ],
      "payable": false,
      "stateMutability": "view",
      "type": "function"
    },
    {
      "constant": true,
      "inputs": [
        {
          "name": "_ofPool",
          "type": "uint256"
        }
      ],
      "name": "getRatio",
      "outputs": [
        {
          "name": "",
          "type": "uint256"
        }
      ],
      "payable": false,
      "stateMutability": "view",
      "type": "function"
    },
    {
      "constant": true,
      "inputs": [
        {
          "name": "_ofPool",
          "type": "uint256"
        }
      ],
      "name": "proofOfPerformance",
      "outputs": [
        {
          "name": "",
          "type": "uint256"
        }
      ],
      "payable": false,
      "stateMutability": "view",
      "type": "function"
    },
    {
      "constant": true,
      "inputs": [
        {
          "name": "_ofPool",
          "type": "uint256"
        }
      ],
      "name": "getHwm",
      "outputs": [
        {
          "name": "",
          "type": "uint256"
        }
      ],
      "payable": false,
      "stateMutability": "view",
      "type": "function"
    }
  ],
  "bytecode": "0x6060604052341561000f57600080fd5b60405160808061178083398101604052808051906020019091908051906020019091908051906020019091908051906020019091905050836000806101000a81548173ffffffffffffffffffffffffffffffffffffffff021916908373ffffffffffffffffffffffffffffffffffffffff16021790555082600260006101000a81548173ffffffffffffffffffffffffffffffffffffffff021916908373ffffffffffffffffffffffffffffffffffffffff16021790555081600160006101000a81548173ffffffffffffffffffffffffffffffffffffffff021916908373ffffffffffffffffffffffffffffffffffffffff16021790555080600460006101000a81548173ffffffffffffffffffffffffffffffffffffffff021916908373ffffffffffffffffffffffffffffffffffffffff160217905550505050506116248061015c6000396000f300606060405260043610610107576000357c0100000000000000000000000000000000000000000000000000000000900463ffffffff168063057520471461010c578063249d91231461014e578063360dafa0146101855780633edd80c31461021b578063427fdc0c1461027057806346a62eaf146102b25780634806b2d2146102e95780634d749e43146103e357806374bab5501461041a57806382afd23b1461043d5780639af94f3014610478578063a6c9c443146104b6578063a91ee0dc1461050b578063b516e6e114610544578063bb76bd291461057d578063bca2dfdb146105d2578063d418634a146105fb578063dc5d279914610632578063ef7985c814610655575b600080fd5b341561011757600080fd5b61014c600480803573ffffffffffffffffffffffffffffffffffffffff16906020019091908035906020019091905050610685565b005b341561015957600080fd5b61016f600480803590602001909190505061073d565b6040518082815260200191505060405180910390f35b341561019057600080fd5b6101a6600480803590602001909190505061075d565b604051808373ffffffffffffffffffffffffffffffffffffffff1673ffffffffffffffffffffffffffffffffffffffff1681526020018273ffffffffffffffffffffffffffffffffffffffff1673ffffffffffffffffffffffffffffffffffffffff1681526020019250505060405180910390f35b341561022657600080fd5b61022e61085e565b604051808273ffffffffffffffffffffffffffffffffffffffff1673ffffffffffffffffffffffffffffffffffffffff16815260200191505060405180910390f35b341561027b57600080fd5b6102916004808035906020019091905050610884565b60405180838152602001821515151581526020019250505060405180910390f35b34156102bd57600080fd5b6102d360048080359060200190919050506108bc565b6040518082815260200191505060405180910390f35b34156102f457600080fd5b6102fc61091e565b60405180806020018060200180602001848103845287818151815260200191508051906020019060200280838360005b8381101561034757808201518184015260208101905061032c565b50505050905001848103835286818151815260200191508051906020019060200280838360005b8381101561038957808201518184015260208101905061036e565b50505050905001848103825285818151815260200191508051906020019060200280838360005b838110156103cb5780820151818401526020810190506103b0565b50505050905001965050505050505060405180910390f35b34156103ee57600080fd5b6104046004808035906020019091905050610bf1565b6040518082815260200191505060405180910390f35b341561042557600080fd5b61043b6004808035906020019091905050610cff565b005b341561044857600080fd5b61045e6004808035906020019091905050610d65565b604051808215151515815260200191505060405180910390f35b341561048357600080fd5b6104996004808035906020019091905050610e99565b604051808381526020018281526020019250505060405180910390f35b34156104c157600080fd5b6104c9610ff0565b604051808273ffffffffffffffffffffffffffffffffffffffff1673ffffffffffffffffffffffffffffffffffffffff16815260200191505060405180910390f35b341561051657600080fd5b610542600480803573ffffffffffffffffffffffffffffffffffffffff16906020019091905050611015565b005b341561054f57600080fd5b61057b600480803573ffffffffffffffffffffffffffffffffffffffff169060200190919050506110b5565b005b341561058857600080fd5b610590611155565b604051808273ffffffffffffffffffffffffffffffffffffffff1673ffffffffffffffffffffffffffffffffffffffff16815260200191505060405180910390f35b34156105dd57600080fd5b6105e561117b565b6040518082815260200191505060405180910390f35b341561060657600080fd5b61061c6004808035906020019091905050611181565b6040518082815260200191505060405180910390f35b341561063d57600080fd5b6106536004808035906020019091905050611285565b005b341561066057600080fd5b6106686114ac565b604051808381526020018281526020019250505060405180910390f35b600260009054906101000a900473ffffffffffffffffffffffffffffffffffffffff1673ffffffffffffffffffffffffffffffffffffffff163373ffffffffffffffffffffffffffffffffffffffff161415156106e157600080fd5b61271081111515156106f257600080fd5b80600660008473ffffffffffffffffffffffffffffffffffffffff1673ffffffffffffffffffffffffffffffffffffffff168152602001908152602001600020600001819055505050565b600060056000838152602001908152602001600020600001549050919050565b6000806000806000600160009054906101000a900473ffffffffffffffffffffffffffffffffffffffff1692508273ffffffffffffffffffffffffffffffffffffffff1663c277f1ac87600060405160c001526040518263ffffffff167c01000000000000000000000000000000000000000000000000000000000281526004018082815260200191505060c060405180830381600087803b151561080157600080fd5b6102c65a03f1151561081257600080fd5b5050506040518051906020018051906020018051906020018051906020018051906020018051905090919293509091925090915090508092508193505050819450809350505050915091565b600260009054906101000a900473ffffffffffffffffffffffffffffffffffffffff1681565b60008060008061089385610e99565b8092508193505050620f42408183028115156108ab57fe5b049350836001935093505050915091565b60008060006108ca8461075d565b8092508193505050600660008273ffffffffffffffffffffffffffffffffffffffff1673ffffffffffffffffffffffffffffffffffffffff1681526020019081526020016000206000015492505050919050565b6109266115d0565b61092e6115e4565b6109366115e4565b600080600080600080600080600160009054906101000a900473ffffffffffffffffffffffffffffffffffffffff1697508773ffffffffffffffffffffffffffffffffffffffff1663cd6f4e0d6000604051602001526040518163ffffffff167c0100000000000000000000000000000000000000000000000000000000028152600401602060405180830381600087803b15156109d357600080fd5b6102c65a03f115156109e457600080fd5b505050604051805190509650600095505b86861015610be457610a0686610d65565b9450841515610a1457610bd9565b610a1d8661075d565b8094508195505050838b87815181101515610a3457fe5b9060200190602002019073ffffffffffffffffffffffffffffffffffffffff16908173ffffffffffffffffffffffffffffffffffffffff16815250508391508173ffffffffffffffffffffffffffffffffffffffff16633bc5de306000604051608001526040518163ffffffff167c0100000000000000000000000000000000000000000000000000000000028152600401608060405180830381600087803b1515610adf57600080fd5b6102c65a03f11515610af057600080fd5b50505060405180519060200180519060200180519060200180519050909192509091505080915050808a87815181101515610b2757fe5b90602001906020020181815250508173ffffffffffffffffffffffffffffffffffffffff166318160ddd6000604051602001526040518163ffffffff167c0100000000000000000000000000000000000000000000000000000000028152600401602060405180830381600087803b1515610ba157600080fd5b6102c65a03f11515610bb257600080fd5b505050604051805190508987815181101515610bca57fe5b90602001906020020181815250505b8560010195506109f5565b5050505050505050909192565b600080600080600080600080600080600080600560008e8152602001908152602001600020600001541415610c3057670de0b6b3a76400009950610c4a565b600560008d81526020019081526020016000206000015499505b610c538c610884565b508099505060008914151515610c6857600080fd5b610c718c610e99565b8098508199505050898810151515610c8857600080fd5b610c918c611181565b9550610c9c8c6108bc565b9450899350610cab88856115b7565b925069021e19e0c9bab240000085878986020202811515610cc857fe5b04915069021e19e0c9bab24000008561271003878b0202811515610ce857fe5b0490508082019a5050505050505050505050919050565b600260009054906101000a900473ffffffffffffffffffffffffffffffffffffffff1673ffffffffffffffffffffffffffffffffffffffff163373ffffffffffffffffffffffffffffffffffffffff16141515610d5b57600080fd5b8060038190555050565b6000806000600160009054906101000a900473ffffffffffffffffffffffffffffffffffffffff1691508173ffffffffffffffffffffffffffffffffffffffff1663c277f1ac85600060405160c001526040518263ffffffff167c01000000000000000000000000000000000000000000000000000000000281526004018082815260200191505060c060405180830381600087803b1515610e0657600080fd5b6102c65a03f11515610e1757600080fd5b5050506040518051906020018051906020018051906020018051906020018051906020018051905090919293509091925090915090505080915050600073ffffffffffffffffffffffffffffffffffffffff168173ffffffffffffffffffffffffffffffffffffffff16141515610e915760019250610e92565b5b5050919050565b600080600080600080610eab8761075d565b80945081955050508391508190508073ffffffffffffffffffffffffffffffffffffffff16633bc5de306000604051608001526040518163ffffffff167c0100000000000000000000000000000000000000000000000000000000028152600401608060405180830381600087803b1515610f2557600080fd5b6102c65a03f11515610f3657600080fd5b505050604051805190602001805190602001805190602001805190509091925090915050809650508073ffffffffffffffffffffffffffffffffffffffff166318160ddd6000604051602001526040518163ffffffff167c0100000000000000000000000000000000000000000000000000000000028152600401602060405180830381600087803b1515610fca57600080fd5b6102c65a03f11515610fdb57600080fd5b50505060405180519050945050505050915091565b6000809054906101000a900473ffffffffffffffffffffffffffffffffffffffff1681565b600260009054906101000a900473ffffffffffffffffffffffffffffffffffffffff1673ffffffffffffffffffffffffffffffffffffffff163373ffffffffffffffffffffffffffffffffffffffff1614151561107157600080fd5b80600160006101000a81548173ffffffffffffffffffffffffffffffffffffffff021916908373ffffffffffffffffffffffffffffffffffffffff16021790555050565b600260009054906101000a900473ffffffffffffffffffffffffffffffffffffffff1673ffffffffffffffffffffffffffffffffffffffff163373ffffffffffffffffffffffffffffffffffffffff1614151561111157600080fd5b80600260006101000a81548173ffffffffffffffffffffffffffffffffffffffff021916908373ffffffffffffffffffffffffffffffffffffffff16021790555050565b600160009054906101000a900473ffffffffffffffffffffffffffffffffffffffff1681565b60035481565b600080600080600460009054906101000a900473ffffffffffffffffffffffffffffffffffffffff1692506111b58561075d565b80925081935050508273ffffffffffffffffffffffffffffffffffffffff1663d410e0c2826000604051602001526040518263ffffffff167c0100000000000000000000000000000000000000000000000000000000028152600401808273ffffffffffffffffffffffffffffffffffffffff1673ffffffffffffffffffffffffffffffffffffffff168152602001915050602060405180830381600087803b151561126057600080fd5b6102c65a03f1151561127157600080fd5b505050604051805190509350505050919050565b600080600080600080600460009054906101000a900473ffffffffffffffffffffffffffffffffffffffff169550600160009054906101000a900473ffffffffffffffffffffffffffffffffffffffff1694508473ffffffffffffffffffffffffffffffffffffffff1663c277f1ac88600060405160c001526040518263ffffffff167c01000000000000000000000000000000000000000000000000000000000281526004018082815260200191505060c060405180830381600087803b151561134f57600080fd5b6102c65a03f1151561136057600080fd5b50505060405180519060200180519060200180519060200180519060200180519060200180519050909192935090919250909150905050809450506113a487610bf1565b92506113af87610e99565b80925081935050508160056000898152602001908152602001600020600001819055508573ffffffffffffffffffffffffffffffffffffffff1663be5ddb9985856000604051602001526040518363ffffffff167c0100000000000000000000000000000000000000000000000000000000028152600401808373ffffffffffffffffffffffffffffffffffffffff1673ffffffffffffffffffffffffffffffffffffffff16815260200182815260200192505050602060405180830381600087803b151561147d57600080fd5b6102c65a03f1151561148e57600080fd5b5050506040518051905015156114a357600080fd5b50505050505050565b6000806000806000806000600160009054906101000a900473ffffffffffffffffffffffffffffffffffffffff1694508473ffffffffffffffffffffffffffffffffffffffff1663cd6f4e0d6000604051602001526040518163ffffffff167c0100000000000000000000000000000000000000000000000000000000028152600401602060405180830381600087803b151561154857600080fd5b6102c65a03f1151561155957600080fd5b505050604051805190509350600092505b838310156115a85761157b83610d65565b91508115156115895761159d565b61159283610884565b508091505080870196505b82600101925061156a565b86849650965050505050509091565b60008282111515156115c557fe5b818303905092915050565b602060405190810160405280600081525090565b6020604051908101604052806000815250905600a165627a7a72305820519ff54e51a4d654b0a6c3fb6c8efbaa307d30a996ce22fd258f0091f242d9f60029",
  "source": "/*\n\n Copyright 2017-2018 RigoBlock, Rigo Investment Sagl.\n\n Licensed under the Apache License, Version 2.0 (the \"License\");\n you may not use this file except in compliance with the License.\n You may obtain a copy of the License at\n\n     http://www.apache.org/licenses/LICENSE-2.0\n\n Unless required by applicable law or agreed to in writing, software\n distributed under the License is distributed on an \"AS IS\" BASIS,\n WITHOUT WARRANTIES OR CONDITIONS OF ANY KIND, either express or implied.\n See the License for the specific language governing permissions and\n limitations under the License.\n\n*/\n\npragma solidity ^0.4.19;\n\nimport { PoolFace as Pool } from \"../../Pool/PoolFace.sol\";\nimport { RigoToken } from \"../RigoToken/RigoToken.sol\";\nimport { DragoRegistryFace as DragoRegistry } from \"../../Registry/DragoRegistry.sol\";\nimport { InflationFace as Inflation } from \"../Inflation/InflationFace.sol\";\n\nimport { SafeMath } from \"../../utils/SafeMath/SafeMath.sol\";\nimport { ProofOfPerformanceFace } from \"./ProofOfPerformanceFace.sol\";\n\ncontract ProofOfPerformance is SafeMath, ProofOfPerformanceFace {\n\n    address public RIGOTOKENADDRESS;\n\n    address public dragoRegistry;\n    address public rigoblockDao;\n    uint256 public minimumRigo;\n    address inflation;\n\n    mapping (uint => PoolPrice) poolPrice;\n    mapping (address => Group) groups;\n\n    struct PoolPrice {\n        uint highwatermark;\n    }\n\n    struct Group {\n        uint rewardRatio;\n    }\n\n    modifier only_minter {\n        RigoToken token = RigoToken(RIGOTOKENADDRESS);\n        require(msg.sender == token.getMinter());\n        _;\n    }\n\n    modifier only_rigoblock_dao {\n        require(msg.sender == rigoblockDao);\n        _;\n    }\n\n    modifier only_pool_owner(uint _thePool) {\n        DragoRegistry registry = DragoRegistry(dragoRegistry);\n        address poolAddress;\n        (poolAddress, , , , , ) = registry.fromId(_thePool);\n        Pool pool = Pool(poolAddress);\n        assert(msg.sender == pool.getOwner());\n        _;\n    }\n\n    modifier minimum_rigoblock {\n        RigoToken rigoToken = RigoToken(RIGOTOKENADDRESS);\n        require(rigoToken.balanceOf(msg.sender) >= minimumRigo);\n        _;\n    }\n\n    function ProofOfPerformance(\n        address _rigoTokenAddress,\n        address _rigoblockDao,\n        address _dragoRegistry,\n        address _inflation)\n        public\n    {\n        RIGOTOKENADDRESS = _rigoTokenAddress;\n        rigoblockDao = _rigoblockDao;\n        dragoRegistry = _dragoRegistry;\n        inflation = _inflation;\n    }\n\n    // CORE FUNCTIONS\n\n    function claimPop(uint _ofPool) public {\n        Inflation infl = Inflation(inflation);\n        DragoRegistry registry = DragoRegistry(dragoRegistry);\n        address poolAddress;\n        (poolAddress, , , , , ) = registry.fromId(_ofPool);\n        uint pop = proofOfPerformance(_ofPool);\n        uint price;\n        uint supply;\n        (price, supply) = getPoolPrice(_ofPool);\n        poolPrice[_ofPool].highwatermark = price;\n        require(infl.mintInflation(poolAddress, pop));\n    }\n\n    function setRegistry(address _dragoRegistry) external only_rigoblock_dao {\n        dragoRegistry = _dragoRegistry;\n    }\n\n    function setRigoblockDao(address _rigoblockDao) external only_rigoblock_dao {\n        rigoblockDao = _rigoblockDao;\n    }\n\n    function setMinimumRigo(uint256 _amount) external only_rigoblock_dao {\n        minimumRigo = _amount;\n    }\n\n    /// @notice only_rigoblock_dao can set ratio, as it determines\n    /// @notice the split between asset and performance reward for a said group\n    function setRatio(address _ofGroup, uint _ratio)\n        public\n        only_rigoblock_dao\n    {\n        require(_ratio <= 10000); //(from 0 to 10000)\n        groups[_ofGroup].rewardRatio = _ratio;\n    }\n\n    // CONSTANT PUBLIC FUNCTIONS\n\n    /// @dev Checks whether a pool is registered and active\n    /// @param _ofPool Id of the pool\n    /// @return Bool the pool is active\n    function isActive(uint _ofPool) public constant returns (bool) {\n        DragoRegistry registry = DragoRegistry(dragoRegistry);\n        address thePool;\n        (thePool, , , , , ) = registry.fromId(_ofPool);\n        if (thePool != address(0)) {\n            return true;\n        }\n    }\n\n    /// @dev Returns the address and the group of a pool from its id\n    /// @param _ofPool Id of the pool\n    /// @return Address of the target pool\n    /// @return Address of the pool's group\n    function addressFromId(uint _ofPool)\n        public\n        constant\n        returns (\n            address pool,\n            address group\n        )\n    {\n        DragoRegistry registry = DragoRegistry(dragoRegistry);\n        address thePool;\n        address theGroup;\n        (thePool, , , , , theGroup) = registry.fromId(_ofPool);\n        pool = thePool;\n        group = theGroup;\n    }\n\n    /// @dev Returns the price a pool from its id\n    /// @param _ofPool Id of the pool\n    /// @return Price of the pool in wei\n    /// @return Number of tokens of a pool (totalSupply)\n    function getPoolPrice(uint _ofPool)\n        public\n        constant\n        returns (\n            uint thePoolPrice,\n            uint totalTokens\n        )\n    {\n        address fund;\n        address group;\n        (fund,group) = addressFromId(_ofPool);\n        address poolAddress = fund;\n        Pool pool = Pool(poolAddress);\n        ( , , thePoolPrice, ) = pool.getData();\n        totalTokens = pool.totalSupply();\n    }\n\n    /// @dev Returns two arrays of prices and total supply\n    /// @return Array of addressed of the active pools\n    /// @return Array of the prices of the active pools\n    /// @return Array of the number of tokens of each pool\n    function getPoolPrices()\n        public\n        constant\n        returns (\n            address[] pools,\n            uint[] poolPrices,\n            uint[] totalTokens\n        )\n    {\n        DragoRegistry registry = DragoRegistry(dragoRegistry);\n        uint length = registry.dragoCount();\n        for (uint i = 0; i < length; ++i) {\n            bool active = isActive(i);\n            if (!active) {\n                continue;\n            }\n            address fund;\n            address group;\n            (fund, group) = addressFromId(i);\n            pools[i] = fund;\n            Pool pool = Pool(fund);\n            uint thePoolPrice;\n            ( , , thePoolPrice, ) = pool.getData();\n            poolPrices[i] = thePoolPrice;\n            totalTokens[i] = pool.totalSupply();\n        }\n    }\n\n    /// @dev Returns the address and the group of a pool from its id\n    /// @param _ofPool Id of the pool\n    /// @return Address of the target pool\n    /// @return Address of the pool's group\n    function calcPoolValue(uint256 _ofPool)\n        public\n        constant\n        returns (\n            uint256 aum,\n            bool success\n        )\n    {\n        uint price;\n        uint supply;\n        (price,supply) = getPoolPrice(_ofPool);\n        return (aum = price * supply / 1000000, true); //1000000 is the base (decimals)\n    }\n\n    /// @dev Returns the value of the assets in the rigoblock network\n    /// @return Value of the rigoblock network in wei\n    /// @return Number of active funds\n    function calcNetworkValue()\n        public\n        constant\n        returns (\n            uint networkValue,\n            uint numberOfFunds\n        )\n    {\n        DragoRegistry registry = DragoRegistry(dragoRegistry);\n        uint length = registry.dragoCount();\n        for (uint i = 0; i < length; ++i) {\n            bool active = isActive(i);\n            if (!active) {\n                continue;\n            }\n            uint poolValue;\n            (poolValue, ) = calcPoolValue(i);\n            networkValue += poolValue;\n        }\n        return (networkValue, length);\n    }\n\n    /// @dev Returns the reward factor for a pool\n    /// @param _ofPool Id of the pool\n    /// @return Value of the reward factor\n    function getEpochReward(uint _ofPool) public constant returns (uint) {\n        Inflation inflate = Inflation(inflation);\n        address fund;\n        address group;\n        (fund,group) = addressFromId(_ofPool);\n        return inflate.getInflationFactor(group);\n    }\n\n    /// @dev Returns the split ratio of asset and performance reward\n    /// @param _ofPool Id of the pool\n    /// @return Value of the ratio from 1 to 100\n    function getRatio(uint _ofPool) public constant returns (uint) {\n        address fund;\n        address group;\n        (fund,group) = addressFromId(_ofPool);\n        return groups[group].rewardRatio;\n    }\n\n    /// @dev Returns the proof of performance reward for a pool\n    /// @param _ofPool Id of the pool\n    /// @return Value of the reward in Rigo tokens\n    /// @notice epoch reward should be big enough that it\n    /// @notice can be decreased if number of funds increases\n    /// @notice should be at least 10^6 (just as pool base) to start with\n    /// @notice rigo token has 10^18 decimals\n    function proofOfPerformance(uint _ofPool) public constant returns (uint256) {\n        uint highwatermark;\n        if (poolPrice[_ofPool].highwatermark == 0) {\n            highwatermark = 1 ether;\n        } else {\n            highwatermark = poolPrice[_ofPool].highwatermark;\n        }\n        uint poolValue;\n        (poolValue, ) = calcPoolValue(_ofPool);\n        require(poolValue != 0);\n        uint newPrice;\n        uint tokenSupply;\n        (newPrice, tokenSupply) = getPoolPrice(_ofPool);\n        require (newPrice >= highwatermark);\n        uint epochReward = getEpochReward(_ofPool);\n        uint rewardRatio = getRatio(_ofPool);\n        uint prevPrice = highwatermark;\n        uint priceDiff = safeSub(newPrice, prevPrice);\n        uint performanceReward = priceDiff * tokenSupply * epochReward * rewardRatio / 10000 ether;\n        uint assetsReward = poolValue * epochReward * (10000 - rewardRatio) / 10000 ether;\n        return performanceReward + assetsReward;\n    }\n\n    /// @dev Returns the highwatermark of a pool\n    /// @param _ofPool Id of the pool\n    /// @return Value of the all-time-high pool nav\n    function getHwm(uint _ofPool) public constant returns (uint) {\n        return poolPrice[_ofPool].highwatermark;\n    }\n}\n",
  "sourcePath": "/home/gab/truffle/contracts/contracts/RigoToken/ProofOfPerformance/ProofOfPerformance.sol",
  "compiler": {
    "name": "solc",
    "version": "0.4.19+commit.c4cbbb05.Emscripten.clang"
  },
  "schemaVersion": "2.0.0",
  "updatedAt": "2018-03-05T01:35:43.764Z"
}