{
  "contractName": "ProofOfPerformanceFace",
  "abi": [
    {
      "constant": false,
      "inputs": [
        {
          "name": "_ofPool",
          "type": "uint256"
        }
      ],
      "name": "claimPop",
      "outputs": [],
      "payable": false,
      "stateMutability": "nonpayable",
      "type": "function"
    },
    {
      "constant": false,
      "inputs": [
        {
          "name": "_dragoRegistry",
          "type": "address"
        }
      ],
      "name": "setRegistry",
      "outputs": [],
      "payable": false,
      "stateMutability": "nonpayable",
      "type": "function"
    },
    {
      "constant": false,
      "inputs": [
        {
          "name": "_rigoblockDao",
          "type": "address"
        }
      ],
      "name": "setRigoblockDao",
      "outputs": [],
      "payable": false,
      "stateMutability": "nonpayable",
      "type": "function"
    },
    {
      "constant": false,
      "inputs": [
        {
          "name": "_ofGroup",
          "type": "address"
        },
        {
          "name": "_ratio",
          "type": "uint256"
        }
      ],
      "name": "setRatio",
      "outputs": [],
      "payable": false,
      "stateMutability": "nonpayable",
      "type": "function"
    },
    {
      "constant": false,
      "inputs": [
        {
          "name": "_amount",
          "type": "uint256"
        }
      ],
      "name": "setMinimumRigo",
      "outputs": [],
      "payable": false,
      "stateMutability": "nonpayable",
      "type": "function"
    },
    {
      "constant": true,
      "inputs": [
        {
          "name": "_ofPool",
          "type": "uint256"
        }
      ],
      "name": "isActive",
      "outputs": [
        {
          "name": "",
          "type": "bool"
        }
      ],
      "payable": false,
      "stateMutability": "view",
      "type": "function"
    },
    {
      "constant": true,
      "inputs": [
        {
          "name": "_ofPool",
          "type": "uint256"
        }
      ],
      "name": "addressFromId",
      "outputs": [
        {
          "name": "pool",
          "type": "address"
        },
        {
          "name": "group",
          "type": "address"
        }
      ],
      "payable": false,
      "stateMutability": "view",
      "type": "function"
    },
    {
      "constant": true,
      "inputs": [
        {
          "name": "_ofPool",
          "type": "uint256"
        }
      ],
      "name": "getPoolPrice",
      "outputs": [
        {
          "name": "thePoolPrice",
          "type": "uint256"
        },
        {
          "name": "totalTokens",
          "type": "uint256"
        }
      ],
      "payable": false,
      "stateMutability": "view",
      "type": "function"
    },
    {
      "constant": true,
      "inputs": [],
      "name": "getPoolPrices",
      "outputs": [
        {
          "name": "pools",
          "type": "address[]"
        },
        {
          "name": "poolPrices",
          "type": "uint256[]"
        },
        {
          "name": "totalTokens",
          "type": "uint256[]"
        }
      ],
      "payable": false,
      "stateMutability": "view",
      "type": "function"
    },
    {
      "constant": true,
      "inputs": [
        {
          "name": "_ofPool",
          "type": "uint256"
        }
      ],
      "name": "calcPoolValue",
      "outputs": [
        {
          "name": "aum",
          "type": "uint256"
        },
        {
          "name": "success",
          "type": "bool"
        }
      ],
      "payable": false,
      "stateMutability": "view",
      "type": "function"
    },
    {
      "constant": true,
      "inputs": [],
      "name": "calcNetworkValue",
      "outputs": [
        {
          "name": "networkValue",
          "type": "uint256"
        },
        {
          "name": "numberOfFunds",
          "type": "uint256"
        }
      ],
      "payable": false,
      "stateMutability": "view",
      "type": "function"
    },
    {
      "constant": true,
      "inputs": [
        {
          "name": "_ofPool",
          "type": "uint256"
        }
      ],
      "name": "getEpochReward",
      "outputs": [
        {
          "name": "",
          "type": "uint256"
        }
      ],
      "payable": false,
      "stateMutability": "view",
      "type": "function"
    },
    {
      "constant": true,
      "inputs": [
        {
          "name": "_ofPool",
          "type": "uint256"
        }
      ],
      "name": "getRatio",
      "outputs": [
        {
          "name": "",
          "type": "uint256"
        }
      ],
      "payable": false,
      "stateMutability": "view",
      "type": "function"
    },
    {
      "constant": true,
      "inputs": [
        {
          "name": "_ofPool",
          "type": "uint256"
        }
      ],
      "name": "proofOfPerformance",
      "outputs": [
        {
          "name": "",
          "type": "uint256"
        }
      ],
      "payable": false,
      "stateMutability": "view",
      "type": "function"
    },
    {
      "constant": true,
      "inputs": [
        {
          "name": "_ofPool",
          "type": "uint256"
        }
      ],
      "name": "getHwm",
      "outputs": [
        {
          "name": "",
          "type": "uint256"
        }
      ],
      "payable": false,
      "stateMutability": "view",
      "type": "function"
    }
  ],
  "bytecode": "0x6060604052341561000f57600080fd5b6105f48061001e6000396000f3006060604052600436106100db576000357c0100000000000000000000000000000000000000000000000000000000900463ffffffff16806305752047146100e0578063249d912314610122578063360dafa014610159578063427fdc0c146101ef57806346a62eaf146102315780634806b2d2146102685780634d749e431461036257806374bab5501461039957806382afd23b146103bc5780639af94f30146103f7578063a91ee0dc14610435578063b516e6e11461046e578063d418634a146104a7578063dc5d2799146104de578063ef7985c814610501575b600080fd5b34156100eb57600080fd5b610120600480803573ffffffffffffffffffffffffffffffffffffffff16906020019091908035906020019091905050610531565b005b341561012d57600080fd5b6101436004808035906020019091905050610535565b6040518082815260200191505060405180910390f35b341561016457600080fd5b61017a600480803590602001909190505061053c565b604051808373ffffffffffffffffffffffffffffffffffffffff1673ffffffffffffffffffffffffffffffffffffffff1681526020018273ffffffffffffffffffffffffffffffffffffffff1673ffffffffffffffffffffffffffffffffffffffff1681526020019250505060405180910390f35b34156101fa57600080fd5b6102106004808035906020019091905050610544565b60405180838152602001821515151581526020019250505060405180910390f35b341561023c57600080fd5b610252600480803590602001909190505061054c565b6040518082815260200191505060405180910390f35b341561027357600080fd5b61027b610553565b60405180806020018060200180602001848103845287818151815260200191508051906020019060200280838360005b838110156102c65780820151818401526020810190506102ab565b50505050905001848103835286818151815260200191508051906020019060200280838360005b838110156103085780820151818401526020810190506102ed565b50505050905001848103825285818151815260200191508051906020019060200280838360005b8381101561034a57808201518184015260208101905061032f565b50505050905001965050505050505060405180910390f35b341561036d57600080fd5b6103836004808035906020019091905050610570565b6040518082815260200191505060405180910390f35b34156103a457600080fd5b6103ba6004808035906020019091905050610577565b005b34156103c757600080fd5b6103dd600480803590602001909190505061057a565b604051808215151515815260200191505060405180910390f35b341561040257600080fd5b6104186004808035906020019091905050610581565b604051808381526020018281526020019250505060405180910390f35b341561044057600080fd5b61046c600480803573ffffffffffffffffffffffffffffffffffffffff16906020019091905050610589565b005b341561047957600080fd5b6104a5600480803573ffffffffffffffffffffffffffffffffffffffff1690602001909190505061058c565b005b34156104b257600080fd5b6104c8600480803590602001909190505061058f565b6040518082815260200191505060405180910390f35b34156104e957600080fd5b6104ff6004808035906020019091905050610596565b005b341561050c57600080fd5b610514610599565b604051808381526020018281526020019250505060405180910390f35b5050565b6000919050565b600080915091565b600080915091565b6000919050565b61055b6105a0565b6105636105b4565b61056b6105b4565b909192565b6000919050565b50565b6000919050565b600080915091565b50565b50565b6000919050565b50565b6000809091565b602060405190810160405280600081525090565b6020604051908101604052806000815250905600a165627a7a72305820bf9e4bf667957d184061c63ac0dc6e49453adab9b25361a3ee55eb91069f34a00029",
  "source": "/*\n\n Copyright 2017-2018 RigoBlock, Rigo Investment Sagl.\n\n Licensed under the Apache License, Version 2.0 (the \"License\");\n you may not use this file except in compliance with the License.\n You may obtain a copy of the License at\n\n     http://www.apache.org/licenses/LICENSE-2.0\n\n Unless required by applicable law or agreed to in writing, software\n distributed under the License is distributed on an \"AS IS\" BASIS,\n WITHOUT WARRANTIES OR CONDITIONS OF ANY KIND, either express or implied.\n See the License for the specific language governing permissions and\n limitations under the License.\n\n*/\n\npragma solidity ^0.4.19;\n\n/// @title Proof of Performance Interface - Allows interaction with the PoP contract.\n/// @author Gabriele Rigo - <gab@rigoblock.com>\ncontract ProofOfPerformanceFace {\n\n    // CORE FUNCTIONS\n\n    function claimPop(uint _ofPool) public {}\n    function setRegistry(address _dragoRegistry) external {}\n    function setRigoblockDao(address _rigoblockDao) external {}\n    function setRatio(address _ofGroup, uint _ratio) public {}\n    function setMinimumRigo(uint256 _amount) external {}\n\n    // CONSTANT PUBLIC FUNCTIONS\n\n    function isActive(uint _ofPool) public constant returns (bool) {}\n    function addressFromId(uint _ofPool) public constant returns (address pool, address group) {}\n    function getPoolPrice(uint _ofPool) public constant returns (uint thePoolPrice, uint totalTokens) {}\n    function getPoolPrices() public constant returns (address[] pools, uint[] poolPrices, uint[] totalTokens) {}\n    function calcPoolValue(uint256 _ofPool) public /*internal*/ constant returns (uint256 aum, bool success) {}\n    function calcNetworkValue() public constant returns (uint networkValue, uint numberOfFunds) {}\n    function getEpochReward(uint _ofPool) public constant returns (uint) {}\n    function getRatio(uint _ofPool) public constant returns (uint) {}\n    function proofOfPerformance(uint _ofPool) public constant returns (uint256) {}\n    function getHwm(uint _ofPool) public constant returns (uint) {}\n}\n",
  "sourcePath": "/home/gab/truffle/contracts/contracts/RigoToken/ProofOfPerformance/ProofOfPerformanceFace.sol",
  "compiler": {
    "name": "solc",
    "version": "0.4.19+commit.c4cbbb05.Emscripten.clang"
  },
  "schemaVersion": "2.0.0",
  "updatedAt": "2018-03-05T01:35:43.788Z"
}