{
  "contractName": "RigoToken",
  "abi": [
    {
      "constant": true,
      "inputs": [],
      "name": "name",
      "outputs": [
        {
          "name": "",
          "type": "string"
        }
      ],
      "payable": false,
      "stateMutability": "view",
      "type": "function"
    },
    {
      "constant": true,
      "inputs": [],
      "name": "minter",
      "outputs": [
        {
          "name": "",
          "type": "address"
        }
      ],
      "payable": false,
      "stateMutability": "view",
      "type": "function"
    },
    {
      "constant": false,
      "inputs": [
        {
          "name": "_spender",
          "type": "address"
        },
        {
          "name": "_value",
          "type": "uint256"
        }
      ],
      "name": "approve",
      "outputs": [
        {
          "name": "success",
          "type": "bool"
        }
      ],
      "payable": false,
      "stateMutability": "nonpayable",
      "type": "function"
    },
    {
      "constant": true,
      "inputs": [],
      "name": "totalSupply",
      "outputs": [
        {
          "name": "",
          "type": "uint256"
        }
      ],
      "payable": false,
      "stateMutability": "view",
      "type": "function"
    },
    {
      "constant": true,
      "inputs": [],
      "name": "decimals",
      "outputs": [
        {
          "name": "",
          "type": "uint256"
        }
      ],
      "payable": false,
      "stateMutability": "view",
      "type": "function"
    },
    {
      "constant": true,
      "inputs": [],
      "name": "rigoblock",
      "outputs": [
        {
          "name": "",
          "type": "address"
        }
      ],
      "payable": false,
      "stateMutability": "view",
      "type": "function"
    },
    {
      "constant": true,
      "inputs": [
        {
          "name": "_owner",
          "type": "address"
        }
      ],
      "name": "balanceOf",
      "outputs": [
        {
          "name": "",
          "type": "uint256"
        }
      ],
      "payable": false,
      "stateMutability": "view",
      "type": "function"
    },
    {
      "constant": true,
      "inputs": [],
      "name": "symbol",
      "outputs": [
        {
          "name": "",
          "type": "string"
        }
      ],
      "payable": false,
      "stateMutability": "view",
      "type": "function"
    },
    {
      "constant": true,
      "inputs": [
        {
          "name": "_owner",
          "type": "address"
        },
        {
          "name": "_spender",
          "type": "address"
        }
      ],
      "name": "allowance",
      "outputs": [
        {
          "name": "",
          "type": "uint256"
        }
      ],
      "payable": false,
      "stateMutability": "view",
      "type": "function"
    },
    {
      "inputs": [
        {
          "name": "_setMinter",
          "type": "address"
        },
        {
          "name": "_setRigoblock",
          "type": "address"
        }
      ],
      "payable": false,
      "stateMutability": "nonpayable",
      "type": "constructor"
    },
    {
      "anonymous": false,
      "inputs": [
        {
          "indexed": true,
          "name": "recipient",
          "type": "address"
        },
        {
          "indexed": false,
          "name": "amount",
          "type": "uint256"
        }
      ],
      "name": "TokenMinted",
      "type": "event"
    },
    {
      "anonymous": false,
      "inputs": [
        {
          "indexed": true,
          "name": "_from",
          "type": "address"
        },
        {
          "indexed": true,
          "name": "_to",
          "type": "address"
        },
        {
          "indexed": false,
          "name": "_value",
          "type": "uint256"
        }
      ],
      "name": "Transfer",
      "type": "event"
    },
    {
      "anonymous": false,
      "inputs": [
        {
          "indexed": true,
          "name": "_owner",
          "type": "address"
        },
        {
          "indexed": true,
          "name": "_spender",
          "type": "address"
        },
        {
          "indexed": false,
          "name": "_value",
          "type": "uint256"
        }
      ],
      "name": "Approval",
      "type": "event"
    },
    {
      "constant": false,
      "inputs": [
        {
          "name": "_recipient",
          "type": "address"
        },
        {
          "name": "_amount",
          "type": "uint256"
        }
      ],
      "name": "mintToken",
      "outputs": [],
      "payable": false,
      "stateMutability": "nonpayable",
      "type": "function"
    },
    {
      "constant": false,
      "inputs": [
        {
          "name": "_recipient",
          "type": "address"
        },
        {
          "name": "_amount",
          "type": "uint256"
        }
      ],
      "name": "transfer",
      "outputs": [
        {
          "name": "success",
          "type": "bool"
        }
      ],
      "payable": false,
      "stateMutability": "nonpayable",
      "type": "function"
    },
    {
      "constant": false,
      "inputs": [
        {
          "name": "_sender",
          "type": "address"
        },
        {
          "name": "_recipient",
          "type": "address"
        },
        {
          "name": "_amount",
          "type": "uint256"
        }
      ],
      "name": "transferFrom",
      "outputs": [
        {
          "name": "success",
          "type": "bool"
        }
      ],
      "payable": false,
      "stateMutability": "nonpayable",
      "type": "function"
    },
    {
      "constant": false,
      "inputs": [
        {
          "name": "_newAddress",
          "type": "address"
        }
      ],
      "name": "changeMintingAddress",
      "outputs": [],
      "payable": false,
      "stateMutability": "nonpayable",
      "type": "function"
    },
    {
      "constant": false,
      "inputs": [
        {
          "name": "_newAddress",
          "type": "address"
        }
      ],
      "name": "changeRigoblockAddress",
      "outputs": [],
      "payable": false,
      "stateMutability": "nonpayable",
      "type": "function"
    },
    {
      "constant": true,
      "inputs": [],
      "name": "getName",
      "outputs": [
        {
          "name": "",
          "type": "string"
        }
      ],
      "payable": false,
      "stateMutability": "view",
      "type": "function"
    },
    {
      "constant": true,
      "inputs": [],
      "name": "getSymbol",
      "outputs": [
        {
          "name": "",
          "type": "string"
        }
      ],
      "payable": false,
      "stateMutability": "view",
      "type": "function"
    },
    {
      "constant": true,
      "inputs": [],
      "name": "getDecimals",
      "outputs": [
        {
          "name": "",
          "type": "uint256"
        }
      ],
      "payable": false,
      "stateMutability": "view",
      "type": "function"
    },
    {
      "constant": true,
      "inputs": [],
      "name": "getMinter",
      "outputs": [
        {
          "name": "",
          "type": "address"
        }
      ],
      "payable": false,
      "stateMutability": "view",
      "type": "function"
    },
    {
      "constant": true,
      "inputs": [],
      "name": "getRigoblock",
      "outputs": [
        {
          "name": "",
          "type": "address"
        }
      ],
      "payable": false,
      "stateMutability": "view",
      "type": "function"
    },
    {
      "constant": true,
      "inputs": [
        {
          "name": "_group",
          "type": "address"
        }
      ],
      "name": "getInflationFactor",
      "outputs": [
        {
          "name": "",
          "type": "uint256"
        }
      ],
      "payable": false,
      "stateMutability": "view",
      "type": "function"
    }
  ],
  "bytecode": "0x60606040526b033b2e3c9fd0803ce8000000600355341561001f57600080fd5b60405160408061155d8339810160405280805190602001909190805190602001909190505081600460006101000a81548173ffffffffffffffffffffffffffffffffffffffff021916908373ffffffffffffffffffffffffffffffffffffffff16021790555080600560006101000a81548173ffffffffffffffffffffffffffffffffffffffff021916908373ffffffffffffffffffffffffffffffffffffffff160217905550600354600160003373ffffffffffffffffffffffffffffffffffffffff1673ffffffffffffffffffffffffffffffffffffffff1681526020019081526020016000208190555050506114408061011d6000396000f300606060405260043610610112576000357c0100000000000000000000000000000000000000000000000000000000900463ffffffff16806306fdde031461011757806307546172146101a5578063095ea7b3146101fa578063150704011461025457806317d7de7c146102e257806318160ddd1461037057806323b872dd14610399578063313ce567146104125780633f04d0401461043b57806351892f071461049057806370a08231146104c957806379c650681461051657806387b669de14610558578063882f7e83146105ad57806395d89b41146105e6578063a9059cbb14610674578063d410e0c2146106ce578063dd62ed3e1461071b578063f0141d8414610787578063f3667517146107b0575b600080fd5b341561012257600080fd5b61012a610805565b6040518080602001828103825283818151815260200191508051906020019080838360005b8381101561016a57808201518184015260208101905061014f565b50505050905090810190601f1680156101975780820380516001836020036101000a031916815260200191505b509250505060405180910390f35b34156101b057600080fd5b6101b861083e565b604051808273ffffffffffffffffffffffffffffffffffffffff1673ffffffffffffffffffffffffffffffffffffffff16815260200191505060405180910390f35b341561020557600080fd5b61023a600480803573ffffffffffffffffffffffffffffffffffffffff16906020019091908035906020019091905050610864565b604051808215151515815260200191505060405180910390f35b341561025f57600080fd5b610267610956565b6040518080602001828103825283818151815260200191508051906020019080838360005b838110156102a757808201518184015260208101905061028c565b50505050905090810190601f1680156102d45780820380516001836020036101000a031916815260200191505b509250505060405180910390f35b34156102ed57600080fd5b6102f5610999565b6040518080602001828103825283818151815260200191508051906020019080838360005b8381101561033557808201518184015260208101905061031a565b50505050905090810190601f1680156103625780820380516001836020036101000a031916815260200191505b509250505060405180910390f35b341561037b57600080fd5b6103836109dc565b6040518082815260200191505060405180910390f35b34156103a457600080fd5b6103f8600480803573ffffffffffffffffffffffffffffffffffffffff1690602001909190803573ffffffffffffffffffffffffffffffffffffffff169060200190919080359060200190919050506109e2565b604051808215151515815260200191505060405180910390f35b341561041d57600080fd5b6104256109f8565b6040518082815260200191505060405180910390f35b341561044657600080fd5b61044e6109fd565b604051808273ffffffffffffffffffffffffffffffffffffffff1673ffffffffffffffffffffffffffffffffffffffff16815260200191505060405180910390f35b341561049b57600080fd5b6104c7600480803573ffffffffffffffffffffffffffffffffffffffff16906020019091905050610a23565b005b34156104d457600080fd5b610500600480803573ffffffffffffffffffffffffffffffffffffffff16906020019091905050610ac3565b6040518082815260200191505060405180910390f35b341561052157600080fd5b610556600480803573ffffffffffffffffffffffffffffffffffffffff16906020019091908035906020019091905050610b0c565b005b341561056357600080fd5b61056b610c0a565b604051808273ffffffffffffffffffffffffffffffffffffffff1673ffffffffffffffffffffffffffffffffffffffff16815260200191505060405180910390f35b34156105b857600080fd5b6105e4600480803573ffffffffffffffffffffffffffffffffffffffff16906020019091905050610c34565b005b34156105f157600080fd5b6105f9610cd4565b6040518080602001828103825283818151815260200191508051906020019080838360005b8381101561063957808201518184015260208101905061061e565b50505050905090810190601f1680156106665780820380516001836020036101000a031916815260200191505b509250505060405180910390f35b341561067f57600080fd5b6106b4600480803573ffffffffffffffffffffffffffffffffffffffff16906020019091908035906020019091905050610d0d565b604051808215151515815260200191505060405180910390f35b34156106d957600080fd5b610705600480803573ffffffffffffffffffffffffffffffffffffffff16906020019091905050610d21565b6040518082815260200191505060405180910390f35b341561072657600080fd5b610771600480803573ffffffffffffffffffffffffffffffffffffffff1690602001909190803573ffffffffffffffffffffffffffffffffffffffff16906020019091905050610e0e565b6040518082815260200191505060405180910390f35b341561079257600080fd5b61079a610e95565b6040518082815260200191505060405180910390f35b34156107bb57600080fd5b6107c3610e9e565b604051808273ffffffffffffffffffffffffffffffffffffffff1673ffffffffffffffffffffffffffffffffffffffff16815260200191505060405180910390f35b6040805190810160405280600a81526020017f5269676f20546f6b656e0000000000000000000000000000000000000000000081525081565b600460009054906101000a900473ffffffffffffffffffffffffffffffffffffffff1681565b600081600260003373ffffffffffffffffffffffffffffffffffffffff1673ffffffffffffffffffffffffffffffffffffffff16815260200190815260200160002060008573ffffffffffffffffffffffffffffffffffffffff1673ffffffffffffffffffffffffffffffffffffffff168152602001908152602001600020819055508273ffffffffffffffffffffffffffffffffffffffff163373ffffffffffffffffffffffffffffffffffffffff167f8c5be1e5ebec7d5bd14f71427d1e84f3dd0314c0f7b2291e5b200ac8c7c3b925846040518082815260200191505060405180910390a36001905092915050565b61095e611400565b6040805190810160405280600381526020017f4752470000000000000000000000000000000000000000000000000000000000815250905090565b6109a1611400565b6040805190810160405280600a81526020017f5269676f20546f6b656e00000000000000000000000000000000000000000000815250905090565b60035481565b60006109ef848484610ec8565b90509392505050565b601281565b600560009054906101000a900473ffffffffffffffffffffffffffffffffffffffff1681565b600560009054906101000a900473ffffffffffffffffffffffffffffffffffffffff1673ffffffffffffffffffffffffffffffffffffffff163373ffffffffffffffffffffffffffffffffffffffff16141515610a7f57600080fd5b80600460006101000a81548173ffffffffffffffffffffffffffffffffffffffff021916908373ffffffffffffffffffffffffffffffffffffffff16021790555050565b6000600160008373ffffffffffffffffffffffffffffffffffffffff1673ffffffffffffffffffffffffffffffffffffffff168152602001908152602001600020549050919050565b600460009054906101000a900473ffffffffffffffffffffffffffffffffffffffff1673ffffffffffffffffffffffffffffffffffffffff163373ffffffffffffffffffffffffffffffffffffffff16141515610b6857600080fd5b610bb1600160008473ffffffffffffffffffffffffffffffffffffffff1673ffffffffffffffffffffffffffffffffffffffff16815260200190815260200160002054826111ee565b600160008473ffffffffffffffffffffffffffffffffffffffff1673ffffffffffffffffffffffffffffffffffffffff16815260200190815260200160002081905550610c00600354826111ee565b6003819055505050565b6000600560009054906101000a900473ffffffffffffffffffffffffffffffffffffffff16905090565b600560009054906101000a900473ffffffffffffffffffffffffffffffffffffffff1673ffffffffffffffffffffffffffffffffffffffff163373ffffffffffffffffffffffffffffffffffffffff16141515610c9057600080fd5b80600560006101000a81548173ffffffffffffffffffffffffffffffffffffffff021916908373ffffffffffffffffffffffffffffffffffffffff16021790555050565b6040805190810160405280600381526020017f475247000000000000000000000000000000000000000000000000000000000081525081565b6000610d198383611218565b905092915050565b600080600460009054906101000a900473ffffffffffffffffffffffffffffffffffffffff1690508073ffffffffffffffffffffffffffffffffffffffff1663d410e0c2846000604051602001526040518263ffffffff167c0100000000000000000000000000000000000000000000000000000000028152600401808273ffffffffffffffffffffffffffffffffffffffff1673ffffffffffffffffffffffffffffffffffffffff168152602001915050602060405180830381600087803b1515610dec57600080fd5b6102c65a03f11515610dfd57600080fd5b505050604051805190505050919050565b6000600260008473ffffffffffffffffffffffffffffffffffffffff1673ffffffffffffffffffffffffffffffffffffffff16815260200190815260200160002060008373ffffffffffffffffffffffffffffffffffffffff1673ffffffffffffffffffffffffffffffffffffffff16815260200190815260200160002054905092915050565b60006012905090565b6000600460009054906101000a900473ffffffffffffffffffffffffffffffffffffffff16905090565b600080600260008673ffffffffffffffffffffffffffffffffffffffff1673ffffffffffffffffffffffffffffffffffffffff16815260200190815260200160002060003373ffffffffffffffffffffffffffffffffffffffff1673ffffffffffffffffffffffffffffffffffffffff16815260200190815260200160002054905082600160008773ffffffffffffffffffffffffffffffffffffffff1673ffffffffffffffffffffffffffffffffffffffff1681526020019081526020016000205410158015610f995750828110155b80156110255750600160008573ffffffffffffffffffffffffffffffffffffffff1673ffffffffffffffffffffffffffffffffffffffff1681526020019081526020016000205483600160008773ffffffffffffffffffffffffffffffffffffffff1673ffffffffffffffffffffffffffffffffffffffff168152602001908152602001600020540110155b151561103057600080fd5b82600160008673ffffffffffffffffffffffffffffffffffffffff1673ffffffffffffffffffffffffffffffffffffffff1681526020019081526020016000206000828254019250508190555082600160008773ffffffffffffffffffffffffffffffffffffffff1673ffffffffffffffffffffffffffffffffffffffff168152602001908152602001600020600082825403925050819055507fffffffffffffffffffffffffffffffffffffffffffffffffffffffffffffffff81101561117d5782600260008773ffffffffffffffffffffffffffffffffffffffff1673ffffffffffffffffffffffffffffffffffffffff16815260200190815260200160002060003373ffffffffffffffffffffffffffffffffffffffff1673ffffffffffffffffffffffffffffffffffffffff168152602001908152602001600020600082825403925050819055505b8373ffffffffffffffffffffffffffffffffffffffff168573ffffffffffffffffffffffffffffffffffffffff167fddf252ad1be2c89b69c2b068fc378daa952ba7f163c4a11628f55a4df523b3ef856040518082815260200191505060405180910390a360019150509392505050565b60008082840190508381101580156112065750828110155b151561120e57fe5b8091505092915050565b600081600160003373ffffffffffffffffffffffffffffffffffffffff1673ffffffffffffffffffffffffffffffffffffffff16815260200190815260200160002054101580156112e85750600160008473ffffffffffffffffffffffffffffffffffffffff1673ffffffffffffffffffffffffffffffffffffffff1681526020019081526020016000205482600160008673ffffffffffffffffffffffffffffffffffffffff1673ffffffffffffffffffffffffffffffffffffffff1681526020019081526020016000205401115b156113f55781600160003373ffffffffffffffffffffffffffffffffffffffff1673ffffffffffffffffffffffffffffffffffffffff1681526020019081526020016000206000828254039250508190555081600160008573ffffffffffffffffffffffffffffffffffffffff1673ffffffffffffffffffffffffffffffffffffffff168152602001908152602001600020600082825401925050819055508273ffffffffffffffffffffffffffffffffffffffff163373ffffffffffffffffffffffffffffffffffffffff167fddf252ad1be2c89b69c2b068fc378daa952ba7f163c4a11628f55a4df523b3ef846040518082815260200191505060405180910390a3600190506113fa565b600090505b92915050565b6020604051908101604052806000815250905600a165627a7a72305820f1ebc6ec97ea2ee8566edef70babe5fe727afdc1d7374eaa9402837b3c1214bc0029",
  "source": "/*\n\n Copyright 2017-2018 RigoBlock, Rigo Investment Sagl.\n\n Licensed under the Apache License, Version 2.0 (the \"License\");\n you may not use this file except in compliance with the License.\n You may obtain a copy of the License at\n\n     http://www.apache.org/licenses/LICENSE-2.0\n\n Unless required by applicable law or agreed to in writing, software\n distributed under the License is distributed on an \"AS IS\" BASIS,\n WITHOUT WARRANTIES OR CONDITIONS OF ANY KIND, either express or implied.\n See the License for the specific language governing permissions and\n limitations under the License.\n\n*/\n\npragma solidity ^0.4.19;\n\nimport { InflationFace as Inflation } from \"../Inflation/InflationFace.sol\";\n\nimport { SafeMath } from \"../../utils/SafeMath/SafeMath.sol\";\nimport { UnlimitedAllowanceToken } from \"../../utils/tokens/UnlimitedAllowanceToken/UnlimitedAllowanceToken.sol\";\nimport { RigoTokenFace } from \"./RigoTokenFace.sol\";\n\n/// @title Rigo Token - Rules of the Rigo token.\n/// @author Gabriele Rigo - <gab@rigoblock.com>\n/// @notice UnlimitedAllowanceToken is ERC20\ncontract RigoToken is UnlimitedAllowanceToken, SafeMath, RigoTokenFace {\n\n    string constant public name = \"Rigo Token\";\n    string constant public symbol = \"GRG\";\n    uint constant public decimals = 18;\n\n    uint public totalSupply = 10**27; // 1 billion tokens, 18 decimal places\n    address public minter;\n    address public rigoblock;\n\n    // EVENTS\n\n    event TokenMinted(address indexed recipient, uint amount);\n\n    // MODIFIERS\n\n    modifier only_minter {\n        require(msg.sender == minter);\n        _;\n    }\n\n    modifier only_rigoblock {\n        require(msg.sender == rigoblock);\n        _;\n    }\n\n    function RigoToken(address _setMinter, address _setRigoblock) public {\n        minter = _setMinter;\n        rigoblock = _setRigoblock;\n        balances[msg.sender] = totalSupply;\n    }\n\n    // CORE FUNCTIONS\n\n    /// @dev Allows minter to create new tokens\n    /// @param _recipient Address of who receives new tokens\n    /// @param _amount Number of new tokens\n    function mintToken(address _recipient, uint _amount) external only_minter {\n        balances[_recipient] = safeAdd(balances[_recipient], _amount);\n        totalSupply = safeAdd(totalSupply, _amount);\n    }\n\n    /// @dev Allows transfers of tokens\n    /// @param _recipient Address of who receives tokens\n    /// @param _amount Number of new tokens\n    /// @return Bool the transaction executed successfully\n    function transfer(address _recipient, uint _amount)\n        public\n        returns (bool success)\n    {\n        return super.transfer(_recipient, _amount);\n    }\n\n    /// @dev Allows delegated transfers of tokens from another contract\n    /// @param _sender Address of the token sender\n    /// @param _recipient Address of who receives tokens\n    /// @param _amount Number of new tokens\n    /// @return Bool the transaction executed successfully\n    function transferFrom(address _sender, address _recipient, uint _amount)\n        public\n        returns (bool success)\n    {\n        return super.transferFrom(_sender, _recipient, _amount);\n    }\n\n    /// @dev Allows rigoblock dao to change minter\n    /// @param _newAddress Address of the new minter\n    function changeMintingAddress(address _newAddress) public only_rigoblock {\n        minter = _newAddress;\n    }\n\n    /// @dev Allows rigoblock dao to upgrade dao\n    /// @param _newAddress Address of the new rigoblock dao\n    function changeRigoblockAddress(address _newAddress) public only_rigoblock {\n        rigoblock = _newAddress;\n    }\n\n    // CONSTANT PUBLIC FUNCTIONS\n\n    /// @dev Returns name of Rigo token\n    /// @return String with name\n    function getName() public constant returns (string) {\n        return name;\n    }\n\n    /// @dev Returns symbol of Rigo token\n    /// @return String with symbol\n    function getSymbol() public constant returns (string) {\n        return symbol;\n    }\n\n    /// @dev Returns decimals of Rigo token\n    /// @return Number of decimals\n    function getDecimals() public constant returns (uint) {\n        return decimals;\n    }\n\n    /// @dev Returns the minter\n    /// @return Address of the minter\n    function getMinter() public constant returns (address) {\n        return minter;\n    }\n\n    /// @dev Returns the rigoblock dao\n    /// @return Address of the rigoblock dao\n    function getRigoblock() public constant returns (address) {\n        return rigoblock;\n    }\n\n    /// @dev Returns the reward/inflation factor for a said group\n    /// @param _group Address of the group/factory\n    /// @return Value of the inflation factor\n    function getInflationFactor(address _group) public constant returns (uint) {\n        Inflation inflation = Inflation(minter);\n        inflation.getInflationFactor(_group);\n    }\n}\n",
  "sourcePath": "/home/gab/truffle/contracts/contracts/RigoToken/RigoToken/RigoToken.sol",
  "compiler": {
    "name": "solc",
    "version": "0.4.19+commit.c4cbbb05.Emscripten.clang"
  },
  "schemaVersion": "2.0.0",
  "updatedAt": "2018-03-05T01:35:43.791Z"
}