{
  "contractName": "RigoTokenFace",
  "abi": [
    {
      "anonymous": false,
      "inputs": [
        {
          "indexed": true,
          "name": "recipient",
          "type": "address"
        },
        {
          "indexed": false,
          "name": "amount",
          "type": "uint256"
        }
      ],
      "name": "TokenMinted",
      "type": "event"
    },
    {
      "constant": false,
      "inputs": [
        {
          "name": "_recipient",
          "type": "address"
        },
        {
          "name": "_amount",
          "type": "uint256"
        }
      ],
      "name": "mintToken",
      "outputs": [],
      "payable": false,
      "stateMutability": "nonpayable",
      "type": "function"
    },
    {
      "constant": false,
      "inputs": [
        {
          "name": "_newAddress",
          "type": "address"
        }
      ],
      "name": "changeMintingAddress",
      "outputs": [],
      "payable": false,
      "stateMutability": "nonpayable",
      "type": "function"
    },
    {
      "constant": false,
      "inputs": [
        {
          "name": "_newAddress",
          "type": "address"
        }
      ],
      "name": "changeRigoblockAddress",
      "outputs": [],
      "payable": false,
      "stateMutability": "nonpayable",
      "type": "function"
    },
    {
      "constant": true,
      "inputs": [],
      "name": "getName",
      "outputs": [
        {
          "name": "",
          "type": "string"
        }
      ],
      "payable": false,
      "stateMutability": "view",
      "type": "function"
    },
    {
      "constant": true,
      "inputs": [],
      "name": "getSymbol",
      "outputs": [
        {
          "name": "",
          "type": "string"
        }
      ],
      "payable": false,
      "stateMutability": "view",
      "type": "function"
    },
    {
      "constant": true,
      "inputs": [],
      "name": "getDecimals",
      "outputs": [
        {
          "name": "",
          "type": "uint256"
        }
      ],
      "payable": false,
      "stateMutability": "view",
      "type": "function"
    },
    {
      "constant": true,
      "inputs": [],
      "name": "getMinter",
      "outputs": [
        {
          "name": "",
          "type": "address"
        }
      ],
      "payable": false,
      "stateMutability": "view",
      "type": "function"
    },
    {
      "constant": true,
      "inputs": [],
      "name": "getRigoblock",
      "outputs": [
        {
          "name": "",
          "type": "address"
        }
      ],
      "payable": false,
      "stateMutability": "view",
      "type": "function"
    },
    {
      "constant": true,
      "inputs": [
        {
          "name": "_group",
          "type": "address"
        }
      ],
      "name": "getInflationFactor",
      "outputs": [
        {
          "name": "",
          "type": "uint256"
        }
      ],
      "payable": false,
      "stateMutability": "view",
      "type": "function"
    }
  ],
  "bytecode": "0x6060604052341561000f57600080fd5b6104048061001e6000396000f300606060405260043610610099576000357c0100000000000000000000000000000000000000000000000000000000900463ffffffff168063150704011461009e57806317d7de7c1461012c57806351892f07146101ba57806379c65068146101f357806387b669de14610235578063882f7e831461028a578063d410e0c2146102c3578063f0141d8414610310578063f366751714610339575b600080fd5b34156100a957600080fd5b6100b161038e565b6040518080602001828103825283818151815260200191508051906020019080838360005b838110156100f15780820151818401526020810190506100d6565b50505050905090810190601f16801561011e5780820380516001836020036101000a031916815260200191505b509250505060405180910390f35b341561013757600080fd5b61013f610399565b6040518080602001828103825283818151815260200191508051906020019080838360005b8381101561017f578082015181840152602081019050610164565b50505050905090810190601f1680156101ac5780820380516001836020036101000a031916815260200191505b509250505060405180910390f35b34156101c557600080fd5b6101f1600480803573ffffffffffffffffffffffffffffffffffffffff169060200190919050506103a4565b005b34156101fe57600080fd5b610233600480803573ffffffffffffffffffffffffffffffffffffffff169060200190919080359060200190919050506103a7565b005b341561024057600080fd5b6102486103ab565b604051808273ffffffffffffffffffffffffffffffffffffffff1673ffffffffffffffffffffffffffffffffffffffff16815260200191505060405180910390f35b341561029557600080fd5b6102c1600480803573ffffffffffffffffffffffffffffffffffffffff169060200190919050506103b0565b005b34156102ce57600080fd5b6102fa600480803573ffffffffffffffffffffffffffffffffffffffff169060200190919050506103b3565b6040518082815260200191505060405180910390f35b341561031b57600080fd5b6103236103ba565b6040518082815260200191505060405180910390f35b341561034457600080fd5b61034c6103bf565b604051808273ffffffffffffffffffffffffffffffffffffffff1673ffffffffffffffffffffffffffffffffffffffff16815260200191505060405180910390f35b6103966103c4565b90565b6103a16103c4565b90565b50565b5050565b600090565b50565b6000919050565b600090565b600090565b6020604051908101604052806000815250905600a165627a7a72305820654611312fc80354c236494384c2ac8c501428eac269e59a9a5947fa06512eab0029",
  "source": "/*\n\n Copyright 2017-2018 RigoBlock, Rigo Investment Sagl.\n\n Licensed under the Apache License, Version 2.0 (the \"License\");\n you may not use this file except in compliance with the License.\n You may obtain a copy of the License at\n\n     http://www.apache.org/licenses/LICENSE-2.0\n\n Unless required by applicable law or agreed to in writing, software\n distributed under the License is distributed on an \"AS IS\" BASIS,\n WITHOUT WARRANTIES OR CONDITIONS OF ANY KIND, either express or implied.\n See the License for the specific language governing permissions and\n limitations under the License.\n\n*/\n\npragma solidity ^0.4.19;\n\n/// @title Rigo Token Interface - Allows interaction with the Rigo token.\n/// @author Gabriele Rigo - <gab@rigoblock.com>\ncontract RigoTokenFace {\n\n    // EVENTS\n\n    event TokenMinted(address indexed recipient, uint amount);\n\n    // CORE FUNCTIONS\n\n    function mintToken(address _recipient, uint _amount) external {}\n    //function transfer(address _recipient, uint _amount) public returns (bool success) {}\n    //function transferFrom(address _sender, address _recipient, uint _amount) public returns (bool success) {}\n    function changeMintingAddress(address _newAddress) public {}\n    function changeRigoblockAddress(address _newAddress) public {}\n\n    // CONSTANT PUBLIC FUNCTIONS\n\n    //function balanceOf(address _owner) constant returns (uint256 balance) {}\n    //function totalSupply() constant returns (uint256 totalSupply) {}\n    function getName() public constant returns (string) {}\n    function getSymbol() public constant returns (string) {}\n    function getDecimals() public constant returns (uint) {}\n    function getMinter() public constant returns (address) {}\n    function getRigoblock() public constant returns (address) {}\n    function getInflationFactor(address _group) public constant returns (uint) {}\n}\n",
  "sourcePath": "/home/gab/truffle/contracts/contracts/RigoToken/RigoToken/RigoTokenFace.sol",
  "compiler": {
    "name": "solc",
    "version": "0.4.19+commit.c4cbbb05.Emscripten.clang"
  },
  "schemaVersion": "2.0.0",
  "updatedAt": "2018-03-05T01:35:43.798Z"
}