{
  "contractName": "RigoTokenFace",
  "abi": [
    {
      "anonymous": false,
      "inputs": [
        {
          "indexed": true,
          "name": "recipient",
          "type": "address"
        },
        {
          "indexed": false,
          "name": "amount",
          "type": "uint256"
        }
      ],
      "name": "TokenMinted",
      "type": "event"
    },
    {
      "constant": false,
      "inputs": [
        {
          "name": "_recipient",
          "type": "address"
        },
        {
          "name": "_amount",
          "type": "uint256"
        }
      ],
      "name": "mintToken",
      "outputs": [],
      "payable": false,
      "stateMutability": "nonpayable",
      "type": "function"
    },
    {
      "constant": false,
      "inputs": [
        {
          "name": "_newAddress",
          "type": "address"
        }
      ],
      "name": "changeMintingAddress",
      "outputs": [],
      "payable": false,
      "stateMutability": "nonpayable",
      "type": "function"
    },
    {
      "constant": false,
      "inputs": [
        {
          "name": "_newAddress",
          "type": "address"
        }
      ],
      "name": "changeRigoblockAddress",
      "outputs": [],
      "payable": false,
      "stateMutability": "nonpayable",
      "type": "function"
    },
    {
      "constant": true,
      "inputs": [],
      "name": "getName",
      "outputs": [
        {
          "name": "",
          "type": "string"
        }
      ],
      "payable": false,
      "stateMutability": "view",
      "type": "function"
    },
    {
      "constant": true,
      "inputs": [],
      "name": "getSymbol",
      "outputs": [
        {
          "name": "",
          "type": "string"
        }
      ],
      "payable": false,
      "stateMutability": "view",
      "type": "function"
    },
    {
      "constant": true,
      "inputs": [],
      "name": "getDecimals",
      "outputs": [
        {
          "name": "",
          "type": "uint256"
        }
      ],
      "payable": false,
      "stateMutability": "view",
      "type": "function"
    },
    {
      "constant": true,
      "inputs": [],
      "name": "getMinter",
      "outputs": [
        {
          "name": "",
          "type": "address"
        }
      ],
      "payable": false,
      "stateMutability": "view",
      "type": "function"
    },
    {
      "constant": true,
      "inputs": [],
      "name": "getRigoblock",
      "outputs": [
        {
          "name": "",
          "type": "address"
        }
      ],
      "payable": false,
      "stateMutability": "view",
      "type": "function"
    },
    {
      "constant": true,
      "inputs": [
        {
          "name": "_group",
          "type": "address"
        }
      ],
      "name": "getInflationFactor",
      "outputs": [
        {
          "name": "",
          "type": "uint256"
        }
      ],
      "payable": false,
      "stateMutability": "view",
      "type": "function"
    }
  ],
  "bytecode": "0x6060604052341561000f57600080fd5b61026c8061001e6000396000f3006060604052600436106100985763ffffffff7c010000000000000000000000000000000000000000000000000000000060003504166315070401811461009d57806317d7de7c1461009d57806351892f071461012757806379c650681461015557806387b669de14610184578063882f7e8314610127578063d410e0c2146101c0578063f0141d84146101fe578063f366751714610184575b600080fd5b34156100a857600080fd5b6100b0610211565b60405160208082528190810183818151815260200191508051906020019080838360005b838110156100ec5780820151838201526020016100d4565b50505050905090810190601f1680156101195780820380516001836020036101000a031916815260200191505b509250505060405180910390f35b341561013257600080fd5b61015373ffffffffffffffffffffffffffffffffffffffff6004351661021c565b005b341561016057600080fd5b61015373ffffffffffffffffffffffffffffffffffffffff6004351660243561021f565b341561018f57600080fd5b610197610223565b60405173ffffffffffffffffffffffffffffffffffffffff909116815260200160405180910390f35b34156101cb57600080fd5b6101ec73ffffffffffffffffffffffffffffffffffffffff60043516610228565b60405190815260200160405180910390f35b341561020957600080fd5b6101ec610223565b61021961022e565b90565b50565b5050565b600090565b50600090565b602060405190810160405260008152905600a165627a7a72305820ae6089e5b7d5ac0514db8f2bcf6f2258a753f0f55dea123fd1d6adb2c65e528e0029",
  "source": "/*\n\n Copyright 2017-2018 RigoBlock, Rigo Investment Sagl.\n\n Licensed under the Apache License, Version 2.0 (the \"License\");\n you may not use this file except in compliance with the License.\n You may obtain a copy of the License at\n\n     http://www.apache.org/licenses/LICENSE-2.0\n\n Unless required by applicable law or agreed to in writing, software\n distributed under the License is distributed on an \"AS IS\" BASIS,\n WITHOUT WARRANTIES OR CONDITIONS OF ANY KIND, either express or implied.\n See the License for the specific language governing permissions and\n limitations under the License.\n\n*/\n\npragma solidity ^0.4.20;\n\n/// @title Rigo Token Interface - Allows interaction with the Rigo token.\n/// @author Gabriele Rigo - <gab@rigoblock.com>\ncontract RigoTokenFace {\n\n    // EVENTS\n\n    event TokenMinted(address indexed recipient, uint amount);\n\n    // CORE FUNCTIONS\n\n    function mintToken(address _recipient, uint _amount) external {}\n    //function transfer(address _recipient, uint _amount) public returns (bool success) {}\n    //function transferFrom(address _sender, address _recipient, uint _amount) public returns (bool success) {}\n    function changeMintingAddress(address _newAddress) public {}\n    function changeRigoblockAddress(address _newAddress) public {}\n\n    // CONSTANT PUBLIC FUNCTIONS\n\n    //function balanceOf(address _owner) view returns (uint256 balance) {}\n    //function totalSupply() view returns (uint256 totalSupply) {}\n    function getName() public view returns (string) {}\n    function getSymbol() public view returns (string) {}\n    function getDecimals() public view returns (uint) {}\n    function getMinter() public view returns (address) {}\n    function getRigoblock() public view returns (address) {}\n    function getInflationFactor(address _group) public view returns (uint) {}\n}\n",
  "sourcePath": "/home/gab/truffle/contracts/contracts/RigoToken/RigoToken/RigoTokenFace.sol",
  "compiler": {
    "name": "solc",
    "version": "0.4.19+commit.c4cbbb05.Emscripten.clang"
  },
  "schemaVersion": "2.0.0",
  "updatedAt": "2018-03-05T21:05:52.590Z"
}