{
  "contractName": "UnlimitedAllowanceToken",
  "abi": [
    {
      "constant": false,
      "inputs": [
        {
          "name": "_spender",
          "type": "address"
        },
        {
          "name": "_value",
          "type": "uint256"
        }
      ],
      "name": "approve",
      "outputs": [
        {
          "name": "success",
          "type": "bool"
        }
      ],
      "payable": false,
      "stateMutability": "nonpayable",
      "type": "function"
    },
    {
      "constant": true,
      "inputs": [],
      "name": "totalSupply",
      "outputs": [
        {
          "name": "",
          "type": "uint256"
        }
      ],
      "payable": false,
      "stateMutability": "view",
      "type": "function"
    },
    {
      "constant": true,
      "inputs": [
        {
          "name": "_owner",
          "type": "address"
        }
      ],
      "name": "balanceOf",
      "outputs": [
        {
          "name": "",
          "type": "uint256"
        }
      ],
      "payable": false,
      "stateMutability": "view",
      "type": "function"
    },
    {
      "constant": false,
      "inputs": [
        {
          "name": "_to",
          "type": "address"
        },
        {
          "name": "_value",
          "type": "uint256"
        }
      ],
      "name": "transfer",
      "outputs": [
        {
          "name": "success",
          "type": "bool"
        }
      ],
      "payable": false,
      "stateMutability": "nonpayable",
      "type": "function"
    },
    {
      "constant": true,
      "inputs": [
        {
          "name": "_owner",
          "type": "address"
        },
        {
          "name": "_spender",
          "type": "address"
        }
      ],
      "name": "allowance",
      "outputs": [
        {
          "name": "",
          "type": "uint256"
        }
      ],
      "payable": false,
      "stateMutability": "view",
      "type": "function"
    },
    {
      "anonymous": false,
      "inputs": [
        {
          "indexed": true,
          "name": "_from",
          "type": "address"
        },
        {
          "indexed": true,
          "name": "_to",
          "type": "address"
        },
        {
          "indexed": false,
          "name": "_value",
          "type": "uint256"
        }
      ],
      "name": "Transfer",
      "type": "event"
    },
    {
      "anonymous": false,
      "inputs": [
        {
          "indexed": true,
          "name": "_owner",
          "type": "address"
        },
        {
          "indexed": true,
          "name": "_spender",
          "type": "address"
        },
        {
          "indexed": false,
          "name": "_value",
          "type": "uint256"
        }
      ],
      "name": "Approval",
      "type": "event"
    },
    {
      "constant": false,
      "inputs": [
        {
          "name": "_from",
          "type": "address"
        },
        {
          "name": "_to",
          "type": "address"
        },
        {
          "name": "_value",
          "type": "uint256"
        }
      ],
      "name": "transferFrom",
      "outputs": [
        {
          "name": "",
          "type": "bool"
        }
      ],
      "payable": false,
      "stateMutability": "nonpayable",
      "type": "function"
    }
  ],
  "bytecode": "0x6060604052341561000f57600080fd5b6104328061001e6000396000f3006060604052600436106100775763ffffffff7c0100000000000000000000000000000000000000000000000000000000600035041663095ea7b3811461007c57806318160ddd146100b257806323b872dd146100d757806370a08231146100ff578063a9059cbb1461011e578063dd62ed3e14610140575b600080fd5b341561008757600080fd5b61009e600160a060020a0360043516602435610165565b604051901515815260200160405180910390f35b34156100bd57600080fd5b6100c56101d2565b60405190815260200160405180910390f35b34156100e257600080fd5b61009e600160a060020a03600435811690602435166044356101d8565b341561010a57600080fd5b6100c5600160a060020a0360043516610304565b341561012957600080fd5b61009e600160a060020a036004351660243561031f565b341561014b57600080fd5b6100c5600160a060020a03600435811690602435166103db565b600160a060020a03338116600081815260026020908152604080832094871680845294909152808220859055909291907f8c5be1e5ebec7d5bd14f71427d1e84f3dd0314c0f7b2291e5b200ac8c7c3b9259085905190815260200160405180910390a35060015b92915050565b60005481565b600160a060020a03808416600081815260026020908152604080832033909516835293815283822054928252600190529182205483901080159061021c5750828110155b80156102425750600160a060020a03841660009081526001602052604090205483810110155b151561024d57600080fd5b600160a060020a03808516600090815260016020526040808220805487019055918716815220805484900390556000198110156102b257600160a060020a03808616600090815260026020908152604080832033909416835292905220805484900390555b83600160a060020a031685600160a060020a03167fddf252ad1be2c89b69c2b068fc378daa952ba7f163c4a11628f55a4df523b3ef8560405190815260200160405180910390a3506001949350505050565b600160a060020a031660009081526001602052604090205490565b600160a060020a0333166000908152600160205260408120548290108015906103615750600160a060020a038316600090815260016020526040902054828101115b156103d357600160a060020a033381166000818152600160205260408082208054879003905592861680825290839020805486019055917fddf252ad1be2c89b69c2b068fc378daa952ba7f163c4a11628f55a4df523b3ef9085905190815260200160405180910390a35060016101cc565b5060006101cc565b600160a060020a039182166000908152600260209081526040808320939094168252919091522054905600a165627a7a72305820a59ee01b268c0d7f107a88a4b76f7246efdca09ae005d30f30bf23300764696d0029",
  "source": "pragma solidity ^0.4.20;\n\nimport { ERC20 } from \"../ERC20/ERC20.sol\";\n\ncontract UnlimitedAllowanceToken is ERC20 {\n\n    uint constant MAX_UINT = 2**256 - 1;\n\n    /// @dev ERC20 transferFrom, modified such that an allowance of MAX_UINT represents an unlimited allowance.\n    /// @param _from Address to transfer from.\n    /// @param _to Address to transfer to.\n    /// @param _value Amount to transfer.\n    /// @return Success of transfer.\n    function transferFrom(address _from, address _to, uint _value)\n        public\n        returns (bool)\n    {\n        uint allowance = allowed[_from][msg.sender];\n        require(\n            balances[_from] >= _value\n            && allowance >= _value\n            && balances[_to] + _value >= balances[_to]\n        );\n        balances[_to] += _value;\n        balances[_from] -= _value;\n        if (allowance < MAX_UINT) {\n            allowed[_from][msg.sender] -= _value;\n        }\n        Transfer(_from, _to, _value);\n        return true;\n    }\n}\n",
  "sourcePath": "/home/gab/truffle/contracts/contracts/utils/tokens/UnlimitedAllowanceToken/UnlimitedAllowanceToken.sol",
  "compiler": {
    "name": "solc",
    "version": "0.4.19+commit.c4cbbb05.Emscripten.clang"
  },
  "schemaVersion": "2.0.0",
  "updatedAt": "2018-03-05T21:05:52.671Z"
}