{
  "contractName": "VaultEventfulFace",
  "abi": [
    {
      "anonymous": false,
      "inputs": [
        {
          "indexed": true,
          "name": "vault",
          "type": "address"
        },
        {
          "indexed": true,
          "name": "from",
          "type": "address"
        },
        {
          "indexed": true,
          "name": "to",
          "type": "address"
        },
        {
          "indexed": false,
          "name": "amount",
          "type": "uint256"
        },
        {
          "indexed": false,
          "name": "revenue",
          "type": "uint256"
        },
        {
          "indexed": false,
          "name": "name",
          "type": "bytes"
        },
        {
          "indexed": false,
          "name": "symbol",
          "type": "bytes"
        }
      ],
      "name": "BuyVault",
      "type": "event"
    },
    {
      "anonymous": false,
      "inputs": [
        {
          "indexed": true,
          "name": "vault",
          "type": "address"
        },
        {
          "indexed": true,
          "name": "from",
          "type": "address"
        },
        {
          "indexed": true,
          "name": "to",
          "type": "address"
        },
        {
          "indexed": false,
          "name": "amount",
          "type": "uint256"
        },
        {
          "indexed": false,
          "name": "revenue",
          "type": "uint256"
        },
        {
          "indexed": false,
          "name": "name",
          "type": "bytes"
        },
        {
          "indexed": false,
          "name": "symbol",
          "type": "bytes"
        }
      ],
      "name": "SellVault",
      "type": "event"
    },
    {
      "anonymous": false,
      "inputs": [
        {
          "indexed": true,
          "name": "vault",
          "type": "address"
        },
        {
          "indexed": true,
          "name": "from",
          "type": "address"
        },
        {
          "indexed": true,
          "name": "to",
          "type": "address"
        },
        {
          "indexed": false,
          "name": "fee",
          "type": "uint256"
        }
      ],
      "name": "NewFee",
      "type": "event"
    },
    {
      "anonymous": false,
      "inputs": [
        {
          "indexed": true,
          "name": "vault",
          "type": "address"
        },
        {
          "indexed": true,
          "name": "from",
          "type": "address"
        },
        {
          "indexed": true,
          "name": "to",
          "type": "address"
        },
        {
          "indexed": false,
          "name": "collector",
          "type": "address"
        }
      ],
      "name": "NewCollector",
      "type": "event"
    },
    {
      "anonymous": false,
      "inputs": [
        {
          "indexed": true,
          "name": "vault",
          "type": "address"
        },
        {
          "indexed": true,
          "name": "from",
          "type": "address"
        },
        {
          "indexed": true,
          "name": "to",
          "type": "address"
        },
        {
          "indexed": false,
          "name": "vaultDao",
          "type": "address"
        }
      ],
      "name": "VaultDao",
      "type": "event"
    },
    {
      "anonymous": false,
      "inputs": [
        {
          "indexed": true,
          "name": "vault",
          "type": "address"
        },
        {
          "indexed": true,
          "name": "validator",
          "type": "address"
        },
        {
          "indexed": true,
          "name": "casper",
          "type": "address"
        },
        {
          "indexed": false,
          "name": "withdrawal",
          "type": "address"
        },
        {
          "indexed": false,
          "name": "amount",
          "type": "uint256"
        }
      ],
      "name": "DepositCasper",
      "type": "event"
    },
    {
      "anonymous": false,
      "inputs": [
        {
          "indexed": true,
          "name": "vault",
          "type": "address"
        },
        {
          "indexed": true,
          "name": "validator",
          "type": "address"
        },
        {
          "indexed": true,
          "name": "casper",
          "type": "address"
        },
        {
          "indexed": false,
          "name": "validatorIndex",
          "type": "uint256"
        }
      ],
      "name": "WithdrawCasper",
      "type": "event"
    },
    {
      "anonymous": false,
      "inputs": [
        {
          "indexed": true,
          "name": "vault",
          "type": "address"
        },
        {
          "indexed": true,
          "name": "group",
          "type": "address"
        },
        {
          "indexed": true,
          "name": "owner",
          "type": "address"
        },
        {
          "indexed": false,
          "name": "vaultId",
          "type": "uint256"
        },
        {
          "indexed": false,
          "name": "name",
          "type": "string"
        },
        {
          "indexed": false,
          "name": "symbol",
          "type": "string"
        }
      ],
      "name": "VaultCreated",
      "type": "event"
    },
    {
      "constant": false,
      "inputs": [
        {
          "name": "_who",
          "type": "address"
        },
        {
          "name": "_targetVault",
          "type": "address"
        },
        {
          "name": "_value",
          "type": "uint256"
        },
        {
          "name": "_amount",
          "type": "uint256"
        },
        {
          "name": "_name",
          "type": "bytes"
        },
        {
          "name": "_symbol",
          "type": "bytes"
        }
      ],
      "name": "buyVault",
      "outputs": [
        {
          "name": "success",
          "type": "bool"
        }
      ],
      "payable": false,
      "stateMutability": "nonpayable",
      "type": "function"
    },
    {
      "constant": false,
      "inputs": [
        {
          "name": "_who",
          "type": "address"
        },
        {
          "name": "_targetVault",
          "type": "address"
        },
        {
          "name": "_amount",
          "type": "uint256"
        },
        {
          "name": "_revenue",
          "type": "uint256"
        },
        {
          "name": "_name",
          "type": "bytes"
        },
        {
          "name": "_symbol",
          "type": "bytes"
        }
      ],
      "name": "sellVault",
      "outputs": [
        {
          "name": "success",
          "type": "bool"
        }
      ],
      "payable": false,
      "stateMutability": "nonpayable",
      "type": "function"
    },
    {
      "constant": false,
      "inputs": [
        {
          "name": "_who",
          "type": "address"
        },
        {
          "name": "_targetVault",
          "type": "address"
        },
        {
          "name": "_ratio",
          "type": "uint256"
        }
      ],
      "name": "changeRatio",
      "outputs": [
        {
          "name": "success",
          "type": "bool"
        }
      ],
      "payable": false,
      "stateMutability": "nonpayable",
      "type": "function"
    },
    {
      "constant": false,
      "inputs": [
        {
          "name": "_who",
          "type": "address"
        },
        {
          "name": "_targetVault",
          "type": "address"
        },
        {
          "name": "_transactionFee",
          "type": "uint256"
        }
      ],
      "name": "setTransactionFee",
      "outputs": [
        {
          "name": "success",
          "type": "bool"
        }
      ],
      "payable": false,
      "stateMutability": "nonpayable",
      "type": "function"
    },
    {
      "constant": false,
      "inputs": [
        {
          "name": "_who",
          "type": "address"
        },
        {
          "name": "_targetVault",
          "type": "address"
        },
        {
          "name": "_feeCollector",
          "type": "address"
        }
      ],
      "name": "changeFeeCollector",
      "outputs": [
        {
          "name": "success",
          "type": "bool"
        }
      ],
      "payable": false,
      "stateMutability": "nonpayable",
      "type": "function"
    },
    {
      "constant": false,
      "inputs": [
        {
          "name": "_who",
          "type": "address"
        },
        {
          "name": "_targetVault",
          "type": "address"
        },
        {
          "name": "_vaultDao",
          "type": "address"
        }
      ],
      "name": "changeVaultDao",
      "outputs": [
        {
          "name": "success",
          "type": "bool"
        }
      ],
      "payable": false,
      "stateMutability": "nonpayable",
      "type": "function"
    },
    {
      "constant": false,
      "inputs": [
        {
          "name": "_who",
          "type": "address"
        },
        {
          "name": "_targetVault",
          "type": "address"
        },
        {
          "name": "_casper",
          "type": "address"
        },
        {
          "name": "_validation",
          "type": "address"
        },
        {
          "name": "_withdrawal",
          "type": "address"
        },
        {
          "name": "_amount",
          "type": "uint256"
        }
      ],
      "name": "depositToCasper",
      "outputs": [
        {
          "name": "success",
          "type": "bool"
        }
      ],
      "payable": false,
      "stateMutability": "nonpayable",
      "type": "function"
    },
    {
      "constant": false,
      "inputs": [
        {
          "name": "_who",
          "type": "address"
        },
        {
          "name": "_targetVault",
          "type": "address"
        },
        {
          "name": "_casper",
          "type": "address"
        },
        {
          "name": "_validatorIndex",
          "type": "uint256"
        }
      ],
      "name": "withdrawFromCasper",
      "outputs": [
        {
          "name": "success",
          "type": "bool"
        }
      ],
      "payable": false,
      "stateMutability": "nonpayable",
      "type": "function"
    },
    {
      "constant": false,
      "inputs": [
        {
          "name": "_who",
          "type": "address"
        },
        {
          "name": "_vaultFactory",
          "type": "address"
        },
        {
          "name": "_newVault",
          "type": "address"
        },
        {
          "name": "_name",
          "type": "string"
        },
        {
          "name": "_symbol",
          "type": "string"
        },
        {
          "name": "_vaultId",
          "type": "uint256"
        },
        {
          "name": "_owner",
          "type": "address"
        }
      ],
      "name": "createVault",
      "outputs": [
        {
          "name": "success",
          "type": "bool"
        }
      ],
      "payable": false,
      "stateMutability": "nonpayable",
      "type": "function"
    }
  ],
  "bytecode": "0x6060604052341561000f57600080fd5b6106e08061001e6000396000f300606060405260043610610099576000357c0100000000000000000000000000000000000000000000000000000000900463ffffffff1680632f2d7bf41461009e57806340afc79d146101485780635b3dea5e146101e05780638f85a51c146102b657806391f1df8414610345578063b84d49e1146103be578063d5aaa73a1461049d578063f39ba93214610516578063fee9da4a146105a5575b600080fd5b34156100a957600080fd5b61012e600480803573ffffffffffffffffffffffffffffffffffffffff1690602001909190803573ffffffffffffffffffffffffffffffffffffffff169060200190919080359060200190919080359060200190919080359060200190820180359060200191909192908035906020019082018035906020019190919290505061064f565b604051808215151515815260200191505060405180910390f35b341561015357600080fd5b6101c6600480803573ffffffffffffffffffffffffffffffffffffffff1690602001909190803573ffffffffffffffffffffffffffffffffffffffff1690602001909190803573ffffffffffffffffffffffffffffffffffffffff1690602001909190803590602001909190505061065d565b604051808215151515815260200191505060405180910390f35b34156101eb57600080fd5b61029c600480803573ffffffffffffffffffffffffffffffffffffffff1690602001909190803573ffffffffffffffffffffffffffffffffffffffff1690602001909190803573ffffffffffffffffffffffffffffffffffffffff1690602001909190803573ffffffffffffffffffffffffffffffffffffffff1690602001909190803573ffffffffffffffffffffffffffffffffffffffff16906020019091908035906020019091905050610667565b604051808215151515815260200191505060405180910390f35b34156102c157600080fd5b61032b600480803573ffffffffffffffffffffffffffffffffffffffff1690602001909190803573ffffffffffffffffffffffffffffffffffffffff1690602001909190803573ffffffffffffffffffffffffffffffffffffffff16906020019091905050610673565b604051808215151515815260200191505060405180910390f35b341561035057600080fd5b6103a4600480803573ffffffffffffffffffffffffffffffffffffffff1690602001909190803573ffffffffffffffffffffffffffffffffffffffff1690602001909190803590602001909190505061067c565b604051808215151515815260200191505060405180910390f35b34156103c957600080fd5b610483600480803573ffffffffffffffffffffffffffffffffffffffff1690602001909190803573ffffffffffffffffffffffffffffffffffffffff1690602001909190803573ffffffffffffffffffffffffffffffffffffffff169060200190919080359060200190820180359060200191909192908035906020019082018035906020019190919290803590602001909190803573ffffffffffffffffffffffffffffffffffffffff16906020019091905050610685565b604051808215151515815260200191505060405180910390f35b34156104a857600080fd5b6104fc600480803573ffffffffffffffffffffffffffffffffffffffff1690602001909190803573ffffffffffffffffffffffffffffffffffffffff16906020019091908035906020019091905050610694565b604051808215151515815260200191505060405180910390f35b341561052157600080fd5b61058b600480803573ffffffffffffffffffffffffffffffffffffffff1690602001909190803573ffffffffffffffffffffffffffffffffffffffff1690602001909190803573ffffffffffffffffffffffffffffffffffffffff1690602001909190505061069d565b604051808215151515815260200191505060405180910390f35b34156105b057600080fd5b610635600480803573ffffffffffffffffffffffffffffffffffffffff1690602001909190803573ffffffffffffffffffffffffffffffffffffffff16906020019091908035906020019091908035906020019091908035906020019082018035906020019190919290803590602001908201803590602001919091929050506106a6565b604051808215151515815260200191505060405180910390f35b600098975050505050505050565b6000949350505050565b60009695505050505050565b60009392505050565b60009392505050565b60009998505050505050505050565b60009392505050565b60009392505050565b6000989750505050505050505600a165627a7a72305820cf1762b58486708f30f5c6ddbf5b9cc388c15ae1320cdd8d05628202ec0bc7910029",
  "source": "/*\n\n Copyright 2017-2018 RigoBlock, Rigo Investment Sagl.\n\n Licensed under the Apache License, Version 2.0 (the \"License\");\n you may not use this file except in compliance with the License.\n You may obtain a copy of the License at\n\n     http://www.apache.org/licenses/LICENSE-2.0\n\n Unless required by applicable law or agreed to in writing, software\n distributed under the License is distributed on an \"AS IS\" BASIS,\n WITHOUT WARRANTIES OR CONDITIONS OF ANY KIND, either express or implied.\n See the License for the specific language governing permissions and\n limitations under the License.\n\n*/\n\npragma solidity ^0.4.19;\n\n/// @title Vault Eventful Interface - Logs all vaults transactions.\n/// @author Gabriele Rigo - <gab@rigoblock.com>\ncontract VaultEventfulFace {\n\n    // EVENTS\n\n    event BuyVault(address indexed vault, address indexed from, address indexed to, uint256 amount, uint256 revenue, bytes name, bytes symbol);\n    event SellVault(address indexed vault, address indexed from, address indexed to, uint256 amount, uint256 revenue, bytes name, bytes symbol);\n    event NewFee(address indexed vault, address indexed from, address indexed to, uint fee);\n    event NewCollector(address indexed vault, address indexed from, address indexed to, address collector);\n    event VaultDao(address indexed vault, address indexed from, address indexed to, address vaultDao);\n    event DepositCasper(address indexed vault, address indexed validator, address indexed casper, address withdrawal, uint amount);\n    event WithdrawCasper(address indexed vault, address indexed validator, address indexed casper, uint validatorIndex);\n    event VaultCreated(address indexed vault, address indexed group, address indexed owner, uint vaultId, string name, string symbol);\n\n    // CORE FUNCTIONS\n\n    function buyVault(address _who, address _targetVault, uint _value, uint _amount, bytes _name, bytes _symbol) external returns (bool success) {}\n    function sellVault(address _who, address _targetVault, uint _amount, uint _revenue, bytes _name, bytes _symbol) external returns(bool success) {}\n    function changeRatio(address _who, address _targetVault, uint256 _ratio) external returns(bool success) {}\n    function setTransactionFee(address _who, address _targetVault, uint _transactionFee) external returns(bool success) {}\n    function changeFeeCollector(address _who, address _targetVault, address _feeCollector) external returns(bool success) {}\n    function changeVaultDao(address _who, address _targetVault, address _vaultDao) external returns(bool success) {}\n    function depositToCasper(address _who, address _targetVault, address _casper, address _validation, address _withdrawal, uint _amount) external returns(bool success) {}\n    function withdrawFromCasper(address _who, address _targetVault, address _casper, uint _validatorIndex) external returns(bool success) {}\n    function createVault(address _who, address _vaultFactory, address _newVault, string _name, string _symbol, uint _vaultId, address _owner) external returns(bool success) {}\n}\n",
  "sourcePath": "/home/gab/truffle/contracts/contracts/VaultEventful/VaultEventfulFace.sol",
  "compiler": {
    "name": "solc",
    "version": "0.4.19+commit.c4cbbb05.Emscripten.clang"
  },
  "schemaVersion": "2.0.0",
  "updatedAt": "2018-03-05T01:35:43.839Z"
}