{
  "contractName": "VaultFace",
  "abi": [
    {
      "payable": true,
      "stateMutability": "payable",
      "type": "fallback"
    },
    {
      "constant": false,
      "inputs": [],
      "name": "buyVault",
      "outputs": [
        {
          "name": "success",
          "type": "bool"
        }
      ],
      "payable": true,
      "stateMutability": "payable",
      "type": "function"
    },
    {
      "constant": false,
      "inputs": [
        {
          "name": "_hodler",
          "type": "address"
        }
      ],
      "name": "buyVaultOnBehalf",
      "outputs": [
        {
          "name": "success",
          "type": "bool"
        }
      ],
      "payable": true,
      "stateMutability": "payable",
      "type": "function"
    },
    {
      "constant": false,
      "inputs": [
        {
          "name": "amount",
          "type": "uint256"
        }
      ],
      "name": "sellVault",
      "outputs": [
        {
          "name": "success",
          "type": "bool"
        }
      ],
      "payable": false,
      "stateMutability": "nonpayable",
      "type": "function"
    },
    {
      "constant": false,
      "inputs": [
        {
          "name": "_validation",
          "type": "address"
        },
        {
          "name": "_withdrawal",
          "type": "address"
        },
        {
          "name": "_amount",
          "type": "uint256"
        }
      ],
      "name": "depositCasper",
      "outputs": [
        {
          "name": "success",
          "type": "bool"
        }
      ],
      "payable": false,
      "stateMutability": "nonpayable",
      "type": "function"
    },
    {
      "constant": false,
      "inputs": [
        {
          "name": "_validatorIndex",
          "type": "uint128"
        }
      ],
      "name": "withdrawCasper",
      "outputs": [],
      "payable": false,
      "stateMutability": "nonpayable",
      "type": "function"
    },
    {
      "constant": false,
      "inputs": [
        {
          "name": "_ratio",
          "type": "uint256"
        }
      ],
      "name": "changeRatio",
      "outputs": [],
      "payable": false,
      "stateMutability": "nonpayable",
      "type": "function"
    },
    {
      "constant": false,
      "inputs": [
        {
          "name": "_transactionFee",
          "type": "uint256"
        }
      ],
      "name": "setTransactionFee",
      "outputs": [],
      "payable": false,
      "stateMutability": "nonpayable",
      "type": "function"
    },
    {
      "constant": false,
      "inputs": [
        {
          "name": "_feeCollector",
          "type": "address"
        }
      ],
      "name": "changeFeeCollector",
      "outputs": [],
      "payable": false,
      "stateMutability": "nonpayable",
      "type": "function"
    },
    {
      "constant": false,
      "inputs": [
        {
          "name": "_vaultDao",
          "type": "address"
        }
      ],
      "name": "changeVaultDao",
      "outputs": [],
      "payable": false,
      "stateMutability": "nonpayable",
      "type": "function"
    },
    {
      "constant": false,
      "inputs": [],
      "name": "updatePrice",
      "outputs": [],
      "payable": false,
      "stateMutability": "nonpayable",
      "type": "function"
    },
    {
      "constant": false,
      "inputs": [
        {
          "name": "_minPeriod",
          "type": "uint32"
        }
      ],
      "name": "changeMinPeriod",
      "outputs": [],
      "payable": false,
      "stateMutability": "nonpayable",
      "type": "function"
    },
    {
      "constant": true,
      "inputs": [],
      "name": "getEventful",
      "outputs": [
        {
          "name": "",
          "type": "address"
        }
      ],
      "payable": false,
      "stateMutability": "view",
      "type": "function"
    },
    {
      "constant": true,
      "inputs": [],
      "name": "getData",
      "outputs": [
        {
          "name": "name",
          "type": "string"
        },
        {
          "name": "symbol",
          "type": "string"
        },
        {
          "name": "sellPrice",
          "type": "uint256"
        },
        {
          "name": "buyPrice",
          "type": "uint256"
        }
      ],
      "payable": false,
      "stateMutability": "view",
      "type": "function"
    },
    {
      "constant": true,
      "inputs": [],
      "name": "getAdminData",
      "outputs": [
        {
          "name": "feeCollector",
          "type": "address"
        },
        {
          "name": "vaultDao",
          "type": "address"
        },
        {
          "name": "ratio",
          "type": "uint256"
        },
        {
          "name": "transactionFee",
          "type": "uint256"
        },
        {
          "name": "minPeriod",
          "type": "uint32"
        }
      ],
      "payable": false,
      "stateMutability": "view",
      "type": "function"
    },
    {
      "constant": true,
      "inputs": [],
      "name": "getCasper",
      "outputs": [
        {
          "name": "",
          "type": "address"
        }
      ],
      "payable": false,
      "stateMutability": "view",
      "type": "function"
    },
    {
      "constant": true,
      "inputs": [],
      "name": "getCasperDeposit",
      "outputs": [
        {
          "name": "",
          "type": "uint128"
        }
      ],
      "payable": false,
      "stateMutability": "view",
      "type": "function"
    },
    {
      "constant": true,
      "inputs": [],
      "name": "getNav",
      "outputs": [
        {
          "name": "",
          "type": "uint256"
        }
      ],
      "payable": false,
      "stateMutability": "view",
      "type": "function"
    },
    {
      "constant": true,
      "inputs": [],
      "name": "getVersion",
      "outputs": [
        {
          "name": "",
          "type": "string"
        }
      ],
      "payable": false,
      "stateMutability": "view",
      "type": "function"
    }
  ],
  "bytecode": "0x6060604052341561000f57600080fd5b61075b8061001e6000396000f3006060604052600436106100fc576000357c0100000000000000000000000000000000000000000000000000000000900463ffffffff168063096a8ab7146100fe5780630d8e6e2c146101215780631f468229146101af5780632314d79c14610228578063240d9cba1461027d5780633552c62f146102b85780633bc5de30146102e157806350825207146103e957806354bdbd4d14610422578063673a7e281461044b57806379e102e614610460578063837929b6146104ad5780638f7a844b146105025780639245290d146105ab578063af41cec0146105e4578063be062fbe1461062a578063d5947f141461065f578063f6a3325314610681575b005b341561010957600080fd5b61011f60048080359060200190919050506106a4565b005b341561012c57600080fd5b6101346106a7565b6040518080602001828103825283818151815260200191508051906020019080838360005b83811015610174578082015181840152602081019050610159565b50505050905090810190601f1680156101a15780820380516001836020036101000a031916815260200191505b509250505060405180910390f35b34156101ba57600080fd5b61020e600480803573ffffffffffffffffffffffffffffffffffffffff1690602001909190803573ffffffffffffffffffffffffffffffffffffffff169060200190919080359060200190919050506106b2565b604051808215151515815260200191505060405180910390f35b341561023357600080fd5b61023b6106bb565b604051808273ffffffffffffffffffffffffffffffffffffffff1673ffffffffffffffffffffffffffffffffffffffff16815260200191505060405180910390f35b341561028857600080fd5b61029e60048080359060200190919050506106c0565b604051808215151515815260200191505060405180910390f35b34156102c357600080fd5b6102cb6106c7565b6040518082815260200191505060405180910390f35b34156102ec57600080fd5b6102f46106cc565b604051808060200180602001858152602001848152602001838103835287818151815260200191508051906020019080838360005b83811015610344578082015181840152602081019050610329565b50505050905090810190601f1680156103715780820380516001836020036101000a031916815260200191505b50838103825286818151815260200191508051906020019080838360005b838110156103aa57808201518184015260208101905061038f565b50505050905090810190601f1680156103d75780820380516001836020036101000a031916815260200191505b50965050505050505060405180910390f35b34156103f457600080fd5b610420600480803573ffffffffffffffffffffffffffffffffffffffff169060200190919050506106e5565b005b341561042d57600080fd5b610449600480803563ffffffff169060200190919050506106e8565b005b341561045657600080fd5b61045e6106eb565b005b341561046b57600080fd5b6104736106ed565b60405180826fffffffffffffffffffffffffffffffff166fffffffffffffffffffffffffffffffff16815260200191505060405180910390f35b34156104b857600080fd5b6104c06106f2565b604051808273ffffffffffffffffffffffffffffffffffffffff1673ffffffffffffffffffffffffffffffffffffffff16815260200191505060405180910390f35b341561050d57600080fd5b6105156106f7565b604051808673ffffffffffffffffffffffffffffffffffffffff1673ffffffffffffffffffffffffffffffffffffffff1681526020018573ffffffffffffffffffffffffffffffffffffffff1673ffffffffffffffffffffffffffffffffffffffff1681526020018481526020018381526020018263ffffffff1663ffffffff1681526020019550505050505060405180910390f35b34156105b657600080fd5b6105e2600480803573ffffffffffffffffffffffffffffffffffffffff16906020019091905050610706565b005b610610600480803573ffffffffffffffffffffffffffffffffffffffff16906020019091905050610709565b604051808215151515815260200191505060405180910390f35b341561063557600080fd5b61065d60048080356fffffffffffffffffffffffffffffffff16906020019091905050610710565b005b610667610713565b604051808215151515815260200191505060405180910390f35b341561068c57600080fd5b6106a26004808035906020019091905050610718565b005b50565b6106af61071b565b90565b60009392505050565b600090565b6000919050565b600090565b6106d461071b565b6106dc61071b565b60008090919293565b50565b50565b565b600090565b600090565b60008060008060009091929394565b50565b6000919050565b50565b600090565b50565b6020604051908101604052806000815250905600a165627a7a7230582094ed7c04c7f6e6df8232eead2c3eda9b47b8353b693b4ce864f1855fd18e06d10029",
  "source": "/*\n\n Copyright 2017-2018 RigoBlock, Rigo Investment Sagl.\n\n Licensed under the Apache License, Version 2.0 (the \"License\");\n you may not use this file except in compliance with the License.\n You may obtain a copy of the License at\n\n     http://www.apache.org/licenses/LICENSE-2.0\n\n Unless required by applicable law or agreed to in writing, software\n distributed under the License is distributed on an \"AS IS\" BASIS,\n WITHOUT WARRANTIES OR CONDITIONS OF ANY KIND, either express or implied.\n See the License for the specific language governing permissions and\n limitations under the License.\n\n*/\n\npragma solidity ^0.4.19;\n\n/// @title Vault Interface - Allows interaction with the Vault contracts.\n/// @author Gabriele Rigo - <gab@rigoblock.com>\ncontract VaultFace {\n\n    // CORE FUNCTIONS\n\n    function buyVault() external payable returns (bool success) {}\n    function buyVaultOnBehalf(address _hodler) public payable returns (bool success) {}\n    function sellVault(uint256 amount) external returns (bool success) {}\n    function depositCasper(address _validation, address _withdrawal, uint _amount) public returns (bool success) {}\n    function withdrawCasper(uint128 _validatorIndex) public {}\n    function changeRatio(uint256 _ratio) public {}\n    function setTransactionFee(uint _transactionFee) public {}\n    function changeFeeCollector(address _feeCollector) public {}\n    function changeVaultDao(address _vaultDao) public {}\n    function updatePrice() public {}\n    function changeMinPeriod(uint32 _minPeriod) public {}\n    //function setOwner(address _new) public {}\n    function() external payable {}\n\n\n    //function balanceOf(address _who) public view returns (uint) {}\n    function getEventful() public view returns (address) {}\n    function getData() public view returns (string name, string symbol, uint sellPrice, uint buyPrice) {}\n    function getAdminData() public view returns (address feeCollector, address vaultDao, uint ratio, uint transactionFee, uint32 minPeriod) {}\n    //function getOwner() public view returns (address) {}\n    //function totalSupply() public view returns (uint256) {}\n    function getCasper() public view returns (address) {}\n    function getCasperDeposit() public view returns (uint128) {}\n    function getNav() public view returns (uint) {}\n    function getVersion() public view returns (string) {}\n}\n",
  "sourcePath": "/home/gab/truffle/contracts/contracts/Vault/VaultFace.sol",
  "compiler": {
    "name": "solc",
    "version": "0.4.19+commit.c4cbbb05.Emscripten.clang"
  },
  "schemaVersion": "2.0.0",
  "updatedAt": "2018-03-05T01:35:43.827Z"
}