{
  "contractName": "VaultFactory",
  "abi": [
    {
      "constant": false,
      "inputs": [
        {
          "name": "_new",
          "type": "address"
        }
      ],
      "name": "setOwner",
      "outputs": [],
      "payable": false,
      "stateMutability": "nonpayable",
      "type": "function"
    },
    {
      "constant": true,
      "inputs": [],
      "name": "getOwner",
      "outputs": [
        {
          "name": "",
          "type": "address"
        }
      ],
      "payable": false,
      "stateMutability": "view",
      "type": "function"
    },
    {
      "constant": true,
      "inputs": [],
      "name": "owner",
      "outputs": [
        {
          "name": "",
          "type": "address"
        }
      ],
      "payable": false,
      "stateMutability": "view",
      "type": "function"
    },
    {
      "constant": true,
      "inputs": [],
      "name": "VERSION",
      "outputs": [
        {
          "name": "",
          "type": "string"
        }
      ],
      "payable": false,
      "stateMutability": "view",
      "type": "function"
    },
    {
      "inputs": [
        {
          "name": "_registry",
          "type": "address"
        },
        {
          "name": "_vaultDao",
          "type": "address"
        },
        {
          "name": "_authority",
          "type": "address"
        }
      ],
      "payable": false,
      "stateMutability": "nonpayable",
      "type": "constructor"
    },
    {
      "anonymous": false,
      "inputs": [
        {
          "indexed": false,
          "name": "name",
          "type": "string"
        },
        {
          "indexed": false,
          "name": "symbol",
          "type": "string"
        },
        {
          "indexed": true,
          "name": "vault",
          "type": "address"
        },
        {
          "indexed": true,
          "name": "owner",
          "type": "address"
        },
        {
          "indexed": false,
          "name": "vaultId",
          "type": "uint256"
        }
      ],
      "name": "VaultCreated",
      "type": "event"
    },
    {
      "anonymous": false,
      "inputs": [
        {
          "indexed": true,
          "name": "old",
          "type": "address"
        },
        {
          "indexed": true,
          "name": "current",
          "type": "address"
        }
      ],
      "name": "NewOwner",
      "type": "event"
    },
    {
      "constant": false,
      "inputs": [
        {
          "name": "_name",
          "type": "string"
        },
        {
          "name": "_symbol",
          "type": "string"
        }
      ],
      "name": "createVault",
      "outputs": [
        {
          "name": "success",
          "type": "bool"
        }
      ],
      "payable": false,
      "stateMutability": "nonpayable",
      "type": "function"
    },
    {
      "constant": false,
      "inputs": [
        {
          "name": "_targetVault",
          "type": "address"
        },
        {
          "name": "_vaultDao",
          "type": "address"
        }
      ],
      "name": "setTargetVaultDao",
      "outputs": [],
      "payable": false,
      "stateMutability": "nonpayable",
      "type": "function"
    },
    {
      "constant": false,
      "inputs": [
        {
          "name": "_newVaultDao",
          "type": "address"
        }
      ],
      "name": "changeVaultDao",
      "outputs": [],
      "payable": false,
      "stateMutability": "nonpayable",
      "type": "function"
    },
    {
      "constant": false,
      "inputs": [
        {
          "name": "_newRegistry",
          "type": "address"
        }
      ],
      "name": "setRegistry",
      "outputs": [],
      "payable": false,
      "stateMutability": "nonpayable",
      "type": "function"
    },
    {
      "constant": false,
      "inputs": [
        {
          "name": "_vaultDao",
          "type": "address"
        }
      ],
      "name": "setBeneficiary",
      "outputs": [],
      "payable": false,
      "stateMutability": "nonpayable",
      "type": "function"
    },
    {
      "constant": false,
      "inputs": [
        {
          "name": "_fee",
          "type": "uint256"
        }
      ],
      "name": "setFee",
      "outputs": [],
      "payable": false,
      "stateMutability": "nonpayable",
      "type": "function"
    },
    {
      "constant": false,
      "inputs": [],
      "name": "drain",
      "outputs": [],
      "payable": false,
      "stateMutability": "nonpayable",
      "type": "function"
    },
    {
      "constant": true,
      "inputs": [],
      "name": "getRegistry",
      "outputs": [
        {
          "name": "",
          "type": "address"
        }
      ],
      "payable": false,
      "stateMutability": "view",
      "type": "function"
    },
    {
      "constant": true,
      "inputs": [],
      "name": "getStorage",
      "outputs": [
        {
          "name": "vaultDao",
          "type": "address"
        },
        {
          "name": "version",
          "type": "string"
        },
        {
          "name": "nextVaultId",
          "type": "uint256"
        }
      ],
      "payable": false,
      "stateMutability": "view",
      "type": "function"
    },
    {
      "constant": true,
      "inputs": [],
      "name": "getNextId",
      "outputs": [
        {
          "name": "nextVaultId",
          "type": "uint256"
        }
      ],
      "payable": false,
      "stateMutability": "view",
      "type": "function"
    },
    {
      "constant": true,
      "inputs": [],
      "name": "getEventful",
      "outputs": [
        {
          "name": "",
          "type": "address"
        }
      ],
      "payable": false,
      "stateMutability": "view",
      "type": "function"
    },
    {
      "constant": true,
      "inputs": [
        {
          "name": "_owner",
          "type": "address"
        }
      ],
      "name": "getVaultsByAddress",
      "outputs": [
        {
          "name": "",
          "type": "address[]"
        }
      ],
      "payable": false,
      "stateMutability": "view",
      "type": "function"
    }
  ],
  "bytecode": "0x6060604052341561000f57600080fd5b604051606080615ac48339810160405280805190602001909190805190602001909190805190602001909190505082600660010160006101000a81548173ffffffffffffffffffffffffffffffffffffffff021916908373ffffffffffffffffffffffffffffffffffffffff16021790555081600660020160006101000a81548173ffffffffffffffffffffffffffffffffffffffff021916908373ffffffffffffffffffffffffffffffffffffffff16021790555080600660030160006101000a81548173ffffffffffffffffffffffffffffffffffffffff021916908373ffffffffffffffffffffffffffffffffffffffff160217905550336000806101000a81548173ffffffffffffffffffffffffffffffffffffffff021916908373ffffffffffffffffffffffffffffffffffffffff1602179055505050506159698061015b6000396000f300606060405260043610620000f7576000357c0100000000000000000000000000000000000000000000000000000000900463ffffffff16806313af403514620000fc5780631c31f71014620001385780633408f73a14620001745780635082520714620002425780635ab1bd53146200027e57806369fe0e2d14620002d6578063837929b614620002fc578063893d20e814620003545780638da5cb5b14620003ac5780639890220b1462000404578063a390d7e1146200041c578063a91ee0dc14620004d7578063b11e2beb1462000513578063bc96832614620005a6578063ed3b49ac14620005d2578063ffa1ad74146200062d575b600080fd5b34156200010857600080fd5b62000136600480803573ffffffffffffffffffffffffffffffffffffffff16906020019091905050620006c1565b005b34156200014457600080fd5b62000172600480803573ffffffffffffffffffffffffffffffffffffffff16906020019091905050620007db565b005b34156200018057600080fd5b6200018a6200087e565b604051808473ffffffffffffffffffffffffffffffffffffffff1673ffffffffffffffffffffffffffffffffffffffff16815260200180602001838152602001828103825284818151815260200191508051906020019080838360005b8381101562000204578082015181840152602081019050620001e7565b50505050905090810190601f168015620002325780820380516001836020036101000a031916815260200191505b5094505050505060405180910390f35b34156200024e57600080fd5b6200027c600480803573ffffffffffffffffffffffffffffffffffffffff1690602001909190505062000906565b005b34156200028a57600080fd5b62000294620009ad565b604051808273ffffffffffffffffffffffffffffffffffffffff1673ffffffffffffffffffffffffffffffffffffffff16815260200191505060405180910390f35b3415620002e257600080fd5b620002fa6004808035906020019091905050620009da565b005b34156200030857600080fd5b6200031262000a43565b604051808273ffffffffffffffffffffffffffffffffffffffff1673ffffffffffffffffffffffffffffffffffffffff16815260200191505060405180910390f35b34156200036057600080fd5b6200036a62000afd565b604051808273ffffffffffffffffffffffffffffffffffffffff1673ffffffffffffffffffffffffffffffffffffffff16815260200191505060405180910390f35b3415620003b857600080fd5b620003c262000b26565b604051808273ffffffffffffffffffffffffffffffffffffffff1673ffffffffffffffffffffffffffffffffffffffff16815260200191505060405180910390f35b34156200041057600080fd5b6200041a62000b4b565b005b34156200042857600080fd5b620004bd600480803590602001908201803590602001908080601f0160208091040260200160405190810160405280939291908181526020018383808284378201915050505050509190803590602001908201803590602001908080601f0160208091040260200160405190810160405280939291908181526020018383808284378201915050505050509190505062000c26565b604051808215151515815260200191505060405180910390f35b3415620004e357600080fd5b62000511600480803573ffffffffffffffffffffffffffffffffffffffff1690602001909190505062000f9c565b005b34156200051f57600080fd5b6200054d600480803573ffffffffffffffffffffffffffffffffffffffff169060200190919050506200103f565b6040518080602001828103825283818151815260200191508051906020019060200280838360005b838110156200059257808201518184015260208101905062000575565b505050509050019250505060405180910390f35b3415620005b257600080fd5b620005bc62001119565b6040518082815260200191505060405180910390f35b3415620005de57600080fd5b6200062b600480803573ffffffffffffffffffffffffffffffffffffffff1690602001909190803573ffffffffffffffffffffffffffffffffffffffff16906020019091905050620011d3565b005b34156200063957600080fd5b62000643620012e9565b6040518080602001828103825283818151815260200191508051906020019080838360005b838110156200068557808201518184015260208101905062000668565b50505050905090810190601f168015620006b35780820380516001836020036101000a031916815260200191505b509250505060405180910390f35b6000809054906101000a900473ffffffffffffffffffffffffffffffffffffffff1673ffffffffffffffffffffffffffffffffffffffff163373ffffffffffffffffffffffffffffffffffffffff161415156200071d57600080fd5b806000806101000a81548173ffffffffffffffffffffffffffffffffffffffff021916908373ffffffffffffffffffffffffffffffffffffffff1602179055508073ffffffffffffffffffffffffffffffffffffffff166000809054906101000a900473ffffffffffffffffffffffffffffffffffffffff1673ffffffffffffffffffffffffffffffffffffffff167f70aea8d848e8a90fb7661b227dc522eb6395c3dac71b63cb59edd5c9899b236460405160405180910390a350565b6000809054906101000a900473ffffffffffffffffffffffffffffffffffffffff1673ffffffffffffffffffffffffffffffffffffffff163373ffffffffffffffffffffffffffffffffffffffff161415156200083757600080fd5b80600660020160006101000a81548173ffffffffffffffffffffffffffffffffffffffff021916908373ffffffffffffffffffffffffffffffffffffffff16021790555050565b60006200088a62001dd7565b6000600660020160009054906101000a900473ffffffffffffffffffffffffffffffffffffffff169250826040805190810160405280600881526020017f564620302e342e31000000000000000000000000000000000000000000000000815250925082620008f862001119565b925082925092509250909192565b600660020160009054906101000a900473ffffffffffffffffffffffffffffffffffffffff1673ffffffffffffffffffffffffffffffffffffffff163373ffffffffffffffffffffffffffffffffffffffff161415156200096657600080fd5b80600660020160006101000a81548173ffffffffffffffffffffffffffffffffffffffff021916908373ffffffffffffffffffffffffffffffffffffffff16021790555050565b6000600660010160009054906101000a900473ffffffffffffffffffffffffffffffffffffffff16905090565b6000809054906101000a900473ffffffffffffffffffffffffffffffffffffffff1673ffffffffffffffffffffffffffffffffffffffff163373ffffffffffffffffffffffffffffffffffffffff1614151562000a3657600080fd5b8060066000018190555050565b600080600660030160009054906101000a900473ffffffffffffffffffffffffffffffffffffffff1690508073ffffffffffffffffffffffffffffffffffffffff1663088f47ee6000604051602001526040518163ffffffff167c0100000000000000000000000000000000000000000000000000000000028152600401602060405180830381600087803b151562000adb57600080fd5b6102c65a03f1151562000aed57600080fd5b5050506040518051905091505090565b60008060009054906101000a900473ffffffffffffffffffffffffffffffffffffffff16905090565b6000809054906101000a900473ffffffffffffffffffffffffffffffffffffffff1681565b6000809054906101000a900473ffffffffffffffffffffffffffffffffffffffff1673ffffffffffffffffffffffffffffffffffffffff163373ffffffffffffffffffffffffffffffffffffffff1614151562000ba757600080fd5b600660020160009054906101000a900473ffffffffffffffffffffffffffffffffffffffff1673ffffffffffffffffffffffffffffffffffffffff166108fc3073ffffffffffffffffffffffffffffffffffffffff16319081150290604051600060405180830381858888f19350505050151562000c2457600080fd5b565b600080600080600660010160009054906101000a900473ffffffffffffffffffffffffffffffffffffffff1692508273ffffffffffffffffffffffffffffffffffffffff1663ced72f876000604051602001526040518163ffffffff167c0100000000000000000000000000000000000000000000000000000000028152600401602060405180830381600087803b151562000cc157600080fd5b6102c65a03f1151562000cd357600080fd5b5050506040518051905091508273ffffffffffffffffffffffffffffffffffffffff1663cd6f4e0d6000604051602001526040518163ffffffff167c0100000000000000000000000000000000000000000000000000000000028152600401602060405180830381600087803b151562000d4c57600080fd5b6102c65a03f1151562000d5e57600080fd5b50505060405180519050905062000d788686338462001322565b151562000d8457600080fd5b8273ffffffffffffffffffffffffffffffffffffffff16633fa7d3e383600160040160009054906101000a900473ffffffffffffffffffffffffffffffffffffffff16898986336000604051602001526040518763ffffffff167c0100000000000000000000000000000000000000000000000000000000028152600401808673ffffffffffffffffffffffffffffffffffffffff1673ffffffffffffffffffffffffffffffffffffffff16815260200180602001806020018581526020018473ffffffffffffffffffffffffffffffffffffffff1673ffffffffffffffffffffffffffffffffffffffff168152602001838103835287818151815260200191508051906020019080838360005b8381101562000eaf57808201518184015260208101905062000e92565b50505050905090810190601f16801562000edd5780820380516001836020036101000a031916815260200191505b50838103825286818151815260200191508051906020019080838360005b8381101562000f1857808201518184015260208101905062000efb565b50505050905090810190601f16801562000f465780820380516001836020036101000a031916815260200191505b509750505050505050506020604051808303818588803b151562000f6957600080fd5b6125ee5a03f1151562000f7b57600080fd5b5050505060405180519050151562000f8f57fe5b6001935050505092915050565b6000809054906101000a900473ffffffffffffffffffffffffffffffffffffffff1673ffffffffffffffffffffffffffffffffffffffff163373ffffffffffffffffffffffffffffffffffffffff1614151562000ff857600080fd5b80600660010160006101000a81548173ffffffffffffffffffffffffffffffffffffffff021916908373ffffffffffffffffffffffffffffffffffffffff16021790555050565b6200104962001deb565b600660040160008373ffffffffffffffffffffffffffffffffffffffff1673ffffffffffffffffffffffffffffffffffffffff1681526020019081526020016000208054806020026020016040519081016040528092919081815260200182805480156200110d57602002820191906000526020600020905b8160009054906101000a900473ffffffffffffffffffffffffffffffffffffffff1673ffffffffffffffffffffffffffffffffffffffff1681526020019060010190808311620010c2575b50505050509050919050565b600080600660010160009054906101000a900473ffffffffffffffffffffffffffffffffffffffff1690508073ffffffffffffffffffffffffffffffffffffffff1663cd6f4e0d6000604051602001526040518163ffffffff167c0100000000000000000000000000000000000000000000000000000000028152600401602060405180830381600087803b1515620011b157600080fd5b6102c65a03f11515620011c357600080fd5b5050506040518051905091505090565b60008060009054906101000a900473ffffffffffffffffffffffffffffffffffffffff1673ffffffffffffffffffffffffffffffffffffffff163373ffffffffffffffffffffffffffffffffffffffff161415156200123157600080fd5b8290508073ffffffffffffffffffffffffffffffffffffffff166350825207836040518263ffffffff167c0100000000000000000000000000000000000000000000000000000000028152600401808273ffffffffffffffffffffffffffffffffffffffff1673ffffffffffffffffffffffffffffffffffffffff168152602001915050600060405180830381600087803b1515620012cf57600080fd5b6102c65a03f11515620012e157600080fd5b505050505050565b6040805190810160405280600881526020017f564620302e342e3100000000000000000000000000000000000000000000000081525081565b600080600060066000015434101515156200133c57600080fd5b600660030160009054906101000a900473ffffffffffffffffffffffffffffffffffffffff1691506200139a600188888888600660030160009054906101000a900473ffffffffffffffffffffffffffffffffffffffff1662001a87565b1515620013a657600080fd5b600660040160003373ffffffffffffffffffffffffffffffffffffffff1673ffffffffffffffffffffffffffffffffffffffff1681526020019081526020016000208054806001018281620013fc919062001dff565b91600052602060002090016000600160040160009054906101000a900473ffffffffffffffffffffffffffffffffffffffff16909190916101000a81548173ffffffffffffffffffffffffffffffffffffffff021916908373ffffffffffffffffffffffffffffffffffffffff160217905550508173ffffffffffffffffffffffffffffffffffffffff1663088f47ee6000604051602001526040518163ffffffff167c0100000000000000000000000000000000000000000000000000000000028152600401602060405180830381600087803b1515620014dd57600080fd5b6102c65a03f11515620014ef57600080fd5b5050506040518051905090508073ffffffffffffffffffffffffffffffffffffffff1663b84d49e13330600160040160009054906101000a900473ffffffffffffffffffffffffffffffffffffffff168b8b8a8c6000604051602001526040518863ffffffff167c0100000000000000000000000000000000000000000000000000000000028152600401808873ffffffffffffffffffffffffffffffffffffffff1673ffffffffffffffffffffffffffffffffffffffff1681526020018773ffffffffffffffffffffffffffffffffffffffff1673ffffffffffffffffffffffffffffffffffffffff1681526020018673ffffffffffffffffffffffffffffffffffffffff1673ffffffffffffffffffffffffffffffffffffffff16815260200180602001806020018581526020018473ffffffffffffffffffffffffffffffffffffffff1673ffffffffffffffffffffffffffffffffffffffff168152602001838103835287818151815260200191508051906020019080838360005b838110156200168b5780820151818401526020810190506200166e565b50505050905090810190601f168015620016b95780820380516001836020036101000a031916815260200191505b50838103825286818151815260200191508051906020019080838360005b83811015620016f4578082015181840152602081019050620016d7565b50505050905090810190601f168015620017225780820380516001836020036101000a031916815260200191505b509950505050505050505050602060405180830381600087803b15156200174857600080fd5b6102c65a03f115156200175a57600080fd5b5050506040518051905015156200177057600080fd5b8173ffffffffffffffffffffffffffffffffffffffff1663e6e66c68600160040160009054906101000a900473ffffffffffffffffffffffffffffffffffffffff1660016040518363ffffffff167c0100000000000000000000000000000000000000000000000000000000028152600401808373ffffffffffffffffffffffffffffffffffffffff1673ffffffffffffffffffffffffffffffffffffffff1681526020018215151515815260200192505050600060405180830381600087803b15156200183d57600080fd5b6102c65a03f115156200184f57600080fd5b5050508173ffffffffffffffffffffffffffffffffffffffff1663a0ca3ee13360016040518363ffffffff167c0100000000000000000000000000000000000000000000000000000000028152600401808373ffffffffffffffffffffffffffffffffffffffff1673ffffffffffffffffffffffffffffffffffffffff1681526020018215151515815260200192505050600060405180830381600087803b1515620018fa57600080fd5b6102c65a03f115156200190c57600080fd5b5050508473ffffffffffffffffffffffffffffffffffffffff16600160040160009054906101000a900473ffffffffffffffffffffffffffffffffffffffff1673ffffffffffffffffffffffffffffffffffffffff167fa4d67dc007d63bf037b4ddf55b81abcac4baa236e678684cfa426913b6e75474898988604051808060200180602001848152602001838103835286818151815260200191508051906020019080838360005b83811015620019d2578082015181840152602081019050620019b5565b50505050905090810190601f16801562001a005780820380516001836020036101000a031916815260200191505b50838103825285818151815260200191508051906020019080838360005b8381101562001a3b57808201518184015260208101905062001a1e565b50505050905090810190601f16801562001a695780820380516001836020036101000a031916815260200191505b509550505050505060405180910390a3600192505050949350505050565b6000808260008190508073ffffffffffffffffffffffffffffffffffffffff1663dcb7a3e0306000604051602001526040518263ffffffff167c0100000000000000000000000000000000000000000000000000000000028152600401808273ffffffffffffffffffffffffffffffffffffffff1673ffffffffffffffffffffffffffffffffffffffff168152602001915050602060405180830381600087803b151562001b3457600080fd5b6102c65a03f1151562001b4657600080fd5b505050604051805190501562001dca57888a600001908051906020019062001b7092919062001e2e565b888b600101908051906020019062001b8a92919062001e2e565b878c600201819055898d60030160006101000a81548173ffffffffffffffffffffffffffffffffffffffff021916908373ffffffffffffffffffffffffffffffffffffffff16021790558862001bdf62001eb5565b8080602001806020018681526020018573ffffffffffffffffffffffffffffffffffffffff1673ffffffffffffffffffffffffffffffffffffffff1681526020018473ffffffffffffffffffffffffffffffffffffffff1673ffffffffffffffffffffffffffffffffffffffff16815260200183810383528881815460018160011615610100020316600290048152602001915080546001816001161561010002031660029004801562001cd75780601f1062001cab5761010080835404028352916020019162001cd7565b820191906000526020600020905b81548152906001019060200180831162001cb957829003601f168201915b505083810382528781815460018160011615610100020316600290048152602001915080546001816001161561010002031660029004801562001d5e5780601f1062001d325761010080835404028352916020019162001d5e565b820191906000526020600020905b81548152906001019060200180831162001d4057829003601f168201915b5050975050505050505050604051809103906000f080151562001d8057600080fd5b9250828a60040160006101000a81548173ffffffffffffffffffffffffffffffffffffffff021916908373ffffffffffffffffffffffffffffffffffffffff160217905550600193505b5050509695505050505050565b602060405190810160405280600081525090565b602060405190810160405280600081525090565b81548183558181151162001e295781836000526020600020918201910162001e28919062001ec6565b5b505050565b828054600181600116156101000203166002900490600052602060002090601f016020900481019282601f1062001e7157805160ff191683800117855562001ea2565b8280016001018555821562001ea2579182015b8281111562001ea157825182559160200191906001019062001e84565b5b50905062001eb1919062001ec6565b5090565b604051613a4f8062001eef83390190565b62001eeb91905b8082111562001ee757600081600090555060010162001ecd565b5090565b905600606060405234156200001057600080fd5b60405162003a4f38038062003a4f83398101604052808051820191906020018051820191906020018051906020019091908051906020019091908051906020019091905050846001600001908051906020019062000070929190620001db565b50836001800190805190602001906200008b929190620001db565b5082600160020181905550670de0b6b3a7640000600160040181905550816000806101000a81548173ffffffffffffffffffffffffffffffffffffffff021916908373ffffffffffffffffffffffffffffffffffffffff16021790555080600860000160006101000a81548173ffffffffffffffffffffffffffffffffffffffff021916908373ffffffffffffffffffffffffffffffffffffffff16021790555033600860010160006101000a81548173ffffffffffffffffffffffffffffffffffffffff021916908373ffffffffffffffffffffffffffffffffffffffff16021790555066038d7ea4c6800060086003018190555081600860020160006101000a81548173ffffffffffffffffffffffffffffffffffffffff021916908373ffffffffffffffffffffffffffffffffffffffff160217905550605060086004018190555050505050506200028a565b828054600181600116156101000203166002900490600052602060002090601f016020900481019282601f106200021e57805160ff19168380011785556200024f565b828001600101855582156200024f579182015b828111156200024e57825182559160200191906001019062000231565b5b5090506200025e919062000262565b5090565b6200028791905b808211156200028357600081600090555060010162000269565b5090565b90565b6137b5806200029a6000396000f30060606040526004361061016a576000357c0100000000000000000000000000000000000000000000000000000000900463ffffffff168063095ea7b314610257578063096a8ab7146102b15780630d8e6e2c146102d457806313af40351461036257806318160ddd1461039b5780631f468229146103c45780632314d79c1461043d57806323b872dd14610492578063240d9cba1461050b5780633552c62f146105465780633bc5de301461056f578063508252071461067757806354bdbd4d146106b0578063673a7e28146106d957806370a08231146106ee57806379e102e61461073b5780637f69fd5c14610788578063837929b61461079d578063893d20e8146107f25780638da5cb5b146108475780638f7a844b1461089c5780639245290d14610945578063a9059cbb1461097e578063af41cec0146109d8578063be062fbe14610a1e578063d5947f1414610a53578063dd62ed3e14610a75578063f6a3325314610ae1575b6000600860000160009054906101000a900473ffffffffffffffffffffffffffffffffffffffff1690508073ffffffffffffffffffffffffffffffffffffffff16632314d79c6000604051602001526040518163ffffffff167c0100000000000000000000000000000000000000000000000000000000028152600401602060405180830381600087803b151561020057600080fd5b6102c65a03f1151561021157600080fd5b5050506040518051905073ffffffffffffffffffffffffffffffffffffffff163373ffffffffffffffffffffffffffffffffffffffff1614151561025457600080fd5b50005b341561026257600080fd5b610297600480803573ffffffffffffffffffffffffffffffffffffffff16906020019091908035906020019091905050610b04565b604051808215151515815260200191505060405180910390f35b34156102bc57600080fd5b6102d26004808035906020019091905050610b0c565b005b34156102df57600080fd5b6102e7610d3f565b6040518080602001828103825283818151815260200191508051906020019080838360005b8381101561032757808201518184015260208101905061030c565b50505050905090810190601f1680156103545780820380516001836020036101000a031916815260200191505b509250505060405180910390f35b341561036d57600080fd5b610399600480803573ffffffffffffffffffffffffffffffffffffffff16906020019091905050610d82565b005b34156103a657600080fd5b6103ae610e9b565b6040518082815260200191505060405180910390f35b34156103cf57600080fd5b610423600480803573ffffffffffffffffffffffffffffffffffffffff1690602001909190803573ffffffffffffffffffffffffffffffffffffffff16906020019091908035906020019091905050610ea8565b604051808215151515815260200191505060405180910390f35b341561044857600080fd5b61045061146d565b604051808273ffffffffffffffffffffffffffffffffffffffff1673ffffffffffffffffffffffffffffffffffffffff16815260200191505060405180910390f35b341561049d57600080fd5b6104f1600480803573ffffffffffffffffffffffffffffffffffffffff1690602001909190803573ffffffffffffffffffffffffffffffffffffffff16906020019091908035906020019091905050611525565b604051808215151515815260200191505060405180910390f35b341561051657600080fd5b61052c600480803590602001909190505061152e565b604051808215151515815260200191505060405180910390f35b341561055157600080fd5b61055961171d565b6040518082815260200191505060405180910390f35b341561057a57600080fd5b61058261177c565b604051808060200180602001858152602001848152602001838103835287818151815260200191508051906020019080838360005b838110156105d25780820151818401526020810190506105b7565b50505050905090810190601f1680156105ff5780820380516001836020036101000a031916815260200191505b50838103825286818151815260200191508051906020019080838360005b8381101561063857808201518184015260208101905061061d565b50505050905090810190601f1680156106655780820380516001836020036101000a031916815260200191505b50965050505050505060405180910390f35b341561068257600080fd5b6106ae600480803573ffffffffffffffffffffffffffffffffffffffff169060200190919050506118ed565b005b34156106bb57600080fd5b6106d7600480803563ffffffff16906020019091905050611b7a565b005b34156106e457600080fd5b6106ec611c00565b005b34156106f957600080fd5b610725600480803573ffffffffffffffffffffffffffffffffffffffff16906020019091905050611c13565b6040518082815260200191505060405180910390f35b341561074657600080fd5b61074e611c5f565b60405180826fffffffffffffffffffffffffffffffff166fffffffffffffffffffffffffffffffff16815260200191505060405180910390f35b341561079357600080fd5b61079b611d49565b005b34156107a857600080fd5b6107b06121a1565b604051808273ffffffffffffffffffffffffffffffffffffffff1673ffffffffffffffffffffffffffffffffffffffff16815260200191505060405180910390f35b34156107fd57600080fd5b610805612259565b604051808273ffffffffffffffffffffffffffffffffffffffff1673ffffffffffffffffffffffffffffffffffffffff16815260200191505060405180910390f35b341561085257600080fd5b61085a612282565b604051808273ffffffffffffffffffffffffffffffffffffffff1673ffffffffffffffffffffffffffffffffffffffff16815260200191505060405180910390f35b34156108a757600080fd5b6108af6122a7565b604051808673ffffffffffffffffffffffffffffffffffffffff1673ffffffffffffffffffffffffffffffffffffffff1681526020018573ffffffffffffffffffffffffffffffffffffffff1673ffffffffffffffffffffffffffffffffffffffff1681526020018481526020018381526020018263ffffffff1663ffffffff1681526020019550505050505060405180910390f35b341561095057600080fd5b61097c600480803573ffffffffffffffffffffffffffffffffffffffff1690602001909190505061232e565b005b341561098957600080fd5b6109be600480803573ffffffffffffffffffffffffffffffffffffffff169060200190919080359060200190919050506125b7565b604051808215151515815260200191505060405180910390f35b610a04600480803573ffffffffffffffffffffffffffffffffffffffff169060200190919050506125bf565b604051808215151515815260200191505060405180910390f35b3415610a2957600080fd5b610a5160048080356fffffffffffffffffffffffffffffffff1690602001909190505061262f565b005b610a5b612632565b604051808215151515815260200191505060405180910390f35b3415610a8057600080fd5b610acb600480803573ffffffffffffffffffffffffffffffffffffffff1690602001909190803573ffffffffffffffffffffffffffffffffffffffff1690602001909190505061264f565b6040518082815260200191505060405180910390f35b3415610aec57600080fd5b610b026004808035906020019091905050612657565b005b600092915050565b6000806000809054906101000a900473ffffffffffffffffffffffffffffffffffffffff1673ffffffffffffffffffffffffffffffffffffffff163373ffffffffffffffffffffffffffffffffffffffff16141515610b6a57600080fd5b60648311151515610b7a57600080fd5b600860000160009054906101000a900473ffffffffffffffffffffffffffffffffffffffff1691508173ffffffffffffffffffffffffffffffffffffffff1663088f47ee6000604051602001526040518163ffffffff167c0100000000000000000000000000000000000000000000000000000000028152600401602060405180830381600087803b1515610c0e57600080fd5b6102c65a03f11515610c1f57600080fd5b5050506040518051905090508073ffffffffffffffffffffffffffffffffffffffff1663d5aaa73a3330866000604051602001526040518463ffffffff167c0100000000000000000000000000000000000000000000000000000000028152600401808473ffffffffffffffffffffffffffffffffffffffff1673ffffffffffffffffffffffffffffffffffffffff1681526020018373ffffffffffffffffffffffffffffffffffffffff1673ffffffffffffffffffffffffffffffffffffffff1681526020018281526020019350505050602060405180830381600087803b1515610d0a57600080fd5b6102c65a03f11515610d1b57600080fd5b505050604051805190501515610d3057600080fd5b82600160050181905550505050565b610d47613761565b6040805190810160405280600881526020017f564320302e352e31000000000000000000000000000000000000000000000000815250905090565b6000809054906101000a900473ffffffffffffffffffffffffffffffffffffffff1673ffffffffffffffffffffffffffffffffffffffff163373ffffffffffffffffffffffffffffffffffffffff16141515610ddd57600080fd5b806000806101000a81548173ffffffffffffffffffffffffffffffffffffffff021916908373ffffffffffffffffffffffffffffffffffffffff1602179055508073ffffffffffffffffffffffffffffffffffffffff166000809054906101000a900473ffffffffffffffffffffffffffffffffffffffff1673ffffffffffffffffffffffffffffffffffffffff167f70aea8d848e8a90fb7661b227dc522eb6395c3dac71b63cb59edd5c9899b236460405160405180910390a350565b6000600160030154905090565b6000806000806000809054906101000a900473ffffffffffffffffffffffffffffffffffffffff1673ffffffffffffffffffffffffffffffffffffffff163373ffffffffffffffffffffffffffffffffffffffff16141515610f0957600080fd5b846008600301548110151515610f1e57600080fd5b3073ffffffffffffffffffffffffffffffffffffffff168773ffffffffffffffffffffffffffffffffffffffff16141515610f5857600080fd5b600860000160009054906101000a900473ffffffffffffffffffffffffffffffffffffffff1693508373ffffffffffffffffffffffffffffffffffffffff16632314d79c6000604051602001526040518163ffffffff167c0100000000000000000000000000000000000000000000000000000000028152600401602060405180830381600087803b1515610fec57600080fd5b6102c65a03f11515610ffd57600080fd5b5050506040518051905092508273ffffffffffffffffffffffffffffffffffffffff1663363258856000604051602001526040518163ffffffff167c0100000000000000000000000000000000000000000000000000000000028152600401602060405180830381600087803b151561107557600080fd5b6102c65a03f1151561108657600080fd5b50505060405180519050600160060160046101000a8154816fffffffffffffffffffffffffffffffff02191690836fffffffffffffffffffffffffffffffff1602179055508273ffffffffffffffffffffffffffffffffffffffff1663f9609f08878a8a6040518463ffffffff167c0100000000000000000000000000000000000000000000000000000000028152600401808373ffffffffffffffffffffffffffffffffffffffff1673ffffffffffffffffffffffffffffffffffffffff1681526020018273ffffffffffffffffffffffffffffffffffffffff1673ffffffffffffffffffffffffffffffffffffffff168152602001925050506000604051808303818588803b151561119957600080fd5b6125ee5a03f115156111aa57600080fd5b505050508373ffffffffffffffffffffffffffffffffffffffff1663088f47ee6000604051602001526040518163ffffffff167c0100000000000000000000000000000000000000000000000000000000028152600401602060405180830381600087803b151561121a57600080fd5b6102c65a03f1151561122b57600080fd5b5050506040518051905091508173ffffffffffffffffffffffffffffffffffffffff16635b3dea5e33308773ffffffffffffffffffffffffffffffffffffffff16632314d79c6000604051602001526040518163ffffffff167c0100000000000000000000000000000000000000000000000000000000028152600401602060405180830381600087803b15156112c157600080fd5b6102c65a03f115156112d257600080fd5b505050604051805190508c8c8c6000604051602001526040518763ffffffff167c0100000000000000000000000000000000000000000000000000000000028152600401808773ffffffffffffffffffffffffffffffffffffffff1673ffffffffffffffffffffffffffffffffffffffff1681526020018673ffffffffffffffffffffffffffffffffffffffff1673ffffffffffffffffffffffffffffffffffffffff1681526020018573ffffffffffffffffffffffffffffffffffffffff1673ffffffffffffffffffffffffffffffffffffffff1681526020018473ffffffffffffffffffffffffffffffffffffffff1673ffffffffffffffffffffffffffffffffffffffff1681526020018373ffffffffffffffffffffffffffffffffffffffff1673ffffffffffffffffffffffffffffffffffffffff1681526020018281526020019650505050505050602060405180830381600087803b151561143857600080fd5b6102c65a03f1151561144957600080fd5b50505060405180519050151561145e57600080fd5b60019450505050509392505050565b600080600860000160009054906101000a900473ffffffffffffffffffffffffffffffffffffffff1690508073ffffffffffffffffffffffffffffffffffffffff16632314d79c6000604051602001526040518163ffffffff167c0100000000000000000000000000000000000000000000000000000000028152600401602060405180830381600087803b151561150457600080fd5b6102c65a03f1151561151557600080fd5b5050506040518051905091505090565b60009392505050565b60008060008060008580600d60003373ffffffffffffffffffffffffffffffffffffffff1673ffffffffffffffffffffffffffffffffffffffff168152602001908152602001600020600001541015151561158857600080fd5b86600d60003373ffffffffffffffffffffffffffffffffffffffff1673ffffffffffffffffffffffffffffffffffffffff1681526020019081526020016000206000015481600d60003373ffffffffffffffffffffffffffffffffffffffff1673ffffffffffffffffffffffffffffffffffffffff168152602001908152602001600020600001540111151561161d57600080fd5b600d60003373ffffffffffffffffffffffffffffffffffffffff1673ffffffffffffffffffffffffffffffffffffffff16815260200190815260200160002060010160000160009054906101000a900463ffffffff1663ffffffff16421015151561168757600080fd5b6116908861287e565b809650819750829850839950505050506116aa888461290e565b6116b633898888612d00565b6116c560016003015485612f50565b6001600301819055503373ffffffffffffffffffffffffffffffffffffffff166108fc849081150290604051600060405180830381858888f19350505050151561170e57600080fd5b60019650505050505050919050565b600080600061172a611c5f565b6fffffffffffffffffffffffffffffffff16915061175f3073ffffffffffffffffffffffffffffffffffffffff163183612f69565b9050611775620f42408202600160030154612f93565b9250505090565b611784613761565b61178c613761565b60008061179761171d565b905080915060016000018054600181600116156101000203166002900480601f0160208091040260200160405190810160405280929190818152602001828054600181600116156101000203166002900480156118355780601f1061180a57610100808354040283529160200191611835565b820191906000526020600020905b81548152906001019060200180831161181857829003601f168201915b5050505050935083600180018054600181600116156101000203166002900480601f0160208091040260200160405190810160405280929190818152602001828054600181600116156101000203166002900480156118d55780601f106118aa576101008083540402835291602001916118d5565b820191906000526020600020905b8154815290600101906020018083116118b857829003601f168201915b50505050509350838383935093509350935090919293565b600080600860010160009054906101000a900473ffffffffffffffffffffffffffffffffffffffff1673ffffffffffffffffffffffffffffffffffffffff163373ffffffffffffffffffffffffffffffffffffffff1614151561194f57600080fd5b600860000160009054906101000a900473ffffffffffffffffffffffffffffffffffffffff1691508173ffffffffffffffffffffffffffffffffffffffff1663088f47ee6000604051602001526040518163ffffffff167c0100000000000000000000000000000000000000000000000000000000028152600401602060405180830381600087803b15156119e357600080fd5b6102c65a03f115156119f457600080fd5b5050506040518051905090508073ffffffffffffffffffffffffffffffffffffffff16638f85a51c3330866000604051602001526040518463ffffffff167c0100000000000000000000000000000000000000000000000000000000028152600401808473ffffffffffffffffffffffffffffffffffffffff1673ffffffffffffffffffffffffffffffffffffffff1681526020018373ffffffffffffffffffffffffffffffffffffffff1673ffffffffffffffffffffffffffffffffffffffff1681526020018273ffffffffffffffffffffffffffffffffffffffff1673ffffffffffffffffffffffffffffffffffffffff1681526020019350505050602060405180830381600087803b1515611b0b57600080fd5b6102c65a03f11515611b1c57600080fd5b505050604051805190501515611b3157600080fd5b82600860010160006101000a81548173ffffffffffffffffffffffffffffffffffffffff021916908373ffffffffffffffffffffffffffffffffffffffff160217905550505050565b600860010160009054906101000a900473ffffffffffffffffffffffffffffffffffffffff1673ffffffffffffffffffffffffffffffffffffffff163373ffffffffffffffffffffffffffffffffffffffff16141515611bd957600080fd5b80600160060160006101000a81548163ffffffff021916908363ffffffff16021790555050565b611c0861171d565b600160040181905550565b6000600d60008373ffffffffffffffffffffffffffffffffffffffff1673ffffffffffffffffffffffffffffffffffffffff168152602001908152602001600020600001549050919050565b600080611c6a61146d565b90508073ffffffffffffffffffffffffffffffffffffffff1663f0afa25f600160060160049054906101000a90046fffffffffffffffffffffffffffffffff166000604051602001526040518263ffffffff167c010000000000000000000000000000000000000000000000000000000002815260040180826fffffffffffffffffffffffffffffffff166fffffffffffffffffffffffffffffffff168152602001915050602060405180830381600087803b1515611d2857600080fd5b6102c65a03f11515611d3957600080fd5b5050506040518051905091505090565b60008060008060009054906101000a900473ffffffffffffffffffffffffffffffffffffffff1673ffffffffffffffffffffffffffffffffffffffff163373ffffffffffffffffffffffffffffffffffffffff16141515611da957600080fd5b600860000160009054906101000a900473ffffffffffffffffffffffffffffffffffffffff1692508273ffffffffffffffffffffffffffffffffffffffff16632314d79c6000604051602001526040518163ffffffff167c0100000000000000000000000000000000000000000000000000000000028152600401602060405180830381600087803b1515611e3d57600080fd5b6102c65a03f11515611e4e57600080fd5b5050506040518051905091508173ffffffffffffffffffffffffffffffffffffffff166302387a7b600160060160049054906101000a90046fffffffffffffffffffffffffffffffff166040518263ffffffff167c010000000000000000000000000000000000000000000000000000000002815260040180826fffffffffffffffffffffffffffffffff166fffffffffffffffffffffffffffffffff168152602001915050600060405180830381600087803b1515611f0d57600080fd5b6102c65a03f11515611f1e57600080fd5b5050508273ffffffffffffffffffffffffffffffffffffffff1663088f47ee6000604051602001526040518163ffffffff167c0100000000000000000000000000000000000000000000000000000000028152600401602060405180830381600087803b1515611f8d57600080fd5b6102c65a03f11515611f9e57600080fd5b5050506040518051905090508073ffffffffffffffffffffffffffffffffffffffff166340afc79d33308673ffffffffffffffffffffffffffffffffffffffff16632314d79c6000604051602001526040518163ffffffff167c0100000000000000000000000000000000000000000000000000000000028152600401602060405180830381600087803b151561203457600080fd5b6102c65a03f1151561204557600080fd5b50505060405180519050600160060160049054906101000a90046fffffffffffffffffffffffffffffffff166000604051602001526040518563ffffffff167c0100000000000000000000000000000000000000000000000000000000028152600401808573ffffffffffffffffffffffffffffffffffffffff1673ffffffffffffffffffffffffffffffffffffffff1681526020018473ffffffffffffffffffffffffffffffffffffffff1673ffffffffffffffffffffffffffffffffffffffff1681526020018373ffffffffffffffffffffffffffffffffffffffff1673ffffffffffffffffffffffffffffffffffffffff168152602001826fffffffffffffffffffffffffffffffff168152602001945050505050602060405180830381600087803b151561217657600080fd5b6102c65a03f1151561218757600080fd5b50505060405180519050151561219c57600080fd5b505050565b600080600860000160009054906101000a900473ffffffffffffffffffffffffffffffffffffffff1690508073ffffffffffffffffffffffffffffffffffffffff1663088f47ee6000604051602001526040518163ffffffff167c0100000000000000000000000000000000000000000000000000000000028152600401602060405180830381600087803b151561223857600080fd5b6102c65a03f1151561224957600080fd5b5050506040518051905091505090565b60008060009054906101000a900473ffffffffffffffffffffffffffffffffffffffff16905090565b6000809054906101000a900473ffffffffffffffffffffffffffffffffffffffff1681565b6000806000806000600860020160009054906101000a900473ffffffffffffffffffffffffffffffffffffffff16600860010160009054906101000a900473ffffffffffffffffffffffffffffffffffffffff16600860040154600160050154600160060160009054906101000a900463ffffffff16945094509450945094509091929394565b6000806000809054906101000a900473ffffffffffffffffffffffffffffffffffffffff1673ffffffffffffffffffffffffffffffffffffffff163373ffffffffffffffffffffffffffffffffffffffff1614151561238c57600080fd5b600860000160009054906101000a900473ffffffffffffffffffffffffffffffffffffffff1691508173ffffffffffffffffffffffffffffffffffffffff1663088f47ee6000604051602001526040518163ffffffff167c0100000000000000000000000000000000000000000000000000000000028152600401602060405180830381600087803b151561242057600080fd5b6102c65a03f1151561243157600080fd5b5050506040518051905090508073ffffffffffffffffffffffffffffffffffffffff1663f39ba9323330866000604051602001526040518463ffffffff167c0100000000000000000000000000000000000000000000000000000000028152600401808473ffffffffffffffffffffffffffffffffffffffff1673ffffffffffffffffffffffffffffffffffffffff1681526020018373ffffffffffffffffffffffffffffffffffffffff1673ffffffffffffffffffffffffffffffffffffffff1681526020018273ffffffffffffffffffffffffffffffffffffffff1673ffffffffffffffffffffffffffffffffffffffff1681526020019350505050602060405180830381600087803b151561254857600080fd5b6102c65a03f1151561255957600080fd5b50505060405180519050151561256e57600080fd5b82600860020160006101000a81548173ffffffffffffffffffffffffffffffffffffffff021916908373ffffffffffffffffffffffffffffffffffffffff160217905550505050565b600092915050565b60008060008060003460086003015481101515156125dc57600080fd5b6125e4612fd4565b809550819650829750839850505050506125fd82613072565b61260987838686613463565b61261860016003015486612f69565b600160030181905550600195505050505050919050565b50565b600061263d336125bf565b151561264857600080fd5b6001905090565b600092915050565b600080600860010160009054906101000a900473ffffffffffffffffffffffffffffffffffffffff1673ffffffffffffffffffffffffffffffffffffffff163373ffffffffffffffffffffffffffffffffffffffff161415156126b957600080fd5b600860000160009054906101000a900473ffffffffffffffffffffffffffffffffffffffff1691508173ffffffffffffffffffffffffffffffffffffffff1663088f47ee6000604051602001526040518163ffffffff167c0100000000000000000000000000000000000000000000000000000000028152600401602060405180830381600087803b151561274d57600080fd5b6102c65a03f1151561275e57600080fd5b5050506040518051905090508073ffffffffffffffffffffffffffffffffffffffff166391f1df843330866000604051602001526040518463ffffffff167c0100000000000000000000000000000000000000000000000000000000028152600401808473ffffffffffffffffffffffffffffffffffffffff1673ffffffffffffffffffffffffffffffffffffffff1681526020018373ffffffffffffffffffffffffffffffffffffffff1673ffffffffffffffffffffffffffffffffffffffff1681526020018281526020019350505050602060405180830381600087803b151561284957600080fd5b6102c65a03f1151561285a57600080fd5b50505060405180519050151561286f57600080fd5b82600860040181905550505050565b60008060008060006127106128988760016005015461372e565b8115156128a157fe5b04905060646128b58260086004015461372e565b8115156128be57fe5b049450846128cc8286612f50565b9450846128d98884612f50565b945084620f42406128f1876128ec61171d565b61372e565b8115156128fa57fe5b049450849450945094509450509193509193565b612916613775565b61291e613775565b60008060016000018054600181600116156101000203166002900480601f0160208091040260200160405190810160405280929190818152602001828054600181600116156101000203166002900480156129ba5780601f1061298f576101008083540402835291602001916129ba565b820191906000526020600020905b81548152906001019060200180831161299d57829003601f168201915b50505050509350600180018054600181600116156101000203166002900480601f016020809104026020016040519081016040528092919081815260200182805460018160011615610100020316600290048015612a595780601f10612a2e57610100808354040283529160200191612a59565b820191906000526020600020905b815481529060010190602001808311612a3c57829003601f168201915b50505050509250600860000160009054906101000a900473ffffffffffffffffffffffffffffffffffffffff1691508173ffffffffffffffffffffffffffffffffffffffff1663088f47ee6000604051602001526040518163ffffffff167c0100000000000000000000000000000000000000000000000000000000028152600401602060405180830381600087803b1515612af457600080fd5b6102c65a03f11515612b0557600080fd5b5050506040518051905090508073ffffffffffffffffffffffffffffffffffffffff1663fee9da4a3330898989896000604051602001526040518763ffffffff167c0100000000000000000000000000000000000000000000000000000000028152600401808773ffffffffffffffffffffffffffffffffffffffff1673ffffffffffffffffffffffffffffffffffffffff1681526020018673ffffffffffffffffffffffffffffffffffffffff1673ffffffffffffffffffffffffffffffffffffffff1681526020018581526020018481526020018060200180602001838103835285818151815260200191508051906020019080838360005b83811015612c1b578082015181840152602081019050612c00565b50505050905090810190601f168015612c485780820380516001836020036101000a031916815260200191505b50838103825284818151815260200191508051906020019080838360005b83811015612c81578082015181840152602081019050612c66565b50505050905090810190601f168015612cae5780820380516001836020036101000a031916815260200191505b5098505050505050505050602060405180830381600087803b1515612cd257600080fd5b6102c65a03f11515612ce357600080fd5b505050604051805190501515612cf857600080fd5b505050505050565b612d4c600d60008673ffffffffffffffffffffffffffffffffffffffff1673ffffffffffffffffffffffffffffffffffffffff1681526020019081526020016000206000015484612f50565b600d60008673ffffffffffffffffffffffffffffffffffffffff1673ffffffffffffffffffffffffffffffffffffffff16815260200190815260200160002060000181905550612e03600d6000600860020160009054906101000a900473ffffffffffffffffffffffffffffffffffffffff1673ffffffffffffffffffffffffffffffffffffffff1673ffffffffffffffffffffffffffffffffffffffff1681526020019081526020016000206000015483612f69565b600d6000600860020160009054906101000a900473ffffffffffffffffffffffffffffffffffffffff1673ffffffffffffffffffffffffffffffffffffffff1673ffffffffffffffffffffffffffffffffffffffff16815260200190815260200160002060000181905550612edf600d6000600860010160009054906101000a900473ffffffffffffffffffffffffffffffffffffffff1673ffffffffffffffffffffffffffffffffffffffff1673ffffffffffffffffffffffffffffffffffffffff1681526020019081526020016000206000015482612f69565b600d6000600860010160009054906101000a900473ffffffffffffffffffffffffffffffffffffffff1673ffffffffffffffffffffffffffffffffffffffff1673ffffffffffffffffffffffffffffffffffffffff1681526020019081526020016000206000018190555050505050565b6000828211151515612f5e57fe5b818303905092915050565b6000808284019050838110158015612f815750828110155b1515612f8957fe5b8091505092915050565b600080600083111515612fa257fe5b8284811515612fad57fe5b0490508284811515612fbb57fe5b068184020184141515612fca57fe5b8091505092915050565b6000806000806000612ff2620f42403402612fed61171d565b612f93565b94506127106130068660016005015461372e565b81151561300f57fe5b049050613028620f4240340261302361171d565b612f93565b945084606461303c8360086004015461372e565b81151561304557fe5b049450846130538387612f50565b9450846130608885612f50565b94508494509450945094505090919293565b61307a613775565b613082613775565b60008060016000018054600181600116156101000203166002900480601f01602080910402602001604051908101604052809291908181526020018280546001816001161561010002031660029004801561311e5780601f106130f35761010080835404028352916020019161311e565b820191906000526020600020905b81548152906001019060200180831161310157829003601f168201915b50505050509350600180018054600181600116156101000203166002900480601f0160208091040260200160405190810160405280929190818152602001828054600181600116156101000203166002900480156131bd5780601f10613192576101008083540402835291602001916131bd565b820191906000526020600020905b8154815290600101906020018083116131a057829003601f168201915b50505050509250600860000160009054906101000a900473ffffffffffffffffffffffffffffffffffffffff1691508173ffffffffffffffffffffffffffffffffffffffff1663088f47ee6000604051602001526040518163ffffffff167c0100000000000000000000000000000000000000000000000000000000028152600401602060405180830381600087803b151561325857600080fd5b6102c65a03f1151561326957600080fd5b5050506040518051905090508073ffffffffffffffffffffffffffffffffffffffff16632f2d7bf43330348989896000604051602001526040518763ffffffff167c0100000000000000000000000000000000000000000000000000000000028152600401808773ffffffffffffffffffffffffffffffffffffffff1673ffffffffffffffffffffffffffffffffffffffff1681526020018673ffffffffffffffffffffffffffffffffffffffff1673ffffffffffffffffffffffffffffffffffffffff1681526020018581526020018481526020018060200180602001838103835285818151815260200191508051906020019080838360005b8381101561337f578082015181840152602081019050613364565b50505050905090810190601f1680156133ac5780820380516001836020036101000a031916815260200191505b50838103825284818151815260200191508051906020019080838360005b838110156133e55780820151818401526020810190506133ca565b50505050905090810190601f1680156134125780820380516001836020036101000a031916815260200191505b5098505050505050505050602060405180830381600087803b151561343657600080fd5b6102c65a03f1151561344757600080fd5b50505060405180519050151561345c57600080fd5b5050505050565b6134af600d60008673ffffffffffffffffffffffffffffffffffffffff1673ffffffffffffffffffffffffffffffffffffffff1681526020019081526020016000206000015484612f69565b600d60008673ffffffffffffffffffffffffffffffffffffffff1673ffffffffffffffffffffffffffffffffffffffff16815260200190815260200160002060000181905550613566600d6000600860020160009054906101000a900473ffffffffffffffffffffffffffffffffffffffff1673ffffffffffffffffffffffffffffffffffffffff1673ffffffffffffffffffffffffffffffffffffffff1681526020019081526020016000206000015483612f69565b600d6000600860020160009054906101000a900473ffffffffffffffffffffffffffffffffffffffff1673ffffffffffffffffffffffffffffffffffffffff1673ffffffffffffffffffffffffffffffffffffffff16815260200190815260200160002060000181905550613642600d6000600860010160009054906101000a900473ffffffffffffffffffffffffffffffffffffffff1673ffffffffffffffffffffffffffffffffffffffff1673ffffffffffffffffffffffffffffffffffffffff1681526020019081526020016000206000015482612f69565b600d6000600860010160009054906101000a900473ffffffffffffffffffffffffffffffffffffffff1673ffffffffffffffffffffffffffffffffffffffff1673ffffffffffffffffffffffffffffffffffffffff16815260200190815260200160002060000181905550600160060160009054906101000a900463ffffffff164201600d60008673ffffffffffffffffffffffffffffffffffffffff1673ffffffffffffffffffffffffffffffffffffffff16815260200190815260200160002060010160000160006101000a81548163ffffffff021916908363ffffffff16021790555050505050565b6000808284029050600084148061374f575082848281151561374c57fe5b04145b151561375757fe5b8091505092915050565b602060405190810160405280600081525090565b6020604051908101604052806000815250905600a165627a7a723058204868f2368317adc7a8395f820b3a7e463fca4968c7b2d4db446ca019a105ae120029a165627a7a72305820cf8de8df575e4e01a681c0fddd21e003ae5f0f1fd44a1619967b462311b9cc1a0029",
  "source": "/*\n\n Copyright 2017-2018 RigoBlock, Rigo Investment Sagl.\n\n Licensed under the Apache License, Version 2.0 (the \"License\");\n you may not use this file except in compliance with the License.\n You may obtain a copy of the License at\n\n     http://www.apache.org/licenses/LICENSE-2.0\n\n Unless required by applicable law or agreed to in writing, software\n distributed under the License is distributed on an \"AS IS\" BASIS,\n WITHOUT WARRANTIES OR CONDITIONS OF ANY KIND, either express or implied.\n See the License for the specific language governing permissions and\n limitations under the License.\n\n*/\n\npragma solidity ^0.4.19;\n\nimport { DragoRegistryFace as DragoRegistry } from \"../Registry/DragoRegistryFace.sol\";\nimport { AuthorityFace as Authority } from \"../Authority/AuthorityFace.sol\";\nimport { VaultFace as Vault } from \"../Vault/VaultFace.sol\";\nimport { VaultEventfulFace as VaultEventful } from \"../VaultEventful/VaultEventfulFace.sol\";\n\nimport { VaultFactoryLibrary } from \"./VaultFactoryLibrary/VaultFactoryLibrary.sol\";\nimport { OwnedUninitialized as Owned } from \"../utils/Owned/OwnedUninitialized.sol\";\nimport { VaultFactoryFace } from \"./VaultFactoryFace.sol\";\n\n/// @title Vault Factory contract - allows creation of new vaults.\n/// @author Gabriele Rigo - <gab@rigoblock.com>\ncontract VaultFactory is Owned, VaultFactoryFace {\n\n    VaultFactoryLibrary.NewVault libraryData;\n\n    string public constant VERSION = 'VF 0.4.1';\n\n    Data data;\n\n    struct Data {\n        uint fee;\n        address vaultRegistry;\n        address vaultDao;\n        address authority;\n        mapping(address => address[]) vaults;\n    }\n\n    event VaultCreated(\n        string name,\n        string symbol,\n        address indexed vault,\n        address indexed owner,\n        uint vaultId\n    );\n\n    modifier whitelisted_factory(address _authority) {\n        Authority auth = Authority(_authority);\n        if (auth.isWhitelistedFactory(this)) _;\n    }\n\n    modifier when_fee_paid { require(msg.value >= data.fee); _; }\n    modifier only_owner { require(msg.sender == owner); _; }\n    modifier only_vault_dao { require(msg.sender == data.vaultDao); _; }\n\n    function VaultFactory(\n        address _registry,\n        address _vaultDao,\n        address _authority)\n        public\n    {\n        data.vaultRegistry = _registry;\n        data.vaultDao = _vaultDao;\n        data.authority = _authority;\n        owner = msg.sender;\n    }\n\n    // CORE FUNCTIONS\n\n    /// @dev allows creation of a new vault\n    /// @param _name String of the name\n    /// @param _symbol String of the symbol\n    /// @return Bool the transaction executed correctly\n    function createVault(string _name, string _symbol)\n        public\n        returns (bool success)\n    {\n        DragoRegistry registry = DragoRegistry(data.vaultRegistry);\n        uint regFee = registry.getFee();\n        uint vaultId = registry.dragoCount();\n        require(createVaultInternal(_name, _symbol, msg.sender, vaultId));\n        assert(registry.register.value(regFee)(\n            libraryData.newAddress,\n            _name,\n            _symbol,\n            vaultId,\n            msg.sender)\n        );\n        return true;\n    }\n\n    /// @dev Allows factory owner to update the address of the dao/factory\n    /// @dev Enables manual update of dao for single vaults\n    /// @param _targetVault Address of the target vault\n    /// @param _vaultDao Address of the new vault dao\n    function setTargetVaultDao(address _targetVault, address _vaultDao)\n        public\n        only_owner\n    {\n        Vault vault = Vault(_targetVault);\n        vault.changeVaultDao(_vaultDao);\n    }\n\n    /// @dev Allows vault dao/factory to update its address\n    /// @dev Creates internal record\n    /// @param _newVaultDao Address of the vault dao\n    function changeVaultDao(address _newVaultDao) public only_vault_dao {\n        data.vaultDao = _newVaultDao;\n    }\n\n    /// @dev Allows owner to update the registry\n    /// @param _newRegistry Address of the new registry\n    function setRegistry(address _newRegistry) public only_owner {\n        data.vaultRegistry = _newRegistry;\n    }\n\n    /// @dev Allows owner to set the address which can collect creation fees\n    /// @param _vaultDao Address of the new vault dao/factory\n    function setBeneficiary(address _vaultDao) public only_owner {\n        data.vaultDao = _vaultDao;\n    }\n\n    /// @dev Allows owner to set the vault creation fee\n    /// @param _fee Value of the fee in wei\n    function setFee(uint _fee) public only_owner {\n        data.fee = _fee;\n    }\n\n    /// @dev Allows owner to collect fees\n    function drain() public only_owner {\n        data.vaultDao.transfer(this.balance);\n    }\n\n    // CONSTANT PUBLIC FUNCTIONS\n\n    /// @dev Returns the address of the pool registry\n    /// @return Address of the registry\n    function getRegistry() public constant returns (address) {\n        return (data.vaultRegistry);\n    }\n\n    /// @dev Returns administrative data for this factory\n    /// @return Address of the vault dao\n    /// @return String of the version\n    /// @return Number of the next vault from the registry\n    function getStorage()\n        public\n        constant\n        returns (\n            address vaultDao,\n            string version,\n            uint nextVaultId\n        )\n    {\n        return (\n            vaultDao = data.vaultDao,\n            version = VERSION,\n            nextVaultId = getNextId()\n        );\n    }\n\n    /// @dev Returns the next Id for a vault\n    /// @return Number of the next Id from the registry\n    function getNextId() public constant returns (uint nextVaultId) {\n        DragoRegistry registry = DragoRegistry(data.vaultRegistry);\n        nextVaultId = registry.dragoCount();\n    }\n\n    /// @dev Returns the address of the logger contract\n    /// @dev Queries from authority contract\n    /// @return Address of the eventful contract\n    function getEventful() public constant returns (address) {\n        Authority auth = Authority(data.authority);\n        return auth.getVaultEventful();\n    }\n\n    /// @dev Returns an array of vaults the owner has created\n    /// @param _owner Address of the queried owner\n    /// @return Array of vault addresses\n    function getVaultsByAddress(address _owner)\n        public\n        constant\n        returns (address[])\n    {\n        return data.vaults[_owner];\n    }\n\n    // INTERNAL FUNCTIONS\n\n    /// @dev Creates a vault and routes to eventful\n    /// @param _name String of the name\n    /// @param _symbol String of the symbol\n    /// @param _owner Address of the owner\n    /// @param _vaultId Number of the new vault Id\n    /// @return Bool the transaction executed correctly\n    function createVaultInternal(\n        string _name,\n        string _symbol,\n        address _owner,\n        uint _vaultId)\n        internal\n        when_fee_paid\n        returns (bool success)\n    {\n        Authority auth = Authority(data.authority);\n        require(VaultFactoryLibrary.createVault(\n            libraryData,\n            _name,\n            _symbol,\n            _owner,\n            _vaultId,\n            data.authority)\n        );\n        data.vaults[msg.sender].push(libraryData.newAddress);\n        VaultEventful events = VaultEventful(auth.getVaultEventful());\n        require(events.createVault(\n            msg.sender,\n            this,\n            libraryData.newAddress,\n            _name,\n            _symbol,\n            _vaultId,\n            _owner)\n        );\n        auth.whitelistVault(libraryData.newAddress, true);\n        auth.whitelistUser(msg.sender, true);\n        VaultCreated(_name, _symbol, libraryData.newAddress, _owner, _vaultId);\n        return true;\n    }\n}\n",
  "sourcePath": "/home/gab/truffle/contracts/contracts/VaultFactory/VaultFactory.sol",
  "compiler": {
    "name": "solc",
    "version": "0.4.19+commit.c4cbbb05.Emscripten.clang"
  },
  "schemaVersion": "2.0.0",
  "updatedAt": "2018-03-05T01:35:43.843Z"
}