{
  "contractName": "VaultFactoryFace",
  "abi": [
    {
      "anonymous": false,
      "inputs": [
        {
          "indexed": false,
          "name": "name",
          "type": "string"
        },
        {
          "indexed": false,
          "name": "symbol",
          "type": "string"
        },
        {
          "indexed": true,
          "name": "vault",
          "type": "address"
        },
        {
          "indexed": true,
          "name": "owner",
          "type": "address"
        },
        {
          "indexed": false,
          "name": "vaultId",
          "type": "uint256"
        }
      ],
      "name": "VaultCreated",
      "type": "event"
    },
    {
      "constant": false,
      "inputs": [
        {
          "name": "_name",
          "type": "string"
        },
        {
          "name": "_symbol",
          "type": "string"
        }
      ],
      "name": "createVault",
      "outputs": [
        {
          "name": "success",
          "type": "bool"
        }
      ],
      "payable": false,
      "stateMutability": "nonpayable",
      "type": "function"
    },
    {
      "constant": false,
      "inputs": [
        {
          "name": "_targetVault",
          "type": "address"
        },
        {
          "name": "_vaultDao",
          "type": "address"
        }
      ],
      "name": "setTargetVaultDao",
      "outputs": [],
      "payable": false,
      "stateMutability": "nonpayable",
      "type": "function"
    },
    {
      "constant": false,
      "inputs": [
        {
          "name": "_newVaultDao",
          "type": "address"
        }
      ],
      "name": "changeVaultDao",
      "outputs": [],
      "payable": false,
      "stateMutability": "nonpayable",
      "type": "function"
    },
    {
      "constant": false,
      "inputs": [
        {
          "name": "_newRegistry",
          "type": "address"
        }
      ],
      "name": "setRegistry",
      "outputs": [],
      "payable": false,
      "stateMutability": "nonpayable",
      "type": "function"
    },
    {
      "constant": false,
      "inputs": [
        {
          "name": "_vaultDao",
          "type": "address"
        }
      ],
      "name": "setBeneficiary",
      "outputs": [],
      "payable": false,
      "stateMutability": "nonpayable",
      "type": "function"
    },
    {
      "constant": false,
      "inputs": [
        {
          "name": "_fee",
          "type": "uint256"
        }
      ],
      "name": "setFee",
      "outputs": [],
      "payable": false,
      "stateMutability": "nonpayable",
      "type": "function"
    },
    {
      "constant": false,
      "inputs": [],
      "name": "drain",
      "outputs": [],
      "payable": false,
      "stateMutability": "nonpayable",
      "type": "function"
    },
    {
      "constant": true,
      "inputs": [],
      "name": "getRegistry",
      "outputs": [
        {
          "name": "",
          "type": "address"
        }
      ],
      "payable": false,
      "stateMutability": "view",
      "type": "function"
    },
    {
      "constant": true,
      "inputs": [],
      "name": "getStorage",
      "outputs": [
        {
          "name": "vaultDao",
          "type": "address"
        },
        {
          "name": "version",
          "type": "string"
        },
        {
          "name": "nextVaultId",
          "type": "uint256"
        }
      ],
      "payable": false,
      "stateMutability": "view",
      "type": "function"
    },
    {
      "constant": true,
      "inputs": [],
      "name": "getNextId",
      "outputs": [
        {
          "name": "nextVaultId",
          "type": "uint256"
        }
      ],
      "payable": false,
      "stateMutability": "view",
      "type": "function"
    },
    {
      "constant": true,
      "inputs": [],
      "name": "getEventful",
      "outputs": [
        {
          "name": "",
          "type": "address"
        }
      ],
      "payable": false,
      "stateMutability": "view",
      "type": "function"
    },
    {
      "constant": true,
      "inputs": [
        {
          "name": "_owner",
          "type": "address"
        }
      ],
      "name": "getVaultsByAddress",
      "outputs": [
        {
          "name": "",
          "type": "address[]"
        }
      ],
      "payable": false,
      "stateMutability": "view",
      "type": "function"
    }
  ],
  "bytecode": "0x6060604052341561000f57600080fd5b6105768061001e6000396000f3006060604052600436106100ba576000357c0100000000000000000000000000000000000000000000000000000000900463ffffffff1680631c31f710146100bf5780633408f73a146100f857806350825207146101c05780635ab1bd53146101f957806369fe0e2d1461024e578063837929b6146102715780639890220b146102c6578063a390d7e1146102db578063a91ee0dc14610393578063b11e2beb146103cc578063bc9683261461045a578063ed3b49ac14610483575b600080fd5b34156100ca57600080fd5b6100f6600480803573ffffffffffffffffffffffffffffffffffffffff169060200190919050506104db565b005b341561010357600080fd5b61010b6104de565b604051808473ffffffffffffffffffffffffffffffffffffffff1673ffffffffffffffffffffffffffffffffffffffff16815260200180602001838152602001828103825284818151815260200191508051906020019080838360005b83811015610183578082015181840152602081019050610168565b50505050905090810190601f1680156101b05780820380516001836020036101000a031916815260200191505b5094505050505060405180910390f35b34156101cb57600080fd5b6101f7600480803573ffffffffffffffffffffffffffffffffffffffff169060200190919050506104ef565b005b341561020457600080fd5b61020c6104f2565b604051808273ffffffffffffffffffffffffffffffffffffffff1673ffffffffffffffffffffffffffffffffffffffff16815260200191505060405180910390f35b341561025957600080fd5b61026f60048080359060200190919050506104f7565b005b341561027c57600080fd5b6102846104fa565b604051808273ffffffffffffffffffffffffffffffffffffffff1673ffffffffffffffffffffffffffffffffffffffff16815260200191505060405180910390f35b34156102d157600080fd5b6102d96104ff565b005b34156102e657600080fd5b610379600480803590602001908201803590602001908080601f0160208091040260200160405190810160405280939291908181526020018383808284378201915050505050509190803590602001908201803590602001908080601f01602080910402602001604051908101604052809392919081815260200183838082843782019150505050505091905050610501565b604051808215151515815260200191505060405180910390f35b341561039e57600080fd5b6103ca600480803573ffffffffffffffffffffffffffffffffffffffff16906020019091905050610509565b005b34156103d757600080fd5b610403600480803573ffffffffffffffffffffffffffffffffffffffff1690602001909190505061050c565b6040518080602001828103825283818151815260200191508051906020019060200280838360005b8381101561044657808201518184015260208101905061042b565b505050509050019250505060405180910390f35b341561046557600080fd5b61046d610519565b6040518082815260200191505060405180910390f35b341561048e57600080fd5b6104d9600480803573ffffffffffffffffffffffffffffffffffffffff1690602001909190803573ffffffffffffffffffffffffffffffffffffffff1690602001909190505061051e565b005b50565b60006104e8610522565b6000909192565b50565b600090565b50565b600090565b565b600092915050565b50565b610514610536565b919050565b600090565b5050565b602060405190810160405280600081525090565b6020604051908101604052806000815250905600a165627a7a72305820b19812940a41aa95ccd1696e994f5b74cf03ee43f96a2ffed5232a61eb6b6b900029",
  "source": "/*\n\n Copyright 2017-2018 RigoBlock, Rigo Investment Sagl.\n\n Licensed under the Apache License, Version 2.0 (the \"License\");\n you may not use this file except in compliance with the License.\n You may obtain a copy of the License at\n\n     http://www.apache.org/licenses/LICENSE-2.0\n\n Unless required by applicable law or agreed to in writing, software\n distributed under the License is distributed on an \"AS IS\" BASIS,\n WITHOUT WARRANTIES OR CONDITIONS OF ANY KIND, either express or implied.\n See the License for the specific language governing permissions and\n limitations under the License.\n\n*/\n\npragma solidity ^0.4.19;\n\n/// @title Vault Factory Interface - Allows external interaction with Vault Factory.\n/// @author Gabriele Rigo - <gab@rigoblock.com>\ncontract VaultFactoryFace {\n\n    event VaultCreated(string name, string symbol, address indexed vault, address indexed owner, uint vaultId);\n\n    function createVault(string _name, string _symbol) public returns (bool success) {}\n    function setTargetVaultDao(address _targetVault, address _vaultDao) public {}\n    function changeVaultDao(address _newVaultDao) public {}\n    function setRegistry(address _newRegistry) public {}\n    function setBeneficiary(address _vaultDao) public {}\n    function setFee(uint _fee) public {}\n    function drain() public {}\n    //function setOwner(address _new) public {}\n\n    function getRegistry() public constant returns (address) {}\n    function getStorage() public constant returns (address vaultDao, string version, uint nextVaultId) {}\n    function getNextId() public constant returns (uint nextVaultId) {}\n    function getEventful() public constant returns (address) {}\n    function getVaultsByAddress(address _owner) public constant returns (address[]) {}\n    //function getOwner() public constant returns (address) {}\n}\n",
  "sourcePath": "/home/gab/truffle/contracts/contracts/VaultFactory/VaultFactoryFace.sol",
  "compiler": {
    "name": "solc",
    "version": "0.4.19+commit.c4cbbb05.Emscripten.clang"
  },
  "schemaVersion": "2.0.0",
  "updatedAt": "2018-03-05T01:35:43.852Z"
}