{
  "contractName": "VaultEventful",
  "abi": [
    {
      "constant": true,
      "inputs": [],
      "name": "REGISTRY",
      "outputs": [
        {
          "name": "",
          "type": "address"
        }
      ],
      "payable": false,
      "stateMutability": "view",
      "type": "function"
    },
    {
      "constant": true,
      "inputs": [],
      "name": "AUTHORITY",
      "outputs": [
        {
          "name": "",
          "type": "address"
        }
      ],
      "payable": false,
      "stateMutability": "view",
      "type": "function"
    },
    {
      "constant": false,
      "inputs": [
        {
          "name": "_who",
          "type": "address"
        },
        {
          "name": "_targetVault",
          "type": "address"
        },
        {
          "name": "_ratio",
          "type": "uint256"
        }
      ],
      "name": "changeRatio",
      "outputs": [
        {
          "name": "success",
          "type": "bool"
        }
      ],
      "payable": false,
      "stateMutability": "nonpayable",
      "type": "function"
    },
    {
      "constant": true,
      "inputs": [],
      "name": "VERSION",
      "outputs": [
        {
          "name": "",
          "type": "string"
        }
      ],
      "payable": false,
      "stateMutability": "view",
      "type": "function"
    },
    {
      "inputs": [
        {
          "name": "_authority",
          "type": "address"
        },
        {
          "name": "_registry",
          "type": "address"
        }
      ],
      "payable": false,
      "stateMutability": "nonpayable",
      "type": "constructor"
    },
    {
      "anonymous": false,
      "inputs": [
        {
          "indexed": true,
          "name": "vault",
          "type": "address"
        },
        {
          "indexed": true,
          "name": "from",
          "type": "address"
        },
        {
          "indexed": true,
          "name": "to",
          "type": "address"
        },
        {
          "indexed": false,
          "name": "amount",
          "type": "uint256"
        },
        {
          "indexed": false,
          "name": "revenue",
          "type": "uint256"
        },
        {
          "indexed": false,
          "name": "name",
          "type": "bytes"
        },
        {
          "indexed": false,
          "name": "symbol",
          "type": "bytes"
        }
      ],
      "name": "BuyVault",
      "type": "event"
    },
    {
      "anonymous": false,
      "inputs": [
        {
          "indexed": true,
          "name": "vault",
          "type": "address"
        },
        {
          "indexed": true,
          "name": "from",
          "type": "address"
        },
        {
          "indexed": true,
          "name": "to",
          "type": "address"
        },
        {
          "indexed": false,
          "name": "amount",
          "type": "uint256"
        },
        {
          "indexed": false,
          "name": "revenue",
          "type": "uint256"
        },
        {
          "indexed": false,
          "name": "name",
          "type": "bytes"
        },
        {
          "indexed": false,
          "name": "symbol",
          "type": "bytes"
        }
      ],
      "name": "SellVault",
      "type": "event"
    },
    {
      "anonymous": false,
      "inputs": [
        {
          "indexed": true,
          "name": "vault",
          "type": "address"
        },
        {
          "indexed": true,
          "name": "from",
          "type": "address"
        },
        {
          "indexed": true,
          "name": "to",
          "type": "address"
        },
        {
          "indexed": false,
          "name": "fee",
          "type": "uint256"
        }
      ],
      "name": "NewFee",
      "type": "event"
    },
    {
      "anonymous": false,
      "inputs": [
        {
          "indexed": true,
          "name": "vault",
          "type": "address"
        },
        {
          "indexed": true,
          "name": "from",
          "type": "address"
        },
        {
          "indexed": true,
          "name": "to",
          "type": "address"
        },
        {
          "indexed": false,
          "name": "collector",
          "type": "address"
        }
      ],
      "name": "NewCollector",
      "type": "event"
    },
    {
      "anonymous": false,
      "inputs": [
        {
          "indexed": true,
          "name": "vault",
          "type": "address"
        },
        {
          "indexed": true,
          "name": "from",
          "type": "address"
        },
        {
          "indexed": true,
          "name": "to",
          "type": "address"
        },
        {
          "indexed": false,
          "name": "vaultDao",
          "type": "address"
        }
      ],
      "name": "VaultDao",
      "type": "event"
    },
    {
      "anonymous": false,
      "inputs": [
        {
          "indexed": true,
          "name": "vault",
          "type": "address"
        },
        {
          "indexed": true,
          "name": "validator",
          "type": "address"
        },
        {
          "indexed": true,
          "name": "casper",
          "type": "address"
        },
        {
          "indexed": false,
          "name": "withdrawal",
          "type": "address"
        },
        {
          "indexed": false,
          "name": "amount",
          "type": "uint256"
        }
      ],
      "name": "DepositCasper",
      "type": "event"
    },
    {
      "anonymous": false,
      "inputs": [
        {
          "indexed": true,
          "name": "vault",
          "type": "address"
        },
        {
          "indexed": true,
          "name": "validator",
          "type": "address"
        },
        {
          "indexed": true,
          "name": "casper",
          "type": "address"
        },
        {
          "indexed": false,
          "name": "validatorIndex",
          "type": "uint256"
        }
      ],
      "name": "WithdrawCasper",
      "type": "event"
    },
    {
      "anonymous": false,
      "inputs": [
        {
          "indexed": true,
          "name": "vault",
          "type": "address"
        },
        {
          "indexed": true,
          "name": "group",
          "type": "address"
        },
        {
          "indexed": true,
          "name": "owner",
          "type": "address"
        },
        {
          "indexed": false,
          "name": "vaultId",
          "type": "uint256"
        },
        {
          "indexed": false,
          "name": "name",
          "type": "string"
        },
        {
          "indexed": false,
          "name": "symbol",
          "type": "string"
        }
      ],
      "name": "VaultCreated",
      "type": "event"
    },
    {
      "constant": false,
      "inputs": [
        {
          "name": "_who",
          "type": "address"
        },
        {
          "name": "_targetVault",
          "type": "address"
        },
        {
          "name": "_value",
          "type": "uint256"
        },
        {
          "name": "_amount",
          "type": "uint256"
        },
        {
          "name": "_name",
          "type": "bytes"
        },
        {
          "name": "_symbol",
          "type": "bytes"
        }
      ],
      "name": "buyVault",
      "outputs": [
        {
          "name": "success",
          "type": "bool"
        }
      ],
      "payable": false,
      "stateMutability": "nonpayable",
      "type": "function"
    },
    {
      "constant": false,
      "inputs": [
        {
          "name": "_who",
          "type": "address"
        },
        {
          "name": "_targetVault",
          "type": "address"
        },
        {
          "name": "_amount",
          "type": "uint256"
        },
        {
          "name": "_revenue",
          "type": "uint256"
        },
        {
          "name": "_name",
          "type": "bytes"
        },
        {
          "name": "_symbol",
          "type": "bytes"
        }
      ],
      "name": "sellVault",
      "outputs": [
        {
          "name": "success",
          "type": "bool"
        }
      ],
      "payable": false,
      "stateMutability": "nonpayable",
      "type": "function"
    },
    {
      "constant": false,
      "inputs": [
        {
          "name": "_who",
          "type": "address"
        },
        {
          "name": "_targetVault",
          "type": "address"
        },
        {
          "name": "_transactionFee",
          "type": "uint256"
        }
      ],
      "name": "setTransactionFee",
      "outputs": [
        {
          "name": "success",
          "type": "bool"
        }
      ],
      "payable": false,
      "stateMutability": "nonpayable",
      "type": "function"
    },
    {
      "constant": false,
      "inputs": [
        {
          "name": "_who",
          "type": "address"
        },
        {
          "name": "_targetVault",
          "type": "address"
        },
        {
          "name": "_feeCollector",
          "type": "address"
        }
      ],
      "name": "changeFeeCollector",
      "outputs": [
        {
          "name": "success",
          "type": "bool"
        }
      ],
      "payable": false,
      "stateMutability": "nonpayable",
      "type": "function"
    },
    {
      "constant": false,
      "inputs": [
        {
          "name": "_who",
          "type": "address"
        },
        {
          "name": "_targetVault",
          "type": "address"
        },
        {
          "name": "_vaultDao",
          "type": "address"
        }
      ],
      "name": "changeVaultDao",
      "outputs": [
        {
          "name": "success",
          "type": "bool"
        }
      ],
      "payable": false,
      "stateMutability": "nonpayable",
      "type": "function"
    },
    {
      "constant": false,
      "inputs": [
        {
          "name": "_who",
          "type": "address"
        },
        {
          "name": "_targetVault",
          "type": "address"
        },
        {
          "name": "_casper",
          "type": "address"
        },
        {
          "name": "_validation",
          "type": "address"
        },
        {
          "name": "_withdrawal",
          "type": "address"
        },
        {
          "name": "_amount",
          "type": "uint256"
        }
      ],
      "name": "depositToCasper",
      "outputs": [
        {
          "name": "success",
          "type": "bool"
        }
      ],
      "payable": false,
      "stateMutability": "nonpayable",
      "type": "function"
    },
    {
      "constant": false,
      "inputs": [
        {
          "name": "_who",
          "type": "address"
        },
        {
          "name": "_targetVault",
          "type": "address"
        },
        {
          "name": "_casper",
          "type": "address"
        },
        {
          "name": "_validatorIndex",
          "type": "uint256"
        }
      ],
      "name": "withdrawFromCasper",
      "outputs": [
        {
          "name": "success",
          "type": "bool"
        }
      ],
      "payable": false,
      "stateMutability": "nonpayable",
      "type": "function"
    },
    {
      "constant": false,
      "inputs": [
        {
          "name": "_who",
          "type": "address"
        },
        {
          "name": "_vaultFactory",
          "type": "address"
        },
        {
          "name": "_newVault",
          "type": "address"
        },
        {
          "name": "_name",
          "type": "string"
        },
        {
          "name": "_symbol",
          "type": "string"
        },
        {
          "name": "_vaultId",
          "type": "uint256"
        }
      ],
      "name": "createVault",
      "outputs": [
        {
          "name": "success",
          "type": "bool"
        }
      ],
      "payable": false,
      "stateMutability": "nonpayable",
      "type": "function"
    },
    {
      "constant": false,
      "inputs": [
        {
          "name": "_who",
          "type": "address"
        },
        {
          "name": "_vaultFactory",
          "type": "address"
        },
        {
          "name": "_newVault",
          "type": "address"
        },
        {
          "name": "_name",
          "type": "string"
        },
        {
          "name": "_symbol",
          "type": "string"
        },
        {
          "name": "_vaultId",
          "type": "uint256"
        },
        {
          "name": "_owner",
          "type": "address"
        }
      ],
      "name": "createVault",
      "outputs": [
        {
          "name": "success",
          "type": "bool"
        }
      ],
      "payable": false,
      "stateMutability": "nonpayable",
      "type": "function"
    }
  ],
  "bytecode": "0x6060604052341561000f57600080fd5b604051604080611043833981016040528080519190602001805160008054600160a060020a03958616600160a060020a03199182161790915560018054959092169416939093179092555050610fd98061006a6000396000f3006060604052600436106100ab5763ffffffff60e060020a60003504166306433b1b81146100b05780631ebbfe60146100df5780632f2d7bf41461013a57806340afc79d146101815780635b3dea5e146101af57806389fcd796146101e95780638f85a51c146101fc57806391f1df8414610227578063b84d49e11461024f578063d5aaa73a1461029d578063f39ba932146102c5578063fee9da4a146102f0578063ffa1ad7414610337575b600080fd5b34156100bb57600080fd5b6100c36103c1565b604051600160a060020a03909116815260200160405180910390f35b34156100ea57600080fd5b61012660048035600160a060020a039081169160248035831692604435169160643580830192908201359160843591820191013560a4356103d0565b604051901515815260200160405180910390f35b341561014557600080fd5b610126600160a060020a03600480358216916024803590911691604435916064359160843580830192908201359160a435918201910135610512565b341561018c57600080fd5b610126600160a060020a036004358116906024358116906044351660643561065b565b34156101ba57600080fd5b610126600160a060020a036004358116906024358116906044358116906064358116906084351660a4356107db565b34156101f457600080fd5b6100c361096e565b341561020757600080fd5b610126600160a060020a036004358116906024358116906044351661097d565b341561023257600080fd5b610126600160a060020a0360043581169060243516604435610b06565b341561025a57600080fd5b610126600160a060020a036004803582169160248035821692604435831692606435808401939083013592608435918201929101359060a4359060c43516610b0f565b34156102a857600080fd5b610126600160a060020a0360043581169060243516604435610b1e565b34156102d057600080fd5b610126600160a060020a0360043581169060243581169060443516610c9a565b34156102fb57600080fd5b610126600160a060020a03600480358216916024803590911691604435916064359160843580830192908201359160a435918201910135610e20565b341561034257600080fd5b61034a610f76565b60405160208082528190810183818151815260200191508051906020019080838360005b8381101561038657808201518382015260200161036e565b50505050905090810190601f1680156103b35780820380516001836020036101000a031916815260200191505b509250505060405180910390f35b600154600160a060020a031681565b600080548890600160a060020a03168063dcb7a3e083856040516020015260405160e060020a63ffffffff8416028152600160a060020a039091166004820152602401602060405180830381600087803b151561042c57600080fd5b6102c65a03f1151561043d57600080fd5b50505060405180519050156105045789600160a060020a031633600160a060020a031614151561046c57600080fd5b8a600160a060020a03168a600160a060020a03168a600160a060020a03167f64ed22ebf6a0e1e608cfc2a4fefa09fd94f6084554943b88d6cd6bf31536eaf8878c8c8c8c604051858152606060208201818152908201859052604082016080830187878082843790910184810383528581526020019050858580828437820191505097505050505050505060405180910390a4600192505b505098975050505050505050565b600080548890600160a060020a03168063a2ce277383856040516020015260405160e060020a63ffffffff8416028152600160a060020a039091166004820152602401602060405180830381600087803b151561056e57600080fd5b6102c65a03f1151561057f57600080fd5b50505060405180519050156105045789600160a060020a031633600160a060020a03161415156105ae57600080fd5b33600160a060020a03168b600160a060020a03168b600160a060020a03167f6141a2c56e3508b521d00477f5a870806718ec8575ab85abef01336b1ff47af48c8c8c8c8c8c604051868152602081018690526080604082018181529082018590526060820160a083018787808284379091018481038352858152602001905085858082843782019150509850505050505050505060405180910390a45060019a9950505050505050505050565b600080548490600160a060020a03168063a2ce277383856040516020015260405160e060020a63ffffffff8416028152600160a060020a039091166004820152602401602060405180830381600087803b15156106b757600080fd5b6102c65a03f115156106c857600080fd5b50505060405180519050156107d157600080548891600160a060020a0390911690819063d88c271e9084906040516020015260405160e060020a63ffffffff8416028152600160a060020a039091166004820152602401602060405180830381600087803b151561073857600080fd5b6102c65a03f1151561074957600080fd5b50505060405180519050156107ce5787600160a060020a031633600160a060020a031614151561077857600080fd5b86600160a060020a031689600160a060020a031689600160a060020a03167fcc559ba8797304a1980209c4d33e0f6c650b18db7faf6a948701143d4ec424658960405190815260200160405180910390a4600194505b50505b5050949350505050565b600080548690600160a060020a03168063a2ce277383856040516020015260405160e060020a63ffffffff8416028152600160a060020a039091166004820152602401602060405180830381600087803b151561083757600080fd5b6102c65a03f1151561084857600080fd5b505050604051805190501561096257600080548a91600160a060020a0390911690819063d88c271e9084906040516020015260405160e060020a63ffffffff8416028152600160a060020a039091166004820152602401602060405180830381600087803b15156108b857600080fd5b6102c65a03f115156108c957600080fd5b505050604051805190501561095f5789600160a060020a031633600160a060020a03161415156108f857600080fd5b88600160a060020a031688600160a060020a03168b600160a060020a03167f982bdc8d180375f96e97246bf98178a132eead25bae71432f6473a2a918cf5068a8a604051600160a060020a03909216825260208201526040908101905180910390a4600194505b50505b50509695505050505050565b600054600160a060020a031681565b600080548390600160a060020a03168063a2ce277383856040516020015260405160e060020a63ffffffff8416028152600160a060020a039091166004820152602401602060405180830381600087803b15156109d957600080fd5b6102c65a03f115156109ea57600080fd5b5050506040518051905015610afd57600080548791600160a060020a0390911690819063d88c271e9084906040516020015260405160e060020a63ffffffff8416028152600160a060020a039091166004820152602401602060405180830381600087803b1515610a5a57600080fd5b6102c65a03f11515610a6b57600080fd5b5050506040518051905015610afa5786600160a060020a031633600160a060020a0316141515610a9a57600080fd5b87600160a060020a031633600160a060020a031688600160a060020a03167fa7fd811628869bb4d099b1f287abd8664638b53aa8a51e3e97ed2cb17bf3eb8489604051600160a060020a03909116815260200160405180910390a4600194505b50505b50509392505050565b60009392505050565b60009998505050505050505050565b600080548390600160a060020a03168063a2ce277383856040516020015260405160e060020a63ffffffff8416028152600160a060020a039091166004820152602401602060405180830381600087803b1515610b7a57600080fd5b6102c65a03f11515610b8b57600080fd5b5050506040518051905015610afd57600080548791600160a060020a0390911690819063d88c271e9084906040516020015260405160e060020a63ffffffff8416028152600160a060020a039091166004820152602401602060405180830381600087803b1515610bfb57600080fd5b6102c65a03f11515610c0c57600080fd5b5050506040518051905015610afa5786600160a060020a031633600160a060020a0316141515610c3b57600080fd5b87600160a060020a031633600160a060020a031688600160a060020a03167f93d0111deb3c3657374f0dc73b64ff5ae0111e1e4e4d0b5860b0d799599d0a418960405190815260200160405180910390a4506001979650505050505050565b600080548390600160a060020a03168063a2ce277383856040516020015260405160e060020a63ffffffff8416028152600160a060020a039091166004820152602401602060405180830381600087803b1515610cf657600080fd5b6102c65a03f11515610d0757600080fd5b5050506040518051905015610afd57600080548791600160a060020a0390911690819063d88c271e9084906040516020015260405160e060020a63ffffffff8416028152600160a060020a039091166004820152602401602060405180830381600087803b1515610d7757600080fd5b6102c65a03f11515610d8857600080fd5b5050506040518051905015610afa5786600160a060020a031633600160a060020a0316141515610db757600080fd5b87600160a060020a031633600160a060020a031688600160a060020a03167fefe40f758cd182716682db7a4bcd9dd6b9fba7e0bcc9fb0096282108db6f02ef89604051600160a060020a03909116815260200160405180910390a4506001979650505050505050565b600080548890600160a060020a03168063a2ce277383856040516020015260405160e060020a63ffffffff8416028152600160a060020a039091166004820152602401602060405180830381600087803b1515610e7c57600080fd5b6102c65a03f11515610e8d57600080fd5b50505060405180519050156105045760008911610ea957600080fd5b89600160a060020a031633600160a060020a0316141515610ec957600080fd5b33600160a060020a03168b600160a060020a03168b600160a060020a03167f4aebdd85cf1c59f037ddd47abd2d880fea9ac8678f13a391cb5fb7cd8f7697668c8c8c8c8c8c604051868152602081018690526080604082018181529082018590526060820160a083018787808284379091018481038352858152602001905085858082843782019150509850505050505050505060405180910390a45060019a9950505050505050505050565b60408051908101604052600881527f444820302e342e310000000000000000000000000000000000000000000000006020820152815600a165627a7a723058201df8a36f956f3f0c42927e85592c70f606052fa796da30290b9fd0cb5064eedc0029",
  "source": "/*\n\n Copyright 2017-2018 RigoBlock, Rigo Investment Sagl.\n\n Licensed under the Apache License, Version 2.0 (the \"License\");\n you may not use this file except in compliance with the License.\n You may obtain a copy of the License at\n\n     http://www.apache.org/licenses/LICENSE-2.0\n\n Unless required by applicable law or agreed to in writing, software\n distributed under the License is distributed on an \"AS IS\" BASIS,\n WITHOUT WARRANTIES OR CONDITIONS OF ANY KIND, either express or implied.\n See the License for the specific language governing permissions and\n limitations under the License.\n\n*/\n\npragma solidity ^0.4.19;\n\nimport { AuthorityFace as Authority } from \"../Authority/AuthorityFace.sol\";\nimport { VaultEventfulFace } from \"./VaultEventfulFace.sol\";\n\n/// @title Vault Eventful - Logs events for all vaults.\n/// @author Gabriele Rigo - <gab@rigoblock.com>\ncontract VaultEventful is VaultEventfulFace {\n\n    string public constant VERSION = 'DH 0.4.1';\n\n    address public AUTHORITY;\n    address public REGISTRY;\n\n    event BuyVault(\n        address indexed vault,\n        address indexed from,\n        address indexed to,\n        uint256 amount,\n        uint256 revenue,\n        bytes name,\n        bytes symbol\n    );\n\n    event SellVault(\n        address indexed vault,\n        address indexed from,\n        address indexed to,\n        uint256 amount,\n        uint256 revenue,\n        bytes name,\n        bytes symbol\n    );\n\n    event NewFee(\n        address indexed vault,\n        address indexed from,\n        address indexed to,\n        uint fee\n    );\n\n    event NewCollector(\n        address indexed vault,\n        address indexed from,\n        address indexed to,\n        address collector\n    );\n\n    event VaultDao(\n        address indexed vault,\n        address indexed from,\n        address indexed to,\n        address vaultDao\n    );\n\n    event DepositCasper(\n        address indexed vault,\n        address indexed validator,\n        address indexed casper,\n        address withdrawal,\n        uint amount\n    );\n\n    event WithdrawCasper(\n        address indexed vault,\n        address indexed validator,\n        address indexed casper,\n        uint validatorIndex\n    );\n\n    event VaultCreated(\n        address indexed vault,\n        address indexed group,\n        address indexed owner,\n        uint vaultId,\n        string name,\n        string symbol\n    );\n\n    modifier approvedFactoryOnly(address _factory) {\n        Authority auth = Authority(AUTHORITY);\n        if (auth.isWhitelistedFactory(_factory)) _;\n    }\n\n    modifier approvedVaultOnly(address _vault) {\n        Authority auth = Authority(AUTHORITY);\n        if (auth.isWhitelistedVault(_vault)) _;\n    }\n\n    modifier isCasper(address _casper) {\n        Authority auth = Authority(AUTHORITY);\n        if (auth.getCasper() == _casper) _;\n    }\n\n    modifier approvedUserOnly(address _user) {\n        Authority auth = Authority(AUTHORITY);\n        if (auth.isWhitelistedUser(_user)) _;\n    }\n\n    function VaultEventful(address _authority, address _registry) public {\n        AUTHORITY = _authority;\n        REGISTRY = _registry;\n    }\n\n    // CORE FUNCTIONS\n\n    /// @dev Logs a Buy Vault event.\n    /// @param _who Address of who is buying\n    /// @param _targetVault Address of the target vault\n    /// @param _value Value of the transaction in Ether\n    /// @param _amount Number of shares purchased\n    /// @return Bool the transaction executed successfully\n    /// @notice transform name and symbol in .js with web3.toAscii(bytes32_date)\n    function buyVault(\n        address _who,\n        address _targetVault,\n        uint _value,\n        uint _amount,\n        bytes _name,\n        bytes _symbol)\n        external\n        approvedVaultOnly(_targetVault)\n        returns (bool success)\n    {\n        require(msg.sender == _targetVault);\n        BuyVault(_targetVault, _who, msg.sender, _value, _amount, _name, _symbol);\n        return true;\n    }\n\n    /// @dev Logs a Sell Vault event.\n    /// @param _who Address of who is selling\n    /// @param _targetVault Address of the target vault\n    /// @param _amount Number of shares purchased\n    /// @param _revenue Value of the transaction in Ether\n    /// @return Bool the transaction executed successfully\n    /// @notice transform name and symbol in .js with web3.toAscii(bytes32_date)\n    function sellVault(\n        address _who,\n        address _targetVault,\n        uint _amount,\n        uint _revenue,\n        bytes _name,\n        bytes _symbol)\n        external\n        approvedVaultOnly(_targetVault)\n        returns(bool success)\n    {\n        require(_amount > 0);\n        require(msg.sender == _targetVault);\n        SellVault(_targetVault, _who, msg.sender, _amount, _revenue, _name, _symbol);\n        return true;\n    }\n\n    /// @dev Logs a modification of the transaction fee event\n    /// @param _who Address of the caller\n    /// @param _targetVault Address of the target Vault\n    /// @param _transactionFee Value of the transaction fee in basis points\n    /// @return Bool the transaction executed successfully\n    function setTransactionFee(\n        address _who,\n        address _targetVault,\n        uint _transactionFee)\n        external\n        approvedVaultOnly(_targetVault)\n        approvedUserOnly(_who)\n        returns(bool success)\n    {\n        require(msg.sender == _targetVault);\n        NewFee(_targetVault, msg.sender, _who, _transactionFee);\n        return true;\n    }\n\n    /// @dev Logs when wizard changes fee collector address\n    /// @param _who Address of the caller\n    /// @param _targetVault Address of the target Vault\n    /// @param _feeCollector Address of the new fee collector\n    /// @return Bool the transaction executed successfully\n    function changeFeeCollector(\n        address _who,\n        address _targetVault,\n        address _feeCollector)\n        external\n        approvedVaultOnly(_targetVault)\n        approvedUserOnly(_who)\n        returns(bool success)\n    {\n        require(msg.sender == _targetVault);\n        NewCollector(_targetVault, msg.sender, _who, _feeCollector);\n        return true;\n    }\n\n    /// @dev Logs a change in the vault dao of an approved vault\n    /// @param _who Address of the caller\n    /// @param _targetVault Address of the vault\n    /// @param _vaultDao Address of the new vault dao\n    /// @return Bool the transaction executed successfully\n    function changeVaultDao(\n        address _who,\n        address _targetVault,\n        address _vaultDao)\n        external\n        approvedVaultOnly(_targetVault)\n        approvedUserOnly(_who)\n        returns(bool success)\n    {\n        require(msg.sender == _targetVault);\n        VaultDao(_targetVault, msg.sender, _who, _vaultDao);\n        return true;\n    }\n\n    /// @dev Logs a vault deposit to the casper contract\n    /// @param _who Address of the caller\n    /// @param _targetVault Address of the vault\n    /// @param _casper Address of the casper contract\n    /// @param _validation Address of the PoS miner\n    /// @param _withdrawal Address of casper withdrawal, must be the vault\n    /// @return Bool the transaction executed successfully\n    function depositToCasper(\n        address _who,\n        address _targetVault,\n        address _casper,\n        address _validation,\n        address _withdrawal,\n        uint _amount)\n        external\n        approvedVaultOnly(_targetVault)\n        approvedUserOnly(_who)\n        returns(bool success)\n    {\n        require(msg.sender == _targetVault);\n        DepositCasper(_targetVault, _validation, _casper, _withdrawal, _amount);\n        return true;\n    }\n\n    /// @dev Logs a vault withdrawal from the casper contract\n    /// @param _who Address of the caller\n    /// @param _targetVault Address of the vault\n    /// @param _casper Address of the casper contract\n    /// @param _validatorIndex Number of the validator in the casper contract\n    /// @return Bool the transaction executed successfully\n    function withdrawFromCasper(\n        address _who,\n        address _targetVault,\n        address _casper,\n        uint _validatorIndex)\n        external\n        approvedVaultOnly(_targetVault)\n        approvedUserOnly(_who)\n        returns(bool success)\n    {\n        require(msg.sender == _targetVault);\n        WithdrawCasper(_targetVault, _who, _casper, _validatorIndex);\n        return true;\n    }\n\n    /// @dev Logs a new Vault creation by factory\n    /// @param _who Address of the caller\n    /// @param _vaultFactory Address of the factory\n    /// @param _newVault Address of the new vault\n    /// @param _name String of the name of the new vault\n    /// @param _symbol String of the symbol of the new vault\n    /// @param _vaultId Number of the new vault Id\n    /// @return Bool the transaction executed successfully\n    function createVault(\n        address _who,\n        address _vaultFactory,\n        address _newVault,\n        string _name,\n        string _symbol,\n        uint _vaultId)\n        external\n        approvedFactoryOnly(_vaultFactory)\n        returns(bool success)\n    {\n        require(msg.sender == _vaultFactory);\n        VaultCreated(_newVault, _vaultFactory, _who, _vaultId, _name, _symbol);\n        return true;\n    }\n}\n",
  "sourcePath": "/home/gab/truffle/contracts/contracts/VaultEventful/VaultEventful.sol",
  "compiler": {
    "name": "solc",
    "version": "0.4.19+commit.c4cbbb05.Emscripten.clang"
  },
  "schemaVersion": "2.0.0",
  "updatedAt": "2018-03-05T21:05:52.624Z"
}