{
  "contractName": "VaultFactoryFace",
  "abi": [
    {
      "anonymous": false,
      "inputs": [
        {
          "indexed": false,
          "name": "name",
          "type": "string"
        },
        {
          "indexed": false,
          "name": "symbol",
          "type": "string"
        },
        {
          "indexed": true,
          "name": "vault",
          "type": "address"
        },
        {
          "indexed": true,
          "name": "owner",
          "type": "address"
        },
        {
          "indexed": false,
          "name": "vaultId",
          "type": "uint256"
        }
      ],
      "name": "VaultCreated",
      "type": "event"
    },
    {
      "constant": false,
      "inputs": [
        {
          "name": "_name",
          "type": "string"
        },
        {
          "name": "_symbol",
          "type": "string"
        }
      ],
      "name": "createVault",
      "outputs": [
        {
          "name": "success",
          "type": "bool"
        }
      ],
      "payable": false,
      "stateMutability": "nonpayable",
      "type": "function"
    },
    {
      "constant": false,
      "inputs": [
        {
          "name": "_targetVault",
          "type": "address"
        },
        {
          "name": "_vaultDao",
          "type": "address"
        }
      ],
      "name": "setTargetVaultDao",
      "outputs": [],
      "payable": false,
      "stateMutability": "nonpayable",
      "type": "function"
    },
    {
      "constant": false,
      "inputs": [
        {
          "name": "_newVaultDao",
          "type": "address"
        }
      ],
      "name": "changeVaultDao",
      "outputs": [],
      "payable": false,
      "stateMutability": "nonpayable",
      "type": "function"
    },
    {
      "constant": false,
      "inputs": [
        {
          "name": "_newRegistry",
          "type": "address"
        }
      ],
      "name": "setRegistry",
      "outputs": [],
      "payable": false,
      "stateMutability": "nonpayable",
      "type": "function"
    },
    {
      "constant": false,
      "inputs": [
        {
          "name": "_vaultDao",
          "type": "address"
        }
      ],
      "name": "setBeneficiary",
      "outputs": [],
      "payable": false,
      "stateMutability": "nonpayable",
      "type": "function"
    },
    {
      "constant": false,
      "inputs": [
        {
          "name": "_fee",
          "type": "uint256"
        }
      ],
      "name": "setFee",
      "outputs": [],
      "payable": false,
      "stateMutability": "nonpayable",
      "type": "function"
    },
    {
      "constant": false,
      "inputs": [],
      "name": "drain",
      "outputs": [],
      "payable": false,
      "stateMutability": "nonpayable",
      "type": "function"
    },
    {
      "constant": true,
      "inputs": [],
      "name": "getRegistry",
      "outputs": [
        {
          "name": "",
          "type": "address"
        }
      ],
      "payable": false,
      "stateMutability": "view",
      "type": "function"
    },
    {
      "constant": true,
      "inputs": [],
      "name": "getStorage",
      "outputs": [
        {
          "name": "vaultDao",
          "type": "address"
        },
        {
          "name": "version",
          "type": "string"
        },
        {
          "name": "nextVaultId",
          "type": "uint256"
        }
      ],
      "payable": false,
      "stateMutability": "view",
      "type": "function"
    },
    {
      "constant": true,
      "inputs": [],
      "name": "getNextId",
      "outputs": [
        {
          "name": "nextVaultId",
          "type": "uint256"
        }
      ],
      "payable": false,
      "stateMutability": "view",
      "type": "function"
    },
    {
      "constant": true,
      "inputs": [],
      "name": "getEventful",
      "outputs": [
        {
          "name": "",
          "type": "address"
        }
      ],
      "payable": false,
      "stateMutability": "view",
      "type": "function"
    },
    {
      "constant": true,
      "inputs": [
        {
          "name": "_owner",
          "type": "address"
        }
      ],
      "name": "getVaultsByAddress",
      "outputs": [
        {
          "name": "",
          "type": "address[]"
        }
      ],
      "payable": false,
      "stateMutability": "view",
      "type": "function"
    }
  ],
  "bytecode": "0x6060604052341561000f57600080fd5b6103ef8061001e6000396000f3006060604052600436106100b95763ffffffff7c01000000000000000000000000000000000000000000000000000000006000350416631c31f71081146100be5780633408f73a146100ec57806350825207146100be5780635ab1bd531461019b57806369fe0e2d146101d7578063837929b61461019b5780639890220b146101ed578063a390d7e114610200578063a91ee0dc146100be578063b11e2beb146102a7578063bc96832614610326578063ed3b49ac1461034b575b600080fd5b34156100c957600080fd5b6100ea73ffffffffffffffffffffffffffffffffffffffff6004351661037d565b005b34156100f757600080fd5b6100ff610380565b60405173ffffffffffffffffffffffffffffffffffffffff841681526040810182905260606020820181815290820184818151815260200191508051906020019080838360005b8381101561015e578082015183820152602001610146565b50505050905090810190601f16801561018b5780820380516001836020036101000a031916815260200191505b5094505050505060405180910390f35b34156101a657600080fd5b6101ae610391565b60405173ffffffffffffffffffffffffffffffffffffffff909116815260200160405180910390f35b34156101e257600080fd5b6100ea60043561037d565b34156101f857600080fd5b6100ea610396565b341561020b57600080fd5b61029360046024813581810190830135806020601f8201819004810201604051908101604052818152929190602084018383808284378201915050505050509190803590602001908201803590602001908080601f01602080910402602001604051908101604052818152929190602084018383808284375094965061039895505050505050565b604051901515815260200160405180910390f35b34156102b257600080fd5b6102d373ffffffffffffffffffffffffffffffffffffffff600435166103a0565b60405160208082528190810183818151815260200191508051906020019060200280838360005b838110156103125780820151838201526020016102fa565b505050509050019250505060405180910390f35b341561033157600080fd5b610339610391565b60405190815260200160405180910390f35b341561035657600080fd5b6100ea73ffffffffffffffffffffffffffffffffffffffff600435811690602435166103ad565b50565b600061038a6103b1565b6000909192565b600090565b565b600092915050565b6103a86103b1565b919050565b5050565b602060405190810160405260008152905600a165627a7a72305820569783f8f69ce271f00abb1685cd78f640db45b79d74f237a2eb66c2f35170570029",
  "source": "/*\n\n Copyright 2017-2018 RigoBlock, Rigo Investment Sagl.\n\n Licensed under the Apache License, Version 2.0 (the \"License\");\n you may not use this file except in compliance with the License.\n You may obtain a copy of the License at\n\n     http://www.apache.org/licenses/LICENSE-2.0\n\n Unless required by applicable law or agreed to in writing, software\n distributed under the License is distributed on an \"AS IS\" BASIS,\n WITHOUT WARRANTIES OR CONDITIONS OF ANY KIND, either express or implied.\n See the License for the specific language governing permissions and\n limitations under the License.\n\n*/\n\npragma solidity ^0.4.20;\n\n/// @title Vault Factory Interface - Allows external interaction with Vault Factory.\n/// @author Gabriele Rigo - <gab@rigoblock.com>\ncontract VaultFactoryFace {\n\n    event VaultCreated(string name, string symbol, address indexed vault, address indexed owner, uint vaultId);\n\n    function createVault(string _name, string _symbol) public returns (bool success) {}\n    function setTargetVaultDao(address _targetVault, address _vaultDao) public {}\n    function changeVaultDao(address _newVaultDao) public {}\n    function setRegistry(address _newRegistry) public {}\n    function setBeneficiary(address _vaultDao) public {}\n    function setFee(uint _fee) public {}\n    function drain() public {}\n    //function setOwner(address _new) public {}\n\n    function getRegistry() public view returns (address) {}\n    function getStorage() public view returns (address vaultDao, string version, uint nextVaultId) {}\n    function getNextId() public view returns (uint nextVaultId) {}\n    function getEventful() public view returns (address) {}\n    function getVaultsByAddress(address _owner) public view returns (address[]) {}\n    //function getOwner() public view returns (address) {}\n}\n",
  "sourcePath": "/home/gab/truffle/contracts/contracts/VaultFactory/VaultFactoryFace.sol",
  "compiler": {
    "name": "solc",
    "version": "0.4.19+commit.c4cbbb05.Emscripten.clang"
  },
  "schemaVersion": "2.0.0",
  "updatedAt": "2018-03-05T21:05:52.643Z"
}