{
  "contractName": "Vault",
  "abi": [
    {
      "constant": false,
      "inputs": [
        {
          "name": "_spender",
          "type": "address"
        },
        {
          "name": "_value",
          "type": "uint256"
        }
      ],
      "name": "approve",
      "outputs": [
        {
          "name": "success",
          "type": "bool"
        }
      ],
      "payable": false,
      "stateMutability": "nonpayable",
      "type": "function"
    },
    {
      "constant": false,
      "inputs": [
        {
          "name": "_new",
          "type": "address"
        }
      ],
      "name": "setOwner",
      "outputs": [],
      "payable": false,
      "stateMutability": "nonpayable",
      "type": "function"
    },
    {
      "constant": false,
      "inputs": [
        {
          "name": "_from",
          "type": "address"
        },
        {
          "name": "_to",
          "type": "address"
        },
        {
          "name": "_value",
          "type": "uint256"
        }
      ],
      "name": "transferFrom",
      "outputs": [
        {
          "name": "success",
          "type": "bool"
        }
      ],
      "payable": false,
      "stateMutability": "nonpayable",
      "type": "function"
    },
    {
      "constant": true,
      "inputs": [],
      "name": "getOwner",
      "outputs": [
        {
          "name": "",
          "type": "address"
        }
      ],
      "payable": false,
      "stateMutability": "view",
      "type": "function"
    },
    {
      "constant": true,
      "inputs": [],
      "name": "owner",
      "outputs": [
        {
          "name": "",
          "type": "address"
        }
      ],
      "payable": false,
      "stateMutability": "view",
      "type": "function"
    },
    {
      "constant": false,
      "inputs": [
        {
          "name": "_to",
          "type": "address"
        },
        {
          "name": "_value",
          "type": "uint256"
        }
      ],
      "name": "transfer",
      "outputs": [
        {
          "name": "success",
          "type": "bool"
        }
      ],
      "payable": false,
      "stateMutability": "nonpayable",
      "type": "function"
    },
    {
      "constant": true,
      "inputs": [
        {
          "name": "_owner",
          "type": "address"
        },
        {
          "name": "_spender",
          "type": "address"
        }
      ],
      "name": "allowance",
      "outputs": [
        {
          "name": "",
          "type": "uint256"
        }
      ],
      "payable": false,
      "stateMutability": "view",
      "type": "function"
    },
    {
      "inputs": [
        {
          "name": "_vaultName",
          "type": "string"
        },
        {
          "name": "_vaultSymbol",
          "type": "string"
        },
        {
          "name": "_vaultId",
          "type": "uint256"
        },
        {
          "name": "_owner",
          "type": "address"
        },
        {
          "name": "_authority",
          "type": "address"
        }
      ],
      "payable": false,
      "stateMutability": "nonpayable",
      "type": "constructor"
    },
    {
      "payable": true,
      "stateMutability": "payable",
      "type": "fallback"
    },
    {
      "anonymous": false,
      "inputs": [
        {
          "indexed": true,
          "name": "_from",
          "type": "address"
        },
        {
          "indexed": true,
          "name": "_to",
          "type": "address"
        },
        {
          "indexed": false,
          "name": "_value",
          "type": "uint256"
        }
      ],
      "name": "Transfer",
      "type": "event"
    },
    {
      "anonymous": false,
      "inputs": [
        {
          "indexed": true,
          "name": "_owner",
          "type": "address"
        },
        {
          "indexed": true,
          "name": "_spender",
          "type": "address"
        },
        {
          "indexed": false,
          "name": "_value",
          "type": "uint256"
        }
      ],
      "name": "Approval",
      "type": "event"
    },
    {
      "anonymous": false,
      "inputs": [
        {
          "indexed": true,
          "name": "old",
          "type": "address"
        },
        {
          "indexed": true,
          "name": "current",
          "type": "address"
        }
      ],
      "name": "NewOwner",
      "type": "event"
    },
    {
      "constant": false,
      "inputs": [],
      "name": "buyVault",
      "outputs": [
        {
          "name": "success",
          "type": "bool"
        }
      ],
      "payable": true,
      "stateMutability": "payable",
      "type": "function"
    },
    {
      "constant": false,
      "inputs": [
        {
          "name": "_hodler",
          "type": "address"
        }
      ],
      "name": "buyVaultOnBehalf",
      "outputs": [
        {
          "name": "success",
          "type": "bool"
        }
      ],
      "payable": true,
      "stateMutability": "payable",
      "type": "function"
    },
    {
      "constant": false,
      "inputs": [
        {
          "name": "_amount",
          "type": "uint256"
        }
      ],
      "name": "sellVault",
      "outputs": [
        {
          "name": "success",
          "type": "bool"
        }
      ],
      "payable": false,
      "stateMutability": "nonpayable",
      "type": "function"
    },
    {
      "constant": false,
      "inputs": [
        {
          "name": "_validation",
          "type": "address"
        },
        {
          "name": "_withdrawal",
          "type": "address"
        },
        {
          "name": "_amount",
          "type": "uint256"
        }
      ],
      "name": "depositCasper",
      "outputs": [
        {
          "name": "success",
          "type": "bool"
        }
      ],
      "payable": false,
      "stateMutability": "nonpayable",
      "type": "function"
    },
    {
      "constant": false,
      "inputs": [
        {
          "name": "_validatorIndex",
          "type": "uint128"
        }
      ],
      "name": "withdrawCasper",
      "outputs": [],
      "payable": false,
      "stateMutability": "nonpayable",
      "type": "function"
    },
    {
      "constant": false,
      "inputs": [],
      "name": "withdrawCasper",
      "outputs": [],
      "payable": false,
      "stateMutability": "nonpayable",
      "type": "function"
    },
    {
      "constant": false,
      "inputs": [
        {
          "name": "_ratio",
          "type": "uint256"
        }
      ],
      "name": "changeRatio",
      "outputs": [],
      "payable": false,
      "stateMutability": "nonpayable",
      "type": "function"
    },
    {
      "constant": false,
      "inputs": [
        {
          "name": "_transactionFee",
          "type": "uint256"
        }
      ],
      "name": "setTransactionFee",
      "outputs": [],
      "payable": false,
      "stateMutability": "nonpayable",
      "type": "function"
    },
    {
      "constant": false,
      "inputs": [
        {
          "name": "_feeCollector",
          "type": "address"
        }
      ],
      "name": "changeFeeCollector",
      "outputs": [],
      "payable": false,
      "stateMutability": "nonpayable",
      "type": "function"
    },
    {
      "constant": false,
      "inputs": [
        {
          "name": "_vaultDao",
          "type": "address"
        }
      ],
      "name": "changeVaultDao",
      "outputs": [],
      "payable": false,
      "stateMutability": "nonpayable",
      "type": "function"
    },
    {
      "constant": false,
      "inputs": [],
      "name": "updatePrice",
      "outputs": [],
      "payable": false,
      "stateMutability": "nonpayable",
      "type": "function"
    },
    {
      "constant": false,
      "inputs": [
        {
          "name": "_minPeriod",
          "type": "uint32"
        }
      ],
      "name": "changeMinPeriod",
      "outputs": [],
      "payable": false,
      "stateMutability": "nonpayable",
      "type": "function"
    },
    {
      "constant": true,
      "inputs": [
        {
          "name": "_from",
          "type": "address"
        }
      ],
      "name": "balanceOf",
      "outputs": [
        {
          "name": "",
          "type": "uint256"
        }
      ],
      "payable": false,
      "stateMutability": "view",
      "type": "function"
    },
    {
      "constant": true,
      "inputs": [],
      "name": "getEventful",
      "outputs": [
        {
          "name": "",
          "type": "address"
        }
      ],
      "payable": false,
      "stateMutability": "view",
      "type": "function"
    },
    {
      "constant": true,
      "inputs": [],
      "name": "getData",
      "outputs": [
        {
          "name": "name",
          "type": "string"
        },
        {
          "name": "symbol",
          "type": "string"
        },
        {
          "name": "sellPrice",
          "type": "uint256"
        },
        {
          "name": "buyPrice",
          "type": "uint256"
        }
      ],
      "payable": false,
      "stateMutability": "view",
      "type": "function"
    },
    {
      "constant": true,
      "inputs": [],
      "name": "getAdminData",
      "outputs": [
        {
          "name": "feeCollector",
          "type": "address"
        },
        {
          "name": "vaultDao",
          "type": "address"
        },
        {
          "name": "ratio",
          "type": "uint256"
        },
        {
          "name": "transactionFee",
          "type": "uint256"
        },
        {
          "name": "minPeriod",
          "type": "uint32"
        }
      ],
      "payable": false,
      "stateMutability": "view",
      "type": "function"
    },
    {
      "constant": true,
      "inputs": [],
      "name": "getCasper",
      "outputs": [
        {
          "name": "",
          "type": "address"
        }
      ],
      "payable": false,
      "stateMutability": "view",
      "type": "function"
    },
    {
      "constant": true,
      "inputs": [],
      "name": "getCasperDeposit",
      "outputs": [
        {
          "name": "",
          "type": "uint128"
        }
      ],
      "payable": false,
      "stateMutability": "view",
      "type": "function"
    },
    {
      "constant": true,
      "inputs": [],
      "name": "getNav",
      "outputs": [
        {
          "name": "",
          "type": "uint256"
        }
      ],
      "payable": false,
      "stateMutability": "view",
      "type": "function"
    },
    {
      "constant": true,
      "inputs": [],
      "name": "getVersion",
      "outputs": [
        {
          "name": "",
          "type": "string"
        }
      ],
      "payable": false,
      "stateMutability": "view",
      "type": "function"
    },
    {
      "constant": true,
      "inputs": [],
      "name": "totalSupply",
      "outputs": [
        {
          "name": "",
          "type": "uint256"
        }
      ],
      "payable": false,
      "stateMutability": "view",
      "type": "function"
    }
  ],
  "bytecode": "0x606060405234156200001057600080fd5b60405162003a4f38038062003a4f83398101604052808051820191906020018051820191906020018051906020019091908051906020019091908051906020019091905050846001600001908051906020019062000070929190620001db565b50836001800190805190602001906200008b929190620001db565b5082600160020181905550670de0b6b3a7640000600160040181905550816000806101000a81548173ffffffffffffffffffffffffffffffffffffffff021916908373ffffffffffffffffffffffffffffffffffffffff16021790555080600860000160006101000a81548173ffffffffffffffffffffffffffffffffffffffff021916908373ffffffffffffffffffffffffffffffffffffffff16021790555033600860010160006101000a81548173ffffffffffffffffffffffffffffffffffffffff021916908373ffffffffffffffffffffffffffffffffffffffff16021790555066038d7ea4c6800060086003018190555081600860020160006101000a81548173ffffffffffffffffffffffffffffffffffffffff021916908373ffffffffffffffffffffffffffffffffffffffff160217905550605060086004018190555050505050506200028a565b828054600181600116156101000203166002900490600052602060002090601f016020900481019282601f106200021e57805160ff19168380011785556200024f565b828001600101855582156200024f579182015b828111156200024e57825182559160200191906001019062000231565b5b5090506200025e919062000262565b5090565b6200028791905b808211156200028357600081600090555060010162000269565b5090565b90565b6137b5806200029a6000396000f30060606040526004361061016a576000357c0100000000000000000000000000000000000000000000000000000000900463ffffffff168063095ea7b314610257578063096a8ab7146102b15780630d8e6e2c146102d457806313af40351461036257806318160ddd1461039b5780631f468229146103c45780632314d79c1461043d57806323b872dd14610492578063240d9cba1461050b5780633552c62f146105465780633bc5de301461056f578063508252071461067757806354bdbd4d146106b0578063673a7e28146106d957806370a08231146106ee57806379e102e61461073b5780637f69fd5c14610788578063837929b61461079d578063893d20e8146107f25780638da5cb5b146108475780638f7a844b1461089c5780639245290d14610945578063a9059cbb1461097e578063af41cec0146109d8578063be062fbe14610a1e578063d5947f1414610a53578063dd62ed3e14610a75578063f6a3325314610ae1575b6000600860000160009054906101000a900473ffffffffffffffffffffffffffffffffffffffff1690508073ffffffffffffffffffffffffffffffffffffffff16632314d79c6000604051602001526040518163ffffffff167c0100000000000000000000000000000000000000000000000000000000028152600401602060405180830381600087803b151561020057600080fd5b6102c65a03f1151561021157600080fd5b5050506040518051905073ffffffffffffffffffffffffffffffffffffffff163373ffffffffffffffffffffffffffffffffffffffff1614151561025457600080fd5b50005b341561026257600080fd5b610297600480803573ffffffffffffffffffffffffffffffffffffffff16906020019091908035906020019091905050610b04565b604051808215151515815260200191505060405180910390f35b34156102bc57600080fd5b6102d26004808035906020019091905050610b0c565b005b34156102df57600080fd5b6102e7610d3f565b6040518080602001828103825283818151815260200191508051906020019080838360005b8381101561032757808201518184015260208101905061030c565b50505050905090810190601f1680156103545780820380516001836020036101000a031916815260200191505b509250505060405180910390f35b341561036d57600080fd5b610399600480803573ffffffffffffffffffffffffffffffffffffffff16906020019091905050610d82565b005b34156103a657600080fd5b6103ae610e9b565b6040518082815260200191505060405180910390f35b34156103cf57600080fd5b610423600480803573ffffffffffffffffffffffffffffffffffffffff1690602001909190803573ffffffffffffffffffffffffffffffffffffffff16906020019091908035906020019091905050610ea8565b604051808215151515815260200191505060405180910390f35b341561044857600080fd5b61045061146d565b604051808273ffffffffffffffffffffffffffffffffffffffff1673ffffffffffffffffffffffffffffffffffffffff16815260200191505060405180910390f35b341561049d57600080fd5b6104f1600480803573ffffffffffffffffffffffffffffffffffffffff1690602001909190803573ffffffffffffffffffffffffffffffffffffffff16906020019091908035906020019091905050611525565b604051808215151515815260200191505060405180910390f35b341561051657600080fd5b61052c600480803590602001909190505061152e565b604051808215151515815260200191505060405180910390f35b341561055157600080fd5b61055961171d565b6040518082815260200191505060405180910390f35b341561057a57600080fd5b61058261177c565b604051808060200180602001858152602001848152602001838103835287818151815260200191508051906020019080838360005b838110156105d25780820151818401526020810190506105b7565b50505050905090810190601f1680156105ff5780820380516001836020036101000a031916815260200191505b50838103825286818151815260200191508051906020019080838360005b8381101561063857808201518184015260208101905061061d565b50505050905090810190601f1680156106655780820380516001836020036101000a031916815260200191505b50965050505050505060405180910390f35b341561068257600080fd5b6106ae600480803573ffffffffffffffffffffffffffffffffffffffff169060200190919050506118ed565b005b34156106bb57600080fd5b6106d7600480803563ffffffff16906020019091905050611b7a565b005b34156106e457600080fd5b6106ec611c00565b005b34156106f957600080fd5b610725600480803573ffffffffffffffffffffffffffffffffffffffff16906020019091905050611c13565b6040518082815260200191505060405180910390f35b341561074657600080fd5b61074e611c5f565b60405180826fffffffffffffffffffffffffffffffff166fffffffffffffffffffffffffffffffff16815260200191505060405180910390f35b341561079357600080fd5b61079b611d49565b005b34156107a857600080fd5b6107b06121a1565b604051808273ffffffffffffffffffffffffffffffffffffffff1673ffffffffffffffffffffffffffffffffffffffff16815260200191505060405180910390f35b34156107fd57600080fd5b610805612259565b604051808273ffffffffffffffffffffffffffffffffffffffff1673ffffffffffffffffffffffffffffffffffffffff16815260200191505060405180910390f35b341561085257600080fd5b61085a612282565b604051808273ffffffffffffffffffffffffffffffffffffffff1673ffffffffffffffffffffffffffffffffffffffff16815260200191505060405180910390f35b34156108a757600080fd5b6108af6122a7565b604051808673ffffffffffffffffffffffffffffffffffffffff1673ffffffffffffffffffffffffffffffffffffffff1681526020018573ffffffffffffffffffffffffffffffffffffffff1673ffffffffffffffffffffffffffffffffffffffff1681526020018481526020018381526020018263ffffffff1663ffffffff1681526020019550505050505060405180910390f35b341561095057600080fd5b61097c600480803573ffffffffffffffffffffffffffffffffffffffff1690602001909190505061232e565b005b341561098957600080fd5b6109be600480803573ffffffffffffffffffffffffffffffffffffffff169060200190919080359060200190919050506125b7565b604051808215151515815260200191505060405180910390f35b610a04600480803573ffffffffffffffffffffffffffffffffffffffff169060200190919050506125bf565b604051808215151515815260200191505060405180910390f35b3415610a2957600080fd5b610a5160048080356fffffffffffffffffffffffffffffffff1690602001909190505061262f565b005b610a5b612632565b604051808215151515815260200191505060405180910390f35b3415610a8057600080fd5b610acb600480803573ffffffffffffffffffffffffffffffffffffffff1690602001909190803573ffffffffffffffffffffffffffffffffffffffff1690602001909190505061264f565b6040518082815260200191505060405180910390f35b3415610aec57600080fd5b610b026004808035906020019091905050612657565b005b600092915050565b6000806000809054906101000a900473ffffffffffffffffffffffffffffffffffffffff1673ffffffffffffffffffffffffffffffffffffffff163373ffffffffffffffffffffffffffffffffffffffff16141515610b6a57600080fd5b60648311151515610b7a57600080fd5b600860000160009054906101000a900473ffffffffffffffffffffffffffffffffffffffff1691508173ffffffffffffffffffffffffffffffffffffffff1663088f47ee6000604051602001526040518163ffffffff167c0100000000000000000000000000000000000000000000000000000000028152600401602060405180830381600087803b1515610c0e57600080fd5b6102c65a03f11515610c1f57600080fd5b5050506040518051905090508073ffffffffffffffffffffffffffffffffffffffff1663d5aaa73a3330866000604051602001526040518463ffffffff167c0100000000000000000000000000000000000000000000000000000000028152600401808473ffffffffffffffffffffffffffffffffffffffff1673ffffffffffffffffffffffffffffffffffffffff1681526020018373ffffffffffffffffffffffffffffffffffffffff1673ffffffffffffffffffffffffffffffffffffffff1681526020018281526020019350505050602060405180830381600087803b1515610d0a57600080fd5b6102c65a03f11515610d1b57600080fd5b505050604051805190501515610d3057600080fd5b82600160050181905550505050565b610d47613761565b6040805190810160405280600881526020017f564320302e352e31000000000000000000000000000000000000000000000000815250905090565b6000809054906101000a900473ffffffffffffffffffffffffffffffffffffffff1673ffffffffffffffffffffffffffffffffffffffff163373ffffffffffffffffffffffffffffffffffffffff16141515610ddd57600080fd5b806000806101000a81548173ffffffffffffffffffffffffffffffffffffffff021916908373ffffffffffffffffffffffffffffffffffffffff1602179055508073ffffffffffffffffffffffffffffffffffffffff166000809054906101000a900473ffffffffffffffffffffffffffffffffffffffff1673ffffffffffffffffffffffffffffffffffffffff167f70aea8d848e8a90fb7661b227dc522eb6395c3dac71b63cb59edd5c9899b236460405160405180910390a350565b6000600160030154905090565b6000806000806000809054906101000a900473ffffffffffffffffffffffffffffffffffffffff1673ffffffffffffffffffffffffffffffffffffffff163373ffffffffffffffffffffffffffffffffffffffff16141515610f0957600080fd5b846008600301548110151515610f1e57600080fd5b3073ffffffffffffffffffffffffffffffffffffffff168773ffffffffffffffffffffffffffffffffffffffff16141515610f5857600080fd5b600860000160009054906101000a900473ffffffffffffffffffffffffffffffffffffffff1693508373ffffffffffffffffffffffffffffffffffffffff16632314d79c6000604051602001526040518163ffffffff167c0100000000000000000000000000000000000000000000000000000000028152600401602060405180830381600087803b1515610fec57600080fd5b6102c65a03f11515610ffd57600080fd5b5050506040518051905092508273ffffffffffffffffffffffffffffffffffffffff1663363258856000604051602001526040518163ffffffff167c0100000000000000000000000000000000000000000000000000000000028152600401602060405180830381600087803b151561107557600080fd5b6102c65a03f1151561108657600080fd5b50505060405180519050600160060160046101000a8154816fffffffffffffffffffffffffffffffff02191690836fffffffffffffffffffffffffffffffff1602179055508273ffffffffffffffffffffffffffffffffffffffff1663f9609f08878a8a6040518463ffffffff167c0100000000000000000000000000000000000000000000000000000000028152600401808373ffffffffffffffffffffffffffffffffffffffff1673ffffffffffffffffffffffffffffffffffffffff1681526020018273ffffffffffffffffffffffffffffffffffffffff1673ffffffffffffffffffffffffffffffffffffffff168152602001925050506000604051808303818588803b151561119957600080fd5b6125ee5a03f115156111aa57600080fd5b505050508373ffffffffffffffffffffffffffffffffffffffff1663088f47ee6000604051602001526040518163ffffffff167c0100000000000000000000000000000000000000000000000000000000028152600401602060405180830381600087803b151561121a57600080fd5b6102c65a03f1151561122b57600080fd5b5050506040518051905091508173ffffffffffffffffffffffffffffffffffffffff16635b3dea5e33308773ffffffffffffffffffffffffffffffffffffffff16632314d79c6000604051602001526040518163ffffffff167c0100000000000000000000000000000000000000000000000000000000028152600401602060405180830381600087803b15156112c157600080fd5b6102c65a03f115156112d257600080fd5b505050604051805190508c8c8c6000604051602001526040518763ffffffff167c0100000000000000000000000000000000000000000000000000000000028152600401808773ffffffffffffffffffffffffffffffffffffffff1673ffffffffffffffffffffffffffffffffffffffff1681526020018673ffffffffffffffffffffffffffffffffffffffff1673ffffffffffffffffffffffffffffffffffffffff1681526020018573ffffffffffffffffffffffffffffffffffffffff1673ffffffffffffffffffffffffffffffffffffffff1681526020018473ffffffffffffffffffffffffffffffffffffffff1673ffffffffffffffffffffffffffffffffffffffff1681526020018373ffffffffffffffffffffffffffffffffffffffff1673ffffffffffffffffffffffffffffffffffffffff1681526020018281526020019650505050505050602060405180830381600087803b151561143857600080fd5b6102c65a03f1151561144957600080fd5b50505060405180519050151561145e57600080fd5b60019450505050509392505050565b600080600860000160009054906101000a900473ffffffffffffffffffffffffffffffffffffffff1690508073ffffffffffffffffffffffffffffffffffffffff16632314d79c6000604051602001526040518163ffffffff167c0100000000000000000000000000000000000000000000000000000000028152600401602060405180830381600087803b151561150457600080fd5b6102c65a03f1151561151557600080fd5b5050506040518051905091505090565b60009392505050565b60008060008060008580600d60003373ffffffffffffffffffffffffffffffffffffffff1673ffffffffffffffffffffffffffffffffffffffff168152602001908152602001600020600001541015151561158857600080fd5b86600d60003373ffffffffffffffffffffffffffffffffffffffff1673ffffffffffffffffffffffffffffffffffffffff1681526020019081526020016000206000015481600d60003373ffffffffffffffffffffffffffffffffffffffff1673ffffffffffffffffffffffffffffffffffffffff168152602001908152602001600020600001540111151561161d57600080fd5b600d60003373ffffffffffffffffffffffffffffffffffffffff1673ffffffffffffffffffffffffffffffffffffffff16815260200190815260200160002060010160000160009054906101000a900463ffffffff1663ffffffff16421015151561168757600080fd5b6116908861287e565b809650819750829850839950505050506116aa888461290e565b6116b633898888612d00565b6116c560016003015485612f50565b6001600301819055503373ffffffffffffffffffffffffffffffffffffffff166108fc849081150290604051600060405180830381858888f19350505050151561170e57600080fd5b60019650505050505050919050565b600080600061172a611c5f565b6fffffffffffffffffffffffffffffffff16915061175f3073ffffffffffffffffffffffffffffffffffffffff163183612f69565b9050611775620f42408202600160030154612f93565b9250505090565b611784613761565b61178c613761565b60008061179761171d565b905080915060016000018054600181600116156101000203166002900480601f0160208091040260200160405190810160405280929190818152602001828054600181600116156101000203166002900480156118355780601f1061180a57610100808354040283529160200191611835565b820191906000526020600020905b81548152906001019060200180831161181857829003601f168201915b5050505050935083600180018054600181600116156101000203166002900480601f0160208091040260200160405190810160405280929190818152602001828054600181600116156101000203166002900480156118d55780601f106118aa576101008083540402835291602001916118d5565b820191906000526020600020905b8154815290600101906020018083116118b857829003601f168201915b50505050509350838383935093509350935090919293565b600080600860010160009054906101000a900473ffffffffffffffffffffffffffffffffffffffff1673ffffffffffffffffffffffffffffffffffffffff163373ffffffffffffffffffffffffffffffffffffffff1614151561194f57600080fd5b600860000160009054906101000a900473ffffffffffffffffffffffffffffffffffffffff1691508173ffffffffffffffffffffffffffffffffffffffff1663088f47ee6000604051602001526040518163ffffffff167c0100000000000000000000000000000000000000000000000000000000028152600401602060405180830381600087803b15156119e357600080fd5b6102c65a03f115156119f457600080fd5b5050506040518051905090508073ffffffffffffffffffffffffffffffffffffffff16638f85a51c3330866000604051602001526040518463ffffffff167c0100000000000000000000000000000000000000000000000000000000028152600401808473ffffffffffffffffffffffffffffffffffffffff1673ffffffffffffffffffffffffffffffffffffffff1681526020018373ffffffffffffffffffffffffffffffffffffffff1673ffffffffffffffffffffffffffffffffffffffff1681526020018273ffffffffffffffffffffffffffffffffffffffff1673ffffffffffffffffffffffffffffffffffffffff1681526020019350505050602060405180830381600087803b1515611b0b57600080fd5b6102c65a03f11515611b1c57600080fd5b505050604051805190501515611b3157600080fd5b82600860010160006101000a81548173ffffffffffffffffffffffffffffffffffffffff021916908373ffffffffffffffffffffffffffffffffffffffff160217905550505050565b600860010160009054906101000a900473ffffffffffffffffffffffffffffffffffffffff1673ffffffffffffffffffffffffffffffffffffffff163373ffffffffffffffffffffffffffffffffffffffff16141515611bd957600080fd5b80600160060160006101000a81548163ffffffff021916908363ffffffff16021790555050565b611c0861171d565b600160040181905550565b6000600d60008373ffffffffffffffffffffffffffffffffffffffff1673ffffffffffffffffffffffffffffffffffffffff168152602001908152602001600020600001549050919050565b600080611c6a61146d565b90508073ffffffffffffffffffffffffffffffffffffffff1663f0afa25f600160060160049054906101000a90046fffffffffffffffffffffffffffffffff166000604051602001526040518263ffffffff167c010000000000000000000000000000000000000000000000000000000002815260040180826fffffffffffffffffffffffffffffffff166fffffffffffffffffffffffffffffffff168152602001915050602060405180830381600087803b1515611d2857600080fd5b6102c65a03f11515611d3957600080fd5b5050506040518051905091505090565b60008060008060009054906101000a900473ffffffffffffffffffffffffffffffffffffffff1673ffffffffffffffffffffffffffffffffffffffff163373ffffffffffffffffffffffffffffffffffffffff16141515611da957600080fd5b600860000160009054906101000a900473ffffffffffffffffffffffffffffffffffffffff1692508273ffffffffffffffffffffffffffffffffffffffff16632314d79c6000604051602001526040518163ffffffff167c0100000000000000000000000000000000000000000000000000000000028152600401602060405180830381600087803b1515611e3d57600080fd5b6102c65a03f11515611e4e57600080fd5b5050506040518051905091508173ffffffffffffffffffffffffffffffffffffffff166302387a7b600160060160049054906101000a90046fffffffffffffffffffffffffffffffff166040518263ffffffff167c010000000000000000000000000000000000000000000000000000000002815260040180826fffffffffffffffffffffffffffffffff166fffffffffffffffffffffffffffffffff168152602001915050600060405180830381600087803b1515611f0d57600080fd5b6102c65a03f11515611f1e57600080fd5b5050508273ffffffffffffffffffffffffffffffffffffffff1663088f47ee6000604051602001526040518163ffffffff167c0100000000000000000000000000000000000000000000000000000000028152600401602060405180830381600087803b1515611f8d57600080fd5b6102c65a03f11515611f9e57600080fd5b5050506040518051905090508073ffffffffffffffffffffffffffffffffffffffff166340afc79d33308673ffffffffffffffffffffffffffffffffffffffff16632314d79c6000604051602001526040518163ffffffff167c0100000000000000000000000000000000000000000000000000000000028152600401602060405180830381600087803b151561203457600080fd5b6102c65a03f1151561204557600080fd5b50505060405180519050600160060160049054906101000a90046fffffffffffffffffffffffffffffffff166000604051602001526040518563ffffffff167c0100000000000000000000000000000000000000000000000000000000028152600401808573ffffffffffffffffffffffffffffffffffffffff1673ffffffffffffffffffffffffffffffffffffffff1681526020018473ffffffffffffffffffffffffffffffffffffffff1673ffffffffffffffffffffffffffffffffffffffff1681526020018373ffffffffffffffffffffffffffffffffffffffff1673ffffffffffffffffffffffffffffffffffffffff168152602001826fffffffffffffffffffffffffffffffff168152602001945050505050602060405180830381600087803b151561217657600080fd5b6102c65a03f1151561218757600080fd5b50505060405180519050151561219c57600080fd5b505050565b600080600860000160009054906101000a900473ffffffffffffffffffffffffffffffffffffffff1690508073ffffffffffffffffffffffffffffffffffffffff1663088f47ee6000604051602001526040518163ffffffff167c0100000000000000000000000000000000000000000000000000000000028152600401602060405180830381600087803b151561223857600080fd5b6102c65a03f1151561224957600080fd5b5050506040518051905091505090565b60008060009054906101000a900473ffffffffffffffffffffffffffffffffffffffff16905090565b6000809054906101000a900473ffffffffffffffffffffffffffffffffffffffff1681565b6000806000806000600860020160009054906101000a900473ffffffffffffffffffffffffffffffffffffffff16600860010160009054906101000a900473ffffffffffffffffffffffffffffffffffffffff16600860040154600160050154600160060160009054906101000a900463ffffffff16945094509450945094509091929394565b6000806000809054906101000a900473ffffffffffffffffffffffffffffffffffffffff1673ffffffffffffffffffffffffffffffffffffffff163373ffffffffffffffffffffffffffffffffffffffff1614151561238c57600080fd5b600860000160009054906101000a900473ffffffffffffffffffffffffffffffffffffffff1691508173ffffffffffffffffffffffffffffffffffffffff1663088f47ee6000604051602001526040518163ffffffff167c0100000000000000000000000000000000000000000000000000000000028152600401602060405180830381600087803b151561242057600080fd5b6102c65a03f1151561243157600080fd5b5050506040518051905090508073ffffffffffffffffffffffffffffffffffffffff1663f39ba9323330866000604051602001526040518463ffffffff167c0100000000000000000000000000000000000000000000000000000000028152600401808473ffffffffffffffffffffffffffffffffffffffff1673ffffffffffffffffffffffffffffffffffffffff1681526020018373ffffffffffffffffffffffffffffffffffffffff1673ffffffffffffffffffffffffffffffffffffffff1681526020018273ffffffffffffffffffffffffffffffffffffffff1673ffffffffffffffffffffffffffffffffffffffff1681526020019350505050602060405180830381600087803b151561254857600080fd5b6102c65a03f1151561255957600080fd5b50505060405180519050151561256e57600080fd5b82600860020160006101000a81548173ffffffffffffffffffffffffffffffffffffffff021916908373ffffffffffffffffffffffffffffffffffffffff160217905550505050565b600092915050565b60008060008060003460086003015481101515156125dc57600080fd5b6125e4612fd4565b809550819650829750839850505050506125fd82613072565b61260987838686613463565b61261860016003015486612f69565b600160030181905550600195505050505050919050565b50565b600061263d336125bf565b151561264857600080fd5b6001905090565b600092915050565b600080600860010160009054906101000a900473ffffffffffffffffffffffffffffffffffffffff1673ffffffffffffffffffffffffffffffffffffffff163373ffffffffffffffffffffffffffffffffffffffff161415156126b957600080fd5b600860000160009054906101000a900473ffffffffffffffffffffffffffffffffffffffff1691508173ffffffffffffffffffffffffffffffffffffffff1663088f47ee6000604051602001526040518163ffffffff167c0100000000000000000000000000000000000000000000000000000000028152600401602060405180830381600087803b151561274d57600080fd5b6102c65a03f1151561275e57600080fd5b5050506040518051905090508073ffffffffffffffffffffffffffffffffffffffff166391f1df843330866000604051602001526040518463ffffffff167c0100000000000000000000000000000000000000000000000000000000028152600401808473ffffffffffffffffffffffffffffffffffffffff1673ffffffffffffffffffffffffffffffffffffffff1681526020018373ffffffffffffffffffffffffffffffffffffffff1673ffffffffffffffffffffffffffffffffffffffff1681526020018281526020019350505050602060405180830381600087803b151561284957600080fd5b6102c65a03f1151561285a57600080fd5b50505060405180519050151561286f57600080fd5b82600860040181905550505050565b60008060008060006127106128988760016005015461372e565b8115156128a157fe5b04905060646128b58260086004015461372e565b8115156128be57fe5b049450846128cc8286612f50565b9450846128d98884612f50565b945084620f42406128f1876128ec61171d565b61372e565b8115156128fa57fe5b049450849450945094509450509193509193565b612916613775565b61291e613775565b60008060016000018054600181600116156101000203166002900480601f0160208091040260200160405190810160405280929190818152602001828054600181600116156101000203166002900480156129ba5780601f1061298f576101008083540402835291602001916129ba565b820191906000526020600020905b81548152906001019060200180831161299d57829003601f168201915b50505050509350600180018054600181600116156101000203166002900480601f016020809104026020016040519081016040528092919081815260200182805460018160011615610100020316600290048015612a595780601f10612a2e57610100808354040283529160200191612a59565b820191906000526020600020905b815481529060010190602001808311612a3c57829003601f168201915b50505050509250600860000160009054906101000a900473ffffffffffffffffffffffffffffffffffffffff1691508173ffffffffffffffffffffffffffffffffffffffff1663088f47ee6000604051602001526040518163ffffffff167c0100000000000000000000000000000000000000000000000000000000028152600401602060405180830381600087803b1515612af457600080fd5b6102c65a03f11515612b0557600080fd5b5050506040518051905090508073ffffffffffffffffffffffffffffffffffffffff1663fee9da4a3330898989896000604051602001526040518763ffffffff167c0100000000000000000000000000000000000000000000000000000000028152600401808773ffffffffffffffffffffffffffffffffffffffff1673ffffffffffffffffffffffffffffffffffffffff1681526020018673ffffffffffffffffffffffffffffffffffffffff1673ffffffffffffffffffffffffffffffffffffffff1681526020018581526020018481526020018060200180602001838103835285818151815260200191508051906020019080838360005b83811015612c1b578082015181840152602081019050612c00565b50505050905090810190601f168015612c485780820380516001836020036101000a031916815260200191505b50838103825284818151815260200191508051906020019080838360005b83811015612c81578082015181840152602081019050612c66565b50505050905090810190601f168015612cae5780820380516001836020036101000a031916815260200191505b5098505050505050505050602060405180830381600087803b1515612cd257600080fd5b6102c65a03f11515612ce357600080fd5b505050604051805190501515612cf857600080fd5b505050505050565b612d4c600d60008673ffffffffffffffffffffffffffffffffffffffff1673ffffffffffffffffffffffffffffffffffffffff1681526020019081526020016000206000015484612f50565b600d60008673ffffffffffffffffffffffffffffffffffffffff1673ffffffffffffffffffffffffffffffffffffffff16815260200190815260200160002060000181905550612e03600d6000600860020160009054906101000a900473ffffffffffffffffffffffffffffffffffffffff1673ffffffffffffffffffffffffffffffffffffffff1673ffffffffffffffffffffffffffffffffffffffff1681526020019081526020016000206000015483612f69565b600d6000600860020160009054906101000a900473ffffffffffffffffffffffffffffffffffffffff1673ffffffffffffffffffffffffffffffffffffffff1673ffffffffffffffffffffffffffffffffffffffff16815260200190815260200160002060000181905550612edf600d6000600860010160009054906101000a900473ffffffffffffffffffffffffffffffffffffffff1673ffffffffffffffffffffffffffffffffffffffff1673ffffffffffffffffffffffffffffffffffffffff1681526020019081526020016000206000015482612f69565b600d6000600860010160009054906101000a900473ffffffffffffffffffffffffffffffffffffffff1673ffffffffffffffffffffffffffffffffffffffff1673ffffffffffffffffffffffffffffffffffffffff1681526020019081526020016000206000018190555050505050565b6000828211151515612f5e57fe5b818303905092915050565b6000808284019050838110158015612f815750828110155b1515612f8957fe5b8091505092915050565b600080600083111515612fa257fe5b8284811515612fad57fe5b0490508284811515612fbb57fe5b068184020184141515612fca57fe5b8091505092915050565b6000806000806000612ff2620f42403402612fed61171d565b612f93565b94506127106130068660016005015461372e565b81151561300f57fe5b049050613028620f4240340261302361171d565b612f93565b945084606461303c8360086004015461372e565b81151561304557fe5b049450846130538387612f50565b9450846130608885612f50565b94508494509450945094505090919293565b61307a613775565b613082613775565b60008060016000018054600181600116156101000203166002900480601f01602080910402602001604051908101604052809291908181526020018280546001816001161561010002031660029004801561311e5780601f106130f35761010080835404028352916020019161311e565b820191906000526020600020905b81548152906001019060200180831161310157829003601f168201915b50505050509350600180018054600181600116156101000203166002900480601f0160208091040260200160405190810160405280929190818152602001828054600181600116156101000203166002900480156131bd5780601f10613192576101008083540402835291602001916131bd565b820191906000526020600020905b8154815290600101906020018083116131a057829003601f168201915b50505050509250600860000160009054906101000a900473ffffffffffffffffffffffffffffffffffffffff1691508173ffffffffffffffffffffffffffffffffffffffff1663088f47ee6000604051602001526040518163ffffffff167c0100000000000000000000000000000000000000000000000000000000028152600401602060405180830381600087803b151561325857600080fd5b6102c65a03f1151561326957600080fd5b5050506040518051905090508073ffffffffffffffffffffffffffffffffffffffff16632f2d7bf43330348989896000604051602001526040518763ffffffff167c0100000000000000000000000000000000000000000000000000000000028152600401808773ffffffffffffffffffffffffffffffffffffffff1673ffffffffffffffffffffffffffffffffffffffff1681526020018673ffffffffffffffffffffffffffffffffffffffff1673ffffffffffffffffffffffffffffffffffffffff1681526020018581526020018481526020018060200180602001838103835285818151815260200191508051906020019080838360005b8381101561337f578082015181840152602081019050613364565b50505050905090810190601f1680156133ac5780820380516001836020036101000a031916815260200191505b50838103825284818151815260200191508051906020019080838360005b838110156133e55780820151818401526020810190506133ca565b50505050905090810190601f1680156134125780820380516001836020036101000a031916815260200191505b5098505050505050505050602060405180830381600087803b151561343657600080fd5b6102c65a03f1151561344757600080fd5b50505060405180519050151561345c57600080fd5b5050505050565b6134af600d60008673ffffffffffffffffffffffffffffffffffffffff1673ffffffffffffffffffffffffffffffffffffffff1681526020019081526020016000206000015484612f69565b600d60008673ffffffffffffffffffffffffffffffffffffffff1673ffffffffffffffffffffffffffffffffffffffff16815260200190815260200160002060000181905550613566600d6000600860020160009054906101000a900473ffffffffffffffffffffffffffffffffffffffff1673ffffffffffffffffffffffffffffffffffffffff1673ffffffffffffffffffffffffffffffffffffffff1681526020019081526020016000206000015483612f69565b600d6000600860020160009054906101000a900473ffffffffffffffffffffffffffffffffffffffff1673ffffffffffffffffffffffffffffffffffffffff1673ffffffffffffffffffffffffffffffffffffffff16815260200190815260200160002060000181905550613642600d6000600860010160009054906101000a900473ffffffffffffffffffffffffffffffffffffffff1673ffffffffffffffffffffffffffffffffffffffff1673ffffffffffffffffffffffffffffffffffffffff1681526020019081526020016000206000015482612f69565b600d6000600860010160009054906101000a900473ffffffffffffffffffffffffffffffffffffffff1673ffffffffffffffffffffffffffffffffffffffff1673ffffffffffffffffffffffffffffffffffffffff16815260200190815260200160002060000181905550600160060160009054906101000a900463ffffffff164201600d60008673ffffffffffffffffffffffffffffffffffffffff1673ffffffffffffffffffffffffffffffffffffffff16815260200190815260200160002060010160000160006101000a81548163ffffffff021916908363ffffffff16021790555050505050565b6000808284029050600084148061374f575082848281151561374c57fe5b04145b151561375757fe5b8091505092915050565b602060405190810160405280600081525090565b6020604051908101604052806000815250905600a165627a7a723058204868f2368317adc7a8395f820b3a7e463fca4968c7b2d4db446ca019a105ae120029",
  "source": "/*\n\n Copyright 2017-2018 RigoBlock, Rigo Investment Sagl.\n\n Licensed under the Apache License, Version 2.0 (the \"License\");\n you may not use this file except in compliance with the License.\n You may obtain a copy of the License at\n\n     http://www.apache.org/licenses/LICENSE-2.0\n\n Unless required by applicable law or agreed to in writing, software\n distributed under the License is distributed on an \"AS IS\" BASIS,\n WITHOUT WARRANTIES OR CONDITIONS OF ANY KIND, either express or implied.\n See the License for the specific language governing permissions and\n limitations under the License.\n\n*/\n\npragma solidity ^0.4.19;\n\nimport { AuthorityFace as Authority } from \"../Authority/AuthorityFace.sol\";\nimport { VaultEventfulFace as VaultEventful } from \"../VaultEventful/VaultEventfulFace.sol\";\nimport { CasperFace as Casper } from \"../Casper/CasperFace.sol\";\n\nimport { VaultFace } from \"./VaultFace.sol\";\nimport { OwnedUninitialized as Owned } from \"../utils/Owned/OwnedUninitialized.sol\";\nimport { SafeMathLight as SafeMath } from \"../utils/SafeMath/SafeMathLight.sol\";\nimport { ERC20Face } from \"../utils/tokens/ERC20/ERC20Face.sol\";\n\n/// @title Vault - contract for creating a vault type of pool.\n/// @author Gabriele Rigo - <gab@rigoblock.com>\n/// @dev includes pooled proof-of-stake mining\ncontract Vault is Owned, ERC20Face, SafeMath, VaultFace {\n\n    string constant VERSION = 'VC 0.5.1';\n    uint constant BASE = 1000000; //tokens are divisible by 1 million\n\n    VaultData data;\n    Admin admin;\n\n    mapping (address => Account) accounts;\n\n    struct Receipt {\n        uint32 activation;\n    }\n\n    struct Account {\n        uint balance;\n        Receipt receipt;\n    }\n\n    struct VaultData {\n        string name;\n        string symbol;\n        uint vaultId;\n        uint totalSupply;\n        uint price;\n        uint transactionFee; //fee is in basis points (1 bps = 0.01%)\n        uint32 minPeriod;\n        uint128 validatorIndex;\n    }\n\n    struct Admin {\n        address authority;\n        address vaultDao;\n        address feeCollector;\n        uint minOrder; // minimum stake to avoid dust clogging things up\n        uint ratio; //ratio is 80%\n    }\n\n    modifier only_vaultDao {\n        require(msg.sender == admin.vaultDao);\n        _;\n    }\n\n    modifier only_owner {\n        require(msg.sender == owner);\n        _;\n    }\n\n    modifier casper_contract_only {\n        Authority auth = Authority(admin.authority);\n        require(msg.sender == auth.getCasper());\n        _;\n    }\n\n    modifier minimum_stake(uint _amount) {\n        require(_amount >= admin.minOrder);\n        _;\n    }\n\n    modifier has_enough(uint _amount) {\n        require(accounts[msg.sender].balance >= _amount);\n        _;\n    }\n\n    modifier positive_amount(uint _amount) {\n        require(accounts[msg.sender].balance + _amount > accounts[msg.sender].balance);\n        _;\n    }\n\n    modifier minimum_period_past {\n        require(now >= accounts[msg.sender].receipt.activation);\n        _;\n    }\n\n    function Vault(\n        string _vaultName,\n        string _vaultSymbol,\n        uint _vaultId,\n        address _owner,\n        address _authority)\n        public\n    {\n        data.name = _vaultName;\n        data.symbol = _vaultSymbol;\n        data.vaultId = _vaultId;\n        data.price = 1 ether; //initial price is 1 Ether\n        owner = _owner;\n        admin.authority = _authority;\n        admin.vaultDao = msg.sender;\n        admin.minOrder = 1 finney;\n        admin.feeCollector = _owner;\n        admin.ratio = 80;\n    }\n\n    // CORE CORE FUNCTIONS\n\n    /// @dev Allows a casper contract to send Ether back\n    function() external payable casper_contract_only {}\n\n    /// @dev Allows a user to buy into a vault\n    /// @return Bool the function executed correctly\n    function buyVault()\n        external\n        payable\n        returns (bool success)\n    {\n        require(buyVaultOnBehalf(msg.sender));\n        return true;\n    }\n\n    /// @dev Allows a user to buy into a vault on behalf of an address\n    /// @param _hodler Address of the target user\n    /// @return Bool the function executed correctly\n    function buyVaultOnBehalf(address _hodler)\n        public\n        payable\n        minimum_stake(msg.value)\n        returns (bool success)\n    {\n        uint grossAmount;\n        uint feeVault;\n        uint feeVaultDao;\n        uint amount;\n        (grossAmount, feeVault, feeVaultDao, amount) = getPurchaseAmounts();\n        addPurchaseLog(amount);\n        allocatePurchaseTokens(_hodler, amount, feeVault, feeVaultDao);\n        data.totalSupply = safeAdd(data.totalSupply, grossAmount);\n        return true;\n    }\n\n    /// @dev Allows a user to sell from a vault\n    /// @param _amount Number of shares to sell\n    /// @return Bool the function executed correctly\n    function sellVault(uint256 _amount)\n        external\n        has_enough(_amount)\n        positive_amount(_amount)\n        minimum_period_past\n        returns (bool success)\n    {\n        uint feeVault;\n        uint feeVaultDao;\n        uint netAmount;\n        uint netRevenue;\n        (feeVault, feeVaultDao, netAmount, netRevenue) = getSaleAmounts(_amount);\n        addSaleLog(_amount, netRevenue);\n        allocateSaleTokens(msg.sender, _amount, feeVault, feeVaultDao);\n        data.totalSupply = safeSub(data.totalSupply, netAmount);\n        msg.sender.transfer(netRevenue);\n        return true;\n    }\n\n    /// @dev Allows to deposit from vault to casper contract for pooled PoS mining\n    /// @dev _withdrawal address must be == this\n    /// @param _validation Address of the casper miner\n    /// @param _withdrawal Address where to withdraw\n    /// @param _amount Value of deposit in wei\n    /// @return Bool the function executed correctly\n    function depositCasper(address _validation, address _withdrawal, uint _amount)\n        public\n        only_owner\n        minimum_stake(_amount)\n        returns (bool success)\n    {\n        require(_withdrawal == address(this));\n        Authority auth = Authority(admin.authority);\n        Casper casper = Casper(auth.getCasper());\n        data.validatorIndex = casper.get_nextValidatorIndex();\n        casper.deposit.value(_amount)(_validation, _withdrawal);\n        VaultEventful events = VaultEventful(auth.getVaultEventful());\n        require(events.depositToCasper(msg.sender, this, auth.getCasper(), _validation, _withdrawal, _amount));\n        return true;\n    }\n\n    /// @dev Allows vault owner to withdraw from casper to vault contract\n    function withdrawCasper() public only_owner {\n        Authority auth = Authority(admin.authority);\n        Casper casper = Casper(auth.getCasper());\n        casper.withdraw(data.validatorIndex);\n        VaultEventful events = VaultEventful(auth.getVaultEventful());\n        require(events.withdrawFromCasper(msg.sender, this, auth.getCasper(), data.validatorIndex));\n    }\n\n    /// @dev Allows vault dao/factory to change fee split ratio\n    /// @param _ratio Number of ratio for wizard, from 0 to 100\n    function changeRatio(uint256 _ratio) public only_vaultDao {\n        Authority auth = Authority(admin.authority);\n        VaultEventful events = VaultEventful(auth.getVaultEventful());\n        require(events.changeRatio(msg.sender, this, _ratio));\n        admin.ratio = _ratio;\n    }\n\n    /// @dev Allows vault owner to set the transaction fee\n    /// @param _transactionFee Value of the transaction fee in basis points\n    function setTransactionFee(uint _transactionFee) public only_owner {\n        require(_transactionFee <= 100); //fee cannot be higher than 1%\n        Authority auth = Authority(admin.authority);\n        VaultEventful events = VaultEventful(auth.getVaultEventful());\n        require(events.setTransactionFee(msg.sender, this, _transactionFee));\n        data.transactionFee = _transactionFee;\n    }\n\n    /// @dev Allows owner to decide where to receive the fee\n    /// @param _feeCollector Address of the fee receiver\n    function changeFeeCollector(address _feeCollector) public only_owner {\n        Authority auth = Authority(admin.authority);\n        VaultEventful events = VaultEventful(auth.getVaultEventful());\n        require(events.changeFeeCollector(msg.sender, this, _feeCollector));\n        admin.feeCollector = _feeCollector;\n    }\n\n    /// @dev Allows vault dao/factory to upgrade its address\n    /// @param _vaultDao Address of the new vault dao\n    function changeVaultDao(address _vaultDao) public only_vaultDao {\n        Authority auth = Authority(admin.authority);\n        VaultEventful events = VaultEventful(auth.getVaultEventful());\n        require(events.changeVaultDao(msg.sender, this, _vaultDao));\n        admin.vaultDao = _vaultDao;\n    }\n\n    /// @dev Allows anyone to pay and update the price\n    /// @dev This function allows to write the new nav\n    /// @dev NAV is provided by view functions\n    function updatePrice() public {\n        data.price = getNav();\n    }\n\n    /// @dev Allows vault dao/factory to change the minimum holding period\n    /// @param _minPeriod Number of blocks\n    function changeMinPeriod(uint32 _minPeriod) public only_vaultDao {\n        data.minPeriod = _minPeriod;\n    }\n\n    // CONSTANT FUNCTIONS\n\n    /// @dev Calculates how many shares a user holds\n    /// @param _from Address of the target account\n    /// @return Number of shares\n    function balanceOf(address _from) public view returns (uint256) {\n        return accounts[_from].balance;\n    }\n\n    /// @dev Gets the address of the logger contract\n    /// @return Address of the logger contrac\n    function getEventful() public view returns (address) {\n        Authority auth = Authority(admin.authority);\n        return auth.getVaultEventful();\n    }\n\n    /// @dev Finds details of a vault pool\n    /// @return String name of a vault\n    /// @return String symbol of a vault\n    /// @return Value of the share price in wei\n    /// @return Value of the share price in wei\n    function getData()\n        public\n        constant\n        returns (\n            string name,\n            string symbol,\n            uint sellPrice,\n            uint buyPrice\n        )\n    {\n        sellPrice = buyPrice = getNav();\n        return(\n            name = data.name,\n            symbol = data.symbol,\n            sellPrice,\n            buyPrice\n        );\n    }\n\n    /// @dev Finds the administrative data of the pool\n    /// @return Address of the account where a user collects fees\n    /// @return Address of the vault dao/factory\n    /// @return Number of the fee split ratio\n    /// @return Value of the transaction fee in basis points\n    /// @return Number of the minimum holding period for shares\n    function getAdminData()\n        public\n        constant\n        returns (\n            address feeCollector,\n            address vaultDao,\n            uint ratio,\n            uint transactionFee,\n            uint32 minPeriod\n        )\n    {\n        return (\n            admin.feeCollector,\n            admin.vaultDao,\n            admin.ratio,\n            data.transactionFee,\n            data.minPeriod\n        );\n    }\n\n    /// @dev Queries the address of the casper contract from the authority\n    /// @return Address of the casper contract\n    function getCasper() public view returns (address) {\n        Authority auth = Authority(admin.authority);\n        return auth.getCasper();\n    }\n\n    /// @dev Finds the value of the deposit of this vault at the casper contract\n    /// @return Value of the deposit at casper in wei\n    function getCasperDeposit() public view returns (uint128) {\n        Casper casper = Casper(getCasper());\n        return casper.get_deposit_size(data.validatorIndex);\n    }\n\n    /// @dev Calculates the value of the shares\n    /// @return Value of the shares in wei\n    function getNav() public constant returns (uint) {\n        uint casperDeposit = uint(getCasperDeposit());\n        uint aum = safeAdd(this.balance, casperDeposit);\n        return safeDiv(aum * BASE, data.totalSupply);\n    }\n\n    /// @dev Returns the version of the type of vault\n    /// @return String of the version\n    function getVersion() public view returns (string) {\n        return VERSION;\n    }\n\n    /// @dev Returns the total amount of issued tokens for this vault\n    /// @return Number of shares\n    function totalSupply() public view returns (uint256) {\n        return data.totalSupply;\n    }\n\n    // INTERNAL FUNCTIONS\n\n    /// @dev Allocates tokens to buyer, splits fee in tokens to wizard and dao\n    /// @param _hodler Address of the buyer\n    /// @param _amount Value of issued tokens\n    /// @param _feeVault Number of shares as fee\n    /// @param _feeVaultDao Number of shares as fee to dao\n    function allocatePurchaseTokens(\n        address _hodler,\n        uint _amount,\n        uint _feeVault,\n        uint _feeVaultDao)\n        internal\n    {\n        accounts[_hodler].balance = safeAdd(accounts[_hodler].balance, _amount);\n        accounts[admin.feeCollector].balance = safeAdd(accounts[admin.feeCollector].balance, _feeVault);\n        accounts[admin.vaultDao].balance = safeAdd(accounts[admin.vaultDao].balance, _feeVaultDao);\n        accounts[_hodler].receipt.activation = uint32(now) + data.minPeriod;\n    }\n\n    /// @dev Destroys tokens from buyer, splits fee in tokens to wizard and dao\n    /// @param _hodler Address of the seller\n    /// @param _amount Value of burnt tokens\n    /// @param _feeVault Number of shares as fee\n    /// @param _feeVaultDao Number of shares as fee to dao\n    function allocateSaleTokens(\n        address _hodler,\n        uint _amount,\n        uint _feeVault,\n        uint _feeVaultDao)\n        internal\n    {\n        accounts[_hodler].balance = safeSub(accounts[_hodler].balance, _amount);\n        accounts[admin.feeCollector].balance = safeAdd(accounts[admin.feeCollector].balance, _feeVault);\n        accounts[admin.vaultDao].balance = safeAdd(accounts[admin.vaultDao].balance, _feeVaultDao);\n    }\n\n    /// @dev Sends a buy log to the eventful contract\n    /// @param _amount Number of purchased shares\n    function addPurchaseLog(uint _amount)\n        internal\n    {\n        bytes memory name = bytes(data.name);\n        bytes memory symbol = bytes(data.symbol);\n        Authority auth = Authority(admin.authority);\n        VaultEventful events = VaultEventful(auth.getVaultEventful());\n        require(events.buyVault(msg.sender, this, msg.value, _amount, name, symbol));\n    }\n\n    /// @dev Sends a sell log to the eventful contract\n    /// @param _amount Number of sold shares\n    /// @param _netRevenue Value of sale for hodler\n    function addSaleLog(uint _amount, uint _netRevenue)\n        internal\n    {\n        bytes memory name = bytes(data.name);\n        bytes memory symbol = bytes(data.symbol);\n        Authority auth = Authority(admin.authority);\n        VaultEventful events = VaultEventful(auth.getVaultEventful());\n        require(events.sellVault(msg.sender, this, _amount, _netRevenue, name, symbol));\n    }\n\n    /// @dev Calculates the correct purchase amounts\n    /// @return Number of new shares\n    /// @return Value of fee in shares\n    /// @return Value of fee in shares to dao\n    /// @return Value of net purchased shares\n    function getPurchaseAmounts()\n        internal\n        constant\n        returns (\n            uint grossAmount,\n            uint feeVault,\n            uint feeVaultDao,\n            uint amount\n        )\n    {\n        grossAmount = safeDiv(msg.value * BASE, getNav());\n        uint fee = safeMul(grossAmount, data.transactionFee) / 10000; //fee is in basis points\n        return (\n            grossAmount = safeDiv(msg.value * BASE, getNav()),\n            feeVault = safeMul(fee , admin.ratio) / 100,\n            feeVaultDao = safeSub(fee, feeVault),\n            amount = safeSub(grossAmount, fee)\n        );\n    }\n\n    /// @dev Calculates the correct sale amounts\n    /// @return Value of fee in shares\n    /// @return Value of fee in shares to dao\n    /// @return Value of net sold shares\n    /// @return Value of sale amount for hodler\n    function getSaleAmounts(uint _amount)\n        internal\n        constant\n        returns (\n            uint feeVault,\n            uint feeVaultDao,\n            uint netAmount,\n            uint netRevenue\n        )\n    {\n        uint fee = safeMul(_amount, data.transactionFee) / 10000; //fee is in basis points\n        return (\n            feeVault = safeMul(fee, admin.ratio) / 100,\n            feeVaultDao = safeSub(fee, feeVaultDao),\n            netAmount = safeSub(_amount, fee),\n            netRevenue = (safeMul(netAmount, getNav()) / BASE)\n        );\n    }\n}\n",
  "sourcePath": "/home/gab/truffle/contracts/contracts/Vault/Vault.sol",
  "compiler": {
    "name": "solc",
    "version": "0.4.19+commit.c4cbbb05.Emscripten.clang"
  },
  "schemaVersion": "2.0.0",
  "updatedAt": "2018-03-05T01:35:43.800Z"
}