{
	"data": {
		"bytecode": {
			"linkReferences": {},
			"object": "6080604052600080546001600160a01b031916331790556132e4806100256000396000f3fe608060405234801561001057600080fd5b506004361061021c5760003560e01c8063a26171e211610125578063e0822db7116100ad578063e907f0031161007c578063e907f0031461044f578063ee99205c14610462578063f252b7a11461046a578063f2fde38b1461047d578063ff691b11146104905761021c565b8063e0822db714610424578063e0ee036e1461042c578063e804d0a414610434578063e8eeb3f8146104475761021c565b8063b510879f116100f4578063b510879f146103c3578063b9181611146103d6578063bb7ef7e0146103e9578063c18c9141146103fc578063d39de6e91461040f5761021c565b8063a26171e2146103a3578063a657e579146103ab578063b0531524146103b3578063b2baa33e146103bb5761021c565b8063587da023116101a857806370712939116101775780637071293914610358578063766718081461036b57806381666796146103735780638da5cb5b146103885780639ad26744146103905761021c565b8063587da023146103155780635bd4ab731461031d5780635e30deff1461033d57806363403801146103505761021c565b80633c277fc5116101ef5780633c277fc5146102985780633e4ad732146102ad57806342f1181e146102cd57806344a6958b146102e2578063494503d4146102f55761021c565b80630b9663db146102215780631e7ff8f61461023f5780632a94c2791461025257806338229d9314610274575b600080fd5b6102296104a3565b6040516102369190613078565b60405180910390f35b61022961024d366004612d4b565b6105f5565b610265610260366004612e3f565b610682565b60405161023693929190613114565b610287610282366004612df1565b6106ae565b604051610236959493929190613157565b6102a06106dd565b6040516102369190613094565b6102c06102bb366004612df1565b6106f5565b6040516102369190613106565b6102e06102db366004612d4b565b610714565b005b6102c06102f0366004612da3565b610728565b610308610303366004612df1565b61077a565b6040516102369190613015565b6102296107a1565b61033061032b366004612d4b565b6107a7565b604051610236919061306a565b61022961034b366004612d4b565b6107bc565b6102296107ce565b6102e0610366366004612d4b565b6107d4565b610229610862565b61037b610868565b6040516102369190613199565b610308610874565b6102e061039e366004612d69565b610883565b610229610895565b61022961089b565b6102296108a1565b6102296108a7565b6102e06103d1366004612df1565b6108c5565b6103306103e4366004612d4b565b6108cf565b6102296103f7366004612df1565b6108e4565b61022961040a366004612df1565b610951565b610417610963565b6040516102369190613059565b6102a06109c5565b61037b6109dd565b6102c0610442366004612e5e565b6109e9565b61037b610b1d565b61022961045d366004612e0f565b610b31565b610308610bb0565b6102c0610478366004612d69565b610bbf565b6102e061048b366004612d4b565b610bf3565b6102e061049e366004612df1565b610c64565b600d54600090816104bb82600163ffffffff610ec116565b60008181526017602052604090206001015490915080156104e8576104e86104e38383610ee0565b610f37565b6104f0610f3f565b6104f8610fa4565b60008481526017602052604090205561050f612c31565b50600083815260176020908152604091829020825160a08101845281548082526001830154938201849052600283015482860181905260038401546060840181905260049094015460808401529451919488947fbb4a26fa0ace13ee4da343896c20eaa44a618fb9071fdd8c2e2c960a4583189d946105919491939291613122565b60405180910390a26105a161103b565b60208101516105e857805160405185917fb463d19ecf455be65365092cf8e1db6934a0334cf8cd532ddf9964d01f36b5b2916105df916000916130d8565b60405180910390a25b6020015193505050505b90565b60006105ff6109c5565b6001600160a01b03166370a08231836040518263ffffffff1660e01b815260040161062a9190613015565b60206040518083038186803b15801561064257600080fd5b505afa158015610656573d6000803e3d6000fd5b505050506040513d601f19601f8201168201806040525061067a9190810190612e7c565b90505b919050565b601660209081526000928352604080842090915290825290208054600182015460029092015490919083565b601760205260009081526040902080546001820154600283015460038401546004909401549293919290919085565b73c02aaa39b223fe8d0a0e5c4f27ead9083c756cc290565b6106fd612c60565b600082815260076020526040902061067a9061107e565b61071c611104565b61072581611133565b50565b610730612c60565b6107716005600084600181111561074357fe5b60ff168152602080820192909252604090810160009081206001600160a01b0388168252909252902061107e565b90505b92915050565b6002818154811061078757fe5b6000918252602090912001546001600160a01b0316905081565b600e5481565b60116020526000908152604090205460ff1681565b60096020526000908152604090205481565b60125481565b6107dc611104565b6001600160a01b03811660009081526001602052604090205460ff16610808576108086104e382611207565b60005b60025481101561085e57816001600160a01b03166002828154811061082c57fe5b6000918252602090912001546001600160a01b0316141561085657610851828261125b565b61085e565b60010161080b565b5050565b600d5481565b60155463ffffffff1681565b6000546001600160a01b031681565b61088b611104565b61085e828261125b565b60145481565b60085481565b60185481565b60006108c0601254600e546113d090919063ffffffff16565b905090565b61072581336113ec565b60016020526000908152604090205460ff1681565b60006108ee612c80565b506000828152600b602090815260408083208151808301909252546001600160a01b0381168252600160a01b900463ffffffff1691810191909152908061093485611565565b9150915061094783602001518383611622565b5095945050505050565b600c6020526000908152604090205481565b606060028054806020026020016040519081016040528092919081815260200182805480156109bb57602002820191906000526020600020905b81546001600160a01b0316815260019091019060200180831161099d575b5050505050905090565b73ba7f8b5fb1b19c1211c5d49550fcd149177a5eaf90565b60135463ffffffff1681565b6109f1612c60565b60016000526004602052610a247fabd6e7cb50984ff9c2f3e18a2660c3353dadf4e3291deeb275dae2cd1e44fe0561107e565b90506000826001811115610a3457fe5b141561067d576000610a446109c5565b6001600160a01b0316636b6df5aa6040518163ffffffff1660e01b815260040160206040518083038186803b158015610a7c57600080fd5b505afa158015610a90573d6000803e3d6000fd5b505050506040513d601f19601f82011682018060405250610ab49190810190612e7c565b9050610ade610ad983602001516001600160601b031683610ec190919063ffffffff16565b611663565b6001600160601b0390811660208401526040830151610b0991610ad99184911663ffffffff610ec116565b6001600160601b0316604083015250919050565b601554640100000000900463ffffffff1681565b6000610b3b612c80565b506000838152600b602090815260408083208151808301909252546001600160a01b0381168252600160a01b900463ffffffff16918101919091529080610b8186611565565b915091506000610b9684602001518484611622565b915050610ba587878385611682565b979650505050505050565b6003546001600160a01b031681565b610bc7612c60565b6001600160a01b038316600090815260066020908152604080832085845290915290206107719061107e565b610bfb611104565b6001600160a01b038116610c1957610c146104e361179d565b610725565b600080546001600160a01b0319166001600160a01b0383169081178255604051909133917f8be0079c531659141344cd1fd0a4f28419497f9722a3daafe3b4186f6b6457e09190a350565b610c6d336117bb565b15610c935760405162461bcd60e51b8152600401610c8a906130e6565b60405180910390fd5b600d546000610ca982600163ffffffff610ec116565b9050610cb3612c31565b50600081815260176020908152604091829020825160a08101845281548152600182015492810183905260028201549381019390935260038101546060840152600401546080830152610d0857505050610725565b610d10612c97565b5060008481526016602090815260408083208584528252918290208251606081018452815480825260018301549382019390935260029091015492810192909252610d5e5750505050610725565b6000858152601660209081526040808320868452909152812081815560018101829055600201819055610d9182846117c1565b9050600080610da588848660400151611836565b9150915087877ff1116b309178aa62dcb6bf8c3b8bc2321724907c7ebf52192d14c8ce3aa9194c8484604051610ddc929190613086565b60405180910390a36000610df6838363ffffffff6113d016565b6080870151909150610e0e908263ffffffff6113d016565b60808701819052600088815260176020908152604090912060040191909155860151610e4190600163ffffffff610ec116565b602080880182815260008a8152601790925260409091206001019190915551610eb6576080860151865188917fb463d19ecf455be65365092cf8e1db6934a0334cf8cd532ddf9964d01f36b5b291610e9f908263ffffffff610ec116565b604051610ead929190613086565b60405180910390a25b505050505050505050565b600082821115610eda57610eda6104e360028585611942565b50900390565b606063614b800a60e01b8383604051602401610efd929190613086565b60408051601f198184030181529190526020810180516001600160e01b03166001600160e01b031990931692909217909152905092915050565b805160208201fd5b47801561072557610f4e6106dd565b6001600160a01b031663d0e30db0826040518263ffffffff1660e01b81526004016000604051808303818588803b158015610f8857600080fd5b505af1158015610f9c573d6000803e3d6000fd5b505050505050565b60006108c0601854610fb46106dd565b6001600160a01b03166370a08231306040518263ffffffff1660e01b8152600401610fdf9190613015565b60206040518083038186803b158015610ff757600080fd5b505afa15801561100b573d6000803e3d6000fd5b505050506040513d601f19601f8201168201806040525061102f9190810190612e7c565b9063ffffffff610ec116565b4260006110466108a7565b90508181111561105d5761105d6104e3828461199d565b600d5460009061107490600163ffffffff6113d016565b600d555050600e55565b611086612c60565b5060408051606081018252825467ffffffffffffffff81168083526001600160601b03600160401b830481166020850152600160a01b90920490911692820192909252600d5490918111156110fe576110de816119ba565b67ffffffffffffffff16825260408201516001600160601b031660208301525b50919050565b6000546001600160a01b0316331461113157600054611131906104e39033906001600160a01b03166119da565b565b6001600160a01b03811661114c5761114c6104e36119f7565b6001600160a01b03811660009081526001602052604090205460ff1615611179576111796104e382611a15565b6001600160a01b0381166000818152600160208190526040808320805460ff19168317905560028054928301815583527f405787fa12a823e0f2b7631cc41b3ba8828b3321ca811111fa75cd3aa3bb5ace90910180546001600160a01b03191684179055513392917f3147867c59d17e8fa9d522465651d44aae0a9e38f902f3475b97e58072f0ed4c91a350565b606063eb5108a260e01b826040516024016112229190613015565b60408051601f198184030181529190526020810180516001600160e01b03166001600160e01b0319909316929092179091529050919050565b6001600160a01b03821660009081526001602052604090205460ff16611287576112876104e383611207565b60025481106112a2576112a26104e382600280549050611a30565b816001600160a01b0316600282815481106112b957fe5b6000918252602090912001546001600160a01b031614611301576113016104e3600283815481106112e657fe5b6000918252602090912001546001600160a01b031684611a4d565b6001600160a01b0382166000908152600160205260409020805460ff1916905560028054600019810190811061133357fe5b600091825260209091200154600280546001600160a01b03909216918390811061135957fe5b600091825260209091200180546001600160a01b0319166001600160a01b03929092169190911790556002805460001901906113959082612cb8565b5060405133906001600160a01b038416907f1f32c1b084e2de0713b8fb16bd46bb9df710a3dbeae2f3ca93af46e016dcc6b090600090a35050565b600082820183811015610771576107716104e360008686611942565b6113f582611a6a565b60006114048383600080611682565b6001600160a01b038316600090815260066020908152604080832087845290915290209091506114339061107e565b6001600160a01b0383811660009081526006602090815260408083208884528252918290208451815492860151959093015167ffffffffffffffff1990921667ffffffffffffffff9093169290921773ffffffffffffffffffffffff00000000000000001916600160401b6001600160601b039586160217909216600160a01b93909216929092021790558015611557576114ce8382611ade565b6114d66106dd565b6001600160a01b031663a9059cbb83836040518363ffffffff1660e01b815260040161150392919061303e565b602060405180830381600087803b15801561151d57600080fd5b505af1158015611531573d6000803e3d6000fd5b505050506040513d601f19601f820116820180604052506115559190810190612dd3565b505b61156083611b26565b505050565b60008060006115806001600d54610ec190919063ffffffff16565b905061158a612c97565b50600084815260166020908152604080832084845282528083208151606080820184528254825260018084015483870152600293840154838601528787526017865295849020845160a08101865281548152968101549587019590955291840154928501929092526003830154908401526004909101546080830152906116129082906117c1565b9350806040015192505050915091565b600080826116325783915061165b565b61164663ffffffff8616620f424086611b33565b9150611658848363ffffffff610ec116565b90505b935093915050565b806001600160601b038116811461067d5761067d6104e3600284611b75565b600d54600090611690612c60565b506001600160a01b03851660009081526006602090815260408083208984528252918290208251606081018452905467ffffffffffffffff81168083526001600160601b03600160401b8304811694840194909452600160a01b9091049092169281019290925282141561170957600092505050611795565b61171581838787611b92565b81519093506000906117389067ffffffffffffffff16600163ffffffff6113d016565b90506117716117648984602001516001600160601b0316856000015167ffffffffffffffff1685611c10565b859063ffffffff6113d016565b935061178f6117648984604001516001600160601b03168487611c10565b93505050505b949350505050565b604080518082019091526004815263734f6e1f60e11b602082015290565b3b151590565b81516000906117cf57610774565b8151835160408401516020860151606086015160155461180595949392919063ffffffff80821691640100000000900416611c8f565b608083015183519192506000916118219163ffffffff610ec116565b90508181101561182f578091505b5092915050565b600080611841612c80565b506000858152600b60209081526040918290208251808401909352546001600160a01b0381168352600160a01b900463ffffffff16908201819052611887908686611622565b9093509150821561191e5761189a6106dd565b815160405163a9059cbb60e01b81526001600160a01b03929092169163a9059cbb916118ca91879060040161303e565b602060405180830381600087803b1580156118e457600080fd5b505af11580156118f8573d6000803e3d6000fd5b505050506040513d601f19601f8201168201806040525061191c9190810190612dd3565b505b81156119395761192e8683611d52565b611939868386611d93565b50935093915050565b606063e946c1bb60e01b848484604051602401611961939291906130a2565b60408051601f198184030181529190526020810180516001600160e01b03166001600160e01b03199093169290921790915290505b9392505050565b606063a6bcde4760e01b8383604051602401610efd929190613086565b8067ffffffffffffffff8116811461067d5761067d6104e3600184611b75565b6060631de45ad160e01b8383604051602401610efd929190613023565b60408051808201909152600481526315d953f960e21b602082015290565b606063de16f1a060e01b826040516024016112229190613015565b606063e9f8377160e01b8383604051602401610efd929190613086565b606063140a84db60e01b8383604051602401610efd929190613023565b600d54600090611a8190600163ffffffff610ec116565b9050611a8b612c97565b506000828152601660209081526040808320848452825291829020825160608101845281548082526001830154938201939093526002909101549281019290925215611560576115606104e38484611e7c565b6000828152600c6020526040902054611afd908263ffffffff610ec116565b6000838152600c6020526040902055601854611b1f908263ffffffff610ec116565b6018555050565b6107258160006001611d93565b600061179583611b69611b4d82600163ffffffff610ec116565b611b5d888763ffffffff611e9916565b9063ffffffff6113d016565b9063ffffffff611eca16565b606063c996af7b60e01b8383604051602401610efd9291906130ca565b6000821580611b9f575081155b15611bac57506000611795565b6000611bbf85600163ffffffff610ec116565b865167ffffffffffffffff161015611bdb578560400151611be1565b85602001515b6001600160601b0316905080611bfb576000915050611795565b611c06848483611ef4565b9695505050505050565b6000831580611c1e57508183145b15611c2b57506000611795565b818310611c4a5760405162461bcd60e51b8152600401610c8a906130f6565b611c52612cdc565b611c5c8685611f0a565b9050611c66612cdc565b611c708785611f0a565b9050610ba581600001518260200151846000015185602001518a612028565b600080611c9c88886120b4565b90506000611caa87876120b4565b9050811580611cb7575080155b15611cc8575060009150610ba59050565b600081831315611ce157611cdc82846120fa565b611ceb565b611ceb83836120fa565b9050611d14611d0f611cfc8361210d565b8863ffffffff168863ffffffff16612562565b612571565b905081831315611d2d57611d2882826120fa565b611d37565b611d3782826129d7565b9050611d43818c6129f7565b9b9a5050505050505050505050565b6000828152600c6020526040902054611d71908263ffffffff6113d016565b6000838152600c6020526040902055601854611b1f908263ffffffff6113d016565b600083815260106020526040902054600d5480821415611db4575050611560565b611dbc612cdc565b506000858152600f602090815260408083208584528252918290208251808401909352805483526001015490820152611df3612cdc565b611dfc82612a39565b15611e3557611e15826000015183602001518888612a42565b60208301819052818352611e299190612aa4565b60208301528152611e40565b602081018590528581525b6000878152600f602090815260408083208684528252808320845181559382015160019094019390935597815260109097529095205550505050565b6060635caa0b0560e01b8383604051602401610efd929190613086565b600082611ea857506000610774565b82820282848281611eb557fe5b0414610771576107716104e360018686611942565b600081611ee057611ee06104e360038585611942565b6000828481611eeb57fe5b04949350505050565b600061179583611b69868563ffffffff611e9916565b611f12612cdc565b506000828152600f602090815260408083208484528252918290208251808401909352805483526001015490820152611f4a81612a39565b15611f5457610774565b6000611f6783600163ffffffff610ec116565b6000858152600f60209081526040808320848452825291829020825180840190935280548352600101549082015292509050611fa282612a39565b15611fad5750610774565b6000848152601060205260409020548381101561200a576000858152600f6020908152604080832084845282529182902082518084019093528054835260010154908201529250611ffd83612a39565b1561200a57506107749050565b50506040805180820190915260008152600160208201529392505050565b600081612037575060006120ab565b836120575761205085611b69848963ffffffff611e9916565b90506120ab565b600061207c61206c868863ffffffff611e9916565b61102f898763ffffffff611e9916565b90506000612090828663ffffffff611eca16565b90506120a687611b69868463ffffffff611e9916565b925050505b95945050505050565b6000808312156120cc576120cc6104e3600185612ac1565b60008212156120e3576120e36104e3600184612ac1565b6119966120f4846001607f1b612ae9565b83612b3c565b60006119966120f4846001607f1b612ae9565b60006001607f1b821315612129576121296104e3600184612b83565b6000821361213f5761213f6104e3600084612b83565b6001607f1b8214156121535750600061067d565b640733048c5a821361216f575060016101ff607c1b031961067d565b60008060006a01c8464f7616476000000085136121b457700fffffffffffffffffffffffffffffffff19909301926a01c8464f761647600000006001607f1b86020594505b6cf1aaddd7742e9000000000000085136121f8577007ffffffffffffffffffffffffffffffff19909301926cf1aaddd7742e900000000000006001607f1b86020594505b6615fc21041027af603f1b8513612236577003ffffffffffffffffffffffffffffffff19909301926615fc21041027af603f1b6001607f1b86020594505b660960aadc109e7b60461b8513612274577001ffffffffffffffffffffffffffffffff1990930192660960aadc109e7b60461b6001607f1b86020594505b660454aaa8efe073604a1b85136122b1576fffffffffffffffffffffffffffffffff1990930192660454aaa8efe073604a1b6001607f1b86020594505b6602f16ac6c59de7604c1b85136122e55760016001607f1b0319909301926602f16ac6c59de7604c1b6001607f1b86020594505b6609b4597e37cb05604b1b8513612322576f3fffffffffffffffffffffffffffffff19909301926609b4597e37cb05604b1b6001607f1b86020594505b6618ebef9eac820b604a1b851361235f576f1fffffffffffffffffffffffffffffff19909301926618ebef9eac820b604a1b6001607f1b86020594505b6f70f5a893b608861e1f58934f97aea57d85136123a8576f0fffffffffffffffffffffffffffffff19909301926f70f5a893b608861e1f58934f97aea57d6001607f1b86020594505b60016001607f1b0319850192508291506001607f1b828002059050600160801b838103830205840193506001607f1b818302816123e157fe5b059150600160811b836faaaaaaaaaaaaaaaaaaaaaaaaaaaaaaaa0383028161240557fe5b05840193506001607f1b8183028161241957fe5b059150600360801b836f999999999999999999999999999999990383028161243d57fe5b05840193506001607f1b8183028161245157fe5b059150600160821b836f924924924924924924924924924924920383028161247557fe5b05840193506001607f1b8183028161248957fe5b059150600560801b836f8e38e38e38e38e38e38e38e38e38e38e038302816124ad57fe5b05840193506001607f1b818302816124c157fe5b059150600360811b836f8ba2e8ba2e8ba2e8ba2e8ba2e8ba2e8b038302816124e557fe5b05840193506001607f1b818302816124f957fe5b059150600760801b836f89d89d89d89d89d89d89d89d89d89d890383028161251d57fe5b05840193506001607f1b8183028161253157fe5b059150600160831b836f888888888888888888888888888888880383028161255557fe5b0584019350505050919050565b60006117956120f48585612ae9565b600060016101ff607c1b031982121561258c5750600061067d565b8161259c57506001607f1b61067d565b60008213156125b3576125b36104e3600184612b83565b6001607f1b6001607c1b83078080028290056710e1b3be415a0000810293909301929091818302059050806705a0913f6b1e000002830192506001607f1b828202816125fb57fe5b05905080670168244fdac7800002830192506001607f1b8282028161261c57fe5b05905080664807432bc1800002830192506001607f1b8282028161263c57fe5b05905080660c0135dca0400002830192506001607f1b8282028161265c57fe5b059050806601b707b1cdc00002830192506001607f1b8282028161267c57fe5b059050806536e0f639b80002830192506001607f1b8282028161269b57fe5b05905080650618fee9f80002830192506001607f1b828202816126ba57fe5b05905080649c197dcc0002830192506001607f1b828202816126d857fe5b05905080640e30dce40002830192506001607f1b828202816126f657fe5b0590508064012ebd130002830192506001607f1b8282028161271457fe5b059050806317499f0002830192506001607f1b8282028161273157fe5b059050806301a9d48002830192506001607f1b8282028161274e57fe5b05905080621c638002830192506001607f1b8282028161276a57fe5b059050806201c63802830192506001607f1b8282028161278657fe5b05905080611ab802830192506001607f1b828202816127a157fe5b0590508061017c02830192506001607f1b828202816127bc57fe5b05905080601402830192506001607f1b828202816127d657fe5b600095909503946721c3677c82b400009190059384010582016001607f1b01929050600160841b84161561282c577243cbaf42a000812488fc5c220ad7b97bf6e99e6cf1aaddd7742e56d32fb9f9974484020592505b600160831b841615612861577105d27a9f51c31b7c2f8038212a05747799916e0afe10820813d65dfe6a33c07f738f84020592505b600160821b84161561289657701b4c902e273a58678d6d3bfdb93db96d026f02582ab704279e8efd15e0265855c47a84020592505b600160811b8416156128cb577003b1cc971a9bb5b9867477440d6d1577506f1152aaa3bf81cb9fdb76eae12d02957184020592505b600160801b8416156129005770015bf0a8b1457695355fb8ac404e7a79e36f2f16ac6c59de6f8d5d6f63c1482a7c8684020592505b6001607f1b841615612934576fd3094c70f034de4b96ff7d5b6f99fcd86f4da2cbf1be5827f9eb3ad1aa9866ebb384020592505b6001607e1b841615612968576fa45af1e1f40c333b3de1db4dd55f29a76f63afbe7ab2082ba1a0ae5e4eb1b479dc84020592505b6001607d1b84161561299c576f910b022db7ae67ce76b441c27035c6a16f70f5a893b608861e1f58934f97aea57d84020592505b6001607c1b8416156129d0576f88415abbe9a76bead8d00cf112e4d4a86f783eafef1c0a8f3978c7f81824d62ebf84020592505b5050919050565b60006001607f1b6129e88484612ae9565b816129ef57fe5b059392505050565b600080821215612a0f57612a0f6104e3600184612ac1565b6000612a1b8484612ae9565b905060008113612a2f576000915050610774565b607f1c9392505050565b60200151151590565b60008085612a54575082905081612a9b565b83612a63575084905083612a9b565b612a86612a76858763ffffffff611e9916565b611b5d888663ffffffff611e9916565b9150612a98858463ffffffff611e9916565b90505b94509492505050565b600080612ab684846001607f1b612b99565b915091509250929050565b606063bd79545f60e01b836001811115612ad757fe5b83604051602401610efd9291906131a7565b6000821580612af6575081155b15612b0357506000610774565b5081810281838281612b1157fe5b05141580612b28575082828281612b2457fe5b0514155b15610774576107746104e360018585612c07565b600081612b5257612b526104e360028585612c07565b600160ff1b83148015612b66575081600019145b15612b7a57612b7a6104e360038585612c07565b8183816129ef57fe5b606063ed2f26a160e01b836001811115612ad757fe5b60008082851180612ba957508284115b15612bfe57600084861015612bbe5784612bc0565b855b9050612bd2818563ffffffff611eca16565b9050612be4868263ffffffff611eca16565b9250612bf6858263ffffffff611eca16565b91505061165b565b50929391925050565b6060638c12dfe760e01b846003811115612c1d57fe5b8484604051602401611961939291906131b5565b6040518060a0016040528060008152602001600081526020016000815260200160008152602001600081525090565b604080516060810182526000808252602082018190529181019190915290565b604080518082019091526000808252602082015290565b60405180606001604052806000815260200160008152602001600081525090565b81548183558181111561156057600083815260209020611560918101908301612cf6565b604051806040016040528060008152602001600081525090565b6105f291905b80821115612d105760008155600101612cfc565b5090565b80356107748161326e565b805161077481613282565b80356107748161328b565b803561077481613294565b80516107748161328b565b600060208284031215612d5d57600080fd5b60006117958484612d14565b60008060408385031215612d7c57600080fd5b6000612d888585612d14565b9250506020612d9985828601612d2a565b9150509250929050565b60008060408385031215612db657600080fd5b6000612dc28585612d14565b9250506020612d9985828601612d35565b600060208284031215612de557600080fd5b60006117958484612d1f565b600060208284031215612e0357600080fd5b60006117958484612d2a565b60008060408385031215612e2257600080fd5b6000612e2e8585612d2a565b9250506020612d9985828601612d14565b60008060408385031215612e5257600080fd5b6000612d888585612d2a565b600060208284031215612e7057600080fd5b60006117958484612d35565b600060208284031215612e8e57600080fd5b60006117958484612d40565b6000612ea68383612eae565b505060200190565b612eb7816131d6565b82525050565b6000612ec8826131c9565b612ed281856131cd565b9350612edd836131c3565b8060005b83811015612f0b578151612ef58882612e9a565b9750612f00836131c3565b925050600101612ee1565b509495945050505050565b612eb7816131e1565b612eb7816105f2565b612eb78161322e565b612eb781613239565b612eb781613244565b612eb78161324f565b6000612f59601e836131cd565b7f43414c4c45525f49535f534d4152545f434f4e54524143545f4552524f520000815260200192915050565b6000612f926013836131cd565b7210d497d25395115495905317d2539590531251606a1b815260200192915050565b80516060830190612fc58482612ffa565b506020820151612fd8602085018261300c565b506040820151612feb604085018261300c565b50505050565b612eb781613206565b612eb78161320f565b612eb78161321c565b612eb781613222565b602081016107748284612eae565b604081016130318285612eae565b6119966020830184612eae565b6040810161304c8285612eae565b6119966020830184612f1f565b602080825281016119968184612ebd565b602081016107748284612f16565b602081016107748284612f1f565b6040810161304c8285612f1f565b602081016107748284612f28565b606081016130b08286612f31565b6130bd6020830185612f1f565b6117956040830184612f1f565b6040810161304c8285612f3a565b6040810161304c8285612f43565b6020808252810161067a81612f4c565b6020808252810161067a81612f85565b606081016107748284612fb4565b606081016130b08286612f1f565b608081016131308287612f1f565b61313d6020830186612f1f565b61314a6040830185612f1f565b6120ab6060830184612f1f565b60a081016131658288612f1f565b6131726020830187612f1f565b61317f6040830186612f1f565b61318c6060830185612f1f565b611c066080830184612f1f565b602081016107748284612ff1565b6040810161304c8285613003565b606081016130b08286613003565b60200190565b5190565b90815260200190565b600061067a826131fa565b151590565b8061067d8161325a565b8061067d81613264565b6001600160a01b031690565b63ffffffff1690565b67ffffffffffffffff1690565b60ff1690565b6001600160601b031690565b600061067a826131d6565b600061067a826131e6565b600061067a826131f0565b600061067a826105f2565b6004811061072557fe5b6003811061072557fe5b613277816131d6565b811461072557600080fd5b613277816131e1565b613277816105f2565b6002811061072557600080fdfea365627a7a72315820540e3a12db347a92d64eace980b0ea4dd1aea505074c36a70657e83ff490923c6c6578706572696d656e74616cf564736f6c63430005110040",
			"opcodes": "PUSH1 0x80 PUSH1 0x40 MSTORE PUSH1 0x0 DUP1 SLOAD PUSH1 0x1 PUSH1 0x1 PUSH1 0xA0 SHL SUB NOT AND CALLER OR SWAP1 SSTORE PUSH2 0x32E4 DUP1 PUSH2 0x25 PUSH1 0x0 CODECOPY PUSH1 0x0 RETURN INVALID PUSH1 0x80 PUSH1 0x40 MSTORE CALLVALUE DUP1 ISZERO PUSH2 0x10 JUMPI PUSH1 0x0 DUP1 REVERT JUMPDEST POP PUSH1 0x4 CALLDATASIZE LT PUSH2 0x21C JUMPI PUSH1 0x0 CALLDATALOAD PUSH1 0xE0 SHR DUP1 PUSH4 0xA26171E2 GT PUSH2 0x125 JUMPI DUP1 PUSH4 0xE0822DB7 GT PUSH2 0xAD JUMPI DUP1 PUSH4 0xE907F003 GT PUSH2 0x7C JUMPI DUP1 PUSH4 0xE907F003 EQ PUSH2 0x44F JUMPI DUP1 PUSH4 0xEE99205C EQ PUSH2 0x462 JUMPI DUP1 PUSH4 0xF252B7A1 EQ PUSH2 0x46A JUMPI DUP1 PUSH4 0xF2FDE38B EQ PUSH2 0x47D JUMPI DUP1 PUSH4 0xFF691B11 EQ PUSH2 0x490 JUMPI PUSH2 0x21C JUMP JUMPDEST DUP1 PUSH4 0xE0822DB7 EQ PUSH2 0x424 JUMPI DUP1 PUSH4 0xE0EE036E EQ PUSH2 0x42C JUMPI DUP1 PUSH4 0xE804D0A4 EQ PUSH2 0x434 JUMPI DUP1 PUSH4 0xE8EEB3F8 EQ PUSH2 0x447 JUMPI PUSH2 0x21C JUMP JUMPDEST DUP1 PUSH4 0xB510879F GT PUSH2 0xF4 JUMPI DUP1 PUSH4 0xB510879F EQ PUSH2 0x3C3 JUMPI DUP1 PUSH4 0xB9181611 EQ PUSH2 0x3D6 JUMPI DUP1 PUSH4 0xBB7EF7E0 EQ PUSH2 0x3E9 JUMPI DUP1 PUSH4 0xC18C9141 EQ PUSH2 0x3FC JUMPI DUP1 PUSH4 0xD39DE6E9 EQ PUSH2 0x40F JUMPI PUSH2 0x21C JUMP JUMPDEST DUP1 PUSH4 0xA26171E2 EQ PUSH2 0x3A3 JUMPI DUP1 PUSH4 0xA657E579 EQ PUSH2 0x3AB JUMPI DUP1 PUSH4 0xB0531524 EQ PUSH2 0x3B3 JUMPI DUP1 PUSH4 0xB2BAA33E EQ PUSH2 0x3BB JUMPI PUSH2 0x21C JUMP JUMPDEST DUP1 PUSH4 0x587DA023 GT PUSH2 0x1A8 JUMPI DUP1 PUSH4 0x70712939 GT PUSH2 0x177 JUMPI DUP1 PUSH4 0x70712939 EQ PUSH2 0x358 JUMPI DUP1 PUSH4 0x76671808 EQ PUSH2 0x36B JUMPI DUP1 PUSH4 0x81666796 EQ PUSH2 0x373 JUMPI DUP1 PUSH4 0x8DA5CB5B EQ PUSH2 0x388 JUMPI DUP1 PUSH4 0x9AD26744 EQ PUSH2 0x390 JUMPI PUSH2 0x21C JUMP JUMPDEST DUP1 PUSH4 0x587DA023 EQ PUSH2 0x315 JUMPI DUP1 PUSH4 0x5BD4AB73 EQ PUSH2 0x31D JUMPI DUP1 PUSH4 0x5E30DEFF EQ PUSH2 0x33D JUMPI DUP1 PUSH4 0x63403801 EQ PUSH2 0x350 JUMPI PUSH2 0x21C JUMP JUMPDEST DUP1 PUSH4 0x3C277FC5 GT PUSH2 0x1EF JUMPI DUP1 PUSH4 0x3C277FC5 EQ PUSH2 0x298 JUMPI DUP1 PUSH4 0x3E4AD732 EQ PUSH2 0x2AD JUMPI DUP1 PUSH4 0x42F1181E EQ PUSH2 0x2CD JUMPI DUP1 PUSH4 0x44A6958B EQ PUSH2 0x2E2 JUMPI DUP1 PUSH4 0x494503D4 EQ PUSH2 0x2F5 JUMPI PUSH2 0x21C JUMP JUMPDEST DUP1 PUSH4 0xB9663DB EQ PUSH2 0x221 JUMPI DUP1 PUSH4 0x1E7FF8F6 EQ PUSH2 0x23F JUMPI DUP1 PUSH4 0x2A94C279 EQ PUSH2 0x252 JUMPI DUP1 PUSH4 0x38229D93 EQ PUSH2 0x274 JUMPI JUMPDEST PUSH1 0x0 DUP1 REVERT JUMPDEST PUSH2 0x229 PUSH2 0x4A3 JUMP JUMPDEST PUSH1 0x40 MLOAD PUSH2 0x236 SWAP2 SWAP1 PUSH2 0x3078 JUMP JUMPDEST PUSH1 0x40 MLOAD DUP1 SWAP2 SUB SWAP1 RETURN JUMPDEST PUSH2 0x229 PUSH2 0x24D CALLDATASIZE PUSH1 0x4 PUSH2 0x2D4B JUMP JUMPDEST PUSH2 0x5F5 JUMP JUMPDEST PUSH2 0x265 PUSH2 0x260 CALLDATASIZE PUSH1 0x4 PUSH2 0x2E3F JUMP JUMPDEST PUSH2 0x682 JUMP JUMPDEST PUSH1 0x40 MLOAD PUSH2 0x236 SWAP4 SWAP3 SWAP2 SWAP1 PUSH2 0x3114 JUMP JUMPDEST PUSH2 0x287 PUSH2 0x282 CALLDATASIZE PUSH1 0x4 PUSH2 0x2DF1 JUMP JUMPDEST PUSH2 0x6AE JUMP JUMPDEST PUSH1 0x40 MLOAD PUSH2 0x236 SWAP6 SWAP5 SWAP4 SWAP3 SWAP2 SWAP1 PUSH2 0x3157 JUMP JUMPDEST PUSH2 0x2A0 PUSH2 0x6DD JUMP JUMPDEST PUSH1 0x40 MLOAD PUSH2 0x236 SWAP2 SWAP1 PUSH2 0x3094 JUMP JUMPDEST PUSH2 0x2C0 PUSH2 0x2BB CALLDATASIZE PUSH1 0x4 PUSH2 0x2DF1 JUMP JUMPDEST PUSH2 0x6F5 JUMP JUMPDEST PUSH1 0x40 MLOAD PUSH2 0x236 SWAP2 SWAP1 PUSH2 0x3106 JUMP JUMPDEST PUSH2 0x2E0 PUSH2 0x2DB CALLDATASIZE PUSH1 0x4 PUSH2 0x2D4B JUMP JUMPDEST PUSH2 0x714 JUMP JUMPDEST STOP JUMPDEST PUSH2 0x2C0 PUSH2 0x2F0 CALLDATASIZE PUSH1 0x4 PUSH2 0x2DA3 JUMP JUMPDEST PUSH2 0x728 JUMP JUMPDEST PUSH2 0x308 PUSH2 0x303 CALLDATASIZE PUSH1 0x4 PUSH2 0x2DF1 JUMP JUMPDEST PUSH2 0x77A JUMP JUMPDEST PUSH1 0x40 MLOAD PUSH2 0x236 SWAP2 SWAP1 PUSH2 0x3015 JUMP JUMPDEST PUSH2 0x229 PUSH2 0x7A1 JUMP JUMPDEST PUSH2 0x330 PUSH2 0x32B CALLDATASIZE PUSH1 0x4 PUSH2 0x2D4B JUMP JUMPDEST PUSH2 0x7A7 JUMP JUMPDEST PUSH1 0x40 MLOAD PUSH2 0x236 SWAP2 SWAP1 PUSH2 0x306A JUMP JUMPDEST PUSH2 0x229 PUSH2 0x34B CALLDATASIZE PUSH1 0x4 PUSH2 0x2D4B JUMP JUMPDEST PUSH2 0x7BC JUMP JUMPDEST PUSH2 0x229 PUSH2 0x7CE JUMP JUMPDEST PUSH2 0x2E0 PUSH2 0x366 CALLDATASIZE PUSH1 0x4 PUSH2 0x2D4B JUMP JUMPDEST PUSH2 0x7D4 JUMP JUMPDEST PUSH2 0x229 PUSH2 0x862 JUMP JUMPDEST PUSH2 0x37B PUSH2 0x868 JUMP JUMPDEST PUSH1 0x40 MLOAD PUSH2 0x236 SWAP2 SWAP1 PUSH2 0x3199 JUMP JUMPDEST PUSH2 0x308 PUSH2 0x874 JUMP JUMPDEST PUSH2 0x2E0 PUSH2 0x39E CALLDATASIZE PUSH1 0x4 PUSH2 0x2D69 JUMP JUMPDEST PUSH2 0x883 JUMP JUMPDEST PUSH2 0x229 PUSH2 0x895 JUMP JUMPDEST PUSH2 0x229 PUSH2 0x89B JUMP JUMPDEST PUSH2 0x229 PUSH2 0x8A1 JUMP JUMPDEST PUSH2 0x229 PUSH2 0x8A7 JUMP JUMPDEST PUSH2 0x2E0 PUSH2 0x3D1 CALLDATASIZE PUSH1 0x4 PUSH2 0x2DF1 JUMP JUMPDEST PUSH2 0x8C5 JUMP JUMPDEST PUSH2 0x330 PUSH2 0x3E4 CALLDATASIZE PUSH1 0x4 PUSH2 0x2D4B JUMP JUMPDEST PUSH2 0x8CF JUMP JUMPDEST PUSH2 0x229 PUSH2 0x3F7 CALLDATASIZE PUSH1 0x4 PUSH2 0x2DF1 JUMP JUMPDEST PUSH2 0x8E4 JUMP JUMPDEST PUSH2 0x229 PUSH2 0x40A CALLDATASIZE PUSH1 0x4 PUSH2 0x2DF1 JUMP JUMPDEST PUSH2 0x951 JUMP JUMPDEST PUSH2 0x417 PUSH2 0x963 JUMP JUMPDEST PUSH1 0x40 MLOAD PUSH2 0x236 SWAP2 SWAP1 PUSH2 0x3059 JUMP JUMPDEST PUSH2 0x2A0 PUSH2 0x9C5 JUMP JUMPDEST PUSH2 0x37B PUSH2 0x9DD JUMP JUMPDEST PUSH2 0x2C0 PUSH2 0x442 CALLDATASIZE PUSH1 0x4 PUSH2 0x2E5E JUMP JUMPDEST PUSH2 0x9E9 JUMP JUMPDEST PUSH2 0x37B PUSH2 0xB1D JUMP JUMPDEST PUSH2 0x229 PUSH2 0x45D CALLDATASIZE PUSH1 0x4 PUSH2 0x2E0F JUMP JUMPDEST PUSH2 0xB31 JUMP JUMPDEST PUSH2 0x308 PUSH2 0xBB0 JUMP JUMPDEST PUSH2 0x2C0 PUSH2 0x478 CALLDATASIZE PUSH1 0x4 PUSH2 0x2D69 JUMP JUMPDEST PUSH2 0xBBF JUMP JUMPDEST PUSH2 0x2E0 PUSH2 0x48B CALLDATASIZE PUSH1 0x4 PUSH2 0x2D4B JUMP JUMPDEST PUSH2 0xBF3 JUMP JUMPDEST PUSH2 0x2E0 PUSH2 0x49E CALLDATASIZE PUSH1 0x4 PUSH2 0x2DF1 JUMP JUMPDEST PUSH2 0xC64 JUMP JUMPDEST PUSH1 0xD SLOAD PUSH1 0x0 SWAP1 DUP2 PUSH2 0x4BB DUP3 PUSH1 0x1 PUSH4 0xFFFFFFFF PUSH2 0xEC1 AND JUMP JUMPDEST PUSH1 0x0 DUP2 DUP2 MSTORE PUSH1 0x17 PUSH1 0x20 MSTORE PUSH1 0x40 SWAP1 KECCAK256 PUSH1 0x1 ADD SLOAD SWAP1 SWAP2 POP DUP1 ISZERO PUSH2 0x4E8 JUMPI PUSH2 0x4E8 PUSH2 0x4E3 DUP4 DUP4 PUSH2 0xEE0 JUMP JUMPDEST PUSH2 0xF37 JUMP JUMPDEST PUSH2 0x4F0 PUSH2 0xF3F JUMP JUMPDEST PUSH2 0x4F8 PUSH2 0xFA4 JUMP JUMPDEST PUSH1 0x0 DUP5 DUP2 MSTORE PUSH1 0x17 PUSH1 0x20 MSTORE PUSH1 0x40 SWAP1 KECCAK256 SSTORE PUSH2 0x50F PUSH2 0x2C31 JUMP JUMPDEST POP PUSH1 0x0 DUP4 DUP2 MSTORE PUSH1 0x17 PUSH1 0x20 SWAP1 DUP2 MSTORE PUSH1 0x40 SWAP2 DUP3 SWAP1 KECCAK256 DUP3 MLOAD PUSH1 0xA0 DUP2 ADD DUP5 MSTORE DUP2 SLOAD DUP1 DUP3 MSTORE PUSH1 0x1 DUP4 ADD SLOAD SWAP4 DUP3 ADD DUP5 SWAP1 MSTORE PUSH1 0x2 DUP4 ADD SLOAD DUP3 DUP7 ADD DUP2 SWAP1 MSTORE PUSH1 0x3 DUP5 ADD SLOAD PUSH1 0x60 DUP5 ADD DUP2 SWAP1 MSTORE PUSH1 0x4 SWAP1 SWAP5 ADD SLOAD PUSH1 0x80 DUP5 ADD MSTORE SWAP5 MLOAD SWAP2 SWAP5 DUP9 SWAP5 PUSH32 0xBB4A26FA0ACE13EE4DA343896C20EAA44A618FB9071FDD8C2E2C960A4583189D SWAP5 PUSH2 0x591 SWAP5 SWAP2 SWAP4 SWAP3 SWAP2 PUSH2 0x3122 JUMP JUMPDEST PUSH1 0x40 MLOAD DUP1 SWAP2 SUB SWAP1 LOG2 PUSH2 0x5A1 PUSH2 0x103B JUMP JUMPDEST PUSH1 0x20 DUP2 ADD MLOAD PUSH2 0x5E8 JUMPI DUP1 MLOAD PUSH1 0x40 MLOAD DUP6 SWAP2 PUSH32 0xB463D19ECF455BE65365092CF8E1DB6934A0334CF8CD532DDF9964D01F36B5B2 SWAP2 PUSH2 0x5DF SWAP2 PUSH1 0x0 SWAP2 PUSH2 0x30D8 JUMP JUMPDEST PUSH1 0x40 MLOAD DUP1 SWAP2 SUB SWAP1 LOG2 JUMPDEST PUSH1 0x20 ADD MLOAD SWAP4 POP POP POP POP JUMPDEST SWAP1 JUMP JUMPDEST PUSH1 0x0 PUSH2 0x5FF PUSH2 0x9C5 JUMP JUMPDEST PUSH1 0x1 PUSH1 0x1 PUSH1 0xA0 SHL SUB AND PUSH4 0x70A08231 DUP4 PUSH1 0x40 MLOAD DUP3 PUSH4 0xFFFFFFFF AND PUSH1 0xE0 SHL DUP2 MSTORE PUSH1 0x4 ADD PUSH2 0x62A SWAP2 SWAP1 PUSH2 0x3015 JUMP JUMPDEST PUSH1 0x20 PUSH1 0x40 MLOAD DUP1 DUP4 SUB DUP2 DUP7 DUP1 EXTCODESIZE ISZERO DUP1 ISZERO PUSH2 0x642 JUMPI PUSH1 0x0 DUP1 REVERT JUMPDEST POP GAS STATICCALL ISZERO DUP1 ISZERO PUSH2 0x656 JUMPI RETURNDATASIZE PUSH1 0x0 DUP1 RETURNDATACOPY RETURNDATASIZE PUSH1 0x0 REVERT JUMPDEST POP POP POP POP PUSH1 0x40 MLOAD RETURNDATASIZE PUSH1 0x1F NOT PUSH1 0x1F DUP3 ADD AND DUP3 ADD DUP1 PUSH1 0x40 MSTORE POP PUSH2 0x67A SWAP2 SWAP1 DUP2 ADD SWAP1 PUSH2 0x2E7C JUMP JUMPDEST SWAP1 POP JUMPDEST SWAP2 SWAP1 POP JUMP JUMPDEST PUSH1 0x16 PUSH1 0x20 SWAP1 DUP2 MSTORE PUSH1 0x0 SWAP3 DUP4 MSTORE PUSH1 0x40 DUP1 DUP5 KECCAK256 SWAP1 SWAP2 MSTORE SWAP1 DUP3 MSTORE SWAP1 KECCAK256 DUP1 SLOAD PUSH1 0x1 DUP3 ADD SLOAD PUSH1 0x2 SWAP1 SWAP3 ADD SLOAD SWAP1 SWAP2 SWAP1 DUP4 JUMP JUMPDEST PUSH1 0x17 PUSH1 0x20 MSTORE PUSH1 0x0 SWAP1 DUP2 MSTORE PUSH1 0x40 SWAP1 KECCAK256 DUP1 SLOAD PUSH1 0x1 DUP3 ADD SLOAD PUSH1 0x2 DUP4 ADD SLOAD PUSH1 0x3 DUP5 ADD SLOAD PUSH1 0x4 SWAP1 SWAP5 ADD SLOAD SWAP3 SWAP4 SWAP2 SWAP3 SWAP1 SWAP2 SWAP1 DUP6 JUMP JUMPDEST PUSH20 0xC02AAA39B223FE8D0A0E5C4F27EAD9083C756CC2 SWAP1 JUMP JUMPDEST PUSH2 0x6FD PUSH2 0x2C60 JUMP JUMPDEST PUSH1 0x0 DUP3 DUP2 MSTORE PUSH1 0x7 PUSH1 0x20 MSTORE PUSH1 0x40 SWAP1 KECCAK256 PUSH2 0x67A SWAP1 PUSH2 0x107E JUMP JUMPDEST PUSH2 0x71C PUSH2 0x1104 JUMP JUMPDEST PUSH2 0x725 DUP2 PUSH2 0x1133 JUMP JUMPDEST POP JUMP JUMPDEST PUSH2 0x730 PUSH2 0x2C60 JUMP JUMPDEST PUSH2 0x771 PUSH1 0x5 PUSH1 0x0 DUP5 PUSH1 0x1 DUP2 GT ISZERO PUSH2 0x743 JUMPI INVALID JUMPDEST PUSH1 0xFF AND DUP2 MSTORE PUSH1 0x20 DUP1 DUP3 ADD SWAP3 SWAP1 SWAP3 MSTORE PUSH1 0x40 SWAP1 DUP2 ADD PUSH1 0x0 SWAP1 DUP2 KECCAK256 PUSH1 0x1 PUSH1 0x1 PUSH1 0xA0 SHL SUB DUP9 AND DUP3 MSTORE SWAP1 SWAP3 MSTORE SWAP1 KECCAK256 PUSH2 0x107E JUMP JUMPDEST SWAP1 POP JUMPDEST SWAP3 SWAP2 POP POP JUMP JUMPDEST PUSH1 0x2 DUP2 DUP2 SLOAD DUP2 LT PUSH2 0x787 JUMPI INVALID JUMPDEST PUSH1 0x0 SWAP2 DUP3 MSTORE PUSH1 0x20 SWAP1 SWAP2 KECCAK256 ADD SLOAD PUSH1 0x1 PUSH1 0x1 PUSH1 0xA0 SHL SUB AND SWAP1 POP DUP2 JUMP JUMPDEST PUSH1 0xE SLOAD DUP2 JUMP JUMPDEST PUSH1 0x11 PUSH1 0x20 MSTORE PUSH1 0x0 SWAP1 DUP2 MSTORE PUSH1 0x40 SWAP1 KECCAK256 SLOAD PUSH1 0xFF AND DUP2 JUMP JUMPDEST PUSH1 0x9 PUSH1 0x20 MSTORE PUSH1 0x0 SWAP1 DUP2 MSTORE PUSH1 0x40 SWAP1 KECCAK256 SLOAD DUP2 JUMP JUMPDEST PUSH1 0x12 SLOAD DUP2 JUMP JUMPDEST PUSH2 0x7DC PUSH2 0x1104 JUMP JUMPDEST PUSH1 0x1 PUSH1 0x1 PUSH1 0xA0 SHL SUB DUP2 AND PUSH1 0x0 SWAP1 DUP2 MSTORE PUSH1 0x1 PUSH1 0x20 MSTORE PUSH1 0x40 SWAP1 KECCAK256 SLOAD PUSH1 0xFF AND PUSH2 0x808 JUMPI PUSH2 0x808 PUSH2 0x4E3 DUP3 PUSH2 0x1207 JUMP JUMPDEST PUSH1 0x0 JUMPDEST PUSH1 0x2 SLOAD DUP2 LT ISZERO PUSH2 0x85E JUMPI DUP2 PUSH1 0x1 PUSH1 0x1 PUSH1 0xA0 SHL SUB AND PUSH1 0x2 DUP3 DUP2 SLOAD DUP2 LT PUSH2 0x82C JUMPI INVALID JUMPDEST PUSH1 0x0 SWAP2 DUP3 MSTORE PUSH1 0x20 SWAP1 SWAP2 KECCAK256 ADD SLOAD PUSH1 0x1 PUSH1 0x1 PUSH1 0xA0 SHL SUB AND EQ ISZERO PUSH2 0x856 JUMPI PUSH2 0x851 DUP3 DUP3 PUSH2 0x125B JUMP JUMPDEST PUSH2 0x85E JUMP JUMPDEST PUSH1 0x1 ADD PUSH2 0x80B JUMP JUMPDEST POP POP JUMP JUMPDEST PUSH1 0xD SLOAD DUP2 JUMP JUMPDEST PUSH1 0x15 SLOAD PUSH4 0xFFFFFFFF AND DUP2 JUMP JUMPDEST PUSH1 0x0 SLOAD PUSH1 0x1 PUSH1 0x1 PUSH1 0xA0 SHL SUB AND DUP2 JUMP JUMPDEST PUSH2 0x88B PUSH2 0x1104 JUMP JUMPDEST PUSH2 0x85E DUP3 DUP3 PUSH2 0x125B JUMP JUMPDEST PUSH1 0x14 SLOAD DUP2 JUMP JUMPDEST PUSH1 0x8 SLOAD DUP2 JUMP JUMPDEST PUSH1 0x18 SLOAD DUP2 JUMP JUMPDEST PUSH1 0x0 PUSH2 0x8C0 PUSH1 0x12 SLOAD PUSH1 0xE SLOAD PUSH2 0x13D0 SWAP1 SWAP2 SWAP1 PUSH4 0xFFFFFFFF AND JUMP JUMPDEST SWAP1 POP SWAP1 JUMP JUMPDEST PUSH2 0x725 DUP2 CALLER PUSH2 0x13EC JUMP JUMPDEST PUSH1 0x1 PUSH1 0x20 MSTORE PUSH1 0x0 SWAP1 DUP2 MSTORE PUSH1 0x40 SWAP1 KECCAK256 SLOAD PUSH1 0xFF AND DUP2 JUMP JUMPDEST PUSH1 0x0 PUSH2 0x8EE PUSH2 0x2C80 JUMP JUMPDEST POP PUSH1 0x0 DUP3 DUP2 MSTORE PUSH1 0xB PUSH1 0x20 SWAP1 DUP2 MSTORE PUSH1 0x40 DUP1 DUP4 KECCAK256 DUP2 MLOAD DUP1 DUP4 ADD SWAP1 SWAP3 MSTORE SLOAD PUSH1 0x1 PUSH1 0x1 PUSH1 0xA0 SHL SUB DUP2 AND DUP3 MSTORE PUSH1 0x1 PUSH1 0xA0 SHL SWAP1 DIV PUSH4 0xFFFFFFFF AND SWAP2 DUP2 ADD SWAP2 SWAP1 SWAP2 MSTORE SWAP1 DUP1 PUSH2 0x934 DUP6 PUSH2 0x1565 JUMP JUMPDEST SWAP2 POP SWAP2 POP PUSH2 0x947 DUP4 PUSH1 0x20 ADD MLOAD DUP4 DUP4 PUSH2 0x1622 JUMP JUMPDEST POP SWAP6 SWAP5 POP POP POP POP POP JUMP JUMPDEST PUSH1 0xC PUSH1 0x20 MSTORE PUSH1 0x0 SWAP1 DUP2 MSTORE PUSH1 0x40 SWAP1 KECCAK256 SLOAD DUP2 JUMP JUMPDEST PUSH1 0x60 PUSH1 0x2 DUP1 SLOAD DUP1 PUSH1 0x20 MUL PUSH1 0x20 ADD PUSH1 0x40 MLOAD SWAP1 DUP2 ADD PUSH1 0x40 MSTORE DUP1 SWAP3 SWAP2 SWAP1 DUP2 DUP2 MSTORE PUSH1 0x20 ADD DUP3 DUP1 SLOAD DUP1 ISZERO PUSH2 0x9BB JUMPI PUSH1 0x20 MUL DUP3 ADD SWAP2 SWAP1 PUSH1 0x0 MSTORE PUSH1 0x20 PUSH1 0x0 KECCAK256 SWAP1 JUMPDEST DUP2 SLOAD PUSH1 0x1 PUSH1 0x1 PUSH1 0xA0 SHL SUB AND DUP2 MSTORE PUSH1 0x1 SWAP1 SWAP2 ADD SWAP1 PUSH1 0x20 ADD DUP1 DUP4 GT PUSH2 0x99D JUMPI JUMPDEST POP POP POP POP POP SWAP1 POP SWAP1 JUMP JUMPDEST PUSH20 0xBA7F8B5FB1B19C1211C5D49550FCD149177A5EAF SWAP1 JUMP JUMPDEST PUSH1 0x13 SLOAD PUSH4 0xFFFFFFFF AND DUP2 JUMP JUMPDEST PUSH2 0x9F1 PUSH2 0x2C60 JUMP JUMPDEST PUSH1 0x1 PUSH1 0x0 MSTORE PUSH1 0x4 PUSH1 0x20 MSTORE PUSH2 0xA24 PUSH32 0xABD6E7CB50984FF9C2F3E18A2660C3353DADF4E3291DEEB275DAE2CD1E44FE05 PUSH2 0x107E JUMP JUMPDEST SWAP1 POP PUSH1 0x0 DUP3 PUSH1 0x1 DUP2 GT ISZERO PUSH2 0xA34 JUMPI INVALID JUMPDEST EQ ISZERO PUSH2 0x67D JUMPI PUSH1 0x0 PUSH2 0xA44 PUSH2 0x9C5 JUMP JUMPDEST PUSH1 0x1 PUSH1 0x1 PUSH1 0xA0 SHL SUB AND PUSH4 0x6B6DF5AA PUSH1 0x40 MLOAD DUP2 PUSH4 0xFFFFFFFF AND PUSH1 0xE0 SHL DUP2 MSTORE PUSH1 0x4 ADD PUSH1 0x20 PUSH1 0x40 MLOAD DUP1 DUP4 SUB DUP2 DUP7 DUP1 EXTCODESIZE ISZERO DUP1 ISZERO PUSH2 0xA7C JUMPI PUSH1 0x0 DUP1 REVERT JUMPDEST POP GAS STATICCALL ISZERO DUP1 ISZERO PUSH2 0xA90 JUMPI RETURNDATASIZE PUSH1 0x0 DUP1 RETURNDATACOPY RETURNDATASIZE PUSH1 0x0 REVERT JUMPDEST POP POP POP POP PUSH1 0x40 MLOAD RETURNDATASIZE PUSH1 0x1F NOT PUSH1 0x1F DUP3 ADD AND DUP3 ADD DUP1 PUSH1 0x40 MSTORE POP PUSH2 0xAB4 SWAP2 SWAP1 DUP2 ADD SWAP1 PUSH2 0x2E7C JUMP JUMPDEST SWAP1 POP PUSH2 0xADE PUSH2 0xAD9 DUP4 PUSH1 0x20 ADD MLOAD PUSH1 0x1 PUSH1 0x1 PUSH1 0x60 SHL SUB AND DUP4 PUSH2 0xEC1 SWAP1 SWAP2 SWAP1 PUSH4 0xFFFFFFFF AND JUMP JUMPDEST PUSH2 0x1663 JUMP JUMPDEST PUSH1 0x1 PUSH1 0x1 PUSH1 0x60 SHL SUB SWAP1 DUP2 AND PUSH1 0x20 DUP5 ADD MSTORE PUSH1 0x40 DUP4 ADD MLOAD PUSH2 0xB09 SWAP2 PUSH2 0xAD9 SWAP2 DUP5 SWAP2 AND PUSH4 0xFFFFFFFF PUSH2 0xEC1 AND JUMP JUMPDEST PUSH1 0x1 PUSH1 0x1 PUSH1 0x60 SHL SUB AND PUSH1 0x40 DUP4 ADD MSTORE POP SWAP2 SWAP1 POP JUMP JUMPDEST PUSH1 0x15 SLOAD PUSH5 0x100000000 SWAP1 DIV PUSH4 0xFFFFFFFF AND DUP2 JUMP JUMPDEST PUSH1 0x0 PUSH2 0xB3B PUSH2 0x2C80 JUMP JUMPDEST POP PUSH1 0x0 DUP4 DUP2 MSTORE PUSH1 0xB PUSH1 0x20 SWAP1 DUP2 MSTORE PUSH1 0x40 DUP1 DUP4 KECCAK256 DUP2 MLOAD DUP1 DUP4 ADD SWAP1 SWAP3 MSTORE SLOAD PUSH1 0x1 PUSH1 0x1 PUSH1 0xA0 SHL SUB DUP2 AND DUP3 MSTORE PUSH1 0x1 PUSH1 0xA0 SHL SWAP1 DIV PUSH4 0xFFFFFFFF AND SWAP2 DUP2 ADD SWAP2 SWAP1 SWAP2 MSTORE SWAP1 DUP1 PUSH2 0xB81 DUP7 PUSH2 0x1565 JUMP JUMPDEST SWAP2 POP SWAP2 POP PUSH1 0x0 PUSH2 0xB96 DUP5 PUSH1 0x20 ADD MLOAD DUP5 DUP5 PUSH2 0x1622 JUMP JUMPDEST SWAP2 POP POP PUSH2 0xBA5 DUP8 DUP8 DUP4 DUP6 PUSH2 0x1682 JUMP JUMPDEST SWAP8 SWAP7 POP POP POP POP POP POP POP JUMP JUMPDEST PUSH1 0x3 SLOAD PUSH1 0x1 PUSH1 0x1 PUSH1 0xA0 SHL SUB AND DUP2 JUMP JUMPDEST PUSH2 0xBC7 PUSH2 0x2C60 JUMP JUMPDEST PUSH1 0x1 PUSH1 0x1 PUSH1 0xA0 SHL SUB DUP4 AND PUSH1 0x0 SWAP1 DUP2 MSTORE PUSH1 0x6 PUSH1 0x20 SWAP1 DUP2 MSTORE PUSH1 0x40 DUP1 DUP4 KECCAK256 DUP6 DUP5 MSTORE SWAP1 SWAP2 MSTORE SWAP1 KECCAK256 PUSH2 0x771 SWAP1 PUSH2 0x107E JUMP JUMPDEST PUSH2 0xBFB PUSH2 0x1104 JUMP JUMPDEST PUSH1 0x1 PUSH1 0x1 PUSH1 0xA0 SHL SUB DUP2 AND PUSH2 0xC19 JUMPI PUSH2 0xC14 PUSH2 0x4E3 PUSH2 0x179D JUMP JUMPDEST PUSH2 0x725 JUMP JUMPDEST PUSH1 0x0 DUP1 SLOAD PUSH1 0x1 PUSH1 0x1 PUSH1 0xA0 SHL SUB NOT AND PUSH1 0x1 PUSH1 0x1 PUSH1 0xA0 SHL SUB DUP4 AND SWAP1 DUP2 OR DUP3 SSTORE PUSH1 0x40 MLOAD SWAP1 SWAP2 CALLER SWAP2 PUSH32 0x8BE0079C531659141344CD1FD0A4F28419497F9722A3DAAFE3B4186F6B6457E0 SWAP2 SWAP1 LOG3 POP JUMP JUMPDEST PUSH2 0xC6D CALLER PUSH2 0x17BB JUMP JUMPDEST ISZERO PUSH2 0xC93 JUMPI PUSH1 0x40 MLOAD PUSH3 0x461BCD PUSH1 0xE5 SHL DUP2 MSTORE PUSH1 0x4 ADD PUSH2 0xC8A SWAP1 PUSH2 0x30E6 JUMP JUMPDEST PUSH1 0x40 MLOAD DUP1 SWAP2 SUB SWAP1 REVERT JUMPDEST PUSH1 0xD SLOAD PUSH1 0x0 PUSH2 0xCA9 DUP3 PUSH1 0x1 PUSH4 0xFFFFFFFF PUSH2 0xEC1 AND JUMP JUMPDEST SWAP1 POP PUSH2 0xCB3 PUSH2 0x2C31 JUMP JUMPDEST POP PUSH1 0x0 DUP2 DUP2 MSTORE PUSH1 0x17 PUSH1 0x20 SWAP1 DUP2 MSTORE PUSH1 0x40 SWAP2 DUP3 SWAP1 KECCAK256 DUP3 MLOAD PUSH1 0xA0 DUP2 ADD DUP5 MSTORE DUP2 SLOAD DUP2 MSTORE PUSH1 0x1 DUP3 ADD SLOAD SWAP3 DUP2 ADD DUP4 SWAP1 MSTORE PUSH1 0x2 DUP3 ADD SLOAD SWAP4 DUP2 ADD SWAP4 SWAP1 SWAP4 MSTORE PUSH1 0x3 DUP2 ADD SLOAD PUSH1 0x60 DUP5 ADD MSTORE PUSH1 0x4 ADD SLOAD PUSH1 0x80 DUP4 ADD MSTORE PUSH2 0xD08 JUMPI POP POP POP PUSH2 0x725 JUMP JUMPDEST PUSH2 0xD10 PUSH2 0x2C97 JUMP JUMPDEST POP PUSH1 0x0 DUP5 DUP2 MSTORE PUSH1 0x16 PUSH1 0x20 SWAP1 DUP2 MSTORE PUSH1 0x40 DUP1 DUP4 KECCAK256 DUP6 DUP5 MSTORE DUP3 MSTORE SWAP2 DUP3 SWAP1 KECCAK256 DUP3 MLOAD PUSH1 0x60 DUP2 ADD DUP5 MSTORE DUP2 SLOAD DUP1 DUP3 MSTORE PUSH1 0x1 DUP4 ADD SLOAD SWAP4 DUP3 ADD SWAP4 SWAP1 SWAP4 MSTORE PUSH1 0x2 SWAP1 SWAP2 ADD SLOAD SWAP3 DUP2 ADD SWAP3 SWAP1 SWAP3 MSTORE PUSH2 0xD5E JUMPI POP POP POP POP PUSH2 0x725 JUMP JUMPDEST PUSH1 0x0 DUP6 DUP2 MSTORE PUSH1 0x16 PUSH1 0x20 SWAP1 DUP2 MSTORE PUSH1 0x40 DUP1 DUP4 KECCAK256 DUP7 DUP5 MSTORE SWAP1 SWAP2 MSTORE DUP2 KECCAK256 DUP2 DUP2 SSTORE PUSH1 0x1 DUP2 ADD DUP3 SWAP1 SSTORE PUSH1 0x2 ADD DUP2 SWAP1 SSTORE PUSH2 0xD91 DUP3 DUP5 PUSH2 0x17C1 JUMP JUMPDEST SWAP1 POP PUSH1 0x0 DUP1 PUSH2 0xDA5 DUP9 DUP5 DUP7 PUSH1 0x40 ADD MLOAD PUSH2 0x1836 JUMP JUMPDEST SWAP2 POP SWAP2 POP DUP8 DUP8 PUSH32 0xF1116B309178AA62DCB6BF8C3B8BC2321724907C7EBF52192D14C8CE3AA9194C DUP5 DUP5 PUSH1 0x40 MLOAD PUSH2 0xDDC SWAP3 SWAP2 SWAP1 PUSH2 0x3086 JUMP JUMPDEST PUSH1 0x40 MLOAD DUP1 SWAP2 SUB SWAP1 LOG3 PUSH1 0x0 PUSH2 0xDF6 DUP4 DUP4 PUSH4 0xFFFFFFFF PUSH2 0x13D0 AND JUMP JUMPDEST PUSH1 0x80 DUP8 ADD MLOAD SWAP1 SWAP2 POP PUSH2 0xE0E SWAP1 DUP3 PUSH4 0xFFFFFFFF PUSH2 0x13D0 AND JUMP JUMPDEST PUSH1 0x80 DUP8 ADD DUP2 SWAP1 MSTORE PUSH1 0x0 DUP9 DUP2 MSTORE PUSH1 0x17 PUSH1 0x20 SWAP1 DUP2 MSTORE PUSH1 0x40 SWAP1 SWAP2 KECCAK256 PUSH1 0x4 ADD SWAP2 SWAP1 SWAP2 SSTORE DUP7 ADD MLOAD PUSH2 0xE41 SWAP1 PUSH1 0x1 PUSH4 0xFFFFFFFF PUSH2 0xEC1 AND JUMP JUMPDEST PUSH1 0x20 DUP1 DUP9 ADD DUP3 DUP2 MSTORE PUSH1 0x0 DUP11 DUP2 MSTORE PUSH1 0x17 SWAP1 SWAP3 MSTORE PUSH1 0x40 SWAP1 SWAP2 KECCAK256 PUSH1 0x1 ADD SWAP2 SWAP1 SWAP2 SSTORE MLOAD PUSH2 0xEB6 JUMPI PUSH1 0x80 DUP7 ADD MLOAD DUP7 MLOAD DUP9 SWAP2 PUSH32 0xB463D19ECF455BE65365092CF8E1DB6934A0334CF8CD532DDF9964D01F36B5B2 SWAP2 PUSH2 0xE9F SWAP1 DUP3 PUSH4 0xFFFFFFFF PUSH2 0xEC1 AND JUMP JUMPDEST PUSH1 0x40 MLOAD PUSH2 0xEAD SWAP3 SWAP2 SWAP1 PUSH2 0x3086 JUMP JUMPDEST PUSH1 0x40 MLOAD DUP1 SWAP2 SUB SWAP1 LOG2 JUMPDEST POP POP POP POP POP POP POP POP POP JUMP JUMPDEST PUSH1 0x0 DUP3 DUP3 GT ISZERO PUSH2 0xEDA JUMPI PUSH2 0xEDA PUSH2 0x4E3 PUSH1 0x2 DUP6 DUP6 PUSH2 0x1942 JUMP JUMPDEST POP SWAP1 SUB SWAP1 JUMP JUMPDEST PUSH1 0x60 PUSH4 0x614B800A PUSH1 0xE0 SHL DUP4 DUP4 PUSH1 0x40 MLOAD PUSH1 0x24 ADD PUSH2 0xEFD SWAP3 SWAP2 SWAP1 PUSH2 0x3086 JUMP JUMPDEST PUSH1 0x40 DUP1 MLOAD PUSH1 0x1F NOT DUP2 DUP5 SUB ADD DUP2 MSTORE SWAP2 SWAP1 MSTORE PUSH1 0x20 DUP2 ADD DUP1 MLOAD PUSH1 0x1 PUSH1 0x1 PUSH1 0xE0 SHL SUB AND PUSH1 0x1 PUSH1 0x1 PUSH1 0xE0 SHL SUB NOT SWAP1 SWAP4 AND SWAP3 SWAP1 SWAP3 OR SWAP1 SWAP2 MSTORE SWAP1 POP SWAP3 SWAP2 POP POP JUMP JUMPDEST DUP1 MLOAD PUSH1 0x20 DUP3 ADD REVERT JUMPDEST SELFBALANCE DUP1 ISZERO PUSH2 0x725 JUMPI PUSH2 0xF4E PUSH2 0x6DD JUMP JUMPDEST PUSH1 0x1 PUSH1 0x1 PUSH1 0xA0 SHL SUB AND PUSH4 0xD0E30DB0 DUP3 PUSH1 0x40 MLOAD DUP3 PUSH4 0xFFFFFFFF AND PUSH1 0xE0 SHL DUP2 MSTORE PUSH1 0x4 ADD PUSH1 0x0 PUSH1 0x40 MLOAD DUP1 DUP4 SUB DUP2 DUP6 DUP9 DUP1 EXTCODESIZE ISZERO DUP1 ISZERO PUSH2 0xF88 JUMPI PUSH1 0x0 DUP1 REVERT JUMPDEST POP GAS CALL ISZERO DUP1 ISZERO PUSH2 0xF9C JUMPI RETURNDATASIZE PUSH1 0x0 DUP1 RETURNDATACOPY RETURNDATASIZE PUSH1 0x0 REVERT JUMPDEST POP POP POP POP POP POP JUMP JUMPDEST PUSH1 0x0 PUSH2 0x8C0 PUSH1 0x18 SLOAD PUSH2 0xFB4 PUSH2 0x6DD JUMP JUMPDEST PUSH1 0x1 PUSH1 0x1 PUSH1 0xA0 SHL SUB AND PUSH4 0x70A08231 ADDRESS PUSH1 0x40 MLOAD DUP3 PUSH4 0xFFFFFFFF AND PUSH1 0xE0 SHL DUP2 MSTORE PUSH1 0x4 ADD PUSH2 0xFDF SWAP2 SWAP1 PUSH2 0x3015 JUMP JUMPDEST PUSH1 0x20 PUSH1 0x40 MLOAD DUP1 DUP4 SUB DUP2 DUP7 DUP1 EXTCODESIZE ISZERO DUP1 ISZERO PUSH2 0xFF7 JUMPI PUSH1 0x0 DUP1 REVERT JUMPDEST POP GAS STATICCALL ISZERO DUP1 ISZERO PUSH2 0x100B JUMPI RETURNDATASIZE PUSH1 0x0 DUP1 RETURNDATACOPY RETURNDATASIZE PUSH1 0x0 REVERT JUMPDEST POP POP POP POP PUSH1 0x40 MLOAD RETURNDATASIZE PUSH1 0x1F NOT PUSH1 0x1F DUP3 ADD AND DUP3 ADD DUP1 PUSH1 0x40 MSTORE POP PUSH2 0x102F SWAP2 SWAP1 DUP2 ADD SWAP1 PUSH2 0x2E7C JUMP JUMPDEST SWAP1 PUSH4 0xFFFFFFFF PUSH2 0xEC1 AND JUMP JUMPDEST TIMESTAMP PUSH1 0x0 PUSH2 0x1046 PUSH2 0x8A7 JUMP JUMPDEST SWAP1 POP DUP2 DUP2 GT ISZERO PUSH2 0x105D JUMPI PUSH2 0x105D PUSH2 0x4E3 DUP3 DUP5 PUSH2 0x199D JUMP JUMPDEST PUSH1 0xD SLOAD PUSH1 0x0 SWAP1 PUSH2 0x1074 SWAP1 PUSH1 0x1 PUSH4 0xFFFFFFFF PUSH2 0x13D0 AND JUMP JUMPDEST PUSH1 0xD SSTORE POP POP PUSH1 0xE SSTORE JUMP JUMPDEST PUSH2 0x1086 PUSH2 0x2C60 JUMP JUMPDEST POP PUSH1 0x40 DUP1 MLOAD PUSH1 0x60 DUP2 ADD DUP3 MSTORE DUP3 SLOAD PUSH8 0xFFFFFFFFFFFFFFFF DUP2 AND DUP1 DUP4 MSTORE PUSH1 0x1 PUSH1 0x1 PUSH1 0x60 SHL SUB PUSH1 0x1 PUSH1 0x40 SHL DUP4 DIV DUP2 AND PUSH1 0x20 DUP6 ADD MSTORE PUSH1 0x1 PUSH1 0xA0 SHL SWAP1 SWAP3 DIV SWAP1 SWAP2 AND SWAP3 DUP3 ADD SWAP3 SWAP1 SWAP3 MSTORE PUSH1 0xD SLOAD SWAP1 SWAP2 DUP2 GT ISZERO PUSH2 0x10FE JUMPI PUSH2 0x10DE DUP2 PUSH2 0x19BA JUMP JUMPDEST PUSH8 0xFFFFFFFFFFFFFFFF AND DUP3 MSTORE PUSH1 0x40 DUP3 ADD MLOAD PUSH1 0x1 PUSH1 0x1 PUSH1 0x60 SHL SUB AND PUSH1 0x20 DUP4 ADD MSTORE JUMPDEST POP SWAP2 SWAP1 POP JUMP JUMPDEST PUSH1 0x0 SLOAD PUSH1 0x1 PUSH1 0x1 PUSH1 0xA0 SHL SUB AND CALLER EQ PUSH2 0x1131 JUMPI PUSH1 0x0 SLOAD PUSH2 0x1131 SWAP1 PUSH2 0x4E3 SWAP1 CALLER SWAP1 PUSH1 0x1 PUSH1 0x1 PUSH1 0xA0 SHL SUB AND PUSH2 0x19DA JUMP JUMPDEST JUMP JUMPDEST PUSH1 0x1 PUSH1 0x1 PUSH1 0xA0 SHL SUB DUP2 AND PUSH2 0x114C JUMPI PUSH2 0x114C PUSH2 0x4E3 PUSH2 0x19F7 JUMP JUMPDEST PUSH1 0x1 PUSH1 0x1 PUSH1 0xA0 SHL SUB DUP2 AND PUSH1 0x0 SWAP1 DUP2 MSTORE PUSH1 0x1 PUSH1 0x20 MSTORE PUSH1 0x40 SWAP1 KECCAK256 SLOAD PUSH1 0xFF AND ISZERO PUSH2 0x1179 JUMPI PUSH2 0x1179 PUSH2 0x4E3 DUP3 PUSH2 0x1A15 JUMP JUMPDEST PUSH1 0x1 PUSH1 0x1 PUSH1 0xA0 SHL SUB DUP2 AND PUSH1 0x0 DUP2 DUP2 MSTORE PUSH1 0x1 PUSH1 0x20 DUP2 SWAP1 MSTORE PUSH1 0x40 DUP1 DUP4 KECCAK256 DUP1 SLOAD PUSH1 0xFF NOT AND DUP4 OR SWAP1 SSTORE PUSH1 0x2 DUP1 SLOAD SWAP3 DUP4 ADD DUP2 SSTORE DUP4 MSTORE PUSH32 0x405787FA12A823E0F2B7631CC41B3BA8828B3321CA811111FA75CD3AA3BB5ACE SWAP1 SWAP2 ADD DUP1 SLOAD PUSH1 0x1 PUSH1 0x1 PUSH1 0xA0 SHL SUB NOT AND DUP5 OR SWAP1 SSTORE MLOAD CALLER SWAP3 SWAP2 PUSH32 0x3147867C59D17E8FA9D522465651D44AAE0A9E38F902F3475B97E58072F0ED4C SWAP2 LOG3 POP JUMP JUMPDEST PUSH1 0x60 PUSH4 0xEB5108A2 PUSH1 0xE0 SHL DUP3 PUSH1 0x40 MLOAD PUSH1 0x24 ADD PUSH2 0x1222 SWAP2 SWAP1 PUSH2 0x3015 JUMP JUMPDEST PUSH1 0x40 DUP1 MLOAD PUSH1 0x1F NOT DUP2 DUP5 SUB ADD DUP2 MSTORE SWAP2 SWAP1 MSTORE PUSH1 0x20 DUP2 ADD DUP1 MLOAD PUSH1 0x1 PUSH1 0x1 PUSH1 0xE0 SHL SUB AND PUSH1 0x1 PUSH1 0x1 PUSH1 0xE0 SHL SUB NOT SWAP1 SWAP4 AND SWAP3 SWAP1 SWAP3 OR SWAP1 SWAP2 MSTORE SWAP1 POP SWAP2 SWAP1 POP JUMP JUMPDEST PUSH1 0x1 PUSH1 0x1 PUSH1 0xA0 SHL SUB DUP3 AND PUSH1 0x0 SWAP1 DUP2 MSTORE PUSH1 0x1 PUSH1 0x20 MSTORE PUSH1 0x40 SWAP1 KECCAK256 SLOAD PUSH1 0xFF AND PUSH2 0x1287 JUMPI PUSH2 0x1287 PUSH2 0x4E3 DUP4 PUSH2 0x1207 JUMP JUMPDEST PUSH1 0x2 SLOAD DUP2 LT PUSH2 0x12A2 JUMPI PUSH2 0x12A2 PUSH2 0x4E3 DUP3 PUSH1 0x2 DUP1 SLOAD SWAP1 POP PUSH2 0x1A30 JUMP JUMPDEST DUP2 PUSH1 0x1 PUSH1 0x1 PUSH1 0xA0 SHL SUB AND PUSH1 0x2 DUP3 DUP2 SLOAD DUP2 LT PUSH2 0x12B9 JUMPI INVALID JUMPDEST PUSH1 0x0 SWAP2 DUP3 MSTORE PUSH1 0x20 SWAP1 SWAP2 KECCAK256 ADD SLOAD PUSH1 0x1 PUSH1 0x1 PUSH1 0xA0 SHL SUB AND EQ PUSH2 0x1301 JUMPI PUSH2 0x1301 PUSH2 0x4E3 PUSH1 0x2 DUP4 DUP2 SLOAD DUP2 LT PUSH2 0x12E6 JUMPI INVALID JUMPDEST PUSH1 0x0 SWAP2 DUP3 MSTORE PUSH1 0x20 SWAP1 SWAP2 KECCAK256 ADD SLOAD PUSH1 0x1 PUSH1 0x1 PUSH1 0xA0 SHL SUB AND DUP5 PUSH2 0x1A4D JUMP JUMPDEST PUSH1 0x1 PUSH1 0x1 PUSH1 0xA0 SHL SUB DUP3 AND PUSH1 0x0 SWAP1 DUP2 MSTORE PUSH1 0x1 PUSH1 0x20 MSTORE PUSH1 0x40 SWAP1 KECCAK256 DUP1 SLOAD PUSH1 0xFF NOT AND SWAP1 SSTORE PUSH1 0x2 DUP1 SLOAD PUSH1 0x0 NOT DUP2 ADD SWAP1 DUP2 LT PUSH2 0x1333 JUMPI INVALID JUMPDEST PUSH1 0x0 SWAP2 DUP3 MSTORE PUSH1 0x20 SWAP1 SWAP2 KECCAK256 ADD SLOAD PUSH1 0x2 DUP1 SLOAD PUSH1 0x1 PUSH1 0x1 PUSH1 0xA0 SHL SUB SWAP1 SWAP3 AND SWAP2 DUP4 SWAP1 DUP2 LT PUSH2 0x1359 JUMPI INVALID JUMPDEST PUSH1 0x0 SWAP2 DUP3 MSTORE PUSH1 0x20 SWAP1 SWAP2 KECCAK256 ADD DUP1 SLOAD PUSH1 0x1 PUSH1 0x1 PUSH1 0xA0 SHL SUB NOT AND PUSH1 0x1 PUSH1 0x1 PUSH1 0xA0 SHL SUB SWAP3 SWAP1 SWAP3 AND SWAP2 SWAP1 SWAP2 OR SWAP1 SSTORE PUSH1 0x2 DUP1 SLOAD PUSH1 0x0 NOT ADD SWAP1 PUSH2 0x1395 SWAP1 DUP3 PUSH2 0x2CB8 JUMP JUMPDEST POP PUSH1 0x40 MLOAD CALLER SWAP1 PUSH1 0x1 PUSH1 0x1 PUSH1 0xA0 SHL SUB DUP5 AND SWAP1 PUSH32 0x1F32C1B084E2DE0713B8FB16BD46BB9DF710A3DBEAE2F3CA93AF46E016DCC6B0 SWAP1 PUSH1 0x0 SWAP1 LOG3 POP POP JUMP JUMPDEST PUSH1 0x0 DUP3 DUP3 ADD DUP4 DUP2 LT ISZERO PUSH2 0x771 JUMPI PUSH2 0x771 PUSH2 0x4E3 PUSH1 0x0 DUP7 DUP7 PUSH2 0x1942 JUMP JUMPDEST PUSH2 0x13F5 DUP3 PUSH2 0x1A6A JUMP JUMPDEST PUSH1 0x0 PUSH2 0x1404 DUP4 DUP4 PUSH1 0x0 DUP1 PUSH2 0x1682 JUMP JUMPDEST PUSH1 0x1 PUSH1 0x1 PUSH1 0xA0 SHL SUB DUP4 AND PUSH1 0x0 SWAP1 DUP2 MSTORE PUSH1 0x6 PUSH1 0x20 SWAP1 DUP2 MSTORE PUSH1 0x40 DUP1 DUP4 KECCAK256 DUP8 DUP5 MSTORE SWAP1 SWAP2 MSTORE SWAP1 KECCAK256 SWAP1 SWAP2 POP PUSH2 0x1433 SWAP1 PUSH2 0x107E JUMP JUMPDEST PUSH1 0x1 PUSH1 0x1 PUSH1 0xA0 SHL SUB DUP4 DUP2 AND PUSH1 0x0 SWAP1 DUP2 MSTORE PUSH1 0x6 PUSH1 0x20 SWAP1 DUP2 MSTORE PUSH1 0x40 DUP1 DUP4 KECCAK256 DUP9 DUP5 MSTORE DUP3 MSTORE SWAP2 DUP3 SWAP1 KECCAK256 DUP5 MLOAD DUP2 SLOAD SWAP3 DUP7 ADD MLOAD SWAP6 SWAP1 SWAP4 ADD MLOAD PUSH8 0xFFFFFFFFFFFFFFFF NOT SWAP1 SWAP3 AND PUSH8 0xFFFFFFFFFFFFFFFF SWAP1 SWAP4 AND SWAP3 SWAP1 SWAP3 OR PUSH20 0xFFFFFFFFFFFFFFFFFFFFFFFF0000000000000000 NOT AND PUSH1 0x1 PUSH1 0x40 SHL PUSH1 0x1 PUSH1 0x1 PUSH1 0x60 SHL SUB SWAP6 DUP7 AND MUL OR SWAP1 SWAP3 AND PUSH1 0x1 PUSH1 0xA0 SHL SWAP4 SWAP1 SWAP3 AND SWAP3 SWAP1 SWAP3 MUL OR SWAP1 SSTORE DUP1 ISZERO PUSH2 0x1557 JUMPI PUSH2 0x14CE DUP4 DUP3 PUSH2 0x1ADE JUMP JUMPDEST PUSH2 0x14D6 PUSH2 0x6DD JUMP JUMPDEST PUSH1 0x1 PUSH1 0x1 PUSH1 0xA0 SHL SUB AND PUSH4 0xA9059CBB DUP4 DUP4 PUSH1 0x40 MLOAD DUP4 PUSH4 0xFFFFFFFF AND PUSH1 0xE0 SHL DUP2 MSTORE PUSH1 0x4 ADD PUSH2 0x1503 SWAP3 SWAP2 SWAP1 PUSH2 0x303E JUMP JUMPDEST PUSH1 0x20 PUSH1 0x40 MLOAD DUP1 DUP4 SUB DUP2 PUSH1 0x0 DUP8 DUP1 EXTCODESIZE ISZERO DUP1 ISZERO PUSH2 0x151D JUMPI PUSH1 0x0 DUP1 REVERT JUMPDEST POP GAS CALL ISZERO DUP1 ISZERO PUSH2 0x1531 JUMPI RETURNDATASIZE PUSH1 0x0 DUP1 RETURNDATACOPY RETURNDATASIZE PUSH1 0x0 REVERT JUMPDEST POP POP POP POP PUSH1 0x40 MLOAD RETURNDATASIZE PUSH1 0x1F NOT PUSH1 0x1F DUP3 ADD AND DUP3 ADD DUP1 PUSH1 0x40 MSTORE POP PUSH2 0x1555 SWAP2 SWAP1 DUP2 ADD SWAP1 PUSH2 0x2DD3 JUMP JUMPDEST POP JUMPDEST PUSH2 0x1560 DUP4 PUSH2 0x1B26 JUMP JUMPDEST POP POP POP JUMP JUMPDEST PUSH1 0x0 DUP1 PUSH1 0x0 PUSH2 0x1580 PUSH1 0x1 PUSH1 0xD SLOAD PUSH2 0xEC1 SWAP1 SWAP2 SWAP1 PUSH4 0xFFFFFFFF AND JUMP JUMPDEST SWAP1 POP PUSH2 0x158A PUSH2 0x2C97 JUMP JUMPDEST POP PUSH1 0x0 DUP5 DUP2 MSTORE PUSH1 0x16 PUSH1 0x20 SWAP1 DUP2 MSTORE PUSH1 0x40 DUP1 DUP4 KECCAK256 DUP5 DUP5 MSTORE DUP3 MSTORE DUP1 DUP4 KECCAK256 DUP2 MLOAD PUSH1 0x60 DUP1 DUP3 ADD DUP5 MSTORE DUP3 SLOAD DUP3 MSTORE PUSH1 0x1 DUP1 DUP5 ADD SLOAD DUP4 DUP8 ADD MSTORE PUSH1 0x2 SWAP4 DUP5 ADD SLOAD DUP4 DUP7 ADD MSTORE DUP8 DUP8 MSTORE PUSH1 0x17 DUP7 MSTORE SWAP6 DUP5 SWAP1 KECCAK256 DUP5 MLOAD PUSH1 0xA0 DUP2 ADD DUP7 MSTORE DUP2 SLOAD DUP2 MSTORE SWAP7 DUP2 ADD SLOAD SWAP6 DUP8 ADD SWAP6 SWAP1 SWAP6 MSTORE SWAP2 DUP5 ADD SLOAD SWAP3 DUP6 ADD SWAP3 SWAP1 SWAP3 MSTORE PUSH1 0x3 DUP4 ADD SLOAD SWAP1 DUP5 ADD MSTORE PUSH1 0x4 SWAP1 SWAP2 ADD SLOAD PUSH1 0x80 DUP4 ADD MSTORE SWAP1 PUSH2 0x1612 SWAP1 DUP3 SWAP1 PUSH2 0x17C1 JUMP JUMPDEST SWAP4 POP DUP1 PUSH1 0x40 ADD MLOAD SWAP3 POP POP POP SWAP2 POP SWAP2 JUMP JUMPDEST PUSH1 0x0 DUP1 DUP3 PUSH2 0x1632 JUMPI DUP4 SWAP2 POP PUSH2 0x165B JUMP JUMPDEST PUSH2 0x1646 PUSH4 0xFFFFFFFF DUP7 AND PUSH3 0xF4240 DUP7 PUSH2 0x1B33 JUMP JUMPDEST SWAP2 POP PUSH2 0x1658 DUP5 DUP4 PUSH4 0xFFFFFFFF PUSH2 0xEC1 AND JUMP JUMPDEST SWAP1 POP JUMPDEST SWAP4 POP SWAP4 SWAP2 POP POP JUMP JUMPDEST DUP1 PUSH1 0x1 PUSH1 0x1 PUSH1 0x60 SHL SUB DUP2 AND DUP2 EQ PUSH2 0x67D JUMPI PUSH2 0x67D PUSH2 0x4E3 PUSH1 0x2 DUP5 PUSH2 0x1B75 JUMP JUMPDEST PUSH1 0xD SLOAD PUSH1 0x0 SWAP1 PUSH2 0x1690 PUSH2 0x2C60 JUMP JUMPDEST POP PUSH1 0x1 PUSH1 0x1 PUSH1 0xA0 SHL SUB DUP6 AND PUSH1 0x0 SWAP1 DUP2 MSTORE PUSH1 0x6 PUSH1 0x20 SWAP1 DUP2 MSTORE PUSH1 0x40 DUP1 DUP4 KECCAK256 DUP10 DUP5 MSTORE DUP3 MSTORE SWAP2 DUP3 SWAP1 KECCAK256 DUP3 MLOAD PUSH1 0x60 DUP2 ADD DUP5 MSTORE SWAP1 SLOAD PUSH8 0xFFFFFFFFFFFFFFFF DUP2 AND DUP1 DUP4 MSTORE PUSH1 0x1 PUSH1 0x1 PUSH1 0x60 SHL SUB PUSH1 0x1 PUSH1 0x40 SHL DUP4 DIV DUP2 AND SWAP5 DUP5 ADD SWAP5 SWAP1 SWAP5 MSTORE PUSH1 0x1 PUSH1 0xA0 SHL SWAP1 SWAP2 DIV SWAP1 SWAP3 AND SWAP3 DUP2 ADD SWAP3 SWAP1 SWAP3 MSTORE DUP3 EQ ISZERO PUSH2 0x1709 JUMPI PUSH1 0x0 SWAP3 POP POP POP PUSH2 0x1795 JUMP JUMPDEST PUSH2 0x1715 DUP2 DUP4 DUP8 DUP8 PUSH2 0x1B92 JUMP JUMPDEST DUP2 MLOAD SWAP1 SWAP4 POP PUSH1 0x0 SWAP1 PUSH2 0x1738 SWAP1 PUSH8 0xFFFFFFFFFFFFFFFF AND PUSH1 0x1 PUSH4 0xFFFFFFFF PUSH2 0x13D0 AND JUMP JUMPDEST SWAP1 POP PUSH2 0x1771 PUSH2 0x1764 DUP10 DUP5 PUSH1 0x20 ADD MLOAD PUSH1 0x1 PUSH1 0x1 PUSH1 0x60 SHL SUB AND DUP6 PUSH1 0x0 ADD MLOAD PUSH8 0xFFFFFFFFFFFFFFFF AND DUP6 PUSH2 0x1C10 JUMP JUMPDEST DUP6 SWAP1 PUSH4 0xFFFFFFFF PUSH2 0x13D0 AND JUMP JUMPDEST SWAP4 POP PUSH2 0x178F PUSH2 0x1764 DUP10 DUP5 PUSH1 0x40 ADD MLOAD PUSH1 0x1 PUSH1 0x1 PUSH1 0x60 SHL SUB AND DUP5 DUP8 PUSH2 0x1C10 JUMP JUMPDEST SWAP4 POP POP POP POP JUMPDEST SWAP5 SWAP4 POP POP POP POP JUMP JUMPDEST PUSH1 0x40 DUP1 MLOAD DUP1 DUP3 ADD SWAP1 SWAP2 MSTORE PUSH1 0x4 DUP2 MSTORE PUSH4 0x734F6E1F PUSH1 0xE1 SHL PUSH1 0x20 DUP3 ADD MSTORE SWAP1 JUMP JUMPDEST EXTCODESIZE ISZERO ISZERO SWAP1 JUMP JUMPDEST DUP2 MLOAD PUSH1 0x0 SWAP1 PUSH2 0x17CF JUMPI PUSH2 0x774 JUMP JUMPDEST DUP2 MLOAD DUP4 MLOAD PUSH1 0x40 DUP5 ADD MLOAD PUSH1 0x20 DUP7 ADD MLOAD PUSH1 0x60 DUP7 ADD MLOAD PUSH1 0x15 SLOAD PUSH2 0x1805 SWAP6 SWAP5 SWAP4 SWAP3 SWAP2 SWAP1 PUSH4 0xFFFFFFFF DUP1 DUP3 AND SWAP2 PUSH5 0x100000000 SWAP1 DIV AND PUSH2 0x1C8F JUMP JUMPDEST PUSH1 0x80 DUP4 ADD MLOAD DUP4 MLOAD SWAP2 SWAP3 POP PUSH1 0x0 SWAP2 PUSH2 0x1821 SWAP2 PUSH4 0xFFFFFFFF PUSH2 0xEC1 AND JUMP JUMPDEST SWAP1 POP DUP2 DUP2 LT ISZERO PUSH2 0x182F JUMPI DUP1 SWAP2 POP JUMPDEST POP SWAP3 SWAP2 POP POP JUMP JUMPDEST PUSH1 0x0 DUP1 PUSH2 0x1841 PUSH2 0x2C80 JUMP JUMPDEST POP PUSH1 0x0 DUP6 DUP2 MSTORE PUSH1 0xB PUSH1 0x20 SWAP1 DUP2 MSTORE PUSH1 0x40 SWAP2 DUP3 SWAP1 KECCAK256 DUP3 MLOAD DUP1 DUP5 ADD SWAP1 SWAP4 MSTORE SLOAD PUSH1 0x1 PUSH1 0x1 PUSH1 0xA0 SHL SUB DUP2 AND DUP4 MSTORE PUSH1 0x1 PUSH1 0xA0 SHL SWAP1 DIV PUSH4 0xFFFFFFFF AND SWAP1 DUP3 ADD DUP2 SWAP1 MSTORE PUSH2 0x1887 SWAP1 DUP7 DUP7 PUSH2 0x1622 JUMP JUMPDEST SWAP1 SWAP4 POP SWAP2 POP DUP3 ISZERO PUSH2 0x191E JUMPI PUSH2 0x189A PUSH2 0x6DD JUMP JUMPDEST DUP2 MLOAD PUSH1 0x40 MLOAD PUSH4 0xA9059CBB PUSH1 0xE0 SHL DUP2 MSTORE PUSH1 0x1 PUSH1 0x1 PUSH1 0xA0 SHL SUB SWAP3 SWAP1 SWAP3 AND SWAP2 PUSH4 0xA9059CBB SWAP2 PUSH2 0x18CA SWAP2 DUP8 SWAP1 PUSH1 0x4 ADD PUSH2 0x303E JUMP JUMPDEST PUSH1 0x20 PUSH1 0x40 MLOAD DUP1 DUP4 SUB DUP2 PUSH1 0x0 DUP8 DUP1 EXTCODESIZE ISZERO DUP1 ISZERO PUSH2 0x18E4 JUMPI PUSH1 0x0 DUP1 REVERT JUMPDEST POP GAS CALL ISZERO DUP1 ISZERO PUSH2 0x18F8 JUMPI RETURNDATASIZE PUSH1 0x0 DUP1 RETURNDATACOPY RETURNDATASIZE PUSH1 0x0 REVERT JUMPDEST POP POP POP POP PUSH1 0x40 MLOAD RETURNDATASIZE PUSH1 0x1F NOT PUSH1 0x1F DUP3 ADD AND DUP3 ADD DUP1 PUSH1 0x40 MSTORE POP PUSH2 0x191C SWAP2 SWAP1 DUP2 ADD SWAP1 PUSH2 0x2DD3 JUMP JUMPDEST POP JUMPDEST DUP2 ISZERO PUSH2 0x1939 JUMPI PUSH2 0x192E DUP7 DUP4 PUSH2 0x1D52 JUMP JUMPDEST PUSH2 0x1939 DUP7 DUP4 DUP7 PUSH2 0x1D93 JUMP JUMPDEST POP SWAP4 POP SWAP4 SWAP2 POP POP JUMP JUMPDEST PUSH1 0x60 PUSH4 0xE946C1BB PUSH1 0xE0 SHL DUP5 DUP5 DUP5 PUSH1 0x40 MLOAD PUSH1 0x24 ADD PUSH2 0x1961 SWAP4 SWAP3 SWAP2 SWAP1 PUSH2 0x30A2 JUMP JUMPDEST PUSH1 0x40 DUP1 MLOAD PUSH1 0x1F NOT DUP2 DUP5 SUB ADD DUP2 MSTORE SWAP2 SWAP1 MSTORE PUSH1 0x20 DUP2 ADD DUP1 MLOAD PUSH1 0x1 PUSH1 0x1 PUSH1 0xE0 SHL SUB AND PUSH1 0x1 PUSH1 0x1 PUSH1 0xE0 SHL SUB NOT SWAP1 SWAP4 AND SWAP3 SWAP1 SWAP3 OR SWAP1 SWAP2 MSTORE SWAP1 POP JUMPDEST SWAP4 SWAP3 POP POP POP JUMP JUMPDEST PUSH1 0x60 PUSH4 0xA6BCDE47 PUSH1 0xE0 SHL DUP4 DUP4 PUSH1 0x40 MLOAD PUSH1 0x24 ADD PUSH2 0xEFD SWAP3 SWAP2 SWAP1 PUSH2 0x3086 JUMP JUMPDEST DUP1 PUSH8 0xFFFFFFFFFFFFFFFF DUP2 AND DUP2 EQ PUSH2 0x67D JUMPI PUSH2 0x67D PUSH2 0x4E3 PUSH1 0x1 DUP5 PUSH2 0x1B75 JUMP JUMPDEST PUSH1 0x60 PUSH4 0x1DE45AD1 PUSH1 0xE0 SHL DUP4 DUP4 PUSH1 0x40 MLOAD PUSH1 0x24 ADD PUSH2 0xEFD SWAP3 SWAP2 SWAP1 PUSH2 0x3023 JUMP JUMPDEST PUSH1 0x40 DUP1 MLOAD DUP1 DUP3 ADD SWAP1 SWAP2 MSTORE PUSH1 0x4 DUP2 MSTORE PUSH4 0x15D953F9 PUSH1 0xE2 SHL PUSH1 0x20 DUP3 ADD MSTORE SWAP1 JUMP JUMPDEST PUSH1 0x60 PUSH4 0xDE16F1A0 PUSH1 0xE0 SHL DUP3 PUSH1 0x40 MLOAD PUSH1 0x24 ADD PUSH2 0x1222 SWAP2 SWAP1 PUSH2 0x3015 JUMP JUMPDEST PUSH1 0x60 PUSH4 0xE9F83771 PUSH1 0xE0 SHL DUP4 DUP4 PUSH1 0x40 MLOAD PUSH1 0x24 ADD PUSH2 0xEFD SWAP3 SWAP2 SWAP1 PUSH2 0x3086 JUMP JUMPDEST PUSH1 0x60 PUSH4 0x140A84DB PUSH1 0xE0 SHL DUP4 DUP4 PUSH1 0x40 MLOAD PUSH1 0x24 ADD PUSH2 0xEFD SWAP3 SWAP2 SWAP1 PUSH2 0x3023 JUMP JUMPDEST PUSH1 0xD SLOAD PUSH1 0x0 SWAP1 PUSH2 0x1A81 SWAP1 PUSH1 0x1 PUSH4 0xFFFFFFFF PUSH2 0xEC1 AND JUMP JUMPDEST SWAP1 POP PUSH2 0x1A8B PUSH2 0x2C97 JUMP JUMPDEST POP PUSH1 0x0 DUP3 DUP2 MSTORE PUSH1 0x16 PUSH1 0x20 SWAP1 DUP2 MSTORE PUSH1 0x40 DUP1 DUP4 KECCAK256 DUP5 DUP5 MSTORE DUP3 MSTORE SWAP2 DUP3 SWAP1 KECCAK256 DUP3 MLOAD PUSH1 0x60 DUP2 ADD DUP5 MSTORE DUP2 SLOAD DUP1 DUP3 MSTORE PUSH1 0x1 DUP4 ADD SLOAD SWAP4 DUP3 ADD SWAP4 SWAP1 SWAP4 MSTORE PUSH1 0x2 SWAP1 SWAP2 ADD SLOAD SWAP3 DUP2 ADD SWAP3 SWAP1 SWAP3 MSTORE ISZERO PUSH2 0x1560 JUMPI PUSH2 0x1560 PUSH2 0x4E3 DUP5 DUP5 PUSH2 0x1E7C JUMP JUMPDEST PUSH1 0x0 DUP3 DUP2 MSTORE PUSH1 0xC PUSH1 0x20 MSTORE PUSH1 0x40 SWAP1 KECCAK256 SLOAD PUSH2 0x1AFD SWAP1 DUP3 PUSH4 0xFFFFFFFF PUSH2 0xEC1 AND JUMP JUMPDEST PUSH1 0x0 DUP4 DUP2 MSTORE PUSH1 0xC PUSH1 0x20 MSTORE PUSH1 0x40 SWAP1 KECCAK256 SSTORE PUSH1 0x18 SLOAD PUSH2 0x1B1F SWAP1 DUP3 PUSH4 0xFFFFFFFF PUSH2 0xEC1 AND JUMP JUMPDEST PUSH1 0x18 SSTORE POP POP JUMP JUMPDEST PUSH2 0x725 DUP2 PUSH1 0x0 PUSH1 0x1 PUSH2 0x1D93 JUMP JUMPDEST PUSH1 0x0 PUSH2 0x1795 DUP4 PUSH2 0x1B69 PUSH2 0x1B4D DUP3 PUSH1 0x1 PUSH4 0xFFFFFFFF PUSH2 0xEC1 AND JUMP JUMPDEST PUSH2 0x1B5D DUP9 DUP8 PUSH4 0xFFFFFFFF PUSH2 0x1E99 AND JUMP JUMPDEST SWAP1 PUSH4 0xFFFFFFFF PUSH2 0x13D0 AND JUMP JUMPDEST SWAP1 PUSH4 0xFFFFFFFF PUSH2 0x1ECA AND JUMP JUMPDEST PUSH1 0x60 PUSH4 0xC996AF7B PUSH1 0xE0 SHL DUP4 DUP4 PUSH1 0x40 MLOAD PUSH1 0x24 ADD PUSH2 0xEFD SWAP3 SWAP2 SWAP1 PUSH2 0x30CA JUMP JUMPDEST PUSH1 0x0 DUP3 ISZERO DUP1 PUSH2 0x1B9F JUMPI POP DUP2 ISZERO JUMPDEST ISZERO PUSH2 0x1BAC JUMPI POP PUSH1 0x0 PUSH2 0x1795 JUMP JUMPDEST PUSH1 0x0 PUSH2 0x1BBF DUP6 PUSH1 0x1 PUSH4 0xFFFFFFFF PUSH2 0xEC1 AND JUMP JUMPDEST DUP7 MLOAD PUSH8 0xFFFFFFFFFFFFFFFF AND LT ISZERO PUSH2 0x1BDB JUMPI DUP6 PUSH1 0x40 ADD MLOAD PUSH2 0x1BE1 JUMP JUMPDEST DUP6 PUSH1 0x20 ADD MLOAD JUMPDEST PUSH1 0x1 PUSH1 0x1 PUSH1 0x60 SHL SUB AND SWAP1 POP DUP1 PUSH2 0x1BFB JUMPI PUSH1 0x0 SWAP2 POP POP PUSH2 0x1795 JUMP JUMPDEST PUSH2 0x1C06 DUP5 DUP5 DUP4 PUSH2 0x1EF4 JUMP JUMPDEST SWAP7 SWAP6 POP POP POP POP POP POP JUMP JUMPDEST PUSH1 0x0 DUP4 ISZERO DUP1 PUSH2 0x1C1E JUMPI POP DUP2 DUP4 EQ JUMPDEST ISZERO PUSH2 0x1C2B JUMPI POP PUSH1 0x0 PUSH2 0x1795 JUMP JUMPDEST DUP2 DUP4 LT PUSH2 0x1C4A JUMPI PUSH1 0x40 MLOAD PUSH3 0x461BCD PUSH1 0xE5 SHL DUP2 MSTORE PUSH1 0x4 ADD PUSH2 0xC8A SWAP1 PUSH2 0x30F6 JUMP JUMPDEST PUSH2 0x1C52 PUSH2 0x2CDC JUMP JUMPDEST PUSH2 0x1C5C DUP7 DUP6 PUSH2 0x1F0A JUMP JUMPDEST SWAP1 POP PUSH2 0x1C66 PUSH2 0x2CDC JUMP JUMPDEST PUSH2 0x1C70 DUP8 DUP6 PUSH2 0x1F0A JUMP JUMPDEST SWAP1 POP PUSH2 0xBA5 DUP2 PUSH1 0x0 ADD MLOAD DUP3 PUSH1 0x20 ADD MLOAD DUP5 PUSH1 0x0 ADD MLOAD DUP6 PUSH1 0x20 ADD MLOAD DUP11 PUSH2 0x2028 JUMP JUMPDEST PUSH1 0x0 DUP1 PUSH2 0x1C9C DUP9 DUP9 PUSH2 0x20B4 JUMP JUMPDEST SWAP1 POP PUSH1 0x0 PUSH2 0x1CAA DUP8 DUP8 PUSH2 0x20B4 JUMP JUMPDEST SWAP1 POP DUP2 ISZERO DUP1 PUSH2 0x1CB7 JUMPI POP DUP1 ISZERO JUMPDEST ISZERO PUSH2 0x1CC8 JUMPI POP PUSH1 0x0 SWAP2 POP PUSH2 0xBA5 SWAP1 POP JUMP JUMPDEST PUSH1 0x0 DUP2 DUP4 SGT ISZERO PUSH2 0x1CE1 JUMPI PUSH2 0x1CDC DUP3 DUP5 PUSH2 0x20FA JUMP JUMPDEST PUSH2 0x1CEB JUMP JUMPDEST PUSH2 0x1CEB DUP4 DUP4 PUSH2 0x20FA JUMP JUMPDEST SWAP1 POP PUSH2 0x1D14 PUSH2 0x1D0F PUSH2 0x1CFC DUP4 PUSH2 0x210D JUMP JUMPDEST DUP9 PUSH4 0xFFFFFFFF AND DUP9 PUSH4 0xFFFFFFFF AND PUSH2 0x2562 JUMP JUMPDEST PUSH2 0x2571 JUMP JUMPDEST SWAP1 POP DUP2 DUP4 SGT ISZERO PUSH2 0x1D2D JUMPI PUSH2 0x1D28 DUP3 DUP3 PUSH2 0x20FA JUMP JUMPDEST PUSH2 0x1D37 JUMP JUMPDEST PUSH2 0x1D37 DUP3 DUP3 PUSH2 0x29D7 JUMP JUMPDEST SWAP1 POP PUSH2 0x1D43 DUP2 DUP13 PUSH2 0x29F7 JUMP JUMPDEST SWAP12 SWAP11 POP POP POP POP POP POP POP POP POP POP POP JUMP JUMPDEST PUSH1 0x0 DUP3 DUP2 MSTORE PUSH1 0xC PUSH1 0x20 MSTORE PUSH1 0x40 SWAP1 KECCAK256 SLOAD PUSH2 0x1D71 SWAP1 DUP3 PUSH4 0xFFFFFFFF PUSH2 0x13D0 AND JUMP JUMPDEST PUSH1 0x0 DUP4 DUP2 MSTORE PUSH1 0xC PUSH1 0x20 MSTORE PUSH1 0x40 SWAP1 KECCAK256 SSTORE PUSH1 0x18 SLOAD PUSH2 0x1B1F SWAP1 DUP3 PUSH4 0xFFFFFFFF PUSH2 0x13D0 AND JUMP JUMPDEST PUSH1 0x0 DUP4 DUP2 MSTORE PUSH1 0x10 PUSH1 0x20 MSTORE PUSH1 0x40 SWAP1 KECCAK256 SLOAD PUSH1 0xD SLOAD DUP1 DUP3 EQ ISZERO PUSH2 0x1DB4 JUMPI POP POP PUSH2 0x1560 JUMP JUMPDEST PUSH2 0x1DBC PUSH2 0x2CDC JUMP JUMPDEST POP PUSH1 0x0 DUP6 DUP2 MSTORE PUSH1 0xF PUSH1 0x20 SWAP1 DUP2 MSTORE PUSH1 0x40 DUP1 DUP4 KECCAK256 DUP6 DUP5 MSTORE DUP3 MSTORE SWAP2 DUP3 SWAP1 KECCAK256 DUP3 MLOAD DUP1 DUP5 ADD SWAP1 SWAP4 MSTORE DUP1 SLOAD DUP4 MSTORE PUSH1 0x1 ADD SLOAD SWAP1 DUP3 ADD MSTORE PUSH2 0x1DF3 PUSH2 0x2CDC JUMP JUMPDEST PUSH2 0x1DFC DUP3 PUSH2 0x2A39 JUMP JUMPDEST ISZERO PUSH2 0x1E35 JUMPI PUSH2 0x1E15 DUP3 PUSH1 0x0 ADD MLOAD DUP4 PUSH1 0x20 ADD MLOAD DUP9 DUP9 PUSH2 0x2A42 JUMP JUMPDEST PUSH1 0x20 DUP4 ADD DUP2 SWAP1 MSTORE DUP2 DUP4 MSTORE PUSH2 0x1E29 SWAP2 SWAP1 PUSH2 0x2AA4 JUMP JUMPDEST PUSH1 0x20 DUP4 ADD MSTORE DUP2 MSTORE PUSH2 0x1E40 JUMP JUMPDEST PUSH1 0x20 DUP2 ADD DUP6 SWAP1 MSTORE DUP6 DUP2 MSTORE JUMPDEST PUSH1 0x0 DUP8 DUP2 MSTORE PUSH1 0xF PUSH1 0x20 SWAP1 DUP2 MSTORE PUSH1 0x40 DUP1 DUP4 KECCAK256 DUP7 DUP5 MSTORE DUP3 MSTORE DUP1 DUP4 KECCAK256 DUP5 MLOAD DUP2 SSTORE SWAP4 DUP3 ADD MLOAD PUSH1 0x1 SWAP1 SWAP5 ADD SWAP4 SWAP1 SWAP4 SSTORE SWAP8 DUP2 MSTORE PUSH1 0x10 SWAP1 SWAP8 MSTORE SWAP1 SWAP6 KECCAK256 SSTORE POP POP POP POP JUMP JUMPDEST PUSH1 0x60 PUSH4 0x5CAA0B05 PUSH1 0xE0 SHL DUP4 DUP4 PUSH1 0x40 MLOAD PUSH1 0x24 ADD PUSH2 0xEFD SWAP3 SWAP2 SWAP1 PUSH2 0x3086 JUMP JUMPDEST PUSH1 0x0 DUP3 PUSH2 0x1EA8 JUMPI POP PUSH1 0x0 PUSH2 0x774 JUMP JUMPDEST DUP3 DUP3 MUL DUP3 DUP5 DUP3 DUP2 PUSH2 0x1EB5 JUMPI INVALID JUMPDEST DIV EQ PUSH2 0x771 JUMPI PUSH2 0x771 PUSH2 0x4E3 PUSH1 0x1 DUP7 DUP7 PUSH2 0x1942 JUMP JUMPDEST PUSH1 0x0 DUP2 PUSH2 0x1EE0 JUMPI PUSH2 0x1EE0 PUSH2 0x4E3 PUSH1 0x3 DUP6 DUP6 PUSH2 0x1942 JUMP JUMPDEST PUSH1 0x0 DUP3 DUP5 DUP2 PUSH2 0x1EEB JUMPI INVALID JUMPDEST DIV SWAP5 SWAP4 POP POP POP POP JUMP JUMPDEST PUSH1 0x0 PUSH2 0x1795 DUP4 PUSH2 0x1B69 DUP7 DUP6 PUSH4 0xFFFFFFFF PUSH2 0x1E99 AND JUMP JUMPDEST PUSH2 0x1F12 PUSH2 0x2CDC JUMP JUMPDEST POP PUSH1 0x0 DUP3 DUP2 MSTORE PUSH1 0xF PUSH1 0x20 SWAP1 DUP2 MSTORE PUSH1 0x40 DUP1 DUP4 KECCAK256 DUP5 DUP5 MSTORE DUP3 MSTORE SWAP2 DUP3 SWAP1 KECCAK256 DUP3 MLOAD DUP1 DUP5 ADD SWAP1 SWAP4 MSTORE DUP1 SLOAD DUP4 MSTORE PUSH1 0x1 ADD SLOAD SWAP1 DUP3 ADD MSTORE PUSH2 0x1F4A DUP2 PUSH2 0x2A39 JUMP JUMPDEST ISZERO PUSH2 0x1F54 JUMPI PUSH2 0x774 JUMP JUMPDEST PUSH1 0x0 PUSH2 0x1F67 DUP4 PUSH1 0x1 PUSH4 0xFFFFFFFF PUSH2 0xEC1 AND JUMP JUMPDEST PUSH1 0x0 DUP6 DUP2 MSTORE PUSH1 0xF PUSH1 0x20 SWAP1 DUP2 MSTORE PUSH1 0x40 DUP1 DUP4 KECCAK256 DUP5 DUP5 MSTORE DUP3 MSTORE SWAP2 DUP3 SWAP1 KECCAK256 DUP3 MLOAD DUP1 DUP5 ADD SWAP1 SWAP4 MSTORE DUP1 SLOAD DUP4 MSTORE PUSH1 0x1 ADD SLOAD SWAP1 DUP3 ADD MSTORE SWAP3 POP SWAP1 POP PUSH2 0x1FA2 DUP3 PUSH2 0x2A39 JUMP JUMPDEST ISZERO PUSH2 0x1FAD JUMPI POP PUSH2 0x774 JUMP JUMPDEST PUSH1 0x0 DUP5 DUP2 MSTORE PUSH1 0x10 PUSH1 0x20 MSTORE PUSH1 0x40 SWAP1 KECCAK256 SLOAD DUP4 DUP2 LT ISZERO PUSH2 0x200A JUMPI PUSH1 0x0 DUP6 DUP2 MSTORE PUSH1 0xF PUSH1 0x20 SWAP1 DUP2 MSTORE PUSH1 0x40 DUP1 DUP4 KECCAK256 DUP5 DUP5 MSTORE DUP3 MSTORE SWAP2 DUP3 SWAP1 KECCAK256 DUP3 MLOAD DUP1 DUP5 ADD SWAP1 SWAP4 MSTORE DUP1 SLOAD DUP4 MSTORE PUSH1 0x1 ADD SLOAD SWAP1 DUP3 ADD MSTORE SWAP3 POP PUSH2 0x1FFD DUP4 PUSH2 0x2A39 JUMP JUMPDEST ISZERO PUSH2 0x200A JUMPI POP PUSH2 0x774 SWAP1 POP JUMP JUMPDEST POP POP PUSH1 0x40 DUP1 MLOAD DUP1 DUP3 ADD SWAP1 SWAP2 MSTORE PUSH1 0x0 DUP2 MSTORE PUSH1 0x1 PUSH1 0x20 DUP3 ADD MSTORE SWAP4 SWAP3 POP POP POP JUMP JUMPDEST PUSH1 0x0 DUP2 PUSH2 0x2037 JUMPI POP PUSH1 0x0 PUSH2 0x20AB JUMP JUMPDEST DUP4 PUSH2 0x2057 JUMPI PUSH2 0x2050 DUP6 PUSH2 0x1B69 DUP5 DUP10 PUSH4 0xFFFFFFFF PUSH2 0x1E99 AND JUMP JUMPDEST SWAP1 POP PUSH2 0x20AB JUMP JUMPDEST PUSH1 0x0 PUSH2 0x207C PUSH2 0x206C DUP7 DUP9 PUSH4 0xFFFFFFFF PUSH2 0x1E99 AND JUMP JUMPDEST PUSH2 0x102F DUP10 DUP8 PUSH4 0xFFFFFFFF PUSH2 0x1E99 AND JUMP JUMPDEST SWAP1 POP PUSH1 0x0 PUSH2 0x2090 DUP3 DUP7 PUSH4 0xFFFFFFFF PUSH2 0x1ECA AND JUMP JUMPDEST SWAP1 POP PUSH2 0x20A6 DUP8 PUSH2 0x1B69 DUP7 DUP5 PUSH4 0xFFFFFFFF PUSH2 0x1E99 AND JUMP JUMPDEST SWAP3 POP POP POP JUMPDEST SWAP6 SWAP5 POP POP POP POP POP JUMP JUMPDEST PUSH1 0x0 DUP1 DUP4 SLT ISZERO PUSH2 0x20CC JUMPI PUSH2 0x20CC PUSH2 0x4E3 PUSH1 0x1 DUP6 PUSH2 0x2AC1 JUMP JUMPDEST PUSH1 0x0 DUP3 SLT ISZERO PUSH2 0x20E3 JUMPI PUSH2 0x20E3 PUSH2 0x4E3 PUSH1 0x1 DUP5 PUSH2 0x2AC1 JUMP JUMPDEST PUSH2 0x1996 PUSH2 0x20F4 DUP5 PUSH1 0x1 PUSH1 0x7F SHL PUSH2 0x2AE9 JUMP JUMPDEST DUP4 PUSH2 0x2B3C JUMP JUMPDEST PUSH1 0x0 PUSH2 0x1996 PUSH2 0x20F4 DUP5 PUSH1 0x1 PUSH1 0x7F SHL PUSH2 0x2AE9 JUMP JUMPDEST PUSH1 0x0 PUSH1 0x1 PUSH1 0x7F SHL DUP3 SGT ISZERO PUSH2 0x2129 JUMPI PUSH2 0x2129 PUSH2 0x4E3 PUSH1 0x1 DUP5 PUSH2 0x2B83 JUMP JUMPDEST PUSH1 0x0 DUP3 SGT PUSH2 0x213F JUMPI PUSH2 0x213F PUSH2 0x4E3 PUSH1 0x0 DUP5 PUSH2 0x2B83 JUMP JUMPDEST PUSH1 0x1 PUSH1 0x7F SHL DUP3 EQ ISZERO PUSH2 0x2153 JUMPI POP PUSH1 0x0 PUSH2 0x67D JUMP JUMPDEST PUSH5 0x733048C5A DUP3 SGT PUSH2 0x216F JUMPI POP PUSH1 0x1 PUSH2 0x1FF PUSH1 0x7C SHL SUB NOT PUSH2 0x67D JUMP JUMPDEST PUSH1 0x0 DUP1 PUSH1 0x0 PUSH11 0x1C8464F76164760000000 DUP6 SGT PUSH2 0x21B4 JUMPI PUSH17 0xFFFFFFFFFFFFFFFFFFFFFFFFFFFFFFFFF NOT SWAP1 SWAP4 ADD SWAP3 PUSH11 0x1C8464F76164760000000 PUSH1 0x1 PUSH1 0x7F SHL DUP7 MUL SDIV SWAP5 POP JUMPDEST PUSH13 0xF1AADDD7742E90000000000000 DUP6 SGT PUSH2 0x21F8 JUMPI PUSH17 0x7FFFFFFFFFFFFFFFFFFFFFFFFFFFFFFFF NOT SWAP1 SWAP4 ADD SWAP3 PUSH13 0xF1AADDD7742E90000000000000 PUSH1 0x1 PUSH1 0x7F SHL DUP7 MUL SDIV SWAP5 POP JUMPDEST PUSH7 0x15FC21041027AF PUSH1 0x3F SHL DUP6 SGT PUSH2 0x2236 JUMPI PUSH17 0x3FFFFFFFFFFFFFFFFFFFFFFFFFFFFFFFF NOT SWAP1 SWAP4 ADD SWAP3 PUSH7 0x15FC21041027AF PUSH1 0x3F SHL PUSH1 0x1 PUSH1 0x7F SHL DUP7 MUL SDIV SWAP5 POP JUMPDEST PUSH7 0x960AADC109E7B PUSH1 0x46 SHL DUP6 SGT PUSH2 0x2274 JUMPI PUSH17 0x1FFFFFFFFFFFFFFFFFFFFFFFFFFFFFFFF NOT SWAP1 SWAP4 ADD SWAP3 PUSH7 0x960AADC109E7B PUSH1 0x46 SHL PUSH1 0x1 PUSH1 0x7F SHL DUP7 MUL SDIV SWAP5 POP JUMPDEST PUSH7 0x454AAA8EFE073 PUSH1 0x4A SHL DUP6 SGT PUSH2 0x22B1 JUMPI PUSH16 0xFFFFFFFFFFFFFFFFFFFFFFFFFFFFFFFF NOT SWAP1 SWAP4 ADD SWAP3 PUSH7 0x454AAA8EFE073 PUSH1 0x4A SHL PUSH1 0x1 PUSH1 0x7F SHL DUP7 MUL SDIV SWAP5 POP JUMPDEST PUSH7 0x2F16AC6C59DE7 PUSH1 0x4C SHL DUP6 SGT PUSH2 0x22E5 JUMPI PUSH1 0x1 PUSH1 0x1 PUSH1 0x7F SHL SUB NOT SWAP1 SWAP4 ADD SWAP3 PUSH7 0x2F16AC6C59DE7 PUSH1 0x4C SHL PUSH1 0x1 PUSH1 0x7F SHL DUP7 MUL SDIV SWAP5 POP JUMPDEST PUSH7 0x9B4597E37CB05 PUSH1 0x4B SHL DUP6 SGT PUSH2 0x2322 JUMPI PUSH16 0x3FFFFFFFFFFFFFFFFFFFFFFFFFFFFFFF NOT SWAP1 SWAP4 ADD SWAP3 PUSH7 0x9B4597E37CB05 PUSH1 0x4B SHL PUSH1 0x1 PUSH1 0x7F SHL DUP7 MUL SDIV SWAP5 POP JUMPDEST PUSH7 0x18EBEF9EAC820B PUSH1 0x4A SHL DUP6 SGT PUSH2 0x235F JUMPI PUSH16 0x1FFFFFFFFFFFFFFFFFFFFFFFFFFFFFFF NOT SWAP1 SWAP4 ADD SWAP3 PUSH7 0x18EBEF9EAC820B PUSH1 0x4A SHL PUSH1 0x1 PUSH1 0x7F SHL DUP7 MUL SDIV SWAP5 POP JUMPDEST PUSH16 0x70F5A893B608861E1F58934F97AEA57D DUP6 SGT PUSH2 0x23A8 JUMPI PUSH16 0xFFFFFFFFFFFFFFFFFFFFFFFFFFFFFFF NOT SWAP1 SWAP4 ADD SWAP3 PUSH16 0x70F5A893B608861E1F58934F97AEA57D PUSH1 0x1 PUSH1 0x7F SHL DUP7 MUL SDIV SWAP5 POP JUMPDEST PUSH1 0x1 PUSH1 0x1 PUSH1 0x7F SHL SUB NOT DUP6 ADD SWAP3 POP DUP3 SWAP2 POP PUSH1 0x1 PUSH1 0x7F SHL DUP3 DUP1 MUL SDIV SWAP1 POP PUSH1 0x1 PUSH1 0x80 SHL DUP4 DUP2 SUB DUP4 MUL SDIV DUP5 ADD SWAP4 POP PUSH1 0x1 PUSH1 0x7F SHL DUP2 DUP4 MUL DUP2 PUSH2 0x23E1 JUMPI INVALID JUMPDEST SDIV SWAP2 POP PUSH1 0x1 PUSH1 0x81 SHL DUP4 PUSH16 0xAAAAAAAAAAAAAAAAAAAAAAAAAAAAAAAA SUB DUP4 MUL DUP2 PUSH2 0x2405 JUMPI INVALID JUMPDEST SDIV DUP5 ADD SWAP4 POP PUSH1 0x1 PUSH1 0x7F SHL DUP2 DUP4 MUL DUP2 PUSH2 0x2419 JUMPI INVALID JUMPDEST SDIV SWAP2 POP PUSH1 0x3 PUSH1 0x80 SHL DUP4 PUSH16 0x99999999999999999999999999999999 SUB DUP4 MUL DUP2 PUSH2 0x243D JUMPI INVALID JUMPDEST SDIV DUP5 ADD SWAP4 POP PUSH1 0x1 PUSH1 0x7F SHL DUP2 DUP4 MUL DUP2 PUSH2 0x2451 JUMPI INVALID JUMPDEST SDIV SWAP2 POP PUSH1 0x1 PUSH1 0x82 SHL DUP4 PUSH16 0x92492492492492492492492492492492 SUB DUP4 MUL DUP2 PUSH2 0x2475 JUMPI INVALID JUMPDEST SDIV DUP5 ADD SWAP4 POP PUSH1 0x1 PUSH1 0x7F SHL DUP2 DUP4 MUL DUP2 PUSH2 0x2489 JUMPI INVALID JUMPDEST SDIV SWAP2 POP PUSH1 0x5 PUSH1 0x80 SHL DUP4 PUSH16 0x8E38E38E38E38E38E38E38E38E38E38E SUB DUP4 MUL DUP2 PUSH2 0x24AD JUMPI INVALID JUMPDEST SDIV DUP5 ADD SWAP4 POP PUSH1 0x1 PUSH1 0x7F SHL DUP2 DUP4 MUL DUP2 PUSH2 0x24C1 JUMPI INVALID JUMPDEST SDIV SWAP2 POP PUSH1 0x3 PUSH1 0x81 SHL DUP4 PUSH16 0x8BA2E8BA2E8BA2E8BA2E8BA2E8BA2E8B SUB DUP4 MUL DUP2 PUSH2 0x24E5 JUMPI INVALID JUMPDEST SDIV DUP5 ADD SWAP4 POP PUSH1 0x1 PUSH1 0x7F SHL DUP2 DUP4 MUL DUP2 PUSH2 0x24F9 JUMPI INVALID JUMPDEST SDIV SWAP2 POP PUSH1 0x7 PUSH1 0x80 SHL DUP4 PUSH16 0x89D89D89D89D89D89D89D89D89D89D89 SUB DUP4 MUL DUP2 PUSH2 0x251D JUMPI INVALID JUMPDEST SDIV DUP5 ADD SWAP4 POP PUSH1 0x1 PUSH1 0x7F SHL DUP2 DUP4 MUL DUP2 PUSH2 0x2531 JUMPI INVALID JUMPDEST SDIV SWAP2 POP PUSH1 0x1 PUSH1 0x83 SHL DUP4 PUSH16 0x88888888888888888888888888888888 SUB DUP4 MUL DUP2 PUSH2 0x2555 JUMPI INVALID JUMPDEST SDIV DUP5 ADD SWAP4 POP POP POP POP SWAP2 SWAP1 POP JUMP JUMPDEST PUSH1 0x0 PUSH2 0x1795 PUSH2 0x20F4 DUP6 DUP6 PUSH2 0x2AE9 JUMP JUMPDEST PUSH1 0x0 PUSH1 0x1 PUSH2 0x1FF PUSH1 0x7C SHL SUB NOT DUP3 SLT ISZERO PUSH2 0x258C JUMPI POP PUSH1 0x0 PUSH2 0x67D JUMP JUMPDEST DUP2 PUSH2 0x259C JUMPI POP PUSH1 0x1 PUSH1 0x7F SHL PUSH2 0x67D JUMP JUMPDEST PUSH1 0x0 DUP3 SGT ISZERO PUSH2 0x25B3 JUMPI PUSH2 0x25B3 PUSH2 0x4E3 PUSH1 0x1 DUP5 PUSH2 0x2B83 JUMP JUMPDEST PUSH1 0x1 PUSH1 0x7F SHL PUSH1 0x1 PUSH1 0x7C SHL DUP4 SMOD DUP1 DUP1 MUL DUP3 SWAP1 SDIV PUSH8 0x10E1B3BE415A0000 DUP2 MUL SWAP4 SWAP1 SWAP4 ADD SWAP3 SWAP1 SWAP2 DUP2 DUP4 MUL SDIV SWAP1 POP DUP1 PUSH8 0x5A0913F6B1E0000 MUL DUP4 ADD SWAP3 POP PUSH1 0x1 PUSH1 0x7F SHL DUP3 DUP3 MUL DUP2 PUSH2 0x25FB JUMPI INVALID JUMPDEST SDIV SWAP1 POP DUP1 PUSH8 0x168244FDAC78000 MUL DUP4 ADD SWAP3 POP PUSH1 0x1 PUSH1 0x7F SHL DUP3 DUP3 MUL DUP2 PUSH2 0x261C JUMPI INVALID JUMPDEST SDIV SWAP1 POP DUP1 PUSH7 0x4807432BC18000 MUL DUP4 ADD SWAP3 POP PUSH1 0x1 PUSH1 0x7F SHL DUP3 DUP3 MUL DUP2 PUSH2 0x263C JUMPI INVALID JUMPDEST SDIV SWAP1 POP DUP1 PUSH7 0xC0135DCA04000 MUL DUP4 ADD SWAP3 POP PUSH1 0x1 PUSH1 0x7F SHL DUP3 DUP3 MUL DUP2 PUSH2 0x265C JUMPI INVALID JUMPDEST SDIV SWAP1 POP DUP1 PUSH7 0x1B707B1CDC000 MUL DUP4 ADD SWAP3 POP PUSH1 0x1 PUSH1 0x7F SHL DUP3 DUP3 MUL DUP2 PUSH2 0x267C JUMPI INVALID JUMPDEST SDIV SWAP1 POP DUP1 PUSH6 0x36E0F639B800 MUL DUP4 ADD SWAP3 POP PUSH1 0x1 PUSH1 0x7F SHL DUP3 DUP3 MUL DUP2 PUSH2 0x269B JUMPI INVALID JUMPDEST SDIV SWAP1 POP DUP1 PUSH6 0x618FEE9F800 MUL DUP4 ADD SWAP3 POP PUSH1 0x1 PUSH1 0x7F SHL DUP3 DUP3 MUL DUP2 PUSH2 0x26BA JUMPI INVALID JUMPDEST SDIV SWAP1 POP DUP1 PUSH5 0x9C197DCC00 MUL DUP4 ADD SWAP3 POP PUSH1 0x1 PUSH1 0x7F SHL DUP3 DUP3 MUL DUP2 PUSH2 0x26D8 JUMPI INVALID JUMPDEST SDIV SWAP1 POP DUP1 PUSH5 0xE30DCE400 MUL DUP4 ADD SWAP3 POP PUSH1 0x1 PUSH1 0x7F SHL DUP3 DUP3 MUL DUP2 PUSH2 0x26F6 JUMPI INVALID JUMPDEST SDIV SWAP1 POP DUP1 PUSH5 0x12EBD1300 MUL DUP4 ADD SWAP3 POP PUSH1 0x1 PUSH1 0x7F SHL DUP3 DUP3 MUL DUP2 PUSH2 0x2714 JUMPI INVALID JUMPDEST SDIV SWAP1 POP DUP1 PUSH4 0x17499F00 MUL DUP4 ADD SWAP3 POP PUSH1 0x1 PUSH1 0x7F SHL DUP3 DUP3 MUL DUP2 PUSH2 0x2731 JUMPI INVALID JUMPDEST SDIV SWAP1 POP DUP1 PUSH4 0x1A9D480 MUL DUP4 ADD SWAP3 POP PUSH1 0x1 PUSH1 0x7F SHL DUP3 DUP3 MUL DUP2 PUSH2 0x274E JUMPI INVALID JUMPDEST SDIV SWAP1 POP DUP1 PUSH3 0x1C6380 MUL DUP4 ADD SWAP3 POP PUSH1 0x1 PUSH1 0x7F SHL DUP3 DUP3 MUL DUP2 PUSH2 0x276A JUMPI INVALID JUMPDEST SDIV SWAP1 POP DUP1 PUSH3 0x1C638 MUL DUP4 ADD SWAP3 POP PUSH1 0x1 PUSH1 0x7F SHL DUP3 DUP3 MUL DUP2 PUSH2 0x2786 JUMPI INVALID JUMPDEST SDIV SWAP1 POP DUP1 PUSH2 0x1AB8 MUL DUP4 ADD SWAP3 POP PUSH1 0x1 PUSH1 0x7F SHL DUP3 DUP3 MUL DUP2 PUSH2 0x27A1 JUMPI INVALID JUMPDEST SDIV SWAP1 POP DUP1 PUSH2 0x17C MUL DUP4 ADD SWAP3 POP PUSH1 0x1 PUSH1 0x7F SHL DUP3 DUP3 MUL DUP2 PUSH2 0x27BC JUMPI INVALID JUMPDEST SDIV SWAP1 POP DUP1 PUSH1 0x14 MUL DUP4 ADD SWAP3 POP PUSH1 0x1 PUSH1 0x7F SHL DUP3 DUP3 MUL DUP2 PUSH2 0x27D6 JUMPI INVALID JUMPDEST PUSH1 0x0 SWAP6 SWAP1 SWAP6 SUB SWAP5 PUSH8 0x21C3677C82B40000 SWAP2 SWAP1 SDIV SWAP4 DUP5 ADD SDIV DUP3 ADD PUSH1 0x1 PUSH1 0x7F SHL ADD SWAP3 SWAP1 POP PUSH1 0x1 PUSH1 0x84 SHL DUP5 AND ISZERO PUSH2 0x282C JUMPI PUSH19 0x43CBAF42A000812488FC5C220AD7B97BF6E99E PUSH13 0xF1AADDD7742E56D32FB9F99744 DUP5 MUL SDIV SWAP3 POP JUMPDEST PUSH1 0x1 PUSH1 0x83 SHL DUP5 AND ISZERO PUSH2 0x2861 JUMPI PUSH18 0x5D27A9F51C31B7C2F8038212A0574779991 PUSH15 0xAFE10820813D65DFE6A33C07F738F DUP5 MUL SDIV SWAP3 POP JUMPDEST PUSH1 0x1 PUSH1 0x82 SHL DUP5 AND ISZERO PUSH2 0x2896 JUMPI PUSH17 0x1B4C902E273A58678D6D3BFDB93DB96D02 PUSH16 0x2582AB704279E8EFD15E0265855C47A DUP5 MUL SDIV SWAP3 POP JUMPDEST PUSH1 0x1 PUSH1 0x81 SHL DUP5 AND ISZERO PUSH2 0x28CB JUMPI PUSH17 0x3B1CC971A9BB5B9867477440D6D157750 PUSH16 0x1152AAA3BF81CB9FDB76EAE12D029571 DUP5 MUL SDIV SWAP3 POP JUMPDEST PUSH1 0x1 PUSH1 0x80 SHL DUP5 AND ISZERO PUSH2 0x2900 JUMPI PUSH17 0x15BF0A8B1457695355FB8AC404E7A79E3 PUSH16 0x2F16AC6C59DE6F8D5D6F63C1482A7C86 DUP5 MUL SDIV SWAP3 POP JUMPDEST PUSH1 0x1 PUSH1 0x7F SHL DUP5 AND ISZERO PUSH2 0x2934 JUMPI PUSH16 0xD3094C70F034DE4B96FF7D5B6F99FCD8 PUSH16 0x4DA2CBF1BE5827F9EB3AD1AA9866EBB3 DUP5 MUL SDIV SWAP3 POP JUMPDEST PUSH1 0x1 PUSH1 0x7E SHL DUP5 AND ISZERO PUSH2 0x2968 JUMPI PUSH16 0xA45AF1E1F40C333B3DE1DB4DD55F29A7 PUSH16 0x63AFBE7AB2082BA1A0AE5E4EB1B479DC DUP5 MUL SDIV SWAP3 POP JUMPDEST PUSH1 0x1 PUSH1 0x7D SHL DUP5 AND ISZERO PUSH2 0x299C JUMPI PUSH16 0x910B022DB7AE67CE76B441C27035C6A1 PUSH16 0x70F5A893B608861E1F58934F97AEA57D DUP5 MUL SDIV SWAP3 POP JUMPDEST PUSH1 0x1 PUSH1 0x7C SHL DUP5 AND ISZERO PUSH2 0x29D0 JUMPI PUSH16 0x88415ABBE9A76BEAD8D00CF112E4D4A8 PUSH16 0x783EAFEF1C0A8F3978C7F81824D62EBF DUP5 MUL SDIV SWAP3 POP JUMPDEST POP POP SWAP2 SWAP1 POP JUMP JUMPDEST PUSH1 0x0 PUSH1 0x1 PUSH1 0x7F SHL PUSH2 0x29E8 DUP5 DUP5 PUSH2 0x2AE9 JUMP JUMPDEST DUP2 PUSH2 0x29EF JUMPI INVALID JUMPDEST SDIV SWAP4 SWAP3 POP POP POP JUMP JUMPDEST PUSH1 0x0 DUP1 DUP3 SLT ISZERO PUSH2 0x2A0F JUMPI PUSH2 0x2A0F PUSH2 0x4E3 PUSH1 0x1 DUP5 PUSH2 0x2AC1 JUMP JUMPDEST PUSH1 0x0 PUSH2 0x2A1B DUP5 DUP5 PUSH2 0x2AE9 JUMP JUMPDEST SWAP1 POP PUSH1 0x0 DUP2 SGT PUSH2 0x2A2F JUMPI PUSH1 0x0 SWAP2 POP POP PUSH2 0x774 JUMP JUMPDEST PUSH1 0x7F SHR SWAP4 SWAP3 POP POP POP JUMP JUMPDEST PUSH1 0x20 ADD MLOAD ISZERO ISZERO SWAP1 JUMP JUMPDEST PUSH1 0x0 DUP1 DUP6 PUSH2 0x2A54 JUMPI POP DUP3 SWAP1 POP DUP2 PUSH2 0x2A9B JUMP JUMPDEST DUP4 PUSH2 0x2A63 JUMPI POP DUP5 SWAP1 POP DUP4 PUSH2 0x2A9B JUMP JUMPDEST PUSH2 0x2A86 PUSH2 0x2A76 DUP6 DUP8 PUSH4 0xFFFFFFFF PUSH2 0x1E99 AND JUMP JUMPDEST PUSH2 0x1B5D DUP9 DUP7 PUSH4 0xFFFFFFFF PUSH2 0x1E99 AND JUMP JUMPDEST SWAP2 POP PUSH2 0x2A98 DUP6 DUP5 PUSH4 0xFFFFFFFF PUSH2 0x1E99 AND JUMP JUMPDEST SWAP1 POP JUMPDEST SWAP5 POP SWAP5 SWAP3 POP POP POP JUMP JUMPDEST PUSH1 0x0 DUP1 PUSH2 0x2AB6 DUP5 DUP5 PUSH1 0x1 PUSH1 0x7F SHL PUSH2 0x2B99 JUMP JUMPDEST SWAP2 POP SWAP2 POP SWAP3 POP SWAP3 SWAP1 POP JUMP JUMPDEST PUSH1 0x60 PUSH4 0xBD79545F PUSH1 0xE0 SHL DUP4 PUSH1 0x1 DUP2 GT ISZERO PUSH2 0x2AD7 JUMPI INVALID JUMPDEST DUP4 PUSH1 0x40 MLOAD PUSH1 0x24 ADD PUSH2 0xEFD SWAP3 SWAP2 SWAP1 PUSH2 0x31A7 JUMP JUMPDEST PUSH1 0x0 DUP3 ISZERO DUP1 PUSH2 0x2AF6 JUMPI POP DUP2 ISZERO JUMPDEST ISZERO PUSH2 0x2B03 JUMPI POP PUSH1 0x0 PUSH2 0x774 JUMP JUMPDEST POP DUP2 DUP2 MUL DUP2 DUP4 DUP3 DUP2 PUSH2 0x2B11 JUMPI INVALID JUMPDEST SDIV EQ ISZERO DUP1 PUSH2 0x2B28 JUMPI POP DUP3 DUP3 DUP3 DUP2 PUSH2 0x2B24 JUMPI INVALID JUMPDEST SDIV EQ ISZERO JUMPDEST ISZERO PUSH2 0x774 JUMPI PUSH2 0x774 PUSH2 0x4E3 PUSH1 0x1 DUP6 DUP6 PUSH2 0x2C07 JUMP JUMPDEST PUSH1 0x0 DUP2 PUSH2 0x2B52 JUMPI PUSH2 0x2B52 PUSH2 0x4E3 PUSH1 0x2 DUP6 DUP6 PUSH2 0x2C07 JUMP JUMPDEST PUSH1 0x1 PUSH1 0xFF SHL DUP4 EQ DUP1 ISZERO PUSH2 0x2B66 JUMPI POP DUP2 PUSH1 0x0 NOT EQ JUMPDEST ISZERO PUSH2 0x2B7A JUMPI PUSH2 0x2B7A PUSH2 0x4E3 PUSH1 0x3 DUP6 DUP6 PUSH2 0x2C07 JUMP JUMPDEST DUP2 DUP4 DUP2 PUSH2 0x29EF JUMPI INVALID JUMPDEST PUSH1 0x60 PUSH4 0xED2F26A1 PUSH1 0xE0 SHL DUP4 PUSH1 0x1 DUP2 GT ISZERO PUSH2 0x2AD7 JUMPI INVALID JUMPDEST PUSH1 0x0 DUP1 DUP3 DUP6 GT DUP1 PUSH2 0x2BA9 JUMPI POP DUP3 DUP5 GT JUMPDEST ISZERO PUSH2 0x2BFE JUMPI PUSH1 0x0 DUP5 DUP7 LT ISZERO PUSH2 0x2BBE JUMPI DUP5 PUSH2 0x2BC0 JUMP JUMPDEST DUP6 JUMPDEST SWAP1 POP PUSH2 0x2BD2 DUP2 DUP6 PUSH4 0xFFFFFFFF PUSH2 0x1ECA AND JUMP JUMPDEST SWAP1 POP PUSH2 0x2BE4 DUP7 DUP3 PUSH4 0xFFFFFFFF PUSH2 0x1ECA AND JUMP JUMPDEST SWAP3 POP PUSH2 0x2BF6 DUP6 DUP3 PUSH4 0xFFFFFFFF PUSH2 0x1ECA AND JUMP JUMPDEST SWAP2 POP POP PUSH2 0x165B JUMP JUMPDEST POP SWAP3 SWAP4 SWAP2 SWAP3 POP POP JUMP JUMPDEST PUSH1 0x60 PUSH4 0x8C12DFE7 PUSH1 0xE0 SHL DUP5 PUSH1 0x3 DUP2 GT ISZERO PUSH2 0x2C1D JUMPI INVALID JUMPDEST DUP5 DUP5 PUSH1 0x40 MLOAD PUSH1 0x24 ADD PUSH2 0x1961 SWAP4 SWAP3 SWAP2 SWAP1 PUSH2 0x31B5 JUMP JUMPDEST PUSH1 0x40 MLOAD DUP1 PUSH1 0xA0 ADD PUSH1 0x40 MSTORE DUP1 PUSH1 0x0 DUP2 MSTORE PUSH1 0x20 ADD PUSH1 0x0 DUP2 MSTORE PUSH1 0x20 ADD PUSH1 0x0 DUP2 MSTORE PUSH1 0x20 ADD PUSH1 0x0 DUP2 MSTORE PUSH1 0x20 ADD PUSH1 0x0 DUP2 MSTORE POP SWAP1 JUMP JUMPDEST PUSH1 0x40 DUP1 MLOAD PUSH1 0x60 DUP2 ADD DUP3 MSTORE PUSH1 0x0 DUP1 DUP3 MSTORE PUSH1 0x20 DUP3 ADD DUP2 SWAP1 MSTORE SWAP2 DUP2 ADD SWAP2 SWAP1 SWAP2 MSTORE SWAP1 JUMP JUMPDEST PUSH1 0x40 DUP1 MLOAD DUP1 DUP3 ADD SWAP1 SWAP2 MSTORE PUSH1 0x0 DUP1 DUP3 MSTORE PUSH1 0x20 DUP3 ADD MSTORE SWAP1 JUMP JUMPDEST PUSH1 0x40 MLOAD DUP1 PUSH1 0x60 ADD PUSH1 0x40 MSTORE DUP1 PUSH1 0x0 DUP2 MSTORE PUSH1 0x20 ADD PUSH1 0x0 DUP2 MSTORE PUSH1 0x20 ADD PUSH1 0x0 DUP2 MSTORE POP SWAP1 JUMP JUMPDEST DUP2 SLOAD DUP2 DUP4 SSTORE DUP2 DUP2 GT ISZERO PUSH2 0x1560 JUMPI PUSH1 0x0 DUP4 DUP2 MSTORE PUSH1 0x20 SWAP1 KECCAK256 PUSH2 0x1560 SWAP2 DUP2 ADD SWAP1 DUP4 ADD PUSH2 0x2CF6 JUMP JUMPDEST PUSH1 0x40 MLOAD DUP1 PUSH1 0x40 ADD PUSH1 0x40 MSTORE DUP1 PUSH1 0x0 DUP2 MSTORE PUSH1 0x20 ADD PUSH1 0x0 DUP2 MSTORE POP SWAP1 JUMP JUMPDEST PUSH2 0x5F2 SWAP2 SWAP1 JUMPDEST DUP1 DUP3 GT ISZERO PUSH2 0x2D10 JUMPI PUSH1 0x0 DUP2 SSTORE PUSH1 0x1 ADD PUSH2 0x2CFC JUMP JUMPDEST POP SWAP1 JUMP JUMPDEST DUP1 CALLDATALOAD PUSH2 0x774 DUP2 PUSH2 0x326E JUMP JUMPDEST DUP1 MLOAD PUSH2 0x774 DUP2 PUSH2 0x3282 JUMP JUMPDEST DUP1 CALLDATALOAD PUSH2 0x774 DUP2 PUSH2 0x328B JUMP JUMPDEST DUP1 CALLDATALOAD PUSH2 0x774 DUP2 PUSH2 0x3294 JUMP JUMPDEST DUP1 MLOAD PUSH2 0x774 DUP2 PUSH2 0x328B JUMP JUMPDEST PUSH1 0x0 PUSH1 0x20 DUP3 DUP5 SUB SLT ISZERO PUSH2 0x2D5D JUMPI PUSH1 0x0 DUP1 REVERT JUMPDEST PUSH1 0x0 PUSH2 0x1795 DUP5 DUP5 PUSH2 0x2D14 JUMP JUMPDEST PUSH1 0x0 DUP1 PUSH1 0x40 DUP4 DUP6 SUB SLT ISZERO PUSH2 0x2D7C JUMPI PUSH1 0x0 DUP1 REVERT JUMPDEST PUSH1 0x0 PUSH2 0x2D88 DUP6 DUP6 PUSH2 0x2D14 JUMP JUMPDEST SWAP3 POP POP PUSH1 0x20 PUSH2 0x2D99 DUP6 DUP3 DUP7 ADD PUSH2 0x2D2A JUMP JUMPDEST SWAP2 POP POP SWAP3 POP SWAP3 SWAP1 POP JUMP JUMPDEST PUSH1 0x0 DUP1 PUSH1 0x40 DUP4 DUP6 SUB SLT ISZERO PUSH2 0x2DB6 JUMPI PUSH1 0x0 DUP1 REVERT JUMPDEST PUSH1 0x0 PUSH2 0x2DC2 DUP6 DUP6 PUSH2 0x2D14 JUMP JUMPDEST SWAP3 POP POP PUSH1 0x20 PUSH2 0x2D99 DUP6 DUP3 DUP7 ADD PUSH2 0x2D35 JUMP JUMPDEST PUSH1 0x0 PUSH1 0x20 DUP3 DUP5 SUB SLT ISZERO PUSH2 0x2DE5 JUMPI PUSH1 0x0 DUP1 REVERT JUMPDEST PUSH1 0x0 PUSH2 0x1795 DUP5 DUP5 PUSH2 0x2D1F JUMP JUMPDEST PUSH1 0x0 PUSH1 0x20 DUP3 DUP5 SUB SLT ISZERO PUSH2 0x2E03 JUMPI PUSH1 0x0 DUP1 REVERT JUMPDEST PUSH1 0x0 PUSH2 0x1795 DUP5 DUP5 PUSH2 0x2D2A JUMP JUMPDEST PUSH1 0x0 DUP1 PUSH1 0x40 DUP4 DUP6 SUB SLT ISZERO PUSH2 0x2E22 JUMPI PUSH1 0x0 DUP1 REVERT JUMPDEST PUSH1 0x0 PUSH2 0x2E2E DUP6 DUP6 PUSH2 0x2D2A JUMP JUMPDEST SWAP3 POP POP PUSH1 0x20 PUSH2 0x2D99 DUP6 DUP3 DUP7 ADD PUSH2 0x2D14 JUMP JUMPDEST PUSH1 0x0 DUP1 PUSH1 0x40 DUP4 DUP6 SUB SLT ISZERO PUSH2 0x2E52 JUMPI PUSH1 0x0 DUP1 REVERT JUMPDEST PUSH1 0x0 PUSH2 0x2D88 DUP6 DUP6 PUSH2 0x2D2A JUMP JUMPDEST PUSH1 0x0 PUSH1 0x20 DUP3 DUP5 SUB SLT ISZERO PUSH2 0x2E70 JUMPI PUSH1 0x0 DUP1 REVERT JUMPDEST PUSH1 0x0 PUSH2 0x1795 DUP5 DUP5 PUSH2 0x2D35 JUMP JUMPDEST PUSH1 0x0 PUSH1 0x20 DUP3 DUP5 SUB SLT ISZERO PUSH2 0x2E8E JUMPI PUSH1 0x0 DUP1 REVERT JUMPDEST PUSH1 0x0 PUSH2 0x1795 DUP5 DUP5 PUSH2 0x2D40 JUMP JUMPDEST PUSH1 0x0 PUSH2 0x2EA6 DUP4 DUP4 PUSH2 0x2EAE JUMP JUMPDEST POP POP PUSH1 0x20 ADD SWAP1 JUMP JUMPDEST PUSH2 0x2EB7 DUP2 PUSH2 0x31D6 JUMP JUMPDEST DUP3 MSTORE POP POP JUMP JUMPDEST PUSH1 0x0 PUSH2 0x2EC8 DUP3 PUSH2 0x31C9 JUMP JUMPDEST PUSH2 0x2ED2 DUP2 DUP6 PUSH2 0x31CD JUMP JUMPDEST SWAP4 POP PUSH2 0x2EDD DUP4 PUSH2 0x31C3 JUMP JUMPDEST DUP1 PUSH1 0x0 JUMPDEST DUP4 DUP2 LT ISZERO PUSH2 0x2F0B JUMPI DUP2 MLOAD PUSH2 0x2EF5 DUP9 DUP3 PUSH2 0x2E9A JUMP JUMPDEST SWAP8 POP PUSH2 0x2F00 DUP4 PUSH2 0x31C3 JUMP JUMPDEST SWAP3 POP POP PUSH1 0x1 ADD PUSH2 0x2EE1 JUMP JUMPDEST POP SWAP5 SWAP6 SWAP5 POP POP POP POP POP JUMP JUMPDEST PUSH2 0x2EB7 DUP2 PUSH2 0x31E1 JUMP JUMPDEST PUSH2 0x2EB7 DUP2 PUSH2 0x5F2 JUMP JUMPDEST PUSH2 0x2EB7 DUP2 PUSH2 0x322E JUMP JUMPDEST PUSH2 0x2EB7 DUP2 PUSH2 0x3239 JUMP JUMPDEST PUSH2 0x2EB7 DUP2 PUSH2 0x3244 JUMP JUMPDEST PUSH2 0x2EB7 DUP2 PUSH2 0x324F JUMP JUMPDEST PUSH1 0x0 PUSH2 0x2F59 PUSH1 0x1E DUP4 PUSH2 0x31CD JUMP JUMPDEST PUSH32 0x43414C4C45525F49535F534D4152545F434F4E54524143545F4552524F520000 DUP2 MSTORE PUSH1 0x20 ADD SWAP3 SWAP2 POP POP JUMP JUMPDEST PUSH1 0x0 PUSH2 0x2F92 PUSH1 0x13 DUP4 PUSH2 0x31CD JUMP JUMPDEST PUSH19 0x10D497D25395115495905317D2539590531251 PUSH1 0x6A SHL DUP2 MSTORE PUSH1 0x20 ADD SWAP3 SWAP2 POP POP JUMP JUMPDEST DUP1 MLOAD PUSH1 0x60 DUP4 ADD SWAP1 PUSH2 0x2FC5 DUP5 DUP3 PUSH2 0x2FFA JUMP JUMPDEST POP PUSH1 0x20 DUP3 ADD MLOAD PUSH2 0x2FD8 PUSH1 0x20 DUP6 ADD DUP3 PUSH2 0x300C JUMP JUMPDEST POP PUSH1 0x40 DUP3 ADD MLOAD PUSH2 0x2FEB PUSH1 0x40 DUP6 ADD DUP3 PUSH2 0x300C JUMP JUMPDEST POP POP POP POP JUMP JUMPDEST PUSH2 0x2EB7 DUP2 PUSH2 0x3206 JUMP JUMPDEST PUSH2 0x2EB7 DUP2 PUSH2 0x320F JUMP JUMPDEST PUSH2 0x2EB7 DUP2 PUSH2 0x321C JUMP JUMPDEST PUSH2 0x2EB7 DUP2 PUSH2 0x3222 JUMP JUMPDEST PUSH1 0x20 DUP2 ADD PUSH2 0x774 DUP3 DUP5 PUSH2 0x2EAE JUMP JUMPDEST PUSH1 0x40 DUP2 ADD PUSH2 0x3031 DUP3 DUP6 PUSH2 0x2EAE JUMP JUMPDEST PUSH2 0x1996 PUSH1 0x20 DUP4 ADD DUP5 PUSH2 0x2EAE JUMP JUMPDEST PUSH1 0x40 DUP2 ADD PUSH2 0x304C DUP3 DUP6 PUSH2 0x2EAE JUMP JUMPDEST PUSH2 0x1996 PUSH1 0x20 DUP4 ADD DUP5 PUSH2 0x2F1F JUMP JUMPDEST PUSH1 0x20 DUP1 DUP3 MSTORE DUP2 ADD PUSH2 0x1996 DUP2 DUP5 PUSH2 0x2EBD JUMP JUMPDEST PUSH1 0x20 DUP2 ADD PUSH2 0x774 DUP3 DUP5 PUSH2 0x2F16 JUMP JUMPDEST PUSH1 0x20 DUP2 ADD PUSH2 0x774 DUP3 DUP5 PUSH2 0x2F1F JUMP JUMPDEST PUSH1 0x40 DUP2 ADD PUSH2 0x304C DUP3 DUP6 PUSH2 0x2F1F JUMP JUMPDEST PUSH1 0x20 DUP2 ADD PUSH2 0x774 DUP3 DUP5 PUSH2 0x2F28 JUMP JUMPDEST PUSH1 0x60 DUP2 ADD PUSH2 0x30B0 DUP3 DUP7 PUSH2 0x2F31 JUMP JUMPDEST PUSH2 0x30BD PUSH1 0x20 DUP4 ADD DUP6 PUSH2 0x2F1F JUMP JUMPDEST PUSH2 0x1795 PUSH1 0x40 DUP4 ADD DUP5 PUSH2 0x2F1F JUMP JUMPDEST PUSH1 0x40 DUP2 ADD PUSH2 0x304C DUP3 DUP6 PUSH2 0x2F3A JUMP JUMPDEST PUSH1 0x40 DUP2 ADD PUSH2 0x304C DUP3 DUP6 PUSH2 0x2F43 JUMP JUMPDEST PUSH1 0x20 DUP1 DUP3 MSTORE DUP2 ADD PUSH2 0x67A DUP2 PUSH2 0x2F4C JUMP JUMPDEST PUSH1 0x20 DUP1 DUP3 MSTORE DUP2 ADD PUSH2 0x67A DUP2 PUSH2 0x2F85 JUMP JUMPDEST PUSH1 0x60 DUP2 ADD PUSH2 0x774 DUP3 DUP5 PUSH2 0x2FB4 JUMP JUMPDEST PUSH1 0x60 DUP2 ADD PUSH2 0x30B0 DUP3 DUP7 PUSH2 0x2F1F JUMP JUMPDEST PUSH1 0x80 DUP2 ADD PUSH2 0x3130 DUP3 DUP8 PUSH2 0x2F1F JUMP JUMPDEST PUSH2 0x313D PUSH1 0x20 DUP4 ADD DUP7 PUSH2 0x2F1F JUMP JUMPDEST PUSH2 0x314A PUSH1 0x40 DUP4 ADD DUP6 PUSH2 0x2F1F JUMP JUMPDEST PUSH2 0x20AB PUSH1 0x60 DUP4 ADD DUP5 PUSH2 0x2F1F JUMP JUMPDEST PUSH1 0xA0 DUP2 ADD PUSH2 0x3165 DUP3 DUP9 PUSH2 0x2F1F JUMP JUMPDEST PUSH2 0x3172 PUSH1 0x20 DUP4 ADD DUP8 PUSH2 0x2F1F JUMP JUMPDEST PUSH2 0x317F PUSH1 0x40 DUP4 ADD DUP7 PUSH2 0x2F1F JUMP JUMPDEST PUSH2 0x318C PUSH1 0x60 DUP4 ADD DUP6 PUSH2 0x2F1F JUMP JUMPDEST PUSH2 0x1C06 PUSH1 0x80 DUP4 ADD DUP5 PUSH2 0x2F1F JUMP JUMPDEST PUSH1 0x20 DUP2 ADD PUSH2 0x774 DUP3 DUP5 PUSH2 0x2FF1 JUMP JUMPDEST PUSH1 0x40 DUP2 ADD PUSH2 0x304C DUP3 DUP6 PUSH2 0x3003 JUMP JUMPDEST PUSH1 0x60 DUP2 ADD PUSH2 0x30B0 DUP3 DUP7 PUSH2 0x3003 JUMP JUMPDEST PUSH1 0x20 ADD SWAP1 JUMP JUMPDEST MLOAD SWAP1 JUMP JUMPDEST SWAP1 DUP2 MSTORE PUSH1 0x20 ADD SWAP1 JUMP JUMPDEST PUSH1 0x0 PUSH2 0x67A DUP3 PUSH2 0x31FA JUMP JUMPDEST ISZERO ISZERO SWAP1 JUMP JUMPDEST DUP1 PUSH2 0x67D DUP2 PUSH2 0x325A JUMP JUMPDEST DUP1 PUSH2 0x67D DUP2 PUSH2 0x3264 JUMP JUMPDEST PUSH1 0x1 PUSH1 0x1 PUSH1 0xA0 SHL SUB AND SWAP1 JUMP JUMPDEST PUSH4 0xFFFFFFFF AND SWAP1 JUMP JUMPDEST PUSH8 0xFFFFFFFFFFFFFFFF AND SWAP1 JUMP JUMPDEST PUSH1 0xFF AND SWAP1 JUMP JUMPDEST PUSH1 0x1 PUSH1 0x1 PUSH1 0x60 SHL SUB AND SWAP1 JUMP JUMPDEST PUSH1 0x0 PUSH2 0x67A DUP3 PUSH2 0x31D6 JUMP JUMPDEST PUSH1 0x0 PUSH2 0x67A DUP3 PUSH2 0x31E6 JUMP JUMPDEST PUSH1 0x0 PUSH2 0x67A DUP3 PUSH2 0x31F0 JUMP JUMPDEST PUSH1 0x0 PUSH2 0x67A DUP3 PUSH2 0x5F2 JUMP JUMPDEST PUSH1 0x4 DUP2 LT PUSH2 0x725 JUMPI INVALID JUMPDEST PUSH1 0x3 DUP2 LT PUSH2 0x725 JUMPI INVALID JUMPDEST PUSH2 0x3277 DUP2 PUSH2 0x31D6 JUMP JUMPDEST DUP2 EQ PUSH2 0x725 JUMPI PUSH1 0x0 DUP1 REVERT JUMPDEST PUSH2 0x3277 DUP2 PUSH2 0x31E1 JUMP JUMPDEST PUSH2 0x3277 DUP2 PUSH2 0x5F2 JUMP JUMPDEST PUSH1 0x2 DUP2 LT PUSH2 0x725 JUMPI PUSH1 0x0 DUP1 REVERT INVALID LOG3 PUSH6 0x627A7A723158 KECCAK256 SLOAD 0xE GASPRICE SLT 0xDB CALLVALUE PUSH27 0x92D64EACE980B0EA4DD1AEA505074C36A70657E83FF490923C6C65 PUSH25 0x706572696D656E74616CF564736F6C63430005110040000000 "
		},
		"gasEstimates": {
			"creation": {
				"codeDepositCost": "2605600",
				"executionCost": "23635",
				"totalCost": "2629235"
			},
			"external": {
				"addAuthorizedAddress(address)": "infinite",
				"aggregatedStatsByEpoch(uint256)": "infinite",
				"authorities(uint256)": "infinite",
				"authorized(address)": "infinite",
				"cobbDouglasAlphaDenominator()": "1233",
				"cobbDouglasAlphaNumerator()": "1200",
				"computeRewardBalanceOfDelegator(bytes32,address)": "infinite",
				"computeRewardBalanceOfOperator(bytes32)": "infinite",
				"currentEpoch()": "1166",
				"currentEpochStartTimeInSeconds()": "1145",
				"endEpoch()": "infinite",
				"epochDurationInSeconds()": "1211",
				"finalizePool(bytes32)": "infinite",
				"getAuthorizedAddresses()": "infinite",
				"getCurrentEpochEarliestEndTimeInSeconds()": "infinite",
				"getGlobalStakeByStatus(uint8)": "infinite",
				"getGrgVault()": "infinite",
				"getOwnerStakeByStatus(address,uint8)": "infinite",
				"getStakeDelegatedToPoolByOwner(address,bytes32)": "infinite",
				"getTotalStake(address)": "infinite",
				"getTotalStakeDelegatedToPool(bytes32)": "infinite",
				"getWethContract()": "infinite",
				"lastPoolId()": "1167",
				"minimumPoolStake()": "1145",
				"owner()": "1290",
				"poolIdByRbPool(address)": "infinite",
				"poolStatsByEpoch(bytes32,uint256)": "infinite",
				"removeAuthorizedAddress(address)": "infinite",
				"removeAuthorizedAddressAtIndex(address,uint256)": "infinite",
				"rewardDelegatedStakeWeight()": "1178",
				"rewardsByPoolId(bytes32)": "infinite",
				"stakingContract()": "1245",
				"transferOwnership(address)": "infinite",
				"validExchanges(address)": "infinite",
				"wethReservedForPoolRewards()": "1189",
				"withdrawDelegatorRewards(bytes32)": "infinite"
			},
			"internal": {
				"_assertPoolFinalizedLastEpoch(bytes32)": "infinite",
				"_getAvailableWethBalance()": "infinite",
				"_getUnfinalizedPoolRewards(bytes32)": "infinite",
				"_getUnfinalizedPoolRewardsFromPoolStats(struct IStructs.PoolStats memory,struct IStructs.AggregatedStats memory)": "infinite",
				"_isContract(address)": "718",
				"_wrapEth()": "infinite"
			}
		},
		"methodIdentifiers": {
			"addAuthorizedAddress(address)": "42f1181e",
			"aggregatedStatsByEpoch(uint256)": "38229d93",
			"authorities(uint256)": "494503d4",
			"authorized(address)": "b9181611",
			"cobbDouglasAlphaDenominator()": "e8eeb3f8",
			"cobbDouglasAlphaNumerator()": "81666796",
			"computeRewardBalanceOfDelegator(bytes32,address)": "e907f003",
			"computeRewardBalanceOfOperator(bytes32)": "bb7ef7e0",
			"currentEpoch()": "76671808",
			"currentEpochStartTimeInSeconds()": "587da023",
			"endEpoch()": "0b9663db",
			"epochDurationInSeconds()": "63403801",
			"finalizePool(bytes32)": "ff691b11",
			"getAuthorizedAddresses()": "d39de6e9",
			"getCurrentEpochEarliestEndTimeInSeconds()": "b2baa33e",
			"getGlobalStakeByStatus(uint8)": "e804d0a4",
			"getGrgVault()": "e0822db7",
			"getOwnerStakeByStatus(address,uint8)": "44a6958b",
			"getStakeDelegatedToPoolByOwner(address,bytes32)": "f252b7a1",
			"getTotalStake(address)": "1e7ff8f6",
			"getTotalStakeDelegatedToPool(bytes32)": "3e4ad732",
			"getWethContract()": "3c277fc5",
			"lastPoolId()": "a657e579",
			"minimumPoolStake()": "a26171e2",
			"owner()": "8da5cb5b",
			"poolIdByRbPool(address)": "5e30deff",
			"poolStatsByEpoch(bytes32,uint256)": "2a94c279",
			"removeAuthorizedAddress(address)": "70712939",
			"removeAuthorizedAddressAtIndex(address,uint256)": "9ad26744",
			"rewardDelegatedStakeWeight()": "e0ee036e",
			"rewardsByPoolId(bytes32)": "c18c9141",
			"stakingContract()": "ee99205c",
			"transferOwnership(address)": "f2fde38b",
			"validExchanges(address)": "5bd4ab73",
			"wethReservedForPoolRewards()": "b0531524",
			"withdrawDelegatorRewards(bytes32)": "b510879f"
		}
	},
	"abi": [
		{
			"anonymous": false,
			"inputs": [
				{
					"indexed": true,
					"internalType": "address",
					"name": "target",
					"type": "address"
				},
				{
					"indexed": true,
					"internalType": "address",
					"name": "caller",
					"type": "address"
				}
			],
			"name": "AuthorizedAddressAdded",
			"type": "event"
		},
		{
			"anonymous": false,
			"inputs": [
				{
					"indexed": true,
					"internalType": "address",
					"name": "target",
					"type": "address"
				},
				{
					"indexed": true,
					"internalType": "address",
					"name": "caller",
					"type": "address"
				}
			],
			"name": "AuthorizedAddressRemoved",
			"type": "event"
		},
		{
			"anonymous": false,
			"inputs": [
				{
					"indexed": true,
					"internalType": "uint256",
					"name": "epoch",
					"type": "uint256"
				},
				{
					"indexed": false,
					"internalType": "uint256",
					"name": "numPoolsToFinalize",
					"type": "uint256"
				},
				{
					"indexed": false,
					"internalType": "uint256",
					"name": "rewardsAvailable",
					"type": "uint256"
				},
				{
					"indexed": false,
					"internalType": "uint256",
					"name": "totalFeesCollected",
					"type": "uint256"
				},
				{
					"indexed": false,
					"internalType": "uint256",
					"name": "totalWeightedStake",
					"type": "uint256"
				}
			],
			"name": "EpochEnded",
			"type": "event"
		},
		{
			"anonymous": false,
			"inputs": [
				{
					"indexed": true,
					"internalType": "uint256",
					"name": "epoch",
					"type": "uint256"
				},
				{
					"indexed": false,
					"internalType": "uint256",
					"name": "rewardsPaid",
					"type": "uint256"
				},
				{
					"indexed": false,
					"internalType": "uint256",
					"name": "rewardsRemaining",
					"type": "uint256"
				}
			],
			"name": "EpochFinalized",
			"type": "event"
		},
		{
			"anonymous": false,
			"inputs": [
				{
					"indexed": false,
					"internalType": "address",
					"name": "exchangeAddress",
					"type": "address"
				}
			],
			"name": "ExchangeAdded",
			"type": "event"
		},
		{
			"anonymous": false,
			"inputs": [
				{
					"indexed": false,
					"internalType": "address",
					"name": "exchangeAddress",
					"type": "address"
				}
			],
			"name": "ExchangeRemoved",
			"type": "event"
		},
		{
			"anonymous": false,
			"inputs": [
				{
					"indexed": true,
					"internalType": "address",
					"name": "staker",
					"type": "address"
				},
				{
					"indexed": false,
					"internalType": "uint256",
					"name": "amount",
					"type": "uint256"
				},
				{
					"indexed": false,
					"internalType": "uint8",
					"name": "fromStatus",
					"type": "uint8"
				},
				{
					"indexed": true,
					"internalType": "bytes32",
					"name": "fromPool",
					"type": "bytes32"
				},
				{
					"indexed": false,
					"internalType": "uint8",
					"name": "toStatus",
					"type": "uint8"
				},
				{
					"indexed": true,
					"internalType": "bytes32",
					"name": "toPool",
					"type": "bytes32"
				}
			],
			"name": "MoveStake",
			"type": "event"
		},
		{
			"anonymous": false,
			"inputs": [
				{
					"indexed": true,
					"internalType": "bytes32",
					"name": "poolId",
					"type": "bytes32"
				},
				{
					"indexed": false,
					"internalType": "uint32",
					"name": "oldOperatorShare",
					"type": "uint32"
				},
				{
					"indexed": false,
					"internalType": "uint32",
					"name": "newOperatorShare",
					"type": "uint32"
				}
			],
			"name": "OperatorShareDecreased",
			"type": "event"
		},
		{
			"anonymous": false,
			"inputs": [
				{
					"indexed": true,
					"internalType": "address",
					"name": "previousOwner",
					"type": "address"
				},
				{
					"indexed": true,
					"internalType": "address",
					"name": "newOwner",
					"type": "address"
				}
			],
			"name": "OwnershipTransferred",
			"type": "event"
		},
		{
			"anonymous": false,
			"inputs": [
				{
					"indexed": false,
					"internalType": "uint256",
					"name": "epochDurationInSeconds",
					"type": "uint256"
				},
				{
					"indexed": false,
					"internalType": "uint32",
					"name": "rewardDelegatedStakeWeight",
					"type": "uint32"
				},
				{
					"indexed": false,
					"internalType": "uint256",
					"name": "minimumPoolStake",
					"type": "uint256"
				},
				{
					"indexed": false,
					"internalType": "uint256",
					"name": "cobbDouglasAlphaNumerator",
					"type": "uint256"
				},
				{
					"indexed": false,
					"internalType": "uint256",
					"name": "cobbDouglasAlphaDenominator",
					"type": "uint256"
				}
			],
			"name": "ParamsSet",
			"type": "event"
		},
		{
			"anonymous": false,
			"inputs": [
				{
					"indexed": true,
					"internalType": "address",
					"name": "rbPoolAddress",
					"type": "address"
				},
				{
					"indexed": true,
					"internalType": "bytes32",
					"name": "poolId",
					"type": "bytes32"
				}
			],
			"name": "RbPoolStakingPoolSet",
			"type": "event"
		},
		{
			"anonymous": false,
			"inputs": [
				{
					"indexed": true,
					"internalType": "uint256",
					"name": "epoch",
					"type": "uint256"
				},
				{
					"indexed": true,
					"internalType": "bytes32",
					"name": "poolId",
					"type": "bytes32"
				},
				{
					"indexed": false,
					"internalType": "uint256",
					"name": "operatorReward",
					"type": "uint256"
				},
				{
					"indexed": false,
					"internalType": "uint256",
					"name": "membersReward",
					"type": "uint256"
				}
			],
			"name": "RewardsPaid",
			"type": "event"
		},
		{
			"anonymous": false,
			"inputs": [
				{
					"indexed": true,
					"internalType": "address",
					"name": "staker",
					"type": "address"
				},
				{
					"indexed": false,
					"internalType": "uint256",
					"name": "amount",
					"type": "uint256"
				}
			],
			"name": "Stake",
			"type": "event"
		},
		{
			"anonymous": false,
			"inputs": [
				{
					"indexed": false,
					"internalType": "bytes32",
					"name": "poolId",
					"type": "bytes32"
				},
				{
					"indexed": false,
					"internalType": "address",
					"name": "operator",
					"type": "address"
				},
				{
					"indexed": false,
					"internalType": "uint32",
					"name": "operatorShare",
					"type": "uint32"
				}
			],
			"name": "StakingPoolCreated",
			"type": "event"
		},
		{
			"anonymous": false,
			"inputs": [
				{
					"indexed": true,
					"internalType": "uint256",
					"name": "epoch",
					"type": "uint256"
				},
				{
					"indexed": true,
					"internalType": "bytes32",
					"name": "poolId",
					"type": "bytes32"
				}
			],
			"name": "StakingPoolEarnedRewardsInEpoch",
			"type": "event"
		},
		{
			"anonymous": false,
			"inputs": [
				{
					"indexed": true,
					"internalType": "address",
					"name": "staker",
					"type": "address"
				},
				{
					"indexed": false,
					"internalType": "uint256",
					"name": "amount",
					"type": "uint256"
				}
			],
			"name": "Unstake",
			"type": "event"
		},
		{
			"constant": false,
			"inputs": [
				{
					"internalType": "address",
					"name": "target",
					"type": "address"
				}
			],
			"name": "addAuthorizedAddress",
			"outputs": [],
			"payable": false,
			"stateMutability": "nonpayable",
			"type": "function"
		},
		{
			"constant": true,
			"inputs": [
				{
					"internalType": "uint256",
					"name": "",
					"type": "uint256"
				}
			],
			"name": "aggregatedStatsByEpoch",
			"outputs": [
				{
					"internalType": "uint256",
					"name": "rewardsAvailable",
					"type": "uint256"
				},
				{
					"internalType": "uint256",
					"name": "numPoolsToFinalize",
					"type": "uint256"
				},
				{
					"internalType": "uint256",
					"name": "totalFeesCollected",
					"type": "uint256"
				},
				{
					"internalType": "uint256",
					"name": "totalWeightedStake",
					"type": "uint256"
				},
				{
					"internalType": "uint256",
					"name": "totalRewardsFinalized",
					"type": "uint256"
				}
			],
			"payable": false,
			"stateMutability": "view",
			"type": "function"
		},
		{
			"constant": true,
			"inputs": [
				{
					"internalType": "uint256",
					"name": "",
					"type": "uint256"
				}
			],
			"name": "authorities",
			"outputs": [
				{
					"internalType": "address",
					"name": "",
					"type": "address"
				}
			],
			"payable": false,
			"stateMutability": "view",
			"type": "function"
		},
		{
			"constant": true,
			"inputs": [
				{
					"internalType": "address",
					"name": "",
					"type": "address"
				}
			],
			"name": "authorized",
			"outputs": [
				{
					"internalType": "bool",
					"name": "",
					"type": "bool"
				}
			],
			"payable": false,
			"stateMutability": "view",
			"type": "function"
		},
		{
			"constant": true,
			"inputs": [],
			"name": "cobbDouglasAlphaDenominator",
			"outputs": [
				{
					"internalType": "uint32",
					"name": "",
					"type": "uint32"
				}
			],
			"payable": false,
			"stateMutability": "view",
			"type": "function"
		},
		{
			"constant": true,
			"inputs": [],
			"name": "cobbDouglasAlphaNumerator",
			"outputs": [
				{
					"internalType": "uint32",
					"name": "",
					"type": "uint32"
				}
			],
			"payable": false,
			"stateMutability": "view",
			"type": "function"
		},
		{
			"constant": true,
			"inputs": [
				{
					"internalType": "bytes32",
					"name": "poolId",
					"type": "bytes32"
				},
				{
					"internalType": "address",
					"name": "member",
					"type": "address"
				}
			],
			"name": "computeRewardBalanceOfDelegator",
			"outputs": [
				{
					"internalType": "uint256",
					"name": "reward",
					"type": "uint256"
				}
			],
			"payable": false,
			"stateMutability": "view",
			"type": "function"
		},
		{
			"constant": true,
			"inputs": [
				{
					"internalType": "bytes32",
					"name": "poolId",
					"type": "bytes32"
				}
			],
			"name": "computeRewardBalanceOfOperator",
			"outputs": [
				{
					"internalType": "uint256",
					"name": "reward",
					"type": "uint256"
				}
			],
			"payable": false,
			"stateMutability": "view",
			"type": "function"
		},
		{
			"constant": true,
			"inputs": [],
			"name": "currentEpoch",
			"outputs": [
				{
					"internalType": "uint256",
					"name": "",
					"type": "uint256"
				}
			],
			"payable": false,
			"stateMutability": "view",
			"type": "function"
		},
		{
			"constant": true,
			"inputs": [],
			"name": "currentEpochStartTimeInSeconds",
			"outputs": [
				{
					"internalType": "uint256",
					"name": "",
					"type": "uint256"
				}
			],
			"payable": false,
			"stateMutability": "view",
			"type": "function"
		},
		{
			"constant": false,
			"inputs": [],
			"name": "endEpoch",
			"outputs": [
				{
					"internalType": "uint256",
					"name": "",
					"type": "uint256"
				}
			],
			"payable": false,
			"stateMutability": "nonpayable",
			"type": "function"
		},
		{
			"constant": true,
			"inputs": [],
			"name": "epochDurationInSeconds",
			"outputs": [
				{
					"internalType": "uint256",
					"name": "",
					"type": "uint256"
				}
			],
			"payable": false,
			"stateMutability": "view",
			"type": "function"
		},
		{
			"constant": false,
			"inputs": [
				{
					"internalType": "bytes32",
					"name": "poolId",
					"type": "bytes32"
				}
			],
			"name": "finalizePool",
			"outputs": [],
			"payable": false,
			"stateMutability": "nonpayable",
			"type": "function"
		},
		{
			"constant": true,
			"inputs": [],
			"name": "getAuthorizedAddresses",
			"outputs": [
				{
					"internalType": "address[]",
					"name": "",
					"type": "address[]"
				}
			],
			"payable": false,
			"stateMutability": "view",
			"type": "function"
		},
		{
			"constant": true,
			"inputs": [],
			"name": "getCurrentEpochEarliestEndTimeInSeconds",
			"outputs": [
				{
					"internalType": "uint256",
					"name": "",
					"type": "uint256"
				}
			],
			"payable": false,
			"stateMutability": "view",
			"type": "function"
		},
		{
			"constant": true,
			"inputs": [
				{
					"internalType": "enum IStructs.StakeStatus",
					"name": "stakeStatus",
					"type": "uint8"
				}
			],
			"name": "getGlobalStakeByStatus",
			"outputs": [
				{
					"components": [
						{
							"internalType": "uint64",
							"name": "currentEpoch",
							"type": "uint64"
						},
						{
							"internalType": "uint96",
							"name": "currentEpochBalance",
							"type": "uint96"
						},
						{
							"internalType": "uint96",
							"name": "nextEpochBalance",
							"type": "uint96"
						}
					],
					"internalType": "struct IStructs.StoredBalance",
					"name": "balance",
					"type": "tuple"
				}
			],
			"payable": false,
			"stateMutability": "view",
			"type": "function"
		},
		{
			"constant": true,
			"inputs": [],
			"name": "getGrgVault",
			"outputs": [
				{
					"internalType": "contract IGrgVault",
					"name": "grgVault",
					"type": "address"
				}
			],
			"payable": false,
			"stateMutability": "view",
			"type": "function"
		},
		{
			"constant": true,
			"inputs": [
				{
					"internalType": "address",
					"name": "staker",
					"type": "address"
				},
				{
					"internalType": "enum IStructs.StakeStatus",
					"name": "stakeStatus",
					"type": "uint8"
				}
			],
			"name": "getOwnerStakeByStatus",
			"outputs": [
				{
					"components": [
						{
							"internalType": "uint64",
							"name": "currentEpoch",
							"type": "uint64"
						},
						{
							"internalType": "uint96",
							"name": "currentEpochBalance",
							"type": "uint96"
						},
						{
							"internalType": "uint96",
							"name": "nextEpochBalance",
							"type": "uint96"
						}
					],
					"internalType": "struct IStructs.StoredBalance",
					"name": "balance",
					"type": "tuple"
				}
			],
			"payable": false,
			"stateMutability": "view",
			"type": "function"
		},
		{
			"constant": true,
			"inputs": [
				{
					"internalType": "address",
					"name": "staker",
					"type": "address"
				},
				{
					"internalType": "bytes32",
					"name": "poolId",
					"type": "bytes32"
				}
			],
			"name": "getStakeDelegatedToPoolByOwner",
			"outputs": [
				{
					"components": [
						{
							"internalType": "uint64",
							"name": "currentEpoch",
							"type": "uint64"
						},
						{
							"internalType": "uint96",
							"name": "currentEpochBalance",
							"type": "uint96"
						},
						{
							"internalType": "uint96",
							"name": "nextEpochBalance",
							"type": "uint96"
						}
					],
					"internalType": "struct IStructs.StoredBalance",
					"name": "balance",
					"type": "tuple"
				}
			],
			"payable": false,
			"stateMutability": "view",
			"type": "function"
		},
		{
			"constant": true,
			"inputs": [
				{
					"internalType": "address",
					"name": "staker",
					"type": "address"
				}
			],
			"name": "getTotalStake",
			"outputs": [
				{
					"internalType": "uint256",
					"name": "",
					"type": "uint256"
				}
			],
			"payable": false,
			"stateMutability": "view",
			"type": "function"
		},
		{
			"constant": true,
			"inputs": [
				{
					"internalType": "bytes32",
					"name": "poolId",
					"type": "bytes32"
				}
			],
			"name": "getTotalStakeDelegatedToPool",
			"outputs": [
				{
					"components": [
						{
							"internalType": "uint64",
							"name": "currentEpoch",
							"type": "uint64"
						},
						{
							"internalType": "uint96",
							"name": "currentEpochBalance",
							"type": "uint96"
						},
						{
							"internalType": "uint96",
							"name": "nextEpochBalance",
							"type": "uint96"
						}
					],
					"internalType": "struct IStructs.StoredBalance",
					"name": "balance",
					"type": "tuple"
				}
			],
			"payable": false,
			"stateMutability": "view",
			"type": "function"
		},
		{
			"constant": true,
			"inputs": [],
			"name": "getWethContract",
			"outputs": [
				{
					"internalType": "contract IEtherToken",
					"name": "wethContract",
					"type": "address"
				}
			],
			"payable": false,
			"stateMutability": "view",
			"type": "function"
		},
		{
			"constant": true,
			"inputs": [],
			"name": "lastPoolId",
			"outputs": [
				{
					"internalType": "bytes32",
					"name": "",
					"type": "bytes32"
				}
			],
			"payable": false,
			"stateMutability": "view",
			"type": "function"
		},
		{
			"constant": true,
			"inputs": [],
			"name": "minimumPoolStake",
			"outputs": [
				{
					"internalType": "uint256",
					"name": "",
					"type": "uint256"
				}
			],
			"payable": false,
			"stateMutability": "view",
			"type": "function"
		},
		{
			"constant": true,
			"inputs": [],
			"name": "owner",
			"outputs": [
				{
					"internalType": "address",
					"name": "",
					"type": "address"
				}
			],
			"payable": false,
			"stateMutability": "view",
			"type": "function"
		},
		{
			"constant": true,
			"inputs": [
				{
					"internalType": "address",
					"name": "",
					"type": "address"
				}
			],
			"name": "poolIdByRbPool",
			"outputs": [
				{
					"internalType": "bytes32",
					"name": "",
					"type": "bytes32"
				}
			],
			"payable": false,
			"stateMutability": "view",
			"type": "function"
		},
		{
			"constant": true,
			"inputs": [
				{
					"internalType": "bytes32",
					"name": "",
					"type": "bytes32"
				},
				{
					"internalType": "uint256",
					"name": "",
					"type": "uint256"
				}
			],
			"name": "poolStatsByEpoch",
			"outputs": [
				{
					"internalType": "uint256",
					"name": "feesCollected",
					"type": "uint256"
				},
				{
					"internalType": "uint256",
					"name": "weightedStake",
					"type": "uint256"
				},
				{
					"internalType": "uint256",
					"name": "membersStake",
					"type": "uint256"
				}
			],
			"payable": false,
			"stateMutability": "view",
			"type": "function"
		},
		{
			"constant": false,
			"inputs": [
				{
					"internalType": "address",
					"name": "target",
					"type": "address"
				}
			],
			"name": "removeAuthorizedAddress",
			"outputs": [],
			"payable": false,
			"stateMutability": "nonpayable",
			"type": "function"
		},
		{
			"constant": false,
			"inputs": [
				{
					"internalType": "address",
					"name": "target",
					"type": "address"
				},
				{
					"internalType": "uint256",
					"name": "index",
					"type": "uint256"
				}
			],
			"name": "removeAuthorizedAddressAtIndex",
			"outputs": [],
			"payable": false,
			"stateMutability": "nonpayable",
			"type": "function"
		},
		{
			"constant": true,
			"inputs": [],
			"name": "rewardDelegatedStakeWeight",
			"outputs": [
				{
					"internalType": "uint32",
					"name": "",
					"type": "uint32"
				}
			],
			"payable": false,
			"stateMutability": "view",
			"type": "function"
		},
		{
			"constant": true,
			"inputs": [
				{
					"internalType": "bytes32",
					"name": "",
					"type": "bytes32"
				}
			],
			"name": "rewardsByPoolId",
			"outputs": [
				{
					"internalType": "uint256",
					"name": "",
					"type": "uint256"
				}
			],
			"payable": false,
			"stateMutability": "view",
			"type": "function"
		},
		{
			"constant": true,
			"inputs": [],
			"name": "stakingContract",
			"outputs": [
				{
					"internalType": "address",
					"name": "",
					"type": "address"
				}
			],
			"payable": false,
			"stateMutability": "view",
			"type": "function"
		},
		{
			"constant": false,
			"inputs": [
				{
					"internalType": "address",
					"name": "newOwner",
					"type": "address"
				}
			],
			"name": "transferOwnership",
			"outputs": [],
			"payable": false,
			"stateMutability": "nonpayable",
			"type": "function"
		},
		{
			"constant": true,
			"inputs": [
				{
					"internalType": "address",
					"name": "",
					"type": "address"
				}
			],
			"name": "validExchanges",
			"outputs": [
				{
					"internalType": "bool",
					"name": "",
					"type": "bool"
				}
			],
			"payable": false,
			"stateMutability": "view",
			"type": "function"
		},
		{
			"constant": true,
			"inputs": [],
			"name": "wethReservedForPoolRewards",
			"outputs": [
				{
					"internalType": "uint256",
					"name": "",
					"type": "uint256"
				}
			],
			"payable": false,
			"stateMutability": "view",
			"type": "function"
		},
		{
			"constant": false,
			"inputs": [
				{
					"internalType": "bytes32",
					"name": "poolId",
					"type": "bytes32"
				}
			],
			"name": "withdrawDelegatorRewards",
			"outputs": [],
			"payable": false,
			"stateMutability": "nonpayable",
			"type": "function"
		}
	]
}