{
	"data": {
		"bytecode": {
			"linkReferences": {},
			"object": "6080604052600080546001600160a01b03191633179055610e98806100256000396000f3fe608060405234801561001057600080fd5b506004361061018e5760003560e01c80639ad26744116100de578063b918161111610097578063e0ee036e11610071578063e0ee036e146104cf578063e8eeb3f8146104d7578063ee99205c146104df578063f2fde38b146104e75761018e565b8063b918161114610484578063c18c9141146104aa578063d39de6e9146104c75761018e565b80639ad26744146103945780639c3ccc82146103c0578063a26171e2146103ff578063a657e57914610407578063aef864db1461040f578063b05315241461047c5761018e565b80635e30deff1161014b5780637071293911610125578063707129391461033d5780637667180814610363578063816667961461036b5780638da5cb5b1461038c5761018e565b80635e30deff146102d15780635e615a6b146102f757806363403801146103355761018e565b80632a94c2791461019357806338229d93146101d457806342f1181e1461021c578063494503d414610244578063587da0231461027d5780635bd4ab7314610297575b600080fd5b6101b6600480360360408110156101a957600080fd5b508035906020013561050d565b60408051938452602084019290925282820152519081900360600190f35b6101f1600480360360208110156101ea57600080fd5b5035610539565b6040805195865260208601949094528484019290925260608401526080830152519081900360a00190f35b6102426004803603602081101561023257600080fd5b50356001600160a01b0316610568565b005b6102616004803603602081101561025a57600080fd5b503561057c565b604080516001600160a01b039092168252519081900360200190f35b6102856105a3565b60408051918252519081900360200190f35b6102bd600480360360208110156102ad57600080fd5b50356001600160a01b03166105a9565b604080519115158252519081900360200190f35b610285600480360360208110156102e757600080fd5b50356001600160a01b03166105be565b6102ff6105d0565b6040805195865263ffffffff94851660208701528581019390935290831660608501529091166080830152519081900360a00190f35b6102856105f9565b6102426004803603602081101561035357600080fd5b50356001600160a01b03166105ff565b610285610692565b610373610698565b6040805163ffffffff9092168252519081900360200190f35b6102616106a4565b610242600480360360408110156103aa57600080fd5b506001600160a01b0381351690602001356106b3565b610242600480360360a08110156103d657600080fd5b5080359063ffffffff6020820135811691604081013591606082013581169160800135166106c5565b610285610732565b610285610738565b61042c6004803603602081101561042557600080fd5b503561073e565b60408051602080825283518183015283519192839290830191858101910280838360005b83811015610468578181015183820152602001610450565b505050509050019250505060405180910390f35b6102856107aa565b6102bd6004803603602081101561049a57600080fd5b50356001600160a01b03166107b0565b610285600480360360208110156104c057600080fd5b50356107c5565b61042c6107d7565b61037361083a565b610373610846565b61026161085a565b610242600480360360208110156104fd57600080fd5b50356001600160a01b0316610869565b601660209081526000928352604080842090915290825290208054600182015460029092015490919083565b601760205260009081526040902080546001820154600283015460038401546004909401549293919290919085565b6105706108da565b61057981610909565b50565b6002818154811061058957fe5b6000918252602090912001546001600160a01b0316905081565b600e5481565b60116020526000908152604090205460ff1681565b60096020526000908152604090205481565b601254601354601454601554929363ffffffff9283169391928281169264010000000090041690565b60125481565b6106076108da565b6001600160a01b03811660009081526001602052604090205460ff1661063857610638610633826109dd565b610a25565b60005b60025481101561068e57816001600160a01b03166002828154811061065c57fe5b6000918252602090912001546001600160a01b03161415610686576106818282610a2d565b61068e565b60010161063b565b5050565b600d5481565b60155463ffffffff1681565b6000546001600160a01b031681565b6106bb6108da565b61068e8282610a2d565b6106cd610ba2565b6106da8585858585610bc5565b306001600160a01b031663c6f3a4276040518163ffffffff1660e01b815260040160006040518083038186803b15801561071357600080fd5b505afa158015610727573d6000803e3d6000fd5b505050505050505050565b60145481565b60085481565b6000818152600a602090815260409182902080548351818402810184019094528084526060939283018282801561079e57602002820191906000526020600020905b81546001600160a01b03168152600190910190602001808311610780575b50505050509050919050565b60185481565b60016020526000908152604090205460ff1681565b600c6020526000908152604090205481565b6060600280548060200260200160405190810160405280929190818152602001828054801561082f57602002820191906000526020600020905b81546001600160a01b03168152600190910190602001808311610811575b505050505090505b90565b60135463ffffffff1681565b601554640100000000900463ffffffff1681565b6003546001600160a01b031681565b6108716108da565b6001600160a01b03811661088f5761088a610633610c69565b610579565b600080546001600160a01b0319166001600160a01b0383169081178255604051909133917f8be0079c531659141344cd1fd0a4f28419497f9722a3daafe3b4186f6b6457e09190a350565b6000546001600160a01b0316331461090757600054610907906106339033906001600160a01b0316610c87565b565b6001600160a01b03811661092257610922610633610cd8565b6001600160a01b03811660009081526001602052604090205460ff161561094f5761094f61063382610cf6565b6001600160a01b0381166000818152600160208190526040808320805460ff19168317905560028054928301815583527f405787fa12a823e0f2b7631cc41b3ba8828b3321ca811111fa75cd3aa3bb5ace90910180546001600160a01b03191684179055513392917f3147867c59d17e8fa9d522465651d44aae0a9e38f902f3475b97e58072f0ed4c91a350565b604080516001600160a01b0383166024808301919091528251808303909101815260449091019091526020810180516001600160e01b03166375a8845160e11b179052919050565b805160208201fd5b6001600160a01b03821660009081526001602052604090205460ff16610a5957610a59610633836109dd565b6002548110610a7457610a7461063382600280549050610d3e565b816001600160a01b031660028281548110610a8b57fe5b6000918252602090912001546001600160a01b031614610ad357610ad361063360028381548110610ab857fe5b6000918252602090912001546001600160a01b031684610d83565b6001600160a01b0382166000908152600160205260409020805460ff19169055600280546000198101908110610b0557fe5b600091825260209091200154600280546001600160a01b039092169183908110610b2b57fe5b600091825260209091200180546001600160a01b0319166001600160a01b0392909216919091179055600280546000190190610b679082610e1c565b5060405133906001600160a01b038416907f1f32c1b084e2de0713b8fb16bd46bb9df710a3dbeae2f3ca93af46e016dcc6b090600090a35050565b3360009081526001602052604090205460ff166109075761090761063333610dd4565b60128590556013805463ffffffff80871663ffffffff199283168117909355601486905560158054858316640100000000810267ffffffff00000000199489169290951682179390931693909317905560408051898152602081019490945283810187905260608401929092526080830152517f613157dbb0e920deab8ad6ddd3805e87cbf57344b9fe780f1764790ec78975429181900360a00190a15050505050565b604080518082019091526004815263734f6e1f60e11b602082015290565b604080516001600160a01b03808516602483015283166044808301919091528251808303909101815260649091019091526020810180516001600160e01b0316631de45ad160e01b17905292915050565b60408051808201909152600481526315d953f960e21b602082015290565b604080516001600160a01b0383166024808301919091528251808303909101815260449091019091526020810180516001600160e01b03166306f0b78d60e51b179052919050565b604080516024810184905260448082018490528251808303909101815260649091019091526020810180516001600160e01b031663e9f8377160e01b17905292915050565b604080516001600160a01b03808516602483015283166044808301919091528251808303909101815260649091019091526020810180516001600160e01b031663140a84db60e01b17905292915050565b604080516001600160a01b0383166024808301919091528251808303909101815260449091019091526020810180516001600160e01b031663b65a25b960e01b179052919050565b815481835581811115610e4057600083815260209020610e40918101908301610e45565b505050565b61083791905b80821115610e5f5760008155600101610e4b565b509056fea265627a7a72315820aa89135a93e612fc31da83401055e2606b9bae9b293a7a40e75db678c0805b0964736f6c63430005110032",
			"opcodes": "PUSH1 0x80 PUSH1 0x40 MSTORE PUSH1 0x0 DUP1 SLOAD PUSH1 0x1 PUSH1 0x1 PUSH1 0xA0 SHL SUB NOT AND CALLER OR SWAP1 SSTORE PUSH2 0xE98 DUP1 PUSH2 0x25 PUSH1 0x0 CODECOPY PUSH1 0x0 RETURN INVALID PUSH1 0x80 PUSH1 0x40 MSTORE CALLVALUE DUP1 ISZERO PUSH2 0x10 JUMPI PUSH1 0x0 DUP1 REVERT JUMPDEST POP PUSH1 0x4 CALLDATASIZE LT PUSH2 0x18E JUMPI PUSH1 0x0 CALLDATALOAD PUSH1 0xE0 SHR DUP1 PUSH4 0x9AD26744 GT PUSH2 0xDE JUMPI DUP1 PUSH4 0xB9181611 GT PUSH2 0x97 JUMPI DUP1 PUSH4 0xE0EE036E GT PUSH2 0x71 JUMPI DUP1 PUSH4 0xE0EE036E EQ PUSH2 0x4CF JUMPI DUP1 PUSH4 0xE8EEB3F8 EQ PUSH2 0x4D7 JUMPI DUP1 PUSH4 0xEE99205C EQ PUSH2 0x4DF JUMPI DUP1 PUSH4 0xF2FDE38B EQ PUSH2 0x4E7 JUMPI PUSH2 0x18E JUMP JUMPDEST DUP1 PUSH4 0xB9181611 EQ PUSH2 0x484 JUMPI DUP1 PUSH4 0xC18C9141 EQ PUSH2 0x4AA JUMPI DUP1 PUSH4 0xD39DE6E9 EQ PUSH2 0x4C7 JUMPI PUSH2 0x18E JUMP JUMPDEST DUP1 PUSH4 0x9AD26744 EQ PUSH2 0x394 JUMPI DUP1 PUSH4 0x9C3CCC82 EQ PUSH2 0x3C0 JUMPI DUP1 PUSH4 0xA26171E2 EQ PUSH2 0x3FF JUMPI DUP1 PUSH4 0xA657E579 EQ PUSH2 0x407 JUMPI DUP1 PUSH4 0xAEF864DB EQ PUSH2 0x40F JUMPI DUP1 PUSH4 0xB0531524 EQ PUSH2 0x47C JUMPI PUSH2 0x18E JUMP JUMPDEST DUP1 PUSH4 0x5E30DEFF GT PUSH2 0x14B JUMPI DUP1 PUSH4 0x70712939 GT PUSH2 0x125 JUMPI DUP1 PUSH4 0x70712939 EQ PUSH2 0x33D JUMPI DUP1 PUSH4 0x76671808 EQ PUSH2 0x363 JUMPI DUP1 PUSH4 0x81666796 EQ PUSH2 0x36B JUMPI DUP1 PUSH4 0x8DA5CB5B EQ PUSH2 0x38C JUMPI PUSH2 0x18E JUMP JUMPDEST DUP1 PUSH4 0x5E30DEFF EQ PUSH2 0x2D1 JUMPI DUP1 PUSH4 0x5E615A6B EQ PUSH2 0x2F7 JUMPI DUP1 PUSH4 0x63403801 EQ PUSH2 0x335 JUMPI PUSH2 0x18E JUMP JUMPDEST DUP1 PUSH4 0x2A94C279 EQ PUSH2 0x193 JUMPI DUP1 PUSH4 0x38229D93 EQ PUSH2 0x1D4 JUMPI DUP1 PUSH4 0x42F1181E EQ PUSH2 0x21C JUMPI DUP1 PUSH4 0x494503D4 EQ PUSH2 0x244 JUMPI DUP1 PUSH4 0x587DA023 EQ PUSH2 0x27D JUMPI DUP1 PUSH4 0x5BD4AB73 EQ PUSH2 0x297 JUMPI JUMPDEST PUSH1 0x0 DUP1 REVERT JUMPDEST PUSH2 0x1B6 PUSH1 0x4 DUP1 CALLDATASIZE SUB PUSH1 0x40 DUP2 LT ISZERO PUSH2 0x1A9 JUMPI PUSH1 0x0 DUP1 REVERT JUMPDEST POP DUP1 CALLDATALOAD SWAP1 PUSH1 0x20 ADD CALLDATALOAD PUSH2 0x50D JUMP JUMPDEST PUSH1 0x40 DUP1 MLOAD SWAP4 DUP5 MSTORE PUSH1 0x20 DUP5 ADD SWAP3 SWAP1 SWAP3 MSTORE DUP3 DUP3 ADD MSTORE MLOAD SWAP1 DUP2 SWAP1 SUB PUSH1 0x60 ADD SWAP1 RETURN JUMPDEST PUSH2 0x1F1 PUSH1 0x4 DUP1 CALLDATASIZE SUB PUSH1 0x20 DUP2 LT ISZERO PUSH2 0x1EA JUMPI PUSH1 0x0 DUP1 REVERT JUMPDEST POP CALLDATALOAD PUSH2 0x539 JUMP JUMPDEST PUSH1 0x40 DUP1 MLOAD SWAP6 DUP7 MSTORE PUSH1 0x20 DUP7 ADD SWAP5 SWAP1 SWAP5 MSTORE DUP5 DUP5 ADD SWAP3 SWAP1 SWAP3 MSTORE PUSH1 0x60 DUP5 ADD MSTORE PUSH1 0x80 DUP4 ADD MSTORE MLOAD SWAP1 DUP2 SWAP1 SUB PUSH1 0xA0 ADD SWAP1 RETURN JUMPDEST PUSH2 0x242 PUSH1 0x4 DUP1 CALLDATASIZE SUB PUSH1 0x20 DUP2 LT ISZERO PUSH2 0x232 JUMPI PUSH1 0x0 DUP1 REVERT JUMPDEST POP CALLDATALOAD PUSH1 0x1 PUSH1 0x1 PUSH1 0xA0 SHL SUB AND PUSH2 0x568 JUMP JUMPDEST STOP JUMPDEST PUSH2 0x261 PUSH1 0x4 DUP1 CALLDATASIZE SUB PUSH1 0x20 DUP2 LT ISZERO PUSH2 0x25A JUMPI PUSH1 0x0 DUP1 REVERT JUMPDEST POP CALLDATALOAD PUSH2 0x57C JUMP JUMPDEST PUSH1 0x40 DUP1 MLOAD PUSH1 0x1 PUSH1 0x1 PUSH1 0xA0 SHL SUB SWAP1 SWAP3 AND DUP3 MSTORE MLOAD SWAP1 DUP2 SWAP1 SUB PUSH1 0x20 ADD SWAP1 RETURN JUMPDEST PUSH2 0x285 PUSH2 0x5A3 JUMP JUMPDEST PUSH1 0x40 DUP1 MLOAD SWAP2 DUP3 MSTORE MLOAD SWAP1 DUP2 SWAP1 SUB PUSH1 0x20 ADD SWAP1 RETURN JUMPDEST PUSH2 0x2BD PUSH1 0x4 DUP1 CALLDATASIZE SUB PUSH1 0x20 DUP2 LT ISZERO PUSH2 0x2AD JUMPI PUSH1 0x0 DUP1 REVERT JUMPDEST POP CALLDATALOAD PUSH1 0x1 PUSH1 0x1 PUSH1 0xA0 SHL SUB AND PUSH2 0x5A9 JUMP JUMPDEST PUSH1 0x40 DUP1 MLOAD SWAP2 ISZERO ISZERO DUP3 MSTORE MLOAD SWAP1 DUP2 SWAP1 SUB PUSH1 0x20 ADD SWAP1 RETURN JUMPDEST PUSH2 0x285 PUSH1 0x4 DUP1 CALLDATASIZE SUB PUSH1 0x20 DUP2 LT ISZERO PUSH2 0x2E7 JUMPI PUSH1 0x0 DUP1 REVERT JUMPDEST POP CALLDATALOAD PUSH1 0x1 PUSH1 0x1 PUSH1 0xA0 SHL SUB AND PUSH2 0x5BE JUMP JUMPDEST PUSH2 0x2FF PUSH2 0x5D0 JUMP JUMPDEST PUSH1 0x40 DUP1 MLOAD SWAP6 DUP7 MSTORE PUSH4 0xFFFFFFFF SWAP5 DUP6 AND PUSH1 0x20 DUP8 ADD MSTORE DUP6 DUP2 ADD SWAP4 SWAP1 SWAP4 MSTORE SWAP1 DUP4 AND PUSH1 0x60 DUP6 ADD MSTORE SWAP1 SWAP2 AND PUSH1 0x80 DUP4 ADD MSTORE MLOAD SWAP1 DUP2 SWAP1 SUB PUSH1 0xA0 ADD SWAP1 RETURN JUMPDEST PUSH2 0x285 PUSH2 0x5F9 JUMP JUMPDEST PUSH2 0x242 PUSH1 0x4 DUP1 CALLDATASIZE SUB PUSH1 0x20 DUP2 LT ISZERO PUSH2 0x353 JUMPI PUSH1 0x0 DUP1 REVERT JUMPDEST POP CALLDATALOAD PUSH1 0x1 PUSH1 0x1 PUSH1 0xA0 SHL SUB AND PUSH2 0x5FF JUMP JUMPDEST PUSH2 0x285 PUSH2 0x692 JUMP JUMPDEST PUSH2 0x373 PUSH2 0x698 JUMP JUMPDEST PUSH1 0x40 DUP1 MLOAD PUSH4 0xFFFFFFFF SWAP1 SWAP3 AND DUP3 MSTORE MLOAD SWAP1 DUP2 SWAP1 SUB PUSH1 0x20 ADD SWAP1 RETURN JUMPDEST PUSH2 0x261 PUSH2 0x6A4 JUMP JUMPDEST PUSH2 0x242 PUSH1 0x4 DUP1 CALLDATASIZE SUB PUSH1 0x40 DUP2 LT ISZERO PUSH2 0x3AA JUMPI PUSH1 0x0 DUP1 REVERT JUMPDEST POP PUSH1 0x1 PUSH1 0x1 PUSH1 0xA0 SHL SUB DUP2 CALLDATALOAD AND SWAP1 PUSH1 0x20 ADD CALLDATALOAD PUSH2 0x6B3 JUMP JUMPDEST PUSH2 0x242 PUSH1 0x4 DUP1 CALLDATASIZE SUB PUSH1 0xA0 DUP2 LT ISZERO PUSH2 0x3D6 JUMPI PUSH1 0x0 DUP1 REVERT JUMPDEST POP DUP1 CALLDATALOAD SWAP1 PUSH4 0xFFFFFFFF PUSH1 0x20 DUP3 ADD CALLDATALOAD DUP2 AND SWAP2 PUSH1 0x40 DUP2 ADD CALLDATALOAD SWAP2 PUSH1 0x60 DUP3 ADD CALLDATALOAD DUP2 AND SWAP2 PUSH1 0x80 ADD CALLDATALOAD AND PUSH2 0x6C5 JUMP JUMPDEST PUSH2 0x285 PUSH2 0x732 JUMP JUMPDEST PUSH2 0x285 PUSH2 0x738 JUMP JUMPDEST PUSH2 0x42C PUSH1 0x4 DUP1 CALLDATASIZE SUB PUSH1 0x20 DUP2 LT ISZERO PUSH2 0x425 JUMPI PUSH1 0x0 DUP1 REVERT JUMPDEST POP CALLDATALOAD PUSH2 0x73E JUMP JUMPDEST PUSH1 0x40 DUP1 MLOAD PUSH1 0x20 DUP1 DUP3 MSTORE DUP4 MLOAD DUP2 DUP4 ADD MSTORE DUP4 MLOAD SWAP2 SWAP3 DUP4 SWAP3 SWAP1 DUP4 ADD SWAP2 DUP6 DUP2 ADD SWAP2 MUL DUP1 DUP4 DUP4 PUSH1 0x0 JUMPDEST DUP4 DUP2 LT ISZERO PUSH2 0x468 JUMPI DUP2 DUP2 ADD MLOAD DUP4 DUP3 ADD MSTORE PUSH1 0x20 ADD PUSH2 0x450 JUMP JUMPDEST POP POP POP POP SWAP1 POP ADD SWAP3 POP POP POP PUSH1 0x40 MLOAD DUP1 SWAP2 SUB SWAP1 RETURN JUMPDEST PUSH2 0x285 PUSH2 0x7AA JUMP JUMPDEST PUSH2 0x2BD PUSH1 0x4 DUP1 CALLDATASIZE SUB PUSH1 0x20 DUP2 LT ISZERO PUSH2 0x49A JUMPI PUSH1 0x0 DUP1 REVERT JUMPDEST POP CALLDATALOAD PUSH1 0x1 PUSH1 0x1 PUSH1 0xA0 SHL SUB AND PUSH2 0x7B0 JUMP JUMPDEST PUSH2 0x285 PUSH1 0x4 DUP1 CALLDATASIZE SUB PUSH1 0x20 DUP2 LT ISZERO PUSH2 0x4C0 JUMPI PUSH1 0x0 DUP1 REVERT JUMPDEST POP CALLDATALOAD PUSH2 0x7C5 JUMP JUMPDEST PUSH2 0x42C PUSH2 0x7D7 JUMP JUMPDEST PUSH2 0x373 PUSH2 0x83A JUMP JUMPDEST PUSH2 0x373 PUSH2 0x846 JUMP JUMPDEST PUSH2 0x261 PUSH2 0x85A JUMP JUMPDEST PUSH2 0x242 PUSH1 0x4 DUP1 CALLDATASIZE SUB PUSH1 0x20 DUP2 LT ISZERO PUSH2 0x4FD JUMPI PUSH1 0x0 DUP1 REVERT JUMPDEST POP CALLDATALOAD PUSH1 0x1 PUSH1 0x1 PUSH1 0xA0 SHL SUB AND PUSH2 0x869 JUMP JUMPDEST PUSH1 0x16 PUSH1 0x20 SWAP1 DUP2 MSTORE PUSH1 0x0 SWAP3 DUP4 MSTORE PUSH1 0x40 DUP1 DUP5 KECCAK256 SWAP1 SWAP2 MSTORE SWAP1 DUP3 MSTORE SWAP1 KECCAK256 DUP1 SLOAD PUSH1 0x1 DUP3 ADD SLOAD PUSH1 0x2 SWAP1 SWAP3 ADD SLOAD SWAP1 SWAP2 SWAP1 DUP4 JUMP JUMPDEST PUSH1 0x17 PUSH1 0x20 MSTORE PUSH1 0x0 SWAP1 DUP2 MSTORE PUSH1 0x40 SWAP1 KECCAK256 DUP1 SLOAD PUSH1 0x1 DUP3 ADD SLOAD PUSH1 0x2 DUP4 ADD SLOAD PUSH1 0x3 DUP5 ADD SLOAD PUSH1 0x4 SWAP1 SWAP5 ADD SLOAD SWAP3 SWAP4 SWAP2 SWAP3 SWAP1 SWAP2 SWAP1 DUP6 JUMP JUMPDEST PUSH2 0x570 PUSH2 0x8DA JUMP JUMPDEST PUSH2 0x579 DUP2 PUSH2 0x909 JUMP JUMPDEST POP JUMP JUMPDEST PUSH1 0x2 DUP2 DUP2 SLOAD DUP2 LT PUSH2 0x589 JUMPI INVALID JUMPDEST PUSH1 0x0 SWAP2 DUP3 MSTORE PUSH1 0x20 SWAP1 SWAP2 KECCAK256 ADD SLOAD PUSH1 0x1 PUSH1 0x1 PUSH1 0xA0 SHL SUB AND SWAP1 POP DUP2 JUMP JUMPDEST PUSH1 0xE SLOAD DUP2 JUMP JUMPDEST PUSH1 0x11 PUSH1 0x20 MSTORE PUSH1 0x0 SWAP1 DUP2 MSTORE PUSH1 0x40 SWAP1 KECCAK256 SLOAD PUSH1 0xFF AND DUP2 JUMP JUMPDEST PUSH1 0x9 PUSH1 0x20 MSTORE PUSH1 0x0 SWAP1 DUP2 MSTORE PUSH1 0x40 SWAP1 KECCAK256 SLOAD DUP2 JUMP JUMPDEST PUSH1 0x12 SLOAD PUSH1 0x13 SLOAD PUSH1 0x14 SLOAD PUSH1 0x15 SLOAD SWAP3 SWAP4 PUSH4 0xFFFFFFFF SWAP3 DUP4 AND SWAP4 SWAP2 SWAP3 DUP3 DUP2 AND SWAP3 PUSH5 0x100000000 SWAP1 DIV AND SWAP1 JUMP JUMPDEST PUSH1 0x12 SLOAD DUP2 JUMP JUMPDEST PUSH2 0x607 PUSH2 0x8DA JUMP JUMPDEST PUSH1 0x1 PUSH1 0x1 PUSH1 0xA0 SHL SUB DUP2 AND PUSH1 0x0 SWAP1 DUP2 MSTORE PUSH1 0x1 PUSH1 0x20 MSTORE PUSH1 0x40 SWAP1 KECCAK256 SLOAD PUSH1 0xFF AND PUSH2 0x638 JUMPI PUSH2 0x638 PUSH2 0x633 DUP3 PUSH2 0x9DD JUMP JUMPDEST PUSH2 0xA25 JUMP JUMPDEST PUSH1 0x0 JUMPDEST PUSH1 0x2 SLOAD DUP2 LT ISZERO PUSH2 0x68E JUMPI DUP2 PUSH1 0x1 PUSH1 0x1 PUSH1 0xA0 SHL SUB AND PUSH1 0x2 DUP3 DUP2 SLOAD DUP2 LT PUSH2 0x65C JUMPI INVALID JUMPDEST PUSH1 0x0 SWAP2 DUP3 MSTORE PUSH1 0x20 SWAP1 SWAP2 KECCAK256 ADD SLOAD PUSH1 0x1 PUSH1 0x1 PUSH1 0xA0 SHL SUB AND EQ ISZERO PUSH2 0x686 JUMPI PUSH2 0x681 DUP3 DUP3 PUSH2 0xA2D JUMP JUMPDEST PUSH2 0x68E JUMP JUMPDEST PUSH1 0x1 ADD PUSH2 0x63B JUMP JUMPDEST POP POP JUMP JUMPDEST PUSH1 0xD SLOAD DUP2 JUMP JUMPDEST PUSH1 0x15 SLOAD PUSH4 0xFFFFFFFF AND DUP2 JUMP JUMPDEST PUSH1 0x0 SLOAD PUSH1 0x1 PUSH1 0x1 PUSH1 0xA0 SHL SUB AND DUP2 JUMP JUMPDEST PUSH2 0x6BB PUSH2 0x8DA JUMP JUMPDEST PUSH2 0x68E DUP3 DUP3 PUSH2 0xA2D JUMP JUMPDEST PUSH2 0x6CD PUSH2 0xBA2 JUMP JUMPDEST PUSH2 0x6DA DUP6 DUP6 DUP6 DUP6 DUP6 PUSH2 0xBC5 JUMP JUMPDEST ADDRESS PUSH1 0x1 PUSH1 0x1 PUSH1 0xA0 SHL SUB AND PUSH4 0xC6F3A427 PUSH1 0x40 MLOAD DUP2 PUSH4 0xFFFFFFFF AND PUSH1 0xE0 SHL DUP2 MSTORE PUSH1 0x4 ADD PUSH1 0x0 PUSH1 0x40 MLOAD DUP1 DUP4 SUB DUP2 DUP7 DUP1 EXTCODESIZE ISZERO DUP1 ISZERO PUSH2 0x713 JUMPI PUSH1 0x0 DUP1 REVERT JUMPDEST POP GAS STATICCALL ISZERO DUP1 ISZERO PUSH2 0x727 JUMPI RETURNDATASIZE PUSH1 0x0 DUP1 RETURNDATACOPY RETURNDATASIZE PUSH1 0x0 REVERT JUMPDEST POP POP POP POP POP POP POP POP POP JUMP JUMPDEST PUSH1 0x14 SLOAD DUP2 JUMP JUMPDEST PUSH1 0x8 SLOAD DUP2 JUMP JUMPDEST PUSH1 0x0 DUP2 DUP2 MSTORE PUSH1 0xA PUSH1 0x20 SWAP1 DUP2 MSTORE PUSH1 0x40 SWAP2 DUP3 SWAP1 KECCAK256 DUP1 SLOAD DUP4 MLOAD DUP2 DUP5 MUL DUP2 ADD DUP5 ADD SWAP1 SWAP5 MSTORE DUP1 DUP5 MSTORE PUSH1 0x60 SWAP4 SWAP3 DUP4 ADD DUP3 DUP3 DUP1 ISZERO PUSH2 0x79E JUMPI PUSH1 0x20 MUL DUP3 ADD SWAP2 SWAP1 PUSH1 0x0 MSTORE PUSH1 0x20 PUSH1 0x0 KECCAK256 SWAP1 JUMPDEST DUP2 SLOAD PUSH1 0x1 PUSH1 0x1 PUSH1 0xA0 SHL SUB AND DUP2 MSTORE PUSH1 0x1 SWAP1 SWAP2 ADD SWAP1 PUSH1 0x20 ADD DUP1 DUP4 GT PUSH2 0x780 JUMPI JUMPDEST POP POP POP POP POP SWAP1 POP SWAP2 SWAP1 POP JUMP JUMPDEST PUSH1 0x18 SLOAD DUP2 JUMP JUMPDEST PUSH1 0x1 PUSH1 0x20 MSTORE PUSH1 0x0 SWAP1 DUP2 MSTORE PUSH1 0x40 SWAP1 KECCAK256 SLOAD PUSH1 0xFF AND DUP2 JUMP JUMPDEST PUSH1 0xC PUSH1 0x20 MSTORE PUSH1 0x0 SWAP1 DUP2 MSTORE PUSH1 0x40 SWAP1 KECCAK256 SLOAD DUP2 JUMP JUMPDEST PUSH1 0x60 PUSH1 0x2 DUP1 SLOAD DUP1 PUSH1 0x20 MUL PUSH1 0x20 ADD PUSH1 0x40 MLOAD SWAP1 DUP2 ADD PUSH1 0x40 MSTORE DUP1 SWAP3 SWAP2 SWAP1 DUP2 DUP2 MSTORE PUSH1 0x20 ADD DUP3 DUP1 SLOAD DUP1 ISZERO PUSH2 0x82F JUMPI PUSH1 0x20 MUL DUP3 ADD SWAP2 SWAP1 PUSH1 0x0 MSTORE PUSH1 0x20 PUSH1 0x0 KECCAK256 SWAP1 JUMPDEST DUP2 SLOAD PUSH1 0x1 PUSH1 0x1 PUSH1 0xA0 SHL SUB AND DUP2 MSTORE PUSH1 0x1 SWAP1 SWAP2 ADD SWAP1 PUSH1 0x20 ADD DUP1 DUP4 GT PUSH2 0x811 JUMPI JUMPDEST POP POP POP POP POP SWAP1 POP JUMPDEST SWAP1 JUMP JUMPDEST PUSH1 0x13 SLOAD PUSH4 0xFFFFFFFF AND DUP2 JUMP JUMPDEST PUSH1 0x15 SLOAD PUSH5 0x100000000 SWAP1 DIV PUSH4 0xFFFFFFFF AND DUP2 JUMP JUMPDEST PUSH1 0x3 SLOAD PUSH1 0x1 PUSH1 0x1 PUSH1 0xA0 SHL SUB AND DUP2 JUMP JUMPDEST PUSH2 0x871 PUSH2 0x8DA JUMP JUMPDEST PUSH1 0x1 PUSH1 0x1 PUSH1 0xA0 SHL SUB DUP2 AND PUSH2 0x88F JUMPI PUSH2 0x88A PUSH2 0x633 PUSH2 0xC69 JUMP JUMPDEST PUSH2 0x579 JUMP JUMPDEST PUSH1 0x0 DUP1 SLOAD PUSH1 0x1 PUSH1 0x1 PUSH1 0xA0 SHL SUB NOT AND PUSH1 0x1 PUSH1 0x1 PUSH1 0xA0 SHL SUB DUP4 AND SWAP1 DUP2 OR DUP3 SSTORE PUSH1 0x40 MLOAD SWAP1 SWAP2 CALLER SWAP2 PUSH32 0x8BE0079C531659141344CD1FD0A4F28419497F9722A3DAAFE3B4186F6B6457E0 SWAP2 SWAP1 LOG3 POP JUMP JUMPDEST PUSH1 0x0 SLOAD PUSH1 0x1 PUSH1 0x1 PUSH1 0xA0 SHL SUB AND CALLER EQ PUSH2 0x907 JUMPI PUSH1 0x0 SLOAD PUSH2 0x907 SWAP1 PUSH2 0x633 SWAP1 CALLER SWAP1 PUSH1 0x1 PUSH1 0x1 PUSH1 0xA0 SHL SUB AND PUSH2 0xC87 JUMP JUMPDEST JUMP JUMPDEST PUSH1 0x1 PUSH1 0x1 PUSH1 0xA0 SHL SUB DUP2 AND PUSH2 0x922 JUMPI PUSH2 0x922 PUSH2 0x633 PUSH2 0xCD8 JUMP JUMPDEST PUSH1 0x1 PUSH1 0x1 PUSH1 0xA0 SHL SUB DUP2 AND PUSH1 0x0 SWAP1 DUP2 MSTORE PUSH1 0x1 PUSH1 0x20 MSTORE PUSH1 0x40 SWAP1 KECCAK256 SLOAD PUSH1 0xFF AND ISZERO PUSH2 0x94F JUMPI PUSH2 0x94F PUSH2 0x633 DUP3 PUSH2 0xCF6 JUMP JUMPDEST PUSH1 0x1 PUSH1 0x1 PUSH1 0xA0 SHL SUB DUP2 AND PUSH1 0x0 DUP2 DUP2 MSTORE PUSH1 0x1 PUSH1 0x20 DUP2 SWAP1 MSTORE PUSH1 0x40 DUP1 DUP4 KECCAK256 DUP1 SLOAD PUSH1 0xFF NOT AND DUP4 OR SWAP1 SSTORE PUSH1 0x2 DUP1 SLOAD SWAP3 DUP4 ADD DUP2 SSTORE DUP4 MSTORE PUSH32 0x405787FA12A823E0F2B7631CC41B3BA8828B3321CA811111FA75CD3AA3BB5ACE SWAP1 SWAP2 ADD DUP1 SLOAD PUSH1 0x1 PUSH1 0x1 PUSH1 0xA0 SHL SUB NOT AND DUP5 OR SWAP1 SSTORE MLOAD CALLER SWAP3 SWAP2 PUSH32 0x3147867C59D17E8FA9D522465651D44AAE0A9E38F902F3475B97E58072F0ED4C SWAP2 LOG3 POP JUMP JUMPDEST PUSH1 0x40 DUP1 MLOAD PUSH1 0x1 PUSH1 0x1 PUSH1 0xA0 SHL SUB DUP4 AND PUSH1 0x24 DUP1 DUP4 ADD SWAP2 SWAP1 SWAP2 MSTORE DUP3 MLOAD DUP1 DUP4 SUB SWAP1 SWAP2 ADD DUP2 MSTORE PUSH1 0x44 SWAP1 SWAP2 ADD SWAP1 SWAP2 MSTORE PUSH1 0x20 DUP2 ADD DUP1 MLOAD PUSH1 0x1 PUSH1 0x1 PUSH1 0xE0 SHL SUB AND PUSH4 0x75A88451 PUSH1 0xE1 SHL OR SWAP1 MSTORE SWAP2 SWAP1 POP JUMP JUMPDEST DUP1 MLOAD PUSH1 0x20 DUP3 ADD REVERT JUMPDEST PUSH1 0x1 PUSH1 0x1 PUSH1 0xA0 SHL SUB DUP3 AND PUSH1 0x0 SWAP1 DUP2 MSTORE PUSH1 0x1 PUSH1 0x20 MSTORE PUSH1 0x40 SWAP1 KECCAK256 SLOAD PUSH1 0xFF AND PUSH2 0xA59 JUMPI PUSH2 0xA59 PUSH2 0x633 DUP4 PUSH2 0x9DD JUMP JUMPDEST PUSH1 0x2 SLOAD DUP2 LT PUSH2 0xA74 JUMPI PUSH2 0xA74 PUSH2 0x633 DUP3 PUSH1 0x2 DUP1 SLOAD SWAP1 POP PUSH2 0xD3E JUMP JUMPDEST DUP2 PUSH1 0x1 PUSH1 0x1 PUSH1 0xA0 SHL SUB AND PUSH1 0x2 DUP3 DUP2 SLOAD DUP2 LT PUSH2 0xA8B JUMPI INVALID JUMPDEST PUSH1 0x0 SWAP2 DUP3 MSTORE PUSH1 0x20 SWAP1 SWAP2 KECCAK256 ADD SLOAD PUSH1 0x1 PUSH1 0x1 PUSH1 0xA0 SHL SUB AND EQ PUSH2 0xAD3 JUMPI PUSH2 0xAD3 PUSH2 0x633 PUSH1 0x2 DUP4 DUP2 SLOAD DUP2 LT PUSH2 0xAB8 JUMPI INVALID JUMPDEST PUSH1 0x0 SWAP2 DUP3 MSTORE PUSH1 0x20 SWAP1 SWAP2 KECCAK256 ADD SLOAD PUSH1 0x1 PUSH1 0x1 PUSH1 0xA0 SHL SUB AND DUP5 PUSH2 0xD83 JUMP JUMPDEST PUSH1 0x1 PUSH1 0x1 PUSH1 0xA0 SHL SUB DUP3 AND PUSH1 0x0 SWAP1 DUP2 MSTORE PUSH1 0x1 PUSH1 0x20 MSTORE PUSH1 0x40 SWAP1 KECCAK256 DUP1 SLOAD PUSH1 0xFF NOT AND SWAP1 SSTORE PUSH1 0x2 DUP1 SLOAD PUSH1 0x0 NOT DUP2 ADD SWAP1 DUP2 LT PUSH2 0xB05 JUMPI INVALID JUMPDEST PUSH1 0x0 SWAP2 DUP3 MSTORE PUSH1 0x20 SWAP1 SWAP2 KECCAK256 ADD SLOAD PUSH1 0x2 DUP1 SLOAD PUSH1 0x1 PUSH1 0x1 PUSH1 0xA0 SHL SUB SWAP1 SWAP3 AND SWAP2 DUP4 SWAP1 DUP2 LT PUSH2 0xB2B JUMPI INVALID JUMPDEST PUSH1 0x0 SWAP2 DUP3 MSTORE PUSH1 0x20 SWAP1 SWAP2 KECCAK256 ADD DUP1 SLOAD PUSH1 0x1 PUSH1 0x1 PUSH1 0xA0 SHL SUB NOT AND PUSH1 0x1 PUSH1 0x1 PUSH1 0xA0 SHL SUB SWAP3 SWAP1 SWAP3 AND SWAP2 SWAP1 SWAP2 OR SWAP1 SSTORE PUSH1 0x2 DUP1 SLOAD PUSH1 0x0 NOT ADD SWAP1 PUSH2 0xB67 SWAP1 DUP3 PUSH2 0xE1C JUMP JUMPDEST POP PUSH1 0x40 MLOAD CALLER SWAP1 PUSH1 0x1 PUSH1 0x1 PUSH1 0xA0 SHL SUB DUP5 AND SWAP1 PUSH32 0x1F32C1B084E2DE0713B8FB16BD46BB9DF710A3DBEAE2F3CA93AF46E016DCC6B0 SWAP1 PUSH1 0x0 SWAP1 LOG3 POP POP JUMP JUMPDEST CALLER PUSH1 0x0 SWAP1 DUP2 MSTORE PUSH1 0x1 PUSH1 0x20 MSTORE PUSH1 0x40 SWAP1 KECCAK256 SLOAD PUSH1 0xFF AND PUSH2 0x907 JUMPI PUSH2 0x907 PUSH2 0x633 CALLER PUSH2 0xDD4 JUMP JUMPDEST PUSH1 0x12 DUP6 SWAP1 SSTORE PUSH1 0x13 DUP1 SLOAD PUSH4 0xFFFFFFFF DUP1 DUP8 AND PUSH4 0xFFFFFFFF NOT SWAP3 DUP4 AND DUP2 OR SWAP1 SWAP4 SSTORE PUSH1 0x14 DUP7 SWAP1 SSTORE PUSH1 0x15 DUP1 SLOAD DUP6 DUP4 AND PUSH5 0x100000000 DUP2 MUL PUSH8 0xFFFFFFFF00000000 NOT SWAP5 DUP10 AND SWAP3 SWAP1 SWAP6 AND DUP3 OR SWAP4 SWAP1 SWAP4 AND SWAP4 SWAP1 SWAP4 OR SWAP1 SSTORE PUSH1 0x40 DUP1 MLOAD DUP10 DUP2 MSTORE PUSH1 0x20 DUP2 ADD SWAP5 SWAP1 SWAP5 MSTORE DUP4 DUP2 ADD DUP8 SWAP1 MSTORE PUSH1 0x60 DUP5 ADD SWAP3 SWAP1 SWAP3 MSTORE PUSH1 0x80 DUP4 ADD MSTORE MLOAD PUSH32 0x613157DBB0E920DEAB8AD6DDD3805E87CBF57344B9FE780F1764790EC7897542 SWAP2 DUP2 SWAP1 SUB PUSH1 0xA0 ADD SWAP1 LOG1 POP POP POP POP POP JUMP JUMPDEST PUSH1 0x40 DUP1 MLOAD DUP1 DUP3 ADD SWAP1 SWAP2 MSTORE PUSH1 0x4 DUP2 MSTORE PUSH4 0x734F6E1F PUSH1 0xE1 SHL PUSH1 0x20 DUP3 ADD MSTORE SWAP1 JUMP JUMPDEST PUSH1 0x40 DUP1 MLOAD PUSH1 0x1 PUSH1 0x1 PUSH1 0xA0 SHL SUB DUP1 DUP6 AND PUSH1 0x24 DUP4 ADD MSTORE DUP4 AND PUSH1 0x44 DUP1 DUP4 ADD SWAP2 SWAP1 SWAP2 MSTORE DUP3 MLOAD DUP1 DUP4 SUB SWAP1 SWAP2 ADD DUP2 MSTORE PUSH1 0x64 SWAP1 SWAP2 ADD SWAP1 SWAP2 MSTORE PUSH1 0x20 DUP2 ADD DUP1 MLOAD PUSH1 0x1 PUSH1 0x1 PUSH1 0xE0 SHL SUB AND PUSH4 0x1DE45AD1 PUSH1 0xE0 SHL OR SWAP1 MSTORE SWAP3 SWAP2 POP POP JUMP JUMPDEST PUSH1 0x40 DUP1 MLOAD DUP1 DUP3 ADD SWAP1 SWAP2 MSTORE PUSH1 0x4 DUP2 MSTORE PUSH4 0x15D953F9 PUSH1 0xE2 SHL PUSH1 0x20 DUP3 ADD MSTORE SWAP1 JUMP JUMPDEST PUSH1 0x40 DUP1 MLOAD PUSH1 0x1 PUSH1 0x1 PUSH1 0xA0 SHL SUB DUP4 AND PUSH1 0x24 DUP1 DUP4 ADD SWAP2 SWAP1 SWAP2 MSTORE DUP3 MLOAD DUP1 DUP4 SUB SWAP1 SWAP2 ADD DUP2 MSTORE PUSH1 0x44 SWAP1 SWAP2 ADD SWAP1 SWAP2 MSTORE PUSH1 0x20 DUP2 ADD DUP1 MLOAD PUSH1 0x1 PUSH1 0x1 PUSH1 0xE0 SHL SUB AND PUSH4 0x6F0B78D PUSH1 0xE5 SHL OR SWAP1 MSTORE SWAP2 SWAP1 POP JUMP JUMPDEST PUSH1 0x40 DUP1 MLOAD PUSH1 0x24 DUP2 ADD DUP5 SWAP1 MSTORE PUSH1 0x44 DUP1 DUP3 ADD DUP5 SWAP1 MSTORE DUP3 MLOAD DUP1 DUP4 SUB SWAP1 SWAP2 ADD DUP2 MSTORE PUSH1 0x64 SWAP1 SWAP2 ADD SWAP1 SWAP2 MSTORE PUSH1 0x20 DUP2 ADD DUP1 MLOAD PUSH1 0x1 PUSH1 0x1 PUSH1 0xE0 SHL SUB AND PUSH4 0xE9F83771 PUSH1 0xE0 SHL OR SWAP1 MSTORE SWAP3 SWAP2 POP POP JUMP JUMPDEST PUSH1 0x40 DUP1 MLOAD PUSH1 0x1 PUSH1 0x1 PUSH1 0xA0 SHL SUB DUP1 DUP6 AND PUSH1 0x24 DUP4 ADD MSTORE DUP4 AND PUSH1 0x44 DUP1 DUP4 ADD SWAP2 SWAP1 SWAP2 MSTORE DUP3 MLOAD DUP1 DUP4 SUB SWAP1 SWAP2 ADD DUP2 MSTORE PUSH1 0x64 SWAP1 SWAP2 ADD SWAP1 SWAP2 MSTORE PUSH1 0x20 DUP2 ADD DUP1 MLOAD PUSH1 0x1 PUSH1 0x1 PUSH1 0xE0 SHL SUB AND PUSH4 0x140A84DB PUSH1 0xE0 SHL OR SWAP1 MSTORE SWAP3 SWAP2 POP POP JUMP JUMPDEST PUSH1 0x40 DUP1 MLOAD PUSH1 0x1 PUSH1 0x1 PUSH1 0xA0 SHL SUB DUP4 AND PUSH1 0x24 DUP1 DUP4 ADD SWAP2 SWAP1 SWAP2 MSTORE DUP3 MLOAD DUP1 DUP4 SUB SWAP1 SWAP2 ADD DUP2 MSTORE PUSH1 0x44 SWAP1 SWAP2 ADD SWAP1 SWAP2 MSTORE PUSH1 0x20 DUP2 ADD DUP1 MLOAD PUSH1 0x1 PUSH1 0x1 PUSH1 0xE0 SHL SUB AND PUSH4 0xB65A25B9 PUSH1 0xE0 SHL OR SWAP1 MSTORE SWAP2 SWAP1 POP JUMP JUMPDEST DUP2 SLOAD DUP2 DUP4 SSTORE DUP2 DUP2 GT ISZERO PUSH2 0xE40 JUMPI PUSH1 0x0 DUP4 DUP2 MSTORE PUSH1 0x20 SWAP1 KECCAK256 PUSH2 0xE40 SWAP2 DUP2 ADD SWAP1 DUP4 ADD PUSH2 0xE45 JUMP JUMPDEST POP POP POP JUMP JUMPDEST PUSH2 0x837 SWAP2 SWAP1 JUMPDEST DUP1 DUP3 GT ISZERO PUSH2 0xE5F JUMPI PUSH1 0x0 DUP2 SSTORE PUSH1 0x1 ADD PUSH2 0xE4B JUMP JUMPDEST POP SWAP1 JUMP INVALID LOG2 PUSH6 0x627A7A723158 KECCAK256 0xAA DUP10 SGT GAS SWAP4 0xE6 SLT 0xFC BALANCE 0xDA DUP4 BLOCKHASH LT SSTORE 0xE2 PUSH1 0x6B SWAP12 0xAE SWAP12 0x29 GASPRICE PUSH27 0x40E75DB678C0805B0964736F6C6343000511003200000000000000 "
		},
		"gasEstimates": {
			"creation": {
				"codeDepositCost": "747200",
				"executionCost": "21590",
				"totalCost": "768790"
			},
			"external": {
				"addAuthorizedAddress(address)": "66221",
				"aggregatedStatsByEpoch(uint256)": "4493",
				"authorities(uint256)": "2060",
				"authorized(address)": "1181",
				"cobbDouglasAlphaDenominator()": "1090",
				"cobbDouglasAlphaNumerator()": "1102",
				"currentEpoch()": "1065",
				"currentEpochStartTimeInSeconds()": "1110",
				"epochDurationInSeconds()": "1088",
				"getAuthorizedAddresses()": "infinite",
				"getParams()": "3627",
				"getPoolsAddressesByStakingPoolId(bytes32)": "infinite",
				"lastPoolId()": "1087",
				"minimumPoolStake()": "1065",
				"owner()": "1148",
				"poolIdByRbPool(address)": "1170",
				"poolStatsByEpoch(bytes32,uint256)": "2889",
				"removeAuthorizedAddress(address)": "infinite",
				"removeAuthorizedAddressAtIndex(address,uint256)": "infinite",
				"rewardDelegatedStakeWeight()": "1057",
				"rewardsByPoolId(bytes32)": "1173",
				"setParams(uint256,uint32,uint256,uint32,uint32)": "infinite",
				"stakingContract()": "1125",
				"transferOwnership(address)": "23601",
				"validExchanges(address)": "1270",
				"wethReservedForPoolRewards()": "1131"
			},
			"internal": {
				"_assertParamsNotInitialized()": "infinite",
				"_initMixinParams()": "infinite",
				"_setParams(uint256,uint32,uint256,uint32,uint32)": "infinite"
			}
		},
		"methodIdentifiers": {
			"addAuthorizedAddress(address)": "42f1181e",
			"aggregatedStatsByEpoch(uint256)": "38229d93",
			"authorities(uint256)": "494503d4",
			"authorized(address)": "b9181611",
			"cobbDouglasAlphaDenominator()": "e8eeb3f8",
			"cobbDouglasAlphaNumerator()": "81666796",
			"currentEpoch()": "76671808",
			"currentEpochStartTimeInSeconds()": "587da023",
			"epochDurationInSeconds()": "63403801",
			"getAuthorizedAddresses()": "d39de6e9",
			"getParams()": "5e615a6b",
			"getPoolsAddressesByStakingPoolId(bytes32)": "aef864db",
			"lastPoolId()": "a657e579",
			"minimumPoolStake()": "a26171e2",
			"owner()": "8da5cb5b",
			"poolIdByRbPool(address)": "5e30deff",
			"poolStatsByEpoch(bytes32,uint256)": "2a94c279",
			"removeAuthorizedAddress(address)": "70712939",
			"removeAuthorizedAddressAtIndex(address,uint256)": "9ad26744",
			"rewardDelegatedStakeWeight()": "e0ee036e",
			"rewardsByPoolId(bytes32)": "c18c9141",
			"setParams(uint256,uint32,uint256,uint32,uint32)": "9c3ccc82",
			"stakingContract()": "ee99205c",
			"transferOwnership(address)": "f2fde38b",
			"validExchanges(address)": "5bd4ab73",
			"wethReservedForPoolRewards()": "b0531524"
		}
	},
	"abi": [
		{
			"anonymous": false,
			"inputs": [
				{
					"indexed": true,
					"internalType": "address",
					"name": "target",
					"type": "address"
				},
				{
					"indexed": true,
					"internalType": "address",
					"name": "caller",
					"type": "address"
				}
			],
			"name": "AuthorizedAddressAdded",
			"type": "event"
		},
		{
			"anonymous": false,
			"inputs": [
				{
					"indexed": true,
					"internalType": "address",
					"name": "target",
					"type": "address"
				},
				{
					"indexed": true,
					"internalType": "address",
					"name": "caller",
					"type": "address"
				}
			],
			"name": "AuthorizedAddressRemoved",
			"type": "event"
		},
		{
			"anonymous": false,
			"inputs": [
				{
					"indexed": true,
					"internalType": "uint256",
					"name": "epoch",
					"type": "uint256"
				},
				{
					"indexed": false,
					"internalType": "uint256",
					"name": "numPoolsToFinalize",
					"type": "uint256"
				},
				{
					"indexed": false,
					"internalType": "uint256",
					"name": "rewardsAvailable",
					"type": "uint256"
				},
				{
					"indexed": false,
					"internalType": "uint256",
					"name": "totalFeesCollected",
					"type": "uint256"
				},
				{
					"indexed": false,
					"internalType": "uint256",
					"name": "totalWeightedStake",
					"type": "uint256"
				}
			],
			"name": "EpochEnded",
			"type": "event"
		},
		{
			"anonymous": false,
			"inputs": [
				{
					"indexed": true,
					"internalType": "uint256",
					"name": "epoch",
					"type": "uint256"
				},
				{
					"indexed": false,
					"internalType": "uint256",
					"name": "rewardsPaid",
					"type": "uint256"
				},
				{
					"indexed": false,
					"internalType": "uint256",
					"name": "rewardsRemaining",
					"type": "uint256"
				}
			],
			"name": "EpochFinalized",
			"type": "event"
		},
		{
			"anonymous": false,
			"inputs": [
				{
					"indexed": false,
					"internalType": "address",
					"name": "exchangeAddress",
					"type": "address"
				}
			],
			"name": "ExchangeAdded",
			"type": "event"
		},
		{
			"anonymous": false,
			"inputs": [
				{
					"indexed": false,
					"internalType": "address",
					"name": "exchangeAddress",
					"type": "address"
				}
			],
			"name": "ExchangeRemoved",
			"type": "event"
		},
		{
			"anonymous": false,
			"inputs": [
				{
					"indexed": true,
					"internalType": "address",
					"name": "staker",
					"type": "address"
				},
				{
					"indexed": false,
					"internalType": "uint256",
					"name": "amount",
					"type": "uint256"
				},
				{
					"indexed": false,
					"internalType": "uint8",
					"name": "fromStatus",
					"type": "uint8"
				},
				{
					"indexed": true,
					"internalType": "bytes32",
					"name": "fromPool",
					"type": "bytes32"
				},
				{
					"indexed": false,
					"internalType": "uint8",
					"name": "toStatus",
					"type": "uint8"
				},
				{
					"indexed": true,
					"internalType": "bytes32",
					"name": "toPool",
					"type": "bytes32"
				}
			],
			"name": "MoveStake",
			"type": "event"
		},
		{
			"anonymous": false,
			"inputs": [
				{
					"indexed": true,
					"internalType": "bytes32",
					"name": "poolId",
					"type": "bytes32"
				},
				{
					"indexed": false,
					"internalType": "uint32",
					"name": "oldOperatorShare",
					"type": "uint32"
				},
				{
					"indexed": false,
					"internalType": "uint32",
					"name": "newOperatorShare",
					"type": "uint32"
				}
			],
			"name": "OperatorShareDecreased",
			"type": "event"
		},
		{
			"anonymous": false,
			"inputs": [
				{
					"indexed": true,
					"internalType": "address",
					"name": "previousOwner",
					"type": "address"
				},
				{
					"indexed": true,
					"internalType": "address",
					"name": "newOwner",
					"type": "address"
				}
			],
			"name": "OwnershipTransferred",
			"type": "event"
		},
		{
			"anonymous": false,
			"inputs": [
				{
					"indexed": false,
					"internalType": "uint256",
					"name": "epochDurationInSeconds",
					"type": "uint256"
				},
				{
					"indexed": false,
					"internalType": "uint32",
					"name": "rewardDelegatedStakeWeight",
					"type": "uint32"
				},
				{
					"indexed": false,
					"internalType": "uint256",
					"name": "minimumPoolStake",
					"type": "uint256"
				},
				{
					"indexed": false,
					"internalType": "uint256",
					"name": "cobbDouglasAlphaNumerator",
					"type": "uint256"
				},
				{
					"indexed": false,
					"internalType": "uint256",
					"name": "cobbDouglasAlphaDenominator",
					"type": "uint256"
				}
			],
			"name": "ParamsSet",
			"type": "event"
		},
		{
			"anonymous": false,
			"inputs": [
				{
					"indexed": true,
					"internalType": "address",
					"name": "rbPoolAddress",
					"type": "address"
				},
				{
					"indexed": true,
					"internalType": "bytes32",
					"name": "poolId",
					"type": "bytes32"
				}
			],
			"name": "RbPoolStakingPoolSet",
			"type": "event"
		},
		{
			"anonymous": false,
			"inputs": [
				{
					"indexed": true,
					"internalType": "uint256",
					"name": "epoch",
					"type": "uint256"
				},
				{
					"indexed": true,
					"internalType": "bytes32",
					"name": "poolId",
					"type": "bytes32"
				},
				{
					"indexed": false,
					"internalType": "uint256",
					"name": "operatorReward",
					"type": "uint256"
				},
				{
					"indexed": false,
					"internalType": "uint256",
					"name": "membersReward",
					"type": "uint256"
				}
			],
			"name": "RewardsPaid",
			"type": "event"
		},
		{
			"anonymous": false,
			"inputs": [
				{
					"indexed": true,
					"internalType": "address",
					"name": "staker",
					"type": "address"
				},
				{
					"indexed": false,
					"internalType": "uint256",
					"name": "amount",
					"type": "uint256"
				}
			],
			"name": "Stake",
			"type": "event"
		},
		{
			"anonymous": false,
			"inputs": [
				{
					"indexed": false,
					"internalType": "bytes32",
					"name": "poolId",
					"type": "bytes32"
				},
				{
					"indexed": false,
					"internalType": "address",
					"name": "operator",
					"type": "address"
				},
				{
					"indexed": false,
					"internalType": "uint32",
					"name": "operatorShare",
					"type": "uint32"
				}
			],
			"name": "StakingPoolCreated",
			"type": "event"
		},
		{
			"anonymous": false,
			"inputs": [
				{
					"indexed": true,
					"internalType": "uint256",
					"name": "epoch",
					"type": "uint256"
				},
				{
					"indexed": true,
					"internalType": "bytes32",
					"name": "poolId",
					"type": "bytes32"
				}
			],
			"name": "StakingPoolEarnedRewardsInEpoch",
			"type": "event"
		},
		{
			"anonymous": false,
			"inputs": [
				{
					"indexed": true,
					"internalType": "address",
					"name": "staker",
					"type": "address"
				},
				{
					"indexed": false,
					"internalType": "uint256",
					"name": "amount",
					"type": "uint256"
				}
			],
			"name": "Unstake",
			"type": "event"
		},
		{
			"constant": false,
			"inputs": [
				{
					"internalType": "address",
					"name": "target",
					"type": "address"
				}
			],
			"name": "addAuthorizedAddress",
			"outputs": [],
			"payable": false,
			"stateMutability": "nonpayable",
			"type": "function"
		},
		{
			"constant": true,
			"inputs": [
				{
					"internalType": "uint256",
					"name": "",
					"type": "uint256"
				}
			],
			"name": "aggregatedStatsByEpoch",
			"outputs": [
				{
					"internalType": "uint256",
					"name": "rewardsAvailable",
					"type": "uint256"
				},
				{
					"internalType": "uint256",
					"name": "numPoolsToFinalize",
					"type": "uint256"
				},
				{
					"internalType": "uint256",
					"name": "totalFeesCollected",
					"type": "uint256"
				},
				{
					"internalType": "uint256",
					"name": "totalWeightedStake",
					"type": "uint256"
				},
				{
					"internalType": "uint256",
					"name": "totalRewardsFinalized",
					"type": "uint256"
				}
			],
			"payable": false,
			"stateMutability": "view",
			"type": "function"
		},
		{
			"constant": true,
			"inputs": [
				{
					"internalType": "uint256",
					"name": "",
					"type": "uint256"
				}
			],
			"name": "authorities",
			"outputs": [
				{
					"internalType": "address",
					"name": "",
					"type": "address"
				}
			],
			"payable": false,
			"stateMutability": "view",
			"type": "function"
		},
		{
			"constant": true,
			"inputs": [
				{
					"internalType": "address",
					"name": "",
					"type": "address"
				}
			],
			"name": "authorized",
			"outputs": [
				{
					"internalType": "bool",
					"name": "",
					"type": "bool"
				}
			],
			"payable": false,
			"stateMutability": "view",
			"type": "function"
		},
		{
			"constant": true,
			"inputs": [],
			"name": "cobbDouglasAlphaDenominator",
			"outputs": [
				{
					"internalType": "uint32",
					"name": "",
					"type": "uint32"
				}
			],
			"payable": false,
			"stateMutability": "view",
			"type": "function"
		},
		{
			"constant": true,
			"inputs": [],
			"name": "cobbDouglasAlphaNumerator",
			"outputs": [
				{
					"internalType": "uint32",
					"name": "",
					"type": "uint32"
				}
			],
			"payable": false,
			"stateMutability": "view",
			"type": "function"
		},
		{
			"constant": true,
			"inputs": [],
			"name": "currentEpoch",
			"outputs": [
				{
					"internalType": "uint256",
					"name": "",
					"type": "uint256"
				}
			],
			"payable": false,
			"stateMutability": "view",
			"type": "function"
		},
		{
			"constant": true,
			"inputs": [],
			"name": "currentEpochStartTimeInSeconds",
			"outputs": [
				{
					"internalType": "uint256",
					"name": "",
					"type": "uint256"
				}
			],
			"payable": false,
			"stateMutability": "view",
			"type": "function"
		},
		{
			"constant": true,
			"inputs": [],
			"name": "epochDurationInSeconds",
			"outputs": [
				{
					"internalType": "uint256",
					"name": "",
					"type": "uint256"
				}
			],
			"payable": false,
			"stateMutability": "view",
			"type": "function"
		},
		{
			"constant": true,
			"inputs": [],
			"name": "getAuthorizedAddresses",
			"outputs": [
				{
					"internalType": "address[]",
					"name": "",
					"type": "address[]"
				}
			],
			"payable": false,
			"stateMutability": "view",
			"type": "function"
		},
		{
			"constant": true,
			"inputs": [],
			"name": "getParams",
			"outputs": [
				{
					"internalType": "uint256",
					"name": "_epochDurationInSeconds",
					"type": "uint256"
				},
				{
					"internalType": "uint32",
					"name": "_rewardDelegatedStakeWeight",
					"type": "uint32"
				},
				{
					"internalType": "uint256",
					"name": "_minimumPoolStake",
					"type": "uint256"
				},
				{
					"internalType": "uint32",
					"name": "_cobbDouglasAlphaNumerator",
					"type": "uint32"
				},
				{
					"internalType": "uint32",
					"name": "_cobbDouglasAlphaDenominator",
					"type": "uint32"
				}
			],
			"payable": false,
			"stateMutability": "view",
			"type": "function"
		},
		{
			"constant": true,
			"inputs": [
				{
					"internalType": "bytes32",
					"name": "stakingPoolId",
					"type": "bytes32"
				}
			],
			"name": "getPoolsAddressesByStakingPoolId",
			"outputs": [
				{
					"internalType": "address[]",
					"name": "",
					"type": "address[]"
				}
			],
			"payable": false,
			"stateMutability": "view",
			"type": "function"
		},
		{
			"constant": true,
			"inputs": [],
			"name": "lastPoolId",
			"outputs": [
				{
					"internalType": "bytes32",
					"name": "",
					"type": "bytes32"
				}
			],
			"payable": false,
			"stateMutability": "view",
			"type": "function"
		},
		{
			"constant": true,
			"inputs": [],
			"name": "minimumPoolStake",
			"outputs": [
				{
					"internalType": "uint256",
					"name": "",
					"type": "uint256"
				}
			],
			"payable": false,
			"stateMutability": "view",
			"type": "function"
		},
		{
			"constant": true,
			"inputs": [],
			"name": "owner",
			"outputs": [
				{
					"internalType": "address",
					"name": "",
					"type": "address"
				}
			],
			"payable": false,
			"stateMutability": "view",
			"type": "function"
		},
		{
			"constant": true,
			"inputs": [
				{
					"internalType": "address",
					"name": "",
					"type": "address"
				}
			],
			"name": "poolIdByRbPool",
			"outputs": [
				{
					"internalType": "bytes32",
					"name": "",
					"type": "bytes32"
				}
			],
			"payable": false,
			"stateMutability": "view",
			"type": "function"
		},
		{
			"constant": true,
			"inputs": [
				{
					"internalType": "bytes32",
					"name": "",
					"type": "bytes32"
				},
				{
					"internalType": "uint256",
					"name": "",
					"type": "uint256"
				}
			],
			"name": "poolStatsByEpoch",
			"outputs": [
				{
					"internalType": "uint256",
					"name": "feesCollected",
					"type": "uint256"
				},
				{
					"internalType": "uint256",
					"name": "weightedStake",
					"type": "uint256"
				},
				{
					"internalType": "uint256",
					"name": "membersStake",
					"type": "uint256"
				}
			],
			"payable": false,
			"stateMutability": "view",
			"type": "function"
		},
		{
			"constant": false,
			"inputs": [
				{
					"internalType": "address",
					"name": "target",
					"type": "address"
				}
			],
			"name": "removeAuthorizedAddress",
			"outputs": [],
			"payable": false,
			"stateMutability": "nonpayable",
			"type": "function"
		},
		{
			"constant": false,
			"inputs": [
				{
					"internalType": "address",
					"name": "target",
					"type": "address"
				},
				{
					"internalType": "uint256",
					"name": "index",
					"type": "uint256"
				}
			],
			"name": "removeAuthorizedAddressAtIndex",
			"outputs": [],
			"payable": false,
			"stateMutability": "nonpayable",
			"type": "function"
		},
		{
			"constant": true,
			"inputs": [],
			"name": "rewardDelegatedStakeWeight",
			"outputs": [
				{
					"internalType": "uint32",
					"name": "",
					"type": "uint32"
				}
			],
			"payable": false,
			"stateMutability": "view",
			"type": "function"
		},
		{
			"constant": true,
			"inputs": [
				{
					"internalType": "bytes32",
					"name": "",
					"type": "bytes32"
				}
			],
			"name": "rewardsByPoolId",
			"outputs": [
				{
					"internalType": "uint256",
					"name": "",
					"type": "uint256"
				}
			],
			"payable": false,
			"stateMutability": "view",
			"type": "function"
		},
		{
			"constant": false,
			"inputs": [
				{
					"internalType": "uint256",
					"name": "_epochDurationInSeconds",
					"type": "uint256"
				},
				{
					"internalType": "uint32",
					"name": "_rewardDelegatedStakeWeight",
					"type": "uint32"
				},
				{
					"internalType": "uint256",
					"name": "_minimumPoolStake",
					"type": "uint256"
				},
				{
					"internalType": "uint32",
					"name": "_cobbDouglasAlphaNumerator",
					"type": "uint32"
				},
				{
					"internalType": "uint32",
					"name": "_cobbDouglasAlphaDenominator",
					"type": "uint32"
				}
			],
			"name": "setParams",
			"outputs": [],
			"payable": false,
			"stateMutability": "nonpayable",
			"type": "function"
		},
		{
			"constant": true,
			"inputs": [],
			"name": "stakingContract",
			"outputs": [
				{
					"internalType": "address",
					"name": "",
					"type": "address"
				}
			],
			"payable": false,
			"stateMutability": "view",
			"type": "function"
		},
		{
			"constant": false,
			"inputs": [
				{
					"internalType": "address",
					"name": "newOwner",
					"type": "address"
				}
			],
			"name": "transferOwnership",
			"outputs": [],
			"payable": false,
			"stateMutability": "nonpayable",
			"type": "function"
		},
		{
			"constant": true,
			"inputs": [
				{
					"internalType": "address",
					"name": "",
					"type": "address"
				}
			],
			"name": "validExchanges",
			"outputs": [
				{
					"internalType": "bool",
					"name": "",
					"type": "bool"
				}
			],
			"payable": false,
			"stateMutability": "view",
			"type": "function"
		},
		{
			"constant": true,
			"inputs": [],
			"name": "wethReservedForPoolRewards",
			"outputs": [
				{
					"internalType": "uint256",
					"name": "",
					"type": "uint256"
				}
			],
			"payable": false,
			"stateMutability": "view",
			"type": "function"
		}
	]
}