{
	"data": {
		"bytecode": {
			"linkReferences": {},
			"object": "6080604052336000806101000a81548173ffffffffffffffffffffffffffffffffffffffff021916908373ffffffffffffffffffffffffffffffffffffffff16021790555061519a806100536000396000f3fe608060405234801561001057600080fd5b50600436106102275760003560e01c80639ad2674411610130578063d39de6e9116100b8578063e907f0031161007c578063e907f003146106d4578063ee99205c14610704578063f252b7a114610722578063f2fde38b14610752578063ff691b111461076e57610227565b8063d39de6e91461062c578063e0822db71461064a578063e0ee036e14610668578063e804d0a414610686578063e8eeb3f8146106b657610227565b8063b2baa33e116100ff578063b2baa33e14610562578063b510879f14610580578063b91816111461059c578063bb7ef7e0146105cc578063c18c9141146105fc57610227565b80639ad26744146104ec578063a26171e214610508578063a657e57914610526578063b05315241461054457610227565b8063494503d4116101b3578063634038011161018257806363403801146104585780637071293914610476578063766718081461049257806381666796146104b05780638da5cb5b146104ce57610227565b8063494503d4146103aa578063587da023146103da5780635bd4ab73146103f85780635e30deff1461042857610227565b80633c277fc5116101fa5780633c277fc5146102e05780633cb25d34146102fe5780633e4ad7321461032e57806342f1181e1461035e57806344a6958b1461037a57610227565b80630b9663db1461022c5780631e7ff8f61461024a5780632a94c2791461027a57806338229d93146102ac575b600080fd5b61023461078a565b6040516102419190614d87565b60405180910390f35b610264600480360361025f9190810190614744565b610915565b6040516102719190614d87565b60405180910390f35b610294600480360361028f91908101906148af565b6109ae565b6040516102a393929190614dcb565b60405180910390f35b6102c660048036036102c19190810190614914565b6109e5565b6040516102d7959493929190614e47565b60405180910390f35b6102e8610a1b565b6040516102f59190614c6d565b60405180910390f35b610318600480360361031391908101906148af565b610a3a565b6040516103259190614b7f565b60405180910390f35b6103486004803603610343919081019061484a565b610a85565b6040516103559190614d6c565b60405180910390f35b61037860048036036103739190810190614744565b610ab2565b005b610394600480360361038f91908101906147a9565b610ac6565b6040516103a19190614d6c565b60405180910390f35b6103c460048036036103bf9190810190614914565b610b42565b6040516103d19190614b7f565b60405180910390f35b6103e2610b7e565b6040516103ef9190614d87565b60405180910390f35b610412600480360361040d9190810190614744565b610b84565b60405161041f9190614c0e565b60405180910390f35b610442600480360361043d9190810190614744565b610ba4565b60405161044f9190614c29565b60405180910390f35b610460610bbc565b60405161046d9190614d87565b60405180910390f35b610490600480360361048b9190810190614744565b610bc2565b005b61049a610ccb565b6040516104a79190614d87565b60405180910390f35b6104b8610cd1565b6040516104c59190614e9a565b60405180910390f35b6104d6610ce7565b6040516104e39190614b7f565b60405180910390f35b610506600480360361050191908101906147e5565b610d0c565b005b610510610d22565b60405161051d9190614d87565b60405180910390f35b61052e610d28565b60405161053b9190614c29565b60405180910390f35b61054c610d2e565b6040516105599190614d87565b60405180910390f35b61056a610d34565b6040516105779190614d87565b60405180910390f35b61059a6004803603610595919081019061484a565b610d52565b005b6105b660048036036105b19190810190614744565b610d5f565b6040516105c39190614c0e565b60405180910390f35b6105e660048036036105e1919081019061484a565b610d7f565b6040516105f39190614d87565b60405180910390f35b6106166004803603610611919081019061484a565b610e54565b6040516106239190614d87565b60405180910390f35b610634610e6c565b6040516106419190614bec565b60405180910390f35b610652610efa565b60405161065f9190614c88565b60405180910390f35b610670610f19565b60405161067d9190614e9a565b60405180910390f35b6106a0600480360361069b91908101906148eb565b610f2f565b6040516106ad9190614d6c565b60405180910390f35b6106be6110bf565b6040516106cb9190614e9a565b60405180910390f35b6106ee60048036036106e99190810190614873565b6110d5565b6040516106fb9190614d87565b60405180910390f35b61070c6111b7565b6040516107199190614b7f565b60405180910390f35b61073c6004803603610737919081019061476d565b6111dd565b6040516107499190614d6c565b60405180910390f35b61076c60048036036107679190810190614744565b611248565b005b6107886004803603610783919081019061484a565b611338565b005b600080600d54905060006107a860018361161690919063ffffffff16565b9050600060176000838152602001908152602001600020600101549050600081146107e0576107df6107da8383611640565b6116c2565b5b6107e86116ca565b6107f0611743565b601760008581526020019081526020016000206000018190555061081261458e565b601760008581526020019081526020016000206040518060a0016040529081600082015481526020016001820154815260200160028201548152602001600382015481526020016004820154815250509050837fbb4a26fa0ace13ee4da343896c20eaa44a618fb9071fdd8c2e2c960a4583189d82602001518360000151846040015185606001516040516108aa9493929190614e02565b60405180910390a26108ba6117f1565b60008160200151141561090757837fb463d19ecf455be65365092cf8e1db6934a0334cf8cd532ddf9964d01f36b5b2600083600001516040516108fe929190614d03565b60405180910390a25b806020015194505050505090565b600061091f610efa565b73ffffffffffffffffffffffffffffffffffffffff166370a08231836040518263ffffffff1660e01b81526004016109579190614b7f565b60206040518083038186803b15801561096f57600080fd5b505afa158015610983573d6000803e3d6000fd5b505050506040513d601f19601f820116820180604052506109a7919081019061493d565b9050919050565b6016602052816000526040600020602052806000526040600020600091509150508060000154908060010154908060020154905083565b60176020528060005260406000206000915090508060000154908060010154908060020154908060030154908060040154905085565b600073c02aaa39b223fe8d0a0e5c4f27ead9083c756cc2905080905090565b600a6020528160005260406000208181548110610a5357fe5b906000526020600020016000915091509054906101000a900473ffffffffffffffffffffffffffffffffffffffff1681565b610a8d6145bd565b610aa86007600084815260200190815260200160002061184a565b9050809050919050565b610aba611989565b610ac381611a13565b50565b610ace6145bd565b610b3760056000846001811115610ae157fe5b60ff1660ff16815260200190815260200160002060008573ffffffffffffffffffffffffffffffffffffffff1673ffffffffffffffffffffffffffffffffffffffff16815260200190815260200160002061184a565b905080905092915050565b60028181548110610b4f57fe5b906000526020600020016000915054906101000a900473ffffffffffffffffffffffffffffffffffffffff1681565b600e5481565b60116020528060005260406000206000915054906101000a900460ff1681565b60096020528060005260406000206000915090505481565b60125481565b610bca611989565b600160008273ffffffffffffffffffffffffffffffffffffffff1673ffffffffffffffffffffffffffffffffffffffff16815260200190815260200160002060009054906101000a900460ff16610c2d57610c2c610c2782611bd7565b6116c2565b5b60008090505b600280549050811015610cc7578173ffffffffffffffffffffffffffffffffffffffff1660028281548110610c6457fe5b9060005260206000200160009054906101000a900473ffffffffffffffffffffffffffffffffffffffff1673ffffffffffffffffffffffffffffffffffffffff161415610cba57610cb58282611c56565b610cc7565b8080600101915050610c33565b5050565b600d5481565b601560009054906101000a900463ffffffff1681565b6000809054906101000a900473ffffffffffffffffffffffffffffffffffffffff1681565b610d14611989565b610d1e8282611c56565b5050565b60145481565b60085481565b60185481565b6000610d4d601254600e54611eec90919063ffffffff16565b905090565b610d5c8133611f1b565b50565b60016020528060005260406000206000915054906101000a900460ff1681565b6000610d89614604565b600b60008481526020019081526020016000206040518060400160405290816000820160009054906101000a900473ffffffffffffffffffffffffffffffffffffffff1673ffffffffffffffffffffffffffffffffffffffff1673ffffffffffffffffffffffffffffffffffffffff1681526020016000820160149054906101000a900463ffffffff1663ffffffff1663ffffffff16815250509050600080610e3185612133565b91509150610e4483602001518383612210565b5080945050839350505050919050565b600c6020528060005260406000206000915090505481565b60606002805480602002602001604051908101604052809291908181526020018280548015610ef057602002820191906000526020600020905b8160009054906101000a900473ffffffffffffffffffffffffffffffffffffffff1673ffffffffffffffffffffffffffffffffffffffff1681526020019060010190808311610ea6575b5050505050905090565b600073ba7f8b5fb1b19c1211c5d49550fcd149177a5eaf905080905090565b601360009054906101000a900463ffffffff1681565b610f376145bd565b610f6360046000600180811115610f4a57fe5b60ff1660ff16815260200190815260200160002061184a565b905060006001811115610f7257fe5b826001811115610f7e57fe5b14156110b7576000610f8e610efa565b73ffffffffffffffffffffffffffffffffffffffff16636b6df5aa6040518163ffffffff1660e01b815260040160206040518083038186803b158015610fd357600080fd5b505afa158015610fe7573d6000803e3d6000fd5b505050506040513d601f19601f8201168201806040525061100b919081019061493d565b905061103a61103583602001516bffffffffffffffffffffffff168361161690919063ffffffff16565b612264565b82602001906bffffffffffffffffffffffff1690816bffffffffffffffffffffffff168152505061108e61108983604001516bffffffffffffffffffffffff168361161690919063ffffffff16565b612264565b82604001906bffffffffffffffffffffffff1690816bffffffffffffffffffffffff1681525050505b809050919050565b601560049054906101000a900463ffffffff1681565b60006110df614604565b600b60008581526020019081526020016000206040518060400160405290816000820160009054906101000a900473ffffffffffffffffffffffffffffffffffffffff1673ffffffffffffffffffffffffffffffffffffffff1673ffffffffffffffffffffffffffffffffffffffff1681526020016000820160149054906101000a900463ffffffff1663ffffffff1663ffffffff1681525050905060008061118786612133565b91509150600061119c84602001518484612210565b9150506111ab8787838561229a565b94505050505092915050565b600360009054906101000a900473ffffffffffffffffffffffffffffffffffffffff1681565b6111e56145bd565b61123d600660008573ffffffffffffffffffffffffffffffffffffffff1673ffffffffffffffffffffffffffffffffffffffff168152602001908152602001600020600084815260200190815260200160002061184a565b905080905092915050565b611250611989565b600073ffffffffffffffffffffffffffffffffffffffff168173ffffffffffffffffffffffffffffffffffffffff16141561129a5761129561129061248b565b6116c2565b611335565b806000806101000a81548173ffffffffffffffffffffffffffffffffffffffff021916908373ffffffffffffffffffffffffffffffffffffffff1602179055508073ffffffffffffffffffffffffffffffffffffffff163373ffffffffffffffffffffffffffffffffffffffff167f8be0079c531659141344cd1fd0a4f28419497f9722a3daafe3b4186f6b6457e060405160405180910390a35b50565b611341336124c8565b15611381576040517f08c379a000000000000000000000000000000000000000000000000000000000815260040161137890614d2c565b60405180910390fd5b6000600d549050600061139e60018361161690919063ffffffff16565b90506113a861458e565b601760008381526020019081526020016000206040518060a001604052908160008201548152602001600182015481526020016002820154815260200160038201548152602001600482015481525050905060008160200151141561140f57505050611613565b61141761463a565b6016600086815260200190815260200160002060008481526020019081526020016000206040518060600160405290816000820154815260200160018201548152602001600282015481525050905060008160000151141561147c5750505050611613565b60166000868152602001908152602001600020600084815260200190815260200160002060008082016000905560018201600090556002820160009055505060006114c782846124db565b90506000806114db8884866040015161256d565b9150915087877ff1116b309178aa62dcb6bf8c3b8bc2321724907c7ebf52192d14c8ce3aa9194c8484604051611512929190614da2565b60405180910390a3600061152f8284611eec90919063ffffffff16565b9050611548818760800151611eec90919063ffffffff16565b866080018181525060176000898152602001908152602001600020600401819055506115826001876020015161161690919063ffffffff16565b8660200181815250601760008981526020019081526020016000206001018190555060008660200151141561160a57867fb463d19ecf455be65365092cf8e1db6934a0334cf8cd532ddf9964d01f36b5b287608001516115f389608001518a6000015161161690919063ffffffff16565b604051611601929190614da2565b60405180910390a25b50505050505050505b50565b6000828211156116355761163461162f600285856126fc565b6116c2565b5b818303905092915050565b606063614b800a60e01b838360405160240161165d929190614da2565b604051602081830303815290604052907bffffffffffffffffffffffffffffffffffffffffffffffffffffffff19166020820180517bffffffffffffffffffffffffffffffffffffffffffffffffffffffff8381831617835250505050905092915050565b805160208201fd5b600047905060008114611740576116df610a1b565b73ffffffffffffffffffffffffffffffffffffffff1663d0e30db0826040518263ffffffff1660e01b81526004016000604051808303818588803b15801561172657600080fd5b505af115801561173a573d6000803e3d6000fd5b50505050505b50565b60006117e9601854611753610a1b565b73ffffffffffffffffffffffffffffffffffffffff166370a08231306040518263ffffffff1660e01b815260040161178b9190614b7f565b60206040518083038186803b1580156117a357600080fd5b505afa1580156117b7573d6000803e3d6000fd5b505050506040513d601f19601f820116820180604052506117db919081019061493d565b61161690919063ffffffff16565b905080905090565b60004290506000611800610d34565b90508181111561181d5761181c6118178284612781565b6116c2565b5b60006118356001600d54611eec90919063ffffffff16565b905080600d8190555082600e81905550505050565b6118526145bd565b816040518060600160405290816000820160009054906101000a900467ffffffffffffffff1667ffffffffffffffff1667ffffffffffffffff1681526020016000820160089054906101000a90046bffffffffffffffffffffffff166bffffffffffffffffffffffff166bffffffffffffffffffffffff1681526020016000820160149054906101000a90046bffffffffffffffffffffffff166bffffffffffffffffffffffff166bffffffffffffffffffffffff168152505090506000600d549050816000015167ffffffffffffffff168111156119805761193481612803565b826000019067ffffffffffffffff16908167ffffffffffffffff1681525050816040015182602001906bffffffffffffffffffffffff1690816bffffffffffffffffffffffff16815250505b81915050919050565b6000809054906101000a900473ffffffffffffffffffffffffffffffffffffffff1673ffffffffffffffffffffffffffffffffffffffff163373ffffffffffffffffffffffffffffffffffffffff1614611a1157611a10611a0b336000809054906101000a900473ffffffffffffffffffffffffffffffffffffffff16612835565b6116c2565b5b565b600073ffffffffffffffffffffffffffffffffffffffff168173ffffffffffffffffffffffffffffffffffffffff161415611a5957611a58611a536128b7565b6116c2565b5b600160008273ffffffffffffffffffffffffffffffffffffffff1673ffffffffffffffffffffffffffffffffffffffff16815260200190815260200160002060009054906101000a900460ff1615611abd57611abc611ab7826128f4565b6116c2565b5b60018060008373ffffffffffffffffffffffffffffffffffffffff1673ffffffffffffffffffffffffffffffffffffffff16815260200190815260200160002060006101000a81548160ff02191690831515021790555060028190806001815401808255809150509060018203906000526020600020016000909192909190916101000a81548173ffffffffffffffffffffffffffffffffffffffff021916908373ffffffffffffffffffffffffffffffffffffffff160217905550503373ffffffffffffffffffffffffffffffffffffffff168173ffffffffffffffffffffffffffffffffffffffff167f3147867c59d17e8fa9d522465651d44aae0a9e38f902f3475b97e58072f0ed4c60405160405180910390a350565b606063eb5108a260e01b82604051602401611bf29190614b7f565b604051602081830303815290604052907bffffffffffffffffffffffffffffffffffffffffffffffffffffffff19166020820180517bffffffffffffffffffffffffffffffffffffffffffffffffffffffff83818316178352505050509050919050565b600160008373ffffffffffffffffffffffffffffffffffffffff1673ffffffffffffffffffffffffffffffffffffffff16815260200190815260200160002060009054906101000a900460ff16611cb957611cb8611cb383611bd7565b6116c2565b5b6002805490508110611cdd57611cdc611cd782600280549050612973565b6116c2565b5b8173ffffffffffffffffffffffffffffffffffffffff1660028281548110611d0157fe5b9060005260206000200160009054906101000a900473ffffffffffffffffffffffffffffffffffffffff1673ffffffffffffffffffffffffffffffffffffffff1614611d9157611d90611d8b60028381548110611d5a57fe5b9060005260206000200160009054906101000a900473ffffffffffffffffffffffffffffffffffffffff16846129f5565b6116c2565b5b600160008373ffffffffffffffffffffffffffffffffffffffff1673ffffffffffffffffffffffffffffffffffffffff16815260200190815260200160002060006101000a81549060ff0219169055600260016002805490500381548110611df557fe5b9060005260206000200160009054906101000a900473ffffffffffffffffffffffffffffffffffffffff1660028281548110611e2d57fe5b9060005260206000200160006101000a81548173ffffffffffffffffffffffffffffffffffffffff021916908373ffffffffffffffffffffffffffffffffffffffff1602179055506001600281818054905003915081611e8d919061465b565b503373ffffffffffffffffffffffffffffffffffffffff168273ffffffffffffffffffffffffffffffffffffffff167f1f32c1b084e2de0713b8fb16bd46bb9df710a3dbeae2f3ca93af46e016dcc6b060405160405180910390a35050565b600080828401905083811015611f1157611f10611f0b600086866126fc565b6116c2565b5b8091505092915050565b611f2482612a77565b6000611f33838360008061229a565b9050611f8d600660008473ffffffffffffffffffffffffffffffffffffffff1673ffffffffffffffffffffffffffffffffffffffff168152602001908152602001600020600085815260200190815260200160002061184a565b600660008473ffffffffffffffffffffffffffffffffffffffff1673ffffffffffffffffffffffffffffffffffffffff168152602001908152602001600020600085815260200190815260200160002060008201518160000160006101000a81548167ffffffffffffffff021916908367ffffffffffffffff16021790555060208201518160000160086101000a8154816bffffffffffffffffffffffff02191690836bffffffffffffffffffffffff16021790555060408201518160000160146101000a8154816bffffffffffffffffffffffff02191690836bffffffffffffffffffffffff160217905550905050600081146121255761208f8382612b0c565b612097610a1b565b73ffffffffffffffffffffffffffffffffffffffff1663a9059cbb83836040518363ffffffff1660e01b81526004016120d1929190614bc3565b602060405180830381600087803b1580156120eb57600080fd5b505af11580156120ff573d6000803e3d6000fd5b505050506040513d601f19601f820116820180604052506121239190810190614821565b505b61212e83612b68565b505050565b600080600061214e6001600d5461161690919063ffffffff16565b905061215861463a565b6016600086815260200190815260200160002060008381526020019081526020016000206040518060600160405290816000820154815260200160018201548152602001600282015481525050905061220081601760008581526020019081526020016000206040518060a0016040529081600082015481526020016001820154815260200160028201548152602001600382015481526020016004820154815250506124db565b9350806040015192505050915091565b600080600083141561222457839150612256565b61223e8563ffffffff16620f424063ffffffff1686612b78565b9150612253828561161690919063ffffffff16565b90505b818191509150935093915050565b600081905081816bffffffffffffffffffffffff16146122925761229161228c600284612bd0565b6116c2565b5b809050919050565b600080600d5490506122aa6145bd565b600660008773ffffffffffffffffffffffffffffffffffffffff1673ffffffffffffffffffffffffffffffffffffffff16815260200190815260200160002060008881526020019081526020016000206040518060600160405290816000820160009054906101000a900467ffffffffffffffff1667ffffffffffffffff1667ffffffffffffffff1681526020016000820160089054906101000a90046bffffffffffffffffffffffff166bffffffffffffffffffffffff166bffffffffffffffffffffffff1681526020016000820160149054906101000a90046bffffffffffffffffffffffff166bffffffffffffffffffffffff166bffffffffffffffffffffffff1681525050905081816000015167ffffffffffffffff1614156123d657600092505050612483565b6123e281838787612c52565b925060006124086001836000015167ffffffffffffffff16611eec90919063ffffffff16565b90506124486124398984602001516bffffffffffffffffffffffff16856000015167ffffffffffffffff1685612ce5565b85611eec90919063ffffffff16565b935061247a61246b8984604001516bffffffffffffffffffffffff168487612ce5565b85611eec90919063ffffffff16565b93508393505050505b949350505050565b60606040518060400160405280600481526020017fe69edc3e00000000000000000000000000000000000000000000000000000000815250905090565b600080823b905060008111915050919050565b600080836000015114156124f157809050612567565b61253882600001518460000151846040015186602001518660600151601560009054906101000a900463ffffffff16601560049054906101000a900463ffffffff16612d96565b905060006125578360800151846000015161161690919063ffffffff16565b905081811015612565578091505b505b92915050565b600080612578614604565b600b60008781526020019081526020016000206040518060400160405290816000820160009054906101000a900473ffffffffffffffffffffffffffffffffffffffff1673ffffffffffffffffffffffffffffffffffffffff1673ffffffffffffffffffffffffffffffffffffffff1681526020016000820160149054906101000a900463ffffffff1663ffffffff1663ffffffff1681525050905061262381602001518686612210565b809350819450505060008311156126ce5761263c610a1b565b73ffffffffffffffffffffffffffffffffffffffff1663a9059cbb8260000151856040518363ffffffff1660e01b815260040161267a929190614bc3565b602060405180830381600087803b15801561269457600080fd5b505af11580156126a8573d6000803e3d6000fd5b505050506040513d601f19601f820116820180604052506126cc9190810190614821565b505b60008211156126ed576126e18683612e63565b6126ec868386612ebf565b5b82829250925050935093915050565b606063e946c1bb60e01b84848460405160240161271b93929190614ca3565b604051602081830303815290604052907bffffffffffffffffffffffffffffffffffffffffffffffffffffffff19166020820180517bffffffffffffffffffffffffffffffffffffffffffffffffffffffff838183161783525050505090509392505050565b606063a6bcde4760e01b838360405160240161279e929190614da2565b604051602081830303815290604052907bffffffffffffffffffffffffffffffffffffffffffffffffffffffff19166020820180517bffffffffffffffffffffffffffffffffffffffffffffffffffffffff8381831617835250505050905092915050565b6000819050818167ffffffffffffffff161461282d5761282c612827600184612bd0565b6116c2565b5b809050919050565b6060631de45ad160e01b8383604051602401612852929190614b9a565b604051602081830303815290604052907bffffffffffffffffffffffffffffffffffffffffffffffffffffffff19166020820180517bffffffffffffffffffffffffffffffffffffffffffffffffffffffff8381831617835250505050905092915050565b60606040518060400160405280600481526020017f57654fe400000000000000000000000000000000000000000000000000000000815250905090565b606063de16f1a060e01b8260405160240161290f9190614b7f565b604051602081830303815290604052907bffffffffffffffffffffffffffffffffffffffffffffffffffffffff19166020820180517bffffffffffffffffffffffffffffffffffffffffffffffffffffffff83818316178352505050509050919050565b606063e9f8377160e01b8383604051602401612990929190614da2565b604051602081830303815290604052907bffffffffffffffffffffffffffffffffffffffffffffffffffffffff19166020820180517bffffffffffffffffffffffffffffffffffffffffffffffffffffffff8381831617835250505050905092915050565b606063140a84db60e01b8383604051602401612a12929190614b9a565b604051602081830303815290604052907bffffffffffffffffffffffffffffffffffffffffffffffffffffffff19166020820180517bffffffffffffffffffffffffffffffffffffffffffffffffffffffff8381831617835250505050905092915050565b6000612a8f6001600d5461161690919063ffffffff16565b9050612a9961463a565b601660008481526020019081526020016000206000838152602001908152602001600020604051806060016040529081600082015481526020016001820154815260200160028201548152505090506000816000015114612b0757612b06612b018484613012565b6116c2565b5b505050565b612b3281600c60008581526020019081526020016000205461161690919063ffffffff16565b600c600084815260200190815260200160002081905550612b5e8160185461161690919063ffffffff16565b6018819055505050565b612b758160006001612ebf565b50565b6000612bc483612bb6612b9560018761161690919063ffffffff16565b612ba8868961309490919063ffffffff16565b611eec90919063ffffffff16565b6130de90919063ffffffff16565b90508090509392505050565b606063c996af7b60e01b8383604051602401612bed929190614cda565b604051602081830303815290604052907bffffffffffffffffffffffffffffffffffffffffffffffffffffffff19166020820180517bffffffffffffffffffffffffffffffffffffffffffffffffffffffff8381831617835250505050905092915050565b600080831480612c625750600082145b15612c705760009050612cdd565b6000612c8660018661161690919063ffffffff16565b866000015167ffffffffffffffff161015612ca5578560400151612cab565b85602001515b6bffffffffffffffffffffffff1690506000811415612cce576000915050612cdd565b612cd9848483613115565b9150505b949350505050565b600080841480612cf457508183145b15612d025760009050612d8e565b818310612d44576040517f08c379a0000000000000000000000000000000000000000000000000000000008152600401612d3b90614d4c565b60405180910390fd5b612d4c614687565b612d568685613148565b9050612d60614687565b612d6a8785613148565b9050612d8981600001518260200151846000015185602001518a6132bf565b925050505b949350505050565b600080612da3888861338f565b90506000612db1878761338f565b90506000821480612dc25750600081145b15612dd557600092508292505050612e58565b600081831315612dee57612de982846133f5565b612df9565b612df883836133f5565b5b9050612e22612e1d612e0a83613422565b8863ffffffff168863ffffffff16613a8a565b613aa8565b905081831315612e3b57612e3682826133f5565b612e46565b612e45828261411a565b5b9050612e52818c614147565b93505050505b979650505050505050565b612e8981600c600085815260200190815260200160002054611eec90919063ffffffff16565b600c600084815260200190815260200160002081905550612eb581601854611eec90919063ffffffff16565b6018819055505050565b6000601060008581526020019081526020016000205490506000600d54905080821415612eed57505061300d565b612ef5614687565b600f60008781526020019081526020016000206000848152602001908152602001600020604051806040016040529081600082015481526020016001820154815250509050612f42614687565b612f4b82614194565b15612f9f57612f648260000151836020015188886141a5565b826000018360200182815250828152505050612f888160000151826020015161423a565b826000018360200182815250828152505050612fb4565b85858260000183602001828152508281525050505b80600f600089815260200190815260200160002060008581526020019081526020016000206000820151816000015560208201518160010155905050826010600089815260200190815260200160002081905550505050505b505050565b6060635caa0b0560e01b838360405160240161302f929190614c44565b604051602081830303815290604052907bffffffffffffffffffffffffffffffffffffffffffffffffffffffff19166020820180517bffffffffffffffffffffffffffffffffffffffffffffffffffffffff8381831617835250505050905092915050565b6000808314156130a757600090506130d8565b60008284029050828482816130b857fe5b04146130d3576130d26130cd600186866126fc565b6116c2565b5b809150505b92915050565b6000808214156130fd576130fc6130f7600385856126fc565b6116c2565b5b600082848161310857fe5b0490508091505092915050565b600061313c8361312e848761309490919063ffffffff16565b6130de90919063ffffffff16565b90508090509392505050565b613150614687565b600f6000848152602001908152602001600020600083815260200190815260200160002060405180604001604052908160008201548152602001600182015481525050905061319e81614194565b156131ab578090506132b9565b60006131c160018461161690919063ffffffff16565b9050600f6000858152602001908152602001600020600082815260200190815260200160002060405180604001604052908160008201548152602001600182015481525050915061321182614194565b1561321f57819150506132b9565b6000601060008681526020019081526020016000205490508381101561329d57600f6000868152602001908152602001600020600082815260200190815260200160002060405180604001604052908160008201548152602001600182015481525050925061328d83614194565b1561329c5782925050506132b9565b5b6040518060400160405280600081526020016001815250925050505b92915050565b6000808214156132d25760009050613386565b600084141561330a57613300856132f2888561309490919063ffffffff16565b6130de90919063ffffffff16565b9050809050613386565b6000613343613322878761309490919063ffffffff16565b613335868a61309490919063ffffffff16565b61161690919063ffffffff16565b9050600061335a85836130de90919063ffffffff16565b905061338187613373838761309490919063ffffffff16565b6130de90919063ffffffff16565b925050505b95945050505050565b6000808312156133ad576133ac6133a7600185614263565b6116c2565b5b60008212156133ca576133c96133c4600184614263565b6116c2565b5b6133ed6133e7846f800000000000000000000000000000006142f0565b83614355565b905092915050565b600061341a613414846f800000000000000000000000000000006142f0565b83614355565b905092915050565b60006f800000000000000000000000000000008213156134505761344f61344a6001846143ee565b6116c2565b5b6000821361346c5761346b6134666000846143ee565b6116c2565b5b6f8000000000000000000000000000000082141561348d5760009050613a85565b640733048c5a82136134b557701ff00000000000000000000000000000006000039050613a85565b60008060006a01c8464f76164760000000851361350c57701000000000000000000000000000000000840393506a01c8464f761647600000006f8000000000000000000000000000000086028161350857fe5b0594505b6cf1aaddd7742e90000000000000851361356257700800000000000000000000000000000000840393506cf1aaddd7742e900000000000006f8000000000000000000000000000000086028161355e57fe5b0594505b6e0afe10820813d7800000000000000085136135bc57700400000000000000000000000000000000840393506e0afe10820813d780000000000000006f800000000000000000000000000000008602816135b857fe5b0594505b6f02582ab704279ec00000000000000000851361361857700200000000000000000000000000000000840393506f02582ab704279ec000000000000000006f8000000000000000000000000000000086028161361457fe5b0594505b6f1152aaa3bf81cc000000000000000000851361367457700100000000000000000000000000000000840393506f1152aaa3bf81cc0000000000000000006f8000000000000000000000000000000086028161367057fe5b0594505b6f2f16ac6c59de7000000000000000000085136136cf576f80000000000000000000000000000000840393506f2f16ac6c59de700000000000000000006f800000000000000000000000000000008602816136cb57fe5b0594505b6f4da2cbf1be5828000000000000000000851361372a576f40000000000000000000000000000000840393506f4da2cbf1be58280000000000000000006f8000000000000000000000000000000086028161372657fe5b0594505b6f63afbe7ab2082c0000000000000000008513613785576f20000000000000000000000000000000840393506f63afbe7ab2082c0000000000000000006f8000000000000000000000000000000086028161378157fe5b0594505b6f70f5a893b608861e1f58934f97aea57d85136137e0576f10000000000000000000000000000000840393506f70f5a893b608861e1f58934f97aea57d6f800000000000000000000000000000008602816137dc57fe5b0594505b6f80000000000000000000000000000000850392508291506f800000000000000000000000000000008384028161381357fe5b059050700100000000000000000000000000000000837001000000000000000000000000000000000383028161384557fe5b05840193506f800000000000000000000000000000008183028161386557fe5b059150700200000000000000000000000000000000836faaaaaaaaaaaaaaaaaaaaaaaaaaaaaaaa0383028161389657fe5b05840193506f80000000000000000000000000000000818302816138b657fe5b059150700300000000000000000000000000000000836f99999999999999999999999999999999038302816138e757fe5b05840193506f800000000000000000000000000000008183028161390757fe5b059150700400000000000000000000000000000000836f924924924924924924924924924924920383028161393857fe5b05840193506f800000000000000000000000000000008183028161395857fe5b059150700500000000000000000000000000000000836f8e38e38e38e38e38e38e38e38e38e38e0383028161398957fe5b05840193506f80000000000000000000000000000000818302816139a957fe5b059150700600000000000000000000000000000000836f8ba2e8ba2e8ba2e8ba2e8ba2e8ba2e8b038302816139da57fe5b05840193506f80000000000000000000000000000000818302816139fa57fe5b059150700700000000000000000000000000000000836f89d89d89d89d89d89d89d89d89d89d8903830281613a2b57fe5b05840193506f8000000000000000000000000000000081830281613a4b57fe5b059150700800000000000000000000000000000000836f8888888888888888888888888888888803830281613a7c57fe5b05840193505050505b919050565b6000613a9f613a9985856142f0565b83614355565b90509392505050565b6000701ff0000000000000000000000000000000600003821215613acf5760009050614115565b6000821415613af0576f800000000000000000000000000000009050614115565b6000821315613b0d57613b0c613b076001846143ee565b6116c2565b5b6000806f100000000000000000000000000000008481613b2957fe5b0791508190506f8000000000000000000000000000000082820281613b4a57fe5b0590506710e1b3be415a00008102830192506f8000000000000000000000000000000082820281613b7757fe5b0590506705a0913f6b1e00008102830192506f8000000000000000000000000000000082820281613ba457fe5b059050670168244fdac780008102830192506f8000000000000000000000000000000082820281613bd157fe5b059050664807432bc180008102830192506f8000000000000000000000000000000082820281613bfd57fe5b059050660c0135dca040008102830192506f8000000000000000000000000000000082820281613c2957fe5b0590506601b707b1cdc0008102830192506f8000000000000000000000000000000082820281613c5557fe5b0590506536e0f639b8008102830192506f8000000000000000000000000000000082820281613c8057fe5b059050650618fee9f8008102830192506f8000000000000000000000000000000082820281613cab57fe5b059050649c197dcc008102830192506f8000000000000000000000000000000082820281613cd557fe5b059050640e30dce4008102830192506f8000000000000000000000000000000082820281613cff57fe5b05905064012ebd13008102830192506f8000000000000000000000000000000082820281613d2957fe5b0590506317499f008102830192506f8000000000000000000000000000000082820281613d5257fe5b0590506301a9d4808102830192506f8000000000000000000000000000000082820281613d7b57fe5b059050621c63808102830192506f8000000000000000000000000000000082820281613da357fe5b0590506201c6388102830192506f8000000000000000000000000000000082820281613dcb57fe5b059050611ab88102830192506f8000000000000000000000000000000082820281613df257fe5b05905061017c8102830192506f8000000000000000000000000000000082820281613e1957fe5b05905060148102830192506f8000000000000000000000000000000082820281613e3f57fe5b05905060018102830192506f80000000000000000000000000000000826721c3677c82b400008581613e6d57fe5b05010192508360000393506000701000000000000000000000000000000000851614613ec2577243cbaf42a000812488fc5c220ad7b97bf6e99e6cf1aaddd7742e56d32fb9f99744840281613ebe57fe5b0592505b6000700800000000000000000000000000000000851614613f0d577105d27a9f51c31b7c2f8038212a05747799916e0afe10820813d65dfe6a33c07f738f840281613f0957fe5b0592505b6000700400000000000000000000000000000000851614613f5857701b4c902e273a58678d6d3bfdb93db96d026f02582ab704279e8efd15e0265855c47a840281613f5457fe5b0592505b6000700200000000000000000000000000000000851614613fa3577003b1cc971a9bb5b9867477440d6d1577506f1152aaa3bf81cb9fdb76eae12d029571840281613f9f57fe5b0592505b6000700100000000000000000000000000000000851614613fee5770015bf0a8b1457695355fb8ac404e7a79e36f2f16ac6c59de6f8d5d6f63c1482a7c86840281613fea57fe5b0592505b60006f80000000000000000000000000000000851614614037576fd3094c70f034de4b96ff7d5b6f99fcd86f4da2cbf1be5827f9eb3ad1aa9866ebb384028161403357fe5b0592505b60006f40000000000000000000000000000000851614614080576fa45af1e1f40c333b3de1db4dd55f29a76f63afbe7ab2082ba1a0ae5e4eb1b479dc84028161407c57fe5b0592505b60006f200000000000000000000000000000008516146140c9576f910b022db7ae67ce76b441c27035c6a16f70f5a893b608861e1f58934f97aea57d8402816140c557fe5b0592505b60006f10000000000000000000000000000000851614614112576f88415abbe9a76bead8d00cf112e4d4a86f783eafef1c0a8f3978c7f81824d62ebf84028161410e57fe5b0592505b50505b919050565b60006f8000000000000000000000000000000061413784846142f0565b8161413e57fe5b05905092915050565b6000808212156141655761416461415f600184614263565b6116c2565b5b600061417184846142f0565b90506000811361418557600091505061418e565b607f81901c9150505b92915050565b600080826020015114159050919050565b60008060008614156141c257839150818391508191509150614231565b60008414156141dc57859150818591508191509150614231565b6142136141f2868661309490919063ffffffff16565b614205858961309490919063ffffffff16565b611eec90919063ffffffff16565b9150614228838661309490919063ffffffff16565b90508181915091505b94509492505050565b60008061425884846f8000000000000000000000000000000061447b565b915091509250929050565b606063bd79545f60e01b83600181111561427957fe5b8360405160240161428b929190614f15565b604051602081830303815290604052907bffffffffffffffffffffffffffffffffffffffffffffffffffffffff19166020820180517bffffffffffffffffffffffffffffffffffffffffffffffffffffffff8381831617835250505050905092915050565b6000808314806143005750600082145b1561430e576000905061434f565b81830290508183828161431d57fe5b0514158061433457508282828161433057fe5b0514155b1561434e5761434d614348600185856144fe565b6116c2565b5b5b92915050565b6000808214156143745761437361436e600285856144fe565b6116c2565b5b7f8000000000000000000000000000000000000000000000000000000000000000831480156143c257507fffffffffffffffffffffffffffffffffffffffffffffffffffffffffffffffff82145b156143dc576143db6143d6600385856144fe565b6116c2565b5b8183816143e557fe5b05905092915050565b606063ed2f26a160e01b83600181111561440457fe5b83604051602401614416929190614eb5565b604051602081830303815290604052907bffffffffffffffffffffffffffffffffffffffffffffffffffffffff19166020820180517bffffffffffffffffffffffffffffffffffffffffffffffffffffffff8381831617835250505050905092915050565b6000808285118061448b57508284115b156144e9576000848610156144a057846144a2565b855b90506144b784826130de90919063ffffffff16565b90506144cc81876130de90919063ffffffff16565b92506144e181866130de90919063ffffffff16565b9150506144f0565b8491508390505b818191509150935093915050565b6060638c12dfe760e01b84600381111561451457fe5b848460405160240161452893929190614ede565b604051602081830303815290604052907bffffffffffffffffffffffffffffffffffffffffffffffffffffffff19166020820180517bffffffffffffffffffffffffffffffffffffffffffffffffffffffff838183161783525050505090509392505050565b6040518060a0016040528060008152602001600081526020016000815260200160008152602001600081525090565b6040518060600160405280600067ffffffffffffffff16815260200160006bffffffffffffffffffffffff16815260200160006bffffffffffffffffffffffff1681525090565b6040518060400160405280600073ffffffffffffffffffffffffffffffffffffffff168152602001600063ffffffff1681525090565b60405180606001604052806000815260200160008152602001600081525090565b8154818355818111156146825781836000526020600020918201910161468191906146a1565b5b505050565b604051806040016040528060008152602001600081525090565b6146c391905b808211156146bf5760008160009055506001016146a7565b5090565b90565b6000813590506146d5816150eb565b92915050565b6000815190506146ea81615102565b92915050565b6000813590506146ff81615119565b92915050565b60008135905061471481615130565b92915050565b60008135905061472981615140565b92915050565b60008151905061473e81615140565b92915050565b60006020828403121561475657600080fd5b6000614764848285016146c6565b91505092915050565b6000806040838503121561478057600080fd5b600061478e858286016146c6565b925050602061479f858286016146f0565b9150509250929050565b600080604083850312156147bc57600080fd5b60006147ca858286016146c6565b92505060206147db85828601614705565b9150509250929050565b600080604083850312156147f857600080fd5b6000614806858286016146c6565b92505060206148178582860161471a565b9150509250929050565b60006020828403121561483357600080fd5b6000614841848285016146db565b91505092915050565b60006020828403121561485c57600080fd5b600061486a848285016146f0565b91505092915050565b6000806040838503121561488657600080fd5b6000614894858286016146f0565b92505060206148a5858286016146c6565b9150509250929050565b600080604083850312156148c257600080fd5b60006148d0858286016146f0565b92505060206148e18582860161471a565b9150509250929050565b6000602082840312156148fd57600080fd5b600061490b84828501614705565b91505092915050565b60006020828403121561492657600080fd5b60006149348482850161471a565b91505092915050565b60006020828403121561494f57600080fd5b600061495d8482850161472f565b91505092915050565b6000614972838361497e565b60208301905092915050565b61498781614f88565b82525050565b61499681614f88565b82525050565b60006149a782614f4e565b6149b18185614f66565b93506149bc83614f3e565b8060005b838110156149ed5781516149d48882614966565b97506149df83614f59565b9250506001810190506149c0565b5085935050505092915050565b614a0381614f9a565b82525050565b614a1281614fa6565b82525050565b614a2181615053565b82525050565b614a3081615077565b82525050565b614a3f8161509b565b82525050565b614a4e816150ad565b82525050565b614a5d81614fd6565b82525050565b614a6c816150bf565b82525050565b6000614a7f601e83614f77565b91507f43414c4c45525f49535f534d4152545f434f4e54524143545f4552524f5200006000830152602082019050919050565b6000614abf601383614f77565b91507f43525f494e54455256414c5f494e56414c4944000000000000000000000000006000830152602082019050919050565b606082016000820151614b086000850182614b52565b506020820151614b1b6020850182614b70565b506040820151614b2e6040850182614b70565b50505050565b614b3d81615000565b82525050565b614b4c8161500a565b82525050565b614b5b8161501a565b82525050565b614b6a8161502e565b82525050565b614b798161503b565b82525050565b6000602082019050614b94600083018461498d565b92915050565b6000604082019050614baf600083018561498d565b614bbc602083018461498d565b9392505050565b6000604082019050614bd8600083018561498d565b614be56020830184614b34565b9392505050565b60006020820190508181036000830152614c06818461499c565b905092915050565b6000602082019050614c2360008301846149fa565b92915050565b6000602082019050614c3e6000830184614a09565b92915050565b6000604082019050614c596000830185614a09565b614c666020830184614b34565b9392505050565b6000602082019050614c826000830184614a18565b92915050565b6000602082019050614c9d6000830184614a27565b92915050565b6000606082019050614cb86000830186614a36565b614cc56020830185614b34565b614cd26040830184614b34565b949350505050565b6000604082019050614cef6000830185614a45565b614cfc6020830184614b34565b9392505050565b6000604082019050614d186000830185614a63565b614d256020830184614b34565b9392505050565b60006020820190508181036000830152614d4581614a72565b9050919050565b60006020820190508181036000830152614d6581614ab2565b9050919050565b6000606082019050614d816000830184614af2565b92915050565b6000602082019050614d9c6000830184614b34565b92915050565b6000604082019050614db76000830185614b34565b614dc46020830184614b34565b9392505050565b6000606082019050614de06000830186614b34565b614ded6020830185614b34565b614dfa6040830184614b34565b949350505050565b6000608082019050614e176000830187614b34565b614e246020830186614b34565b614e316040830185614b34565b614e3e6060830184614b34565b95945050505050565b600060a082019050614e5c6000830188614b34565b614e696020830187614b34565b614e766040830186614b34565b614e836060830185614b34565b614e906080830184614b34565b9695505050505050565b6000602082019050614eaf6000830184614b43565b92915050565b6000604082019050614eca6000830185614b61565b614ed76020830184614a54565b9392505050565b6000606082019050614ef36000830186614b61565b614f006020830185614a54565b614f0d6040830184614a54565b949350505050565b6000604082019050614f2a6000830185614b61565b614f376020830184614b34565b9392505050565b6000819050602082019050919050565b600081519050919050565b6000602082019050919050565b600082825260208201905092915050565b600082825260208201905092915050565b6000614f9382614fe0565b9050919050565b60008115159050919050565b6000819050919050565b6000819050614fbe826150d1565b919050565b6000819050614fd1826150de565b919050565b6000819050919050565b600073ffffffffffffffffffffffffffffffffffffffff82169050919050565b6000819050919050565b600063ffffffff82169050919050565b600067ffffffffffffffff82169050919050565b600060ff82169050919050565b60006bffffffffffffffffffffffff82169050919050565b600061505e82615065565b9050919050565b600061507082614fe0565b9050919050565b600061508282615089565b9050919050565b600061509482614fe0565b9050919050565b60006150a682614fb0565b9050919050565b60006150b882614fc3565b9050919050565b60006150ca82615000565b9050919050565b600481106150db57fe5b50565b600381106150e857fe5b50565b6150f481614f88565b81146150ff57600080fd5b50565b61510b81614f9a565b811461511657600080fd5b50565b61512281614fa6565b811461512d57600080fd5b50565b6002811061513d57600080fd5b50565b61514981615000565b811461515457600080fd5b5056fea365627a7a7231582069360c3f2e2895b6d21f192688c51fe87dc736c93c2d80c5467bc4e71ec4484f6c6578706572696d656e74616cf564736f6c63430005110040",
			"opcodes": "PUSH1 0x80 PUSH1 0x40 MSTORE CALLER PUSH1 0x0 DUP1 PUSH2 0x100 EXP DUP2 SLOAD DUP2 PUSH20 0xFFFFFFFFFFFFFFFFFFFFFFFFFFFFFFFFFFFFFFFF MUL NOT AND SWAP1 DUP4 PUSH20 0xFFFFFFFFFFFFFFFFFFFFFFFFFFFFFFFFFFFFFFFF AND MUL OR SWAP1 SSTORE POP PUSH2 0x519A DUP1 PUSH2 0x53 PUSH1 0x0 CODECOPY PUSH1 0x0 RETURN INVALID PUSH1 0x80 PUSH1 0x40 MSTORE CALLVALUE DUP1 ISZERO PUSH2 0x10 JUMPI PUSH1 0x0 DUP1 REVERT JUMPDEST POP PUSH1 0x4 CALLDATASIZE LT PUSH2 0x227 JUMPI PUSH1 0x0 CALLDATALOAD PUSH1 0xE0 SHR DUP1 PUSH4 0x9AD26744 GT PUSH2 0x130 JUMPI DUP1 PUSH4 0xD39DE6E9 GT PUSH2 0xB8 JUMPI DUP1 PUSH4 0xE907F003 GT PUSH2 0x7C JUMPI DUP1 PUSH4 0xE907F003 EQ PUSH2 0x6D4 JUMPI DUP1 PUSH4 0xEE99205C EQ PUSH2 0x704 JUMPI DUP1 PUSH4 0xF252B7A1 EQ PUSH2 0x722 JUMPI DUP1 PUSH4 0xF2FDE38B EQ PUSH2 0x752 JUMPI DUP1 PUSH4 0xFF691B11 EQ PUSH2 0x76E JUMPI PUSH2 0x227 JUMP JUMPDEST DUP1 PUSH4 0xD39DE6E9 EQ PUSH2 0x62C JUMPI DUP1 PUSH4 0xE0822DB7 EQ PUSH2 0x64A JUMPI DUP1 PUSH4 0xE0EE036E EQ PUSH2 0x668 JUMPI DUP1 PUSH4 0xE804D0A4 EQ PUSH2 0x686 JUMPI DUP1 PUSH4 0xE8EEB3F8 EQ PUSH2 0x6B6 JUMPI PUSH2 0x227 JUMP JUMPDEST DUP1 PUSH4 0xB2BAA33E GT PUSH2 0xFF JUMPI DUP1 PUSH4 0xB2BAA33E EQ PUSH2 0x562 JUMPI DUP1 PUSH4 0xB510879F EQ PUSH2 0x580 JUMPI DUP1 PUSH4 0xB9181611 EQ PUSH2 0x59C JUMPI DUP1 PUSH4 0xBB7EF7E0 EQ PUSH2 0x5CC JUMPI DUP1 PUSH4 0xC18C9141 EQ PUSH2 0x5FC JUMPI PUSH2 0x227 JUMP JUMPDEST DUP1 PUSH4 0x9AD26744 EQ PUSH2 0x4EC JUMPI DUP1 PUSH4 0xA26171E2 EQ PUSH2 0x508 JUMPI DUP1 PUSH4 0xA657E579 EQ PUSH2 0x526 JUMPI DUP1 PUSH4 0xB0531524 EQ PUSH2 0x544 JUMPI PUSH2 0x227 JUMP JUMPDEST DUP1 PUSH4 0x494503D4 GT PUSH2 0x1B3 JUMPI DUP1 PUSH4 0x63403801 GT PUSH2 0x182 JUMPI DUP1 PUSH4 0x63403801 EQ PUSH2 0x458 JUMPI DUP1 PUSH4 0x70712939 EQ PUSH2 0x476 JUMPI DUP1 PUSH4 0x76671808 EQ PUSH2 0x492 JUMPI DUP1 PUSH4 0x81666796 EQ PUSH2 0x4B0 JUMPI DUP1 PUSH4 0x8DA5CB5B EQ PUSH2 0x4CE JUMPI PUSH2 0x227 JUMP JUMPDEST DUP1 PUSH4 0x494503D4 EQ PUSH2 0x3AA JUMPI DUP1 PUSH4 0x587DA023 EQ PUSH2 0x3DA JUMPI DUP1 PUSH4 0x5BD4AB73 EQ PUSH2 0x3F8 JUMPI DUP1 PUSH4 0x5E30DEFF EQ PUSH2 0x428 JUMPI PUSH2 0x227 JUMP JUMPDEST DUP1 PUSH4 0x3C277FC5 GT PUSH2 0x1FA JUMPI DUP1 PUSH4 0x3C277FC5 EQ PUSH2 0x2E0 JUMPI DUP1 PUSH4 0x3CB25D34 EQ PUSH2 0x2FE JUMPI DUP1 PUSH4 0x3E4AD732 EQ PUSH2 0x32E JUMPI DUP1 PUSH4 0x42F1181E EQ PUSH2 0x35E JUMPI DUP1 PUSH4 0x44A6958B EQ PUSH2 0x37A JUMPI PUSH2 0x227 JUMP JUMPDEST DUP1 PUSH4 0xB9663DB EQ PUSH2 0x22C JUMPI DUP1 PUSH4 0x1E7FF8F6 EQ PUSH2 0x24A JUMPI DUP1 PUSH4 0x2A94C279 EQ PUSH2 0x27A JUMPI DUP1 PUSH4 0x38229D93 EQ PUSH2 0x2AC JUMPI JUMPDEST PUSH1 0x0 DUP1 REVERT JUMPDEST PUSH2 0x234 PUSH2 0x78A JUMP JUMPDEST PUSH1 0x40 MLOAD PUSH2 0x241 SWAP2 SWAP1 PUSH2 0x4D87 JUMP JUMPDEST PUSH1 0x40 MLOAD DUP1 SWAP2 SUB SWAP1 RETURN JUMPDEST PUSH2 0x264 PUSH1 0x4 DUP1 CALLDATASIZE SUB PUSH2 0x25F SWAP2 SWAP1 DUP2 ADD SWAP1 PUSH2 0x4744 JUMP JUMPDEST PUSH2 0x915 JUMP JUMPDEST PUSH1 0x40 MLOAD PUSH2 0x271 SWAP2 SWAP1 PUSH2 0x4D87 JUMP JUMPDEST PUSH1 0x40 MLOAD DUP1 SWAP2 SUB SWAP1 RETURN JUMPDEST PUSH2 0x294 PUSH1 0x4 DUP1 CALLDATASIZE SUB PUSH2 0x28F SWAP2 SWAP1 DUP2 ADD SWAP1 PUSH2 0x48AF JUMP JUMPDEST PUSH2 0x9AE JUMP JUMPDEST PUSH1 0x40 MLOAD PUSH2 0x2A3 SWAP4 SWAP3 SWAP2 SWAP1 PUSH2 0x4DCB JUMP JUMPDEST PUSH1 0x40 MLOAD DUP1 SWAP2 SUB SWAP1 RETURN JUMPDEST PUSH2 0x2C6 PUSH1 0x4 DUP1 CALLDATASIZE SUB PUSH2 0x2C1 SWAP2 SWAP1 DUP2 ADD SWAP1 PUSH2 0x4914 JUMP JUMPDEST PUSH2 0x9E5 JUMP JUMPDEST PUSH1 0x40 MLOAD PUSH2 0x2D7 SWAP6 SWAP5 SWAP4 SWAP3 SWAP2 SWAP1 PUSH2 0x4E47 JUMP JUMPDEST PUSH1 0x40 MLOAD DUP1 SWAP2 SUB SWAP1 RETURN JUMPDEST PUSH2 0x2E8 PUSH2 0xA1B JUMP JUMPDEST PUSH1 0x40 MLOAD PUSH2 0x2F5 SWAP2 SWAP1 PUSH2 0x4C6D JUMP JUMPDEST PUSH1 0x40 MLOAD DUP1 SWAP2 SUB SWAP1 RETURN JUMPDEST PUSH2 0x318 PUSH1 0x4 DUP1 CALLDATASIZE SUB PUSH2 0x313 SWAP2 SWAP1 DUP2 ADD SWAP1 PUSH2 0x48AF JUMP JUMPDEST PUSH2 0xA3A JUMP JUMPDEST PUSH1 0x40 MLOAD PUSH2 0x325 SWAP2 SWAP1 PUSH2 0x4B7F JUMP JUMPDEST PUSH1 0x40 MLOAD DUP1 SWAP2 SUB SWAP1 RETURN JUMPDEST PUSH2 0x348 PUSH1 0x4 DUP1 CALLDATASIZE SUB PUSH2 0x343 SWAP2 SWAP1 DUP2 ADD SWAP1 PUSH2 0x484A JUMP JUMPDEST PUSH2 0xA85 JUMP JUMPDEST PUSH1 0x40 MLOAD PUSH2 0x355 SWAP2 SWAP1 PUSH2 0x4D6C JUMP JUMPDEST PUSH1 0x40 MLOAD DUP1 SWAP2 SUB SWAP1 RETURN JUMPDEST PUSH2 0x378 PUSH1 0x4 DUP1 CALLDATASIZE SUB PUSH2 0x373 SWAP2 SWAP1 DUP2 ADD SWAP1 PUSH2 0x4744 JUMP JUMPDEST PUSH2 0xAB2 JUMP JUMPDEST STOP JUMPDEST PUSH2 0x394 PUSH1 0x4 DUP1 CALLDATASIZE SUB PUSH2 0x38F SWAP2 SWAP1 DUP2 ADD SWAP1 PUSH2 0x47A9 JUMP JUMPDEST PUSH2 0xAC6 JUMP JUMPDEST PUSH1 0x40 MLOAD PUSH2 0x3A1 SWAP2 SWAP1 PUSH2 0x4D6C JUMP JUMPDEST PUSH1 0x40 MLOAD DUP1 SWAP2 SUB SWAP1 RETURN JUMPDEST PUSH2 0x3C4 PUSH1 0x4 DUP1 CALLDATASIZE SUB PUSH2 0x3BF SWAP2 SWAP1 DUP2 ADD SWAP1 PUSH2 0x4914 JUMP JUMPDEST PUSH2 0xB42 JUMP JUMPDEST PUSH1 0x40 MLOAD PUSH2 0x3D1 SWAP2 SWAP1 PUSH2 0x4B7F JUMP JUMPDEST PUSH1 0x40 MLOAD DUP1 SWAP2 SUB SWAP1 RETURN JUMPDEST PUSH2 0x3E2 PUSH2 0xB7E JUMP JUMPDEST PUSH1 0x40 MLOAD PUSH2 0x3EF SWAP2 SWAP1 PUSH2 0x4D87 JUMP JUMPDEST PUSH1 0x40 MLOAD DUP1 SWAP2 SUB SWAP1 RETURN JUMPDEST PUSH2 0x412 PUSH1 0x4 DUP1 CALLDATASIZE SUB PUSH2 0x40D SWAP2 SWAP1 DUP2 ADD SWAP1 PUSH2 0x4744 JUMP JUMPDEST PUSH2 0xB84 JUMP JUMPDEST PUSH1 0x40 MLOAD PUSH2 0x41F SWAP2 SWAP1 PUSH2 0x4C0E JUMP JUMPDEST PUSH1 0x40 MLOAD DUP1 SWAP2 SUB SWAP1 RETURN JUMPDEST PUSH2 0x442 PUSH1 0x4 DUP1 CALLDATASIZE SUB PUSH2 0x43D SWAP2 SWAP1 DUP2 ADD SWAP1 PUSH2 0x4744 JUMP JUMPDEST PUSH2 0xBA4 JUMP JUMPDEST PUSH1 0x40 MLOAD PUSH2 0x44F SWAP2 SWAP1 PUSH2 0x4C29 JUMP JUMPDEST PUSH1 0x40 MLOAD DUP1 SWAP2 SUB SWAP1 RETURN JUMPDEST PUSH2 0x460 PUSH2 0xBBC JUMP JUMPDEST PUSH1 0x40 MLOAD PUSH2 0x46D SWAP2 SWAP1 PUSH2 0x4D87 JUMP JUMPDEST PUSH1 0x40 MLOAD DUP1 SWAP2 SUB SWAP1 RETURN JUMPDEST PUSH2 0x490 PUSH1 0x4 DUP1 CALLDATASIZE SUB PUSH2 0x48B SWAP2 SWAP1 DUP2 ADD SWAP1 PUSH2 0x4744 JUMP JUMPDEST PUSH2 0xBC2 JUMP JUMPDEST STOP JUMPDEST PUSH2 0x49A PUSH2 0xCCB JUMP JUMPDEST PUSH1 0x40 MLOAD PUSH2 0x4A7 SWAP2 SWAP1 PUSH2 0x4D87 JUMP JUMPDEST PUSH1 0x40 MLOAD DUP1 SWAP2 SUB SWAP1 RETURN JUMPDEST PUSH2 0x4B8 PUSH2 0xCD1 JUMP JUMPDEST PUSH1 0x40 MLOAD PUSH2 0x4C5 SWAP2 SWAP1 PUSH2 0x4E9A JUMP JUMPDEST PUSH1 0x40 MLOAD DUP1 SWAP2 SUB SWAP1 RETURN JUMPDEST PUSH2 0x4D6 PUSH2 0xCE7 JUMP JUMPDEST PUSH1 0x40 MLOAD PUSH2 0x4E3 SWAP2 SWAP1 PUSH2 0x4B7F JUMP JUMPDEST PUSH1 0x40 MLOAD DUP1 SWAP2 SUB SWAP1 RETURN JUMPDEST PUSH2 0x506 PUSH1 0x4 DUP1 CALLDATASIZE SUB PUSH2 0x501 SWAP2 SWAP1 DUP2 ADD SWAP1 PUSH2 0x47E5 JUMP JUMPDEST PUSH2 0xD0C JUMP JUMPDEST STOP JUMPDEST PUSH2 0x510 PUSH2 0xD22 JUMP JUMPDEST PUSH1 0x40 MLOAD PUSH2 0x51D SWAP2 SWAP1 PUSH2 0x4D87 JUMP JUMPDEST PUSH1 0x40 MLOAD DUP1 SWAP2 SUB SWAP1 RETURN JUMPDEST PUSH2 0x52E PUSH2 0xD28 JUMP JUMPDEST PUSH1 0x40 MLOAD PUSH2 0x53B SWAP2 SWAP1 PUSH2 0x4C29 JUMP JUMPDEST PUSH1 0x40 MLOAD DUP1 SWAP2 SUB SWAP1 RETURN JUMPDEST PUSH2 0x54C PUSH2 0xD2E JUMP JUMPDEST PUSH1 0x40 MLOAD PUSH2 0x559 SWAP2 SWAP1 PUSH2 0x4D87 JUMP JUMPDEST PUSH1 0x40 MLOAD DUP1 SWAP2 SUB SWAP1 RETURN JUMPDEST PUSH2 0x56A PUSH2 0xD34 JUMP JUMPDEST PUSH1 0x40 MLOAD PUSH2 0x577 SWAP2 SWAP1 PUSH2 0x4D87 JUMP JUMPDEST PUSH1 0x40 MLOAD DUP1 SWAP2 SUB SWAP1 RETURN JUMPDEST PUSH2 0x59A PUSH1 0x4 DUP1 CALLDATASIZE SUB PUSH2 0x595 SWAP2 SWAP1 DUP2 ADD SWAP1 PUSH2 0x484A JUMP JUMPDEST PUSH2 0xD52 JUMP JUMPDEST STOP JUMPDEST PUSH2 0x5B6 PUSH1 0x4 DUP1 CALLDATASIZE SUB PUSH2 0x5B1 SWAP2 SWAP1 DUP2 ADD SWAP1 PUSH2 0x4744 JUMP JUMPDEST PUSH2 0xD5F JUMP JUMPDEST PUSH1 0x40 MLOAD PUSH2 0x5C3 SWAP2 SWAP1 PUSH2 0x4C0E JUMP JUMPDEST PUSH1 0x40 MLOAD DUP1 SWAP2 SUB SWAP1 RETURN JUMPDEST PUSH2 0x5E6 PUSH1 0x4 DUP1 CALLDATASIZE SUB PUSH2 0x5E1 SWAP2 SWAP1 DUP2 ADD SWAP1 PUSH2 0x484A JUMP JUMPDEST PUSH2 0xD7F JUMP JUMPDEST PUSH1 0x40 MLOAD PUSH2 0x5F3 SWAP2 SWAP1 PUSH2 0x4D87 JUMP JUMPDEST PUSH1 0x40 MLOAD DUP1 SWAP2 SUB SWAP1 RETURN JUMPDEST PUSH2 0x616 PUSH1 0x4 DUP1 CALLDATASIZE SUB PUSH2 0x611 SWAP2 SWAP1 DUP2 ADD SWAP1 PUSH2 0x484A JUMP JUMPDEST PUSH2 0xE54 JUMP JUMPDEST PUSH1 0x40 MLOAD PUSH2 0x623 SWAP2 SWAP1 PUSH2 0x4D87 JUMP JUMPDEST PUSH1 0x40 MLOAD DUP1 SWAP2 SUB SWAP1 RETURN JUMPDEST PUSH2 0x634 PUSH2 0xE6C JUMP JUMPDEST PUSH1 0x40 MLOAD PUSH2 0x641 SWAP2 SWAP1 PUSH2 0x4BEC JUMP JUMPDEST PUSH1 0x40 MLOAD DUP1 SWAP2 SUB SWAP1 RETURN JUMPDEST PUSH2 0x652 PUSH2 0xEFA JUMP JUMPDEST PUSH1 0x40 MLOAD PUSH2 0x65F SWAP2 SWAP1 PUSH2 0x4C88 JUMP JUMPDEST PUSH1 0x40 MLOAD DUP1 SWAP2 SUB SWAP1 RETURN JUMPDEST PUSH2 0x670 PUSH2 0xF19 JUMP JUMPDEST PUSH1 0x40 MLOAD PUSH2 0x67D SWAP2 SWAP1 PUSH2 0x4E9A JUMP JUMPDEST PUSH1 0x40 MLOAD DUP1 SWAP2 SUB SWAP1 RETURN JUMPDEST PUSH2 0x6A0 PUSH1 0x4 DUP1 CALLDATASIZE SUB PUSH2 0x69B SWAP2 SWAP1 DUP2 ADD SWAP1 PUSH2 0x48EB JUMP JUMPDEST PUSH2 0xF2F JUMP JUMPDEST PUSH1 0x40 MLOAD PUSH2 0x6AD SWAP2 SWAP1 PUSH2 0x4D6C JUMP JUMPDEST PUSH1 0x40 MLOAD DUP1 SWAP2 SUB SWAP1 RETURN JUMPDEST PUSH2 0x6BE PUSH2 0x10BF JUMP JUMPDEST PUSH1 0x40 MLOAD PUSH2 0x6CB SWAP2 SWAP1 PUSH2 0x4E9A JUMP JUMPDEST PUSH1 0x40 MLOAD DUP1 SWAP2 SUB SWAP1 RETURN JUMPDEST PUSH2 0x6EE PUSH1 0x4 DUP1 CALLDATASIZE SUB PUSH2 0x6E9 SWAP2 SWAP1 DUP2 ADD SWAP1 PUSH2 0x4873 JUMP JUMPDEST PUSH2 0x10D5 JUMP JUMPDEST PUSH1 0x40 MLOAD PUSH2 0x6FB SWAP2 SWAP1 PUSH2 0x4D87 JUMP JUMPDEST PUSH1 0x40 MLOAD DUP1 SWAP2 SUB SWAP1 RETURN JUMPDEST PUSH2 0x70C PUSH2 0x11B7 JUMP JUMPDEST PUSH1 0x40 MLOAD PUSH2 0x719 SWAP2 SWAP1 PUSH2 0x4B7F JUMP JUMPDEST PUSH1 0x40 MLOAD DUP1 SWAP2 SUB SWAP1 RETURN JUMPDEST PUSH2 0x73C PUSH1 0x4 DUP1 CALLDATASIZE SUB PUSH2 0x737 SWAP2 SWAP1 DUP2 ADD SWAP1 PUSH2 0x476D JUMP JUMPDEST PUSH2 0x11DD JUMP JUMPDEST PUSH1 0x40 MLOAD PUSH2 0x749 SWAP2 SWAP1 PUSH2 0x4D6C JUMP JUMPDEST PUSH1 0x40 MLOAD DUP1 SWAP2 SUB SWAP1 RETURN JUMPDEST PUSH2 0x76C PUSH1 0x4 DUP1 CALLDATASIZE SUB PUSH2 0x767 SWAP2 SWAP1 DUP2 ADD SWAP1 PUSH2 0x4744 JUMP JUMPDEST PUSH2 0x1248 JUMP JUMPDEST STOP JUMPDEST PUSH2 0x788 PUSH1 0x4 DUP1 CALLDATASIZE SUB PUSH2 0x783 SWAP2 SWAP1 DUP2 ADD SWAP1 PUSH2 0x484A JUMP JUMPDEST PUSH2 0x1338 JUMP JUMPDEST STOP JUMPDEST PUSH1 0x0 DUP1 PUSH1 0xD SLOAD SWAP1 POP PUSH1 0x0 PUSH2 0x7A8 PUSH1 0x1 DUP4 PUSH2 0x1616 SWAP1 SWAP2 SWAP1 PUSH4 0xFFFFFFFF AND JUMP JUMPDEST SWAP1 POP PUSH1 0x0 PUSH1 0x17 PUSH1 0x0 DUP4 DUP2 MSTORE PUSH1 0x20 ADD SWAP1 DUP2 MSTORE PUSH1 0x20 ADD PUSH1 0x0 KECCAK256 PUSH1 0x1 ADD SLOAD SWAP1 POP PUSH1 0x0 DUP2 EQ PUSH2 0x7E0 JUMPI PUSH2 0x7DF PUSH2 0x7DA DUP4 DUP4 PUSH2 0x1640 JUMP JUMPDEST PUSH2 0x16C2 JUMP JUMPDEST JUMPDEST PUSH2 0x7E8 PUSH2 0x16CA JUMP JUMPDEST PUSH2 0x7F0 PUSH2 0x1743 JUMP JUMPDEST PUSH1 0x17 PUSH1 0x0 DUP6 DUP2 MSTORE PUSH1 0x20 ADD SWAP1 DUP2 MSTORE PUSH1 0x20 ADD PUSH1 0x0 KECCAK256 PUSH1 0x0 ADD DUP2 SWAP1 SSTORE POP PUSH2 0x812 PUSH2 0x458E JUMP JUMPDEST PUSH1 0x17 PUSH1 0x0 DUP6 DUP2 MSTORE PUSH1 0x20 ADD SWAP1 DUP2 MSTORE PUSH1 0x20 ADD PUSH1 0x0 KECCAK256 PUSH1 0x40 MLOAD DUP1 PUSH1 0xA0 ADD PUSH1 0x40 MSTORE SWAP1 DUP2 PUSH1 0x0 DUP3 ADD SLOAD DUP2 MSTORE PUSH1 0x20 ADD PUSH1 0x1 DUP3 ADD SLOAD DUP2 MSTORE PUSH1 0x20 ADD PUSH1 0x2 DUP3 ADD SLOAD DUP2 MSTORE PUSH1 0x20 ADD PUSH1 0x3 DUP3 ADD SLOAD DUP2 MSTORE PUSH1 0x20 ADD PUSH1 0x4 DUP3 ADD SLOAD DUP2 MSTORE POP POP SWAP1 POP DUP4 PUSH32 0xBB4A26FA0ACE13EE4DA343896C20EAA44A618FB9071FDD8C2E2C960A4583189D DUP3 PUSH1 0x20 ADD MLOAD DUP4 PUSH1 0x0 ADD MLOAD DUP5 PUSH1 0x40 ADD MLOAD DUP6 PUSH1 0x60 ADD MLOAD PUSH1 0x40 MLOAD PUSH2 0x8AA SWAP5 SWAP4 SWAP3 SWAP2 SWAP1 PUSH2 0x4E02 JUMP JUMPDEST PUSH1 0x40 MLOAD DUP1 SWAP2 SUB SWAP1 LOG2 PUSH2 0x8BA PUSH2 0x17F1 JUMP JUMPDEST PUSH1 0x0 DUP2 PUSH1 0x20 ADD MLOAD EQ ISZERO PUSH2 0x907 JUMPI DUP4 PUSH32 0xB463D19ECF455BE65365092CF8E1DB6934A0334CF8CD532DDF9964D01F36B5B2 PUSH1 0x0 DUP4 PUSH1 0x0 ADD MLOAD PUSH1 0x40 MLOAD PUSH2 0x8FE SWAP3 SWAP2 SWAP1 PUSH2 0x4D03 JUMP JUMPDEST PUSH1 0x40 MLOAD DUP1 SWAP2 SUB SWAP1 LOG2 JUMPDEST DUP1 PUSH1 0x20 ADD MLOAD SWAP5 POP POP POP POP POP SWAP1 JUMP JUMPDEST PUSH1 0x0 PUSH2 0x91F PUSH2 0xEFA JUMP JUMPDEST PUSH20 0xFFFFFFFFFFFFFFFFFFFFFFFFFFFFFFFFFFFFFFFF AND PUSH4 0x70A08231 DUP4 PUSH1 0x40 MLOAD DUP3 PUSH4 0xFFFFFFFF AND PUSH1 0xE0 SHL DUP2 MSTORE PUSH1 0x4 ADD PUSH2 0x957 SWAP2 SWAP1 PUSH2 0x4B7F JUMP JUMPDEST PUSH1 0x20 PUSH1 0x40 MLOAD DUP1 DUP4 SUB DUP2 DUP7 DUP1 EXTCODESIZE ISZERO DUP1 ISZERO PUSH2 0x96F JUMPI PUSH1 0x0 DUP1 REVERT JUMPDEST POP GAS STATICCALL ISZERO DUP1 ISZERO PUSH2 0x983 JUMPI RETURNDATASIZE PUSH1 0x0 DUP1 RETURNDATACOPY RETURNDATASIZE PUSH1 0x0 REVERT JUMPDEST POP POP POP POP PUSH1 0x40 MLOAD RETURNDATASIZE PUSH1 0x1F NOT PUSH1 0x1F DUP3 ADD AND DUP3 ADD DUP1 PUSH1 0x40 MSTORE POP PUSH2 0x9A7 SWAP2 SWAP1 DUP2 ADD SWAP1 PUSH2 0x493D JUMP JUMPDEST SWAP1 POP SWAP2 SWAP1 POP JUMP JUMPDEST PUSH1 0x16 PUSH1 0x20 MSTORE DUP2 PUSH1 0x0 MSTORE PUSH1 0x40 PUSH1 0x0 KECCAK256 PUSH1 0x20 MSTORE DUP1 PUSH1 0x0 MSTORE PUSH1 0x40 PUSH1 0x0 KECCAK256 PUSH1 0x0 SWAP2 POP SWAP2 POP POP DUP1 PUSH1 0x0 ADD SLOAD SWAP1 DUP1 PUSH1 0x1 ADD SLOAD SWAP1 DUP1 PUSH1 0x2 ADD SLOAD SWAP1 POP DUP4 JUMP JUMPDEST PUSH1 0x17 PUSH1 0x20 MSTORE DUP1 PUSH1 0x0 MSTORE PUSH1 0x40 PUSH1 0x0 KECCAK256 PUSH1 0x0 SWAP2 POP SWAP1 POP DUP1 PUSH1 0x0 ADD SLOAD SWAP1 DUP1 PUSH1 0x1 ADD SLOAD SWAP1 DUP1 PUSH1 0x2 ADD SLOAD SWAP1 DUP1 PUSH1 0x3 ADD SLOAD SWAP1 DUP1 PUSH1 0x4 ADD SLOAD SWAP1 POP DUP6 JUMP JUMPDEST PUSH1 0x0 PUSH20 0xC02AAA39B223FE8D0A0E5C4F27EAD9083C756CC2 SWAP1 POP DUP1 SWAP1 POP SWAP1 JUMP JUMPDEST PUSH1 0xA PUSH1 0x20 MSTORE DUP2 PUSH1 0x0 MSTORE PUSH1 0x40 PUSH1 0x0 KECCAK256 DUP2 DUP2 SLOAD DUP2 LT PUSH2 0xA53 JUMPI INVALID JUMPDEST SWAP1 PUSH1 0x0 MSTORE PUSH1 0x20 PUSH1 0x0 KECCAK256 ADD PUSH1 0x0 SWAP2 POP SWAP2 POP SWAP1 SLOAD SWAP1 PUSH2 0x100 EXP SWAP1 DIV PUSH20 0xFFFFFFFFFFFFFFFFFFFFFFFFFFFFFFFFFFFFFFFF AND DUP2 JUMP JUMPDEST PUSH2 0xA8D PUSH2 0x45BD JUMP JUMPDEST PUSH2 0xAA8 PUSH1 0x7 PUSH1 0x0 DUP5 DUP2 MSTORE PUSH1 0x20 ADD SWAP1 DUP2 MSTORE PUSH1 0x20 ADD PUSH1 0x0 KECCAK256 PUSH2 0x184A JUMP JUMPDEST SWAP1 POP DUP1 SWAP1 POP SWAP2 SWAP1 POP JUMP JUMPDEST PUSH2 0xABA PUSH2 0x1989 JUMP JUMPDEST PUSH2 0xAC3 DUP2 PUSH2 0x1A13 JUMP JUMPDEST POP JUMP JUMPDEST PUSH2 0xACE PUSH2 0x45BD JUMP JUMPDEST PUSH2 0xB37 PUSH1 0x5 PUSH1 0x0 DUP5 PUSH1 0x1 DUP2 GT ISZERO PUSH2 0xAE1 JUMPI INVALID JUMPDEST PUSH1 0xFF AND PUSH1 0xFF AND DUP2 MSTORE PUSH1 0x20 ADD SWAP1 DUP2 MSTORE PUSH1 0x20 ADD PUSH1 0x0 KECCAK256 PUSH1 0x0 DUP6 PUSH20 0xFFFFFFFFFFFFFFFFFFFFFFFFFFFFFFFFFFFFFFFF AND PUSH20 0xFFFFFFFFFFFFFFFFFFFFFFFFFFFFFFFFFFFFFFFF AND DUP2 MSTORE PUSH1 0x20 ADD SWAP1 DUP2 MSTORE PUSH1 0x20 ADD PUSH1 0x0 KECCAK256 PUSH2 0x184A JUMP JUMPDEST SWAP1 POP DUP1 SWAP1 POP SWAP3 SWAP2 POP POP JUMP JUMPDEST PUSH1 0x2 DUP2 DUP2 SLOAD DUP2 LT PUSH2 0xB4F JUMPI INVALID JUMPDEST SWAP1 PUSH1 0x0 MSTORE PUSH1 0x20 PUSH1 0x0 KECCAK256 ADD PUSH1 0x0 SWAP2 POP SLOAD SWAP1 PUSH2 0x100 EXP SWAP1 DIV PUSH20 0xFFFFFFFFFFFFFFFFFFFFFFFFFFFFFFFFFFFFFFFF AND DUP2 JUMP JUMPDEST PUSH1 0xE SLOAD DUP2 JUMP JUMPDEST PUSH1 0x11 PUSH1 0x20 MSTORE DUP1 PUSH1 0x0 MSTORE PUSH1 0x40 PUSH1 0x0 KECCAK256 PUSH1 0x0 SWAP2 POP SLOAD SWAP1 PUSH2 0x100 EXP SWAP1 DIV PUSH1 0xFF AND DUP2 JUMP JUMPDEST PUSH1 0x9 PUSH1 0x20 MSTORE DUP1 PUSH1 0x0 MSTORE PUSH1 0x40 PUSH1 0x0 KECCAK256 PUSH1 0x0 SWAP2 POP SWAP1 POP SLOAD DUP2 JUMP JUMPDEST PUSH1 0x12 SLOAD DUP2 JUMP JUMPDEST PUSH2 0xBCA PUSH2 0x1989 JUMP JUMPDEST PUSH1 0x1 PUSH1 0x0 DUP3 PUSH20 0xFFFFFFFFFFFFFFFFFFFFFFFFFFFFFFFFFFFFFFFF AND PUSH20 0xFFFFFFFFFFFFFFFFFFFFFFFFFFFFFFFFFFFFFFFF AND DUP2 MSTORE PUSH1 0x20 ADD SWAP1 DUP2 MSTORE PUSH1 0x20 ADD PUSH1 0x0 KECCAK256 PUSH1 0x0 SWAP1 SLOAD SWAP1 PUSH2 0x100 EXP SWAP1 DIV PUSH1 0xFF AND PUSH2 0xC2D JUMPI PUSH2 0xC2C PUSH2 0xC27 DUP3 PUSH2 0x1BD7 JUMP JUMPDEST PUSH2 0x16C2 JUMP JUMPDEST JUMPDEST PUSH1 0x0 DUP1 SWAP1 POP JUMPDEST PUSH1 0x2 DUP1 SLOAD SWAP1 POP DUP2 LT ISZERO PUSH2 0xCC7 JUMPI DUP2 PUSH20 0xFFFFFFFFFFFFFFFFFFFFFFFFFFFFFFFFFFFFFFFF AND PUSH1 0x2 DUP3 DUP2 SLOAD DUP2 LT PUSH2 0xC64 JUMPI INVALID JUMPDEST SWAP1 PUSH1 0x0 MSTORE PUSH1 0x20 PUSH1 0x0 KECCAK256 ADD PUSH1 0x0 SWAP1 SLOAD SWAP1 PUSH2 0x100 EXP SWAP1 DIV PUSH20 0xFFFFFFFFFFFFFFFFFFFFFFFFFFFFFFFFFFFFFFFF AND PUSH20 0xFFFFFFFFFFFFFFFFFFFFFFFFFFFFFFFFFFFFFFFF AND EQ ISZERO PUSH2 0xCBA JUMPI PUSH2 0xCB5 DUP3 DUP3 PUSH2 0x1C56 JUMP JUMPDEST PUSH2 0xCC7 JUMP JUMPDEST DUP1 DUP1 PUSH1 0x1 ADD SWAP2 POP POP PUSH2 0xC33 JUMP JUMPDEST POP POP JUMP JUMPDEST PUSH1 0xD SLOAD DUP2 JUMP JUMPDEST PUSH1 0x15 PUSH1 0x0 SWAP1 SLOAD SWAP1 PUSH2 0x100 EXP SWAP1 DIV PUSH4 0xFFFFFFFF AND DUP2 JUMP JUMPDEST PUSH1 0x0 DUP1 SWAP1 SLOAD SWAP1 PUSH2 0x100 EXP SWAP1 DIV PUSH20 0xFFFFFFFFFFFFFFFFFFFFFFFFFFFFFFFFFFFFFFFF AND DUP2 JUMP JUMPDEST PUSH2 0xD14 PUSH2 0x1989 JUMP JUMPDEST PUSH2 0xD1E DUP3 DUP3 PUSH2 0x1C56 JUMP JUMPDEST POP POP JUMP JUMPDEST PUSH1 0x14 SLOAD DUP2 JUMP JUMPDEST PUSH1 0x8 SLOAD DUP2 JUMP JUMPDEST PUSH1 0x18 SLOAD DUP2 JUMP JUMPDEST PUSH1 0x0 PUSH2 0xD4D PUSH1 0x12 SLOAD PUSH1 0xE SLOAD PUSH2 0x1EEC SWAP1 SWAP2 SWAP1 PUSH4 0xFFFFFFFF AND JUMP JUMPDEST SWAP1 POP SWAP1 JUMP JUMPDEST PUSH2 0xD5C DUP2 CALLER PUSH2 0x1F1B JUMP JUMPDEST POP JUMP JUMPDEST PUSH1 0x1 PUSH1 0x20 MSTORE DUP1 PUSH1 0x0 MSTORE PUSH1 0x40 PUSH1 0x0 KECCAK256 PUSH1 0x0 SWAP2 POP SLOAD SWAP1 PUSH2 0x100 EXP SWAP1 DIV PUSH1 0xFF AND DUP2 JUMP JUMPDEST PUSH1 0x0 PUSH2 0xD89 PUSH2 0x4604 JUMP JUMPDEST PUSH1 0xB PUSH1 0x0 DUP5 DUP2 MSTORE PUSH1 0x20 ADD SWAP1 DUP2 MSTORE PUSH1 0x20 ADD PUSH1 0x0 KECCAK256 PUSH1 0x40 MLOAD DUP1 PUSH1 0x40 ADD PUSH1 0x40 MSTORE SWAP1 DUP2 PUSH1 0x0 DUP3 ADD PUSH1 0x0 SWAP1 SLOAD SWAP1 PUSH2 0x100 EXP SWAP1 DIV PUSH20 0xFFFFFFFFFFFFFFFFFFFFFFFFFFFFFFFFFFFFFFFF AND PUSH20 0xFFFFFFFFFFFFFFFFFFFFFFFFFFFFFFFFFFFFFFFF AND PUSH20 0xFFFFFFFFFFFFFFFFFFFFFFFFFFFFFFFFFFFFFFFF AND DUP2 MSTORE PUSH1 0x20 ADD PUSH1 0x0 DUP3 ADD PUSH1 0x14 SWAP1 SLOAD SWAP1 PUSH2 0x100 EXP SWAP1 DIV PUSH4 0xFFFFFFFF AND PUSH4 0xFFFFFFFF AND PUSH4 0xFFFFFFFF AND DUP2 MSTORE POP POP SWAP1 POP PUSH1 0x0 DUP1 PUSH2 0xE31 DUP6 PUSH2 0x2133 JUMP JUMPDEST SWAP2 POP SWAP2 POP PUSH2 0xE44 DUP4 PUSH1 0x20 ADD MLOAD DUP4 DUP4 PUSH2 0x2210 JUMP JUMPDEST POP DUP1 SWAP5 POP POP DUP4 SWAP4 POP POP POP POP SWAP2 SWAP1 POP JUMP JUMPDEST PUSH1 0xC PUSH1 0x20 MSTORE DUP1 PUSH1 0x0 MSTORE PUSH1 0x40 PUSH1 0x0 KECCAK256 PUSH1 0x0 SWAP2 POP SWAP1 POP SLOAD DUP2 JUMP JUMPDEST PUSH1 0x60 PUSH1 0x2 DUP1 SLOAD DUP1 PUSH1 0x20 MUL PUSH1 0x20 ADD PUSH1 0x40 MLOAD SWAP1 DUP2 ADD PUSH1 0x40 MSTORE DUP1 SWAP3 SWAP2 SWAP1 DUP2 DUP2 MSTORE PUSH1 0x20 ADD DUP3 DUP1 SLOAD DUP1 ISZERO PUSH2 0xEF0 JUMPI PUSH1 0x20 MUL DUP3 ADD SWAP2 SWAP1 PUSH1 0x0 MSTORE PUSH1 0x20 PUSH1 0x0 KECCAK256 SWAP1 JUMPDEST DUP2 PUSH1 0x0 SWAP1 SLOAD SWAP1 PUSH2 0x100 EXP SWAP1 DIV PUSH20 0xFFFFFFFFFFFFFFFFFFFFFFFFFFFFFFFFFFFFFFFF AND PUSH20 0xFFFFFFFFFFFFFFFFFFFFFFFFFFFFFFFFFFFFFFFF AND DUP2 MSTORE PUSH1 0x20 ADD SWAP1 PUSH1 0x1 ADD SWAP1 DUP1 DUP4 GT PUSH2 0xEA6 JUMPI JUMPDEST POP POP POP POP POP SWAP1 POP SWAP1 JUMP JUMPDEST PUSH1 0x0 PUSH20 0xBA7F8B5FB1B19C1211C5D49550FCD149177A5EAF SWAP1 POP DUP1 SWAP1 POP SWAP1 JUMP JUMPDEST PUSH1 0x13 PUSH1 0x0 SWAP1 SLOAD SWAP1 PUSH2 0x100 EXP SWAP1 DIV PUSH4 0xFFFFFFFF AND DUP2 JUMP JUMPDEST PUSH2 0xF37 PUSH2 0x45BD JUMP JUMPDEST PUSH2 0xF63 PUSH1 0x4 PUSH1 0x0 PUSH1 0x1 DUP1 DUP2 GT ISZERO PUSH2 0xF4A JUMPI INVALID JUMPDEST PUSH1 0xFF AND PUSH1 0xFF AND DUP2 MSTORE PUSH1 0x20 ADD SWAP1 DUP2 MSTORE PUSH1 0x20 ADD PUSH1 0x0 KECCAK256 PUSH2 0x184A JUMP JUMPDEST SWAP1 POP PUSH1 0x0 PUSH1 0x1 DUP2 GT ISZERO PUSH2 0xF72 JUMPI INVALID JUMPDEST DUP3 PUSH1 0x1 DUP2 GT ISZERO PUSH2 0xF7E JUMPI INVALID JUMPDEST EQ ISZERO PUSH2 0x10B7 JUMPI PUSH1 0x0 PUSH2 0xF8E PUSH2 0xEFA JUMP JUMPDEST PUSH20 0xFFFFFFFFFFFFFFFFFFFFFFFFFFFFFFFFFFFFFFFF AND PUSH4 0x6B6DF5AA PUSH1 0x40 MLOAD DUP2 PUSH4 0xFFFFFFFF AND PUSH1 0xE0 SHL DUP2 MSTORE PUSH1 0x4 ADD PUSH1 0x20 PUSH1 0x40 MLOAD DUP1 DUP4 SUB DUP2 DUP7 DUP1 EXTCODESIZE ISZERO DUP1 ISZERO PUSH2 0xFD3 JUMPI PUSH1 0x0 DUP1 REVERT JUMPDEST POP GAS STATICCALL ISZERO DUP1 ISZERO PUSH2 0xFE7 JUMPI RETURNDATASIZE PUSH1 0x0 DUP1 RETURNDATACOPY RETURNDATASIZE PUSH1 0x0 REVERT JUMPDEST POP POP POP POP PUSH1 0x40 MLOAD RETURNDATASIZE PUSH1 0x1F NOT PUSH1 0x1F DUP3 ADD AND DUP3 ADD DUP1 PUSH1 0x40 MSTORE POP PUSH2 0x100B SWAP2 SWAP1 DUP2 ADD SWAP1 PUSH2 0x493D JUMP JUMPDEST SWAP1 POP PUSH2 0x103A PUSH2 0x1035 DUP4 PUSH1 0x20 ADD MLOAD PUSH12 0xFFFFFFFFFFFFFFFFFFFFFFFF AND DUP4 PUSH2 0x1616 SWAP1 SWAP2 SWAP1 PUSH4 0xFFFFFFFF AND JUMP JUMPDEST PUSH2 0x2264 JUMP JUMPDEST DUP3 PUSH1 0x20 ADD SWAP1 PUSH12 0xFFFFFFFFFFFFFFFFFFFFFFFF AND SWAP1 DUP2 PUSH12 0xFFFFFFFFFFFFFFFFFFFFFFFF AND DUP2 MSTORE POP POP PUSH2 0x108E PUSH2 0x1089 DUP4 PUSH1 0x40 ADD MLOAD PUSH12 0xFFFFFFFFFFFFFFFFFFFFFFFF AND DUP4 PUSH2 0x1616 SWAP1 SWAP2 SWAP1 PUSH4 0xFFFFFFFF AND JUMP JUMPDEST PUSH2 0x2264 JUMP JUMPDEST DUP3 PUSH1 0x40 ADD SWAP1 PUSH12 0xFFFFFFFFFFFFFFFFFFFFFFFF AND SWAP1 DUP2 PUSH12 0xFFFFFFFFFFFFFFFFFFFFFFFF AND DUP2 MSTORE POP POP POP JUMPDEST DUP1 SWAP1 POP SWAP2 SWAP1 POP JUMP JUMPDEST PUSH1 0x15 PUSH1 0x4 SWAP1 SLOAD SWAP1 PUSH2 0x100 EXP SWAP1 DIV PUSH4 0xFFFFFFFF AND DUP2 JUMP JUMPDEST PUSH1 0x0 PUSH2 0x10DF PUSH2 0x4604 JUMP JUMPDEST PUSH1 0xB PUSH1 0x0 DUP6 DUP2 MSTORE PUSH1 0x20 ADD SWAP1 DUP2 MSTORE PUSH1 0x20 ADD PUSH1 0x0 KECCAK256 PUSH1 0x40 MLOAD DUP1 PUSH1 0x40 ADD PUSH1 0x40 MSTORE SWAP1 DUP2 PUSH1 0x0 DUP3 ADD PUSH1 0x0 SWAP1 SLOAD SWAP1 PUSH2 0x100 EXP SWAP1 DIV PUSH20 0xFFFFFFFFFFFFFFFFFFFFFFFFFFFFFFFFFFFFFFFF AND PUSH20 0xFFFFFFFFFFFFFFFFFFFFFFFFFFFFFFFFFFFFFFFF AND PUSH20 0xFFFFFFFFFFFFFFFFFFFFFFFFFFFFFFFFFFFFFFFF AND DUP2 MSTORE PUSH1 0x20 ADD PUSH1 0x0 DUP3 ADD PUSH1 0x14 SWAP1 SLOAD SWAP1 PUSH2 0x100 EXP SWAP1 DIV PUSH4 0xFFFFFFFF AND PUSH4 0xFFFFFFFF AND PUSH4 0xFFFFFFFF AND DUP2 MSTORE POP POP SWAP1 POP PUSH1 0x0 DUP1 PUSH2 0x1187 DUP7 PUSH2 0x2133 JUMP JUMPDEST SWAP2 POP SWAP2 POP PUSH1 0x0 PUSH2 0x119C DUP5 PUSH1 0x20 ADD MLOAD DUP5 DUP5 PUSH2 0x2210 JUMP JUMPDEST SWAP2 POP POP PUSH2 0x11AB DUP8 DUP8 DUP4 DUP6 PUSH2 0x229A JUMP JUMPDEST SWAP5 POP POP POP POP POP SWAP3 SWAP2 POP POP JUMP JUMPDEST PUSH1 0x3 PUSH1 0x0 SWAP1 SLOAD SWAP1 PUSH2 0x100 EXP SWAP1 DIV PUSH20 0xFFFFFFFFFFFFFFFFFFFFFFFFFFFFFFFFFFFFFFFF AND DUP2 JUMP JUMPDEST PUSH2 0x11E5 PUSH2 0x45BD JUMP JUMPDEST PUSH2 0x123D PUSH1 0x6 PUSH1 0x0 DUP6 PUSH20 0xFFFFFFFFFFFFFFFFFFFFFFFFFFFFFFFFFFFFFFFF AND PUSH20 0xFFFFFFFFFFFFFFFFFFFFFFFFFFFFFFFFFFFFFFFF AND DUP2 MSTORE PUSH1 0x20 ADD SWAP1 DUP2 MSTORE PUSH1 0x20 ADD PUSH1 0x0 KECCAK256 PUSH1 0x0 DUP5 DUP2 MSTORE PUSH1 0x20 ADD SWAP1 DUP2 MSTORE PUSH1 0x20 ADD PUSH1 0x0 KECCAK256 PUSH2 0x184A JUMP JUMPDEST SWAP1 POP DUP1 SWAP1 POP SWAP3 SWAP2 POP POP JUMP JUMPDEST PUSH2 0x1250 PUSH2 0x1989 JUMP JUMPDEST PUSH1 0x0 PUSH20 0xFFFFFFFFFFFFFFFFFFFFFFFFFFFFFFFFFFFFFFFF AND DUP2 PUSH20 0xFFFFFFFFFFFFFFFFFFFFFFFFFFFFFFFFFFFFFFFF AND EQ ISZERO PUSH2 0x129A JUMPI PUSH2 0x1295 PUSH2 0x1290 PUSH2 0x248B JUMP JUMPDEST PUSH2 0x16C2 JUMP JUMPDEST PUSH2 0x1335 JUMP JUMPDEST DUP1 PUSH1 0x0 DUP1 PUSH2 0x100 EXP DUP2 SLOAD DUP2 PUSH20 0xFFFFFFFFFFFFFFFFFFFFFFFFFFFFFFFFFFFFFFFF MUL NOT AND SWAP1 DUP4 PUSH20 0xFFFFFFFFFFFFFFFFFFFFFFFFFFFFFFFFFFFFFFFF AND MUL OR SWAP1 SSTORE POP DUP1 PUSH20 0xFFFFFFFFFFFFFFFFFFFFFFFFFFFFFFFFFFFFFFFF AND CALLER PUSH20 0xFFFFFFFFFFFFFFFFFFFFFFFFFFFFFFFFFFFFFFFF AND PUSH32 0x8BE0079C531659141344CD1FD0A4F28419497F9722A3DAAFE3B4186F6B6457E0 PUSH1 0x40 MLOAD PUSH1 0x40 MLOAD DUP1 SWAP2 SUB SWAP1 LOG3 JUMPDEST POP JUMP JUMPDEST PUSH2 0x1341 CALLER PUSH2 0x24C8 JUMP JUMPDEST ISZERO PUSH2 0x1381 JUMPI PUSH1 0x40 MLOAD PUSH32 0x8C379A000000000000000000000000000000000000000000000000000000000 DUP2 MSTORE PUSH1 0x4 ADD PUSH2 0x1378 SWAP1 PUSH2 0x4D2C JUMP JUMPDEST PUSH1 0x40 MLOAD DUP1 SWAP2 SUB SWAP1 REVERT JUMPDEST PUSH1 0x0 PUSH1 0xD SLOAD SWAP1 POP PUSH1 0x0 PUSH2 0x139E PUSH1 0x1 DUP4 PUSH2 0x1616 SWAP1 SWAP2 SWAP1 PUSH4 0xFFFFFFFF AND JUMP JUMPDEST SWAP1 POP PUSH2 0x13A8 PUSH2 0x458E JUMP JUMPDEST PUSH1 0x17 PUSH1 0x0 DUP4 DUP2 MSTORE PUSH1 0x20 ADD SWAP1 DUP2 MSTORE PUSH1 0x20 ADD PUSH1 0x0 KECCAK256 PUSH1 0x40 MLOAD DUP1 PUSH1 0xA0 ADD PUSH1 0x40 MSTORE SWAP1 DUP2 PUSH1 0x0 DUP3 ADD SLOAD DUP2 MSTORE PUSH1 0x20 ADD PUSH1 0x1 DUP3 ADD SLOAD DUP2 MSTORE PUSH1 0x20 ADD PUSH1 0x2 DUP3 ADD SLOAD DUP2 MSTORE PUSH1 0x20 ADD PUSH1 0x3 DUP3 ADD SLOAD DUP2 MSTORE PUSH1 0x20 ADD PUSH1 0x4 DUP3 ADD SLOAD DUP2 MSTORE POP POP SWAP1 POP PUSH1 0x0 DUP2 PUSH1 0x20 ADD MLOAD EQ ISZERO PUSH2 0x140F JUMPI POP POP POP PUSH2 0x1613 JUMP JUMPDEST PUSH2 0x1417 PUSH2 0x463A JUMP JUMPDEST PUSH1 0x16 PUSH1 0x0 DUP7 DUP2 MSTORE PUSH1 0x20 ADD SWAP1 DUP2 MSTORE PUSH1 0x20 ADD PUSH1 0x0 KECCAK256 PUSH1 0x0 DUP5 DUP2 MSTORE PUSH1 0x20 ADD SWAP1 DUP2 MSTORE PUSH1 0x20 ADD PUSH1 0x0 KECCAK256 PUSH1 0x40 MLOAD DUP1 PUSH1 0x60 ADD PUSH1 0x40 MSTORE SWAP1 DUP2 PUSH1 0x0 DUP3 ADD SLOAD DUP2 MSTORE PUSH1 0x20 ADD PUSH1 0x1 DUP3 ADD SLOAD DUP2 MSTORE PUSH1 0x20 ADD PUSH1 0x2 DUP3 ADD SLOAD DUP2 MSTORE POP POP SWAP1 POP PUSH1 0x0 DUP2 PUSH1 0x0 ADD MLOAD EQ ISZERO PUSH2 0x147C JUMPI POP POP POP POP PUSH2 0x1613 JUMP JUMPDEST PUSH1 0x16 PUSH1 0x0 DUP7 DUP2 MSTORE PUSH1 0x20 ADD SWAP1 DUP2 MSTORE PUSH1 0x20 ADD PUSH1 0x0 KECCAK256 PUSH1 0x0 DUP5 DUP2 MSTORE PUSH1 0x20 ADD SWAP1 DUP2 MSTORE PUSH1 0x20 ADD PUSH1 0x0 KECCAK256 PUSH1 0x0 DUP1 DUP3 ADD PUSH1 0x0 SWAP1 SSTORE PUSH1 0x1 DUP3 ADD PUSH1 0x0 SWAP1 SSTORE PUSH1 0x2 DUP3 ADD PUSH1 0x0 SWAP1 SSTORE POP POP PUSH1 0x0 PUSH2 0x14C7 DUP3 DUP5 PUSH2 0x24DB JUMP JUMPDEST SWAP1 POP PUSH1 0x0 DUP1 PUSH2 0x14DB DUP9 DUP5 DUP7 PUSH1 0x40 ADD MLOAD PUSH2 0x256D JUMP JUMPDEST SWAP2 POP SWAP2 POP DUP8 DUP8 PUSH32 0xF1116B309178AA62DCB6BF8C3B8BC2321724907C7EBF52192D14C8CE3AA9194C DUP5 DUP5 PUSH1 0x40 MLOAD PUSH2 0x1512 SWAP3 SWAP2 SWAP1 PUSH2 0x4DA2 JUMP JUMPDEST PUSH1 0x40 MLOAD DUP1 SWAP2 SUB SWAP1 LOG3 PUSH1 0x0 PUSH2 0x152F DUP3 DUP5 PUSH2 0x1EEC SWAP1 SWAP2 SWAP1 PUSH4 0xFFFFFFFF AND JUMP JUMPDEST SWAP1 POP PUSH2 0x1548 DUP2 DUP8 PUSH1 0x80 ADD MLOAD PUSH2 0x1EEC SWAP1 SWAP2 SWAP1 PUSH4 0xFFFFFFFF AND JUMP JUMPDEST DUP7 PUSH1 0x80 ADD DUP2 DUP2 MSTORE POP PUSH1 0x17 PUSH1 0x0 DUP10 DUP2 MSTORE PUSH1 0x20 ADD SWAP1 DUP2 MSTORE PUSH1 0x20 ADD PUSH1 0x0 KECCAK256 PUSH1 0x4 ADD DUP2 SWAP1 SSTORE POP PUSH2 0x1582 PUSH1 0x1 DUP8 PUSH1 0x20 ADD MLOAD PUSH2 0x1616 SWAP1 SWAP2 SWAP1 PUSH4 0xFFFFFFFF AND JUMP JUMPDEST DUP7 PUSH1 0x20 ADD DUP2 DUP2 MSTORE POP PUSH1 0x17 PUSH1 0x0 DUP10 DUP2 MSTORE PUSH1 0x20 ADD SWAP1 DUP2 MSTORE PUSH1 0x20 ADD PUSH1 0x0 KECCAK256 PUSH1 0x1 ADD DUP2 SWAP1 SSTORE POP PUSH1 0x0 DUP7 PUSH1 0x20 ADD MLOAD EQ ISZERO PUSH2 0x160A JUMPI DUP7 PUSH32 0xB463D19ECF455BE65365092CF8E1DB6934A0334CF8CD532DDF9964D01F36B5B2 DUP8 PUSH1 0x80 ADD MLOAD PUSH2 0x15F3 DUP10 PUSH1 0x80 ADD MLOAD DUP11 PUSH1 0x0 ADD MLOAD PUSH2 0x1616 SWAP1 SWAP2 SWAP1 PUSH4 0xFFFFFFFF AND JUMP JUMPDEST PUSH1 0x40 MLOAD PUSH2 0x1601 SWAP3 SWAP2 SWAP1 PUSH2 0x4DA2 JUMP JUMPDEST PUSH1 0x40 MLOAD DUP1 SWAP2 SUB SWAP1 LOG2 JUMPDEST POP POP POP POP POP POP POP POP JUMPDEST POP JUMP JUMPDEST PUSH1 0x0 DUP3 DUP3 GT ISZERO PUSH2 0x1635 JUMPI PUSH2 0x1634 PUSH2 0x162F PUSH1 0x2 DUP6 DUP6 PUSH2 0x26FC JUMP JUMPDEST PUSH2 0x16C2 JUMP JUMPDEST JUMPDEST DUP2 DUP4 SUB SWAP1 POP SWAP3 SWAP2 POP POP JUMP JUMPDEST PUSH1 0x60 PUSH4 0x614B800A PUSH1 0xE0 SHL DUP4 DUP4 PUSH1 0x40 MLOAD PUSH1 0x24 ADD PUSH2 0x165D SWAP3 SWAP2 SWAP1 PUSH2 0x4DA2 JUMP JUMPDEST PUSH1 0x40 MLOAD PUSH1 0x20 DUP2 DUP4 SUB SUB DUP2 MSTORE SWAP1 PUSH1 0x40 MSTORE SWAP1 PUSH28 0xFFFFFFFFFFFFFFFFFFFFFFFFFFFFFFFFFFFFFFFFFFFFFFFFFFFFFFFF NOT AND PUSH1 0x20 DUP3 ADD DUP1 MLOAD PUSH28 0xFFFFFFFFFFFFFFFFFFFFFFFFFFFFFFFFFFFFFFFFFFFFFFFFFFFFFFFF DUP4 DUP2 DUP4 AND OR DUP4 MSTORE POP POP POP POP SWAP1 POP SWAP3 SWAP2 POP POP JUMP JUMPDEST DUP1 MLOAD PUSH1 0x20 DUP3 ADD REVERT JUMPDEST PUSH1 0x0 SELFBALANCE SWAP1 POP PUSH1 0x0 DUP2 EQ PUSH2 0x1740 JUMPI PUSH2 0x16DF PUSH2 0xA1B JUMP JUMPDEST PUSH20 0xFFFFFFFFFFFFFFFFFFFFFFFFFFFFFFFFFFFFFFFF AND PUSH4 0xD0E30DB0 DUP3 PUSH1 0x40 MLOAD DUP3 PUSH4 0xFFFFFFFF AND PUSH1 0xE0 SHL DUP2 MSTORE PUSH1 0x4 ADD PUSH1 0x0 PUSH1 0x40 MLOAD DUP1 DUP4 SUB DUP2 DUP6 DUP9 DUP1 EXTCODESIZE ISZERO DUP1 ISZERO PUSH2 0x1726 JUMPI PUSH1 0x0 DUP1 REVERT JUMPDEST POP GAS CALL ISZERO DUP1 ISZERO PUSH2 0x173A JUMPI RETURNDATASIZE PUSH1 0x0 DUP1 RETURNDATACOPY RETURNDATASIZE PUSH1 0x0 REVERT JUMPDEST POP POP POP POP POP JUMPDEST POP JUMP JUMPDEST PUSH1 0x0 PUSH2 0x17E9 PUSH1 0x18 SLOAD PUSH2 0x1753 PUSH2 0xA1B JUMP JUMPDEST PUSH20 0xFFFFFFFFFFFFFFFFFFFFFFFFFFFFFFFFFFFFFFFF AND PUSH4 0x70A08231 ADDRESS PUSH1 0x40 MLOAD DUP3 PUSH4 0xFFFFFFFF AND PUSH1 0xE0 SHL DUP2 MSTORE PUSH1 0x4 ADD PUSH2 0x178B SWAP2 SWAP1 PUSH2 0x4B7F JUMP JUMPDEST PUSH1 0x20 PUSH1 0x40 MLOAD DUP1 DUP4 SUB DUP2 DUP7 DUP1 EXTCODESIZE ISZERO DUP1 ISZERO PUSH2 0x17A3 JUMPI PUSH1 0x0 DUP1 REVERT JUMPDEST POP GAS STATICCALL ISZERO DUP1 ISZERO PUSH2 0x17B7 JUMPI RETURNDATASIZE PUSH1 0x0 DUP1 RETURNDATACOPY RETURNDATASIZE PUSH1 0x0 REVERT JUMPDEST POP POP POP POP PUSH1 0x40 MLOAD RETURNDATASIZE PUSH1 0x1F NOT PUSH1 0x1F DUP3 ADD AND DUP3 ADD DUP1 PUSH1 0x40 MSTORE POP PUSH2 0x17DB SWAP2 SWAP1 DUP2 ADD SWAP1 PUSH2 0x493D JUMP JUMPDEST PUSH2 0x1616 SWAP1 SWAP2 SWAP1 PUSH4 0xFFFFFFFF AND JUMP JUMPDEST SWAP1 POP DUP1 SWAP1 POP SWAP1 JUMP JUMPDEST PUSH1 0x0 TIMESTAMP SWAP1 POP PUSH1 0x0 PUSH2 0x1800 PUSH2 0xD34 JUMP JUMPDEST SWAP1 POP DUP2 DUP2 GT ISZERO PUSH2 0x181D JUMPI PUSH2 0x181C PUSH2 0x1817 DUP3 DUP5 PUSH2 0x2781 JUMP JUMPDEST PUSH2 0x16C2 JUMP JUMPDEST JUMPDEST PUSH1 0x0 PUSH2 0x1835 PUSH1 0x1 PUSH1 0xD SLOAD PUSH2 0x1EEC SWAP1 SWAP2 SWAP1 PUSH4 0xFFFFFFFF AND JUMP JUMPDEST SWAP1 POP DUP1 PUSH1 0xD DUP2 SWAP1 SSTORE POP DUP3 PUSH1 0xE DUP2 SWAP1 SSTORE POP POP POP POP JUMP JUMPDEST PUSH2 0x1852 PUSH2 0x45BD JUMP JUMPDEST DUP2 PUSH1 0x40 MLOAD DUP1 PUSH1 0x60 ADD PUSH1 0x40 MSTORE SWAP1 DUP2 PUSH1 0x0 DUP3 ADD PUSH1 0x0 SWAP1 SLOAD SWAP1 PUSH2 0x100 EXP SWAP1 DIV PUSH8 0xFFFFFFFFFFFFFFFF AND PUSH8 0xFFFFFFFFFFFFFFFF AND PUSH8 0xFFFFFFFFFFFFFFFF AND DUP2 MSTORE PUSH1 0x20 ADD PUSH1 0x0 DUP3 ADD PUSH1 0x8 SWAP1 SLOAD SWAP1 PUSH2 0x100 EXP SWAP1 DIV PUSH12 0xFFFFFFFFFFFFFFFFFFFFFFFF AND PUSH12 0xFFFFFFFFFFFFFFFFFFFFFFFF AND PUSH12 0xFFFFFFFFFFFFFFFFFFFFFFFF AND DUP2 MSTORE PUSH1 0x20 ADD PUSH1 0x0 DUP3 ADD PUSH1 0x14 SWAP1 SLOAD SWAP1 PUSH2 0x100 EXP SWAP1 DIV PUSH12 0xFFFFFFFFFFFFFFFFFFFFFFFF AND PUSH12 0xFFFFFFFFFFFFFFFFFFFFFFFF AND PUSH12 0xFFFFFFFFFFFFFFFFFFFFFFFF AND DUP2 MSTORE POP POP SWAP1 POP PUSH1 0x0 PUSH1 0xD SLOAD SWAP1 POP DUP2 PUSH1 0x0 ADD MLOAD PUSH8 0xFFFFFFFFFFFFFFFF AND DUP2 GT ISZERO PUSH2 0x1980 JUMPI PUSH2 0x1934 DUP2 PUSH2 0x2803 JUMP JUMPDEST DUP3 PUSH1 0x0 ADD SWAP1 PUSH8 0xFFFFFFFFFFFFFFFF AND SWAP1 DUP2 PUSH8 0xFFFFFFFFFFFFFFFF AND DUP2 MSTORE POP POP DUP2 PUSH1 0x40 ADD MLOAD DUP3 PUSH1 0x20 ADD SWAP1 PUSH12 0xFFFFFFFFFFFFFFFFFFFFFFFF AND SWAP1 DUP2 PUSH12 0xFFFFFFFFFFFFFFFFFFFFFFFF AND DUP2 MSTORE POP POP JUMPDEST DUP2 SWAP2 POP POP SWAP2 SWAP1 POP JUMP JUMPDEST PUSH1 0x0 DUP1 SWAP1 SLOAD SWAP1 PUSH2 0x100 EXP SWAP1 DIV PUSH20 0xFFFFFFFFFFFFFFFFFFFFFFFFFFFFFFFFFFFFFFFF AND PUSH20 0xFFFFFFFFFFFFFFFFFFFFFFFFFFFFFFFFFFFFFFFF AND CALLER PUSH20 0xFFFFFFFFFFFFFFFFFFFFFFFFFFFFFFFFFFFFFFFF AND EQ PUSH2 0x1A11 JUMPI PUSH2 0x1A10 PUSH2 0x1A0B CALLER PUSH1 0x0 DUP1 SWAP1 SLOAD SWAP1 PUSH2 0x100 EXP SWAP1 DIV PUSH20 0xFFFFFFFFFFFFFFFFFFFFFFFFFFFFFFFFFFFFFFFF AND PUSH2 0x2835 JUMP JUMPDEST PUSH2 0x16C2 JUMP JUMPDEST JUMPDEST JUMP JUMPDEST PUSH1 0x0 PUSH20 0xFFFFFFFFFFFFFFFFFFFFFFFFFFFFFFFFFFFFFFFF AND DUP2 PUSH20 0xFFFFFFFFFFFFFFFFFFFFFFFFFFFFFFFFFFFFFFFF AND EQ ISZERO PUSH2 0x1A59 JUMPI PUSH2 0x1A58 PUSH2 0x1A53 PUSH2 0x28B7 JUMP JUMPDEST PUSH2 0x16C2 JUMP JUMPDEST JUMPDEST PUSH1 0x1 PUSH1 0x0 DUP3 PUSH20 0xFFFFFFFFFFFFFFFFFFFFFFFFFFFFFFFFFFFFFFFF AND PUSH20 0xFFFFFFFFFFFFFFFFFFFFFFFFFFFFFFFFFFFFFFFF AND DUP2 MSTORE PUSH1 0x20 ADD SWAP1 DUP2 MSTORE PUSH1 0x20 ADD PUSH1 0x0 KECCAK256 PUSH1 0x0 SWAP1 SLOAD SWAP1 PUSH2 0x100 EXP SWAP1 DIV PUSH1 0xFF AND ISZERO PUSH2 0x1ABD JUMPI PUSH2 0x1ABC PUSH2 0x1AB7 DUP3 PUSH2 0x28F4 JUMP JUMPDEST PUSH2 0x16C2 JUMP JUMPDEST JUMPDEST PUSH1 0x1 DUP1 PUSH1 0x0 DUP4 PUSH20 0xFFFFFFFFFFFFFFFFFFFFFFFFFFFFFFFFFFFFFFFF AND PUSH20 0xFFFFFFFFFFFFFFFFFFFFFFFFFFFFFFFFFFFFFFFF AND DUP2 MSTORE PUSH1 0x20 ADD SWAP1 DUP2 MSTORE PUSH1 0x20 ADD PUSH1 0x0 KECCAK256 PUSH1 0x0 PUSH2 0x100 EXP DUP2 SLOAD DUP2 PUSH1 0xFF MUL NOT AND SWAP1 DUP4 ISZERO ISZERO MUL OR SWAP1 SSTORE POP PUSH1 0x2 DUP2 SWAP1 DUP1 PUSH1 0x1 DUP2 SLOAD ADD DUP1 DUP3 SSTORE DUP1 SWAP2 POP POP SWAP1 PUSH1 0x1 DUP3 SUB SWAP1 PUSH1 0x0 MSTORE PUSH1 0x20 PUSH1 0x0 KECCAK256 ADD PUSH1 0x0 SWAP1 SWAP2 SWAP3 SWAP1 SWAP2 SWAP1 SWAP2 PUSH2 0x100 EXP DUP2 SLOAD DUP2 PUSH20 0xFFFFFFFFFFFFFFFFFFFFFFFFFFFFFFFFFFFFFFFF MUL NOT AND SWAP1 DUP4 PUSH20 0xFFFFFFFFFFFFFFFFFFFFFFFFFFFFFFFFFFFFFFFF AND MUL OR SWAP1 SSTORE POP POP CALLER PUSH20 0xFFFFFFFFFFFFFFFFFFFFFFFFFFFFFFFFFFFFFFFF AND DUP2 PUSH20 0xFFFFFFFFFFFFFFFFFFFFFFFFFFFFFFFFFFFFFFFF AND PUSH32 0x3147867C59D17E8FA9D522465651D44AAE0A9E38F902F3475B97E58072F0ED4C PUSH1 0x40 MLOAD PUSH1 0x40 MLOAD DUP1 SWAP2 SUB SWAP1 LOG3 POP JUMP JUMPDEST PUSH1 0x60 PUSH4 0xEB5108A2 PUSH1 0xE0 SHL DUP3 PUSH1 0x40 MLOAD PUSH1 0x24 ADD PUSH2 0x1BF2 SWAP2 SWAP1 PUSH2 0x4B7F JUMP JUMPDEST PUSH1 0x40 MLOAD PUSH1 0x20 DUP2 DUP4 SUB SUB DUP2 MSTORE SWAP1 PUSH1 0x40 MSTORE SWAP1 PUSH28 0xFFFFFFFFFFFFFFFFFFFFFFFFFFFFFFFFFFFFFFFFFFFFFFFFFFFFFFFF NOT AND PUSH1 0x20 DUP3 ADD DUP1 MLOAD PUSH28 0xFFFFFFFFFFFFFFFFFFFFFFFFFFFFFFFFFFFFFFFFFFFFFFFFFFFFFFFF DUP4 DUP2 DUP4 AND OR DUP4 MSTORE POP POP POP POP SWAP1 POP SWAP2 SWAP1 POP JUMP JUMPDEST PUSH1 0x1 PUSH1 0x0 DUP4 PUSH20 0xFFFFFFFFFFFFFFFFFFFFFFFFFFFFFFFFFFFFFFFF AND PUSH20 0xFFFFFFFFFFFFFFFFFFFFFFFFFFFFFFFFFFFFFFFF AND DUP2 MSTORE PUSH1 0x20 ADD SWAP1 DUP2 MSTORE PUSH1 0x20 ADD PUSH1 0x0 KECCAK256 PUSH1 0x0 SWAP1 SLOAD SWAP1 PUSH2 0x100 EXP SWAP1 DIV PUSH1 0xFF AND PUSH2 0x1CB9 JUMPI PUSH2 0x1CB8 PUSH2 0x1CB3 DUP4 PUSH2 0x1BD7 JUMP JUMPDEST PUSH2 0x16C2 JUMP JUMPDEST JUMPDEST PUSH1 0x2 DUP1 SLOAD SWAP1 POP DUP2 LT PUSH2 0x1CDD JUMPI PUSH2 0x1CDC PUSH2 0x1CD7 DUP3 PUSH1 0x2 DUP1 SLOAD SWAP1 POP PUSH2 0x2973 JUMP JUMPDEST PUSH2 0x16C2 JUMP JUMPDEST JUMPDEST DUP2 PUSH20 0xFFFFFFFFFFFFFFFFFFFFFFFFFFFFFFFFFFFFFFFF AND PUSH1 0x2 DUP3 DUP2 SLOAD DUP2 LT PUSH2 0x1D01 JUMPI INVALID JUMPDEST SWAP1 PUSH1 0x0 MSTORE PUSH1 0x20 PUSH1 0x0 KECCAK256 ADD PUSH1 0x0 SWAP1 SLOAD SWAP1 PUSH2 0x100 EXP SWAP1 DIV PUSH20 0xFFFFFFFFFFFFFFFFFFFFFFFFFFFFFFFFFFFFFFFF AND PUSH20 0xFFFFFFFFFFFFFFFFFFFFFFFFFFFFFFFFFFFFFFFF AND EQ PUSH2 0x1D91 JUMPI PUSH2 0x1D90 PUSH2 0x1D8B PUSH1 0x2 DUP4 DUP2 SLOAD DUP2 LT PUSH2 0x1D5A JUMPI INVALID JUMPDEST SWAP1 PUSH1 0x0 MSTORE PUSH1 0x20 PUSH1 0x0 KECCAK256 ADD PUSH1 0x0 SWAP1 SLOAD SWAP1 PUSH2 0x100 EXP SWAP1 DIV PUSH20 0xFFFFFFFFFFFFFFFFFFFFFFFFFFFFFFFFFFFFFFFF AND DUP5 PUSH2 0x29F5 JUMP JUMPDEST PUSH2 0x16C2 JUMP JUMPDEST JUMPDEST PUSH1 0x1 PUSH1 0x0 DUP4 PUSH20 0xFFFFFFFFFFFFFFFFFFFFFFFFFFFFFFFFFFFFFFFF AND PUSH20 0xFFFFFFFFFFFFFFFFFFFFFFFFFFFFFFFFFFFFFFFF AND DUP2 MSTORE PUSH1 0x20 ADD SWAP1 DUP2 MSTORE PUSH1 0x20 ADD PUSH1 0x0 KECCAK256 PUSH1 0x0 PUSH2 0x100 EXP DUP2 SLOAD SWAP1 PUSH1 0xFF MUL NOT AND SWAP1 SSTORE PUSH1 0x2 PUSH1 0x1 PUSH1 0x2 DUP1 SLOAD SWAP1 POP SUB DUP2 SLOAD DUP2 LT PUSH2 0x1DF5 JUMPI INVALID JUMPDEST SWAP1 PUSH1 0x0 MSTORE PUSH1 0x20 PUSH1 0x0 KECCAK256 ADD PUSH1 0x0 SWAP1 SLOAD SWAP1 PUSH2 0x100 EXP SWAP1 DIV PUSH20 0xFFFFFFFFFFFFFFFFFFFFFFFFFFFFFFFFFFFFFFFF AND PUSH1 0x2 DUP3 DUP2 SLOAD DUP2 LT PUSH2 0x1E2D JUMPI INVALID JUMPDEST SWAP1 PUSH1 0x0 MSTORE PUSH1 0x20 PUSH1 0x0 KECCAK256 ADD PUSH1 0x0 PUSH2 0x100 EXP DUP2 SLOAD DUP2 PUSH20 0xFFFFFFFFFFFFFFFFFFFFFFFFFFFFFFFFFFFFFFFF MUL NOT AND SWAP1 DUP4 PUSH20 0xFFFFFFFFFFFFFFFFFFFFFFFFFFFFFFFFFFFFFFFF AND MUL OR SWAP1 SSTORE POP PUSH1 0x1 PUSH1 0x2 DUP2 DUP2 DUP1 SLOAD SWAP1 POP SUB SWAP2 POP DUP2 PUSH2 0x1E8D SWAP2 SWAP1 PUSH2 0x465B JUMP JUMPDEST POP CALLER PUSH20 0xFFFFFFFFFFFFFFFFFFFFFFFFFFFFFFFFFFFFFFFF AND DUP3 PUSH20 0xFFFFFFFFFFFFFFFFFFFFFFFFFFFFFFFFFFFFFFFF AND PUSH32 0x1F32C1B084E2DE0713B8FB16BD46BB9DF710A3DBEAE2F3CA93AF46E016DCC6B0 PUSH1 0x40 MLOAD PUSH1 0x40 MLOAD DUP1 SWAP2 SUB SWAP1 LOG3 POP POP JUMP JUMPDEST PUSH1 0x0 DUP1 DUP3 DUP5 ADD SWAP1 POP DUP4 DUP2 LT ISZERO PUSH2 0x1F11 JUMPI PUSH2 0x1F10 PUSH2 0x1F0B PUSH1 0x0 DUP7 DUP7 PUSH2 0x26FC JUMP JUMPDEST PUSH2 0x16C2 JUMP JUMPDEST JUMPDEST DUP1 SWAP2 POP POP SWAP3 SWAP2 POP POP JUMP JUMPDEST PUSH2 0x1F24 DUP3 PUSH2 0x2A77 JUMP JUMPDEST PUSH1 0x0 PUSH2 0x1F33 DUP4 DUP4 PUSH1 0x0 DUP1 PUSH2 0x229A JUMP JUMPDEST SWAP1 POP PUSH2 0x1F8D PUSH1 0x6 PUSH1 0x0 DUP5 PUSH20 0xFFFFFFFFFFFFFFFFFFFFFFFFFFFFFFFFFFFFFFFF AND PUSH20 0xFFFFFFFFFFFFFFFFFFFFFFFFFFFFFFFFFFFFFFFF AND DUP2 MSTORE PUSH1 0x20 ADD SWAP1 DUP2 MSTORE PUSH1 0x20 ADD PUSH1 0x0 KECCAK256 PUSH1 0x0 DUP6 DUP2 MSTORE PUSH1 0x20 ADD SWAP1 DUP2 MSTORE PUSH1 0x20 ADD PUSH1 0x0 KECCAK256 PUSH2 0x184A JUMP JUMPDEST PUSH1 0x6 PUSH1 0x0 DUP5 PUSH20 0xFFFFFFFFFFFFFFFFFFFFFFFFFFFFFFFFFFFFFFFF AND PUSH20 0xFFFFFFFFFFFFFFFFFFFFFFFFFFFFFFFFFFFFFFFF AND DUP2 MSTORE PUSH1 0x20 ADD SWAP1 DUP2 MSTORE PUSH1 0x20 ADD PUSH1 0x0 KECCAK256 PUSH1 0x0 DUP6 DUP2 MSTORE PUSH1 0x20 ADD SWAP1 DUP2 MSTORE PUSH1 0x20 ADD PUSH1 0x0 KECCAK256 PUSH1 0x0 DUP3 ADD MLOAD DUP2 PUSH1 0x0 ADD PUSH1 0x0 PUSH2 0x100 EXP DUP2 SLOAD DUP2 PUSH8 0xFFFFFFFFFFFFFFFF MUL NOT AND SWAP1 DUP4 PUSH8 0xFFFFFFFFFFFFFFFF AND MUL OR SWAP1 SSTORE POP PUSH1 0x20 DUP3 ADD MLOAD DUP2 PUSH1 0x0 ADD PUSH1 0x8 PUSH2 0x100 EXP DUP2 SLOAD DUP2 PUSH12 0xFFFFFFFFFFFFFFFFFFFFFFFF MUL NOT AND SWAP1 DUP4 PUSH12 0xFFFFFFFFFFFFFFFFFFFFFFFF AND MUL OR SWAP1 SSTORE POP PUSH1 0x40 DUP3 ADD MLOAD DUP2 PUSH1 0x0 ADD PUSH1 0x14 PUSH2 0x100 EXP DUP2 SLOAD DUP2 PUSH12 0xFFFFFFFFFFFFFFFFFFFFFFFF MUL NOT AND SWAP1 DUP4 PUSH12 0xFFFFFFFFFFFFFFFFFFFFFFFF AND MUL OR SWAP1 SSTORE POP SWAP1 POP POP PUSH1 0x0 DUP2 EQ PUSH2 0x2125 JUMPI PUSH2 0x208F DUP4 DUP3 PUSH2 0x2B0C JUMP JUMPDEST PUSH2 0x2097 PUSH2 0xA1B JUMP JUMPDEST PUSH20 0xFFFFFFFFFFFFFFFFFFFFFFFFFFFFFFFFFFFFFFFF AND PUSH4 0xA9059CBB DUP4 DUP4 PUSH1 0x40 MLOAD DUP4 PUSH4 0xFFFFFFFF AND PUSH1 0xE0 SHL DUP2 MSTORE PUSH1 0x4 ADD PUSH2 0x20D1 SWAP3 SWAP2 SWAP1 PUSH2 0x4BC3 JUMP JUMPDEST PUSH1 0x20 PUSH1 0x40 MLOAD DUP1 DUP4 SUB DUP2 PUSH1 0x0 DUP8 DUP1 EXTCODESIZE ISZERO DUP1 ISZERO PUSH2 0x20EB JUMPI PUSH1 0x0 DUP1 REVERT JUMPDEST POP GAS CALL ISZERO DUP1 ISZERO PUSH2 0x20FF JUMPI RETURNDATASIZE PUSH1 0x0 DUP1 RETURNDATACOPY RETURNDATASIZE PUSH1 0x0 REVERT JUMPDEST POP POP POP POP PUSH1 0x40 MLOAD RETURNDATASIZE PUSH1 0x1F NOT PUSH1 0x1F DUP3 ADD AND DUP3 ADD DUP1 PUSH1 0x40 MSTORE POP PUSH2 0x2123 SWAP2 SWAP1 DUP2 ADD SWAP1 PUSH2 0x4821 JUMP JUMPDEST POP JUMPDEST PUSH2 0x212E DUP4 PUSH2 0x2B68 JUMP JUMPDEST POP POP POP JUMP JUMPDEST PUSH1 0x0 DUP1 PUSH1 0x0 PUSH2 0x214E PUSH1 0x1 PUSH1 0xD SLOAD PUSH2 0x1616 SWAP1 SWAP2 SWAP1 PUSH4 0xFFFFFFFF AND JUMP JUMPDEST SWAP1 POP PUSH2 0x2158 PUSH2 0x463A JUMP JUMPDEST PUSH1 0x16 PUSH1 0x0 DUP7 DUP2 MSTORE PUSH1 0x20 ADD SWAP1 DUP2 MSTORE PUSH1 0x20 ADD PUSH1 0x0 KECCAK256 PUSH1 0x0 DUP4 DUP2 MSTORE PUSH1 0x20 ADD SWAP1 DUP2 MSTORE PUSH1 0x20 ADD PUSH1 0x0 KECCAK256 PUSH1 0x40 MLOAD DUP1 PUSH1 0x60 ADD PUSH1 0x40 MSTORE SWAP1 DUP2 PUSH1 0x0 DUP3 ADD SLOAD DUP2 MSTORE PUSH1 0x20 ADD PUSH1 0x1 DUP3 ADD SLOAD DUP2 MSTORE PUSH1 0x20 ADD PUSH1 0x2 DUP3 ADD SLOAD DUP2 MSTORE POP POP SWAP1 POP PUSH2 0x2200 DUP2 PUSH1 0x17 PUSH1 0x0 DUP6 DUP2 MSTORE PUSH1 0x20 ADD SWAP1 DUP2 MSTORE PUSH1 0x20 ADD PUSH1 0x0 KECCAK256 PUSH1 0x40 MLOAD DUP1 PUSH1 0xA0 ADD PUSH1 0x40 MSTORE SWAP1 DUP2 PUSH1 0x0 DUP3 ADD SLOAD DUP2 MSTORE PUSH1 0x20 ADD PUSH1 0x1 DUP3 ADD SLOAD DUP2 MSTORE PUSH1 0x20 ADD PUSH1 0x2 DUP3 ADD SLOAD DUP2 MSTORE PUSH1 0x20 ADD PUSH1 0x3 DUP3 ADD SLOAD DUP2 MSTORE PUSH1 0x20 ADD PUSH1 0x4 DUP3 ADD SLOAD DUP2 MSTORE POP POP PUSH2 0x24DB JUMP JUMPDEST SWAP4 POP DUP1 PUSH1 0x40 ADD MLOAD SWAP3 POP POP POP SWAP2 POP SWAP2 JUMP JUMPDEST PUSH1 0x0 DUP1 PUSH1 0x0 DUP4 EQ ISZERO PUSH2 0x2224 JUMPI DUP4 SWAP2 POP PUSH2 0x2256 JUMP JUMPDEST PUSH2 0x223E DUP6 PUSH4 0xFFFFFFFF AND PUSH3 0xF4240 PUSH4 0xFFFFFFFF AND DUP7 PUSH2 0x2B78 JUMP JUMPDEST SWAP2 POP PUSH2 0x2253 DUP3 DUP6 PUSH2 0x1616 SWAP1 SWAP2 SWAP1 PUSH4 0xFFFFFFFF AND JUMP JUMPDEST SWAP1 POP JUMPDEST DUP2 DUP2 SWAP2 POP SWAP2 POP SWAP4 POP SWAP4 SWAP2 POP POP JUMP JUMPDEST PUSH1 0x0 DUP2 SWAP1 POP DUP2 DUP2 PUSH12 0xFFFFFFFFFFFFFFFFFFFFFFFF AND EQ PUSH2 0x2292 JUMPI PUSH2 0x2291 PUSH2 0x228C PUSH1 0x2 DUP5 PUSH2 0x2BD0 JUMP JUMPDEST PUSH2 0x16C2 JUMP JUMPDEST JUMPDEST DUP1 SWAP1 POP SWAP2 SWAP1 POP JUMP JUMPDEST PUSH1 0x0 DUP1 PUSH1 0xD SLOAD SWAP1 POP PUSH2 0x22AA PUSH2 0x45BD JUMP JUMPDEST PUSH1 0x6 PUSH1 0x0 DUP8 PUSH20 0xFFFFFFFFFFFFFFFFFFFFFFFFFFFFFFFFFFFFFFFF AND PUSH20 0xFFFFFFFFFFFFFFFFFFFFFFFFFFFFFFFFFFFFFFFF AND DUP2 MSTORE PUSH1 0x20 ADD SWAP1 DUP2 MSTORE PUSH1 0x20 ADD PUSH1 0x0 KECCAK256 PUSH1 0x0 DUP9 DUP2 MSTORE PUSH1 0x20 ADD SWAP1 DUP2 MSTORE PUSH1 0x20 ADD PUSH1 0x0 KECCAK256 PUSH1 0x40 MLOAD DUP1 PUSH1 0x60 ADD PUSH1 0x40 MSTORE SWAP1 DUP2 PUSH1 0x0 DUP3 ADD PUSH1 0x0 SWAP1 SLOAD SWAP1 PUSH2 0x100 EXP SWAP1 DIV PUSH8 0xFFFFFFFFFFFFFFFF AND PUSH8 0xFFFFFFFFFFFFFFFF AND PUSH8 0xFFFFFFFFFFFFFFFF AND DUP2 MSTORE PUSH1 0x20 ADD PUSH1 0x0 DUP3 ADD PUSH1 0x8 SWAP1 SLOAD SWAP1 PUSH2 0x100 EXP SWAP1 DIV PUSH12 0xFFFFFFFFFFFFFFFFFFFFFFFF AND PUSH12 0xFFFFFFFFFFFFFFFFFFFFFFFF AND PUSH12 0xFFFFFFFFFFFFFFFFFFFFFFFF AND DUP2 MSTORE PUSH1 0x20 ADD PUSH1 0x0 DUP3 ADD PUSH1 0x14 SWAP1 SLOAD SWAP1 PUSH2 0x100 EXP SWAP1 DIV PUSH12 0xFFFFFFFFFFFFFFFFFFFFFFFF AND PUSH12 0xFFFFFFFFFFFFFFFFFFFFFFFF AND PUSH12 0xFFFFFFFFFFFFFFFFFFFFFFFF AND DUP2 MSTORE POP POP SWAP1 POP DUP2 DUP2 PUSH1 0x0 ADD MLOAD PUSH8 0xFFFFFFFFFFFFFFFF AND EQ ISZERO PUSH2 0x23D6 JUMPI PUSH1 0x0 SWAP3 POP POP POP PUSH2 0x2483 JUMP JUMPDEST PUSH2 0x23E2 DUP2 DUP4 DUP8 DUP8 PUSH2 0x2C52 JUMP JUMPDEST SWAP3 POP PUSH1 0x0 PUSH2 0x2408 PUSH1 0x1 DUP4 PUSH1 0x0 ADD MLOAD PUSH8 0xFFFFFFFFFFFFFFFF AND PUSH2 0x1EEC SWAP1 SWAP2 SWAP1 PUSH4 0xFFFFFFFF AND JUMP JUMPDEST SWAP1 POP PUSH2 0x2448 PUSH2 0x2439 DUP10 DUP5 PUSH1 0x20 ADD MLOAD PUSH12 0xFFFFFFFFFFFFFFFFFFFFFFFF AND DUP6 PUSH1 0x0 ADD MLOAD PUSH8 0xFFFFFFFFFFFFFFFF AND DUP6 PUSH2 0x2CE5 JUMP JUMPDEST DUP6 PUSH2 0x1EEC SWAP1 SWAP2 SWAP1 PUSH4 0xFFFFFFFF AND JUMP JUMPDEST SWAP4 POP PUSH2 0x247A PUSH2 0x246B DUP10 DUP5 PUSH1 0x40 ADD MLOAD PUSH12 0xFFFFFFFFFFFFFFFFFFFFFFFF AND DUP5 DUP8 PUSH2 0x2CE5 JUMP JUMPDEST DUP6 PUSH2 0x1EEC SWAP1 SWAP2 SWAP1 PUSH4 0xFFFFFFFF AND JUMP JUMPDEST SWAP4 POP DUP4 SWAP4 POP POP POP POP JUMPDEST SWAP5 SWAP4 POP POP POP POP JUMP JUMPDEST PUSH1 0x60 PUSH1 0x40 MLOAD DUP1 PUSH1 0x40 ADD PUSH1 0x40 MSTORE DUP1 PUSH1 0x4 DUP2 MSTORE PUSH1 0x20 ADD PUSH32 0xE69EDC3E00000000000000000000000000000000000000000000000000000000 DUP2 MSTORE POP SWAP1 POP SWAP1 JUMP JUMPDEST PUSH1 0x0 DUP1 DUP3 EXTCODESIZE SWAP1 POP PUSH1 0x0 DUP2 GT SWAP2 POP POP SWAP2 SWAP1 POP JUMP JUMPDEST PUSH1 0x0 DUP1 DUP4 PUSH1 0x0 ADD MLOAD EQ ISZERO PUSH2 0x24F1 JUMPI DUP1 SWAP1 POP PUSH2 0x2567 JUMP JUMPDEST PUSH2 0x2538 DUP3 PUSH1 0x0 ADD MLOAD DUP5 PUSH1 0x0 ADD MLOAD DUP5 PUSH1 0x40 ADD MLOAD DUP7 PUSH1 0x20 ADD MLOAD DUP7 PUSH1 0x60 ADD MLOAD PUSH1 0x15 PUSH1 0x0 SWAP1 SLOAD SWAP1 PUSH2 0x100 EXP SWAP1 DIV PUSH4 0xFFFFFFFF AND PUSH1 0x15 PUSH1 0x4 SWAP1 SLOAD SWAP1 PUSH2 0x100 EXP SWAP1 DIV PUSH4 0xFFFFFFFF AND PUSH2 0x2D96 JUMP JUMPDEST SWAP1 POP PUSH1 0x0 PUSH2 0x2557 DUP4 PUSH1 0x80 ADD MLOAD DUP5 PUSH1 0x0 ADD MLOAD PUSH2 0x1616 SWAP1 SWAP2 SWAP1 PUSH4 0xFFFFFFFF AND JUMP JUMPDEST SWAP1 POP DUP2 DUP2 LT ISZERO PUSH2 0x2565 JUMPI DUP1 SWAP2 POP JUMPDEST POP JUMPDEST SWAP3 SWAP2 POP POP JUMP JUMPDEST PUSH1 0x0 DUP1 PUSH2 0x2578 PUSH2 0x4604 JUMP JUMPDEST PUSH1 0xB PUSH1 0x0 DUP8 DUP2 MSTORE PUSH1 0x20 ADD SWAP1 DUP2 MSTORE PUSH1 0x20 ADD PUSH1 0x0 KECCAK256 PUSH1 0x40 MLOAD DUP1 PUSH1 0x40 ADD PUSH1 0x40 MSTORE SWAP1 DUP2 PUSH1 0x0 DUP3 ADD PUSH1 0x0 SWAP1 SLOAD SWAP1 PUSH2 0x100 EXP SWAP1 DIV PUSH20 0xFFFFFFFFFFFFFFFFFFFFFFFFFFFFFFFFFFFFFFFF AND PUSH20 0xFFFFFFFFFFFFFFFFFFFFFFFFFFFFFFFFFFFFFFFF AND PUSH20 0xFFFFFFFFFFFFFFFFFFFFFFFFFFFFFFFFFFFFFFFF AND DUP2 MSTORE PUSH1 0x20 ADD PUSH1 0x0 DUP3 ADD PUSH1 0x14 SWAP1 SLOAD SWAP1 PUSH2 0x100 EXP SWAP1 DIV PUSH4 0xFFFFFFFF AND PUSH4 0xFFFFFFFF AND PUSH4 0xFFFFFFFF AND DUP2 MSTORE POP POP SWAP1 POP PUSH2 0x2623 DUP2 PUSH1 0x20 ADD MLOAD DUP7 DUP7 PUSH2 0x2210 JUMP JUMPDEST DUP1 SWAP4 POP DUP2 SWAP5 POP POP POP PUSH1 0x0 DUP4 GT ISZERO PUSH2 0x26CE JUMPI PUSH2 0x263C PUSH2 0xA1B JUMP JUMPDEST PUSH20 0xFFFFFFFFFFFFFFFFFFFFFFFFFFFFFFFFFFFFFFFF AND PUSH4 0xA9059CBB DUP3 PUSH1 0x0 ADD MLOAD DUP6 PUSH1 0x40 MLOAD DUP4 PUSH4 0xFFFFFFFF AND PUSH1 0xE0 SHL DUP2 MSTORE PUSH1 0x4 ADD PUSH2 0x267A SWAP3 SWAP2 SWAP1 PUSH2 0x4BC3 JUMP JUMPDEST PUSH1 0x20 PUSH1 0x40 MLOAD DUP1 DUP4 SUB DUP2 PUSH1 0x0 DUP8 DUP1 EXTCODESIZE ISZERO DUP1 ISZERO PUSH2 0x2694 JUMPI PUSH1 0x0 DUP1 REVERT JUMPDEST POP GAS CALL ISZERO DUP1 ISZERO PUSH2 0x26A8 JUMPI RETURNDATASIZE PUSH1 0x0 DUP1 RETURNDATACOPY RETURNDATASIZE PUSH1 0x0 REVERT JUMPDEST POP POP POP POP PUSH1 0x40 MLOAD RETURNDATASIZE PUSH1 0x1F NOT PUSH1 0x1F DUP3 ADD AND DUP3 ADD DUP1 PUSH1 0x40 MSTORE POP PUSH2 0x26CC SWAP2 SWAP1 DUP2 ADD SWAP1 PUSH2 0x4821 JUMP JUMPDEST POP JUMPDEST PUSH1 0x0 DUP3 GT ISZERO PUSH2 0x26ED JUMPI PUSH2 0x26E1 DUP7 DUP4 PUSH2 0x2E63 JUMP JUMPDEST PUSH2 0x26EC DUP7 DUP4 DUP7 PUSH2 0x2EBF JUMP JUMPDEST JUMPDEST DUP3 DUP3 SWAP3 POP SWAP3 POP POP SWAP4 POP SWAP4 SWAP2 POP POP JUMP JUMPDEST PUSH1 0x60 PUSH4 0xE946C1BB PUSH1 0xE0 SHL DUP5 DUP5 DUP5 PUSH1 0x40 MLOAD PUSH1 0x24 ADD PUSH2 0x271B SWAP4 SWAP3 SWAP2 SWAP1 PUSH2 0x4CA3 JUMP JUMPDEST PUSH1 0x40 MLOAD PUSH1 0x20 DUP2 DUP4 SUB SUB DUP2 MSTORE SWAP1 PUSH1 0x40 MSTORE SWAP1 PUSH28 0xFFFFFFFFFFFFFFFFFFFFFFFFFFFFFFFFFFFFFFFFFFFFFFFFFFFFFFFF NOT AND PUSH1 0x20 DUP3 ADD DUP1 MLOAD PUSH28 0xFFFFFFFFFFFFFFFFFFFFFFFFFFFFFFFFFFFFFFFFFFFFFFFFFFFFFFFF DUP4 DUP2 DUP4 AND OR DUP4 MSTORE POP POP POP POP SWAP1 POP SWAP4 SWAP3 POP POP POP JUMP JUMPDEST PUSH1 0x60 PUSH4 0xA6BCDE47 PUSH1 0xE0 SHL DUP4 DUP4 PUSH1 0x40 MLOAD PUSH1 0x24 ADD PUSH2 0x279E SWAP3 SWAP2 SWAP1 PUSH2 0x4DA2 JUMP JUMPDEST PUSH1 0x40 MLOAD PUSH1 0x20 DUP2 DUP4 SUB SUB DUP2 MSTORE SWAP1 PUSH1 0x40 MSTORE SWAP1 PUSH28 0xFFFFFFFFFFFFFFFFFFFFFFFFFFFFFFFFFFFFFFFFFFFFFFFFFFFFFFFF NOT AND PUSH1 0x20 DUP3 ADD DUP1 MLOAD PUSH28 0xFFFFFFFFFFFFFFFFFFFFFFFFFFFFFFFFFFFFFFFFFFFFFFFFFFFFFFFF DUP4 DUP2 DUP4 AND OR DUP4 MSTORE POP POP POP POP SWAP1 POP SWAP3 SWAP2 POP POP JUMP JUMPDEST PUSH1 0x0 DUP2 SWAP1 POP DUP2 DUP2 PUSH8 0xFFFFFFFFFFFFFFFF AND EQ PUSH2 0x282D JUMPI PUSH2 0x282C PUSH2 0x2827 PUSH1 0x1 DUP5 PUSH2 0x2BD0 JUMP JUMPDEST PUSH2 0x16C2 JUMP JUMPDEST JUMPDEST DUP1 SWAP1 POP SWAP2 SWAP1 POP JUMP JUMPDEST PUSH1 0x60 PUSH4 0x1DE45AD1 PUSH1 0xE0 SHL DUP4 DUP4 PUSH1 0x40 MLOAD PUSH1 0x24 ADD PUSH2 0x2852 SWAP3 SWAP2 SWAP1 PUSH2 0x4B9A JUMP JUMPDEST PUSH1 0x40 MLOAD PUSH1 0x20 DUP2 DUP4 SUB SUB DUP2 MSTORE SWAP1 PUSH1 0x40 MSTORE SWAP1 PUSH28 0xFFFFFFFFFFFFFFFFFFFFFFFFFFFFFFFFFFFFFFFFFFFFFFFFFFFFFFFF NOT AND PUSH1 0x20 DUP3 ADD DUP1 MLOAD PUSH28 0xFFFFFFFFFFFFFFFFFFFFFFFFFFFFFFFFFFFFFFFFFFFFFFFFFFFFFFFF DUP4 DUP2 DUP4 AND OR DUP4 MSTORE POP POP POP POP SWAP1 POP SWAP3 SWAP2 POP POP JUMP JUMPDEST PUSH1 0x60 PUSH1 0x40 MLOAD DUP1 PUSH1 0x40 ADD PUSH1 0x40 MSTORE DUP1 PUSH1 0x4 DUP2 MSTORE PUSH1 0x20 ADD PUSH32 0x57654FE400000000000000000000000000000000000000000000000000000000 DUP2 MSTORE POP SWAP1 POP SWAP1 JUMP JUMPDEST PUSH1 0x60 PUSH4 0xDE16F1A0 PUSH1 0xE0 SHL DUP3 PUSH1 0x40 MLOAD PUSH1 0x24 ADD PUSH2 0x290F SWAP2 SWAP1 PUSH2 0x4B7F JUMP JUMPDEST PUSH1 0x40 MLOAD PUSH1 0x20 DUP2 DUP4 SUB SUB DUP2 MSTORE SWAP1 PUSH1 0x40 MSTORE SWAP1 PUSH28 0xFFFFFFFFFFFFFFFFFFFFFFFFFFFFFFFFFFFFFFFFFFFFFFFFFFFFFFFF NOT AND PUSH1 0x20 DUP3 ADD DUP1 MLOAD PUSH28 0xFFFFFFFFFFFFFFFFFFFFFFFFFFFFFFFFFFFFFFFFFFFFFFFFFFFFFFFF DUP4 DUP2 DUP4 AND OR DUP4 MSTORE POP POP POP POP SWAP1 POP SWAP2 SWAP1 POP JUMP JUMPDEST PUSH1 0x60 PUSH4 0xE9F83771 PUSH1 0xE0 SHL DUP4 DUP4 PUSH1 0x40 MLOAD PUSH1 0x24 ADD PUSH2 0x2990 SWAP3 SWAP2 SWAP1 PUSH2 0x4DA2 JUMP JUMPDEST PUSH1 0x40 MLOAD PUSH1 0x20 DUP2 DUP4 SUB SUB DUP2 MSTORE SWAP1 PUSH1 0x40 MSTORE SWAP1 PUSH28 0xFFFFFFFFFFFFFFFFFFFFFFFFFFFFFFFFFFFFFFFFFFFFFFFFFFFFFFFF NOT AND PUSH1 0x20 DUP3 ADD DUP1 MLOAD PUSH28 0xFFFFFFFFFFFFFFFFFFFFFFFFFFFFFFFFFFFFFFFFFFFFFFFFFFFFFFFF DUP4 DUP2 DUP4 AND OR DUP4 MSTORE POP POP POP POP SWAP1 POP SWAP3 SWAP2 POP POP JUMP JUMPDEST PUSH1 0x60 PUSH4 0x140A84DB PUSH1 0xE0 SHL DUP4 DUP4 PUSH1 0x40 MLOAD PUSH1 0x24 ADD PUSH2 0x2A12 SWAP3 SWAP2 SWAP1 PUSH2 0x4B9A JUMP JUMPDEST PUSH1 0x40 MLOAD PUSH1 0x20 DUP2 DUP4 SUB SUB DUP2 MSTORE SWAP1 PUSH1 0x40 MSTORE SWAP1 PUSH28 0xFFFFFFFFFFFFFFFFFFFFFFFFFFFFFFFFFFFFFFFFFFFFFFFFFFFFFFFF NOT AND PUSH1 0x20 DUP3 ADD DUP1 MLOAD PUSH28 0xFFFFFFFFFFFFFFFFFFFFFFFFFFFFFFFFFFFFFFFFFFFFFFFFFFFFFFFF DUP4 DUP2 DUP4 AND OR DUP4 MSTORE POP POP POP POP SWAP1 POP SWAP3 SWAP2 POP POP JUMP JUMPDEST PUSH1 0x0 PUSH2 0x2A8F PUSH1 0x1 PUSH1 0xD SLOAD PUSH2 0x1616 SWAP1 SWAP2 SWAP1 PUSH4 0xFFFFFFFF AND JUMP JUMPDEST SWAP1 POP PUSH2 0x2A99 PUSH2 0x463A JUMP JUMPDEST PUSH1 0x16 PUSH1 0x0 DUP5 DUP2 MSTORE PUSH1 0x20 ADD SWAP1 DUP2 MSTORE PUSH1 0x20 ADD PUSH1 0x0 KECCAK256 PUSH1 0x0 DUP4 DUP2 MSTORE PUSH1 0x20 ADD SWAP1 DUP2 MSTORE PUSH1 0x20 ADD PUSH1 0x0 KECCAK256 PUSH1 0x40 MLOAD DUP1 PUSH1 0x60 ADD PUSH1 0x40 MSTORE SWAP1 DUP2 PUSH1 0x0 DUP3 ADD SLOAD DUP2 MSTORE PUSH1 0x20 ADD PUSH1 0x1 DUP3 ADD SLOAD DUP2 MSTORE PUSH1 0x20 ADD PUSH1 0x2 DUP3 ADD SLOAD DUP2 MSTORE POP POP SWAP1 POP PUSH1 0x0 DUP2 PUSH1 0x0 ADD MLOAD EQ PUSH2 0x2B07 JUMPI PUSH2 0x2B06 PUSH2 0x2B01 DUP5 DUP5 PUSH2 0x3012 JUMP JUMPDEST PUSH2 0x16C2 JUMP JUMPDEST JUMPDEST POP POP POP JUMP JUMPDEST PUSH2 0x2B32 DUP2 PUSH1 0xC PUSH1 0x0 DUP6 DUP2 MSTORE PUSH1 0x20 ADD SWAP1 DUP2 MSTORE PUSH1 0x20 ADD PUSH1 0x0 KECCAK256 SLOAD PUSH2 0x1616 SWAP1 SWAP2 SWAP1 PUSH4 0xFFFFFFFF AND JUMP JUMPDEST PUSH1 0xC PUSH1 0x0 DUP5 DUP2 MSTORE PUSH1 0x20 ADD SWAP1 DUP2 MSTORE PUSH1 0x20 ADD PUSH1 0x0 KECCAK256 DUP2 SWAP1 SSTORE POP PUSH2 0x2B5E DUP2 PUSH1 0x18 SLOAD PUSH2 0x1616 SWAP1 SWAP2 SWAP1 PUSH4 0xFFFFFFFF AND JUMP JUMPDEST PUSH1 0x18 DUP2 SWAP1 SSTORE POP POP POP JUMP JUMPDEST PUSH2 0x2B75 DUP2 PUSH1 0x0 PUSH1 0x1 PUSH2 0x2EBF JUMP JUMPDEST POP JUMP JUMPDEST PUSH1 0x0 PUSH2 0x2BC4 DUP4 PUSH2 0x2BB6 PUSH2 0x2B95 PUSH1 0x1 DUP8 PUSH2 0x1616 SWAP1 SWAP2 SWAP1 PUSH4 0xFFFFFFFF AND JUMP JUMPDEST PUSH2 0x2BA8 DUP7 DUP10 PUSH2 0x3094 SWAP1 SWAP2 SWAP1 PUSH4 0xFFFFFFFF AND JUMP JUMPDEST PUSH2 0x1EEC SWAP1 SWAP2 SWAP1 PUSH4 0xFFFFFFFF AND JUMP JUMPDEST PUSH2 0x30DE SWAP1 SWAP2 SWAP1 PUSH4 0xFFFFFFFF AND JUMP JUMPDEST SWAP1 POP DUP1 SWAP1 POP SWAP4 SWAP3 POP POP POP JUMP JUMPDEST PUSH1 0x60 PUSH4 0xC996AF7B PUSH1 0xE0 SHL DUP4 DUP4 PUSH1 0x40 MLOAD PUSH1 0x24 ADD PUSH2 0x2BED SWAP3 SWAP2 SWAP1 PUSH2 0x4CDA JUMP JUMPDEST PUSH1 0x40 MLOAD PUSH1 0x20 DUP2 DUP4 SUB SUB DUP2 MSTORE SWAP1 PUSH1 0x40 MSTORE SWAP1 PUSH28 0xFFFFFFFFFFFFFFFFFFFFFFFFFFFFFFFFFFFFFFFFFFFFFFFFFFFFFFFF NOT AND PUSH1 0x20 DUP3 ADD DUP1 MLOAD PUSH28 0xFFFFFFFFFFFFFFFFFFFFFFFFFFFFFFFFFFFFFFFFFFFFFFFFFFFFFFFF DUP4 DUP2 DUP4 AND OR DUP4 MSTORE POP POP POP POP SWAP1 POP SWAP3 SWAP2 POP POP JUMP JUMPDEST PUSH1 0x0 DUP1 DUP4 EQ DUP1 PUSH2 0x2C62 JUMPI POP PUSH1 0x0 DUP3 EQ JUMPDEST ISZERO PUSH2 0x2C70 JUMPI PUSH1 0x0 SWAP1 POP PUSH2 0x2CDD JUMP JUMPDEST PUSH1 0x0 PUSH2 0x2C86 PUSH1 0x1 DUP7 PUSH2 0x1616 SWAP1 SWAP2 SWAP1 PUSH4 0xFFFFFFFF AND JUMP JUMPDEST DUP7 PUSH1 0x0 ADD MLOAD PUSH8 0xFFFFFFFFFFFFFFFF AND LT ISZERO PUSH2 0x2CA5 JUMPI DUP6 PUSH1 0x40 ADD MLOAD PUSH2 0x2CAB JUMP JUMPDEST DUP6 PUSH1 0x20 ADD MLOAD JUMPDEST PUSH12 0xFFFFFFFFFFFFFFFFFFFFFFFF AND SWAP1 POP PUSH1 0x0 DUP2 EQ ISZERO PUSH2 0x2CCE JUMPI PUSH1 0x0 SWAP2 POP POP PUSH2 0x2CDD JUMP JUMPDEST PUSH2 0x2CD9 DUP5 DUP5 DUP4 PUSH2 0x3115 JUMP JUMPDEST SWAP2 POP POP JUMPDEST SWAP5 SWAP4 POP POP POP POP JUMP JUMPDEST PUSH1 0x0 DUP1 DUP5 EQ DUP1 PUSH2 0x2CF4 JUMPI POP DUP2 DUP4 EQ JUMPDEST ISZERO PUSH2 0x2D02 JUMPI PUSH1 0x0 SWAP1 POP PUSH2 0x2D8E JUMP JUMPDEST DUP2 DUP4 LT PUSH2 0x2D44 JUMPI PUSH1 0x40 MLOAD PUSH32 0x8C379A000000000000000000000000000000000000000000000000000000000 DUP2 MSTORE PUSH1 0x4 ADD PUSH2 0x2D3B SWAP1 PUSH2 0x4D4C JUMP JUMPDEST PUSH1 0x40 MLOAD DUP1 SWAP2 SUB SWAP1 REVERT JUMPDEST PUSH2 0x2D4C PUSH2 0x4687 JUMP JUMPDEST PUSH2 0x2D56 DUP7 DUP6 PUSH2 0x3148 JUMP JUMPDEST SWAP1 POP PUSH2 0x2D60 PUSH2 0x4687 JUMP JUMPDEST PUSH2 0x2D6A DUP8 DUP6 PUSH2 0x3148 JUMP JUMPDEST SWAP1 POP PUSH2 0x2D89 DUP2 PUSH1 0x0 ADD MLOAD DUP3 PUSH1 0x20 ADD MLOAD DUP5 PUSH1 0x0 ADD MLOAD DUP6 PUSH1 0x20 ADD MLOAD DUP11 PUSH2 0x32BF JUMP JUMPDEST SWAP3 POP POP POP JUMPDEST SWAP5 SWAP4 POP POP POP POP JUMP JUMPDEST PUSH1 0x0 DUP1 PUSH2 0x2DA3 DUP9 DUP9 PUSH2 0x338F JUMP JUMPDEST SWAP1 POP PUSH1 0x0 PUSH2 0x2DB1 DUP8 DUP8 PUSH2 0x338F JUMP JUMPDEST SWAP1 POP PUSH1 0x0 DUP3 EQ DUP1 PUSH2 0x2DC2 JUMPI POP PUSH1 0x0 DUP2 EQ JUMPDEST ISZERO PUSH2 0x2DD5 JUMPI PUSH1 0x0 SWAP3 POP DUP3 SWAP3 POP POP POP PUSH2 0x2E58 JUMP JUMPDEST PUSH1 0x0 DUP2 DUP4 SGT ISZERO PUSH2 0x2DEE JUMPI PUSH2 0x2DE9 DUP3 DUP5 PUSH2 0x33F5 JUMP JUMPDEST PUSH2 0x2DF9 JUMP JUMPDEST PUSH2 0x2DF8 DUP4 DUP4 PUSH2 0x33F5 JUMP JUMPDEST JUMPDEST SWAP1 POP PUSH2 0x2E22 PUSH2 0x2E1D PUSH2 0x2E0A DUP4 PUSH2 0x3422 JUMP JUMPDEST DUP9 PUSH4 0xFFFFFFFF AND DUP9 PUSH4 0xFFFFFFFF AND PUSH2 0x3A8A JUMP JUMPDEST PUSH2 0x3AA8 JUMP JUMPDEST SWAP1 POP DUP2 DUP4 SGT ISZERO PUSH2 0x2E3B JUMPI PUSH2 0x2E36 DUP3 DUP3 PUSH2 0x33F5 JUMP JUMPDEST PUSH2 0x2E46 JUMP JUMPDEST PUSH2 0x2E45 DUP3 DUP3 PUSH2 0x411A JUMP JUMPDEST JUMPDEST SWAP1 POP PUSH2 0x2E52 DUP2 DUP13 PUSH2 0x4147 JUMP JUMPDEST SWAP4 POP POP POP POP JUMPDEST SWAP8 SWAP7 POP POP POP POP POP POP POP JUMP JUMPDEST PUSH2 0x2E89 DUP2 PUSH1 0xC PUSH1 0x0 DUP6 DUP2 MSTORE PUSH1 0x20 ADD SWAP1 DUP2 MSTORE PUSH1 0x20 ADD PUSH1 0x0 KECCAK256 SLOAD PUSH2 0x1EEC SWAP1 SWAP2 SWAP1 PUSH4 0xFFFFFFFF AND JUMP JUMPDEST PUSH1 0xC PUSH1 0x0 DUP5 DUP2 MSTORE PUSH1 0x20 ADD SWAP1 DUP2 MSTORE PUSH1 0x20 ADD PUSH1 0x0 KECCAK256 DUP2 SWAP1 SSTORE POP PUSH2 0x2EB5 DUP2 PUSH1 0x18 SLOAD PUSH2 0x1EEC SWAP1 SWAP2 SWAP1 PUSH4 0xFFFFFFFF AND JUMP JUMPDEST PUSH1 0x18 DUP2 SWAP1 SSTORE POP POP POP JUMP JUMPDEST PUSH1 0x0 PUSH1 0x10 PUSH1 0x0 DUP6 DUP2 MSTORE PUSH1 0x20 ADD SWAP1 DUP2 MSTORE PUSH1 0x20 ADD PUSH1 0x0 KECCAK256 SLOAD SWAP1 POP PUSH1 0x0 PUSH1 0xD SLOAD SWAP1 POP DUP1 DUP3 EQ ISZERO PUSH2 0x2EED JUMPI POP POP PUSH2 0x300D JUMP JUMPDEST PUSH2 0x2EF5 PUSH2 0x4687 JUMP JUMPDEST PUSH1 0xF PUSH1 0x0 DUP8 DUP2 MSTORE PUSH1 0x20 ADD SWAP1 DUP2 MSTORE PUSH1 0x20 ADD PUSH1 0x0 KECCAK256 PUSH1 0x0 DUP5 DUP2 MSTORE PUSH1 0x20 ADD SWAP1 DUP2 MSTORE PUSH1 0x20 ADD PUSH1 0x0 KECCAK256 PUSH1 0x40 MLOAD DUP1 PUSH1 0x40 ADD PUSH1 0x40 MSTORE SWAP1 DUP2 PUSH1 0x0 DUP3 ADD SLOAD DUP2 MSTORE PUSH1 0x20 ADD PUSH1 0x1 DUP3 ADD SLOAD DUP2 MSTORE POP POP SWAP1 POP PUSH2 0x2F42 PUSH2 0x4687 JUMP JUMPDEST PUSH2 0x2F4B DUP3 PUSH2 0x4194 JUMP JUMPDEST ISZERO PUSH2 0x2F9F JUMPI PUSH2 0x2F64 DUP3 PUSH1 0x0 ADD MLOAD DUP4 PUSH1 0x20 ADD MLOAD DUP9 DUP9 PUSH2 0x41A5 JUMP JUMPDEST DUP3 PUSH1 0x0 ADD DUP4 PUSH1 0x20 ADD DUP3 DUP2 MSTORE POP DUP3 DUP2 MSTORE POP POP POP PUSH2 0x2F88 DUP2 PUSH1 0x0 ADD MLOAD DUP3 PUSH1 0x20 ADD MLOAD PUSH2 0x423A JUMP JUMPDEST DUP3 PUSH1 0x0 ADD DUP4 PUSH1 0x20 ADD DUP3 DUP2 MSTORE POP DUP3 DUP2 MSTORE POP POP POP PUSH2 0x2FB4 JUMP JUMPDEST DUP6 DUP6 DUP3 PUSH1 0x0 ADD DUP4 PUSH1 0x20 ADD DUP3 DUP2 MSTORE POP DUP3 DUP2 MSTORE POP POP POP JUMPDEST DUP1 PUSH1 0xF PUSH1 0x0 DUP10 DUP2 MSTORE PUSH1 0x20 ADD SWAP1 DUP2 MSTORE PUSH1 0x20 ADD PUSH1 0x0 KECCAK256 PUSH1 0x0 DUP6 DUP2 MSTORE PUSH1 0x20 ADD SWAP1 DUP2 MSTORE PUSH1 0x20 ADD PUSH1 0x0 KECCAK256 PUSH1 0x0 DUP3 ADD MLOAD DUP2 PUSH1 0x0 ADD SSTORE PUSH1 0x20 DUP3 ADD MLOAD DUP2 PUSH1 0x1 ADD SSTORE SWAP1 POP POP DUP3 PUSH1 0x10 PUSH1 0x0 DUP10 DUP2 MSTORE PUSH1 0x20 ADD SWAP1 DUP2 MSTORE PUSH1 0x20 ADD PUSH1 0x0 KECCAK256 DUP2 SWAP1 SSTORE POP POP POP POP POP JUMPDEST POP POP POP JUMP JUMPDEST PUSH1 0x60 PUSH4 0x5CAA0B05 PUSH1 0xE0 SHL DUP4 DUP4 PUSH1 0x40 MLOAD PUSH1 0x24 ADD PUSH2 0x302F SWAP3 SWAP2 SWAP1 PUSH2 0x4C44 JUMP JUMPDEST PUSH1 0x40 MLOAD PUSH1 0x20 DUP2 DUP4 SUB SUB DUP2 MSTORE SWAP1 PUSH1 0x40 MSTORE SWAP1 PUSH28 0xFFFFFFFFFFFFFFFFFFFFFFFFFFFFFFFFFFFFFFFFFFFFFFFFFFFFFFFF NOT AND PUSH1 0x20 DUP3 ADD DUP1 MLOAD PUSH28 0xFFFFFFFFFFFFFFFFFFFFFFFFFFFFFFFFFFFFFFFFFFFFFFFFFFFFFFFF DUP4 DUP2 DUP4 AND OR DUP4 MSTORE POP POP POP POP SWAP1 POP SWAP3 SWAP2 POP POP JUMP JUMPDEST PUSH1 0x0 DUP1 DUP4 EQ ISZERO PUSH2 0x30A7 JUMPI PUSH1 0x0 SWAP1 POP PUSH2 0x30D8 JUMP JUMPDEST PUSH1 0x0 DUP3 DUP5 MUL SWAP1 POP DUP3 DUP5 DUP3 DUP2 PUSH2 0x30B8 JUMPI INVALID JUMPDEST DIV EQ PUSH2 0x30D3 JUMPI PUSH2 0x30D2 PUSH2 0x30CD PUSH1 0x1 DUP7 DUP7 PUSH2 0x26FC JUMP JUMPDEST PUSH2 0x16C2 JUMP JUMPDEST JUMPDEST DUP1 SWAP2 POP POP JUMPDEST SWAP3 SWAP2 POP POP JUMP JUMPDEST PUSH1 0x0 DUP1 DUP3 EQ ISZERO PUSH2 0x30FD JUMPI PUSH2 0x30FC PUSH2 0x30F7 PUSH1 0x3 DUP6 DUP6 PUSH2 0x26FC JUMP JUMPDEST PUSH2 0x16C2 JUMP JUMPDEST JUMPDEST PUSH1 0x0 DUP3 DUP5 DUP2 PUSH2 0x3108 JUMPI INVALID JUMPDEST DIV SWAP1 POP DUP1 SWAP2 POP POP SWAP3 SWAP2 POP POP JUMP JUMPDEST PUSH1 0x0 PUSH2 0x313C DUP4 PUSH2 0x312E DUP5 DUP8 PUSH2 0x3094 SWAP1 SWAP2 SWAP1 PUSH4 0xFFFFFFFF AND JUMP JUMPDEST PUSH2 0x30DE SWAP1 SWAP2 SWAP1 PUSH4 0xFFFFFFFF AND JUMP JUMPDEST SWAP1 POP DUP1 SWAP1 POP SWAP4 SWAP3 POP POP POP JUMP JUMPDEST PUSH2 0x3150 PUSH2 0x4687 JUMP JUMPDEST PUSH1 0xF PUSH1 0x0 DUP5 DUP2 MSTORE PUSH1 0x20 ADD SWAP1 DUP2 MSTORE PUSH1 0x20 ADD PUSH1 0x0 KECCAK256 PUSH1 0x0 DUP4 DUP2 MSTORE PUSH1 0x20 ADD SWAP1 DUP2 MSTORE PUSH1 0x20 ADD PUSH1 0x0 KECCAK256 PUSH1 0x40 MLOAD DUP1 PUSH1 0x40 ADD PUSH1 0x40 MSTORE SWAP1 DUP2 PUSH1 0x0 DUP3 ADD SLOAD DUP2 MSTORE PUSH1 0x20 ADD PUSH1 0x1 DUP3 ADD SLOAD DUP2 MSTORE POP POP SWAP1 POP PUSH2 0x319E DUP2 PUSH2 0x4194 JUMP JUMPDEST ISZERO PUSH2 0x31AB JUMPI DUP1 SWAP1 POP PUSH2 0x32B9 JUMP JUMPDEST PUSH1 0x0 PUSH2 0x31C1 PUSH1 0x1 DUP5 PUSH2 0x1616 SWAP1 SWAP2 SWAP1 PUSH4 0xFFFFFFFF AND JUMP JUMPDEST SWAP1 POP PUSH1 0xF PUSH1 0x0 DUP6 DUP2 MSTORE PUSH1 0x20 ADD SWAP1 DUP2 MSTORE PUSH1 0x20 ADD PUSH1 0x0 KECCAK256 PUSH1 0x0 DUP3 DUP2 MSTORE PUSH1 0x20 ADD SWAP1 DUP2 MSTORE PUSH1 0x20 ADD PUSH1 0x0 KECCAK256 PUSH1 0x40 MLOAD DUP1 PUSH1 0x40 ADD PUSH1 0x40 MSTORE SWAP1 DUP2 PUSH1 0x0 DUP3 ADD SLOAD DUP2 MSTORE PUSH1 0x20 ADD PUSH1 0x1 DUP3 ADD SLOAD DUP2 MSTORE POP POP SWAP2 POP PUSH2 0x3211 DUP3 PUSH2 0x4194 JUMP JUMPDEST ISZERO PUSH2 0x321F JUMPI DUP2 SWAP2 POP POP PUSH2 0x32B9 JUMP JUMPDEST PUSH1 0x0 PUSH1 0x10 PUSH1 0x0 DUP7 DUP2 MSTORE PUSH1 0x20 ADD SWAP1 DUP2 MSTORE PUSH1 0x20 ADD PUSH1 0x0 KECCAK256 SLOAD SWAP1 POP DUP4 DUP2 LT ISZERO PUSH2 0x329D JUMPI PUSH1 0xF PUSH1 0x0 DUP7 DUP2 MSTORE PUSH1 0x20 ADD SWAP1 DUP2 MSTORE PUSH1 0x20 ADD PUSH1 0x0 KECCAK256 PUSH1 0x0 DUP3 DUP2 MSTORE PUSH1 0x20 ADD SWAP1 DUP2 MSTORE PUSH1 0x20 ADD PUSH1 0x0 KECCAK256 PUSH1 0x40 MLOAD DUP1 PUSH1 0x40 ADD PUSH1 0x40 MSTORE SWAP1 DUP2 PUSH1 0x0 DUP3 ADD SLOAD DUP2 MSTORE PUSH1 0x20 ADD PUSH1 0x1 DUP3 ADD SLOAD DUP2 MSTORE POP POP SWAP3 POP PUSH2 0x328D DUP4 PUSH2 0x4194 JUMP JUMPDEST ISZERO PUSH2 0x329C JUMPI DUP3 SWAP3 POP POP POP PUSH2 0x32B9 JUMP JUMPDEST JUMPDEST PUSH1 0x40 MLOAD DUP1 PUSH1 0x40 ADD PUSH1 0x40 MSTORE DUP1 PUSH1 0x0 DUP2 MSTORE PUSH1 0x20 ADD PUSH1 0x1 DUP2 MSTORE POP SWAP3 POP POP POP JUMPDEST SWAP3 SWAP2 POP POP JUMP JUMPDEST PUSH1 0x0 DUP1 DUP3 EQ ISZERO PUSH2 0x32D2 JUMPI PUSH1 0x0 SWAP1 POP PUSH2 0x3386 JUMP JUMPDEST PUSH1 0x0 DUP5 EQ ISZERO PUSH2 0x330A JUMPI PUSH2 0x3300 DUP6 PUSH2 0x32F2 DUP9 DUP6 PUSH2 0x3094 SWAP1 SWAP2 SWAP1 PUSH4 0xFFFFFFFF AND JUMP JUMPDEST PUSH2 0x30DE SWAP1 SWAP2 SWAP1 PUSH4 0xFFFFFFFF AND JUMP JUMPDEST SWAP1 POP DUP1 SWAP1 POP PUSH2 0x3386 JUMP JUMPDEST PUSH1 0x0 PUSH2 0x3343 PUSH2 0x3322 DUP8 DUP8 PUSH2 0x3094 SWAP1 SWAP2 SWAP1 PUSH4 0xFFFFFFFF AND JUMP JUMPDEST PUSH2 0x3335 DUP7 DUP11 PUSH2 0x3094 SWAP1 SWAP2 SWAP1 PUSH4 0xFFFFFFFF AND JUMP JUMPDEST PUSH2 0x1616 SWAP1 SWAP2 SWAP1 PUSH4 0xFFFFFFFF AND JUMP JUMPDEST SWAP1 POP PUSH1 0x0 PUSH2 0x335A DUP6 DUP4 PUSH2 0x30DE SWAP1 SWAP2 SWAP1 PUSH4 0xFFFFFFFF AND JUMP JUMPDEST SWAP1 POP PUSH2 0x3381 DUP8 PUSH2 0x3373 DUP4 DUP8 PUSH2 0x3094 SWAP1 SWAP2 SWAP1 PUSH4 0xFFFFFFFF AND JUMP JUMPDEST PUSH2 0x30DE SWAP1 SWAP2 SWAP1 PUSH4 0xFFFFFFFF AND JUMP JUMPDEST SWAP3 POP POP POP JUMPDEST SWAP6 SWAP5 POP POP POP POP POP JUMP JUMPDEST PUSH1 0x0 DUP1 DUP4 SLT ISZERO PUSH2 0x33AD JUMPI PUSH2 0x33AC PUSH2 0x33A7 PUSH1 0x1 DUP6 PUSH2 0x4263 JUMP JUMPDEST PUSH2 0x16C2 JUMP JUMPDEST JUMPDEST PUSH1 0x0 DUP3 SLT ISZERO PUSH2 0x33CA JUMPI PUSH2 0x33C9 PUSH2 0x33C4 PUSH1 0x1 DUP5 PUSH2 0x4263 JUMP JUMPDEST PUSH2 0x16C2 JUMP JUMPDEST JUMPDEST PUSH2 0x33ED PUSH2 0x33E7 DUP5 PUSH16 0x80000000000000000000000000000000 PUSH2 0x42F0 JUMP JUMPDEST DUP4 PUSH2 0x4355 JUMP JUMPDEST SWAP1 POP SWAP3 SWAP2 POP POP JUMP JUMPDEST PUSH1 0x0 PUSH2 0x341A PUSH2 0x3414 DUP5 PUSH16 0x80000000000000000000000000000000 PUSH2 0x42F0 JUMP JUMPDEST DUP4 PUSH2 0x4355 JUMP JUMPDEST SWAP1 POP SWAP3 SWAP2 POP POP JUMP JUMPDEST PUSH1 0x0 PUSH16 0x80000000000000000000000000000000 DUP3 SGT ISZERO PUSH2 0x3450 JUMPI PUSH2 0x344F PUSH2 0x344A PUSH1 0x1 DUP5 PUSH2 0x43EE JUMP JUMPDEST PUSH2 0x16C2 JUMP JUMPDEST JUMPDEST PUSH1 0x0 DUP3 SGT PUSH2 0x346C JUMPI PUSH2 0x346B PUSH2 0x3466 PUSH1 0x0 DUP5 PUSH2 0x43EE JUMP JUMPDEST PUSH2 0x16C2 JUMP JUMPDEST JUMPDEST PUSH16 0x80000000000000000000000000000000 DUP3 EQ ISZERO PUSH2 0x348D JUMPI PUSH1 0x0 SWAP1 POP PUSH2 0x3A85 JUMP JUMPDEST PUSH5 0x733048C5A DUP3 SGT PUSH2 0x34B5 JUMPI PUSH17 0x1FF0000000000000000000000000000000 PUSH1 0x0 SUB SWAP1 POP PUSH2 0x3A85 JUMP JUMPDEST PUSH1 0x0 DUP1 PUSH1 0x0 PUSH11 0x1C8464F76164760000000 DUP6 SGT PUSH2 0x350C JUMPI PUSH17 0x1000000000000000000000000000000000 DUP5 SUB SWAP4 POP PUSH11 0x1C8464F76164760000000 PUSH16 0x80000000000000000000000000000000 DUP7 MUL DUP2 PUSH2 0x3508 JUMPI INVALID JUMPDEST SDIV SWAP5 POP JUMPDEST PUSH13 0xF1AADDD7742E90000000000000 DUP6 SGT PUSH2 0x3562 JUMPI PUSH17 0x800000000000000000000000000000000 DUP5 SUB SWAP4 POP PUSH13 0xF1AADDD7742E90000000000000 PUSH16 0x80000000000000000000000000000000 DUP7 MUL DUP2 PUSH2 0x355E JUMPI INVALID JUMPDEST SDIV SWAP5 POP JUMPDEST PUSH15 0xAFE10820813D78000000000000000 DUP6 SGT PUSH2 0x35BC JUMPI PUSH17 0x400000000000000000000000000000000 DUP5 SUB SWAP4 POP PUSH15 0xAFE10820813D78000000000000000 PUSH16 0x80000000000000000000000000000000 DUP7 MUL DUP2 PUSH2 0x35B8 JUMPI INVALID JUMPDEST SDIV SWAP5 POP JUMPDEST PUSH16 0x2582AB704279EC00000000000000000 DUP6 SGT PUSH2 0x3618 JUMPI PUSH17 0x200000000000000000000000000000000 DUP5 SUB SWAP4 POP PUSH16 0x2582AB704279EC00000000000000000 PUSH16 0x80000000000000000000000000000000 DUP7 MUL DUP2 PUSH2 0x3614 JUMPI INVALID JUMPDEST SDIV SWAP5 POP JUMPDEST PUSH16 0x1152AAA3BF81CC000000000000000000 DUP6 SGT PUSH2 0x3674 JUMPI PUSH17 0x100000000000000000000000000000000 DUP5 SUB SWAP4 POP PUSH16 0x1152AAA3BF81CC000000000000000000 PUSH16 0x80000000000000000000000000000000 DUP7 MUL DUP2 PUSH2 0x3670 JUMPI INVALID JUMPDEST SDIV SWAP5 POP JUMPDEST PUSH16 0x2F16AC6C59DE70000000000000000000 DUP6 SGT PUSH2 0x36CF JUMPI PUSH16 0x80000000000000000000000000000000 DUP5 SUB SWAP4 POP PUSH16 0x2F16AC6C59DE70000000000000000000 PUSH16 0x80000000000000000000000000000000 DUP7 MUL DUP2 PUSH2 0x36CB JUMPI INVALID JUMPDEST SDIV SWAP5 POP JUMPDEST PUSH16 0x4DA2CBF1BE5828000000000000000000 DUP6 SGT PUSH2 0x372A JUMPI PUSH16 0x40000000000000000000000000000000 DUP5 SUB SWAP4 POP PUSH16 0x4DA2CBF1BE5828000000000000000000 PUSH16 0x80000000000000000000000000000000 DUP7 MUL DUP2 PUSH2 0x3726 JUMPI INVALID JUMPDEST SDIV SWAP5 POP JUMPDEST PUSH16 0x63AFBE7AB2082C000000000000000000 DUP6 SGT PUSH2 0x3785 JUMPI PUSH16 0x20000000000000000000000000000000 DUP5 SUB SWAP4 POP PUSH16 0x63AFBE7AB2082C000000000000000000 PUSH16 0x80000000000000000000000000000000 DUP7 MUL DUP2 PUSH2 0x3781 JUMPI INVALID JUMPDEST SDIV SWAP5 POP JUMPDEST PUSH16 0x70F5A893B608861E1F58934F97AEA57D DUP6 SGT PUSH2 0x37E0 JUMPI PUSH16 0x10000000000000000000000000000000 DUP5 SUB SWAP4 POP PUSH16 0x70F5A893B608861E1F58934F97AEA57D PUSH16 0x80000000000000000000000000000000 DUP7 MUL DUP2 PUSH2 0x37DC JUMPI INVALID JUMPDEST SDIV SWAP5 POP JUMPDEST PUSH16 0x80000000000000000000000000000000 DUP6 SUB SWAP3 POP DUP3 SWAP2 POP PUSH16 0x80000000000000000000000000000000 DUP4 DUP5 MUL DUP2 PUSH2 0x3813 JUMPI INVALID JUMPDEST SDIV SWAP1 POP PUSH17 0x100000000000000000000000000000000 DUP4 PUSH17 0x100000000000000000000000000000000 SUB DUP4 MUL DUP2 PUSH2 0x3845 JUMPI INVALID JUMPDEST SDIV DUP5 ADD SWAP4 POP PUSH16 0x80000000000000000000000000000000 DUP2 DUP4 MUL DUP2 PUSH2 0x3865 JUMPI INVALID JUMPDEST SDIV SWAP2 POP PUSH17 0x200000000000000000000000000000000 DUP4 PUSH16 0xAAAAAAAAAAAAAAAAAAAAAAAAAAAAAAAA SUB DUP4 MUL DUP2 PUSH2 0x3896 JUMPI INVALID JUMPDEST SDIV DUP5 ADD SWAP4 POP PUSH16 0x80000000000000000000000000000000 DUP2 DUP4 MUL DUP2 PUSH2 0x38B6 JUMPI INVALID JUMPDEST SDIV SWAP2 POP PUSH17 0x300000000000000000000000000000000 DUP4 PUSH16 0x99999999999999999999999999999999 SUB DUP4 MUL DUP2 PUSH2 0x38E7 JUMPI INVALID JUMPDEST SDIV DUP5 ADD SWAP4 POP PUSH16 0x80000000000000000000000000000000 DUP2 DUP4 MUL DUP2 PUSH2 0x3907 JUMPI INVALID JUMPDEST SDIV SWAP2 POP PUSH17 0x400000000000000000000000000000000 DUP4 PUSH16 0x92492492492492492492492492492492 SUB DUP4 MUL DUP2 PUSH2 0x3938 JUMPI INVALID JUMPDEST SDIV DUP5 ADD SWAP4 POP PUSH16 0x80000000000000000000000000000000 DUP2 DUP4 MUL DUP2 PUSH2 0x3958 JUMPI INVALID JUMPDEST SDIV SWAP2 POP PUSH17 0x500000000000000000000000000000000 DUP4 PUSH16 0x8E38E38E38E38E38E38E38E38E38E38E SUB DUP4 MUL DUP2 PUSH2 0x3989 JUMPI INVALID JUMPDEST SDIV DUP5 ADD SWAP4 POP PUSH16 0x80000000000000000000000000000000 DUP2 DUP4 MUL DUP2 PUSH2 0x39A9 JUMPI INVALID JUMPDEST SDIV SWAP2 POP PUSH17 0x600000000000000000000000000000000 DUP4 PUSH16 0x8BA2E8BA2E8BA2E8BA2E8BA2E8BA2E8B SUB DUP4 MUL DUP2 PUSH2 0x39DA JUMPI INVALID JUMPDEST SDIV DUP5 ADD SWAP4 POP PUSH16 0x80000000000000000000000000000000 DUP2 DUP4 MUL DUP2 PUSH2 0x39FA JUMPI INVALID JUMPDEST SDIV SWAP2 POP PUSH17 0x700000000000000000000000000000000 DUP4 PUSH16 0x89D89D89D89D89D89D89D89D89D89D89 SUB DUP4 MUL DUP2 PUSH2 0x3A2B JUMPI INVALID JUMPDEST SDIV DUP5 ADD SWAP4 POP PUSH16 0x80000000000000000000000000000000 DUP2 DUP4 MUL DUP2 PUSH2 0x3A4B JUMPI INVALID JUMPDEST SDIV SWAP2 POP PUSH17 0x800000000000000000000000000000000 DUP4 PUSH16 0x88888888888888888888888888888888 SUB DUP4 MUL DUP2 PUSH2 0x3A7C JUMPI INVALID JUMPDEST SDIV DUP5 ADD SWAP4 POP POP POP POP JUMPDEST SWAP2 SWAP1 POP JUMP JUMPDEST PUSH1 0x0 PUSH2 0x3A9F PUSH2 0x3A99 DUP6 DUP6 PUSH2 0x42F0 JUMP JUMPDEST DUP4 PUSH2 0x4355 JUMP JUMPDEST SWAP1 POP SWAP4 SWAP3 POP POP POP JUMP JUMPDEST PUSH1 0x0 PUSH17 0x1FF0000000000000000000000000000000 PUSH1 0x0 SUB DUP3 SLT ISZERO PUSH2 0x3ACF JUMPI PUSH1 0x0 SWAP1 POP PUSH2 0x4115 JUMP JUMPDEST PUSH1 0x0 DUP3 EQ ISZERO PUSH2 0x3AF0 JUMPI PUSH16 0x80000000000000000000000000000000 SWAP1 POP PUSH2 0x4115 JUMP JUMPDEST PUSH1 0x0 DUP3 SGT ISZERO PUSH2 0x3B0D JUMPI PUSH2 0x3B0C PUSH2 0x3B07 PUSH1 0x1 DUP5 PUSH2 0x43EE JUMP JUMPDEST PUSH2 0x16C2 JUMP JUMPDEST JUMPDEST PUSH1 0x0 DUP1 PUSH16 0x10000000000000000000000000000000 DUP5 DUP2 PUSH2 0x3B29 JUMPI INVALID JUMPDEST SMOD SWAP2 POP DUP2 SWAP1 POP PUSH16 0x80000000000000000000000000000000 DUP3 DUP3 MUL DUP2 PUSH2 0x3B4A JUMPI INVALID JUMPDEST SDIV SWAP1 POP PUSH8 0x10E1B3BE415A0000 DUP2 MUL DUP4 ADD SWAP3 POP PUSH16 0x80000000000000000000000000000000 DUP3 DUP3 MUL DUP2 PUSH2 0x3B77 JUMPI INVALID JUMPDEST SDIV SWAP1 POP PUSH8 0x5A0913F6B1E0000 DUP2 MUL DUP4 ADD SWAP3 POP PUSH16 0x80000000000000000000000000000000 DUP3 DUP3 MUL DUP2 PUSH2 0x3BA4 JUMPI INVALID JUMPDEST SDIV SWAP1 POP PUSH8 0x168244FDAC78000 DUP2 MUL DUP4 ADD SWAP3 POP PUSH16 0x80000000000000000000000000000000 DUP3 DUP3 MUL DUP2 PUSH2 0x3BD1 JUMPI INVALID JUMPDEST SDIV SWAP1 POP PUSH7 0x4807432BC18000 DUP2 MUL DUP4 ADD SWAP3 POP PUSH16 0x80000000000000000000000000000000 DUP3 DUP3 MUL DUP2 PUSH2 0x3BFD JUMPI INVALID JUMPDEST SDIV SWAP1 POP PUSH7 0xC0135DCA04000 DUP2 MUL DUP4 ADD SWAP3 POP PUSH16 0x80000000000000000000000000000000 DUP3 DUP3 MUL DUP2 PUSH2 0x3C29 JUMPI INVALID JUMPDEST SDIV SWAP1 POP PUSH7 0x1B707B1CDC000 DUP2 MUL DUP4 ADD SWAP3 POP PUSH16 0x80000000000000000000000000000000 DUP3 DUP3 MUL DUP2 PUSH2 0x3C55 JUMPI INVALID JUMPDEST SDIV SWAP1 POP PUSH6 0x36E0F639B800 DUP2 MUL DUP4 ADD SWAP3 POP PUSH16 0x80000000000000000000000000000000 DUP3 DUP3 MUL DUP2 PUSH2 0x3C80 JUMPI INVALID JUMPDEST SDIV SWAP1 POP PUSH6 0x618FEE9F800 DUP2 MUL DUP4 ADD SWAP3 POP PUSH16 0x80000000000000000000000000000000 DUP3 DUP3 MUL DUP2 PUSH2 0x3CAB JUMPI INVALID JUMPDEST SDIV SWAP1 POP PUSH5 0x9C197DCC00 DUP2 MUL DUP4 ADD SWAP3 POP PUSH16 0x80000000000000000000000000000000 DUP3 DUP3 MUL DUP2 PUSH2 0x3CD5 JUMPI INVALID JUMPDEST SDIV SWAP1 POP PUSH5 0xE30DCE400 DUP2 MUL DUP4 ADD SWAP3 POP PUSH16 0x80000000000000000000000000000000 DUP3 DUP3 MUL DUP2 PUSH2 0x3CFF JUMPI INVALID JUMPDEST SDIV SWAP1 POP PUSH5 0x12EBD1300 DUP2 MUL DUP4 ADD SWAP3 POP PUSH16 0x80000000000000000000000000000000 DUP3 DUP3 MUL DUP2 PUSH2 0x3D29 JUMPI INVALID JUMPDEST SDIV SWAP1 POP PUSH4 0x17499F00 DUP2 MUL DUP4 ADD SWAP3 POP PUSH16 0x80000000000000000000000000000000 DUP3 DUP3 MUL DUP2 PUSH2 0x3D52 JUMPI INVALID JUMPDEST SDIV SWAP1 POP PUSH4 0x1A9D480 DUP2 MUL DUP4 ADD SWAP3 POP PUSH16 0x80000000000000000000000000000000 DUP3 DUP3 MUL DUP2 PUSH2 0x3D7B JUMPI INVALID JUMPDEST SDIV SWAP1 POP PUSH3 0x1C6380 DUP2 MUL DUP4 ADD SWAP3 POP PUSH16 0x80000000000000000000000000000000 DUP3 DUP3 MUL DUP2 PUSH2 0x3DA3 JUMPI INVALID JUMPDEST SDIV SWAP1 POP PUSH3 0x1C638 DUP2 MUL DUP4 ADD SWAP3 POP PUSH16 0x80000000000000000000000000000000 DUP3 DUP3 MUL DUP2 PUSH2 0x3DCB JUMPI INVALID JUMPDEST SDIV SWAP1 POP PUSH2 0x1AB8 DUP2 MUL DUP4 ADD SWAP3 POP PUSH16 0x80000000000000000000000000000000 DUP3 DUP3 MUL DUP2 PUSH2 0x3DF2 JUMPI INVALID JUMPDEST SDIV SWAP1 POP PUSH2 0x17C DUP2 MUL DUP4 ADD SWAP3 POP PUSH16 0x80000000000000000000000000000000 DUP3 DUP3 MUL DUP2 PUSH2 0x3E19 JUMPI INVALID JUMPDEST SDIV SWAP1 POP PUSH1 0x14 DUP2 MUL DUP4 ADD SWAP3 POP PUSH16 0x80000000000000000000000000000000 DUP3 DUP3 MUL DUP2 PUSH2 0x3E3F JUMPI INVALID JUMPDEST SDIV SWAP1 POP PUSH1 0x1 DUP2 MUL DUP4 ADD SWAP3 POP PUSH16 0x80000000000000000000000000000000 DUP3 PUSH8 0x21C3677C82B40000 DUP6 DUP2 PUSH2 0x3E6D JUMPI INVALID JUMPDEST SDIV ADD ADD SWAP3 POP DUP4 PUSH1 0x0 SUB SWAP4 POP PUSH1 0x0 PUSH17 0x1000000000000000000000000000000000 DUP6 AND EQ PUSH2 0x3EC2 JUMPI PUSH19 0x43CBAF42A000812488FC5C220AD7B97BF6E99E PUSH13 0xF1AADDD7742E56D32FB9F99744 DUP5 MUL DUP2 PUSH2 0x3EBE JUMPI INVALID JUMPDEST SDIV SWAP3 POP JUMPDEST PUSH1 0x0 PUSH17 0x800000000000000000000000000000000 DUP6 AND EQ PUSH2 0x3F0D JUMPI PUSH18 0x5D27A9F51C31B7C2F8038212A0574779991 PUSH15 0xAFE10820813D65DFE6A33C07F738F DUP5 MUL DUP2 PUSH2 0x3F09 JUMPI INVALID JUMPDEST SDIV SWAP3 POP JUMPDEST PUSH1 0x0 PUSH17 0x400000000000000000000000000000000 DUP6 AND EQ PUSH2 0x3F58 JUMPI PUSH17 0x1B4C902E273A58678D6D3BFDB93DB96D02 PUSH16 0x2582AB704279E8EFD15E0265855C47A DUP5 MUL DUP2 PUSH2 0x3F54 JUMPI INVALID JUMPDEST SDIV SWAP3 POP JUMPDEST PUSH1 0x0 PUSH17 0x200000000000000000000000000000000 DUP6 AND EQ PUSH2 0x3FA3 JUMPI PUSH17 0x3B1CC971A9BB5B9867477440D6D157750 PUSH16 0x1152AAA3BF81CB9FDB76EAE12D029571 DUP5 MUL DUP2 PUSH2 0x3F9F JUMPI INVALID JUMPDEST SDIV SWAP3 POP JUMPDEST PUSH1 0x0 PUSH17 0x100000000000000000000000000000000 DUP6 AND EQ PUSH2 0x3FEE JUMPI PUSH17 0x15BF0A8B1457695355FB8AC404E7A79E3 PUSH16 0x2F16AC6C59DE6F8D5D6F63C1482A7C86 DUP5 MUL DUP2 PUSH2 0x3FEA JUMPI INVALID JUMPDEST SDIV SWAP3 POP JUMPDEST PUSH1 0x0 PUSH16 0x80000000000000000000000000000000 DUP6 AND EQ PUSH2 0x4037 JUMPI PUSH16 0xD3094C70F034DE4B96FF7D5B6F99FCD8 PUSH16 0x4DA2CBF1BE5827F9EB3AD1AA9866EBB3 DUP5 MUL DUP2 PUSH2 0x4033 JUMPI INVALID JUMPDEST SDIV SWAP3 POP JUMPDEST PUSH1 0x0 PUSH16 0x40000000000000000000000000000000 DUP6 AND EQ PUSH2 0x4080 JUMPI PUSH16 0xA45AF1E1F40C333B3DE1DB4DD55F29A7 PUSH16 0x63AFBE7AB2082BA1A0AE5E4EB1B479DC DUP5 MUL DUP2 PUSH2 0x407C JUMPI INVALID JUMPDEST SDIV SWAP3 POP JUMPDEST PUSH1 0x0 PUSH16 0x20000000000000000000000000000000 DUP6 AND EQ PUSH2 0x40C9 JUMPI PUSH16 0x910B022DB7AE67CE76B441C27035C6A1 PUSH16 0x70F5A893B608861E1F58934F97AEA57D DUP5 MUL DUP2 PUSH2 0x40C5 JUMPI INVALID JUMPDEST SDIV SWAP3 POP JUMPDEST PUSH1 0x0 PUSH16 0x10000000000000000000000000000000 DUP6 AND EQ PUSH2 0x4112 JUMPI PUSH16 0x88415ABBE9A76BEAD8D00CF112E4D4A8 PUSH16 0x783EAFEF1C0A8F3978C7F81824D62EBF DUP5 MUL DUP2 PUSH2 0x410E JUMPI INVALID JUMPDEST SDIV SWAP3 POP JUMPDEST POP POP JUMPDEST SWAP2 SWAP1 POP JUMP JUMPDEST PUSH1 0x0 PUSH16 0x80000000000000000000000000000000 PUSH2 0x4137 DUP5 DUP5 PUSH2 0x42F0 JUMP JUMPDEST DUP2 PUSH2 0x413E JUMPI INVALID JUMPDEST SDIV SWAP1 POP SWAP3 SWAP2 POP POP JUMP JUMPDEST PUSH1 0x0 DUP1 DUP3 SLT ISZERO PUSH2 0x4165 JUMPI PUSH2 0x4164 PUSH2 0x415F PUSH1 0x1 DUP5 PUSH2 0x4263 JUMP JUMPDEST PUSH2 0x16C2 JUMP JUMPDEST JUMPDEST PUSH1 0x0 PUSH2 0x4171 DUP5 DUP5 PUSH2 0x42F0 JUMP JUMPDEST SWAP1 POP PUSH1 0x0 DUP2 SGT PUSH2 0x4185 JUMPI PUSH1 0x0 SWAP2 POP POP PUSH2 0x418E JUMP JUMPDEST PUSH1 0x7F DUP2 SWAP1 SHR SWAP2 POP POP JUMPDEST SWAP3 SWAP2 POP POP JUMP JUMPDEST PUSH1 0x0 DUP1 DUP3 PUSH1 0x20 ADD MLOAD EQ ISZERO SWAP1 POP SWAP2 SWAP1 POP JUMP JUMPDEST PUSH1 0x0 DUP1 PUSH1 0x0 DUP7 EQ ISZERO PUSH2 0x41C2 JUMPI DUP4 SWAP2 POP DUP2 DUP4 SWAP2 POP DUP2 SWAP2 POP SWAP2 POP PUSH2 0x4231 JUMP JUMPDEST PUSH1 0x0 DUP5 EQ ISZERO PUSH2 0x41DC JUMPI DUP6 SWAP2 POP DUP2 DUP6 SWAP2 POP DUP2 SWAP2 POP SWAP2 POP PUSH2 0x4231 JUMP JUMPDEST PUSH2 0x4213 PUSH2 0x41F2 DUP7 DUP7 PUSH2 0x3094 SWAP1 SWAP2 SWAP1 PUSH4 0xFFFFFFFF AND JUMP JUMPDEST PUSH2 0x4205 DUP6 DUP10 PUSH2 0x3094 SWAP1 SWAP2 SWAP1 PUSH4 0xFFFFFFFF AND JUMP JUMPDEST PUSH2 0x1EEC SWAP1 SWAP2 SWAP1 PUSH4 0xFFFFFFFF AND JUMP JUMPDEST SWAP2 POP PUSH2 0x4228 DUP4 DUP7 PUSH2 0x3094 SWAP1 SWAP2 SWAP1 PUSH4 0xFFFFFFFF AND JUMP JUMPDEST SWAP1 POP DUP2 DUP2 SWAP2 POP SWAP2 POP JUMPDEST SWAP5 POP SWAP5 SWAP3 POP POP POP JUMP JUMPDEST PUSH1 0x0 DUP1 PUSH2 0x4258 DUP5 DUP5 PUSH16 0x80000000000000000000000000000000 PUSH2 0x447B JUMP JUMPDEST SWAP2 POP SWAP2 POP SWAP3 POP SWAP3 SWAP1 POP JUMP JUMPDEST PUSH1 0x60 PUSH4 0xBD79545F PUSH1 0xE0 SHL DUP4 PUSH1 0x1 DUP2 GT ISZERO PUSH2 0x4279 JUMPI INVALID JUMPDEST DUP4 PUSH1 0x40 MLOAD PUSH1 0x24 ADD PUSH2 0x428B SWAP3 SWAP2 SWAP1 PUSH2 0x4F15 JUMP JUMPDEST PUSH1 0x40 MLOAD PUSH1 0x20 DUP2 DUP4 SUB SUB DUP2 MSTORE SWAP1 PUSH1 0x40 MSTORE SWAP1 PUSH28 0xFFFFFFFFFFFFFFFFFFFFFFFFFFFFFFFFFFFFFFFFFFFFFFFFFFFFFFFF NOT AND PUSH1 0x20 DUP3 ADD DUP1 MLOAD PUSH28 0xFFFFFFFFFFFFFFFFFFFFFFFFFFFFFFFFFFFFFFFFFFFFFFFFFFFFFFFF DUP4 DUP2 DUP4 AND OR DUP4 MSTORE POP POP POP POP SWAP1 POP SWAP3 SWAP2 POP POP JUMP JUMPDEST PUSH1 0x0 DUP1 DUP4 EQ DUP1 PUSH2 0x4300 JUMPI POP PUSH1 0x0 DUP3 EQ JUMPDEST ISZERO PUSH2 0x430E JUMPI PUSH1 0x0 SWAP1 POP PUSH2 0x434F JUMP JUMPDEST DUP2 DUP4 MUL SWAP1 POP DUP2 DUP4 DUP3 DUP2 PUSH2 0x431D JUMPI INVALID JUMPDEST SDIV EQ ISZERO DUP1 PUSH2 0x4334 JUMPI POP DUP3 DUP3 DUP3 DUP2 PUSH2 0x4330 JUMPI INVALID JUMPDEST SDIV EQ ISZERO JUMPDEST ISZERO PUSH2 0x434E JUMPI PUSH2 0x434D PUSH2 0x4348 PUSH1 0x1 DUP6 DUP6 PUSH2 0x44FE JUMP JUMPDEST PUSH2 0x16C2 JUMP JUMPDEST JUMPDEST JUMPDEST SWAP3 SWAP2 POP POP JUMP JUMPDEST PUSH1 0x0 DUP1 DUP3 EQ ISZERO PUSH2 0x4374 JUMPI PUSH2 0x4373 PUSH2 0x436E PUSH1 0x2 DUP6 DUP6 PUSH2 0x44FE JUMP JUMPDEST PUSH2 0x16C2 JUMP JUMPDEST JUMPDEST PUSH32 0x8000000000000000000000000000000000000000000000000000000000000000 DUP4 EQ DUP1 ISZERO PUSH2 0x43C2 JUMPI POP PUSH32 0xFFFFFFFFFFFFFFFFFFFFFFFFFFFFFFFFFFFFFFFFFFFFFFFFFFFFFFFFFFFFFFFF DUP3 EQ JUMPDEST ISZERO PUSH2 0x43DC JUMPI PUSH2 0x43DB PUSH2 0x43D6 PUSH1 0x3 DUP6 DUP6 PUSH2 0x44FE JUMP JUMPDEST PUSH2 0x16C2 JUMP JUMPDEST JUMPDEST DUP2 DUP4 DUP2 PUSH2 0x43E5 JUMPI INVALID JUMPDEST SDIV SWAP1 POP SWAP3 SWAP2 POP POP JUMP JUMPDEST PUSH1 0x60 PUSH4 0xED2F26A1 PUSH1 0xE0 SHL DUP4 PUSH1 0x1 DUP2 GT ISZERO PUSH2 0x4404 JUMPI INVALID JUMPDEST DUP4 PUSH1 0x40 MLOAD PUSH1 0x24 ADD PUSH2 0x4416 SWAP3 SWAP2 SWAP1 PUSH2 0x4EB5 JUMP JUMPDEST PUSH1 0x40 MLOAD PUSH1 0x20 DUP2 DUP4 SUB SUB DUP2 MSTORE SWAP1 PUSH1 0x40 MSTORE SWAP1 PUSH28 0xFFFFFFFFFFFFFFFFFFFFFFFFFFFFFFFFFFFFFFFFFFFFFFFFFFFFFFFF NOT AND PUSH1 0x20 DUP3 ADD DUP1 MLOAD PUSH28 0xFFFFFFFFFFFFFFFFFFFFFFFFFFFFFFFFFFFFFFFFFFFFFFFFFFFFFFFF DUP4 DUP2 DUP4 AND OR DUP4 MSTORE POP POP POP POP SWAP1 POP SWAP3 SWAP2 POP POP JUMP JUMPDEST PUSH1 0x0 DUP1 DUP3 DUP6 GT DUP1 PUSH2 0x448B JUMPI POP DUP3 DUP5 GT JUMPDEST ISZERO PUSH2 0x44E9 JUMPI PUSH1 0x0 DUP5 DUP7 LT ISZERO PUSH2 0x44A0 JUMPI DUP5 PUSH2 0x44A2 JUMP JUMPDEST DUP6 JUMPDEST SWAP1 POP PUSH2 0x44B7 DUP5 DUP3 PUSH2 0x30DE SWAP1 SWAP2 SWAP1 PUSH4 0xFFFFFFFF AND JUMP JUMPDEST SWAP1 POP PUSH2 0x44CC DUP2 DUP8 PUSH2 0x30DE SWAP1 SWAP2 SWAP1 PUSH4 0xFFFFFFFF AND JUMP JUMPDEST SWAP3 POP PUSH2 0x44E1 DUP2 DUP7 PUSH2 0x30DE SWAP1 SWAP2 SWAP1 PUSH4 0xFFFFFFFF AND JUMP JUMPDEST SWAP2 POP POP PUSH2 0x44F0 JUMP JUMPDEST DUP5 SWAP2 POP DUP4 SWAP1 POP JUMPDEST DUP2 DUP2 SWAP2 POP SWAP2 POP SWAP4 POP SWAP4 SWAP2 POP POP JUMP JUMPDEST PUSH1 0x60 PUSH4 0x8C12DFE7 PUSH1 0xE0 SHL DUP5 PUSH1 0x3 DUP2 GT ISZERO PUSH2 0x4514 JUMPI INVALID JUMPDEST DUP5 DUP5 PUSH1 0x40 MLOAD PUSH1 0x24 ADD PUSH2 0x4528 SWAP4 SWAP3 SWAP2 SWAP1 PUSH2 0x4EDE JUMP JUMPDEST PUSH1 0x40 MLOAD PUSH1 0x20 DUP2 DUP4 SUB SUB DUP2 MSTORE SWAP1 PUSH1 0x40 MSTORE SWAP1 PUSH28 0xFFFFFFFFFFFFFFFFFFFFFFFFFFFFFFFFFFFFFFFFFFFFFFFFFFFFFFFF NOT AND PUSH1 0x20 DUP3 ADD DUP1 MLOAD PUSH28 0xFFFFFFFFFFFFFFFFFFFFFFFFFFFFFFFFFFFFFFFFFFFFFFFFFFFFFFFF DUP4 DUP2 DUP4 AND OR DUP4 MSTORE POP POP POP POP SWAP1 POP SWAP4 SWAP3 POP POP POP JUMP JUMPDEST PUSH1 0x40 MLOAD DUP1 PUSH1 0xA0 ADD PUSH1 0x40 MSTORE DUP1 PUSH1 0x0 DUP2 MSTORE PUSH1 0x20 ADD PUSH1 0x0 DUP2 MSTORE PUSH1 0x20 ADD PUSH1 0x0 DUP2 MSTORE PUSH1 0x20 ADD PUSH1 0x0 DUP2 MSTORE PUSH1 0x20 ADD PUSH1 0x0 DUP2 MSTORE POP SWAP1 JUMP JUMPDEST PUSH1 0x40 MLOAD DUP1 PUSH1 0x60 ADD PUSH1 0x40 MSTORE DUP1 PUSH1 0x0 PUSH8 0xFFFFFFFFFFFFFFFF AND DUP2 MSTORE PUSH1 0x20 ADD PUSH1 0x0 PUSH12 0xFFFFFFFFFFFFFFFFFFFFFFFF AND DUP2 MSTORE PUSH1 0x20 ADD PUSH1 0x0 PUSH12 0xFFFFFFFFFFFFFFFFFFFFFFFF AND DUP2 MSTORE POP SWAP1 JUMP JUMPDEST PUSH1 0x40 MLOAD DUP1 PUSH1 0x40 ADD PUSH1 0x40 MSTORE DUP1 PUSH1 0x0 PUSH20 0xFFFFFFFFFFFFFFFFFFFFFFFFFFFFFFFFFFFFFFFF AND DUP2 MSTORE PUSH1 0x20 ADD PUSH1 0x0 PUSH4 0xFFFFFFFF AND DUP2 MSTORE POP SWAP1 JUMP JUMPDEST PUSH1 0x40 MLOAD DUP1 PUSH1 0x60 ADD PUSH1 0x40 MSTORE DUP1 PUSH1 0x0 DUP2 MSTORE PUSH1 0x20 ADD PUSH1 0x0 DUP2 MSTORE PUSH1 0x20 ADD PUSH1 0x0 DUP2 MSTORE POP SWAP1 JUMP JUMPDEST DUP2 SLOAD DUP2 DUP4 SSTORE DUP2 DUP2 GT ISZERO PUSH2 0x4682 JUMPI DUP2 DUP4 PUSH1 0x0 MSTORE PUSH1 0x20 PUSH1 0x0 KECCAK256 SWAP2 DUP3 ADD SWAP2 ADD PUSH2 0x4681 SWAP2 SWAP1 PUSH2 0x46A1 JUMP JUMPDEST JUMPDEST POP POP POP JUMP JUMPDEST PUSH1 0x40 MLOAD DUP1 PUSH1 0x40 ADD PUSH1 0x40 MSTORE DUP1 PUSH1 0x0 DUP2 MSTORE PUSH1 0x20 ADD PUSH1 0x0 DUP2 MSTORE POP SWAP1 JUMP JUMPDEST PUSH2 0x46C3 SWAP2 SWAP1 JUMPDEST DUP1 DUP3 GT ISZERO PUSH2 0x46BF JUMPI PUSH1 0x0 DUP2 PUSH1 0x0 SWAP1 SSTORE POP PUSH1 0x1 ADD PUSH2 0x46A7 JUMP JUMPDEST POP SWAP1 JUMP JUMPDEST SWAP1 JUMP JUMPDEST PUSH1 0x0 DUP2 CALLDATALOAD SWAP1 POP PUSH2 0x46D5 DUP2 PUSH2 0x50EB JUMP JUMPDEST SWAP3 SWAP2 POP POP JUMP JUMPDEST PUSH1 0x0 DUP2 MLOAD SWAP1 POP PUSH2 0x46EA DUP2 PUSH2 0x5102 JUMP JUMPDEST SWAP3 SWAP2 POP POP JUMP JUMPDEST PUSH1 0x0 DUP2 CALLDATALOAD SWAP1 POP PUSH2 0x46FF DUP2 PUSH2 0x5119 JUMP JUMPDEST SWAP3 SWAP2 POP POP JUMP JUMPDEST PUSH1 0x0 DUP2 CALLDATALOAD SWAP1 POP PUSH2 0x4714 DUP2 PUSH2 0x5130 JUMP JUMPDEST SWAP3 SWAP2 POP POP JUMP JUMPDEST PUSH1 0x0 DUP2 CALLDATALOAD SWAP1 POP PUSH2 0x4729 DUP2 PUSH2 0x5140 JUMP JUMPDEST SWAP3 SWAP2 POP POP JUMP JUMPDEST PUSH1 0x0 DUP2 MLOAD SWAP1 POP PUSH2 0x473E DUP2 PUSH2 0x5140 JUMP JUMPDEST SWAP3 SWAP2 POP POP JUMP JUMPDEST PUSH1 0x0 PUSH1 0x20 DUP3 DUP5 SUB SLT ISZERO PUSH2 0x4756 JUMPI PUSH1 0x0 DUP1 REVERT JUMPDEST PUSH1 0x0 PUSH2 0x4764 DUP5 DUP3 DUP6 ADD PUSH2 0x46C6 JUMP JUMPDEST SWAP2 POP POP SWAP3 SWAP2 POP POP JUMP JUMPDEST PUSH1 0x0 DUP1 PUSH1 0x40 DUP4 DUP6 SUB SLT ISZERO PUSH2 0x4780 JUMPI PUSH1 0x0 DUP1 REVERT JUMPDEST PUSH1 0x0 PUSH2 0x478E DUP6 DUP3 DUP7 ADD PUSH2 0x46C6 JUMP JUMPDEST SWAP3 POP POP PUSH1 0x20 PUSH2 0x479F DUP6 DUP3 DUP7 ADD PUSH2 0x46F0 JUMP JUMPDEST SWAP2 POP POP SWAP3 POP SWAP3 SWAP1 POP JUMP JUMPDEST PUSH1 0x0 DUP1 PUSH1 0x40 DUP4 DUP6 SUB SLT ISZERO PUSH2 0x47BC JUMPI PUSH1 0x0 DUP1 REVERT JUMPDEST PUSH1 0x0 PUSH2 0x47CA DUP6 DUP3 DUP7 ADD PUSH2 0x46C6 JUMP JUMPDEST SWAP3 POP POP PUSH1 0x20 PUSH2 0x47DB DUP6 DUP3 DUP7 ADD PUSH2 0x4705 JUMP JUMPDEST SWAP2 POP POP SWAP3 POP SWAP3 SWAP1 POP JUMP JUMPDEST PUSH1 0x0 DUP1 PUSH1 0x40 DUP4 DUP6 SUB SLT ISZERO PUSH2 0x47F8 JUMPI PUSH1 0x0 DUP1 REVERT JUMPDEST PUSH1 0x0 PUSH2 0x4806 DUP6 DUP3 DUP7 ADD PUSH2 0x46C6 JUMP JUMPDEST SWAP3 POP POP PUSH1 0x20 PUSH2 0x4817 DUP6 DUP3 DUP7 ADD PUSH2 0x471A JUMP JUMPDEST SWAP2 POP POP SWAP3 POP SWAP3 SWAP1 POP JUMP JUMPDEST PUSH1 0x0 PUSH1 0x20 DUP3 DUP5 SUB SLT ISZERO PUSH2 0x4833 JUMPI PUSH1 0x0 DUP1 REVERT JUMPDEST PUSH1 0x0 PUSH2 0x4841 DUP5 DUP3 DUP6 ADD PUSH2 0x46DB JUMP JUMPDEST SWAP2 POP POP SWAP3 SWAP2 POP POP JUMP JUMPDEST PUSH1 0x0 PUSH1 0x20 DUP3 DUP5 SUB SLT ISZERO PUSH2 0x485C JUMPI PUSH1 0x0 DUP1 REVERT JUMPDEST PUSH1 0x0 PUSH2 0x486A DUP5 DUP3 DUP6 ADD PUSH2 0x46F0 JUMP JUMPDEST SWAP2 POP POP SWAP3 SWAP2 POP POP JUMP JUMPDEST PUSH1 0x0 DUP1 PUSH1 0x40 DUP4 DUP6 SUB SLT ISZERO PUSH2 0x4886 JUMPI PUSH1 0x0 DUP1 REVERT JUMPDEST PUSH1 0x0 PUSH2 0x4894 DUP6 DUP3 DUP7 ADD PUSH2 0x46F0 JUMP JUMPDEST SWAP3 POP POP PUSH1 0x20 PUSH2 0x48A5 DUP6 DUP3 DUP7 ADD PUSH2 0x46C6 JUMP JUMPDEST SWAP2 POP POP SWAP3 POP SWAP3 SWAP1 POP JUMP JUMPDEST PUSH1 0x0 DUP1 PUSH1 0x40 DUP4 DUP6 SUB SLT ISZERO PUSH2 0x48C2 JUMPI PUSH1 0x0 DUP1 REVERT JUMPDEST PUSH1 0x0 PUSH2 0x48D0 DUP6 DUP3 DUP7 ADD PUSH2 0x46F0 JUMP JUMPDEST SWAP3 POP POP PUSH1 0x20 PUSH2 0x48E1 DUP6 DUP3 DUP7 ADD PUSH2 0x471A JUMP JUMPDEST SWAP2 POP POP SWAP3 POP SWAP3 SWAP1 POP JUMP JUMPDEST PUSH1 0x0 PUSH1 0x20 DUP3 DUP5 SUB SLT ISZERO PUSH2 0x48FD JUMPI PUSH1 0x0 DUP1 REVERT JUMPDEST PUSH1 0x0 PUSH2 0x490B DUP5 DUP3 DUP6 ADD PUSH2 0x4705 JUMP JUMPDEST SWAP2 POP POP SWAP3 SWAP2 POP POP JUMP JUMPDEST PUSH1 0x0 PUSH1 0x20 DUP3 DUP5 SUB SLT ISZERO PUSH2 0x4926 JUMPI PUSH1 0x0 DUP1 REVERT JUMPDEST PUSH1 0x0 PUSH2 0x4934 DUP5 DUP3 DUP6 ADD PUSH2 0x471A JUMP JUMPDEST SWAP2 POP POP SWAP3 SWAP2 POP POP JUMP JUMPDEST PUSH1 0x0 PUSH1 0x20 DUP3 DUP5 SUB SLT ISZERO PUSH2 0x494F JUMPI PUSH1 0x0 DUP1 REVERT JUMPDEST PUSH1 0x0 PUSH2 0x495D DUP5 DUP3 DUP6 ADD PUSH2 0x472F JUMP JUMPDEST SWAP2 POP POP SWAP3 SWAP2 POP POP JUMP JUMPDEST PUSH1 0x0 PUSH2 0x4972 DUP4 DUP4 PUSH2 0x497E JUMP JUMPDEST PUSH1 0x20 DUP4 ADD SWAP1 POP SWAP3 SWAP2 POP POP JUMP JUMPDEST PUSH2 0x4987 DUP2 PUSH2 0x4F88 JUMP JUMPDEST DUP3 MSTORE POP POP JUMP JUMPDEST PUSH2 0x4996 DUP2 PUSH2 0x4F88 JUMP JUMPDEST DUP3 MSTORE POP POP JUMP JUMPDEST PUSH1 0x0 PUSH2 0x49A7 DUP3 PUSH2 0x4F4E JUMP JUMPDEST PUSH2 0x49B1 DUP2 DUP6 PUSH2 0x4F66 JUMP JUMPDEST SWAP4 POP PUSH2 0x49BC DUP4 PUSH2 0x4F3E JUMP JUMPDEST DUP1 PUSH1 0x0 JUMPDEST DUP4 DUP2 LT ISZERO PUSH2 0x49ED JUMPI DUP2 MLOAD PUSH2 0x49D4 DUP9 DUP3 PUSH2 0x4966 JUMP JUMPDEST SWAP8 POP PUSH2 0x49DF DUP4 PUSH2 0x4F59 JUMP JUMPDEST SWAP3 POP POP PUSH1 0x1 DUP2 ADD SWAP1 POP PUSH2 0x49C0 JUMP JUMPDEST POP DUP6 SWAP4 POP POP POP POP SWAP3 SWAP2 POP POP JUMP JUMPDEST PUSH2 0x4A03 DUP2 PUSH2 0x4F9A JUMP JUMPDEST DUP3 MSTORE POP POP JUMP JUMPDEST PUSH2 0x4A12 DUP2 PUSH2 0x4FA6 JUMP JUMPDEST DUP3 MSTORE POP POP JUMP JUMPDEST PUSH2 0x4A21 DUP2 PUSH2 0x5053 JUMP JUMPDEST DUP3 MSTORE POP POP JUMP JUMPDEST PUSH2 0x4A30 DUP2 PUSH2 0x5077 JUMP JUMPDEST DUP3 MSTORE POP POP JUMP JUMPDEST PUSH2 0x4A3F DUP2 PUSH2 0x509B JUMP JUMPDEST DUP3 MSTORE POP POP JUMP JUMPDEST PUSH2 0x4A4E DUP2 PUSH2 0x50AD JUMP JUMPDEST DUP3 MSTORE POP POP JUMP JUMPDEST PUSH2 0x4A5D DUP2 PUSH2 0x4FD6 JUMP JUMPDEST DUP3 MSTORE POP POP JUMP JUMPDEST PUSH2 0x4A6C DUP2 PUSH2 0x50BF JUMP JUMPDEST DUP3 MSTORE POP POP JUMP JUMPDEST PUSH1 0x0 PUSH2 0x4A7F PUSH1 0x1E DUP4 PUSH2 0x4F77 JUMP JUMPDEST SWAP2 POP PUSH32 0x43414C4C45525F49535F534D4152545F434F4E54524143545F4552524F520000 PUSH1 0x0 DUP4 ADD MSTORE PUSH1 0x20 DUP3 ADD SWAP1 POP SWAP2 SWAP1 POP JUMP JUMPDEST PUSH1 0x0 PUSH2 0x4ABF PUSH1 0x13 DUP4 PUSH2 0x4F77 JUMP JUMPDEST SWAP2 POP PUSH32 0x43525F494E54455256414C5F494E56414C494400000000000000000000000000 PUSH1 0x0 DUP4 ADD MSTORE PUSH1 0x20 DUP3 ADD SWAP1 POP SWAP2 SWAP1 POP JUMP JUMPDEST PUSH1 0x60 DUP3 ADD PUSH1 0x0 DUP3 ADD MLOAD PUSH2 0x4B08 PUSH1 0x0 DUP6 ADD DUP3 PUSH2 0x4B52 JUMP JUMPDEST POP PUSH1 0x20 DUP3 ADD MLOAD PUSH2 0x4B1B PUSH1 0x20 DUP6 ADD DUP3 PUSH2 0x4B70 JUMP JUMPDEST POP PUSH1 0x40 DUP3 ADD MLOAD PUSH2 0x4B2E PUSH1 0x40 DUP6 ADD DUP3 PUSH2 0x4B70 JUMP JUMPDEST POP POP POP POP JUMP JUMPDEST PUSH2 0x4B3D DUP2 PUSH2 0x5000 JUMP JUMPDEST DUP3 MSTORE POP POP JUMP JUMPDEST PUSH2 0x4B4C DUP2 PUSH2 0x500A JUMP JUMPDEST DUP3 MSTORE POP POP JUMP JUMPDEST PUSH2 0x4B5B DUP2 PUSH2 0x501A JUMP JUMPDEST DUP3 MSTORE POP POP JUMP JUMPDEST PUSH2 0x4B6A DUP2 PUSH2 0x502E JUMP JUMPDEST DUP3 MSTORE POP POP JUMP JUMPDEST PUSH2 0x4B79 DUP2 PUSH2 0x503B JUMP JUMPDEST DUP3 MSTORE POP POP JUMP JUMPDEST PUSH1 0x0 PUSH1 0x20 DUP3 ADD SWAP1 POP PUSH2 0x4B94 PUSH1 0x0 DUP4 ADD DUP5 PUSH2 0x498D JUMP JUMPDEST SWAP3 SWAP2 POP POP JUMP JUMPDEST PUSH1 0x0 PUSH1 0x40 DUP3 ADD SWAP1 POP PUSH2 0x4BAF PUSH1 0x0 DUP4 ADD DUP6 PUSH2 0x498D JUMP JUMPDEST PUSH2 0x4BBC PUSH1 0x20 DUP4 ADD DUP5 PUSH2 0x498D JUMP JUMPDEST SWAP4 SWAP3 POP POP POP JUMP JUMPDEST PUSH1 0x0 PUSH1 0x40 DUP3 ADD SWAP1 POP PUSH2 0x4BD8 PUSH1 0x0 DUP4 ADD DUP6 PUSH2 0x498D JUMP JUMPDEST PUSH2 0x4BE5 PUSH1 0x20 DUP4 ADD DUP5 PUSH2 0x4B34 JUMP JUMPDEST SWAP4 SWAP3 POP POP POP JUMP JUMPDEST PUSH1 0x0 PUSH1 0x20 DUP3 ADD SWAP1 POP DUP2 DUP2 SUB PUSH1 0x0 DUP4 ADD MSTORE PUSH2 0x4C06 DUP2 DUP5 PUSH2 0x499C JUMP JUMPDEST SWAP1 POP SWAP3 SWAP2 POP POP JUMP JUMPDEST PUSH1 0x0 PUSH1 0x20 DUP3 ADD SWAP1 POP PUSH2 0x4C23 PUSH1 0x0 DUP4 ADD DUP5 PUSH2 0x49FA JUMP JUMPDEST SWAP3 SWAP2 POP POP JUMP JUMPDEST PUSH1 0x0 PUSH1 0x20 DUP3 ADD SWAP1 POP PUSH2 0x4C3E PUSH1 0x0 DUP4 ADD DUP5 PUSH2 0x4A09 JUMP JUMPDEST SWAP3 SWAP2 POP POP JUMP JUMPDEST PUSH1 0x0 PUSH1 0x40 DUP3 ADD SWAP1 POP PUSH2 0x4C59 PUSH1 0x0 DUP4 ADD DUP6 PUSH2 0x4A09 JUMP JUMPDEST PUSH2 0x4C66 PUSH1 0x20 DUP4 ADD DUP5 PUSH2 0x4B34 JUMP JUMPDEST SWAP4 SWAP3 POP POP POP JUMP JUMPDEST PUSH1 0x0 PUSH1 0x20 DUP3 ADD SWAP1 POP PUSH2 0x4C82 PUSH1 0x0 DUP4 ADD DUP5 PUSH2 0x4A18 JUMP JUMPDEST SWAP3 SWAP2 POP POP JUMP JUMPDEST PUSH1 0x0 PUSH1 0x20 DUP3 ADD SWAP1 POP PUSH2 0x4C9D PUSH1 0x0 DUP4 ADD DUP5 PUSH2 0x4A27 JUMP JUMPDEST SWAP3 SWAP2 POP POP JUMP JUMPDEST PUSH1 0x0 PUSH1 0x60 DUP3 ADD SWAP1 POP PUSH2 0x4CB8 PUSH1 0x0 DUP4 ADD DUP7 PUSH2 0x4A36 JUMP JUMPDEST PUSH2 0x4CC5 PUSH1 0x20 DUP4 ADD DUP6 PUSH2 0x4B34 JUMP JUMPDEST PUSH2 0x4CD2 PUSH1 0x40 DUP4 ADD DUP5 PUSH2 0x4B34 JUMP JUMPDEST SWAP5 SWAP4 POP POP POP POP JUMP JUMPDEST PUSH1 0x0 PUSH1 0x40 DUP3 ADD SWAP1 POP PUSH2 0x4CEF PUSH1 0x0 DUP4 ADD DUP6 PUSH2 0x4A45 JUMP JUMPDEST PUSH2 0x4CFC PUSH1 0x20 DUP4 ADD DUP5 PUSH2 0x4B34 JUMP JUMPDEST SWAP4 SWAP3 POP POP POP JUMP JUMPDEST PUSH1 0x0 PUSH1 0x40 DUP3 ADD SWAP1 POP PUSH2 0x4D18 PUSH1 0x0 DUP4 ADD DUP6 PUSH2 0x4A63 JUMP JUMPDEST PUSH2 0x4D25 PUSH1 0x20 DUP4 ADD DUP5 PUSH2 0x4B34 JUMP JUMPDEST SWAP4 SWAP3 POP POP POP JUMP JUMPDEST PUSH1 0x0 PUSH1 0x20 DUP3 ADD SWAP1 POP DUP2 DUP2 SUB PUSH1 0x0 DUP4 ADD MSTORE PUSH2 0x4D45 DUP2 PUSH2 0x4A72 JUMP JUMPDEST SWAP1 POP SWAP2 SWAP1 POP JUMP JUMPDEST PUSH1 0x0 PUSH1 0x20 DUP3 ADD SWAP1 POP DUP2 DUP2 SUB PUSH1 0x0 DUP4 ADD MSTORE PUSH2 0x4D65 DUP2 PUSH2 0x4AB2 JUMP JUMPDEST SWAP1 POP SWAP2 SWAP1 POP JUMP JUMPDEST PUSH1 0x0 PUSH1 0x60 DUP3 ADD SWAP1 POP PUSH2 0x4D81 PUSH1 0x0 DUP4 ADD DUP5 PUSH2 0x4AF2 JUMP JUMPDEST SWAP3 SWAP2 POP POP JUMP JUMPDEST PUSH1 0x0 PUSH1 0x20 DUP3 ADD SWAP1 POP PUSH2 0x4D9C PUSH1 0x0 DUP4 ADD DUP5 PUSH2 0x4B34 JUMP JUMPDEST SWAP3 SWAP2 POP POP JUMP JUMPDEST PUSH1 0x0 PUSH1 0x40 DUP3 ADD SWAP1 POP PUSH2 0x4DB7 PUSH1 0x0 DUP4 ADD DUP6 PUSH2 0x4B34 JUMP JUMPDEST PUSH2 0x4DC4 PUSH1 0x20 DUP4 ADD DUP5 PUSH2 0x4B34 JUMP JUMPDEST SWAP4 SWAP3 POP POP POP JUMP JUMPDEST PUSH1 0x0 PUSH1 0x60 DUP3 ADD SWAP1 POP PUSH2 0x4DE0 PUSH1 0x0 DUP4 ADD DUP7 PUSH2 0x4B34 JUMP JUMPDEST PUSH2 0x4DED PUSH1 0x20 DUP4 ADD DUP6 PUSH2 0x4B34 JUMP JUMPDEST PUSH2 0x4DFA PUSH1 0x40 DUP4 ADD DUP5 PUSH2 0x4B34 JUMP JUMPDEST SWAP5 SWAP4 POP POP POP POP JUMP JUMPDEST PUSH1 0x0 PUSH1 0x80 DUP3 ADD SWAP1 POP PUSH2 0x4E17 PUSH1 0x0 DUP4 ADD DUP8 PUSH2 0x4B34 JUMP JUMPDEST PUSH2 0x4E24 PUSH1 0x20 DUP4 ADD DUP7 PUSH2 0x4B34 JUMP JUMPDEST PUSH2 0x4E31 PUSH1 0x40 DUP4 ADD DUP6 PUSH2 0x4B34 JUMP JUMPDEST PUSH2 0x4E3E PUSH1 0x60 DUP4 ADD DUP5 PUSH2 0x4B34 JUMP JUMPDEST SWAP6 SWAP5 POP POP POP POP POP JUMP JUMPDEST PUSH1 0x0 PUSH1 0xA0 DUP3 ADD SWAP1 POP PUSH2 0x4E5C PUSH1 0x0 DUP4 ADD DUP9 PUSH2 0x4B34 JUMP JUMPDEST PUSH2 0x4E69 PUSH1 0x20 DUP4 ADD DUP8 PUSH2 0x4B34 JUMP JUMPDEST PUSH2 0x4E76 PUSH1 0x40 DUP4 ADD DUP7 PUSH2 0x4B34 JUMP JUMPDEST PUSH2 0x4E83 PUSH1 0x60 DUP4 ADD DUP6 PUSH2 0x4B34 JUMP JUMPDEST PUSH2 0x4E90 PUSH1 0x80 DUP4 ADD DUP5 PUSH2 0x4B34 JUMP JUMPDEST SWAP7 SWAP6 POP POP POP POP POP POP JUMP JUMPDEST PUSH1 0x0 PUSH1 0x20 DUP3 ADD SWAP1 POP PUSH2 0x4EAF PUSH1 0x0 DUP4 ADD DUP5 PUSH2 0x4B43 JUMP JUMPDEST SWAP3 SWAP2 POP POP JUMP JUMPDEST PUSH1 0x0 PUSH1 0x40 DUP3 ADD SWAP1 POP PUSH2 0x4ECA PUSH1 0x0 DUP4 ADD DUP6 PUSH2 0x4B61 JUMP JUMPDEST PUSH2 0x4ED7 PUSH1 0x20 DUP4 ADD DUP5 PUSH2 0x4A54 JUMP JUMPDEST SWAP4 SWAP3 POP POP POP JUMP JUMPDEST PUSH1 0x0 PUSH1 0x60 DUP3 ADD SWAP1 POP PUSH2 0x4EF3 PUSH1 0x0 DUP4 ADD DUP7 PUSH2 0x4B61 JUMP JUMPDEST PUSH2 0x4F00 PUSH1 0x20 DUP4 ADD DUP6 PUSH2 0x4A54 JUMP JUMPDEST PUSH2 0x4F0D PUSH1 0x40 DUP4 ADD DUP5 PUSH2 0x4A54 JUMP JUMPDEST SWAP5 SWAP4 POP POP POP POP JUMP JUMPDEST PUSH1 0x0 PUSH1 0x40 DUP3 ADD SWAP1 POP PUSH2 0x4F2A PUSH1 0x0 DUP4 ADD DUP6 PUSH2 0x4B61 JUMP JUMPDEST PUSH2 0x4F37 PUSH1 0x20 DUP4 ADD DUP5 PUSH2 0x4B34 JUMP JUMPDEST SWAP4 SWAP3 POP POP POP JUMP JUMPDEST PUSH1 0x0 DUP2 SWAP1 POP PUSH1 0x20 DUP3 ADD SWAP1 POP SWAP2 SWAP1 POP JUMP JUMPDEST PUSH1 0x0 DUP2 MLOAD SWAP1 POP SWAP2 SWAP1 POP JUMP JUMPDEST PUSH1 0x0 PUSH1 0x20 DUP3 ADD SWAP1 POP SWAP2 SWAP1 POP JUMP JUMPDEST PUSH1 0x0 DUP3 DUP3 MSTORE PUSH1 0x20 DUP3 ADD SWAP1 POP SWAP3 SWAP2 POP POP JUMP JUMPDEST PUSH1 0x0 DUP3 DUP3 MSTORE PUSH1 0x20 DUP3 ADD SWAP1 POP SWAP3 SWAP2 POP POP JUMP JUMPDEST PUSH1 0x0 PUSH2 0x4F93 DUP3 PUSH2 0x4FE0 JUMP JUMPDEST SWAP1 POP SWAP2 SWAP1 POP JUMP JUMPDEST PUSH1 0x0 DUP2 ISZERO ISZERO SWAP1 POP SWAP2 SWAP1 POP JUMP JUMPDEST PUSH1 0x0 DUP2 SWAP1 POP SWAP2 SWAP1 POP JUMP JUMPDEST PUSH1 0x0 DUP2 SWAP1 POP PUSH2 0x4FBE DUP3 PUSH2 0x50D1 JUMP JUMPDEST SWAP2 SWAP1 POP JUMP JUMPDEST PUSH1 0x0 DUP2 SWAP1 POP PUSH2 0x4FD1 DUP3 PUSH2 0x50DE JUMP JUMPDEST SWAP2 SWAP1 POP JUMP JUMPDEST PUSH1 0x0 DUP2 SWAP1 POP SWAP2 SWAP1 POP JUMP JUMPDEST PUSH1 0x0 PUSH20 0xFFFFFFFFFFFFFFFFFFFFFFFFFFFFFFFFFFFFFFFF DUP3 AND SWAP1 POP SWAP2 SWAP1 POP JUMP JUMPDEST PUSH1 0x0 DUP2 SWAP1 POP SWAP2 SWAP1 POP JUMP JUMPDEST PUSH1 0x0 PUSH4 0xFFFFFFFF DUP3 AND SWAP1 POP SWAP2 SWAP1 POP JUMP JUMPDEST PUSH1 0x0 PUSH8 0xFFFFFFFFFFFFFFFF DUP3 AND SWAP1 POP SWAP2 SWAP1 POP JUMP JUMPDEST PUSH1 0x0 PUSH1 0xFF DUP3 AND SWAP1 POP SWAP2 SWAP1 POP JUMP JUMPDEST PUSH1 0x0 PUSH12 0xFFFFFFFFFFFFFFFFFFFFFFFF DUP3 AND SWAP1 POP SWAP2 SWAP1 POP JUMP JUMPDEST PUSH1 0x0 PUSH2 0x505E DUP3 PUSH2 0x5065 JUMP JUMPDEST SWAP1 POP SWAP2 SWAP1 POP JUMP JUMPDEST PUSH1 0x0 PUSH2 0x5070 DUP3 PUSH2 0x4FE0 JUMP JUMPDEST SWAP1 POP SWAP2 SWAP1 POP JUMP JUMPDEST PUSH1 0x0 PUSH2 0x5082 DUP3 PUSH2 0x5089 JUMP JUMPDEST SWAP1 POP SWAP2 SWAP1 POP JUMP JUMPDEST PUSH1 0x0 PUSH2 0x5094 DUP3 PUSH2 0x4FE0 JUMP JUMPDEST SWAP1 POP SWAP2 SWAP1 POP JUMP JUMPDEST PUSH1 0x0 PUSH2 0x50A6 DUP3 PUSH2 0x4FB0 JUMP JUMPDEST SWAP1 POP SWAP2 SWAP1 POP JUMP JUMPDEST PUSH1 0x0 PUSH2 0x50B8 DUP3 PUSH2 0x4FC3 JUMP JUMPDEST SWAP1 POP SWAP2 SWAP1 POP JUMP JUMPDEST PUSH1 0x0 PUSH2 0x50CA DUP3 PUSH2 0x5000 JUMP JUMPDEST SWAP1 POP SWAP2 SWAP1 POP JUMP JUMPDEST PUSH1 0x4 DUP2 LT PUSH2 0x50DB JUMPI INVALID JUMPDEST POP JUMP JUMPDEST PUSH1 0x3 DUP2 LT PUSH2 0x50E8 JUMPI INVALID JUMPDEST POP JUMP JUMPDEST PUSH2 0x50F4 DUP2 PUSH2 0x4F88 JUMP JUMPDEST DUP2 EQ PUSH2 0x50FF JUMPI PUSH1 0x0 DUP1 REVERT JUMPDEST POP JUMP JUMPDEST PUSH2 0x510B DUP2 PUSH2 0x4F9A JUMP JUMPDEST DUP2 EQ PUSH2 0x5116 JUMPI PUSH1 0x0 DUP1 REVERT JUMPDEST POP JUMP JUMPDEST PUSH2 0x5122 DUP2 PUSH2 0x4FA6 JUMP JUMPDEST DUP2 EQ PUSH2 0x512D JUMPI PUSH1 0x0 DUP1 REVERT JUMPDEST POP JUMP JUMPDEST PUSH1 0x2 DUP2 LT PUSH2 0x513D JUMPI PUSH1 0x0 DUP1 REVERT JUMPDEST POP JUMP JUMPDEST PUSH2 0x5149 DUP2 PUSH2 0x5000 JUMP JUMPDEST DUP2 EQ PUSH2 0x5154 JUMPI PUSH1 0x0 DUP1 REVERT JUMPDEST POP JUMP INVALID LOG3 PUSH6 0x627A7A723158 KECCAK256 PUSH10 0x360C3F2E2895B6D21F19 0x26 DUP9 0xC5 0x1F 0xE8 PUSH30 0xC736C93C2D80C5467BC4E71EC4484F6C6578706572696D656E74616CF564 PUSH20 0x6F6C634300051100400000000000000000000000 "
		},
		"gasEstimates": {
			"creation": {
				"codeDepositCost": "4178000",
				"executionCost": "25643",
				"totalCost": "4203643"
			},
			"external": {
				"addAuthorizedAddress(address)": "infinite",
				"aggregatedStatsByEpoch(uint256)": "infinite",
				"authorities(uint256)": "2402",
				"authorized(address)": "1634",
				"cobbDouglasAlphaDenominator()": "1354",
				"cobbDouglasAlphaNumerator()": "1282",
				"computeRewardBalanceOfDelegator(bytes32,address)": "infinite",
				"computeRewardBalanceOfOperator(bytes32)": "infinite",
				"currentEpoch()": "1218",
				"currentEpochStartTimeInSeconds()": "1197",
				"endEpoch()": "infinite",
				"epochDurationInSeconds()": "1174",
				"finalizePool(bytes32)": "infinite",
				"getAuthorizedAddresses()": "infinite",
				"getCurrentEpochEarliestEndTimeInSeconds()": "infinite",
				"getGlobalStakeByStatus(uint8)": "infinite",
				"getGrgVault()": "504",
				"getOwnerStakeByStatus(address,uint8)": "infinite",
				"getStakeDelegatedToPoolByOwner(address,bytes32)": "infinite",
				"getTotalStake(address)": "infinite",
				"getTotalStakeDelegatedToPool(bytes32)": "infinite",
				"getWethContract()": "483",
				"lastPoolId()": "1219",
				"minimumPoolStake()": "1197",
				"owner()": "1347",
				"poolIdByRbPool(address)": "1626",
				"poolStatsByEpoch(bytes32,uint256)": "infinite",
				"removeAuthorizedAddress(address)": "infinite",
				"removeAuthorizedAddressAtIndex(address,uint256)": "infinite",
				"rewardDelegatedStakeWeight()": "1260",
				"rewardsByPoolId(bytes32)": "1598",
				"rigoblockOperatorPools(bytes32,uint256)": "2666",
				"stakingContract()": "1280",
				"transferOwnership(address)": "infinite",
				"validExchanges(address)": "1635",
				"wethReservedForPoolRewards()": "1241",
				"withdrawDelegatorRewards(bytes32)": "infinite"
			},
			"internal": {
				"_assertPoolFinalizedLastEpoch(bytes32)": "infinite",
				"_getAvailableWethBalance()": "infinite",
				"_getUnfinalizedPoolRewards(bytes32)": "infinite",
				"_getUnfinalizedPoolRewardsFromPoolStats(struct IStructs.PoolStats memory,struct IStructs.AggregatedStats memory)": "infinite",
				"_isContract(address)": "747",
				"_wrapEth()": "infinite"
			}
		},
		"methodIdentifiers": {
			"addAuthorizedAddress(address)": "42f1181e",
			"aggregatedStatsByEpoch(uint256)": "38229d93",
			"authorities(uint256)": "494503d4",
			"authorized(address)": "b9181611",
			"cobbDouglasAlphaDenominator()": "e8eeb3f8",
			"cobbDouglasAlphaNumerator()": "81666796",
			"computeRewardBalanceOfDelegator(bytes32,address)": "e907f003",
			"computeRewardBalanceOfOperator(bytes32)": "bb7ef7e0",
			"currentEpoch()": "76671808",
			"currentEpochStartTimeInSeconds()": "587da023",
			"endEpoch()": "0b9663db",
			"epochDurationInSeconds()": "63403801",
			"finalizePool(bytes32)": "ff691b11",
			"getAuthorizedAddresses()": "d39de6e9",
			"getCurrentEpochEarliestEndTimeInSeconds()": "b2baa33e",
			"getGlobalStakeByStatus(uint8)": "e804d0a4",
			"getGrgVault()": "e0822db7",
			"getOwnerStakeByStatus(address,uint8)": "44a6958b",
			"getStakeDelegatedToPoolByOwner(address,bytes32)": "f252b7a1",
			"getTotalStake(address)": "1e7ff8f6",
			"getTotalStakeDelegatedToPool(bytes32)": "3e4ad732",
			"getWethContract()": "3c277fc5",
			"lastPoolId()": "a657e579",
			"minimumPoolStake()": "a26171e2",
			"owner()": "8da5cb5b",
			"poolIdByRbPool(address)": "5e30deff",
			"poolStatsByEpoch(bytes32,uint256)": "2a94c279",
			"removeAuthorizedAddress(address)": "70712939",
			"removeAuthorizedAddressAtIndex(address,uint256)": "9ad26744",
			"rewardDelegatedStakeWeight()": "e0ee036e",
			"rewardsByPoolId(bytes32)": "c18c9141",
			"rigoblockOperatorPools(bytes32,uint256)": "3cb25d34",
			"stakingContract()": "ee99205c",
			"transferOwnership(address)": "f2fde38b",
			"validExchanges(address)": "5bd4ab73",
			"wethReservedForPoolRewards()": "b0531524",
			"withdrawDelegatorRewards(bytes32)": "b510879f"
		}
	},
	"abi": [
		{
			"anonymous": false,
			"inputs": [
				{
					"indexed": true,
					"internalType": "address",
					"name": "target",
					"type": "address"
				},
				{
					"indexed": true,
					"internalType": "address",
					"name": "caller",
					"type": "address"
				}
			],
			"name": "AuthorizedAddressAdded",
			"type": "event"
		},
		{
			"anonymous": false,
			"inputs": [
				{
					"indexed": true,
					"internalType": "address",
					"name": "target",
					"type": "address"
				},
				{
					"indexed": true,
					"internalType": "address",
					"name": "caller",
					"type": "address"
				}
			],
			"name": "AuthorizedAddressRemoved",
			"type": "event"
		},
		{
			"anonymous": false,
			"inputs": [
				{
					"indexed": true,
					"internalType": "uint256",
					"name": "epoch",
					"type": "uint256"
				},
				{
					"indexed": false,
					"internalType": "uint256",
					"name": "numPoolsToFinalize",
					"type": "uint256"
				},
				{
					"indexed": false,
					"internalType": "uint256",
					"name": "rewardsAvailable",
					"type": "uint256"
				},
				{
					"indexed": false,
					"internalType": "uint256",
					"name": "totalFeesCollected",
					"type": "uint256"
				},
				{
					"indexed": false,
					"internalType": "uint256",
					"name": "totalWeightedStake",
					"type": "uint256"
				}
			],
			"name": "EpochEnded",
			"type": "event"
		},
		{
			"anonymous": false,
			"inputs": [
				{
					"indexed": true,
					"internalType": "uint256",
					"name": "epoch",
					"type": "uint256"
				},
				{
					"indexed": false,
					"internalType": "uint256",
					"name": "rewardsPaid",
					"type": "uint256"
				},
				{
					"indexed": false,
					"internalType": "uint256",
					"name": "rewardsRemaining",
					"type": "uint256"
				}
			],
			"name": "EpochFinalized",
			"type": "event"
		},
		{
			"anonymous": false,
			"inputs": [
				{
					"indexed": false,
					"internalType": "address",
					"name": "exchangeAddress",
					"type": "address"
				}
			],
			"name": "ExchangeAdded",
			"type": "event"
		},
		{
			"anonymous": false,
			"inputs": [
				{
					"indexed": false,
					"internalType": "address",
					"name": "exchangeAddress",
					"type": "address"
				}
			],
			"name": "ExchangeRemoved",
			"type": "event"
		},
		{
			"anonymous": false,
			"inputs": [
				{
					"indexed": true,
					"internalType": "address",
					"name": "staker",
					"type": "address"
				},
				{
					"indexed": false,
					"internalType": "uint256",
					"name": "amount",
					"type": "uint256"
				},
				{
					"indexed": false,
					"internalType": "uint8",
					"name": "fromStatus",
					"type": "uint8"
				},
				{
					"indexed": true,
					"internalType": "bytes32",
					"name": "fromPool",
					"type": "bytes32"
				},
				{
					"indexed": false,
					"internalType": "uint8",
					"name": "toStatus",
					"type": "uint8"
				},
				{
					"indexed": true,
					"internalType": "bytes32",
					"name": "toPool",
					"type": "bytes32"
				}
			],
			"name": "MoveStake",
			"type": "event"
		},
		{
			"anonymous": false,
			"inputs": [
				{
					"indexed": true,
					"internalType": "bytes32",
					"name": "poolId",
					"type": "bytes32"
				},
				{
					"indexed": false,
					"internalType": "uint32",
					"name": "oldOperatorShare",
					"type": "uint32"
				},
				{
					"indexed": false,
					"internalType": "uint32",
					"name": "newOperatorShare",
					"type": "uint32"
				}
			],
			"name": "OperatorShareDecreased",
			"type": "event"
		},
		{
			"anonymous": false,
			"inputs": [
				{
					"indexed": true,
					"internalType": "address",
					"name": "previousOwner",
					"type": "address"
				},
				{
					"indexed": true,
					"internalType": "address",
					"name": "newOwner",
					"type": "address"
				}
			],
			"name": "OwnershipTransferred",
			"type": "event"
		},
		{
			"anonymous": false,
			"inputs": [
				{
					"indexed": false,
					"internalType": "uint256",
					"name": "epochDurationInSeconds",
					"type": "uint256"
				},
				{
					"indexed": false,
					"internalType": "uint32",
					"name": "rewardDelegatedStakeWeight",
					"type": "uint32"
				},
				{
					"indexed": false,
					"internalType": "uint256",
					"name": "minimumPoolStake",
					"type": "uint256"
				},
				{
					"indexed": false,
					"internalType": "uint256",
					"name": "cobbDouglasAlphaNumerator",
					"type": "uint256"
				},
				{
					"indexed": false,
					"internalType": "uint256",
					"name": "cobbDouglasAlphaDenominator",
					"type": "uint256"
				}
			],
			"name": "ParamsSet",
			"type": "event"
		},
		{
			"anonymous": false,
			"inputs": [
				{
					"indexed": true,
					"internalType": "address",
					"name": "rbPoolAddress",
					"type": "address"
				},
				{
					"indexed": true,
					"internalType": "bytes32",
					"name": "poolId",
					"type": "bytes32"
				}
			],
			"name": "RbPoolStakingPoolSet",
			"type": "event"
		},
		{
			"anonymous": false,
			"inputs": [
				{
					"indexed": true,
					"internalType": "uint256",
					"name": "epoch",
					"type": "uint256"
				},
				{
					"indexed": true,
					"internalType": "bytes32",
					"name": "poolId",
					"type": "bytes32"
				},
				{
					"indexed": false,
					"internalType": "uint256",
					"name": "operatorReward",
					"type": "uint256"
				},
				{
					"indexed": false,
					"internalType": "uint256",
					"name": "membersReward",
					"type": "uint256"
				}
			],
			"name": "RewardsPaid",
			"type": "event"
		},
		{
			"anonymous": false,
			"inputs": [
				{
					"indexed": true,
					"internalType": "address",
					"name": "staker",
					"type": "address"
				},
				{
					"indexed": false,
					"internalType": "uint256",
					"name": "amount",
					"type": "uint256"
				}
			],
			"name": "Stake",
			"type": "event"
		},
		{
			"anonymous": false,
			"inputs": [
				{
					"indexed": false,
					"internalType": "bytes32",
					"name": "poolId",
					"type": "bytes32"
				},
				{
					"indexed": false,
					"internalType": "address",
					"name": "operator",
					"type": "address"
				},
				{
					"indexed": false,
					"internalType": "uint32",
					"name": "operatorShare",
					"type": "uint32"
				}
			],
			"name": "StakingPoolCreated",
			"type": "event"
		},
		{
			"anonymous": false,
			"inputs": [
				{
					"indexed": true,
					"internalType": "uint256",
					"name": "epoch",
					"type": "uint256"
				},
				{
					"indexed": true,
					"internalType": "bytes32",
					"name": "poolId",
					"type": "bytes32"
				}
			],
			"name": "StakingPoolEarnedRewardsInEpoch",
			"type": "event"
		},
		{
			"anonymous": false,
			"inputs": [
				{
					"indexed": true,
					"internalType": "address",
					"name": "staker",
					"type": "address"
				},
				{
					"indexed": false,
					"internalType": "uint256",
					"name": "amount",
					"type": "uint256"
				}
			],
			"name": "Unstake",
			"type": "event"
		},
		{
			"constant": false,
			"inputs": [
				{
					"internalType": "address",
					"name": "target",
					"type": "address"
				}
			],
			"name": "addAuthorizedAddress",
			"outputs": [],
			"payable": false,
			"stateMutability": "nonpayable",
			"type": "function"
		},
		{
			"constant": true,
			"inputs": [
				{
					"internalType": "uint256",
					"name": "",
					"type": "uint256"
				}
			],
			"name": "aggregatedStatsByEpoch",
			"outputs": [
				{
					"internalType": "uint256",
					"name": "rewardsAvailable",
					"type": "uint256"
				},
				{
					"internalType": "uint256",
					"name": "numPoolsToFinalize",
					"type": "uint256"
				},
				{
					"internalType": "uint256",
					"name": "totalFeesCollected",
					"type": "uint256"
				},
				{
					"internalType": "uint256",
					"name": "totalWeightedStake",
					"type": "uint256"
				},
				{
					"internalType": "uint256",
					"name": "totalRewardsFinalized",
					"type": "uint256"
				}
			],
			"payable": false,
			"stateMutability": "view",
			"type": "function"
		},
		{
			"constant": true,
			"inputs": [
				{
					"internalType": "uint256",
					"name": "",
					"type": "uint256"
				}
			],
			"name": "authorities",
			"outputs": [
				{
					"internalType": "address",
					"name": "",
					"type": "address"
				}
			],
			"payable": false,
			"stateMutability": "view",
			"type": "function"
		},
		{
			"constant": true,
			"inputs": [
				{
					"internalType": "address",
					"name": "",
					"type": "address"
				}
			],
			"name": "authorized",
			"outputs": [
				{
					"internalType": "bool",
					"name": "",
					"type": "bool"
				}
			],
			"payable": false,
			"stateMutability": "view",
			"type": "function"
		},
		{
			"constant": true,
			"inputs": [],
			"name": "cobbDouglasAlphaDenominator",
			"outputs": [
				{
					"internalType": "uint32",
					"name": "",
					"type": "uint32"
				}
			],
			"payable": false,
			"stateMutability": "view",
			"type": "function"
		},
		{
			"constant": true,
			"inputs": [],
			"name": "cobbDouglasAlphaNumerator",
			"outputs": [
				{
					"internalType": "uint32",
					"name": "",
					"type": "uint32"
				}
			],
			"payable": false,
			"stateMutability": "view",
			"type": "function"
		},
		{
			"constant": true,
			"inputs": [
				{
					"internalType": "bytes32",
					"name": "poolId",
					"type": "bytes32"
				},
				{
					"internalType": "address",
					"name": "member",
					"type": "address"
				}
			],
			"name": "computeRewardBalanceOfDelegator",
			"outputs": [
				{
					"internalType": "uint256",
					"name": "reward",
					"type": "uint256"
				}
			],
			"payable": false,
			"stateMutability": "view",
			"type": "function"
		},
		{
			"constant": true,
			"inputs": [
				{
					"internalType": "bytes32",
					"name": "poolId",
					"type": "bytes32"
				}
			],
			"name": "computeRewardBalanceOfOperator",
			"outputs": [
				{
					"internalType": "uint256",
					"name": "reward",
					"type": "uint256"
				}
			],
			"payable": false,
			"stateMutability": "view",
			"type": "function"
		},
		{
			"constant": true,
			"inputs": [],
			"name": "currentEpoch",
			"outputs": [
				{
					"internalType": "uint256",
					"name": "",
					"type": "uint256"
				}
			],
			"payable": false,
			"stateMutability": "view",
			"type": "function"
		},
		{
			"constant": true,
			"inputs": [],
			"name": "currentEpochStartTimeInSeconds",
			"outputs": [
				{
					"internalType": "uint256",
					"name": "",
					"type": "uint256"
				}
			],
			"payable": false,
			"stateMutability": "view",
			"type": "function"
		},
		{
			"constant": false,
			"inputs": [],
			"name": "endEpoch",
			"outputs": [
				{
					"internalType": "uint256",
					"name": "",
					"type": "uint256"
				}
			],
			"payable": false,
			"stateMutability": "nonpayable",
			"type": "function"
		},
		{
			"constant": true,
			"inputs": [],
			"name": "epochDurationInSeconds",
			"outputs": [
				{
					"internalType": "uint256",
					"name": "",
					"type": "uint256"
				}
			],
			"payable": false,
			"stateMutability": "view",
			"type": "function"
		},
		{
			"constant": false,
			"inputs": [
				{
					"internalType": "bytes32",
					"name": "poolId",
					"type": "bytes32"
				}
			],
			"name": "finalizePool",
			"outputs": [],
			"payable": false,
			"stateMutability": "nonpayable",
			"type": "function"
		},
		{
			"constant": true,
			"inputs": [],
			"name": "getAuthorizedAddresses",
			"outputs": [
				{
					"internalType": "address[]",
					"name": "",
					"type": "address[]"
				}
			],
			"payable": false,
			"stateMutability": "view",
			"type": "function"
		},
		{
			"constant": true,
			"inputs": [],
			"name": "getCurrentEpochEarliestEndTimeInSeconds",
			"outputs": [
				{
					"internalType": "uint256",
					"name": "",
					"type": "uint256"
				}
			],
			"payable": false,
			"stateMutability": "view",
			"type": "function"
		},
		{
			"constant": true,
			"inputs": [
				{
					"internalType": "enum IStructs.StakeStatus",
					"name": "stakeStatus",
					"type": "uint8"
				}
			],
			"name": "getGlobalStakeByStatus",
			"outputs": [
				{
					"components": [
						{
							"internalType": "uint64",
							"name": "currentEpoch",
							"type": "uint64"
						},
						{
							"internalType": "uint96",
							"name": "currentEpochBalance",
							"type": "uint96"
						},
						{
							"internalType": "uint96",
							"name": "nextEpochBalance",
							"type": "uint96"
						}
					],
					"internalType": "struct IStructs.StoredBalance",
					"name": "balance",
					"type": "tuple"
				}
			],
			"payable": false,
			"stateMutability": "view",
			"type": "function"
		},
		{
			"constant": true,
			"inputs": [],
			"name": "getGrgVault",
			"outputs": [
				{
					"internalType": "contract IGrgVault",
					"name": "grgVault",
					"type": "address"
				}
			],
			"payable": false,
			"stateMutability": "view",
			"type": "function"
		},
		{
			"constant": true,
			"inputs": [
				{
					"internalType": "address",
					"name": "staker",
					"type": "address"
				},
				{
					"internalType": "enum IStructs.StakeStatus",
					"name": "stakeStatus",
					"type": "uint8"
				}
			],
			"name": "getOwnerStakeByStatus",
			"outputs": [
				{
					"components": [
						{
							"internalType": "uint64",
							"name": "currentEpoch",
							"type": "uint64"
						},
						{
							"internalType": "uint96",
							"name": "currentEpochBalance",
							"type": "uint96"
						},
						{
							"internalType": "uint96",
							"name": "nextEpochBalance",
							"type": "uint96"
						}
					],
					"internalType": "struct IStructs.StoredBalance",
					"name": "balance",
					"type": "tuple"
				}
			],
			"payable": false,
			"stateMutability": "view",
			"type": "function"
		},
		{
			"constant": true,
			"inputs": [
				{
					"internalType": "address",
					"name": "staker",
					"type": "address"
				},
				{
					"internalType": "bytes32",
					"name": "poolId",
					"type": "bytes32"
				}
			],
			"name": "getStakeDelegatedToPoolByOwner",
			"outputs": [
				{
					"components": [
						{
							"internalType": "uint64",
							"name": "currentEpoch",
							"type": "uint64"
						},
						{
							"internalType": "uint96",
							"name": "currentEpochBalance",
							"type": "uint96"
						},
						{
							"internalType": "uint96",
							"name": "nextEpochBalance",
							"type": "uint96"
						}
					],
					"internalType": "struct IStructs.StoredBalance",
					"name": "balance",
					"type": "tuple"
				}
			],
			"payable": false,
			"stateMutability": "view",
			"type": "function"
		},
		{
			"constant": true,
			"inputs": [
				{
					"internalType": "address",
					"name": "staker",
					"type": "address"
				}
			],
			"name": "getTotalStake",
			"outputs": [
				{
					"internalType": "uint256",
					"name": "",
					"type": "uint256"
				}
			],
			"payable": false,
			"stateMutability": "view",
			"type": "function"
		},
		{
			"constant": true,
			"inputs": [
				{
					"internalType": "bytes32",
					"name": "poolId",
					"type": "bytes32"
				}
			],
			"name": "getTotalStakeDelegatedToPool",
			"outputs": [
				{
					"components": [
						{
							"internalType": "uint64",
							"name": "currentEpoch",
							"type": "uint64"
						},
						{
							"internalType": "uint96",
							"name": "currentEpochBalance",
							"type": "uint96"
						},
						{
							"internalType": "uint96",
							"name": "nextEpochBalance",
							"type": "uint96"
						}
					],
					"internalType": "struct IStructs.StoredBalance",
					"name": "balance",
					"type": "tuple"
				}
			],
			"payable": false,
			"stateMutability": "view",
			"type": "function"
		},
		{
			"constant": true,
			"inputs": [],
			"name": "getWethContract",
			"outputs": [
				{
					"internalType": "contract IEtherToken",
					"name": "wethContract",
					"type": "address"
				}
			],
			"payable": false,
			"stateMutability": "view",
			"type": "function"
		},
		{
			"constant": true,
			"inputs": [],
			"name": "lastPoolId",
			"outputs": [
				{
					"internalType": "bytes32",
					"name": "",
					"type": "bytes32"
				}
			],
			"payable": false,
			"stateMutability": "view",
			"type": "function"
		},
		{
			"constant": true,
			"inputs": [],
			"name": "minimumPoolStake",
			"outputs": [
				{
					"internalType": "uint256",
					"name": "",
					"type": "uint256"
				}
			],
			"payable": false,
			"stateMutability": "view",
			"type": "function"
		},
		{
			"constant": true,
			"inputs": [],
			"name": "owner",
			"outputs": [
				{
					"internalType": "address",
					"name": "",
					"type": "address"
				}
			],
			"payable": false,
			"stateMutability": "view",
			"type": "function"
		},
		{
			"constant": true,
			"inputs": [
				{
					"internalType": "address",
					"name": "",
					"type": "address"
				}
			],
			"name": "poolIdByRbPool",
			"outputs": [
				{
					"internalType": "bytes32",
					"name": "",
					"type": "bytes32"
				}
			],
			"payable": false,
			"stateMutability": "view",
			"type": "function"
		},
		{
			"constant": true,
			"inputs": [
				{
					"internalType": "bytes32",
					"name": "",
					"type": "bytes32"
				},
				{
					"internalType": "uint256",
					"name": "",
					"type": "uint256"
				}
			],
			"name": "poolStatsByEpoch",
			"outputs": [
				{
					"internalType": "uint256",
					"name": "feesCollected",
					"type": "uint256"
				},
				{
					"internalType": "uint256",
					"name": "weightedStake",
					"type": "uint256"
				},
				{
					"internalType": "uint256",
					"name": "membersStake",
					"type": "uint256"
				}
			],
			"payable": false,
			"stateMutability": "view",
			"type": "function"
		},
		{
			"constant": false,
			"inputs": [
				{
					"internalType": "address",
					"name": "target",
					"type": "address"
				}
			],
			"name": "removeAuthorizedAddress",
			"outputs": [],
			"payable": false,
			"stateMutability": "nonpayable",
			"type": "function"
		},
		{
			"constant": false,
			"inputs": [
				{
					"internalType": "address",
					"name": "target",
					"type": "address"
				},
				{
					"internalType": "uint256",
					"name": "index",
					"type": "uint256"
				}
			],
			"name": "removeAuthorizedAddressAtIndex",
			"outputs": [],
			"payable": false,
			"stateMutability": "nonpayable",
			"type": "function"
		},
		{
			"constant": true,
			"inputs": [],
			"name": "rewardDelegatedStakeWeight",
			"outputs": [
				{
					"internalType": "uint32",
					"name": "",
					"type": "uint32"
				}
			],
			"payable": false,
			"stateMutability": "view",
			"type": "function"
		},
		{
			"constant": true,
			"inputs": [
				{
					"internalType": "bytes32",
					"name": "",
					"type": "bytes32"
				}
			],
			"name": "rewardsByPoolId",
			"outputs": [
				{
					"internalType": "uint256",
					"name": "",
					"type": "uint256"
				}
			],
			"payable": false,
			"stateMutability": "view",
			"type": "function"
		},
		{
			"constant": true,
			"inputs": [
				{
					"internalType": "bytes32",
					"name": "",
					"type": "bytes32"
				},
				{
					"internalType": "uint256",
					"name": "",
					"type": "uint256"
				}
			],
			"name": "rigoblockOperatorPools",
			"outputs": [
				{
					"internalType": "address",
					"name": "",
					"type": "address"
				}
			],
			"payable": false,
			"stateMutability": "view",
			"type": "function"
		},
		{
			"constant": true,
			"inputs": [],
			"name": "stakingContract",
			"outputs": [
				{
					"internalType": "address",
					"name": "",
					"type": "address"
				}
			],
			"payable": false,
			"stateMutability": "view",
			"type": "function"
		},
		{
			"constant": false,
			"inputs": [
				{
					"internalType": "address",
					"name": "newOwner",
					"type": "address"
				}
			],
			"name": "transferOwnership",
			"outputs": [],
			"payable": false,
			"stateMutability": "nonpayable",
			"type": "function"
		},
		{
			"constant": true,
			"inputs": [
				{
					"internalType": "address",
					"name": "",
					"type": "address"
				}
			],
			"name": "validExchanges",
			"outputs": [
				{
					"internalType": "bool",
					"name": "",
					"type": "bool"
				}
			],
			"payable": false,
			"stateMutability": "view",
			"type": "function"
		},
		{
			"constant": true,
			"inputs": [],
			"name": "wethReservedForPoolRewards",
			"outputs": [
				{
					"internalType": "uint256",
					"name": "",
					"type": "uint256"
				}
			],
			"payable": false,
			"stateMutability": "view",
			"type": "function"
		},
		{
			"constant": false,
			"inputs": [
				{
					"internalType": "bytes32",
					"name": "poolId",
					"type": "bytes32"
				}
			],
			"name": "withdrawDelegatorRewards",
			"outputs": [],
			"payable": false,
			"stateMutability": "nonpayable",
			"type": "function"
		}
	]
}